{
	"contracts/chains/kardiachain/RewardSystem.sol": {
		"RewardSystem": {
			"abi": [
				{
					"inputs": [
						{
							"internalType": "contract IERC20",
							"name": "rewardToken",
							"type": "address"
						}
					],
					"stateMutability": "nonpayable",
					"type": "constructor"
				},
				{
					"anonymous": false,
					"inputs": [
						{
							"indexed": true,
							"internalType": "uint256",
							"name": "previousFee",
							"type": "uint256"
						},
						{
							"indexed": true,
							"internalType": "uint256",
							"name": "fee",
							"type": "uint256"
						}
					],
					"name": "ChangedFee",
					"type": "event"
				},
				{
					"anonymous": false,
					"inputs": [
						{
							"indexed": true,
							"internalType": "uint256",
							"name": "previousAmount",
							"type": "uint256"
						},
						{
							"indexed": true,
							"internalType": "uint256",
							"name": "amount",
							"type": "uint256"
						}
					],
					"name": "ChangedMaxAmountPerReceive",
					"type": "event"
				},
				{
					"anonymous": false,
					"inputs": [
						{
							"indexed": true,
							"internalType": "address",
							"name": "previousAddress",
							"type": "address"
						},
						{
							"indexed": true,
							"internalType": "address",
							"name": "newAddress",
							"type": "address"
						}
					],
					"name": "ChangedOracleWallet",
					"type": "event"
				},
				{
					"anonymous": false,
					"inputs": [
						{
							"indexed": true,
							"internalType": "address",
							"name": "previousToken",
							"type": "address"
						},
						{
							"indexed": true,
							"internalType": "address",
							"name": "newToken",
							"type": "address"
						}
					],
					"name": "ChangedRewardToken",
					"type": "event"
				},
				{
					"anonymous": false,
					"inputs": [
						{
							"indexed": true,
							"internalType": "address",
							"name": "owner",
							"type": "address"
						}
					],
					"name": "EmergencyWithdraw",
					"type": "event"
				},
				{
					"anonymous": false,
					"inputs": [],
					"name": "EnabledLock",
					"type": "event"
				},
				{
					"anonymous": false,
					"inputs": [
						{
							"indexed": true,
							"internalType": "address",
							"name": "owner",
							"type": "address"
						}
					],
					"name": "EnabledRewards",
					"type": "event"
				},
				{
					"anonymous": false,
					"inputs": [
						{
							"indexed": true,
							"internalType": "address",
							"name": "previousMaintainer",
							"type": "address"
						},
						{
							"indexed": true,
							"internalType": "address",
							"name": "newMaintainer",
							"type": "address"
						}
					],
					"name": "MaintainerTransferred",
					"type": "event"
				},
				{
					"anonymous": false,
					"inputs": [
						{
							"indexed": true,
							"internalType": "address",
							"name": "previousOwner",
							"type": "address"
						},
						{
							"indexed": true,
							"internalType": "address",
							"name": "newOwner",
							"type": "address"
						}
					],
					"name": "OwnershipTransferred",
					"type": "event"
				},
				{
					"anonymous": false,
					"inputs": [
						{
							"indexed": true,
							"internalType": "address",
							"name": "owner",
							"type": "address"
						},
						{
							"indexed": true,
							"internalType": "uint256",
							"name": "amount",
							"type": "uint256"
						}
					],
					"name": "SentRewards",
					"type": "event"
				},
				{
					"anonymous": false,
					"inputs": [
						{
							"indexed": true,
							"internalType": "address",
							"name": "owner",
							"type": "address"
						},
						{
							"indexed": true,
							"internalType": "uint256",
							"name": "amount",
							"type": "uint256"
						},
						{
							"indexed": true,
							"internalType": "uint256",
							"name": "fees",
							"type": "uint256"
						}
					],
					"name": "SentRewardsETH",
					"type": "event"
				},
				{
					"anonymous": false,
					"inputs": [
						{
							"indexed": true,
							"internalType": "string",
							"name": "functionName",
							"type": "string"
						},
						{
							"indexed": true,
							"internalType": "uint256",
							"name": "unlockedAt",
							"type": "uint256"
						}
					],
					"name": "UnlockedFunction",
					"type": "event"
				},
				{
					"inputs": [
						{
							"internalType": "address",
							"name": "",
							"type": "address"
						}
					],
					"name": "_claimTimes",
					"outputs": [
						{
							"internalType": "uint256",
							"name": "",
							"type": "uint256"
						}
					],
					"stateMutability": "view",
					"type": "function"
				},
				{
					"inputs": [],
					"name": "_devWallet",
					"outputs": [
						{
							"internalType": "address",
							"name": "",
							"type": "address"
						}
					],
					"stateMutability": "view",
					"type": "function"
				},
				{
					"inputs": [],
					"name": "_maxAmountPerReceive",
					"outputs": [
						{
							"internalType": "uint256",
							"name": "",
							"type": "uint256"
						}
					],
					"stateMutability": "view",
					"type": "function"
				},
				{
					"inputs": [],
					"name": "_oracleWallet",
					"outputs": [
						{
							"internalType": "address",
							"name": "",
							"type": "address"
						}
					],
					"stateMutability": "view",
					"type": "function"
				},
				{
					"inputs": [],
					"name": "_rewardToken",
					"outputs": [
						{
							"internalType": "contract IERC20",
							"name": "",
							"type": "address"
						}
					],
					"stateMutability": "view",
					"type": "function"
				},
				{
					"inputs": [
						{
							"internalType": "address",
							"name": "",
							"type": "address"
						}
					],
					"name": "_rewards",
					"outputs": [
						{
							"internalType": "bool",
							"name": "",
							"type": "bool"
						}
					],
					"stateMutability": "view",
					"type": "function"
				},
				{
					"inputs": [],
					"name": "_router",
					"outputs": [
						{
							"internalType": "contract IKaiDexRouter",
							"name": "",
							"type": "address"
						}
					],
					"stateMutability": "view",
					"type": "function"
				},
				{
					"inputs": [],
					"name": "_timeBetweenClaims",
					"outputs": [
						{
							"internalType": "uint256",
							"name": "",
							"type": "uint256"
						}
					],
					"stateMutability": "view",
					"type": "function"
				},
				{
					"inputs": [],
					"name": "_weth",
					"outputs": [
						{
							"internalType": "address",
							"name": "",
							"type": "address"
						}
					],
					"stateMutability": "view",
					"type": "function"
				},
				{
					"inputs": [
						{
							"internalType": "uint256",
							"name": "newAmount",
							"type": "uint256"
						}
					],
					"name": "adjustMaxAmountPerReceive",
					"outputs": [],
					"stateMutability": "nonpayable",
					"type": "function"
				},
				{
					"inputs": [
						{
							"internalType": "address",
							"name": "user",
							"type": "address"
						}
					],
					"name": "canClaim",
					"outputs": [
						{
							"internalType": "bool",
							"name": "",
							"type": "bool"
						}
					],
					"stateMutability": "view",
					"type": "function"
				},
				{
					"inputs": [
						{
							"internalType": "uint256",
							"name": "newFee",
							"type": "uint256"
						}
					],
					"name": "changeFee",
					"outputs": [],
					"stateMutability": "nonpayable",
					"type": "function"
				},
				{
					"inputs": [
						{
							"internalType": "address",
							"name": "oracleWallet",
							"type": "address"
						}
					],
					"name": "changeOracleWallet",
					"outputs": [],
					"stateMutability": "nonpayable",
					"type": "function"
				},
				{
					"inputs": [],
					"name": "emergencyWithdraw",
					"outputs": [],
					"stateMutability": "nonpayable",
					"type": "function"
				},
				{
					"inputs": [],
					"name": "getBalance",
					"outputs": [
						{
							"internalType": "uint256",
							"name": "",
							"type": "uint256"
						}
					],
					"stateMutability": "view",
					"type": "function"
				},
				{
					"inputs": [],
					"name": "getEthBalance",
					"outputs": [
						{
							"internalType": "uint256",
							"name": "",
							"type": "uint256"
						}
					],
					"stateMutability": "view",
					"type": "function"
				},
				{
					"inputs": [],
					"name": "isLockEnabled",
					"outputs": [
						{
							"internalType": "bool",
							"name": "",
							"type": "bool"
						}
					],
					"stateMutability": "view",
					"type": "function"
				},
				{
					"inputs": [
						{
							"internalType": "string",
							"name": "_fn",
							"type": "string"
						}
					],
					"name": "lockFunction",
					"outputs": [],
					"stateMutability": "nonpayable",
					"type": "function"
				},
				{
					"inputs": [],
					"name": "maintainer",
					"outputs": [
						{
							"internalType": "address",
							"name": "",
							"type": "address"
						}
					],
					"stateMutability": "view",
					"type": "function"
				},
				{
					"inputs": [],
					"name": "nativeSwapFee",
					"outputs": [
						{
							"internalType": "uint256",
							"name": "",
							"type": "uint256"
						}
					],
					"stateMutability": "view",
					"type": "function"
				},
				{
					"inputs": [],
					"name": "owner",
					"outputs": [
						{
							"internalType": "address",
							"name": "",
							"type": "address"
						}
					],
					"stateMutability": "view",
					"type": "function"
				},
				{
					"inputs": [],
					"name": "renounceOwnership",
					"outputs": [],
					"stateMutability": "nonpayable",
					"type": "function"
				},
				{
					"inputs": [
						{
							"internalType": "uint256",
							"name": "amount",
							"type": "uint256"
						},
						{
							"internalType": "address",
							"name": "user",
							"type": "address"
						}
					],
					"name": "sendRewardAsEth",
					"outputs": [],
					"stateMutability": "nonpayable",
					"type": "function"
				},
				{
					"inputs": [
						{
							"internalType": "uint256",
							"name": "amount",
							"type": "uint256"
						},
						{
							"internalType": "address",
							"name": "user",
							"type": "address"
						},
						{
							"internalType": "uint256",
							"name": "fee",
							"type": "uint256"
						}
					],
					"name": "sendRewards",
					"outputs": [],
					"stateMutability": "nonpayable",
					"type": "function"
				},
				{
					"inputs": [
						{
							"internalType": "address",
							"name": "_newMaintainer",
							"type": "address"
						}
					],
					"name": "setMaintainer",
					"outputs": [],
					"stateMutability": "nonpayable",
					"type": "function"
				},
				{
					"inputs": [
						{
							"internalType": "contract IKaiDexRouter",
							"name": "router",
							"type": "address"
						}
					],
					"name": "setRouter",
					"outputs": [],
					"stateMutability": "nonpayable",
					"type": "function"
				},
				{
					"inputs": [],
					"name": "setTimelockEnabled",
					"outputs": [],
					"stateMutability": "nonpayable",
					"type": "function"
				},
				{
					"inputs": [
						{
							"internalType": "string",
							"name": "",
							"type": "string"
						}
					],
					"name": "timelock",
					"outputs": [
						{
							"internalType": "uint256",
							"name": "",
							"type": "uint256"
						}
					],
					"stateMutability": "view",
					"type": "function"
				},
				{
					"inputs": [
						{
							"internalType": "address",
							"name": "newOwner",
							"type": "address"
						}
					],
					"name": "transferOwnership",
					"outputs": [],
					"stateMutability": "nonpayable",
					"type": "function"
				},
				{
					"inputs": [
						{
							"internalType": "string",
							"name": "_fn",
							"type": "string"
						}
					],
					"name": "unlockFunction",
					"outputs": [],
					"stateMutability": "nonpayable",
					"type": "function"
				},
				{
					"inputs": [
						{
							"internalType": "contract IERC20",
							"name": "rewardToken",
							"type": "address"
						}
					],
					"name": "updateRewardToken",
					"outputs": [],
					"stateMutability": "nonpayable",
					"type": "function"
				},
				{
					"stateMutability": "payable",
					"type": "receive"
				}
			],
			"devdoc": {
				"kind": "dev",
				"methods": {
					"owner()": {
						"details": "Returns the address of the current owner."
					},
					"renounceOwnership()": {
						"details": "Leaves the contract without owner. It will not be possible to call `onlyOwner` functions anymore. Can only be called by the current owner. NOTE: Renouncing ownership will leave the contract without an owner, thereby removing any functionality that is only available to the owner."
					},
					"transferOwnership(address)": {
						"details": "Transfers ownership of the contract to a new account (`newOwner`). Can only be called by the current owner."
					}
				},
				"version": 1
			},
			"evm": {
				"assembly": "    /* \"contracts/chains/kardiachain/RewardSystem.sol\":483:7933  contract RewardSystem is Ownable, TimeLock {... */\n  mstore(0x40, 0x80)\n    /* \"contracts/libraries/TimeLock.sol\":765:770  false */\n  0x00\n    /* \"contracts/libraries/TimeLock.sol\":737:770  bool public isLockEnabled = false */\n  dup1\n  sload\n  not(shl(0xa0, 0xff))\n  and\n  swap1\n  sstore\n    /* \"contracts/chains/kardiachain/RewardSystem.sol\":1045:1047  10 */\n  0x0a\n    /* \"contracts/chains/kardiachain/RewardSystem.sol\":1014:1047  uint256 public nativeSwapFee = 10 */\n  0x05\n  dup2\n  swap1\n  sstore\n    /* \"contracts/chains/kardiachain/RewardSystem.sol\":1068:1141  address public _oracleWallet = 0x76049b7cAaB30b8bBBdcfF3A1059d9147dBF7B19 */\n  0x06\n  dup1\n  sload\n  not(sub(shl(0xa0, 0x01), 0x01))\n  swap1\n  dup2\n  and\n    /* \"contracts/chains/kardiachain/RewardSystem.sol\":1099:1141  0x76049b7cAaB30b8bBBdcfF3A1059d9147dBF7B19 */\n  0x76049b7caab30b8bbbdcff3a1059d9147dbf7b19\n    /* \"contracts/chains/kardiachain/RewardSystem.sol\":1068:1141  address public _oracleWallet = 0x76049b7cAaB30b8bBBdcfF3A1059d9147dBF7B19 */\n  or\n  swap1\n  swap2\n  sstore\n    /* \"contracts/chains/kardiachain/RewardSystem.sol\":1147:1217  address public _devWallet = 0xc559aCc356D3037EC6dbc33a20587051188b8634 */\n  0x07\n  dup1\n  sload\n  dup3\n  and\n    /* \"contracts/chains/kardiachain/RewardSystem.sol\":1175:1217  0xc559aCc356D3037EC6dbc33a20587051188b8634 */\n  0xc559acc356d3037ec6dbc33a20587051188b8634\n    /* \"contracts/chains/kardiachain/RewardSystem.sol\":1147:1217  address public _devWallet = 0xc559aCc356D3037EC6dbc33a20587051188b8634 */\n  or\n  swap1\n  sstore\n    /* \"contracts/chains/kardiachain/RewardSystem.sol\":1298:1312  10000000 ether */\n  0x084595161401484a000000\n    /* \"contracts/chains/kardiachain/RewardSystem.sol\":1260:1312  uint256 public _maxAmountPerReceive = 10000000 ether */\n  0x09\n  sstore\n    /* \"contracts/chains/kardiachain/RewardSystem.sol\":1354:1360  1 days */\n  0x015180\n    /* \"contracts/chains/kardiachain/RewardSystem.sol\":1318:1360  uint256 public _timeBetweenClaims = 1 days */\n  swap1\n  swap2\n  sstore\n    /* \"contracts/chains/kardiachain/RewardSystem.sol\":1366:1431  address public _weth = 0xAF984E23EAA3E7967F3C5E007fbe397D8566D23d */\n  0x0b\n  dup1\n  sload\n  dup3\n  and\n    /* \"contracts/chains/kardiachain/RewardSystem.sol\":1389:1431  0xAF984E23EAA3E7967F3C5E007fbe397D8566D23d */\n  0xaf984e23eaa3e7967f3c5e007fbe397d8566d23d\n    /* \"contracts/chains/kardiachain/RewardSystem.sol\":1366:1431  address public _weth = 0xAF984E23EAA3E7967F3C5E007fbe397D8566D23d */\n  or\n  swap1\n  sstore\n    /* \"contracts/chains/kardiachain/RewardSystem.sol\":1438:1526  IKaiDexRouter public _router = IKaiDexRouter(0xbAFcdabe65A03825a131298bE7670c0aEC77B37f) */\n  0x0c\n  dup1\n  sload\n  swap1\n  swap2\n  and\n    /* \"contracts/chains/kardiachain/RewardSystem.sol\":1483:1525  0xbAFcdabe65A03825a131298bE7670c0aEC77B37f */\n  0xbafcdabe65a03825a131298be7670c0aec77b37f\n    /* \"contracts/chains/kardiachain/RewardSystem.sol\":1438:1526  IKaiDexRouter public _router = IKaiDexRouter(0xbAFcdabe65A03825a131298bE7670c0aEC77B37f) */\n  or\n  swap1\n  sstore\n    /* \"contracts/chains/kardiachain/RewardSystem.sol\":2466:2584  constructor(IERC20 rewardToken) {... */\n  callvalue\n  dup1\n  iszero\n  tag_1\n  jumpi\n  0x00\n  dup1\n  revert\ntag_1:\n  pop\n  mload(0x40)\n  sub(codesize, bytecodeSize)\n  dup1\n  bytecodeSize\n  dup4\n  codecopy\n  dup2\n  add\n  0x40\n  dup2\n  swap1\n  mstore\n  tag_2\n  swap2\n  tag_3\n  jump\t// in\ntag_2:\n    /* \"@openzeppelin/contracts/access/Ownable.sol\":867:890  _setOwner(_msgSender()) */\n  tag_8\n    /* \"@openzeppelin/contracts/utils/Context.sol\":665:675  msg.sender */\n  caller\n    /* \"@openzeppelin/contracts/access/Ownable.sol\":867:876  _setOwner */\n  tag_11\n    /* \"@openzeppelin/contracts/access/Ownable.sol\":867:890  _setOwner(_msgSender()) */\n  jump\t// in\ntag_8:\n    /* \"contracts/libraries/TimeLock.sol\":2409:2420  _maintainer */\n  0x02\n    /* \"contracts/libraries/TimeLock.sol\":2409:2433  _maintainer = msg.sender */\n  dup1\n  sload\n  not(sub(shl(0xa0, 0x01), 0x01))\n  swap1\n  dup2\n  and\n    /* \"contracts/libraries/TimeLock.sol\":2423:2433  msg.sender */\n  caller\n    /* \"contracts/libraries/TimeLock.sol\":2409:2433  _maintainer = msg.sender */\n  or\n  swap1\n  swap2\n  sstore\n    /* \"contracts/chains/kardiachain/RewardSystem.sol\":2508:2520  _rewardToken */\n  0x08\n    /* \"contracts/chains/kardiachain/RewardSystem.sol\":2508:2534  _rewardToken = rewardToken */\n  dup1\n  sload\n  sub(shl(0xa0, 0x01), 0x01)\n  dup5\n  dup2\n  and\n  swap2\n  swap1\n  swap4\n  and\n  or\n  swap1\n  sstore\n    /* \"contracts/chains/kardiachain/RewardSystem.sol\":2563:2576  _oracleWallet */\n  sload(0x06)\n    /* \"contracts/chains/kardiachain/RewardSystem.sol\":2544:2577  changeOracleWallet(_oracleWallet) */\n  tag_14\n  swap2\n    /* \"contracts/chains/kardiachain/RewardSystem.sol\":2563:2576  _oracleWallet */\n  and\n    /* \"contracts/chains/kardiachain/RewardSystem.sol\":2544:2562  changeOracleWallet */\n  tag_15\n    /* \"contracts/chains/kardiachain/RewardSystem.sol\":2544:2577  changeOracleWallet(_oracleWallet) */\n  jump\t// in\ntag_14:\n    /* \"contracts/chains/kardiachain/RewardSystem.sol\":2466:2584  constructor(IERC20 rewardToken) {... */\n  pop\n    /* \"contracts/chains/kardiachain/RewardSystem.sol\":483:7933  contract RewardSystem is Ownable, TimeLock {... */\n  jump(tag_63)\n    /* \"@openzeppelin/contracts/access/Ownable.sol\":2041:2210  function _setOwner(address newOwner) private {... */\ntag_11:\n    /* \"@openzeppelin/contracts/access/Ownable.sol\":2096:2112  address oldOwner */\n  0x00\n    /* \"@openzeppelin/contracts/access/Ownable.sol\":2115:2121  _owner */\n  dup1\n  sload\n  sub(shl(0xa0, 0x01), 0x01)\n    /* \"@openzeppelin/contracts/access/Ownable.sol\":2131:2148  _owner = newOwner */\n  dup4\n  dup2\n  and\n  not(sub(shl(0xa0, 0x01), 0x01))\n  dup4\n  and\n  dup2\n  or\n  dup5\n  sstore\n    /* \"@openzeppelin/contracts/access/Ownable.sol\":2163:2203  OwnershipTransferred(oldOwner, newOwner) */\n  mload(0x40)\n    /* \"@openzeppelin/contracts/access/Ownable.sol\":2115:2121  _owner */\n  swap2\n  swap1\n  swap3\n  and\n  swap3\n  dup4\n  swap2\n    /* \"@openzeppelin/contracts/access/Ownable.sol\":2163:2203  OwnershipTransferred(oldOwner, newOwner) */\n  0x8be0079c531659141344cd1fd0a4f28419497f9722a3daafe3b4186f6b6457e0\n  swap2\n    /* \"@openzeppelin/contracts/access/Ownable.sol\":2096:2112  address oldOwner */\n  swap1\n    /* \"@openzeppelin/contracts/access/Ownable.sol\":2163:2203  OwnershipTransferred(oldOwner, newOwner) */\n  log3\n    /* \"@openzeppelin/contracts/access/Ownable.sol\":2086:2210  {... */\n  pop\n    /* \"@openzeppelin/contracts/access/Ownable.sol\":2041:2210  function _setOwner(address newOwner) private {... */\n  pop\n  jump\t// out\n    /* \"contracts/chains/kardiachain/RewardSystem.sol\":4227:4510  function changeOracleWallet(address oracleWallet) public onlyOwner locked(\"changeOracleWallet\") {... */\ntag_15:\n    /* \"@openzeppelin/contracts/access/Ownable.sol\":1019:1026  address */\n  0x00\n    /* \"@openzeppelin/contracts/access/Ownable.sol\":1045:1051  _owner */\n  sload\n  sub(shl(0xa0, 0x01), 0x01)\n  and\n    /* \"@openzeppelin/contracts/utils/Context.sol\":665:675  msg.sender */\n  caller\n    /* \"@openzeppelin/contracts/access/Ownable.sol\":1185:1208  owner() == _msgSender() */\n  eq\n    /* \"@openzeppelin/contracts/access/Ownable.sol\":1177:1245  require(owner() == _msgSender(), \"Ownable: caller is not the owner\") */\n  tag_23\n  jumpi\n  mload(0x40)\n  shl(0xe5, 0x461bcd)\n  dup2\n  mstore\n    /* \"#utility.yul\":1365:1367   */\n  0x20\n    /* \"@openzeppelin/contracts/access/Ownable.sol\":1177:1245  require(owner() == _msgSender(), \"Ownable: caller is not the owner\") */\n  0x04\n  dup3\n  add\n    /* \"#utility.yul\":1347:1368   */\n  dup2\n  swap1\n  mstore\n    /* \"#utility.yul\":1384:1402   */\n  0x24\n  dup3\n  add\n    /* \"#utility.yul\":1377:1407   */\n  mstore\n  0x00\n  dup1\n  mload\n  0x20\n  data_9924ebdf1add33d25d4ef888e16131f0a5687b0580a36c21b5c301a6c462effe\n  dup4\n  codecopy\n  dup2\n  mload\n  swap2\n  mstore\n    /* \"#utility.yul\":1423:1441   */\n  0x44\n  dup3\n  add\n    /* \"#utility.yul\":1416:1478   */\n  mstore\n    /* \"#utility.yul\":1495:1513   */\n  0x64\n  add\n    /* \"@openzeppelin/contracts/access/Ownable.sol\":1177:1245  require(owner() == _msgSender(), \"Ownable: caller is not the owner\") */\ntag_24:\n  mload(0x40)\n  dup1\n  swap2\n  sub\n  swap1\n  revert\ntag_23:\n    /* \"contracts/libraries/TimeLock.sol\":1945:2188  modifier locked(string memory _fn) {... */\n  0x40\n  dup1\n  mload\n  dup1\n  dup3\n  add\n  swap1\n  swap2\n  mstore\n  0x12\n  dup2\n  mstore\n  shl(0x72, 0x18da185b99d953dc9858db1955d85b1b195d)\n  0x20\n  dup3\n  add\n  mstore\n  0x00\n    /* \"contracts/libraries/TimeLock.sol\":1999:2012  isLockEnabled */\n  sload\n  shl(0xa0, 0x01)\n  swap1\n  div\n  0xff\n  and\n    /* \"contracts/libraries/TimeLock.sol\":1998:2012  !isLockEnabled */\n  iszero\n  dup1\n    /* \"contracts/libraries/TimeLock.sol\":1998:2120  !isLockEnabled || (timelock[_fn] != 0 && timelock[_fn] <= block.timestamp && timelock[_fn] + _TIMELOCK >= block.timestamp) */\n  tag_32\n  jumpi\n  pop\n    /* \"contracts/libraries/TimeLock.sol\":2017:2025  timelock */\n  0x01\n    /* \"contracts/libraries/TimeLock.sol\":2026:2029  _fn */\n  dup2\n    /* \"contracts/libraries/TimeLock.sol\":2017:2030  timelock[_fn] */\n  mload(0x40)\n  tag_28\n  swap2\n  swap1\n  tag_29\n  jump\t// in\ntag_28:\n  swap1\n  dup2\n  mstore\n  0x20\n  add\n  mload(0x40)\n  dup1\n  swap2\n  sub\n  swap1\n  keccak256\n  sload\n    /* \"contracts/libraries/TimeLock.sol\":2034:2035  0 */\n  0x00\n    /* \"contracts/libraries/TimeLock.sol\":2017:2035  timelock[_fn] != 0 */\n  eq\n  iszero\n    /* \"contracts/libraries/TimeLock.sol\":2017:2071  timelock[_fn] != 0 && timelock[_fn] <= block.timestamp */\n  dup1\n  iszero\n  tag_30\n  jumpi\n  pop\n    /* \"contracts/libraries/TimeLock.sol\":2056:2071  block.timestamp */\n  timestamp\n    /* \"contracts/libraries/TimeLock.sol\":2039:2047  timelock */\n  0x01\n    /* \"contracts/libraries/TimeLock.sol\":2048:2051  _fn */\n  dup3\n    /* \"contracts/libraries/TimeLock.sol\":2039:2052  timelock[_fn] */\n  mload(0x40)\n  tag_31\n  swap2\n  swap1\n  tag_29\n  jump\t// in\ntag_31:\n  swap1\n  dup2\n  mstore\n  0x20\n  add\n  mload(0x40)\n  dup1\n  swap2\n  sub\n  swap1\n  keccak256\n  sload\n    /* \"contracts/libraries/TimeLock.sol\":2039:2071  timelock[_fn] <= block.timestamp */\n  gt\n  iszero\n    /* \"contracts/libraries/TimeLock.sol\":2017:2071  timelock[_fn] != 0 && timelock[_fn] <= block.timestamp */\ntag_30:\n    /* \"contracts/libraries/TimeLock.sol\":2017:2119  timelock[_fn] != 0 && timelock[_fn] <= block.timestamp && timelock[_fn] + _TIMELOCK >= block.timestamp */\n  dup1\n  iszero\n  tag_32\n  jumpi\n  pop\n    /* \"contracts/libraries/TimeLock.sol\":2104:2119  block.timestamp */\n  timestamp\n    /* \"contracts/libraries/TimeLock.sol\":861:867  1 days */\n  0x015180\n    /* \"contracts/libraries/TimeLock.sol\":2075:2083  timelock */\n  0x01\n    /* \"contracts/libraries/TimeLock.sol\":2084:2087  _fn */\n  dup4\n    /* \"contracts/libraries/TimeLock.sol\":2075:2088  timelock[_fn] */\n  mload(0x40)\n  tag_33\n  swap2\n  swap1\n  tag_29\n  jump\t// in\ntag_33:\n  swap1\n  dup2\n  mstore\n  0x20\n  add\n  mload(0x40)\n  dup1\n  swap2\n  sub\n  swap1\n  keccak256\n  sload\n    /* \"contracts/libraries/TimeLock.sol\":2075:2100  timelock[_fn] + _TIMELOCK */\n  tag_34\n  swap2\n  swap1\n  tag_35\n  jump\t// in\ntag_34:\n    /* \"contracts/libraries/TimeLock.sol\":2075:2119  timelock[_fn] + _TIMELOCK >= block.timestamp */\n  lt\n  iszero\n    /* \"contracts/libraries/TimeLock.sol\":2017:2119  timelock[_fn] != 0 && timelock[_fn] <= block.timestamp && timelock[_fn] + _TIMELOCK >= block.timestamp */\ntag_32:\n    /* \"contracts/libraries/TimeLock.sol\":1990:2143  require(!isLockEnabled || (timelock[_fn] != 0 && timelock[_fn] <= block.timestamp && timelock[_fn] + _TIMELOCK >= block.timestamp), \"Function is locked\") */\n  tag_36\n  jumpi\n  mload(0x40)\n  shl(0xe5, 0x461bcd)\n  dup2\n  mstore\n    /* \"#utility.yul\":1726:1728   */\n  0x20\n    /* \"contracts/libraries/TimeLock.sol\":1990:2143  require(!isLockEnabled || (timelock[_fn] != 0 && timelock[_fn] <= block.timestamp && timelock[_fn] + _TIMELOCK >= block.timestamp), \"Function is locked\") */\n  0x04\n  dup3\n  add\n    /* \"#utility.yul\":1708:1729   */\n  mstore\n    /* \"#utility.yul\":1765:1767   */\n  0x12\n    /* \"#utility.yul\":1745:1763   */\n  0x24\n  dup3\n  add\n    /* \"#utility.yul\":1738:1768   */\n  mstore\n  shl(0x72, 0x119d5b98dd1a5bdb881a5cc81b1bd8dad959)\n    /* \"#utility.yul\":1784:1802   */\n  0x44\n  dup3\n  add\n    /* \"#utility.yul\":1777:1825   */\n  mstore\n    /* \"#utility.yul\":1842:1860   */\n  0x64\n  add\n    /* \"contracts/libraries/TimeLock.sol\":1990:2143  require(!isLockEnabled || (timelock[_fn] != 0 && timelock[_fn] <= block.timestamp && timelock[_fn] + _TIMELOCK >= block.timestamp), \"Function is locked\") */\n  tag_24\n    /* \"#utility.yul\":1524:1866   */\n  jump\n    /* \"contracts/libraries/TimeLock.sol\":1990:2143  require(!isLockEnabled || (timelock[_fn] != 0 && timelock[_fn] <= block.timestamp && timelock[_fn] + _TIMELOCK >= block.timestamp), \"Function is locked\") */\ntag_36:\n    /* \"contracts/chains/kardiachain/RewardSystem.sol\":4333:4364  transferOwnership(oracleWallet) */\n  tag_40\n    /* \"contracts/chains/kardiachain/RewardSystem.sol\":4351:4363  oracleWallet */\n  dup3\n    /* \"contracts/chains/kardiachain/RewardSystem.sol\":4333:4350  transferOwnership */\n  tag_41\n    /* \"contracts/chains/kardiachain/RewardSystem.sol\":4333:4364  transferOwnership(oracleWallet) */\n  jump\t// in\ntag_40:\n    /* \"contracts/chains/kardiachain/RewardSystem.sol\":4393:4406  _oracleWallet */\n  0x06\n  dup1\n  sload\n  sub(shl(0xa0, 0x01), 0x01)\n    /* \"contracts/chains/kardiachain/RewardSystem.sol\":4416:4444  _oracleWallet = oracleWallet */\n  dup5\n  dup2\n  and\n  not(sub(shl(0xa0, 0x01), 0x01))\n  dup4\n  and\n  dup2\n  or\n  swap1\n  swap4\n  sstore\n    /* \"contracts/chains/kardiachain/RewardSystem.sol\":4459:4503  ChangedOracleWallet(previous, _oracleWallet) */\n  mload(0x40)\n    /* \"contracts/chains/kardiachain/RewardSystem.sol\":4393:4406  _oracleWallet */\n  swap2\n  and\n  swap2\n    /* \"contracts/chains/kardiachain/RewardSystem.sol\":4416:4444  _oracleWallet = oracleWallet */\n  swap1\n    /* \"contracts/chains/kardiachain/RewardSystem.sol\":4393:4406  _oracleWallet */\n  dup3\n  swap1\n    /* \"contracts/chains/kardiachain/RewardSystem.sol\":4459:4503  ChangedOracleWallet(previous, _oracleWallet) */\n  0x3920ecd0f25e4e6ce57aaec91e57df499cb7e3e70d6c9604f866ae9265382cf3\n  swap1\n    /* \"contracts/chains/kardiachain/RewardSystem.sol\":4374:4390  address previous */\n  0x00\n  swap1\n    /* \"contracts/chains/kardiachain/RewardSystem.sol\":4459:4503  ChangedOracleWallet(previous, _oracleWallet) */\n  log3\n  pop\n    /* \"contracts/libraries/TimeLock.sol\":2164:2181  lockFunction(_fn) */\n  tag_42\n    /* \"contracts/libraries/TimeLock.sol\":2177:2180  _fn */\n  dup2\n    /* \"contracts/libraries/TimeLock.sol\":2164:2176  lockFunction */\n  tag_43\n    /* \"contracts/libraries/TimeLock.sol\":2164:2181  lockFunction(_fn) */\n  jump\t// in\ntag_42:\n    /* \"@openzeppelin/contracts/access/Ownable.sol\":1255:1256  _ */\n  pop\n    /* \"contracts/chains/kardiachain/RewardSystem.sol\":4227:4510  function changeOracleWallet(address oracleWallet) public onlyOwner locked(\"changeOracleWallet\") {... */\n  pop\n  jump\t// out\n    /* \"@openzeppelin/contracts/access/Ownable.sol\":1846:2035  function transferOwnership(address newOwner) public virtual onlyOwner {... */\ntag_41:\n    /* \"@openzeppelin/contracts/access/Ownable.sol\":1019:1026  address */\n  0x00\n    /* \"@openzeppelin/contracts/access/Ownable.sol\":1045:1051  _owner */\n  sload\n  sub(shl(0xa0, 0x01), 0x01)\n  and\n    /* \"@openzeppelin/contracts/utils/Context.sol\":665:675  msg.sender */\n  caller\n    /* \"@openzeppelin/contracts/access/Ownable.sol\":1185:1208  owner() == _msgSender() */\n  eq\n    /* \"@openzeppelin/contracts/access/Ownable.sol\":1177:1245  require(owner() == _msgSender(), \"Ownable: caller is not the owner\") */\n  tag_48\n  jumpi\n  mload(0x40)\n  shl(0xe5, 0x461bcd)\n  dup2\n  mstore\n    /* \"#utility.yul\":1365:1367   */\n  0x20\n    /* \"@openzeppelin/contracts/access/Ownable.sol\":1177:1245  require(owner() == _msgSender(), \"Ownable: caller is not the owner\") */\n  0x04\n  dup3\n  add\n    /* \"#utility.yul\":1347:1368   */\n  dup2\n  swap1\n  mstore\n    /* \"#utility.yul\":1384:1402   */\n  0x24\n  dup3\n  add\n    /* \"#utility.yul\":1377:1407   */\n  mstore\n  0x00\n  dup1\n  mload\n  0x20\n  data_9924ebdf1add33d25d4ef888e16131f0a5687b0580a36c21b5c301a6c462effe\n  dup4\n  codecopy\n  dup2\n  mload\n  swap2\n  mstore\n    /* \"#utility.yul\":1423:1441   */\n  0x44\n  dup3\n  add\n    /* \"#utility.yul\":1416:1478   */\n  mstore\n    /* \"#utility.yul\":1495:1513   */\n  0x64\n  add\n    /* \"@openzeppelin/contracts/access/Ownable.sol\":1177:1245  require(owner() == _msgSender(), \"Ownable: caller is not the owner\") */\n  tag_24\n    /* \"#utility.yul\":1163:1519   */\n  jump\n    /* \"@openzeppelin/contracts/access/Ownable.sol\":1177:1245  require(owner() == _msgSender(), \"Ownable: caller is not the owner\") */\ntag_48:\n  sub(shl(0xa0, 0x01), 0x01)\n    /* \"@openzeppelin/contracts/access/Ownable.sol\":1934:1956  newOwner != address(0) */\n  dup2\n  and\n    /* \"@openzeppelin/contracts/access/Ownable.sol\":1926:1999  require(newOwner != address(0), \"Ownable: new owner is the zero address\") */\n  tag_51\n  jumpi\n  mload(0x40)\n  shl(0xe5, 0x461bcd)\n  dup2\n  mstore\n    /* \"#utility.yul\":958:960   */\n  0x20\n    /* \"@openzeppelin/contracts/access/Ownable.sol\":1926:1999  require(newOwner != address(0), \"Ownable: new owner is the zero address\") */\n  0x04\n  dup3\n  add\n    /* \"#utility.yul\":940:961   */\n  mstore\n    /* \"#utility.yul\":997:999   */\n  0x26\n    /* \"#utility.yul\":977:995   */\n  0x24\n  dup3\n  add\n    /* \"#utility.yul\":970:1000   */\n  mstore\n    /* \"#utility.yul\":1036:1070   */\n  0x4f776e61626c653a206e6577206f776e657220697320746865207a65726f2061\n    /* \"#utility.yul\":1016:1034   */\n  0x44\n  dup3\n  add\n    /* \"#utility.yul\":1009:1071   */\n  mstore\n  shl(0xd0, 0x646472657373)\n    /* \"#utility.yul\":1087:1105   */\n  0x64\n  dup3\n  add\n    /* \"#utility.yul\":1080:1116   */\n  mstore\n    /* \"#utility.yul\":1133:1152   */\n  0x84\n  add\n    /* \"@openzeppelin/contracts/access/Ownable.sol\":1926:1999  require(newOwner != address(0), \"Ownable: new owner is the zero address\") */\n  tag_24\n    /* \"#utility.yul\":756:1158   */\n  jump\n    /* \"@openzeppelin/contracts/access/Ownable.sol\":1926:1999  require(newOwner != address(0), \"Ownable: new owner is the zero address\") */\ntag_51:\n    /* \"@openzeppelin/contracts/access/Ownable.sol\":2009:2028  _setOwner(newOwner) */\n  tag_54\n    /* \"@openzeppelin/contracts/access/Ownable.sol\":2019:2027  newOwner */\n  dup2\n    /* \"@openzeppelin/contracts/access/Ownable.sol\":2009:2018  _setOwner */\n  tag_11\n    /* \"@openzeppelin/contracts/access/Ownable.sol\":2009:2028  _setOwner(newOwner) */\n  jump\t// in\ntag_54:\n    /* \"@openzeppelin/contracts/access/Ownable.sol\":1846:2035  function transferOwnership(address newOwner) public virtual onlyOwner {... */\n  pop\n  jump\t// out\n    /* \"contracts/libraries/TimeLock.sol\":4317:4421  function lockFunction(string memory _fn) public onlyMaintainerOrOwner {... */\ntag_43:\n    /* \"contracts/libraries/TimeLock.sol\":2264:2274  msg.sender */\n  caller\n    /* \"contracts/libraries/TimeLock.sol\":2253:2260  owner() */\n  tag_56\n    /* \"@openzeppelin/contracts/access/Ownable.sol\":1019:1026  address */\n  0x00\n    /* \"@openzeppelin/contracts/access/Ownable.sol\":1045:1051  _owner */\n  sload\n  sub(shl(0xa0, 0x01), 0x01)\n  and\n  swap1\n    /* \"@openzeppelin/contracts/access/Ownable.sol\":973:1058  function owner() public view virtual returns (address) {... */\n  jump\n    /* \"contracts/libraries/TimeLock.sol\":2253:2260  owner() */\ntag_56:\n  sub(shl(0xa0, 0x01), 0x01)\n    /* \"contracts/libraries/TimeLock.sol\":2253:2274  owner() == msg.sender */\n  and\n  eq\n    /* \"contracts/libraries/TimeLock.sol\":2253:2303  owner() == msg.sender || _maintainer == msg.sender */\n  dup1\n  tag_57\n  jumpi\n  pop\n    /* \"contracts/libraries/TimeLock.sol\":2278:2289  _maintainer */\n  and(sub(shl(0xa0, 0x01), 0x01), sload(0x02))\n    /* \"contracts/libraries/TimeLock.sol\":2293:2303  msg.sender */\n  caller\n    /* \"contracts/libraries/TimeLock.sol\":2278:2303  _maintainer == msg.sender */\n  eq\n    /* \"contracts/libraries/TimeLock.sol\":2253:2303  owner() == msg.sender || _maintainer == msg.sender */\ntag_57:\n    /* \"contracts/libraries/TimeLock.sol\":2245:2361  require(owner() == msg.sender || _maintainer == msg.sender, \"operator: caller is not allowed to call this function\") */\n  tag_58\n  jumpi\n  mload(0x40)\n  shl(0xe5, 0x461bcd)\n  dup2\n  mstore\n    /* \"#utility.yul\":2073:2075   */\n  0x20\n    /* \"contracts/libraries/TimeLock.sol\":2245:2361  require(owner() == msg.sender || _maintainer == msg.sender, \"operator: caller is not allowed to call this function\") */\n  0x04\n  dup3\n  add\n    /* \"#utility.yul\":2055:2076   */\n  mstore\n    /* \"#utility.yul\":2112:2114   */\n  0x35\n    /* \"#utility.yul\":2092:2110   */\n  0x24\n  dup3\n  add\n    /* \"#utility.yul\":2085:2115   */\n  mstore\n    /* \"#utility.yul\":2151:2185   */\n  0x6f70657261746f723a2063616c6c6572206973206e6f7420616c6c6f77656420\n    /* \"#utility.yul\":2131:2149   */\n  0x44\n  dup3\n  add\n    /* \"#utility.yul\":2124:2186   */\n  mstore\n    /* \"#utility.yul\":2222:2245   */\n  0x746f2063616c6c20746869732066756e6374696f6e0000000000000000000000\n    /* \"#utility.yul\":2202:2220   */\n  0x64\n  dup3\n  add\n    /* \"#utility.yul\":2195:2246   */\n  mstore\n    /* \"#utility.yul\":2263:2282   */\n  0x84\n  add\n    /* \"contracts/libraries/TimeLock.sol\":2245:2361  require(owner() == msg.sender || _maintainer == msg.sender, \"operator: caller is not allowed to call this function\") */\n  tag_24\n    /* \"#utility.yul\":1871:2288   */\n  jump\n    /* \"contracts/libraries/TimeLock.sol\":2245:2361  require(owner() == msg.sender || _maintainer == msg.sender, \"operator: caller is not allowed to call this function\") */\ntag_58:\n    /* \"contracts/libraries/TimeLock.sol\":4413:4414  0 */\n  0x00\n    /* \"contracts/libraries/TimeLock.sol\":4397:4405  timelock */\n  0x01\n    /* \"contracts/libraries/TimeLock.sol\":4406:4409  _fn */\n  dup3\n    /* \"contracts/libraries/TimeLock.sol\":4397:4410  timelock[_fn] */\n  mload(0x40)\n  tag_62\n  swap2\n  swap1\n  tag_29\n  jump\t// in\ntag_62:\n  swap1\n  dup2\n  mstore\n  mload(0x40)\n  swap1\n  dup2\n  swap1\n  sub\n  0x20\n  add\n  swap1\n  keccak256\n    /* \"contracts/libraries/TimeLock.sol\":4397:4414  timelock[_fn] = 0 */\n  sstore\n  pop\n    /* \"contracts/libraries/TimeLock.sol\":4317:4421  function lockFunction(string memory _fn) public onlyMaintainerOrOwner {... */\n  jump\t// out\n    /* \"#utility.yul\":14:318   */\ntag_3:\n    /* \"#utility.yul\":98:104   */\n  0x00\n    /* \"#utility.yul\":151:153   */\n  0x20\n    /* \"#utility.yul\":139:148   */\n  dup3\n    /* \"#utility.yul\":130:137   */\n  dup5\n    /* \"#utility.yul\":126:149   */\n  sub\n    /* \"#utility.yul\":122:154   */\n  slt\n    /* \"#utility.yul\":119:171   */\n  iszero\n  tag_65\n  jumpi\n    /* \"#utility.yul\":167:168   */\n  0x00\n    /* \"#utility.yul\":164:165   */\n  dup1\n    /* \"#utility.yul\":157:169   */\n  revert\n    /* \"#utility.yul\":119:171   */\ntag_65:\n    /* \"#utility.yul\":193:209   */\n  dup2\n  mload\n  sub(shl(0xa0, 0x01), 0x01)\n    /* \"#utility.yul\":238:269   */\n  dup2\n  and\n    /* \"#utility.yul\":228:270   */\n  dup2\n  eq\n    /* \"#utility.yul\":218:288   */\n  tag_66\n  jumpi\n    /* \"#utility.yul\":284:285   */\n  0x00\n    /* \"#utility.yul\":281:282   */\n  dup1\n    /* \"#utility.yul\":274:286   */\n  revert\n    /* \"#utility.yul\":218:288   */\ntag_66:\n    /* \"#utility.yul\":307:312   */\n  swap4\n    /* \"#utility.yul\":14:318   */\n  swap3\n  pop\n  pop\n  pop\n  jump\t// out\n    /* \"#utility.yul\":323:751   */\ntag_29:\n    /* \"#utility.yul\":454:457   */\n  0x00\n    /* \"#utility.yul\":492:498   */\n  dup3\n    /* \"#utility.yul\":486:499   */\n  mload\n    /* \"#utility.yul\":517:518   */\n  0x00\n    /* \"#utility.yul\":527:656   */\ntag_68:\n    /* \"#utility.yul\":541:547   */\n  dup2\n    /* \"#utility.yul\":538:539   */\n  dup2\n    /* \"#utility.yul\":535:548   */\n  lt\n    /* \"#utility.yul\":527:656   */\n  iszero\n  tag_70\n  jumpi\n    /* \"#utility.yul\":639:643   */\n  0x20\n    /* \"#utility.yul\":623:637   */\n  dup2\n  dup7\n  add\n    /* \"#utility.yul\":619:644   */\n  dup2\n  add\n    /* \"#utility.yul\":613:645   */\n  mload\n    /* \"#utility.yul\":600:611   */\n  dup6\n  dup4\n  add\n    /* \"#utility.yul\":593:646   */\n  mstore\n    /* \"#utility.yul\":556:568   */\n  add\n    /* \"#utility.yul\":527:656   */\n  jump(tag_68)\ntag_70:\n    /* \"#utility.yul\":674:680   */\n  dup2\n    /* \"#utility.yul\":671:672   */\n  dup2\n    /* \"#utility.yul\":668:681   */\n  gt\n    /* \"#utility.yul\":665:713   */\n  iszero\n  tag_71\n  jumpi\n    /* \"#utility.yul\":709:710   */\n  0x00\n    /* \"#utility.yul\":700:706   */\n  dup3\n    /* \"#utility.yul\":695:698   */\n  dup6\n    /* \"#utility.yul\":691:707   */\n  add\n    /* \"#utility.yul\":684:711   */\n  mstore\n    /* \"#utility.yul\":665:713   */\ntag_71:\n  pop\n    /* \"#utility.yul\":729:745   */\n  swap2\n  swap1\n  swap2\n  add\n  swap3\n    /* \"#utility.yul\":323:751   */\n  swap2\n  pop\n  pop\n  jump\t// out\n    /* \"#utility.yul\":2293:2518   */\ntag_35:\n    /* \"#utility.yul\":2333:2336   */\n  0x00\n    /* \"#utility.yul\":2364:2365   */\n  dup3\n    /* \"#utility.yul\":2360:2366   */\n  not\n    /* \"#utility.yul\":2357:2358   */\n  dup3\n    /* \"#utility.yul\":2354:2367   */\n  gt\n    /* \"#utility.yul\":2351:2487   */\n  iszero\n  tag_77\n  jumpi\n    /* \"#utility.yul\":2409:2419   */\n  0x4e487b71\n    /* \"#utility.yul\":2404:2407   */\n  0xe0\n    /* \"#utility.yul\":2400:2420   */\n  shl\n    /* \"#utility.yul\":2397:2398   */\n  0x00\n    /* \"#utility.yul\":2390:2421   */\n  mstore\n    /* \"#utility.yul\":2444:2448   */\n  0x11\n    /* \"#utility.yul\":2441:2442   */\n  0x04\n    /* \"#utility.yul\":2434:2449   */\n  mstore\n    /* \"#utility.yul\":2472:2476   */\n  0x24\n    /* \"#utility.yul\":2469:2470   */\n  0x00\n    /* \"#utility.yul\":2462:2477   */\n  revert\n    /* \"#utility.yul\":2351:2487   */\ntag_77:\n  pop\n    /* \"#utility.yul\":2503:2512   */\n  add\n  swap1\n    /* \"#utility.yul\":2293:2518   */\n  jump\t// out\ntag_63:\n    /* \"contracts/chains/kardiachain/RewardSystem.sol\":483:7933  contract RewardSystem is Ownable, TimeLock {... */\n  dataSize(sub_0)\n  dup1\n  dataOffset(sub_0)\n  0x00\n  codecopy\n  0x00\n  return\nstop\ndata_9924ebdf1add33d25d4ef888e16131f0a5687b0580a36c21b5c301a6c462effe 4f776e61626c653a2063616c6c6572206973206e6f7420746865206f776e6572\n\nsub_0: assembly {\n        /* \"contracts/chains/kardiachain/RewardSystem.sol\":483:7933  contract RewardSystem is Ownable, TimeLock {... */\n      mstore(0x40, 0x80)\n      jumpi(tag_1, lt(calldatasize, 0x04))\n      shr(0xe0, calldataload(0x00))\n      dup1\n      0xa221a15f\n      gt\n      tag_34\n      jumpi\n      dup1\n      0xde996a6e\n      gt\n      tag_35\n      jumpi\n      dup1\n      0xf4762fd6\n      gt\n      tag_36\n      jumpi\n      dup1\n      0xf4762fd6\n      eq\n      tag_30\n      jumpi\n      dup1\n      0xf7e77bc2\n      eq\n      tag_31\n      jumpi\n      dup1\n      0xf8cf31cb\n      eq\n      tag_32\n      jumpi\n      dup1\n      0xf98080c0\n      eq\n      tag_33\n      jumpi\n      0x00\n      dup1\n      revert\n    tag_36:\n      dup1\n      0xde996a6e\n      eq\n      tag_26\n      jumpi\n      dup1\n      0xe7b6ebba\n      eq\n      tag_27\n      jumpi\n      dup1\n      0xedae876f\n      eq\n      tag_28\n      jumpi\n      dup1\n      0xf2fde38b\n      eq\n      tag_29\n      jumpi\n      0x00\n      dup1\n      revert\n    tag_35:\n      dup1\n      0xbf3506c1\n      gt\n      tag_37\n      jumpi\n      dup1\n      0xbf3506c1\n      eq\n      tag_22\n      jumpi\n      dup1\n      0xc07a1d4d\n      eq\n      tag_23\n      jumpi\n      dup1\n      0xc0d78655\n      eq\n      tag_24\n      jumpi\n      dup1\n      0xdb2e21bc\n      eq\n      tag_25\n      jumpi\n      0x00\n      dup1\n      revert\n    tag_37:\n      dup1\n      0xa221a15f\n      eq\n      tag_18\n      jumpi\n      dup1\n      0xa347511a\n      eq\n      tag_19\n      jumpi\n      dup1\n      0xa607494a\n      eq\n      tag_20\n      jumpi\n      dup1\n      0xb59c6e0e\n      eq\n      tag_21\n      jumpi\n      0x00\n      dup1\n      revert\n    tag_34:\n      dup1\n      0x70ed0ada\n      gt\n      tag_38\n      jumpi\n      dup1\n      0x9850d32b\n      gt\n      tag_39\n      jumpi\n      dup1\n      0x9850d32b\n      eq\n      tag_14\n      jumpi\n      dup1\n      0x9f371995\n      eq\n      tag_15\n      jumpi\n      dup1\n      0x9f531156\n      eq\n      tag_16\n      jumpi\n      dup1\n      0xa1764595\n      eq\n      tag_17\n      jumpi\n      0x00\n      dup1\n      revert\n    tag_39:\n      dup1\n      0x70ed0ada\n      eq\n      tag_10\n      jumpi\n      dup1\n      0x715018a6\n      eq\n      tag_11\n      jumpi\n      dup1\n      0x7d6dfb7e\n      eq\n      tag_12\n      jumpi\n      dup1\n      0x8da5cb5b\n      eq\n      tag_13\n      jumpi\n      0x00\n      dup1\n      revert\n    tag_38:\n      dup1\n      0x13ea5d29\n      gt\n      tag_40\n      jumpi\n      dup1\n      0x13ea5d29\n      eq\n      tag_6\n      jumpi\n      dup1\n      0x5dd53826\n      eq\n      tag_7\n      jumpi\n      dup1\n      0x63cd79b7\n      eq\n      tag_8\n      jumpi\n      dup1\n      0x6a1db1bf\n      eq\n      tag_9\n      jumpi\n      0x00\n      dup1\n      revert\n    tag_40:\n      dup1\n      0x0126ffb9\n      eq\n      tag_3\n      jumpi\n      dup1\n      0x11a63e17\n      eq\n      tag_4\n      jumpi\n      dup1\n      0x12065fe0\n      eq\n      tag_5\n      jumpi\n      0x00\n      dup1\n      revert\n    tag_1:\n      jumpi(tag_2, calldatasize)\n      stop\n    tag_2:\n      0x00\n      dup1\n      revert\n        /* \"contracts/chains/kardiachain/RewardSystem.sol\":1318:1360  uint256 public _timeBetweenClaims = 1 days */\n    tag_3:\n      callvalue\n      dup1\n      iszero\n      tag_43\n      jumpi\n      0x00\n      dup1\n      revert\n    tag_43:\n      pop\n      tag_44\n      sload(0x0a)\n      dup2\n      jump\n    tag_44:\n      mload(0x40)\n        /* \"#utility.yul\":12189:12214   */\n      swap1\n      dup2\n      mstore\n        /* \"#utility.yul\":12177:12179   */\n      0x20\n        /* \"#utility.yul\":12162:12180   */\n      add\n        /* \"contracts/chains/kardiachain/RewardSystem.sol\":1318:1360  uint256 public _timeBetweenClaims = 1 days */\n    tag_46:\n      mload(0x40)\n      dup1\n      swap2\n      sub\n      swap1\n      return\n        /* \"contracts/chains/kardiachain/RewardSystem.sol\":1147:1217  address public _devWallet = 0xc559aCc356D3037EC6dbc33a20587051188b8634 */\n    tag_4:\n      callvalue\n      dup1\n      iszero\n      tag_48\n      jumpi\n      0x00\n      dup1\n      revert\n    tag_48:\n      pop\n      sload(0x07)\n      tag_49\n      swap1\n      sub(shl(0xa0, 0x01), 0x01)\n      and\n      dup2\n      jump\n    tag_49:\n      mload(0x40)\n      sub(shl(0xa0, 0x01), 0x01)\n        /* \"#utility.yul\":3821:3853   */\n      swap1\n      swap2\n      and\n        /* \"#utility.yul\":3803:3854   */\n      dup2\n      mstore\n        /* \"#utility.yul\":3791:3793   */\n      0x20\n        /* \"#utility.yul\":3776:3794   */\n      add\n        /* \"contracts/chains/kardiachain/RewardSystem.sol\":1147:1217  address public _devWallet = 0xc559aCc356D3037EC6dbc33a20587051188b8634 */\n      tag_46\n        /* \"#utility.yul\":3657:3860   */\n      jump\n        /* \"contracts/chains/kardiachain/RewardSystem.sol\":2953:3066  function getBalance() public view returns (uint256) {... */\n    tag_5:\n      callvalue\n      dup1\n      iszero\n      tag_53\n      jumpi\n      0x00\n      dup1\n      revert\n    tag_53:\n      pop\n      tag_44\n      tag_55\n      jump\t// in\n        /* \"contracts/libraries/TimeLock.sol\":3191:3617  function setMaintainer(address _newMaintainer) public onlyMaintainerOrOwner locked(\"maintainer\") {... */\n    tag_6:\n      callvalue\n      dup1\n      iszero\n      tag_57\n      jumpi\n      0x00\n      dup1\n      revert\n    tag_57:\n      pop\n      tag_58\n      tag_59\n      calldatasize\n      0x04\n      tag_60\n      jump\t// in\n    tag_59:\n      tag_61\n      jump\t// in\n    tag_58:\n      stop\n        /* \"contracts/chains/kardiachain/RewardSystem.sol\":1260:1312  uint256 public _maxAmountPerReceive = 10000000 ether */\n    tag_7:\n      callvalue\n      dup1\n      iszero\n      tag_62\n      jumpi\n      0x00\n      dup1\n      revert\n    tag_62:\n      pop\n      tag_44\n      sload(0x09)\n      dup2\n      jump\n        /* \"contracts/chains/kardiachain/RewardSystem.sol\":4227:4510  function changeOracleWallet(address oracleWallet) public onlyOwner locked(\"changeOracleWallet\") {... */\n    tag_8:\n      callvalue\n      dup1\n      iszero\n      tag_66\n      jumpi\n      0x00\n      dup1\n      revert\n    tag_66:\n      pop\n      tag_58\n      tag_68\n      calldatasize\n      0x04\n      tag_60\n      jump\t// in\n    tag_68:\n      tag_69\n      jump\t// in\n        /* \"contracts/chains/kardiachain/RewardSystem.sol\":4617:4776  function changeFee(uint256 newFee) public onlyOwner locked(\"changeFee\") {... */\n    tag_9:\n      callvalue\n      dup1\n      iszero\n      tag_70\n      jumpi\n      0x00\n      dup1\n      revert\n    tag_70:\n      pop\n      tag_58\n      tag_72\n      calldatasize\n      0x04\n      tag_73\n      jump\t// in\n    tag_72:\n      tag_74\n      jump\t// in\n        /* \"contracts/chains/kardiachain/RewardSystem.sol\":3072:3172  function getEthBalance() public view returns (uint256) {... */\n    tag_10:\n      callvalue\n      dup1\n      iszero\n      tag_75\n      jumpi\n      0x00\n      dup1\n      revert\n    tag_75:\n      pop\n        /* \"contracts/chains/kardiachain/RewardSystem.sol\":3144:3165  address(this).balance */\n      selfbalance\n        /* \"contracts/chains/kardiachain/RewardSystem.sol\":3072:3172  function getEthBalance() public view returns (uint256) {... */\n      jump(tag_44)\n        /* \"@openzeppelin/contracts/access/Ownable.sol\":1605:1697  function renounceOwnership() public virtual onlyOwner {... */\n    tag_11:\n      callvalue\n      dup1\n      iszero\n      tag_79\n      jumpi\n      0x00\n      dup1\n      revert\n    tag_79:\n      pop\n      tag_58\n      tag_81\n      jump\t// in\n        /* \"contracts/chains/kardiachain/RewardSystem.sol\":916:956  mapping(address => bool) public _rewards */\n    tag_12:\n      callvalue\n      dup1\n      iszero\n      tag_82\n      jumpi\n      0x00\n      dup1\n      revert\n    tag_82:\n      pop\n      tag_83\n      tag_84\n      calldatasize\n      0x04\n      tag_60\n      jump\t// in\n    tag_84:\n      mstore(0x20, 0x03)\n      0x00\n      swap1\n      dup2\n      mstore\n      0x40\n      swap1\n      keccak256\n      sload\n      0xff\n      and\n      dup2\n      jump\n    tag_83:\n      mload(0x40)\n        /* \"#utility.yul\":4309:4323   */\n      swap1\n      iszero\n        /* \"#utility.yul\":4302:4324   */\n      iszero\n        /* \"#utility.yul\":4284:4325   */\n      dup2\n      mstore\n        /* \"#utility.yul\":4272:4274   */\n      0x20\n        /* \"#utility.yul\":4257:4275   */\n      add\n        /* \"contracts/chains/kardiachain/RewardSystem.sol\":916:956  mapping(address => bool) public _rewards */\n      tag_46\n        /* \"#utility.yul\":4144:4331   */\n      jump\n        /* \"@openzeppelin/contracts/access/Ownable.sol\":973:1058  function owner() public view virtual returns (address) {... */\n    tag_13:\n      callvalue\n      dup1\n      iszero\n      tag_88\n      jumpi\n      0x00\n      dup1\n      revert\n    tag_88:\n      pop\n        /* \"@openzeppelin/contracts/access/Ownable.sol\":1019:1026  address */\n      0x00\n        /* \"@openzeppelin/contracts/access/Ownable.sol\":1045:1051  _owner */\n      sload\n      sub(shl(0xa0, 0x01), 0x01)\n      and\n        /* \"@openzeppelin/contracts/access/Ownable.sol\":973:1058  function owner() public view virtual returns (address) {... */\n      jump(tag_49)\n        /* \"contracts/libraries/TimeLock.sol\":2770:2857  function maintainer() public view returns (address) {... */\n    tag_14:\n      callvalue\n      dup1\n      iszero\n      tag_92\n      jumpi\n      0x00\n      dup1\n      revert\n    tag_92:\n      pop\n        /* \"contracts/libraries/TimeLock.sol\":2839:2850  _maintainer */\n      and(sub(shl(0xa0, 0x01), 0x01), sload(0x02))\n        /* \"contracts/libraries/TimeLock.sol\":2770:2857  function maintainer() public view returns (address) {... */\n      jump(tag_49)\n        /* \"contracts/chains/kardiachain/RewardSystem.sol\":5455:6390  function sendRewards(uint256 amount, address user, uint256 fee) public onlyOwner {... */\n    tag_15:\n      callvalue\n      dup1\n      iszero\n      tag_96\n      jumpi\n      0x00\n      dup1\n      revert\n    tag_96:\n      pop\n      tag_58\n      tag_98\n      calldatasize\n      0x04\n      tag_99\n      jump\t// in\n    tag_98:\n      tag_100\n      jump\t// in\n        /* \"contracts/libraries/TimeLock.sol\":4317:4421  function lockFunction(string memory _fn) public onlyMaintainerOrOwner {... */\n    tag_16:\n      callvalue\n      dup1\n      iszero\n      tag_101\n      jumpi\n      0x00\n      dup1\n      revert\n    tag_101:\n      pop\n      tag_58\n      tag_103\n      calldatasize\n      0x04\n      tag_104\n      jump\t// in\n    tag_103:\n      tag_105\n      jump\t// in\n        /* \"contracts/chains/kardiachain/RewardSystem.sol\":1366:1431  address public _weth = 0xAF984E23EAA3E7967F3C5E007fbe397D8566D23d */\n    tag_17:\n      callvalue\n      dup1\n      iszero\n      tag_106\n      jumpi\n      0x00\n      dup1\n      revert\n    tag_106:\n      pop\n      sload(0x0b)\n      tag_49\n      swap1\n      sub(shl(0xa0, 0x01), 0x01)\n      and\n      dup2\n      jump\n        /* \"contracts/chains/kardiachain/RewardSystem.sol\":1068:1141  address public _oracleWallet = 0x76049b7cAaB30b8bBBdcfF3A1059d9147dBF7B19 */\n    tag_18:\n      callvalue\n      dup1\n      iszero\n      tag_110\n      jumpi\n      0x00\n      dup1\n      revert\n    tag_110:\n      pop\n      sload(0x06)\n      tag_49\n      swap1\n      sub(shl(0xa0, 0x01), 0x01)\n      and\n      dup2\n      jump\n        /* \"contracts/libraries/TimeLock.sol\":737:770  bool public isLockEnabled = false */\n    tag_19:\n      callvalue\n      dup1\n      iszero\n      tag_114\n      jumpi\n      0x00\n      dup1\n      revert\n    tag_114:\n      pop\n      sload(0x00)\n      tag_83\n      swap1\n      shl(0xa0, 0x01)\n      swap1\n      div\n      0xff\n      and\n      dup2\n      jump\n        /* \"contracts/libraries/TimeLock.sol\":4100:4284  function unlockFunction(string memory _fn) public onlyMaintainerOrOwner {... */\n    tag_20:\n      callvalue\n      dup1\n      iszero\n      tag_118\n      jumpi\n      0x00\n      dup1\n      revert\n    tag_118:\n      pop\n      tag_58\n      tag_120\n      calldatasize\n      0x04\n      tag_104\n      jump\t// in\n    tag_120:\n      tag_121\n      jump\t// in\n        /* \"contracts/chains/kardiachain/RewardSystem.sol\":1228:1254  IERC20 public _rewardToken */\n    tag_21:\n      callvalue\n      dup1\n      iszero\n      tag_122\n      jumpi\n      0x00\n      dup1\n      revert\n    tag_122:\n      pop\n      sload(0x08)\n      tag_49\n      swap1\n      sub(shl(0xa0, 0x01), 0x01)\n      and\n      dup2\n      jump\n        /* \"contracts/chains/kardiachain/RewardSystem.sol\":3180:3320  function canClaim(address user) public view returns (bool) {... */\n    tag_22:\n      callvalue\n      dup1\n      iszero\n      tag_127\n      jumpi\n      0x00\n      dup1\n      revert\n    tag_127:\n      pop\n      tag_83\n      tag_129\n      calldatasize\n      0x04\n      tag_60\n      jump\t// in\n    tag_129:\n      tag_130\n      jump\t// in\n        /* \"contracts/chains/kardiachain/RewardSystem.sol\":1014:1047  uint256 public nativeSwapFee = 10 */\n    tag_23:\n      callvalue\n      dup1\n      iszero\n      tag_132\n      jumpi\n      0x00\n      dup1\n      revert\n    tag_132:\n      pop\n      tag_44\n      sload(0x05)\n      dup2\n      jump\n        /* \"contracts/chains/kardiachain/RewardSystem.sol\":4520:4611  function setRouter(IKaiDexRouter router) public onlyOwner {... */\n    tag_24:\n      callvalue\n      dup1\n      iszero\n      tag_136\n      jumpi\n      0x00\n      dup1\n      revert\n    tag_136:\n      pop\n      tag_58\n      tag_138\n      calldatasize\n      0x04\n      tag_60\n      jump\t// in\n    tag_138:\n      tag_140\n      jump\t// in\n        /* \"contracts/chains/kardiachain/RewardSystem.sol\":4782:5124  function emergencyWithdraw() public onlyOwner {... */\n    tag_25:\n      callvalue\n      dup1\n      iszero\n      tag_141\n      jumpi\n      0x00\n      dup1\n      revert\n    tag_141:\n      pop\n      tag_58\n      tag_143\n      jump\t// in\n        /* \"contracts/chains/kardiachain/RewardSystem.sol\":3651:3881  function adjustMaxAmountPerReceive(uint256 newAmount) public onlyOwner locked(\"adjustMaxAmountPerReceive\") {... */\n    tag_26:\n      callvalue\n      dup1\n      iszero\n      tag_144\n      jumpi\n      0x00\n      dup1\n      revert\n    tag_144:\n      pop\n      tag_58\n      tag_146\n      calldatasize\n      0x04\n      tag_73\n      jump\t// in\n    tag_146:\n      tag_147\n      jump\t// in\n        /* \"contracts/chains/kardiachain/RewardSystem.sol\":6400:7378  function sendRewardAsEth(uint256 amount, address user) public onlyOwner {... */\n    tag_27:\n      callvalue\n      dup1\n      iszero\n      tag_148\n      jumpi\n      0x00\n      dup1\n      revert\n    tag_148:\n      pop\n      tag_58\n      tag_150\n      calldatasize\n      0x04\n      tag_151\n      jump\t// in\n    tag_150:\n      tag_152\n      jump\t// in\n        /* \"contracts/chains/kardiachain/RewardSystem.sol\":1438:1526  IKaiDexRouter public _router = IKaiDexRouter(0xbAFcdabe65A03825a131298bE7670c0aEC77B37f) */\n    tag_28:\n      callvalue\n      dup1\n      iszero\n      tag_153\n      jumpi\n      0x00\n      dup1\n      revert\n    tag_153:\n      pop\n      sload(0x0c)\n      tag_49\n      swap1\n      sub(shl(0xa0, 0x01), 0x01)\n      and\n      dup2\n      jump\n        /* \"@openzeppelin/contracts/access/Ownable.sol\":1846:2035  function transferOwnership(address newOwner) public virtual onlyOwner {... */\n    tag_29:\n      callvalue\n      dup1\n      iszero\n      tag_158\n      jumpi\n      0x00\n      dup1\n      revert\n    tag_158:\n      pop\n      tag_58\n      tag_160\n      calldatasize\n      0x04\n      tag_60\n      jump\t// in\n    tag_160:\n      tag_161\n      jump\t// in\n        /* \"contracts/libraries/TimeLock.sol\":3627:3751  function setTimelockEnabled() public onlyMaintainerOrOwner {... */\n    tag_30:\n      callvalue\n      dup1\n      iszero\n      tag_162\n      jumpi\n      0x00\n      dup1\n      revert\n    tag_162:\n      pop\n      tag_58\n      tag_164\n      jump\t// in\n        /* \"contracts/chains/kardiachain/RewardSystem.sol\":962:1008  mapping(address => uint256) public _claimTimes */\n    tag_31:\n      callvalue\n      dup1\n      iszero\n      tag_165\n      jumpi\n      0x00\n      dup1\n      revert\n    tag_165:\n      pop\n      tag_44\n      tag_167\n      calldatasize\n      0x04\n      tag_60\n      jump\t// in\n    tag_167:\n      mstore(0x20, 0x04)\n      0x00\n      swap1\n      dup2\n      mstore\n      0x40\n      swap1\n      keccak256\n      sload\n      dup2\n      jump\n        /* \"contracts/chains/kardiachain/RewardSystem.sol\":3891:4217  function updateRewardToken(IERC20 rewardToken) public onlyOwner locked(\"updateRewardToken\") {... */\n    tag_32:\n      callvalue\n      dup1\n      iszero\n      tag_170\n      jumpi\n      0x00\n      dup1\n      revert\n    tag_170:\n      pop\n      tag_58\n      tag_172\n      calldatasize\n      0x04\n      tag_60\n      jump\t// in\n    tag_172:\n      tag_174\n      jump\t// in\n        /* \"contracts/libraries/TimeLock.sol\":776:818  mapping(string => uint256) public timelock */\n    tag_33:\n      callvalue\n      dup1\n      iszero\n      tag_175\n      jumpi\n      0x00\n      dup1\n      revert\n    tag_175:\n      pop\n      tag_44\n      tag_177\n      calldatasize\n      0x04\n      tag_104\n      jump\t// in\n    tag_177:\n      dup1\n      mload\n      0x20\n      dup2\n      dup4\n      add\n      dup2\n      add\n      dup1\n      mload\n      0x01\n      dup3\n      mstore\n      swap3\n      dup3\n      add\n      swap2\n      swap1\n      swap4\n      add\n      keccak256\n      swap2\n      mstore\n      sload\n      dup2\n      jump\n        /* \"contracts/chains/kardiachain/RewardSystem.sol\":2953:3066  function getBalance() public view returns (uint256) {... */\n    tag_55:\n        /* \"contracts/chains/kardiachain/RewardSystem.sol\":3022:3034  _rewardToken */\n      sload(0x08)\n        /* \"contracts/chains/kardiachain/RewardSystem.sol\":3022:3059  _rewardToken.balanceOf(address(this)) */\n      mload(0x40)\n      shl(0xe0, 0x70a08231)\n      dup2\n      mstore\n        /* \"contracts/chains/kardiachain/RewardSystem.sol\":3053:3057  this */\n      address\n        /* \"contracts/chains/kardiachain/RewardSystem.sol\":3022:3059  _rewardToken.balanceOf(address(this)) */\n      0x04\n      dup3\n      add\n        /* \"#utility.yul\":3803:3854   */\n      mstore\n        /* \"contracts/chains/kardiachain/RewardSystem.sol\":2996:3003  uint256 */\n      0x00\n      swap2\n      sub(shl(0xa0, 0x01), 0x01)\n        /* \"contracts/chains/kardiachain/RewardSystem.sol\":3022:3034  _rewardToken */\n      and\n      swap1\n        /* \"contracts/chains/kardiachain/RewardSystem.sol\":3022:3044  _rewardToken.balanceOf */\n      0x70a08231\n      swap1\n        /* \"#utility.yul\":3776:3794   */\n      0x24\n      add\n        /* \"contracts/chains/kardiachain/RewardSystem.sol\":3022:3059  _rewardToken.balanceOf(address(this)) */\n      0x20\n      mload(0x40)\n      dup1\n      dup4\n      sub\n      dup2\n      dup7\n      dup1\n      extcodesize\n      iszero\n      dup1\n      iszero\n      tag_182\n      jumpi\n      0x00\n      dup1\n      revert\n    tag_182:\n      pop\n      gas\n      staticcall\n      iszero\n      dup1\n      iszero\n      tag_184\n      jumpi\n      returndatasize\n      0x00\n      dup1\n      returndatacopy\n      revert(0x00, returndatasize)\n    tag_184:\n      pop\n      pop\n      pop\n      pop\n      mload(0x40)\n      returndatasize\n      not(0x1f)\n      0x1f\n      dup3\n      add\n      and\n      dup3\n      add\n      dup1\n      0x40\n      mstore\n      pop\n      dup2\n      add\n      swap1\n      tag_185\n      swap2\n      swap1\n      tag_186\n      jump\t// in\n    tag_185:\n        /* \"contracts/chains/kardiachain/RewardSystem.sol\":3015:3059  return _rewardToken.balanceOf(address(this)) */\n      swap1\n      pop\n        /* \"contracts/chains/kardiachain/RewardSystem.sol\":2953:3066  function getBalance() public view returns (uint256) {... */\n      swap1\n      jump\t// out\n        /* \"contracts/libraries/TimeLock.sol\":3191:3617  function setMaintainer(address _newMaintainer) public onlyMaintainerOrOwner locked(\"maintainer\") {... */\n    tag_61:\n        /* \"contracts/libraries/TimeLock.sol\":2264:2274  msg.sender */\n      caller\n        /* \"contracts/libraries/TimeLock.sol\":2253:2260  owner() */\n      tag_188\n        /* \"@openzeppelin/contracts/access/Ownable.sol\":1019:1026  address */\n      0x00\n        /* \"@openzeppelin/contracts/access/Ownable.sol\":1045:1051  _owner */\n      sload\n      sub(shl(0xa0, 0x01), 0x01)\n      and\n      swap1\n        /* \"@openzeppelin/contracts/access/Ownable.sol\":973:1058  function owner() public view virtual returns (address) {... */\n      jump\n        /* \"contracts/libraries/TimeLock.sol\":2253:2260  owner() */\n    tag_188:\n      sub(shl(0xa0, 0x01), 0x01)\n        /* \"contracts/libraries/TimeLock.sol\":2253:2274  owner() == msg.sender */\n      and\n      eq\n        /* \"contracts/libraries/TimeLock.sol\":2253:2303  owner() == msg.sender || _maintainer == msg.sender */\n      dup1\n      tag_189\n      jumpi\n      pop\n        /* \"contracts/libraries/TimeLock.sol\":2278:2289  _maintainer */\n      and(sub(shl(0xa0, 0x01), 0x01), sload(0x02))\n        /* \"contracts/libraries/TimeLock.sol\":2293:2303  msg.sender */\n      caller\n        /* \"contracts/libraries/TimeLock.sol\":2278:2303  _maintainer == msg.sender */\n      eq\n        /* \"contracts/libraries/TimeLock.sol\":2253:2303  owner() == msg.sender || _maintainer == msg.sender */\n    tag_189:\n        /* \"contracts/libraries/TimeLock.sol\":2245:2361  require(owner() == msg.sender || _maintainer == msg.sender, \"operator: caller is not allowed to call this function\") */\n      tag_190\n      jumpi\n      mload(0x40)\n      shl(0xe5, 0x461bcd)\n      dup2\n      mstore\n      0x04\n      add\n      tag_191\n      swap1\n      tag_192\n      jump\t// in\n    tag_191:\n      mload(0x40)\n      dup1\n      swap2\n      sub\n      swap1\n      revert\n    tag_190:\n        /* \"contracts/libraries/TimeLock.sol\":1945:2188  modifier locked(string memory _fn) {... */\n      0x40\n      dup1\n      mload\n      dup1\n      dup3\n      add\n      swap1\n      swap2\n      mstore\n      0x0a\n      dup2\n      mstore\n      shl(0xb1, 0x36b0b4b73a30b4b732b9)\n      0x20\n      dup3\n      add\n      mstore\n      0x00\n        /* \"contracts/libraries/TimeLock.sol\":1999:2012  isLockEnabled */\n      sload\n      shl(0xa0, 0x01)\n      swap1\n      div\n      0xff\n      and\n        /* \"contracts/libraries/TimeLock.sol\":1998:2012  !isLockEnabled */\n      iszero\n      dup1\n        /* \"contracts/libraries/TimeLock.sol\":1998:2120  !isLockEnabled || (timelock[_fn] != 0 && timelock[_fn] <= block.timestamp && timelock[_fn] + _TIMELOCK >= block.timestamp) */\n      tag_199\n      jumpi\n      pop\n        /* \"contracts/libraries/TimeLock.sol\":2017:2025  timelock */\n      0x01\n        /* \"contracts/libraries/TimeLock.sol\":2026:2029  _fn */\n      dup2\n        /* \"contracts/libraries/TimeLock.sol\":2017:2030  timelock[_fn] */\n      mload(0x40)\n      tag_195\n      swap2\n      swap1\n      tag_444\n      jump\t// in\n    tag_195:\n      swap1\n      dup2\n      mstore\n      0x20\n      add\n      mload(0x40)\n      dup1\n      swap2\n      sub\n      swap1\n      keccak256\n      sload\n        /* \"contracts/libraries/TimeLock.sol\":2034:2035  0 */\n      0x00\n        /* \"contracts/libraries/TimeLock.sol\":2017:2035  timelock[_fn] != 0 */\n      eq\n      iszero\n        /* \"contracts/libraries/TimeLock.sol\":2017:2071  timelock[_fn] != 0 && timelock[_fn] <= block.timestamp */\n      dup1\n      iszero\n      tag_197\n      jumpi\n      pop\n        /* \"contracts/libraries/TimeLock.sol\":2056:2071  block.timestamp */\n      timestamp\n        /* \"contracts/libraries/TimeLock.sol\":2039:2047  timelock */\n      0x01\n        /* \"contracts/libraries/TimeLock.sol\":2048:2051  _fn */\n      dup3\n        /* \"contracts/libraries/TimeLock.sol\":2039:2052  timelock[_fn] */\n      mload(0x40)\n      tag_198\n      swap2\n      swap1\n      tag_444\n      jump\t// in\n    tag_198:\n      swap1\n      dup2\n      mstore\n      0x20\n      add\n      mload(0x40)\n      dup1\n      swap2\n      sub\n      swap1\n      keccak256\n      sload\n        /* \"contracts/libraries/TimeLock.sol\":2039:2071  timelock[_fn] <= block.timestamp */\n      gt\n      iszero\n        /* \"contracts/libraries/TimeLock.sol\":2017:2071  timelock[_fn] != 0 && timelock[_fn] <= block.timestamp */\n    tag_197:\n        /* \"contracts/libraries/TimeLock.sol\":2017:2119  timelock[_fn] != 0 && timelock[_fn] <= block.timestamp && timelock[_fn] + _TIMELOCK >= block.timestamp */\n      dup1\n      iszero\n      tag_199\n      jumpi\n      pop\n        /* \"contracts/libraries/TimeLock.sol\":2104:2119  block.timestamp */\n      timestamp\n        /* \"contracts/libraries/TimeLock.sol\":861:867  1 days */\n      0x015180\n        /* \"contracts/libraries/TimeLock.sol\":2075:2083  timelock */\n      0x01\n        /* \"contracts/libraries/TimeLock.sol\":2084:2087  _fn */\n      dup4\n        /* \"contracts/libraries/TimeLock.sol\":2075:2088  timelock[_fn] */\n      mload(0x40)\n      tag_200\n      swap2\n      swap1\n      tag_444\n      jump\t// in\n    tag_200:\n      swap1\n      dup2\n      mstore\n      0x20\n      add\n      mload(0x40)\n      dup1\n      swap2\n      sub\n      swap1\n      keccak256\n      sload\n        /* \"contracts/libraries/TimeLock.sol\":2075:2100  timelock[_fn] + _TIMELOCK */\n      tag_201\n      swap2\n      swap1\n      tag_202\n      jump\t// in\n    tag_201:\n        /* \"contracts/libraries/TimeLock.sol\":2075:2119  timelock[_fn] + _TIMELOCK >= block.timestamp */\n      lt\n      iszero\n        /* \"contracts/libraries/TimeLock.sol\":2017:2119  timelock[_fn] != 0 && timelock[_fn] <= block.timestamp && timelock[_fn] + _TIMELOCK >= block.timestamp */\n    tag_199:\n        /* \"contracts/libraries/TimeLock.sol\":1990:2143  require(!isLockEnabled || (timelock[_fn] != 0 && timelock[_fn] <= block.timestamp && timelock[_fn] + _TIMELOCK >= block.timestamp), \"Function is locked\") */\n      tag_203\n      jumpi\n      mload(0x40)\n      shl(0xe5, 0x461bcd)\n      dup2\n      mstore\n      0x04\n      add\n      tag_191\n      swap1\n      tag_205\n      jump\t// in\n    tag_203:\n        /* \"contracts/libraries/TimeLock.sol\":3324:3335  _maintainer */\n      sload(0x02)\n      sub(shl(0xa0, 0x01), 0x01)\n        /* \"contracts/libraries/TimeLock.sol\":3306:3335  _newMaintainer != _maintainer */\n      dup4\n      dup2\n      and\n        /* \"contracts/libraries/TimeLock.sol\":3324:3335  _maintainer */\n      swap2\n      and\n        /* \"contracts/libraries/TimeLock.sol\":3306:3335  _newMaintainer != _maintainer */\n      eq\n      dup1\n      iszero\n      swap1\n        /* \"contracts/libraries/TimeLock.sol\":3306:3367  _newMaintainer != _maintainer && _newMaintainer != address(0) */\n      tag_207\n      jumpi\n      pop\n      sub(shl(0xa0, 0x01), 0x01)\n        /* \"contracts/libraries/TimeLock.sol\":3339:3367  _newMaintainer != address(0) */\n      dup3\n      and\n      iszero\n      iszero\n        /* \"contracts/libraries/TimeLock.sol\":3306:3367  _newMaintainer != _maintainer && _newMaintainer != address(0) */\n    tag_207:\n        /* \"contracts/libraries/TimeLock.sol\":3298:3453  require(_newMaintainer != _maintainer && _newMaintainer != address(0), \"ABOAT::setMaintainer: Maintainer can\\'t equal previous maintainer or zero address\") */\n      tag_208\n      jumpi\n      mload(0x40)\n      shl(0xe5, 0x461bcd)\n      dup2\n      mstore\n        /* \"#utility.yul\":7490:7492   */\n      0x20\n        /* \"contracts/libraries/TimeLock.sol\":3298:3453  require(_newMaintainer != _maintainer && _newMaintainer != address(0), \"ABOAT::setMaintainer: Maintainer can\\'t equal previous maintainer or zero address\") */\n      0x04\n      dup3\n      add\n        /* \"#utility.yul\":7472:7493   */\n      mstore\n        /* \"#utility.yul\":7529:7531   */\n      0x50\n        /* \"#utility.yul\":7509:7527   */\n      0x24\n      dup3\n      add\n        /* \"#utility.yul\":7502:7532   */\n      mstore\n        /* \"#utility.yul\":7568:7602   */\n      0x41424f41543a3a7365744d61696e7461696e65723a204d61696e7461696e6572\n        /* \"#utility.yul\":7548:7566   */\n      0x44\n      dup3\n      add\n        /* \"#utility.yul\":7541:7603   */\n      mstore\n        /* \"#utility.yul\":7639:7673   */\n      0x2063616e277420657175616c2070726576696f7573206d61696e7461696e6572\n        /* \"#utility.yul\":7619:7637   */\n      0x64\n      dup3\n      add\n        /* \"#utility.yul\":7612:7674   */\n      mstore\n      shl(0x80, 0x206f72207a65726f2061646472657373)\n        /* \"#utility.yul\":7690:7709   */\n      0x84\n      dup3\n      add\n        /* \"#utility.yul\":7683:7730   */\n      mstore\n        /* \"#utility.yul\":7747:7766   */\n      0xa4\n      add\n        /* \"contracts/libraries/TimeLock.sol\":3298:3453  require(_newMaintainer != _maintainer && _newMaintainer != address(0), \"ABOAT::setMaintainer: Maintainer can\\'t equal previous maintainer or zero address\") */\n      tag_191\n        /* \"#utility.yul\":7288:7772   */\n      jump\n        /* \"contracts/libraries/TimeLock.sol\":3298:3453  require(_newMaintainer != _maintainer && _newMaintainer != address(0), \"ABOAT::setMaintainer: Maintainer can\\'t equal previous maintainer or zero address\") */\n    tag_208:\n        /* \"contracts/libraries/TimeLock.sol\":3492:3503  _maintainer */\n      0x02\n      dup1\n      sload\n      sub(shl(0xa0, 0x01), 0x01)\n        /* \"contracts/libraries/TimeLock.sol\":3513:3541  _maintainer = _newMaintainer */\n      dup5\n      dup2\n      and\n      not(sub(shl(0xa0, 0x01), 0x01))\n      dup4\n      and\n      dup2\n      or\n      swap1\n      swap4\n      sstore\n        /* \"contracts/libraries/TimeLock.sol\":3556:3610  MaintainerTransferred(previousMaintainer, _maintainer) */\n      mload(0x40)\n        /* \"contracts/libraries/TimeLock.sol\":3492:3503  _maintainer */\n      swap2\n      and\n      swap2\n        /* \"contracts/libraries/TimeLock.sol\":3513:3541  _maintainer = _newMaintainer */\n      swap1\n        /* \"contracts/libraries/TimeLock.sol\":3492:3503  _maintainer */\n      dup3\n      swap1\n        /* \"contracts/libraries/TimeLock.sol\":3556:3610  MaintainerTransferred(previousMaintainer, _maintainer) */\n      0x2f3ffaaaad93928855c8700645d1a3643e6ccfdd500efa9fda048a88f557cf01\n      swap1\n        /* \"contracts/libraries/TimeLock.sol\":3463:3489  address previousMaintainer */\n      0x00\n      swap1\n        /* \"contracts/libraries/TimeLock.sol\":3556:3610  MaintainerTransferred(previousMaintainer, _maintainer) */\n      log3\n        /* \"contracts/libraries/TimeLock.sol\":3288:3617  {... */\n      pop\n        /* \"contracts/libraries/TimeLock.sol\":2164:2181  lockFunction(_fn) */\n      tag_211\n        /* \"contracts/libraries/TimeLock.sol\":2177:2180  _fn */\n      dup2\n        /* \"contracts/libraries/TimeLock.sol\":2164:2176  lockFunction */\n      tag_105\n        /* \"contracts/libraries/TimeLock.sol\":2164:2181  lockFunction(_fn) */\n      jump\t// in\n    tag_211:\n        /* \"contracts/libraries/TimeLock.sol\":2371:2372  _ */\n      pop\n        /* \"contracts/libraries/TimeLock.sol\":3191:3617  function setMaintainer(address _newMaintainer) public onlyMaintainerOrOwner locked(\"maintainer\") {... */\n      pop\n      jump\t// out\n        /* \"contracts/chains/kardiachain/RewardSystem.sol\":4227:4510  function changeOracleWallet(address oracleWallet) public onlyOwner locked(\"changeOracleWallet\") {... */\n    tag_69:\n        /* \"@openzeppelin/contracts/access/Ownable.sol\":1019:1026  address */\n      0x00\n        /* \"@openzeppelin/contracts/access/Ownable.sol\":1045:1051  _owner */\n      sload\n      sub(shl(0xa0, 0x01), 0x01)\n      and\n        /* \"@openzeppelin/contracts/utils/Context.sol\":665:675  msg.sender */\n      caller\n        /* \"@openzeppelin/contracts/access/Ownable.sol\":1185:1208  owner() == _msgSender() */\n      eq\n        /* \"@openzeppelin/contracts/access/Ownable.sol\":1177:1245  require(owner() == _msgSender(), \"Ownable: caller is not the owner\") */\n      tag_216\n      jumpi\n      mload(0x40)\n      shl(0xe5, 0x461bcd)\n      dup2\n      mstore\n      0x04\n      add\n      tag_191\n      swap1\n      tag_218\n      jump\t// in\n    tag_216:\n        /* \"contracts/libraries/TimeLock.sol\":1945:2188  modifier locked(string memory _fn) {... */\n      0x40\n      dup1\n      mload\n      dup1\n      dup3\n      add\n      swap1\n      swap2\n      mstore\n      0x12\n      dup2\n      mstore\n      shl(0x72, 0x18da185b99d953dc9858db1955d85b1b195d)\n      0x20\n      dup3\n      add\n      mstore\n      0x00\n        /* \"contracts/libraries/TimeLock.sol\":1999:2012  isLockEnabled */\n      sload\n      shl(0xa0, 0x01)\n      swap1\n      div\n      0xff\n      and\n        /* \"contracts/libraries/TimeLock.sol\":1998:2012  !isLockEnabled */\n      iszero\n      dup1\n        /* \"contracts/libraries/TimeLock.sol\":1998:2120  !isLockEnabled || (timelock[_fn] != 0 && timelock[_fn] <= block.timestamp && timelock[_fn] + _TIMELOCK >= block.timestamp) */\n      tag_224\n      jumpi\n      pop\n        /* \"contracts/libraries/TimeLock.sol\":2017:2025  timelock */\n      0x01\n        /* \"contracts/libraries/TimeLock.sol\":2026:2029  _fn */\n      dup2\n        /* \"contracts/libraries/TimeLock.sol\":2017:2030  timelock[_fn] */\n      mload(0x40)\n      tag_221\n      swap2\n      swap1\n      tag_444\n      jump\t// in\n    tag_221:\n      swap1\n      dup2\n      mstore\n      0x20\n      add\n      mload(0x40)\n      dup1\n      swap2\n      sub\n      swap1\n      keccak256\n      sload\n        /* \"contracts/libraries/TimeLock.sol\":2034:2035  0 */\n      0x00\n        /* \"contracts/libraries/TimeLock.sol\":2017:2035  timelock[_fn] != 0 */\n      eq\n      iszero\n        /* \"contracts/libraries/TimeLock.sol\":2017:2071  timelock[_fn] != 0 && timelock[_fn] <= block.timestamp */\n      dup1\n      iszero\n      tag_222\n      jumpi\n      pop\n        /* \"contracts/libraries/TimeLock.sol\":2056:2071  block.timestamp */\n      timestamp\n        /* \"contracts/libraries/TimeLock.sol\":2039:2047  timelock */\n      0x01\n        /* \"contracts/libraries/TimeLock.sol\":2048:2051  _fn */\n      dup3\n        /* \"contracts/libraries/TimeLock.sol\":2039:2052  timelock[_fn] */\n      mload(0x40)\n      tag_223\n      swap2\n      swap1\n      tag_444\n      jump\t// in\n    tag_223:\n      swap1\n      dup2\n      mstore\n      0x20\n      add\n      mload(0x40)\n      dup1\n      swap2\n      sub\n      swap1\n      keccak256\n      sload\n        /* \"contracts/libraries/TimeLock.sol\":2039:2071  timelock[_fn] <= block.timestamp */\n      gt\n      iszero\n        /* \"contracts/libraries/TimeLock.sol\":2017:2071  timelock[_fn] != 0 && timelock[_fn] <= block.timestamp */\n    tag_222:\n        /* \"contracts/libraries/TimeLock.sol\":2017:2119  timelock[_fn] != 0 && timelock[_fn] <= block.timestamp && timelock[_fn] + _TIMELOCK >= block.timestamp */\n      dup1\n      iszero\n      tag_224\n      jumpi\n      pop\n        /* \"contracts/libraries/TimeLock.sol\":2104:2119  block.timestamp */\n      timestamp\n        /* \"contracts/libraries/TimeLock.sol\":861:867  1 days */\n      0x015180\n        /* \"contracts/libraries/TimeLock.sol\":2075:2083  timelock */\n      0x01\n        /* \"contracts/libraries/TimeLock.sol\":2084:2087  _fn */\n      dup4\n        /* \"contracts/libraries/TimeLock.sol\":2075:2088  timelock[_fn] */\n      mload(0x40)\n      tag_225\n      swap2\n      swap1\n      tag_444\n      jump\t// in\n    tag_225:\n      swap1\n      dup2\n      mstore\n      0x20\n      add\n      mload(0x40)\n      dup1\n      swap2\n      sub\n      swap1\n      keccak256\n      sload\n        /* \"contracts/libraries/TimeLock.sol\":2075:2100  timelock[_fn] + _TIMELOCK */\n      tag_226\n      swap2\n      swap1\n      tag_202\n      jump\t// in\n    tag_226:\n        /* \"contracts/libraries/TimeLock.sol\":2075:2119  timelock[_fn] + _TIMELOCK >= block.timestamp */\n      lt\n      iszero\n        /* \"contracts/libraries/TimeLock.sol\":2017:2119  timelock[_fn] != 0 && timelock[_fn] <= block.timestamp && timelock[_fn] + _TIMELOCK >= block.timestamp */\n    tag_224:\n        /* \"contracts/libraries/TimeLock.sol\":1990:2143  require(!isLockEnabled || (timelock[_fn] != 0 && timelock[_fn] <= block.timestamp && timelock[_fn] + _TIMELOCK >= block.timestamp), \"Function is locked\") */\n      tag_227\n      jumpi\n      mload(0x40)\n      shl(0xe5, 0x461bcd)\n      dup2\n      mstore\n      0x04\n      add\n      tag_191\n      swap1\n      tag_205\n      jump\t// in\n    tag_227:\n        /* \"contracts/chains/kardiachain/RewardSystem.sol\":4333:4364  transferOwnership(oracleWallet) */\n      tag_230\n        /* \"contracts/chains/kardiachain/RewardSystem.sol\":4351:4363  oracleWallet */\n      dup3\n        /* \"contracts/chains/kardiachain/RewardSystem.sol\":4333:4350  transferOwnership */\n      tag_161\n        /* \"contracts/chains/kardiachain/RewardSystem.sol\":4333:4364  transferOwnership(oracleWallet) */\n      jump\t// in\n    tag_230:\n        /* \"contracts/chains/kardiachain/RewardSystem.sol\":4393:4406  _oracleWallet */\n      0x06\n      dup1\n      sload\n      sub(shl(0xa0, 0x01), 0x01)\n        /* \"contracts/chains/kardiachain/RewardSystem.sol\":4416:4444  _oracleWallet = oracleWallet */\n      dup5\n      dup2\n      and\n      not(sub(shl(0xa0, 0x01), 0x01))\n      dup4\n      and\n      dup2\n      or\n      swap1\n      swap4\n      sstore\n        /* \"contracts/chains/kardiachain/RewardSystem.sol\":4459:4503  ChangedOracleWallet(previous, _oracleWallet) */\n      mload(0x40)\n        /* \"contracts/chains/kardiachain/RewardSystem.sol\":4393:4406  _oracleWallet */\n      swap2\n      and\n      swap2\n        /* \"contracts/chains/kardiachain/RewardSystem.sol\":4416:4444  _oracleWallet = oracleWallet */\n      swap1\n        /* \"contracts/chains/kardiachain/RewardSystem.sol\":4393:4406  _oracleWallet */\n      dup3\n      swap1\n        /* \"contracts/chains/kardiachain/RewardSystem.sol\":4459:4503  ChangedOracleWallet(previous, _oracleWallet) */\n      0x3920ecd0f25e4e6ce57aaec91e57df499cb7e3e70d6c9604f866ae9265382cf3\n      swap1\n        /* \"contracts/chains/kardiachain/RewardSystem.sol\":4374:4390  address previous */\n      0x00\n      swap1\n        /* \"contracts/chains/kardiachain/RewardSystem.sol\":4459:4503  ChangedOracleWallet(previous, _oracleWallet) */\n      log3\n        /* \"contracts/chains/kardiachain/RewardSystem.sol\":4323:4510  {... */\n      pop\n        /* \"contracts/libraries/TimeLock.sol\":2164:2181  lockFunction(_fn) */\n      tag_211\n        /* \"contracts/libraries/TimeLock.sol\":2177:2180  _fn */\n      dup2\n        /* \"contracts/libraries/TimeLock.sol\":2164:2176  lockFunction */\n      tag_105\n        /* \"contracts/libraries/TimeLock.sol\":2164:2181  lockFunction(_fn) */\n      jump\t// in\n        /* \"contracts/chains/kardiachain/RewardSystem.sol\":4617:4776  function changeFee(uint256 newFee) public onlyOwner locked(\"changeFee\") {... */\n    tag_74:\n        /* \"@openzeppelin/contracts/access/Ownable.sol\":1019:1026  address */\n      0x00\n        /* \"@openzeppelin/contracts/access/Ownable.sol\":1045:1051  _owner */\n      sload\n      sub(shl(0xa0, 0x01), 0x01)\n      and\n        /* \"@openzeppelin/contracts/utils/Context.sol\":665:675  msg.sender */\n      caller\n        /* \"@openzeppelin/contracts/access/Ownable.sol\":1185:1208  owner() == _msgSender() */\n      eq\n        /* \"@openzeppelin/contracts/access/Ownable.sol\":1177:1245  require(owner() == _msgSender(), \"Ownable: caller is not the owner\") */\n      tag_235\n      jumpi\n      mload(0x40)\n      shl(0xe5, 0x461bcd)\n      dup2\n      mstore\n      0x04\n      add\n      tag_191\n      swap1\n      tag_218\n      jump\t// in\n    tag_235:\n        /* \"contracts/libraries/TimeLock.sol\":1945:2188  modifier locked(string memory _fn) {... */\n      0x40\n      dup1\n      mload\n      dup1\n      dup3\n      add\n      swap1\n      swap2\n      mstore\n      0x09\n      dup2\n      mstore\n      shl(0xb8, 0x6368616e6765466565)\n      0x20\n      dup3\n      add\n      mstore\n      0x00\n        /* \"contracts/libraries/TimeLock.sol\":1999:2012  isLockEnabled */\n      sload\n      shl(0xa0, 0x01)\n      swap1\n      div\n      0xff\n      and\n        /* \"contracts/libraries/TimeLock.sol\":1998:2012  !isLockEnabled */\n      iszero\n      dup1\n        /* \"contracts/libraries/TimeLock.sol\":1998:2120  !isLockEnabled || (timelock[_fn] != 0 && timelock[_fn] <= block.timestamp && timelock[_fn] + _TIMELOCK >= block.timestamp) */\n      tag_242\n      jumpi\n      pop\n        /* \"contracts/libraries/TimeLock.sol\":2017:2025  timelock */\n      0x01\n        /* \"contracts/libraries/TimeLock.sol\":2026:2029  _fn */\n      dup2\n        /* \"contracts/libraries/TimeLock.sol\":2017:2030  timelock[_fn] */\n      mload(0x40)\n      tag_239\n      swap2\n      swap1\n      tag_444\n      jump\t// in\n    tag_239:\n      swap1\n      dup2\n      mstore\n      0x20\n      add\n      mload(0x40)\n      dup1\n      swap2\n      sub\n      swap1\n      keccak256\n      sload\n        /* \"contracts/libraries/TimeLock.sol\":2034:2035  0 */\n      0x00\n        /* \"contracts/libraries/TimeLock.sol\":2017:2035  timelock[_fn] != 0 */\n      eq\n      iszero\n        /* \"contracts/libraries/TimeLock.sol\":2017:2071  timelock[_fn] != 0 && timelock[_fn] <= block.timestamp */\n      dup1\n      iszero\n      tag_240\n      jumpi\n      pop\n        /* \"contracts/libraries/TimeLock.sol\":2056:2071  block.timestamp */\n      timestamp\n        /* \"contracts/libraries/TimeLock.sol\":2039:2047  timelock */\n      0x01\n        /* \"contracts/libraries/TimeLock.sol\":2048:2051  _fn */\n      dup3\n        /* \"contracts/libraries/TimeLock.sol\":2039:2052  timelock[_fn] */\n      mload(0x40)\n      tag_241\n      swap2\n      swap1\n      tag_444\n      jump\t// in\n    tag_241:\n      swap1\n      dup2\n      mstore\n      0x20\n      add\n      mload(0x40)\n      dup1\n      swap2\n      sub\n      swap1\n      keccak256\n      sload\n        /* \"contracts/libraries/TimeLock.sol\":2039:2071  timelock[_fn] <= block.timestamp */\n      gt\n      iszero\n        /* \"contracts/libraries/TimeLock.sol\":2017:2071  timelock[_fn] != 0 && timelock[_fn] <= block.timestamp */\n    tag_240:\n        /* \"contracts/libraries/TimeLock.sol\":2017:2119  timelock[_fn] != 0 && timelock[_fn] <= block.timestamp && timelock[_fn] + _TIMELOCK >= block.timestamp */\n      dup1\n      iszero\n      tag_242\n      jumpi\n      pop\n        /* \"contracts/libraries/TimeLock.sol\":2104:2119  block.timestamp */\n      timestamp\n        /* \"contracts/libraries/TimeLock.sol\":861:867  1 days */\n      0x015180\n        /* \"contracts/libraries/TimeLock.sol\":2075:2083  timelock */\n      0x01\n        /* \"contracts/libraries/TimeLock.sol\":2084:2087  _fn */\n      dup4\n        /* \"contracts/libraries/TimeLock.sol\":2075:2088  timelock[_fn] */\n      mload(0x40)\n      tag_243\n      swap2\n      swap1\n      tag_444\n      jump\t// in\n    tag_243:\n      swap1\n      dup2\n      mstore\n      0x20\n      add\n      mload(0x40)\n      dup1\n      swap2\n      sub\n      swap1\n      keccak256\n      sload\n        /* \"contracts/libraries/TimeLock.sol\":2075:2100  timelock[_fn] + _TIMELOCK */\n      tag_244\n      swap2\n      swap1\n      tag_202\n      jump\t// in\n    tag_244:\n        /* \"contracts/libraries/TimeLock.sol\":2075:2119  timelock[_fn] + _TIMELOCK >= block.timestamp */\n      lt\n      iszero\n        /* \"contracts/libraries/TimeLock.sol\":2017:2119  timelock[_fn] != 0 && timelock[_fn] <= block.timestamp && timelock[_fn] + _TIMELOCK >= block.timestamp */\n    tag_242:\n        /* \"contracts/libraries/TimeLock.sol\":1990:2143  require(!isLockEnabled || (timelock[_fn] != 0 && timelock[_fn] <= block.timestamp && timelock[_fn] + _TIMELOCK >= block.timestamp), \"Function is locked\") */\n      tag_245\n      jumpi\n      mload(0x40)\n      shl(0xe5, 0x461bcd)\n      dup2\n      mstore\n      0x04\n      add\n      tag_191\n      swap1\n      tag_205\n      jump\t// in\n    tag_245:\n        /* \"contracts/chains/kardiachain/RewardSystem.sol\":4715:4728  nativeSwapFee */\n      sload(0x05)\n        /* \"contracts/chains/kardiachain/RewardSystem.sol\":4704:4737  ChangedFee(nativeSwapFee, newFee) */\n      mload(0x40)\n        /* \"contracts/chains/kardiachain/RewardSystem.sol\":4730:4736  newFee */\n      dup4\n      swap2\n        /* \"contracts/chains/kardiachain/RewardSystem.sol\":4715:4728  nativeSwapFee */\n      swap1\n        /* \"contracts/chains/kardiachain/RewardSystem.sol\":4704:4737  ChangedFee(nativeSwapFee, newFee) */\n      0xce8c8159f011d886721740f77c2d26c91b08ac01bd1d03bd132a9942661cb149\n      swap1\n      0x00\n      swap1\n      log3\n        /* \"contracts/chains/kardiachain/RewardSystem.sol\":4747:4760  nativeSwapFee */\n      0x05\n        /* \"contracts/chains/kardiachain/RewardSystem.sol\":4747:4769  nativeSwapFee = newFee */\n      dup3\n      swap1\n      sstore\n        /* \"contracts/libraries/TimeLock.sol\":2164:2181  lockFunction(_fn) */\n      tag_211\n        /* \"contracts/libraries/TimeLock.sol\":2177:2180  _fn */\n      dup2\n        /* \"contracts/libraries/TimeLock.sol\":2164:2176  lockFunction */\n      tag_105\n        /* \"contracts/libraries/TimeLock.sol\":2164:2181  lockFunction(_fn) */\n      jump\t// in\n        /* \"@openzeppelin/contracts/access/Ownable.sol\":1605:1697  function renounceOwnership() public virtual onlyOwner {... */\n    tag_81:\n        /* \"@openzeppelin/contracts/access/Ownable.sol\":1019:1026  address */\n      0x00\n        /* \"@openzeppelin/contracts/access/Ownable.sol\":1045:1051  _owner */\n      sload\n      sub(shl(0xa0, 0x01), 0x01)\n      and\n        /* \"@openzeppelin/contracts/utils/Context.sol\":665:675  msg.sender */\n      caller\n        /* \"@openzeppelin/contracts/access/Ownable.sol\":1185:1208  owner() == _msgSender() */\n      eq\n        /* \"@openzeppelin/contracts/access/Ownable.sol\":1177:1245  require(owner() == _msgSender(), \"Ownable: caller is not the owner\") */\n      tag_253\n      jumpi\n      mload(0x40)\n      shl(0xe5, 0x461bcd)\n      dup2\n      mstore\n      0x04\n      add\n      tag_191\n      swap1\n      tag_218\n      jump\t// in\n    tag_253:\n        /* \"@openzeppelin/contracts/access/Ownable.sol\":1669:1690  _setOwner(address(0)) */\n      tag_256\n        /* \"@openzeppelin/contracts/access/Ownable.sol\":1687:1688  0 */\n      0x00\n        /* \"@openzeppelin/contracts/access/Ownable.sol\":1669:1678  _setOwner */\n      tag_257\n        /* \"@openzeppelin/contracts/access/Ownable.sol\":1669:1690  _setOwner(address(0)) */\n      jump\t// in\n    tag_256:\n        /* \"@openzeppelin/contracts/access/Ownable.sol\":1605:1697  function renounceOwnership() public virtual onlyOwner {... */\n      jump\t// out\n        /* \"contracts/chains/kardiachain/RewardSystem.sol\":5455:6390  function sendRewards(uint256 amount, address user, uint256 fee) public onlyOwner {... */\n    tag_100:\n        /* \"@openzeppelin/contracts/access/Ownable.sol\":1019:1026  address */\n      0x00\n        /* \"@openzeppelin/contracts/access/Ownable.sol\":1045:1051  _owner */\n      sload\n      sub(shl(0xa0, 0x01), 0x01)\n      and\n        /* \"@openzeppelin/contracts/utils/Context.sol\":665:675  msg.sender */\n      caller\n        /* \"@openzeppelin/contracts/access/Ownable.sol\":1185:1208  owner() == _msgSender() */\n      eq\n        /* \"@openzeppelin/contracts/access/Ownable.sol\":1177:1245  require(owner() == _msgSender(), \"Ownable: caller is not the owner\") */\n      tag_263\n      jumpi\n      mload(0x40)\n      shl(0xe5, 0x461bcd)\n      dup2\n      mstore\n      0x04\n      add\n      tag_191\n      swap1\n      tag_218\n      jump\t// in\n    tag_263:\n        /* \"contracts/chains/kardiachain/RewardSystem.sol\":5562:5569  _router */\n      and(sub(shl(0xa0, 0x01), 0x01), sload(0x0c))\n        /* \"contracts/chains/kardiachain/RewardSystem.sol\":5546:5657  require(address(_router) != address(0), \"ABOAT::sendReward: There is no router defined to swap tokens for eth\") */\n      tag_266\n      jumpi\n      mload(0x40)\n      shl(0xe5, 0x461bcd)\n      dup2\n      mstore\n        /* \"#utility.yul\":10020:10022   */\n      0x20\n        /* \"contracts/chains/kardiachain/RewardSystem.sol\":5546:5657  require(address(_router) != address(0), \"ABOAT::sendReward: There is no router defined to swap tokens for eth\") */\n      0x04\n      dup3\n      add\n        /* \"#utility.yul\":10002:10023   */\n      mstore\n        /* \"#utility.yul\":10059:10061   */\n      0x44\n        /* \"#utility.yul\":10039:10057   */\n      0x24\n      dup3\n      add\n        /* \"#utility.yul\":10032:10062   */\n      dup2\n      swap1\n      mstore\n        /* \"#utility.yul\":10098:10132   */\n      0x41424f41543a3a73656e645265776172643a205468657265206973206e6f2072\n        /* \"#utility.yul\":10078:10096   */\n      swap1\n      dup3\n      add\n        /* \"#utility.yul\":10071:10133   */\n      mstore\n        /* \"#utility.yul\":10169:10203   */\n      0x6f7574657220646566696e656420746f207377617020746f6b656e7320666f72\n        /* \"#utility.yul\":10149:10167   */\n      0x64\n      dup3\n      add\n        /* \"#utility.yul\":10142:10204   */\n      mstore\n      shl(0xe3, 0x040cae8d)\n        /* \"#utility.yul\":10220:10239   */\n      0x84\n      dup3\n      add\n        /* \"#utility.yul\":10213:10248   */\n      mstore\n        /* \"#utility.yul\":10265:10284   */\n      0xa4\n      add\n        /* \"contracts/chains/kardiachain/RewardSystem.sol\":5546:5657  require(address(_router) != address(0), \"ABOAT::sendReward: There is no router defined to swap tokens for eth\") */\n      tag_191\n        /* \"#utility.yul\":9818:10290   */\n      jump\n        /* \"contracts/chains/kardiachain/RewardSystem.sol\":5546:5657  require(address(_router) != address(0), \"ABOAT::sendReward: There is no router defined to swap tokens for eth\") */\n    tag_266:\n        /* \"contracts/chains/kardiachain/RewardSystem.sol\":5685:5697  getBalance() */\n      tag_269\n        /* \"contracts/chains/kardiachain/RewardSystem.sol\":5685:5695  getBalance */\n      tag_55\n        /* \"contracts/chains/kardiachain/RewardSystem.sol\":5685:5697  getBalance() */\n      jump\t// in\n    tag_269:\n        /* \"contracts/chains/kardiachain/RewardSystem.sol\":5675:5681  amount */\n      dup4\n        /* \"contracts/chains/kardiachain/RewardSystem.sol\":5675:5697  amount <= getBalance() */\n      gt\n      iszero\n        /* \"contracts/chains/kardiachain/RewardSystem.sol\":5667:5767  require(amount <= getBalance(), \"ABOAT::sendReward: Can't send more rewards than in reward system!\") */\n      tag_270\n      jumpi\n      mload(0x40)\n      shl(0xe5, 0x461bcd)\n      dup2\n      mstore\n        /* \"#utility.yul\":6241:6243   */\n      0x20\n        /* \"contracts/chains/kardiachain/RewardSystem.sol\":5667:5767  require(amount <= getBalance(), \"ABOAT::sendReward: Can't send more rewards than in reward system!\") */\n      0x04\n      dup3\n      add\n        /* \"#utility.yul\":6223:6244   */\n      mstore\n        /* \"#utility.yul\":6280:6282   */\n      0x41\n        /* \"#utility.yul\":6260:6278   */\n      0x24\n      dup3\n      add\n        /* \"#utility.yul\":6253:6283   */\n      mstore\n        /* \"#utility.yul\":6319:6353   */\n      0x41424f41543a3a73656e645265776172643a2043616e27742073656e64206d6f\n        /* \"#utility.yul\":6299:6317   */\n      0x44\n      dup3\n      add\n        /* \"#utility.yul\":6292:6354   */\n      mstore\n        /* \"#utility.yul\":6390:6424   */\n      0x72652072657761726473207468616e20696e207265776172642073797374656d\n        /* \"#utility.yul\":6370:6388   */\n      0x64\n      dup3\n      add\n        /* \"#utility.yul\":6363:6425   */\n      mstore\n      shl(0xf8, 0x21)\n        /* \"#utility.yul\":6441:6460   */\n      0x84\n      dup3\n      add\n        /* \"#utility.yul\":6434:6466   */\n      mstore\n        /* \"#utility.yul\":6483:6502   */\n      0xa4\n      add\n        /* \"contracts/chains/kardiachain/RewardSystem.sol\":5667:5767  require(amount <= getBalance(), \"ABOAT::sendReward: Can't send more rewards than in reward system!\") */\n      tag_191\n        /* \"#utility.yul\":6039:6508   */\n      jump\n        /* \"contracts/chains/kardiachain/RewardSystem.sol\":5667:5767  require(amount <= getBalance(), \"ABOAT::sendReward: Can't send more rewards than in reward system!\") */\n    tag_270:\n        /* \"contracts/chains/kardiachain/RewardSystem.sol\":5795:5815  _maxAmountPerReceive */\n      sload(0x09)\n        /* \"contracts/chains/kardiachain/RewardSystem.sol\":5785:5791  amount */\n      dup4\n        /* \"contracts/chains/kardiachain/RewardSystem.sol\":5785:5815  amount <= _maxAmountPerReceive */\n      gt\n      iszero\n        /* \"contracts/chains/kardiachain/RewardSystem.sol\":5777:5874  require(amount <= _maxAmountPerReceive, \"ABOAT::sendReward: Can't send more rewards than limit!\") */\n      tag_273\n      jumpi\n      mload(0x40)\n      shl(0xe5, 0x461bcd)\n      dup2\n      mstore\n        /* \"#utility.yul\":5397:5399   */\n      0x20\n        /* \"contracts/chains/kardiachain/RewardSystem.sol\":5777:5874  require(amount <= _maxAmountPerReceive, \"ABOAT::sendReward: Can't send more rewards than limit!\") */\n      0x04\n      dup3\n      add\n        /* \"#utility.yul\":5379:5400   */\n      mstore\n        /* \"#utility.yul\":5436:5438   */\n      0x36\n        /* \"#utility.yul\":5416:5434   */\n      0x24\n      dup3\n      add\n        /* \"#utility.yul\":5409:5439   */\n      mstore\n        /* \"#utility.yul\":5475:5509   */\n      0x41424f41543a3a73656e645265776172643a2043616e27742073656e64206d6f\n        /* \"#utility.yul\":5455:5473   */\n      0x44\n      dup3\n      add\n        /* \"#utility.yul\":5448:5510   */\n      mstore\n      shl(0x50, 0x72652072657761726473207468616e206c696d697421)\n        /* \"#utility.yul\":5526:5544   */\n      0x64\n      dup3\n      add\n        /* \"#utility.yul\":5519:5571   */\n      mstore\n        /* \"#utility.yul\":5588:5607   */\n      0x84\n      add\n        /* \"contracts/chains/kardiachain/RewardSystem.sol\":5777:5874  require(amount <= _maxAmountPerReceive, \"ABOAT::sendReward: Can't send more rewards than limit!\") */\n      tag_191\n        /* \"#utility.yul\":5195:5613   */\n      jump\n        /* \"contracts/chains/kardiachain/RewardSystem.sol\":5777:5874  require(amount <= _maxAmountPerReceive, \"ABOAT::sendReward: Can't send more rewards than limit!\") */\n    tag_273:\n        /* \"contracts/chains/kardiachain/RewardSystem.sol\":5892:5906  canClaim(user) */\n      tag_276\n        /* \"contracts/chains/kardiachain/RewardSystem.sol\":5901:5905  user */\n      dup3\n        /* \"contracts/chains/kardiachain/RewardSystem.sol\":5892:5900  canClaim */\n      tag_130\n        /* \"contracts/chains/kardiachain/RewardSystem.sol\":5892:5906  canClaim(user) */\n      jump\t// in\n    tag_276:\n        /* \"contracts/chains/kardiachain/RewardSystem.sol\":5884:5964  require(canClaim(user), \"ABOAT::sendReward: Can't claim more than once per day\") */\n      tag_277\n      jumpi\n      mload(0x40)\n      shl(0xe5, 0x461bcd)\n      dup2\n      mstore\n        /* \"#utility.yul\":11823:11825   */\n      0x20\n        /* \"contracts/chains/kardiachain/RewardSystem.sol\":5884:5964  require(canClaim(user), \"ABOAT::sendReward: Can't claim more than once per day\") */\n      0x04\n      dup3\n      add\n        /* \"#utility.yul\":11805:11826   */\n      mstore\n        /* \"#utility.yul\":11862:11864   */\n      0x35\n        /* \"#utility.yul\":11842:11860   */\n      0x24\n      dup3\n      add\n        /* \"#utility.yul\":11835:11865   */\n      mstore\n        /* \"#utility.yul\":11901:11935   */\n      0x41424f41543a3a73656e645265776172643a2043616e277420636c61696d206d\n        /* \"#utility.yul\":11881:11899   */\n      0x44\n      dup3\n      add\n        /* \"#utility.yul\":11874:11936   */\n      mstore\n      shl(0x58, 0x6f7265207468616e206f6e63652070657220646179)\n        /* \"#utility.yul\":11952:11970   */\n      0x64\n      dup3\n      add\n        /* \"#utility.yul\":11945:11996   */\n      mstore\n        /* \"#utility.yul\":12013:12032   */\n      0x84\n      add\n        /* \"contracts/chains/kardiachain/RewardSystem.sol\":5884:5964  require(canClaim(user), \"ABOAT::sendReward: Can't claim more than once per day\") */\n      tag_191\n        /* \"#utility.yul\":11621:12038   */\n      jump\n        /* \"contracts/chains/kardiachain/RewardSystem.sol\":5884:5964  require(canClaim(user), \"ABOAT::sendReward: Can't claim more than once per day\") */\n    tag_277:\n        /* \"contracts/chains/kardiachain/RewardSystem.sol\":5991:5994  fee */\n      dup1\n        /* \"contracts/chains/kardiachain/RewardSystem.sol\":5982:5988  amount */\n      dup4\n        /* \"contracts/chains/kardiachain/RewardSystem.sol\":5982:5994  amount > fee */\n      gt\n        /* \"contracts/chains/kardiachain/RewardSystem.sol\":5974:6016  require(amount > fee, \"ABOAT::sendReward\") */\n      tag_280\n      jumpi\n      mload(0x40)\n      shl(0xe5, 0x461bcd)\n      dup2\n      mstore\n        /* \"#utility.yul\":6715:6717   */\n      0x20\n        /* \"contracts/chains/kardiachain/RewardSystem.sol\":5974:6016  require(amount > fee, \"ABOAT::sendReward\") */\n      0x04\n      dup3\n      add\n        /* \"#utility.yul\":6697:6718   */\n      mstore\n        /* \"#utility.yul\":6754:6756   */\n      0x11\n        /* \"#utility.yul\":6734:6752   */\n      0x24\n      dup3\n      add\n        /* \"#utility.yul\":6727:6757   */\n      mstore\n      shl(0x7a, 0x105093d0550e8e9cd95b9914995dd85c99)\n        /* \"#utility.yul\":6773:6791   */\n      0x44\n      dup3\n      add\n        /* \"#utility.yul\":6766:6813   */\n      mstore\n        /* \"#utility.yul\":6830:6848   */\n      0x64\n      add\n        /* \"contracts/chains/kardiachain/RewardSystem.sol\":5974:6016  require(amount > fee, \"ABOAT::sendReward\") */\n      tag_191\n        /* \"#utility.yul\":6513:6854   */\n      jump\n        /* \"contracts/chains/kardiachain/RewardSystem.sol\":5974:6016  require(amount > fee, \"ABOAT::sendReward\") */\n    tag_280:\n      sub(shl(0xa0, 0x01), 0x01)\n        /* \"contracts/chains/kardiachain/RewardSystem.sol\":6026:6043  _claimTimes[user] */\n      dup3\n      and\n      0x00\n      swap1\n      dup2\n      mstore\n        /* \"contracts/chains/kardiachain/RewardSystem.sol\":6026:6037  _claimTimes */\n      0x04\n        /* \"contracts/chains/kardiachain/RewardSystem.sol\":6026:6043  _claimTimes[user] */\n      0x20\n      mstore\n      0x40\n      swap1\n      keccak256\n        /* \"contracts/chains/kardiachain/RewardSystem.sol\":6046:6061  block.timestamp */\n      timestamp\n        /* \"contracts/chains/kardiachain/RewardSystem.sol\":6026:6061  _claimTimes[user] = block.timestamp */\n      swap1\n      sstore\n        /* \"contracts/chains/kardiachain/RewardSystem.sol\":6080:6095  amount.sub(fee) */\n      tag_283\n        /* \"contracts/chains/kardiachain/RewardSystem.sol\":6080:6086  amount */\n      dup4\n        /* \"contracts/chains/kardiachain/RewardSystem.sol\":6091:6094  fee */\n      dup3\n        /* \"contracts/chains/kardiachain/RewardSystem.sol\":6080:6090  amount.sub */\n      tag_284\n        /* \"contracts/chains/kardiachain/RewardSystem.sol\":6080:6095  amount.sub(fee) */\n      jump\t// in\n    tag_283:\n        /* \"contracts/chains/kardiachain/RewardSystem.sol\":6071:6095  amount = amount.sub(fee) */\n      swap3\n      pop\n        /* \"contracts/chains/kardiachain/RewardSystem.sol\":6123:6144  address(this).balance */\n      selfbalance\n        /* \"contracts/chains/kardiachain/RewardSystem.sol\":6154:6175  swapTokensForEth(fee) */\n      tag_285\n        /* \"contracts/chains/kardiachain/RewardSystem.sol\":6171:6174  fee */\n      dup3\n        /* \"contracts/chains/kardiachain/RewardSystem.sol\":6154:6170  swapTokensForEth */\n      tag_286\n        /* \"contracts/chains/kardiachain/RewardSystem.sol\":6154:6175  swapTokensForEth(fee) */\n      jump\t// in\n    tag_285:\n        /* \"contracts/chains/kardiachain/RewardSystem.sol\":6185:6269  TransferHelper.safeTransferETH(address(owner()), address(this).balance.sub(userEth)) */\n      tag_287\n        /* \"contracts/chains/kardiachain/RewardSystem.sol\":6224:6231  owner() */\n      tag_288\n        /* \"@openzeppelin/contracts/access/Ownable.sol\":1019:1026  address */\n      0x00\n        /* \"@openzeppelin/contracts/access/Ownable.sol\":1045:1051  _owner */\n      sload\n      sub(shl(0xa0, 0x01), 0x01)\n      and\n      swap1\n        /* \"@openzeppelin/contracts/access/Ownable.sol\":973:1058  function owner() public view virtual returns (address) {... */\n      jump\n        /* \"contracts/chains/kardiachain/RewardSystem.sol\":6224:6231  owner() */\n    tag_288:\n        /* \"contracts/chains/kardiachain/RewardSystem.sol\":6234:6268  address(this).balance.sub(userEth) */\n      tag_289\n        /* \"contracts/chains/kardiachain/RewardSystem.sol\":6234:6255  address(this).balance */\n      selfbalance\n        /* \"contracts/chains/kardiachain/RewardSystem.sol\":6260:6267  userEth */\n      dup5\n        /* \"contracts/chains/kardiachain/RewardSystem.sol\":6234:6259  address(this).balance.sub */\n      tag_284\n        /* \"contracts/chains/kardiachain/RewardSystem.sol\":6234:6268  address(this).balance.sub(userEth) */\n      jump\t// in\n    tag_289:\n        /* \"contracts/chains/kardiachain/RewardSystem.sol\":6185:6215  TransferHelper.safeTransferETH */\n      tag_290\n        /* \"contracts/chains/kardiachain/RewardSystem.sol\":6185:6269  TransferHelper.safeTransferETH(address(owner()), address(this).balance.sub(userEth)) */\n      jump\t// in\n    tag_287:\n        /* \"contracts/chains/kardiachain/RewardSystem.sol\":6315:6327  _rewardToken */\n      sload(0x08)\n        /* \"contracts/chains/kardiachain/RewardSystem.sol\":6279:6343  TransferHelper.safeTransfer(address(_rewardToken), user, amount) */\n      tag_291\n      swap1\n      sub(shl(0xa0, 0x01), 0x01)\n        /* \"contracts/chains/kardiachain/RewardSystem.sol\":6315:6327  _rewardToken */\n      and\n        /* \"contracts/chains/kardiachain/RewardSystem.sol\":6330:6334  user */\n      dup5\n        /* \"contracts/chains/kardiachain/RewardSystem.sol\":6336:6342  amount */\n      dup7\n        /* \"contracts/chains/kardiachain/RewardSystem.sol\":6279:6306  TransferHelper.safeTransfer */\n      tag_292\n        /* \"contracts/chains/kardiachain/RewardSystem.sol\":6279:6343  TransferHelper.safeTransfer(address(_rewardToken), user, amount) */\n      jump\t// in\n    tag_291:\n        /* \"contracts/chains/kardiachain/RewardSystem.sol\":6358:6383  SentRewards(user, amount) */\n      mload(0x40)\n        /* \"contracts/chains/kardiachain/RewardSystem.sol\":6376:6382  amount */\n      dup5\n      swap1\n      sub(shl(0xa0, 0x01), 0x01)\n        /* \"contracts/chains/kardiachain/RewardSystem.sol\":6358:6383  SentRewards(user, amount) */\n      dup6\n      and\n      swap1\n      0xd9d5e983e9e8a6571ffbeafa6a3c2fbd9f0f44e52607977b5e1e7934f7d91bfc\n      swap1\n      0x00\n      swap1\n      log3\n        /* \"contracts/chains/kardiachain/RewardSystem.sol\":5536:6390  {... */\n      pop\n        /* \"contracts/chains/kardiachain/RewardSystem.sol\":5455:6390  function sendRewards(uint256 amount, address user, uint256 fee) public onlyOwner {... */\n      pop\n      pop\n      pop\n      jump\t// out\n        /* \"contracts/libraries/TimeLock.sol\":4317:4421  function lockFunction(string memory _fn) public onlyMaintainerOrOwner {... */\n    tag_105:\n        /* \"contracts/libraries/TimeLock.sol\":2264:2274  msg.sender */\n      caller\n        /* \"contracts/libraries/TimeLock.sol\":2253:2260  owner() */\n      tag_294\n        /* \"@openzeppelin/contracts/access/Ownable.sol\":1019:1026  address */\n      0x00\n        /* \"@openzeppelin/contracts/access/Ownable.sol\":1045:1051  _owner */\n      sload\n      sub(shl(0xa0, 0x01), 0x01)\n      and\n      swap1\n        /* \"@openzeppelin/contracts/access/Ownable.sol\":973:1058  function owner() public view virtual returns (address) {... */\n      jump\n        /* \"contracts/libraries/TimeLock.sol\":2253:2260  owner() */\n    tag_294:\n      sub(shl(0xa0, 0x01), 0x01)\n        /* \"contracts/libraries/TimeLock.sol\":2253:2274  owner() == msg.sender */\n      and\n      eq\n        /* \"contracts/libraries/TimeLock.sol\":2253:2303  owner() == msg.sender || _maintainer == msg.sender */\n      dup1\n      tag_295\n      jumpi\n      pop\n        /* \"contracts/libraries/TimeLock.sol\":2278:2289  _maintainer */\n      and(sub(shl(0xa0, 0x01), 0x01), sload(0x02))\n        /* \"contracts/libraries/TimeLock.sol\":2293:2303  msg.sender */\n      caller\n        /* \"contracts/libraries/TimeLock.sol\":2278:2303  _maintainer == msg.sender */\n      eq\n        /* \"contracts/libraries/TimeLock.sol\":2253:2303  owner() == msg.sender || _maintainer == msg.sender */\n    tag_295:\n        /* \"contracts/libraries/TimeLock.sol\":2245:2361  require(owner() == msg.sender || _maintainer == msg.sender, \"operator: caller is not allowed to call this function\") */\n      tag_296\n      jumpi\n      mload(0x40)\n      shl(0xe5, 0x461bcd)\n      dup2\n      mstore\n      0x04\n      add\n      tag_191\n      swap1\n      tag_192\n      jump\t// in\n    tag_296:\n        /* \"contracts/libraries/TimeLock.sol\":4413:4414  0 */\n      0x00\n        /* \"contracts/libraries/TimeLock.sol\":4397:4405  timelock */\n      0x01\n        /* \"contracts/libraries/TimeLock.sol\":4406:4409  _fn */\n      dup3\n        /* \"contracts/libraries/TimeLock.sol\":4397:4410  timelock[_fn] */\n      mload(0x40)\n      tag_299\n      swap2\n      swap1\n      tag_444\n      jump\t// in\n    tag_299:\n      swap1\n      dup2\n      mstore\n      mload(0x40)\n      swap1\n      dup2\n      swap1\n      sub\n      0x20\n      add\n      swap1\n      keccak256\n        /* \"contracts/libraries/TimeLock.sol\":4397:4414  timelock[_fn] = 0 */\n      sstore\n      pop\n        /* \"contracts/libraries/TimeLock.sol\":4317:4421  function lockFunction(string memory _fn) public onlyMaintainerOrOwner {... */\n      jump\t// out\n        /* \"contracts/libraries/TimeLock.sol\":4100:4284  function unlockFunction(string memory _fn) public onlyMaintainerOrOwner {... */\n    tag_121:\n        /* \"contracts/libraries/TimeLock.sol\":2264:2274  msg.sender */\n      caller\n        /* \"contracts/libraries/TimeLock.sol\":2253:2260  owner() */\n      tag_301\n        /* \"@openzeppelin/contracts/access/Ownable.sol\":1019:1026  address */\n      0x00\n        /* \"@openzeppelin/contracts/access/Ownable.sol\":1045:1051  _owner */\n      sload\n      sub(shl(0xa0, 0x01), 0x01)\n      and\n      swap1\n        /* \"@openzeppelin/contracts/access/Ownable.sol\":973:1058  function owner() public view virtual returns (address) {... */\n      jump\n        /* \"contracts/libraries/TimeLock.sol\":2253:2260  owner() */\n    tag_301:\n      sub(shl(0xa0, 0x01), 0x01)\n        /* \"contracts/libraries/TimeLock.sol\":2253:2274  owner() == msg.sender */\n      and\n      eq\n        /* \"contracts/libraries/TimeLock.sol\":2253:2303  owner() == msg.sender || _maintainer == msg.sender */\n      dup1\n      tag_302\n      jumpi\n      pop\n        /* \"contracts/libraries/TimeLock.sol\":2278:2289  _maintainer */\n      and(sub(shl(0xa0, 0x01), 0x01), sload(0x02))\n        /* \"contracts/libraries/TimeLock.sol\":2293:2303  msg.sender */\n      caller\n        /* \"contracts/libraries/TimeLock.sol\":2278:2303  _maintainer == msg.sender */\n      eq\n        /* \"contracts/libraries/TimeLock.sol\":2253:2303  owner() == msg.sender || _maintainer == msg.sender */\n    tag_302:\n        /* \"contracts/libraries/TimeLock.sol\":2245:2361  require(owner() == msg.sender || _maintainer == msg.sender, \"operator: caller is not allowed to call this function\") */\n      tag_303\n      jumpi\n      mload(0x40)\n      shl(0xe5, 0x461bcd)\n      dup2\n      mstore\n      0x04\n      add\n      tag_191\n      swap1\n      tag_192\n      jump\t// in\n    tag_303:\n        /* \"contracts/libraries/TimeLock.sol\":4198:4225  block.timestamp + _TIMELOCK */\n      tag_306\n        /* \"contracts/libraries/TimeLock.sol\":861:867  1 days */\n      0x015180\n        /* \"contracts/libraries/TimeLock.sol\":4198:4213  block.timestamp */\n      timestamp\n        /* \"contracts/libraries/TimeLock.sol\":4198:4225  block.timestamp + _TIMELOCK */\n      tag_202\n      jump\t// in\n    tag_306:\n        /* \"contracts/libraries/TimeLock.sol\":4182:4190  timelock */\n      0x01\n        /* \"contracts/libraries/TimeLock.sol\":4191:4194  _fn */\n      dup3\n        /* \"contracts/libraries/TimeLock.sol\":4182:4195  timelock[_fn] */\n      mload(0x40)\n      tag_307\n      swap2\n      swap1\n      tag_444\n      jump\t// in\n    tag_307:\n      swap1\n      dup2\n      mstore\n      0x20\n      add\n      mload(0x40)\n      dup1\n      swap2\n      sub\n      swap1\n      keccak256\n        /* \"contracts/libraries/TimeLock.sol\":4182:4225  timelock[_fn] = block.timestamp + _TIMELOCK */\n      dup2\n      swap1\n      sstore\n      pop\n        /* \"contracts/libraries/TimeLock.sol\":4262:4270  timelock */\n      0x01\n        /* \"contracts/libraries/TimeLock.sol\":4271:4274  _fn */\n      dup2\n        /* \"contracts/libraries/TimeLock.sol\":4262:4275  timelock[_fn] */\n      mload(0x40)\n      tag_308\n      swap2\n      swap1\n      tag_444\n      jump\t// in\n    tag_308:\n      swap1\n      dup2\n      mstore\n      0x20\n      add\n      mload(0x40)\n      dup1\n      swap2\n      sub\n      swap1\n      keccak256\n      sload\n        /* \"contracts/libraries/TimeLock.sol\":4257:4260  _fn */\n      dup2\n        /* \"contracts/libraries/TimeLock.sol\":4240:4276  UnlockedFunction(_fn, timelock[_fn]) */\n      mload(0x40)\n      tag_309\n      swap2\n      swap1\n      tag_444\n      jump\t// in\n    tag_309:\n      mload(0x40)\n      swap1\n      dup2\n      swap1\n      sub\n      dup2\n      keccak256\n      swap1\n      0xf77f9a799fe8b0be1463abd7459a18fc55dfd8a6a24ddd29b54fd098088089c8\n      swap1\n      0x00\n      swap1\n      log3\n        /* \"contracts/libraries/TimeLock.sol\":4100:4284  function unlockFunction(string memory _fn) public onlyMaintainerOrOwner {... */\n      pop\n      jump\t// out\n        /* \"contracts/chains/kardiachain/RewardSystem.sol\":3180:3320  function canClaim(address user) public view returns (bool) {... */\n    tag_130:\n        /* \"contracts/chains/kardiachain/RewardSystem.sol\":3276:3294  _timeBetweenClaims */\n      sload(0x0a)\n      sub(shl(0xa0, 0x01), 0x01)\n        /* \"contracts/chains/kardiachain/RewardSystem.sol\":3256:3273  _claimTimes[user] */\n      dup3\n      and\n        /* \"contracts/chains/kardiachain/RewardSystem.sol\":3233:3237  bool */\n      0x00\n        /* \"contracts/chains/kardiachain/RewardSystem.sol\":3256:3273  _claimTimes[user] */\n      swap1\n      dup2\n      mstore\n        /* \"contracts/chains/kardiachain/RewardSystem.sol\":3256:3267  _claimTimes */\n      0x04\n        /* \"contracts/chains/kardiachain/RewardSystem.sol\":3256:3273  _claimTimes[user] */\n      0x20\n      mstore\n      0x40\n      dup2\n      keccak256\n      sload\n        /* \"contracts/chains/kardiachain/RewardSystem.sol\":3233:3237  bool */\n      swap1\n      swap2\n        /* \"contracts/chains/kardiachain/RewardSystem.sol\":3298:3313  block.timestamp */\n      timestamp\n      swap2\n        /* \"contracts/chains/kardiachain/RewardSystem.sol\":3256:3294  _claimTimes[user] + _timeBetweenClaims */\n      tag_311\n      swap2\n        /* \"contracts/chains/kardiachain/RewardSystem.sol\":3276:3294  _timeBetweenClaims */\n      swap1\n        /* \"contracts/chains/kardiachain/RewardSystem.sol\":3256:3294  _claimTimes[user] + _timeBetweenClaims */\n      tag_202\n      jump\t// in\n    tag_311:\n        /* \"contracts/chains/kardiachain/RewardSystem.sol\":3256:3313  _claimTimes[user] + _timeBetweenClaims <= block.timestamp */\n      gt\n      iszero\n      swap3\n        /* \"contracts/chains/kardiachain/RewardSystem.sol\":3180:3320  function canClaim(address user) public view returns (bool) {... */\n      swap2\n      pop\n      pop\n      jump\t// out\n        /* \"contracts/chains/kardiachain/RewardSystem.sol\":4520:4611  function setRouter(IKaiDexRouter router) public onlyOwner {... */\n    tag_140:\n        /* \"@openzeppelin/contracts/access/Ownable.sol\":1019:1026  address */\n      0x00\n        /* \"@openzeppelin/contracts/access/Ownable.sol\":1045:1051  _owner */\n      sload\n      sub(shl(0xa0, 0x01), 0x01)\n      and\n        /* \"@openzeppelin/contracts/utils/Context.sol\":665:675  msg.sender */\n      caller\n        /* \"@openzeppelin/contracts/access/Ownable.sol\":1185:1208  owner() == _msgSender() */\n      eq\n        /* \"@openzeppelin/contracts/access/Ownable.sol\":1177:1245  require(owner() == _msgSender(), \"Ownable: caller is not the owner\") */\n      tag_315\n      jumpi\n      mload(0x40)\n      shl(0xe5, 0x461bcd)\n      dup2\n      mstore\n      0x04\n      add\n      tag_191\n      swap1\n      tag_218\n      jump\t// in\n    tag_315:\n        /* \"contracts/chains/kardiachain/RewardSystem.sol\":4588:4595  _router */\n      0x0c\n        /* \"contracts/chains/kardiachain/RewardSystem.sol\":4588:4604  _router = router */\n      dup1\n      sload\n      not(sub(shl(0xa0, 0x01), 0x01))\n      and\n      sub(shl(0xa0, 0x01), 0x01)\n      swap3\n      swap1\n      swap3\n      and\n      swap2\n      swap1\n      swap2\n      or\n      swap1\n      sstore\n        /* \"contracts/chains/kardiachain/RewardSystem.sol\":4520:4611  function setRouter(IKaiDexRouter router) public onlyOwner {... */\n      jump\t// out\n        /* \"contracts/chains/kardiachain/RewardSystem.sol\":4782:5124  function emergencyWithdraw() public onlyOwner {... */\n    tag_143:\n        /* \"@openzeppelin/contracts/access/Ownable.sol\":1019:1026  address */\n      0x00\n        /* \"@openzeppelin/contracts/access/Ownable.sol\":1045:1051  _owner */\n      sload\n      sub(shl(0xa0, 0x01), 0x01)\n      and\n        /* \"@openzeppelin/contracts/utils/Context.sol\":665:675  msg.sender */\n      caller\n        /* \"@openzeppelin/contracts/access/Ownable.sol\":1185:1208  owner() == _msgSender() */\n      eq\n        /* \"@openzeppelin/contracts/access/Ownable.sol\":1177:1245  require(owner() == _msgSender(), \"Ownable: caller is not the owner\") */\n      tag_321\n      jumpi\n      mload(0x40)\n      shl(0xe5, 0x461bcd)\n      dup2\n      mstore\n      0x04\n      add\n      tag_191\n      swap1\n      tag_218\n      jump\t// in\n    tag_321:\n        /* \"contracts/chains/kardiachain/RewardSystem.sol\":4874:4886  _rewardToken */\n      sload(0x08)\n        /* \"contracts/chains/kardiachain/RewardSystem.sol\":4838:4911  TransferHelper.safeTransfer(address(_rewardToken), owner(), getBalance()) */\n      tag_324\n      swap1\n      sub(shl(0xa0, 0x01), 0x01)\n        /* \"contracts/chains/kardiachain/RewardSystem.sol\":4874:4886  _rewardToken */\n      and\n        /* \"contracts/chains/kardiachain/RewardSystem.sol\":4889:4896  owner() */\n      tag_325\n        /* \"@openzeppelin/contracts/access/Ownable.sol\":1019:1026  address */\n      0x00\n        /* \"@openzeppelin/contracts/access/Ownable.sol\":1045:1051  _owner */\n      sload\n      sub(shl(0xa0, 0x01), 0x01)\n      and\n      swap1\n        /* \"@openzeppelin/contracts/access/Ownable.sol\":973:1058  function owner() public view virtual returns (address) {... */\n      jump\n        /* \"contracts/chains/kardiachain/RewardSystem.sol\":4889:4896  owner() */\n    tag_325:\n        /* \"contracts/chains/kardiachain/RewardSystem.sol\":4898:4910  getBalance() */\n      tag_326\n        /* \"contracts/chains/kardiachain/RewardSystem.sol\":4898:4908  getBalance */\n      tag_55\n        /* \"contracts/chains/kardiachain/RewardSystem.sol\":4898:4910  getBalance() */\n      jump\t// in\n    tag_326:\n        /* \"contracts/chains/kardiachain/RewardSystem.sol\":4838:4865  TransferHelper.safeTransfer */\n      tag_292\n        /* \"contracts/chains/kardiachain/RewardSystem.sol\":4838:4911  TransferHelper.safeTransfer(address(_rewardToken), owner(), getBalance()) */\n      jump\t// in\n    tag_324:\n        /* \"contracts/chains/kardiachain/RewardSystem.sol\":4942:4963  address(this).balance */\n      selfbalance\n        /* \"contracts/chains/kardiachain/RewardSystem.sol\":4976:4990  ethBalance > 0 */\n      dup1\n      iszero\n        /* \"contracts/chains/kardiachain/RewardSystem.sol\":4973:5077  if(ethBalance > 0) {... */\n      tag_328\n      jumpi\n        /* \"contracts/chains/kardiachain/RewardSystem.sol\":5006:5066  TransferHelper.safeTransferETH(address(owner()), ethBalance) */\n      tag_328\n        /* \"contracts/chains/kardiachain/RewardSystem.sol\":5045:5052  owner() */\n      tag_329\n        /* \"@openzeppelin/contracts/access/Ownable.sol\":1019:1026  address */\n      0x00\n        /* \"@openzeppelin/contracts/access/Ownable.sol\":1045:1051  _owner */\n      sload\n      sub(shl(0xa0, 0x01), 0x01)\n      and\n      swap1\n        /* \"@openzeppelin/contracts/access/Ownable.sol\":973:1058  function owner() public view virtual returns (address) {... */\n      jump\n        /* \"contracts/chains/kardiachain/RewardSystem.sol\":5045:5052  owner() */\n    tag_329:\n        /* \"contracts/chains/kardiachain/RewardSystem.sol\":5055:5065  ethBalance */\n      dup3\n        /* \"contracts/chains/kardiachain/RewardSystem.sol\":5006:5036  TransferHelper.safeTransferETH */\n      tag_290\n        /* \"contracts/chains/kardiachain/RewardSystem.sol\":5006:5066  TransferHelper.safeTransferETH(address(owner()), ethBalance) */\n      jump\t// in\n    tag_328:\n        /* \"@openzeppelin/contracts/access/Ownable.sol\":1019:1026  address */\n      0x00\n        /* \"@openzeppelin/contracts/access/Ownable.sol\":1045:1051  _owner */\n      dup1\n      sload\n        /* \"contracts/chains/kardiachain/RewardSystem.sol\":5091:5117  EmergencyWithdraw(owner()) */\n      mload(0x40)\n      sub(shl(0xa0, 0x01), 0x01)\n        /* \"@openzeppelin/contracts/access/Ownable.sol\":1045:1051  _owner */\n      swap1\n      swap2\n      and\n      swap2\n        /* \"contracts/chains/kardiachain/RewardSystem.sol\":5091:5117  EmergencyWithdraw(owner()) */\n      0x5e7b34819cd91b239220bec92fcfd3c10da2214ba13e4e2b1f6c9cfdbd68a9a2\n      swap2\n      log2\n        /* \"contracts/chains/kardiachain/RewardSystem.sol\":4828:5124  {... */\n      pop\n        /* \"contracts/chains/kardiachain/RewardSystem.sol\":4782:5124  function emergencyWithdraw() public onlyOwner {... */\n      jump\t// out\n        /* \"contracts/chains/kardiachain/RewardSystem.sol\":3651:3881  function adjustMaxAmountPerReceive(uint256 newAmount) public onlyOwner locked(\"adjustMaxAmountPerReceive\") {... */\n    tag_147:\n        /* \"@openzeppelin/contracts/access/Ownable.sol\":1019:1026  address */\n      0x00\n        /* \"@openzeppelin/contracts/access/Ownable.sol\":1045:1051  _owner */\n      sload\n      sub(shl(0xa0, 0x01), 0x01)\n      and\n        /* \"@openzeppelin/contracts/utils/Context.sol\":665:675  msg.sender */\n      caller\n        /* \"@openzeppelin/contracts/access/Ownable.sol\":1185:1208  owner() == _msgSender() */\n      eq\n        /* \"@openzeppelin/contracts/access/Ownable.sol\":1177:1245  require(owner() == _msgSender(), \"Ownable: caller is not the owner\") */\n      tag_334\n      jumpi\n      mload(0x40)\n      shl(0xe5, 0x461bcd)\n      dup2\n      mstore\n      0x04\n      add\n      tag_191\n      swap1\n      tag_218\n      jump\t// in\n    tag_334:\n        /* \"contracts/libraries/TimeLock.sol\":1945:2188  modifier locked(string memory _fn) {... */\n      0x40\n      dup1\n      mload\n      dup1\n      dup3\n      add\n      swap1\n      swap2\n      mstore\n      0x19\n      dup2\n      mstore\n      0x61646a7573744d6178416d6f756e745065725265636569766500000000000000\n      0x20\n      dup3\n      add\n      mstore\n      0x00\n        /* \"contracts/libraries/TimeLock.sol\":1999:2012  isLockEnabled */\n      sload\n      shl(0xa0, 0x01)\n      swap1\n      div\n      0xff\n      and\n        /* \"contracts/libraries/TimeLock.sol\":1998:2012  !isLockEnabled */\n      iszero\n      dup1\n        /* \"contracts/libraries/TimeLock.sol\":1998:2120  !isLockEnabled || (timelock[_fn] != 0 && timelock[_fn] <= block.timestamp && timelock[_fn] + _TIMELOCK >= block.timestamp) */\n      tag_341\n      jumpi\n      pop\n        /* \"contracts/libraries/TimeLock.sol\":2017:2025  timelock */\n      0x01\n        /* \"contracts/libraries/TimeLock.sol\":2026:2029  _fn */\n      dup2\n        /* \"contracts/libraries/TimeLock.sol\":2017:2030  timelock[_fn] */\n      mload(0x40)\n      tag_338\n      swap2\n      swap1\n      tag_444\n      jump\t// in\n    tag_338:\n      swap1\n      dup2\n      mstore\n      0x20\n      add\n      mload(0x40)\n      dup1\n      swap2\n      sub\n      swap1\n      keccak256\n      sload\n        /* \"contracts/libraries/TimeLock.sol\":2034:2035  0 */\n      0x00\n        /* \"contracts/libraries/TimeLock.sol\":2017:2035  timelock[_fn] != 0 */\n      eq\n      iszero\n        /* \"contracts/libraries/TimeLock.sol\":2017:2071  timelock[_fn] != 0 && timelock[_fn] <= block.timestamp */\n      dup1\n      iszero\n      tag_339\n      jumpi\n      pop\n        /* \"contracts/libraries/TimeLock.sol\":2056:2071  block.timestamp */\n      timestamp\n        /* \"contracts/libraries/TimeLock.sol\":2039:2047  timelock */\n      0x01\n        /* \"contracts/libraries/TimeLock.sol\":2048:2051  _fn */\n      dup3\n        /* \"contracts/libraries/TimeLock.sol\":2039:2052  timelock[_fn] */\n      mload(0x40)\n      tag_340\n      swap2\n      swap1\n      tag_444\n      jump\t// in\n    tag_340:\n      swap1\n      dup2\n      mstore\n      0x20\n      add\n      mload(0x40)\n      dup1\n      swap2\n      sub\n      swap1\n      keccak256\n      sload\n        /* \"contracts/libraries/TimeLock.sol\":2039:2071  timelock[_fn] <= block.timestamp */\n      gt\n      iszero\n        /* \"contracts/libraries/TimeLock.sol\":2017:2071  timelock[_fn] != 0 && timelock[_fn] <= block.timestamp */\n    tag_339:\n        /* \"contracts/libraries/TimeLock.sol\":2017:2119  timelock[_fn] != 0 && timelock[_fn] <= block.timestamp && timelock[_fn] + _TIMELOCK >= block.timestamp */\n      dup1\n      iszero\n      tag_341\n      jumpi\n      pop\n        /* \"contracts/libraries/TimeLock.sol\":2104:2119  block.timestamp */\n      timestamp\n        /* \"contracts/libraries/TimeLock.sol\":861:867  1 days */\n      0x015180\n        /* \"contracts/libraries/TimeLock.sol\":2075:2083  timelock */\n      0x01\n        /* \"contracts/libraries/TimeLock.sol\":2084:2087  _fn */\n      dup4\n        /* \"contracts/libraries/TimeLock.sol\":2075:2088  timelock[_fn] */\n      mload(0x40)\n      tag_342\n      swap2\n      swap1\n      tag_444\n      jump\t// in\n    tag_342:\n      swap1\n      dup2\n      mstore\n      0x20\n      add\n      mload(0x40)\n      dup1\n      swap2\n      sub\n      swap1\n      keccak256\n      sload\n        /* \"contracts/libraries/TimeLock.sol\":2075:2100  timelock[_fn] + _TIMELOCK */\n      tag_343\n      swap2\n      swap1\n      tag_202\n      jump\t// in\n    tag_343:\n        /* \"contracts/libraries/TimeLock.sol\":2075:2119  timelock[_fn] + _TIMELOCK >= block.timestamp */\n      lt\n      iszero\n        /* \"contracts/libraries/TimeLock.sol\":2017:2119  timelock[_fn] != 0 && timelock[_fn] <= block.timestamp && timelock[_fn] + _TIMELOCK >= block.timestamp */\n    tag_341:\n        /* \"contracts/libraries/TimeLock.sol\":1990:2143  require(!isLockEnabled || (timelock[_fn] != 0 && timelock[_fn] <= block.timestamp && timelock[_fn] + _TIMELOCK >= block.timestamp), \"Function is locked\") */\n      tag_344\n      jumpi\n      mload(0x40)\n      shl(0xe5, 0x461bcd)\n      dup2\n      mstore\n      0x04\n      add\n      tag_191\n      swap1\n      tag_205\n      jump\t// in\n    tag_344:\n        /* \"contracts/chains/kardiachain/RewardSystem.sol\":3800:3820  _maxAmountPerReceive */\n      sload(0x09)\n        /* \"contracts/chains/kardiachain/RewardSystem.sol\":3773:3832  ChangedMaxAmountPerReceive(_maxAmountPerReceive, newAmount) */\n      mload(0x40)\n        /* \"contracts/chains/kardiachain/RewardSystem.sol\":3822:3831  newAmount */\n      dup4\n      swap2\n        /* \"contracts/chains/kardiachain/RewardSystem.sol\":3800:3820  _maxAmountPerReceive */\n      swap1\n        /* \"contracts/chains/kardiachain/RewardSystem.sol\":3773:3832  ChangedMaxAmountPerReceive(_maxAmountPerReceive, newAmount) */\n      0xd07363c93ca88ca1140b355020cb77b0320b19e19a34bb15aa4566d27c2fabbd\n      swap1\n      0x00\n      swap1\n      log3\n        /* \"contracts/chains/kardiachain/RewardSystem.sol\":3842:3862  _maxAmountPerReceive */\n      0x09\n        /* \"contracts/chains/kardiachain/RewardSystem.sol\":3842:3874  _maxAmountPerReceive = newAmount */\n      dup3\n      swap1\n      sstore\n        /* \"contracts/libraries/TimeLock.sol\":2164:2181  lockFunction(_fn) */\n      tag_211\n        /* \"contracts/libraries/TimeLock.sol\":2177:2180  _fn */\n      dup2\n        /* \"contracts/libraries/TimeLock.sol\":2164:2176  lockFunction */\n      tag_105\n        /* \"contracts/libraries/TimeLock.sol\":2164:2181  lockFunction(_fn) */\n      jump\t// in\n        /* \"contracts/chains/kardiachain/RewardSystem.sol\":6400:7378  function sendRewardAsEth(uint256 amount, address user) public onlyOwner {... */\n    tag_152:\n        /* \"@openzeppelin/contracts/access/Ownable.sol\":1019:1026  address */\n      0x00\n        /* \"@openzeppelin/contracts/access/Ownable.sol\":1045:1051  _owner */\n      sload\n      sub(shl(0xa0, 0x01), 0x01)\n      and\n        /* \"@openzeppelin/contracts/utils/Context.sol\":665:675  msg.sender */\n      caller\n        /* \"@openzeppelin/contracts/access/Ownable.sol\":1185:1208  owner() == _msgSender() */\n      eq\n        /* \"@openzeppelin/contracts/access/Ownable.sol\":1177:1245  require(owner() == _msgSender(), \"Ownable: caller is not the owner\") */\n      tag_351\n      jumpi\n      mload(0x40)\n      shl(0xe5, 0x461bcd)\n      dup2\n      mstore\n      0x04\n      add\n      tag_191\n      swap1\n      tag_218\n      jump\t// in\n    tag_351:\n        /* \"contracts/chains/kardiachain/RewardSystem.sol\":6498:6505  _router */\n      and(sub(shl(0xa0, 0x01), 0x01), sload(0x0c))\n        /* \"contracts/chains/kardiachain/RewardSystem.sol\":6482:6599  require(address(_router) != address(0), \"ABOAT::sendRewardsAsEth: There is no router defined to swap tokens for eth\") */\n      tag_354\n      jumpi\n      mload(0x40)\n      shl(0xe5, 0x461bcd)\n      dup2\n      mstore\n        /* \"#utility.yul\":8340:8342   */\n      0x20\n        /* \"contracts/chains/kardiachain/RewardSystem.sol\":6482:6599  require(address(_router) != address(0), \"ABOAT::sendRewardsAsEth: There is no router defined to swap tokens for eth\") */\n      0x04\n      dup3\n      add\n        /* \"#utility.yul\":8322:8343   */\n      mstore\n        /* \"#utility.yul\":8379:8381   */\n      0x4a\n        /* \"#utility.yul\":8359:8377   */\n      0x24\n      dup3\n      add\n        /* \"#utility.yul\":8352:8382   */\n      mstore\n        /* \"#utility.yul\":8418:8452   */\n      0x41424f41543a3a73656e645265776172647341734574683a2054686572652069\n        /* \"#utility.yul\":8398:8416   */\n      0x44\n      dup3\n      add\n        /* \"#utility.yul\":8391:8453   */\n      mstore\n        /* \"#utility.yul\":8489:8523   */\n      0x73206e6f20726f7574657220646566696e656420746f207377617020746f6b65\n        /* \"#utility.yul\":8469:8487   */\n      0x64\n      dup3\n      add\n        /* \"#utility.yul\":8462:8524   */\n      mstore\n      shl(0xb3, 0x0dce640ccdee440cae8d)\n        /* \"#utility.yul\":8540:8559   */\n      0x84\n      dup3\n      add\n        /* \"#utility.yul\":8533:8574   */\n      mstore\n        /* \"#utility.yul\":8591:8610   */\n      0xa4\n      add\n        /* \"contracts/chains/kardiachain/RewardSystem.sol\":6482:6599  require(address(_router) != address(0), \"ABOAT::sendRewardsAsEth: There is no router defined to swap tokens for eth\") */\n      tag_191\n        /* \"#utility.yul\":8138:8616   */\n      jump\n        /* \"contracts/chains/kardiachain/RewardSystem.sol\":6482:6599  require(address(_router) != address(0), \"ABOAT::sendRewardsAsEth: There is no router defined to swap tokens for eth\") */\n    tag_354:\n        /* \"contracts/chains/kardiachain/RewardSystem.sol\":6627:6639  getBalance() */\n      tag_357\n        /* \"contracts/chains/kardiachain/RewardSystem.sol\":6627:6637  getBalance */\n      tag_55\n        /* \"contracts/chains/kardiachain/RewardSystem.sol\":6627:6639  getBalance() */\n      jump\t// in\n    tag_357:\n        /* \"contracts/chains/kardiachain/RewardSystem.sol\":6617:6623  amount */\n      dup3\n        /* \"contracts/chains/kardiachain/RewardSystem.sol\":6617:6639  amount <= getBalance() */\n      gt\n      iszero\n        /* \"contracts/chains/kardiachain/RewardSystem.sol\":6609:6715  require(amount <= getBalance(), \"ABOAT::sendRewardsAsEth: Can't send more rewards than in reward system!\") */\n      tag_358\n      jumpi\n      mload(0x40)\n      shl(0xe5, 0x461bcd)\n      dup2\n      mstore\n        /* \"#utility.yul\":10497:10499   */\n      0x20\n        /* \"contracts/chains/kardiachain/RewardSystem.sol\":6609:6715  require(amount <= getBalance(), \"ABOAT::sendRewardsAsEth: Can't send more rewards than in reward system!\") */\n      0x04\n      dup3\n      add\n        /* \"#utility.yul\":10479:10500   */\n      mstore\n        /* \"#utility.yul\":10536:10538   */\n      0x47\n        /* \"#utility.yul\":10516:10534   */\n      0x24\n      dup3\n      add\n        /* \"#utility.yul\":10509:10539   */\n      mstore\n        /* \"#utility.yul\":10575:10609   */\n      0x41424f41543a3a73656e645265776172647341734574683a2043616e27742073\n        /* \"#utility.yul\":10555:10573   */\n      0x44\n      dup3\n      add\n        /* \"#utility.yul\":10548:10610   */\n      mstore\n        /* \"#utility.yul\":10646:10680   */\n      0x656e64206d6f72652072657761726473207468616e20696e2072657761726420\n        /* \"#utility.yul\":10626:10644   */\n      0x64\n      dup3\n      add\n        /* \"#utility.yul\":10619:10681   */\n      mstore\n      shl(0xc8, 0x73797374656d21)\n        /* \"#utility.yul\":10697:10716   */\n      0x84\n      dup3\n      add\n        /* \"#utility.yul\":10690:10728   */\n      mstore\n        /* \"#utility.yul\":10745:10764   */\n      0xa4\n      add\n        /* \"contracts/chains/kardiachain/RewardSystem.sol\":6609:6715  require(amount <= getBalance(), \"ABOAT::sendRewardsAsEth: Can't send more rewards than in reward system!\") */\n      tag_191\n        /* \"#utility.yul\":10295:10770   */\n      jump\n        /* \"contracts/chains/kardiachain/RewardSystem.sol\":6609:6715  require(amount <= getBalance(), \"ABOAT::sendRewardsAsEth: Can't send more rewards than in reward system!\") */\n    tag_358:\n        /* \"contracts/chains/kardiachain/RewardSystem.sol\":6743:6763  _maxAmountPerReceive */\n      sload(0x09)\n        /* \"contracts/chains/kardiachain/RewardSystem.sol\":6733:6739  amount */\n      dup3\n        /* \"contracts/chains/kardiachain/RewardSystem.sol\":6733:6763  amount <= _maxAmountPerReceive */\n      gt\n      iszero\n        /* \"contracts/chains/kardiachain/RewardSystem.sol\":6725:6828  require(amount <= _maxAmountPerReceive, \"ABOAT::sendRewardsAsEth: Can't send more rewards than limit!\") */\n      tag_361\n      jumpi\n      mload(0x40)\n      shl(0xe5, 0x461bcd)\n      dup2\n      mstore\n        /* \"#utility.yul\":7061:7063   */\n      0x20\n        /* \"contracts/chains/kardiachain/RewardSystem.sol\":6725:6828  require(amount <= _maxAmountPerReceive, \"ABOAT::sendRewardsAsEth: Can't send more rewards than limit!\") */\n      0x04\n      dup3\n      add\n        /* \"#utility.yul\":7043:7064   */\n      mstore\n        /* \"#utility.yul\":7100:7102   */\n      0x3c\n        /* \"#utility.yul\":7080:7098   */\n      0x24\n      dup3\n      add\n        /* \"#utility.yul\":7073:7103   */\n      mstore\n        /* \"#utility.yul\":7139:7173   */\n      0x41424f41543a3a73656e645265776172647341734574683a2043616e27742073\n        /* \"#utility.yul\":7119:7137   */\n      0x44\n      dup3\n      add\n        /* \"#utility.yul\":7112:7174   */\n      mstore\n        /* \"#utility.yul\":7210:7240   */\n      0x656e64206d6f72652072657761726473207468616e206c696d69742100000000\n        /* \"#utility.yul\":7190:7208   */\n      0x64\n      dup3\n      add\n        /* \"#utility.yul\":7183:7241   */\n      mstore\n        /* \"#utility.yul\":7258:7277   */\n      0x84\n      add\n        /* \"contracts/chains/kardiachain/RewardSystem.sol\":6725:6828  require(amount <= _maxAmountPerReceive, \"ABOAT::sendRewardsAsEth: Can't send more rewards than limit!\") */\n      tag_191\n        /* \"#utility.yul\":6859:7283   */\n      jump\n        /* \"contracts/chains/kardiachain/RewardSystem.sol\":6725:6828  require(amount <= _maxAmountPerReceive, \"ABOAT::sendRewardsAsEth: Can't send more rewards than limit!\") */\n    tag_361:\n        /* \"contracts/chains/kardiachain/RewardSystem.sol\":6846:6860  canClaim(user) */\n      tag_364\n        /* \"contracts/chains/kardiachain/RewardSystem.sol\":6855:6859  user */\n      dup2\n        /* \"contracts/chains/kardiachain/RewardSystem.sol\":6846:6854  canClaim */\n      tag_130\n        /* \"contracts/chains/kardiachain/RewardSystem.sol\":6846:6860  canClaim(user) */\n      jump\t// in\n    tag_364:\n        /* \"contracts/chains/kardiachain/RewardSystem.sol\":6838:6924  require(canClaim(user), \"ABOAT::sendRewardsAsEth: Can't claim more than once per day\") */\n      tag_365\n      jumpi\n      mload(0x40)\n      shl(0xe5, 0x461bcd)\n      dup2\n      mstore\n        /* \"#utility.yul\":8823:8825   */\n      0x20\n        /* \"contracts/chains/kardiachain/RewardSystem.sol\":6838:6924  require(canClaim(user), \"ABOAT::sendRewardsAsEth: Can't claim more than once per day\") */\n      0x04\n      dup3\n      add\n        /* \"#utility.yul\":8805:8826   */\n      mstore\n        /* \"#utility.yul\":8862:8864   */\n      0x3b\n        /* \"#utility.yul\":8842:8860   */\n      0x24\n      dup3\n      add\n        /* \"#utility.yul\":8835:8865   */\n      mstore\n        /* \"#utility.yul\":8901:8935   */\n      0x41424f41543a3a73656e645265776172647341734574683a2043616e27742063\n        /* \"#utility.yul\":8881:8899   */\n      0x44\n      dup3\n      add\n        /* \"#utility.yul\":8874:8936   */\n      mstore\n        /* \"#utility.yul\":8972:9001   */\n      0x6c61696d206d6f7265207468616e206f6e636520706572206461790000000000\n        /* \"#utility.yul\":8952:8970   */\n      0x64\n      dup3\n      add\n        /* \"#utility.yul\":8945:9002   */\n      mstore\n        /* \"#utility.yul\":9019:9038   */\n      0x84\n      add\n        /* \"contracts/chains/kardiachain/RewardSystem.sol\":6838:6924  require(canClaim(user), \"ABOAT::sendRewardsAsEth: Can't claim more than once per day\") */\n      tag_191\n        /* \"#utility.yul\":8621:9044   */\n      jump\n        /* \"contracts/chains/kardiachain/RewardSystem.sol\":6838:6924  require(canClaim(user), \"ABOAT::sendRewardsAsEth: Can't claim more than once per day\") */\n    tag_365:\n      sub(shl(0xa0, 0x01), 0x01)\n        /* \"contracts/chains/kardiachain/RewardSystem.sol\":6934:6951  _claimTimes[user] */\n      dup2\n      and\n      0x00\n      swap1\n      dup2\n      mstore\n        /* \"contracts/chains/kardiachain/RewardSystem.sol\":6934:6945  _claimTimes */\n      0x04\n        /* \"contracts/chains/kardiachain/RewardSystem.sol\":6934:6951  _claimTimes[user] */\n      0x20\n      mstore\n      0x40\n      swap1\n      keccak256\n        /* \"contracts/chains/kardiachain/RewardSystem.sol\":6954:6969  block.timestamp */\n      timestamp\n        /* \"contracts/chains/kardiachain/RewardSystem.sol\":6934:6969  _claimTimes[user] = block.timestamp */\n      swap1\n      sstore\n        /* \"contracts/chains/kardiachain/RewardSystem.sol\":6999:7020  address(this).balance */\n      selfbalance\n        /* \"contracts/chains/kardiachain/RewardSystem.sol\":7030:7054  swapTokensForEth(amount) */\n      tag_368\n        /* \"contracts/chains/kardiachain/RewardSystem.sol\":7047:7053  amount */\n      dup4\n        /* \"contracts/chains/kardiachain/RewardSystem.sol\":7030:7046  swapTokensForEth */\n      tag_286\n        /* \"contracts/chains/kardiachain/RewardSystem.sol\":7030:7054  swapTokensForEth(amount) */\n      jump\t// in\n    tag_368:\n        /* \"contracts/chains/kardiachain/RewardSystem.sol\":7064:7079  uint256 userEth */\n      0x00\n        /* \"contracts/chains/kardiachain/RewardSystem.sol\":7082:7118  address(this).balance.sub(ethBefore) */\n      tag_369\n        /* \"contracts/chains/kardiachain/RewardSystem.sol\":7082:7103  address(this).balance */\n      selfbalance\n        /* \"contracts/chains/kardiachain/RewardSystem.sol\":7108:7117  ethBefore */\n      dup4\n        /* \"contracts/chains/kardiachain/RewardSystem.sol\":7082:7107  address(this).balance.sub */\n      tag_284\n        /* \"contracts/chains/kardiachain/RewardSystem.sol\":7082:7118  address(this).balance.sub(ethBefore) */\n      jump\t// in\n    tag_369:\n        /* \"contracts/chains/kardiachain/RewardSystem.sol\":7064:7118  uint256 userEth = address(this).balance.sub(ethBefore) */\n      swap1\n      pop\n        /* \"contracts/chains/kardiachain/RewardSystem.sol\":7128:7139  uint256 fee */\n      0x00\n        /* \"contracts/chains/kardiachain/RewardSystem.sol\":7142:7168  userEth.div(nativeSwapFee) */\n      tag_370\n        /* \"contracts/chains/kardiachain/RewardSystem.sol\":7154:7167  nativeSwapFee */\n      sload(0x05)\n        /* \"contracts/chains/kardiachain/RewardSystem.sol\":7142:7149  userEth */\n      dup4\n        /* \"contracts/chains/kardiachain/RewardSystem.sol\":7142:7153  userEth.div */\n      tag_371\n      swap1\n        /* \"contracts/chains/kardiachain/RewardSystem.sol\":7142:7168  userEth.div(nativeSwapFee) */\n      swap2\n      swap1\n      0xffffffff\n      and\n      jump\t// in\n    tag_370:\n        /* \"contracts/chains/kardiachain/RewardSystem.sol\":7128:7168  uint256 fee = userEth.div(nativeSwapFee) */\n      swap1\n      pop\n        /* \"contracts/chains/kardiachain/RewardSystem.sol\":7188:7204  userEth.sub(fee) */\n      tag_372\n        /* \"contracts/chains/kardiachain/RewardSystem.sol\":7188:7195  userEth */\n      dup3\n        /* \"contracts/chains/kardiachain/RewardSystem.sol\":7128:7168  uint256 fee = userEth.div(nativeSwapFee) */\n      dup3\n        /* \"contracts/chains/kardiachain/RewardSystem.sol\":7188:7199  userEth.sub */\n      tag_284\n        /* \"contracts/chains/kardiachain/RewardSystem.sol\":7188:7204  userEth.sub(fee) */\n      jump\t// in\n    tag_372:\n        /* \"contracts/chains/kardiachain/RewardSystem.sol\":7178:7204  userEth = userEth.sub(fee) */\n      swap2\n      pop\n        /* \"contracts/chains/kardiachain/RewardSystem.sol\":7214:7267  TransferHelper.safeTransferETH(address(owner()), fee) */\n      tag_373\n        /* \"contracts/chains/kardiachain/RewardSystem.sol\":7253:7260  owner() */\n      tag_329\n        /* \"@openzeppelin/contracts/access/Ownable.sol\":1019:1026  address */\n      0x00\n        /* \"@openzeppelin/contracts/access/Ownable.sol\":1045:1051  _owner */\n      sload\n      sub(shl(0xa0, 0x01), 0x01)\n      and\n      swap1\n        /* \"@openzeppelin/contracts/access/Ownable.sol\":973:1058  function owner() public view virtual returns (address) {... */\n      jump\n        /* \"contracts/chains/kardiachain/RewardSystem.sol\":7214:7267  TransferHelper.safeTransferETH(address(owner()), fee) */\n    tag_373:\n        /* \"contracts/chains/kardiachain/RewardSystem.sol\":7277:7322  TransferHelper.safeTransferETH(user, userEth) */\n      tag_375\n        /* \"contracts/chains/kardiachain/RewardSystem.sol\":7308:7312  user */\n      dup5\n        /* \"contracts/chains/kardiachain/RewardSystem.sol\":7314:7321  userEth */\n      dup4\n        /* \"contracts/chains/kardiachain/RewardSystem.sol\":7277:7307  TransferHelper.safeTransferETH */\n      tag_290\n        /* \"contracts/chains/kardiachain/RewardSystem.sol\":7277:7322  TransferHelper.safeTransferETH(user, userEth) */\n      jump\t// in\n    tag_375:\n        /* \"contracts/chains/kardiachain/RewardSystem.sol\":7367:7370  fee */\n      dup1\n        /* \"contracts/chains/kardiachain/RewardSystem.sol\":7358:7365  userEth */\n      dup3\n        /* \"contracts/chains/kardiachain/RewardSystem.sol\":7352:7356  user */\n      dup6\n      sub(shl(0xa0, 0x01), 0x01)\n        /* \"contracts/chains/kardiachain/RewardSystem.sol\":7337:7371  SentRewardsETH(user, userEth, fee) */\n      and\n      0x75b2eac24930bf6a8227dbe172d34480e56be5c6994435067628424190d53431\n      mload(0x40)\n      mload(0x40)\n      dup1\n      swap2\n      sub\n      swap1\n      log4\n        /* \"contracts/chains/kardiachain/RewardSystem.sol\":6472:7378  {... */\n      pop\n      pop\n      pop\n        /* \"contracts/chains/kardiachain/RewardSystem.sol\":6400:7378  function sendRewardAsEth(uint256 amount, address user) public onlyOwner {... */\n      pop\n      pop\n      jump\t// out\n        /* \"@openzeppelin/contracts/access/Ownable.sol\":1846:2035  function transferOwnership(address newOwner) public virtual onlyOwner {... */\n    tag_161:\n        /* \"@openzeppelin/contracts/access/Ownable.sol\":1019:1026  address */\n      0x00\n        /* \"@openzeppelin/contracts/access/Ownable.sol\":1045:1051  _owner */\n      sload\n      sub(shl(0xa0, 0x01), 0x01)\n      and\n        /* \"@openzeppelin/contracts/utils/Context.sol\":665:675  msg.sender */\n      caller\n        /* \"@openzeppelin/contracts/access/Ownable.sol\":1185:1208  owner() == _msgSender() */\n      eq\n        /* \"@openzeppelin/contracts/access/Ownable.sol\":1177:1245  require(owner() == _msgSender(), \"Ownable: caller is not the owner\") */\n      tag_379\n      jumpi\n      mload(0x40)\n      shl(0xe5, 0x461bcd)\n      dup2\n      mstore\n      0x04\n      add\n      tag_191\n      swap1\n      tag_218\n      jump\t// in\n    tag_379:\n      sub(shl(0xa0, 0x01), 0x01)\n        /* \"@openzeppelin/contracts/access/Ownable.sol\":1934:1956  newOwner != address(0) */\n      dup2\n      and\n        /* \"@openzeppelin/contracts/access/Ownable.sol\":1926:1999  require(newOwner != address(0), \"Ownable: new owner is the zero address\") */\n      tag_382\n      jumpi\n      mload(0x40)\n      shl(0xe5, 0x461bcd)\n      dup2\n      mstore\n        /* \"#utility.yul\":4990:4992   */\n      0x20\n        /* \"@openzeppelin/contracts/access/Ownable.sol\":1926:1999  require(newOwner != address(0), \"Ownable: new owner is the zero address\") */\n      0x04\n      dup3\n      add\n        /* \"#utility.yul\":4972:4993   */\n      mstore\n        /* \"#utility.yul\":5029:5031   */\n      0x26\n        /* \"#utility.yul\":5009:5027   */\n      0x24\n      dup3\n      add\n        /* \"#utility.yul\":5002:5032   */\n      mstore\n        /* \"#utility.yul\":5068:5102   */\n      0x4f776e61626c653a206e6577206f776e657220697320746865207a65726f2061\n        /* \"#utility.yul\":5048:5066   */\n      0x44\n      dup3\n      add\n        /* \"#utility.yul\":5041:5103   */\n      mstore\n      shl(0xd0, 0x646472657373)\n        /* \"#utility.yul\":5119:5137   */\n      0x64\n      dup3\n      add\n        /* \"#utility.yul\":5112:5148   */\n      mstore\n        /* \"#utility.yul\":5165:5184   */\n      0x84\n      add\n        /* \"@openzeppelin/contracts/access/Ownable.sol\":1926:1999  require(newOwner != address(0), \"Ownable: new owner is the zero address\") */\n      tag_191\n        /* \"#utility.yul\":4788:5190   */\n      jump\n        /* \"@openzeppelin/contracts/access/Ownable.sol\":1926:1999  require(newOwner != address(0), \"Ownable: new owner is the zero address\") */\n    tag_382:\n        /* \"@openzeppelin/contracts/access/Ownable.sol\":2009:2028  _setOwner(newOwner) */\n      tag_385\n        /* \"@openzeppelin/contracts/access/Ownable.sol\":2019:2027  newOwner */\n      dup2\n        /* \"@openzeppelin/contracts/access/Ownable.sol\":2009:2018  _setOwner */\n      tag_257\n        /* \"@openzeppelin/contracts/access/Ownable.sol\":2009:2028  _setOwner(newOwner) */\n      jump\t// in\n    tag_385:\n        /* \"@openzeppelin/contracts/access/Ownable.sol\":1846:2035  function transferOwnership(address newOwner) public virtual onlyOwner {... */\n      pop\n      jump\t// out\n        /* \"contracts/libraries/TimeLock.sol\":3627:3751  function setTimelockEnabled() public onlyMaintainerOrOwner {... */\n    tag_164:\n        /* \"contracts/libraries/TimeLock.sol\":2264:2274  msg.sender */\n      caller\n        /* \"contracts/libraries/TimeLock.sol\":2253:2260  owner() */\n      tag_387\n        /* \"@openzeppelin/contracts/access/Ownable.sol\":1019:1026  address */\n      0x00\n        /* \"@openzeppelin/contracts/access/Ownable.sol\":1045:1051  _owner */\n      sload\n      sub(shl(0xa0, 0x01), 0x01)\n      and\n      swap1\n        /* \"@openzeppelin/contracts/access/Ownable.sol\":973:1058  function owner() public view virtual returns (address) {... */\n      jump\n        /* \"contracts/libraries/TimeLock.sol\":2253:2260  owner() */\n    tag_387:\n      sub(shl(0xa0, 0x01), 0x01)\n        /* \"contracts/libraries/TimeLock.sol\":2253:2274  owner() == msg.sender */\n      and\n      eq\n        /* \"contracts/libraries/TimeLock.sol\":2253:2303  owner() == msg.sender || _maintainer == msg.sender */\n      dup1\n      tag_388\n      jumpi\n      pop\n        /* \"contracts/libraries/TimeLock.sol\":2278:2289  _maintainer */\n      and(sub(shl(0xa0, 0x01), 0x01), sload(0x02))\n        /* \"contracts/libraries/TimeLock.sol\":2293:2303  msg.sender */\n      caller\n        /* \"contracts/libraries/TimeLock.sol\":2278:2303  _maintainer == msg.sender */\n      eq\n        /* \"contracts/libraries/TimeLock.sol\":2253:2303  owner() == msg.sender || _maintainer == msg.sender */\n    tag_388:\n        /* \"contracts/libraries/TimeLock.sol\":2245:2361  require(owner() == msg.sender || _maintainer == msg.sender, \"operator: caller is not allowed to call this function\") */\n      tag_389\n      jumpi\n      mload(0x40)\n      shl(0xe5, 0x461bcd)\n      dup2\n      mstore\n      0x04\n      add\n      tag_191\n      swap1\n      tag_192\n      jump\t// in\n    tag_389:\n        /* \"contracts/libraries/TimeLock.sol\":3696:3709  isLockEnabled */\n      0x00\n        /* \"contracts/libraries/TimeLock.sol\":3696:3716  isLockEnabled = true */\n      dup1\n      sload\n      not(shl(0xa0, 0xff))\n      and\n      shl(0xa0, 0x01)\n      or\n      dup2\n      sstore\n        /* \"contracts/libraries/TimeLock.sol\":3731:3744  EnabledLock() */\n      mload(0x40)\n      0x2c08b62bfac9a1b19bb1dec9323f1ce01696a77948b256abf3603d30f25a864e\n      swap2\n        /* \"contracts/libraries/TimeLock.sol\":3696:3709  isLockEnabled */\n      swap1\n        /* \"contracts/libraries/TimeLock.sol\":3731:3744  EnabledLock() */\n      log1\n        /* \"contracts/libraries/TimeLock.sol\":3627:3751  function setTimelockEnabled() public onlyMaintainerOrOwner {... */\n      jump\t// out\n        /* \"contracts/chains/kardiachain/RewardSystem.sol\":3891:4217  function updateRewardToken(IERC20 rewardToken) public onlyOwner locked(\"updateRewardToken\") {... */\n    tag_174:\n        /* \"@openzeppelin/contracts/access/Ownable.sol\":1019:1026  address */\n      0x00\n        /* \"@openzeppelin/contracts/access/Ownable.sol\":1045:1051  _owner */\n      sload\n      sub(shl(0xa0, 0x01), 0x01)\n      and\n        /* \"@openzeppelin/contracts/utils/Context.sol\":665:675  msg.sender */\n      caller\n        /* \"@openzeppelin/contracts/access/Ownable.sol\":1185:1208  owner() == _msgSender() */\n      eq\n        /* \"@openzeppelin/contracts/access/Ownable.sol\":1177:1245  require(owner() == _msgSender(), \"Ownable: caller is not the owner\") */\n      tag_395\n      jumpi\n      mload(0x40)\n      shl(0xe5, 0x461bcd)\n      dup2\n      mstore\n      0x04\n      add\n      tag_191\n      swap1\n      tag_218\n      jump\t// in\n    tag_395:\n        /* \"contracts/libraries/TimeLock.sol\":1945:2188  modifier locked(string memory _fn) {... */\n      0x40\n      dup1\n      mload\n      dup1\n      dup3\n      add\n      swap1\n      swap2\n      mstore\n      0x11\n      dup2\n      mstore\n      shl(0x79, 0x3ab83230ba32a932bbb0b9322a37b5b2b7)\n      0x20\n      dup3\n      add\n      mstore\n      0x00\n        /* \"contracts/libraries/TimeLock.sol\":1999:2012  isLockEnabled */\n      sload\n      shl(0xa0, 0x01)\n      swap1\n      div\n      0xff\n      and\n        /* \"contracts/libraries/TimeLock.sol\":1998:2012  !isLockEnabled */\n      iszero\n      dup1\n        /* \"contracts/libraries/TimeLock.sol\":1998:2120  !isLockEnabled || (timelock[_fn] != 0 && timelock[_fn] <= block.timestamp && timelock[_fn] + _TIMELOCK >= block.timestamp) */\n      tag_402\n      jumpi\n      pop\n        /* \"contracts/libraries/TimeLock.sol\":2017:2025  timelock */\n      0x01\n        /* \"contracts/libraries/TimeLock.sol\":2026:2029  _fn */\n      dup2\n        /* \"contracts/libraries/TimeLock.sol\":2017:2030  timelock[_fn] */\n      mload(0x40)\n      tag_399\n      swap2\n      swap1\n      tag_444\n      jump\t// in\n    tag_399:\n      swap1\n      dup2\n      mstore\n      0x20\n      add\n      mload(0x40)\n      dup1\n      swap2\n      sub\n      swap1\n      keccak256\n      sload\n        /* \"contracts/libraries/TimeLock.sol\":2034:2035  0 */\n      0x00\n        /* \"contracts/libraries/TimeLock.sol\":2017:2035  timelock[_fn] != 0 */\n      eq\n      iszero\n        /* \"contracts/libraries/TimeLock.sol\":2017:2071  timelock[_fn] != 0 && timelock[_fn] <= block.timestamp */\n      dup1\n      iszero\n      tag_400\n      jumpi\n      pop\n        /* \"contracts/libraries/TimeLock.sol\":2056:2071  block.timestamp */\n      timestamp\n        /* \"contracts/libraries/TimeLock.sol\":2039:2047  timelock */\n      0x01\n        /* \"contracts/libraries/TimeLock.sol\":2048:2051  _fn */\n      dup3\n        /* \"contracts/libraries/TimeLock.sol\":2039:2052  timelock[_fn] */\n      mload(0x40)\n      tag_401\n      swap2\n      swap1\n      tag_444\n      jump\t// in\n    tag_401:\n      swap1\n      dup2\n      mstore\n      0x20\n      add\n      mload(0x40)\n      dup1\n      swap2\n      sub\n      swap1\n      keccak256\n      sload\n        /* \"contracts/libraries/TimeLock.sol\":2039:2071  timelock[_fn] <= block.timestamp */\n      gt\n      iszero\n        /* \"contracts/libraries/TimeLock.sol\":2017:2071  timelock[_fn] != 0 && timelock[_fn] <= block.timestamp */\n    tag_400:\n        /* \"contracts/libraries/TimeLock.sol\":2017:2119  timelock[_fn] != 0 && timelock[_fn] <= block.timestamp && timelock[_fn] + _TIMELOCK >= block.timestamp */\n      dup1\n      iszero\n      tag_402\n      jumpi\n      pop\n        /* \"contracts/libraries/TimeLock.sol\":2104:2119  block.timestamp */\n      timestamp\n        /* \"contracts/libraries/TimeLock.sol\":861:867  1 days */\n      0x015180\n        /* \"contracts/libraries/TimeLock.sol\":2075:2083  timelock */\n      0x01\n        /* \"contracts/libraries/TimeLock.sol\":2084:2087  _fn */\n      dup4\n        /* \"contracts/libraries/TimeLock.sol\":2075:2088  timelock[_fn] */\n      mload(0x40)\n      tag_403\n      swap2\n      swap1\n      tag_444\n      jump\t// in\n    tag_403:\n      swap1\n      dup2\n      mstore\n      0x20\n      add\n      mload(0x40)\n      dup1\n      swap2\n      sub\n      swap1\n      keccak256\n      sload\n        /* \"contracts/libraries/TimeLock.sol\":2075:2100  timelock[_fn] + _TIMELOCK */\n      tag_404\n      swap2\n      swap1\n      tag_202\n      jump\t// in\n    tag_404:\n        /* \"contracts/libraries/TimeLock.sol\":2075:2119  timelock[_fn] + _TIMELOCK >= block.timestamp */\n      lt\n      iszero\n        /* \"contracts/libraries/TimeLock.sol\":2017:2119  timelock[_fn] != 0 && timelock[_fn] <= block.timestamp && timelock[_fn] + _TIMELOCK >= block.timestamp */\n    tag_402:\n        /* \"contracts/libraries/TimeLock.sol\":1990:2143  require(!isLockEnabled || (timelock[_fn] != 0 && timelock[_fn] <= block.timestamp && timelock[_fn] + _TIMELOCK >= block.timestamp), \"Function is locked\") */\n      tag_405\n      jumpi\n      mload(0x40)\n      shl(0xe5, 0x461bcd)\n      dup2\n      mstore\n      0x04\n      add\n      tag_191\n      swap1\n      tag_205\n      jump\t// in\n    tag_405:\n        /* \"contracts/chains/kardiachain/RewardSystem.sol\":4016:4028  _rewardToken */\n      sload(0x08)\n      sub(shl(0xa0, 0x01), 0x01)\n        /* \"contracts/chains/kardiachain/RewardSystem.sol\":4001:4028  rewardToken != _rewardToken */\n      dup4\n      dup2\n      and\n        /* \"contracts/chains/kardiachain/RewardSystem.sol\":4016:4028  _rewardToken */\n      swap2\n      and\n        /* \"contracts/chains/kardiachain/RewardSystem.sol\":4001:4028  rewardToken != _rewardToken */\n      eq\n      iszero\n        /* \"contracts/chains/kardiachain/RewardSystem.sol\":3993:4096  require(rewardToken != _rewardToken, \"ABOAT:updateRewardToken: You can't update the exact same tokens\") */\n      tag_408\n      jumpi\n      mload(0x40)\n      shl(0xe5, 0x461bcd)\n      dup2\n      mstore\n        /* \"#utility.yul\":10977:10979   */\n      0x20\n        /* \"contracts/chains/kardiachain/RewardSystem.sol\":3993:4096  require(rewardToken != _rewardToken, \"ABOAT:updateRewardToken: You can't update the exact same tokens\") */\n      0x04\n      dup3\n      add\n        /* \"#utility.yul\":10959:10980   */\n      mstore\n        /* \"#utility.yul\":11016:11018   */\n      0x3f\n        /* \"#utility.yul\":10996:11014   */\n      0x24\n      dup3\n      add\n        /* \"#utility.yul\":10989:11019   */\n      mstore\n        /* \"#utility.yul\":11055:11089   */\n      0x41424f41543a757064617465526577617264546f6b656e3a20596f752063616e\n        /* \"#utility.yul\":11035:11053   */\n      0x44\n      dup3\n      add\n        /* \"#utility.yul\":11028:11090   */\n      mstore\n        /* \"#utility.yul\":11126:11159   */\n      0x277420757064617465207468652065786163742073616d6520746f6b656e7300\n        /* \"#utility.yul\":11106:11124   */\n      0x64\n      dup3\n      add\n        /* \"#utility.yul\":11099:11160   */\n      mstore\n        /* \"#utility.yul\":11177:11196   */\n      0x84\n      add\n        /* \"contracts/chains/kardiachain/RewardSystem.sol\":3993:4096  require(rewardToken != _rewardToken, \"ABOAT:updateRewardToken: You can't update the exact same tokens\") */\n      tag_191\n        /* \"#utility.yul\":10775:11202   */\n      jump\n        /* \"contracts/chains/kardiachain/RewardSystem.sol\":3993:4096  require(rewardToken != _rewardToken, \"ABOAT:updateRewardToken: You can't update the exact same tokens\") */\n    tag_408:\n        /* \"contracts/chains/kardiachain/RewardSystem.sol\":4138:4150  _rewardToken */\n      sload(0x08)\n        /* \"contracts/chains/kardiachain/RewardSystem.sol\":4111:4174  ChangedRewardToken(address(_rewardToken), address(rewardToken)) */\n      mload(0x40)\n      sub(shl(0xa0, 0x01), 0x01)\n      dup1\n      dup6\n      and\n      swap3\n        /* \"contracts/chains/kardiachain/RewardSystem.sol\":4138:4150  _rewardToken */\n      and\n      swap1\n        /* \"contracts/chains/kardiachain/RewardSystem.sol\":4111:4174  ChangedRewardToken(address(_rewardToken), address(rewardToken)) */\n      0xcb89265f21b9fc8710e9d9e42bbb37af1eb207454deca6d5e36787be2367c1d6\n      swap1\n        /* \"contracts/chains/kardiachain/RewardSystem.sol\":4138:4150  _rewardToken */\n      0x00\n      swap1\n        /* \"contracts/chains/kardiachain/RewardSystem.sol\":4111:4174  ChangedRewardToken(address(_rewardToken), address(rewardToken)) */\n      log3\n        /* \"contracts/chains/kardiachain/RewardSystem.sol\":4184:4196  _rewardToken */\n      0x08\n        /* \"contracts/chains/kardiachain/RewardSystem.sol\":4184:4210  _rewardToken = rewardToken */\n      dup1\n      sload\n      not(sub(shl(0xa0, 0x01), 0x01))\n      and\n      sub(shl(0xa0, 0x01), 0x01)\n      dup5\n      and\n      or\n      swap1\n      sstore\n        /* \"contracts/libraries/TimeLock.sol\":2164:2181  lockFunction(_fn) */\n      tag_211\n        /* \"contracts/libraries/TimeLock.sol\":2177:2180  _fn */\n      dup2\n        /* \"contracts/libraries/TimeLock.sol\":2164:2176  lockFunction */\n      tag_105\n        /* \"contracts/libraries/TimeLock.sol\":2164:2181  lockFunction(_fn) */\n      jump\t// in\n        /* \"@openzeppelin/contracts/access/Ownable.sol\":2041:2210  function _setOwner(address newOwner) private {... */\n    tag_257:\n        /* \"@openzeppelin/contracts/access/Ownable.sol\":2096:2112  address oldOwner */\n      0x00\n        /* \"@openzeppelin/contracts/access/Ownable.sol\":2115:2121  _owner */\n      dup1\n      sload\n      sub(shl(0xa0, 0x01), 0x01)\n        /* \"@openzeppelin/contracts/access/Ownable.sol\":2131:2148  _owner = newOwner */\n      dup4\n      dup2\n      and\n      not(sub(shl(0xa0, 0x01), 0x01))\n      dup4\n      and\n      dup2\n      or\n      dup5\n      sstore\n        /* \"@openzeppelin/contracts/access/Ownable.sol\":2163:2203  OwnershipTransferred(oldOwner, newOwner) */\n      mload(0x40)\n        /* \"@openzeppelin/contracts/access/Ownable.sol\":2115:2121  _owner */\n      swap2\n      swap1\n      swap3\n      and\n      swap3\n      dup4\n      swap2\n        /* \"@openzeppelin/contracts/access/Ownable.sol\":2163:2203  OwnershipTransferred(oldOwner, newOwner) */\n      0x8be0079c531659141344cd1fd0a4f28419497f9722a3daafe3b4186f6b6457e0\n      swap2\n        /* \"@openzeppelin/contracts/access/Ownable.sol\":2096:2112  address oldOwner */\n      swap1\n        /* \"@openzeppelin/contracts/access/Ownable.sol\":2163:2203  OwnershipTransferred(oldOwner, newOwner) */\n      log3\n        /* \"@openzeppelin/contracts/access/Ownable.sol\":2086:2210  {... */\n      pop\n        /* \"@openzeppelin/contracts/access/Ownable.sol\":2041:2210  function _setOwner(address newOwner) private {... */\n      pop\n      jump\t// out\n        /* \"@openzeppelin/contracts/utils/math/SafeMath.sol\":3039:3135  function sub(uint256 a, uint256 b) internal pure returns (uint256) {... */\n    tag_284:\n        /* \"@openzeppelin/contracts/utils/math/SafeMath.sol\":3097:3104  uint256 */\n      0x00\n        /* \"@openzeppelin/contracts/utils/math/SafeMath.sol\":3123:3128  a - b */\n      tag_415\n        /* \"@openzeppelin/contracts/utils/math/SafeMath.sol\":3127:3128  b */\n      dup3\n        /* \"@openzeppelin/contracts/utils/math/SafeMath.sol\":3123:3124  a */\n      dup5\n        /* \"@openzeppelin/contracts/utils/math/SafeMath.sol\":3123:3128  a - b */\n      tag_416\n      jump\t// in\n    tag_415:\n        /* \"@openzeppelin/contracts/utils/math/SafeMath.sol\":3116:3128  return a - b */\n      swap4\n        /* \"@openzeppelin/contracts/utils/math/SafeMath.sol\":3039:3135  function sub(uint256 a, uint256 b) internal pure returns (uint256) {... */\n      swap3\n      pop\n      pop\n      pop\n      jump\t// out\n        /* \"contracts/chains/kardiachain/RewardSystem.sol\":7388:7931  function swapTokensForEth(uint256 tokenAmount) private {... */\n    tag_286:\n        /* \"contracts/chains/kardiachain/RewardSystem.sol\":7534:7550  new address[](2) */\n      0x40\n      dup1\n      mload\n        /* \"contracts/chains/kardiachain/RewardSystem.sol\":7548:7549  2 */\n      0x02\n        /* \"contracts/chains/kardiachain/RewardSystem.sol\":7534:7550  new address[](2) */\n      dup1\n      dup3\n      mstore\n      0x60\n      dup3\n      add\n      dup4\n      mstore\n        /* \"contracts/chains/kardiachain/RewardSystem.sol\":7510:7531  address[] memory path */\n      0x00\n      swap3\n        /* \"contracts/chains/kardiachain/RewardSystem.sol\":7534:7550  new address[](2) */\n      0x20\n      dup4\n      add\n      swap1\n      dup1\n      calldatasize\n      dup4\n      calldatacopy\n      pop\n      pop\n        /* \"contracts/chains/kardiachain/RewardSystem.sol\":7578:7590  _rewardToken */\n      sload(0x08)\n        /* \"contracts/chains/kardiachain/RewardSystem.sol\":7560:7567  path[0] */\n      dup3\n      mload\n      swap3\n      swap4\n      pop\n      sub(shl(0xa0, 0x01), 0x01)\n        /* \"contracts/chains/kardiachain/RewardSystem.sol\":7578:7590  _rewardToken */\n      and\n      swap2\n        /* \"contracts/chains/kardiachain/RewardSystem.sol\":7560:7567  path[0] */\n      dup4\n      swap2\n      pop\n        /* \"contracts/chains/kardiachain/RewardSystem.sol\":7578:7590  _rewardToken */\n      0x00\n      swap1\n        /* \"contracts/chains/kardiachain/RewardSystem.sol\":7560:7567  path[0] */\n      tag_423\n      jumpi\n      tag_423\n      tag_424\n      jump\t// in\n    tag_423:\n      sub(shl(0xa0, 0x01), 0x01)\n        /* \"contracts/chains/kardiachain/RewardSystem.sol\":7560:7591  path[0] = address(_rewardToken) */\n      swap3\n      dup4\n      and\n        /* \"contracts/chains/kardiachain/RewardSystem.sol\":7560:7567  path[0] */\n      0x20\n      swap2\n      dup3\n      mul\n      swap3\n      swap1\n      swap3\n      add\n      add\n        /* \"contracts/chains/kardiachain/RewardSystem.sol\":7560:7591  path[0] = address(_rewardToken) */\n      mstore\n        /* \"contracts/chains/kardiachain/RewardSystem.sol\":7611:7616  _weth */\n      sload(0x0b)\n        /* \"contracts/chains/kardiachain/RewardSystem.sol\":7601:7608  path[1] */\n      dup3\n      mload\n        /* \"contracts/chains/kardiachain/RewardSystem.sol\":7611:7616  _weth */\n      swap2\n      and\n      swap1\n        /* \"contracts/chains/kardiachain/RewardSystem.sol\":7601:7605  path */\n      dup3\n      swap1\n        /* \"contracts/chains/kardiachain/RewardSystem.sol\":7611:7616  _weth */\n      0x01\n      swap1\n        /* \"contracts/chains/kardiachain/RewardSystem.sol\":7601:7608  path[1] */\n      dup2\n      lt\n      tag_426\n      jumpi\n      tag_426\n      tag_424\n      jump\t// in\n    tag_426:\n      sub(shl(0xa0, 0x01), 0x01)\n        /* \"contracts/chains/kardiachain/RewardSystem.sol\":7601:7616  path[1] = _weth */\n      swap3\n      dup4\n      and\n        /* \"contracts/chains/kardiachain/RewardSystem.sol\":7601:7608  path[1] */\n      0x20\n      swap2\n      dup3\n      mul\n      swap3\n      swap1\n      swap3\n      add\n      add\n        /* \"contracts/chains/kardiachain/RewardSystem.sol\":7601:7616  path[1] = _weth */\n      mstore\n        /* \"contracts/chains/kardiachain/RewardSystem.sol\":7627:7639  _rewardToken */\n      sload(0x08)\n        /* \"contracts/chains/kardiachain/RewardSystem.sol\":7656:7663  _router */\n      sload(0x0c)\n        /* \"contracts/chains/kardiachain/RewardSystem.sol\":7627:7678  _rewardToken.approve(address(_router), tokenAmount) */\n      mload(0x40)\n      shl(0xe0, 0x095ea7b3)\n      dup2\n      mstore\n        /* \"contracts/chains/kardiachain/RewardSystem.sol\":7656:7663  _router */\n      swap1\n      dup4\n      and\n        /* \"contracts/chains/kardiachain/RewardSystem.sol\":7627:7678  _rewardToken.approve(address(_router), tokenAmount) */\n      0x04\n      dup3\n      add\n        /* \"#utility.yul\":4039:4090   */\n      mstore\n        /* \"#utility.yul\":4106:4124   */\n      0x24\n      dup2\n      add\n        /* \"#utility.yul\":4099:4133   */\n      dup6\n      swap1\n      mstore\n        /* \"contracts/chains/kardiachain/RewardSystem.sol\":7627:7639  _rewardToken */\n      swap2\n      and\n      swap1\n        /* \"contracts/chains/kardiachain/RewardSystem.sol\":7627:7647  _rewardToken.approve */\n      0x095ea7b3\n      swap1\n        /* \"#utility.yul\":4012:4030   */\n      0x44\n      add\n        /* \"contracts/chains/kardiachain/RewardSystem.sol\":7627:7678  _rewardToken.approve(address(_router), tokenAmount) */\n      0x20\n      mload(0x40)\n      dup1\n      dup4\n      sub\n      dup2\n      0x00\n      dup8\n      dup1\n      extcodesize\n      iszero\n      dup1\n      iszero\n      tag_429\n      jumpi\n      0x00\n      dup1\n      revert\n    tag_429:\n      pop\n      gas\n      call\n      iszero\n      dup1\n      iszero\n      tag_431\n      jumpi\n      returndatasize\n      0x00\n      dup1\n      returndatacopy\n      revert(0x00, returndatasize)\n    tag_431:\n      pop\n      pop\n      pop\n      pop\n      mload(0x40)\n      returndatasize\n      not(0x1f)\n      0x1f\n      dup3\n      add\n      and\n      dup3\n      add\n      dup1\n      0x40\n      mstore\n      pop\n      dup2\n      add\n      swap1\n      tag_432\n      swap2\n      swap1\n      tag_433\n      jump\t// in\n    tag_432:\n      pop\n        /* \"contracts/chains/kardiachain/RewardSystem.sol\":7714:7721  _router */\n      sload(0x0c)\n        /* \"contracts/chains/kardiachain/RewardSystem.sol\":7714:7924  _router.swapExactTokensForKAISupportingFeeOnTransferTokens(... */\n      mload(0x40)\n      shl(0xe0, 0xb6a046b3)\n      dup2\n      mstore\n      sub(shl(0xa0, 0x01), 0x01)\n        /* \"contracts/chains/kardiachain/RewardSystem.sol\":7714:7721  _router */\n      swap1\n      swap2\n      and\n      swap1\n        /* \"contracts/chains/kardiachain/RewardSystem.sol\":7714:7772  _router.swapExactTokensForKAISupportingFeeOnTransferTokens */\n      0xb6a046b3\n      swap1\n        /* \"contracts/chains/kardiachain/RewardSystem.sol\":7714:7924  _router.swapExactTokensForKAISupportingFeeOnTransferTokens(... */\n      tag_434\n      swap1\n        /* \"contracts/chains/kardiachain/RewardSystem.sol\":7786:7797  tokenAmount */\n      dup6\n      swap1\n        /* \"contracts/chains/kardiachain/RewardSystem.sol\":7714:7721  _router */\n      0x00\n      swap1\n        /* \"contracts/chains/kardiachain/RewardSystem.sol\":7854:7858  path */\n      dup7\n      swap1\n        /* \"contracts/chains/kardiachain/RewardSystem.sol\":7880:7884  this */\n      address\n      swap1\n        /* \"contracts/chains/kardiachain/RewardSystem.sol\":7899:7914  block.timestamp */\n      timestamp\n      swap1\n        /* \"contracts/chains/kardiachain/RewardSystem.sol\":7714:7924  _router.swapExactTokensForKAISupportingFeeOnTransferTokens(... */\n      0x04\n      add\n      tag_435\n      jump\t// in\n    tag_434:\n      0x00\n      mload(0x40)\n      dup1\n      dup4\n      sub\n      dup2\n      0x00\n      dup8\n      dup1\n      extcodesize\n      iszero\n      dup1\n      iszero\n      tag_436\n      jumpi\n      0x00\n      dup1\n      revert\n    tag_436:\n      pop\n      gas\n      call\n      iszero\n      dup1\n      iszero\n      tag_438\n      jumpi\n      returndatasize\n      0x00\n      dup1\n      returndatacopy\n      revert(0x00, returndatasize)\n    tag_438:\n      pop\n      pop\n      pop\n      pop\n        /* \"contracts/chains/kardiachain/RewardSystem.sol\":7443:7931  {... */\n      pop\n        /* \"contracts/chains/kardiachain/RewardSystem.sol\":7388:7931  function swapTokensForEth(uint256 tokenAmount) private {... */\n      pop\n      jump\t// out\n        /* \"contracts/libraries/TransferHelper.sol\":1026:1274  function safeTransferETH(address to, uint256 value) internal {... */\n    tag_290:\n        /* \"contracts/libraries/TransferHelper.sol\":1138:1150  new bytes(0) */\n      0x40\n      dup1\n      mload\n        /* \"contracts/libraries/TransferHelper.sol\":1098:1110  bool success */\n      0x00\n        /* \"contracts/libraries/TransferHelper.sol\":1138:1150  new bytes(0) */\n      dup1\n      dup3\n      mstore\n      0x20\n      dup3\n      add\n      swap1\n      swap3\n      mstore\n      sub(shl(0xa0, 0x01), 0x01)\n        /* \"contracts/libraries/TransferHelper.sol\":1116:1123  to.call */\n      dup5\n      and\n      swap1\n        /* \"contracts/libraries/TransferHelper.sol\":1131:1136  value */\n      dup4\n      swap1\n        /* \"contracts/libraries/TransferHelper.sol\":1116:1151  to.call{value: value}(new bytes(0)) */\n      mload(0x40)\n      tag_443\n      swap2\n      swap1\n      tag_444\n      jump\t// in\n    tag_443:\n      0x00\n      mload(0x40)\n      dup1\n      dup4\n      sub\n      dup2\n      dup6\n      dup8\n      gas\n      call\n      swap3\n      pop\n      pop\n      pop\n      returndatasize\n      dup1\n      0x00\n      dup2\n      eq\n      tag_447\n      jumpi\n      mload(0x40)\n      swap2\n      pop\n      and(add(returndatasize, 0x3f), not(0x1f))\n      dup3\n      add\n      0x40\n      mstore\n      returndatasize\n      dup3\n      mstore\n      returndatasize\n      0x00\n      0x20\n      dup5\n      add\n      returndatacopy\n      jump(tag_446)\n    tag_447:\n      0x60\n      swap2\n      pop\n    tag_446:\n      pop\n        /* \"contracts/libraries/TransferHelper.sol\":1097:1151  (bool success, ) = to.call{value: value}(new bytes(0)) */\n      pop\n      swap1\n      pop\n        /* \"contracts/libraries/TransferHelper.sol\":1182:1189  success */\n      dup1\n        /* \"contracts/libraries/TransferHelper.sol\":1161:1267  require(... */\n      tag_448\n      jumpi\n      mload(0x40)\n      shl(0xe5, 0x461bcd)\n      dup2\n      mstore\n        /* \"#utility.yul\":5820:5822   */\n      0x20\n        /* \"contracts/libraries/TransferHelper.sol\":1161:1267  require(... */\n      0x04\n      dup3\n      add\n        /* \"#utility.yul\":5802:5823   */\n      mstore\n        /* \"#utility.yul\":5859:5861   */\n      0x34\n        /* \"#utility.yul\":5839:5857   */\n      0x24\n      dup3\n      add\n        /* \"#utility.yul\":5832:5862   */\n      mstore\n        /* \"#utility.yul\":5898:5932   */\n      0x5472616e7366657248656c7065723a3a736166655472616e736665724554483a\n        /* \"#utility.yul\":5878:5896   */\n      0x44\n      dup3\n      add\n        /* \"#utility.yul\":5871:5933   */\n      mstore\n      shl(0x62, 0x08115512081d1c985b9cd9995c8819985a5b1959)\n        /* \"#utility.yul\":5949:5967   */\n      0x64\n      dup3\n      add\n        /* \"#utility.yul\":5942:5992   */\n      mstore\n        /* \"#utility.yul\":6009:6028   */\n      0x84\n      add\n        /* \"contracts/libraries/TransferHelper.sol\":1161:1267  require(... */\n      tag_191\n        /* \"#utility.yul\":5618:6034   */\n      jump\n        /* \"contracts/libraries/TransferHelper.sol\":1161:1267  require(... */\n    tag_448:\n        /* \"contracts/libraries/TransferHelper.sol\":1087:1274  {... */\n      pop\n        /* \"contracts/libraries/TransferHelper.sol\":1026:1274  function safeTransferETH(address to, uint256 value) internal {... */\n      pop\n      pop\n      jump\t// out\n        /* \"contracts/libraries/TransferHelper.sol\":210:594  function safeTransfer(... */\n    tag_292:\n        /* \"contracts/libraries/TransferHelper.sol\":382:427  abi.encodeWithSelector(0xa9059cbb, to, value) */\n      0x40\n      dup1\n      mload\n      sub(shl(0xa0, 0x01), 0x01)\n        /* \"#utility.yul\":4057:4089   */\n      dup5\n      dup2\n      and\n        /* \"contracts/libraries/TransferHelper.sol\":382:427  abi.encodeWithSelector(0xa9059cbb, to, value) */\n      0x24\n      dup4\n      add\n        /* \"#utility.yul\":4039:4090   */\n      mstore\n        /* \"#utility.yul\":4106:4124   */\n      0x44\n      dup1\n      dup4\n      add\n        /* \"#utility.yul\":4099:4133   */\n      dup6\n      swap1\n      mstore\n        /* \"contracts/libraries/TransferHelper.sol\":382:427  abi.encodeWithSelector(0xa9059cbb, to, value) */\n      dup4\n      mload\n      dup1\n      dup5\n      sub\n      swap1\n      swap2\n      add\n      dup2\n      mstore\n        /* \"#utility.yul\":4012:4030   */\n      0x64\n      swap1\n      swap3\n      add\n        /* \"contracts/libraries/TransferHelper.sol\":382:427  abi.encodeWithSelector(0xa9059cbb, to, value) */\n      dup4\n      mstore\n      0x20\n      dup3\n      add\n      dup1\n      mload\n      sub(shl(0xe0, 0x01), 0x01)\n      and\n      shl(0xe0, 0xa9059cbb)\n      or\n      swap1\n      mstore\n        /* \"contracts/libraries/TransferHelper.sol\":371:428  token.call(abi.encodeWithSelector(0xa9059cbb, to, value)) */\n      swap2\n      mload\n      0x00\n      swap3\n      dup4\n      swap3\n        /* \"contracts/libraries/TransferHelper.sol\":371:381  token.call */\n      swap1\n      dup8\n      and\n      swap2\n        /* \"contracts/libraries/TransferHelper.sol\":371:428  token.call(abi.encodeWithSelector(0xa9059cbb, to, value)) */\n      tag_453\n      swap2\n        /* \"contracts/libraries/TransferHelper.sol\":382:427  abi.encodeWithSelector(0xa9059cbb, to, value) */\n      swap1\n        /* \"contracts/libraries/TransferHelper.sol\":371:428  token.call(abi.encodeWithSelector(0xa9059cbb, to, value)) */\n      tag_444\n      jump\t// in\n    tag_453:\n      0x00\n      mload(0x40)\n      dup1\n      dup4\n      sub\n      dup2\n      0x00\n      dup7\n      gas\n      call\n      swap2\n      pop\n      pop\n      returndatasize\n      dup1\n      0x00\n      dup2\n      eq\n      tag_456\n      jumpi\n      mload(0x40)\n      swap2\n      pop\n      and(add(returndatasize, 0x3f), not(0x1f))\n      dup3\n      add\n      0x40\n      mstore\n      returndatasize\n      dup3\n      mstore\n      returndatasize\n      0x00\n      0x20\n      dup5\n      add\n      returndatacopy\n      jump(tag_455)\n    tag_456:\n      0x60\n      swap2\n      pop\n    tag_455:\n      pop\n        /* \"contracts/libraries/TransferHelper.sol\":323:428  (bool success, bytes memory data) =... */\n      swap2\n      pop\n      swap2\n      pop\n        /* \"contracts/libraries/TransferHelper.sol\":459:466  success */\n      dup2\n        /* \"contracts/libraries/TransferHelper.sol\":459:516  success && (data.length == 0 || abi.decode(data, (bool))) */\n      dup1\n      iszero\n      tag_459\n      jumpi\n      pop\n        /* \"contracts/libraries/TransferHelper.sol\":471:482  data.length */\n      dup1\n      mload\n        /* \"contracts/libraries/TransferHelper.sol\":471:487  data.length == 0 */\n      iszero\n      dup1\n        /* \"contracts/libraries/TransferHelper.sol\":471:515  data.length == 0 || abi.decode(data, (bool)) */\n      tag_459\n      jumpi\n      pop\n        /* \"contracts/libraries/TransferHelper.sol\":502:506  data */\n      dup1\n        /* \"contracts/libraries/TransferHelper.sol\":491:515  abi.decode(data, (bool)) */\n      dup1\n      0x20\n      add\n      swap1\n      mload\n      dup2\n      add\n      swap1\n      tag_459\n      swap2\n      swap1\n      tag_433\n      jump\t// in\n    tag_459:\n        /* \"contracts/libraries/TransferHelper.sol\":438:587  require(... */\n      tag_460\n      jumpi\n      mload(0x40)\n      shl(0xe5, 0x461bcd)\n      dup2\n      mstore\n        /* \"#utility.yul\":11409:11411   */\n      0x20\n        /* \"contracts/libraries/TransferHelper.sol\":438:587  require(... */\n      0x04\n      dup3\n      add\n        /* \"#utility.yul\":11391:11412   */\n      mstore\n        /* \"#utility.yul\":11448:11450   */\n      0x2d\n        /* \"#utility.yul\":11428:11446   */\n      0x24\n      dup3\n      add\n        /* \"#utility.yul\":11421:11451   */\n      mstore\n        /* \"#utility.yul\":11487:11521   */\n      0x5472616e7366657248656c7065723a3a736166655472616e736665723a207472\n        /* \"#utility.yul\":11467:11485   */\n      0x44\n      dup3\n      add\n        /* \"#utility.yul\":11460:11522   */\n      mstore\n      shl(0x9a, 0x185b9cd9995c8819985a5b1959)\n        /* \"#utility.yul\":11538:11556   */\n      0x64\n      dup3\n      add\n        /* \"#utility.yul\":11531:11574   */\n      mstore\n        /* \"#utility.yul\":11591:11610   */\n      0x84\n      add\n        /* \"contracts/libraries/TransferHelper.sol\":438:587  require(... */\n      tag_191\n        /* \"#utility.yul\":11207:11616   */\n      jump\n        /* \"contracts/libraries/TransferHelper.sol\":438:587  require(... */\n    tag_460:\n        /* \"contracts/libraries/TransferHelper.sol\":313:594  {... */\n      pop\n      pop\n        /* \"contracts/libraries/TransferHelper.sol\":210:594  function safeTransfer(... */\n      pop\n      pop\n      pop\n      jump\t// out\n        /* \"@openzeppelin/contracts/utils/math/SafeMath.sol\":3767:3863  function div(uint256 a, uint256 b) internal pure returns (uint256) {... */\n    tag_371:\n        /* \"@openzeppelin/contracts/utils/math/SafeMath.sol\":3825:3832  uint256 */\n      0x00\n        /* \"@openzeppelin/contracts/utils/math/SafeMath.sol\":3851:3856  a / b */\n      tag_415\n        /* \"@openzeppelin/contracts/utils/math/SafeMath.sol\":3855:3856  b */\n      dup3\n        /* \"@openzeppelin/contracts/utils/math/SafeMath.sol\":3851:3852  a */\n      dup5\n        /* \"@openzeppelin/contracts/utils/math/SafeMath.sol\":3851:3856  a / b */\n      tag_465\n      jump\t// in\n        /* \"#utility.yul\":14:261   */\n    tag_60:\n        /* \"#utility.yul\":73:79   */\n      0x00\n        /* \"#utility.yul\":126:128   */\n      0x20\n        /* \"#utility.yul\":114:123   */\n      dup3\n        /* \"#utility.yul\":105:112   */\n      dup5\n        /* \"#utility.yul\":101:124   */\n      sub\n        /* \"#utility.yul\":97:129   */\n      slt\n        /* \"#utility.yul\":94:146   */\n      iszero\n      tag_468\n      jumpi\n        /* \"#utility.yul\":142:143   */\n      0x00\n        /* \"#utility.yul\":139:140   */\n      dup1\n        /* \"#utility.yul\":132:144   */\n      revert\n        /* \"#utility.yul\":94:146   */\n    tag_468:\n        /* \"#utility.yul\":181:190   */\n      dup2\n        /* \"#utility.yul\":168:191   */\n      calldataload\n        /* \"#utility.yul\":200:231   */\n      tag_415\n        /* \"#utility.yul\":225:230   */\n      dup2\n        /* \"#utility.yul\":200:231   */\n      tag_470\n      jump\t// in\n        /* \"#utility.yul\":266:543   */\n    tag_433:\n        /* \"#utility.yul\":333:339   */\n      0x00\n        /* \"#utility.yul\":386:388   */\n      0x20\n        /* \"#utility.yul\":374:383   */\n      dup3\n        /* \"#utility.yul\":365:372   */\n      dup5\n        /* \"#utility.yul\":361:384   */\n      sub\n        /* \"#utility.yul\":357:389   */\n      slt\n        /* \"#utility.yul\":354:406   */\n      iszero\n      tag_472\n      jumpi\n        /* \"#utility.yul\":402:403   */\n      0x00\n        /* \"#utility.yul\":399:400   */\n      dup1\n        /* \"#utility.yul\":392:404   */\n      revert\n        /* \"#utility.yul\":354:406   */\n    tag_472:\n        /* \"#utility.yul\":434:443   */\n      dup2\n        /* \"#utility.yul\":428:444   */\n      mload\n        /* \"#utility.yul\":487:492   */\n      dup1\n        /* \"#utility.yul\":480:493   */\n      iszero\n        /* \"#utility.yul\":473:494   */\n      iszero\n        /* \"#utility.yul\":466:471   */\n      dup2\n        /* \"#utility.yul\":463:495   */\n      eq\n        /* \"#utility.yul\":453:513   */\n      tag_415\n      jumpi\n        /* \"#utility.yul\":509:510   */\n      0x00\n        /* \"#utility.yul\":506:507   */\n      dup1\n        /* \"#utility.yul\":499:511   */\n      revert\n        /* \"#utility.yul\":1088:2010   */\n    tag_104:\n        /* \"#utility.yul\":1157:1163   */\n      0x00\n        /* \"#utility.yul\":1210:1212   */\n      0x20\n        /* \"#utility.yul\":1198:1207   */\n      dup3\n        /* \"#utility.yul\":1189:1196   */\n      dup5\n        /* \"#utility.yul\":1185:1208   */\n      sub\n        /* \"#utility.yul\":1181:1213   */\n      slt\n        /* \"#utility.yul\":1178:1230   */\n      iszero\n      tag_481\n      jumpi\n        /* \"#utility.yul\":1226:1227   */\n      0x00\n        /* \"#utility.yul\":1223:1224   */\n      dup1\n        /* \"#utility.yul\":1216:1228   */\n      revert\n        /* \"#utility.yul\":1178:1230   */\n    tag_481:\n        /* \"#utility.yul\":1266:1275   */\n      dup2\n        /* \"#utility.yul\":1253:1276   */\n      calldataload\n        /* \"#utility.yul\":1295:1313   */\n      0xffffffffffffffff\n        /* \"#utility.yul\":1336:1338   */\n      dup1\n        /* \"#utility.yul\":1328:1334   */\n      dup3\n        /* \"#utility.yul\":1325:1339   */\n      gt\n        /* \"#utility.yul\":1322:1356   */\n      iszero\n      tag_482\n      jumpi\n        /* \"#utility.yul\":1352:1353   */\n      0x00\n        /* \"#utility.yul\":1349:1350   */\n      dup1\n        /* \"#utility.yul\":1342:1354   */\n      revert\n        /* \"#utility.yul\":1322:1356   */\n    tag_482:\n        /* \"#utility.yul\":1390:1396   */\n      dup2\n        /* \"#utility.yul\":1379:1388   */\n      dup5\n        /* \"#utility.yul\":1375:1397   */\n      add\n        /* \"#utility.yul\":1365:1397   */\n      swap2\n      pop\n        /* \"#utility.yul\":1435:1442   */\n      dup5\n        /* \"#utility.yul\":1428:1432   */\n      0x1f\n        /* \"#utility.yul\":1424:1426   */\n      dup4\n        /* \"#utility.yul\":1420:1433   */\n      add\n        /* \"#utility.yul\":1416:1443   */\n      slt\n        /* \"#utility.yul\":1406:1461   */\n      tag_483\n      jumpi\n        /* \"#utility.yul\":1457:1458   */\n      0x00\n        /* \"#utility.yul\":1454:1455   */\n      dup1\n        /* \"#utility.yul\":1447:1459   */\n      revert\n        /* \"#utility.yul\":1406:1461   */\n    tag_483:\n        /* \"#utility.yul\":1493:1495   */\n      dup2\n        /* \"#utility.yul\":1480:1496   */\n      calldataload\n        /* \"#utility.yul\":1515:1517   */\n      dup2\n        /* \"#utility.yul\":1511:1513   */\n      dup2\n        /* \"#utility.yul\":1508:1518   */\n      gt\n        /* \"#utility.yul\":1505:1541   */\n      iszero\n      tag_485\n      jumpi\n        /* \"#utility.yul\":1521:1539   */\n      tag_485\n      tag_420\n      jump\t// in\n    tag_485:\n        /* \"#utility.yul\":1596:1598   */\n      0x40\n        /* \"#utility.yul\":1590:1599   */\n      mload\n        /* \"#utility.yul\":1564:1566   */\n      0x1f\n        /* \"#utility.yul\":1650:1663   */\n      dup3\n      add\n      not(0x1f)\n        /* \"#utility.yul\":1646:1668   */\n      swap1\n      dup2\n      and\n        /* \"#utility.yul\":1670:1672   */\n      0x3f\n        /* \"#utility.yul\":1642:1673   */\n      add\n        /* \"#utility.yul\":1638:1678   */\n      and\n        /* \"#utility.yul\":1626:1679   */\n      dup2\n      add\n      swap1\n        /* \"#utility.yul\":1694:1712   */\n      dup4\n      dup3\n      gt\n        /* \"#utility.yul\":1714:1736   */\n      dup2\n      dup4\n      lt\n        /* \"#utility.yul\":1691:1737   */\n      or\n        /* \"#utility.yul\":1688:1760   */\n      iszero\n      tag_487\n      jumpi\n        /* \"#utility.yul\":1740:1758   */\n      tag_487\n      tag_420\n      jump\t// in\n    tag_487:\n        /* \"#utility.yul\":1780:1790   */\n      dup2\n        /* \"#utility.yul\":1776:1778   */\n      0x40\n        /* \"#utility.yul\":1769:1791   */\n      mstore\n        /* \"#utility.yul\":1815:1817   */\n      dup3\n        /* \"#utility.yul\":1807:1813   */\n      dup2\n        /* \"#utility.yul\":1800:1818   */\n      mstore\n        /* \"#utility.yul\":1855:1862   */\n      dup8\n        /* \"#utility.yul\":1850:1852   */\n      0x20\n        /* \"#utility.yul\":1845:1847   */\n      dup5\n        /* \"#utility.yul\":1841:1843   */\n      dup8\n        /* \"#utility.yul\":1837:1848   */\n      add\n        /* \"#utility.yul\":1833:1853   */\n      add\n        /* \"#utility.yul\":1830:1863   */\n      gt\n        /* \"#utility.yul\":1827:1880   */\n      iszero\n      tag_488\n      jumpi\n        /* \"#utility.yul\":1876:1877   */\n      0x00\n        /* \"#utility.yul\":1873:1874   */\n      dup1\n        /* \"#utility.yul\":1866:1878   */\n      revert\n        /* \"#utility.yul\":1827:1880   */\n    tag_488:\n        /* \"#utility.yul\":1932:1934   */\n      dup3\n        /* \"#utility.yul\":1927:1929   */\n      0x20\n        /* \"#utility.yul\":1923:1925   */\n      dup7\n        /* \"#utility.yul\":1919:1930   */\n      add\n        /* \"#utility.yul\":1914:1916   */\n      0x20\n        /* \"#utility.yul\":1906:1912   */\n      dup4\n        /* \"#utility.yul\":1902:1917   */\n      add\n        /* \"#utility.yul\":1889:1935   */\n      calldatacopy\n        /* \"#utility.yul\":1977:1978   */\n      0x00\n        /* \"#utility.yul\":1955:1970   */\n      swap3\n      dup2\n      add\n        /* \"#utility.yul\":1972:1974   */\n      0x20\n        /* \"#utility.yul\":1951:1975   */\n      add\n        /* \"#utility.yul\":1944:1979   */\n      swap3\n      swap1\n      swap3\n      mstore\n      pop\n        /* \"#utility.yul\":1959:1965   */\n      swap6\n        /* \"#utility.yul\":1088:2010   */\n      swap5\n      pop\n      pop\n      pop\n      pop\n      pop\n      jump\t// out\n        /* \"#utility.yul\":2015:2195   */\n    tag_73:\n        /* \"#utility.yul\":2074:2080   */\n      0x00\n        /* \"#utility.yul\":2127:2129   */\n      0x20\n        /* \"#utility.yul\":2115:2124   */\n      dup3\n        /* \"#utility.yul\":2106:2113   */\n      dup5\n        /* \"#utility.yul\":2102:2125   */\n      sub\n        /* \"#utility.yul\":2098:2130   */\n      slt\n        /* \"#utility.yul\":2095:2147   */\n      iszero\n      tag_490\n      jumpi\n        /* \"#utility.yul\":2143:2144   */\n      0x00\n        /* \"#utility.yul\":2140:2141   */\n      dup1\n        /* \"#utility.yul\":2133:2145   */\n      revert\n        /* \"#utility.yul\":2095:2147   */\n    tag_490:\n      pop\n        /* \"#utility.yul\":2166:2189   */\n      calldataload\n      swap2\n        /* \"#utility.yul\":2015:2195   */\n      swap1\n      pop\n      jump\t// out\n        /* \"#utility.yul\":2200:2384   */\n    tag_186:\n        /* \"#utility.yul\":2270:2276   */\n      0x00\n        /* \"#utility.yul\":2323:2325   */\n      0x20\n        /* \"#utility.yul\":2311:2320   */\n      dup3\n        /* \"#utility.yul\":2302:2309   */\n      dup5\n        /* \"#utility.yul\":2298:2321   */\n      sub\n        /* \"#utility.yul\":2294:2326   */\n      slt\n        /* \"#utility.yul\":2291:2343   */\n      iszero\n      tag_492\n      jumpi\n        /* \"#utility.yul\":2339:2340   */\n      0x00\n        /* \"#utility.yul\":2336:2337   */\n      dup1\n        /* \"#utility.yul\":2329:2341   */\n      revert\n        /* \"#utility.yul\":2291:2343   */\n    tag_492:\n      pop\n        /* \"#utility.yul\":2362:2378   */\n      mload\n      swap2\n        /* \"#utility.yul\":2200:2384   */\n      swap1\n      pop\n      jump\t// out\n        /* \"#utility.yul\":2389:2704   */\n    tag_151:\n        /* \"#utility.yul\":2457:2463   */\n      0x00\n        /* \"#utility.yul\":2465:2471   */\n      dup1\n        /* \"#utility.yul\":2518:2520   */\n      0x40\n        /* \"#utility.yul\":2506:2515   */\n      dup4\n        /* \"#utility.yul\":2497:2504   */\n      dup6\n        /* \"#utility.yul\":2493:2516   */\n      sub\n        /* \"#utility.yul\":2489:2521   */\n      slt\n        /* \"#utility.yul\":2486:2538   */\n      iszero\n      tag_494\n      jumpi\n        /* \"#utility.yul\":2534:2535   */\n      0x00\n        /* \"#utility.yul\":2531:2532   */\n      dup1\n        /* \"#utility.yul\":2524:2536   */\n      revert\n        /* \"#utility.yul\":2486:2538   */\n    tag_494:\n        /* \"#utility.yul\":2570:2579   */\n      dup3\n        /* \"#utility.yul\":2557:2580   */\n      calldataload\n        /* \"#utility.yul\":2547:2580   */\n      swap2\n      pop\n        /* \"#utility.yul\":2630:2632   */\n      0x20\n        /* \"#utility.yul\":2619:2628   */\n      dup4\n        /* \"#utility.yul\":2615:2633   */\n      add\n        /* \"#utility.yul\":2602:2634   */\n      calldataload\n        /* \"#utility.yul\":2643:2674   */\n      tag_495\n        /* \"#utility.yul\":2668:2673   */\n      dup2\n        /* \"#utility.yul\":2643:2674   */\n      tag_470\n      jump\t// in\n    tag_495:\n        /* \"#utility.yul\":2693:2698   */\n      dup1\n        /* \"#utility.yul\":2683:2698   */\n      swap2\n      pop\n      pop\n        /* \"#utility.yul\":2389:2704   */\n      swap3\n      pop\n      swap3\n      swap1\n      pop\n      jump\t// out\n        /* \"#utility.yul\":2709:3092   */\n    tag_99:\n        /* \"#utility.yul\":2786:2792   */\n      0x00\n        /* \"#utility.yul\":2794:2800   */\n      dup1\n        /* \"#utility.yul\":2802:2808   */\n      0x00\n        /* \"#utility.yul\":2855:2857   */\n      0x60\n        /* \"#utility.yul\":2843:2852   */\n      dup5\n        /* \"#utility.yul\":2834:2841   */\n      dup7\n        /* \"#utility.yul\":2830:2853   */\n      sub\n        /* \"#utility.yul\":2826:2858   */\n      slt\n        /* \"#utility.yul\":2823:2875   */\n      iszero\n      tag_497\n      jumpi\n        /* \"#utility.yul\":2871:2872   */\n      0x00\n        /* \"#utility.yul\":2868:2869   */\n      dup1\n        /* \"#utility.yul\":2861:2873   */\n      revert\n        /* \"#utility.yul\":2823:2875   */\n    tag_497:\n        /* \"#utility.yul\":2907:2916   */\n      dup4\n        /* \"#utility.yul\":2894:2917   */\n      calldataload\n        /* \"#utility.yul\":2884:2917   */\n      swap3\n      pop\n        /* \"#utility.yul\":2967:2969   */\n      0x20\n        /* \"#utility.yul\":2956:2965   */\n      dup5\n        /* \"#utility.yul\":2952:2970   */\n      add\n        /* \"#utility.yul\":2939:2971   */\n      calldataload\n        /* \"#utility.yul\":2980:3011   */\n      tag_498\n        /* \"#utility.yul\":3005:3010   */\n      dup2\n        /* \"#utility.yul\":2980:3011   */\n      tag_470\n      jump\t// in\n    tag_498:\n        /* \"#utility.yul\":2709:3092   */\n      swap3\n      swap6\n        /* \"#utility.yul\":3030:3035   */\n      swap3\n      swap5\n      pop\n      pop\n      pop\n        /* \"#utility.yul\":3082:3084   */\n      0x40\n        /* \"#utility.yul\":3067:3085   */\n      swap2\n      swap1\n      swap2\n      add\n        /* \"#utility.yul\":3054:3086   */\n      calldataload\n      swap1\n        /* \"#utility.yul\":2709:3092   */\n      jump\t// out\n        /* \"#utility.yul\":3097:3371   */\n    tag_444:\n        /* \"#utility.yul\":3226:3229   */\n      0x00\n        /* \"#utility.yul\":3264:3270   */\n      dup3\n        /* \"#utility.yul\":3258:3271   */\n      mload\n        /* \"#utility.yul\":3280:3333   */\n      tag_500\n        /* \"#utility.yul\":3326:3332   */\n      dup2\n        /* \"#utility.yul\":3321:3324   */\n      dup5\n        /* \"#utility.yul\":3314:3318   */\n      0x20\n        /* \"#utility.yul\":3306:3312   */\n      dup8\n        /* \"#utility.yul\":3302:3319   */\n      add\n        /* \"#utility.yul\":3280:3333   */\n      tag_501\n      jump\t// in\n    tag_500:\n        /* \"#utility.yul\":3349:3365   */\n      swap2\n      swap1\n      swap2\n      add\n      swap3\n        /* \"#utility.yul\":3097:3371   */\n      swap2\n      pop\n      pop\n      jump\t// out\n        /* \"#utility.yul\":7777:8133   */\n    tag_218:\n        /* \"#utility.yul\":7979:7981   */\n      0x20\n        /* \"#utility.yul\":7961:7982   */\n      dup1\n      dup3\n      mstore\n        /* \"#utility.yul\":7998:8016   */\n      dup2\n      dup2\n      add\n        /* \"#utility.yul\":7991:8021   */\n      mstore\n        /* \"#utility.yul\":8057:8091   */\n      0x4f776e61626c653a2063616c6c6572206973206e6f7420746865206f776e6572\n        /* \"#utility.yul\":8052:8054   */\n      0x40\n        /* \"#utility.yul\":8037:8055   */\n      dup3\n      add\n        /* \"#utility.yul\":8030:8092   */\n      mstore\n        /* \"#utility.yul\":8124:8126   */\n      0x60\n        /* \"#utility.yul\":8109:8127   */\n      add\n      swap1\n        /* \"#utility.yul\":7777:8133   */\n      jump\t// out\n        /* \"#utility.yul\":9049:9391   */\n    tag_205:\n        /* \"#utility.yul\":9251:9253   */\n      0x20\n        /* \"#utility.yul\":9233:9254   */\n      dup1\n      dup3\n      mstore\n        /* \"#utility.yul\":9290:9292   */\n      0x12\n        /* \"#utility.yul\":9270:9288   */\n      swap1\n      dup3\n      add\n        /* \"#utility.yul\":9263:9293   */\n      mstore\n      shl(0x72, 0x119d5b98dd1a5bdb881a5cc81b1bd8dad959)\n        /* \"#utility.yul\":9324:9326   */\n      0x40\n        /* \"#utility.yul\":9309:9327   */\n      dup3\n      add\n        /* \"#utility.yul\":9302:9350   */\n      mstore\n        /* \"#utility.yul\":9382:9384   */\n      0x60\n        /* \"#utility.yul\":9367:9385   */\n      add\n      swap1\n        /* \"#utility.yul\":9049:9391   */\n      jump\t// out\n        /* \"#utility.yul\":9396:9813   */\n    tag_192:\n        /* \"#utility.yul\":9598:9600   */\n      0x20\n        /* \"#utility.yul\":9580:9601   */\n      dup1\n      dup3\n      mstore\n        /* \"#utility.yul\":9637:9639   */\n      0x35\n        /* \"#utility.yul\":9617:9635   */\n      swap1\n      dup3\n      add\n        /* \"#utility.yul\":9610:9640   */\n      mstore\n        /* \"#utility.yul\":9676:9710   */\n      0x6f70657261746f723a2063616c6c6572206973206e6f7420616c6c6f77656420\n        /* \"#utility.yul\":9671:9673   */\n      0x40\n        /* \"#utility.yul\":9656:9674   */\n      dup3\n      add\n        /* \"#utility.yul\":9649:9711   */\n      mstore\n      shl(0x59, 0x3a379031b0b636103a3434b990333ab731ba34b7b7)\n        /* \"#utility.yul\":9742:9744   */\n      0x60\n        /* \"#utility.yul\":9727:9745   */\n      dup3\n      add\n        /* \"#utility.yul\":9720:9771   */\n      mstore\n        /* \"#utility.yul\":9803:9806   */\n      0x80\n        /* \"#utility.yul\":9788:9807   */\n      add\n      swap1\n        /* \"#utility.yul\":9396:9813   */\n      jump\t// out\n        /* \"#utility.yul\":12225:13205   */\n    tag_435:\n        /* \"#utility.yul\":12487:12491   */\n      0x00\n        /* \"#utility.yul\":12535:12538   */\n      0xa0\n        /* \"#utility.yul\":12524:12533   */\n      dup3\n        /* \"#utility.yul\":12520:12539   */\n      add\n        /* \"#utility.yul\":12566:12572   */\n      dup8\n        /* \"#utility.yul\":12555:12564   */\n      dup4\n        /* \"#utility.yul\":12548:12573   */\n      mstore\n        /* \"#utility.yul\":12592:12594   */\n      0x20\n        /* \"#utility.yul\":12630:12636   */\n      dup8\n        /* \"#utility.yul\":12625:12627   */\n      dup2\n        /* \"#utility.yul\":12614:12623   */\n      dup6\n        /* \"#utility.yul\":12610:12628   */\n      add\n        /* \"#utility.yul\":12603:12637   */\n      mstore\n        /* \"#utility.yul\":12673:12676   */\n      0xa0\n        /* \"#utility.yul\":12668:12670   */\n      0x40\n        /* \"#utility.yul\":12657:12666   */\n      dup6\n        /* \"#utility.yul\":12653:12671   */\n      add\n        /* \"#utility.yul\":12646:12677   */\n      mstore\n        /* \"#utility.yul\":12697:12703   */\n      dup2\n        /* \"#utility.yul\":12732:12738   */\n      dup8\n        /* \"#utility.yul\":12726:12739   */\n      mload\n        /* \"#utility.yul\":12763:12769   */\n      dup1\n        /* \"#utility.yul\":12755:12761   */\n      dup5\n        /* \"#utility.yul\":12748:12770   */\n      mstore\n        /* \"#utility.yul\":12801:12804   */\n      0xc0\n        /* \"#utility.yul\":12790:12799   */\n      dup7\n        /* \"#utility.yul\":12786:12805   */\n      add\n        /* \"#utility.yul\":12779:12805   */\n      swap2\n      pop\n        /* \"#utility.yul\":12840:12842   */\n      dup3\n        /* \"#utility.yul\":12832:12838   */\n      dup10\n        /* \"#utility.yul\":12828:12843   */\n      add\n        /* \"#utility.yul\":12814:12843   */\n      swap4\n      pop\n        /* \"#utility.yul\":12861:12862   */\n      0x00\n        /* \"#utility.yul\":12871:13066   */\n    tag_528:\n        /* \"#utility.yul\":12885:12891   */\n      dup2\n        /* \"#utility.yul\":12882:12883   */\n      dup2\n        /* \"#utility.yul\":12879:12892   */\n      lt\n        /* \"#utility.yul\":12871:13066   */\n      iszero\n      tag_530\n      jumpi\n        /* \"#utility.yul\":12950:12963   */\n      dup5\n      mload\n      sub(shl(0xa0, 0x01), 0x01)\n        /* \"#utility.yul\":12946:12985   */\n      and\n        /* \"#utility.yul\":12934:12986   */\n      dup4\n      mstore\n        /* \"#utility.yul\":13041:13056   */\n      swap4\n      dup4\n      add\n      swap4\n        /* \"#utility.yul\":13006:13018   */\n      swap2\n      dup4\n      add\n      swap2\n        /* \"#utility.yul\":12982:12983   */\n      0x01\n        /* \"#utility.yul\":12900:12909   */\n      add\n        /* \"#utility.yul\":12871:13066   */\n      jump(tag_528)\n    tag_530:\n      pop\n      pop\n      sub(shl(0xa0, 0x01), 0x01)\n        /* \"#utility.yul\":13122:13154   */\n      swap7\n      swap1\n      swap7\n      and\n        /* \"#utility.yul\":13117:13119   */\n      0x60\n        /* \"#utility.yul\":13102:13120   */\n      dup6\n      add\n        /* \"#utility.yul\":13095:13155   */\n      mstore\n      pop\n      pop\n      pop\n        /* \"#utility.yul\":13186:13189   */\n      0x80\n        /* \"#utility.yul\":13171:13190   */\n      add\n        /* \"#utility.yul\":13164:13199   */\n      mstore\n        /* \"#utility.yul\":13083:13086   */\n      swap4\n        /* \"#utility.yul\":12225:13205   */\n      swap3\n      pop\n      pop\n      pop\n      jump\t// out\n        /* \"#utility.yul\":13210:13338   */\n    tag_202:\n        /* \"#utility.yul\":13250:13253   */\n      0x00\n        /* \"#utility.yul\":13281:13282   */\n      dup3\n        /* \"#utility.yul\":13277:13283   */\n      not\n        /* \"#utility.yul\":13274:13275   */\n      dup3\n        /* \"#utility.yul\":13271:13284   */\n      gt\n        /* \"#utility.yul\":13268:13307   */\n      iszero\n      tag_533\n      jumpi\n        /* \"#utility.yul\":13287:13305   */\n      tag_533\n      tag_534\n      jump\t// in\n    tag_533:\n      pop\n        /* \"#utility.yul\":13323:13332   */\n      add\n      swap1\n        /* \"#utility.yul\":13210:13338   */\n      jump\t// out\n        /* \"#utility.yul\":13343:13560   */\n    tag_465:\n        /* \"#utility.yul\":13383:13384   */\n      0x00\n        /* \"#utility.yul\":13409:13410   */\n      dup3\n        /* \"#utility.yul\":13399:13531   */\n      tag_536\n      jumpi\n        /* \"#utility.yul\":13453:13463   */\n      0x4e487b71\n        /* \"#utility.yul\":13448:13451   */\n      0xe0\n        /* \"#utility.yul\":13444:13464   */\n      shl\n        /* \"#utility.yul\":13441:13442   */\n      0x00\n        /* \"#utility.yul\":13434:13465   */\n      mstore\n        /* \"#utility.yul\":13488:13492   */\n      0x12\n        /* \"#utility.yul\":13485:13486   */\n      0x04\n        /* \"#utility.yul\":13478:13493   */\n      mstore\n        /* \"#utility.yul\":13516:13520   */\n      0x24\n        /* \"#utility.yul\":13513:13514   */\n      0x00\n        /* \"#utility.yul\":13506:13521   */\n      revert\n        /* \"#utility.yul\":13399:13531   */\n    tag_536:\n      pop\n        /* \"#utility.yul\":13545:13554   */\n      div\n      swap1\n        /* \"#utility.yul\":13343:13560   */\n      jump\t// out\n        /* \"#utility.yul\":13565:13690   */\n    tag_416:\n        /* \"#utility.yul\":13605:13609   */\n      0x00\n        /* \"#utility.yul\":13633:13634   */\n      dup3\n        /* \"#utility.yul\":13630:13631   */\n      dup3\n        /* \"#utility.yul\":13627:13635   */\n      lt\n        /* \"#utility.yul\":13624:13658   */\n      iszero\n      tag_539\n      jumpi\n        /* \"#utility.yul\":13638:13656   */\n      tag_539\n      tag_534\n      jump\t// in\n    tag_539:\n      pop\n        /* \"#utility.yul\":13675:13684   */\n      sub\n      swap1\n        /* \"#utility.yul\":13565:13690   */\n      jump\t// out\n        /* \"#utility.yul\":13695:13953   */\n    tag_501:\n        /* \"#utility.yul\":13767:13768   */\n      0x00\n        /* \"#utility.yul\":13777:13890   */\n    tag_541:\n        /* \"#utility.yul\":13791:13797   */\n      dup4\n        /* \"#utility.yul\":13788:13789   */\n      dup2\n        /* \"#utility.yul\":13785:13798   */\n      lt\n        /* \"#utility.yul\":13777:13890   */\n      iszero\n      tag_543\n      jumpi\n        /* \"#utility.yul\":13867:13878   */\n      dup2\n      dup2\n      add\n        /* \"#utility.yul\":13861:13879   */\n      mload\n        /* \"#utility.yul\":13848:13859   */\n      dup4\n      dup3\n      add\n        /* \"#utility.yul\":13841:13880   */\n      mstore\n        /* \"#utility.yul\":13813:13815   */\n      0x20\n        /* \"#utility.yul\":13806:13816   */\n      add\n        /* \"#utility.yul\":13777:13890   */\n      jump(tag_541)\n    tag_543:\n        /* \"#utility.yul\":13908:13914   */\n      dup4\n        /* \"#utility.yul\":13905:13906   */\n      dup2\n        /* \"#utility.yul\":13902:13915   */\n      gt\n        /* \"#utility.yul\":13899:13947   */\n      iszero\n      tag_544\n      jumpi\n        /* \"#utility.yul\":13943:13944   */\n      0x00\n        /* \"#utility.yul\":13934:13940   */\n      dup5\n        /* \"#utility.yul\":13929:13932   */\n      dup5\n        /* \"#utility.yul\":13925:13941   */\n      add\n        /* \"#utility.yul\":13918:13945   */\n      mstore\n        /* \"#utility.yul\":13899:13947   */\n    tag_544:\n      pop\n        /* \"#utility.yul\":13695:13953   */\n      pop\n      pop\n      pop\n      jump\t// out\n        /* \"#utility.yul\":13958:14085   */\n    tag_534:\n        /* \"#utility.yul\":14019:14029   */\n      0x4e487b71\n        /* \"#utility.yul\":14014:14017   */\n      0xe0\n        /* \"#utility.yul\":14010:14030   */\n      shl\n        /* \"#utility.yul\":14007:14008   */\n      0x00\n        /* \"#utility.yul\":14000:14031   */\n      mstore\n        /* \"#utility.yul\":14050:14054   */\n      0x11\n        /* \"#utility.yul\":14047:14048   */\n      0x04\n        /* \"#utility.yul\":14040:14055   */\n      mstore\n        /* \"#utility.yul\":14074:14078   */\n      0x24\n        /* \"#utility.yul\":14071:14072   */\n      0x00\n        /* \"#utility.yul\":14064:14079   */\n      revert\n        /* \"#utility.yul\":14090:14217   */\n    tag_424:\n        /* \"#utility.yul\":14151:14161   */\n      0x4e487b71\n        /* \"#utility.yul\":14146:14149   */\n      0xe0\n        /* \"#utility.yul\":14142:14162   */\n      shl\n        /* \"#utility.yul\":14139:14140   */\n      0x00\n        /* \"#utility.yul\":14132:14163   */\n      mstore\n        /* \"#utility.yul\":14182:14186   */\n      0x32\n        /* \"#utility.yul\":14179:14180   */\n      0x04\n        /* \"#utility.yul\":14172:14187   */\n      mstore\n        /* \"#utility.yul\":14206:14210   */\n      0x24\n        /* \"#utility.yul\":14203:14204   */\n      0x00\n        /* \"#utility.yul\":14196:14211   */\n      revert\n        /* \"#utility.yul\":14222:14349   */\n    tag_420:\n        /* \"#utility.yul\":14283:14293   */\n      0x4e487b71\n        /* \"#utility.yul\":14278:14281   */\n      0xe0\n        /* \"#utility.yul\":14274:14294   */\n      shl\n        /* \"#utility.yul\":14271:14272   */\n      0x00\n        /* \"#utility.yul\":14264:14295   */\n      mstore\n        /* \"#utility.yul\":14314:14318   */\n      0x41\n        /* \"#utility.yul\":14311:14312   */\n      0x04\n        /* \"#utility.yul\":14304:14319   */\n      mstore\n        /* \"#utility.yul\":14338:14342   */\n      0x24\n        /* \"#utility.yul\":14335:14336   */\n      0x00\n        /* \"#utility.yul\":14328:14343   */\n      revert\n        /* \"#utility.yul\":14354:14485   */\n    tag_470:\n      sub(shl(0xa0, 0x01), 0x01)\n        /* \"#utility.yul\":14429:14460   */\n      dup2\n      and\n        /* \"#utility.yul\":14419:14461   */\n      dup2\n      eq\n        /* \"#utility.yul\":14409:14479   */\n      tag_385\n      jumpi\n        /* \"#utility.yul\":14475:14476   */\n      0x00\n        /* \"#utility.yul\":14472:14473   */\n      dup1\n        /* \"#utility.yul\":14465:14477   */\n      revert\n\n    auxdata: 0xa26469706673582212209e5b23a1b1f79412e3d2690acbc6541392dbf67a3629fffafb2c4f556161309764736f6c63430008070033\n}\n",
				"bytecode": {
					"linkReferences": {},
					"object": "60806040526000805460ff60a01b19169055600a6005819055600680546001600160a01b03199081167376049b7caab30b8bbbdcff3a1059d9147dbf7b191790915560078054821673c559acc356d3037ec6dbc33a20587051188b86341790556a084595161401484a00000060095562015180909155600b8054821673af984e23eaa3e7967f3c5e007fbe397d8566d23d179055600c805490911673bafcdabe65a03825a131298be7670c0aec77b37f179055348015620000bf57600080fd5b50604051620025c1380380620025c1833981016040819052620000e291620004d5565b620000ed336200012e565b600280546001600160a01b03199081163317909155600880546001600160a01b03848116919093161790556006546200012791166200017e565b506200056c565b600080546001600160a01b038381166001600160a01b0319831681178455604051919092169283917f8be0079c531659141344cd1fd0a4f28419497f9722a3daafe3b4186f6b6457e09190a35050565b6000546001600160a01b03163314620001cd5760405162461bcd60e51b81526020600482018190526024820152600080516020620025a183398151915260448201526064015b60405180910390fd5b60408051808201909152601281527118da185b99d953dc9858db1955d85b1b195d60721b6020820152600054600160a01b900460ff1615806200029a57506001816040516200021d919062000507565b9081526020016040518091039020546000141580156200025d5750426001826040516200024b919062000507565b90815260200160405180910390205411155b80156200029a575042620151806001836040516200027c919062000507565b90815260200160405180910390205462000297919062000545565b10155b620002dd5760405162461bcd60e51b8152602060048201526012602482015271119d5b98dd1a5bdb881a5cc81b1bd8dad95960721b6044820152606401620001c4565b620002e88262000346565b600680546001600160a01b038481166001600160a01b0319831681179093556040519116919082907f3920ecd0f25e4e6ce57aaec91e57df499cb7e3e70d6c9604f866ae9265382cf390600090a350620003428162000406565b5050565b6000546001600160a01b03163314620003915760405162461bcd60e51b81526020600482018190526024820152600080516020620025a18339815191526044820152606401620001c4565b6001600160a01b038116620003f85760405162461bcd60e51b815260206004820152602660248201527f4f776e61626c653a206e6577206f776e657220697320746865207a65726f206160448201526564647265737360d01b6064820152608401620001c4565b62000403816200012e565b50565b336200041a6000546001600160a01b031690565b6001600160a01b031614806200043a57506002546001600160a01b031633145b620004ae5760405162461bcd60e51b815260206004820152603560248201527f6f70657261746f723a2063616c6c6572206973206e6f7420616c6c6f7765642060448201527f746f2063616c6c20746869732066756e6374696f6e00000000000000000000006064820152608401620001c4565b6000600182604051620004c2919062000507565b9081526040519081900360200190205550565b600060208284031215620004e857600080fd5b81516001600160a01b03811681146200050057600080fd5b9392505050565b6000825160005b818110156200052a57602081860181015185830152016200050e565b818111156200053a576000828501525b509190910192915050565b600082198211156200056757634e487b7160e01b600052601160045260246000fd5b500190565b612025806200057c6000396000f3fe6080604052600436106101dc5760003560e01c8063a221a15f11610102578063de996a6e11610095578063f4762fd611610064578063f4762fd614610546578063f7e77bc21461055b578063f8cf31cb14610588578063f98080c0146105a857600080fd5b8063de996a6e146104c6578063e7b6ebba146104e6578063edae876f14610506578063f2fde38b1461052657600080fd5b8063bf3506c1116100d1578063bf3506c11461045b578063c07a1d4d1461047b578063c0d7865514610491578063db2e21bc146104b157600080fd5b8063a221a15f146103da578063a347511a146103fa578063a607494a1461041b578063b59c6e0e1461043b57600080fd5b806370ed0ada1161017a5780639850d32b116101495780639850d32b1461035c5780639f3719951461037a5780639f5311561461039a578063a1764595146103ba57600080fd5b806370ed0ada146102d6578063715018a6146102e95780637d6dfb7e146102fe5780638da5cb5b1461033e57600080fd5b806313ea5d29116101b657806313ea5d291461025e5780635dd538261461028057806363cd79b7146102965780636a1db1bf146102b657600080fd5b80630126ffb9146101e857806311a63e171461021157806312065fe01461024957600080fd5b366101e357005b600080fd5b3480156101f457600080fd5b506101fe600a5481565b6040519081526020015b60405180910390f35b34801561021d57600080fd5b50600754610231906001600160a01b031681565b6040516001600160a01b039091168152602001610208565b34801561025557600080fd5b506101fe6105e0565b34801561026a57600080fd5b5061027e610279366004611c4a565b610661565b005b34801561028c57600080fd5b506101fe60095481565b3480156102a257600080fd5b5061027e6102b1366004611c4a565b61089b565b3480156102c257600080fd5b5061027e6102d1366004611d3a565b610a04565b3480156102e257600080fd5b50476101fe565b3480156102f557600080fd5b5061027e610b40565b34801561030a57600080fd5b5061032e610319366004611c4a565b60036020526000908152604090205460ff1681565b6040519015158152602001610208565b34801561034a57600080fd5b506000546001600160a01b0316610231565b34801561036857600080fd5b506002546001600160a01b0316610231565b34801561038657600080fd5b5061027e610395366004611d9c565b610b76565b3480156103a657600080fd5b5061027e6103b5366004611c89565b610e82565b3480156103c657600080fd5b50600b54610231906001600160a01b031681565b3480156103e657600080fd5b50600654610231906001600160a01b031681565b34801561040657600080fd5b5060005461032e90600160a01b900460ff1681565b34801561042757600080fd5b5061027e610436366004611c89565b610ef5565b34801561044757600080fd5b50600854610231906001600160a01b031681565b34801561046757600080fd5b5061032e610476366004611c4a565b610fd2565b34801561048757600080fd5b506101fe60055481565b34801561049d57600080fd5b5061027e6104ac366004611c4a565b611004565b3480156104bd57600080fd5b5061027e611050565b3480156104d257600080fd5b5061027e6104e1366004611d3a565b611104565b3480156104f257600080fd5b5061027e610501366004611d6c565b611254565b34801561051257600080fd5b50600c54610231906001600160a01b031681565b34801561053257600080fd5b5061027e610541366004611c4a565b611545565b34801561055257600080fd5b5061027e6115e0565b34801561056757600080fd5b506101fe610576366004611c4a565b60046020526000908152604090205481565b34801561059457600080fd5b5061027e6105a3366004611c4a565b61166a565b3480156105b457600080fd5b506101fe6105c3366004611c89565b805160208183018101805160018252928201919093012091525481565b6008546040516370a0823160e01b81523060048201526000916001600160a01b0316906370a082319060240160206040518083038186803b15801561062457600080fd5b505afa158015610638573d6000803e3d6000fd5b505050506040513d601f19601f8201168201806040525081019061065c9190611d53565b905090565b336106746000546001600160a01b031690565b6001600160a01b0316148061069357506002546001600160a01b031633145b6106b85760405162461bcd60e51b81526004016106af90611e51565b60405180910390fd5b60408051808201909152600a81526936b0b4b73a30b4b732b960b11b6020820152600054600160a01b900460ff16158061077257506001816040516106fd9190611dd4565b90815260200160405180910390205460001415801561073a5750426001826040516107289190611dd4565b90815260200160405180910390205411155b8015610772575042620151806001836040516107569190611dd4565b90815260200160405180910390205461076f9190611f17565b10155b61078e5760405162461bcd60e51b81526004016106af90611e25565b6002546001600160a01b038381169116148015906107b457506001600160a01b03821615155b61083f5760405162461bcd60e51b815260206004820152605060248201527f41424f41543a3a7365744d61696e7461696e65723a204d61696e7461696e657260448201527f2063616e277420657175616c2070726576696f7573206d61696e7461696e657260648201526f206f72207a65726f206164647265737360801b608482015260a4016106af565b600280546001600160a01b038481166001600160a01b0319831681179093556040519116919082907f2f3ffaaaad93928855c8700645d1a3643e6ccfdd500efa9fda048a88f557cf0190600090a35061089781610e82565b5050565b6000546001600160a01b031633146108c55760405162461bcd60e51b81526004016106af90611df0565b60408051808201909152601281527118da185b99d953dc9858db1955d85b1b195d60721b6020820152600054600160a01b900460ff16158061098757506001816040516109129190611dd4565b90815260200160405180910390205460001415801561094f57504260018260405161093d9190611dd4565b90815260200160405180910390205411155b80156109875750426201518060018360405161096b9190611dd4565b9081526020016040518091039020546109849190611f17565b10155b6109a35760405162461bcd60e51b81526004016106af90611e25565b6109ac82611545565b600680546001600160a01b038481166001600160a01b0319831681179093556040519116919082907f3920ecd0f25e4e6ce57aaec91e57df499cb7e3e70d6c9604f866ae9265382cf390600090a35061089781610e82565b6000546001600160a01b03163314610a2e5760405162461bcd60e51b81526004016106af90611df0565b6040805180820190915260098152686368616e676546656560b81b6020820152600054600160a01b900460ff161580610ae75750600181604051610a729190611dd4565b908152602001604051809103902054600014158015610aaf575042600182604051610a9d9190611dd4565b90815260200160405180910390205411155b8015610ae757504262015180600183604051610acb9190611dd4565b908152602001604051809103902054610ae49190611f17565b10155b610b035760405162461bcd60e51b81526004016106af90611e25565b6005546040518391907fce8c8159f011d886721740f77c2d26c91b08ac01bd1d03bd132a9942661cb14990600090a3600582905561089781610e82565b6000546001600160a01b03163314610b6a5760405162461bcd60e51b81526004016106af90611df0565b610b746000611853565b565b6000546001600160a01b03163314610ba05760405162461bcd60e51b81526004016106af90611df0565b600c546001600160a01b0316610c2c5760405162461bcd60e51b8152602060048201526044602482018190527f41424f41543a3a73656e645265776172643a205468657265206973206e6f2072908201527f6f7574657220646566696e656420746f207377617020746f6b656e7320666f72606482015263040cae8d60e31b608482015260a4016106af565b610c346105e0565b831115610cb35760405162461bcd60e51b815260206004820152604160248201527f41424f41543a3a73656e645265776172643a2043616e27742073656e64206d6f60448201527f72652072657761726473207468616e20696e207265776172642073797374656d6064820152602160f81b608482015260a4016106af565b600954831115610d245760405162461bcd60e51b815260206004820152603660248201527f41424f41543a3a73656e645265776172643a2043616e27742073656e64206d6f60448201527572652072657761726473207468616e206c696d69742160501b60648201526084016106af565b610d2d82610fd2565b610d975760405162461bcd60e51b815260206004820152603560248201527f41424f41543a3a73656e645265776172643a2043616e277420636c61696d206d6044820152746f7265207468616e206f6e6365207065722064617960581b60648201526084016106af565b808311610dda5760405162461bcd60e51b8152602060048201526011602482015270105093d0550e8e9cd95b9914995dd85c99607a1b60448201526064016106af565b6001600160a01b0382166000908152600460205260409020429055610dff83826118a3565b925047610e0b826118b6565b610e2f610e206000546001600160a01b031690565b610e2a47846118a3565b611a2e565b600854610e46906001600160a01b03168486611b0d565b60405184906001600160a01b038516907fd9d5e983e9e8a6571ffbeafa6a3c2fbd9f0f44e52607977b5e1e7934f7d91bfc90600090a350505050565b33610e956000546001600160a01b031690565b6001600160a01b03161480610eb457506002546001600160a01b031633145b610ed05760405162461bcd60e51b81526004016106af90611e51565b6000600182604051610ee29190611dd4565b9081526040519081900360200190205550565b33610f086000546001600160a01b031690565b6001600160a01b03161480610f2757506002546001600160a01b031633145b610f435760405162461bcd60e51b81526004016106af90611e51565b610f506201518042611f17565b600182604051610f609190611dd4565b908152602001604051809103902081905550600181604051610f829190611dd4565b90815260200160405180910390205481604051610f9f9190611dd4565b604051908190038120907ff77f9a799fe8b0be1463abd7459a18fc55dfd8a6a24ddd29b54fd098088089c890600090a350565b600a546001600160a01b03821660009081526004602052604081205490914291610ffc9190611f17565b111592915050565b6000546001600160a01b0316331461102e5760405162461bcd60e51b81526004016106af90611df0565b600c80546001600160a01b0319166001600160a01b0392909216919091179055565b6000546001600160a01b0316331461107a5760405162461bcd60e51b81526004016106af90611df0565b6008546110a9906001600160a01b031661109c6000546001600160a01b031690565b6110a46105e0565b611b0d565b4780156110cb576110cb6110c56000546001600160a01b031690565b82611a2e565b600080546040516001600160a01b03909116917f5e7b34819cd91b239220bec92fcfd3c10da2214ba13e4e2b1f6c9cfdbd68a9a291a250565b6000546001600160a01b0316331461112e5760405162461bcd60e51b81526004016106af90611df0565b60408051808201909152601981527f61646a7573744d6178416d6f756e7450657252656365697665000000000000006020820152600054600160a01b900460ff1615806111fb57506001816040516111869190611dd4565b9081526020016040518091039020546000141580156111c35750426001826040516111b19190611dd4565b90815260200160405180910390205411155b80156111fb575042620151806001836040516111df9190611dd4565b9081526020016040518091039020546111f89190611f17565b10155b6112175760405162461bcd60e51b81526004016106af90611e25565b6009546040518391907fd07363c93ca88ca1140b355020cb77b0320b19e19a34bb15aa4566d27c2fabbd90600090a3600982905561089781610e82565b6000546001600160a01b0316331461127e5760405162461bcd60e51b81526004016106af90611df0565b600c546001600160a01b031661130f5760405162461bcd60e51b815260206004820152604a60248201527f41424f41543a3a73656e645265776172647341734574683a205468657265206960448201527f73206e6f20726f7574657220646566696e656420746f207377617020746f6b656064820152690dce640ccdee440cae8d60b31b608482015260a4016106af565b6113176105e0565b82111561139c5760405162461bcd60e51b815260206004820152604760248201527f41424f41543a3a73656e645265776172647341734574683a2043616e2774207360448201527f656e64206d6f72652072657761726473207468616e20696e207265776172642060648201526673797374656d2160c81b608482015260a4016106af565b6009548211156114145760405162461bcd60e51b815260206004820152603c60248201527f41424f41543a3a73656e645265776172647341734574683a2043616e2774207360448201527f656e64206d6f72652072657761726473207468616e206c696d6974210000000060648201526084016106af565b61141d81610fd2565b61148f5760405162461bcd60e51b815260206004820152603b60248201527f41424f41543a3a73656e645265776172647341734574683a2043616e2774206360448201527f6c61696d206d6f7265207468616e206f6e63652070657220646179000000000060648201526084016106af565b6001600160a01b0381166000908152600460205260409020429055476114b4836118b6565b60006114c047836118a3565b905060006114d960055483611c3e90919063ffffffff16565b90506114e582826118a3565b91506114fc6110c56000546001600160a01b031690565b6115068483611a2e565b8082856001600160a01b03167f75b2eac24930bf6a8227dbe172d34480e56be5c6994435067628424190d5343160405160405180910390a45050505050565b6000546001600160a01b0316331461156f5760405162461bcd60e51b81526004016106af90611df0565b6001600160a01b0381166115d45760405162461bcd60e51b815260206004820152602660248201527f4f776e61626c653a206e6577206f776e657220697320746865207a65726f206160448201526564647265737360d01b60648201526084016106af565b6115dd81611853565b50565b336115f36000546001600160a01b031690565b6001600160a01b0316148061161257506002546001600160a01b031633145b61162e5760405162461bcd60e51b81526004016106af90611e51565b6000805460ff60a01b1916600160a01b1781556040517f2c08b62bfac9a1b19bb1dec9323f1ce01696a77948b256abf3603d30f25a864e9190a1565b6000546001600160a01b031633146116945760405162461bcd60e51b81526004016106af90611df0565b6040805180820190915260118152703ab83230ba32a932bbb0b9322a37b5b2b760791b6020820152600054600160a01b900460ff16158061175557506001816040516116e09190611dd4565b90815260200160405180910390205460001415801561171d57504260018260405161170b9190611dd4565b90815260200160405180910390205411155b8015611755575042620151806001836040516117399190611dd4565b9081526020016040518091039020546117529190611f17565b10155b6117715760405162461bcd60e51b81526004016106af90611e25565b6008546001600160a01b03838116911614156117f55760405162461bcd60e51b815260206004820152603f60248201527f41424f41543a757064617465526577617264546f6b656e3a20596f752063616e60448201527f277420757064617465207468652065786163742073616d6520746f6b656e730060648201526084016106af565b6008546040516001600160a01b038085169216907fcb89265f21b9fc8710e9d9e42bbb37af1eb207454deca6d5e36787be2367c1d690600090a3600880546001600160a01b0319166001600160a01b03841617905561089781610e82565b600080546001600160a01b038381166001600160a01b0319831681178455604051919092169283917f8be0079c531659141344cd1fd0a4f28419497f9722a3daafe3b4186f6b6457e09190a35050565b60006118af8284611f51565b9392505050565b604080516002808252606082018352600092602083019080368337505060085482519293506001600160a01b0316918391506000906118f7576118f7611fae565b6001600160a01b039283166020918202929092010152600b5482519116908290600190811061192857611928611fae565b6001600160a01b039283166020918202929092010152600854600c5460405163095ea7b360e01b815290831660048201526024810185905291169063095ea7b390604401602060405180830381600087803b15801561198657600080fd5b505af115801561199a573d6000803e3d6000fd5b505050506040513d601f19601f820116820180604052508101906119be9190611c67565b50600c5460405163b6a046b360e01b81526001600160a01b039091169063b6a046b3906119f8908590600090869030904290600401611ea6565b600060405180830381600087803b158015611a1257600080fd5b505af1158015611a26573d6000803e3d6000fd5b505050505050565b604080516000808252602082019092526001600160a01b038416908390604051611a589190611dd4565b60006040518083038185875af1925050503d8060008114611a95576040519150601f19603f3d011682016040523d82523d6000602084013e611a9a565b606091505b5050905080611b085760405162461bcd60e51b815260206004820152603460248201527f5472616e7366657248656c7065723a3a736166655472616e736665724554483a60448201527308115512081d1c985b9cd9995c8819985a5b195960621b60648201526084016106af565b505050565b604080516001600160a01b038481166024830152604480830185905283518084039091018152606490920183526020820180516001600160e01b031663a9059cbb60e01b1790529151600092839290871691611b699190611dd4565b6000604051808303816000865af19150503d8060008114611ba6576040519150601f19603f3d011682016040523d82523d6000602084013e611bab565b606091505b5091509150818015611bd5575080511580611bd5575080806020019051810190611bd59190611c67565b611c375760405162461bcd60e51b815260206004820152602d60248201527f5472616e7366657248656c7065723a3a736166655472616e736665723a20747260448201526c185b9cd9995c8819985a5b1959609a1b60648201526084016106af565b5050505050565b60006118af8284611f2f565b600060208284031215611c5c57600080fd5b81356118af81611fda565b600060208284031215611c7957600080fd5b815180151581146118af57600080fd5b600060208284031215611c9b57600080fd5b813567ffffffffffffffff80821115611cb357600080fd5b818401915084601f830112611cc757600080fd5b813581811115611cd957611cd9611fc4565b604051601f8201601f19908116603f01168101908382118183101715611d0157611d01611fc4565b81604052828152876020848701011115611d1a57600080fd5b826020860160208301376000928101602001929092525095945050505050565b600060208284031215611d4c57600080fd5b5035919050565b600060208284031215611d6557600080fd5b5051919050565b60008060408385031215611d7f57600080fd5b823591506020830135611d9181611fda565b809150509250929050565b600080600060608486031215611db157600080fd5b833592506020840135611dc381611fda565b929592945050506040919091013590565b60008251611de6818460208701611f68565b9190910192915050565b6020808252818101527f4f776e61626c653a2063616c6c6572206973206e6f7420746865206f776e6572604082015260600190565b602080825260129082015271119d5b98dd1a5bdb881a5cc81b1bd8dad95960721b604082015260600190565b60208082526035908201527f6f70657261746f723a2063616c6c6572206973206e6f7420616c6c6f776564206040820152743a379031b0b636103a3434b990333ab731ba34b7b760591b606082015260800190565b600060a082018783526020878185015260a0604085015281875180845260c086019150828901935060005b81811015611ef65784516001600160a01b031683529383019391830191600101611ed1565b50506001600160a01b03969096166060850152505050608001529392505050565b60008219821115611f2a57611f2a611f98565b500190565b600082611f4c57634e487b7160e01b600052601260045260246000fd5b500490565b600082821015611f6357611f63611f98565b500390565b60005b83811015611f83578181015183820152602001611f6b565b83811115611f92576000848401525b50505050565b634e487b7160e01b600052601160045260246000fd5b634e487b7160e01b600052603260045260246000fd5b634e487b7160e01b600052604160045260246000fd5b6001600160a01b03811681146115dd57600080fdfea26469706673582212209e5b23a1b1f79412e3d2690acbc6541392dbf67a3629fffafb2c4f556161309764736f6c634300080700334f776e61626c653a2063616c6c6572206973206e6f7420746865206f776e6572",
					"opcodes": "PUSH1 0x80 PUSH1 0x40 MSTORE PUSH1 0x0 DUP1 SLOAD PUSH1 0xFF PUSH1 0xA0 SHL NOT AND SWAP1 SSTORE PUSH1 0xA PUSH1 0x5 DUP2 SWAP1 SSTORE PUSH1 0x6 DUP1 SLOAD PUSH1 0x1 PUSH1 0x1 PUSH1 0xA0 SHL SUB NOT SWAP1 DUP2 AND PUSH20 0x76049B7CAAB30B8BBBDCFF3A1059D9147DBF7B19 OR SWAP1 SWAP2 SSTORE PUSH1 0x7 DUP1 SLOAD DUP3 AND PUSH20 0xC559ACC356D3037EC6DBC33A20587051188B8634 OR SWAP1 SSTORE PUSH11 0x84595161401484A000000 PUSH1 0x9 SSTORE PUSH3 0x15180 SWAP1 SWAP2 SSTORE PUSH1 0xB DUP1 SLOAD DUP3 AND PUSH20 0xAF984E23EAA3E7967F3C5E007FBE397D8566D23D OR SWAP1 SSTORE PUSH1 0xC DUP1 SLOAD SWAP1 SWAP2 AND PUSH20 0xBAFCDABE65A03825A131298BE7670C0AEC77B37F OR SWAP1 SSTORE CALLVALUE DUP1 ISZERO PUSH3 0xBF JUMPI PUSH1 0x0 DUP1 REVERT JUMPDEST POP PUSH1 0x40 MLOAD PUSH3 0x25C1 CODESIZE SUB DUP1 PUSH3 0x25C1 DUP4 CODECOPY DUP2 ADD PUSH1 0x40 DUP2 SWAP1 MSTORE PUSH3 0xE2 SWAP2 PUSH3 0x4D5 JUMP JUMPDEST PUSH3 0xED CALLER PUSH3 0x12E JUMP JUMPDEST PUSH1 0x2 DUP1 SLOAD PUSH1 0x1 PUSH1 0x1 PUSH1 0xA0 SHL SUB NOT SWAP1 DUP2 AND CALLER OR SWAP1 SWAP2 SSTORE PUSH1 0x8 DUP1 SLOAD PUSH1 0x1 PUSH1 0x1 PUSH1 0xA0 SHL SUB DUP5 DUP2 AND SWAP2 SWAP1 SWAP4 AND OR SWAP1 SSTORE PUSH1 0x6 SLOAD PUSH3 0x127 SWAP2 AND PUSH3 0x17E JUMP JUMPDEST POP PUSH3 0x56C JUMP JUMPDEST PUSH1 0x0 DUP1 SLOAD PUSH1 0x1 PUSH1 0x1 PUSH1 0xA0 SHL SUB DUP4 DUP2 AND PUSH1 0x1 PUSH1 0x1 PUSH1 0xA0 SHL SUB NOT DUP4 AND DUP2 OR DUP5 SSTORE PUSH1 0x40 MLOAD SWAP2 SWAP1 SWAP3 AND SWAP3 DUP4 SWAP2 PUSH32 0x8BE0079C531659141344CD1FD0A4F28419497F9722A3DAAFE3B4186F6B6457E0 SWAP2 SWAP1 LOG3 POP POP JUMP JUMPDEST PUSH1 0x0 SLOAD PUSH1 0x1 PUSH1 0x1 PUSH1 0xA0 SHL SUB AND CALLER EQ PUSH3 0x1CD JUMPI PUSH1 0x40 MLOAD PUSH3 0x461BCD PUSH1 0xE5 SHL DUP2 MSTORE PUSH1 0x20 PUSH1 0x4 DUP3 ADD DUP2 SWAP1 MSTORE PUSH1 0x24 DUP3 ADD MSTORE PUSH1 0x0 DUP1 MLOAD PUSH1 0x20 PUSH3 0x25A1 DUP4 CODECOPY DUP2 MLOAD SWAP2 MSTORE PUSH1 0x44 DUP3 ADD MSTORE PUSH1 0x64 ADD JUMPDEST PUSH1 0x40 MLOAD DUP1 SWAP2 SUB SWAP1 REVERT JUMPDEST PUSH1 0x40 DUP1 MLOAD DUP1 DUP3 ADD SWAP1 SWAP2 MSTORE PUSH1 0x12 DUP2 MSTORE PUSH18 0x18DA185B99D953DC9858DB1955D85B1B195D PUSH1 0x72 SHL PUSH1 0x20 DUP3 ADD MSTORE PUSH1 0x0 SLOAD PUSH1 0x1 PUSH1 0xA0 SHL SWAP1 DIV PUSH1 0xFF AND ISZERO DUP1 PUSH3 0x29A JUMPI POP PUSH1 0x1 DUP2 PUSH1 0x40 MLOAD PUSH3 0x21D SWAP2 SWAP1 PUSH3 0x507 JUMP JUMPDEST SWAP1 DUP2 MSTORE PUSH1 0x20 ADD PUSH1 0x40 MLOAD DUP1 SWAP2 SUB SWAP1 KECCAK256 SLOAD PUSH1 0x0 EQ ISZERO DUP1 ISZERO PUSH3 0x25D JUMPI POP TIMESTAMP PUSH1 0x1 DUP3 PUSH1 0x40 MLOAD PUSH3 0x24B SWAP2 SWAP1 PUSH3 0x507 JUMP JUMPDEST SWAP1 DUP2 MSTORE PUSH1 0x20 ADD PUSH1 0x40 MLOAD DUP1 SWAP2 SUB SWAP1 KECCAK256 SLOAD GT ISZERO JUMPDEST DUP1 ISZERO PUSH3 0x29A JUMPI POP TIMESTAMP PUSH3 0x15180 PUSH1 0x1 DUP4 PUSH1 0x40 MLOAD PUSH3 0x27C SWAP2 SWAP1 PUSH3 0x507 JUMP JUMPDEST SWAP1 DUP2 MSTORE PUSH1 0x20 ADD PUSH1 0x40 MLOAD DUP1 SWAP2 SUB SWAP1 KECCAK256 SLOAD PUSH3 0x297 SWAP2 SWAP1 PUSH3 0x545 JUMP JUMPDEST LT ISZERO JUMPDEST PUSH3 0x2DD JUMPI PUSH1 0x40 MLOAD PUSH3 0x461BCD PUSH1 0xE5 SHL DUP2 MSTORE PUSH1 0x20 PUSH1 0x4 DUP3 ADD MSTORE PUSH1 0x12 PUSH1 0x24 DUP3 ADD MSTORE PUSH18 0x119D5B98DD1A5BDB881A5CC81B1BD8DAD959 PUSH1 0x72 SHL PUSH1 0x44 DUP3 ADD MSTORE PUSH1 0x64 ADD PUSH3 0x1C4 JUMP JUMPDEST PUSH3 0x2E8 DUP3 PUSH3 0x346 JUMP JUMPDEST PUSH1 0x6 DUP1 SLOAD PUSH1 0x1 PUSH1 0x1 PUSH1 0xA0 SHL SUB DUP5 DUP2 AND PUSH1 0x1 PUSH1 0x1 PUSH1 0xA0 SHL SUB NOT DUP4 AND DUP2 OR SWAP1 SWAP4 SSTORE PUSH1 0x40 MLOAD SWAP2 AND SWAP2 SWAP1 DUP3 SWAP1 PUSH32 0x3920ECD0F25E4E6CE57AAEC91E57DF499CB7E3E70D6C9604F866AE9265382CF3 SWAP1 PUSH1 0x0 SWAP1 LOG3 POP PUSH3 0x342 DUP2 PUSH3 0x406 JUMP JUMPDEST POP POP JUMP JUMPDEST PUSH1 0x0 SLOAD PUSH1 0x1 PUSH1 0x1 PUSH1 0xA0 SHL SUB AND CALLER EQ PUSH3 0x391 JUMPI PUSH1 0x40 MLOAD PUSH3 0x461BCD PUSH1 0xE5 SHL DUP2 MSTORE PUSH1 0x20 PUSH1 0x4 DUP3 ADD DUP2 SWAP1 MSTORE PUSH1 0x24 DUP3 ADD MSTORE PUSH1 0x0 DUP1 MLOAD PUSH1 0x20 PUSH3 0x25A1 DUP4 CODECOPY DUP2 MLOAD SWAP2 MSTORE PUSH1 0x44 DUP3 ADD MSTORE PUSH1 0x64 ADD PUSH3 0x1C4 JUMP JUMPDEST PUSH1 0x1 PUSH1 0x1 PUSH1 0xA0 SHL SUB DUP2 AND PUSH3 0x3F8 JUMPI PUSH1 0x40 MLOAD PUSH3 0x461BCD PUSH1 0xE5 SHL DUP2 MSTORE PUSH1 0x20 PUSH1 0x4 DUP3 ADD MSTORE PUSH1 0x26 PUSH1 0x24 DUP3 ADD MSTORE PUSH32 0x4F776E61626C653A206E6577206F776E657220697320746865207A65726F2061 PUSH1 0x44 DUP3 ADD MSTORE PUSH6 0x646472657373 PUSH1 0xD0 SHL PUSH1 0x64 DUP3 ADD MSTORE PUSH1 0x84 ADD PUSH3 0x1C4 JUMP JUMPDEST PUSH3 0x403 DUP2 PUSH3 0x12E JUMP JUMPDEST POP JUMP JUMPDEST CALLER PUSH3 0x41A PUSH1 0x0 SLOAD PUSH1 0x1 PUSH1 0x1 PUSH1 0xA0 SHL SUB AND SWAP1 JUMP JUMPDEST PUSH1 0x1 PUSH1 0x1 PUSH1 0xA0 SHL SUB AND EQ DUP1 PUSH3 0x43A JUMPI POP PUSH1 0x2 SLOAD PUSH1 0x1 PUSH1 0x1 PUSH1 0xA0 SHL SUB AND CALLER EQ JUMPDEST PUSH3 0x4AE JUMPI PUSH1 0x40 MLOAD PUSH3 0x461BCD PUSH1 0xE5 SHL DUP2 MSTORE PUSH1 0x20 PUSH1 0x4 DUP3 ADD MSTORE PUSH1 0x35 PUSH1 0x24 DUP3 ADD MSTORE PUSH32 0x6F70657261746F723A2063616C6C6572206973206E6F7420616C6C6F77656420 PUSH1 0x44 DUP3 ADD MSTORE PUSH32 0x746F2063616C6C20746869732066756E6374696F6E0000000000000000000000 PUSH1 0x64 DUP3 ADD MSTORE PUSH1 0x84 ADD PUSH3 0x1C4 JUMP JUMPDEST PUSH1 0x0 PUSH1 0x1 DUP3 PUSH1 0x40 MLOAD PUSH3 0x4C2 SWAP2 SWAP1 PUSH3 0x507 JUMP JUMPDEST SWAP1 DUP2 MSTORE PUSH1 0x40 MLOAD SWAP1 DUP2 SWAP1 SUB PUSH1 0x20 ADD SWAP1 KECCAK256 SSTORE POP JUMP JUMPDEST PUSH1 0x0 PUSH1 0x20 DUP3 DUP5 SUB SLT ISZERO PUSH3 0x4E8 JUMPI PUSH1 0x0 DUP1 REVERT JUMPDEST DUP2 MLOAD PUSH1 0x1 PUSH1 0x1 PUSH1 0xA0 SHL SUB DUP2 AND DUP2 EQ PUSH3 0x500 JUMPI PUSH1 0x0 DUP1 REVERT JUMPDEST SWAP4 SWAP3 POP POP POP JUMP JUMPDEST PUSH1 0x0 DUP3 MLOAD PUSH1 0x0 JUMPDEST DUP2 DUP2 LT ISZERO PUSH3 0x52A JUMPI PUSH1 0x20 DUP2 DUP7 ADD DUP2 ADD MLOAD DUP6 DUP4 ADD MSTORE ADD PUSH3 0x50E JUMP JUMPDEST DUP2 DUP2 GT ISZERO PUSH3 0x53A JUMPI PUSH1 0x0 DUP3 DUP6 ADD MSTORE JUMPDEST POP SWAP2 SWAP1 SWAP2 ADD SWAP3 SWAP2 POP POP JUMP JUMPDEST PUSH1 0x0 DUP3 NOT DUP3 GT ISZERO PUSH3 0x567 JUMPI PUSH4 0x4E487B71 PUSH1 0xE0 SHL PUSH1 0x0 MSTORE PUSH1 0x11 PUSH1 0x4 MSTORE PUSH1 0x24 PUSH1 0x0 REVERT JUMPDEST POP ADD SWAP1 JUMP JUMPDEST PUSH2 0x2025 DUP1 PUSH3 0x57C PUSH1 0x0 CODECOPY PUSH1 0x0 RETURN INVALID PUSH1 0x80 PUSH1 0x40 MSTORE PUSH1 0x4 CALLDATASIZE LT PUSH2 0x1DC JUMPI PUSH1 0x0 CALLDATALOAD PUSH1 0xE0 SHR DUP1 PUSH4 0xA221A15F GT PUSH2 0x102 JUMPI DUP1 PUSH4 0xDE996A6E GT PUSH2 0x95 JUMPI DUP1 PUSH4 0xF4762FD6 GT PUSH2 0x64 JUMPI DUP1 PUSH4 0xF4762FD6 EQ PUSH2 0x546 JUMPI DUP1 PUSH4 0xF7E77BC2 EQ PUSH2 0x55B JUMPI DUP1 PUSH4 0xF8CF31CB EQ PUSH2 0x588 JUMPI DUP1 PUSH4 0xF98080C0 EQ PUSH2 0x5A8 JUMPI PUSH1 0x0 DUP1 REVERT JUMPDEST DUP1 PUSH4 0xDE996A6E EQ PUSH2 0x4C6 JUMPI DUP1 PUSH4 0xE7B6EBBA EQ PUSH2 0x4E6 JUMPI DUP1 PUSH4 0xEDAE876F EQ PUSH2 0x506 JUMPI DUP1 PUSH4 0xF2FDE38B EQ PUSH2 0x526 JUMPI PUSH1 0x0 DUP1 REVERT JUMPDEST DUP1 PUSH4 0xBF3506C1 GT PUSH2 0xD1 JUMPI DUP1 PUSH4 0xBF3506C1 EQ PUSH2 0x45B JUMPI DUP1 PUSH4 0xC07A1D4D EQ PUSH2 0x47B JUMPI DUP1 PUSH4 0xC0D78655 EQ PUSH2 0x491 JUMPI DUP1 PUSH4 0xDB2E21BC EQ PUSH2 0x4B1 JUMPI PUSH1 0x0 DUP1 REVERT JUMPDEST DUP1 PUSH4 0xA221A15F EQ PUSH2 0x3DA JUMPI DUP1 PUSH4 0xA347511A EQ PUSH2 0x3FA JUMPI DUP1 PUSH4 0xA607494A EQ PUSH2 0x41B JUMPI DUP1 PUSH4 0xB59C6E0E EQ PUSH2 0x43B JUMPI PUSH1 0x0 DUP1 REVERT JUMPDEST DUP1 PUSH4 0x70ED0ADA GT PUSH2 0x17A JUMPI DUP1 PUSH4 0x9850D32B GT PUSH2 0x149 JUMPI DUP1 PUSH4 0x9850D32B EQ PUSH2 0x35C JUMPI DUP1 PUSH4 0x9F371995 EQ PUSH2 0x37A JUMPI DUP1 PUSH4 0x9F531156 EQ PUSH2 0x39A JUMPI DUP1 PUSH4 0xA1764595 EQ PUSH2 0x3BA JUMPI PUSH1 0x0 DUP1 REVERT JUMPDEST DUP1 PUSH4 0x70ED0ADA EQ PUSH2 0x2D6 JUMPI DUP1 PUSH4 0x715018A6 EQ PUSH2 0x2E9 JUMPI DUP1 PUSH4 0x7D6DFB7E EQ PUSH2 0x2FE JUMPI DUP1 PUSH4 0x8DA5CB5B EQ PUSH2 0x33E JUMPI PUSH1 0x0 DUP1 REVERT JUMPDEST DUP1 PUSH4 0x13EA5D29 GT PUSH2 0x1B6 JUMPI DUP1 PUSH4 0x13EA5D29 EQ PUSH2 0x25E JUMPI DUP1 PUSH4 0x5DD53826 EQ PUSH2 0x280 JUMPI DUP1 PUSH4 0x63CD79B7 EQ PUSH2 0x296 JUMPI DUP1 PUSH4 0x6A1DB1BF EQ PUSH2 0x2B6 JUMPI PUSH1 0x0 DUP1 REVERT JUMPDEST DUP1 PUSH4 0x126FFB9 EQ PUSH2 0x1E8 JUMPI DUP1 PUSH4 0x11A63E17 EQ PUSH2 0x211 JUMPI DUP1 PUSH4 0x12065FE0 EQ PUSH2 0x249 JUMPI PUSH1 0x0 DUP1 REVERT JUMPDEST CALLDATASIZE PUSH2 0x1E3 JUMPI STOP JUMPDEST PUSH1 0x0 DUP1 REVERT JUMPDEST CALLVALUE DUP1 ISZERO PUSH2 0x1F4 JUMPI PUSH1 0x0 DUP1 REVERT JUMPDEST POP PUSH2 0x1FE PUSH1 0xA SLOAD DUP2 JUMP JUMPDEST PUSH1 0x40 MLOAD SWAP1 DUP2 MSTORE PUSH1 0x20 ADD JUMPDEST PUSH1 0x40 MLOAD DUP1 SWAP2 SUB SWAP1 RETURN JUMPDEST CALLVALUE DUP1 ISZERO PUSH2 0x21D JUMPI PUSH1 0x0 DUP1 REVERT JUMPDEST POP PUSH1 0x7 SLOAD PUSH2 0x231 SWAP1 PUSH1 0x1 PUSH1 0x1 PUSH1 0xA0 SHL SUB AND DUP2 JUMP JUMPDEST PUSH1 0x40 MLOAD PUSH1 0x1 PUSH1 0x1 PUSH1 0xA0 SHL SUB SWAP1 SWAP2 AND DUP2 MSTORE PUSH1 0x20 ADD PUSH2 0x208 JUMP JUMPDEST CALLVALUE DUP1 ISZERO PUSH2 0x255 JUMPI PUSH1 0x0 DUP1 REVERT JUMPDEST POP PUSH2 0x1FE PUSH2 0x5E0 JUMP JUMPDEST CALLVALUE DUP1 ISZERO PUSH2 0x26A JUMPI PUSH1 0x0 DUP1 REVERT JUMPDEST POP PUSH2 0x27E PUSH2 0x279 CALLDATASIZE PUSH1 0x4 PUSH2 0x1C4A JUMP JUMPDEST PUSH2 0x661 JUMP JUMPDEST STOP JUMPDEST CALLVALUE DUP1 ISZERO PUSH2 0x28C JUMPI PUSH1 0x0 DUP1 REVERT JUMPDEST POP PUSH2 0x1FE PUSH1 0x9 SLOAD DUP2 JUMP JUMPDEST CALLVALUE DUP1 ISZERO PUSH2 0x2A2 JUMPI PUSH1 0x0 DUP1 REVERT JUMPDEST POP PUSH2 0x27E PUSH2 0x2B1 CALLDATASIZE PUSH1 0x4 PUSH2 0x1C4A JUMP JUMPDEST PUSH2 0x89B JUMP JUMPDEST CALLVALUE DUP1 ISZERO PUSH2 0x2C2 JUMPI PUSH1 0x0 DUP1 REVERT JUMPDEST POP PUSH2 0x27E PUSH2 0x2D1 CALLDATASIZE PUSH1 0x4 PUSH2 0x1D3A JUMP JUMPDEST PUSH2 0xA04 JUMP JUMPDEST CALLVALUE DUP1 ISZERO PUSH2 0x2E2 JUMPI PUSH1 0x0 DUP1 REVERT JUMPDEST POP SELFBALANCE PUSH2 0x1FE JUMP JUMPDEST CALLVALUE DUP1 ISZERO PUSH2 0x2F5 JUMPI PUSH1 0x0 DUP1 REVERT JUMPDEST POP PUSH2 0x27E PUSH2 0xB40 JUMP JUMPDEST CALLVALUE DUP1 ISZERO PUSH2 0x30A JUMPI PUSH1 0x0 DUP1 REVERT JUMPDEST POP PUSH2 0x32E PUSH2 0x319 CALLDATASIZE PUSH1 0x4 PUSH2 0x1C4A JUMP JUMPDEST PUSH1 0x3 PUSH1 0x20 MSTORE PUSH1 0x0 SWAP1 DUP2 MSTORE PUSH1 0x40 SWAP1 KECCAK256 SLOAD PUSH1 0xFF AND DUP2 JUMP JUMPDEST PUSH1 0x40 MLOAD SWAP1 ISZERO ISZERO DUP2 MSTORE PUSH1 0x20 ADD PUSH2 0x208 JUMP JUMPDEST CALLVALUE DUP1 ISZERO PUSH2 0x34A JUMPI PUSH1 0x0 DUP1 REVERT JUMPDEST POP PUSH1 0x0 SLOAD PUSH1 0x1 PUSH1 0x1 PUSH1 0xA0 SHL SUB AND PUSH2 0x231 JUMP JUMPDEST CALLVALUE DUP1 ISZERO PUSH2 0x368 JUMPI PUSH1 0x0 DUP1 REVERT JUMPDEST POP PUSH1 0x2 SLOAD PUSH1 0x1 PUSH1 0x1 PUSH1 0xA0 SHL SUB AND PUSH2 0x231 JUMP JUMPDEST CALLVALUE DUP1 ISZERO PUSH2 0x386 JUMPI PUSH1 0x0 DUP1 REVERT JUMPDEST POP PUSH2 0x27E PUSH2 0x395 CALLDATASIZE PUSH1 0x4 PUSH2 0x1D9C JUMP JUMPDEST PUSH2 0xB76 JUMP JUMPDEST CALLVALUE DUP1 ISZERO PUSH2 0x3A6 JUMPI PUSH1 0x0 DUP1 REVERT JUMPDEST POP PUSH2 0x27E PUSH2 0x3B5 CALLDATASIZE PUSH1 0x4 PUSH2 0x1C89 JUMP JUMPDEST PUSH2 0xE82 JUMP JUMPDEST CALLVALUE DUP1 ISZERO PUSH2 0x3C6 JUMPI PUSH1 0x0 DUP1 REVERT JUMPDEST POP PUSH1 0xB SLOAD PUSH2 0x231 SWAP1 PUSH1 0x1 PUSH1 0x1 PUSH1 0xA0 SHL SUB AND DUP2 JUMP JUMPDEST CALLVALUE DUP1 ISZERO PUSH2 0x3E6 JUMPI PUSH1 0x0 DUP1 REVERT JUMPDEST POP PUSH1 0x6 SLOAD PUSH2 0x231 SWAP1 PUSH1 0x1 PUSH1 0x1 PUSH1 0xA0 SHL SUB AND DUP2 JUMP JUMPDEST CALLVALUE DUP1 ISZERO PUSH2 0x406 JUMPI PUSH1 0x0 DUP1 REVERT JUMPDEST POP PUSH1 0x0 SLOAD PUSH2 0x32E SWAP1 PUSH1 0x1 PUSH1 0xA0 SHL SWAP1 DIV PUSH1 0xFF AND DUP2 JUMP JUMPDEST CALLVALUE DUP1 ISZERO PUSH2 0x427 JUMPI PUSH1 0x0 DUP1 REVERT JUMPDEST POP PUSH2 0x27E PUSH2 0x436 CALLDATASIZE PUSH1 0x4 PUSH2 0x1C89 JUMP JUMPDEST PUSH2 0xEF5 JUMP JUMPDEST CALLVALUE DUP1 ISZERO PUSH2 0x447 JUMPI PUSH1 0x0 DUP1 REVERT JUMPDEST POP PUSH1 0x8 SLOAD PUSH2 0x231 SWAP1 PUSH1 0x1 PUSH1 0x1 PUSH1 0xA0 SHL SUB AND DUP2 JUMP JUMPDEST CALLVALUE DUP1 ISZERO PUSH2 0x467 JUMPI PUSH1 0x0 DUP1 REVERT JUMPDEST POP PUSH2 0x32E PUSH2 0x476 CALLDATASIZE PUSH1 0x4 PUSH2 0x1C4A JUMP JUMPDEST PUSH2 0xFD2 JUMP JUMPDEST CALLVALUE DUP1 ISZERO PUSH2 0x487 JUMPI PUSH1 0x0 DUP1 REVERT JUMPDEST POP PUSH2 0x1FE PUSH1 0x5 SLOAD DUP2 JUMP JUMPDEST CALLVALUE DUP1 ISZERO PUSH2 0x49D JUMPI PUSH1 0x0 DUP1 REVERT JUMPDEST POP PUSH2 0x27E PUSH2 0x4AC CALLDATASIZE PUSH1 0x4 PUSH2 0x1C4A JUMP JUMPDEST PUSH2 0x1004 JUMP JUMPDEST CALLVALUE DUP1 ISZERO PUSH2 0x4BD JUMPI PUSH1 0x0 DUP1 REVERT JUMPDEST POP PUSH2 0x27E PUSH2 0x1050 JUMP JUMPDEST CALLVALUE DUP1 ISZERO PUSH2 0x4D2 JUMPI PUSH1 0x0 DUP1 REVERT JUMPDEST POP PUSH2 0x27E PUSH2 0x4E1 CALLDATASIZE PUSH1 0x4 PUSH2 0x1D3A JUMP JUMPDEST PUSH2 0x1104 JUMP JUMPDEST CALLVALUE DUP1 ISZERO PUSH2 0x4F2 JUMPI PUSH1 0x0 DUP1 REVERT JUMPDEST POP PUSH2 0x27E PUSH2 0x501 CALLDATASIZE PUSH1 0x4 PUSH2 0x1D6C JUMP JUMPDEST PUSH2 0x1254 JUMP JUMPDEST CALLVALUE DUP1 ISZERO PUSH2 0x512 JUMPI PUSH1 0x0 DUP1 REVERT JUMPDEST POP PUSH1 0xC SLOAD PUSH2 0x231 SWAP1 PUSH1 0x1 PUSH1 0x1 PUSH1 0xA0 SHL SUB AND DUP2 JUMP JUMPDEST CALLVALUE DUP1 ISZERO PUSH2 0x532 JUMPI PUSH1 0x0 DUP1 REVERT JUMPDEST POP PUSH2 0x27E PUSH2 0x541 CALLDATASIZE PUSH1 0x4 PUSH2 0x1C4A JUMP JUMPDEST PUSH2 0x1545 JUMP JUMPDEST CALLVALUE DUP1 ISZERO PUSH2 0x552 JUMPI PUSH1 0x0 DUP1 REVERT JUMPDEST POP PUSH2 0x27E PUSH2 0x15E0 JUMP JUMPDEST CALLVALUE DUP1 ISZERO PUSH2 0x567 JUMPI PUSH1 0x0 DUP1 REVERT JUMPDEST POP PUSH2 0x1FE PUSH2 0x576 CALLDATASIZE PUSH1 0x4 PUSH2 0x1C4A JUMP JUMPDEST PUSH1 0x4 PUSH1 0x20 MSTORE PUSH1 0x0 SWAP1 DUP2 MSTORE PUSH1 0x40 SWAP1 KECCAK256 SLOAD DUP2 JUMP JUMPDEST CALLVALUE DUP1 ISZERO PUSH2 0x594 JUMPI PUSH1 0x0 DUP1 REVERT JUMPDEST POP PUSH2 0x27E PUSH2 0x5A3 CALLDATASIZE PUSH1 0x4 PUSH2 0x1C4A JUMP JUMPDEST PUSH2 0x166A JUMP JUMPDEST CALLVALUE DUP1 ISZERO PUSH2 0x5B4 JUMPI PUSH1 0x0 DUP1 REVERT JUMPDEST POP PUSH2 0x1FE PUSH2 0x5C3 CALLDATASIZE PUSH1 0x4 PUSH2 0x1C89 JUMP JUMPDEST DUP1 MLOAD PUSH1 0x20 DUP2 DUP4 ADD DUP2 ADD DUP1 MLOAD PUSH1 0x1 DUP3 MSTORE SWAP3 DUP3 ADD SWAP2 SWAP1 SWAP4 ADD KECCAK256 SWAP2 MSTORE SLOAD DUP2 JUMP JUMPDEST PUSH1 0x8 SLOAD PUSH1 0x40 MLOAD PUSH4 0x70A08231 PUSH1 0xE0 SHL DUP2 MSTORE ADDRESS PUSH1 0x4 DUP3 ADD MSTORE PUSH1 0x0 SWAP2 PUSH1 0x1 PUSH1 0x1 PUSH1 0xA0 SHL SUB AND SWAP1 PUSH4 0x70A08231 SWAP1 PUSH1 0x24 ADD PUSH1 0x20 PUSH1 0x40 MLOAD DUP1 DUP4 SUB DUP2 DUP7 DUP1 EXTCODESIZE ISZERO DUP1 ISZERO PUSH2 0x624 JUMPI PUSH1 0x0 DUP1 REVERT JUMPDEST POP GAS STATICCALL ISZERO DUP1 ISZERO PUSH2 0x638 JUMPI RETURNDATASIZE PUSH1 0x0 DUP1 RETURNDATACOPY RETURNDATASIZE PUSH1 0x0 REVERT JUMPDEST POP POP POP POP PUSH1 0x40 MLOAD RETURNDATASIZE PUSH1 0x1F NOT PUSH1 0x1F DUP3 ADD AND DUP3 ADD DUP1 PUSH1 0x40 MSTORE POP DUP2 ADD SWAP1 PUSH2 0x65C SWAP2 SWAP1 PUSH2 0x1D53 JUMP JUMPDEST SWAP1 POP SWAP1 JUMP JUMPDEST CALLER PUSH2 0x674 PUSH1 0x0 SLOAD PUSH1 0x1 PUSH1 0x1 PUSH1 0xA0 SHL SUB AND SWAP1 JUMP JUMPDEST PUSH1 0x1 PUSH1 0x1 PUSH1 0xA0 SHL SUB AND EQ DUP1 PUSH2 0x693 JUMPI POP PUSH1 0x2 SLOAD PUSH1 0x1 PUSH1 0x1 PUSH1 0xA0 SHL SUB AND CALLER EQ JUMPDEST PUSH2 0x6B8 JUMPI PUSH1 0x40 MLOAD PUSH3 0x461BCD PUSH1 0xE5 SHL DUP2 MSTORE PUSH1 0x4 ADD PUSH2 0x6AF SWAP1 PUSH2 0x1E51 JUMP JUMPDEST PUSH1 0x40 MLOAD DUP1 SWAP2 SUB SWAP1 REVERT JUMPDEST PUSH1 0x40 DUP1 MLOAD DUP1 DUP3 ADD SWAP1 SWAP2 MSTORE PUSH1 0xA DUP2 MSTORE PUSH10 0x36B0B4B73A30B4B732B9 PUSH1 0xB1 SHL PUSH1 0x20 DUP3 ADD MSTORE PUSH1 0x0 SLOAD PUSH1 0x1 PUSH1 0xA0 SHL SWAP1 DIV PUSH1 0xFF AND ISZERO DUP1 PUSH2 0x772 JUMPI POP PUSH1 0x1 DUP2 PUSH1 0x40 MLOAD PUSH2 0x6FD SWAP2 SWAP1 PUSH2 0x1DD4 JUMP JUMPDEST SWAP1 DUP2 MSTORE PUSH1 0x20 ADD PUSH1 0x40 MLOAD DUP1 SWAP2 SUB SWAP1 KECCAK256 SLOAD PUSH1 0x0 EQ ISZERO DUP1 ISZERO PUSH2 0x73A JUMPI POP TIMESTAMP PUSH1 0x1 DUP3 PUSH1 0x40 MLOAD PUSH2 0x728 SWAP2 SWAP1 PUSH2 0x1DD4 JUMP JUMPDEST SWAP1 DUP2 MSTORE PUSH1 0x20 ADD PUSH1 0x40 MLOAD DUP1 SWAP2 SUB SWAP1 KECCAK256 SLOAD GT ISZERO JUMPDEST DUP1 ISZERO PUSH2 0x772 JUMPI POP TIMESTAMP PUSH3 0x15180 PUSH1 0x1 DUP4 PUSH1 0x40 MLOAD PUSH2 0x756 SWAP2 SWAP1 PUSH2 0x1DD4 JUMP JUMPDEST SWAP1 DUP2 MSTORE PUSH1 0x20 ADD PUSH1 0x40 MLOAD DUP1 SWAP2 SUB SWAP1 KECCAK256 SLOAD PUSH2 0x76F SWAP2 SWAP1 PUSH2 0x1F17 JUMP JUMPDEST LT ISZERO JUMPDEST PUSH2 0x78E JUMPI PUSH1 0x40 MLOAD PUSH3 0x461BCD PUSH1 0xE5 SHL DUP2 MSTORE PUSH1 0x4 ADD PUSH2 0x6AF SWAP1 PUSH2 0x1E25 JUMP JUMPDEST PUSH1 0x2 SLOAD PUSH1 0x1 PUSH1 0x1 PUSH1 0xA0 SHL SUB DUP4 DUP2 AND SWAP2 AND EQ DUP1 ISZERO SWAP1 PUSH2 0x7B4 JUMPI POP PUSH1 0x1 PUSH1 0x1 PUSH1 0xA0 SHL SUB DUP3 AND ISZERO ISZERO JUMPDEST PUSH2 0x83F JUMPI PUSH1 0x40 MLOAD PUSH3 0x461BCD PUSH1 0xE5 SHL DUP2 MSTORE PUSH1 0x20 PUSH1 0x4 DUP3 ADD MSTORE PUSH1 0x50 PUSH1 0x24 DUP3 ADD MSTORE PUSH32 0x41424F41543A3A7365744D61696E7461696E65723A204D61696E7461696E6572 PUSH1 0x44 DUP3 ADD MSTORE PUSH32 0x2063616E277420657175616C2070726576696F7573206D61696E7461696E6572 PUSH1 0x64 DUP3 ADD MSTORE PUSH16 0x206F72207A65726F2061646472657373 PUSH1 0x80 SHL PUSH1 0x84 DUP3 ADD MSTORE PUSH1 0xA4 ADD PUSH2 0x6AF JUMP JUMPDEST PUSH1 0x2 DUP1 SLOAD PUSH1 0x1 PUSH1 0x1 PUSH1 0xA0 SHL SUB DUP5 DUP2 AND PUSH1 0x1 PUSH1 0x1 PUSH1 0xA0 SHL SUB NOT DUP4 AND DUP2 OR SWAP1 SWAP4 SSTORE PUSH1 0x40 MLOAD SWAP2 AND SWAP2 SWAP1 DUP3 SWAP1 PUSH32 0x2F3FFAAAAD93928855C8700645D1A3643E6CCFDD500EFA9FDA048A88F557CF01 SWAP1 PUSH1 0x0 SWAP1 LOG3 POP PUSH2 0x897 DUP2 PUSH2 0xE82 JUMP JUMPDEST POP POP JUMP JUMPDEST PUSH1 0x0 SLOAD PUSH1 0x1 PUSH1 0x1 PUSH1 0xA0 SHL SUB AND CALLER EQ PUSH2 0x8C5 JUMPI PUSH1 0x40 MLOAD PUSH3 0x461BCD PUSH1 0xE5 SHL DUP2 MSTORE PUSH1 0x4 ADD PUSH2 0x6AF SWAP1 PUSH2 0x1DF0 JUMP JUMPDEST PUSH1 0x40 DUP1 MLOAD DUP1 DUP3 ADD SWAP1 SWAP2 MSTORE PUSH1 0x12 DUP2 MSTORE PUSH18 0x18DA185B99D953DC9858DB1955D85B1B195D PUSH1 0x72 SHL PUSH1 0x20 DUP3 ADD MSTORE PUSH1 0x0 SLOAD PUSH1 0x1 PUSH1 0xA0 SHL SWAP1 DIV PUSH1 0xFF AND ISZERO DUP1 PUSH2 0x987 JUMPI POP PUSH1 0x1 DUP2 PUSH1 0x40 MLOAD PUSH2 0x912 SWAP2 SWAP1 PUSH2 0x1DD4 JUMP JUMPDEST SWAP1 DUP2 MSTORE PUSH1 0x20 ADD PUSH1 0x40 MLOAD DUP1 SWAP2 SUB SWAP1 KECCAK256 SLOAD PUSH1 0x0 EQ ISZERO DUP1 ISZERO PUSH2 0x94F JUMPI POP TIMESTAMP PUSH1 0x1 DUP3 PUSH1 0x40 MLOAD PUSH2 0x93D SWAP2 SWAP1 PUSH2 0x1DD4 JUMP JUMPDEST SWAP1 DUP2 MSTORE PUSH1 0x20 ADD PUSH1 0x40 MLOAD DUP1 SWAP2 SUB SWAP1 KECCAK256 SLOAD GT ISZERO JUMPDEST DUP1 ISZERO PUSH2 0x987 JUMPI POP TIMESTAMP PUSH3 0x15180 PUSH1 0x1 DUP4 PUSH1 0x40 MLOAD PUSH2 0x96B SWAP2 SWAP1 PUSH2 0x1DD4 JUMP JUMPDEST SWAP1 DUP2 MSTORE PUSH1 0x20 ADD PUSH1 0x40 MLOAD DUP1 SWAP2 SUB SWAP1 KECCAK256 SLOAD PUSH2 0x984 SWAP2 SWAP1 PUSH2 0x1F17 JUMP JUMPDEST LT ISZERO JUMPDEST PUSH2 0x9A3 JUMPI PUSH1 0x40 MLOAD PUSH3 0x461BCD PUSH1 0xE5 SHL DUP2 MSTORE PUSH1 0x4 ADD PUSH2 0x6AF SWAP1 PUSH2 0x1E25 JUMP JUMPDEST PUSH2 0x9AC DUP3 PUSH2 0x1545 JUMP JUMPDEST PUSH1 0x6 DUP1 SLOAD PUSH1 0x1 PUSH1 0x1 PUSH1 0xA0 SHL SUB DUP5 DUP2 AND PUSH1 0x1 PUSH1 0x1 PUSH1 0xA0 SHL SUB NOT DUP4 AND DUP2 OR SWAP1 SWAP4 SSTORE PUSH1 0x40 MLOAD SWAP2 AND SWAP2 SWAP1 DUP3 SWAP1 PUSH32 0x3920ECD0F25E4E6CE57AAEC91E57DF499CB7E3E70D6C9604F866AE9265382CF3 SWAP1 PUSH1 0x0 SWAP1 LOG3 POP PUSH2 0x897 DUP2 PUSH2 0xE82 JUMP JUMPDEST PUSH1 0x0 SLOAD PUSH1 0x1 PUSH1 0x1 PUSH1 0xA0 SHL SUB AND CALLER EQ PUSH2 0xA2E JUMPI PUSH1 0x40 MLOAD PUSH3 0x461BCD PUSH1 0xE5 SHL DUP2 MSTORE PUSH1 0x4 ADD PUSH2 0x6AF SWAP1 PUSH2 0x1DF0 JUMP JUMPDEST PUSH1 0x40 DUP1 MLOAD DUP1 DUP3 ADD SWAP1 SWAP2 MSTORE PUSH1 0x9 DUP2 MSTORE PUSH9 0x6368616E6765466565 PUSH1 0xB8 SHL PUSH1 0x20 DUP3 ADD MSTORE PUSH1 0x0 SLOAD PUSH1 0x1 PUSH1 0xA0 SHL SWAP1 DIV PUSH1 0xFF AND ISZERO DUP1 PUSH2 0xAE7 JUMPI POP PUSH1 0x1 DUP2 PUSH1 0x40 MLOAD PUSH2 0xA72 SWAP2 SWAP1 PUSH2 0x1DD4 JUMP JUMPDEST SWAP1 DUP2 MSTORE PUSH1 0x20 ADD PUSH1 0x40 MLOAD DUP1 SWAP2 SUB SWAP1 KECCAK256 SLOAD PUSH1 0x0 EQ ISZERO DUP1 ISZERO PUSH2 0xAAF JUMPI POP TIMESTAMP PUSH1 0x1 DUP3 PUSH1 0x40 MLOAD PUSH2 0xA9D SWAP2 SWAP1 PUSH2 0x1DD4 JUMP JUMPDEST SWAP1 DUP2 MSTORE PUSH1 0x20 ADD PUSH1 0x40 MLOAD DUP1 SWAP2 SUB SWAP1 KECCAK256 SLOAD GT ISZERO JUMPDEST DUP1 ISZERO PUSH2 0xAE7 JUMPI POP TIMESTAMP PUSH3 0x15180 PUSH1 0x1 DUP4 PUSH1 0x40 MLOAD PUSH2 0xACB SWAP2 SWAP1 PUSH2 0x1DD4 JUMP JUMPDEST SWAP1 DUP2 MSTORE PUSH1 0x20 ADD PUSH1 0x40 MLOAD DUP1 SWAP2 SUB SWAP1 KECCAK256 SLOAD PUSH2 0xAE4 SWAP2 SWAP1 PUSH2 0x1F17 JUMP JUMPDEST LT ISZERO JUMPDEST PUSH2 0xB03 JUMPI PUSH1 0x40 MLOAD PUSH3 0x461BCD PUSH1 0xE5 SHL DUP2 MSTORE PUSH1 0x4 ADD PUSH2 0x6AF SWAP1 PUSH2 0x1E25 JUMP JUMPDEST PUSH1 0x5 SLOAD PUSH1 0x40 MLOAD DUP4 SWAP2 SWAP1 PUSH32 0xCE8C8159F011D886721740F77C2D26C91B08AC01BD1D03BD132A9942661CB149 SWAP1 PUSH1 0x0 SWAP1 LOG3 PUSH1 0x5 DUP3 SWAP1 SSTORE PUSH2 0x897 DUP2 PUSH2 0xE82 JUMP JUMPDEST PUSH1 0x0 SLOAD PUSH1 0x1 PUSH1 0x1 PUSH1 0xA0 SHL SUB AND CALLER EQ PUSH2 0xB6A JUMPI PUSH1 0x40 MLOAD PUSH3 0x461BCD PUSH1 0xE5 SHL DUP2 MSTORE PUSH1 0x4 ADD PUSH2 0x6AF SWAP1 PUSH2 0x1DF0 JUMP JUMPDEST PUSH2 0xB74 PUSH1 0x0 PUSH2 0x1853 JUMP JUMPDEST JUMP JUMPDEST PUSH1 0x0 SLOAD PUSH1 0x1 PUSH1 0x1 PUSH1 0xA0 SHL SUB AND CALLER EQ PUSH2 0xBA0 JUMPI PUSH1 0x40 MLOAD PUSH3 0x461BCD PUSH1 0xE5 SHL DUP2 MSTORE PUSH1 0x4 ADD PUSH2 0x6AF SWAP1 PUSH2 0x1DF0 JUMP JUMPDEST PUSH1 0xC SLOAD PUSH1 0x1 PUSH1 0x1 PUSH1 0xA0 SHL SUB AND PUSH2 0xC2C JUMPI PUSH1 0x40 MLOAD PUSH3 0x461BCD PUSH1 0xE5 SHL DUP2 MSTORE PUSH1 0x20 PUSH1 0x4 DUP3 ADD MSTORE PUSH1 0x44 PUSH1 0x24 DUP3 ADD DUP2 SWAP1 MSTORE PUSH32 0x41424F41543A3A73656E645265776172643A205468657265206973206E6F2072 SWAP1 DUP3 ADD MSTORE PUSH32 0x6F7574657220646566696E656420746F207377617020746F6B656E7320666F72 PUSH1 0x64 DUP3 ADD MSTORE PUSH4 0x40CAE8D PUSH1 0xE3 SHL PUSH1 0x84 DUP3 ADD MSTORE PUSH1 0xA4 ADD PUSH2 0x6AF JUMP JUMPDEST PUSH2 0xC34 PUSH2 0x5E0 JUMP JUMPDEST DUP4 GT ISZERO PUSH2 0xCB3 JUMPI PUSH1 0x40 MLOAD PUSH3 0x461BCD PUSH1 0xE5 SHL DUP2 MSTORE PUSH1 0x20 PUSH1 0x4 DUP3 ADD MSTORE PUSH1 0x41 PUSH1 0x24 DUP3 ADD MSTORE PUSH32 0x41424F41543A3A73656E645265776172643A2043616E27742073656E64206D6F PUSH1 0x44 DUP3 ADD MSTORE PUSH32 0x72652072657761726473207468616E20696E207265776172642073797374656D PUSH1 0x64 DUP3 ADD MSTORE PUSH1 0x21 PUSH1 0xF8 SHL PUSH1 0x84 DUP3 ADD MSTORE PUSH1 0xA4 ADD PUSH2 0x6AF JUMP JUMPDEST PUSH1 0x9 SLOAD DUP4 GT ISZERO PUSH2 0xD24 JUMPI PUSH1 0x40 MLOAD PUSH3 0x461BCD PUSH1 0xE5 SHL DUP2 MSTORE PUSH1 0x20 PUSH1 0x4 DUP3 ADD MSTORE PUSH1 0x36 PUSH1 0x24 DUP3 ADD MSTORE PUSH32 0x41424F41543A3A73656E645265776172643A2043616E27742073656E64206D6F PUSH1 0x44 DUP3 ADD MSTORE PUSH22 0x72652072657761726473207468616E206C696D697421 PUSH1 0x50 SHL PUSH1 0x64 DUP3 ADD MSTORE PUSH1 0x84 ADD PUSH2 0x6AF JUMP JUMPDEST PUSH2 0xD2D DUP3 PUSH2 0xFD2 JUMP JUMPDEST PUSH2 0xD97 JUMPI PUSH1 0x40 MLOAD PUSH3 0x461BCD PUSH1 0xE5 SHL DUP2 MSTORE PUSH1 0x20 PUSH1 0x4 DUP3 ADD MSTORE PUSH1 0x35 PUSH1 0x24 DUP3 ADD MSTORE PUSH32 0x41424F41543A3A73656E645265776172643A2043616E277420636C61696D206D PUSH1 0x44 DUP3 ADD MSTORE PUSH21 0x6F7265207468616E206F6E63652070657220646179 PUSH1 0x58 SHL PUSH1 0x64 DUP3 ADD MSTORE PUSH1 0x84 ADD PUSH2 0x6AF JUMP JUMPDEST DUP1 DUP4 GT PUSH2 0xDDA JUMPI PUSH1 0x40 MLOAD PUSH3 0x461BCD PUSH1 0xE5 SHL DUP2 MSTORE PUSH1 0x20 PUSH1 0x4 DUP3 ADD MSTORE PUSH1 0x11 PUSH1 0x24 DUP3 ADD MSTORE PUSH17 0x105093D0550E8E9CD95B9914995DD85C99 PUSH1 0x7A SHL PUSH1 0x44 DUP3 ADD MSTORE PUSH1 0x64 ADD PUSH2 0x6AF JUMP JUMPDEST PUSH1 0x1 PUSH1 0x1 PUSH1 0xA0 SHL SUB DUP3 AND PUSH1 0x0 SWAP1 DUP2 MSTORE PUSH1 0x4 PUSH1 0x20 MSTORE PUSH1 0x40 SWAP1 KECCAK256 TIMESTAMP SWAP1 SSTORE PUSH2 0xDFF DUP4 DUP3 PUSH2 0x18A3 JUMP JUMPDEST SWAP3 POP SELFBALANCE PUSH2 0xE0B DUP3 PUSH2 0x18B6 JUMP JUMPDEST PUSH2 0xE2F PUSH2 0xE20 PUSH1 0x0 SLOAD PUSH1 0x1 PUSH1 0x1 PUSH1 0xA0 SHL SUB AND SWAP1 JUMP JUMPDEST PUSH2 0xE2A SELFBALANCE DUP5 PUSH2 0x18A3 JUMP JUMPDEST PUSH2 0x1A2E JUMP JUMPDEST PUSH1 0x8 SLOAD PUSH2 0xE46 SWAP1 PUSH1 0x1 PUSH1 0x1 PUSH1 0xA0 SHL SUB AND DUP5 DUP7 PUSH2 0x1B0D JUMP JUMPDEST PUSH1 0x40 MLOAD DUP5 SWAP1 PUSH1 0x1 PUSH1 0x1 PUSH1 0xA0 SHL SUB DUP6 AND SWAP1 PUSH32 0xD9D5E983E9E8A6571FFBEAFA6A3C2FBD9F0F44E52607977B5E1E7934F7D91BFC SWAP1 PUSH1 0x0 SWAP1 LOG3 POP POP POP POP JUMP JUMPDEST CALLER PUSH2 0xE95 PUSH1 0x0 SLOAD PUSH1 0x1 PUSH1 0x1 PUSH1 0xA0 SHL SUB AND SWAP1 JUMP JUMPDEST PUSH1 0x1 PUSH1 0x1 PUSH1 0xA0 SHL SUB AND EQ DUP1 PUSH2 0xEB4 JUMPI POP PUSH1 0x2 SLOAD PUSH1 0x1 PUSH1 0x1 PUSH1 0xA0 SHL SUB AND CALLER EQ JUMPDEST PUSH2 0xED0 JUMPI PUSH1 0x40 MLOAD PUSH3 0x461BCD PUSH1 0xE5 SHL DUP2 MSTORE PUSH1 0x4 ADD PUSH2 0x6AF SWAP1 PUSH2 0x1E51 JUMP JUMPDEST PUSH1 0x0 PUSH1 0x1 DUP3 PUSH1 0x40 MLOAD PUSH2 0xEE2 SWAP2 SWAP1 PUSH2 0x1DD4 JUMP JUMPDEST SWAP1 DUP2 MSTORE PUSH1 0x40 MLOAD SWAP1 DUP2 SWAP1 SUB PUSH1 0x20 ADD SWAP1 KECCAK256 SSTORE POP JUMP JUMPDEST CALLER PUSH2 0xF08 PUSH1 0x0 SLOAD PUSH1 0x1 PUSH1 0x1 PUSH1 0xA0 SHL SUB AND SWAP1 JUMP JUMPDEST PUSH1 0x1 PUSH1 0x1 PUSH1 0xA0 SHL SUB AND EQ DUP1 PUSH2 0xF27 JUMPI POP PUSH1 0x2 SLOAD PUSH1 0x1 PUSH1 0x1 PUSH1 0xA0 SHL SUB AND CALLER EQ JUMPDEST PUSH2 0xF43 JUMPI PUSH1 0x40 MLOAD PUSH3 0x461BCD PUSH1 0xE5 SHL DUP2 MSTORE PUSH1 0x4 ADD PUSH2 0x6AF SWAP1 PUSH2 0x1E51 JUMP JUMPDEST PUSH2 0xF50 PUSH3 0x15180 TIMESTAMP PUSH2 0x1F17 JUMP JUMPDEST PUSH1 0x1 DUP3 PUSH1 0x40 MLOAD PUSH2 0xF60 SWAP2 SWAP1 PUSH2 0x1DD4 JUMP JUMPDEST SWAP1 DUP2 MSTORE PUSH1 0x20 ADD PUSH1 0x40 MLOAD DUP1 SWAP2 SUB SWAP1 KECCAK256 DUP2 SWAP1 SSTORE POP PUSH1 0x1 DUP2 PUSH1 0x40 MLOAD PUSH2 0xF82 SWAP2 SWAP1 PUSH2 0x1DD4 JUMP JUMPDEST SWAP1 DUP2 MSTORE PUSH1 0x20 ADD PUSH1 0x40 MLOAD DUP1 SWAP2 SUB SWAP1 KECCAK256 SLOAD DUP2 PUSH1 0x40 MLOAD PUSH2 0xF9F SWAP2 SWAP1 PUSH2 0x1DD4 JUMP JUMPDEST PUSH1 0x40 MLOAD SWAP1 DUP2 SWAP1 SUB DUP2 KECCAK256 SWAP1 PUSH32 0xF77F9A799FE8B0BE1463ABD7459A18FC55DFD8A6A24DDD29B54FD098088089C8 SWAP1 PUSH1 0x0 SWAP1 LOG3 POP JUMP JUMPDEST PUSH1 0xA SLOAD PUSH1 0x1 PUSH1 0x1 PUSH1 0xA0 SHL SUB DUP3 AND PUSH1 0x0 SWAP1 DUP2 MSTORE PUSH1 0x4 PUSH1 0x20 MSTORE PUSH1 0x40 DUP2 KECCAK256 SLOAD SWAP1 SWAP2 TIMESTAMP SWAP2 PUSH2 0xFFC SWAP2 SWAP1 PUSH2 0x1F17 JUMP JUMPDEST GT ISZERO SWAP3 SWAP2 POP POP JUMP JUMPDEST PUSH1 0x0 SLOAD PUSH1 0x1 PUSH1 0x1 PUSH1 0xA0 SHL SUB AND CALLER EQ PUSH2 0x102E JUMPI PUSH1 0x40 MLOAD PUSH3 0x461BCD PUSH1 0xE5 SHL DUP2 MSTORE PUSH1 0x4 ADD PUSH2 0x6AF SWAP1 PUSH2 0x1DF0 JUMP JUMPDEST PUSH1 0xC DUP1 SLOAD PUSH1 0x1 PUSH1 0x1 PUSH1 0xA0 SHL SUB NOT AND PUSH1 0x1 PUSH1 0x1 PUSH1 0xA0 SHL SUB SWAP3 SWAP1 SWAP3 AND SWAP2 SWAP1 SWAP2 OR SWAP1 SSTORE JUMP JUMPDEST PUSH1 0x0 SLOAD PUSH1 0x1 PUSH1 0x1 PUSH1 0xA0 SHL SUB AND CALLER EQ PUSH2 0x107A JUMPI PUSH1 0x40 MLOAD PUSH3 0x461BCD PUSH1 0xE5 SHL DUP2 MSTORE PUSH1 0x4 ADD PUSH2 0x6AF SWAP1 PUSH2 0x1DF0 JUMP JUMPDEST PUSH1 0x8 SLOAD PUSH2 0x10A9 SWAP1 PUSH1 0x1 PUSH1 0x1 PUSH1 0xA0 SHL SUB AND PUSH2 0x109C PUSH1 0x0 SLOAD PUSH1 0x1 PUSH1 0x1 PUSH1 0xA0 SHL SUB AND SWAP1 JUMP JUMPDEST PUSH2 0x10A4 PUSH2 0x5E0 JUMP JUMPDEST PUSH2 0x1B0D JUMP JUMPDEST SELFBALANCE DUP1 ISZERO PUSH2 0x10CB JUMPI PUSH2 0x10CB PUSH2 0x10C5 PUSH1 0x0 SLOAD PUSH1 0x1 PUSH1 0x1 PUSH1 0xA0 SHL SUB AND SWAP1 JUMP JUMPDEST DUP3 PUSH2 0x1A2E JUMP JUMPDEST PUSH1 0x0 DUP1 SLOAD PUSH1 0x40 MLOAD PUSH1 0x1 PUSH1 0x1 PUSH1 0xA0 SHL SUB SWAP1 SWAP2 AND SWAP2 PUSH32 0x5E7B34819CD91B239220BEC92FCFD3C10DA2214BA13E4E2B1F6C9CFDBD68A9A2 SWAP2 LOG2 POP JUMP JUMPDEST PUSH1 0x0 SLOAD PUSH1 0x1 PUSH1 0x1 PUSH1 0xA0 SHL SUB AND CALLER EQ PUSH2 0x112E JUMPI PUSH1 0x40 MLOAD PUSH3 0x461BCD PUSH1 0xE5 SHL DUP2 MSTORE PUSH1 0x4 ADD PUSH2 0x6AF SWAP1 PUSH2 0x1DF0 JUMP JUMPDEST PUSH1 0x40 DUP1 MLOAD DUP1 DUP3 ADD SWAP1 SWAP2 MSTORE PUSH1 0x19 DUP2 MSTORE PUSH32 0x61646A7573744D6178416D6F756E745065725265636569766500000000000000 PUSH1 0x20 DUP3 ADD MSTORE PUSH1 0x0 SLOAD PUSH1 0x1 PUSH1 0xA0 SHL SWAP1 DIV PUSH1 0xFF AND ISZERO DUP1 PUSH2 0x11FB JUMPI POP PUSH1 0x1 DUP2 PUSH1 0x40 MLOAD PUSH2 0x1186 SWAP2 SWAP1 PUSH2 0x1DD4 JUMP JUMPDEST SWAP1 DUP2 MSTORE PUSH1 0x20 ADD PUSH1 0x40 MLOAD DUP1 SWAP2 SUB SWAP1 KECCAK256 SLOAD PUSH1 0x0 EQ ISZERO DUP1 ISZERO PUSH2 0x11C3 JUMPI POP TIMESTAMP PUSH1 0x1 DUP3 PUSH1 0x40 MLOAD PUSH2 0x11B1 SWAP2 SWAP1 PUSH2 0x1DD4 JUMP JUMPDEST SWAP1 DUP2 MSTORE PUSH1 0x20 ADD PUSH1 0x40 MLOAD DUP1 SWAP2 SUB SWAP1 KECCAK256 SLOAD GT ISZERO JUMPDEST DUP1 ISZERO PUSH2 0x11FB JUMPI POP TIMESTAMP PUSH3 0x15180 PUSH1 0x1 DUP4 PUSH1 0x40 MLOAD PUSH2 0x11DF SWAP2 SWAP1 PUSH2 0x1DD4 JUMP JUMPDEST SWAP1 DUP2 MSTORE PUSH1 0x20 ADD PUSH1 0x40 MLOAD DUP1 SWAP2 SUB SWAP1 KECCAK256 SLOAD PUSH2 0x11F8 SWAP2 SWAP1 PUSH2 0x1F17 JUMP JUMPDEST LT ISZERO JUMPDEST PUSH2 0x1217 JUMPI PUSH1 0x40 MLOAD PUSH3 0x461BCD PUSH1 0xE5 SHL DUP2 MSTORE PUSH1 0x4 ADD PUSH2 0x6AF SWAP1 PUSH2 0x1E25 JUMP JUMPDEST PUSH1 0x9 SLOAD PUSH1 0x40 MLOAD DUP4 SWAP2 SWAP1 PUSH32 0xD07363C93CA88CA1140B355020CB77B0320B19E19A34BB15AA4566D27C2FABBD SWAP1 PUSH1 0x0 SWAP1 LOG3 PUSH1 0x9 DUP3 SWAP1 SSTORE PUSH2 0x897 DUP2 PUSH2 0xE82 JUMP JUMPDEST PUSH1 0x0 SLOAD PUSH1 0x1 PUSH1 0x1 PUSH1 0xA0 SHL SUB AND CALLER EQ PUSH2 0x127E JUMPI PUSH1 0x40 MLOAD PUSH3 0x461BCD PUSH1 0xE5 SHL DUP2 MSTORE PUSH1 0x4 ADD PUSH2 0x6AF SWAP1 PUSH2 0x1DF0 JUMP JUMPDEST PUSH1 0xC SLOAD PUSH1 0x1 PUSH1 0x1 PUSH1 0xA0 SHL SUB AND PUSH2 0x130F JUMPI PUSH1 0x40 MLOAD PUSH3 0x461BCD PUSH1 0xE5 SHL DUP2 MSTORE PUSH1 0x20 PUSH1 0x4 DUP3 ADD MSTORE PUSH1 0x4A PUSH1 0x24 DUP3 ADD MSTORE PUSH32 0x41424F41543A3A73656E645265776172647341734574683A2054686572652069 PUSH1 0x44 DUP3 ADD MSTORE PUSH32 0x73206E6F20726F7574657220646566696E656420746F207377617020746F6B65 PUSH1 0x64 DUP3 ADD MSTORE PUSH10 0xDCE640CCDEE440CAE8D PUSH1 0xB3 SHL PUSH1 0x84 DUP3 ADD MSTORE PUSH1 0xA4 ADD PUSH2 0x6AF JUMP JUMPDEST PUSH2 0x1317 PUSH2 0x5E0 JUMP JUMPDEST DUP3 GT ISZERO PUSH2 0x139C JUMPI PUSH1 0x40 MLOAD PUSH3 0x461BCD PUSH1 0xE5 SHL DUP2 MSTORE PUSH1 0x20 PUSH1 0x4 DUP3 ADD MSTORE PUSH1 0x47 PUSH1 0x24 DUP3 ADD MSTORE PUSH32 0x41424F41543A3A73656E645265776172647341734574683A2043616E27742073 PUSH1 0x44 DUP3 ADD MSTORE PUSH32 0x656E64206D6F72652072657761726473207468616E20696E2072657761726420 PUSH1 0x64 DUP3 ADD MSTORE PUSH7 0x73797374656D21 PUSH1 0xC8 SHL PUSH1 0x84 DUP3 ADD MSTORE PUSH1 0xA4 ADD PUSH2 0x6AF JUMP JUMPDEST PUSH1 0x9 SLOAD DUP3 GT ISZERO PUSH2 0x1414 JUMPI PUSH1 0x40 MLOAD PUSH3 0x461BCD PUSH1 0xE5 SHL DUP2 MSTORE PUSH1 0x20 PUSH1 0x4 DUP3 ADD MSTORE PUSH1 0x3C PUSH1 0x24 DUP3 ADD MSTORE PUSH32 0x41424F41543A3A73656E645265776172647341734574683A2043616E27742073 PUSH1 0x44 DUP3 ADD MSTORE PUSH32 0x656E64206D6F72652072657761726473207468616E206C696D69742100000000 PUSH1 0x64 DUP3 ADD MSTORE PUSH1 0x84 ADD PUSH2 0x6AF JUMP JUMPDEST PUSH2 0x141D DUP2 PUSH2 0xFD2 JUMP JUMPDEST PUSH2 0x148F JUMPI PUSH1 0x40 MLOAD PUSH3 0x461BCD PUSH1 0xE5 SHL DUP2 MSTORE PUSH1 0x20 PUSH1 0x4 DUP3 ADD MSTORE PUSH1 0x3B PUSH1 0x24 DUP3 ADD MSTORE PUSH32 0x41424F41543A3A73656E645265776172647341734574683A2043616E27742063 PUSH1 0x44 DUP3 ADD MSTORE PUSH32 0x6C61696D206D6F7265207468616E206F6E636520706572206461790000000000 PUSH1 0x64 DUP3 ADD MSTORE PUSH1 0x84 ADD PUSH2 0x6AF JUMP JUMPDEST PUSH1 0x1 PUSH1 0x1 PUSH1 0xA0 SHL SUB DUP2 AND PUSH1 0x0 SWAP1 DUP2 MSTORE PUSH1 0x4 PUSH1 0x20 MSTORE PUSH1 0x40 SWAP1 KECCAK256 TIMESTAMP SWAP1 SSTORE SELFBALANCE PUSH2 0x14B4 DUP4 PUSH2 0x18B6 JUMP JUMPDEST PUSH1 0x0 PUSH2 0x14C0 SELFBALANCE DUP4 PUSH2 0x18A3 JUMP JUMPDEST SWAP1 POP PUSH1 0x0 PUSH2 0x14D9 PUSH1 0x5 SLOAD DUP4 PUSH2 0x1C3E SWAP1 SWAP2 SWAP1 PUSH4 0xFFFFFFFF AND JUMP JUMPDEST SWAP1 POP PUSH2 0x14E5 DUP3 DUP3 PUSH2 0x18A3 JUMP JUMPDEST SWAP2 POP PUSH2 0x14FC PUSH2 0x10C5 PUSH1 0x0 SLOAD PUSH1 0x1 PUSH1 0x1 PUSH1 0xA0 SHL SUB AND SWAP1 JUMP JUMPDEST PUSH2 0x1506 DUP5 DUP4 PUSH2 0x1A2E JUMP JUMPDEST DUP1 DUP3 DUP6 PUSH1 0x1 PUSH1 0x1 PUSH1 0xA0 SHL SUB AND PUSH32 0x75B2EAC24930BF6A8227DBE172D34480E56BE5C6994435067628424190D53431 PUSH1 0x40 MLOAD PUSH1 0x40 MLOAD DUP1 SWAP2 SUB SWAP1 LOG4 POP POP POP POP POP JUMP JUMPDEST PUSH1 0x0 SLOAD PUSH1 0x1 PUSH1 0x1 PUSH1 0xA0 SHL SUB AND CALLER EQ PUSH2 0x156F JUMPI PUSH1 0x40 MLOAD PUSH3 0x461BCD PUSH1 0xE5 SHL DUP2 MSTORE PUSH1 0x4 ADD PUSH2 0x6AF SWAP1 PUSH2 0x1DF0 JUMP JUMPDEST PUSH1 0x1 PUSH1 0x1 PUSH1 0xA0 SHL SUB DUP2 AND PUSH2 0x15D4 JUMPI PUSH1 0x40 MLOAD PUSH3 0x461BCD PUSH1 0xE5 SHL DUP2 MSTORE PUSH1 0x20 PUSH1 0x4 DUP3 ADD MSTORE PUSH1 0x26 PUSH1 0x24 DUP3 ADD MSTORE PUSH32 0x4F776E61626C653A206E6577206F776E657220697320746865207A65726F2061 PUSH1 0x44 DUP3 ADD MSTORE PUSH6 0x646472657373 PUSH1 0xD0 SHL PUSH1 0x64 DUP3 ADD MSTORE PUSH1 0x84 ADD PUSH2 0x6AF JUMP JUMPDEST PUSH2 0x15DD DUP2 PUSH2 0x1853 JUMP JUMPDEST POP JUMP JUMPDEST CALLER PUSH2 0x15F3 PUSH1 0x0 SLOAD PUSH1 0x1 PUSH1 0x1 PUSH1 0xA0 SHL SUB AND SWAP1 JUMP JUMPDEST PUSH1 0x1 PUSH1 0x1 PUSH1 0xA0 SHL SUB AND EQ DUP1 PUSH2 0x1612 JUMPI POP PUSH1 0x2 SLOAD PUSH1 0x1 PUSH1 0x1 PUSH1 0xA0 SHL SUB AND CALLER EQ JUMPDEST PUSH2 0x162E JUMPI PUSH1 0x40 MLOAD PUSH3 0x461BCD PUSH1 0xE5 SHL DUP2 MSTORE PUSH1 0x4 ADD PUSH2 0x6AF SWAP1 PUSH2 0x1E51 JUMP JUMPDEST PUSH1 0x0 DUP1 SLOAD PUSH1 0xFF PUSH1 0xA0 SHL NOT AND PUSH1 0x1 PUSH1 0xA0 SHL OR DUP2 SSTORE PUSH1 0x40 MLOAD PUSH32 0x2C08B62BFAC9A1B19BB1DEC9323F1CE01696A77948B256ABF3603D30F25A864E SWAP2 SWAP1 LOG1 JUMP JUMPDEST PUSH1 0x0 SLOAD PUSH1 0x1 PUSH1 0x1 PUSH1 0xA0 SHL SUB AND CALLER EQ PUSH2 0x1694 JUMPI PUSH1 0x40 MLOAD PUSH3 0x461BCD PUSH1 0xE5 SHL DUP2 MSTORE PUSH1 0x4 ADD PUSH2 0x6AF SWAP1 PUSH2 0x1DF0 JUMP JUMPDEST PUSH1 0x40 DUP1 MLOAD DUP1 DUP3 ADD SWAP1 SWAP2 MSTORE PUSH1 0x11 DUP2 MSTORE PUSH17 0x3AB83230BA32A932BBB0B9322A37B5B2B7 PUSH1 0x79 SHL PUSH1 0x20 DUP3 ADD MSTORE PUSH1 0x0 SLOAD PUSH1 0x1 PUSH1 0xA0 SHL SWAP1 DIV PUSH1 0xFF AND ISZERO DUP1 PUSH2 0x1755 JUMPI POP PUSH1 0x1 DUP2 PUSH1 0x40 MLOAD PUSH2 0x16E0 SWAP2 SWAP1 PUSH2 0x1DD4 JUMP JUMPDEST SWAP1 DUP2 MSTORE PUSH1 0x20 ADD PUSH1 0x40 MLOAD DUP1 SWAP2 SUB SWAP1 KECCAK256 SLOAD PUSH1 0x0 EQ ISZERO DUP1 ISZERO PUSH2 0x171D JUMPI POP TIMESTAMP PUSH1 0x1 DUP3 PUSH1 0x40 MLOAD PUSH2 0x170B SWAP2 SWAP1 PUSH2 0x1DD4 JUMP JUMPDEST SWAP1 DUP2 MSTORE PUSH1 0x20 ADD PUSH1 0x40 MLOAD DUP1 SWAP2 SUB SWAP1 KECCAK256 SLOAD GT ISZERO JUMPDEST DUP1 ISZERO PUSH2 0x1755 JUMPI POP TIMESTAMP PUSH3 0x15180 PUSH1 0x1 DUP4 PUSH1 0x40 MLOAD PUSH2 0x1739 SWAP2 SWAP1 PUSH2 0x1DD4 JUMP JUMPDEST SWAP1 DUP2 MSTORE PUSH1 0x20 ADD PUSH1 0x40 MLOAD DUP1 SWAP2 SUB SWAP1 KECCAK256 SLOAD PUSH2 0x1752 SWAP2 SWAP1 PUSH2 0x1F17 JUMP JUMPDEST LT ISZERO JUMPDEST PUSH2 0x1771 JUMPI PUSH1 0x40 MLOAD PUSH3 0x461BCD PUSH1 0xE5 SHL DUP2 MSTORE PUSH1 0x4 ADD PUSH2 0x6AF SWAP1 PUSH2 0x1E25 JUMP JUMPDEST PUSH1 0x8 SLOAD PUSH1 0x1 PUSH1 0x1 PUSH1 0xA0 SHL SUB DUP4 DUP2 AND SWAP2 AND EQ ISZERO PUSH2 0x17F5 JUMPI PUSH1 0x40 MLOAD PUSH3 0x461BCD PUSH1 0xE5 SHL DUP2 MSTORE PUSH1 0x20 PUSH1 0x4 DUP3 ADD MSTORE PUSH1 0x3F PUSH1 0x24 DUP3 ADD MSTORE PUSH32 0x41424F41543A757064617465526577617264546F6B656E3A20596F752063616E PUSH1 0x44 DUP3 ADD MSTORE PUSH32 0x277420757064617465207468652065786163742073616D6520746F6B656E7300 PUSH1 0x64 DUP3 ADD MSTORE PUSH1 0x84 ADD PUSH2 0x6AF JUMP JUMPDEST PUSH1 0x8 SLOAD PUSH1 0x40 MLOAD PUSH1 0x1 PUSH1 0x1 PUSH1 0xA0 SHL SUB DUP1 DUP6 AND SWAP3 AND SWAP1 PUSH32 0xCB89265F21B9FC8710E9D9E42BBB37AF1EB207454DECA6D5E36787BE2367C1D6 SWAP1 PUSH1 0x0 SWAP1 LOG3 PUSH1 0x8 DUP1 SLOAD PUSH1 0x1 PUSH1 0x1 PUSH1 0xA0 SHL SUB NOT AND PUSH1 0x1 PUSH1 0x1 PUSH1 0xA0 SHL SUB DUP5 AND OR SWAP1 SSTORE PUSH2 0x897 DUP2 PUSH2 0xE82 JUMP JUMPDEST PUSH1 0x0 DUP1 SLOAD PUSH1 0x1 PUSH1 0x1 PUSH1 0xA0 SHL SUB DUP4 DUP2 AND PUSH1 0x1 PUSH1 0x1 PUSH1 0xA0 SHL SUB NOT DUP4 AND DUP2 OR DUP5 SSTORE PUSH1 0x40 MLOAD SWAP2 SWAP1 SWAP3 AND SWAP3 DUP4 SWAP2 PUSH32 0x8BE0079C531659141344CD1FD0A4F28419497F9722A3DAAFE3B4186F6B6457E0 SWAP2 SWAP1 LOG3 POP POP JUMP JUMPDEST PUSH1 0x0 PUSH2 0x18AF DUP3 DUP5 PUSH2 0x1F51 JUMP JUMPDEST SWAP4 SWAP3 POP POP POP JUMP JUMPDEST PUSH1 0x40 DUP1 MLOAD PUSH1 0x2 DUP1 DUP3 MSTORE PUSH1 0x60 DUP3 ADD DUP4 MSTORE PUSH1 0x0 SWAP3 PUSH1 0x20 DUP4 ADD SWAP1 DUP1 CALLDATASIZE DUP4 CALLDATACOPY POP POP PUSH1 0x8 SLOAD DUP3 MLOAD SWAP3 SWAP4 POP PUSH1 0x1 PUSH1 0x1 PUSH1 0xA0 SHL SUB AND SWAP2 DUP4 SWAP2 POP PUSH1 0x0 SWAP1 PUSH2 0x18F7 JUMPI PUSH2 0x18F7 PUSH2 0x1FAE JUMP JUMPDEST PUSH1 0x1 PUSH1 0x1 PUSH1 0xA0 SHL SUB SWAP3 DUP4 AND PUSH1 0x20 SWAP2 DUP3 MUL SWAP3 SWAP1 SWAP3 ADD ADD MSTORE PUSH1 0xB SLOAD DUP3 MLOAD SWAP2 AND SWAP1 DUP3 SWAP1 PUSH1 0x1 SWAP1 DUP2 LT PUSH2 0x1928 JUMPI PUSH2 0x1928 PUSH2 0x1FAE JUMP JUMPDEST PUSH1 0x1 PUSH1 0x1 PUSH1 0xA0 SHL SUB SWAP3 DUP4 AND PUSH1 0x20 SWAP2 DUP3 MUL SWAP3 SWAP1 SWAP3 ADD ADD MSTORE PUSH1 0x8 SLOAD PUSH1 0xC SLOAD PUSH1 0x40 MLOAD PUSH4 0x95EA7B3 PUSH1 0xE0 SHL DUP2 MSTORE SWAP1 DUP4 AND PUSH1 0x4 DUP3 ADD MSTORE PUSH1 0x24 DUP2 ADD DUP6 SWAP1 MSTORE SWAP2 AND SWAP1 PUSH4 0x95EA7B3 SWAP1 PUSH1 0x44 ADD PUSH1 0x20 PUSH1 0x40 MLOAD DUP1 DUP4 SUB DUP2 PUSH1 0x0 DUP8 DUP1 EXTCODESIZE ISZERO DUP1 ISZERO PUSH2 0x1986 JUMPI PUSH1 0x0 DUP1 REVERT JUMPDEST POP GAS CALL ISZERO DUP1 ISZERO PUSH2 0x199A JUMPI RETURNDATASIZE PUSH1 0x0 DUP1 RETURNDATACOPY RETURNDATASIZE PUSH1 0x0 REVERT JUMPDEST POP POP POP POP PUSH1 0x40 MLOAD RETURNDATASIZE PUSH1 0x1F NOT PUSH1 0x1F DUP3 ADD AND DUP3 ADD DUP1 PUSH1 0x40 MSTORE POP DUP2 ADD SWAP1 PUSH2 0x19BE SWAP2 SWAP1 PUSH2 0x1C67 JUMP JUMPDEST POP PUSH1 0xC SLOAD PUSH1 0x40 MLOAD PUSH4 0xB6A046B3 PUSH1 0xE0 SHL DUP2 MSTORE PUSH1 0x1 PUSH1 0x1 PUSH1 0xA0 SHL SUB SWAP1 SWAP2 AND SWAP1 PUSH4 0xB6A046B3 SWAP1 PUSH2 0x19F8 SWAP1 DUP6 SWAP1 PUSH1 0x0 SWAP1 DUP7 SWAP1 ADDRESS SWAP1 TIMESTAMP SWAP1 PUSH1 0x4 ADD PUSH2 0x1EA6 JUMP JUMPDEST PUSH1 0x0 PUSH1 0x40 MLOAD DUP1 DUP4 SUB DUP2 PUSH1 0x0 DUP8 DUP1 EXTCODESIZE ISZERO DUP1 ISZERO PUSH2 0x1A12 JUMPI PUSH1 0x0 DUP1 REVERT JUMPDEST POP GAS CALL ISZERO DUP1 ISZERO PUSH2 0x1A26 JUMPI RETURNDATASIZE PUSH1 0x0 DUP1 RETURNDATACOPY RETURNDATASIZE PUSH1 0x0 REVERT JUMPDEST POP POP POP POP POP POP JUMP JUMPDEST PUSH1 0x40 DUP1 MLOAD PUSH1 0x0 DUP1 DUP3 MSTORE PUSH1 0x20 DUP3 ADD SWAP1 SWAP3 MSTORE PUSH1 0x1 PUSH1 0x1 PUSH1 0xA0 SHL SUB DUP5 AND SWAP1 DUP4 SWAP1 PUSH1 0x40 MLOAD PUSH2 0x1A58 SWAP2 SWAP1 PUSH2 0x1DD4 JUMP JUMPDEST PUSH1 0x0 PUSH1 0x40 MLOAD DUP1 DUP4 SUB DUP2 DUP6 DUP8 GAS CALL SWAP3 POP POP POP RETURNDATASIZE DUP1 PUSH1 0x0 DUP2 EQ PUSH2 0x1A95 JUMPI PUSH1 0x40 MLOAD SWAP2 POP PUSH1 0x1F NOT PUSH1 0x3F RETURNDATASIZE ADD AND DUP3 ADD PUSH1 0x40 MSTORE RETURNDATASIZE DUP3 MSTORE RETURNDATASIZE PUSH1 0x0 PUSH1 0x20 DUP5 ADD RETURNDATACOPY PUSH2 0x1A9A JUMP JUMPDEST PUSH1 0x60 SWAP2 POP JUMPDEST POP POP SWAP1 POP DUP1 PUSH2 0x1B08 JUMPI PUSH1 0x40 MLOAD PUSH3 0x461BCD PUSH1 0xE5 SHL DUP2 MSTORE PUSH1 0x20 PUSH1 0x4 DUP3 ADD MSTORE PUSH1 0x34 PUSH1 0x24 DUP3 ADD MSTORE PUSH32 0x5472616E7366657248656C7065723A3A736166655472616E736665724554483A PUSH1 0x44 DUP3 ADD MSTORE PUSH20 0x8115512081D1C985B9CD9995C8819985A5B1959 PUSH1 0x62 SHL PUSH1 0x64 DUP3 ADD MSTORE PUSH1 0x84 ADD PUSH2 0x6AF JUMP JUMPDEST POP POP POP JUMP JUMPDEST PUSH1 0x40 DUP1 MLOAD PUSH1 0x1 PUSH1 0x1 PUSH1 0xA0 SHL SUB DUP5 DUP2 AND PUSH1 0x24 DUP4 ADD MSTORE PUSH1 0x44 DUP1 DUP4 ADD DUP6 SWAP1 MSTORE DUP4 MLOAD DUP1 DUP5 SUB SWAP1 SWAP2 ADD DUP2 MSTORE PUSH1 0x64 SWAP1 SWAP3 ADD DUP4 MSTORE PUSH1 0x20 DUP3 ADD DUP1 MLOAD PUSH1 0x1 PUSH1 0x1 PUSH1 0xE0 SHL SUB AND PUSH4 0xA9059CBB PUSH1 0xE0 SHL OR SWAP1 MSTORE SWAP2 MLOAD PUSH1 0x0 SWAP3 DUP4 SWAP3 SWAP1 DUP8 AND SWAP2 PUSH2 0x1B69 SWAP2 SWAP1 PUSH2 0x1DD4 JUMP JUMPDEST PUSH1 0x0 PUSH1 0x40 MLOAD DUP1 DUP4 SUB DUP2 PUSH1 0x0 DUP7 GAS CALL SWAP2 POP POP RETURNDATASIZE DUP1 PUSH1 0x0 DUP2 EQ PUSH2 0x1BA6 JUMPI PUSH1 0x40 MLOAD SWAP2 POP PUSH1 0x1F NOT PUSH1 0x3F RETURNDATASIZE ADD AND DUP3 ADD PUSH1 0x40 MSTORE RETURNDATASIZE DUP3 MSTORE RETURNDATASIZE PUSH1 0x0 PUSH1 0x20 DUP5 ADD RETURNDATACOPY PUSH2 0x1BAB JUMP JUMPDEST PUSH1 0x60 SWAP2 POP JUMPDEST POP SWAP2 POP SWAP2 POP DUP2 DUP1 ISZERO PUSH2 0x1BD5 JUMPI POP DUP1 MLOAD ISZERO DUP1 PUSH2 0x1BD5 JUMPI POP DUP1 DUP1 PUSH1 0x20 ADD SWAP1 MLOAD DUP2 ADD SWAP1 PUSH2 0x1BD5 SWAP2 SWAP1 PUSH2 0x1C67 JUMP JUMPDEST PUSH2 0x1C37 JUMPI PUSH1 0x40 MLOAD PUSH3 0x461BCD PUSH1 0xE5 SHL DUP2 MSTORE PUSH1 0x20 PUSH1 0x4 DUP3 ADD MSTORE PUSH1 0x2D PUSH1 0x24 DUP3 ADD MSTORE PUSH32 0x5472616E7366657248656C7065723A3A736166655472616E736665723A207472 PUSH1 0x44 DUP3 ADD MSTORE PUSH13 0x185B9CD9995C8819985A5B1959 PUSH1 0x9A SHL PUSH1 0x64 DUP3 ADD MSTORE PUSH1 0x84 ADD PUSH2 0x6AF JUMP JUMPDEST POP POP POP POP POP JUMP JUMPDEST PUSH1 0x0 PUSH2 0x18AF DUP3 DUP5 PUSH2 0x1F2F JUMP JUMPDEST PUSH1 0x0 PUSH1 0x20 DUP3 DUP5 SUB SLT ISZERO PUSH2 0x1C5C JUMPI PUSH1 0x0 DUP1 REVERT JUMPDEST DUP2 CALLDATALOAD PUSH2 0x18AF DUP2 PUSH2 0x1FDA JUMP JUMPDEST PUSH1 0x0 PUSH1 0x20 DUP3 DUP5 SUB SLT ISZERO PUSH2 0x1C79 JUMPI PUSH1 0x0 DUP1 REVERT JUMPDEST DUP2 MLOAD DUP1 ISZERO ISZERO DUP2 EQ PUSH2 0x18AF JUMPI PUSH1 0x0 DUP1 REVERT JUMPDEST PUSH1 0x0 PUSH1 0x20 DUP3 DUP5 SUB SLT ISZERO PUSH2 0x1C9B JUMPI PUSH1 0x0 DUP1 REVERT JUMPDEST DUP2 CALLDATALOAD PUSH8 0xFFFFFFFFFFFFFFFF DUP1 DUP3 GT ISZERO PUSH2 0x1CB3 JUMPI PUSH1 0x0 DUP1 REVERT JUMPDEST DUP2 DUP5 ADD SWAP2 POP DUP5 PUSH1 0x1F DUP4 ADD SLT PUSH2 0x1CC7 JUMPI PUSH1 0x0 DUP1 REVERT JUMPDEST DUP2 CALLDATALOAD DUP2 DUP2 GT ISZERO PUSH2 0x1CD9 JUMPI PUSH2 0x1CD9 PUSH2 0x1FC4 JUMP JUMPDEST PUSH1 0x40 MLOAD PUSH1 0x1F DUP3 ADD PUSH1 0x1F NOT SWAP1 DUP2 AND PUSH1 0x3F ADD AND DUP2 ADD SWAP1 DUP4 DUP3 GT DUP2 DUP4 LT OR ISZERO PUSH2 0x1D01 JUMPI PUSH2 0x1D01 PUSH2 0x1FC4 JUMP JUMPDEST DUP2 PUSH1 0x40 MSTORE DUP3 DUP2 MSTORE DUP8 PUSH1 0x20 DUP5 DUP8 ADD ADD GT ISZERO PUSH2 0x1D1A JUMPI PUSH1 0x0 DUP1 REVERT JUMPDEST DUP3 PUSH1 0x20 DUP7 ADD PUSH1 0x20 DUP4 ADD CALLDATACOPY PUSH1 0x0 SWAP3 DUP2 ADD PUSH1 0x20 ADD SWAP3 SWAP1 SWAP3 MSTORE POP SWAP6 SWAP5 POP POP POP POP POP JUMP JUMPDEST PUSH1 0x0 PUSH1 0x20 DUP3 DUP5 SUB SLT ISZERO PUSH2 0x1D4C JUMPI PUSH1 0x0 DUP1 REVERT JUMPDEST POP CALLDATALOAD SWAP2 SWAP1 POP JUMP JUMPDEST PUSH1 0x0 PUSH1 0x20 DUP3 DUP5 SUB SLT ISZERO PUSH2 0x1D65 JUMPI PUSH1 0x0 DUP1 REVERT JUMPDEST POP MLOAD SWAP2 SWAP1 POP JUMP JUMPDEST PUSH1 0x0 DUP1 PUSH1 0x40 DUP4 DUP6 SUB SLT ISZERO PUSH2 0x1D7F JUMPI PUSH1 0x0 DUP1 REVERT JUMPDEST DUP3 CALLDATALOAD SWAP2 POP PUSH1 0x20 DUP4 ADD CALLDATALOAD PUSH2 0x1D91 DUP2 PUSH2 0x1FDA JUMP JUMPDEST DUP1 SWAP2 POP POP SWAP3 POP SWAP3 SWAP1 POP JUMP JUMPDEST PUSH1 0x0 DUP1 PUSH1 0x0 PUSH1 0x60 DUP5 DUP7 SUB SLT ISZERO PUSH2 0x1DB1 JUMPI PUSH1 0x0 DUP1 REVERT JUMPDEST DUP4 CALLDATALOAD SWAP3 POP PUSH1 0x20 DUP5 ADD CALLDATALOAD PUSH2 0x1DC3 DUP2 PUSH2 0x1FDA JUMP JUMPDEST SWAP3 SWAP6 SWAP3 SWAP5 POP POP POP PUSH1 0x40 SWAP2 SWAP1 SWAP2 ADD CALLDATALOAD SWAP1 JUMP JUMPDEST PUSH1 0x0 DUP3 MLOAD PUSH2 0x1DE6 DUP2 DUP5 PUSH1 0x20 DUP8 ADD PUSH2 0x1F68 JUMP JUMPDEST SWAP2 SWAP1 SWAP2 ADD SWAP3 SWAP2 POP POP JUMP JUMPDEST PUSH1 0x20 DUP1 DUP3 MSTORE DUP2 DUP2 ADD MSTORE PUSH32 0x4F776E61626C653A2063616C6C6572206973206E6F7420746865206F776E6572 PUSH1 0x40 DUP3 ADD MSTORE PUSH1 0x60 ADD SWAP1 JUMP JUMPDEST PUSH1 0x20 DUP1 DUP3 MSTORE PUSH1 0x12 SWAP1 DUP3 ADD MSTORE PUSH18 0x119D5B98DD1A5BDB881A5CC81B1BD8DAD959 PUSH1 0x72 SHL PUSH1 0x40 DUP3 ADD MSTORE PUSH1 0x60 ADD SWAP1 JUMP JUMPDEST PUSH1 0x20 DUP1 DUP3 MSTORE PUSH1 0x35 SWAP1 DUP3 ADD MSTORE PUSH32 0x6F70657261746F723A2063616C6C6572206973206E6F7420616C6C6F77656420 PUSH1 0x40 DUP3 ADD MSTORE PUSH21 0x3A379031B0B636103A3434B990333AB731BA34B7B7 PUSH1 0x59 SHL PUSH1 0x60 DUP3 ADD MSTORE PUSH1 0x80 ADD SWAP1 JUMP JUMPDEST PUSH1 0x0 PUSH1 0xA0 DUP3 ADD DUP8 DUP4 MSTORE PUSH1 0x20 DUP8 DUP2 DUP6 ADD MSTORE PUSH1 0xA0 PUSH1 0x40 DUP6 ADD MSTORE DUP2 DUP8 MLOAD DUP1 DUP5 MSTORE PUSH1 0xC0 DUP7 ADD SWAP2 POP DUP3 DUP10 ADD SWAP4 POP PUSH1 0x0 JUMPDEST DUP2 DUP2 LT ISZERO PUSH2 0x1EF6 JUMPI DUP5 MLOAD PUSH1 0x1 PUSH1 0x1 PUSH1 0xA0 SHL SUB AND DUP4 MSTORE SWAP4 DUP4 ADD SWAP4 SWAP2 DUP4 ADD SWAP2 PUSH1 0x1 ADD PUSH2 0x1ED1 JUMP JUMPDEST POP POP PUSH1 0x1 PUSH1 0x1 PUSH1 0xA0 SHL SUB SWAP7 SWAP1 SWAP7 AND PUSH1 0x60 DUP6 ADD MSTORE POP POP POP PUSH1 0x80 ADD MSTORE SWAP4 SWAP3 POP POP POP JUMP JUMPDEST PUSH1 0x0 DUP3 NOT DUP3 GT ISZERO PUSH2 0x1F2A JUMPI PUSH2 0x1F2A PUSH2 0x1F98 JUMP JUMPDEST POP ADD SWAP1 JUMP JUMPDEST PUSH1 0x0 DUP3 PUSH2 0x1F4C JUMPI PUSH4 0x4E487B71 PUSH1 0xE0 SHL PUSH1 0x0 MSTORE PUSH1 0x12 PUSH1 0x4 MSTORE PUSH1 0x24 PUSH1 0x0 REVERT JUMPDEST POP DIV SWAP1 JUMP JUMPDEST PUSH1 0x0 DUP3 DUP3 LT ISZERO PUSH2 0x1F63 JUMPI PUSH2 0x1F63 PUSH2 0x1F98 JUMP JUMPDEST POP SUB SWAP1 JUMP JUMPDEST PUSH1 0x0 JUMPDEST DUP4 DUP2 LT ISZERO PUSH2 0x1F83 JUMPI DUP2 DUP2 ADD MLOAD DUP4 DUP3 ADD MSTORE PUSH1 0x20 ADD PUSH2 0x1F6B JUMP JUMPDEST DUP4 DUP2 GT ISZERO PUSH2 0x1F92 JUMPI PUSH1 0x0 DUP5 DUP5 ADD MSTORE JUMPDEST POP POP POP POP JUMP JUMPDEST PUSH4 0x4E487B71 PUSH1 0xE0 SHL PUSH1 0x0 MSTORE PUSH1 0x11 PUSH1 0x4 MSTORE PUSH1 0x24 PUSH1 0x0 REVERT JUMPDEST PUSH4 0x4E487B71 PUSH1 0xE0 SHL PUSH1 0x0 MSTORE PUSH1 0x32 PUSH1 0x4 MSTORE PUSH1 0x24 PUSH1 0x0 REVERT JUMPDEST PUSH4 0x4E487B71 PUSH1 0xE0 SHL PUSH1 0x0 MSTORE PUSH1 0x41 PUSH1 0x4 MSTORE PUSH1 0x24 PUSH1 0x0 REVERT JUMPDEST PUSH1 0x1 PUSH1 0x1 PUSH1 0xA0 SHL SUB DUP2 AND DUP2 EQ PUSH2 0x15DD JUMPI PUSH1 0x0 DUP1 REVERT INVALID LOG2 PUSH5 0x6970667358 0x22 SLT KECCAK256 SWAP15 JUMPDEST 0x23 LOG1 0xB1 0xF7 SWAP5 SLT 0xE3 0xD2 PUSH10 0xACBC6541392DBF67A36 0x29 SELFDESTRUCT STATICCALL 0xFB 0x2C 0x4F SSTORE PUSH2 0x6130 SWAP8 PUSH5 0x736F6C6343 STOP ADDMOD SMOD STOP CALLER 0x4F PUSH24 0x6E61626C653A2063616C6C6572206973206E6F7420746865 KECCAK256 PUSH16 0x776E6572000000000000000000000000 "
				},
				"gasEstimates": {
					"creation": {
						"codeDepositCost": "1645800",
						"executionCost": "infinite",
						"totalCost": "infinite"
					},
					"external": {
						"_claimTimes(address)": "2568",
						"_devWallet()": "2406",
						"_maxAmountPerReceive()": "2352",
						"_oracleWallet()": "2383",
						"_rewardToken()": "2449",
						"_rewards(address)": "2615",
						"_router()": "2426",
						"_timeBetweenClaims()": "2331",
						"_weth()": "2448",
						"adjustMaxAmountPerReceive(uint256)": "infinite",
						"canClaim(address)": "4794",
						"changeFee(uint256)": "infinite",
						"changeOracleWallet(address)": "infinite",
						"emergencyWithdraw()": "infinite",
						"getBalance()": "infinite",
						"getEthBalance()": "229",
						"isLockEnabled()": "2395",
						"lockFunction(string)": "infinite",
						"maintainer()": "2376",
						"nativeSwapFee()": "2351",
						"owner()": "2443",
						"renounceOwnership()": "28182",
						"sendRewardAsEth(uint256,address)": "infinite",
						"sendRewards(uint256,address,uint256)": "infinite",
						"setMaintainer(address)": "infinite",
						"setRouter(address)": "26794",
						"setTimelockEnabled()": "29507",
						"timelock(string)": "infinite",
						"transferOwnership(address)": "infinite",
						"unlockFunction(string)": "infinite",
						"updateRewardToken(address)": "infinite"
					},
					"internal": {
						"swapTokensForEth(uint256)": "infinite"
					}
				},
				"methodIdentifiers": {
					"_claimTimes(address)": "f7e77bc2",
					"_devWallet()": "11a63e17",
					"_maxAmountPerReceive()": "5dd53826",
					"_oracleWallet()": "a221a15f",
					"_rewardToken()": "b59c6e0e",
					"_rewards(address)": "7d6dfb7e",
					"_router()": "edae876f",
					"_timeBetweenClaims()": "0126ffb9",
					"_weth()": "a1764595",
					"adjustMaxAmountPerReceive(uint256)": "de996a6e",
					"canClaim(address)": "bf3506c1",
					"changeFee(uint256)": "6a1db1bf",
					"changeOracleWallet(address)": "63cd79b7",
					"emergencyWithdraw()": "db2e21bc",
					"getBalance()": "12065fe0",
					"getEthBalance()": "70ed0ada",
					"isLockEnabled()": "a347511a",
					"lockFunction(string)": "9f531156",
					"maintainer()": "9850d32b",
					"nativeSwapFee()": "c07a1d4d",
					"owner()": "8da5cb5b",
					"renounceOwnership()": "715018a6",
					"sendRewardAsEth(uint256,address)": "e7b6ebba",
					"sendRewards(uint256,address,uint256)": "9f371995",
					"setMaintainer(address)": "13ea5d29",
					"setRouter(address)": "c0d78655",
					"setTimelockEnabled()": "f4762fd6",
					"timelock(string)": "f98080c0",
					"transferOwnership(address)": "f2fde38b",
					"unlockFunction(string)": "a607494a",
					"updateRewardToken(address)": "f8cf31cb"
				}
			},
			"storageLayout": {
				"storage": [
					{
						"astId": 7,
						"contract": "contracts/chains/kardiachain/RewardSystem.sol:RewardSystem",
						"label": "_owner",
						"offset": 0,
						"slot": "0",
						"type": "t_address"
					},
					{
						"astId": 2782,
						"contract": "contracts/chains/kardiachain/RewardSystem.sol:RewardSystem",
						"label": "isLockEnabled",
						"offset": 20,
						"slot": "0",
						"type": "t_bool"
					},
					{
						"astId": 2786,
						"contract": "contracts/chains/kardiachain/RewardSystem.sol:RewardSystem",
						"label": "timelock",
						"offset": 0,
						"slot": "1",
						"type": "t_mapping(t_string_memory_ptr,t_uint256)"
					},
					{
						"astId": 2791,
						"contract": "contracts/chains/kardiachain/RewardSystem.sol:RewardSystem",
						"label": "_maintainer",
						"offset": 0,
						"slot": "2",
						"type": "t_address"
					},
					{
						"astId": 1801,
						"contract": "contracts/chains/kardiachain/RewardSystem.sol:RewardSystem",
						"label": "_rewards",
						"offset": 0,
						"slot": "3",
						"type": "t_mapping(t_address,t_bool)"
					},
					{
						"astId": 1805,
						"contract": "contracts/chains/kardiachain/RewardSystem.sol:RewardSystem",
						"label": "_claimTimes",
						"offset": 0,
						"slot": "4",
						"type": "t_mapping(t_address,t_uint256)"
					},
					{
						"astId": 1808,
						"contract": "contracts/chains/kardiachain/RewardSystem.sol:RewardSystem",
						"label": "nativeSwapFee",
						"offset": 0,
						"slot": "5",
						"type": "t_uint256"
					},
					{
						"astId": 1811,
						"contract": "contracts/chains/kardiachain/RewardSystem.sol:RewardSystem",
						"label": "_oracleWallet",
						"offset": 0,
						"slot": "6",
						"type": "t_address"
					},
					{
						"astId": 1814,
						"contract": "contracts/chains/kardiachain/RewardSystem.sol:RewardSystem",
						"label": "_devWallet",
						"offset": 0,
						"slot": "7",
						"type": "t_address"
					},
					{
						"astId": 1817,
						"contract": "contracts/chains/kardiachain/RewardSystem.sol:RewardSystem",
						"label": "_rewardToken",
						"offset": 0,
						"slot": "8",
						"type": "t_contract(IERC20)727"
					},
					{
						"astId": 1820,
						"contract": "contracts/chains/kardiachain/RewardSystem.sol:RewardSystem",
						"label": "_maxAmountPerReceive",
						"offset": 0,
						"slot": "9",
						"type": "t_uint256"
					},
					{
						"astId": 1823,
						"contract": "contracts/chains/kardiachain/RewardSystem.sol:RewardSystem",
						"label": "_timeBetweenClaims",
						"offset": 0,
						"slot": "10",
						"type": "t_uint256"
					},
					{
						"astId": 1826,
						"contract": "contracts/chains/kardiachain/RewardSystem.sol:RewardSystem",
						"label": "_weth",
						"offset": 0,
						"slot": "11",
						"type": "t_address"
					},
					{
						"astId": 1832,
						"contract": "contracts/chains/kardiachain/RewardSystem.sol:RewardSystem",
						"label": "_router",
						"offset": 0,
						"slot": "12",
						"type": "t_contract(IKaiDexRouter)2767"
					}
				],
				"types": {
					"t_address": {
						"encoding": "inplace",
						"label": "address",
						"numberOfBytes": "20"
					},
					"t_bool": {
						"encoding": "inplace",
						"label": "bool",
						"numberOfBytes": "1"
					},
					"t_contract(IERC20)727": {
						"encoding": "inplace",
						"label": "contract IERC20",
						"numberOfBytes": "20"
					},
					"t_contract(IKaiDexRouter)2767": {
						"encoding": "inplace",
						"label": "contract IKaiDexRouter",
						"numberOfBytes": "20"
					},
					"t_mapping(t_address,t_bool)": {
						"encoding": "mapping",
						"key": "t_address",
						"label": "mapping(address => bool)",
						"numberOfBytes": "32",
						"value": "t_bool"
					},
					"t_mapping(t_address,t_uint256)": {
						"encoding": "mapping",
						"key": "t_address",
						"label": "mapping(address => uint256)",
						"numberOfBytes": "32",
						"value": "t_uint256"
					},
					"t_mapping(t_string_memory_ptr,t_uint256)": {
						"encoding": "mapping",
						"key": "t_string_memory_ptr",
						"label": "mapping(string => uint256)",
						"numberOfBytes": "32",
						"value": "t_uint256"
					},
					"t_string_memory_ptr": {
						"encoding": "bytes",
						"label": "string",
						"numberOfBytes": "32"
					},
					"t_uint256": {
						"encoding": "inplace",
						"label": "uint256",
						"numberOfBytes": "32"
					}
				}
			},
			"userdoc": {
				"kind": "user",
				"methods": {},
				"version": 1
			}
		}
	}
}