{
	"contracts/chains/kardiachain/RewardSystem.sol": {
		"RewardSystem": {
			"abi": [
				{
					"inputs": [
						{
							"internalType": "contract IERC20",
							"name": "rewardToken",
							"type": "address"
						}
					],
					"stateMutability": "nonpayable",
					"type": "constructor"
				},
				{
					"anonymous": false,
					"inputs": [
						{
							"indexed": true,
							"internalType": "uint256",
							"name": "previousCost",
							"type": "uint256"
						},
						{
							"indexed": true,
							"internalType": "uint256",
							"name": "cost",
							"type": "uint256"
						}
					],
					"name": "ChangedGasCost",
					"type": "event"
				},
				{
					"anonymous": false,
					"inputs": [
						{
							"indexed": true,
							"internalType": "uint256",
							"name": "previousAmount",
							"type": "uint256"
						},
						{
							"indexed": true,
							"internalType": "uint256",
							"name": "amount",
							"type": "uint256"
						}
					],
					"name": "ChangedMaxAmountPerReceive",
					"type": "event"
				},
				{
					"anonymous": false,
					"inputs": [
						{
							"indexed": true,
							"internalType": "address",
							"name": "previousAddress",
							"type": "address"
						},
						{
							"indexed": true,
							"internalType": "address",
							"name": "newAddress",
							"type": "address"
						}
					],
					"name": "ChangedOracleWallet",
					"type": "event"
				},
				{
					"anonymous": false,
					"inputs": [
						{
							"indexed": true,
							"internalType": "address",
							"name": "previousToken",
							"type": "address"
						},
						{
							"indexed": true,
							"internalType": "address",
							"name": "newToken",
							"type": "address"
						}
					],
					"name": "ChangedRewardToken",
					"type": "event"
				},
				{
					"anonymous": false,
					"inputs": [
						{
							"indexed": true,
							"internalType": "address",
							"name": "owner",
							"type": "address"
						}
					],
					"name": "EmergencyWithdraw",
					"type": "event"
				},
				{
					"anonymous": false,
					"inputs": [],
					"name": "EnabledLock",
					"type": "event"
				},
				{
					"anonymous": false,
					"inputs": [
						{
							"indexed": true,
							"internalType": "address",
							"name": "owner",
							"type": "address"
						}
					],
					"name": "EnabledRewards",
					"type": "event"
				},
				{
					"anonymous": false,
					"inputs": [
						{
							"indexed": true,
							"internalType": "address",
							"name": "previousMaintainer",
							"type": "address"
						},
						{
							"indexed": true,
							"internalType": "address",
							"name": "newMaintainer",
							"type": "address"
						}
					],
					"name": "MaintainerTransferred",
					"type": "event"
				},
				{
					"anonymous": false,
					"inputs": [
						{
							"indexed": true,
							"internalType": "address",
							"name": "previousOwner",
							"type": "address"
						},
						{
							"indexed": true,
							"internalType": "address",
							"name": "newOwner",
							"type": "address"
						}
					],
					"name": "OwnershipTransferred",
					"type": "event"
				},
				{
					"anonymous": false,
					"inputs": [
						{
							"indexed": true,
							"internalType": "address",
							"name": "owner",
							"type": "address"
						},
						{
							"indexed": true,
							"internalType": "uint256",
							"name": "amount",
							"type": "uint256"
						}
					],
					"name": "SentRewards",
					"type": "event"
				},
				{
					"anonymous": false,
					"inputs": [
						{
							"indexed": true,
							"internalType": "address",
							"name": "owner",
							"type": "address"
						},
						{
							"indexed": true,
							"internalType": "uint256",
							"name": "amount",
							"type": "uint256"
						},
						{
							"indexed": true,
							"internalType": "uint256",
							"name": "fees",
							"type": "uint256"
						}
					],
					"name": "SentRewardsETH",
					"type": "event"
				},
				{
					"anonymous": false,
					"inputs": [
						{
							"indexed": true,
							"internalType": "string",
							"name": "functionName",
							"type": "string"
						},
						{
							"indexed": true,
							"internalType": "uint256",
							"name": "unlockedAt",
							"type": "uint256"
						}
					],
					"name": "UnlockedFunction",
					"type": "event"
				},
				{
					"inputs": [
						{
							"internalType": "address",
							"name": "",
							"type": "address"
						}
					],
					"name": "_claimTimes",
					"outputs": [
						{
							"internalType": "uint256",
							"name": "",
							"type": "uint256"
						}
					],
					"stateMutability": "view",
					"type": "function"
				},
				{
					"inputs": [],
					"name": "_devWallet",
					"outputs": [
						{
							"internalType": "address",
							"name": "",
							"type": "address"
						}
					],
					"stateMutability": "view",
					"type": "function"
				},
				{
					"inputs": [],
					"name": "_gasCost",
					"outputs": [
						{
							"internalType": "uint256",
							"name": "",
							"type": "uint256"
						}
					],
					"stateMutability": "view",
					"type": "function"
				},
				{
					"inputs": [],
					"name": "_maxAmountPerReceive",
					"outputs": [
						{
							"internalType": "uint256",
							"name": "",
							"type": "uint256"
						}
					],
					"stateMutability": "view",
					"type": "function"
				},
				{
					"inputs": [],
					"name": "_oracleWallet",
					"outputs": [
						{
							"internalType": "address",
							"name": "",
							"type": "address"
						}
					],
					"stateMutability": "view",
					"type": "function"
				},
				{
					"inputs": [],
					"name": "_rewardToken",
					"outputs": [
						{
							"internalType": "contract IERC20",
							"name": "",
							"type": "address"
						}
					],
					"stateMutability": "view",
					"type": "function"
				},
				{
					"inputs": [
						{
							"internalType": "address",
							"name": "",
							"type": "address"
						}
					],
					"name": "_rewards",
					"outputs": [
						{
							"internalType": "bool",
							"name": "",
							"type": "bool"
						}
					],
					"stateMutability": "view",
					"type": "function"
				},
				{
					"inputs": [],
					"name": "_router",
					"outputs": [
						{
							"internalType": "contract IKaiDexRouter",
							"name": "",
							"type": "address"
						}
					],
					"stateMutability": "view",
					"type": "function"
				},
				{
					"inputs": [],
					"name": "_weth",
					"outputs": [
						{
							"internalType": "address",
							"name": "",
							"type": "address"
						}
					],
					"stateMutability": "view",
					"type": "function"
				},
				{
					"inputs": [
						{
							"internalType": "uint256",
							"name": "gasCost",
							"type": "uint256"
						}
					],
					"name": "adjustGasCost",
					"outputs": [],
					"stateMutability": "nonpayable",
					"type": "function"
				},
				{
					"inputs": [
						{
							"internalType": "uint256",
							"name": "newAmount",
							"type": "uint256"
						}
					],
					"name": "adjustMaxAmountPerReceive",
					"outputs": [],
					"stateMutability": "nonpayable",
					"type": "function"
				},
				{
					"inputs": [
						{
							"internalType": "address",
							"name": "user",
							"type": "address"
						}
					],
					"name": "canClaim",
					"outputs": [
						{
							"internalType": "bool",
							"name": "",
							"type": "bool"
						}
					],
					"stateMutability": "view",
					"type": "function"
				},
				{
					"inputs": [
						{
							"internalType": "address",
							"name": "user",
							"type": "address"
						}
					],
					"name": "canClaimNative",
					"outputs": [
						{
							"internalType": "bool",
							"name": "",
							"type": "bool"
						}
					],
					"stateMutability": "view",
					"type": "function"
				},
				{
					"inputs": [
						{
							"internalType": "address",
							"name": "oracleWallet",
							"type": "address"
						}
					],
					"name": "changeOracleWallet",
					"outputs": [],
					"stateMutability": "nonpayable",
					"type": "function"
				},
				{
					"inputs": [],
					"name": "claim",
					"outputs": [],
					"stateMutability": "payable",
					"type": "function"
				},
				{
					"inputs": [],
					"name": "emergencyWithdrawRewardTokens",
					"outputs": [],
					"stateMutability": "nonpayable",
					"type": "function"
				},
				{
					"inputs": [],
					"name": "getBalance",
					"outputs": [
						{
							"internalType": "uint256",
							"name": "",
							"type": "uint256"
						}
					],
					"stateMutability": "view",
					"type": "function"
				},
				{
					"inputs": [],
					"name": "getEthBalance",
					"outputs": [
						{
							"internalType": "uint256",
							"name": "",
							"type": "uint256"
						}
					],
					"stateMutability": "view",
					"type": "function"
				},
				{
					"inputs": [],
					"name": "isLockEnabled",
					"outputs": [
						{
							"internalType": "bool",
							"name": "",
							"type": "bool"
						}
					],
					"stateMutability": "view",
					"type": "function"
				},
				{
					"inputs": [
						{
							"internalType": "string",
							"name": "_fn",
							"type": "string"
						}
					],
					"name": "lockFunction",
					"outputs": [],
					"stateMutability": "nonpayable",
					"type": "function"
				},
				{
					"inputs": [],
					"name": "maintainer",
					"outputs": [
						{
							"internalType": "address",
							"name": "",
							"type": "address"
						}
					],
					"stateMutability": "view",
					"type": "function"
				},
				{
					"inputs": [],
					"name": "owner",
					"outputs": [
						{
							"internalType": "address",
							"name": "",
							"type": "address"
						}
					],
					"stateMutability": "view",
					"type": "function"
				},
				{
					"inputs": [],
					"name": "renounceOwnership",
					"outputs": [],
					"stateMutability": "nonpayable",
					"type": "function"
				},
				{
					"inputs": [
						{
							"internalType": "uint256[]",
							"name": "amounts",
							"type": "uint256[]"
						},
						{
							"internalType": "address[]",
							"name": "addresses",
							"type": "address[]"
						},
						{
							"internalType": "uint256",
							"name": "gasCost",
							"type": "uint256"
						}
					],
					"name": "sendRewardAndAdjustGasCost",
					"outputs": [],
					"stateMutability": "nonpayable",
					"type": "function"
				},
				{
					"inputs": [
						{
							"internalType": "uint256[]",
							"name": "amounts",
							"type": "uint256[]"
						},
						{
							"internalType": "address[]",
							"name": "addresses",
							"type": "address[]"
						}
					],
					"name": "sendRewards",
					"outputs": [],
					"stateMutability": "nonpayable",
					"type": "function"
				},
				{
					"inputs": [
						{
							"internalType": "uint256",
							"name": "amount",
							"type": "uint256"
						},
						{
							"internalType": "address",
							"name": "user",
							"type": "address"
						}
					],
					"name": "sendRewardsAsEth",
					"outputs": [],
					"stateMutability": "nonpayable",
					"type": "function"
				},
				{
					"inputs": [
						{
							"internalType": "address",
							"name": "_newMaintainer",
							"type": "address"
						}
					],
					"name": "setMaintainer",
					"outputs": [],
					"stateMutability": "nonpayable",
					"type": "function"
				},
				{
					"inputs": [
						{
							"internalType": "contract IKaiDexRouter",
							"name": "router",
							"type": "address"
						}
					],
					"name": "setRouter",
					"outputs": [],
					"stateMutability": "nonpayable",
					"type": "function"
				},
				{
					"inputs": [],
					"name": "setTimelockEnabled",
					"outputs": [],
					"stateMutability": "nonpayable",
					"type": "function"
				},
				{
					"inputs": [
						{
							"internalType": "string",
							"name": "",
							"type": "string"
						}
					],
					"name": "timelock",
					"outputs": [
						{
							"internalType": "uint256",
							"name": "",
							"type": "uint256"
						}
					],
					"stateMutability": "view",
					"type": "function"
				},
				{
					"inputs": [
						{
							"internalType": "address",
							"name": "newOwner",
							"type": "address"
						}
					],
					"name": "transferOwnership",
					"outputs": [],
					"stateMutability": "nonpayable",
					"type": "function"
				},
				{
					"inputs": [
						{
							"internalType": "string",
							"name": "_fn",
							"type": "string"
						}
					],
					"name": "unlockFunction",
					"outputs": [],
					"stateMutability": "nonpayable",
					"type": "function"
				},
				{
					"inputs": [
						{
							"internalType": "contract IERC20",
							"name": "rewardToken",
							"type": "address"
						}
					],
					"name": "updateRewardToken",
					"outputs": [],
					"stateMutability": "nonpayable",
					"type": "function"
				},
				{
					"stateMutability": "payable",
					"type": "receive"
				}
			],
			"devdoc": {
				"kind": "dev",
				"methods": {
					"owner()": {
						"details": "Returns the address of the current owner."
					},
					"renounceOwnership()": {
						"details": "Leaves the contract without owner. It will not be possible to call `onlyOwner` functions anymore. Can only be called by the current owner. NOTE: Renouncing ownership will leave the contract without an owner, thereby removing any functionality that is only available to the owner."
					},
					"transferOwnership(address)": {
						"details": "Transfers ownership of the contract to a new account (`newOwner`). Can only be called by the current owner."
					}
				},
				"version": 1
			},
			"evm": {
				"assembly": "    /* \"contracts/chains/kardiachain/RewardSystem.sol\":483:8214  contract RewardSystem is Ownable, TimeLock {... */\n  mstore(0x40, 0x80)\n    /* \"contracts/libraries/TimeLock.sol\":765:770  false */\n  0x00\n    /* \"contracts/libraries/TimeLock.sol\":737:770  bool public isLockEnabled = false */\n  dup1\n  sload\n  not(shl(0xa0, 0xff))\n  and\n  swap1\n  sstore\n    /* \"contracts/chains/kardiachain/RewardSystem.sol\":1040:1056  2100000000000000 */\n  0x0775f05a074000\n    /* \"contracts/chains/kardiachain/RewardSystem.sol\":1014:1056  uint256 public _gasCost = 2100000000000000 */\n  0x05\n  sstore\n    /* \"contracts/chains/kardiachain/RewardSystem.sol\":1067:1140  address public _oracleWallet = 0x76049b7cAaB30b8bBBdcfF3A1059d9147dBF7B19 */\n  0x06\n  dup1\n  sload\n  not(sub(shl(0xa0, 0x01), 0x01))\n  swap1\n  dup2\n  and\n    /* \"contracts/chains/kardiachain/RewardSystem.sol\":1098:1140  0x76049b7cAaB30b8bBBdcfF3A1059d9147dBF7B19 */\n  0x76049b7caab30b8bbbdcff3a1059d9147dbf7b19\n    /* \"contracts/chains/kardiachain/RewardSystem.sol\":1067:1140  address public _oracleWallet = 0x76049b7cAaB30b8bBBdcfF3A1059d9147dBF7B19 */\n  or\n  swap1\n  swap2\n  sstore\n    /* \"contracts/chains/kardiachain/RewardSystem.sol\":1146:1216  address public _devWallet = 0xc559aCc356D3037EC6dbc33a20587051188b8634 */\n  0x07\n  dup1\n  sload\n  dup3\n  and\n    /* \"contracts/chains/kardiachain/RewardSystem.sol\":1174:1216  0xc559aCc356D3037EC6dbc33a20587051188b8634 */\n  0xc559acc356d3037ec6dbc33a20587051188b8634\n    /* \"contracts/chains/kardiachain/RewardSystem.sol\":1146:1216  address public _devWallet = 0xc559aCc356D3037EC6dbc33a20587051188b8634 */\n  or\n  swap1\n  sstore\n    /* \"contracts/chains/kardiachain/RewardSystem.sol\":1297:1311  10000000 ether */\n  0x084595161401484a000000\n    /* \"contracts/chains/kardiachain/RewardSystem.sol\":1259:1311  uint256 public _maxAmountPerReceive = 10000000 ether */\n  0x09\n  sstore\n    /* \"contracts/chains/kardiachain/RewardSystem.sol\":1317:1382  address public _weth = 0xAF984E23EAA3E7967F3C5E007fbe397D8566D23d */\n  0x0a\n  dup1\n  sload\n  dup3\n  and\n    /* \"contracts/chains/kardiachain/RewardSystem.sol\":1340:1382  0xAF984E23EAA3E7967F3C5E007fbe397D8566D23d */\n  0xaf984e23eaa3e7967f3c5e007fbe397d8566d23d\n    /* \"contracts/chains/kardiachain/RewardSystem.sol\":1317:1382  address public _weth = 0xAF984E23EAA3E7967F3C5E007fbe397D8566D23d */\n  or\n  swap1\n  sstore\n    /* \"contracts/chains/kardiachain/RewardSystem.sol\":1389:1477  IKaiDexRouter public _router = IKaiDexRouter(0xbAFcdabe65A03825a131298bE7670c0aEC77B37f) */\n  0x0b\n  dup1\n  sload\n  swap1\n  swap2\n  and\n    /* \"contracts/chains/kardiachain/RewardSystem.sol\":1434:1476  0xbAFcdabe65A03825a131298bE7670c0aEC77B37f */\n  0xbafcdabe65a03825a131298be7670c0aec77b37f\n    /* \"contracts/chains/kardiachain/RewardSystem.sol\":1389:1477  IKaiDexRouter public _router = IKaiDexRouter(0xbAFcdabe65A03825a131298bE7670c0aEC77B37f) */\n  or\n  swap1\n  sstore\n    /* \"contracts/chains/kardiachain/RewardSystem.sol\":2423:2541  constructor(IERC20 rewardToken) {... */\n  callvalue\n  dup1\n  iszero\n  tag_1\n  jumpi\n  0x00\n  dup1\n  revert\ntag_1:\n  pop\n  mload(0x40)\n  sub(codesize, bytecodeSize)\n  dup1\n  bytecodeSize\n  dup4\n  codecopy\n  dup2\n  add\n  0x40\n  dup2\n  swap1\n  mstore\n  tag_2\n  swap2\n  tag_3\n  jump\t// in\ntag_2:\n    /* \"@openzeppelin/contracts/access/Ownable.sol\":867:890  _setOwner(_msgSender()) */\n  tag_8\n    /* \"@openzeppelin/contracts/utils/Context.sol\":665:675  msg.sender */\n  caller\n    /* \"@openzeppelin/contracts/access/Ownable.sol\":867:876  _setOwner */\n  tag_11\n    /* \"@openzeppelin/contracts/access/Ownable.sol\":867:890  _setOwner(_msgSender()) */\n  jump\t// in\ntag_8:\n    /* \"contracts/libraries/TimeLock.sol\":2409:2420  _maintainer */\n  0x02\n    /* \"contracts/libraries/TimeLock.sol\":2409:2433  _maintainer = msg.sender */\n  dup1\n  sload\n  not(sub(shl(0xa0, 0x01), 0x01))\n  swap1\n  dup2\n  and\n    /* \"contracts/libraries/TimeLock.sol\":2423:2433  msg.sender */\n  caller\n    /* \"contracts/libraries/TimeLock.sol\":2409:2433  _maintainer = msg.sender */\n  or\n  swap1\n  swap2\n  sstore\n    /* \"contracts/chains/kardiachain/RewardSystem.sol\":2465:2477  _rewardToken */\n  0x08\n    /* \"contracts/chains/kardiachain/RewardSystem.sol\":2465:2491  _rewardToken = rewardToken */\n  dup1\n  sload\n  sub(shl(0xa0, 0x01), 0x01)\n  dup5\n  dup2\n  and\n  swap2\n  swap1\n  swap4\n  and\n  or\n  swap1\n  sstore\n    /* \"contracts/chains/kardiachain/RewardSystem.sol\":2520:2533  _oracleWallet */\n  sload(0x06)\n    /* \"contracts/chains/kardiachain/RewardSystem.sol\":2501:2534  changeOracleWallet(_oracleWallet) */\n  tag_14\n  swap2\n    /* \"contracts/chains/kardiachain/RewardSystem.sol\":2520:2533  _oracleWallet */\n  and\n    /* \"contracts/chains/kardiachain/RewardSystem.sol\":2501:2519  changeOracleWallet */\n  tag_15\n    /* \"contracts/chains/kardiachain/RewardSystem.sol\":2501:2534  changeOracleWallet(_oracleWallet) */\n  jump\t// in\ntag_14:\n    /* \"contracts/chains/kardiachain/RewardSystem.sol\":2423:2541  constructor(IERC20 rewardToken) {... */\n  pop\n    /* \"contracts/chains/kardiachain/RewardSystem.sol\":483:8214  contract RewardSystem is Ownable, TimeLock {... */\n  jump(tag_63)\n    /* \"@openzeppelin/contracts/access/Ownable.sol\":2041:2210  function _setOwner(address newOwner) private {... */\ntag_11:\n    /* \"@openzeppelin/contracts/access/Ownable.sol\":2096:2112  address oldOwner */\n  0x00\n    /* \"@openzeppelin/contracts/access/Ownable.sol\":2115:2121  _owner */\n  dup1\n  sload\n  sub(shl(0xa0, 0x01), 0x01)\n    /* \"@openzeppelin/contracts/access/Ownable.sol\":2131:2148  _owner = newOwner */\n  dup4\n  dup2\n  and\n  not(sub(shl(0xa0, 0x01), 0x01))\n  dup4\n  and\n  dup2\n  or\n  dup5\n  sstore\n    /* \"@openzeppelin/contracts/access/Ownable.sol\":2163:2203  OwnershipTransferred(oldOwner, newOwner) */\n  mload(0x40)\n    /* \"@openzeppelin/contracts/access/Ownable.sol\":2115:2121  _owner */\n  swap2\n  swap1\n  swap3\n  and\n  swap3\n  dup4\n  swap2\n    /* \"@openzeppelin/contracts/access/Ownable.sol\":2163:2203  OwnershipTransferred(oldOwner, newOwner) */\n  0x8be0079c531659141344cd1fd0a4f28419497f9722a3daafe3b4186f6b6457e0\n  swap2\n    /* \"@openzeppelin/contracts/access/Ownable.sol\":2096:2112  address oldOwner */\n  swap1\n    /* \"@openzeppelin/contracts/access/Ownable.sol\":2163:2203  OwnershipTransferred(oldOwner, newOwner) */\n  log3\n    /* \"@openzeppelin/contracts/access/Ownable.sol\":2086:2210  {... */\n  pop\n    /* \"@openzeppelin/contracts/access/Ownable.sol\":2041:2210  function _setOwner(address newOwner) private {... */\n  pop\n  jump\t// out\n    /* \"contracts/chains/kardiachain/RewardSystem.sol\":4477:4760  function changeOracleWallet(address oracleWallet) public onlyOwner locked(\"changeOracleWallet\") {... */\ntag_15:\n    /* \"@openzeppelin/contracts/access/Ownable.sol\":1019:1026  address */\n  0x00\n    /* \"@openzeppelin/contracts/access/Ownable.sol\":1045:1051  _owner */\n  sload\n  sub(shl(0xa0, 0x01), 0x01)\n  and\n    /* \"@openzeppelin/contracts/utils/Context.sol\":665:675  msg.sender */\n  caller\n    /* \"@openzeppelin/contracts/access/Ownable.sol\":1185:1208  owner() == _msgSender() */\n  eq\n    /* \"@openzeppelin/contracts/access/Ownable.sol\":1177:1245  require(owner() == _msgSender(), \"Ownable: caller is not the owner\") */\n  tag_23\n  jumpi\n  mload(0x40)\n  shl(0xe5, 0x461bcd)\n  dup2\n  mstore\n    /* \"#utility.yul\":1365:1367   */\n  0x20\n    /* \"@openzeppelin/contracts/access/Ownable.sol\":1177:1245  require(owner() == _msgSender(), \"Ownable: caller is not the owner\") */\n  0x04\n  dup3\n  add\n    /* \"#utility.yul\":1347:1368   */\n  dup2\n  swap1\n  mstore\n    /* \"#utility.yul\":1384:1402   */\n  0x24\n  dup3\n  add\n    /* \"#utility.yul\":1377:1407   */\n  mstore\n  0x00\n  dup1\n  mload\n  0x20\n  data_9924ebdf1add33d25d4ef888e16131f0a5687b0580a36c21b5c301a6c462effe\n  dup4\n  codecopy\n  dup2\n  mload\n  swap2\n  mstore\n    /* \"#utility.yul\":1423:1441   */\n  0x44\n  dup3\n  add\n    /* \"#utility.yul\":1416:1478   */\n  mstore\n    /* \"#utility.yul\":1495:1513   */\n  0x64\n  add\n    /* \"@openzeppelin/contracts/access/Ownable.sol\":1177:1245  require(owner() == _msgSender(), \"Ownable: caller is not the owner\") */\ntag_24:\n  mload(0x40)\n  dup1\n  swap2\n  sub\n  swap1\n  revert\ntag_23:\n    /* \"contracts/libraries/TimeLock.sol\":1945:2188  modifier locked(string memory _fn) {... */\n  0x40\n  dup1\n  mload\n  dup1\n  dup3\n  add\n  swap1\n  swap2\n  mstore\n  0x12\n  dup2\n  mstore\n  shl(0x72, 0x18da185b99d953dc9858db1955d85b1b195d)\n  0x20\n  dup3\n  add\n  mstore\n  0x00\n    /* \"contracts/libraries/TimeLock.sol\":1999:2012  isLockEnabled */\n  sload\n  shl(0xa0, 0x01)\n  swap1\n  div\n  0xff\n  and\n    /* \"contracts/libraries/TimeLock.sol\":1998:2012  !isLockEnabled */\n  iszero\n  dup1\n    /* \"contracts/libraries/TimeLock.sol\":1998:2120  !isLockEnabled || (timelock[_fn] != 0 && timelock[_fn] <= block.timestamp && timelock[_fn] + _TIMELOCK >= block.timestamp) */\n  tag_32\n  jumpi\n  pop\n    /* \"contracts/libraries/TimeLock.sol\":2017:2025  timelock */\n  0x01\n    /* \"contracts/libraries/TimeLock.sol\":2026:2029  _fn */\n  dup2\n    /* \"contracts/libraries/TimeLock.sol\":2017:2030  timelock[_fn] */\n  mload(0x40)\n  tag_28\n  swap2\n  swap1\n  tag_29\n  jump\t// in\ntag_28:\n  swap1\n  dup2\n  mstore\n  0x20\n  add\n  mload(0x40)\n  dup1\n  swap2\n  sub\n  swap1\n  keccak256\n  sload\n    /* \"contracts/libraries/TimeLock.sol\":2034:2035  0 */\n  0x00\n    /* \"contracts/libraries/TimeLock.sol\":2017:2035  timelock[_fn] != 0 */\n  eq\n  iszero\n    /* \"contracts/libraries/TimeLock.sol\":2017:2071  timelock[_fn] != 0 && timelock[_fn] <= block.timestamp */\n  dup1\n  iszero\n  tag_30\n  jumpi\n  pop\n    /* \"contracts/libraries/TimeLock.sol\":2056:2071  block.timestamp */\n  timestamp\n    /* \"contracts/libraries/TimeLock.sol\":2039:2047  timelock */\n  0x01\n    /* \"contracts/libraries/TimeLock.sol\":2048:2051  _fn */\n  dup3\n    /* \"contracts/libraries/TimeLock.sol\":2039:2052  timelock[_fn] */\n  mload(0x40)\n  tag_31\n  swap2\n  swap1\n  tag_29\n  jump\t// in\ntag_31:\n  swap1\n  dup2\n  mstore\n  0x20\n  add\n  mload(0x40)\n  dup1\n  swap2\n  sub\n  swap1\n  keccak256\n  sload\n    /* \"contracts/libraries/TimeLock.sol\":2039:2071  timelock[_fn] <= block.timestamp */\n  gt\n  iszero\n    /* \"contracts/libraries/TimeLock.sol\":2017:2071  timelock[_fn] != 0 && timelock[_fn] <= block.timestamp */\ntag_30:\n    /* \"contracts/libraries/TimeLock.sol\":2017:2119  timelock[_fn] != 0 && timelock[_fn] <= block.timestamp && timelock[_fn] + _TIMELOCK >= block.timestamp */\n  dup1\n  iszero\n  tag_32\n  jumpi\n  pop\n    /* \"contracts/libraries/TimeLock.sol\":2104:2119  block.timestamp */\n  timestamp\n    /* \"contracts/libraries/TimeLock.sol\":861:867  1 days */\n  0x015180\n    /* \"contracts/libraries/TimeLock.sol\":2075:2083  timelock */\n  0x01\n    /* \"contracts/libraries/TimeLock.sol\":2084:2087  _fn */\n  dup4\n    /* \"contracts/libraries/TimeLock.sol\":2075:2088  timelock[_fn] */\n  mload(0x40)\n  tag_33\n  swap2\n  swap1\n  tag_29\n  jump\t// in\ntag_33:\n  swap1\n  dup2\n  mstore\n  0x20\n  add\n  mload(0x40)\n  dup1\n  swap2\n  sub\n  swap1\n  keccak256\n  sload\n    /* \"contracts/libraries/TimeLock.sol\":2075:2100  timelock[_fn] + _TIMELOCK */\n  tag_34\n  swap2\n  swap1\n  tag_35\n  jump\t// in\ntag_34:\n    /* \"contracts/libraries/TimeLock.sol\":2075:2119  timelock[_fn] + _TIMELOCK >= block.timestamp */\n  lt\n  iszero\n    /* \"contracts/libraries/TimeLock.sol\":2017:2119  timelock[_fn] != 0 && timelock[_fn] <= block.timestamp && timelock[_fn] + _TIMELOCK >= block.timestamp */\ntag_32:\n    /* \"contracts/libraries/TimeLock.sol\":1990:2143  require(!isLockEnabled || (timelock[_fn] != 0 && timelock[_fn] <= block.timestamp && timelock[_fn] + _TIMELOCK >= block.timestamp), \"Function is locked\") */\n  tag_36\n  jumpi\n  mload(0x40)\n  shl(0xe5, 0x461bcd)\n  dup2\n  mstore\n    /* \"#utility.yul\":1726:1728   */\n  0x20\n    /* \"contracts/libraries/TimeLock.sol\":1990:2143  require(!isLockEnabled || (timelock[_fn] != 0 && timelock[_fn] <= block.timestamp && timelock[_fn] + _TIMELOCK >= block.timestamp), \"Function is locked\") */\n  0x04\n  dup3\n  add\n    /* \"#utility.yul\":1708:1729   */\n  mstore\n    /* \"#utility.yul\":1765:1767   */\n  0x12\n    /* \"#utility.yul\":1745:1763   */\n  0x24\n  dup3\n  add\n    /* \"#utility.yul\":1738:1768   */\n  mstore\n  shl(0x72, 0x119d5b98dd1a5bdb881a5cc81b1bd8dad959)\n    /* \"#utility.yul\":1784:1802   */\n  0x44\n  dup3\n  add\n    /* \"#utility.yul\":1777:1825   */\n  mstore\n    /* \"#utility.yul\":1842:1860   */\n  0x64\n  add\n    /* \"contracts/libraries/TimeLock.sol\":1990:2143  require(!isLockEnabled || (timelock[_fn] != 0 && timelock[_fn] <= block.timestamp && timelock[_fn] + _TIMELOCK >= block.timestamp), \"Function is locked\") */\n  tag_24\n    /* \"#utility.yul\":1524:1866   */\n  jump\n    /* \"contracts/libraries/TimeLock.sol\":1990:2143  require(!isLockEnabled || (timelock[_fn] != 0 && timelock[_fn] <= block.timestamp && timelock[_fn] + _TIMELOCK >= block.timestamp), \"Function is locked\") */\ntag_36:\n    /* \"contracts/chains/kardiachain/RewardSystem.sol\":4583:4614  transferOwnership(oracleWallet) */\n  tag_40\n    /* \"contracts/chains/kardiachain/RewardSystem.sol\":4601:4613  oracleWallet */\n  dup3\n    /* \"contracts/chains/kardiachain/RewardSystem.sol\":4583:4600  transferOwnership */\n  tag_41\n    /* \"contracts/chains/kardiachain/RewardSystem.sol\":4583:4614  transferOwnership(oracleWallet) */\n  jump\t// in\ntag_40:\n    /* \"contracts/chains/kardiachain/RewardSystem.sol\":4643:4656  _oracleWallet */\n  0x06\n  dup1\n  sload\n  sub(shl(0xa0, 0x01), 0x01)\n    /* \"contracts/chains/kardiachain/RewardSystem.sol\":4666:4694  _oracleWallet = oracleWallet */\n  dup5\n  dup2\n  and\n  not(sub(shl(0xa0, 0x01), 0x01))\n  dup4\n  and\n  dup2\n  or\n  swap1\n  swap4\n  sstore\n    /* \"contracts/chains/kardiachain/RewardSystem.sol\":4709:4753  ChangedOracleWallet(previous, _oracleWallet) */\n  mload(0x40)\n    /* \"contracts/chains/kardiachain/RewardSystem.sol\":4643:4656  _oracleWallet */\n  swap2\n  and\n  swap2\n    /* \"contracts/chains/kardiachain/RewardSystem.sol\":4666:4694  _oracleWallet = oracleWallet */\n  swap1\n    /* \"contracts/chains/kardiachain/RewardSystem.sol\":4643:4656  _oracleWallet */\n  dup3\n  swap1\n    /* \"contracts/chains/kardiachain/RewardSystem.sol\":4709:4753  ChangedOracleWallet(previous, _oracleWallet) */\n  0x3920ecd0f25e4e6ce57aaec91e57df499cb7e3e70d6c9604f866ae9265382cf3\n  swap1\n    /* \"contracts/chains/kardiachain/RewardSystem.sol\":4624:4640  address previous */\n  0x00\n  swap1\n    /* \"contracts/chains/kardiachain/RewardSystem.sol\":4709:4753  ChangedOracleWallet(previous, _oracleWallet) */\n  log3\n  pop\n    /* \"contracts/libraries/TimeLock.sol\":2164:2181  lockFunction(_fn) */\n  tag_42\n    /* \"contracts/libraries/TimeLock.sol\":2177:2180  _fn */\n  dup2\n    /* \"contracts/libraries/TimeLock.sol\":2164:2176  lockFunction */\n  tag_43\n    /* \"contracts/libraries/TimeLock.sol\":2164:2181  lockFunction(_fn) */\n  jump\t// in\ntag_42:\n    /* \"@openzeppelin/contracts/access/Ownable.sol\":1255:1256  _ */\n  pop\n    /* \"contracts/chains/kardiachain/RewardSystem.sol\":4477:4760  function changeOracleWallet(address oracleWallet) public onlyOwner locked(\"changeOracleWallet\") {... */\n  pop\n  jump\t// out\n    /* \"@openzeppelin/contracts/access/Ownable.sol\":1846:2035  function transferOwnership(address newOwner) public virtual onlyOwner {... */\ntag_41:\n    /* \"@openzeppelin/contracts/access/Ownable.sol\":1019:1026  address */\n  0x00\n    /* \"@openzeppelin/contracts/access/Ownable.sol\":1045:1051  _owner */\n  sload\n  sub(shl(0xa0, 0x01), 0x01)\n  and\n    /* \"@openzeppelin/contracts/utils/Context.sol\":665:675  msg.sender */\n  caller\n    /* \"@openzeppelin/contracts/access/Ownable.sol\":1185:1208  owner() == _msgSender() */\n  eq\n    /* \"@openzeppelin/contracts/access/Ownable.sol\":1177:1245  require(owner() == _msgSender(), \"Ownable: caller is not the owner\") */\n  tag_48\n  jumpi\n  mload(0x40)\n  shl(0xe5, 0x461bcd)\n  dup2\n  mstore\n    /* \"#utility.yul\":1365:1367   */\n  0x20\n    /* \"@openzeppelin/contracts/access/Ownable.sol\":1177:1245  require(owner() == _msgSender(), \"Ownable: caller is not the owner\") */\n  0x04\n  dup3\n  add\n    /* \"#utility.yul\":1347:1368   */\n  dup2\n  swap1\n  mstore\n    /* \"#utility.yul\":1384:1402   */\n  0x24\n  dup3\n  add\n    /* \"#utility.yul\":1377:1407   */\n  mstore\n  0x00\n  dup1\n  mload\n  0x20\n  data_9924ebdf1add33d25d4ef888e16131f0a5687b0580a36c21b5c301a6c462effe\n  dup4\n  codecopy\n  dup2\n  mload\n  swap2\n  mstore\n    /* \"#utility.yul\":1423:1441   */\n  0x44\n  dup3\n  add\n    /* \"#utility.yul\":1416:1478   */\n  mstore\n    /* \"#utility.yul\":1495:1513   */\n  0x64\n  add\n    /* \"@openzeppelin/contracts/access/Ownable.sol\":1177:1245  require(owner() == _msgSender(), \"Ownable: caller is not the owner\") */\n  tag_24\n    /* \"#utility.yul\":1163:1519   */\n  jump\n    /* \"@openzeppelin/contracts/access/Ownable.sol\":1177:1245  require(owner() == _msgSender(), \"Ownable: caller is not the owner\") */\ntag_48:\n  sub(shl(0xa0, 0x01), 0x01)\n    /* \"@openzeppelin/contracts/access/Ownable.sol\":1934:1956  newOwner != address(0) */\n  dup2\n  and\n    /* \"@openzeppelin/contracts/access/Ownable.sol\":1926:1999  require(newOwner != address(0), \"Ownable: new owner is the zero address\") */\n  tag_51\n  jumpi\n  mload(0x40)\n  shl(0xe5, 0x461bcd)\n  dup2\n  mstore\n    /* \"#utility.yul\":958:960   */\n  0x20\n    /* \"@openzeppelin/contracts/access/Ownable.sol\":1926:1999  require(newOwner != address(0), \"Ownable: new owner is the zero address\") */\n  0x04\n  dup3\n  add\n    /* \"#utility.yul\":940:961   */\n  mstore\n    /* \"#utility.yul\":997:999   */\n  0x26\n    /* \"#utility.yul\":977:995   */\n  0x24\n  dup3\n  add\n    /* \"#utility.yul\":970:1000   */\n  mstore\n    /* \"#utility.yul\":1036:1070   */\n  0x4f776e61626c653a206e6577206f776e657220697320746865207a65726f2061\n    /* \"#utility.yul\":1016:1034   */\n  0x44\n  dup3\n  add\n    /* \"#utility.yul\":1009:1071   */\n  mstore\n  shl(0xd0, 0x646472657373)\n    /* \"#utility.yul\":1087:1105   */\n  0x64\n  dup3\n  add\n    /* \"#utility.yul\":1080:1116   */\n  mstore\n    /* \"#utility.yul\":1133:1152   */\n  0x84\n  add\n    /* \"@openzeppelin/contracts/access/Ownable.sol\":1926:1999  require(newOwner != address(0), \"Ownable: new owner is the zero address\") */\n  tag_24\n    /* \"#utility.yul\":756:1158   */\n  jump\n    /* \"@openzeppelin/contracts/access/Ownable.sol\":1926:1999  require(newOwner != address(0), \"Ownable: new owner is the zero address\") */\ntag_51:\n    /* \"@openzeppelin/contracts/access/Ownable.sol\":2009:2028  _setOwner(newOwner) */\n  tag_54\n    /* \"@openzeppelin/contracts/access/Ownable.sol\":2019:2027  newOwner */\n  dup2\n    /* \"@openzeppelin/contracts/access/Ownable.sol\":2009:2018  _setOwner */\n  tag_11\n    /* \"@openzeppelin/contracts/access/Ownable.sol\":2009:2028  _setOwner(newOwner) */\n  jump\t// in\ntag_54:\n    /* \"@openzeppelin/contracts/access/Ownable.sol\":1846:2035  function transferOwnership(address newOwner) public virtual onlyOwner {... */\n  pop\n  jump\t// out\n    /* \"contracts/libraries/TimeLock.sol\":4317:4421  function lockFunction(string memory _fn) public onlyMaintainerOrOwner {... */\ntag_43:\n    /* \"contracts/libraries/TimeLock.sol\":2264:2274  msg.sender */\n  caller\n    /* \"contracts/libraries/TimeLock.sol\":2253:2260  owner() */\n  tag_56\n    /* \"@openzeppelin/contracts/access/Ownable.sol\":1019:1026  address */\n  0x00\n    /* \"@openzeppelin/contracts/access/Ownable.sol\":1045:1051  _owner */\n  sload\n  sub(shl(0xa0, 0x01), 0x01)\n  and\n  swap1\n    /* \"@openzeppelin/contracts/access/Ownable.sol\":973:1058  function owner() public view virtual returns (address) {... */\n  jump\n    /* \"contracts/libraries/TimeLock.sol\":2253:2260  owner() */\ntag_56:\n  sub(shl(0xa0, 0x01), 0x01)\n    /* \"contracts/libraries/TimeLock.sol\":2253:2274  owner() == msg.sender */\n  and\n  eq\n    /* \"contracts/libraries/TimeLock.sol\":2253:2303  owner() == msg.sender || _maintainer == msg.sender */\n  dup1\n  tag_57\n  jumpi\n  pop\n    /* \"contracts/libraries/TimeLock.sol\":2278:2289  _maintainer */\n  and(sub(shl(0xa0, 0x01), 0x01), sload(0x02))\n    /* \"contracts/libraries/TimeLock.sol\":2293:2303  msg.sender */\n  caller\n    /* \"contracts/libraries/TimeLock.sol\":2278:2303  _maintainer == msg.sender */\n  eq\n    /* \"contracts/libraries/TimeLock.sol\":2253:2303  owner() == msg.sender || _maintainer == msg.sender */\ntag_57:\n    /* \"contracts/libraries/TimeLock.sol\":2245:2361  require(owner() == msg.sender || _maintainer == msg.sender, \"operator: caller is not allowed to call this function\") */\n  tag_58\n  jumpi\n  mload(0x40)\n  shl(0xe5, 0x461bcd)\n  dup2\n  mstore\n    /* \"#utility.yul\":2073:2075   */\n  0x20\n    /* \"contracts/libraries/TimeLock.sol\":2245:2361  require(owner() == msg.sender || _maintainer == msg.sender, \"operator: caller is not allowed to call this function\") */\n  0x04\n  dup3\n  add\n    /* \"#utility.yul\":2055:2076   */\n  mstore\n    /* \"#utility.yul\":2112:2114   */\n  0x35\n    /* \"#utility.yul\":2092:2110   */\n  0x24\n  dup3\n  add\n    /* \"#utility.yul\":2085:2115   */\n  mstore\n    /* \"#utility.yul\":2151:2185   */\n  0x6f70657261746f723a2063616c6c6572206973206e6f7420616c6c6f77656420\n    /* \"#utility.yul\":2131:2149   */\n  0x44\n  dup3\n  add\n    /* \"#utility.yul\":2124:2186   */\n  mstore\n    /* \"#utility.yul\":2222:2245   */\n  0x746f2063616c6c20746869732066756e6374696f6e0000000000000000000000\n    /* \"#utility.yul\":2202:2220   */\n  0x64\n  dup3\n  add\n    /* \"#utility.yul\":2195:2246   */\n  mstore\n    /* \"#utility.yul\":2263:2282   */\n  0x84\n  add\n    /* \"contracts/libraries/TimeLock.sol\":2245:2361  require(owner() == msg.sender || _maintainer == msg.sender, \"operator: caller is not allowed to call this function\") */\n  tag_24\n    /* \"#utility.yul\":1871:2288   */\n  jump\n    /* \"contracts/libraries/TimeLock.sol\":2245:2361  require(owner() == msg.sender || _maintainer == msg.sender, \"operator: caller is not allowed to call this function\") */\ntag_58:\n    /* \"contracts/libraries/TimeLock.sol\":4413:4414  0 */\n  0x00\n    /* \"contracts/libraries/TimeLock.sol\":4397:4405  timelock */\n  0x01\n    /* \"contracts/libraries/TimeLock.sol\":4406:4409  _fn */\n  dup3\n    /* \"contracts/libraries/TimeLock.sol\":4397:4410  timelock[_fn] */\n  mload(0x40)\n  tag_62\n  swap2\n  swap1\n  tag_29\n  jump\t// in\ntag_62:\n  swap1\n  dup2\n  mstore\n  mload(0x40)\n  swap1\n  dup2\n  swap1\n  sub\n  0x20\n  add\n  swap1\n  keccak256\n    /* \"contracts/libraries/TimeLock.sol\":4397:4414  timelock[_fn] = 0 */\n  sstore\n  pop\n    /* \"contracts/libraries/TimeLock.sol\":4317:4421  function lockFunction(string memory _fn) public onlyMaintainerOrOwner {... */\n  jump\t// out\n    /* \"#utility.yul\":14:318   */\ntag_3:\n    /* \"#utility.yul\":98:104   */\n  0x00\n    /* \"#utility.yul\":151:153   */\n  0x20\n    /* \"#utility.yul\":139:148   */\n  dup3\n    /* \"#utility.yul\":130:137   */\n  dup5\n    /* \"#utility.yul\":126:149   */\n  sub\n    /* \"#utility.yul\":122:154   */\n  slt\n    /* \"#utility.yul\":119:171   */\n  iszero\n  tag_65\n  jumpi\n    /* \"#utility.yul\":167:168   */\n  0x00\n    /* \"#utility.yul\":164:165   */\n  dup1\n    /* \"#utility.yul\":157:169   */\n  revert\n    /* \"#utility.yul\":119:171   */\ntag_65:\n    /* \"#utility.yul\":193:209   */\n  dup2\n  mload\n  sub(shl(0xa0, 0x01), 0x01)\n    /* \"#utility.yul\":238:269   */\n  dup2\n  and\n    /* \"#utility.yul\":228:270   */\n  dup2\n  eq\n    /* \"#utility.yul\":218:288   */\n  tag_66\n  jumpi\n    /* \"#utility.yul\":284:285   */\n  0x00\n    /* \"#utility.yul\":281:282   */\n  dup1\n    /* \"#utility.yul\":274:286   */\n  revert\n    /* \"#utility.yul\":218:288   */\ntag_66:\n    /* \"#utility.yul\":307:312   */\n  swap4\n    /* \"#utility.yul\":14:318   */\n  swap3\n  pop\n  pop\n  pop\n  jump\t// out\n    /* \"#utility.yul\":323:751   */\ntag_29:\n    /* \"#utility.yul\":454:457   */\n  0x00\n    /* \"#utility.yul\":492:498   */\n  dup3\n    /* \"#utility.yul\":486:499   */\n  mload\n    /* \"#utility.yul\":517:518   */\n  0x00\n    /* \"#utility.yul\":527:656   */\ntag_68:\n    /* \"#utility.yul\":541:547   */\n  dup2\n    /* \"#utility.yul\":538:539   */\n  dup2\n    /* \"#utility.yul\":535:548   */\n  lt\n    /* \"#utility.yul\":527:656   */\n  iszero\n  tag_70\n  jumpi\n    /* \"#utility.yul\":639:643   */\n  0x20\n    /* \"#utility.yul\":623:637   */\n  dup2\n  dup7\n  add\n    /* \"#utility.yul\":619:644   */\n  dup2\n  add\n    /* \"#utility.yul\":613:645   */\n  mload\n    /* \"#utility.yul\":600:611   */\n  dup6\n  dup4\n  add\n    /* \"#utility.yul\":593:646   */\n  mstore\n    /* \"#utility.yul\":556:568   */\n  add\n    /* \"#utility.yul\":527:656   */\n  jump(tag_68)\ntag_70:\n    /* \"#utility.yul\":674:680   */\n  dup2\n    /* \"#utility.yul\":671:672   */\n  dup2\n    /* \"#utility.yul\":668:681   */\n  gt\n    /* \"#utility.yul\":665:713   */\n  iszero\n  tag_71\n  jumpi\n    /* \"#utility.yul\":709:710   */\n  0x00\n    /* \"#utility.yul\":700:706   */\n  dup3\n    /* \"#utility.yul\":695:698   */\n  dup6\n    /* \"#utility.yul\":691:707   */\n  add\n    /* \"#utility.yul\":684:711   */\n  mstore\n    /* \"#utility.yul\":665:713   */\ntag_71:\n  pop\n    /* \"#utility.yul\":729:745   */\n  swap2\n  swap1\n  swap2\n  add\n  swap3\n    /* \"#utility.yul\":323:751   */\n  swap2\n  pop\n  pop\n  jump\t// out\n    /* \"#utility.yul\":2293:2518   */\ntag_35:\n    /* \"#utility.yul\":2333:2336   */\n  0x00\n    /* \"#utility.yul\":2364:2365   */\n  dup3\n    /* \"#utility.yul\":2360:2366   */\n  not\n    /* \"#utility.yul\":2357:2358   */\n  dup3\n    /* \"#utility.yul\":2354:2367   */\n  gt\n    /* \"#utility.yul\":2351:2487   */\n  iszero\n  tag_77\n  jumpi\n    /* \"#utility.yul\":2409:2419   */\n  0x4e487b71\n    /* \"#utility.yul\":2404:2407   */\n  0xe0\n    /* \"#utility.yul\":2400:2420   */\n  shl\n    /* \"#utility.yul\":2397:2398   */\n  0x00\n    /* \"#utility.yul\":2390:2421   */\n  mstore\n    /* \"#utility.yul\":2444:2448   */\n  0x11\n    /* \"#utility.yul\":2441:2442   */\n  0x04\n    /* \"#utility.yul\":2434:2449   */\n  mstore\n    /* \"#utility.yul\":2472:2476   */\n  0x24\n    /* \"#utility.yul\":2469:2470   */\n  0x00\n    /* \"#utility.yul\":2462:2477   */\n  revert\n    /* \"#utility.yul\":2351:2487   */\ntag_77:\n  pop\n    /* \"#utility.yul\":2503:2512   */\n  add\n  swap1\n    /* \"#utility.yul\":2293:2518   */\n  jump\t// out\ntag_63:\n    /* \"contracts/chains/kardiachain/RewardSystem.sol\":483:8214  contract RewardSystem is Ownable, TimeLock {... */\n  dataSize(sub_0)\n  dup1\n  dataOffset(sub_0)\n  0x00\n  codecopy\n  0x00\n  return\nstop\ndata_9924ebdf1add33d25d4ef888e16131f0a5687b0580a36c21b5c301a6c462effe 4f776e61626c653a2063616c6c6572206973206e6f7420746865206f776e6572\n\nsub_0: assembly {\n        /* \"contracts/chains/kardiachain/RewardSystem.sol\":483:8214  contract RewardSystem is Ownable, TimeLock {... */\n      mstore(0x40, 0x80)\n      jumpi(tag_1, lt(calldatasize, 0x04))\n      shr(0xe0, calldataload(0x00))\n      dup1\n      0x9850d32b\n      gt\n      tag_36\n      jumpi\n      dup1\n      0xc0d78655\n      gt\n      tag_37\n      jumpi\n      dup1\n      0xf2fde38b\n      gt\n      tag_38\n      jumpi\n      dup1\n      0xf2fde38b\n      eq\n      tag_31\n      jumpi\n      dup1\n      0xf4762fd6\n      eq\n      tag_32\n      jumpi\n      dup1\n      0xf7e77bc2\n      eq\n      tag_33\n      jumpi\n      dup1\n      0xf8cf31cb\n      eq\n      tag_34\n      jumpi\n      dup1\n      0xf98080c0\n      eq\n      tag_35\n      jumpi\n      0x00\n      dup1\n      revert\n    tag_38:\n      dup1\n      0xc0d78655\n      eq\n      tag_27\n      jumpi\n      dup1\n      0xd6e0ece2\n      eq\n      tag_28\n      jumpi\n      dup1\n      0xde996a6e\n      eq\n      tag_29\n      jumpi\n      dup1\n      0xedae876f\n      eq\n      tag_30\n      jumpi\n      0x00\n      dup1\n      revert\n    tag_37:\n      dup1\n      0xa347511a\n      gt\n      tag_39\n      jumpi\n      dup1\n      0xa347511a\n      eq\n      tag_23\n      jumpi\n      dup1\n      0xa607494a\n      eq\n      tag_24\n      jumpi\n      dup1\n      0xb59c6e0e\n      eq\n      tag_25\n      jumpi\n      dup1\n      0xbf3506c1\n      eq\n      tag_26\n      jumpi\n      0x00\n      dup1\n      revert\n    tag_39:\n      dup1\n      0x9850d32b\n      eq\n      tag_19\n      jumpi\n      dup1\n      0x9f531156\n      eq\n      tag_20\n      jumpi\n      dup1\n      0xa1764595\n      eq\n      tag_21\n      jumpi\n      dup1\n      0xa221a15f\n      eq\n      tag_22\n      jumpi\n      0x00\n      dup1\n      revert\n    tag_36:\n      dup1\n      0x63cd79b7\n      gt\n      tag_40\n      jumpi\n      dup1\n      0x7ef189f8\n      gt\n      tag_41\n      jumpi\n      dup1\n      0x7ef189f8\n      eq\n      tag_15\n      jumpi\n      dup1\n      0x864e49a7\n      eq\n      tag_16\n      jumpi\n      dup1\n      0x87df241f\n      eq\n      tag_17\n      jumpi\n      dup1\n      0x8da5cb5b\n      eq\n      tag_18\n      jumpi\n      0x00\n      dup1\n      revert\n    tag_41:\n      dup1\n      0x63cd79b7\n      eq\n      tag_11\n      jumpi\n      dup1\n      0x70ed0ada\n      eq\n      tag_12\n      jumpi\n      dup1\n      0x715018a6\n      eq\n      tag_13\n      jumpi\n      dup1\n      0x7d6dfb7e\n      eq\n      tag_14\n      jumpi\n      0x00\n      dup1\n      revert\n    tag_40:\n      dup1\n      0x478a55eb\n      gt\n      tag_42\n      jumpi\n      dup1\n      0x478a55eb\n      eq\n      tag_7\n      jumpi\n      dup1\n      0x4a938f00\n      eq\n      tag_8\n      jumpi\n      dup1\n      0x4e71d92d\n      eq\n      tag_9\n      jumpi\n      dup1\n      0x5dd53826\n      eq\n      tag_10\n      jumpi\n      0x00\n      dup1\n      revert\n    tag_42:\n      dup1\n      0x11a63e17\n      eq\n      tag_3\n      jumpi\n      dup1\n      0x12065fe0\n      eq\n      tag_4\n      jumpi\n      dup1\n      0x13ea5d29\n      eq\n      tag_5\n      jumpi\n      dup1\n      0x2788a9e4\n      eq\n      tag_6\n      jumpi\n      0x00\n      dup1\n      revert\n    tag_1:\n      jumpi(tag_2, calldatasize)\n      stop\n    tag_2:\n      0x00\n      dup1\n      revert\n        /* \"contracts/chains/kardiachain/RewardSystem.sol\":1146:1216  address public _devWallet = 0xc559aCc356D3037EC6dbc33a20587051188b8634 */\n    tag_3:\n      callvalue\n      dup1\n      iszero\n      tag_45\n      jumpi\n      0x00\n      dup1\n      revert\n    tag_45:\n      pop\n      sload(0x07)\n      tag_46\n      swap1\n      sub(shl(0xa0, 0x01), 0x01)\n      and\n      dup2\n      jump\n    tag_46:\n      mload(0x40)\n      sub(shl(0xa0, 0x01), 0x01)\n        /* \"#utility.yul\":5974:6006   */\n      swap1\n      swap2\n      and\n        /* \"#utility.yul\":5956:6007   */\n      dup2\n      mstore\n        /* \"#utility.yul\":5944:5946   */\n      0x20\n        /* \"#utility.yul\":5929:5947   */\n      add\n        /* \"contracts/chains/kardiachain/RewardSystem.sol\":1146:1216  address public _devWallet = 0xc559aCc356D3037EC6dbc33a20587051188b8634 */\n    tag_48:\n      mload(0x40)\n      dup1\n      swap2\n      sub\n      swap1\n      return\n        /* \"contracts/chains/kardiachain/RewardSystem.sol\":2910:3023  function getBalance() public view returns (uint256) {... */\n    tag_4:\n      callvalue\n      dup1\n      iszero\n      tag_50\n      jumpi\n      0x00\n      dup1\n      revert\n    tag_50:\n      pop\n      tag_51\n      tag_52\n      jump\t// in\n    tag_51:\n      mload(0x40)\n        /* \"#utility.yul\":13591:13616   */\n      swap1\n      dup2\n      mstore\n        /* \"#utility.yul\":13579:13581   */\n      0x20\n        /* \"#utility.yul\":13564:13582   */\n      add\n        /* \"contracts/chains/kardiachain/RewardSystem.sol\":2910:3023  function getBalance() public view returns (uint256) {... */\n      tag_48\n        /* \"#utility.yul\":13445:13622   */\n      jump\n        /* \"contracts/libraries/TimeLock.sol\":3191:3617  function setMaintainer(address _newMaintainer) public onlyMaintainerOrOwner locked(\"maintainer\") {... */\n    tag_5:\n      callvalue\n      dup1\n      iszero\n      tag_55\n      jumpi\n      0x00\n      dup1\n      revert\n    tag_55:\n      pop\n      tag_56\n      tag_57\n      calldatasize\n      0x04\n      tag_58\n      jump\t// in\n    tag_57:\n      tag_59\n      jump\t// in\n    tag_56:\n      stop\n        /* \"contracts/chains/kardiachain/RewardSystem.sol\":4867:5056  function emergencyWithdrawRewardTokens() public onlyOwner {... */\n    tag_6:\n      callvalue\n      dup1\n      iszero\n      tag_60\n      jumpi\n      0x00\n      dup1\n      revert\n    tag_60:\n      pop\n      tag_56\n      tag_62\n      jump\t// in\n        /* \"contracts/chains/kardiachain/RewardSystem.sol\":5387:6092  function sendRewards(uint256[] memory amounts, address[] memory addresses) public onlyOwner {... */\n    tag_7:\n      callvalue\n      dup1\n      iszero\n      tag_63\n      jumpi\n      0x00\n      dup1\n      revert\n    tag_63:\n      pop\n      tag_56\n      tag_65\n      calldatasize\n      0x04\n      tag_66\n      jump\t// in\n    tag_65:\n      tag_67\n      jump\t// in\n        /* \"contracts/chains/kardiachain/RewardSystem.sol\":7601:7805  function sendRewardAndAdjustGasCost(uint256[] memory amounts, address[] memory addresses, uint256 gasCost) public onlyOwner {... */\n    tag_8:\n      callvalue\n      dup1\n      iszero\n      tag_68\n      jumpi\n      0x00\n      dup1\n      revert\n    tag_68:\n      pop\n      tag_56\n      tag_70\n      calldatasize\n      0x04\n      tag_71\n      jump\t// in\n    tag_70:\n      tag_72\n      jump\t// in\n        /* \"contracts/chains/kardiachain/RewardSystem.sol\":7815:8212  function claim() public payable {... */\n    tag_9:\n      tag_56\n      tag_74\n      jump\t// in\n        /* \"contracts/chains/kardiachain/RewardSystem.sol\":1259:1311  uint256 public _maxAmountPerReceive = 10000000 ether */\n    tag_10:\n      callvalue\n      dup1\n      iszero\n      tag_75\n      jumpi\n      0x00\n      dup1\n      revert\n    tag_75:\n      pop\n      tag_51\n      sload(0x09)\n      dup2\n      jump\n        /* \"contracts/chains/kardiachain/RewardSystem.sol\":4477:4760  function changeOracleWallet(address oracleWallet) public onlyOwner locked(\"changeOracleWallet\") {... */\n    tag_11:\n      callvalue\n      dup1\n      iszero\n      tag_79\n      jumpi\n      0x00\n      dup1\n      revert\n    tag_79:\n      pop\n      tag_56\n      tag_81\n      calldatasize\n      0x04\n      tag_58\n      jump\t// in\n    tag_81:\n      tag_82\n      jump\t// in\n        /* \"contracts/chains/kardiachain/RewardSystem.sol\":3029:3129  function getEthBalance() public view returns (uint256) {... */\n    tag_12:\n      callvalue\n      dup1\n      iszero\n      tag_83\n      jumpi\n      0x00\n      dup1\n      revert\n    tag_83:\n      pop\n        /* \"contracts/chains/kardiachain/RewardSystem.sol\":3101:3122  address(this).balance */\n      selfbalance\n        /* \"contracts/chains/kardiachain/RewardSystem.sol\":3029:3129  function getEthBalance() public view returns (uint256) {... */\n      jump(tag_51)\n        /* \"@openzeppelin/contracts/access/Ownable.sol\":1605:1697  function renounceOwnership() public virtual onlyOwner {... */\n    tag_13:\n      callvalue\n      dup1\n      iszero\n      tag_87\n      jumpi\n      0x00\n      dup1\n      revert\n    tag_87:\n      pop\n      tag_56\n      tag_89\n      jump\t// in\n        /* \"contracts/chains/kardiachain/RewardSystem.sol\":916:956  mapping(address => bool) public _rewards */\n    tag_14:\n      callvalue\n      dup1\n      iszero\n      tag_90\n      jumpi\n      0x00\n      dup1\n      revert\n    tag_90:\n      pop\n      tag_91\n      tag_92\n      calldatasize\n      0x04\n      tag_58\n      jump\t// in\n    tag_92:\n      mstore(0x20, 0x03)\n      0x00\n      swap1\n      dup2\n      mstore\n      0x40\n      swap1\n      keccak256\n      sload\n      0xff\n      and\n      dup2\n      jump\n    tag_91:\n      mload(0x40)\n        /* \"#utility.yul\":6462:6476   */\n      swap1\n      iszero\n        /* \"#utility.yul\":6455:6477   */\n      iszero\n        /* \"#utility.yul\":6437:6478   */\n      dup2\n      mstore\n        /* \"#utility.yul\":6425:6427   */\n      0x20\n        /* \"#utility.yul\":6410:6428   */\n      add\n        /* \"contracts/chains/kardiachain/RewardSystem.sol\":916:956  mapping(address => bool) public _rewards */\n      tag_48\n        /* \"#utility.yul\":6297:6484   */\n      jump\n        /* \"contracts/chains/kardiachain/RewardSystem.sol\":1014:1056  uint256 public _gasCost = 2100000000000000 */\n    tag_15:\n      callvalue\n      dup1\n      iszero\n      tag_96\n      jumpi\n      0x00\n      dup1\n      revert\n    tag_96:\n      pop\n      tag_51\n      sload(0x05)\n      dup2\n      jump\n        /* \"contracts/chains/kardiachain/RewardSystem.sol\":3262:3396  function canClaimNative(address user) public view returns (bool) {... */\n    tag_16:\n      callvalue\n      dup1\n      iszero\n      tag_100\n      jumpi\n      0x00\n      dup1\n      revert\n    tag_100:\n      pop\n      tag_91\n      tag_102\n      calldatasize\n      0x04\n      tag_58\n      jump\t// in\n    tag_102:\n      tag_103\n      jump\t// in\n        /* \"contracts/chains/kardiachain/RewardSystem.sol\":3731:3895  function adjustGasCost(uint256 gasCost) public onlyOwner locked(\"adjustGasCost\") {... */\n    tag_17:\n      callvalue\n      dup1\n      iszero\n      tag_105\n      jumpi\n      0x00\n      dup1\n      revert\n    tag_105:\n      pop\n      tag_56\n      tag_107\n      calldatasize\n      0x04\n      tag_108\n      jump\t// in\n    tag_107:\n      tag_109\n      jump\t// in\n        /* \"@openzeppelin/contracts/access/Ownable.sol\":973:1058  function owner() public view virtual returns (address) {... */\n    tag_18:\n      callvalue\n      dup1\n      iszero\n      tag_110\n      jumpi\n      0x00\n      dup1\n      revert\n    tag_110:\n      pop\n        /* \"@openzeppelin/contracts/access/Ownable.sol\":1019:1026  address */\n      0x00\n        /* \"@openzeppelin/contracts/access/Ownable.sol\":1045:1051  _owner */\n      sload\n      sub(shl(0xa0, 0x01), 0x01)\n      and\n        /* \"@openzeppelin/contracts/access/Ownable.sol\":973:1058  function owner() public view virtual returns (address) {... */\n      jump(tag_46)\n        /* \"contracts/libraries/TimeLock.sol\":2770:2857  function maintainer() public view returns (address) {... */\n    tag_19:\n      callvalue\n      dup1\n      iszero\n      tag_114\n      jumpi\n      0x00\n      dup1\n      revert\n    tag_114:\n      pop\n        /* \"contracts/libraries/TimeLock.sol\":2839:2850  _maintainer */\n      and(sub(shl(0xa0, 0x01), 0x01), sload(0x02))\n        /* \"contracts/libraries/TimeLock.sol\":2770:2857  function maintainer() public view returns (address) {... */\n      jump(tag_46)\n        /* \"contracts/libraries/TimeLock.sol\":4317:4421  function lockFunction(string memory _fn) public onlyMaintainerOrOwner {... */\n    tag_20:\n      callvalue\n      dup1\n      iszero\n      tag_118\n      jumpi\n      0x00\n      dup1\n      revert\n    tag_118:\n      pop\n      tag_56\n      tag_120\n      calldatasize\n      0x04\n      tag_121\n      jump\t// in\n    tag_120:\n      tag_122\n      jump\t// in\n        /* \"contracts/chains/kardiachain/RewardSystem.sol\":1317:1382  address public _weth = 0xAF984E23EAA3E7967F3C5E007fbe397D8566D23d */\n    tag_21:\n      callvalue\n      dup1\n      iszero\n      tag_123\n      jumpi\n      0x00\n      dup1\n      revert\n    tag_123:\n      pop\n      sload(0x0a)\n      tag_46\n      swap1\n      sub(shl(0xa0, 0x01), 0x01)\n      and\n      dup2\n      jump\n        /* \"contracts/chains/kardiachain/RewardSystem.sol\":1067:1140  address public _oracleWallet = 0x76049b7cAaB30b8bBBdcfF3A1059d9147dBF7B19 */\n    tag_22:\n      callvalue\n      dup1\n      iszero\n      tag_127\n      jumpi\n      0x00\n      dup1\n      revert\n    tag_127:\n      pop\n      sload(0x06)\n      tag_46\n      swap1\n      sub(shl(0xa0, 0x01), 0x01)\n      and\n      dup2\n      jump\n        /* \"contracts/libraries/TimeLock.sol\":737:770  bool public isLockEnabled = false */\n    tag_23:\n      callvalue\n      dup1\n      iszero\n      tag_131\n      jumpi\n      0x00\n      dup1\n      revert\n    tag_131:\n      pop\n      sload(0x00)\n      tag_91\n      swap1\n      shl(0xa0, 0x01)\n      swap1\n      div\n      0xff\n      and\n      dup2\n      jump\n        /* \"contracts/libraries/TimeLock.sol\":4100:4284  function unlockFunction(string memory _fn) public onlyMaintainerOrOwner {... */\n    tag_24:\n      callvalue\n      dup1\n      iszero\n      tag_135\n      jumpi\n      0x00\n      dup1\n      revert\n    tag_135:\n      pop\n      tag_56\n      tag_137\n      calldatasize\n      0x04\n      tag_121\n      jump\t// in\n    tag_137:\n      tag_138\n      jump\t// in\n        /* \"contracts/chains/kardiachain/RewardSystem.sol\":1227:1253  IERC20 public _rewardToken */\n    tag_25:\n      callvalue\n      dup1\n      iszero\n      tag_139\n      jumpi\n      0x00\n      dup1\n      revert\n    tag_139:\n      pop\n      sload(0x08)\n      tag_46\n      swap1\n      sub(shl(0xa0, 0x01), 0x01)\n      and\n      dup2\n      jump\n        /* \"contracts/chains/kardiachain/RewardSystem.sol\":3135:3256  function canClaim(address user) public view returns (bool) {... */\n    tag_26:\n      callvalue\n      dup1\n      iszero\n      tag_144\n      jumpi\n      0x00\n      dup1\n      revert\n    tag_144:\n      pop\n      tag_91\n      tag_146\n      calldatasize\n      0x04\n      tag_58\n      jump\t// in\n    tag_146:\n      tag_147\n      jump\t// in\n        /* \"contracts/chains/kardiachain/RewardSystem.sol\":4770:4861  function setRouter(IKaiDexRouter router) public onlyOwner {... */\n    tag_27:\n      callvalue\n      dup1\n      iszero\n      tag_149\n      jumpi\n      0x00\n      dup1\n      revert\n    tag_149:\n      pop\n      tag_56\n      tag_151\n      calldatasize\n      0x04\n      tag_58\n      jump\t// in\n    tag_151:\n      tag_153\n      jump\t// in\n        /* \"contracts/chains/kardiachain/RewardSystem.sol\":6102:7038  function sendRewardsAsEth(uint256 amount, address user) public onlyOwner {... */\n    tag_28:\n      callvalue\n      dup1\n      iszero\n      tag_154\n      jumpi\n      0x00\n      dup1\n      revert\n    tag_154:\n      pop\n      tag_56\n      tag_156\n      calldatasize\n      0x04\n      tag_157\n      jump\t// in\n    tag_156:\n      tag_158\n      jump\t// in\n        /* \"contracts/chains/kardiachain/RewardSystem.sol\":3901:4131  function adjustMaxAmountPerReceive(uint256 newAmount) public onlyOwner locked(\"adjustMaxAmountPerReceive\") {... */\n    tag_29:\n      callvalue\n      dup1\n      iszero\n      tag_159\n      jumpi\n      0x00\n      dup1\n      revert\n    tag_159:\n      pop\n      tag_56\n      tag_161\n      calldatasize\n      0x04\n      tag_108\n      jump\t// in\n    tag_161:\n      tag_162\n      jump\t// in\n        /* \"contracts/chains/kardiachain/RewardSystem.sol\":1389:1477  IKaiDexRouter public _router = IKaiDexRouter(0xbAFcdabe65A03825a131298bE7670c0aEC77B37f) */\n    tag_30:\n      callvalue\n      dup1\n      iszero\n      tag_163\n      jumpi\n      0x00\n      dup1\n      revert\n    tag_163:\n      pop\n      sload(0x0b)\n      tag_46\n      swap1\n      sub(shl(0xa0, 0x01), 0x01)\n      and\n      dup2\n      jump\n        /* \"@openzeppelin/contracts/access/Ownable.sol\":1846:2035  function transferOwnership(address newOwner) public virtual onlyOwner {... */\n    tag_31:\n      callvalue\n      dup1\n      iszero\n      tag_168\n      jumpi\n      0x00\n      dup1\n      revert\n    tag_168:\n      pop\n      tag_56\n      tag_170\n      calldatasize\n      0x04\n      tag_58\n      jump\t// in\n    tag_170:\n      tag_171\n      jump\t// in\n        /* \"contracts/libraries/TimeLock.sol\":3627:3751  function setTimelockEnabled() public onlyMaintainerOrOwner {... */\n    tag_32:\n      callvalue\n      dup1\n      iszero\n      tag_172\n      jumpi\n      0x00\n      dup1\n      revert\n    tag_172:\n      pop\n      tag_56\n      tag_174\n      jump\t// in\n        /* \"contracts/chains/kardiachain/RewardSystem.sol\":962:1008  mapping(address => uint256) public _claimTimes */\n    tag_33:\n      callvalue\n      dup1\n      iszero\n      tag_175\n      jumpi\n      0x00\n      dup1\n      revert\n    tag_175:\n      pop\n      tag_51\n      tag_177\n      calldatasize\n      0x04\n      tag_58\n      jump\t// in\n    tag_177:\n      mstore(0x20, 0x04)\n      0x00\n      swap1\n      dup2\n      mstore\n      0x40\n      swap1\n      keccak256\n      sload\n      dup2\n      jump\n        /* \"contracts/chains/kardiachain/RewardSystem.sol\":4141:4467  function updateRewardToken(IERC20 rewardToken) public onlyOwner locked(\"updateRewardToken\") {... */\n    tag_34:\n      callvalue\n      dup1\n      iszero\n      tag_180\n      jumpi\n      0x00\n      dup1\n      revert\n    tag_180:\n      pop\n      tag_56\n      tag_182\n      calldatasize\n      0x04\n      tag_58\n      jump\t// in\n    tag_182:\n      tag_184\n      jump\t// in\n        /* \"contracts/libraries/TimeLock.sol\":776:818  mapping(string => uint256) public timelock */\n    tag_35:\n      callvalue\n      dup1\n      iszero\n      tag_185\n      jumpi\n      0x00\n      dup1\n      revert\n    tag_185:\n      pop\n      tag_51\n      tag_187\n      calldatasize\n      0x04\n      tag_121\n      jump\t// in\n    tag_187:\n      dup1\n      mload\n      0x20\n      dup2\n      dup4\n      add\n      dup2\n      add\n      dup1\n      mload\n      0x01\n      dup3\n      mstore\n      swap3\n      dup3\n      add\n      swap2\n      swap1\n      swap4\n      add\n      keccak256\n      swap2\n      mstore\n      sload\n      dup2\n      jump\n        /* \"contracts/chains/kardiachain/RewardSystem.sol\":2910:3023  function getBalance() public view returns (uint256) {... */\n    tag_52:\n        /* \"contracts/chains/kardiachain/RewardSystem.sol\":2979:2991  _rewardToken */\n      sload(0x08)\n        /* \"contracts/chains/kardiachain/RewardSystem.sol\":2979:3016  _rewardToken.balanceOf(address(this)) */\n      mload(0x40)\n      shl(0xe0, 0x70a08231)\n      dup2\n      mstore\n        /* \"contracts/chains/kardiachain/RewardSystem.sol\":3010:3014  this */\n      address\n        /* \"contracts/chains/kardiachain/RewardSystem.sol\":2979:3016  _rewardToken.balanceOf(address(this)) */\n      0x04\n      dup3\n      add\n        /* \"#utility.yul\":5956:6007   */\n      mstore\n        /* \"contracts/chains/kardiachain/RewardSystem.sol\":2953:2960  uint256 */\n      0x00\n      swap2\n      sub(shl(0xa0, 0x01), 0x01)\n        /* \"contracts/chains/kardiachain/RewardSystem.sol\":2979:2991  _rewardToken */\n      and\n      swap1\n        /* \"contracts/chains/kardiachain/RewardSystem.sol\":2979:3001  _rewardToken.balanceOf */\n      0x70a08231\n      swap1\n        /* \"#utility.yul\":5929:5947   */\n      0x24\n      add\n        /* \"contracts/chains/kardiachain/RewardSystem.sol\":2979:3016  _rewardToken.balanceOf(address(this)) */\n      0x20\n      mload(0x40)\n      dup1\n      dup4\n      sub\n      dup2\n      dup7\n      dup1\n      extcodesize\n      iszero\n      dup1\n      iszero\n      tag_192\n      jumpi\n      0x00\n      dup1\n      revert\n    tag_192:\n      pop\n      gas\n      staticcall\n      iszero\n      dup1\n      iszero\n      tag_194\n      jumpi\n      returndatasize\n      0x00\n      dup1\n      returndatacopy\n      revert(0x00, returndatasize)\n    tag_194:\n      pop\n      pop\n      pop\n      pop\n      mload(0x40)\n      returndatasize\n      not(0x1f)\n      0x1f\n      dup3\n      add\n      and\n      dup3\n      add\n      dup1\n      0x40\n      mstore\n      pop\n      dup2\n      add\n      swap1\n      tag_195\n      swap2\n      swap1\n      tag_196\n      jump\t// in\n    tag_195:\n        /* \"contracts/chains/kardiachain/RewardSystem.sol\":2972:3016  return _rewardToken.balanceOf(address(this)) */\n      swap1\n      pop\n        /* \"contracts/chains/kardiachain/RewardSystem.sol\":2910:3023  function getBalance() public view returns (uint256) {... */\n      swap1\n      jump\t// out\n        /* \"contracts/libraries/TimeLock.sol\":3191:3617  function setMaintainer(address _newMaintainer) public onlyMaintainerOrOwner locked(\"maintainer\") {... */\n    tag_59:\n        /* \"contracts/libraries/TimeLock.sol\":2264:2274  msg.sender */\n      caller\n        /* \"contracts/libraries/TimeLock.sol\":2253:2260  owner() */\n      tag_198\n        /* \"@openzeppelin/contracts/access/Ownable.sol\":1019:1026  address */\n      0x00\n        /* \"@openzeppelin/contracts/access/Ownable.sol\":1045:1051  _owner */\n      sload\n      sub(shl(0xa0, 0x01), 0x01)\n      and\n      swap1\n        /* \"@openzeppelin/contracts/access/Ownable.sol\":973:1058  function owner() public view virtual returns (address) {... */\n      jump\n        /* \"contracts/libraries/TimeLock.sol\":2253:2260  owner() */\n    tag_198:\n      sub(shl(0xa0, 0x01), 0x01)\n        /* \"contracts/libraries/TimeLock.sol\":2253:2274  owner() == msg.sender */\n      and\n      eq\n        /* \"contracts/libraries/TimeLock.sol\":2253:2303  owner() == msg.sender || _maintainer == msg.sender */\n      dup1\n      tag_199\n      jumpi\n      pop\n        /* \"contracts/libraries/TimeLock.sol\":2278:2289  _maintainer */\n      and(sub(shl(0xa0, 0x01), 0x01), sload(0x02))\n        /* \"contracts/libraries/TimeLock.sol\":2293:2303  msg.sender */\n      caller\n        /* \"contracts/libraries/TimeLock.sol\":2278:2303  _maintainer == msg.sender */\n      eq\n        /* \"contracts/libraries/TimeLock.sol\":2253:2303  owner() == msg.sender || _maintainer == msg.sender */\n    tag_199:\n        /* \"contracts/libraries/TimeLock.sol\":2245:2361  require(owner() == msg.sender || _maintainer == msg.sender, \"operator: caller is not allowed to call this function\") */\n      tag_200\n      jumpi\n      mload(0x40)\n      shl(0xe5, 0x461bcd)\n      dup2\n      mstore\n      0x04\n      add\n      tag_201\n      swap1\n      tag_202\n      jump\t// in\n    tag_201:\n      mload(0x40)\n      dup1\n      swap2\n      sub\n      swap1\n      revert\n    tag_200:\n        /* \"contracts/libraries/TimeLock.sol\":1945:2188  modifier locked(string memory _fn) {... */\n      0x40\n      dup1\n      mload\n      dup1\n      dup3\n      add\n      swap1\n      swap2\n      mstore\n      0x0a\n      dup2\n      mstore\n      shl(0xb1, 0x36b0b4b73a30b4b732b9)\n      0x20\n      dup3\n      add\n      mstore\n      0x00\n        /* \"contracts/libraries/TimeLock.sol\":1999:2012  isLockEnabled */\n      sload\n      shl(0xa0, 0x01)\n      swap1\n      div\n      0xff\n      and\n        /* \"contracts/libraries/TimeLock.sol\":1998:2012  !isLockEnabled */\n      iszero\n      dup1\n        /* \"contracts/libraries/TimeLock.sol\":1998:2120  !isLockEnabled || (timelock[_fn] != 0 && timelock[_fn] <= block.timestamp && timelock[_fn] + _TIMELOCK >= block.timestamp) */\n      tag_209\n      jumpi\n      pop\n        /* \"contracts/libraries/TimeLock.sol\":2017:2025  timelock */\n      0x01\n        /* \"contracts/libraries/TimeLock.sol\":2026:2029  _fn */\n      dup2\n        /* \"contracts/libraries/TimeLock.sol\":2017:2030  timelock[_fn] */\n      mload(0x40)\n      tag_205\n      swap2\n      swap1\n      tag_454\n      jump\t// in\n    tag_205:\n      swap1\n      dup2\n      mstore\n      0x20\n      add\n      mload(0x40)\n      dup1\n      swap2\n      sub\n      swap1\n      keccak256\n      sload\n        /* \"contracts/libraries/TimeLock.sol\":2034:2035  0 */\n      0x00\n        /* \"contracts/libraries/TimeLock.sol\":2017:2035  timelock[_fn] != 0 */\n      eq\n      iszero\n        /* \"contracts/libraries/TimeLock.sol\":2017:2071  timelock[_fn] != 0 && timelock[_fn] <= block.timestamp */\n      dup1\n      iszero\n      tag_207\n      jumpi\n      pop\n        /* \"contracts/libraries/TimeLock.sol\":2056:2071  block.timestamp */\n      timestamp\n        /* \"contracts/libraries/TimeLock.sol\":2039:2047  timelock */\n      0x01\n        /* \"contracts/libraries/TimeLock.sol\":2048:2051  _fn */\n      dup3\n        /* \"contracts/libraries/TimeLock.sol\":2039:2052  timelock[_fn] */\n      mload(0x40)\n      tag_208\n      swap2\n      swap1\n      tag_454\n      jump\t// in\n    tag_208:\n      swap1\n      dup2\n      mstore\n      0x20\n      add\n      mload(0x40)\n      dup1\n      swap2\n      sub\n      swap1\n      keccak256\n      sload\n        /* \"contracts/libraries/TimeLock.sol\":2039:2071  timelock[_fn] <= block.timestamp */\n      gt\n      iszero\n        /* \"contracts/libraries/TimeLock.sol\":2017:2071  timelock[_fn] != 0 && timelock[_fn] <= block.timestamp */\n    tag_207:\n        /* \"contracts/libraries/TimeLock.sol\":2017:2119  timelock[_fn] != 0 && timelock[_fn] <= block.timestamp && timelock[_fn] + _TIMELOCK >= block.timestamp */\n      dup1\n      iszero\n      tag_209\n      jumpi\n      pop\n        /* \"contracts/libraries/TimeLock.sol\":2104:2119  block.timestamp */\n      timestamp\n        /* \"contracts/libraries/TimeLock.sol\":861:867  1 days */\n      0x015180\n        /* \"contracts/libraries/TimeLock.sol\":2075:2083  timelock */\n      0x01\n        /* \"contracts/libraries/TimeLock.sol\":2084:2087  _fn */\n      dup4\n        /* \"contracts/libraries/TimeLock.sol\":2075:2088  timelock[_fn] */\n      mload(0x40)\n      tag_210\n      swap2\n      swap1\n      tag_454\n      jump\t// in\n    tag_210:\n      swap1\n      dup2\n      mstore\n      0x20\n      add\n      mload(0x40)\n      dup1\n      swap2\n      sub\n      swap1\n      keccak256\n      sload\n        /* \"contracts/libraries/TimeLock.sol\":2075:2100  timelock[_fn] + _TIMELOCK */\n      tag_211\n      swap2\n      swap1\n      tag_212\n      jump\t// in\n    tag_211:\n        /* \"contracts/libraries/TimeLock.sol\":2075:2119  timelock[_fn] + _TIMELOCK >= block.timestamp */\n      lt\n      iszero\n        /* \"contracts/libraries/TimeLock.sol\":2017:2119  timelock[_fn] != 0 && timelock[_fn] <= block.timestamp && timelock[_fn] + _TIMELOCK >= block.timestamp */\n    tag_209:\n        /* \"contracts/libraries/TimeLock.sol\":1990:2143  require(!isLockEnabled || (timelock[_fn] != 0 && timelock[_fn] <= block.timestamp && timelock[_fn] + _TIMELOCK >= block.timestamp), \"Function is locked\") */\n      tag_213\n      jumpi\n      mload(0x40)\n      shl(0xe5, 0x461bcd)\n      dup2\n      mstore\n      0x04\n      add\n      tag_201\n      swap1\n      tag_215\n      jump\t// in\n    tag_213:\n        /* \"contracts/libraries/TimeLock.sol\":3324:3335  _maintainer */\n      sload(0x02)\n      sub(shl(0xa0, 0x01), 0x01)\n        /* \"contracts/libraries/TimeLock.sol\":3306:3335  _newMaintainer != _maintainer */\n      dup4\n      dup2\n      and\n        /* \"contracts/libraries/TimeLock.sol\":3324:3335  _maintainer */\n      swap2\n      and\n        /* \"contracts/libraries/TimeLock.sol\":3306:3335  _newMaintainer != _maintainer */\n      eq\n      dup1\n      iszero\n      swap1\n        /* \"contracts/libraries/TimeLock.sol\":3306:3367  _newMaintainer != _maintainer && _newMaintainer != address(0) */\n      tag_217\n      jumpi\n      pop\n      sub(shl(0xa0, 0x01), 0x01)\n        /* \"contracts/libraries/TimeLock.sol\":3339:3367  _newMaintainer != address(0) */\n      dup3\n      and\n      iszero\n      iszero\n        /* \"contracts/libraries/TimeLock.sol\":3306:3367  _newMaintainer != _maintainer && _newMaintainer != address(0) */\n    tag_217:\n        /* \"contracts/libraries/TimeLock.sol\":3298:3453  require(_newMaintainer != _maintainer && _newMaintainer != address(0), \"ABOAT::setMaintainer: Maintainer can\\'t equal previous maintainer or zero address\") */\n      tag_218\n      jumpi\n      mload(0x40)\n      shl(0xe5, 0x461bcd)\n      dup2\n      mstore\n        /* \"#utility.yul\":8816:8818   */\n      0x20\n        /* \"contracts/libraries/TimeLock.sol\":3298:3453  require(_newMaintainer != _maintainer && _newMaintainer != address(0), \"ABOAT::setMaintainer: Maintainer can\\'t equal previous maintainer or zero address\") */\n      0x04\n      dup3\n      add\n        /* \"#utility.yul\":8798:8819   */\n      mstore\n        /* \"#utility.yul\":8855:8857   */\n      0x50\n        /* \"#utility.yul\":8835:8853   */\n      0x24\n      dup3\n      add\n        /* \"#utility.yul\":8828:8858   */\n      mstore\n        /* \"#utility.yul\":8894:8928   */\n      0x41424f41543a3a7365744d61696e7461696e65723a204d61696e7461696e6572\n        /* \"#utility.yul\":8874:8892   */\n      0x44\n      dup3\n      add\n        /* \"#utility.yul\":8867:8929   */\n      mstore\n        /* \"#utility.yul\":8965:8999   */\n      0x2063616e277420657175616c2070726576696f7573206d61696e7461696e6572\n        /* \"#utility.yul\":8945:8963   */\n      0x64\n      dup3\n      add\n        /* \"#utility.yul\":8938:9000   */\n      mstore\n      shl(0x80, 0x206f72207a65726f2061646472657373)\n        /* \"#utility.yul\":9016:9035   */\n      0x84\n      dup3\n      add\n        /* \"#utility.yul\":9009:9056   */\n      mstore\n        /* \"#utility.yul\":9073:9092   */\n      0xa4\n      add\n        /* \"contracts/libraries/TimeLock.sol\":3298:3453  require(_newMaintainer != _maintainer && _newMaintainer != address(0), \"ABOAT::setMaintainer: Maintainer can\\'t equal previous maintainer or zero address\") */\n      tag_201\n        /* \"#utility.yul\":8614:9098   */\n      jump\n        /* \"contracts/libraries/TimeLock.sol\":3298:3453  require(_newMaintainer != _maintainer && _newMaintainer != address(0), \"ABOAT::setMaintainer: Maintainer can\\'t equal previous maintainer or zero address\") */\n    tag_218:\n        /* \"contracts/libraries/TimeLock.sol\":3492:3503  _maintainer */\n      0x02\n      dup1\n      sload\n      sub(shl(0xa0, 0x01), 0x01)\n        /* \"contracts/libraries/TimeLock.sol\":3513:3541  _maintainer = _newMaintainer */\n      dup5\n      dup2\n      and\n      not(sub(shl(0xa0, 0x01), 0x01))\n      dup4\n      and\n      dup2\n      or\n      swap1\n      swap4\n      sstore\n        /* \"contracts/libraries/TimeLock.sol\":3556:3610  MaintainerTransferred(previousMaintainer, _maintainer) */\n      mload(0x40)\n        /* \"contracts/libraries/TimeLock.sol\":3492:3503  _maintainer */\n      swap2\n      and\n      swap2\n        /* \"contracts/libraries/TimeLock.sol\":3513:3541  _maintainer = _newMaintainer */\n      swap1\n        /* \"contracts/libraries/TimeLock.sol\":3492:3503  _maintainer */\n      dup3\n      swap1\n        /* \"contracts/libraries/TimeLock.sol\":3556:3610  MaintainerTransferred(previousMaintainer, _maintainer) */\n      0x2f3ffaaaad93928855c8700645d1a3643e6ccfdd500efa9fda048a88f557cf01\n      swap1\n        /* \"contracts/libraries/TimeLock.sol\":3463:3489  address previousMaintainer */\n      0x00\n      swap1\n        /* \"contracts/libraries/TimeLock.sol\":3556:3610  MaintainerTransferred(previousMaintainer, _maintainer) */\n      log3\n        /* \"contracts/libraries/TimeLock.sol\":3288:3617  {... */\n      pop\n        /* \"contracts/libraries/TimeLock.sol\":2164:2181  lockFunction(_fn) */\n      tag_221\n        /* \"contracts/libraries/TimeLock.sol\":2177:2180  _fn */\n      dup2\n        /* \"contracts/libraries/TimeLock.sol\":2164:2176  lockFunction */\n      tag_122\n        /* \"contracts/libraries/TimeLock.sol\":2164:2181  lockFunction(_fn) */\n      jump\t// in\n    tag_221:\n        /* \"contracts/libraries/TimeLock.sol\":2371:2372  _ */\n      pop\n        /* \"contracts/libraries/TimeLock.sol\":3191:3617  function setMaintainer(address _newMaintainer) public onlyMaintainerOrOwner locked(\"maintainer\") {... */\n      pop\n      jump\t// out\n        /* \"contracts/chains/kardiachain/RewardSystem.sol\":4867:5056  function emergencyWithdrawRewardTokens() public onlyOwner {... */\n    tag_62:\n        /* \"@openzeppelin/contracts/access/Ownable.sol\":1019:1026  address */\n      0x00\n        /* \"@openzeppelin/contracts/access/Ownable.sol\":1045:1051  _owner */\n      sload\n      sub(shl(0xa0, 0x01), 0x01)\n      and\n        /* \"@openzeppelin/contracts/utils/Context.sol\":665:675  msg.sender */\n      caller\n        /* \"@openzeppelin/contracts/access/Ownable.sol\":1185:1208  owner() == _msgSender() */\n      eq\n        /* \"@openzeppelin/contracts/access/Ownable.sol\":1177:1245  require(owner() == _msgSender(), \"Ownable: caller is not the owner\") */\n      tag_226\n      jumpi\n      mload(0x40)\n      shl(0xe5, 0x461bcd)\n      dup2\n      mstore\n      0x04\n      add\n      tag_201\n      swap1\n      tag_228\n      jump\t// in\n    tag_226:\n        /* \"contracts/chains/kardiachain/RewardSystem.sol\":4971:4983  _rewardToken */\n      sload(0x08)\n        /* \"contracts/chains/kardiachain/RewardSystem.sol\":4935:5008  TransferHelper.safeTransfer(address(_rewardToken), owner(), getBalance()) */\n      tag_230\n      swap1\n      sub(shl(0xa0, 0x01), 0x01)\n        /* \"contracts/chains/kardiachain/RewardSystem.sol\":4971:4983  _rewardToken */\n      and\n        /* \"contracts/chains/kardiachain/RewardSystem.sol\":4986:4993  owner() */\n      tag_231\n        /* \"@openzeppelin/contracts/access/Ownable.sol\":1019:1026  address */\n      0x00\n        /* \"@openzeppelin/contracts/access/Ownable.sol\":1045:1051  _owner */\n      sload\n      sub(shl(0xa0, 0x01), 0x01)\n      and\n      swap1\n        /* \"@openzeppelin/contracts/access/Ownable.sol\":973:1058  function owner() public view virtual returns (address) {... */\n      jump\n        /* \"contracts/chains/kardiachain/RewardSystem.sol\":4986:4993  owner() */\n    tag_231:\n        /* \"contracts/chains/kardiachain/RewardSystem.sol\":4995:5007  getBalance() */\n      tag_232\n        /* \"contracts/chains/kardiachain/RewardSystem.sol\":4995:5005  getBalance */\n      tag_52\n        /* \"contracts/chains/kardiachain/RewardSystem.sol\":4995:5007  getBalance() */\n      jump\t// in\n    tag_232:\n        /* \"contracts/chains/kardiachain/RewardSystem.sol\":4935:4962  TransferHelper.safeTransfer */\n      tag_233\n        /* \"contracts/chains/kardiachain/RewardSystem.sol\":4935:5008  TransferHelper.safeTransfer(address(_rewardToken), owner(), getBalance()) */\n      jump\t// in\n    tag_230:\n        /* \"@openzeppelin/contracts/access/Ownable.sol\":1019:1026  address */\n      0x00\n        /* \"@openzeppelin/contracts/access/Ownable.sol\":1045:1051  _owner */\n      dup1\n      sload\n        /* \"contracts/chains/kardiachain/RewardSystem.sol\":5023:5049  EmergencyWithdraw(owner()) */\n      mload(0x40)\n      sub(shl(0xa0, 0x01), 0x01)\n        /* \"@openzeppelin/contracts/access/Ownable.sol\":1045:1051  _owner */\n      swap1\n      swap2\n      and\n      swap2\n        /* \"contracts/chains/kardiachain/RewardSystem.sol\":5023:5049  EmergencyWithdraw(owner()) */\n      0x5e7b34819cd91b239220bec92fcfd3c10da2214ba13e4e2b1f6c9cfdbd68a9a2\n      swap2\n      log2\n        /* \"contracts/chains/kardiachain/RewardSystem.sol\":4867:5056  function emergencyWithdrawRewardTokens() public onlyOwner {... */\n      jump\t// out\n        /* \"contracts/chains/kardiachain/RewardSystem.sol\":5387:6092  function sendRewards(uint256[] memory amounts, address[] memory addresses) public onlyOwner {... */\n    tag_67:\n        /* \"@openzeppelin/contracts/access/Ownable.sol\":1019:1026  address */\n      0x00\n        /* \"@openzeppelin/contracts/access/Ownable.sol\":1045:1051  _owner */\n      sload\n      sub(shl(0xa0, 0x01), 0x01)\n      and\n        /* \"@openzeppelin/contracts/utils/Context.sol\":665:675  msg.sender */\n      caller\n        /* \"@openzeppelin/contracts/access/Ownable.sol\":1185:1208  owner() == _msgSender() */\n      eq\n        /* \"@openzeppelin/contracts/access/Ownable.sol\":1177:1245  require(owner() == _msgSender(), \"Ownable: caller is not the owner\") */\n      tag_238\n      jumpi\n      mload(0x40)\n      shl(0xe5, 0x461bcd)\n      dup2\n      mstore\n      0x04\n      add\n      tag_201\n      swap1\n      tag_228\n      jump\t// in\n    tag_238:\n        /* \"contracts/chains/kardiachain/RewardSystem.sol\":5515:5524  addresses */\n      dup1\n        /* \"contracts/chains/kardiachain/RewardSystem.sol\":5515:5531  addresses.length */\n      mload\n        /* \"contracts/chains/kardiachain/RewardSystem.sol\":5497:5504  amounts */\n      dup3\n        /* \"contracts/chains/kardiachain/RewardSystem.sol\":5497:5511  amounts.length */\n      mload\n        /* \"contracts/chains/kardiachain/RewardSystem.sol\":5497:5531  amounts.length == addresses.length */\n      eq\n        /* \"contracts/chains/kardiachain/RewardSystem.sol\":5489:5614  require(amounts.length == addresses.length, \"ABOAT::sendRewards: amounts and addresses must have the same amount of entries\") */\n      tag_241\n      jumpi\n      mload(0x40)\n      shl(0xe5, 0x461bcd)\n      dup2\n      mstore\n        /* \"#utility.yul\":13160:13162   */\n      0x20\n        /* \"contracts/chains/kardiachain/RewardSystem.sol\":5489:5614  require(amounts.length == addresses.length, \"ABOAT::sendRewards: amounts and addresses must have the same amount of entries\") */\n      0x04\n      dup3\n      add\n        /* \"#utility.yul\":13142:13163   */\n      mstore\n        /* \"#utility.yul\":13199:13201   */\n      0x4e\n        /* \"#utility.yul\":13179:13197   */\n      0x24\n      dup3\n      add\n        /* \"#utility.yul\":13172:13202   */\n      mstore\n        /* \"#utility.yul\":13238:13272   */\n      0x41424f41543a3a73656e64526577617264733a20616d6f756e747320616e6420\n        /* \"#utility.yul\":13218:13236   */\n      0x44\n      dup3\n      add\n        /* \"#utility.yul\":13211:13273   */\n      mstore\n        /* \"#utility.yul\":13309:13343   */\n      0x616464726573736573206d7573742068617665207468652073616d6520616d6f\n        /* \"#utility.yul\":13289:13307   */\n      0x64\n      dup3\n      add\n        /* \"#utility.yul\":13282:13344   */\n      mstore\n      shl(0x90, 0x756e74206f6620656e7472696573)\n        /* \"#utility.yul\":13360:13379   */\n      0x84\n      dup3\n      add\n        /* \"#utility.yul\":13353:13398   */\n      mstore\n        /* \"#utility.yul\":13415:13434   */\n      0xa4\n      add\n        /* \"contracts/chains/kardiachain/RewardSystem.sol\":5489:5614  require(amounts.length == addresses.length, \"ABOAT::sendRewards: amounts and addresses must have the same amount of entries\") */\n      tag_201\n        /* \"#utility.yul\":12958:13440   */\n      jump\n        /* \"contracts/chains/kardiachain/RewardSystem.sol\":5489:5614  require(amounts.length == addresses.length, \"ABOAT::sendRewards: amounts and addresses must have the same amount of entries\") */\n    tag_241:\n        /* \"contracts/chains/kardiachain/RewardSystem.sol\":5637:5647  uint index */\n      0x00\n        /* \"contracts/chains/kardiachain/RewardSystem.sol\":5633:6086  for(uint index = 0; index < addresses.length; index++) {... */\n    tag_244:\n        /* \"contracts/chains/kardiachain/RewardSystem.sol\":5661:5670  addresses */\n      dup2\n        /* \"contracts/chains/kardiachain/RewardSystem.sol\":5661:5677  addresses.length */\n      mload\n        /* \"contracts/chains/kardiachain/RewardSystem.sol\":5653:5658  index */\n      dup2\n        /* \"contracts/chains/kardiachain/RewardSystem.sol\":5653:5677  index < addresses.length */\n      lt\n        /* \"contracts/chains/kardiachain/RewardSystem.sol\":5633:6086  for(uint index = 0; index < addresses.length; index++) {... */\n      iszero\n      tag_245\n      jumpi\n        /* \"contracts/chains/kardiachain/RewardSystem.sol\":5705:5713  _rewards */\n      0x03\n        /* \"contracts/chains/kardiachain/RewardSystem.sol\":5705:5731  _rewards[addresses[index]] */\n      0x00\n        /* \"contracts/chains/kardiachain/RewardSystem.sol\":5714:5723  addresses */\n      dup4\n        /* \"contracts/chains/kardiachain/RewardSystem.sol\":5724:5729  index */\n      dup4\n        /* \"contracts/chains/kardiachain/RewardSystem.sol\":5714:5730  addresses[index] */\n      dup2\n      mload\n      dup2\n      lt\n      tag_248\n      jumpi\n      tag_248\n      tag_249\n      jump\t// in\n    tag_248:\n      0x20\n      swap1\n      dup2\n      mul\n      swap2\n      swap1\n      swap2\n      add\n      dup2\n      add\n      mload\n      sub(shl(0xa0, 0x01), 0x01)\n        /* \"contracts/chains/kardiachain/RewardSystem.sol\":5705:5731  _rewards[addresses[index]] */\n      and\n      dup3\n      mstore\n      dup2\n      add\n      swap2\n      swap1\n      swap2\n      mstore\n      0x40\n      add\n      0x00\n      keccak256\n      sload\n      0xff\n      and\n        /* \"contracts/chains/kardiachain/RewardSystem.sol\":5705:5765  _rewards[addresses[index]] && getBalance() >= amounts[index] */\n      dup1\n      iszero\n      tag_250\n      jumpi\n      pop\n        /* \"contracts/chains/kardiachain/RewardSystem.sol\":5751:5758  amounts */\n      dup3\n        /* \"contracts/chains/kardiachain/RewardSystem.sol\":5759:5764  index */\n      dup2\n        /* \"contracts/chains/kardiachain/RewardSystem.sol\":5751:5765  amounts[index] */\n      dup2\n      mload\n      dup2\n      lt\n      tag_252\n      jumpi\n      tag_252\n      tag_249\n      jump\t// in\n    tag_252:\n      0x20\n      mul\n      0x20\n      add\n      add\n      mload\n        /* \"contracts/chains/kardiachain/RewardSystem.sol\":5735:5747  getBalance() */\n      tag_253\n        /* \"contracts/chains/kardiachain/RewardSystem.sol\":5735:5745  getBalance */\n      tag_52\n        /* \"contracts/chains/kardiachain/RewardSystem.sol\":5735:5747  getBalance() */\n      jump\t// in\n    tag_253:\n        /* \"contracts/chains/kardiachain/RewardSystem.sol\":5735:5765  getBalance() >= amounts[index] */\n      lt\n      iszero\n        /* \"contracts/chains/kardiachain/RewardSystem.sol\":5705:5765  _rewards[addresses[index]] && getBalance() >= amounts[index] */\n    tag_250:\n        /* \"contracts/chains/kardiachain/RewardSystem.sol\":5705:5795  _rewards[addresses[index]] && getBalance() >= amounts[index] && canClaim(addresses[index]) */\n      dup1\n      iszero\n      tag_255\n      jumpi\n      pop\n        /* \"contracts/chains/kardiachain/RewardSystem.sol\":5769:5795  canClaim(addresses[index]) */\n      tag_255\n        /* \"contracts/chains/kardiachain/RewardSystem.sol\":5778:5787  addresses */\n      dup3\n        /* \"contracts/chains/kardiachain/RewardSystem.sol\":5788:5793  index */\n      dup3\n        /* \"contracts/chains/kardiachain/RewardSystem.sol\":5778:5794  addresses[index] */\n      dup2\n      mload\n      dup2\n      lt\n      tag_257\n      jumpi\n      tag_257\n      tag_249\n      jump\t// in\n    tag_257:\n      0x20\n      mul\n      0x20\n      add\n      add\n      mload\n        /* \"contracts/chains/kardiachain/RewardSystem.sol\":5769:5777  canClaim */\n      tag_147\n        /* \"contracts/chains/kardiachain/RewardSystem.sol\":5769:5795  canClaim(addresses[index]) */\n      jump\t// in\n    tag_255:\n        /* \"contracts/chains/kardiachain/RewardSystem.sol\":5705:5837  _rewards[addresses[index]] && getBalance() >= amounts[index] && canClaim(addresses[index]) && amounts[index] <= _maxAmountPerReceive */\n      dup1\n      iszero\n      tag_258\n      jumpi\n      pop\n        /* \"contracts/chains/kardiachain/RewardSystem.sol\":5817:5837  _maxAmountPerReceive */\n      sload(0x09)\n        /* \"contracts/chains/kardiachain/RewardSystem.sol\":5799:5806  amounts */\n      dup4\n        /* \"contracts/chains/kardiachain/RewardSystem.sol\":5807:5812  index */\n      dup3\n        /* \"contracts/chains/kardiachain/RewardSystem.sol\":5799:5813  amounts[index] */\n      dup2\n      mload\n      dup2\n      lt\n      tag_260\n      jumpi\n      tag_260\n      tag_249\n      jump\t// in\n    tag_260:\n      0x20\n      mul\n      0x20\n      add\n      add\n      mload\n        /* \"contracts/chains/kardiachain/RewardSystem.sol\":5799:5837  amounts[index] <= _maxAmountPerReceive */\n      gt\n      iszero\n        /* \"contracts/chains/kardiachain/RewardSystem.sol\":5705:5837  _rewards[addresses[index]] && getBalance() >= amounts[index] && canClaim(addresses[index]) && amounts[index] <= _maxAmountPerReceive */\n    tag_258:\n        /* \"contracts/chains/kardiachain/RewardSystem.sol\":5702:6076  if(_rewards[addresses[index]] && getBalance() >= amounts[index] && canClaim(addresses[index]) && amounts[index] <= _maxAmountPerReceive) {... */\n      iszero\n      tag_261\n      jumpi\n        /* \"contracts/chains/kardiachain/RewardSystem.sol\":5886:5891  false */\n      0x00\n        /* \"contracts/chains/kardiachain/RewardSystem.sol\":5857:5865  _rewards */\n      0x03\n        /* \"contracts/chains/kardiachain/RewardSystem.sol\":5857:5883  _rewards[addresses[index]] */\n      0x00\n        /* \"contracts/chains/kardiachain/RewardSystem.sol\":5866:5875  addresses */\n      dup5\n        /* \"contracts/chains/kardiachain/RewardSystem.sol\":5876:5881  index */\n      dup5\n        /* \"contracts/chains/kardiachain/RewardSystem.sol\":5866:5882  addresses[index] */\n      dup2\n      mload\n      dup2\n      lt\n      tag_263\n      jumpi\n      tag_263\n      tag_249\n      jump\t// in\n    tag_263:\n      0x20\n      mul\n      0x20\n      add\n      add\n      mload\n      sub(shl(0xa0, 0x01), 0x01)\n        /* \"contracts/chains/kardiachain/RewardSystem.sol\":5857:5883  _rewards[addresses[index]] */\n      and\n      sub(shl(0xa0, 0x01), 0x01)\n      and\n      dup2\n      mstore\n      0x20\n      add\n      swap1\n      dup2\n      mstore\n      0x20\n      add\n      0x00\n      keccak256\n      0x00\n        /* \"contracts/chains/kardiachain/RewardSystem.sol\":5857:5891  _rewards[addresses[index]] = false */\n      0x0100\n      exp\n      dup2\n      sload\n      dup2\n      0xff\n      mul\n      not\n      and\n      swap1\n      dup4\n      iszero\n      iszero\n      mul\n      or\n      swap1\n      sstore\n      pop\n        /* \"contracts/chains/kardiachain/RewardSystem.sol\":5909:5993  TransferHelper.safeTransfer(address(_rewardToken), addresses[index], amounts[index]) */\n      tag_264\n        /* \"contracts/chains/kardiachain/RewardSystem.sol\":5945:5957  _rewardToken */\n      0x08\n      0x00\n      swap1\n      sload\n      swap1\n      0x0100\n      exp\n      swap1\n      div\n      sub(shl(0xa0, 0x01), 0x01)\n      and\n        /* \"contracts/chains/kardiachain/RewardSystem.sol\":5960:5969  addresses */\n      dup4\n        /* \"contracts/chains/kardiachain/RewardSystem.sol\":5970:5975  index */\n      dup4\n        /* \"contracts/chains/kardiachain/RewardSystem.sol\":5960:5976  addresses[index] */\n      dup2\n      mload\n      dup2\n      lt\n      tag_266\n      jumpi\n      tag_266\n      tag_249\n      jump\t// in\n    tag_266:\n      0x20\n      mul\n      0x20\n      add\n      add\n      mload\n        /* \"contracts/chains/kardiachain/RewardSystem.sol\":5978:5985  amounts */\n      dup6\n        /* \"contracts/chains/kardiachain/RewardSystem.sol\":5986:5991  index */\n      dup5\n        /* \"contracts/chains/kardiachain/RewardSystem.sol\":5978:5992  amounts[index] */\n      dup2\n      mload\n      dup2\n      lt\n      tag_268\n      jumpi\n      tag_268\n      tag_249\n      jump\t// in\n    tag_268:\n      0x20\n      mul\n      0x20\n      add\n      add\n      mload\n        /* \"contracts/chains/kardiachain/RewardSystem.sol\":5909:5936  TransferHelper.safeTransfer */\n      tag_233\n        /* \"contracts/chains/kardiachain/RewardSystem.sol\":5909:5993  TransferHelper.safeTransfer(address(_rewardToken), addresses[index], amounts[index]) */\n      jump\t// in\n    tag_264:\n        /* \"contracts/chains/kardiachain/RewardSystem.sol\":6046:6053  amounts */\n      dup3\n        /* \"contracts/chains/kardiachain/RewardSystem.sol\":6054:6059  index */\n      dup2\n        /* \"contracts/chains/kardiachain/RewardSystem.sol\":6046:6060  amounts[index] */\n      dup2\n      mload\n      dup2\n      lt\n      tag_270\n      jumpi\n      tag_270\n      tag_249\n      jump\t// in\n    tag_270:\n      0x20\n      mul\n      0x20\n      add\n      add\n      mload\n        /* \"contracts/chains/kardiachain/RewardSystem.sol\":6028:6037  addresses */\n      dup3\n        /* \"contracts/chains/kardiachain/RewardSystem.sol\":6038:6043  index */\n      dup3\n        /* \"contracts/chains/kardiachain/RewardSystem.sol\":6028:6044  addresses[index] */\n      dup2\n      mload\n      dup2\n      lt\n      tag_272\n      jumpi\n      tag_272\n      tag_249\n      jump\t// in\n    tag_272:\n      0x20\n      mul\n      0x20\n      add\n      add\n      mload\n      sub(shl(0xa0, 0x01), 0x01)\n        /* \"contracts/chains/kardiachain/RewardSystem.sol\":6016:6061  SentRewards(addresses[index], amounts[index]) */\n      and\n      0xd9d5e983e9e8a6571ffbeafa6a3c2fbd9f0f44e52607977b5e1e7934f7d91bfc\n      mload(0x40)\n      mload(0x40)\n      dup1\n      swap2\n      sub\n      swap1\n      log3\n        /* \"contracts/chains/kardiachain/RewardSystem.sol\":5702:6076  if(_rewards[addresses[index]] && getBalance() >= amounts[index] && canClaim(addresses[index]) && amounts[index] <= _maxAmountPerReceive) {... */\n    tag_261:\n        /* \"contracts/chains/kardiachain/RewardSystem.sol\":5679:5686  index++ */\n      dup1\n      tag_273\n      dup2\n      tag_274\n      jump\t// in\n    tag_273:\n      swap2\n      pop\n      pop\n        /* \"contracts/chains/kardiachain/RewardSystem.sol\":5633:6086  for(uint index = 0; index < addresses.length; index++) {... */\n      jump(tag_244)\n    tag_245:\n      pop\n        /* \"contracts/chains/kardiachain/RewardSystem.sol\":5387:6092  function sendRewards(uint256[] memory amounts, address[] memory addresses) public onlyOwner {... */\n      pop\n      pop\n      jump\t// out\n        /* \"contracts/chains/kardiachain/RewardSystem.sol\":7601:7805  function sendRewardAndAdjustGasCost(uint256[] memory amounts, address[] memory addresses, uint256 gasCost) public onlyOwner {... */\n    tag_72:\n        /* \"@openzeppelin/contracts/access/Ownable.sol\":1019:1026  address */\n      0x00\n        /* \"@openzeppelin/contracts/access/Ownable.sol\":1045:1051  _owner */\n      sload\n      sub(shl(0xa0, 0x01), 0x01)\n      and\n        /* \"@openzeppelin/contracts/utils/Context.sol\":665:675  msg.sender */\n      caller\n        /* \"@openzeppelin/contracts/access/Ownable.sol\":1185:1208  owner() == _msgSender() */\n      eq\n        /* \"@openzeppelin/contracts/access/Ownable.sol\":1177:1245  require(owner() == _msgSender(), \"Ownable: caller is not the owner\") */\n      tag_278\n      jumpi\n      mload(0x40)\n      shl(0xe5, 0x461bcd)\n      dup2\n      mstore\n      0x04\n      add\n      tag_201\n      swap1\n      tag_228\n      jump\t// in\n    tag_278:\n        /* \"contracts/chains/kardiachain/RewardSystem.sol\":7735:7757  adjustGasCost(gasCost) */\n      tag_281\n        /* \"contracts/chains/kardiachain/RewardSystem.sol\":7749:7756  gasCost */\n      dup2\n        /* \"contracts/chains/kardiachain/RewardSystem.sol\":7735:7748  adjustGasCost */\n      tag_109\n        /* \"contracts/chains/kardiachain/RewardSystem.sol\":7735:7757  adjustGasCost(gasCost) */\n      jump\t// in\n    tag_281:\n        /* \"contracts/chains/kardiachain/RewardSystem.sol\":7767:7798  sendRewards(amounts, addresses) */\n      tag_245\n        /* \"contracts/chains/kardiachain/RewardSystem.sol\":7779:7786  amounts */\n      dup4\n        /* \"contracts/chains/kardiachain/RewardSystem.sol\":7788:7797  addresses */\n      dup4\n        /* \"contracts/chains/kardiachain/RewardSystem.sol\":7767:7778  sendRewards */\n      tag_67\n        /* \"contracts/chains/kardiachain/RewardSystem.sol\":7767:7798  sendRewards(amounts, addresses) */\n      jump\t// in\n        /* \"contracts/chains/kardiachain/RewardSystem.sol\":7815:8212  function claim() public payable {... */\n    tag_74:\n        /* \"contracts/chains/kardiachain/RewardSystem.sol\":7875:7885  msg.sender */\n      caller\n        /* \"contracts/chains/kardiachain/RewardSystem.sol\":7866:7886  _rewards[msg.sender] */\n      0x00\n      swap1\n      dup2\n      mstore\n        /* \"contracts/chains/kardiachain/RewardSystem.sol\":7866:7874  _rewards */\n      0x03\n        /* \"contracts/chains/kardiachain/RewardSystem.sol\":7866:7886  _rewards[msg.sender] */\n      0x20\n      mstore\n      0x40\n      swap1\n      keccak256\n      sload\n      0xff\n      and\n        /* \"contracts/chains/kardiachain/RewardSystem.sol\":7865:7886  !_rewards[msg.sender] */\n      iszero\n        /* \"contracts/chains/kardiachain/RewardSystem.sol\":7857:7938  require(!_rewards[msg.sender], \"ABOAT::claim: Already allowed to recieve tokens\") */\n      tag_284\n      jumpi\n      mload(0x40)\n      shl(0xe5, 0x461bcd)\n      dup2\n      mstore\n        /* \"#utility.yul\":7971:7973   */\n      0x20\n        /* \"contracts/chains/kardiachain/RewardSystem.sol\":7857:7938  require(!_rewards[msg.sender], \"ABOAT::claim: Already allowed to recieve tokens\") */\n      0x04\n      dup3\n      add\n        /* \"#utility.yul\":7953:7974   */\n      mstore\n        /* \"#utility.yul\":8010:8012   */\n      0x2f\n        /* \"#utility.yul\":7990:8008   */\n      0x24\n      dup3\n      add\n        /* \"#utility.yul\":7983:8013   */\n      mstore\n        /* \"#utility.yul\":8049:8083   */\n      0x41424f41543a3a636c61696d3a20416c726561647920616c6c6f77656420746f\n        /* \"#utility.yul\":8029:8047   */\n      0x44\n      dup3\n      add\n        /* \"#utility.yul\":8022:8084   */\n      mstore\n      shl(0x88, 0x207265636965766520746f6b656e73)\n        /* \"#utility.yul\":8100:8118   */\n      0x64\n      dup3\n      add\n        /* \"#utility.yul\":8093:8138   */\n      mstore\n        /* \"#utility.yul\":8155:8174   */\n      0x84\n      add\n        /* \"contracts/chains/kardiachain/RewardSystem.sol\":7857:7938  require(!_rewards[msg.sender], \"ABOAT::claim: Already allowed to recieve tokens\") */\n      tag_201\n        /* \"#utility.yul\":7769:8180   */\n      jump\n        /* \"contracts/chains/kardiachain/RewardSystem.sol\":7857:7938  require(!_rewards[msg.sender], \"ABOAT::claim: Already allowed to recieve tokens\") */\n    tag_284:\n        /* \"contracts/chains/kardiachain/RewardSystem.sol\":7969:7977  _gasCost */\n      sload(0x05)\n        /* \"contracts/chains/kardiachain/RewardSystem.sol\":7956:7965  msg.value */\n      callvalue\n        /* \"contracts/chains/kardiachain/RewardSystem.sol\":7956:7977  msg.value >= _gasCost */\n      lt\n      iszero\n        /* \"contracts/chains/kardiachain/RewardSystem.sol\":7948:8061  require(msg.value >= _gasCost, \"ABOAT::claim: Amount of bnb to claim should carry the cost to add the claimable\") */\n      tag_287\n      jumpi\n      mload(0x40)\n      shl(0xe5, 0x461bcd)\n      dup2\n      mstore\n        /* \"#utility.yul\":12258:12260   */\n      0x20\n        /* \"contracts/chains/kardiachain/RewardSystem.sol\":7948:8061  require(msg.value >= _gasCost, \"ABOAT::claim: Amount of bnb to claim should carry the cost to add the claimable\") */\n      0x04\n      dup3\n      add\n        /* \"#utility.yul\":12240:12261   */\n      mstore\n        /* \"#utility.yul\":12297:12299   */\n      0x4f\n        /* \"#utility.yul\":12277:12295   */\n      0x24\n      dup3\n      add\n        /* \"#utility.yul\":12270:12300   */\n      mstore\n        /* \"#utility.yul\":12336:12370   */\n      0x41424f41543a3a636c61696d3a20416d6f756e74206f6620626e6220746f2063\n        /* \"#utility.yul\":12316:12334   */\n      0x44\n      dup3\n      add\n        /* \"#utility.yul\":12309:12371   */\n      mstore\n        /* \"#utility.yul\":12407:12441   */\n      0x6c61696d2073686f756c642063617272792074686520636f737420746f206164\n        /* \"#utility.yul\":12387:12405   */\n      0x64\n      dup3\n      add\n        /* \"#utility.yul\":12380:12442   */\n      mstore\n      shl(0x88, 0x642074686520636c61696d61626c65)\n        /* \"#utility.yul\":12458:12477   */\n      0x84\n      dup3\n      add\n        /* \"#utility.yul\":12451:12497   */\n      mstore\n        /* \"#utility.yul\":12514:12533   */\n      0xa4\n      add\n        /* \"contracts/chains/kardiachain/RewardSystem.sol\":7948:8061  require(msg.value >= _gasCost, \"ABOAT::claim: Amount of bnb to claim should carry the cost to add the claimable\") */\n      tag_201\n        /* \"#utility.yul\":12056:12539   */\n      jump\n        /* \"contracts/chains/kardiachain/RewardSystem.sol\":7948:8061  require(msg.value >= _gasCost, \"ABOAT::claim: Amount of bnb to claim should carry the cost to add the claimable\") */\n    tag_287:\n        /* \"contracts/chains/kardiachain/RewardSystem.sol\":8102:8115  _oracleWallet */\n      sload(0x06)\n        /* \"contracts/chains/kardiachain/RewardSystem.sol\":8071:8127  TransferHelper.safeTransferETH(_oracleWallet, msg.value) */\n      tag_290\n      swap1\n      sub(shl(0xa0, 0x01), 0x01)\n        /* \"contracts/chains/kardiachain/RewardSystem.sol\":8102:8115  _oracleWallet */\n      and\n        /* \"contracts/chains/kardiachain/RewardSystem.sol\":8117:8126  msg.value */\n      callvalue\n        /* \"contracts/chains/kardiachain/RewardSystem.sol\":8071:8101  TransferHelper.safeTransferETH */\n      tag_291\n        /* \"contracts/chains/kardiachain/RewardSystem.sol\":8071:8127  TransferHelper.safeTransferETH(_oracleWallet, msg.value) */\n      jump\t// in\n    tag_290:\n        /* \"contracts/chains/kardiachain/RewardSystem.sol\":8146:8156  msg.sender */\n      caller\n        /* \"contracts/chains/kardiachain/RewardSystem.sol\":8137:8157  _rewards[msg.sender] */\n      0x00\n      dup2\n      dup2\n      mstore\n        /* \"contracts/chains/kardiachain/RewardSystem.sol\":8137:8145  _rewards */\n      0x03\n        /* \"contracts/chains/kardiachain/RewardSystem.sol\":8137:8157  _rewards[msg.sender] */\n      0x20\n      mstore\n      0x40\n      dup1\n      dup3\n      keccak256\n        /* \"contracts/chains/kardiachain/RewardSystem.sol\":8137:8164  _rewards[msg.sender] = true */\n      dup1\n      sload\n      not(0xff)\n      and\n        /* \"contracts/chains/kardiachain/RewardSystem.sol\":8160:8164  true */\n      0x01\n        /* \"contracts/chains/kardiachain/RewardSystem.sol\":8137:8164  _rewards[msg.sender] = true */\n      or\n      swap1\n      sstore\n        /* \"contracts/chains/kardiachain/RewardSystem.sol\":8179:8205  EnabledRewards(msg.sender) */\n      mload\n      0x98716c616972f4ef0085deb59c20f6f6a840219c121ad1f3b5413097f3a10357\n      swap2\n        /* \"contracts/chains/kardiachain/RewardSystem.sol\":8137:8157  _rewards[msg.sender] */\n      swap1\n        /* \"contracts/chains/kardiachain/RewardSystem.sol\":8179:8205  EnabledRewards(msg.sender) */\n      log2\n        /* \"contracts/chains/kardiachain/RewardSystem.sol\":7815:8212  function claim() public payable {... */\n      jump\t// out\n        /* \"contracts/chains/kardiachain/RewardSystem.sol\":4477:4760  function changeOracleWallet(address oracleWallet) public onlyOwner locked(\"changeOracleWallet\") {... */\n    tag_82:\n        /* \"@openzeppelin/contracts/access/Ownable.sol\":1019:1026  address */\n      0x00\n        /* \"@openzeppelin/contracts/access/Ownable.sol\":1045:1051  _owner */\n      sload\n      sub(shl(0xa0, 0x01), 0x01)\n      and\n        /* \"@openzeppelin/contracts/utils/Context.sol\":665:675  msg.sender */\n      caller\n        /* \"@openzeppelin/contracts/access/Ownable.sol\":1185:1208  owner() == _msgSender() */\n      eq\n        /* \"@openzeppelin/contracts/access/Ownable.sol\":1177:1245  require(owner() == _msgSender(), \"Ownable: caller is not the owner\") */\n      tag_295\n      jumpi\n      mload(0x40)\n      shl(0xe5, 0x461bcd)\n      dup2\n      mstore\n      0x04\n      add\n      tag_201\n      swap1\n      tag_228\n      jump\t// in\n    tag_295:\n        /* \"contracts/libraries/TimeLock.sol\":1945:2188  modifier locked(string memory _fn) {... */\n      0x40\n      dup1\n      mload\n      dup1\n      dup3\n      add\n      swap1\n      swap2\n      mstore\n      0x12\n      dup2\n      mstore\n      shl(0x72, 0x18da185b99d953dc9858db1955d85b1b195d)\n      0x20\n      dup3\n      add\n      mstore\n      0x00\n        /* \"contracts/libraries/TimeLock.sol\":1999:2012  isLockEnabled */\n      sload\n      shl(0xa0, 0x01)\n      swap1\n      div\n      0xff\n      and\n        /* \"contracts/libraries/TimeLock.sol\":1998:2012  !isLockEnabled */\n      iszero\n      dup1\n        /* \"contracts/libraries/TimeLock.sol\":1998:2120  !isLockEnabled || (timelock[_fn] != 0 && timelock[_fn] <= block.timestamp && timelock[_fn] + _TIMELOCK >= block.timestamp) */\n      tag_302\n      jumpi\n      pop\n        /* \"contracts/libraries/TimeLock.sol\":2017:2025  timelock */\n      0x01\n        /* \"contracts/libraries/TimeLock.sol\":2026:2029  _fn */\n      dup2\n        /* \"contracts/libraries/TimeLock.sol\":2017:2030  timelock[_fn] */\n      mload(0x40)\n      tag_299\n      swap2\n      swap1\n      tag_454\n      jump\t// in\n    tag_299:\n      swap1\n      dup2\n      mstore\n      0x20\n      add\n      mload(0x40)\n      dup1\n      swap2\n      sub\n      swap1\n      keccak256\n      sload\n        /* \"contracts/libraries/TimeLock.sol\":2034:2035  0 */\n      0x00\n        /* \"contracts/libraries/TimeLock.sol\":2017:2035  timelock[_fn] != 0 */\n      eq\n      iszero\n        /* \"contracts/libraries/TimeLock.sol\":2017:2071  timelock[_fn] != 0 && timelock[_fn] <= block.timestamp */\n      dup1\n      iszero\n      tag_300\n      jumpi\n      pop\n        /* \"contracts/libraries/TimeLock.sol\":2056:2071  block.timestamp */\n      timestamp\n        /* \"contracts/libraries/TimeLock.sol\":2039:2047  timelock */\n      0x01\n        /* \"contracts/libraries/TimeLock.sol\":2048:2051  _fn */\n      dup3\n        /* \"contracts/libraries/TimeLock.sol\":2039:2052  timelock[_fn] */\n      mload(0x40)\n      tag_301\n      swap2\n      swap1\n      tag_454\n      jump\t// in\n    tag_301:\n      swap1\n      dup2\n      mstore\n      0x20\n      add\n      mload(0x40)\n      dup1\n      swap2\n      sub\n      swap1\n      keccak256\n      sload\n        /* \"contracts/libraries/TimeLock.sol\":2039:2071  timelock[_fn] <= block.timestamp */\n      gt\n      iszero\n        /* \"contracts/libraries/TimeLock.sol\":2017:2071  timelock[_fn] != 0 && timelock[_fn] <= block.timestamp */\n    tag_300:\n        /* \"contracts/libraries/TimeLock.sol\":2017:2119  timelock[_fn] != 0 && timelock[_fn] <= block.timestamp && timelock[_fn] + _TIMELOCK >= block.timestamp */\n      dup1\n      iszero\n      tag_302\n      jumpi\n      pop\n        /* \"contracts/libraries/TimeLock.sol\":2104:2119  block.timestamp */\n      timestamp\n        /* \"contracts/libraries/TimeLock.sol\":861:867  1 days */\n      0x015180\n        /* \"contracts/libraries/TimeLock.sol\":2075:2083  timelock */\n      0x01\n        /* \"contracts/libraries/TimeLock.sol\":2084:2087  _fn */\n      dup4\n        /* \"contracts/libraries/TimeLock.sol\":2075:2088  timelock[_fn] */\n      mload(0x40)\n      tag_303\n      swap2\n      swap1\n      tag_454\n      jump\t// in\n    tag_303:\n      swap1\n      dup2\n      mstore\n      0x20\n      add\n      mload(0x40)\n      dup1\n      swap2\n      sub\n      swap1\n      keccak256\n      sload\n        /* \"contracts/libraries/TimeLock.sol\":2075:2100  timelock[_fn] + _TIMELOCK */\n      tag_304\n      swap2\n      swap1\n      tag_212\n      jump\t// in\n    tag_304:\n        /* \"contracts/libraries/TimeLock.sol\":2075:2119  timelock[_fn] + _TIMELOCK >= block.timestamp */\n      lt\n      iszero\n        /* \"contracts/libraries/TimeLock.sol\":2017:2119  timelock[_fn] != 0 && timelock[_fn] <= block.timestamp && timelock[_fn] + _TIMELOCK >= block.timestamp */\n    tag_302:\n        /* \"contracts/libraries/TimeLock.sol\":1990:2143  require(!isLockEnabled || (timelock[_fn] != 0 && timelock[_fn] <= block.timestamp && timelock[_fn] + _TIMELOCK >= block.timestamp), \"Function is locked\") */\n      tag_305\n      jumpi\n      mload(0x40)\n      shl(0xe5, 0x461bcd)\n      dup2\n      mstore\n      0x04\n      add\n      tag_201\n      swap1\n      tag_215\n      jump\t// in\n    tag_305:\n        /* \"contracts/chains/kardiachain/RewardSystem.sol\":4583:4614  transferOwnership(oracleWallet) */\n      tag_308\n        /* \"contracts/chains/kardiachain/RewardSystem.sol\":4601:4613  oracleWallet */\n      dup3\n        /* \"contracts/chains/kardiachain/RewardSystem.sol\":4583:4600  transferOwnership */\n      tag_171\n        /* \"contracts/chains/kardiachain/RewardSystem.sol\":4583:4614  transferOwnership(oracleWallet) */\n      jump\t// in\n    tag_308:\n        /* \"contracts/chains/kardiachain/RewardSystem.sol\":4643:4656  _oracleWallet */\n      0x06\n      dup1\n      sload\n      sub(shl(0xa0, 0x01), 0x01)\n        /* \"contracts/chains/kardiachain/RewardSystem.sol\":4666:4694  _oracleWallet = oracleWallet */\n      dup5\n      dup2\n      and\n      not(sub(shl(0xa0, 0x01), 0x01))\n      dup4\n      and\n      dup2\n      or\n      swap1\n      swap4\n      sstore\n        /* \"contracts/chains/kardiachain/RewardSystem.sol\":4709:4753  ChangedOracleWallet(previous, _oracleWallet) */\n      mload(0x40)\n        /* \"contracts/chains/kardiachain/RewardSystem.sol\":4643:4656  _oracleWallet */\n      swap2\n      and\n      swap2\n        /* \"contracts/chains/kardiachain/RewardSystem.sol\":4666:4694  _oracleWallet = oracleWallet */\n      swap1\n        /* \"contracts/chains/kardiachain/RewardSystem.sol\":4643:4656  _oracleWallet */\n      dup3\n      swap1\n        /* \"contracts/chains/kardiachain/RewardSystem.sol\":4709:4753  ChangedOracleWallet(previous, _oracleWallet) */\n      0x3920ecd0f25e4e6ce57aaec91e57df499cb7e3e70d6c9604f866ae9265382cf3\n      swap1\n        /* \"contracts/chains/kardiachain/RewardSystem.sol\":4624:4640  address previous */\n      0x00\n      swap1\n        /* \"contracts/chains/kardiachain/RewardSystem.sol\":4709:4753  ChangedOracleWallet(previous, _oracleWallet) */\n      log3\n        /* \"contracts/chains/kardiachain/RewardSystem.sol\":4573:4760  {... */\n      pop\n        /* \"contracts/libraries/TimeLock.sol\":2164:2181  lockFunction(_fn) */\n      tag_221\n        /* \"contracts/libraries/TimeLock.sol\":2177:2180  _fn */\n      dup2\n        /* \"contracts/libraries/TimeLock.sol\":2164:2176  lockFunction */\n      tag_122\n        /* \"contracts/libraries/TimeLock.sol\":2164:2181  lockFunction(_fn) */\n      jump\t// in\n        /* \"@openzeppelin/contracts/access/Ownable.sol\":1605:1697  function renounceOwnership() public virtual onlyOwner {... */\n    tag_89:\n        /* \"@openzeppelin/contracts/access/Ownable.sol\":1019:1026  address */\n      0x00\n        /* \"@openzeppelin/contracts/access/Ownable.sol\":1045:1051  _owner */\n      sload\n      sub(shl(0xa0, 0x01), 0x01)\n      and\n        /* \"@openzeppelin/contracts/utils/Context.sol\":665:675  msg.sender */\n      caller\n        /* \"@openzeppelin/contracts/access/Ownable.sol\":1185:1208  owner() == _msgSender() */\n      eq\n        /* \"@openzeppelin/contracts/access/Ownable.sol\":1177:1245  require(owner() == _msgSender(), \"Ownable: caller is not the owner\") */\n      tag_314\n      jumpi\n      mload(0x40)\n      shl(0xe5, 0x461bcd)\n      dup2\n      mstore\n      0x04\n      add\n      tag_201\n      swap1\n      tag_228\n      jump\t// in\n    tag_314:\n        /* \"@openzeppelin/contracts/access/Ownable.sol\":1669:1690  _setOwner(address(0)) */\n      tag_317\n        /* \"@openzeppelin/contracts/access/Ownable.sol\":1687:1688  0 */\n      0x00\n        /* \"@openzeppelin/contracts/access/Ownable.sol\":1669:1678  _setOwner */\n      tag_318\n        /* \"@openzeppelin/contracts/access/Ownable.sol\":1669:1690  _setOwner(address(0)) */\n      jump\t// in\n    tag_317:\n        /* \"@openzeppelin/contracts/access/Ownable.sol\":1605:1697  function renounceOwnership() public virtual onlyOwner {... */\n      jump\t// out\n        /* \"contracts/chains/kardiachain/RewardSystem.sol\":3262:3396  function canClaimNative(address user) public view returns (bool) {... */\n    tag_103:\n      sub(shl(0xa0, 0x01), 0x01)\n        /* \"contracts/chains/kardiachain/RewardSystem.sol\":3344:3361  _claimTimes[user] */\n      dup2\n      and\n        /* \"contracts/chains/kardiachain/RewardSystem.sol\":3321:3325  bool */\n      0x00\n        /* \"contracts/chains/kardiachain/RewardSystem.sol\":3344:3361  _claimTimes[user] */\n      swap1\n      dup2\n      mstore\n        /* \"contracts/chains/kardiachain/RewardSystem.sol\":3344:3355  _claimTimes */\n      0x04\n        /* \"contracts/chains/kardiachain/RewardSystem.sol\":3344:3361  _claimTimes[user] */\n      0x20\n      mstore\n      0x40\n      dup2\n      keccak256\n      sload\n        /* \"contracts/chains/kardiachain/RewardSystem.sol\":3374:3389  block.timestamp */\n      timestamp\n      swap1\n        /* \"contracts/chains/kardiachain/RewardSystem.sol\":3344:3370  _claimTimes[user] + 1 days */\n      tag_320\n      swap1\n        /* \"contracts/chains/kardiachain/RewardSystem.sol\":3364:3370  1 days */\n      0x015180\n        /* \"contracts/chains/kardiachain/RewardSystem.sol\":3344:3370  _claimTimes[user] + 1 days */\n      tag_212\n      jump\t// in\n    tag_320:\n        /* \"contracts/chains/kardiachain/RewardSystem.sol\":3344:3389  _claimTimes[user] + 1 days <= block.timestamp */\n      gt\n      iszero\n      swap3\n        /* \"contracts/chains/kardiachain/RewardSystem.sol\":3262:3396  function canClaimNative(address user) public view returns (bool) {... */\n      swap2\n      pop\n      pop\n      jump\t// out\n        /* \"contracts/chains/kardiachain/RewardSystem.sol\":3731:3895  function adjustGasCost(uint256 gasCost) public onlyOwner locked(\"adjustGasCost\") {... */\n    tag_109:\n        /* \"@openzeppelin/contracts/access/Ownable.sol\":1019:1026  address */\n      0x00\n        /* \"@openzeppelin/contracts/access/Ownable.sol\":1045:1051  _owner */\n      sload\n      sub(shl(0xa0, 0x01), 0x01)\n      and\n        /* \"@openzeppelin/contracts/utils/Context.sol\":665:675  msg.sender */\n      caller\n        /* \"@openzeppelin/contracts/access/Ownable.sol\":1185:1208  owner() == _msgSender() */\n      eq\n        /* \"@openzeppelin/contracts/access/Ownable.sol\":1177:1245  require(owner() == _msgSender(), \"Ownable: caller is not the owner\") */\n      tag_324\n      jumpi\n      mload(0x40)\n      shl(0xe5, 0x461bcd)\n      dup2\n      mstore\n      0x04\n      add\n      tag_201\n      swap1\n      tag_228\n      jump\t// in\n    tag_324:\n        /* \"contracts/libraries/TimeLock.sol\":1945:2188  modifier locked(string memory _fn) {... */\n      0x40\n      dup1\n      mload\n      dup1\n      dup3\n      add\n      swap1\n      swap2\n      mstore\n      0x0d\n      dup2\n      mstore\n      shl(0x9a, 0x18591a9d5cdd11d85cd0dbdcdd)\n      0x20\n      dup3\n      add\n      mstore\n      0x00\n        /* \"contracts/libraries/TimeLock.sol\":1999:2012  isLockEnabled */\n      sload\n      shl(0xa0, 0x01)\n      swap1\n      div\n      0xff\n      and\n        /* \"contracts/libraries/TimeLock.sol\":1998:2012  !isLockEnabled */\n      iszero\n      dup1\n        /* \"contracts/libraries/TimeLock.sol\":1998:2120  !isLockEnabled || (timelock[_fn] != 0 && timelock[_fn] <= block.timestamp && timelock[_fn] + _TIMELOCK >= block.timestamp) */\n      tag_331\n      jumpi\n      pop\n        /* \"contracts/libraries/TimeLock.sol\":2017:2025  timelock */\n      0x01\n        /* \"contracts/libraries/TimeLock.sol\":2026:2029  _fn */\n      dup2\n        /* \"contracts/libraries/TimeLock.sol\":2017:2030  timelock[_fn] */\n      mload(0x40)\n      tag_328\n      swap2\n      swap1\n      tag_454\n      jump\t// in\n    tag_328:\n      swap1\n      dup2\n      mstore\n      0x20\n      add\n      mload(0x40)\n      dup1\n      swap2\n      sub\n      swap1\n      keccak256\n      sload\n        /* \"contracts/libraries/TimeLock.sol\":2034:2035  0 */\n      0x00\n        /* \"contracts/libraries/TimeLock.sol\":2017:2035  timelock[_fn] != 0 */\n      eq\n      iszero\n        /* \"contracts/libraries/TimeLock.sol\":2017:2071  timelock[_fn] != 0 && timelock[_fn] <= block.timestamp */\n      dup1\n      iszero\n      tag_329\n      jumpi\n      pop\n        /* \"contracts/libraries/TimeLock.sol\":2056:2071  block.timestamp */\n      timestamp\n        /* \"contracts/libraries/TimeLock.sol\":2039:2047  timelock */\n      0x01\n        /* \"contracts/libraries/TimeLock.sol\":2048:2051  _fn */\n      dup3\n        /* \"contracts/libraries/TimeLock.sol\":2039:2052  timelock[_fn] */\n      mload(0x40)\n      tag_330\n      swap2\n      swap1\n      tag_454\n      jump\t// in\n    tag_330:\n      swap1\n      dup2\n      mstore\n      0x20\n      add\n      mload(0x40)\n      dup1\n      swap2\n      sub\n      swap1\n      keccak256\n      sload\n        /* \"contracts/libraries/TimeLock.sol\":2039:2071  timelock[_fn] <= block.timestamp */\n      gt\n      iszero\n        /* \"contracts/libraries/TimeLock.sol\":2017:2071  timelock[_fn] != 0 && timelock[_fn] <= block.timestamp */\n    tag_329:\n        /* \"contracts/libraries/TimeLock.sol\":2017:2119  timelock[_fn] != 0 && timelock[_fn] <= block.timestamp && timelock[_fn] + _TIMELOCK >= block.timestamp */\n      dup1\n      iszero\n      tag_331\n      jumpi\n      pop\n        /* \"contracts/libraries/TimeLock.sol\":2104:2119  block.timestamp */\n      timestamp\n        /* \"contracts/libraries/TimeLock.sol\":861:867  1 days */\n      0x015180\n        /* \"contracts/libraries/TimeLock.sol\":2075:2083  timelock */\n      0x01\n        /* \"contracts/libraries/TimeLock.sol\":2084:2087  _fn */\n      dup4\n        /* \"contracts/libraries/TimeLock.sol\":2075:2088  timelock[_fn] */\n      mload(0x40)\n      tag_332\n      swap2\n      swap1\n      tag_454\n      jump\t// in\n    tag_332:\n      swap1\n      dup2\n      mstore\n      0x20\n      add\n      mload(0x40)\n      dup1\n      swap2\n      sub\n      swap1\n      keccak256\n      sload\n        /* \"contracts/libraries/TimeLock.sol\":2075:2100  timelock[_fn] + _TIMELOCK */\n      tag_333\n      swap2\n      swap1\n      tag_212\n      jump\t// in\n    tag_333:\n        /* \"contracts/libraries/TimeLock.sol\":2075:2119  timelock[_fn] + _TIMELOCK >= block.timestamp */\n      lt\n      iszero\n        /* \"contracts/libraries/TimeLock.sol\":2017:2119  timelock[_fn] != 0 && timelock[_fn] <= block.timestamp && timelock[_fn] + _TIMELOCK >= block.timestamp */\n    tag_331:\n        /* \"contracts/libraries/TimeLock.sol\":1990:2143  require(!isLockEnabled || (timelock[_fn] != 0 && timelock[_fn] <= block.timestamp && timelock[_fn] + _TIMELOCK >= block.timestamp), \"Function is locked\") */\n      tag_334\n      jumpi\n      mload(0x40)\n      shl(0xe5, 0x461bcd)\n      dup2\n      mstore\n      0x04\n      add\n      tag_201\n      swap1\n      tag_215\n      jump\t// in\n    tag_334:\n        /* \"contracts/chains/kardiachain/RewardSystem.sol\":3842:3850  _gasCost */\n      sload(0x05)\n        /* \"contracts/chains/kardiachain/RewardSystem.sol\":3827:3860  ChangedGasCost(_gasCost, gasCost) */\n      mload(0x40)\n        /* \"contracts/chains/kardiachain/RewardSystem.sol\":3852:3859  gasCost */\n      dup4\n      swap2\n        /* \"contracts/chains/kardiachain/RewardSystem.sol\":3842:3850  _gasCost */\n      swap1\n        /* \"contracts/chains/kardiachain/RewardSystem.sol\":3827:3860  ChangedGasCost(_gasCost, gasCost) */\n      0xc3dc19678fd7390a5c1197decfaec52d8a1c63c49f0a51db570f5fe5040c5f73\n      swap1\n      0x00\n      swap1\n      log3\n        /* \"contracts/chains/kardiachain/RewardSystem.sol\":3870:3878  _gasCost */\n      0x05\n        /* \"contracts/chains/kardiachain/RewardSystem.sol\":3870:3888  _gasCost = gasCost */\n      dup3\n      swap1\n      sstore\n        /* \"contracts/libraries/TimeLock.sol\":2164:2181  lockFunction(_fn) */\n      tag_221\n        /* \"contracts/libraries/TimeLock.sol\":2177:2180  _fn */\n      dup2\n        /* \"contracts/libraries/TimeLock.sol\":4317:4421  function lockFunction(string memory _fn) public onlyMaintainerOrOwner {... */\n    tag_122:\n        /* \"contracts/libraries/TimeLock.sol\":2264:2274  msg.sender */\n      caller\n        /* \"contracts/libraries/TimeLock.sol\":2253:2260  owner() */\n      tag_341\n        /* \"@openzeppelin/contracts/access/Ownable.sol\":1019:1026  address */\n      0x00\n        /* \"@openzeppelin/contracts/access/Ownable.sol\":1045:1051  _owner */\n      sload\n      sub(shl(0xa0, 0x01), 0x01)\n      and\n      swap1\n        /* \"@openzeppelin/contracts/access/Ownable.sol\":973:1058  function owner() public view virtual returns (address) {... */\n      jump\n        /* \"contracts/libraries/TimeLock.sol\":2253:2260  owner() */\n    tag_341:\n      sub(shl(0xa0, 0x01), 0x01)\n        /* \"contracts/libraries/TimeLock.sol\":2253:2274  owner() == msg.sender */\n      and\n      eq\n        /* \"contracts/libraries/TimeLock.sol\":2253:2303  owner() == msg.sender || _maintainer == msg.sender */\n      dup1\n      tag_342\n      jumpi\n      pop\n        /* \"contracts/libraries/TimeLock.sol\":2278:2289  _maintainer */\n      and(sub(shl(0xa0, 0x01), 0x01), sload(0x02))\n        /* \"contracts/libraries/TimeLock.sol\":2293:2303  msg.sender */\n      caller\n        /* \"contracts/libraries/TimeLock.sol\":2278:2303  _maintainer == msg.sender */\n      eq\n        /* \"contracts/libraries/TimeLock.sol\":2253:2303  owner() == msg.sender || _maintainer == msg.sender */\n    tag_342:\n        /* \"contracts/libraries/TimeLock.sol\":2245:2361  require(owner() == msg.sender || _maintainer == msg.sender, \"operator: caller is not allowed to call this function\") */\n      tag_343\n      jumpi\n      mload(0x40)\n      shl(0xe5, 0x461bcd)\n      dup2\n      mstore\n      0x04\n      add\n      tag_201\n      swap1\n      tag_202\n      jump\t// in\n    tag_343:\n        /* \"contracts/libraries/TimeLock.sol\":4413:4414  0 */\n      0x00\n        /* \"contracts/libraries/TimeLock.sol\":4397:4405  timelock */\n      0x01\n        /* \"contracts/libraries/TimeLock.sol\":4406:4409  _fn */\n      dup3\n        /* \"contracts/libraries/TimeLock.sol\":4397:4410  timelock[_fn] */\n      mload(0x40)\n      tag_346\n      swap2\n      swap1\n      tag_454\n      jump\t// in\n    tag_346:\n      swap1\n      dup2\n      mstore\n      mload(0x40)\n      swap1\n      dup2\n      swap1\n      sub\n      0x20\n      add\n      swap1\n      keccak256\n        /* \"contracts/libraries/TimeLock.sol\":4397:4414  timelock[_fn] = 0 */\n      sstore\n      pop\n        /* \"contracts/libraries/TimeLock.sol\":4317:4421  function lockFunction(string memory _fn) public onlyMaintainerOrOwner {... */\n      jump\t// out\n        /* \"contracts/libraries/TimeLock.sol\":4100:4284  function unlockFunction(string memory _fn) public onlyMaintainerOrOwner {... */\n    tag_138:\n        /* \"contracts/libraries/TimeLock.sol\":2264:2274  msg.sender */\n      caller\n        /* \"contracts/libraries/TimeLock.sol\":2253:2260  owner() */\n      tag_348\n        /* \"@openzeppelin/contracts/access/Ownable.sol\":1019:1026  address */\n      0x00\n        /* \"@openzeppelin/contracts/access/Ownable.sol\":1045:1051  _owner */\n      sload\n      sub(shl(0xa0, 0x01), 0x01)\n      and\n      swap1\n        /* \"@openzeppelin/contracts/access/Ownable.sol\":973:1058  function owner() public view virtual returns (address) {... */\n      jump\n        /* \"contracts/libraries/TimeLock.sol\":2253:2260  owner() */\n    tag_348:\n      sub(shl(0xa0, 0x01), 0x01)\n        /* \"contracts/libraries/TimeLock.sol\":2253:2274  owner() == msg.sender */\n      and\n      eq\n        /* \"contracts/libraries/TimeLock.sol\":2253:2303  owner() == msg.sender || _maintainer == msg.sender */\n      dup1\n      tag_349\n      jumpi\n      pop\n        /* \"contracts/libraries/TimeLock.sol\":2278:2289  _maintainer */\n      and(sub(shl(0xa0, 0x01), 0x01), sload(0x02))\n        /* \"contracts/libraries/TimeLock.sol\":2293:2303  msg.sender */\n      caller\n        /* \"contracts/libraries/TimeLock.sol\":2278:2303  _maintainer == msg.sender */\n      eq\n        /* \"contracts/libraries/TimeLock.sol\":2253:2303  owner() == msg.sender || _maintainer == msg.sender */\n    tag_349:\n        /* \"contracts/libraries/TimeLock.sol\":2245:2361  require(owner() == msg.sender || _maintainer == msg.sender, \"operator: caller is not allowed to call this function\") */\n      tag_350\n      jumpi\n      mload(0x40)\n      shl(0xe5, 0x461bcd)\n      dup2\n      mstore\n      0x04\n      add\n      tag_201\n      swap1\n      tag_202\n      jump\t// in\n    tag_350:\n        /* \"contracts/libraries/TimeLock.sol\":4198:4225  block.timestamp + _TIMELOCK */\n      tag_353\n        /* \"contracts/libraries/TimeLock.sol\":861:867  1 days */\n      0x015180\n        /* \"contracts/libraries/TimeLock.sol\":4198:4213  block.timestamp */\n      timestamp\n        /* \"contracts/libraries/TimeLock.sol\":4198:4225  block.timestamp + _TIMELOCK */\n      tag_212\n      jump\t// in\n    tag_353:\n        /* \"contracts/libraries/TimeLock.sol\":4182:4190  timelock */\n      0x01\n        /* \"contracts/libraries/TimeLock.sol\":4191:4194  _fn */\n      dup3\n        /* \"contracts/libraries/TimeLock.sol\":4182:4195  timelock[_fn] */\n      mload(0x40)\n      tag_354\n      swap2\n      swap1\n      tag_454\n      jump\t// in\n    tag_354:\n      swap1\n      dup2\n      mstore\n      0x20\n      add\n      mload(0x40)\n      dup1\n      swap2\n      sub\n      swap1\n      keccak256\n        /* \"contracts/libraries/TimeLock.sol\":4182:4225  timelock[_fn] = block.timestamp + _TIMELOCK */\n      dup2\n      swap1\n      sstore\n      pop\n        /* \"contracts/libraries/TimeLock.sol\":4262:4270  timelock */\n      0x01\n        /* \"contracts/libraries/TimeLock.sol\":4271:4274  _fn */\n      dup2\n        /* \"contracts/libraries/TimeLock.sol\":4262:4275  timelock[_fn] */\n      mload(0x40)\n      tag_355\n      swap2\n      swap1\n      tag_454\n      jump\t// in\n    tag_355:\n      swap1\n      dup2\n      mstore\n      0x20\n      add\n      mload(0x40)\n      dup1\n      swap2\n      sub\n      swap1\n      keccak256\n      sload\n        /* \"contracts/libraries/TimeLock.sol\":4257:4260  _fn */\n      dup2\n        /* \"contracts/libraries/TimeLock.sol\":4240:4276  UnlockedFunction(_fn, timelock[_fn]) */\n      mload(0x40)\n      tag_356\n      swap2\n      swap1\n      tag_454\n      jump\t// in\n    tag_356:\n      mload(0x40)\n      swap1\n      dup2\n      swap1\n      sub\n      dup2\n      keccak256\n      swap1\n      0xf77f9a799fe8b0be1463abd7459a18fc55dfd8a6a24ddd29b54fd098088089c8\n      swap1\n      0x00\n      swap1\n      log3\n        /* \"contracts/libraries/TimeLock.sol\":4100:4284  function unlockFunction(string memory _fn) public onlyMaintainerOrOwner {... */\n      pop\n      jump\t// out\n        /* \"contracts/chains/kardiachain/RewardSystem.sol\":3135:3256  function canClaim(address user) public view returns (bool) {... */\n    tag_147:\n      sub(shl(0xa0, 0x01), 0x01)\n        /* \"contracts/chains/kardiachain/RewardSystem.sol\":3211:3225  _rewards[user] */\n      dup2\n      and\n        /* \"contracts/chains/kardiachain/RewardSystem.sol\":3188:3192  bool */\n      0x00\n        /* \"contracts/chains/kardiachain/RewardSystem.sol\":3211:3225  _rewards[user] */\n      swap1\n      dup2\n      mstore\n        /* \"contracts/chains/kardiachain/RewardSystem.sol\":3211:3219  _rewards */\n      0x03\n        /* \"contracts/chains/kardiachain/RewardSystem.sol\":3211:3225  _rewards[user] */\n      0x20\n      mstore\n      0x40\n      dup2\n      keccak256\n      sload\n      0xff\n      and\n        /* \"contracts/chains/kardiachain/RewardSystem.sol\":3211:3249  _rewards[user] && canClaimNative(user) */\n      dup1\n      iszero\n      tag_359\n      jumpi\n      pop\n        /* \"contracts/chains/kardiachain/RewardSystem.sol\":3229:3249  canClaimNative(user) */\n      tag_359\n        /* \"contracts/chains/kardiachain/RewardSystem.sol\":3244:3248  user */\n      dup3\n        /* \"contracts/chains/kardiachain/RewardSystem.sol\":3229:3243  canClaimNative */\n      tag_103\n        /* \"contracts/chains/kardiachain/RewardSystem.sol\":3229:3249  canClaimNative(user) */\n      jump\t// in\n    tag_359:\n        /* \"contracts/chains/kardiachain/RewardSystem.sol\":3204:3249  return _rewards[user] && canClaimNative(user) */\n      swap3\n        /* \"contracts/chains/kardiachain/RewardSystem.sol\":3135:3256  function canClaim(address user) public view returns (bool) {... */\n      swap2\n      pop\n      pop\n      jump\t// out\n        /* \"contracts/chains/kardiachain/RewardSystem.sol\":4770:4861  function setRouter(IKaiDexRouter router) public onlyOwner {... */\n    tag_153:\n        /* \"@openzeppelin/contracts/access/Ownable.sol\":1019:1026  address */\n      0x00\n        /* \"@openzeppelin/contracts/access/Ownable.sol\":1045:1051  _owner */\n      sload\n      sub(shl(0xa0, 0x01), 0x01)\n      and\n        /* \"@openzeppelin/contracts/utils/Context.sol\":665:675  msg.sender */\n      caller\n        /* \"@openzeppelin/contracts/access/Ownable.sol\":1185:1208  owner() == _msgSender() */\n      eq\n        /* \"@openzeppelin/contracts/access/Ownable.sol\":1177:1245  require(owner() == _msgSender(), \"Ownable: caller is not the owner\") */\n      tag_363\n      jumpi\n      mload(0x40)\n      shl(0xe5, 0x461bcd)\n      dup2\n      mstore\n      0x04\n      add\n      tag_201\n      swap1\n      tag_228\n      jump\t// in\n    tag_363:\n        /* \"contracts/chains/kardiachain/RewardSystem.sol\":4838:4845  _router */\n      0x0b\n        /* \"contracts/chains/kardiachain/RewardSystem.sol\":4838:4854  _router = router */\n      dup1\n      sload\n      not(sub(shl(0xa0, 0x01), 0x01))\n      and\n      sub(shl(0xa0, 0x01), 0x01)\n      swap3\n      swap1\n      swap3\n      and\n      swap2\n      swap1\n      swap2\n      or\n      swap1\n      sstore\n        /* \"contracts/chains/kardiachain/RewardSystem.sol\":4770:4861  function setRouter(IKaiDexRouter router) public onlyOwner {... */\n      jump\t// out\n        /* \"contracts/chains/kardiachain/RewardSystem.sol\":6102:7038  function sendRewardsAsEth(uint256 amount, address user) public onlyOwner {... */\n    tag_158:\n        /* \"@openzeppelin/contracts/access/Ownable.sol\":1019:1026  address */\n      0x00\n        /* \"@openzeppelin/contracts/access/Ownable.sol\":1045:1051  _owner */\n      sload\n      sub(shl(0xa0, 0x01), 0x01)\n      and\n        /* \"@openzeppelin/contracts/utils/Context.sol\":665:675  msg.sender */\n      caller\n        /* \"@openzeppelin/contracts/access/Ownable.sol\":1185:1208  owner() == _msgSender() */\n      eq\n        /* \"@openzeppelin/contracts/access/Ownable.sol\":1177:1245  require(owner() == _msgSender(), \"Ownable: caller is not the owner\") */\n      tag_369\n      jumpi\n      mload(0x40)\n      shl(0xe5, 0x461bcd)\n      dup2\n      mstore\n      0x04\n      add\n      tag_201\n      swap1\n      tag_228\n      jump\t// in\n    tag_369:\n        /* \"contracts/chains/kardiachain/RewardSystem.sol\":6201:6208  _router */\n      and(sub(shl(0xa0, 0x01), 0x01), sload(0x0b))\n        /* \"contracts/chains/kardiachain/RewardSystem.sol\":6185:6302  require(address(_router) != address(0), \"ABOAT::sendRewardsAsEth: There is no router defined to swap tokens for eth\") */\n      tag_372\n      jumpi\n      mload(0x40)\n      shl(0xe5, 0x461bcd)\n      dup2\n      mstore\n        /* \"#utility.yul\":9666:9668   */\n      0x20\n        /* \"contracts/chains/kardiachain/RewardSystem.sol\":6185:6302  require(address(_router) != address(0), \"ABOAT::sendRewardsAsEth: There is no router defined to swap tokens for eth\") */\n      0x04\n      dup3\n      add\n        /* \"#utility.yul\":9648:9669   */\n      mstore\n        /* \"#utility.yul\":9705:9707   */\n      0x4a\n        /* \"#utility.yul\":9685:9703   */\n      0x24\n      dup3\n      add\n        /* \"#utility.yul\":9678:9708   */\n      mstore\n        /* \"#utility.yul\":9744:9778   */\n      0x41424f41543a3a73656e645265776172647341734574683a2054686572652069\n        /* \"#utility.yul\":9724:9742   */\n      0x44\n      dup3\n      add\n        /* \"#utility.yul\":9717:9779   */\n      mstore\n        /* \"#utility.yul\":9815:9849   */\n      0x73206e6f20726f7574657220646566696e656420746f207377617020746f6b65\n        /* \"#utility.yul\":9795:9813   */\n      0x64\n      dup3\n      add\n        /* \"#utility.yul\":9788:9850   */\n      mstore\n      shl(0xb3, 0x0dce640ccdee440cae8d)\n        /* \"#utility.yul\":9866:9885   */\n      0x84\n      dup3\n      add\n        /* \"#utility.yul\":9859:9900   */\n      mstore\n        /* \"#utility.yul\":9917:9936   */\n      0xa4\n      add\n        /* \"contracts/chains/kardiachain/RewardSystem.sol\":6185:6302  require(address(_router) != address(0), \"ABOAT::sendRewardsAsEth: There is no router defined to swap tokens for eth\") */\n      tag_201\n        /* \"#utility.yul\":9464:9942   */\n      jump\n        /* \"contracts/chains/kardiachain/RewardSystem.sol\":6185:6302  require(address(_router) != address(0), \"ABOAT::sendRewardsAsEth: There is no router defined to swap tokens for eth\") */\n    tag_372:\n        /* \"contracts/chains/kardiachain/RewardSystem.sol\":6330:6342  getBalance() */\n      tag_375\n        /* \"contracts/chains/kardiachain/RewardSystem.sol\":6330:6340  getBalance */\n      tag_52\n        /* \"contracts/chains/kardiachain/RewardSystem.sol\":6330:6342  getBalance() */\n      jump\t// in\n    tag_375:\n        /* \"contracts/chains/kardiachain/RewardSystem.sol\":6320:6326  amount */\n      dup3\n        /* \"contracts/chains/kardiachain/RewardSystem.sol\":6320:6342  amount <= getBalance() */\n      gt\n      iszero\n        /* \"contracts/chains/kardiachain/RewardSystem.sol\":6312:6418  require(amount <= getBalance(), \"ABOAT::sendRewardsAsEth: Can't send more rewards than in reward system!\") */\n      tag_376\n      jumpi\n      mload(0x40)\n      shl(0xe5, 0x461bcd)\n      dup2\n      mstore\n        /* \"#utility.yul\":11346:11348   */\n      0x20\n        /* \"contracts/chains/kardiachain/RewardSystem.sol\":6312:6418  require(amount <= getBalance(), \"ABOAT::sendRewardsAsEth: Can't send more rewards than in reward system!\") */\n      0x04\n      dup3\n      add\n        /* \"#utility.yul\":11328:11349   */\n      mstore\n        /* \"#utility.yul\":11385:11387   */\n      0x47\n        /* \"#utility.yul\":11365:11383   */\n      0x24\n      dup3\n      add\n        /* \"#utility.yul\":11358:11388   */\n      mstore\n        /* \"#utility.yul\":11424:11458   */\n      0x41424f41543a3a73656e645265776172647341734574683a2043616e27742073\n        /* \"#utility.yul\":11404:11422   */\n      0x44\n      dup3\n      add\n        /* \"#utility.yul\":11397:11459   */\n      mstore\n        /* \"#utility.yul\":11495:11529   */\n      0x656e64206d6f72652072657761726473207468616e20696e2072657761726420\n        /* \"#utility.yul\":11475:11493   */\n      0x64\n      dup3\n      add\n        /* \"#utility.yul\":11468:11530   */\n      mstore\n      shl(0xc8, 0x73797374656d21)\n        /* \"#utility.yul\":11546:11565   */\n      0x84\n      dup3\n      add\n        /* \"#utility.yul\":11539:11577   */\n      mstore\n        /* \"#utility.yul\":11594:11613   */\n      0xa4\n      add\n        /* \"contracts/chains/kardiachain/RewardSystem.sol\":6312:6418  require(amount <= getBalance(), \"ABOAT::sendRewardsAsEth: Can't send more rewards than in reward system!\") */\n      tag_201\n        /* \"#utility.yul\":11144:11619   */\n      jump\n        /* \"contracts/chains/kardiachain/RewardSystem.sol\":6312:6418  require(amount <= getBalance(), \"ABOAT::sendRewardsAsEth: Can't send more rewards than in reward system!\") */\n    tag_376:\n        /* \"contracts/chains/kardiachain/RewardSystem.sol\":6446:6466  _maxAmountPerReceive */\n      sload(0x09)\n        /* \"contracts/chains/kardiachain/RewardSystem.sol\":6436:6442  amount */\n      dup3\n        /* \"contracts/chains/kardiachain/RewardSystem.sol\":6436:6466  amount <= _maxAmountPerReceive */\n      gt\n      iszero\n        /* \"contracts/chains/kardiachain/RewardSystem.sol\":6428:6531  require(amount <= _maxAmountPerReceive, \"ABOAT::sendRewardsAsEth: Can't send more rewards than limit!\") */\n      tag_379\n      jumpi\n      mload(0x40)\n      shl(0xe5, 0x461bcd)\n      dup2\n      mstore\n        /* \"#utility.yul\":8387:8389   */\n      0x20\n        /* \"contracts/chains/kardiachain/RewardSystem.sol\":6428:6531  require(amount <= _maxAmountPerReceive, \"ABOAT::sendRewardsAsEth: Can't send more rewards than limit!\") */\n      0x04\n      dup3\n      add\n        /* \"#utility.yul\":8369:8390   */\n      mstore\n        /* \"#utility.yul\":8426:8428   */\n      0x3c\n        /* \"#utility.yul\":8406:8424   */\n      0x24\n      dup3\n      add\n        /* \"#utility.yul\":8399:8429   */\n      mstore\n        /* \"#utility.yul\":8465:8499   */\n      0x41424f41543a3a73656e645265776172647341734574683a2043616e27742073\n        /* \"#utility.yul\":8445:8463   */\n      0x44\n      dup3\n      add\n        /* \"#utility.yul\":8438:8500   */\n      mstore\n        /* \"#utility.yul\":8536:8566   */\n      0x656e64206d6f72652072657761726473207468616e206c696d69742100000000\n        /* \"#utility.yul\":8516:8534   */\n      0x64\n      dup3\n      add\n        /* \"#utility.yul\":8509:8567   */\n      mstore\n        /* \"#utility.yul\":8584:8603   */\n      0x84\n      add\n        /* \"contracts/chains/kardiachain/RewardSystem.sol\":6428:6531  require(amount <= _maxAmountPerReceive, \"ABOAT::sendRewardsAsEth: Can't send more rewards than limit!\") */\n      tag_201\n        /* \"#utility.yul\":8185:8609   */\n      jump\n        /* \"contracts/chains/kardiachain/RewardSystem.sol\":6428:6531  require(amount <= _maxAmountPerReceive, \"ABOAT::sendRewardsAsEth: Can't send more rewards than limit!\") */\n    tag_379:\n        /* \"contracts/chains/kardiachain/RewardSystem.sol\":6549:6569  canClaimNative(user) */\n      tag_382\n        /* \"contracts/chains/kardiachain/RewardSystem.sol\":6564:6568  user */\n      dup2\n        /* \"contracts/chains/kardiachain/RewardSystem.sol\":6549:6563  canClaimNative */\n      tag_103\n        /* \"contracts/chains/kardiachain/RewardSystem.sol\":6549:6569  canClaimNative(user) */\n      jump\t// in\n    tag_382:\n        /* \"contracts/chains/kardiachain/RewardSystem.sol\":6541:6633  require(canClaimNative(user), \"ABOAT::sendRewardsAsEth: Can't claim more than once per day\") */\n      tag_383\n      jumpi\n      mload(0x40)\n      shl(0xe5, 0x461bcd)\n      dup2\n      mstore\n        /* \"#utility.yul\":10149:10151   */\n      0x20\n        /* \"contracts/chains/kardiachain/RewardSystem.sol\":6541:6633  require(canClaimNative(user), \"ABOAT::sendRewardsAsEth: Can't claim more than once per day\") */\n      0x04\n      dup3\n      add\n        /* \"#utility.yul\":10131:10152   */\n      mstore\n        /* \"#utility.yul\":10188:10190   */\n      0x3b\n        /* \"#utility.yul\":10168:10186   */\n      0x24\n      dup3\n      add\n        /* \"#utility.yul\":10161:10191   */\n      mstore\n        /* \"#utility.yul\":10227:10261   */\n      0x41424f41543a3a73656e645265776172647341734574683a2043616e27742063\n        /* \"#utility.yul\":10207:10225   */\n      0x44\n      dup3\n      add\n        /* \"#utility.yul\":10200:10262   */\n      mstore\n        /* \"#utility.yul\":10298:10327   */\n      0x6c61696d206d6f7265207468616e206f6e636520706572206461790000000000\n        /* \"#utility.yul\":10278:10296   */\n      0x64\n      dup3\n      add\n        /* \"#utility.yul\":10271:10328   */\n      mstore\n        /* \"#utility.yul\":10345:10364   */\n      0x84\n      add\n        /* \"contracts/chains/kardiachain/RewardSystem.sol\":6541:6633  require(canClaimNative(user), \"ABOAT::sendRewardsAsEth: Can't claim more than once per day\") */\n      tag_201\n        /* \"#utility.yul\":9947:10370   */\n      jump\n        /* \"contracts/chains/kardiachain/RewardSystem.sol\":6541:6633  require(canClaimNative(user), \"ABOAT::sendRewardsAsEth: Can't claim more than once per day\") */\n    tag_383:\n        /* \"contracts/chains/kardiachain/RewardSystem.sol\":6643:6667  swapTokensForEth(amount) */\n      tag_386\n        /* \"contracts/chains/kardiachain/RewardSystem.sol\":6660:6666  amount */\n      dup3\n        /* \"contracts/chains/kardiachain/RewardSystem.sol\":6643:6659  swapTokensForEth */\n      tag_387\n        /* \"contracts/chains/kardiachain/RewardSystem.sol\":6643:6667  swapTokensForEth(amount) */\n      jump\t// in\n    tag_386:\n        /* \"contracts/chains/kardiachain/RewardSystem.sol\":6677:6692  uint256 userEth */\n      0x00\n        /* \"contracts/chains/kardiachain/RewardSystem.sol\":6695:6730  address(this).balance.sub(_gasCost) */\n      tag_388\n        /* \"contracts/chains/kardiachain/RewardSystem.sol\":6721:6729  _gasCost */\n      sload(0x05)\n        /* \"contracts/chains/kardiachain/RewardSystem.sol\":6695:6716  address(this).balance */\n      selfbalance\n        /* \"contracts/chains/kardiachain/RewardSystem.sol\":6695:6720  address(this).balance.sub */\n      tag_389\n      swap1\n        /* \"contracts/chains/kardiachain/RewardSystem.sol\":6695:6730  address(this).balance.sub(_gasCost) */\n      swap2\n      swap1\n      0xffffffff\n      and\n      jump\t// in\n    tag_388:\n        /* \"contracts/chains/kardiachain/RewardSystem.sol\":6771:6784  _oracleWallet */\n      sload(0x06)\n        /* \"contracts/chains/kardiachain/RewardSystem.sol\":6786:6794  _gasCost */\n      sload(0x05)\n        /* \"contracts/chains/kardiachain/RewardSystem.sol\":6677:6730  uint256 userEth = address(this).balance.sub(_gasCost) */\n      swap2\n      swap3\n      pop\n        /* \"contracts/chains/kardiachain/RewardSystem.sol\":6740:6795  TransferHelper.safeTransferETH(_oracleWallet, _gasCost) */\n      tag_390\n      swap2\n      sub(shl(0xa0, 0x01), 0x01)\n        /* \"contracts/chains/kardiachain/RewardSystem.sol\":6771:6784  _oracleWallet */\n      swap1\n      swap2\n      and\n      swap1\n        /* \"contracts/chains/kardiachain/RewardSystem.sol\":6740:6770  TransferHelper.safeTransferETH */\n      tag_291\n        /* \"contracts/chains/kardiachain/RewardSystem.sol\":6740:6795  TransferHelper.safeTransferETH(_oracleWallet, _gasCost) */\n      jump\t// in\n    tag_390:\n        /* \"contracts/chains/kardiachain/RewardSystem.sol\":6805:6816  uint256 fee */\n      0x00\n        /* \"contracts/chains/kardiachain/RewardSystem.sol\":6819:6834  userEth.div(10) */\n      tag_391\n        /* \"contracts/chains/kardiachain/RewardSystem.sol\":6819:6826  userEth */\n      dup3\n        /* \"contracts/chains/kardiachain/RewardSystem.sol\":6831:6833  10 */\n      0x0a\n        /* \"contracts/chains/kardiachain/RewardSystem.sol\":6819:6830  userEth.div */\n      tag_392\n        /* \"contracts/chains/kardiachain/RewardSystem.sol\":6819:6834  userEth.div(10) */\n      jump\t// in\n    tag_391:\n        /* \"contracts/chains/kardiachain/RewardSystem.sol\":6805:6834  uint256 fee = userEth.div(10) */\n      swap1\n      pop\n        /* \"contracts/chains/kardiachain/RewardSystem.sol\":6854:6870  userEth.sub(fee) */\n      tag_393\n        /* \"contracts/chains/kardiachain/RewardSystem.sol\":6854:6861  userEth */\n      dup3\n        /* \"contracts/chains/kardiachain/RewardSystem.sol\":6805:6834  uint256 fee = userEth.div(10) */\n      dup3\n        /* \"contracts/chains/kardiachain/RewardSystem.sol\":6854:6865  userEth.sub */\n      tag_389\n        /* \"contracts/chains/kardiachain/RewardSystem.sol\":6854:6870  userEth.sub(fee) */\n      jump\t// in\n    tag_393:\n        /* \"contracts/chains/kardiachain/RewardSystem.sol\":6911:6921  _devWallet */\n      sload(0x07)\n        /* \"contracts/chains/kardiachain/RewardSystem.sol\":6844:6870  userEth = userEth.sub(fee) */\n      swap1\n      swap3\n      pop\n        /* \"contracts/chains/kardiachain/RewardSystem.sol\":6880:6927  TransferHelper.safeTransferETH(_devWallet, fee) */\n      tag_394\n      swap1\n      sub(shl(0xa0, 0x01), 0x01)\n        /* \"contracts/chains/kardiachain/RewardSystem.sol\":6911:6921  _devWallet */\n      and\n        /* \"contracts/chains/kardiachain/RewardSystem.sol\":6923:6926  fee */\n      dup3\n        /* \"contracts/chains/kardiachain/RewardSystem.sol\":6880:6910  TransferHelper.safeTransferETH */\n      tag_291\n        /* \"contracts/chains/kardiachain/RewardSystem.sol\":6880:6927  TransferHelper.safeTransferETH(_devWallet, fee) */\n      jump\t// in\n    tag_394:\n        /* \"contracts/chains/kardiachain/RewardSystem.sol\":6937:6982  TransferHelper.safeTransferETH(user, userEth) */\n      tag_395\n        /* \"contracts/chains/kardiachain/RewardSystem.sol\":6968:6972  user */\n      dup4\n        /* \"contracts/chains/kardiachain/RewardSystem.sol\":6974:6981  userEth */\n      dup4\n        /* \"contracts/chains/kardiachain/RewardSystem.sol\":6937:6967  TransferHelper.safeTransferETH */\n      tag_291\n        /* \"contracts/chains/kardiachain/RewardSystem.sol\":6937:6982  TransferHelper.safeTransferETH(user, userEth) */\n      jump\t// in\n    tag_395:\n        /* \"contracts/chains/kardiachain/RewardSystem.sol\":7027:7030  fee */\n      dup1\n        /* \"contracts/chains/kardiachain/RewardSystem.sol\":7018:7025  userEth */\n      dup3\n        /* \"contracts/chains/kardiachain/RewardSystem.sol\":7012:7016  user */\n      dup5\n      sub(shl(0xa0, 0x01), 0x01)\n        /* \"contracts/chains/kardiachain/RewardSystem.sol\":6997:7031  SentRewardsETH(user, userEth, fee) */\n      and\n      0x75b2eac24930bf6a8227dbe172d34480e56be5c6994435067628424190d53431\n      mload(0x40)\n      mload(0x40)\n      dup1\n      swap2\n      sub\n      swap1\n      log4\n        /* \"contracts/chains/kardiachain/RewardSystem.sol\":6175:7038  {... */\n      pop\n      pop\n        /* \"contracts/chains/kardiachain/RewardSystem.sol\":6102:7038  function sendRewardsAsEth(uint256 amount, address user) public onlyOwner {... */\n      pop\n      pop\n      jump\t// out\n        /* \"contracts/chains/kardiachain/RewardSystem.sol\":3901:4131  function adjustMaxAmountPerReceive(uint256 newAmount) public onlyOwner locked(\"adjustMaxAmountPerReceive\") {... */\n    tag_162:\n        /* \"@openzeppelin/contracts/access/Ownable.sol\":1019:1026  address */\n      0x00\n        /* \"@openzeppelin/contracts/access/Ownable.sol\":1045:1051  _owner */\n      sload\n      sub(shl(0xa0, 0x01), 0x01)\n      and\n        /* \"@openzeppelin/contracts/utils/Context.sol\":665:675  msg.sender */\n      caller\n        /* \"@openzeppelin/contracts/access/Ownable.sol\":1185:1208  owner() == _msgSender() */\n      eq\n        /* \"@openzeppelin/contracts/access/Ownable.sol\":1177:1245  require(owner() == _msgSender(), \"Ownable: caller is not the owner\") */\n      tag_399\n      jumpi\n      mload(0x40)\n      shl(0xe5, 0x461bcd)\n      dup2\n      mstore\n      0x04\n      add\n      tag_201\n      swap1\n      tag_228\n      jump\t// in\n    tag_399:\n        /* \"contracts/libraries/TimeLock.sol\":1945:2188  modifier locked(string memory _fn) {... */\n      0x40\n      dup1\n      mload\n      dup1\n      dup3\n      add\n      swap1\n      swap2\n      mstore\n      0x19\n      dup2\n      mstore\n      0x61646a7573744d6178416d6f756e745065725265636569766500000000000000\n      0x20\n      dup3\n      add\n      mstore\n      0x00\n        /* \"contracts/libraries/TimeLock.sol\":1999:2012  isLockEnabled */\n      sload\n      shl(0xa0, 0x01)\n      swap1\n      div\n      0xff\n      and\n        /* \"contracts/libraries/TimeLock.sol\":1998:2012  !isLockEnabled */\n      iszero\n      dup1\n        /* \"contracts/libraries/TimeLock.sol\":1998:2120  !isLockEnabled || (timelock[_fn] != 0 && timelock[_fn] <= block.timestamp && timelock[_fn] + _TIMELOCK >= block.timestamp) */\n      tag_406\n      jumpi\n      pop\n        /* \"contracts/libraries/TimeLock.sol\":2017:2025  timelock */\n      0x01\n        /* \"contracts/libraries/TimeLock.sol\":2026:2029  _fn */\n      dup2\n        /* \"contracts/libraries/TimeLock.sol\":2017:2030  timelock[_fn] */\n      mload(0x40)\n      tag_403\n      swap2\n      swap1\n      tag_454\n      jump\t// in\n    tag_403:\n      swap1\n      dup2\n      mstore\n      0x20\n      add\n      mload(0x40)\n      dup1\n      swap2\n      sub\n      swap1\n      keccak256\n      sload\n        /* \"contracts/libraries/TimeLock.sol\":2034:2035  0 */\n      0x00\n        /* \"contracts/libraries/TimeLock.sol\":2017:2035  timelock[_fn] != 0 */\n      eq\n      iszero\n        /* \"contracts/libraries/TimeLock.sol\":2017:2071  timelock[_fn] != 0 && timelock[_fn] <= block.timestamp */\n      dup1\n      iszero\n      tag_404\n      jumpi\n      pop\n        /* \"contracts/libraries/TimeLock.sol\":2056:2071  block.timestamp */\n      timestamp\n        /* \"contracts/libraries/TimeLock.sol\":2039:2047  timelock */\n      0x01\n        /* \"contracts/libraries/TimeLock.sol\":2048:2051  _fn */\n      dup3\n        /* \"contracts/libraries/TimeLock.sol\":2039:2052  timelock[_fn] */\n      mload(0x40)\n      tag_405\n      swap2\n      swap1\n      tag_454\n      jump\t// in\n    tag_405:\n      swap1\n      dup2\n      mstore\n      0x20\n      add\n      mload(0x40)\n      dup1\n      swap2\n      sub\n      swap1\n      keccak256\n      sload\n        /* \"contracts/libraries/TimeLock.sol\":2039:2071  timelock[_fn] <= block.timestamp */\n      gt\n      iszero\n        /* \"contracts/libraries/TimeLock.sol\":2017:2071  timelock[_fn] != 0 && timelock[_fn] <= block.timestamp */\n    tag_404:\n        /* \"contracts/libraries/TimeLock.sol\":2017:2119  timelock[_fn] != 0 && timelock[_fn] <= block.timestamp && timelock[_fn] + _TIMELOCK >= block.timestamp */\n      dup1\n      iszero\n      tag_406\n      jumpi\n      pop\n        /* \"contracts/libraries/TimeLock.sol\":2104:2119  block.timestamp */\n      timestamp\n        /* \"contracts/libraries/TimeLock.sol\":861:867  1 days */\n      0x015180\n        /* \"contracts/libraries/TimeLock.sol\":2075:2083  timelock */\n      0x01\n        /* \"contracts/libraries/TimeLock.sol\":2084:2087  _fn */\n      dup4\n        /* \"contracts/libraries/TimeLock.sol\":2075:2088  timelock[_fn] */\n      mload(0x40)\n      tag_407\n      swap2\n      swap1\n      tag_454\n      jump\t// in\n    tag_407:\n      swap1\n      dup2\n      mstore\n      0x20\n      add\n      mload(0x40)\n      dup1\n      swap2\n      sub\n      swap1\n      keccak256\n      sload\n        /* \"contracts/libraries/TimeLock.sol\":2075:2100  timelock[_fn] + _TIMELOCK */\n      tag_408\n      swap2\n      swap1\n      tag_212\n      jump\t// in\n    tag_408:\n        /* \"contracts/libraries/TimeLock.sol\":2075:2119  timelock[_fn] + _TIMELOCK >= block.timestamp */\n      lt\n      iszero\n        /* \"contracts/libraries/TimeLock.sol\":2017:2119  timelock[_fn] != 0 && timelock[_fn] <= block.timestamp && timelock[_fn] + _TIMELOCK >= block.timestamp */\n    tag_406:\n        /* \"contracts/libraries/TimeLock.sol\":1990:2143  require(!isLockEnabled || (timelock[_fn] != 0 && timelock[_fn] <= block.timestamp && timelock[_fn] + _TIMELOCK >= block.timestamp), \"Function is locked\") */\n      tag_409\n      jumpi\n      mload(0x40)\n      shl(0xe5, 0x461bcd)\n      dup2\n      mstore\n      0x04\n      add\n      tag_201\n      swap1\n      tag_215\n      jump\t// in\n    tag_409:\n        /* \"contracts/chains/kardiachain/RewardSystem.sol\":4050:4070  _maxAmountPerReceive */\n      sload(0x09)\n        /* \"contracts/chains/kardiachain/RewardSystem.sol\":4023:4082  ChangedMaxAmountPerReceive(_maxAmountPerReceive, newAmount) */\n      mload(0x40)\n        /* \"contracts/chains/kardiachain/RewardSystem.sol\":4072:4081  newAmount */\n      dup4\n      swap2\n        /* \"contracts/chains/kardiachain/RewardSystem.sol\":4050:4070  _maxAmountPerReceive */\n      swap1\n        /* \"contracts/chains/kardiachain/RewardSystem.sol\":4023:4082  ChangedMaxAmountPerReceive(_maxAmountPerReceive, newAmount) */\n      0xd07363c93ca88ca1140b355020cb77b0320b19e19a34bb15aa4566d27c2fabbd\n      swap1\n      0x00\n      swap1\n      log3\n        /* \"contracts/chains/kardiachain/RewardSystem.sol\":4092:4112  _maxAmountPerReceive */\n      0x09\n        /* \"contracts/chains/kardiachain/RewardSystem.sol\":4092:4124  _maxAmountPerReceive = newAmount */\n      dup3\n      swap1\n      sstore\n        /* \"contracts/libraries/TimeLock.sol\":2164:2181  lockFunction(_fn) */\n      tag_221\n        /* \"contracts/libraries/TimeLock.sol\":2177:2180  _fn */\n      dup2\n        /* \"contracts/libraries/TimeLock.sol\":2164:2176  lockFunction */\n      tag_122\n        /* \"contracts/libraries/TimeLock.sol\":2164:2181  lockFunction(_fn) */\n      jump\t// in\n        /* \"@openzeppelin/contracts/access/Ownable.sol\":1846:2035  function transferOwnership(address newOwner) public virtual onlyOwner {... */\n    tag_171:\n        /* \"@openzeppelin/contracts/access/Ownable.sol\":1019:1026  address */\n      0x00\n        /* \"@openzeppelin/contracts/access/Ownable.sol\":1045:1051  _owner */\n      sload\n      sub(shl(0xa0, 0x01), 0x01)\n      and\n        /* \"@openzeppelin/contracts/utils/Context.sol\":665:675  msg.sender */\n      caller\n        /* \"@openzeppelin/contracts/access/Ownable.sol\":1185:1208  owner() == _msgSender() */\n      eq\n        /* \"@openzeppelin/contracts/access/Ownable.sol\":1177:1245  require(owner() == _msgSender(), \"Ownable: caller is not the owner\") */\n      tag_416\n      jumpi\n      mload(0x40)\n      shl(0xe5, 0x461bcd)\n      dup2\n      mstore\n      0x04\n      add\n      tag_201\n      swap1\n      tag_228\n      jump\t// in\n    tag_416:\n      sub(shl(0xa0, 0x01), 0x01)\n        /* \"@openzeppelin/contracts/access/Ownable.sol\":1934:1956  newOwner != address(0) */\n      dup2\n      and\n        /* \"@openzeppelin/contracts/access/Ownable.sol\":1926:1999  require(newOwner != address(0), \"Ownable: new owner is the zero address\") */\n      tag_419\n      jumpi\n      mload(0x40)\n      shl(0xe5, 0x461bcd)\n      dup2\n      mstore\n        /* \"#utility.yul\":7143:7145   */\n      0x20\n        /* \"@openzeppelin/contracts/access/Ownable.sol\":1926:1999  require(newOwner != address(0), \"Ownable: new owner is the zero address\") */\n      0x04\n      dup3\n      add\n        /* \"#utility.yul\":7125:7146   */\n      mstore\n        /* \"#utility.yul\":7182:7184   */\n      0x26\n        /* \"#utility.yul\":7162:7180   */\n      0x24\n      dup3\n      add\n        /* \"#utility.yul\":7155:7185   */\n      mstore\n        /* \"#utility.yul\":7221:7255   */\n      0x4f776e61626c653a206e6577206f776e657220697320746865207a65726f2061\n        /* \"#utility.yul\":7201:7219   */\n      0x44\n      dup3\n      add\n        /* \"#utility.yul\":7194:7256   */\n      mstore\n      shl(0xd0, 0x646472657373)\n        /* \"#utility.yul\":7272:7290   */\n      0x64\n      dup3\n      add\n        /* \"#utility.yul\":7265:7301   */\n      mstore\n        /* \"#utility.yul\":7318:7337   */\n      0x84\n      add\n        /* \"@openzeppelin/contracts/access/Ownable.sol\":1926:1999  require(newOwner != address(0), \"Ownable: new owner is the zero address\") */\n      tag_201\n        /* \"#utility.yul\":6941:7343   */\n      jump\n        /* \"@openzeppelin/contracts/access/Ownable.sol\":1926:1999  require(newOwner != address(0), \"Ownable: new owner is the zero address\") */\n    tag_419:\n        /* \"@openzeppelin/contracts/access/Ownable.sol\":2009:2028  _setOwner(newOwner) */\n      tag_422\n        /* \"@openzeppelin/contracts/access/Ownable.sol\":2019:2027  newOwner */\n      dup2\n        /* \"@openzeppelin/contracts/access/Ownable.sol\":2009:2018  _setOwner */\n      tag_318\n        /* \"@openzeppelin/contracts/access/Ownable.sol\":2009:2028  _setOwner(newOwner) */\n      jump\t// in\n    tag_422:\n        /* \"@openzeppelin/contracts/access/Ownable.sol\":1846:2035  function transferOwnership(address newOwner) public virtual onlyOwner {... */\n      pop\n      jump\t// out\n        /* \"contracts/libraries/TimeLock.sol\":3627:3751  function setTimelockEnabled() public onlyMaintainerOrOwner {... */\n    tag_174:\n        /* \"contracts/libraries/TimeLock.sol\":2264:2274  msg.sender */\n      caller\n        /* \"contracts/libraries/TimeLock.sol\":2253:2260  owner() */\n      tag_424\n        /* \"@openzeppelin/contracts/access/Ownable.sol\":1019:1026  address */\n      0x00\n        /* \"@openzeppelin/contracts/access/Ownable.sol\":1045:1051  _owner */\n      sload\n      sub(shl(0xa0, 0x01), 0x01)\n      and\n      swap1\n        /* \"@openzeppelin/contracts/access/Ownable.sol\":973:1058  function owner() public view virtual returns (address) {... */\n      jump\n        /* \"contracts/libraries/TimeLock.sol\":2253:2260  owner() */\n    tag_424:\n      sub(shl(0xa0, 0x01), 0x01)\n        /* \"contracts/libraries/TimeLock.sol\":2253:2274  owner() == msg.sender */\n      and\n      eq\n        /* \"contracts/libraries/TimeLock.sol\":2253:2303  owner() == msg.sender || _maintainer == msg.sender */\n      dup1\n      tag_425\n      jumpi\n      pop\n        /* \"contracts/libraries/TimeLock.sol\":2278:2289  _maintainer */\n      and(sub(shl(0xa0, 0x01), 0x01), sload(0x02))\n        /* \"contracts/libraries/TimeLock.sol\":2293:2303  msg.sender */\n      caller\n        /* \"contracts/libraries/TimeLock.sol\":2278:2303  _maintainer == msg.sender */\n      eq\n        /* \"contracts/libraries/TimeLock.sol\":2253:2303  owner() == msg.sender || _maintainer == msg.sender */\n    tag_425:\n        /* \"contracts/libraries/TimeLock.sol\":2245:2361  require(owner() == msg.sender || _maintainer == msg.sender, \"operator: caller is not allowed to call this function\") */\n      tag_426\n      jumpi\n      mload(0x40)\n      shl(0xe5, 0x461bcd)\n      dup2\n      mstore\n      0x04\n      add\n      tag_201\n      swap1\n      tag_202\n      jump\t// in\n    tag_426:\n        /* \"contracts/libraries/TimeLock.sol\":3696:3709  isLockEnabled */\n      0x00\n        /* \"contracts/libraries/TimeLock.sol\":3696:3716  isLockEnabled = true */\n      dup1\n      sload\n      not(shl(0xa0, 0xff))\n      and\n      shl(0xa0, 0x01)\n      or\n      dup2\n      sstore\n        /* \"contracts/libraries/TimeLock.sol\":3731:3744  EnabledLock() */\n      mload(0x40)\n      0x2c08b62bfac9a1b19bb1dec9323f1ce01696a77948b256abf3603d30f25a864e\n      swap2\n        /* \"contracts/libraries/TimeLock.sol\":3696:3709  isLockEnabled */\n      swap1\n        /* \"contracts/libraries/TimeLock.sol\":3731:3744  EnabledLock() */\n      log1\n        /* \"contracts/libraries/TimeLock.sol\":3627:3751  function setTimelockEnabled() public onlyMaintainerOrOwner {... */\n      jump\t// out\n        /* \"contracts/chains/kardiachain/RewardSystem.sol\":4141:4467  function updateRewardToken(IERC20 rewardToken) public onlyOwner locked(\"updateRewardToken\") {... */\n    tag_184:\n        /* \"@openzeppelin/contracts/access/Ownable.sol\":1019:1026  address */\n      0x00\n        /* \"@openzeppelin/contracts/access/Ownable.sol\":1045:1051  _owner */\n      sload\n      sub(shl(0xa0, 0x01), 0x01)\n      and\n        /* \"@openzeppelin/contracts/utils/Context.sol\":665:675  msg.sender */\n      caller\n        /* \"@openzeppelin/contracts/access/Ownable.sol\":1185:1208  owner() == _msgSender() */\n      eq\n        /* \"@openzeppelin/contracts/access/Ownable.sol\":1177:1245  require(owner() == _msgSender(), \"Ownable: caller is not the owner\") */\n      tag_432\n      jumpi\n      mload(0x40)\n      shl(0xe5, 0x461bcd)\n      dup2\n      mstore\n      0x04\n      add\n      tag_201\n      swap1\n      tag_228\n      jump\t// in\n    tag_432:\n        /* \"contracts/libraries/TimeLock.sol\":1945:2188  modifier locked(string memory _fn) {... */\n      0x40\n      dup1\n      mload\n      dup1\n      dup3\n      add\n      swap1\n      swap2\n      mstore\n      0x11\n      dup2\n      mstore\n      shl(0x79, 0x3ab83230ba32a932bbb0b9322a37b5b2b7)\n      0x20\n      dup3\n      add\n      mstore\n      0x00\n        /* \"contracts/libraries/TimeLock.sol\":1999:2012  isLockEnabled */\n      sload\n      shl(0xa0, 0x01)\n      swap1\n      div\n      0xff\n      and\n        /* \"contracts/libraries/TimeLock.sol\":1998:2012  !isLockEnabled */\n      iszero\n      dup1\n        /* \"contracts/libraries/TimeLock.sol\":1998:2120  !isLockEnabled || (timelock[_fn] != 0 && timelock[_fn] <= block.timestamp && timelock[_fn] + _TIMELOCK >= block.timestamp) */\n      tag_439\n      jumpi\n      pop\n        /* \"contracts/libraries/TimeLock.sol\":2017:2025  timelock */\n      0x01\n        /* \"contracts/libraries/TimeLock.sol\":2026:2029  _fn */\n      dup2\n        /* \"contracts/libraries/TimeLock.sol\":2017:2030  timelock[_fn] */\n      mload(0x40)\n      tag_436\n      swap2\n      swap1\n      tag_454\n      jump\t// in\n    tag_436:\n      swap1\n      dup2\n      mstore\n      0x20\n      add\n      mload(0x40)\n      dup1\n      swap2\n      sub\n      swap1\n      keccak256\n      sload\n        /* \"contracts/libraries/TimeLock.sol\":2034:2035  0 */\n      0x00\n        /* \"contracts/libraries/TimeLock.sol\":2017:2035  timelock[_fn] != 0 */\n      eq\n      iszero\n        /* \"contracts/libraries/TimeLock.sol\":2017:2071  timelock[_fn] != 0 && timelock[_fn] <= block.timestamp */\n      dup1\n      iszero\n      tag_437\n      jumpi\n      pop\n        /* \"contracts/libraries/TimeLock.sol\":2056:2071  block.timestamp */\n      timestamp\n        /* \"contracts/libraries/TimeLock.sol\":2039:2047  timelock */\n      0x01\n        /* \"contracts/libraries/TimeLock.sol\":2048:2051  _fn */\n      dup3\n        /* \"contracts/libraries/TimeLock.sol\":2039:2052  timelock[_fn] */\n      mload(0x40)\n      tag_438\n      swap2\n      swap1\n      tag_454\n      jump\t// in\n    tag_438:\n      swap1\n      dup2\n      mstore\n      0x20\n      add\n      mload(0x40)\n      dup1\n      swap2\n      sub\n      swap1\n      keccak256\n      sload\n        /* \"contracts/libraries/TimeLock.sol\":2039:2071  timelock[_fn] <= block.timestamp */\n      gt\n      iszero\n        /* \"contracts/libraries/TimeLock.sol\":2017:2071  timelock[_fn] != 0 && timelock[_fn] <= block.timestamp */\n    tag_437:\n        /* \"contracts/libraries/TimeLock.sol\":2017:2119  timelock[_fn] != 0 && timelock[_fn] <= block.timestamp && timelock[_fn] + _TIMELOCK >= block.timestamp */\n      dup1\n      iszero\n      tag_439\n      jumpi\n      pop\n        /* \"contracts/libraries/TimeLock.sol\":2104:2119  block.timestamp */\n      timestamp\n        /* \"contracts/libraries/TimeLock.sol\":861:867  1 days */\n      0x015180\n        /* \"contracts/libraries/TimeLock.sol\":2075:2083  timelock */\n      0x01\n        /* \"contracts/libraries/TimeLock.sol\":2084:2087  _fn */\n      dup4\n        /* \"contracts/libraries/TimeLock.sol\":2075:2088  timelock[_fn] */\n      mload(0x40)\n      tag_440\n      swap2\n      swap1\n      tag_454\n      jump\t// in\n    tag_440:\n      swap1\n      dup2\n      mstore\n      0x20\n      add\n      mload(0x40)\n      dup1\n      swap2\n      sub\n      swap1\n      keccak256\n      sload\n        /* \"contracts/libraries/TimeLock.sol\":2075:2100  timelock[_fn] + _TIMELOCK */\n      tag_441\n      swap2\n      swap1\n      tag_212\n      jump\t// in\n    tag_441:\n        /* \"contracts/libraries/TimeLock.sol\":2075:2119  timelock[_fn] + _TIMELOCK >= block.timestamp */\n      lt\n      iszero\n        /* \"contracts/libraries/TimeLock.sol\":2017:2119  timelock[_fn] != 0 && timelock[_fn] <= block.timestamp && timelock[_fn] + _TIMELOCK >= block.timestamp */\n    tag_439:\n        /* \"contracts/libraries/TimeLock.sol\":1990:2143  require(!isLockEnabled || (timelock[_fn] != 0 && timelock[_fn] <= block.timestamp && timelock[_fn] + _TIMELOCK >= block.timestamp), \"Function is locked\") */\n      tag_442\n      jumpi\n      mload(0x40)\n      shl(0xe5, 0x461bcd)\n      dup2\n      mstore\n      0x04\n      add\n      tag_201\n      swap1\n      tag_215\n      jump\t// in\n    tag_442:\n        /* \"contracts/chains/kardiachain/RewardSystem.sol\":4266:4278  _rewardToken */\n      sload(0x08)\n      sub(shl(0xa0, 0x01), 0x01)\n        /* \"contracts/chains/kardiachain/RewardSystem.sol\":4251:4278  rewardToken != _rewardToken */\n      dup4\n      dup2\n      and\n        /* \"contracts/chains/kardiachain/RewardSystem.sol\":4266:4278  _rewardToken */\n      swap2\n      and\n        /* \"contracts/chains/kardiachain/RewardSystem.sol\":4251:4278  rewardToken != _rewardToken */\n      eq\n      iszero\n        /* \"contracts/chains/kardiachain/RewardSystem.sol\":4243:4346  require(rewardToken != _rewardToken, \"ABOAT:updateRewardToken: You can't update the exact same tokens\") */\n      tag_445\n      jumpi\n      mload(0x40)\n      shl(0xe5, 0x461bcd)\n      dup2\n      mstore\n        /* \"#utility.yul\":11826:11828   */\n      0x20\n        /* \"contracts/chains/kardiachain/RewardSystem.sol\":4243:4346  require(rewardToken != _rewardToken, \"ABOAT:updateRewardToken: You can't update the exact same tokens\") */\n      0x04\n      dup3\n      add\n        /* \"#utility.yul\":11808:11829   */\n      mstore\n        /* \"#utility.yul\":11865:11867   */\n      0x3f\n        /* \"#utility.yul\":11845:11863   */\n      0x24\n      dup3\n      add\n        /* \"#utility.yul\":11838:11868   */\n      mstore\n        /* \"#utility.yul\":11904:11938   */\n      0x41424f41543a757064617465526577617264546f6b656e3a20596f752063616e\n        /* \"#utility.yul\":11884:11902   */\n      0x44\n      dup3\n      add\n        /* \"#utility.yul\":11877:11939   */\n      mstore\n        /* \"#utility.yul\":11975:12008   */\n      0x277420757064617465207468652065786163742073616d6520746f6b656e7300\n        /* \"#utility.yul\":11955:11973   */\n      0x64\n      dup3\n      add\n        /* \"#utility.yul\":11948:12009   */\n      mstore\n        /* \"#utility.yul\":12026:12045   */\n      0x84\n      add\n        /* \"contracts/chains/kardiachain/RewardSystem.sol\":4243:4346  require(rewardToken != _rewardToken, \"ABOAT:updateRewardToken: You can't update the exact same tokens\") */\n      tag_201\n        /* \"#utility.yul\":11624:12051   */\n      jump\n        /* \"contracts/chains/kardiachain/RewardSystem.sol\":4243:4346  require(rewardToken != _rewardToken, \"ABOAT:updateRewardToken: You can't update the exact same tokens\") */\n    tag_445:\n        /* \"contracts/chains/kardiachain/RewardSystem.sol\":4388:4400  _rewardToken */\n      sload(0x08)\n        /* \"contracts/chains/kardiachain/RewardSystem.sol\":4361:4424  ChangedRewardToken(address(_rewardToken), address(rewardToken)) */\n      mload(0x40)\n      sub(shl(0xa0, 0x01), 0x01)\n      dup1\n      dup6\n      and\n      swap3\n        /* \"contracts/chains/kardiachain/RewardSystem.sol\":4388:4400  _rewardToken */\n      and\n      swap1\n        /* \"contracts/chains/kardiachain/RewardSystem.sol\":4361:4424  ChangedRewardToken(address(_rewardToken), address(rewardToken)) */\n      0xcb89265f21b9fc8710e9d9e42bbb37af1eb207454deca6d5e36787be2367c1d6\n      swap1\n        /* \"contracts/chains/kardiachain/RewardSystem.sol\":4388:4400  _rewardToken */\n      0x00\n      swap1\n        /* \"contracts/chains/kardiachain/RewardSystem.sol\":4361:4424  ChangedRewardToken(address(_rewardToken), address(rewardToken)) */\n      log3\n        /* \"contracts/chains/kardiachain/RewardSystem.sol\":4434:4446  _rewardToken */\n      0x08\n        /* \"contracts/chains/kardiachain/RewardSystem.sol\":4434:4460  _rewardToken = rewardToken */\n      dup1\n      sload\n      not(sub(shl(0xa0, 0x01), 0x01))\n      and\n      sub(shl(0xa0, 0x01), 0x01)\n      dup5\n      and\n      or\n      swap1\n      sstore\n        /* \"contracts/libraries/TimeLock.sol\":2164:2181  lockFunction(_fn) */\n      tag_221\n        /* \"contracts/libraries/TimeLock.sol\":2177:2180  _fn */\n      dup2\n        /* \"contracts/libraries/TimeLock.sol\":2164:2176  lockFunction */\n      tag_122\n        /* \"contracts/libraries/TimeLock.sol\":2164:2181  lockFunction(_fn) */\n      jump\t// in\n        /* \"contracts/libraries/TransferHelper.sol\":210:594  function safeTransfer(... */\n    tag_233:\n        /* \"contracts/libraries/TransferHelper.sol\":382:427  abi.encodeWithSelector(0xa9059cbb, to, value) */\n      0x40\n      dup1\n      mload\n      sub(shl(0xa0, 0x01), 0x01)\n        /* \"#utility.yul\":6210:6242   */\n      dup5\n      dup2\n      and\n        /* \"contracts/libraries/TransferHelper.sol\":382:427  abi.encodeWithSelector(0xa9059cbb, to, value) */\n      0x24\n      dup4\n      add\n        /* \"#utility.yul\":6192:6243   */\n      mstore\n        /* \"#utility.yul\":6259:6277   */\n      0x44\n      dup1\n      dup4\n      add\n        /* \"#utility.yul\":6252:6286   */\n      dup6\n      swap1\n      mstore\n        /* \"contracts/libraries/TransferHelper.sol\":382:427  abi.encodeWithSelector(0xa9059cbb, to, value) */\n      dup4\n      mload\n      dup1\n      dup5\n      sub\n      swap1\n      swap2\n      add\n      dup2\n      mstore\n        /* \"#utility.yul\":6165:6183   */\n      0x64\n      swap1\n      swap3\n      add\n        /* \"contracts/libraries/TransferHelper.sol\":382:427  abi.encodeWithSelector(0xa9059cbb, to, value) */\n      dup4\n      mstore\n      0x20\n      dup3\n      add\n      dup1\n      mload\n      sub(shl(0xe0, 0x01), 0x01)\n      and\n      shl(0xe0, 0xa9059cbb)\n      or\n      swap1\n      mstore\n        /* \"contracts/libraries/TransferHelper.sol\":371:428  token.call(abi.encodeWithSelector(0xa9059cbb, to, value)) */\n      swap2\n      mload\n      0x00\n      swap3\n      dup4\n      swap3\n        /* \"contracts/libraries/TransferHelper.sol\":371:381  token.call */\n      swap1\n      dup8\n      and\n      swap2\n        /* \"contracts/libraries/TransferHelper.sol\":371:428  token.call(abi.encodeWithSelector(0xa9059cbb, to, value)) */\n      tag_453\n      swap2\n        /* \"contracts/libraries/TransferHelper.sol\":382:427  abi.encodeWithSelector(0xa9059cbb, to, value) */\n      swap1\n        /* \"contracts/libraries/TransferHelper.sol\":371:428  token.call(abi.encodeWithSelector(0xa9059cbb, to, value)) */\n      tag_454\n      jump\t// in\n    tag_453:\n      0x00\n      mload(0x40)\n      dup1\n      dup4\n      sub\n      dup2\n      0x00\n      dup7\n      gas\n      call\n      swap2\n      pop\n      pop\n      returndatasize\n      dup1\n      0x00\n      dup2\n      eq\n      tag_457\n      jumpi\n      mload(0x40)\n      swap2\n      pop\n      and(add(returndatasize, 0x3f), not(0x1f))\n      dup3\n      add\n      0x40\n      mstore\n      returndatasize\n      dup3\n      mstore\n      returndatasize\n      0x00\n      0x20\n      dup5\n      add\n      returndatacopy\n      jump(tag_456)\n    tag_457:\n      0x60\n      swap2\n      pop\n    tag_456:\n      pop\n        /* \"contracts/libraries/TransferHelper.sol\":323:428  (bool success, bytes memory data) =... */\n      swap2\n      pop\n      swap2\n      pop\n        /* \"contracts/libraries/TransferHelper.sol\":459:466  success */\n      dup2\n        /* \"contracts/libraries/TransferHelper.sol\":459:516  success && (data.length == 0 || abi.decode(data, (bool))) */\n      dup1\n      iszero\n      tag_460\n      jumpi\n      pop\n        /* \"contracts/libraries/TransferHelper.sol\":471:482  data.length */\n      dup1\n      mload\n        /* \"contracts/libraries/TransferHelper.sol\":471:487  data.length == 0 */\n      iszero\n      dup1\n        /* \"contracts/libraries/TransferHelper.sol\":471:515  data.length == 0 || abi.decode(data, (bool)) */\n      tag_460\n      jumpi\n      pop\n        /* \"contracts/libraries/TransferHelper.sol\":502:506  data */\n      dup1\n        /* \"contracts/libraries/TransferHelper.sol\":491:515  abi.decode(data, (bool)) */\n      dup1\n      0x20\n      add\n      swap1\n      mload\n      dup2\n      add\n      swap1\n      tag_460\n      swap2\n      swap1\n      tag_461\n      jump\t// in\n    tag_460:\n        /* \"contracts/libraries/TransferHelper.sol\":438:587  require(... */\n      tag_462\n      jumpi\n      mload(0x40)\n      shl(0xe5, 0x461bcd)\n      dup2\n      mstore\n        /* \"#utility.yul\":12746:12748   */\n      0x20\n        /* \"contracts/libraries/TransferHelper.sol\":438:587  require(... */\n      0x04\n      dup3\n      add\n        /* \"#utility.yul\":12728:12749   */\n      mstore\n        /* \"#utility.yul\":12785:12787   */\n      0x2d\n        /* \"#utility.yul\":12765:12783   */\n      0x24\n      dup3\n      add\n        /* \"#utility.yul\":12758:12788   */\n      mstore\n        /* \"#utility.yul\":12824:12858   */\n      0x5472616e7366657248656c7065723a3a736166655472616e736665723a207472\n        /* \"#utility.yul\":12804:12822   */\n      0x44\n      dup3\n      add\n        /* \"#utility.yul\":12797:12859   */\n      mstore\n      shl(0x9a, 0x185b9cd9995c8819985a5b1959)\n        /* \"#utility.yul\":12875:12893   */\n      0x64\n      dup3\n      add\n        /* \"#utility.yul\":12868:12911   */\n      mstore\n        /* \"#utility.yul\":12928:12947   */\n      0x84\n      add\n        /* \"contracts/libraries/TransferHelper.sol\":438:587  require(... */\n      tag_201\n        /* \"#utility.yul\":12544:12953   */\n      jump\n        /* \"contracts/libraries/TransferHelper.sol\":438:587  require(... */\n    tag_462:\n        /* \"contracts/libraries/TransferHelper.sol\":313:594  {... */\n      pop\n      pop\n        /* \"contracts/libraries/TransferHelper.sol\":210:594  function safeTransfer(... */\n      pop\n      pop\n      pop\n      jump\t// out\n        /* \"contracts/libraries/TransferHelper.sol\":1026:1274  function safeTransferETH(address to, uint256 value) internal {... */\n    tag_291:\n        /* \"contracts/libraries/TransferHelper.sol\":1138:1150  new bytes(0) */\n      0x40\n      dup1\n      mload\n        /* \"contracts/libraries/TransferHelper.sol\":1098:1110  bool success */\n      0x00\n        /* \"contracts/libraries/TransferHelper.sol\":1138:1150  new bytes(0) */\n      dup1\n      dup3\n      mstore\n      0x20\n      dup3\n      add\n      swap1\n      swap3\n      mstore\n      sub(shl(0xa0, 0x01), 0x01)\n        /* \"contracts/libraries/TransferHelper.sol\":1116:1123  to.call */\n      dup5\n      and\n      swap1\n        /* \"contracts/libraries/TransferHelper.sol\":1131:1136  value */\n      dup4\n      swap1\n        /* \"contracts/libraries/TransferHelper.sol\":1116:1151  to.call{value: value}(new bytes(0)) */\n      mload(0x40)\n      tag_470\n      swap2\n      swap1\n      tag_454\n      jump\t// in\n    tag_470:\n      0x00\n      mload(0x40)\n      dup1\n      dup4\n      sub\n      dup2\n      dup6\n      dup8\n      gas\n      call\n      swap3\n      pop\n      pop\n      pop\n      returndatasize\n      dup1\n      0x00\n      dup2\n      eq\n      tag_473\n      jumpi\n      mload(0x40)\n      swap2\n      pop\n      and(add(returndatasize, 0x3f), not(0x1f))\n      dup3\n      add\n      0x40\n      mstore\n      returndatasize\n      dup3\n      mstore\n      returndatasize\n      0x00\n      0x20\n      dup5\n      add\n      returndatacopy\n      jump(tag_472)\n    tag_473:\n      0x60\n      swap2\n      pop\n    tag_472:\n      pop\n        /* \"contracts/libraries/TransferHelper.sol\":1097:1151  (bool success, ) = to.call{value: value}(new bytes(0)) */\n      pop\n      swap1\n      pop\n        /* \"contracts/libraries/TransferHelper.sol\":1182:1189  success */\n      dup1\n        /* \"contracts/libraries/TransferHelper.sol\":1161:1267  require(... */\n      tag_245\n      jumpi\n      mload(0x40)\n      shl(0xe5, 0x461bcd)\n      dup2\n      mstore\n        /* \"#utility.yul\":7550:7552   */\n      0x20\n        /* \"contracts/libraries/TransferHelper.sol\":1161:1267  require(... */\n      0x04\n      dup3\n      add\n        /* \"#utility.yul\":7532:7553   */\n      mstore\n        /* \"#utility.yul\":7589:7591   */\n      0x34\n        /* \"#utility.yul\":7569:7587   */\n      0x24\n      dup3\n      add\n        /* \"#utility.yul\":7562:7592   */\n      mstore\n        /* \"#utility.yul\":7628:7662   */\n      0x5472616e7366657248656c7065723a3a736166655472616e736665724554483a\n        /* \"#utility.yul\":7608:7626   */\n      0x44\n      dup3\n      add\n        /* \"#utility.yul\":7601:7663   */\n      mstore\n      shl(0x62, 0x08115512081d1c985b9cd9995c8819985a5b1959)\n        /* \"#utility.yul\":7679:7697   */\n      0x64\n      dup3\n      add\n        /* \"#utility.yul\":7672:7722   */\n      mstore\n        /* \"#utility.yul\":7739:7758   */\n      0x84\n      add\n        /* \"contracts/libraries/TransferHelper.sol\":1161:1267  require(... */\n      tag_201\n        /* \"#utility.yul\":7348:7764   */\n      jump\n        /* \"@openzeppelin/contracts/access/Ownable.sol\":2041:2210  function _setOwner(address newOwner) private {... */\n    tag_318:\n        /* \"@openzeppelin/contracts/access/Ownable.sol\":2096:2112  address oldOwner */\n      0x00\n        /* \"@openzeppelin/contracts/access/Ownable.sol\":2115:2121  _owner */\n      dup1\n      sload\n      sub(shl(0xa0, 0x01), 0x01)\n        /* \"@openzeppelin/contracts/access/Ownable.sol\":2131:2148  _owner = newOwner */\n      dup4\n      dup2\n      and\n      not(sub(shl(0xa0, 0x01), 0x01))\n      dup4\n      and\n      dup2\n      or\n      dup5\n      sstore\n        /* \"@openzeppelin/contracts/access/Ownable.sol\":2163:2203  OwnershipTransferred(oldOwner, newOwner) */\n      mload(0x40)\n        /* \"@openzeppelin/contracts/access/Ownable.sol\":2115:2121  _owner */\n      swap2\n      swap1\n      swap3\n      and\n      swap3\n      dup4\n      swap2\n        /* \"@openzeppelin/contracts/access/Ownable.sol\":2163:2203  OwnershipTransferred(oldOwner, newOwner) */\n      0x8be0079c531659141344cd1fd0a4f28419497f9722a3daafe3b4186f6b6457e0\n      swap2\n        /* \"@openzeppelin/contracts/access/Ownable.sol\":2096:2112  address oldOwner */\n      swap1\n        /* \"@openzeppelin/contracts/access/Ownable.sol\":2163:2203  OwnershipTransferred(oldOwner, newOwner) */\n      log3\n        /* \"@openzeppelin/contracts/access/Ownable.sol\":2086:2210  {... */\n      pop\n        /* \"@openzeppelin/contracts/access/Ownable.sol\":2041:2210  function _setOwner(address newOwner) private {... */\n      pop\n      jump\t// out\n        /* \"contracts/chains/kardiachain/RewardSystem.sol\":7048:7591  function swapTokensForEth(uint256 tokenAmount) private {... */\n    tag_387:\n        /* \"contracts/chains/kardiachain/RewardSystem.sol\":7194:7210  new address[](2) */\n      0x40\n      dup1\n      mload\n        /* \"contracts/chains/kardiachain/RewardSystem.sol\":7208:7209  2 */\n      0x02\n        /* \"contracts/chains/kardiachain/RewardSystem.sol\":7194:7210  new address[](2) */\n      dup1\n      dup3\n      mstore\n      0x60\n      dup3\n      add\n      dup4\n      mstore\n        /* \"contracts/chains/kardiachain/RewardSystem.sol\":7170:7191  address[] memory path */\n      0x00\n      swap3\n        /* \"contracts/chains/kardiachain/RewardSystem.sol\":7194:7210  new address[](2) */\n      0x20\n      dup4\n      add\n      swap1\n      dup1\n      calldatasize\n      dup4\n      calldatacopy\n      pop\n      pop\n        /* \"contracts/chains/kardiachain/RewardSystem.sol\":7238:7250  _rewardToken */\n      sload(0x08)\n        /* \"contracts/chains/kardiachain/RewardSystem.sol\":7220:7227  path[0] */\n      dup3\n      mload\n      swap3\n      swap4\n      pop\n      sub(shl(0xa0, 0x01), 0x01)\n        /* \"contracts/chains/kardiachain/RewardSystem.sol\":7238:7250  _rewardToken */\n      and\n      swap2\n        /* \"contracts/chains/kardiachain/RewardSystem.sol\":7220:7227  path[0] */\n      dup4\n      swap2\n      pop\n        /* \"contracts/chains/kardiachain/RewardSystem.sol\":7238:7250  _rewardToken */\n      0x00\n      swap1\n        /* \"contracts/chains/kardiachain/RewardSystem.sol\":7220:7227  path[0] */\n      tag_483\n      jumpi\n      tag_483\n      tag_249\n      jump\t// in\n    tag_483:\n      sub(shl(0xa0, 0x01), 0x01)\n        /* \"contracts/chains/kardiachain/RewardSystem.sol\":7220:7251  path[0] = address(_rewardToken) */\n      swap3\n      dup4\n      and\n        /* \"contracts/chains/kardiachain/RewardSystem.sol\":7220:7227  path[0] */\n      0x20\n      swap2\n      dup3\n      mul\n      swap3\n      swap1\n      swap3\n      add\n      add\n        /* \"contracts/chains/kardiachain/RewardSystem.sol\":7220:7251  path[0] = address(_rewardToken) */\n      mstore\n        /* \"contracts/chains/kardiachain/RewardSystem.sol\":7271:7276  _weth */\n      sload(0x0a)\n        /* \"contracts/chains/kardiachain/RewardSystem.sol\":7261:7268  path[1] */\n      dup3\n      mload\n        /* \"contracts/chains/kardiachain/RewardSystem.sol\":7271:7276  _weth */\n      swap2\n      and\n      swap1\n        /* \"contracts/chains/kardiachain/RewardSystem.sol\":7261:7265  path */\n      dup3\n      swap1\n        /* \"contracts/chains/kardiachain/RewardSystem.sol\":7271:7276  _weth */\n      0x01\n      swap1\n        /* \"contracts/chains/kardiachain/RewardSystem.sol\":7261:7268  path[1] */\n      dup2\n      lt\n      tag_485\n      jumpi\n      tag_485\n      tag_249\n      jump\t// in\n    tag_485:\n      sub(shl(0xa0, 0x01), 0x01)\n        /* \"contracts/chains/kardiachain/RewardSystem.sol\":7261:7276  path[1] = _weth */\n      swap3\n      dup4\n      and\n        /* \"contracts/chains/kardiachain/RewardSystem.sol\":7261:7268  path[1] */\n      0x20\n      swap2\n      dup3\n      mul\n      swap3\n      swap1\n      swap3\n      add\n      add\n        /* \"contracts/chains/kardiachain/RewardSystem.sol\":7261:7276  path[1] = _weth */\n      mstore\n        /* \"contracts/chains/kardiachain/RewardSystem.sol\":7287:7299  _rewardToken */\n      sload(0x08)\n        /* \"contracts/chains/kardiachain/RewardSystem.sol\":7316:7323  _router */\n      sload(0x0b)\n        /* \"contracts/chains/kardiachain/RewardSystem.sol\":7287:7338  _rewardToken.approve(address(_router), tokenAmount) */\n      mload(0x40)\n      shl(0xe0, 0x095ea7b3)\n      dup2\n      mstore\n        /* \"contracts/chains/kardiachain/RewardSystem.sol\":7316:7323  _router */\n      swap1\n      dup4\n      and\n        /* \"contracts/chains/kardiachain/RewardSystem.sol\":7287:7338  _rewardToken.approve(address(_router), tokenAmount) */\n      0x04\n      dup3\n      add\n        /* \"#utility.yul\":6192:6243   */\n      mstore\n        /* \"#utility.yul\":6259:6277   */\n      0x24\n      dup2\n      add\n        /* \"#utility.yul\":6252:6286   */\n      dup6\n      swap1\n      mstore\n        /* \"contracts/chains/kardiachain/RewardSystem.sol\":7287:7299  _rewardToken */\n      swap2\n      and\n      swap1\n        /* \"contracts/chains/kardiachain/RewardSystem.sol\":7287:7307  _rewardToken.approve */\n      0x095ea7b3\n      swap1\n        /* \"#utility.yul\":6165:6183   */\n      0x44\n      add\n        /* \"contracts/chains/kardiachain/RewardSystem.sol\":7287:7338  _rewardToken.approve(address(_router), tokenAmount) */\n      0x20\n      mload(0x40)\n      dup1\n      dup4\n      sub\n      dup2\n      0x00\n      dup8\n      dup1\n      extcodesize\n      iszero\n      dup1\n      iszero\n      tag_487\n      jumpi\n      0x00\n      dup1\n      revert\n    tag_487:\n      pop\n      gas\n      call\n      iszero\n      dup1\n      iszero\n      tag_489\n      jumpi\n      returndatasize\n      0x00\n      dup1\n      returndatacopy\n      revert(0x00, returndatasize)\n    tag_489:\n      pop\n      pop\n      pop\n      pop\n      mload(0x40)\n      returndatasize\n      not(0x1f)\n      0x1f\n      dup3\n      add\n      and\n      dup3\n      add\n      dup1\n      0x40\n      mstore\n      pop\n      dup2\n      add\n      swap1\n      tag_490\n      swap2\n      swap1\n      tag_461\n      jump\t// in\n    tag_490:\n      pop\n        /* \"contracts/chains/kardiachain/RewardSystem.sol\":7374:7381  _router */\n      sload(0x0b)\n        /* \"contracts/chains/kardiachain/RewardSystem.sol\":7374:7584  _router.swapExactTokensForKAISupportingFeeOnTransferTokens(... */\n      mload(0x40)\n      shl(0xe0, 0xb6a046b3)\n      dup2\n      mstore\n      sub(shl(0xa0, 0x01), 0x01)\n        /* \"contracts/chains/kardiachain/RewardSystem.sol\":7374:7381  _router */\n      swap1\n      swap2\n      and\n      swap1\n        /* \"contracts/chains/kardiachain/RewardSystem.sol\":7374:7432  _router.swapExactTokensForKAISupportingFeeOnTransferTokens */\n      0xb6a046b3\n      swap1\n        /* \"contracts/chains/kardiachain/RewardSystem.sol\":7374:7584  _router.swapExactTokensForKAISupportingFeeOnTransferTokens(... */\n      tag_491\n      swap1\n        /* \"contracts/chains/kardiachain/RewardSystem.sol\":7446:7457  tokenAmount */\n      dup6\n      swap1\n        /* \"contracts/chains/kardiachain/RewardSystem.sol\":7374:7381  _router */\n      0x00\n      swap1\n        /* \"contracts/chains/kardiachain/RewardSystem.sol\":7514:7518  path */\n      dup7\n      swap1\n        /* \"contracts/chains/kardiachain/RewardSystem.sol\":7540:7544  this */\n      address\n      swap1\n        /* \"contracts/chains/kardiachain/RewardSystem.sol\":7559:7574  block.timestamp */\n      timestamp\n      swap1\n        /* \"contracts/chains/kardiachain/RewardSystem.sol\":7374:7584  _router.swapExactTokensForKAISupportingFeeOnTransferTokens(... */\n      0x04\n      add\n      tag_492\n      jump\t// in\n    tag_491:\n      0x00\n      mload(0x40)\n      dup1\n      dup4\n      sub\n      dup2\n      0x00\n      dup8\n      dup1\n      extcodesize\n      iszero\n      dup1\n      iszero\n      tag_493\n      jumpi\n      0x00\n      dup1\n      revert\n    tag_493:\n      pop\n      gas\n      call\n      iszero\n      dup1\n      iszero\n      tag_495\n      jumpi\n      returndatasize\n      0x00\n      dup1\n      returndatacopy\n      revert(0x00, returndatasize)\n    tag_495:\n      pop\n      pop\n      pop\n      pop\n        /* \"contracts/chains/kardiachain/RewardSystem.sol\":7103:7591  {... */\n      pop\n        /* \"contracts/chains/kardiachain/RewardSystem.sol\":7048:7591  function swapTokensForEth(uint256 tokenAmount) private {... */\n      pop\n      jump\t// out\n        /* \"@openzeppelin/contracts/utils/math/SafeMath.sol\":3039:3135  function sub(uint256 a, uint256 b) internal pure returns (uint256) {... */\n    tag_389:\n        /* \"@openzeppelin/contracts/utils/math/SafeMath.sol\":3097:3104  uint256 */\n      0x00\n        /* \"@openzeppelin/contracts/utils/math/SafeMath.sol\":3123:3128  a - b */\n      tag_497\n        /* \"@openzeppelin/contracts/utils/math/SafeMath.sol\":3127:3128  b */\n      dup3\n        /* \"@openzeppelin/contracts/utils/math/SafeMath.sol\":3123:3124  a */\n      dup5\n        /* \"@openzeppelin/contracts/utils/math/SafeMath.sol\":3123:3128  a - b */\n      tag_498\n      jump\t// in\n    tag_497:\n        /* \"@openzeppelin/contracts/utils/math/SafeMath.sol\":3116:3128  return a - b */\n      swap4\n        /* \"@openzeppelin/contracts/utils/math/SafeMath.sol\":3039:3135  function sub(uint256 a, uint256 b) internal pure returns (uint256) {... */\n      swap3\n      pop\n      pop\n      pop\n      jump\t// out\n        /* \"@openzeppelin/contracts/utils/math/SafeMath.sol\":3767:3863  function div(uint256 a, uint256 b) internal pure returns (uint256) {... */\n    tag_392:\n        /* \"@openzeppelin/contracts/utils/math/SafeMath.sol\":3825:3832  uint256 */\n      0x00\n        /* \"@openzeppelin/contracts/utils/math/SafeMath.sol\":3851:3856  a / b */\n      tag_497\n        /* \"@openzeppelin/contracts/utils/math/SafeMath.sol\":3855:3856  b */\n      dup3\n        /* \"@openzeppelin/contracts/utils/math/SafeMath.sol\":3851:3852  a */\n      dup5\n        /* \"@openzeppelin/contracts/utils/math/SafeMath.sol\":3851:3856  a / b */\n      tag_501\n      jump\t// in\n        /* \"#utility.yul\":14:762   */\n    tag_503:\n        /* \"#utility.yul\":68:73   */\n      0x00\n        /* \"#utility.yul\":121:124   */\n      dup3\n        /* \"#utility.yul\":114:118   */\n      0x1f\n        /* \"#utility.yul\":106:112   */\n      dup4\n        /* \"#utility.yul\":102:119   */\n      add\n        /* \"#utility.yul\":98:125   */\n      slt\n        /* \"#utility.yul\":88:143   */\n      tag_505\n      jumpi\n        /* \"#utility.yul\":139:140   */\n      0x00\n        /* \"#utility.yul\":136:137   */\n      dup1\n        /* \"#utility.yul\":129:141   */\n      revert\n        /* \"#utility.yul\":88:143   */\n    tag_505:\n        /* \"#utility.yul\":175:181   */\n      dup2\n        /* \"#utility.yul\":162:182   */\n      calldataload\n        /* \"#utility.yul\":201:205   */\n      0x20\n        /* \"#utility.yul\":225:285   */\n      tag_506\n        /* \"#utility.yul\":241:284   */\n      tag_507\n        /* \"#utility.yul\":281:283   */\n      dup4\n        /* \"#utility.yul\":241:284   */\n      tag_508\n      jump\t// in\n    tag_507:\n        /* \"#utility.yul\":225:285   */\n      tag_509\n      jump\t// in\n    tag_506:\n        /* \"#utility.yul\":307:310   */\n      dup1\n        /* \"#utility.yul\":331:333   */\n      dup4\n        /* \"#utility.yul\":326:329   */\n      dup3\n        /* \"#utility.yul\":319:334   */\n      mstore\n        /* \"#utility.yul\":359:361   */\n      dup3\n        /* \"#utility.yul\":354:357   */\n      dup3\n        /* \"#utility.yul\":350:362   */\n      add\n        /* \"#utility.yul\":343:362   */\n      swap2\n      pop\n        /* \"#utility.yul\":394:396   */\n      dup3\n        /* \"#utility.yul\":386:392   */\n      dup7\n        /* \"#utility.yul\":382:397   */\n      add\n        /* \"#utility.yul\":446:449   */\n      dup8\n        /* \"#utility.yul\":441:443   */\n      dup5\n        /* \"#utility.yul\":435:437   */\n      dup7\n        /* \"#utility.yul\":432:433   */\n      0x05\n        /* \"#utility.yul\":428:438   */\n      shl\n        /* \"#utility.yul\":420:426   */\n      dup10\n        /* \"#utility.yul\":416:439   */\n      add\n        /* \"#utility.yul\":412:444   */\n      add\n        /* \"#utility.yul\":409:450   */\n      gt\n        /* \"#utility.yul\":406:467   */\n      iszero\n      tag_510\n      jumpi\n        /* \"#utility.yul\":463:464   */\n      0x00\n        /* \"#utility.yul\":460:461   */\n      dup1\n        /* \"#utility.yul\":453:465   */\n      revert\n        /* \"#utility.yul\":406:467   */\n    tag_510:\n        /* \"#utility.yul\":485:486   */\n      0x00\n        /* \"#utility.yul\":495:733   */\n    tag_511:\n        /* \"#utility.yul\":509:511   */\n      dup6\n        /* \"#utility.yul\":506:507   */\n      dup2\n        /* \"#utility.yul\":503:512   */\n      lt\n        /* \"#utility.yul\":495:733   */\n      iszero\n      tag_513\n      jumpi\n        /* \"#utility.yul\":580:583   */\n      dup2\n        /* \"#utility.yul\":567:584   */\n      calldataload\n        /* \"#utility.yul\":597:628   */\n      tag_514\n        /* \"#utility.yul\":622:627   */\n      dup2\n        /* \"#utility.yul\":597:628   */\n      tag_515\n      jump\t// in\n    tag_514:\n        /* \"#utility.yul\":641:659   */\n      dup5\n      mstore\n        /* \"#utility.yul\":679:691   */\n      swap3\n      dup5\n      add\n      swap3\n        /* \"#utility.yul\":711:723   */\n      swap1\n      dup5\n      add\n      swap1\n        /* \"#utility.yul\":527:528   */\n      0x01\n        /* \"#utility.yul\":520:529   */\n      add\n        /* \"#utility.yul\":495:733   */\n      jump(tag_511)\n    tag_513:\n      pop\n        /* \"#utility.yul\":751:756   */\n      swap1\n      swap8\n        /* \"#utility.yul\":14:762   */\n      swap7\n      pop\n      pop\n      pop\n      pop\n      pop\n      pop\n      pop\n      jump\t// out\n        /* \"#utility.yul\":767:1440   */\n    tag_516:\n        /* \"#utility.yul\":821:826   */\n      0x00\n        /* \"#utility.yul\":874:877   */\n      dup3\n        /* \"#utility.yul\":867:871   */\n      0x1f\n        /* \"#utility.yul\":859:865   */\n      dup4\n        /* \"#utility.yul\":855:872   */\n      add\n        /* \"#utility.yul\":851:878   */\n      slt\n        /* \"#utility.yul\":841:896   */\n      tag_518\n      jumpi\n        /* \"#utility.yul\":892:893   */\n      0x00\n        /* \"#utility.yul\":889:890   */\n      dup1\n        /* \"#utility.yul\":882:894   */\n      revert\n        /* \"#utility.yul\":841:896   */\n    tag_518:\n        /* \"#utility.yul\":928:934   */\n      dup2\n        /* \"#utility.yul\":915:935   */\n      calldataload\n        /* \"#utility.yul\":954:958   */\n      0x20\n        /* \"#utility.yul\":978:1038   */\n      tag_519\n        /* \"#utility.yul\":994:1037   */\n      tag_507\n        /* \"#utility.yul\":1034:1036   */\n      dup4\n        /* \"#utility.yul\":994:1037   */\n      tag_508\n      jump\t// in\n        /* \"#utility.yul\":978:1038   */\n    tag_519:\n        /* \"#utility.yul\":1060:1063   */\n      dup1\n        /* \"#utility.yul\":1084:1086   */\n      dup4\n        /* \"#utility.yul\":1079:1082   */\n      dup3\n        /* \"#utility.yul\":1072:1087   */\n      mstore\n        /* \"#utility.yul\":1112:1114   */\n      dup3\n        /* \"#utility.yul\":1107:1110   */\n      dup3\n        /* \"#utility.yul\":1103:1115   */\n      add\n        /* \"#utility.yul\":1096:1115   */\n      swap2\n      pop\n        /* \"#utility.yul\":1147:1149   */\n      dup3\n        /* \"#utility.yul\":1139:1145   */\n      dup7\n        /* \"#utility.yul\":1135:1150   */\n      add\n        /* \"#utility.yul\":1199:1202   */\n      dup8\n        /* \"#utility.yul\":1194:1196   */\n      dup5\n        /* \"#utility.yul\":1188:1190   */\n      dup7\n        /* \"#utility.yul\":1185:1186   */\n      0x05\n        /* \"#utility.yul\":1181:1191   */\n      shl\n        /* \"#utility.yul\":1173:1179   */\n      dup10\n        /* \"#utility.yul\":1169:1192   */\n      add\n        /* \"#utility.yul\":1165:1197   */\n      add\n        /* \"#utility.yul\":1162:1203   */\n      gt\n        /* \"#utility.yul\":1159:1220   */\n      iszero\n      tag_521\n      jumpi\n        /* \"#utility.yul\":1216:1217   */\n      0x00\n        /* \"#utility.yul\":1213:1214   */\n      dup1\n        /* \"#utility.yul\":1206:1218   */\n      revert\n        /* \"#utility.yul\":1159:1220   */\n    tag_521:\n        /* \"#utility.yul\":1238:1239   */\n      0x00\n        /* \"#utility.yul\":1248:1411   */\n    tag_522:\n        /* \"#utility.yul\":1262:1264   */\n      dup6\n        /* \"#utility.yul\":1259:1260   */\n      dup2\n        /* \"#utility.yul\":1256:1265   */\n      lt\n        /* \"#utility.yul\":1248:1411   */\n      iszero\n      tag_513\n      jumpi\n        /* \"#utility.yul\":1319:1336   */\n      dup2\n      calldataload\n        /* \"#utility.yul\":1307:1337   */\n      dup5\n      mstore\n        /* \"#utility.yul\":1357:1369   */\n      swap3\n      dup5\n      add\n      swap3\n        /* \"#utility.yul\":1389:1401   */\n      swap1\n      dup5\n      add\n      swap1\n        /* \"#utility.yul\":1280:1281   */\n      0x01\n        /* \"#utility.yul\":1273:1282   */\n      add\n        /* \"#utility.yul\":1248:1411   */\n      jump(tag_522)\n        /* \"#utility.yul\":1445:1692   */\n    tag_58:\n        /* \"#utility.yul\":1504:1510   */\n      0x00\n        /* \"#utility.yul\":1557:1559   */\n      0x20\n        /* \"#utility.yul\":1545:1554   */\n      dup3\n        /* \"#utility.yul\":1536:1543   */\n      dup5\n        /* \"#utility.yul\":1532:1555   */\n      sub\n        /* \"#utility.yul\":1528:1560   */\n      slt\n        /* \"#utility.yul\":1525:1577   */\n      iszero\n      tag_526\n      jumpi\n        /* \"#utility.yul\":1573:1574   */\n      0x00\n        /* \"#utility.yul\":1570:1571   */\n      dup1\n        /* \"#utility.yul\":1563:1575   */\n      revert\n        /* \"#utility.yul\":1525:1577   */\n    tag_526:\n        /* \"#utility.yul\":1612:1621   */\n      dup2\n        /* \"#utility.yul\":1599:1622   */\n      calldataload\n        /* \"#utility.yul\":1631:1662   */\n      tag_497\n        /* \"#utility.yul\":1656:1661   */\n      dup2\n        /* \"#utility.yul\":1631:1662   */\n      tag_515\n      jump\t// in\n        /* \"#utility.yul\":1697:2292   */\n    tag_66:\n        /* \"#utility.yul\":1815:1821   */\n      0x00\n        /* \"#utility.yul\":1823:1829   */\n      dup1\n        /* \"#utility.yul\":1876:1878   */\n      0x40\n        /* \"#utility.yul\":1864:1873   */\n      dup4\n        /* \"#utility.yul\":1855:1862   */\n      dup6\n        /* \"#utility.yul\":1851:1874   */\n      sub\n        /* \"#utility.yul\":1847:1879   */\n      slt\n        /* \"#utility.yul\":1844:1896   */\n      iszero\n      tag_529\n      jumpi\n        /* \"#utility.yul\":1892:1893   */\n      0x00\n        /* \"#utility.yul\":1889:1890   */\n      dup1\n        /* \"#utility.yul\":1882:1894   */\n      revert\n        /* \"#utility.yul\":1844:1896   */\n    tag_529:\n        /* \"#utility.yul\":1932:1941   */\n      dup3\n        /* \"#utility.yul\":1919:1942   */\n      calldataload\n        /* \"#utility.yul\":1961:1979   */\n      0xffffffffffffffff\n        /* \"#utility.yul\":2002:2004   */\n      dup1\n        /* \"#utility.yul\":1994:2000   */\n      dup3\n        /* \"#utility.yul\":1991:2005   */\n      gt\n        /* \"#utility.yul\":1988:2022   */\n      iszero\n      tag_530\n      jumpi\n        /* \"#utility.yul\":2018:2019   */\n      0x00\n        /* \"#utility.yul\":2015:2016   */\n      dup1\n        /* \"#utility.yul\":2008:2020   */\n      revert\n        /* \"#utility.yul\":1988:2022   */\n    tag_530:\n        /* \"#utility.yul\":2041:2102   */\n      tag_531\n        /* \"#utility.yul\":2094:2101   */\n      dup7\n        /* \"#utility.yul\":2085:2091   */\n      dup4\n        /* \"#utility.yul\":2074:2083   */\n      dup8\n        /* \"#utility.yul\":2070:2092   */\n      add\n        /* \"#utility.yul\":2041:2102   */\n      tag_516\n      jump\t// in\n    tag_531:\n        /* \"#utility.yul\":2031:2102   */\n      swap4\n      pop\n        /* \"#utility.yul\":2155:2157   */\n      0x20\n        /* \"#utility.yul\":2144:2153   */\n      dup6\n        /* \"#utility.yul\":2140:2158   */\n      add\n        /* \"#utility.yul\":2127:2159   */\n      calldataload\n        /* \"#utility.yul\":2111:2159   */\n      swap2\n      pop\n        /* \"#utility.yul\":2184:2186   */\n      dup1\n        /* \"#utility.yul\":2174:2182   */\n      dup3\n        /* \"#utility.yul\":2171:2187   */\n      gt\n        /* \"#utility.yul\":2168:2204   */\n      iszero\n      tag_532\n      jumpi\n        /* \"#utility.yul\":2200:2201   */\n      0x00\n        /* \"#utility.yul\":2197:2198   */\n      dup1\n        /* \"#utility.yul\":2190:2202   */\n      revert\n        /* \"#utility.yul\":2168:2204   */\n    tag_532:\n      pop\n        /* \"#utility.yul\":2223:2286   */\n      tag_533\n        /* \"#utility.yul\":2278:2285   */\n      dup6\n        /* \"#utility.yul\":2267:2275   */\n      dup3\n        /* \"#utility.yul\":2256:2265   */\n      dup7\n        /* \"#utility.yul\":2252:2276   */\n      add\n        /* \"#utility.yul\":2223:2286   */\n      tag_503\n      jump\t// in\n    tag_533:\n        /* \"#utility.yul\":2213:2286   */\n      swap2\n      pop\n      pop\n        /* \"#utility.yul\":1697:2292   */\n      swap3\n      pop\n      swap3\n      swap1\n      pop\n      jump\t// out\n        /* \"#utility.yul\":2297:2960   */\n    tag_71:\n        /* \"#utility.yul\":2424:2430   */\n      0x00\n        /* \"#utility.yul\":2432:2438   */\n      dup1\n        /* \"#utility.yul\":2440:2446   */\n      0x00\n        /* \"#utility.yul\":2493:2495   */\n      0x60\n        /* \"#utility.yul\":2481:2490   */\n      dup5\n        /* \"#utility.yul\":2472:2479   */\n      dup7\n        /* \"#utility.yul\":2468:2491   */\n      sub\n        /* \"#utility.yul\":2464:2496   */\n      slt\n        /* \"#utility.yul\":2461:2513   */\n      iszero\n      tag_535\n      jumpi\n        /* \"#utility.yul\":2509:2510   */\n      0x00\n        /* \"#utility.yul\":2506:2507   */\n      dup1\n        /* \"#utility.yul\":2499:2511   */\n      revert\n        /* \"#utility.yul\":2461:2513   */\n    tag_535:\n        /* \"#utility.yul\":2549:2558   */\n      dup4\n        /* \"#utility.yul\":2536:2559   */\n      calldataload\n        /* \"#utility.yul\":2578:2596   */\n      0xffffffffffffffff\n        /* \"#utility.yul\":2619:2621   */\n      dup1\n        /* \"#utility.yul\":2611:2617   */\n      dup3\n        /* \"#utility.yul\":2608:2622   */\n      gt\n        /* \"#utility.yul\":2605:2639   */\n      iszero\n      tag_536\n      jumpi\n        /* \"#utility.yul\":2635:2636   */\n      0x00\n        /* \"#utility.yul\":2632:2633   */\n      dup1\n        /* \"#utility.yul\":2625:2637   */\n      revert\n        /* \"#utility.yul\":2605:2639   */\n    tag_536:\n        /* \"#utility.yul\":2658:2719   */\n      tag_537\n        /* \"#utility.yul\":2711:2718   */\n      dup8\n        /* \"#utility.yul\":2702:2708   */\n      dup4\n        /* \"#utility.yul\":2691:2700   */\n      dup9\n        /* \"#utility.yul\":2687:2709   */\n      add\n        /* \"#utility.yul\":2658:2719   */\n      tag_516\n      jump\t// in\n    tag_537:\n        /* \"#utility.yul\":2648:2719   */\n      swap5\n      pop\n        /* \"#utility.yul\":2772:2774   */\n      0x20\n        /* \"#utility.yul\":2761:2770   */\n      dup7\n        /* \"#utility.yul\":2757:2775   */\n      add\n        /* \"#utility.yul\":2744:2776   */\n      calldataload\n        /* \"#utility.yul\":2728:2776   */\n      swap2\n      pop\n        /* \"#utility.yul\":2801:2803   */\n      dup1\n        /* \"#utility.yul\":2791:2799   */\n      dup3\n        /* \"#utility.yul\":2788:2804   */\n      gt\n        /* \"#utility.yul\":2785:2821   */\n      iszero\n      tag_538\n      jumpi\n        /* \"#utility.yul\":2817:2818   */\n      0x00\n        /* \"#utility.yul\":2814:2815   */\n      dup1\n        /* \"#utility.yul\":2807:2819   */\n      revert\n        /* \"#utility.yul\":2785:2821   */\n    tag_538:\n      pop\n        /* \"#utility.yul\":2840:2903   */\n      tag_539\n        /* \"#utility.yul\":2895:2902   */\n      dup7\n        /* \"#utility.yul\":2884:2892   */\n      dup3\n        /* \"#utility.yul\":2873:2882   */\n      dup8\n        /* \"#utility.yul\":2869:2893   */\n      add\n        /* \"#utility.yul\":2840:2903   */\n      tag_503\n      jump\t// in\n    tag_539:\n        /* \"#utility.yul\":2830:2903   */\n      swap3\n      pop\n      pop\n        /* \"#utility.yul\":2950:2952   */\n      0x40\n        /* \"#utility.yul\":2939:2948   */\n      dup5\n        /* \"#utility.yul\":2935:2953   */\n      add\n        /* \"#utility.yul\":2922:2954   */\n      calldataload\n        /* \"#utility.yul\":2912:2954   */\n      swap1\n      pop\n        /* \"#utility.yul\":2297:2960   */\n      swap3\n      pop\n      swap3\n      pop\n      swap3\n      jump\t// out\n        /* \"#utility.yul\":2965:3242   */\n    tag_461:\n        /* \"#utility.yul\":3032:3038   */\n      0x00\n        /* \"#utility.yul\":3085:3087   */\n      0x20\n        /* \"#utility.yul\":3073:3082   */\n      dup3\n        /* \"#utility.yul\":3064:3071   */\n      dup5\n        /* \"#utility.yul\":3060:3083   */\n      sub\n        /* \"#utility.yul\":3056:3088   */\n      slt\n        /* \"#utility.yul\":3053:3105   */\n      iszero\n      tag_541\n      jumpi\n        /* \"#utility.yul\":3101:3102   */\n      0x00\n        /* \"#utility.yul\":3098:3099   */\n      dup1\n        /* \"#utility.yul\":3091:3103   */\n      revert\n        /* \"#utility.yul\":3053:3105   */\n    tag_541:\n        /* \"#utility.yul\":3133:3142   */\n      dup2\n        /* \"#utility.yul\":3127:3143   */\n      mload\n        /* \"#utility.yul\":3186:3191   */\n      dup1\n        /* \"#utility.yul\":3179:3192   */\n      iszero\n        /* \"#utility.yul\":3172:3193   */\n      iszero\n        /* \"#utility.yul\":3165:3170   */\n      dup2\n        /* \"#utility.yul\":3162:3194   */\n      eq\n        /* \"#utility.yul\":3152:3212   */\n      tag_497\n      jumpi\n        /* \"#utility.yul\":3208:3209   */\n      0x00\n        /* \"#utility.yul\":3205:3206   */\n      dup1\n        /* \"#utility.yul\":3198:3210   */\n      revert\n        /* \"#utility.yul\":3787:4551   */\n    tag_121:\n        /* \"#utility.yul\":3856:3862   */\n      0x00\n        /* \"#utility.yul\":3887:3889   */\n      0x20\n        /* \"#utility.yul\":3930:3932   */\n      dup1\n        /* \"#utility.yul\":3918:3927   */\n      dup4\n        /* \"#utility.yul\":3909:3916   */\n      dup6\n        /* \"#utility.yul\":3905:3928   */\n      sub\n        /* \"#utility.yul\":3901:3933   */\n      slt\n        /* \"#utility.yul\":3898:3950   */\n      iszero\n      tag_550\n      jumpi\n        /* \"#utility.yul\":3946:3947   */\n      0x00\n        /* \"#utility.yul\":3943:3944   */\n      dup1\n        /* \"#utility.yul\":3936:3948   */\n      revert\n        /* \"#utility.yul\":3898:3950   */\n    tag_550:\n        /* \"#utility.yul\":3986:3995   */\n      dup3\n        /* \"#utility.yul\":3973:3996   */\n      calldataload\n        /* \"#utility.yul\":4015:4033   */\n      0xffffffffffffffff\n        /* \"#utility.yul\":4056:4058   */\n      dup1\n        /* \"#utility.yul\":4048:4054   */\n      dup3\n        /* \"#utility.yul\":4045:4059   */\n      gt\n        /* \"#utility.yul\":4042:4076   */\n      iszero\n      tag_551\n      jumpi\n        /* \"#utility.yul\":4072:4073   */\n      0x00\n        /* \"#utility.yul\":4069:4070   */\n      dup1\n        /* \"#utility.yul\":4062:4074   */\n      revert\n        /* \"#utility.yul\":4042:4076   */\n    tag_551:\n        /* \"#utility.yul\":4110:4116   */\n      dup2\n        /* \"#utility.yul\":4099:4108   */\n      dup6\n        /* \"#utility.yul\":4095:4117   */\n      add\n        /* \"#utility.yul\":4085:4117   */\n      swap2\n      pop\n        /* \"#utility.yul\":4155:4162   */\n      dup6\n        /* \"#utility.yul\":4148:4152   */\n      0x1f\n        /* \"#utility.yul\":4144:4146   */\n      dup4\n        /* \"#utility.yul\":4140:4153   */\n      add\n        /* \"#utility.yul\":4136:4163   */\n      slt\n        /* \"#utility.yul\":4126:4181   */\n      tag_552\n      jumpi\n        /* \"#utility.yul\":4177:4178   */\n      0x00\n        /* \"#utility.yul\":4174:4175   */\n      dup1\n        /* \"#utility.yul\":4167:4179   */\n      revert\n        /* \"#utility.yul\":4126:4181   */\n    tag_552:\n        /* \"#utility.yul\":4213:4215   */\n      dup2\n        /* \"#utility.yul\":4200:4216   */\n      calldataload\n        /* \"#utility.yul\":4235:4237   */\n      dup2\n        /* \"#utility.yul\":4231:4233   */\n      dup2\n        /* \"#utility.yul\":4228:4238   */\n      gt\n        /* \"#utility.yul\":4225:4261   */\n      iszero\n      tag_554\n      jumpi\n        /* \"#utility.yul\":4241:4259   */\n      tag_554\n      tag_468\n      jump\t// in\n    tag_554:\n        /* \"#utility.yul\":4283:4336   */\n      tag_555\n        /* \"#utility.yul\":4326:4328   */\n      0x1f\n        /* \"#utility.yul\":4307:4320   */\n      dup3\n      add\n      not(0x1f)\n        /* \"#utility.yul\":4303:4330   */\n      and\n        /* \"#utility.yul\":4299:4335   */\n      dup6\n      add\n        /* \"#utility.yul\":4283:4336   */\n      tag_509\n      jump\t// in\n    tag_555:\n        /* \"#utility.yul\":4270:4336   */\n      swap2\n      pop\n        /* \"#utility.yul\":4359:4361   */\n      dup1\n        /* \"#utility.yul\":4352:4357   */\n      dup3\n        /* \"#utility.yul\":4345:4362   */\n      mstore\n        /* \"#utility.yul\":4399:4406   */\n      dup7\n        /* \"#utility.yul\":4394:4396   */\n      dup5\n        /* \"#utility.yul\":4389:4391   */\n      dup3\n        /* \"#utility.yul\":4385:4387   */\n      dup6\n        /* \"#utility.yul\":4381:4392   */\n      add\n        /* \"#utility.yul\":4377:4397   */\n      add\n        /* \"#utility.yul\":4374:4407   */\n      gt\n        /* \"#utility.yul\":4371:4424   */\n      iszero\n      tag_556\n      jumpi\n        /* \"#utility.yul\":4420:4421   */\n      0x00\n        /* \"#utility.yul\":4417:4418   */\n      dup1\n        /* \"#utility.yul\":4410:4422   */\n      revert\n        /* \"#utility.yul\":4371:4424   */\n    tag_556:\n        /* \"#utility.yul\":4475:4477   */\n      dup1\n        /* \"#utility.yul\":4470:4472   */\n      dup5\n        /* \"#utility.yul\":4466:4468   */\n      dup5\n        /* \"#utility.yul\":4462:4473   */\n      add\n        /* \"#utility.yul\":4457:4459   */\n      dup6\n        /* \"#utility.yul\":4450:4455   */\n      dup5\n        /* \"#utility.yul\":4446:4460   */\n      add\n        /* \"#utility.yul\":4433:4478   */\n      calldatacopy\n        /* \"#utility.yul\":4519:4520   */\n      0x00\n        /* \"#utility.yul\":4498:4512   */\n      swap1\n      dup3\n      add\n        /* \"#utility.yul\":4494:4517   */\n      swap1\n      swap4\n      add\n        /* \"#utility.yul\":4487:4521   */\n      swap3\n      swap1\n      swap3\n      mstore\n      pop\n        /* \"#utility.yul\":4502:4507   */\n      swap4\n        /* \"#utility.yul\":3787:4551   */\n      swap3\n      pop\n      pop\n      pop\n      jump\t// out\n        /* \"#utility.yul\":4556:4736   */\n    tag_108:\n        /* \"#utility.yul\":4615:4621   */\n      0x00\n        /* \"#utility.yul\":4668:4670   */\n      0x20\n        /* \"#utility.yul\":4656:4665   */\n      dup3\n        /* \"#utility.yul\":4647:4654   */\n      dup5\n        /* \"#utility.yul\":4643:4666   */\n      sub\n        /* \"#utility.yul\":4639:4671   */\n      slt\n        /* \"#utility.yul\":4636:4688   */\n      iszero\n      tag_558\n      jumpi\n        /* \"#utility.yul\":4684:4685   */\n      0x00\n        /* \"#utility.yul\":4681:4682   */\n      dup1\n        /* \"#utility.yul\":4674:4686   */\n      revert\n        /* \"#utility.yul\":4636:4688   */\n    tag_558:\n      pop\n        /* \"#utility.yul\":4707:4730   */\n      calldataload\n      swap2\n        /* \"#utility.yul\":4556:4736   */\n      swap1\n      pop\n      jump\t// out\n        /* \"#utility.yul\":4741:4925   */\n    tag_196:\n        /* \"#utility.yul\":4811:4817   */\n      0x00\n        /* \"#utility.yul\":4864:4866   */\n      0x20\n        /* \"#utility.yul\":4852:4861   */\n      dup3\n        /* \"#utility.yul\":4843:4850   */\n      dup5\n        /* \"#utility.yul\":4839:4862   */\n      sub\n        /* \"#utility.yul\":4835:4867   */\n      slt\n        /* \"#utility.yul\":4832:4884   */\n      iszero\n      tag_560\n      jumpi\n        /* \"#utility.yul\":4880:4881   */\n      0x00\n        /* \"#utility.yul\":4877:4878   */\n      dup1\n        /* \"#utility.yul\":4870:4882   */\n      revert\n        /* \"#utility.yul\":4832:4884   */\n    tag_560:\n      pop\n        /* \"#utility.yul\":4903:4919   */\n      mload\n      swap2\n        /* \"#utility.yul\":4741:4925   */\n      swap1\n      pop\n      jump\t// out\n        /* \"#utility.yul\":4930:5245   */\n    tag_157:\n        /* \"#utility.yul\":4998:5004   */\n      0x00\n        /* \"#utility.yul\":5006:5012   */\n      dup1\n        /* \"#utility.yul\":5059:5061   */\n      0x40\n        /* \"#utility.yul\":5047:5056   */\n      dup4\n        /* \"#utility.yul\":5038:5045   */\n      dup6\n        /* \"#utility.yul\":5034:5057   */\n      sub\n        /* \"#utility.yul\":5030:5062   */\n      slt\n        /* \"#utility.yul\":5027:5079   */\n      iszero\n      tag_562\n      jumpi\n        /* \"#utility.yul\":5075:5076   */\n      0x00\n        /* \"#utility.yul\":5072:5073   */\n      dup1\n        /* \"#utility.yul\":5065:5077   */\n      revert\n        /* \"#utility.yul\":5027:5079   */\n    tag_562:\n        /* \"#utility.yul\":5111:5120   */\n      dup3\n        /* \"#utility.yul\":5098:5121   */\n      calldataload\n        /* \"#utility.yul\":5088:5121   */\n      swap2\n      pop\n        /* \"#utility.yul\":5171:5173   */\n      0x20\n        /* \"#utility.yul\":5160:5169   */\n      dup4\n        /* \"#utility.yul\":5156:5174   */\n      add\n        /* \"#utility.yul\":5143:5175   */\n      calldataload\n        /* \"#utility.yul\":5184:5215   */\n      tag_563\n        /* \"#utility.yul\":5209:5214   */\n      dup2\n        /* \"#utility.yul\":5184:5215   */\n      tag_515\n      jump\t// in\n    tag_563:\n        /* \"#utility.yul\":5234:5239   */\n      dup1\n        /* \"#utility.yul\":5224:5239   */\n      swap2\n      pop\n      pop\n        /* \"#utility.yul\":4930:5245   */\n      swap3\n      pop\n      swap3\n      swap1\n      pop\n      jump\t// out\n        /* \"#utility.yul\":5250:5524   */\n    tag_454:\n        /* \"#utility.yul\":5379:5382   */\n      0x00\n        /* \"#utility.yul\":5417:5423   */\n      dup3\n        /* \"#utility.yul\":5411:5424   */\n      mload\n        /* \"#utility.yul\":5433:5486   */\n      tag_565\n        /* \"#utility.yul\":5479:5485   */\n      dup2\n        /* \"#utility.yul\":5474:5477   */\n      dup5\n        /* \"#utility.yul\":5467:5471   */\n      0x20\n        /* \"#utility.yul\":5459:5465   */\n      dup8\n        /* \"#utility.yul\":5455:5472   */\n      add\n        /* \"#utility.yul\":5433:5486   */\n      tag_566\n      jump\t// in\n    tag_565:\n        /* \"#utility.yul\":5502:5518   */\n      swap2\n      swap1\n      swap2\n      add\n      swap3\n        /* \"#utility.yul\":5250:5524   */\n      swap2\n      pop\n      pop\n      jump\t// out\n        /* \"#utility.yul\":9103:9459   */\n    tag_228:\n        /* \"#utility.yul\":9305:9307   */\n      0x20\n        /* \"#utility.yul\":9287:9308   */\n      dup1\n      dup3\n      mstore\n        /* \"#utility.yul\":9324:9342   */\n      dup2\n      dup2\n      add\n        /* \"#utility.yul\":9317:9347   */\n      mstore\n        /* \"#utility.yul\":9383:9417   */\n      0x4f776e61626c653a2063616c6c6572206973206e6f7420746865206f776e6572\n        /* \"#utility.yul\":9378:9380   */\n      0x40\n        /* \"#utility.yul\":9363:9381   */\n      dup3\n      add\n        /* \"#utility.yul\":9356:9418   */\n      mstore\n        /* \"#utility.yul\":9450:9452   */\n      0x60\n        /* \"#utility.yul\":9435:9453   */\n      add\n      swap1\n        /* \"#utility.yul\":9103:9459   */\n      jump\t// out\n        /* \"#utility.yul\":10375:10717   */\n    tag_215:\n        /* \"#utility.yul\":10577:10579   */\n      0x20\n        /* \"#utility.yul\":10559:10580   */\n      dup1\n      dup3\n      mstore\n        /* \"#utility.yul\":10616:10618   */\n      0x12\n        /* \"#utility.yul\":10596:10614   */\n      swap1\n      dup3\n      add\n        /* \"#utility.yul\":10589:10619   */\n      mstore\n      shl(0x72, 0x119d5b98dd1a5bdb881a5cc81b1bd8dad959)\n        /* \"#utility.yul\":10650:10652   */\n      0x40\n        /* \"#utility.yul\":10635:10653   */\n      dup3\n      add\n        /* \"#utility.yul\":10628:10676   */\n      mstore\n        /* \"#utility.yul\":10708:10710   */\n      0x60\n        /* \"#utility.yul\":10693:10711   */\n      add\n      swap1\n        /* \"#utility.yul\":10375:10717   */\n      jump\t// out\n        /* \"#utility.yul\":10722:11139   */\n    tag_202:\n        /* \"#utility.yul\":10924:10926   */\n      0x20\n        /* \"#utility.yul\":10906:10927   */\n      dup1\n      dup3\n      mstore\n        /* \"#utility.yul\":10963:10965   */\n      0x35\n        /* \"#utility.yul\":10943:10961   */\n      swap1\n      dup3\n      add\n        /* \"#utility.yul\":10936:10966   */\n      mstore\n        /* \"#utility.yul\":11002:11036   */\n      0x6f70657261746f723a2063616c6c6572206973206e6f7420616c6c6f77656420\n        /* \"#utility.yul\":10997:10999   */\n      0x40\n        /* \"#utility.yul\":10982:11000   */\n      dup3\n      add\n        /* \"#utility.yul\":10975:11037   */\n      mstore\n      shl(0x59, 0x3a379031b0b636103a3434b990333ab731ba34b7b7)\n        /* \"#utility.yul\":11068:11070   */\n      0x60\n        /* \"#utility.yul\":11053:11071   */\n      dup3\n      add\n        /* \"#utility.yul\":11046:11097   */\n      mstore\n        /* \"#utility.yul\":11129:11132   */\n      0x80\n        /* \"#utility.yul\":11114:11133   */\n      add\n      swap1\n        /* \"#utility.yul\":10722:11139   */\n      jump\t// out\n        /* \"#utility.yul\":13627:14607   */\n    tag_492:\n        /* \"#utility.yul\":13889:13893   */\n      0x00\n        /* \"#utility.yul\":13937:13940   */\n      0xa0\n        /* \"#utility.yul\":13926:13935   */\n      dup3\n        /* \"#utility.yul\":13922:13941   */\n      add\n        /* \"#utility.yul\":13968:13974   */\n      dup8\n        /* \"#utility.yul\":13957:13966   */\n      dup4\n        /* \"#utility.yul\":13950:13975   */\n      mstore\n        /* \"#utility.yul\":13994:13996   */\n      0x20\n        /* \"#utility.yul\":14032:14038   */\n      dup8\n        /* \"#utility.yul\":14027:14029   */\n      dup2\n        /* \"#utility.yul\":14016:14025   */\n      dup6\n        /* \"#utility.yul\":14012:14030   */\n      add\n        /* \"#utility.yul\":14005:14039   */\n      mstore\n        /* \"#utility.yul\":14075:14078   */\n      0xa0\n        /* \"#utility.yul\":14070:14072   */\n      0x40\n        /* \"#utility.yul\":14059:14068   */\n      dup6\n        /* \"#utility.yul\":14055:14073   */\n      add\n        /* \"#utility.yul\":14048:14079   */\n      mstore\n        /* \"#utility.yul\":14099:14105   */\n      dup2\n        /* \"#utility.yul\":14134:14140   */\n      dup8\n        /* \"#utility.yul\":14128:14141   */\n      mload\n        /* \"#utility.yul\":14165:14171   */\n      dup1\n        /* \"#utility.yul\":14157:14163   */\n      dup5\n        /* \"#utility.yul\":14150:14172   */\n      mstore\n        /* \"#utility.yul\":14203:14206   */\n      0xc0\n        /* \"#utility.yul\":14192:14201   */\n      dup7\n        /* \"#utility.yul\":14188:14207   */\n      add\n        /* \"#utility.yul\":14181:14207   */\n      swap2\n      pop\n        /* \"#utility.yul\":14242:14244   */\n      dup3\n        /* \"#utility.yul\":14234:14240   */\n      dup10\n        /* \"#utility.yul\":14230:14245   */\n      add\n        /* \"#utility.yul\":14216:14245   */\n      swap4\n      pop\n        /* \"#utility.yul\":14263:14264   */\n      0x00\n        /* \"#utility.yul\":14273:14468   */\n    tag_591:\n        /* \"#utility.yul\":14287:14293   */\n      dup2\n        /* \"#utility.yul\":14284:14285   */\n      dup2\n        /* \"#utility.yul\":14281:14294   */\n      lt\n        /* \"#utility.yul\":14273:14468   */\n      iszero\n      tag_593\n      jumpi\n        /* \"#utility.yul\":14352:14365   */\n      dup5\n      mload\n      sub(shl(0xa0, 0x01), 0x01)\n        /* \"#utility.yul\":14348:14387   */\n      and\n        /* \"#utility.yul\":14336:14388   */\n      dup4\n      mstore\n        /* \"#utility.yul\":14443:14458   */\n      swap4\n      dup4\n      add\n      swap4\n        /* \"#utility.yul\":14408:14420   */\n      swap2\n      dup4\n      add\n      swap2\n        /* \"#utility.yul\":14384:14385   */\n      0x01\n        /* \"#utility.yul\":14302:14311   */\n      add\n        /* \"#utility.yul\":14273:14468   */\n      jump(tag_591)\n    tag_593:\n      pop\n      pop\n      sub(shl(0xa0, 0x01), 0x01)\n        /* \"#utility.yul\":14524:14556   */\n      swap7\n      swap1\n      swap7\n      and\n        /* \"#utility.yul\":14519:14521   */\n      0x60\n        /* \"#utility.yul\":14504:14522   */\n      dup6\n      add\n        /* \"#utility.yul\":14497:14557   */\n      mstore\n      pop\n      pop\n      pop\n        /* \"#utility.yul\":14588:14591   */\n      0x80\n        /* \"#utility.yul\":14573:14592   */\n      add\n        /* \"#utility.yul\":14566:14601   */\n      mstore\n        /* \"#utility.yul\":14485:14488   */\n      swap4\n        /* \"#utility.yul\":13627:14607   */\n      swap3\n      pop\n      pop\n      pop\n      jump\t// out\n        /* \"#utility.yul\":14612:14887   */\n    tag_509:\n        /* \"#utility.yul\":14683:14685   */\n      0x40\n        /* \"#utility.yul\":14677:14686   */\n      mload\n        /* \"#utility.yul\":14748:14750   */\n      0x1f\n        /* \"#utility.yul\":14729:14742   */\n      dup3\n      add\n      not(0x1f)\n        /* \"#utility.yul\":14725:14752   */\n      and\n        /* \"#utility.yul\":14713:14753   */\n      dup2\n      add\n        /* \"#utility.yul\":14783:14801   */\n      0xffffffffffffffff\n        /* \"#utility.yul\":14768:14802   */\n      dup2\n      gt\n        /* \"#utility.yul\":14804:14826   */\n      dup3\n      dup3\n      lt\n        /* \"#utility.yul\":14765:14827   */\n      or\n        /* \"#utility.yul\":14762:14850   */\n      iszero\n      tag_596\n      jumpi\n        /* \"#utility.yul\":14830:14848   */\n      tag_596\n      tag_468\n      jump\t// in\n    tag_596:\n        /* \"#utility.yul\":14866:14868   */\n      0x40\n        /* \"#utility.yul\":14859:14881   */\n      mstore\n        /* \"#utility.yul\":14612:14887   */\n      swap2\n      swap1\n      pop\n      jump\t// out\n        /* \"#utility.yul\":14892:15075   */\n    tag_508:\n        /* \"#utility.yul\":14952:14956   */\n      0x00\n        /* \"#utility.yul\":14985:15003   */\n      0xffffffffffffffff\n        /* \"#utility.yul\":14977:14983   */\n      dup3\n        /* \"#utility.yul\":14974:15004   */\n      gt\n        /* \"#utility.yul\":14971:15027   */\n      iszero\n      tag_599\n      jumpi\n        /* \"#utility.yul\":15007:15025   */\n      tag_599\n      tag_468\n      jump\t// in\n    tag_599:\n      pop\n        /* \"#utility.yul\":15052:15053   */\n      0x05\n        /* \"#utility.yul\":15048:15062   */\n      shl\n        /* \"#utility.yul\":15064:15068   */\n      0x20\n        /* \"#utility.yul\":15044:15069   */\n      add\n      swap1\n        /* \"#utility.yul\":14892:15075   */\n      jump\t// out\n        /* \"#utility.yul\":15080:15208   */\n    tag_212:\n        /* \"#utility.yul\":15120:15123   */\n      0x00\n        /* \"#utility.yul\":15151:15152   */\n      dup3\n        /* \"#utility.yul\":15147:15153   */\n      not\n        /* \"#utility.yul\":15144:15145   */\n      dup3\n        /* \"#utility.yul\":15141:15154   */\n      gt\n        /* \"#utility.yul\":15138:15177   */\n      iszero\n      tag_602\n      jumpi\n        /* \"#utility.yul\":15157:15175   */\n      tag_602\n      tag_603\n      jump\t// in\n    tag_602:\n      pop\n        /* \"#utility.yul\":15193:15202   */\n      add\n      swap1\n        /* \"#utility.yul\":15080:15208   */\n      jump\t// out\n        /* \"#utility.yul\":15213:15430   */\n    tag_501:\n        /* \"#utility.yul\":15253:15254   */\n      0x00\n        /* \"#utility.yul\":15279:15280   */\n      dup3\n        /* \"#utility.yul\":15269:15401   */\n      tag_605\n      jumpi\n        /* \"#utility.yul\":15323:15333   */\n      0x4e487b71\n        /* \"#utility.yul\":15318:15321   */\n      0xe0\n        /* \"#utility.yul\":15314:15334   */\n      shl\n        /* \"#utility.yul\":15311:15312   */\n      0x00\n        /* \"#utility.yul\":15304:15335   */\n      mstore\n        /* \"#utility.yul\":15358:15362   */\n      0x12\n        /* \"#utility.yul\":15355:15356   */\n      0x04\n        /* \"#utility.yul\":15348:15363   */\n      mstore\n        /* \"#utility.yul\":15386:15390   */\n      0x24\n        /* \"#utility.yul\":15383:15384   */\n      0x00\n        /* \"#utility.yul\":15376:15391   */\n      revert\n        /* \"#utility.yul\":15269:15401   */\n    tag_605:\n      pop\n        /* \"#utility.yul\":15415:15424   */\n      div\n      swap1\n        /* \"#utility.yul\":15213:15430   */\n      jump\t// out\n        /* \"#utility.yul\":15435:15560   */\n    tag_498:\n        /* \"#utility.yul\":15475:15479   */\n      0x00\n        /* \"#utility.yul\":15503:15504   */\n      dup3\n        /* \"#utility.yul\":15500:15501   */\n      dup3\n        /* \"#utility.yul\":15497:15505   */\n      lt\n        /* \"#utility.yul\":15494:15528   */\n      iszero\n      tag_608\n      jumpi\n        /* \"#utility.yul\":15508:15526   */\n      tag_608\n      tag_603\n      jump\t// in\n    tag_608:\n      pop\n        /* \"#utility.yul\":15545:15554   */\n      sub\n      swap1\n        /* \"#utility.yul\":15435:15560   */\n      jump\t// out\n        /* \"#utility.yul\":15565:15823   */\n    tag_566:\n        /* \"#utility.yul\":15637:15638   */\n      0x00\n        /* \"#utility.yul\":15647:15760   */\n    tag_610:\n        /* \"#utility.yul\":15661:15667   */\n      dup4\n        /* \"#utility.yul\":15658:15659   */\n      dup2\n        /* \"#utility.yul\":15655:15668   */\n      lt\n        /* \"#utility.yul\":15647:15760   */\n      iszero\n      tag_612\n      jumpi\n        /* \"#utility.yul\":15737:15748   */\n      dup2\n      dup2\n      add\n        /* \"#utility.yul\":15731:15749   */\n      mload\n        /* \"#utility.yul\":15718:15729   */\n      dup4\n      dup3\n      add\n        /* \"#utility.yul\":15711:15750   */\n      mstore\n        /* \"#utility.yul\":15683:15685   */\n      0x20\n        /* \"#utility.yul\":15676:15686   */\n      add\n        /* \"#utility.yul\":15647:15760   */\n      jump(tag_610)\n    tag_612:\n        /* \"#utility.yul\":15778:15784   */\n      dup4\n        /* \"#utility.yul\":15775:15776   */\n      dup2\n        /* \"#utility.yul\":15772:15785   */\n      gt\n        /* \"#utility.yul\":15769:15817   */\n      iszero\n      tag_613\n      jumpi\n        /* \"#utility.yul\":15813:15814   */\n      0x00\n        /* \"#utility.yul\":15804:15810   */\n      dup5\n        /* \"#utility.yul\":15799:15802   */\n      dup5\n        /* \"#utility.yul\":15795:15811   */\n      add\n        /* \"#utility.yul\":15788:15815   */\n      mstore\n        /* \"#utility.yul\":15769:15817   */\n    tag_613:\n      pop\n        /* \"#utility.yul\":15565:15823   */\n      pop\n      pop\n      pop\n      jump\t// out\n        /* \"#utility.yul\":15828:15963   */\n    tag_274:\n        /* \"#utility.yul\":15867:15870   */\n      0x00\n      not(0x00)\n        /* \"#utility.yul\":15888:15905   */\n      dup3\n      eq\n        /* \"#utility.yul\":15885:15928   */\n      iszero\n      tag_616\n      jumpi\n        /* \"#utility.yul\":15908:15926   */\n      tag_616\n      tag_603\n      jump\t// in\n    tag_616:\n      pop\n        /* \"#utility.yul\":15955:15956   */\n      0x01\n        /* \"#utility.yul\":15944:15957   */\n      add\n      swap1\n        /* \"#utility.yul\":15828:15963   */\n      jump\t// out\n        /* \"#utility.yul\":15968:16095   */\n    tag_603:\n        /* \"#utility.yul\":16029:16039   */\n      0x4e487b71\n        /* \"#utility.yul\":16024:16027   */\n      0xe0\n        /* \"#utility.yul\":16020:16040   */\n      shl\n        /* \"#utility.yul\":16017:16018   */\n      0x00\n        /* \"#utility.yul\":16010:16041   */\n      mstore\n        /* \"#utility.yul\":16060:16064   */\n      0x11\n        /* \"#utility.yul\":16057:16058   */\n      0x04\n        /* \"#utility.yul\":16050:16065   */\n      mstore\n        /* \"#utility.yul\":16084:16088   */\n      0x24\n        /* \"#utility.yul\":16081:16082   */\n      0x00\n        /* \"#utility.yul\":16074:16089   */\n      revert\n        /* \"#utility.yul\":16100:16227   */\n    tag_249:\n        /* \"#utility.yul\":16161:16171   */\n      0x4e487b71\n        /* \"#utility.yul\":16156:16159   */\n      0xe0\n        /* \"#utility.yul\":16152:16172   */\n      shl\n        /* \"#utility.yul\":16149:16150   */\n      0x00\n        /* \"#utility.yul\":16142:16173   */\n      mstore\n        /* \"#utility.yul\":16192:16196   */\n      0x32\n        /* \"#utility.yul\":16189:16190   */\n      0x04\n        /* \"#utility.yul\":16182:16197   */\n      mstore\n        /* \"#utility.yul\":16216:16220   */\n      0x24\n        /* \"#utility.yul\":16213:16214   */\n      0x00\n        /* \"#utility.yul\":16206:16221   */\n      revert\n        /* \"#utility.yul\":16232:16359   */\n    tag_468:\n        /* \"#utility.yul\":16293:16303   */\n      0x4e487b71\n        /* \"#utility.yul\":16288:16291   */\n      0xe0\n        /* \"#utility.yul\":16284:16304   */\n      shl\n        /* \"#utility.yul\":16281:16282   */\n      0x00\n        /* \"#utility.yul\":16274:16305   */\n      mstore\n        /* \"#utility.yul\":16324:16328   */\n      0x41\n        /* \"#utility.yul\":16321:16322   */\n      0x04\n        /* \"#utility.yul\":16314:16329   */\n      mstore\n        /* \"#utility.yul\":16348:16352   */\n      0x24\n        /* \"#utility.yul\":16345:16346   */\n      0x00\n        /* \"#utility.yul\":16338:16353   */\n      revert\n        /* \"#utility.yul\":16364:16495   */\n    tag_515:\n      sub(shl(0xa0, 0x01), 0x01)\n        /* \"#utility.yul\":16439:16470   */\n      dup2\n      and\n        /* \"#utility.yul\":16429:16471   */\n      dup2\n      eq\n        /* \"#utility.yul\":16419:16489   */\n      tag_422\n      jumpi\n        /* \"#utility.yul\":16485:16486   */\n      0x00\n        /* \"#utility.yul\":16482:16483   */\n      dup1\n        /* \"#utility.yul\":16475:16487   */\n      revert\n\n    auxdata: 0xa26469706673582212203c8050ddd59373be64f0d36b5150a24a4252d1381bca0232248c7a8d1342d15b64736f6c63430008070033\n}\n",
				"bytecode": {
					"linkReferences": {},
					"object": "60806040526000805460ff60a01b19169055660775f05a074000600555600680546001600160a01b03199081167376049b7caab30b8bbbdcff3a1059d9147dbf7b191790915560078054821673c559acc356d3037ec6dbc33a20587051188b86341790556a084595161401484a000000600955600a8054821673af984e23eaa3e7967f3c5e007fbe397d8566d23d179055600b805490911673bafcdabe65a03825a131298be7670c0aec77b37f179055348015620000bc57600080fd5b506040516200291538038062002915833981016040819052620000df91620004d2565b620000ea336200012b565b600280546001600160a01b03199081163317909155600880546001600160a01b03848116919093161790556006546200012491166200017b565b5062000569565b600080546001600160a01b038381166001600160a01b0319831681178455604051919092169283917f8be0079c531659141344cd1fd0a4f28419497f9722a3daafe3b4186f6b6457e09190a35050565b6000546001600160a01b03163314620001ca5760405162461bcd60e51b81526020600482018190526024820152600080516020620028f583398151915260448201526064015b60405180910390fd5b60408051808201909152601281527118da185b99d953dc9858db1955d85b1b195d60721b6020820152600054600160a01b900460ff1615806200029757506001816040516200021a919062000504565b9081526020016040518091039020546000141580156200025a57504260018260405162000248919062000504565b90815260200160405180910390205411155b8015620002975750426201518060018360405162000279919062000504565b90815260200160405180910390205462000294919062000542565b10155b620002da5760405162461bcd60e51b8152602060048201526012602482015271119d5b98dd1a5bdb881a5cc81b1bd8dad95960721b6044820152606401620001c1565b620002e58262000343565b600680546001600160a01b038481166001600160a01b0319831681179093556040519116919082907f3920ecd0f25e4e6ce57aaec91e57df499cb7e3e70d6c9604f866ae9265382cf390600090a3506200033f8162000403565b5050565b6000546001600160a01b031633146200038e5760405162461bcd60e51b81526020600482018190526024820152600080516020620028f58339815191526044820152606401620001c1565b6001600160a01b038116620003f55760405162461bcd60e51b815260206004820152602660248201527f4f776e61626c653a206e6577206f776e657220697320746865207a65726f206160448201526564647265737360d01b6064820152608401620001c1565b62000400816200012b565b50565b33620004176000546001600160a01b031690565b6001600160a01b031614806200043757506002546001600160a01b031633145b620004ab5760405162461bcd60e51b815260206004820152603560248201527f6f70657261746f723a2063616c6c6572206973206e6f7420616c6c6f7765642060448201527f746f2063616c6c20746869732066756e6374696f6e00000000000000000000006064820152608401620001c1565b6000600182604051620004bf919062000504565b9081526040519081900360200190205550565b600060208284031215620004e557600080fd5b81516001600160a01b0381168114620004fd57600080fd5b9392505050565b6000825160005b818110156200052757602081860181015185830152016200050b565b8181111562000537576000828501525b509190910192915050565b600082198211156200056457634e487b7160e01b600052601160045260246000fd5b500190565b61237c80620005796000396000f3fe6080604052600436106101f25760003560e01c80639850d32b1161010d578063c0d78655116100a0578063f2fde38b1161006f578063f2fde38b1461056e578063f4762fd61461058e578063f7e77bc2146105a3578063f8cf31cb146105d0578063f98080c0146105f057600080fd5b8063c0d78655146104ee578063d6e0ece21461050e578063de996a6e1461052e578063edae876f1461054e57600080fd5b8063a347511a116100dc578063a347511a1461046d578063a607494a1461048e578063b59c6e0e146104ae578063bf3506c1146104ce57600080fd5b80639850d32b146103ef5780639f5311561461040d578063a17645951461042d578063a221a15f1461044d57600080fd5b806363cd79b7116101855780637ef189f8116101545780637ef189f81461037b578063864e49a71461039157806387df241f146103b15780638da5cb5b146103d157600080fd5b806363cd79b7146102f357806370ed0ada14610313578063715018a6146103265780637d6dfb7e1461033b57600080fd5b8063478a55eb116101c1578063478a55eb146102955780634a938f00146102b55780634e71d92d146102d55780635dd53826146102dd57600080fd5b806311a63e17146101fe57806312065fe01461023b57806313ea5d291461025e5780632788a9e41461028057600080fd5b366101f957005b600080fd5b34801561020a57600080fd5b5060075461021e906001600160a01b031681565b6040516001600160a01b0390911681526020015b60405180910390f35b34801561024757600080fd5b50610250610628565b604051908152602001610232565b34801561026a57600080fd5b5061027e610279366004611eb4565b6106a9565b005b34801561028c57600080fd5b5061027e6108e3565b3480156102a157600080fd5b5061027e6102b0366004611ed1565b610974565b3480156102c157600080fd5b5061027e6102d0366004611f35565b610c20565b61027e610c5d565b3480156102e957600080fd5b5061025060095481565b3480156102ff57600080fd5b5061027e61030e366004611eb4565b610dbd565b34801561031f57600080fd5b5047610250565b34801561033257600080fd5b5061027e610f26565b34801561034757600080fd5b5061036b610356366004611eb4565b60036020526000908152604090205460ff1681565b6040519015158152602001610232565b34801561038757600080fd5b5061025060055481565b34801561039d57600080fd5b5061036b6103ac366004611eb4565b610f5c565b3480156103bd57600080fd5b5061027e6103cc366004612059565b610f8c565b3480156103dd57600080fd5b506000546001600160a01b031661021e565b3480156103fb57600080fd5b506002546001600160a01b031661021e565b34801561041957600080fd5b5061027e610428366004611fc4565b6110c8565b34801561043957600080fd5b50600a5461021e906001600160a01b031681565b34801561045957600080fd5b5060065461021e906001600160a01b031681565b34801561047957600080fd5b5060005461036b90600160a01b900460ff1681565b34801561049a57600080fd5b5061027e6104a9366004611fc4565b61113b565b3480156104ba57600080fd5b5060085461021e906001600160a01b031681565b3480156104da57600080fd5b5061036b6104e9366004611eb4565b611218565b3480156104fa57600080fd5b5061027e610509366004611eb4565b61124a565b34801561051a57600080fd5b5061027e61052936600461208b565b611296565b34801561053a57600080fd5b5061027e610549366004612059565b611589565b34801561055a57600080fd5b50600b5461021e906001600160a01b031681565b34801561057a57600080fd5b5061027e610589366004611eb4565b6116d9565b34801561059a57600080fd5b5061027e611774565b3480156105af57600080fd5b506102506105be366004611eb4565b60046020526000908152604090205481565b3480156105dc57600080fd5b5061027e6105eb366004611eb4565b6117fe565b3480156105fc57600080fd5b5061025061060b366004611fc4565b805160208183018101805160018252928201919093012091525481565b6008546040516370a0823160e01b81523060048201526000916001600160a01b0316906370a082319060240160206040518083038186803b15801561066c57600080fd5b505afa158015610680573d6000803e3d6000fd5b505050506040513d601f19601f820116820180604052508101906106a49190612072565b905090565b336106bc6000546001600160a01b031690565b6001600160a01b031614806106db57506002546001600160a01b031633145b6107005760405162461bcd60e51b81526004016106f790612138565b60405180910390fd5b60408051808201909152600a81526936b0b4b73a30b4b732b960b11b6020820152600054600160a01b900460ff1615806107ba575060018160405161074591906120bb565b90815260200160405180910390205460001415801561078257504260018260405161077091906120bb565b90815260200160405180910390205411155b80156107ba5750426201518060018360405161079e91906120bb565b9081526020016040518091039020546107b79190612253565b10155b6107d65760405162461bcd60e51b81526004016106f79061210c565b6002546001600160a01b038381169116148015906107fc57506001600160a01b03821615155b6108875760405162461bcd60e51b815260206004820152605060248201527f41424f41543a3a7365744d61696e7461696e65723a204d61696e7461696e657260448201527f2063616e277420657175616c2070726576696f7573206d61696e7461696e657260648201526f206f72207a65726f206164647265737360801b608482015260a4016106f7565b600280546001600160a01b038481166001600160a01b0319831681179093556040519116919082907f2f3ffaaaad93928855c8700645d1a3643e6ccfdd500efa9fda048a88f557cf0190600090a3506108df816110c8565b5050565b6000546001600160a01b0316331461090d5760405162461bcd60e51b81526004016106f7906120d7565b60085461093c906001600160a01b031661092f6000546001600160a01b031690565b610937610628565b6119e7565b600080546040516001600160a01b03909116917f5e7b34819cd91b239220bec92fcfd3c10da2214ba13e4e2b1f6c9cfdbd68a9a291a2565b6000546001600160a01b0316331461099e5760405162461bcd60e51b81526004016106f7906120d7565b8051825114610a2c5760405162461bcd60e51b815260206004820152604e60248201527f41424f41543a3a73656e64526577617264733a20616d6f756e747320616e642060448201527f616464726573736573206d7573742068617665207468652073616d6520616d6f60648201526d756e74206f6620656e747269657360901b608482015260a4016106f7565b60005b8151811015610c1b5760036000838381518110610a4e57610a4e612305565b6020908102919091018101516001600160a01b031682528101919091526040016000205460ff168015610aa15750828181518110610a8e57610a8e612305565b6020026020010151610a9e610628565b10155b8015610aca5750610aca828281518110610abd57610abd612305565b6020026020010151611218565b8015610af15750600954838281518110610ae657610ae6612305565b602002602001015111155b15610c0957600060036000848481518110610b0e57610b0e612305565b60200260200101516001600160a01b03166001600160a01b0316815260200190815260200160002060006101000a81548160ff021916908315150217905550610b9f600860009054906101000a90046001600160a01b0316838381518110610b7857610b78612305565b6020026020010151858481518110610b9257610b92612305565b60200260200101516119e7565b828181518110610bb157610bb1612305565b6020026020010151828281518110610bcb57610bcb612305565b60200260200101516001600160a01b03167fd9d5e983e9e8a6571ffbeafa6a3c2fbd9f0f44e52607977b5e1e7934f7d91bfc60405160405180910390a35b80610c13816122d4565b915050610a2f565b505050565b6000546001600160a01b03163314610c4a5760405162461bcd60e51b81526004016106f7906120d7565b610c5381610f8c565b610c1b8383610974565b3360009081526003602052604090205460ff1615610cd55760405162461bcd60e51b815260206004820152602f60248201527f41424f41543a3a636c61696d3a20416c726561647920616c6c6f77656420746f60448201526e207265636965766520746f6b656e7360881b60648201526084016106f7565b600554341015610d655760405162461bcd60e51b815260206004820152604f60248201527f41424f41543a3a636c61696d3a20416d6f756e74206f6620626e6220746f206360448201527f6c61696d2073686f756c642063617272792074686520636f737420746f20616460648201526e642074686520636c61696d61626c6560881b608482015260a4016106f7565b600654610d7b906001600160a01b031634611b18565b33600081815260036020526040808220805460ff19166001179055517f98716c616972f4ef0085deb59c20f6f6a840219c121ad1f3b5413097f3a103579190a2565b6000546001600160a01b03163314610de75760405162461bcd60e51b81526004016106f7906120d7565b60408051808201909152601281527118da185b99d953dc9858db1955d85b1b195d60721b6020820152600054600160a01b900460ff161580610ea95750600181604051610e3491906120bb565b908152602001604051809103902054600014158015610e71575042600182604051610e5f91906120bb565b90815260200160405180910390205411155b8015610ea957504262015180600183604051610e8d91906120bb565b908152602001604051809103902054610ea69190612253565b10155b610ec55760405162461bcd60e51b81526004016106f79061210c565b610ece826116d9565b600680546001600160a01b038481166001600160a01b0319831681179093556040519116919082907f3920ecd0f25e4e6ce57aaec91e57df499cb7e3e70d6c9604f866ae9265382cf390600090a3506108df816110c8565b6000546001600160a01b03163314610f505760405162461bcd60e51b81526004016106f7906120d7565b610f5a6000611bf2565b565b6001600160a01b0381166000908152600460205260408120544290610f849062015180612253565b111592915050565b6000546001600160a01b03163314610fb65760405162461bcd60e51b81526004016106f7906120d7565b60408051808201909152600d81526c18591a9d5cdd11d85cd0dbdcdd609a1b6020820152600054600160a01b900460ff1615806110735750600181604051610ffe91906120bb565b90815260200160405180910390205460001415801561103b57504260018260405161102991906120bb565b90815260200160405180910390205411155b80156110735750426201518060018360405161105791906120bb565b9081526020016040518091039020546110709190612253565b10155b61108f5760405162461bcd60e51b81526004016106f79061210c565b6005546040518391907fc3dc19678fd7390a5c1197decfaec52d8a1c63c49f0a51db570f5fe5040c5f7390600090a360058290556108df815b336110db6000546001600160a01b031690565b6001600160a01b031614806110fa57506002546001600160a01b031633145b6111165760405162461bcd60e51b81526004016106f790612138565b600060018260405161112891906120bb565b9081526040519081900360200190205550565b3361114e6000546001600160a01b031690565b6001600160a01b0316148061116d57506002546001600160a01b031633145b6111895760405162461bcd60e51b81526004016106f790612138565b6111966201518042612253565b6001826040516111a691906120bb565b9081526020016040518091039020819055506001816040516111c891906120bb565b908152602001604051809103902054816040516111e591906120bb565b604051908190038120907ff77f9a799fe8b0be1463abd7459a18fc55dfd8a6a24ddd29b54fd098088089c890600090a350565b6001600160a01b03811660009081526003602052604081205460ff168015611244575061124482610f5c565b92915050565b6000546001600160a01b031633146112745760405162461bcd60e51b81526004016106f7906120d7565b600b80546001600160a01b0319166001600160a01b0392909216919091179055565b6000546001600160a01b031633146112c05760405162461bcd60e51b81526004016106f7906120d7565b600b546001600160a01b03166113515760405162461bcd60e51b815260206004820152604a60248201527f41424f41543a3a73656e645265776172647341734574683a205468657265206960448201527f73206e6f20726f7574657220646566696e656420746f207377617020746f6b656064820152690dce640ccdee440cae8d60b31b608482015260a4016106f7565b611359610628565b8211156113de5760405162461bcd60e51b815260206004820152604760248201527f41424f41543a3a73656e645265776172647341734574683a2043616e2774207360448201527f656e64206d6f72652072657761726473207468616e20696e207265776172642060648201526673797374656d2160c81b608482015260a4016106f7565b6009548211156114565760405162461bcd60e51b815260206004820152603c60248201527f41424f41543a3a73656e645265776172647341734574683a2043616e2774207360448201527f656e64206d6f72652072657761726473207468616e206c696d6974210000000060648201526084016106f7565b61145f81610f5c565b6114d15760405162461bcd60e51b815260206004820152603b60248201527f41424f41543a3a73656e645265776172647341734574683a2043616e2774206360448201527f6c61696d206d6f7265207468616e206f6e63652070657220646179000000000060648201526084016106f7565b6114da82611c42565b60006114f160055447611dba90919063ffffffff16565b60065460055491925061150f916001600160a01b0390911690611b18565b600061151c82600a611dcd565b90506115288282611dba565b600754909250611541906001600160a01b031682611b18565b61154b8383611b18565b8082846001600160a01b03167f75b2eac24930bf6a8227dbe172d34480e56be5c6994435067628424190d5343160405160405180910390a450505050565b6000546001600160a01b031633146115b35760405162461bcd60e51b81526004016106f7906120d7565b60408051808201909152601981527f61646a7573744d6178416d6f756e7450657252656365697665000000000000006020820152600054600160a01b900460ff161580611680575060018160405161160b91906120bb565b90815260200160405180910390205460001415801561164857504260018260405161163691906120bb565b90815260200160405180910390205411155b80156116805750426201518060018360405161166491906120bb565b90815260200160405180910390205461167d9190612253565b10155b61169c5760405162461bcd60e51b81526004016106f79061210c565b6009546040518391907fd07363c93ca88ca1140b355020cb77b0320b19e19a34bb15aa4566d27c2fabbd90600090a360098290556108df816110c8565b6000546001600160a01b031633146117035760405162461bcd60e51b81526004016106f7906120d7565b6001600160a01b0381166117685760405162461bcd60e51b815260206004820152602660248201527f4f776e61626c653a206e6577206f776e657220697320746865207a65726f206160448201526564647265737360d01b60648201526084016106f7565b61177181611bf2565b50565b336117876000546001600160a01b031690565b6001600160a01b031614806117a657506002546001600160a01b031633145b6117c25760405162461bcd60e51b81526004016106f790612138565b6000805460ff60a01b1916600160a01b1781556040517f2c08b62bfac9a1b19bb1dec9323f1ce01696a77948b256abf3603d30f25a864e9190a1565b6000546001600160a01b031633146118285760405162461bcd60e51b81526004016106f7906120d7565b6040805180820190915260118152703ab83230ba32a932bbb0b9322a37b5b2b760791b6020820152600054600160a01b900460ff1615806118e9575060018160405161187491906120bb565b9081526020016040518091039020546000141580156118b157504260018260405161189f91906120bb565b90815260200160405180910390205411155b80156118e9575042620151806001836040516118cd91906120bb565b9081526020016040518091039020546118e69190612253565b10155b6119055760405162461bcd60e51b81526004016106f79061210c565b6008546001600160a01b03838116911614156119895760405162461bcd60e51b815260206004820152603f60248201527f41424f41543a757064617465526577617264546f6b656e3a20596f752063616e60448201527f277420757064617465207468652065786163742073616d6520746f6b656e730060648201526084016106f7565b6008546040516001600160a01b038085169216907fcb89265f21b9fc8710e9d9e42bbb37af1eb207454deca6d5e36787be2367c1d690600090a3600880546001600160a01b0319166001600160a01b0384161790556108df816110c8565b604080516001600160a01b038481166024830152604480830185905283518084039091018152606490920183526020820180516001600160e01b031663a9059cbb60e01b1790529151600092839290871691611a4391906120bb565b6000604051808303816000865af19150503d8060008114611a80576040519150601f19603f3d011682016040523d82523d6000602084013e611a85565b606091505b5091509150818015611aaf575080511580611aaf575080806020019051810190611aaf9190611fa2565b611b115760405162461bcd60e51b815260206004820152602d60248201527f5472616e7366657248656c7065723a3a736166655472616e736665723a20747260448201526c185b9cd9995c8819985a5b1959609a1b60648201526084016106f7565b5050505050565b604080516000808252602082019092526001600160a01b038416908390604051611b4291906120bb565b60006040518083038185875af1925050503d8060008114611b7f576040519150601f19603f3d011682016040523d82523d6000602084013e611b84565b606091505b5050905080610c1b5760405162461bcd60e51b815260206004820152603460248201527f5472616e7366657248656c7065723a3a736166655472616e736665724554483a60448201527308115512081d1c985b9cd9995c8819985a5b195960621b60648201526084016106f7565b600080546001600160a01b038381166001600160a01b0319831681178455604051919092169283917f8be0079c531659141344cd1fd0a4f28419497f9722a3daafe3b4186f6b6457e09190a35050565b604080516002808252606082018352600092602083019080368337505060085482519293506001600160a01b031691839150600090611c8357611c83612305565b6001600160a01b039283166020918202929092010152600a54825191169082906001908110611cb457611cb4612305565b6001600160a01b039283166020918202929092010152600854600b5460405163095ea7b360e01b815290831660048201526024810185905291169063095ea7b390604401602060405180830381600087803b158015611d1257600080fd5b505af1158015611d26573d6000803e3d6000fd5b505050506040513d601f19601f82011682018060405250810190611d4a9190611fa2565b50600b5460405163b6a046b360e01b81526001600160a01b039091169063b6a046b390611d8490859060009086903090429060040161218d565b600060405180830381600087803b158015611d9e57600080fd5b505af1158015611db2573d6000803e3d6000fd5b505050505050565b6000611dc6828461228d565b9392505050565b6000611dc6828461226b565b600082601f830112611dea57600080fd5b81356020611dff611dfa8361222f565b6121fe565b80838252828201915082860187848660051b8901011115611e1f57600080fd5b60005b85811015611e47578135611e3581612331565b84529284019290840190600101611e22565b5090979650505050505050565b600082601f830112611e6557600080fd5b81356020611e75611dfa8361222f565b80838252828201915082860187848660051b8901011115611e9557600080fd5b60005b85811015611e4757813584529284019290840190600101611e98565b600060208284031215611ec657600080fd5b8135611dc681612331565b60008060408385031215611ee457600080fd5b823567ffffffffffffffff80821115611efc57600080fd5b611f0886838701611e54565b93506020850135915080821115611f1e57600080fd5b50611f2b85828601611dd9565b9150509250929050565b600080600060608486031215611f4a57600080fd5b833567ffffffffffffffff80821115611f6257600080fd5b611f6e87838801611e54565b94506020860135915080821115611f8457600080fd5b50611f9186828701611dd9565b925050604084013590509250925092565b600060208284031215611fb457600080fd5b81518015158114611dc657600080fd5b60006020808385031215611fd757600080fd5b823567ffffffffffffffff80821115611fef57600080fd5b818501915085601f83011261200357600080fd5b8135818111156120155761201561231b565b612027601f8201601f191685016121fe565b9150808252868482850101111561203d57600080fd5b8084840185840137600090820190930192909252509392505050565b60006020828403121561206b57600080fd5b5035919050565b60006020828403121561208457600080fd5b5051919050565b6000806040838503121561209e57600080fd5b8235915060208301356120b081612331565b809150509250929050565b600082516120cd8184602087016122a4565b9190910192915050565b6020808252818101527f4f776e61626c653a2063616c6c6572206973206e6f7420746865206f776e6572604082015260600190565b602080825260129082015271119d5b98dd1a5bdb881a5cc81b1bd8dad95960721b604082015260600190565b60208082526035908201527f6f70657261746f723a2063616c6c6572206973206e6f7420616c6c6f776564206040820152743a379031b0b636103a3434b990333ab731ba34b7b760591b606082015260800190565b600060a082018783526020878185015260a0604085015281875180845260c086019150828901935060005b818110156121dd5784516001600160a01b0316835293830193918301916001016121b8565b50506001600160a01b03969096166060850152505050608001529392505050565b604051601f8201601f1916810167ffffffffffffffff811182821017156122275761222761231b565b604052919050565b600067ffffffffffffffff8211156122495761224961231b565b5060051b60200190565b60008219821115612266576122666122ef565b500190565b60008261228857634e487b7160e01b600052601260045260246000fd5b500490565b60008282101561229f5761229f6122ef565b500390565b60005b838110156122bf5781810151838201526020016122a7565b838111156122ce576000848401525b50505050565b60006000198214156122e8576122e86122ef565b5060010190565b634e487b7160e01b600052601160045260246000fd5b634e487b7160e01b600052603260045260246000fd5b634e487b7160e01b600052604160045260246000fd5b6001600160a01b038116811461177157600080fdfea26469706673582212203c8050ddd59373be64f0d36b5150a24a4252d1381bca0232248c7a8d1342d15b64736f6c634300080700334f776e61626c653a2063616c6c6572206973206e6f7420746865206f776e6572",
					"opcodes": "PUSH1 0x80 PUSH1 0x40 MSTORE PUSH1 0x0 DUP1 SLOAD PUSH1 0xFF PUSH1 0xA0 SHL NOT AND SWAP1 SSTORE PUSH7 0x775F05A074000 PUSH1 0x5 SSTORE PUSH1 0x6 DUP1 SLOAD PUSH1 0x1 PUSH1 0x1 PUSH1 0xA0 SHL SUB NOT SWAP1 DUP2 AND PUSH20 0x76049B7CAAB30B8BBBDCFF3A1059D9147DBF7B19 OR SWAP1 SWAP2 SSTORE PUSH1 0x7 DUP1 SLOAD DUP3 AND PUSH20 0xC559ACC356D3037EC6DBC33A20587051188B8634 OR SWAP1 SSTORE PUSH11 0x84595161401484A000000 PUSH1 0x9 SSTORE PUSH1 0xA DUP1 SLOAD DUP3 AND PUSH20 0xAF984E23EAA3E7967F3C5E007FBE397D8566D23D OR SWAP1 SSTORE PUSH1 0xB DUP1 SLOAD SWAP1 SWAP2 AND PUSH20 0xBAFCDABE65A03825A131298BE7670C0AEC77B37F OR SWAP1 SSTORE CALLVALUE DUP1 ISZERO PUSH3 0xBC JUMPI PUSH1 0x0 DUP1 REVERT JUMPDEST POP PUSH1 0x40 MLOAD PUSH3 0x2915 CODESIZE SUB DUP1 PUSH3 0x2915 DUP4 CODECOPY DUP2 ADD PUSH1 0x40 DUP2 SWAP1 MSTORE PUSH3 0xDF SWAP2 PUSH3 0x4D2 JUMP JUMPDEST PUSH3 0xEA CALLER PUSH3 0x12B JUMP JUMPDEST PUSH1 0x2 DUP1 SLOAD PUSH1 0x1 PUSH1 0x1 PUSH1 0xA0 SHL SUB NOT SWAP1 DUP2 AND CALLER OR SWAP1 SWAP2 SSTORE PUSH1 0x8 DUP1 SLOAD PUSH1 0x1 PUSH1 0x1 PUSH1 0xA0 SHL SUB DUP5 DUP2 AND SWAP2 SWAP1 SWAP4 AND OR SWAP1 SSTORE PUSH1 0x6 SLOAD PUSH3 0x124 SWAP2 AND PUSH3 0x17B JUMP JUMPDEST POP PUSH3 0x569 JUMP JUMPDEST PUSH1 0x0 DUP1 SLOAD PUSH1 0x1 PUSH1 0x1 PUSH1 0xA0 SHL SUB DUP4 DUP2 AND PUSH1 0x1 PUSH1 0x1 PUSH1 0xA0 SHL SUB NOT DUP4 AND DUP2 OR DUP5 SSTORE PUSH1 0x40 MLOAD SWAP2 SWAP1 SWAP3 AND SWAP3 DUP4 SWAP2 PUSH32 0x8BE0079C531659141344CD1FD0A4F28419497F9722A3DAAFE3B4186F6B6457E0 SWAP2 SWAP1 LOG3 POP POP JUMP JUMPDEST PUSH1 0x0 SLOAD PUSH1 0x1 PUSH1 0x1 PUSH1 0xA0 SHL SUB AND CALLER EQ PUSH3 0x1CA JUMPI PUSH1 0x40 MLOAD PUSH3 0x461BCD PUSH1 0xE5 SHL DUP2 MSTORE PUSH1 0x20 PUSH1 0x4 DUP3 ADD DUP2 SWAP1 MSTORE PUSH1 0x24 DUP3 ADD MSTORE PUSH1 0x0 DUP1 MLOAD PUSH1 0x20 PUSH3 0x28F5 DUP4 CODECOPY DUP2 MLOAD SWAP2 MSTORE PUSH1 0x44 DUP3 ADD MSTORE PUSH1 0x64 ADD JUMPDEST PUSH1 0x40 MLOAD DUP1 SWAP2 SUB SWAP1 REVERT JUMPDEST PUSH1 0x40 DUP1 MLOAD DUP1 DUP3 ADD SWAP1 SWAP2 MSTORE PUSH1 0x12 DUP2 MSTORE PUSH18 0x18DA185B99D953DC9858DB1955D85B1B195D PUSH1 0x72 SHL PUSH1 0x20 DUP3 ADD MSTORE PUSH1 0x0 SLOAD PUSH1 0x1 PUSH1 0xA0 SHL SWAP1 DIV PUSH1 0xFF AND ISZERO DUP1 PUSH3 0x297 JUMPI POP PUSH1 0x1 DUP2 PUSH1 0x40 MLOAD PUSH3 0x21A SWAP2 SWAP1 PUSH3 0x504 JUMP JUMPDEST SWAP1 DUP2 MSTORE PUSH1 0x20 ADD PUSH1 0x40 MLOAD DUP1 SWAP2 SUB SWAP1 KECCAK256 SLOAD PUSH1 0x0 EQ ISZERO DUP1 ISZERO PUSH3 0x25A JUMPI POP TIMESTAMP PUSH1 0x1 DUP3 PUSH1 0x40 MLOAD PUSH3 0x248 SWAP2 SWAP1 PUSH3 0x504 JUMP JUMPDEST SWAP1 DUP2 MSTORE PUSH1 0x20 ADD PUSH1 0x40 MLOAD DUP1 SWAP2 SUB SWAP1 KECCAK256 SLOAD GT ISZERO JUMPDEST DUP1 ISZERO PUSH3 0x297 JUMPI POP TIMESTAMP PUSH3 0x15180 PUSH1 0x1 DUP4 PUSH1 0x40 MLOAD PUSH3 0x279 SWAP2 SWAP1 PUSH3 0x504 JUMP JUMPDEST SWAP1 DUP2 MSTORE PUSH1 0x20 ADD PUSH1 0x40 MLOAD DUP1 SWAP2 SUB SWAP1 KECCAK256 SLOAD PUSH3 0x294 SWAP2 SWAP1 PUSH3 0x542 JUMP JUMPDEST LT ISZERO JUMPDEST PUSH3 0x2DA JUMPI PUSH1 0x40 MLOAD PUSH3 0x461BCD PUSH1 0xE5 SHL DUP2 MSTORE PUSH1 0x20 PUSH1 0x4 DUP3 ADD MSTORE PUSH1 0x12 PUSH1 0x24 DUP3 ADD MSTORE PUSH18 0x119D5B98DD1A5BDB881A5CC81B1BD8DAD959 PUSH1 0x72 SHL PUSH1 0x44 DUP3 ADD MSTORE PUSH1 0x64 ADD PUSH3 0x1C1 JUMP JUMPDEST PUSH3 0x2E5 DUP3 PUSH3 0x343 JUMP JUMPDEST PUSH1 0x6 DUP1 SLOAD PUSH1 0x1 PUSH1 0x1 PUSH1 0xA0 SHL SUB DUP5 DUP2 AND PUSH1 0x1 PUSH1 0x1 PUSH1 0xA0 SHL SUB NOT DUP4 AND DUP2 OR SWAP1 SWAP4 SSTORE PUSH1 0x40 MLOAD SWAP2 AND SWAP2 SWAP1 DUP3 SWAP1 PUSH32 0x3920ECD0F25E4E6CE57AAEC91E57DF499CB7E3E70D6C9604F866AE9265382CF3 SWAP1 PUSH1 0x0 SWAP1 LOG3 POP PUSH3 0x33F DUP2 PUSH3 0x403 JUMP JUMPDEST POP POP JUMP JUMPDEST PUSH1 0x0 SLOAD PUSH1 0x1 PUSH1 0x1 PUSH1 0xA0 SHL SUB AND CALLER EQ PUSH3 0x38E JUMPI PUSH1 0x40 MLOAD PUSH3 0x461BCD PUSH1 0xE5 SHL DUP2 MSTORE PUSH1 0x20 PUSH1 0x4 DUP3 ADD DUP2 SWAP1 MSTORE PUSH1 0x24 DUP3 ADD MSTORE PUSH1 0x0 DUP1 MLOAD PUSH1 0x20 PUSH3 0x28F5 DUP4 CODECOPY DUP2 MLOAD SWAP2 MSTORE PUSH1 0x44 DUP3 ADD MSTORE PUSH1 0x64 ADD PUSH3 0x1C1 JUMP JUMPDEST PUSH1 0x1 PUSH1 0x1 PUSH1 0xA0 SHL SUB DUP2 AND PUSH3 0x3F5 JUMPI PUSH1 0x40 MLOAD PUSH3 0x461BCD PUSH1 0xE5 SHL DUP2 MSTORE PUSH1 0x20 PUSH1 0x4 DUP3 ADD MSTORE PUSH1 0x26 PUSH1 0x24 DUP3 ADD MSTORE PUSH32 0x4F776E61626C653A206E6577206F776E657220697320746865207A65726F2061 PUSH1 0x44 DUP3 ADD MSTORE PUSH6 0x646472657373 PUSH1 0xD0 SHL PUSH1 0x64 DUP3 ADD MSTORE PUSH1 0x84 ADD PUSH3 0x1C1 JUMP JUMPDEST PUSH3 0x400 DUP2 PUSH3 0x12B JUMP JUMPDEST POP JUMP JUMPDEST CALLER PUSH3 0x417 PUSH1 0x0 SLOAD PUSH1 0x1 PUSH1 0x1 PUSH1 0xA0 SHL SUB AND SWAP1 JUMP JUMPDEST PUSH1 0x1 PUSH1 0x1 PUSH1 0xA0 SHL SUB AND EQ DUP1 PUSH3 0x437 JUMPI POP PUSH1 0x2 SLOAD PUSH1 0x1 PUSH1 0x1 PUSH1 0xA0 SHL SUB AND CALLER EQ JUMPDEST PUSH3 0x4AB JUMPI PUSH1 0x40 MLOAD PUSH3 0x461BCD PUSH1 0xE5 SHL DUP2 MSTORE PUSH1 0x20 PUSH1 0x4 DUP3 ADD MSTORE PUSH1 0x35 PUSH1 0x24 DUP3 ADD MSTORE PUSH32 0x6F70657261746F723A2063616C6C6572206973206E6F7420616C6C6F77656420 PUSH1 0x44 DUP3 ADD MSTORE PUSH32 0x746F2063616C6C20746869732066756E6374696F6E0000000000000000000000 PUSH1 0x64 DUP3 ADD MSTORE PUSH1 0x84 ADD PUSH3 0x1C1 JUMP JUMPDEST PUSH1 0x0 PUSH1 0x1 DUP3 PUSH1 0x40 MLOAD PUSH3 0x4BF SWAP2 SWAP1 PUSH3 0x504 JUMP JUMPDEST SWAP1 DUP2 MSTORE PUSH1 0x40 MLOAD SWAP1 DUP2 SWAP1 SUB PUSH1 0x20 ADD SWAP1 KECCAK256 SSTORE POP JUMP JUMPDEST PUSH1 0x0 PUSH1 0x20 DUP3 DUP5 SUB SLT ISZERO PUSH3 0x4E5 JUMPI PUSH1 0x0 DUP1 REVERT JUMPDEST DUP2 MLOAD PUSH1 0x1 PUSH1 0x1 PUSH1 0xA0 SHL SUB DUP2 AND DUP2 EQ PUSH3 0x4FD JUMPI PUSH1 0x0 DUP1 REVERT JUMPDEST SWAP4 SWAP3 POP POP POP JUMP JUMPDEST PUSH1 0x0 DUP3 MLOAD PUSH1 0x0 JUMPDEST DUP2 DUP2 LT ISZERO PUSH3 0x527 JUMPI PUSH1 0x20 DUP2 DUP7 ADD DUP2 ADD MLOAD DUP6 DUP4 ADD MSTORE ADD PUSH3 0x50B JUMP JUMPDEST DUP2 DUP2 GT ISZERO PUSH3 0x537 JUMPI PUSH1 0x0 DUP3 DUP6 ADD MSTORE JUMPDEST POP SWAP2 SWAP1 SWAP2 ADD SWAP3 SWAP2 POP POP JUMP JUMPDEST PUSH1 0x0 DUP3 NOT DUP3 GT ISZERO PUSH3 0x564 JUMPI PUSH4 0x4E487B71 PUSH1 0xE0 SHL PUSH1 0x0 MSTORE PUSH1 0x11 PUSH1 0x4 MSTORE PUSH1 0x24 PUSH1 0x0 REVERT JUMPDEST POP ADD SWAP1 JUMP JUMPDEST PUSH2 0x237C DUP1 PUSH3 0x579 PUSH1 0x0 CODECOPY PUSH1 0x0 RETURN INVALID PUSH1 0x80 PUSH1 0x40 MSTORE PUSH1 0x4 CALLDATASIZE LT PUSH2 0x1F2 JUMPI PUSH1 0x0 CALLDATALOAD PUSH1 0xE0 SHR DUP1 PUSH4 0x9850D32B GT PUSH2 0x10D JUMPI DUP1 PUSH4 0xC0D78655 GT PUSH2 0xA0 JUMPI DUP1 PUSH4 0xF2FDE38B GT PUSH2 0x6F JUMPI DUP1 PUSH4 0xF2FDE38B EQ PUSH2 0x56E JUMPI DUP1 PUSH4 0xF4762FD6 EQ PUSH2 0x58E JUMPI DUP1 PUSH4 0xF7E77BC2 EQ PUSH2 0x5A3 JUMPI DUP1 PUSH4 0xF8CF31CB EQ PUSH2 0x5D0 JUMPI DUP1 PUSH4 0xF98080C0 EQ PUSH2 0x5F0 JUMPI PUSH1 0x0 DUP1 REVERT JUMPDEST DUP1 PUSH4 0xC0D78655 EQ PUSH2 0x4EE JUMPI DUP1 PUSH4 0xD6E0ECE2 EQ PUSH2 0x50E JUMPI DUP1 PUSH4 0xDE996A6E EQ PUSH2 0x52E JUMPI DUP1 PUSH4 0xEDAE876F EQ PUSH2 0x54E JUMPI PUSH1 0x0 DUP1 REVERT JUMPDEST DUP1 PUSH4 0xA347511A GT PUSH2 0xDC JUMPI DUP1 PUSH4 0xA347511A EQ PUSH2 0x46D JUMPI DUP1 PUSH4 0xA607494A EQ PUSH2 0x48E JUMPI DUP1 PUSH4 0xB59C6E0E EQ PUSH2 0x4AE JUMPI DUP1 PUSH4 0xBF3506C1 EQ PUSH2 0x4CE JUMPI PUSH1 0x0 DUP1 REVERT JUMPDEST DUP1 PUSH4 0x9850D32B EQ PUSH2 0x3EF JUMPI DUP1 PUSH4 0x9F531156 EQ PUSH2 0x40D JUMPI DUP1 PUSH4 0xA1764595 EQ PUSH2 0x42D JUMPI DUP1 PUSH4 0xA221A15F EQ PUSH2 0x44D JUMPI PUSH1 0x0 DUP1 REVERT JUMPDEST DUP1 PUSH4 0x63CD79B7 GT PUSH2 0x185 JUMPI DUP1 PUSH4 0x7EF189F8 GT PUSH2 0x154 JUMPI DUP1 PUSH4 0x7EF189F8 EQ PUSH2 0x37B JUMPI DUP1 PUSH4 0x864E49A7 EQ PUSH2 0x391 JUMPI DUP1 PUSH4 0x87DF241F EQ PUSH2 0x3B1 JUMPI DUP1 PUSH4 0x8DA5CB5B EQ PUSH2 0x3D1 JUMPI PUSH1 0x0 DUP1 REVERT JUMPDEST DUP1 PUSH4 0x63CD79B7 EQ PUSH2 0x2F3 JUMPI DUP1 PUSH4 0x70ED0ADA EQ PUSH2 0x313 JUMPI DUP1 PUSH4 0x715018A6 EQ PUSH2 0x326 JUMPI DUP1 PUSH4 0x7D6DFB7E EQ PUSH2 0x33B JUMPI PUSH1 0x0 DUP1 REVERT JUMPDEST DUP1 PUSH4 0x478A55EB GT PUSH2 0x1C1 JUMPI DUP1 PUSH4 0x478A55EB EQ PUSH2 0x295 JUMPI DUP1 PUSH4 0x4A938F00 EQ PUSH2 0x2B5 JUMPI DUP1 PUSH4 0x4E71D92D EQ PUSH2 0x2D5 JUMPI DUP1 PUSH4 0x5DD53826 EQ PUSH2 0x2DD JUMPI PUSH1 0x0 DUP1 REVERT JUMPDEST DUP1 PUSH4 0x11A63E17 EQ PUSH2 0x1FE JUMPI DUP1 PUSH4 0x12065FE0 EQ PUSH2 0x23B JUMPI DUP1 PUSH4 0x13EA5D29 EQ PUSH2 0x25E JUMPI DUP1 PUSH4 0x2788A9E4 EQ PUSH2 0x280 JUMPI PUSH1 0x0 DUP1 REVERT JUMPDEST CALLDATASIZE PUSH2 0x1F9 JUMPI STOP JUMPDEST PUSH1 0x0 DUP1 REVERT JUMPDEST CALLVALUE DUP1 ISZERO PUSH2 0x20A JUMPI PUSH1 0x0 DUP1 REVERT JUMPDEST POP PUSH1 0x7 SLOAD PUSH2 0x21E SWAP1 PUSH1 0x1 PUSH1 0x1 PUSH1 0xA0 SHL SUB AND DUP2 JUMP JUMPDEST PUSH1 0x40 MLOAD PUSH1 0x1 PUSH1 0x1 PUSH1 0xA0 SHL SUB SWAP1 SWAP2 AND DUP2 MSTORE PUSH1 0x20 ADD JUMPDEST PUSH1 0x40 MLOAD DUP1 SWAP2 SUB SWAP1 RETURN JUMPDEST CALLVALUE DUP1 ISZERO PUSH2 0x247 JUMPI PUSH1 0x0 DUP1 REVERT JUMPDEST POP PUSH2 0x250 PUSH2 0x628 JUMP JUMPDEST PUSH1 0x40 MLOAD SWAP1 DUP2 MSTORE PUSH1 0x20 ADD PUSH2 0x232 JUMP JUMPDEST CALLVALUE DUP1 ISZERO PUSH2 0x26A JUMPI PUSH1 0x0 DUP1 REVERT JUMPDEST POP PUSH2 0x27E PUSH2 0x279 CALLDATASIZE PUSH1 0x4 PUSH2 0x1EB4 JUMP JUMPDEST PUSH2 0x6A9 JUMP JUMPDEST STOP JUMPDEST CALLVALUE DUP1 ISZERO PUSH2 0x28C JUMPI PUSH1 0x0 DUP1 REVERT JUMPDEST POP PUSH2 0x27E PUSH2 0x8E3 JUMP JUMPDEST CALLVALUE DUP1 ISZERO PUSH2 0x2A1 JUMPI PUSH1 0x0 DUP1 REVERT JUMPDEST POP PUSH2 0x27E PUSH2 0x2B0 CALLDATASIZE PUSH1 0x4 PUSH2 0x1ED1 JUMP JUMPDEST PUSH2 0x974 JUMP JUMPDEST CALLVALUE DUP1 ISZERO PUSH2 0x2C1 JUMPI PUSH1 0x0 DUP1 REVERT JUMPDEST POP PUSH2 0x27E PUSH2 0x2D0 CALLDATASIZE PUSH1 0x4 PUSH2 0x1F35 JUMP JUMPDEST PUSH2 0xC20 JUMP JUMPDEST PUSH2 0x27E PUSH2 0xC5D JUMP JUMPDEST CALLVALUE DUP1 ISZERO PUSH2 0x2E9 JUMPI PUSH1 0x0 DUP1 REVERT JUMPDEST POP PUSH2 0x250 PUSH1 0x9 SLOAD DUP2 JUMP JUMPDEST CALLVALUE DUP1 ISZERO PUSH2 0x2FF JUMPI PUSH1 0x0 DUP1 REVERT JUMPDEST POP PUSH2 0x27E PUSH2 0x30E CALLDATASIZE PUSH1 0x4 PUSH2 0x1EB4 JUMP JUMPDEST PUSH2 0xDBD JUMP JUMPDEST CALLVALUE DUP1 ISZERO PUSH2 0x31F JUMPI PUSH1 0x0 DUP1 REVERT JUMPDEST POP SELFBALANCE PUSH2 0x250 JUMP JUMPDEST CALLVALUE DUP1 ISZERO PUSH2 0x332 JUMPI PUSH1 0x0 DUP1 REVERT JUMPDEST POP PUSH2 0x27E PUSH2 0xF26 JUMP JUMPDEST CALLVALUE DUP1 ISZERO PUSH2 0x347 JUMPI PUSH1 0x0 DUP1 REVERT JUMPDEST POP PUSH2 0x36B PUSH2 0x356 CALLDATASIZE PUSH1 0x4 PUSH2 0x1EB4 JUMP JUMPDEST PUSH1 0x3 PUSH1 0x20 MSTORE PUSH1 0x0 SWAP1 DUP2 MSTORE PUSH1 0x40 SWAP1 KECCAK256 SLOAD PUSH1 0xFF AND DUP2 JUMP JUMPDEST PUSH1 0x40 MLOAD SWAP1 ISZERO ISZERO DUP2 MSTORE PUSH1 0x20 ADD PUSH2 0x232 JUMP JUMPDEST CALLVALUE DUP1 ISZERO PUSH2 0x387 JUMPI PUSH1 0x0 DUP1 REVERT JUMPDEST POP PUSH2 0x250 PUSH1 0x5 SLOAD DUP2 JUMP JUMPDEST CALLVALUE DUP1 ISZERO PUSH2 0x39D JUMPI PUSH1 0x0 DUP1 REVERT JUMPDEST POP PUSH2 0x36B PUSH2 0x3AC CALLDATASIZE PUSH1 0x4 PUSH2 0x1EB4 JUMP JUMPDEST PUSH2 0xF5C JUMP JUMPDEST CALLVALUE DUP1 ISZERO PUSH2 0x3BD JUMPI PUSH1 0x0 DUP1 REVERT JUMPDEST POP PUSH2 0x27E PUSH2 0x3CC CALLDATASIZE PUSH1 0x4 PUSH2 0x2059 JUMP JUMPDEST PUSH2 0xF8C JUMP JUMPDEST CALLVALUE DUP1 ISZERO PUSH2 0x3DD JUMPI PUSH1 0x0 DUP1 REVERT JUMPDEST POP PUSH1 0x0 SLOAD PUSH1 0x1 PUSH1 0x1 PUSH1 0xA0 SHL SUB AND PUSH2 0x21E JUMP JUMPDEST CALLVALUE DUP1 ISZERO PUSH2 0x3FB JUMPI PUSH1 0x0 DUP1 REVERT JUMPDEST POP PUSH1 0x2 SLOAD PUSH1 0x1 PUSH1 0x1 PUSH1 0xA0 SHL SUB AND PUSH2 0x21E JUMP JUMPDEST CALLVALUE DUP1 ISZERO PUSH2 0x419 JUMPI PUSH1 0x0 DUP1 REVERT JUMPDEST POP PUSH2 0x27E PUSH2 0x428 CALLDATASIZE PUSH1 0x4 PUSH2 0x1FC4 JUMP JUMPDEST PUSH2 0x10C8 JUMP JUMPDEST CALLVALUE DUP1 ISZERO PUSH2 0x439 JUMPI PUSH1 0x0 DUP1 REVERT JUMPDEST POP PUSH1 0xA SLOAD PUSH2 0x21E SWAP1 PUSH1 0x1 PUSH1 0x1 PUSH1 0xA0 SHL SUB AND DUP2 JUMP JUMPDEST CALLVALUE DUP1 ISZERO PUSH2 0x459 JUMPI PUSH1 0x0 DUP1 REVERT JUMPDEST POP PUSH1 0x6 SLOAD PUSH2 0x21E SWAP1 PUSH1 0x1 PUSH1 0x1 PUSH1 0xA0 SHL SUB AND DUP2 JUMP JUMPDEST CALLVALUE DUP1 ISZERO PUSH2 0x479 JUMPI PUSH1 0x0 DUP1 REVERT JUMPDEST POP PUSH1 0x0 SLOAD PUSH2 0x36B SWAP1 PUSH1 0x1 PUSH1 0xA0 SHL SWAP1 DIV PUSH1 0xFF AND DUP2 JUMP JUMPDEST CALLVALUE DUP1 ISZERO PUSH2 0x49A JUMPI PUSH1 0x0 DUP1 REVERT JUMPDEST POP PUSH2 0x27E PUSH2 0x4A9 CALLDATASIZE PUSH1 0x4 PUSH2 0x1FC4 JUMP JUMPDEST PUSH2 0x113B JUMP JUMPDEST CALLVALUE DUP1 ISZERO PUSH2 0x4BA JUMPI PUSH1 0x0 DUP1 REVERT JUMPDEST POP PUSH1 0x8 SLOAD PUSH2 0x21E SWAP1 PUSH1 0x1 PUSH1 0x1 PUSH1 0xA0 SHL SUB AND DUP2 JUMP JUMPDEST CALLVALUE DUP1 ISZERO PUSH2 0x4DA JUMPI PUSH1 0x0 DUP1 REVERT JUMPDEST POP PUSH2 0x36B PUSH2 0x4E9 CALLDATASIZE PUSH1 0x4 PUSH2 0x1EB4 JUMP JUMPDEST PUSH2 0x1218 JUMP JUMPDEST CALLVALUE DUP1 ISZERO PUSH2 0x4FA JUMPI PUSH1 0x0 DUP1 REVERT JUMPDEST POP PUSH2 0x27E PUSH2 0x509 CALLDATASIZE PUSH1 0x4 PUSH2 0x1EB4 JUMP JUMPDEST PUSH2 0x124A JUMP JUMPDEST CALLVALUE DUP1 ISZERO PUSH2 0x51A JUMPI PUSH1 0x0 DUP1 REVERT JUMPDEST POP PUSH2 0x27E PUSH2 0x529 CALLDATASIZE PUSH1 0x4 PUSH2 0x208B JUMP JUMPDEST PUSH2 0x1296 JUMP JUMPDEST CALLVALUE DUP1 ISZERO PUSH2 0x53A JUMPI PUSH1 0x0 DUP1 REVERT JUMPDEST POP PUSH2 0x27E PUSH2 0x549 CALLDATASIZE PUSH1 0x4 PUSH2 0x2059 JUMP JUMPDEST PUSH2 0x1589 JUMP JUMPDEST CALLVALUE DUP1 ISZERO PUSH2 0x55A JUMPI PUSH1 0x0 DUP1 REVERT JUMPDEST POP PUSH1 0xB SLOAD PUSH2 0x21E SWAP1 PUSH1 0x1 PUSH1 0x1 PUSH1 0xA0 SHL SUB AND DUP2 JUMP JUMPDEST CALLVALUE DUP1 ISZERO PUSH2 0x57A JUMPI PUSH1 0x0 DUP1 REVERT JUMPDEST POP PUSH2 0x27E PUSH2 0x589 CALLDATASIZE PUSH1 0x4 PUSH2 0x1EB4 JUMP JUMPDEST PUSH2 0x16D9 JUMP JUMPDEST CALLVALUE DUP1 ISZERO PUSH2 0x59A JUMPI PUSH1 0x0 DUP1 REVERT JUMPDEST POP PUSH2 0x27E PUSH2 0x1774 JUMP JUMPDEST CALLVALUE DUP1 ISZERO PUSH2 0x5AF JUMPI PUSH1 0x0 DUP1 REVERT JUMPDEST POP PUSH2 0x250 PUSH2 0x5BE CALLDATASIZE PUSH1 0x4 PUSH2 0x1EB4 JUMP JUMPDEST PUSH1 0x4 PUSH1 0x20 MSTORE PUSH1 0x0 SWAP1 DUP2 MSTORE PUSH1 0x40 SWAP1 KECCAK256 SLOAD DUP2 JUMP JUMPDEST CALLVALUE DUP1 ISZERO PUSH2 0x5DC JUMPI PUSH1 0x0 DUP1 REVERT JUMPDEST POP PUSH2 0x27E PUSH2 0x5EB CALLDATASIZE PUSH1 0x4 PUSH2 0x1EB4 JUMP JUMPDEST PUSH2 0x17FE JUMP JUMPDEST CALLVALUE DUP1 ISZERO PUSH2 0x5FC JUMPI PUSH1 0x0 DUP1 REVERT JUMPDEST POP PUSH2 0x250 PUSH2 0x60B CALLDATASIZE PUSH1 0x4 PUSH2 0x1FC4 JUMP JUMPDEST DUP1 MLOAD PUSH1 0x20 DUP2 DUP4 ADD DUP2 ADD DUP1 MLOAD PUSH1 0x1 DUP3 MSTORE SWAP3 DUP3 ADD SWAP2 SWAP1 SWAP4 ADD KECCAK256 SWAP2 MSTORE SLOAD DUP2 JUMP JUMPDEST PUSH1 0x8 SLOAD PUSH1 0x40 MLOAD PUSH4 0x70A08231 PUSH1 0xE0 SHL DUP2 MSTORE ADDRESS PUSH1 0x4 DUP3 ADD MSTORE PUSH1 0x0 SWAP2 PUSH1 0x1 PUSH1 0x1 PUSH1 0xA0 SHL SUB AND SWAP1 PUSH4 0x70A08231 SWAP1 PUSH1 0x24 ADD PUSH1 0x20 PUSH1 0x40 MLOAD DUP1 DUP4 SUB DUP2 DUP7 DUP1 EXTCODESIZE ISZERO DUP1 ISZERO PUSH2 0x66C JUMPI PUSH1 0x0 DUP1 REVERT JUMPDEST POP GAS STATICCALL ISZERO DUP1 ISZERO PUSH2 0x680 JUMPI RETURNDATASIZE PUSH1 0x0 DUP1 RETURNDATACOPY RETURNDATASIZE PUSH1 0x0 REVERT JUMPDEST POP POP POP POP PUSH1 0x40 MLOAD RETURNDATASIZE PUSH1 0x1F NOT PUSH1 0x1F DUP3 ADD AND DUP3 ADD DUP1 PUSH1 0x40 MSTORE POP DUP2 ADD SWAP1 PUSH2 0x6A4 SWAP2 SWAP1 PUSH2 0x2072 JUMP JUMPDEST SWAP1 POP SWAP1 JUMP JUMPDEST CALLER PUSH2 0x6BC PUSH1 0x0 SLOAD PUSH1 0x1 PUSH1 0x1 PUSH1 0xA0 SHL SUB AND SWAP1 JUMP JUMPDEST PUSH1 0x1 PUSH1 0x1 PUSH1 0xA0 SHL SUB AND EQ DUP1 PUSH2 0x6DB JUMPI POP PUSH1 0x2 SLOAD PUSH1 0x1 PUSH1 0x1 PUSH1 0xA0 SHL SUB AND CALLER EQ JUMPDEST PUSH2 0x700 JUMPI PUSH1 0x40 MLOAD PUSH3 0x461BCD PUSH1 0xE5 SHL DUP2 MSTORE PUSH1 0x4 ADD PUSH2 0x6F7 SWAP1 PUSH2 0x2138 JUMP JUMPDEST PUSH1 0x40 MLOAD DUP1 SWAP2 SUB SWAP1 REVERT JUMPDEST PUSH1 0x40 DUP1 MLOAD DUP1 DUP3 ADD SWAP1 SWAP2 MSTORE PUSH1 0xA DUP2 MSTORE PUSH10 0x36B0B4B73A30B4B732B9 PUSH1 0xB1 SHL PUSH1 0x20 DUP3 ADD MSTORE PUSH1 0x0 SLOAD PUSH1 0x1 PUSH1 0xA0 SHL SWAP1 DIV PUSH1 0xFF AND ISZERO DUP1 PUSH2 0x7BA JUMPI POP PUSH1 0x1 DUP2 PUSH1 0x40 MLOAD PUSH2 0x745 SWAP2 SWAP1 PUSH2 0x20BB JUMP JUMPDEST SWAP1 DUP2 MSTORE PUSH1 0x20 ADD PUSH1 0x40 MLOAD DUP1 SWAP2 SUB SWAP1 KECCAK256 SLOAD PUSH1 0x0 EQ ISZERO DUP1 ISZERO PUSH2 0x782 JUMPI POP TIMESTAMP PUSH1 0x1 DUP3 PUSH1 0x40 MLOAD PUSH2 0x770 SWAP2 SWAP1 PUSH2 0x20BB JUMP JUMPDEST SWAP1 DUP2 MSTORE PUSH1 0x20 ADD PUSH1 0x40 MLOAD DUP1 SWAP2 SUB SWAP1 KECCAK256 SLOAD GT ISZERO JUMPDEST DUP1 ISZERO PUSH2 0x7BA JUMPI POP TIMESTAMP PUSH3 0x15180 PUSH1 0x1 DUP4 PUSH1 0x40 MLOAD PUSH2 0x79E SWAP2 SWAP1 PUSH2 0x20BB JUMP JUMPDEST SWAP1 DUP2 MSTORE PUSH1 0x20 ADD PUSH1 0x40 MLOAD DUP1 SWAP2 SUB SWAP1 KECCAK256 SLOAD PUSH2 0x7B7 SWAP2 SWAP1 PUSH2 0x2253 JUMP JUMPDEST LT ISZERO JUMPDEST PUSH2 0x7D6 JUMPI PUSH1 0x40 MLOAD PUSH3 0x461BCD PUSH1 0xE5 SHL DUP2 MSTORE PUSH1 0x4 ADD PUSH2 0x6F7 SWAP1 PUSH2 0x210C JUMP JUMPDEST PUSH1 0x2 SLOAD PUSH1 0x1 PUSH1 0x1 PUSH1 0xA0 SHL SUB DUP4 DUP2 AND SWAP2 AND EQ DUP1 ISZERO SWAP1 PUSH2 0x7FC JUMPI POP PUSH1 0x1 PUSH1 0x1 PUSH1 0xA0 SHL SUB DUP3 AND ISZERO ISZERO JUMPDEST PUSH2 0x887 JUMPI PUSH1 0x40 MLOAD PUSH3 0x461BCD PUSH1 0xE5 SHL DUP2 MSTORE PUSH1 0x20 PUSH1 0x4 DUP3 ADD MSTORE PUSH1 0x50 PUSH1 0x24 DUP3 ADD MSTORE PUSH32 0x41424F41543A3A7365744D61696E7461696E65723A204D61696E7461696E6572 PUSH1 0x44 DUP3 ADD MSTORE PUSH32 0x2063616E277420657175616C2070726576696F7573206D61696E7461696E6572 PUSH1 0x64 DUP3 ADD MSTORE PUSH16 0x206F72207A65726F2061646472657373 PUSH1 0x80 SHL PUSH1 0x84 DUP3 ADD MSTORE PUSH1 0xA4 ADD PUSH2 0x6F7 JUMP JUMPDEST PUSH1 0x2 DUP1 SLOAD PUSH1 0x1 PUSH1 0x1 PUSH1 0xA0 SHL SUB DUP5 DUP2 AND PUSH1 0x1 PUSH1 0x1 PUSH1 0xA0 SHL SUB NOT DUP4 AND DUP2 OR SWAP1 SWAP4 SSTORE PUSH1 0x40 MLOAD SWAP2 AND SWAP2 SWAP1 DUP3 SWAP1 PUSH32 0x2F3FFAAAAD93928855C8700645D1A3643E6CCFDD500EFA9FDA048A88F557CF01 SWAP1 PUSH1 0x0 SWAP1 LOG3 POP PUSH2 0x8DF DUP2 PUSH2 0x10C8 JUMP JUMPDEST POP POP JUMP JUMPDEST PUSH1 0x0 SLOAD PUSH1 0x1 PUSH1 0x1 PUSH1 0xA0 SHL SUB AND CALLER EQ PUSH2 0x90D JUMPI PUSH1 0x40 MLOAD PUSH3 0x461BCD PUSH1 0xE5 SHL DUP2 MSTORE PUSH1 0x4 ADD PUSH2 0x6F7 SWAP1 PUSH2 0x20D7 JUMP JUMPDEST PUSH1 0x8 SLOAD PUSH2 0x93C SWAP1 PUSH1 0x1 PUSH1 0x1 PUSH1 0xA0 SHL SUB AND PUSH2 0x92F PUSH1 0x0 SLOAD PUSH1 0x1 PUSH1 0x1 PUSH1 0xA0 SHL SUB AND SWAP1 JUMP JUMPDEST PUSH2 0x937 PUSH2 0x628 JUMP JUMPDEST PUSH2 0x19E7 JUMP JUMPDEST PUSH1 0x0 DUP1 SLOAD PUSH1 0x40 MLOAD PUSH1 0x1 PUSH1 0x1 PUSH1 0xA0 SHL SUB SWAP1 SWAP2 AND SWAP2 PUSH32 0x5E7B34819CD91B239220BEC92FCFD3C10DA2214BA13E4E2B1F6C9CFDBD68A9A2 SWAP2 LOG2 JUMP JUMPDEST PUSH1 0x0 SLOAD PUSH1 0x1 PUSH1 0x1 PUSH1 0xA0 SHL SUB AND CALLER EQ PUSH2 0x99E JUMPI PUSH1 0x40 MLOAD PUSH3 0x461BCD PUSH1 0xE5 SHL DUP2 MSTORE PUSH1 0x4 ADD PUSH2 0x6F7 SWAP1 PUSH2 0x20D7 JUMP JUMPDEST DUP1 MLOAD DUP3 MLOAD EQ PUSH2 0xA2C JUMPI PUSH1 0x40 MLOAD PUSH3 0x461BCD PUSH1 0xE5 SHL DUP2 MSTORE PUSH1 0x20 PUSH1 0x4 DUP3 ADD MSTORE PUSH1 0x4E PUSH1 0x24 DUP3 ADD MSTORE PUSH32 0x41424F41543A3A73656E64526577617264733A20616D6F756E747320616E6420 PUSH1 0x44 DUP3 ADD MSTORE PUSH32 0x616464726573736573206D7573742068617665207468652073616D6520616D6F PUSH1 0x64 DUP3 ADD MSTORE PUSH14 0x756E74206F6620656E7472696573 PUSH1 0x90 SHL PUSH1 0x84 DUP3 ADD MSTORE PUSH1 0xA4 ADD PUSH2 0x6F7 JUMP JUMPDEST PUSH1 0x0 JUMPDEST DUP2 MLOAD DUP2 LT ISZERO PUSH2 0xC1B JUMPI PUSH1 0x3 PUSH1 0x0 DUP4 DUP4 DUP2 MLOAD DUP2 LT PUSH2 0xA4E JUMPI PUSH2 0xA4E PUSH2 0x2305 JUMP JUMPDEST PUSH1 0x20 SWAP1 DUP2 MUL SWAP2 SWAP1 SWAP2 ADD DUP2 ADD MLOAD PUSH1 0x1 PUSH1 0x1 PUSH1 0xA0 SHL SUB AND DUP3 MSTORE DUP2 ADD SWAP2 SWAP1 SWAP2 MSTORE PUSH1 0x40 ADD PUSH1 0x0 KECCAK256 SLOAD PUSH1 0xFF AND DUP1 ISZERO PUSH2 0xAA1 JUMPI POP DUP3 DUP2 DUP2 MLOAD DUP2 LT PUSH2 0xA8E JUMPI PUSH2 0xA8E PUSH2 0x2305 JUMP JUMPDEST PUSH1 0x20 MUL PUSH1 0x20 ADD ADD MLOAD PUSH2 0xA9E PUSH2 0x628 JUMP JUMPDEST LT ISZERO JUMPDEST DUP1 ISZERO PUSH2 0xACA JUMPI POP PUSH2 0xACA DUP3 DUP3 DUP2 MLOAD DUP2 LT PUSH2 0xABD JUMPI PUSH2 0xABD PUSH2 0x2305 JUMP JUMPDEST PUSH1 0x20 MUL PUSH1 0x20 ADD ADD MLOAD PUSH2 0x1218 JUMP JUMPDEST DUP1 ISZERO PUSH2 0xAF1 JUMPI POP PUSH1 0x9 SLOAD DUP4 DUP3 DUP2 MLOAD DUP2 LT PUSH2 0xAE6 JUMPI PUSH2 0xAE6 PUSH2 0x2305 JUMP JUMPDEST PUSH1 0x20 MUL PUSH1 0x20 ADD ADD MLOAD GT ISZERO JUMPDEST ISZERO PUSH2 0xC09 JUMPI PUSH1 0x0 PUSH1 0x3 PUSH1 0x0 DUP5 DUP5 DUP2 MLOAD DUP2 LT PUSH2 0xB0E JUMPI PUSH2 0xB0E PUSH2 0x2305 JUMP JUMPDEST PUSH1 0x20 MUL PUSH1 0x20 ADD ADD MLOAD PUSH1 0x1 PUSH1 0x1 PUSH1 0xA0 SHL SUB AND PUSH1 0x1 PUSH1 0x1 PUSH1 0xA0 SHL SUB AND DUP2 MSTORE PUSH1 0x20 ADD SWAP1 DUP2 MSTORE PUSH1 0x20 ADD PUSH1 0x0 KECCAK256 PUSH1 0x0 PUSH2 0x100 EXP DUP2 SLOAD DUP2 PUSH1 0xFF MUL NOT AND SWAP1 DUP4 ISZERO ISZERO MUL OR SWAP1 SSTORE POP PUSH2 0xB9F PUSH1 0x8 PUSH1 0x0 SWAP1 SLOAD SWAP1 PUSH2 0x100 EXP SWAP1 DIV PUSH1 0x1 PUSH1 0x1 PUSH1 0xA0 SHL SUB AND DUP4 DUP4 DUP2 MLOAD DUP2 LT PUSH2 0xB78 JUMPI PUSH2 0xB78 PUSH2 0x2305 JUMP JUMPDEST PUSH1 0x20 MUL PUSH1 0x20 ADD ADD MLOAD DUP6 DUP5 DUP2 MLOAD DUP2 LT PUSH2 0xB92 JUMPI PUSH2 0xB92 PUSH2 0x2305 JUMP JUMPDEST PUSH1 0x20 MUL PUSH1 0x20 ADD ADD MLOAD PUSH2 0x19E7 JUMP JUMPDEST DUP3 DUP2 DUP2 MLOAD DUP2 LT PUSH2 0xBB1 JUMPI PUSH2 0xBB1 PUSH2 0x2305 JUMP JUMPDEST PUSH1 0x20 MUL PUSH1 0x20 ADD ADD MLOAD DUP3 DUP3 DUP2 MLOAD DUP2 LT PUSH2 0xBCB JUMPI PUSH2 0xBCB PUSH2 0x2305 JUMP JUMPDEST PUSH1 0x20 MUL PUSH1 0x20 ADD ADD MLOAD PUSH1 0x1 PUSH1 0x1 PUSH1 0xA0 SHL SUB AND PUSH32 0xD9D5E983E9E8A6571FFBEAFA6A3C2FBD9F0F44E52607977B5E1E7934F7D91BFC PUSH1 0x40 MLOAD PUSH1 0x40 MLOAD DUP1 SWAP2 SUB SWAP1 LOG3 JUMPDEST DUP1 PUSH2 0xC13 DUP2 PUSH2 0x22D4 JUMP JUMPDEST SWAP2 POP POP PUSH2 0xA2F JUMP JUMPDEST POP POP POP JUMP JUMPDEST PUSH1 0x0 SLOAD PUSH1 0x1 PUSH1 0x1 PUSH1 0xA0 SHL SUB AND CALLER EQ PUSH2 0xC4A JUMPI PUSH1 0x40 MLOAD PUSH3 0x461BCD PUSH1 0xE5 SHL DUP2 MSTORE PUSH1 0x4 ADD PUSH2 0x6F7 SWAP1 PUSH2 0x20D7 JUMP JUMPDEST PUSH2 0xC53 DUP2 PUSH2 0xF8C JUMP JUMPDEST PUSH2 0xC1B DUP4 DUP4 PUSH2 0x974 JUMP JUMPDEST CALLER PUSH1 0x0 SWAP1 DUP2 MSTORE PUSH1 0x3 PUSH1 0x20 MSTORE PUSH1 0x40 SWAP1 KECCAK256 SLOAD PUSH1 0xFF AND ISZERO PUSH2 0xCD5 JUMPI PUSH1 0x40 MLOAD PUSH3 0x461BCD PUSH1 0xE5 SHL DUP2 MSTORE PUSH1 0x20 PUSH1 0x4 DUP3 ADD MSTORE PUSH1 0x2F PUSH1 0x24 DUP3 ADD MSTORE PUSH32 0x41424F41543A3A636C61696D3A20416C726561647920616C6C6F77656420746F PUSH1 0x44 DUP3 ADD MSTORE PUSH15 0x207265636965766520746F6B656E73 PUSH1 0x88 SHL PUSH1 0x64 DUP3 ADD MSTORE PUSH1 0x84 ADD PUSH2 0x6F7 JUMP JUMPDEST PUSH1 0x5 SLOAD CALLVALUE LT ISZERO PUSH2 0xD65 JUMPI PUSH1 0x40 MLOAD PUSH3 0x461BCD PUSH1 0xE5 SHL DUP2 MSTORE PUSH1 0x20 PUSH1 0x4 DUP3 ADD MSTORE PUSH1 0x4F PUSH1 0x24 DUP3 ADD MSTORE PUSH32 0x41424F41543A3A636C61696D3A20416D6F756E74206F6620626E6220746F2063 PUSH1 0x44 DUP3 ADD MSTORE PUSH32 0x6C61696D2073686F756C642063617272792074686520636F737420746F206164 PUSH1 0x64 DUP3 ADD MSTORE PUSH15 0x642074686520636C61696D61626C65 PUSH1 0x88 SHL PUSH1 0x84 DUP3 ADD MSTORE PUSH1 0xA4 ADD PUSH2 0x6F7 JUMP JUMPDEST PUSH1 0x6 SLOAD PUSH2 0xD7B SWAP1 PUSH1 0x1 PUSH1 0x1 PUSH1 0xA0 SHL SUB AND CALLVALUE PUSH2 0x1B18 JUMP JUMPDEST CALLER PUSH1 0x0 DUP2 DUP2 MSTORE PUSH1 0x3 PUSH1 0x20 MSTORE PUSH1 0x40 DUP1 DUP3 KECCAK256 DUP1 SLOAD PUSH1 0xFF NOT AND PUSH1 0x1 OR SWAP1 SSTORE MLOAD PUSH32 0x98716C616972F4EF0085DEB59C20F6F6A840219C121AD1F3B5413097F3A10357 SWAP2 SWAP1 LOG2 JUMP JUMPDEST PUSH1 0x0 SLOAD PUSH1 0x1 PUSH1 0x1 PUSH1 0xA0 SHL SUB AND CALLER EQ PUSH2 0xDE7 JUMPI PUSH1 0x40 MLOAD PUSH3 0x461BCD PUSH1 0xE5 SHL DUP2 MSTORE PUSH1 0x4 ADD PUSH2 0x6F7 SWAP1 PUSH2 0x20D7 JUMP JUMPDEST PUSH1 0x40 DUP1 MLOAD DUP1 DUP3 ADD SWAP1 SWAP2 MSTORE PUSH1 0x12 DUP2 MSTORE PUSH18 0x18DA185B99D953DC9858DB1955D85B1B195D PUSH1 0x72 SHL PUSH1 0x20 DUP3 ADD MSTORE PUSH1 0x0 SLOAD PUSH1 0x1 PUSH1 0xA0 SHL SWAP1 DIV PUSH1 0xFF AND ISZERO DUP1 PUSH2 0xEA9 JUMPI POP PUSH1 0x1 DUP2 PUSH1 0x40 MLOAD PUSH2 0xE34 SWAP2 SWAP1 PUSH2 0x20BB JUMP JUMPDEST SWAP1 DUP2 MSTORE PUSH1 0x20 ADD PUSH1 0x40 MLOAD DUP1 SWAP2 SUB SWAP1 KECCAK256 SLOAD PUSH1 0x0 EQ ISZERO DUP1 ISZERO PUSH2 0xE71 JUMPI POP TIMESTAMP PUSH1 0x1 DUP3 PUSH1 0x40 MLOAD PUSH2 0xE5F SWAP2 SWAP1 PUSH2 0x20BB JUMP JUMPDEST SWAP1 DUP2 MSTORE PUSH1 0x20 ADD PUSH1 0x40 MLOAD DUP1 SWAP2 SUB SWAP1 KECCAK256 SLOAD GT ISZERO JUMPDEST DUP1 ISZERO PUSH2 0xEA9 JUMPI POP TIMESTAMP PUSH3 0x15180 PUSH1 0x1 DUP4 PUSH1 0x40 MLOAD PUSH2 0xE8D SWAP2 SWAP1 PUSH2 0x20BB JUMP JUMPDEST SWAP1 DUP2 MSTORE PUSH1 0x20 ADD PUSH1 0x40 MLOAD DUP1 SWAP2 SUB SWAP1 KECCAK256 SLOAD PUSH2 0xEA6 SWAP2 SWAP1 PUSH2 0x2253 JUMP JUMPDEST LT ISZERO JUMPDEST PUSH2 0xEC5 JUMPI PUSH1 0x40 MLOAD PUSH3 0x461BCD PUSH1 0xE5 SHL DUP2 MSTORE PUSH1 0x4 ADD PUSH2 0x6F7 SWAP1 PUSH2 0x210C JUMP JUMPDEST PUSH2 0xECE DUP3 PUSH2 0x16D9 JUMP JUMPDEST PUSH1 0x6 DUP1 SLOAD PUSH1 0x1 PUSH1 0x1 PUSH1 0xA0 SHL SUB DUP5 DUP2 AND PUSH1 0x1 PUSH1 0x1 PUSH1 0xA0 SHL SUB NOT DUP4 AND DUP2 OR SWAP1 SWAP4 SSTORE PUSH1 0x40 MLOAD SWAP2 AND SWAP2 SWAP1 DUP3 SWAP1 PUSH32 0x3920ECD0F25E4E6CE57AAEC91E57DF499CB7E3E70D6C9604F866AE9265382CF3 SWAP1 PUSH1 0x0 SWAP1 LOG3 POP PUSH2 0x8DF DUP2 PUSH2 0x10C8 JUMP JUMPDEST PUSH1 0x0 SLOAD PUSH1 0x1 PUSH1 0x1 PUSH1 0xA0 SHL SUB AND CALLER EQ PUSH2 0xF50 JUMPI PUSH1 0x40 MLOAD PUSH3 0x461BCD PUSH1 0xE5 SHL DUP2 MSTORE PUSH1 0x4 ADD PUSH2 0x6F7 SWAP1 PUSH2 0x20D7 JUMP JUMPDEST PUSH2 0xF5A PUSH1 0x0 PUSH2 0x1BF2 JUMP JUMPDEST JUMP JUMPDEST PUSH1 0x1 PUSH1 0x1 PUSH1 0xA0 SHL SUB DUP2 AND PUSH1 0x0 SWAP1 DUP2 MSTORE PUSH1 0x4 PUSH1 0x20 MSTORE PUSH1 0x40 DUP2 KECCAK256 SLOAD TIMESTAMP SWAP1 PUSH2 0xF84 SWAP1 PUSH3 0x15180 PUSH2 0x2253 JUMP JUMPDEST GT ISZERO SWAP3 SWAP2 POP POP JUMP JUMPDEST PUSH1 0x0 SLOAD PUSH1 0x1 PUSH1 0x1 PUSH1 0xA0 SHL SUB AND CALLER EQ PUSH2 0xFB6 JUMPI PUSH1 0x40 MLOAD PUSH3 0x461BCD PUSH1 0xE5 SHL DUP2 MSTORE PUSH1 0x4 ADD PUSH2 0x6F7 SWAP1 PUSH2 0x20D7 JUMP JUMPDEST PUSH1 0x40 DUP1 MLOAD DUP1 DUP3 ADD SWAP1 SWAP2 MSTORE PUSH1 0xD DUP2 MSTORE PUSH13 0x18591A9D5CDD11D85CD0DBDCDD PUSH1 0x9A SHL PUSH1 0x20 DUP3 ADD MSTORE PUSH1 0x0 SLOAD PUSH1 0x1 PUSH1 0xA0 SHL SWAP1 DIV PUSH1 0xFF AND ISZERO DUP1 PUSH2 0x1073 JUMPI POP PUSH1 0x1 DUP2 PUSH1 0x40 MLOAD PUSH2 0xFFE SWAP2 SWAP1 PUSH2 0x20BB JUMP JUMPDEST SWAP1 DUP2 MSTORE PUSH1 0x20 ADD PUSH1 0x40 MLOAD DUP1 SWAP2 SUB SWAP1 KECCAK256 SLOAD PUSH1 0x0 EQ ISZERO DUP1 ISZERO PUSH2 0x103B JUMPI POP TIMESTAMP PUSH1 0x1 DUP3 PUSH1 0x40 MLOAD PUSH2 0x1029 SWAP2 SWAP1 PUSH2 0x20BB JUMP JUMPDEST SWAP1 DUP2 MSTORE PUSH1 0x20 ADD PUSH1 0x40 MLOAD DUP1 SWAP2 SUB SWAP1 KECCAK256 SLOAD GT ISZERO JUMPDEST DUP1 ISZERO PUSH2 0x1073 JUMPI POP TIMESTAMP PUSH3 0x15180 PUSH1 0x1 DUP4 PUSH1 0x40 MLOAD PUSH2 0x1057 SWAP2 SWAP1 PUSH2 0x20BB JUMP JUMPDEST SWAP1 DUP2 MSTORE PUSH1 0x20 ADD PUSH1 0x40 MLOAD DUP1 SWAP2 SUB SWAP1 KECCAK256 SLOAD PUSH2 0x1070 SWAP2 SWAP1 PUSH2 0x2253 JUMP JUMPDEST LT ISZERO JUMPDEST PUSH2 0x108F JUMPI PUSH1 0x40 MLOAD PUSH3 0x461BCD PUSH1 0xE5 SHL DUP2 MSTORE PUSH1 0x4 ADD PUSH2 0x6F7 SWAP1 PUSH2 0x210C JUMP JUMPDEST PUSH1 0x5 SLOAD PUSH1 0x40 MLOAD DUP4 SWAP2 SWAP1 PUSH32 0xC3DC19678FD7390A5C1197DECFAEC52D8A1C63C49F0A51DB570F5FE5040C5F73 SWAP1 PUSH1 0x0 SWAP1 LOG3 PUSH1 0x5 DUP3 SWAP1 SSTORE PUSH2 0x8DF DUP2 JUMPDEST CALLER PUSH2 0x10DB PUSH1 0x0 SLOAD PUSH1 0x1 PUSH1 0x1 PUSH1 0xA0 SHL SUB AND SWAP1 JUMP JUMPDEST PUSH1 0x1 PUSH1 0x1 PUSH1 0xA0 SHL SUB AND EQ DUP1 PUSH2 0x10FA JUMPI POP PUSH1 0x2 SLOAD PUSH1 0x1 PUSH1 0x1 PUSH1 0xA0 SHL SUB AND CALLER EQ JUMPDEST PUSH2 0x1116 JUMPI PUSH1 0x40 MLOAD PUSH3 0x461BCD PUSH1 0xE5 SHL DUP2 MSTORE PUSH1 0x4 ADD PUSH2 0x6F7 SWAP1 PUSH2 0x2138 JUMP JUMPDEST PUSH1 0x0 PUSH1 0x1 DUP3 PUSH1 0x40 MLOAD PUSH2 0x1128 SWAP2 SWAP1 PUSH2 0x20BB JUMP JUMPDEST SWAP1 DUP2 MSTORE PUSH1 0x40 MLOAD SWAP1 DUP2 SWAP1 SUB PUSH1 0x20 ADD SWAP1 KECCAK256 SSTORE POP JUMP JUMPDEST CALLER PUSH2 0x114E PUSH1 0x0 SLOAD PUSH1 0x1 PUSH1 0x1 PUSH1 0xA0 SHL SUB AND SWAP1 JUMP JUMPDEST PUSH1 0x1 PUSH1 0x1 PUSH1 0xA0 SHL SUB AND EQ DUP1 PUSH2 0x116D JUMPI POP PUSH1 0x2 SLOAD PUSH1 0x1 PUSH1 0x1 PUSH1 0xA0 SHL SUB AND CALLER EQ JUMPDEST PUSH2 0x1189 JUMPI PUSH1 0x40 MLOAD PUSH3 0x461BCD PUSH1 0xE5 SHL DUP2 MSTORE PUSH1 0x4 ADD PUSH2 0x6F7 SWAP1 PUSH2 0x2138 JUMP JUMPDEST PUSH2 0x1196 PUSH3 0x15180 TIMESTAMP PUSH2 0x2253 JUMP JUMPDEST PUSH1 0x1 DUP3 PUSH1 0x40 MLOAD PUSH2 0x11A6 SWAP2 SWAP1 PUSH2 0x20BB JUMP JUMPDEST SWAP1 DUP2 MSTORE PUSH1 0x20 ADD PUSH1 0x40 MLOAD DUP1 SWAP2 SUB SWAP1 KECCAK256 DUP2 SWAP1 SSTORE POP PUSH1 0x1 DUP2 PUSH1 0x40 MLOAD PUSH2 0x11C8 SWAP2 SWAP1 PUSH2 0x20BB JUMP JUMPDEST SWAP1 DUP2 MSTORE PUSH1 0x20 ADD PUSH1 0x40 MLOAD DUP1 SWAP2 SUB SWAP1 KECCAK256 SLOAD DUP2 PUSH1 0x40 MLOAD PUSH2 0x11E5 SWAP2 SWAP1 PUSH2 0x20BB JUMP JUMPDEST PUSH1 0x40 MLOAD SWAP1 DUP2 SWAP1 SUB DUP2 KECCAK256 SWAP1 PUSH32 0xF77F9A799FE8B0BE1463ABD7459A18FC55DFD8A6A24DDD29B54FD098088089C8 SWAP1 PUSH1 0x0 SWAP1 LOG3 POP JUMP JUMPDEST PUSH1 0x1 PUSH1 0x1 PUSH1 0xA0 SHL SUB DUP2 AND PUSH1 0x0 SWAP1 DUP2 MSTORE PUSH1 0x3 PUSH1 0x20 MSTORE PUSH1 0x40 DUP2 KECCAK256 SLOAD PUSH1 0xFF AND DUP1 ISZERO PUSH2 0x1244 JUMPI POP PUSH2 0x1244 DUP3 PUSH2 0xF5C JUMP JUMPDEST SWAP3 SWAP2 POP POP JUMP JUMPDEST PUSH1 0x0 SLOAD PUSH1 0x1 PUSH1 0x1 PUSH1 0xA0 SHL SUB AND CALLER EQ PUSH2 0x1274 JUMPI PUSH1 0x40 MLOAD PUSH3 0x461BCD PUSH1 0xE5 SHL DUP2 MSTORE PUSH1 0x4 ADD PUSH2 0x6F7 SWAP1 PUSH2 0x20D7 JUMP JUMPDEST PUSH1 0xB DUP1 SLOAD PUSH1 0x1 PUSH1 0x1 PUSH1 0xA0 SHL SUB NOT AND PUSH1 0x1 PUSH1 0x1 PUSH1 0xA0 SHL SUB SWAP3 SWAP1 SWAP3 AND SWAP2 SWAP1 SWAP2 OR SWAP1 SSTORE JUMP JUMPDEST PUSH1 0x0 SLOAD PUSH1 0x1 PUSH1 0x1 PUSH1 0xA0 SHL SUB AND CALLER EQ PUSH2 0x12C0 JUMPI PUSH1 0x40 MLOAD PUSH3 0x461BCD PUSH1 0xE5 SHL DUP2 MSTORE PUSH1 0x4 ADD PUSH2 0x6F7 SWAP1 PUSH2 0x20D7 JUMP JUMPDEST PUSH1 0xB SLOAD PUSH1 0x1 PUSH1 0x1 PUSH1 0xA0 SHL SUB AND PUSH2 0x1351 JUMPI PUSH1 0x40 MLOAD PUSH3 0x461BCD PUSH1 0xE5 SHL DUP2 MSTORE PUSH1 0x20 PUSH1 0x4 DUP3 ADD MSTORE PUSH1 0x4A PUSH1 0x24 DUP3 ADD MSTORE PUSH32 0x41424F41543A3A73656E645265776172647341734574683A2054686572652069 PUSH1 0x44 DUP3 ADD MSTORE PUSH32 0x73206E6F20726F7574657220646566696E656420746F207377617020746F6B65 PUSH1 0x64 DUP3 ADD MSTORE PUSH10 0xDCE640CCDEE440CAE8D PUSH1 0xB3 SHL PUSH1 0x84 DUP3 ADD MSTORE PUSH1 0xA4 ADD PUSH2 0x6F7 JUMP JUMPDEST PUSH2 0x1359 PUSH2 0x628 JUMP JUMPDEST DUP3 GT ISZERO PUSH2 0x13DE JUMPI PUSH1 0x40 MLOAD PUSH3 0x461BCD PUSH1 0xE5 SHL DUP2 MSTORE PUSH1 0x20 PUSH1 0x4 DUP3 ADD MSTORE PUSH1 0x47 PUSH1 0x24 DUP3 ADD MSTORE PUSH32 0x41424F41543A3A73656E645265776172647341734574683A2043616E27742073 PUSH1 0x44 DUP3 ADD MSTORE PUSH32 0x656E64206D6F72652072657761726473207468616E20696E2072657761726420 PUSH1 0x64 DUP3 ADD MSTORE PUSH7 0x73797374656D21 PUSH1 0xC8 SHL PUSH1 0x84 DUP3 ADD MSTORE PUSH1 0xA4 ADD PUSH2 0x6F7 JUMP JUMPDEST PUSH1 0x9 SLOAD DUP3 GT ISZERO PUSH2 0x1456 JUMPI PUSH1 0x40 MLOAD PUSH3 0x461BCD PUSH1 0xE5 SHL DUP2 MSTORE PUSH1 0x20 PUSH1 0x4 DUP3 ADD MSTORE PUSH1 0x3C PUSH1 0x24 DUP3 ADD MSTORE PUSH32 0x41424F41543A3A73656E645265776172647341734574683A2043616E27742073 PUSH1 0x44 DUP3 ADD MSTORE PUSH32 0x656E64206D6F72652072657761726473207468616E206C696D69742100000000 PUSH1 0x64 DUP3 ADD MSTORE PUSH1 0x84 ADD PUSH2 0x6F7 JUMP JUMPDEST PUSH2 0x145F DUP2 PUSH2 0xF5C JUMP JUMPDEST PUSH2 0x14D1 JUMPI PUSH1 0x40 MLOAD PUSH3 0x461BCD PUSH1 0xE5 SHL DUP2 MSTORE PUSH1 0x20 PUSH1 0x4 DUP3 ADD MSTORE PUSH1 0x3B PUSH1 0x24 DUP3 ADD MSTORE PUSH32 0x41424F41543A3A73656E645265776172647341734574683A2043616E27742063 PUSH1 0x44 DUP3 ADD MSTORE PUSH32 0x6C61696D206D6F7265207468616E206F6E636520706572206461790000000000 PUSH1 0x64 DUP3 ADD MSTORE PUSH1 0x84 ADD PUSH2 0x6F7 JUMP JUMPDEST PUSH2 0x14DA DUP3 PUSH2 0x1C42 JUMP JUMPDEST PUSH1 0x0 PUSH2 0x14F1 PUSH1 0x5 SLOAD SELFBALANCE PUSH2 0x1DBA SWAP1 SWAP2 SWAP1 PUSH4 0xFFFFFFFF AND JUMP JUMPDEST PUSH1 0x6 SLOAD PUSH1 0x5 SLOAD SWAP2 SWAP3 POP PUSH2 0x150F SWAP2 PUSH1 0x1 PUSH1 0x1 PUSH1 0xA0 SHL SUB SWAP1 SWAP2 AND SWAP1 PUSH2 0x1B18 JUMP JUMPDEST PUSH1 0x0 PUSH2 0x151C DUP3 PUSH1 0xA PUSH2 0x1DCD JUMP JUMPDEST SWAP1 POP PUSH2 0x1528 DUP3 DUP3 PUSH2 0x1DBA JUMP JUMPDEST PUSH1 0x7 SLOAD SWAP1 SWAP3 POP PUSH2 0x1541 SWAP1 PUSH1 0x1 PUSH1 0x1 PUSH1 0xA0 SHL SUB AND DUP3 PUSH2 0x1B18 JUMP JUMPDEST PUSH2 0x154B DUP4 DUP4 PUSH2 0x1B18 JUMP JUMPDEST DUP1 DUP3 DUP5 PUSH1 0x1 PUSH1 0x1 PUSH1 0xA0 SHL SUB AND PUSH32 0x75B2EAC24930BF6A8227DBE172D34480E56BE5C6994435067628424190D53431 PUSH1 0x40 MLOAD PUSH1 0x40 MLOAD DUP1 SWAP2 SUB SWAP1 LOG4 POP POP POP POP JUMP JUMPDEST PUSH1 0x0 SLOAD PUSH1 0x1 PUSH1 0x1 PUSH1 0xA0 SHL SUB AND CALLER EQ PUSH2 0x15B3 JUMPI PUSH1 0x40 MLOAD PUSH3 0x461BCD PUSH1 0xE5 SHL DUP2 MSTORE PUSH1 0x4 ADD PUSH2 0x6F7 SWAP1 PUSH2 0x20D7 JUMP JUMPDEST PUSH1 0x40 DUP1 MLOAD DUP1 DUP3 ADD SWAP1 SWAP2 MSTORE PUSH1 0x19 DUP2 MSTORE PUSH32 0x61646A7573744D6178416D6F756E745065725265636569766500000000000000 PUSH1 0x20 DUP3 ADD MSTORE PUSH1 0x0 SLOAD PUSH1 0x1 PUSH1 0xA0 SHL SWAP1 DIV PUSH1 0xFF AND ISZERO DUP1 PUSH2 0x1680 JUMPI POP PUSH1 0x1 DUP2 PUSH1 0x40 MLOAD PUSH2 0x160B SWAP2 SWAP1 PUSH2 0x20BB JUMP JUMPDEST SWAP1 DUP2 MSTORE PUSH1 0x20 ADD PUSH1 0x40 MLOAD DUP1 SWAP2 SUB SWAP1 KECCAK256 SLOAD PUSH1 0x0 EQ ISZERO DUP1 ISZERO PUSH2 0x1648 JUMPI POP TIMESTAMP PUSH1 0x1 DUP3 PUSH1 0x40 MLOAD PUSH2 0x1636 SWAP2 SWAP1 PUSH2 0x20BB JUMP JUMPDEST SWAP1 DUP2 MSTORE PUSH1 0x20 ADD PUSH1 0x40 MLOAD DUP1 SWAP2 SUB SWAP1 KECCAK256 SLOAD GT ISZERO JUMPDEST DUP1 ISZERO PUSH2 0x1680 JUMPI POP TIMESTAMP PUSH3 0x15180 PUSH1 0x1 DUP4 PUSH1 0x40 MLOAD PUSH2 0x1664 SWAP2 SWAP1 PUSH2 0x20BB JUMP JUMPDEST SWAP1 DUP2 MSTORE PUSH1 0x20 ADD PUSH1 0x40 MLOAD DUP1 SWAP2 SUB SWAP1 KECCAK256 SLOAD PUSH2 0x167D SWAP2 SWAP1 PUSH2 0x2253 JUMP JUMPDEST LT ISZERO JUMPDEST PUSH2 0x169C JUMPI PUSH1 0x40 MLOAD PUSH3 0x461BCD PUSH1 0xE5 SHL DUP2 MSTORE PUSH1 0x4 ADD PUSH2 0x6F7 SWAP1 PUSH2 0x210C JUMP JUMPDEST PUSH1 0x9 SLOAD PUSH1 0x40 MLOAD DUP4 SWAP2 SWAP1 PUSH32 0xD07363C93CA88CA1140B355020CB77B0320B19E19A34BB15AA4566D27C2FABBD SWAP1 PUSH1 0x0 SWAP1 LOG3 PUSH1 0x9 DUP3 SWAP1 SSTORE PUSH2 0x8DF DUP2 PUSH2 0x10C8 JUMP JUMPDEST PUSH1 0x0 SLOAD PUSH1 0x1 PUSH1 0x1 PUSH1 0xA0 SHL SUB AND CALLER EQ PUSH2 0x1703 JUMPI PUSH1 0x40 MLOAD PUSH3 0x461BCD PUSH1 0xE5 SHL DUP2 MSTORE PUSH1 0x4 ADD PUSH2 0x6F7 SWAP1 PUSH2 0x20D7 JUMP JUMPDEST PUSH1 0x1 PUSH1 0x1 PUSH1 0xA0 SHL SUB DUP2 AND PUSH2 0x1768 JUMPI PUSH1 0x40 MLOAD PUSH3 0x461BCD PUSH1 0xE5 SHL DUP2 MSTORE PUSH1 0x20 PUSH1 0x4 DUP3 ADD MSTORE PUSH1 0x26 PUSH1 0x24 DUP3 ADD MSTORE PUSH32 0x4F776E61626C653A206E6577206F776E657220697320746865207A65726F2061 PUSH1 0x44 DUP3 ADD MSTORE PUSH6 0x646472657373 PUSH1 0xD0 SHL PUSH1 0x64 DUP3 ADD MSTORE PUSH1 0x84 ADD PUSH2 0x6F7 JUMP JUMPDEST PUSH2 0x1771 DUP2 PUSH2 0x1BF2 JUMP JUMPDEST POP JUMP JUMPDEST CALLER PUSH2 0x1787 PUSH1 0x0 SLOAD PUSH1 0x1 PUSH1 0x1 PUSH1 0xA0 SHL SUB AND SWAP1 JUMP JUMPDEST PUSH1 0x1 PUSH1 0x1 PUSH1 0xA0 SHL SUB AND EQ DUP1 PUSH2 0x17A6 JUMPI POP PUSH1 0x2 SLOAD PUSH1 0x1 PUSH1 0x1 PUSH1 0xA0 SHL SUB AND CALLER EQ JUMPDEST PUSH2 0x17C2 JUMPI PUSH1 0x40 MLOAD PUSH3 0x461BCD PUSH1 0xE5 SHL DUP2 MSTORE PUSH1 0x4 ADD PUSH2 0x6F7 SWAP1 PUSH2 0x2138 JUMP JUMPDEST PUSH1 0x0 DUP1 SLOAD PUSH1 0xFF PUSH1 0xA0 SHL NOT AND PUSH1 0x1 PUSH1 0xA0 SHL OR DUP2 SSTORE PUSH1 0x40 MLOAD PUSH32 0x2C08B62BFAC9A1B19BB1DEC9323F1CE01696A77948B256ABF3603D30F25A864E SWAP2 SWAP1 LOG1 JUMP JUMPDEST PUSH1 0x0 SLOAD PUSH1 0x1 PUSH1 0x1 PUSH1 0xA0 SHL SUB AND CALLER EQ PUSH2 0x1828 JUMPI PUSH1 0x40 MLOAD PUSH3 0x461BCD PUSH1 0xE5 SHL DUP2 MSTORE PUSH1 0x4 ADD PUSH2 0x6F7 SWAP1 PUSH2 0x20D7 JUMP JUMPDEST PUSH1 0x40 DUP1 MLOAD DUP1 DUP3 ADD SWAP1 SWAP2 MSTORE PUSH1 0x11 DUP2 MSTORE PUSH17 0x3AB83230BA32A932BBB0B9322A37B5B2B7 PUSH1 0x79 SHL PUSH1 0x20 DUP3 ADD MSTORE PUSH1 0x0 SLOAD PUSH1 0x1 PUSH1 0xA0 SHL SWAP1 DIV PUSH1 0xFF AND ISZERO DUP1 PUSH2 0x18E9 JUMPI POP PUSH1 0x1 DUP2 PUSH1 0x40 MLOAD PUSH2 0x1874 SWAP2 SWAP1 PUSH2 0x20BB JUMP JUMPDEST SWAP1 DUP2 MSTORE PUSH1 0x20 ADD PUSH1 0x40 MLOAD DUP1 SWAP2 SUB SWAP1 KECCAK256 SLOAD PUSH1 0x0 EQ ISZERO DUP1 ISZERO PUSH2 0x18B1 JUMPI POP TIMESTAMP PUSH1 0x1 DUP3 PUSH1 0x40 MLOAD PUSH2 0x189F SWAP2 SWAP1 PUSH2 0x20BB JUMP JUMPDEST SWAP1 DUP2 MSTORE PUSH1 0x20 ADD PUSH1 0x40 MLOAD DUP1 SWAP2 SUB SWAP1 KECCAK256 SLOAD GT ISZERO JUMPDEST DUP1 ISZERO PUSH2 0x18E9 JUMPI POP TIMESTAMP PUSH3 0x15180 PUSH1 0x1 DUP4 PUSH1 0x40 MLOAD PUSH2 0x18CD SWAP2 SWAP1 PUSH2 0x20BB JUMP JUMPDEST SWAP1 DUP2 MSTORE PUSH1 0x20 ADD PUSH1 0x40 MLOAD DUP1 SWAP2 SUB SWAP1 KECCAK256 SLOAD PUSH2 0x18E6 SWAP2 SWAP1 PUSH2 0x2253 JUMP JUMPDEST LT ISZERO JUMPDEST PUSH2 0x1905 JUMPI PUSH1 0x40 MLOAD PUSH3 0x461BCD PUSH1 0xE5 SHL DUP2 MSTORE PUSH1 0x4 ADD PUSH2 0x6F7 SWAP1 PUSH2 0x210C JUMP JUMPDEST PUSH1 0x8 SLOAD PUSH1 0x1 PUSH1 0x1 PUSH1 0xA0 SHL SUB DUP4 DUP2 AND SWAP2 AND EQ ISZERO PUSH2 0x1989 JUMPI PUSH1 0x40 MLOAD PUSH3 0x461BCD PUSH1 0xE5 SHL DUP2 MSTORE PUSH1 0x20 PUSH1 0x4 DUP3 ADD MSTORE PUSH1 0x3F PUSH1 0x24 DUP3 ADD MSTORE PUSH32 0x41424F41543A757064617465526577617264546F6B656E3A20596F752063616E PUSH1 0x44 DUP3 ADD MSTORE PUSH32 0x277420757064617465207468652065786163742073616D6520746F6B656E7300 PUSH1 0x64 DUP3 ADD MSTORE PUSH1 0x84 ADD PUSH2 0x6F7 JUMP JUMPDEST PUSH1 0x8 SLOAD PUSH1 0x40 MLOAD PUSH1 0x1 PUSH1 0x1 PUSH1 0xA0 SHL SUB DUP1 DUP6 AND SWAP3 AND SWAP1 PUSH32 0xCB89265F21B9FC8710E9D9E42BBB37AF1EB207454DECA6D5E36787BE2367C1D6 SWAP1 PUSH1 0x0 SWAP1 LOG3 PUSH1 0x8 DUP1 SLOAD PUSH1 0x1 PUSH1 0x1 PUSH1 0xA0 SHL SUB NOT AND PUSH1 0x1 PUSH1 0x1 PUSH1 0xA0 SHL SUB DUP5 AND OR SWAP1 SSTORE PUSH2 0x8DF DUP2 PUSH2 0x10C8 JUMP JUMPDEST PUSH1 0x40 DUP1 MLOAD PUSH1 0x1 PUSH1 0x1 PUSH1 0xA0 SHL SUB DUP5 DUP2 AND PUSH1 0x24 DUP4 ADD MSTORE PUSH1 0x44 DUP1 DUP4 ADD DUP6 SWAP1 MSTORE DUP4 MLOAD DUP1 DUP5 SUB SWAP1 SWAP2 ADD DUP2 MSTORE PUSH1 0x64 SWAP1 SWAP3 ADD DUP4 MSTORE PUSH1 0x20 DUP3 ADD DUP1 MLOAD PUSH1 0x1 PUSH1 0x1 PUSH1 0xE0 SHL SUB AND PUSH4 0xA9059CBB PUSH1 0xE0 SHL OR SWAP1 MSTORE SWAP2 MLOAD PUSH1 0x0 SWAP3 DUP4 SWAP3 SWAP1 DUP8 AND SWAP2 PUSH2 0x1A43 SWAP2 SWAP1 PUSH2 0x20BB JUMP JUMPDEST PUSH1 0x0 PUSH1 0x40 MLOAD DUP1 DUP4 SUB DUP2 PUSH1 0x0 DUP7 GAS CALL SWAP2 POP POP RETURNDATASIZE DUP1 PUSH1 0x0 DUP2 EQ PUSH2 0x1A80 JUMPI PUSH1 0x40 MLOAD SWAP2 POP PUSH1 0x1F NOT PUSH1 0x3F RETURNDATASIZE ADD AND DUP3 ADD PUSH1 0x40 MSTORE RETURNDATASIZE DUP3 MSTORE RETURNDATASIZE PUSH1 0x0 PUSH1 0x20 DUP5 ADD RETURNDATACOPY PUSH2 0x1A85 JUMP JUMPDEST PUSH1 0x60 SWAP2 POP JUMPDEST POP SWAP2 POP SWAP2 POP DUP2 DUP1 ISZERO PUSH2 0x1AAF JUMPI POP DUP1 MLOAD ISZERO DUP1 PUSH2 0x1AAF JUMPI POP DUP1 DUP1 PUSH1 0x20 ADD SWAP1 MLOAD DUP2 ADD SWAP1 PUSH2 0x1AAF SWAP2 SWAP1 PUSH2 0x1FA2 JUMP JUMPDEST PUSH2 0x1B11 JUMPI PUSH1 0x40 MLOAD PUSH3 0x461BCD PUSH1 0xE5 SHL DUP2 MSTORE PUSH1 0x20 PUSH1 0x4 DUP3 ADD MSTORE PUSH1 0x2D PUSH1 0x24 DUP3 ADD MSTORE PUSH32 0x5472616E7366657248656C7065723A3A736166655472616E736665723A207472 PUSH1 0x44 DUP3 ADD MSTORE PUSH13 0x185B9CD9995C8819985A5B1959 PUSH1 0x9A SHL PUSH1 0x64 DUP3 ADD MSTORE PUSH1 0x84 ADD PUSH2 0x6F7 JUMP JUMPDEST POP POP POP POP POP JUMP JUMPDEST PUSH1 0x40 DUP1 MLOAD PUSH1 0x0 DUP1 DUP3 MSTORE PUSH1 0x20 DUP3 ADD SWAP1 SWAP3 MSTORE PUSH1 0x1 PUSH1 0x1 PUSH1 0xA0 SHL SUB DUP5 AND SWAP1 DUP4 SWAP1 PUSH1 0x40 MLOAD PUSH2 0x1B42 SWAP2 SWAP1 PUSH2 0x20BB JUMP JUMPDEST PUSH1 0x0 PUSH1 0x40 MLOAD DUP1 DUP4 SUB DUP2 DUP6 DUP8 GAS CALL SWAP3 POP POP POP RETURNDATASIZE DUP1 PUSH1 0x0 DUP2 EQ PUSH2 0x1B7F JUMPI PUSH1 0x40 MLOAD SWAP2 POP PUSH1 0x1F NOT PUSH1 0x3F RETURNDATASIZE ADD AND DUP3 ADD PUSH1 0x40 MSTORE RETURNDATASIZE DUP3 MSTORE RETURNDATASIZE PUSH1 0x0 PUSH1 0x20 DUP5 ADD RETURNDATACOPY PUSH2 0x1B84 JUMP JUMPDEST PUSH1 0x60 SWAP2 POP JUMPDEST POP POP SWAP1 POP DUP1 PUSH2 0xC1B JUMPI PUSH1 0x40 MLOAD PUSH3 0x461BCD PUSH1 0xE5 SHL DUP2 MSTORE PUSH1 0x20 PUSH1 0x4 DUP3 ADD MSTORE PUSH1 0x34 PUSH1 0x24 DUP3 ADD MSTORE PUSH32 0x5472616E7366657248656C7065723A3A736166655472616E736665724554483A PUSH1 0x44 DUP3 ADD MSTORE PUSH20 0x8115512081D1C985B9CD9995C8819985A5B1959 PUSH1 0x62 SHL PUSH1 0x64 DUP3 ADD MSTORE PUSH1 0x84 ADD PUSH2 0x6F7 JUMP JUMPDEST PUSH1 0x0 DUP1 SLOAD PUSH1 0x1 PUSH1 0x1 PUSH1 0xA0 SHL SUB DUP4 DUP2 AND PUSH1 0x1 PUSH1 0x1 PUSH1 0xA0 SHL SUB NOT DUP4 AND DUP2 OR DUP5 SSTORE PUSH1 0x40 MLOAD SWAP2 SWAP1 SWAP3 AND SWAP3 DUP4 SWAP2 PUSH32 0x8BE0079C531659141344CD1FD0A4F28419497F9722A3DAAFE3B4186F6B6457E0 SWAP2 SWAP1 LOG3 POP POP JUMP JUMPDEST PUSH1 0x40 DUP1 MLOAD PUSH1 0x2 DUP1 DUP3 MSTORE PUSH1 0x60 DUP3 ADD DUP4 MSTORE PUSH1 0x0 SWAP3 PUSH1 0x20 DUP4 ADD SWAP1 DUP1 CALLDATASIZE DUP4 CALLDATACOPY POP POP PUSH1 0x8 SLOAD DUP3 MLOAD SWAP3 SWAP4 POP PUSH1 0x1 PUSH1 0x1 PUSH1 0xA0 SHL SUB AND SWAP2 DUP4 SWAP2 POP PUSH1 0x0 SWAP1 PUSH2 0x1C83 JUMPI PUSH2 0x1C83 PUSH2 0x2305 JUMP JUMPDEST PUSH1 0x1 PUSH1 0x1 PUSH1 0xA0 SHL SUB SWAP3 DUP4 AND PUSH1 0x20 SWAP2 DUP3 MUL SWAP3 SWAP1 SWAP3 ADD ADD MSTORE PUSH1 0xA SLOAD DUP3 MLOAD SWAP2 AND SWAP1 DUP3 SWAP1 PUSH1 0x1 SWAP1 DUP2 LT PUSH2 0x1CB4 JUMPI PUSH2 0x1CB4 PUSH2 0x2305 JUMP JUMPDEST PUSH1 0x1 PUSH1 0x1 PUSH1 0xA0 SHL SUB SWAP3 DUP4 AND PUSH1 0x20 SWAP2 DUP3 MUL SWAP3 SWAP1 SWAP3 ADD ADD MSTORE PUSH1 0x8 SLOAD PUSH1 0xB SLOAD PUSH1 0x40 MLOAD PUSH4 0x95EA7B3 PUSH1 0xE0 SHL DUP2 MSTORE SWAP1 DUP4 AND PUSH1 0x4 DUP3 ADD MSTORE PUSH1 0x24 DUP2 ADD DUP6 SWAP1 MSTORE SWAP2 AND SWAP1 PUSH4 0x95EA7B3 SWAP1 PUSH1 0x44 ADD PUSH1 0x20 PUSH1 0x40 MLOAD DUP1 DUP4 SUB DUP2 PUSH1 0x0 DUP8 DUP1 EXTCODESIZE ISZERO DUP1 ISZERO PUSH2 0x1D12 JUMPI PUSH1 0x0 DUP1 REVERT JUMPDEST POP GAS CALL ISZERO DUP1 ISZERO PUSH2 0x1D26 JUMPI RETURNDATASIZE PUSH1 0x0 DUP1 RETURNDATACOPY RETURNDATASIZE PUSH1 0x0 REVERT JUMPDEST POP POP POP POP PUSH1 0x40 MLOAD RETURNDATASIZE PUSH1 0x1F NOT PUSH1 0x1F DUP3 ADD AND DUP3 ADD DUP1 PUSH1 0x40 MSTORE POP DUP2 ADD SWAP1 PUSH2 0x1D4A SWAP2 SWAP1 PUSH2 0x1FA2 JUMP JUMPDEST POP PUSH1 0xB SLOAD PUSH1 0x40 MLOAD PUSH4 0xB6A046B3 PUSH1 0xE0 SHL DUP2 MSTORE PUSH1 0x1 PUSH1 0x1 PUSH1 0xA0 SHL SUB SWAP1 SWAP2 AND SWAP1 PUSH4 0xB6A046B3 SWAP1 PUSH2 0x1D84 SWAP1 DUP6 SWAP1 PUSH1 0x0 SWAP1 DUP7 SWAP1 ADDRESS SWAP1 TIMESTAMP SWAP1 PUSH1 0x4 ADD PUSH2 0x218D JUMP JUMPDEST PUSH1 0x0 PUSH1 0x40 MLOAD DUP1 DUP4 SUB DUP2 PUSH1 0x0 DUP8 DUP1 EXTCODESIZE ISZERO DUP1 ISZERO PUSH2 0x1D9E JUMPI PUSH1 0x0 DUP1 REVERT JUMPDEST POP GAS CALL ISZERO DUP1 ISZERO PUSH2 0x1DB2 JUMPI RETURNDATASIZE PUSH1 0x0 DUP1 RETURNDATACOPY RETURNDATASIZE PUSH1 0x0 REVERT JUMPDEST POP POP POP POP POP POP JUMP JUMPDEST PUSH1 0x0 PUSH2 0x1DC6 DUP3 DUP5 PUSH2 0x228D JUMP JUMPDEST SWAP4 SWAP3 POP POP POP JUMP JUMPDEST PUSH1 0x0 PUSH2 0x1DC6 DUP3 DUP5 PUSH2 0x226B JUMP JUMPDEST PUSH1 0x0 DUP3 PUSH1 0x1F DUP4 ADD SLT PUSH2 0x1DEA JUMPI PUSH1 0x0 DUP1 REVERT JUMPDEST DUP2 CALLDATALOAD PUSH1 0x20 PUSH2 0x1DFF PUSH2 0x1DFA DUP4 PUSH2 0x222F JUMP JUMPDEST PUSH2 0x21FE JUMP JUMPDEST DUP1 DUP4 DUP3 MSTORE DUP3 DUP3 ADD SWAP2 POP DUP3 DUP7 ADD DUP8 DUP5 DUP7 PUSH1 0x5 SHL DUP10 ADD ADD GT ISZERO PUSH2 0x1E1F JUMPI PUSH1 0x0 DUP1 REVERT JUMPDEST PUSH1 0x0 JUMPDEST DUP6 DUP2 LT ISZERO PUSH2 0x1E47 JUMPI DUP2 CALLDATALOAD PUSH2 0x1E35 DUP2 PUSH2 0x2331 JUMP JUMPDEST DUP5 MSTORE SWAP3 DUP5 ADD SWAP3 SWAP1 DUP5 ADD SWAP1 PUSH1 0x1 ADD PUSH2 0x1E22 JUMP JUMPDEST POP SWAP1 SWAP8 SWAP7 POP POP POP POP POP POP POP JUMP JUMPDEST PUSH1 0x0 DUP3 PUSH1 0x1F DUP4 ADD SLT PUSH2 0x1E65 JUMPI PUSH1 0x0 DUP1 REVERT JUMPDEST DUP2 CALLDATALOAD PUSH1 0x20 PUSH2 0x1E75 PUSH2 0x1DFA DUP4 PUSH2 0x222F JUMP JUMPDEST DUP1 DUP4 DUP3 MSTORE DUP3 DUP3 ADD SWAP2 POP DUP3 DUP7 ADD DUP8 DUP5 DUP7 PUSH1 0x5 SHL DUP10 ADD ADD GT ISZERO PUSH2 0x1E95 JUMPI PUSH1 0x0 DUP1 REVERT JUMPDEST PUSH1 0x0 JUMPDEST DUP6 DUP2 LT ISZERO PUSH2 0x1E47 JUMPI DUP2 CALLDATALOAD DUP5 MSTORE SWAP3 DUP5 ADD SWAP3 SWAP1 DUP5 ADD SWAP1 PUSH1 0x1 ADD PUSH2 0x1E98 JUMP JUMPDEST PUSH1 0x0 PUSH1 0x20 DUP3 DUP5 SUB SLT ISZERO PUSH2 0x1EC6 JUMPI PUSH1 0x0 DUP1 REVERT JUMPDEST DUP2 CALLDATALOAD PUSH2 0x1DC6 DUP2 PUSH2 0x2331 JUMP JUMPDEST PUSH1 0x0 DUP1 PUSH1 0x40 DUP4 DUP6 SUB SLT ISZERO PUSH2 0x1EE4 JUMPI PUSH1 0x0 DUP1 REVERT JUMPDEST DUP3 CALLDATALOAD PUSH8 0xFFFFFFFFFFFFFFFF DUP1 DUP3 GT ISZERO PUSH2 0x1EFC JUMPI PUSH1 0x0 DUP1 REVERT JUMPDEST PUSH2 0x1F08 DUP7 DUP4 DUP8 ADD PUSH2 0x1E54 JUMP JUMPDEST SWAP4 POP PUSH1 0x20 DUP6 ADD CALLDATALOAD SWAP2 POP DUP1 DUP3 GT ISZERO PUSH2 0x1F1E JUMPI PUSH1 0x0 DUP1 REVERT JUMPDEST POP PUSH2 0x1F2B DUP6 DUP3 DUP7 ADD PUSH2 0x1DD9 JUMP JUMPDEST SWAP2 POP POP SWAP3 POP SWAP3 SWAP1 POP JUMP JUMPDEST PUSH1 0x0 DUP1 PUSH1 0x0 PUSH1 0x60 DUP5 DUP7 SUB SLT ISZERO PUSH2 0x1F4A JUMPI PUSH1 0x0 DUP1 REVERT JUMPDEST DUP4 CALLDATALOAD PUSH8 0xFFFFFFFFFFFFFFFF DUP1 DUP3 GT ISZERO PUSH2 0x1F62 JUMPI PUSH1 0x0 DUP1 REVERT JUMPDEST PUSH2 0x1F6E DUP8 DUP4 DUP9 ADD PUSH2 0x1E54 JUMP JUMPDEST SWAP5 POP PUSH1 0x20 DUP7 ADD CALLDATALOAD SWAP2 POP DUP1 DUP3 GT ISZERO PUSH2 0x1F84 JUMPI PUSH1 0x0 DUP1 REVERT JUMPDEST POP PUSH2 0x1F91 DUP7 DUP3 DUP8 ADD PUSH2 0x1DD9 JUMP JUMPDEST SWAP3 POP POP PUSH1 0x40 DUP5 ADD CALLDATALOAD SWAP1 POP SWAP3 POP SWAP3 POP SWAP3 JUMP JUMPDEST PUSH1 0x0 PUSH1 0x20 DUP3 DUP5 SUB SLT ISZERO PUSH2 0x1FB4 JUMPI PUSH1 0x0 DUP1 REVERT JUMPDEST DUP2 MLOAD DUP1 ISZERO ISZERO DUP2 EQ PUSH2 0x1DC6 JUMPI PUSH1 0x0 DUP1 REVERT JUMPDEST PUSH1 0x0 PUSH1 0x20 DUP1 DUP4 DUP6 SUB SLT ISZERO PUSH2 0x1FD7 JUMPI PUSH1 0x0 DUP1 REVERT JUMPDEST DUP3 CALLDATALOAD PUSH8 0xFFFFFFFFFFFFFFFF DUP1 DUP3 GT ISZERO PUSH2 0x1FEF JUMPI PUSH1 0x0 DUP1 REVERT JUMPDEST DUP2 DUP6 ADD SWAP2 POP DUP6 PUSH1 0x1F DUP4 ADD SLT PUSH2 0x2003 JUMPI PUSH1 0x0 DUP1 REVERT JUMPDEST DUP2 CALLDATALOAD DUP2 DUP2 GT ISZERO PUSH2 0x2015 JUMPI PUSH2 0x2015 PUSH2 0x231B JUMP JUMPDEST PUSH2 0x2027 PUSH1 0x1F DUP3 ADD PUSH1 0x1F NOT AND DUP6 ADD PUSH2 0x21FE JUMP JUMPDEST SWAP2 POP DUP1 DUP3 MSTORE DUP7 DUP5 DUP3 DUP6 ADD ADD GT ISZERO PUSH2 0x203D JUMPI PUSH1 0x0 DUP1 REVERT JUMPDEST DUP1 DUP5 DUP5 ADD DUP6 DUP5 ADD CALLDATACOPY PUSH1 0x0 SWAP1 DUP3 ADD SWAP1 SWAP4 ADD SWAP3 SWAP1 SWAP3 MSTORE POP SWAP4 SWAP3 POP POP POP JUMP JUMPDEST PUSH1 0x0 PUSH1 0x20 DUP3 DUP5 SUB SLT ISZERO PUSH2 0x206B JUMPI PUSH1 0x0 DUP1 REVERT JUMPDEST POP CALLDATALOAD SWAP2 SWAP1 POP JUMP JUMPDEST PUSH1 0x0 PUSH1 0x20 DUP3 DUP5 SUB SLT ISZERO PUSH2 0x2084 JUMPI PUSH1 0x0 DUP1 REVERT JUMPDEST POP MLOAD SWAP2 SWAP1 POP JUMP JUMPDEST PUSH1 0x0 DUP1 PUSH1 0x40 DUP4 DUP6 SUB SLT ISZERO PUSH2 0x209E JUMPI PUSH1 0x0 DUP1 REVERT JUMPDEST DUP3 CALLDATALOAD SWAP2 POP PUSH1 0x20 DUP4 ADD CALLDATALOAD PUSH2 0x20B0 DUP2 PUSH2 0x2331 JUMP JUMPDEST DUP1 SWAP2 POP POP SWAP3 POP SWAP3 SWAP1 POP JUMP JUMPDEST PUSH1 0x0 DUP3 MLOAD PUSH2 0x20CD DUP2 DUP5 PUSH1 0x20 DUP8 ADD PUSH2 0x22A4 JUMP JUMPDEST SWAP2 SWAP1 SWAP2 ADD SWAP3 SWAP2 POP POP JUMP JUMPDEST PUSH1 0x20 DUP1 DUP3 MSTORE DUP2 DUP2 ADD MSTORE PUSH32 0x4F776E61626C653A2063616C6C6572206973206E6F7420746865206F776E6572 PUSH1 0x40 DUP3 ADD MSTORE PUSH1 0x60 ADD SWAP1 JUMP JUMPDEST PUSH1 0x20 DUP1 DUP3 MSTORE PUSH1 0x12 SWAP1 DUP3 ADD MSTORE PUSH18 0x119D5B98DD1A5BDB881A5CC81B1BD8DAD959 PUSH1 0x72 SHL PUSH1 0x40 DUP3 ADD MSTORE PUSH1 0x60 ADD SWAP1 JUMP JUMPDEST PUSH1 0x20 DUP1 DUP3 MSTORE PUSH1 0x35 SWAP1 DUP3 ADD MSTORE PUSH32 0x6F70657261746F723A2063616C6C6572206973206E6F7420616C6C6F77656420 PUSH1 0x40 DUP3 ADD MSTORE PUSH21 0x3A379031B0B636103A3434B990333AB731BA34B7B7 PUSH1 0x59 SHL PUSH1 0x60 DUP3 ADD MSTORE PUSH1 0x80 ADD SWAP1 JUMP JUMPDEST PUSH1 0x0 PUSH1 0xA0 DUP3 ADD DUP8 DUP4 MSTORE PUSH1 0x20 DUP8 DUP2 DUP6 ADD MSTORE PUSH1 0xA0 PUSH1 0x40 DUP6 ADD MSTORE DUP2 DUP8 MLOAD DUP1 DUP5 MSTORE PUSH1 0xC0 DUP7 ADD SWAP2 POP DUP3 DUP10 ADD SWAP4 POP PUSH1 0x0 JUMPDEST DUP2 DUP2 LT ISZERO PUSH2 0x21DD JUMPI DUP5 MLOAD PUSH1 0x1 PUSH1 0x1 PUSH1 0xA0 SHL SUB AND DUP4 MSTORE SWAP4 DUP4 ADD SWAP4 SWAP2 DUP4 ADD SWAP2 PUSH1 0x1 ADD PUSH2 0x21B8 JUMP JUMPDEST POP POP PUSH1 0x1 PUSH1 0x1 PUSH1 0xA0 SHL SUB SWAP7 SWAP1 SWAP7 AND PUSH1 0x60 DUP6 ADD MSTORE POP POP POP PUSH1 0x80 ADD MSTORE SWAP4 SWAP3 POP POP POP JUMP JUMPDEST PUSH1 0x40 MLOAD PUSH1 0x1F DUP3 ADD PUSH1 0x1F NOT AND DUP2 ADD PUSH8 0xFFFFFFFFFFFFFFFF DUP2 GT DUP3 DUP3 LT OR ISZERO PUSH2 0x2227 JUMPI PUSH2 0x2227 PUSH2 0x231B JUMP JUMPDEST PUSH1 0x40 MSTORE SWAP2 SWAP1 POP JUMP JUMPDEST PUSH1 0x0 PUSH8 0xFFFFFFFFFFFFFFFF DUP3 GT ISZERO PUSH2 0x2249 JUMPI PUSH2 0x2249 PUSH2 0x231B JUMP JUMPDEST POP PUSH1 0x5 SHL PUSH1 0x20 ADD SWAP1 JUMP JUMPDEST PUSH1 0x0 DUP3 NOT DUP3 GT ISZERO PUSH2 0x2266 JUMPI PUSH2 0x2266 PUSH2 0x22EF JUMP JUMPDEST POP ADD SWAP1 JUMP JUMPDEST PUSH1 0x0 DUP3 PUSH2 0x2288 JUMPI PUSH4 0x4E487B71 PUSH1 0xE0 SHL PUSH1 0x0 MSTORE PUSH1 0x12 PUSH1 0x4 MSTORE PUSH1 0x24 PUSH1 0x0 REVERT JUMPDEST POP DIV SWAP1 JUMP JUMPDEST PUSH1 0x0 DUP3 DUP3 LT ISZERO PUSH2 0x229F JUMPI PUSH2 0x229F PUSH2 0x22EF JUMP JUMPDEST POP SUB SWAP1 JUMP JUMPDEST PUSH1 0x0 JUMPDEST DUP4 DUP2 LT ISZERO PUSH2 0x22BF JUMPI DUP2 DUP2 ADD MLOAD DUP4 DUP3 ADD MSTORE PUSH1 0x20 ADD PUSH2 0x22A7 JUMP JUMPDEST DUP4 DUP2 GT ISZERO PUSH2 0x22CE JUMPI PUSH1 0x0 DUP5 DUP5 ADD MSTORE JUMPDEST POP POP POP POP JUMP JUMPDEST PUSH1 0x0 PUSH1 0x0 NOT DUP3 EQ ISZERO PUSH2 0x22E8 JUMPI PUSH2 0x22E8 PUSH2 0x22EF JUMP JUMPDEST POP PUSH1 0x1 ADD SWAP1 JUMP JUMPDEST PUSH4 0x4E487B71 PUSH1 0xE0 SHL PUSH1 0x0 MSTORE PUSH1 0x11 PUSH1 0x4 MSTORE PUSH1 0x24 PUSH1 0x0 REVERT JUMPDEST PUSH4 0x4E487B71 PUSH1 0xE0 SHL PUSH1 0x0 MSTORE PUSH1 0x32 PUSH1 0x4 MSTORE PUSH1 0x24 PUSH1 0x0 REVERT JUMPDEST PUSH4 0x4E487B71 PUSH1 0xE0 SHL PUSH1 0x0 MSTORE PUSH1 0x41 PUSH1 0x4 MSTORE PUSH1 0x24 PUSH1 0x0 REVERT JUMPDEST PUSH1 0x1 PUSH1 0x1 PUSH1 0xA0 SHL SUB DUP2 AND DUP2 EQ PUSH2 0x1771 JUMPI PUSH1 0x0 DUP1 REVERT INVALID LOG2 PUSH5 0x6970667358 0x22 SLT KECCAK256 EXTCODECOPY DUP1 POP 0xDD 0xD5 SWAP4 PUSH20 0xBE64F0D36B5150A24A4252D1381BCA0232248C7A DUP14 SGT TIMESTAMP 0xD1 JUMPDEST PUSH5 0x736F6C6343 STOP ADDMOD SMOD STOP CALLER 0x4F PUSH24 0x6E61626C653A2063616C6C6572206973206E6F7420746865 KECCAK256 PUSH16 0x776E6572000000000000000000000000 "
				},
				"gasEstimates": {
					"creation": {
						"codeDepositCost": "1816800",
						"executionCost": "infinite",
						"totalCost": "infinite"
					},
					"external": {
						"_claimTimes(address)": "2601",
						"_devWallet()": "2373",
						"_gasCost()": "2340",
						"_maxAmountPerReceive()": "2407",
						"_oracleWallet()": "2438",
						"_rewardToken()": "2415",
						"_rewards(address)": "2637",
						"_router()": "2437",
						"_weth()": "2416",
						"adjustGasCost(uint256)": "infinite",
						"adjustMaxAmountPerReceive(uint256)": "infinite",
						"canClaim(address)": "5005",
						"canClaimNative(address)": "2707",
						"changeOracleWallet(address)": "infinite",
						"claim()": "infinite",
						"emergencyWithdrawRewardTokens()": "infinite",
						"getBalance()": "infinite",
						"getEthBalance()": "262",
						"isLockEnabled()": "2372",
						"lockFunction(string)": "infinite",
						"maintainer()": "2366",
						"owner()": "2431",
						"renounceOwnership()": "28204",
						"sendRewardAndAdjustGasCost(uint256[],address[],uint256)": "infinite",
						"sendRewards(uint256[],address[])": "infinite",
						"sendRewardsAsEth(uint256,address)": "infinite",
						"setMaintainer(address)": "infinite",
						"setRouter(address)": "26750",
						"setTimelockEnabled()": "29529",
						"timelock(string)": "infinite",
						"transferOwnership(address)": "infinite",
						"unlockFunction(string)": "infinite",
						"updateRewardToken(address)": "infinite"
					},
					"internal": {
						"swapTokensForEth(uint256)": "infinite"
					}
				},
				"methodIdentifiers": {
					"_claimTimes(address)": "f7e77bc2",
					"_devWallet()": "11a63e17",
					"_gasCost()": "7ef189f8",
					"_maxAmountPerReceive()": "5dd53826",
					"_oracleWallet()": "a221a15f",
					"_rewardToken()": "b59c6e0e",
					"_rewards(address)": "7d6dfb7e",
					"_router()": "edae876f",
					"_weth()": "a1764595",
					"adjustGasCost(uint256)": "87df241f",
					"adjustMaxAmountPerReceive(uint256)": "de996a6e",
					"canClaim(address)": "bf3506c1",
					"canClaimNative(address)": "864e49a7",
					"changeOracleWallet(address)": "63cd79b7",
					"claim()": "4e71d92d",
					"emergencyWithdrawRewardTokens()": "2788a9e4",
					"getBalance()": "12065fe0",
					"getEthBalance()": "70ed0ada",
					"isLockEnabled()": "a347511a",
					"lockFunction(string)": "9f531156",
					"maintainer()": "9850d32b",
					"owner()": "8da5cb5b",
					"renounceOwnership()": "715018a6",
					"sendRewardAndAdjustGasCost(uint256[],address[],uint256)": "4a938f00",
					"sendRewards(uint256[],address[])": "478a55eb",
					"sendRewardsAsEth(uint256,address)": "d6e0ece2",
					"setMaintainer(address)": "13ea5d29",
					"setRouter(address)": "c0d78655",
					"setTimelockEnabled()": "f4762fd6",
					"timelock(string)": "f98080c0",
					"transferOwnership(address)": "f2fde38b",
					"unlockFunction(string)": "a607494a",
					"updateRewardToken(address)": "f8cf31cb"
				}
			},
			"storageLayout": {
				"storage": [
					{
						"astId": 7,
						"contract": "contracts/chains/kardiachain/RewardSystem.sol:RewardSystem",
						"label": "_owner",
						"offset": 0,
						"slot": "0",
						"type": "t_address"
					},
					{
						"astId": 2801,
						"contract": "contracts/chains/kardiachain/RewardSystem.sol:RewardSystem",
						"label": "isLockEnabled",
						"offset": 20,
						"slot": "0",
						"type": "t_bool"
					},
					{
						"astId": 2805,
						"contract": "contracts/chains/kardiachain/RewardSystem.sol:RewardSystem",
						"label": "timelock",
						"offset": 0,
						"slot": "1",
						"type": "t_mapping(t_string_memory_ptr,t_uint256)"
					},
					{
						"astId": 2810,
						"contract": "contracts/chains/kardiachain/RewardSystem.sol:RewardSystem",
						"label": "_maintainer",
						"offset": 0,
						"slot": "2",
						"type": "t_address"
					},
					{
						"astId": 1801,
						"contract": "contracts/chains/kardiachain/RewardSystem.sol:RewardSystem",
						"label": "_rewards",
						"offset": 0,
						"slot": "3",
						"type": "t_mapping(t_address,t_bool)"
					},
					{
						"astId": 1805,
						"contract": "contracts/chains/kardiachain/RewardSystem.sol:RewardSystem",
						"label": "_claimTimes",
						"offset": 0,
						"slot": "4",
						"type": "t_mapping(t_address,t_uint256)"
					},
					{
						"astId": 1808,
						"contract": "contracts/chains/kardiachain/RewardSystem.sol:RewardSystem",
						"label": "_gasCost",
						"offset": 0,
						"slot": "5",
						"type": "t_uint256"
					},
					{
						"astId": 1811,
						"contract": "contracts/chains/kardiachain/RewardSystem.sol:RewardSystem",
						"label": "_oracleWallet",
						"offset": 0,
						"slot": "6",
						"type": "t_address"
					},
					{
						"astId": 1814,
						"contract": "contracts/chains/kardiachain/RewardSystem.sol:RewardSystem",
						"label": "_devWallet",
						"offset": 0,
						"slot": "7",
						"type": "t_address"
					},
					{
						"astId": 1817,
						"contract": "contracts/chains/kardiachain/RewardSystem.sol:RewardSystem",
						"label": "_rewardToken",
						"offset": 0,
						"slot": "8",
						"type": "t_contract(IERC20)727"
					},
					{
						"astId": 1820,
						"contract": "contracts/chains/kardiachain/RewardSystem.sol:RewardSystem",
						"label": "_maxAmountPerReceive",
						"offset": 0,
						"slot": "9",
						"type": "t_uint256"
					},
					{
						"astId": 1823,
						"contract": "contracts/chains/kardiachain/RewardSystem.sol:RewardSystem",
						"label": "_weth",
						"offset": 0,
						"slot": "10",
						"type": "t_address"
					},
					{
						"astId": 1829,
						"contract": "contracts/chains/kardiachain/RewardSystem.sol:RewardSystem",
						"label": "_router",
						"offset": 0,
						"slot": "11",
						"type": "t_contract(IKaiDexRouter)2786"
					}
				],
				"types": {
					"t_address": {
						"encoding": "inplace",
						"label": "address",
						"numberOfBytes": "20"
					},
					"t_bool": {
						"encoding": "inplace",
						"label": "bool",
						"numberOfBytes": "1"
					},
					"t_contract(IERC20)727": {
						"encoding": "inplace",
						"label": "contract IERC20",
						"numberOfBytes": "20"
					},
					"t_contract(IKaiDexRouter)2786": {
						"encoding": "inplace",
						"label": "contract IKaiDexRouter",
						"numberOfBytes": "20"
					},
					"t_mapping(t_address,t_bool)": {
						"encoding": "mapping",
						"key": "t_address",
						"label": "mapping(address => bool)",
						"numberOfBytes": "32",
						"value": "t_bool"
					},
					"t_mapping(t_address,t_uint256)": {
						"encoding": "mapping",
						"key": "t_address",
						"label": "mapping(address => uint256)",
						"numberOfBytes": "32",
						"value": "t_uint256"
					},
					"t_mapping(t_string_memory_ptr,t_uint256)": {
						"encoding": "mapping",
						"key": "t_string_memory_ptr",
						"label": "mapping(string => uint256)",
						"numberOfBytes": "32",
						"value": "t_uint256"
					},
					"t_string_memory_ptr": {
						"encoding": "bytes",
						"label": "string",
						"numberOfBytes": "32"
					},
					"t_uint256": {
						"encoding": "inplace",
						"label": "uint256",
						"numberOfBytes": "32"
					}
				}
			},
			"userdoc": {
				"kind": "user",
				"methods": {},
				"version": 1
			}
		}
	}
}