{
	"contracts/BaseFlipPool.sol": {
		"BaseFlipPool": {
			"abi": [
				{
					"inputs": [
						{
							"internalType": "contract IERC20",
							"name": "_flipToken",
							"type": "address"
						},
						{
							"internalType": "contract IERC20",
							"name": "_stakeToken",
							"type": "address"
						},
						{
							"internalType": "contract IERC20",
							"name": "_rewardToken",
							"type": "address"
						},
						{
							"internalType": "address",
							"name": "_rewardSystem",
							"type": "address"
						},
						{
							"internalType": "contract IPancakeSwapMasterChef",
							"name": "_masterChef",
							"type": "address"
						},
						{
							"internalType": "address",
							"name": "_masterEntertainer",
							"type": "address"
						}
					],
					"stateMutability": "nonpayable",
					"type": "constructor"
				},
				{
					"anonymous": false,
					"inputs": [
						{
							"indexed": true,
							"internalType": "address",
							"name": "previousOwner",
							"type": "address"
						},
						{
							"indexed": true,
							"internalType": "address",
							"name": "newOwner",
							"type": "address"
						}
					],
					"name": "OwnershipTransferred",
					"type": "event"
				},
				{
					"anonymous": false,
					"inputs": [
						{
							"indexed": true,
							"internalType": "address",
							"name": "masterEntertainer",
							"type": "address"
						}
					],
					"name": "SetMasterEntertainer",
					"type": "event"
				},
				{
					"anonymous": false,
					"inputs": [
						{
							"indexed": false,
							"internalType": "uint256",
							"name": "amount",
							"type": "uint256"
						}
					],
					"name": "SetMinAmountToSwap",
					"type": "event"
				},
				{
					"anonymous": false,
					"inputs": [
						{
							"indexed": true,
							"internalType": "address",
							"name": "user",
							"type": "address"
						},
						{
							"indexed": true,
							"internalType": "address",
							"name": "newAddress",
							"type": "address"
						}
					],
					"name": "SetRewardSystem",
					"type": "event"
				},
				{
					"anonymous": false,
					"inputs": [
						{
							"indexed": true,
							"internalType": "address",
							"name": "router",
							"type": "address"
						}
					],
					"name": "SetRouter",
					"type": "event"
				},
				{
					"inputs": [
						{
							"internalType": "uint256",
							"name": "_pid",
							"type": "uint256"
						},
						{
							"internalType": "uint256",
							"name": "_amount",
							"type": "uint256"
						}
					],
					"name": "deposit",
					"outputs": [],
					"stateMutability": "nonpayable",
					"type": "function"
				},
				{
					"inputs": [
						{
							"internalType": "uint256",
							"name": "_pid",
							"type": "uint256"
						},
						{
							"internalType": "uint256",
							"name": "_amount",
							"type": "uint256"
						},
						{
							"internalType": "address",
							"name": "_sender",
							"type": "address"
						}
					],
					"name": "emergencyWithdraw",
					"outputs": [],
					"stateMutability": "nonpayable",
					"type": "function"
				},
				{
					"inputs": [],
					"name": "flipToken",
					"outputs": [
						{
							"internalType": "contract IERC20",
							"name": "",
							"type": "address"
						}
					],
					"stateMutability": "view",
					"type": "function"
				},
				{
					"inputs": [
						{
							"internalType": "uint256",
							"name": "_pid",
							"type": "uint256"
						}
					],
					"name": "getDepositFee",
					"outputs": [
						{
							"internalType": "uint256",
							"name": "",
							"type": "uint256"
						}
					],
					"stateMutability": "view",
					"type": "function"
				},
				{
					"inputs": [
						{
							"internalType": "uint256",
							"name": "_pid",
							"type": "uint256"
						}
					],
					"name": "getLiquidity",
					"outputs": [
						{
							"internalType": "uint256",
							"name": "",
							"type": "uint256"
						}
					],
					"stateMutability": "view",
					"type": "function"
				},
				{
					"inputs": [],
					"name": "getMasterChef",
					"outputs": [
						{
							"internalType": "address",
							"name": "",
							"type": "address"
						}
					],
					"stateMutability": "view",
					"type": "function"
				},
				{
					"inputs": [],
					"name": "minAmountToSwap",
					"outputs": [
						{
							"internalType": "uint256",
							"name": "",
							"type": "uint256"
						}
					],
					"stateMutability": "view",
					"type": "function"
				},
				{
					"inputs": [],
					"name": "owner",
					"outputs": [
						{
							"internalType": "address",
							"name": "",
							"type": "address"
						}
					],
					"stateMutability": "view",
					"type": "function"
				},
				{
					"inputs": [],
					"name": "renounceOwnership",
					"outputs": [],
					"stateMutability": "nonpayable",
					"type": "function"
				},
				{
					"inputs": [],
					"name": "rewardSystem",
					"outputs": [
						{
							"internalType": "address",
							"name": "",
							"type": "address"
						}
					],
					"stateMutability": "view",
					"type": "function"
				},
				{
					"inputs": [],
					"name": "rewardToken",
					"outputs": [
						{
							"internalType": "contract IERC20",
							"name": "",
							"type": "address"
						}
					],
					"stateMutability": "view",
					"type": "function"
				},
				{
					"inputs": [
						{
							"internalType": "address",
							"name": "_masterEntertainer",
							"type": "address"
						}
					],
					"name": "setMasterEntertainer",
					"outputs": [],
					"stateMutability": "nonpayable",
					"type": "function"
				},
				{
					"inputs": [
						{
							"internalType": "uint256",
							"name": "_minAmount",
							"type": "uint256"
						}
					],
					"name": "setMinAmountToSwap",
					"outputs": [],
					"stateMutability": "nonpayable",
					"type": "function"
				},
				{
					"inputs": [
						{
							"internalType": "address",
							"name": "_rewardSystem",
							"type": "address"
						}
					],
					"name": "setRewardSystem",
					"outputs": [],
					"stateMutability": "nonpayable",
					"type": "function"
				},
				{
					"inputs": [
						{
							"internalType": "contract IUniswapV2Router02",
							"name": "_router",
							"type": "address"
						}
					],
					"name": "setRouter",
					"outputs": [],
					"stateMutability": "nonpayable",
					"type": "function"
				},
				{
					"inputs": [],
					"name": "stakeToken",
					"outputs": [
						{
							"internalType": "contract IERC20",
							"name": "",
							"type": "address"
						}
					],
					"stateMutability": "view",
					"type": "function"
				},
				{
					"inputs": [
						{
							"internalType": "address",
							"name": "newOwner",
							"type": "address"
						}
					],
					"name": "transferOwnership",
					"outputs": [],
					"stateMutability": "nonpayable",
					"type": "function"
				},
				{
					"inputs": [
						{
							"internalType": "uint256",
							"name": "_pid",
							"type": "uint256"
						},
						{
							"internalType": "uint256",
							"name": "_amount",
							"type": "uint256"
						},
						{
							"internalType": "address",
							"name": "_sender",
							"type": "address"
						}
					],
					"name": "withdraw",
					"outputs": [],
					"stateMutability": "nonpayable",
					"type": "function"
				},
				{
					"stateMutability": "payable",
					"type": "receive"
				}
			],
			"devdoc": {
				"kind": "dev",
				"methods": {
					"owner()": {
						"details": "Returns the address of the current owner."
					},
					"renounceOwnership()": {
						"details": "Leaves the contract without owner. It will not be possible to call `onlyOwner` functions anymore. Can only be called by the current owner. NOTE: Renouncing ownership will leave the contract without an owner, thereby removing any functionality that is only available to the owner."
					},
					"transferOwnership(address)": {
						"details": "Transfers ownership of the contract to a new account (`newOwner`). Can only be called by the current owner."
					}
				},
				"version": 1
			},
			"evm": {
				"assembly": "    /* \"contracts/BaseFlipPool.sol\":754:9669  contract BaseFlipPool is Ownable, IMasterChefContractor {... */\n  mstore(0x40, 0x80)\n    /* \"contracts/BaseFlipPool.sol\":1598:1605  1 ether */\n  0x0de0b6b3a7640000\n    /* \"contracts/BaseFlipPool.sol\":1565:1605  uint256 public minAmountToSwap = 1 ether */\n  0x08\n  sstore\n    /* \"contracts/BaseFlipPool.sol\":2690:3618  constructor(IERC20 _flipToken, IERC20 _stakeToken, IERC20 _rewardToken, address _rewardSystem, IPancakeSwapMasterChef _masterChef, address _masterEntertainer) {... */\n  callvalue\n  dup1\n  iszero\n  tag_1\n  jumpi\n  0x00\n  dup1\n  revert\ntag_1:\n  pop\n  mload(0x40)\n  sub(codesize, bytecodeSize)\n  dup1\n  bytecodeSize\n  dup4\n  codecopy\n  dup2\n  add\n  0x40\n  dup2\n  swap1\n  mstore\n  tag_2\n  swap2\n  tag_3\n  jump\t// in\ntag_2:\n    /* \"@openzeppelin/contracts/access/Ownable.sol\":867:890  _setOwner(_msgSender()) */\n  tag_7\n    /* \"@openzeppelin/contracts/utils/Context.sol\":665:675  msg.sender */\n  caller\n    /* \"@openzeppelin/contracts/access/Ownable.sol\":867:876  _setOwner */\n  tag_10\n    /* \"@openzeppelin/contracts/access/Ownable.sol\":867:890  _setOwner(_msgSender()) */\n  jump\t// in\ntag_7:\n  sub(shl(0xa0, 0x01), 0x01)\n    /* \"contracts/BaseFlipPool.sol\":2867:2900  address(_flipToken) != address(0) */\n  dup7\n  and\n    /* \"contracts/BaseFlipPool.sol\":2859:2937  require(address(_flipToken) != address(0), \"Flip Token can't be zero address\") */\n  tag_12\n  jumpi\n  mload(0x40)\n  shl(0xe5, 0x461bcd)\n  dup2\n  mstore\n    /* \"#utility.yul\":1620:1622   */\n  0x20\n    /* \"contracts/BaseFlipPool.sol\":2859:2937  require(address(_flipToken) != address(0), \"Flip Token can't be zero address\") */\n  0x04\n  dup3\n  add\n    /* \"#utility.yul\":1602:1623   */\n  dup2\n  swap1\n  mstore\n    /* \"#utility.yul\":1639:1657   */\n  0x24\n  dup3\n  add\n    /* \"#utility.yul\":1632:1662   */\n  mstore\n    /* \"#utility.yul\":1698:1732   */\n  0x466c697020546f6b656e2063616e2774206265207a65726f2061646472657373\n    /* \"#utility.yul\":1678:1696   */\n  0x44\n  dup3\n  add\n    /* \"#utility.yul\":1671:1733   */\n  mstore\n    /* \"#utility.yul\":1750:1768   */\n  0x64\n  add\n    /* \"contracts/BaseFlipPool.sol\":2859:2937  require(address(_flipToken) != address(0), \"Flip Token can't be zero address\") */\ntag_13:\n  mload(0x40)\n  dup1\n  swap2\n  sub\n  swap1\n  revert\ntag_12:\n  sub(shl(0xa0, 0x01), 0x01)\n    /* \"contracts/BaseFlipPool.sol\":2955:2989  address(_stakeToken) != address(0) */\n  dup6\n  and\n    /* \"contracts/BaseFlipPool.sol\":2947:3027  require(address(_stakeToken) != address(0), \"Stake Token can't be zero address\") */\n  tag_15\n  jumpi\n  mload(0x40)\n  shl(0xe5, 0x461bcd)\n  dup2\n  mstore\n    /* \"#utility.yul\":1218:1220   */\n  0x20\n    /* \"contracts/BaseFlipPool.sol\":2947:3027  require(address(_stakeToken) != address(0), \"Stake Token can't be zero address\") */\n  0x04\n  dup3\n  add\n    /* \"#utility.yul\":1200:1221   */\n  mstore\n    /* \"#utility.yul\":1257:1259   */\n  0x21\n    /* \"#utility.yul\":1237:1255   */\n  0x24\n  dup3\n  add\n    /* \"#utility.yul\":1230:1260   */\n  mstore\n    /* \"#utility.yul\":1296:1330   */\n  0x5374616b6520546f6b656e2063616e2774206265207a65726f20616464726573\n    /* \"#utility.yul\":1276:1294   */\n  0x44\n  dup3\n  add\n    /* \"#utility.yul\":1269:1331   */\n  mstore\n  shl(0xf8, 0x73)\n    /* \"#utility.yul\":1347:1365   */\n  0x64\n  dup3\n  add\n    /* \"#utility.yul\":1340:1371   */\n  mstore\n    /* \"#utility.yul\":1388:1407   */\n  0x84\n  add\n    /* \"contracts/BaseFlipPool.sol\":2947:3027  require(address(_stakeToken) != address(0), \"Stake Token can't be zero address\") */\n  tag_13\n    /* \"#utility.yul\":1016:1413   */\n  jump\n    /* \"contracts/BaseFlipPool.sol\":2947:3027  require(address(_stakeToken) != address(0), \"Stake Token can't be zero address\") */\ntag_15:\n  sub(shl(0xa0, 0x01), 0x01)\n    /* \"contracts/BaseFlipPool.sol\":3045:3080  address(_rewardToken) != address(0) */\n  dup5\n  and\n    /* \"contracts/BaseFlipPool.sol\":3037:3119  require(address(_rewardToken) != address(0), \"Reward Token can't be zero address\") */\n  tag_18\n  jumpi\n  mload(0x40)\n  shl(0xe5, 0x461bcd)\n  dup2\n  mstore\n    /* \"#utility.yul\":2390:2392   */\n  0x20\n    /* \"contracts/BaseFlipPool.sol\":3037:3119  require(address(_rewardToken) != address(0), \"Reward Token can't be zero address\") */\n  0x04\n  dup3\n  add\n    /* \"#utility.yul\":2372:2393   */\n  mstore\n    /* \"#utility.yul\":2429:2431   */\n  0x22\n    /* \"#utility.yul\":2409:2427   */\n  0x24\n  dup3\n  add\n    /* \"#utility.yul\":2402:2432   */\n  mstore\n    /* \"#utility.yul\":2468:2502   */\n  0x52657761726420546f6b656e2063616e2774206265207a65726f206164647265\n    /* \"#utility.yul\":2448:2466   */\n  0x44\n  dup3\n  add\n    /* \"#utility.yul\":2441:2503   */\n  mstore\n  shl(0xf0, 0x7373)\n    /* \"#utility.yul\":2519:2537   */\n  0x64\n  dup3\n  add\n    /* \"#utility.yul\":2512:2544   */\n  mstore\n    /* \"#utility.yul\":2561:2580   */\n  0x84\n  add\n    /* \"contracts/BaseFlipPool.sol\":3037:3119  require(address(_rewardToken) != address(0), \"Reward Token can't be zero address\") */\n  tag_13\n    /* \"#utility.yul\":2188:2586   */\n  jump\n    /* \"contracts/BaseFlipPool.sol\":3037:3119  require(address(_rewardToken) != address(0), \"Reward Token can't be zero address\") */\ntag_18:\n  sub(shl(0xa0, 0x01), 0x01)\n    /* \"contracts/BaseFlipPool.sol\":3137:3164  _rewardSystem != address(0) */\n  dup4\n  and\n    /* \"contracts/BaseFlipPool.sol\":3129:3204  require(_rewardSystem != address(0), \"Reward System can't be zero address\") */\n  tag_21\n  jumpi\n  mload(0x40)\n  shl(0xe5, 0x461bcd)\n  dup2\n  mstore\n    /* \"#utility.yul\":2793:2795   */\n  0x20\n    /* \"contracts/BaseFlipPool.sol\":3129:3204  require(_rewardSystem != address(0), \"Reward System can't be zero address\") */\n  0x04\n  dup3\n  add\n    /* \"#utility.yul\":2775:2796   */\n  mstore\n    /* \"#utility.yul\":2832:2834   */\n  0x23\n    /* \"#utility.yul\":2812:2830   */\n  0x24\n  dup3\n  add\n    /* \"#utility.yul\":2805:2835   */\n  mstore\n    /* \"#utility.yul\":2871:2905   */\n  0x5265776172642053797374656d2063616e2774206265207a65726f2061646472\n    /* \"#utility.yul\":2851:2869   */\n  0x44\n  dup3\n  add\n    /* \"#utility.yul\":2844:2906   */\n  mstore\n  shl(0xe8, 0x657373)\n    /* \"#utility.yul\":2922:2940   */\n  0x64\n  dup3\n  add\n    /* \"#utility.yul\":2915:2948   */\n  mstore\n    /* \"#utility.yul\":2965:2984   */\n  0x84\n  add\n    /* \"contracts/BaseFlipPool.sol\":3129:3204  require(_rewardSystem != address(0), \"Reward System can't be zero address\") */\n  tag_13\n    /* \"#utility.yul\":2591:2990   */\n  jump\n    /* \"contracts/BaseFlipPool.sol\":3129:3204  require(_rewardSystem != address(0), \"Reward System can't be zero address\") */\ntag_21:\n  sub(shl(0xa0, 0x01), 0x01)\n    /* \"contracts/BaseFlipPool.sol\":3222:3256  address(_masterChef) != address(0) */\n  dup3\n  and\n    /* \"contracts/BaseFlipPool.sol\":3214:3294  require(address(_masterChef) != address(0), \"Master Chef can't be zero address\") */\n  tag_24\n  jumpi\n  mload(0x40)\n  shl(0xe5, 0x461bcd)\n  dup2\n  mstore\n    /* \"#utility.yul\":3197:3199   */\n  0x20\n    /* \"contracts/BaseFlipPool.sol\":3214:3294  require(address(_masterChef) != address(0), \"Master Chef can't be zero address\") */\n  0x04\n  dup3\n  add\n    /* \"#utility.yul\":3179:3200   */\n  mstore\n    /* \"#utility.yul\":3236:3238   */\n  0x21\n    /* \"#utility.yul\":3216:3234   */\n  0x24\n  dup3\n  add\n    /* \"#utility.yul\":3209:3239   */\n  mstore\n    /* \"#utility.yul\":3275:3309   */\n  0x4d617374657220436865662063616e2774206265207a65726f20616464726573\n    /* \"#utility.yul\":3255:3273   */\n  0x44\n  dup3\n  add\n    /* \"#utility.yul\":3248:3310   */\n  mstore\n  shl(0xf8, 0x73)\n    /* \"#utility.yul\":3326:3344   */\n  0x64\n  dup3\n  add\n    /* \"#utility.yul\":3319:3350   */\n  mstore\n    /* \"#utility.yul\":3367:3386   */\n  0x84\n  add\n    /* \"contracts/BaseFlipPool.sol\":3214:3294  require(address(_masterChef) != address(0), \"Master Chef can't be zero address\") */\n  tag_13\n    /* \"#utility.yul\":2995:3392   */\n  jump\n    /* \"contracts/BaseFlipPool.sol\":3214:3294  require(address(_masterChef) != address(0), \"Master Chef can't be zero address\") */\ntag_24:\n  sub(shl(0xa0, 0x01), 0x01)\n    /* \"contracts/BaseFlipPool.sol\":3312:3344  _masterEntertainer != address(0) */\n  dup2\n  and\n    /* \"contracts/BaseFlipPool.sol\":3304:3389  require(_masterEntertainer != address(0), \"Master Entertainer can't be zero address\") */\n  tag_27\n  jumpi\n  mload(0x40)\n  shl(0xe5, 0x461bcd)\n  dup2\n  mstore\n    /* \"#utility.yul\":1981:1983   */\n  0x20\n    /* \"contracts/BaseFlipPool.sol\":3304:3389  require(_masterEntertainer != address(0), \"Master Entertainer can't be zero address\") */\n  0x04\n  dup3\n  add\n    /* \"#utility.yul\":1963:1984   */\n  mstore\n    /* \"#utility.yul\":2020:2022   */\n  0x28\n    /* \"#utility.yul\":2000:2018   */\n  0x24\n  dup3\n  add\n    /* \"#utility.yul\":1993:2023   */\n  mstore\n    /* \"#utility.yul\":2059:2093   */\n  0x4d617374657220456e7465727461696e65722063616e2774206265207a65726f\n    /* \"#utility.yul\":2039:2057   */\n  0x44\n  dup3\n  add\n    /* \"#utility.yul\":2032:2094   */\n  mstore\n  shl(0xc0, 0x2061646472657373)\n    /* \"#utility.yul\":2110:2128   */\n  0x64\n  dup3\n  add\n    /* \"#utility.yul\":2103:2141   */\n  mstore\n    /* \"#utility.yul\":2158:2177   */\n  0x84\n  add\n    /* \"contracts/BaseFlipPool.sol\":3304:3389  require(_masterEntertainer != address(0), \"Master Entertainer can't be zero address\") */\n  tag_13\n    /* \"#utility.yul\":1779:2183   */\n  jump\n    /* \"contracts/BaseFlipPool.sol\":3304:3389  require(_masterEntertainer != address(0), \"Master Entertainer can't be zero address\") */\ntag_27:\n    /* \"contracts/BaseFlipPool.sol\":3399:3408  flipToken */\n  0x04\n    /* \"contracts/BaseFlipPool.sol\":3399:3421  flipToken = _flipToken */\n  dup1\n  sload\n  not(sub(shl(0xa0, 0x01), 0x01))\n  swap1\n  dup2\n  and\n  sub(shl(0xa0, 0x01), 0x01)\n  swap9\n  dup10\n  and\n  or\n  swap1\n  swap2\n  sstore\n  0x01\n    /* \"contracts/BaseFlipPool.sol\":3431:3455  masterChef = _masterChef */\n  dup1\n  sload\n  dup3\n  and\n  swap4\n  dup9\n  and\n  swap4\n  swap1\n  swap4\n  or\n  swap1\n  swap3\n  sstore\n    /* \"contracts/BaseFlipPool.sol\":3465:3482  masterEntertainer */\n  0x07\n    /* \"contracts/BaseFlipPool.sol\":3465:3503  masterEntertainer = _masterEntertainer */\n  dup1\n  sload\n  dup4\n  and\n  swap2\n  dup8\n  and\n  swap2\n  swap1\n  swap2\n  or\n  swap1\n  sstore\n  0x03\n    /* \"contracts/BaseFlipPool.sol\":3513:3537  stakeToken = _stakeToken */\n  dup1\n  sload\n  dup3\n  and\n  swap5\n  dup7\n  and\n  swap5\n  swap1\n  swap5\n  or\n  swap1\n  swap4\n  sstore\n    /* \"contracts/BaseFlipPool.sol\":3547:3558  rewardToken */\n  0x02\n    /* \"contracts/BaseFlipPool.sol\":3547:3573  rewardToken = _rewardToken */\n  dup1\n  sload\n  dup5\n  and\n  swap3\n  dup6\n  and\n  swap3\n  swap1\n  swap3\n  or\n  swap1\n  swap2\n  sstore\n  0x05\n    /* \"contracts/BaseFlipPool.sol\":3583:3611  rewardSystem = _rewardSystem */\n  dup1\n  sload\n  swap1\n  swap3\n  and\n  swap3\n  and\n  swap2\n  swap1\n  swap2\n  or\n  swap1\n  sstore\n    /* \"contracts/BaseFlipPool.sol\":754:9669  contract BaseFlipPool is Ownable, IMasterChefContractor {... */\n  jump(tag_33)\n    /* \"@openzeppelin/contracts/access/Ownable.sol\":2041:2210  function _setOwner(address newOwner) private {... */\ntag_10:\n    /* \"@openzeppelin/contracts/access/Ownable.sol\":2096:2112  address oldOwner */\n  0x00\n    /* \"@openzeppelin/contracts/access/Ownable.sol\":2115:2121  _owner */\n  dup1\n  sload\n  sub(shl(0xa0, 0x01), 0x01)\n    /* \"@openzeppelin/contracts/access/Ownable.sol\":2131:2148  _owner = newOwner */\n  dup4\n  dup2\n  and\n  not(sub(shl(0xa0, 0x01), 0x01))\n  dup4\n  and\n  dup2\n  or\n  dup5\n  sstore\n    /* \"@openzeppelin/contracts/access/Ownable.sol\":2163:2203  OwnershipTransferred(oldOwner, newOwner) */\n  mload(0x40)\n    /* \"@openzeppelin/contracts/access/Ownable.sol\":2115:2121  _owner */\n  swap2\n  swap1\n  swap3\n  and\n  swap3\n  dup4\n  swap2\n    /* \"@openzeppelin/contracts/access/Ownable.sol\":2163:2203  OwnershipTransferred(oldOwner, newOwner) */\n  0x8be0079c531659141344cd1fd0a4f28419497f9722a3daafe3b4186f6b6457e0\n  swap2\n    /* \"@openzeppelin/contracts/access/Ownable.sol\":2096:2112  address oldOwner */\n  swap1\n    /* \"@openzeppelin/contracts/access/Ownable.sol\":2163:2203  OwnershipTransferred(oldOwner, newOwner) */\n  log3\n    /* \"@openzeppelin/contracts/access/Ownable.sol\":2086:2210  {... */\n  pop\n    /* \"@openzeppelin/contracts/access/Ownable.sol\":2041:2210  function _setOwner(address newOwner) private {... */\n  pop\n  jump\t// out\n    /* \"#utility.yul\":14:1011   */\ntag_3:\n    /* \"#utility.yul\":202:208   */\n  0x00\n    /* \"#utility.yul\":210:216   */\n  dup1\n    /* \"#utility.yul\":218:224   */\n  0x00\n    /* \"#utility.yul\":226:232   */\n  dup1\n    /* \"#utility.yul\":234:240   */\n  0x00\n    /* \"#utility.yul\":242:248   */\n  dup1\n    /* \"#utility.yul\":295:298   */\n  0xc0\n    /* \"#utility.yul\":283:292   */\n  dup8\n    /* \"#utility.yul\":274:281   */\n  dup10\n    /* \"#utility.yul\":270:293   */\n  sub\n    /* \"#utility.yul\":266:299   */\n  slt\n    /* \"#utility.yul\":263:316   */\n  iszero\n  tag_35\n  jumpi\n    /* \"#utility.yul\":312:313   */\n  0x00\n    /* \"#utility.yul\":309:310   */\n  dup1\n    /* \"#utility.yul\":302:314   */\n  revert\n    /* \"#utility.yul\":263:316   */\ntag_35:\n    /* \"#utility.yul\":344:353   */\n  dup7\n    /* \"#utility.yul\":338:354   */\n  mload\n    /* \"#utility.yul\":363:394   */\n  tag_36\n    /* \"#utility.yul\":388:393   */\n  dup2\n    /* \"#utility.yul\":363:394   */\n  tag_37\n  jump\t// in\ntag_36:\n    /* \"#utility.yul\":463:465   */\n  0x20\n    /* \"#utility.yul\":448:466   */\n  dup9\n  add\n    /* \"#utility.yul\":442:467   */\n  mload\n    /* \"#utility.yul\":413:418   */\n  swap1\n  swap7\n  pop\n    /* \"#utility.yul\":476:509   */\n  tag_38\n    /* \"#utility.yul\":442:467   */\n  dup2\n    /* \"#utility.yul\":476:509   */\n  tag_37\n  jump\t// in\ntag_38:\n    /* \"#utility.yul\":580:582   */\n  0x40\n    /* \"#utility.yul\":565:583   */\n  dup9\n  add\n    /* \"#utility.yul\":559:584   */\n  mload\n    /* \"#utility.yul\":528:535   */\n  swap1\n  swap6\n  pop\n    /* \"#utility.yul\":593:626   */\n  tag_39\n    /* \"#utility.yul\":559:584   */\n  dup2\n    /* \"#utility.yul\":593:626   */\n  tag_37\n  jump\t// in\ntag_39:\n    /* \"#utility.yul\":697:699   */\n  0x60\n    /* \"#utility.yul\":682:700   */\n  dup9\n  add\n    /* \"#utility.yul\":676:701   */\n  mload\n    /* \"#utility.yul\":645:652   */\n  swap1\n  swap5\n  pop\n    /* \"#utility.yul\":710:743   */\n  tag_40\n    /* \"#utility.yul\":676:701   */\n  dup2\n    /* \"#utility.yul\":710:743   */\n  tag_37\n  jump\t// in\ntag_40:\n    /* \"#utility.yul\":814:817   */\n  0x80\n    /* \"#utility.yul\":799:818   */\n  dup9\n  add\n    /* \"#utility.yul\":793:819   */\n  mload\n    /* \"#utility.yul\":762:769   */\n  swap1\n  swap4\n  pop\n    /* \"#utility.yul\":828:861   */\n  tag_41\n    /* \"#utility.yul\":793:819   */\n  dup2\n    /* \"#utility.yul\":828:861   */\n  tag_37\n  jump\t// in\ntag_41:\n    /* \"#utility.yul\":932:935   */\n  0xa0\n    /* \"#utility.yul\":917:936   */\n  dup9\n  add\n    /* \"#utility.yul\":911:937   */\n  mload\n    /* \"#utility.yul\":880:887   */\n  swap1\n  swap3\n  pop\n    /* \"#utility.yul\":946:979   */\n  tag_42\n    /* \"#utility.yul\":911:937   */\n  dup2\n    /* \"#utility.yul\":946:979   */\n  tag_37\n  jump\t// in\ntag_42:\n    /* \"#utility.yul\":998:1005   */\n  dup1\n    /* \"#utility.yul\":988:1005   */\n  swap2\n  pop\n  pop\n    /* \"#utility.yul\":14:1011   */\n  swap3\n  swap6\n  pop\n  swap3\n  swap6\n  pop\n  swap3\n  swap6\n  jump\t// out\n    /* \"#utility.yul\":3397:3528   */\ntag_37:\n  sub(shl(0xa0, 0x01), 0x01)\n    /* \"#utility.yul\":3472:3503   */\n  dup2\n  and\n    /* \"#utility.yul\":3462:3504   */\n  dup2\n  eq\n    /* \"#utility.yul\":3452:3522   */\n  tag_50\n  jumpi\n    /* \"#utility.yul\":3518:3519   */\n  0x00\n    /* \"#utility.yul\":3515:3516   */\n  dup1\n    /* \"#utility.yul\":3508:3520   */\n  revert\n    /* \"#utility.yul\":3452:3522   */\ntag_50:\n    /* \"#utility.yul\":3397:3528   */\n  pop\n  jump\t// out\ntag_33:\n    /* \"contracts/BaseFlipPool.sol\":754:9669  contract BaseFlipPool is Ownable, IMasterChefContractor {... */\n  dataSize(sub_0)\n  dup1\n  dataOffset(sub_0)\n  0x00\n  codecopy\n  0x00\n  return\nstop\n\nsub_0: assembly {\n        /* \"contracts/BaseFlipPool.sol\":754:9669  contract BaseFlipPool is Ownable, IMasterChefContractor {... */\n      mstore(0x40, 0x80)\n      jumpi(tag_1, lt(calldatasize, 0x04))\n      shr(0xe0, calldataload(0x00))\n      dup1\n      0x8da5cb5b\n      gt\n      tag_21\n      jumpi\n      dup1\n      0xc0d78655\n      gt\n      tag_22\n      jumpi\n      dup1\n      0xc0d78655\n      eq\n      tag_16\n      jumpi\n      dup1\n      0xe2bbb158\n      eq\n      tag_17\n      jumpi\n      dup1\n      0xf2fde38b\n      eq\n      tag_18\n      jumpi\n      dup1\n      0xf72b2a4c\n      eq\n      tag_19\n      jumpi\n      dup1\n      0xf7c618c1\n      eq\n      tag_20\n      jumpi\n      0x00\n      dup1\n      revert\n    tag_22:\n      dup1\n      0x8da5cb5b\n      eq\n      tag_12\n      jumpi\n      dup1\n      0x951583c3\n      eq\n      tag_13\n      jumpi\n      dup1\n      0x9fbe42e3\n      eq\n      tag_14\n      jumpi\n      dup1\n      0xb5644963\n      eq\n      tag_15\n      jumpi\n      0x00\n      dup1\n      revert\n    tag_21:\n      dup1\n      0x51ed6a30\n      gt\n      tag_23\n      jumpi\n      dup1\n      0x51ed6a30\n      eq\n      tag_7\n      jumpi\n      dup1\n      0x54613450\n      eq\n      tag_8\n      jumpi\n      dup1\n      0x5945365e\n      eq\n      tag_9\n      jumpi\n      dup1\n      0x715018a6\n      eq\n      tag_10\n      jumpi\n      dup1\n      0x73d38793\n      eq\n      tag_11\n      jumpi\n      0x00\n      dup1\n      revert\n    tag_23:\n      dup1\n      0x0ad58d2f\n      eq\n      tag_3\n      jumpi\n      dup1\n      0x13f43a57\n      eq\n      tag_4\n      jumpi\n      dup1\n      0x2b0a696d\n      eq\n      tag_5\n      jumpi\n      dup1\n      0x2b3ea9e1\n      eq\n      tag_6\n      jumpi\n      0x00\n      dup1\n      revert\n    tag_1:\n      jumpi(tag_2, calldatasize)\n      stop\n    tag_2:\n      0x00\n      dup1\n      revert\n        /* \"contracts/BaseFlipPool.sol\":6525:6888  function withdraw(uint256 _pid, uint256 _amount, address _sender) external override onlyMasterEntertainer {... */\n    tag_3:\n      callvalue\n      dup1\n      iszero\n      tag_26\n      jumpi\n      0x00\n      dup1\n      revert\n    tag_26:\n      pop\n      tag_27\n      tag_28\n      calldatasize\n      0x04\n      tag_29\n      jump\t// in\n    tag_28:\n      tag_30\n      jump\t// in\n    tag_27:\n      stop\n        /* \"contracts/BaseFlipPool.sol\":1565:1605  uint256 public minAmountToSwap = 1 ether */\n    tag_4:\n      callvalue\n      dup1\n      iszero\n      tag_31\n      jumpi\n      0x00\n      dup1\n      revert\n    tag_31:\n      pop\n      tag_32\n      sload(0x08)\n      dup2\n      jump\n    tag_32:\n      mload(0x40)\n        /* \"#utility.yul\":9314:9339   */\n      swap1\n      dup2\n      mstore\n        /* \"#utility.yul\":9302:9304   */\n      0x20\n        /* \"#utility.yul\":9287:9305   */\n      add\n        /* \"contracts/BaseFlipPool.sol\":1565:1605  uint256 public minAmountToSwap = 1 ether */\n    tag_34:\n      mload(0x40)\n      dup1\n      swap2\n      sub\n      swap1\n      return\n        /* \"contracts/BaseFlipPool.sol\":4745:4905  function setMinAmountToSwap(uint256 _minAmount) public onlyOwner {... */\n    tag_5:\n      callvalue\n      dup1\n      iszero\n      tag_36\n      jumpi\n      0x00\n      dup1\n      revert\n    tag_36:\n      pop\n      tag_27\n      tag_38\n      calldatasize\n      0x04\n      tag_39\n      jump\t// in\n    tag_38:\n      tag_40\n      jump\t// in\n        /* \"contracts/BaseFlipPool.sol\":3946:4203  function setRewardSystem(address _rewardSystem) public onlyOwner{... */\n    tag_6:\n      callvalue\n      dup1\n      iszero\n      tag_41\n      jumpi\n      0x00\n      dup1\n      revert\n    tag_41:\n      pop\n      tag_27\n      tag_43\n      calldatasize\n      0x04\n      tag_44\n      jump\t// in\n    tag_43:\n      tag_45\n      jump\t// in\n        /* \"contracts/BaseFlipPool.sol\":1335:1359  IERC20 public stakeToken */\n    tag_7:\n      callvalue\n      dup1\n      iszero\n      tag_46\n      jumpi\n      0x00\n      dup1\n      revert\n    tag_46:\n      pop\n      sload(0x03)\n      tag_47\n      swap1\n      sub(shl(0xa0, 0x01), 0x01)\n      and\n      dup2\n      jump\n    tag_47:\n      mload(0x40)\n      sub(shl(0xa0, 0x01), 0x01)\n        /* \"#utility.yul\":3257:3289   */\n      swap1\n      swap2\n      and\n        /* \"#utility.yul\":3239:3290   */\n      dup2\n      mstore\n        /* \"#utility.yul\":3227:3229   */\n      0x20\n        /* \"#utility.yul\":3212:3230   */\n      add\n        /* \"contracts/BaseFlipPool.sol\":1335:1359  IERC20 public stakeToken */\n      tag_34\n        /* \"#utility.yul\":3093:3296   */\n      jump\n        /* \"contracts/BaseFlipPool.sol\":4449:4735  function setMasterEntertainer(address _masterEntertainer) public onlyOwner {... */\n    tag_8:\n      callvalue\n      dup1\n      iszero\n      tag_51\n      jumpi\n      0x00\n      dup1\n      revert\n    tag_51:\n      pop\n      tag_27\n      tag_53\n      calldatasize\n      0x04\n      tag_44\n      jump\t// in\n    tag_53:\n      tag_54\n      jump\t// in\n        /* \"contracts/BaseFlipPool.sol\":1401:1424  IERC20 public flipToken */\n    tag_9:\n      callvalue\n      dup1\n      iszero\n      tag_55\n      jumpi\n      0x00\n      dup1\n      revert\n    tag_55:\n      pop\n      sload(0x04)\n      tag_47\n      swap1\n      sub(shl(0xa0, 0x01), 0x01)\n      and\n      dup2\n      jump\n        /* \"@openzeppelin/contracts/access/Ownable.sol\":1605:1697  function renounceOwnership() public virtual onlyOwner {... */\n    tag_10:\n      callvalue\n      dup1\n      iszero\n      tag_59\n      jumpi\n      0x00\n      dup1\n      revert\n    tag_59:\n      pop\n      tag_27\n      tag_61\n      jump\t// in\n        /* \"contracts/BaseFlipPool.sol\":1455:1482  address public rewardSystem */\n    tag_11:\n      callvalue\n      dup1\n      iszero\n      tag_62\n      jumpi\n      0x00\n      dup1\n      revert\n    tag_62:\n      pop\n      sload(0x05)\n      tag_47\n      swap1\n      sub(shl(0xa0, 0x01), 0x01)\n      and\n      dup2\n      jump\n        /* \"@openzeppelin/contracts/access/Ownable.sol\":973:1058  function owner() public view virtual returns (address) {... */\n    tag_12:\n      callvalue\n      dup1\n      iszero\n      tag_67\n      jumpi\n      0x00\n      dup1\n      revert\n    tag_67:\n      pop\n        /* \"@openzeppelin/contracts/access/Ownable.sol\":1019:1026  address */\n      0x00\n        /* \"@openzeppelin/contracts/access/Ownable.sol\":1045:1051  _owner */\n      sload\n      sub(shl(0xa0, 0x01), 0x01)\n      and\n        /* \"@openzeppelin/contracts/access/Ownable.sol\":973:1058  function owner() public view virtual returns (address) {... */\n      jump(tag_47)\n        /* \"contracts/BaseFlipPool.sol\":5354:5532  function getLiquidity(uint256 _pid) external override view returns (uint256) {... */\n    tag_13:\n      callvalue\n      dup1\n      iszero\n      tag_71\n      jumpi\n      0x00\n      dup1\n      revert\n    tag_71:\n      pop\n      tag_32\n      tag_73\n      calldatasize\n      0x04\n      tag_39\n      jump\t// in\n    tag_73:\n      tag_74\n      jump\t// in\n        /* \"contracts/BaseFlipPool.sol\":5542:5645  function getDepositFee(uint256 _pid) external override view returns (uint256) {... */\n    tag_14:\n      callvalue\n      dup1\n      iszero\n      tag_76\n      jumpi\n      0x00\n      dup1\n      revert\n    tag_76:\n      pop\n      tag_32\n      tag_78\n      calldatasize\n      0x04\n      tag_39\n      jump\t// in\n    tag_78:\n      pop\n        /* \"contracts/BaseFlipPool.sol\":5611:5618  uint256 */\n      0x00\n      swap1\n        /* \"contracts/BaseFlipPool.sol\":5542:5645  function getDepositFee(uint256 _pid) external override view returns (uint256) {... */\n      jump\n        /* \"contracts/BaseFlipPool.sol\":5235:5344  function getMasterChef() external override view returns (address) {... */\n    tag_15:\n      callvalue\n      dup1\n      iszero\n      tag_81\n      jumpi\n      0x00\n      dup1\n      revert\n    tag_81:\n      pop\n        /* \"contracts/BaseFlipPool.sol\":5326:5336  masterChef */\n      and(sub(shl(0xa0, 0x01), 0x01), sload(0x01))\n        /* \"contracts/BaseFlipPool.sol\":5235:5344  function getMasterChef() external override view returns (address) {... */\n      jump(tag_47)\n        /* \"contracts/BaseFlipPool.sol\":4213:4439  function setRouter(IUniswapV2Router02 _router) public onlyOwner {... */\n    tag_16:\n      callvalue\n      dup1\n      iszero\n      tag_85\n      jumpi\n      0x00\n      dup1\n      revert\n    tag_85:\n      pop\n      tag_27\n      tag_87\n      calldatasize\n      0x04\n      tag_44\n      jump\t// in\n    tag_87:\n      tag_89\n      jump\t// in\n        /* \"contracts/BaseFlipPool.sol\":6014:6142  function deposit(uint256 _pid, uint256 _amount) external override onlyMasterEntertainer {... */\n    tag_17:\n      callvalue\n      dup1\n      iszero\n      tag_90\n      jumpi\n      0x00\n      dup1\n      revert\n    tag_90:\n      pop\n      tag_27\n      tag_92\n      calldatasize\n      0x04\n      tag_93\n      jump\t// in\n    tag_92:\n      tag_94\n      jump\t// in\n        /* \"@openzeppelin/contracts/access/Ownable.sol\":1846:2035  function transferOwnership(address newOwner) public virtual onlyOwner {... */\n    tag_18:\n      callvalue\n      dup1\n      iszero\n      tag_95\n      jumpi\n      0x00\n      dup1\n      revert\n    tag_95:\n      pop\n      tag_27\n      tag_97\n      calldatasize\n      0x04\n      tag_44\n      jump\t// in\n    tag_97:\n      tag_98\n      jump\t// in\n        /* \"contracts/BaseFlipPool.sol\":6903:7201  function emergencyWithdraw(uint256 _pid, uint256 _amount, address _sender) external override onlyMasterEntertainer {... */\n    tag_19:\n      callvalue\n      dup1\n      iszero\n      tag_99\n      jumpi\n      0x00\n      dup1\n      revert\n    tag_99:\n      pop\n      tag_27\n      tag_101\n      calldatasize\n      0x04\n      tag_29\n      jump\t// in\n    tag_101:\n      tag_102\n      jump\t// in\n        /* \"contracts/BaseFlipPool.sol\":1275:1300  IERC20 public rewardToken */\n    tag_20:\n      callvalue\n      dup1\n      iszero\n      tag_103\n      jumpi\n      0x00\n      dup1\n      revert\n    tag_103:\n      pop\n      sload(0x02)\n      tag_47\n      swap1\n      sub(shl(0xa0, 0x01), 0x01)\n      and\n      dup2\n      jump\n        /* \"contracts/BaseFlipPool.sol\":6525:6888  function withdraw(uint256 _pid, uint256 _amount, address _sender) external override onlyMasterEntertainer {... */\n    tag_30:\n        /* \"contracts/BaseFlipPool.sol\":2546:2563  masterEntertainer */\n      and(sub(shl(0xa0, 0x01), 0x01), sload(0x07))\n        /* \"contracts/BaseFlipPool.sol\":2531:2541  msg.sender */\n      caller\n        /* \"contracts/BaseFlipPool.sol\":2523:2563  address(msg.sender) == masterEntertainer */\n      eq\n        /* \"contracts/BaseFlipPool.sol\":2515:2657  require(address(msg.sender) == masterEntertainer, \"ABOAT::onlyMasterEntertainer: Only the master entertainer is allowed to call this method!\") */\n      tag_108\n      jumpi\n      mload(0x40)\n      shl(0xe5, 0x461bcd)\n      dup2\n      mstore\n      0x04\n      add\n      tag_109\n      swap1\n      tag_110\n      jump\t// in\n    tag_109:\n      mload(0x40)\n      dup1\n      swap2\n      sub\n      swap1\n      revert\n    tag_108:\n        /* \"contracts/BaseFlipPool.sol\":6644:6653  _pid == 0 */\n      dup3\n        /* \"contracts/BaseFlipPool.sol\":6641:6770  if(_pid == 0) {... */\n      tag_112\n      jumpi\n        /* \"contracts/BaseFlipPool.sol\":6669:6694  leaveStake(_pid, _amount) */\n      tag_113\n        /* \"contracts/BaseFlipPool.sol\":6680:6684  _pid */\n      dup4\n        /* \"contracts/BaseFlipPool.sol\":6686:6693  _amount */\n      dup4\n        /* \"contracts/BaseFlipPool.sol\":6669:6679  leaveStake */\n      tag_114\n        /* \"contracts/BaseFlipPool.sol\":6669:6694  leaveStake(_pid, _amount) */\n      jump\t// in\n    tag_113:\n        /* \"contracts/BaseFlipPool.sol\":6641:6770  if(_pid == 0) {... */\n      jump(tag_115)\n    tag_112:\n        /* \"contracts/BaseFlipPool.sol\":6725:6735  masterChef */\n      sload(0x01)\n        /* \"contracts/BaseFlipPool.sol\":6725:6759  masterChef.withdraw(_pid, _amount) */\n      mload(0x40)\n      shl(0xe4, 0x0441a3e7)\n      dup2\n      mstore\n      0x04\n      dup2\n      add\n        /* \"#utility.yul\":10390:10415   */\n      dup6\n      swap1\n      mstore\n        /* \"#utility.yul\":10431:10449   */\n      0x24\n      dup2\n      add\n        /* \"#utility.yul\":10424:10458   */\n      dup5\n      swap1\n      mstore\n      sub(shl(0xa0, 0x01), 0x01)\n        /* \"contracts/BaseFlipPool.sol\":6725:6735  masterChef */\n      swap1\n      swap2\n      and\n      swap1\n        /* \"contracts/BaseFlipPool.sol\":6725:6744  masterChef.withdraw */\n      0x441a3e70\n      swap1\n        /* \"#utility.yul\":10363:10381   */\n      0x44\n      add\n        /* \"contracts/BaseFlipPool.sol\":6725:6759  masterChef.withdraw(_pid, _amount) */\n      0x00\n      mload(0x40)\n      dup1\n      dup4\n      sub\n      dup2\n      0x00\n      dup8\n      dup1\n      extcodesize\n      iszero\n      dup1\n      iszero\n      tag_118\n      jumpi\n      0x00\n      dup1\n      revert\n    tag_118:\n      pop\n      gas\n      call\n      iszero\n      dup1\n      iszero\n      tag_120\n      jumpi\n      returndatasize\n      0x00\n      dup1\n      returndatacopy\n      revert(0x00, returndatasize)\n    tag_120:\n      pop\n      pop\n      pop\n      pop\n        /* \"contracts/BaseFlipPool.sol\":6641:6770  if(_pid == 0) {... */\n    tag_115:\n        /* \"contracts/BaseFlipPool.sol\":6782:6793  _amount > 0 */\n      dup2\n      iszero\n        /* \"contracts/BaseFlipPool.sol\":6779:6861  if(_amount > 0) {... */\n      tag_122\n      jumpi\n        /* \"contracts/BaseFlipPool.sol\":6809:6819  stakeToken */\n      sload(0x03)\n        /* \"contracts/BaseFlipPool.sol\":6809:6850  stakeToken.safeTransfer(_sender, _amount) */\n      tag_122\n      swap1\n      sub(shl(0xa0, 0x01), 0x01)\n        /* \"contracts/BaseFlipPool.sol\":6809:6819  stakeToken */\n      and\n        /* \"contracts/BaseFlipPool.sol\":6833:6840  _sender */\n      dup3\n        /* \"contracts/BaseFlipPool.sol\":6842:6849  _amount */\n      dup5\n        /* \"contracts/BaseFlipPool.sol\":6809:6832  stakeToken.safeTransfer */\n      tag_123\n        /* \"contracts/BaseFlipPool.sol\":6809:6850  stakeToken.safeTransfer(_sender, _amount) */\n      jump\t// in\n    tag_122:\n        /* \"contracts/BaseFlipPool.sol\":6870:6881  swapToken() */\n      tag_124\n        /* \"contracts/BaseFlipPool.sol\":6870:6879  swapToken */\n      tag_125\n        /* \"contracts/BaseFlipPool.sol\":6870:6881  swapToken() */\n      jump\t// in\n    tag_124:\n        /* \"contracts/BaseFlipPool.sol\":6525:6888  function withdraw(uint256 _pid, uint256 _amount, address _sender) external override onlyMasterEntertainer {... */\n      pop\n      pop\n      pop\n      jump\t// out\n        /* \"contracts/BaseFlipPool.sol\":4745:4905  function setMinAmountToSwap(uint256 _minAmount) public onlyOwner {... */\n    tag_40:\n        /* \"@openzeppelin/contracts/access/Ownable.sol\":1019:1026  address */\n      0x00\n        /* \"@openzeppelin/contracts/access/Ownable.sol\":1045:1051  _owner */\n      sload\n      sub(shl(0xa0, 0x01), 0x01)\n      and\n        /* \"@openzeppelin/contracts/utils/Context.sol\":665:675  msg.sender */\n      caller\n        /* \"@openzeppelin/contracts/access/Ownable.sol\":1185:1208  owner() == _msgSender() */\n      eq\n        /* \"@openzeppelin/contracts/access/Ownable.sol\":1177:1245  require(owner() == _msgSender(), \"Ownable: caller is not the owner\") */\n      tag_130\n      jumpi\n      mload(0x40)\n      shl(0xe5, 0x461bcd)\n      dup2\n      mstore\n      0x04\n      add\n      tag_109\n      swap1\n      tag_132\n      jump\t// in\n    tag_130:\n        /* \"contracts/BaseFlipPool.sol\":4820:4835  minAmountToSwap */\n      0x08\n        /* \"contracts/BaseFlipPool.sol\":4820:4848  minAmountToSwap = _minAmount */\n      dup2\n      swap1\n      sstore\n        /* \"contracts/BaseFlipPool.sol\":4863:4898  SetMinAmountToSwap(minAmountToSwap) */\n      mload(0x40)\n        /* \"#utility.yul\":9314:9339   */\n      dup2\n      dup2\n      mstore\n        /* \"contracts/BaseFlipPool.sol\":4863:4898  SetMinAmountToSwap(minAmountToSwap) */\n      0xa5ce75f7f52a2e09706441f9b9106cfff4275fd35963a11dad9c45b9ae50b288\n      swap1\n        /* \"#utility.yul\":9302:9304   */\n      0x20\n        /* \"#utility.yul\":9287:9305   */\n      add\n        /* \"contracts/BaseFlipPool.sol\":4863:4898  SetMinAmountToSwap(minAmountToSwap) */\n      mload(0x40)\n      dup1\n      swap2\n      sub\n      swap1\n      log1\n        /* \"contracts/BaseFlipPool.sol\":4745:4905  function setMinAmountToSwap(uint256 _minAmount) public onlyOwner {... */\n      pop\n      jump\t// out\n        /* \"contracts/BaseFlipPool.sol\":3946:4203  function setRewardSystem(address _rewardSystem) public onlyOwner{... */\n    tag_45:\n        /* \"@openzeppelin/contracts/access/Ownable.sol\":1019:1026  address */\n      0x00\n        /* \"@openzeppelin/contracts/access/Ownable.sol\":1045:1051  _owner */\n      sload\n      sub(shl(0xa0, 0x01), 0x01)\n      and\n        /* \"@openzeppelin/contracts/utils/Context.sol\":665:675  msg.sender */\n      caller\n        /* \"@openzeppelin/contracts/access/Ownable.sol\":1185:1208  owner() == _msgSender() */\n      eq\n        /* \"@openzeppelin/contracts/access/Ownable.sol\":1177:1245  require(owner() == _msgSender(), \"Ownable: caller is not the owner\") */\n      tag_138\n      jumpi\n      mload(0x40)\n      shl(0xe5, 0x461bcd)\n      dup2\n      mstore\n      0x04\n      add\n      tag_109\n      swap1\n      tag_132\n      jump\t// in\n    tag_138:\n      sub(shl(0xa0, 0x01), 0x01)\n        /* \"contracts/BaseFlipPool.sol\":4028:4055  _rewardSystem != address(0) */\n      dup2\n      and\n        /* \"contracts/BaseFlipPool.sol\":4020:4102  require(_rewardSystem != address(0), \"Reward System can't be set to zero address\") */\n      tag_141\n      jumpi\n      mload(0x40)\n      shl(0xe5, 0x461bcd)\n      dup2\n      mstore\n        /* \"#utility.yul\":8548:8550   */\n      0x20\n        /* \"contracts/BaseFlipPool.sol\":4020:4102  require(_rewardSystem != address(0), \"Reward System can't be set to zero address\") */\n      0x04\n      dup3\n      add\n        /* \"#utility.yul\":8530:8551   */\n      mstore\n        /* \"#utility.yul\":8587:8589   */\n      0x2a\n        /* \"#utility.yul\":8567:8585   */\n      0x24\n      dup3\n      add\n        /* \"#utility.yul\":8560:8590   */\n      mstore\n        /* \"#utility.yul\":8626:8660   */\n      0x5265776172642053797374656d2063616e27742062652073657420746f207a65\n        /* \"#utility.yul\":8606:8624   */\n      0x44\n      dup3\n      add\n        /* \"#utility.yul\":8599:8661   */\n      mstore\n      shl(0xb0, 0x726f2061646472657373)\n        /* \"#utility.yul\":8677:8695   */\n      0x64\n      dup3\n      add\n        /* \"#utility.yul\":8670:8710   */\n      mstore\n        /* \"#utility.yul\":8727:8746   */\n      0x84\n      add\n        /* \"contracts/BaseFlipPool.sol\":4020:4102  require(_rewardSystem != address(0), \"Reward System can't be set to zero address\") */\n      tag_109\n        /* \"#utility.yul\":8346:8752   */\n      jump\n        /* \"contracts/BaseFlipPool.sol\":4020:4102  require(_rewardSystem != address(0), \"Reward System can't be set to zero address\") */\n    tag_141:\n        /* \"contracts/BaseFlipPool.sol\":4112:4124  rewardSystem */\n      0x05\n        /* \"contracts/BaseFlipPool.sol\":4112:4140  rewardSystem = _rewardSystem */\n      dup1\n      sload\n      not(sub(shl(0xa0, 0x01), 0x01))\n      and\n      sub(shl(0xa0, 0x01), 0x01)\n      dup4\n      and\n      swap1\n      dup2\n      or\n      swap1\n      swap2\n      sstore\n        /* \"contracts/BaseFlipPool.sol\":4155:4196  SetRewardSystem(msg.sender, rewardSystem) */\n      mload(0x40)\n        /* \"contracts/BaseFlipPool.sol\":4171:4181  msg.sender */\n      caller\n      swap1\n        /* \"contracts/BaseFlipPool.sol\":4155:4196  SetRewardSystem(msg.sender, rewardSystem) */\n      0xbb802456c4e53c17a623585d276747174bcf39120266b12c32c0bb73df94acb6\n      swap1\n      0x00\n      swap1\n      log3\n        /* \"contracts/BaseFlipPool.sol\":3946:4203  function setRewardSystem(address _rewardSystem) public onlyOwner{... */\n      pop\n      jump\t// out\n        /* \"contracts/BaseFlipPool.sol\":4449:4735  function setMasterEntertainer(address _masterEntertainer) public onlyOwner {... */\n    tag_54:\n        /* \"@openzeppelin/contracts/access/Ownable.sol\":1019:1026  address */\n      0x00\n        /* \"@openzeppelin/contracts/access/Ownable.sol\":1045:1051  _owner */\n      sload\n      sub(shl(0xa0, 0x01), 0x01)\n      and\n        /* \"@openzeppelin/contracts/utils/Context.sol\":665:675  msg.sender */\n      caller\n        /* \"@openzeppelin/contracts/access/Ownable.sol\":1185:1208  owner() == _msgSender() */\n      eq\n        /* \"@openzeppelin/contracts/access/Ownable.sol\":1177:1245  require(owner() == _msgSender(), \"Ownable: caller is not the owner\") */\n      tag_147\n      jumpi\n      mload(0x40)\n      shl(0xe5, 0x461bcd)\n      dup2\n      mstore\n      0x04\n      add\n      tag_109\n      swap1\n      tag_132\n      jump\t// in\n    tag_147:\n      sub(shl(0xa0, 0x01), 0x01)\n        /* \"contracts/BaseFlipPool.sol\":4542:4574  _masterEntertainer != address(0) */\n      dup2\n      and\n        /* \"contracts/BaseFlipPool.sol\":4534:4626  require(_masterEntertainer != address(0), \"Master Entertainer can't be set to zero address\") */\n      tag_150\n      jumpi\n      mload(0x40)\n      shl(0xe5, 0x461bcd)\n      dup2\n      mstore\n        /* \"#utility.yul\":7774:7776   */\n      0x20\n        /* \"contracts/BaseFlipPool.sol\":4534:4626  require(_masterEntertainer != address(0), \"Master Entertainer can't be set to zero address\") */\n      0x04\n      dup3\n      add\n        /* \"#utility.yul\":7756:7777   */\n      mstore\n        /* \"#utility.yul\":7813:7815   */\n      0x2f\n        /* \"#utility.yul\":7793:7811   */\n      0x24\n      dup3\n      add\n        /* \"#utility.yul\":7786:7816   */\n      mstore\n        /* \"#utility.yul\":7852:7886   */\n      0x4d617374657220456e7465727461696e65722063616e27742062652073657420\n        /* \"#utility.yul\":7832:7850   */\n      0x44\n      dup3\n      add\n        /* \"#utility.yul\":7825:7887   */\n      mstore\n      shl(0x88, 0x746f207a65726f2061646472657373)\n        /* \"#utility.yul\":7903:7921   */\n      0x64\n      dup3\n      add\n        /* \"#utility.yul\":7896:7941   */\n      mstore\n        /* \"#utility.yul\":7958:7977   */\n      0x84\n      add\n        /* \"contracts/BaseFlipPool.sol\":4534:4626  require(_masterEntertainer != address(0), \"Master Entertainer can't be set to zero address\") */\n      tag_109\n        /* \"#utility.yul\":7572:7983   */\n      jump\n        /* \"contracts/BaseFlipPool.sol\":4534:4626  require(_masterEntertainer != address(0), \"Master Entertainer can't be set to zero address\") */\n    tag_150:\n        /* \"contracts/BaseFlipPool.sol\":4636:4653  masterEntertainer */\n      0x07\n        /* \"contracts/BaseFlipPool.sol\":4636:4674  masterEntertainer = _masterEntertainer */\n      dup1\n      sload\n      not(sub(shl(0xa0, 0x01), 0x01))\n      and\n      sub(shl(0xa0, 0x01), 0x01)\n      dup4\n      and\n      swap1\n      dup2\n      or\n      swap1\n      swap2\n      sstore\n        /* \"contracts/BaseFlipPool.sol\":4689:4728  SetMasterEntertainer(masterEntertainer) */\n      mload(0x40)\n      0xbf63a13967243f035997ab7188eae733cdf9c8f25ea71389d3a0615450a07286\n      swap1\n      0x00\n      swap1\n      log2\n        /* \"contracts/BaseFlipPool.sol\":4449:4735  function setMasterEntertainer(address _masterEntertainer) public onlyOwner {... */\n      pop\n      jump\t// out\n        /* \"@openzeppelin/contracts/access/Ownable.sol\":1605:1697  function renounceOwnership() public virtual onlyOwner {... */\n    tag_61:\n        /* \"@openzeppelin/contracts/access/Ownable.sol\":1019:1026  address */\n      0x00\n        /* \"@openzeppelin/contracts/access/Ownable.sol\":1045:1051  _owner */\n      sload\n      sub(shl(0xa0, 0x01), 0x01)\n      and\n        /* \"@openzeppelin/contracts/utils/Context.sol\":665:675  msg.sender */\n      caller\n        /* \"@openzeppelin/contracts/access/Ownable.sol\":1185:1208  owner() == _msgSender() */\n      eq\n        /* \"@openzeppelin/contracts/access/Ownable.sol\":1177:1245  require(owner() == _msgSender(), \"Ownable: caller is not the owner\") */\n      tag_156\n      jumpi\n      mload(0x40)\n      shl(0xe5, 0x461bcd)\n      dup2\n      mstore\n      0x04\n      add\n      tag_109\n      swap1\n      tag_132\n      jump\t// in\n    tag_156:\n        /* \"@openzeppelin/contracts/access/Ownable.sol\":1669:1690  _setOwner(address(0)) */\n      tag_159\n        /* \"@openzeppelin/contracts/access/Ownable.sol\":1687:1688  0 */\n      0x00\n        /* \"@openzeppelin/contracts/access/Ownable.sol\":1669:1678  _setOwner */\n      tag_160\n        /* \"@openzeppelin/contracts/access/Ownable.sol\":1669:1690  _setOwner(address(0)) */\n      jump\t// in\n    tag_159:\n        /* \"@openzeppelin/contracts/access/Ownable.sol\":1605:1697  function renounceOwnership() public virtual onlyOwner {... */\n      jump\t// out\n        /* \"contracts/BaseFlipPool.sol\":5354:5532  function getLiquidity(uint256 _pid) external override view returns (uint256) {... */\n    tag_74:\n        /* \"contracts/BaseFlipPool.sol\":5462:5472  masterChef */\n      sload(0x01)\n        /* \"contracts/BaseFlipPool.sol\":5462:5502  masterChef.userInfo(_pid, address(this)) */\n      mload(0x40)\n      shl(0xe0, 0x93f1a40b)\n      dup2\n      mstore\n      0x04\n      dup2\n      add\n        /* \"#utility.yul\":9524:9549   */\n      dup4\n      swap1\n      mstore\n        /* \"contracts/BaseFlipPool.sol\":5496:5500  this */\n      address\n        /* \"#utility.yul\":9565:9583   */\n      0x24\n      dup3\n      add\n        /* \"#utility.yul\":9558:9618   */\n      mstore\n        /* \"contracts/BaseFlipPool.sol\":5422:5429  uint256 */\n      0x00\n      swap2\n      dup3\n      swap2\n      sub(shl(0xa0, 0x01), 0x01)\n        /* \"contracts/BaseFlipPool.sol\":5462:5472  masterChef */\n      swap1\n      swap2\n      and\n      swap1\n        /* \"contracts/BaseFlipPool.sol\":5462:5481  masterChef.userInfo */\n      0x93f1a40b\n      swap1\n        /* \"#utility.yul\":9497:9515   */\n      0x44\n      add\n        /* \"contracts/BaseFlipPool.sol\":5462:5502  masterChef.userInfo(_pid, address(this)) */\n      0x40\n      dup1\n      mload\n      dup1\n      dup4\n      sub\n      dup2\n      dup7\n      dup1\n      extcodesize\n      iszero\n      dup1\n      iszero\n      tag_165\n      jumpi\n      0x00\n      dup1\n      revert\n    tag_165:\n      pop\n      gas\n      staticcall\n      iszero\n      dup1\n      iszero\n      tag_167\n      jumpi\n      returndatasize\n      0x00\n      dup1\n      returndatacopy\n      revert(0x00, returndatasize)\n    tag_167:\n      pop\n      pop\n      pop\n      pop\n      mload(0x40)\n      returndatasize\n      not(0x1f)\n      0x1f\n      dup3\n      add\n      and\n      dup3\n      add\n      dup1\n      0x40\n      mstore\n      pop\n      dup2\n      add\n      swap1\n      tag_168\n      swap2\n      swap1\n      tag_169\n      jump\t// in\n    tag_168:\n      pop\n        /* \"contracts/BaseFlipPool.sol\":5441:5502  (uint256 amount, ) = masterChef.userInfo(_pid, address(this)) */\n      swap4\n        /* \"contracts/BaseFlipPool.sol\":5354:5532  function getLiquidity(uint256 _pid) external override view returns (uint256) {... */\n      swap3\n      pop\n      pop\n      pop\n      jump\t// out\n        /* \"contracts/BaseFlipPool.sol\":4213:4439  function setRouter(IUniswapV2Router02 _router) public onlyOwner {... */\n    tag_89:\n        /* \"@openzeppelin/contracts/access/Ownable.sol\":1019:1026  address */\n      0x00\n        /* \"@openzeppelin/contracts/access/Ownable.sol\":1045:1051  _owner */\n      sload\n      sub(shl(0xa0, 0x01), 0x01)\n      and\n        /* \"@openzeppelin/contracts/utils/Context.sol\":665:675  msg.sender */\n      caller\n        /* \"@openzeppelin/contracts/access/Ownable.sol\":1185:1208  owner() == _msgSender() */\n      eq\n        /* \"@openzeppelin/contracts/access/Ownable.sol\":1177:1245  require(owner() == _msgSender(), \"Ownable: caller is not the owner\") */\n      tag_175\n      jumpi\n      mload(0x40)\n      shl(0xe5, 0x461bcd)\n      dup2\n      mstore\n      0x04\n      add\n      tag_109\n      swap1\n      tag_132\n      jump\t// in\n    tag_175:\n      sub(shl(0xa0, 0x01), 0x01)\n        /* \"contracts/BaseFlipPool.sol\":4295:4325  address(_router) != address(0) */\n      dup2\n      and\n        /* \"contracts/BaseFlipPool.sol\":4287:4365  require(address(_router) != address(0), \"Router can't be set to zero address\") */\n      tag_178\n      jumpi\n      mload(0x40)\n      shl(0xe5, 0x461bcd)\n      dup2\n      mstore\n        /* \"#utility.yul\":6599:6601   */\n      0x20\n        /* \"contracts/BaseFlipPool.sol\":4287:4365  require(address(_router) != address(0), \"Router can't be set to zero address\") */\n      0x04\n      dup3\n      add\n        /* \"#utility.yul\":6581:6602   */\n      mstore\n        /* \"#utility.yul\":6638:6640   */\n      0x23\n        /* \"#utility.yul\":6618:6636   */\n      0x24\n      dup3\n      add\n        /* \"#utility.yul\":6611:6641   */\n      mstore\n        /* \"#utility.yul\":6677:6711   */\n      0x526f757465722063616e27742062652073657420746f207a65726f2061646472\n        /* \"#utility.yul\":6657:6675   */\n      0x44\n      dup3\n      add\n        /* \"#utility.yul\":6650:6712   */\n      mstore\n      shl(0xe8, 0x657373)\n        /* \"#utility.yul\":6728:6746   */\n      0x64\n      dup3\n      add\n        /* \"#utility.yul\":6721:6754   */\n      mstore\n        /* \"#utility.yul\":6771:6790   */\n      0x84\n      add\n        /* \"contracts/BaseFlipPool.sol\":4287:4365  require(address(_router) != address(0), \"Router can't be set to zero address\") */\n      tag_109\n        /* \"#utility.yul\":6397:6796   */\n      jump\n        /* \"contracts/BaseFlipPool.sol\":4287:4365  require(address(_router) != address(0), \"Router can't be set to zero address\") */\n    tag_178:\n        /* \"contracts/BaseFlipPool.sol\":4375:4381  router */\n      0x06\n        /* \"contracts/BaseFlipPool.sol\":4375:4391  router = _router */\n      dup1\n      sload\n      not(sub(shl(0xa0, 0x01), 0x01))\n      and\n      sub(shl(0xa0, 0x01), 0x01)\n      dup4\n      and\n      swap1\n      dup2\n      or\n      swap1\n      swap2\n      sstore\n        /* \"contracts/BaseFlipPool.sol\":4406:4432  SetRouter(address(router)) */\n      mload(0x40)\n      0x6de4326a8b9054d72d9dbab97d27bc4edffadee7d966f5af9cc4eafdaf8e5455\n      swap1\n      0x00\n      swap1\n      log2\n        /* \"contracts/BaseFlipPool.sol\":4213:4439  function setRouter(IUniswapV2Router02 _router) public onlyOwner {... */\n      pop\n      jump\t// out\n        /* \"contracts/BaseFlipPool.sol\":6014:6142  function deposit(uint256 _pid, uint256 _amount) external override onlyMasterEntertainer {... */\n    tag_94:\n        /* \"contracts/BaseFlipPool.sol\":2546:2563  masterEntertainer */\n      and(sub(shl(0xa0, 0x01), 0x01), sload(0x07))\n        /* \"contracts/BaseFlipPool.sol\":2531:2541  msg.sender */\n      caller\n        /* \"contracts/BaseFlipPool.sol\":2523:2563  address(msg.sender) == masterEntertainer */\n      eq\n        /* \"contracts/BaseFlipPool.sol\":2515:2657  require(address(msg.sender) == masterEntertainer, \"ABOAT::onlyMasterEntertainer: Only the master entertainer is allowed to call this method!\") */\n      tag_182\n      jumpi\n      mload(0x40)\n      shl(0xe5, 0x461bcd)\n      dup2\n      mstore\n      0x04\n      add\n      tag_109\n      swap1\n      tag_110\n      jump\t// in\n    tag_182:\n        /* \"contracts/BaseFlipPool.sol\":6112:6135  _deposit(_pid, _amount) */\n      tag_185\n        /* \"contracts/BaseFlipPool.sol\":6121:6125  _pid */\n      dup3\n        /* \"contracts/BaseFlipPool.sol\":6127:6134  _amount */\n      dup3\n        /* \"contracts/BaseFlipPool.sol\":6112:6120  _deposit */\n      tag_186\n        /* \"contracts/BaseFlipPool.sol\":6112:6135  _deposit(_pid, _amount) */\n      jump\t// in\n    tag_185:\n        /* \"contracts/BaseFlipPool.sol\":6014:6142  function deposit(uint256 _pid, uint256 _amount) external override onlyMasterEntertainer {... */\n      pop\n      pop\n      jump\t// out\n        /* \"@openzeppelin/contracts/access/Ownable.sol\":1846:2035  function transferOwnership(address newOwner) public virtual onlyOwner {... */\n    tag_98:\n        /* \"@openzeppelin/contracts/access/Ownable.sol\":1019:1026  address */\n      0x00\n        /* \"@openzeppelin/contracts/access/Ownable.sol\":1045:1051  _owner */\n      sload\n      sub(shl(0xa0, 0x01), 0x01)\n      and\n        /* \"@openzeppelin/contracts/utils/Context.sol\":665:675  msg.sender */\n      caller\n        /* \"@openzeppelin/contracts/access/Ownable.sol\":1185:1208  owner() == _msgSender() */\n      eq\n        /* \"@openzeppelin/contracts/access/Ownable.sol\":1177:1245  require(owner() == _msgSender(), \"Ownable: caller is not the owner\") */\n      tag_190\n      jumpi\n      mload(0x40)\n      shl(0xe5, 0x461bcd)\n      dup2\n      mstore\n      0x04\n      add\n      tag_109\n      swap1\n      tag_132\n      jump\t// in\n    tag_190:\n      sub(shl(0xa0, 0x01), 0x01)\n        /* \"@openzeppelin/contracts/access/Ownable.sol\":1934:1956  newOwner != address(0) */\n      dup2\n      and\n        /* \"@openzeppelin/contracts/access/Ownable.sol\":1926:1999  require(newOwner != address(0), \"Ownable: new owner is the zero address\") */\n      tag_193\n      jumpi\n      mload(0x40)\n      shl(0xe5, 0x461bcd)\n      dup2\n      mstore\n        /* \"#utility.yul\":5785:5787   */\n      0x20\n        /* \"@openzeppelin/contracts/access/Ownable.sol\":1926:1999  require(newOwner != address(0), \"Ownable: new owner is the zero address\") */\n      0x04\n      dup3\n      add\n        /* \"#utility.yul\":5767:5788   */\n      mstore\n        /* \"#utility.yul\":5824:5826   */\n      0x26\n        /* \"#utility.yul\":5804:5822   */\n      0x24\n      dup3\n      add\n        /* \"#utility.yul\":5797:5827   */\n      mstore\n        /* \"#utility.yul\":5863:5897   */\n      0x4f776e61626c653a206e6577206f776e657220697320746865207a65726f2061\n        /* \"#utility.yul\":5843:5861   */\n      0x44\n      dup3\n      add\n        /* \"#utility.yul\":5836:5898   */\n      mstore\n      shl(0xd0, 0x646472657373)\n        /* \"#utility.yul\":5914:5932   */\n      0x64\n      dup3\n      add\n        /* \"#utility.yul\":5907:5943   */\n      mstore\n        /* \"#utility.yul\":5960:5979   */\n      0x84\n      add\n        /* \"@openzeppelin/contracts/access/Ownable.sol\":1926:1999  require(newOwner != address(0), \"Ownable: new owner is the zero address\") */\n      tag_109\n        /* \"#utility.yul\":5583:5985   */\n      jump\n        /* \"@openzeppelin/contracts/access/Ownable.sol\":1926:1999  require(newOwner != address(0), \"Ownable: new owner is the zero address\") */\n    tag_193:\n        /* \"@openzeppelin/contracts/access/Ownable.sol\":2009:2028  _setOwner(newOwner) */\n      tag_196\n        /* \"@openzeppelin/contracts/access/Ownable.sol\":2019:2027  newOwner */\n      dup2\n        /* \"@openzeppelin/contracts/access/Ownable.sol\":2009:2018  _setOwner */\n      tag_160\n        /* \"@openzeppelin/contracts/access/Ownable.sol\":2009:2028  _setOwner(newOwner) */\n      jump\t// in\n    tag_196:\n        /* \"@openzeppelin/contracts/access/Ownable.sol\":1846:2035  function transferOwnership(address newOwner) public virtual onlyOwner {... */\n      pop\n      jump\t// out\n        /* \"contracts/BaseFlipPool.sol\":6903:7201  function emergencyWithdraw(uint256 _pid, uint256 _amount, address _sender) external override onlyMasterEntertainer {... */\n    tag_102:\n        /* \"contracts/BaseFlipPool.sol\":2546:2563  masterEntertainer */\n      and(sub(shl(0xa0, 0x01), 0x01), sload(0x07))\n        /* \"contracts/BaseFlipPool.sol\":2531:2541  msg.sender */\n      caller\n        /* \"contracts/BaseFlipPool.sol\":2523:2563  address(msg.sender) == masterEntertainer */\n      eq\n        /* \"contracts/BaseFlipPool.sol\":2515:2657  require(address(msg.sender) == masterEntertainer, \"ABOAT::onlyMasterEntertainer: Only the master entertainer is allowed to call this method!\") */\n      tag_198\n      jumpi\n      mload(0x40)\n      shl(0xe5, 0x461bcd)\n      dup2\n      mstore\n      0x04\n      add\n      tag_109\n      swap1\n      tag_110\n      jump\t// in\n    tag_198:\n        /* \"contracts/BaseFlipPool.sol\":7028:7038  masterChef */\n      sload(0x01)\n        /* \"contracts/BaseFlipPool.sol\":7028:7067  masterChef.withdrawWithoutRewards(_pid) */\n      mload(0x40)\n      shl(0xe1, 0x5459cf77)\n      dup2\n      mstore\n      0x04\n      dup2\n      add\n        /* \"#utility.yul\":9314:9339   */\n      dup6\n      swap1\n      mstore\n      sub(shl(0xa0, 0x01), 0x01)\n        /* \"contracts/BaseFlipPool.sol\":7028:7038  masterChef */\n      swap1\n      swap2\n      and\n      swap1\n        /* \"contracts/BaseFlipPool.sol\":7028:7061  masterChef.withdrawWithoutRewards */\n      0xa8b39eee\n      swap1\n        /* \"#utility.yul\":9287:9305   */\n      0x24\n      add\n        /* \"contracts/BaseFlipPool.sol\":7028:7067  masterChef.withdrawWithoutRewards(_pid) */\n      0x00\n      mload(0x40)\n      dup1\n      dup4\n      sub\n      dup2\n      0x00\n      dup8\n      dup1\n      extcodesize\n      iszero\n      dup1\n      iszero\n      tag_202\n      jumpi\n      0x00\n      dup1\n      revert\n    tag_202:\n      pop\n      gas\n      call\n      iszero\n      dup1\n      iszero\n      tag_204\n      jumpi\n      returndatasize\n      0x00\n      dup1\n      returndatacopy\n      revert(0x00, returndatasize)\n    tag_204:\n      pop\n      pop\n        /* \"contracts/BaseFlipPool.sol\":7095:7105  stakeToken */\n      sload(0x03)\n        /* \"contracts/BaseFlipPool.sol\":7077:7124  safeTokenTransfer(stakeToken, _sender, _amount) */\n      tag_205\n      swap3\n      pop\n      sub(shl(0xa0, 0x01), 0x01)\n        /* \"contracts/BaseFlipPool.sol\":7095:7105  stakeToken */\n      and\n      swap1\n      pop\n        /* \"contracts/BaseFlipPool.sol\":7107:7114  _sender */\n      dup3\n        /* \"contracts/BaseFlipPool.sol\":7116:7123  _amount */\n      dup5\n        /* \"contracts/BaseFlipPool.sol\":7077:7094  safeTokenTransfer */\n      tag_206\n        /* \"contracts/BaseFlipPool.sol\":7077:7124  safeTokenTransfer(stakeToken, _sender, _amount) */\n      jump\t// in\n    tag_205:\n        /* \"contracts/BaseFlipPool.sol\":7149:7159  stakeToken */\n      sload(0x03)\n        /* \"contracts/BaseFlipPool.sol\":7149:7184  stakeToken.balanceOf(address(this)) */\n      mload(0x40)\n      shl(0xe0, 0x70a08231)\n      dup2\n      mstore\n        /* \"contracts/BaseFlipPool.sol\":7178:7182  this */\n      address\n        /* \"contracts/BaseFlipPool.sol\":7149:7184  stakeToken.balanceOf(address(this)) */\n      0x04\n      dup3\n      add\n        /* \"#utility.yul\":3239:3290   */\n      mstore\n        /* \"contracts/BaseFlipPool.sol\":7134:7185  _deposit(_pid, stakeToken.balanceOf(address(this))) */\n      tag_124\n      swap2\n        /* \"contracts/BaseFlipPool.sol\":7143:7147  _pid */\n      dup6\n      swap2\n      sub(shl(0xa0, 0x01), 0x01)\n        /* \"contracts/BaseFlipPool.sol\":7149:7159  stakeToken */\n      swap1\n      swap2\n      and\n      swap1\n        /* \"contracts/BaseFlipPool.sol\":7149:7169  stakeToken.balanceOf */\n      0x70a08231\n      swap1\n        /* \"#utility.yul\":3212:3230   */\n      0x24\n      add\n        /* \"contracts/BaseFlipPool.sol\":7149:7184  stakeToken.balanceOf(address(this)) */\n      0x20\n      mload(0x40)\n      dup1\n      dup4\n      sub\n      dup2\n      dup7\n      dup1\n      extcodesize\n      iszero\n      dup1\n      iszero\n      tag_209\n      jumpi\n      0x00\n      dup1\n      revert\n    tag_209:\n      pop\n      gas\n      staticcall\n      iszero\n      dup1\n      iszero\n      tag_211\n      jumpi\n      returndatasize\n      0x00\n      dup1\n      returndatacopy\n      revert(0x00, returndatasize)\n    tag_211:\n      pop\n      pop\n      pop\n      pop\n      mload(0x40)\n      returndatasize\n      not(0x1f)\n      0x1f\n      dup3\n      add\n      and\n      dup3\n      add\n      dup1\n      0x40\n      mstore\n      pop\n      dup2\n      add\n      swap1\n      tag_212\n      swap2\n      swap1\n      tag_213\n      jump\t// in\n    tag_212:\n        /* \"contracts/BaseFlipPool.sol\":7134:7142  _deposit */\n      tag_186\n        /* \"contracts/BaseFlipPool.sol\":7134:7185  _deposit(_pid, stakeToken.balanceOf(address(this))) */\n      jump\t// in\n        /* \"contracts/BaseFlipPool.sol\":7352:7463  function leaveStake(uint256 _pid, uint256 _amount) internal {... */\n    tag_114:\n        /* \"contracts/BaseFlipPool.sol\":7422:7432  masterChef */\n      sload(0x01)\n        /* \"contracts/BaseFlipPool.sol\":7422:7456  masterChef.withdraw(_pid, _amount) */\n      mload(0x40)\n      shl(0xe4, 0x0441a3e7)\n      dup2\n      mstore\n      0x04\n      dup2\n      add\n        /* \"#utility.yul\":10390:10415   */\n      dup5\n      swap1\n      mstore\n        /* \"#utility.yul\":10431:10449   */\n      0x24\n      dup2\n      add\n        /* \"#utility.yul\":10424:10458   */\n      dup4\n      swap1\n      mstore\n      sub(shl(0xa0, 0x01), 0x01)\n        /* \"contracts/BaseFlipPool.sol\":7422:7432  masterChef */\n      swap1\n      swap2\n      and\n      swap1\n        /* \"contracts/BaseFlipPool.sol\":7422:7441  masterChef.withdraw */\n      0x441a3e70\n      swap1\n        /* \"#utility.yul\":10363:10381   */\n      0x44\n      add\n        /* \"contracts/BaseFlipPool.sol\":7422:7456  masterChef.withdraw(_pid, _amount) */\n      0x00\n      mload(0x40)\n      dup1\n      dup4\n      sub\n      dup2\n      0x00\n      dup8\n      dup1\n      extcodesize\n      iszero\n      dup1\n      iszero\n      tag_216\n      jumpi\n      0x00\n      dup1\n      revert\n    tag_216:\n      pop\n      gas\n      call\n      iszero\n      dup1\n      iszero\n      tag_218\n      jumpi\n      returndatasize\n      0x00\n      dup1\n      returndatacopy\n      revert(0x00, returndatasize)\n    tag_218:\n      pop\n      pop\n      pop\n      pop\n        /* \"contracts/BaseFlipPool.sol\":7352:7463  function leaveStake(uint256 _pid, uint256 _amount) internal {... */\n      pop\n      pop\n      jump\t// out\n        /* \"@openzeppelin/contracts/token/ERC20/utils/SafeERC20.sol\":634:839  function safeTransfer(... */\n    tag_123:\n        /* \"@openzeppelin/contracts/token/ERC20/utils/SafeERC20.sol\":773:831  abi.encodeWithSelector(token.transfer.selector, to, value) */\n      mload(0x40)\n      sub(shl(0xa0, 0x01), 0x01)\n        /* \"#utility.yul\":3873:3905   */\n      dup4\n      and\n        /* \"@openzeppelin/contracts/token/ERC20/utils/SafeERC20.sol\":773:831  abi.encodeWithSelector(token.transfer.selector, to, value) */\n      0x24\n      dup3\n      add\n        /* \"#utility.yul\":3855:3906   */\n      mstore\n        /* \"#utility.yul\":3922:3940   */\n      0x44\n      dup2\n      add\n        /* \"#utility.yul\":3915:3949   */\n      dup3\n      swap1\n      mstore\n        /* \"@openzeppelin/contracts/token/ERC20/utils/SafeERC20.sol\":746:832  _callOptionalReturn(token, abi.encodeWithSelector(token.transfer.selector, to, value)) */\n      tag_124\n      swap1\n        /* \"@openzeppelin/contracts/token/ERC20/utils/SafeERC20.sol\":766:771  token */\n      dup5\n      swap1\n      shl(0xe0, 0xa9059cbb)\n        /* \"@openzeppelin/contracts/token/ERC20/utils/SafeERC20.sol\":796:819  token.transfer.selector */\n      swap1\n        /* \"#utility.yul\":3828:3846   */\n      0x64\n      add\n        /* \"@openzeppelin/contracts/token/ERC20/utils/SafeERC20.sol\":773:831  abi.encodeWithSelector(token.transfer.selector, to, value) */\n    tag_221:\n      0x40\n      dup1\n      mload\n      not(0x1f)\n      dup2\n      dup5\n      sub\n      add\n      dup2\n      mstore\n      swap2\n      swap1\n      mstore\n      0x20\n      dup2\n      add\n      dup1\n      mload\n      sub(shl(0xe0, 0x01), 0x01)\n      and\n      not(sub(shl(0xe0, 0x01), 0x01))\n      swap1\n      swap4\n      and\n      swap3\n      swap1\n      swap3\n      or\n      swap1\n      swap2\n      mstore\n        /* \"@openzeppelin/contracts/token/ERC20/utils/SafeERC20.sol\":746:765  _callOptionalReturn */\n      tag_223\n        /* \"@openzeppelin/contracts/token/ERC20/utils/SafeERC20.sol\":746:832  _callOptionalReturn(token, abi.encodeWithSelector(token.transfer.selector, to, value)) */\n      jump\t// in\n        /* \"contracts/BaseFlipPool.sol\":7478:7913  function swapToken() internal {... */\n    tag_125:\n        /* \"contracts/BaseFlipPool.sol\":7542:7553  rewardToken */\n      sload(0x02)\n        /* \"contracts/BaseFlipPool.sol\":7542:7578  rewardToken.balanceOf(address(this)) */\n      mload(0x40)\n      shl(0xe0, 0x70a08231)\n      dup2\n      mstore\n        /* \"contracts/BaseFlipPool.sol\":7572:7576  this */\n      address\n        /* \"contracts/BaseFlipPool.sol\":7542:7578  rewardToken.balanceOf(address(this)) */\n      0x04\n      dup3\n      add\n        /* \"#utility.yul\":3239:3290   */\n      mstore\n        /* \"contracts/BaseFlipPool.sol\":7518:7539  uint256 balanceToSwap */\n      0x00\n      swap2\n      sub(shl(0xa0, 0x01), 0x01)\n        /* \"contracts/BaseFlipPool.sol\":7542:7553  rewardToken */\n      and\n      swap1\n        /* \"contracts/BaseFlipPool.sol\":7542:7563  rewardToken.balanceOf */\n      0x70a08231\n      swap1\n        /* \"#utility.yul\":3212:3230   */\n      0x24\n      add\n        /* \"contracts/BaseFlipPool.sol\":7542:7578  rewardToken.balanceOf(address(this)) */\n      0x20\n      mload(0x40)\n      dup1\n      dup4\n      sub\n      dup2\n      dup7\n      dup1\n      extcodesize\n      iszero\n      dup1\n      iszero\n      tag_226\n      jumpi\n      0x00\n      dup1\n      revert\n    tag_226:\n      pop\n      gas\n      staticcall\n      iszero\n      dup1\n      iszero\n      tag_228\n      jumpi\n      returndatasize\n      0x00\n      dup1\n      returndatacopy\n      revert(0x00, returndatasize)\n    tag_228:\n      pop\n      pop\n      pop\n      pop\n      mload(0x40)\n      returndatasize\n      not(0x1f)\n      0x1f\n      dup3\n      add\n      and\n      dup3\n      add\n      dup1\n      0x40\n      mstore\n      pop\n      dup2\n      add\n      swap1\n      tag_229\n      swap2\n      swap1\n      tag_213\n      jump\t// in\n    tag_229:\n        /* \"contracts/BaseFlipPool.sol\":7599:7605  router */\n      sload(0x06)\n        /* \"contracts/BaseFlipPool.sol\":7518:7578  uint256 balanceToSwap = rewardToken.balanceOf(address(this)) */\n      swap1\n      swap2\n      pop\n      sub(shl(0xa0, 0x01), 0x01)\n        /* \"contracts/BaseFlipPool.sol\":7599:7605  router */\n      and\n        /* \"contracts/BaseFlipPool.sol\":7591:7620  address(router) == address(0) */\n      iszero\n        /* \"contracts/BaseFlipPool.sol\":7591:7641  address(router) == address(0) && balanceToSwap > 0 */\n      dup1\n      iszero\n      tag_230\n      jumpi\n      pop\n        /* \"contracts/BaseFlipPool.sol\":7640:7641  0 */\n      0x00\n        /* \"contracts/BaseFlipPool.sol\":7624:7637  balanceToSwap */\n      dup2\n        /* \"contracts/BaseFlipPool.sol\":7624:7641  balanceToSwap > 0 */\n      gt\n        /* \"contracts/BaseFlipPool.sol\":7591:7641  address(router) == address(0) && balanceToSwap > 0 */\n    tag_230:\n        /* \"contracts/BaseFlipPool.sol\":7588:7899  if(address(router) == address(0) && balanceToSwap > 0) {... */\n      iszero\n      tag_231\n      jumpi\n        /* \"contracts/BaseFlipPool.sol\":7675:7686  rewardToken */\n      sload(0x02)\n        /* \"contracts/BaseFlipPool.sol\":7657:7711  safeTokenTransfer(rewardToken, owner(), balanceToSwap) */\n      tag_196\n      swap1\n      sub(shl(0xa0, 0x01), 0x01)\n        /* \"contracts/BaseFlipPool.sol\":7675:7686  rewardToken */\n      and\n        /* \"contracts/BaseFlipPool.sol\":7688:7695  owner() */\n      tag_233\n        /* \"@openzeppelin/contracts/access/Ownable.sol\":1019:1026  address */\n      0x00\n        /* \"@openzeppelin/contracts/access/Ownable.sol\":1045:1051  _owner */\n      sload\n      sub(shl(0xa0, 0x01), 0x01)\n      and\n      swap1\n        /* \"@openzeppelin/contracts/access/Ownable.sol\":973:1058  function owner() public view virtual returns (address) {... */\n      jump\n        /* \"contracts/BaseFlipPool.sol\":7688:7695  owner() */\n    tag_233:\n        /* \"contracts/BaseFlipPool.sol\":7697:7710  balanceToSwap */\n      dup4\n        /* \"contracts/BaseFlipPool.sol\":7657:7674  safeTokenTransfer */\n      tag_206\n        /* \"contracts/BaseFlipPool.sol\":7657:7711  safeTokenTransfer(rewardToken, owner(), balanceToSwap) */\n      jump\t// in\n        /* \"contracts/BaseFlipPool.sol\":7588:7899  if(address(router) == address(0) && balanceToSwap > 0) {... */\n    tag_231:\n        /* \"contracts/BaseFlipPool.sol\":7756:7771  minAmountToSwap */\n      sload(0x08)\n        /* \"contracts/BaseFlipPool.sol\":7739:7752  balanceToSwap */\n      dup2\n        /* \"contracts/BaseFlipPool.sol\":7739:7771  balanceToSwap >= minAmountToSwap */\n      lt\n        /* \"contracts/BaseFlipPool.sol\":7736:7899  if(balanceToSwap >= minAmountToSwap) {... */\n      tag_196\n      jumpi\n        /* \"contracts/BaseFlipPool.sol\":7819:7830  rewardToken */\n      sload(0x02)\n        /* \"contracts/BaseFlipPool.sol\":7787:7805  uint256 ethBalance */\n      0x00\n      swap1\n        /* \"contracts/BaseFlipPool.sol\":7808:7846  swapForEth(rewardToken, balanceToSwap) */\n      tag_236\n      swap1\n      sub(shl(0xa0, 0x01), 0x01)\n        /* \"contracts/BaseFlipPool.sol\":7819:7830  rewardToken */\n      and\n        /* \"contracts/BaseFlipPool.sol\":7832:7845  balanceToSwap */\n      dup4\n        /* \"contracts/BaseFlipPool.sol\":7808:7818  swapForEth */\n      tag_237\n        /* \"contracts/BaseFlipPool.sol\":7808:7846  swapForEth(rewardToken, balanceToSwap) */\n      jump\t// in\n    tag_236:\n        /* \"contracts/BaseFlipPool.sol\":7787:7846  uint256 ethBalance = swapForEth(rewardToken, balanceToSwap) */\n      swap1\n      pop\n        /* \"contracts/BaseFlipPool.sol\":7860:7888  swapEthForTokens(ethBalance) */\n      tag_185\n        /* \"contracts/BaseFlipPool.sol\":7877:7887  ethBalance */\n      dup2\n        /* \"contracts/BaseFlipPool.sol\":7860:7876  swapEthForTokens */\n      tag_239\n        /* \"contracts/BaseFlipPool.sol\":7860:7888  swapEthForTokens(ethBalance) */\n      jump\t// in\n        /* \"@openzeppelin/contracts/access/Ownable.sol\":2041:2210  function _setOwner(address newOwner) private {... */\n    tag_160:\n        /* \"@openzeppelin/contracts/access/Ownable.sol\":2096:2112  address oldOwner */\n      0x00\n        /* \"@openzeppelin/contracts/access/Ownable.sol\":2115:2121  _owner */\n      dup1\n      sload\n      sub(shl(0xa0, 0x01), 0x01)\n        /* \"@openzeppelin/contracts/access/Ownable.sol\":2131:2148  _owner = newOwner */\n      dup4\n      dup2\n      and\n      not(sub(shl(0xa0, 0x01), 0x01))\n      dup4\n      and\n      dup2\n      or\n      dup5\n      sstore\n        /* \"@openzeppelin/contracts/access/Ownable.sol\":2163:2203  OwnershipTransferred(oldOwner, newOwner) */\n      mload(0x40)\n        /* \"@openzeppelin/contracts/access/Ownable.sol\":2115:2121  _owner */\n      swap2\n      swap1\n      swap3\n      and\n      swap3\n      dup4\n      swap2\n        /* \"@openzeppelin/contracts/access/Ownable.sol\":2163:2203  OwnershipTransferred(oldOwner, newOwner) */\n      0x8be0079c531659141344cd1fd0a4f28419497f9722a3daafe3b4186f6b6457e0\n      swap2\n        /* \"@openzeppelin/contracts/access/Ownable.sol\":2096:2112  address oldOwner */\n      swap1\n        /* \"@openzeppelin/contracts/access/Ownable.sol\":2163:2203  OwnershipTransferred(oldOwner, newOwner) */\n      log3\n        /* \"@openzeppelin/contracts/access/Ownable.sol\":2086:2210  {... */\n      pop\n        /* \"@openzeppelin/contracts/access/Ownable.sol\":2041:2210  function _setOwner(address newOwner) private {... */\n      pop\n      jump\t// out\n        /* \"contracts/BaseFlipPool.sol\":6152:6515  function _deposit(uint256 _pid, uint256 _amount) internal {... */\n    tag_186:\n        /* \"contracts/BaseFlipPool.sol\":6220:6230  stakeToken */\n      sload(0x03)\n        /* \"contracts/BaseFlipPool.sol\":6220:6292  stakeToken.safeTransferFrom(address(msg.sender), address(this), _amount) */\n      tag_243\n      swap1\n      sub(shl(0xa0, 0x01), 0x01)\n        /* \"contracts/BaseFlipPool.sol\":6220:6230  stakeToken */\n      and\n        /* \"contracts/BaseFlipPool.sol\":6256:6266  msg.sender */\n      caller\n        /* \"contracts/BaseFlipPool.sol\":6277:6281  this */\n      address\n        /* \"contracts/BaseFlipPool.sol\":6284:6291  _amount */\n      dup5\n        /* \"contracts/BaseFlipPool.sol\":6220:6247  stakeToken.safeTransferFrom */\n      tag_244\n        /* \"contracts/BaseFlipPool.sol\":6220:6292  stakeToken.safeTransferFrom(address(msg.sender), address(this), _amount) */\n      jump\t// in\n    tag_243:\n        /* \"contracts/BaseFlipPool.sol\":6302:6312  stakeToken */\n      sload(0x03)\n      0x01\n        /* \"contracts/BaseFlipPool.sol\":6329:6339  masterChef */\n      sload\n        /* \"contracts/BaseFlipPool.sol\":6302:6350  stakeToken.approve(address(masterChef), _amount) */\n      mload(0x40)\n      shl(0xe0, 0x095ea7b3)\n      dup2\n      mstore\n      sub(shl(0xa0, 0x01), 0x01)\n        /* \"contracts/BaseFlipPool.sol\":6329:6339  masterChef */\n      swap2\n      dup3\n      and\n        /* \"contracts/BaseFlipPool.sol\":6302:6350  stakeToken.approve(address(masterChef), _amount) */\n      0x04\n      dup3\n      add\n        /* \"#utility.yul\":3855:3906   */\n      mstore\n        /* \"#utility.yul\":3922:3940   */\n      0x24\n      dup2\n      add\n        /* \"#utility.yul\":3915:3949   */\n      dup5\n      swap1\n      mstore\n        /* \"contracts/BaseFlipPool.sol\":6302:6312  stakeToken */\n      swap2\n      and\n      swap1\n        /* \"contracts/BaseFlipPool.sol\":6302:6320  stakeToken.approve */\n      0x095ea7b3\n      swap1\n        /* \"#utility.yul\":3828:3846   */\n      0x44\n      add\n        /* \"contracts/BaseFlipPool.sol\":6302:6350  stakeToken.approve(address(masterChef), _amount) */\n      0x20\n      mload(0x40)\n      dup1\n      dup4\n      sub\n      dup2\n      0x00\n      dup8\n      dup1\n      extcodesize\n      iszero\n      dup1\n      iszero\n      tag_246\n      jumpi\n      0x00\n      dup1\n      revert\n    tag_246:\n      pop\n      gas\n      call\n      iszero\n      dup1\n      iszero\n      tag_248\n      jumpi\n      returndatasize\n      0x00\n      dup1\n      returndatacopy\n      revert(0x00, returndatasize)\n    tag_248:\n      pop\n      pop\n      pop\n      pop\n      mload(0x40)\n      returndatasize\n      not(0x1f)\n      0x1f\n      dup3\n      add\n      and\n      dup3\n      add\n      dup1\n      0x40\n      mstore\n      pop\n      dup2\n      add\n      swap1\n      tag_249\n      swap2\n      swap1\n      tag_250\n      jump\t// in\n    tag_249:\n      pop\n        /* \"contracts/BaseFlipPool.sol\":6363:6372  _pid == 0 */\n      dup2\n        /* \"contracts/BaseFlipPool.sol\":6360:6488  if(_pid == 0) {... */\n      tag_251\n      jumpi\n        /* \"contracts/BaseFlipPool.sol\":6388:6413  enterStake(_pid, _amount) */\n      tag_252\n        /* \"contracts/BaseFlipPool.sol\":6399:6403  _pid */\n      dup3\n        /* \"contracts/BaseFlipPool.sol\":6405:6412  _amount */\n      dup3\n        /* \"contracts/BaseFlipPool.sol\":6388:6398  enterStake */\n      tag_251\n        /* \"contracts/BaseFlipPool.sol\":6388:6413  enterStake(_pid, _amount) */\n      jump\t// in\n    tag_252:\n        /* \"contracts/BaseFlipPool.sol\":6360:6488  if(_pid == 0) {... */\n      jump(tag_254)\n    tag_251:\n        /* \"contracts/BaseFlipPool.sol\":6444:6454  masterChef */\n      sload(0x01)\n        /* \"contracts/BaseFlipPool.sol\":6444:6477  masterChef.deposit(_pid, _amount) */\n      mload(0x40)\n      shl(0xe3, 0x1c57762b)\n      dup2\n      mstore\n      0x04\n      dup2\n      add\n        /* \"#utility.yul\":10390:10415   */\n      dup5\n      swap1\n      mstore\n        /* \"#utility.yul\":10431:10449   */\n      0x24\n      dup2\n      add\n        /* \"#utility.yul\":10424:10458   */\n      dup4\n      swap1\n      mstore\n      sub(shl(0xa0, 0x01), 0x01)\n        /* \"contracts/BaseFlipPool.sol\":6444:6454  masterChef */\n      swap1\n      swap2\n      and\n      swap1\n        /* \"contracts/BaseFlipPool.sol\":6444:6462  masterChef.deposit */\n      0xe2bbb158\n      swap1\n        /* \"#utility.yul\":10363:10381   */\n      0x44\n      add\n        /* \"contracts/BaseFlipPool.sol\":6444:6477  masterChef.deposit(_pid, _amount) */\n      0x00\n      mload(0x40)\n      dup1\n      dup4\n      sub\n      dup2\n      0x00\n      dup8\n      dup1\n      extcodesize\n      iszero\n      dup1\n      iszero\n      tag_256\n      jumpi\n      0x00\n      dup1\n      revert\n    tag_256:\n      pop\n      gas\n      call\n      iszero\n      dup1\n      iszero\n      tag_258\n      jumpi\n      returndatasize\n      0x00\n      dup1\n      returndatacopy\n      revert(0x00, returndatasize)\n    tag_258:\n      pop\n      pop\n      pop\n      pop\n        /* \"contracts/BaseFlipPool.sol\":6360:6488  if(_pid == 0) {... */\n    tag_254:\n        /* \"contracts/BaseFlipPool.sol\":6497:6508  swapToken() */\n      tag_185\n        /* \"contracts/BaseFlipPool.sol\":6497:6506  swapToken */\n      tag_125\n        /* \"contracts/BaseFlipPool.sol\":6497:6508  swapToken() */\n      jump\t// in\n        /* \"contracts/BaseFlipPool.sol\":9205:9662  function safeTokenTransfer(IERC20 token, address _to, uint256 _amount) internal {... */\n    tag_206:\n        /* \"contracts/BaseFlipPool.sol\":9318:9348  token.balanceOf(address(this)) */\n      mload(0x40)\n      shl(0xe0, 0x70a08231)\n      dup2\n      mstore\n        /* \"contracts/BaseFlipPool.sol\":9342:9346  this */\n      address\n        /* \"contracts/BaseFlipPool.sol\":9318:9348  token.balanceOf(address(this)) */\n      0x04\n      dup3\n      add\n        /* \"#utility.yul\":3239:3290   */\n      mstore\n        /* \"contracts/BaseFlipPool.sol\":9295:9315  uint256 tokenBalance */\n      0x00\n      swap1\n      sub(shl(0xa0, 0x01), 0x01)\n        /* \"contracts/BaseFlipPool.sol\":9318:9333  token.balanceOf */\n      dup6\n      and\n      swap1\n      0x70a08231\n      swap1\n        /* \"#utility.yul\":3212:3230   */\n      0x24\n      add\n        /* \"contracts/BaseFlipPool.sol\":9318:9348  token.balanceOf(address(this)) */\n      0x20\n      mload(0x40)\n      dup1\n      dup4\n      sub\n      dup2\n      dup7\n      dup1\n      extcodesize\n      iszero\n      dup1\n      iszero\n      tag_262\n      jumpi\n      0x00\n      dup1\n      revert\n    tag_262:\n      pop\n      gas\n      staticcall\n      iszero\n      dup1\n      iszero\n      tag_264\n      jumpi\n      returndatasize\n      0x00\n      dup1\n      returndatacopy\n      revert(0x00, returndatasize)\n    tag_264:\n      pop\n      pop\n      pop\n      pop\n      mload(0x40)\n      returndatasize\n      not(0x1f)\n      0x1f\n      dup3\n      add\n      and\n      dup3\n      add\n      dup1\n      0x40\n      mstore\n      pop\n      dup2\n      add\n      swap1\n      tag_265\n      swap2\n      swap1\n      tag_213\n      jump\t// in\n    tag_265:\n        /* \"contracts/BaseFlipPool.sol\":9295:9348  uint256 tokenBalance = token.balanceOf(address(this)) */\n      swap1\n      pop\n        /* \"contracts/BaseFlipPool.sol\":9358:9378  bool transferSuccess */\n      0x00\n        /* \"contracts/BaseFlipPool.sol\":9410:9422  tokenBalance */\n      dup2\n        /* \"contracts/BaseFlipPool.sol\":9400:9407  _amount */\n      dup4\n        /* \"contracts/BaseFlipPool.sol\":9400:9422  _amount > tokenBalance */\n      gt\n        /* \"contracts/BaseFlipPool.sol\":9396:9577  if (_amount > tokenBalance) {... */\n      iszero\n      tag_266\n      jumpi\n        /* \"contracts/BaseFlipPool.sol\":9456:9489  token.transfer(_to, tokenBalance) */\n      mload(0x40)\n      shl(0xe0, 0xa9059cbb)\n      dup2\n      mstore\n      sub(shl(0xa0, 0x01), 0x01)\n        /* \"#utility.yul\":3873:3905   */\n      dup6\n      dup2\n      and\n        /* \"contracts/BaseFlipPool.sol\":9456:9489  token.transfer(_to, tokenBalance) */\n      0x04\n      dup4\n      add\n        /* \"#utility.yul\":3855:3906   */\n      mstore\n        /* \"#utility.yul\":3922:3940   */\n      0x24\n      dup3\n      add\n        /* \"#utility.yul\":3915:3949   */\n      dup5\n      swap1\n      mstore\n        /* \"contracts/BaseFlipPool.sol\":9456:9470  token.transfer */\n      dup7\n      and\n      swap1\n      0xa9059cbb\n      swap1\n        /* \"#utility.yul\":3828:3846   */\n      0x44\n      add\n        /* \"contracts/BaseFlipPool.sol\":9456:9489  token.transfer(_to, tokenBalance) */\n      0x20\n      mload(0x40)\n      dup1\n      dup4\n      sub\n      dup2\n      0x00\n      dup8\n      dup1\n      extcodesize\n      iszero\n      dup1\n      iszero\n      tag_268\n      jumpi\n      0x00\n      dup1\n      revert\n    tag_268:\n      pop\n      gas\n      call\n      iszero\n      dup1\n      iszero\n      tag_270\n      jumpi\n      returndatasize\n      0x00\n      dup1\n      returndatacopy\n      revert(0x00, returndatasize)\n    tag_270:\n      pop\n      pop\n      pop\n      pop\n      mload(0x40)\n      returndatasize\n      not(0x1f)\n      0x1f\n      dup3\n      add\n      and\n      dup3\n      add\n      dup1\n      0x40\n      mstore\n      pop\n      dup2\n      add\n      swap1\n      tag_271\n      swap2\n      swap1\n      tag_250\n      jump\t// in\n    tag_271:\n        /* \"contracts/BaseFlipPool.sol\":9438:9489  transferSuccess = token.transfer(_to, tokenBalance) */\n      swap1\n      pop\n        /* \"contracts/BaseFlipPool.sol\":9396:9577  if (_amount > tokenBalance) {... */\n      jump(tag_272)\n    tag_266:\n        /* \"contracts/BaseFlipPool.sol\":9538:9566  token.transfer(_to, _amount) */\n      mload(0x40)\n      shl(0xe0, 0xa9059cbb)\n      dup2\n      mstore\n      sub(shl(0xa0, 0x01), 0x01)\n        /* \"#utility.yul\":3873:3905   */\n      dup6\n      dup2\n      and\n        /* \"contracts/BaseFlipPool.sol\":9538:9566  token.transfer(_to, _amount) */\n      0x04\n      dup4\n      add\n        /* \"#utility.yul\":3855:3906   */\n      mstore\n        /* \"#utility.yul\":3922:3940   */\n      0x24\n      dup3\n      add\n        /* \"#utility.yul\":3915:3949   */\n      dup6\n      swap1\n      mstore\n        /* \"contracts/BaseFlipPool.sol\":9538:9552  token.transfer */\n      dup7\n      and\n      swap1\n      0xa9059cbb\n      swap1\n        /* \"#utility.yul\":3828:3846   */\n      0x44\n      add\n        /* \"contracts/BaseFlipPool.sol\":9538:9566  token.transfer(_to, _amount) */\n      0x20\n      mload(0x40)\n      dup1\n      dup4\n      sub\n      dup2\n      0x00\n      dup8\n      dup1\n      extcodesize\n      iszero\n      dup1\n      iszero\n      tag_274\n      jumpi\n      0x00\n      dup1\n      revert\n    tag_274:\n      pop\n      gas\n      call\n      iszero\n      dup1\n      iszero\n      tag_276\n      jumpi\n      returndatasize\n      0x00\n      dup1\n      returndatacopy\n      revert(0x00, returndatasize)\n    tag_276:\n      pop\n      pop\n      pop\n      pop\n      mload(0x40)\n      returndatasize\n      not(0x1f)\n      0x1f\n      dup3\n      add\n      and\n      dup3\n      add\n      dup1\n      0x40\n      mstore\n      pop\n      dup2\n      add\n      swap1\n      tag_277\n      swap2\n      swap1\n      tag_250\n      jump\t// in\n    tag_277:\n        /* \"contracts/BaseFlipPool.sol\":9520:9566  transferSuccess = token.transfer(_to, _amount) */\n      swap1\n      pop\n        /* \"contracts/BaseFlipPool.sol\":9396:9577  if (_amount > tokenBalance) {... */\n    tag_272:\n        /* \"contracts/BaseFlipPool.sol\":9594:9609  transferSuccess */\n      dup1\n        /* \"contracts/BaseFlipPool.sol\":9586:9655  require(transferSuccess, \"ABOAT::safeTokenTransfer: transfer failed\") */\n      tag_278\n      jumpi\n      mload(0x40)\n      shl(0xe5, 0x461bcd)\n      dup2\n      mstore\n        /* \"#utility.yul\":7003:7005   */\n      0x20\n        /* \"contracts/BaseFlipPool.sol\":9586:9655  require(transferSuccess, \"ABOAT::safeTokenTransfer: transfer failed\") */\n      0x04\n      dup3\n      add\n        /* \"#utility.yul\":6985:7006   */\n      mstore\n        /* \"#utility.yul\":7042:7044   */\n      0x29\n        /* \"#utility.yul\":7022:7040   */\n      0x24\n      dup3\n      add\n        /* \"#utility.yul\":7015:7045   */\n      mstore\n        /* \"#utility.yul\":7081:7115   */\n      0x41424f41543a3a73616665546f6b656e5472616e736665723a207472616e7366\n        /* \"#utility.yul\":7061:7079   */\n      0x44\n      dup3\n      add\n        /* \"#utility.yul\":7054:7116   */\n      mstore\n      shl(0xba, 0x195c8819985a5b1959)\n        /* \"#utility.yul\":7132:7150   */\n      0x64\n      dup3\n      add\n        /* \"#utility.yul\":7125:7164   */\n      mstore\n        /* \"#utility.yul\":7181:7200   */\n      0x84\n      add\n        /* \"contracts/BaseFlipPool.sol\":9586:9655  require(transferSuccess, \"ABOAT::safeTokenTransfer: transfer failed\") */\n      tag_109\n        /* \"#utility.yul\":6801:7206   */\n      jump\n        /* \"contracts/BaseFlipPool.sol\":9586:9655  require(transferSuccess, \"ABOAT::safeTokenTransfer: transfer failed\") */\n    tag_278:\n        /* \"contracts/BaseFlipPool.sol\":9285:9662  {... */\n      pop\n      pop\n        /* \"contracts/BaseFlipPool.sol\":9205:9662  function safeTokenTransfer(IERC20 token, address _to, uint256 _amount) internal {... */\n      pop\n      pop\n      pop\n      jump\t// out\n        /* \"@openzeppelin/contracts/token/ERC20/utils/SafeERC20.sol\":3140:3846  function _callOptionalReturn(IERC20 token, bytes memory data) private {... */\n    tag_223:\n        /* \"@openzeppelin/contracts/token/ERC20/utils/SafeERC20.sol\":3559:3582  bytes memory returndata */\n      0x00\n        /* \"@openzeppelin/contracts/token/ERC20/utils/SafeERC20.sol\":3585:3654  address(token).functionCall(data, \"SafeERC20: low-level call failed\") */\n      tag_282\n        /* \"@openzeppelin/contracts/token/ERC20/utils/SafeERC20.sol\":3613:3617  data */\n      dup3\n        /* \"@openzeppelin/contracts/token/ERC20/utils/SafeERC20.sol\":3585:3654  address(token).functionCall(data, \"SafeERC20: low-level call failed\") */\n      mload(0x40)\n      dup1\n      0x40\n      add\n      0x40\n      mstore\n      dup1\n      0x20\n      dup2\n      mstore\n      0x20\n      add\n      0x5361666545524332303a206c6f772d6c6576656c2063616c6c206661696c6564\n      dup2\n      mstore\n      pop\n        /* \"@openzeppelin/contracts/token/ERC20/utils/SafeERC20.sol\":3593:3598  token */\n      dup6\n      sub(shl(0xa0, 0x01), 0x01)\n        /* \"@openzeppelin/contracts/token/ERC20/utils/SafeERC20.sol\":3585:3612  address(token).functionCall */\n      and\n      tag_283\n      swap1\n        /* \"@openzeppelin/contracts/token/ERC20/utils/SafeERC20.sol\":3585:3654  address(token).functionCall(data, \"SafeERC20: low-level call failed\") */\n      swap3\n      swap2\n      swap1\n      0xffffffff\n      and\n      jump\t// in\n    tag_282:\n        /* \"@openzeppelin/contracts/token/ERC20/utils/SafeERC20.sol\":3668:3685  returndata.length */\n      dup1\n      mload\n        /* \"@openzeppelin/contracts/token/ERC20/utils/SafeERC20.sol\":3559:3654  bytes memory returndata = address(token).functionCall(data, \"SafeERC20: low-level call failed\") */\n      swap1\n      swap2\n      pop\n        /* \"@openzeppelin/contracts/token/ERC20/utils/SafeERC20.sol\":3668:3689  returndata.length > 0 */\n      iszero\n        /* \"@openzeppelin/contracts/token/ERC20/utils/SafeERC20.sol\":3664:3840  if (returndata.length > 0) {... */\n      tag_124\n      jumpi\n        /* \"@openzeppelin/contracts/token/ERC20/utils/SafeERC20.sol\":3763:3773  returndata */\n      dup1\n        /* \"@openzeppelin/contracts/token/ERC20/utils/SafeERC20.sol\":3752:3782  abi.decode(returndata, (bool)) */\n      dup1\n      0x20\n      add\n      swap1\n      mload\n      dup2\n      add\n      swap1\n      tag_285\n      swap2\n      swap1\n      tag_250\n      jump\t// in\n    tag_285:\n        /* \"@openzeppelin/contracts/token/ERC20/utils/SafeERC20.sol\":3744:3829  require(abi.decode(returndata, (bool)), \"SafeERC20: ERC20 operation did not succeed\") */\n      tag_124\n      jumpi\n      mload(0x40)\n      shl(0xe5, 0x461bcd)\n      dup2\n      mstore\n        /* \"#utility.yul\":8959:8961   */\n      0x20\n        /* \"@openzeppelin/contracts/token/ERC20/utils/SafeERC20.sol\":3744:3829  require(abi.decode(returndata, (bool)), \"SafeERC20: ERC20 operation did not succeed\") */\n      0x04\n      dup3\n      add\n        /* \"#utility.yul\":8941:8962   */\n      mstore\n        /* \"#utility.yul\":8998:9000   */\n      0x2a\n        /* \"#utility.yul\":8978:8996   */\n      0x24\n      dup3\n      add\n        /* \"#utility.yul\":8971:9001   */\n      mstore\n        /* \"#utility.yul\":9037:9071   */\n      0x5361666545524332303a204552433230206f7065726174696f6e20646964206e\n        /* \"#utility.yul\":9017:9035   */\n      0x44\n      dup3\n      add\n        /* \"#utility.yul\":9010:9072   */\n      mstore\n      shl(0xb2, 0x1bdd081cdd58d8d95959)\n        /* \"#utility.yul\":9088:9106   */\n      0x64\n      dup3\n      add\n        /* \"#utility.yul\":9081:9121   */\n      mstore\n        /* \"#utility.yul\":9138:9157   */\n      0x84\n      add\n        /* \"@openzeppelin/contracts/token/ERC20/utils/SafeERC20.sol\":3744:3829  require(abi.decode(returndata, (bool)), \"SafeERC20: ERC20 operation did not succeed\") */\n      tag_109\n        /* \"#utility.yul\":8757:9163   */\n      jump\n        /* \"contracts/BaseFlipPool.sol\":7923:8219  function swapForEth(IERC20 token, uint256 amount) internal returns (uint256) {... */\n    tag_237:\n        /* \"contracts/BaseFlipPool.sol\":7991:7998  uint256 */\n      0x00\n        /* \"contracts/BaseFlipPool.sol\":8035:8056  address(this).balance */\n      selfbalance\n        /* \"contracts/BaseFlipPool.sol\":8114:8145  swapTokensForEth(token, amount) */\n      tag_290\n        /* \"contracts/BaseFlipPool.sol\":8131:8136  token */\n      dup5\n        /* \"contracts/BaseFlipPool.sol\":8138:8144  amount */\n      dup5\n        /* \"contracts/BaseFlipPool.sol\":8114:8130  swapTokensForEth */\n      tag_291\n        /* \"contracts/BaseFlipPool.sol\":8114:8145  swapTokensForEth(token, amount) */\n      jump\t// in\n    tag_290:\n        /* \"contracts/BaseFlipPool.sol\":8171:8212  address(this).balance.sub(initialBalance) */\n      tag_292\n        /* \"contracts/BaseFlipPool.sol\":8171:8192  address(this).balance */\n      selfbalance\n        /* \"contracts/BaseFlipPool.sol\":8197:8211  initialBalance */\n      dup3\n        /* \"contracts/BaseFlipPool.sol\":8171:8196  address(this).balance.sub */\n      tag_293\n        /* \"contracts/BaseFlipPool.sol\":8171:8212  address(this).balance.sub(initialBalance) */\n      jump\t// in\n    tag_292:\n        /* \"contracts/BaseFlipPool.sol\":8164:8212  return address(this).balance.sub(initialBalance) */\n      swap5\n        /* \"contracts/BaseFlipPool.sol\":7923:8219  function swapForEth(IERC20 token, uint256 amount) internal returns (uint256) {... */\n      swap4\n      pop\n      pop\n      pop\n      pop\n      jump\t// out\n        /* \"contracts/BaseFlipPool.sol\":8789:9195  function swapEthForTokens(uint256 tokenAmount) internal {... */\n    tag_239:\n        /* \"contracts/BaseFlipPool.sol\":8879:8895  new address[](2) */\n      0x40\n      dup1\n      mload\n        /* \"contracts/BaseFlipPool.sol\":8893:8894  2 */\n      0x02\n        /* \"contracts/BaseFlipPool.sol\":8879:8895  new address[](2) */\n      dup1\n      dup3\n      mstore\n      0x60\n      dup3\n      add\n      dup4\n      mstore\n        /* \"contracts/BaseFlipPool.sol\":8855:8876  address[] memory path */\n      0x00\n      swap3\n        /* \"contracts/BaseFlipPool.sol\":8879:8895  new address[](2) */\n      0x20\n      dup4\n      add\n      swap1\n      dup1\n      calldatasize\n      dup4\n      calldatacopy\n      pop\n      pop\n        /* \"contracts/BaseFlipPool.sol\":8915:8921  router */\n      sload(0x06)\n        /* \"contracts/BaseFlipPool.sol\":8915:8928  router.WETH() */\n      0x40\n      dup1\n      mload\n      shl(0xe3, 0x15ab88c9)\n      dup2\n      mstore\n      swap1\n      mload\n        /* \"contracts/BaseFlipPool.sol\":8855:8895  address[] memory path = new address[](2) */\n      swap4\n      swap5\n      pop\n      sub(shl(0xa0, 0x01), 0x01)\n        /* \"contracts/BaseFlipPool.sol\":8915:8921  router */\n      swap1\n      swap2\n      and\n      swap3\n        /* \"contracts/BaseFlipPool.sol\":8915:8926  router.WETH */\n      0xad5c4648\n      swap3\n      pop\n        /* \"contracts/BaseFlipPool.sol\":8915:8928  router.WETH() */\n      0x04\n      dup1\n      dup4\n      add\n      swap3\n      0x20\n      swap3\n      swap2\n      swap1\n      dup3\n      swap1\n      sub\n      add\n      dup2\n        /* \"contracts/BaseFlipPool.sol\":8915:8921  router */\n      dup7\n        /* \"contracts/BaseFlipPool.sol\":8915:8928  router.WETH() */\n      dup1\n      extcodesize\n      iszero\n      dup1\n      iszero\n      tag_299\n      jumpi\n      0x00\n      dup1\n      revert\n    tag_299:\n      pop\n      gas\n      staticcall\n      iszero\n      dup1\n      iszero\n      tag_301\n      jumpi\n      returndatasize\n      0x00\n      dup1\n      returndatacopy\n      revert(0x00, returndatasize)\n    tag_301:\n      pop\n      pop\n      pop\n      pop\n      mload(0x40)\n      returndatasize\n      not(0x1f)\n      0x1f\n      dup3\n      add\n      and\n      dup3\n      add\n      dup1\n      0x40\n      mstore\n      pop\n      dup2\n      add\n      swap1\n      tag_302\n      swap2\n      swap1\n      tag_303\n      jump\t// in\n    tag_302:\n        /* \"contracts/BaseFlipPool.sol\":8905:8909  path */\n      dup2\n        /* \"contracts/BaseFlipPool.sol\":8910:8911  0 */\n      0x00\n        /* \"contracts/BaseFlipPool.sol\":8905:8912  path[0] */\n      dup2\n      mload\n      dup2\n      lt\n      tag_305\n      jumpi\n      tag_305\n      tag_306\n      jump\t// in\n    tag_305:\n      sub(shl(0xa0, 0x01), 0x01)\n        /* \"contracts/BaseFlipPool.sol\":8905:8928  path[0] = router.WETH() */\n      swap3\n      dup4\n      and\n        /* \"contracts/BaseFlipPool.sol\":8905:8912  path[0] */\n      0x20\n      swap2\n      dup3\n      mul\n      swap3\n      swap1\n      swap3\n      add\n      add\n        /* \"contracts/BaseFlipPool.sol\":8905:8928  path[0] = router.WETH() */\n      mstore\n        /* \"contracts/BaseFlipPool.sol\":8956:8965  flipToken */\n      sload(0x04)\n        /* \"contracts/BaseFlipPool.sol\":8938:8945  path[1] */\n      dup3\n      mload\n        /* \"contracts/BaseFlipPool.sol\":8956:8965  flipToken */\n      swap2\n      and\n      swap1\n        /* \"contracts/BaseFlipPool.sol\":8938:8942  path */\n      dup3\n      swap1\n        /* \"contracts/BaseFlipPool.sol\":8956:8965  flipToken */\n      0x01\n      swap1\n        /* \"contracts/BaseFlipPool.sol\":8938:8945  path[1] */\n      dup2\n      lt\n      tag_308\n      jumpi\n      tag_308\n      tag_306\n      jump\t// in\n    tag_308:\n      sub(shl(0xa0, 0x01), 0x01)\n        /* \"contracts/BaseFlipPool.sol\":8938:8966  path[1] = address(flipToken) */\n      swap3\n      dup4\n      and\n        /* \"contracts/BaseFlipPool.sol\":8938:8945  path[1] */\n      0x20\n      swap2\n      dup3\n      mul\n      swap3\n      swap1\n      swap3\n      add\n      add\n        /* \"contracts/BaseFlipPool.sol\":8938:8966  path[1] = address(flipToken) */\n      mstore\n        /* \"contracts/BaseFlipPool.sol\":8985:8991  router */\n      sload(0x06)\n        /* \"contracts/BaseFlipPool.sol\":9137:9149  rewardSystem */\n      sload(0x05)\n        /* \"contracts/BaseFlipPool.sol\":8985:9188  router.swapExactETHForTokensSupportingFeeOnTransferTokens{value: tokenAmount}(... */\n      mload(0x40)\n      shl(0xe0, 0xb6f9de95)\n      dup2\n      mstore\n        /* \"contracts/BaseFlipPool.sol\":8985:8991  router */\n      swap2\n      dup4\n      and\n      swap3\n        /* \"contracts/BaseFlipPool.sol\":8985:9042  router.swapExactETHForTokensSupportingFeeOnTransferTokens */\n      0xb6f9de95\n      swap3\n        /* \"contracts/BaseFlipPool.sol\":9050:9061  tokenAmount */\n      dup7\n      swap3\n        /* \"contracts/BaseFlipPool.sol\":8985:9188  router.swapExactETHForTokensSupportingFeeOnTransferTokens{value: tokenAmount}(... */\n      tag_309\n      swap3\n        /* \"contracts/BaseFlipPool.sol\":8985:8991  router */\n      0x00\n      swap3\n        /* \"contracts/BaseFlipPool.sol\":9119:9123  path */\n      dup9\n      swap3\n        /* \"contracts/BaseFlipPool.sol\":9137:9149  rewardSystem */\n      swap1\n      swap2\n      and\n      swap1\n        /* \"contracts/BaseFlipPool.sol\":9163:9178  block.timestamp */\n      timestamp\n      swap1\n        /* \"contracts/BaseFlipPool.sol\":8985:9188  router.swapExactETHForTokensSupportingFeeOnTransferTokens{value: tokenAmount}(... */\n      0x04\n      add\n      tag_310\n      jump\t// in\n    tag_309:\n      0x00\n      mload(0x40)\n      dup1\n      dup4\n      sub\n      dup2\n      dup6\n      dup9\n      dup1\n      extcodesize\n      iszero\n      dup1\n      iszero\n      tag_311\n      jumpi\n      0x00\n      dup1\n      revert\n    tag_311:\n      pop\n      gas\n      call\n      iszero\n      dup1\n      iszero\n      tag_313\n      jumpi\n      returndatasize\n      0x00\n      dup1\n      returndatacopy\n      revert(0x00, returndatasize)\n    tag_313:\n      pop\n      pop\n      pop\n      pop\n      pop\n        /* \"contracts/BaseFlipPool.sol\":8845:9195  {... */\n      pop\n        /* \"contracts/BaseFlipPool.sol\":8789:9195  function swapEthForTokens(uint256 tokenAmount) internal {... */\n      pop\n      jump\t// out\n        /* \"@openzeppelin/contracts/token/ERC20/utils/SafeERC20.sol\":845:1086  function safeTransferFrom(... */\n    tag_244:\n        /* \"@openzeppelin/contracts/token/ERC20/utils/SafeERC20.sol\":1010:1078  abi.encodeWithSelector(token.transferFrom.selector, from, to, value) */\n      mload(0x40)\n      sub(shl(0xa0, 0x01), 0x01)\n        /* \"#utility.yul\":3559:3574   */\n      dup1\n      dup6\n      and\n        /* \"@openzeppelin/contracts/token/ERC20/utils/SafeERC20.sol\":1010:1078  abi.encodeWithSelector(token.transferFrom.selector, from, to, value) */\n      0x24\n      dup4\n      add\n        /* \"#utility.yul\":3541:3575   */\n      mstore\n        /* \"#utility.yul\":3611:3626   */\n      dup4\n      and\n        /* \"#utility.yul\":3591:3609   */\n      0x44\n      dup3\n      add\n        /* \"#utility.yul\":3584:3627   */\n      mstore\n        /* \"#utility.yul\":3643:3661   */\n      0x64\n      dup2\n      add\n        /* \"#utility.yul\":3636:3670   */\n      dup3\n      swap1\n      mstore\n        /* \"@openzeppelin/contracts/token/ERC20/utils/SafeERC20.sol\":983:1079  _callOptionalReturn(token, abi.encodeWithSelector(token.transferFrom.selector, from, to, value)) */\n      tag_315\n      swap1\n        /* \"@openzeppelin/contracts/token/ERC20/utils/SafeERC20.sol\":1003:1008  token */\n      dup6\n      swap1\n      shl(0xe0, 0x23b872dd)\n        /* \"@openzeppelin/contracts/token/ERC20/utils/SafeERC20.sol\":1033:1060  token.transferFrom.selector */\n      swap1\n        /* \"#utility.yul\":3476:3494   */\n      0x84\n      add\n        /* \"@openzeppelin/contracts/token/ERC20/utils/SafeERC20.sol\":1010:1078  abi.encodeWithSelector(token.transferFrom.selector, from, to, value) */\n      tag_221\n        /* \"#utility.yul\":3301:3676   */\n      jump\n        /* \"@openzeppelin/contracts/token/ERC20/utils/SafeERC20.sol\":983:1079  _callOptionalReturn(token, abi.encodeWithSelector(token.transferFrom.selector, from, to, value)) */\n    tag_315:\n        /* \"@openzeppelin/contracts/token/ERC20/utils/SafeERC20.sol\":845:1086  function safeTransferFrom(... */\n      pop\n      pop\n      pop\n      pop\n      jump\t// out\n        /* \"@openzeppelin/contracts/utils/Address.sol\":3461:3684  function functionCall(... */\n    tag_283:\n        /* \"@openzeppelin/contracts/utils/Address.sol\":3594:3606  bytes memory */\n      0x60\n        /* \"@openzeppelin/contracts/utils/Address.sol\":3625:3677  functionCallWithValue(target, data, 0, errorMessage) */\n      tag_325\n        /* \"@openzeppelin/contracts/utils/Address.sol\":3647:3653  target */\n      dup5\n        /* \"@openzeppelin/contracts/utils/Address.sol\":3655:3659  data */\n      dup5\n        /* \"@openzeppelin/contracts/utils/Address.sol\":3661:3662  0 */\n      0x00\n        /* \"@openzeppelin/contracts/utils/Address.sol\":3664:3676  errorMessage */\n      dup6\n        /* \"@openzeppelin/contracts/utils/Address.sol\":3625:3646  functionCallWithValue */\n      tag_326\n        /* \"@openzeppelin/contracts/utils/Address.sol\":3625:3677  functionCallWithValue(target, data, 0, errorMessage) */\n      jump\t// in\n    tag_325:\n        /* \"@openzeppelin/contracts/utils/Address.sol\":3618:3677  return functionCallWithValue(target, data, 0, errorMessage) */\n      swap1\n      pop\n        /* \"@openzeppelin/contracts/utils/Address.sol\":3461:3684  function functionCall(... */\n    tag_324:\n      swap4\n      swap3\n      pop\n      pop\n      pop\n      jump\t// out\n        /* \"contracts/BaseFlipPool.sol\":8229:8779  function swapTokensForEth(IERC20 token, uint256 tokenAmount) internal {... */\n    tag_291:\n        /* \"contracts/BaseFlipPool.sol\":8390:8406  new address[](2) */\n      0x40\n      dup1\n      mload\n        /* \"contracts/BaseFlipPool.sol\":8404:8405  2 */\n      0x02\n        /* \"contracts/BaseFlipPool.sol\":8390:8406  new address[](2) */\n      dup1\n      dup3\n      mstore\n      0x60\n      dup3\n      add\n      dup4\n      mstore\n        /* \"contracts/BaseFlipPool.sol\":8366:8387  address[] memory path */\n      0x00\n      swap3\n        /* \"contracts/BaseFlipPool.sol\":8390:8406  new address[](2) */\n      0x20\n      dup4\n      add\n      swap1\n      dup1\n      calldatasize\n      dup4\n      calldatacopy\n      add\n      swap1\n      pop\n      pop\n        /* \"contracts/BaseFlipPool.sol\":8366:8406  address[] memory path = new address[](2) */\n      swap1\n      pop\n        /* \"contracts/BaseFlipPool.sol\":8434:8439  token */\n      dup3\n        /* \"contracts/BaseFlipPool.sol\":8416:8420  path */\n      dup2\n        /* \"contracts/BaseFlipPool.sol\":8421:8422  0 */\n      0x00\n        /* \"contracts/BaseFlipPool.sol\":8416:8423  path[0] */\n      dup2\n      mload\n      dup2\n      lt\n      tag_332\n      jumpi\n      tag_332\n      tag_306\n      jump\t// in\n    tag_332:\n      sub(shl(0xa0, 0x01), 0x01)\n        /* \"contracts/BaseFlipPool.sol\":8416:8440  path[0] = address(token) */\n      swap3\n      dup4\n      and\n        /* \"contracts/BaseFlipPool.sol\":8416:8423  path[0] */\n      0x20\n      swap2\n      dup3\n      mul\n      swap3\n      swap1\n      swap3\n      add\n      dup2\n      add\n        /* \"contracts/BaseFlipPool.sol\":8416:8440  path[0] = address(token) */\n      swap2\n      swap1\n      swap2\n      mstore\n        /* \"contracts/BaseFlipPool.sol\":8460:8466  router */\n      sload(0x06)\n        /* \"contracts/BaseFlipPool.sol\":8460:8473  router.WETH() */\n      0x40\n      dup1\n      mload\n      shl(0xe3, 0x15ab88c9)\n      dup2\n      mstore\n      swap1\n      mload\n        /* \"contracts/BaseFlipPool.sol\":8460:8466  router */\n      swap2\n      swap1\n      swap4\n      and\n      swap3\n        /* \"contracts/BaseFlipPool.sol\":8460:8471  router.WETH */\n      0xad5c4648\n      swap3\n        /* \"contracts/BaseFlipPool.sol\":8460:8473  router.WETH() */\n      0x04\n      dup1\n      dup4\n      add\n      swap4\n        /* \"contracts/BaseFlipPool.sol\":8416:8423  path[0] */\n      swap2\n      swap3\n        /* \"contracts/BaseFlipPool.sol\":8460:8473  router.WETH() */\n      dup3\n      swap1\n      sub\n      add\n      dup2\n        /* \"contracts/BaseFlipPool.sol\":8460:8466  router */\n      dup7\n        /* \"contracts/BaseFlipPool.sol\":8460:8473  router.WETH() */\n      dup1\n      extcodesize\n      iszero\n      dup1\n      iszero\n      tag_333\n      jumpi\n      0x00\n      dup1\n      revert\n    tag_333:\n      pop\n      gas\n      staticcall\n      iszero\n      dup1\n      iszero\n      tag_335\n      jumpi\n      returndatasize\n      0x00\n      dup1\n      returndatacopy\n      revert(0x00, returndatasize)\n    tag_335:\n      pop\n      pop\n      pop\n      pop\n      mload(0x40)\n      returndatasize\n      not(0x1f)\n      0x1f\n      dup3\n      add\n      and\n      dup3\n      add\n      dup1\n      0x40\n      mstore\n      pop\n      dup2\n      add\n      swap1\n      tag_336\n      swap2\n      swap1\n      tag_303\n      jump\t// in\n    tag_336:\n        /* \"contracts/BaseFlipPool.sol\":8450:8454  path */\n      dup2\n        /* \"contracts/BaseFlipPool.sol\":8455:8456  1 */\n      0x01\n        /* \"contracts/BaseFlipPool.sol\":8450:8457  path[1] */\n      dup2\n      mload\n      dup2\n      lt\n      tag_338\n      jumpi\n      tag_338\n      tag_306\n      jump\t// in\n    tag_338:\n      sub(shl(0xa0, 0x01), 0x01)\n        /* \"contracts/BaseFlipPool.sol\":8450:8473  path[1] = router.WETH() */\n      swap3\n      dup4\n      and\n        /* \"contracts/BaseFlipPool.sol\":8450:8457  path[1] */\n      0x20\n      swap2\n      dup3\n      mul\n      swap3\n      swap1\n      swap3\n      add\n      add\n        /* \"contracts/BaseFlipPool.sol\":8450:8473  path[1] = router.WETH() */\n      mstore\n        /* \"contracts/BaseFlipPool.sol\":8506:8512  router */\n      sload(0x06)\n        /* \"contracts/BaseFlipPool.sol\":8484:8527  token.approve(address(router), tokenAmount) */\n      mload(0x40)\n      shl(0xe0, 0x095ea7b3)\n      dup2\n      mstore\n        /* \"contracts/BaseFlipPool.sol\":8506:8512  router */\n      swap1\n      dup3\n      and\n        /* \"contracts/BaseFlipPool.sol\":8484:8527  token.approve(address(router), tokenAmount) */\n      0x04\n      dup3\n      add\n        /* \"#utility.yul\":3855:3906   */\n      mstore\n        /* \"#utility.yul\":3922:3940   */\n      0x24\n      dup2\n      add\n        /* \"#utility.yul\":3915:3949   */\n      dup5\n      swap1\n      mstore\n        /* \"contracts/BaseFlipPool.sol\":8484:8497  token.approve */\n      swap1\n      dup5\n      and\n      swap1\n      0x095ea7b3\n      swap1\n        /* \"#utility.yul\":3828:3846   */\n      0x44\n      add\n        /* \"contracts/BaseFlipPool.sol\":8484:8527  token.approve(address(router), tokenAmount) */\n      0x20\n      mload(0x40)\n      dup1\n      dup4\n      sub\n      dup2\n      0x00\n      dup8\n      dup1\n      extcodesize\n      iszero\n      dup1\n      iszero\n      tag_340\n      jumpi\n      0x00\n      dup1\n      revert\n    tag_340:\n      pop\n      gas\n      call\n      iszero\n      dup1\n      iszero\n      tag_342\n      jumpi\n      returndatasize\n      0x00\n      dup1\n      returndatacopy\n      revert(0x00, returndatasize)\n    tag_342:\n      pop\n      pop\n      pop\n      pop\n      mload(0x40)\n      returndatasize\n      not(0x1f)\n      0x1f\n      dup3\n      add\n      and\n      dup3\n      add\n      dup1\n      0x40\n      mstore\n      pop\n      dup2\n      add\n      swap1\n      tag_343\n      swap2\n      swap1\n      tag_250\n      jump\t// in\n    tag_343:\n      pop\n        /* \"contracts/BaseFlipPool.sol\":8563:8569  router */\n      sload(0x06)\n        /* \"contracts/BaseFlipPool.sol\":8563:8772  router.swapExactTokensForETHSupportingFeeOnTransferTokens(... */\n      mload(0x40)\n      shl(0xe0, 0x791ac947)\n      dup2\n      mstore\n      sub(shl(0xa0, 0x01), 0x01)\n        /* \"contracts/BaseFlipPool.sol\":8563:8569  router */\n      swap1\n      swap2\n      and\n      swap1\n        /* \"contracts/BaseFlipPool.sol\":8563:8620  router.swapExactTokensForETHSupportingFeeOnTransferTokens */\n      0x791ac947\n      swap1\n        /* \"contracts/BaseFlipPool.sol\":8563:8772  router.swapExactTokensForETHSupportingFeeOnTransferTokens(... */\n      tag_344\n      swap1\n        /* \"contracts/BaseFlipPool.sol\":8634:8645  tokenAmount */\n      dup6\n      swap1\n        /* \"contracts/BaseFlipPool.sol\":8563:8569  router */\n      0x00\n      swap1\n        /* \"contracts/BaseFlipPool.sol\":8702:8706  path */\n      dup7\n      swap1\n        /* \"contracts/BaseFlipPool.sol\":8728:8732  this */\n      address\n      swap1\n        /* \"contracts/BaseFlipPool.sol\":8747:8762  block.timestamp */\n      timestamp\n      swap1\n        /* \"contracts/BaseFlipPool.sol\":8563:8772  router.swapExactTokensForETHSupportingFeeOnTransferTokens(... */\n      0x04\n      add\n      tag_345\n      jump\t// in\n    tag_344:\n      0x00\n      mload(0x40)\n      dup1\n      dup4\n      sub\n      dup2\n      0x00\n      dup8\n      dup1\n      extcodesize\n      iszero\n      dup1\n      iszero\n      tag_311\n      jumpi\n      0x00\n      dup1\n      revert\n        /* \"@openzeppelin/contracts/utils/math/SafeMath.sol\":3039:3135  function sub(uint256 a, uint256 b) internal pure returns (uint256) {... */\n    tag_293:\n        /* \"@openzeppelin/contracts/utils/math/SafeMath.sol\":3097:3104  uint256 */\n      0x00\n        /* \"@openzeppelin/contracts/utils/math/SafeMath.sol\":3123:3128  a - b */\n      tag_324\n        /* \"@openzeppelin/contracts/utils/math/SafeMath.sol\":3127:3128  b */\n      dup3\n        /* \"@openzeppelin/contracts/utils/math/SafeMath.sol\":3123:3124  a */\n      dup5\n        /* \"@openzeppelin/contracts/utils/math/SafeMath.sol\":3123:3128  a - b */\n      tag_351\n      jump\t// in\n        /* \"@openzeppelin/contracts/utils/Address.sol\":4548:5048  function functionCallWithValue(... */\n    tag_326:\n        /* \"@openzeppelin/contracts/utils/Address.sol\":4713:4725  bytes memory */\n      0x60\n        /* \"@openzeppelin/contracts/utils/Address.sol\":4770:4775  value */\n      dup3\n        /* \"@openzeppelin/contracts/utils/Address.sol\":4745:4766  address(this).balance */\n      selfbalance\n        /* \"@openzeppelin/contracts/utils/Address.sol\":4745:4775  address(this).balance >= value */\n      lt\n      iszero\n        /* \"@openzeppelin/contracts/utils/Address.sol\":4737:4818  require(address(this).balance >= value, \"Address: insufficient balance for call\") */\n      tag_353\n      jumpi\n      mload(0x40)\n      shl(0xe5, 0x461bcd)\n      dup2\n      mstore\n        /* \"#utility.yul\":6192:6194   */\n      0x20\n        /* \"@openzeppelin/contracts/utils/Address.sol\":4737:4818  require(address(this).balance >= value, \"Address: insufficient balance for call\") */\n      0x04\n      dup3\n      add\n        /* \"#utility.yul\":6174:6195   */\n      mstore\n        /* \"#utility.yul\":6231:6233   */\n      0x26\n        /* \"#utility.yul\":6211:6229   */\n      0x24\n      dup3\n      add\n        /* \"#utility.yul\":6204:6234   */\n      mstore\n        /* \"#utility.yul\":6270:6304   */\n      0x416464726573733a20696e73756666696369656e742062616c616e636520666f\n        /* \"#utility.yul\":6250:6268   */\n      0x44\n      dup3\n      add\n        /* \"#utility.yul\":6243:6305   */\n      mstore\n      shl(0xd2, 0x1c8818d85b1b)\n        /* \"#utility.yul\":6321:6339   */\n      0x64\n      dup3\n      add\n        /* \"#utility.yul\":6314:6350   */\n      mstore\n        /* \"#utility.yul\":6367:6386   */\n      0x84\n      add\n        /* \"@openzeppelin/contracts/utils/Address.sol\":4737:4818  require(address(this).balance >= value, \"Address: insufficient balance for call\") */\n      tag_109\n        /* \"#utility.yul\":5990:6392   */\n      jump\n        /* \"@openzeppelin/contracts/utils/Address.sol\":4737:4818  require(address(this).balance >= value, \"Address: insufficient balance for call\") */\n    tag_353:\n        /* \"@openzeppelin/contracts/utils/Address.sol\":1034:1054  extcodesize(account) */\n      dup5\n      extcodesize\n        /* \"@openzeppelin/contracts/utils/Address.sol\":4828:4888  require(isContract(target), \"Address: call to non-contract\") */\n      tag_358\n      jumpi\n      mload(0x40)\n      shl(0xe5, 0x461bcd)\n      dup2\n      mstore\n        /* \"#utility.yul\":8190:8192   */\n      0x20\n        /* \"@openzeppelin/contracts/utils/Address.sol\":4828:4888  require(isContract(target), \"Address: call to non-contract\") */\n      0x04\n      dup3\n      add\n        /* \"#utility.yul\":8172:8193   */\n      mstore\n        /* \"#utility.yul\":8229:8231   */\n      0x1d\n        /* \"#utility.yul\":8209:8227   */\n      0x24\n      dup3\n      add\n        /* \"#utility.yul\":8202:8232   */\n      mstore\n        /* \"#utility.yul\":8268:8299   */\n      0x416464726573733a2063616c6c20746f206e6f6e2d636f6e7472616374000000\n        /* \"#utility.yul\":8248:8266   */\n      0x44\n      dup3\n      add\n        /* \"#utility.yul\":8241:8300   */\n      mstore\n        /* \"#utility.yul\":8317:8335   */\n      0x64\n      add\n        /* \"@openzeppelin/contracts/utils/Address.sol\":4828:4888  require(isContract(target), \"Address: call to non-contract\") */\n      tag_109\n        /* \"#utility.yul\":7988:8341   */\n      jump\n        /* \"@openzeppelin/contracts/utils/Address.sol\":4828:4888  require(isContract(target), \"Address: call to non-contract\") */\n    tag_358:\n        /* \"@openzeppelin/contracts/utils/Address.sol\":4900:4912  bool success */\n      0x00\n        /* \"@openzeppelin/contracts/utils/Address.sol\":4914:4937  bytes memory returndata */\n      dup1\n        /* \"@openzeppelin/contracts/utils/Address.sol\":4941:4947  target */\n      dup7\n      sub(shl(0xa0, 0x01), 0x01)\n        /* \"@openzeppelin/contracts/utils/Address.sol\":4941:4952  target.call */\n      and\n        /* \"@openzeppelin/contracts/utils/Address.sol\":4960:4965  value */\n      dup6\n        /* \"@openzeppelin/contracts/utils/Address.sol\":4967:4971  data */\n      dup8\n        /* \"@openzeppelin/contracts/utils/Address.sol\":4941:4972  target.call{value: value}(data) */\n      mload(0x40)\n      tag_361\n      swap2\n      swap1\n      tag_362\n      jump\t// in\n    tag_361:\n      0x00\n      mload(0x40)\n      dup1\n      dup4\n      sub\n      dup2\n      dup6\n      dup8\n      gas\n      call\n      swap3\n      pop\n      pop\n      pop\n      returndatasize\n      dup1\n      0x00\n      dup2\n      eq\n      tag_365\n      jumpi\n      mload(0x40)\n      swap2\n      pop\n      and(add(returndatasize, 0x3f), not(0x1f))\n      dup3\n      add\n      0x40\n      mstore\n      returndatasize\n      dup3\n      mstore\n      returndatasize\n      0x00\n      0x20\n      dup5\n      add\n      returndatacopy\n      jump(tag_364)\n    tag_365:\n      0x60\n      swap2\n      pop\n    tag_364:\n      pop\n        /* \"@openzeppelin/contracts/utils/Address.sol\":4899:4972  (bool success, bytes memory returndata) = target.call{value: value}(data) */\n      swap2\n      pop\n      swap2\n      pop\n        /* \"@openzeppelin/contracts/utils/Address.sol\":4989:5041  _verifyCallResult(success, returndata, errorMessage) */\n      tag_366\n        /* \"@openzeppelin/contracts/utils/Address.sol\":5007:5014  success */\n      dup3\n        /* \"@openzeppelin/contracts/utils/Address.sol\":5016:5026  returndata */\n      dup3\n        /* \"@openzeppelin/contracts/utils/Address.sol\":5028:5040  errorMessage */\n      dup7\n        /* \"@openzeppelin/contracts/utils/Address.sol\":4989:5006  _verifyCallResult */\n      tag_367\n        /* \"@openzeppelin/contracts/utils/Address.sol\":4989:5041  _verifyCallResult(success, returndata, errorMessage) */\n      jump\t// in\n    tag_366:\n        /* \"@openzeppelin/contracts/utils/Address.sol\":4982:5041  return _verifyCallResult(success, returndata, errorMessage) */\n      swap8\n        /* \"@openzeppelin/contracts/utils/Address.sol\":4548:5048  function functionCallWithValue(... */\n      swap7\n      pop\n      pop\n      pop\n      pop\n      pop\n      pop\n      pop\n      jump\t// out\n        /* \"@openzeppelin/contracts/utils/Address.sol\":6950:7642  function _verifyCallResult(... */\n    tag_367:\n        /* \"@openzeppelin/contracts/utils/Address.sol\":7096:7108  bytes memory */\n      0x60\n        /* \"@openzeppelin/contracts/utils/Address.sol\":7124:7131  success */\n      dup4\n        /* \"@openzeppelin/contracts/utils/Address.sol\":7120:7636  if (success) {... */\n      iszero\n      tag_370\n      jumpi\n      pop\n        /* \"@openzeppelin/contracts/utils/Address.sol\":7154:7164  returndata */\n      dup2\n        /* \"@openzeppelin/contracts/utils/Address.sol\":7147:7164  return returndata */\n      jump(tag_324)\n        /* \"@openzeppelin/contracts/utils/Address.sol\":7120:7636  if (success) {... */\n    tag_370:\n        /* \"@openzeppelin/contracts/utils/Address.sol\":7265:7282  returndata.length */\n      dup3\n      mload\n        /* \"@openzeppelin/contracts/utils/Address.sol\":7265:7286  returndata.length > 0 */\n      iszero\n        /* \"@openzeppelin/contracts/utils/Address.sol\":7261:7626  if (returndata.length > 0) {... */\n      tag_372\n      jumpi\n        /* \"@openzeppelin/contracts/utils/Address.sol\":7459:7469  returndata */\n      dup3\n        /* \"@openzeppelin/contracts/utils/Address.sol\":7453:7470  mload(returndata) */\n      mload\n        /* \"@openzeppelin/contracts/utils/Address.sol\":7519:7534  returndata_size */\n      dup1\n        /* \"@openzeppelin/contracts/utils/Address.sol\":7506:7516  returndata */\n      dup5\n        /* \"@openzeppelin/contracts/utils/Address.sol\":7502:7504  32 */\n      0x20\n        /* \"@openzeppelin/contracts/utils/Address.sol\":7498:7517  add(32, returndata) */\n      add\n        /* \"@openzeppelin/contracts/utils/Address.sol\":7491:7535  revert(add(32, returndata), returndata_size) */\n      revert\n        /* \"@openzeppelin/contracts/utils/Address.sol\":7261:7626  if (returndata.length > 0) {... */\n    tag_372:\n        /* \"@openzeppelin/contracts/utils/Address.sol\":7598:7610  errorMessage */\n      dup2\n        /* \"@openzeppelin/contracts/utils/Address.sol\":7591:7611  revert(errorMessage) */\n      mload(0x40)\n      shl(0xe5, 0x461bcd)\n      dup2\n      mstore\n      0x04\n      add\n      tag_109\n      swap2\n      swap1\n      tag_375\n      jump\t// in\n        /* \"#utility.yul\":14:261   */\n    tag_44:\n        /* \"#utility.yul\":73:79   */\n      0x00\n        /* \"#utility.yul\":126:128   */\n      0x20\n        /* \"#utility.yul\":114:123   */\n      dup3\n        /* \"#utility.yul\":105:112   */\n      dup5\n        /* \"#utility.yul\":101:124   */\n      sub\n        /* \"#utility.yul\":97:129   */\n      slt\n        /* \"#utility.yul\":94:146   */\n      iszero\n      tag_378\n      jumpi\n        /* \"#utility.yul\":142:143   */\n      0x00\n        /* \"#utility.yul\":139:140   */\n      dup1\n        /* \"#utility.yul\":132:144   */\n      revert\n        /* \"#utility.yul\":94:146   */\n    tag_378:\n        /* \"#utility.yul\":181:190   */\n      dup2\n        /* \"#utility.yul\":168:191   */\n      calldataload\n        /* \"#utility.yul\":200:231   */\n      tag_324\n        /* \"#utility.yul\":225:230   */\n      dup2\n        /* \"#utility.yul\":200:231   */\n      tag_380\n      jump\t// in\n        /* \"#utility.yul\":266:517   */\n    tag_303:\n        /* \"#utility.yul\":336:342   */\n      0x00\n        /* \"#utility.yul\":389:391   */\n      0x20\n        /* \"#utility.yul\":377:386   */\n      dup3\n        /* \"#utility.yul\":368:375   */\n      dup5\n        /* \"#utility.yul\":364:387   */\n      sub\n        /* \"#utility.yul\":360:392   */\n      slt\n        /* \"#utility.yul\":357:409   */\n      iszero\n      tag_382\n      jumpi\n        /* \"#utility.yul\":405:406   */\n      0x00\n        /* \"#utility.yul\":402:403   */\n      dup1\n        /* \"#utility.yul\":395:407   */\n      revert\n        /* \"#utility.yul\":357:409   */\n    tag_382:\n        /* \"#utility.yul\":437:446   */\n      dup2\n        /* \"#utility.yul\":431:447   */\n      mload\n        /* \"#utility.yul\":456:487   */\n      tag_324\n        /* \"#utility.yul\":481:486   */\n      dup2\n        /* \"#utility.yul\":456:487   */\n      tag_380\n      jump\t// in\n        /* \"#utility.yul\":522:799   */\n    tag_250:\n        /* \"#utility.yul\":589:595   */\n      0x00\n        /* \"#utility.yul\":642:644   */\n      0x20\n        /* \"#utility.yul\":630:639   */\n      dup3\n        /* \"#utility.yul\":621:628   */\n      dup5\n        /* \"#utility.yul\":617:640   */\n      sub\n        /* \"#utility.yul\":613:645   */\n      slt\n        /* \"#utility.yul\":610:662   */\n      iszero\n      tag_385\n      jumpi\n        /* \"#utility.yul\":658:659   */\n      0x00\n        /* \"#utility.yul\":655:656   */\n      dup1\n        /* \"#utility.yul\":648:660   */\n      revert\n        /* \"#utility.yul\":610:662   */\n    tag_385:\n        /* \"#utility.yul\":690:699   */\n      dup2\n        /* \"#utility.yul\":684:700   */\n      mload\n        /* \"#utility.yul\":743:748   */\n      dup1\n        /* \"#utility.yul\":736:749   */\n      iszero\n        /* \"#utility.yul\":729:750   */\n      iszero\n        /* \"#utility.yul\":722:727   */\n      dup2\n        /* \"#utility.yul\":719:751   */\n      eq\n        /* \"#utility.yul\":709:769   */\n      tag_324\n      jumpi\n        /* \"#utility.yul\":765:766   */\n      0x00\n        /* \"#utility.yul\":762:763   */\n      dup1\n        /* \"#utility.yul\":755:767   */\n      revert\n        /* \"#utility.yul\":1083:1263   */\n    tag_39:\n        /* \"#utility.yul\":1142:1148   */\n      0x00\n        /* \"#utility.yul\":1195:1197   */\n      0x20\n        /* \"#utility.yul\":1183:1192   */\n      dup3\n        /* \"#utility.yul\":1174:1181   */\n      dup5\n        /* \"#utility.yul\":1170:1193   */\n      sub\n        /* \"#utility.yul\":1166:1198   */\n      slt\n        /* \"#utility.yul\":1163:1215   */\n      iszero\n      tag_391\n      jumpi\n        /* \"#utility.yul\":1211:1212   */\n      0x00\n        /* \"#utility.yul\":1208:1209   */\n      dup1\n        /* \"#utility.yul\":1201:1213   */\n      revert\n        /* \"#utility.yul\":1163:1215   */\n    tag_391:\n      pop\n        /* \"#utility.yul\":1234:1257   */\n      calldataload\n      swap2\n        /* \"#utility.yul\":1083:1263   */\n      swap1\n      pop\n      jump\t// out\n        /* \"#utility.yul\":1268:1452   */\n    tag_213:\n        /* \"#utility.yul\":1338:1344   */\n      0x00\n        /* \"#utility.yul\":1391:1393   */\n      0x20\n        /* \"#utility.yul\":1379:1388   */\n      dup3\n        /* \"#utility.yul\":1370:1377   */\n      dup5\n        /* \"#utility.yul\":1366:1389   */\n      sub\n        /* \"#utility.yul\":1362:1394   */\n      slt\n        /* \"#utility.yul\":1359:1411   */\n      iszero\n      tag_393\n      jumpi\n        /* \"#utility.yul\":1407:1408   */\n      0x00\n        /* \"#utility.yul\":1404:1405   */\n      dup1\n        /* \"#utility.yul\":1397:1409   */\n      revert\n        /* \"#utility.yul\":1359:1411   */\n    tag_393:\n      pop\n        /* \"#utility.yul\":1430:1446   */\n      mload\n      swap2\n        /* \"#utility.yul\":1268:1452   */\n      swap1\n      pop\n      jump\t// out\n        /* \"#utility.yul\":1457:1705   */\n    tag_93:\n        /* \"#utility.yul\":1525:1531   */\n      0x00\n        /* \"#utility.yul\":1533:1539   */\n      dup1\n        /* \"#utility.yul\":1586:1588   */\n      0x40\n        /* \"#utility.yul\":1574:1583   */\n      dup4\n        /* \"#utility.yul\":1565:1572   */\n      dup6\n        /* \"#utility.yul\":1561:1584   */\n      sub\n        /* \"#utility.yul\":1557:1589   */\n      slt\n        /* \"#utility.yul\":1554:1606   */\n      iszero\n      tag_395\n      jumpi\n        /* \"#utility.yul\":1602:1603   */\n      0x00\n        /* \"#utility.yul\":1599:1600   */\n      dup1\n        /* \"#utility.yul\":1592:1604   */\n      revert\n        /* \"#utility.yul\":1554:1606   */\n    tag_395:\n      pop\n      pop\n        /* \"#utility.yul\":1625:1648   */\n      dup1\n      calldataload\n      swap3\n        /* \"#utility.yul\":1695:1697   */\n      0x20\n        /* \"#utility.yul\":1680:1698   */\n      swap1\n      swap2\n      add\n        /* \"#utility.yul\":1667:1699   */\n      calldataload\n      swap2\n      pop\n        /* \"#utility.yul\":1457:1705   */\n      jump\t// out\n        /* \"#utility.yul\":1710:1955   */\n    tag_169:\n        /* \"#utility.yul\":1789:1795   */\n      0x00\n        /* \"#utility.yul\":1797:1803   */\n      dup1\n        /* \"#utility.yul\":1850:1852   */\n      0x40\n        /* \"#utility.yul\":1838:1847   */\n      dup4\n        /* \"#utility.yul\":1829:1836   */\n      dup6\n        /* \"#utility.yul\":1825:1848   */\n      sub\n        /* \"#utility.yul\":1821:1853   */\n      slt\n        /* \"#utility.yul\":1818:1870   */\n      iszero\n      tag_397\n      jumpi\n        /* \"#utility.yul\":1866:1867   */\n      0x00\n        /* \"#utility.yul\":1863:1864   */\n      dup1\n        /* \"#utility.yul\":1856:1868   */\n      revert\n        /* \"#utility.yul\":1818:1870   */\n    tag_397:\n      pop\n      pop\n        /* \"#utility.yul\":1889:1905   */\n      dup1\n      mload\n        /* \"#utility.yul\":1945:1947   */\n      0x20\n        /* \"#utility.yul\":1930:1948   */\n      swap1\n      swap2\n      add\n        /* \"#utility.yul\":1924:1949   */\n      mload\n        /* \"#utility.yul\":1889:1905   */\n      swap1\n      swap3\n        /* \"#utility.yul\":1924:1949   */\n      swap1\n      swap2\n      pop\n        /* \"#utility.yul\":1710:1955   */\n      jump\t// out\n        /* \"#utility.yul\":1960:2343   */\n    tag_29:\n        /* \"#utility.yul\":2037:2043   */\n      0x00\n        /* \"#utility.yul\":2045:2051   */\n      dup1\n        /* \"#utility.yul\":2053:2059   */\n      0x00\n        /* \"#utility.yul\":2106:2108   */\n      0x60\n        /* \"#utility.yul\":2094:2103   */\n      dup5\n        /* \"#utility.yul\":2085:2092   */\n      dup7\n        /* \"#utility.yul\":2081:2104   */\n      sub\n        /* \"#utility.yul\":2077:2109   */\n      slt\n        /* \"#utility.yul\":2074:2126   */\n      iszero\n      tag_399\n      jumpi\n        /* \"#utility.yul\":2122:2123   */\n      0x00\n        /* \"#utility.yul\":2119:2120   */\n      dup1\n        /* \"#utility.yul\":2112:2124   */\n      revert\n        /* \"#utility.yul\":2074:2126   */\n    tag_399:\n        /* \"#utility.yul\":2158:2167   */\n      dup4\n        /* \"#utility.yul\":2145:2168   */\n      calldataload\n        /* \"#utility.yul\":2135:2168   */\n      swap3\n      pop\n        /* \"#utility.yul\":2215:2217   */\n      0x20\n        /* \"#utility.yul\":2204:2213   */\n      dup5\n        /* \"#utility.yul\":2200:2218   */\n      add\n        /* \"#utility.yul\":2187:2219   */\n      calldataload\n        /* \"#utility.yul\":2177:2219   */\n      swap2\n      pop\n        /* \"#utility.yul\":2269:2271   */\n      0x40\n        /* \"#utility.yul\":2258:2267   */\n      dup5\n        /* \"#utility.yul\":2254:2272   */\n      add\n        /* \"#utility.yul\":2241:2273   */\n      calldataload\n        /* \"#utility.yul\":2282:2313   */\n      tag_400\n        /* \"#utility.yul\":2307:2312   */\n      dup2\n        /* \"#utility.yul\":2282:2313   */\n      tag_380\n      jump\t// in\n    tag_400:\n        /* \"#utility.yul\":2332:2337   */\n      dup1\n        /* \"#utility.yul\":2322:2337   */\n      swap2\n      pop\n      pop\n        /* \"#utility.yul\":1960:2343   */\n      swap3\n      pop\n      swap3\n      pop\n      swap3\n      jump\t// out\n        /* \"#utility.yul\":2348:2809   */\n    tag_401:\n        /* \"#utility.yul\":2401:2404   */\n      0x00\n        /* \"#utility.yul\":2439:2444   */\n      dup2\n        /* \"#utility.yul\":2433:2445   */\n      mload\n        /* \"#utility.yul\":2466:2472   */\n      dup1\n        /* \"#utility.yul\":2461:2464   */\n      dup5\n        /* \"#utility.yul\":2454:2473   */\n      mstore\n        /* \"#utility.yul\":2492:2496   */\n      0x20\n        /* \"#utility.yul\":2521:2523   */\n      dup1\n        /* \"#utility.yul\":2516:2519   */\n      dup6\n        /* \"#utility.yul\":2512:2524   */\n      add\n        /* \"#utility.yul\":2505:2524   */\n      swap5\n      pop\n        /* \"#utility.yul\":2558:2560   */\n      dup1\n        /* \"#utility.yul\":2551:2556   */\n      dup5\n        /* \"#utility.yul\":2547:2561   */\n      add\n        /* \"#utility.yul\":2579:2580   */\n      0x00\n        /* \"#utility.yul\":2589:2784   */\n    tag_403:\n        /* \"#utility.yul\":2603:2609   */\n      dup4\n        /* \"#utility.yul\":2600:2601   */\n      dup2\n        /* \"#utility.yul\":2597:2610   */\n      lt\n        /* \"#utility.yul\":2589:2784   */\n      iszero\n      tag_405\n      jumpi\n        /* \"#utility.yul\":2668:2681   */\n      dup2\n      mload\n      sub(shl(0xa0, 0x01), 0x01)\n        /* \"#utility.yul\":2664:2703   */\n      and\n        /* \"#utility.yul\":2652:2704   */\n      dup8\n      mstore\n        /* \"#utility.yul\":2724:2736   */\n      swap6\n      dup3\n      add\n      swap6\n        /* \"#utility.yul\":2759:2774   */\n      swap1\n      dup3\n      add\n      swap1\n        /* \"#utility.yul\":2700:2701   */\n      0x01\n        /* \"#utility.yul\":2618:2627   */\n      add\n        /* \"#utility.yul\":2589:2784   */\n      jump(tag_403)\n    tag_405:\n      pop\n        /* \"#utility.yul\":2800:2803   */\n      swap5\n      swap6\n        /* \"#utility.yul\":2348:2809   */\n      swap5\n      pop\n      pop\n      pop\n      pop\n      pop\n      jump\t// out\n        /* \"#utility.yul\":2814:3088   */\n    tag_362:\n        /* \"#utility.yul\":2943:2946   */\n      0x00\n        /* \"#utility.yul\":2981:2987   */\n      dup3\n        /* \"#utility.yul\":2975:2988   */\n      mload\n        /* \"#utility.yul\":2997:3050   */\n      tag_407\n        /* \"#utility.yul\":3043:3049   */\n      dup2\n        /* \"#utility.yul\":3038:3041   */\n      dup5\n        /* \"#utility.yul\":3031:3035   */\n      0x20\n        /* \"#utility.yul\":3023:3029   */\n      dup8\n        /* \"#utility.yul\":3019:3036   */\n      add\n        /* \"#utility.yul\":2997:3050   */\n      tag_408\n      jump\t// in\n    tag_407:\n        /* \"#utility.yul\":3066:3082   */\n      swap2\n      swap1\n      swap2\n      add\n      swap3\n        /* \"#utility.yul\":2814:3088   */\n      swap2\n      pop\n      pop\n      jump\t// out\n        /* \"#utility.yul\":4182:4692   */\n    tag_310:\n        /* \"#utility.yul\":4453:4459   */\n      dup5\n        /* \"#utility.yul\":4442:4451   */\n      dup2\n        /* \"#utility.yul\":4435:4460   */\n      mstore\n        /* \"#utility.yul\":4496:4499   */\n      0x80\n        /* \"#utility.yul\":4491:4493   */\n      0x20\n        /* \"#utility.yul\":4480:4489   */\n      dup3\n        /* \"#utility.yul\":4476:4494   */\n      add\n        /* \"#utility.yul\":4469:4500   */\n      mstore\n        /* \"#utility.yul\":4416:4420   */\n      0x00\n        /* \"#utility.yul\":4517:4574   */\n      tag_414\n        /* \"#utility.yul\":4569:4572   */\n      0x80\n        /* \"#utility.yul\":4558:4567   */\n      dup4\n        /* \"#utility.yul\":4554:4573   */\n      add\n        /* \"#utility.yul\":4546:4552   */\n      dup7\n        /* \"#utility.yul\":4517:4574   */\n      tag_401\n      jump\t// in\n    tag_414:\n      sub(shl(0xa0, 0x01), 0x01)\n        /* \"#utility.yul\":4610:4642   */\n      swap5\n      swap1\n      swap5\n      and\n        /* \"#utility.yul\":4605:4607   */\n      0x40\n        /* \"#utility.yul\":4590:4608   */\n      dup4\n      add\n        /* \"#utility.yul\":4583:4643   */\n      mstore\n      pop\n        /* \"#utility.yul\":4674:4676   */\n      0x60\n        /* \"#utility.yul\":4659:4677   */\n      add\n        /* \"#utility.yul\":4652:4686   */\n      mstore\n        /* \"#utility.yul\":4509:4574   */\n      swap3\n        /* \"#utility.yul\":4182:4692   */\n      swap2\n      pop\n      pop\n      jump\t// out\n        /* \"#utility.yul\":4697:5080   */\n    tag_375:\n        /* \"#utility.yul\":4846:4848   */\n      0x20\n        /* \"#utility.yul\":4835:4844   */\n      dup2\n        /* \"#utility.yul\":4828:4849   */\n      mstore\n        /* \"#utility.yul\":4809:4813   */\n      0x00\n        /* \"#utility.yul\":4878:4884   */\n      dup3\n        /* \"#utility.yul\":4872:4885   */\n      mload\n        /* \"#utility.yul\":4921:4927   */\n      dup1\n        /* \"#utility.yul\":4916:4918   */\n      0x20\n        /* \"#utility.yul\":4905:4914   */\n      dup5\n        /* \"#utility.yul\":4901:4919   */\n      add\n        /* \"#utility.yul\":4894:4928   */\n      mstore\n        /* \"#utility.yul\":4937:5003   */\n      tag_416\n        /* \"#utility.yul\":4996:5002   */\n      dup2\n        /* \"#utility.yul\":4991:4993   */\n      0x40\n        /* \"#utility.yul\":4980:4989   */\n      dup6\n        /* \"#utility.yul\":4976:4994   */\n      add\n        /* \"#utility.yul\":4971:4973   */\n      0x20\n        /* \"#utility.yul\":4963:4969   */\n      dup8\n        /* \"#utility.yul\":4959:4974   */\n      add\n        /* \"#utility.yul\":4937:5003   */\n      tag_408\n      jump\t// in\n    tag_416:\n        /* \"#utility.yul\":5064:5066   */\n      0x1f\n        /* \"#utility.yul\":5043:5058   */\n      add\n      not(0x1f)\n        /* \"#utility.yul\":5039:5068   */\n      and\n        /* \"#utility.yul\":5024:5069   */\n      swap2\n      swap1\n      swap2\n      add\n        /* \"#utility.yul\":5071:5073   */\n      0x40\n        /* \"#utility.yul\":5020:5074   */\n      add\n      swap3\n        /* \"#utility.yul\":4697:5080   */\n      swap2\n      pop\n      pop\n      jump\t// out\n        /* \"#utility.yul\":5085:5578   */\n    tag_110:\n        /* \"#utility.yul\":5287:5289   */\n      0x20\n        /* \"#utility.yul\":5269:5290   */\n      dup1\n      dup3\n      mstore\n        /* \"#utility.yul\":5326:5328   */\n      0x59\n        /* \"#utility.yul\":5306:5324   */\n      swap1\n      dup3\n      add\n        /* \"#utility.yul\":5299:5329   */\n      mstore\n        /* \"#utility.yul\":5365:5399   */\n      0x41424f41543a3a6f6e6c794d6173746572456e7465727461696e65723a204f6e\n        /* \"#utility.yul\":5360:5362   */\n      0x40\n        /* \"#utility.yul\":5345:5363   */\n      dup3\n      add\n        /* \"#utility.yul\":5338:5400   */\n      mstore\n        /* \"#utility.yul\":5436:5470   */\n      0x6c7920746865206d617374657220656e7465727461696e657220697320616c6c\n        /* \"#utility.yul\":5431:5433   */\n      0x60\n        /* \"#utility.yul\":5416:5434   */\n      dup3\n      add\n        /* \"#utility.yul\":5409:5471   */\n      mstore\n        /* \"#utility.yul\":5508:5535   */\n      0x6f77656420746f2063616c6c2074686973206d6574686f642100000000000000\n        /* \"#utility.yul\":5502:5505   */\n      0x80\n        /* \"#utility.yul\":5487:5506   */\n      dup3\n      add\n        /* \"#utility.yul\":5480:5536   */\n      mstore\n        /* \"#utility.yul\":5568:5571   */\n      0xa0\n        /* \"#utility.yul\":5553:5572   */\n      add\n      swap1\n        /* \"#utility.yul\":5085:5578   */\n      jump\t// out\n        /* \"#utility.yul\":7211:7567   */\n    tag_132:\n        /* \"#utility.yul\":7413:7415   */\n      0x20\n        /* \"#utility.yul\":7395:7416   */\n      dup1\n      dup3\n      mstore\n        /* \"#utility.yul\":7432:7450   */\n      dup2\n      dup2\n      add\n        /* \"#utility.yul\":7425:7455   */\n      mstore\n        /* \"#utility.yul\":7491:7525   */\n      0x4f776e61626c653a2063616c6c6572206973206e6f7420746865206f776e6572\n        /* \"#utility.yul\":7486:7488   */\n      0x40\n        /* \"#utility.yul\":7471:7489   */\n      dup3\n      add\n        /* \"#utility.yul\":7464:7526   */\n      mstore\n        /* \"#utility.yul\":7558:7560   */\n      0x60\n        /* \"#utility.yul\":7543:7561   */\n      add\n      swap1\n        /* \"#utility.yul\":7211:7567   */\n      jump\t// out\n        /* \"#utility.yul\":9629:10211   */\n    tag_345:\n        /* \"#utility.yul\":9928:9934   */\n      dup6\n        /* \"#utility.yul\":9917:9926   */\n      dup2\n        /* \"#utility.yul\":9910:9935   */\n      mstore\n        /* \"#utility.yul\":9971:9977   */\n      dup5\n        /* \"#utility.yul\":9966:9968   */\n      0x20\n        /* \"#utility.yul\":9955:9964   */\n      dup3\n        /* \"#utility.yul\":9951:9969   */\n      add\n        /* \"#utility.yul\":9944:9978   */\n      mstore\n        /* \"#utility.yul\":10014:10017   */\n      0xa0\n        /* \"#utility.yul\":10009:10011   */\n      0x40\n        /* \"#utility.yul\":9998:10007   */\n      dup3\n        /* \"#utility.yul\":9994:10012   */\n      add\n        /* \"#utility.yul\":9987:10018   */\n      mstore\n        /* \"#utility.yul\":9891:9895   */\n      0x00\n        /* \"#utility.yul\":10035:10092   */\n      tag_430\n        /* \"#utility.yul\":10087:10090   */\n      0xa0\n        /* \"#utility.yul\":10076:10085   */\n      dup4\n        /* \"#utility.yul\":10072:10091   */\n      add\n        /* \"#utility.yul\":10064:10070   */\n      dup7\n        /* \"#utility.yul\":10035:10092   */\n      tag_401\n      jump\t// in\n    tag_430:\n      sub(shl(0xa0, 0x01), 0x01)\n        /* \"#utility.yul\":10128:10160   */\n      swap5\n      swap1\n      swap5\n      and\n        /* \"#utility.yul\":10123:10125   */\n      0x60\n        /* \"#utility.yul\":10108:10126   */\n      dup4\n      add\n        /* \"#utility.yul\":10101:10161   */\n      mstore\n      pop\n        /* \"#utility.yul\":10192:10195   */\n      0x80\n        /* \"#utility.yul\":10177:10196   */\n      add\n        /* \"#utility.yul\":10170:10205   */\n      mstore\n        /* \"#utility.yul\":10027:10092   */\n      swap4\n        /* \"#utility.yul\":9629:10211   */\n      swap3\n      pop\n      pop\n      pop\n      jump\t// out\n        /* \"#utility.yul\":10469:10691   */\n    tag_351:\n        /* \"#utility.yul\":10509:10513   */\n      0x00\n        /* \"#utility.yul\":10537:10538   */\n      dup3\n        /* \"#utility.yul\":10534:10535   */\n      dup3\n        /* \"#utility.yul\":10531:10539   */\n      lt\n        /* \"#utility.yul\":10528:10659   */\n      iszero\n      tag_433\n      jumpi\n        /* \"#utility.yul\":10581:10591   */\n      0x4e487b71\n        /* \"#utility.yul\":10576:10579   */\n      0xe0\n        /* \"#utility.yul\":10572:10592   */\n      shl\n        /* \"#utility.yul\":10569:10570   */\n      0x00\n        /* \"#utility.yul\":10562:10593   */\n      mstore\n        /* \"#utility.yul\":10616:10620   */\n      0x11\n        /* \"#utility.yul\":10613:10614   */\n      0x04\n        /* \"#utility.yul\":10606:10621   */\n      mstore\n        /* \"#utility.yul\":10644:10648   */\n      0x24\n        /* \"#utility.yul\":10641:10642   */\n      0x00\n        /* \"#utility.yul\":10634:10649   */\n      revert\n        /* \"#utility.yul\":10528:10659   */\n    tag_433:\n      pop\n        /* \"#utility.yul\":10676:10685   */\n      sub\n      swap1\n        /* \"#utility.yul\":10469:10691   */\n      jump\t// out\n        /* \"#utility.yul\":10696:10954   */\n    tag_408:\n        /* \"#utility.yul\":10768:10769   */\n      0x00\n        /* \"#utility.yul\":10778:10891   */\n    tag_435:\n        /* \"#utility.yul\":10792:10798   */\n      dup4\n        /* \"#utility.yul\":10789:10790   */\n      dup2\n        /* \"#utility.yul\":10786:10799   */\n      lt\n        /* \"#utility.yul\":10778:10891   */\n      iszero\n      tag_437\n      jumpi\n        /* \"#utility.yul\":10868:10879   */\n      dup2\n      dup2\n      add\n        /* \"#utility.yul\":10862:10880   */\n      mload\n        /* \"#utility.yul\":10849:10860   */\n      dup4\n      dup3\n      add\n        /* \"#utility.yul\":10842:10881   */\n      mstore\n        /* \"#utility.yul\":10814:10816   */\n      0x20\n        /* \"#utility.yul\":10807:10817   */\n      add\n        /* \"#utility.yul\":10778:10891   */\n      jump(tag_435)\n    tag_437:\n        /* \"#utility.yul\":10909:10915   */\n      dup4\n        /* \"#utility.yul\":10906:10907   */\n      dup2\n        /* \"#utility.yul\":10903:10916   */\n      gt\n        /* \"#utility.yul\":10900:10948   */\n      iszero\n      tag_315\n      jumpi\n      pop\n      pop\n        /* \"#utility.yul\":10944:10945   */\n      0x00\n        /* \"#utility.yul\":10926:10942   */\n      swap2\n      add\n        /* \"#utility.yul\":10919:10946   */\n      mstore\n        /* \"#utility.yul\":10696:10954   */\n      jump\t// out\n        /* \"#utility.yul\":10959:11086   */\n    tag_306:\n        /* \"#utility.yul\":11020:11030   */\n      0x4e487b71\n        /* \"#utility.yul\":11015:11018   */\n      0xe0\n        /* \"#utility.yul\":11011:11031   */\n      shl\n        /* \"#utility.yul\":11008:11009   */\n      0x00\n        /* \"#utility.yul\":11001:11032   */\n      mstore\n        /* \"#utility.yul\":11051:11055   */\n      0x32\n        /* \"#utility.yul\":11048:11049   */\n      0x04\n        /* \"#utility.yul\":11041:11056   */\n      mstore\n        /* \"#utility.yul\":11075:11079   */\n      0x24\n        /* \"#utility.yul\":11072:11073   */\n      0x00\n        /* \"#utility.yul\":11065:11080   */\n      revert\n        /* \"#utility.yul\":11223:11354   */\n    tag_380:\n      sub(shl(0xa0, 0x01), 0x01)\n        /* \"#utility.yul\":11298:11329   */\n      dup2\n      and\n        /* \"#utility.yul\":11288:11330   */\n      dup2\n      eq\n        /* \"#utility.yul\":11278:11348   */\n      tag_196\n      jumpi\n        /* \"#utility.yul\":11344:11345   */\n      0x00\n        /* \"#utility.yul\":11341:11342   */\n      dup1\n        /* \"#utility.yul\":11334:11346   */\n      revert\n\n    auxdata: 0xa2646970667358221220b59443e4ff04ef171c5f5ecbb3b728c5380c4b8aa0ab3a7010d9b73a9935f60c64736f6c63430008070033\n}\n",
				"bytecode": {
					"linkReferences": {},
					"object": "6080604052670de0b6b3a76400006008553480156200001d57600080fd5b5060405162001c9338038062001c9383398101604081905262000040916200035e565b6200004b336200030e565b6001600160a01b038616620000a75760405162461bcd60e51b815260206004820181905260248201527f466c697020546f6b656e2063616e2774206265207a65726f206164647265737360448201526064015b60405180910390fd5b6001600160a01b038516620001095760405162461bcd60e51b815260206004820152602160248201527f5374616b6520546f6b656e2063616e2774206265207a65726f206164647265736044820152607360f81b60648201526084016200009e565b6001600160a01b0384166200016c5760405162461bcd60e51b815260206004820152602260248201527f52657761726420546f6b656e2063616e2774206265207a65726f206164647265604482015261737360f01b60648201526084016200009e565b6001600160a01b038316620001d05760405162461bcd60e51b815260206004820152602360248201527f5265776172642053797374656d2063616e2774206265207a65726f206164647260448201526265737360e81b60648201526084016200009e565b6001600160a01b038216620002325760405162461bcd60e51b815260206004820152602160248201527f4d617374657220436865662063616e2774206265207a65726f206164647265736044820152607360f81b60648201526084016200009e565b6001600160a01b0381166200029b5760405162461bcd60e51b815260206004820152602860248201527f4d617374657220456e7465727461696e65722063616e2774206265207a65726f604482015267206164647265737360c01b60648201526084016200009e565b600480546001600160a01b03199081166001600160a01b03988916179091556001805482169388169390931790925560078054831691871691909117905560038054821694861694909417909355600280548416928516929092179091556005805490921692169190911790556200040b565b600080546001600160a01b038381166001600160a01b0319831681178455604051919092169283917f8be0079c531659141344cd1fd0a4f28419497f9722a3daafe3b4186f6b6457e09190a35050565b60008060008060008060c087890312156200037857600080fd5b86516200038581620003f2565b60208801519096506200039881620003f2565b6040880151909550620003ab81620003f2565b6060880151909450620003be81620003f2565b6080880151909350620003d181620003f2565b60a0880151909250620003e481620003f2565b809150509295509295509295565b6001600160a01b03811681146200040857600080fd5b50565b611878806200041b6000396000f3fe60806040526004361061010d5760003560e01c80638da5cb5b11610095578063c0d7865511610064578063c0d78655146102ce578063e2bbb158146102ee578063f2fde38b1461030e578063f72b2a4c1461032e578063f7c618c11461034e57600080fd5b80638da5cb5b14610251578063951583c31461026f5780639fbe42e31461028f578063b5644963146102b057600080fd5b806351ed6a30116100dc57806351ed6a30146101a457806354613450146101dc5780635945365e146101fc578063715018a61461021c57806373d387931461023157600080fd5b80630ad58d2f1461011957806313f43a571461013b5780632b0a696d146101645780632b3ea9e11461018457600080fd5b3661011457005b600080fd5b34801561012557600080fd5b506101396101343660046115d1565b61036e565b005b34801561014757600080fd5b5061015160085481565b6040519081526020015b60405180910390f35b34801561017057600080fd5b5061013961017f366004611559565b610445565b34801561019057600080fd5b5061013961019f3660046114fd565b6104aa565b3480156101b057600080fd5b506003546101c4906001600160a01b031681565b6040516001600160a01b03909116815260200161015b565b3480156101e857600080fd5b506101396101f73660046114fd565b610589565b34801561020857600080fd5b506004546101c4906001600160a01b031681565b34801561022857600080fd5b5061013961066b565b34801561023d57600080fd5b506005546101c4906001600160a01b031681565b34801561025d57600080fd5b506000546001600160a01b03166101c4565b34801561027b57600080fd5b5061015161028a366004611559565b6106a1565b34801561029b57600080fd5b506101516102aa366004611559565b50600090565b3480156102bc57600080fd5b506001546001600160a01b03166101c4565b3480156102da57600080fd5b506101396102e93660046114fd565b61072f565b3480156102fa57600080fd5b5061013961030936600461158b565b610805565b34801561031a57600080fd5b506101396103293660046114fd565b61083d565b34801561033a57600080fd5b506101396103493660046115d1565b6108d8565b34801561035a57600080fd5b506002546101c4906001600160a01b031681565b6007546001600160a01b031633146103a15760405162461bcd60e51b8152600401610398906116d2565b60405180910390fd5b826103b5576103b083836109fe565b61041b565b600154604051630441a3e760e41b815260048101859052602481018490526001600160a01b039091169063441a3e7090604401600060405180830381600087803b15801561040257600080fd5b505af1158015610416573d6000803e3d6000fd5b505050505b811561043857600354610438906001600160a01b03168284610a67565b610440610aca565b505050565b6000546001600160a01b0316331461046f5760405162461bcd60e51b815260040161039890611755565b60088190556040518181527fa5ce75f7f52a2e09706441f9b9106cfff4275fd35963a11dad9c45b9ae50b2889060200160405180910390a150565b6000546001600160a01b031633146104d45760405162461bcd60e51b815260040161039890611755565b6001600160a01b03811661053d5760405162461bcd60e51b815260206004820152602a60248201527f5265776172642053797374656d2063616e27742062652073657420746f207a65604482015269726f206164647265737360b01b6064820152608401610398565b600580546001600160a01b0319166001600160a01b03831690811790915560405133907fbb802456c4e53c17a623585d276747174bcf39120266b12c32c0bb73df94acb690600090a350565b6000546001600160a01b031633146105b35760405162461bcd60e51b815260040161039890611755565b6001600160a01b0381166106215760405162461bcd60e51b815260206004820152602f60248201527f4d617374657220456e7465727461696e65722063616e2774206265207365742060448201526e746f207a65726f206164647265737360881b6064820152608401610398565b600780546001600160a01b0319166001600160a01b0383169081179091556040517fbf63a13967243f035997ab7188eae733cdf9c8f25ea71389d3a0615450a0728690600090a250565b6000546001600160a01b031633146106955760405162461bcd60e51b815260040161039890611755565b61069f6000610bbc565b565b6001546040516393f1a40b60e01b81526004810183905230602482015260009182916001600160a01b03909116906393f1a40b90604401604080518083038186803b1580156106ef57600080fd5b505afa158015610703573d6000803e3d6000fd5b505050506040513d601f19601f8201168201806040525081019061072791906115ad565b509392505050565b6000546001600160a01b031633146107595760405162461bcd60e51b815260040161039890611755565b6001600160a01b0381166107bb5760405162461bcd60e51b815260206004820152602360248201527f526f757465722063616e27742062652073657420746f207a65726f206164647260448201526265737360e81b6064820152608401610398565b600680546001600160a01b0319166001600160a01b0383169081179091556040517f6de4326a8b9054d72d9dbab97d27bc4edffadee7d966f5af9cc4eafdaf8e545590600090a250565b6007546001600160a01b0316331461082f5760405162461bcd60e51b8152600401610398906116d2565b6108398282610c0c565b5050565b6000546001600160a01b031633146108675760405162461bcd60e51b815260040161039890611755565b6001600160a01b0381166108cc5760405162461bcd60e51b815260206004820152602660248201527f4f776e61626c653a206e6577206f776e657220697320746865207a65726f206160448201526564647265737360d01b6064820152608401610398565b6108d581610bbc565b50565b6007546001600160a01b031633146109025760405162461bcd60e51b8152600401610398906116d2565b600154604051635459cf7760e11b8152600481018590526001600160a01b039091169063a8b39eee90602401600060405180830381600087803b15801561094857600080fd5b505af115801561095c573d6000803e3d6000fd5b505060035461097892506001600160a01b031690508284610d2f565b6003546040516370a0823160e01b81523060048201526104409185916001600160a01b03909116906370a082319060240160206040518083038186803b1580156109c157600080fd5b505afa1580156109d5573d6000803e3d6000fd5b505050506040513d601f19601f820116820180604052508101906109f99190611572565b610c0c565b600154604051630441a3e760e41b815260048101849052602481018390526001600160a01b039091169063441a3e7090604401600060405180830381600087803b158015610a4b57600080fd5b505af1158015610a5f573d6000803e3d6000fd5b505050505050565b6040516001600160a01b03831660248201526044810182905261044090849063a9059cbb60e01b906064015b60408051601f198184030181529190526020810180516001600160e01b03166001600160e01b031990931692909217909152610f29565b6002546040516370a0823160e01b81523060048201526000916001600160a01b0316906370a082319060240160206040518083038186803b158015610b0e57600080fd5b505afa158015610b22573d6000803e3d6000fd5b505050506040513d601f19601f82011682018060405250810190610b469190611572565b6006549091506001600160a01b0316158015610b625750600081115b15610b8f576002546108d5906001600160a01b0316610b896000546001600160a01b031690565b83610d2f565b60085481106108d557600254600090610bb1906001600160a01b031683610ffb565b90506108398161101a565b600080546001600160a01b038381166001600160a01b0319831681178455604051919092169283917f8be0079c531659141344cd1fd0a4f28419497f9722a3daafe3b4186f6b6457e09190a35050565b600354610c24906001600160a01b031633308461117d565b60035460015460405163095ea7b360e01b81526001600160a01b0391821660048201526024810184905291169063095ea7b390604401602060405180830381600087803b158015610c7457600080fd5b505af1158015610c88573d6000803e3d6000fd5b505050506040513d601f19601f82011682018060405250810190610cac9190611537565b5081610cc157610cbc8282610cc1565b610d27565b600154604051631c57762b60e31b815260048101849052602481018390526001600160a01b039091169063e2bbb15890604401600060405180830381600087803b158015610d0e57600080fd5b505af1158015610d22573d6000803e3d6000fd5b505050505b610839610aca565b6040516370a0823160e01b81523060048201526000906001600160a01b038516906370a082319060240160206040518083038186803b158015610d7157600080fd5b505afa158015610d85573d6000803e3d6000fd5b505050506040513d601f19601f82011682018060405250810190610da99190611572565b9050600081831115610e3e5760405163a9059cbb60e01b81526001600160a01b0385811660048301526024820184905286169063a9059cbb90604401602060405180830381600087803b158015610dff57600080fd5b505af1158015610e13573d6000803e3d6000fd5b505050506040513d601f19601f82011682018060405250810190610e379190611537565b9050610ec3565b60405163a9059cbb60e01b81526001600160a01b0385811660048301526024820185905286169063a9059cbb90604401602060405180830381600087803b158015610e8857600080fd5b505af1158015610e9c573d6000803e3d6000fd5b505050506040513d601f19601f82011682018060405250810190610ec09190611537565b90505b80610f225760405162461bcd60e51b815260206004820152602960248201527f41424f41543a3a73616665546f6b656e5472616e736665723a207472616e7366604482015268195c8819985a5b195960ba1b6064820152608401610398565b5050505050565b6000610f7e826040518060400160405280602081526020017f5361666545524332303a206c6f772d6c6576656c2063616c6c206661696c6564815250856001600160a01b03166111bb9092919063ffffffff16565b8051909150156104405780806020019051810190610f9c9190611537565b6104405760405162461bcd60e51b815260206004820152602a60248201527f5361666545524332303a204552433230206f7065726174696f6e20646964206e6044820152691bdd081cdd58d8d9595960b21b6064820152608401610398565b60004761100884846111d4565b6110124782611390565b949350505050565b6040805160028082526060820183526000926020830190803683375050600654604080516315ab88c960e31b815290519394506001600160a01b039091169263ad5c464892506004808301926020929190829003018186803b15801561107f57600080fd5b505afa158015611093573d6000803e3d6000fd5b505050506040513d601f19601f820116820180604052508101906110b7919061151a565b816000815181106110ca576110ca611817565b6001600160a01b0392831660209182029290920101526004548251911690829060019081106110fb576110fb611817565b6001600160a01b03928316602091820292909201015260065460055460405163b6f9de9560e01b81529183169263b6f9de9592869261114792600092889290911690429060040161166a565b6000604051808303818588803b15801561116057600080fd5b505af1158015611174573d6000803e3d6000fd5b50505050505050565b6040516001600160a01b03808516602483015283166044820152606481018290526111b59085906323b872dd60e01b90608401610a93565b50505050565b60606111ca848460008561139c565b90505b9392505050565b604080516002808252606082018352600092602083019080368337019050509050828160008151811061120957611209611817565b6001600160a01b03928316602091820292909201810191909152600654604080516315ab88c960e31b81529051919093169263ad5c4648926004808301939192829003018186803b15801561125d57600080fd5b505afa158015611271573d6000803e3d6000fd5b505050506040513d601f19601f82011682018060405250810190611295919061151a565b816001815181106112a8576112a8611817565b6001600160a01b03928316602091820292909201015260065460405163095ea7b360e01b81529082166004820152602481018490529084169063095ea7b390604401602060405180830381600087803b15801561130457600080fd5b505af1158015611318573d6000803e3d6000fd5b505050506040513d601f19601f8201168201806040525081019061133c9190611537565b5060065460405163791ac94760e01b81526001600160a01b039091169063791ac9479061137690859060009086903090429060040161178a565b600060405180830381600087803b15801561116057600080fd5b60006111cd82846117c6565b6060824710156113fd5760405162461bcd60e51b815260206004820152602660248201527f416464726573733a20696e73756666696369656e742062616c616e636520666f6044820152651c8818d85b1b60d21b6064820152608401610398565b843b61144b5760405162461bcd60e51b815260206004820152601d60248201527f416464726573733a2063616c6c20746f206e6f6e2d636f6e74726163740000006044820152606401610398565b600080866001600160a01b03168587604051611467919061164e565b60006040518083038185875af1925050503d80600081146114a4576040519150601f19603f3d011682016040523d82523d6000602084013e6114a9565b606091505b50915091506114b98282866114c4565b979650505050505050565b606083156114d35750816111cd565b8251156114e35782518084602001fd5b8160405162461bcd60e51b8152600401610398919061169f565b60006020828403121561150f57600080fd5b81356111cd8161182d565b60006020828403121561152c57600080fd5b81516111cd8161182d565b60006020828403121561154957600080fd5b815180151581146111cd57600080fd5b60006020828403121561156b57600080fd5b5035919050565b60006020828403121561158457600080fd5b5051919050565b6000806040838503121561159e57600080fd5b50508035926020909101359150565b600080604083850312156115c057600080fd5b505080516020909101519092909150565b6000806000606084860312156115e657600080fd5b833592506020840135915060408401356115ff8161182d565b809150509250925092565b600081518084526020808501945080840160005b838110156116435781516001600160a01b03168752958201959082019060010161161e565b509495945050505050565b600082516116608184602087016117eb565b9190910192915050565b848152608060208201526000611683608083018661160a565b6001600160a01b03949094166040830152506060015292915050565b60208152600082518060208401526116be8160408501602087016117eb565b601f01601f19169190910160400192915050565b60208082526059908201527f41424f41543a3a6f6e6c794d6173746572456e7465727461696e65723a204f6e60408201527f6c7920746865206d617374657220656e7465727461696e657220697320616c6c60608201527f6f77656420746f2063616c6c2074686973206d6574686f642100000000000000608082015260a00190565b6020808252818101527f4f776e61626c653a2063616c6c6572206973206e6f7420746865206f776e6572604082015260600190565b85815284602082015260a0604082015260006117a960a083018661160a565b6001600160a01b0394909416606083015250608001529392505050565b6000828210156117e657634e487b7160e01b600052601160045260246000fd5b500390565b60005b838110156118065781810151838201526020016117ee565b838111156111b55750506000910152565b634e487b7160e01b600052603260045260246000fd5b6001600160a01b03811681146108d557600080fdfea2646970667358221220b59443e4ff04ef171c5f5ecbb3b728c5380c4b8aa0ab3a7010d9b73a9935f60c64736f6c63430008070033",
					"opcodes": "PUSH1 0x80 PUSH1 0x40 MSTORE PUSH8 0xDE0B6B3A7640000 PUSH1 0x8 SSTORE CALLVALUE DUP1 ISZERO PUSH3 0x1D JUMPI PUSH1 0x0 DUP1 REVERT JUMPDEST POP PUSH1 0x40 MLOAD PUSH3 0x1C93 CODESIZE SUB DUP1 PUSH3 0x1C93 DUP4 CODECOPY DUP2 ADD PUSH1 0x40 DUP2 SWAP1 MSTORE PUSH3 0x40 SWAP2 PUSH3 0x35E JUMP JUMPDEST PUSH3 0x4B CALLER PUSH3 0x30E JUMP JUMPDEST PUSH1 0x1 PUSH1 0x1 PUSH1 0xA0 SHL SUB DUP7 AND PUSH3 0xA7 JUMPI PUSH1 0x40 MLOAD PUSH3 0x461BCD PUSH1 0xE5 SHL DUP2 MSTORE PUSH1 0x20 PUSH1 0x4 DUP3 ADD DUP2 SWAP1 MSTORE PUSH1 0x24 DUP3 ADD MSTORE PUSH32 0x466C697020546F6B656E2063616E2774206265207A65726F2061646472657373 PUSH1 0x44 DUP3 ADD MSTORE PUSH1 0x64 ADD JUMPDEST PUSH1 0x40 MLOAD DUP1 SWAP2 SUB SWAP1 REVERT JUMPDEST PUSH1 0x1 PUSH1 0x1 PUSH1 0xA0 SHL SUB DUP6 AND PUSH3 0x109 JUMPI PUSH1 0x40 MLOAD PUSH3 0x461BCD PUSH1 0xE5 SHL DUP2 MSTORE PUSH1 0x20 PUSH1 0x4 DUP3 ADD MSTORE PUSH1 0x21 PUSH1 0x24 DUP3 ADD MSTORE PUSH32 0x5374616B6520546F6B656E2063616E2774206265207A65726F20616464726573 PUSH1 0x44 DUP3 ADD MSTORE PUSH1 0x73 PUSH1 0xF8 SHL PUSH1 0x64 DUP3 ADD MSTORE PUSH1 0x84 ADD PUSH3 0x9E JUMP JUMPDEST PUSH1 0x1 PUSH1 0x1 PUSH1 0xA0 SHL SUB DUP5 AND PUSH3 0x16C JUMPI PUSH1 0x40 MLOAD PUSH3 0x461BCD PUSH1 0xE5 SHL DUP2 MSTORE PUSH1 0x20 PUSH1 0x4 DUP3 ADD MSTORE PUSH1 0x22 PUSH1 0x24 DUP3 ADD MSTORE PUSH32 0x52657761726420546F6B656E2063616E2774206265207A65726F206164647265 PUSH1 0x44 DUP3 ADD MSTORE PUSH2 0x7373 PUSH1 0xF0 SHL PUSH1 0x64 DUP3 ADD MSTORE PUSH1 0x84 ADD PUSH3 0x9E JUMP JUMPDEST PUSH1 0x1 PUSH1 0x1 PUSH1 0xA0 SHL SUB DUP4 AND PUSH3 0x1D0 JUMPI PUSH1 0x40 MLOAD PUSH3 0x461BCD PUSH1 0xE5 SHL DUP2 MSTORE PUSH1 0x20 PUSH1 0x4 DUP3 ADD MSTORE PUSH1 0x23 PUSH1 0x24 DUP3 ADD MSTORE PUSH32 0x5265776172642053797374656D2063616E2774206265207A65726F2061646472 PUSH1 0x44 DUP3 ADD MSTORE PUSH3 0x657373 PUSH1 0xE8 SHL PUSH1 0x64 DUP3 ADD MSTORE PUSH1 0x84 ADD PUSH3 0x9E JUMP JUMPDEST PUSH1 0x1 PUSH1 0x1 PUSH1 0xA0 SHL SUB DUP3 AND PUSH3 0x232 JUMPI PUSH1 0x40 MLOAD PUSH3 0x461BCD PUSH1 0xE5 SHL DUP2 MSTORE PUSH1 0x20 PUSH1 0x4 DUP3 ADD MSTORE PUSH1 0x21 PUSH1 0x24 DUP3 ADD MSTORE PUSH32 0x4D617374657220436865662063616E2774206265207A65726F20616464726573 PUSH1 0x44 DUP3 ADD MSTORE PUSH1 0x73 PUSH1 0xF8 SHL PUSH1 0x64 DUP3 ADD MSTORE PUSH1 0x84 ADD PUSH3 0x9E JUMP JUMPDEST PUSH1 0x1 PUSH1 0x1 PUSH1 0xA0 SHL SUB DUP2 AND PUSH3 0x29B JUMPI PUSH1 0x40 MLOAD PUSH3 0x461BCD PUSH1 0xE5 SHL DUP2 MSTORE PUSH1 0x20 PUSH1 0x4 DUP3 ADD MSTORE PUSH1 0x28 PUSH1 0x24 DUP3 ADD MSTORE PUSH32 0x4D617374657220456E7465727461696E65722063616E2774206265207A65726F PUSH1 0x44 DUP3 ADD MSTORE PUSH8 0x2061646472657373 PUSH1 0xC0 SHL PUSH1 0x64 DUP3 ADD MSTORE PUSH1 0x84 ADD PUSH3 0x9E JUMP JUMPDEST PUSH1 0x4 DUP1 SLOAD PUSH1 0x1 PUSH1 0x1 PUSH1 0xA0 SHL SUB NOT SWAP1 DUP2 AND PUSH1 0x1 PUSH1 0x1 PUSH1 0xA0 SHL SUB SWAP9 DUP10 AND OR SWAP1 SWAP2 SSTORE PUSH1 0x1 DUP1 SLOAD DUP3 AND SWAP4 DUP9 AND SWAP4 SWAP1 SWAP4 OR SWAP1 SWAP3 SSTORE PUSH1 0x7 DUP1 SLOAD DUP4 AND SWAP2 DUP8 AND SWAP2 SWAP1 SWAP2 OR SWAP1 SSTORE PUSH1 0x3 DUP1 SLOAD DUP3 AND SWAP5 DUP7 AND SWAP5 SWAP1 SWAP5 OR SWAP1 SWAP4 SSTORE PUSH1 0x2 DUP1 SLOAD DUP5 AND SWAP3 DUP6 AND SWAP3 SWAP1 SWAP3 OR SWAP1 SWAP2 SSTORE PUSH1 0x5 DUP1 SLOAD SWAP1 SWAP3 AND SWAP3 AND SWAP2 SWAP1 SWAP2 OR SWAP1 SSTORE PUSH3 0x40B JUMP JUMPDEST PUSH1 0x0 DUP1 SLOAD PUSH1 0x1 PUSH1 0x1 PUSH1 0xA0 SHL SUB DUP4 DUP2 AND PUSH1 0x1 PUSH1 0x1 PUSH1 0xA0 SHL SUB NOT DUP4 AND DUP2 OR DUP5 SSTORE PUSH1 0x40 MLOAD SWAP2 SWAP1 SWAP3 AND SWAP3 DUP4 SWAP2 PUSH32 0x8BE0079C531659141344CD1FD0A4F28419497F9722A3DAAFE3B4186F6B6457E0 SWAP2 SWAP1 LOG3 POP POP JUMP JUMPDEST PUSH1 0x0 DUP1 PUSH1 0x0 DUP1 PUSH1 0x0 DUP1 PUSH1 0xC0 DUP8 DUP10 SUB SLT ISZERO PUSH3 0x378 JUMPI PUSH1 0x0 DUP1 REVERT JUMPDEST DUP7 MLOAD PUSH3 0x385 DUP2 PUSH3 0x3F2 JUMP JUMPDEST PUSH1 0x20 DUP9 ADD MLOAD SWAP1 SWAP7 POP PUSH3 0x398 DUP2 PUSH3 0x3F2 JUMP JUMPDEST PUSH1 0x40 DUP9 ADD MLOAD SWAP1 SWAP6 POP PUSH3 0x3AB DUP2 PUSH3 0x3F2 JUMP JUMPDEST PUSH1 0x60 DUP9 ADD MLOAD SWAP1 SWAP5 POP PUSH3 0x3BE DUP2 PUSH3 0x3F2 JUMP JUMPDEST PUSH1 0x80 DUP9 ADD MLOAD SWAP1 SWAP4 POP PUSH3 0x3D1 DUP2 PUSH3 0x3F2 JUMP JUMPDEST PUSH1 0xA0 DUP9 ADD MLOAD SWAP1 SWAP3 POP PUSH3 0x3E4 DUP2 PUSH3 0x3F2 JUMP JUMPDEST DUP1 SWAP2 POP POP SWAP3 SWAP6 POP SWAP3 SWAP6 POP SWAP3 SWAP6 JUMP JUMPDEST PUSH1 0x1 PUSH1 0x1 PUSH1 0xA0 SHL SUB DUP2 AND DUP2 EQ PUSH3 0x408 JUMPI PUSH1 0x0 DUP1 REVERT JUMPDEST POP JUMP JUMPDEST PUSH2 0x1878 DUP1 PUSH3 0x41B PUSH1 0x0 CODECOPY PUSH1 0x0 RETURN INVALID PUSH1 0x80 PUSH1 0x40 MSTORE PUSH1 0x4 CALLDATASIZE LT PUSH2 0x10D JUMPI PUSH1 0x0 CALLDATALOAD PUSH1 0xE0 SHR DUP1 PUSH4 0x8DA5CB5B GT PUSH2 0x95 JUMPI DUP1 PUSH4 0xC0D78655 GT PUSH2 0x64 JUMPI DUP1 PUSH4 0xC0D78655 EQ PUSH2 0x2CE JUMPI DUP1 PUSH4 0xE2BBB158 EQ PUSH2 0x2EE JUMPI DUP1 PUSH4 0xF2FDE38B EQ PUSH2 0x30E JUMPI DUP1 PUSH4 0xF72B2A4C EQ PUSH2 0x32E JUMPI DUP1 PUSH4 0xF7C618C1 EQ PUSH2 0x34E JUMPI PUSH1 0x0 DUP1 REVERT JUMPDEST DUP1 PUSH4 0x8DA5CB5B EQ PUSH2 0x251 JUMPI DUP1 PUSH4 0x951583C3 EQ PUSH2 0x26F JUMPI DUP1 PUSH4 0x9FBE42E3 EQ PUSH2 0x28F JUMPI DUP1 PUSH4 0xB5644963 EQ PUSH2 0x2B0 JUMPI PUSH1 0x0 DUP1 REVERT JUMPDEST DUP1 PUSH4 0x51ED6A30 GT PUSH2 0xDC JUMPI DUP1 PUSH4 0x51ED6A30 EQ PUSH2 0x1A4 JUMPI DUP1 PUSH4 0x54613450 EQ PUSH2 0x1DC JUMPI DUP1 PUSH4 0x5945365E EQ PUSH2 0x1FC JUMPI DUP1 PUSH4 0x715018A6 EQ PUSH2 0x21C JUMPI DUP1 PUSH4 0x73D38793 EQ PUSH2 0x231 JUMPI PUSH1 0x0 DUP1 REVERT JUMPDEST DUP1 PUSH4 0xAD58D2F EQ PUSH2 0x119 JUMPI DUP1 PUSH4 0x13F43A57 EQ PUSH2 0x13B JUMPI DUP1 PUSH4 0x2B0A696D EQ PUSH2 0x164 JUMPI DUP1 PUSH4 0x2B3EA9E1 EQ PUSH2 0x184 JUMPI PUSH1 0x0 DUP1 REVERT JUMPDEST CALLDATASIZE PUSH2 0x114 JUMPI STOP JUMPDEST PUSH1 0x0 DUP1 REVERT JUMPDEST CALLVALUE DUP1 ISZERO PUSH2 0x125 JUMPI PUSH1 0x0 DUP1 REVERT JUMPDEST POP PUSH2 0x139 PUSH2 0x134 CALLDATASIZE PUSH1 0x4 PUSH2 0x15D1 JUMP JUMPDEST PUSH2 0x36E JUMP JUMPDEST STOP JUMPDEST CALLVALUE DUP1 ISZERO PUSH2 0x147 JUMPI PUSH1 0x0 DUP1 REVERT JUMPDEST POP PUSH2 0x151 PUSH1 0x8 SLOAD DUP2 JUMP JUMPDEST PUSH1 0x40 MLOAD SWAP1 DUP2 MSTORE PUSH1 0x20 ADD JUMPDEST PUSH1 0x40 MLOAD DUP1 SWAP2 SUB SWAP1 RETURN JUMPDEST CALLVALUE DUP1 ISZERO PUSH2 0x170 JUMPI PUSH1 0x0 DUP1 REVERT JUMPDEST POP PUSH2 0x139 PUSH2 0x17F CALLDATASIZE PUSH1 0x4 PUSH2 0x1559 JUMP JUMPDEST PUSH2 0x445 JUMP JUMPDEST CALLVALUE DUP1 ISZERO PUSH2 0x190 JUMPI PUSH1 0x0 DUP1 REVERT JUMPDEST POP PUSH2 0x139 PUSH2 0x19F CALLDATASIZE PUSH1 0x4 PUSH2 0x14FD JUMP JUMPDEST PUSH2 0x4AA JUMP JUMPDEST CALLVALUE DUP1 ISZERO PUSH2 0x1B0 JUMPI PUSH1 0x0 DUP1 REVERT JUMPDEST POP PUSH1 0x3 SLOAD PUSH2 0x1C4 SWAP1 PUSH1 0x1 PUSH1 0x1 PUSH1 0xA0 SHL SUB AND DUP2 JUMP JUMPDEST PUSH1 0x40 MLOAD PUSH1 0x1 PUSH1 0x1 PUSH1 0xA0 SHL SUB SWAP1 SWAP2 AND DUP2 MSTORE PUSH1 0x20 ADD PUSH2 0x15B JUMP JUMPDEST CALLVALUE DUP1 ISZERO PUSH2 0x1E8 JUMPI PUSH1 0x0 DUP1 REVERT JUMPDEST POP PUSH2 0x139 PUSH2 0x1F7 CALLDATASIZE PUSH1 0x4 PUSH2 0x14FD JUMP JUMPDEST PUSH2 0x589 JUMP JUMPDEST CALLVALUE DUP1 ISZERO PUSH2 0x208 JUMPI PUSH1 0x0 DUP1 REVERT JUMPDEST POP PUSH1 0x4 SLOAD PUSH2 0x1C4 SWAP1 PUSH1 0x1 PUSH1 0x1 PUSH1 0xA0 SHL SUB AND DUP2 JUMP JUMPDEST CALLVALUE DUP1 ISZERO PUSH2 0x228 JUMPI PUSH1 0x0 DUP1 REVERT JUMPDEST POP PUSH2 0x139 PUSH2 0x66B JUMP JUMPDEST CALLVALUE DUP1 ISZERO PUSH2 0x23D JUMPI PUSH1 0x0 DUP1 REVERT JUMPDEST POP PUSH1 0x5 SLOAD PUSH2 0x1C4 SWAP1 PUSH1 0x1 PUSH1 0x1 PUSH1 0xA0 SHL SUB AND DUP2 JUMP JUMPDEST CALLVALUE DUP1 ISZERO PUSH2 0x25D JUMPI PUSH1 0x0 DUP1 REVERT JUMPDEST POP PUSH1 0x0 SLOAD PUSH1 0x1 PUSH1 0x1 PUSH1 0xA0 SHL SUB AND PUSH2 0x1C4 JUMP JUMPDEST CALLVALUE DUP1 ISZERO PUSH2 0x27B JUMPI PUSH1 0x0 DUP1 REVERT JUMPDEST POP PUSH2 0x151 PUSH2 0x28A CALLDATASIZE PUSH1 0x4 PUSH2 0x1559 JUMP JUMPDEST PUSH2 0x6A1 JUMP JUMPDEST CALLVALUE DUP1 ISZERO PUSH2 0x29B JUMPI PUSH1 0x0 DUP1 REVERT JUMPDEST POP PUSH2 0x151 PUSH2 0x2AA CALLDATASIZE PUSH1 0x4 PUSH2 0x1559 JUMP JUMPDEST POP PUSH1 0x0 SWAP1 JUMP JUMPDEST CALLVALUE DUP1 ISZERO PUSH2 0x2BC JUMPI PUSH1 0x0 DUP1 REVERT JUMPDEST POP PUSH1 0x1 SLOAD PUSH1 0x1 PUSH1 0x1 PUSH1 0xA0 SHL SUB AND PUSH2 0x1C4 JUMP JUMPDEST CALLVALUE DUP1 ISZERO PUSH2 0x2DA JUMPI PUSH1 0x0 DUP1 REVERT JUMPDEST POP PUSH2 0x139 PUSH2 0x2E9 CALLDATASIZE PUSH1 0x4 PUSH2 0x14FD JUMP JUMPDEST PUSH2 0x72F JUMP JUMPDEST CALLVALUE DUP1 ISZERO PUSH2 0x2FA JUMPI PUSH1 0x0 DUP1 REVERT JUMPDEST POP PUSH2 0x139 PUSH2 0x309 CALLDATASIZE PUSH1 0x4 PUSH2 0x158B JUMP JUMPDEST PUSH2 0x805 JUMP JUMPDEST CALLVALUE DUP1 ISZERO PUSH2 0x31A JUMPI PUSH1 0x0 DUP1 REVERT JUMPDEST POP PUSH2 0x139 PUSH2 0x329 CALLDATASIZE PUSH1 0x4 PUSH2 0x14FD JUMP JUMPDEST PUSH2 0x83D JUMP JUMPDEST CALLVALUE DUP1 ISZERO PUSH2 0x33A JUMPI PUSH1 0x0 DUP1 REVERT JUMPDEST POP PUSH2 0x139 PUSH2 0x349 CALLDATASIZE PUSH1 0x4 PUSH2 0x15D1 JUMP JUMPDEST PUSH2 0x8D8 JUMP JUMPDEST CALLVALUE DUP1 ISZERO PUSH2 0x35A JUMPI PUSH1 0x0 DUP1 REVERT JUMPDEST POP PUSH1 0x2 SLOAD PUSH2 0x1C4 SWAP1 PUSH1 0x1 PUSH1 0x1 PUSH1 0xA0 SHL SUB AND DUP2 JUMP JUMPDEST PUSH1 0x7 SLOAD PUSH1 0x1 PUSH1 0x1 PUSH1 0xA0 SHL SUB AND CALLER EQ PUSH2 0x3A1 JUMPI PUSH1 0x40 MLOAD PUSH3 0x461BCD PUSH1 0xE5 SHL DUP2 MSTORE PUSH1 0x4 ADD PUSH2 0x398 SWAP1 PUSH2 0x16D2 JUMP JUMPDEST PUSH1 0x40 MLOAD DUP1 SWAP2 SUB SWAP1 REVERT JUMPDEST DUP3 PUSH2 0x3B5 JUMPI PUSH2 0x3B0 DUP4 DUP4 PUSH2 0x9FE JUMP JUMPDEST PUSH2 0x41B JUMP JUMPDEST PUSH1 0x1 SLOAD PUSH1 0x40 MLOAD PUSH4 0x441A3E7 PUSH1 0xE4 SHL DUP2 MSTORE PUSH1 0x4 DUP2 ADD DUP6 SWAP1 MSTORE PUSH1 0x24 DUP2 ADD DUP5 SWAP1 MSTORE PUSH1 0x1 PUSH1 0x1 PUSH1 0xA0 SHL SUB SWAP1 SWAP2 AND SWAP1 PUSH4 0x441A3E70 SWAP1 PUSH1 0x44 ADD PUSH1 0x0 PUSH1 0x40 MLOAD DUP1 DUP4 SUB DUP2 PUSH1 0x0 DUP8 DUP1 EXTCODESIZE ISZERO DUP1 ISZERO PUSH2 0x402 JUMPI PUSH1 0x0 DUP1 REVERT JUMPDEST POP GAS CALL ISZERO DUP1 ISZERO PUSH2 0x416 JUMPI RETURNDATASIZE PUSH1 0x0 DUP1 RETURNDATACOPY RETURNDATASIZE PUSH1 0x0 REVERT JUMPDEST POP POP POP POP JUMPDEST DUP2 ISZERO PUSH2 0x438 JUMPI PUSH1 0x3 SLOAD PUSH2 0x438 SWAP1 PUSH1 0x1 PUSH1 0x1 PUSH1 0xA0 SHL SUB AND DUP3 DUP5 PUSH2 0xA67 JUMP JUMPDEST PUSH2 0x440 PUSH2 0xACA JUMP JUMPDEST POP POP POP JUMP JUMPDEST PUSH1 0x0 SLOAD PUSH1 0x1 PUSH1 0x1 PUSH1 0xA0 SHL SUB AND CALLER EQ PUSH2 0x46F JUMPI PUSH1 0x40 MLOAD PUSH3 0x461BCD PUSH1 0xE5 SHL DUP2 MSTORE PUSH1 0x4 ADD PUSH2 0x398 SWAP1 PUSH2 0x1755 JUMP JUMPDEST PUSH1 0x8 DUP2 SWAP1 SSTORE PUSH1 0x40 MLOAD DUP2 DUP2 MSTORE PUSH32 0xA5CE75F7F52A2E09706441F9B9106CFFF4275FD35963A11DAD9C45B9AE50B288 SWAP1 PUSH1 0x20 ADD PUSH1 0x40 MLOAD DUP1 SWAP2 SUB SWAP1 LOG1 POP JUMP JUMPDEST PUSH1 0x0 SLOAD PUSH1 0x1 PUSH1 0x1 PUSH1 0xA0 SHL SUB AND CALLER EQ PUSH2 0x4D4 JUMPI PUSH1 0x40 MLOAD PUSH3 0x461BCD PUSH1 0xE5 SHL DUP2 MSTORE PUSH1 0x4 ADD PUSH2 0x398 SWAP1 PUSH2 0x1755 JUMP JUMPDEST PUSH1 0x1 PUSH1 0x1 PUSH1 0xA0 SHL SUB DUP2 AND PUSH2 0x53D JUMPI PUSH1 0x40 MLOAD PUSH3 0x461BCD PUSH1 0xE5 SHL DUP2 MSTORE PUSH1 0x20 PUSH1 0x4 DUP3 ADD MSTORE PUSH1 0x2A PUSH1 0x24 DUP3 ADD MSTORE PUSH32 0x5265776172642053797374656D2063616E27742062652073657420746F207A65 PUSH1 0x44 DUP3 ADD MSTORE PUSH10 0x726F2061646472657373 PUSH1 0xB0 SHL PUSH1 0x64 DUP3 ADD MSTORE PUSH1 0x84 ADD PUSH2 0x398 JUMP JUMPDEST PUSH1 0x5 DUP1 SLOAD PUSH1 0x1 PUSH1 0x1 PUSH1 0xA0 SHL SUB NOT AND PUSH1 0x1 PUSH1 0x1 PUSH1 0xA0 SHL SUB DUP4 AND SWAP1 DUP2 OR SWAP1 SWAP2 SSTORE PUSH1 0x40 MLOAD CALLER SWAP1 PUSH32 0xBB802456C4E53C17A623585D276747174BCF39120266B12C32C0BB73DF94ACB6 SWAP1 PUSH1 0x0 SWAP1 LOG3 POP JUMP JUMPDEST PUSH1 0x0 SLOAD PUSH1 0x1 PUSH1 0x1 PUSH1 0xA0 SHL SUB AND CALLER EQ PUSH2 0x5B3 JUMPI PUSH1 0x40 MLOAD PUSH3 0x461BCD PUSH1 0xE5 SHL DUP2 MSTORE PUSH1 0x4 ADD PUSH2 0x398 SWAP1 PUSH2 0x1755 JUMP JUMPDEST PUSH1 0x1 PUSH1 0x1 PUSH1 0xA0 SHL SUB DUP2 AND PUSH2 0x621 JUMPI PUSH1 0x40 MLOAD PUSH3 0x461BCD PUSH1 0xE5 SHL DUP2 MSTORE PUSH1 0x20 PUSH1 0x4 DUP3 ADD MSTORE PUSH1 0x2F PUSH1 0x24 DUP3 ADD MSTORE PUSH32 0x4D617374657220456E7465727461696E65722063616E27742062652073657420 PUSH1 0x44 DUP3 ADD MSTORE PUSH15 0x746F207A65726F2061646472657373 PUSH1 0x88 SHL PUSH1 0x64 DUP3 ADD MSTORE PUSH1 0x84 ADD PUSH2 0x398 JUMP JUMPDEST PUSH1 0x7 DUP1 SLOAD PUSH1 0x1 PUSH1 0x1 PUSH1 0xA0 SHL SUB NOT AND PUSH1 0x1 PUSH1 0x1 PUSH1 0xA0 SHL SUB DUP4 AND SWAP1 DUP2 OR SWAP1 SWAP2 SSTORE PUSH1 0x40 MLOAD PUSH32 0xBF63A13967243F035997AB7188EAE733CDF9C8F25EA71389D3A0615450A07286 SWAP1 PUSH1 0x0 SWAP1 LOG2 POP JUMP JUMPDEST PUSH1 0x0 SLOAD PUSH1 0x1 PUSH1 0x1 PUSH1 0xA0 SHL SUB AND CALLER EQ PUSH2 0x695 JUMPI PUSH1 0x40 MLOAD PUSH3 0x461BCD PUSH1 0xE5 SHL DUP2 MSTORE PUSH1 0x4 ADD PUSH2 0x398 SWAP1 PUSH2 0x1755 JUMP JUMPDEST PUSH2 0x69F PUSH1 0x0 PUSH2 0xBBC JUMP JUMPDEST JUMP JUMPDEST PUSH1 0x1 SLOAD PUSH1 0x40 MLOAD PUSH4 0x93F1A40B PUSH1 0xE0 SHL DUP2 MSTORE PUSH1 0x4 DUP2 ADD DUP4 SWAP1 MSTORE ADDRESS PUSH1 0x24 DUP3 ADD MSTORE PUSH1 0x0 SWAP2 DUP3 SWAP2 PUSH1 0x1 PUSH1 0x1 PUSH1 0xA0 SHL SUB SWAP1 SWAP2 AND SWAP1 PUSH4 0x93F1A40B SWAP1 PUSH1 0x44 ADD PUSH1 0x40 DUP1 MLOAD DUP1 DUP4 SUB DUP2 DUP7 DUP1 EXTCODESIZE ISZERO DUP1 ISZERO PUSH2 0x6EF JUMPI PUSH1 0x0 DUP1 REVERT JUMPDEST POP GAS STATICCALL ISZERO DUP1 ISZERO PUSH2 0x703 JUMPI RETURNDATASIZE PUSH1 0x0 DUP1 RETURNDATACOPY RETURNDATASIZE PUSH1 0x0 REVERT JUMPDEST POP POP POP POP PUSH1 0x40 MLOAD RETURNDATASIZE PUSH1 0x1F NOT PUSH1 0x1F DUP3 ADD AND DUP3 ADD DUP1 PUSH1 0x40 MSTORE POP DUP2 ADD SWAP1 PUSH2 0x727 SWAP2 SWAP1 PUSH2 0x15AD JUMP JUMPDEST POP SWAP4 SWAP3 POP POP POP JUMP JUMPDEST PUSH1 0x0 SLOAD PUSH1 0x1 PUSH1 0x1 PUSH1 0xA0 SHL SUB AND CALLER EQ PUSH2 0x759 JUMPI PUSH1 0x40 MLOAD PUSH3 0x461BCD PUSH1 0xE5 SHL DUP2 MSTORE PUSH1 0x4 ADD PUSH2 0x398 SWAP1 PUSH2 0x1755 JUMP JUMPDEST PUSH1 0x1 PUSH1 0x1 PUSH1 0xA0 SHL SUB DUP2 AND PUSH2 0x7BB JUMPI PUSH1 0x40 MLOAD PUSH3 0x461BCD PUSH1 0xE5 SHL DUP2 MSTORE PUSH1 0x20 PUSH1 0x4 DUP3 ADD MSTORE PUSH1 0x23 PUSH1 0x24 DUP3 ADD MSTORE PUSH32 0x526F757465722063616E27742062652073657420746F207A65726F2061646472 PUSH1 0x44 DUP3 ADD MSTORE PUSH3 0x657373 PUSH1 0xE8 SHL PUSH1 0x64 DUP3 ADD MSTORE PUSH1 0x84 ADD PUSH2 0x398 JUMP JUMPDEST PUSH1 0x6 DUP1 SLOAD PUSH1 0x1 PUSH1 0x1 PUSH1 0xA0 SHL SUB NOT AND PUSH1 0x1 PUSH1 0x1 PUSH1 0xA0 SHL SUB DUP4 AND SWAP1 DUP2 OR SWAP1 SWAP2 SSTORE PUSH1 0x40 MLOAD PUSH32 0x6DE4326A8B9054D72D9DBAB97D27BC4EDFFADEE7D966F5AF9CC4EAFDAF8E5455 SWAP1 PUSH1 0x0 SWAP1 LOG2 POP JUMP JUMPDEST PUSH1 0x7 SLOAD PUSH1 0x1 PUSH1 0x1 PUSH1 0xA0 SHL SUB AND CALLER EQ PUSH2 0x82F JUMPI PUSH1 0x40 MLOAD PUSH3 0x461BCD PUSH1 0xE5 SHL DUP2 MSTORE PUSH1 0x4 ADD PUSH2 0x398 SWAP1 PUSH2 0x16D2 JUMP JUMPDEST PUSH2 0x839 DUP3 DUP3 PUSH2 0xC0C JUMP JUMPDEST POP POP JUMP JUMPDEST PUSH1 0x0 SLOAD PUSH1 0x1 PUSH1 0x1 PUSH1 0xA0 SHL SUB AND CALLER EQ PUSH2 0x867 JUMPI PUSH1 0x40 MLOAD PUSH3 0x461BCD PUSH1 0xE5 SHL DUP2 MSTORE PUSH1 0x4 ADD PUSH2 0x398 SWAP1 PUSH2 0x1755 JUMP JUMPDEST PUSH1 0x1 PUSH1 0x1 PUSH1 0xA0 SHL SUB DUP2 AND PUSH2 0x8CC JUMPI PUSH1 0x40 MLOAD PUSH3 0x461BCD PUSH1 0xE5 SHL DUP2 MSTORE PUSH1 0x20 PUSH1 0x4 DUP3 ADD MSTORE PUSH1 0x26 PUSH1 0x24 DUP3 ADD MSTORE PUSH32 0x4F776E61626C653A206E6577206F776E657220697320746865207A65726F2061 PUSH1 0x44 DUP3 ADD MSTORE PUSH6 0x646472657373 PUSH1 0xD0 SHL PUSH1 0x64 DUP3 ADD MSTORE PUSH1 0x84 ADD PUSH2 0x398 JUMP JUMPDEST PUSH2 0x8D5 DUP2 PUSH2 0xBBC JUMP JUMPDEST POP JUMP JUMPDEST PUSH1 0x7 SLOAD PUSH1 0x1 PUSH1 0x1 PUSH1 0xA0 SHL SUB AND CALLER EQ PUSH2 0x902 JUMPI PUSH1 0x40 MLOAD PUSH3 0x461BCD PUSH1 0xE5 SHL DUP2 MSTORE PUSH1 0x4 ADD PUSH2 0x398 SWAP1 PUSH2 0x16D2 JUMP JUMPDEST PUSH1 0x1 SLOAD PUSH1 0x40 MLOAD PUSH4 0x5459CF77 PUSH1 0xE1 SHL DUP2 MSTORE PUSH1 0x4 DUP2 ADD DUP6 SWAP1 MSTORE PUSH1 0x1 PUSH1 0x1 PUSH1 0xA0 SHL SUB SWAP1 SWAP2 AND SWAP1 PUSH4 0xA8B39EEE SWAP1 PUSH1 0x24 ADD PUSH1 0x0 PUSH1 0x40 MLOAD DUP1 DUP4 SUB DUP2 PUSH1 0x0 DUP8 DUP1 EXTCODESIZE ISZERO DUP1 ISZERO PUSH2 0x948 JUMPI PUSH1 0x0 DUP1 REVERT JUMPDEST POP GAS CALL ISZERO DUP1 ISZERO PUSH2 0x95C JUMPI RETURNDATASIZE PUSH1 0x0 DUP1 RETURNDATACOPY RETURNDATASIZE PUSH1 0x0 REVERT JUMPDEST POP POP PUSH1 0x3 SLOAD PUSH2 0x978 SWAP3 POP PUSH1 0x1 PUSH1 0x1 PUSH1 0xA0 SHL SUB AND SWAP1 POP DUP3 DUP5 PUSH2 0xD2F JUMP JUMPDEST PUSH1 0x3 SLOAD PUSH1 0x40 MLOAD PUSH4 0x70A08231 PUSH1 0xE0 SHL DUP2 MSTORE ADDRESS PUSH1 0x4 DUP3 ADD MSTORE PUSH2 0x440 SWAP2 DUP6 SWAP2 PUSH1 0x1 PUSH1 0x1 PUSH1 0xA0 SHL SUB SWAP1 SWAP2 AND SWAP1 PUSH4 0x70A08231 SWAP1 PUSH1 0x24 ADD PUSH1 0x20 PUSH1 0x40 MLOAD DUP1 DUP4 SUB DUP2 DUP7 DUP1 EXTCODESIZE ISZERO DUP1 ISZERO PUSH2 0x9C1 JUMPI PUSH1 0x0 DUP1 REVERT JUMPDEST POP GAS STATICCALL ISZERO DUP1 ISZERO PUSH2 0x9D5 JUMPI RETURNDATASIZE PUSH1 0x0 DUP1 RETURNDATACOPY RETURNDATASIZE PUSH1 0x0 REVERT JUMPDEST POP POP POP POP PUSH1 0x40 MLOAD RETURNDATASIZE PUSH1 0x1F NOT PUSH1 0x1F DUP3 ADD AND DUP3 ADD DUP1 PUSH1 0x40 MSTORE POP DUP2 ADD SWAP1 PUSH2 0x9F9 SWAP2 SWAP1 PUSH2 0x1572 JUMP JUMPDEST PUSH2 0xC0C JUMP JUMPDEST PUSH1 0x1 SLOAD PUSH1 0x40 MLOAD PUSH4 0x441A3E7 PUSH1 0xE4 SHL DUP2 MSTORE PUSH1 0x4 DUP2 ADD DUP5 SWAP1 MSTORE PUSH1 0x24 DUP2 ADD DUP4 SWAP1 MSTORE PUSH1 0x1 PUSH1 0x1 PUSH1 0xA0 SHL SUB SWAP1 SWAP2 AND SWAP1 PUSH4 0x441A3E70 SWAP1 PUSH1 0x44 ADD PUSH1 0x0 PUSH1 0x40 MLOAD DUP1 DUP4 SUB DUP2 PUSH1 0x0 DUP8 DUP1 EXTCODESIZE ISZERO DUP1 ISZERO PUSH2 0xA4B JUMPI PUSH1 0x0 DUP1 REVERT JUMPDEST POP GAS CALL ISZERO DUP1 ISZERO PUSH2 0xA5F JUMPI RETURNDATASIZE PUSH1 0x0 DUP1 RETURNDATACOPY RETURNDATASIZE PUSH1 0x0 REVERT JUMPDEST POP POP POP POP POP POP JUMP JUMPDEST PUSH1 0x40 MLOAD PUSH1 0x1 PUSH1 0x1 PUSH1 0xA0 SHL SUB DUP4 AND PUSH1 0x24 DUP3 ADD MSTORE PUSH1 0x44 DUP2 ADD DUP3 SWAP1 MSTORE PUSH2 0x440 SWAP1 DUP5 SWAP1 PUSH4 0xA9059CBB PUSH1 0xE0 SHL SWAP1 PUSH1 0x64 ADD JUMPDEST PUSH1 0x40 DUP1 MLOAD PUSH1 0x1F NOT DUP2 DUP5 SUB ADD DUP2 MSTORE SWAP2 SWAP1 MSTORE PUSH1 0x20 DUP2 ADD DUP1 MLOAD PUSH1 0x1 PUSH1 0x1 PUSH1 0xE0 SHL SUB AND PUSH1 0x1 PUSH1 0x1 PUSH1 0xE0 SHL SUB NOT SWAP1 SWAP4 AND SWAP3 SWAP1 SWAP3 OR SWAP1 SWAP2 MSTORE PUSH2 0xF29 JUMP JUMPDEST PUSH1 0x2 SLOAD PUSH1 0x40 MLOAD PUSH4 0x70A08231 PUSH1 0xE0 SHL DUP2 MSTORE ADDRESS PUSH1 0x4 DUP3 ADD MSTORE PUSH1 0x0 SWAP2 PUSH1 0x1 PUSH1 0x1 PUSH1 0xA0 SHL SUB AND SWAP1 PUSH4 0x70A08231 SWAP1 PUSH1 0x24 ADD PUSH1 0x20 PUSH1 0x40 MLOAD DUP1 DUP4 SUB DUP2 DUP7 DUP1 EXTCODESIZE ISZERO DUP1 ISZERO PUSH2 0xB0E JUMPI PUSH1 0x0 DUP1 REVERT JUMPDEST POP GAS STATICCALL ISZERO DUP1 ISZERO PUSH2 0xB22 JUMPI RETURNDATASIZE PUSH1 0x0 DUP1 RETURNDATACOPY RETURNDATASIZE PUSH1 0x0 REVERT JUMPDEST POP POP POP POP PUSH1 0x40 MLOAD RETURNDATASIZE PUSH1 0x1F NOT PUSH1 0x1F DUP3 ADD AND DUP3 ADD DUP1 PUSH1 0x40 MSTORE POP DUP2 ADD SWAP1 PUSH2 0xB46 SWAP2 SWAP1 PUSH2 0x1572 JUMP JUMPDEST PUSH1 0x6 SLOAD SWAP1 SWAP2 POP PUSH1 0x1 PUSH1 0x1 PUSH1 0xA0 SHL SUB AND ISZERO DUP1 ISZERO PUSH2 0xB62 JUMPI POP PUSH1 0x0 DUP2 GT JUMPDEST ISZERO PUSH2 0xB8F JUMPI PUSH1 0x2 SLOAD PUSH2 0x8D5 SWAP1 PUSH1 0x1 PUSH1 0x1 PUSH1 0xA0 SHL SUB AND PUSH2 0xB89 PUSH1 0x0 SLOAD PUSH1 0x1 PUSH1 0x1 PUSH1 0xA0 SHL SUB AND SWAP1 JUMP JUMPDEST DUP4 PUSH2 0xD2F JUMP JUMPDEST PUSH1 0x8 SLOAD DUP2 LT PUSH2 0x8D5 JUMPI PUSH1 0x2 SLOAD PUSH1 0x0 SWAP1 PUSH2 0xBB1 SWAP1 PUSH1 0x1 PUSH1 0x1 PUSH1 0xA0 SHL SUB AND DUP4 PUSH2 0xFFB JUMP JUMPDEST SWAP1 POP PUSH2 0x839 DUP2 PUSH2 0x101A JUMP JUMPDEST PUSH1 0x0 DUP1 SLOAD PUSH1 0x1 PUSH1 0x1 PUSH1 0xA0 SHL SUB DUP4 DUP2 AND PUSH1 0x1 PUSH1 0x1 PUSH1 0xA0 SHL SUB NOT DUP4 AND DUP2 OR DUP5 SSTORE PUSH1 0x40 MLOAD SWAP2 SWAP1 SWAP3 AND SWAP3 DUP4 SWAP2 PUSH32 0x8BE0079C531659141344CD1FD0A4F28419497F9722A3DAAFE3B4186F6B6457E0 SWAP2 SWAP1 LOG3 POP POP JUMP JUMPDEST PUSH1 0x3 SLOAD PUSH2 0xC24 SWAP1 PUSH1 0x1 PUSH1 0x1 PUSH1 0xA0 SHL SUB AND CALLER ADDRESS DUP5 PUSH2 0x117D JUMP JUMPDEST PUSH1 0x3 SLOAD PUSH1 0x1 SLOAD PUSH1 0x40 MLOAD PUSH4 0x95EA7B3 PUSH1 0xE0 SHL DUP2 MSTORE PUSH1 0x1 PUSH1 0x1 PUSH1 0xA0 SHL SUB SWAP2 DUP3 AND PUSH1 0x4 DUP3 ADD MSTORE PUSH1 0x24 DUP2 ADD DUP5 SWAP1 MSTORE SWAP2 AND SWAP1 PUSH4 0x95EA7B3 SWAP1 PUSH1 0x44 ADD PUSH1 0x20 PUSH1 0x40 MLOAD DUP1 DUP4 SUB DUP2 PUSH1 0x0 DUP8 DUP1 EXTCODESIZE ISZERO DUP1 ISZERO PUSH2 0xC74 JUMPI PUSH1 0x0 DUP1 REVERT JUMPDEST POP GAS CALL ISZERO DUP1 ISZERO PUSH2 0xC88 JUMPI RETURNDATASIZE PUSH1 0x0 DUP1 RETURNDATACOPY RETURNDATASIZE PUSH1 0x0 REVERT JUMPDEST POP POP POP POP PUSH1 0x40 MLOAD RETURNDATASIZE PUSH1 0x1F NOT PUSH1 0x1F DUP3 ADD AND DUP3 ADD DUP1 PUSH1 0x40 MSTORE POP DUP2 ADD SWAP1 PUSH2 0xCAC SWAP2 SWAP1 PUSH2 0x1537 JUMP JUMPDEST POP DUP2 PUSH2 0xCC1 JUMPI PUSH2 0xCBC DUP3 DUP3 PUSH2 0xCC1 JUMP JUMPDEST PUSH2 0xD27 JUMP JUMPDEST PUSH1 0x1 SLOAD PUSH1 0x40 MLOAD PUSH4 0x1C57762B PUSH1 0xE3 SHL DUP2 MSTORE PUSH1 0x4 DUP2 ADD DUP5 SWAP1 MSTORE PUSH1 0x24 DUP2 ADD DUP4 SWAP1 MSTORE PUSH1 0x1 PUSH1 0x1 PUSH1 0xA0 SHL SUB SWAP1 SWAP2 AND SWAP1 PUSH4 0xE2BBB158 SWAP1 PUSH1 0x44 ADD PUSH1 0x0 PUSH1 0x40 MLOAD DUP1 DUP4 SUB DUP2 PUSH1 0x0 DUP8 DUP1 EXTCODESIZE ISZERO DUP1 ISZERO PUSH2 0xD0E JUMPI PUSH1 0x0 DUP1 REVERT JUMPDEST POP GAS CALL ISZERO DUP1 ISZERO PUSH2 0xD22 JUMPI RETURNDATASIZE PUSH1 0x0 DUP1 RETURNDATACOPY RETURNDATASIZE PUSH1 0x0 REVERT JUMPDEST POP POP POP POP JUMPDEST PUSH2 0x839 PUSH2 0xACA JUMP JUMPDEST PUSH1 0x40 MLOAD PUSH4 0x70A08231 PUSH1 0xE0 SHL DUP2 MSTORE ADDRESS PUSH1 0x4 DUP3 ADD MSTORE PUSH1 0x0 SWAP1 PUSH1 0x1 PUSH1 0x1 PUSH1 0xA0 SHL SUB DUP6 AND SWAP1 PUSH4 0x70A08231 SWAP1 PUSH1 0x24 ADD PUSH1 0x20 PUSH1 0x40 MLOAD DUP1 DUP4 SUB DUP2 DUP7 DUP1 EXTCODESIZE ISZERO DUP1 ISZERO PUSH2 0xD71 JUMPI PUSH1 0x0 DUP1 REVERT JUMPDEST POP GAS STATICCALL ISZERO DUP1 ISZERO PUSH2 0xD85 JUMPI RETURNDATASIZE PUSH1 0x0 DUP1 RETURNDATACOPY RETURNDATASIZE PUSH1 0x0 REVERT JUMPDEST POP POP POP POP PUSH1 0x40 MLOAD RETURNDATASIZE PUSH1 0x1F NOT PUSH1 0x1F DUP3 ADD AND DUP3 ADD DUP1 PUSH1 0x40 MSTORE POP DUP2 ADD SWAP1 PUSH2 0xDA9 SWAP2 SWAP1 PUSH2 0x1572 JUMP JUMPDEST SWAP1 POP PUSH1 0x0 DUP2 DUP4 GT ISZERO PUSH2 0xE3E JUMPI PUSH1 0x40 MLOAD PUSH4 0xA9059CBB PUSH1 0xE0 SHL DUP2 MSTORE PUSH1 0x1 PUSH1 0x1 PUSH1 0xA0 SHL SUB DUP6 DUP2 AND PUSH1 0x4 DUP4 ADD MSTORE PUSH1 0x24 DUP3 ADD DUP5 SWAP1 MSTORE DUP7 AND SWAP1 PUSH4 0xA9059CBB SWAP1 PUSH1 0x44 ADD PUSH1 0x20 PUSH1 0x40 MLOAD DUP1 DUP4 SUB DUP2 PUSH1 0x0 DUP8 DUP1 EXTCODESIZE ISZERO DUP1 ISZERO PUSH2 0xDFF JUMPI PUSH1 0x0 DUP1 REVERT JUMPDEST POP GAS CALL ISZERO DUP1 ISZERO PUSH2 0xE13 JUMPI RETURNDATASIZE PUSH1 0x0 DUP1 RETURNDATACOPY RETURNDATASIZE PUSH1 0x0 REVERT JUMPDEST POP POP POP POP PUSH1 0x40 MLOAD RETURNDATASIZE PUSH1 0x1F NOT PUSH1 0x1F DUP3 ADD AND DUP3 ADD DUP1 PUSH1 0x40 MSTORE POP DUP2 ADD SWAP1 PUSH2 0xE37 SWAP2 SWAP1 PUSH2 0x1537 JUMP JUMPDEST SWAP1 POP PUSH2 0xEC3 JUMP JUMPDEST PUSH1 0x40 MLOAD PUSH4 0xA9059CBB PUSH1 0xE0 SHL DUP2 MSTORE PUSH1 0x1 PUSH1 0x1 PUSH1 0xA0 SHL SUB DUP6 DUP2 AND PUSH1 0x4 DUP4 ADD MSTORE PUSH1 0x24 DUP3 ADD DUP6 SWAP1 MSTORE DUP7 AND SWAP1 PUSH4 0xA9059CBB SWAP1 PUSH1 0x44 ADD PUSH1 0x20 PUSH1 0x40 MLOAD DUP1 DUP4 SUB DUP2 PUSH1 0x0 DUP8 DUP1 EXTCODESIZE ISZERO DUP1 ISZERO PUSH2 0xE88 JUMPI PUSH1 0x0 DUP1 REVERT JUMPDEST POP GAS CALL ISZERO DUP1 ISZERO PUSH2 0xE9C JUMPI RETURNDATASIZE PUSH1 0x0 DUP1 RETURNDATACOPY RETURNDATASIZE PUSH1 0x0 REVERT JUMPDEST POP POP POP POP PUSH1 0x40 MLOAD RETURNDATASIZE PUSH1 0x1F NOT PUSH1 0x1F DUP3 ADD AND DUP3 ADD DUP1 PUSH1 0x40 MSTORE POP DUP2 ADD SWAP1 PUSH2 0xEC0 SWAP2 SWAP1 PUSH2 0x1537 JUMP JUMPDEST SWAP1 POP JUMPDEST DUP1 PUSH2 0xF22 JUMPI PUSH1 0x40 MLOAD PUSH3 0x461BCD PUSH1 0xE5 SHL DUP2 MSTORE PUSH1 0x20 PUSH1 0x4 DUP3 ADD MSTORE PUSH1 0x29 PUSH1 0x24 DUP3 ADD MSTORE PUSH32 0x41424F41543A3A73616665546F6B656E5472616E736665723A207472616E7366 PUSH1 0x44 DUP3 ADD MSTORE PUSH9 0x195C8819985A5B1959 PUSH1 0xBA SHL PUSH1 0x64 DUP3 ADD MSTORE PUSH1 0x84 ADD PUSH2 0x398 JUMP JUMPDEST POP POP POP POP POP JUMP JUMPDEST PUSH1 0x0 PUSH2 0xF7E DUP3 PUSH1 0x40 MLOAD DUP1 PUSH1 0x40 ADD PUSH1 0x40 MSTORE DUP1 PUSH1 0x20 DUP2 MSTORE PUSH1 0x20 ADD PUSH32 0x5361666545524332303A206C6F772D6C6576656C2063616C6C206661696C6564 DUP2 MSTORE POP DUP6 PUSH1 0x1 PUSH1 0x1 PUSH1 0xA0 SHL SUB AND PUSH2 0x11BB SWAP1 SWAP3 SWAP2 SWAP1 PUSH4 0xFFFFFFFF AND JUMP JUMPDEST DUP1 MLOAD SWAP1 SWAP2 POP ISZERO PUSH2 0x440 JUMPI DUP1 DUP1 PUSH1 0x20 ADD SWAP1 MLOAD DUP2 ADD SWAP1 PUSH2 0xF9C SWAP2 SWAP1 PUSH2 0x1537 JUMP JUMPDEST PUSH2 0x440 JUMPI PUSH1 0x40 MLOAD PUSH3 0x461BCD PUSH1 0xE5 SHL DUP2 MSTORE PUSH1 0x20 PUSH1 0x4 DUP3 ADD MSTORE PUSH1 0x2A PUSH1 0x24 DUP3 ADD MSTORE PUSH32 0x5361666545524332303A204552433230206F7065726174696F6E20646964206E PUSH1 0x44 DUP3 ADD MSTORE PUSH10 0x1BDD081CDD58D8D95959 PUSH1 0xB2 SHL PUSH1 0x64 DUP3 ADD MSTORE PUSH1 0x84 ADD PUSH2 0x398 JUMP JUMPDEST PUSH1 0x0 SELFBALANCE PUSH2 0x1008 DUP5 DUP5 PUSH2 0x11D4 JUMP JUMPDEST PUSH2 0x1012 SELFBALANCE DUP3 PUSH2 0x1390 JUMP JUMPDEST SWAP5 SWAP4 POP POP POP POP JUMP JUMPDEST PUSH1 0x40 DUP1 MLOAD PUSH1 0x2 DUP1 DUP3 MSTORE PUSH1 0x60 DUP3 ADD DUP4 MSTORE PUSH1 0x0 SWAP3 PUSH1 0x20 DUP4 ADD SWAP1 DUP1 CALLDATASIZE DUP4 CALLDATACOPY POP POP PUSH1 0x6 SLOAD PUSH1 0x40 DUP1 MLOAD PUSH4 0x15AB88C9 PUSH1 0xE3 SHL DUP2 MSTORE SWAP1 MLOAD SWAP4 SWAP5 POP PUSH1 0x1 PUSH1 0x1 PUSH1 0xA0 SHL SUB SWAP1 SWAP2 AND SWAP3 PUSH4 0xAD5C4648 SWAP3 POP PUSH1 0x4 DUP1 DUP4 ADD SWAP3 PUSH1 0x20 SWAP3 SWAP2 SWAP1 DUP3 SWAP1 SUB ADD DUP2 DUP7 DUP1 EXTCODESIZE ISZERO DUP1 ISZERO PUSH2 0x107F JUMPI PUSH1 0x0 DUP1 REVERT JUMPDEST POP GAS STATICCALL ISZERO DUP1 ISZERO PUSH2 0x1093 JUMPI RETURNDATASIZE PUSH1 0x0 DUP1 RETURNDATACOPY RETURNDATASIZE PUSH1 0x0 REVERT JUMPDEST POP POP POP POP PUSH1 0x40 MLOAD RETURNDATASIZE PUSH1 0x1F NOT PUSH1 0x1F DUP3 ADD AND DUP3 ADD DUP1 PUSH1 0x40 MSTORE POP DUP2 ADD SWAP1 PUSH2 0x10B7 SWAP2 SWAP1 PUSH2 0x151A JUMP JUMPDEST DUP2 PUSH1 0x0 DUP2 MLOAD DUP2 LT PUSH2 0x10CA JUMPI PUSH2 0x10CA PUSH2 0x1817 JUMP JUMPDEST PUSH1 0x1 PUSH1 0x1 PUSH1 0xA0 SHL SUB SWAP3 DUP4 AND PUSH1 0x20 SWAP2 DUP3 MUL SWAP3 SWAP1 SWAP3 ADD ADD MSTORE PUSH1 0x4 SLOAD DUP3 MLOAD SWAP2 AND SWAP1 DUP3 SWAP1 PUSH1 0x1 SWAP1 DUP2 LT PUSH2 0x10FB JUMPI PUSH2 0x10FB PUSH2 0x1817 JUMP JUMPDEST PUSH1 0x1 PUSH1 0x1 PUSH1 0xA0 SHL SUB SWAP3 DUP4 AND PUSH1 0x20 SWAP2 DUP3 MUL SWAP3 SWAP1 SWAP3 ADD ADD MSTORE PUSH1 0x6 SLOAD PUSH1 0x5 SLOAD PUSH1 0x40 MLOAD PUSH4 0xB6F9DE95 PUSH1 0xE0 SHL DUP2 MSTORE SWAP2 DUP4 AND SWAP3 PUSH4 0xB6F9DE95 SWAP3 DUP7 SWAP3 PUSH2 0x1147 SWAP3 PUSH1 0x0 SWAP3 DUP9 SWAP3 SWAP1 SWAP2 AND SWAP1 TIMESTAMP SWAP1 PUSH1 0x4 ADD PUSH2 0x166A JUMP JUMPDEST PUSH1 0x0 PUSH1 0x40 MLOAD DUP1 DUP4 SUB DUP2 DUP6 DUP9 DUP1 EXTCODESIZE ISZERO DUP1 ISZERO PUSH2 0x1160 JUMPI PUSH1 0x0 DUP1 REVERT JUMPDEST POP GAS CALL ISZERO DUP1 ISZERO PUSH2 0x1174 JUMPI RETURNDATASIZE PUSH1 0x0 DUP1 RETURNDATACOPY RETURNDATASIZE PUSH1 0x0 REVERT JUMPDEST POP POP POP POP POP POP POP JUMP JUMPDEST PUSH1 0x40 MLOAD PUSH1 0x1 PUSH1 0x1 PUSH1 0xA0 SHL SUB DUP1 DUP6 AND PUSH1 0x24 DUP4 ADD MSTORE DUP4 AND PUSH1 0x44 DUP3 ADD MSTORE PUSH1 0x64 DUP2 ADD DUP3 SWAP1 MSTORE PUSH2 0x11B5 SWAP1 DUP6 SWAP1 PUSH4 0x23B872DD PUSH1 0xE0 SHL SWAP1 PUSH1 0x84 ADD PUSH2 0xA93 JUMP JUMPDEST POP POP POP POP JUMP JUMPDEST PUSH1 0x60 PUSH2 0x11CA DUP5 DUP5 PUSH1 0x0 DUP6 PUSH2 0x139C JUMP JUMPDEST SWAP1 POP JUMPDEST SWAP4 SWAP3 POP POP POP JUMP JUMPDEST PUSH1 0x40 DUP1 MLOAD PUSH1 0x2 DUP1 DUP3 MSTORE PUSH1 0x60 DUP3 ADD DUP4 MSTORE PUSH1 0x0 SWAP3 PUSH1 0x20 DUP4 ADD SWAP1 DUP1 CALLDATASIZE DUP4 CALLDATACOPY ADD SWAP1 POP POP SWAP1 POP DUP3 DUP2 PUSH1 0x0 DUP2 MLOAD DUP2 LT PUSH2 0x1209 JUMPI PUSH2 0x1209 PUSH2 0x1817 JUMP JUMPDEST PUSH1 0x1 PUSH1 0x1 PUSH1 0xA0 SHL SUB SWAP3 DUP4 AND PUSH1 0x20 SWAP2 DUP3 MUL SWAP3 SWAP1 SWAP3 ADD DUP2 ADD SWAP2 SWAP1 SWAP2 MSTORE PUSH1 0x6 SLOAD PUSH1 0x40 DUP1 MLOAD PUSH4 0x15AB88C9 PUSH1 0xE3 SHL DUP2 MSTORE SWAP1 MLOAD SWAP2 SWAP1 SWAP4 AND SWAP3 PUSH4 0xAD5C4648 SWAP3 PUSH1 0x4 DUP1 DUP4 ADD SWAP4 SWAP2 SWAP3 DUP3 SWAP1 SUB ADD DUP2 DUP7 DUP1 EXTCODESIZE ISZERO DUP1 ISZERO PUSH2 0x125D JUMPI PUSH1 0x0 DUP1 REVERT JUMPDEST POP GAS STATICCALL ISZERO DUP1 ISZERO PUSH2 0x1271 JUMPI RETURNDATASIZE PUSH1 0x0 DUP1 RETURNDATACOPY RETURNDATASIZE PUSH1 0x0 REVERT JUMPDEST POP POP POP POP PUSH1 0x40 MLOAD RETURNDATASIZE PUSH1 0x1F NOT PUSH1 0x1F DUP3 ADD AND DUP3 ADD DUP1 PUSH1 0x40 MSTORE POP DUP2 ADD SWAP1 PUSH2 0x1295 SWAP2 SWAP1 PUSH2 0x151A JUMP JUMPDEST DUP2 PUSH1 0x1 DUP2 MLOAD DUP2 LT PUSH2 0x12A8 JUMPI PUSH2 0x12A8 PUSH2 0x1817 JUMP JUMPDEST PUSH1 0x1 PUSH1 0x1 PUSH1 0xA0 SHL SUB SWAP3 DUP4 AND PUSH1 0x20 SWAP2 DUP3 MUL SWAP3 SWAP1 SWAP3 ADD ADD MSTORE PUSH1 0x6 SLOAD PUSH1 0x40 MLOAD PUSH4 0x95EA7B3 PUSH1 0xE0 SHL DUP2 MSTORE SWAP1 DUP3 AND PUSH1 0x4 DUP3 ADD MSTORE PUSH1 0x24 DUP2 ADD DUP5 SWAP1 MSTORE SWAP1 DUP5 AND SWAP1 PUSH4 0x95EA7B3 SWAP1 PUSH1 0x44 ADD PUSH1 0x20 PUSH1 0x40 MLOAD DUP1 DUP4 SUB DUP2 PUSH1 0x0 DUP8 DUP1 EXTCODESIZE ISZERO DUP1 ISZERO PUSH2 0x1304 JUMPI PUSH1 0x0 DUP1 REVERT JUMPDEST POP GAS CALL ISZERO DUP1 ISZERO PUSH2 0x1318 JUMPI RETURNDATASIZE PUSH1 0x0 DUP1 RETURNDATACOPY RETURNDATASIZE PUSH1 0x0 REVERT JUMPDEST POP POP POP POP PUSH1 0x40 MLOAD RETURNDATASIZE PUSH1 0x1F NOT PUSH1 0x1F DUP3 ADD AND DUP3 ADD DUP1 PUSH1 0x40 MSTORE POP DUP2 ADD SWAP1 PUSH2 0x133C SWAP2 SWAP1 PUSH2 0x1537 JUMP JUMPDEST POP PUSH1 0x6 SLOAD PUSH1 0x40 MLOAD PUSH4 0x791AC947 PUSH1 0xE0 SHL DUP2 MSTORE PUSH1 0x1 PUSH1 0x1 PUSH1 0xA0 SHL SUB SWAP1 SWAP2 AND SWAP1 PUSH4 0x791AC947 SWAP1 PUSH2 0x1376 SWAP1 DUP6 SWAP1 PUSH1 0x0 SWAP1 DUP7 SWAP1 ADDRESS SWAP1 TIMESTAMP SWAP1 PUSH1 0x4 ADD PUSH2 0x178A JUMP JUMPDEST PUSH1 0x0 PUSH1 0x40 MLOAD DUP1 DUP4 SUB DUP2 PUSH1 0x0 DUP8 DUP1 EXTCODESIZE ISZERO DUP1 ISZERO PUSH2 0x1160 JUMPI PUSH1 0x0 DUP1 REVERT JUMPDEST PUSH1 0x0 PUSH2 0x11CD DUP3 DUP5 PUSH2 0x17C6 JUMP JUMPDEST PUSH1 0x60 DUP3 SELFBALANCE LT ISZERO PUSH2 0x13FD JUMPI PUSH1 0x40 MLOAD PUSH3 0x461BCD PUSH1 0xE5 SHL DUP2 MSTORE PUSH1 0x20 PUSH1 0x4 DUP3 ADD MSTORE PUSH1 0x26 PUSH1 0x24 DUP3 ADD MSTORE PUSH32 0x416464726573733A20696E73756666696369656E742062616C616E636520666F PUSH1 0x44 DUP3 ADD MSTORE PUSH6 0x1C8818D85B1B PUSH1 0xD2 SHL PUSH1 0x64 DUP3 ADD MSTORE PUSH1 0x84 ADD PUSH2 0x398 JUMP JUMPDEST DUP5 EXTCODESIZE PUSH2 0x144B JUMPI PUSH1 0x40 MLOAD PUSH3 0x461BCD PUSH1 0xE5 SHL DUP2 MSTORE PUSH1 0x20 PUSH1 0x4 DUP3 ADD MSTORE PUSH1 0x1D PUSH1 0x24 DUP3 ADD MSTORE PUSH32 0x416464726573733A2063616C6C20746F206E6F6E2D636F6E7472616374000000 PUSH1 0x44 DUP3 ADD MSTORE PUSH1 0x64 ADD PUSH2 0x398 JUMP JUMPDEST PUSH1 0x0 DUP1 DUP7 PUSH1 0x1 PUSH1 0x1 PUSH1 0xA0 SHL SUB AND DUP6 DUP8 PUSH1 0x40 MLOAD PUSH2 0x1467 SWAP2 SWAP1 PUSH2 0x164E JUMP JUMPDEST PUSH1 0x0 PUSH1 0x40 MLOAD DUP1 DUP4 SUB DUP2 DUP6 DUP8 GAS CALL SWAP3 POP POP POP RETURNDATASIZE DUP1 PUSH1 0x0 DUP2 EQ PUSH2 0x14A4 JUMPI PUSH1 0x40 MLOAD SWAP2 POP PUSH1 0x1F NOT PUSH1 0x3F RETURNDATASIZE ADD AND DUP3 ADD PUSH1 0x40 MSTORE RETURNDATASIZE DUP3 MSTORE RETURNDATASIZE PUSH1 0x0 PUSH1 0x20 DUP5 ADD RETURNDATACOPY PUSH2 0x14A9 JUMP JUMPDEST PUSH1 0x60 SWAP2 POP JUMPDEST POP SWAP2 POP SWAP2 POP PUSH2 0x14B9 DUP3 DUP3 DUP7 PUSH2 0x14C4 JUMP JUMPDEST SWAP8 SWAP7 POP POP POP POP POP POP POP JUMP JUMPDEST PUSH1 0x60 DUP4 ISZERO PUSH2 0x14D3 JUMPI POP DUP2 PUSH2 0x11CD JUMP JUMPDEST DUP3 MLOAD ISZERO PUSH2 0x14E3 JUMPI DUP3 MLOAD DUP1 DUP5 PUSH1 0x20 ADD REVERT JUMPDEST DUP2 PUSH1 0x40 MLOAD PUSH3 0x461BCD PUSH1 0xE5 SHL DUP2 MSTORE PUSH1 0x4 ADD PUSH2 0x398 SWAP2 SWAP1 PUSH2 0x169F JUMP JUMPDEST PUSH1 0x0 PUSH1 0x20 DUP3 DUP5 SUB SLT ISZERO PUSH2 0x150F JUMPI PUSH1 0x0 DUP1 REVERT JUMPDEST DUP2 CALLDATALOAD PUSH2 0x11CD DUP2 PUSH2 0x182D JUMP JUMPDEST PUSH1 0x0 PUSH1 0x20 DUP3 DUP5 SUB SLT ISZERO PUSH2 0x152C JUMPI PUSH1 0x0 DUP1 REVERT JUMPDEST DUP2 MLOAD PUSH2 0x11CD DUP2 PUSH2 0x182D JUMP JUMPDEST PUSH1 0x0 PUSH1 0x20 DUP3 DUP5 SUB SLT ISZERO PUSH2 0x1549 JUMPI PUSH1 0x0 DUP1 REVERT JUMPDEST DUP2 MLOAD DUP1 ISZERO ISZERO DUP2 EQ PUSH2 0x11CD JUMPI PUSH1 0x0 DUP1 REVERT JUMPDEST PUSH1 0x0 PUSH1 0x20 DUP3 DUP5 SUB SLT ISZERO PUSH2 0x156B JUMPI PUSH1 0x0 DUP1 REVERT JUMPDEST POP CALLDATALOAD SWAP2 SWAP1 POP JUMP JUMPDEST PUSH1 0x0 PUSH1 0x20 DUP3 DUP5 SUB SLT ISZERO PUSH2 0x1584 JUMPI PUSH1 0x0 DUP1 REVERT JUMPDEST POP MLOAD SWAP2 SWAP1 POP JUMP JUMPDEST PUSH1 0x0 DUP1 PUSH1 0x40 DUP4 DUP6 SUB SLT ISZERO PUSH2 0x159E JUMPI PUSH1 0x0 DUP1 REVERT JUMPDEST POP POP DUP1 CALLDATALOAD SWAP3 PUSH1 0x20 SWAP1 SWAP2 ADD CALLDATALOAD SWAP2 POP JUMP JUMPDEST PUSH1 0x0 DUP1 PUSH1 0x40 DUP4 DUP6 SUB SLT ISZERO PUSH2 0x15C0 JUMPI PUSH1 0x0 DUP1 REVERT JUMPDEST POP POP DUP1 MLOAD PUSH1 0x20 SWAP1 SWAP2 ADD MLOAD SWAP1 SWAP3 SWAP1 SWAP2 POP JUMP JUMPDEST PUSH1 0x0 DUP1 PUSH1 0x0 PUSH1 0x60 DUP5 DUP7 SUB SLT ISZERO PUSH2 0x15E6 JUMPI PUSH1 0x0 DUP1 REVERT JUMPDEST DUP4 CALLDATALOAD SWAP3 POP PUSH1 0x20 DUP5 ADD CALLDATALOAD SWAP2 POP PUSH1 0x40 DUP5 ADD CALLDATALOAD PUSH2 0x15FF DUP2 PUSH2 0x182D JUMP JUMPDEST DUP1 SWAP2 POP POP SWAP3 POP SWAP3 POP SWAP3 JUMP JUMPDEST PUSH1 0x0 DUP2 MLOAD DUP1 DUP5 MSTORE PUSH1 0x20 DUP1 DUP6 ADD SWAP5 POP DUP1 DUP5 ADD PUSH1 0x0 JUMPDEST DUP4 DUP2 LT ISZERO PUSH2 0x1643 JUMPI DUP2 MLOAD PUSH1 0x1 PUSH1 0x1 PUSH1 0xA0 SHL SUB AND DUP8 MSTORE SWAP6 DUP3 ADD SWAP6 SWAP1 DUP3 ADD SWAP1 PUSH1 0x1 ADD PUSH2 0x161E JUMP JUMPDEST POP SWAP5 SWAP6 SWAP5 POP POP POP POP POP JUMP JUMPDEST PUSH1 0x0 DUP3 MLOAD PUSH2 0x1660 DUP2 DUP5 PUSH1 0x20 DUP8 ADD PUSH2 0x17EB JUMP JUMPDEST SWAP2 SWAP1 SWAP2 ADD SWAP3 SWAP2 POP POP JUMP JUMPDEST DUP5 DUP2 MSTORE PUSH1 0x80 PUSH1 0x20 DUP3 ADD MSTORE PUSH1 0x0 PUSH2 0x1683 PUSH1 0x80 DUP4 ADD DUP7 PUSH2 0x160A JUMP JUMPDEST PUSH1 0x1 PUSH1 0x1 PUSH1 0xA0 SHL SUB SWAP5 SWAP1 SWAP5 AND PUSH1 0x40 DUP4 ADD MSTORE POP PUSH1 0x60 ADD MSTORE SWAP3 SWAP2 POP POP JUMP JUMPDEST PUSH1 0x20 DUP2 MSTORE PUSH1 0x0 DUP3 MLOAD DUP1 PUSH1 0x20 DUP5 ADD MSTORE PUSH2 0x16BE DUP2 PUSH1 0x40 DUP6 ADD PUSH1 0x20 DUP8 ADD PUSH2 0x17EB JUMP JUMPDEST PUSH1 0x1F ADD PUSH1 0x1F NOT AND SWAP2 SWAP1 SWAP2 ADD PUSH1 0x40 ADD SWAP3 SWAP2 POP POP JUMP JUMPDEST PUSH1 0x20 DUP1 DUP3 MSTORE PUSH1 0x59 SWAP1 DUP3 ADD MSTORE PUSH32 0x41424F41543A3A6F6E6C794D6173746572456E7465727461696E65723A204F6E PUSH1 0x40 DUP3 ADD MSTORE PUSH32 0x6C7920746865206D617374657220656E7465727461696E657220697320616C6C PUSH1 0x60 DUP3 ADD MSTORE PUSH32 0x6F77656420746F2063616C6C2074686973206D6574686F642100000000000000 PUSH1 0x80 DUP3 ADD MSTORE PUSH1 0xA0 ADD SWAP1 JUMP JUMPDEST PUSH1 0x20 DUP1 DUP3 MSTORE DUP2 DUP2 ADD MSTORE PUSH32 0x4F776E61626C653A2063616C6C6572206973206E6F7420746865206F776E6572 PUSH1 0x40 DUP3 ADD MSTORE PUSH1 0x60 ADD SWAP1 JUMP JUMPDEST DUP6 DUP2 MSTORE DUP5 PUSH1 0x20 DUP3 ADD MSTORE PUSH1 0xA0 PUSH1 0x40 DUP3 ADD MSTORE PUSH1 0x0 PUSH2 0x17A9 PUSH1 0xA0 DUP4 ADD DUP7 PUSH2 0x160A JUMP JUMPDEST PUSH1 0x1 PUSH1 0x1 PUSH1 0xA0 SHL SUB SWAP5 SWAP1 SWAP5 AND PUSH1 0x60 DUP4 ADD MSTORE POP PUSH1 0x80 ADD MSTORE SWAP4 SWAP3 POP POP POP JUMP JUMPDEST PUSH1 0x0 DUP3 DUP3 LT ISZERO PUSH2 0x17E6 JUMPI PUSH4 0x4E487B71 PUSH1 0xE0 SHL PUSH1 0x0 MSTORE PUSH1 0x11 PUSH1 0x4 MSTORE PUSH1 0x24 PUSH1 0x0 REVERT JUMPDEST POP SUB SWAP1 JUMP JUMPDEST PUSH1 0x0 JUMPDEST DUP4 DUP2 LT ISZERO PUSH2 0x1806 JUMPI DUP2 DUP2 ADD MLOAD DUP4 DUP3 ADD MSTORE PUSH1 0x20 ADD PUSH2 0x17EE JUMP JUMPDEST DUP4 DUP2 GT ISZERO PUSH2 0x11B5 JUMPI POP POP PUSH1 0x0 SWAP2 ADD MSTORE JUMP JUMPDEST PUSH4 0x4E487B71 PUSH1 0xE0 SHL PUSH1 0x0 MSTORE PUSH1 0x32 PUSH1 0x4 MSTORE PUSH1 0x24 PUSH1 0x0 REVERT JUMPDEST PUSH1 0x1 PUSH1 0x1 PUSH1 0xA0 SHL SUB DUP2 AND DUP2 EQ PUSH2 0x8D5 JUMPI PUSH1 0x0 DUP1 REVERT INVALID LOG2 PUSH5 0x6970667358 0x22 SLT KECCAK256 0xB5 SWAP5 NUMBER 0xE4 SELFDESTRUCT DIV 0xEF OR SHR 0x5F 0x5E 0xCB 0xB3 0xB7 0x28 0xC5 CODESIZE 0xC 0x4B DUP11 LOG0 0xAB GASPRICE PUSH17 0x10D9B73A9935F60C64736F6C6343000807 STOP CALLER "
				},
				"gasEstimates": {
					"creation": {
						"codeDepositCost": "1252800",
						"executionCost": "infinite",
						"totalCost": "infinite"
					},
					"external": {
						"deposit(uint256,uint256)": "infinite",
						"emergencyWithdraw(uint256,uint256,address)": "infinite",
						"flipToken()": "2404",
						"getDepositFee(uint256)": "330",
						"getLiquidity(uint256)": "infinite",
						"getMasterChef()": "2420",
						"minAmountToSwap()": "2330",
						"owner()": "2354",
						"renounceOwnership()": "28203",
						"rewardSystem()": "2448",
						"rewardToken()": "2447",
						"setMasterEntertainer(address)": "27924",
						"setMinAmountToSwap(uint256)": "25597",
						"setRewardSystem(address)": "28349",
						"setRouter(address)": "27901",
						"stakeToken()": "2360",
						"transferOwnership(address)": "infinite",
						"withdraw(uint256,uint256,address)": "infinite"
					},
					"internal": {
						"_deposit(uint256,uint256)": "infinite",
						"enterStake(uint256,uint256)": "infinite",
						"leaveStake(uint256,uint256)": "infinite",
						"safeTokenTransfer(contract IERC20,address,uint256)": "infinite",
						"swapEthForTokens(uint256)": "infinite",
						"swapForEth(contract IERC20,uint256)": "infinite",
						"swapToken()": "infinite",
						"swapTokensForEth(contract IERC20,uint256)": "infinite"
					}
				},
				"methodIdentifiers": {
					"deposit(uint256,uint256)": "e2bbb158",
					"emergencyWithdraw(uint256,uint256,address)": "f72b2a4c",
					"flipToken()": "5945365e",
					"getDepositFee(uint256)": "9fbe42e3",
					"getLiquidity(uint256)": "951583c3",
					"getMasterChef()": "b5644963",
					"minAmountToSwap()": "13f43a57",
					"owner()": "8da5cb5b",
					"renounceOwnership()": "715018a6",
					"rewardSystem()": "73d38793",
					"rewardToken()": "f7c618c1",
					"setMasterEntertainer(address)": "54613450",
					"setMinAmountToSwap(uint256)": "2b0a696d",
					"setRewardSystem(address)": "2b3ea9e1",
					"setRouter(address)": "c0d78655",
					"stakeToken()": "51ed6a30",
					"transferOwnership(address)": "f2fde38b",
					"withdraw(uint256,uint256,address)": "0ad58d2f"
				}
			},
			"storageLayout": {
				"storage": [
					{
						"astId": 7,
						"contract": "contracts/BaseFlipPool.sol:BaseFlipPool",
						"label": "_owner",
						"offset": 0,
						"slot": "0",
						"type": "t_address"
					},
					{
						"astId": 2314,
						"contract": "contracts/BaseFlipPool.sol:BaseFlipPool",
						"label": "masterChef",
						"offset": 0,
						"slot": "1",
						"type": "t_contract(IPancakeSwapMasterChef)3123"
					},
					{
						"astId": 2317,
						"contract": "contracts/BaseFlipPool.sol:BaseFlipPool",
						"label": "rewardToken",
						"offset": 0,
						"slot": "2",
						"type": "t_contract(IERC20)767"
					},
					{
						"astId": 2320,
						"contract": "contracts/BaseFlipPool.sol:BaseFlipPool",
						"label": "stakeToken",
						"offset": 0,
						"slot": "3",
						"type": "t_contract(IERC20)767"
					},
					{
						"astId": 2323,
						"contract": "contracts/BaseFlipPool.sol:BaseFlipPool",
						"label": "flipToken",
						"offset": 0,
						"slot": "4",
						"type": "t_contract(IERC20)767"
					},
					{
						"astId": 2325,
						"contract": "contracts/BaseFlipPool.sol:BaseFlipPool",
						"label": "rewardSystem",
						"offset": 0,
						"slot": "5",
						"type": "t_address"
					},
					{
						"astId": 2328,
						"contract": "contracts/BaseFlipPool.sol:BaseFlipPool",
						"label": "router",
						"offset": 0,
						"slot": "6",
						"type": "t_contract(IUniswapV2Router02)2283"
					},
					{
						"astId": 2330,
						"contract": "contracts/BaseFlipPool.sol:BaseFlipPool",
						"label": "masterEntertainer",
						"offset": 0,
						"slot": "7",
						"type": "t_address"
					},
					{
						"astId": 2333,
						"contract": "contracts/BaseFlipPool.sol:BaseFlipPool",
						"label": "minAmountToSwap",
						"offset": 0,
						"slot": "8",
						"type": "t_uint256"
					}
				],
				"types": {
					"t_address": {
						"encoding": "inplace",
						"label": "address",
						"numberOfBytes": "20"
					},
					"t_contract(IERC20)767": {
						"encoding": "inplace",
						"label": "contract IERC20",
						"numberOfBytes": "20"
					},
					"t_contract(IPancakeSwapMasterChef)3123": {
						"encoding": "inplace",
						"label": "contract IPancakeSwapMasterChef",
						"numberOfBytes": "20"
					},
					"t_contract(IUniswapV2Router02)2283": {
						"encoding": "inplace",
						"label": "contract IUniswapV2Router02",
						"numberOfBytes": "20"
					},
					"t_uint256": {
						"encoding": "inplace",
						"label": "uint256",
						"numberOfBytes": "32"
					}
				}
			},
			"userdoc": {
				"kind": "user",
				"methods": {},
				"version": 1
			}
		}
	}
}