{
	"data": {
		"bytecode": {
			"linkReferences": {},
			"object": "60806040526006805460ff60a01b1916905560088054600160a01b600160f81b03191668028005000a00fa007d60a21b17905569152d02c7e14af6800000600955600a80546001600160a01b0319908116732ea9ca0ca8043575f2189cff9897b575b0c7e857908117909255600b8054821673a7c08aedce8cadc3bfb622bd7b651993d1cd24e4179055600c805490911690911790556c0c9f2c9cd04674edea400000006011556012805465012c0064010065ffffffffffff19909116179055660775f05a074000601355348015620000d757600080fd5b50604080518082018252600b81526a20b137b0ba102a37b5b2b760a91b602080830191825283518085019094526005845264105093d05560da1b9084015281519192916200012891600391620004e6565b5080516200013e906004906020840190620004e6565b50506001600555506200015133620001bb565b600880546001600160a01b03191633179055600a546200017a906001600160a01b03166200020d565b600b5462000191906001600160a01b03166200020d565b620001aa336c0792b45e1690ac8ebfc0000000620002f5565b620001b5336200020d565b620005f0565b600680546001600160a01b038381166001600160a01b0319831681179093556040519116919082907f8be0079c531659141344cd1fd0a4f28419497f9722a3daafe3b4186f6b6457e090600090a35050565b33620002216006546001600160a01b031690565b6001600160a01b031614806200024157506008546001600160a01b031633145b620002b95760405162461bcd60e51b815260206004820152603560248201527f6f70657261746f723a2063616c6c6572206973206e6f7420616c6c6f7765642060448201527f746f2063616c6c20746869732066756e6374696f6e000000000000000000000060648201526084015b60405180910390fd5b6001600160a01b03166000908152600f602090815260408083208054600160ff1991821681179092556010909352922080549091169091179055565b6006546001600160a01b03163314620003515760405162461bcd60e51b815260206004820181905260248201527f4f776e61626c653a2063616c6c6572206973206e6f7420746865206f776e65726044820152606401620002b0565b601154816200035f60025490565b6200036b91906200058c565b1115620003ef5760405162461bcd60e51b8152602060048201526044602482018190527f41424f41543a3a6d696e743a2043616e2774206d696e74206d6f72652061626f908201527f617420746f6b656e207468616e206d6178446973747269627574696f6e20616c6064820152636c6f777360e01b608482015260a401620002b0565b620003fb8282620003ff565b5050565b6001600160a01b038216620004575760405162461bcd60e51b815260206004820152601f60248201527f45524332303a206d696e7420746f20746865207a65726f2061646472657373006044820152606401620002b0565b80600260008282546200046b91906200058c565b90915550506001600160a01b038216600090815260208190526040812080548392906200049a9084906200058c565b90915550506040518181526001600160a01b038316906000907fddf252ad1be2c89b69c2b068fc378daa952ba7f163c4a11628f55a4df523b3ef9060200160405180910390a3620003fb565b828054620004f490620005b3565b90600052602060002090601f01602090048101928262000518576000855562000563565b82601f106200053357805160ff191683800117855562000563565b8280016001018555821562000563579182015b828111156200056357825182559160200191906001019062000546565b506200057192915062000575565b5090565b5b8082111562000571576000815560010162000576565b60008219821115620005ae57634e487b7160e01b600052601160045260246000fd5b500190565b600181811c90821680620005c857607f821691505b60208210811415620005ea57634e487b7160e01b600052602260045260246000fd5b50919050565b615c1980620006006000396000f3fe6080604052600436106104ce5760003560e01c80637d8e961511610276578063a4f4a7651161014f578063dd62ed3e116100c1578063f2fde38b11610085578063f2fde38b14610f01578063f4762fd614610f21578063f98080c014610f36578063f9f92be414610f6e578063fafa448914610f8e578063fb25c12014610fb057600080fd5b8063dd62ed3e14610e50578063df6f663014610e96578063e9fd586214610eb6578063edae876f14610ecc578063f1a3da2214610eec57600080fd5b8063b29ad50a11610113578063b29ad50a14610d8a578063bb92201414610d9f578063c1316eb614610dd8578063c851cc3214610df8578063c957497514610e18578063d932407914610e3a57600080fd5b8063a4f4a76514610cda578063a607494a14610cfa578063a9059cbb14610d1a578063ae7e1d7a14610d3a578063af10e03e14610d6a57600080fd5b8063982ceeb7116101e85780639d93598e116101ac5780639d93598e14610c195780639f53115614610c39578063a17252a414610c59578063a347511a14610c79578063a37f4ea914610c9a578063a457c2d714610cba57600080fd5b8063982ceeb714610b855780639850d32b14610b9b578063986d614214610bb95780639b19251a14610bd95780639b96eece14610bf957600080fd5b80638da5cb5b1161023a5780638da5cb5b14610aed5780638efd5e3b14610b0b5780638f5949f914610b2b5780638fda356d14610b4557806391ee586414610b5a57806395d89b4114610b7057600080fd5b80637d8e961514610a355780638053575b14610a55578063808a545714610a8e57806388bce12314610aac5780638aba465914610acd57600080fd5b8063313ce567116103a85780635a96cdd71161031a5780636e1e9349116102de5780636e1e93491461098c57806370a0823114610994578063715018a6146109ca578063737dc9bd146109df57806373b002a5146109ff5780637897af8614610a1557600080fd5b80635a96cdd7146108f7578063626bb27414610917578063645830b41461092d578063653465bf1461094d57806369372b301461096c57600080fd5b8063437f660e1161036c578063437f660e1461084d5780634ad1eb8114610862578063506ee1001461088257806353a545111461089757806354613450146108b75780635958621e146108d757600080fd5b8063313ce567146107b1578063318913fb146107cd578063370f0a60146107ed578063395093511461080d57806340c10f191461082d57600080fd5b806318160ddd11610441578063239eb21111610405578063239eb2111461071c57806323b872dd146107315780632a83759b146107515780632b112e49146107665780632b7141471461077b5780633071fed21461079157600080fd5b806318160ddd1461068c5780631ac818a1146106a15780631b611111146106d15780631d5e3fe5146106e65780631f53ac02146106fc57600080fd5b806306fdde031161049357806306fdde03146105ae578063095ea7b3146105d05780630cd84dc6146105f05780630d38ffcd1461062857806311a63e171461064a57806313ea5d291461066a57600080fd5b80625d1afc146104da5780630181bb781461051057806301bbba4d1461054657806303fcdbdf14610568578063044e0ea21461058a57600080fd5b366104d557005b600080fd5b3480156104e657600080fd5b506008546104fb90600160f01b900460ff1681565b60405190151581526020015b60405180910390f35b34801561051c57600080fd5b5060125461053390640100000000900461ffff1681565b60405161ffff9091168152602001610507565b34801561055257600080fd5b5060085461053390600160a01b900461ffff1681565b34801561057457600080fd5b5060085461053390600160c01b900461ffff1681565b34801561059657600080fd5b506105a060115481565b604051908152602001610507565b3480156105ba57600080fd5b506105c3610fd0565b604051610507919061596a565b3480156105dc57600080fd5b506104fb6105eb366004615718565b611062565b3480156105fc57600080fd5b50601954610610906001600160a01b031681565b6040516001600160a01b039091168152602001610507565b34801561063457600080fd5b5060085461053390600160e01b900461ffff1681565b34801561065657600080fd5b50600a54610610906001600160a01b031681565b34801561067657600080fd5b5061068a610685366004615664565b611078565b005b34801561069857600080fd5b506002546105a0565b3480156106ad57600080fd5b506104fb6106bc366004615664565b60106020526000908152604090205460ff1681565b3480156106dd57600080fd5b5061068a6112b2565b3480156106f257600080fd5b506105a060135481565b34801561070857600080fd5b5061068a610717366004615664565b611384565b34801561072857600080fd5b506105a061146d565b34801561073d57600080fd5b506104fb61074c3660046156d7565b6114f5565b34801561075d57600080fd5b5061068a61159f565b34801561077257600080fd5b506105a0611634565b34801561078757600080fd5b506105a060165481565b34801561079d57600080fd5b506105a06107ac366004615664565b61165d565b3480156107bd57600080fd5b5060405160128152602001610507565b3480156107d957600080fd5b506104fb6107e8366004615664565b61177f565b3480156107f957600080fd5b5061068a610808366004615664565b6117f2565b34801561081957600080fd5b506104fb610828366004615718565b61187c565b34801561083957600080fd5b5061068a610848366004615718565b6118b8565b34801561085957600080fd5b5061068a611985565b34801561086e57600080fd5b5061068a61087d366004615664565b611a00565b34801561088e57600080fd5b50610610611a6f565b3480156108a357600080fd5b5061068a6108b2366004615664565b611b88565b3480156108c357600080fd5b5061068a6108d2366004615664565b611bf7565b3480156108e357600080fd5b5061068a6108f2366004615664565b611d64565b34801561090357600080fd5b5061068a610912366004615664565b611e4d565b34801561092357600080fd5b506105a060175481565b34801561093957600080fd5b50600d54610610906001600160a01b031681565b34801561095957600080fd5b506012546104fb90610100900460ff1681565b34801561097857600080fd5b506104fb610987366004615875565b611f39565b61068a611f5a565b3480156109a057600080fd5b506105a06109af366004615664565b6001600160a01b031660009081526020819052604090205490565b3480156109d657600080fd5b5061068a61214f565b3480156109eb57600080fd5b5061068a6109fa366004615832565b612183565b348015610a0b57600080fd5b506105a060185481565b348015610a2157600080fd5b5061068a610a30366004615664565b6123cd565b348015610a4157600080fd5b5061068a610a50366004615817565b61243f565b348015610a6157600080fd5b506104fb610a70366004615664565b6001600160a01b031660009081526010602052604090205460ff1690565b348015610a9a57600080fd5b50600d546001600160a01b0316610610565b348015610ab857600080fd5b506012546105339062010000900461ffff1681565b348015610ad957600080fd5b5061068a610ae8366004615875565b612687565b348015610af957600080fd5b506006546001600160a01b0316610610565b348015610b1757600080fd5b5061068a610b26366004615875565b61270e565b348015610b3757600080fd5b506012546104fb9060ff1681565b348015610b5157600080fd5b5061068a612761565b348015610b6657600080fd5b506105a060155481565b348015610b7c57600080fd5b506105c36127be565b348015610b9157600080fd5b506105a060095481565b348015610ba757600080fd5b506008546001600160a01b0316610610565b348015610bc557600080fd5b5061068a610bd4366004615664565b6127cd565b348015610be557600080fd5b5061068a610bf4366004615664565b61283f565b348015610c0557600080fd5b506105a0610c14366004615664565b6128c6565b348015610c2557600080fd5b5061068a610c34366004615664565b612976565b348015610c4557600080fd5b5061068a610c54366004615766565b612dc9565b348015610c6557600080fd5b5061068a610c74366004615664565b612e3c565b348015610c8557600080fd5b506006546104fb90600160a01b900460ff1681565b348015610ca657600080fd5b50600b54610610906001600160a01b031681565b348015610cc657600080fd5b506104fb610cd5366004615718565b612ec0565b348015610ce657600080fd5b50600c54610610906001600160a01b031681565b348015610d0657600080fd5b5061068a610d15366004615766565b612f59565b348015610d2657600080fd5b506104fb610d35366004615718565b613036565b348015610d4657600080fd5b506104fb610d55366004615664565b600f6020526000908152604090205460ff1681565b348015610d7657600080fd5b5061068a610d85366004615817565b613043565b348015610d9657600080fd5b5061068a613326565b348015610dab57600080fd5b506104fb610dba366004615664565b6001600160a01b03166000908152600f602052604090205460ff1690565b348015610de457600080fd5b5061068a610df3366004615817565b6137a3565b348015610e0457600080fd5b5061068a610e13366004615664565b6138c2565b348015610e2457600080fd5b5060085461053390600160d01b900461ffff1681565b348015610e4657600080fd5b506105336103e881565b348015610e5c57600080fd5b506105a0610e6b36600461569e565b6001600160a01b03918216600090815260016020908152604080832093909416825291909152205490565b348015610ea257600080fd5b5061068a610eb1366004615875565b613ac0565b348015610ec257600080fd5b506105a060145481565b348015610ed857600080fd5b50600e54610610906001600160a01b031681565b348015610ef857600080fd5b5061068a613cb7565b348015610f0d57600080fd5b5061068a610f1c366004615664565b613d4b565b348015610f2d57600080fd5b5061068a613de3565b348015610f4257600080fd5b506105a0610f51366004615766565b805160208183018101805160078252928201919093012091525481565b348015610f7a57600080fd5b5061068a610f89366004615664565b613e6f565b348015610f9a57600080fd5b5060085461053390600160b01b900461ffff1681565b348015610fbc57600080fd5b5061068a610fcb366004615817565b613f09565b606060038054610fdf90615b51565b80601f016020809104026020016040519081016040528092919081815260200182805461100b90615b51565b80156110585780601f1061102d57610100808354040283529160200191611058565b820191906000526020600020905b81548152906001019060200180831161103b57829003601f168201915b5050505050905090565b600061106f33848461402c565b50600192915050565b3361108b6006546001600160a01b031690565b6001600160a01b031614806110aa57506008546001600160a01b031633145b6110cf5760405162461bcd60e51b81526004016110c6906159fe565b60405180910390fd5b60408051808201909152600a81526936b0b4b73a30b4b732b960b11b6020820152600654600160a01b900460ff16158061118957506007816040516111149190615919565b90815260200160405180910390205460001415801561115157504260078260405161113f9190615919565b90815260200160405180910390205411155b80156111895750426201518060078360405161116d9190615919565b9081526020016040518091039020546111869190615ab5565b10155b6111a55760405162461bcd60e51b81526004016110c6906159d2565b6008546001600160a01b038381169116148015906111cb57506001600160a01b03821615155b6112565760405162461bcd60e51b815260206004820152605060248201527f41424f41543a3a7365744d61696e7461696e65723a204d61696e7461696e657260448201527f2063616e277420657175616c2070726576696f7573206d61696e7461696e657260648201526f206f72207a65726f206164647265737360801b608482015260a4016110c6565b600880546001600160a01b038481166001600160a01b0319831681179093556040519116919082907f2f3ffaaaad93928855c8700645d1a3643e6ccfdd500efa9fda048a88f557cf0190600090a3506112ae81612dc9565b5050565b336112c56006546001600160a01b031690565b6001600160a01b031614806112e457506008546001600160a01b031633145b6113005760405162461bcd60e51b81526004016110c6906159fe565b60004711611378576040805162461bcd60e51b81526020600482015260248101919091527f41424f41543a3a636c61696d457863656564696e674c6971756964697479546f60448201527f6b656e42616c616e63653a204e6f20657863656564696e672062616c616e636560648201526084016110c6565b6113823347614150565b565b336113976006546001600160a01b031690565b6001600160a01b031614806113b657506008546001600160a01b031633145b6113d25760405162461bcd60e51b81526004016110c6906159fe565b6001600160a01b0381166114435760405162461bcd60e51b815260206004820152603260248201527f41424f41543a3a73657444657657616c6c65743a20416464726573732063616e6044820152712774206265207a65726f206164647265737360701b60648201526084016110c6565b600a80546001600160a01b0319166001600160a01b03831690811790915561146a906117f2565b50565b6000611477611a6f565b6040516370a0823160e01b81523060048201526001600160a01b0391909116906370a082319060240160206040518083038186803b1580156114b857600080fd5b505afa1580156114cc573d6000803e3d6000fd5b505050506040513d601f19601f820116820180604052508101906114f0919061588e565b905090565b600061150284848461422f565b6001600160a01b0384166000908152600160209081526040808320338452909152902054828110156115875760405162461bcd60e51b815260206004820152602860248201527f45524332303a207472616e7366657220616d6f756e74206578636565647320616044820152676c6c6f77616e636560c01b60648201526084016110c6565b611594853385840361402c565b506001949350505050565b336115b26006546001600160a01b031690565b6001600160a01b031614806115d157506008546001600160a01b031633145b6115ed5760405162461bcd60e51b81526004016110c6906159fe565b6012805461ffff19166001179081905560405161010090910460ff161515907f4c67d13291f7fe21c52eee8f752cbc5c7451e593e18093d087403081206fd46c90600090a2565b600c546001600160a01b03166000908152602081905260408120546114f0906002545b90614c56565b601254600090610100900460ff16156116795750612328919050565b6000611684836128c6565b905061168f60025490565b8111156116ab575050600854600160b01b900461ffff16919050565b620186a06116b860025490565b6116c29190615acd565b8110156116de575050600854600160a01b900461ffff16919050565b60006116e960025490565b6116f683620186a0615aef565b6117009190615acd565b905060648111156117695760085460009060649061172a908490600160a01b900461ffff16615ab5565b6117349190615b0e565b600854909150600160b01b900461ffff1681116117515780611760565b600854600160b01b900461ffff165b95945050505050565b5050600854600160a01b900461ffff1692915050565b6000336117946006546001600160a01b031690565b6001600160a01b031614806117b357506008546001600160a01b031633145b6117cf5760405162461bcd60e51b81526004016110c6906159fe565b506001600160a01b0381166000908152601b602052604090205460ff165b919050565b336118056006546001600160a01b031690565b6001600160a01b0316148061182457506008546001600160a01b031633145b6118405760405162461bcd60e51b81526004016110c6906159fe565b6001600160a01b03166000908152600f602090815260408083208054600160ff1991821681179092556010909352922080549091169091179055565b3360008181526001602090815260408083206001600160a01b0387168452909152812054909161106f9185906118b3908690615ab5565b61402c565b6006546001600160a01b031633146118e25760405162461bcd60e51b81526004016110c69061599d565b601154816118ef60025490565b6118f99190615ab5565b111561197b5760405162461bcd60e51b8152602060048201526044602482018190527f41424f41543a3a6d696e743a2043616e2774206d696e74206d6f72652061626f908201527f617420746f6b656e207468616e206d6178446973747269627574696f6e20616c6064820152636c6f777360e01b608482015260a4016110c6565b6112ae8282614c69565b6019546001600160a01b03161561138257601960009054906101000a90046001600160a01b03166001600160a01b031663673a7e286040518163ffffffff1660e01b8152600401600060405180830381600087803b1580156119e657600080fd5b505af11580156119fa573d6000803e3d6000fd5b50505050565b33611a136006546001600160a01b031690565b6001600160a01b03161480611a3257506008546001600160a01b031633145b611a4e5760405162461bcd60e51b81526004016110c6906159fe565b6001600160a01b03166000908152600f60205260409020805460ff19169055565b600d5460408051630dfe168160e01b815290516000926001600160a01b03169183918391630dfe1681916004808301926020929190829003018186803b158015611ab857600080fd5b505afa158015611acc573d6000803e3d6000fd5b505050506040513d601f19601f82011682018060405250810190611af09190615681565b90506000826001600160a01b031663d21220a76040518163ffffffff1660e01b815260040160206040518083038186803b158015611b2d57600080fd5b505afa158015611b41573d6000803e3d6000fd5b505050506040513d601f19601f82011682018060405250810190611b659190615681565b90506001600160a01b038216301415611b7e5780611b80565b815b935050505090565b33611b9b6006546001600160a01b031690565b6001600160a01b03161480611bba57506008546001600160a01b031633145b611bd65760405162461bcd60e51b81526004016110c6906159fe565b6001600160a01b03166000908152601060205260409020805460ff19169055565b6006546001600160a01b03163314611c215760405162461bcd60e51b81526004016110c69061599d565b6019546001600160a01b03828116911614801590611c4757506001600160a01b03811615155b611cef5760405162461bcd60e51b815260206004820152606760248201527f41424f41543a3a7365744d6173746572456e7465727461696e65723a204d617360448201527f74657220656e7465727461696e65722063616e277420657175616c207072657660648201527f696f7573206d617374657220656e7465727461696e6572206f72207a65726f206084820152666164647265737360c81b60a482015260c4016110c6565b601980546001600160a01b038381166001600160a01b031983161790925516611d17826117f2565b611d2082613d4b565b816001600160a01b0316816001600160a01b03167fdbc41a91ae00463e0c8208e05c807f2559c82a27989b5dd9f984e3a0b8059d6960405160405180910390a35050565b33611d776006546001600160a01b031690565b6001600160a01b03161480611d9657506008546001600160a01b031633145b611db25760405162461bcd60e51b81526004016110c6906159fe565b6001600160a01b038116611e265760405162461bcd60e51b815260206004820152603560248201527f41424f41543a3a73657452657761726457616c6c65743a20416464726573732060448201527463616e2774206265207a65726f206164647265737360581b60648201526084016110c6565b600c80546001600160a01b0319166001600160a01b03831690811790915561146a906117f2565b33611e606006546001600160a01b031690565b6001600160a01b03161480611e7f57506008546001600160a01b031633145b611e9b5760405162461bcd60e51b81526004016110c6906159fe565b6001600160a01b038116611f175760405162461bcd60e51b815260206004820152603760248201527f41424f41543a3a736574446f6e6174696f6e57616c6c65743a2041646472657360448201527f732063616e2774206265207a65726f206164647265737300000000000000000060648201526084016110c6565b600b80546001600160a01b0319166001600160a01b0392909216919091179055565b600060115482611f4860025490565b611f529190615ab5565b111592915050565b336000908152601a602052604090205460ff16611fd35760405162461bcd60e51b815260206004820152603160248201527f41424f41543a3a7265717565737457686974656c6973743a20596f7520617265604482015270206e6f7420626c61636b6c69737465642160781b60648201526084016110c6565b336000908152601b602052604090205460ff16156120595760405162461bcd60e51b815260206004820152603960248201527f41424f41543a3a7265717565737457686974656c6973743a20596f7520616c7260448201527f65616479207265717565737465642077686974656c697374210000000000000060648201526084016110c6565b6013543410156120f75760405162461bcd60e51b815260206004820152605a60248201527f41424f41543a3a7265717565737457686974656c6973743a20416d6f756e742060448201527f6f6620626e6220746f20636c61696d2073686f756c642063617272792074686560648201527f20636f737420746f206164642074686520636c61696d61626c65000000000000608482015260a4016110c6565b600a5461210d906001600160a01b031634614150565b336000818152601b6020526040808220805460ff19166001179055517fd0401c9f53bc0a133a6eb391664575ad9c8e05bdda210963e7e75591938ee5109190a2565b6006546001600160a01b031633146121795760405162461bcd60e51b81526004016110c69061599d565b6113826000614d48565b336121966006546001600160a01b031690565b6001600160a01b031614806121b557506008546001600160a01b031633145b6121d15760405162461bcd60e51b81526004016110c6906159fe565b6040805180820190915260098152680eae0c8c2e8caa8c2f60bb1b6020820152600654600160a01b900460ff16158061228a57506007816040516122159190615919565b9081526020016040518091039020546000141580156122525750426007826040516122409190615919565b90815260200160405180910390205411155b801561228a5750426201518060078360405161226e9190615919565b9081526020016040518091039020546122879190615ab5565b10155b6122a65760405162461bcd60e51b81526004016110c6906159d2565b6064826122b38587615a8f565b6122bd9190615a8f565b61ffff1611156123265760405162461bcd60e51b815260206004820152602e60248201527f41424f41543a3a7570646174655461783a205461782063616e7420657863656560448201526d64203130302070657263656e742160901b60648201526084016110c6565b6008805463ffffffff60c01b1916600160c01b61ffff878116820261ffff60d01b191692909217600160d01b87841681029190911761ffff60e01b1916600160e01b87851681029190911794859055604080519386048516845291850484166020840152909304909116918101919091527f49b216608947f85b55485549bcbeb9b3885d85690a8ecce31f0b27e390af5c7a9060600160405180910390a16119fa81612dc9565b336123e06006546001600160a01b031690565b6001600160a01b031614806123ff57506008546001600160a01b031633145b61241b5760405162461bcd60e51b81526004016110c6906159fe565b6001600160a01b03166000908152600f60205260409020805460ff19166001179055565b336124526006546001600160a01b031690565b6001600160a01b0316148061247157506008546001600160a01b031633145b61248d5760405162461bcd60e51b81526004016110c6906159fe565b6040805180820190915260078152660dad2dcbee8c2f60cb1b6020820152600654600160a01b900460ff16158061254457506007816040516124cf9190615919565b90815260200160405180910390205460001415801561250c5750426007826040516124fa9190615919565b90815260200160405180910390205411155b8015612544575042620151806007836040516125289190615919565b9081526020016040518091039020546125419190615ab5565b10155b6125605760405162461bcd60e51b81526004016110c6906159d2565b60085461ffff600160b01b909104811690831611156126195760405162461bcd60e51b815260206004820152606360248201527f41424f41543a3a7570646174654d696e696d756d5472616e736665725461785260448201527f6174653a206d696e696d756d5472616e7366657254617852617465206d75737460648201527f206e6f7420657863656564206d6178696d756d5472616e7366657254617852616084820152623a329760e91b60a482015260c4016110c6565b60085460408051600160a01b90920461ffff90811683528416602083015233917fb2f2e219f74b4a7e339376870ae1b18d655e3cf85f60dc47f56e7cd7bad470c5910160405180910390a26008805461ffff60a01b1916600160a01b61ffff8516021790556112ae81612dc9565b3361269a6006546001600160a01b031690565b6001600160a01b031614806126b957506008546001600160a01b031633145b6126d55760405162461bcd60e51b81526004016110c6906159fe565b6013805490829055604051829082907fa4257144dd1cd8b911052d6273102723e361f2b03e4cb7312cf347093492db7890600090a35050565b336127216006546001600160a01b031690565b6001600160a01b0316148061274057506008546001600160a01b031633145b61275c5760405162461bcd60e51b81526004016110c6906159fe565b600955565b336127746006546001600160a01b031690565b6001600160a01b0316148061279357506008546001600160a01b031633145b6127af5760405162461bcd60e51b81526004016110c6906159fe565b6012805460ff19166001179055565b606060048054610fdf90615b51565b336127e06006546001600160a01b031690565b6001600160a01b031614806127ff57506008546001600160a01b031633145b61281b5760405162461bcd60e51b81526004016110c6906159fe565b6001600160a01b03166000908152601060205260409020805460ff19166001179055565b336128526006546001600160a01b031690565b6001600160a01b0316148061287157506008546001600160a01b031633145b61288d5760405162461bcd60e51b81526004016110c6906159fe565b6001600160a01b03166000908152601a60209081526040808320805460ff19908116600117909155601b90925290912080549091169055565b6019546040516394d45b5960e01b81526001600160a01b03838116600483015260006024830181905292612970929116906394d45b599060440160206040518083038186803b15801561291857600080fd5b505afa15801561292c573d6000803e3d6000fd5b505050506040513d601f19601f82011682018060405250810190612950919061588e565b6001600160a01b0384166000908152602081905260409020545b90614d9a565b92915050565b336129896006546001600160a01b031690565b6001600160a01b031614806129a857506008546001600160a01b031633145b6129c45760405162461bcd60e51b81526004016110c6906159fe565b60408051808201909152600781526636382fb830b4b960c91b6020820152600654600160a01b900460ff161580612a7b5750600781604051612a069190615919565b908152602001604051809103902054600014158015612a43575042600782604051612a319190615919565b90815260200160405180910390205411155b8015612a7b57504262015180600783604051612a5f9190615919565b908152602001604051809103902054612a789190615ab5565b10155b612a975760405162461bcd60e51b81526004016110c6906159d2565b6001600160a01b038216612b215760405162461bcd60e51b8152602060048201526044602482018190527f4c6971756966793a3a7365744c6971756964697479506169723a204c69717569908201527f6469747920706169722063616e277420636f6e7461696e207a65726f206164646064820152637265737360e01b608482015260a4016110c6565b600e60009054906101000a90046001600160a01b03166001600160a01b031663c45a01556040518163ffffffff1660e01b815260040160206040518083038186803b158015612b6f57600080fd5b505afa158015612b83573d6000803e3d6000fd5b505050506040513d601f19601f82011682018060405250810190612ba79190615681565b60405163e6a4390560e01b81523060048201526001600160a01b038481166024830152919091169063e6a439059060440160206040518083038186803b158015612bf057600080fd5b505afa158015612c04573d6000803e3d6000fd5b505050506040513d601f19601f82011682018060405250810190612c289190615681565b600d80546001600160a01b0319166001600160a01b03929092169182179055612d7557600e60009054906101000a90046001600160a01b03166001600160a01b031663c45a01556040518163ffffffff1660e01b815260040160206040518083038186803b158015612c9957600080fd5b505afa158015612cad573d6000803e3d6000fd5b505050506040513d601f19601f82011682018060405250810190612cd19190615681565b6040516364e329cb60e11b81523060048201526001600160a01b038481166024830152919091169063c9c6539690604401602060405180830381600087803b158015612d1c57600080fd5b505af1158015612d30573d6000803e3d6000fd5b505050506040513d601f19601f82011682018060405250810190612d549190615681565b600d80546001600160a01b0319166001600160a01b03929092169190911790555b600d54612d8a906001600160a01b03166123cd565b600d546040516001600160a01b039091169033907f6c587433dea122b342b093acb4dde076ca1a441413e43a5a14dde8a8842c944790600090a36112ae815b33612ddc6006546001600160a01b031690565b6001600160a01b03161480612dfb57506008546001600160a01b031633145b612e175760405162461bcd60e51b81526004016110c6906159fe565b6000600782604051612e299190615919565b9081526040519081900360200190205550565b33612e4f6006546001600160a01b031690565b6001600160a01b03161480612e6e57506008546001600160a01b031633145b612e8a5760405162461bcd60e51b81526004016110c6906159fe565b6001600160a01b03166000908152600f60209081526040808320805460ff19908116909155601090925290912080549091169055565b3360009081526001602090815260408083206001600160a01b038616845290915281205482811015612f425760405162461bcd60e51b815260206004820152602560248201527f45524332303a2064656372656173656420616c6c6f77616e63652062656c6f77604482015264207a65726f60d81b60648201526084016110c6565b612f4f338585840361402c565b5060019392505050565b33612f6c6006546001600160a01b031690565b6001600160a01b03161480612f8b57506008546001600160a01b031633145b612fa75760405162461bcd60e51b81526004016110c6906159fe565b612fb46201518042615ab5565b600782604051612fc49190615919565b908152602001604051809103902081905550600781604051612fe69190615919565b908152602001604051809103902054816040516130039190615919565b604051908190038120907ff77f9a799fe8b0be1463abd7459a18fc55dfd8a6a24ddd29b54fd098088089c890600090a350565b600061106f33848461422f565b336130566006546001600160a01b031690565b6001600160a01b0316148061307557506008546001600160a01b031633145b6130915760405162461bcd60e51b81526004016110c6906159fe565b6040805180820190915260078152660dac2f0bee8c2f60cb1b6020820152600654600160a01b900460ff16158061314857506007816040516130d39190615919565b9081526020016040518091039020546000141580156131105750426007826040516130fe9190615919565b90815260200160405180910390205411155b80156131485750426201518060078360405161312c9190615919565b9081526020016040518091039020546131459190615ab5565b10155b6131645760405162461bcd60e51b81526004016110c6906159d2565b60085461ffff600160a01b9091048116908316101561321f5760405162461bcd60e51b815260206004820152606560248201527f41424f41543a3a7570646174654d6178696d756d5472616e736665725461785260448201527f6174653a206d6178696d756d5472616e7366657254617852617465206d75737460648201527f206e6f742062652062656c6f77206d696e696d756d5472616e736665725461786084820152642930ba329760d91b60a482015260c4016110c6565b6103e861ffff831611156132b85760405162461bcd60e51b815260206004820152605460248201527f41424f41543a3a7570646174654d6178696d756d5472616e736665725461785260448201527f6174653a206d6178696d756d5472616e7366657254617852617465206d7573746064820152731032bc31b2b2b21026a0ac24a6aaa6afaa20ac1760611b608482015260a4016110c6565b60085460408051600160a01b90920461ffff90811683528416602083015233917ffc18b74e18e9bf8100ca625de9f64c93e88284a81d82c9edfc899869f34b506f910160405180910390a26008805461ffff60b01b1916600160b01b61ffff8516021790556112ae81612dc9565b6008805463ffffffff60a01b1981169182905561ffff600160a01b8204811692600160b01b909204169060ff600160f01b90910416156133655761376b565b6008805460ff60f01b1916600160f01b179055306000908152602081905260408120549050600954811061375c57600d546008546009546001600160a01b03909216916000916133cd916064916133c79190600160d01b900461ffff16614da6565b90614db2565b6008546009549192506000916133f4916064916133c791600160e01b900461ffff16614da6565b9050600061341660026133c78461165787600954614c5690919063ffffffff16565b9050600061342f82600954614c5690919063ffffffff16565b90506000856001600160a01b0316630dfe16816040518163ffffffff1660e01b815260040160206040518083038186803b15801561346c57600080fd5b505afa158015613480573d6000803e3d6000fd5b505050506040513d601f19601f820116820180604052508101906134a49190615681565b90506000866001600160a01b031663d21220a76040518163ffffffff1660e01b815260040160206040518083038186803b1580156134e157600080fd5b505afa1580156134f5573d6000803e3d6000fd5b505050506040513d601f19601f820116820180604052508101906135199190615681565b9050806001600160a01b0316826001600160a01b031614156135a35760405162461bcd60e51b815260206004820152603e60248201527f496e76616c6964206c6971756469747920706169723a20506169722063616e2760448201527f7420636f6e7461696e207468652073616d6520746f6b656e207477696365000060648201526084016110c6565b600e54604080516315ab88c960e31b815290516000926001600160a01b03169163ad5c4648916004808301926020929190829003018186803b1580156135e857600080fd5b505afa1580156135fc573d6000803e3d6000fd5b505050506040513d601f19601f820116820180604052508101906136209190615681565b6001600160a01b0316836001600160a01b031614806136d55750600e60009054906101000a90046001600160a01b03166001600160a01b031663ad5c46486040518163ffffffff1660e01b815260040160206040518083038186803b15801561368857600080fd5b505afa15801561369c573d6000803e3d6000fd5b505050506040513d601f19601f820116820180604052508101906136c09190615681565b6001600160a01b0316826001600160a01b0316145b9050600081156136ee576136e98587614dbe565b613711565b6137116001600160a01b038516301415613708578361370a565b845b8688614ddb565b60408051868152602081018390529081018790527f17bbfb9a6069321b6ded73bd96327c9e6b7212a5cd51ff219cd61370acafb5619060600160405180910390a15050505050505050505b506008805460ff60f01b191690555b6008805463ffffffff60a01b1916600160a01b61ffff9485160261ffff60b01b191617600160b01b9290931691909102919091179055565b336137b66006546001600160a01b031690565b6001600160a01b031614806137d557506008546001600160a01b031633145b6137f15760405162461bcd60e51b81526004016110c6906159fe565b600a8161ffff161161386b5760405162461bcd60e51b815260206004820152603d60248201527f4d6178207472616e73616374696f6e2073697a652063616e2774206265206c6f60448201527f776572207468616e20302e3125206f6620746f74616c20737570706c7900000060648201526084016110c6565b6012805461ffff8381166201000090810263ffff000019841617938490556040519281900482169304169082907f8f171bb23056cced8a730912e267dbf04c43510f33032f06a749b0ccdc8587b490600090a35050565b336138d56006546001600160a01b031690565b6001600160a01b031614806138f457506008546001600160a01b031633145b6139105760405162461bcd60e51b81526004016110c6906159fe565b604080518082019091526006808252653937baba32b960d11b602083015254600160a01b900460ff1615806139c557506007816040516139509190615919565b90815260200160405180910390205460001415801561398d57504260078260405161397b9190615919565b90815260200160405180910390205411155b80156139c5575042620151806007836040516139a99190615919565b9081526020016040518091039020546139c29190615ab5565b10155b6139e15760405162461bcd60e51b81526004016110c6906159d2565b600e80546001600160a01b0319166001600160a01b038416908117909155604080516315ab88c960e31b81529051613a71929163ad5c4648916004808301926020929190829003018186803b158015613a3957600080fd5b505afa158015613a4d573d6000803e3d6000fd5b505050506040513d601f19601f82011682018060405250810190610c349190615681565b613a7a826123cd565b600d546040516001600160a01b039182169184169033907feb7c1e97c05570337fe795ab9d5755a8f731c9c52e756b720275940fa283327690600090a46112ae81612dc9565b33613ad36006546001600160a01b031690565b6001600160a01b03161480613af257506008546001600160a01b031633145b613b0e5760405162461bcd60e51b81526004016110c6906159fe565b60408051808201909152601081526f36b0bc2fb234b9ba3934b13aba34b7b760811b6020820152600654600160a01b900460ff161580613bce5750600781604051613b599190615919565b908152602001604051809103902054600014158015613b96575042600782604051613b849190615919565b90815260200160405180910390205411155b8015613bce57504262015180600783604051613bb29190615919565b908152602001604051809103902054613bcb9190615ab5565b10155b613bea5760405162461bcd60e51b81526004016110c6906159d2565b6002548211613c7e5760405162461bcd60e51b815260206004820152605460248201527f41424f41543a3a7365744d6178446973747269627574696f6e3a20446973747260448201527f69627574696f6e2063616e2774206265206c6f776572207468616e207468652060648201527363757272656e7420746f74616c20737570706c7960601b608482015260a4016110c6565b601182905560405182907f0a7e08474511c62a58c1dc04d12cff13c93670ffc4d0056882f95ebfe2df50ed90600090a26112ae81612dc9565b33613cca6006546001600160a01b031690565b6001600160a01b03161480613ce957506008546001600160a01b031633145b613d055760405162461bcd60e51b81526004016110c6906159fe565b6012805461ff00191661010090811791829055604051910460ff161515907f4c67d13291f7fe21c52eee8f752cbc5c7451e593e18093d087403081206fd46c90600090a2565b6006546001600160a01b03163314613d755760405162461bcd60e51b81526004016110c69061599d565b6001600160a01b038116613dda5760405162461bcd60e51b815260206004820152602660248201527f4f776e61626c653a206e6577206f776e657220697320746865207a65726f206160448201526564647265737360d01b60648201526084016110c6565b61146a81614d48565b33613df66006546001600160a01b031690565b6001600160a01b03161480613e1557506008546001600160a01b031633145b613e315760405162461bcd60e51b81526004016110c6906159fe565b6006805460ff60a01b1916600160a01b1790556040517f2c08b62bfac9a1b19bb1dec9323f1ce01696a77948b256abf3603d30f25a864e90600090a1565b33613e826006546001600160a01b031690565b6001600160a01b03161480613ea157506008546001600160a01b031633145b613ebd5760405162461bcd60e51b81526004016110c6906159fe565b6001600160a01b0381166000818152601a6020526040808220805460ff19166001179055517fffa4e6181777692565cf28528fc88fd1516ea86b56da075235fa575af6a4b8559190a250565b33613f1c6006546001600160a01b031690565b6001600160a01b03161480613f3b57506008546001600160a01b031633145b613f575760405162461bcd60e51b81526004016110c6906159fe565b60648161ffff1611613fd15760405162461bcd60e51b815260206004820152603a60248201527f4d6178206163636f756e742062616c616e63652063616e2774206265206c6f7760448201527f6572207468616e203125206f6620746f74616c20737570706c7900000000000060648201526084016110c6565b6012805461ffff83811664010000000090810265ffff0000000019841617938490556040519281900482169304169082907f537619d54465d4bf80b6c360206170815aa95deaa5993a7c17ab783706693a4d90600090a35050565b6001600160a01b03831661408e5760405162461bcd60e51b8152602060048201526024808201527f45524332303a20617070726f76652066726f6d20746865207a65726f206164646044820152637265737360e01b60648201526084016110c6565b6001600160a01b0382166140ef5760405162461bcd60e51b815260206004820152602260248201527f45524332303a20617070726f766520746f20746865207a65726f206164647265604482015261737360f01b60648201526084016110c6565b6001600160a01b0383811660008181526001602090815260408083209487168084529482529182902085905590518481527f8c5be1e5ebec7d5bd14f71427d1e84f3dd0314c0f7b2291e5b200ac8c7c3b925910160405180910390a3505050565b604080516000808252602082019092526001600160a01b03841690839060405161417a9190615919565b60006040518083038185875af1925050503d80600081146141b7576040519150601f19603f3d011682016040523d82523d6000602084013e6141bc565b606091505b505090508061422a5760405162461bcd60e51b815260206004820152603460248201527f5472616e7366657248656c7065723a3a736166655472616e736665724554483a60448201527308115512081d1c985b9cd9995c8819985a5b195960621b60648201526084016110c6565b505050565b600260055414156142825760405162461bcd60e51b815260206004820152601f60248201527f5265656e7472616e637947756172643a207265656e7472616e742063616c6c0060448201526064016110c6565b60026005556001600160a01b0383166142f65760405162461bcd60e51b815260206004820152603060248201527f41424f41543a3a5f7472616e736665723a207472616e736665722066726f6d2060448201526f746865207a65726f206164647265737360801b60648201526084016110c6565b6001600160a01b0382166143635760405162461bcd60e51b815260206004820152602e60248201527f41424f41543a3a5f7472616e736665723a207472616e7366657220746f20746860448201526d65207a65726f206164647265737360901b60648201526084016110c6565b600081116143d95760405162461bcd60e51b815260206004820152603a60248201527f41424f41543a3a5f7472616e736665723a5472616e7366657220616d6f756e7460448201527f206d7573742062652067726561746572207468616e207a65726f00000000000060648201526084016110c6565b6001600160a01b0383166000908152602081905260409020548111156144775760405162461bcd60e51b815260206004820152604760248201527f41424f41543a3a5f7472616e736665723a5472616e7366657220616d6f756e7460448201527f206d757374206265206c6f776572206f7220657175616c2073656e646572732060648201526662616c616e636560c81b608482015260a4016110c6565b6001600160a01b0383166000908152601a602052604090205460ff161561455e5760405162461bcd60e51b815260206004820152608360248201527f41424f41543a3a5f7472616e736665723a596f752772652063757272656e746c60448201527f7920626c61636b6c69737465642e20506c65617365207265706f727420746f2060648201527f736572766963654074616c6b61626f61742e6f6e6c696e6520696620796f752060848201527f77616e7420746f206765742072656d6f7665642066726f6d20626c61636b6c6960a48201526273742160e81b60c482015260e4016110c6565b60125461ffff620100009091041661457560025490565b61458183612710615aef565b61458b9190615acd565b1115806145a557506006546001600160a01b038481169116145b806145bd57506008546001600160a01b038481169116145b806145e057506001600160a01b0383166000908152600f602052604090205460ff165b8061460357506001600160a01b03831660009081526010602052604090205460ff165b61467f5760405162461bcd60e51b815260206004820152604160248201527f596f7572207472616e73666572206578636565647320746865206d6178696d7560448201527f6d20706f737369626c6520616d6f756e7420706572207472616e73616374696f6064820152603760f91b608482015260a4016110c6565b60125461ffff6401000000009091041661469860025490565b6146a1846128c6565b6146ab9084615ab5565b6146b790612710615aef565b6146c19190615acd565b1115806146db57506006546001600160a01b038381169116145b806146f357506008546001600160a01b038381169116145b8061470657506001600160a01b03821630145b8061472957506001600160a01b03821660009081526010602052604090205460ff165b8061474c57506001600160a01b0382166000908152600f602052604090205460ff165b6147c0576040805162461bcd60e51b81526020600482015260248101919091527f41424f41543a3a5f7472616e736665723a42616c616e6365206f66207265636960448201527f7069656e742063616e277420657863656564206d617841636342616c616e636560648201526084016110c6565b60125460ff16806147de57506006546001600160a01b038481169116145b806147f657506008546001600160a01b038481169116145b8061481957506001600160a01b03821660009081526010602052604090205460ff165b8061483c57506001600160a01b0383166000908152600f602052604090205460ff165b6148ae5760405162461bcd60e51b815260206004820152603760248201527f41424f41543a3a5f7472616e736665723a436f6e7472616374206973206e6f7460448201527f20796574206f70656e20666f7220636f6d6d756e69747900000000000000000060648201526084016110c6565b601254610100900460ff1615806148d257506008546001600160a01b038481169116145b806148ea57506006546001600160a01b038481169116145b8061493057506001600160a01b0383166000908152600f602052604090205460ff16801561493057506001600160a01b03821660009081526010602052604090205460ff165b801561499e57506001600160a01b03821615806149585750600854600160b01b900461ffff16155b8061497b57506001600160a01b03821660009081526010602052604090205460ff165b8061499e57506001600160a01b0383166000908152600f602052604090205460ff165b156149b3576149ae838383614f06565b614c44565b60006149ce6127106133c76149c78761165d565b8590614da6565b6008549091506000906149f4906064906133c7908590600160c01b900461ffff16614da6565b600854909150600090614a1a906064906133c7908690600160d01b900461ffff16614da6565b600854909150600090614a40906064906133c7908790600160e01b900461ffff16614da6565b90506000614a5c614a558361296a8787614d9a565b8690614c56565b90508183614a6a8387615ab5565b614a749190615ab5565b614a7e9190615ab5565b8514614af25760405162461bcd60e51b815260206004820152603f60248201527f41424f41543a3a7472616e736665723a2046656520616d6f756e7420646f657360448201527f206e6f7420657175616c207468652073706c69742066656520616d6f756e740060648201526084016110c6565b6000614afe8787614c56565b9050614b0a8682615ab5565b8714614b965760405162461bcd60e51b815260206004820152604f60248201527f41424f41543a3a7472616e736665723a20616d6f756e7420746f2073656e642060448201527f776974682074617820616d6f756e742065786365656473206d6178696d756d2060648201526e1c1bdcdcda589b1948185b5bdd5b9d608a1b608482015260a4016110c6565b614bb5893085614ba68887615ab5565b614bb09190615ab5565b614f06565b614bc0898983614f06565b600c54614bd8908a906001600160a01b031687614f06565b8096508560146000828254614bed9190615ab5565b925050819055508360156000828254614c069190615ab5565b925050819055508260166000828254614c1f9190615ab5565b925050819055508160186000828254614c389190615ab5565b90915550505050505050505b614c4c611985565b5050600160055550565b6000614c628284615b0e565b9392505050565b6001600160a01b038216614cbf5760405162461bcd60e51b815260206004820152601f60248201527f45524332303a206d696e7420746f20746865207a65726f20616464726573730060448201526064016110c6565b8060026000828254614cd19190615ab5565b90915550506001600160a01b03821660009081526020819052604081208054839290614cfe908490615ab5565b90915550506040518181526001600160a01b038316906000907fddf252ad1be2c89b69c2b068fc378daa952ba7f163c4a11628f55a4df523b3ef9060200160405180910390a35050565b600680546001600160a01b038381166001600160a01b0319831681179093556040519116919082907f8be0079c531659141344cd1fd0a4f28419497f9722a3daafe3b4186f6b6457e090600090a35050565b6000614c628284615ab5565b6000614c628284615aef565b6000614c628284615acd565b6000614dc9836150d4565b9050801561422a5761422a828261517b565b826000614de7846150d4565b6040516370a0823160e01b81523060048201529091506000906001600160a01b038416906370a082319060240160206040518083038186803b158015614e2c57600080fd5b505afa158015614e40573d6000803e3d6000fd5b505050506040513d601f19601f82011682018060405250810190614e64919061588e565b9050614e70828761523b565b6040516370a0823160e01b8152306004820152600090614ef09083906001600160a01b038716906370a082319060240160206040518083038186803b158015614eb857600080fd5b505afa158015614ecc573d6000803e3d6000fd5b505050506040513d601f19601f82011682018060405250810190611657919061588e565b9050614efd85828961539c565b50505050505050565b6001600160a01b038316614f6a5760405162461bcd60e51b815260206004820152602560248201527f45524332303a207472616e736665722066726f6d20746865207a65726f206164604482015264647265737360d81b60648201526084016110c6565b6001600160a01b038216614fcc5760405162461bcd60e51b815260206004820152602360248201527f45524332303a207472616e7366657220746f20746865207a65726f206164647260448201526265737360e81b60648201526084016110c6565b6001600160a01b038316600090815260208190526040902054818110156150445760405162461bcd60e51b815260206004820152602660248201527f45524332303a207472616e7366657220616d6f756e7420657863656564732062604482015265616c616e636560d01b60648201526084016110c6565b6001600160a01b0380851660009081526020819052604080822085850390559185168152908120805484929061507b908490615ab5565b92505081905550826001600160a01b0316846001600160a01b03167fddf252ad1be2c89b69c2b068fc378daa952ba7f163c4a11628f55a4df523b3ef846040516150c791815260200190565b60405180910390a36119fa565b6000476150e0836154f1565b60006150ec4783614c56565b600854909150600090615112906064906133c7908590600160d01b900461ffff16614da6565b600854909150600090615138906064906133c7908690600160e01b900461ffff16614da6565b600a54909150615151906001600160a01b031683614150565b600b54615167906001600160a01b031682614150565b6151714785614c56565b9695505050505050565b600e546151939030906001600160a01b03168461402c565b600e5460405163f305d71960e01b8152306004820152602481018490526000604482018190526064820181905260848201524260a48201526001600160a01b039091169063f305d71990839060c4016060604051808303818588803b1580156151fb57600080fd5b505af115801561520f573d6000803e3d6000fd5b50505050506040513d601f19601f8201168201806040525081019061523491906158a7565b5050505050565b6040805160028082526060820183526000926020830190803683375050600e54604080516315ab88c960e31b815290519394506001600160a01b039091169263ad5c464892506004808301926020929190829003018186803b1580156152a057600080fd5b505afa1580156152b4573d6000803e3d6000fd5b505050506040513d601f19601f820116820180604052508101906152d89190615681565b816000815181106152eb576152eb615ba2565b60200260200101906001600160a01b031690816001600160a01b031681525050818160018151811061531f5761531f615ba2565b6001600160a01b039283166020918202929092010152600e5460405163b6f9de9560e01b815291169063b6f9de9590859061536590600090869030904290600401615935565b6000604051808303818588803b15801561537e57600080fd5b505af1158015615392573d6000803e3d6000fd5b5050505050505050565b600e546153b49030906001600160a01b03168561402c565b600e5460405163095ea7b360e01b81526001600160a01b039182166004820152602481018490529082169063095ea7b390604401602060405180830381600087803b15801561540257600080fd5b505af1158015615416573d6000803e3d6000fd5b505050506040513d601f19601f8201168201806040525081019061543a9190615744565b50600e5460405162e8e33760e81b81523060048201526001600160a01b038381166024830152604482018690526064820185905260006084830181905260a4830181905260c48301524260e48301529091169063e8e337009061010401606060405180830381600087803b1580156154b157600080fd5b505af11580156154c5573d6000803e3d6000fd5b505050506040513d601f19601f820116820180604052508101906154e991906158a7565b505050505050565b604080516002808252606082018352600092602083019080368337019050509050308160008151811061552657615526615ba2565b6001600160a01b03928316602091820292909201810191909152600e54604080516315ab88c960e31b81529051919093169263ad5c4648926004808301939192829003018186803b15801561557a57600080fd5b505afa15801561558e573d6000803e3d6000fd5b505050506040513d601f19601f820116820180604052508101906155b29190615681565b816001815181106155c5576155c5615ba2565b6001600160a01b039283166020918202929092010152600e546155eb913091168461402c565b600e5460405163791ac94760e01b81526001600160a01b039091169063791ac94790615624908590600090869030904290600401615a53565b600060405180830381600087803b15801561563e57600080fd5b505af11580156154e9573d6000803e3d6000fd5b803561ffff811681146117ed57600080fd5b60006020828403121561567657600080fd5b8135614c6281615bce565b60006020828403121561569357600080fd5b8151614c6281615bce565b600080604083850312156156b157600080fd5b82356156bc81615bce565b915060208301356156cc81615bce565b809150509250929050565b6000806000606084860312156156ec57600080fd5b83356156f781615bce565b9250602084013561570781615bce565b929592945050506040919091013590565b6000806040838503121561572b57600080fd5b823561573681615bce565b946020939093013593505050565b60006020828403121561575657600080fd5b81518015158114614c6257600080fd5b60006020828403121561577857600080fd5b813567ffffffffffffffff8082111561579057600080fd5b818401915084601f8301126157a457600080fd5b8135818111156157b6576157b6615bb8565b604051601f8201601f19908116603f011681019083821181831017156157de576157de615bb8565b816040528281528760208487010111156157f757600080fd5b826020860160208301376000928101602001929092525095945050505050565b60006020828403121561582957600080fd5b614c6282615652565b60008060006060848603121561584757600080fd5b61585084615652565b925061585e60208501615652565b915061586c60408501615652565b90509250925092565b60006020828403121561588757600080fd5b5035919050565b6000602082840312156158a057600080fd5b5051919050565b6000806000606084860312156158bc57600080fd5b8351925060208401519150604084015190509250925092565b600081518084526020808501945080840160005b8381101561590e5781516001600160a01b0316875295820195908201906001016158e9565b509495945050505050565b6000825161592b818460208701615b25565b9190910192915050565b84815260806020820152600061594e60808301866158d5565b6001600160a01b03949094166040830152506060015292915050565b6020815260008251806020840152615989816040850160208701615b25565b601f01601f19169190910160400192915050565b6020808252818101527f4f776e61626c653a2063616c6c6572206973206e6f7420746865206f776e6572604082015260600190565b602080825260129082015271119d5b98dd1a5bdb881a5cc81b1bd8dad95960721b604082015260600190565b60208082526035908201527f6f70657261746f723a2063616c6c6572206973206e6f7420616c6c6f776564206040820152743a379031b0b636103a3434b990333ab731ba34b7b760591b606082015260800190565b85815284602082015260a060408201526000615a7260a08301866158d5565b6001600160a01b0394909416606083015250608001529392505050565b600061ffff808316818516808303821115615aac57615aac615b8c565b01949350505050565b60008219821115615ac857615ac8615b8c565b500190565b600082615aea57634e487b7160e01b600052601260045260246000fd5b500490565b6000816000190483118215151615615b0957615b09615b8c565b500290565b600082821015615b2057615b20615b8c565b500390565b60005b83811015615b40578181015183820152602001615b28565b838111156119fa5750506000910152565b600181811c90821680615b6557607f821691505b60208210811415615b8657634e487b7160e01b600052602260045260246000fd5b50919050565b634e487b7160e01b600052601160045260246000fd5b634e487b7160e01b600052603260045260246000fd5b634e487b7160e01b600052604160045260246000fd5b6001600160a01b038116811461146a57600080fdfea26469706673582212203dd0501961eeacfdaf0a624f7fef04a12dbebaf4daaa06cebd82b7cd7f613f3764736f6c63430008070033",
			"opcodes": "PUSH1 0x80 PUSH1 0x40 MSTORE PUSH1 0x6 DUP1 SLOAD PUSH1 0xFF PUSH1 0xA0 SHL NOT AND SWAP1 SSTORE PUSH1 0x8 DUP1 SLOAD PUSH1 0x1 PUSH1 0xA0 SHL PUSH1 0x1 PUSH1 0xF8 SHL SUB NOT AND PUSH9 0x28005000A00FA007D PUSH1 0xA2 SHL OR SWAP1 SSTORE PUSH10 0x152D02C7E14AF6800000 PUSH1 0x9 SSTORE PUSH1 0xA DUP1 SLOAD PUSH1 0x1 PUSH1 0x1 PUSH1 0xA0 SHL SUB NOT SWAP1 DUP2 AND PUSH20 0x2EA9CA0CA8043575F2189CFF9897B575B0C7E857 SWAP1 DUP2 OR SWAP1 SWAP3 SSTORE PUSH1 0xB DUP1 SLOAD DUP3 AND PUSH20 0xA7C08AEDCE8CADC3BFB622BD7B651993D1CD24E4 OR SWAP1 SSTORE PUSH1 0xC DUP1 SLOAD SWAP1 SWAP2 AND SWAP1 SWAP2 OR SWAP1 SSTORE PUSH13 0xC9F2C9CD04674EDEA40000000 PUSH1 0x11 SSTORE PUSH1 0x12 DUP1 SLOAD PUSH6 0x12C00640100 PUSH6 0xFFFFFFFFFFFF NOT SWAP1 SWAP2 AND OR SWAP1 SSTORE PUSH7 0x775F05A074000 PUSH1 0x13 SSTORE CALLVALUE DUP1 ISZERO PUSH3 0xD7 JUMPI PUSH1 0x0 DUP1 REVERT JUMPDEST POP PUSH1 0x40 DUP1 MLOAD DUP1 DUP3 ADD DUP3 MSTORE PUSH1 0xB DUP2 MSTORE PUSH11 0x20B137B0BA102A37B5B2B7 PUSH1 0xA9 SHL PUSH1 0x20 DUP1 DUP4 ADD SWAP2 DUP3 MSTORE DUP4 MLOAD DUP1 DUP6 ADD SWAP1 SWAP5 MSTORE PUSH1 0x5 DUP5 MSTORE PUSH5 0x105093D055 PUSH1 0xDA SHL SWAP1 DUP5 ADD MSTORE DUP2 MLOAD SWAP2 SWAP3 SWAP2 PUSH3 0x128 SWAP2 PUSH1 0x3 SWAP2 PUSH3 0x4E6 JUMP JUMPDEST POP DUP1 MLOAD PUSH3 0x13E SWAP1 PUSH1 0x4 SWAP1 PUSH1 0x20 DUP5 ADD SWAP1 PUSH3 0x4E6 JUMP JUMPDEST POP POP PUSH1 0x1 PUSH1 0x5 SSTORE POP PUSH3 0x151 CALLER PUSH3 0x1BB JUMP JUMPDEST PUSH1 0x8 DUP1 SLOAD PUSH1 0x1 PUSH1 0x1 PUSH1 0xA0 SHL SUB NOT AND CALLER OR SWAP1 SSTORE PUSH1 0xA SLOAD PUSH3 0x17A SWAP1 PUSH1 0x1 PUSH1 0x1 PUSH1 0xA0 SHL SUB AND PUSH3 0x20D JUMP JUMPDEST PUSH1 0xB SLOAD PUSH3 0x191 SWAP1 PUSH1 0x1 PUSH1 0x1 PUSH1 0xA0 SHL SUB AND PUSH3 0x20D JUMP JUMPDEST PUSH3 0x1AA CALLER PUSH13 0x792B45E1690AC8EBFC0000000 PUSH3 0x2F5 JUMP JUMPDEST PUSH3 0x1B5 CALLER PUSH3 0x20D JUMP JUMPDEST PUSH3 0x5F0 JUMP JUMPDEST PUSH1 0x6 DUP1 SLOAD PUSH1 0x1 PUSH1 0x1 PUSH1 0xA0 SHL SUB DUP4 DUP2 AND PUSH1 0x1 PUSH1 0x1 PUSH1 0xA0 SHL SUB NOT DUP4 AND DUP2 OR SWAP1 SWAP4 SSTORE PUSH1 0x40 MLOAD SWAP2 AND SWAP2 SWAP1 DUP3 SWAP1 PUSH32 0x8BE0079C531659141344CD1FD0A4F28419497F9722A3DAAFE3B4186F6B6457E0 SWAP1 PUSH1 0x0 SWAP1 LOG3 POP POP JUMP JUMPDEST CALLER PUSH3 0x221 PUSH1 0x6 SLOAD PUSH1 0x1 PUSH1 0x1 PUSH1 0xA0 SHL SUB AND SWAP1 JUMP JUMPDEST PUSH1 0x1 PUSH1 0x1 PUSH1 0xA0 SHL SUB AND EQ DUP1 PUSH3 0x241 JUMPI POP PUSH1 0x8 SLOAD PUSH1 0x1 PUSH1 0x1 PUSH1 0xA0 SHL SUB AND CALLER EQ JUMPDEST PUSH3 0x2B9 JUMPI PUSH1 0x40 MLOAD PUSH3 0x461BCD PUSH1 0xE5 SHL DUP2 MSTORE PUSH1 0x20 PUSH1 0x4 DUP3 ADD MSTORE PUSH1 0x35 PUSH1 0x24 DUP3 ADD MSTORE PUSH32 0x6F70657261746F723A2063616C6C6572206973206E6F7420616C6C6F77656420 PUSH1 0x44 DUP3 ADD MSTORE PUSH32 0x746F2063616C6C20746869732066756E6374696F6E0000000000000000000000 PUSH1 0x64 DUP3 ADD MSTORE PUSH1 0x84 ADD JUMPDEST PUSH1 0x40 MLOAD DUP1 SWAP2 SUB SWAP1 REVERT JUMPDEST PUSH1 0x1 PUSH1 0x1 PUSH1 0xA0 SHL SUB AND PUSH1 0x0 SWAP1 DUP2 MSTORE PUSH1 0xF PUSH1 0x20 SWAP1 DUP2 MSTORE PUSH1 0x40 DUP1 DUP4 KECCAK256 DUP1 SLOAD PUSH1 0x1 PUSH1 0xFF NOT SWAP2 DUP3 AND DUP2 OR SWAP1 SWAP3 SSTORE PUSH1 0x10 SWAP1 SWAP4 MSTORE SWAP3 KECCAK256 DUP1 SLOAD SWAP1 SWAP2 AND SWAP1 SWAP2 OR SWAP1 SSTORE JUMP JUMPDEST PUSH1 0x6 SLOAD PUSH1 0x1 PUSH1 0x1 PUSH1 0xA0 SHL SUB AND CALLER EQ PUSH3 0x351 JUMPI PUSH1 0x40 MLOAD PUSH3 0x461BCD PUSH1 0xE5 SHL DUP2 MSTORE PUSH1 0x20 PUSH1 0x4 DUP3 ADD DUP2 SWAP1 MSTORE PUSH1 0x24 DUP3 ADD MSTORE PUSH32 0x4F776E61626C653A2063616C6C6572206973206E6F7420746865206F776E6572 PUSH1 0x44 DUP3 ADD MSTORE PUSH1 0x64 ADD PUSH3 0x2B0 JUMP JUMPDEST PUSH1 0x11 SLOAD DUP2 PUSH3 0x35F PUSH1 0x2 SLOAD SWAP1 JUMP JUMPDEST PUSH3 0x36B SWAP2 SWAP1 PUSH3 0x58C JUMP JUMPDEST GT ISZERO PUSH3 0x3EF JUMPI PUSH1 0x40 MLOAD PUSH3 0x461BCD PUSH1 0xE5 SHL DUP2 MSTORE PUSH1 0x20 PUSH1 0x4 DUP3 ADD MSTORE PUSH1 0x44 PUSH1 0x24 DUP3 ADD DUP2 SWAP1 MSTORE PUSH32 0x41424F41543A3A6D696E743A2043616E2774206D696E74206D6F72652061626F SWAP1 DUP3 ADD MSTORE PUSH32 0x617420746F6B656E207468616E206D6178446973747269627574696F6E20616C PUSH1 0x64 DUP3 ADD MSTORE PUSH4 0x6C6F7773 PUSH1 0xE0 SHL PUSH1 0x84 DUP3 ADD MSTORE PUSH1 0xA4 ADD PUSH3 0x2B0 JUMP JUMPDEST PUSH3 0x3FB DUP3 DUP3 PUSH3 0x3FF JUMP JUMPDEST POP POP JUMP JUMPDEST PUSH1 0x1 PUSH1 0x1 PUSH1 0xA0 SHL SUB DUP3 AND PUSH3 0x457 JUMPI PUSH1 0x40 MLOAD PUSH3 0x461BCD PUSH1 0xE5 SHL DUP2 MSTORE PUSH1 0x20 PUSH1 0x4 DUP3 ADD MSTORE PUSH1 0x1F PUSH1 0x24 DUP3 ADD MSTORE PUSH32 0x45524332303A206D696E7420746F20746865207A65726F206164647265737300 PUSH1 0x44 DUP3 ADD MSTORE PUSH1 0x64 ADD PUSH3 0x2B0 JUMP JUMPDEST DUP1 PUSH1 0x2 PUSH1 0x0 DUP3 DUP3 SLOAD PUSH3 0x46B SWAP2 SWAP1 PUSH3 0x58C JUMP JUMPDEST SWAP1 SWAP2 SSTORE POP POP PUSH1 0x1 PUSH1 0x1 PUSH1 0xA0 SHL SUB DUP3 AND PUSH1 0x0 SWAP1 DUP2 MSTORE PUSH1 0x20 DUP2 SWAP1 MSTORE PUSH1 0x40 DUP2 KECCAK256 DUP1 SLOAD DUP4 SWAP3 SWAP1 PUSH3 0x49A SWAP1 DUP5 SWAP1 PUSH3 0x58C JUMP JUMPDEST SWAP1 SWAP2 SSTORE POP POP PUSH1 0x40 MLOAD DUP2 DUP2 MSTORE PUSH1 0x1 PUSH1 0x1 PUSH1 0xA0 SHL SUB DUP4 AND SWAP1 PUSH1 0x0 SWAP1 PUSH32 0xDDF252AD1BE2C89B69C2B068FC378DAA952BA7F163C4A11628F55A4DF523B3EF SWAP1 PUSH1 0x20 ADD PUSH1 0x40 MLOAD DUP1 SWAP2 SUB SWAP1 LOG3 PUSH3 0x3FB JUMP JUMPDEST DUP3 DUP1 SLOAD PUSH3 0x4F4 SWAP1 PUSH3 0x5B3 JUMP JUMPDEST SWAP1 PUSH1 0x0 MSTORE PUSH1 0x20 PUSH1 0x0 KECCAK256 SWAP1 PUSH1 0x1F ADD PUSH1 0x20 SWAP1 DIV DUP2 ADD SWAP3 DUP3 PUSH3 0x518 JUMPI PUSH1 0x0 DUP6 SSTORE PUSH3 0x563 JUMP JUMPDEST DUP3 PUSH1 0x1F LT PUSH3 0x533 JUMPI DUP1 MLOAD PUSH1 0xFF NOT AND DUP4 DUP1 ADD OR DUP6 SSTORE PUSH3 0x563 JUMP JUMPDEST DUP3 DUP1 ADD PUSH1 0x1 ADD DUP6 SSTORE DUP3 ISZERO PUSH3 0x563 JUMPI SWAP2 DUP3 ADD JUMPDEST DUP3 DUP2 GT ISZERO PUSH3 0x563 JUMPI DUP3 MLOAD DUP3 SSTORE SWAP2 PUSH1 0x20 ADD SWAP2 SWAP1 PUSH1 0x1 ADD SWAP1 PUSH3 0x546 JUMP JUMPDEST POP PUSH3 0x571 SWAP3 SWAP2 POP PUSH3 0x575 JUMP JUMPDEST POP SWAP1 JUMP JUMPDEST JUMPDEST DUP1 DUP3 GT ISZERO PUSH3 0x571 JUMPI PUSH1 0x0 DUP2 SSTORE PUSH1 0x1 ADD PUSH3 0x576 JUMP JUMPDEST PUSH1 0x0 DUP3 NOT DUP3 GT ISZERO PUSH3 0x5AE JUMPI PUSH4 0x4E487B71 PUSH1 0xE0 SHL PUSH1 0x0 MSTORE PUSH1 0x11 PUSH1 0x4 MSTORE PUSH1 0x24 PUSH1 0x0 REVERT JUMPDEST POP ADD SWAP1 JUMP JUMPDEST PUSH1 0x1 DUP2 DUP2 SHR SWAP1 DUP3 AND DUP1 PUSH3 0x5C8 JUMPI PUSH1 0x7F DUP3 AND SWAP2 POP JUMPDEST PUSH1 0x20 DUP3 LT DUP2 EQ ISZERO PUSH3 0x5EA JUMPI PUSH4 0x4E487B71 PUSH1 0xE0 SHL PUSH1 0x0 MSTORE PUSH1 0x22 PUSH1 0x4 MSTORE PUSH1 0x24 PUSH1 0x0 REVERT JUMPDEST POP SWAP2 SWAP1 POP JUMP JUMPDEST PUSH2 0x5C19 DUP1 PUSH3 0x600 PUSH1 0x0 CODECOPY PUSH1 0x0 RETURN INVALID PUSH1 0x80 PUSH1 0x40 MSTORE PUSH1 0x4 CALLDATASIZE LT PUSH2 0x4CE JUMPI PUSH1 0x0 CALLDATALOAD PUSH1 0xE0 SHR DUP1 PUSH4 0x7D8E9615 GT PUSH2 0x276 JUMPI DUP1 PUSH4 0xA4F4A765 GT PUSH2 0x14F JUMPI DUP1 PUSH4 0xDD62ED3E GT PUSH2 0xC1 JUMPI DUP1 PUSH4 0xF2FDE38B GT PUSH2 0x85 JUMPI DUP1 PUSH4 0xF2FDE38B EQ PUSH2 0xF01 JUMPI DUP1 PUSH4 0xF4762FD6 EQ PUSH2 0xF21 JUMPI DUP1 PUSH4 0xF98080C0 EQ PUSH2 0xF36 JUMPI DUP1 PUSH4 0xF9F92BE4 EQ PUSH2 0xF6E JUMPI DUP1 PUSH4 0xFAFA4489 EQ PUSH2 0xF8E JUMPI DUP1 PUSH4 0xFB25C120 EQ PUSH2 0xFB0 JUMPI PUSH1 0x0 DUP1 REVERT JUMPDEST DUP1 PUSH4 0xDD62ED3E EQ PUSH2 0xE50 JUMPI DUP1 PUSH4 0xDF6F6630 EQ PUSH2 0xE96 JUMPI DUP1 PUSH4 0xE9FD5862 EQ PUSH2 0xEB6 JUMPI DUP1 PUSH4 0xEDAE876F EQ PUSH2 0xECC JUMPI DUP1 PUSH4 0xF1A3DA22 EQ PUSH2 0xEEC JUMPI PUSH1 0x0 DUP1 REVERT JUMPDEST DUP1 PUSH4 0xB29AD50A GT PUSH2 0x113 JUMPI DUP1 PUSH4 0xB29AD50A EQ PUSH2 0xD8A JUMPI DUP1 PUSH4 0xBB922014 EQ PUSH2 0xD9F JUMPI DUP1 PUSH4 0xC1316EB6 EQ PUSH2 0xDD8 JUMPI DUP1 PUSH4 0xC851CC32 EQ PUSH2 0xDF8 JUMPI DUP1 PUSH4 0xC9574975 EQ PUSH2 0xE18 JUMPI DUP1 PUSH4 0xD9324079 EQ PUSH2 0xE3A JUMPI PUSH1 0x0 DUP1 REVERT JUMPDEST DUP1 PUSH4 0xA4F4A765 EQ PUSH2 0xCDA JUMPI DUP1 PUSH4 0xA607494A EQ PUSH2 0xCFA JUMPI DUP1 PUSH4 0xA9059CBB EQ PUSH2 0xD1A JUMPI DUP1 PUSH4 0xAE7E1D7A EQ PUSH2 0xD3A JUMPI DUP1 PUSH4 0xAF10E03E EQ PUSH2 0xD6A JUMPI PUSH1 0x0 DUP1 REVERT JUMPDEST DUP1 PUSH4 0x982CEEB7 GT PUSH2 0x1E8 JUMPI DUP1 PUSH4 0x9D93598E GT PUSH2 0x1AC JUMPI DUP1 PUSH4 0x9D93598E EQ PUSH2 0xC19 JUMPI DUP1 PUSH4 0x9F531156 EQ PUSH2 0xC39 JUMPI DUP1 PUSH4 0xA17252A4 EQ PUSH2 0xC59 JUMPI DUP1 PUSH4 0xA347511A EQ PUSH2 0xC79 JUMPI DUP1 PUSH4 0xA37F4EA9 EQ PUSH2 0xC9A JUMPI DUP1 PUSH4 0xA457C2D7 EQ PUSH2 0xCBA JUMPI PUSH1 0x0 DUP1 REVERT JUMPDEST DUP1 PUSH4 0x982CEEB7 EQ PUSH2 0xB85 JUMPI DUP1 PUSH4 0x9850D32B EQ PUSH2 0xB9B JUMPI DUP1 PUSH4 0x986D6142 EQ PUSH2 0xBB9 JUMPI DUP1 PUSH4 0x9B19251A EQ PUSH2 0xBD9 JUMPI DUP1 PUSH4 0x9B96EECE EQ PUSH2 0xBF9 JUMPI PUSH1 0x0 DUP1 REVERT JUMPDEST DUP1 PUSH4 0x8DA5CB5B GT PUSH2 0x23A JUMPI DUP1 PUSH4 0x8DA5CB5B EQ PUSH2 0xAED JUMPI DUP1 PUSH4 0x8EFD5E3B EQ PUSH2 0xB0B JUMPI DUP1 PUSH4 0x8F5949F9 EQ PUSH2 0xB2B JUMPI DUP1 PUSH4 0x8FDA356D EQ PUSH2 0xB45 JUMPI DUP1 PUSH4 0x91EE5864 EQ PUSH2 0xB5A JUMPI DUP1 PUSH4 0x95D89B41 EQ PUSH2 0xB70 JUMPI PUSH1 0x0 DUP1 REVERT JUMPDEST DUP1 PUSH4 0x7D8E9615 EQ PUSH2 0xA35 JUMPI DUP1 PUSH4 0x8053575B EQ PUSH2 0xA55 JUMPI DUP1 PUSH4 0x808A5457 EQ PUSH2 0xA8E JUMPI DUP1 PUSH4 0x88BCE123 EQ PUSH2 0xAAC JUMPI DUP1 PUSH4 0x8ABA4659 EQ PUSH2 0xACD JUMPI PUSH1 0x0 DUP1 REVERT JUMPDEST DUP1 PUSH4 0x313CE567 GT PUSH2 0x3A8 JUMPI DUP1 PUSH4 0x5A96CDD7 GT PUSH2 0x31A JUMPI DUP1 PUSH4 0x6E1E9349 GT PUSH2 0x2DE JUMPI DUP1 PUSH4 0x6E1E9349 EQ PUSH2 0x98C JUMPI DUP1 PUSH4 0x70A08231 EQ PUSH2 0x994 JUMPI DUP1 PUSH4 0x715018A6 EQ PUSH2 0x9CA JUMPI DUP1 PUSH4 0x737DC9BD EQ PUSH2 0x9DF JUMPI DUP1 PUSH4 0x73B002A5 EQ PUSH2 0x9FF JUMPI DUP1 PUSH4 0x7897AF86 EQ PUSH2 0xA15 JUMPI PUSH1 0x0 DUP1 REVERT JUMPDEST DUP1 PUSH4 0x5A96CDD7 EQ PUSH2 0x8F7 JUMPI DUP1 PUSH4 0x626BB274 EQ PUSH2 0x917 JUMPI DUP1 PUSH4 0x645830B4 EQ PUSH2 0x92D JUMPI DUP1 PUSH4 0x653465BF EQ PUSH2 0x94D JUMPI DUP1 PUSH4 0x69372B30 EQ PUSH2 0x96C JUMPI PUSH1 0x0 DUP1 REVERT JUMPDEST DUP1 PUSH4 0x437F660E GT PUSH2 0x36C JUMPI DUP1 PUSH4 0x437F660E EQ PUSH2 0x84D JUMPI DUP1 PUSH4 0x4AD1EB81 EQ PUSH2 0x862 JUMPI DUP1 PUSH4 0x506EE100 EQ PUSH2 0x882 JUMPI DUP1 PUSH4 0x53A54511 EQ PUSH2 0x897 JUMPI DUP1 PUSH4 0x54613450 EQ PUSH2 0x8B7 JUMPI DUP1 PUSH4 0x5958621E EQ PUSH2 0x8D7 JUMPI PUSH1 0x0 DUP1 REVERT JUMPDEST DUP1 PUSH4 0x313CE567 EQ PUSH2 0x7B1 JUMPI DUP1 PUSH4 0x318913FB EQ PUSH2 0x7CD JUMPI DUP1 PUSH4 0x370F0A60 EQ PUSH2 0x7ED JUMPI DUP1 PUSH4 0x39509351 EQ PUSH2 0x80D JUMPI DUP1 PUSH4 0x40C10F19 EQ PUSH2 0x82D JUMPI PUSH1 0x0 DUP1 REVERT JUMPDEST DUP1 PUSH4 0x18160DDD GT PUSH2 0x441 JUMPI DUP1 PUSH4 0x239EB211 GT PUSH2 0x405 JUMPI DUP1 PUSH4 0x239EB211 EQ PUSH2 0x71C JUMPI DUP1 PUSH4 0x23B872DD EQ PUSH2 0x731 JUMPI DUP1 PUSH4 0x2A83759B EQ PUSH2 0x751 JUMPI DUP1 PUSH4 0x2B112E49 EQ PUSH2 0x766 JUMPI DUP1 PUSH4 0x2B714147 EQ PUSH2 0x77B JUMPI DUP1 PUSH4 0x3071FED2 EQ PUSH2 0x791 JUMPI PUSH1 0x0 DUP1 REVERT JUMPDEST DUP1 PUSH4 0x18160DDD EQ PUSH2 0x68C JUMPI DUP1 PUSH4 0x1AC818A1 EQ PUSH2 0x6A1 JUMPI DUP1 PUSH4 0x1B611111 EQ PUSH2 0x6D1 JUMPI DUP1 PUSH4 0x1D5E3FE5 EQ PUSH2 0x6E6 JUMPI DUP1 PUSH4 0x1F53AC02 EQ PUSH2 0x6FC JUMPI PUSH1 0x0 DUP1 REVERT JUMPDEST DUP1 PUSH4 0x6FDDE03 GT PUSH2 0x493 JUMPI DUP1 PUSH4 0x6FDDE03 EQ PUSH2 0x5AE JUMPI DUP1 PUSH4 0x95EA7B3 EQ PUSH2 0x5D0 JUMPI DUP1 PUSH4 0xCD84DC6 EQ PUSH2 0x5F0 JUMPI DUP1 PUSH4 0xD38FFCD EQ PUSH2 0x628 JUMPI DUP1 PUSH4 0x11A63E17 EQ PUSH2 0x64A JUMPI DUP1 PUSH4 0x13EA5D29 EQ PUSH2 0x66A JUMPI PUSH1 0x0 DUP1 REVERT JUMPDEST DUP1 PUSH3 0x5D1AFC EQ PUSH2 0x4DA JUMPI DUP1 PUSH4 0x181BB78 EQ PUSH2 0x510 JUMPI DUP1 PUSH4 0x1BBBA4D EQ PUSH2 0x546 JUMPI DUP1 PUSH4 0x3FCDBDF EQ PUSH2 0x568 JUMPI DUP1 PUSH4 0x44E0EA2 EQ PUSH2 0x58A JUMPI PUSH1 0x0 DUP1 REVERT JUMPDEST CALLDATASIZE PUSH2 0x4D5 JUMPI STOP JUMPDEST PUSH1 0x0 DUP1 REVERT JUMPDEST CALLVALUE DUP1 ISZERO PUSH2 0x4E6 JUMPI PUSH1 0x0 DUP1 REVERT JUMPDEST POP PUSH1 0x8 SLOAD PUSH2 0x4FB SWAP1 PUSH1 0x1 PUSH1 0xF0 SHL SWAP1 DIV PUSH1 0xFF AND DUP2 JUMP JUMPDEST PUSH1 0x40 MLOAD SWAP1 ISZERO ISZERO DUP2 MSTORE PUSH1 0x20 ADD JUMPDEST PUSH1 0x40 MLOAD DUP1 SWAP2 SUB SWAP1 RETURN JUMPDEST CALLVALUE DUP1 ISZERO PUSH2 0x51C JUMPI PUSH1 0x0 DUP1 REVERT JUMPDEST POP PUSH1 0x12 SLOAD PUSH2 0x533 SWAP1 PUSH5 0x100000000 SWAP1 DIV PUSH2 0xFFFF AND DUP2 JUMP JUMPDEST PUSH1 0x40 MLOAD PUSH2 0xFFFF SWAP1 SWAP2 AND DUP2 MSTORE PUSH1 0x20 ADD PUSH2 0x507 JUMP JUMPDEST CALLVALUE DUP1 ISZERO PUSH2 0x552 JUMPI PUSH1 0x0 DUP1 REVERT JUMPDEST POP PUSH1 0x8 SLOAD PUSH2 0x533 SWAP1 PUSH1 0x1 PUSH1 0xA0 SHL SWAP1 DIV PUSH2 0xFFFF AND DUP2 JUMP JUMPDEST CALLVALUE DUP1 ISZERO PUSH2 0x574 JUMPI PUSH1 0x0 DUP1 REVERT JUMPDEST POP PUSH1 0x8 SLOAD PUSH2 0x533 SWAP1 PUSH1 0x1 PUSH1 0xC0 SHL SWAP1 DIV PUSH2 0xFFFF AND DUP2 JUMP JUMPDEST CALLVALUE DUP1 ISZERO PUSH2 0x596 JUMPI PUSH1 0x0 DUP1 REVERT JUMPDEST POP PUSH2 0x5A0 PUSH1 0x11 SLOAD DUP2 JUMP JUMPDEST PUSH1 0x40 MLOAD SWAP1 DUP2 MSTORE PUSH1 0x20 ADD PUSH2 0x507 JUMP JUMPDEST CALLVALUE DUP1 ISZERO PUSH2 0x5BA JUMPI PUSH1 0x0 DUP1 REVERT JUMPDEST POP PUSH2 0x5C3 PUSH2 0xFD0 JUMP JUMPDEST PUSH1 0x40 MLOAD PUSH2 0x507 SWAP2 SWAP1 PUSH2 0x596A JUMP JUMPDEST CALLVALUE DUP1 ISZERO PUSH2 0x5DC JUMPI PUSH1 0x0 DUP1 REVERT JUMPDEST POP PUSH2 0x4FB PUSH2 0x5EB CALLDATASIZE PUSH1 0x4 PUSH2 0x5718 JUMP JUMPDEST PUSH2 0x1062 JUMP JUMPDEST CALLVALUE DUP1 ISZERO PUSH2 0x5FC JUMPI PUSH1 0x0 DUP1 REVERT JUMPDEST POP PUSH1 0x19 SLOAD PUSH2 0x610 SWAP1 PUSH1 0x1 PUSH1 0x1 PUSH1 0xA0 SHL SUB AND DUP2 JUMP JUMPDEST PUSH1 0x40 MLOAD PUSH1 0x1 PUSH1 0x1 PUSH1 0xA0 SHL SUB SWAP1 SWAP2 AND DUP2 MSTORE PUSH1 0x20 ADD PUSH2 0x507 JUMP JUMPDEST CALLVALUE DUP1 ISZERO PUSH2 0x634 JUMPI PUSH1 0x0 DUP1 REVERT JUMPDEST POP PUSH1 0x8 SLOAD PUSH2 0x533 SWAP1 PUSH1 0x1 PUSH1 0xE0 SHL SWAP1 DIV PUSH2 0xFFFF AND DUP2 JUMP JUMPDEST CALLVALUE DUP1 ISZERO PUSH2 0x656 JUMPI PUSH1 0x0 DUP1 REVERT JUMPDEST POP PUSH1 0xA SLOAD PUSH2 0x610 SWAP1 PUSH1 0x1 PUSH1 0x1 PUSH1 0xA0 SHL SUB AND DUP2 JUMP JUMPDEST CALLVALUE DUP1 ISZERO PUSH2 0x676 JUMPI PUSH1 0x0 DUP1 REVERT JUMPDEST POP PUSH2 0x68A PUSH2 0x685 CALLDATASIZE PUSH1 0x4 PUSH2 0x5664 JUMP JUMPDEST PUSH2 0x1078 JUMP JUMPDEST STOP JUMPDEST CALLVALUE DUP1 ISZERO PUSH2 0x698 JUMPI PUSH1 0x0 DUP1 REVERT JUMPDEST POP PUSH1 0x2 SLOAD PUSH2 0x5A0 JUMP JUMPDEST CALLVALUE DUP1 ISZERO PUSH2 0x6AD JUMPI PUSH1 0x0 DUP1 REVERT JUMPDEST POP PUSH2 0x4FB PUSH2 0x6BC CALLDATASIZE PUSH1 0x4 PUSH2 0x5664 JUMP JUMPDEST PUSH1 0x10 PUSH1 0x20 MSTORE PUSH1 0x0 SWAP1 DUP2 MSTORE PUSH1 0x40 SWAP1 KECCAK256 SLOAD PUSH1 0xFF AND DUP2 JUMP JUMPDEST CALLVALUE DUP1 ISZERO PUSH2 0x6DD JUMPI PUSH1 0x0 DUP1 REVERT JUMPDEST POP PUSH2 0x68A PUSH2 0x12B2 JUMP JUMPDEST CALLVALUE DUP1 ISZERO PUSH2 0x6F2 JUMPI PUSH1 0x0 DUP1 REVERT JUMPDEST POP PUSH2 0x5A0 PUSH1 0x13 SLOAD DUP2 JUMP JUMPDEST CALLVALUE DUP1 ISZERO PUSH2 0x708 JUMPI PUSH1 0x0 DUP1 REVERT JUMPDEST POP PUSH2 0x68A PUSH2 0x717 CALLDATASIZE PUSH1 0x4 PUSH2 0x5664 JUMP JUMPDEST PUSH2 0x1384 JUMP JUMPDEST CALLVALUE DUP1 ISZERO PUSH2 0x728 JUMPI PUSH1 0x0 DUP1 REVERT JUMPDEST POP PUSH2 0x5A0 PUSH2 0x146D JUMP JUMPDEST CALLVALUE DUP1 ISZERO PUSH2 0x73D JUMPI PUSH1 0x0 DUP1 REVERT JUMPDEST POP PUSH2 0x4FB PUSH2 0x74C CALLDATASIZE PUSH1 0x4 PUSH2 0x56D7 JUMP JUMPDEST PUSH2 0x14F5 JUMP JUMPDEST CALLVALUE DUP1 ISZERO PUSH2 0x75D JUMPI PUSH1 0x0 DUP1 REVERT JUMPDEST POP PUSH2 0x68A PUSH2 0x159F JUMP JUMPDEST CALLVALUE DUP1 ISZERO PUSH2 0x772 JUMPI PUSH1 0x0 DUP1 REVERT JUMPDEST POP PUSH2 0x5A0 PUSH2 0x1634 JUMP JUMPDEST CALLVALUE DUP1 ISZERO PUSH2 0x787 JUMPI PUSH1 0x0 DUP1 REVERT JUMPDEST POP PUSH2 0x5A0 PUSH1 0x16 SLOAD DUP2 JUMP JUMPDEST CALLVALUE DUP1 ISZERO PUSH2 0x79D JUMPI PUSH1 0x0 DUP1 REVERT JUMPDEST POP PUSH2 0x5A0 PUSH2 0x7AC CALLDATASIZE PUSH1 0x4 PUSH2 0x5664 JUMP JUMPDEST PUSH2 0x165D JUMP JUMPDEST CALLVALUE DUP1 ISZERO PUSH2 0x7BD JUMPI PUSH1 0x0 DUP1 REVERT JUMPDEST POP PUSH1 0x40 MLOAD PUSH1 0x12 DUP2 MSTORE PUSH1 0x20 ADD PUSH2 0x507 JUMP JUMPDEST CALLVALUE DUP1 ISZERO PUSH2 0x7D9 JUMPI PUSH1 0x0 DUP1 REVERT JUMPDEST POP PUSH2 0x4FB PUSH2 0x7E8 CALLDATASIZE PUSH1 0x4 PUSH2 0x5664 JUMP JUMPDEST PUSH2 0x177F JUMP JUMPDEST CALLVALUE DUP1 ISZERO PUSH2 0x7F9 JUMPI PUSH1 0x0 DUP1 REVERT JUMPDEST POP PUSH2 0x68A PUSH2 0x808 CALLDATASIZE PUSH1 0x4 PUSH2 0x5664 JUMP JUMPDEST PUSH2 0x17F2 JUMP JUMPDEST CALLVALUE DUP1 ISZERO PUSH2 0x819 JUMPI PUSH1 0x0 DUP1 REVERT JUMPDEST POP PUSH2 0x4FB PUSH2 0x828 CALLDATASIZE PUSH1 0x4 PUSH2 0x5718 JUMP JUMPDEST PUSH2 0x187C JUMP JUMPDEST CALLVALUE DUP1 ISZERO PUSH2 0x839 JUMPI PUSH1 0x0 DUP1 REVERT JUMPDEST POP PUSH2 0x68A PUSH2 0x848 CALLDATASIZE PUSH1 0x4 PUSH2 0x5718 JUMP JUMPDEST PUSH2 0x18B8 JUMP JUMPDEST CALLVALUE DUP1 ISZERO PUSH2 0x859 JUMPI PUSH1 0x0 DUP1 REVERT JUMPDEST POP PUSH2 0x68A PUSH2 0x1985 JUMP JUMPDEST CALLVALUE DUP1 ISZERO PUSH2 0x86E JUMPI PUSH1 0x0 DUP1 REVERT JUMPDEST POP PUSH2 0x68A PUSH2 0x87D CALLDATASIZE PUSH1 0x4 PUSH2 0x5664 JUMP JUMPDEST PUSH2 0x1A00 JUMP JUMPDEST CALLVALUE DUP1 ISZERO PUSH2 0x88E JUMPI PUSH1 0x0 DUP1 REVERT JUMPDEST POP PUSH2 0x610 PUSH2 0x1A6F JUMP JUMPDEST CALLVALUE DUP1 ISZERO PUSH2 0x8A3 JUMPI PUSH1 0x0 DUP1 REVERT JUMPDEST POP PUSH2 0x68A PUSH2 0x8B2 CALLDATASIZE PUSH1 0x4 PUSH2 0x5664 JUMP JUMPDEST PUSH2 0x1B88 JUMP JUMPDEST CALLVALUE DUP1 ISZERO PUSH2 0x8C3 JUMPI PUSH1 0x0 DUP1 REVERT JUMPDEST POP PUSH2 0x68A PUSH2 0x8D2 CALLDATASIZE PUSH1 0x4 PUSH2 0x5664 JUMP JUMPDEST PUSH2 0x1BF7 JUMP JUMPDEST CALLVALUE DUP1 ISZERO PUSH2 0x8E3 JUMPI PUSH1 0x0 DUP1 REVERT JUMPDEST POP PUSH2 0x68A PUSH2 0x8F2 CALLDATASIZE PUSH1 0x4 PUSH2 0x5664 JUMP JUMPDEST PUSH2 0x1D64 JUMP JUMPDEST CALLVALUE DUP1 ISZERO PUSH2 0x903 JUMPI PUSH1 0x0 DUP1 REVERT JUMPDEST POP PUSH2 0x68A PUSH2 0x912 CALLDATASIZE PUSH1 0x4 PUSH2 0x5664 JUMP JUMPDEST PUSH2 0x1E4D JUMP JUMPDEST CALLVALUE DUP1 ISZERO PUSH2 0x923 JUMPI PUSH1 0x0 DUP1 REVERT JUMPDEST POP PUSH2 0x5A0 PUSH1 0x17 SLOAD DUP2 JUMP JUMPDEST CALLVALUE DUP1 ISZERO PUSH2 0x939 JUMPI PUSH1 0x0 DUP1 REVERT JUMPDEST POP PUSH1 0xD SLOAD PUSH2 0x610 SWAP1 PUSH1 0x1 PUSH1 0x1 PUSH1 0xA0 SHL SUB AND DUP2 JUMP JUMPDEST CALLVALUE DUP1 ISZERO PUSH2 0x959 JUMPI PUSH1 0x0 DUP1 REVERT JUMPDEST POP PUSH1 0x12 SLOAD PUSH2 0x4FB SWAP1 PUSH2 0x100 SWAP1 DIV PUSH1 0xFF AND DUP2 JUMP JUMPDEST CALLVALUE DUP1 ISZERO PUSH2 0x978 JUMPI PUSH1 0x0 DUP1 REVERT JUMPDEST POP PUSH2 0x4FB PUSH2 0x987 CALLDATASIZE PUSH1 0x4 PUSH2 0x5875 JUMP JUMPDEST PUSH2 0x1F39 JUMP JUMPDEST PUSH2 0x68A PUSH2 0x1F5A JUMP JUMPDEST CALLVALUE DUP1 ISZERO PUSH2 0x9A0 JUMPI PUSH1 0x0 DUP1 REVERT JUMPDEST POP PUSH2 0x5A0 PUSH2 0x9AF CALLDATASIZE PUSH1 0x4 PUSH2 0x5664 JUMP JUMPDEST PUSH1 0x1 PUSH1 0x1 PUSH1 0xA0 SHL SUB AND PUSH1 0x0 SWAP1 DUP2 MSTORE PUSH1 0x20 DUP2 SWAP1 MSTORE PUSH1 0x40 SWAP1 KECCAK256 SLOAD SWAP1 JUMP JUMPDEST CALLVALUE DUP1 ISZERO PUSH2 0x9D6 JUMPI PUSH1 0x0 DUP1 REVERT JUMPDEST POP PUSH2 0x68A PUSH2 0x214F JUMP JUMPDEST CALLVALUE DUP1 ISZERO PUSH2 0x9EB JUMPI PUSH1 0x0 DUP1 REVERT JUMPDEST POP PUSH2 0x68A PUSH2 0x9FA CALLDATASIZE PUSH1 0x4 PUSH2 0x5832 JUMP JUMPDEST PUSH2 0x2183 JUMP JUMPDEST CALLVALUE DUP1 ISZERO PUSH2 0xA0B JUMPI PUSH1 0x0 DUP1 REVERT JUMPDEST POP PUSH2 0x5A0 PUSH1 0x18 SLOAD DUP2 JUMP JUMPDEST CALLVALUE DUP1 ISZERO PUSH2 0xA21 JUMPI PUSH1 0x0 DUP1 REVERT JUMPDEST POP PUSH2 0x68A PUSH2 0xA30 CALLDATASIZE PUSH1 0x4 PUSH2 0x5664 JUMP JUMPDEST PUSH2 0x23CD JUMP JUMPDEST CALLVALUE DUP1 ISZERO PUSH2 0xA41 JUMPI PUSH1 0x0 DUP1 REVERT JUMPDEST POP PUSH2 0x68A PUSH2 0xA50 CALLDATASIZE PUSH1 0x4 PUSH2 0x5817 JUMP JUMPDEST PUSH2 0x243F JUMP JUMPDEST CALLVALUE DUP1 ISZERO PUSH2 0xA61 JUMPI PUSH1 0x0 DUP1 REVERT JUMPDEST POP PUSH2 0x4FB PUSH2 0xA70 CALLDATASIZE PUSH1 0x4 PUSH2 0x5664 JUMP JUMPDEST PUSH1 0x1 PUSH1 0x1 PUSH1 0xA0 SHL SUB AND PUSH1 0x0 SWAP1 DUP2 MSTORE PUSH1 0x10 PUSH1 0x20 MSTORE PUSH1 0x40 SWAP1 KECCAK256 SLOAD PUSH1 0xFF AND SWAP1 JUMP JUMPDEST CALLVALUE DUP1 ISZERO PUSH2 0xA9A JUMPI PUSH1 0x0 DUP1 REVERT JUMPDEST POP PUSH1 0xD SLOAD PUSH1 0x1 PUSH1 0x1 PUSH1 0xA0 SHL SUB AND PUSH2 0x610 JUMP JUMPDEST CALLVALUE DUP1 ISZERO PUSH2 0xAB8 JUMPI PUSH1 0x0 DUP1 REVERT JUMPDEST POP PUSH1 0x12 SLOAD PUSH2 0x533 SWAP1 PUSH3 0x10000 SWAP1 DIV PUSH2 0xFFFF AND DUP2 JUMP JUMPDEST CALLVALUE DUP1 ISZERO PUSH2 0xAD9 JUMPI PUSH1 0x0 DUP1 REVERT JUMPDEST POP PUSH2 0x68A PUSH2 0xAE8 CALLDATASIZE PUSH1 0x4 PUSH2 0x5875 JUMP JUMPDEST PUSH2 0x2687 JUMP JUMPDEST CALLVALUE DUP1 ISZERO PUSH2 0xAF9 JUMPI PUSH1 0x0 DUP1 REVERT JUMPDEST POP PUSH1 0x6 SLOAD PUSH1 0x1 PUSH1 0x1 PUSH1 0xA0 SHL SUB AND PUSH2 0x610 JUMP JUMPDEST CALLVALUE DUP1 ISZERO PUSH2 0xB17 JUMPI PUSH1 0x0 DUP1 REVERT JUMPDEST POP PUSH2 0x68A PUSH2 0xB26 CALLDATASIZE PUSH1 0x4 PUSH2 0x5875 JUMP JUMPDEST PUSH2 0x270E JUMP JUMPDEST CALLVALUE DUP1 ISZERO PUSH2 0xB37 JUMPI PUSH1 0x0 DUP1 REVERT JUMPDEST POP PUSH1 0x12 SLOAD PUSH2 0x4FB SWAP1 PUSH1 0xFF AND DUP2 JUMP JUMPDEST CALLVALUE DUP1 ISZERO PUSH2 0xB51 JUMPI PUSH1 0x0 DUP1 REVERT JUMPDEST POP PUSH2 0x68A PUSH2 0x2761 JUMP JUMPDEST CALLVALUE DUP1 ISZERO PUSH2 0xB66 JUMPI PUSH1 0x0 DUP1 REVERT JUMPDEST POP PUSH2 0x5A0 PUSH1 0x15 SLOAD DUP2 JUMP JUMPDEST CALLVALUE DUP1 ISZERO PUSH2 0xB7C JUMPI PUSH1 0x0 DUP1 REVERT JUMPDEST POP PUSH2 0x5C3 PUSH2 0x27BE JUMP JUMPDEST CALLVALUE DUP1 ISZERO PUSH2 0xB91 JUMPI PUSH1 0x0 DUP1 REVERT JUMPDEST POP PUSH2 0x5A0 PUSH1 0x9 SLOAD DUP2 JUMP JUMPDEST CALLVALUE DUP1 ISZERO PUSH2 0xBA7 JUMPI PUSH1 0x0 DUP1 REVERT JUMPDEST POP PUSH1 0x8 SLOAD PUSH1 0x1 PUSH1 0x1 PUSH1 0xA0 SHL SUB AND PUSH2 0x610 JUMP JUMPDEST CALLVALUE DUP1 ISZERO PUSH2 0xBC5 JUMPI PUSH1 0x0 DUP1 REVERT JUMPDEST POP PUSH2 0x68A PUSH2 0xBD4 CALLDATASIZE PUSH1 0x4 PUSH2 0x5664 JUMP JUMPDEST PUSH2 0x27CD JUMP JUMPDEST CALLVALUE DUP1 ISZERO PUSH2 0xBE5 JUMPI PUSH1 0x0 DUP1 REVERT JUMPDEST POP PUSH2 0x68A PUSH2 0xBF4 CALLDATASIZE PUSH1 0x4 PUSH2 0x5664 JUMP JUMPDEST PUSH2 0x283F JUMP JUMPDEST CALLVALUE DUP1 ISZERO PUSH2 0xC05 JUMPI PUSH1 0x0 DUP1 REVERT JUMPDEST POP PUSH2 0x5A0 PUSH2 0xC14 CALLDATASIZE PUSH1 0x4 PUSH2 0x5664 JUMP JUMPDEST PUSH2 0x28C6 JUMP JUMPDEST CALLVALUE DUP1 ISZERO PUSH2 0xC25 JUMPI PUSH1 0x0 DUP1 REVERT JUMPDEST POP PUSH2 0x68A PUSH2 0xC34 CALLDATASIZE PUSH1 0x4 PUSH2 0x5664 JUMP JUMPDEST PUSH2 0x2976 JUMP JUMPDEST CALLVALUE DUP1 ISZERO PUSH2 0xC45 JUMPI PUSH1 0x0 DUP1 REVERT JUMPDEST POP PUSH2 0x68A PUSH2 0xC54 CALLDATASIZE PUSH1 0x4 PUSH2 0x5766 JUMP JUMPDEST PUSH2 0x2DC9 JUMP JUMPDEST CALLVALUE DUP1 ISZERO PUSH2 0xC65 JUMPI PUSH1 0x0 DUP1 REVERT JUMPDEST POP PUSH2 0x68A PUSH2 0xC74 CALLDATASIZE PUSH1 0x4 PUSH2 0x5664 JUMP JUMPDEST PUSH2 0x2E3C JUMP JUMPDEST CALLVALUE DUP1 ISZERO PUSH2 0xC85 JUMPI PUSH1 0x0 DUP1 REVERT JUMPDEST POP PUSH1 0x6 SLOAD PUSH2 0x4FB SWAP1 PUSH1 0x1 PUSH1 0xA0 SHL SWAP1 DIV PUSH1 0xFF AND DUP2 JUMP JUMPDEST CALLVALUE DUP1 ISZERO PUSH2 0xCA6 JUMPI PUSH1 0x0 DUP1 REVERT JUMPDEST POP PUSH1 0xB SLOAD PUSH2 0x610 SWAP1 PUSH1 0x1 PUSH1 0x1 PUSH1 0xA0 SHL SUB AND DUP2 JUMP JUMPDEST CALLVALUE DUP1 ISZERO PUSH2 0xCC6 JUMPI PUSH1 0x0 DUP1 REVERT JUMPDEST POP PUSH2 0x4FB PUSH2 0xCD5 CALLDATASIZE PUSH1 0x4 PUSH2 0x5718 JUMP JUMPDEST PUSH2 0x2EC0 JUMP JUMPDEST CALLVALUE DUP1 ISZERO PUSH2 0xCE6 JUMPI PUSH1 0x0 DUP1 REVERT JUMPDEST POP PUSH1 0xC SLOAD PUSH2 0x610 SWAP1 PUSH1 0x1 PUSH1 0x1 PUSH1 0xA0 SHL SUB AND DUP2 JUMP JUMPDEST CALLVALUE DUP1 ISZERO PUSH2 0xD06 JUMPI PUSH1 0x0 DUP1 REVERT JUMPDEST POP PUSH2 0x68A PUSH2 0xD15 CALLDATASIZE PUSH1 0x4 PUSH2 0x5766 JUMP JUMPDEST PUSH2 0x2F59 JUMP JUMPDEST CALLVALUE DUP1 ISZERO PUSH2 0xD26 JUMPI PUSH1 0x0 DUP1 REVERT JUMPDEST POP PUSH2 0x4FB PUSH2 0xD35 CALLDATASIZE PUSH1 0x4 PUSH2 0x5718 JUMP JUMPDEST PUSH2 0x3036 JUMP JUMPDEST CALLVALUE DUP1 ISZERO PUSH2 0xD46 JUMPI PUSH1 0x0 DUP1 REVERT JUMPDEST POP PUSH2 0x4FB PUSH2 0xD55 CALLDATASIZE PUSH1 0x4 PUSH2 0x5664 JUMP JUMPDEST PUSH1 0xF PUSH1 0x20 MSTORE PUSH1 0x0 SWAP1 DUP2 MSTORE PUSH1 0x40 SWAP1 KECCAK256 SLOAD PUSH1 0xFF AND DUP2 JUMP JUMPDEST CALLVALUE DUP1 ISZERO PUSH2 0xD76 JUMPI PUSH1 0x0 DUP1 REVERT JUMPDEST POP PUSH2 0x68A PUSH2 0xD85 CALLDATASIZE PUSH1 0x4 PUSH2 0x5817 JUMP JUMPDEST PUSH2 0x3043 JUMP JUMPDEST CALLVALUE DUP1 ISZERO PUSH2 0xD96 JUMPI PUSH1 0x0 DUP1 REVERT JUMPDEST POP PUSH2 0x68A PUSH2 0x3326 JUMP JUMPDEST CALLVALUE DUP1 ISZERO PUSH2 0xDAB JUMPI PUSH1 0x0 DUP1 REVERT JUMPDEST POP PUSH2 0x4FB PUSH2 0xDBA CALLDATASIZE PUSH1 0x4 PUSH2 0x5664 JUMP JUMPDEST PUSH1 0x1 PUSH1 0x1 PUSH1 0xA0 SHL SUB AND PUSH1 0x0 SWAP1 DUP2 MSTORE PUSH1 0xF PUSH1 0x20 MSTORE PUSH1 0x40 SWAP1 KECCAK256 SLOAD PUSH1 0xFF AND SWAP1 JUMP JUMPDEST CALLVALUE DUP1 ISZERO PUSH2 0xDE4 JUMPI PUSH1 0x0 DUP1 REVERT JUMPDEST POP PUSH2 0x68A PUSH2 0xDF3 CALLDATASIZE PUSH1 0x4 PUSH2 0x5817 JUMP JUMPDEST PUSH2 0x37A3 JUMP JUMPDEST CALLVALUE DUP1 ISZERO PUSH2 0xE04 JUMPI PUSH1 0x0 DUP1 REVERT JUMPDEST POP PUSH2 0x68A PUSH2 0xE13 CALLDATASIZE PUSH1 0x4 PUSH2 0x5664 JUMP JUMPDEST PUSH2 0x38C2 JUMP JUMPDEST CALLVALUE DUP1 ISZERO PUSH2 0xE24 JUMPI PUSH1 0x0 DUP1 REVERT JUMPDEST POP PUSH1 0x8 SLOAD PUSH2 0x533 SWAP1 PUSH1 0x1 PUSH1 0xD0 SHL SWAP1 DIV PUSH2 0xFFFF AND DUP2 JUMP JUMPDEST CALLVALUE DUP1 ISZERO PUSH2 0xE46 JUMPI PUSH1 0x0 DUP1 REVERT JUMPDEST POP PUSH2 0x533 PUSH2 0x3E8 DUP2 JUMP JUMPDEST CALLVALUE DUP1 ISZERO PUSH2 0xE5C JUMPI PUSH1 0x0 DUP1 REVERT JUMPDEST POP PUSH2 0x5A0 PUSH2 0xE6B CALLDATASIZE PUSH1 0x4 PUSH2 0x569E JUMP JUMPDEST PUSH1 0x1 PUSH1 0x1 PUSH1 0xA0 SHL SUB SWAP2 DUP3 AND PUSH1 0x0 SWAP1 DUP2 MSTORE PUSH1 0x1 PUSH1 0x20 SWAP1 DUP2 MSTORE PUSH1 0x40 DUP1 DUP4 KECCAK256 SWAP4 SWAP1 SWAP5 AND DUP3 MSTORE SWAP2 SWAP1 SWAP2 MSTORE KECCAK256 SLOAD SWAP1 JUMP JUMPDEST CALLVALUE DUP1 ISZERO PUSH2 0xEA2 JUMPI PUSH1 0x0 DUP1 REVERT JUMPDEST POP PUSH2 0x68A PUSH2 0xEB1 CALLDATASIZE PUSH1 0x4 PUSH2 0x5875 JUMP JUMPDEST PUSH2 0x3AC0 JUMP JUMPDEST CALLVALUE DUP1 ISZERO PUSH2 0xEC2 JUMPI PUSH1 0x0 DUP1 REVERT JUMPDEST POP PUSH2 0x5A0 PUSH1 0x14 SLOAD DUP2 JUMP JUMPDEST CALLVALUE DUP1 ISZERO PUSH2 0xED8 JUMPI PUSH1 0x0 DUP1 REVERT JUMPDEST POP PUSH1 0xE SLOAD PUSH2 0x610 SWAP1 PUSH1 0x1 PUSH1 0x1 PUSH1 0xA0 SHL SUB AND DUP2 JUMP JUMPDEST CALLVALUE DUP1 ISZERO PUSH2 0xEF8 JUMPI PUSH1 0x0 DUP1 REVERT JUMPDEST POP PUSH2 0x68A PUSH2 0x3CB7 JUMP JUMPDEST CALLVALUE DUP1 ISZERO PUSH2 0xF0D JUMPI PUSH1 0x0 DUP1 REVERT JUMPDEST POP PUSH2 0x68A PUSH2 0xF1C CALLDATASIZE PUSH1 0x4 PUSH2 0x5664 JUMP JUMPDEST PUSH2 0x3D4B JUMP JUMPDEST CALLVALUE DUP1 ISZERO PUSH2 0xF2D JUMPI PUSH1 0x0 DUP1 REVERT JUMPDEST POP PUSH2 0x68A PUSH2 0x3DE3 JUMP JUMPDEST CALLVALUE DUP1 ISZERO PUSH2 0xF42 JUMPI PUSH1 0x0 DUP1 REVERT JUMPDEST POP PUSH2 0x5A0 PUSH2 0xF51 CALLDATASIZE PUSH1 0x4 PUSH2 0x5766 JUMP JUMPDEST DUP1 MLOAD PUSH1 0x20 DUP2 DUP4 ADD DUP2 ADD DUP1 MLOAD PUSH1 0x7 DUP3 MSTORE SWAP3 DUP3 ADD SWAP2 SWAP1 SWAP4 ADD KECCAK256 SWAP2 MSTORE SLOAD DUP2 JUMP JUMPDEST CALLVALUE DUP1 ISZERO PUSH2 0xF7A JUMPI PUSH1 0x0 DUP1 REVERT JUMPDEST POP PUSH2 0x68A PUSH2 0xF89 CALLDATASIZE PUSH1 0x4 PUSH2 0x5664 JUMP JUMPDEST PUSH2 0x3E6F JUMP JUMPDEST CALLVALUE DUP1 ISZERO PUSH2 0xF9A JUMPI PUSH1 0x0 DUP1 REVERT JUMPDEST POP PUSH1 0x8 SLOAD PUSH2 0x533 SWAP1 PUSH1 0x1 PUSH1 0xB0 SHL SWAP1 DIV PUSH2 0xFFFF AND DUP2 JUMP JUMPDEST CALLVALUE DUP1 ISZERO PUSH2 0xFBC JUMPI PUSH1 0x0 DUP1 REVERT JUMPDEST POP PUSH2 0x68A PUSH2 0xFCB CALLDATASIZE PUSH1 0x4 PUSH2 0x5817 JUMP JUMPDEST PUSH2 0x3F09 JUMP JUMPDEST PUSH1 0x60 PUSH1 0x3 DUP1 SLOAD PUSH2 0xFDF SWAP1 PUSH2 0x5B51 JUMP JUMPDEST DUP1 PUSH1 0x1F ADD PUSH1 0x20 DUP1 SWAP2 DIV MUL PUSH1 0x20 ADD PUSH1 0x40 MLOAD SWAP1 DUP2 ADD PUSH1 0x40 MSTORE DUP1 SWAP3 SWAP2 SWAP1 DUP2 DUP2 MSTORE PUSH1 0x20 ADD DUP3 DUP1 SLOAD PUSH2 0x100B SWAP1 PUSH2 0x5B51 JUMP JUMPDEST DUP1 ISZERO PUSH2 0x1058 JUMPI DUP1 PUSH1 0x1F LT PUSH2 0x102D JUMPI PUSH2 0x100 DUP1 DUP4 SLOAD DIV MUL DUP4 MSTORE SWAP2 PUSH1 0x20 ADD SWAP2 PUSH2 0x1058 JUMP JUMPDEST DUP3 ADD SWAP2 SWAP1 PUSH1 0x0 MSTORE PUSH1 0x20 PUSH1 0x0 KECCAK256 SWAP1 JUMPDEST DUP2 SLOAD DUP2 MSTORE SWAP1 PUSH1 0x1 ADD SWAP1 PUSH1 0x20 ADD DUP1 DUP4 GT PUSH2 0x103B JUMPI DUP3 SWAP1 SUB PUSH1 0x1F AND DUP3 ADD SWAP2 JUMPDEST POP POP POP POP POP SWAP1 POP SWAP1 JUMP JUMPDEST PUSH1 0x0 PUSH2 0x106F CALLER DUP5 DUP5 PUSH2 0x402C JUMP JUMPDEST POP PUSH1 0x1 SWAP3 SWAP2 POP POP JUMP JUMPDEST CALLER PUSH2 0x108B PUSH1 0x6 SLOAD PUSH1 0x1 PUSH1 0x1 PUSH1 0xA0 SHL SUB AND SWAP1 JUMP JUMPDEST PUSH1 0x1 PUSH1 0x1 PUSH1 0xA0 SHL SUB AND EQ DUP1 PUSH2 0x10AA JUMPI POP PUSH1 0x8 SLOAD PUSH1 0x1 PUSH1 0x1 PUSH1 0xA0 SHL SUB AND CALLER EQ JUMPDEST PUSH2 0x10CF JUMPI PUSH1 0x40 MLOAD PUSH3 0x461BCD PUSH1 0xE5 SHL DUP2 MSTORE PUSH1 0x4 ADD PUSH2 0x10C6 SWAP1 PUSH2 0x59FE JUMP JUMPDEST PUSH1 0x40 MLOAD DUP1 SWAP2 SUB SWAP1 REVERT JUMPDEST PUSH1 0x40 DUP1 MLOAD DUP1 DUP3 ADD SWAP1 SWAP2 MSTORE PUSH1 0xA DUP2 MSTORE PUSH10 0x36B0B4B73A30B4B732B9 PUSH1 0xB1 SHL PUSH1 0x20 DUP3 ADD MSTORE PUSH1 0x6 SLOAD PUSH1 0x1 PUSH1 0xA0 SHL SWAP1 DIV PUSH1 0xFF AND ISZERO DUP1 PUSH2 0x1189 JUMPI POP PUSH1 0x7 DUP2 PUSH1 0x40 MLOAD PUSH2 0x1114 SWAP2 SWAP1 PUSH2 0x5919 JUMP JUMPDEST SWAP1 DUP2 MSTORE PUSH1 0x20 ADD PUSH1 0x40 MLOAD DUP1 SWAP2 SUB SWAP1 KECCAK256 SLOAD PUSH1 0x0 EQ ISZERO DUP1 ISZERO PUSH2 0x1151 JUMPI POP TIMESTAMP PUSH1 0x7 DUP3 PUSH1 0x40 MLOAD PUSH2 0x113F SWAP2 SWAP1 PUSH2 0x5919 JUMP JUMPDEST SWAP1 DUP2 MSTORE PUSH1 0x20 ADD PUSH1 0x40 MLOAD DUP1 SWAP2 SUB SWAP1 KECCAK256 SLOAD GT ISZERO JUMPDEST DUP1 ISZERO PUSH2 0x1189 JUMPI POP TIMESTAMP PUSH3 0x15180 PUSH1 0x7 DUP4 PUSH1 0x40 MLOAD PUSH2 0x116D SWAP2 SWAP1 PUSH2 0x5919 JUMP JUMPDEST SWAP1 DUP2 MSTORE PUSH1 0x20 ADD PUSH1 0x40 MLOAD DUP1 SWAP2 SUB SWAP1 KECCAK256 SLOAD PUSH2 0x1186 SWAP2 SWAP1 PUSH2 0x5AB5 JUMP JUMPDEST LT ISZERO JUMPDEST PUSH2 0x11A5 JUMPI PUSH1 0x40 MLOAD PUSH3 0x461BCD PUSH1 0xE5 SHL DUP2 MSTORE PUSH1 0x4 ADD PUSH2 0x10C6 SWAP1 PUSH2 0x59D2 JUMP JUMPDEST PUSH1 0x8 SLOAD PUSH1 0x1 PUSH1 0x1 PUSH1 0xA0 SHL SUB DUP4 DUP2 AND SWAP2 AND EQ DUP1 ISZERO SWAP1 PUSH2 0x11CB JUMPI POP PUSH1 0x1 PUSH1 0x1 PUSH1 0xA0 SHL SUB DUP3 AND ISZERO ISZERO JUMPDEST PUSH2 0x1256 JUMPI PUSH1 0x40 MLOAD PUSH3 0x461BCD PUSH1 0xE5 SHL DUP2 MSTORE PUSH1 0x20 PUSH1 0x4 DUP3 ADD MSTORE PUSH1 0x50 PUSH1 0x24 DUP3 ADD MSTORE PUSH32 0x41424F41543A3A7365744D61696E7461696E65723A204D61696E7461696E6572 PUSH1 0x44 DUP3 ADD MSTORE PUSH32 0x2063616E277420657175616C2070726576696F7573206D61696E7461696E6572 PUSH1 0x64 DUP3 ADD MSTORE PUSH16 0x206F72207A65726F2061646472657373 PUSH1 0x80 SHL PUSH1 0x84 DUP3 ADD MSTORE PUSH1 0xA4 ADD PUSH2 0x10C6 JUMP JUMPDEST PUSH1 0x8 DUP1 SLOAD PUSH1 0x1 PUSH1 0x1 PUSH1 0xA0 SHL SUB DUP5 DUP2 AND PUSH1 0x1 PUSH1 0x1 PUSH1 0xA0 SHL SUB NOT DUP4 AND DUP2 OR SWAP1 SWAP4 SSTORE PUSH1 0x40 MLOAD SWAP2 AND SWAP2 SWAP1 DUP3 SWAP1 PUSH32 0x2F3FFAAAAD93928855C8700645D1A3643E6CCFDD500EFA9FDA048A88F557CF01 SWAP1 PUSH1 0x0 SWAP1 LOG3 POP PUSH2 0x12AE DUP2 PUSH2 0x2DC9 JUMP JUMPDEST POP POP JUMP JUMPDEST CALLER PUSH2 0x12C5 PUSH1 0x6 SLOAD PUSH1 0x1 PUSH1 0x1 PUSH1 0xA0 SHL SUB AND SWAP1 JUMP JUMPDEST PUSH1 0x1 PUSH1 0x1 PUSH1 0xA0 SHL SUB AND EQ DUP1 PUSH2 0x12E4 JUMPI POP PUSH1 0x8 SLOAD PUSH1 0x1 PUSH1 0x1 PUSH1 0xA0 SHL SUB AND CALLER EQ JUMPDEST PUSH2 0x1300 JUMPI PUSH1 0x40 MLOAD PUSH3 0x461BCD PUSH1 0xE5 SHL DUP2 MSTORE PUSH1 0x4 ADD PUSH2 0x10C6 SWAP1 PUSH2 0x59FE JUMP JUMPDEST PUSH1 0x0 SELFBALANCE GT PUSH2 0x1378 JUMPI PUSH1 0x40 DUP1 MLOAD PUSH3 0x461BCD PUSH1 0xE5 SHL DUP2 MSTORE PUSH1 0x20 PUSH1 0x4 DUP3 ADD MSTORE PUSH1 0x24 DUP2 ADD SWAP2 SWAP1 SWAP2 MSTORE PUSH32 0x41424F41543A3A636C61696D457863656564696E674C6971756964697479546F PUSH1 0x44 DUP3 ADD MSTORE PUSH32 0x6B656E42616C616E63653A204E6F20657863656564696E672062616C616E6365 PUSH1 0x64 DUP3 ADD MSTORE PUSH1 0x84 ADD PUSH2 0x10C6 JUMP JUMPDEST PUSH2 0x1382 CALLER SELFBALANCE PUSH2 0x4150 JUMP JUMPDEST JUMP JUMPDEST CALLER PUSH2 0x1397 PUSH1 0x6 SLOAD PUSH1 0x1 PUSH1 0x1 PUSH1 0xA0 SHL SUB AND SWAP1 JUMP JUMPDEST PUSH1 0x1 PUSH1 0x1 PUSH1 0xA0 SHL SUB AND EQ DUP1 PUSH2 0x13B6 JUMPI POP PUSH1 0x8 SLOAD PUSH1 0x1 PUSH1 0x1 PUSH1 0xA0 SHL SUB AND CALLER EQ JUMPDEST PUSH2 0x13D2 JUMPI PUSH1 0x40 MLOAD PUSH3 0x461BCD PUSH1 0xE5 SHL DUP2 MSTORE PUSH1 0x4 ADD PUSH2 0x10C6 SWAP1 PUSH2 0x59FE JUMP JUMPDEST PUSH1 0x1 PUSH1 0x1 PUSH1 0xA0 SHL SUB DUP2 AND PUSH2 0x1443 JUMPI PUSH1 0x40 MLOAD PUSH3 0x461BCD PUSH1 0xE5 SHL DUP2 MSTORE PUSH1 0x20 PUSH1 0x4 DUP3 ADD MSTORE PUSH1 0x32 PUSH1 0x24 DUP3 ADD MSTORE PUSH32 0x41424F41543A3A73657444657657616C6C65743A20416464726573732063616E PUSH1 0x44 DUP3 ADD MSTORE PUSH18 0x2774206265207A65726F2061646472657373 PUSH1 0x70 SHL PUSH1 0x64 DUP3 ADD MSTORE PUSH1 0x84 ADD PUSH2 0x10C6 JUMP JUMPDEST PUSH1 0xA DUP1 SLOAD PUSH1 0x1 PUSH1 0x1 PUSH1 0xA0 SHL SUB NOT AND PUSH1 0x1 PUSH1 0x1 PUSH1 0xA0 SHL SUB DUP4 AND SWAP1 DUP2 OR SWAP1 SWAP2 SSTORE PUSH2 0x146A SWAP1 PUSH2 0x17F2 JUMP JUMPDEST POP JUMP JUMPDEST PUSH1 0x0 PUSH2 0x1477 PUSH2 0x1A6F JUMP JUMPDEST PUSH1 0x40 MLOAD PUSH4 0x70A08231 PUSH1 0xE0 SHL DUP2 MSTORE ADDRESS PUSH1 0x4 DUP3 ADD MSTORE PUSH1 0x1 PUSH1 0x1 PUSH1 0xA0 SHL SUB SWAP2 SWAP1 SWAP2 AND SWAP1 PUSH4 0x70A08231 SWAP1 PUSH1 0x24 ADD PUSH1 0x20 PUSH1 0x40 MLOAD DUP1 DUP4 SUB DUP2 DUP7 DUP1 EXTCODESIZE ISZERO DUP1 ISZERO PUSH2 0x14B8 JUMPI PUSH1 0x0 DUP1 REVERT JUMPDEST POP GAS STATICCALL ISZERO DUP1 ISZERO PUSH2 0x14CC JUMPI RETURNDATASIZE PUSH1 0x0 DUP1 RETURNDATACOPY RETURNDATASIZE PUSH1 0x0 REVERT JUMPDEST POP POP POP POP PUSH1 0x40 MLOAD RETURNDATASIZE PUSH1 0x1F NOT PUSH1 0x1F DUP3 ADD AND DUP3 ADD DUP1 PUSH1 0x40 MSTORE POP DUP2 ADD SWAP1 PUSH2 0x14F0 SWAP2 SWAP1 PUSH2 0x588E JUMP JUMPDEST SWAP1 POP SWAP1 JUMP JUMPDEST PUSH1 0x0 PUSH2 0x1502 DUP5 DUP5 DUP5 PUSH2 0x422F JUMP JUMPDEST PUSH1 0x1 PUSH1 0x1 PUSH1 0xA0 SHL SUB DUP5 AND PUSH1 0x0 SWAP1 DUP2 MSTORE PUSH1 0x1 PUSH1 0x20 SWAP1 DUP2 MSTORE PUSH1 0x40 DUP1 DUP4 KECCAK256 CALLER DUP5 MSTORE SWAP1 SWAP2 MSTORE SWAP1 KECCAK256 SLOAD DUP3 DUP2 LT ISZERO PUSH2 0x1587 JUMPI PUSH1 0x40 MLOAD PUSH3 0x461BCD PUSH1 0xE5 SHL DUP2 MSTORE PUSH1 0x20 PUSH1 0x4 DUP3 ADD MSTORE PUSH1 0x28 PUSH1 0x24 DUP3 ADD MSTORE PUSH32 0x45524332303A207472616E7366657220616D6F756E7420657863656564732061 PUSH1 0x44 DUP3 ADD MSTORE PUSH8 0x6C6C6F77616E6365 PUSH1 0xC0 SHL PUSH1 0x64 DUP3 ADD MSTORE PUSH1 0x84 ADD PUSH2 0x10C6 JUMP JUMPDEST PUSH2 0x1594 DUP6 CALLER DUP6 DUP5 SUB PUSH2 0x402C JUMP JUMPDEST POP PUSH1 0x1 SWAP5 SWAP4 POP POP POP POP JUMP JUMPDEST CALLER PUSH2 0x15B2 PUSH1 0x6 SLOAD PUSH1 0x1 PUSH1 0x1 PUSH1 0xA0 SHL SUB AND SWAP1 JUMP JUMPDEST PUSH1 0x1 PUSH1 0x1 PUSH1 0xA0 SHL SUB AND EQ DUP1 PUSH2 0x15D1 JUMPI POP PUSH1 0x8 SLOAD PUSH1 0x1 PUSH1 0x1 PUSH1 0xA0 SHL SUB AND CALLER EQ JUMPDEST PUSH2 0x15ED JUMPI PUSH1 0x40 MLOAD PUSH3 0x461BCD PUSH1 0xE5 SHL DUP2 MSTORE PUSH1 0x4 ADD PUSH2 0x10C6 SWAP1 PUSH2 0x59FE JUMP JUMPDEST PUSH1 0x12 DUP1 SLOAD PUSH2 0xFFFF NOT AND PUSH1 0x1 OR SWAP1 DUP2 SWAP1 SSTORE PUSH1 0x40 MLOAD PUSH2 0x100 SWAP1 SWAP2 DIV PUSH1 0xFF AND ISZERO ISZERO SWAP1 PUSH32 0x4C67D13291F7FE21C52EEE8F752CBC5C7451E593E18093D087403081206FD46C SWAP1 PUSH1 0x0 SWAP1 LOG2 JUMP JUMPDEST PUSH1 0xC SLOAD PUSH1 0x1 PUSH1 0x1 PUSH1 0xA0 SHL SUB AND PUSH1 0x0 SWAP1 DUP2 MSTORE PUSH1 0x20 DUP2 SWAP1 MSTORE PUSH1 0x40 DUP2 KECCAK256 SLOAD PUSH2 0x14F0 SWAP1 PUSH1 0x2 SLOAD JUMPDEST SWAP1 PUSH2 0x4C56 JUMP JUMPDEST PUSH1 0x12 SLOAD PUSH1 0x0 SWAP1 PUSH2 0x100 SWAP1 DIV PUSH1 0xFF AND ISZERO PUSH2 0x1679 JUMPI POP PUSH2 0x2328 SWAP2 SWAP1 POP JUMP JUMPDEST PUSH1 0x0 PUSH2 0x1684 DUP4 PUSH2 0x28C6 JUMP JUMPDEST SWAP1 POP PUSH2 0x168F PUSH1 0x2 SLOAD SWAP1 JUMP JUMPDEST DUP2 GT ISZERO PUSH2 0x16AB JUMPI POP POP PUSH1 0x8 SLOAD PUSH1 0x1 PUSH1 0xB0 SHL SWAP1 DIV PUSH2 0xFFFF AND SWAP2 SWAP1 POP JUMP JUMPDEST PUSH3 0x186A0 PUSH2 0x16B8 PUSH1 0x2 SLOAD SWAP1 JUMP JUMPDEST PUSH2 0x16C2 SWAP2 SWAP1 PUSH2 0x5ACD JUMP JUMPDEST DUP2 LT ISZERO PUSH2 0x16DE JUMPI POP POP PUSH1 0x8 SLOAD PUSH1 0x1 PUSH1 0xA0 SHL SWAP1 DIV PUSH2 0xFFFF AND SWAP2 SWAP1 POP JUMP JUMPDEST PUSH1 0x0 PUSH2 0x16E9 PUSH1 0x2 SLOAD SWAP1 JUMP JUMPDEST PUSH2 0x16F6 DUP4 PUSH3 0x186A0 PUSH2 0x5AEF JUMP JUMPDEST PUSH2 0x1700 SWAP2 SWAP1 PUSH2 0x5ACD JUMP JUMPDEST SWAP1 POP PUSH1 0x64 DUP2 GT ISZERO PUSH2 0x1769 JUMPI PUSH1 0x8 SLOAD PUSH1 0x0 SWAP1 PUSH1 0x64 SWAP1 PUSH2 0x172A SWAP1 DUP5 SWAP1 PUSH1 0x1 PUSH1 0xA0 SHL SWAP1 DIV PUSH2 0xFFFF AND PUSH2 0x5AB5 JUMP JUMPDEST PUSH2 0x1734 SWAP2 SWAP1 PUSH2 0x5B0E JUMP JUMPDEST PUSH1 0x8 SLOAD SWAP1 SWAP2 POP PUSH1 0x1 PUSH1 0xB0 SHL SWAP1 DIV PUSH2 0xFFFF AND DUP2 GT PUSH2 0x1751 JUMPI DUP1 PUSH2 0x1760 JUMP JUMPDEST PUSH1 0x8 SLOAD PUSH1 0x1 PUSH1 0xB0 SHL SWAP1 DIV PUSH2 0xFFFF AND JUMPDEST SWAP6 SWAP5 POP POP POP POP POP JUMP JUMPDEST POP POP PUSH1 0x8 SLOAD PUSH1 0x1 PUSH1 0xA0 SHL SWAP1 DIV PUSH2 0xFFFF AND SWAP3 SWAP2 POP POP JUMP JUMPDEST PUSH1 0x0 CALLER PUSH2 0x1794 PUSH1 0x6 SLOAD PUSH1 0x1 PUSH1 0x1 PUSH1 0xA0 SHL SUB AND SWAP1 JUMP JUMPDEST PUSH1 0x1 PUSH1 0x1 PUSH1 0xA0 SHL SUB AND EQ DUP1 PUSH2 0x17B3 JUMPI POP PUSH1 0x8 SLOAD PUSH1 0x1 PUSH1 0x1 PUSH1 0xA0 SHL SUB AND CALLER EQ JUMPDEST PUSH2 0x17CF JUMPI PUSH1 0x40 MLOAD PUSH3 0x461BCD PUSH1 0xE5 SHL DUP2 MSTORE PUSH1 0x4 ADD PUSH2 0x10C6 SWAP1 PUSH2 0x59FE JUMP JUMPDEST POP PUSH1 0x1 PUSH1 0x1 PUSH1 0xA0 SHL SUB DUP2 AND PUSH1 0x0 SWAP1 DUP2 MSTORE PUSH1 0x1B PUSH1 0x20 MSTORE PUSH1 0x40 SWAP1 KECCAK256 SLOAD PUSH1 0xFF AND JUMPDEST SWAP2 SWAP1 POP JUMP JUMPDEST CALLER PUSH2 0x1805 PUSH1 0x6 SLOAD PUSH1 0x1 PUSH1 0x1 PUSH1 0xA0 SHL SUB AND SWAP1 JUMP JUMPDEST PUSH1 0x1 PUSH1 0x1 PUSH1 0xA0 SHL SUB AND EQ DUP1 PUSH2 0x1824 JUMPI POP PUSH1 0x8 SLOAD PUSH1 0x1 PUSH1 0x1 PUSH1 0xA0 SHL SUB AND CALLER EQ JUMPDEST PUSH2 0x1840 JUMPI PUSH1 0x40 MLOAD PUSH3 0x461BCD PUSH1 0xE5 SHL DUP2 MSTORE PUSH1 0x4 ADD PUSH2 0x10C6 SWAP1 PUSH2 0x59FE JUMP JUMPDEST PUSH1 0x1 PUSH1 0x1 PUSH1 0xA0 SHL SUB AND PUSH1 0x0 SWAP1 DUP2 MSTORE PUSH1 0xF PUSH1 0x20 SWAP1 DUP2 MSTORE PUSH1 0x40 DUP1 DUP4 KECCAK256 DUP1 SLOAD PUSH1 0x1 PUSH1 0xFF NOT SWAP2 DUP3 AND DUP2 OR SWAP1 SWAP3 SSTORE PUSH1 0x10 SWAP1 SWAP4 MSTORE SWAP3 KECCAK256 DUP1 SLOAD SWAP1 SWAP2 AND SWAP1 SWAP2 OR SWAP1 SSTORE JUMP JUMPDEST CALLER PUSH1 0x0 DUP2 DUP2 MSTORE PUSH1 0x1 PUSH1 0x20 SWAP1 DUP2 MSTORE PUSH1 0x40 DUP1 DUP4 KECCAK256 PUSH1 0x1 PUSH1 0x1 PUSH1 0xA0 SHL SUB DUP8 AND DUP5 MSTORE SWAP1 SWAP2 MSTORE DUP2 KECCAK256 SLOAD SWAP1 SWAP2 PUSH2 0x106F SWAP2 DUP6 SWAP1 PUSH2 0x18B3 SWAP1 DUP7 SWAP1 PUSH2 0x5AB5 JUMP JUMPDEST PUSH2 0x402C JUMP JUMPDEST PUSH1 0x6 SLOAD PUSH1 0x1 PUSH1 0x1 PUSH1 0xA0 SHL SUB AND CALLER EQ PUSH2 0x18E2 JUMPI PUSH1 0x40 MLOAD PUSH3 0x461BCD PUSH1 0xE5 SHL DUP2 MSTORE PUSH1 0x4 ADD PUSH2 0x10C6 SWAP1 PUSH2 0x599D JUMP JUMPDEST PUSH1 0x11 SLOAD DUP2 PUSH2 0x18EF PUSH1 0x2 SLOAD SWAP1 JUMP JUMPDEST PUSH2 0x18F9 SWAP2 SWAP1 PUSH2 0x5AB5 JUMP JUMPDEST GT ISZERO PUSH2 0x197B JUMPI PUSH1 0x40 MLOAD PUSH3 0x461BCD PUSH1 0xE5 SHL DUP2 MSTORE PUSH1 0x20 PUSH1 0x4 DUP3 ADD MSTORE PUSH1 0x44 PUSH1 0x24 DUP3 ADD DUP2 SWAP1 MSTORE PUSH32 0x41424F41543A3A6D696E743A2043616E2774206D696E74206D6F72652061626F SWAP1 DUP3 ADD MSTORE PUSH32 0x617420746F6B656E207468616E206D6178446973747269627574696F6E20616C PUSH1 0x64 DUP3 ADD MSTORE PUSH4 0x6C6F7773 PUSH1 0xE0 SHL PUSH1 0x84 DUP3 ADD MSTORE PUSH1 0xA4 ADD PUSH2 0x10C6 JUMP JUMPDEST PUSH2 0x12AE DUP3 DUP3 PUSH2 0x4C69 JUMP JUMPDEST PUSH1 0x19 SLOAD PUSH1 0x1 PUSH1 0x1 PUSH1 0xA0 SHL SUB AND ISZERO PUSH2 0x1382 JUMPI PUSH1 0x19 PUSH1 0x0 SWAP1 SLOAD SWAP1 PUSH2 0x100 EXP SWAP1 DIV PUSH1 0x1 PUSH1 0x1 PUSH1 0xA0 SHL SUB AND PUSH1 0x1 PUSH1 0x1 PUSH1 0xA0 SHL SUB AND PUSH4 0x673A7E28 PUSH1 0x40 MLOAD DUP2 PUSH4 0xFFFFFFFF AND PUSH1 0xE0 SHL DUP2 MSTORE PUSH1 0x4 ADD PUSH1 0x0 PUSH1 0x40 MLOAD DUP1 DUP4 SUB DUP2 PUSH1 0x0 DUP8 DUP1 EXTCODESIZE ISZERO DUP1 ISZERO PUSH2 0x19E6 JUMPI PUSH1 0x0 DUP1 REVERT JUMPDEST POP GAS CALL ISZERO DUP1 ISZERO PUSH2 0x19FA JUMPI RETURNDATASIZE PUSH1 0x0 DUP1 RETURNDATACOPY RETURNDATASIZE PUSH1 0x0 REVERT JUMPDEST POP POP POP POP JUMP JUMPDEST CALLER PUSH2 0x1A13 PUSH1 0x6 SLOAD PUSH1 0x1 PUSH1 0x1 PUSH1 0xA0 SHL SUB AND SWAP1 JUMP JUMPDEST PUSH1 0x1 PUSH1 0x1 PUSH1 0xA0 SHL SUB AND EQ DUP1 PUSH2 0x1A32 JUMPI POP PUSH1 0x8 SLOAD PUSH1 0x1 PUSH1 0x1 PUSH1 0xA0 SHL SUB AND CALLER EQ JUMPDEST PUSH2 0x1A4E JUMPI PUSH1 0x40 MLOAD PUSH3 0x461BCD PUSH1 0xE5 SHL DUP2 MSTORE PUSH1 0x4 ADD PUSH2 0x10C6 SWAP1 PUSH2 0x59FE JUMP JUMPDEST PUSH1 0x1 PUSH1 0x1 PUSH1 0xA0 SHL SUB AND PUSH1 0x0 SWAP1 DUP2 MSTORE PUSH1 0xF PUSH1 0x20 MSTORE PUSH1 0x40 SWAP1 KECCAK256 DUP1 SLOAD PUSH1 0xFF NOT AND SWAP1 SSTORE JUMP JUMPDEST PUSH1 0xD SLOAD PUSH1 0x40 DUP1 MLOAD PUSH4 0xDFE1681 PUSH1 0xE0 SHL DUP2 MSTORE SWAP1 MLOAD PUSH1 0x0 SWAP3 PUSH1 0x1 PUSH1 0x1 PUSH1 0xA0 SHL SUB AND SWAP2 DUP4 SWAP2 DUP4 SWAP2 PUSH4 0xDFE1681 SWAP2 PUSH1 0x4 DUP1 DUP4 ADD SWAP3 PUSH1 0x20 SWAP3 SWAP2 SWAP1 DUP3 SWAP1 SUB ADD DUP2 DUP7 DUP1 EXTCODESIZE ISZERO DUP1 ISZERO PUSH2 0x1AB8 JUMPI PUSH1 0x0 DUP1 REVERT JUMPDEST POP GAS STATICCALL ISZERO DUP1 ISZERO PUSH2 0x1ACC JUMPI RETURNDATASIZE PUSH1 0x0 DUP1 RETURNDATACOPY RETURNDATASIZE PUSH1 0x0 REVERT JUMPDEST POP POP POP POP PUSH1 0x40 MLOAD RETURNDATASIZE PUSH1 0x1F NOT PUSH1 0x1F DUP3 ADD AND DUP3 ADD DUP1 PUSH1 0x40 MSTORE POP DUP2 ADD SWAP1 PUSH2 0x1AF0 SWAP2 SWAP1 PUSH2 0x5681 JUMP JUMPDEST SWAP1 POP PUSH1 0x0 DUP3 PUSH1 0x1 PUSH1 0x1 PUSH1 0xA0 SHL SUB AND PUSH4 0xD21220A7 PUSH1 0x40 MLOAD DUP2 PUSH4 0xFFFFFFFF AND PUSH1 0xE0 SHL DUP2 MSTORE PUSH1 0x4 ADD PUSH1 0x20 PUSH1 0x40 MLOAD DUP1 DUP4 SUB DUP2 DUP7 DUP1 EXTCODESIZE ISZERO DUP1 ISZERO PUSH2 0x1B2D JUMPI PUSH1 0x0 DUP1 REVERT JUMPDEST POP GAS STATICCALL ISZERO DUP1 ISZERO PUSH2 0x1B41 JUMPI RETURNDATASIZE PUSH1 0x0 DUP1 RETURNDATACOPY RETURNDATASIZE PUSH1 0x0 REVERT JUMPDEST POP POP POP POP PUSH1 0x40 MLOAD RETURNDATASIZE PUSH1 0x1F NOT PUSH1 0x1F DUP3 ADD AND DUP3 ADD DUP1 PUSH1 0x40 MSTORE POP DUP2 ADD SWAP1 PUSH2 0x1B65 SWAP2 SWAP1 PUSH2 0x5681 JUMP JUMPDEST SWAP1 POP PUSH1 0x1 PUSH1 0x1 PUSH1 0xA0 SHL SUB DUP3 AND ADDRESS EQ ISZERO PUSH2 0x1B7E JUMPI DUP1 PUSH2 0x1B80 JUMP JUMPDEST DUP2 JUMPDEST SWAP4 POP POP POP POP SWAP1 JUMP JUMPDEST CALLER PUSH2 0x1B9B PUSH1 0x6 SLOAD PUSH1 0x1 PUSH1 0x1 PUSH1 0xA0 SHL SUB AND SWAP1 JUMP JUMPDEST PUSH1 0x1 PUSH1 0x1 PUSH1 0xA0 SHL SUB AND EQ DUP1 PUSH2 0x1BBA JUMPI POP PUSH1 0x8 SLOAD PUSH1 0x1 PUSH1 0x1 PUSH1 0xA0 SHL SUB AND CALLER EQ JUMPDEST PUSH2 0x1BD6 JUMPI PUSH1 0x40 MLOAD PUSH3 0x461BCD PUSH1 0xE5 SHL DUP2 MSTORE PUSH1 0x4 ADD PUSH2 0x10C6 SWAP1 PUSH2 0x59FE JUMP JUMPDEST PUSH1 0x1 PUSH1 0x1 PUSH1 0xA0 SHL SUB AND PUSH1 0x0 SWAP1 DUP2 MSTORE PUSH1 0x10 PUSH1 0x20 MSTORE PUSH1 0x40 SWAP1 KECCAK256 DUP1 SLOAD PUSH1 0xFF NOT AND SWAP1 SSTORE JUMP JUMPDEST PUSH1 0x6 SLOAD PUSH1 0x1 PUSH1 0x1 PUSH1 0xA0 SHL SUB AND CALLER EQ PUSH2 0x1C21 JUMPI PUSH1 0x40 MLOAD PUSH3 0x461BCD PUSH1 0xE5 SHL DUP2 MSTORE PUSH1 0x4 ADD PUSH2 0x10C6 SWAP1 PUSH2 0x599D JUMP JUMPDEST PUSH1 0x19 SLOAD PUSH1 0x1 PUSH1 0x1 PUSH1 0xA0 SHL SUB DUP3 DUP2 AND SWAP2 AND EQ DUP1 ISZERO SWAP1 PUSH2 0x1C47 JUMPI POP PUSH1 0x1 PUSH1 0x1 PUSH1 0xA0 SHL SUB DUP2 AND ISZERO ISZERO JUMPDEST PUSH2 0x1CEF JUMPI PUSH1 0x40 MLOAD PUSH3 0x461BCD PUSH1 0xE5 SHL DUP2 MSTORE PUSH1 0x20 PUSH1 0x4 DUP3 ADD MSTORE PUSH1 0x67 PUSH1 0x24 DUP3 ADD MSTORE PUSH32 0x41424F41543A3A7365744D6173746572456E7465727461696E65723A204D6173 PUSH1 0x44 DUP3 ADD MSTORE PUSH32 0x74657220656E7465727461696E65722063616E277420657175616C2070726576 PUSH1 0x64 DUP3 ADD MSTORE PUSH32 0x696F7573206D617374657220656E7465727461696E6572206F72207A65726F20 PUSH1 0x84 DUP3 ADD MSTORE PUSH7 0x61646472657373 PUSH1 0xC8 SHL PUSH1 0xA4 DUP3 ADD MSTORE PUSH1 0xC4 ADD PUSH2 0x10C6 JUMP JUMPDEST PUSH1 0x19 DUP1 SLOAD PUSH1 0x1 PUSH1 0x1 PUSH1 0xA0 SHL SUB DUP4 DUP2 AND PUSH1 0x1 PUSH1 0x1 PUSH1 0xA0 SHL SUB NOT DUP4 AND OR SWAP1 SWAP3 SSTORE AND PUSH2 0x1D17 DUP3 PUSH2 0x17F2 JUMP JUMPDEST PUSH2 0x1D20 DUP3 PUSH2 0x3D4B JUMP JUMPDEST DUP2 PUSH1 0x1 PUSH1 0x1 PUSH1 0xA0 SHL SUB AND DUP2 PUSH1 0x1 PUSH1 0x1 PUSH1 0xA0 SHL SUB AND PUSH32 0xDBC41A91AE00463E0C8208E05C807F2559C82A27989B5DD9F984E3A0B8059D69 PUSH1 0x40 MLOAD PUSH1 0x40 MLOAD DUP1 SWAP2 SUB SWAP1 LOG3 POP POP JUMP JUMPDEST CALLER PUSH2 0x1D77 PUSH1 0x6 SLOAD PUSH1 0x1 PUSH1 0x1 PUSH1 0xA0 SHL SUB AND SWAP1 JUMP JUMPDEST PUSH1 0x1 PUSH1 0x1 PUSH1 0xA0 SHL SUB AND EQ DUP1 PUSH2 0x1D96 JUMPI POP PUSH1 0x8 SLOAD PUSH1 0x1 PUSH1 0x1 PUSH1 0xA0 SHL SUB AND CALLER EQ JUMPDEST PUSH2 0x1DB2 JUMPI PUSH1 0x40 MLOAD PUSH3 0x461BCD PUSH1 0xE5 SHL DUP2 MSTORE PUSH1 0x4 ADD PUSH2 0x10C6 SWAP1 PUSH2 0x59FE JUMP JUMPDEST PUSH1 0x1 PUSH1 0x1 PUSH1 0xA0 SHL SUB DUP2 AND PUSH2 0x1E26 JUMPI PUSH1 0x40 MLOAD PUSH3 0x461BCD PUSH1 0xE5 SHL DUP2 MSTORE PUSH1 0x20 PUSH1 0x4 DUP3 ADD MSTORE PUSH1 0x35 PUSH1 0x24 DUP3 ADD MSTORE PUSH32 0x41424F41543A3A73657452657761726457616C6C65743A204164647265737320 PUSH1 0x44 DUP3 ADD MSTORE PUSH21 0x63616E2774206265207A65726F2061646472657373 PUSH1 0x58 SHL PUSH1 0x64 DUP3 ADD MSTORE PUSH1 0x84 ADD PUSH2 0x10C6 JUMP JUMPDEST PUSH1 0xC DUP1 SLOAD PUSH1 0x1 PUSH1 0x1 PUSH1 0xA0 SHL SUB NOT AND PUSH1 0x1 PUSH1 0x1 PUSH1 0xA0 SHL SUB DUP4 AND SWAP1 DUP2 OR SWAP1 SWAP2 SSTORE PUSH2 0x146A SWAP1 PUSH2 0x17F2 JUMP JUMPDEST CALLER PUSH2 0x1E60 PUSH1 0x6 SLOAD PUSH1 0x1 PUSH1 0x1 PUSH1 0xA0 SHL SUB AND SWAP1 JUMP JUMPDEST PUSH1 0x1 PUSH1 0x1 PUSH1 0xA0 SHL SUB AND EQ DUP1 PUSH2 0x1E7F JUMPI POP PUSH1 0x8 SLOAD PUSH1 0x1 PUSH1 0x1 PUSH1 0xA0 SHL SUB AND CALLER EQ JUMPDEST PUSH2 0x1E9B JUMPI PUSH1 0x40 MLOAD PUSH3 0x461BCD PUSH1 0xE5 SHL DUP2 MSTORE PUSH1 0x4 ADD PUSH2 0x10C6 SWAP1 PUSH2 0x59FE JUMP JUMPDEST PUSH1 0x1 PUSH1 0x1 PUSH1 0xA0 SHL SUB DUP2 AND PUSH2 0x1F17 JUMPI PUSH1 0x40 MLOAD PUSH3 0x461BCD PUSH1 0xE5 SHL DUP2 MSTORE PUSH1 0x20 PUSH1 0x4 DUP3 ADD MSTORE PUSH1 0x37 PUSH1 0x24 DUP3 ADD MSTORE PUSH32 0x41424F41543A3A736574446F6E6174696F6E57616C6C65743A20416464726573 PUSH1 0x44 DUP3 ADD MSTORE PUSH32 0x732063616E2774206265207A65726F2061646472657373000000000000000000 PUSH1 0x64 DUP3 ADD MSTORE PUSH1 0x84 ADD PUSH2 0x10C6 JUMP JUMPDEST PUSH1 0xB DUP1 SLOAD PUSH1 0x1 PUSH1 0x1 PUSH1 0xA0 SHL SUB NOT AND PUSH1 0x1 PUSH1 0x1 PUSH1 0xA0 SHL SUB SWAP3 SWAP1 SWAP3 AND SWAP2 SWAP1 SWAP2 OR SWAP1 SSTORE JUMP JUMPDEST PUSH1 0x0 PUSH1 0x11 SLOAD DUP3 PUSH2 0x1F48 PUSH1 0x2 SLOAD SWAP1 JUMP JUMPDEST PUSH2 0x1F52 SWAP2 SWAP1 PUSH2 0x5AB5 JUMP JUMPDEST GT ISZERO SWAP3 SWAP2 POP POP JUMP JUMPDEST CALLER PUSH1 0x0 SWAP1 DUP2 MSTORE PUSH1 0x1A PUSH1 0x20 MSTORE PUSH1 0x40 SWAP1 KECCAK256 SLOAD PUSH1 0xFF AND PUSH2 0x1FD3 JUMPI PUSH1 0x40 MLOAD PUSH3 0x461BCD PUSH1 0xE5 SHL DUP2 MSTORE PUSH1 0x20 PUSH1 0x4 DUP3 ADD MSTORE PUSH1 0x31 PUSH1 0x24 DUP3 ADD MSTORE PUSH32 0x41424F41543A3A7265717565737457686974656C6973743A20596F7520617265 PUSH1 0x44 DUP3 ADD MSTORE PUSH17 0x206E6F7420626C61636B6C697374656421 PUSH1 0x78 SHL PUSH1 0x64 DUP3 ADD MSTORE PUSH1 0x84 ADD PUSH2 0x10C6 JUMP JUMPDEST CALLER PUSH1 0x0 SWAP1 DUP2 MSTORE PUSH1 0x1B PUSH1 0x20 MSTORE PUSH1 0x40 SWAP1 KECCAK256 SLOAD PUSH1 0xFF AND ISZERO PUSH2 0x2059 JUMPI PUSH1 0x40 MLOAD PUSH3 0x461BCD PUSH1 0xE5 SHL DUP2 MSTORE PUSH1 0x20 PUSH1 0x4 DUP3 ADD MSTORE PUSH1 0x39 PUSH1 0x24 DUP3 ADD MSTORE PUSH32 0x41424F41543A3A7265717565737457686974656C6973743A20596F7520616C72 PUSH1 0x44 DUP3 ADD MSTORE PUSH32 0x65616479207265717565737465642077686974656C6973742100000000000000 PUSH1 0x64 DUP3 ADD MSTORE PUSH1 0x84 ADD PUSH2 0x10C6 JUMP JUMPDEST PUSH1 0x13 SLOAD CALLVALUE LT ISZERO PUSH2 0x20F7 JUMPI PUSH1 0x40 MLOAD PUSH3 0x461BCD PUSH1 0xE5 SHL DUP2 MSTORE PUSH1 0x20 PUSH1 0x4 DUP3 ADD MSTORE PUSH1 0x5A PUSH1 0x24 DUP3 ADD MSTORE PUSH32 0x41424F41543A3A7265717565737457686974656C6973743A20416D6F756E7420 PUSH1 0x44 DUP3 ADD MSTORE PUSH32 0x6F6620626E6220746F20636C61696D2073686F756C6420636172727920746865 PUSH1 0x64 DUP3 ADD MSTORE PUSH32 0x20636F737420746F206164642074686520636C61696D61626C65000000000000 PUSH1 0x84 DUP3 ADD MSTORE PUSH1 0xA4 ADD PUSH2 0x10C6 JUMP JUMPDEST PUSH1 0xA SLOAD PUSH2 0x210D SWAP1 PUSH1 0x1 PUSH1 0x1 PUSH1 0xA0 SHL SUB AND CALLVALUE PUSH2 0x4150 JUMP JUMPDEST CALLER PUSH1 0x0 DUP2 DUP2 MSTORE PUSH1 0x1B PUSH1 0x20 MSTORE PUSH1 0x40 DUP1 DUP3 KECCAK256 DUP1 SLOAD PUSH1 0xFF NOT AND PUSH1 0x1 OR SWAP1 SSTORE MLOAD PUSH32 0xD0401C9F53BC0A133A6EB391664575AD9C8E05BDDA210963E7E75591938EE510 SWAP2 SWAP1 LOG2 JUMP JUMPDEST PUSH1 0x6 SLOAD PUSH1 0x1 PUSH1 0x1 PUSH1 0xA0 SHL SUB AND CALLER EQ PUSH2 0x2179 JUMPI PUSH1 0x40 MLOAD PUSH3 0x461BCD PUSH1 0xE5 SHL DUP2 MSTORE PUSH1 0x4 ADD PUSH2 0x10C6 SWAP1 PUSH2 0x599D JUMP JUMPDEST PUSH2 0x1382 PUSH1 0x0 PUSH2 0x4D48 JUMP JUMPDEST CALLER PUSH2 0x2196 PUSH1 0x6 SLOAD PUSH1 0x1 PUSH1 0x1 PUSH1 0xA0 SHL SUB AND SWAP1 JUMP JUMPDEST PUSH1 0x1 PUSH1 0x1 PUSH1 0xA0 SHL SUB AND EQ DUP1 PUSH2 0x21B5 JUMPI POP PUSH1 0x8 SLOAD PUSH1 0x1 PUSH1 0x1 PUSH1 0xA0 SHL SUB AND CALLER EQ JUMPDEST PUSH2 0x21D1 JUMPI PUSH1 0x40 MLOAD PUSH3 0x461BCD PUSH1 0xE5 SHL DUP2 MSTORE PUSH1 0x4 ADD PUSH2 0x10C6 SWAP1 PUSH2 0x59FE JUMP JUMPDEST PUSH1 0x40 DUP1 MLOAD DUP1 DUP3 ADD SWAP1 SWAP2 MSTORE PUSH1 0x9 DUP2 MSTORE PUSH9 0xEAE0C8C2E8CAA8C2F PUSH1 0xBB SHL PUSH1 0x20 DUP3 ADD MSTORE PUSH1 0x6 SLOAD PUSH1 0x1 PUSH1 0xA0 SHL SWAP1 DIV PUSH1 0xFF AND ISZERO DUP1 PUSH2 0x228A JUMPI POP PUSH1 0x7 DUP2 PUSH1 0x40 MLOAD PUSH2 0x2215 SWAP2 SWAP1 PUSH2 0x5919 JUMP JUMPDEST SWAP1 DUP2 MSTORE PUSH1 0x20 ADD PUSH1 0x40 MLOAD DUP1 SWAP2 SUB SWAP1 KECCAK256 SLOAD PUSH1 0x0 EQ ISZERO DUP1 ISZERO PUSH2 0x2252 JUMPI POP TIMESTAMP PUSH1 0x7 DUP3 PUSH1 0x40 MLOAD PUSH2 0x2240 SWAP2 SWAP1 PUSH2 0x5919 JUMP JUMPDEST SWAP1 DUP2 MSTORE PUSH1 0x20 ADD PUSH1 0x40 MLOAD DUP1 SWAP2 SUB SWAP1 KECCAK256 SLOAD GT ISZERO JUMPDEST DUP1 ISZERO PUSH2 0x228A JUMPI POP TIMESTAMP PUSH3 0x15180 PUSH1 0x7 DUP4 PUSH1 0x40 MLOAD PUSH2 0x226E SWAP2 SWAP1 PUSH2 0x5919 JUMP JUMPDEST SWAP1 DUP2 MSTORE PUSH1 0x20 ADD PUSH1 0x40 MLOAD DUP1 SWAP2 SUB SWAP1 KECCAK256 SLOAD PUSH2 0x2287 SWAP2 SWAP1 PUSH2 0x5AB5 JUMP JUMPDEST LT ISZERO JUMPDEST PUSH2 0x22A6 JUMPI PUSH1 0x40 MLOAD PUSH3 0x461BCD PUSH1 0xE5 SHL DUP2 MSTORE PUSH1 0x4 ADD PUSH2 0x10C6 SWAP1 PUSH2 0x59D2 JUMP JUMPDEST PUSH1 0x64 DUP3 PUSH2 0x22B3 DUP6 DUP8 PUSH2 0x5A8F JUMP JUMPDEST PUSH2 0x22BD SWAP2 SWAP1 PUSH2 0x5A8F JUMP JUMPDEST PUSH2 0xFFFF AND GT ISZERO PUSH2 0x2326 JUMPI PUSH1 0x40 MLOAD PUSH3 0x461BCD PUSH1 0xE5 SHL DUP2 MSTORE PUSH1 0x20 PUSH1 0x4 DUP3 ADD MSTORE PUSH1 0x2E PUSH1 0x24 DUP3 ADD MSTORE PUSH32 0x41424F41543A3A7570646174655461783A205461782063616E74206578636565 PUSH1 0x44 DUP3 ADD MSTORE PUSH14 0x64203130302070657263656E7421 PUSH1 0x90 SHL PUSH1 0x64 DUP3 ADD MSTORE PUSH1 0x84 ADD PUSH2 0x10C6 JUMP JUMPDEST PUSH1 0x8 DUP1 SLOAD PUSH4 0xFFFFFFFF PUSH1 0xC0 SHL NOT AND PUSH1 0x1 PUSH1 0xC0 SHL PUSH2 0xFFFF DUP8 DUP2 AND DUP3 MUL PUSH2 0xFFFF PUSH1 0xD0 SHL NOT AND SWAP3 SWAP1 SWAP3 OR PUSH1 0x1 PUSH1 0xD0 SHL DUP8 DUP5 AND DUP2 MUL SWAP2 SWAP1 SWAP2 OR PUSH2 0xFFFF PUSH1 0xE0 SHL NOT AND PUSH1 0x1 PUSH1 0xE0 SHL DUP8 DUP6 AND DUP2 MUL SWAP2 SWAP1 SWAP2 OR SWAP5 DUP6 SWAP1 SSTORE PUSH1 0x40 DUP1 MLOAD SWAP4 DUP7 DIV DUP6 AND DUP5 MSTORE SWAP2 DUP6 DIV DUP5 AND PUSH1 0x20 DUP5 ADD MSTORE SWAP1 SWAP4 DIV SWAP1 SWAP2 AND SWAP2 DUP2 ADD SWAP2 SWAP1 SWAP2 MSTORE PUSH32 0x49B216608947F85B55485549BCBEB9B3885D85690A8ECCE31F0B27E390AF5C7A SWAP1 PUSH1 0x60 ADD PUSH1 0x40 MLOAD DUP1 SWAP2 SUB SWAP1 LOG1 PUSH2 0x19FA DUP2 PUSH2 0x2DC9 JUMP JUMPDEST CALLER PUSH2 0x23E0 PUSH1 0x6 SLOAD PUSH1 0x1 PUSH1 0x1 PUSH1 0xA0 SHL SUB AND SWAP1 JUMP JUMPDEST PUSH1 0x1 PUSH1 0x1 PUSH1 0xA0 SHL SUB AND EQ DUP1 PUSH2 0x23FF JUMPI POP PUSH1 0x8 SLOAD PUSH1 0x1 PUSH1 0x1 PUSH1 0xA0 SHL SUB AND CALLER EQ JUMPDEST PUSH2 0x241B JUMPI PUSH1 0x40 MLOAD PUSH3 0x461BCD PUSH1 0xE5 SHL DUP2 MSTORE PUSH1 0x4 ADD PUSH2 0x10C6 SWAP1 PUSH2 0x59FE JUMP JUMPDEST PUSH1 0x1 PUSH1 0x1 PUSH1 0xA0 SHL SUB AND PUSH1 0x0 SWAP1 DUP2 MSTORE PUSH1 0xF PUSH1 0x20 MSTORE PUSH1 0x40 SWAP1 KECCAK256 DUP1 SLOAD PUSH1 0xFF NOT AND PUSH1 0x1 OR SWAP1 SSTORE JUMP JUMPDEST CALLER PUSH2 0x2452 PUSH1 0x6 SLOAD PUSH1 0x1 PUSH1 0x1 PUSH1 0xA0 SHL SUB AND SWAP1 JUMP JUMPDEST PUSH1 0x1 PUSH1 0x1 PUSH1 0xA0 SHL SUB AND EQ DUP1 PUSH2 0x2471 JUMPI POP PUSH1 0x8 SLOAD PUSH1 0x1 PUSH1 0x1 PUSH1 0xA0 SHL SUB AND CALLER EQ JUMPDEST PUSH2 0x248D JUMPI PUSH1 0x40 MLOAD PUSH3 0x461BCD PUSH1 0xE5 SHL DUP2 MSTORE PUSH1 0x4 ADD PUSH2 0x10C6 SWAP1 PUSH2 0x59FE JUMP JUMPDEST PUSH1 0x40 DUP1 MLOAD DUP1 DUP3 ADD SWAP1 SWAP2 MSTORE PUSH1 0x7 DUP2 MSTORE PUSH7 0xDAD2DCBEE8C2F PUSH1 0xCB SHL PUSH1 0x20 DUP3 ADD MSTORE PUSH1 0x6 SLOAD PUSH1 0x1 PUSH1 0xA0 SHL SWAP1 DIV PUSH1 0xFF AND ISZERO DUP1 PUSH2 0x2544 JUMPI POP PUSH1 0x7 DUP2 PUSH1 0x40 MLOAD PUSH2 0x24CF SWAP2 SWAP1 PUSH2 0x5919 JUMP JUMPDEST SWAP1 DUP2 MSTORE PUSH1 0x20 ADD PUSH1 0x40 MLOAD DUP1 SWAP2 SUB SWAP1 KECCAK256 SLOAD PUSH1 0x0 EQ ISZERO DUP1 ISZERO PUSH2 0x250C JUMPI POP TIMESTAMP PUSH1 0x7 DUP3 PUSH1 0x40 MLOAD PUSH2 0x24FA SWAP2 SWAP1 PUSH2 0x5919 JUMP JUMPDEST SWAP1 DUP2 MSTORE PUSH1 0x20 ADD PUSH1 0x40 MLOAD DUP1 SWAP2 SUB SWAP1 KECCAK256 SLOAD GT ISZERO JUMPDEST DUP1 ISZERO PUSH2 0x2544 JUMPI POP TIMESTAMP PUSH3 0x15180 PUSH1 0x7 DUP4 PUSH1 0x40 MLOAD PUSH2 0x2528 SWAP2 SWAP1 PUSH2 0x5919 JUMP JUMPDEST SWAP1 DUP2 MSTORE PUSH1 0x20 ADD PUSH1 0x40 MLOAD DUP1 SWAP2 SUB SWAP1 KECCAK256 SLOAD PUSH2 0x2541 SWAP2 SWAP1 PUSH2 0x5AB5 JUMP JUMPDEST LT ISZERO JUMPDEST PUSH2 0x2560 JUMPI PUSH1 0x40 MLOAD PUSH3 0x461BCD PUSH1 0xE5 SHL DUP2 MSTORE PUSH1 0x4 ADD PUSH2 0x10C6 SWAP1 PUSH2 0x59D2 JUMP JUMPDEST PUSH1 0x8 SLOAD PUSH2 0xFFFF PUSH1 0x1 PUSH1 0xB0 SHL SWAP1 SWAP2 DIV DUP2 AND SWAP1 DUP4 AND GT ISZERO PUSH2 0x2619 JUMPI PUSH1 0x40 MLOAD PUSH3 0x461BCD PUSH1 0xE5 SHL DUP2 MSTORE PUSH1 0x20 PUSH1 0x4 DUP3 ADD MSTORE PUSH1 0x63 PUSH1 0x24 DUP3 ADD MSTORE PUSH32 0x41424F41543A3A7570646174654D696E696D756D5472616E7366657254617852 PUSH1 0x44 DUP3 ADD MSTORE PUSH32 0x6174653A206D696E696D756D5472616E7366657254617852617465206D757374 PUSH1 0x64 DUP3 ADD MSTORE PUSH32 0x206E6F7420657863656564206D6178696D756D5472616E736665725461785261 PUSH1 0x84 DUP3 ADD MSTORE PUSH3 0x3A3297 PUSH1 0xE9 SHL PUSH1 0xA4 DUP3 ADD MSTORE PUSH1 0xC4 ADD PUSH2 0x10C6 JUMP JUMPDEST PUSH1 0x8 SLOAD PUSH1 0x40 DUP1 MLOAD PUSH1 0x1 PUSH1 0xA0 SHL SWAP1 SWAP3 DIV PUSH2 0xFFFF SWAP1 DUP2 AND DUP4 MSTORE DUP5 AND PUSH1 0x20 DUP4 ADD MSTORE CALLER SWAP2 PUSH32 0xB2F2E219F74B4A7E339376870AE1B18D655E3CF85F60DC47F56E7CD7BAD470C5 SWAP2 ADD PUSH1 0x40 MLOAD DUP1 SWAP2 SUB SWAP1 LOG2 PUSH1 0x8 DUP1 SLOAD PUSH2 0xFFFF PUSH1 0xA0 SHL NOT AND PUSH1 0x1 PUSH1 0xA0 SHL PUSH2 0xFFFF DUP6 AND MUL OR SWAP1 SSTORE PUSH2 0x12AE DUP2 PUSH2 0x2DC9 JUMP JUMPDEST CALLER PUSH2 0x269A PUSH1 0x6 SLOAD PUSH1 0x1 PUSH1 0x1 PUSH1 0xA0 SHL SUB AND SWAP1 JUMP JUMPDEST PUSH1 0x1 PUSH1 0x1 PUSH1 0xA0 SHL SUB AND EQ DUP1 PUSH2 0x26B9 JUMPI POP PUSH1 0x8 SLOAD PUSH1 0x1 PUSH1 0x1 PUSH1 0xA0 SHL SUB AND CALLER EQ JUMPDEST PUSH2 0x26D5 JUMPI PUSH1 0x40 MLOAD PUSH3 0x461BCD PUSH1 0xE5 SHL DUP2 MSTORE PUSH1 0x4 ADD PUSH2 0x10C6 SWAP1 PUSH2 0x59FE JUMP JUMPDEST PUSH1 0x13 DUP1 SLOAD SWAP1 DUP3 SWAP1 SSTORE PUSH1 0x40 MLOAD DUP3 SWAP1 DUP3 SWAP1 PUSH32 0xA4257144DD1CD8B911052D6273102723E361F2B03E4CB7312CF347093492DB78 SWAP1 PUSH1 0x0 SWAP1 LOG3 POP POP JUMP JUMPDEST CALLER PUSH2 0x2721 PUSH1 0x6 SLOAD PUSH1 0x1 PUSH1 0x1 PUSH1 0xA0 SHL SUB AND SWAP1 JUMP JUMPDEST PUSH1 0x1 PUSH1 0x1 PUSH1 0xA0 SHL SUB AND EQ DUP1 PUSH2 0x2740 JUMPI POP PUSH1 0x8 SLOAD PUSH1 0x1 PUSH1 0x1 PUSH1 0xA0 SHL SUB AND CALLER EQ JUMPDEST PUSH2 0x275C JUMPI PUSH1 0x40 MLOAD PUSH3 0x461BCD PUSH1 0xE5 SHL DUP2 MSTORE PUSH1 0x4 ADD PUSH2 0x10C6 SWAP1 PUSH2 0x59FE JUMP JUMPDEST PUSH1 0x9 SSTORE JUMP JUMPDEST CALLER PUSH2 0x2774 PUSH1 0x6 SLOAD PUSH1 0x1 PUSH1 0x1 PUSH1 0xA0 SHL SUB AND SWAP1 JUMP JUMPDEST PUSH1 0x1 PUSH1 0x1 PUSH1 0xA0 SHL SUB AND EQ DUP1 PUSH2 0x2793 JUMPI POP PUSH1 0x8 SLOAD PUSH1 0x1 PUSH1 0x1 PUSH1 0xA0 SHL SUB AND CALLER EQ JUMPDEST PUSH2 0x27AF JUMPI PUSH1 0x40 MLOAD PUSH3 0x461BCD PUSH1 0xE5 SHL DUP2 MSTORE PUSH1 0x4 ADD PUSH2 0x10C6 SWAP1 PUSH2 0x59FE JUMP JUMPDEST PUSH1 0x12 DUP1 SLOAD PUSH1 0xFF NOT AND PUSH1 0x1 OR SWAP1 SSTORE JUMP JUMPDEST PUSH1 0x60 PUSH1 0x4 DUP1 SLOAD PUSH2 0xFDF SWAP1 PUSH2 0x5B51 JUMP JUMPDEST CALLER PUSH2 0x27E0 PUSH1 0x6 SLOAD PUSH1 0x1 PUSH1 0x1 PUSH1 0xA0 SHL SUB AND SWAP1 JUMP JUMPDEST PUSH1 0x1 PUSH1 0x1 PUSH1 0xA0 SHL SUB AND EQ DUP1 PUSH2 0x27FF JUMPI POP PUSH1 0x8 SLOAD PUSH1 0x1 PUSH1 0x1 PUSH1 0xA0 SHL SUB AND CALLER EQ JUMPDEST PUSH2 0x281B JUMPI PUSH1 0x40 MLOAD PUSH3 0x461BCD PUSH1 0xE5 SHL DUP2 MSTORE PUSH1 0x4 ADD PUSH2 0x10C6 SWAP1 PUSH2 0x59FE JUMP JUMPDEST PUSH1 0x1 PUSH1 0x1 PUSH1 0xA0 SHL SUB AND PUSH1 0x0 SWAP1 DUP2 MSTORE PUSH1 0x10 PUSH1 0x20 MSTORE PUSH1 0x40 SWAP1 KECCAK256 DUP1 SLOAD PUSH1 0xFF NOT AND PUSH1 0x1 OR SWAP1 SSTORE JUMP JUMPDEST CALLER PUSH2 0x2852 PUSH1 0x6 SLOAD PUSH1 0x1 PUSH1 0x1 PUSH1 0xA0 SHL SUB AND SWAP1 JUMP JUMPDEST PUSH1 0x1 PUSH1 0x1 PUSH1 0xA0 SHL SUB AND EQ DUP1 PUSH2 0x2871 JUMPI POP PUSH1 0x8 SLOAD PUSH1 0x1 PUSH1 0x1 PUSH1 0xA0 SHL SUB AND CALLER EQ JUMPDEST PUSH2 0x288D JUMPI PUSH1 0x40 MLOAD PUSH3 0x461BCD PUSH1 0xE5 SHL DUP2 MSTORE PUSH1 0x4 ADD PUSH2 0x10C6 SWAP1 PUSH2 0x59FE JUMP JUMPDEST PUSH1 0x1 PUSH1 0x1 PUSH1 0xA0 SHL SUB AND PUSH1 0x0 SWAP1 DUP2 MSTORE PUSH1 0x1A PUSH1 0x20 SWAP1 DUP2 MSTORE PUSH1 0x40 DUP1 DUP4 KECCAK256 DUP1 SLOAD PUSH1 0xFF NOT SWAP1 DUP2 AND PUSH1 0x1 OR SWAP1 SWAP2 SSTORE PUSH1 0x1B SWAP1 SWAP3 MSTORE SWAP1 SWAP2 KECCAK256 DUP1 SLOAD SWAP1 SWAP2 AND SWAP1 SSTORE JUMP JUMPDEST PUSH1 0x19 SLOAD PUSH1 0x40 MLOAD PUSH4 0x94D45B59 PUSH1 0xE0 SHL DUP2 MSTORE PUSH1 0x1 PUSH1 0x1 PUSH1 0xA0 SHL SUB DUP4 DUP2 AND PUSH1 0x4 DUP4 ADD MSTORE PUSH1 0x0 PUSH1 0x24 DUP4 ADD DUP2 SWAP1 MSTORE SWAP3 PUSH2 0x2970 SWAP3 SWAP2 AND SWAP1 PUSH4 0x94D45B59 SWAP1 PUSH1 0x44 ADD PUSH1 0x20 PUSH1 0x40 MLOAD DUP1 DUP4 SUB DUP2 DUP7 DUP1 EXTCODESIZE ISZERO DUP1 ISZERO PUSH2 0x2918 JUMPI PUSH1 0x0 DUP1 REVERT JUMPDEST POP GAS STATICCALL ISZERO DUP1 ISZERO PUSH2 0x292C JUMPI RETURNDATASIZE PUSH1 0x0 DUP1 RETURNDATACOPY RETURNDATASIZE PUSH1 0x0 REVERT JUMPDEST POP POP POP POP PUSH1 0x40 MLOAD RETURNDATASIZE PUSH1 0x1F NOT PUSH1 0x1F DUP3 ADD AND DUP3 ADD DUP1 PUSH1 0x40 MSTORE POP DUP2 ADD SWAP1 PUSH2 0x2950 SWAP2 SWAP1 PUSH2 0x588E JUMP JUMPDEST PUSH1 0x1 PUSH1 0x1 PUSH1 0xA0 SHL SUB DUP5 AND PUSH1 0x0 SWAP1 DUP2 MSTORE PUSH1 0x20 DUP2 SWAP1 MSTORE PUSH1 0x40 SWAP1 KECCAK256 SLOAD JUMPDEST SWAP1 PUSH2 0x4D9A JUMP JUMPDEST SWAP3 SWAP2 POP POP JUMP JUMPDEST CALLER PUSH2 0x2989 PUSH1 0x6 SLOAD PUSH1 0x1 PUSH1 0x1 PUSH1 0xA0 SHL SUB AND SWAP1 JUMP JUMPDEST PUSH1 0x1 PUSH1 0x1 PUSH1 0xA0 SHL SUB AND EQ DUP1 PUSH2 0x29A8 JUMPI POP PUSH1 0x8 SLOAD PUSH1 0x1 PUSH1 0x1 PUSH1 0xA0 SHL SUB AND CALLER EQ JUMPDEST PUSH2 0x29C4 JUMPI PUSH1 0x40 MLOAD PUSH3 0x461BCD PUSH1 0xE5 SHL DUP2 MSTORE PUSH1 0x4 ADD PUSH2 0x10C6 SWAP1 PUSH2 0x59FE JUMP JUMPDEST PUSH1 0x40 DUP1 MLOAD DUP1 DUP3 ADD SWAP1 SWAP2 MSTORE PUSH1 0x7 DUP2 MSTORE PUSH7 0x36382FB830B4B9 PUSH1 0xC9 SHL PUSH1 0x20 DUP3 ADD MSTORE PUSH1 0x6 SLOAD PUSH1 0x1 PUSH1 0xA0 SHL SWAP1 DIV PUSH1 0xFF AND ISZERO DUP1 PUSH2 0x2A7B JUMPI POP PUSH1 0x7 DUP2 PUSH1 0x40 MLOAD PUSH2 0x2A06 SWAP2 SWAP1 PUSH2 0x5919 JUMP JUMPDEST SWAP1 DUP2 MSTORE PUSH1 0x20 ADD PUSH1 0x40 MLOAD DUP1 SWAP2 SUB SWAP1 KECCAK256 SLOAD PUSH1 0x0 EQ ISZERO DUP1 ISZERO PUSH2 0x2A43 JUMPI POP TIMESTAMP PUSH1 0x7 DUP3 PUSH1 0x40 MLOAD PUSH2 0x2A31 SWAP2 SWAP1 PUSH2 0x5919 JUMP JUMPDEST SWAP1 DUP2 MSTORE PUSH1 0x20 ADD PUSH1 0x40 MLOAD DUP1 SWAP2 SUB SWAP1 KECCAK256 SLOAD GT ISZERO JUMPDEST DUP1 ISZERO PUSH2 0x2A7B JUMPI POP TIMESTAMP PUSH3 0x15180 PUSH1 0x7 DUP4 PUSH1 0x40 MLOAD PUSH2 0x2A5F SWAP2 SWAP1 PUSH2 0x5919 JUMP JUMPDEST SWAP1 DUP2 MSTORE PUSH1 0x20 ADD PUSH1 0x40 MLOAD DUP1 SWAP2 SUB SWAP1 KECCAK256 SLOAD PUSH2 0x2A78 SWAP2 SWAP1 PUSH2 0x5AB5 JUMP JUMPDEST LT ISZERO JUMPDEST PUSH2 0x2A97 JUMPI PUSH1 0x40 MLOAD PUSH3 0x461BCD PUSH1 0xE5 SHL DUP2 MSTORE PUSH1 0x4 ADD PUSH2 0x10C6 SWAP1 PUSH2 0x59D2 JUMP JUMPDEST PUSH1 0x1 PUSH1 0x1 PUSH1 0xA0 SHL SUB DUP3 AND PUSH2 0x2B21 JUMPI PUSH1 0x40 MLOAD PUSH3 0x461BCD PUSH1 0xE5 SHL DUP2 MSTORE PUSH1 0x20 PUSH1 0x4 DUP3 ADD MSTORE PUSH1 0x44 PUSH1 0x24 DUP3 ADD DUP2 SWAP1 MSTORE PUSH32 0x4C6971756966793A3A7365744C6971756964697479506169723A204C69717569 SWAP1 DUP3 ADD MSTORE PUSH32 0x6469747920706169722063616E277420636F6E7461696E207A65726F20616464 PUSH1 0x64 DUP3 ADD MSTORE PUSH4 0x72657373 PUSH1 0xE0 SHL PUSH1 0x84 DUP3 ADD MSTORE PUSH1 0xA4 ADD PUSH2 0x10C6 JUMP JUMPDEST PUSH1 0xE PUSH1 0x0 SWAP1 SLOAD SWAP1 PUSH2 0x100 EXP SWAP1 DIV PUSH1 0x1 PUSH1 0x1 PUSH1 0xA0 SHL SUB AND PUSH1 0x1 PUSH1 0x1 PUSH1 0xA0 SHL SUB AND PUSH4 0xC45A0155 PUSH1 0x40 MLOAD DUP2 PUSH4 0xFFFFFFFF AND PUSH1 0xE0 SHL DUP2 MSTORE PUSH1 0x4 ADD PUSH1 0x20 PUSH1 0x40 MLOAD DUP1 DUP4 SUB DUP2 DUP7 DUP1 EXTCODESIZE ISZERO DUP1 ISZERO PUSH2 0x2B6F JUMPI PUSH1 0x0 DUP1 REVERT JUMPDEST POP GAS STATICCALL ISZERO DUP1 ISZERO PUSH2 0x2B83 JUMPI RETURNDATASIZE PUSH1 0x0 DUP1 RETURNDATACOPY RETURNDATASIZE PUSH1 0x0 REVERT JUMPDEST POP POP POP POP PUSH1 0x40 MLOAD RETURNDATASIZE PUSH1 0x1F NOT PUSH1 0x1F DUP3 ADD AND DUP3 ADD DUP1 PUSH1 0x40 MSTORE POP DUP2 ADD SWAP1 PUSH2 0x2BA7 SWAP2 SWAP1 PUSH2 0x5681 JUMP JUMPDEST PUSH1 0x40 MLOAD PUSH4 0xE6A43905 PUSH1 0xE0 SHL DUP2 MSTORE ADDRESS PUSH1 0x4 DUP3 ADD MSTORE PUSH1 0x1 PUSH1 0x1 PUSH1 0xA0 SHL SUB DUP5 DUP2 AND PUSH1 0x24 DUP4 ADD MSTORE SWAP2 SWAP1 SWAP2 AND SWAP1 PUSH4 0xE6A43905 SWAP1 PUSH1 0x44 ADD PUSH1 0x20 PUSH1 0x40 MLOAD DUP1 DUP4 SUB DUP2 DUP7 DUP1 EXTCODESIZE ISZERO DUP1 ISZERO PUSH2 0x2BF0 JUMPI PUSH1 0x0 DUP1 REVERT JUMPDEST POP GAS STATICCALL ISZERO DUP1 ISZERO PUSH2 0x2C04 JUMPI RETURNDATASIZE PUSH1 0x0 DUP1 RETURNDATACOPY RETURNDATASIZE PUSH1 0x0 REVERT JUMPDEST POP POP POP POP PUSH1 0x40 MLOAD RETURNDATASIZE PUSH1 0x1F NOT PUSH1 0x1F DUP3 ADD AND DUP3 ADD DUP1 PUSH1 0x40 MSTORE POP DUP2 ADD SWAP1 PUSH2 0x2C28 SWAP2 SWAP1 PUSH2 0x5681 JUMP JUMPDEST PUSH1 0xD DUP1 SLOAD PUSH1 0x1 PUSH1 0x1 PUSH1 0xA0 SHL SUB NOT AND PUSH1 0x1 PUSH1 0x1 PUSH1 0xA0 SHL SUB SWAP3 SWAP1 SWAP3 AND SWAP2 DUP3 OR SWAP1 SSTORE PUSH2 0x2D75 JUMPI PUSH1 0xE PUSH1 0x0 SWAP1 SLOAD SWAP1 PUSH2 0x100 EXP SWAP1 DIV PUSH1 0x1 PUSH1 0x1 PUSH1 0xA0 SHL SUB AND PUSH1 0x1 PUSH1 0x1 PUSH1 0xA0 SHL SUB AND PUSH4 0xC45A0155 PUSH1 0x40 MLOAD DUP2 PUSH4 0xFFFFFFFF AND PUSH1 0xE0 SHL DUP2 MSTORE PUSH1 0x4 ADD PUSH1 0x20 PUSH1 0x40 MLOAD DUP1 DUP4 SUB DUP2 DUP7 DUP1 EXTCODESIZE ISZERO DUP1 ISZERO PUSH2 0x2C99 JUMPI PUSH1 0x0 DUP1 REVERT JUMPDEST POP GAS STATICCALL ISZERO DUP1 ISZERO PUSH2 0x2CAD JUMPI RETURNDATASIZE PUSH1 0x0 DUP1 RETURNDATACOPY RETURNDATASIZE PUSH1 0x0 REVERT JUMPDEST POP POP POP POP PUSH1 0x40 MLOAD RETURNDATASIZE PUSH1 0x1F NOT PUSH1 0x1F DUP3 ADD AND DUP3 ADD DUP1 PUSH1 0x40 MSTORE POP DUP2 ADD SWAP1 PUSH2 0x2CD1 SWAP2 SWAP1 PUSH2 0x5681 JUMP JUMPDEST PUSH1 0x40 MLOAD PUSH4 0x64E329CB PUSH1 0xE1 SHL DUP2 MSTORE ADDRESS PUSH1 0x4 DUP3 ADD MSTORE PUSH1 0x1 PUSH1 0x1 PUSH1 0xA0 SHL SUB DUP5 DUP2 AND PUSH1 0x24 DUP4 ADD MSTORE SWAP2 SWAP1 SWAP2 AND SWAP1 PUSH4 0xC9C65396 SWAP1 PUSH1 0x44 ADD PUSH1 0x20 PUSH1 0x40 MLOAD DUP1 DUP4 SUB DUP2 PUSH1 0x0 DUP8 DUP1 EXTCODESIZE ISZERO DUP1 ISZERO PUSH2 0x2D1C JUMPI PUSH1 0x0 DUP1 REVERT JUMPDEST POP GAS CALL ISZERO DUP1 ISZERO PUSH2 0x2D30 JUMPI RETURNDATASIZE PUSH1 0x0 DUP1 RETURNDATACOPY RETURNDATASIZE PUSH1 0x0 REVERT JUMPDEST POP POP POP POP PUSH1 0x40 MLOAD RETURNDATASIZE PUSH1 0x1F NOT PUSH1 0x1F DUP3 ADD AND DUP3 ADD DUP1 PUSH1 0x40 MSTORE POP DUP2 ADD SWAP1 PUSH2 0x2D54 SWAP2 SWAP1 PUSH2 0x5681 JUMP JUMPDEST PUSH1 0xD DUP1 SLOAD PUSH1 0x1 PUSH1 0x1 PUSH1 0xA0 SHL SUB NOT AND PUSH1 0x1 PUSH1 0x1 PUSH1 0xA0 SHL SUB SWAP3 SWAP1 SWAP3 AND SWAP2 SWAP1 SWAP2 OR SWAP1 SSTORE JUMPDEST PUSH1 0xD SLOAD PUSH2 0x2D8A SWAP1 PUSH1 0x1 PUSH1 0x1 PUSH1 0xA0 SHL SUB AND PUSH2 0x23CD JUMP JUMPDEST PUSH1 0xD SLOAD PUSH1 0x40 MLOAD PUSH1 0x1 PUSH1 0x1 PUSH1 0xA0 SHL SUB SWAP1 SWAP2 AND SWAP1 CALLER SWAP1 PUSH32 0x6C587433DEA122B342B093ACB4DDE076CA1A441413E43A5A14DDE8A8842C9447 SWAP1 PUSH1 0x0 SWAP1 LOG3 PUSH2 0x12AE DUP2 JUMPDEST CALLER PUSH2 0x2DDC PUSH1 0x6 SLOAD PUSH1 0x1 PUSH1 0x1 PUSH1 0xA0 SHL SUB AND SWAP1 JUMP JUMPDEST PUSH1 0x1 PUSH1 0x1 PUSH1 0xA0 SHL SUB AND EQ DUP1 PUSH2 0x2DFB JUMPI POP PUSH1 0x8 SLOAD PUSH1 0x1 PUSH1 0x1 PUSH1 0xA0 SHL SUB AND CALLER EQ JUMPDEST PUSH2 0x2E17 JUMPI PUSH1 0x40 MLOAD PUSH3 0x461BCD PUSH1 0xE5 SHL DUP2 MSTORE PUSH1 0x4 ADD PUSH2 0x10C6 SWAP1 PUSH2 0x59FE JUMP JUMPDEST PUSH1 0x0 PUSH1 0x7 DUP3 PUSH1 0x40 MLOAD PUSH2 0x2E29 SWAP2 SWAP1 PUSH2 0x5919 JUMP JUMPDEST SWAP1 DUP2 MSTORE PUSH1 0x40 MLOAD SWAP1 DUP2 SWAP1 SUB PUSH1 0x20 ADD SWAP1 KECCAK256 SSTORE POP JUMP JUMPDEST CALLER PUSH2 0x2E4F PUSH1 0x6 SLOAD PUSH1 0x1 PUSH1 0x1 PUSH1 0xA0 SHL SUB AND SWAP1 JUMP JUMPDEST PUSH1 0x1 PUSH1 0x1 PUSH1 0xA0 SHL SUB AND EQ DUP1 PUSH2 0x2E6E JUMPI POP PUSH1 0x8 SLOAD PUSH1 0x1 PUSH1 0x1 PUSH1 0xA0 SHL SUB AND CALLER EQ JUMPDEST PUSH2 0x2E8A JUMPI PUSH1 0x40 MLOAD PUSH3 0x461BCD PUSH1 0xE5 SHL DUP2 MSTORE PUSH1 0x4 ADD PUSH2 0x10C6 SWAP1 PUSH2 0x59FE JUMP JUMPDEST PUSH1 0x1 PUSH1 0x1 PUSH1 0xA0 SHL SUB AND PUSH1 0x0 SWAP1 DUP2 MSTORE PUSH1 0xF PUSH1 0x20 SWAP1 DUP2 MSTORE PUSH1 0x40 DUP1 DUP4 KECCAK256 DUP1 SLOAD PUSH1 0xFF NOT SWAP1 DUP2 AND SWAP1 SWAP2 SSTORE PUSH1 0x10 SWAP1 SWAP3 MSTORE SWAP1 SWAP2 KECCAK256 DUP1 SLOAD SWAP1 SWAP2 AND SWAP1 SSTORE JUMP JUMPDEST CALLER PUSH1 0x0 SWAP1 DUP2 MSTORE PUSH1 0x1 PUSH1 0x20 SWAP1 DUP2 MSTORE PUSH1 0x40 DUP1 DUP4 KECCAK256 PUSH1 0x1 PUSH1 0x1 PUSH1 0xA0 SHL SUB DUP7 AND DUP5 MSTORE SWAP1 SWAP2 MSTORE DUP2 KECCAK256 SLOAD DUP3 DUP2 LT ISZERO PUSH2 0x2F42 JUMPI PUSH1 0x40 MLOAD PUSH3 0x461BCD PUSH1 0xE5 SHL DUP2 MSTORE PUSH1 0x20 PUSH1 0x4 DUP3 ADD MSTORE PUSH1 0x25 PUSH1 0x24 DUP3 ADD MSTORE PUSH32 0x45524332303A2064656372656173656420616C6C6F77616E63652062656C6F77 PUSH1 0x44 DUP3 ADD MSTORE PUSH5 0x207A65726F PUSH1 0xD8 SHL PUSH1 0x64 DUP3 ADD MSTORE PUSH1 0x84 ADD PUSH2 0x10C6 JUMP JUMPDEST PUSH2 0x2F4F CALLER DUP6 DUP6 DUP5 SUB PUSH2 0x402C JUMP JUMPDEST POP PUSH1 0x1 SWAP4 SWAP3 POP POP POP JUMP JUMPDEST CALLER PUSH2 0x2F6C PUSH1 0x6 SLOAD PUSH1 0x1 PUSH1 0x1 PUSH1 0xA0 SHL SUB AND SWAP1 JUMP JUMPDEST PUSH1 0x1 PUSH1 0x1 PUSH1 0xA0 SHL SUB AND EQ DUP1 PUSH2 0x2F8B JUMPI POP PUSH1 0x8 SLOAD PUSH1 0x1 PUSH1 0x1 PUSH1 0xA0 SHL SUB AND CALLER EQ JUMPDEST PUSH2 0x2FA7 JUMPI PUSH1 0x40 MLOAD PUSH3 0x461BCD PUSH1 0xE5 SHL DUP2 MSTORE PUSH1 0x4 ADD PUSH2 0x10C6 SWAP1 PUSH2 0x59FE JUMP JUMPDEST PUSH2 0x2FB4 PUSH3 0x15180 TIMESTAMP PUSH2 0x5AB5 JUMP JUMPDEST PUSH1 0x7 DUP3 PUSH1 0x40 MLOAD PUSH2 0x2FC4 SWAP2 SWAP1 PUSH2 0x5919 JUMP JUMPDEST SWAP1 DUP2 MSTORE PUSH1 0x20 ADD PUSH1 0x40 MLOAD DUP1 SWAP2 SUB SWAP1 KECCAK256 DUP2 SWAP1 SSTORE POP PUSH1 0x7 DUP2 PUSH1 0x40 MLOAD PUSH2 0x2FE6 SWAP2 SWAP1 PUSH2 0x5919 JUMP JUMPDEST SWAP1 DUP2 MSTORE PUSH1 0x20 ADD PUSH1 0x40 MLOAD DUP1 SWAP2 SUB SWAP1 KECCAK256 SLOAD DUP2 PUSH1 0x40 MLOAD PUSH2 0x3003 SWAP2 SWAP1 PUSH2 0x5919 JUMP JUMPDEST PUSH1 0x40 MLOAD SWAP1 DUP2 SWAP1 SUB DUP2 KECCAK256 SWAP1 PUSH32 0xF77F9A799FE8B0BE1463ABD7459A18FC55DFD8A6A24DDD29B54FD098088089C8 SWAP1 PUSH1 0x0 SWAP1 LOG3 POP JUMP JUMPDEST PUSH1 0x0 PUSH2 0x106F CALLER DUP5 DUP5 PUSH2 0x422F JUMP JUMPDEST CALLER PUSH2 0x3056 PUSH1 0x6 SLOAD PUSH1 0x1 PUSH1 0x1 PUSH1 0xA0 SHL SUB AND SWAP1 JUMP JUMPDEST PUSH1 0x1 PUSH1 0x1 PUSH1 0xA0 SHL SUB AND EQ DUP1 PUSH2 0x3075 JUMPI POP PUSH1 0x8 SLOAD PUSH1 0x1 PUSH1 0x1 PUSH1 0xA0 SHL SUB AND CALLER EQ JUMPDEST PUSH2 0x3091 JUMPI PUSH1 0x40 MLOAD PUSH3 0x461BCD PUSH1 0xE5 SHL DUP2 MSTORE PUSH1 0x4 ADD PUSH2 0x10C6 SWAP1 PUSH2 0x59FE JUMP JUMPDEST PUSH1 0x40 DUP1 MLOAD DUP1 DUP3 ADD SWAP1 SWAP2 MSTORE PUSH1 0x7 DUP2 MSTORE PUSH7 0xDAC2F0BEE8C2F PUSH1 0xCB SHL PUSH1 0x20 DUP3 ADD MSTORE PUSH1 0x6 SLOAD PUSH1 0x1 PUSH1 0xA0 SHL SWAP1 DIV PUSH1 0xFF AND ISZERO DUP1 PUSH2 0x3148 JUMPI POP PUSH1 0x7 DUP2 PUSH1 0x40 MLOAD PUSH2 0x30D3 SWAP2 SWAP1 PUSH2 0x5919 JUMP JUMPDEST SWAP1 DUP2 MSTORE PUSH1 0x20 ADD PUSH1 0x40 MLOAD DUP1 SWAP2 SUB SWAP1 KECCAK256 SLOAD PUSH1 0x0 EQ ISZERO DUP1 ISZERO PUSH2 0x3110 JUMPI POP TIMESTAMP PUSH1 0x7 DUP3 PUSH1 0x40 MLOAD PUSH2 0x30FE SWAP2 SWAP1 PUSH2 0x5919 JUMP JUMPDEST SWAP1 DUP2 MSTORE PUSH1 0x20 ADD PUSH1 0x40 MLOAD DUP1 SWAP2 SUB SWAP1 KECCAK256 SLOAD GT ISZERO JUMPDEST DUP1 ISZERO PUSH2 0x3148 JUMPI POP TIMESTAMP PUSH3 0x15180 PUSH1 0x7 DUP4 PUSH1 0x40 MLOAD PUSH2 0x312C SWAP2 SWAP1 PUSH2 0x5919 JUMP JUMPDEST SWAP1 DUP2 MSTORE PUSH1 0x20 ADD PUSH1 0x40 MLOAD DUP1 SWAP2 SUB SWAP1 KECCAK256 SLOAD PUSH2 0x3145 SWAP2 SWAP1 PUSH2 0x5AB5 JUMP JUMPDEST LT ISZERO JUMPDEST PUSH2 0x3164 JUMPI PUSH1 0x40 MLOAD PUSH3 0x461BCD PUSH1 0xE5 SHL DUP2 MSTORE PUSH1 0x4 ADD PUSH2 0x10C6 SWAP1 PUSH2 0x59D2 JUMP JUMPDEST PUSH1 0x8 SLOAD PUSH2 0xFFFF PUSH1 0x1 PUSH1 0xA0 SHL SWAP1 SWAP2 DIV DUP2 AND SWAP1 DUP4 AND LT ISZERO PUSH2 0x321F JUMPI PUSH1 0x40 MLOAD PUSH3 0x461BCD PUSH1 0xE5 SHL DUP2 MSTORE PUSH1 0x20 PUSH1 0x4 DUP3 ADD MSTORE PUSH1 0x65 PUSH1 0x24 DUP3 ADD MSTORE PUSH32 0x41424F41543A3A7570646174654D6178696D756D5472616E7366657254617852 PUSH1 0x44 DUP3 ADD MSTORE PUSH32 0x6174653A206D6178696D756D5472616E7366657254617852617465206D757374 PUSH1 0x64 DUP3 ADD MSTORE PUSH32 0x206E6F742062652062656C6F77206D696E696D756D5472616E73666572546178 PUSH1 0x84 DUP3 ADD MSTORE PUSH5 0x2930BA3297 PUSH1 0xD9 SHL PUSH1 0xA4 DUP3 ADD MSTORE PUSH1 0xC4 ADD PUSH2 0x10C6 JUMP JUMPDEST PUSH2 0x3E8 PUSH2 0xFFFF DUP4 AND GT ISZERO PUSH2 0x32B8 JUMPI PUSH1 0x40 MLOAD PUSH3 0x461BCD PUSH1 0xE5 SHL DUP2 MSTORE PUSH1 0x20 PUSH1 0x4 DUP3 ADD MSTORE PUSH1 0x54 PUSH1 0x24 DUP3 ADD MSTORE PUSH32 0x41424F41543A3A7570646174654D6178696D756D5472616E7366657254617852 PUSH1 0x44 DUP3 ADD MSTORE PUSH32 0x6174653A206D6178696D756D5472616E7366657254617852617465206D757374 PUSH1 0x64 DUP3 ADD MSTORE PUSH20 0x1032BC31B2B2B21026A0AC24A6AAA6AFAA20AC17 PUSH1 0x61 SHL PUSH1 0x84 DUP3 ADD MSTORE PUSH1 0xA4 ADD PUSH2 0x10C6 JUMP JUMPDEST PUSH1 0x8 SLOAD PUSH1 0x40 DUP1 MLOAD PUSH1 0x1 PUSH1 0xA0 SHL SWAP1 SWAP3 DIV PUSH2 0xFFFF SWAP1 DUP2 AND DUP4 MSTORE DUP5 AND PUSH1 0x20 DUP4 ADD MSTORE CALLER SWAP2 PUSH32 0xFC18B74E18E9BF8100CA625DE9F64C93E88284A81D82C9EDFC899869F34B506F SWAP2 ADD PUSH1 0x40 MLOAD DUP1 SWAP2 SUB SWAP1 LOG2 PUSH1 0x8 DUP1 SLOAD PUSH2 0xFFFF PUSH1 0xB0 SHL NOT AND PUSH1 0x1 PUSH1 0xB0 SHL PUSH2 0xFFFF DUP6 AND MUL OR SWAP1 SSTORE PUSH2 0x12AE DUP2 PUSH2 0x2DC9 JUMP JUMPDEST PUSH1 0x8 DUP1 SLOAD PUSH4 0xFFFFFFFF PUSH1 0xA0 SHL NOT DUP2 AND SWAP2 DUP3 SWAP1 SSTORE PUSH2 0xFFFF PUSH1 0x1 PUSH1 0xA0 SHL DUP3 DIV DUP2 AND SWAP3 PUSH1 0x1 PUSH1 0xB0 SHL SWAP1 SWAP3 DIV AND SWAP1 PUSH1 0xFF PUSH1 0x1 PUSH1 0xF0 SHL SWAP1 SWAP2 DIV AND ISZERO PUSH2 0x3365 JUMPI PUSH2 0x376B JUMP JUMPDEST PUSH1 0x8 DUP1 SLOAD PUSH1 0xFF PUSH1 0xF0 SHL NOT AND PUSH1 0x1 PUSH1 0xF0 SHL OR SWAP1 SSTORE ADDRESS PUSH1 0x0 SWAP1 DUP2 MSTORE PUSH1 0x20 DUP2 SWAP1 MSTORE PUSH1 0x40 DUP2 KECCAK256 SLOAD SWAP1 POP PUSH1 0x9 SLOAD DUP2 LT PUSH2 0x375C JUMPI PUSH1 0xD SLOAD PUSH1 0x8 SLOAD PUSH1 0x9 SLOAD PUSH1 0x1 PUSH1 0x1 PUSH1 0xA0 SHL SUB SWAP1 SWAP3 AND SWAP2 PUSH1 0x0 SWAP2 PUSH2 0x33CD SWAP2 PUSH1 0x64 SWAP2 PUSH2 0x33C7 SWAP2 SWAP1 PUSH1 0x1 PUSH1 0xD0 SHL SWAP1 DIV PUSH2 0xFFFF AND PUSH2 0x4DA6 JUMP JUMPDEST SWAP1 PUSH2 0x4DB2 JUMP JUMPDEST PUSH1 0x8 SLOAD PUSH1 0x9 SLOAD SWAP2 SWAP3 POP PUSH1 0x0 SWAP2 PUSH2 0x33F4 SWAP2 PUSH1 0x64 SWAP2 PUSH2 0x33C7 SWAP2 PUSH1 0x1 PUSH1 0xE0 SHL SWAP1 DIV PUSH2 0xFFFF AND PUSH2 0x4DA6 JUMP JUMPDEST SWAP1 POP PUSH1 0x0 PUSH2 0x3416 PUSH1 0x2 PUSH2 0x33C7 DUP5 PUSH2 0x1657 DUP8 PUSH1 0x9 SLOAD PUSH2 0x4C56 SWAP1 SWAP2 SWAP1 PUSH4 0xFFFFFFFF AND JUMP JUMPDEST SWAP1 POP PUSH1 0x0 PUSH2 0x342F DUP3 PUSH1 0x9 SLOAD PUSH2 0x4C56 SWAP1 SWAP2 SWAP1 PUSH4 0xFFFFFFFF AND JUMP JUMPDEST SWAP1 POP PUSH1 0x0 DUP6 PUSH1 0x1 PUSH1 0x1 PUSH1 0xA0 SHL SUB AND PUSH4 0xDFE1681 PUSH1 0x40 MLOAD DUP2 PUSH4 0xFFFFFFFF AND PUSH1 0xE0 SHL DUP2 MSTORE PUSH1 0x4 ADD PUSH1 0x20 PUSH1 0x40 MLOAD DUP1 DUP4 SUB DUP2 DUP7 DUP1 EXTCODESIZE ISZERO DUP1 ISZERO PUSH2 0x346C JUMPI PUSH1 0x0 DUP1 REVERT JUMPDEST POP GAS STATICCALL ISZERO DUP1 ISZERO PUSH2 0x3480 JUMPI RETURNDATASIZE PUSH1 0x0 DUP1 RETURNDATACOPY RETURNDATASIZE PUSH1 0x0 REVERT JUMPDEST POP POP POP POP PUSH1 0x40 MLOAD RETURNDATASIZE PUSH1 0x1F NOT PUSH1 0x1F DUP3 ADD AND DUP3 ADD DUP1 PUSH1 0x40 MSTORE POP DUP2 ADD SWAP1 PUSH2 0x34A4 SWAP2 SWAP1 PUSH2 0x5681 JUMP JUMPDEST SWAP1 POP PUSH1 0x0 DUP7 PUSH1 0x1 PUSH1 0x1 PUSH1 0xA0 SHL SUB AND PUSH4 0xD21220A7 PUSH1 0x40 MLOAD DUP2 PUSH4 0xFFFFFFFF AND PUSH1 0xE0 SHL DUP2 MSTORE PUSH1 0x4 ADD PUSH1 0x20 PUSH1 0x40 MLOAD DUP1 DUP4 SUB DUP2 DUP7 DUP1 EXTCODESIZE ISZERO DUP1 ISZERO PUSH2 0x34E1 JUMPI PUSH1 0x0 DUP1 REVERT JUMPDEST POP GAS STATICCALL ISZERO DUP1 ISZERO PUSH2 0x34F5 JUMPI RETURNDATASIZE PUSH1 0x0 DUP1 RETURNDATACOPY RETURNDATASIZE PUSH1 0x0 REVERT JUMPDEST POP POP POP POP PUSH1 0x40 MLOAD RETURNDATASIZE PUSH1 0x1F NOT PUSH1 0x1F DUP3 ADD AND DUP3 ADD DUP1 PUSH1 0x40 MSTORE POP DUP2 ADD SWAP1 PUSH2 0x3519 SWAP2 SWAP1 PUSH2 0x5681 JUMP JUMPDEST SWAP1 POP DUP1 PUSH1 0x1 PUSH1 0x1 PUSH1 0xA0 SHL SUB AND DUP3 PUSH1 0x1 PUSH1 0x1 PUSH1 0xA0 SHL SUB AND EQ ISZERO PUSH2 0x35A3 JUMPI PUSH1 0x40 MLOAD PUSH3 0x461BCD PUSH1 0xE5 SHL DUP2 MSTORE PUSH1 0x20 PUSH1 0x4 DUP3 ADD MSTORE PUSH1 0x3E PUSH1 0x24 DUP3 ADD MSTORE PUSH32 0x496E76616C6964206C6971756469747920706169723A20506169722063616E27 PUSH1 0x44 DUP3 ADD MSTORE PUSH32 0x7420636F6E7461696E207468652073616D6520746F6B656E2074776963650000 PUSH1 0x64 DUP3 ADD MSTORE PUSH1 0x84 ADD PUSH2 0x10C6 JUMP JUMPDEST PUSH1 0xE SLOAD PUSH1 0x40 DUP1 MLOAD PUSH4 0x15AB88C9 PUSH1 0xE3 SHL DUP2 MSTORE SWAP1 MLOAD PUSH1 0x0 SWAP3 PUSH1 0x1 PUSH1 0x1 PUSH1 0xA0 SHL SUB AND SWAP2 PUSH4 0xAD5C4648 SWAP2 PUSH1 0x4 DUP1 DUP4 ADD SWAP3 PUSH1 0x20 SWAP3 SWAP2 SWAP1 DUP3 SWAP1 SUB ADD DUP2 DUP7 DUP1 EXTCODESIZE ISZERO DUP1 ISZERO PUSH2 0x35E8 JUMPI PUSH1 0x0 DUP1 REVERT JUMPDEST POP GAS STATICCALL ISZERO DUP1 ISZERO PUSH2 0x35FC JUMPI RETURNDATASIZE PUSH1 0x0 DUP1 RETURNDATACOPY RETURNDATASIZE PUSH1 0x0 REVERT JUMPDEST POP POP POP POP PUSH1 0x40 MLOAD RETURNDATASIZE PUSH1 0x1F NOT PUSH1 0x1F DUP3 ADD AND DUP3 ADD DUP1 PUSH1 0x40 MSTORE POP DUP2 ADD SWAP1 PUSH2 0x3620 SWAP2 SWAP1 PUSH2 0x5681 JUMP JUMPDEST PUSH1 0x1 PUSH1 0x1 PUSH1 0xA0 SHL SUB AND DUP4 PUSH1 0x1 PUSH1 0x1 PUSH1 0xA0 SHL SUB AND EQ DUP1 PUSH2 0x36D5 JUMPI POP PUSH1 0xE PUSH1 0x0 SWAP1 SLOAD SWAP1 PUSH2 0x100 EXP SWAP1 DIV PUSH1 0x1 PUSH1 0x1 PUSH1 0xA0 SHL SUB AND PUSH1 0x1 PUSH1 0x1 PUSH1 0xA0 SHL SUB AND PUSH4 0xAD5C4648 PUSH1 0x40 MLOAD DUP2 PUSH4 0xFFFFFFFF AND PUSH1 0xE0 SHL DUP2 MSTORE PUSH1 0x4 ADD PUSH1 0x20 PUSH1 0x40 MLOAD DUP1 DUP4 SUB DUP2 DUP7 DUP1 EXTCODESIZE ISZERO DUP1 ISZERO PUSH2 0x3688 JUMPI PUSH1 0x0 DUP1 REVERT JUMPDEST POP GAS STATICCALL ISZERO DUP1 ISZERO PUSH2 0x369C JUMPI RETURNDATASIZE PUSH1 0x0 DUP1 RETURNDATACOPY RETURNDATASIZE PUSH1 0x0 REVERT JUMPDEST POP POP POP POP PUSH1 0x40 MLOAD RETURNDATASIZE PUSH1 0x1F NOT PUSH1 0x1F DUP3 ADD AND DUP3 ADD DUP1 PUSH1 0x40 MSTORE POP DUP2 ADD SWAP1 PUSH2 0x36C0 SWAP2 SWAP1 PUSH2 0x5681 JUMP JUMPDEST PUSH1 0x1 PUSH1 0x1 PUSH1 0xA0 SHL SUB AND DUP3 PUSH1 0x1 PUSH1 0x1 PUSH1 0xA0 SHL SUB AND EQ JUMPDEST SWAP1 POP PUSH1 0x0 DUP2 ISZERO PUSH2 0x36EE JUMPI PUSH2 0x36E9 DUP6 DUP8 PUSH2 0x4DBE JUMP JUMPDEST PUSH2 0x3711 JUMP JUMPDEST PUSH2 0x3711 PUSH1 0x1 PUSH1 0x1 PUSH1 0xA0 SHL SUB DUP6 AND ADDRESS EQ ISZERO PUSH2 0x3708 JUMPI DUP4 PUSH2 0x370A JUMP JUMPDEST DUP5 JUMPDEST DUP7 DUP9 PUSH2 0x4DDB JUMP JUMPDEST PUSH1 0x40 DUP1 MLOAD DUP7 DUP2 MSTORE PUSH1 0x20 DUP2 ADD DUP4 SWAP1 MSTORE SWAP1 DUP2 ADD DUP8 SWAP1 MSTORE PUSH32 0x17BBFB9A6069321B6DED73BD96327C9E6B7212A5CD51FF219CD61370ACAFB561 SWAP1 PUSH1 0x60 ADD PUSH1 0x40 MLOAD DUP1 SWAP2 SUB SWAP1 LOG1 POP POP POP POP POP POP POP POP POP JUMPDEST POP PUSH1 0x8 DUP1 SLOAD PUSH1 0xFF PUSH1 0xF0 SHL NOT AND SWAP1 SSTORE JUMPDEST PUSH1 0x8 DUP1 SLOAD PUSH4 0xFFFFFFFF PUSH1 0xA0 SHL NOT AND PUSH1 0x1 PUSH1 0xA0 SHL PUSH2 0xFFFF SWAP5 DUP6 AND MUL PUSH2 0xFFFF PUSH1 0xB0 SHL NOT AND OR PUSH1 0x1 PUSH1 0xB0 SHL SWAP3 SWAP1 SWAP4 AND SWAP2 SWAP1 SWAP2 MUL SWAP2 SWAP1 SWAP2 OR SWAP1 SSTORE JUMP JUMPDEST CALLER PUSH2 0x37B6 PUSH1 0x6 SLOAD PUSH1 0x1 PUSH1 0x1 PUSH1 0xA0 SHL SUB AND SWAP1 JUMP JUMPDEST PUSH1 0x1 PUSH1 0x1 PUSH1 0xA0 SHL SUB AND EQ DUP1 PUSH2 0x37D5 JUMPI POP PUSH1 0x8 SLOAD PUSH1 0x1 PUSH1 0x1 PUSH1 0xA0 SHL SUB AND CALLER EQ JUMPDEST PUSH2 0x37F1 JUMPI PUSH1 0x40 MLOAD PUSH3 0x461BCD PUSH1 0xE5 SHL DUP2 MSTORE PUSH1 0x4 ADD PUSH2 0x10C6 SWAP1 PUSH2 0x59FE JUMP JUMPDEST PUSH1 0xA DUP2 PUSH2 0xFFFF AND GT PUSH2 0x386B JUMPI PUSH1 0x40 MLOAD PUSH3 0x461BCD PUSH1 0xE5 SHL DUP2 MSTORE PUSH1 0x20 PUSH1 0x4 DUP3 ADD MSTORE PUSH1 0x3D PUSH1 0x24 DUP3 ADD MSTORE PUSH32 0x4D6178207472616E73616374696F6E2073697A652063616E2774206265206C6F PUSH1 0x44 DUP3 ADD MSTORE PUSH32 0x776572207468616E20302E3125206F6620746F74616C20737570706C79000000 PUSH1 0x64 DUP3 ADD MSTORE PUSH1 0x84 ADD PUSH2 0x10C6 JUMP JUMPDEST PUSH1 0x12 DUP1 SLOAD PUSH2 0xFFFF DUP4 DUP2 AND PUSH3 0x10000 SWAP1 DUP2 MUL PUSH4 0xFFFF0000 NOT DUP5 AND OR SWAP4 DUP5 SWAP1 SSTORE PUSH1 0x40 MLOAD SWAP3 DUP2 SWAP1 DIV DUP3 AND SWAP4 DIV AND SWAP1 DUP3 SWAP1 PUSH32 0x8F171BB23056CCED8A730912E267DBF04C43510F33032F06A749B0CCDC8587B4 SWAP1 PUSH1 0x0 SWAP1 LOG3 POP POP JUMP JUMPDEST CALLER PUSH2 0x38D5 PUSH1 0x6 SLOAD PUSH1 0x1 PUSH1 0x1 PUSH1 0xA0 SHL SUB AND SWAP1 JUMP JUMPDEST PUSH1 0x1 PUSH1 0x1 PUSH1 0xA0 SHL SUB AND EQ DUP1 PUSH2 0x38F4 JUMPI POP PUSH1 0x8 SLOAD PUSH1 0x1 PUSH1 0x1 PUSH1 0xA0 SHL SUB AND CALLER EQ JUMPDEST PUSH2 0x3910 JUMPI PUSH1 0x40 MLOAD PUSH3 0x461BCD PUSH1 0xE5 SHL DUP2 MSTORE PUSH1 0x4 ADD PUSH2 0x10C6 SWAP1 PUSH2 0x59FE JUMP JUMPDEST PUSH1 0x40 DUP1 MLOAD DUP1 DUP3 ADD SWAP1 SWAP2 MSTORE PUSH1 0x6 DUP1 DUP3 MSTORE PUSH6 0x3937BABA32B9 PUSH1 0xD1 SHL PUSH1 0x20 DUP4 ADD MSTORE SLOAD PUSH1 0x1 PUSH1 0xA0 SHL SWAP1 DIV PUSH1 0xFF AND ISZERO DUP1 PUSH2 0x39C5 JUMPI POP PUSH1 0x7 DUP2 PUSH1 0x40 MLOAD PUSH2 0x3950 SWAP2 SWAP1 PUSH2 0x5919 JUMP JUMPDEST SWAP1 DUP2 MSTORE PUSH1 0x20 ADD PUSH1 0x40 MLOAD DUP1 SWAP2 SUB SWAP1 KECCAK256 SLOAD PUSH1 0x0 EQ ISZERO DUP1 ISZERO PUSH2 0x398D JUMPI POP TIMESTAMP PUSH1 0x7 DUP3 PUSH1 0x40 MLOAD PUSH2 0x397B SWAP2 SWAP1 PUSH2 0x5919 JUMP JUMPDEST SWAP1 DUP2 MSTORE PUSH1 0x20 ADD PUSH1 0x40 MLOAD DUP1 SWAP2 SUB SWAP1 KECCAK256 SLOAD GT ISZERO JUMPDEST DUP1 ISZERO PUSH2 0x39C5 JUMPI POP TIMESTAMP PUSH3 0x15180 PUSH1 0x7 DUP4 PUSH1 0x40 MLOAD PUSH2 0x39A9 SWAP2 SWAP1 PUSH2 0x5919 JUMP JUMPDEST SWAP1 DUP2 MSTORE PUSH1 0x20 ADD PUSH1 0x40 MLOAD DUP1 SWAP2 SUB SWAP1 KECCAK256 SLOAD PUSH2 0x39C2 SWAP2 SWAP1 PUSH2 0x5AB5 JUMP JUMPDEST LT ISZERO JUMPDEST PUSH2 0x39E1 JUMPI PUSH1 0x40 MLOAD PUSH3 0x461BCD PUSH1 0xE5 SHL DUP2 MSTORE PUSH1 0x4 ADD PUSH2 0x10C6 SWAP1 PUSH2 0x59D2 JUMP JUMPDEST PUSH1 0xE DUP1 SLOAD PUSH1 0x1 PUSH1 0x1 PUSH1 0xA0 SHL SUB NOT AND PUSH1 0x1 PUSH1 0x1 PUSH1 0xA0 SHL SUB DUP5 AND SWAP1 DUP2 OR SWAP1 SWAP2 SSTORE PUSH1 0x40 DUP1 MLOAD PUSH4 0x15AB88C9 PUSH1 0xE3 SHL DUP2 MSTORE SWAP1 MLOAD PUSH2 0x3A71 SWAP3 SWAP2 PUSH4 0xAD5C4648 SWAP2 PUSH1 0x4 DUP1 DUP4 ADD SWAP3 PUSH1 0x20 SWAP3 SWAP2 SWAP1 DUP3 SWAP1 SUB ADD DUP2 DUP7 DUP1 EXTCODESIZE ISZERO DUP1 ISZERO PUSH2 0x3A39 JUMPI PUSH1 0x0 DUP1 REVERT JUMPDEST POP GAS STATICCALL ISZERO DUP1 ISZERO PUSH2 0x3A4D JUMPI RETURNDATASIZE PUSH1 0x0 DUP1 RETURNDATACOPY RETURNDATASIZE PUSH1 0x0 REVERT JUMPDEST POP POP POP POP PUSH1 0x40 MLOAD RETURNDATASIZE PUSH1 0x1F NOT PUSH1 0x1F DUP3 ADD AND DUP3 ADD DUP1 PUSH1 0x40 MSTORE POP DUP2 ADD SWAP1 PUSH2 0xC34 SWAP2 SWAP1 PUSH2 0x5681 JUMP JUMPDEST PUSH2 0x3A7A DUP3 PUSH2 0x23CD JUMP JUMPDEST PUSH1 0xD SLOAD PUSH1 0x40 MLOAD PUSH1 0x1 PUSH1 0x1 PUSH1 0xA0 SHL SUB SWAP2 DUP3 AND SWAP2 DUP5 AND SWAP1 CALLER SWAP1 PUSH32 0xEB7C1E97C05570337FE795AB9D5755A8F731C9C52E756B720275940FA2833276 SWAP1 PUSH1 0x0 SWAP1 LOG4 PUSH2 0x12AE DUP2 PUSH2 0x2DC9 JUMP JUMPDEST CALLER PUSH2 0x3AD3 PUSH1 0x6 SLOAD PUSH1 0x1 PUSH1 0x1 PUSH1 0xA0 SHL SUB AND SWAP1 JUMP JUMPDEST PUSH1 0x1 PUSH1 0x1 PUSH1 0xA0 SHL SUB AND EQ DUP1 PUSH2 0x3AF2 JUMPI POP PUSH1 0x8 SLOAD PUSH1 0x1 PUSH1 0x1 PUSH1 0xA0 SHL SUB AND CALLER EQ JUMPDEST PUSH2 0x3B0E JUMPI PUSH1 0x40 MLOAD PUSH3 0x461BCD PUSH1 0xE5 SHL DUP2 MSTORE PUSH1 0x4 ADD PUSH2 0x10C6 SWAP1 PUSH2 0x59FE JUMP JUMPDEST PUSH1 0x40 DUP1 MLOAD DUP1 DUP3 ADD SWAP1 SWAP2 MSTORE PUSH1 0x10 DUP2 MSTORE PUSH16 0x36B0BC2FB234B9BA3934B13ABA34B7B7 PUSH1 0x81 SHL PUSH1 0x20 DUP3 ADD MSTORE PUSH1 0x6 SLOAD PUSH1 0x1 PUSH1 0xA0 SHL SWAP1 DIV PUSH1 0xFF AND ISZERO DUP1 PUSH2 0x3BCE JUMPI POP PUSH1 0x7 DUP2 PUSH1 0x40 MLOAD PUSH2 0x3B59 SWAP2 SWAP1 PUSH2 0x5919 JUMP JUMPDEST SWAP1 DUP2 MSTORE PUSH1 0x20 ADD PUSH1 0x40 MLOAD DUP1 SWAP2 SUB SWAP1 KECCAK256 SLOAD PUSH1 0x0 EQ ISZERO DUP1 ISZERO PUSH2 0x3B96 JUMPI POP TIMESTAMP PUSH1 0x7 DUP3 PUSH1 0x40 MLOAD PUSH2 0x3B84 SWAP2 SWAP1 PUSH2 0x5919 JUMP JUMPDEST SWAP1 DUP2 MSTORE PUSH1 0x20 ADD PUSH1 0x40 MLOAD DUP1 SWAP2 SUB SWAP1 KECCAK256 SLOAD GT ISZERO JUMPDEST DUP1 ISZERO PUSH2 0x3BCE JUMPI POP TIMESTAMP PUSH3 0x15180 PUSH1 0x7 DUP4 PUSH1 0x40 MLOAD PUSH2 0x3BB2 SWAP2 SWAP1 PUSH2 0x5919 JUMP JUMPDEST SWAP1 DUP2 MSTORE PUSH1 0x20 ADD PUSH1 0x40 MLOAD DUP1 SWAP2 SUB SWAP1 KECCAK256 SLOAD PUSH2 0x3BCB SWAP2 SWAP1 PUSH2 0x5AB5 JUMP JUMPDEST LT ISZERO JUMPDEST PUSH2 0x3BEA JUMPI PUSH1 0x40 MLOAD PUSH3 0x461BCD PUSH1 0xE5 SHL DUP2 MSTORE PUSH1 0x4 ADD PUSH2 0x10C6 SWAP1 PUSH2 0x59D2 JUMP JUMPDEST PUSH1 0x2 SLOAD DUP3 GT PUSH2 0x3C7E JUMPI PUSH1 0x40 MLOAD PUSH3 0x461BCD PUSH1 0xE5 SHL DUP2 MSTORE PUSH1 0x20 PUSH1 0x4 DUP3 ADD MSTORE PUSH1 0x54 PUSH1 0x24 DUP3 ADD MSTORE PUSH32 0x41424F41543A3A7365744D6178446973747269627574696F6E3A204469737472 PUSH1 0x44 DUP3 ADD MSTORE PUSH32 0x69627574696F6E2063616E2774206265206C6F776572207468616E2074686520 PUSH1 0x64 DUP3 ADD MSTORE PUSH20 0x63757272656E7420746F74616C20737570706C79 PUSH1 0x60 SHL PUSH1 0x84 DUP3 ADD MSTORE PUSH1 0xA4 ADD PUSH2 0x10C6 JUMP JUMPDEST PUSH1 0x11 DUP3 SWAP1 SSTORE PUSH1 0x40 MLOAD DUP3 SWAP1 PUSH32 0xA7E08474511C62A58C1DC04D12CFF13C93670FFC4D0056882F95EBFE2DF50ED SWAP1 PUSH1 0x0 SWAP1 LOG2 PUSH2 0x12AE DUP2 PUSH2 0x2DC9 JUMP JUMPDEST CALLER PUSH2 0x3CCA PUSH1 0x6 SLOAD PUSH1 0x1 PUSH1 0x1 PUSH1 0xA0 SHL SUB AND SWAP1 JUMP JUMPDEST PUSH1 0x1 PUSH1 0x1 PUSH1 0xA0 SHL SUB AND EQ DUP1 PUSH2 0x3CE9 JUMPI POP PUSH1 0x8 SLOAD PUSH1 0x1 PUSH1 0x1 PUSH1 0xA0 SHL SUB AND CALLER EQ JUMPDEST PUSH2 0x3D05 JUMPI PUSH1 0x40 MLOAD PUSH3 0x461BCD PUSH1 0xE5 SHL DUP2 MSTORE PUSH1 0x4 ADD PUSH2 0x10C6 SWAP1 PUSH2 0x59FE JUMP JUMPDEST PUSH1 0x12 DUP1 SLOAD PUSH2 0xFF00 NOT AND PUSH2 0x100 SWAP1 DUP2 OR SWAP2 DUP3 SWAP1 SSTORE PUSH1 0x40 MLOAD SWAP2 DIV PUSH1 0xFF AND ISZERO ISZERO SWAP1 PUSH32 0x4C67D13291F7FE21C52EEE8F752CBC5C7451E593E18093D087403081206FD46C SWAP1 PUSH1 0x0 SWAP1 LOG2 JUMP JUMPDEST PUSH1 0x6 SLOAD PUSH1 0x1 PUSH1 0x1 PUSH1 0xA0 SHL SUB AND CALLER EQ PUSH2 0x3D75 JUMPI PUSH1 0x40 MLOAD PUSH3 0x461BCD PUSH1 0xE5 SHL DUP2 MSTORE PUSH1 0x4 ADD PUSH2 0x10C6 SWAP1 PUSH2 0x599D JUMP JUMPDEST PUSH1 0x1 PUSH1 0x1 PUSH1 0xA0 SHL SUB DUP2 AND PUSH2 0x3DDA JUMPI PUSH1 0x40 MLOAD PUSH3 0x461BCD PUSH1 0xE5 SHL DUP2 MSTORE PUSH1 0x20 PUSH1 0x4 DUP3 ADD MSTORE PUSH1 0x26 PUSH1 0x24 DUP3 ADD MSTORE PUSH32 0x4F776E61626C653A206E6577206F776E657220697320746865207A65726F2061 PUSH1 0x44 DUP3 ADD MSTORE PUSH6 0x646472657373 PUSH1 0xD0 SHL PUSH1 0x64 DUP3 ADD MSTORE PUSH1 0x84 ADD PUSH2 0x10C6 JUMP JUMPDEST PUSH2 0x146A DUP2 PUSH2 0x4D48 JUMP JUMPDEST CALLER PUSH2 0x3DF6 PUSH1 0x6 SLOAD PUSH1 0x1 PUSH1 0x1 PUSH1 0xA0 SHL SUB AND SWAP1 JUMP JUMPDEST PUSH1 0x1 PUSH1 0x1 PUSH1 0xA0 SHL SUB AND EQ DUP1 PUSH2 0x3E15 JUMPI POP PUSH1 0x8 SLOAD PUSH1 0x1 PUSH1 0x1 PUSH1 0xA0 SHL SUB AND CALLER EQ JUMPDEST PUSH2 0x3E31 JUMPI PUSH1 0x40 MLOAD PUSH3 0x461BCD PUSH1 0xE5 SHL DUP2 MSTORE PUSH1 0x4 ADD PUSH2 0x10C6 SWAP1 PUSH2 0x59FE JUMP JUMPDEST PUSH1 0x6 DUP1 SLOAD PUSH1 0xFF PUSH1 0xA0 SHL NOT AND PUSH1 0x1 PUSH1 0xA0 SHL OR SWAP1 SSTORE PUSH1 0x40 MLOAD PUSH32 0x2C08B62BFAC9A1B19BB1DEC9323F1CE01696A77948B256ABF3603D30F25A864E SWAP1 PUSH1 0x0 SWAP1 LOG1 JUMP JUMPDEST CALLER PUSH2 0x3E82 PUSH1 0x6 SLOAD PUSH1 0x1 PUSH1 0x1 PUSH1 0xA0 SHL SUB AND SWAP1 JUMP JUMPDEST PUSH1 0x1 PUSH1 0x1 PUSH1 0xA0 SHL SUB AND EQ DUP1 PUSH2 0x3EA1 JUMPI POP PUSH1 0x8 SLOAD PUSH1 0x1 PUSH1 0x1 PUSH1 0xA0 SHL SUB AND CALLER EQ JUMPDEST PUSH2 0x3EBD JUMPI PUSH1 0x40 MLOAD PUSH3 0x461BCD PUSH1 0xE5 SHL DUP2 MSTORE PUSH1 0x4 ADD PUSH2 0x10C6 SWAP1 PUSH2 0x59FE JUMP JUMPDEST PUSH1 0x1 PUSH1 0x1 PUSH1 0xA0 SHL SUB DUP2 AND PUSH1 0x0 DUP2 DUP2 MSTORE PUSH1 0x1A PUSH1 0x20 MSTORE PUSH1 0x40 DUP1 DUP3 KECCAK256 DUP1 SLOAD PUSH1 0xFF NOT AND PUSH1 0x1 OR SWAP1 SSTORE MLOAD PUSH32 0xFFA4E6181777692565CF28528FC88FD1516EA86B56DA075235FA575AF6A4B855 SWAP2 SWAP1 LOG2 POP JUMP JUMPDEST CALLER PUSH2 0x3F1C PUSH1 0x6 SLOAD PUSH1 0x1 PUSH1 0x1 PUSH1 0xA0 SHL SUB AND SWAP1 JUMP JUMPDEST PUSH1 0x1 PUSH1 0x1 PUSH1 0xA0 SHL SUB AND EQ DUP1 PUSH2 0x3F3B JUMPI POP PUSH1 0x8 SLOAD PUSH1 0x1 PUSH1 0x1 PUSH1 0xA0 SHL SUB AND CALLER EQ JUMPDEST PUSH2 0x3F57 JUMPI PUSH1 0x40 MLOAD PUSH3 0x461BCD PUSH1 0xE5 SHL DUP2 MSTORE PUSH1 0x4 ADD PUSH2 0x10C6 SWAP1 PUSH2 0x59FE JUMP JUMPDEST PUSH1 0x64 DUP2 PUSH2 0xFFFF AND GT PUSH2 0x3FD1 JUMPI PUSH1 0x40 MLOAD PUSH3 0x461BCD PUSH1 0xE5 SHL DUP2 MSTORE PUSH1 0x20 PUSH1 0x4 DUP3 ADD MSTORE PUSH1 0x3A PUSH1 0x24 DUP3 ADD MSTORE PUSH32 0x4D6178206163636F756E742062616C616E63652063616E2774206265206C6F77 PUSH1 0x44 DUP3 ADD MSTORE PUSH32 0x6572207468616E203125206F6620746F74616C20737570706C79000000000000 PUSH1 0x64 DUP3 ADD MSTORE PUSH1 0x84 ADD PUSH2 0x10C6 JUMP JUMPDEST PUSH1 0x12 DUP1 SLOAD PUSH2 0xFFFF DUP4 DUP2 AND PUSH5 0x100000000 SWAP1 DUP2 MUL PUSH6 0xFFFF00000000 NOT DUP5 AND OR SWAP4 DUP5 SWAP1 SSTORE PUSH1 0x40 MLOAD SWAP3 DUP2 SWAP1 DIV DUP3 AND SWAP4 DIV AND SWAP1 DUP3 SWAP1 PUSH32 0x537619D54465D4BF80B6C360206170815AA95DEAA5993A7C17AB783706693A4D SWAP1 PUSH1 0x0 SWAP1 LOG3 POP POP JUMP JUMPDEST PUSH1 0x1 PUSH1 0x1 PUSH1 0xA0 SHL SUB DUP4 AND PUSH2 0x408E JUMPI PUSH1 0x40 MLOAD PUSH3 0x461BCD PUSH1 0xE5 SHL DUP2 MSTORE PUSH1 0x20 PUSH1 0x4 DUP3 ADD MSTORE PUSH1 0x24 DUP1 DUP3 ADD MSTORE PUSH32 0x45524332303A20617070726F76652066726F6D20746865207A65726F20616464 PUSH1 0x44 DUP3 ADD MSTORE PUSH4 0x72657373 PUSH1 0xE0 SHL PUSH1 0x64 DUP3 ADD MSTORE PUSH1 0x84 ADD PUSH2 0x10C6 JUMP JUMPDEST PUSH1 0x1 PUSH1 0x1 PUSH1 0xA0 SHL SUB DUP3 AND PUSH2 0x40EF JUMPI PUSH1 0x40 MLOAD PUSH3 0x461BCD PUSH1 0xE5 SHL DUP2 MSTORE PUSH1 0x20 PUSH1 0x4 DUP3 ADD MSTORE PUSH1 0x22 PUSH1 0x24 DUP3 ADD MSTORE PUSH32 0x45524332303A20617070726F766520746F20746865207A65726F206164647265 PUSH1 0x44 DUP3 ADD MSTORE PUSH2 0x7373 PUSH1 0xF0 SHL PUSH1 0x64 DUP3 ADD MSTORE PUSH1 0x84 ADD PUSH2 0x10C6 JUMP JUMPDEST PUSH1 0x1 PUSH1 0x1 PUSH1 0xA0 SHL SUB DUP4 DUP2 AND PUSH1 0x0 DUP2 DUP2 MSTORE PUSH1 0x1 PUSH1 0x20 SWAP1 DUP2 MSTORE PUSH1 0x40 DUP1 DUP4 KECCAK256 SWAP5 DUP8 AND DUP1 DUP5 MSTORE SWAP5 DUP3 MSTORE SWAP2 DUP3 SWAP1 KECCAK256 DUP6 SWAP1 SSTORE SWAP1 MLOAD DUP5 DUP2 MSTORE PUSH32 0x8C5BE1E5EBEC7D5BD14F71427D1E84F3DD0314C0F7B2291E5B200AC8C7C3B925 SWAP2 ADD PUSH1 0x40 MLOAD DUP1 SWAP2 SUB SWAP1 LOG3 POP POP POP JUMP JUMPDEST PUSH1 0x40 DUP1 MLOAD PUSH1 0x0 DUP1 DUP3 MSTORE PUSH1 0x20 DUP3 ADD SWAP1 SWAP3 MSTORE PUSH1 0x1 PUSH1 0x1 PUSH1 0xA0 SHL SUB DUP5 AND SWAP1 DUP4 SWAP1 PUSH1 0x40 MLOAD PUSH2 0x417A SWAP2 SWAP1 PUSH2 0x5919 JUMP JUMPDEST PUSH1 0x0 PUSH1 0x40 MLOAD DUP1 DUP4 SUB DUP2 DUP6 DUP8 GAS CALL SWAP3 POP POP POP RETURNDATASIZE DUP1 PUSH1 0x0 DUP2 EQ PUSH2 0x41B7 JUMPI PUSH1 0x40 MLOAD SWAP2 POP PUSH1 0x1F NOT PUSH1 0x3F RETURNDATASIZE ADD AND DUP3 ADD PUSH1 0x40 MSTORE RETURNDATASIZE DUP3 MSTORE RETURNDATASIZE PUSH1 0x0 PUSH1 0x20 DUP5 ADD RETURNDATACOPY PUSH2 0x41BC JUMP JUMPDEST PUSH1 0x60 SWAP2 POP JUMPDEST POP POP SWAP1 POP DUP1 PUSH2 0x422A JUMPI PUSH1 0x40 MLOAD PUSH3 0x461BCD PUSH1 0xE5 SHL DUP2 MSTORE PUSH1 0x20 PUSH1 0x4 DUP3 ADD MSTORE PUSH1 0x34 PUSH1 0x24 DUP3 ADD MSTORE PUSH32 0x5472616E7366657248656C7065723A3A736166655472616E736665724554483A PUSH1 0x44 DUP3 ADD MSTORE PUSH20 0x8115512081D1C985B9CD9995C8819985A5B1959 PUSH1 0x62 SHL PUSH1 0x64 DUP3 ADD MSTORE PUSH1 0x84 ADD PUSH2 0x10C6 JUMP JUMPDEST POP POP POP JUMP JUMPDEST PUSH1 0x2 PUSH1 0x5 SLOAD EQ ISZERO PUSH2 0x4282 JUMPI PUSH1 0x40 MLOAD PUSH3 0x461BCD PUSH1 0xE5 SHL DUP2 MSTORE PUSH1 0x20 PUSH1 0x4 DUP3 ADD MSTORE PUSH1 0x1F PUSH1 0x24 DUP3 ADD MSTORE PUSH32 0x5265656E7472616E637947756172643A207265656E7472616E742063616C6C00 PUSH1 0x44 DUP3 ADD MSTORE PUSH1 0x64 ADD PUSH2 0x10C6 JUMP JUMPDEST PUSH1 0x2 PUSH1 0x5 SSTORE PUSH1 0x1 PUSH1 0x1 PUSH1 0xA0 SHL SUB DUP4 AND PUSH2 0x42F6 JUMPI PUSH1 0x40 MLOAD PUSH3 0x461BCD PUSH1 0xE5 SHL DUP2 MSTORE PUSH1 0x20 PUSH1 0x4 DUP3 ADD MSTORE PUSH1 0x30 PUSH1 0x24 DUP3 ADD MSTORE PUSH32 0x41424F41543A3A5F7472616E736665723A207472616E736665722066726F6D20 PUSH1 0x44 DUP3 ADD MSTORE PUSH16 0x746865207A65726F2061646472657373 PUSH1 0x80 SHL PUSH1 0x64 DUP3 ADD MSTORE PUSH1 0x84 ADD PUSH2 0x10C6 JUMP JUMPDEST PUSH1 0x1 PUSH1 0x1 PUSH1 0xA0 SHL SUB DUP3 AND PUSH2 0x4363 JUMPI PUSH1 0x40 MLOAD PUSH3 0x461BCD PUSH1 0xE5 SHL DUP2 MSTORE PUSH1 0x20 PUSH1 0x4 DUP3 ADD MSTORE PUSH1 0x2E PUSH1 0x24 DUP3 ADD MSTORE PUSH32 0x41424F41543A3A5F7472616E736665723A207472616E7366657220746F207468 PUSH1 0x44 DUP3 ADD MSTORE PUSH14 0x65207A65726F2061646472657373 PUSH1 0x90 SHL PUSH1 0x64 DUP3 ADD MSTORE PUSH1 0x84 ADD PUSH2 0x10C6 JUMP JUMPDEST PUSH1 0x0 DUP2 GT PUSH2 0x43D9 JUMPI PUSH1 0x40 MLOAD PUSH3 0x461BCD PUSH1 0xE5 SHL DUP2 MSTORE PUSH1 0x20 PUSH1 0x4 DUP3 ADD MSTORE PUSH1 0x3A PUSH1 0x24 DUP3 ADD MSTORE PUSH32 0x41424F41543A3A5F7472616E736665723A5472616E7366657220616D6F756E74 PUSH1 0x44 DUP3 ADD MSTORE PUSH32 0x206D7573742062652067726561746572207468616E207A65726F000000000000 PUSH1 0x64 DUP3 ADD MSTORE PUSH1 0x84 ADD PUSH2 0x10C6 JUMP JUMPDEST PUSH1 0x1 PUSH1 0x1 PUSH1 0xA0 SHL SUB DUP4 AND PUSH1 0x0 SWAP1 DUP2 MSTORE PUSH1 0x20 DUP2 SWAP1 MSTORE PUSH1 0x40 SWAP1 KECCAK256 SLOAD DUP2 GT ISZERO PUSH2 0x4477 JUMPI PUSH1 0x40 MLOAD PUSH3 0x461BCD PUSH1 0xE5 SHL DUP2 MSTORE PUSH1 0x20 PUSH1 0x4 DUP3 ADD MSTORE PUSH1 0x47 PUSH1 0x24 DUP3 ADD MSTORE PUSH32 0x41424F41543A3A5F7472616E736665723A5472616E7366657220616D6F756E74 PUSH1 0x44 DUP3 ADD MSTORE PUSH32 0x206D757374206265206C6F776572206F7220657175616C2073656E6465727320 PUSH1 0x64 DUP3 ADD MSTORE PUSH7 0x62616C616E6365 PUSH1 0xC8 SHL PUSH1 0x84 DUP3 ADD MSTORE PUSH1 0xA4 ADD PUSH2 0x10C6 JUMP JUMPDEST PUSH1 0x1 PUSH1 0x1 PUSH1 0xA0 SHL SUB DUP4 AND PUSH1 0x0 SWAP1 DUP2 MSTORE PUSH1 0x1A PUSH1 0x20 MSTORE PUSH1 0x40 SWAP1 KECCAK256 SLOAD PUSH1 0xFF AND ISZERO PUSH2 0x455E JUMPI PUSH1 0x40 MLOAD PUSH3 0x461BCD PUSH1 0xE5 SHL DUP2 MSTORE PUSH1 0x20 PUSH1 0x4 DUP3 ADD MSTORE PUSH1 0x83 PUSH1 0x24 DUP3 ADD MSTORE PUSH32 0x41424F41543A3A5F7472616E736665723A596F752772652063757272656E746C PUSH1 0x44 DUP3 ADD MSTORE PUSH32 0x7920626C61636B6C69737465642E20506C65617365207265706F727420746F20 PUSH1 0x64 DUP3 ADD MSTORE PUSH32 0x736572766963654074616C6B61626F61742E6F6E6C696E6520696620796F7520 PUSH1 0x84 DUP3 ADD MSTORE PUSH32 0x77616E7420746F206765742072656D6F7665642066726F6D20626C61636B6C69 PUSH1 0xA4 DUP3 ADD MSTORE PUSH3 0x737421 PUSH1 0xE8 SHL PUSH1 0xC4 DUP3 ADD MSTORE PUSH1 0xE4 ADD PUSH2 0x10C6 JUMP JUMPDEST PUSH1 0x12 SLOAD PUSH2 0xFFFF PUSH3 0x10000 SWAP1 SWAP2 DIV AND PUSH2 0x4575 PUSH1 0x2 SLOAD SWAP1 JUMP JUMPDEST PUSH2 0x4581 DUP4 PUSH2 0x2710 PUSH2 0x5AEF JUMP JUMPDEST PUSH2 0x458B SWAP2 SWAP1 PUSH2 0x5ACD JUMP JUMPDEST GT ISZERO DUP1 PUSH2 0x45A5 JUMPI POP PUSH1 0x6 SLOAD PUSH1 0x1 PUSH1 0x1 PUSH1 0xA0 SHL SUB DUP5 DUP2 AND SWAP2 AND EQ JUMPDEST DUP1 PUSH2 0x45BD JUMPI POP PUSH1 0x8 SLOAD PUSH1 0x1 PUSH1 0x1 PUSH1 0xA0 SHL SUB DUP5 DUP2 AND SWAP2 AND EQ JUMPDEST DUP1 PUSH2 0x45E0 JUMPI POP PUSH1 0x1 PUSH1 0x1 PUSH1 0xA0 SHL SUB DUP4 AND PUSH1 0x0 SWAP1 DUP2 MSTORE PUSH1 0xF PUSH1 0x20 MSTORE PUSH1 0x40 SWAP1 KECCAK256 SLOAD PUSH1 0xFF AND JUMPDEST DUP1 PUSH2 0x4603 JUMPI POP PUSH1 0x1 PUSH1 0x1 PUSH1 0xA0 SHL SUB DUP4 AND PUSH1 0x0 SWAP1 DUP2 MSTORE PUSH1 0x10 PUSH1 0x20 MSTORE PUSH1 0x40 SWAP1 KECCAK256 SLOAD PUSH1 0xFF AND JUMPDEST PUSH2 0x467F JUMPI PUSH1 0x40 MLOAD PUSH3 0x461BCD PUSH1 0xE5 SHL DUP2 MSTORE PUSH1 0x20 PUSH1 0x4 DUP3 ADD MSTORE PUSH1 0x41 PUSH1 0x24 DUP3 ADD MSTORE PUSH32 0x596F7572207472616E73666572206578636565647320746865206D6178696D75 PUSH1 0x44 DUP3 ADD MSTORE PUSH32 0x6D20706F737369626C6520616D6F756E7420706572207472616E73616374696F PUSH1 0x64 DUP3 ADD MSTORE PUSH1 0x37 PUSH1 0xF9 SHL PUSH1 0x84 DUP3 ADD MSTORE PUSH1 0xA4 ADD PUSH2 0x10C6 JUMP JUMPDEST PUSH1 0x12 SLOAD PUSH2 0xFFFF PUSH5 0x100000000 SWAP1 SWAP2 DIV AND PUSH2 0x4698 PUSH1 0x2 SLOAD SWAP1 JUMP JUMPDEST PUSH2 0x46A1 DUP5 PUSH2 0x28C6 JUMP JUMPDEST PUSH2 0x46AB SWAP1 DUP5 PUSH2 0x5AB5 JUMP JUMPDEST PUSH2 0x46B7 SWAP1 PUSH2 0x2710 PUSH2 0x5AEF JUMP JUMPDEST PUSH2 0x46C1 SWAP2 SWAP1 PUSH2 0x5ACD JUMP JUMPDEST GT ISZERO DUP1 PUSH2 0x46DB JUMPI POP PUSH1 0x6 SLOAD PUSH1 0x1 PUSH1 0x1 PUSH1 0xA0 SHL SUB DUP4 DUP2 AND SWAP2 AND EQ JUMPDEST DUP1 PUSH2 0x46F3 JUMPI POP PUSH1 0x8 SLOAD PUSH1 0x1 PUSH1 0x1 PUSH1 0xA0 SHL SUB DUP4 DUP2 AND SWAP2 AND EQ JUMPDEST DUP1 PUSH2 0x4706 JUMPI POP PUSH1 0x1 PUSH1 0x1 PUSH1 0xA0 SHL SUB DUP3 AND ADDRESS EQ JUMPDEST DUP1 PUSH2 0x4729 JUMPI POP PUSH1 0x1 PUSH1 0x1 PUSH1 0xA0 SHL SUB DUP3 AND PUSH1 0x0 SWAP1 DUP2 MSTORE PUSH1 0x10 PUSH1 0x20 MSTORE PUSH1 0x40 SWAP1 KECCAK256 SLOAD PUSH1 0xFF AND JUMPDEST DUP1 PUSH2 0x474C JUMPI POP PUSH1 0x1 PUSH1 0x1 PUSH1 0xA0 SHL SUB DUP3 AND PUSH1 0x0 SWAP1 DUP2 MSTORE PUSH1 0xF PUSH1 0x20 MSTORE PUSH1 0x40 SWAP1 KECCAK256 SLOAD PUSH1 0xFF AND JUMPDEST PUSH2 0x47C0 JUMPI PUSH1 0x40 DUP1 MLOAD PUSH3 0x461BCD PUSH1 0xE5 SHL DUP2 MSTORE PUSH1 0x20 PUSH1 0x4 DUP3 ADD MSTORE PUSH1 0x24 DUP2 ADD SWAP2 SWAP1 SWAP2 MSTORE PUSH32 0x41424F41543A3A5F7472616E736665723A42616C616E6365206F662072656369 PUSH1 0x44 DUP3 ADD MSTORE PUSH32 0x7069656E742063616E277420657863656564206D617841636342616C616E6365 PUSH1 0x64 DUP3 ADD MSTORE PUSH1 0x84 ADD PUSH2 0x10C6 JUMP JUMPDEST PUSH1 0x12 SLOAD PUSH1 0xFF AND DUP1 PUSH2 0x47DE JUMPI POP PUSH1 0x6 SLOAD PUSH1 0x1 PUSH1 0x1 PUSH1 0xA0 SHL SUB DUP5 DUP2 AND SWAP2 AND EQ JUMPDEST DUP1 PUSH2 0x47F6 JUMPI POP PUSH1 0x8 SLOAD PUSH1 0x1 PUSH1 0x1 PUSH1 0xA0 SHL SUB DUP5 DUP2 AND SWAP2 AND EQ JUMPDEST DUP1 PUSH2 0x4819 JUMPI POP PUSH1 0x1 PUSH1 0x1 PUSH1 0xA0 SHL SUB DUP3 AND PUSH1 0x0 SWAP1 DUP2 MSTORE PUSH1 0x10 PUSH1 0x20 MSTORE PUSH1 0x40 SWAP1 KECCAK256 SLOAD PUSH1 0xFF AND JUMPDEST DUP1 PUSH2 0x483C JUMPI POP PUSH1 0x1 PUSH1 0x1 PUSH1 0xA0 SHL SUB DUP4 AND PUSH1 0x0 SWAP1 DUP2 MSTORE PUSH1 0xF PUSH1 0x20 MSTORE PUSH1 0x40 SWAP1 KECCAK256 SLOAD PUSH1 0xFF AND JUMPDEST PUSH2 0x48AE JUMPI PUSH1 0x40 MLOAD PUSH3 0x461BCD PUSH1 0xE5 SHL DUP2 MSTORE PUSH1 0x20 PUSH1 0x4 DUP3 ADD MSTORE PUSH1 0x37 PUSH1 0x24 DUP3 ADD MSTORE PUSH32 0x41424F41543A3A5F7472616E736665723A436F6E7472616374206973206E6F74 PUSH1 0x44 DUP3 ADD MSTORE PUSH32 0x20796574206F70656E20666F7220636F6D6D756E697479000000000000000000 PUSH1 0x64 DUP3 ADD MSTORE PUSH1 0x84 ADD PUSH2 0x10C6 JUMP JUMPDEST PUSH1 0x12 SLOAD PUSH2 0x100 SWAP1 DIV PUSH1 0xFF AND ISZERO DUP1 PUSH2 0x48D2 JUMPI POP PUSH1 0x8 SLOAD PUSH1 0x1 PUSH1 0x1 PUSH1 0xA0 SHL SUB DUP5 DUP2 AND SWAP2 AND EQ JUMPDEST DUP1 PUSH2 0x48EA JUMPI POP PUSH1 0x6 SLOAD PUSH1 0x1 PUSH1 0x1 PUSH1 0xA0 SHL SUB DUP5 DUP2 AND SWAP2 AND EQ JUMPDEST DUP1 PUSH2 0x4930 JUMPI POP PUSH1 0x1 PUSH1 0x1 PUSH1 0xA0 SHL SUB DUP4 AND PUSH1 0x0 SWAP1 DUP2 MSTORE PUSH1 0xF PUSH1 0x20 MSTORE PUSH1 0x40 SWAP1 KECCAK256 SLOAD PUSH1 0xFF AND DUP1 ISZERO PUSH2 0x4930 JUMPI POP PUSH1 0x1 PUSH1 0x1 PUSH1 0xA0 SHL SUB DUP3 AND PUSH1 0x0 SWAP1 DUP2 MSTORE PUSH1 0x10 PUSH1 0x20 MSTORE PUSH1 0x40 SWAP1 KECCAK256 SLOAD PUSH1 0xFF AND JUMPDEST DUP1 ISZERO PUSH2 0x499E JUMPI POP PUSH1 0x1 PUSH1 0x1 PUSH1 0xA0 SHL SUB DUP3 AND ISZERO DUP1 PUSH2 0x4958 JUMPI POP PUSH1 0x8 SLOAD PUSH1 0x1 PUSH1 0xB0 SHL SWAP1 DIV PUSH2 0xFFFF AND ISZERO JUMPDEST DUP1 PUSH2 0x497B JUMPI POP PUSH1 0x1 PUSH1 0x1 PUSH1 0xA0 SHL SUB DUP3 AND PUSH1 0x0 SWAP1 DUP2 MSTORE PUSH1 0x10 PUSH1 0x20 MSTORE PUSH1 0x40 SWAP1 KECCAK256 SLOAD PUSH1 0xFF AND JUMPDEST DUP1 PUSH2 0x499E JUMPI POP PUSH1 0x1 PUSH1 0x1 PUSH1 0xA0 SHL SUB DUP4 AND PUSH1 0x0 SWAP1 DUP2 MSTORE PUSH1 0xF PUSH1 0x20 MSTORE PUSH1 0x40 SWAP1 KECCAK256 SLOAD PUSH1 0xFF AND JUMPDEST ISZERO PUSH2 0x49B3 JUMPI PUSH2 0x49AE DUP4 DUP4 DUP4 PUSH2 0x4F06 JUMP JUMPDEST PUSH2 0x4C44 JUMP JUMPDEST PUSH1 0x0 PUSH2 0x49CE PUSH2 0x2710 PUSH2 0x33C7 PUSH2 0x49C7 DUP8 PUSH2 0x165D JUMP JUMPDEST DUP6 SWAP1 PUSH2 0x4DA6 JUMP JUMPDEST PUSH1 0x8 SLOAD SWAP1 SWAP2 POP PUSH1 0x0 SWAP1 PUSH2 0x49F4 SWAP1 PUSH1 0x64 SWAP1 PUSH2 0x33C7 SWAP1 DUP6 SWAP1 PUSH1 0x1 PUSH1 0xC0 SHL SWAP1 DIV PUSH2 0xFFFF AND PUSH2 0x4DA6 JUMP JUMPDEST PUSH1 0x8 SLOAD SWAP1 SWAP2 POP PUSH1 0x0 SWAP1 PUSH2 0x4A1A SWAP1 PUSH1 0x64 SWAP1 PUSH2 0x33C7 SWAP1 DUP7 SWAP1 PUSH1 0x1 PUSH1 0xD0 SHL SWAP1 DIV PUSH2 0xFFFF AND PUSH2 0x4DA6 JUMP JUMPDEST PUSH1 0x8 SLOAD SWAP1 SWAP2 POP PUSH1 0x0 SWAP1 PUSH2 0x4A40 SWAP1 PUSH1 0x64 SWAP1 PUSH2 0x33C7 SWAP1 DUP8 SWAP1 PUSH1 0x1 PUSH1 0xE0 SHL SWAP1 DIV PUSH2 0xFFFF AND PUSH2 0x4DA6 JUMP JUMPDEST SWAP1 POP PUSH1 0x0 PUSH2 0x4A5C PUSH2 0x4A55 DUP4 PUSH2 0x296A DUP8 DUP8 PUSH2 0x4D9A JUMP JUMPDEST DUP7 SWAP1 PUSH2 0x4C56 JUMP JUMPDEST SWAP1 POP DUP2 DUP4 PUSH2 0x4A6A DUP4 DUP8 PUSH2 0x5AB5 JUMP JUMPDEST PUSH2 0x4A74 SWAP2 SWAP1 PUSH2 0x5AB5 JUMP JUMPDEST PUSH2 0x4A7E SWAP2 SWAP1 PUSH2 0x5AB5 JUMP JUMPDEST DUP6 EQ PUSH2 0x4AF2 JUMPI PUSH1 0x40 MLOAD PUSH3 0x461BCD PUSH1 0xE5 SHL DUP2 MSTORE PUSH1 0x20 PUSH1 0x4 DUP3 ADD MSTORE PUSH1 0x3F PUSH1 0x24 DUP3 ADD MSTORE PUSH32 0x41424F41543A3A7472616E736665723A2046656520616D6F756E7420646F6573 PUSH1 0x44 DUP3 ADD MSTORE PUSH32 0x206E6F7420657175616C207468652073706C69742066656520616D6F756E7400 PUSH1 0x64 DUP3 ADD MSTORE PUSH1 0x84 ADD PUSH2 0x10C6 JUMP JUMPDEST PUSH1 0x0 PUSH2 0x4AFE DUP8 DUP8 PUSH2 0x4C56 JUMP JUMPDEST SWAP1 POP PUSH2 0x4B0A DUP7 DUP3 PUSH2 0x5AB5 JUMP JUMPDEST DUP8 EQ PUSH2 0x4B96 JUMPI PUSH1 0x40 MLOAD PUSH3 0x461BCD PUSH1 0xE5 SHL DUP2 MSTORE PUSH1 0x20 PUSH1 0x4 DUP3 ADD MSTORE PUSH1 0x4F PUSH1 0x24 DUP3 ADD MSTORE PUSH32 0x41424F41543A3A7472616E736665723A20616D6F756E7420746F2073656E6420 PUSH1 0x44 DUP3 ADD MSTORE PUSH32 0x776974682074617820616D6F756E742065786365656473206D6178696D756D20 PUSH1 0x64 DUP3 ADD MSTORE PUSH15 0x1C1BDCDCDA589B1948185B5BDD5B9D PUSH1 0x8A SHL PUSH1 0x84 DUP3 ADD MSTORE PUSH1 0xA4 ADD PUSH2 0x10C6 JUMP JUMPDEST PUSH2 0x4BB5 DUP10 ADDRESS DUP6 PUSH2 0x4BA6 DUP9 DUP8 PUSH2 0x5AB5 JUMP JUMPDEST PUSH2 0x4BB0 SWAP2 SWAP1 PUSH2 0x5AB5 JUMP JUMPDEST PUSH2 0x4F06 JUMP JUMPDEST PUSH2 0x4BC0 DUP10 DUP10 DUP4 PUSH2 0x4F06 JUMP JUMPDEST PUSH1 0xC SLOAD PUSH2 0x4BD8 SWAP1 DUP11 SWAP1 PUSH1 0x1 PUSH1 0x1 PUSH1 0xA0 SHL SUB AND DUP8 PUSH2 0x4F06 JUMP JUMPDEST DUP1 SWAP7 POP DUP6 PUSH1 0x14 PUSH1 0x0 DUP3 DUP3 SLOAD PUSH2 0x4BED SWAP2 SWAP1 PUSH2 0x5AB5 JUMP JUMPDEST SWAP3 POP POP DUP2 SWAP1 SSTORE POP DUP4 PUSH1 0x15 PUSH1 0x0 DUP3 DUP3 SLOAD PUSH2 0x4C06 SWAP2 SWAP1 PUSH2 0x5AB5 JUMP JUMPDEST SWAP3 POP POP DUP2 SWAP1 SSTORE POP DUP3 PUSH1 0x16 PUSH1 0x0 DUP3 DUP3 SLOAD PUSH2 0x4C1F SWAP2 SWAP1 PUSH2 0x5AB5 JUMP JUMPDEST SWAP3 POP POP DUP2 SWAP1 SSTORE POP DUP2 PUSH1 0x18 PUSH1 0x0 DUP3 DUP3 SLOAD PUSH2 0x4C38 SWAP2 SWAP1 PUSH2 0x5AB5 JUMP JUMPDEST SWAP1 SWAP2 SSTORE POP POP POP POP POP POP POP POP JUMPDEST PUSH2 0x4C4C PUSH2 0x1985 JUMP JUMPDEST POP POP PUSH1 0x1 PUSH1 0x5 SSTORE POP JUMP JUMPDEST PUSH1 0x0 PUSH2 0x4C62 DUP3 DUP5 PUSH2 0x5B0E JUMP JUMPDEST SWAP4 SWAP3 POP POP POP JUMP JUMPDEST PUSH1 0x1 PUSH1 0x1 PUSH1 0xA0 SHL SUB DUP3 AND PUSH2 0x4CBF JUMPI PUSH1 0x40 MLOAD PUSH3 0x461BCD PUSH1 0xE5 SHL DUP2 MSTORE PUSH1 0x20 PUSH1 0x4 DUP3 ADD MSTORE PUSH1 0x1F PUSH1 0x24 DUP3 ADD MSTORE PUSH32 0x45524332303A206D696E7420746F20746865207A65726F206164647265737300 PUSH1 0x44 DUP3 ADD MSTORE PUSH1 0x64 ADD PUSH2 0x10C6 JUMP JUMPDEST DUP1 PUSH1 0x2 PUSH1 0x0 DUP3 DUP3 SLOAD PUSH2 0x4CD1 SWAP2 SWAP1 PUSH2 0x5AB5 JUMP JUMPDEST SWAP1 SWAP2 SSTORE POP POP PUSH1 0x1 PUSH1 0x1 PUSH1 0xA0 SHL SUB DUP3 AND PUSH1 0x0 SWAP1 DUP2 MSTORE PUSH1 0x20 DUP2 SWAP1 MSTORE PUSH1 0x40 DUP2 KECCAK256 DUP1 SLOAD DUP4 SWAP3 SWAP1 PUSH2 0x4CFE SWAP1 DUP5 SWAP1 PUSH2 0x5AB5 JUMP JUMPDEST SWAP1 SWAP2 SSTORE POP POP PUSH1 0x40 MLOAD DUP2 DUP2 MSTORE PUSH1 0x1 PUSH1 0x1 PUSH1 0xA0 SHL SUB DUP4 AND SWAP1 PUSH1 0x0 SWAP1 PUSH32 0xDDF252AD1BE2C89B69C2B068FC378DAA952BA7F163C4A11628F55A4DF523B3EF SWAP1 PUSH1 0x20 ADD PUSH1 0x40 MLOAD DUP1 SWAP2 SUB SWAP1 LOG3 POP POP JUMP JUMPDEST PUSH1 0x6 DUP1 SLOAD PUSH1 0x1 PUSH1 0x1 PUSH1 0xA0 SHL SUB DUP4 DUP2 AND PUSH1 0x1 PUSH1 0x1 PUSH1 0xA0 SHL SUB NOT DUP4 AND DUP2 OR SWAP1 SWAP4 SSTORE PUSH1 0x40 MLOAD SWAP2 AND SWAP2 SWAP1 DUP3 SWAP1 PUSH32 0x8BE0079C531659141344CD1FD0A4F28419497F9722A3DAAFE3B4186F6B6457E0 SWAP1 PUSH1 0x0 SWAP1 LOG3 POP POP JUMP JUMPDEST PUSH1 0x0 PUSH2 0x4C62 DUP3 DUP5 PUSH2 0x5AB5 JUMP JUMPDEST PUSH1 0x0 PUSH2 0x4C62 DUP3 DUP5 PUSH2 0x5AEF JUMP JUMPDEST PUSH1 0x0 PUSH2 0x4C62 DUP3 DUP5 PUSH2 0x5ACD JUMP JUMPDEST PUSH1 0x0 PUSH2 0x4DC9 DUP4 PUSH2 0x50D4 JUMP JUMPDEST SWAP1 POP DUP1 ISZERO PUSH2 0x422A JUMPI PUSH2 0x422A DUP3 DUP3 PUSH2 0x517B JUMP JUMPDEST DUP3 PUSH1 0x0 PUSH2 0x4DE7 DUP5 PUSH2 0x50D4 JUMP JUMPDEST PUSH1 0x40 MLOAD PUSH4 0x70A08231 PUSH1 0xE0 SHL DUP2 MSTORE ADDRESS PUSH1 0x4 DUP3 ADD MSTORE SWAP1 SWAP2 POP PUSH1 0x0 SWAP1 PUSH1 0x1 PUSH1 0x1 PUSH1 0xA0 SHL SUB DUP5 AND SWAP1 PUSH4 0x70A08231 SWAP1 PUSH1 0x24 ADD PUSH1 0x20 PUSH1 0x40 MLOAD DUP1 DUP4 SUB DUP2 DUP7 DUP1 EXTCODESIZE ISZERO DUP1 ISZERO PUSH2 0x4E2C JUMPI PUSH1 0x0 DUP1 REVERT JUMPDEST POP GAS STATICCALL ISZERO DUP1 ISZERO PUSH2 0x4E40 JUMPI RETURNDATASIZE PUSH1 0x0 DUP1 RETURNDATACOPY RETURNDATASIZE PUSH1 0x0 REVERT JUMPDEST POP POP POP POP PUSH1 0x40 MLOAD RETURNDATASIZE PUSH1 0x1F NOT PUSH1 0x1F DUP3 ADD AND DUP3 ADD DUP1 PUSH1 0x40 MSTORE POP DUP2 ADD SWAP1 PUSH2 0x4E64 SWAP2 SWAP1 PUSH2 0x588E JUMP JUMPDEST SWAP1 POP PUSH2 0x4E70 DUP3 DUP8 PUSH2 0x523B JUMP JUMPDEST PUSH1 0x40 MLOAD PUSH4 0x70A08231 PUSH1 0xE0 SHL DUP2 MSTORE ADDRESS PUSH1 0x4 DUP3 ADD MSTORE PUSH1 0x0 SWAP1 PUSH2 0x4EF0 SWAP1 DUP4 SWAP1 PUSH1 0x1 PUSH1 0x1 PUSH1 0xA0 SHL SUB DUP8 AND SWAP1 PUSH4 0x70A08231 SWAP1 PUSH1 0x24 ADD PUSH1 0x20 PUSH1 0x40 MLOAD DUP1 DUP4 SUB DUP2 DUP7 DUP1 EXTCODESIZE ISZERO DUP1 ISZERO PUSH2 0x4EB8 JUMPI PUSH1 0x0 DUP1 REVERT JUMPDEST POP GAS STATICCALL ISZERO DUP1 ISZERO PUSH2 0x4ECC JUMPI RETURNDATASIZE PUSH1 0x0 DUP1 RETURNDATACOPY RETURNDATASIZE PUSH1 0x0 REVERT JUMPDEST POP POP POP POP PUSH1 0x40 MLOAD RETURNDATASIZE PUSH1 0x1F NOT PUSH1 0x1F DUP3 ADD AND DUP3 ADD DUP1 PUSH1 0x40 MSTORE POP DUP2 ADD SWAP1 PUSH2 0x1657 SWAP2 SWAP1 PUSH2 0x588E JUMP JUMPDEST SWAP1 POP PUSH2 0x4EFD DUP6 DUP3 DUP10 PUSH2 0x539C JUMP JUMPDEST POP POP POP POP POP POP POP JUMP JUMPDEST PUSH1 0x1 PUSH1 0x1 PUSH1 0xA0 SHL SUB DUP4 AND PUSH2 0x4F6A JUMPI PUSH1 0x40 MLOAD PUSH3 0x461BCD PUSH1 0xE5 SHL DUP2 MSTORE PUSH1 0x20 PUSH1 0x4 DUP3 ADD MSTORE PUSH1 0x25 PUSH1 0x24 DUP3 ADD MSTORE PUSH32 0x45524332303A207472616E736665722066726F6D20746865207A65726F206164 PUSH1 0x44 DUP3 ADD MSTORE PUSH5 0x6472657373 PUSH1 0xD8 SHL PUSH1 0x64 DUP3 ADD MSTORE PUSH1 0x84 ADD PUSH2 0x10C6 JUMP JUMPDEST PUSH1 0x1 PUSH1 0x1 PUSH1 0xA0 SHL SUB DUP3 AND PUSH2 0x4FCC JUMPI PUSH1 0x40 MLOAD PUSH3 0x461BCD PUSH1 0xE5 SHL DUP2 MSTORE PUSH1 0x20 PUSH1 0x4 DUP3 ADD MSTORE PUSH1 0x23 PUSH1 0x24 DUP3 ADD MSTORE PUSH32 0x45524332303A207472616E7366657220746F20746865207A65726F2061646472 PUSH1 0x44 DUP3 ADD MSTORE PUSH3 0x657373 PUSH1 0xE8 SHL PUSH1 0x64 DUP3 ADD MSTORE PUSH1 0x84 ADD PUSH2 0x10C6 JUMP JUMPDEST PUSH1 0x1 PUSH1 0x1 PUSH1 0xA0 SHL SUB DUP4 AND PUSH1 0x0 SWAP1 DUP2 MSTORE PUSH1 0x20 DUP2 SWAP1 MSTORE PUSH1 0x40 SWAP1 KECCAK256 SLOAD DUP2 DUP2 LT ISZERO PUSH2 0x5044 JUMPI PUSH1 0x40 MLOAD PUSH3 0x461BCD PUSH1 0xE5 SHL DUP2 MSTORE PUSH1 0x20 PUSH1 0x4 DUP3 ADD MSTORE PUSH1 0x26 PUSH1 0x24 DUP3 ADD MSTORE PUSH32 0x45524332303A207472616E7366657220616D6F756E7420657863656564732062 PUSH1 0x44 DUP3 ADD MSTORE PUSH6 0x616C616E6365 PUSH1 0xD0 SHL PUSH1 0x64 DUP3 ADD MSTORE PUSH1 0x84 ADD PUSH2 0x10C6 JUMP JUMPDEST PUSH1 0x1 PUSH1 0x1 PUSH1 0xA0 SHL SUB DUP1 DUP6 AND PUSH1 0x0 SWAP1 DUP2 MSTORE PUSH1 0x20 DUP2 SWAP1 MSTORE PUSH1 0x40 DUP1 DUP3 KECCAK256 DUP6 DUP6 SUB SWAP1 SSTORE SWAP2 DUP6 AND DUP2 MSTORE SWAP1 DUP2 KECCAK256 DUP1 SLOAD DUP5 SWAP3 SWAP1 PUSH2 0x507B SWAP1 DUP5 SWAP1 PUSH2 0x5AB5 JUMP JUMPDEST SWAP3 POP POP DUP2 SWAP1 SSTORE POP DUP3 PUSH1 0x1 PUSH1 0x1 PUSH1 0xA0 SHL SUB AND DUP5 PUSH1 0x1 PUSH1 0x1 PUSH1 0xA0 SHL SUB AND PUSH32 0xDDF252AD1BE2C89B69C2B068FC378DAA952BA7F163C4A11628F55A4DF523B3EF DUP5 PUSH1 0x40 MLOAD PUSH2 0x50C7 SWAP2 DUP2 MSTORE PUSH1 0x20 ADD SWAP1 JUMP JUMPDEST PUSH1 0x40 MLOAD DUP1 SWAP2 SUB SWAP1 LOG3 PUSH2 0x19FA JUMP JUMPDEST PUSH1 0x0 SELFBALANCE PUSH2 0x50E0 DUP4 PUSH2 0x54F1 JUMP JUMPDEST PUSH1 0x0 PUSH2 0x50EC SELFBALANCE DUP4 PUSH2 0x4C56 JUMP JUMPDEST PUSH1 0x8 SLOAD SWAP1 SWAP2 POP PUSH1 0x0 SWAP1 PUSH2 0x5112 SWAP1 PUSH1 0x64 SWAP1 PUSH2 0x33C7 SWAP1 DUP6 SWAP1 PUSH1 0x1 PUSH1 0xD0 SHL SWAP1 DIV PUSH2 0xFFFF AND PUSH2 0x4DA6 JUMP JUMPDEST PUSH1 0x8 SLOAD SWAP1 SWAP2 POP PUSH1 0x0 SWAP1 PUSH2 0x5138 SWAP1 PUSH1 0x64 SWAP1 PUSH2 0x33C7 SWAP1 DUP7 SWAP1 PUSH1 0x1 PUSH1 0xE0 SHL SWAP1 DIV PUSH2 0xFFFF AND PUSH2 0x4DA6 JUMP JUMPDEST PUSH1 0xA SLOAD SWAP1 SWAP2 POP PUSH2 0x5151 SWAP1 PUSH1 0x1 PUSH1 0x1 PUSH1 0xA0 SHL SUB AND DUP4 PUSH2 0x4150 JUMP JUMPDEST PUSH1 0xB SLOAD PUSH2 0x5167 SWAP1 PUSH1 0x1 PUSH1 0x1 PUSH1 0xA0 SHL SUB AND DUP3 PUSH2 0x4150 JUMP JUMPDEST PUSH2 0x5171 SELFBALANCE DUP6 PUSH2 0x4C56 JUMP JUMPDEST SWAP7 SWAP6 POP POP POP POP POP POP JUMP JUMPDEST PUSH1 0xE SLOAD PUSH2 0x5193 SWAP1 ADDRESS SWAP1 PUSH1 0x1 PUSH1 0x1 PUSH1 0xA0 SHL SUB AND DUP5 PUSH2 0x402C JUMP JUMPDEST PUSH1 0xE SLOAD PUSH1 0x40 MLOAD PUSH4 0xF305D719 PUSH1 0xE0 SHL DUP2 MSTORE ADDRESS PUSH1 0x4 DUP3 ADD MSTORE PUSH1 0x24 DUP2 ADD DUP5 SWAP1 MSTORE PUSH1 0x0 PUSH1 0x44 DUP3 ADD DUP2 SWAP1 MSTORE PUSH1 0x64 DUP3 ADD DUP2 SWAP1 MSTORE PUSH1 0x84 DUP3 ADD MSTORE TIMESTAMP PUSH1 0xA4 DUP3 ADD MSTORE PUSH1 0x1 PUSH1 0x1 PUSH1 0xA0 SHL SUB SWAP1 SWAP2 AND SWAP1 PUSH4 0xF305D719 SWAP1 DUP4 SWAP1 PUSH1 0xC4 ADD PUSH1 0x60 PUSH1 0x40 MLOAD DUP1 DUP4 SUB DUP2 DUP6 DUP9 DUP1 EXTCODESIZE ISZERO DUP1 ISZERO PUSH2 0x51FB JUMPI PUSH1 0x0 DUP1 REVERT JUMPDEST POP GAS CALL ISZERO DUP1 ISZERO PUSH2 0x520F JUMPI RETURNDATASIZE PUSH1 0x0 DUP1 RETURNDATACOPY RETURNDATASIZE PUSH1 0x0 REVERT JUMPDEST POP POP POP POP POP PUSH1 0x40 MLOAD RETURNDATASIZE PUSH1 0x1F NOT PUSH1 0x1F DUP3 ADD AND DUP3 ADD DUP1 PUSH1 0x40 MSTORE POP DUP2 ADD SWAP1 PUSH2 0x5234 SWAP2 SWAP1 PUSH2 0x58A7 JUMP JUMPDEST POP POP POP POP POP JUMP JUMPDEST PUSH1 0x40 DUP1 MLOAD PUSH1 0x2 DUP1 DUP3 MSTORE PUSH1 0x60 DUP3 ADD DUP4 MSTORE PUSH1 0x0 SWAP3 PUSH1 0x20 DUP4 ADD SWAP1 DUP1 CALLDATASIZE DUP4 CALLDATACOPY POP POP PUSH1 0xE SLOAD PUSH1 0x40 DUP1 MLOAD PUSH4 0x15AB88C9 PUSH1 0xE3 SHL DUP2 MSTORE SWAP1 MLOAD SWAP4 SWAP5 POP PUSH1 0x1 PUSH1 0x1 PUSH1 0xA0 SHL SUB SWAP1 SWAP2 AND SWAP3 PUSH4 0xAD5C4648 SWAP3 POP PUSH1 0x4 DUP1 DUP4 ADD SWAP3 PUSH1 0x20 SWAP3 SWAP2 SWAP1 DUP3 SWAP1 SUB ADD DUP2 DUP7 DUP1 EXTCODESIZE ISZERO DUP1 ISZERO PUSH2 0x52A0 JUMPI PUSH1 0x0 DUP1 REVERT JUMPDEST POP GAS STATICCALL ISZERO DUP1 ISZERO PUSH2 0x52B4 JUMPI RETURNDATASIZE PUSH1 0x0 DUP1 RETURNDATACOPY RETURNDATASIZE PUSH1 0x0 REVERT JUMPDEST POP POP POP POP PUSH1 0x40 MLOAD RETURNDATASIZE PUSH1 0x1F NOT PUSH1 0x1F DUP3 ADD AND DUP3 ADD DUP1 PUSH1 0x40 MSTORE POP DUP2 ADD SWAP1 PUSH2 0x52D8 SWAP2 SWAP1 PUSH2 0x5681 JUMP JUMPDEST DUP2 PUSH1 0x0 DUP2 MLOAD DUP2 LT PUSH2 0x52EB JUMPI PUSH2 0x52EB PUSH2 0x5BA2 JUMP JUMPDEST PUSH1 0x20 MUL PUSH1 0x20 ADD ADD SWAP1 PUSH1 0x1 PUSH1 0x1 PUSH1 0xA0 SHL SUB AND SWAP1 DUP2 PUSH1 0x1 PUSH1 0x1 PUSH1 0xA0 SHL SUB AND DUP2 MSTORE POP POP DUP2 DUP2 PUSH1 0x1 DUP2 MLOAD DUP2 LT PUSH2 0x531F JUMPI PUSH2 0x531F PUSH2 0x5BA2 JUMP JUMPDEST PUSH1 0x1 PUSH1 0x1 PUSH1 0xA0 SHL SUB SWAP3 DUP4 AND PUSH1 0x20 SWAP2 DUP3 MUL SWAP3 SWAP1 SWAP3 ADD ADD MSTORE PUSH1 0xE SLOAD PUSH1 0x40 MLOAD PUSH4 0xB6F9DE95 PUSH1 0xE0 SHL DUP2 MSTORE SWAP2 AND SWAP1 PUSH4 0xB6F9DE95 SWAP1 DUP6 SWAP1 PUSH2 0x5365 SWAP1 PUSH1 0x0 SWAP1 DUP7 SWAP1 ADDRESS SWAP1 TIMESTAMP SWAP1 PUSH1 0x4 ADD PUSH2 0x5935 JUMP JUMPDEST PUSH1 0x0 PUSH1 0x40 MLOAD DUP1 DUP4 SUB DUP2 DUP6 DUP9 DUP1 EXTCODESIZE ISZERO DUP1 ISZERO PUSH2 0x537E JUMPI PUSH1 0x0 DUP1 REVERT JUMPDEST POP GAS CALL ISZERO DUP1 ISZERO PUSH2 0x5392 JUMPI RETURNDATASIZE PUSH1 0x0 DUP1 RETURNDATACOPY RETURNDATASIZE PUSH1 0x0 REVERT JUMPDEST POP POP POP POP POP POP POP POP JUMP JUMPDEST PUSH1 0xE SLOAD PUSH2 0x53B4 SWAP1 ADDRESS SWAP1 PUSH1 0x1 PUSH1 0x1 PUSH1 0xA0 SHL SUB AND DUP6 PUSH2 0x402C JUMP JUMPDEST PUSH1 0xE SLOAD PUSH1 0x40 MLOAD PUSH4 0x95EA7B3 PUSH1 0xE0 SHL DUP2 MSTORE PUSH1 0x1 PUSH1 0x1 PUSH1 0xA0 SHL SUB SWAP2 DUP3 AND PUSH1 0x4 DUP3 ADD MSTORE PUSH1 0x24 DUP2 ADD DUP5 SWAP1 MSTORE SWAP1 DUP3 AND SWAP1 PUSH4 0x95EA7B3 SWAP1 PUSH1 0x44 ADD PUSH1 0x20 PUSH1 0x40 MLOAD DUP1 DUP4 SUB DUP2 PUSH1 0x0 DUP8 DUP1 EXTCODESIZE ISZERO DUP1 ISZERO PUSH2 0x5402 JUMPI PUSH1 0x0 DUP1 REVERT JUMPDEST POP GAS CALL ISZERO DUP1 ISZERO PUSH2 0x5416 JUMPI RETURNDATASIZE PUSH1 0x0 DUP1 RETURNDATACOPY RETURNDATASIZE PUSH1 0x0 REVERT JUMPDEST POP POP POP POP PUSH1 0x40 MLOAD RETURNDATASIZE PUSH1 0x1F NOT PUSH1 0x1F DUP3 ADD AND DUP3 ADD DUP1 PUSH1 0x40 MSTORE POP DUP2 ADD SWAP1 PUSH2 0x543A SWAP2 SWAP1 PUSH2 0x5744 JUMP JUMPDEST POP PUSH1 0xE SLOAD PUSH1 0x40 MLOAD PUSH3 0xE8E337 PUSH1 0xE8 SHL DUP2 MSTORE ADDRESS PUSH1 0x4 DUP3 ADD MSTORE PUSH1 0x1 PUSH1 0x1 PUSH1 0xA0 SHL SUB DUP4 DUP2 AND PUSH1 0x24 DUP4 ADD MSTORE PUSH1 0x44 DUP3 ADD DUP7 SWAP1 MSTORE PUSH1 0x64 DUP3 ADD DUP6 SWAP1 MSTORE PUSH1 0x0 PUSH1 0x84 DUP4 ADD DUP2 SWAP1 MSTORE PUSH1 0xA4 DUP4 ADD DUP2 SWAP1 MSTORE PUSH1 0xC4 DUP4 ADD MSTORE TIMESTAMP PUSH1 0xE4 DUP4 ADD MSTORE SWAP1 SWAP2 AND SWAP1 PUSH4 0xE8E33700 SWAP1 PUSH2 0x104 ADD PUSH1 0x60 PUSH1 0x40 MLOAD DUP1 DUP4 SUB DUP2 PUSH1 0x0 DUP8 DUP1 EXTCODESIZE ISZERO DUP1 ISZERO PUSH2 0x54B1 JUMPI PUSH1 0x0 DUP1 REVERT JUMPDEST POP GAS CALL ISZERO DUP1 ISZERO PUSH2 0x54C5 JUMPI RETURNDATASIZE PUSH1 0x0 DUP1 RETURNDATACOPY RETURNDATASIZE PUSH1 0x0 REVERT JUMPDEST POP POP POP POP PUSH1 0x40 MLOAD RETURNDATASIZE PUSH1 0x1F NOT PUSH1 0x1F DUP3 ADD AND DUP3 ADD DUP1 PUSH1 0x40 MSTORE POP DUP2 ADD SWAP1 PUSH2 0x54E9 SWAP2 SWAP1 PUSH2 0x58A7 JUMP JUMPDEST POP POP POP POP POP POP JUMP JUMPDEST PUSH1 0x40 DUP1 MLOAD PUSH1 0x2 DUP1 DUP3 MSTORE PUSH1 0x60 DUP3 ADD DUP4 MSTORE PUSH1 0x0 SWAP3 PUSH1 0x20 DUP4 ADD SWAP1 DUP1 CALLDATASIZE DUP4 CALLDATACOPY ADD SWAP1 POP POP SWAP1 POP ADDRESS DUP2 PUSH1 0x0 DUP2 MLOAD DUP2 LT PUSH2 0x5526 JUMPI PUSH2 0x5526 PUSH2 0x5BA2 JUMP JUMPDEST PUSH1 0x1 PUSH1 0x1 PUSH1 0xA0 SHL SUB SWAP3 DUP4 AND PUSH1 0x20 SWAP2 DUP3 MUL SWAP3 SWAP1 SWAP3 ADD DUP2 ADD SWAP2 SWAP1 SWAP2 MSTORE PUSH1 0xE SLOAD PUSH1 0x40 DUP1 MLOAD PUSH4 0x15AB88C9 PUSH1 0xE3 SHL DUP2 MSTORE SWAP1 MLOAD SWAP2 SWAP1 SWAP4 AND SWAP3 PUSH4 0xAD5C4648 SWAP3 PUSH1 0x4 DUP1 DUP4 ADD SWAP4 SWAP2 SWAP3 DUP3 SWAP1 SUB ADD DUP2 DUP7 DUP1 EXTCODESIZE ISZERO DUP1 ISZERO PUSH2 0x557A JUMPI PUSH1 0x0 DUP1 REVERT JUMPDEST POP GAS STATICCALL ISZERO DUP1 ISZERO PUSH2 0x558E JUMPI RETURNDATASIZE PUSH1 0x0 DUP1 RETURNDATACOPY RETURNDATASIZE PUSH1 0x0 REVERT JUMPDEST POP POP POP POP PUSH1 0x40 MLOAD RETURNDATASIZE PUSH1 0x1F NOT PUSH1 0x1F DUP3 ADD AND DUP3 ADD DUP1 PUSH1 0x40 MSTORE POP DUP2 ADD SWAP1 PUSH2 0x55B2 SWAP2 SWAP1 PUSH2 0x5681 JUMP JUMPDEST DUP2 PUSH1 0x1 DUP2 MLOAD DUP2 LT PUSH2 0x55C5 JUMPI PUSH2 0x55C5 PUSH2 0x5BA2 JUMP JUMPDEST PUSH1 0x1 PUSH1 0x1 PUSH1 0xA0 SHL SUB SWAP3 DUP4 AND PUSH1 0x20 SWAP2 DUP3 MUL SWAP3 SWAP1 SWAP3 ADD ADD MSTORE PUSH1 0xE SLOAD PUSH2 0x55EB SWAP2 ADDRESS SWAP2 AND DUP5 PUSH2 0x402C JUMP JUMPDEST PUSH1 0xE SLOAD PUSH1 0x40 MLOAD PUSH4 0x791AC947 PUSH1 0xE0 SHL DUP2 MSTORE PUSH1 0x1 PUSH1 0x1 PUSH1 0xA0 SHL SUB SWAP1 SWAP2 AND SWAP1 PUSH4 0x791AC947 SWAP1 PUSH2 0x5624 SWAP1 DUP6 SWAP1 PUSH1 0x0 SWAP1 DUP7 SWAP1 ADDRESS SWAP1 TIMESTAMP SWAP1 PUSH1 0x4 ADD PUSH2 0x5A53 JUMP JUMPDEST PUSH1 0x0 PUSH1 0x40 MLOAD DUP1 DUP4 SUB DUP2 PUSH1 0x0 DUP8 DUP1 EXTCODESIZE ISZERO DUP1 ISZERO PUSH2 0x563E JUMPI PUSH1 0x0 DUP1 REVERT JUMPDEST POP GAS CALL ISZERO DUP1 ISZERO PUSH2 0x54E9 JUMPI RETURNDATASIZE PUSH1 0x0 DUP1 RETURNDATACOPY RETURNDATASIZE PUSH1 0x0 REVERT JUMPDEST DUP1 CALLDATALOAD PUSH2 0xFFFF DUP2 AND DUP2 EQ PUSH2 0x17ED JUMPI PUSH1 0x0 DUP1 REVERT JUMPDEST PUSH1 0x0 PUSH1 0x20 DUP3 DUP5 SUB SLT ISZERO PUSH2 0x5676 JUMPI PUSH1 0x0 DUP1 REVERT JUMPDEST DUP2 CALLDATALOAD PUSH2 0x4C62 DUP2 PUSH2 0x5BCE JUMP JUMPDEST PUSH1 0x0 PUSH1 0x20 DUP3 DUP5 SUB SLT ISZERO PUSH2 0x5693 JUMPI PUSH1 0x0 DUP1 REVERT JUMPDEST DUP2 MLOAD PUSH2 0x4C62 DUP2 PUSH2 0x5BCE JUMP JUMPDEST PUSH1 0x0 DUP1 PUSH1 0x40 DUP4 DUP6 SUB SLT ISZERO PUSH2 0x56B1 JUMPI PUSH1 0x0 DUP1 REVERT JUMPDEST DUP3 CALLDATALOAD PUSH2 0x56BC DUP2 PUSH2 0x5BCE JUMP JUMPDEST SWAP2 POP PUSH1 0x20 DUP4 ADD CALLDATALOAD PUSH2 0x56CC DUP2 PUSH2 0x5BCE JUMP JUMPDEST DUP1 SWAP2 POP POP SWAP3 POP SWAP3 SWAP1 POP JUMP JUMPDEST PUSH1 0x0 DUP1 PUSH1 0x0 PUSH1 0x60 DUP5 DUP7 SUB SLT ISZERO PUSH2 0x56EC JUMPI PUSH1 0x0 DUP1 REVERT JUMPDEST DUP4 CALLDATALOAD PUSH2 0x56F7 DUP2 PUSH2 0x5BCE JUMP JUMPDEST SWAP3 POP PUSH1 0x20 DUP5 ADD CALLDATALOAD PUSH2 0x5707 DUP2 PUSH2 0x5BCE JUMP JUMPDEST SWAP3 SWAP6 SWAP3 SWAP5 POP POP POP PUSH1 0x40 SWAP2 SWAP1 SWAP2 ADD CALLDATALOAD SWAP1 JUMP JUMPDEST PUSH1 0x0 DUP1 PUSH1 0x40 DUP4 DUP6 SUB SLT ISZERO PUSH2 0x572B JUMPI PUSH1 0x0 DUP1 REVERT JUMPDEST DUP3 CALLDATALOAD PUSH2 0x5736 DUP2 PUSH2 0x5BCE JUMP JUMPDEST SWAP5 PUSH1 0x20 SWAP4 SWAP1 SWAP4 ADD CALLDATALOAD SWAP4 POP POP POP JUMP JUMPDEST PUSH1 0x0 PUSH1 0x20 DUP3 DUP5 SUB SLT ISZERO PUSH2 0x5756 JUMPI PUSH1 0x0 DUP1 REVERT JUMPDEST DUP2 MLOAD DUP1 ISZERO ISZERO DUP2 EQ PUSH2 0x4C62 JUMPI PUSH1 0x0 DUP1 REVERT JUMPDEST PUSH1 0x0 PUSH1 0x20 DUP3 DUP5 SUB SLT ISZERO PUSH2 0x5778 JUMPI PUSH1 0x0 DUP1 REVERT JUMPDEST DUP2 CALLDATALOAD PUSH8 0xFFFFFFFFFFFFFFFF DUP1 DUP3 GT ISZERO PUSH2 0x5790 JUMPI PUSH1 0x0 DUP1 REVERT JUMPDEST DUP2 DUP5 ADD SWAP2 POP DUP5 PUSH1 0x1F DUP4 ADD SLT PUSH2 0x57A4 JUMPI PUSH1 0x0 DUP1 REVERT JUMPDEST DUP2 CALLDATALOAD DUP2 DUP2 GT ISZERO PUSH2 0x57B6 JUMPI PUSH2 0x57B6 PUSH2 0x5BB8 JUMP JUMPDEST PUSH1 0x40 MLOAD PUSH1 0x1F DUP3 ADD PUSH1 0x1F NOT SWAP1 DUP2 AND PUSH1 0x3F ADD AND DUP2 ADD SWAP1 DUP4 DUP3 GT DUP2 DUP4 LT OR ISZERO PUSH2 0x57DE JUMPI PUSH2 0x57DE PUSH2 0x5BB8 JUMP JUMPDEST DUP2 PUSH1 0x40 MSTORE DUP3 DUP2 MSTORE DUP8 PUSH1 0x20 DUP5 DUP8 ADD ADD GT ISZERO PUSH2 0x57F7 JUMPI PUSH1 0x0 DUP1 REVERT JUMPDEST DUP3 PUSH1 0x20 DUP7 ADD PUSH1 0x20 DUP4 ADD CALLDATACOPY PUSH1 0x0 SWAP3 DUP2 ADD PUSH1 0x20 ADD SWAP3 SWAP1 SWAP3 MSTORE POP SWAP6 SWAP5 POP POP POP POP POP JUMP JUMPDEST PUSH1 0x0 PUSH1 0x20 DUP3 DUP5 SUB SLT ISZERO PUSH2 0x5829 JUMPI PUSH1 0x0 DUP1 REVERT JUMPDEST PUSH2 0x4C62 DUP3 PUSH2 0x5652 JUMP JUMPDEST PUSH1 0x0 DUP1 PUSH1 0x0 PUSH1 0x60 DUP5 DUP7 SUB SLT ISZERO PUSH2 0x5847 JUMPI PUSH1 0x0 DUP1 REVERT JUMPDEST PUSH2 0x5850 DUP5 PUSH2 0x5652 JUMP JUMPDEST SWAP3 POP PUSH2 0x585E PUSH1 0x20 DUP6 ADD PUSH2 0x5652 JUMP JUMPDEST SWAP2 POP PUSH2 0x586C PUSH1 0x40 DUP6 ADD PUSH2 0x5652 JUMP JUMPDEST SWAP1 POP SWAP3 POP SWAP3 POP SWAP3 JUMP JUMPDEST PUSH1 0x0 PUSH1 0x20 DUP3 DUP5 SUB SLT ISZERO PUSH2 0x5887 JUMPI PUSH1 0x0 DUP1 REVERT JUMPDEST POP CALLDATALOAD SWAP2 SWAP1 POP JUMP JUMPDEST PUSH1 0x0 PUSH1 0x20 DUP3 DUP5 SUB SLT ISZERO PUSH2 0x58A0 JUMPI PUSH1 0x0 DUP1 REVERT JUMPDEST POP MLOAD SWAP2 SWAP1 POP JUMP JUMPDEST PUSH1 0x0 DUP1 PUSH1 0x0 PUSH1 0x60 DUP5 DUP7 SUB SLT ISZERO PUSH2 0x58BC JUMPI PUSH1 0x0 DUP1 REVERT JUMPDEST DUP4 MLOAD SWAP3 POP PUSH1 0x20 DUP5 ADD MLOAD SWAP2 POP PUSH1 0x40 DUP5 ADD MLOAD SWAP1 POP SWAP3 POP SWAP3 POP SWAP3 JUMP JUMPDEST PUSH1 0x0 DUP2 MLOAD DUP1 DUP5 MSTORE PUSH1 0x20 DUP1 DUP6 ADD SWAP5 POP DUP1 DUP5 ADD PUSH1 0x0 JUMPDEST DUP4 DUP2 LT ISZERO PUSH2 0x590E JUMPI DUP2 MLOAD PUSH1 0x1 PUSH1 0x1 PUSH1 0xA0 SHL SUB AND DUP8 MSTORE SWAP6 DUP3 ADD SWAP6 SWAP1 DUP3 ADD SWAP1 PUSH1 0x1 ADD PUSH2 0x58E9 JUMP JUMPDEST POP SWAP5 SWAP6 SWAP5 POP POP POP POP POP JUMP JUMPDEST PUSH1 0x0 DUP3 MLOAD PUSH2 0x592B DUP2 DUP5 PUSH1 0x20 DUP8 ADD PUSH2 0x5B25 JUMP JUMPDEST SWAP2 SWAP1 SWAP2 ADD SWAP3 SWAP2 POP POP JUMP JUMPDEST DUP5 DUP2 MSTORE PUSH1 0x80 PUSH1 0x20 DUP3 ADD MSTORE PUSH1 0x0 PUSH2 0x594E PUSH1 0x80 DUP4 ADD DUP7 PUSH2 0x58D5 JUMP JUMPDEST PUSH1 0x1 PUSH1 0x1 PUSH1 0xA0 SHL SUB SWAP5 SWAP1 SWAP5 AND PUSH1 0x40 DUP4 ADD MSTORE POP PUSH1 0x60 ADD MSTORE SWAP3 SWAP2 POP POP JUMP JUMPDEST PUSH1 0x20 DUP2 MSTORE PUSH1 0x0 DUP3 MLOAD DUP1 PUSH1 0x20 DUP5 ADD MSTORE PUSH2 0x5989 DUP2 PUSH1 0x40 DUP6 ADD PUSH1 0x20 DUP8 ADD PUSH2 0x5B25 JUMP JUMPDEST PUSH1 0x1F ADD PUSH1 0x1F NOT AND SWAP2 SWAP1 SWAP2 ADD PUSH1 0x40 ADD SWAP3 SWAP2 POP POP JUMP JUMPDEST PUSH1 0x20 DUP1 DUP3 MSTORE DUP2 DUP2 ADD MSTORE PUSH32 0x4F776E61626C653A2063616C6C6572206973206E6F7420746865206F776E6572 PUSH1 0x40 DUP3 ADD MSTORE PUSH1 0x60 ADD SWAP1 JUMP JUMPDEST PUSH1 0x20 DUP1 DUP3 MSTORE PUSH1 0x12 SWAP1 DUP3 ADD MSTORE PUSH18 0x119D5B98DD1A5BDB881A5CC81B1BD8DAD959 PUSH1 0x72 SHL PUSH1 0x40 DUP3 ADD MSTORE PUSH1 0x60 ADD SWAP1 JUMP JUMPDEST PUSH1 0x20 DUP1 DUP3 MSTORE PUSH1 0x35 SWAP1 DUP3 ADD MSTORE PUSH32 0x6F70657261746F723A2063616C6C6572206973206E6F7420616C6C6F77656420 PUSH1 0x40 DUP3 ADD MSTORE PUSH21 0x3A379031B0B636103A3434B990333AB731BA34B7B7 PUSH1 0x59 SHL PUSH1 0x60 DUP3 ADD MSTORE PUSH1 0x80 ADD SWAP1 JUMP JUMPDEST DUP6 DUP2 MSTORE DUP5 PUSH1 0x20 DUP3 ADD MSTORE PUSH1 0xA0 PUSH1 0x40 DUP3 ADD MSTORE PUSH1 0x0 PUSH2 0x5A72 PUSH1 0xA0 DUP4 ADD DUP7 PUSH2 0x58D5 JUMP JUMPDEST PUSH1 0x1 PUSH1 0x1 PUSH1 0xA0 SHL SUB SWAP5 SWAP1 SWAP5 AND PUSH1 0x60 DUP4 ADD MSTORE POP PUSH1 0x80 ADD MSTORE SWAP4 SWAP3 POP POP POP JUMP JUMPDEST PUSH1 0x0 PUSH2 0xFFFF DUP1 DUP4 AND DUP2 DUP6 AND DUP1 DUP4 SUB DUP3 GT ISZERO PUSH2 0x5AAC JUMPI PUSH2 0x5AAC PUSH2 0x5B8C JUMP JUMPDEST ADD SWAP5 SWAP4 POP POP POP POP JUMP JUMPDEST PUSH1 0x0 DUP3 NOT DUP3 GT ISZERO PUSH2 0x5AC8 JUMPI PUSH2 0x5AC8 PUSH2 0x5B8C JUMP JUMPDEST POP ADD SWAP1 JUMP JUMPDEST PUSH1 0x0 DUP3 PUSH2 0x5AEA JUMPI PUSH4 0x4E487B71 PUSH1 0xE0 SHL PUSH1 0x0 MSTORE PUSH1 0x12 PUSH1 0x4 MSTORE PUSH1 0x24 PUSH1 0x0 REVERT JUMPDEST POP DIV SWAP1 JUMP JUMPDEST PUSH1 0x0 DUP2 PUSH1 0x0 NOT DIV DUP4 GT DUP3 ISZERO ISZERO AND ISZERO PUSH2 0x5B09 JUMPI PUSH2 0x5B09 PUSH2 0x5B8C JUMP JUMPDEST POP MUL SWAP1 JUMP JUMPDEST PUSH1 0x0 DUP3 DUP3 LT ISZERO PUSH2 0x5B20 JUMPI PUSH2 0x5B20 PUSH2 0x5B8C JUMP JUMPDEST POP SUB SWAP1 JUMP JUMPDEST PUSH1 0x0 JUMPDEST DUP4 DUP2 LT ISZERO PUSH2 0x5B40 JUMPI DUP2 DUP2 ADD MLOAD DUP4 DUP3 ADD MSTORE PUSH1 0x20 ADD PUSH2 0x5B28 JUMP JUMPDEST DUP4 DUP2 GT ISZERO PUSH2 0x19FA JUMPI POP POP PUSH1 0x0 SWAP2 ADD MSTORE JUMP JUMPDEST PUSH1 0x1 DUP2 DUP2 SHR SWAP1 DUP3 AND DUP1 PUSH2 0x5B65 JUMPI PUSH1 0x7F DUP3 AND SWAP2 POP JUMPDEST PUSH1 0x20 DUP3 LT DUP2 EQ ISZERO PUSH2 0x5B86 JUMPI PUSH4 0x4E487B71 PUSH1 0xE0 SHL PUSH1 0x0 MSTORE PUSH1 0x22 PUSH1 0x4 MSTORE PUSH1 0x24 PUSH1 0x0 REVERT JUMPDEST POP SWAP2 SWAP1 POP JUMP JUMPDEST PUSH4 0x4E487B71 PUSH1 0xE0 SHL PUSH1 0x0 MSTORE PUSH1 0x11 PUSH1 0x4 MSTORE PUSH1 0x24 PUSH1 0x0 REVERT JUMPDEST PUSH4 0x4E487B71 PUSH1 0xE0 SHL PUSH1 0x0 MSTORE PUSH1 0x32 PUSH1 0x4 MSTORE PUSH1 0x24 PUSH1 0x0 REVERT JUMPDEST PUSH4 0x4E487B71 PUSH1 0xE0 SHL PUSH1 0x0 MSTORE PUSH1 0x41 PUSH1 0x4 MSTORE PUSH1 0x24 PUSH1 0x0 REVERT JUMPDEST PUSH1 0x1 PUSH1 0x1 PUSH1 0xA0 SHL SUB DUP2 AND DUP2 EQ PUSH2 0x146A JUMPI PUSH1 0x0 DUP1 REVERT INVALID LOG2 PUSH5 0x6970667358 0x22 SLT KECCAK256 RETURNDATASIZE 0xD0 POP NOT PUSH2 0xEEAC REVERT 0xAF EXP PUSH3 0x4F7FEF DIV LOG1 0x2D 0xBE 0xBA DELEGATECALL 0xDA 0xAA MOD 0xCE 0xBD DUP3 0xB7 0xCD PUSH32 0x613F3764736F6C63430008070033000000000000000000000000000000000000 "
		},
		"gasEstimates": {
			"creation": {
				"codeDepositCost": "4715400",
				"executionCost": "infinite",
				"totalCost": "infinite"
			},
			"external": {
				"MAXIMUM_TAX()": "381",
				"_devWallet()": "2494",
				"_donationWallet()": "2492",
				"_excludedFromFeesAsReceiver(address)": "2605",
				"_excludedFromFeesAsSender(address)": "2648",
				"_liquidityPair()": "2449",
				"_masterEntertainer()": "2450",
				"_minAmountToLiquify()": "2363",
				"_rewardWallet()": "2405",
				"_router()": "2470",
				"activateContract()": "28820",
				"activateHighFee()": "30019",
				"allowance(address,address)": "infinite",
				"approve(address,uint256)": "24670",
				"balanceOf(address)": "2623",
				"blacklist(address)": "30199",
				"canMintNewCoins(uint256)": "4742",
				"checkPriceUpdate()": "infinite",
				"claimExceedingETH()": "infinite",
				"deactivateHighFee()": "29976",
				"decimals()": "246",
				"decreaseAllowance(address,uint256)": "27048",
				"devFeesPaid()": "2451",
				"devRate()": "2485",
				"donationFeesPaid()": "2451",
				"donationRate()": "2465",
				"excludeFromAll(address)": "53337",
				"excludeFromFeesAsReceiver(address)": "29034",
				"excludeTransferFeeAsSender(address)": "29099",
				"gasCost()": "2430",
				"getBalanceOf(address)": "infinite",
				"getCirculatingSupply()": "6852",
				"getLiquidityTokenAddress()": "infinite",
				"getTaxFee(address)": "infinite",
				"hasRequestedWhitelist(address)": "6967",
				"includeForAll(address)": "53320",
				"includeForFeesAsReciever(address)": "29050",
				"includeTransferFeeAsSender(address)": "29006",
				"increaseAllowance(address,uint256)": "27052",
				"isContractActive()": "2411",
				"isExcludedFromReceiverTax(address)": "2623",
				"isExcludedFromSenderTax(address)": "2621",
				"isHighFeeActive()": "2444",
				"isLiquifyActive()": "2386",
				"isLockEnabled()": "2449",
				"liquidityFeesPaid()": "2450",
				"liquidityPair()": "2444",
				"liquidityTokenBalance()": "infinite",
				"lockFunction(string)": "infinite",
				"maintainer()": "2421",
				"maxAccBalance()": "2416",
				"maxDistribution()": "2453",
				"maxTxQuantity()": "2459",
				"maximumTransferTaxRate()": "2484",
				"minimumTransferTaxRate()": "2444",
				"mint(address,uint256)": "infinite",
				"name()": "infinite",
				"owner()": "2399",
				"reDistributionFeesPaid()": "2385",
				"reDistributionRate()": "2466",
				"renounceOwnership()": "28228",
				"requestWhitelist()": "infinite",
				"setDevWallet(address)": "infinite",
				"setDonationWallet(address)": "28986",
				"setGasCost(uint256)": "30445",
				"setLiquidityPair(address)": "infinite",
				"setMaintainer(address)": "infinite",
				"setMasterEntertainer(address)": "infinite",
				"setMaxAccBalance(uint16)": "30631",
				"setMaxDistribution(uint256)": "infinite",
				"setMaxTransactionQuantity(uint16)": "30566",
				"setMinAmountToLiquify(uint256)": "26732",
				"setRewardWallet(address)": "infinite",
				"setTimelockEnabled()": "29554",
				"swapAndLiquify()": "infinite",
				"symbol()": "infinite",
				"timelock(string)": "infinite",
				"totalFeesPaid()": "2406",
				"totalSupply()": "2361",
				"transfer(address,uint256)": "infinite",
				"transferFrom(address,address,uint256)": "infinite",
				"transferOwnership(address)": "infinite",
				"unlockFunction(string)": "infinite",
				"updateMaximumTransferTaxRate(uint16)": "infinite",
				"updateMinimumTransferTaxRate(uint16)": "infinite",
				"updateRouter(address)": "infinite",
				"updateTax(uint16,uint16,uint16)": "infinite",
				"whitelist(address)": "53349"
			},
			"internal": {
				"_transfer(address,address,uint256)": "infinite"
			}
		},
		"methodIdentifiers": {
			"MAXIMUM_TAX()": "d9324079",
			"_devWallet()": "11a63e17",
			"_donationWallet()": "a37f4ea9",
			"_excludedFromFeesAsReceiver(address)": "1ac818a1",
			"_excludedFromFeesAsSender(address)": "ae7e1d7a",
			"_liquidityPair()": "645830b4",
			"_masterEntertainer()": "0cd84dc6",
			"_minAmountToLiquify()": "982ceeb7",
			"_rewardWallet()": "a4f4a765",
			"_router()": "edae876f",
			"activateContract()": "8fda356d",
			"activateHighFee()": "f1a3da22",
			"allowance(address,address)": "dd62ed3e",
			"approve(address,uint256)": "095ea7b3",
			"balanceOf(address)": "70a08231",
			"blacklist(address)": "f9f92be4",
			"canMintNewCoins(uint256)": "69372b30",
			"checkPriceUpdate()": "437f660e",
			"claimExceedingETH()": "1b611111",
			"deactivateHighFee()": "2a83759b",
			"decimals()": "313ce567",
			"decreaseAllowance(address,uint256)": "a457c2d7",
			"devFeesPaid()": "91ee5864",
			"devRate()": "c9574975",
			"donationFeesPaid()": "2b714147",
			"donationRate()": "0d38ffcd",
			"excludeFromAll(address)": "370f0a60",
			"excludeFromFeesAsReceiver(address)": "986d6142",
			"excludeTransferFeeAsSender(address)": "7897af86",
			"gasCost()": "1d5e3fe5",
			"getBalanceOf(address)": "9b96eece",
			"getCirculatingSupply()": "2b112e49",
			"getLiquidityTokenAddress()": "506ee100",
			"getTaxFee(address)": "3071fed2",
			"hasRequestedWhitelist(address)": "318913fb",
			"includeForAll(address)": "a17252a4",
			"includeForFeesAsReciever(address)": "53a54511",
			"includeTransferFeeAsSender(address)": "4ad1eb81",
			"increaseAllowance(address,uint256)": "39509351",
			"isContractActive()": "8f5949f9",
			"isExcludedFromReceiverTax(address)": "8053575b",
			"isExcludedFromSenderTax(address)": "bb922014",
			"isHighFeeActive()": "653465bf",
			"isLiquifyActive()": "005d1afc",
			"isLockEnabled()": "a347511a",
			"liquidityFeesPaid()": "73b002a5",
			"liquidityPair()": "808a5457",
			"liquidityTokenBalance()": "239eb211",
			"lockFunction(string)": "9f531156",
			"maintainer()": "9850d32b",
			"maxAccBalance()": "0181bb78",
			"maxDistribution()": "044e0ea2",
			"maxTxQuantity()": "88bce123",
			"maximumTransferTaxRate()": "fafa4489",
			"minimumTransferTaxRate()": "01bbba4d",
			"mint(address,uint256)": "40c10f19",
			"name()": "06fdde03",
			"owner()": "8da5cb5b",
			"reDistributionFeesPaid()": "626bb274",
			"reDistributionRate()": "03fcdbdf",
			"renounceOwnership()": "715018a6",
			"requestWhitelist()": "6e1e9349",
			"setDevWallet(address)": "1f53ac02",
			"setDonationWallet(address)": "5a96cdd7",
			"setGasCost(uint256)": "8aba4659",
			"setLiquidityPair(address)": "9d93598e",
			"setMaintainer(address)": "13ea5d29",
			"setMasterEntertainer(address)": "54613450",
			"setMaxAccBalance(uint16)": "fb25c120",
			"setMaxDistribution(uint256)": "df6f6630",
			"setMaxTransactionQuantity(uint16)": "c1316eb6",
			"setMinAmountToLiquify(uint256)": "8efd5e3b",
			"setRewardWallet(address)": "5958621e",
			"setTimelockEnabled()": "f4762fd6",
			"swapAndLiquify()": "b29ad50a",
			"symbol()": "95d89b41",
			"timelock(string)": "f98080c0",
			"totalFeesPaid()": "e9fd5862",
			"totalSupply()": "18160ddd",
			"transfer(address,uint256)": "a9059cbb",
			"transferFrom(address,address,uint256)": "23b872dd",
			"transferOwnership(address)": "f2fde38b",
			"unlockFunction(string)": "a607494a",
			"updateMaximumTransferTaxRate(uint16)": "af10e03e",
			"updateMinimumTransferTaxRate(uint16)": "7d8e9615",
			"updateRouter(address)": "c851cc32",
			"updateTax(uint16,uint16,uint16)": "737dc9bd",
			"whitelist(address)": "9b19251a"
		}
	},
	"abi": [
		{
			"inputs": [],
			"stateMutability": "nonpayable",
			"type": "constructor"
		},
		{
			"anonymous": false,
			"inputs": [
				{
					"indexed": true,
					"internalType": "address",
					"name": "owner",
					"type": "address"
				},
				{
					"indexed": true,
					"internalType": "address",
					"name": "spender",
					"type": "address"
				},
				{
					"indexed": false,
					"internalType": "uint256",
					"name": "value",
					"type": "uint256"
				}
			],
			"name": "Approval",
			"type": "event"
		},
		{
			"anonymous": false,
			"inputs": [
				{
					"indexed": true,
					"internalType": "address",
					"name": "user",
					"type": "address"
				}
			],
			"name": "Blacklisted",
			"type": "event"
		},
		{
			"anonymous": false,
			"inputs": [
				{
					"indexed": true,
					"internalType": "bool",
					"name": "state",
					"type": "bool"
				}
			],
			"name": "ChangedHighFeeState",
			"type": "event"
		},
		{
			"anonymous": false,
			"inputs": [
				{
					"indexed": true,
					"internalType": "address",
					"name": "caller",
					"type": "address"
				},
				{
					"indexed": true,
					"internalType": "address",
					"name": "pair",
					"type": "address"
				}
			],
			"name": "ChangedLiquidityPair",
			"type": "event"
		},
		{
			"anonymous": false,
			"inputs": [],
			"name": "EnabledLock",
			"type": "event"
		},
		{
			"anonymous": false,
			"inputs": [
				{
					"indexed": true,
					"internalType": "uint256",
					"name": "previousGasCost",
					"type": "uint256"
				},
				{
					"indexed": true,
					"internalType": "uint256",
					"name": "newGasCost",
					"type": "uint256"
				}
			],
			"name": "GasCostChanged",
			"type": "event"
		},
		{
			"anonymous": false,
			"inputs": [
				{
					"indexed": true,
					"internalType": "address",
					"name": "previousMaintainer",
					"type": "address"
				},
				{
					"indexed": true,
					"internalType": "address",
					"name": "newMaintainer",
					"type": "address"
				}
			],
			"name": "MaintainerTransferred",
			"type": "event"
		},
		{
			"anonymous": false,
			"inputs": [
				{
					"indexed": true,
					"internalType": "address",
					"name": "previousMasterEntertainer",
					"type": "address"
				},
				{
					"indexed": true,
					"internalType": "address",
					"name": "newMasterEntertainer",
					"type": "address"
				}
			],
			"name": "MasterEntertainerTransferred",
			"type": "event"
		},
		{
			"anonymous": false,
			"inputs": [
				{
					"indexed": true,
					"internalType": "uint16",
					"name": "previousMaxBalance",
					"type": "uint16"
				},
				{
					"indexed": true,
					"internalType": "uint16",
					"name": "newMaxBalance",
					"type": "uint16"
				}
			],
			"name": "MaxAccBalanceChanged",
			"type": "event"
		},
		{
			"anonymous": false,
			"inputs": [
				{
					"indexed": true,
					"internalType": "uint256",
					"name": "newMaxDistribution",
					"type": "uint256"
				}
			],
			"name": "MaxDistributionChanged",
			"type": "event"
		},
		{
			"anonymous": false,
			"inputs": [
				{
					"indexed": true,
					"internalType": "uint16",
					"name": "previousMaxTxQuantity",
					"type": "uint16"
				},
				{
					"indexed": true,
					"internalType": "uint16",
					"name": "newMaxTxQuantity",
					"type": "uint16"
				}
			],
			"name": "MaxTransactionQuantityChanged",
			"type": "event"
		},
		{
			"anonymous": false,
			"inputs": [
				{
					"indexed": true,
					"internalType": "address",
					"name": "caller",
					"type": "address"
				},
				{
					"indexed": false,
					"internalType": "uint256",
					"name": "previousRate",
					"type": "uint256"
				},
				{
					"indexed": false,
					"internalType": "uint256",
					"name": "newRate",
					"type": "uint256"
				}
			],
			"name": "MaximumTransferTaxRateUpdated",
			"type": "event"
		},
		{
			"anonymous": false,
			"inputs": [
				{
					"indexed": true,
					"internalType": "address",
					"name": "caller",
					"type": "address"
				},
				{
					"indexed": false,
					"internalType": "uint256",
					"name": "previousAmount",
					"type": "uint256"
				},
				{
					"indexed": false,
					"internalType": "uint256",
					"name": "newAmount",
					"type": "uint256"
				}
			],
			"name": "MinAmountToLiquifyUpdated",
			"type": "event"
		},
		{
			"anonymous": false,
			"inputs": [
				{
					"indexed": true,
					"internalType": "address",
					"name": "caller",
					"type": "address"
				},
				{
					"indexed": false,
					"internalType": "uint256",
					"name": "previousRate",
					"type": "uint256"
				},
				{
					"indexed": false,
					"internalType": "uint256",
					"name": "newRate",
					"type": "uint256"
				}
			],
			"name": "MinimumTransferTaxRateUpdated",
			"type": "event"
		},
		{
			"anonymous": false,
			"inputs": [
				{
					"indexed": true,
					"internalType": "address",
					"name": "previousOwner",
					"type": "address"
				},
				{
					"indexed": true,
					"internalType": "address",
					"name": "newOwner",
					"type": "address"
				}
			],
			"name": "OwnershipTransferred",
			"type": "event"
		},
		{
			"anonymous": false,
			"inputs": [
				{
					"indexed": true,
					"internalType": "address",
					"name": "requestee",
					"type": "address"
				}
			],
			"name": "RequestedWhitelist",
			"type": "event"
		},
		{
			"anonymous": false,
			"inputs": [
				{
					"indexed": true,
					"internalType": "address",
					"name": "caller",
					"type": "address"
				},
				{
					"indexed": true,
					"internalType": "address",
					"name": "router",
					"type": "address"
				},
				{
					"indexed": true,
					"internalType": "address",
					"name": "pair",
					"type": "address"
				}
			],
			"name": "RouterUpdated",
			"type": "event"
		},
		{
			"anonymous": false,
			"inputs": [
				{
					"indexed": false,
					"internalType": "uint256",
					"name": "tokensSwapped",
					"type": "uint256"
				},
				{
					"indexed": false,
					"internalType": "uint256",
					"name": "ethReceived",
					"type": "uint256"
				},
				{
					"indexed": false,
					"internalType": "uint256",
					"name": "tokensIntoLiquidity",
					"type": "uint256"
				}
			],
			"name": "SwapAndLiquify",
			"type": "event"
		},
		{
			"anonymous": false,
			"inputs": [
				{
					"indexed": true,
					"internalType": "address",
					"name": "from",
					"type": "address"
				},
				{
					"indexed": true,
					"internalType": "address",
					"name": "to",
					"type": "address"
				},
				{
					"indexed": false,
					"internalType": "uint256",
					"name": "value",
					"type": "uint256"
				}
			],
			"name": "Transfer",
			"type": "event"
		},
		{
			"anonymous": false,
			"inputs": [
				{
					"indexed": true,
					"internalType": "string",
					"name": "functionName",
					"type": "string"
				},
				{
					"indexed": true,
					"internalType": "uint256",
					"name": "unlockedAt",
					"type": "uint256"
				}
			],
			"name": "UnlockedFunction",
			"type": "event"
		},
		{
			"anonymous": false,
			"inputs": [
				{
					"indexed": false,
					"internalType": "uint16",
					"name": "redistribution",
					"type": "uint16"
				},
				{
					"indexed": false,
					"internalType": "uint16",
					"name": "dev",
					"type": "uint16"
				},
				{
					"indexed": false,
					"internalType": "uint16",
					"name": "donation",
					"type": "uint16"
				}
			],
			"name": "UpdateTax",
			"type": "event"
		},
		{
			"inputs": [],
			"name": "MAXIMUM_TAX",
			"outputs": [
				{
					"internalType": "uint16",
					"name": "",
					"type": "uint16"
				}
			],
			"stateMutability": "view",
			"type": "function"
		},
		{
			"inputs": [],
			"name": "_devWallet",
			"outputs": [
				{
					"internalType": "address",
					"name": "",
					"type": "address"
				}
			],
			"stateMutability": "view",
			"type": "function"
		},
		{
			"inputs": [],
			"name": "_donationWallet",
			"outputs": [
				{
					"internalType": "address",
					"name": "",
					"type": "address"
				}
			],
			"stateMutability": "view",
			"type": "function"
		},
		{
			"inputs": [
				{
					"internalType": "address",
					"name": "",
					"type": "address"
				}
			],
			"name": "_excludedFromFeesAsReceiver",
			"outputs": [
				{
					"internalType": "bool",
					"name": "",
					"type": "bool"
				}
			],
			"stateMutability": "view",
			"type": "function"
		},
		{
			"inputs": [
				{
					"internalType": "address",
					"name": "",
					"type": "address"
				}
			],
			"name": "_excludedFromFeesAsSender",
			"outputs": [
				{
					"internalType": "bool",
					"name": "",
					"type": "bool"
				}
			],
			"stateMutability": "view",
			"type": "function"
		},
		{
			"inputs": [],
			"name": "_liquidityPair",
			"outputs": [
				{
					"internalType": "address",
					"name": "",
					"type": "address"
				}
			],
			"stateMutability": "view",
			"type": "function"
		},
		{
			"inputs": [],
			"name": "_masterEntertainer",
			"outputs": [
				{
					"internalType": "contract IMasterEntertainer",
					"name": "",
					"type": "address"
				}
			],
			"stateMutability": "view",
			"type": "function"
		},
		{
			"inputs": [],
			"name": "_minAmountToLiquify",
			"outputs": [
				{
					"internalType": "uint256",
					"name": "",
					"type": "uint256"
				}
			],
			"stateMutability": "view",
			"type": "function"
		},
		{
			"inputs": [],
			"name": "_rewardWallet",
			"outputs": [
				{
					"internalType": "address",
					"name": "",
					"type": "address"
				}
			],
			"stateMutability": "view",
			"type": "function"
		},
		{
			"inputs": [],
			"name": "_router",
			"outputs": [
				{
					"internalType": "contract IUniswapV2Router02",
					"name": "",
					"type": "address"
				}
			],
			"stateMutability": "view",
			"type": "function"
		},
		{
			"inputs": [],
			"name": "activateContract",
			"outputs": [],
			"stateMutability": "nonpayable",
			"type": "function"
		},
		{
			"inputs": [],
			"name": "activateHighFee",
			"outputs": [],
			"stateMutability": "nonpayable",
			"type": "function"
		},
		{
			"inputs": [
				{
					"internalType": "address",
					"name": "owner",
					"type": "address"
				},
				{
					"internalType": "address",
					"name": "spender",
					"type": "address"
				}
			],
			"name": "allowance",
			"outputs": [
				{
					"internalType": "uint256",
					"name": "",
					"type": "uint256"
				}
			],
			"stateMutability": "view",
			"type": "function"
		},
		{
			"inputs": [
				{
					"internalType": "address",
					"name": "spender",
					"type": "address"
				},
				{
					"internalType": "uint256",
					"name": "amount",
					"type": "uint256"
				}
			],
			"name": "approve",
			"outputs": [
				{
					"internalType": "bool",
					"name": "",
					"type": "bool"
				}
			],
			"stateMutability": "nonpayable",
			"type": "function"
		},
		{
			"inputs": [
				{
					"internalType": "address",
					"name": "account",
					"type": "address"
				}
			],
			"name": "balanceOf",
			"outputs": [
				{
					"internalType": "uint256",
					"name": "",
					"type": "uint256"
				}
			],
			"stateMutability": "view",
			"type": "function"
		},
		{
			"inputs": [
				{
					"internalType": "address",
					"name": "user",
					"type": "address"
				}
			],
			"name": "blacklist",
			"outputs": [],
			"stateMutability": "nonpayable",
			"type": "function"
		},
		{
			"inputs": [
				{
					"internalType": "uint256",
					"name": "_amount",
					"type": "uint256"
				}
			],
			"name": "canMintNewCoins",
			"outputs": [
				{
					"internalType": "bool",
					"name": "",
					"type": "bool"
				}
			],
			"stateMutability": "view",
			"type": "function"
		},
		{
			"inputs": [],
			"name": "checkPriceUpdate",
			"outputs": [],
			"stateMutability": "nonpayable",
			"type": "function"
		},
		{
			"inputs": [],
			"name": "claimExceedingETH",
			"outputs": [],
			"stateMutability": "nonpayable",
			"type": "function"
		},
		{
			"inputs": [],
			"name": "deactivateHighFee",
			"outputs": [],
			"stateMutability": "nonpayable",
			"type": "function"
		},
		{
			"inputs": [],
			"name": "decimals",
			"outputs": [
				{
					"internalType": "uint8",
					"name": "",
					"type": "uint8"
				}
			],
			"stateMutability": "view",
			"type": "function"
		},
		{
			"inputs": [
				{
					"internalType": "address",
					"name": "spender",
					"type": "address"
				},
				{
					"internalType": "uint256",
					"name": "subtractedValue",
					"type": "uint256"
				}
			],
			"name": "decreaseAllowance",
			"outputs": [
				{
					"internalType": "bool",
					"name": "",
					"type": "bool"
				}
			],
			"stateMutability": "nonpayable",
			"type": "function"
		},
		{
			"inputs": [],
			"name": "devFeesPaid",
			"outputs": [
				{
					"internalType": "uint256",
					"name": "",
					"type": "uint256"
				}
			],
			"stateMutability": "view",
			"type": "function"
		},
		{
			"inputs": [],
			"name": "devRate",
			"outputs": [
				{
					"internalType": "uint16",
					"name": "",
					"type": "uint16"
				}
			],
			"stateMutability": "view",
			"type": "function"
		},
		{
			"inputs": [],
			"name": "donationFeesPaid",
			"outputs": [
				{
					"internalType": "uint256",
					"name": "",
					"type": "uint256"
				}
			],
			"stateMutability": "view",
			"type": "function"
		},
		{
			"inputs": [],
			"name": "donationRate",
			"outputs": [
				{
					"internalType": "uint16",
					"name": "",
					"type": "uint16"
				}
			],
			"stateMutability": "view",
			"type": "function"
		},
		{
			"inputs": [
				{
					"internalType": "address",
					"name": "_excludee",
					"type": "address"
				}
			],
			"name": "excludeFromAll",
			"outputs": [],
			"stateMutability": "nonpayable",
			"type": "function"
		},
		{
			"inputs": [
				{
					"internalType": "address",
					"name": "_excludee",
					"type": "address"
				}
			],
			"name": "excludeFromFeesAsReceiver",
			"outputs": [],
			"stateMutability": "nonpayable",
			"type": "function"
		},
		{
			"inputs": [
				{
					"internalType": "address",
					"name": "_excludee",
					"type": "address"
				}
			],
			"name": "excludeTransferFeeAsSender",
			"outputs": [],
			"stateMutability": "nonpayable",
			"type": "function"
		},
		{
			"inputs": [],
			"name": "gasCost",
			"outputs": [
				{
					"internalType": "uint256",
					"name": "",
					"type": "uint256"
				}
			],
			"stateMutability": "view",
			"type": "function"
		},
		{
			"inputs": [
				{
					"internalType": "address",
					"name": "_user",
					"type": "address"
				}
			],
			"name": "getBalanceOf",
			"outputs": [
				{
					"internalType": "uint256",
					"name": "",
					"type": "uint256"
				}
			],
			"stateMutability": "view",
			"type": "function"
		},
		{
			"inputs": [],
			"name": "getCirculatingSupply",
			"outputs": [
				{
					"internalType": "uint256",
					"name": "",
					"type": "uint256"
				}
			],
			"stateMutability": "view",
			"type": "function"
		},
		{
			"inputs": [],
			"name": "getLiquidityTokenAddress",
			"outputs": [
				{
					"internalType": "address",
					"name": "",
					"type": "address"
				}
			],
			"stateMutability": "view",
			"type": "function"
		},
		{
			"inputs": [
				{
					"internalType": "address",
					"name": "_sender",
					"type": "address"
				}
			],
			"name": "getTaxFee",
			"outputs": [
				{
					"internalType": "uint256",
					"name": "",
					"type": "uint256"
				}
			],
			"stateMutability": "view",
			"type": "function"
		},
		{
			"inputs": [
				{
					"internalType": "address",
					"name": "user",
					"type": "address"
				}
			],
			"name": "hasRequestedWhitelist",
			"outputs": [
				{
					"internalType": "bool",
					"name": "",
					"type": "bool"
				}
			],
			"stateMutability": "view",
			"type": "function"
		},
		{
			"inputs": [
				{
					"internalType": "address",
					"name": "_excludee",
					"type": "address"
				}
			],
			"name": "includeForAll",
			"outputs": [],
			"stateMutability": "nonpayable",
			"type": "function"
		},
		{
			"inputs": [
				{
					"internalType": "address",
					"name": "_excludee",
					"type": "address"
				}
			],
			"name": "includeForFeesAsReciever",
			"outputs": [],
			"stateMutability": "nonpayable",
			"type": "function"
		},
		{
			"inputs": [
				{
					"internalType": "address",
					"name": "_excludee",
					"type": "address"
				}
			],
			"name": "includeTransferFeeAsSender",
			"outputs": [],
			"stateMutability": "nonpayable",
			"type": "function"
		},
		{
			"inputs": [
				{
					"internalType": "address",
					"name": "spender",
					"type": "address"
				},
				{
					"internalType": "uint256",
					"name": "addedValue",
					"type": "uint256"
				}
			],
			"name": "increaseAllowance",
			"outputs": [
				{
					"internalType": "bool",
					"name": "",
					"type": "bool"
				}
			],
			"stateMutability": "nonpayable",
			"type": "function"
		},
		{
			"inputs": [],
			"name": "isContractActive",
			"outputs": [
				{
					"internalType": "bool",
					"name": "",
					"type": "bool"
				}
			],
			"stateMutability": "view",
			"type": "function"
		},
		{
			"inputs": [
				{
					"internalType": "address",
					"name": "_account",
					"type": "address"
				}
			],
			"name": "isExcludedFromReceiverTax",
			"outputs": [
				{
					"internalType": "bool",
					"name": "",
					"type": "bool"
				}
			],
			"stateMutability": "view",
			"type": "function"
		},
		{
			"inputs": [
				{
					"internalType": "address",
					"name": "_account",
					"type": "address"
				}
			],
			"name": "isExcludedFromSenderTax",
			"outputs": [
				{
					"internalType": "bool",
					"name": "",
					"type": "bool"
				}
			],
			"stateMutability": "view",
			"type": "function"
		},
		{
			"inputs": [],
			"name": "isHighFeeActive",
			"outputs": [
				{
					"internalType": "bool",
					"name": "",
					"type": "bool"
				}
			],
			"stateMutability": "view",
			"type": "function"
		},
		{
			"inputs": [],
			"name": "isLiquifyActive",
			"outputs": [
				{
					"internalType": "bool",
					"name": "",
					"type": "bool"
				}
			],
			"stateMutability": "view",
			"type": "function"
		},
		{
			"inputs": [],
			"name": "isLockEnabled",
			"outputs": [
				{
					"internalType": "bool",
					"name": "",
					"type": "bool"
				}
			],
			"stateMutability": "view",
			"type": "function"
		},
		{
			"inputs": [],
			"name": "liquidityFeesPaid",
			"outputs": [
				{
					"internalType": "uint256",
					"name": "",
					"type": "uint256"
				}
			],
			"stateMutability": "view",
			"type": "function"
		},
		{
			"inputs": [],
			"name": "liquidityPair",
			"outputs": [
				{
					"internalType": "address",
					"name": "",
					"type": "address"
				}
			],
			"stateMutability": "view",
			"type": "function"
		},
		{
			"inputs": [],
			"name": "liquidityTokenBalance",
			"outputs": [
				{
					"internalType": "uint256",
					"name": "",
					"type": "uint256"
				}
			],
			"stateMutability": "view",
			"type": "function"
		},
		{
			"inputs": [
				{
					"internalType": "string",
					"name": "_fn",
					"type": "string"
				}
			],
			"name": "lockFunction",
			"outputs": [],
			"stateMutability": "nonpayable",
			"type": "function"
		},
		{
			"inputs": [],
			"name": "maintainer",
			"outputs": [
				{
					"internalType": "address",
					"name": "",
					"type": "address"
				}
			],
			"stateMutability": "view",
			"type": "function"
		},
		{
			"inputs": [],
			"name": "maxAccBalance",
			"outputs": [
				{
					"internalType": "uint16",
					"name": "",
					"type": "uint16"
				}
			],
			"stateMutability": "view",
			"type": "function"
		},
		{
			"inputs": [],
			"name": "maxDistribution",
			"outputs": [
				{
					"internalType": "uint256",
					"name": "",
					"type": "uint256"
				}
			],
			"stateMutability": "view",
			"type": "function"
		},
		{
			"inputs": [],
			"name": "maxTxQuantity",
			"outputs": [
				{
					"internalType": "uint16",
					"name": "",
					"type": "uint16"
				}
			],
			"stateMutability": "view",
			"type": "function"
		},
		{
			"inputs": [],
			"name": "maximumTransferTaxRate",
			"outputs": [
				{
					"internalType": "uint16",
					"name": "",
					"type": "uint16"
				}
			],
			"stateMutability": "view",
			"type": "function"
		},
		{
			"inputs": [],
			"name": "minimumTransferTaxRate",
			"outputs": [
				{
					"internalType": "uint16",
					"name": "",
					"type": "uint16"
				}
			],
			"stateMutability": "view",
			"type": "function"
		},
		{
			"inputs": [
				{
					"internalType": "address",
					"name": "_to",
					"type": "address"
				},
				{
					"internalType": "uint256",
					"name": "_amount",
					"type": "uint256"
				}
			],
			"name": "mint",
			"outputs": [],
			"stateMutability": "nonpayable",
			"type": "function"
		},
		{
			"inputs": [],
			"name": "name",
			"outputs": [
				{
					"internalType": "string",
					"name": "",
					"type": "string"
				}
			],
			"stateMutability": "view",
			"type": "function"
		},
		{
			"inputs": [],
			"name": "owner",
			"outputs": [
				{
					"internalType": "address",
					"name": "",
					"type": "address"
				}
			],
			"stateMutability": "view",
			"type": "function"
		},
		{
			"inputs": [],
			"name": "reDistributionFeesPaid",
			"outputs": [
				{
					"internalType": "uint256",
					"name": "",
					"type": "uint256"
				}
			],
			"stateMutability": "view",
			"type": "function"
		},
		{
			"inputs": [],
			"name": "reDistributionRate",
			"outputs": [
				{
					"internalType": "uint16",
					"name": "",
					"type": "uint16"
				}
			],
			"stateMutability": "view",
			"type": "function"
		},
		{
			"inputs": [],
			"name": "renounceOwnership",
			"outputs": [],
			"stateMutability": "nonpayable",
			"type": "function"
		},
		{
			"inputs": [],
			"name": "requestWhitelist",
			"outputs": [],
			"stateMutability": "payable",
			"type": "function"
		},
		{
			"inputs": [
				{
					"internalType": "address",
					"name": "wallet",
					"type": "address"
				}
			],
			"name": "setDevWallet",
			"outputs": [],
			"stateMutability": "nonpayable",
			"type": "function"
		},
		{
			"inputs": [
				{
					"internalType": "address",
					"name": "wallet",
					"type": "address"
				}
			],
			"name": "setDonationWallet",
			"outputs": [],
			"stateMutability": "nonpayable",
			"type": "function"
		},
		{
			"inputs": [
				{
					"internalType": "uint256",
					"name": "cost",
					"type": "uint256"
				}
			],
			"name": "setGasCost",
			"outputs": [],
			"stateMutability": "nonpayable",
			"type": "function"
		},
		{
			"inputs": [
				{
					"internalType": "address",
					"name": "_tokenB",
					"type": "address"
				}
			],
			"name": "setLiquidityPair",
			"outputs": [],
			"stateMutability": "nonpayable",
			"type": "function"
		},
		{
			"inputs": [
				{
					"internalType": "address",
					"name": "_newMaintainer",
					"type": "address"
				}
			],
			"name": "setMaintainer",
			"outputs": [],
			"stateMutability": "nonpayable",
			"type": "function"
		},
		{
			"inputs": [
				{
					"internalType": "address",
					"name": "_newMasterEntertainer",
					"type": "address"
				}
			],
			"name": "setMasterEntertainer",
			"outputs": [],
			"stateMutability": "nonpayable",
			"type": "function"
		},
		{
			"inputs": [
				{
					"internalType": "uint16",
					"name": "maxBalance",
					"type": "uint16"
				}
			],
			"name": "setMaxAccBalance",
			"outputs": [],
			"stateMutability": "nonpayable",
			"type": "function"
		},
		{
			"inputs": [
				{
					"internalType": "uint256",
					"name": "_newDistribution",
					"type": "uint256"
				}
			],
			"name": "setMaxDistribution",
			"outputs": [],
			"stateMutability": "nonpayable",
			"type": "function"
		},
		{
			"inputs": [
				{
					"internalType": "uint16",
					"name": "quantity",
					"type": "uint16"
				}
			],
			"name": "setMaxTransactionQuantity",
			"outputs": [],
			"stateMutability": "nonpayable",
			"type": "function"
		},
		{
			"inputs": [
				{
					"internalType": "uint256",
					"name": "_amount",
					"type": "uint256"
				}
			],
			"name": "setMinAmountToLiquify",
			"outputs": [],
			"stateMutability": "nonpayable",
			"type": "function"
		},
		{
			"inputs": [
				{
					"internalType": "address",
					"name": "wallet",
					"type": "address"
				}
			],
			"name": "setRewardWallet",
			"outputs": [],
			"stateMutability": "nonpayable",
			"type": "function"
		},
		{
			"inputs": [],
			"name": "setTimelockEnabled",
			"outputs": [],
			"stateMutability": "nonpayable",
			"type": "function"
		},
		{
			"inputs": [],
			"name": "swapAndLiquify",
			"outputs": [],
			"stateMutability": "nonpayable",
			"type": "function"
		},
		{
			"inputs": [],
			"name": "symbol",
			"outputs": [
				{
					"internalType": "string",
					"name": "",
					"type": "string"
				}
			],
			"stateMutability": "view",
			"type": "function"
		},
		{
			"inputs": [
				{
					"internalType": "string",
					"name": "",
					"type": "string"
				}
			],
			"name": "timelock",
			"outputs": [
				{
					"internalType": "uint256",
					"name": "",
					"type": "uint256"
				}
			],
			"stateMutability": "view",
			"type": "function"
		},
		{
			"inputs": [],
			"name": "totalFeesPaid",
			"outputs": [
				{
					"internalType": "uint256",
					"name": "",
					"type": "uint256"
				}
			],
			"stateMutability": "view",
			"type": "function"
		},
		{
			"inputs": [],
			"name": "totalSupply",
			"outputs": [
				{
					"internalType": "uint256",
					"name": "",
					"type": "uint256"
				}
			],
			"stateMutability": "view",
			"type": "function"
		},
		{
			"inputs": [
				{
					"internalType": "address",
					"name": "recipient",
					"type": "address"
				},
				{
					"internalType": "uint256",
					"name": "amount",
					"type": "uint256"
				}
			],
			"name": "transfer",
			"outputs": [
				{
					"internalType": "bool",
					"name": "",
					"type": "bool"
				}
			],
			"stateMutability": "nonpayable",
			"type": "function"
		},
		{
			"inputs": [
				{
					"internalType": "address",
					"name": "sender",
					"type": "address"
				},
				{
					"internalType": "address",
					"name": "recipient",
					"type": "address"
				},
				{
					"internalType": "uint256",
					"name": "amount",
					"type": "uint256"
				}
			],
			"name": "transferFrom",
			"outputs": [
				{
					"internalType": "bool",
					"name": "",
					"type": "bool"
				}
			],
			"stateMutability": "nonpayable",
			"type": "function"
		},
		{
			"inputs": [
				{
					"internalType": "address",
					"name": "newOwner",
					"type": "address"
				}
			],
			"name": "transferOwnership",
			"outputs": [],
			"stateMutability": "nonpayable",
			"type": "function"
		},
		{
			"inputs": [
				{
					"internalType": "string",
					"name": "_fn",
					"type": "string"
				}
			],
			"name": "unlockFunction",
			"outputs": [],
			"stateMutability": "nonpayable",
			"type": "function"
		},
		{
			"inputs": [
				{
					"internalType": "uint16",
					"name": "_transferTaxRate",
					"type": "uint16"
				}
			],
			"name": "updateMaximumTransferTaxRate",
			"outputs": [],
			"stateMutability": "nonpayable",
			"type": "function"
		},
		{
			"inputs": [
				{
					"internalType": "uint16",
					"name": "_transferTaxRate",
					"type": "uint16"
				}
			],
			"name": "updateMinimumTransferTaxRate",
			"outputs": [],
			"stateMutability": "nonpayable",
			"type": "function"
		},
		{
			"inputs": [
				{
					"internalType": "address",
					"name": "router",
					"type": "address"
				}
			],
			"name": "updateRouter",
			"outputs": [],
			"stateMutability": "nonpayable",
			"type": "function"
		},
		{
			"inputs": [
				{
					"internalType": "uint16",
					"name": "_redistribution",
					"type": "uint16"
				},
				{
					"internalType": "uint16",
					"name": "_dev",
					"type": "uint16"
				},
				{
					"internalType": "uint16",
					"name": "_donation",
					"type": "uint16"
				}
			],
			"name": "updateTax",
			"outputs": [],
			"stateMutability": "nonpayable",
			"type": "function"
		},
		{
			"inputs": [
				{
					"internalType": "address",
					"name": "user",
					"type": "address"
				}
			],
			"name": "whitelist",
			"outputs": [],
			"stateMutability": "nonpayable",
			"type": "function"
		},
		{
			"stateMutability": "payable",
			"type": "receive"
		}
	]
}