{
	"data": {
		"bytecode": {
			"linkReferences": {},
			"object": "60806040526000600660146101000a81548160ff0219169083151502179055506101f4600860146101000a81548161ffff021916908361ffff1602179055506103e8600860166101000a81548161ffff021916908361ffff1602179055506028600860186101000a81548161ffff021916908361ffff16021790555060146008601a6101000a81548161ffff021916908361ffff160217905550600a6008601c6101000a81548161ffff021916908361ffff16021790555060006008601e6101000a81548160ff02191690831515021790555069152d02c7e14af6800000600955732ea9ca0ca8043575f2189cff9897b575b0c7e857600a60006101000a81548173ffffffffffffffffffffffffffffffffffffffff021916908373ffffffffffffffffffffffffffffffffffffffff16021790555073a7c08aedce8cadc3bfb622bd7b651993d1cd24e4600b60006101000a81548173ffffffffffffffffffffffffffffffffffffffff021916908373ffffffffffffffffffffffffffffffffffffffff160217905550732ea9ca0ca8043575f2189cff9897b575b0c7e857600c60006101000a81548173ffffffffffffffffffffffffffffffffffffffff021916908373ffffffffffffffffffffffffffffffffffffffff1602179055506c0c9f2c9cd04674edea400000006011556000601260006101000a81548160ff0219169083151502179055506001601260016101000a81548160ff0219169083151502179055506064601260026101000a81548161ffff021916908361ffff16021790555061012c601260046101000a81548161ffff021916908361ffff160217905550660775f05a0740006013553480156200027b57600080fd5b506040518060400160405280600b81526020017f41626f617420546f6b656e0000000000000000000000000000000000000000008152506040518060400160405280600581526020017f41424f41540000000000000000000000000000000000000000000000000000008152508160039080519060200190620003009291906200093b565b508060049080519060200190620003199291906200093b565b505050600160058190555062000344620003386200042160201b60201c565b6200042960201b60201c565b33600860006101000a81548173ffffffffffffffffffffffffffffffffffffffff021916908373ffffffffffffffffffffffffffffffffffffffff160217905550620003b8600a60009054906101000a900473ffffffffffffffffffffffffffffffffffffffff16620004ef60201b60201c565b620003eb600b60009054906101000a900473ffffffffffffffffffffffffffffffffffffffff16620004ef60201b60201c565b6200040a336c0792b45e1690ac8ebfc00000006200067b60201b60201c565b6200041b33620004ef60201b60201c565b62000d5f565b600033905090565b6000600660009054906101000a900473ffffffffffffffffffffffffffffffffffffffff16905081600660006101000a81548173ffffffffffffffffffffffffffffffffffffffff021916908373ffffffffffffffffffffffffffffffffffffffff1602179055508173ffffffffffffffffffffffffffffffffffffffff168173ffffffffffffffffffffffffffffffffffffffff167f8be0079c531659141344cd1fd0a4f28419497f9722a3daafe3b4186f6b6457e060405160405180910390a35050565b3373ffffffffffffffffffffffffffffffffffffffff16620005166200078460201b60201c565b73ffffffffffffffffffffffffffffffffffffffff1614806200058657503373ffffffffffffffffffffffffffffffffffffffff16600860009054906101000a900473ffffffffffffffffffffffffffffffffffffffff1673ffffffffffffffffffffffffffffffffffffffff16145b620005c8576040517f08c379a0000000000000000000000000000000000000000000000000000000008152600401620005bf9062000adc565b60405180910390fd5b6001600f60008373ffffffffffffffffffffffffffffffffffffffff1673ffffffffffffffffffffffffffffffffffffffff16815260200190815260200160002060006101000a81548160ff0219169083151502179055506001601060008373ffffffffffffffffffffffffffffffffffffffff1673ffffffffffffffffffffffffffffffffffffffff16815260200190815260200160002060006101000a81548160ff02191690831515021790555050565b6200068b6200042160201b60201c565b73ffffffffffffffffffffffffffffffffffffffff16620006b16200078460201b60201c565b73ffffffffffffffffffffffffffffffffffffffff16146200070a576040517f08c379a0000000000000000000000000000000000000000000000000000000008152600401620007019062000aba565b60405180910390fd5b601154816200071e620007ae60201b60201c565b6200072a919062000b4e565b11156200076e576040517f08c379a0000000000000000000000000000000000000000000000000000000008152600401620007659062000a98565b60405180910390fd5b620007808282620007b860201b60201c565b5050565b6000600660009054906101000a900473ffffffffffffffffffffffffffffffffffffffff16905090565b6000600254905090565b600073ffffffffffffffffffffffffffffffffffffffff168273ffffffffffffffffffffffffffffffffffffffff1614156200082b576040517f08c379a0000000000000000000000000000000000000000000000000000000008152600401620008229062000afe565b60405180910390fd5b6200083f600083836200093160201b60201c565b806002600082825462000853919062000b4e565b92505081905550806000808473ffffffffffffffffffffffffffffffffffffffff1673ffffffffffffffffffffffffffffffffffffffff1681526020019081526020016000206000828254620008aa919062000b4e565b925050819055508173ffffffffffffffffffffffffffffffffffffffff16600073ffffffffffffffffffffffffffffffffffffffff167fddf252ad1be2c89b69c2b068fc378daa952ba7f163c4a11628f55a4df523b3ef8360405162000911919062000b20565b60405180910390a36200092d600083836200093660201b60201c565b5050565b505050565b505050565b828054620009499062000bb5565b90600052602060002090601f0160209004810192826200096d5760008555620009b9565b82601f106200098857805160ff1916838001178555620009b9565b82800160010185558215620009b9579182015b82811115620009b85782518255916020019190600101906200099b565b5b509050620009c89190620009cc565b5090565b5b80821115620009e7576000816000905550600101620009cd565b5090565b6000620009fa60448362000b3d565b915062000a078262000c49565b606082019050919050565b600062000a2160208362000b3d565b915062000a2e8262000cbe565b602082019050919050565b600062000a4860358362000b3d565b915062000a558262000ce7565b604082019050919050565b600062000a6f601f8362000b3d565b915062000a7c8262000d36565b602082019050919050565b62000a928162000bab565b82525050565b6000602082019050818103600083015262000ab381620009eb565b9050919050565b6000602082019050818103600083015262000ad58162000a12565b9050919050565b6000602082019050818103600083015262000af78162000a39565b9050919050565b6000602082019050818103600083015262000b198162000a60565b9050919050565b600060208201905062000b37600083018462000a87565b92915050565b600082825260208201905092915050565b600062000b5b8262000bab565b915062000b688362000bab565b9250827fffffffffffffffffffffffffffffffffffffffffffffffffffffffffffffffff0382111562000ba05762000b9f62000beb565b5b828201905092915050565b6000819050919050565b6000600282049050600182168062000bce57607f821691505b6020821081141562000be55762000be462000c1a565b5b50919050565b7f4e487b7100000000000000000000000000000000000000000000000000000000600052601160045260246000fd5b7f4e487b7100000000000000000000000000000000000000000000000000000000600052602260045260246000fd5b7f41424f41543a3a6d696e743a2043616e2774206d696e74206d6f72652061626f60008201527f617420746f6b656e207468616e206d6178446973747269627574696f6e20616c60208201527f6c6f777300000000000000000000000000000000000000000000000000000000604082015250565b7f4f776e61626c653a2063616c6c6572206973206e6f7420746865206f776e6572600082015250565b7f6f70657261746f723a2063616c6c6572206973206e6f7420616c6c6f7765642060008201527f746f2063616c6c20746869732066756e6374696f6e0000000000000000000000602082015250565b7f45524332303a206d696e7420746f20746865207a65726f206164647265737300600082015250565b61aa8c8062000d6f6000396000f3fe6080604052600436106104ce5760003560e01c80637d8e961511610276578063a4f4a7651161014f578063dd62ed3e116100c1578063f2fde38b11610085578063f2fde38b146112d1578063f4762fd6146112fa578063f98080c014611311578063f9f92be41461134e578063fafa448914611377578063fb25c120146113a2576104d5565b8063dd62ed3e146111fe578063df6f66301461123b578063e9fd586214611264578063edae876f1461128f578063f1a3da22146112ba576104d5565b8063b29ad50a11610113578063b29ad50a14611102578063bb92201414611119578063c1316eb614611156578063c851cc321461117f578063c9574975146111a8578063d9324079146111d3576104d5565b8063a4f4a7651461100b578063a607494a14611036578063a9059cbb1461105f578063ae7e1d7a1461109c578063af10e03e146110d9576104d5565b8063982ceeb7116101e85780639d93598e116101ac5780639d93598e14610efd5780639f53115614610f26578063a17252a414610f4f578063a347511a14610f78578063a37f4ea914610fa3578063a457c2d714610fce576104d5565b8063982ceeb714610e185780639850d32b14610e43578063986d614214610e6e5780639b19251a14610e975780639b96eece14610ec0576104d5565b80638da5cb5b1161023a5780638da5cb5b14610d2c5780638efd5e3b14610d575780638f5949f914610d805780638fda356d14610dab57806391ee586414610dc257806395d89b4114610ded576104d5565b80637d8e961514610c475780638053575b14610c70578063808a545714610cad57806388bce12314610cd85780638aba465914610d03576104d5565b8063313ce567116103a85780635a96cdd71161031a5780636e1e9349116102de5780636e1e934914610b6c57806370a0823114610b76578063715018a614610bb3578063737dc9bd14610bca57806373b002a514610bf35780637897af8614610c1e576104d5565b80635a96cdd714610a85578063626bb27414610aae578063645830b414610ad9578063653465bf14610b0457806369372b3014610b2f576104d5565b8063437f660e1161036c578063437f660e1461099f5780634ad1eb81146109b6578063506ee100146109df57806353a5451114610a0a5780635461345014610a335780635958621e14610a5c576104d5565b8063313ce567146108a8578063318913fb146108d3578063370f0a6014610910578063395093511461093957806340c10f1914610976576104d5565b806318160ddd11610441578063239eb21111610405578063239eb2111461079657806323b872dd146107c15780632a83759b146107fe5780632b112e49146108155780632b714147146108405780633071fed21461086b576104d5565b806318160ddd146106c35780631ac818a1146106ee5780631b6111111461072b5780631d5e3fe5146107425780631f53ac021461076d576104d5565b806306fdde031161049357806306fdde03146105b1578063095ea7b3146105dc5780630cd84dc6146106195780630d38ffcd1461064457806311a63e171461066f57806313ea5d291461069a576104d5565b80625d1afc146104da5780630181bb781461050557806301bbba4d1461053057806303fcdbdf1461055b578063044e0ea214610586576104d5565b366104d557005b600080fd5b3480156104e657600080fd5b506104ef6113cb565b6040516104fc9190618ea3565b60405180910390f35b34801561051157600080fd5b5061051a6113de565b60405161052791906194c2565b60405180910390f35b34801561053c57600080fd5b506105456113f2565b60405161055291906194c2565b60405180910390f35b34801561056757600080fd5b50610570611406565b60405161057d91906194c2565b60405180910390f35b34801561059257600080fd5b5061059b61141a565b6040516105a8919061953d565b60405180910390f35b3480156105bd57600080fd5b506105c6611420565b6040516105d39190618f40565b60405180910390f35b3480156105e857600080fd5b5061060360048036038101906105fe9190618395565b6114b2565b6040516106109190618ea3565b60405180910390f35b34801561062557600080fd5b5061062e6114d0565b60405161063b9190618ebe565b60405180910390f35b34801561065057600080fd5b506106596114f6565b60405161066691906194c2565b60405180910390f35b34801561067b57600080fd5b5061068461150a565b6040516106919190618d2e565b60405180910390f35b3480156106a657600080fd5b506106c160048036038101906106bc91906182a8565b611530565b005b3480156106cf57600080fd5b506106d86118cb565b6040516106e5919061953d565b60405180910390f35b3480156106fa57600080fd5b50610715600480360381019061071091906182a8565b6118d5565b6040516107229190618ea3565b60405180910390f35b34801561073757600080fd5b506107406118f5565b005b34801561074e57600080fd5b50610757611a11565b604051610764919061953d565b60405180910390f35b34801561077957600080fd5b50610794600480360381019061078f91906182a8565b611a17565b005b3480156107a257600080fd5b506107ab611bc3565b6040516107b8919061953d565b60405180910390f35b3480156107cd57600080fd5b506107e860048036038101906107e39190618342565b611c5a565b6040516107f59190618ea3565b60405180910390f35b34801561080a57600080fd5b50610813611d52565b005b34801561082157600080fd5b5061082a611e95565b604051610837919061953d565b60405180910390f35b34801561084c57600080fd5b50610855611ee0565b604051610862919061953d565b60405180910390f35b34801561087757600080fd5b50610892600480360381019061088d91906182a8565b611ee6565b60405161089f919061953d565b60405180910390f35b3480156108b457600080fd5b506108bd612038565b6040516108ca91906195e9565b60405180910390f35b3480156108df57600080fd5b506108fa60048036038101906108f591906182a8565b612041565b6040516109079190618ea3565b60405180910390f35b34801561091c57600080fd5b50610937600480360381019061093291906182a8565b612164565b005b34801561094557600080fd5b50610960600480360381019061095b9190618395565b6122e4565b60405161096d9190618ea3565b60405180910390f35b34801561098257600080fd5b5061099d60048036038101906109989190618395565b612390565b005b3480156109ab57600080fd5b506109b4612471565b005b3480156109c257600080fd5b506109dd60048036038101906109d891906182a8565b61254c565b005b3480156109eb57600080fd5b506109f4612674565b604051610a019190618d2e565b60405180910390f35b348015610a1657600080fd5b50610a316004803603810190610a2c91906182a8565b6127e4565b005b348015610a3f57600080fd5b50610a5a6004803603810190610a5591906182a8565b61290c565b005b348015610a6857600080fd5b50610a836004803603810190610a7e91906182a8565b612b2a565b005b348015610a9157600080fd5b50610aac6004803603810190610aa791906182a8565b612cd6565b005b348015610aba57600080fd5b50610ac3612e57565b604051610ad0919061953d565b60405180910390f35b348015610ae557600080fd5b50610aee612e5d565b604051610afb9190618d2e565b60405180910390f35b348015610b1057600080fd5b50610b19612e83565b604051610b269190618ea3565b60405180910390f35b348015610b3b57600080fd5b50610b566004803603810190610b5191906184cb565b612e96565b604051610b639190618ea3565b60405180910390f35b610b74612eb7565b005b348015610b8257600080fd5b50610b9d6004803603810190610b9891906182a8565b6130de565b604051610baa919061953d565b60405180910390f35b348015610bbf57600080fd5b50610bc8613126565b005b348015610bd657600080fd5b50610bf16004803603810190610bec9190618478565b6131ae565b005b348015610bff57600080fd5b50610c086134bc565b604051610c15919061953d565b60405180910390f35b348015610c2a57600080fd5b50610c456004803603810190610c4091906182a8565b6134c2565b005b348015610c5357600080fd5b50610c6e6004803603810190610c69919061844b565b6135ea565b005b348015610c7c57600080fd5b50610c976004803603810190610c9291906182a8565b6138ae565b604051610ca49190618ea3565b60405180910390f35b348015610cb957600080fd5b50610cc2613904565b604051610ccf9190618d2e565b60405180910390f35b348015610ce457600080fd5b50610ced61392e565b604051610cfa91906194c2565b60405180910390f35b348015610d0f57600080fd5b50610d2a6004803603810190610d2591906184cb565b613942565b005b348015610d3857600080fd5b50610d41613a51565b604051610d4e9190618d2e565b60405180910390f35b348015610d6357600080fd5b50610d7e6004803603810190610d7991906184cb565b613a7b565b005b348015610d8c57600080fd5b50610d95613b52565b604051610da29190618ea3565b60405180910390f35b348015610db757600080fd5b50610dc0613b65565b005b348015610dce57600080fd5b50610dd7613c4f565b604051610de4919061953d565b60405180910390f35b348015610df957600080fd5b50610e02613c55565b604051610e0f9190618f40565b60405180910390f35b348015610e2457600080fd5b50610e2d613ce7565b604051610e3a919061953d565b60405180910390f35b348015610e4f57600080fd5b50610e58613ced565b604051610e659190618d2e565b60405180910390f35b348015610e7a57600080fd5b50610e956004803603810190610e9091906182a8565b613d17565b005b348015610ea357600080fd5b50610ebe6004803603810190610eb991906182a8565b613e3f565b005b348015610ecc57600080fd5b50610ee76004803603810190610ee291906182a8565b613fbf565b604051610ef4919061953d565b60405180910390f35b348015610f0957600080fd5b50610f246004803603810190610f1f91906182a8565b614090565b005b348015610f3257600080fd5b50610f4d6004803603810190610f489190618402565b6146c1565b005b348015610f5b57600080fd5b50610f766004803603810190610f7191906182a8565b6147b5565b005b348015610f8457600080fd5b50610f8d614935565b604051610f9a9190618ea3565b60405180910390f35b348015610faf57600080fd5b50610fb8614948565b604051610fc59190618d2e565b60405180910390f35b348015610fda57600080fd5b50610ff56004803603810190610ff09190618395565b61496e565b6040516110029190618ea3565b60405180910390f35b34801561101757600080fd5b50611020614a59565b60405161102d9190618d2e565b60405180910390f35b34801561104257600080fd5b5061105d60048036038101906110589190618402565b614a7f565b005b34801561106b57600080fd5b5061108660048036038101906110819190618395565b614be1565b6040516110939190618ea3565b60405180910390f35b3480156110a857600080fd5b506110c360048036038101906110be91906182a8565b614bff565b6040516110d09190618ea3565b60405180910390f35b3480156110e557600080fd5b5061110060048036038101906110fb919061844b565b614c1f565b005b34801561110e57600080fd5b50611117614f30565b005b34801561112557600080fd5b50611140600480360381019061113b91906182a8565b6154f7565b60405161114d9190618ea3565b60405180910390f35b34801561116257600080fd5b5061117d6004803603810190611178919061844b565b61554d565b005b34801561118b57600080fd5b506111a660048036038101906111a191906182a8565b6156dd565b005b3480156111b457600080fd5b506111bd615a4e565b6040516111ca91906194c2565b60405180910390f35b3480156111df57600080fd5b506111e8615a62565b6040516111f591906194c2565b60405180910390f35b34801561120a57600080fd5b5061122560048036038101906112209190618302565b615a68565b604051611232919061953d565b60405180910390f35b34801561124757600080fd5b50611262600480360381019061125d91906184cb565b615aef565b005b34801561127057600080fd5b50611279615d58565b604051611286919061953d565b60405180910390f35b34801561129b57600080fd5b506112a4615d5e565b6040516112b19190618ed9565b60405180910390f35b3480156112c657600080fd5b506112cf615d84565b005b3480156112dd57600080fd5b506112f860048036038101906112f391906182a8565b615eac565b005b34801561130657600080fd5b5061130f615fa4565b005b34801561131d57600080fd5b5061133860048036038101906113339190618402565b6160ba565b604051611345919061953d565b60405180910390f35b34801561135a57600080fd5b50611375600480360381019061137091906182a8565b6160e8565b005b34801561138357600080fd5b5061138c616253565b60405161139991906194c2565b60405180910390f35b3480156113ae57600080fd5b506113c960048036038101906113c4919061844b565b616267565b005b6008601e9054906101000a900460ff1681565b601260049054906101000a900461ffff1681565b600860149054906101000a900461ffff1681565b600860189054906101000a900461ffff1681565b60115481565b60606003805461142f9061992e565b80601f016020809104026020016040519081016040528092919081815260200182805461145b9061992e565b80156114a85780601f1061147d576101008083540402835291602001916114a8565b820191906000526020600020905b81548152906001019060200180831161148b57829003601f168201915b5050505050905090565b60006114c66114bf6163f7565b84846163ff565b6001905092915050565b601960009054906101000a900473ffffffffffffffffffffffffffffffffffffffff1681565b6008601c9054906101000a900461ffff1681565b600a60009054906101000a900473ffffffffffffffffffffffffffffffffffffffff1681565b3373ffffffffffffffffffffffffffffffffffffffff1661154f613a51565b73ffffffffffffffffffffffffffffffffffffffff1614806115be57503373ffffffffffffffffffffffffffffffffffffffff16600860009054906101000a900473ffffffffffffffffffffffffffffffffffffffff1673ffffffffffffffffffffffffffffffffffffffff16145b6115fd576040517f08c379a00000000000000000000000000000000000000000000000000000000081526004016115f490619302565b60405180910390fd5b6040518060400160405280600a81526020017f6d61696e7461696e657200000000000000000000000000000000000000000000815250600660149054906101000a900460ff1615806116d05750600060078260405161165c9190618d17565b908152602001604051809103902054141580156116975750426007826040516116859190618d17565b90815260200160405180910390205411155b80156116cf575042620151806007836040516116b39190618d17565b9081526020016040518091039020546116cc9190619708565b10155b5b61170f576040517f08c379a0000000000000000000000000000000000000000000000000000000008152600401611706906192a2565b60405180910390fd5b600860009054906101000a900473ffffffffffffffffffffffffffffffffffffffff1673ffffffffffffffffffffffffffffffffffffffff168273ffffffffffffffffffffffffffffffffffffffff161415801561179a5750600073ffffffffffffffffffffffffffffffffffffffff168273ffffffffffffffffffffffffffffffffffffffff1614155b6117d9576040517f08c379a00000000000000000000000000000000000000000000000000000000081526004016117d0906191e2565b60405180910390fd5b6000600860009054906101000a900473ffffffffffffffffffffffffffffffffffffffff16905082600860006101000a81548173ffffffffffffffffffffffffffffffffffffffff021916908373ffffffffffffffffffffffffffffffffffffffff160217905550600860009054906101000a900473ffffffffffffffffffffffffffffffffffffffff1673ffffffffffffffffffffffffffffffffffffffff168173ffffffffffffffffffffffffffffffffffffffff167f2f3ffaaaad93928855c8700645d1a3643e6ccfdd500efa9fda048a88f557cf0160405160405180910390a3506118c7816146c1565b5050565b6000600254905090565b60106020528060005260406000206000915054906101000a900460ff1681565b3373ffffffffffffffffffffffffffffffffffffffff16611914613a51565b73ffffffffffffffffffffffffffffffffffffffff16148061198357503373ffffffffffffffffffffffffffffffffffffffff16600860009054906101000a900473ffffffffffffffffffffffffffffffffffffffff1673ffffffffffffffffffffffffffffffffffffffff16145b6119c2576040517f08c379a00000000000000000000000000000000000000000000000000000000081526004016119b990619302565b60405180910390fd5b60004711611a05576040517f08c379a00000000000000000000000000000000000000000000000000000000081526004016119fc90619122565b60405180910390fd5b611a0f33476165ca565b565b60135481565b3373ffffffffffffffffffffffffffffffffffffffff16611a36613a51565b73ffffffffffffffffffffffffffffffffffffffff161480611aa557503373ffffffffffffffffffffffffffffffffffffffff16600860009054906101000a900473ffffffffffffffffffffffffffffffffffffffff1673ffffffffffffffffffffffffffffffffffffffff16145b611ae4576040517f08c379a0000000000000000000000000000000000000000000000000000000008152600401611adb90619302565b60405180910390fd5b600073ffffffffffffffffffffffffffffffffffffffff168173ffffffffffffffffffffffffffffffffffffffff161415611b54576040517f08c379a0000000000000000000000000000000000000000000000000000000008152600401611b4b90619462565b60405180910390fd5b80600a60006101000a81548173ffffffffffffffffffffffffffffffffffffffff021916908373ffffffffffffffffffffffffffffffffffffffff160217905550611bc0600a60009054906101000a900473ffffffffffffffffffffffffffffffffffffffff16612164565b50565b6000611bcd612674565b73ffffffffffffffffffffffffffffffffffffffff166370a08231306040518263ffffffff1660e01b8152600401611c059190618d2e565b60206040518083038186803b158015611c1d57600080fd5b505afa158015611c31573d6000803e3d6000fd5b505050506040513d601f19601f82011682018060405250810190611c5591906184f8565b905090565b6000611c678484846166ca565b6000600160008673ffffffffffffffffffffffffffffffffffffffff1673ffffffffffffffffffffffffffffffffffffffff1681526020019081526020016000206000611cb26163f7565b73ffffffffffffffffffffffffffffffffffffffff1673ffffffffffffffffffffffffffffffffffffffff16815260200190815260200160002054905082811015611d32576040517f08c379a0000000000000000000000000000000000000000000000000000000008152600401611d2990619262565b60405180910390fd5b611d4685611d3e6163f7565b8584036163ff565b60019150509392505050565b3373ffffffffffffffffffffffffffffffffffffffff16611d71613a51565b73ffffffffffffffffffffffffffffffffffffffff161480611de057503373ffffffffffffffffffffffffffffffffffffffff16600860009054906101000a900473ffffffffffffffffffffffffffffffffffffffff1673ffffffffffffffffffffffffffffffffffffffff16145b611e1f576040517f08c379a0000000000000000000000000000000000000000000000000000000008152600401611e1690619302565b60405180910390fd5b6000601260016101000a81548160ff0219169083151502179055506001601260006101000a81548160ff021916908315150217905550601260019054906101000a900460ff1615157f4c67d13291f7fe21c52eee8f752cbc5c7451e593e18093d087403081206fd46c60405160405180910390a2565b6000611edb611ec5600c60009054906101000a900473ffffffffffffffffffffffffffffffffffffffff166130de565b611ecd6118cb565b61731090919063ffffffff16565b905090565b60165481565b6000601260019054906101000a900460ff1615611f07576123289050612033565b6000611f1283613fbf565b9050611f1c6118cb565b811115611f4057600860169054906101000a900461ffff1661ffff16915050612033565b620186a0611f4c6118cb565b611f56919061975e565b811015611f7a57600860149054906101000a900461ffff1661ffff16915050612033565b6000611f846118cb565b620186a083611f93919061978f565b611f9d919061975e565b90506064811115612019576000606482600860149054906101000a900461ffff1661ffff16611fcc9190619708565b611fd691906197e9565b9050600860169054906101000a900461ffff1661ffff168111611ff9578061200f565b600860169054906101000a900461ffff1661ffff165b9350505050612033565b600860149054906101000a900461ffff1661ffff16925050505b919050565b60006012905090565b60003373ffffffffffffffffffffffffffffffffffffffff16612062613a51565b73ffffffffffffffffffffffffffffffffffffffff1614806120d157503373ffffffffffffffffffffffffffffffffffffffff16600860009054906101000a900473ffffffffffffffffffffffffffffffffffffffff1673ffffffffffffffffffffffffffffffffffffffff16145b612110576040517f08c379a000000000000000000000000000000000000000000000000000000000815260040161210790619302565b60405180910390fd5b601b60008373ffffffffffffffffffffffffffffffffffffffff1673ffffffffffffffffffffffffffffffffffffffff16815260200190815260200160002060009054906101000a900460ff169050919050565b3373ffffffffffffffffffffffffffffffffffffffff16612183613a51565b73ffffffffffffffffffffffffffffffffffffffff1614806121f257503373ffffffffffffffffffffffffffffffffffffffff16600860009054906101000a900473ffffffffffffffffffffffffffffffffffffffff1673ffffffffffffffffffffffffffffffffffffffff16145b612231576040517f08c379a000000000000000000000000000000000000000000000000000000000815260040161222890619302565b60405180910390fd5b6001600f60008373ffffffffffffffffffffffffffffffffffffffff1673ffffffffffffffffffffffffffffffffffffffff16815260200190815260200160002060006101000a81548160ff0219169083151502179055506001601060008373ffffffffffffffffffffffffffffffffffffffff1673ffffffffffffffffffffffffffffffffffffffff16815260200190815260200160002060006101000a81548160ff02191690831515021790555050565b60006123866122f16163f7565b8484600160006122ff6163f7565b73ffffffffffffffffffffffffffffffffffffffff1673ffffffffffffffffffffffffffffffffffffffff16815260200190815260200160002060008873ffffffffffffffffffffffffffffffffffffffff1673ffffffffffffffffffffffffffffffffffffffff168152602001908152602001600020546123819190619708565b6163ff565b6001905092915050565b6123986163f7565b73ffffffffffffffffffffffffffffffffffffffff166123b6613a51565b73ffffffffffffffffffffffffffffffffffffffff161461240c576040517f08c379a000000000000000000000000000000000000000000000000000000000815260040161240390619282565b60405180910390fd5b601154816124186118cb565b6124229190619708565b1115612463576040517f08c379a000000000000000000000000000000000000000000000000000000000815260040161245a90618fe2565b60405180910390fd5b61246d8282617326565b5050565b600073ffffffffffffffffffffffffffffffffffffffff16601960009054906101000a900473ffffffffffffffffffffffffffffffffffffffff1673ffffffffffffffffffffffffffffffffffffffff161461254a57601960009054906101000a900473ffffffffffffffffffffffffffffffffffffffff1673ffffffffffffffffffffffffffffffffffffffff1663673a7e286040518163ffffffff1660e01b8152600401600060405180830381600087803b15801561253157600080fd5b505af1158015612545573d6000803e3d6000fd5b505050505b565b3373ffffffffffffffffffffffffffffffffffffffff1661256b613a51565b73ffffffffffffffffffffffffffffffffffffffff1614806125da57503373ffffffffffffffffffffffffffffffffffffffff16600860009054906101000a900473ffffffffffffffffffffffffffffffffffffffff1673ffffffffffffffffffffffffffffffffffffffff16145b612619576040517f08c379a000000000000000000000000000000000000000000000000000000000815260040161261090619302565b60405180910390fd5b6000600f60008373ffffffffffffffffffffffffffffffffffffffff1673ffffffffffffffffffffffffffffffffffffffff16815260200190815260200160002060006101000a81548160ff02191690831515021790555050565b600080600d60009054906101000a900473ffffffffffffffffffffffffffffffffffffffff16905060008173ffffffffffffffffffffffffffffffffffffffff16630dfe16816040518163ffffffff1660e01b815260040160206040518083038186803b1580156126e457600080fd5b505afa1580156126f8573d6000803e3d6000fd5b505050506040513d601f19601f8201168201806040525081019061271c91906182d5565b905060008273ffffffffffffffffffffffffffffffffffffffff1663d21220a76040518163ffffffff1660e01b815260040160206040518083038186803b15801561276657600080fd5b505afa15801561277a573d6000803e3d6000fd5b505050506040513d601f19601f8201168201806040525081019061279e91906182d5565b90503073ffffffffffffffffffffffffffffffffffffffff168273ffffffffffffffffffffffffffffffffffffffff1614156127da57806127dc565b815b935050505090565b3373ffffffffffffffffffffffffffffffffffffffff16612803613a51565b73ffffffffffffffffffffffffffffffffffffffff16148061287257503373ffffffffffffffffffffffffffffffffffffffff16600860009054906101000a900473ffffffffffffffffffffffffffffffffffffffff1673ffffffffffffffffffffffffffffffffffffffff16145b6128b1576040517f08c379a00000000000000000000000000000000000000000000000000000000081526004016128a890619302565b60405180910390fd5b6000601060008373ffffffffffffffffffffffffffffffffffffffff1673ffffffffffffffffffffffffffffffffffffffff16815260200190815260200160002060006101000a81548160ff02191690831515021790555050565b6129146163f7565b73ffffffffffffffffffffffffffffffffffffffff16612932613a51565b73ffffffffffffffffffffffffffffffffffffffff1614612988576040517f08c379a000000000000000000000000000000000000000000000000000000000815260040161297f90619282565b60405180910390fd5b601960009054906101000a900473ffffffffffffffffffffffffffffffffffffffff1673ffffffffffffffffffffffffffffffffffffffff168173ffffffffffffffffffffffffffffffffffffffff1614158015612a135750600073ffffffffffffffffffffffffffffffffffffffff168173ffffffffffffffffffffffffffffffffffffffff1614155b612a52576040517f08c379a0000000000000000000000000000000000000000000000000000000008152600401612a49906190c2565b60405180910390fd5b6000601960009054906101000a900473ffffffffffffffffffffffffffffffffffffffff16905081601960006101000a81548173ffffffffffffffffffffffffffffffffffffffff021916908373ffffffffffffffffffffffffffffffffffffffff160217905550612ac382612164565b612acc82615eac565b8173ffffffffffffffffffffffffffffffffffffffff168173ffffffffffffffffffffffffffffffffffffffff167fdbc41a91ae00463e0c8208e05c807f2559c82a27989b5dd9f984e3a0b8059d6960405160405180910390a35050565b3373ffffffffffffffffffffffffffffffffffffffff16612b49613a51565b73ffffffffffffffffffffffffffffffffffffffff161480612bb857503373ffffffffffffffffffffffffffffffffffffffff16600860009054906101000a900473ffffffffffffffffffffffffffffffffffffffff1673ffffffffffffffffffffffffffffffffffffffff16145b612bf7576040517f08c379a0000000000000000000000000000000000000000000000000000000008152600401612bee90619302565b60405180910390fd5b600073ffffffffffffffffffffffffffffffffffffffff168173ffffffffffffffffffffffffffffffffffffffff161415612c67576040517f08c379a0000000000000000000000000000000000000000000000000000000008152600401612c5e90619422565b60405180910390fd5b80600c60006101000a81548173ffffffffffffffffffffffffffffffffffffffff021916908373ffffffffffffffffffffffffffffffffffffffff160217905550612cd3600c60009054906101000a900473ffffffffffffffffffffffffffffffffffffffff16612164565b50565b3373ffffffffffffffffffffffffffffffffffffffff16612cf5613a51565b73ffffffffffffffffffffffffffffffffffffffff161480612d6457503373ffffffffffffffffffffffffffffffffffffffff16600860009054906101000a900473ffffffffffffffffffffffffffffffffffffffff1673ffffffffffffffffffffffffffffffffffffffff16145b612da3576040517f08c379a0000000000000000000000000000000000000000000000000000000008152600401612d9a90619302565b60405180910390fd5b600073ffffffffffffffffffffffffffffffffffffffff168173ffffffffffffffffffffffffffffffffffffffff161415612e13576040517f08c379a0000000000000000000000000000000000000000000000000000000008152600401612e0a906191c2565b60405180910390fd5b80600b60006101000a81548173ffffffffffffffffffffffffffffffffffffffff021916908373ffffffffffffffffffffffffffffffffffffffff16021790555050565b60175481565b600d60009054906101000a900473ffffffffffffffffffffffffffffffffffffffff1681565b601260019054906101000a900460ff1681565b600060115482612ea46118cb565b612eae9190619708565b11159050919050565b601a60003373ffffffffffffffffffffffffffffffffffffffff1673ffffffffffffffffffffffffffffffffffffffff16815260200190815260200160002060009054906101000a900460ff16612f43576040517f08c379a0000000000000000000000000000000000000000000000000000000008152600401612f3a90618f82565b60405180910390fd5b601b60003373ffffffffffffffffffffffffffffffffffffffff1673ffffffffffffffffffffffffffffffffffffffff16815260200190815260200160002060009054906101000a900460ff1615612fd0576040517f08c379a0000000000000000000000000000000000000000000000000000000008152600401612fc790619222565b60405180910390fd5b601354341015613015576040517f08c379a000000000000000000000000000000000000000000000000000000000815260040161300c90619162565b60405180910390fd5b613041600a60009054906101000a900473ffffffffffffffffffffffffffffffffffffffff16346165ca565b6001601b60003373ffffffffffffffffffffffffffffffffffffffff1673ffffffffffffffffffffffffffffffffffffffff16815260200190815260200160002060006101000a81548160ff0219169083151502179055503373ffffffffffffffffffffffffffffffffffffffff167fd0401c9f53bc0a133a6eb391664575ad9c8e05bdda210963e7e75591938ee51060405160405180910390a2565b60008060008373ffffffffffffffffffffffffffffffffffffffff1673ffffffffffffffffffffffffffffffffffffffff168152602001908152602001600020549050919050565b61312e6163f7565b73ffffffffffffffffffffffffffffffffffffffff1661314c613a51565b73ffffffffffffffffffffffffffffffffffffffff16146131a2576040517f08c379a000000000000000000000000000000000000000000000000000000000815260040161319990619282565b60405180910390fd5b6131ac6000617486565b565b3373ffffffffffffffffffffffffffffffffffffffff166131cd613a51565b73ffffffffffffffffffffffffffffffffffffffff16148061323c57503373ffffffffffffffffffffffffffffffffffffffff16600860009054906101000a900473ffffffffffffffffffffffffffffffffffffffff1673ffffffffffffffffffffffffffffffffffffffff16145b61327b576040517f08c379a000000000000000000000000000000000000000000000000000000000815260040161327290619302565b60405180910390fd5b6040518060400160405280600981526020017f7570646174655461780000000000000000000000000000000000000000000000815250600660149054906101000a900460ff16158061334e575060006007826040516132da9190618d17565b908152602001604051809103902054141580156133155750426007826040516133039190618d17565b90815260200160405180910390205411155b801561334d575042620151806007836040516133319190618d17565b90815260200160405180910390205461334a9190619708565b10155b5b61338d576040517f08c379a0000000000000000000000000000000000000000000000000000000008152600401613384906192a2565b60405180910390fd5b606482848661339c91906196d0565b6133a691906196d0565b61ffff1611156133eb576040517f08c379a00000000000000000000000000000000000000000000000000000000081526004016133e290619402565b60405180910390fd5b83600860186101000a81548161ffff021916908361ffff160217905550826008601a6101000a81548161ffff021916908361ffff160217905550816008601c6101000a81548161ffff021916908361ffff1602179055507f49b216608947f85b55485549bcbeb9b3885d85690a8ecce31f0b27e390af5c7a600860189054906101000a900461ffff166008601a9054906101000a900461ffff166008601c9054906101000a900461ffff166040516134a593929190619506565b60405180910390a16134b6816146c1565b50505050565b60185481565b3373ffffffffffffffffffffffffffffffffffffffff166134e1613a51565b73ffffffffffffffffffffffffffffffffffffffff16148061355057503373ffffffffffffffffffffffffffffffffffffffff16600860009054906101000a900473ffffffffffffffffffffffffffffffffffffffff1673ffffffffffffffffffffffffffffffffffffffff16145b61358f576040517f08c379a000000000000000000000000000000000000000000000000000000000815260040161358690619302565b60405180910390fd5b6001600f60008373ffffffffffffffffffffffffffffffffffffffff1673ffffffffffffffffffffffffffffffffffffffff16815260200190815260200160002060006101000a81548160ff02191690831515021790555050565b3373ffffffffffffffffffffffffffffffffffffffff16613609613a51565b73ffffffffffffffffffffffffffffffffffffffff16148061367857503373ffffffffffffffffffffffffffffffffffffffff16600860009054906101000a900473ffffffffffffffffffffffffffffffffffffffff1673ffffffffffffffffffffffffffffffffffffffff16145b6136b7576040517f08c379a00000000000000000000000000000000000000000000000000000000081526004016136ae90619302565b60405180910390fd5b6040518060400160405280600781526020017f6d696e5f74617800000000000000000000000000000000000000000000000000815250600660149054906101000a900460ff16158061378a575060006007826040516137169190618d17565b9081526020016040518091039020541415801561375157504260078260405161373f9190618d17565b90815260200160405180910390205411155b80156137895750426201518060078360405161376d9190618d17565b9081526020016040518091039020546137869190619708565b10155b5b6137c9576040517f08c379a00000000000000000000000000000000000000000000000000000000081526004016137c0906192a2565b60405180910390fd5b600860169054906101000a900461ffff1661ffff168261ffff161115613824576040517f08c379a000000000000000000000000000000000000000000000000000000000815260040161381b906192e2565b60405180910390fd5b3373ffffffffffffffffffffffffffffffffffffffff167fb2f2e219f74b4a7e339376870ae1b18d655e3cf85f60dc47f56e7cd7bad470c5600860149054906101000a900461ffff168460405161387c9291906194dd565b60405180910390a281600860146101000a81548161ffff021916908361ffff1602179055506138aa816146c1565b5050565b6000601060008373ffffffffffffffffffffffffffffffffffffffff1673ffffffffffffffffffffffffffffffffffffffff16815260200190815260200160002060009054906101000a900460ff169050919050565b6000600d60009054906101000a900473ffffffffffffffffffffffffffffffffffffffff16905090565b601260029054906101000a900461ffff1681565b3373ffffffffffffffffffffffffffffffffffffffff16613961613a51565b73ffffffffffffffffffffffffffffffffffffffff1614806139d057503373ffffffffffffffffffffffffffffffffffffffff16600860009054906101000a900473ffffffffffffffffffffffffffffffffffffffff1673ffffffffffffffffffffffffffffffffffffffff16145b613a0f576040517f08c379a0000000000000000000000000000000000000000000000000000000008152600401613a0690619302565b60405180910390fd5b6000601354905081601381905550601354817fa4257144dd1cd8b911052d6273102723e361f2b03e4cb7312cf347093492db7860405160405180910390a35050565b6000600660009054906101000a900473ffffffffffffffffffffffffffffffffffffffff16905090565b3373ffffffffffffffffffffffffffffffffffffffff16613a9a613a51565b73ffffffffffffffffffffffffffffffffffffffff161480613b0957503373ffffffffffffffffffffffffffffffffffffffff16600860009054906101000a900473ffffffffffffffffffffffffffffffffffffffff1673ffffffffffffffffffffffffffffffffffffffff16145b613b48576040517f08c379a0000000000000000000000000000000000000000000000000000000008152600401613b3f90619302565b60405180910390fd5b8060098190555050565b601260009054906101000a900460ff1681565b3373ffffffffffffffffffffffffffffffffffffffff16613b84613a51565b73ffffffffffffffffffffffffffffffffffffffff161480613bf357503373ffffffffffffffffffffffffffffffffffffffff16600860009054906101000a900473ffffffffffffffffffffffffffffffffffffffff1673ffffffffffffffffffffffffffffffffffffffff16145b613c32576040517f08c379a0000000000000000000000000000000000000000000000000000000008152600401613c2990619302565b60405180910390fd5b6001601260006101000a81548160ff021916908315150217905550565b60155481565b606060048054613c649061992e565b80601f0160208091040260200160405190810160405280929190818152602001828054613c909061992e565b8015613cdd5780601f10613cb257610100808354040283529160200191613cdd565b820191906000526020600020905b815481529060010190602001808311613cc057829003601f168201915b5050505050905090565b60095481565b6000600860009054906101000a900473ffffffffffffffffffffffffffffffffffffffff16905090565b3373ffffffffffffffffffffffffffffffffffffffff16613d36613a51565b73ffffffffffffffffffffffffffffffffffffffff161480613da557503373ffffffffffffffffffffffffffffffffffffffff16600860009054906101000a900473ffffffffffffffffffffffffffffffffffffffff1673ffffffffffffffffffffffffffffffffffffffff16145b613de4576040517f08c379a0000000000000000000000000000000000000000000000000000000008152600401613ddb90619302565b60405180910390fd5b6001601060008373ffffffffffffffffffffffffffffffffffffffff1673ffffffffffffffffffffffffffffffffffffffff16815260200190815260200160002060006101000a81548160ff02191690831515021790555050565b3373ffffffffffffffffffffffffffffffffffffffff16613e5e613a51565b73ffffffffffffffffffffffffffffffffffffffff161480613ecd57503373ffffffffffffffffffffffffffffffffffffffff16600860009054906101000a900473ffffffffffffffffffffffffffffffffffffffff1673ffffffffffffffffffffffffffffffffffffffff16145b613f0c576040517f08c379a0000000000000000000000000000000000000000000000000000000008152600401613f0390619302565b60405180910390fd5b6001601a60008373ffffffffffffffffffffffffffffffffffffffff1673ffffffffffffffffffffffffffffffffffffffff16815260200190815260200160002060006101000a81548160ff0219169083151502179055506000601b60008373ffffffffffffffffffffffffffffffffffffffff1673ffffffffffffffffffffffffffffffffffffffff16815260200190815260200160002060006101000a81548160ff02191690831515021790555050565b6000614089601960009054906101000a900473ffffffffffffffffffffffffffffffffffffffff1673ffffffffffffffffffffffffffffffffffffffff166394d45b598460006040518363ffffffff1660e01b8152600401614022929190618df0565b60206040518083038186803b15801561403a57600080fd5b505afa15801561404e573d6000803e3d6000fd5b505050506040513d601f19601f8201168201806040525081019061407291906184f8565b61407b846130de565b61754c90919063ffffffff16565b9050919050565b3373ffffffffffffffffffffffffffffffffffffffff166140af613a51565b73ffffffffffffffffffffffffffffffffffffffff16148061411e57503373ffffffffffffffffffffffffffffffffffffffff16600860009054906101000a900473ffffffffffffffffffffffffffffffffffffffff1673ffffffffffffffffffffffffffffffffffffffff16145b61415d576040517f08c379a000000000000000000000000000000000000000000000000000000000815260040161415490619302565b60405180910390fd5b6040518060400160405280600781526020017f6c705f7061697200000000000000000000000000000000000000000000000000815250600660149054906101000a900460ff161580614230575060006007826040516141bc9190618d17565b908152602001604051809103902054141580156141f75750426007826040516141e59190618d17565b90815260200160405180910390205411155b801561422f575042620151806007836040516142139190618d17565b90815260200160405180910390205461422c9190619708565b10155b5b61426f576040517f08c379a0000000000000000000000000000000000000000000000000000000008152600401614266906192a2565b60405180910390fd5b600073ffffffffffffffffffffffffffffffffffffffff168273ffffffffffffffffffffffffffffffffffffffff1614156142df576040517f08c379a00000000000000000000000000000000000000000000000000000000081526004016142d6906193a2565b60405180910390fd5b600e60009054906101000a900473ffffffffffffffffffffffffffffffffffffffff1673ffffffffffffffffffffffffffffffffffffffff1663c45a01556040518163ffffffff1660e01b815260040160206040518083038186803b15801561434757600080fd5b505afa15801561435b573d6000803e3d6000fd5b505050506040513d601f19601f8201168201806040525081019061437f91906182d5565b73ffffffffffffffffffffffffffffffffffffffff1663e6a4390530846040518363ffffffff1660e01b81526004016143b9929190618d49565b60206040518083038186803b1580156143d157600080fd5b505afa1580156143e5573d6000803e3d6000fd5b505050506040513d601f19601f8201168201806040525081019061440991906182d5565b600d60006101000a81548173ffffffffffffffffffffffffffffffffffffffff021916908373ffffffffffffffffffffffffffffffffffffffff160217905550600073ffffffffffffffffffffffffffffffffffffffff16600d60009054906101000a900473ffffffffffffffffffffffffffffffffffffffff1673ffffffffffffffffffffffffffffffffffffffff16141561460d57600e60009054906101000a900473ffffffffffffffffffffffffffffffffffffffff1673ffffffffffffffffffffffffffffffffffffffff1663c45a01556040518163ffffffff1660e01b815260040160206040518083038186803b15801561450857600080fd5b505afa15801561451c573d6000803e3d6000fd5b505050506040513d601f19601f8201168201806040525081019061454091906182d5565b73ffffffffffffffffffffffffffffffffffffffff1663c9c6539630846040518363ffffffff1660e01b815260040161457a929190618d49565b602060405180830381600087803b15801561459457600080fd5b505af11580156145a8573d6000803e3d6000fd5b505050506040513d601f19601f820116820180604052508101906145cc91906182d5565b600d60006101000a81548173ffffffffffffffffffffffffffffffffffffffff021916908373ffffffffffffffffffffffffffffffffffffffff1602179055505b614638600d60009054906101000a900473ffffffffffffffffffffffffffffffffffffffff166134c2565b600d60009054906101000a900473ffffffffffffffffffffffffffffffffffffffff1673ffffffffffffffffffffffffffffffffffffffff163373ffffffffffffffffffffffffffffffffffffffff167f6c587433dea122b342b093acb4dde076ca1a441413e43a5a14dde8a8842c944760405160405180910390a36146bd816146c1565b5050565b3373ffffffffffffffffffffffffffffffffffffffff166146e0613a51565b73ffffffffffffffffffffffffffffffffffffffff16148061474f57503373ffffffffffffffffffffffffffffffffffffffff16600860009054906101000a900473ffffffffffffffffffffffffffffffffffffffff1673ffffffffffffffffffffffffffffffffffffffff16145b61478e576040517f08c379a000000000000000000000000000000000000000000000000000000000815260040161478590619302565b60405180910390fd5b60006007826040516147a09190618d17565b90815260200160405180910390208190555050565b3373ffffffffffffffffffffffffffffffffffffffff166147d4613a51565b73ffffffffffffffffffffffffffffffffffffffff16148061484357503373ffffffffffffffffffffffffffffffffffffffff16600860009054906101000a900473ffffffffffffffffffffffffffffffffffffffff1673ffffffffffffffffffffffffffffffffffffffff16145b614882576040517f08c379a000000000000000000000000000000000000000000000000000000000815260040161487990619302565b60405180910390fd5b6000600f60008373ffffffffffffffffffffffffffffffffffffffff1673ffffffffffffffffffffffffffffffffffffffff16815260200190815260200160002060006101000a81548160ff0219169083151502179055506000601060008373ffffffffffffffffffffffffffffffffffffffff1673ffffffffffffffffffffffffffffffffffffffff16815260200190815260200160002060006101000a81548160ff02191690831515021790555050565b600660149054906101000a900460ff1681565b600b60009054906101000a900473ffffffffffffffffffffffffffffffffffffffff1681565b6000806001600061497d6163f7565b73ffffffffffffffffffffffffffffffffffffffff1673ffffffffffffffffffffffffffffffffffffffff16815260200190815260200160002060008573ffffffffffffffffffffffffffffffffffffffff1673ffffffffffffffffffffffffffffffffffffffff16815260200190815260200160002054905082811015614a3a576040517f08c379a0000000000000000000000000000000000000000000000000000000008152600401614a3190619482565b60405180910390fd5b614a4e614a456163f7565b858584036163ff565b600191505092915050565b600c60009054906101000a900473ffffffffffffffffffffffffffffffffffffffff1681565b3373ffffffffffffffffffffffffffffffffffffffff16614a9e613a51565b73ffffffffffffffffffffffffffffffffffffffff161480614b0d57503373ffffffffffffffffffffffffffffffffffffffff16600860009054906101000a900473ffffffffffffffffffffffffffffffffffffffff1673ffffffffffffffffffffffffffffffffffffffff16145b614b4c576040517f08c379a0000000000000000000000000000000000000000000000000000000008152600401614b4390619302565b60405180910390fd5b6201518042614b5b9190619708565b600782604051614b6b9190618d17565b908152602001604051809103902081905550600781604051614b8d9190618d17565b90815260200160405180910390205481604051614baa9190618d17565b60405180910390207ff77f9a799fe8b0be1463abd7459a18fc55dfd8a6a24ddd29b54fd098088089c860405160405180910390a350565b6000614bf5614bee6163f7565b84846166ca565b6001905092915050565b600f6020528060005260406000206000915054906101000a900460ff1681565b3373ffffffffffffffffffffffffffffffffffffffff16614c3e613a51565b73ffffffffffffffffffffffffffffffffffffffff161480614cad57503373ffffffffffffffffffffffffffffffffffffffff16600860009054906101000a900473ffffffffffffffffffffffffffffffffffffffff1673ffffffffffffffffffffffffffffffffffffffff16145b614cec576040517f08c379a0000000000000000000000000000000000000000000000000000000008152600401614ce390619302565b60405180910390fd5b6040518060400160405280600781526020017f6d61785f74617800000000000000000000000000000000000000000000000000815250600660149054906101000a900460ff161580614dbf57506000600782604051614d4b9190618d17565b90815260200160405180910390205414158015614d86575042600782604051614d749190618d17565b90815260200160405180910390205411155b8015614dbe57504262015180600783604051614da29190618d17565b908152602001604051809103902054614dbb9190619708565b10155b5b614dfe576040517f08c379a0000000000000000000000000000000000000000000000000000000008152600401614df5906192a2565b60405180910390fd5b600860149054906101000a900461ffff1661ffff168261ffff161015614e59576040517f08c379a0000000000000000000000000000000000000000000000000000000008152600401614e5090618fa2565b60405180910390fd5b6103e861ffff168261ffff161115614ea6576040517f08c379a0000000000000000000000000000000000000000000000000000000008152600401614e9d906191a2565b60405180910390fd5b3373ffffffffffffffffffffffffffffffffffffffff167ffc18b74e18e9bf8100ca625de9f64c93e88284a81d82c9edfc899869f34b506f600860149054906101000a900461ffff1684604051614efe9291906194dd565b60405180910390a281600860166101000a81548161ffff021916908361ffff160217905550614f2c816146c1565b5050565b6000600860149054906101000a900461ffff1690506000600860169054906101000a900461ffff1690506000600860146101000a81548161ffff021916908361ffff1602179055506000600860166101000a81548161ffff021916908361ffff1602179055506008601e9054906101000a900460ff1615614fb0576154b9565b60016008601e6101000a81548160ff0219169083151502179055506000614fd6306130de565b9050600954811061549c576000600d60009054906101000a900473ffffffffffffffffffffffffffffffffffffffff169050600061504660646150386008601a9054906101000a900461ffff1661ffff1660095461756290919063ffffffff16565b61757890919063ffffffff16565b9050600061508660646150786008601c9054906101000a900461ffff1661ffff1660095461756290919063ffffffff16565b61757890919063ffffffff16565b905060006150c460026150b6846150a88760095461731090919063ffffffff16565b61731090919063ffffffff16565b61757890919063ffffffff16565b905060006150dd8260095461731090919063ffffffff16565b905060008573ffffffffffffffffffffffffffffffffffffffff16630dfe16816040518163ffffffff1660e01b815260040160206040518083038186803b15801561512757600080fd5b505afa15801561513b573d6000803e3d6000fd5b505050506040513d601f19601f8201168201806040525081019061515f91906182d5565b905060008673ffffffffffffffffffffffffffffffffffffffff1663d21220a76040518163ffffffff1660e01b815260040160206040518083038186803b1580156151a957600080fd5b505afa1580156151bd573d6000803e3d6000fd5b505050506040513d601f19601f820116820180604052508101906151e191906182d5565b90508073ffffffffffffffffffffffffffffffffffffffff168273ffffffffffffffffffffffffffffffffffffffff161415615252576040517f08c379a000000000000000000000000000000000000000000000000000000000815260040161524990619042565b60405180910390fd5b6000600e60009054906101000a900473ffffffffffffffffffffffffffffffffffffffff1673ffffffffffffffffffffffffffffffffffffffff1663ad5c46486040518163ffffffff1660e01b815260040160206040518083038186803b1580156152bc57600080fd5b505afa1580156152d0573d6000803e3d6000fd5b505050506040513d601f19601f820116820180604052508101906152f491906182d5565b73ffffffffffffffffffffffffffffffffffffffff168373ffffffffffffffffffffffffffffffffffffffff1614806153f75750600e60009054906101000a900473ffffffffffffffffffffffffffffffffffffffff1673ffffffffffffffffffffffffffffffffffffffff1663ad5c46486040518163ffffffff1660e01b815260040160206040518083038186803b15801561539057600080fd5b505afa1580156153a4573d6000803e3d6000fd5b505050506040513d601f19601f820116820180604052508101906153c891906182d5565b73ffffffffffffffffffffffffffffffffffffffff168273ffffffffffffffffffffffffffffffffffffffff16145b9050600081156154105761540b858761758e565b615457565b6154563073ffffffffffffffffffffffffffffffffffffffff168573ffffffffffffffffffffffffffffffffffffffff16141561544d578361544f565b845b86886175b4565b5b7f17bbfb9a6069321b6ded73bd96327c9e6b7212a5cd51ff219cd61370acafb56185828860405161548a939291906195b2565b60405180910390a15050505050505050505b60006008601e6101000a81548160ff021916908315150217905550505b81600860146101000a81548161ffff021916908361ffff16021790555080600860166101000a81548161ffff021916908361ffff1602179055505050565b6000600f60008373ffffffffffffffffffffffffffffffffffffffff1673ffffffffffffffffffffffffffffffffffffffff16815260200190815260200160002060009054906101000a900460ff169050919050565b3373ffffffffffffffffffffffffffffffffffffffff1661556c613a51565b73ffffffffffffffffffffffffffffffffffffffff1614806155db57503373ffffffffffffffffffffffffffffffffffffffff16600860009054906101000a900473ffffffffffffffffffffffffffffffffffffffff1673ffffffffffffffffffffffffffffffffffffffff16145b61561a576040517f08c379a000000000000000000000000000000000000000000000000000000000815260040161561190619302565b60405180910390fd5b600a8161ffff1611615661576040517f08c379a000000000000000000000000000000000000000000000000000000000815260040161565890619142565b60405180910390fd5b6000601260029054906101000a900461ffff16905081601260026101000a81548161ffff021916908361ffff160217905550601260029054906101000a900461ffff1661ffff168161ffff167f8f171bb23056cced8a730912e267dbf04c43510f33032f06a749b0ccdc8587b460405160405180910390a35050565b3373ffffffffffffffffffffffffffffffffffffffff166156fc613a51565b73ffffffffffffffffffffffffffffffffffffffff16148061576b57503373ffffffffffffffffffffffffffffffffffffffff16600860009054906101000a900473ffffffffffffffffffffffffffffffffffffffff1673ffffffffffffffffffffffffffffffffffffffff16145b6157aa576040517f08c379a00000000000000000000000000000000000000000000000000000000081526004016157a190619302565b60405180910390fd5b6040518060400160405280600681526020017f726f757465720000000000000000000000000000000000000000000000000000815250600660149054906101000a900460ff16158061587d575060006007826040516158099190618d17565b908152602001604051809103902054141580156158445750426007826040516158329190618d17565b90815260200160405180910390205411155b801561587c575042620151806007836040516158609190618d17565b9081526020016040518091039020546158799190619708565b10155b5b6158bc576040517f08c379a00000000000000000000000000000000000000000000000000000000081526004016158b3906192a2565b60405180910390fd5b81600e60006101000a81548173ffffffffffffffffffffffffffffffffffffffff021916908373ffffffffffffffffffffffffffffffffffffffff1602179055506159a5600e60009054906101000a900473ffffffffffffffffffffffffffffffffffffffff1673ffffffffffffffffffffffffffffffffffffffff1663ad5c46486040518163ffffffff1660e01b815260040160206040518083038186803b15801561596857600080fd5b505afa15801561597c573d6000803e3d6000fd5b505050506040513d601f19601f820116820180604052508101906159a091906182d5565b614090565b6159ae826134c2565b600d60009054906101000a900473ffffffffffffffffffffffffffffffffffffffff1673ffffffffffffffffffffffffffffffffffffffff168273ffffffffffffffffffffffffffffffffffffffff163373ffffffffffffffffffffffffffffffffffffffff167feb7c1e97c05570337fe795ab9d5755a8f731c9c52e756b720275940fa283327660405160405180910390a4615a4a816146c1565b5050565b6008601a9054906101000a900461ffff1681565b6103e881565b6000600160008473ffffffffffffffffffffffffffffffffffffffff1673ffffffffffffffffffffffffffffffffffffffff16815260200190815260200160002060008373ffffffffffffffffffffffffffffffffffffffff1673ffffffffffffffffffffffffffffffffffffffff16815260200190815260200160002054905092915050565b3373ffffffffffffffffffffffffffffffffffffffff16615b0e613a51565b73ffffffffffffffffffffffffffffffffffffffff161480615b7d57503373ffffffffffffffffffffffffffffffffffffffff16600860009054906101000a900473ffffffffffffffffffffffffffffffffffffffff1673ffffffffffffffffffffffffffffffffffffffff16145b615bbc576040517f08c379a0000000000000000000000000000000000000000000000000000000008152600401615bb390619302565b60405180910390fd5b6040518060400160405280601081526020017f6d61785f646973747269627574696f6e00000000000000000000000000000000815250600660149054906101000a900460ff161580615c8f57506000600782604051615c1b9190618d17565b90815260200160405180910390205414158015615c56575042600782604051615c449190618d17565b90815260200160405180910390205411155b8015615c8e57504262015180600783604051615c729190618d17565b908152602001604051809103902054615c8b9190619708565b10155b5b615cce576040517f08c379a0000000000000000000000000000000000000000000000000000000008152600401615cc5906192a2565b60405180910390fd5b615cd66118cb565b8211615d17576040517f08c379a0000000000000000000000000000000000000000000000000000000008152600401615d0e906192c2565b60405180910390fd5b81601181905550817f0a7e08474511c62a58c1dc04d12cff13c93670ffc4d0056882f95ebfe2df50ed60405160405180910390a2615d54816146c1565b5050565b60145481565b600e60009054906101000a900473ffffffffffffffffffffffffffffffffffffffff1681565b3373ffffffffffffffffffffffffffffffffffffffff16615da3613a51565b73ffffffffffffffffffffffffffffffffffffffff161480615e1257503373ffffffffffffffffffffffffffffffffffffffff16600860009054906101000a900473ffffffffffffffffffffffffffffffffffffffff1673ffffffffffffffffffffffffffffffffffffffff16145b615e51576040517f08c379a0000000000000000000000000000000000000000000000000000000008152600401615e4890619302565b60405180910390fd5b6001601260016101000a81548160ff021916908315150217905550601260019054906101000a900460ff1615157f4c67d13291f7fe21c52eee8f752cbc5c7451e593e18093d087403081206fd46c60405160405180910390a2565b615eb46163f7565b73ffffffffffffffffffffffffffffffffffffffff16615ed2613a51565b73ffffffffffffffffffffffffffffffffffffffff1614615f28576040517f08c379a0000000000000000000000000000000000000000000000000000000008152600401615f1f90619282565b60405180910390fd5b600073ffffffffffffffffffffffffffffffffffffffff168173ffffffffffffffffffffffffffffffffffffffff161415615f98576040517f08c379a0000000000000000000000000000000000000000000000000000000008152600401615f8f90619002565b60405180910390fd5b615fa181617486565b50565b3373ffffffffffffffffffffffffffffffffffffffff16615fc3613a51565b73ffffffffffffffffffffffffffffffffffffffff16148061603257503373ffffffffffffffffffffffffffffffffffffffff16600860009054906101000a900473ffffffffffffffffffffffffffffffffffffffff1673ffffffffffffffffffffffffffffffffffffffff16145b616071576040517f08c379a000000000000000000000000000000000000000000000000000000000815260040161606890619302565b60405180910390fd5b6001600660146101000a81548160ff0219169083151502179055507f2c08b62bfac9a1b19bb1dec9323f1ce01696a77948b256abf3603d30f25a864e60405160405180910390a1565b6007818051602081018201805184825260208301602085012081835280955050505050506000915090505481565b3373ffffffffffffffffffffffffffffffffffffffff16616107613a51565b73ffffffffffffffffffffffffffffffffffffffff16148061617657503373ffffffffffffffffffffffffffffffffffffffff16600860009054906101000a900473ffffffffffffffffffffffffffffffffffffffff1673ffffffffffffffffffffffffffffffffffffffff16145b6161b5576040517f08c379a00000000000000000000000000000000000000000000000000000000081526004016161ac90619302565b60405180910390fd5b6001601a60008373ffffffffffffffffffffffffffffffffffffffff1673ffffffffffffffffffffffffffffffffffffffff16815260200190815260200160002060006101000a81548160ff0219169083151502179055508073ffffffffffffffffffffffffffffffffffffffff167fffa4e6181777692565cf28528fc88fd1516ea86b56da075235fa575af6a4b85560405160405180910390a250565b600860169054906101000a900461ffff1681565b3373ffffffffffffffffffffffffffffffffffffffff16616286613a51565b73ffffffffffffffffffffffffffffffffffffffff1614806162f557503373ffffffffffffffffffffffffffffffffffffffff16600860009054906101000a900473ffffffffffffffffffffffffffffffffffffffff1673ffffffffffffffffffffffffffffffffffffffff16145b616334576040517f08c379a000000000000000000000000000000000000000000000000000000000815260040161632b90619302565b60405180910390fd5b60648161ffff161161637b576040517f08c379a000000000000000000000000000000000000000000000000000000000815260040161637290619362565b60405180910390fd5b6000601260049054906101000a900461ffff16905081601260046101000a81548161ffff021916908361ffff160217905550601260049054906101000a900461ffff1661ffff168161ffff167f537619d54465d4bf80b6c360206170815aa95deaa5993a7c17ab783706693a4d60405160405180910390a35050565b600033905090565b600073ffffffffffffffffffffffffffffffffffffffff168373ffffffffffffffffffffffffffffffffffffffff16141561646f576040517f08c379a000000000000000000000000000000000000000000000000000000000815260040161646690619382565b60405180910390fd5b600073ffffffffffffffffffffffffffffffffffffffff168273ffffffffffffffffffffffffffffffffffffffff1614156164df576040517f08c379a00000000000000000000000000000000000000000000000000000000081526004016164d690619022565b60405180910390fd5b80600160008573ffffffffffffffffffffffffffffffffffffffff1673ffffffffffffffffffffffffffffffffffffffff16815260200190815260200160002060008473ffffffffffffffffffffffffffffffffffffffff1673ffffffffffffffffffffffffffffffffffffffff168152602001908152602001600020819055508173ffffffffffffffffffffffffffffffffffffffff168373ffffffffffffffffffffffffffffffffffffffff167f8c5be1e5ebec7d5bd14f71427d1e84f3dd0314c0f7b2291e5b200ac8c7c3b925836040516165bd919061953d565b60405180910390a3505050565b60008273ffffffffffffffffffffffffffffffffffffffff1682600067ffffffffffffffff8111156165ff576165fe619a4d565b5b6040519080825280601f01601f1916602001820160405280156166315781602001600182028036833780820191505090505b5060405161663f9190618d00565b60006040518083038185875af1925050503d806000811461667c576040519150601f19603f3d011682016040523d82523d6000602084013e616681565b606091505b50509050806166c5576040517f08c379a00000000000000000000000000000000000000000000000000000000081526004016166bc906190a2565b60405180910390fd5b505050565b60026005541415616710576040517f08c379a000000000000000000000000000000000000000000000000000000000815260040161670790619442565b60405180910390fd5b6002600581905550600073ffffffffffffffffffffffffffffffffffffffff168373ffffffffffffffffffffffffffffffffffffffff161415616788576040517f08c379a000000000000000000000000000000000000000000000000000000000815260040161677f90619242565b60405180910390fd5b600073ffffffffffffffffffffffffffffffffffffffff168273ffffffffffffffffffffffffffffffffffffffff1614156167f8576040517f08c379a00000000000000000000000000000000000000000000000000000000081526004016167ef906190e2565b60405180910390fd5b6000811161683b576040517f08c379a0000000000000000000000000000000000000000000000000000000008152600401616832906193c2565b60405180910390fd5b616844836130de565b811115616886576040517f08c379a000000000000000000000000000000000000000000000000000000000815260040161687d90619182565b60405180910390fd5b601a60008473ffffffffffffffffffffffffffffffffffffffff1673ffffffffffffffffffffffffffffffffffffffff16815260200190815260200160002060009054906101000a900460ff1615616913576040517f08c379a000000000000000000000000000000000000000000000000000000000815260040161690a90619342565b60405180910390fd5b601260029054906101000a900461ffff1661ffff166169306118cb565b6127108361693e919061978f565b616948919061975e565b1115806169875750616958613a51565b73ffffffffffffffffffffffffffffffffffffffff168373ffffffffffffffffffffffffffffffffffffffff16145b806169c45750616995613ced565b73ffffffffffffffffffffffffffffffffffffffff168373ffffffffffffffffffffffffffffffffffffffff16145b80616a185750600f60008473ffffffffffffffffffffffffffffffffffffffff1673ffffffffffffffffffffffffffffffffffffffff16815260200190815260200160002060009054906101000a900460ff165b80616a6c5750601060008473ffffffffffffffffffffffffffffffffffffffff1673ffffffffffffffffffffffffffffffffffffffff16815260200190815260200160002060009054906101000a900460ff165b616aab576040517f08c379a0000000000000000000000000000000000000000000000000000000008152600401616aa290619202565b60405180910390fd5b601260049054906101000a900461ffff1661ffff16616ac86118cb565b612710616ad485613fbf565b84616adf9190619708565b616ae9919061978f565b616af3919061975e565b111580616b325750616b03613a51565b73ffffffffffffffffffffffffffffffffffffffff168273ffffffffffffffffffffffffffffffffffffffff16145b80616b6f5750616b40613ced565b73ffffffffffffffffffffffffffffffffffffffff168273ffffffffffffffffffffffffffffffffffffffff16145b80616ba557503073ffffffffffffffffffffffffffffffffffffffff168273ffffffffffffffffffffffffffffffffffffffff16145b80616bf95750601060008373ffffffffffffffffffffffffffffffffffffffff1673ffffffffffffffffffffffffffffffffffffffff16815260200190815260200160002060009054906101000a900460ff165b80616c4d5750600f60008373ffffffffffffffffffffffffffffffffffffffff1673ffffffffffffffffffffffffffffffffffffffff16815260200190815260200160002060009054906101000a900460ff165b616c8c576040517f08c379a0000000000000000000000000000000000000000000000000000000008152600401616c83906193e2565b60405180910390fd5b601260009054906101000a900460ff1680616cd95750616caa613a51565b73ffffffffffffffffffffffffffffffffffffffff168373ffffffffffffffffffffffffffffffffffffffff16145b80616d165750616ce7613ced565b73ffffffffffffffffffffffffffffffffffffffff168373ffffffffffffffffffffffffffffffffffffffff16145b80616d6a5750601060008373ffffffffffffffffffffffffffffffffffffffff1673ffffffffffffffffffffffffffffffffffffffff16815260200190815260200160002060009054906101000a900460ff165b80616dbe5750600f60008473ffffffffffffffffffffffffffffffffffffffff1673ffffffffffffffffffffffffffffffffffffffff16815260200190815260200160002060009054906101000a900460ff165b616dfd576040517f08c379a0000000000000000000000000000000000000000000000000000000008152600401616df490619102565b60405180910390fd5b601260019054906101000a900460ff161580616e4b5750616e1c613ced565b73ffffffffffffffffffffffffffffffffffffffff168373ffffffffffffffffffffffffffffffffffffffff16145b80616e885750616e59613a51565b73ffffffffffffffffffffffffffffffffffffffff168373ffffffffffffffffffffffffffffffffffffffff16145b80616f315750600f60008473ffffffffffffffffffffffffffffffffffffffff1673ffffffffffffffffffffffffffffffffffffffff16815260200190815260200160002060009054906101000a900460ff168015616f305750601060008373ffffffffffffffffffffffffffffffffffffffff1673ffffffffffffffffffffffffffffffffffffffff16815260200190815260200160002060009054906101000a900460ff165b5b80156170305750600073ffffffffffffffffffffffffffffffffffffffff168273ffffffffffffffffffffffffffffffffffffffff161480616f8757506000600860169054906101000a900461ffff1661ffff16145b80616fdb5750601060008373ffffffffffffffffffffffffffffffffffffffff1673ffffffffffffffffffffffffffffffffffffffff16815260200190815260200160002060009054906101000a900460ff165b8061702f5750600f60008473ffffffffffffffffffffffffffffffffffffffff1673ffffffffffffffffffffffffffffffffffffffff16815260200190815260200160002060009054906101000a900460ff165b5b1561704557617040838383617710565b6172fb565b600061707661271061706861705987611ee6565b8561756290919063ffffffff16565b61757890919063ffffffff16565b905060006170b460646170a6600860189054906101000a900461ffff1661ffff168561756290919063ffffffff16565b61757890919063ffffffff16565b905060006170f260646170e46008601a9054906101000a900461ffff1661ffff168661756290919063ffffffff16565b61757890919063ffffffff16565b9050600061713060646171226008601c9054906101000a900461ffff1661ffff168761756290919063ffffffff16565b61757890919063ffffffff16565b9050600061716b61715c8361714e868861754c90919063ffffffff16565b61754c90919063ffffffff16565b8661731090919063ffffffff16565b90508183828661717b9190619708565b6171859190619708565b61718f9190619708565b85146171d0576040517f08c379a00000000000000000000000000000000000000000000000000000000081526004016171c790619062565b60405180910390fd5b60006171e5868861731090919063ffffffff16565b905085816171f39190619708565b8714617234576040517f08c379a000000000000000000000000000000000000000000000000000000000815260040161722b90618fc2565b60405180910390fd5b61725589308587866172469190619708565b6172509190619708565b617710565b617260898983617710565b61728d89600c60009054906101000a900473ffffffffffffffffffffffffffffffffffffffff1687617710565b80965085601460008282546172a29190619708565b9250508190555083601560008282546172bb9190619708565b9250508190555082601660008282546172d49190619708565b9250508190555081601860008282546172ed9190619708565b925050819055505050505050505b617303612471565b6001600581905550505050565b6000818361731e91906197e9565b905092915050565b600073ffffffffffffffffffffffffffffffffffffffff168273ffffffffffffffffffffffffffffffffffffffff161415617396576040517f08c379a000000000000000000000000000000000000000000000000000000000815260040161738d906194a2565b60405180910390fd5b6173a260008383617991565b80600260008282546173b49190619708565b92505081905550806000808473ffffffffffffffffffffffffffffffffffffffff1673ffffffffffffffffffffffffffffffffffffffff16815260200190815260200160002060008282546174099190619708565b925050819055508173ffffffffffffffffffffffffffffffffffffffff16600073ffffffffffffffffffffffffffffffffffffffff167fddf252ad1be2c89b69c2b068fc378daa952ba7f163c4a11628f55a4df523b3ef8360405161746e919061953d565b60405180910390a361748260008383617996565b5050565b6000600660009054906101000a900473ffffffffffffffffffffffffffffffffffffffff16905081600660006101000a81548173ffffffffffffffffffffffffffffffffffffffff021916908373ffffffffffffffffffffffffffffffffffffffff1602179055508173ffffffffffffffffffffffffffffffffffffffff168173ffffffffffffffffffffffffffffffffffffffff167f8be0079c531659141344cd1fd0a4f28419497f9722a3daafe3b4186f6b6457e060405160405180910390a35050565b6000818361755a9190619708565b905092915050565b60008183617570919061978f565b905092915050565b60008183617586919061975e565b905092915050565b60006175998361799b565b905060008111156175af576175ae8282617ab3565b5b505050565b600083905060006175c48461799b565b905060008273ffffffffffffffffffffffffffffffffffffffff166370a08231306040518263ffffffff1660e01b81526004016176019190618d2e565b60206040518083038186803b15801561761957600080fd5b505afa15801561762d573d6000803e3d6000fd5b505050506040513d601f19601f8201168201806040525081019061765191906184f8565b905061765d8287617ba1565b60006176fa828573ffffffffffffffffffffffffffffffffffffffff166370a08231306040518263ffffffff1660e01b815260040161769c9190618d2e565b60206040518083038186803b1580156176b457600080fd5b505afa1580156176c8573d6000803e3d6000fd5b505050506040513d601f19601f820116820180604052508101906176ec91906184f8565b61731090919063ffffffff16565b9050617707858289617dc6565b50505050505050565b600073ffffffffffffffffffffffffffffffffffffffff168373ffffffffffffffffffffffffffffffffffffffff161415617780576040517f08c379a000000000000000000000000000000000000000000000000000000000815260040161777790619322565b60405180910390fd5b600073ffffffffffffffffffffffffffffffffffffffff168273ffffffffffffffffffffffffffffffffffffffff1614156177f0576040517f08c379a00000000000000000000000000000000000000000000000000000000081526004016177e790618f62565b60405180910390fd5b6177fb838383617991565b60008060008573ffffffffffffffffffffffffffffffffffffffff1673ffffffffffffffffffffffffffffffffffffffff16815260200190815260200160002054905081811015617881576040517f08c379a000000000000000000000000000000000000000000000000000000000815260040161787890619082565b60405180910390fd5b8181036000808673ffffffffffffffffffffffffffffffffffffffff1673ffffffffffffffffffffffffffffffffffffffff16815260200190815260200160002081905550816000808573ffffffffffffffffffffffffffffffffffffffff1673ffffffffffffffffffffffffffffffffffffffff16815260200190815260200160002060008282546179149190619708565b925050819055508273ffffffffffffffffffffffffffffffffffffffff168473ffffffffffffffffffffffffffffffffffffffff167fddf252ad1be2c89b69c2b068fc378daa952ba7f163c4a11628f55a4df523b3ef84604051617978919061953d565b60405180910390a361798b848484617996565b50505050565b505050565b505050565b6000804790506179aa83617f68565b60006179bf824761731090919063ffffffff16565b905060006179fd60646179ef6008601a9054906101000a900461ffff1661ffff168561756290919063ffffffff16565b61757890919063ffffffff16565b90506000617a3b6064617a2d6008601c9054906101000a900461ffff1661ffff168661756290919063ffffffff16565b61757890919063ffffffff16565b9050617a69600a60009054906101000a900473ffffffffffffffffffffffffffffffffffffffff16836165ca565b617a95600b60009054906101000a900473ffffffffffffffffffffffffffffffffffffffff16826165ca565b617aa8844761731090919063ffffffff16565b945050505050919050565b617ae030600e60009054906101000a900473ffffffffffffffffffffffffffffffffffffffff16846163ff565b600e60009054906101000a900473ffffffffffffffffffffffffffffffffffffffff1673ffffffffffffffffffffffffffffffffffffffff1663f305d7198230856000806000426040518863ffffffff1660e01b8152600401617b4896959493929190618e42565b6060604051808303818588803b158015617b6157600080fd5b505af1158015617b75573d6000803e3d6000fd5b50505050506040513d601f19601f82011682018060405250810190617b9a9190618525565b5050505050565b6000600267ffffffffffffffff811115617bbe57617bbd619a4d565b5b604051908082528060200260200182016040528015617bec5781602001602082028036833780820191505090505b509050600e60009054906101000a900473ffffffffffffffffffffffffffffffffffffffff1673ffffffffffffffffffffffffffffffffffffffff1663ad5c46486040518163ffffffff1660e01b815260040160206040518083038186803b158015617c5757600080fd5b505afa158015617c6b573d6000803e3d6000fd5b505050506040513d601f19601f82011682018060405250810190617c8f91906182d5565b81600081518110617ca357617ca2619a1e565b5b602002602001019073ffffffffffffffffffffffffffffffffffffffff16908173ffffffffffffffffffffffffffffffffffffffff16815250508181600181518110617cf257617cf1619a1e565b5b602002602001019073ffffffffffffffffffffffffffffffffffffffff16908173ffffffffffffffffffffffffffffffffffffffff1681525050600e60009054906101000a900473ffffffffffffffffffffffffffffffffffffffff1673ffffffffffffffffffffffffffffffffffffffff1663b6f9de958460008430426040518663ffffffff1660e01b8152600401617d8f9493929190618ef4565b6000604051808303818588803b158015617da857600080fd5b505af1158015617dbc573d6000803e3d6000fd5b5050505050505050565b617df330600e60009054906101000a900473ffffffffffffffffffffffffffffffffffffffff16856163ff565b8073ffffffffffffffffffffffffffffffffffffffff1663095ea7b3600e60009054906101000a900473ffffffffffffffffffffffffffffffffffffffff16846040518363ffffffff1660e01b8152600401617e50929190618e19565b602060405180830381600087803b158015617e6a57600080fd5b505af1158015617e7e573d6000803e3d6000fd5b505050506040513d601f19601f82011682018060405250810190617ea291906183d5565b50600e60009054906101000a900473ffffffffffffffffffffffffffffffffffffffff1673ffffffffffffffffffffffffffffffffffffffff1663e8e33700308386866000806000426040518963ffffffff1660e01b8152600401617f0e989796959493929190618d72565b606060405180830381600087803b158015617f2857600080fd5b505af1158015617f3c573d6000803e3d6000fd5b505050506040513d601f19601f82011682018060405250810190617f609190618525565b505050505050565b6000600267ffffffffffffffff811115617f8557617f84619a4d565b5b604051908082528060200260200182016040528015617fb35781602001602082028036833780820191505090505b5090503081600081518110617fcb57617fca619a1e565b5b602002602001019073ffffffffffffffffffffffffffffffffffffffff16908173ffffffffffffffffffffffffffffffffffffffff1681525050600e60009054906101000a900473ffffffffffffffffffffffffffffffffffffffff1673ffffffffffffffffffffffffffffffffffffffff1663ad5c46486040518163ffffffff1660e01b815260040160206040518083038186803b15801561806d57600080fd5b505afa158015618081573d6000803e3d6000fd5b505050506040513d601f19601f820116820180604052508101906180a591906182d5565b816001815181106180b9576180b8619a1e565b5b602002602001019073ffffffffffffffffffffffffffffffffffffffff16908173ffffffffffffffffffffffffffffffffffffffff168152505061812030600e60009054906101000a900473ffffffffffffffffffffffffffffffffffffffff16846163ff565b600e60009054906101000a900473ffffffffffffffffffffffffffffffffffffffff1673ffffffffffffffffffffffffffffffffffffffff1663791ac9478360008430426040518663ffffffff1660e01b8152600401618184959493929190619558565b600060405180830381600087803b15801561819e57600080fd5b505af11580156181b2573d6000803e3d6000fd5b505050505050565b60006181cd6181c884619629565b619604565b9050828152602081018484840111156181e9576181e8619a81565b5b6181f48482856198ec565b509392505050565b60008135905061820b8161a9fa565b92915050565b6000815190506182208161a9fa565b92915050565b6000815190506182358161aa11565b92915050565b600082601f8301126182505761824f619a7c565b5b81356182608482602086016181ba565b91505092915050565b6000813590506182788161aa28565b92915050565b60008135905061828d8161aa3f565b92915050565b6000815190506182a28161aa3f565b92915050565b6000602082840312156182be576182bd619a8b565b5b60006182cc848285016181fc565b91505092915050565b6000602082840312156182eb576182ea619a8b565b5b60006182f984828501618211565b91505092915050565b6000806040838503121561831957618318619a8b565b5b6000618327858286016181fc565b9250506020618338858286016181fc565b9150509250929050565b60008060006060848603121561835b5761835a619a8b565b5b6000618369868287016181fc565b935050602061837a868287016181fc565b925050604061838b8682870161827e565b9150509250925092565b600080604083850312156183ac576183ab619a8b565b5b60006183ba858286016181fc565b92505060206183cb8582860161827e565b9150509250929050565b6000602082840312156183eb576183ea619a8b565b5b60006183f984828501618226565b91505092915050565b60006020828403121561841857618417619a8b565b5b600082013567ffffffffffffffff81111561843657618435619a86565b5b6184428482850161823b565b91505092915050565b60006020828403121561846157618460619a8b565b5b600061846f84828501618269565b91505092915050565b60008060006060848603121561849157618490619a8b565b5b600061849f86828701618269565b93505060206184b086828701618269565b92505060406184c186828701618269565b9150509250925092565b6000602082840312156184e1576184e0619a8b565b5b60006184ef8482850161827e565b91505092915050565b60006020828403121561850e5761850d619a8b565b5b600061851c84828501618293565b91505092915050565b60008060006060848603121561853e5761853d619a8b565b5b600061854c86828701618293565b935050602061855d86828701618293565b925050604061856e86828701618293565b9150509250925092565b60006185848383618590565b60208301905092915050565b6185998161981d565b82525050565b6185a88161981d565b82525050565b60006185b98261966a565b6185c38185619698565b93506185ce8361965a565b8060005b838110156185ff5781516185e68882618578565b97506185f18361968b565b9250506001810190506185d2565b5085935050505092915050565b6186158161982f565b82525050565b600061862682619675565b61863081856196a9565b93506186408185602086016198fb565b80840191505092915050565b61865581619880565b82525050565b61866481619892565b82525050565b618673816198a4565b82525050565b600061868482619680565b61868e81856196b4565b935061869e8185602086016198fb565b6186a781619a90565b840191505092915050565b60006186bd82619680565b6186c781856196c5565b93506186d78185602086016198fb565b80840191505092915050565b60006186f06023836196b4565b91506186fb82619aa1565b604082019050919050565b60006187136031836196b4565b915061871e82619af0565b604082019050919050565b60006187366065836196b4565b915061874182619b3f565b608082019050919050565b6000618759604f836196b4565b915061876482619bda565b606082019050919050565b600061877c6044836196b4565b915061878782619c4f565b606082019050919050565b600061879f6026836196b4565b91506187aa82619cc4565b604082019050919050565b60006187c26022836196b4565b91506187cd82619d13565b604082019050919050565b60006187e5603e836196b4565b91506187f082619d62565b604082019050919050565b6000618808603f836196b4565b915061881382619db1565b604082019050919050565b600061882b6026836196b4565b915061883682619e00565b604082019050919050565b600061884e6034836196b4565b915061885982619e4f565b604082019050919050565b60006188716067836196b4565b915061887c82619e9e565b608082019050919050565b6000618894602e836196b4565b915061889f82619f39565b604082019050919050565b60006188b76037836196b4565b91506188c282619f88565b604082019050919050565b60006188da6040836196b4565b91506188e582619fd7565b604082019050919050565b60006188fd603d836196b4565b91506189088261a026565b604082019050919050565b6000618920605a836196b4565b915061892b8261a075565b606082019050919050565b60006189436047836196b4565b915061894e8261a0ea565b606082019050919050565b60006189666054836196b4565b91506189718261a15f565b606082019050919050565b60006189896037836196b4565b91506189948261a1d4565b604082019050919050565b60006189ac6050836196b4565b91506189b78261a223565b606082019050919050565b60006189cf6041836196b4565b91506189da8261a298565b606082019050919050565b60006189f26039836196b4565b91506189fd8261a30d565b604082019050919050565b6000618a156030836196b4565b9150618a208261a35c565b604082019050919050565b6000618a386028836196b4565b9150618a438261a3ab565b604082019050919050565b6000618a5b6020836196b4565b9150618a668261a3fa565b602082019050919050565b6000618a7e6012836196b4565b9150618a898261a423565b602082019050919050565b6000618aa16054836196b4565b9150618aac8261a44c565b606082019050919050565b6000618ac46063836196b4565b9150618acf8261a4c1565b608082019050919050565b6000618ae76035836196b4565b9150618af28261a55c565b604082019050919050565b6000618b0a6025836196b4565b9150618b158261a5ab565b604082019050919050565b6000618b2d6083836196b4565b9150618b388261a5fa565b60a082019050919050565b6000618b50603a836196b4565b9150618b5b8261a6bb565b604082019050919050565b6000618b736024836196b4565b9150618b7e8261a70a565b604082019050919050565b6000618b966044836196b4565b9150618ba18261a759565b606082019050919050565b6000618bb9603a836196b4565b9150618bc48261a7ce565b604082019050919050565b6000618bdc6040836196b4565b9150618be78261a81d565b604082019050919050565b6000618bff602e836196b4565b9150618c0a8261a86c565b604082019050919050565b6000618c226035836196b4565b9150618c2d8261a8bb565b604082019050919050565b6000618c45601f836196b4565b9150618c508261a90a565b602082019050919050565b6000618c686032836196b4565b9150618c738261a933565b604082019050919050565b6000618c8b6025836196b4565b9150618c968261a982565b604082019050919050565b6000618cae601f836196b4565b9150618cb98261a9d1565b602082019050919050565b618ccd8161983b565b82525050565b618cdc816198da565b82525050565b618ceb81619869565b82525050565b618cfa81619873565b82525050565b6000618d0c828461861b565b915081905092915050565b6000618d2382846186b2565b915081905092915050565b6000602082019050618d43600083018461859f565b92915050565b6000604082019050618d5e600083018561859f565b618d6b602083018461859f565b9392505050565b600061010082019050618d88600083018b61859f565b618d95602083018a61859f565b618da26040830189618ce2565b618daf6060830188618ce2565b618dbc608083018761866a565b618dc960a083018661866a565b618dd660c083018561859f565b618de360e0830184618ce2565b9998505050505050505050565b6000604082019050618e05600083018561859f565b618e12602083018461866a565b9392505050565b6000604082019050618e2e600083018561859f565b618e3b6020830184618ce2565b9392505050565b600060c082019050618e57600083018961859f565b618e646020830188618ce2565b618e71604083018761866a565b618e7e606083018661866a565b618e8b608083018561859f565b618e9860a0830184618ce2565b979650505050505050565b6000602082019050618eb8600083018461860c565b92915050565b6000602082019050618ed3600083018461864c565b92915050565b6000602082019050618eee600083018461865b565b92915050565b6000608082019050618f09600083018761866a565b8181036020830152618f1b81866185ae565b9050618f2a604083018561859f565b618f376060830184618ce2565b95945050505050565b60006020820190508181036000830152618f5a8184618679565b905092915050565b60006020820190508181036000830152618f7b816186e3565b9050919050565b60006020820190508181036000830152618f9b81618706565b9050919050565b60006020820190508181036000830152618fbb81618729565b9050919050565b60006020820190508181036000830152618fdb8161874c565b9050919050565b60006020820190508181036000830152618ffb8161876f565b9050919050565b6000602082019050818103600083015261901b81618792565b9050919050565b6000602082019050818103600083015261903b816187b5565b9050919050565b6000602082019050818103600083015261905b816187d8565b9050919050565b6000602082019050818103600083015261907b816187fb565b9050919050565b6000602082019050818103600083015261909b8161881e565b9050919050565b600060208201905081810360008301526190bb81618841565b9050919050565b600060208201905081810360008301526190db81618864565b9050919050565b600060208201905081810360008301526190fb81618887565b9050919050565b6000602082019050818103600083015261911b816188aa565b9050919050565b6000602082019050818103600083015261913b816188cd565b9050919050565b6000602082019050818103600083015261915b816188f0565b9050919050565b6000602082019050818103600083015261917b81618913565b9050919050565b6000602082019050818103600083015261919b81618936565b9050919050565b600060208201905081810360008301526191bb81618959565b9050919050565b600060208201905081810360008301526191db8161897c565b9050919050565b600060208201905081810360008301526191fb8161899f565b9050919050565b6000602082019050818103600083015261921b816189c2565b9050919050565b6000602082019050818103600083015261923b816189e5565b9050919050565b6000602082019050818103600083015261925b81618a08565b9050919050565b6000602082019050818103600083015261927b81618a2b565b9050919050565b6000602082019050818103600083015261929b81618a4e565b9050919050565b600060208201905081810360008301526192bb81618a71565b9050919050565b600060208201905081810360008301526192db81618a94565b9050919050565b600060208201905081810360008301526192fb81618ab7565b9050919050565b6000602082019050818103600083015261931b81618ada565b9050919050565b6000602082019050818103600083015261933b81618afd565b9050919050565b6000602082019050818103600083015261935b81618b20565b9050919050565b6000602082019050818103600083015261937b81618b43565b9050919050565b6000602082019050818103600083015261939b81618b66565b9050919050565b600060208201905081810360008301526193bb81618b89565b9050919050565b600060208201905081810360008301526193db81618bac565b9050919050565b600060208201905081810360008301526193fb81618bcf565b9050919050565b6000602082019050818103600083015261941b81618bf2565b9050919050565b6000602082019050818103600083015261943b81618c15565b9050919050565b6000602082019050818103600083015261945b81618c38565b9050919050565b6000602082019050818103600083015261947b81618c5b565b9050919050565b6000602082019050818103600083015261949b81618c7e565b9050919050565b600060208201905081810360008301526194bb81618ca1565b9050919050565b60006020820190506194d76000830184618cc4565b92915050565b60006040820190506194f26000830185618cd3565b6194ff6020830184618cd3565b9392505050565b600060608201905061951b6000830186618cc4565b6195286020830185618cc4565b6195356040830184618cc4565b949350505050565b60006020820190506195526000830184618ce2565b92915050565b600060a08201905061956d6000830188618ce2565b61957a602083018761866a565b818103604083015261958c81866185ae565b905061959b606083018561859f565b6195a86080830184618ce2565b9695505050505050565b60006060820190506195c76000830186618ce2565b6195d46020830185618ce2565b6195e16040830184618ce2565b949350505050565b60006020820190506195fe6000830184618cf1565b92915050565b600061960e61961f565b905061961a8282619960565b919050565b6000604051905090565b600067ffffffffffffffff82111561964457619643619a4d565b5b61964d82619a90565b9050602081019050919050565b6000819050602082019050919050565b600081519050919050565b600081519050919050565b600081519050919050565b6000602082019050919050565b600082825260208201905092915050565b600081905092915050565b600082825260208201905092915050565b600081905092915050565b60006196db8261983b565b91506196e68361983b565b92508261ffff038211156196fd576196fc619991565b5b828201905092915050565b600061971382619869565b915061971e83619869565b9250827fffffffffffffffffffffffffffffffffffffffffffffffffffffffffffffffff0382111561975357619752619991565b5b828201905092915050565b600061976982619869565b915061977483619869565b925082619784576197836199c0565b5b828204905092915050565b600061979a82619869565b91506197a583619869565b9250817fffffffffffffffffffffffffffffffffffffffffffffffffffffffffffffffff04831182151516156197de576197dd619991565b5b828202905092915050565b60006197f482619869565b91506197ff83619869565b92508282101561981257619811619991565b5b828203905092915050565b600061982882619849565b9050919050565b60008115159050919050565b600061ffff82169050919050565b600073ffffffffffffffffffffffffffffffffffffffff82169050919050565b6000819050919050565b600060ff82169050919050565b600061988b826198b6565b9050919050565b600061989d826198b6565b9050919050565b60006198af82619869565b9050919050565b60006198c1826198c8565b9050919050565b60006198d382619849565b9050919050565b60006198e58261983b565b9050919050565b82818337600083830152505050565b60005b838110156199195780820151818401526020810190506198fe565b83811115619928576000848401525b50505050565b6000600282049050600182168061994657607f821691505b6020821081141561995a576199596199ef565b5b50919050565b61996982619a90565b810181811067ffffffffffffffff8211171561998857619987619a4d565b5b80604052505050565b7f4e487b7100000000000000000000000000000000000000000000000000000000600052601160045260246000fd5b7f4e487b7100000000000000000000000000000000000000000000000000000000600052601260045260246000fd5b7f4e487b7100000000000000000000000000000000000000000000000000000000600052602260045260246000fd5b7f4e487b7100000000000000000000000000000000000000000000000000000000600052603260045260246000fd5b7f4e487b7100000000000000000000000000000000000000000000000000000000600052604160045260246000fd5b600080fd5b600080fd5b600080fd5b600080fd5b6000601f19601f8301169050919050565b7f45524332303a207472616e7366657220746f20746865207a65726f206164647260008201527f6573730000000000000000000000000000000000000000000000000000000000602082015250565b7f41424f41543a3a7265717565737457686974656c6973743a20596f752061726560008201527f206e6f7420626c61636b6c697374656421000000000000000000000000000000602082015250565b7f41424f41543a3a7570646174654d6178696d756d5472616e736665725461785260008201527f6174653a206d6178696d756d5472616e7366657254617852617465206d75737460208201527f206e6f742062652062656c6f77206d696e696d756d5472616e7366657254617860408201527f526174652e000000000000000000000000000000000000000000000000000000606082015250565b7f41424f41543a3a7472616e736665723a20616d6f756e7420746f2073656e642060008201527f776974682074617820616d6f756e742065786365656473206d6178696d756d2060208201527f706f737369626c6520616d6f756e740000000000000000000000000000000000604082015250565b7f41424f41543a3a6d696e743a2043616e2774206d696e74206d6f72652061626f60008201527f617420746f6b656e207468616e206d6178446973747269627574696f6e20616c60208201527f6c6f777300000000000000000000000000000000000000000000000000000000604082015250565b7f4f776e61626c653a206e6577206f776e657220697320746865207a65726f206160008201527f6464726573730000000000000000000000000000000000000000000000000000602082015250565b7f45524332303a20617070726f766520746f20746865207a65726f20616464726560008201527f7373000000000000000000000000000000000000000000000000000000000000602082015250565b7f496e76616c6964206c6971756469747920706169723a20506169722063616e2760008201527f7420636f6e7461696e207468652073616d6520746f6b656e2074776963650000602082015250565b7f41424f41543a3a7472616e736665723a2046656520616d6f756e7420646f657360008201527f206e6f7420657175616c207468652073706c69742066656520616d6f756e7400602082015250565b7f45524332303a207472616e7366657220616d6f756e742065786365656473206260008201527f616c616e63650000000000000000000000000000000000000000000000000000602082015250565b7f5472616e7366657248656c7065723a3a736166655472616e736665724554483a60008201527f20455448207472616e73666572206661696c6564000000000000000000000000602082015250565b7f41424f41543a3a7365744d6173746572456e7465727461696e65723a204d617360008201527f74657220656e7465727461696e65722063616e277420657175616c207072657660208201527f696f7573206d617374657220656e7465727461696e6572206f72207a65726f2060408201527f6164647265737300000000000000000000000000000000000000000000000000606082015250565b7f41424f41543a3a5f7472616e736665723a207472616e7366657220746f20746860008201527f65207a65726f2061646472657373000000000000000000000000000000000000602082015250565b7f41424f41543a3a5f7472616e736665723a436f6e7472616374206973206e6f7460008201527f20796574206f70656e20666f7220636f6d6d756e697479000000000000000000602082015250565b7f41424f41543a3a636c61696d457863656564696e674c6971756964697479546f60008201527f6b656e42616c616e63653a204e6f20657863656564696e672062616c616e6365602082015250565b7f4d6178207472616e73616374696f6e2073697a652063616e2774206265206c6f60008201527f776572207468616e20302e3125206f6620746f74616c20737570706c79000000602082015250565b7f41424f41543a3a7265717565737457686974656c6973743a20416d6f756e742060008201527f6f6620626e6220746f20636c61696d2073686f756c642063617272792074686560208201527f20636f737420746f206164642074686520636c61696d61626c65000000000000604082015250565b7f41424f41543a3a5f7472616e736665723a5472616e7366657220616d6f756e7460008201527f206d757374206265206c6f776572206f7220657175616c2073656e646572732060208201527f62616c616e636500000000000000000000000000000000000000000000000000604082015250565b7f41424f41543a3a7570646174654d6178696d756d5472616e736665725461785260008201527f6174653a206d6178696d756d5472616e7366657254617852617465206d75737460208201527f20657863656564204d4158494d554d5f5441582e000000000000000000000000604082015250565b7f41424f41543a3a736574446f6e6174696f6e57616c6c65743a2041646472657360008201527f732063616e2774206265207a65726f2061646472657373000000000000000000602082015250565b7f41424f41543a3a7365744d61696e7461696e65723a204d61696e7461696e657260008201527f2063616e277420657175616c2070726576696f7573206d61696e7461696e657260208201527f206f72207a65726f206164647265737300000000000000000000000000000000604082015250565b7f596f7572207472616e73666572206578636565647320746865206d6178696d7560008201527f6d20706f737369626c6520616d6f756e7420706572207472616e73616374696f60208201527f6e00000000000000000000000000000000000000000000000000000000000000604082015250565b7f41424f41543a3a7265717565737457686974656c6973743a20596f7520616c7260008201527f65616479207265717565737465642077686974656c6973742100000000000000602082015250565b7f41424f41543a3a5f7472616e736665723a207472616e736665722066726f6d2060008201527f746865207a65726f206164647265737300000000000000000000000000000000602082015250565b7f45524332303a207472616e7366657220616d6f756e742065786365656473206160008201527f6c6c6f77616e6365000000000000000000000000000000000000000000000000602082015250565b7f4f776e61626c653a2063616c6c6572206973206e6f7420746865206f776e6572600082015250565b7f46756e6374696f6e206973206c6f636b65640000000000000000000000000000600082015250565b7f41424f41543a3a7365744d6178446973747269627574696f6e3a20446973747260008201527f69627574696f6e2063616e2774206265206c6f776572207468616e207468652060208201527f63757272656e7420746f74616c20737570706c79000000000000000000000000604082015250565b7f41424f41543a3a7570646174654d696e696d756d5472616e736665725461785260008201527f6174653a206d696e696d756d5472616e7366657254617852617465206d75737460208201527f206e6f7420657863656564206d6178696d756d5472616e73666572546178526160408201527f74652e0000000000000000000000000000000000000000000000000000000000606082015250565b7f6f70657261746f723a2063616c6c6572206973206e6f7420616c6c6f7765642060008201527f746f2063616c6c20746869732066756e6374696f6e0000000000000000000000602082015250565b7f45524332303a207472616e736665722066726f6d20746865207a65726f20616460008201527f6472657373000000000000000000000000000000000000000000000000000000602082015250565b7f41424f41543a3a5f7472616e736665723a596f752772652063757272656e746c60008201527f7920626c61636b6c69737465642e20506c65617365207265706f727420746f2060208201527f736572766963654074616c6b61626f61742e6f6e6c696e6520696620796f752060408201527f77616e7420746f206765742072656d6f7665642066726f6d20626c61636b6c6960608201527f7374210000000000000000000000000000000000000000000000000000000000608082015250565b7f4d6178206163636f756e742062616c616e63652063616e2774206265206c6f7760008201527f6572207468616e203125206f6620746f74616c20737570706c79000000000000602082015250565b7f45524332303a20617070726f76652066726f6d20746865207a65726f2061646460008201527f7265737300000000000000000000000000000000000000000000000000000000602082015250565b7f4c6971756966793a3a7365744c6971756964697479506169723a204c6971756960008201527f6469747920706169722063616e277420636f6e7461696e207a65726f2061646460208201527f7265737300000000000000000000000000000000000000000000000000000000604082015250565b7f41424f41543a3a5f7472616e736665723a5472616e7366657220616d6f756e7460008201527f206d7573742062652067726561746572207468616e207a65726f000000000000602082015250565b7f41424f41543a3a5f7472616e736665723a42616c616e6365206f66207265636960008201527f7069656e742063616e277420657863656564206d617841636342616c616e6365602082015250565b7f41424f41543a3a7570646174655461783a205461782063616e7420657863656560008201527f64203130302070657263656e7421000000000000000000000000000000000000602082015250565b7f41424f41543a3a73657452657761726457616c6c65743a20416464726573732060008201527f63616e2774206265207a65726f20616464726573730000000000000000000000602082015250565b7f5265656e7472616e637947756172643a207265656e7472616e742063616c6c00600082015250565b7f41424f41543a3a73657444657657616c6c65743a20416464726573732063616e60008201527f2774206265207a65726f20616464726573730000000000000000000000000000602082015250565b7f45524332303a2064656372656173656420616c6c6f77616e63652062656c6f7760008201527f207a65726f000000000000000000000000000000000000000000000000000000602082015250565b7f45524332303a206d696e7420746f20746865207a65726f206164647265737300600082015250565b61aa038161981d565b811461aa0e57600080fd5b50565b61aa1a8161982f565b811461aa2557600080fd5b50565b61aa318161983b565b811461aa3c57600080fd5b50565b61aa4881619869565b811461aa5357600080fd5b5056fea2646970667358221220e34c1a5314f04a887c3d4b0ee9abf3b67833771570dd2c362854f408b08331b464736f6c63430008070033",
			"opcodes": "PUSH1 0x80 PUSH1 0x40 MSTORE PUSH1 0x0 PUSH1 0x6 PUSH1 0x14 PUSH2 0x100 EXP DUP2 SLOAD DUP2 PUSH1 0xFF MUL NOT AND SWAP1 DUP4 ISZERO ISZERO MUL OR SWAP1 SSTORE POP PUSH2 0x1F4 PUSH1 0x8 PUSH1 0x14 PUSH2 0x100 EXP DUP2 SLOAD DUP2 PUSH2 0xFFFF MUL NOT AND SWAP1 DUP4 PUSH2 0xFFFF AND MUL OR SWAP1 SSTORE POP PUSH2 0x3E8 PUSH1 0x8 PUSH1 0x16 PUSH2 0x100 EXP DUP2 SLOAD DUP2 PUSH2 0xFFFF MUL NOT AND SWAP1 DUP4 PUSH2 0xFFFF AND MUL OR SWAP1 SSTORE POP PUSH1 0x28 PUSH1 0x8 PUSH1 0x18 PUSH2 0x100 EXP DUP2 SLOAD DUP2 PUSH2 0xFFFF MUL NOT AND SWAP1 DUP4 PUSH2 0xFFFF AND MUL OR SWAP1 SSTORE POP PUSH1 0x14 PUSH1 0x8 PUSH1 0x1A PUSH2 0x100 EXP DUP2 SLOAD DUP2 PUSH2 0xFFFF MUL NOT AND SWAP1 DUP4 PUSH2 0xFFFF AND MUL OR SWAP1 SSTORE POP PUSH1 0xA PUSH1 0x8 PUSH1 0x1C PUSH2 0x100 EXP DUP2 SLOAD DUP2 PUSH2 0xFFFF MUL NOT AND SWAP1 DUP4 PUSH2 0xFFFF AND MUL OR SWAP1 SSTORE POP PUSH1 0x0 PUSH1 0x8 PUSH1 0x1E PUSH2 0x100 EXP DUP2 SLOAD DUP2 PUSH1 0xFF MUL NOT AND SWAP1 DUP4 ISZERO ISZERO MUL OR SWAP1 SSTORE POP PUSH10 0x152D02C7E14AF6800000 PUSH1 0x9 SSTORE PUSH20 0x2EA9CA0CA8043575F2189CFF9897B575B0C7E857 PUSH1 0xA PUSH1 0x0 PUSH2 0x100 EXP DUP2 SLOAD DUP2 PUSH20 0xFFFFFFFFFFFFFFFFFFFFFFFFFFFFFFFFFFFFFFFF MUL NOT AND SWAP1 DUP4 PUSH20 0xFFFFFFFFFFFFFFFFFFFFFFFFFFFFFFFFFFFFFFFF AND MUL OR SWAP1 SSTORE POP PUSH20 0xA7C08AEDCE8CADC3BFB622BD7B651993D1CD24E4 PUSH1 0xB PUSH1 0x0 PUSH2 0x100 EXP DUP2 SLOAD DUP2 PUSH20 0xFFFFFFFFFFFFFFFFFFFFFFFFFFFFFFFFFFFFFFFF MUL NOT AND SWAP1 DUP4 PUSH20 0xFFFFFFFFFFFFFFFFFFFFFFFFFFFFFFFFFFFFFFFF AND MUL OR SWAP1 SSTORE POP PUSH20 0x2EA9CA0CA8043575F2189CFF9897B575B0C7E857 PUSH1 0xC PUSH1 0x0 PUSH2 0x100 EXP DUP2 SLOAD DUP2 PUSH20 0xFFFFFFFFFFFFFFFFFFFFFFFFFFFFFFFFFFFFFFFF MUL NOT AND SWAP1 DUP4 PUSH20 0xFFFFFFFFFFFFFFFFFFFFFFFFFFFFFFFFFFFFFFFF AND MUL OR SWAP1 SSTORE POP PUSH13 0xC9F2C9CD04674EDEA40000000 PUSH1 0x11 SSTORE PUSH1 0x0 PUSH1 0x12 PUSH1 0x0 PUSH2 0x100 EXP DUP2 SLOAD DUP2 PUSH1 0xFF MUL NOT AND SWAP1 DUP4 ISZERO ISZERO MUL OR SWAP1 SSTORE POP PUSH1 0x1 PUSH1 0x12 PUSH1 0x1 PUSH2 0x100 EXP DUP2 SLOAD DUP2 PUSH1 0xFF MUL NOT AND SWAP1 DUP4 ISZERO ISZERO MUL OR SWAP1 SSTORE POP PUSH1 0x64 PUSH1 0x12 PUSH1 0x2 PUSH2 0x100 EXP DUP2 SLOAD DUP2 PUSH2 0xFFFF MUL NOT AND SWAP1 DUP4 PUSH2 0xFFFF AND MUL OR SWAP1 SSTORE POP PUSH2 0x12C PUSH1 0x12 PUSH1 0x4 PUSH2 0x100 EXP DUP2 SLOAD DUP2 PUSH2 0xFFFF MUL NOT AND SWAP1 DUP4 PUSH2 0xFFFF AND MUL OR SWAP1 SSTORE POP PUSH7 0x775F05A074000 PUSH1 0x13 SSTORE CALLVALUE DUP1 ISZERO PUSH3 0x27B JUMPI PUSH1 0x0 DUP1 REVERT JUMPDEST POP PUSH1 0x40 MLOAD DUP1 PUSH1 0x40 ADD PUSH1 0x40 MSTORE DUP1 PUSH1 0xB DUP2 MSTORE PUSH1 0x20 ADD PUSH32 0x41626F617420546F6B656E000000000000000000000000000000000000000000 DUP2 MSTORE POP PUSH1 0x40 MLOAD DUP1 PUSH1 0x40 ADD PUSH1 0x40 MSTORE DUP1 PUSH1 0x5 DUP2 MSTORE PUSH1 0x20 ADD PUSH32 0x41424F4154000000000000000000000000000000000000000000000000000000 DUP2 MSTORE POP DUP2 PUSH1 0x3 SWAP1 DUP1 MLOAD SWAP1 PUSH1 0x20 ADD SWAP1 PUSH3 0x300 SWAP3 SWAP2 SWAP1 PUSH3 0x93B JUMP JUMPDEST POP DUP1 PUSH1 0x4 SWAP1 DUP1 MLOAD SWAP1 PUSH1 0x20 ADD SWAP1 PUSH3 0x319 SWAP3 SWAP2 SWAP1 PUSH3 0x93B JUMP JUMPDEST POP POP POP PUSH1 0x1 PUSH1 0x5 DUP2 SWAP1 SSTORE POP PUSH3 0x344 PUSH3 0x338 PUSH3 0x421 PUSH1 0x20 SHL PUSH1 0x20 SHR JUMP JUMPDEST PUSH3 0x429 PUSH1 0x20 SHL PUSH1 0x20 SHR JUMP JUMPDEST CALLER PUSH1 0x8 PUSH1 0x0 PUSH2 0x100 EXP DUP2 SLOAD DUP2 PUSH20 0xFFFFFFFFFFFFFFFFFFFFFFFFFFFFFFFFFFFFFFFF MUL NOT AND SWAP1 DUP4 PUSH20 0xFFFFFFFFFFFFFFFFFFFFFFFFFFFFFFFFFFFFFFFF AND MUL OR SWAP1 SSTORE POP PUSH3 0x3B8 PUSH1 0xA PUSH1 0x0 SWAP1 SLOAD SWAP1 PUSH2 0x100 EXP SWAP1 DIV PUSH20 0xFFFFFFFFFFFFFFFFFFFFFFFFFFFFFFFFFFFFFFFF AND PUSH3 0x4EF PUSH1 0x20 SHL PUSH1 0x20 SHR JUMP JUMPDEST PUSH3 0x3EB PUSH1 0xB PUSH1 0x0 SWAP1 SLOAD SWAP1 PUSH2 0x100 EXP SWAP1 DIV PUSH20 0xFFFFFFFFFFFFFFFFFFFFFFFFFFFFFFFFFFFFFFFF AND PUSH3 0x4EF PUSH1 0x20 SHL PUSH1 0x20 SHR JUMP JUMPDEST PUSH3 0x40A CALLER PUSH13 0x792B45E1690AC8EBFC0000000 PUSH3 0x67B PUSH1 0x20 SHL PUSH1 0x20 SHR JUMP JUMPDEST PUSH3 0x41B CALLER PUSH3 0x4EF PUSH1 0x20 SHL PUSH1 0x20 SHR JUMP JUMPDEST PUSH3 0xD5F JUMP JUMPDEST PUSH1 0x0 CALLER SWAP1 POP SWAP1 JUMP JUMPDEST PUSH1 0x0 PUSH1 0x6 PUSH1 0x0 SWAP1 SLOAD SWAP1 PUSH2 0x100 EXP SWAP1 DIV PUSH20 0xFFFFFFFFFFFFFFFFFFFFFFFFFFFFFFFFFFFFFFFF AND SWAP1 POP DUP2 PUSH1 0x6 PUSH1 0x0 PUSH2 0x100 EXP DUP2 SLOAD DUP2 PUSH20 0xFFFFFFFFFFFFFFFFFFFFFFFFFFFFFFFFFFFFFFFF MUL NOT AND SWAP1 DUP4 PUSH20 0xFFFFFFFFFFFFFFFFFFFFFFFFFFFFFFFFFFFFFFFF AND MUL OR SWAP1 SSTORE POP DUP2 PUSH20 0xFFFFFFFFFFFFFFFFFFFFFFFFFFFFFFFFFFFFFFFF AND DUP2 PUSH20 0xFFFFFFFFFFFFFFFFFFFFFFFFFFFFFFFFFFFFFFFF AND PUSH32 0x8BE0079C531659141344CD1FD0A4F28419497F9722A3DAAFE3B4186F6B6457E0 PUSH1 0x40 MLOAD PUSH1 0x40 MLOAD DUP1 SWAP2 SUB SWAP1 LOG3 POP POP JUMP JUMPDEST CALLER PUSH20 0xFFFFFFFFFFFFFFFFFFFFFFFFFFFFFFFFFFFFFFFF AND PUSH3 0x516 PUSH3 0x784 PUSH1 0x20 SHL PUSH1 0x20 SHR JUMP JUMPDEST PUSH20 0xFFFFFFFFFFFFFFFFFFFFFFFFFFFFFFFFFFFFFFFF AND EQ DUP1 PUSH3 0x586 JUMPI POP CALLER PUSH20 0xFFFFFFFFFFFFFFFFFFFFFFFFFFFFFFFFFFFFFFFF AND PUSH1 0x8 PUSH1 0x0 SWAP1 SLOAD SWAP1 PUSH2 0x100 EXP SWAP1 DIV PUSH20 0xFFFFFFFFFFFFFFFFFFFFFFFFFFFFFFFFFFFFFFFF AND PUSH20 0xFFFFFFFFFFFFFFFFFFFFFFFFFFFFFFFFFFFFFFFF AND EQ JUMPDEST PUSH3 0x5C8 JUMPI PUSH1 0x40 MLOAD PUSH32 0x8C379A000000000000000000000000000000000000000000000000000000000 DUP2 MSTORE PUSH1 0x4 ADD PUSH3 0x5BF SWAP1 PUSH3 0xADC JUMP JUMPDEST PUSH1 0x40 MLOAD DUP1 SWAP2 SUB SWAP1 REVERT JUMPDEST PUSH1 0x1 PUSH1 0xF PUSH1 0x0 DUP4 PUSH20 0xFFFFFFFFFFFFFFFFFFFFFFFFFFFFFFFFFFFFFFFF AND PUSH20 0xFFFFFFFFFFFFFFFFFFFFFFFFFFFFFFFFFFFFFFFF AND DUP2 MSTORE PUSH1 0x20 ADD SWAP1 DUP2 MSTORE PUSH1 0x20 ADD PUSH1 0x0 KECCAK256 PUSH1 0x0 PUSH2 0x100 EXP DUP2 SLOAD DUP2 PUSH1 0xFF MUL NOT AND SWAP1 DUP4 ISZERO ISZERO MUL OR SWAP1 SSTORE POP PUSH1 0x1 PUSH1 0x10 PUSH1 0x0 DUP4 PUSH20 0xFFFFFFFFFFFFFFFFFFFFFFFFFFFFFFFFFFFFFFFF AND PUSH20 0xFFFFFFFFFFFFFFFFFFFFFFFFFFFFFFFFFFFFFFFF AND DUP2 MSTORE PUSH1 0x20 ADD SWAP1 DUP2 MSTORE PUSH1 0x20 ADD PUSH1 0x0 KECCAK256 PUSH1 0x0 PUSH2 0x100 EXP DUP2 SLOAD DUP2 PUSH1 0xFF MUL NOT AND SWAP1 DUP4 ISZERO ISZERO MUL OR SWAP1 SSTORE POP POP JUMP JUMPDEST PUSH3 0x68B PUSH3 0x421 PUSH1 0x20 SHL PUSH1 0x20 SHR JUMP JUMPDEST PUSH20 0xFFFFFFFFFFFFFFFFFFFFFFFFFFFFFFFFFFFFFFFF AND PUSH3 0x6B1 PUSH3 0x784 PUSH1 0x20 SHL PUSH1 0x20 SHR JUMP JUMPDEST PUSH20 0xFFFFFFFFFFFFFFFFFFFFFFFFFFFFFFFFFFFFFFFF AND EQ PUSH3 0x70A JUMPI PUSH1 0x40 MLOAD PUSH32 0x8C379A000000000000000000000000000000000000000000000000000000000 DUP2 MSTORE PUSH1 0x4 ADD PUSH3 0x701 SWAP1 PUSH3 0xABA JUMP JUMPDEST PUSH1 0x40 MLOAD DUP1 SWAP2 SUB SWAP1 REVERT JUMPDEST PUSH1 0x11 SLOAD DUP2 PUSH3 0x71E PUSH3 0x7AE PUSH1 0x20 SHL PUSH1 0x20 SHR JUMP JUMPDEST PUSH3 0x72A SWAP2 SWAP1 PUSH3 0xB4E JUMP JUMPDEST GT ISZERO PUSH3 0x76E JUMPI PUSH1 0x40 MLOAD PUSH32 0x8C379A000000000000000000000000000000000000000000000000000000000 DUP2 MSTORE PUSH1 0x4 ADD PUSH3 0x765 SWAP1 PUSH3 0xA98 JUMP JUMPDEST PUSH1 0x40 MLOAD DUP1 SWAP2 SUB SWAP1 REVERT JUMPDEST PUSH3 0x780 DUP3 DUP3 PUSH3 0x7B8 PUSH1 0x20 SHL PUSH1 0x20 SHR JUMP JUMPDEST POP POP JUMP JUMPDEST PUSH1 0x0 PUSH1 0x6 PUSH1 0x0 SWAP1 SLOAD SWAP1 PUSH2 0x100 EXP SWAP1 DIV PUSH20 0xFFFFFFFFFFFFFFFFFFFFFFFFFFFFFFFFFFFFFFFF AND SWAP1 POP SWAP1 JUMP JUMPDEST PUSH1 0x0 PUSH1 0x2 SLOAD SWAP1 POP SWAP1 JUMP JUMPDEST PUSH1 0x0 PUSH20 0xFFFFFFFFFFFFFFFFFFFFFFFFFFFFFFFFFFFFFFFF AND DUP3 PUSH20 0xFFFFFFFFFFFFFFFFFFFFFFFFFFFFFFFFFFFFFFFF AND EQ ISZERO PUSH3 0x82B JUMPI PUSH1 0x40 MLOAD PUSH32 0x8C379A000000000000000000000000000000000000000000000000000000000 DUP2 MSTORE PUSH1 0x4 ADD PUSH3 0x822 SWAP1 PUSH3 0xAFE JUMP JUMPDEST PUSH1 0x40 MLOAD DUP1 SWAP2 SUB SWAP1 REVERT JUMPDEST PUSH3 0x83F PUSH1 0x0 DUP4 DUP4 PUSH3 0x931 PUSH1 0x20 SHL PUSH1 0x20 SHR JUMP JUMPDEST DUP1 PUSH1 0x2 PUSH1 0x0 DUP3 DUP3 SLOAD PUSH3 0x853 SWAP2 SWAP1 PUSH3 0xB4E JUMP JUMPDEST SWAP3 POP POP DUP2 SWAP1 SSTORE POP DUP1 PUSH1 0x0 DUP1 DUP5 PUSH20 0xFFFFFFFFFFFFFFFFFFFFFFFFFFFFFFFFFFFFFFFF AND PUSH20 0xFFFFFFFFFFFFFFFFFFFFFFFFFFFFFFFFFFFFFFFF AND DUP2 MSTORE PUSH1 0x20 ADD SWAP1 DUP2 MSTORE PUSH1 0x20 ADD PUSH1 0x0 KECCAK256 PUSH1 0x0 DUP3 DUP3 SLOAD PUSH3 0x8AA SWAP2 SWAP1 PUSH3 0xB4E JUMP JUMPDEST SWAP3 POP POP DUP2 SWAP1 SSTORE POP DUP2 PUSH20 0xFFFFFFFFFFFFFFFFFFFFFFFFFFFFFFFFFFFFFFFF AND PUSH1 0x0 PUSH20 0xFFFFFFFFFFFFFFFFFFFFFFFFFFFFFFFFFFFFFFFF AND PUSH32 0xDDF252AD1BE2C89B69C2B068FC378DAA952BA7F163C4A11628F55A4DF523B3EF DUP4 PUSH1 0x40 MLOAD PUSH3 0x911 SWAP2 SWAP1 PUSH3 0xB20 JUMP JUMPDEST PUSH1 0x40 MLOAD DUP1 SWAP2 SUB SWAP1 LOG3 PUSH3 0x92D PUSH1 0x0 DUP4 DUP4 PUSH3 0x936 PUSH1 0x20 SHL PUSH1 0x20 SHR JUMP JUMPDEST POP POP JUMP JUMPDEST POP POP POP JUMP JUMPDEST POP POP POP JUMP JUMPDEST DUP3 DUP1 SLOAD PUSH3 0x949 SWAP1 PUSH3 0xBB5 JUMP JUMPDEST SWAP1 PUSH1 0x0 MSTORE PUSH1 0x20 PUSH1 0x0 KECCAK256 SWAP1 PUSH1 0x1F ADD PUSH1 0x20 SWAP1 DIV DUP2 ADD SWAP3 DUP3 PUSH3 0x96D JUMPI PUSH1 0x0 DUP6 SSTORE PUSH3 0x9B9 JUMP JUMPDEST DUP3 PUSH1 0x1F LT PUSH3 0x988 JUMPI DUP1 MLOAD PUSH1 0xFF NOT AND DUP4 DUP1 ADD OR DUP6 SSTORE PUSH3 0x9B9 JUMP JUMPDEST DUP3 DUP1 ADD PUSH1 0x1 ADD DUP6 SSTORE DUP3 ISZERO PUSH3 0x9B9 JUMPI SWAP2 DUP3 ADD JUMPDEST DUP3 DUP2 GT ISZERO PUSH3 0x9B8 JUMPI DUP3 MLOAD DUP3 SSTORE SWAP2 PUSH1 0x20 ADD SWAP2 SWAP1 PUSH1 0x1 ADD SWAP1 PUSH3 0x99B JUMP JUMPDEST JUMPDEST POP SWAP1 POP PUSH3 0x9C8 SWAP2 SWAP1 PUSH3 0x9CC JUMP JUMPDEST POP SWAP1 JUMP JUMPDEST JUMPDEST DUP1 DUP3 GT ISZERO PUSH3 0x9E7 JUMPI PUSH1 0x0 DUP2 PUSH1 0x0 SWAP1 SSTORE POP PUSH1 0x1 ADD PUSH3 0x9CD JUMP JUMPDEST POP SWAP1 JUMP JUMPDEST PUSH1 0x0 PUSH3 0x9FA PUSH1 0x44 DUP4 PUSH3 0xB3D JUMP JUMPDEST SWAP2 POP PUSH3 0xA07 DUP3 PUSH3 0xC49 JUMP JUMPDEST PUSH1 0x60 DUP3 ADD SWAP1 POP SWAP2 SWAP1 POP JUMP JUMPDEST PUSH1 0x0 PUSH3 0xA21 PUSH1 0x20 DUP4 PUSH3 0xB3D JUMP JUMPDEST SWAP2 POP PUSH3 0xA2E DUP3 PUSH3 0xCBE JUMP JUMPDEST PUSH1 0x20 DUP3 ADD SWAP1 POP SWAP2 SWAP1 POP JUMP JUMPDEST PUSH1 0x0 PUSH3 0xA48 PUSH1 0x35 DUP4 PUSH3 0xB3D JUMP JUMPDEST SWAP2 POP PUSH3 0xA55 DUP3 PUSH3 0xCE7 JUMP JUMPDEST PUSH1 0x40 DUP3 ADD SWAP1 POP SWAP2 SWAP1 POP JUMP JUMPDEST PUSH1 0x0 PUSH3 0xA6F PUSH1 0x1F DUP4 PUSH3 0xB3D JUMP JUMPDEST SWAP2 POP PUSH3 0xA7C DUP3 PUSH3 0xD36 JUMP JUMPDEST PUSH1 0x20 DUP3 ADD SWAP1 POP SWAP2 SWAP1 POP JUMP JUMPDEST PUSH3 0xA92 DUP2 PUSH3 0xBAB JUMP JUMPDEST DUP3 MSTORE POP POP JUMP JUMPDEST PUSH1 0x0 PUSH1 0x20 DUP3 ADD SWAP1 POP DUP2 DUP2 SUB PUSH1 0x0 DUP4 ADD MSTORE PUSH3 0xAB3 DUP2 PUSH3 0x9EB JUMP JUMPDEST SWAP1 POP SWAP2 SWAP1 POP JUMP JUMPDEST PUSH1 0x0 PUSH1 0x20 DUP3 ADD SWAP1 POP DUP2 DUP2 SUB PUSH1 0x0 DUP4 ADD MSTORE PUSH3 0xAD5 DUP2 PUSH3 0xA12 JUMP JUMPDEST SWAP1 POP SWAP2 SWAP1 POP JUMP JUMPDEST PUSH1 0x0 PUSH1 0x20 DUP3 ADD SWAP1 POP DUP2 DUP2 SUB PUSH1 0x0 DUP4 ADD MSTORE PUSH3 0xAF7 DUP2 PUSH3 0xA39 JUMP JUMPDEST SWAP1 POP SWAP2 SWAP1 POP JUMP JUMPDEST PUSH1 0x0 PUSH1 0x20 DUP3 ADD SWAP1 POP DUP2 DUP2 SUB PUSH1 0x0 DUP4 ADD MSTORE PUSH3 0xB19 DUP2 PUSH3 0xA60 JUMP JUMPDEST SWAP1 POP SWAP2 SWAP1 POP JUMP JUMPDEST PUSH1 0x0 PUSH1 0x20 DUP3 ADD SWAP1 POP PUSH3 0xB37 PUSH1 0x0 DUP4 ADD DUP5 PUSH3 0xA87 JUMP JUMPDEST SWAP3 SWAP2 POP POP JUMP JUMPDEST PUSH1 0x0 DUP3 DUP3 MSTORE PUSH1 0x20 DUP3 ADD SWAP1 POP SWAP3 SWAP2 POP POP JUMP JUMPDEST PUSH1 0x0 PUSH3 0xB5B DUP3 PUSH3 0xBAB JUMP JUMPDEST SWAP2 POP PUSH3 0xB68 DUP4 PUSH3 0xBAB JUMP JUMPDEST SWAP3 POP DUP3 PUSH32 0xFFFFFFFFFFFFFFFFFFFFFFFFFFFFFFFFFFFFFFFFFFFFFFFFFFFFFFFFFFFFFFFF SUB DUP3 GT ISZERO PUSH3 0xBA0 JUMPI PUSH3 0xB9F PUSH3 0xBEB JUMP JUMPDEST JUMPDEST DUP3 DUP3 ADD SWAP1 POP SWAP3 SWAP2 POP POP JUMP JUMPDEST PUSH1 0x0 DUP2 SWAP1 POP SWAP2 SWAP1 POP JUMP JUMPDEST PUSH1 0x0 PUSH1 0x2 DUP3 DIV SWAP1 POP PUSH1 0x1 DUP3 AND DUP1 PUSH3 0xBCE JUMPI PUSH1 0x7F DUP3 AND SWAP2 POP JUMPDEST PUSH1 0x20 DUP3 LT DUP2 EQ ISZERO PUSH3 0xBE5 JUMPI PUSH3 0xBE4 PUSH3 0xC1A JUMP JUMPDEST JUMPDEST POP SWAP2 SWAP1 POP JUMP JUMPDEST PUSH32 0x4E487B7100000000000000000000000000000000000000000000000000000000 PUSH1 0x0 MSTORE PUSH1 0x11 PUSH1 0x4 MSTORE PUSH1 0x24 PUSH1 0x0 REVERT JUMPDEST PUSH32 0x4E487B7100000000000000000000000000000000000000000000000000000000 PUSH1 0x0 MSTORE PUSH1 0x22 PUSH1 0x4 MSTORE PUSH1 0x24 PUSH1 0x0 REVERT JUMPDEST PUSH32 0x41424F41543A3A6D696E743A2043616E2774206D696E74206D6F72652061626F PUSH1 0x0 DUP3 ADD MSTORE PUSH32 0x617420746F6B656E207468616E206D6178446973747269627574696F6E20616C PUSH1 0x20 DUP3 ADD MSTORE PUSH32 0x6C6F777300000000000000000000000000000000000000000000000000000000 PUSH1 0x40 DUP3 ADD MSTORE POP JUMP JUMPDEST PUSH32 0x4F776E61626C653A2063616C6C6572206973206E6F7420746865206F776E6572 PUSH1 0x0 DUP3 ADD MSTORE POP JUMP JUMPDEST PUSH32 0x6F70657261746F723A2063616C6C6572206973206E6F7420616C6C6F77656420 PUSH1 0x0 DUP3 ADD MSTORE PUSH32 0x746F2063616C6C20746869732066756E6374696F6E0000000000000000000000 PUSH1 0x20 DUP3 ADD MSTORE POP JUMP JUMPDEST PUSH32 0x45524332303A206D696E7420746F20746865207A65726F206164647265737300 PUSH1 0x0 DUP3 ADD MSTORE POP JUMP JUMPDEST PUSH2 0xAA8C DUP1 PUSH3 0xD6F PUSH1 0x0 CODECOPY PUSH1 0x0 RETURN INVALID PUSH1 0x80 PUSH1 0x40 MSTORE PUSH1 0x4 CALLDATASIZE LT PUSH2 0x4CE JUMPI PUSH1 0x0 CALLDATALOAD PUSH1 0xE0 SHR DUP1 PUSH4 0x7D8E9615 GT PUSH2 0x276 JUMPI DUP1 PUSH4 0xA4F4A765 GT PUSH2 0x14F JUMPI DUP1 PUSH4 0xDD62ED3E GT PUSH2 0xC1 JUMPI DUP1 PUSH4 0xF2FDE38B GT PUSH2 0x85 JUMPI DUP1 PUSH4 0xF2FDE38B EQ PUSH2 0x12D1 JUMPI DUP1 PUSH4 0xF4762FD6 EQ PUSH2 0x12FA JUMPI DUP1 PUSH4 0xF98080C0 EQ PUSH2 0x1311 JUMPI DUP1 PUSH4 0xF9F92BE4 EQ PUSH2 0x134E JUMPI DUP1 PUSH4 0xFAFA4489 EQ PUSH2 0x1377 JUMPI DUP1 PUSH4 0xFB25C120 EQ PUSH2 0x13A2 JUMPI PUSH2 0x4D5 JUMP JUMPDEST DUP1 PUSH4 0xDD62ED3E EQ PUSH2 0x11FE JUMPI DUP1 PUSH4 0xDF6F6630 EQ PUSH2 0x123B JUMPI DUP1 PUSH4 0xE9FD5862 EQ PUSH2 0x1264 JUMPI DUP1 PUSH4 0xEDAE876F EQ PUSH2 0x128F JUMPI DUP1 PUSH4 0xF1A3DA22 EQ PUSH2 0x12BA JUMPI PUSH2 0x4D5 JUMP JUMPDEST DUP1 PUSH4 0xB29AD50A GT PUSH2 0x113 JUMPI DUP1 PUSH4 0xB29AD50A EQ PUSH2 0x1102 JUMPI DUP1 PUSH4 0xBB922014 EQ PUSH2 0x1119 JUMPI DUP1 PUSH4 0xC1316EB6 EQ PUSH2 0x1156 JUMPI DUP1 PUSH4 0xC851CC32 EQ PUSH2 0x117F JUMPI DUP1 PUSH4 0xC9574975 EQ PUSH2 0x11A8 JUMPI DUP1 PUSH4 0xD9324079 EQ PUSH2 0x11D3 JUMPI PUSH2 0x4D5 JUMP JUMPDEST DUP1 PUSH4 0xA4F4A765 EQ PUSH2 0x100B JUMPI DUP1 PUSH4 0xA607494A EQ PUSH2 0x1036 JUMPI DUP1 PUSH4 0xA9059CBB EQ PUSH2 0x105F JUMPI DUP1 PUSH4 0xAE7E1D7A EQ PUSH2 0x109C JUMPI DUP1 PUSH4 0xAF10E03E EQ PUSH2 0x10D9 JUMPI PUSH2 0x4D5 JUMP JUMPDEST DUP1 PUSH4 0x982CEEB7 GT PUSH2 0x1E8 JUMPI DUP1 PUSH4 0x9D93598E GT PUSH2 0x1AC JUMPI DUP1 PUSH4 0x9D93598E EQ PUSH2 0xEFD JUMPI DUP1 PUSH4 0x9F531156 EQ PUSH2 0xF26 JUMPI DUP1 PUSH4 0xA17252A4 EQ PUSH2 0xF4F JUMPI DUP1 PUSH4 0xA347511A EQ PUSH2 0xF78 JUMPI DUP1 PUSH4 0xA37F4EA9 EQ PUSH2 0xFA3 JUMPI DUP1 PUSH4 0xA457C2D7 EQ PUSH2 0xFCE JUMPI PUSH2 0x4D5 JUMP JUMPDEST DUP1 PUSH4 0x982CEEB7 EQ PUSH2 0xE18 JUMPI DUP1 PUSH4 0x9850D32B EQ PUSH2 0xE43 JUMPI DUP1 PUSH4 0x986D6142 EQ PUSH2 0xE6E JUMPI DUP1 PUSH4 0x9B19251A EQ PUSH2 0xE97 JUMPI DUP1 PUSH4 0x9B96EECE EQ PUSH2 0xEC0 JUMPI PUSH2 0x4D5 JUMP JUMPDEST DUP1 PUSH4 0x8DA5CB5B GT PUSH2 0x23A JUMPI DUP1 PUSH4 0x8DA5CB5B EQ PUSH2 0xD2C JUMPI DUP1 PUSH4 0x8EFD5E3B EQ PUSH2 0xD57 JUMPI DUP1 PUSH4 0x8F5949F9 EQ PUSH2 0xD80 JUMPI DUP1 PUSH4 0x8FDA356D EQ PUSH2 0xDAB JUMPI DUP1 PUSH4 0x91EE5864 EQ PUSH2 0xDC2 JUMPI DUP1 PUSH4 0x95D89B41 EQ PUSH2 0xDED JUMPI PUSH2 0x4D5 JUMP JUMPDEST DUP1 PUSH4 0x7D8E9615 EQ PUSH2 0xC47 JUMPI DUP1 PUSH4 0x8053575B EQ PUSH2 0xC70 JUMPI DUP1 PUSH4 0x808A5457 EQ PUSH2 0xCAD JUMPI DUP1 PUSH4 0x88BCE123 EQ PUSH2 0xCD8 JUMPI DUP1 PUSH4 0x8ABA4659 EQ PUSH2 0xD03 JUMPI PUSH2 0x4D5 JUMP JUMPDEST DUP1 PUSH4 0x313CE567 GT PUSH2 0x3A8 JUMPI DUP1 PUSH4 0x5A96CDD7 GT PUSH2 0x31A JUMPI DUP1 PUSH4 0x6E1E9349 GT PUSH2 0x2DE JUMPI DUP1 PUSH4 0x6E1E9349 EQ PUSH2 0xB6C JUMPI DUP1 PUSH4 0x70A08231 EQ PUSH2 0xB76 JUMPI DUP1 PUSH4 0x715018A6 EQ PUSH2 0xBB3 JUMPI DUP1 PUSH4 0x737DC9BD EQ PUSH2 0xBCA JUMPI DUP1 PUSH4 0x73B002A5 EQ PUSH2 0xBF3 JUMPI DUP1 PUSH4 0x7897AF86 EQ PUSH2 0xC1E JUMPI PUSH2 0x4D5 JUMP JUMPDEST DUP1 PUSH4 0x5A96CDD7 EQ PUSH2 0xA85 JUMPI DUP1 PUSH4 0x626BB274 EQ PUSH2 0xAAE JUMPI DUP1 PUSH4 0x645830B4 EQ PUSH2 0xAD9 JUMPI DUP1 PUSH4 0x653465BF EQ PUSH2 0xB04 JUMPI DUP1 PUSH4 0x69372B30 EQ PUSH2 0xB2F JUMPI PUSH2 0x4D5 JUMP JUMPDEST DUP1 PUSH4 0x437F660E GT PUSH2 0x36C JUMPI DUP1 PUSH4 0x437F660E EQ PUSH2 0x99F JUMPI DUP1 PUSH4 0x4AD1EB81 EQ PUSH2 0x9B6 JUMPI DUP1 PUSH4 0x506EE100 EQ PUSH2 0x9DF JUMPI DUP1 PUSH4 0x53A54511 EQ PUSH2 0xA0A JUMPI DUP1 PUSH4 0x54613450 EQ PUSH2 0xA33 JUMPI DUP1 PUSH4 0x5958621E EQ PUSH2 0xA5C JUMPI PUSH2 0x4D5 JUMP JUMPDEST DUP1 PUSH4 0x313CE567 EQ PUSH2 0x8A8 JUMPI DUP1 PUSH4 0x318913FB EQ PUSH2 0x8D3 JUMPI DUP1 PUSH4 0x370F0A60 EQ PUSH2 0x910 JUMPI DUP1 PUSH4 0x39509351 EQ PUSH2 0x939 JUMPI DUP1 PUSH4 0x40C10F19 EQ PUSH2 0x976 JUMPI PUSH2 0x4D5 JUMP JUMPDEST DUP1 PUSH4 0x18160DDD GT PUSH2 0x441 JUMPI DUP1 PUSH4 0x239EB211 GT PUSH2 0x405 JUMPI DUP1 PUSH4 0x239EB211 EQ PUSH2 0x796 JUMPI DUP1 PUSH4 0x23B872DD EQ PUSH2 0x7C1 JUMPI DUP1 PUSH4 0x2A83759B EQ PUSH2 0x7FE JUMPI DUP1 PUSH4 0x2B112E49 EQ PUSH2 0x815 JUMPI DUP1 PUSH4 0x2B714147 EQ PUSH2 0x840 JUMPI DUP1 PUSH4 0x3071FED2 EQ PUSH2 0x86B JUMPI PUSH2 0x4D5 JUMP JUMPDEST DUP1 PUSH4 0x18160DDD EQ PUSH2 0x6C3 JUMPI DUP1 PUSH4 0x1AC818A1 EQ PUSH2 0x6EE JUMPI DUP1 PUSH4 0x1B611111 EQ PUSH2 0x72B JUMPI DUP1 PUSH4 0x1D5E3FE5 EQ PUSH2 0x742 JUMPI DUP1 PUSH4 0x1F53AC02 EQ PUSH2 0x76D JUMPI PUSH2 0x4D5 JUMP JUMPDEST DUP1 PUSH4 0x6FDDE03 GT PUSH2 0x493 JUMPI DUP1 PUSH4 0x6FDDE03 EQ PUSH2 0x5B1 JUMPI DUP1 PUSH4 0x95EA7B3 EQ PUSH2 0x5DC JUMPI DUP1 PUSH4 0xCD84DC6 EQ PUSH2 0x619 JUMPI DUP1 PUSH4 0xD38FFCD EQ PUSH2 0x644 JUMPI DUP1 PUSH4 0x11A63E17 EQ PUSH2 0x66F JUMPI DUP1 PUSH4 0x13EA5D29 EQ PUSH2 0x69A JUMPI PUSH2 0x4D5 JUMP JUMPDEST DUP1 PUSH3 0x5D1AFC EQ PUSH2 0x4DA JUMPI DUP1 PUSH4 0x181BB78 EQ PUSH2 0x505 JUMPI DUP1 PUSH4 0x1BBBA4D EQ PUSH2 0x530 JUMPI DUP1 PUSH4 0x3FCDBDF EQ PUSH2 0x55B JUMPI DUP1 PUSH4 0x44E0EA2 EQ PUSH2 0x586 JUMPI PUSH2 0x4D5 JUMP JUMPDEST CALLDATASIZE PUSH2 0x4D5 JUMPI STOP JUMPDEST PUSH1 0x0 DUP1 REVERT JUMPDEST CALLVALUE DUP1 ISZERO PUSH2 0x4E6 JUMPI PUSH1 0x0 DUP1 REVERT JUMPDEST POP PUSH2 0x4EF PUSH2 0x13CB JUMP JUMPDEST PUSH1 0x40 MLOAD PUSH2 0x4FC SWAP2 SWAP1 PUSH2 0x8EA3 JUMP JUMPDEST PUSH1 0x40 MLOAD DUP1 SWAP2 SUB SWAP1 RETURN JUMPDEST CALLVALUE DUP1 ISZERO PUSH2 0x511 JUMPI PUSH1 0x0 DUP1 REVERT JUMPDEST POP PUSH2 0x51A PUSH2 0x13DE JUMP JUMPDEST PUSH1 0x40 MLOAD PUSH2 0x527 SWAP2 SWAP1 PUSH2 0x94C2 JUMP JUMPDEST PUSH1 0x40 MLOAD DUP1 SWAP2 SUB SWAP1 RETURN JUMPDEST CALLVALUE DUP1 ISZERO PUSH2 0x53C JUMPI PUSH1 0x0 DUP1 REVERT JUMPDEST POP PUSH2 0x545 PUSH2 0x13F2 JUMP JUMPDEST PUSH1 0x40 MLOAD PUSH2 0x552 SWAP2 SWAP1 PUSH2 0x94C2 JUMP JUMPDEST PUSH1 0x40 MLOAD DUP1 SWAP2 SUB SWAP1 RETURN JUMPDEST CALLVALUE DUP1 ISZERO PUSH2 0x567 JUMPI PUSH1 0x0 DUP1 REVERT JUMPDEST POP PUSH2 0x570 PUSH2 0x1406 JUMP JUMPDEST PUSH1 0x40 MLOAD PUSH2 0x57D SWAP2 SWAP1 PUSH2 0x94C2 JUMP JUMPDEST PUSH1 0x40 MLOAD DUP1 SWAP2 SUB SWAP1 RETURN JUMPDEST CALLVALUE DUP1 ISZERO PUSH2 0x592 JUMPI PUSH1 0x0 DUP1 REVERT JUMPDEST POP PUSH2 0x59B PUSH2 0x141A JUMP JUMPDEST PUSH1 0x40 MLOAD PUSH2 0x5A8 SWAP2 SWAP1 PUSH2 0x953D JUMP JUMPDEST PUSH1 0x40 MLOAD DUP1 SWAP2 SUB SWAP1 RETURN JUMPDEST CALLVALUE DUP1 ISZERO PUSH2 0x5BD JUMPI PUSH1 0x0 DUP1 REVERT JUMPDEST POP PUSH2 0x5C6 PUSH2 0x1420 JUMP JUMPDEST PUSH1 0x40 MLOAD PUSH2 0x5D3 SWAP2 SWAP1 PUSH2 0x8F40 JUMP JUMPDEST PUSH1 0x40 MLOAD DUP1 SWAP2 SUB SWAP1 RETURN JUMPDEST CALLVALUE DUP1 ISZERO PUSH2 0x5E8 JUMPI PUSH1 0x0 DUP1 REVERT JUMPDEST POP PUSH2 0x603 PUSH1 0x4 DUP1 CALLDATASIZE SUB DUP2 ADD SWAP1 PUSH2 0x5FE SWAP2 SWAP1 PUSH2 0x8395 JUMP JUMPDEST PUSH2 0x14B2 JUMP JUMPDEST PUSH1 0x40 MLOAD PUSH2 0x610 SWAP2 SWAP1 PUSH2 0x8EA3 JUMP JUMPDEST PUSH1 0x40 MLOAD DUP1 SWAP2 SUB SWAP1 RETURN JUMPDEST CALLVALUE DUP1 ISZERO PUSH2 0x625 JUMPI PUSH1 0x0 DUP1 REVERT JUMPDEST POP PUSH2 0x62E PUSH2 0x14D0 JUMP JUMPDEST PUSH1 0x40 MLOAD PUSH2 0x63B SWAP2 SWAP1 PUSH2 0x8EBE JUMP JUMPDEST PUSH1 0x40 MLOAD DUP1 SWAP2 SUB SWAP1 RETURN JUMPDEST CALLVALUE DUP1 ISZERO PUSH2 0x650 JUMPI PUSH1 0x0 DUP1 REVERT JUMPDEST POP PUSH2 0x659 PUSH2 0x14F6 JUMP JUMPDEST PUSH1 0x40 MLOAD PUSH2 0x666 SWAP2 SWAP1 PUSH2 0x94C2 JUMP JUMPDEST PUSH1 0x40 MLOAD DUP1 SWAP2 SUB SWAP1 RETURN JUMPDEST CALLVALUE DUP1 ISZERO PUSH2 0x67B JUMPI PUSH1 0x0 DUP1 REVERT JUMPDEST POP PUSH2 0x684 PUSH2 0x150A JUMP JUMPDEST PUSH1 0x40 MLOAD PUSH2 0x691 SWAP2 SWAP1 PUSH2 0x8D2E JUMP JUMPDEST PUSH1 0x40 MLOAD DUP1 SWAP2 SUB SWAP1 RETURN JUMPDEST CALLVALUE DUP1 ISZERO PUSH2 0x6A6 JUMPI PUSH1 0x0 DUP1 REVERT JUMPDEST POP PUSH2 0x6C1 PUSH1 0x4 DUP1 CALLDATASIZE SUB DUP2 ADD SWAP1 PUSH2 0x6BC SWAP2 SWAP1 PUSH2 0x82A8 JUMP JUMPDEST PUSH2 0x1530 JUMP JUMPDEST STOP JUMPDEST CALLVALUE DUP1 ISZERO PUSH2 0x6CF JUMPI PUSH1 0x0 DUP1 REVERT JUMPDEST POP PUSH2 0x6D8 PUSH2 0x18CB JUMP JUMPDEST PUSH1 0x40 MLOAD PUSH2 0x6E5 SWAP2 SWAP1 PUSH2 0x953D JUMP JUMPDEST PUSH1 0x40 MLOAD DUP1 SWAP2 SUB SWAP1 RETURN JUMPDEST CALLVALUE DUP1 ISZERO PUSH2 0x6FA JUMPI PUSH1 0x0 DUP1 REVERT JUMPDEST POP PUSH2 0x715 PUSH1 0x4 DUP1 CALLDATASIZE SUB DUP2 ADD SWAP1 PUSH2 0x710 SWAP2 SWAP1 PUSH2 0x82A8 JUMP JUMPDEST PUSH2 0x18D5 JUMP JUMPDEST PUSH1 0x40 MLOAD PUSH2 0x722 SWAP2 SWAP1 PUSH2 0x8EA3 JUMP JUMPDEST PUSH1 0x40 MLOAD DUP1 SWAP2 SUB SWAP1 RETURN JUMPDEST CALLVALUE DUP1 ISZERO PUSH2 0x737 JUMPI PUSH1 0x0 DUP1 REVERT JUMPDEST POP PUSH2 0x740 PUSH2 0x18F5 JUMP JUMPDEST STOP JUMPDEST CALLVALUE DUP1 ISZERO PUSH2 0x74E JUMPI PUSH1 0x0 DUP1 REVERT JUMPDEST POP PUSH2 0x757 PUSH2 0x1A11 JUMP JUMPDEST PUSH1 0x40 MLOAD PUSH2 0x764 SWAP2 SWAP1 PUSH2 0x953D JUMP JUMPDEST PUSH1 0x40 MLOAD DUP1 SWAP2 SUB SWAP1 RETURN JUMPDEST CALLVALUE DUP1 ISZERO PUSH2 0x779 JUMPI PUSH1 0x0 DUP1 REVERT JUMPDEST POP PUSH2 0x794 PUSH1 0x4 DUP1 CALLDATASIZE SUB DUP2 ADD SWAP1 PUSH2 0x78F SWAP2 SWAP1 PUSH2 0x82A8 JUMP JUMPDEST PUSH2 0x1A17 JUMP JUMPDEST STOP JUMPDEST CALLVALUE DUP1 ISZERO PUSH2 0x7A2 JUMPI PUSH1 0x0 DUP1 REVERT JUMPDEST POP PUSH2 0x7AB PUSH2 0x1BC3 JUMP JUMPDEST PUSH1 0x40 MLOAD PUSH2 0x7B8 SWAP2 SWAP1 PUSH2 0x953D JUMP JUMPDEST PUSH1 0x40 MLOAD DUP1 SWAP2 SUB SWAP1 RETURN JUMPDEST CALLVALUE DUP1 ISZERO PUSH2 0x7CD JUMPI PUSH1 0x0 DUP1 REVERT JUMPDEST POP PUSH2 0x7E8 PUSH1 0x4 DUP1 CALLDATASIZE SUB DUP2 ADD SWAP1 PUSH2 0x7E3 SWAP2 SWAP1 PUSH2 0x8342 JUMP JUMPDEST PUSH2 0x1C5A JUMP JUMPDEST PUSH1 0x40 MLOAD PUSH2 0x7F5 SWAP2 SWAP1 PUSH2 0x8EA3 JUMP JUMPDEST PUSH1 0x40 MLOAD DUP1 SWAP2 SUB SWAP1 RETURN JUMPDEST CALLVALUE DUP1 ISZERO PUSH2 0x80A JUMPI PUSH1 0x0 DUP1 REVERT JUMPDEST POP PUSH2 0x813 PUSH2 0x1D52 JUMP JUMPDEST STOP JUMPDEST CALLVALUE DUP1 ISZERO PUSH2 0x821 JUMPI PUSH1 0x0 DUP1 REVERT JUMPDEST POP PUSH2 0x82A PUSH2 0x1E95 JUMP JUMPDEST PUSH1 0x40 MLOAD PUSH2 0x837 SWAP2 SWAP1 PUSH2 0x953D JUMP JUMPDEST PUSH1 0x40 MLOAD DUP1 SWAP2 SUB SWAP1 RETURN JUMPDEST CALLVALUE DUP1 ISZERO PUSH2 0x84C JUMPI PUSH1 0x0 DUP1 REVERT JUMPDEST POP PUSH2 0x855 PUSH2 0x1EE0 JUMP JUMPDEST PUSH1 0x40 MLOAD PUSH2 0x862 SWAP2 SWAP1 PUSH2 0x953D JUMP JUMPDEST PUSH1 0x40 MLOAD DUP1 SWAP2 SUB SWAP1 RETURN JUMPDEST CALLVALUE DUP1 ISZERO PUSH2 0x877 JUMPI PUSH1 0x0 DUP1 REVERT JUMPDEST POP PUSH2 0x892 PUSH1 0x4 DUP1 CALLDATASIZE SUB DUP2 ADD SWAP1 PUSH2 0x88D SWAP2 SWAP1 PUSH2 0x82A8 JUMP JUMPDEST PUSH2 0x1EE6 JUMP JUMPDEST PUSH1 0x40 MLOAD PUSH2 0x89F SWAP2 SWAP1 PUSH2 0x953D JUMP JUMPDEST PUSH1 0x40 MLOAD DUP1 SWAP2 SUB SWAP1 RETURN JUMPDEST CALLVALUE DUP1 ISZERO PUSH2 0x8B4 JUMPI PUSH1 0x0 DUP1 REVERT JUMPDEST POP PUSH2 0x8BD PUSH2 0x2038 JUMP JUMPDEST PUSH1 0x40 MLOAD PUSH2 0x8CA SWAP2 SWAP1 PUSH2 0x95E9 JUMP JUMPDEST PUSH1 0x40 MLOAD DUP1 SWAP2 SUB SWAP1 RETURN JUMPDEST CALLVALUE DUP1 ISZERO PUSH2 0x8DF JUMPI PUSH1 0x0 DUP1 REVERT JUMPDEST POP PUSH2 0x8FA PUSH1 0x4 DUP1 CALLDATASIZE SUB DUP2 ADD SWAP1 PUSH2 0x8F5 SWAP2 SWAP1 PUSH2 0x82A8 JUMP JUMPDEST PUSH2 0x2041 JUMP JUMPDEST PUSH1 0x40 MLOAD PUSH2 0x907 SWAP2 SWAP1 PUSH2 0x8EA3 JUMP JUMPDEST PUSH1 0x40 MLOAD DUP1 SWAP2 SUB SWAP1 RETURN JUMPDEST CALLVALUE DUP1 ISZERO PUSH2 0x91C JUMPI PUSH1 0x0 DUP1 REVERT JUMPDEST POP PUSH2 0x937 PUSH1 0x4 DUP1 CALLDATASIZE SUB DUP2 ADD SWAP1 PUSH2 0x932 SWAP2 SWAP1 PUSH2 0x82A8 JUMP JUMPDEST PUSH2 0x2164 JUMP JUMPDEST STOP JUMPDEST CALLVALUE DUP1 ISZERO PUSH2 0x945 JUMPI PUSH1 0x0 DUP1 REVERT JUMPDEST POP PUSH2 0x960 PUSH1 0x4 DUP1 CALLDATASIZE SUB DUP2 ADD SWAP1 PUSH2 0x95B SWAP2 SWAP1 PUSH2 0x8395 JUMP JUMPDEST PUSH2 0x22E4 JUMP JUMPDEST PUSH1 0x40 MLOAD PUSH2 0x96D SWAP2 SWAP1 PUSH2 0x8EA3 JUMP JUMPDEST PUSH1 0x40 MLOAD DUP1 SWAP2 SUB SWAP1 RETURN JUMPDEST CALLVALUE DUP1 ISZERO PUSH2 0x982 JUMPI PUSH1 0x0 DUP1 REVERT JUMPDEST POP PUSH2 0x99D PUSH1 0x4 DUP1 CALLDATASIZE SUB DUP2 ADD SWAP1 PUSH2 0x998 SWAP2 SWAP1 PUSH2 0x8395 JUMP JUMPDEST PUSH2 0x2390 JUMP JUMPDEST STOP JUMPDEST CALLVALUE DUP1 ISZERO PUSH2 0x9AB JUMPI PUSH1 0x0 DUP1 REVERT JUMPDEST POP PUSH2 0x9B4 PUSH2 0x2471 JUMP JUMPDEST STOP JUMPDEST CALLVALUE DUP1 ISZERO PUSH2 0x9C2 JUMPI PUSH1 0x0 DUP1 REVERT JUMPDEST POP PUSH2 0x9DD PUSH1 0x4 DUP1 CALLDATASIZE SUB DUP2 ADD SWAP1 PUSH2 0x9D8 SWAP2 SWAP1 PUSH2 0x82A8 JUMP JUMPDEST PUSH2 0x254C JUMP JUMPDEST STOP JUMPDEST CALLVALUE DUP1 ISZERO PUSH2 0x9EB JUMPI PUSH1 0x0 DUP1 REVERT JUMPDEST POP PUSH2 0x9F4 PUSH2 0x2674 JUMP JUMPDEST PUSH1 0x40 MLOAD PUSH2 0xA01 SWAP2 SWAP1 PUSH2 0x8D2E JUMP JUMPDEST PUSH1 0x40 MLOAD DUP1 SWAP2 SUB SWAP1 RETURN JUMPDEST CALLVALUE DUP1 ISZERO PUSH2 0xA16 JUMPI PUSH1 0x0 DUP1 REVERT JUMPDEST POP PUSH2 0xA31 PUSH1 0x4 DUP1 CALLDATASIZE SUB DUP2 ADD SWAP1 PUSH2 0xA2C SWAP2 SWAP1 PUSH2 0x82A8 JUMP JUMPDEST PUSH2 0x27E4 JUMP JUMPDEST STOP JUMPDEST CALLVALUE DUP1 ISZERO PUSH2 0xA3F JUMPI PUSH1 0x0 DUP1 REVERT JUMPDEST POP PUSH2 0xA5A PUSH1 0x4 DUP1 CALLDATASIZE SUB DUP2 ADD SWAP1 PUSH2 0xA55 SWAP2 SWAP1 PUSH2 0x82A8 JUMP JUMPDEST PUSH2 0x290C JUMP JUMPDEST STOP JUMPDEST CALLVALUE DUP1 ISZERO PUSH2 0xA68 JUMPI PUSH1 0x0 DUP1 REVERT JUMPDEST POP PUSH2 0xA83 PUSH1 0x4 DUP1 CALLDATASIZE SUB DUP2 ADD SWAP1 PUSH2 0xA7E SWAP2 SWAP1 PUSH2 0x82A8 JUMP JUMPDEST PUSH2 0x2B2A JUMP JUMPDEST STOP JUMPDEST CALLVALUE DUP1 ISZERO PUSH2 0xA91 JUMPI PUSH1 0x0 DUP1 REVERT JUMPDEST POP PUSH2 0xAAC PUSH1 0x4 DUP1 CALLDATASIZE SUB DUP2 ADD SWAP1 PUSH2 0xAA7 SWAP2 SWAP1 PUSH2 0x82A8 JUMP JUMPDEST PUSH2 0x2CD6 JUMP JUMPDEST STOP JUMPDEST CALLVALUE DUP1 ISZERO PUSH2 0xABA JUMPI PUSH1 0x0 DUP1 REVERT JUMPDEST POP PUSH2 0xAC3 PUSH2 0x2E57 JUMP JUMPDEST PUSH1 0x40 MLOAD PUSH2 0xAD0 SWAP2 SWAP1 PUSH2 0x953D JUMP JUMPDEST PUSH1 0x40 MLOAD DUP1 SWAP2 SUB SWAP1 RETURN JUMPDEST CALLVALUE DUP1 ISZERO PUSH2 0xAE5 JUMPI PUSH1 0x0 DUP1 REVERT JUMPDEST POP PUSH2 0xAEE PUSH2 0x2E5D JUMP JUMPDEST PUSH1 0x40 MLOAD PUSH2 0xAFB SWAP2 SWAP1 PUSH2 0x8D2E JUMP JUMPDEST PUSH1 0x40 MLOAD DUP1 SWAP2 SUB SWAP1 RETURN JUMPDEST CALLVALUE DUP1 ISZERO PUSH2 0xB10 JUMPI PUSH1 0x0 DUP1 REVERT JUMPDEST POP PUSH2 0xB19 PUSH2 0x2E83 JUMP JUMPDEST PUSH1 0x40 MLOAD PUSH2 0xB26 SWAP2 SWAP1 PUSH2 0x8EA3 JUMP JUMPDEST PUSH1 0x40 MLOAD DUP1 SWAP2 SUB SWAP1 RETURN JUMPDEST CALLVALUE DUP1 ISZERO PUSH2 0xB3B JUMPI PUSH1 0x0 DUP1 REVERT JUMPDEST POP PUSH2 0xB56 PUSH1 0x4 DUP1 CALLDATASIZE SUB DUP2 ADD SWAP1 PUSH2 0xB51 SWAP2 SWAP1 PUSH2 0x84CB JUMP JUMPDEST PUSH2 0x2E96 JUMP JUMPDEST PUSH1 0x40 MLOAD PUSH2 0xB63 SWAP2 SWAP1 PUSH2 0x8EA3 JUMP JUMPDEST PUSH1 0x40 MLOAD DUP1 SWAP2 SUB SWAP1 RETURN JUMPDEST PUSH2 0xB74 PUSH2 0x2EB7 JUMP JUMPDEST STOP JUMPDEST CALLVALUE DUP1 ISZERO PUSH2 0xB82 JUMPI PUSH1 0x0 DUP1 REVERT JUMPDEST POP PUSH2 0xB9D PUSH1 0x4 DUP1 CALLDATASIZE SUB DUP2 ADD SWAP1 PUSH2 0xB98 SWAP2 SWAP1 PUSH2 0x82A8 JUMP JUMPDEST PUSH2 0x30DE JUMP JUMPDEST PUSH1 0x40 MLOAD PUSH2 0xBAA SWAP2 SWAP1 PUSH2 0x953D JUMP JUMPDEST PUSH1 0x40 MLOAD DUP1 SWAP2 SUB SWAP1 RETURN JUMPDEST CALLVALUE DUP1 ISZERO PUSH2 0xBBF JUMPI PUSH1 0x0 DUP1 REVERT JUMPDEST POP PUSH2 0xBC8 PUSH2 0x3126 JUMP JUMPDEST STOP JUMPDEST CALLVALUE DUP1 ISZERO PUSH2 0xBD6 JUMPI PUSH1 0x0 DUP1 REVERT JUMPDEST POP PUSH2 0xBF1 PUSH1 0x4 DUP1 CALLDATASIZE SUB DUP2 ADD SWAP1 PUSH2 0xBEC SWAP2 SWAP1 PUSH2 0x8478 JUMP JUMPDEST PUSH2 0x31AE JUMP JUMPDEST STOP JUMPDEST CALLVALUE DUP1 ISZERO PUSH2 0xBFF JUMPI PUSH1 0x0 DUP1 REVERT JUMPDEST POP PUSH2 0xC08 PUSH2 0x34BC JUMP JUMPDEST PUSH1 0x40 MLOAD PUSH2 0xC15 SWAP2 SWAP1 PUSH2 0x953D JUMP JUMPDEST PUSH1 0x40 MLOAD DUP1 SWAP2 SUB SWAP1 RETURN JUMPDEST CALLVALUE DUP1 ISZERO PUSH2 0xC2A JUMPI PUSH1 0x0 DUP1 REVERT JUMPDEST POP PUSH2 0xC45 PUSH1 0x4 DUP1 CALLDATASIZE SUB DUP2 ADD SWAP1 PUSH2 0xC40 SWAP2 SWAP1 PUSH2 0x82A8 JUMP JUMPDEST PUSH2 0x34C2 JUMP JUMPDEST STOP JUMPDEST CALLVALUE DUP1 ISZERO PUSH2 0xC53 JUMPI PUSH1 0x0 DUP1 REVERT JUMPDEST POP PUSH2 0xC6E PUSH1 0x4 DUP1 CALLDATASIZE SUB DUP2 ADD SWAP1 PUSH2 0xC69 SWAP2 SWAP1 PUSH2 0x844B JUMP JUMPDEST PUSH2 0x35EA JUMP JUMPDEST STOP JUMPDEST CALLVALUE DUP1 ISZERO PUSH2 0xC7C JUMPI PUSH1 0x0 DUP1 REVERT JUMPDEST POP PUSH2 0xC97 PUSH1 0x4 DUP1 CALLDATASIZE SUB DUP2 ADD SWAP1 PUSH2 0xC92 SWAP2 SWAP1 PUSH2 0x82A8 JUMP JUMPDEST PUSH2 0x38AE JUMP JUMPDEST PUSH1 0x40 MLOAD PUSH2 0xCA4 SWAP2 SWAP1 PUSH2 0x8EA3 JUMP JUMPDEST PUSH1 0x40 MLOAD DUP1 SWAP2 SUB SWAP1 RETURN JUMPDEST CALLVALUE DUP1 ISZERO PUSH2 0xCB9 JUMPI PUSH1 0x0 DUP1 REVERT JUMPDEST POP PUSH2 0xCC2 PUSH2 0x3904 JUMP JUMPDEST PUSH1 0x40 MLOAD PUSH2 0xCCF SWAP2 SWAP1 PUSH2 0x8D2E JUMP JUMPDEST PUSH1 0x40 MLOAD DUP1 SWAP2 SUB SWAP1 RETURN JUMPDEST CALLVALUE DUP1 ISZERO PUSH2 0xCE4 JUMPI PUSH1 0x0 DUP1 REVERT JUMPDEST POP PUSH2 0xCED PUSH2 0x392E JUMP JUMPDEST PUSH1 0x40 MLOAD PUSH2 0xCFA SWAP2 SWAP1 PUSH2 0x94C2 JUMP JUMPDEST PUSH1 0x40 MLOAD DUP1 SWAP2 SUB SWAP1 RETURN JUMPDEST CALLVALUE DUP1 ISZERO PUSH2 0xD0F JUMPI PUSH1 0x0 DUP1 REVERT JUMPDEST POP PUSH2 0xD2A PUSH1 0x4 DUP1 CALLDATASIZE SUB DUP2 ADD SWAP1 PUSH2 0xD25 SWAP2 SWAP1 PUSH2 0x84CB JUMP JUMPDEST PUSH2 0x3942 JUMP JUMPDEST STOP JUMPDEST CALLVALUE DUP1 ISZERO PUSH2 0xD38 JUMPI PUSH1 0x0 DUP1 REVERT JUMPDEST POP PUSH2 0xD41 PUSH2 0x3A51 JUMP JUMPDEST PUSH1 0x40 MLOAD PUSH2 0xD4E SWAP2 SWAP1 PUSH2 0x8D2E JUMP JUMPDEST PUSH1 0x40 MLOAD DUP1 SWAP2 SUB SWAP1 RETURN JUMPDEST CALLVALUE DUP1 ISZERO PUSH2 0xD63 JUMPI PUSH1 0x0 DUP1 REVERT JUMPDEST POP PUSH2 0xD7E PUSH1 0x4 DUP1 CALLDATASIZE SUB DUP2 ADD SWAP1 PUSH2 0xD79 SWAP2 SWAP1 PUSH2 0x84CB JUMP JUMPDEST PUSH2 0x3A7B JUMP JUMPDEST STOP JUMPDEST CALLVALUE DUP1 ISZERO PUSH2 0xD8C JUMPI PUSH1 0x0 DUP1 REVERT JUMPDEST POP PUSH2 0xD95 PUSH2 0x3B52 JUMP JUMPDEST PUSH1 0x40 MLOAD PUSH2 0xDA2 SWAP2 SWAP1 PUSH2 0x8EA3 JUMP JUMPDEST PUSH1 0x40 MLOAD DUP1 SWAP2 SUB SWAP1 RETURN JUMPDEST CALLVALUE DUP1 ISZERO PUSH2 0xDB7 JUMPI PUSH1 0x0 DUP1 REVERT JUMPDEST POP PUSH2 0xDC0 PUSH2 0x3B65 JUMP JUMPDEST STOP JUMPDEST CALLVALUE DUP1 ISZERO PUSH2 0xDCE JUMPI PUSH1 0x0 DUP1 REVERT JUMPDEST POP PUSH2 0xDD7 PUSH2 0x3C4F JUMP JUMPDEST PUSH1 0x40 MLOAD PUSH2 0xDE4 SWAP2 SWAP1 PUSH2 0x953D JUMP JUMPDEST PUSH1 0x40 MLOAD DUP1 SWAP2 SUB SWAP1 RETURN JUMPDEST CALLVALUE DUP1 ISZERO PUSH2 0xDF9 JUMPI PUSH1 0x0 DUP1 REVERT JUMPDEST POP PUSH2 0xE02 PUSH2 0x3C55 JUMP JUMPDEST PUSH1 0x40 MLOAD PUSH2 0xE0F SWAP2 SWAP1 PUSH2 0x8F40 JUMP JUMPDEST PUSH1 0x40 MLOAD DUP1 SWAP2 SUB SWAP1 RETURN JUMPDEST CALLVALUE DUP1 ISZERO PUSH2 0xE24 JUMPI PUSH1 0x0 DUP1 REVERT JUMPDEST POP PUSH2 0xE2D PUSH2 0x3CE7 JUMP JUMPDEST PUSH1 0x40 MLOAD PUSH2 0xE3A SWAP2 SWAP1 PUSH2 0x953D JUMP JUMPDEST PUSH1 0x40 MLOAD DUP1 SWAP2 SUB SWAP1 RETURN JUMPDEST CALLVALUE DUP1 ISZERO PUSH2 0xE4F JUMPI PUSH1 0x0 DUP1 REVERT JUMPDEST POP PUSH2 0xE58 PUSH2 0x3CED JUMP JUMPDEST PUSH1 0x40 MLOAD PUSH2 0xE65 SWAP2 SWAP1 PUSH2 0x8D2E JUMP JUMPDEST PUSH1 0x40 MLOAD DUP1 SWAP2 SUB SWAP1 RETURN JUMPDEST CALLVALUE DUP1 ISZERO PUSH2 0xE7A JUMPI PUSH1 0x0 DUP1 REVERT JUMPDEST POP PUSH2 0xE95 PUSH1 0x4 DUP1 CALLDATASIZE SUB DUP2 ADD SWAP1 PUSH2 0xE90 SWAP2 SWAP1 PUSH2 0x82A8 JUMP JUMPDEST PUSH2 0x3D17 JUMP JUMPDEST STOP JUMPDEST CALLVALUE DUP1 ISZERO PUSH2 0xEA3 JUMPI PUSH1 0x0 DUP1 REVERT JUMPDEST POP PUSH2 0xEBE PUSH1 0x4 DUP1 CALLDATASIZE SUB DUP2 ADD SWAP1 PUSH2 0xEB9 SWAP2 SWAP1 PUSH2 0x82A8 JUMP JUMPDEST PUSH2 0x3E3F JUMP JUMPDEST STOP JUMPDEST CALLVALUE DUP1 ISZERO PUSH2 0xECC JUMPI PUSH1 0x0 DUP1 REVERT JUMPDEST POP PUSH2 0xEE7 PUSH1 0x4 DUP1 CALLDATASIZE SUB DUP2 ADD SWAP1 PUSH2 0xEE2 SWAP2 SWAP1 PUSH2 0x82A8 JUMP JUMPDEST PUSH2 0x3FBF JUMP JUMPDEST PUSH1 0x40 MLOAD PUSH2 0xEF4 SWAP2 SWAP1 PUSH2 0x953D JUMP JUMPDEST PUSH1 0x40 MLOAD DUP1 SWAP2 SUB SWAP1 RETURN JUMPDEST CALLVALUE DUP1 ISZERO PUSH2 0xF09 JUMPI PUSH1 0x0 DUP1 REVERT JUMPDEST POP PUSH2 0xF24 PUSH1 0x4 DUP1 CALLDATASIZE SUB DUP2 ADD SWAP1 PUSH2 0xF1F SWAP2 SWAP1 PUSH2 0x82A8 JUMP JUMPDEST PUSH2 0x4090 JUMP JUMPDEST STOP JUMPDEST CALLVALUE DUP1 ISZERO PUSH2 0xF32 JUMPI PUSH1 0x0 DUP1 REVERT JUMPDEST POP PUSH2 0xF4D PUSH1 0x4 DUP1 CALLDATASIZE SUB DUP2 ADD SWAP1 PUSH2 0xF48 SWAP2 SWAP1 PUSH2 0x8402 JUMP JUMPDEST PUSH2 0x46C1 JUMP JUMPDEST STOP JUMPDEST CALLVALUE DUP1 ISZERO PUSH2 0xF5B JUMPI PUSH1 0x0 DUP1 REVERT JUMPDEST POP PUSH2 0xF76 PUSH1 0x4 DUP1 CALLDATASIZE SUB DUP2 ADD SWAP1 PUSH2 0xF71 SWAP2 SWAP1 PUSH2 0x82A8 JUMP JUMPDEST PUSH2 0x47B5 JUMP JUMPDEST STOP JUMPDEST CALLVALUE DUP1 ISZERO PUSH2 0xF84 JUMPI PUSH1 0x0 DUP1 REVERT JUMPDEST POP PUSH2 0xF8D PUSH2 0x4935 JUMP JUMPDEST PUSH1 0x40 MLOAD PUSH2 0xF9A SWAP2 SWAP1 PUSH2 0x8EA3 JUMP JUMPDEST PUSH1 0x40 MLOAD DUP1 SWAP2 SUB SWAP1 RETURN JUMPDEST CALLVALUE DUP1 ISZERO PUSH2 0xFAF JUMPI PUSH1 0x0 DUP1 REVERT JUMPDEST POP PUSH2 0xFB8 PUSH2 0x4948 JUMP JUMPDEST PUSH1 0x40 MLOAD PUSH2 0xFC5 SWAP2 SWAP1 PUSH2 0x8D2E JUMP JUMPDEST PUSH1 0x40 MLOAD DUP1 SWAP2 SUB SWAP1 RETURN JUMPDEST CALLVALUE DUP1 ISZERO PUSH2 0xFDA JUMPI PUSH1 0x0 DUP1 REVERT JUMPDEST POP PUSH2 0xFF5 PUSH1 0x4 DUP1 CALLDATASIZE SUB DUP2 ADD SWAP1 PUSH2 0xFF0 SWAP2 SWAP1 PUSH2 0x8395 JUMP JUMPDEST PUSH2 0x496E JUMP JUMPDEST PUSH1 0x40 MLOAD PUSH2 0x1002 SWAP2 SWAP1 PUSH2 0x8EA3 JUMP JUMPDEST PUSH1 0x40 MLOAD DUP1 SWAP2 SUB SWAP1 RETURN JUMPDEST CALLVALUE DUP1 ISZERO PUSH2 0x1017 JUMPI PUSH1 0x0 DUP1 REVERT JUMPDEST POP PUSH2 0x1020 PUSH2 0x4A59 JUMP JUMPDEST PUSH1 0x40 MLOAD PUSH2 0x102D SWAP2 SWAP1 PUSH2 0x8D2E JUMP JUMPDEST PUSH1 0x40 MLOAD DUP1 SWAP2 SUB SWAP1 RETURN JUMPDEST CALLVALUE DUP1 ISZERO PUSH2 0x1042 JUMPI PUSH1 0x0 DUP1 REVERT JUMPDEST POP PUSH2 0x105D PUSH1 0x4 DUP1 CALLDATASIZE SUB DUP2 ADD SWAP1 PUSH2 0x1058 SWAP2 SWAP1 PUSH2 0x8402 JUMP JUMPDEST PUSH2 0x4A7F JUMP JUMPDEST STOP JUMPDEST CALLVALUE DUP1 ISZERO PUSH2 0x106B JUMPI PUSH1 0x0 DUP1 REVERT JUMPDEST POP PUSH2 0x1086 PUSH1 0x4 DUP1 CALLDATASIZE SUB DUP2 ADD SWAP1 PUSH2 0x1081 SWAP2 SWAP1 PUSH2 0x8395 JUMP JUMPDEST PUSH2 0x4BE1 JUMP JUMPDEST PUSH1 0x40 MLOAD PUSH2 0x1093 SWAP2 SWAP1 PUSH2 0x8EA3 JUMP JUMPDEST PUSH1 0x40 MLOAD DUP1 SWAP2 SUB SWAP1 RETURN JUMPDEST CALLVALUE DUP1 ISZERO PUSH2 0x10A8 JUMPI PUSH1 0x0 DUP1 REVERT JUMPDEST POP PUSH2 0x10C3 PUSH1 0x4 DUP1 CALLDATASIZE SUB DUP2 ADD SWAP1 PUSH2 0x10BE SWAP2 SWAP1 PUSH2 0x82A8 JUMP JUMPDEST PUSH2 0x4BFF JUMP JUMPDEST PUSH1 0x40 MLOAD PUSH2 0x10D0 SWAP2 SWAP1 PUSH2 0x8EA3 JUMP JUMPDEST PUSH1 0x40 MLOAD DUP1 SWAP2 SUB SWAP1 RETURN JUMPDEST CALLVALUE DUP1 ISZERO PUSH2 0x10E5 JUMPI PUSH1 0x0 DUP1 REVERT JUMPDEST POP PUSH2 0x1100 PUSH1 0x4 DUP1 CALLDATASIZE SUB DUP2 ADD SWAP1 PUSH2 0x10FB SWAP2 SWAP1 PUSH2 0x844B JUMP JUMPDEST PUSH2 0x4C1F JUMP JUMPDEST STOP JUMPDEST CALLVALUE DUP1 ISZERO PUSH2 0x110E JUMPI PUSH1 0x0 DUP1 REVERT JUMPDEST POP PUSH2 0x1117 PUSH2 0x4F30 JUMP JUMPDEST STOP JUMPDEST CALLVALUE DUP1 ISZERO PUSH2 0x1125 JUMPI PUSH1 0x0 DUP1 REVERT JUMPDEST POP PUSH2 0x1140 PUSH1 0x4 DUP1 CALLDATASIZE SUB DUP2 ADD SWAP1 PUSH2 0x113B SWAP2 SWAP1 PUSH2 0x82A8 JUMP JUMPDEST PUSH2 0x54F7 JUMP JUMPDEST PUSH1 0x40 MLOAD PUSH2 0x114D SWAP2 SWAP1 PUSH2 0x8EA3 JUMP JUMPDEST PUSH1 0x40 MLOAD DUP1 SWAP2 SUB SWAP1 RETURN JUMPDEST CALLVALUE DUP1 ISZERO PUSH2 0x1162 JUMPI PUSH1 0x0 DUP1 REVERT JUMPDEST POP PUSH2 0x117D PUSH1 0x4 DUP1 CALLDATASIZE SUB DUP2 ADD SWAP1 PUSH2 0x1178 SWAP2 SWAP1 PUSH2 0x844B JUMP JUMPDEST PUSH2 0x554D JUMP JUMPDEST STOP JUMPDEST CALLVALUE DUP1 ISZERO PUSH2 0x118B JUMPI PUSH1 0x0 DUP1 REVERT JUMPDEST POP PUSH2 0x11A6 PUSH1 0x4 DUP1 CALLDATASIZE SUB DUP2 ADD SWAP1 PUSH2 0x11A1 SWAP2 SWAP1 PUSH2 0x82A8 JUMP JUMPDEST PUSH2 0x56DD JUMP JUMPDEST STOP JUMPDEST CALLVALUE DUP1 ISZERO PUSH2 0x11B4 JUMPI PUSH1 0x0 DUP1 REVERT JUMPDEST POP PUSH2 0x11BD PUSH2 0x5A4E JUMP JUMPDEST PUSH1 0x40 MLOAD PUSH2 0x11CA SWAP2 SWAP1 PUSH2 0x94C2 JUMP JUMPDEST PUSH1 0x40 MLOAD DUP1 SWAP2 SUB SWAP1 RETURN JUMPDEST CALLVALUE DUP1 ISZERO PUSH2 0x11DF JUMPI PUSH1 0x0 DUP1 REVERT JUMPDEST POP PUSH2 0x11E8 PUSH2 0x5A62 JUMP JUMPDEST PUSH1 0x40 MLOAD PUSH2 0x11F5 SWAP2 SWAP1 PUSH2 0x94C2 JUMP JUMPDEST PUSH1 0x40 MLOAD DUP1 SWAP2 SUB SWAP1 RETURN JUMPDEST CALLVALUE DUP1 ISZERO PUSH2 0x120A JUMPI PUSH1 0x0 DUP1 REVERT JUMPDEST POP PUSH2 0x1225 PUSH1 0x4 DUP1 CALLDATASIZE SUB DUP2 ADD SWAP1 PUSH2 0x1220 SWAP2 SWAP1 PUSH2 0x8302 JUMP JUMPDEST PUSH2 0x5A68 JUMP JUMPDEST PUSH1 0x40 MLOAD PUSH2 0x1232 SWAP2 SWAP1 PUSH2 0x953D JUMP JUMPDEST PUSH1 0x40 MLOAD DUP1 SWAP2 SUB SWAP1 RETURN JUMPDEST CALLVALUE DUP1 ISZERO PUSH2 0x1247 JUMPI PUSH1 0x0 DUP1 REVERT JUMPDEST POP PUSH2 0x1262 PUSH1 0x4 DUP1 CALLDATASIZE SUB DUP2 ADD SWAP1 PUSH2 0x125D SWAP2 SWAP1 PUSH2 0x84CB JUMP JUMPDEST PUSH2 0x5AEF JUMP JUMPDEST STOP JUMPDEST CALLVALUE DUP1 ISZERO PUSH2 0x1270 JUMPI PUSH1 0x0 DUP1 REVERT JUMPDEST POP PUSH2 0x1279 PUSH2 0x5D58 JUMP JUMPDEST PUSH1 0x40 MLOAD PUSH2 0x1286 SWAP2 SWAP1 PUSH2 0x953D JUMP JUMPDEST PUSH1 0x40 MLOAD DUP1 SWAP2 SUB SWAP1 RETURN JUMPDEST CALLVALUE DUP1 ISZERO PUSH2 0x129B JUMPI PUSH1 0x0 DUP1 REVERT JUMPDEST POP PUSH2 0x12A4 PUSH2 0x5D5E JUMP JUMPDEST PUSH1 0x40 MLOAD PUSH2 0x12B1 SWAP2 SWAP1 PUSH2 0x8ED9 JUMP JUMPDEST PUSH1 0x40 MLOAD DUP1 SWAP2 SUB SWAP1 RETURN JUMPDEST CALLVALUE DUP1 ISZERO PUSH2 0x12C6 JUMPI PUSH1 0x0 DUP1 REVERT JUMPDEST POP PUSH2 0x12CF PUSH2 0x5D84 JUMP JUMPDEST STOP JUMPDEST CALLVALUE DUP1 ISZERO PUSH2 0x12DD JUMPI PUSH1 0x0 DUP1 REVERT JUMPDEST POP PUSH2 0x12F8 PUSH1 0x4 DUP1 CALLDATASIZE SUB DUP2 ADD SWAP1 PUSH2 0x12F3 SWAP2 SWAP1 PUSH2 0x82A8 JUMP JUMPDEST PUSH2 0x5EAC JUMP JUMPDEST STOP JUMPDEST CALLVALUE DUP1 ISZERO PUSH2 0x1306 JUMPI PUSH1 0x0 DUP1 REVERT JUMPDEST POP PUSH2 0x130F PUSH2 0x5FA4 JUMP JUMPDEST STOP JUMPDEST CALLVALUE DUP1 ISZERO PUSH2 0x131D JUMPI PUSH1 0x0 DUP1 REVERT JUMPDEST POP PUSH2 0x1338 PUSH1 0x4 DUP1 CALLDATASIZE SUB DUP2 ADD SWAP1 PUSH2 0x1333 SWAP2 SWAP1 PUSH2 0x8402 JUMP JUMPDEST PUSH2 0x60BA JUMP JUMPDEST PUSH1 0x40 MLOAD PUSH2 0x1345 SWAP2 SWAP1 PUSH2 0x953D JUMP JUMPDEST PUSH1 0x40 MLOAD DUP1 SWAP2 SUB SWAP1 RETURN JUMPDEST CALLVALUE DUP1 ISZERO PUSH2 0x135A JUMPI PUSH1 0x0 DUP1 REVERT JUMPDEST POP PUSH2 0x1375 PUSH1 0x4 DUP1 CALLDATASIZE SUB DUP2 ADD SWAP1 PUSH2 0x1370 SWAP2 SWAP1 PUSH2 0x82A8 JUMP JUMPDEST PUSH2 0x60E8 JUMP JUMPDEST STOP JUMPDEST CALLVALUE DUP1 ISZERO PUSH2 0x1383 JUMPI PUSH1 0x0 DUP1 REVERT JUMPDEST POP PUSH2 0x138C PUSH2 0x6253 JUMP JUMPDEST PUSH1 0x40 MLOAD PUSH2 0x1399 SWAP2 SWAP1 PUSH2 0x94C2 JUMP JUMPDEST PUSH1 0x40 MLOAD DUP1 SWAP2 SUB SWAP1 RETURN JUMPDEST CALLVALUE DUP1 ISZERO PUSH2 0x13AE JUMPI PUSH1 0x0 DUP1 REVERT JUMPDEST POP PUSH2 0x13C9 PUSH1 0x4 DUP1 CALLDATASIZE SUB DUP2 ADD SWAP1 PUSH2 0x13C4 SWAP2 SWAP1 PUSH2 0x844B JUMP JUMPDEST PUSH2 0x6267 JUMP JUMPDEST STOP JUMPDEST PUSH1 0x8 PUSH1 0x1E SWAP1 SLOAD SWAP1 PUSH2 0x100 EXP SWAP1 DIV PUSH1 0xFF AND DUP2 JUMP JUMPDEST PUSH1 0x12 PUSH1 0x4 SWAP1 SLOAD SWAP1 PUSH2 0x100 EXP SWAP1 DIV PUSH2 0xFFFF AND DUP2 JUMP JUMPDEST PUSH1 0x8 PUSH1 0x14 SWAP1 SLOAD SWAP1 PUSH2 0x100 EXP SWAP1 DIV PUSH2 0xFFFF AND DUP2 JUMP JUMPDEST PUSH1 0x8 PUSH1 0x18 SWAP1 SLOAD SWAP1 PUSH2 0x100 EXP SWAP1 DIV PUSH2 0xFFFF AND DUP2 JUMP JUMPDEST PUSH1 0x11 SLOAD DUP2 JUMP JUMPDEST PUSH1 0x60 PUSH1 0x3 DUP1 SLOAD PUSH2 0x142F SWAP1 PUSH2 0x992E JUMP JUMPDEST DUP1 PUSH1 0x1F ADD PUSH1 0x20 DUP1 SWAP2 DIV MUL PUSH1 0x20 ADD PUSH1 0x40 MLOAD SWAP1 DUP2 ADD PUSH1 0x40 MSTORE DUP1 SWAP3 SWAP2 SWAP1 DUP2 DUP2 MSTORE PUSH1 0x20 ADD DUP3 DUP1 SLOAD PUSH2 0x145B SWAP1 PUSH2 0x992E JUMP JUMPDEST DUP1 ISZERO PUSH2 0x14A8 JUMPI DUP1 PUSH1 0x1F LT PUSH2 0x147D JUMPI PUSH2 0x100 DUP1 DUP4 SLOAD DIV MUL DUP4 MSTORE SWAP2 PUSH1 0x20 ADD SWAP2 PUSH2 0x14A8 JUMP JUMPDEST DUP3 ADD SWAP2 SWAP1 PUSH1 0x0 MSTORE PUSH1 0x20 PUSH1 0x0 KECCAK256 SWAP1 JUMPDEST DUP2 SLOAD DUP2 MSTORE SWAP1 PUSH1 0x1 ADD SWAP1 PUSH1 0x20 ADD DUP1 DUP4 GT PUSH2 0x148B JUMPI DUP3 SWAP1 SUB PUSH1 0x1F AND DUP3 ADD SWAP2 JUMPDEST POP POP POP POP POP SWAP1 POP SWAP1 JUMP JUMPDEST PUSH1 0x0 PUSH2 0x14C6 PUSH2 0x14BF PUSH2 0x63F7 JUMP JUMPDEST DUP5 DUP5 PUSH2 0x63FF JUMP JUMPDEST PUSH1 0x1 SWAP1 POP SWAP3 SWAP2 POP POP JUMP JUMPDEST PUSH1 0x19 PUSH1 0x0 SWAP1 SLOAD SWAP1 PUSH2 0x100 EXP SWAP1 DIV PUSH20 0xFFFFFFFFFFFFFFFFFFFFFFFFFFFFFFFFFFFFFFFF AND DUP2 JUMP JUMPDEST PUSH1 0x8 PUSH1 0x1C SWAP1 SLOAD SWAP1 PUSH2 0x100 EXP SWAP1 DIV PUSH2 0xFFFF AND DUP2 JUMP JUMPDEST PUSH1 0xA PUSH1 0x0 SWAP1 SLOAD SWAP1 PUSH2 0x100 EXP SWAP1 DIV PUSH20 0xFFFFFFFFFFFFFFFFFFFFFFFFFFFFFFFFFFFFFFFF AND DUP2 JUMP JUMPDEST CALLER PUSH20 0xFFFFFFFFFFFFFFFFFFFFFFFFFFFFFFFFFFFFFFFF AND PUSH2 0x154F PUSH2 0x3A51 JUMP JUMPDEST PUSH20 0xFFFFFFFFFFFFFFFFFFFFFFFFFFFFFFFFFFFFFFFF AND EQ DUP1 PUSH2 0x15BE JUMPI POP CALLER PUSH20 0xFFFFFFFFFFFFFFFFFFFFFFFFFFFFFFFFFFFFFFFF AND PUSH1 0x8 PUSH1 0x0 SWAP1 SLOAD SWAP1 PUSH2 0x100 EXP SWAP1 DIV PUSH20 0xFFFFFFFFFFFFFFFFFFFFFFFFFFFFFFFFFFFFFFFF AND PUSH20 0xFFFFFFFFFFFFFFFFFFFFFFFFFFFFFFFFFFFFFFFF AND EQ JUMPDEST PUSH2 0x15FD JUMPI PUSH1 0x40 MLOAD PUSH32 0x8C379A000000000000000000000000000000000000000000000000000000000 DUP2 MSTORE PUSH1 0x4 ADD PUSH2 0x15F4 SWAP1 PUSH2 0x9302 JUMP JUMPDEST PUSH1 0x40 MLOAD DUP1 SWAP2 SUB SWAP1 REVERT JUMPDEST PUSH1 0x40 MLOAD DUP1 PUSH1 0x40 ADD PUSH1 0x40 MSTORE DUP1 PUSH1 0xA DUP2 MSTORE PUSH1 0x20 ADD PUSH32 0x6D61696E7461696E657200000000000000000000000000000000000000000000 DUP2 MSTORE POP PUSH1 0x6 PUSH1 0x14 SWAP1 SLOAD SWAP1 PUSH2 0x100 EXP SWAP1 DIV PUSH1 0xFF AND ISZERO DUP1 PUSH2 0x16D0 JUMPI POP PUSH1 0x0 PUSH1 0x7 DUP3 PUSH1 0x40 MLOAD PUSH2 0x165C SWAP2 SWAP1 PUSH2 0x8D17 JUMP JUMPDEST SWAP1 DUP2 MSTORE PUSH1 0x20 ADD PUSH1 0x40 MLOAD DUP1 SWAP2 SUB SWAP1 KECCAK256 SLOAD EQ ISZERO DUP1 ISZERO PUSH2 0x1697 JUMPI POP TIMESTAMP PUSH1 0x7 DUP3 PUSH1 0x40 MLOAD PUSH2 0x1685 SWAP2 SWAP1 PUSH2 0x8D17 JUMP JUMPDEST SWAP1 DUP2 MSTORE PUSH1 0x20 ADD PUSH1 0x40 MLOAD DUP1 SWAP2 SUB SWAP1 KECCAK256 SLOAD GT ISZERO JUMPDEST DUP1 ISZERO PUSH2 0x16CF JUMPI POP TIMESTAMP PUSH3 0x15180 PUSH1 0x7 DUP4 PUSH1 0x40 MLOAD PUSH2 0x16B3 SWAP2 SWAP1 PUSH2 0x8D17 JUMP JUMPDEST SWAP1 DUP2 MSTORE PUSH1 0x20 ADD PUSH1 0x40 MLOAD DUP1 SWAP2 SUB SWAP1 KECCAK256 SLOAD PUSH2 0x16CC SWAP2 SWAP1 PUSH2 0x9708 JUMP JUMPDEST LT ISZERO JUMPDEST JUMPDEST PUSH2 0x170F JUMPI PUSH1 0x40 MLOAD PUSH32 0x8C379A000000000000000000000000000000000000000000000000000000000 DUP2 MSTORE PUSH1 0x4 ADD PUSH2 0x1706 SWAP1 PUSH2 0x92A2 JUMP JUMPDEST PUSH1 0x40 MLOAD DUP1 SWAP2 SUB SWAP1 REVERT JUMPDEST PUSH1 0x8 PUSH1 0x0 SWAP1 SLOAD SWAP1 PUSH2 0x100 EXP SWAP1 DIV PUSH20 0xFFFFFFFFFFFFFFFFFFFFFFFFFFFFFFFFFFFFFFFF AND PUSH20 0xFFFFFFFFFFFFFFFFFFFFFFFFFFFFFFFFFFFFFFFF AND DUP3 PUSH20 0xFFFFFFFFFFFFFFFFFFFFFFFFFFFFFFFFFFFFFFFF AND EQ ISZERO DUP1 ISZERO PUSH2 0x179A JUMPI POP PUSH1 0x0 PUSH20 0xFFFFFFFFFFFFFFFFFFFFFFFFFFFFFFFFFFFFFFFF AND DUP3 PUSH20 0xFFFFFFFFFFFFFFFFFFFFFFFFFFFFFFFFFFFFFFFF AND EQ ISZERO JUMPDEST PUSH2 0x17D9 JUMPI PUSH1 0x40 MLOAD PUSH32 0x8C379A000000000000000000000000000000000000000000000000000000000 DUP2 MSTORE PUSH1 0x4 ADD PUSH2 0x17D0 SWAP1 PUSH2 0x91E2 JUMP JUMPDEST PUSH1 0x40 MLOAD DUP1 SWAP2 SUB SWAP1 REVERT JUMPDEST PUSH1 0x0 PUSH1 0x8 PUSH1 0x0 SWAP1 SLOAD SWAP1 PUSH2 0x100 EXP SWAP1 DIV PUSH20 0xFFFFFFFFFFFFFFFFFFFFFFFFFFFFFFFFFFFFFFFF AND SWAP1 POP DUP3 PUSH1 0x8 PUSH1 0x0 PUSH2 0x100 EXP DUP2 SLOAD DUP2 PUSH20 0xFFFFFFFFFFFFFFFFFFFFFFFFFFFFFFFFFFFFFFFF MUL NOT AND SWAP1 DUP4 PUSH20 0xFFFFFFFFFFFFFFFFFFFFFFFFFFFFFFFFFFFFFFFF AND MUL OR SWAP1 SSTORE POP PUSH1 0x8 PUSH1 0x0 SWAP1 SLOAD SWAP1 PUSH2 0x100 EXP SWAP1 DIV PUSH20 0xFFFFFFFFFFFFFFFFFFFFFFFFFFFFFFFFFFFFFFFF AND PUSH20 0xFFFFFFFFFFFFFFFFFFFFFFFFFFFFFFFFFFFFFFFF AND DUP2 PUSH20 0xFFFFFFFFFFFFFFFFFFFFFFFFFFFFFFFFFFFFFFFF AND PUSH32 0x2F3FFAAAAD93928855C8700645D1A3643E6CCFDD500EFA9FDA048A88F557CF01 PUSH1 0x40 MLOAD PUSH1 0x40 MLOAD DUP1 SWAP2 SUB SWAP1 LOG3 POP PUSH2 0x18C7 DUP2 PUSH2 0x46C1 JUMP JUMPDEST POP POP JUMP JUMPDEST PUSH1 0x0 PUSH1 0x2 SLOAD SWAP1 POP SWAP1 JUMP JUMPDEST PUSH1 0x10 PUSH1 0x20 MSTORE DUP1 PUSH1 0x0 MSTORE PUSH1 0x40 PUSH1 0x0 KECCAK256 PUSH1 0x0 SWAP2 POP SLOAD SWAP1 PUSH2 0x100 EXP SWAP1 DIV PUSH1 0xFF AND DUP2 JUMP JUMPDEST CALLER PUSH20 0xFFFFFFFFFFFFFFFFFFFFFFFFFFFFFFFFFFFFFFFF AND PUSH2 0x1914 PUSH2 0x3A51 JUMP JUMPDEST PUSH20 0xFFFFFFFFFFFFFFFFFFFFFFFFFFFFFFFFFFFFFFFF AND EQ DUP1 PUSH2 0x1983 JUMPI POP CALLER PUSH20 0xFFFFFFFFFFFFFFFFFFFFFFFFFFFFFFFFFFFFFFFF AND PUSH1 0x8 PUSH1 0x0 SWAP1 SLOAD SWAP1 PUSH2 0x100 EXP SWAP1 DIV PUSH20 0xFFFFFFFFFFFFFFFFFFFFFFFFFFFFFFFFFFFFFFFF AND PUSH20 0xFFFFFFFFFFFFFFFFFFFFFFFFFFFFFFFFFFFFFFFF AND EQ JUMPDEST PUSH2 0x19C2 JUMPI PUSH1 0x40 MLOAD PUSH32 0x8C379A000000000000000000000000000000000000000000000000000000000 DUP2 MSTORE PUSH1 0x4 ADD PUSH2 0x19B9 SWAP1 PUSH2 0x9302 JUMP JUMPDEST PUSH1 0x40 MLOAD DUP1 SWAP2 SUB SWAP1 REVERT JUMPDEST PUSH1 0x0 SELFBALANCE GT PUSH2 0x1A05 JUMPI PUSH1 0x40 MLOAD PUSH32 0x8C379A000000000000000000000000000000000000000000000000000000000 DUP2 MSTORE PUSH1 0x4 ADD PUSH2 0x19FC SWAP1 PUSH2 0x9122 JUMP JUMPDEST PUSH1 0x40 MLOAD DUP1 SWAP2 SUB SWAP1 REVERT JUMPDEST PUSH2 0x1A0F CALLER SELFBALANCE PUSH2 0x65CA JUMP JUMPDEST JUMP JUMPDEST PUSH1 0x13 SLOAD DUP2 JUMP JUMPDEST CALLER PUSH20 0xFFFFFFFFFFFFFFFFFFFFFFFFFFFFFFFFFFFFFFFF AND PUSH2 0x1A36 PUSH2 0x3A51 JUMP JUMPDEST PUSH20 0xFFFFFFFFFFFFFFFFFFFFFFFFFFFFFFFFFFFFFFFF AND EQ DUP1 PUSH2 0x1AA5 JUMPI POP CALLER PUSH20 0xFFFFFFFFFFFFFFFFFFFFFFFFFFFFFFFFFFFFFFFF AND PUSH1 0x8 PUSH1 0x0 SWAP1 SLOAD SWAP1 PUSH2 0x100 EXP SWAP1 DIV PUSH20 0xFFFFFFFFFFFFFFFFFFFFFFFFFFFFFFFFFFFFFFFF AND PUSH20 0xFFFFFFFFFFFFFFFFFFFFFFFFFFFFFFFFFFFFFFFF AND EQ JUMPDEST PUSH2 0x1AE4 JUMPI PUSH1 0x40 MLOAD PUSH32 0x8C379A000000000000000000000000000000000000000000000000000000000 DUP2 MSTORE PUSH1 0x4 ADD PUSH2 0x1ADB SWAP1 PUSH2 0x9302 JUMP JUMPDEST PUSH1 0x40 MLOAD DUP1 SWAP2 SUB SWAP1 REVERT JUMPDEST PUSH1 0x0 PUSH20 0xFFFFFFFFFFFFFFFFFFFFFFFFFFFFFFFFFFFFFFFF AND DUP2 PUSH20 0xFFFFFFFFFFFFFFFFFFFFFFFFFFFFFFFFFFFFFFFF AND EQ ISZERO PUSH2 0x1B54 JUMPI PUSH1 0x40 MLOAD PUSH32 0x8C379A000000000000000000000000000000000000000000000000000000000 DUP2 MSTORE PUSH1 0x4 ADD PUSH2 0x1B4B SWAP1 PUSH2 0x9462 JUMP JUMPDEST PUSH1 0x40 MLOAD DUP1 SWAP2 SUB SWAP1 REVERT JUMPDEST DUP1 PUSH1 0xA PUSH1 0x0 PUSH2 0x100 EXP DUP2 SLOAD DUP2 PUSH20 0xFFFFFFFFFFFFFFFFFFFFFFFFFFFFFFFFFFFFFFFF MUL NOT AND SWAP1 DUP4 PUSH20 0xFFFFFFFFFFFFFFFFFFFFFFFFFFFFFFFFFFFFFFFF AND MUL OR SWAP1 SSTORE POP PUSH2 0x1BC0 PUSH1 0xA PUSH1 0x0 SWAP1 SLOAD SWAP1 PUSH2 0x100 EXP SWAP1 DIV PUSH20 0xFFFFFFFFFFFFFFFFFFFFFFFFFFFFFFFFFFFFFFFF AND PUSH2 0x2164 JUMP JUMPDEST POP JUMP JUMPDEST PUSH1 0x0 PUSH2 0x1BCD PUSH2 0x2674 JUMP JUMPDEST PUSH20 0xFFFFFFFFFFFFFFFFFFFFFFFFFFFFFFFFFFFFFFFF AND PUSH4 0x70A08231 ADDRESS PUSH1 0x40 MLOAD DUP3 PUSH4 0xFFFFFFFF AND PUSH1 0xE0 SHL DUP2 MSTORE PUSH1 0x4 ADD PUSH2 0x1C05 SWAP2 SWAP1 PUSH2 0x8D2E JUMP JUMPDEST PUSH1 0x20 PUSH1 0x40 MLOAD DUP1 DUP4 SUB DUP2 DUP7 DUP1 EXTCODESIZE ISZERO DUP1 ISZERO PUSH2 0x1C1D JUMPI PUSH1 0x0 DUP1 REVERT JUMPDEST POP GAS STATICCALL ISZERO DUP1 ISZERO PUSH2 0x1C31 JUMPI RETURNDATASIZE PUSH1 0x0 DUP1 RETURNDATACOPY RETURNDATASIZE PUSH1 0x0 REVERT JUMPDEST POP POP POP POP PUSH1 0x40 MLOAD RETURNDATASIZE PUSH1 0x1F NOT PUSH1 0x1F DUP3 ADD AND DUP3 ADD DUP1 PUSH1 0x40 MSTORE POP DUP2 ADD SWAP1 PUSH2 0x1C55 SWAP2 SWAP1 PUSH2 0x84F8 JUMP JUMPDEST SWAP1 POP SWAP1 JUMP JUMPDEST PUSH1 0x0 PUSH2 0x1C67 DUP5 DUP5 DUP5 PUSH2 0x66CA JUMP JUMPDEST PUSH1 0x0 PUSH1 0x1 PUSH1 0x0 DUP7 PUSH20 0xFFFFFFFFFFFFFFFFFFFFFFFFFFFFFFFFFFFFFFFF AND PUSH20 0xFFFFFFFFFFFFFFFFFFFFFFFFFFFFFFFFFFFFFFFF AND DUP2 MSTORE PUSH1 0x20 ADD SWAP1 DUP2 MSTORE PUSH1 0x20 ADD PUSH1 0x0 KECCAK256 PUSH1 0x0 PUSH2 0x1CB2 PUSH2 0x63F7 JUMP JUMPDEST PUSH20 0xFFFFFFFFFFFFFFFFFFFFFFFFFFFFFFFFFFFFFFFF AND PUSH20 0xFFFFFFFFFFFFFFFFFFFFFFFFFFFFFFFFFFFFFFFF AND DUP2 MSTORE PUSH1 0x20 ADD SWAP1 DUP2 MSTORE PUSH1 0x20 ADD PUSH1 0x0 KECCAK256 SLOAD SWAP1 POP DUP3 DUP2 LT ISZERO PUSH2 0x1D32 JUMPI PUSH1 0x40 MLOAD PUSH32 0x8C379A000000000000000000000000000000000000000000000000000000000 DUP2 MSTORE PUSH1 0x4 ADD PUSH2 0x1D29 SWAP1 PUSH2 0x9262 JUMP JUMPDEST PUSH1 0x40 MLOAD DUP1 SWAP2 SUB SWAP1 REVERT JUMPDEST PUSH2 0x1D46 DUP6 PUSH2 0x1D3E PUSH2 0x63F7 JUMP JUMPDEST DUP6 DUP5 SUB PUSH2 0x63FF JUMP JUMPDEST PUSH1 0x1 SWAP2 POP POP SWAP4 SWAP3 POP POP POP JUMP JUMPDEST CALLER PUSH20 0xFFFFFFFFFFFFFFFFFFFFFFFFFFFFFFFFFFFFFFFF AND PUSH2 0x1D71 PUSH2 0x3A51 JUMP JUMPDEST PUSH20 0xFFFFFFFFFFFFFFFFFFFFFFFFFFFFFFFFFFFFFFFF AND EQ DUP1 PUSH2 0x1DE0 JUMPI POP CALLER PUSH20 0xFFFFFFFFFFFFFFFFFFFFFFFFFFFFFFFFFFFFFFFF AND PUSH1 0x8 PUSH1 0x0 SWAP1 SLOAD SWAP1 PUSH2 0x100 EXP SWAP1 DIV PUSH20 0xFFFFFFFFFFFFFFFFFFFFFFFFFFFFFFFFFFFFFFFF AND PUSH20 0xFFFFFFFFFFFFFFFFFFFFFFFFFFFFFFFFFFFFFFFF AND EQ JUMPDEST PUSH2 0x1E1F JUMPI PUSH1 0x40 MLOAD PUSH32 0x8C379A000000000000000000000000000000000000000000000000000000000 DUP2 MSTORE PUSH1 0x4 ADD PUSH2 0x1E16 SWAP1 PUSH2 0x9302 JUMP JUMPDEST PUSH1 0x40 MLOAD DUP1 SWAP2 SUB SWAP1 REVERT JUMPDEST PUSH1 0x0 PUSH1 0x12 PUSH1 0x1 PUSH2 0x100 EXP DUP2 SLOAD DUP2 PUSH1 0xFF MUL NOT AND SWAP1 DUP4 ISZERO ISZERO MUL OR SWAP1 SSTORE POP PUSH1 0x1 PUSH1 0x12 PUSH1 0x0 PUSH2 0x100 EXP DUP2 SLOAD DUP2 PUSH1 0xFF MUL NOT AND SWAP1 DUP4 ISZERO ISZERO MUL OR SWAP1 SSTORE POP PUSH1 0x12 PUSH1 0x1 SWAP1 SLOAD SWAP1 PUSH2 0x100 EXP SWAP1 DIV PUSH1 0xFF AND ISZERO ISZERO PUSH32 0x4C67D13291F7FE21C52EEE8F752CBC5C7451E593E18093D087403081206FD46C PUSH1 0x40 MLOAD PUSH1 0x40 MLOAD DUP1 SWAP2 SUB SWAP1 LOG2 JUMP JUMPDEST PUSH1 0x0 PUSH2 0x1EDB PUSH2 0x1EC5 PUSH1 0xC PUSH1 0x0 SWAP1 SLOAD SWAP1 PUSH2 0x100 EXP SWAP1 DIV PUSH20 0xFFFFFFFFFFFFFFFFFFFFFFFFFFFFFFFFFFFFFFFF AND PUSH2 0x30DE JUMP JUMPDEST PUSH2 0x1ECD PUSH2 0x18CB JUMP JUMPDEST PUSH2 0x7310 SWAP1 SWAP2 SWAP1 PUSH4 0xFFFFFFFF AND JUMP JUMPDEST SWAP1 POP SWAP1 JUMP JUMPDEST PUSH1 0x16 SLOAD DUP2 JUMP JUMPDEST PUSH1 0x0 PUSH1 0x12 PUSH1 0x1 SWAP1 SLOAD SWAP1 PUSH2 0x100 EXP SWAP1 DIV PUSH1 0xFF AND ISZERO PUSH2 0x1F07 JUMPI PUSH2 0x2328 SWAP1 POP PUSH2 0x2033 JUMP JUMPDEST PUSH1 0x0 PUSH2 0x1F12 DUP4 PUSH2 0x3FBF JUMP JUMPDEST SWAP1 POP PUSH2 0x1F1C PUSH2 0x18CB JUMP JUMPDEST DUP2 GT ISZERO PUSH2 0x1F40 JUMPI PUSH1 0x8 PUSH1 0x16 SWAP1 SLOAD SWAP1 PUSH2 0x100 EXP SWAP1 DIV PUSH2 0xFFFF AND PUSH2 0xFFFF AND SWAP2 POP POP PUSH2 0x2033 JUMP JUMPDEST PUSH3 0x186A0 PUSH2 0x1F4C PUSH2 0x18CB JUMP JUMPDEST PUSH2 0x1F56 SWAP2 SWAP1 PUSH2 0x975E JUMP JUMPDEST DUP2 LT ISZERO PUSH2 0x1F7A JUMPI PUSH1 0x8 PUSH1 0x14 SWAP1 SLOAD SWAP1 PUSH2 0x100 EXP SWAP1 DIV PUSH2 0xFFFF AND PUSH2 0xFFFF AND SWAP2 POP POP PUSH2 0x2033 JUMP JUMPDEST PUSH1 0x0 PUSH2 0x1F84 PUSH2 0x18CB JUMP JUMPDEST PUSH3 0x186A0 DUP4 PUSH2 0x1F93 SWAP2 SWAP1 PUSH2 0x978F JUMP JUMPDEST PUSH2 0x1F9D SWAP2 SWAP1 PUSH2 0x975E JUMP JUMPDEST SWAP1 POP PUSH1 0x64 DUP2 GT ISZERO PUSH2 0x2019 JUMPI PUSH1 0x0 PUSH1 0x64 DUP3 PUSH1 0x8 PUSH1 0x14 SWAP1 SLOAD SWAP1 PUSH2 0x100 EXP SWAP1 DIV PUSH2 0xFFFF AND PUSH2 0xFFFF AND PUSH2 0x1FCC SWAP2 SWAP1 PUSH2 0x9708 JUMP JUMPDEST PUSH2 0x1FD6 SWAP2 SWAP1 PUSH2 0x97E9 JUMP JUMPDEST SWAP1 POP PUSH1 0x8 PUSH1 0x16 SWAP1 SLOAD SWAP1 PUSH2 0x100 EXP SWAP1 DIV PUSH2 0xFFFF AND PUSH2 0xFFFF AND DUP2 GT PUSH2 0x1FF9 JUMPI DUP1 PUSH2 0x200F JUMP JUMPDEST PUSH1 0x8 PUSH1 0x16 SWAP1 SLOAD SWAP1 PUSH2 0x100 EXP SWAP1 DIV PUSH2 0xFFFF AND PUSH2 0xFFFF AND JUMPDEST SWAP4 POP POP POP POP PUSH2 0x2033 JUMP JUMPDEST PUSH1 0x8 PUSH1 0x14 SWAP1 SLOAD SWAP1 PUSH2 0x100 EXP SWAP1 DIV PUSH2 0xFFFF AND PUSH2 0xFFFF AND SWAP3 POP POP POP JUMPDEST SWAP2 SWAP1 POP JUMP JUMPDEST PUSH1 0x0 PUSH1 0x12 SWAP1 POP SWAP1 JUMP JUMPDEST PUSH1 0x0 CALLER PUSH20 0xFFFFFFFFFFFFFFFFFFFFFFFFFFFFFFFFFFFFFFFF AND PUSH2 0x2062 PUSH2 0x3A51 JUMP JUMPDEST PUSH20 0xFFFFFFFFFFFFFFFFFFFFFFFFFFFFFFFFFFFFFFFF AND EQ DUP1 PUSH2 0x20D1 JUMPI POP CALLER PUSH20 0xFFFFFFFFFFFFFFFFFFFFFFFFFFFFFFFFFFFFFFFF AND PUSH1 0x8 PUSH1 0x0 SWAP1 SLOAD SWAP1 PUSH2 0x100 EXP SWAP1 DIV PUSH20 0xFFFFFFFFFFFFFFFFFFFFFFFFFFFFFFFFFFFFFFFF AND PUSH20 0xFFFFFFFFFFFFFFFFFFFFFFFFFFFFFFFFFFFFFFFF AND EQ JUMPDEST PUSH2 0x2110 JUMPI PUSH1 0x40 MLOAD PUSH32 0x8C379A000000000000000000000000000000000000000000000000000000000 DUP2 MSTORE PUSH1 0x4 ADD PUSH2 0x2107 SWAP1 PUSH2 0x9302 JUMP JUMPDEST PUSH1 0x40 MLOAD DUP1 SWAP2 SUB SWAP1 REVERT JUMPDEST PUSH1 0x1B PUSH1 0x0 DUP4 PUSH20 0xFFFFFFFFFFFFFFFFFFFFFFFFFFFFFFFFFFFFFFFF AND PUSH20 0xFFFFFFFFFFFFFFFFFFFFFFFFFFFFFFFFFFFFFFFF AND DUP2 MSTORE PUSH1 0x20 ADD SWAP1 DUP2 MSTORE PUSH1 0x20 ADD PUSH1 0x0 KECCAK256 PUSH1 0x0 SWAP1 SLOAD SWAP1 PUSH2 0x100 EXP SWAP1 DIV PUSH1 0xFF AND SWAP1 POP SWAP2 SWAP1 POP JUMP JUMPDEST CALLER PUSH20 0xFFFFFFFFFFFFFFFFFFFFFFFFFFFFFFFFFFFFFFFF AND PUSH2 0x2183 PUSH2 0x3A51 JUMP JUMPDEST PUSH20 0xFFFFFFFFFFFFFFFFFFFFFFFFFFFFFFFFFFFFFFFF AND EQ DUP1 PUSH2 0x21F2 JUMPI POP CALLER PUSH20 0xFFFFFFFFFFFFFFFFFFFFFFFFFFFFFFFFFFFFFFFF AND PUSH1 0x8 PUSH1 0x0 SWAP1 SLOAD SWAP1 PUSH2 0x100 EXP SWAP1 DIV PUSH20 0xFFFFFFFFFFFFFFFFFFFFFFFFFFFFFFFFFFFFFFFF AND PUSH20 0xFFFFFFFFFFFFFFFFFFFFFFFFFFFFFFFFFFFFFFFF AND EQ JUMPDEST PUSH2 0x2231 JUMPI PUSH1 0x40 MLOAD PUSH32 0x8C379A000000000000000000000000000000000000000000000000000000000 DUP2 MSTORE PUSH1 0x4 ADD PUSH2 0x2228 SWAP1 PUSH2 0x9302 JUMP JUMPDEST PUSH1 0x40 MLOAD DUP1 SWAP2 SUB SWAP1 REVERT JUMPDEST PUSH1 0x1 PUSH1 0xF PUSH1 0x0 DUP4 PUSH20 0xFFFFFFFFFFFFFFFFFFFFFFFFFFFFFFFFFFFFFFFF AND PUSH20 0xFFFFFFFFFFFFFFFFFFFFFFFFFFFFFFFFFFFFFFFF AND DUP2 MSTORE PUSH1 0x20 ADD SWAP1 DUP2 MSTORE PUSH1 0x20 ADD PUSH1 0x0 KECCAK256 PUSH1 0x0 PUSH2 0x100 EXP DUP2 SLOAD DUP2 PUSH1 0xFF MUL NOT AND SWAP1 DUP4 ISZERO ISZERO MUL OR SWAP1 SSTORE POP PUSH1 0x1 PUSH1 0x10 PUSH1 0x0 DUP4 PUSH20 0xFFFFFFFFFFFFFFFFFFFFFFFFFFFFFFFFFFFFFFFF AND PUSH20 0xFFFFFFFFFFFFFFFFFFFFFFFFFFFFFFFFFFFFFFFF AND DUP2 MSTORE PUSH1 0x20 ADD SWAP1 DUP2 MSTORE PUSH1 0x20 ADD PUSH1 0x0 KECCAK256 PUSH1 0x0 PUSH2 0x100 EXP DUP2 SLOAD DUP2 PUSH1 0xFF MUL NOT AND SWAP1 DUP4 ISZERO ISZERO MUL OR SWAP1 SSTORE POP POP JUMP JUMPDEST PUSH1 0x0 PUSH2 0x2386 PUSH2 0x22F1 PUSH2 0x63F7 JUMP JUMPDEST DUP5 DUP5 PUSH1 0x1 PUSH1 0x0 PUSH2 0x22FF PUSH2 0x63F7 JUMP JUMPDEST PUSH20 0xFFFFFFFFFFFFFFFFFFFFFFFFFFFFFFFFFFFFFFFF AND PUSH20 0xFFFFFFFFFFFFFFFFFFFFFFFFFFFFFFFFFFFFFFFF AND DUP2 MSTORE PUSH1 0x20 ADD SWAP1 DUP2 MSTORE PUSH1 0x20 ADD PUSH1 0x0 KECCAK256 PUSH1 0x0 DUP9 PUSH20 0xFFFFFFFFFFFFFFFFFFFFFFFFFFFFFFFFFFFFFFFF AND PUSH20 0xFFFFFFFFFFFFFFFFFFFFFFFFFFFFFFFFFFFFFFFF AND DUP2 MSTORE PUSH1 0x20 ADD SWAP1 DUP2 MSTORE PUSH1 0x20 ADD PUSH1 0x0 KECCAK256 SLOAD PUSH2 0x2381 SWAP2 SWAP1 PUSH2 0x9708 JUMP JUMPDEST PUSH2 0x63FF JUMP JUMPDEST PUSH1 0x1 SWAP1 POP SWAP3 SWAP2 POP POP JUMP JUMPDEST PUSH2 0x2398 PUSH2 0x63F7 JUMP JUMPDEST PUSH20 0xFFFFFFFFFFFFFFFFFFFFFFFFFFFFFFFFFFFFFFFF AND PUSH2 0x23B6 PUSH2 0x3A51 JUMP JUMPDEST PUSH20 0xFFFFFFFFFFFFFFFFFFFFFFFFFFFFFFFFFFFFFFFF AND EQ PUSH2 0x240C JUMPI PUSH1 0x40 MLOAD PUSH32 0x8C379A000000000000000000000000000000000000000000000000000000000 DUP2 MSTORE PUSH1 0x4 ADD PUSH2 0x2403 SWAP1 PUSH2 0x9282 JUMP JUMPDEST PUSH1 0x40 MLOAD DUP1 SWAP2 SUB SWAP1 REVERT JUMPDEST PUSH1 0x11 SLOAD DUP2 PUSH2 0x2418 PUSH2 0x18CB JUMP JUMPDEST PUSH2 0x2422 SWAP2 SWAP1 PUSH2 0x9708 JUMP JUMPDEST GT ISZERO PUSH2 0x2463 JUMPI PUSH1 0x40 MLOAD PUSH32 0x8C379A000000000000000000000000000000000000000000000000000000000 DUP2 MSTORE PUSH1 0x4 ADD PUSH2 0x245A SWAP1 PUSH2 0x8FE2 JUMP JUMPDEST PUSH1 0x40 MLOAD DUP1 SWAP2 SUB SWAP1 REVERT JUMPDEST PUSH2 0x246D DUP3 DUP3 PUSH2 0x7326 JUMP JUMPDEST POP POP JUMP JUMPDEST PUSH1 0x0 PUSH20 0xFFFFFFFFFFFFFFFFFFFFFFFFFFFFFFFFFFFFFFFF AND PUSH1 0x19 PUSH1 0x0 SWAP1 SLOAD SWAP1 PUSH2 0x100 EXP SWAP1 DIV PUSH20 0xFFFFFFFFFFFFFFFFFFFFFFFFFFFFFFFFFFFFFFFF AND PUSH20 0xFFFFFFFFFFFFFFFFFFFFFFFFFFFFFFFFFFFFFFFF AND EQ PUSH2 0x254A JUMPI PUSH1 0x19 PUSH1 0x0 SWAP1 SLOAD SWAP1 PUSH2 0x100 EXP SWAP1 DIV PUSH20 0xFFFFFFFFFFFFFFFFFFFFFFFFFFFFFFFFFFFFFFFF AND PUSH20 0xFFFFFFFFFFFFFFFFFFFFFFFFFFFFFFFFFFFFFFFF AND PUSH4 0x673A7E28 PUSH1 0x40 MLOAD DUP2 PUSH4 0xFFFFFFFF AND PUSH1 0xE0 SHL DUP2 MSTORE PUSH1 0x4 ADD PUSH1 0x0 PUSH1 0x40 MLOAD DUP1 DUP4 SUB DUP2 PUSH1 0x0 DUP8 DUP1 EXTCODESIZE ISZERO DUP1 ISZERO PUSH2 0x2531 JUMPI PUSH1 0x0 DUP1 REVERT JUMPDEST POP GAS CALL ISZERO DUP1 ISZERO PUSH2 0x2545 JUMPI RETURNDATASIZE PUSH1 0x0 DUP1 RETURNDATACOPY RETURNDATASIZE PUSH1 0x0 REVERT JUMPDEST POP POP POP POP JUMPDEST JUMP JUMPDEST CALLER PUSH20 0xFFFFFFFFFFFFFFFFFFFFFFFFFFFFFFFFFFFFFFFF AND PUSH2 0x256B PUSH2 0x3A51 JUMP JUMPDEST PUSH20 0xFFFFFFFFFFFFFFFFFFFFFFFFFFFFFFFFFFFFFFFF AND EQ DUP1 PUSH2 0x25DA JUMPI POP CALLER PUSH20 0xFFFFFFFFFFFFFFFFFFFFFFFFFFFFFFFFFFFFFFFF AND PUSH1 0x8 PUSH1 0x0 SWAP1 SLOAD SWAP1 PUSH2 0x100 EXP SWAP1 DIV PUSH20 0xFFFFFFFFFFFFFFFFFFFFFFFFFFFFFFFFFFFFFFFF AND PUSH20 0xFFFFFFFFFFFFFFFFFFFFFFFFFFFFFFFFFFFFFFFF AND EQ JUMPDEST PUSH2 0x2619 JUMPI PUSH1 0x40 MLOAD PUSH32 0x8C379A000000000000000000000000000000000000000000000000000000000 DUP2 MSTORE PUSH1 0x4 ADD PUSH2 0x2610 SWAP1 PUSH2 0x9302 JUMP JUMPDEST PUSH1 0x40 MLOAD DUP1 SWAP2 SUB SWAP1 REVERT JUMPDEST PUSH1 0x0 PUSH1 0xF PUSH1 0x0 DUP4 PUSH20 0xFFFFFFFFFFFFFFFFFFFFFFFFFFFFFFFFFFFFFFFF AND PUSH20 0xFFFFFFFFFFFFFFFFFFFFFFFFFFFFFFFFFFFFFFFF AND DUP2 MSTORE PUSH1 0x20 ADD SWAP1 DUP2 MSTORE PUSH1 0x20 ADD PUSH1 0x0 KECCAK256 PUSH1 0x0 PUSH2 0x100 EXP DUP2 SLOAD DUP2 PUSH1 0xFF MUL NOT AND SWAP1 DUP4 ISZERO ISZERO MUL OR SWAP1 SSTORE POP POP JUMP JUMPDEST PUSH1 0x0 DUP1 PUSH1 0xD PUSH1 0x0 SWAP1 SLOAD SWAP1 PUSH2 0x100 EXP SWAP1 DIV PUSH20 0xFFFFFFFFFFFFFFFFFFFFFFFFFFFFFFFFFFFFFFFF AND SWAP1 POP PUSH1 0x0 DUP2 PUSH20 0xFFFFFFFFFFFFFFFFFFFFFFFFFFFFFFFFFFFFFFFF AND PUSH4 0xDFE1681 PUSH1 0x40 MLOAD DUP2 PUSH4 0xFFFFFFFF AND PUSH1 0xE0 SHL DUP2 MSTORE PUSH1 0x4 ADD PUSH1 0x20 PUSH1 0x40 MLOAD DUP1 DUP4 SUB DUP2 DUP7 DUP1 EXTCODESIZE ISZERO DUP1 ISZERO PUSH2 0x26E4 JUMPI PUSH1 0x0 DUP1 REVERT JUMPDEST POP GAS STATICCALL ISZERO DUP1 ISZERO PUSH2 0x26F8 JUMPI RETURNDATASIZE PUSH1 0x0 DUP1 RETURNDATACOPY RETURNDATASIZE PUSH1 0x0 REVERT JUMPDEST POP POP POP POP PUSH1 0x40 MLOAD RETURNDATASIZE PUSH1 0x1F NOT PUSH1 0x1F DUP3 ADD AND DUP3 ADD DUP1 PUSH1 0x40 MSTORE POP DUP2 ADD SWAP1 PUSH2 0x271C SWAP2 SWAP1 PUSH2 0x82D5 JUMP JUMPDEST SWAP1 POP PUSH1 0x0 DUP3 PUSH20 0xFFFFFFFFFFFFFFFFFFFFFFFFFFFFFFFFFFFFFFFF AND PUSH4 0xD21220A7 PUSH1 0x40 MLOAD DUP2 PUSH4 0xFFFFFFFF AND PUSH1 0xE0 SHL DUP2 MSTORE PUSH1 0x4 ADD PUSH1 0x20 PUSH1 0x40 MLOAD DUP1 DUP4 SUB DUP2 DUP7 DUP1 EXTCODESIZE ISZERO DUP1 ISZERO PUSH2 0x2766 JUMPI PUSH1 0x0 DUP1 REVERT JUMPDEST POP GAS STATICCALL ISZERO DUP1 ISZERO PUSH2 0x277A JUMPI RETURNDATASIZE PUSH1 0x0 DUP1 RETURNDATACOPY RETURNDATASIZE PUSH1 0x0 REVERT JUMPDEST POP POP POP POP PUSH1 0x40 MLOAD RETURNDATASIZE PUSH1 0x1F NOT PUSH1 0x1F DUP3 ADD AND DUP3 ADD DUP1 PUSH1 0x40 MSTORE POP DUP2 ADD SWAP1 PUSH2 0x279E SWAP2 SWAP1 PUSH2 0x82D5 JUMP JUMPDEST SWAP1 POP ADDRESS PUSH20 0xFFFFFFFFFFFFFFFFFFFFFFFFFFFFFFFFFFFFFFFF AND DUP3 PUSH20 0xFFFFFFFFFFFFFFFFFFFFFFFFFFFFFFFFFFFFFFFF AND EQ ISZERO PUSH2 0x27DA JUMPI DUP1 PUSH2 0x27DC JUMP JUMPDEST DUP2 JUMPDEST SWAP4 POP POP POP POP SWAP1 JUMP JUMPDEST CALLER PUSH20 0xFFFFFFFFFFFFFFFFFFFFFFFFFFFFFFFFFFFFFFFF AND PUSH2 0x2803 PUSH2 0x3A51 JUMP JUMPDEST PUSH20 0xFFFFFFFFFFFFFFFFFFFFFFFFFFFFFFFFFFFFFFFF AND EQ DUP1 PUSH2 0x2872 JUMPI POP CALLER PUSH20 0xFFFFFFFFFFFFFFFFFFFFFFFFFFFFFFFFFFFFFFFF AND PUSH1 0x8 PUSH1 0x0 SWAP1 SLOAD SWAP1 PUSH2 0x100 EXP SWAP1 DIV PUSH20 0xFFFFFFFFFFFFFFFFFFFFFFFFFFFFFFFFFFFFFFFF AND PUSH20 0xFFFFFFFFFFFFFFFFFFFFFFFFFFFFFFFFFFFFFFFF AND EQ JUMPDEST PUSH2 0x28B1 JUMPI PUSH1 0x40 MLOAD PUSH32 0x8C379A000000000000000000000000000000000000000000000000000000000 DUP2 MSTORE PUSH1 0x4 ADD PUSH2 0x28A8 SWAP1 PUSH2 0x9302 JUMP JUMPDEST PUSH1 0x40 MLOAD DUP1 SWAP2 SUB SWAP1 REVERT JUMPDEST PUSH1 0x0 PUSH1 0x10 PUSH1 0x0 DUP4 PUSH20 0xFFFFFFFFFFFFFFFFFFFFFFFFFFFFFFFFFFFFFFFF AND PUSH20 0xFFFFFFFFFFFFFFFFFFFFFFFFFFFFFFFFFFFFFFFF AND DUP2 MSTORE PUSH1 0x20 ADD SWAP1 DUP2 MSTORE PUSH1 0x20 ADD PUSH1 0x0 KECCAK256 PUSH1 0x0 PUSH2 0x100 EXP DUP2 SLOAD DUP2 PUSH1 0xFF MUL NOT AND SWAP1 DUP4 ISZERO ISZERO MUL OR SWAP1 SSTORE POP POP JUMP JUMPDEST PUSH2 0x2914 PUSH2 0x63F7 JUMP JUMPDEST PUSH20 0xFFFFFFFFFFFFFFFFFFFFFFFFFFFFFFFFFFFFFFFF AND PUSH2 0x2932 PUSH2 0x3A51 JUMP JUMPDEST PUSH20 0xFFFFFFFFFFFFFFFFFFFFFFFFFFFFFFFFFFFFFFFF AND EQ PUSH2 0x2988 JUMPI PUSH1 0x40 MLOAD PUSH32 0x8C379A000000000000000000000000000000000000000000000000000000000 DUP2 MSTORE PUSH1 0x4 ADD PUSH2 0x297F SWAP1 PUSH2 0x9282 JUMP JUMPDEST PUSH1 0x40 MLOAD DUP1 SWAP2 SUB SWAP1 REVERT JUMPDEST PUSH1 0x19 PUSH1 0x0 SWAP1 SLOAD SWAP1 PUSH2 0x100 EXP SWAP1 DIV PUSH20 0xFFFFFFFFFFFFFFFFFFFFFFFFFFFFFFFFFFFFFFFF AND PUSH20 0xFFFFFFFFFFFFFFFFFFFFFFFFFFFFFFFFFFFFFFFF AND DUP2 PUSH20 0xFFFFFFFFFFFFFFFFFFFFFFFFFFFFFFFFFFFFFFFF AND EQ ISZERO DUP1 ISZERO PUSH2 0x2A13 JUMPI POP PUSH1 0x0 PUSH20 0xFFFFFFFFFFFFFFFFFFFFFFFFFFFFFFFFFFFFFFFF AND DUP2 PUSH20 0xFFFFFFFFFFFFFFFFFFFFFFFFFFFFFFFFFFFFFFFF AND EQ ISZERO JUMPDEST PUSH2 0x2A52 JUMPI PUSH1 0x40 MLOAD PUSH32 0x8C379A000000000000000000000000000000000000000000000000000000000 DUP2 MSTORE PUSH1 0x4 ADD PUSH2 0x2A49 SWAP1 PUSH2 0x90C2 JUMP JUMPDEST PUSH1 0x40 MLOAD DUP1 SWAP2 SUB SWAP1 REVERT JUMPDEST PUSH1 0x0 PUSH1 0x19 PUSH1 0x0 SWAP1 SLOAD SWAP1 PUSH2 0x100 EXP SWAP1 DIV PUSH20 0xFFFFFFFFFFFFFFFFFFFFFFFFFFFFFFFFFFFFFFFF AND SWAP1 POP DUP2 PUSH1 0x19 PUSH1 0x0 PUSH2 0x100 EXP DUP2 SLOAD DUP2 PUSH20 0xFFFFFFFFFFFFFFFFFFFFFFFFFFFFFFFFFFFFFFFF MUL NOT AND SWAP1 DUP4 PUSH20 0xFFFFFFFFFFFFFFFFFFFFFFFFFFFFFFFFFFFFFFFF AND MUL OR SWAP1 SSTORE POP PUSH2 0x2AC3 DUP3 PUSH2 0x2164 JUMP JUMPDEST PUSH2 0x2ACC DUP3 PUSH2 0x5EAC JUMP JUMPDEST DUP2 PUSH20 0xFFFFFFFFFFFFFFFFFFFFFFFFFFFFFFFFFFFFFFFF AND DUP2 PUSH20 0xFFFFFFFFFFFFFFFFFFFFFFFFFFFFFFFFFFFFFFFF AND PUSH32 0xDBC41A91AE00463E0C8208E05C807F2559C82A27989B5DD9F984E3A0B8059D69 PUSH1 0x40 MLOAD PUSH1 0x40 MLOAD DUP1 SWAP2 SUB SWAP1 LOG3 POP POP JUMP JUMPDEST CALLER PUSH20 0xFFFFFFFFFFFFFFFFFFFFFFFFFFFFFFFFFFFFFFFF AND PUSH2 0x2B49 PUSH2 0x3A51 JUMP JUMPDEST PUSH20 0xFFFFFFFFFFFFFFFFFFFFFFFFFFFFFFFFFFFFFFFF AND EQ DUP1 PUSH2 0x2BB8 JUMPI POP CALLER PUSH20 0xFFFFFFFFFFFFFFFFFFFFFFFFFFFFFFFFFFFFFFFF AND PUSH1 0x8 PUSH1 0x0 SWAP1 SLOAD SWAP1 PUSH2 0x100 EXP SWAP1 DIV PUSH20 0xFFFFFFFFFFFFFFFFFFFFFFFFFFFFFFFFFFFFFFFF AND PUSH20 0xFFFFFFFFFFFFFFFFFFFFFFFFFFFFFFFFFFFFFFFF AND EQ JUMPDEST PUSH2 0x2BF7 JUMPI PUSH1 0x40 MLOAD PUSH32 0x8C379A000000000000000000000000000000000000000000000000000000000 DUP2 MSTORE PUSH1 0x4 ADD PUSH2 0x2BEE SWAP1 PUSH2 0x9302 JUMP JUMPDEST PUSH1 0x40 MLOAD DUP1 SWAP2 SUB SWAP1 REVERT JUMPDEST PUSH1 0x0 PUSH20 0xFFFFFFFFFFFFFFFFFFFFFFFFFFFFFFFFFFFFFFFF AND DUP2 PUSH20 0xFFFFFFFFFFFFFFFFFFFFFFFFFFFFFFFFFFFFFFFF AND EQ ISZERO PUSH2 0x2C67 JUMPI PUSH1 0x40 MLOAD PUSH32 0x8C379A000000000000000000000000000000000000000000000000000000000 DUP2 MSTORE PUSH1 0x4 ADD PUSH2 0x2C5E SWAP1 PUSH2 0x9422 JUMP JUMPDEST PUSH1 0x40 MLOAD DUP1 SWAP2 SUB SWAP1 REVERT JUMPDEST DUP1 PUSH1 0xC PUSH1 0x0 PUSH2 0x100 EXP DUP2 SLOAD DUP2 PUSH20 0xFFFFFFFFFFFFFFFFFFFFFFFFFFFFFFFFFFFFFFFF MUL NOT AND SWAP1 DUP4 PUSH20 0xFFFFFFFFFFFFFFFFFFFFFFFFFFFFFFFFFFFFFFFF AND MUL OR SWAP1 SSTORE POP PUSH2 0x2CD3 PUSH1 0xC PUSH1 0x0 SWAP1 SLOAD SWAP1 PUSH2 0x100 EXP SWAP1 DIV PUSH20 0xFFFFFFFFFFFFFFFFFFFFFFFFFFFFFFFFFFFFFFFF AND PUSH2 0x2164 JUMP JUMPDEST POP JUMP JUMPDEST CALLER PUSH20 0xFFFFFFFFFFFFFFFFFFFFFFFFFFFFFFFFFFFFFFFF AND PUSH2 0x2CF5 PUSH2 0x3A51 JUMP JUMPDEST PUSH20 0xFFFFFFFFFFFFFFFFFFFFFFFFFFFFFFFFFFFFFFFF AND EQ DUP1 PUSH2 0x2D64 JUMPI POP CALLER PUSH20 0xFFFFFFFFFFFFFFFFFFFFFFFFFFFFFFFFFFFFFFFF AND PUSH1 0x8 PUSH1 0x0 SWAP1 SLOAD SWAP1 PUSH2 0x100 EXP SWAP1 DIV PUSH20 0xFFFFFFFFFFFFFFFFFFFFFFFFFFFFFFFFFFFFFFFF AND PUSH20 0xFFFFFFFFFFFFFFFFFFFFFFFFFFFFFFFFFFFFFFFF AND EQ JUMPDEST PUSH2 0x2DA3 JUMPI PUSH1 0x40 MLOAD PUSH32 0x8C379A000000000000000000000000000000000000000000000000000000000 DUP2 MSTORE PUSH1 0x4 ADD PUSH2 0x2D9A SWAP1 PUSH2 0x9302 JUMP JUMPDEST PUSH1 0x40 MLOAD DUP1 SWAP2 SUB SWAP1 REVERT JUMPDEST PUSH1 0x0 PUSH20 0xFFFFFFFFFFFFFFFFFFFFFFFFFFFFFFFFFFFFFFFF AND DUP2 PUSH20 0xFFFFFFFFFFFFFFFFFFFFFFFFFFFFFFFFFFFFFFFF AND EQ ISZERO PUSH2 0x2E13 JUMPI PUSH1 0x40 MLOAD PUSH32 0x8C379A000000000000000000000000000000000000000000000000000000000 DUP2 MSTORE PUSH1 0x4 ADD PUSH2 0x2E0A SWAP1 PUSH2 0x91C2 JUMP JUMPDEST PUSH1 0x40 MLOAD DUP1 SWAP2 SUB SWAP1 REVERT JUMPDEST DUP1 PUSH1 0xB PUSH1 0x0 PUSH2 0x100 EXP DUP2 SLOAD DUP2 PUSH20 0xFFFFFFFFFFFFFFFFFFFFFFFFFFFFFFFFFFFFFFFF MUL NOT AND SWAP1 DUP4 PUSH20 0xFFFFFFFFFFFFFFFFFFFFFFFFFFFFFFFFFFFFFFFF AND MUL OR SWAP1 SSTORE POP POP JUMP JUMPDEST PUSH1 0x17 SLOAD DUP2 JUMP JUMPDEST PUSH1 0xD PUSH1 0x0 SWAP1 SLOAD SWAP1 PUSH2 0x100 EXP SWAP1 DIV PUSH20 0xFFFFFFFFFFFFFFFFFFFFFFFFFFFFFFFFFFFFFFFF AND DUP2 JUMP JUMPDEST PUSH1 0x12 PUSH1 0x1 SWAP1 SLOAD SWAP1 PUSH2 0x100 EXP SWAP1 DIV PUSH1 0xFF AND DUP2 JUMP JUMPDEST PUSH1 0x0 PUSH1 0x11 SLOAD DUP3 PUSH2 0x2EA4 PUSH2 0x18CB JUMP JUMPDEST PUSH2 0x2EAE SWAP2 SWAP1 PUSH2 0x9708 JUMP JUMPDEST GT ISZERO SWAP1 POP SWAP2 SWAP1 POP JUMP JUMPDEST PUSH1 0x1A PUSH1 0x0 CALLER PUSH20 0xFFFFFFFFFFFFFFFFFFFFFFFFFFFFFFFFFFFFFFFF AND PUSH20 0xFFFFFFFFFFFFFFFFFFFFFFFFFFFFFFFFFFFFFFFF AND DUP2 MSTORE PUSH1 0x20 ADD SWAP1 DUP2 MSTORE PUSH1 0x20 ADD PUSH1 0x0 KECCAK256 PUSH1 0x0 SWAP1 SLOAD SWAP1 PUSH2 0x100 EXP SWAP1 DIV PUSH1 0xFF AND PUSH2 0x2F43 JUMPI PUSH1 0x40 MLOAD PUSH32 0x8C379A000000000000000000000000000000000000000000000000000000000 DUP2 MSTORE PUSH1 0x4 ADD PUSH2 0x2F3A SWAP1 PUSH2 0x8F82 JUMP JUMPDEST PUSH1 0x40 MLOAD DUP1 SWAP2 SUB SWAP1 REVERT JUMPDEST PUSH1 0x1B PUSH1 0x0 CALLER PUSH20 0xFFFFFFFFFFFFFFFFFFFFFFFFFFFFFFFFFFFFFFFF AND PUSH20 0xFFFFFFFFFFFFFFFFFFFFFFFFFFFFFFFFFFFFFFFF AND DUP2 MSTORE PUSH1 0x20 ADD SWAP1 DUP2 MSTORE PUSH1 0x20 ADD PUSH1 0x0 KECCAK256 PUSH1 0x0 SWAP1 SLOAD SWAP1 PUSH2 0x100 EXP SWAP1 DIV PUSH1 0xFF AND ISZERO PUSH2 0x2FD0 JUMPI PUSH1 0x40 MLOAD PUSH32 0x8C379A000000000000000000000000000000000000000000000000000000000 DUP2 MSTORE PUSH1 0x4 ADD PUSH2 0x2FC7 SWAP1 PUSH2 0x9222 JUMP JUMPDEST PUSH1 0x40 MLOAD DUP1 SWAP2 SUB SWAP1 REVERT JUMPDEST PUSH1 0x13 SLOAD CALLVALUE LT ISZERO PUSH2 0x3015 JUMPI PUSH1 0x40 MLOAD PUSH32 0x8C379A000000000000000000000000000000000000000000000000000000000 DUP2 MSTORE PUSH1 0x4 ADD PUSH2 0x300C SWAP1 PUSH2 0x9162 JUMP JUMPDEST PUSH1 0x40 MLOAD DUP1 SWAP2 SUB SWAP1 REVERT JUMPDEST PUSH2 0x3041 PUSH1 0xA PUSH1 0x0 SWAP1 SLOAD SWAP1 PUSH2 0x100 EXP SWAP1 DIV PUSH20 0xFFFFFFFFFFFFFFFFFFFFFFFFFFFFFFFFFFFFFFFF AND CALLVALUE PUSH2 0x65CA JUMP JUMPDEST PUSH1 0x1 PUSH1 0x1B PUSH1 0x0 CALLER PUSH20 0xFFFFFFFFFFFFFFFFFFFFFFFFFFFFFFFFFFFFFFFF AND PUSH20 0xFFFFFFFFFFFFFFFFFFFFFFFFFFFFFFFFFFFFFFFF AND DUP2 MSTORE PUSH1 0x20 ADD SWAP1 DUP2 MSTORE PUSH1 0x20 ADD PUSH1 0x0 KECCAK256 PUSH1 0x0 PUSH2 0x100 EXP DUP2 SLOAD DUP2 PUSH1 0xFF MUL NOT AND SWAP1 DUP4 ISZERO ISZERO MUL OR SWAP1 SSTORE POP CALLER PUSH20 0xFFFFFFFFFFFFFFFFFFFFFFFFFFFFFFFFFFFFFFFF AND PUSH32 0xD0401C9F53BC0A133A6EB391664575AD9C8E05BDDA210963E7E75591938EE510 PUSH1 0x40 MLOAD PUSH1 0x40 MLOAD DUP1 SWAP2 SUB SWAP1 LOG2 JUMP JUMPDEST PUSH1 0x0 DUP1 PUSH1 0x0 DUP4 PUSH20 0xFFFFFFFFFFFFFFFFFFFFFFFFFFFFFFFFFFFFFFFF AND PUSH20 0xFFFFFFFFFFFFFFFFFFFFFFFFFFFFFFFFFFFFFFFF AND DUP2 MSTORE PUSH1 0x20 ADD SWAP1 DUP2 MSTORE PUSH1 0x20 ADD PUSH1 0x0 KECCAK256 SLOAD SWAP1 POP SWAP2 SWAP1 POP JUMP JUMPDEST PUSH2 0x312E PUSH2 0x63F7 JUMP JUMPDEST PUSH20 0xFFFFFFFFFFFFFFFFFFFFFFFFFFFFFFFFFFFFFFFF AND PUSH2 0x314C PUSH2 0x3A51 JUMP JUMPDEST PUSH20 0xFFFFFFFFFFFFFFFFFFFFFFFFFFFFFFFFFFFFFFFF AND EQ PUSH2 0x31A2 JUMPI PUSH1 0x40 MLOAD PUSH32 0x8C379A000000000000000000000000000000000000000000000000000000000 DUP2 MSTORE PUSH1 0x4 ADD PUSH2 0x3199 SWAP1 PUSH2 0x9282 JUMP JUMPDEST PUSH1 0x40 MLOAD DUP1 SWAP2 SUB SWAP1 REVERT JUMPDEST PUSH2 0x31AC PUSH1 0x0 PUSH2 0x7486 JUMP JUMPDEST JUMP JUMPDEST CALLER PUSH20 0xFFFFFFFFFFFFFFFFFFFFFFFFFFFFFFFFFFFFFFFF AND PUSH2 0x31CD PUSH2 0x3A51 JUMP JUMPDEST PUSH20 0xFFFFFFFFFFFFFFFFFFFFFFFFFFFFFFFFFFFFFFFF AND EQ DUP1 PUSH2 0x323C JUMPI POP CALLER PUSH20 0xFFFFFFFFFFFFFFFFFFFFFFFFFFFFFFFFFFFFFFFF AND PUSH1 0x8 PUSH1 0x0 SWAP1 SLOAD SWAP1 PUSH2 0x100 EXP SWAP1 DIV PUSH20 0xFFFFFFFFFFFFFFFFFFFFFFFFFFFFFFFFFFFFFFFF AND PUSH20 0xFFFFFFFFFFFFFFFFFFFFFFFFFFFFFFFFFFFFFFFF AND EQ JUMPDEST PUSH2 0x327B JUMPI PUSH1 0x40 MLOAD PUSH32 0x8C379A000000000000000000000000000000000000000000000000000000000 DUP2 MSTORE PUSH1 0x4 ADD PUSH2 0x3272 SWAP1 PUSH2 0x9302 JUMP JUMPDEST PUSH1 0x40 MLOAD DUP1 SWAP2 SUB SWAP1 REVERT JUMPDEST PUSH1 0x40 MLOAD DUP1 PUSH1 0x40 ADD PUSH1 0x40 MSTORE DUP1 PUSH1 0x9 DUP2 MSTORE PUSH1 0x20 ADD PUSH32 0x7570646174655461780000000000000000000000000000000000000000000000 DUP2 MSTORE POP PUSH1 0x6 PUSH1 0x14 SWAP1 SLOAD SWAP1 PUSH2 0x100 EXP SWAP1 DIV PUSH1 0xFF AND ISZERO DUP1 PUSH2 0x334E JUMPI POP PUSH1 0x0 PUSH1 0x7 DUP3 PUSH1 0x40 MLOAD PUSH2 0x32DA SWAP2 SWAP1 PUSH2 0x8D17 JUMP JUMPDEST SWAP1 DUP2 MSTORE PUSH1 0x20 ADD PUSH1 0x40 MLOAD DUP1 SWAP2 SUB SWAP1 KECCAK256 SLOAD EQ ISZERO DUP1 ISZERO PUSH2 0x3315 JUMPI POP TIMESTAMP PUSH1 0x7 DUP3 PUSH1 0x40 MLOAD PUSH2 0x3303 SWAP2 SWAP1 PUSH2 0x8D17 JUMP JUMPDEST SWAP1 DUP2 MSTORE PUSH1 0x20 ADD PUSH1 0x40 MLOAD DUP1 SWAP2 SUB SWAP1 KECCAK256 SLOAD GT ISZERO JUMPDEST DUP1 ISZERO PUSH2 0x334D JUMPI POP TIMESTAMP PUSH3 0x15180 PUSH1 0x7 DUP4 PUSH1 0x40 MLOAD PUSH2 0x3331 SWAP2 SWAP1 PUSH2 0x8D17 JUMP JUMPDEST SWAP1 DUP2 MSTORE PUSH1 0x20 ADD PUSH1 0x40 MLOAD DUP1 SWAP2 SUB SWAP1 KECCAK256 SLOAD PUSH2 0x334A SWAP2 SWAP1 PUSH2 0x9708 JUMP JUMPDEST LT ISZERO JUMPDEST JUMPDEST PUSH2 0x338D JUMPI PUSH1 0x40 MLOAD PUSH32 0x8C379A000000000000000000000000000000000000000000000000000000000 DUP2 MSTORE PUSH1 0x4 ADD PUSH2 0x3384 SWAP1 PUSH2 0x92A2 JUMP JUMPDEST PUSH1 0x40 MLOAD DUP1 SWAP2 SUB SWAP1 REVERT JUMPDEST PUSH1 0x64 DUP3 DUP5 DUP7 PUSH2 0x339C SWAP2 SWAP1 PUSH2 0x96D0 JUMP JUMPDEST PUSH2 0x33A6 SWAP2 SWAP1 PUSH2 0x96D0 JUMP JUMPDEST PUSH2 0xFFFF AND GT ISZERO PUSH2 0x33EB JUMPI PUSH1 0x40 MLOAD PUSH32 0x8C379A000000000000000000000000000000000000000000000000000000000 DUP2 MSTORE PUSH1 0x4 ADD PUSH2 0x33E2 SWAP1 PUSH2 0x9402 JUMP JUMPDEST PUSH1 0x40 MLOAD DUP1 SWAP2 SUB SWAP1 REVERT JUMPDEST DUP4 PUSH1 0x8 PUSH1 0x18 PUSH2 0x100 EXP DUP2 SLOAD DUP2 PUSH2 0xFFFF MUL NOT AND SWAP1 DUP4 PUSH2 0xFFFF AND MUL OR SWAP1 SSTORE POP DUP3 PUSH1 0x8 PUSH1 0x1A PUSH2 0x100 EXP DUP2 SLOAD DUP2 PUSH2 0xFFFF MUL NOT AND SWAP1 DUP4 PUSH2 0xFFFF AND MUL OR SWAP1 SSTORE POP DUP2 PUSH1 0x8 PUSH1 0x1C PUSH2 0x100 EXP DUP2 SLOAD DUP2 PUSH2 0xFFFF MUL NOT AND SWAP1 DUP4 PUSH2 0xFFFF AND MUL OR SWAP1 SSTORE POP PUSH32 0x49B216608947F85B55485549BCBEB9B3885D85690A8ECCE31F0B27E390AF5C7A PUSH1 0x8 PUSH1 0x18 SWAP1 SLOAD SWAP1 PUSH2 0x100 EXP SWAP1 DIV PUSH2 0xFFFF AND PUSH1 0x8 PUSH1 0x1A SWAP1 SLOAD SWAP1 PUSH2 0x100 EXP SWAP1 DIV PUSH2 0xFFFF AND PUSH1 0x8 PUSH1 0x1C SWAP1 SLOAD SWAP1 PUSH2 0x100 EXP SWAP1 DIV PUSH2 0xFFFF AND PUSH1 0x40 MLOAD PUSH2 0x34A5 SWAP4 SWAP3 SWAP2 SWAP1 PUSH2 0x9506 JUMP JUMPDEST PUSH1 0x40 MLOAD DUP1 SWAP2 SUB SWAP1 LOG1 PUSH2 0x34B6 DUP2 PUSH2 0x46C1 JUMP JUMPDEST POP POP POP POP JUMP JUMPDEST PUSH1 0x18 SLOAD DUP2 JUMP JUMPDEST CALLER PUSH20 0xFFFFFFFFFFFFFFFFFFFFFFFFFFFFFFFFFFFFFFFF AND PUSH2 0x34E1 PUSH2 0x3A51 JUMP JUMPDEST PUSH20 0xFFFFFFFFFFFFFFFFFFFFFFFFFFFFFFFFFFFFFFFF AND EQ DUP1 PUSH2 0x3550 JUMPI POP CALLER PUSH20 0xFFFFFFFFFFFFFFFFFFFFFFFFFFFFFFFFFFFFFFFF AND PUSH1 0x8 PUSH1 0x0 SWAP1 SLOAD SWAP1 PUSH2 0x100 EXP SWAP1 DIV PUSH20 0xFFFFFFFFFFFFFFFFFFFFFFFFFFFFFFFFFFFFFFFF AND PUSH20 0xFFFFFFFFFFFFFFFFFFFFFFFFFFFFFFFFFFFFFFFF AND EQ JUMPDEST PUSH2 0x358F JUMPI PUSH1 0x40 MLOAD PUSH32 0x8C379A000000000000000000000000000000000000000000000000000000000 DUP2 MSTORE PUSH1 0x4 ADD PUSH2 0x3586 SWAP1 PUSH2 0x9302 JUMP JUMPDEST PUSH1 0x40 MLOAD DUP1 SWAP2 SUB SWAP1 REVERT JUMPDEST PUSH1 0x1 PUSH1 0xF PUSH1 0x0 DUP4 PUSH20 0xFFFFFFFFFFFFFFFFFFFFFFFFFFFFFFFFFFFFFFFF AND PUSH20 0xFFFFFFFFFFFFFFFFFFFFFFFFFFFFFFFFFFFFFFFF AND DUP2 MSTORE PUSH1 0x20 ADD SWAP1 DUP2 MSTORE PUSH1 0x20 ADD PUSH1 0x0 KECCAK256 PUSH1 0x0 PUSH2 0x100 EXP DUP2 SLOAD DUP2 PUSH1 0xFF MUL NOT AND SWAP1 DUP4 ISZERO ISZERO MUL OR SWAP1 SSTORE POP POP JUMP JUMPDEST CALLER PUSH20 0xFFFFFFFFFFFFFFFFFFFFFFFFFFFFFFFFFFFFFFFF AND PUSH2 0x3609 PUSH2 0x3A51 JUMP JUMPDEST PUSH20 0xFFFFFFFFFFFFFFFFFFFFFFFFFFFFFFFFFFFFFFFF AND EQ DUP1 PUSH2 0x3678 JUMPI POP CALLER PUSH20 0xFFFFFFFFFFFFFFFFFFFFFFFFFFFFFFFFFFFFFFFF AND PUSH1 0x8 PUSH1 0x0 SWAP1 SLOAD SWAP1 PUSH2 0x100 EXP SWAP1 DIV PUSH20 0xFFFFFFFFFFFFFFFFFFFFFFFFFFFFFFFFFFFFFFFF AND PUSH20 0xFFFFFFFFFFFFFFFFFFFFFFFFFFFFFFFFFFFFFFFF AND EQ JUMPDEST PUSH2 0x36B7 JUMPI PUSH1 0x40 MLOAD PUSH32 0x8C379A000000000000000000000000000000000000000000000000000000000 DUP2 MSTORE PUSH1 0x4 ADD PUSH2 0x36AE SWAP1 PUSH2 0x9302 JUMP JUMPDEST PUSH1 0x40 MLOAD DUP1 SWAP2 SUB SWAP1 REVERT JUMPDEST PUSH1 0x40 MLOAD DUP1 PUSH1 0x40 ADD PUSH1 0x40 MSTORE DUP1 PUSH1 0x7 DUP2 MSTORE PUSH1 0x20 ADD PUSH32 0x6D696E5F74617800000000000000000000000000000000000000000000000000 DUP2 MSTORE POP PUSH1 0x6 PUSH1 0x14 SWAP1 SLOAD SWAP1 PUSH2 0x100 EXP SWAP1 DIV PUSH1 0xFF AND ISZERO DUP1 PUSH2 0x378A JUMPI POP PUSH1 0x0 PUSH1 0x7 DUP3 PUSH1 0x40 MLOAD PUSH2 0x3716 SWAP2 SWAP1 PUSH2 0x8D17 JUMP JUMPDEST SWAP1 DUP2 MSTORE PUSH1 0x20 ADD PUSH1 0x40 MLOAD DUP1 SWAP2 SUB SWAP1 KECCAK256 SLOAD EQ ISZERO DUP1 ISZERO PUSH2 0x3751 JUMPI POP TIMESTAMP PUSH1 0x7 DUP3 PUSH1 0x40 MLOAD PUSH2 0x373F SWAP2 SWAP1 PUSH2 0x8D17 JUMP JUMPDEST SWAP1 DUP2 MSTORE PUSH1 0x20 ADD PUSH1 0x40 MLOAD DUP1 SWAP2 SUB SWAP1 KECCAK256 SLOAD GT ISZERO JUMPDEST DUP1 ISZERO PUSH2 0x3789 JUMPI POP TIMESTAMP PUSH3 0x15180 PUSH1 0x7 DUP4 PUSH1 0x40 MLOAD PUSH2 0x376D SWAP2 SWAP1 PUSH2 0x8D17 JUMP JUMPDEST SWAP1 DUP2 MSTORE PUSH1 0x20 ADD PUSH1 0x40 MLOAD DUP1 SWAP2 SUB SWAP1 KECCAK256 SLOAD PUSH2 0x3786 SWAP2 SWAP1 PUSH2 0x9708 JUMP JUMPDEST LT ISZERO JUMPDEST JUMPDEST PUSH2 0x37C9 JUMPI PUSH1 0x40 MLOAD PUSH32 0x8C379A000000000000000000000000000000000000000000000000000000000 DUP2 MSTORE PUSH1 0x4 ADD PUSH2 0x37C0 SWAP1 PUSH2 0x92A2 JUMP JUMPDEST PUSH1 0x40 MLOAD DUP1 SWAP2 SUB SWAP1 REVERT JUMPDEST PUSH1 0x8 PUSH1 0x16 SWAP1 SLOAD SWAP1 PUSH2 0x100 EXP SWAP1 DIV PUSH2 0xFFFF AND PUSH2 0xFFFF AND DUP3 PUSH2 0xFFFF AND GT ISZERO PUSH2 0x3824 JUMPI PUSH1 0x40 MLOAD PUSH32 0x8C379A000000000000000000000000000000000000000000000000000000000 DUP2 MSTORE PUSH1 0x4 ADD PUSH2 0x381B SWAP1 PUSH2 0x92E2 JUMP JUMPDEST PUSH1 0x40 MLOAD DUP1 SWAP2 SUB SWAP1 REVERT JUMPDEST CALLER PUSH20 0xFFFFFFFFFFFFFFFFFFFFFFFFFFFFFFFFFFFFFFFF AND PUSH32 0xB2F2E219F74B4A7E339376870AE1B18D655E3CF85F60DC47F56E7CD7BAD470C5 PUSH1 0x8 PUSH1 0x14 SWAP1 SLOAD SWAP1 PUSH2 0x100 EXP SWAP1 DIV PUSH2 0xFFFF AND DUP5 PUSH1 0x40 MLOAD PUSH2 0x387C SWAP3 SWAP2 SWAP1 PUSH2 0x94DD JUMP JUMPDEST PUSH1 0x40 MLOAD DUP1 SWAP2 SUB SWAP1 LOG2 DUP2 PUSH1 0x8 PUSH1 0x14 PUSH2 0x100 EXP DUP2 SLOAD DUP2 PUSH2 0xFFFF MUL NOT AND SWAP1 DUP4 PUSH2 0xFFFF AND MUL OR SWAP1 SSTORE POP PUSH2 0x38AA DUP2 PUSH2 0x46C1 JUMP JUMPDEST POP POP JUMP JUMPDEST PUSH1 0x0 PUSH1 0x10 PUSH1 0x0 DUP4 PUSH20 0xFFFFFFFFFFFFFFFFFFFFFFFFFFFFFFFFFFFFFFFF AND PUSH20 0xFFFFFFFFFFFFFFFFFFFFFFFFFFFFFFFFFFFFFFFF AND DUP2 MSTORE PUSH1 0x20 ADD SWAP1 DUP2 MSTORE PUSH1 0x20 ADD PUSH1 0x0 KECCAK256 PUSH1 0x0 SWAP1 SLOAD SWAP1 PUSH2 0x100 EXP SWAP1 DIV PUSH1 0xFF AND SWAP1 POP SWAP2 SWAP1 POP JUMP JUMPDEST PUSH1 0x0 PUSH1 0xD PUSH1 0x0 SWAP1 SLOAD SWAP1 PUSH2 0x100 EXP SWAP1 DIV PUSH20 0xFFFFFFFFFFFFFFFFFFFFFFFFFFFFFFFFFFFFFFFF AND SWAP1 POP SWAP1 JUMP JUMPDEST PUSH1 0x12 PUSH1 0x2 SWAP1 SLOAD SWAP1 PUSH2 0x100 EXP SWAP1 DIV PUSH2 0xFFFF AND DUP2 JUMP JUMPDEST CALLER PUSH20 0xFFFFFFFFFFFFFFFFFFFFFFFFFFFFFFFFFFFFFFFF AND PUSH2 0x3961 PUSH2 0x3A51 JUMP JUMPDEST PUSH20 0xFFFFFFFFFFFFFFFFFFFFFFFFFFFFFFFFFFFFFFFF AND EQ DUP1 PUSH2 0x39D0 JUMPI POP CALLER PUSH20 0xFFFFFFFFFFFFFFFFFFFFFFFFFFFFFFFFFFFFFFFF AND PUSH1 0x8 PUSH1 0x0 SWAP1 SLOAD SWAP1 PUSH2 0x100 EXP SWAP1 DIV PUSH20 0xFFFFFFFFFFFFFFFFFFFFFFFFFFFFFFFFFFFFFFFF AND PUSH20 0xFFFFFFFFFFFFFFFFFFFFFFFFFFFFFFFFFFFFFFFF AND EQ JUMPDEST PUSH2 0x3A0F JUMPI PUSH1 0x40 MLOAD PUSH32 0x8C379A000000000000000000000000000000000000000000000000000000000 DUP2 MSTORE PUSH1 0x4 ADD PUSH2 0x3A06 SWAP1 PUSH2 0x9302 JUMP JUMPDEST PUSH1 0x40 MLOAD DUP1 SWAP2 SUB SWAP1 REVERT JUMPDEST PUSH1 0x0 PUSH1 0x13 SLOAD SWAP1 POP DUP2 PUSH1 0x13 DUP2 SWAP1 SSTORE POP PUSH1 0x13 SLOAD DUP2 PUSH32 0xA4257144DD1CD8B911052D6273102723E361F2B03E4CB7312CF347093492DB78 PUSH1 0x40 MLOAD PUSH1 0x40 MLOAD DUP1 SWAP2 SUB SWAP1 LOG3 POP POP JUMP JUMPDEST PUSH1 0x0 PUSH1 0x6 PUSH1 0x0 SWAP1 SLOAD SWAP1 PUSH2 0x100 EXP SWAP1 DIV PUSH20 0xFFFFFFFFFFFFFFFFFFFFFFFFFFFFFFFFFFFFFFFF AND SWAP1 POP SWAP1 JUMP JUMPDEST CALLER PUSH20 0xFFFFFFFFFFFFFFFFFFFFFFFFFFFFFFFFFFFFFFFF AND PUSH2 0x3A9A PUSH2 0x3A51 JUMP JUMPDEST PUSH20 0xFFFFFFFFFFFFFFFFFFFFFFFFFFFFFFFFFFFFFFFF AND EQ DUP1 PUSH2 0x3B09 JUMPI POP CALLER PUSH20 0xFFFFFFFFFFFFFFFFFFFFFFFFFFFFFFFFFFFFFFFF AND PUSH1 0x8 PUSH1 0x0 SWAP1 SLOAD SWAP1 PUSH2 0x100 EXP SWAP1 DIV PUSH20 0xFFFFFFFFFFFFFFFFFFFFFFFFFFFFFFFFFFFFFFFF AND PUSH20 0xFFFFFFFFFFFFFFFFFFFFFFFFFFFFFFFFFFFFFFFF AND EQ JUMPDEST PUSH2 0x3B48 JUMPI PUSH1 0x40 MLOAD PUSH32 0x8C379A000000000000000000000000000000000000000000000000000000000 DUP2 MSTORE PUSH1 0x4 ADD PUSH2 0x3B3F SWAP1 PUSH2 0x9302 JUMP JUMPDEST PUSH1 0x40 MLOAD DUP1 SWAP2 SUB SWAP1 REVERT JUMPDEST DUP1 PUSH1 0x9 DUP2 SWAP1 SSTORE POP POP JUMP JUMPDEST PUSH1 0x12 PUSH1 0x0 SWAP1 SLOAD SWAP1 PUSH2 0x100 EXP SWAP1 DIV PUSH1 0xFF AND DUP2 JUMP JUMPDEST CALLER PUSH20 0xFFFFFFFFFFFFFFFFFFFFFFFFFFFFFFFFFFFFFFFF AND PUSH2 0x3B84 PUSH2 0x3A51 JUMP JUMPDEST PUSH20 0xFFFFFFFFFFFFFFFFFFFFFFFFFFFFFFFFFFFFFFFF AND EQ DUP1 PUSH2 0x3BF3 JUMPI POP CALLER PUSH20 0xFFFFFFFFFFFFFFFFFFFFFFFFFFFFFFFFFFFFFFFF AND PUSH1 0x8 PUSH1 0x0 SWAP1 SLOAD SWAP1 PUSH2 0x100 EXP SWAP1 DIV PUSH20 0xFFFFFFFFFFFFFFFFFFFFFFFFFFFFFFFFFFFFFFFF AND PUSH20 0xFFFFFFFFFFFFFFFFFFFFFFFFFFFFFFFFFFFFFFFF AND EQ JUMPDEST PUSH2 0x3C32 JUMPI PUSH1 0x40 MLOAD PUSH32 0x8C379A000000000000000000000000000000000000000000000000000000000 DUP2 MSTORE PUSH1 0x4 ADD PUSH2 0x3C29 SWAP1 PUSH2 0x9302 JUMP JUMPDEST PUSH1 0x40 MLOAD DUP1 SWAP2 SUB SWAP1 REVERT JUMPDEST PUSH1 0x1 PUSH1 0x12 PUSH1 0x0 PUSH2 0x100 EXP DUP2 SLOAD DUP2 PUSH1 0xFF MUL NOT AND SWAP1 DUP4 ISZERO ISZERO MUL OR SWAP1 SSTORE POP JUMP JUMPDEST PUSH1 0x15 SLOAD DUP2 JUMP JUMPDEST PUSH1 0x60 PUSH1 0x4 DUP1 SLOAD PUSH2 0x3C64 SWAP1 PUSH2 0x992E JUMP JUMPDEST DUP1 PUSH1 0x1F ADD PUSH1 0x20 DUP1 SWAP2 DIV MUL PUSH1 0x20 ADD PUSH1 0x40 MLOAD SWAP1 DUP2 ADD PUSH1 0x40 MSTORE DUP1 SWAP3 SWAP2 SWAP1 DUP2 DUP2 MSTORE PUSH1 0x20 ADD DUP3 DUP1 SLOAD PUSH2 0x3C90 SWAP1 PUSH2 0x992E JUMP JUMPDEST DUP1 ISZERO PUSH2 0x3CDD JUMPI DUP1 PUSH1 0x1F LT PUSH2 0x3CB2 JUMPI PUSH2 0x100 DUP1 DUP4 SLOAD DIV MUL DUP4 MSTORE SWAP2 PUSH1 0x20 ADD SWAP2 PUSH2 0x3CDD JUMP JUMPDEST DUP3 ADD SWAP2 SWAP1 PUSH1 0x0 MSTORE PUSH1 0x20 PUSH1 0x0 KECCAK256 SWAP1 JUMPDEST DUP2 SLOAD DUP2 MSTORE SWAP1 PUSH1 0x1 ADD SWAP1 PUSH1 0x20 ADD DUP1 DUP4 GT PUSH2 0x3CC0 JUMPI DUP3 SWAP1 SUB PUSH1 0x1F AND DUP3 ADD SWAP2 JUMPDEST POP POP POP POP POP SWAP1 POP SWAP1 JUMP JUMPDEST PUSH1 0x9 SLOAD DUP2 JUMP JUMPDEST PUSH1 0x0 PUSH1 0x8 PUSH1 0x0 SWAP1 SLOAD SWAP1 PUSH2 0x100 EXP SWAP1 DIV PUSH20 0xFFFFFFFFFFFFFFFFFFFFFFFFFFFFFFFFFFFFFFFF AND SWAP1 POP SWAP1 JUMP JUMPDEST CALLER PUSH20 0xFFFFFFFFFFFFFFFFFFFFFFFFFFFFFFFFFFFFFFFF AND PUSH2 0x3D36 PUSH2 0x3A51 JUMP JUMPDEST PUSH20 0xFFFFFFFFFFFFFFFFFFFFFFFFFFFFFFFFFFFFFFFF AND EQ DUP1 PUSH2 0x3DA5 JUMPI POP CALLER PUSH20 0xFFFFFFFFFFFFFFFFFFFFFFFFFFFFFFFFFFFFFFFF AND PUSH1 0x8 PUSH1 0x0 SWAP1 SLOAD SWAP1 PUSH2 0x100 EXP SWAP1 DIV PUSH20 0xFFFFFFFFFFFFFFFFFFFFFFFFFFFFFFFFFFFFFFFF AND PUSH20 0xFFFFFFFFFFFFFFFFFFFFFFFFFFFFFFFFFFFFFFFF AND EQ JUMPDEST PUSH2 0x3DE4 JUMPI PUSH1 0x40 MLOAD PUSH32 0x8C379A000000000000000000000000000000000000000000000000000000000 DUP2 MSTORE PUSH1 0x4 ADD PUSH2 0x3DDB SWAP1 PUSH2 0x9302 JUMP JUMPDEST PUSH1 0x40 MLOAD DUP1 SWAP2 SUB SWAP1 REVERT JUMPDEST PUSH1 0x1 PUSH1 0x10 PUSH1 0x0 DUP4 PUSH20 0xFFFFFFFFFFFFFFFFFFFFFFFFFFFFFFFFFFFFFFFF AND PUSH20 0xFFFFFFFFFFFFFFFFFFFFFFFFFFFFFFFFFFFFFFFF AND DUP2 MSTORE PUSH1 0x20 ADD SWAP1 DUP2 MSTORE PUSH1 0x20 ADD PUSH1 0x0 KECCAK256 PUSH1 0x0 PUSH2 0x100 EXP DUP2 SLOAD DUP2 PUSH1 0xFF MUL NOT AND SWAP1 DUP4 ISZERO ISZERO MUL OR SWAP1 SSTORE POP POP JUMP JUMPDEST CALLER PUSH20 0xFFFFFFFFFFFFFFFFFFFFFFFFFFFFFFFFFFFFFFFF AND PUSH2 0x3E5E PUSH2 0x3A51 JUMP JUMPDEST PUSH20 0xFFFFFFFFFFFFFFFFFFFFFFFFFFFFFFFFFFFFFFFF AND EQ DUP1 PUSH2 0x3ECD JUMPI POP CALLER PUSH20 0xFFFFFFFFFFFFFFFFFFFFFFFFFFFFFFFFFFFFFFFF AND PUSH1 0x8 PUSH1 0x0 SWAP1 SLOAD SWAP1 PUSH2 0x100 EXP SWAP1 DIV PUSH20 0xFFFFFFFFFFFFFFFFFFFFFFFFFFFFFFFFFFFFFFFF AND PUSH20 0xFFFFFFFFFFFFFFFFFFFFFFFFFFFFFFFFFFFFFFFF AND EQ JUMPDEST PUSH2 0x3F0C JUMPI PUSH1 0x40 MLOAD PUSH32 0x8C379A000000000000000000000000000000000000000000000000000000000 DUP2 MSTORE PUSH1 0x4 ADD PUSH2 0x3F03 SWAP1 PUSH2 0x9302 JUMP JUMPDEST PUSH1 0x40 MLOAD DUP1 SWAP2 SUB SWAP1 REVERT JUMPDEST PUSH1 0x1 PUSH1 0x1A PUSH1 0x0 DUP4 PUSH20 0xFFFFFFFFFFFFFFFFFFFFFFFFFFFFFFFFFFFFFFFF AND PUSH20 0xFFFFFFFFFFFFFFFFFFFFFFFFFFFFFFFFFFFFFFFF AND DUP2 MSTORE PUSH1 0x20 ADD SWAP1 DUP2 MSTORE PUSH1 0x20 ADD PUSH1 0x0 KECCAK256 PUSH1 0x0 PUSH2 0x100 EXP DUP2 SLOAD DUP2 PUSH1 0xFF MUL NOT AND SWAP1 DUP4 ISZERO ISZERO MUL OR SWAP1 SSTORE POP PUSH1 0x0 PUSH1 0x1B PUSH1 0x0 DUP4 PUSH20 0xFFFFFFFFFFFFFFFFFFFFFFFFFFFFFFFFFFFFFFFF AND PUSH20 0xFFFFFFFFFFFFFFFFFFFFFFFFFFFFFFFFFFFFFFFF AND DUP2 MSTORE PUSH1 0x20 ADD SWAP1 DUP2 MSTORE PUSH1 0x20 ADD PUSH1 0x0 KECCAK256 PUSH1 0x0 PUSH2 0x100 EXP DUP2 SLOAD DUP2 PUSH1 0xFF MUL NOT AND SWAP1 DUP4 ISZERO ISZERO MUL OR SWAP1 SSTORE POP POP JUMP JUMPDEST PUSH1 0x0 PUSH2 0x4089 PUSH1 0x19 PUSH1 0x0 SWAP1 SLOAD SWAP1 PUSH2 0x100 EXP SWAP1 DIV PUSH20 0xFFFFFFFFFFFFFFFFFFFFFFFFFFFFFFFFFFFFFFFF AND PUSH20 0xFFFFFFFFFFFFFFFFFFFFFFFFFFFFFFFFFFFFFFFF AND PUSH4 0x94D45B59 DUP5 PUSH1 0x0 PUSH1 0x40 MLOAD DUP4 PUSH4 0xFFFFFFFF AND PUSH1 0xE0 SHL DUP2 MSTORE PUSH1 0x4 ADD PUSH2 0x4022 SWAP3 SWAP2 SWAP1 PUSH2 0x8DF0 JUMP JUMPDEST PUSH1 0x20 PUSH1 0x40 MLOAD DUP1 DUP4 SUB DUP2 DUP7 DUP1 EXTCODESIZE ISZERO DUP1 ISZERO PUSH2 0x403A JUMPI PUSH1 0x0 DUP1 REVERT JUMPDEST POP GAS STATICCALL ISZERO DUP1 ISZERO PUSH2 0x404E JUMPI RETURNDATASIZE PUSH1 0x0 DUP1 RETURNDATACOPY RETURNDATASIZE PUSH1 0x0 REVERT JUMPDEST POP POP POP POP PUSH1 0x40 MLOAD RETURNDATASIZE PUSH1 0x1F NOT PUSH1 0x1F DUP3 ADD AND DUP3 ADD DUP1 PUSH1 0x40 MSTORE POP DUP2 ADD SWAP1 PUSH2 0x4072 SWAP2 SWAP1 PUSH2 0x84F8 JUMP JUMPDEST PUSH2 0x407B DUP5 PUSH2 0x30DE JUMP JUMPDEST PUSH2 0x754C SWAP1 SWAP2 SWAP1 PUSH4 0xFFFFFFFF AND JUMP JUMPDEST SWAP1 POP SWAP2 SWAP1 POP JUMP JUMPDEST CALLER PUSH20 0xFFFFFFFFFFFFFFFFFFFFFFFFFFFFFFFFFFFFFFFF AND PUSH2 0x40AF PUSH2 0x3A51 JUMP JUMPDEST PUSH20 0xFFFFFFFFFFFFFFFFFFFFFFFFFFFFFFFFFFFFFFFF AND EQ DUP1 PUSH2 0x411E JUMPI POP CALLER PUSH20 0xFFFFFFFFFFFFFFFFFFFFFFFFFFFFFFFFFFFFFFFF AND PUSH1 0x8 PUSH1 0x0 SWAP1 SLOAD SWAP1 PUSH2 0x100 EXP SWAP1 DIV PUSH20 0xFFFFFFFFFFFFFFFFFFFFFFFFFFFFFFFFFFFFFFFF AND PUSH20 0xFFFFFFFFFFFFFFFFFFFFFFFFFFFFFFFFFFFFFFFF AND EQ JUMPDEST PUSH2 0x415D JUMPI PUSH1 0x40 MLOAD PUSH32 0x8C379A000000000000000000000000000000000000000000000000000000000 DUP2 MSTORE PUSH1 0x4 ADD PUSH2 0x4154 SWAP1 PUSH2 0x9302 JUMP JUMPDEST PUSH1 0x40 MLOAD DUP1 SWAP2 SUB SWAP1 REVERT JUMPDEST PUSH1 0x40 MLOAD DUP1 PUSH1 0x40 ADD PUSH1 0x40 MSTORE DUP1 PUSH1 0x7 DUP2 MSTORE PUSH1 0x20 ADD PUSH32 0x6C705F7061697200000000000000000000000000000000000000000000000000 DUP2 MSTORE POP PUSH1 0x6 PUSH1 0x14 SWAP1 SLOAD SWAP1 PUSH2 0x100 EXP SWAP1 DIV PUSH1 0xFF AND ISZERO DUP1 PUSH2 0x4230 JUMPI POP PUSH1 0x0 PUSH1 0x7 DUP3 PUSH1 0x40 MLOAD PUSH2 0x41BC SWAP2 SWAP1 PUSH2 0x8D17 JUMP JUMPDEST SWAP1 DUP2 MSTORE PUSH1 0x20 ADD PUSH1 0x40 MLOAD DUP1 SWAP2 SUB SWAP1 KECCAK256 SLOAD EQ ISZERO DUP1 ISZERO PUSH2 0x41F7 JUMPI POP TIMESTAMP PUSH1 0x7 DUP3 PUSH1 0x40 MLOAD PUSH2 0x41E5 SWAP2 SWAP1 PUSH2 0x8D17 JUMP JUMPDEST SWAP1 DUP2 MSTORE PUSH1 0x20 ADD PUSH1 0x40 MLOAD DUP1 SWAP2 SUB SWAP1 KECCAK256 SLOAD GT ISZERO JUMPDEST DUP1 ISZERO PUSH2 0x422F JUMPI POP TIMESTAMP PUSH3 0x15180 PUSH1 0x7 DUP4 PUSH1 0x40 MLOAD PUSH2 0x4213 SWAP2 SWAP1 PUSH2 0x8D17 JUMP JUMPDEST SWAP1 DUP2 MSTORE PUSH1 0x20 ADD PUSH1 0x40 MLOAD DUP1 SWAP2 SUB SWAP1 KECCAK256 SLOAD PUSH2 0x422C SWAP2 SWAP1 PUSH2 0x9708 JUMP JUMPDEST LT ISZERO JUMPDEST JUMPDEST PUSH2 0x426F JUMPI PUSH1 0x40 MLOAD PUSH32 0x8C379A000000000000000000000000000000000000000000000000000000000 DUP2 MSTORE PUSH1 0x4 ADD PUSH2 0x4266 SWAP1 PUSH2 0x92A2 JUMP JUMPDEST PUSH1 0x40 MLOAD DUP1 SWAP2 SUB SWAP1 REVERT JUMPDEST PUSH1 0x0 PUSH20 0xFFFFFFFFFFFFFFFFFFFFFFFFFFFFFFFFFFFFFFFF AND DUP3 PUSH20 0xFFFFFFFFFFFFFFFFFFFFFFFFFFFFFFFFFFFFFFFF AND EQ ISZERO PUSH2 0x42DF JUMPI PUSH1 0x40 MLOAD PUSH32 0x8C379A000000000000000000000000000000000000000000000000000000000 DUP2 MSTORE PUSH1 0x4 ADD PUSH2 0x42D6 SWAP1 PUSH2 0x93A2 JUMP JUMPDEST PUSH1 0x40 MLOAD DUP1 SWAP2 SUB SWAP1 REVERT JUMPDEST PUSH1 0xE PUSH1 0x0 SWAP1 SLOAD SWAP1 PUSH2 0x100 EXP SWAP1 DIV PUSH20 0xFFFFFFFFFFFFFFFFFFFFFFFFFFFFFFFFFFFFFFFF AND PUSH20 0xFFFFFFFFFFFFFFFFFFFFFFFFFFFFFFFFFFFFFFFF AND PUSH4 0xC45A0155 PUSH1 0x40 MLOAD DUP2 PUSH4 0xFFFFFFFF AND PUSH1 0xE0 SHL DUP2 MSTORE PUSH1 0x4 ADD PUSH1 0x20 PUSH1 0x40 MLOAD DUP1 DUP4 SUB DUP2 DUP7 DUP1 EXTCODESIZE ISZERO DUP1 ISZERO PUSH2 0x4347 JUMPI PUSH1 0x0 DUP1 REVERT JUMPDEST POP GAS STATICCALL ISZERO DUP1 ISZERO PUSH2 0x435B JUMPI RETURNDATASIZE PUSH1 0x0 DUP1 RETURNDATACOPY RETURNDATASIZE PUSH1 0x0 REVERT JUMPDEST POP POP POP POP PUSH1 0x40 MLOAD RETURNDATASIZE PUSH1 0x1F NOT PUSH1 0x1F DUP3 ADD AND DUP3 ADD DUP1 PUSH1 0x40 MSTORE POP DUP2 ADD SWAP1 PUSH2 0x437F SWAP2 SWAP1 PUSH2 0x82D5 JUMP JUMPDEST PUSH20 0xFFFFFFFFFFFFFFFFFFFFFFFFFFFFFFFFFFFFFFFF AND PUSH4 0xE6A43905 ADDRESS DUP5 PUSH1 0x40 MLOAD DUP4 PUSH4 0xFFFFFFFF AND PUSH1 0xE0 SHL DUP2 MSTORE PUSH1 0x4 ADD PUSH2 0x43B9 SWAP3 SWAP2 SWAP1 PUSH2 0x8D49 JUMP JUMPDEST PUSH1 0x20 PUSH1 0x40 MLOAD DUP1 DUP4 SUB DUP2 DUP7 DUP1 EXTCODESIZE ISZERO DUP1 ISZERO PUSH2 0x43D1 JUMPI PUSH1 0x0 DUP1 REVERT JUMPDEST POP GAS STATICCALL ISZERO DUP1 ISZERO PUSH2 0x43E5 JUMPI RETURNDATASIZE PUSH1 0x0 DUP1 RETURNDATACOPY RETURNDATASIZE PUSH1 0x0 REVERT JUMPDEST POP POP POP POP PUSH1 0x40 MLOAD RETURNDATASIZE PUSH1 0x1F NOT PUSH1 0x1F DUP3 ADD AND DUP3 ADD DUP1 PUSH1 0x40 MSTORE POP DUP2 ADD SWAP1 PUSH2 0x4409 SWAP2 SWAP1 PUSH2 0x82D5 JUMP JUMPDEST PUSH1 0xD PUSH1 0x0 PUSH2 0x100 EXP DUP2 SLOAD DUP2 PUSH20 0xFFFFFFFFFFFFFFFFFFFFFFFFFFFFFFFFFFFFFFFF MUL NOT AND SWAP1 DUP4 PUSH20 0xFFFFFFFFFFFFFFFFFFFFFFFFFFFFFFFFFFFFFFFF AND MUL OR SWAP1 SSTORE POP PUSH1 0x0 PUSH20 0xFFFFFFFFFFFFFFFFFFFFFFFFFFFFFFFFFFFFFFFF AND PUSH1 0xD PUSH1 0x0 SWAP1 SLOAD SWAP1 PUSH2 0x100 EXP SWAP1 DIV PUSH20 0xFFFFFFFFFFFFFFFFFFFFFFFFFFFFFFFFFFFFFFFF AND PUSH20 0xFFFFFFFFFFFFFFFFFFFFFFFFFFFFFFFFFFFFFFFF AND EQ ISZERO PUSH2 0x460D JUMPI PUSH1 0xE PUSH1 0x0 SWAP1 SLOAD SWAP1 PUSH2 0x100 EXP SWAP1 DIV PUSH20 0xFFFFFFFFFFFFFFFFFFFFFFFFFFFFFFFFFFFFFFFF AND PUSH20 0xFFFFFFFFFFFFFFFFFFFFFFFFFFFFFFFFFFFFFFFF AND PUSH4 0xC45A0155 PUSH1 0x40 MLOAD DUP2 PUSH4 0xFFFFFFFF AND PUSH1 0xE0 SHL DUP2 MSTORE PUSH1 0x4 ADD PUSH1 0x20 PUSH1 0x40 MLOAD DUP1 DUP4 SUB DUP2 DUP7 DUP1 EXTCODESIZE ISZERO DUP1 ISZERO PUSH2 0x4508 JUMPI PUSH1 0x0 DUP1 REVERT JUMPDEST POP GAS STATICCALL ISZERO DUP1 ISZERO PUSH2 0x451C JUMPI RETURNDATASIZE PUSH1 0x0 DUP1 RETURNDATACOPY RETURNDATASIZE PUSH1 0x0 REVERT JUMPDEST POP POP POP POP PUSH1 0x40 MLOAD RETURNDATASIZE PUSH1 0x1F NOT PUSH1 0x1F DUP3 ADD AND DUP3 ADD DUP1 PUSH1 0x40 MSTORE POP DUP2 ADD SWAP1 PUSH2 0x4540 SWAP2 SWAP1 PUSH2 0x82D5 JUMP JUMPDEST PUSH20 0xFFFFFFFFFFFFFFFFFFFFFFFFFFFFFFFFFFFFFFFF AND PUSH4 0xC9C65396 ADDRESS DUP5 PUSH1 0x40 MLOAD DUP4 PUSH4 0xFFFFFFFF AND PUSH1 0xE0 SHL DUP2 MSTORE PUSH1 0x4 ADD PUSH2 0x457A SWAP3 SWAP2 SWAP1 PUSH2 0x8D49 JUMP JUMPDEST PUSH1 0x20 PUSH1 0x40 MLOAD DUP1 DUP4 SUB DUP2 PUSH1 0x0 DUP8 DUP1 EXTCODESIZE ISZERO DUP1 ISZERO PUSH2 0x4594 JUMPI PUSH1 0x0 DUP1 REVERT JUMPDEST POP GAS CALL ISZERO DUP1 ISZERO PUSH2 0x45A8 JUMPI RETURNDATASIZE PUSH1 0x0 DUP1 RETURNDATACOPY RETURNDATASIZE PUSH1 0x0 REVERT JUMPDEST POP POP POP POP PUSH1 0x40 MLOAD RETURNDATASIZE PUSH1 0x1F NOT PUSH1 0x1F DUP3 ADD AND DUP3 ADD DUP1 PUSH1 0x40 MSTORE POP DUP2 ADD SWAP1 PUSH2 0x45CC SWAP2 SWAP1 PUSH2 0x82D5 JUMP JUMPDEST PUSH1 0xD PUSH1 0x0 PUSH2 0x100 EXP DUP2 SLOAD DUP2 PUSH20 0xFFFFFFFFFFFFFFFFFFFFFFFFFFFFFFFFFFFFFFFF MUL NOT AND SWAP1 DUP4 PUSH20 0xFFFFFFFFFFFFFFFFFFFFFFFFFFFFFFFFFFFFFFFF AND MUL OR SWAP1 SSTORE POP JUMPDEST PUSH2 0x4638 PUSH1 0xD PUSH1 0x0 SWAP1 SLOAD SWAP1 PUSH2 0x100 EXP SWAP1 DIV PUSH20 0xFFFFFFFFFFFFFFFFFFFFFFFFFFFFFFFFFFFFFFFF AND PUSH2 0x34C2 JUMP JUMPDEST PUSH1 0xD PUSH1 0x0 SWAP1 SLOAD SWAP1 PUSH2 0x100 EXP SWAP1 DIV PUSH20 0xFFFFFFFFFFFFFFFFFFFFFFFFFFFFFFFFFFFFFFFF AND PUSH20 0xFFFFFFFFFFFFFFFFFFFFFFFFFFFFFFFFFFFFFFFF AND CALLER PUSH20 0xFFFFFFFFFFFFFFFFFFFFFFFFFFFFFFFFFFFFFFFF AND PUSH32 0x6C587433DEA122B342B093ACB4DDE076CA1A441413E43A5A14DDE8A8842C9447 PUSH1 0x40 MLOAD PUSH1 0x40 MLOAD DUP1 SWAP2 SUB SWAP1 LOG3 PUSH2 0x46BD DUP2 PUSH2 0x46C1 JUMP JUMPDEST POP POP JUMP JUMPDEST CALLER PUSH20 0xFFFFFFFFFFFFFFFFFFFFFFFFFFFFFFFFFFFFFFFF AND PUSH2 0x46E0 PUSH2 0x3A51 JUMP JUMPDEST PUSH20 0xFFFFFFFFFFFFFFFFFFFFFFFFFFFFFFFFFFFFFFFF AND EQ DUP1 PUSH2 0x474F JUMPI POP CALLER PUSH20 0xFFFFFFFFFFFFFFFFFFFFFFFFFFFFFFFFFFFFFFFF AND PUSH1 0x8 PUSH1 0x0 SWAP1 SLOAD SWAP1 PUSH2 0x100 EXP SWAP1 DIV PUSH20 0xFFFFFFFFFFFFFFFFFFFFFFFFFFFFFFFFFFFFFFFF AND PUSH20 0xFFFFFFFFFFFFFFFFFFFFFFFFFFFFFFFFFFFFFFFF AND EQ JUMPDEST PUSH2 0x478E JUMPI PUSH1 0x40 MLOAD PUSH32 0x8C379A000000000000000000000000000000000000000000000000000000000 DUP2 MSTORE PUSH1 0x4 ADD PUSH2 0x4785 SWAP1 PUSH2 0x9302 JUMP JUMPDEST PUSH1 0x40 MLOAD DUP1 SWAP2 SUB SWAP1 REVERT JUMPDEST PUSH1 0x0 PUSH1 0x7 DUP3 PUSH1 0x40 MLOAD PUSH2 0x47A0 SWAP2 SWAP1 PUSH2 0x8D17 JUMP JUMPDEST SWAP1 DUP2 MSTORE PUSH1 0x20 ADD PUSH1 0x40 MLOAD DUP1 SWAP2 SUB SWAP1 KECCAK256 DUP2 SWAP1 SSTORE POP POP JUMP JUMPDEST CALLER PUSH20 0xFFFFFFFFFFFFFFFFFFFFFFFFFFFFFFFFFFFFFFFF AND PUSH2 0x47D4 PUSH2 0x3A51 JUMP JUMPDEST PUSH20 0xFFFFFFFFFFFFFFFFFFFFFFFFFFFFFFFFFFFFFFFF AND EQ DUP1 PUSH2 0x4843 JUMPI POP CALLER PUSH20 0xFFFFFFFFFFFFFFFFFFFFFFFFFFFFFFFFFFFFFFFF AND PUSH1 0x8 PUSH1 0x0 SWAP1 SLOAD SWAP1 PUSH2 0x100 EXP SWAP1 DIV PUSH20 0xFFFFFFFFFFFFFFFFFFFFFFFFFFFFFFFFFFFFFFFF AND PUSH20 0xFFFFFFFFFFFFFFFFFFFFFFFFFFFFFFFFFFFFFFFF AND EQ JUMPDEST PUSH2 0x4882 JUMPI PUSH1 0x40 MLOAD PUSH32 0x8C379A000000000000000000000000000000000000000000000000000000000 DUP2 MSTORE PUSH1 0x4 ADD PUSH2 0x4879 SWAP1 PUSH2 0x9302 JUMP JUMPDEST PUSH1 0x40 MLOAD DUP1 SWAP2 SUB SWAP1 REVERT JUMPDEST PUSH1 0x0 PUSH1 0xF PUSH1 0x0 DUP4 PUSH20 0xFFFFFFFFFFFFFFFFFFFFFFFFFFFFFFFFFFFFFFFF AND PUSH20 0xFFFFFFFFFFFFFFFFFFFFFFFFFFFFFFFFFFFFFFFF AND DUP2 MSTORE PUSH1 0x20 ADD SWAP1 DUP2 MSTORE PUSH1 0x20 ADD PUSH1 0x0 KECCAK256 PUSH1 0x0 PUSH2 0x100 EXP DUP2 SLOAD DUP2 PUSH1 0xFF MUL NOT AND SWAP1 DUP4 ISZERO ISZERO MUL OR SWAP1 SSTORE POP PUSH1 0x0 PUSH1 0x10 PUSH1 0x0 DUP4 PUSH20 0xFFFFFFFFFFFFFFFFFFFFFFFFFFFFFFFFFFFFFFFF AND PUSH20 0xFFFFFFFFFFFFFFFFFFFFFFFFFFFFFFFFFFFFFFFF AND DUP2 MSTORE PUSH1 0x20 ADD SWAP1 DUP2 MSTORE PUSH1 0x20 ADD PUSH1 0x0 KECCAK256 PUSH1 0x0 PUSH2 0x100 EXP DUP2 SLOAD DUP2 PUSH1 0xFF MUL NOT AND SWAP1 DUP4 ISZERO ISZERO MUL OR SWAP1 SSTORE POP POP JUMP JUMPDEST PUSH1 0x6 PUSH1 0x14 SWAP1 SLOAD SWAP1 PUSH2 0x100 EXP SWAP1 DIV PUSH1 0xFF AND DUP2 JUMP JUMPDEST PUSH1 0xB PUSH1 0x0 SWAP1 SLOAD SWAP1 PUSH2 0x100 EXP SWAP1 DIV PUSH20 0xFFFFFFFFFFFFFFFFFFFFFFFFFFFFFFFFFFFFFFFF AND DUP2 JUMP JUMPDEST PUSH1 0x0 DUP1 PUSH1 0x1 PUSH1 0x0 PUSH2 0x497D PUSH2 0x63F7 JUMP JUMPDEST PUSH20 0xFFFFFFFFFFFFFFFFFFFFFFFFFFFFFFFFFFFFFFFF AND PUSH20 0xFFFFFFFFFFFFFFFFFFFFFFFFFFFFFFFFFFFFFFFF AND DUP2 MSTORE PUSH1 0x20 ADD SWAP1 DUP2 MSTORE PUSH1 0x20 ADD PUSH1 0x0 KECCAK256 PUSH1 0x0 DUP6 PUSH20 0xFFFFFFFFFFFFFFFFFFFFFFFFFFFFFFFFFFFFFFFF AND PUSH20 0xFFFFFFFFFFFFFFFFFFFFFFFFFFFFFFFFFFFFFFFF AND DUP2 MSTORE PUSH1 0x20 ADD SWAP1 DUP2 MSTORE PUSH1 0x20 ADD PUSH1 0x0 KECCAK256 SLOAD SWAP1 POP DUP3 DUP2 LT ISZERO PUSH2 0x4A3A JUMPI PUSH1 0x40 MLOAD PUSH32 0x8C379A000000000000000000000000000000000000000000000000000000000 DUP2 MSTORE PUSH1 0x4 ADD PUSH2 0x4A31 SWAP1 PUSH2 0x9482 JUMP JUMPDEST PUSH1 0x40 MLOAD DUP1 SWAP2 SUB SWAP1 REVERT JUMPDEST PUSH2 0x4A4E PUSH2 0x4A45 PUSH2 0x63F7 JUMP JUMPDEST DUP6 DUP6 DUP5 SUB PUSH2 0x63FF JUMP JUMPDEST PUSH1 0x1 SWAP2 POP POP SWAP3 SWAP2 POP POP JUMP JUMPDEST PUSH1 0xC PUSH1 0x0 SWAP1 SLOAD SWAP1 PUSH2 0x100 EXP SWAP1 DIV PUSH20 0xFFFFFFFFFFFFFFFFFFFFFFFFFFFFFFFFFFFFFFFF AND DUP2 JUMP JUMPDEST CALLER PUSH20 0xFFFFFFFFFFFFFFFFFFFFFFFFFFFFFFFFFFFFFFFF AND PUSH2 0x4A9E PUSH2 0x3A51 JUMP JUMPDEST PUSH20 0xFFFFFFFFFFFFFFFFFFFFFFFFFFFFFFFFFFFFFFFF AND EQ DUP1 PUSH2 0x4B0D JUMPI POP CALLER PUSH20 0xFFFFFFFFFFFFFFFFFFFFFFFFFFFFFFFFFFFFFFFF AND PUSH1 0x8 PUSH1 0x0 SWAP1 SLOAD SWAP1 PUSH2 0x100 EXP SWAP1 DIV PUSH20 0xFFFFFFFFFFFFFFFFFFFFFFFFFFFFFFFFFFFFFFFF AND PUSH20 0xFFFFFFFFFFFFFFFFFFFFFFFFFFFFFFFFFFFFFFFF AND EQ JUMPDEST PUSH2 0x4B4C JUMPI PUSH1 0x40 MLOAD PUSH32 0x8C379A000000000000000000000000000000000000000000000000000000000 DUP2 MSTORE PUSH1 0x4 ADD PUSH2 0x4B43 SWAP1 PUSH2 0x9302 JUMP JUMPDEST PUSH1 0x40 MLOAD DUP1 SWAP2 SUB SWAP1 REVERT JUMPDEST PUSH3 0x15180 TIMESTAMP PUSH2 0x4B5B SWAP2 SWAP1 PUSH2 0x9708 JUMP JUMPDEST PUSH1 0x7 DUP3 PUSH1 0x40 MLOAD PUSH2 0x4B6B SWAP2 SWAP1 PUSH2 0x8D17 JUMP JUMPDEST SWAP1 DUP2 MSTORE PUSH1 0x20 ADD PUSH1 0x40 MLOAD DUP1 SWAP2 SUB SWAP1 KECCAK256 DUP2 SWAP1 SSTORE POP PUSH1 0x7 DUP2 PUSH1 0x40 MLOAD PUSH2 0x4B8D SWAP2 SWAP1 PUSH2 0x8D17 JUMP JUMPDEST SWAP1 DUP2 MSTORE PUSH1 0x20 ADD PUSH1 0x40 MLOAD DUP1 SWAP2 SUB SWAP1 KECCAK256 SLOAD DUP2 PUSH1 0x40 MLOAD PUSH2 0x4BAA SWAP2 SWAP1 PUSH2 0x8D17 JUMP JUMPDEST PUSH1 0x40 MLOAD DUP1 SWAP2 SUB SWAP1 KECCAK256 PUSH32 0xF77F9A799FE8B0BE1463ABD7459A18FC55DFD8A6A24DDD29B54FD098088089C8 PUSH1 0x40 MLOAD PUSH1 0x40 MLOAD DUP1 SWAP2 SUB SWAP1 LOG3 POP JUMP JUMPDEST PUSH1 0x0 PUSH2 0x4BF5 PUSH2 0x4BEE PUSH2 0x63F7 JUMP JUMPDEST DUP5 DUP5 PUSH2 0x66CA JUMP JUMPDEST PUSH1 0x1 SWAP1 POP SWAP3 SWAP2 POP POP JUMP JUMPDEST PUSH1 0xF PUSH1 0x20 MSTORE DUP1 PUSH1 0x0 MSTORE PUSH1 0x40 PUSH1 0x0 KECCAK256 PUSH1 0x0 SWAP2 POP SLOAD SWAP1 PUSH2 0x100 EXP SWAP1 DIV PUSH1 0xFF AND DUP2 JUMP JUMPDEST CALLER PUSH20 0xFFFFFFFFFFFFFFFFFFFFFFFFFFFFFFFFFFFFFFFF AND PUSH2 0x4C3E PUSH2 0x3A51 JUMP JUMPDEST PUSH20 0xFFFFFFFFFFFFFFFFFFFFFFFFFFFFFFFFFFFFFFFF AND EQ DUP1 PUSH2 0x4CAD JUMPI POP CALLER PUSH20 0xFFFFFFFFFFFFFFFFFFFFFFFFFFFFFFFFFFFFFFFF AND PUSH1 0x8 PUSH1 0x0 SWAP1 SLOAD SWAP1 PUSH2 0x100 EXP SWAP1 DIV PUSH20 0xFFFFFFFFFFFFFFFFFFFFFFFFFFFFFFFFFFFFFFFF AND PUSH20 0xFFFFFFFFFFFFFFFFFFFFFFFFFFFFFFFFFFFFFFFF AND EQ JUMPDEST PUSH2 0x4CEC JUMPI PUSH1 0x40 MLOAD PUSH32 0x8C379A000000000000000000000000000000000000000000000000000000000 DUP2 MSTORE PUSH1 0x4 ADD PUSH2 0x4CE3 SWAP1 PUSH2 0x9302 JUMP JUMPDEST PUSH1 0x40 MLOAD DUP1 SWAP2 SUB SWAP1 REVERT JUMPDEST PUSH1 0x40 MLOAD DUP1 PUSH1 0x40 ADD PUSH1 0x40 MSTORE DUP1 PUSH1 0x7 DUP2 MSTORE PUSH1 0x20 ADD PUSH32 0x6D61785F74617800000000000000000000000000000000000000000000000000 DUP2 MSTORE POP PUSH1 0x6 PUSH1 0x14 SWAP1 SLOAD SWAP1 PUSH2 0x100 EXP SWAP1 DIV PUSH1 0xFF AND ISZERO DUP1 PUSH2 0x4DBF JUMPI POP PUSH1 0x0 PUSH1 0x7 DUP3 PUSH1 0x40 MLOAD PUSH2 0x4D4B SWAP2 SWAP1 PUSH2 0x8D17 JUMP JUMPDEST SWAP1 DUP2 MSTORE PUSH1 0x20 ADD PUSH1 0x40 MLOAD DUP1 SWAP2 SUB SWAP1 KECCAK256 SLOAD EQ ISZERO DUP1 ISZERO PUSH2 0x4D86 JUMPI POP TIMESTAMP PUSH1 0x7 DUP3 PUSH1 0x40 MLOAD PUSH2 0x4D74 SWAP2 SWAP1 PUSH2 0x8D17 JUMP JUMPDEST SWAP1 DUP2 MSTORE PUSH1 0x20 ADD PUSH1 0x40 MLOAD DUP1 SWAP2 SUB SWAP1 KECCAK256 SLOAD GT ISZERO JUMPDEST DUP1 ISZERO PUSH2 0x4DBE JUMPI POP TIMESTAMP PUSH3 0x15180 PUSH1 0x7 DUP4 PUSH1 0x40 MLOAD PUSH2 0x4DA2 SWAP2 SWAP1 PUSH2 0x8D17 JUMP JUMPDEST SWAP1 DUP2 MSTORE PUSH1 0x20 ADD PUSH1 0x40 MLOAD DUP1 SWAP2 SUB SWAP1 KECCAK256 SLOAD PUSH2 0x4DBB SWAP2 SWAP1 PUSH2 0x9708 JUMP JUMPDEST LT ISZERO JUMPDEST JUMPDEST PUSH2 0x4DFE JUMPI PUSH1 0x40 MLOAD PUSH32 0x8C379A000000000000000000000000000000000000000000000000000000000 DUP2 MSTORE PUSH1 0x4 ADD PUSH2 0x4DF5 SWAP1 PUSH2 0x92A2 JUMP JUMPDEST PUSH1 0x40 MLOAD DUP1 SWAP2 SUB SWAP1 REVERT JUMPDEST PUSH1 0x8 PUSH1 0x14 SWAP1 SLOAD SWAP1 PUSH2 0x100 EXP SWAP1 DIV PUSH2 0xFFFF AND PUSH2 0xFFFF AND DUP3 PUSH2 0xFFFF AND LT ISZERO PUSH2 0x4E59 JUMPI PUSH1 0x40 MLOAD PUSH32 0x8C379A000000000000000000000000000000000000000000000000000000000 DUP2 MSTORE PUSH1 0x4 ADD PUSH2 0x4E50 SWAP1 PUSH2 0x8FA2 JUMP JUMPDEST PUSH1 0x40 MLOAD DUP1 SWAP2 SUB SWAP1 REVERT JUMPDEST PUSH2 0x3E8 PUSH2 0xFFFF AND DUP3 PUSH2 0xFFFF AND GT ISZERO PUSH2 0x4EA6 JUMPI PUSH1 0x40 MLOAD PUSH32 0x8C379A000000000000000000000000000000000000000000000000000000000 DUP2 MSTORE PUSH1 0x4 ADD PUSH2 0x4E9D SWAP1 PUSH2 0x91A2 JUMP JUMPDEST PUSH1 0x40 MLOAD DUP1 SWAP2 SUB SWAP1 REVERT JUMPDEST CALLER PUSH20 0xFFFFFFFFFFFFFFFFFFFFFFFFFFFFFFFFFFFFFFFF AND PUSH32 0xFC18B74E18E9BF8100CA625DE9F64C93E88284A81D82C9EDFC899869F34B506F PUSH1 0x8 PUSH1 0x14 SWAP1 SLOAD SWAP1 PUSH2 0x100 EXP SWAP1 DIV PUSH2 0xFFFF AND DUP5 PUSH1 0x40 MLOAD PUSH2 0x4EFE SWAP3 SWAP2 SWAP1 PUSH2 0x94DD JUMP JUMPDEST PUSH1 0x40 MLOAD DUP1 SWAP2 SUB SWAP1 LOG2 DUP2 PUSH1 0x8 PUSH1 0x16 PUSH2 0x100 EXP DUP2 SLOAD DUP2 PUSH2 0xFFFF MUL NOT AND SWAP1 DUP4 PUSH2 0xFFFF AND MUL OR SWAP1 SSTORE POP PUSH2 0x4F2C DUP2 PUSH2 0x46C1 JUMP JUMPDEST POP POP JUMP JUMPDEST PUSH1 0x0 PUSH1 0x8 PUSH1 0x14 SWAP1 SLOAD SWAP1 PUSH2 0x100 EXP SWAP1 DIV PUSH2 0xFFFF AND SWAP1 POP PUSH1 0x0 PUSH1 0x8 PUSH1 0x16 SWAP1 SLOAD SWAP1 PUSH2 0x100 EXP SWAP1 DIV PUSH2 0xFFFF AND SWAP1 POP PUSH1 0x0 PUSH1 0x8 PUSH1 0x14 PUSH2 0x100 EXP DUP2 SLOAD DUP2 PUSH2 0xFFFF MUL NOT AND SWAP1 DUP4 PUSH2 0xFFFF AND MUL OR SWAP1 SSTORE POP PUSH1 0x0 PUSH1 0x8 PUSH1 0x16 PUSH2 0x100 EXP DUP2 SLOAD DUP2 PUSH2 0xFFFF MUL NOT AND SWAP1 DUP4 PUSH2 0xFFFF AND MUL OR SWAP1 SSTORE POP PUSH1 0x8 PUSH1 0x1E SWAP1 SLOAD SWAP1 PUSH2 0x100 EXP SWAP1 DIV PUSH1 0xFF AND ISZERO PUSH2 0x4FB0 JUMPI PUSH2 0x54B9 JUMP JUMPDEST PUSH1 0x1 PUSH1 0x8 PUSH1 0x1E PUSH2 0x100 EXP DUP2 SLOAD DUP2 PUSH1 0xFF MUL NOT AND SWAP1 DUP4 ISZERO ISZERO MUL OR SWAP1 SSTORE POP PUSH1 0x0 PUSH2 0x4FD6 ADDRESS PUSH2 0x30DE JUMP JUMPDEST SWAP1 POP PUSH1 0x9 SLOAD DUP2 LT PUSH2 0x549C JUMPI PUSH1 0x0 PUSH1 0xD PUSH1 0x0 SWAP1 SLOAD SWAP1 PUSH2 0x100 EXP SWAP1 DIV PUSH20 0xFFFFFFFFFFFFFFFFFFFFFFFFFFFFFFFFFFFFFFFF AND SWAP1 POP PUSH1 0x0 PUSH2 0x5046 PUSH1 0x64 PUSH2 0x5038 PUSH1 0x8 PUSH1 0x1A SWAP1 SLOAD SWAP1 PUSH2 0x100 EXP SWAP1 DIV PUSH2 0xFFFF AND PUSH2 0xFFFF AND PUSH1 0x9 SLOAD PUSH2 0x7562 SWAP1 SWAP2 SWAP1 PUSH4 0xFFFFFFFF AND JUMP JUMPDEST PUSH2 0x7578 SWAP1 SWAP2 SWAP1 PUSH4 0xFFFFFFFF AND JUMP JUMPDEST SWAP1 POP PUSH1 0x0 PUSH2 0x5086 PUSH1 0x64 PUSH2 0x5078 PUSH1 0x8 PUSH1 0x1C SWAP1 SLOAD SWAP1 PUSH2 0x100 EXP SWAP1 DIV PUSH2 0xFFFF AND PUSH2 0xFFFF AND PUSH1 0x9 SLOAD PUSH2 0x7562 SWAP1 SWAP2 SWAP1 PUSH4 0xFFFFFFFF AND JUMP JUMPDEST PUSH2 0x7578 SWAP1 SWAP2 SWAP1 PUSH4 0xFFFFFFFF AND JUMP JUMPDEST SWAP1 POP PUSH1 0x0 PUSH2 0x50C4 PUSH1 0x2 PUSH2 0x50B6 DUP5 PUSH2 0x50A8 DUP8 PUSH1 0x9 SLOAD PUSH2 0x7310 SWAP1 SWAP2 SWAP1 PUSH4 0xFFFFFFFF AND JUMP JUMPDEST PUSH2 0x7310 SWAP1 SWAP2 SWAP1 PUSH4 0xFFFFFFFF AND JUMP JUMPDEST PUSH2 0x7578 SWAP1 SWAP2 SWAP1 PUSH4 0xFFFFFFFF AND JUMP JUMPDEST SWAP1 POP PUSH1 0x0 PUSH2 0x50DD DUP3 PUSH1 0x9 SLOAD PUSH2 0x7310 SWAP1 SWAP2 SWAP1 PUSH4 0xFFFFFFFF AND JUMP JUMPDEST SWAP1 POP PUSH1 0x0 DUP6 PUSH20 0xFFFFFFFFFFFFFFFFFFFFFFFFFFFFFFFFFFFFFFFF AND PUSH4 0xDFE1681 PUSH1 0x40 MLOAD DUP2 PUSH4 0xFFFFFFFF AND PUSH1 0xE0 SHL DUP2 MSTORE PUSH1 0x4 ADD PUSH1 0x20 PUSH1 0x40 MLOAD DUP1 DUP4 SUB DUP2 DUP7 DUP1 EXTCODESIZE ISZERO DUP1 ISZERO PUSH2 0x5127 JUMPI PUSH1 0x0 DUP1 REVERT JUMPDEST POP GAS STATICCALL ISZERO DUP1 ISZERO PUSH2 0x513B JUMPI RETURNDATASIZE PUSH1 0x0 DUP1 RETURNDATACOPY RETURNDATASIZE PUSH1 0x0 REVERT JUMPDEST POP POP POP POP PUSH1 0x40 MLOAD RETURNDATASIZE PUSH1 0x1F NOT PUSH1 0x1F DUP3 ADD AND DUP3 ADD DUP1 PUSH1 0x40 MSTORE POP DUP2 ADD SWAP1 PUSH2 0x515F SWAP2 SWAP1 PUSH2 0x82D5 JUMP JUMPDEST SWAP1 POP PUSH1 0x0 DUP7 PUSH20 0xFFFFFFFFFFFFFFFFFFFFFFFFFFFFFFFFFFFFFFFF AND PUSH4 0xD21220A7 PUSH1 0x40 MLOAD DUP2 PUSH4 0xFFFFFFFF AND PUSH1 0xE0 SHL DUP2 MSTORE PUSH1 0x4 ADD PUSH1 0x20 PUSH1 0x40 MLOAD DUP1 DUP4 SUB DUP2 DUP7 DUP1 EXTCODESIZE ISZERO DUP1 ISZERO PUSH2 0x51A9 JUMPI PUSH1 0x0 DUP1 REVERT JUMPDEST POP GAS STATICCALL ISZERO DUP1 ISZERO PUSH2 0x51BD JUMPI RETURNDATASIZE PUSH1 0x0 DUP1 RETURNDATACOPY RETURNDATASIZE PUSH1 0x0 REVERT JUMPDEST POP POP POP POP PUSH1 0x40 MLOAD RETURNDATASIZE PUSH1 0x1F NOT PUSH1 0x1F DUP3 ADD AND DUP3 ADD DUP1 PUSH1 0x40 MSTORE POP DUP2 ADD SWAP1 PUSH2 0x51E1 SWAP2 SWAP1 PUSH2 0x82D5 JUMP JUMPDEST SWAP1 POP DUP1 PUSH20 0xFFFFFFFFFFFFFFFFFFFFFFFFFFFFFFFFFFFFFFFF AND DUP3 PUSH20 0xFFFFFFFFFFFFFFFFFFFFFFFFFFFFFFFFFFFFFFFF AND EQ ISZERO PUSH2 0x5252 JUMPI PUSH1 0x40 MLOAD PUSH32 0x8C379A000000000000000000000000000000000000000000000000000000000 DUP2 MSTORE PUSH1 0x4 ADD PUSH2 0x5249 SWAP1 PUSH2 0x9042 JUMP JUMPDEST PUSH1 0x40 MLOAD DUP1 SWAP2 SUB SWAP1 REVERT JUMPDEST PUSH1 0x0 PUSH1 0xE PUSH1 0x0 SWAP1 SLOAD SWAP1 PUSH2 0x100 EXP SWAP1 DIV PUSH20 0xFFFFFFFFFFFFFFFFFFFFFFFFFFFFFFFFFFFFFFFF AND PUSH20 0xFFFFFFFFFFFFFFFFFFFFFFFFFFFFFFFFFFFFFFFF AND PUSH4 0xAD5C4648 PUSH1 0x40 MLOAD DUP2 PUSH4 0xFFFFFFFF AND PUSH1 0xE0 SHL DUP2 MSTORE PUSH1 0x4 ADD PUSH1 0x20 PUSH1 0x40 MLOAD DUP1 DUP4 SUB DUP2 DUP7 DUP1 EXTCODESIZE ISZERO DUP1 ISZERO PUSH2 0x52BC JUMPI PUSH1 0x0 DUP1 REVERT JUMPDEST POP GAS STATICCALL ISZERO DUP1 ISZERO PUSH2 0x52D0 JUMPI RETURNDATASIZE PUSH1 0x0 DUP1 RETURNDATACOPY RETURNDATASIZE PUSH1 0x0 REVERT JUMPDEST POP POP POP POP PUSH1 0x40 MLOAD RETURNDATASIZE PUSH1 0x1F NOT PUSH1 0x1F DUP3 ADD AND DUP3 ADD DUP1 PUSH1 0x40 MSTORE POP DUP2 ADD SWAP1 PUSH2 0x52F4 SWAP2 SWAP1 PUSH2 0x82D5 JUMP JUMPDEST PUSH20 0xFFFFFFFFFFFFFFFFFFFFFFFFFFFFFFFFFFFFFFFF AND DUP4 PUSH20 0xFFFFFFFFFFFFFFFFFFFFFFFFFFFFFFFFFFFFFFFF AND EQ DUP1 PUSH2 0x53F7 JUMPI POP PUSH1 0xE PUSH1 0x0 SWAP1 SLOAD SWAP1 PUSH2 0x100 EXP SWAP1 DIV PUSH20 0xFFFFFFFFFFFFFFFFFFFFFFFFFFFFFFFFFFFFFFFF AND PUSH20 0xFFFFFFFFFFFFFFFFFFFFFFFFFFFFFFFFFFFFFFFF AND PUSH4 0xAD5C4648 PUSH1 0x40 MLOAD DUP2 PUSH4 0xFFFFFFFF AND PUSH1 0xE0 SHL DUP2 MSTORE PUSH1 0x4 ADD PUSH1 0x20 PUSH1 0x40 MLOAD DUP1 DUP4 SUB DUP2 DUP7 DUP1 EXTCODESIZE ISZERO DUP1 ISZERO PUSH2 0x5390 JUMPI PUSH1 0x0 DUP1 REVERT JUMPDEST POP GAS STATICCALL ISZERO DUP1 ISZERO PUSH2 0x53A4 JUMPI RETURNDATASIZE PUSH1 0x0 DUP1 RETURNDATACOPY RETURNDATASIZE PUSH1 0x0 REVERT JUMPDEST POP POP POP POP PUSH1 0x40 MLOAD RETURNDATASIZE PUSH1 0x1F NOT PUSH1 0x1F DUP3 ADD AND DUP3 ADD DUP1 PUSH1 0x40 MSTORE POP DUP2 ADD SWAP1 PUSH2 0x53C8 SWAP2 SWAP1 PUSH2 0x82D5 JUMP JUMPDEST PUSH20 0xFFFFFFFFFFFFFFFFFFFFFFFFFFFFFFFFFFFFFFFF AND DUP3 PUSH20 0xFFFFFFFFFFFFFFFFFFFFFFFFFFFFFFFFFFFFFFFF AND EQ JUMPDEST SWAP1 POP PUSH1 0x0 DUP2 ISZERO PUSH2 0x5410 JUMPI PUSH2 0x540B DUP6 DUP8 PUSH2 0x758E JUMP JUMPDEST PUSH2 0x5457 JUMP JUMPDEST PUSH2 0x5456 ADDRESS PUSH20 0xFFFFFFFFFFFFFFFFFFFFFFFFFFFFFFFFFFFFFFFF AND DUP6 PUSH20 0xFFFFFFFFFFFFFFFFFFFFFFFFFFFFFFFFFFFFFFFF AND EQ ISZERO PUSH2 0x544D JUMPI DUP4 PUSH2 0x544F JUMP JUMPDEST DUP5 JUMPDEST DUP7 DUP9 PUSH2 0x75B4 JUMP JUMPDEST JUMPDEST PUSH32 0x17BBFB9A6069321B6DED73BD96327C9E6B7212A5CD51FF219CD61370ACAFB561 DUP6 DUP3 DUP9 PUSH1 0x40 MLOAD PUSH2 0x548A SWAP4 SWAP3 SWAP2 SWAP1 PUSH2 0x95B2 JUMP JUMPDEST PUSH1 0x40 MLOAD DUP1 SWAP2 SUB SWAP1 LOG1 POP POP POP POP POP POP POP POP POP JUMPDEST PUSH1 0x0 PUSH1 0x8 PUSH1 0x1E PUSH2 0x100 EXP DUP2 SLOAD DUP2 PUSH1 0xFF MUL NOT AND SWAP1 DUP4 ISZERO ISZERO MUL OR SWAP1 SSTORE POP POP JUMPDEST DUP2 PUSH1 0x8 PUSH1 0x14 PUSH2 0x100 EXP DUP2 SLOAD DUP2 PUSH2 0xFFFF MUL NOT AND SWAP1 DUP4 PUSH2 0xFFFF AND MUL OR SWAP1 SSTORE POP DUP1 PUSH1 0x8 PUSH1 0x16 PUSH2 0x100 EXP DUP2 SLOAD DUP2 PUSH2 0xFFFF MUL NOT AND SWAP1 DUP4 PUSH2 0xFFFF AND MUL OR SWAP1 SSTORE POP POP POP JUMP JUMPDEST PUSH1 0x0 PUSH1 0xF PUSH1 0x0 DUP4 PUSH20 0xFFFFFFFFFFFFFFFFFFFFFFFFFFFFFFFFFFFFFFFF AND PUSH20 0xFFFFFFFFFFFFFFFFFFFFFFFFFFFFFFFFFFFFFFFF AND DUP2 MSTORE PUSH1 0x20 ADD SWAP1 DUP2 MSTORE PUSH1 0x20 ADD PUSH1 0x0 KECCAK256 PUSH1 0x0 SWAP1 SLOAD SWAP1 PUSH2 0x100 EXP SWAP1 DIV PUSH1 0xFF AND SWAP1 POP SWAP2 SWAP1 POP JUMP JUMPDEST CALLER PUSH20 0xFFFFFFFFFFFFFFFFFFFFFFFFFFFFFFFFFFFFFFFF AND PUSH2 0x556C PUSH2 0x3A51 JUMP JUMPDEST PUSH20 0xFFFFFFFFFFFFFFFFFFFFFFFFFFFFFFFFFFFFFFFF AND EQ DUP1 PUSH2 0x55DB JUMPI POP CALLER PUSH20 0xFFFFFFFFFFFFFFFFFFFFFFFFFFFFFFFFFFFFFFFF AND PUSH1 0x8 PUSH1 0x0 SWAP1 SLOAD SWAP1 PUSH2 0x100 EXP SWAP1 DIV PUSH20 0xFFFFFFFFFFFFFFFFFFFFFFFFFFFFFFFFFFFFFFFF AND PUSH20 0xFFFFFFFFFFFFFFFFFFFFFFFFFFFFFFFFFFFFFFFF AND EQ JUMPDEST PUSH2 0x561A JUMPI PUSH1 0x40 MLOAD PUSH32 0x8C379A000000000000000000000000000000000000000000000000000000000 DUP2 MSTORE PUSH1 0x4 ADD PUSH2 0x5611 SWAP1 PUSH2 0x9302 JUMP JUMPDEST PUSH1 0x40 MLOAD DUP1 SWAP2 SUB SWAP1 REVERT JUMPDEST PUSH1 0xA DUP2 PUSH2 0xFFFF AND GT PUSH2 0x5661 JUMPI PUSH1 0x40 MLOAD PUSH32 0x8C379A000000000000000000000000000000000000000000000000000000000 DUP2 MSTORE PUSH1 0x4 ADD PUSH2 0x5658 SWAP1 PUSH2 0x9142 JUMP JUMPDEST PUSH1 0x40 MLOAD DUP1 SWAP2 SUB SWAP1 REVERT JUMPDEST PUSH1 0x0 PUSH1 0x12 PUSH1 0x2 SWAP1 SLOAD SWAP1 PUSH2 0x100 EXP SWAP1 DIV PUSH2 0xFFFF AND SWAP1 POP DUP2 PUSH1 0x12 PUSH1 0x2 PUSH2 0x100 EXP DUP2 SLOAD DUP2 PUSH2 0xFFFF MUL NOT AND SWAP1 DUP4 PUSH2 0xFFFF AND MUL OR SWAP1 SSTORE POP PUSH1 0x12 PUSH1 0x2 SWAP1 SLOAD SWAP1 PUSH2 0x100 EXP SWAP1 DIV PUSH2 0xFFFF AND PUSH2 0xFFFF AND DUP2 PUSH2 0xFFFF AND PUSH32 0x8F171BB23056CCED8A730912E267DBF04C43510F33032F06A749B0CCDC8587B4 PUSH1 0x40 MLOAD PUSH1 0x40 MLOAD DUP1 SWAP2 SUB SWAP1 LOG3 POP POP JUMP JUMPDEST CALLER PUSH20 0xFFFFFFFFFFFFFFFFFFFFFFFFFFFFFFFFFFFFFFFF AND PUSH2 0x56FC PUSH2 0x3A51 JUMP JUMPDEST PUSH20 0xFFFFFFFFFFFFFFFFFFFFFFFFFFFFFFFFFFFFFFFF AND EQ DUP1 PUSH2 0x576B JUMPI POP CALLER PUSH20 0xFFFFFFFFFFFFFFFFFFFFFFFFFFFFFFFFFFFFFFFF AND PUSH1 0x8 PUSH1 0x0 SWAP1 SLOAD SWAP1 PUSH2 0x100 EXP SWAP1 DIV PUSH20 0xFFFFFFFFFFFFFFFFFFFFFFFFFFFFFFFFFFFFFFFF AND PUSH20 0xFFFFFFFFFFFFFFFFFFFFFFFFFFFFFFFFFFFFFFFF AND EQ JUMPDEST PUSH2 0x57AA JUMPI PUSH1 0x40 MLOAD PUSH32 0x8C379A000000000000000000000000000000000000000000000000000000000 DUP2 MSTORE PUSH1 0x4 ADD PUSH2 0x57A1 SWAP1 PUSH2 0x9302 JUMP JUMPDEST PUSH1 0x40 MLOAD DUP1 SWAP2 SUB SWAP1 REVERT JUMPDEST PUSH1 0x40 MLOAD DUP1 PUSH1 0x40 ADD PUSH1 0x40 MSTORE DUP1 PUSH1 0x6 DUP2 MSTORE PUSH1 0x20 ADD PUSH32 0x726F757465720000000000000000000000000000000000000000000000000000 DUP2 MSTORE POP PUSH1 0x6 PUSH1 0x14 SWAP1 SLOAD SWAP1 PUSH2 0x100 EXP SWAP1 DIV PUSH1 0xFF AND ISZERO DUP1 PUSH2 0x587D JUMPI POP PUSH1 0x0 PUSH1 0x7 DUP3 PUSH1 0x40 MLOAD PUSH2 0x5809 SWAP2 SWAP1 PUSH2 0x8D17 JUMP JUMPDEST SWAP1 DUP2 MSTORE PUSH1 0x20 ADD PUSH1 0x40 MLOAD DUP1 SWAP2 SUB SWAP1 KECCAK256 SLOAD EQ ISZERO DUP1 ISZERO PUSH2 0x5844 JUMPI POP TIMESTAMP PUSH1 0x7 DUP3 PUSH1 0x40 MLOAD PUSH2 0x5832 SWAP2 SWAP1 PUSH2 0x8D17 JUMP JUMPDEST SWAP1 DUP2 MSTORE PUSH1 0x20 ADD PUSH1 0x40 MLOAD DUP1 SWAP2 SUB SWAP1 KECCAK256 SLOAD GT ISZERO JUMPDEST DUP1 ISZERO PUSH2 0x587C JUMPI POP TIMESTAMP PUSH3 0x15180 PUSH1 0x7 DUP4 PUSH1 0x40 MLOAD PUSH2 0x5860 SWAP2 SWAP1 PUSH2 0x8D17 JUMP JUMPDEST SWAP1 DUP2 MSTORE PUSH1 0x20 ADD PUSH1 0x40 MLOAD DUP1 SWAP2 SUB SWAP1 KECCAK256 SLOAD PUSH2 0x5879 SWAP2 SWAP1 PUSH2 0x9708 JUMP JUMPDEST LT ISZERO JUMPDEST JUMPDEST PUSH2 0x58BC JUMPI PUSH1 0x40 MLOAD PUSH32 0x8C379A000000000000000000000000000000000000000000000000000000000 DUP2 MSTORE PUSH1 0x4 ADD PUSH2 0x58B3 SWAP1 PUSH2 0x92A2 JUMP JUMPDEST PUSH1 0x40 MLOAD DUP1 SWAP2 SUB SWAP1 REVERT JUMPDEST DUP2 PUSH1 0xE PUSH1 0x0 PUSH2 0x100 EXP DUP2 SLOAD DUP2 PUSH20 0xFFFFFFFFFFFFFFFFFFFFFFFFFFFFFFFFFFFFFFFF MUL NOT AND SWAP1 DUP4 PUSH20 0xFFFFFFFFFFFFFFFFFFFFFFFFFFFFFFFFFFFFFFFF AND MUL OR SWAP1 SSTORE POP PUSH2 0x59A5 PUSH1 0xE PUSH1 0x0 SWAP1 SLOAD SWAP1 PUSH2 0x100 EXP SWAP1 DIV PUSH20 0xFFFFFFFFFFFFFFFFFFFFFFFFFFFFFFFFFFFFFFFF AND PUSH20 0xFFFFFFFFFFFFFFFFFFFFFFFFFFFFFFFFFFFFFFFF AND PUSH4 0xAD5C4648 PUSH1 0x40 MLOAD DUP2 PUSH4 0xFFFFFFFF AND PUSH1 0xE0 SHL DUP2 MSTORE PUSH1 0x4 ADD PUSH1 0x20 PUSH1 0x40 MLOAD DUP1 DUP4 SUB DUP2 DUP7 DUP1 EXTCODESIZE ISZERO DUP1 ISZERO PUSH2 0x5968 JUMPI PUSH1 0x0 DUP1 REVERT JUMPDEST POP GAS STATICCALL ISZERO DUP1 ISZERO PUSH2 0x597C JUMPI RETURNDATASIZE PUSH1 0x0 DUP1 RETURNDATACOPY RETURNDATASIZE PUSH1 0x0 REVERT JUMPDEST POP POP POP POP PUSH1 0x40 MLOAD RETURNDATASIZE PUSH1 0x1F NOT PUSH1 0x1F DUP3 ADD AND DUP3 ADD DUP1 PUSH1 0x40 MSTORE POP DUP2 ADD SWAP1 PUSH2 0x59A0 SWAP2 SWAP1 PUSH2 0x82D5 JUMP JUMPDEST PUSH2 0x4090 JUMP JUMPDEST PUSH2 0x59AE DUP3 PUSH2 0x34C2 JUMP JUMPDEST PUSH1 0xD PUSH1 0x0 SWAP1 SLOAD SWAP1 PUSH2 0x100 EXP SWAP1 DIV PUSH20 0xFFFFFFFFFFFFFFFFFFFFFFFFFFFFFFFFFFFFFFFF AND PUSH20 0xFFFFFFFFFFFFFFFFFFFFFFFFFFFFFFFFFFFFFFFF AND DUP3 PUSH20 0xFFFFFFFFFFFFFFFFFFFFFFFFFFFFFFFFFFFFFFFF AND CALLER PUSH20 0xFFFFFFFFFFFFFFFFFFFFFFFFFFFFFFFFFFFFFFFF AND PUSH32 0xEB7C1E97C05570337FE795AB9D5755A8F731C9C52E756B720275940FA2833276 PUSH1 0x40 MLOAD PUSH1 0x40 MLOAD DUP1 SWAP2 SUB SWAP1 LOG4 PUSH2 0x5A4A DUP2 PUSH2 0x46C1 JUMP JUMPDEST POP POP JUMP JUMPDEST PUSH1 0x8 PUSH1 0x1A SWAP1 SLOAD SWAP1 PUSH2 0x100 EXP SWAP1 DIV PUSH2 0xFFFF AND DUP2 JUMP JUMPDEST PUSH2 0x3E8 DUP2 JUMP JUMPDEST PUSH1 0x0 PUSH1 0x1 PUSH1 0x0 DUP5 PUSH20 0xFFFFFFFFFFFFFFFFFFFFFFFFFFFFFFFFFFFFFFFF AND PUSH20 0xFFFFFFFFFFFFFFFFFFFFFFFFFFFFFFFFFFFFFFFF AND DUP2 MSTORE PUSH1 0x20 ADD SWAP1 DUP2 MSTORE PUSH1 0x20 ADD PUSH1 0x0 KECCAK256 PUSH1 0x0 DUP4 PUSH20 0xFFFFFFFFFFFFFFFFFFFFFFFFFFFFFFFFFFFFFFFF AND PUSH20 0xFFFFFFFFFFFFFFFFFFFFFFFFFFFFFFFFFFFFFFFF AND DUP2 MSTORE PUSH1 0x20 ADD SWAP1 DUP2 MSTORE PUSH1 0x20 ADD PUSH1 0x0 KECCAK256 SLOAD SWAP1 POP SWAP3 SWAP2 POP POP JUMP JUMPDEST CALLER PUSH20 0xFFFFFFFFFFFFFFFFFFFFFFFFFFFFFFFFFFFFFFFF AND PUSH2 0x5B0E PUSH2 0x3A51 JUMP JUMPDEST PUSH20 0xFFFFFFFFFFFFFFFFFFFFFFFFFFFFFFFFFFFFFFFF AND EQ DUP1 PUSH2 0x5B7D JUMPI POP CALLER PUSH20 0xFFFFFFFFFFFFFFFFFFFFFFFFFFFFFFFFFFFFFFFF AND PUSH1 0x8 PUSH1 0x0 SWAP1 SLOAD SWAP1 PUSH2 0x100 EXP SWAP1 DIV PUSH20 0xFFFFFFFFFFFFFFFFFFFFFFFFFFFFFFFFFFFFFFFF AND PUSH20 0xFFFFFFFFFFFFFFFFFFFFFFFFFFFFFFFFFFFFFFFF AND EQ JUMPDEST PUSH2 0x5BBC JUMPI PUSH1 0x40 MLOAD PUSH32 0x8C379A000000000000000000000000000000000000000000000000000000000 DUP2 MSTORE PUSH1 0x4 ADD PUSH2 0x5BB3 SWAP1 PUSH2 0x9302 JUMP JUMPDEST PUSH1 0x40 MLOAD DUP1 SWAP2 SUB SWAP1 REVERT JUMPDEST PUSH1 0x40 MLOAD DUP1 PUSH1 0x40 ADD PUSH1 0x40 MSTORE DUP1 PUSH1 0x10 DUP2 MSTORE PUSH1 0x20 ADD PUSH32 0x6D61785F646973747269627574696F6E00000000000000000000000000000000 DUP2 MSTORE POP PUSH1 0x6 PUSH1 0x14 SWAP1 SLOAD SWAP1 PUSH2 0x100 EXP SWAP1 DIV PUSH1 0xFF AND ISZERO DUP1 PUSH2 0x5C8F JUMPI POP PUSH1 0x0 PUSH1 0x7 DUP3 PUSH1 0x40 MLOAD PUSH2 0x5C1B SWAP2 SWAP1 PUSH2 0x8D17 JUMP JUMPDEST SWAP1 DUP2 MSTORE PUSH1 0x20 ADD PUSH1 0x40 MLOAD DUP1 SWAP2 SUB SWAP1 KECCAK256 SLOAD EQ ISZERO DUP1 ISZERO PUSH2 0x5C56 JUMPI POP TIMESTAMP PUSH1 0x7 DUP3 PUSH1 0x40 MLOAD PUSH2 0x5C44 SWAP2 SWAP1 PUSH2 0x8D17 JUMP JUMPDEST SWAP1 DUP2 MSTORE PUSH1 0x20 ADD PUSH1 0x40 MLOAD DUP1 SWAP2 SUB SWAP1 KECCAK256 SLOAD GT ISZERO JUMPDEST DUP1 ISZERO PUSH2 0x5C8E JUMPI POP TIMESTAMP PUSH3 0x15180 PUSH1 0x7 DUP4 PUSH1 0x40 MLOAD PUSH2 0x5C72 SWAP2 SWAP1 PUSH2 0x8D17 JUMP JUMPDEST SWAP1 DUP2 MSTORE PUSH1 0x20 ADD PUSH1 0x40 MLOAD DUP1 SWAP2 SUB SWAP1 KECCAK256 SLOAD PUSH2 0x5C8B SWAP2 SWAP1 PUSH2 0x9708 JUMP JUMPDEST LT ISZERO JUMPDEST JUMPDEST PUSH2 0x5CCE JUMPI PUSH1 0x40 MLOAD PUSH32 0x8C379A000000000000000000000000000000000000000000000000000000000 DUP2 MSTORE PUSH1 0x4 ADD PUSH2 0x5CC5 SWAP1 PUSH2 0x92A2 JUMP JUMPDEST PUSH1 0x40 MLOAD DUP1 SWAP2 SUB SWAP1 REVERT JUMPDEST PUSH2 0x5CD6 PUSH2 0x18CB JUMP JUMPDEST DUP3 GT PUSH2 0x5D17 JUMPI PUSH1 0x40 MLOAD PUSH32 0x8C379A000000000000000000000000000000000000000000000000000000000 DUP2 MSTORE PUSH1 0x4 ADD PUSH2 0x5D0E SWAP1 PUSH2 0x92C2 JUMP JUMPDEST PUSH1 0x40 MLOAD DUP1 SWAP2 SUB SWAP1 REVERT JUMPDEST DUP2 PUSH1 0x11 DUP2 SWAP1 SSTORE POP DUP2 PUSH32 0xA7E08474511C62A58C1DC04D12CFF13C93670FFC4D0056882F95EBFE2DF50ED PUSH1 0x40 MLOAD PUSH1 0x40 MLOAD DUP1 SWAP2 SUB SWAP1 LOG2 PUSH2 0x5D54 DUP2 PUSH2 0x46C1 JUMP JUMPDEST POP POP JUMP JUMPDEST PUSH1 0x14 SLOAD DUP2 JUMP JUMPDEST PUSH1 0xE PUSH1 0x0 SWAP1 SLOAD SWAP1 PUSH2 0x100 EXP SWAP1 DIV PUSH20 0xFFFFFFFFFFFFFFFFFFFFFFFFFFFFFFFFFFFFFFFF AND DUP2 JUMP JUMPDEST CALLER PUSH20 0xFFFFFFFFFFFFFFFFFFFFFFFFFFFFFFFFFFFFFFFF AND PUSH2 0x5DA3 PUSH2 0x3A51 JUMP JUMPDEST PUSH20 0xFFFFFFFFFFFFFFFFFFFFFFFFFFFFFFFFFFFFFFFF AND EQ DUP1 PUSH2 0x5E12 JUMPI POP CALLER PUSH20 0xFFFFFFFFFFFFFFFFFFFFFFFFFFFFFFFFFFFFFFFF AND PUSH1 0x8 PUSH1 0x0 SWAP1 SLOAD SWAP1 PUSH2 0x100 EXP SWAP1 DIV PUSH20 0xFFFFFFFFFFFFFFFFFFFFFFFFFFFFFFFFFFFFFFFF AND PUSH20 0xFFFFFFFFFFFFFFFFFFFFFFFFFFFFFFFFFFFFFFFF AND EQ JUMPDEST PUSH2 0x5E51 JUMPI PUSH1 0x40 MLOAD PUSH32 0x8C379A000000000000000000000000000000000000000000000000000000000 DUP2 MSTORE PUSH1 0x4 ADD PUSH2 0x5E48 SWAP1 PUSH2 0x9302 JUMP JUMPDEST PUSH1 0x40 MLOAD DUP1 SWAP2 SUB SWAP1 REVERT JUMPDEST PUSH1 0x1 PUSH1 0x12 PUSH1 0x1 PUSH2 0x100 EXP DUP2 SLOAD DUP2 PUSH1 0xFF MUL NOT AND SWAP1 DUP4 ISZERO ISZERO MUL OR SWAP1 SSTORE POP PUSH1 0x12 PUSH1 0x1 SWAP1 SLOAD SWAP1 PUSH2 0x100 EXP SWAP1 DIV PUSH1 0xFF AND ISZERO ISZERO PUSH32 0x4C67D13291F7FE21C52EEE8F752CBC5C7451E593E18093D087403081206FD46C PUSH1 0x40 MLOAD PUSH1 0x40 MLOAD DUP1 SWAP2 SUB SWAP1 LOG2 JUMP JUMPDEST PUSH2 0x5EB4 PUSH2 0x63F7 JUMP JUMPDEST PUSH20 0xFFFFFFFFFFFFFFFFFFFFFFFFFFFFFFFFFFFFFFFF AND PUSH2 0x5ED2 PUSH2 0x3A51 JUMP JUMPDEST PUSH20 0xFFFFFFFFFFFFFFFFFFFFFFFFFFFFFFFFFFFFFFFF AND EQ PUSH2 0x5F28 JUMPI PUSH1 0x40 MLOAD PUSH32 0x8C379A000000000000000000000000000000000000000000000000000000000 DUP2 MSTORE PUSH1 0x4 ADD PUSH2 0x5F1F SWAP1 PUSH2 0x9282 JUMP JUMPDEST PUSH1 0x40 MLOAD DUP1 SWAP2 SUB SWAP1 REVERT JUMPDEST PUSH1 0x0 PUSH20 0xFFFFFFFFFFFFFFFFFFFFFFFFFFFFFFFFFFFFFFFF AND DUP2 PUSH20 0xFFFFFFFFFFFFFFFFFFFFFFFFFFFFFFFFFFFFFFFF AND EQ ISZERO PUSH2 0x5F98 JUMPI PUSH1 0x40 MLOAD PUSH32 0x8C379A000000000000000000000000000000000000000000000000000000000 DUP2 MSTORE PUSH1 0x4 ADD PUSH2 0x5F8F SWAP1 PUSH2 0x9002 JUMP JUMPDEST PUSH1 0x40 MLOAD DUP1 SWAP2 SUB SWAP1 REVERT JUMPDEST PUSH2 0x5FA1 DUP2 PUSH2 0x7486 JUMP JUMPDEST POP JUMP JUMPDEST CALLER PUSH20 0xFFFFFFFFFFFFFFFFFFFFFFFFFFFFFFFFFFFFFFFF AND PUSH2 0x5FC3 PUSH2 0x3A51 JUMP JUMPDEST PUSH20 0xFFFFFFFFFFFFFFFFFFFFFFFFFFFFFFFFFFFFFFFF AND EQ DUP1 PUSH2 0x6032 JUMPI POP CALLER PUSH20 0xFFFFFFFFFFFFFFFFFFFFFFFFFFFFFFFFFFFFFFFF AND PUSH1 0x8 PUSH1 0x0 SWAP1 SLOAD SWAP1 PUSH2 0x100 EXP SWAP1 DIV PUSH20 0xFFFFFFFFFFFFFFFFFFFFFFFFFFFFFFFFFFFFFFFF AND PUSH20 0xFFFFFFFFFFFFFFFFFFFFFFFFFFFFFFFFFFFFFFFF AND EQ JUMPDEST PUSH2 0x6071 JUMPI PUSH1 0x40 MLOAD PUSH32 0x8C379A000000000000000000000000000000000000000000000000000000000 DUP2 MSTORE PUSH1 0x4 ADD PUSH2 0x6068 SWAP1 PUSH2 0x9302 JUMP JUMPDEST PUSH1 0x40 MLOAD DUP1 SWAP2 SUB SWAP1 REVERT JUMPDEST PUSH1 0x1 PUSH1 0x6 PUSH1 0x14 PUSH2 0x100 EXP DUP2 SLOAD DUP2 PUSH1 0xFF MUL NOT AND SWAP1 DUP4 ISZERO ISZERO MUL OR SWAP1 SSTORE POP PUSH32 0x2C08B62BFAC9A1B19BB1DEC9323F1CE01696A77948B256ABF3603D30F25A864E PUSH1 0x40 MLOAD PUSH1 0x40 MLOAD DUP1 SWAP2 SUB SWAP1 LOG1 JUMP JUMPDEST PUSH1 0x7 DUP2 DUP1 MLOAD PUSH1 0x20 DUP2 ADD DUP3 ADD DUP1 MLOAD DUP5 DUP3 MSTORE PUSH1 0x20 DUP4 ADD PUSH1 0x20 DUP6 ADD KECCAK256 DUP2 DUP4 MSTORE DUP1 SWAP6 POP POP POP POP POP POP PUSH1 0x0 SWAP2 POP SWAP1 POP SLOAD DUP2 JUMP JUMPDEST CALLER PUSH20 0xFFFFFFFFFFFFFFFFFFFFFFFFFFFFFFFFFFFFFFFF AND PUSH2 0x6107 PUSH2 0x3A51 JUMP JUMPDEST PUSH20 0xFFFFFFFFFFFFFFFFFFFFFFFFFFFFFFFFFFFFFFFF AND EQ DUP1 PUSH2 0x6176 JUMPI POP CALLER PUSH20 0xFFFFFFFFFFFFFFFFFFFFFFFFFFFFFFFFFFFFFFFF AND PUSH1 0x8 PUSH1 0x0 SWAP1 SLOAD SWAP1 PUSH2 0x100 EXP SWAP1 DIV PUSH20 0xFFFFFFFFFFFFFFFFFFFFFFFFFFFFFFFFFFFFFFFF AND PUSH20 0xFFFFFFFFFFFFFFFFFFFFFFFFFFFFFFFFFFFFFFFF AND EQ JUMPDEST PUSH2 0x61B5 JUMPI PUSH1 0x40 MLOAD PUSH32 0x8C379A000000000000000000000000000000000000000000000000000000000 DUP2 MSTORE PUSH1 0x4 ADD PUSH2 0x61AC SWAP1 PUSH2 0x9302 JUMP JUMPDEST PUSH1 0x40 MLOAD DUP1 SWAP2 SUB SWAP1 REVERT JUMPDEST PUSH1 0x1 PUSH1 0x1A PUSH1 0x0 DUP4 PUSH20 0xFFFFFFFFFFFFFFFFFFFFFFFFFFFFFFFFFFFFFFFF AND PUSH20 0xFFFFFFFFFFFFFFFFFFFFFFFFFFFFFFFFFFFFFFFF AND DUP2 MSTORE PUSH1 0x20 ADD SWAP1 DUP2 MSTORE PUSH1 0x20 ADD PUSH1 0x0 KECCAK256 PUSH1 0x0 PUSH2 0x100 EXP DUP2 SLOAD DUP2 PUSH1 0xFF MUL NOT AND SWAP1 DUP4 ISZERO ISZERO MUL OR SWAP1 SSTORE POP DUP1 PUSH20 0xFFFFFFFFFFFFFFFFFFFFFFFFFFFFFFFFFFFFFFFF AND PUSH32 0xFFA4E6181777692565CF28528FC88FD1516EA86B56DA075235FA575AF6A4B855 PUSH1 0x40 MLOAD PUSH1 0x40 MLOAD DUP1 SWAP2 SUB SWAP1 LOG2 POP JUMP JUMPDEST PUSH1 0x8 PUSH1 0x16 SWAP1 SLOAD SWAP1 PUSH2 0x100 EXP SWAP1 DIV PUSH2 0xFFFF AND DUP2 JUMP JUMPDEST CALLER PUSH20 0xFFFFFFFFFFFFFFFFFFFFFFFFFFFFFFFFFFFFFFFF AND PUSH2 0x6286 PUSH2 0x3A51 JUMP JUMPDEST PUSH20 0xFFFFFFFFFFFFFFFFFFFFFFFFFFFFFFFFFFFFFFFF AND EQ DUP1 PUSH2 0x62F5 JUMPI POP CALLER PUSH20 0xFFFFFFFFFFFFFFFFFFFFFFFFFFFFFFFFFFFFFFFF AND PUSH1 0x8 PUSH1 0x0 SWAP1 SLOAD SWAP1 PUSH2 0x100 EXP SWAP1 DIV PUSH20 0xFFFFFFFFFFFFFFFFFFFFFFFFFFFFFFFFFFFFFFFF AND PUSH20 0xFFFFFFFFFFFFFFFFFFFFFFFFFFFFFFFFFFFFFFFF AND EQ JUMPDEST PUSH2 0x6334 JUMPI PUSH1 0x40 MLOAD PUSH32 0x8C379A000000000000000000000000000000000000000000000000000000000 DUP2 MSTORE PUSH1 0x4 ADD PUSH2 0x632B SWAP1 PUSH2 0x9302 JUMP JUMPDEST PUSH1 0x40 MLOAD DUP1 SWAP2 SUB SWAP1 REVERT JUMPDEST PUSH1 0x64 DUP2 PUSH2 0xFFFF AND GT PUSH2 0x637B JUMPI PUSH1 0x40 MLOAD PUSH32 0x8C379A000000000000000000000000000000000000000000000000000000000 DUP2 MSTORE PUSH1 0x4 ADD PUSH2 0x6372 SWAP1 PUSH2 0x9362 JUMP JUMPDEST PUSH1 0x40 MLOAD DUP1 SWAP2 SUB SWAP1 REVERT JUMPDEST PUSH1 0x0 PUSH1 0x12 PUSH1 0x4 SWAP1 SLOAD SWAP1 PUSH2 0x100 EXP SWAP1 DIV PUSH2 0xFFFF AND SWAP1 POP DUP2 PUSH1 0x12 PUSH1 0x4 PUSH2 0x100 EXP DUP2 SLOAD DUP2 PUSH2 0xFFFF MUL NOT AND SWAP1 DUP4 PUSH2 0xFFFF AND MUL OR SWAP1 SSTORE POP PUSH1 0x12 PUSH1 0x4 SWAP1 SLOAD SWAP1 PUSH2 0x100 EXP SWAP1 DIV PUSH2 0xFFFF AND PUSH2 0xFFFF AND DUP2 PUSH2 0xFFFF AND PUSH32 0x537619D54465D4BF80B6C360206170815AA95DEAA5993A7C17AB783706693A4D PUSH1 0x40 MLOAD PUSH1 0x40 MLOAD DUP1 SWAP2 SUB SWAP1 LOG3 POP POP JUMP JUMPDEST PUSH1 0x0 CALLER SWAP1 POP SWAP1 JUMP JUMPDEST PUSH1 0x0 PUSH20 0xFFFFFFFFFFFFFFFFFFFFFFFFFFFFFFFFFFFFFFFF AND DUP4 PUSH20 0xFFFFFFFFFFFFFFFFFFFFFFFFFFFFFFFFFFFFFFFF AND EQ ISZERO PUSH2 0x646F JUMPI PUSH1 0x40 MLOAD PUSH32 0x8C379A000000000000000000000000000000000000000000000000000000000 DUP2 MSTORE PUSH1 0x4 ADD PUSH2 0x6466 SWAP1 PUSH2 0x9382 JUMP JUMPDEST PUSH1 0x40 MLOAD DUP1 SWAP2 SUB SWAP1 REVERT JUMPDEST PUSH1 0x0 PUSH20 0xFFFFFFFFFFFFFFFFFFFFFFFFFFFFFFFFFFFFFFFF AND DUP3 PUSH20 0xFFFFFFFFFFFFFFFFFFFFFFFFFFFFFFFFFFFFFFFF AND EQ ISZERO PUSH2 0x64DF JUMPI PUSH1 0x40 MLOAD PUSH32 0x8C379A000000000000000000000000000000000000000000000000000000000 DUP2 MSTORE PUSH1 0x4 ADD PUSH2 0x64D6 SWAP1 PUSH2 0x9022 JUMP JUMPDEST PUSH1 0x40 MLOAD DUP1 SWAP2 SUB SWAP1 REVERT JUMPDEST DUP1 PUSH1 0x1 PUSH1 0x0 DUP6 PUSH20 0xFFFFFFFFFFFFFFFFFFFFFFFFFFFFFFFFFFFFFFFF AND PUSH20 0xFFFFFFFFFFFFFFFFFFFFFFFFFFFFFFFFFFFFFFFF AND DUP2 MSTORE PUSH1 0x20 ADD SWAP1 DUP2 MSTORE PUSH1 0x20 ADD PUSH1 0x0 KECCAK256 PUSH1 0x0 DUP5 PUSH20 0xFFFFFFFFFFFFFFFFFFFFFFFFFFFFFFFFFFFFFFFF AND PUSH20 0xFFFFFFFFFFFFFFFFFFFFFFFFFFFFFFFFFFFFFFFF AND DUP2 MSTORE PUSH1 0x20 ADD SWAP1 DUP2 MSTORE PUSH1 0x20 ADD PUSH1 0x0 KECCAK256 DUP2 SWAP1 SSTORE POP DUP2 PUSH20 0xFFFFFFFFFFFFFFFFFFFFFFFFFFFFFFFFFFFFFFFF AND DUP4 PUSH20 0xFFFFFFFFFFFFFFFFFFFFFFFFFFFFFFFFFFFFFFFF AND PUSH32 0x8C5BE1E5EBEC7D5BD14F71427D1E84F3DD0314C0F7B2291E5B200AC8C7C3B925 DUP4 PUSH1 0x40 MLOAD PUSH2 0x65BD SWAP2 SWAP1 PUSH2 0x953D JUMP JUMPDEST PUSH1 0x40 MLOAD DUP1 SWAP2 SUB SWAP1 LOG3 POP POP POP JUMP JUMPDEST PUSH1 0x0 DUP3 PUSH20 0xFFFFFFFFFFFFFFFFFFFFFFFFFFFFFFFFFFFFFFFF AND DUP3 PUSH1 0x0 PUSH8 0xFFFFFFFFFFFFFFFF DUP2 GT ISZERO PUSH2 0x65FF JUMPI PUSH2 0x65FE PUSH2 0x9A4D JUMP JUMPDEST JUMPDEST PUSH1 0x40 MLOAD SWAP1 DUP1 DUP3 MSTORE DUP1 PUSH1 0x1F ADD PUSH1 0x1F NOT AND PUSH1 0x20 ADD DUP3 ADD PUSH1 0x40 MSTORE DUP1 ISZERO PUSH2 0x6631 JUMPI DUP2 PUSH1 0x20 ADD PUSH1 0x1 DUP3 MUL DUP1 CALLDATASIZE DUP4 CALLDATACOPY DUP1 DUP3 ADD SWAP2 POP POP SWAP1 POP JUMPDEST POP PUSH1 0x40 MLOAD PUSH2 0x663F SWAP2 SWAP1 PUSH2 0x8D00 JUMP JUMPDEST PUSH1 0x0 PUSH1 0x40 MLOAD DUP1 DUP4 SUB DUP2 DUP6 DUP8 GAS CALL SWAP3 POP POP POP RETURNDATASIZE DUP1 PUSH1 0x0 DUP2 EQ PUSH2 0x667C JUMPI PUSH1 0x40 MLOAD SWAP2 POP PUSH1 0x1F NOT PUSH1 0x3F RETURNDATASIZE ADD AND DUP3 ADD PUSH1 0x40 MSTORE RETURNDATASIZE DUP3 MSTORE RETURNDATASIZE PUSH1 0x0 PUSH1 0x20 DUP5 ADD RETURNDATACOPY PUSH2 0x6681 JUMP JUMPDEST PUSH1 0x60 SWAP2 POP JUMPDEST POP POP SWAP1 POP DUP1 PUSH2 0x66C5 JUMPI PUSH1 0x40 MLOAD PUSH32 0x8C379A000000000000000000000000000000000000000000000000000000000 DUP2 MSTORE PUSH1 0x4 ADD PUSH2 0x66BC SWAP1 PUSH2 0x90A2 JUMP JUMPDEST PUSH1 0x40 MLOAD DUP1 SWAP2 SUB SWAP1 REVERT JUMPDEST POP POP POP JUMP JUMPDEST PUSH1 0x2 PUSH1 0x5 SLOAD EQ ISZERO PUSH2 0x6710 JUMPI PUSH1 0x40 MLOAD PUSH32 0x8C379A000000000000000000000000000000000000000000000000000000000 DUP2 MSTORE PUSH1 0x4 ADD PUSH2 0x6707 SWAP1 PUSH2 0x9442 JUMP JUMPDEST PUSH1 0x40 MLOAD DUP1 SWAP2 SUB SWAP1 REVERT JUMPDEST PUSH1 0x2 PUSH1 0x5 DUP2 SWAP1 SSTORE POP PUSH1 0x0 PUSH20 0xFFFFFFFFFFFFFFFFFFFFFFFFFFFFFFFFFFFFFFFF AND DUP4 PUSH20 0xFFFFFFFFFFFFFFFFFFFFFFFFFFFFFFFFFFFFFFFF AND EQ ISZERO PUSH2 0x6788 JUMPI PUSH1 0x40 MLOAD PUSH32 0x8C379A000000000000000000000000000000000000000000000000000000000 DUP2 MSTORE PUSH1 0x4 ADD PUSH2 0x677F SWAP1 PUSH2 0x9242 JUMP JUMPDEST PUSH1 0x40 MLOAD DUP1 SWAP2 SUB SWAP1 REVERT JUMPDEST PUSH1 0x0 PUSH20 0xFFFFFFFFFFFFFFFFFFFFFFFFFFFFFFFFFFFFFFFF AND DUP3 PUSH20 0xFFFFFFFFFFFFFFFFFFFFFFFFFFFFFFFFFFFFFFFF AND EQ ISZERO PUSH2 0x67F8 JUMPI PUSH1 0x40 MLOAD PUSH32 0x8C379A000000000000000000000000000000000000000000000000000000000 DUP2 MSTORE PUSH1 0x4 ADD PUSH2 0x67EF SWAP1 PUSH2 0x90E2 JUMP JUMPDEST PUSH1 0x40 MLOAD DUP1 SWAP2 SUB SWAP1 REVERT JUMPDEST PUSH1 0x0 DUP2 GT PUSH2 0x683B JUMPI PUSH1 0x40 MLOAD PUSH32 0x8C379A000000000000000000000000000000000000000000000000000000000 DUP2 MSTORE PUSH1 0x4 ADD PUSH2 0x6832 SWAP1 PUSH2 0x93C2 JUMP JUMPDEST PUSH1 0x40 MLOAD DUP1 SWAP2 SUB SWAP1 REVERT JUMPDEST PUSH2 0x6844 DUP4 PUSH2 0x30DE JUMP JUMPDEST DUP2 GT ISZERO PUSH2 0x6886 JUMPI PUSH1 0x40 MLOAD PUSH32 0x8C379A000000000000000000000000000000000000000000000000000000000 DUP2 MSTORE PUSH1 0x4 ADD PUSH2 0x687D SWAP1 PUSH2 0x9182 JUMP JUMPDEST PUSH1 0x40 MLOAD DUP1 SWAP2 SUB SWAP1 REVERT JUMPDEST PUSH1 0x1A PUSH1 0x0 DUP5 PUSH20 0xFFFFFFFFFFFFFFFFFFFFFFFFFFFFFFFFFFFFFFFF AND PUSH20 0xFFFFFFFFFFFFFFFFFFFFFFFFFFFFFFFFFFFFFFFF AND DUP2 MSTORE PUSH1 0x20 ADD SWAP1 DUP2 MSTORE PUSH1 0x20 ADD PUSH1 0x0 KECCAK256 PUSH1 0x0 SWAP1 SLOAD SWAP1 PUSH2 0x100 EXP SWAP1 DIV PUSH1 0xFF AND ISZERO PUSH2 0x6913 JUMPI PUSH1 0x40 MLOAD PUSH32 0x8C379A000000000000000000000000000000000000000000000000000000000 DUP2 MSTORE PUSH1 0x4 ADD PUSH2 0x690A SWAP1 PUSH2 0x9342 JUMP JUMPDEST PUSH1 0x40 MLOAD DUP1 SWAP2 SUB SWAP1 REVERT JUMPDEST PUSH1 0x12 PUSH1 0x2 SWAP1 SLOAD SWAP1 PUSH2 0x100 EXP SWAP1 DIV PUSH2 0xFFFF AND PUSH2 0xFFFF AND PUSH2 0x6930 PUSH2 0x18CB JUMP JUMPDEST PUSH2 0x2710 DUP4 PUSH2 0x693E SWAP2 SWAP1 PUSH2 0x978F JUMP JUMPDEST PUSH2 0x6948 SWAP2 SWAP1 PUSH2 0x975E JUMP JUMPDEST GT ISZERO DUP1 PUSH2 0x6987 JUMPI POP PUSH2 0x6958 PUSH2 0x3A51 JUMP JUMPDEST PUSH20 0xFFFFFFFFFFFFFFFFFFFFFFFFFFFFFFFFFFFFFFFF AND DUP4 PUSH20 0xFFFFFFFFFFFFFFFFFFFFFFFFFFFFFFFFFFFFFFFF AND EQ JUMPDEST DUP1 PUSH2 0x69C4 JUMPI POP PUSH2 0x6995 PUSH2 0x3CED JUMP JUMPDEST PUSH20 0xFFFFFFFFFFFFFFFFFFFFFFFFFFFFFFFFFFFFFFFF AND DUP4 PUSH20 0xFFFFFFFFFFFFFFFFFFFFFFFFFFFFFFFFFFFFFFFF AND EQ JUMPDEST DUP1 PUSH2 0x6A18 JUMPI POP PUSH1 0xF PUSH1 0x0 DUP5 PUSH20 0xFFFFFFFFFFFFFFFFFFFFFFFFFFFFFFFFFFFFFFFF AND PUSH20 0xFFFFFFFFFFFFFFFFFFFFFFFFFFFFFFFFFFFFFFFF AND DUP2 MSTORE PUSH1 0x20 ADD SWAP1 DUP2 MSTORE PUSH1 0x20 ADD PUSH1 0x0 KECCAK256 PUSH1 0x0 SWAP1 SLOAD SWAP1 PUSH2 0x100 EXP SWAP1 DIV PUSH1 0xFF AND JUMPDEST DUP1 PUSH2 0x6A6C JUMPI POP PUSH1 0x10 PUSH1 0x0 DUP5 PUSH20 0xFFFFFFFFFFFFFFFFFFFFFFFFFFFFFFFFFFFFFFFF AND PUSH20 0xFFFFFFFFFFFFFFFFFFFFFFFFFFFFFFFFFFFFFFFF AND DUP2 MSTORE PUSH1 0x20 ADD SWAP1 DUP2 MSTORE PUSH1 0x20 ADD PUSH1 0x0 KECCAK256 PUSH1 0x0 SWAP1 SLOAD SWAP1 PUSH2 0x100 EXP SWAP1 DIV PUSH1 0xFF AND JUMPDEST PUSH2 0x6AAB JUMPI PUSH1 0x40 MLOAD PUSH32 0x8C379A000000000000000000000000000000000000000000000000000000000 DUP2 MSTORE PUSH1 0x4 ADD PUSH2 0x6AA2 SWAP1 PUSH2 0x9202 JUMP JUMPDEST PUSH1 0x40 MLOAD DUP1 SWAP2 SUB SWAP1 REVERT JUMPDEST PUSH1 0x12 PUSH1 0x4 SWAP1 SLOAD SWAP1 PUSH2 0x100 EXP SWAP1 DIV PUSH2 0xFFFF AND PUSH2 0xFFFF AND PUSH2 0x6AC8 PUSH2 0x18CB JUMP JUMPDEST PUSH2 0x2710 PUSH2 0x6AD4 DUP6 PUSH2 0x3FBF JUMP JUMPDEST DUP5 PUSH2 0x6ADF SWAP2 SWAP1 PUSH2 0x9708 JUMP JUMPDEST PUSH2 0x6AE9 SWAP2 SWAP1 PUSH2 0x978F JUMP JUMPDEST PUSH2 0x6AF3 SWAP2 SWAP1 PUSH2 0x975E JUMP JUMPDEST GT ISZERO DUP1 PUSH2 0x6B32 JUMPI POP PUSH2 0x6B03 PUSH2 0x3A51 JUMP JUMPDEST PUSH20 0xFFFFFFFFFFFFFFFFFFFFFFFFFFFFFFFFFFFFFFFF AND DUP3 PUSH20 0xFFFFFFFFFFFFFFFFFFFFFFFFFFFFFFFFFFFFFFFF AND EQ JUMPDEST DUP1 PUSH2 0x6B6F JUMPI POP PUSH2 0x6B40 PUSH2 0x3CED JUMP JUMPDEST PUSH20 0xFFFFFFFFFFFFFFFFFFFFFFFFFFFFFFFFFFFFFFFF AND DUP3 PUSH20 0xFFFFFFFFFFFFFFFFFFFFFFFFFFFFFFFFFFFFFFFF AND EQ JUMPDEST DUP1 PUSH2 0x6BA5 JUMPI POP ADDRESS PUSH20 0xFFFFFFFFFFFFFFFFFFFFFFFFFFFFFFFFFFFFFFFF AND DUP3 PUSH20 0xFFFFFFFFFFFFFFFFFFFFFFFFFFFFFFFFFFFFFFFF AND EQ JUMPDEST DUP1 PUSH2 0x6BF9 JUMPI POP PUSH1 0x10 PUSH1 0x0 DUP4 PUSH20 0xFFFFFFFFFFFFFFFFFFFFFFFFFFFFFFFFFFFFFFFF AND PUSH20 0xFFFFFFFFFFFFFFFFFFFFFFFFFFFFFFFFFFFFFFFF AND DUP2 MSTORE PUSH1 0x20 ADD SWAP1 DUP2 MSTORE PUSH1 0x20 ADD PUSH1 0x0 KECCAK256 PUSH1 0x0 SWAP1 SLOAD SWAP1 PUSH2 0x100 EXP SWAP1 DIV PUSH1 0xFF AND JUMPDEST DUP1 PUSH2 0x6C4D JUMPI POP PUSH1 0xF PUSH1 0x0 DUP4 PUSH20 0xFFFFFFFFFFFFFFFFFFFFFFFFFFFFFFFFFFFFFFFF AND PUSH20 0xFFFFFFFFFFFFFFFFFFFFFFFFFFFFFFFFFFFFFFFF AND DUP2 MSTORE PUSH1 0x20 ADD SWAP1 DUP2 MSTORE PUSH1 0x20 ADD PUSH1 0x0 KECCAK256 PUSH1 0x0 SWAP1 SLOAD SWAP1 PUSH2 0x100 EXP SWAP1 DIV PUSH1 0xFF AND JUMPDEST PUSH2 0x6C8C JUMPI PUSH1 0x40 MLOAD PUSH32 0x8C379A000000000000000000000000000000000000000000000000000000000 DUP2 MSTORE PUSH1 0x4 ADD PUSH2 0x6C83 SWAP1 PUSH2 0x93E2 JUMP JUMPDEST PUSH1 0x40 MLOAD DUP1 SWAP2 SUB SWAP1 REVERT JUMPDEST PUSH1 0x12 PUSH1 0x0 SWAP1 SLOAD SWAP1 PUSH2 0x100 EXP SWAP1 DIV PUSH1 0xFF AND DUP1 PUSH2 0x6CD9 JUMPI POP PUSH2 0x6CAA PUSH2 0x3A51 JUMP JUMPDEST PUSH20 0xFFFFFFFFFFFFFFFFFFFFFFFFFFFFFFFFFFFFFFFF AND DUP4 PUSH20 0xFFFFFFFFFFFFFFFFFFFFFFFFFFFFFFFFFFFFFFFF AND EQ JUMPDEST DUP1 PUSH2 0x6D16 JUMPI POP PUSH2 0x6CE7 PUSH2 0x3CED JUMP JUMPDEST PUSH20 0xFFFFFFFFFFFFFFFFFFFFFFFFFFFFFFFFFFFFFFFF AND DUP4 PUSH20 0xFFFFFFFFFFFFFFFFFFFFFFFFFFFFFFFFFFFFFFFF AND EQ JUMPDEST DUP1 PUSH2 0x6D6A JUMPI POP PUSH1 0x10 PUSH1 0x0 DUP4 PUSH20 0xFFFFFFFFFFFFFFFFFFFFFFFFFFFFFFFFFFFFFFFF AND PUSH20 0xFFFFFFFFFFFFFFFFFFFFFFFFFFFFFFFFFFFFFFFF AND DUP2 MSTORE PUSH1 0x20 ADD SWAP1 DUP2 MSTORE PUSH1 0x20 ADD PUSH1 0x0 KECCAK256 PUSH1 0x0 SWAP1 SLOAD SWAP1 PUSH2 0x100 EXP SWAP1 DIV PUSH1 0xFF AND JUMPDEST DUP1 PUSH2 0x6DBE JUMPI POP PUSH1 0xF PUSH1 0x0 DUP5 PUSH20 0xFFFFFFFFFFFFFFFFFFFFFFFFFFFFFFFFFFFFFFFF AND PUSH20 0xFFFFFFFFFFFFFFFFFFFFFFFFFFFFFFFFFFFFFFFF AND DUP2 MSTORE PUSH1 0x20 ADD SWAP1 DUP2 MSTORE PUSH1 0x20 ADD PUSH1 0x0 KECCAK256 PUSH1 0x0 SWAP1 SLOAD SWAP1 PUSH2 0x100 EXP SWAP1 DIV PUSH1 0xFF AND JUMPDEST PUSH2 0x6DFD JUMPI PUSH1 0x40 MLOAD PUSH32 0x8C379A000000000000000000000000000000000000000000000000000000000 DUP2 MSTORE PUSH1 0x4 ADD PUSH2 0x6DF4 SWAP1 PUSH2 0x9102 JUMP JUMPDEST PUSH1 0x40 MLOAD DUP1 SWAP2 SUB SWAP1 REVERT JUMPDEST PUSH1 0x12 PUSH1 0x1 SWAP1 SLOAD SWAP1 PUSH2 0x100 EXP SWAP1 DIV PUSH1 0xFF AND ISZERO DUP1 PUSH2 0x6E4B JUMPI POP PUSH2 0x6E1C PUSH2 0x3CED JUMP JUMPDEST PUSH20 0xFFFFFFFFFFFFFFFFFFFFFFFFFFFFFFFFFFFFFFFF AND DUP4 PUSH20 0xFFFFFFFFFFFFFFFFFFFFFFFFFFFFFFFFFFFFFFFF AND EQ JUMPDEST DUP1 PUSH2 0x6E88 JUMPI POP PUSH2 0x6E59 PUSH2 0x3A51 JUMP JUMPDEST PUSH20 0xFFFFFFFFFFFFFFFFFFFFFFFFFFFFFFFFFFFFFFFF AND DUP4 PUSH20 0xFFFFFFFFFFFFFFFFFFFFFFFFFFFFFFFFFFFFFFFF AND EQ JUMPDEST DUP1 PUSH2 0x6F31 JUMPI POP PUSH1 0xF PUSH1 0x0 DUP5 PUSH20 0xFFFFFFFFFFFFFFFFFFFFFFFFFFFFFFFFFFFFFFFF AND PUSH20 0xFFFFFFFFFFFFFFFFFFFFFFFFFFFFFFFFFFFFFFFF AND DUP2 MSTORE PUSH1 0x20 ADD SWAP1 DUP2 MSTORE PUSH1 0x20 ADD PUSH1 0x0 KECCAK256 PUSH1 0x0 SWAP1 SLOAD SWAP1 PUSH2 0x100 EXP SWAP1 DIV PUSH1 0xFF AND DUP1 ISZERO PUSH2 0x6F30 JUMPI POP PUSH1 0x10 PUSH1 0x0 DUP4 PUSH20 0xFFFFFFFFFFFFFFFFFFFFFFFFFFFFFFFFFFFFFFFF AND PUSH20 0xFFFFFFFFFFFFFFFFFFFFFFFFFFFFFFFFFFFFFFFF AND DUP2 MSTORE PUSH1 0x20 ADD SWAP1 DUP2 MSTORE PUSH1 0x20 ADD PUSH1 0x0 KECCAK256 PUSH1 0x0 SWAP1 SLOAD SWAP1 PUSH2 0x100 EXP SWAP1 DIV PUSH1 0xFF AND JUMPDEST JUMPDEST DUP1 ISZERO PUSH2 0x7030 JUMPI POP PUSH1 0x0 PUSH20 0xFFFFFFFFFFFFFFFFFFFFFFFFFFFFFFFFFFFFFFFF AND DUP3 PUSH20 0xFFFFFFFFFFFFFFFFFFFFFFFFFFFFFFFFFFFFFFFF AND EQ DUP1 PUSH2 0x6F87 JUMPI POP PUSH1 0x0 PUSH1 0x8 PUSH1 0x16 SWAP1 SLOAD SWAP1 PUSH2 0x100 EXP SWAP1 DIV PUSH2 0xFFFF AND PUSH2 0xFFFF AND EQ JUMPDEST DUP1 PUSH2 0x6FDB JUMPI POP PUSH1 0x10 PUSH1 0x0 DUP4 PUSH20 0xFFFFFFFFFFFFFFFFFFFFFFFFFFFFFFFFFFFFFFFF AND PUSH20 0xFFFFFFFFFFFFFFFFFFFFFFFFFFFFFFFFFFFFFFFF AND DUP2 MSTORE PUSH1 0x20 ADD SWAP1 DUP2 MSTORE PUSH1 0x20 ADD PUSH1 0x0 KECCAK256 PUSH1 0x0 SWAP1 SLOAD SWAP1 PUSH2 0x100 EXP SWAP1 DIV PUSH1 0xFF AND JUMPDEST DUP1 PUSH2 0x702F JUMPI POP PUSH1 0xF PUSH1 0x0 DUP5 PUSH20 0xFFFFFFFFFFFFFFFFFFFFFFFFFFFFFFFFFFFFFFFF AND PUSH20 0xFFFFFFFFFFFFFFFFFFFFFFFFFFFFFFFFFFFFFFFF AND DUP2 MSTORE PUSH1 0x20 ADD SWAP1 DUP2 MSTORE PUSH1 0x20 ADD PUSH1 0x0 KECCAK256 PUSH1 0x0 SWAP1 SLOAD SWAP1 PUSH2 0x100 EXP SWAP1 DIV PUSH1 0xFF AND JUMPDEST JUMPDEST ISZERO PUSH2 0x7045 JUMPI PUSH2 0x7040 DUP4 DUP4 DUP4 PUSH2 0x7710 JUMP JUMPDEST PUSH2 0x72FB JUMP JUMPDEST PUSH1 0x0 PUSH2 0x7076 PUSH2 0x2710 PUSH2 0x7068 PUSH2 0x7059 DUP8 PUSH2 0x1EE6 JUMP JUMPDEST DUP6 PUSH2 0x7562 SWAP1 SWAP2 SWAP1 PUSH4 0xFFFFFFFF AND JUMP JUMPDEST PUSH2 0x7578 SWAP1 SWAP2 SWAP1 PUSH4 0xFFFFFFFF AND JUMP JUMPDEST SWAP1 POP PUSH1 0x0 PUSH2 0x70B4 PUSH1 0x64 PUSH2 0x70A6 PUSH1 0x8 PUSH1 0x18 SWAP1 SLOAD SWAP1 PUSH2 0x100 EXP SWAP1 DIV PUSH2 0xFFFF AND PUSH2 0xFFFF AND DUP6 PUSH2 0x7562 SWAP1 SWAP2 SWAP1 PUSH4 0xFFFFFFFF AND JUMP JUMPDEST PUSH2 0x7578 SWAP1 SWAP2 SWAP1 PUSH4 0xFFFFFFFF AND JUMP JUMPDEST SWAP1 POP PUSH1 0x0 PUSH2 0x70F2 PUSH1 0x64 PUSH2 0x70E4 PUSH1 0x8 PUSH1 0x1A SWAP1 SLOAD SWAP1 PUSH2 0x100 EXP SWAP1 DIV PUSH2 0xFFFF AND PUSH2 0xFFFF AND DUP7 PUSH2 0x7562 SWAP1 SWAP2 SWAP1 PUSH4 0xFFFFFFFF AND JUMP JUMPDEST PUSH2 0x7578 SWAP1 SWAP2 SWAP1 PUSH4 0xFFFFFFFF AND JUMP JUMPDEST SWAP1 POP PUSH1 0x0 PUSH2 0x7130 PUSH1 0x64 PUSH2 0x7122 PUSH1 0x8 PUSH1 0x1C SWAP1 SLOAD SWAP1 PUSH2 0x100 EXP SWAP1 DIV PUSH2 0xFFFF AND PUSH2 0xFFFF AND DUP8 PUSH2 0x7562 SWAP1 SWAP2 SWAP1 PUSH4 0xFFFFFFFF AND JUMP JUMPDEST PUSH2 0x7578 SWAP1 SWAP2 SWAP1 PUSH4 0xFFFFFFFF AND JUMP JUMPDEST SWAP1 POP PUSH1 0x0 PUSH2 0x716B PUSH2 0x715C DUP4 PUSH2 0x714E DUP7 DUP9 PUSH2 0x754C SWAP1 SWAP2 SWAP1 PUSH4 0xFFFFFFFF AND JUMP JUMPDEST PUSH2 0x754C SWAP1 SWAP2 SWAP1 PUSH4 0xFFFFFFFF AND JUMP JUMPDEST DUP7 PUSH2 0x7310 SWAP1 SWAP2 SWAP1 PUSH4 0xFFFFFFFF AND JUMP JUMPDEST SWAP1 POP DUP2 DUP4 DUP3 DUP7 PUSH2 0x717B SWAP2 SWAP1 PUSH2 0x9708 JUMP JUMPDEST PUSH2 0x7185 SWAP2 SWAP1 PUSH2 0x9708 JUMP JUMPDEST PUSH2 0x718F SWAP2 SWAP1 PUSH2 0x9708 JUMP JUMPDEST DUP6 EQ PUSH2 0x71D0 JUMPI PUSH1 0x40 MLOAD PUSH32 0x8C379A000000000000000000000000000000000000000000000000000000000 DUP2 MSTORE PUSH1 0x4 ADD PUSH2 0x71C7 SWAP1 PUSH2 0x9062 JUMP JUMPDEST PUSH1 0x40 MLOAD DUP1 SWAP2 SUB SWAP1 REVERT JUMPDEST PUSH1 0x0 PUSH2 0x71E5 DUP7 DUP9 PUSH2 0x7310 SWAP1 SWAP2 SWAP1 PUSH4 0xFFFFFFFF AND JUMP JUMPDEST SWAP1 POP DUP6 DUP2 PUSH2 0x71F3 SWAP2 SWAP1 PUSH2 0x9708 JUMP JUMPDEST DUP8 EQ PUSH2 0x7234 JUMPI PUSH1 0x40 MLOAD PUSH32 0x8C379A000000000000000000000000000000000000000000000000000000000 DUP2 MSTORE PUSH1 0x4 ADD PUSH2 0x722B SWAP1 PUSH2 0x8FC2 JUMP JUMPDEST PUSH1 0x40 MLOAD DUP1 SWAP2 SUB SWAP1 REVERT JUMPDEST PUSH2 0x7255 DUP10 ADDRESS DUP6 DUP8 DUP7 PUSH2 0x7246 SWAP2 SWAP1 PUSH2 0x9708 JUMP JUMPDEST PUSH2 0x7250 SWAP2 SWAP1 PUSH2 0x9708 JUMP JUMPDEST PUSH2 0x7710 JUMP JUMPDEST PUSH2 0x7260 DUP10 DUP10 DUP4 PUSH2 0x7710 JUMP JUMPDEST PUSH2 0x728D DUP10 PUSH1 0xC PUSH1 0x0 SWAP1 SLOAD SWAP1 PUSH2 0x100 EXP SWAP1 DIV PUSH20 0xFFFFFFFFFFFFFFFFFFFFFFFFFFFFFFFFFFFFFFFF AND DUP8 PUSH2 0x7710 JUMP JUMPDEST DUP1 SWAP7 POP DUP6 PUSH1 0x14 PUSH1 0x0 DUP3 DUP3 SLOAD PUSH2 0x72A2 SWAP2 SWAP1 PUSH2 0x9708 JUMP JUMPDEST SWAP3 POP POP DUP2 SWAP1 SSTORE POP DUP4 PUSH1 0x15 PUSH1 0x0 DUP3 DUP3 SLOAD PUSH2 0x72BB SWAP2 SWAP1 PUSH2 0x9708 JUMP JUMPDEST SWAP3 POP POP DUP2 SWAP1 SSTORE POP DUP3 PUSH1 0x16 PUSH1 0x0 DUP3 DUP3 SLOAD PUSH2 0x72D4 SWAP2 SWAP1 PUSH2 0x9708 JUMP JUMPDEST SWAP3 POP POP DUP2 SWAP1 SSTORE POP DUP2 PUSH1 0x18 PUSH1 0x0 DUP3 DUP3 SLOAD PUSH2 0x72ED SWAP2 SWAP1 PUSH2 0x9708 JUMP JUMPDEST SWAP3 POP POP DUP2 SWAP1 SSTORE POP POP POP POP POP POP POP JUMPDEST PUSH2 0x7303 PUSH2 0x2471 JUMP JUMPDEST PUSH1 0x1 PUSH1 0x5 DUP2 SWAP1 SSTORE POP POP POP POP JUMP JUMPDEST PUSH1 0x0 DUP2 DUP4 PUSH2 0x731E SWAP2 SWAP1 PUSH2 0x97E9 JUMP JUMPDEST SWAP1 POP SWAP3 SWAP2 POP POP JUMP JUMPDEST PUSH1 0x0 PUSH20 0xFFFFFFFFFFFFFFFFFFFFFFFFFFFFFFFFFFFFFFFF AND DUP3 PUSH20 0xFFFFFFFFFFFFFFFFFFFFFFFFFFFFFFFFFFFFFFFF AND EQ ISZERO PUSH2 0x7396 JUMPI PUSH1 0x40 MLOAD PUSH32 0x8C379A000000000000000000000000000000000000000000000000000000000 DUP2 MSTORE PUSH1 0x4 ADD PUSH2 0x738D SWAP1 PUSH2 0x94A2 JUMP JUMPDEST PUSH1 0x40 MLOAD DUP1 SWAP2 SUB SWAP1 REVERT JUMPDEST PUSH2 0x73A2 PUSH1 0x0 DUP4 DUP4 PUSH2 0x7991 JUMP JUMPDEST DUP1 PUSH1 0x2 PUSH1 0x0 DUP3 DUP3 SLOAD PUSH2 0x73B4 SWAP2 SWAP1 PUSH2 0x9708 JUMP JUMPDEST SWAP3 POP POP DUP2 SWAP1 SSTORE POP DUP1 PUSH1 0x0 DUP1 DUP5 PUSH20 0xFFFFFFFFFFFFFFFFFFFFFFFFFFFFFFFFFFFFFFFF AND PUSH20 0xFFFFFFFFFFFFFFFFFFFFFFFFFFFFFFFFFFFFFFFF AND DUP2 MSTORE PUSH1 0x20 ADD SWAP1 DUP2 MSTORE PUSH1 0x20 ADD PUSH1 0x0 KECCAK256 PUSH1 0x0 DUP3 DUP3 SLOAD PUSH2 0x7409 SWAP2 SWAP1 PUSH2 0x9708 JUMP JUMPDEST SWAP3 POP POP DUP2 SWAP1 SSTORE POP DUP2 PUSH20 0xFFFFFFFFFFFFFFFFFFFFFFFFFFFFFFFFFFFFFFFF AND PUSH1 0x0 PUSH20 0xFFFFFFFFFFFFFFFFFFFFFFFFFFFFFFFFFFFFFFFF AND PUSH32 0xDDF252AD1BE2C89B69C2B068FC378DAA952BA7F163C4A11628F55A4DF523B3EF DUP4 PUSH1 0x40 MLOAD PUSH2 0x746E SWAP2 SWAP1 PUSH2 0x953D JUMP JUMPDEST PUSH1 0x40 MLOAD DUP1 SWAP2 SUB SWAP1 LOG3 PUSH2 0x7482 PUSH1 0x0 DUP4 DUP4 PUSH2 0x7996 JUMP JUMPDEST POP POP JUMP JUMPDEST PUSH1 0x0 PUSH1 0x6 PUSH1 0x0 SWAP1 SLOAD SWAP1 PUSH2 0x100 EXP SWAP1 DIV PUSH20 0xFFFFFFFFFFFFFFFFFFFFFFFFFFFFFFFFFFFFFFFF AND SWAP1 POP DUP2 PUSH1 0x6 PUSH1 0x0 PUSH2 0x100 EXP DUP2 SLOAD DUP2 PUSH20 0xFFFFFFFFFFFFFFFFFFFFFFFFFFFFFFFFFFFFFFFF MUL NOT AND SWAP1 DUP4 PUSH20 0xFFFFFFFFFFFFFFFFFFFFFFFFFFFFFFFFFFFFFFFF AND MUL OR SWAP1 SSTORE POP DUP2 PUSH20 0xFFFFFFFFFFFFFFFFFFFFFFFFFFFFFFFFFFFFFFFF AND DUP2 PUSH20 0xFFFFFFFFFFFFFFFFFFFFFFFFFFFFFFFFFFFFFFFF AND PUSH32 0x8BE0079C531659141344CD1FD0A4F28419497F9722A3DAAFE3B4186F6B6457E0 PUSH1 0x40 MLOAD PUSH1 0x40 MLOAD DUP1 SWAP2 SUB SWAP1 LOG3 POP POP JUMP JUMPDEST PUSH1 0x0 DUP2 DUP4 PUSH2 0x755A SWAP2 SWAP1 PUSH2 0x9708 JUMP JUMPDEST SWAP1 POP SWAP3 SWAP2 POP POP JUMP JUMPDEST PUSH1 0x0 DUP2 DUP4 PUSH2 0x7570 SWAP2 SWAP1 PUSH2 0x978F JUMP JUMPDEST SWAP1 POP SWAP3 SWAP2 POP POP JUMP JUMPDEST PUSH1 0x0 DUP2 DUP4 PUSH2 0x7586 SWAP2 SWAP1 PUSH2 0x975E JUMP JUMPDEST SWAP1 POP SWAP3 SWAP2 POP POP JUMP JUMPDEST PUSH1 0x0 PUSH2 0x7599 DUP4 PUSH2 0x799B JUMP JUMPDEST SWAP1 POP PUSH1 0x0 DUP2 GT ISZERO PUSH2 0x75AF JUMPI PUSH2 0x75AE DUP3 DUP3 PUSH2 0x7AB3 JUMP JUMPDEST JUMPDEST POP POP POP JUMP JUMPDEST PUSH1 0x0 DUP4 SWAP1 POP PUSH1 0x0 PUSH2 0x75C4 DUP5 PUSH2 0x799B JUMP JUMPDEST SWAP1 POP PUSH1 0x0 DUP3 PUSH20 0xFFFFFFFFFFFFFFFFFFFFFFFFFFFFFFFFFFFFFFFF AND PUSH4 0x70A08231 ADDRESS PUSH1 0x40 MLOAD DUP3 PUSH4 0xFFFFFFFF AND PUSH1 0xE0 SHL DUP2 MSTORE PUSH1 0x4 ADD PUSH2 0x7601 SWAP2 SWAP1 PUSH2 0x8D2E JUMP JUMPDEST PUSH1 0x20 PUSH1 0x40 MLOAD DUP1 DUP4 SUB DUP2 DUP7 DUP1 EXTCODESIZE ISZERO DUP1 ISZERO PUSH2 0x7619 JUMPI PUSH1 0x0 DUP1 REVERT JUMPDEST POP GAS STATICCALL ISZERO DUP1 ISZERO PUSH2 0x762D JUMPI RETURNDATASIZE PUSH1 0x0 DUP1 RETURNDATACOPY RETURNDATASIZE PUSH1 0x0 REVERT JUMPDEST POP POP POP POP PUSH1 0x40 MLOAD RETURNDATASIZE PUSH1 0x1F NOT PUSH1 0x1F DUP3 ADD AND DUP3 ADD DUP1 PUSH1 0x40 MSTORE POP DUP2 ADD SWAP1 PUSH2 0x7651 SWAP2 SWAP1 PUSH2 0x84F8 JUMP JUMPDEST SWAP1 POP PUSH2 0x765D DUP3 DUP8 PUSH2 0x7BA1 JUMP JUMPDEST PUSH1 0x0 PUSH2 0x76FA DUP3 DUP6 PUSH20 0xFFFFFFFFFFFFFFFFFFFFFFFFFFFFFFFFFFFFFFFF AND PUSH4 0x70A08231 ADDRESS PUSH1 0x40 MLOAD DUP3 PUSH4 0xFFFFFFFF AND PUSH1 0xE0 SHL DUP2 MSTORE PUSH1 0x4 ADD PUSH2 0x769C SWAP2 SWAP1 PUSH2 0x8D2E JUMP JUMPDEST PUSH1 0x20 PUSH1 0x40 MLOAD DUP1 DUP4 SUB DUP2 DUP7 DUP1 EXTCODESIZE ISZERO DUP1 ISZERO PUSH2 0x76B4 JUMPI PUSH1 0x0 DUP1 REVERT JUMPDEST POP GAS STATICCALL ISZERO DUP1 ISZERO PUSH2 0x76C8 JUMPI RETURNDATASIZE PUSH1 0x0 DUP1 RETURNDATACOPY RETURNDATASIZE PUSH1 0x0 REVERT JUMPDEST POP POP POP POP PUSH1 0x40 MLOAD RETURNDATASIZE PUSH1 0x1F NOT PUSH1 0x1F DUP3 ADD AND DUP3 ADD DUP1 PUSH1 0x40 MSTORE POP DUP2 ADD SWAP1 PUSH2 0x76EC SWAP2 SWAP1 PUSH2 0x84F8 JUMP JUMPDEST PUSH2 0x7310 SWAP1 SWAP2 SWAP1 PUSH4 0xFFFFFFFF AND JUMP JUMPDEST SWAP1 POP PUSH2 0x7707 DUP6 DUP3 DUP10 PUSH2 0x7DC6 JUMP JUMPDEST POP POP POP POP POP POP POP JUMP JUMPDEST PUSH1 0x0 PUSH20 0xFFFFFFFFFFFFFFFFFFFFFFFFFFFFFFFFFFFFFFFF AND DUP4 PUSH20 0xFFFFFFFFFFFFFFFFFFFFFFFFFFFFFFFFFFFFFFFF AND EQ ISZERO PUSH2 0x7780 JUMPI PUSH1 0x40 MLOAD PUSH32 0x8C379A000000000000000000000000000000000000000000000000000000000 DUP2 MSTORE PUSH1 0x4 ADD PUSH2 0x7777 SWAP1 PUSH2 0x9322 JUMP JUMPDEST PUSH1 0x40 MLOAD DUP1 SWAP2 SUB SWAP1 REVERT JUMPDEST PUSH1 0x0 PUSH20 0xFFFFFFFFFFFFFFFFFFFFFFFFFFFFFFFFFFFFFFFF AND DUP3 PUSH20 0xFFFFFFFFFFFFFFFFFFFFFFFFFFFFFFFFFFFFFFFF AND EQ ISZERO PUSH2 0x77F0 JUMPI PUSH1 0x40 MLOAD PUSH32 0x8C379A000000000000000000000000000000000000000000000000000000000 DUP2 MSTORE PUSH1 0x4 ADD PUSH2 0x77E7 SWAP1 PUSH2 0x8F62 JUMP JUMPDEST PUSH1 0x40 MLOAD DUP1 SWAP2 SUB SWAP1 REVERT JUMPDEST PUSH2 0x77FB DUP4 DUP4 DUP4 PUSH2 0x7991 JUMP JUMPDEST PUSH1 0x0 DUP1 PUSH1 0x0 DUP6 PUSH20 0xFFFFFFFFFFFFFFFFFFFFFFFFFFFFFFFFFFFFFFFF AND PUSH20 0xFFFFFFFFFFFFFFFFFFFFFFFFFFFFFFFFFFFFFFFF AND DUP2 MSTORE PUSH1 0x20 ADD SWAP1 DUP2 MSTORE PUSH1 0x20 ADD PUSH1 0x0 KECCAK256 SLOAD SWAP1 POP DUP2 DUP2 LT ISZERO PUSH2 0x7881 JUMPI PUSH1 0x40 MLOAD PUSH32 0x8C379A000000000000000000000000000000000000000000000000000000000 DUP2 MSTORE PUSH1 0x4 ADD PUSH2 0x7878 SWAP1 PUSH2 0x9082 JUMP JUMPDEST PUSH1 0x40 MLOAD DUP1 SWAP2 SUB SWAP1 REVERT JUMPDEST DUP2 DUP2 SUB PUSH1 0x0 DUP1 DUP7 PUSH20 0xFFFFFFFFFFFFFFFFFFFFFFFFFFFFFFFFFFFFFFFF AND PUSH20 0xFFFFFFFFFFFFFFFFFFFFFFFFFFFFFFFFFFFFFFFF AND DUP2 MSTORE PUSH1 0x20 ADD SWAP1 DUP2 MSTORE PUSH1 0x20 ADD PUSH1 0x0 KECCAK256 DUP2 SWAP1 SSTORE POP DUP2 PUSH1 0x0 DUP1 DUP6 PUSH20 0xFFFFFFFFFFFFFFFFFFFFFFFFFFFFFFFFFFFFFFFF AND PUSH20 0xFFFFFFFFFFFFFFFFFFFFFFFFFFFFFFFFFFFFFFFF AND DUP2 MSTORE PUSH1 0x20 ADD SWAP1 DUP2 MSTORE PUSH1 0x20 ADD PUSH1 0x0 KECCAK256 PUSH1 0x0 DUP3 DUP3 SLOAD PUSH2 0x7914 SWAP2 SWAP1 PUSH2 0x9708 JUMP JUMPDEST SWAP3 POP POP DUP2 SWAP1 SSTORE POP DUP3 PUSH20 0xFFFFFFFFFFFFFFFFFFFFFFFFFFFFFFFFFFFFFFFF AND DUP5 PUSH20 0xFFFFFFFFFFFFFFFFFFFFFFFFFFFFFFFFFFFFFFFF AND PUSH32 0xDDF252AD1BE2C89B69C2B068FC378DAA952BA7F163C4A11628F55A4DF523B3EF DUP5 PUSH1 0x40 MLOAD PUSH2 0x7978 SWAP2 SWAP1 PUSH2 0x953D JUMP JUMPDEST PUSH1 0x40 MLOAD DUP1 SWAP2 SUB SWAP1 LOG3 PUSH2 0x798B DUP5 DUP5 DUP5 PUSH2 0x7996 JUMP JUMPDEST POP POP POP POP JUMP JUMPDEST POP POP POP JUMP JUMPDEST POP POP POP JUMP JUMPDEST PUSH1 0x0 DUP1 SELFBALANCE SWAP1 POP PUSH2 0x79AA DUP4 PUSH2 0x7F68 JUMP JUMPDEST PUSH1 0x0 PUSH2 0x79BF DUP3 SELFBALANCE PUSH2 0x7310 SWAP1 SWAP2 SWAP1 PUSH4 0xFFFFFFFF AND JUMP JUMPDEST SWAP1 POP PUSH1 0x0 PUSH2 0x79FD PUSH1 0x64 PUSH2 0x79EF PUSH1 0x8 PUSH1 0x1A SWAP1 SLOAD SWAP1 PUSH2 0x100 EXP SWAP1 DIV PUSH2 0xFFFF AND PUSH2 0xFFFF AND DUP6 PUSH2 0x7562 SWAP1 SWAP2 SWAP1 PUSH4 0xFFFFFFFF AND JUMP JUMPDEST PUSH2 0x7578 SWAP1 SWAP2 SWAP1 PUSH4 0xFFFFFFFF AND JUMP JUMPDEST SWAP1 POP PUSH1 0x0 PUSH2 0x7A3B PUSH1 0x64 PUSH2 0x7A2D PUSH1 0x8 PUSH1 0x1C SWAP1 SLOAD SWAP1 PUSH2 0x100 EXP SWAP1 DIV PUSH2 0xFFFF AND PUSH2 0xFFFF AND DUP7 PUSH2 0x7562 SWAP1 SWAP2 SWAP1 PUSH4 0xFFFFFFFF AND JUMP JUMPDEST PUSH2 0x7578 SWAP1 SWAP2 SWAP1 PUSH4 0xFFFFFFFF AND JUMP JUMPDEST SWAP1 POP PUSH2 0x7A69 PUSH1 0xA PUSH1 0x0 SWAP1 SLOAD SWAP1 PUSH2 0x100 EXP SWAP1 DIV PUSH20 0xFFFFFFFFFFFFFFFFFFFFFFFFFFFFFFFFFFFFFFFF AND DUP4 PUSH2 0x65CA JUMP JUMPDEST PUSH2 0x7A95 PUSH1 0xB PUSH1 0x0 SWAP1 SLOAD SWAP1 PUSH2 0x100 EXP SWAP1 DIV PUSH20 0xFFFFFFFFFFFFFFFFFFFFFFFFFFFFFFFFFFFFFFFF AND DUP3 PUSH2 0x65CA JUMP JUMPDEST PUSH2 0x7AA8 DUP5 SELFBALANCE PUSH2 0x7310 SWAP1 SWAP2 SWAP1 PUSH4 0xFFFFFFFF AND JUMP JUMPDEST SWAP5 POP POP POP POP POP SWAP2 SWAP1 POP JUMP JUMPDEST PUSH2 0x7AE0 ADDRESS PUSH1 0xE PUSH1 0x0 SWAP1 SLOAD SWAP1 PUSH2 0x100 EXP SWAP1 DIV PUSH20 0xFFFFFFFFFFFFFFFFFFFFFFFFFFFFFFFFFFFFFFFF AND DUP5 PUSH2 0x63FF JUMP JUMPDEST PUSH1 0xE PUSH1 0x0 SWAP1 SLOAD SWAP1 PUSH2 0x100 EXP SWAP1 DIV PUSH20 0xFFFFFFFFFFFFFFFFFFFFFFFFFFFFFFFFFFFFFFFF AND PUSH20 0xFFFFFFFFFFFFFFFFFFFFFFFFFFFFFFFFFFFFFFFF AND PUSH4 0xF305D719 DUP3 ADDRESS DUP6 PUSH1 0x0 DUP1 PUSH1 0x0 TIMESTAMP PUSH1 0x40 MLOAD DUP9 PUSH4 0xFFFFFFFF AND PUSH1 0xE0 SHL DUP2 MSTORE PUSH1 0x4 ADD PUSH2 0x7B48 SWAP7 SWAP6 SWAP5 SWAP4 SWAP3 SWAP2 SWAP1 PUSH2 0x8E42 JUMP JUMPDEST PUSH1 0x60 PUSH1 0x40 MLOAD DUP1 DUP4 SUB DUP2 DUP6 DUP9 DUP1 EXTCODESIZE ISZERO DUP1 ISZERO PUSH2 0x7B61 JUMPI PUSH1 0x0 DUP1 REVERT JUMPDEST POP GAS CALL ISZERO DUP1 ISZERO PUSH2 0x7B75 JUMPI RETURNDATASIZE PUSH1 0x0 DUP1 RETURNDATACOPY RETURNDATASIZE PUSH1 0x0 REVERT JUMPDEST POP POP POP POP POP PUSH1 0x40 MLOAD RETURNDATASIZE PUSH1 0x1F NOT PUSH1 0x1F DUP3 ADD AND DUP3 ADD DUP1 PUSH1 0x40 MSTORE POP DUP2 ADD SWAP1 PUSH2 0x7B9A SWAP2 SWAP1 PUSH2 0x8525 JUMP JUMPDEST POP POP POP POP POP JUMP JUMPDEST PUSH1 0x0 PUSH1 0x2 PUSH8 0xFFFFFFFFFFFFFFFF DUP2 GT ISZERO PUSH2 0x7BBE JUMPI PUSH2 0x7BBD PUSH2 0x9A4D JUMP JUMPDEST JUMPDEST PUSH1 0x40 MLOAD SWAP1 DUP1 DUP3 MSTORE DUP1 PUSH1 0x20 MUL PUSH1 0x20 ADD DUP3 ADD PUSH1 0x40 MSTORE DUP1 ISZERO PUSH2 0x7BEC JUMPI DUP2 PUSH1 0x20 ADD PUSH1 0x20 DUP3 MUL DUP1 CALLDATASIZE DUP4 CALLDATACOPY DUP1 DUP3 ADD SWAP2 POP POP SWAP1 POP JUMPDEST POP SWAP1 POP PUSH1 0xE PUSH1 0x0 SWAP1 SLOAD SWAP1 PUSH2 0x100 EXP SWAP1 DIV PUSH20 0xFFFFFFFFFFFFFFFFFFFFFFFFFFFFFFFFFFFFFFFF AND PUSH20 0xFFFFFFFFFFFFFFFFFFFFFFFFFFFFFFFFFFFFFFFF AND PUSH4 0xAD5C4648 PUSH1 0x40 MLOAD DUP2 PUSH4 0xFFFFFFFF AND PUSH1 0xE0 SHL DUP2 MSTORE PUSH1 0x4 ADD PUSH1 0x20 PUSH1 0x40 MLOAD DUP1 DUP4 SUB DUP2 DUP7 DUP1 EXTCODESIZE ISZERO DUP1 ISZERO PUSH2 0x7C57 JUMPI PUSH1 0x0 DUP1 REVERT JUMPDEST POP GAS STATICCALL ISZERO DUP1 ISZERO PUSH2 0x7C6B JUMPI RETURNDATASIZE PUSH1 0x0 DUP1 RETURNDATACOPY RETURNDATASIZE PUSH1 0x0 REVERT JUMPDEST POP POP POP POP PUSH1 0x40 MLOAD RETURNDATASIZE PUSH1 0x1F NOT PUSH1 0x1F DUP3 ADD AND DUP3 ADD DUP1 PUSH1 0x40 MSTORE POP DUP2 ADD SWAP1 PUSH2 0x7C8F SWAP2 SWAP1 PUSH2 0x82D5 JUMP JUMPDEST DUP2 PUSH1 0x0 DUP2 MLOAD DUP2 LT PUSH2 0x7CA3 JUMPI PUSH2 0x7CA2 PUSH2 0x9A1E JUMP JUMPDEST JUMPDEST PUSH1 0x20 MUL PUSH1 0x20 ADD ADD SWAP1 PUSH20 0xFFFFFFFFFFFFFFFFFFFFFFFFFFFFFFFFFFFFFFFF AND SWAP1 DUP2 PUSH20 0xFFFFFFFFFFFFFFFFFFFFFFFFFFFFFFFFFFFFFFFF AND DUP2 MSTORE POP POP DUP2 DUP2 PUSH1 0x1 DUP2 MLOAD DUP2 LT PUSH2 0x7CF2 JUMPI PUSH2 0x7CF1 PUSH2 0x9A1E JUMP JUMPDEST JUMPDEST PUSH1 0x20 MUL PUSH1 0x20 ADD ADD SWAP1 PUSH20 0xFFFFFFFFFFFFFFFFFFFFFFFFFFFFFFFFFFFFFFFF AND SWAP1 DUP2 PUSH20 0xFFFFFFFFFFFFFFFFFFFFFFFFFFFFFFFFFFFFFFFF AND DUP2 MSTORE POP POP PUSH1 0xE PUSH1 0x0 SWAP1 SLOAD SWAP1 PUSH2 0x100 EXP SWAP1 DIV PUSH20 0xFFFFFFFFFFFFFFFFFFFFFFFFFFFFFFFFFFFFFFFF AND PUSH20 0xFFFFFFFFFFFFFFFFFFFFFFFFFFFFFFFFFFFFFFFF AND PUSH4 0xB6F9DE95 DUP5 PUSH1 0x0 DUP5 ADDRESS TIMESTAMP PUSH1 0x40 MLOAD DUP7 PUSH4 0xFFFFFFFF AND PUSH1 0xE0 SHL DUP2 MSTORE PUSH1 0x4 ADD PUSH2 0x7D8F SWAP5 SWAP4 SWAP3 SWAP2 SWAP1 PUSH2 0x8EF4 JUMP JUMPDEST PUSH1 0x0 PUSH1 0x40 MLOAD DUP1 DUP4 SUB DUP2 DUP6 DUP9 DUP1 EXTCODESIZE ISZERO DUP1 ISZERO PUSH2 0x7DA8 JUMPI PUSH1 0x0 DUP1 REVERT JUMPDEST POP GAS CALL ISZERO DUP1 ISZERO PUSH2 0x7DBC JUMPI RETURNDATASIZE PUSH1 0x0 DUP1 RETURNDATACOPY RETURNDATASIZE PUSH1 0x0 REVERT JUMPDEST POP POP POP POP POP POP POP POP JUMP JUMPDEST PUSH2 0x7DF3 ADDRESS PUSH1 0xE PUSH1 0x0 SWAP1 SLOAD SWAP1 PUSH2 0x100 EXP SWAP1 DIV PUSH20 0xFFFFFFFFFFFFFFFFFFFFFFFFFFFFFFFFFFFFFFFF AND DUP6 PUSH2 0x63FF JUMP JUMPDEST DUP1 PUSH20 0xFFFFFFFFFFFFFFFFFFFFFFFFFFFFFFFFFFFFFFFF AND PUSH4 0x95EA7B3 PUSH1 0xE PUSH1 0x0 SWAP1 SLOAD SWAP1 PUSH2 0x100 EXP SWAP1 DIV PUSH20 0xFFFFFFFFFFFFFFFFFFFFFFFFFFFFFFFFFFFFFFFF AND DUP5 PUSH1 0x40 MLOAD DUP4 PUSH4 0xFFFFFFFF AND PUSH1 0xE0 SHL DUP2 MSTORE PUSH1 0x4 ADD PUSH2 0x7E50 SWAP3 SWAP2 SWAP1 PUSH2 0x8E19 JUMP JUMPDEST PUSH1 0x20 PUSH1 0x40 MLOAD DUP1 DUP4 SUB DUP2 PUSH1 0x0 DUP8 DUP1 EXTCODESIZE ISZERO DUP1 ISZERO PUSH2 0x7E6A JUMPI PUSH1 0x0 DUP1 REVERT JUMPDEST POP GAS CALL ISZERO DUP1 ISZERO PUSH2 0x7E7E JUMPI RETURNDATASIZE PUSH1 0x0 DUP1 RETURNDATACOPY RETURNDATASIZE PUSH1 0x0 REVERT JUMPDEST POP POP POP POP PUSH1 0x40 MLOAD RETURNDATASIZE PUSH1 0x1F NOT PUSH1 0x1F DUP3 ADD AND DUP3 ADD DUP1 PUSH1 0x40 MSTORE POP DUP2 ADD SWAP1 PUSH2 0x7EA2 SWAP2 SWAP1 PUSH2 0x83D5 JUMP JUMPDEST POP PUSH1 0xE PUSH1 0x0 SWAP1 SLOAD SWAP1 PUSH2 0x100 EXP SWAP1 DIV PUSH20 0xFFFFFFFFFFFFFFFFFFFFFFFFFFFFFFFFFFFFFFFF AND PUSH20 0xFFFFFFFFFFFFFFFFFFFFFFFFFFFFFFFFFFFFFFFF AND PUSH4 0xE8E33700 ADDRESS DUP4 DUP7 DUP7 PUSH1 0x0 DUP1 PUSH1 0x0 TIMESTAMP PUSH1 0x40 MLOAD DUP10 PUSH4 0xFFFFFFFF AND PUSH1 0xE0 SHL DUP2 MSTORE PUSH1 0x4 ADD PUSH2 0x7F0E SWAP9 SWAP8 SWAP7 SWAP6 SWAP5 SWAP4 SWAP3 SWAP2 SWAP1 PUSH2 0x8D72 JUMP JUMPDEST PUSH1 0x60 PUSH1 0x40 MLOAD DUP1 DUP4 SUB DUP2 PUSH1 0x0 DUP8 DUP1 EXTCODESIZE ISZERO DUP1 ISZERO PUSH2 0x7F28 JUMPI PUSH1 0x0 DUP1 REVERT JUMPDEST POP GAS CALL ISZERO DUP1 ISZERO PUSH2 0x7F3C JUMPI RETURNDATASIZE PUSH1 0x0 DUP1 RETURNDATACOPY RETURNDATASIZE PUSH1 0x0 REVERT JUMPDEST POP POP POP POP PUSH1 0x40 MLOAD RETURNDATASIZE PUSH1 0x1F NOT PUSH1 0x1F DUP3 ADD AND DUP3 ADD DUP1 PUSH1 0x40 MSTORE POP DUP2 ADD SWAP1 PUSH2 0x7F60 SWAP2 SWAP1 PUSH2 0x8525 JUMP JUMPDEST POP POP POP POP POP POP JUMP JUMPDEST PUSH1 0x0 PUSH1 0x2 PUSH8 0xFFFFFFFFFFFFFFFF DUP2 GT ISZERO PUSH2 0x7F85 JUMPI PUSH2 0x7F84 PUSH2 0x9A4D JUMP JUMPDEST JUMPDEST PUSH1 0x40 MLOAD SWAP1 DUP1 DUP3 MSTORE DUP1 PUSH1 0x20 MUL PUSH1 0x20 ADD DUP3 ADD PUSH1 0x40 MSTORE DUP1 ISZERO PUSH2 0x7FB3 JUMPI DUP2 PUSH1 0x20 ADD PUSH1 0x20 DUP3 MUL DUP1 CALLDATASIZE DUP4 CALLDATACOPY DUP1 DUP3 ADD SWAP2 POP POP SWAP1 POP JUMPDEST POP SWAP1 POP ADDRESS DUP2 PUSH1 0x0 DUP2 MLOAD DUP2 LT PUSH2 0x7FCB JUMPI PUSH2 0x7FCA PUSH2 0x9A1E JUMP JUMPDEST JUMPDEST PUSH1 0x20 MUL PUSH1 0x20 ADD ADD SWAP1 PUSH20 0xFFFFFFFFFFFFFFFFFFFFFFFFFFFFFFFFFFFFFFFF AND SWAP1 DUP2 PUSH20 0xFFFFFFFFFFFFFFFFFFFFFFFFFFFFFFFFFFFFFFFF AND DUP2 MSTORE POP POP PUSH1 0xE PUSH1 0x0 SWAP1 SLOAD SWAP1 PUSH2 0x100 EXP SWAP1 DIV PUSH20 0xFFFFFFFFFFFFFFFFFFFFFFFFFFFFFFFFFFFFFFFF AND PUSH20 0xFFFFFFFFFFFFFFFFFFFFFFFFFFFFFFFFFFFFFFFF AND PUSH4 0xAD5C4648 PUSH1 0x40 MLOAD DUP2 PUSH4 0xFFFFFFFF AND PUSH1 0xE0 SHL DUP2 MSTORE PUSH1 0x4 ADD PUSH1 0x20 PUSH1 0x40 MLOAD DUP1 DUP4 SUB DUP2 DUP7 DUP1 EXTCODESIZE ISZERO DUP1 ISZERO PUSH2 0x806D JUMPI PUSH1 0x0 DUP1 REVERT JUMPDEST POP GAS STATICCALL ISZERO DUP1 ISZERO PUSH2 0x8081 JUMPI RETURNDATASIZE PUSH1 0x0 DUP1 RETURNDATACOPY RETURNDATASIZE PUSH1 0x0 REVERT JUMPDEST POP POP POP POP PUSH1 0x40 MLOAD RETURNDATASIZE PUSH1 0x1F NOT PUSH1 0x1F DUP3 ADD AND DUP3 ADD DUP1 PUSH1 0x40 MSTORE POP DUP2 ADD SWAP1 PUSH2 0x80A5 SWAP2 SWAP1 PUSH2 0x82D5 JUMP JUMPDEST DUP2 PUSH1 0x1 DUP2 MLOAD DUP2 LT PUSH2 0x80B9 JUMPI PUSH2 0x80B8 PUSH2 0x9A1E JUMP JUMPDEST JUMPDEST PUSH1 0x20 MUL PUSH1 0x20 ADD ADD SWAP1 PUSH20 0xFFFFFFFFFFFFFFFFFFFFFFFFFFFFFFFFFFFFFFFF AND SWAP1 DUP2 PUSH20 0xFFFFFFFFFFFFFFFFFFFFFFFFFFFFFFFFFFFFFFFF AND DUP2 MSTORE POP POP PUSH2 0x8120 ADDRESS PUSH1 0xE PUSH1 0x0 SWAP1 SLOAD SWAP1 PUSH2 0x100 EXP SWAP1 DIV PUSH20 0xFFFFFFFFFFFFFFFFFFFFFFFFFFFFFFFFFFFFFFFF AND DUP5 PUSH2 0x63FF JUMP JUMPDEST PUSH1 0xE PUSH1 0x0 SWAP1 SLOAD SWAP1 PUSH2 0x100 EXP SWAP1 DIV PUSH20 0xFFFFFFFFFFFFFFFFFFFFFFFFFFFFFFFFFFFFFFFF AND PUSH20 0xFFFFFFFFFFFFFFFFFFFFFFFFFFFFFFFFFFFFFFFF AND PUSH4 0x791AC947 DUP4 PUSH1 0x0 DUP5 ADDRESS TIMESTAMP PUSH1 0x40 MLOAD DUP7 PUSH4 0xFFFFFFFF AND PUSH1 0xE0 SHL DUP2 MSTORE PUSH1 0x4 ADD PUSH2 0x8184 SWAP6 SWAP5 SWAP4 SWAP3 SWAP2 SWAP1 PUSH2 0x9558 JUMP JUMPDEST PUSH1 0x0 PUSH1 0x40 MLOAD DUP1 DUP4 SUB DUP2 PUSH1 0x0 DUP8 DUP1 EXTCODESIZE ISZERO DUP1 ISZERO PUSH2 0x819E JUMPI PUSH1 0x0 DUP1 REVERT JUMPDEST POP GAS CALL ISZERO DUP1 ISZERO PUSH2 0x81B2 JUMPI RETURNDATASIZE PUSH1 0x0 DUP1 RETURNDATACOPY RETURNDATASIZE PUSH1 0x0 REVERT JUMPDEST POP POP POP POP POP POP JUMP JUMPDEST PUSH1 0x0 PUSH2 0x81CD PUSH2 0x81C8 DUP5 PUSH2 0x9629 JUMP JUMPDEST PUSH2 0x9604 JUMP JUMPDEST SWAP1 POP DUP3 DUP2 MSTORE PUSH1 0x20 DUP2 ADD DUP5 DUP5 DUP5 ADD GT ISZERO PUSH2 0x81E9 JUMPI PUSH2 0x81E8 PUSH2 0x9A81 JUMP JUMPDEST JUMPDEST PUSH2 0x81F4 DUP5 DUP3 DUP6 PUSH2 0x98EC JUMP JUMPDEST POP SWAP4 SWAP3 POP POP POP JUMP JUMPDEST PUSH1 0x0 DUP2 CALLDATALOAD SWAP1 POP PUSH2 0x820B DUP2 PUSH2 0xA9FA JUMP JUMPDEST SWAP3 SWAP2 POP POP JUMP JUMPDEST PUSH1 0x0 DUP2 MLOAD SWAP1 POP PUSH2 0x8220 DUP2 PUSH2 0xA9FA JUMP JUMPDEST SWAP3 SWAP2 POP POP JUMP JUMPDEST PUSH1 0x0 DUP2 MLOAD SWAP1 POP PUSH2 0x8235 DUP2 PUSH2 0xAA11 JUMP JUMPDEST SWAP3 SWAP2 POP POP JUMP JUMPDEST PUSH1 0x0 DUP3 PUSH1 0x1F DUP4 ADD SLT PUSH2 0x8250 JUMPI PUSH2 0x824F PUSH2 0x9A7C JUMP JUMPDEST JUMPDEST DUP2 CALLDATALOAD PUSH2 0x8260 DUP5 DUP3 PUSH1 0x20 DUP7 ADD PUSH2 0x81BA JUMP JUMPDEST SWAP2 POP POP SWAP3 SWAP2 POP POP JUMP JUMPDEST PUSH1 0x0 DUP2 CALLDATALOAD SWAP1 POP PUSH2 0x8278 DUP2 PUSH2 0xAA28 JUMP JUMPDEST SWAP3 SWAP2 POP POP JUMP JUMPDEST PUSH1 0x0 DUP2 CALLDATALOAD SWAP1 POP PUSH2 0x828D DUP2 PUSH2 0xAA3F JUMP JUMPDEST SWAP3 SWAP2 POP POP JUMP JUMPDEST PUSH1 0x0 DUP2 MLOAD SWAP1 POP PUSH2 0x82A2 DUP2 PUSH2 0xAA3F JUMP JUMPDEST SWAP3 SWAP2 POP POP JUMP JUMPDEST PUSH1 0x0 PUSH1 0x20 DUP3 DUP5 SUB SLT ISZERO PUSH2 0x82BE JUMPI PUSH2 0x82BD PUSH2 0x9A8B JUMP JUMPDEST JUMPDEST PUSH1 0x0 PUSH2 0x82CC DUP5 DUP3 DUP6 ADD PUSH2 0x81FC JUMP JUMPDEST SWAP2 POP POP SWAP3 SWAP2 POP POP JUMP JUMPDEST PUSH1 0x0 PUSH1 0x20 DUP3 DUP5 SUB SLT ISZERO PUSH2 0x82EB JUMPI PUSH2 0x82EA PUSH2 0x9A8B JUMP JUMPDEST JUMPDEST PUSH1 0x0 PUSH2 0x82F9 DUP5 DUP3 DUP6 ADD PUSH2 0x8211 JUMP JUMPDEST SWAP2 POP POP SWAP3 SWAP2 POP POP JUMP JUMPDEST PUSH1 0x0 DUP1 PUSH1 0x40 DUP4 DUP6 SUB SLT ISZERO PUSH2 0x8319 JUMPI PUSH2 0x8318 PUSH2 0x9A8B JUMP JUMPDEST JUMPDEST PUSH1 0x0 PUSH2 0x8327 DUP6 DUP3 DUP7 ADD PUSH2 0x81FC JUMP JUMPDEST SWAP3 POP POP PUSH1 0x20 PUSH2 0x8338 DUP6 DUP3 DUP7 ADD PUSH2 0x81FC JUMP JUMPDEST SWAP2 POP POP SWAP3 POP SWAP3 SWAP1 POP JUMP JUMPDEST PUSH1 0x0 DUP1 PUSH1 0x0 PUSH1 0x60 DUP5 DUP7 SUB SLT ISZERO PUSH2 0x835B JUMPI PUSH2 0x835A PUSH2 0x9A8B JUMP JUMPDEST JUMPDEST PUSH1 0x0 PUSH2 0x8369 DUP7 DUP3 DUP8 ADD PUSH2 0x81FC JUMP JUMPDEST SWAP4 POP POP PUSH1 0x20 PUSH2 0x837A DUP7 DUP3 DUP8 ADD PUSH2 0x81FC JUMP JUMPDEST SWAP3 POP POP PUSH1 0x40 PUSH2 0x838B DUP7 DUP3 DUP8 ADD PUSH2 0x827E JUMP JUMPDEST SWAP2 POP POP SWAP3 POP SWAP3 POP SWAP3 JUMP JUMPDEST PUSH1 0x0 DUP1 PUSH1 0x40 DUP4 DUP6 SUB SLT ISZERO PUSH2 0x83AC JUMPI PUSH2 0x83AB PUSH2 0x9A8B JUMP JUMPDEST JUMPDEST PUSH1 0x0 PUSH2 0x83BA DUP6 DUP3 DUP7 ADD PUSH2 0x81FC JUMP JUMPDEST SWAP3 POP POP PUSH1 0x20 PUSH2 0x83CB DUP6 DUP3 DUP7 ADD PUSH2 0x827E JUMP JUMPDEST SWAP2 POP POP SWAP3 POP SWAP3 SWAP1 POP JUMP JUMPDEST PUSH1 0x0 PUSH1 0x20 DUP3 DUP5 SUB SLT ISZERO PUSH2 0x83EB JUMPI PUSH2 0x83EA PUSH2 0x9A8B JUMP JUMPDEST JUMPDEST PUSH1 0x0 PUSH2 0x83F9 DUP5 DUP3 DUP6 ADD PUSH2 0x8226 JUMP JUMPDEST SWAP2 POP POP SWAP3 SWAP2 POP POP JUMP JUMPDEST PUSH1 0x0 PUSH1 0x20 DUP3 DUP5 SUB SLT ISZERO PUSH2 0x8418 JUMPI PUSH2 0x8417 PUSH2 0x9A8B JUMP JUMPDEST JUMPDEST PUSH1 0x0 DUP3 ADD CALLDATALOAD PUSH8 0xFFFFFFFFFFFFFFFF DUP2 GT ISZERO PUSH2 0x8436 JUMPI PUSH2 0x8435 PUSH2 0x9A86 JUMP JUMPDEST JUMPDEST PUSH2 0x8442 DUP5 DUP3 DUP6 ADD PUSH2 0x823B JUMP JUMPDEST SWAP2 POP POP SWAP3 SWAP2 POP POP JUMP JUMPDEST PUSH1 0x0 PUSH1 0x20 DUP3 DUP5 SUB SLT ISZERO PUSH2 0x8461 JUMPI PUSH2 0x8460 PUSH2 0x9A8B JUMP JUMPDEST JUMPDEST PUSH1 0x0 PUSH2 0x846F DUP5 DUP3 DUP6 ADD PUSH2 0x8269 JUMP JUMPDEST SWAP2 POP POP SWAP3 SWAP2 POP POP JUMP JUMPDEST PUSH1 0x0 DUP1 PUSH1 0x0 PUSH1 0x60 DUP5 DUP7 SUB SLT ISZERO PUSH2 0x8491 JUMPI PUSH2 0x8490 PUSH2 0x9A8B JUMP JUMPDEST JUMPDEST PUSH1 0x0 PUSH2 0x849F DUP7 DUP3 DUP8 ADD PUSH2 0x8269 JUMP JUMPDEST SWAP4 POP POP PUSH1 0x20 PUSH2 0x84B0 DUP7 DUP3 DUP8 ADD PUSH2 0x8269 JUMP JUMPDEST SWAP3 POP POP PUSH1 0x40 PUSH2 0x84C1 DUP7 DUP3 DUP8 ADD PUSH2 0x8269 JUMP JUMPDEST SWAP2 POP POP SWAP3 POP SWAP3 POP SWAP3 JUMP JUMPDEST PUSH1 0x0 PUSH1 0x20 DUP3 DUP5 SUB SLT ISZERO PUSH2 0x84E1 JUMPI PUSH2 0x84E0 PUSH2 0x9A8B JUMP JUMPDEST JUMPDEST PUSH1 0x0 PUSH2 0x84EF DUP5 DUP3 DUP6 ADD PUSH2 0x827E JUMP JUMPDEST SWAP2 POP POP SWAP3 SWAP2 POP POP JUMP JUMPDEST PUSH1 0x0 PUSH1 0x20 DUP3 DUP5 SUB SLT ISZERO PUSH2 0x850E JUMPI PUSH2 0x850D PUSH2 0x9A8B JUMP JUMPDEST JUMPDEST PUSH1 0x0 PUSH2 0x851C DUP5 DUP3 DUP6 ADD PUSH2 0x8293 JUMP JUMPDEST SWAP2 POP POP SWAP3 SWAP2 POP POP JUMP JUMPDEST PUSH1 0x0 DUP1 PUSH1 0x0 PUSH1 0x60 DUP5 DUP7 SUB SLT ISZERO PUSH2 0x853E JUMPI PUSH2 0x853D PUSH2 0x9A8B JUMP JUMPDEST JUMPDEST PUSH1 0x0 PUSH2 0x854C DUP7 DUP3 DUP8 ADD PUSH2 0x8293 JUMP JUMPDEST SWAP4 POP POP PUSH1 0x20 PUSH2 0x855D DUP7 DUP3 DUP8 ADD PUSH2 0x8293 JUMP JUMPDEST SWAP3 POP POP PUSH1 0x40 PUSH2 0x856E DUP7 DUP3 DUP8 ADD PUSH2 0x8293 JUMP JUMPDEST SWAP2 POP POP SWAP3 POP SWAP3 POP SWAP3 JUMP JUMPDEST PUSH1 0x0 PUSH2 0x8584 DUP4 DUP4 PUSH2 0x8590 JUMP JUMPDEST PUSH1 0x20 DUP4 ADD SWAP1 POP SWAP3 SWAP2 POP POP JUMP JUMPDEST PUSH2 0x8599 DUP2 PUSH2 0x981D JUMP JUMPDEST DUP3 MSTORE POP POP JUMP JUMPDEST PUSH2 0x85A8 DUP2 PUSH2 0x981D JUMP JUMPDEST DUP3 MSTORE POP POP JUMP JUMPDEST PUSH1 0x0 PUSH2 0x85B9 DUP3 PUSH2 0x966A JUMP JUMPDEST PUSH2 0x85C3 DUP2 DUP6 PUSH2 0x9698 JUMP JUMPDEST SWAP4 POP PUSH2 0x85CE DUP4 PUSH2 0x965A JUMP JUMPDEST DUP1 PUSH1 0x0 JUMPDEST DUP4 DUP2 LT ISZERO PUSH2 0x85FF JUMPI DUP2 MLOAD PUSH2 0x85E6 DUP9 DUP3 PUSH2 0x8578 JUMP JUMPDEST SWAP8 POP PUSH2 0x85F1 DUP4 PUSH2 0x968B JUMP JUMPDEST SWAP3 POP POP PUSH1 0x1 DUP2 ADD SWAP1 POP PUSH2 0x85D2 JUMP JUMPDEST POP DUP6 SWAP4 POP POP POP POP SWAP3 SWAP2 POP POP JUMP JUMPDEST PUSH2 0x8615 DUP2 PUSH2 0x982F JUMP JUMPDEST DUP3 MSTORE POP POP JUMP JUMPDEST PUSH1 0x0 PUSH2 0x8626 DUP3 PUSH2 0x9675 JUMP JUMPDEST PUSH2 0x8630 DUP2 DUP6 PUSH2 0x96A9 JUMP JUMPDEST SWAP4 POP PUSH2 0x8640 DUP2 DUP6 PUSH1 0x20 DUP7 ADD PUSH2 0x98FB JUMP JUMPDEST DUP1 DUP5 ADD SWAP2 POP POP SWAP3 SWAP2 POP POP JUMP JUMPDEST PUSH2 0x8655 DUP2 PUSH2 0x9880 JUMP JUMPDEST DUP3 MSTORE POP POP JUMP JUMPDEST PUSH2 0x8664 DUP2 PUSH2 0x9892 JUMP JUMPDEST DUP3 MSTORE POP POP JUMP JUMPDEST PUSH2 0x8673 DUP2 PUSH2 0x98A4 JUMP JUMPDEST DUP3 MSTORE POP POP JUMP JUMPDEST PUSH1 0x0 PUSH2 0x8684 DUP3 PUSH2 0x9680 JUMP JUMPDEST PUSH2 0x868E DUP2 DUP6 PUSH2 0x96B4 JUMP JUMPDEST SWAP4 POP PUSH2 0x869E DUP2 DUP6 PUSH1 0x20 DUP7 ADD PUSH2 0x98FB JUMP JUMPDEST PUSH2 0x86A7 DUP2 PUSH2 0x9A90 JUMP JUMPDEST DUP5 ADD SWAP2 POP POP SWAP3 SWAP2 POP POP JUMP JUMPDEST PUSH1 0x0 PUSH2 0x86BD DUP3 PUSH2 0x9680 JUMP JUMPDEST PUSH2 0x86C7 DUP2 DUP6 PUSH2 0x96C5 JUMP JUMPDEST SWAP4 POP PUSH2 0x86D7 DUP2 DUP6 PUSH1 0x20 DUP7 ADD PUSH2 0x98FB JUMP JUMPDEST DUP1 DUP5 ADD SWAP2 POP POP SWAP3 SWAP2 POP POP JUMP JUMPDEST PUSH1 0x0 PUSH2 0x86F0 PUSH1 0x23 DUP4 PUSH2 0x96B4 JUMP JUMPDEST SWAP2 POP PUSH2 0x86FB DUP3 PUSH2 0x9AA1 JUMP JUMPDEST PUSH1 0x40 DUP3 ADD SWAP1 POP SWAP2 SWAP1 POP JUMP JUMPDEST PUSH1 0x0 PUSH2 0x8713 PUSH1 0x31 DUP4 PUSH2 0x96B4 JUMP JUMPDEST SWAP2 POP PUSH2 0x871E DUP3 PUSH2 0x9AF0 JUMP JUMPDEST PUSH1 0x40 DUP3 ADD SWAP1 POP SWAP2 SWAP1 POP JUMP JUMPDEST PUSH1 0x0 PUSH2 0x8736 PUSH1 0x65 DUP4 PUSH2 0x96B4 JUMP JUMPDEST SWAP2 POP PUSH2 0x8741 DUP3 PUSH2 0x9B3F JUMP JUMPDEST PUSH1 0x80 DUP3 ADD SWAP1 POP SWAP2 SWAP1 POP JUMP JUMPDEST PUSH1 0x0 PUSH2 0x8759 PUSH1 0x4F DUP4 PUSH2 0x96B4 JUMP JUMPDEST SWAP2 POP PUSH2 0x8764 DUP3 PUSH2 0x9BDA JUMP JUMPDEST PUSH1 0x60 DUP3 ADD SWAP1 POP SWAP2 SWAP1 POP JUMP JUMPDEST PUSH1 0x0 PUSH2 0x877C PUSH1 0x44 DUP4 PUSH2 0x96B4 JUMP JUMPDEST SWAP2 POP PUSH2 0x8787 DUP3 PUSH2 0x9C4F JUMP JUMPDEST PUSH1 0x60 DUP3 ADD SWAP1 POP SWAP2 SWAP1 POP JUMP JUMPDEST PUSH1 0x0 PUSH2 0x879F PUSH1 0x26 DUP4 PUSH2 0x96B4 JUMP JUMPDEST SWAP2 POP PUSH2 0x87AA DUP3 PUSH2 0x9CC4 JUMP JUMPDEST PUSH1 0x40 DUP3 ADD SWAP1 POP SWAP2 SWAP1 POP JUMP JUMPDEST PUSH1 0x0 PUSH2 0x87C2 PUSH1 0x22 DUP4 PUSH2 0x96B4 JUMP JUMPDEST SWAP2 POP PUSH2 0x87CD DUP3 PUSH2 0x9D13 JUMP JUMPDEST PUSH1 0x40 DUP3 ADD SWAP1 POP SWAP2 SWAP1 POP JUMP JUMPDEST PUSH1 0x0 PUSH2 0x87E5 PUSH1 0x3E DUP4 PUSH2 0x96B4 JUMP JUMPDEST SWAP2 POP PUSH2 0x87F0 DUP3 PUSH2 0x9D62 JUMP JUMPDEST PUSH1 0x40 DUP3 ADD SWAP1 POP SWAP2 SWAP1 POP JUMP JUMPDEST PUSH1 0x0 PUSH2 0x8808 PUSH1 0x3F DUP4 PUSH2 0x96B4 JUMP JUMPDEST SWAP2 POP PUSH2 0x8813 DUP3 PUSH2 0x9DB1 JUMP JUMPDEST PUSH1 0x40 DUP3 ADD SWAP1 POP SWAP2 SWAP1 POP JUMP JUMPDEST PUSH1 0x0 PUSH2 0x882B PUSH1 0x26 DUP4 PUSH2 0x96B4 JUMP JUMPDEST SWAP2 POP PUSH2 0x8836 DUP3 PUSH2 0x9E00 JUMP JUMPDEST PUSH1 0x40 DUP3 ADD SWAP1 POP SWAP2 SWAP1 POP JUMP JUMPDEST PUSH1 0x0 PUSH2 0x884E PUSH1 0x34 DUP4 PUSH2 0x96B4 JUMP JUMPDEST SWAP2 POP PUSH2 0x8859 DUP3 PUSH2 0x9E4F JUMP JUMPDEST PUSH1 0x40 DUP3 ADD SWAP1 POP SWAP2 SWAP1 POP JUMP JUMPDEST PUSH1 0x0 PUSH2 0x8871 PUSH1 0x67 DUP4 PUSH2 0x96B4 JUMP JUMPDEST SWAP2 POP PUSH2 0x887C DUP3 PUSH2 0x9E9E JUMP JUMPDEST PUSH1 0x80 DUP3 ADD SWAP1 POP SWAP2 SWAP1 POP JUMP JUMPDEST PUSH1 0x0 PUSH2 0x8894 PUSH1 0x2E DUP4 PUSH2 0x96B4 JUMP JUMPDEST SWAP2 POP PUSH2 0x889F DUP3 PUSH2 0x9F39 JUMP JUMPDEST PUSH1 0x40 DUP3 ADD SWAP1 POP SWAP2 SWAP1 POP JUMP JUMPDEST PUSH1 0x0 PUSH2 0x88B7 PUSH1 0x37 DUP4 PUSH2 0x96B4 JUMP JUMPDEST SWAP2 POP PUSH2 0x88C2 DUP3 PUSH2 0x9F88 JUMP JUMPDEST PUSH1 0x40 DUP3 ADD SWAP1 POP SWAP2 SWAP1 POP JUMP JUMPDEST PUSH1 0x0 PUSH2 0x88DA PUSH1 0x40 DUP4 PUSH2 0x96B4 JUMP JUMPDEST SWAP2 POP PUSH2 0x88E5 DUP3 PUSH2 0x9FD7 JUMP JUMPDEST PUSH1 0x40 DUP3 ADD SWAP1 POP SWAP2 SWAP1 POP JUMP JUMPDEST PUSH1 0x0 PUSH2 0x88FD PUSH1 0x3D DUP4 PUSH2 0x96B4 JUMP JUMPDEST SWAP2 POP PUSH2 0x8908 DUP3 PUSH2 0xA026 JUMP JUMPDEST PUSH1 0x40 DUP3 ADD SWAP1 POP SWAP2 SWAP1 POP JUMP JUMPDEST PUSH1 0x0 PUSH2 0x8920 PUSH1 0x5A DUP4 PUSH2 0x96B4 JUMP JUMPDEST SWAP2 POP PUSH2 0x892B DUP3 PUSH2 0xA075 JUMP JUMPDEST PUSH1 0x60 DUP3 ADD SWAP1 POP SWAP2 SWAP1 POP JUMP JUMPDEST PUSH1 0x0 PUSH2 0x8943 PUSH1 0x47 DUP4 PUSH2 0x96B4 JUMP JUMPDEST SWAP2 POP PUSH2 0x894E DUP3 PUSH2 0xA0EA JUMP JUMPDEST PUSH1 0x60 DUP3 ADD SWAP1 POP SWAP2 SWAP1 POP JUMP JUMPDEST PUSH1 0x0 PUSH2 0x8966 PUSH1 0x54 DUP4 PUSH2 0x96B4 JUMP JUMPDEST SWAP2 POP PUSH2 0x8971 DUP3 PUSH2 0xA15F JUMP JUMPDEST PUSH1 0x60 DUP3 ADD SWAP1 POP SWAP2 SWAP1 POP JUMP JUMPDEST PUSH1 0x0 PUSH2 0x8989 PUSH1 0x37 DUP4 PUSH2 0x96B4 JUMP JUMPDEST SWAP2 POP PUSH2 0x8994 DUP3 PUSH2 0xA1D4 JUMP JUMPDEST PUSH1 0x40 DUP3 ADD SWAP1 POP SWAP2 SWAP1 POP JUMP JUMPDEST PUSH1 0x0 PUSH2 0x89AC PUSH1 0x50 DUP4 PUSH2 0x96B4 JUMP JUMPDEST SWAP2 POP PUSH2 0x89B7 DUP3 PUSH2 0xA223 JUMP JUMPDEST PUSH1 0x60 DUP3 ADD SWAP1 POP SWAP2 SWAP1 POP JUMP JUMPDEST PUSH1 0x0 PUSH2 0x89CF PUSH1 0x41 DUP4 PUSH2 0x96B4 JUMP JUMPDEST SWAP2 POP PUSH2 0x89DA DUP3 PUSH2 0xA298 JUMP JUMPDEST PUSH1 0x60 DUP3 ADD SWAP1 POP SWAP2 SWAP1 POP JUMP JUMPDEST PUSH1 0x0 PUSH2 0x89F2 PUSH1 0x39 DUP4 PUSH2 0x96B4 JUMP JUMPDEST SWAP2 POP PUSH2 0x89FD DUP3 PUSH2 0xA30D JUMP JUMPDEST PUSH1 0x40 DUP3 ADD SWAP1 POP SWAP2 SWAP1 POP JUMP JUMPDEST PUSH1 0x0 PUSH2 0x8A15 PUSH1 0x30 DUP4 PUSH2 0x96B4 JUMP JUMPDEST SWAP2 POP PUSH2 0x8A20 DUP3 PUSH2 0xA35C JUMP JUMPDEST PUSH1 0x40 DUP3 ADD SWAP1 POP SWAP2 SWAP1 POP JUMP JUMPDEST PUSH1 0x0 PUSH2 0x8A38 PUSH1 0x28 DUP4 PUSH2 0x96B4 JUMP JUMPDEST SWAP2 POP PUSH2 0x8A43 DUP3 PUSH2 0xA3AB JUMP JUMPDEST PUSH1 0x40 DUP3 ADD SWAP1 POP SWAP2 SWAP1 POP JUMP JUMPDEST PUSH1 0x0 PUSH2 0x8A5B PUSH1 0x20 DUP4 PUSH2 0x96B4 JUMP JUMPDEST SWAP2 POP PUSH2 0x8A66 DUP3 PUSH2 0xA3FA JUMP JUMPDEST PUSH1 0x20 DUP3 ADD SWAP1 POP SWAP2 SWAP1 POP JUMP JUMPDEST PUSH1 0x0 PUSH2 0x8A7E PUSH1 0x12 DUP4 PUSH2 0x96B4 JUMP JUMPDEST SWAP2 POP PUSH2 0x8A89 DUP3 PUSH2 0xA423 JUMP JUMPDEST PUSH1 0x20 DUP3 ADD SWAP1 POP SWAP2 SWAP1 POP JUMP JUMPDEST PUSH1 0x0 PUSH2 0x8AA1 PUSH1 0x54 DUP4 PUSH2 0x96B4 JUMP JUMPDEST SWAP2 POP PUSH2 0x8AAC DUP3 PUSH2 0xA44C JUMP JUMPDEST PUSH1 0x60 DUP3 ADD SWAP1 POP SWAP2 SWAP1 POP JUMP JUMPDEST PUSH1 0x0 PUSH2 0x8AC4 PUSH1 0x63 DUP4 PUSH2 0x96B4 JUMP JUMPDEST SWAP2 POP PUSH2 0x8ACF DUP3 PUSH2 0xA4C1 JUMP JUMPDEST PUSH1 0x80 DUP3 ADD SWAP1 POP SWAP2 SWAP1 POP JUMP JUMPDEST PUSH1 0x0 PUSH2 0x8AE7 PUSH1 0x35 DUP4 PUSH2 0x96B4 JUMP JUMPDEST SWAP2 POP PUSH2 0x8AF2 DUP3 PUSH2 0xA55C JUMP JUMPDEST PUSH1 0x40 DUP3 ADD SWAP1 POP SWAP2 SWAP1 POP JUMP JUMPDEST PUSH1 0x0 PUSH2 0x8B0A PUSH1 0x25 DUP4 PUSH2 0x96B4 JUMP JUMPDEST SWAP2 POP PUSH2 0x8B15 DUP3 PUSH2 0xA5AB JUMP JUMPDEST PUSH1 0x40 DUP3 ADD SWAP1 POP SWAP2 SWAP1 POP JUMP JUMPDEST PUSH1 0x0 PUSH2 0x8B2D PUSH1 0x83 DUP4 PUSH2 0x96B4 JUMP JUMPDEST SWAP2 POP PUSH2 0x8B38 DUP3 PUSH2 0xA5FA JUMP JUMPDEST PUSH1 0xA0 DUP3 ADD SWAP1 POP SWAP2 SWAP1 POP JUMP JUMPDEST PUSH1 0x0 PUSH2 0x8B50 PUSH1 0x3A DUP4 PUSH2 0x96B4 JUMP JUMPDEST SWAP2 POP PUSH2 0x8B5B DUP3 PUSH2 0xA6BB JUMP JUMPDEST PUSH1 0x40 DUP3 ADD SWAP1 POP SWAP2 SWAP1 POP JUMP JUMPDEST PUSH1 0x0 PUSH2 0x8B73 PUSH1 0x24 DUP4 PUSH2 0x96B4 JUMP JUMPDEST SWAP2 POP PUSH2 0x8B7E DUP3 PUSH2 0xA70A JUMP JUMPDEST PUSH1 0x40 DUP3 ADD SWAP1 POP SWAP2 SWAP1 POP JUMP JUMPDEST PUSH1 0x0 PUSH2 0x8B96 PUSH1 0x44 DUP4 PUSH2 0x96B4 JUMP JUMPDEST SWAP2 POP PUSH2 0x8BA1 DUP3 PUSH2 0xA759 JUMP JUMPDEST PUSH1 0x60 DUP3 ADD SWAP1 POP SWAP2 SWAP1 POP JUMP JUMPDEST PUSH1 0x0 PUSH2 0x8BB9 PUSH1 0x3A DUP4 PUSH2 0x96B4 JUMP JUMPDEST SWAP2 POP PUSH2 0x8BC4 DUP3 PUSH2 0xA7CE JUMP JUMPDEST PUSH1 0x40 DUP3 ADD SWAP1 POP SWAP2 SWAP1 POP JUMP JUMPDEST PUSH1 0x0 PUSH2 0x8BDC PUSH1 0x40 DUP4 PUSH2 0x96B4 JUMP JUMPDEST SWAP2 POP PUSH2 0x8BE7 DUP3 PUSH2 0xA81D JUMP JUMPDEST PUSH1 0x40 DUP3 ADD SWAP1 POP SWAP2 SWAP1 POP JUMP JUMPDEST PUSH1 0x0 PUSH2 0x8BFF PUSH1 0x2E DUP4 PUSH2 0x96B4 JUMP JUMPDEST SWAP2 POP PUSH2 0x8C0A DUP3 PUSH2 0xA86C JUMP JUMPDEST PUSH1 0x40 DUP3 ADD SWAP1 POP SWAP2 SWAP1 POP JUMP JUMPDEST PUSH1 0x0 PUSH2 0x8C22 PUSH1 0x35 DUP4 PUSH2 0x96B4 JUMP JUMPDEST SWAP2 POP PUSH2 0x8C2D DUP3 PUSH2 0xA8BB JUMP JUMPDEST PUSH1 0x40 DUP3 ADD SWAP1 POP SWAP2 SWAP1 POP JUMP JUMPDEST PUSH1 0x0 PUSH2 0x8C45 PUSH1 0x1F DUP4 PUSH2 0x96B4 JUMP JUMPDEST SWAP2 POP PUSH2 0x8C50 DUP3 PUSH2 0xA90A JUMP JUMPDEST PUSH1 0x20 DUP3 ADD SWAP1 POP SWAP2 SWAP1 POP JUMP JUMPDEST PUSH1 0x0 PUSH2 0x8C68 PUSH1 0x32 DUP4 PUSH2 0x96B4 JUMP JUMPDEST SWAP2 POP PUSH2 0x8C73 DUP3 PUSH2 0xA933 JUMP JUMPDEST PUSH1 0x40 DUP3 ADD SWAP1 POP SWAP2 SWAP1 POP JUMP JUMPDEST PUSH1 0x0 PUSH2 0x8C8B PUSH1 0x25 DUP4 PUSH2 0x96B4 JUMP JUMPDEST SWAP2 POP PUSH2 0x8C96 DUP3 PUSH2 0xA982 JUMP JUMPDEST PUSH1 0x40 DUP3 ADD SWAP1 POP SWAP2 SWAP1 POP JUMP JUMPDEST PUSH1 0x0 PUSH2 0x8CAE PUSH1 0x1F DUP4 PUSH2 0x96B4 JUMP JUMPDEST SWAP2 POP PUSH2 0x8CB9 DUP3 PUSH2 0xA9D1 JUMP JUMPDEST PUSH1 0x20 DUP3 ADD SWAP1 POP SWAP2 SWAP1 POP JUMP JUMPDEST PUSH2 0x8CCD DUP2 PUSH2 0x983B JUMP JUMPDEST DUP3 MSTORE POP POP JUMP JUMPDEST PUSH2 0x8CDC DUP2 PUSH2 0x98DA JUMP JUMPDEST DUP3 MSTORE POP POP JUMP JUMPDEST PUSH2 0x8CEB DUP2 PUSH2 0x9869 JUMP JUMPDEST DUP3 MSTORE POP POP JUMP JUMPDEST PUSH2 0x8CFA DUP2 PUSH2 0x9873 JUMP JUMPDEST DUP3 MSTORE POP POP JUMP JUMPDEST PUSH1 0x0 PUSH2 0x8D0C DUP3 DUP5 PUSH2 0x861B JUMP JUMPDEST SWAP2 POP DUP2 SWAP1 POP SWAP3 SWAP2 POP POP JUMP JUMPDEST PUSH1 0x0 PUSH2 0x8D23 DUP3 DUP5 PUSH2 0x86B2 JUMP JUMPDEST SWAP2 POP DUP2 SWAP1 POP SWAP3 SWAP2 POP POP JUMP JUMPDEST PUSH1 0x0 PUSH1 0x20 DUP3 ADD SWAP1 POP PUSH2 0x8D43 PUSH1 0x0 DUP4 ADD DUP5 PUSH2 0x859F JUMP JUMPDEST SWAP3 SWAP2 POP POP JUMP JUMPDEST PUSH1 0x0 PUSH1 0x40 DUP3 ADD SWAP1 POP PUSH2 0x8D5E PUSH1 0x0 DUP4 ADD DUP6 PUSH2 0x859F JUMP JUMPDEST PUSH2 0x8D6B PUSH1 0x20 DUP4 ADD DUP5 PUSH2 0x859F JUMP JUMPDEST SWAP4 SWAP3 POP POP POP JUMP JUMPDEST PUSH1 0x0 PUSH2 0x100 DUP3 ADD SWAP1 POP PUSH2 0x8D88 PUSH1 0x0 DUP4 ADD DUP12 PUSH2 0x859F JUMP JUMPDEST PUSH2 0x8D95 PUSH1 0x20 DUP4 ADD DUP11 PUSH2 0x859F JUMP JUMPDEST PUSH2 0x8DA2 PUSH1 0x40 DUP4 ADD DUP10 PUSH2 0x8CE2 JUMP JUMPDEST PUSH2 0x8DAF PUSH1 0x60 DUP4 ADD DUP9 PUSH2 0x8CE2 JUMP JUMPDEST PUSH2 0x8DBC PUSH1 0x80 DUP4 ADD DUP8 PUSH2 0x866A JUMP JUMPDEST PUSH2 0x8DC9 PUSH1 0xA0 DUP4 ADD DUP7 PUSH2 0x866A JUMP JUMPDEST PUSH2 0x8DD6 PUSH1 0xC0 DUP4 ADD DUP6 PUSH2 0x859F JUMP JUMPDEST PUSH2 0x8DE3 PUSH1 0xE0 DUP4 ADD DUP5 PUSH2 0x8CE2 JUMP JUMPDEST SWAP10 SWAP9 POP POP POP POP POP POP POP POP POP JUMP JUMPDEST PUSH1 0x0 PUSH1 0x40 DUP3 ADD SWAP1 POP PUSH2 0x8E05 PUSH1 0x0 DUP4 ADD DUP6 PUSH2 0x859F JUMP JUMPDEST PUSH2 0x8E12 PUSH1 0x20 DUP4 ADD DUP5 PUSH2 0x866A JUMP JUMPDEST SWAP4 SWAP3 POP POP POP JUMP JUMPDEST PUSH1 0x0 PUSH1 0x40 DUP3 ADD SWAP1 POP PUSH2 0x8E2E PUSH1 0x0 DUP4 ADD DUP6 PUSH2 0x859F JUMP JUMPDEST PUSH2 0x8E3B PUSH1 0x20 DUP4 ADD DUP5 PUSH2 0x8CE2 JUMP JUMPDEST SWAP4 SWAP3 POP POP POP JUMP JUMPDEST PUSH1 0x0 PUSH1 0xC0 DUP3 ADD SWAP1 POP PUSH2 0x8E57 PUSH1 0x0 DUP4 ADD DUP10 PUSH2 0x859F JUMP JUMPDEST PUSH2 0x8E64 PUSH1 0x20 DUP4 ADD DUP9 PUSH2 0x8CE2 JUMP JUMPDEST PUSH2 0x8E71 PUSH1 0x40 DUP4 ADD DUP8 PUSH2 0x866A JUMP JUMPDEST PUSH2 0x8E7E PUSH1 0x60 DUP4 ADD DUP7 PUSH2 0x866A JUMP JUMPDEST PUSH2 0x8E8B PUSH1 0x80 DUP4 ADD DUP6 PUSH2 0x859F JUMP JUMPDEST PUSH2 0x8E98 PUSH1 0xA0 DUP4 ADD DUP5 PUSH2 0x8CE2 JUMP JUMPDEST SWAP8 SWAP7 POP POP POP POP POP POP POP JUMP JUMPDEST PUSH1 0x0 PUSH1 0x20 DUP3 ADD SWAP1 POP PUSH2 0x8EB8 PUSH1 0x0 DUP4 ADD DUP5 PUSH2 0x860C JUMP JUMPDEST SWAP3 SWAP2 POP POP JUMP JUMPDEST PUSH1 0x0 PUSH1 0x20 DUP3 ADD SWAP1 POP PUSH2 0x8ED3 PUSH1 0x0 DUP4 ADD DUP5 PUSH2 0x864C JUMP JUMPDEST SWAP3 SWAP2 POP POP JUMP JUMPDEST PUSH1 0x0 PUSH1 0x20 DUP3 ADD SWAP1 POP PUSH2 0x8EEE PUSH1 0x0 DUP4 ADD DUP5 PUSH2 0x865B JUMP JUMPDEST SWAP3 SWAP2 POP POP JUMP JUMPDEST PUSH1 0x0 PUSH1 0x80 DUP3 ADD SWAP1 POP PUSH2 0x8F09 PUSH1 0x0 DUP4 ADD DUP8 PUSH2 0x866A JUMP JUMPDEST DUP2 DUP2 SUB PUSH1 0x20 DUP4 ADD MSTORE PUSH2 0x8F1B DUP2 DUP7 PUSH2 0x85AE JUMP JUMPDEST SWAP1 POP PUSH2 0x8F2A PUSH1 0x40 DUP4 ADD DUP6 PUSH2 0x859F JUMP JUMPDEST PUSH2 0x8F37 PUSH1 0x60 DUP4 ADD DUP5 PUSH2 0x8CE2 JUMP JUMPDEST SWAP6 SWAP5 POP POP POP POP POP JUMP JUMPDEST PUSH1 0x0 PUSH1 0x20 DUP3 ADD SWAP1 POP DUP2 DUP2 SUB PUSH1 0x0 DUP4 ADD MSTORE PUSH2 0x8F5A DUP2 DUP5 PUSH2 0x8679 JUMP JUMPDEST SWAP1 POP SWAP3 SWAP2 POP POP JUMP JUMPDEST PUSH1 0x0 PUSH1 0x20 DUP3 ADD SWAP1 POP DUP2 DUP2 SUB PUSH1 0x0 DUP4 ADD MSTORE PUSH2 0x8F7B DUP2 PUSH2 0x86E3 JUMP JUMPDEST SWAP1 POP SWAP2 SWAP1 POP JUMP JUMPDEST PUSH1 0x0 PUSH1 0x20 DUP3 ADD SWAP1 POP DUP2 DUP2 SUB PUSH1 0x0 DUP4 ADD MSTORE PUSH2 0x8F9B DUP2 PUSH2 0x8706 JUMP JUMPDEST SWAP1 POP SWAP2 SWAP1 POP JUMP JUMPDEST PUSH1 0x0 PUSH1 0x20 DUP3 ADD SWAP1 POP DUP2 DUP2 SUB PUSH1 0x0 DUP4 ADD MSTORE PUSH2 0x8FBB DUP2 PUSH2 0x8729 JUMP JUMPDEST SWAP1 POP SWAP2 SWAP1 POP JUMP JUMPDEST PUSH1 0x0 PUSH1 0x20 DUP3 ADD SWAP1 POP DUP2 DUP2 SUB PUSH1 0x0 DUP4 ADD MSTORE PUSH2 0x8FDB DUP2 PUSH2 0x874C JUMP JUMPDEST SWAP1 POP SWAP2 SWAP1 POP JUMP JUMPDEST PUSH1 0x0 PUSH1 0x20 DUP3 ADD SWAP1 POP DUP2 DUP2 SUB PUSH1 0x0 DUP4 ADD MSTORE PUSH2 0x8FFB DUP2 PUSH2 0x876F JUMP JUMPDEST SWAP1 POP SWAP2 SWAP1 POP JUMP JUMPDEST PUSH1 0x0 PUSH1 0x20 DUP3 ADD SWAP1 POP DUP2 DUP2 SUB PUSH1 0x0 DUP4 ADD MSTORE PUSH2 0x901B DUP2 PUSH2 0x8792 JUMP JUMPDEST SWAP1 POP SWAP2 SWAP1 POP JUMP JUMPDEST PUSH1 0x0 PUSH1 0x20 DUP3 ADD SWAP1 POP DUP2 DUP2 SUB PUSH1 0x0 DUP4 ADD MSTORE PUSH2 0x903B DUP2 PUSH2 0x87B5 JUMP JUMPDEST SWAP1 POP SWAP2 SWAP1 POP JUMP JUMPDEST PUSH1 0x0 PUSH1 0x20 DUP3 ADD SWAP1 POP DUP2 DUP2 SUB PUSH1 0x0 DUP4 ADD MSTORE PUSH2 0x905B DUP2 PUSH2 0x87D8 JUMP JUMPDEST SWAP1 POP SWAP2 SWAP1 POP JUMP JUMPDEST PUSH1 0x0 PUSH1 0x20 DUP3 ADD SWAP1 POP DUP2 DUP2 SUB PUSH1 0x0 DUP4 ADD MSTORE PUSH2 0x907B DUP2 PUSH2 0x87FB JUMP JUMPDEST SWAP1 POP SWAP2 SWAP1 POP JUMP JUMPDEST PUSH1 0x0 PUSH1 0x20 DUP3 ADD SWAP1 POP DUP2 DUP2 SUB PUSH1 0x0 DUP4 ADD MSTORE PUSH2 0x909B DUP2 PUSH2 0x881E JUMP JUMPDEST SWAP1 POP SWAP2 SWAP1 POP JUMP JUMPDEST PUSH1 0x0 PUSH1 0x20 DUP3 ADD SWAP1 POP DUP2 DUP2 SUB PUSH1 0x0 DUP4 ADD MSTORE PUSH2 0x90BB DUP2 PUSH2 0x8841 JUMP JUMPDEST SWAP1 POP SWAP2 SWAP1 POP JUMP JUMPDEST PUSH1 0x0 PUSH1 0x20 DUP3 ADD SWAP1 POP DUP2 DUP2 SUB PUSH1 0x0 DUP4 ADD MSTORE PUSH2 0x90DB DUP2 PUSH2 0x8864 JUMP JUMPDEST SWAP1 POP SWAP2 SWAP1 POP JUMP JUMPDEST PUSH1 0x0 PUSH1 0x20 DUP3 ADD SWAP1 POP DUP2 DUP2 SUB PUSH1 0x0 DUP4 ADD MSTORE PUSH2 0x90FB DUP2 PUSH2 0x8887 JUMP JUMPDEST SWAP1 POP SWAP2 SWAP1 POP JUMP JUMPDEST PUSH1 0x0 PUSH1 0x20 DUP3 ADD SWAP1 POP DUP2 DUP2 SUB PUSH1 0x0 DUP4 ADD MSTORE PUSH2 0x911B DUP2 PUSH2 0x88AA JUMP JUMPDEST SWAP1 POP SWAP2 SWAP1 POP JUMP JUMPDEST PUSH1 0x0 PUSH1 0x20 DUP3 ADD SWAP1 POP DUP2 DUP2 SUB PUSH1 0x0 DUP4 ADD MSTORE PUSH2 0x913B DUP2 PUSH2 0x88CD JUMP JUMPDEST SWAP1 POP SWAP2 SWAP1 POP JUMP JUMPDEST PUSH1 0x0 PUSH1 0x20 DUP3 ADD SWAP1 POP DUP2 DUP2 SUB PUSH1 0x0 DUP4 ADD MSTORE PUSH2 0x915B DUP2 PUSH2 0x88F0 JUMP JUMPDEST SWAP1 POP SWAP2 SWAP1 POP JUMP JUMPDEST PUSH1 0x0 PUSH1 0x20 DUP3 ADD SWAP1 POP DUP2 DUP2 SUB PUSH1 0x0 DUP4 ADD MSTORE PUSH2 0x917B DUP2 PUSH2 0x8913 JUMP JUMPDEST SWAP1 POP SWAP2 SWAP1 POP JUMP JUMPDEST PUSH1 0x0 PUSH1 0x20 DUP3 ADD SWAP1 POP DUP2 DUP2 SUB PUSH1 0x0 DUP4 ADD MSTORE PUSH2 0x919B DUP2 PUSH2 0x8936 JUMP JUMPDEST SWAP1 POP SWAP2 SWAP1 POP JUMP JUMPDEST PUSH1 0x0 PUSH1 0x20 DUP3 ADD SWAP1 POP DUP2 DUP2 SUB PUSH1 0x0 DUP4 ADD MSTORE PUSH2 0x91BB DUP2 PUSH2 0x8959 JUMP JUMPDEST SWAP1 POP SWAP2 SWAP1 POP JUMP JUMPDEST PUSH1 0x0 PUSH1 0x20 DUP3 ADD SWAP1 POP DUP2 DUP2 SUB PUSH1 0x0 DUP4 ADD MSTORE PUSH2 0x91DB DUP2 PUSH2 0x897C JUMP JUMPDEST SWAP1 POP SWAP2 SWAP1 POP JUMP JUMPDEST PUSH1 0x0 PUSH1 0x20 DUP3 ADD SWAP1 POP DUP2 DUP2 SUB PUSH1 0x0 DUP4 ADD MSTORE PUSH2 0x91FB DUP2 PUSH2 0x899F JUMP JUMPDEST SWAP1 POP SWAP2 SWAP1 POP JUMP JUMPDEST PUSH1 0x0 PUSH1 0x20 DUP3 ADD SWAP1 POP DUP2 DUP2 SUB PUSH1 0x0 DUP4 ADD MSTORE PUSH2 0x921B DUP2 PUSH2 0x89C2 JUMP JUMPDEST SWAP1 POP SWAP2 SWAP1 POP JUMP JUMPDEST PUSH1 0x0 PUSH1 0x20 DUP3 ADD SWAP1 POP DUP2 DUP2 SUB PUSH1 0x0 DUP4 ADD MSTORE PUSH2 0x923B DUP2 PUSH2 0x89E5 JUMP JUMPDEST SWAP1 POP SWAP2 SWAP1 POP JUMP JUMPDEST PUSH1 0x0 PUSH1 0x20 DUP3 ADD SWAP1 POP DUP2 DUP2 SUB PUSH1 0x0 DUP4 ADD MSTORE PUSH2 0x925B DUP2 PUSH2 0x8A08 JUMP JUMPDEST SWAP1 POP SWAP2 SWAP1 POP JUMP JUMPDEST PUSH1 0x0 PUSH1 0x20 DUP3 ADD SWAP1 POP DUP2 DUP2 SUB PUSH1 0x0 DUP4 ADD MSTORE PUSH2 0x927B DUP2 PUSH2 0x8A2B JUMP JUMPDEST SWAP1 POP SWAP2 SWAP1 POP JUMP JUMPDEST PUSH1 0x0 PUSH1 0x20 DUP3 ADD SWAP1 POP DUP2 DUP2 SUB PUSH1 0x0 DUP4 ADD MSTORE PUSH2 0x929B DUP2 PUSH2 0x8A4E JUMP JUMPDEST SWAP1 POP SWAP2 SWAP1 POP JUMP JUMPDEST PUSH1 0x0 PUSH1 0x20 DUP3 ADD SWAP1 POP DUP2 DUP2 SUB PUSH1 0x0 DUP4 ADD MSTORE PUSH2 0x92BB DUP2 PUSH2 0x8A71 JUMP JUMPDEST SWAP1 POP SWAP2 SWAP1 POP JUMP JUMPDEST PUSH1 0x0 PUSH1 0x20 DUP3 ADD SWAP1 POP DUP2 DUP2 SUB PUSH1 0x0 DUP4 ADD MSTORE PUSH2 0x92DB DUP2 PUSH2 0x8A94 JUMP JUMPDEST SWAP1 POP SWAP2 SWAP1 POP JUMP JUMPDEST PUSH1 0x0 PUSH1 0x20 DUP3 ADD SWAP1 POP DUP2 DUP2 SUB PUSH1 0x0 DUP4 ADD MSTORE PUSH2 0x92FB DUP2 PUSH2 0x8AB7 JUMP JUMPDEST SWAP1 POP SWAP2 SWAP1 POP JUMP JUMPDEST PUSH1 0x0 PUSH1 0x20 DUP3 ADD SWAP1 POP DUP2 DUP2 SUB PUSH1 0x0 DUP4 ADD MSTORE PUSH2 0x931B DUP2 PUSH2 0x8ADA JUMP JUMPDEST SWAP1 POP SWAP2 SWAP1 POP JUMP JUMPDEST PUSH1 0x0 PUSH1 0x20 DUP3 ADD SWAP1 POP DUP2 DUP2 SUB PUSH1 0x0 DUP4 ADD MSTORE PUSH2 0x933B DUP2 PUSH2 0x8AFD JUMP JUMPDEST SWAP1 POP SWAP2 SWAP1 POP JUMP JUMPDEST PUSH1 0x0 PUSH1 0x20 DUP3 ADD SWAP1 POP DUP2 DUP2 SUB PUSH1 0x0 DUP4 ADD MSTORE PUSH2 0x935B DUP2 PUSH2 0x8B20 JUMP JUMPDEST SWAP1 POP SWAP2 SWAP1 POP JUMP JUMPDEST PUSH1 0x0 PUSH1 0x20 DUP3 ADD SWAP1 POP DUP2 DUP2 SUB PUSH1 0x0 DUP4 ADD MSTORE PUSH2 0x937B DUP2 PUSH2 0x8B43 JUMP JUMPDEST SWAP1 POP SWAP2 SWAP1 POP JUMP JUMPDEST PUSH1 0x0 PUSH1 0x20 DUP3 ADD SWAP1 POP DUP2 DUP2 SUB PUSH1 0x0 DUP4 ADD MSTORE PUSH2 0x939B DUP2 PUSH2 0x8B66 JUMP JUMPDEST SWAP1 POP SWAP2 SWAP1 POP JUMP JUMPDEST PUSH1 0x0 PUSH1 0x20 DUP3 ADD SWAP1 POP DUP2 DUP2 SUB PUSH1 0x0 DUP4 ADD MSTORE PUSH2 0x93BB DUP2 PUSH2 0x8B89 JUMP JUMPDEST SWAP1 POP SWAP2 SWAP1 POP JUMP JUMPDEST PUSH1 0x0 PUSH1 0x20 DUP3 ADD SWAP1 POP DUP2 DUP2 SUB PUSH1 0x0 DUP4 ADD MSTORE PUSH2 0x93DB DUP2 PUSH2 0x8BAC JUMP JUMPDEST SWAP1 POP SWAP2 SWAP1 POP JUMP JUMPDEST PUSH1 0x0 PUSH1 0x20 DUP3 ADD SWAP1 POP DUP2 DUP2 SUB PUSH1 0x0 DUP4 ADD MSTORE PUSH2 0x93FB DUP2 PUSH2 0x8BCF JUMP JUMPDEST SWAP1 POP SWAP2 SWAP1 POP JUMP JUMPDEST PUSH1 0x0 PUSH1 0x20 DUP3 ADD SWAP1 POP DUP2 DUP2 SUB PUSH1 0x0 DUP4 ADD MSTORE PUSH2 0x941B DUP2 PUSH2 0x8BF2 JUMP JUMPDEST SWAP1 POP SWAP2 SWAP1 POP JUMP JUMPDEST PUSH1 0x0 PUSH1 0x20 DUP3 ADD SWAP1 POP DUP2 DUP2 SUB PUSH1 0x0 DUP4 ADD MSTORE PUSH2 0x943B DUP2 PUSH2 0x8C15 JUMP JUMPDEST SWAP1 POP SWAP2 SWAP1 POP JUMP JUMPDEST PUSH1 0x0 PUSH1 0x20 DUP3 ADD SWAP1 POP DUP2 DUP2 SUB PUSH1 0x0 DUP4 ADD MSTORE PUSH2 0x945B DUP2 PUSH2 0x8C38 JUMP JUMPDEST SWAP1 POP SWAP2 SWAP1 POP JUMP JUMPDEST PUSH1 0x0 PUSH1 0x20 DUP3 ADD SWAP1 POP DUP2 DUP2 SUB PUSH1 0x0 DUP4 ADD MSTORE PUSH2 0x947B DUP2 PUSH2 0x8C5B JUMP JUMPDEST SWAP1 POP SWAP2 SWAP1 POP JUMP JUMPDEST PUSH1 0x0 PUSH1 0x20 DUP3 ADD SWAP1 POP DUP2 DUP2 SUB PUSH1 0x0 DUP4 ADD MSTORE PUSH2 0x949B DUP2 PUSH2 0x8C7E JUMP JUMPDEST SWAP1 POP SWAP2 SWAP1 POP JUMP JUMPDEST PUSH1 0x0 PUSH1 0x20 DUP3 ADD SWAP1 POP DUP2 DUP2 SUB PUSH1 0x0 DUP4 ADD MSTORE PUSH2 0x94BB DUP2 PUSH2 0x8CA1 JUMP JUMPDEST SWAP1 POP SWAP2 SWAP1 POP JUMP JUMPDEST PUSH1 0x0 PUSH1 0x20 DUP3 ADD SWAP1 POP PUSH2 0x94D7 PUSH1 0x0 DUP4 ADD DUP5 PUSH2 0x8CC4 JUMP JUMPDEST SWAP3 SWAP2 POP POP JUMP JUMPDEST PUSH1 0x0 PUSH1 0x40 DUP3 ADD SWAP1 POP PUSH2 0x94F2 PUSH1 0x0 DUP4 ADD DUP6 PUSH2 0x8CD3 JUMP JUMPDEST PUSH2 0x94FF PUSH1 0x20 DUP4 ADD DUP5 PUSH2 0x8CD3 JUMP JUMPDEST SWAP4 SWAP3 POP POP POP JUMP JUMPDEST PUSH1 0x0 PUSH1 0x60 DUP3 ADD SWAP1 POP PUSH2 0x951B PUSH1 0x0 DUP4 ADD DUP7 PUSH2 0x8CC4 JUMP JUMPDEST PUSH2 0x9528 PUSH1 0x20 DUP4 ADD DUP6 PUSH2 0x8CC4 JUMP JUMPDEST PUSH2 0x9535 PUSH1 0x40 DUP4 ADD DUP5 PUSH2 0x8CC4 JUMP JUMPDEST SWAP5 SWAP4 POP POP POP POP JUMP JUMPDEST PUSH1 0x0 PUSH1 0x20 DUP3 ADD SWAP1 POP PUSH2 0x9552 PUSH1 0x0 DUP4 ADD DUP5 PUSH2 0x8CE2 JUMP JUMPDEST SWAP3 SWAP2 POP POP JUMP JUMPDEST PUSH1 0x0 PUSH1 0xA0 DUP3 ADD SWAP1 POP PUSH2 0x956D PUSH1 0x0 DUP4 ADD DUP9 PUSH2 0x8CE2 JUMP JUMPDEST PUSH2 0x957A PUSH1 0x20 DUP4 ADD DUP8 PUSH2 0x866A JUMP JUMPDEST DUP2 DUP2 SUB PUSH1 0x40 DUP4 ADD MSTORE PUSH2 0x958C DUP2 DUP7 PUSH2 0x85AE JUMP JUMPDEST SWAP1 POP PUSH2 0x959B PUSH1 0x60 DUP4 ADD DUP6 PUSH2 0x859F JUMP JUMPDEST PUSH2 0x95A8 PUSH1 0x80 DUP4 ADD DUP5 PUSH2 0x8CE2 JUMP JUMPDEST SWAP7 SWAP6 POP POP POP POP POP POP JUMP JUMPDEST PUSH1 0x0 PUSH1 0x60 DUP3 ADD SWAP1 POP PUSH2 0x95C7 PUSH1 0x0 DUP4 ADD DUP7 PUSH2 0x8CE2 JUMP JUMPDEST PUSH2 0x95D4 PUSH1 0x20 DUP4 ADD DUP6 PUSH2 0x8CE2 JUMP JUMPDEST PUSH2 0x95E1 PUSH1 0x40 DUP4 ADD DUP5 PUSH2 0x8CE2 JUMP JUMPDEST SWAP5 SWAP4 POP POP POP POP JUMP JUMPDEST PUSH1 0x0 PUSH1 0x20 DUP3 ADD SWAP1 POP PUSH2 0x95FE PUSH1 0x0 DUP4 ADD DUP5 PUSH2 0x8CF1 JUMP JUMPDEST SWAP3 SWAP2 POP POP JUMP JUMPDEST PUSH1 0x0 PUSH2 0x960E PUSH2 0x961F JUMP JUMPDEST SWAP1 POP PUSH2 0x961A DUP3 DUP3 PUSH2 0x9960 JUMP JUMPDEST SWAP2 SWAP1 POP JUMP JUMPDEST PUSH1 0x0 PUSH1 0x40 MLOAD SWAP1 POP SWAP1 JUMP JUMPDEST PUSH1 0x0 PUSH8 0xFFFFFFFFFFFFFFFF DUP3 GT ISZERO PUSH2 0x9644 JUMPI PUSH2 0x9643 PUSH2 0x9A4D JUMP JUMPDEST JUMPDEST PUSH2 0x964D DUP3 PUSH2 0x9A90 JUMP JUMPDEST SWAP1 POP PUSH1 0x20 DUP2 ADD SWAP1 POP SWAP2 SWAP1 POP JUMP JUMPDEST PUSH1 0x0 DUP2 SWAP1 POP PUSH1 0x20 DUP3 ADD SWAP1 POP SWAP2 SWAP1 POP JUMP JUMPDEST PUSH1 0x0 DUP2 MLOAD SWAP1 POP SWAP2 SWAP1 POP JUMP JUMPDEST PUSH1 0x0 DUP2 MLOAD SWAP1 POP SWAP2 SWAP1 POP JUMP JUMPDEST PUSH1 0x0 DUP2 MLOAD SWAP1 POP SWAP2 SWAP1 POP JUMP JUMPDEST PUSH1 0x0 PUSH1 0x20 DUP3 ADD SWAP1 POP SWAP2 SWAP1 POP JUMP JUMPDEST PUSH1 0x0 DUP3 DUP3 MSTORE PUSH1 0x20 DUP3 ADD SWAP1 POP SWAP3 SWAP2 POP POP JUMP JUMPDEST PUSH1 0x0 DUP2 SWAP1 POP SWAP3 SWAP2 POP POP JUMP JUMPDEST PUSH1 0x0 DUP3 DUP3 MSTORE PUSH1 0x20 DUP3 ADD SWAP1 POP SWAP3 SWAP2 POP POP JUMP JUMPDEST PUSH1 0x0 DUP2 SWAP1 POP SWAP3 SWAP2 POP POP JUMP JUMPDEST PUSH1 0x0 PUSH2 0x96DB DUP3 PUSH2 0x983B JUMP JUMPDEST SWAP2 POP PUSH2 0x96E6 DUP4 PUSH2 0x983B JUMP JUMPDEST SWAP3 POP DUP3 PUSH2 0xFFFF SUB DUP3 GT ISZERO PUSH2 0x96FD JUMPI PUSH2 0x96FC PUSH2 0x9991 JUMP JUMPDEST JUMPDEST DUP3 DUP3 ADD SWAP1 POP SWAP3 SWAP2 POP POP JUMP JUMPDEST PUSH1 0x0 PUSH2 0x9713 DUP3 PUSH2 0x9869 JUMP JUMPDEST SWAP2 POP PUSH2 0x971E DUP4 PUSH2 0x9869 JUMP JUMPDEST SWAP3 POP DUP3 PUSH32 0xFFFFFFFFFFFFFFFFFFFFFFFFFFFFFFFFFFFFFFFFFFFFFFFFFFFFFFFFFFFFFFFF SUB DUP3 GT ISZERO PUSH2 0x9753 JUMPI PUSH2 0x9752 PUSH2 0x9991 JUMP JUMPDEST JUMPDEST DUP3 DUP3 ADD SWAP1 POP SWAP3 SWAP2 POP POP JUMP JUMPDEST PUSH1 0x0 PUSH2 0x9769 DUP3 PUSH2 0x9869 JUMP JUMPDEST SWAP2 POP PUSH2 0x9774 DUP4 PUSH2 0x9869 JUMP JUMPDEST SWAP3 POP DUP3 PUSH2 0x9784 JUMPI PUSH2 0x9783 PUSH2 0x99C0 JUMP JUMPDEST JUMPDEST DUP3 DUP3 DIV SWAP1 POP SWAP3 SWAP2 POP POP JUMP JUMPDEST PUSH1 0x0 PUSH2 0x979A DUP3 PUSH2 0x9869 JUMP JUMPDEST SWAP2 POP PUSH2 0x97A5 DUP4 PUSH2 0x9869 JUMP JUMPDEST SWAP3 POP DUP2 PUSH32 0xFFFFFFFFFFFFFFFFFFFFFFFFFFFFFFFFFFFFFFFFFFFFFFFFFFFFFFFFFFFFFFFF DIV DUP4 GT DUP3 ISZERO ISZERO AND ISZERO PUSH2 0x97DE JUMPI PUSH2 0x97DD PUSH2 0x9991 JUMP JUMPDEST JUMPDEST DUP3 DUP3 MUL SWAP1 POP SWAP3 SWAP2 POP POP JUMP JUMPDEST PUSH1 0x0 PUSH2 0x97F4 DUP3 PUSH2 0x9869 JUMP JUMPDEST SWAP2 POP PUSH2 0x97FF DUP4 PUSH2 0x9869 JUMP JUMPDEST SWAP3 POP DUP3 DUP3 LT ISZERO PUSH2 0x9812 JUMPI PUSH2 0x9811 PUSH2 0x9991 JUMP JUMPDEST JUMPDEST DUP3 DUP3 SUB SWAP1 POP SWAP3 SWAP2 POP POP JUMP JUMPDEST PUSH1 0x0 PUSH2 0x9828 DUP3 PUSH2 0x9849 JUMP JUMPDEST SWAP1 POP SWAP2 SWAP1 POP JUMP JUMPDEST PUSH1 0x0 DUP2 ISZERO ISZERO SWAP1 POP SWAP2 SWAP1 POP JUMP JUMPDEST PUSH1 0x0 PUSH2 0xFFFF DUP3 AND SWAP1 POP SWAP2 SWAP1 POP JUMP JUMPDEST PUSH1 0x0 PUSH20 0xFFFFFFFFFFFFFFFFFFFFFFFFFFFFFFFFFFFFFFFF DUP3 AND SWAP1 POP SWAP2 SWAP1 POP JUMP JUMPDEST PUSH1 0x0 DUP2 SWAP1 POP SWAP2 SWAP1 POP JUMP JUMPDEST PUSH1 0x0 PUSH1 0xFF DUP3 AND SWAP1 POP SWAP2 SWAP1 POP JUMP JUMPDEST PUSH1 0x0 PUSH2 0x988B DUP3 PUSH2 0x98B6 JUMP JUMPDEST SWAP1 POP SWAP2 SWAP1 POP JUMP JUMPDEST PUSH1 0x0 PUSH2 0x989D DUP3 PUSH2 0x98B6 JUMP JUMPDEST SWAP1 POP SWAP2 SWAP1 POP JUMP JUMPDEST PUSH1 0x0 PUSH2 0x98AF DUP3 PUSH2 0x9869 JUMP JUMPDEST SWAP1 POP SWAP2 SWAP1 POP JUMP JUMPDEST PUSH1 0x0 PUSH2 0x98C1 DUP3 PUSH2 0x98C8 JUMP JUMPDEST SWAP1 POP SWAP2 SWAP1 POP JUMP JUMPDEST PUSH1 0x0 PUSH2 0x98D3 DUP3 PUSH2 0x9849 JUMP JUMPDEST SWAP1 POP SWAP2 SWAP1 POP JUMP JUMPDEST PUSH1 0x0 PUSH2 0x98E5 DUP3 PUSH2 0x983B JUMP JUMPDEST SWAP1 POP SWAP2 SWAP1 POP JUMP JUMPDEST DUP3 DUP2 DUP4 CALLDATACOPY PUSH1 0x0 DUP4 DUP4 ADD MSTORE POP POP POP JUMP JUMPDEST PUSH1 0x0 JUMPDEST DUP4 DUP2 LT ISZERO PUSH2 0x9919 JUMPI DUP1 DUP3 ADD MLOAD DUP2 DUP5 ADD MSTORE PUSH1 0x20 DUP2 ADD SWAP1 POP PUSH2 0x98FE JUMP JUMPDEST DUP4 DUP2 GT ISZERO PUSH2 0x9928 JUMPI PUSH1 0x0 DUP5 DUP5 ADD MSTORE JUMPDEST POP POP POP POP JUMP JUMPDEST PUSH1 0x0 PUSH1 0x2 DUP3 DIV SWAP1 POP PUSH1 0x1 DUP3 AND DUP1 PUSH2 0x9946 JUMPI PUSH1 0x7F DUP3 AND SWAP2 POP JUMPDEST PUSH1 0x20 DUP3 LT DUP2 EQ ISZERO PUSH2 0x995A JUMPI PUSH2 0x9959 PUSH2 0x99EF JUMP JUMPDEST JUMPDEST POP SWAP2 SWAP1 POP JUMP JUMPDEST PUSH2 0x9969 DUP3 PUSH2 0x9A90 JUMP JUMPDEST DUP2 ADD DUP2 DUP2 LT PUSH8 0xFFFFFFFFFFFFFFFF DUP3 GT OR ISZERO PUSH2 0x9988 JUMPI PUSH2 0x9987 PUSH2 0x9A4D JUMP JUMPDEST JUMPDEST DUP1 PUSH1 0x40 MSTORE POP POP POP JUMP JUMPDEST PUSH32 0x4E487B7100000000000000000000000000000000000000000000000000000000 PUSH1 0x0 MSTORE PUSH1 0x11 PUSH1 0x4 MSTORE PUSH1 0x24 PUSH1 0x0 REVERT JUMPDEST PUSH32 0x4E487B7100000000000000000000000000000000000000000000000000000000 PUSH1 0x0 MSTORE PUSH1 0x12 PUSH1 0x4 MSTORE PUSH1 0x24 PUSH1 0x0 REVERT JUMPDEST PUSH32 0x4E487B7100000000000000000000000000000000000000000000000000000000 PUSH1 0x0 MSTORE PUSH1 0x22 PUSH1 0x4 MSTORE PUSH1 0x24 PUSH1 0x0 REVERT JUMPDEST PUSH32 0x4E487B7100000000000000000000000000000000000000000000000000000000 PUSH1 0x0 MSTORE PUSH1 0x32 PUSH1 0x4 MSTORE PUSH1 0x24 PUSH1 0x0 REVERT JUMPDEST PUSH32 0x4E487B7100000000000000000000000000000000000000000000000000000000 PUSH1 0x0 MSTORE PUSH1 0x41 PUSH1 0x4 MSTORE PUSH1 0x24 PUSH1 0x0 REVERT JUMPDEST PUSH1 0x0 DUP1 REVERT JUMPDEST PUSH1 0x0 DUP1 REVERT JUMPDEST PUSH1 0x0 DUP1 REVERT JUMPDEST PUSH1 0x0 DUP1 REVERT JUMPDEST PUSH1 0x0 PUSH1 0x1F NOT PUSH1 0x1F DUP4 ADD AND SWAP1 POP SWAP2 SWAP1 POP JUMP JUMPDEST PUSH32 0x45524332303A207472616E7366657220746F20746865207A65726F2061646472 PUSH1 0x0 DUP3 ADD MSTORE PUSH32 0x6573730000000000000000000000000000000000000000000000000000000000 PUSH1 0x20 DUP3 ADD MSTORE POP JUMP JUMPDEST PUSH32 0x41424F41543A3A7265717565737457686974656C6973743A20596F7520617265 PUSH1 0x0 DUP3 ADD MSTORE PUSH32 0x206E6F7420626C61636B6C697374656421000000000000000000000000000000 PUSH1 0x20 DUP3 ADD MSTORE POP JUMP JUMPDEST PUSH32 0x41424F41543A3A7570646174654D6178696D756D5472616E7366657254617852 PUSH1 0x0 DUP3 ADD MSTORE PUSH32 0x6174653A206D6178696D756D5472616E7366657254617852617465206D757374 PUSH1 0x20 DUP3 ADD MSTORE PUSH32 0x206E6F742062652062656C6F77206D696E696D756D5472616E73666572546178 PUSH1 0x40 DUP3 ADD MSTORE PUSH32 0x526174652E000000000000000000000000000000000000000000000000000000 PUSH1 0x60 DUP3 ADD MSTORE POP JUMP JUMPDEST PUSH32 0x41424F41543A3A7472616E736665723A20616D6F756E7420746F2073656E6420 PUSH1 0x0 DUP3 ADD MSTORE PUSH32 0x776974682074617820616D6F756E742065786365656473206D6178696D756D20 PUSH1 0x20 DUP3 ADD MSTORE PUSH32 0x706F737369626C6520616D6F756E740000000000000000000000000000000000 PUSH1 0x40 DUP3 ADD MSTORE POP JUMP JUMPDEST PUSH32 0x41424F41543A3A6D696E743A2043616E2774206D696E74206D6F72652061626F PUSH1 0x0 DUP3 ADD MSTORE PUSH32 0x617420746F6B656E207468616E206D6178446973747269627574696F6E20616C PUSH1 0x20 DUP3 ADD MSTORE PUSH32 0x6C6F777300000000000000000000000000000000000000000000000000000000 PUSH1 0x40 DUP3 ADD MSTORE POP JUMP JUMPDEST PUSH32 0x4F776E61626C653A206E6577206F776E657220697320746865207A65726F2061 PUSH1 0x0 DUP3 ADD MSTORE PUSH32 0x6464726573730000000000000000000000000000000000000000000000000000 PUSH1 0x20 DUP3 ADD MSTORE POP JUMP JUMPDEST PUSH32 0x45524332303A20617070726F766520746F20746865207A65726F206164647265 PUSH1 0x0 DUP3 ADD MSTORE PUSH32 0x7373000000000000000000000000000000000000000000000000000000000000 PUSH1 0x20 DUP3 ADD MSTORE POP JUMP JUMPDEST PUSH32 0x496E76616C6964206C6971756469747920706169723A20506169722063616E27 PUSH1 0x0 DUP3 ADD MSTORE PUSH32 0x7420636F6E7461696E207468652073616D6520746F6B656E2074776963650000 PUSH1 0x20 DUP3 ADD MSTORE POP JUMP JUMPDEST PUSH32 0x41424F41543A3A7472616E736665723A2046656520616D6F756E7420646F6573 PUSH1 0x0 DUP3 ADD MSTORE PUSH32 0x206E6F7420657175616C207468652073706C69742066656520616D6F756E7400 PUSH1 0x20 DUP3 ADD MSTORE POP JUMP JUMPDEST PUSH32 0x45524332303A207472616E7366657220616D6F756E7420657863656564732062 PUSH1 0x0 DUP3 ADD MSTORE PUSH32 0x616C616E63650000000000000000000000000000000000000000000000000000 PUSH1 0x20 DUP3 ADD MSTORE POP JUMP JUMPDEST PUSH32 0x5472616E7366657248656C7065723A3A736166655472616E736665724554483A PUSH1 0x0 DUP3 ADD MSTORE PUSH32 0x20455448207472616E73666572206661696C6564000000000000000000000000 PUSH1 0x20 DUP3 ADD MSTORE POP JUMP JUMPDEST PUSH32 0x41424F41543A3A7365744D6173746572456E7465727461696E65723A204D6173 PUSH1 0x0 DUP3 ADD MSTORE PUSH32 0x74657220656E7465727461696E65722063616E277420657175616C2070726576 PUSH1 0x20 DUP3 ADD MSTORE PUSH32 0x696F7573206D617374657220656E7465727461696E6572206F72207A65726F20 PUSH1 0x40 DUP3 ADD MSTORE PUSH32 0x6164647265737300000000000000000000000000000000000000000000000000 PUSH1 0x60 DUP3 ADD MSTORE POP JUMP JUMPDEST PUSH32 0x41424F41543A3A5F7472616E736665723A207472616E7366657220746F207468 PUSH1 0x0 DUP3 ADD MSTORE PUSH32 0x65207A65726F2061646472657373000000000000000000000000000000000000 PUSH1 0x20 DUP3 ADD MSTORE POP JUMP JUMPDEST PUSH32 0x41424F41543A3A5F7472616E736665723A436F6E7472616374206973206E6F74 PUSH1 0x0 DUP3 ADD MSTORE PUSH32 0x20796574206F70656E20666F7220636F6D6D756E697479000000000000000000 PUSH1 0x20 DUP3 ADD MSTORE POP JUMP JUMPDEST PUSH32 0x41424F41543A3A636C61696D457863656564696E674C6971756964697479546F PUSH1 0x0 DUP3 ADD MSTORE PUSH32 0x6B656E42616C616E63653A204E6F20657863656564696E672062616C616E6365 PUSH1 0x20 DUP3 ADD MSTORE POP JUMP JUMPDEST PUSH32 0x4D6178207472616E73616374696F6E2073697A652063616E2774206265206C6F PUSH1 0x0 DUP3 ADD MSTORE PUSH32 0x776572207468616E20302E3125206F6620746F74616C20737570706C79000000 PUSH1 0x20 DUP3 ADD MSTORE POP JUMP JUMPDEST PUSH32 0x41424F41543A3A7265717565737457686974656C6973743A20416D6F756E7420 PUSH1 0x0 DUP3 ADD MSTORE PUSH32 0x6F6620626E6220746F20636C61696D2073686F756C6420636172727920746865 PUSH1 0x20 DUP3 ADD MSTORE PUSH32 0x20636F737420746F206164642074686520636C61696D61626C65000000000000 PUSH1 0x40 DUP3 ADD MSTORE POP JUMP JUMPDEST PUSH32 0x41424F41543A3A5F7472616E736665723A5472616E7366657220616D6F756E74 PUSH1 0x0 DUP3 ADD MSTORE PUSH32 0x206D757374206265206C6F776572206F7220657175616C2073656E6465727320 PUSH1 0x20 DUP3 ADD MSTORE PUSH32 0x62616C616E636500000000000000000000000000000000000000000000000000 PUSH1 0x40 DUP3 ADD MSTORE POP JUMP JUMPDEST PUSH32 0x41424F41543A3A7570646174654D6178696D756D5472616E7366657254617852 PUSH1 0x0 DUP3 ADD MSTORE PUSH32 0x6174653A206D6178696D756D5472616E7366657254617852617465206D757374 PUSH1 0x20 DUP3 ADD MSTORE PUSH32 0x20657863656564204D4158494D554D5F5441582E000000000000000000000000 PUSH1 0x40 DUP3 ADD MSTORE POP JUMP JUMPDEST PUSH32 0x41424F41543A3A736574446F6E6174696F6E57616C6C65743A20416464726573 PUSH1 0x0 DUP3 ADD MSTORE PUSH32 0x732063616E2774206265207A65726F2061646472657373000000000000000000 PUSH1 0x20 DUP3 ADD MSTORE POP JUMP JUMPDEST PUSH32 0x41424F41543A3A7365744D61696E7461696E65723A204D61696E7461696E6572 PUSH1 0x0 DUP3 ADD MSTORE PUSH32 0x2063616E277420657175616C2070726576696F7573206D61696E7461696E6572 PUSH1 0x20 DUP3 ADD MSTORE PUSH32 0x206F72207A65726F206164647265737300000000000000000000000000000000 PUSH1 0x40 DUP3 ADD MSTORE POP JUMP JUMPDEST PUSH32 0x596F7572207472616E73666572206578636565647320746865206D6178696D75 PUSH1 0x0 DUP3 ADD MSTORE PUSH32 0x6D20706F737369626C6520616D6F756E7420706572207472616E73616374696F PUSH1 0x20 DUP3 ADD MSTORE PUSH32 0x6E00000000000000000000000000000000000000000000000000000000000000 PUSH1 0x40 DUP3 ADD MSTORE POP JUMP JUMPDEST PUSH32 0x41424F41543A3A7265717565737457686974656C6973743A20596F7520616C72 PUSH1 0x0 DUP3 ADD MSTORE PUSH32 0x65616479207265717565737465642077686974656C6973742100000000000000 PUSH1 0x20 DUP3 ADD MSTORE POP JUMP JUMPDEST PUSH32 0x41424F41543A3A5F7472616E736665723A207472616E736665722066726F6D20 PUSH1 0x0 DUP3 ADD MSTORE PUSH32 0x746865207A65726F206164647265737300000000000000000000000000000000 PUSH1 0x20 DUP3 ADD MSTORE POP JUMP JUMPDEST PUSH32 0x45524332303A207472616E7366657220616D6F756E7420657863656564732061 PUSH1 0x0 DUP3 ADD MSTORE PUSH32 0x6C6C6F77616E6365000000000000000000000000000000000000000000000000 PUSH1 0x20 DUP3 ADD MSTORE POP JUMP JUMPDEST PUSH32 0x4F776E61626C653A2063616C6C6572206973206E6F7420746865206F776E6572 PUSH1 0x0 DUP3 ADD MSTORE POP JUMP JUMPDEST PUSH32 0x46756E6374696F6E206973206C6F636B65640000000000000000000000000000 PUSH1 0x0 DUP3 ADD MSTORE POP JUMP JUMPDEST PUSH32 0x41424F41543A3A7365744D6178446973747269627574696F6E3A204469737472 PUSH1 0x0 DUP3 ADD MSTORE PUSH32 0x69627574696F6E2063616E2774206265206C6F776572207468616E2074686520 PUSH1 0x20 DUP3 ADD MSTORE PUSH32 0x63757272656E7420746F74616C20737570706C79000000000000000000000000 PUSH1 0x40 DUP3 ADD MSTORE POP JUMP JUMPDEST PUSH32 0x41424F41543A3A7570646174654D696E696D756D5472616E7366657254617852 PUSH1 0x0 DUP3 ADD MSTORE PUSH32 0x6174653A206D696E696D756D5472616E7366657254617852617465206D757374 PUSH1 0x20 DUP3 ADD MSTORE PUSH32 0x206E6F7420657863656564206D6178696D756D5472616E736665725461785261 PUSH1 0x40 DUP3 ADD MSTORE PUSH32 0x74652E0000000000000000000000000000000000000000000000000000000000 PUSH1 0x60 DUP3 ADD MSTORE POP JUMP JUMPDEST PUSH32 0x6F70657261746F723A2063616C6C6572206973206E6F7420616C6C6F77656420 PUSH1 0x0 DUP3 ADD MSTORE PUSH32 0x746F2063616C6C20746869732066756E6374696F6E0000000000000000000000 PUSH1 0x20 DUP3 ADD MSTORE POP JUMP JUMPDEST PUSH32 0x45524332303A207472616E736665722066726F6D20746865207A65726F206164 PUSH1 0x0 DUP3 ADD MSTORE PUSH32 0x6472657373000000000000000000000000000000000000000000000000000000 PUSH1 0x20 DUP3 ADD MSTORE POP JUMP JUMPDEST PUSH32 0x41424F41543A3A5F7472616E736665723A596F752772652063757272656E746C PUSH1 0x0 DUP3 ADD MSTORE PUSH32 0x7920626C61636B6C69737465642E20506C65617365207265706F727420746F20 PUSH1 0x20 DUP3 ADD MSTORE PUSH32 0x736572766963654074616C6B61626F61742E6F6E6C696E6520696620796F7520 PUSH1 0x40 DUP3 ADD MSTORE PUSH32 0x77616E7420746F206765742072656D6F7665642066726F6D20626C61636B6C69 PUSH1 0x60 DUP3 ADD MSTORE PUSH32 0x7374210000000000000000000000000000000000000000000000000000000000 PUSH1 0x80 DUP3 ADD MSTORE POP JUMP JUMPDEST PUSH32 0x4D6178206163636F756E742062616C616E63652063616E2774206265206C6F77 PUSH1 0x0 DUP3 ADD MSTORE PUSH32 0x6572207468616E203125206F6620746F74616C20737570706C79000000000000 PUSH1 0x20 DUP3 ADD MSTORE POP JUMP JUMPDEST PUSH32 0x45524332303A20617070726F76652066726F6D20746865207A65726F20616464 PUSH1 0x0 DUP3 ADD MSTORE PUSH32 0x7265737300000000000000000000000000000000000000000000000000000000 PUSH1 0x20 DUP3 ADD MSTORE POP JUMP JUMPDEST PUSH32 0x4C6971756966793A3A7365744C6971756964697479506169723A204C69717569 PUSH1 0x0 DUP3 ADD MSTORE PUSH32 0x6469747920706169722063616E277420636F6E7461696E207A65726F20616464 PUSH1 0x20 DUP3 ADD MSTORE PUSH32 0x7265737300000000000000000000000000000000000000000000000000000000 PUSH1 0x40 DUP3 ADD MSTORE POP JUMP JUMPDEST PUSH32 0x41424F41543A3A5F7472616E736665723A5472616E7366657220616D6F756E74 PUSH1 0x0 DUP3 ADD MSTORE PUSH32 0x206D7573742062652067726561746572207468616E207A65726F000000000000 PUSH1 0x20 DUP3 ADD MSTORE POP JUMP JUMPDEST PUSH32 0x41424F41543A3A5F7472616E736665723A42616C616E6365206F662072656369 PUSH1 0x0 DUP3 ADD MSTORE PUSH32 0x7069656E742063616E277420657863656564206D617841636342616C616E6365 PUSH1 0x20 DUP3 ADD MSTORE POP JUMP JUMPDEST PUSH32 0x41424F41543A3A7570646174655461783A205461782063616E74206578636565 PUSH1 0x0 DUP3 ADD MSTORE PUSH32 0x64203130302070657263656E7421000000000000000000000000000000000000 PUSH1 0x20 DUP3 ADD MSTORE POP JUMP JUMPDEST PUSH32 0x41424F41543A3A73657452657761726457616C6C65743A204164647265737320 PUSH1 0x0 DUP3 ADD MSTORE PUSH32 0x63616E2774206265207A65726F20616464726573730000000000000000000000 PUSH1 0x20 DUP3 ADD MSTORE POP JUMP JUMPDEST PUSH32 0x5265656E7472616E637947756172643A207265656E7472616E742063616C6C00 PUSH1 0x0 DUP3 ADD MSTORE POP JUMP JUMPDEST PUSH32 0x41424F41543A3A73657444657657616C6C65743A20416464726573732063616E PUSH1 0x0 DUP3 ADD MSTORE PUSH32 0x2774206265207A65726F20616464726573730000000000000000000000000000 PUSH1 0x20 DUP3 ADD MSTORE POP JUMP JUMPDEST PUSH32 0x45524332303A2064656372656173656420616C6C6F77616E63652062656C6F77 PUSH1 0x0 DUP3 ADD MSTORE PUSH32 0x207A65726F000000000000000000000000000000000000000000000000000000 PUSH1 0x20 DUP3 ADD MSTORE POP JUMP JUMPDEST PUSH32 0x45524332303A206D696E7420746F20746865207A65726F206164647265737300 PUSH1 0x0 DUP3 ADD MSTORE POP JUMP JUMPDEST PUSH2 0xAA03 DUP2 PUSH2 0x981D JUMP JUMPDEST DUP2 EQ PUSH2 0xAA0E JUMPI PUSH1 0x0 DUP1 REVERT JUMPDEST POP JUMP JUMPDEST PUSH2 0xAA1A DUP2 PUSH2 0x982F JUMP JUMPDEST DUP2 EQ PUSH2 0xAA25 JUMPI PUSH1 0x0 DUP1 REVERT JUMPDEST POP JUMP JUMPDEST PUSH2 0xAA31 DUP2 PUSH2 0x983B JUMP JUMPDEST DUP2 EQ PUSH2 0xAA3C JUMPI PUSH1 0x0 DUP1 REVERT JUMPDEST POP JUMP JUMPDEST PUSH2 0xAA48 DUP2 PUSH2 0x9869 JUMP JUMPDEST DUP2 EQ PUSH2 0xAA53 JUMPI PUSH1 0x0 DUP1 REVERT JUMPDEST POP JUMP INVALID LOG2 PUSH5 0x6970667358 0x22 SLT KECCAK256 0xE3 0x4C BYTE MSTORE8 EQ CREATE 0x4A DUP9 PUSH29 0x3D4B0EE9ABF3B67833771570DD2C362854F408B08331B464736F6C6343 STOP ADDMOD SMOD STOP CALLER "
		},
		"gasEstimates": {
			"creation": {
				"codeDepositCost": "8732000",
				"executionCost": "infinite",
				"totalCost": "infinite"
			},
			"external": {
				"MAXIMUM_TAX()": "512",
				"_devWallet()": "2671",
				"_donationWallet()": "2669",
				"_excludedFromFeesAsReceiver(address)": "2936",
				"_excludedFromFeesAsSender(address)": "2979",
				"_liquidityPair()": "2626",
				"_masterEntertainer()": "2713",
				"_minAmountToLiquify()": "2497",
				"_rewardWallet()": "2582",
				"_router()": "2733",
				"activateContract()": "28925",
				"activateHighFee()": "32343",
				"allowance(address,address)": "infinite",
				"approve(address,uint256)": "infinite",
				"balanceOf(address)": "2930",
				"blacklist(address)": "30485",
				"canMintNewCoins(uint256)": "infinite",
				"checkPriceUpdate()": "infinite",
				"claimExceedingETH()": "infinite",
				"deactivateHighFee()": "56567",
				"decimals()": "412",
				"decreaseAllowance(address,uint256)": "infinite",
				"devFeesPaid()": "2585",
				"devRate()": "2676",
				"donationFeesPaid()": "2585",
				"donationRate()": "2656",
				"excludeFromAll(address)": "53662",
				"excludeFromFeesAsReceiver(address)": "29304",
				"excludeTransferFeeAsSender(address)": "29369",
				"gasCost()": "2564",
				"getBalanceOf(address)": "infinite",
				"getCirculatingSupply()": "infinite",
				"getLiquidityTokenAddress()": "infinite",
				"getTaxFee(address)": "infinite",
				"hasRequestedWhitelist(address)": "7354",
				"includeForAll(address)": "53660",
				"includeForFeesAsReciever(address)": "29326",
				"includeTransferFeeAsSender(address)": "29282",
				"increaseAllowance(address,uint256)": "infinite",
				"isContractActive()": "2583",
				"isExcludedFromReceiverTax(address)": "2974",
				"isExcludedFromSenderTax(address)": "2972",
				"isHighFeeActive()": "2655",
				"isLiquifyActive()": "2591",
				"isLockEnabled()": "2654",
				"liquidityFeesPaid()": "2584",
				"liquidityPair()": "2635",
				"liquidityTokenBalance()": "infinite",
				"lockFunction(string)": "infinite",
				"maintainer()": "2612",
				"maxAccBalance()": "2613",
				"maxDistribution()": "2587",
				"maxTxQuantity()": "2656",
				"maximumTransferTaxRate()": "2675",
				"minimumTransferTaxRate()": "2635",
				"mint(address,uint256)": "infinite",
				"name()": "infinite",
				"owner()": "2590",
				"reDistributionFeesPaid()": "2519",
				"reDistributionRate()": "2657",
				"renounceOwnership()": "30485",
				"requestWhitelist()": "infinite",
				"setDevWallet(address)": "infinite",
				"setDonationWallet(address)": "29208",
				"setGasCost(uint256)": "32803",
				"setLiquidityPair(address)": "infinite",
				"setMaintainer(address)": "infinite",
				"setMasterEntertainer(address)": "infinite",
				"setMaxAccBalance(uint16)": "35244",
				"setMaxDistribution(uint256)": "infinite",
				"setMaxTransactionQuantity(uint16)": "35179",
				"setMinAmountToLiquify(uint256)": "26990",
				"setRewardWallet(address)": "infinite",
				"setTimelockEnabled()": "29706",
				"swapAndLiquify()": "infinite",
				"symbol()": "infinite",
				"timelock(string)": "infinite",
				"totalFeesPaid()": "2540",
				"totalSupply()": "2506",
				"transfer(address,uint256)": "infinite",
				"transferFrom(address,address,uint256)": "infinite",
				"transferOwnership(address)": "30789",
				"unlockFunction(string)": "infinite",
				"updateMaximumTransferTaxRate(uint16)": "infinite",
				"updateMinimumTransferTaxRate(uint16)": "infinite",
				"updateRouter(address)": "infinite",
				"updateTax(uint16,uint16,uint16)": "infinite",
				"whitelist(address)": "53683"
			},
			"internal": {
				"_transfer(address,address,uint256)": "infinite"
			}
		},
		"methodIdentifiers": {
			"MAXIMUM_TAX()": "d9324079",
			"_devWallet()": "11a63e17",
			"_donationWallet()": "a37f4ea9",
			"_excludedFromFeesAsReceiver(address)": "1ac818a1",
			"_excludedFromFeesAsSender(address)": "ae7e1d7a",
			"_liquidityPair()": "645830b4",
			"_masterEntertainer()": "0cd84dc6",
			"_minAmountToLiquify()": "982ceeb7",
			"_rewardWallet()": "a4f4a765",
			"_router()": "edae876f",
			"activateContract()": "8fda356d",
			"activateHighFee()": "f1a3da22",
			"allowance(address,address)": "dd62ed3e",
			"approve(address,uint256)": "095ea7b3",
			"balanceOf(address)": "70a08231",
			"blacklist(address)": "f9f92be4",
			"canMintNewCoins(uint256)": "69372b30",
			"checkPriceUpdate()": "437f660e",
			"claimExceedingETH()": "1b611111",
			"deactivateHighFee()": "2a83759b",
			"decimals()": "313ce567",
			"decreaseAllowance(address,uint256)": "a457c2d7",
			"devFeesPaid()": "91ee5864",
			"devRate()": "c9574975",
			"donationFeesPaid()": "2b714147",
			"donationRate()": "0d38ffcd",
			"excludeFromAll(address)": "370f0a60",
			"excludeFromFeesAsReceiver(address)": "986d6142",
			"excludeTransferFeeAsSender(address)": "7897af86",
			"gasCost()": "1d5e3fe5",
			"getBalanceOf(address)": "9b96eece",
			"getCirculatingSupply()": "2b112e49",
			"getLiquidityTokenAddress()": "506ee100",
			"getTaxFee(address)": "3071fed2",
			"hasRequestedWhitelist(address)": "318913fb",
			"includeForAll(address)": "a17252a4",
			"includeForFeesAsReciever(address)": "53a54511",
			"includeTransferFeeAsSender(address)": "4ad1eb81",
			"increaseAllowance(address,uint256)": "39509351",
			"isContractActive()": "8f5949f9",
			"isExcludedFromReceiverTax(address)": "8053575b",
			"isExcludedFromSenderTax(address)": "bb922014",
			"isHighFeeActive()": "653465bf",
			"isLiquifyActive()": "005d1afc",
			"isLockEnabled()": "a347511a",
			"liquidityFeesPaid()": "73b002a5",
			"liquidityPair()": "808a5457",
			"liquidityTokenBalance()": "239eb211",
			"lockFunction(string)": "9f531156",
			"maintainer()": "9850d32b",
			"maxAccBalance()": "0181bb78",
			"maxDistribution()": "044e0ea2",
			"maxTxQuantity()": "88bce123",
			"maximumTransferTaxRate()": "fafa4489",
			"minimumTransferTaxRate()": "01bbba4d",
			"mint(address,uint256)": "40c10f19",
			"name()": "06fdde03",
			"owner()": "8da5cb5b",
			"reDistributionFeesPaid()": "626bb274",
			"reDistributionRate()": "03fcdbdf",
			"renounceOwnership()": "715018a6",
			"requestWhitelist()": "6e1e9349",
			"setDevWallet(address)": "1f53ac02",
			"setDonationWallet(address)": "5a96cdd7",
			"setGasCost(uint256)": "8aba4659",
			"setLiquidityPair(address)": "9d93598e",
			"setMaintainer(address)": "13ea5d29",
			"setMasterEntertainer(address)": "54613450",
			"setMaxAccBalance(uint16)": "fb25c120",
			"setMaxDistribution(uint256)": "df6f6630",
			"setMaxTransactionQuantity(uint16)": "c1316eb6",
			"setMinAmountToLiquify(uint256)": "8efd5e3b",
			"setRewardWallet(address)": "5958621e",
			"setTimelockEnabled()": "f4762fd6",
			"swapAndLiquify()": "b29ad50a",
			"symbol()": "95d89b41",
			"timelock(string)": "f98080c0",
			"totalFeesPaid()": "e9fd5862",
			"totalSupply()": "18160ddd",
			"transfer(address,uint256)": "a9059cbb",
			"transferFrom(address,address,uint256)": "23b872dd",
			"transferOwnership(address)": "f2fde38b",
			"unlockFunction(string)": "a607494a",
			"updateMaximumTransferTaxRate(uint16)": "af10e03e",
			"updateMinimumTransferTaxRate(uint16)": "7d8e9615",
			"updateRouter(address)": "c851cc32",
			"updateTax(uint16,uint16,uint16)": "737dc9bd",
			"whitelist(address)": "9b19251a"
		}
	},
	"abi": [
		{
			"inputs": [],
			"stateMutability": "nonpayable",
			"type": "constructor"
		},
		{
			"anonymous": false,
			"inputs": [
				{
					"indexed": true,
					"internalType": "address",
					"name": "owner",
					"type": "address"
				},
				{
					"indexed": true,
					"internalType": "address",
					"name": "spender",
					"type": "address"
				},
				{
					"indexed": false,
					"internalType": "uint256",
					"name": "value",
					"type": "uint256"
				}
			],
			"name": "Approval",
			"type": "event"
		},
		{
			"anonymous": false,
			"inputs": [
				{
					"indexed": true,
					"internalType": "address",
					"name": "user",
					"type": "address"
				}
			],
			"name": "Blacklisted",
			"type": "event"
		},
		{
			"anonymous": false,
			"inputs": [
				{
					"indexed": true,
					"internalType": "bool",
					"name": "state",
					"type": "bool"
				}
			],
			"name": "ChangedHighFeeState",
			"type": "event"
		},
		{
			"anonymous": false,
			"inputs": [
				{
					"indexed": true,
					"internalType": "address",
					"name": "caller",
					"type": "address"
				},
				{
					"indexed": true,
					"internalType": "address",
					"name": "pair",
					"type": "address"
				}
			],
			"name": "ChangedLiquidityPair",
			"type": "event"
		},
		{
			"anonymous": false,
			"inputs": [],
			"name": "EnabledLock",
			"type": "event"
		},
		{
			"anonymous": false,
			"inputs": [
				{
					"indexed": true,
					"internalType": "uint256",
					"name": "previousGasCost",
					"type": "uint256"
				},
				{
					"indexed": true,
					"internalType": "uint256",
					"name": "newGasCost",
					"type": "uint256"
				}
			],
			"name": "GasCostChanged",
			"type": "event"
		},
		{
			"anonymous": false,
			"inputs": [
				{
					"indexed": true,
					"internalType": "address",
					"name": "previousMaintainer",
					"type": "address"
				},
				{
					"indexed": true,
					"internalType": "address",
					"name": "newMaintainer",
					"type": "address"
				}
			],
			"name": "MaintainerTransferred",
			"type": "event"
		},
		{
			"anonymous": false,
			"inputs": [
				{
					"indexed": true,
					"internalType": "address",
					"name": "previousMasterEntertainer",
					"type": "address"
				},
				{
					"indexed": true,
					"internalType": "address",
					"name": "newMasterEntertainer",
					"type": "address"
				}
			],
			"name": "MasterEntertainerTransferred",
			"type": "event"
		},
		{
			"anonymous": false,
			"inputs": [
				{
					"indexed": true,
					"internalType": "uint16",
					"name": "previousMaxBalance",
					"type": "uint16"
				},
				{
					"indexed": true,
					"internalType": "uint16",
					"name": "newMaxBalance",
					"type": "uint16"
				}
			],
			"name": "MaxAccBalanceChanged",
			"type": "event"
		},
		{
			"anonymous": false,
			"inputs": [
				{
					"indexed": true,
					"internalType": "uint256",
					"name": "newMaxDistribution",
					"type": "uint256"
				}
			],
			"name": "MaxDistributionChanged",
			"type": "event"
		},
		{
			"anonymous": false,
			"inputs": [
				{
					"indexed": true,
					"internalType": "uint16",
					"name": "previousMaxTxQuantity",
					"type": "uint16"
				},
				{
					"indexed": true,
					"internalType": "uint16",
					"name": "newMaxTxQuantity",
					"type": "uint16"
				}
			],
			"name": "MaxTransactionQuantityChanged",
			"type": "event"
		},
		{
			"anonymous": false,
			"inputs": [
				{
					"indexed": true,
					"internalType": "address",
					"name": "caller",
					"type": "address"
				},
				{
					"indexed": false,
					"internalType": "uint256",
					"name": "previousRate",
					"type": "uint256"
				},
				{
					"indexed": false,
					"internalType": "uint256",
					"name": "newRate",
					"type": "uint256"
				}
			],
			"name": "MaximumTransferTaxRateUpdated",
			"type": "event"
		},
		{
			"anonymous": false,
			"inputs": [
				{
					"indexed": true,
					"internalType": "address",
					"name": "caller",
					"type": "address"
				},
				{
					"indexed": false,
					"internalType": "uint256",
					"name": "previousAmount",
					"type": "uint256"
				},
				{
					"indexed": false,
					"internalType": "uint256",
					"name": "newAmount",
					"type": "uint256"
				}
			],
			"name": "MinAmountToLiquifyUpdated",
			"type": "event"
		},
		{
			"anonymous": false,
			"inputs": [
				{
					"indexed": true,
					"internalType": "address",
					"name": "caller",
					"type": "address"
				},
				{
					"indexed": false,
					"internalType": "uint256",
					"name": "previousRate",
					"type": "uint256"
				},
				{
					"indexed": false,
					"internalType": "uint256",
					"name": "newRate",
					"type": "uint256"
				}
			],
			"name": "MinimumTransferTaxRateUpdated",
			"type": "event"
		},
		{
			"anonymous": false,
			"inputs": [
				{
					"indexed": true,
					"internalType": "address",
					"name": "previousOwner",
					"type": "address"
				},
				{
					"indexed": true,
					"internalType": "address",
					"name": "newOwner",
					"type": "address"
				}
			],
			"name": "OwnershipTransferred",
			"type": "event"
		},
		{
			"anonymous": false,
			"inputs": [
				{
					"indexed": true,
					"internalType": "address",
					"name": "requestee",
					"type": "address"
				}
			],
			"name": "RequestedWhitelist",
			"type": "event"
		},
		{
			"anonymous": false,
			"inputs": [
				{
					"indexed": true,
					"internalType": "address",
					"name": "caller",
					"type": "address"
				},
				{
					"indexed": true,
					"internalType": "address",
					"name": "router",
					"type": "address"
				},
				{
					"indexed": true,
					"internalType": "address",
					"name": "pair",
					"type": "address"
				}
			],
			"name": "RouterUpdated",
			"type": "event"
		},
		{
			"anonymous": false,
			"inputs": [
				{
					"indexed": false,
					"internalType": "uint256",
					"name": "tokensSwapped",
					"type": "uint256"
				},
				{
					"indexed": false,
					"internalType": "uint256",
					"name": "ethReceived",
					"type": "uint256"
				},
				{
					"indexed": false,
					"internalType": "uint256",
					"name": "tokensIntoLiquidity",
					"type": "uint256"
				}
			],
			"name": "SwapAndLiquify",
			"type": "event"
		},
		{
			"anonymous": false,
			"inputs": [
				{
					"indexed": true,
					"internalType": "address",
					"name": "from",
					"type": "address"
				},
				{
					"indexed": true,
					"internalType": "address",
					"name": "to",
					"type": "address"
				},
				{
					"indexed": false,
					"internalType": "uint256",
					"name": "value",
					"type": "uint256"
				}
			],
			"name": "Transfer",
			"type": "event"
		},
		{
			"anonymous": false,
			"inputs": [
				{
					"indexed": true,
					"internalType": "string",
					"name": "functionName",
					"type": "string"
				},
				{
					"indexed": true,
					"internalType": "uint256",
					"name": "unlockedAt",
					"type": "uint256"
				}
			],
			"name": "UnlockedFunction",
			"type": "event"
		},
		{
			"anonymous": false,
			"inputs": [
				{
					"indexed": false,
					"internalType": "uint16",
					"name": "redistribution",
					"type": "uint16"
				},
				{
					"indexed": false,
					"internalType": "uint16",
					"name": "dev",
					"type": "uint16"
				},
				{
					"indexed": false,
					"internalType": "uint16",
					"name": "donation",
					"type": "uint16"
				}
			],
			"name": "UpdateTax",
			"type": "event"
		},
		{
			"inputs": [],
			"name": "MAXIMUM_TAX",
			"outputs": [
				{
					"internalType": "uint16",
					"name": "",
					"type": "uint16"
				}
			],
			"stateMutability": "view",
			"type": "function"
		},
		{
			"inputs": [],
			"name": "_devWallet",
			"outputs": [
				{
					"internalType": "address",
					"name": "",
					"type": "address"
				}
			],
			"stateMutability": "view",
			"type": "function"
		},
		{
			"inputs": [],
			"name": "_donationWallet",
			"outputs": [
				{
					"internalType": "address",
					"name": "",
					"type": "address"
				}
			],
			"stateMutability": "view",
			"type": "function"
		},
		{
			"inputs": [
				{
					"internalType": "address",
					"name": "",
					"type": "address"
				}
			],
			"name": "_excludedFromFeesAsReceiver",
			"outputs": [
				{
					"internalType": "bool",
					"name": "",
					"type": "bool"
				}
			],
			"stateMutability": "view",
			"type": "function"
		},
		{
			"inputs": [
				{
					"internalType": "address",
					"name": "",
					"type": "address"
				}
			],
			"name": "_excludedFromFeesAsSender",
			"outputs": [
				{
					"internalType": "bool",
					"name": "",
					"type": "bool"
				}
			],
			"stateMutability": "view",
			"type": "function"
		},
		{
			"inputs": [],
			"name": "_liquidityPair",
			"outputs": [
				{
					"internalType": "address",
					"name": "",
					"type": "address"
				}
			],
			"stateMutability": "view",
			"type": "function"
		},
		{
			"inputs": [],
			"name": "_masterEntertainer",
			"outputs": [
				{
					"internalType": "contract IMasterEntertainer",
					"name": "",
					"type": "address"
				}
			],
			"stateMutability": "view",
			"type": "function"
		},
		{
			"inputs": [],
			"name": "_minAmountToLiquify",
			"outputs": [
				{
					"internalType": "uint256",
					"name": "",
					"type": "uint256"
				}
			],
			"stateMutability": "view",
			"type": "function"
		},
		{
			"inputs": [],
			"name": "_rewardWallet",
			"outputs": [
				{
					"internalType": "address",
					"name": "",
					"type": "address"
				}
			],
			"stateMutability": "view",
			"type": "function"
		},
		{
			"inputs": [],
			"name": "_router",
			"outputs": [
				{
					"internalType": "contract IUniswapV2Router02",
					"name": "",
					"type": "address"
				}
			],
			"stateMutability": "view",
			"type": "function"
		},
		{
			"inputs": [],
			"name": "activateContract",
			"outputs": [],
			"stateMutability": "nonpayable",
			"type": "function"
		},
		{
			"inputs": [],
			"name": "activateHighFee",
			"outputs": [],
			"stateMutability": "nonpayable",
			"type": "function"
		},
		{
			"inputs": [
				{
					"internalType": "address",
					"name": "owner",
					"type": "address"
				},
				{
					"internalType": "address",
					"name": "spender",
					"type": "address"
				}
			],
			"name": "allowance",
			"outputs": [
				{
					"internalType": "uint256",
					"name": "",
					"type": "uint256"
				}
			],
			"stateMutability": "view",
			"type": "function"
		},
		{
			"inputs": [
				{
					"internalType": "address",
					"name": "spender",
					"type": "address"
				},
				{
					"internalType": "uint256",
					"name": "amount",
					"type": "uint256"
				}
			],
			"name": "approve",
			"outputs": [
				{
					"internalType": "bool",
					"name": "",
					"type": "bool"
				}
			],
			"stateMutability": "nonpayable",
			"type": "function"
		},
		{
			"inputs": [
				{
					"internalType": "address",
					"name": "account",
					"type": "address"
				}
			],
			"name": "balanceOf",
			"outputs": [
				{
					"internalType": "uint256",
					"name": "",
					"type": "uint256"
				}
			],
			"stateMutability": "view",
			"type": "function"
		},
		{
			"inputs": [
				{
					"internalType": "address",
					"name": "user",
					"type": "address"
				}
			],
			"name": "blacklist",
			"outputs": [],
			"stateMutability": "nonpayable",
			"type": "function"
		},
		{
			"inputs": [
				{
					"internalType": "uint256",
					"name": "_amount",
					"type": "uint256"
				}
			],
			"name": "canMintNewCoins",
			"outputs": [
				{
					"internalType": "bool",
					"name": "",
					"type": "bool"
				}
			],
			"stateMutability": "view",
			"type": "function"
		},
		{
			"inputs": [],
			"name": "checkPriceUpdate",
			"outputs": [],
			"stateMutability": "nonpayable",
			"type": "function"
		},
		{
			"inputs": [],
			"name": "claimExceedingETH",
			"outputs": [],
			"stateMutability": "nonpayable",
			"type": "function"
		},
		{
			"inputs": [],
			"name": "deactivateHighFee",
			"outputs": [],
			"stateMutability": "nonpayable",
			"type": "function"
		},
		{
			"inputs": [],
			"name": "decimals",
			"outputs": [
				{
					"internalType": "uint8",
					"name": "",
					"type": "uint8"
				}
			],
			"stateMutability": "view",
			"type": "function"
		},
		{
			"inputs": [
				{
					"internalType": "address",
					"name": "spender",
					"type": "address"
				},
				{
					"internalType": "uint256",
					"name": "subtractedValue",
					"type": "uint256"
				}
			],
			"name": "decreaseAllowance",
			"outputs": [
				{
					"internalType": "bool",
					"name": "",
					"type": "bool"
				}
			],
			"stateMutability": "nonpayable",
			"type": "function"
		},
		{
			"inputs": [],
			"name": "devFeesPaid",
			"outputs": [
				{
					"internalType": "uint256",
					"name": "",
					"type": "uint256"
				}
			],
			"stateMutability": "view",
			"type": "function"
		},
		{
			"inputs": [],
			"name": "devRate",
			"outputs": [
				{
					"internalType": "uint16",
					"name": "",
					"type": "uint16"
				}
			],
			"stateMutability": "view",
			"type": "function"
		},
		{
			"inputs": [],
			"name": "donationFeesPaid",
			"outputs": [
				{
					"internalType": "uint256",
					"name": "",
					"type": "uint256"
				}
			],
			"stateMutability": "view",
			"type": "function"
		},
		{
			"inputs": [],
			"name": "donationRate",
			"outputs": [
				{
					"internalType": "uint16",
					"name": "",
					"type": "uint16"
				}
			],
			"stateMutability": "view",
			"type": "function"
		},
		{
			"inputs": [
				{
					"internalType": "address",
					"name": "_excludee",
					"type": "address"
				}
			],
			"name": "excludeFromAll",
			"outputs": [],
			"stateMutability": "nonpayable",
			"type": "function"
		},
		{
			"inputs": [
				{
					"internalType": "address",
					"name": "_excludee",
					"type": "address"
				}
			],
			"name": "excludeFromFeesAsReceiver",
			"outputs": [],
			"stateMutability": "nonpayable",
			"type": "function"
		},
		{
			"inputs": [
				{
					"internalType": "address",
					"name": "_excludee",
					"type": "address"
				}
			],
			"name": "excludeTransferFeeAsSender",
			"outputs": [],
			"stateMutability": "nonpayable",
			"type": "function"
		},
		{
			"inputs": [],
			"name": "gasCost",
			"outputs": [
				{
					"internalType": "uint256",
					"name": "",
					"type": "uint256"
				}
			],
			"stateMutability": "view",
			"type": "function"
		},
		{
			"inputs": [
				{
					"internalType": "address",
					"name": "_user",
					"type": "address"
				}
			],
			"name": "getBalanceOf",
			"outputs": [
				{
					"internalType": "uint256",
					"name": "",
					"type": "uint256"
				}
			],
			"stateMutability": "view",
			"type": "function"
		},
		{
			"inputs": [],
			"name": "getCirculatingSupply",
			"outputs": [
				{
					"internalType": "uint256",
					"name": "",
					"type": "uint256"
				}
			],
			"stateMutability": "view",
			"type": "function"
		},
		{
			"inputs": [],
			"name": "getLiquidityTokenAddress",
			"outputs": [
				{
					"internalType": "address",
					"name": "",
					"type": "address"
				}
			],
			"stateMutability": "view",
			"type": "function"
		},
		{
			"inputs": [
				{
					"internalType": "address",
					"name": "_sender",
					"type": "address"
				}
			],
			"name": "getTaxFee",
			"outputs": [
				{
					"internalType": "uint256",
					"name": "",
					"type": "uint256"
				}
			],
			"stateMutability": "view",
			"type": "function"
		},
		{
			"inputs": [
				{
					"internalType": "address",
					"name": "user",
					"type": "address"
				}
			],
			"name": "hasRequestedWhitelist",
			"outputs": [
				{
					"internalType": "bool",
					"name": "",
					"type": "bool"
				}
			],
			"stateMutability": "view",
			"type": "function"
		},
		{
			"inputs": [
				{
					"internalType": "address",
					"name": "_excludee",
					"type": "address"
				}
			],
			"name": "includeForAll",
			"outputs": [],
			"stateMutability": "nonpayable",
			"type": "function"
		},
		{
			"inputs": [
				{
					"internalType": "address",
					"name": "_excludee",
					"type": "address"
				}
			],
			"name": "includeForFeesAsReciever",
			"outputs": [],
			"stateMutability": "nonpayable",
			"type": "function"
		},
		{
			"inputs": [
				{
					"internalType": "address",
					"name": "_excludee",
					"type": "address"
				}
			],
			"name": "includeTransferFeeAsSender",
			"outputs": [],
			"stateMutability": "nonpayable",
			"type": "function"
		},
		{
			"inputs": [
				{
					"internalType": "address",
					"name": "spender",
					"type": "address"
				},
				{
					"internalType": "uint256",
					"name": "addedValue",
					"type": "uint256"
				}
			],
			"name": "increaseAllowance",
			"outputs": [
				{
					"internalType": "bool",
					"name": "",
					"type": "bool"
				}
			],
			"stateMutability": "nonpayable",
			"type": "function"
		},
		{
			"inputs": [],
			"name": "isContractActive",
			"outputs": [
				{
					"internalType": "bool",
					"name": "",
					"type": "bool"
				}
			],
			"stateMutability": "view",
			"type": "function"
		},
		{
			"inputs": [
				{
					"internalType": "address",
					"name": "_account",
					"type": "address"
				}
			],
			"name": "isExcludedFromReceiverTax",
			"outputs": [
				{
					"internalType": "bool",
					"name": "",
					"type": "bool"
				}
			],
			"stateMutability": "view",
			"type": "function"
		},
		{
			"inputs": [
				{
					"internalType": "address",
					"name": "_account",
					"type": "address"
				}
			],
			"name": "isExcludedFromSenderTax",
			"outputs": [
				{
					"internalType": "bool",
					"name": "",
					"type": "bool"
				}
			],
			"stateMutability": "view",
			"type": "function"
		},
		{
			"inputs": [],
			"name": "isHighFeeActive",
			"outputs": [
				{
					"internalType": "bool",
					"name": "",
					"type": "bool"
				}
			],
			"stateMutability": "view",
			"type": "function"
		},
		{
			"inputs": [],
			"name": "isLiquifyActive",
			"outputs": [
				{
					"internalType": "bool",
					"name": "",
					"type": "bool"
				}
			],
			"stateMutability": "view",
			"type": "function"
		},
		{
			"inputs": [],
			"name": "isLockEnabled",
			"outputs": [
				{
					"internalType": "bool",
					"name": "",
					"type": "bool"
				}
			],
			"stateMutability": "view",
			"type": "function"
		},
		{
			"inputs": [],
			"name": "liquidityFeesPaid",
			"outputs": [
				{
					"internalType": "uint256",
					"name": "",
					"type": "uint256"
				}
			],
			"stateMutability": "view",
			"type": "function"
		},
		{
			"inputs": [],
			"name": "liquidityPair",
			"outputs": [
				{
					"internalType": "address",
					"name": "",
					"type": "address"
				}
			],
			"stateMutability": "view",
			"type": "function"
		},
		{
			"inputs": [],
			"name": "liquidityTokenBalance",
			"outputs": [
				{
					"internalType": "uint256",
					"name": "",
					"type": "uint256"
				}
			],
			"stateMutability": "view",
			"type": "function"
		},
		{
			"inputs": [
				{
					"internalType": "string",
					"name": "_fn",
					"type": "string"
				}
			],
			"name": "lockFunction",
			"outputs": [],
			"stateMutability": "nonpayable",
			"type": "function"
		},
		{
			"inputs": [],
			"name": "maintainer",
			"outputs": [
				{
					"internalType": "address",
					"name": "",
					"type": "address"
				}
			],
			"stateMutability": "view",
			"type": "function"
		},
		{
			"inputs": [],
			"name": "maxAccBalance",
			"outputs": [
				{
					"internalType": "uint16",
					"name": "",
					"type": "uint16"
				}
			],
			"stateMutability": "view",
			"type": "function"
		},
		{
			"inputs": [],
			"name": "maxDistribution",
			"outputs": [
				{
					"internalType": "uint256",
					"name": "",
					"type": "uint256"
				}
			],
			"stateMutability": "view",
			"type": "function"
		},
		{
			"inputs": [],
			"name": "maxTxQuantity",
			"outputs": [
				{
					"internalType": "uint16",
					"name": "",
					"type": "uint16"
				}
			],
			"stateMutability": "view",
			"type": "function"
		},
		{
			"inputs": [],
			"name": "maximumTransferTaxRate",
			"outputs": [
				{
					"internalType": "uint16",
					"name": "",
					"type": "uint16"
				}
			],
			"stateMutability": "view",
			"type": "function"
		},
		{
			"inputs": [],
			"name": "minimumTransferTaxRate",
			"outputs": [
				{
					"internalType": "uint16",
					"name": "",
					"type": "uint16"
				}
			],
			"stateMutability": "view",
			"type": "function"
		},
		{
			"inputs": [
				{
					"internalType": "address",
					"name": "_to",
					"type": "address"
				},
				{
					"internalType": "uint256",
					"name": "_amount",
					"type": "uint256"
				}
			],
			"name": "mint",
			"outputs": [],
			"stateMutability": "nonpayable",
			"type": "function"
		},
		{
			"inputs": [],
			"name": "name",
			"outputs": [
				{
					"internalType": "string",
					"name": "",
					"type": "string"
				}
			],
			"stateMutability": "view",
			"type": "function"
		},
		{
			"inputs": [],
			"name": "owner",
			"outputs": [
				{
					"internalType": "address",
					"name": "",
					"type": "address"
				}
			],
			"stateMutability": "view",
			"type": "function"
		},
		{
			"inputs": [],
			"name": "reDistributionFeesPaid",
			"outputs": [
				{
					"internalType": "uint256",
					"name": "",
					"type": "uint256"
				}
			],
			"stateMutability": "view",
			"type": "function"
		},
		{
			"inputs": [],
			"name": "reDistributionRate",
			"outputs": [
				{
					"internalType": "uint16",
					"name": "",
					"type": "uint16"
				}
			],
			"stateMutability": "view",
			"type": "function"
		},
		{
			"inputs": [],
			"name": "renounceOwnership",
			"outputs": [],
			"stateMutability": "nonpayable",
			"type": "function"
		},
		{
			"inputs": [],
			"name": "requestWhitelist",
			"outputs": [],
			"stateMutability": "payable",
			"type": "function"
		},
		{
			"inputs": [
				{
					"internalType": "address",
					"name": "wallet",
					"type": "address"
				}
			],
			"name": "setDevWallet",
			"outputs": [],
			"stateMutability": "nonpayable",
			"type": "function"
		},
		{
			"inputs": [
				{
					"internalType": "address",
					"name": "wallet",
					"type": "address"
				}
			],
			"name": "setDonationWallet",
			"outputs": [],
			"stateMutability": "nonpayable",
			"type": "function"
		},
		{
			"inputs": [
				{
					"internalType": "uint256",
					"name": "cost",
					"type": "uint256"
				}
			],
			"name": "setGasCost",
			"outputs": [],
			"stateMutability": "nonpayable",
			"type": "function"
		},
		{
			"inputs": [
				{
					"internalType": "address",
					"name": "_tokenB",
					"type": "address"
				}
			],
			"name": "setLiquidityPair",
			"outputs": [],
			"stateMutability": "nonpayable",
			"type": "function"
		},
		{
			"inputs": [
				{
					"internalType": "address",
					"name": "_newMaintainer",
					"type": "address"
				}
			],
			"name": "setMaintainer",
			"outputs": [],
			"stateMutability": "nonpayable",
			"type": "function"
		},
		{
			"inputs": [
				{
					"internalType": "address",
					"name": "_newMasterEntertainer",
					"type": "address"
				}
			],
			"name": "setMasterEntertainer",
			"outputs": [],
			"stateMutability": "nonpayable",
			"type": "function"
		},
		{
			"inputs": [
				{
					"internalType": "uint16",
					"name": "maxBalance",
					"type": "uint16"
				}
			],
			"name": "setMaxAccBalance",
			"outputs": [],
			"stateMutability": "nonpayable",
			"type": "function"
		},
		{
			"inputs": [
				{
					"internalType": "uint256",
					"name": "_newDistribution",
					"type": "uint256"
				}
			],
			"name": "setMaxDistribution",
			"outputs": [],
			"stateMutability": "nonpayable",
			"type": "function"
		},
		{
			"inputs": [
				{
					"internalType": "uint16",
					"name": "quantity",
					"type": "uint16"
				}
			],
			"name": "setMaxTransactionQuantity",
			"outputs": [],
			"stateMutability": "nonpayable",
			"type": "function"
		},
		{
			"inputs": [
				{
					"internalType": "uint256",
					"name": "_amount",
					"type": "uint256"
				}
			],
			"name": "setMinAmountToLiquify",
			"outputs": [],
			"stateMutability": "nonpayable",
			"type": "function"
		},
		{
			"inputs": [
				{
					"internalType": "address",
					"name": "wallet",
					"type": "address"
				}
			],
			"name": "setRewardWallet",
			"outputs": [],
			"stateMutability": "nonpayable",
			"type": "function"
		},
		{
			"inputs": [],
			"name": "setTimelockEnabled",
			"outputs": [],
			"stateMutability": "nonpayable",
			"type": "function"
		},
		{
			"inputs": [],
			"name": "swapAndLiquify",
			"outputs": [],
			"stateMutability": "nonpayable",
			"type": "function"
		},
		{
			"inputs": [],
			"name": "symbol",
			"outputs": [
				{
					"internalType": "string",
					"name": "",
					"type": "string"
				}
			],
			"stateMutability": "view",
			"type": "function"
		},
		{
			"inputs": [
				{
					"internalType": "string",
					"name": "",
					"type": "string"
				}
			],
			"name": "timelock",
			"outputs": [
				{
					"internalType": "uint256",
					"name": "",
					"type": "uint256"
				}
			],
			"stateMutability": "view",
			"type": "function"
		},
		{
			"inputs": [],
			"name": "totalFeesPaid",
			"outputs": [
				{
					"internalType": "uint256",
					"name": "",
					"type": "uint256"
				}
			],
			"stateMutability": "view",
			"type": "function"
		},
		{
			"inputs": [],
			"name": "totalSupply",
			"outputs": [
				{
					"internalType": "uint256",
					"name": "",
					"type": "uint256"
				}
			],
			"stateMutability": "view",
			"type": "function"
		},
		{
			"inputs": [
				{
					"internalType": "address",
					"name": "recipient",
					"type": "address"
				},
				{
					"internalType": "uint256",
					"name": "amount",
					"type": "uint256"
				}
			],
			"name": "transfer",
			"outputs": [
				{
					"internalType": "bool",
					"name": "",
					"type": "bool"
				}
			],
			"stateMutability": "nonpayable",
			"type": "function"
		},
		{
			"inputs": [
				{
					"internalType": "address",
					"name": "sender",
					"type": "address"
				},
				{
					"internalType": "address",
					"name": "recipient",
					"type": "address"
				},
				{
					"internalType": "uint256",
					"name": "amount",
					"type": "uint256"
				}
			],
			"name": "transferFrom",
			"outputs": [
				{
					"internalType": "bool",
					"name": "",
					"type": "bool"
				}
			],
			"stateMutability": "nonpayable",
			"type": "function"
		},
		{
			"inputs": [
				{
					"internalType": "address",
					"name": "newOwner",
					"type": "address"
				}
			],
			"name": "transferOwnership",
			"outputs": [],
			"stateMutability": "nonpayable",
			"type": "function"
		},
		{
			"inputs": [
				{
					"internalType": "string",
					"name": "_fn",
					"type": "string"
				}
			],
			"name": "unlockFunction",
			"outputs": [],
			"stateMutability": "nonpayable",
			"type": "function"
		},
		{
			"inputs": [
				{
					"internalType": "uint16",
					"name": "_transferTaxRate",
					"type": "uint16"
				}
			],
			"name": "updateMaximumTransferTaxRate",
			"outputs": [],
			"stateMutability": "nonpayable",
			"type": "function"
		},
		{
			"inputs": [
				{
					"internalType": "uint16",
					"name": "_transferTaxRate",
					"type": "uint16"
				}
			],
			"name": "updateMinimumTransferTaxRate",
			"outputs": [],
			"stateMutability": "nonpayable",
			"type": "function"
		},
		{
			"inputs": [
				{
					"internalType": "address",
					"name": "router",
					"type": "address"
				}
			],
			"name": "updateRouter",
			"outputs": [],
			"stateMutability": "nonpayable",
			"type": "function"
		},
		{
			"inputs": [
				{
					"internalType": "uint16",
					"name": "_redistribution",
					"type": "uint16"
				},
				{
					"internalType": "uint16",
					"name": "_dev",
					"type": "uint16"
				},
				{
					"internalType": "uint16",
					"name": "_donation",
					"type": "uint16"
				}
			],
			"name": "updateTax",
			"outputs": [],
			"stateMutability": "nonpayable",
			"type": "function"
		},
		{
			"inputs": [
				{
					"internalType": "address",
					"name": "user",
					"type": "address"
				}
			],
			"name": "whitelist",
			"outputs": [],
			"stateMutability": "nonpayable",
			"type": "function"
		},
		{
			"stateMutability": "payable",
			"type": "receive"
		}
	]
}