{
	"data": {
		"bytecode": {
			"linkReferences": {},
			"object": "60806040526000600260006101000a81548160ff02191690831515021790555060006008556000600a556000600b556000601255600060135560006015556161a8601660006101000a81548161ffff021916908361ffff1602179055503480156200006957600080fd5b5060405162008ddb38038062008ddb83398181016040528101906200008f919062001168565b620000af620000a36200057560201b60201c565b6200057d60201b60201c565b6001808190555033600460006101000a81548173ffffffffffffffffffffffffffffffffffffffff021916908373ffffffffffffffffffffffffffffffffffffffff16021790555060005b60188160ff161015620001475760076000908060018154018082558091505060019003906000526020600020016000909190919091505580806200013e9062001664565b915050620000fa565b50600073ffffffffffffffffffffffffffffffffffffffff168473ffffffffffffffffffffffffffffffffffffffff161415620001bb576040517f08c379a0000000000000000000000000000000000000000000000000000000008152600401620001b290620013b6565b60405180910390fd5b600073ffffffffffffffffffffffffffffffffffffffff168373ffffffffffffffffffffffffffffffffffffffff1614156200022e576040517f08c379a00000000000000000000000000000000000000000000000000000000081526004016200022590620013d8565b60405180910390fd5b600073ffffffffffffffffffffffffffffffffffffffff168273ffffffffffffffffffffffffffffffffffffffff161415620002a1576040517f08c379a0000000000000000000000000000000000000000000000000000000008152600401620002989062001394565b60405180910390fd5b83600560006101000a81548173ffffffffffffffffffffffffffffffffffffffff021916908373ffffffffffffffffffffffffffffffffffffffff16021790555082600e60006101000a81548173ffffffffffffffffffffffffffffffffffffffff021916908373ffffffffffffffffffffffffffffffffffffffff16021790555081600f60006101000a81548173ffffffffffffffffffffffffffffffffffffffff021916908373ffffffffffffffffffffffffffffffffffffffff160217905550686c6b935b8bbd400000601081905550806011819055506000600560009054906101000a900473ffffffffffffffffffffffffffffffffffffffff1673ffffffffffffffffffffffffffffffffffffffff1663808a54576040518163ffffffff1660e01b815260040160206040518083038186803b158015620003e657600080fd5b505afa158015620003fb573d6000803e3d6000fd5b505050506040513d601f19601f8201168201806040525081019062000421919062001136565b90506200044360648660006101906000601e600160006200064160201b60201c565b62000463609686600061012c6000605a600160006200064160201b60201c565b6200048260fa86600060c8600060b4600160006200064160201b60201c565b620004a361019086600060646000610168600160006200064160201b60201c565b600073ffffffffffffffffffffffffffffffffffffffff168173ffffffffffffffffffffffffffffffffffffffff16146200055a57620004f860968260006101906000601e600160006200064160201b60201c565b6200051860fa82600061012c6000605a600160006200064160201b60201c565b6200053861019082600060c8600060b4600160006200064160201b60201c565b6200055961025882600060646000610168600160006200064160201b60201c565b5b6200056a6200098760201b60201c565b505050505062001927565b600033905090565b60008060009054906101000a900473ffffffffffffffffffffffffffffffffffffffff169050816000806101000a81548173ffffffffffffffffffffffffffffffffffffffff021916908373ffffffffffffffffffffffffffffffffffffffff1602179055508173ffffffffffffffffffffffffffffffffffffffff168173ffffffffffffffffffffffffffffffffffffffff167f8be0079c531659141344cd1fd0a4f28419497f9722a3daafe3b4186f6b6457e060405160405180910390a35050565b620006516200057560201b60201c565b73ffffffffffffffffffffffffffffffffffffffff166200067762000aa960201b60201c565b73ffffffffffffffffffffffffffffffffffffffff1614620006d0576040517f08c379a0000000000000000000000000000000000000000000000000000000008152600401620006c790620013fa565b60405180910390fd5b6127108561ffff1611156200071c576040517f08c379a000000000000000000000000000000000000000000000000000000000815260040162000713906200143e565b60405180910390fd5b801562000734576200073362000ad260201b60201c565b5b6000601154431162000749576011546200074b565b435b9050620007698960125462000b1160201b62004a601790919060201c565b601281905550600d6040518061014001604052808773ffffffffffffffffffffffffffffffffffffffff1681526020018a73ffffffffffffffffffffffffffffffffffffffff1681526020018b8152602001838152602001600081526020018861ffff1681526020016000815260200189815260200186815260200185151581525090806001815401808255809150506001900390600052602060002090600a020160009091909190915060008201518160000160006101000a81548173ffffffffffffffffffffffffffffffffffffffff021916908373ffffffffffffffffffffffffffffffffffffffff16021790555060208201518160010160006101000a81548173ffffffffffffffffffffffffffffffffffffffff021916908373ffffffffffffffffffffffffffffffffffffffff16021790555060408201518160020155606082015181600301556080820151816004015560a08201518160050160006101000a81548161ffff021916908361ffff16021790555060c0820151816006015560e0820151816007015561010082015181600801556101208201518160090160006101000a81548160ff02191690831515021790555050506001600d8054905062000939919062001584565b8873ffffffffffffffffffffffffffffffffffffffff167fbe4222bc407cb12031595fc55b46531e46308d31e4572c9c4360d8ae790e1a3160405160405180910390a3505050505050505050565b3373ffffffffffffffffffffffffffffffffffffffff16620009ae62000aa960201b60201c565b73ffffffffffffffffffffffffffffffffffffffff16148062000a1e57503373ffffffffffffffffffffffffffffffffffffffff16600460009054906101000a900473ffffffffffffffffffffffffffffffffffffffff1673ffffffffffffffffffffffffffffffffffffffff16145b62000a60576040517f08c379a000000000000000000000000000000000000000000000000000000000815260040162000a57906200141c565b60405180910390fd5b6001600260006101000a81548160ff0219169083151502179055507f2c08b62bfac9a1b19bb1dec9323f1ce01696a77948b256abf3603d30f25a864e60405160405180910390a1565b60008060009054906101000a900473ffffffffffffffffffffffffffffffffffffffff16905090565b6000600d80549050905060005b8181101562000b0d5762000af98162000b2960201b60201c565b8062000b059062001616565b905062000adf565b5050565b6000818362000b2191906200148e565b905092915050565b6000600d828154811062000b425762000b41620016f1565b5b90600052602060002090600a020190508060030154431162000b65575062000e1b565b600062000b788362000e1e60201b60201c565b9050600081141562000b9557438260030181905550505062000e1b565b600062000bb583600301544362000fef60201b62004a761790919060201c565b9050600062000c0d60125462000bf9866002015462000be5601054876200100760201b62004a8c1790919060201c565b6200100760201b62004a8c1790919060201c565b6200101f60201b62004aa21790919060201c565b905062000c4762000c2e600a836200101f60201b62004aa21790919060201c565b8262000c3b91906200148e565b6200103760201b60201c565b1562000db057600560009054906101000a900473ffffffffffffffffffffffffffffffffffffffff1673ffffffffffffffffffffffffffffffffffffffff166340c10f19600e60009054906101000a900473ffffffffffffffffffffffffffffffffffffffff1662000cc9600a856200101f60201b62004aa21790919060201c565b6040518363ffffffff1660e01b815260040162000ce892919062001367565b600060405180830381600087803b15801562000d0357600080fd5b505af115801562000d18573d6000803e3d6000fd5b50505050600560009054906101000a900473ffffffffffffffffffffffffffffffffffffffff1673ffffffffffffffffffffffffffffffffffffffff166340c10f1930836040518363ffffffff1660e01b815260040162000d7b92919062001367565b600060405180830381600087803b15801562000d9657600080fd5b505af115801562000dab573d6000803e3d6000fd5b505050505b62000e0562000dec8462000dd864e8d4a51000856200100760201b62004a8c1790919060201c565b6200101f60201b62004aa21790919060201c565b856004015462000b1160201b62004a601790919060201c565b8460040181905550438460030181905550505050505b50565b600080600d838154811062000e385762000e37620016f1565b5b90600052602060002090600a020190506000600560009054906101000a900473ffffffffffffffffffffffffffffffffffffffff1673ffffffffffffffffffffffffffffffffffffffff168260010160009054906101000a900473ffffffffffffffffffffffffffffffffffffffff1673ffffffffffffffffffffffffffffffffffffffff16148062000f1c5750600073ffffffffffffffffffffffffffffffffffffffff168260000160009054906101000a900473ffffffffffffffffffffffffffffffffffffffff1673ffffffffffffffffffffffffffffffffffffffff1614155b1562000f2f578160060154905062000fe5565b8160010160009054906101000a900473ffffffffffffffffffffffffffffffffffffffff1673ffffffffffffffffffffffffffffffffffffffff166370a08231306040518263ffffffff1660e01b815260040162000f8e91906200134a565b60206040518083038186803b15801562000fa757600080fd5b505afa15801562000fbc573d6000803e3d6000fd5b505050506040513d601f19601f8201168201806040525081019062000fe291906200120c565b90505b8092505050919050565b6000818362000fff919062001584565b905092915050565b6000818362001017919062001523565b905092915050565b600081836200102f9190620014eb565b905092915050565b6000600560009054906101000a900473ffffffffffffffffffffffffffffffffffffffff1673ffffffffffffffffffffffffffffffffffffffff166369372b30836040518263ffffffff1660e01b815260040162001096919062001460565b60206040518083038186803b158015620010af57600080fd5b505afa158015620010c4573d6000803e3d6000fd5b505050506040513d601f19601f82011682018060405250810190620010ea9190620011da565b9050919050565b6000815190506200110281620018d9565b92915050565b6000815190506200111981620018f3565b92915050565b60008151905062001130816200190d565b92915050565b6000602082840312156200114f576200114e62001720565b5b60006200115f84828501620010f1565b91505092915050565b6000806000806080858703121562001185576200118462001720565b5b60006200119587828801620010f1565b9450506020620011a887828801620010f1565b9350506040620011bb87828801620010f1565b9250506060620011ce878288016200111f565b91505092959194509250565b600060208284031215620011f357620011f262001720565b5b6000620012038482850162001108565b91505092915050565b60006020828403121562001225576200122462001720565b5b600062001235848285016200111f565b91505092915050565b6200124981620015bf565b82525050565b60006200125e6026836200147d565b91506200126b8262001725565b604082019050919050565b6000620012856021836200147d565b9150620012928262001774565b604082019050919050565b6000620012ac6026836200147d565b9150620012b982620017c3565b604082019050919050565b6000620012d36020836200147d565b9150620012e08262001812565b602082019050919050565b6000620012fa6035836200147d565b915062001307826200183b565b604082019050919050565b6000620013216022836200147d565b91506200132e826200188a565b604082019050919050565b6200134481620015ff565b82525050565b60006020820190506200136160008301846200123e565b92915050565b60006040820190506200137e60008301856200123e565b6200138d602083018462001339565b9392505050565b60006020820190508181036000830152620013af816200124f565b9050919050565b60006020820190508181036000830152620013d18162001276565b9050919050565b60006020820190508181036000830152620013f3816200129d565b9050919050565b600060208201905081810360008301526200141581620012c4565b9050919050565b600060208201905081810360008301526200143781620012eb565b9050919050565b60006020820190508181036000830152620014598162001312565b9050919050565b600060208201905062001477600083018462001339565b92915050565b600082825260208201905092915050565b60006200149b82620015ff565b9150620014a883620015ff565b9250827fffffffffffffffffffffffffffffffffffffffffffffffffffffffffffffffff03821115620014e057620014df62001693565b5b828201905092915050565b6000620014f882620015ff565b91506200150583620015ff565b925082620015185762001517620016c2565b5b828204905092915050565b60006200153082620015ff565b91506200153d83620015ff565b9250817fffffffffffffffffffffffffffffffffffffffffffffffffffffffffffffffff048311821515161562001579576200157862001693565b5b828202905092915050565b60006200159182620015ff565b91506200159e83620015ff565b925082821015620015b457620015b362001693565b5b828203905092915050565b6000620015cc82620015df565b9050919050565b60008115159050919050565b600073ffffffffffffffffffffffffffffffffffffffff82169050919050565b6000819050919050565b600060ff82169050919050565b60006200162382620015ff565b91507fffffffffffffffffffffffffffffffffffffffffffffffffffffffffffffffff82141562001659576200165862001693565b5b600182019050919050565b6000620016718262001609565b915060ff82141562001688576200168762001693565b5b600182019050919050565b7f4e487b7100000000000000000000000000000000000000000000000000000000600052601160045260246000fd5b7f4e487b7100000000000000000000000000000000000000000000000000000000600052601260045260246000fd5b7f4e487b7100000000000000000000000000000000000000000000000000000000600052603260045260246000fd5b600080fd5b7f46656520616464726573732073686f756c64206e6f74206265207a65726f206160008201527f6464726573730000000000000000000000000000000000000000000000000000602082015250565b7f41626f617420546f6b656e2063616e2774206265207a65726f2061646472657360008201527f7300000000000000000000000000000000000000000000000000000000000000602082015250565b7f44657620616464726573732073686f756c64206e6f74206265207a65726f206160008201527f6464726573730000000000000000000000000000000000000000000000000000602082015250565b7f4f776e61626c653a2063616c6c6572206973206e6f7420746865206f776e6572600082015250565b7f6f70657261746f723a2063616c6c6572206973206e6f7420616c6c6f7765642060008201527f746f2063616c6c20746869732066756e6374696f6e0000000000000000000000602082015250565b7f7365743a206465706f736974206665652063616e27742065786365656420313060008201527f2025000000000000000000000000000000000000000000000000000000000000602082015250565b620018e481620015bf565b8114620018f057600080fd5b50565b620018fe81620015d3565b81146200190a57600080fd5b50565b6200191881620015ff565b81146200192457600080fd5b50565b6174a480620019376000396000f3fe608060405234801561001057600080fd5b50600436106103785760003560e01c806382e46b75116101d3578063a6be46aa11610104578063e6c1e89c116100a2578063f0c445021161007c578063f0c4450214610a0a578063f2fde38b14610a26578063f4762fd614610a42578063f98080c014610a4c57610378565b8063e6c1e89c1461098c578063e9a52b67146109bc578063edc23f96146109ec57610378565b8063d0d41fe1116100de578063d0d41fe114610906578063d936547e14610922578063da20124814610952578063e2bbb1581461097057610378565b8063a6be46aa1461089c578063a8b39eee146108ba578063ca4164f9146108d657610378565b80639b4dc8cc116101715780639fbe42e31161014b5780639fbe42e314610816578063a347511a14610846578063a3f30d2714610864578063a607494a1461088057610378565b80639b4dc8cc146107be5780639eed5b33146107dc5780639f531156146107fa57610378565b80638da5cb5b116101ad5780638da5cb5b1461073657806394d45b591461075457806397e78494146107845780639850d32b146107a057610378565b806382e46b75146106ca57806387370846146106e65780638ca206891461071857610378565b8063441a3e70116102ad578063630b5ba11161024b578063689d84e411610225578063689d84e4146106395780636e0c9f0a14610672578063715018a6146106a25780637ba71c55146106ac57610378565b8063630b5ba11461060757806365a2d70114610611578063673a7e281461062f57610378565b806351eb05a61161028757806351eb05a61461056d5780635732025114610589578063575b789c146105a75780635ecbbf98146105d757610378565b8063441a3e701461051557806348cd4cb1146105315780634b94f50e1461054f57610378565b806329465d421161031a5780633ad10ef6116102f45780633ad10ef6146104b15780633e82211c146104cf57806341275358146104ed578063437f660e1461050b57610378565b806329465d421461044957806334c434e414610479578063379607f51461049557610378565b806313ea5d291161035657806313ea5d29146103d557806317caf6f1146103f1578063262917d91461040f57806327de19471461042b57610378565b8063081e3eda1461037d5780630ba84cd21461039b57806311df9995146103b7575b600080fd5b610385610a7c565b604051610392919061655e565b60405180910390f35b6103b560048036038101906103b09190615b43565b610a89565b005b6103bf610c81565b6040516103cc919061624a565b60405180910390f35b6103ef60048036038101906103ea91906158b3565b610ca7565b005b6103f9611042565b604051610406919061655e565b60405180910390f35b61042960048036038101906104249190615d66565b611048565b005b610433611390565b604051610440919061655e565b60405180910390f35b610463600480360381019061045e9190615b43565b611396565b604051610470919061622f565b60405180910390f35b610493600480360381019061048e91906159cd565b61144a565b005b6104af60048036038101906104aa9190615b43565b611521565b005b6104b96117e1565b6040516104c691906161b4565b60405180910390f35b6104d7611807565b6040516104e4919061655e565b60405180910390f35b6104f561180d565b60405161050291906161b4565b60405180910390f35b610513611833565b005b61052f600480360381019061052a9190615cd3565b611a33565b005b610539611ed7565b604051610546919061655e565b60405180910390f35b610557611edd565b604051610564919061655e565b60405180910390f35b61058760048036038101906105829190615b43565b612496565b005b61059161272a565b60405161059e9190616543565b60405180910390f35b6105c160048036038101906105bc919061590d565b61273e565b6040516105ce919061655e565b60405180910390f35b6105f160048036038101906105ec9190615b43565b612a82565b6040516105fe919061655e565b60405180910390f35b61060f612c47565b005b610619612c7a565b604051610626919061655e565b60405180910390f35b610637612c80565b005b610653600480360381019061064e9190615b43565b612c8a565b6040516106699a99989796959493929190616265565b60405180910390f35b61068c60048036038101906106879190615b43565b612d49565b604051610699919061655e565b60405180910390f35b6106aa612d6d565b005b6106b4612df5565b6040516106c1919061655e565b60405180910390f35b6106e460048036038101906106df9190615a0d565b612dfb565b005b61070060048036038101906106fb9190615b9d565b613274565b60405161070f93929190616610565b60405180910390f35b6107206132ab565b60405161072d919061655e565b60405180910390f35b61073e6132b1565b60405161074b91906161b4565b60405180910390f35b61076e60048036038101906107699190615960565b6132da565b60405161077b919061655e565b60405180910390f35b61079e60048036038101906107999190615c1d565b6134b9565b005b6107a86137d5565b6040516107b591906161b4565b60405180910390f35b6107c66137ff565b6040516107d391906161b4565b60405180910390f35b6107e4613825565b6040516107f1919061655e565b60405180910390f35b610814600480360381019061080f9190615a7a565b61382b565b005b610830600480360381019061082b9190615b43565b61391f565b60405161083d919061655e565b60405180910390f35b61084e613a89565b60405161085b919061622f565b60405180910390f35b61087e60048036038101906108799190615d13565b613a9c565b005b61089a60048036038101906108959190615a7a565b613b8d565b005b6108a4613cef565b6040516108b1919061655e565b60405180910390f35b6108d460048036038101906108cf9190615b43565b613db3565b005b6108f060048036038101906108eb9190615bdd565b614158565b6040516108fd919061655e565b60405180910390f35b610920600480360381019061091b91906158b3565b6141ee565b005b61093c600480360381019061093791906158b3565b614494565b604051610949919061622f565b60405180910390f35b61095a6144b4565b604051610967919061655e565b60405180910390f35b61098a60048036038101906109859190615cd3565b6144ba565b005b6109a660048036038101906109a19190615a3a565b61451e565b6040516109b3919061655e565b60405180910390f35b6109d660048036038101906109d19190615b9d565b61459b565b6040516109e3919061655e565b60405180910390f35b6109f4614734565b604051610a01919061655e565b60405180910390f35b610a246004803603810190610a1f9190615b16565b61473a565b005b610a406004803603810190610a3b91906158b3565b614824565b005b610a4a61491c565b005b610a666004803603810190610a619190615a7a565b614a32565b604051610a73919061655e565b60405180910390f35b6000600d80549050905090565b610a91614ab8565b73ffffffffffffffffffffffffffffffffffffffff16610aaf6132b1565b73ffffffffffffffffffffffffffffffffffffffff1614610b05576040517f08c379a0000000000000000000000000000000000000000000000000000000008152600401610afc90616443565b60405180910390fd5b6040518060400160405280601281526020017f757064617465456d697373696f6e526174650000000000000000000000000000815250600260009054906101000a900460ff161580610bd857506000600382604051610b64919061619d565b90815260200160405180910390205414158015610b9f575042600382604051610b8d919061619d565b90815260200160405180910390205411155b8015610bd757504262015180600383604051610bbb919061619d565b908152602001604051809103902054610bd491906166da565b10155b5b610c17576040517f08c379a0000000000000000000000000000000000000000000000000000000008152600401610c0e90616483565b60405180910390fd5b610c1f612c47565b816010819055503373ffffffffffffffffffffffffffffffffffffffff167fe2492e003bbe8afa53088b406f0c1cb5d9e280370fc72a74cf116ffd343c405383604051610c6c919061655e565b60405180910390a2610c7d8161382b565b5050565b600560009054906101000a900473ffffffffffffffffffffffffffffffffffffffff1681565b3373ffffffffffffffffffffffffffffffffffffffff16610cc66132b1565b73ffffffffffffffffffffffffffffffffffffffff161480610d3557503373ffffffffffffffffffffffffffffffffffffffff16600460009054906101000a900473ffffffffffffffffffffffffffffffffffffffff1673ffffffffffffffffffffffffffffffffffffffff16145b610d74576040517f08c379a0000000000000000000000000000000000000000000000000000000008152600401610d6b906164a3565b60405180910390fd5b6040518060400160405280600a81526020017f6d61696e7461696e657200000000000000000000000000000000000000000000815250600260009054906101000a900460ff161580610e4757506000600382604051610dd3919061619d565b90815260200160405180910390205414158015610e0e575042600382604051610dfc919061619d565b90815260200160405180910390205411155b8015610e4657504262015180600383604051610e2a919061619d565b908152602001604051809103902054610e4391906166da565b10155b5b610e86576040517f08c379a0000000000000000000000000000000000000000000000000000000008152600401610e7d90616483565b60405180910390fd5b600460009054906101000a900473ffffffffffffffffffffffffffffffffffffffff1673ffffffffffffffffffffffffffffffffffffffff168273ffffffffffffffffffffffffffffffffffffffff1614158015610f115750600073ffffffffffffffffffffffffffffffffffffffff168273ffffffffffffffffffffffffffffffffffffffff1614155b610f50576040517f08c379a0000000000000000000000000000000000000000000000000000000008152600401610f4790616403565b60405180910390fd5b6000600460009054906101000a900473ffffffffffffffffffffffffffffffffffffffff16905082600460006101000a81548173ffffffffffffffffffffffffffffffffffffffff021916908373ffffffffffffffffffffffffffffffffffffffff160217905550600460009054906101000a900473ffffffffffffffffffffffffffffffffffffffff1673ffffffffffffffffffffffffffffffffffffffff168173ffffffffffffffffffffffffffffffffffffffff167f2f3ffaaaad93928855c8700645d1a3643e6ccfdd500efa9fda048a88f557cf0160405160405180910390a35061103e8161382b565b5050565b60125481565b611050614ab8565b73ffffffffffffffffffffffffffffffffffffffff1661106e6132b1565b73ffffffffffffffffffffffffffffffffffffffff16146110c4576040517f08c379a00000000000000000000000000000000000000000000000000000000081526004016110bb90616443565b60405180910390fd5b6040518060400160405280601081526020017f736574506f6f6c5661726961626c657300000000000000000000000000000000815250600260009054906101000a900460ff16158061119757506000600382604051611123919061619d565b9081526020016040518091039020541415801561115e57504260038260405161114c919061619d565b90815260200160405180910390205411155b80156111965750426201518060038360405161117a919061619d565b90815260200160405180910390205461119391906166da565b10155b5b6111d6576040517f08c379a00000000000000000000000000000000000000000000000000000000081526004016111cd90616483565b60405180910390fd5b6103e88561ffff16111561121f576040517f08c379a000000000000000000000000000000000000000000000000000000000815260040161121690616523565b60405180910390fd5b811561122e5761122d612c47565b5b61127a8661126c600d8a8154811061124957611248616dc8565b5b90600052602060002090600a020160020154601254614a7690919063ffffffff16565b614a6090919063ffffffff16565b60128190555085600d888154811061129557611294616dc8565b5b90600052602060002090600a02016002018190555084600d88815481106112bf576112be616dc8565b5b90600052602060002090600a020160050160006101000a81548161ffff021916908361ffff16021790555083600d88815481106112ff576112fe616dc8565b5b90600052602060002090600a02016008018190555082600d888154811061132957611328616dc8565b5b90600052602060002090600a020160090160006101000a81548160ff021916908315150217905550867fa844e7199a9e0826e5c245adcd2d35f2f100069597a3e7512afe58f772c4eca960405160405180910390a26113878161382b565b50505050505050565b60085481565b6000600560009054906101000a900473ffffffffffffffffffffffffffffffffffffffff1673ffffffffffffffffffffffffffffffffffffffff166369372b30836040518263ffffffff1660e01b81526004016113f3919061655e565b60206040518083038186803b15801561140b57600080fd5b505afa15801561141f573d6000803e3d6000fd5b505050506040513d601f19601f8201168201806040525081019061144391906159a0565b9050919050565b611452614ab8565b73ffffffffffffffffffffffffffffffffffffffff166114706132b1565b73ffffffffffffffffffffffffffffffffffffffff16146114c6576040517f08c379a00000000000000000000000000000000000000000000000000000000081526004016114bd90616443565b60405180910390fd5b81601760008373ffffffffffffffffffffffffffffffffffffffff1673ffffffffffffffffffffffffffffffffffffffff16815260200190815260200160002060006101000a81548160ff0219169083151502179055505050565b60026001541415611567576040517f08c379a000000000000000000000000000000000000000000000000000000000815260040161155e90616503565b60405180910390fd5b60026001819055506000600d828154811061158557611584616dc8565b5b90600052602060002090600a020190506000600c600084815260200190815260200160002060003373ffffffffffffffffffffffffffffffffffffffff1673ffffffffffffffffffffffffffffffffffffffff16815260200190815260200160002090506115f283612496565b600061163c826001015461162e64e8d4a5100061162087600401548760000154614a8c90919063ffffffff16565b614aa290919063ffffffff16565b614a7690919063ffffffff16565b905060008111156116a1576116513382614ac0565b833373ffffffffffffffffffffffffffffffffffffffff167f34fcbac0073d7c3d388e51312faf357774904998eeb8fca628b9e6f65ee1cbf783604051611698919061655e565b60405180910390a35b600073ffffffffffffffffffffffffffffffffffffffff168360000160009054906101000a900473ffffffffffffffffffffffffffffffffffffffff1673ffffffffffffffffffffffffffffffffffffffff1614611792578260000160009054906101000a900473ffffffffffffffffffffffffffffffffffffffff1673ffffffffffffffffffffffffffffffffffffffff16630ad58d2f84600701546000336040518463ffffffff1660e01b815260040161175f93929190616579565b600060405180830381600087803b15801561177957600080fd5b505af115801561178d573d6000803e3d6000fd5b505050505b6117c464e8d4a510006117b685600401548560000154614a8c90919063ffffffff16565b614aa290919063ffffffff16565b82600101819055506117d4611833565b5050506001808190555050565b600e60009054906101000a900473ffffffffffffffffffffffffffffffffffffffff1681565b60155481565b600f60009054906101000a900473ffffffffffffffffffffffffffffffffffffffff1681565b600073ffffffffffffffffffffffffffffffffffffffff16600560009054906101000a900473ffffffffffffffffffffffffffffffffffffffff1673ffffffffffffffffffffffffffffffffffffffff16148061195b5750600073ffffffffffffffffffffffffffffffffffffffff16600560009054906101000a900473ffffffffffffffffffffffffffffffffffffffff1673ffffffffffffffffffffffffffffffffffffffff1663808a54576040518163ffffffff1660e01b815260040160206040518083038186803b15801561190b57600080fd5b505afa15801561191f573d6000803e3d6000fd5b505050506040513d601f19601f8201168201806040525081019061194391906158e0565b73ffffffffffffffffffffffffffffffffffffffff16145b1561196557611a31565b610e10426119739190616b41565b60095410156119ca576000611986611edd565b90508060076008600081548092919061199e90616d21565b91905055815481106119b3576119b2616dc8565b5b906000526020600020018190555042600981905550505b62015180426119d99190616b41565b6014541080156119eb57506002600854115b15611a305760006119fa613cef565b9050426014819055506000600881905550600080600a5414159050611a1e82614bf2565b8015611a2d57611a2c614c37565b5b50505b5b565b60026001541415611a79576040517f08c379a0000000000000000000000000000000000000000000000000000000008152600401611a7090616503565b60405180910390fd5b60026001819055506000600d8381548110611a9757611a96616dc8565b5b90600052602060002090600a020190506000600c600085815260200190815260200160002060003373ffffffffffffffffffffffffffffffffffffffff1673ffffffffffffffffffffffffffffffffffffffff16815260200190815260200160002090508281600001541015611b42576040517f08c379a0000000000000000000000000000000000000000000000000000000008152600401611b3990616323565b60405180910390fd5b611b4b84612496565b6000611b958260010154611b8764e8d4a51000611b7987600401548760000154614a8c90919063ffffffff16565b614aa290919063ffffffff16565b614a7690919063ffffffff16565b90506000811115611bab57611baa3382614ac0565b5b6000841115611da25742611bde620151808560080154611bcb9190616a53565b8460020154614a6090919063ffffffff16565b1115611c1f576040517f08c379a0000000000000000000000000000000000000000000000000000000008152600401611c16906163a3565b60405180910390fd5b611c36848360000154614a7690919063ffffffff16565b8260000181905550600073ffffffffffffffffffffffffffffffffffffffff168360000160009054906101000a900473ffffffffffffffffffffffffffffffffffffffff1673ffffffffffffffffffffffffffffffffffffffff1614611d32578260000160009054906101000a900473ffffffffffffffffffffffffffffffffffffffff1673ffffffffffffffffffffffffffffffffffffffff16630ad58d2f846007015486336040518463ffffffff1660e01b8152600401611cfb939291906165d9565b600060405180830381600087803b158015611d1557600080fd5b505af1158015611d29573d6000803e3d6000fd5b50505050611d82565b611d8133858560010160009054906101000a900473ffffffffffffffffffffffffffffffffffffffff1673ffffffffffffffffffffffffffffffffffffffff16614cae9092919063ffffffff16565b5b611d99848460060154614a7690919063ffffffff16565b83600601819055505b611dd464e8d4a51000611dc685600401548560000154614a8c90919063ffffffff16565b614aa290919063ffffffff16565b8260010181905550600560009054906101000a900473ffffffffffffffffffffffffffffffffffffffff1673ffffffffffffffffffffffffffffffffffffffff168360010160009054906101000a900473ffffffffffffffffffffffffffffffffffffffff1673ffffffffffffffffffffffffffffffffffffffff161415611e7257611e6b84601354614a7690919063ffffffff16565b6013819055505b843373ffffffffffffffffffffffffffffffffffffffff167ff279e6a1f5e320cca91135676d9cb6e44ca8a08c0b88342bcdb1144f6511b56886604051611eb9919061655e565b60405180910390a3611ec9611833565b505050600180819055505050565b60115481565b600080600560009054906101000a900473ffffffffffffffffffffffffffffffffffffffff1673ffffffffffffffffffffffffffffffffffffffff1663808a54576040518163ffffffff1660e01b815260040160206040518083038186803b158015611f4857600080fd5b505afa158015611f5c573d6000803e3d6000fd5b505050506040513d601f19601f82011682018060405250810190611f8091906158e0565b9050600660009054906101000a900473ffffffffffffffffffffffffffffffffffffffff1673ffffffffffffffffffffffffffffffffffffffff168173ffffffffffffffffffffffffffffffffffffffff16146120315780600660006101000a81548173ffffffffffffffffffffffffffffffffffffffff021916908373ffffffffffffffffffffffffffffffffffffffff16021790555060006008819055506000600a819055506000600b819055505b6000600660009054906101000a900473ffffffffffffffffffffffffffffffffffffffff1690506000808273ffffffffffffffffffffffffffffffffffffffff16630902f1ac6040518163ffffffff1660e01b815260040160606040518083038186803b1580156120a157600080fd5b505afa1580156120b5573d6000803e3d6000fd5b505050506040513d601f19601f820116820180604052508101906120d99190615ac3565b506dffffffffffffffffffffffffffff1691506dffffffffffffffffffffffffffff16915060008214801561210e5750600081145b15612120576000945050505050612493565b6000600560009054906101000a900473ffffffffffffffffffffffffffffffffffffffff1673ffffffffffffffffffffffffffffffffffffffff168473ffffffffffffffffffffffffffffffffffffffff16630dfe16816040518163ffffffff1660e01b815260040160206040518083038186803b1580156121a157600080fd5b505afa1580156121b5573d6000803e3d6000fd5b505050506040513d601f19601f820116820180604052508101906121d991906158e0565b73ffffffffffffffffffffffffffffffffffffffff1614612277578373ffffffffffffffffffffffffffffffffffffffff1663d21220a76040518163ffffffff1660e01b815260040160206040518083038186803b15801561223a57600080fd5b505afa15801561224e573d6000803e3d6000fd5b505050506040513d601f19601f8201168201806040525081019061227291906158e0565b6122f6565b8373ffffffffffffffffffffffffffffffffffffffff1663d21220a76040518163ffffffff1660e01b815260040160206040518083038186803b1580156122bd57600080fd5b505afa1580156122d1573d6000803e3d6000fd5b505050506040513d601f19601f820116820180604052508101906122f591906158e0565b5b90506000600560009054906101000a900473ffffffffffffffffffffffffffffffffffffffff1673ffffffffffffffffffffffffffffffffffffffff168573ffffffffffffffffffffffffffffffffffffffff16630dfe16816040518163ffffffff1660e01b815260040160206040518083038186803b15801561237957600080fd5b505afa15801561238d573d6000803e3d6000fd5b505050506040513d601f19601f820116820180604052508101906123b191906158e0565b73ffffffffffffffffffffffffffffffffffffffff16146123d257836123d4565b825b905060008482146123e557846123e7565b835b9050808373ffffffffffffffffffffffffffffffffffffffff1663313ce5676040518163ffffffff1660e01b815260040160206040518083038186803b15801561243057600080fd5b505afa158015612444573d6000803e3d6000fd5b505050506040513d601f19601f820116820180604052508101906124689190615df3565b600a612474919061681e565b8361247f9190616a53565b612489919061679a565b9750505050505050505b90565b6000600d82815481106124ac576124ab616dc8565b5b90600052602060002090600a02019050806003015443116124cd5750612727565b60006124d883612a82565b905060008114156124f3574382600301819055505050612727565b600061250c836003015443614a7690919063ffffffff16565b9050600061254f601254612541866002015461253360105487614a8c90919063ffffffff16565b614a8c90919063ffffffff16565b614aa290919063ffffffff16565b9050612578612568600a83614aa290919063ffffffff16565b8261257391906166da565b611396565b156126d157600560009054906101000a900473ffffffffffffffffffffffffffffffffffffffff1673ffffffffffffffffffffffffffffffffffffffff166340c10f19600e60009054906101000a900473ffffffffffffffffffffffffffffffffffffffff166125f2600a85614aa290919063ffffffff16565b6040518363ffffffff1660e01b815260040161260f929190616206565b600060405180830381600087803b15801561262957600080fd5b505af115801561263d573d6000803e3d6000fd5b50505050600560009054906101000a900473ffffffffffffffffffffffffffffffffffffffff1673ffffffffffffffffffffffffffffffffffffffff166340c10f1930836040518363ffffffff1660e01b815260040161269e929190616206565b600060405180830381600087803b1580156126b857600080fd5b505af11580156126cc573d6000803e3d6000fd5b505050505b6127116126fe846126f064e8d4a5100085614a8c90919063ffffffff16565b614aa290919063ffffffff16565b8560040154614a6090919063ffffffff16565b8460040181905550438460030181905550505050505b50565b601660009054906101000a900461ffff1681565b600080849050600073ffffffffffffffffffffffffffffffffffffffff168173ffffffffffffffffffffffffffffffffffffffff161415612783576000915050612a7b565b60008473ffffffffffffffffffffffffffffffffffffffff168273ffffffffffffffffffffffffffffffffffffffff16630dfe16816040518163ffffffff1660e01b815260040160206040518083038186803b1580156127e257600080fd5b505afa1580156127f6573d6000803e3d6000fd5b505050506040513d601f19601f8201168201806040525081019061281a91906158e0565b73ffffffffffffffffffffffffffffffffffffffff1614905060008573ffffffffffffffffffffffffffffffffffffffff168373ffffffffffffffffffffffffffffffffffffffff1663d21220a76040518163ffffffff1660e01b815260040160206040518083038186803b15801561289257600080fd5b505afa1580156128a6573d6000803e3d6000fd5b505050506040513d601f19601f820116820180604052508101906128ca91906158e0565b73ffffffffffffffffffffffffffffffffffffffff161490506000808473ffffffffffffffffffffffffffffffffffffffff16630902f1ac6040518163ffffffff1660e01b815260040160606040518083038186803b15801561292c57600080fd5b505afa158015612940573d6000803e3d6000fd5b505050506040513d601f19601f820116820180604052508101906129649190615ac3565b506dffffffffffffffffffffffffffff1691506dffffffffffffffffffffffffffff1691506000821480156129995750600081145b806129ac5750831580156129ab575082155b5b156129bf57600095505050505050612a7b565b60008573ffffffffffffffffffffffffffffffffffffffff166318160ddd6040518163ffffffff1660e01b815260040160206040518083038186803b158015612a0757600080fd5b505afa158015612a1b573d6000803e3d6000fd5b505050506040513d601f19601f82011682018060405250810190612a3f9190615b70565b9050612a7281612a6487612a535784612a55565b855b8b614a8c90919063ffffffff16565b614aa290919063ffffffff16565b96505050505050505b9392505050565b600080600d8381548110612a9957612a98616dc8565b5b90600052602060002090600a020190506000600560009054906101000a900473ffffffffffffffffffffffffffffffffffffffff1673ffffffffffffffffffffffffffffffffffffffff168260010160009054906101000a900473ffffffffffffffffffffffffffffffffffffffff1673ffffffffffffffffffffffffffffffffffffffff161480612b7c5750600073ffffffffffffffffffffffffffffffffffffffff168260000160009054906101000a900473ffffffffffffffffffffffffffffffffffffffff1673ffffffffffffffffffffffffffffffffffffffff1614155b15612b8d5781600601549050612c3d565b8160010160009054906101000a900473ffffffffffffffffffffffffffffffffffffffff1673ffffffffffffffffffffffffffffffffffffffff166370a08231306040518263ffffffff1660e01b8152600401612bea91906161b4565b60206040518083038186803b158015612c0257600080fd5b505afa158015612c16573d6000803e3d6000fd5b505050506040513d601f19601f82011682018060405250810190612c3a9190615b70565b90505b8092505050919050565b6000600d80549050905060005b81811015612c7657612c6581612496565b80612c6f90616d21565b9050612c54565b5050565b60095481565b612c88611833565b565b600d8181548110612c9a57600080fd5b90600052602060002090600a02016000915090508060000160009054906101000a900473ffffffffffffffffffffffffffffffffffffffff16908060010160009054906101000a900473ffffffffffffffffffffffffffffffffffffffff16908060020154908060030154908060040154908060050160009054906101000a900461ffff16908060060154908060070154908060080154908060090160009054906101000a900460ff1690508a565b60078181548110612d5957600080fd5b906000526020600020016000915090505481565b612d75614ab8565b73ffffffffffffffffffffffffffffffffffffffff16612d936132b1565b73ffffffffffffffffffffffffffffffffffffffff1614612de9576040517f08c379a0000000000000000000000000000000000000000000000000000000008152600401612de090616443565b60405180910390fd5b612df36000614d34565b565b60135481565b612e03614ab8565b73ffffffffffffffffffffffffffffffffffffffff16612e216132b1565b73ffffffffffffffffffffffffffffffffffffffff1614612e77576040517f08c379a0000000000000000000000000000000000000000000000000000000008152600401612e6e90616443565b60405180910390fd5b6040518060400160405280600781526020017f736574436f696e00000000000000000000000000000000000000000000000000815250600260009054906101000a900460ff161580612f4a57506000600382604051612ed6919061619d565b90815260200160405180910390205414158015612f11575042600382604051612eff919061619d565b90815260200160405180910390205411155b8015612f4957504262015180600383604051612f2d919061619d565b908152602001604051809103902054612f4691906166da565b10155b5b612f89576040517f08c379a0000000000000000000000000000000000000000000000000000000008152600401612f8090616483565b60405180910390fd5b8173ffffffffffffffffffffffffffffffffffffffff16600560009054906101000a900473ffffffffffffffffffffffffffffffffffffffff1673ffffffffffffffffffffffffffffffffffffffff16141561301a576040517f08c379a000000000000000000000000000000000000000000000000000000000815260040161301190616463565b60405180910390fd5b600073ffffffffffffffffffffffffffffffffffffffff168273ffffffffffffffffffffffffffffffffffffffff16141561308a576040517f08c379a000000000000000000000000000000000000000000000000000000000815260040161308190616423565b60405180910390fd5b6000600560009054906101000a900473ffffffffffffffffffffffffffffffffffffffff16905082600560006101000a81548173ffffffffffffffffffffffffffffffffffffffff021916908373ffffffffffffffffffffffffffffffffffffffff160217905550600560009054906101000a900473ffffffffffffffffffffffffffffffffffffffff1673ffffffffffffffffffffffffffffffffffffffff1663808a54576040518163ffffffff1660e01b815260040160206040518083038186803b15801561315a57600080fd5b505afa15801561316e573d6000803e3d6000fd5b505050506040513d601f19601f8201168201806040525081019061319291906158e0565b600660006101000a81548173ffffffffffffffffffffffffffffffffffffffff021916908373ffffffffffffffffffffffffffffffffffffffff16021790555060006008819055506000600a819055506000600b81905550600560009054906101000a900473ffffffffffffffffffffffffffffffffffffffff1673ffffffffffffffffffffffffffffffffffffffff168173ffffffffffffffffffffffffffffffffffffffff167f2dba03f722a3e07e4f2d2132f8161a513ee0b79eac0d928b67f5dffb49316c1b60405160405180910390a3506132708161382b565b5050565b600c602052816000526040600020602052806000526040600020600091509150508060000154908060010154908060020154905083565b600b5481565b60008060009054906101000a900473ffffffffffffffffffffffffffffffffffffffff16905090565b600080600d8054905090506000805b828110156134ad576000600d828154811061330757613306616dc8565b5b90600052602060002090600a02019050600086148061332a575080600801548611155b1561349b5760008160010160009054906101000a900473ffffffffffffffffffffffffffffffffffffffff1690506000600560009054906101000a900473ffffffffffffffffffffffffffffffffffffffff1690508073ffffffffffffffffffffffffffffffffffffffff168273ffffffffffffffffffffffffffffffffffffffff1614806133c757508260090160009054906101000a900460ff165b15613498576000600c600086815260200190815260200160002060008b73ffffffffffffffffffffffffffffffffffffffff1673ffffffffffffffffffffffffffffffffffffffff16815260200190815260200160002090508173ffffffffffffffffffffffffffffffffffffffff168373ffffffffffffffffffffffffffffffffffffffff1614156134725761346b816000015487614a6090919063ffffffff16565b9550613496565b6134936134848484846000015461273e565b87614a6090919063ffffffff16565b95505b505b50505b50806134a690616d21565b90506132e9565b50809250505092915050565b6134c1614ab8565b73ffffffffffffffffffffffffffffffffffffffff166134df6132b1565b73ffffffffffffffffffffffffffffffffffffffff1614613535576040517f08c379a000000000000000000000000000000000000000000000000000000000815260040161352c90616443565b60405180910390fd5b6127108561ffff16111561357e576040517f08c379a000000000000000000000000000000000000000000000000000000000815260040161357590616523565b60405180910390fd5b801561358d5761358c612c47565b5b600060115443116135a0576011546135a2565b435b90506135b989601254614a6090919063ffffffff16565b601281905550600d6040518061014001604052808773ffffffffffffffffffffffffffffffffffffffff1681526020018a73ffffffffffffffffffffffffffffffffffffffff1681526020018b8152602001838152602001600081526020018861ffff1681526020016000815260200189815260200186815260200185151581525090806001815401808255809150506001900390600052602060002090600a020160009091909190915060008201518160000160006101000a81548173ffffffffffffffffffffffffffffffffffffffff021916908373ffffffffffffffffffffffffffffffffffffffff16021790555060208201518160010160006101000a81548173ffffffffffffffffffffffffffffffffffffffff021916908373ffffffffffffffffffffffffffffffffffffffff16021790555060408201518160020155606082015181600301556080820151816004015560a08201518160050160006101000a81548161ffff021916908361ffff16021790555060c0820151816006015560e0820151816007015561010082015181600801556101208201518160090160006101000a81548160ff02191690831515021790555050506001600d805490506137879190616b41565b8873ffffffffffffffffffffffffffffffffffffffff167fbe4222bc407cb12031595fc55b46531e46308d31e4572c9c4360d8ae790e1a3160405160405180910390a3505050505050505050565b6000600460009054906101000a900473ffffffffffffffffffffffffffffffffffffffff16905090565b600660009054906101000a900473ffffffffffffffffffffffffffffffffffffffff1681565b60105481565b3373ffffffffffffffffffffffffffffffffffffffff1661384a6132b1565b73ffffffffffffffffffffffffffffffffffffffff1614806138b957503373ffffffffffffffffffffffffffffffffffffffff16600460009054906101000a900473ffffffffffffffffffffffffffffffffffffffff1673ffffffffffffffffffffffffffffffffffffffff16145b6138f8576040517f08c379a00000000000000000000000000000000000000000000000000000000081526004016138ef906164a3565b60405180910390fd5b600060038260405161390a919061619d565b90815260200160405180910390208190555050565b600080600d838154811061393657613935616dc8565b5b90600052602060002090600a0201905060008160050160009054906101000a900461ffff1661ffff169050600073ffffffffffffffffffffffffffffffffffffffff168260000160009054906101000a900473ffffffffffffffffffffffffffffffffffffffff1673ffffffffffffffffffffffffffffffffffffffff1614613a7f57613a7c8260000160009054906101000a900473ffffffffffffffffffffffffffffffffffffffff1673ffffffffffffffffffffffffffffffffffffffff16639fbe42e384600701546040518263ffffffff1660e01b8152600401613a1d919061655e565b60206040518083038186803b158015613a3557600080fd5b505afa158015613a49573d6000803e3d6000fd5b505050506040513d601f19601f82011682018060405250810190613a6d9190615b70565b82614a6090919063ffffffff16565b90505b8092505050919050565b600260009054906101000a900460ff1681565b60026001541415613ae2576040517f08c379a0000000000000000000000000000000000000000000000000000000008152600401613ad990616503565b60405180910390fd5b6002600181905550601760003373ffffffffffffffffffffffffffffffffffffffff1673ffffffffffffffffffffffffffffffffffffffff16815260200190815260200160002060009054906101000a900460ff16613b76576040517f08c379a0000000000000000000000000000000000000000000000000000000008152600401613b6d90616363565b60405180910390fd5b613b81838383614df8565b60018081905550505050565b3373ffffffffffffffffffffffffffffffffffffffff16613bac6132b1565b73ffffffffffffffffffffffffffffffffffffffff161480613c1b57503373ffffffffffffffffffffffffffffffffffffffff16600460009054906101000a900473ffffffffffffffffffffffffffffffffffffffff1673ffffffffffffffffffffffffffffffffffffffff16145b613c5a576040517f08c379a0000000000000000000000000000000000000000000000000000000008152600401613c51906164a3565b60405180910390fd5b6201518042613c6991906166da565b600382604051613c79919061619d565b908152602001604051809103902081905550600381604051613c9b919061619d565b90815260200160405180910390205481604051613cb8919061619d565b60405180910390207ff77f9a799fe8b0be1463abd7459a18fc55dfd8a6a24ddd29b54fd098088089c860405160405180910390a350565b600080600090506000805b6008548111613d7857600060078281548110613d1957613d18616dc8565b5b90600052602060002001541115613d655760078181548110613d3e57613d3d616dc8565b5b906000526020600020015483613d5491906166da565b92508180613d6190616d21565b9250505b8080613d7090616d21565b915050613cfa565b50600082118015613d895750600081115b15613daa57613da18183614aa290919063ffffffff16565b92505050613db0565b81925050505b90565b60026001541415613df9576040517f08c379a0000000000000000000000000000000000000000000000000000000008152600401613df090616503565b60405180910390fd5b60026001819055506000600d8281548110613e1757613e16616dc8565b5b90600052602060002090600a020190506000600c600084815260200190815260200160002060003373ffffffffffffffffffffffffffffffffffffffff1673ffffffffffffffffffffffffffffffffffffffff168152602001908152602001600020905042613ea5620151808460080154613e929190616a53565b8360020154614a6090919063ffffffff16565b1115613ee6576040517f08c379a0000000000000000000000000000000000000000000000000000000008152600401613edd906163e3565b60405180910390fd5b600081600001549050613f06818460060154614a7690919063ffffffff16565b83600601819055506000826000018190555060008260010181905550600073ffffffffffffffffffffffffffffffffffffffff168360000160009054906101000a900473ffffffffffffffffffffffffffffffffffffffff1673ffffffffffffffffffffffffffffffffffffffff1614614016578260000160009054906101000a900473ffffffffffffffffffffffffffffffffffffffff1673ffffffffffffffffffffffffffffffffffffffff1663f72b2a4c846007015483336040518463ffffffff1660e01b8152600401613fdf939291906165d9565b600060405180830381600087803b158015613ff957600080fd5b505af115801561400d573d6000803e3d6000fd5b50505050614066565b61406533828560010160009054906101000a900473ffffffffffffffffffffffffffffffffffffffff1673ffffffffffffffffffffffffffffffffffffffff16614cae9092919063ffffffff16565b5b600560009054906101000a900473ffffffffffffffffffffffffffffffffffffffff1673ffffffffffffffffffffffffffffffffffffffff168360010160009054906101000a900473ffffffffffffffffffffffffffffffffffffffff1673ffffffffffffffffffffffffffffffffffffffff1614156140fc576140f581601354614a7690919063ffffffff16565b6013819055505b833373ffffffffffffffffffffffffffffffffffffffff167fbb757047c2b5f3974fe26b7c10f732e7bce710b0952a71082702781e62ae059583604051614143919061655e565b60405180910390a35050506001808190555050565b600080601054905082156141a7576141a0614191620f42406141838785614a8c90919063ffffffff16565b614aa290919063ffffffff16565b82614a6090919063ffffffff16565b90506141e4565b6141e16141d2620f42406141c48785614a8c90919063ffffffff16565b614aa290919063ffffffff16565b82614a7690919063ffffffff16565b90505b8091505092915050565b6141f6614ab8565b73ffffffffffffffffffffffffffffffffffffffff166142146132b1565b73ffffffffffffffffffffffffffffffffffffffff161461426a576040517f08c379a000000000000000000000000000000000000000000000000000000000815260040161426190616443565b60405180910390fd5b6040518060400160405280600d81526020017f7365744465764164647265737300000000000000000000000000000000000000815250600260009054906101000a900460ff16158061433d575060006003826040516142c9919061619d565b908152602001604051809103902054141580156143045750426003826040516142f2919061619d565b90815260200160405180910390205411155b801561433c57504262015180600383604051614320919061619d565b90815260200160405180910390205461433991906166da565b10155b5b61437c576040517f08c379a000000000000000000000000000000000000000000000000000000000815260040161437390616483565b60405180910390fd5b600073ffffffffffffffffffffffffffffffffffffffff168273ffffffffffffffffffffffffffffffffffffffff1614156143ec576040517f08c379a00000000000000000000000000000000000000000000000000000000081526004016143e3906163c3565b60405180910390fd5b81600e60006101000a81548173ffffffffffffffffffffffffffffffffffffffff021916908373ffffffffffffffffffffffffffffffffffffffff1602179055508173ffffffffffffffffffffffffffffffffffffffff163373ffffffffffffffffffffffffffffffffffffffff167f618c54559e94f1499a808aad71ee8729f8e74e8c48e979616328ce493a1a52e760405160405180910390a36144908161382b565b5050565b60176020528060005260406000206000915054906101000a900460ff1681565b600a5481565b60026001541415614500576040517f08c379a00000000000000000000000000000000000000000000000000000000081526004016144f790616503565b60405180910390fd5b6002600181905550614513828233614df8565b600180819055505050565b60008082612710606485876145339190616aad565b61453d919061693c565b614547919061693c565b6145519190616730565b9050600081121561458b577fffffffffffffffffffffffffffffffffffffffffffffffffffffffffffffffff81614588919061693c565b90505b6000819050809250505092915050565b600080600d84815481106145b2576145b1616dc8565b5b90600052602060002090600a020190506000600c600086815260200190815260200160002060008573ffffffffffffffffffffffffffffffffffffffff1673ffffffffffffffffffffffffffffffffffffffff1681526020019081526020016000209050600082600401549050600061462a87612a82565b9050836003015443118015614640575060008114155b156146e457600061465e856003015443614a7690919063ffffffff16565b905060006146a1601254614693886002015461468560105487614a8c90919063ffffffff16565b614a8c90919063ffffffff16565b614aa290919063ffffffff16565b90506146df6146d0846146c264e8d4a5100085614a8c90919063ffffffff16565b614aa290919063ffffffff16565b85614a6090919063ffffffff16565b935050505b614728836001015461471a64e8d4a5100061470c868860000154614a8c90919063ffffffff16565b614aa290919063ffffffff16565b614a7690919063ffffffff16565b94505050505092915050565b60145481565b614742614ab8565b73ffffffffffffffffffffffffffffffffffffffff166147606132b1565b73ffffffffffffffffffffffffffffffffffffffff16146147b6576040517f08c379a00000000000000000000000000000000000000000000000000000000081526004016147ad90616443565b60405180910390fd5b80601660006101000a81548161ffff021916908361ffff1602179055503373ffffffffffffffffffffffffffffffffffffffff167fbad81196170fb9427a5ce7abe0fdf496bb5f5f8bdbacbd118fe8fd7760248b26826040516148199190616543565b60405180910390a250565b61482c614ab8565b73ffffffffffffffffffffffffffffffffffffffff1661484a6132b1565b73ffffffffffffffffffffffffffffffffffffffff16146148a0576040517f08c379a000000000000000000000000000000000000000000000000000000000815260040161489790616443565b60405180910390fd5b600073ffffffffffffffffffffffffffffffffffffffff168173ffffffffffffffffffffffffffffffffffffffff161415614910576040517f08c379a000000000000000000000000000000000000000000000000000000000815260040161490790616343565b60405180910390fd5b61491981614d34565b50565b3373ffffffffffffffffffffffffffffffffffffffff1661493b6132b1565b73ffffffffffffffffffffffffffffffffffffffff1614806149aa57503373ffffffffffffffffffffffffffffffffffffffff16600460009054906101000a900473ffffffffffffffffffffffffffffffffffffffff1673ffffffffffffffffffffffffffffffffffffffff16145b6149e9576040517f08c379a00000000000000000000000000000000000000000000000000000000081526004016149e0906164a3565b60405180910390fd5b6001600260006101000a81548160ff0219169083151502179055507f2c08b62bfac9a1b19bb1dec9323f1ce01696a77948b256abf3603d30f25a864e60405160405180910390a1565b6003818051602081018201805184825260208301602085012081835280955050505050506000915090505481565b60008183614a6e91906166da565b905092915050565b60008183614a849190616b41565b905092915050565b60008183614a9a9190616a53565b905092915050565b60008183614ab0919061679a565b905092915050565b600033905090565b6000600560009054906101000a900473ffffffffffffffffffffffffffffffffffffffff1690506000614b866013548373ffffffffffffffffffffffffffffffffffffffff166370a08231306040518263ffffffff1660e01b8152600401614b2891906161b4565b60206040518083038186803b158015614b4057600080fd5b505afa158015614b54573d6000803e3d6000fd5b505050506040513d601f19601f82011682018060405250810190614b789190615b70565b614a7690919063ffffffff16565b905080831115614bc057614bbb84828473ffffffffffffffffffffffffffffffffffffffff16614cae9092919063ffffffff16565b614bec565b614beb84848473ffffffffffffffffffffffffffffffffffffffff16614cae9092919063ffffffff16565b5b50505050565b600a54600b8190555080600a81905550600a54600b547f4db09ff035e174c21f4ed503b26c1fe141926caa59e40fe975bda1583c3ebfba60405160405180910390a350565b6000614c47600a54600b5461451e565b9050601660009054906101000a900461ffff1661ffff16811115614c7d57601660009054906101000a900461ffff1661ffff1690505b6000614c8f82600b54600a5411614158565b905081601581905550600a54600a81905550614caa816153c7565b5050565b614d2f8363a9059cbb60e01b8484604051602401614ccd929190616206565b604051602081830303815290604052907bffffffffffffffffffffffffffffffffffffffffffffffffffffffff19166020820180517bffffffffffffffffffffffffffffffffffffffffffffffffffffffff8381831617835250505050615427565b505050565b60008060009054906101000a900473ffffffffffffffffffffffffffffffffffffffff169050816000806101000a81548173ffffffffffffffffffffffffffffffffffffffff021916908373ffffffffffffffffffffffffffffffffffffffff1602179055508173ffffffffffffffffffffffffffffffffffffffff168173ffffffffffffffffffffffffffffffffffffffff167f8be0079c531659141344cd1fd0a4f28419497f9722a3daafe3b4186f6b6457e060405160405180910390a35050565b6000600d8481548110614e0e57614e0d616dc8565b5b90600052602060002090600a020190506000600c600086815260200190815260200160002060008473ffffffffffffffffffffffffffffffffffffffff1673ffffffffffffffffffffffffffffffffffffffff1681526020019081526020016000209050614e7b85612496565b60008160000154118015614eba57503373ffffffffffffffffffffffffffffffffffffffff168373ffffffffffffffffffffffffffffffffffffffff16145b15614f21576000614f098260010154614efb64e8d4a51000614eed87600401548760000154614a8c90919063ffffffff16565b614aa290919063ffffffff16565b614a7690919063ffffffff16565b90506000811115614f1f57614f1e8482614ac0565b5b505b6000849050600085111561529857428260020181905550614f893330878660010160009054906101000a900473ffffffffffffffffffffffffffffffffffffffff1673ffffffffffffffffffffffffffffffffffffffff166154ee909392919063ffffffff16565b60008360050160009054906101000a900461ffff1661ffff161115615094576000614fe7612710614fd98660050160009054906101000a900461ffff1661ffff1689614a8c90919063ffffffff16565b614aa290919063ffffffff16565b905061505a600f60009054906101000a900473ffffffffffffffffffffffffffffffffffffffff16828660010160009054906101000a900473ffffffffffffffffffffffffffffffffffffffff1673ffffffffffffffffffffffffffffffffffffffff16614cae9092919063ffffffff16565b61506d8187614a7690919063ffffffff16565b9150615086828460000154614a6090919063ffffffff16565b8360000181905550506150b4565b6150ab858360000154614a6090919063ffffffff16565b82600001819055505b6150cb818460060154614a6090919063ffffffff16565b8360060181905550600073ffffffffffffffffffffffffffffffffffffffff168360000160009054906101000a900473ffffffffffffffffffffffffffffffffffffffff1673ffffffffffffffffffffffffffffffffffffffff1614615297578260010160009054906101000a900473ffffffffffffffffffffffffffffffffffffffff1673ffffffffffffffffffffffffffffffffffffffff1663095ea7b38460000160009054906101000a900473ffffffffffffffffffffffffffffffffffffffff16836040518363ffffffff1660e01b81526004016151ae929190616206565b602060405180830381600087803b1580156151c857600080fd5b505af11580156151dc573d6000803e3d6000fd5b505050506040513d601f19601f8201168201806040525081019061520091906159a0565b508260000160009054906101000a900473ffffffffffffffffffffffffffffffffffffffff1673ffffffffffffffffffffffffffffffffffffffff1663e2bbb1588460070154836040518363ffffffff1660e01b81526004016152649291906165b0565b600060405180830381600087803b15801561527e57600080fd5b505af1158015615292573d6000803e3d6000fd5b505050505b5b6152ca64e8d4a510006152bc85600401548560000154614a8c90919063ffffffff16565b614aa290919063ffffffff16565b8260010181905550600560009054906101000a900473ffffffffffffffffffffffffffffffffffffffff1673ffffffffffffffffffffffffffffffffffffffff168360010160009054906101000a900473ffffffffffffffffffffffffffffffffffffffff1673ffffffffffffffffffffffffffffffffffffffff1614156153685761536181601354614a6090919063ffffffff16565b6013819055505b858473ffffffffffffffffffffffffffffffffffffffff167f90890809c654f11d6e72a28fa60149770a0d11ec6c92319d6ceb2bb0a4ea1a15876040516153af919061655e565b60405180910390a36153bf611833565b505050505050565b6153cf612c47565b806010819055503073ffffffffffffffffffffffffffffffffffffffff167fe2492e003bbe8afa53088b406f0c1cb5d9e280370fc72a74cf116ffd343c40538260405161541c919061655e565b60405180910390a250565b6000615489826040518060400160405280602081526020017f5361666545524332303a206c6f772d6c6576656c2063616c6c206661696c65648152508573ffffffffffffffffffffffffffffffffffffffff166155779092919063ffffffff16565b90506000815111156154e957808060200190518101906154a991906159a0565b6154e8576040517f08c379a00000000000000000000000000000000000000000000000000000000081526004016154df906164e3565b60405180910390fd5b5b505050565b615571846323b872dd60e01b85858560405160240161550f939291906161cf565b604051602081830303815290604052907bffffffffffffffffffffffffffffffffffffffffffffffffffffffff19166020820180517bffffffffffffffffffffffffffffffffffffffffffffffffffffffff8381831617835250505050615427565b50505050565b6060615586848460008561558f565b90509392505050565b6060824710156155d4576040517f08c379a00000000000000000000000000000000000000000000000000000000081526004016155cb90616383565b60405180910390fd5b6155dd856156a3565b61561c576040517f08c379a0000000000000000000000000000000000000000000000000000000008152600401615613906164c3565b60405180910390fd5b6000808673ffffffffffffffffffffffffffffffffffffffff1685876040516156459190616186565b60006040518083038185875af1925050503d8060008114615682576040519150601f19603f3d011682016040523d82523d6000602084013e615687565b606091505b50915091506156978282866156b6565b92505050949350505050565b600080823b905060008111915050919050565b606083156156c657829050615716565b6000835111156156d95782518084602001fd5b816040517f08c379a000000000000000000000000000000000000000000000000000000000815260040161570d9190616301565b60405180910390fd5b9392505050565b600061573061572b8461666c565b616647565b90508281526020810184848401111561574c5761574b616e2b565b5b615757848285616cae565b509392505050565b60008135905061576e81617371565b92915050565b60008151905061578381617371565b92915050565b60008135905061579881617388565b92915050565b6000815190506157ad81617388565b92915050565b6000813590506157c28161739f565b92915050565b6000813590506157d7816173b6565b92915050565b6000813590506157ec816173cd565b92915050565b600081359050615801816173e4565b92915050565b600082601f83011261581c5761581b616e26565b5b813561582c84826020860161571d565b91505092915050565b600081519050615844816173fb565b92915050565b60008135905061585981617412565b92915050565b60008135905061586e81617429565b92915050565b60008151905061588381617429565b92915050565b60008151905061589881617440565b92915050565b6000815190506158ad81617457565b92915050565b6000602082840312156158c9576158c8616e35565b5b60006158d78482850161575f565b91505092915050565b6000602082840312156158f6576158f5616e35565b5b600061590484828501615774565b91505092915050565b60008060006060848603121561592657615925616e35565b5b60006159348682870161575f565b93505060206159458682870161575f565b92505060406159568682870161585f565b9150509250925092565b6000806040838503121561597757615976616e35565b5b60006159858582860161575f565b92505060206159968582860161585f565b9150509250929050565b6000602082840312156159b6576159b5616e35565b5b60006159c48482850161579e565b91505092915050565b600080604083850312156159e4576159e3616e35565b5b60006159f285828601615789565b9250506020615a038582860161575f565b9150509250929050565b600060208284031215615a2357615a22616e35565b5b6000615a31848285016157b3565b91505092915050565b60008060408385031215615a5157615a50616e35565b5b6000615a5f858286016157f2565b9250506020615a70858286016157f2565b9150509250929050565b600060208284031215615a9057615a8f616e35565b5b600082013567ffffffffffffffff811115615aae57615aad616e30565b5b615aba84828501615807565b91505092915050565b600080600060608486031215615adc57615adb616e35565b5b6000615aea86828701615835565b9350506020615afb86828701615835565b9250506040615b0c86828701615889565b9150509250925092565b600060208284031215615b2c57615b2b616e35565b5b6000615b3a8482850161584a565b91505092915050565b600060208284031215615b5957615b58616e35565b5b6000615b678482850161585f565b91505092915050565b600060208284031215615b8657615b85616e35565b5b6000615b9484828501615874565b91505092915050565b60008060408385031215615bb457615bb3616e35565b5b6000615bc28582860161585f565b9250506020615bd38582860161575f565b9150509250929050565b60008060408385031215615bf457615bf3616e35565b5b6000615c028582860161585f565b9250506020615c1385828601615789565b9150509250929050565b600080600080600080600080610100898b031215615c3e57615c3d616e35565b5b6000615c4c8b828c0161585f565b9850506020615c5d8b828c016157c8565b9750506040615c6e8b828c0161585f565b9650506060615c7f8b828c0161584a565b9550506080615c908b828c016157dd565b94505060a0615ca18b828c0161585f565b93505060c0615cb28b828c01615789565b92505060e0615cc38b828c01615789565b9150509295985092959890939650565b60008060408385031215615cea57615ce9616e35565b5b6000615cf88582860161585f565b9250506020615d098582860161585f565b9150509250929050565b600080600060608486031215615d2c57615d2b616e35565b5b6000615d3a8682870161585f565b9350506020615d4b8682870161585f565b9250506040615d5c8682870161575f565b9150509250925092565b60008060008060008060c08789031215615d8357615d82616e35565b5b6000615d9189828a0161585f565b9650506020615da289828a0161585f565b9550506040615db389828a0161584a565b9450506060615dc489828a0161585f565b9350506080615dd589828a01615789565b92505060a0615de689828a01615789565b9150509295509295509295565b600060208284031215615e0957615e08616e35565b5b6000615e178482850161589e565b91505092915050565b615e2981616b75565b82525050565b615e3881616b87565b82525050565b6000615e498261669d565b615e5381856166b3565b9350615e63818560208601616cbd565b80840191505092915050565b615e7881616c42565b82525050565b615e8781616c54565b82525050565b615e9681616c66565b82525050565b615ea581616c78565b82525050565b6000615eb6826166a8565b615ec081856166be565b9350615ed0818560208601616cbd565b615ed981616e3a565b840191505092915050565b6000615eef826166a8565b615ef981856166cf565b9350615f09818560208601616cbd565b80840191505092915050565b6000615f22603d836166be565b9150615f2d82616e58565b604082019050919050565b6000615f456026836166be565b9150615f5082616ea7565b604082019050919050565b6000615f686043836166be565b9150615f7382616ef6565b606082019050919050565b6000615f8b6026836166be565b9150615f9682616f6b565b604082019050919050565b6000615fae603c836166be565b9150615fb982616fba565b604082019050919050565b6000615fd16026836166be565b9150615fdc82617009565b604082019050919050565b6000615ff4604a836166be565b9150615fff82617058565b606082019050919050565b60006160176050836166be565b9150616022826170cd565b606082019050919050565b600061603a602e836166be565b915061604582617142565b604082019050919050565b600061605d6020836166be565b915061606882617191565b602082019050919050565b6000616080602b836166be565b915061608b826171ba565b604082019050919050565b60006160a36012836166be565b91506160ae82617209565b602082019050919050565b60006160c66035836166be565b91506160d182617232565b604082019050919050565b60006160e9601d836166be565b91506160f482617281565b602082019050919050565b600061610c602a836166be565b9150616117826172aa565b604082019050919050565b600061612f601f836166be565b915061613a826172f9565b602082019050919050565b60006161526022836166be565b915061615d82617322565b604082019050919050565b61617181616bed565b82525050565b61618081616c1b565b82525050565b60006161928284615e3e565b915081905092915050565b60006161a98284615ee4565b915081905092915050565b60006020820190506161c96000830184615e20565b92915050565b60006060820190506161e46000830186615e20565b6161f16020830185615e20565b6161fe6040830184616177565b949350505050565b600060408201905061621b6000830185615e20565b6162286020830184616177565b9392505050565b60006020820190506162446000830184615e2f565b92915050565b600060208201905061625f6000830184615e6f565b92915050565b60006101408201905061627b600083018d615e8d565b616288602083018c615e7e565b616295604083018b616177565b6162a2606083018a616177565b6162af6080830189616177565b6162bc60a0830188616168565b6162c960c0830187616177565b6162d660e0830186616177565b6162e4610100830185616177565b6162f2610120830184615e2f565b9b9a5050505050505050505050565b6000602082019050818103600083015261631b8184615eab565b905092915050565b6000602082019050818103600083015261633c81615f15565b9050919050565b6000602082019050818103600083015261635c81615f38565b9050919050565b6000602082019050818103600083015261637c81615f5b565b9050919050565b6000602082019050818103600083015261639c81615f7e565b9050919050565b600060208201905081810360008301526163bc81615fa1565b9050919050565b600060208201905081810360008301526163dc81615fc4565b9050919050565b600060208201905081810360008301526163fc81615fe7565b9050919050565b6000602082019050818103600083015261641c8161600a565b9050919050565b6000602082019050818103600083015261643c8161602d565b9050919050565b6000602082019050818103600083015261645c81616050565b9050919050565b6000602082019050818103600083015261647c81616073565b9050919050565b6000602082019050818103600083015261649c81616096565b9050919050565b600060208201905081810360008301526164bc816160b9565b9050919050565b600060208201905081810360008301526164dc816160dc565b9050919050565b600060208201905081810360008301526164fc816160ff565b9050919050565b6000602082019050818103600083015261651c81616122565b9050919050565b6000602082019050818103600083015261653c81616145565b9050919050565b60006020820190506165586000830184616168565b92915050565b60006020820190506165736000830184616177565b92915050565b600060608201905061658e6000830186616177565b61659b6020830185615e9c565b6165a86040830184615e20565b949350505050565b60006040820190506165c56000830185616177565b6165d26020830184616177565b9392505050565b60006060820190506165ee6000830186616177565b6165fb6020830185616177565b6166086040830184615e20565b949350505050565b60006060820190506166256000830186616177565b6166326020830185616177565b61663f6040830184616177565b949350505050565b6000616651616662565b905061665d8282616cf0565b919050565b6000604051905090565b600067ffffffffffffffff82111561668757616686616df7565b5b61669082616e3a565b9050602081019050919050565b600081519050919050565b600081519050919050565b600081905092915050565b600082825260208201905092915050565b600081905092915050565b60006166e582616c1b565b91506166f083616c1b565b9250827fffffffffffffffffffffffffffffffffffffffffffffffffffffffffffffffff0382111561672557616724616d6a565b5b828201905092915050565b600061673b82616bc9565b915061674683616bc9565b92508261675657616755616d99565b5b600160000383147f80000000000000000000000000000000000000000000000000000000000000008314161561678f5761678e616d6a565b5b828205905092915050565b60006167a582616c1b565b91506167b083616c1b565b9250826167c0576167bf616d99565b5b828204905092915050565b6000808291508390505b6001851115616815578086048111156167f1576167f0616d6a565b5b60018516156168005780820291505b808102905061680e85616e4b565b94506167d5565b94509492505050565b600061682982616c1b565b915061683483616c35565b92506168617fffffffffffffffffffffffffffffffffffffffffffffffffffffffffffffffff8484616869565b905092915050565b6000826168795760019050616935565b816168875760009050616935565b816001811461689d57600281146168a7576168d6565b6001915050616935565b60ff8411156168b9576168b8616d6a565b5b8360020a9150848211156168d0576168cf616d6a565b5b50616935565b5060208310610133831016604e8410600b841016171561690b5782820a90508381111561690657616905616d6a565b5b616935565b61691884848460016167cb565b9250905081840481111561692f5761692e616d6a565b5b81810290505b9392505050565b600061694782616bc9565b915061695283616bc9565b9250827f7fffffffffffffffffffffffffffffffffffffffffffffffffffffffffffffff048211600084136000841316161561699157616990616d6a565b5b817f800000000000000000000000000000000000000000000000000000000000000005831260008412600084131616156169ce576169cd616d6a565b5b827f80000000000000000000000000000000000000000000000000000000000000000582126000841360008412161615616a0b57616a0a616d6a565b5b827f7fffffffffffffffffffffffffffffffffffffffffffffffffffffffffffffff0582126000841260008412161615616a4857616a47616d6a565b5b828202905092915050565b6000616a5e82616c1b565b9150616a6983616c1b565b9250817fffffffffffffffffffffffffffffffffffffffffffffffffffffffffffffffff0483118215151615616aa257616aa1616d6a565b5b828202905092915050565b6000616ab882616bc9565b9150616ac383616bc9565b9250827f800000000000000000000000000000000000000000000000000000000000000001821260008412151615616afe57616afd616d6a565b5b827f7fffffffffffffffffffffffffffffffffffffffffffffffffffffffffffffff018213600084121615616b3657616b35616d6a565b5b828203905092915050565b6000616b4c82616c1b565b9150616b5783616c1b565b925082821015616b6a57616b69616d6a565b5b828203905092915050565b6000616b8082616bfb565b9050919050565b60008115159050919050565b6000616b9e82616b75565b9050919050565b6000616bb082616b75565b9050919050565b6000616bc282616b75565b9050919050565b6000819050919050565b60006dffffffffffffffffffffffffffff82169050919050565b600061ffff82169050919050565b600073ffffffffffffffffffffffffffffffffffffffff82169050919050565b6000819050919050565b600063ffffffff82169050919050565b600060ff82169050919050565b6000616c4d82616c8a565b9050919050565b6000616c5f82616c8a565b9050919050565b6000616c7182616c8a565b9050919050565b6000616c8382616c1b565b9050919050565b6000616c9582616c9c565b9050919050565b6000616ca782616bfb565b9050919050565b82818337600083830152505050565b60005b83811015616cdb578082015181840152602081019050616cc0565b83811115616cea576000848401525b50505050565b616cf982616e3a565b810181811067ffffffffffffffff82111715616d1857616d17616df7565b5b80604052505050565b6000616d2c82616c1b565b91507fffffffffffffffffffffffffffffffffffffffffffffffffffffffffffffffff821415616d5f57616d5e616d6a565b5b600182019050919050565b7f4e487b7100000000000000000000000000000000000000000000000000000000600052601160045260246000fd5b7f4e487b7100000000000000000000000000000000000000000000000000000000600052601260045260246000fd5b7f4e487b7100000000000000000000000000000000000000000000000000000000600052603260045260246000fd5b7f4e487b7100000000000000000000000000000000000000000000000000000000600052604160045260246000fd5b600080fd5b600080fd5b600080fd5b600080fd5b6000601f19601f8301169050919050565b60008160011c9050919050565b7f77697468647261773a20776974686472617720616d6f756e742063616e27742060008201527f657863656564207573657273206465706f736974656420616d6f756e74000000602082015250565b7f4f776e61626c653a206e6577206f776e657220697320746865207a65726f206160008201527f6464726573730000000000000000000000000000000000000000000000000000602082015250565b7f41424f41543a3a6465706f736974466f72557365723a20596f7520617265206e60008201527f6f7420616c6c6f77656420746f20657865637574652074686973206465706f7360208201527f69742e0000000000000000000000000000000000000000000000000000000000604082015250565b7f416464726573733a20696e73756666696369656e742062616c616e636520666f60008201527f722063616c6c0000000000000000000000000000000000000000000000000000602082015250565b7f41424f41543a3a77697468647261773a2043616e27742077697468647261772060008201527f6265666f7265206c6f636b696e6720706572696f6420656e6465642e00000000602082015250565b7f44657620616464726573732073686f756c64206e6f74206265207a65726f206160008201527f6464726573730000000000000000000000000000000000000000000000000000602082015250565b7f41424f41543a3a7769746864726177576974686f7574526577617264733a204360008201527f616e2774207769746864726177206265666f7265206c6f636b696e672070657260208201527f696f6420656e6465642e00000000000000000000000000000000000000000000604082015250565b7f41424f41543a3a7365744d61696e7461696e65723a204d61696e7461696e657260008201527f2063616e277420657175616c2070726576696f7573206d61696e7461696e657260208201527f206f72207a65726f206164647265737300000000000000000000000000000000604082015250565b7f41424f41543a3a736574436f696e3a2043616e27742073657420636f696e207460008201527f6f207a65726f2061646472657373000000000000000000000000000000000000602082015250565b7f4f776e61626c653a2063616c6c6572206973206e6f7420746865206f776e6572600082015250565b7f41424f41543a3a736574436f696e3a2043616e2774207265706c61636520746860008201527f652073616d6520636f696e000000000000000000000000000000000000000000602082015250565b7f46756e6374696f6e206973206c6f636b65640000000000000000000000000000600082015250565b7f6f70657261746f723a2063616c6c6572206973206e6f7420616c6c6f7765642060008201527f746f2063616c6c20746869732066756e6374696f6e0000000000000000000000602082015250565b7f416464726573733a2063616c6c20746f206e6f6e2d636f6e7472616374000000600082015250565b7f5361666545524332303a204552433230206f7065726174696f6e20646964206e60008201527f6f74207375636365656400000000000000000000000000000000000000000000602082015250565b7f5265656e7472616e637947756172643a207265656e7472616e742063616c6c00600082015250565b7f7365743a206465706f736974206665652063616e27742065786365656420313060008201527f2025000000000000000000000000000000000000000000000000000000000000602082015250565b61737a81616b75565b811461738557600080fd5b50565b61739181616b87565b811461739c57600080fd5b50565b6173a881616b93565b81146173b357600080fd5b50565b6173bf81616ba5565b81146173ca57600080fd5b50565b6173d681616bb7565b81146173e157600080fd5b50565b6173ed81616bc9565b81146173f857600080fd5b50565b61740481616bd3565b811461740f57600080fd5b50565b61741b81616bed565b811461742657600080fd5b50565b61743281616c1b565b811461743d57600080fd5b50565b61744981616c25565b811461745457600080fd5b50565b61746081616c35565b811461746b57600080fd5b5056fea264697066735822122055cb1f523f35d5f218bccd728cef67098466a30d46ada23433fc2c4406683b3164736f6c63430008070033",
			"opcodes": "PUSH1 0x80 PUSH1 0x40 MSTORE PUSH1 0x0 PUSH1 0x2 PUSH1 0x0 PUSH2 0x100 EXP DUP2 SLOAD DUP2 PUSH1 0xFF MUL NOT AND SWAP1 DUP4 ISZERO ISZERO MUL OR SWAP1 SSTORE POP PUSH1 0x0 PUSH1 0x8 SSTORE PUSH1 0x0 PUSH1 0xA SSTORE PUSH1 0x0 PUSH1 0xB SSTORE PUSH1 0x0 PUSH1 0x12 SSTORE PUSH1 0x0 PUSH1 0x13 SSTORE PUSH1 0x0 PUSH1 0x15 SSTORE PUSH2 0x61A8 PUSH1 0x16 PUSH1 0x0 PUSH2 0x100 EXP DUP2 SLOAD DUP2 PUSH2 0xFFFF MUL NOT AND SWAP1 DUP4 PUSH2 0xFFFF AND MUL OR SWAP1 SSTORE POP CALLVALUE DUP1 ISZERO PUSH3 0x69 JUMPI PUSH1 0x0 DUP1 REVERT JUMPDEST POP PUSH1 0x40 MLOAD PUSH3 0x8DDB CODESIZE SUB DUP1 PUSH3 0x8DDB DUP4 CODECOPY DUP2 DUP2 ADD PUSH1 0x40 MSTORE DUP2 ADD SWAP1 PUSH3 0x8F SWAP2 SWAP1 PUSH3 0x1168 JUMP JUMPDEST PUSH3 0xAF PUSH3 0xA3 PUSH3 0x575 PUSH1 0x20 SHL PUSH1 0x20 SHR JUMP JUMPDEST PUSH3 0x57D PUSH1 0x20 SHL PUSH1 0x20 SHR JUMP JUMPDEST PUSH1 0x1 DUP1 DUP2 SWAP1 SSTORE POP CALLER PUSH1 0x4 PUSH1 0x0 PUSH2 0x100 EXP DUP2 SLOAD DUP2 PUSH20 0xFFFFFFFFFFFFFFFFFFFFFFFFFFFFFFFFFFFFFFFF MUL NOT AND SWAP1 DUP4 PUSH20 0xFFFFFFFFFFFFFFFFFFFFFFFFFFFFFFFFFFFFFFFF AND MUL OR SWAP1 SSTORE POP PUSH1 0x0 JUMPDEST PUSH1 0x18 DUP2 PUSH1 0xFF AND LT ISZERO PUSH3 0x147 JUMPI PUSH1 0x7 PUSH1 0x0 SWAP1 DUP1 PUSH1 0x1 DUP2 SLOAD ADD DUP1 DUP3 SSTORE DUP1 SWAP2 POP POP PUSH1 0x1 SWAP1 SUB SWAP1 PUSH1 0x0 MSTORE PUSH1 0x20 PUSH1 0x0 KECCAK256 ADD PUSH1 0x0 SWAP1 SWAP2 SWAP1 SWAP2 SWAP1 SWAP2 POP SSTORE DUP1 DUP1 PUSH3 0x13E SWAP1 PUSH3 0x1664 JUMP JUMPDEST SWAP2 POP POP PUSH3 0xFA JUMP JUMPDEST POP PUSH1 0x0 PUSH20 0xFFFFFFFFFFFFFFFFFFFFFFFFFFFFFFFFFFFFFFFF AND DUP5 PUSH20 0xFFFFFFFFFFFFFFFFFFFFFFFFFFFFFFFFFFFFFFFF AND EQ ISZERO PUSH3 0x1BB JUMPI PUSH1 0x40 MLOAD PUSH32 0x8C379A000000000000000000000000000000000000000000000000000000000 DUP2 MSTORE PUSH1 0x4 ADD PUSH3 0x1B2 SWAP1 PUSH3 0x13B6 JUMP JUMPDEST PUSH1 0x40 MLOAD DUP1 SWAP2 SUB SWAP1 REVERT JUMPDEST PUSH1 0x0 PUSH20 0xFFFFFFFFFFFFFFFFFFFFFFFFFFFFFFFFFFFFFFFF AND DUP4 PUSH20 0xFFFFFFFFFFFFFFFFFFFFFFFFFFFFFFFFFFFFFFFF AND EQ ISZERO PUSH3 0x22E JUMPI PUSH1 0x40 MLOAD PUSH32 0x8C379A000000000000000000000000000000000000000000000000000000000 DUP2 MSTORE PUSH1 0x4 ADD PUSH3 0x225 SWAP1 PUSH3 0x13D8 JUMP JUMPDEST PUSH1 0x40 MLOAD DUP1 SWAP2 SUB SWAP1 REVERT JUMPDEST PUSH1 0x0 PUSH20 0xFFFFFFFFFFFFFFFFFFFFFFFFFFFFFFFFFFFFFFFF AND DUP3 PUSH20 0xFFFFFFFFFFFFFFFFFFFFFFFFFFFFFFFFFFFFFFFF AND EQ ISZERO PUSH3 0x2A1 JUMPI PUSH1 0x40 MLOAD PUSH32 0x8C379A000000000000000000000000000000000000000000000000000000000 DUP2 MSTORE PUSH1 0x4 ADD PUSH3 0x298 SWAP1 PUSH3 0x1394 JUMP JUMPDEST PUSH1 0x40 MLOAD DUP1 SWAP2 SUB SWAP1 REVERT JUMPDEST DUP4 PUSH1 0x5 PUSH1 0x0 PUSH2 0x100 EXP DUP2 SLOAD DUP2 PUSH20 0xFFFFFFFFFFFFFFFFFFFFFFFFFFFFFFFFFFFFFFFF MUL NOT AND SWAP1 DUP4 PUSH20 0xFFFFFFFFFFFFFFFFFFFFFFFFFFFFFFFFFFFFFFFF AND MUL OR SWAP1 SSTORE POP DUP3 PUSH1 0xE PUSH1 0x0 PUSH2 0x100 EXP DUP2 SLOAD DUP2 PUSH20 0xFFFFFFFFFFFFFFFFFFFFFFFFFFFFFFFFFFFFFFFF MUL NOT AND SWAP1 DUP4 PUSH20 0xFFFFFFFFFFFFFFFFFFFFFFFFFFFFFFFFFFFFFFFF AND MUL OR SWAP1 SSTORE POP DUP2 PUSH1 0xF PUSH1 0x0 PUSH2 0x100 EXP DUP2 SLOAD DUP2 PUSH20 0xFFFFFFFFFFFFFFFFFFFFFFFFFFFFFFFFFFFFFFFF MUL NOT AND SWAP1 DUP4 PUSH20 0xFFFFFFFFFFFFFFFFFFFFFFFFFFFFFFFFFFFFFFFF AND MUL OR SWAP1 SSTORE POP PUSH9 0x6C6B935B8BBD400000 PUSH1 0x10 DUP2 SWAP1 SSTORE POP DUP1 PUSH1 0x11 DUP2 SWAP1 SSTORE POP PUSH1 0x0 PUSH1 0x5 PUSH1 0x0 SWAP1 SLOAD SWAP1 PUSH2 0x100 EXP SWAP1 DIV PUSH20 0xFFFFFFFFFFFFFFFFFFFFFFFFFFFFFFFFFFFFFFFF AND PUSH20 0xFFFFFFFFFFFFFFFFFFFFFFFFFFFFFFFFFFFFFFFF AND PUSH4 0x808A5457 PUSH1 0x40 MLOAD DUP2 PUSH4 0xFFFFFFFF AND PUSH1 0xE0 SHL DUP2 MSTORE PUSH1 0x4 ADD PUSH1 0x20 PUSH1 0x40 MLOAD DUP1 DUP4 SUB DUP2 DUP7 DUP1 EXTCODESIZE ISZERO DUP1 ISZERO PUSH3 0x3E6 JUMPI PUSH1 0x0 DUP1 REVERT JUMPDEST POP GAS STATICCALL ISZERO DUP1 ISZERO PUSH3 0x3FB JUMPI RETURNDATASIZE PUSH1 0x0 DUP1 RETURNDATACOPY RETURNDATASIZE PUSH1 0x0 REVERT JUMPDEST POP POP POP POP PUSH1 0x40 MLOAD RETURNDATASIZE PUSH1 0x1F NOT PUSH1 0x1F DUP3 ADD AND DUP3 ADD DUP1 PUSH1 0x40 MSTORE POP DUP2 ADD SWAP1 PUSH3 0x421 SWAP2 SWAP1 PUSH3 0x1136 JUMP JUMPDEST SWAP1 POP PUSH3 0x443 PUSH1 0x64 DUP7 PUSH1 0x0 PUSH2 0x190 PUSH1 0x0 PUSH1 0x1E PUSH1 0x1 PUSH1 0x0 PUSH3 0x641 PUSH1 0x20 SHL PUSH1 0x20 SHR JUMP JUMPDEST PUSH3 0x463 PUSH1 0x96 DUP7 PUSH1 0x0 PUSH2 0x12C PUSH1 0x0 PUSH1 0x5A PUSH1 0x1 PUSH1 0x0 PUSH3 0x641 PUSH1 0x20 SHL PUSH1 0x20 SHR JUMP JUMPDEST PUSH3 0x482 PUSH1 0xFA DUP7 PUSH1 0x0 PUSH1 0xC8 PUSH1 0x0 PUSH1 0xB4 PUSH1 0x1 PUSH1 0x0 PUSH3 0x641 PUSH1 0x20 SHL PUSH1 0x20 SHR JUMP JUMPDEST PUSH3 0x4A3 PUSH2 0x190 DUP7 PUSH1 0x0 PUSH1 0x64 PUSH1 0x0 PUSH2 0x168 PUSH1 0x1 PUSH1 0x0 PUSH3 0x641 PUSH1 0x20 SHL PUSH1 0x20 SHR JUMP JUMPDEST PUSH1 0x0 PUSH20 0xFFFFFFFFFFFFFFFFFFFFFFFFFFFFFFFFFFFFFFFF AND DUP2 PUSH20 0xFFFFFFFFFFFFFFFFFFFFFFFFFFFFFFFFFFFFFFFF AND EQ PUSH3 0x55A JUMPI PUSH3 0x4F8 PUSH1 0x96 DUP3 PUSH1 0x0 PUSH2 0x190 PUSH1 0x0 PUSH1 0x1E PUSH1 0x1 PUSH1 0x0 PUSH3 0x641 PUSH1 0x20 SHL PUSH1 0x20 SHR JUMP JUMPDEST PUSH3 0x518 PUSH1 0xFA DUP3 PUSH1 0x0 PUSH2 0x12C PUSH1 0x0 PUSH1 0x5A PUSH1 0x1 PUSH1 0x0 PUSH3 0x641 PUSH1 0x20 SHL PUSH1 0x20 SHR JUMP JUMPDEST PUSH3 0x538 PUSH2 0x190 DUP3 PUSH1 0x0 PUSH1 0xC8 PUSH1 0x0 PUSH1 0xB4 PUSH1 0x1 PUSH1 0x0 PUSH3 0x641 PUSH1 0x20 SHL PUSH1 0x20 SHR JUMP JUMPDEST PUSH3 0x559 PUSH2 0x258 DUP3 PUSH1 0x0 PUSH1 0x64 PUSH1 0x0 PUSH2 0x168 PUSH1 0x1 PUSH1 0x0 PUSH3 0x641 PUSH1 0x20 SHL PUSH1 0x20 SHR JUMP JUMPDEST JUMPDEST PUSH3 0x56A PUSH3 0x987 PUSH1 0x20 SHL PUSH1 0x20 SHR JUMP JUMPDEST POP POP POP POP POP PUSH3 0x1927 JUMP JUMPDEST PUSH1 0x0 CALLER SWAP1 POP SWAP1 JUMP JUMPDEST PUSH1 0x0 DUP1 PUSH1 0x0 SWAP1 SLOAD SWAP1 PUSH2 0x100 EXP SWAP1 DIV PUSH20 0xFFFFFFFFFFFFFFFFFFFFFFFFFFFFFFFFFFFFFFFF AND SWAP1 POP DUP2 PUSH1 0x0 DUP1 PUSH2 0x100 EXP DUP2 SLOAD DUP2 PUSH20 0xFFFFFFFFFFFFFFFFFFFFFFFFFFFFFFFFFFFFFFFF MUL NOT AND SWAP1 DUP4 PUSH20 0xFFFFFFFFFFFFFFFFFFFFFFFFFFFFFFFFFFFFFFFF AND MUL OR SWAP1 SSTORE POP DUP2 PUSH20 0xFFFFFFFFFFFFFFFFFFFFFFFFFFFFFFFFFFFFFFFF AND DUP2 PUSH20 0xFFFFFFFFFFFFFFFFFFFFFFFFFFFFFFFFFFFFFFFF AND PUSH32 0x8BE0079C531659141344CD1FD0A4F28419497F9722A3DAAFE3B4186F6B6457E0 PUSH1 0x40 MLOAD PUSH1 0x40 MLOAD DUP1 SWAP2 SUB SWAP1 LOG3 POP POP JUMP JUMPDEST PUSH3 0x651 PUSH3 0x575 PUSH1 0x20 SHL PUSH1 0x20 SHR JUMP JUMPDEST PUSH20 0xFFFFFFFFFFFFFFFFFFFFFFFFFFFFFFFFFFFFFFFF AND PUSH3 0x677 PUSH3 0xAA9 PUSH1 0x20 SHL PUSH1 0x20 SHR JUMP JUMPDEST PUSH20 0xFFFFFFFFFFFFFFFFFFFFFFFFFFFFFFFFFFFFFFFF AND EQ PUSH3 0x6D0 JUMPI PUSH1 0x40 MLOAD PUSH32 0x8C379A000000000000000000000000000000000000000000000000000000000 DUP2 MSTORE PUSH1 0x4 ADD PUSH3 0x6C7 SWAP1 PUSH3 0x13FA JUMP JUMPDEST PUSH1 0x40 MLOAD DUP1 SWAP2 SUB SWAP1 REVERT JUMPDEST PUSH2 0x2710 DUP6 PUSH2 0xFFFF AND GT ISZERO PUSH3 0x71C JUMPI PUSH1 0x40 MLOAD PUSH32 0x8C379A000000000000000000000000000000000000000000000000000000000 DUP2 MSTORE PUSH1 0x4 ADD PUSH3 0x713 SWAP1 PUSH3 0x143E JUMP JUMPDEST PUSH1 0x40 MLOAD DUP1 SWAP2 SUB SWAP1 REVERT JUMPDEST DUP1 ISZERO PUSH3 0x734 JUMPI PUSH3 0x733 PUSH3 0xAD2 PUSH1 0x20 SHL PUSH1 0x20 SHR JUMP JUMPDEST JUMPDEST PUSH1 0x0 PUSH1 0x11 SLOAD NUMBER GT PUSH3 0x749 JUMPI PUSH1 0x11 SLOAD PUSH3 0x74B JUMP JUMPDEST NUMBER JUMPDEST SWAP1 POP PUSH3 0x769 DUP10 PUSH1 0x12 SLOAD PUSH3 0xB11 PUSH1 0x20 SHL PUSH3 0x4A60 OR SWAP1 SWAP2 SWAP1 PUSH1 0x20 SHR JUMP JUMPDEST PUSH1 0x12 DUP2 SWAP1 SSTORE POP PUSH1 0xD PUSH1 0x40 MLOAD DUP1 PUSH2 0x140 ADD PUSH1 0x40 MSTORE DUP1 DUP8 PUSH20 0xFFFFFFFFFFFFFFFFFFFFFFFFFFFFFFFFFFFFFFFF AND DUP2 MSTORE PUSH1 0x20 ADD DUP11 PUSH20 0xFFFFFFFFFFFFFFFFFFFFFFFFFFFFFFFFFFFFFFFF AND DUP2 MSTORE PUSH1 0x20 ADD DUP12 DUP2 MSTORE PUSH1 0x20 ADD DUP4 DUP2 MSTORE PUSH1 0x20 ADD PUSH1 0x0 DUP2 MSTORE PUSH1 0x20 ADD DUP9 PUSH2 0xFFFF AND DUP2 MSTORE PUSH1 0x20 ADD PUSH1 0x0 DUP2 MSTORE PUSH1 0x20 ADD DUP10 DUP2 MSTORE PUSH1 0x20 ADD DUP7 DUP2 MSTORE PUSH1 0x20 ADD DUP6 ISZERO ISZERO DUP2 MSTORE POP SWAP1 DUP1 PUSH1 0x1 DUP2 SLOAD ADD DUP1 DUP3 SSTORE DUP1 SWAP2 POP POP PUSH1 0x1 SWAP1 SUB SWAP1 PUSH1 0x0 MSTORE PUSH1 0x20 PUSH1 0x0 KECCAK256 SWAP1 PUSH1 0xA MUL ADD PUSH1 0x0 SWAP1 SWAP2 SWAP1 SWAP2 SWAP1 SWAP2 POP PUSH1 0x0 DUP3 ADD MLOAD DUP2 PUSH1 0x0 ADD PUSH1 0x0 PUSH2 0x100 EXP DUP2 SLOAD DUP2 PUSH20 0xFFFFFFFFFFFFFFFFFFFFFFFFFFFFFFFFFFFFFFFF MUL NOT AND SWAP1 DUP4 PUSH20 0xFFFFFFFFFFFFFFFFFFFFFFFFFFFFFFFFFFFFFFFF AND MUL OR SWAP1 SSTORE POP PUSH1 0x20 DUP3 ADD MLOAD DUP2 PUSH1 0x1 ADD PUSH1 0x0 PUSH2 0x100 EXP DUP2 SLOAD DUP2 PUSH20 0xFFFFFFFFFFFFFFFFFFFFFFFFFFFFFFFFFFFFFFFF MUL NOT AND SWAP1 DUP4 PUSH20 0xFFFFFFFFFFFFFFFFFFFFFFFFFFFFFFFFFFFFFFFF AND MUL OR SWAP1 SSTORE POP PUSH1 0x40 DUP3 ADD MLOAD DUP2 PUSH1 0x2 ADD SSTORE PUSH1 0x60 DUP3 ADD MLOAD DUP2 PUSH1 0x3 ADD SSTORE PUSH1 0x80 DUP3 ADD MLOAD DUP2 PUSH1 0x4 ADD SSTORE PUSH1 0xA0 DUP3 ADD MLOAD DUP2 PUSH1 0x5 ADD PUSH1 0x0 PUSH2 0x100 EXP DUP2 SLOAD DUP2 PUSH2 0xFFFF MUL NOT AND SWAP1 DUP4 PUSH2 0xFFFF AND MUL OR SWAP1 SSTORE POP PUSH1 0xC0 DUP3 ADD MLOAD DUP2 PUSH1 0x6 ADD SSTORE PUSH1 0xE0 DUP3 ADD MLOAD DUP2 PUSH1 0x7 ADD SSTORE PUSH2 0x100 DUP3 ADD MLOAD DUP2 PUSH1 0x8 ADD SSTORE PUSH2 0x120 DUP3 ADD MLOAD DUP2 PUSH1 0x9 ADD PUSH1 0x0 PUSH2 0x100 EXP DUP2 SLOAD DUP2 PUSH1 0xFF MUL NOT AND SWAP1 DUP4 ISZERO ISZERO MUL OR SWAP1 SSTORE POP POP POP PUSH1 0x1 PUSH1 0xD DUP1 SLOAD SWAP1 POP PUSH3 0x939 SWAP2 SWAP1 PUSH3 0x1584 JUMP JUMPDEST DUP9 PUSH20 0xFFFFFFFFFFFFFFFFFFFFFFFFFFFFFFFFFFFFFFFF AND PUSH32 0xBE4222BC407CB12031595FC55B46531E46308D31E4572C9C4360D8AE790E1A31 PUSH1 0x40 MLOAD PUSH1 0x40 MLOAD DUP1 SWAP2 SUB SWAP1 LOG3 POP POP POP POP POP POP POP POP POP JUMP JUMPDEST CALLER PUSH20 0xFFFFFFFFFFFFFFFFFFFFFFFFFFFFFFFFFFFFFFFF AND PUSH3 0x9AE PUSH3 0xAA9 PUSH1 0x20 SHL PUSH1 0x20 SHR JUMP JUMPDEST PUSH20 0xFFFFFFFFFFFFFFFFFFFFFFFFFFFFFFFFFFFFFFFF AND EQ DUP1 PUSH3 0xA1E JUMPI POP CALLER PUSH20 0xFFFFFFFFFFFFFFFFFFFFFFFFFFFFFFFFFFFFFFFF AND PUSH1 0x4 PUSH1 0x0 SWAP1 SLOAD SWAP1 PUSH2 0x100 EXP SWAP1 DIV PUSH20 0xFFFFFFFFFFFFFFFFFFFFFFFFFFFFFFFFFFFFFFFF AND PUSH20 0xFFFFFFFFFFFFFFFFFFFFFFFFFFFFFFFFFFFFFFFF AND EQ JUMPDEST PUSH3 0xA60 JUMPI PUSH1 0x40 MLOAD PUSH32 0x8C379A000000000000000000000000000000000000000000000000000000000 DUP2 MSTORE PUSH1 0x4 ADD PUSH3 0xA57 SWAP1 PUSH3 0x141C JUMP JUMPDEST PUSH1 0x40 MLOAD DUP1 SWAP2 SUB SWAP1 REVERT JUMPDEST PUSH1 0x1 PUSH1 0x2 PUSH1 0x0 PUSH2 0x100 EXP DUP2 SLOAD DUP2 PUSH1 0xFF MUL NOT AND SWAP1 DUP4 ISZERO ISZERO MUL OR SWAP1 SSTORE POP PUSH32 0x2C08B62BFAC9A1B19BB1DEC9323F1CE01696A77948B256ABF3603D30F25A864E PUSH1 0x40 MLOAD PUSH1 0x40 MLOAD DUP1 SWAP2 SUB SWAP1 LOG1 JUMP JUMPDEST PUSH1 0x0 DUP1 PUSH1 0x0 SWAP1 SLOAD SWAP1 PUSH2 0x100 EXP SWAP1 DIV PUSH20 0xFFFFFFFFFFFFFFFFFFFFFFFFFFFFFFFFFFFFFFFF AND SWAP1 POP SWAP1 JUMP JUMPDEST PUSH1 0x0 PUSH1 0xD DUP1 SLOAD SWAP1 POP SWAP1 POP PUSH1 0x0 JUMPDEST DUP2 DUP2 LT ISZERO PUSH3 0xB0D JUMPI PUSH3 0xAF9 DUP2 PUSH3 0xB29 PUSH1 0x20 SHL PUSH1 0x20 SHR JUMP JUMPDEST DUP1 PUSH3 0xB05 SWAP1 PUSH3 0x1616 JUMP JUMPDEST SWAP1 POP PUSH3 0xADF JUMP JUMPDEST POP POP JUMP JUMPDEST PUSH1 0x0 DUP2 DUP4 PUSH3 0xB21 SWAP2 SWAP1 PUSH3 0x148E JUMP JUMPDEST SWAP1 POP SWAP3 SWAP2 POP POP JUMP JUMPDEST PUSH1 0x0 PUSH1 0xD DUP3 DUP2 SLOAD DUP2 LT PUSH3 0xB42 JUMPI PUSH3 0xB41 PUSH3 0x16F1 JUMP JUMPDEST JUMPDEST SWAP1 PUSH1 0x0 MSTORE PUSH1 0x20 PUSH1 0x0 KECCAK256 SWAP1 PUSH1 0xA MUL ADD SWAP1 POP DUP1 PUSH1 0x3 ADD SLOAD NUMBER GT PUSH3 0xB65 JUMPI POP PUSH3 0xE1B JUMP JUMPDEST PUSH1 0x0 PUSH3 0xB78 DUP4 PUSH3 0xE1E PUSH1 0x20 SHL PUSH1 0x20 SHR JUMP JUMPDEST SWAP1 POP PUSH1 0x0 DUP2 EQ ISZERO PUSH3 0xB95 JUMPI NUMBER DUP3 PUSH1 0x3 ADD DUP2 SWAP1 SSTORE POP POP POP PUSH3 0xE1B JUMP JUMPDEST PUSH1 0x0 PUSH3 0xBB5 DUP4 PUSH1 0x3 ADD SLOAD NUMBER PUSH3 0xFEF PUSH1 0x20 SHL PUSH3 0x4A76 OR SWAP1 SWAP2 SWAP1 PUSH1 0x20 SHR JUMP JUMPDEST SWAP1 POP PUSH1 0x0 PUSH3 0xC0D PUSH1 0x12 SLOAD PUSH3 0xBF9 DUP7 PUSH1 0x2 ADD SLOAD PUSH3 0xBE5 PUSH1 0x10 SLOAD DUP8 PUSH3 0x1007 PUSH1 0x20 SHL PUSH3 0x4A8C OR SWAP1 SWAP2 SWAP1 PUSH1 0x20 SHR JUMP JUMPDEST PUSH3 0x1007 PUSH1 0x20 SHL PUSH3 0x4A8C OR SWAP1 SWAP2 SWAP1 PUSH1 0x20 SHR JUMP JUMPDEST PUSH3 0x101F PUSH1 0x20 SHL PUSH3 0x4AA2 OR SWAP1 SWAP2 SWAP1 PUSH1 0x20 SHR JUMP JUMPDEST SWAP1 POP PUSH3 0xC47 PUSH3 0xC2E PUSH1 0xA DUP4 PUSH3 0x101F PUSH1 0x20 SHL PUSH3 0x4AA2 OR SWAP1 SWAP2 SWAP1 PUSH1 0x20 SHR JUMP JUMPDEST DUP3 PUSH3 0xC3B SWAP2 SWAP1 PUSH3 0x148E JUMP JUMPDEST PUSH3 0x1037 PUSH1 0x20 SHL PUSH1 0x20 SHR JUMP JUMPDEST ISZERO PUSH3 0xDB0 JUMPI PUSH1 0x5 PUSH1 0x0 SWAP1 SLOAD SWAP1 PUSH2 0x100 EXP SWAP1 DIV PUSH20 0xFFFFFFFFFFFFFFFFFFFFFFFFFFFFFFFFFFFFFFFF AND PUSH20 0xFFFFFFFFFFFFFFFFFFFFFFFFFFFFFFFFFFFFFFFF AND PUSH4 0x40C10F19 PUSH1 0xE PUSH1 0x0 SWAP1 SLOAD SWAP1 PUSH2 0x100 EXP SWAP1 DIV PUSH20 0xFFFFFFFFFFFFFFFFFFFFFFFFFFFFFFFFFFFFFFFF AND PUSH3 0xCC9 PUSH1 0xA DUP6 PUSH3 0x101F PUSH1 0x20 SHL PUSH3 0x4AA2 OR SWAP1 SWAP2 SWAP1 PUSH1 0x20 SHR JUMP JUMPDEST PUSH1 0x40 MLOAD DUP4 PUSH4 0xFFFFFFFF AND PUSH1 0xE0 SHL DUP2 MSTORE PUSH1 0x4 ADD PUSH3 0xCE8 SWAP3 SWAP2 SWAP1 PUSH3 0x1367 JUMP JUMPDEST PUSH1 0x0 PUSH1 0x40 MLOAD DUP1 DUP4 SUB DUP2 PUSH1 0x0 DUP8 DUP1 EXTCODESIZE ISZERO DUP1 ISZERO PUSH3 0xD03 JUMPI PUSH1 0x0 DUP1 REVERT JUMPDEST POP GAS CALL ISZERO DUP1 ISZERO PUSH3 0xD18 JUMPI RETURNDATASIZE PUSH1 0x0 DUP1 RETURNDATACOPY RETURNDATASIZE PUSH1 0x0 REVERT JUMPDEST POP POP POP POP PUSH1 0x5 PUSH1 0x0 SWAP1 SLOAD SWAP1 PUSH2 0x100 EXP SWAP1 DIV PUSH20 0xFFFFFFFFFFFFFFFFFFFFFFFFFFFFFFFFFFFFFFFF AND PUSH20 0xFFFFFFFFFFFFFFFFFFFFFFFFFFFFFFFFFFFFFFFF AND PUSH4 0x40C10F19 ADDRESS DUP4 PUSH1 0x40 MLOAD DUP4 PUSH4 0xFFFFFFFF AND PUSH1 0xE0 SHL DUP2 MSTORE PUSH1 0x4 ADD PUSH3 0xD7B SWAP3 SWAP2 SWAP1 PUSH3 0x1367 JUMP JUMPDEST PUSH1 0x0 PUSH1 0x40 MLOAD DUP1 DUP4 SUB DUP2 PUSH1 0x0 DUP8 DUP1 EXTCODESIZE ISZERO DUP1 ISZERO PUSH3 0xD96 JUMPI PUSH1 0x0 DUP1 REVERT JUMPDEST POP GAS CALL ISZERO DUP1 ISZERO PUSH3 0xDAB JUMPI RETURNDATASIZE PUSH1 0x0 DUP1 RETURNDATACOPY RETURNDATASIZE PUSH1 0x0 REVERT JUMPDEST POP POP POP POP JUMPDEST PUSH3 0xE05 PUSH3 0xDEC DUP5 PUSH3 0xDD8 PUSH5 0xE8D4A51000 DUP6 PUSH3 0x1007 PUSH1 0x20 SHL PUSH3 0x4A8C OR SWAP1 SWAP2 SWAP1 PUSH1 0x20 SHR JUMP JUMPDEST PUSH3 0x101F PUSH1 0x20 SHL PUSH3 0x4AA2 OR SWAP1 SWAP2 SWAP1 PUSH1 0x20 SHR JUMP JUMPDEST DUP6 PUSH1 0x4 ADD SLOAD PUSH3 0xB11 PUSH1 0x20 SHL PUSH3 0x4A60 OR SWAP1 SWAP2 SWAP1 PUSH1 0x20 SHR JUMP JUMPDEST DUP5 PUSH1 0x4 ADD DUP2 SWAP1 SSTORE POP NUMBER DUP5 PUSH1 0x3 ADD DUP2 SWAP1 SSTORE POP POP POP POP POP JUMPDEST POP JUMP JUMPDEST PUSH1 0x0 DUP1 PUSH1 0xD DUP4 DUP2 SLOAD DUP2 LT PUSH3 0xE38 JUMPI PUSH3 0xE37 PUSH3 0x16F1 JUMP JUMPDEST JUMPDEST SWAP1 PUSH1 0x0 MSTORE PUSH1 0x20 PUSH1 0x0 KECCAK256 SWAP1 PUSH1 0xA MUL ADD SWAP1 POP PUSH1 0x0 PUSH1 0x5 PUSH1 0x0 SWAP1 SLOAD SWAP1 PUSH2 0x100 EXP SWAP1 DIV PUSH20 0xFFFFFFFFFFFFFFFFFFFFFFFFFFFFFFFFFFFFFFFF AND PUSH20 0xFFFFFFFFFFFFFFFFFFFFFFFFFFFFFFFFFFFFFFFF AND DUP3 PUSH1 0x1 ADD PUSH1 0x0 SWAP1 SLOAD SWAP1 PUSH2 0x100 EXP SWAP1 DIV PUSH20 0xFFFFFFFFFFFFFFFFFFFFFFFFFFFFFFFFFFFFFFFF AND PUSH20 0xFFFFFFFFFFFFFFFFFFFFFFFFFFFFFFFFFFFFFFFF AND EQ DUP1 PUSH3 0xF1C JUMPI POP PUSH1 0x0 PUSH20 0xFFFFFFFFFFFFFFFFFFFFFFFFFFFFFFFFFFFFFFFF AND DUP3 PUSH1 0x0 ADD PUSH1 0x0 SWAP1 SLOAD SWAP1 PUSH2 0x100 EXP SWAP1 DIV PUSH20 0xFFFFFFFFFFFFFFFFFFFFFFFFFFFFFFFFFFFFFFFF AND PUSH20 0xFFFFFFFFFFFFFFFFFFFFFFFFFFFFFFFFFFFFFFFF AND EQ ISZERO JUMPDEST ISZERO PUSH3 0xF2F JUMPI DUP2 PUSH1 0x6 ADD SLOAD SWAP1 POP PUSH3 0xFE5 JUMP JUMPDEST DUP2 PUSH1 0x1 ADD PUSH1 0x0 SWAP1 SLOAD SWAP1 PUSH2 0x100 EXP SWAP1 DIV PUSH20 0xFFFFFFFFFFFFFFFFFFFFFFFFFFFFFFFFFFFFFFFF AND PUSH20 0xFFFFFFFFFFFFFFFFFFFFFFFFFFFFFFFFFFFFFFFF AND PUSH4 0x70A08231 ADDRESS PUSH1 0x40 MLOAD DUP3 PUSH4 0xFFFFFFFF AND PUSH1 0xE0 SHL DUP2 MSTORE PUSH1 0x4 ADD PUSH3 0xF8E SWAP2 SWAP1 PUSH3 0x134A JUMP JUMPDEST PUSH1 0x20 PUSH1 0x40 MLOAD DUP1 DUP4 SUB DUP2 DUP7 DUP1 EXTCODESIZE ISZERO DUP1 ISZERO PUSH3 0xFA7 JUMPI PUSH1 0x0 DUP1 REVERT JUMPDEST POP GAS STATICCALL ISZERO DUP1 ISZERO PUSH3 0xFBC JUMPI RETURNDATASIZE PUSH1 0x0 DUP1 RETURNDATACOPY RETURNDATASIZE PUSH1 0x0 REVERT JUMPDEST POP POP POP POP PUSH1 0x40 MLOAD RETURNDATASIZE PUSH1 0x1F NOT PUSH1 0x1F DUP3 ADD AND DUP3 ADD DUP1 PUSH1 0x40 MSTORE POP DUP2 ADD SWAP1 PUSH3 0xFE2 SWAP2 SWAP1 PUSH3 0x120C JUMP JUMPDEST SWAP1 POP JUMPDEST DUP1 SWAP3 POP POP POP SWAP2 SWAP1 POP JUMP JUMPDEST PUSH1 0x0 DUP2 DUP4 PUSH3 0xFFF SWAP2 SWAP1 PUSH3 0x1584 JUMP JUMPDEST SWAP1 POP SWAP3 SWAP2 POP POP JUMP JUMPDEST PUSH1 0x0 DUP2 DUP4 PUSH3 0x1017 SWAP2 SWAP1 PUSH3 0x1523 JUMP JUMPDEST SWAP1 POP SWAP3 SWAP2 POP POP JUMP JUMPDEST PUSH1 0x0 DUP2 DUP4 PUSH3 0x102F SWAP2 SWAP1 PUSH3 0x14EB JUMP JUMPDEST SWAP1 POP SWAP3 SWAP2 POP POP JUMP JUMPDEST PUSH1 0x0 PUSH1 0x5 PUSH1 0x0 SWAP1 SLOAD SWAP1 PUSH2 0x100 EXP SWAP1 DIV PUSH20 0xFFFFFFFFFFFFFFFFFFFFFFFFFFFFFFFFFFFFFFFF AND PUSH20 0xFFFFFFFFFFFFFFFFFFFFFFFFFFFFFFFFFFFFFFFF AND PUSH4 0x69372B30 DUP4 PUSH1 0x40 MLOAD DUP3 PUSH4 0xFFFFFFFF AND PUSH1 0xE0 SHL DUP2 MSTORE PUSH1 0x4 ADD PUSH3 0x1096 SWAP2 SWAP1 PUSH3 0x1460 JUMP JUMPDEST PUSH1 0x20 PUSH1 0x40 MLOAD DUP1 DUP4 SUB DUP2 DUP7 DUP1 EXTCODESIZE ISZERO DUP1 ISZERO PUSH3 0x10AF JUMPI PUSH1 0x0 DUP1 REVERT JUMPDEST POP GAS STATICCALL ISZERO DUP1 ISZERO PUSH3 0x10C4 JUMPI RETURNDATASIZE PUSH1 0x0 DUP1 RETURNDATACOPY RETURNDATASIZE PUSH1 0x0 REVERT JUMPDEST POP POP POP POP PUSH1 0x40 MLOAD RETURNDATASIZE PUSH1 0x1F NOT PUSH1 0x1F DUP3 ADD AND DUP3 ADD DUP1 PUSH1 0x40 MSTORE POP DUP2 ADD SWAP1 PUSH3 0x10EA SWAP2 SWAP1 PUSH3 0x11DA JUMP JUMPDEST SWAP1 POP SWAP2 SWAP1 POP JUMP JUMPDEST PUSH1 0x0 DUP2 MLOAD SWAP1 POP PUSH3 0x1102 DUP2 PUSH3 0x18D9 JUMP JUMPDEST SWAP3 SWAP2 POP POP JUMP JUMPDEST PUSH1 0x0 DUP2 MLOAD SWAP1 POP PUSH3 0x1119 DUP2 PUSH3 0x18F3 JUMP JUMPDEST SWAP3 SWAP2 POP POP JUMP JUMPDEST PUSH1 0x0 DUP2 MLOAD SWAP1 POP PUSH3 0x1130 DUP2 PUSH3 0x190D JUMP JUMPDEST SWAP3 SWAP2 POP POP JUMP JUMPDEST PUSH1 0x0 PUSH1 0x20 DUP3 DUP5 SUB SLT ISZERO PUSH3 0x114F JUMPI PUSH3 0x114E PUSH3 0x1720 JUMP JUMPDEST JUMPDEST PUSH1 0x0 PUSH3 0x115F DUP5 DUP3 DUP6 ADD PUSH3 0x10F1 JUMP JUMPDEST SWAP2 POP POP SWAP3 SWAP2 POP POP JUMP JUMPDEST PUSH1 0x0 DUP1 PUSH1 0x0 DUP1 PUSH1 0x80 DUP6 DUP8 SUB SLT ISZERO PUSH3 0x1185 JUMPI PUSH3 0x1184 PUSH3 0x1720 JUMP JUMPDEST JUMPDEST PUSH1 0x0 PUSH3 0x1195 DUP8 DUP3 DUP9 ADD PUSH3 0x10F1 JUMP JUMPDEST SWAP5 POP POP PUSH1 0x20 PUSH3 0x11A8 DUP8 DUP3 DUP9 ADD PUSH3 0x10F1 JUMP JUMPDEST SWAP4 POP POP PUSH1 0x40 PUSH3 0x11BB DUP8 DUP3 DUP9 ADD PUSH3 0x10F1 JUMP JUMPDEST SWAP3 POP POP PUSH1 0x60 PUSH3 0x11CE DUP8 DUP3 DUP9 ADD PUSH3 0x111F JUMP JUMPDEST SWAP2 POP POP SWAP3 SWAP6 SWAP2 SWAP5 POP SWAP3 POP JUMP JUMPDEST PUSH1 0x0 PUSH1 0x20 DUP3 DUP5 SUB SLT ISZERO PUSH3 0x11F3 JUMPI PUSH3 0x11F2 PUSH3 0x1720 JUMP JUMPDEST JUMPDEST PUSH1 0x0 PUSH3 0x1203 DUP5 DUP3 DUP6 ADD PUSH3 0x1108 JUMP JUMPDEST SWAP2 POP POP SWAP3 SWAP2 POP POP JUMP JUMPDEST PUSH1 0x0 PUSH1 0x20 DUP3 DUP5 SUB SLT ISZERO PUSH3 0x1225 JUMPI PUSH3 0x1224 PUSH3 0x1720 JUMP JUMPDEST JUMPDEST PUSH1 0x0 PUSH3 0x1235 DUP5 DUP3 DUP6 ADD PUSH3 0x111F JUMP JUMPDEST SWAP2 POP POP SWAP3 SWAP2 POP POP JUMP JUMPDEST PUSH3 0x1249 DUP2 PUSH3 0x15BF JUMP JUMPDEST DUP3 MSTORE POP POP JUMP JUMPDEST PUSH1 0x0 PUSH3 0x125E PUSH1 0x26 DUP4 PUSH3 0x147D JUMP JUMPDEST SWAP2 POP PUSH3 0x126B DUP3 PUSH3 0x1725 JUMP JUMPDEST PUSH1 0x40 DUP3 ADD SWAP1 POP SWAP2 SWAP1 POP JUMP JUMPDEST PUSH1 0x0 PUSH3 0x1285 PUSH1 0x21 DUP4 PUSH3 0x147D JUMP JUMPDEST SWAP2 POP PUSH3 0x1292 DUP3 PUSH3 0x1774 JUMP JUMPDEST PUSH1 0x40 DUP3 ADD SWAP1 POP SWAP2 SWAP1 POP JUMP JUMPDEST PUSH1 0x0 PUSH3 0x12AC PUSH1 0x26 DUP4 PUSH3 0x147D JUMP JUMPDEST SWAP2 POP PUSH3 0x12B9 DUP3 PUSH3 0x17C3 JUMP JUMPDEST PUSH1 0x40 DUP3 ADD SWAP1 POP SWAP2 SWAP1 POP JUMP JUMPDEST PUSH1 0x0 PUSH3 0x12D3 PUSH1 0x20 DUP4 PUSH3 0x147D JUMP JUMPDEST SWAP2 POP PUSH3 0x12E0 DUP3 PUSH3 0x1812 JUMP JUMPDEST PUSH1 0x20 DUP3 ADD SWAP1 POP SWAP2 SWAP1 POP JUMP JUMPDEST PUSH1 0x0 PUSH3 0x12FA PUSH1 0x35 DUP4 PUSH3 0x147D JUMP JUMPDEST SWAP2 POP PUSH3 0x1307 DUP3 PUSH3 0x183B JUMP JUMPDEST PUSH1 0x40 DUP3 ADD SWAP1 POP SWAP2 SWAP1 POP JUMP JUMPDEST PUSH1 0x0 PUSH3 0x1321 PUSH1 0x22 DUP4 PUSH3 0x147D JUMP JUMPDEST SWAP2 POP PUSH3 0x132E DUP3 PUSH3 0x188A JUMP JUMPDEST PUSH1 0x40 DUP3 ADD SWAP1 POP SWAP2 SWAP1 POP JUMP JUMPDEST PUSH3 0x1344 DUP2 PUSH3 0x15FF JUMP JUMPDEST DUP3 MSTORE POP POP JUMP JUMPDEST PUSH1 0x0 PUSH1 0x20 DUP3 ADD SWAP1 POP PUSH3 0x1361 PUSH1 0x0 DUP4 ADD DUP5 PUSH3 0x123E JUMP JUMPDEST SWAP3 SWAP2 POP POP JUMP JUMPDEST PUSH1 0x0 PUSH1 0x40 DUP3 ADD SWAP1 POP PUSH3 0x137E PUSH1 0x0 DUP4 ADD DUP6 PUSH3 0x123E JUMP JUMPDEST PUSH3 0x138D PUSH1 0x20 DUP4 ADD DUP5 PUSH3 0x1339 JUMP JUMPDEST SWAP4 SWAP3 POP POP POP JUMP JUMPDEST PUSH1 0x0 PUSH1 0x20 DUP3 ADD SWAP1 POP DUP2 DUP2 SUB PUSH1 0x0 DUP4 ADD MSTORE PUSH3 0x13AF DUP2 PUSH3 0x124F JUMP JUMPDEST SWAP1 POP SWAP2 SWAP1 POP JUMP JUMPDEST PUSH1 0x0 PUSH1 0x20 DUP3 ADD SWAP1 POP DUP2 DUP2 SUB PUSH1 0x0 DUP4 ADD MSTORE PUSH3 0x13D1 DUP2 PUSH3 0x1276 JUMP JUMPDEST SWAP1 POP SWAP2 SWAP1 POP JUMP JUMPDEST PUSH1 0x0 PUSH1 0x20 DUP3 ADD SWAP1 POP DUP2 DUP2 SUB PUSH1 0x0 DUP4 ADD MSTORE PUSH3 0x13F3 DUP2 PUSH3 0x129D JUMP JUMPDEST SWAP1 POP SWAP2 SWAP1 POP JUMP JUMPDEST PUSH1 0x0 PUSH1 0x20 DUP3 ADD SWAP1 POP DUP2 DUP2 SUB PUSH1 0x0 DUP4 ADD MSTORE PUSH3 0x1415 DUP2 PUSH3 0x12C4 JUMP JUMPDEST SWAP1 POP SWAP2 SWAP1 POP JUMP JUMPDEST PUSH1 0x0 PUSH1 0x20 DUP3 ADD SWAP1 POP DUP2 DUP2 SUB PUSH1 0x0 DUP4 ADD MSTORE PUSH3 0x1437 DUP2 PUSH3 0x12EB JUMP JUMPDEST SWAP1 POP SWAP2 SWAP1 POP JUMP JUMPDEST PUSH1 0x0 PUSH1 0x20 DUP3 ADD SWAP1 POP DUP2 DUP2 SUB PUSH1 0x0 DUP4 ADD MSTORE PUSH3 0x1459 DUP2 PUSH3 0x1312 JUMP JUMPDEST SWAP1 POP SWAP2 SWAP1 POP JUMP JUMPDEST PUSH1 0x0 PUSH1 0x20 DUP3 ADD SWAP1 POP PUSH3 0x1477 PUSH1 0x0 DUP4 ADD DUP5 PUSH3 0x1339 JUMP JUMPDEST SWAP3 SWAP2 POP POP JUMP JUMPDEST PUSH1 0x0 DUP3 DUP3 MSTORE PUSH1 0x20 DUP3 ADD SWAP1 POP SWAP3 SWAP2 POP POP JUMP JUMPDEST PUSH1 0x0 PUSH3 0x149B DUP3 PUSH3 0x15FF JUMP JUMPDEST SWAP2 POP PUSH3 0x14A8 DUP4 PUSH3 0x15FF JUMP JUMPDEST SWAP3 POP DUP3 PUSH32 0xFFFFFFFFFFFFFFFFFFFFFFFFFFFFFFFFFFFFFFFFFFFFFFFFFFFFFFFFFFFFFFFF SUB DUP3 GT ISZERO PUSH3 0x14E0 JUMPI PUSH3 0x14DF PUSH3 0x1693 JUMP JUMPDEST JUMPDEST DUP3 DUP3 ADD SWAP1 POP SWAP3 SWAP2 POP POP JUMP JUMPDEST PUSH1 0x0 PUSH3 0x14F8 DUP3 PUSH3 0x15FF JUMP JUMPDEST SWAP2 POP PUSH3 0x1505 DUP4 PUSH3 0x15FF JUMP JUMPDEST SWAP3 POP DUP3 PUSH3 0x1518 JUMPI PUSH3 0x1517 PUSH3 0x16C2 JUMP JUMPDEST JUMPDEST DUP3 DUP3 DIV SWAP1 POP SWAP3 SWAP2 POP POP JUMP JUMPDEST PUSH1 0x0 PUSH3 0x1530 DUP3 PUSH3 0x15FF JUMP JUMPDEST SWAP2 POP PUSH3 0x153D DUP4 PUSH3 0x15FF JUMP JUMPDEST SWAP3 POP DUP2 PUSH32 0xFFFFFFFFFFFFFFFFFFFFFFFFFFFFFFFFFFFFFFFFFFFFFFFFFFFFFFFFFFFFFFFF DIV DUP4 GT DUP3 ISZERO ISZERO AND ISZERO PUSH3 0x1579 JUMPI PUSH3 0x1578 PUSH3 0x1693 JUMP JUMPDEST JUMPDEST DUP3 DUP3 MUL SWAP1 POP SWAP3 SWAP2 POP POP JUMP JUMPDEST PUSH1 0x0 PUSH3 0x1591 DUP3 PUSH3 0x15FF JUMP JUMPDEST SWAP2 POP PUSH3 0x159E DUP4 PUSH3 0x15FF JUMP JUMPDEST SWAP3 POP DUP3 DUP3 LT ISZERO PUSH3 0x15B4 JUMPI PUSH3 0x15B3 PUSH3 0x1693 JUMP JUMPDEST JUMPDEST DUP3 DUP3 SUB SWAP1 POP SWAP3 SWAP2 POP POP JUMP JUMPDEST PUSH1 0x0 PUSH3 0x15CC DUP3 PUSH3 0x15DF JUMP JUMPDEST SWAP1 POP SWAP2 SWAP1 POP JUMP JUMPDEST PUSH1 0x0 DUP2 ISZERO ISZERO SWAP1 POP SWAP2 SWAP1 POP JUMP JUMPDEST PUSH1 0x0 PUSH20 0xFFFFFFFFFFFFFFFFFFFFFFFFFFFFFFFFFFFFFFFF DUP3 AND SWAP1 POP SWAP2 SWAP1 POP JUMP JUMPDEST PUSH1 0x0 DUP2 SWAP1 POP SWAP2 SWAP1 POP JUMP JUMPDEST PUSH1 0x0 PUSH1 0xFF DUP3 AND SWAP1 POP SWAP2 SWAP1 POP JUMP JUMPDEST PUSH1 0x0 PUSH3 0x1623 DUP3 PUSH3 0x15FF JUMP JUMPDEST SWAP2 POP PUSH32 0xFFFFFFFFFFFFFFFFFFFFFFFFFFFFFFFFFFFFFFFFFFFFFFFFFFFFFFFFFFFFFFFF DUP3 EQ ISZERO PUSH3 0x1659 JUMPI PUSH3 0x1658 PUSH3 0x1693 JUMP JUMPDEST JUMPDEST PUSH1 0x1 DUP3 ADD SWAP1 POP SWAP2 SWAP1 POP JUMP JUMPDEST PUSH1 0x0 PUSH3 0x1671 DUP3 PUSH3 0x1609 JUMP JUMPDEST SWAP2 POP PUSH1 0xFF DUP3 EQ ISZERO PUSH3 0x1688 JUMPI PUSH3 0x1687 PUSH3 0x1693 JUMP JUMPDEST JUMPDEST PUSH1 0x1 DUP3 ADD SWAP1 POP SWAP2 SWAP1 POP JUMP JUMPDEST PUSH32 0x4E487B7100000000000000000000000000000000000000000000000000000000 PUSH1 0x0 MSTORE PUSH1 0x11 PUSH1 0x4 MSTORE PUSH1 0x24 PUSH1 0x0 REVERT JUMPDEST PUSH32 0x4E487B7100000000000000000000000000000000000000000000000000000000 PUSH1 0x0 MSTORE PUSH1 0x12 PUSH1 0x4 MSTORE PUSH1 0x24 PUSH1 0x0 REVERT JUMPDEST PUSH32 0x4E487B7100000000000000000000000000000000000000000000000000000000 PUSH1 0x0 MSTORE PUSH1 0x32 PUSH1 0x4 MSTORE PUSH1 0x24 PUSH1 0x0 REVERT JUMPDEST PUSH1 0x0 DUP1 REVERT JUMPDEST PUSH32 0x46656520616464726573732073686F756C64206E6F74206265207A65726F2061 PUSH1 0x0 DUP3 ADD MSTORE PUSH32 0x6464726573730000000000000000000000000000000000000000000000000000 PUSH1 0x20 DUP3 ADD MSTORE POP JUMP JUMPDEST PUSH32 0x41626F617420546F6B656E2063616E2774206265207A65726F20616464726573 PUSH1 0x0 DUP3 ADD MSTORE PUSH32 0x7300000000000000000000000000000000000000000000000000000000000000 PUSH1 0x20 DUP3 ADD MSTORE POP JUMP JUMPDEST PUSH32 0x44657620616464726573732073686F756C64206E6F74206265207A65726F2061 PUSH1 0x0 DUP3 ADD MSTORE PUSH32 0x6464726573730000000000000000000000000000000000000000000000000000 PUSH1 0x20 DUP3 ADD MSTORE POP JUMP JUMPDEST PUSH32 0x4F776E61626C653A2063616C6C6572206973206E6F7420746865206F776E6572 PUSH1 0x0 DUP3 ADD MSTORE POP JUMP JUMPDEST PUSH32 0x6F70657261746F723A2063616C6C6572206973206E6F7420616C6C6F77656420 PUSH1 0x0 DUP3 ADD MSTORE PUSH32 0x746F2063616C6C20746869732066756E6374696F6E0000000000000000000000 PUSH1 0x20 DUP3 ADD MSTORE POP JUMP JUMPDEST PUSH32 0x7365743A206465706F736974206665652063616E277420657863656564203130 PUSH1 0x0 DUP3 ADD MSTORE PUSH32 0x2025000000000000000000000000000000000000000000000000000000000000 PUSH1 0x20 DUP3 ADD MSTORE POP JUMP JUMPDEST PUSH3 0x18E4 DUP2 PUSH3 0x15BF JUMP JUMPDEST DUP2 EQ PUSH3 0x18F0 JUMPI PUSH1 0x0 DUP1 REVERT JUMPDEST POP JUMP JUMPDEST PUSH3 0x18FE DUP2 PUSH3 0x15D3 JUMP JUMPDEST DUP2 EQ PUSH3 0x190A JUMPI PUSH1 0x0 DUP1 REVERT JUMPDEST POP JUMP JUMPDEST PUSH3 0x1918 DUP2 PUSH3 0x15FF JUMP JUMPDEST DUP2 EQ PUSH3 0x1924 JUMPI PUSH1 0x0 DUP1 REVERT JUMPDEST POP JUMP JUMPDEST PUSH2 0x74A4 DUP1 PUSH3 0x1937 PUSH1 0x0 CODECOPY PUSH1 0x0 RETURN INVALID PUSH1 0x80 PUSH1 0x40 MSTORE CALLVALUE DUP1 ISZERO PUSH2 0x10 JUMPI PUSH1 0x0 DUP1 REVERT JUMPDEST POP PUSH1 0x4 CALLDATASIZE LT PUSH2 0x378 JUMPI PUSH1 0x0 CALLDATALOAD PUSH1 0xE0 SHR DUP1 PUSH4 0x82E46B75 GT PUSH2 0x1D3 JUMPI DUP1 PUSH4 0xA6BE46AA GT PUSH2 0x104 JUMPI DUP1 PUSH4 0xE6C1E89C GT PUSH2 0xA2 JUMPI DUP1 PUSH4 0xF0C44502 GT PUSH2 0x7C JUMPI DUP1 PUSH4 0xF0C44502 EQ PUSH2 0xA0A JUMPI DUP1 PUSH4 0xF2FDE38B EQ PUSH2 0xA26 JUMPI DUP1 PUSH4 0xF4762FD6 EQ PUSH2 0xA42 JUMPI DUP1 PUSH4 0xF98080C0 EQ PUSH2 0xA4C JUMPI PUSH2 0x378 JUMP JUMPDEST DUP1 PUSH4 0xE6C1E89C EQ PUSH2 0x98C JUMPI DUP1 PUSH4 0xE9A52B67 EQ PUSH2 0x9BC JUMPI DUP1 PUSH4 0xEDC23F96 EQ PUSH2 0x9EC JUMPI PUSH2 0x378 JUMP JUMPDEST DUP1 PUSH4 0xD0D41FE1 GT PUSH2 0xDE JUMPI DUP1 PUSH4 0xD0D41FE1 EQ PUSH2 0x906 JUMPI DUP1 PUSH4 0xD936547E EQ PUSH2 0x922 JUMPI DUP1 PUSH4 0xDA201248 EQ PUSH2 0x952 JUMPI DUP1 PUSH4 0xE2BBB158 EQ PUSH2 0x970 JUMPI PUSH2 0x378 JUMP JUMPDEST DUP1 PUSH4 0xA6BE46AA EQ PUSH2 0x89C JUMPI DUP1 PUSH4 0xA8B39EEE EQ PUSH2 0x8BA JUMPI DUP1 PUSH4 0xCA4164F9 EQ PUSH2 0x8D6 JUMPI PUSH2 0x378 JUMP JUMPDEST DUP1 PUSH4 0x9B4DC8CC GT PUSH2 0x171 JUMPI DUP1 PUSH4 0x9FBE42E3 GT PUSH2 0x14B JUMPI DUP1 PUSH4 0x9FBE42E3 EQ PUSH2 0x816 JUMPI DUP1 PUSH4 0xA347511A EQ PUSH2 0x846 JUMPI DUP1 PUSH4 0xA3F30D27 EQ PUSH2 0x864 JUMPI DUP1 PUSH4 0xA607494A EQ PUSH2 0x880 JUMPI PUSH2 0x378 JUMP JUMPDEST DUP1 PUSH4 0x9B4DC8CC EQ PUSH2 0x7BE JUMPI DUP1 PUSH4 0x9EED5B33 EQ PUSH2 0x7DC JUMPI DUP1 PUSH4 0x9F531156 EQ PUSH2 0x7FA JUMPI PUSH2 0x378 JUMP JUMPDEST DUP1 PUSH4 0x8DA5CB5B GT PUSH2 0x1AD JUMPI DUP1 PUSH4 0x8DA5CB5B EQ PUSH2 0x736 JUMPI DUP1 PUSH4 0x94D45B59 EQ PUSH2 0x754 JUMPI DUP1 PUSH4 0x97E78494 EQ PUSH2 0x784 JUMPI DUP1 PUSH4 0x9850D32B EQ PUSH2 0x7A0 JUMPI PUSH2 0x378 JUMP JUMPDEST DUP1 PUSH4 0x82E46B75 EQ PUSH2 0x6CA JUMPI DUP1 PUSH4 0x87370846 EQ PUSH2 0x6E6 JUMPI DUP1 PUSH4 0x8CA20689 EQ PUSH2 0x718 JUMPI PUSH2 0x378 JUMP JUMPDEST DUP1 PUSH4 0x441A3E70 GT PUSH2 0x2AD JUMPI DUP1 PUSH4 0x630B5BA1 GT PUSH2 0x24B JUMPI DUP1 PUSH4 0x689D84E4 GT PUSH2 0x225 JUMPI DUP1 PUSH4 0x689D84E4 EQ PUSH2 0x639 JUMPI DUP1 PUSH4 0x6E0C9F0A EQ PUSH2 0x672 JUMPI DUP1 PUSH4 0x715018A6 EQ PUSH2 0x6A2 JUMPI DUP1 PUSH4 0x7BA71C55 EQ PUSH2 0x6AC JUMPI PUSH2 0x378 JUMP JUMPDEST DUP1 PUSH4 0x630B5BA1 EQ PUSH2 0x607 JUMPI DUP1 PUSH4 0x65A2D701 EQ PUSH2 0x611 JUMPI DUP1 PUSH4 0x673A7E28 EQ PUSH2 0x62F JUMPI PUSH2 0x378 JUMP JUMPDEST DUP1 PUSH4 0x51EB05A6 GT PUSH2 0x287 JUMPI DUP1 PUSH4 0x51EB05A6 EQ PUSH2 0x56D JUMPI DUP1 PUSH4 0x57320251 EQ PUSH2 0x589 JUMPI DUP1 PUSH4 0x575B789C EQ PUSH2 0x5A7 JUMPI DUP1 PUSH4 0x5ECBBF98 EQ PUSH2 0x5D7 JUMPI PUSH2 0x378 JUMP JUMPDEST DUP1 PUSH4 0x441A3E70 EQ PUSH2 0x515 JUMPI DUP1 PUSH4 0x48CD4CB1 EQ PUSH2 0x531 JUMPI DUP1 PUSH4 0x4B94F50E EQ PUSH2 0x54F JUMPI PUSH2 0x378 JUMP JUMPDEST DUP1 PUSH4 0x29465D42 GT PUSH2 0x31A JUMPI DUP1 PUSH4 0x3AD10EF6 GT PUSH2 0x2F4 JUMPI DUP1 PUSH4 0x3AD10EF6 EQ PUSH2 0x4B1 JUMPI DUP1 PUSH4 0x3E82211C EQ PUSH2 0x4CF JUMPI DUP1 PUSH4 0x41275358 EQ PUSH2 0x4ED JUMPI DUP1 PUSH4 0x437F660E EQ PUSH2 0x50B JUMPI PUSH2 0x378 JUMP JUMPDEST DUP1 PUSH4 0x29465D42 EQ PUSH2 0x449 JUMPI DUP1 PUSH4 0x34C434E4 EQ PUSH2 0x479 JUMPI DUP1 PUSH4 0x379607F5 EQ PUSH2 0x495 JUMPI PUSH2 0x378 JUMP JUMPDEST DUP1 PUSH4 0x13EA5D29 GT PUSH2 0x356 JUMPI DUP1 PUSH4 0x13EA5D29 EQ PUSH2 0x3D5 JUMPI DUP1 PUSH4 0x17CAF6F1 EQ PUSH2 0x3F1 JUMPI DUP1 PUSH4 0x262917D9 EQ PUSH2 0x40F JUMPI DUP1 PUSH4 0x27DE1947 EQ PUSH2 0x42B JUMPI PUSH2 0x378 JUMP JUMPDEST DUP1 PUSH4 0x81E3EDA EQ PUSH2 0x37D JUMPI DUP1 PUSH4 0xBA84CD2 EQ PUSH2 0x39B JUMPI DUP1 PUSH4 0x11DF9995 EQ PUSH2 0x3B7 JUMPI JUMPDEST PUSH1 0x0 DUP1 REVERT JUMPDEST PUSH2 0x385 PUSH2 0xA7C JUMP JUMPDEST PUSH1 0x40 MLOAD PUSH2 0x392 SWAP2 SWAP1 PUSH2 0x655E JUMP JUMPDEST PUSH1 0x40 MLOAD DUP1 SWAP2 SUB SWAP1 RETURN JUMPDEST PUSH2 0x3B5 PUSH1 0x4 DUP1 CALLDATASIZE SUB DUP2 ADD SWAP1 PUSH2 0x3B0 SWAP2 SWAP1 PUSH2 0x5B43 JUMP JUMPDEST PUSH2 0xA89 JUMP JUMPDEST STOP JUMPDEST PUSH2 0x3BF PUSH2 0xC81 JUMP JUMPDEST PUSH1 0x40 MLOAD PUSH2 0x3CC SWAP2 SWAP1 PUSH2 0x624A JUMP JUMPDEST PUSH1 0x40 MLOAD DUP1 SWAP2 SUB SWAP1 RETURN JUMPDEST PUSH2 0x3EF PUSH1 0x4 DUP1 CALLDATASIZE SUB DUP2 ADD SWAP1 PUSH2 0x3EA SWAP2 SWAP1 PUSH2 0x58B3 JUMP JUMPDEST PUSH2 0xCA7 JUMP JUMPDEST STOP JUMPDEST PUSH2 0x3F9 PUSH2 0x1042 JUMP JUMPDEST PUSH1 0x40 MLOAD PUSH2 0x406 SWAP2 SWAP1 PUSH2 0x655E JUMP JUMPDEST PUSH1 0x40 MLOAD DUP1 SWAP2 SUB SWAP1 RETURN JUMPDEST PUSH2 0x429 PUSH1 0x4 DUP1 CALLDATASIZE SUB DUP2 ADD SWAP1 PUSH2 0x424 SWAP2 SWAP1 PUSH2 0x5D66 JUMP JUMPDEST PUSH2 0x1048 JUMP JUMPDEST STOP JUMPDEST PUSH2 0x433 PUSH2 0x1390 JUMP JUMPDEST PUSH1 0x40 MLOAD PUSH2 0x440 SWAP2 SWAP1 PUSH2 0x655E JUMP JUMPDEST PUSH1 0x40 MLOAD DUP1 SWAP2 SUB SWAP1 RETURN JUMPDEST PUSH2 0x463 PUSH1 0x4 DUP1 CALLDATASIZE SUB DUP2 ADD SWAP1 PUSH2 0x45E SWAP2 SWAP1 PUSH2 0x5B43 JUMP JUMPDEST PUSH2 0x1396 JUMP JUMPDEST PUSH1 0x40 MLOAD PUSH2 0x470 SWAP2 SWAP1 PUSH2 0x622F JUMP JUMPDEST PUSH1 0x40 MLOAD DUP1 SWAP2 SUB SWAP1 RETURN JUMPDEST PUSH2 0x493 PUSH1 0x4 DUP1 CALLDATASIZE SUB DUP2 ADD SWAP1 PUSH2 0x48E SWAP2 SWAP1 PUSH2 0x59CD JUMP JUMPDEST PUSH2 0x144A JUMP JUMPDEST STOP JUMPDEST PUSH2 0x4AF PUSH1 0x4 DUP1 CALLDATASIZE SUB DUP2 ADD SWAP1 PUSH2 0x4AA SWAP2 SWAP1 PUSH2 0x5B43 JUMP JUMPDEST PUSH2 0x1521 JUMP JUMPDEST STOP JUMPDEST PUSH2 0x4B9 PUSH2 0x17E1 JUMP JUMPDEST PUSH1 0x40 MLOAD PUSH2 0x4C6 SWAP2 SWAP1 PUSH2 0x61B4 JUMP JUMPDEST PUSH1 0x40 MLOAD DUP1 SWAP2 SUB SWAP1 RETURN JUMPDEST PUSH2 0x4D7 PUSH2 0x1807 JUMP JUMPDEST PUSH1 0x40 MLOAD PUSH2 0x4E4 SWAP2 SWAP1 PUSH2 0x655E JUMP JUMPDEST PUSH1 0x40 MLOAD DUP1 SWAP2 SUB SWAP1 RETURN JUMPDEST PUSH2 0x4F5 PUSH2 0x180D JUMP JUMPDEST PUSH1 0x40 MLOAD PUSH2 0x502 SWAP2 SWAP1 PUSH2 0x61B4 JUMP JUMPDEST PUSH1 0x40 MLOAD DUP1 SWAP2 SUB SWAP1 RETURN JUMPDEST PUSH2 0x513 PUSH2 0x1833 JUMP JUMPDEST STOP JUMPDEST PUSH2 0x52F PUSH1 0x4 DUP1 CALLDATASIZE SUB DUP2 ADD SWAP1 PUSH2 0x52A SWAP2 SWAP1 PUSH2 0x5CD3 JUMP JUMPDEST PUSH2 0x1A33 JUMP JUMPDEST STOP JUMPDEST PUSH2 0x539 PUSH2 0x1ED7 JUMP JUMPDEST PUSH1 0x40 MLOAD PUSH2 0x546 SWAP2 SWAP1 PUSH2 0x655E JUMP JUMPDEST PUSH1 0x40 MLOAD DUP1 SWAP2 SUB SWAP1 RETURN JUMPDEST PUSH2 0x557 PUSH2 0x1EDD JUMP JUMPDEST PUSH1 0x40 MLOAD PUSH2 0x564 SWAP2 SWAP1 PUSH2 0x655E JUMP JUMPDEST PUSH1 0x40 MLOAD DUP1 SWAP2 SUB SWAP1 RETURN JUMPDEST PUSH2 0x587 PUSH1 0x4 DUP1 CALLDATASIZE SUB DUP2 ADD SWAP1 PUSH2 0x582 SWAP2 SWAP1 PUSH2 0x5B43 JUMP JUMPDEST PUSH2 0x2496 JUMP JUMPDEST STOP JUMPDEST PUSH2 0x591 PUSH2 0x272A JUMP JUMPDEST PUSH1 0x40 MLOAD PUSH2 0x59E SWAP2 SWAP1 PUSH2 0x6543 JUMP JUMPDEST PUSH1 0x40 MLOAD DUP1 SWAP2 SUB SWAP1 RETURN JUMPDEST PUSH2 0x5C1 PUSH1 0x4 DUP1 CALLDATASIZE SUB DUP2 ADD SWAP1 PUSH2 0x5BC SWAP2 SWAP1 PUSH2 0x590D JUMP JUMPDEST PUSH2 0x273E JUMP JUMPDEST PUSH1 0x40 MLOAD PUSH2 0x5CE SWAP2 SWAP1 PUSH2 0x655E JUMP JUMPDEST PUSH1 0x40 MLOAD DUP1 SWAP2 SUB SWAP1 RETURN JUMPDEST PUSH2 0x5F1 PUSH1 0x4 DUP1 CALLDATASIZE SUB DUP2 ADD SWAP1 PUSH2 0x5EC SWAP2 SWAP1 PUSH2 0x5B43 JUMP JUMPDEST PUSH2 0x2A82 JUMP JUMPDEST PUSH1 0x40 MLOAD PUSH2 0x5FE SWAP2 SWAP1 PUSH2 0x655E JUMP JUMPDEST PUSH1 0x40 MLOAD DUP1 SWAP2 SUB SWAP1 RETURN JUMPDEST PUSH2 0x60F PUSH2 0x2C47 JUMP JUMPDEST STOP JUMPDEST PUSH2 0x619 PUSH2 0x2C7A JUMP JUMPDEST PUSH1 0x40 MLOAD PUSH2 0x626 SWAP2 SWAP1 PUSH2 0x655E JUMP JUMPDEST PUSH1 0x40 MLOAD DUP1 SWAP2 SUB SWAP1 RETURN JUMPDEST PUSH2 0x637 PUSH2 0x2C80 JUMP JUMPDEST STOP JUMPDEST PUSH2 0x653 PUSH1 0x4 DUP1 CALLDATASIZE SUB DUP2 ADD SWAP1 PUSH2 0x64E SWAP2 SWAP1 PUSH2 0x5B43 JUMP JUMPDEST PUSH2 0x2C8A JUMP JUMPDEST PUSH1 0x40 MLOAD PUSH2 0x669 SWAP11 SWAP10 SWAP9 SWAP8 SWAP7 SWAP6 SWAP5 SWAP4 SWAP3 SWAP2 SWAP1 PUSH2 0x6265 JUMP JUMPDEST PUSH1 0x40 MLOAD DUP1 SWAP2 SUB SWAP1 RETURN JUMPDEST PUSH2 0x68C PUSH1 0x4 DUP1 CALLDATASIZE SUB DUP2 ADD SWAP1 PUSH2 0x687 SWAP2 SWAP1 PUSH2 0x5B43 JUMP JUMPDEST PUSH2 0x2D49 JUMP JUMPDEST PUSH1 0x40 MLOAD PUSH2 0x699 SWAP2 SWAP1 PUSH2 0x655E JUMP JUMPDEST PUSH1 0x40 MLOAD DUP1 SWAP2 SUB SWAP1 RETURN JUMPDEST PUSH2 0x6AA PUSH2 0x2D6D JUMP JUMPDEST STOP JUMPDEST PUSH2 0x6B4 PUSH2 0x2DF5 JUMP JUMPDEST PUSH1 0x40 MLOAD PUSH2 0x6C1 SWAP2 SWAP1 PUSH2 0x655E JUMP JUMPDEST PUSH1 0x40 MLOAD DUP1 SWAP2 SUB SWAP1 RETURN JUMPDEST PUSH2 0x6E4 PUSH1 0x4 DUP1 CALLDATASIZE SUB DUP2 ADD SWAP1 PUSH2 0x6DF SWAP2 SWAP1 PUSH2 0x5A0D JUMP JUMPDEST PUSH2 0x2DFB JUMP JUMPDEST STOP JUMPDEST PUSH2 0x700 PUSH1 0x4 DUP1 CALLDATASIZE SUB DUP2 ADD SWAP1 PUSH2 0x6FB SWAP2 SWAP1 PUSH2 0x5B9D JUMP JUMPDEST PUSH2 0x3274 JUMP JUMPDEST PUSH1 0x40 MLOAD PUSH2 0x70F SWAP4 SWAP3 SWAP2 SWAP1 PUSH2 0x6610 JUMP JUMPDEST PUSH1 0x40 MLOAD DUP1 SWAP2 SUB SWAP1 RETURN JUMPDEST PUSH2 0x720 PUSH2 0x32AB JUMP JUMPDEST PUSH1 0x40 MLOAD PUSH2 0x72D SWAP2 SWAP1 PUSH2 0x655E JUMP JUMPDEST PUSH1 0x40 MLOAD DUP1 SWAP2 SUB SWAP1 RETURN JUMPDEST PUSH2 0x73E PUSH2 0x32B1 JUMP JUMPDEST PUSH1 0x40 MLOAD PUSH2 0x74B SWAP2 SWAP1 PUSH2 0x61B4 JUMP JUMPDEST PUSH1 0x40 MLOAD DUP1 SWAP2 SUB SWAP1 RETURN JUMPDEST PUSH2 0x76E PUSH1 0x4 DUP1 CALLDATASIZE SUB DUP2 ADD SWAP1 PUSH2 0x769 SWAP2 SWAP1 PUSH2 0x5960 JUMP JUMPDEST PUSH2 0x32DA JUMP JUMPDEST PUSH1 0x40 MLOAD PUSH2 0x77B SWAP2 SWAP1 PUSH2 0x655E JUMP JUMPDEST PUSH1 0x40 MLOAD DUP1 SWAP2 SUB SWAP1 RETURN JUMPDEST PUSH2 0x79E PUSH1 0x4 DUP1 CALLDATASIZE SUB DUP2 ADD SWAP1 PUSH2 0x799 SWAP2 SWAP1 PUSH2 0x5C1D JUMP JUMPDEST PUSH2 0x34B9 JUMP JUMPDEST STOP JUMPDEST PUSH2 0x7A8 PUSH2 0x37D5 JUMP JUMPDEST PUSH1 0x40 MLOAD PUSH2 0x7B5 SWAP2 SWAP1 PUSH2 0x61B4 JUMP JUMPDEST PUSH1 0x40 MLOAD DUP1 SWAP2 SUB SWAP1 RETURN JUMPDEST PUSH2 0x7C6 PUSH2 0x37FF JUMP JUMPDEST PUSH1 0x40 MLOAD PUSH2 0x7D3 SWAP2 SWAP1 PUSH2 0x61B4 JUMP JUMPDEST PUSH1 0x40 MLOAD DUP1 SWAP2 SUB SWAP1 RETURN JUMPDEST PUSH2 0x7E4 PUSH2 0x3825 JUMP JUMPDEST PUSH1 0x40 MLOAD PUSH2 0x7F1 SWAP2 SWAP1 PUSH2 0x655E JUMP JUMPDEST PUSH1 0x40 MLOAD DUP1 SWAP2 SUB SWAP1 RETURN JUMPDEST PUSH2 0x814 PUSH1 0x4 DUP1 CALLDATASIZE SUB DUP2 ADD SWAP1 PUSH2 0x80F SWAP2 SWAP1 PUSH2 0x5A7A JUMP JUMPDEST PUSH2 0x382B JUMP JUMPDEST STOP JUMPDEST PUSH2 0x830 PUSH1 0x4 DUP1 CALLDATASIZE SUB DUP2 ADD SWAP1 PUSH2 0x82B SWAP2 SWAP1 PUSH2 0x5B43 JUMP JUMPDEST PUSH2 0x391F JUMP JUMPDEST PUSH1 0x40 MLOAD PUSH2 0x83D SWAP2 SWAP1 PUSH2 0x655E JUMP JUMPDEST PUSH1 0x40 MLOAD DUP1 SWAP2 SUB SWAP1 RETURN JUMPDEST PUSH2 0x84E PUSH2 0x3A89 JUMP JUMPDEST PUSH1 0x40 MLOAD PUSH2 0x85B SWAP2 SWAP1 PUSH2 0x622F JUMP JUMPDEST PUSH1 0x40 MLOAD DUP1 SWAP2 SUB SWAP1 RETURN JUMPDEST PUSH2 0x87E PUSH1 0x4 DUP1 CALLDATASIZE SUB DUP2 ADD SWAP1 PUSH2 0x879 SWAP2 SWAP1 PUSH2 0x5D13 JUMP JUMPDEST PUSH2 0x3A9C JUMP JUMPDEST STOP JUMPDEST PUSH2 0x89A PUSH1 0x4 DUP1 CALLDATASIZE SUB DUP2 ADD SWAP1 PUSH2 0x895 SWAP2 SWAP1 PUSH2 0x5A7A JUMP JUMPDEST PUSH2 0x3B8D JUMP JUMPDEST STOP JUMPDEST PUSH2 0x8A4 PUSH2 0x3CEF JUMP JUMPDEST PUSH1 0x40 MLOAD PUSH2 0x8B1 SWAP2 SWAP1 PUSH2 0x655E JUMP JUMPDEST PUSH1 0x40 MLOAD DUP1 SWAP2 SUB SWAP1 RETURN JUMPDEST PUSH2 0x8D4 PUSH1 0x4 DUP1 CALLDATASIZE SUB DUP2 ADD SWAP1 PUSH2 0x8CF SWAP2 SWAP1 PUSH2 0x5B43 JUMP JUMPDEST PUSH2 0x3DB3 JUMP JUMPDEST STOP JUMPDEST PUSH2 0x8F0 PUSH1 0x4 DUP1 CALLDATASIZE SUB DUP2 ADD SWAP1 PUSH2 0x8EB SWAP2 SWAP1 PUSH2 0x5BDD JUMP JUMPDEST PUSH2 0x4158 JUMP JUMPDEST PUSH1 0x40 MLOAD PUSH2 0x8FD SWAP2 SWAP1 PUSH2 0x655E JUMP JUMPDEST PUSH1 0x40 MLOAD DUP1 SWAP2 SUB SWAP1 RETURN JUMPDEST PUSH2 0x920 PUSH1 0x4 DUP1 CALLDATASIZE SUB DUP2 ADD SWAP1 PUSH2 0x91B SWAP2 SWAP1 PUSH2 0x58B3 JUMP JUMPDEST PUSH2 0x41EE JUMP JUMPDEST STOP JUMPDEST PUSH2 0x93C PUSH1 0x4 DUP1 CALLDATASIZE SUB DUP2 ADD SWAP1 PUSH2 0x937 SWAP2 SWAP1 PUSH2 0x58B3 JUMP JUMPDEST PUSH2 0x4494 JUMP JUMPDEST PUSH1 0x40 MLOAD PUSH2 0x949 SWAP2 SWAP1 PUSH2 0x622F JUMP JUMPDEST PUSH1 0x40 MLOAD DUP1 SWAP2 SUB SWAP1 RETURN JUMPDEST PUSH2 0x95A PUSH2 0x44B4 JUMP JUMPDEST PUSH1 0x40 MLOAD PUSH2 0x967 SWAP2 SWAP1 PUSH2 0x655E JUMP JUMPDEST PUSH1 0x40 MLOAD DUP1 SWAP2 SUB SWAP1 RETURN JUMPDEST PUSH2 0x98A PUSH1 0x4 DUP1 CALLDATASIZE SUB DUP2 ADD SWAP1 PUSH2 0x985 SWAP2 SWAP1 PUSH2 0x5CD3 JUMP JUMPDEST PUSH2 0x44BA JUMP JUMPDEST STOP JUMPDEST PUSH2 0x9A6 PUSH1 0x4 DUP1 CALLDATASIZE SUB DUP2 ADD SWAP1 PUSH2 0x9A1 SWAP2 SWAP1 PUSH2 0x5A3A JUMP JUMPDEST PUSH2 0x451E JUMP JUMPDEST PUSH1 0x40 MLOAD PUSH2 0x9B3 SWAP2 SWAP1 PUSH2 0x655E JUMP JUMPDEST PUSH1 0x40 MLOAD DUP1 SWAP2 SUB SWAP1 RETURN JUMPDEST PUSH2 0x9D6 PUSH1 0x4 DUP1 CALLDATASIZE SUB DUP2 ADD SWAP1 PUSH2 0x9D1 SWAP2 SWAP1 PUSH2 0x5B9D JUMP JUMPDEST PUSH2 0x459B JUMP JUMPDEST PUSH1 0x40 MLOAD PUSH2 0x9E3 SWAP2 SWAP1 PUSH2 0x655E JUMP JUMPDEST PUSH1 0x40 MLOAD DUP1 SWAP2 SUB SWAP1 RETURN JUMPDEST PUSH2 0x9F4 PUSH2 0x4734 JUMP JUMPDEST PUSH1 0x40 MLOAD PUSH2 0xA01 SWAP2 SWAP1 PUSH2 0x655E JUMP JUMPDEST PUSH1 0x40 MLOAD DUP1 SWAP2 SUB SWAP1 RETURN JUMPDEST PUSH2 0xA24 PUSH1 0x4 DUP1 CALLDATASIZE SUB DUP2 ADD SWAP1 PUSH2 0xA1F SWAP2 SWAP1 PUSH2 0x5B16 JUMP JUMPDEST PUSH2 0x473A JUMP JUMPDEST STOP JUMPDEST PUSH2 0xA40 PUSH1 0x4 DUP1 CALLDATASIZE SUB DUP2 ADD SWAP1 PUSH2 0xA3B SWAP2 SWAP1 PUSH2 0x58B3 JUMP JUMPDEST PUSH2 0x4824 JUMP JUMPDEST STOP JUMPDEST PUSH2 0xA4A PUSH2 0x491C JUMP JUMPDEST STOP JUMPDEST PUSH2 0xA66 PUSH1 0x4 DUP1 CALLDATASIZE SUB DUP2 ADD SWAP1 PUSH2 0xA61 SWAP2 SWAP1 PUSH2 0x5A7A JUMP JUMPDEST PUSH2 0x4A32 JUMP JUMPDEST PUSH1 0x40 MLOAD PUSH2 0xA73 SWAP2 SWAP1 PUSH2 0x655E JUMP JUMPDEST PUSH1 0x40 MLOAD DUP1 SWAP2 SUB SWAP1 RETURN JUMPDEST PUSH1 0x0 PUSH1 0xD DUP1 SLOAD SWAP1 POP SWAP1 POP SWAP1 JUMP JUMPDEST PUSH2 0xA91 PUSH2 0x4AB8 JUMP JUMPDEST PUSH20 0xFFFFFFFFFFFFFFFFFFFFFFFFFFFFFFFFFFFFFFFF AND PUSH2 0xAAF PUSH2 0x32B1 JUMP JUMPDEST PUSH20 0xFFFFFFFFFFFFFFFFFFFFFFFFFFFFFFFFFFFFFFFF AND EQ PUSH2 0xB05 JUMPI PUSH1 0x40 MLOAD PUSH32 0x8C379A000000000000000000000000000000000000000000000000000000000 DUP2 MSTORE PUSH1 0x4 ADD PUSH2 0xAFC SWAP1 PUSH2 0x6443 JUMP JUMPDEST PUSH1 0x40 MLOAD DUP1 SWAP2 SUB SWAP1 REVERT JUMPDEST PUSH1 0x40 MLOAD DUP1 PUSH1 0x40 ADD PUSH1 0x40 MSTORE DUP1 PUSH1 0x12 DUP2 MSTORE PUSH1 0x20 ADD PUSH32 0x757064617465456D697373696F6E526174650000000000000000000000000000 DUP2 MSTORE POP PUSH1 0x2 PUSH1 0x0 SWAP1 SLOAD SWAP1 PUSH2 0x100 EXP SWAP1 DIV PUSH1 0xFF AND ISZERO DUP1 PUSH2 0xBD8 JUMPI POP PUSH1 0x0 PUSH1 0x3 DUP3 PUSH1 0x40 MLOAD PUSH2 0xB64 SWAP2 SWAP1 PUSH2 0x619D JUMP JUMPDEST SWAP1 DUP2 MSTORE PUSH1 0x20 ADD PUSH1 0x40 MLOAD DUP1 SWAP2 SUB SWAP1 KECCAK256 SLOAD EQ ISZERO DUP1 ISZERO PUSH2 0xB9F JUMPI POP TIMESTAMP PUSH1 0x3 DUP3 PUSH1 0x40 MLOAD PUSH2 0xB8D SWAP2 SWAP1 PUSH2 0x619D JUMP JUMPDEST SWAP1 DUP2 MSTORE PUSH1 0x20 ADD PUSH1 0x40 MLOAD DUP1 SWAP2 SUB SWAP1 KECCAK256 SLOAD GT ISZERO JUMPDEST DUP1 ISZERO PUSH2 0xBD7 JUMPI POP TIMESTAMP PUSH3 0x15180 PUSH1 0x3 DUP4 PUSH1 0x40 MLOAD PUSH2 0xBBB SWAP2 SWAP1 PUSH2 0x619D JUMP JUMPDEST SWAP1 DUP2 MSTORE PUSH1 0x20 ADD PUSH1 0x40 MLOAD DUP1 SWAP2 SUB SWAP1 KECCAK256 SLOAD PUSH2 0xBD4 SWAP2 SWAP1 PUSH2 0x66DA JUMP JUMPDEST LT ISZERO JUMPDEST JUMPDEST PUSH2 0xC17 JUMPI PUSH1 0x40 MLOAD PUSH32 0x8C379A000000000000000000000000000000000000000000000000000000000 DUP2 MSTORE PUSH1 0x4 ADD PUSH2 0xC0E SWAP1 PUSH2 0x6483 JUMP JUMPDEST PUSH1 0x40 MLOAD DUP1 SWAP2 SUB SWAP1 REVERT JUMPDEST PUSH2 0xC1F PUSH2 0x2C47 JUMP JUMPDEST DUP2 PUSH1 0x10 DUP2 SWAP1 SSTORE POP CALLER PUSH20 0xFFFFFFFFFFFFFFFFFFFFFFFFFFFFFFFFFFFFFFFF AND PUSH32 0xE2492E003BBE8AFA53088B406F0C1CB5D9E280370FC72A74CF116FFD343C4053 DUP4 PUSH1 0x40 MLOAD PUSH2 0xC6C SWAP2 SWAP1 PUSH2 0x655E JUMP JUMPDEST PUSH1 0x40 MLOAD DUP1 SWAP2 SUB SWAP1 LOG2 PUSH2 0xC7D DUP2 PUSH2 0x382B JUMP JUMPDEST POP POP JUMP JUMPDEST PUSH1 0x5 PUSH1 0x0 SWAP1 SLOAD SWAP1 PUSH2 0x100 EXP SWAP1 DIV PUSH20 0xFFFFFFFFFFFFFFFFFFFFFFFFFFFFFFFFFFFFFFFF AND DUP2 JUMP JUMPDEST CALLER PUSH20 0xFFFFFFFFFFFFFFFFFFFFFFFFFFFFFFFFFFFFFFFF AND PUSH2 0xCC6 PUSH2 0x32B1 JUMP JUMPDEST PUSH20 0xFFFFFFFFFFFFFFFFFFFFFFFFFFFFFFFFFFFFFFFF AND EQ DUP1 PUSH2 0xD35 JUMPI POP CALLER PUSH20 0xFFFFFFFFFFFFFFFFFFFFFFFFFFFFFFFFFFFFFFFF AND PUSH1 0x4 PUSH1 0x0 SWAP1 SLOAD SWAP1 PUSH2 0x100 EXP SWAP1 DIV PUSH20 0xFFFFFFFFFFFFFFFFFFFFFFFFFFFFFFFFFFFFFFFF AND PUSH20 0xFFFFFFFFFFFFFFFFFFFFFFFFFFFFFFFFFFFFFFFF AND EQ JUMPDEST PUSH2 0xD74 JUMPI PUSH1 0x40 MLOAD PUSH32 0x8C379A000000000000000000000000000000000000000000000000000000000 DUP2 MSTORE PUSH1 0x4 ADD PUSH2 0xD6B SWAP1 PUSH2 0x64A3 JUMP JUMPDEST PUSH1 0x40 MLOAD DUP1 SWAP2 SUB SWAP1 REVERT JUMPDEST PUSH1 0x40 MLOAD DUP1 PUSH1 0x40 ADD PUSH1 0x40 MSTORE DUP1 PUSH1 0xA DUP2 MSTORE PUSH1 0x20 ADD PUSH32 0x6D61696E7461696E657200000000000000000000000000000000000000000000 DUP2 MSTORE POP PUSH1 0x2 PUSH1 0x0 SWAP1 SLOAD SWAP1 PUSH2 0x100 EXP SWAP1 DIV PUSH1 0xFF AND ISZERO DUP1 PUSH2 0xE47 JUMPI POP PUSH1 0x0 PUSH1 0x3 DUP3 PUSH1 0x40 MLOAD PUSH2 0xDD3 SWAP2 SWAP1 PUSH2 0x619D JUMP JUMPDEST SWAP1 DUP2 MSTORE PUSH1 0x20 ADD PUSH1 0x40 MLOAD DUP1 SWAP2 SUB SWAP1 KECCAK256 SLOAD EQ ISZERO DUP1 ISZERO PUSH2 0xE0E JUMPI POP TIMESTAMP PUSH1 0x3 DUP3 PUSH1 0x40 MLOAD PUSH2 0xDFC SWAP2 SWAP1 PUSH2 0x619D JUMP JUMPDEST SWAP1 DUP2 MSTORE PUSH1 0x20 ADD PUSH1 0x40 MLOAD DUP1 SWAP2 SUB SWAP1 KECCAK256 SLOAD GT ISZERO JUMPDEST DUP1 ISZERO PUSH2 0xE46 JUMPI POP TIMESTAMP PUSH3 0x15180 PUSH1 0x3 DUP4 PUSH1 0x40 MLOAD PUSH2 0xE2A SWAP2 SWAP1 PUSH2 0x619D JUMP JUMPDEST SWAP1 DUP2 MSTORE PUSH1 0x20 ADD PUSH1 0x40 MLOAD DUP1 SWAP2 SUB SWAP1 KECCAK256 SLOAD PUSH2 0xE43 SWAP2 SWAP1 PUSH2 0x66DA JUMP JUMPDEST LT ISZERO JUMPDEST JUMPDEST PUSH2 0xE86 JUMPI PUSH1 0x40 MLOAD PUSH32 0x8C379A000000000000000000000000000000000000000000000000000000000 DUP2 MSTORE PUSH1 0x4 ADD PUSH2 0xE7D SWAP1 PUSH2 0x6483 JUMP JUMPDEST PUSH1 0x40 MLOAD DUP1 SWAP2 SUB SWAP1 REVERT JUMPDEST PUSH1 0x4 PUSH1 0x0 SWAP1 SLOAD SWAP1 PUSH2 0x100 EXP SWAP1 DIV PUSH20 0xFFFFFFFFFFFFFFFFFFFFFFFFFFFFFFFFFFFFFFFF AND PUSH20 0xFFFFFFFFFFFFFFFFFFFFFFFFFFFFFFFFFFFFFFFF AND DUP3 PUSH20 0xFFFFFFFFFFFFFFFFFFFFFFFFFFFFFFFFFFFFFFFF AND EQ ISZERO DUP1 ISZERO PUSH2 0xF11 JUMPI POP PUSH1 0x0 PUSH20 0xFFFFFFFFFFFFFFFFFFFFFFFFFFFFFFFFFFFFFFFF AND DUP3 PUSH20 0xFFFFFFFFFFFFFFFFFFFFFFFFFFFFFFFFFFFFFFFF AND EQ ISZERO JUMPDEST PUSH2 0xF50 JUMPI PUSH1 0x40 MLOAD PUSH32 0x8C379A000000000000000000000000000000000000000000000000000000000 DUP2 MSTORE PUSH1 0x4 ADD PUSH2 0xF47 SWAP1 PUSH2 0x6403 JUMP JUMPDEST PUSH1 0x40 MLOAD DUP1 SWAP2 SUB SWAP1 REVERT JUMPDEST PUSH1 0x0 PUSH1 0x4 PUSH1 0x0 SWAP1 SLOAD SWAP1 PUSH2 0x100 EXP SWAP1 DIV PUSH20 0xFFFFFFFFFFFFFFFFFFFFFFFFFFFFFFFFFFFFFFFF AND SWAP1 POP DUP3 PUSH1 0x4 PUSH1 0x0 PUSH2 0x100 EXP DUP2 SLOAD DUP2 PUSH20 0xFFFFFFFFFFFFFFFFFFFFFFFFFFFFFFFFFFFFFFFF MUL NOT AND SWAP1 DUP4 PUSH20 0xFFFFFFFFFFFFFFFFFFFFFFFFFFFFFFFFFFFFFFFF AND MUL OR SWAP1 SSTORE POP PUSH1 0x4 PUSH1 0x0 SWAP1 SLOAD SWAP1 PUSH2 0x100 EXP SWAP1 DIV PUSH20 0xFFFFFFFFFFFFFFFFFFFFFFFFFFFFFFFFFFFFFFFF AND PUSH20 0xFFFFFFFFFFFFFFFFFFFFFFFFFFFFFFFFFFFFFFFF AND DUP2 PUSH20 0xFFFFFFFFFFFFFFFFFFFFFFFFFFFFFFFFFFFFFFFF AND PUSH32 0x2F3FFAAAAD93928855C8700645D1A3643E6CCFDD500EFA9FDA048A88F557CF01 PUSH1 0x40 MLOAD PUSH1 0x40 MLOAD DUP1 SWAP2 SUB SWAP1 LOG3 POP PUSH2 0x103E DUP2 PUSH2 0x382B JUMP JUMPDEST POP POP JUMP JUMPDEST PUSH1 0x12 SLOAD DUP2 JUMP JUMPDEST PUSH2 0x1050 PUSH2 0x4AB8 JUMP JUMPDEST PUSH20 0xFFFFFFFFFFFFFFFFFFFFFFFFFFFFFFFFFFFFFFFF AND PUSH2 0x106E PUSH2 0x32B1 JUMP JUMPDEST PUSH20 0xFFFFFFFFFFFFFFFFFFFFFFFFFFFFFFFFFFFFFFFF AND EQ PUSH2 0x10C4 JUMPI PUSH1 0x40 MLOAD PUSH32 0x8C379A000000000000000000000000000000000000000000000000000000000 DUP2 MSTORE PUSH1 0x4 ADD PUSH2 0x10BB SWAP1 PUSH2 0x6443 JUMP JUMPDEST PUSH1 0x40 MLOAD DUP1 SWAP2 SUB SWAP1 REVERT JUMPDEST PUSH1 0x40 MLOAD DUP1 PUSH1 0x40 ADD PUSH1 0x40 MSTORE DUP1 PUSH1 0x10 DUP2 MSTORE PUSH1 0x20 ADD PUSH32 0x736574506F6F6C5661726961626C657300000000000000000000000000000000 DUP2 MSTORE POP PUSH1 0x2 PUSH1 0x0 SWAP1 SLOAD SWAP1 PUSH2 0x100 EXP SWAP1 DIV PUSH1 0xFF AND ISZERO DUP1 PUSH2 0x1197 JUMPI POP PUSH1 0x0 PUSH1 0x3 DUP3 PUSH1 0x40 MLOAD PUSH2 0x1123 SWAP2 SWAP1 PUSH2 0x619D JUMP JUMPDEST SWAP1 DUP2 MSTORE PUSH1 0x20 ADD PUSH1 0x40 MLOAD DUP1 SWAP2 SUB SWAP1 KECCAK256 SLOAD EQ ISZERO DUP1 ISZERO PUSH2 0x115E JUMPI POP TIMESTAMP PUSH1 0x3 DUP3 PUSH1 0x40 MLOAD PUSH2 0x114C SWAP2 SWAP1 PUSH2 0x619D JUMP JUMPDEST SWAP1 DUP2 MSTORE PUSH1 0x20 ADD PUSH1 0x40 MLOAD DUP1 SWAP2 SUB SWAP1 KECCAK256 SLOAD GT ISZERO JUMPDEST DUP1 ISZERO PUSH2 0x1196 JUMPI POP TIMESTAMP PUSH3 0x15180 PUSH1 0x3 DUP4 PUSH1 0x40 MLOAD PUSH2 0x117A SWAP2 SWAP1 PUSH2 0x619D JUMP JUMPDEST SWAP1 DUP2 MSTORE PUSH1 0x20 ADD PUSH1 0x40 MLOAD DUP1 SWAP2 SUB SWAP1 KECCAK256 SLOAD PUSH2 0x1193 SWAP2 SWAP1 PUSH2 0x66DA JUMP JUMPDEST LT ISZERO JUMPDEST JUMPDEST PUSH2 0x11D6 JUMPI PUSH1 0x40 MLOAD PUSH32 0x8C379A000000000000000000000000000000000000000000000000000000000 DUP2 MSTORE PUSH1 0x4 ADD PUSH2 0x11CD SWAP1 PUSH2 0x6483 JUMP JUMPDEST PUSH1 0x40 MLOAD DUP1 SWAP2 SUB SWAP1 REVERT JUMPDEST PUSH2 0x3E8 DUP6 PUSH2 0xFFFF AND GT ISZERO PUSH2 0x121F JUMPI PUSH1 0x40 MLOAD PUSH32 0x8C379A000000000000000000000000000000000000000000000000000000000 DUP2 MSTORE PUSH1 0x4 ADD PUSH2 0x1216 SWAP1 PUSH2 0x6523 JUMP JUMPDEST PUSH1 0x40 MLOAD DUP1 SWAP2 SUB SWAP1 REVERT JUMPDEST DUP2 ISZERO PUSH2 0x122E JUMPI PUSH2 0x122D PUSH2 0x2C47 JUMP JUMPDEST JUMPDEST PUSH2 0x127A DUP7 PUSH2 0x126C PUSH1 0xD DUP11 DUP2 SLOAD DUP2 LT PUSH2 0x1249 JUMPI PUSH2 0x1248 PUSH2 0x6DC8 JUMP JUMPDEST JUMPDEST SWAP1 PUSH1 0x0 MSTORE PUSH1 0x20 PUSH1 0x0 KECCAK256 SWAP1 PUSH1 0xA MUL ADD PUSH1 0x2 ADD SLOAD PUSH1 0x12 SLOAD PUSH2 0x4A76 SWAP1 SWAP2 SWAP1 PUSH4 0xFFFFFFFF AND JUMP JUMPDEST PUSH2 0x4A60 SWAP1 SWAP2 SWAP1 PUSH4 0xFFFFFFFF AND JUMP JUMPDEST PUSH1 0x12 DUP2 SWAP1 SSTORE POP DUP6 PUSH1 0xD DUP9 DUP2 SLOAD DUP2 LT PUSH2 0x1295 JUMPI PUSH2 0x1294 PUSH2 0x6DC8 JUMP JUMPDEST JUMPDEST SWAP1 PUSH1 0x0 MSTORE PUSH1 0x20 PUSH1 0x0 KECCAK256 SWAP1 PUSH1 0xA MUL ADD PUSH1 0x2 ADD DUP2 SWAP1 SSTORE POP DUP5 PUSH1 0xD DUP9 DUP2 SLOAD DUP2 LT PUSH2 0x12BF JUMPI PUSH2 0x12BE PUSH2 0x6DC8 JUMP JUMPDEST JUMPDEST SWAP1 PUSH1 0x0 MSTORE PUSH1 0x20 PUSH1 0x0 KECCAK256 SWAP1 PUSH1 0xA MUL ADD PUSH1 0x5 ADD PUSH1 0x0 PUSH2 0x100 EXP DUP2 SLOAD DUP2 PUSH2 0xFFFF MUL NOT AND SWAP1 DUP4 PUSH2 0xFFFF AND MUL OR SWAP1 SSTORE POP DUP4 PUSH1 0xD DUP9 DUP2 SLOAD DUP2 LT PUSH2 0x12FF JUMPI PUSH2 0x12FE PUSH2 0x6DC8 JUMP JUMPDEST JUMPDEST SWAP1 PUSH1 0x0 MSTORE PUSH1 0x20 PUSH1 0x0 KECCAK256 SWAP1 PUSH1 0xA MUL ADD PUSH1 0x8 ADD DUP2 SWAP1 SSTORE POP DUP3 PUSH1 0xD DUP9 DUP2 SLOAD DUP2 LT PUSH2 0x1329 JUMPI PUSH2 0x1328 PUSH2 0x6DC8 JUMP JUMPDEST JUMPDEST SWAP1 PUSH1 0x0 MSTORE PUSH1 0x20 PUSH1 0x0 KECCAK256 SWAP1 PUSH1 0xA MUL ADD PUSH1 0x9 ADD PUSH1 0x0 PUSH2 0x100 EXP DUP2 SLOAD DUP2 PUSH1 0xFF MUL NOT AND SWAP1 DUP4 ISZERO ISZERO MUL OR SWAP1 SSTORE POP DUP7 PUSH32 0xA844E7199A9E0826E5C245ADCD2D35F2F100069597A3E7512AFE58F772C4ECA9 PUSH1 0x40 MLOAD PUSH1 0x40 MLOAD DUP1 SWAP2 SUB SWAP1 LOG2 PUSH2 0x1387 DUP2 PUSH2 0x382B JUMP JUMPDEST POP POP POP POP POP POP POP JUMP JUMPDEST PUSH1 0x8 SLOAD DUP2 JUMP JUMPDEST PUSH1 0x0 PUSH1 0x5 PUSH1 0x0 SWAP1 SLOAD SWAP1 PUSH2 0x100 EXP SWAP1 DIV PUSH20 0xFFFFFFFFFFFFFFFFFFFFFFFFFFFFFFFFFFFFFFFF AND PUSH20 0xFFFFFFFFFFFFFFFFFFFFFFFFFFFFFFFFFFFFFFFF AND PUSH4 0x69372B30 DUP4 PUSH1 0x40 MLOAD DUP3 PUSH4 0xFFFFFFFF AND PUSH1 0xE0 SHL DUP2 MSTORE PUSH1 0x4 ADD PUSH2 0x13F3 SWAP2 SWAP1 PUSH2 0x655E JUMP JUMPDEST PUSH1 0x20 PUSH1 0x40 MLOAD DUP1 DUP4 SUB DUP2 DUP7 DUP1 EXTCODESIZE ISZERO DUP1 ISZERO PUSH2 0x140B JUMPI PUSH1 0x0 DUP1 REVERT JUMPDEST POP GAS STATICCALL ISZERO DUP1 ISZERO PUSH2 0x141F JUMPI RETURNDATASIZE PUSH1 0x0 DUP1 RETURNDATACOPY RETURNDATASIZE PUSH1 0x0 REVERT JUMPDEST POP POP POP POP PUSH1 0x40 MLOAD RETURNDATASIZE PUSH1 0x1F NOT PUSH1 0x1F DUP3 ADD AND DUP3 ADD DUP1 PUSH1 0x40 MSTORE POP DUP2 ADD SWAP1 PUSH2 0x1443 SWAP2 SWAP1 PUSH2 0x59A0 JUMP JUMPDEST SWAP1 POP SWAP2 SWAP1 POP JUMP JUMPDEST PUSH2 0x1452 PUSH2 0x4AB8 JUMP JUMPDEST PUSH20 0xFFFFFFFFFFFFFFFFFFFFFFFFFFFFFFFFFFFFFFFF AND PUSH2 0x1470 PUSH2 0x32B1 JUMP JUMPDEST PUSH20 0xFFFFFFFFFFFFFFFFFFFFFFFFFFFFFFFFFFFFFFFF AND EQ PUSH2 0x14C6 JUMPI PUSH1 0x40 MLOAD PUSH32 0x8C379A000000000000000000000000000000000000000000000000000000000 DUP2 MSTORE PUSH1 0x4 ADD PUSH2 0x14BD SWAP1 PUSH2 0x6443 JUMP JUMPDEST PUSH1 0x40 MLOAD DUP1 SWAP2 SUB SWAP1 REVERT JUMPDEST DUP2 PUSH1 0x17 PUSH1 0x0 DUP4 PUSH20 0xFFFFFFFFFFFFFFFFFFFFFFFFFFFFFFFFFFFFFFFF AND PUSH20 0xFFFFFFFFFFFFFFFFFFFFFFFFFFFFFFFFFFFFFFFF AND DUP2 MSTORE PUSH1 0x20 ADD SWAP1 DUP2 MSTORE PUSH1 0x20 ADD PUSH1 0x0 KECCAK256 PUSH1 0x0 PUSH2 0x100 EXP DUP2 SLOAD DUP2 PUSH1 0xFF MUL NOT AND SWAP1 DUP4 ISZERO ISZERO MUL OR SWAP1 SSTORE POP POP POP JUMP JUMPDEST PUSH1 0x2 PUSH1 0x1 SLOAD EQ ISZERO PUSH2 0x1567 JUMPI PUSH1 0x40 MLOAD PUSH32 0x8C379A000000000000000000000000000000000000000000000000000000000 DUP2 MSTORE PUSH1 0x4 ADD PUSH2 0x155E SWAP1 PUSH2 0x6503 JUMP JUMPDEST PUSH1 0x40 MLOAD DUP1 SWAP2 SUB SWAP1 REVERT JUMPDEST PUSH1 0x2 PUSH1 0x1 DUP2 SWAP1 SSTORE POP PUSH1 0x0 PUSH1 0xD DUP3 DUP2 SLOAD DUP2 LT PUSH2 0x1585 JUMPI PUSH2 0x1584 PUSH2 0x6DC8 JUMP JUMPDEST JUMPDEST SWAP1 PUSH1 0x0 MSTORE PUSH1 0x20 PUSH1 0x0 KECCAK256 SWAP1 PUSH1 0xA MUL ADD SWAP1 POP PUSH1 0x0 PUSH1 0xC PUSH1 0x0 DUP5 DUP2 MSTORE PUSH1 0x20 ADD SWAP1 DUP2 MSTORE PUSH1 0x20 ADD PUSH1 0x0 KECCAK256 PUSH1 0x0 CALLER PUSH20 0xFFFFFFFFFFFFFFFFFFFFFFFFFFFFFFFFFFFFFFFF AND PUSH20 0xFFFFFFFFFFFFFFFFFFFFFFFFFFFFFFFFFFFFFFFF AND DUP2 MSTORE PUSH1 0x20 ADD SWAP1 DUP2 MSTORE PUSH1 0x20 ADD PUSH1 0x0 KECCAK256 SWAP1 POP PUSH2 0x15F2 DUP4 PUSH2 0x2496 JUMP JUMPDEST PUSH1 0x0 PUSH2 0x163C DUP3 PUSH1 0x1 ADD SLOAD PUSH2 0x162E PUSH5 0xE8D4A51000 PUSH2 0x1620 DUP8 PUSH1 0x4 ADD SLOAD DUP8 PUSH1 0x0 ADD SLOAD PUSH2 0x4A8C SWAP1 SWAP2 SWAP1 PUSH4 0xFFFFFFFF AND JUMP JUMPDEST PUSH2 0x4AA2 SWAP1 SWAP2 SWAP1 PUSH4 0xFFFFFFFF AND JUMP JUMPDEST PUSH2 0x4A76 SWAP1 SWAP2 SWAP1 PUSH4 0xFFFFFFFF AND JUMP JUMPDEST SWAP1 POP PUSH1 0x0 DUP2 GT ISZERO PUSH2 0x16A1 JUMPI PUSH2 0x1651 CALLER DUP3 PUSH2 0x4AC0 JUMP JUMPDEST DUP4 CALLER PUSH20 0xFFFFFFFFFFFFFFFFFFFFFFFFFFFFFFFFFFFFFFFF AND PUSH32 0x34FCBAC0073D7C3D388E51312FAF357774904998EEB8FCA628B9E6F65EE1CBF7 DUP4 PUSH1 0x40 MLOAD PUSH2 0x1698 SWAP2 SWAP1 PUSH2 0x655E JUMP JUMPDEST PUSH1 0x40 MLOAD DUP1 SWAP2 SUB SWAP1 LOG3 JUMPDEST PUSH1 0x0 PUSH20 0xFFFFFFFFFFFFFFFFFFFFFFFFFFFFFFFFFFFFFFFF AND DUP4 PUSH1 0x0 ADD PUSH1 0x0 SWAP1 SLOAD SWAP1 PUSH2 0x100 EXP SWAP1 DIV PUSH20 0xFFFFFFFFFFFFFFFFFFFFFFFFFFFFFFFFFFFFFFFF AND PUSH20 0xFFFFFFFFFFFFFFFFFFFFFFFFFFFFFFFFFFFFFFFF AND EQ PUSH2 0x1792 JUMPI DUP3 PUSH1 0x0 ADD PUSH1 0x0 SWAP1 SLOAD SWAP1 PUSH2 0x100 EXP SWAP1 DIV PUSH20 0xFFFFFFFFFFFFFFFFFFFFFFFFFFFFFFFFFFFFFFFF AND PUSH20 0xFFFFFFFFFFFFFFFFFFFFFFFFFFFFFFFFFFFFFFFF AND PUSH4 0xAD58D2F DUP5 PUSH1 0x7 ADD SLOAD PUSH1 0x0 CALLER PUSH1 0x40 MLOAD DUP5 PUSH4 0xFFFFFFFF AND PUSH1 0xE0 SHL DUP2 MSTORE PUSH1 0x4 ADD PUSH2 0x175F SWAP4 SWAP3 SWAP2 SWAP1 PUSH2 0x6579 JUMP JUMPDEST PUSH1 0x0 PUSH1 0x40 MLOAD DUP1 DUP4 SUB DUP2 PUSH1 0x0 DUP8 DUP1 EXTCODESIZE ISZERO DUP1 ISZERO PUSH2 0x1779 JUMPI PUSH1 0x0 DUP1 REVERT JUMPDEST POP GAS CALL ISZERO DUP1 ISZERO PUSH2 0x178D JUMPI RETURNDATASIZE PUSH1 0x0 DUP1 RETURNDATACOPY RETURNDATASIZE PUSH1 0x0 REVERT JUMPDEST POP POP POP POP JUMPDEST PUSH2 0x17C4 PUSH5 0xE8D4A51000 PUSH2 0x17B6 DUP6 PUSH1 0x4 ADD SLOAD DUP6 PUSH1 0x0 ADD SLOAD PUSH2 0x4A8C SWAP1 SWAP2 SWAP1 PUSH4 0xFFFFFFFF AND JUMP JUMPDEST PUSH2 0x4AA2 SWAP1 SWAP2 SWAP1 PUSH4 0xFFFFFFFF AND JUMP JUMPDEST DUP3 PUSH1 0x1 ADD DUP2 SWAP1 SSTORE POP PUSH2 0x17D4 PUSH2 0x1833 JUMP JUMPDEST POP POP POP PUSH1 0x1 DUP1 DUP2 SWAP1 SSTORE POP POP JUMP JUMPDEST PUSH1 0xE PUSH1 0x0 SWAP1 SLOAD SWAP1 PUSH2 0x100 EXP SWAP1 DIV PUSH20 0xFFFFFFFFFFFFFFFFFFFFFFFFFFFFFFFFFFFFFFFF AND DUP2 JUMP JUMPDEST PUSH1 0x15 SLOAD DUP2 JUMP JUMPDEST PUSH1 0xF PUSH1 0x0 SWAP1 SLOAD SWAP1 PUSH2 0x100 EXP SWAP1 DIV PUSH20 0xFFFFFFFFFFFFFFFFFFFFFFFFFFFFFFFFFFFFFFFF AND DUP2 JUMP JUMPDEST PUSH1 0x0 PUSH20 0xFFFFFFFFFFFFFFFFFFFFFFFFFFFFFFFFFFFFFFFF AND PUSH1 0x5 PUSH1 0x0 SWAP1 SLOAD SWAP1 PUSH2 0x100 EXP SWAP1 DIV PUSH20 0xFFFFFFFFFFFFFFFFFFFFFFFFFFFFFFFFFFFFFFFF AND PUSH20 0xFFFFFFFFFFFFFFFFFFFFFFFFFFFFFFFFFFFFFFFF AND EQ DUP1 PUSH2 0x195B JUMPI POP PUSH1 0x0 PUSH20 0xFFFFFFFFFFFFFFFFFFFFFFFFFFFFFFFFFFFFFFFF AND PUSH1 0x5 PUSH1 0x0 SWAP1 SLOAD SWAP1 PUSH2 0x100 EXP SWAP1 DIV PUSH20 0xFFFFFFFFFFFFFFFFFFFFFFFFFFFFFFFFFFFFFFFF AND PUSH20 0xFFFFFFFFFFFFFFFFFFFFFFFFFFFFFFFFFFFFFFFF AND PUSH4 0x808A5457 PUSH1 0x40 MLOAD DUP2 PUSH4 0xFFFFFFFF AND PUSH1 0xE0 SHL DUP2 MSTORE PUSH1 0x4 ADD PUSH1 0x20 PUSH1 0x40 MLOAD DUP1 DUP4 SUB DUP2 DUP7 DUP1 EXTCODESIZE ISZERO DUP1 ISZERO PUSH2 0x190B JUMPI PUSH1 0x0 DUP1 REVERT JUMPDEST POP GAS STATICCALL ISZERO DUP1 ISZERO PUSH2 0x191F JUMPI RETURNDATASIZE PUSH1 0x0 DUP1 RETURNDATACOPY RETURNDATASIZE PUSH1 0x0 REVERT JUMPDEST POP POP POP POP PUSH1 0x40 MLOAD RETURNDATASIZE PUSH1 0x1F NOT PUSH1 0x1F DUP3 ADD AND DUP3 ADD DUP1 PUSH1 0x40 MSTORE POP DUP2 ADD SWAP1 PUSH2 0x1943 SWAP2 SWAP1 PUSH2 0x58E0 JUMP JUMPDEST PUSH20 0xFFFFFFFFFFFFFFFFFFFFFFFFFFFFFFFFFFFFFFFF AND EQ JUMPDEST ISZERO PUSH2 0x1965 JUMPI PUSH2 0x1A31 JUMP JUMPDEST PUSH2 0xE10 TIMESTAMP PUSH2 0x1973 SWAP2 SWAP1 PUSH2 0x6B41 JUMP JUMPDEST PUSH1 0x9 SLOAD LT ISZERO PUSH2 0x19CA JUMPI PUSH1 0x0 PUSH2 0x1986 PUSH2 0x1EDD JUMP JUMPDEST SWAP1 POP DUP1 PUSH1 0x7 PUSH1 0x8 PUSH1 0x0 DUP2 SLOAD DUP1 SWAP3 SWAP2 SWAP1 PUSH2 0x199E SWAP1 PUSH2 0x6D21 JUMP JUMPDEST SWAP2 SWAP1 POP SSTORE DUP2 SLOAD DUP2 LT PUSH2 0x19B3 JUMPI PUSH2 0x19B2 PUSH2 0x6DC8 JUMP JUMPDEST JUMPDEST SWAP1 PUSH1 0x0 MSTORE PUSH1 0x20 PUSH1 0x0 KECCAK256 ADD DUP2 SWAP1 SSTORE POP TIMESTAMP PUSH1 0x9 DUP2 SWAP1 SSTORE POP POP JUMPDEST PUSH3 0x15180 TIMESTAMP PUSH2 0x19D9 SWAP2 SWAP1 PUSH2 0x6B41 JUMP JUMPDEST PUSH1 0x14 SLOAD LT DUP1 ISZERO PUSH2 0x19EB JUMPI POP PUSH1 0x2 PUSH1 0x8 SLOAD GT JUMPDEST ISZERO PUSH2 0x1A30 JUMPI PUSH1 0x0 PUSH2 0x19FA PUSH2 0x3CEF JUMP JUMPDEST SWAP1 POP TIMESTAMP PUSH1 0x14 DUP2 SWAP1 SSTORE POP PUSH1 0x0 PUSH1 0x8 DUP2 SWAP1 SSTORE POP PUSH1 0x0 DUP1 PUSH1 0xA SLOAD EQ ISZERO SWAP1 POP PUSH2 0x1A1E DUP3 PUSH2 0x4BF2 JUMP JUMPDEST DUP1 ISZERO PUSH2 0x1A2D JUMPI PUSH2 0x1A2C PUSH2 0x4C37 JUMP JUMPDEST JUMPDEST POP POP JUMPDEST JUMPDEST JUMP JUMPDEST PUSH1 0x2 PUSH1 0x1 SLOAD EQ ISZERO PUSH2 0x1A79 JUMPI PUSH1 0x40 MLOAD PUSH32 0x8C379A000000000000000000000000000000000000000000000000000000000 DUP2 MSTORE PUSH1 0x4 ADD PUSH2 0x1A70 SWAP1 PUSH2 0x6503 JUMP JUMPDEST PUSH1 0x40 MLOAD DUP1 SWAP2 SUB SWAP1 REVERT JUMPDEST PUSH1 0x2 PUSH1 0x1 DUP2 SWAP1 SSTORE POP PUSH1 0x0 PUSH1 0xD DUP4 DUP2 SLOAD DUP2 LT PUSH2 0x1A97 JUMPI PUSH2 0x1A96 PUSH2 0x6DC8 JUMP JUMPDEST JUMPDEST SWAP1 PUSH1 0x0 MSTORE PUSH1 0x20 PUSH1 0x0 KECCAK256 SWAP1 PUSH1 0xA MUL ADD SWAP1 POP PUSH1 0x0 PUSH1 0xC PUSH1 0x0 DUP6 DUP2 MSTORE PUSH1 0x20 ADD SWAP1 DUP2 MSTORE PUSH1 0x20 ADD PUSH1 0x0 KECCAK256 PUSH1 0x0 CALLER PUSH20 0xFFFFFFFFFFFFFFFFFFFFFFFFFFFFFFFFFFFFFFFF AND PUSH20 0xFFFFFFFFFFFFFFFFFFFFFFFFFFFFFFFFFFFFFFFF AND DUP2 MSTORE PUSH1 0x20 ADD SWAP1 DUP2 MSTORE PUSH1 0x20 ADD PUSH1 0x0 KECCAK256 SWAP1 POP DUP3 DUP2 PUSH1 0x0 ADD SLOAD LT ISZERO PUSH2 0x1B42 JUMPI PUSH1 0x40 MLOAD PUSH32 0x8C379A000000000000000000000000000000000000000000000000000000000 DUP2 MSTORE PUSH1 0x4 ADD PUSH2 0x1B39 SWAP1 PUSH2 0x6323 JUMP JUMPDEST PUSH1 0x40 MLOAD DUP1 SWAP2 SUB SWAP1 REVERT JUMPDEST PUSH2 0x1B4B DUP5 PUSH2 0x2496 JUMP JUMPDEST PUSH1 0x0 PUSH2 0x1B95 DUP3 PUSH1 0x1 ADD SLOAD PUSH2 0x1B87 PUSH5 0xE8D4A51000 PUSH2 0x1B79 DUP8 PUSH1 0x4 ADD SLOAD DUP8 PUSH1 0x0 ADD SLOAD PUSH2 0x4A8C SWAP1 SWAP2 SWAP1 PUSH4 0xFFFFFFFF AND JUMP JUMPDEST PUSH2 0x4AA2 SWAP1 SWAP2 SWAP1 PUSH4 0xFFFFFFFF AND JUMP JUMPDEST PUSH2 0x4A76 SWAP1 SWAP2 SWAP1 PUSH4 0xFFFFFFFF AND JUMP JUMPDEST SWAP1 POP PUSH1 0x0 DUP2 GT ISZERO PUSH2 0x1BAB JUMPI PUSH2 0x1BAA CALLER DUP3 PUSH2 0x4AC0 JUMP JUMPDEST JUMPDEST PUSH1 0x0 DUP5 GT ISZERO PUSH2 0x1DA2 JUMPI TIMESTAMP PUSH2 0x1BDE PUSH3 0x15180 DUP6 PUSH1 0x8 ADD SLOAD PUSH2 0x1BCB SWAP2 SWAP1 PUSH2 0x6A53 JUMP JUMPDEST DUP5 PUSH1 0x2 ADD SLOAD PUSH2 0x4A60 SWAP1 SWAP2 SWAP1 PUSH4 0xFFFFFFFF AND JUMP JUMPDEST GT ISZERO PUSH2 0x1C1F JUMPI PUSH1 0x40 MLOAD PUSH32 0x8C379A000000000000000000000000000000000000000000000000000000000 DUP2 MSTORE PUSH1 0x4 ADD PUSH2 0x1C16 SWAP1 PUSH2 0x63A3 JUMP JUMPDEST PUSH1 0x40 MLOAD DUP1 SWAP2 SUB SWAP1 REVERT JUMPDEST PUSH2 0x1C36 DUP5 DUP4 PUSH1 0x0 ADD SLOAD PUSH2 0x4A76 SWAP1 SWAP2 SWAP1 PUSH4 0xFFFFFFFF AND JUMP JUMPDEST DUP3 PUSH1 0x0 ADD DUP2 SWAP1 SSTORE POP PUSH1 0x0 PUSH20 0xFFFFFFFFFFFFFFFFFFFFFFFFFFFFFFFFFFFFFFFF AND DUP4 PUSH1 0x0 ADD PUSH1 0x0 SWAP1 SLOAD SWAP1 PUSH2 0x100 EXP SWAP1 DIV PUSH20 0xFFFFFFFFFFFFFFFFFFFFFFFFFFFFFFFFFFFFFFFF AND PUSH20 0xFFFFFFFFFFFFFFFFFFFFFFFFFFFFFFFFFFFFFFFF AND EQ PUSH2 0x1D32 JUMPI DUP3 PUSH1 0x0 ADD PUSH1 0x0 SWAP1 SLOAD SWAP1 PUSH2 0x100 EXP SWAP1 DIV PUSH20 0xFFFFFFFFFFFFFFFFFFFFFFFFFFFFFFFFFFFFFFFF AND PUSH20 0xFFFFFFFFFFFFFFFFFFFFFFFFFFFFFFFFFFFFFFFF AND PUSH4 0xAD58D2F DUP5 PUSH1 0x7 ADD SLOAD DUP7 CALLER PUSH1 0x40 MLOAD DUP5 PUSH4 0xFFFFFFFF AND PUSH1 0xE0 SHL DUP2 MSTORE PUSH1 0x4 ADD PUSH2 0x1CFB SWAP4 SWAP3 SWAP2 SWAP1 PUSH2 0x65D9 JUMP JUMPDEST PUSH1 0x0 PUSH1 0x40 MLOAD DUP1 DUP4 SUB DUP2 PUSH1 0x0 DUP8 DUP1 EXTCODESIZE ISZERO DUP1 ISZERO PUSH2 0x1D15 JUMPI PUSH1 0x0 DUP1 REVERT JUMPDEST POP GAS CALL ISZERO DUP1 ISZERO PUSH2 0x1D29 JUMPI RETURNDATASIZE PUSH1 0x0 DUP1 RETURNDATACOPY RETURNDATASIZE PUSH1 0x0 REVERT JUMPDEST POP POP POP POP PUSH2 0x1D82 JUMP JUMPDEST PUSH2 0x1D81 CALLER DUP6 DUP6 PUSH1 0x1 ADD PUSH1 0x0 SWAP1 SLOAD SWAP1 PUSH2 0x100 EXP SWAP1 DIV PUSH20 0xFFFFFFFFFFFFFFFFFFFFFFFFFFFFFFFFFFFFFFFF AND PUSH20 0xFFFFFFFFFFFFFFFFFFFFFFFFFFFFFFFFFFFFFFFF AND PUSH2 0x4CAE SWAP1 SWAP3 SWAP2 SWAP1 PUSH4 0xFFFFFFFF AND JUMP JUMPDEST JUMPDEST PUSH2 0x1D99 DUP5 DUP5 PUSH1 0x6 ADD SLOAD PUSH2 0x4A76 SWAP1 SWAP2 SWAP1 PUSH4 0xFFFFFFFF AND JUMP JUMPDEST DUP4 PUSH1 0x6 ADD DUP2 SWAP1 SSTORE POP JUMPDEST PUSH2 0x1DD4 PUSH5 0xE8D4A51000 PUSH2 0x1DC6 DUP6 PUSH1 0x4 ADD SLOAD DUP6 PUSH1 0x0 ADD SLOAD PUSH2 0x4A8C SWAP1 SWAP2 SWAP1 PUSH4 0xFFFFFFFF AND JUMP JUMPDEST PUSH2 0x4AA2 SWAP1 SWAP2 SWAP1 PUSH4 0xFFFFFFFF AND JUMP JUMPDEST DUP3 PUSH1 0x1 ADD DUP2 SWAP1 SSTORE POP PUSH1 0x5 PUSH1 0x0 SWAP1 SLOAD SWAP1 PUSH2 0x100 EXP SWAP1 DIV PUSH20 0xFFFFFFFFFFFFFFFFFFFFFFFFFFFFFFFFFFFFFFFF AND PUSH20 0xFFFFFFFFFFFFFFFFFFFFFFFFFFFFFFFFFFFFFFFF AND DUP4 PUSH1 0x1 ADD PUSH1 0x0 SWAP1 SLOAD SWAP1 PUSH2 0x100 EXP SWAP1 DIV PUSH20 0xFFFFFFFFFFFFFFFFFFFFFFFFFFFFFFFFFFFFFFFF AND PUSH20 0xFFFFFFFFFFFFFFFFFFFFFFFFFFFFFFFFFFFFFFFF AND EQ ISZERO PUSH2 0x1E72 JUMPI PUSH2 0x1E6B DUP5 PUSH1 0x13 SLOAD PUSH2 0x4A76 SWAP1 SWAP2 SWAP1 PUSH4 0xFFFFFFFF AND JUMP JUMPDEST PUSH1 0x13 DUP2 SWAP1 SSTORE POP JUMPDEST DUP5 CALLER PUSH20 0xFFFFFFFFFFFFFFFFFFFFFFFFFFFFFFFFFFFFFFFF AND PUSH32 0xF279E6A1F5E320CCA91135676D9CB6E44CA8A08C0B88342BCDB1144F6511B568 DUP7 PUSH1 0x40 MLOAD PUSH2 0x1EB9 SWAP2 SWAP1 PUSH2 0x655E JUMP JUMPDEST PUSH1 0x40 MLOAD DUP1 SWAP2 SUB SWAP1 LOG3 PUSH2 0x1EC9 PUSH2 0x1833 JUMP JUMPDEST POP POP POP PUSH1 0x1 DUP1 DUP2 SWAP1 SSTORE POP POP POP JUMP JUMPDEST PUSH1 0x11 SLOAD DUP2 JUMP JUMPDEST PUSH1 0x0 DUP1 PUSH1 0x5 PUSH1 0x0 SWAP1 SLOAD SWAP1 PUSH2 0x100 EXP SWAP1 DIV PUSH20 0xFFFFFFFFFFFFFFFFFFFFFFFFFFFFFFFFFFFFFFFF AND PUSH20 0xFFFFFFFFFFFFFFFFFFFFFFFFFFFFFFFFFFFFFFFF AND PUSH4 0x808A5457 PUSH1 0x40 MLOAD DUP2 PUSH4 0xFFFFFFFF AND PUSH1 0xE0 SHL DUP2 MSTORE PUSH1 0x4 ADD PUSH1 0x20 PUSH1 0x40 MLOAD DUP1 DUP4 SUB DUP2 DUP7 DUP1 EXTCODESIZE ISZERO DUP1 ISZERO PUSH2 0x1F48 JUMPI PUSH1 0x0 DUP1 REVERT JUMPDEST POP GAS STATICCALL ISZERO DUP1 ISZERO PUSH2 0x1F5C JUMPI RETURNDATASIZE PUSH1 0x0 DUP1 RETURNDATACOPY RETURNDATASIZE PUSH1 0x0 REVERT JUMPDEST POP POP POP POP PUSH1 0x40 MLOAD RETURNDATASIZE PUSH1 0x1F NOT PUSH1 0x1F DUP3 ADD AND DUP3 ADD DUP1 PUSH1 0x40 MSTORE POP DUP2 ADD SWAP1 PUSH2 0x1F80 SWAP2 SWAP1 PUSH2 0x58E0 JUMP JUMPDEST SWAP1 POP PUSH1 0x6 PUSH1 0x0 SWAP1 SLOAD SWAP1 PUSH2 0x100 EXP SWAP1 DIV PUSH20 0xFFFFFFFFFFFFFFFFFFFFFFFFFFFFFFFFFFFFFFFF AND PUSH20 0xFFFFFFFFFFFFFFFFFFFFFFFFFFFFFFFFFFFFFFFF AND DUP2 PUSH20 0xFFFFFFFFFFFFFFFFFFFFFFFFFFFFFFFFFFFFFFFF AND EQ PUSH2 0x2031 JUMPI DUP1 PUSH1 0x6 PUSH1 0x0 PUSH2 0x100 EXP DUP2 SLOAD DUP2 PUSH20 0xFFFFFFFFFFFFFFFFFFFFFFFFFFFFFFFFFFFFFFFF MUL NOT AND SWAP1 DUP4 PUSH20 0xFFFFFFFFFFFFFFFFFFFFFFFFFFFFFFFFFFFFFFFF AND MUL OR SWAP1 SSTORE POP PUSH1 0x0 PUSH1 0x8 DUP2 SWAP1 SSTORE POP PUSH1 0x0 PUSH1 0xA DUP2 SWAP1 SSTORE POP PUSH1 0x0 PUSH1 0xB DUP2 SWAP1 SSTORE POP JUMPDEST PUSH1 0x0 PUSH1 0x6 PUSH1 0x0 SWAP1 SLOAD SWAP1 PUSH2 0x100 EXP SWAP1 DIV PUSH20 0xFFFFFFFFFFFFFFFFFFFFFFFFFFFFFFFFFFFFFFFF AND SWAP1 POP PUSH1 0x0 DUP1 DUP3 PUSH20 0xFFFFFFFFFFFFFFFFFFFFFFFFFFFFFFFFFFFFFFFF AND PUSH4 0x902F1AC PUSH1 0x40 MLOAD DUP2 PUSH4 0xFFFFFFFF AND PUSH1 0xE0 SHL DUP2 MSTORE PUSH1 0x4 ADD PUSH1 0x60 PUSH1 0x40 MLOAD DUP1 DUP4 SUB DUP2 DUP7 DUP1 EXTCODESIZE ISZERO DUP1 ISZERO PUSH2 0x20A1 JUMPI PUSH1 0x0 DUP1 REVERT JUMPDEST POP GAS STATICCALL ISZERO DUP1 ISZERO PUSH2 0x20B5 JUMPI RETURNDATASIZE PUSH1 0x0 DUP1 RETURNDATACOPY RETURNDATASIZE PUSH1 0x0 REVERT JUMPDEST POP POP POP POP PUSH1 0x40 MLOAD RETURNDATASIZE PUSH1 0x1F NOT PUSH1 0x1F DUP3 ADD AND DUP3 ADD DUP1 PUSH1 0x40 MSTORE POP DUP2 ADD SWAP1 PUSH2 0x20D9 SWAP2 SWAP1 PUSH2 0x5AC3 JUMP JUMPDEST POP PUSH14 0xFFFFFFFFFFFFFFFFFFFFFFFFFFFF AND SWAP2 POP PUSH14 0xFFFFFFFFFFFFFFFFFFFFFFFFFFFF AND SWAP2 POP PUSH1 0x0 DUP3 EQ DUP1 ISZERO PUSH2 0x210E JUMPI POP PUSH1 0x0 DUP2 EQ JUMPDEST ISZERO PUSH2 0x2120 JUMPI PUSH1 0x0 SWAP5 POP POP POP POP POP PUSH2 0x2493 JUMP JUMPDEST PUSH1 0x0 PUSH1 0x5 PUSH1 0x0 SWAP1 SLOAD SWAP1 PUSH2 0x100 EXP SWAP1 DIV PUSH20 0xFFFFFFFFFFFFFFFFFFFFFFFFFFFFFFFFFFFFFFFF AND PUSH20 0xFFFFFFFFFFFFFFFFFFFFFFFFFFFFFFFFFFFFFFFF AND DUP5 PUSH20 0xFFFFFFFFFFFFFFFFFFFFFFFFFFFFFFFFFFFFFFFF AND PUSH4 0xDFE1681 PUSH1 0x40 MLOAD DUP2 PUSH4 0xFFFFFFFF AND PUSH1 0xE0 SHL DUP2 MSTORE PUSH1 0x4 ADD PUSH1 0x20 PUSH1 0x40 MLOAD DUP1 DUP4 SUB DUP2 DUP7 DUP1 EXTCODESIZE ISZERO DUP1 ISZERO PUSH2 0x21A1 JUMPI PUSH1 0x0 DUP1 REVERT JUMPDEST POP GAS STATICCALL ISZERO DUP1 ISZERO PUSH2 0x21B5 JUMPI RETURNDATASIZE PUSH1 0x0 DUP1 RETURNDATACOPY RETURNDATASIZE PUSH1 0x0 REVERT JUMPDEST POP POP POP POP PUSH1 0x40 MLOAD RETURNDATASIZE PUSH1 0x1F NOT PUSH1 0x1F DUP3 ADD AND DUP3 ADD DUP1 PUSH1 0x40 MSTORE POP DUP2 ADD SWAP1 PUSH2 0x21D9 SWAP2 SWAP1 PUSH2 0x58E0 JUMP JUMPDEST PUSH20 0xFFFFFFFFFFFFFFFFFFFFFFFFFFFFFFFFFFFFFFFF AND EQ PUSH2 0x2277 JUMPI DUP4 PUSH20 0xFFFFFFFFFFFFFFFFFFFFFFFFFFFFFFFFFFFFFFFF AND PUSH4 0xD21220A7 PUSH1 0x40 MLOAD DUP2 PUSH4 0xFFFFFFFF AND PUSH1 0xE0 SHL DUP2 MSTORE PUSH1 0x4 ADD PUSH1 0x20 PUSH1 0x40 MLOAD DUP1 DUP4 SUB DUP2 DUP7 DUP1 EXTCODESIZE ISZERO DUP1 ISZERO PUSH2 0x223A JUMPI PUSH1 0x0 DUP1 REVERT JUMPDEST POP GAS STATICCALL ISZERO DUP1 ISZERO PUSH2 0x224E JUMPI RETURNDATASIZE PUSH1 0x0 DUP1 RETURNDATACOPY RETURNDATASIZE PUSH1 0x0 REVERT JUMPDEST POP POP POP POP PUSH1 0x40 MLOAD RETURNDATASIZE PUSH1 0x1F NOT PUSH1 0x1F DUP3 ADD AND DUP3 ADD DUP1 PUSH1 0x40 MSTORE POP DUP2 ADD SWAP1 PUSH2 0x2272 SWAP2 SWAP1 PUSH2 0x58E0 JUMP JUMPDEST PUSH2 0x22F6 JUMP JUMPDEST DUP4 PUSH20 0xFFFFFFFFFFFFFFFFFFFFFFFFFFFFFFFFFFFFFFFF AND PUSH4 0xD21220A7 PUSH1 0x40 MLOAD DUP2 PUSH4 0xFFFFFFFF AND PUSH1 0xE0 SHL DUP2 MSTORE PUSH1 0x4 ADD PUSH1 0x20 PUSH1 0x40 MLOAD DUP1 DUP4 SUB DUP2 DUP7 DUP1 EXTCODESIZE ISZERO DUP1 ISZERO PUSH2 0x22BD JUMPI PUSH1 0x0 DUP1 REVERT JUMPDEST POP GAS STATICCALL ISZERO DUP1 ISZERO PUSH2 0x22D1 JUMPI RETURNDATASIZE PUSH1 0x0 DUP1 RETURNDATACOPY RETURNDATASIZE PUSH1 0x0 REVERT JUMPDEST POP POP POP POP PUSH1 0x40 MLOAD RETURNDATASIZE PUSH1 0x1F NOT PUSH1 0x1F DUP3 ADD AND DUP3 ADD DUP1 PUSH1 0x40 MSTORE POP DUP2 ADD SWAP1 PUSH2 0x22F5 SWAP2 SWAP1 PUSH2 0x58E0 JUMP JUMPDEST JUMPDEST SWAP1 POP PUSH1 0x0 PUSH1 0x5 PUSH1 0x0 SWAP1 SLOAD SWAP1 PUSH2 0x100 EXP SWAP1 DIV PUSH20 0xFFFFFFFFFFFFFFFFFFFFFFFFFFFFFFFFFFFFFFFF AND PUSH20 0xFFFFFFFFFFFFFFFFFFFFFFFFFFFFFFFFFFFFFFFF AND DUP6 PUSH20 0xFFFFFFFFFFFFFFFFFFFFFFFFFFFFFFFFFFFFFFFF AND PUSH4 0xDFE1681 PUSH1 0x40 MLOAD DUP2 PUSH4 0xFFFFFFFF AND PUSH1 0xE0 SHL DUP2 MSTORE PUSH1 0x4 ADD PUSH1 0x20 PUSH1 0x40 MLOAD DUP1 DUP4 SUB DUP2 DUP7 DUP1 EXTCODESIZE ISZERO DUP1 ISZERO PUSH2 0x2379 JUMPI PUSH1 0x0 DUP1 REVERT JUMPDEST POP GAS STATICCALL ISZERO DUP1 ISZERO PUSH2 0x238D JUMPI RETURNDATASIZE PUSH1 0x0 DUP1 RETURNDATACOPY RETURNDATASIZE PUSH1 0x0 REVERT JUMPDEST POP POP POP POP PUSH1 0x40 MLOAD RETURNDATASIZE PUSH1 0x1F NOT PUSH1 0x1F DUP3 ADD AND DUP3 ADD DUP1 PUSH1 0x40 MSTORE POP DUP2 ADD SWAP1 PUSH2 0x23B1 SWAP2 SWAP1 PUSH2 0x58E0 JUMP JUMPDEST PUSH20 0xFFFFFFFFFFFFFFFFFFFFFFFFFFFFFFFFFFFFFFFF AND EQ PUSH2 0x23D2 JUMPI DUP4 PUSH2 0x23D4 JUMP JUMPDEST DUP3 JUMPDEST SWAP1 POP PUSH1 0x0 DUP5 DUP3 EQ PUSH2 0x23E5 JUMPI DUP5 PUSH2 0x23E7 JUMP JUMPDEST DUP4 JUMPDEST SWAP1 POP DUP1 DUP4 PUSH20 0xFFFFFFFFFFFFFFFFFFFFFFFFFFFFFFFFFFFFFFFF AND PUSH4 0x313CE567 PUSH1 0x40 MLOAD DUP2 PUSH4 0xFFFFFFFF AND PUSH1 0xE0 SHL DUP2 MSTORE PUSH1 0x4 ADD PUSH1 0x20 PUSH1 0x40 MLOAD DUP1 DUP4 SUB DUP2 DUP7 DUP1 EXTCODESIZE ISZERO DUP1 ISZERO PUSH2 0x2430 JUMPI PUSH1 0x0 DUP1 REVERT JUMPDEST POP GAS STATICCALL ISZERO DUP1 ISZERO PUSH2 0x2444 JUMPI RETURNDATASIZE PUSH1 0x0 DUP1 RETURNDATACOPY RETURNDATASIZE PUSH1 0x0 REVERT JUMPDEST POP POP POP POP PUSH1 0x40 MLOAD RETURNDATASIZE PUSH1 0x1F NOT PUSH1 0x1F DUP3 ADD AND DUP3 ADD DUP1 PUSH1 0x40 MSTORE POP DUP2 ADD SWAP1 PUSH2 0x2468 SWAP2 SWAP1 PUSH2 0x5DF3 JUMP JUMPDEST PUSH1 0xA PUSH2 0x2474 SWAP2 SWAP1 PUSH2 0x681E JUMP JUMPDEST DUP4 PUSH2 0x247F SWAP2 SWAP1 PUSH2 0x6A53 JUMP JUMPDEST PUSH2 0x2489 SWAP2 SWAP1 PUSH2 0x679A JUMP JUMPDEST SWAP8 POP POP POP POP POP POP POP POP JUMPDEST SWAP1 JUMP JUMPDEST PUSH1 0x0 PUSH1 0xD DUP3 DUP2 SLOAD DUP2 LT PUSH2 0x24AC JUMPI PUSH2 0x24AB PUSH2 0x6DC8 JUMP JUMPDEST JUMPDEST SWAP1 PUSH1 0x0 MSTORE PUSH1 0x20 PUSH1 0x0 KECCAK256 SWAP1 PUSH1 0xA MUL ADD SWAP1 POP DUP1 PUSH1 0x3 ADD SLOAD NUMBER GT PUSH2 0x24CD JUMPI POP PUSH2 0x2727 JUMP JUMPDEST PUSH1 0x0 PUSH2 0x24D8 DUP4 PUSH2 0x2A82 JUMP JUMPDEST SWAP1 POP PUSH1 0x0 DUP2 EQ ISZERO PUSH2 0x24F3 JUMPI NUMBER DUP3 PUSH1 0x3 ADD DUP2 SWAP1 SSTORE POP POP POP PUSH2 0x2727 JUMP JUMPDEST PUSH1 0x0 PUSH2 0x250C DUP4 PUSH1 0x3 ADD SLOAD NUMBER PUSH2 0x4A76 SWAP1 SWAP2 SWAP1 PUSH4 0xFFFFFFFF AND JUMP JUMPDEST SWAP1 POP PUSH1 0x0 PUSH2 0x254F PUSH1 0x12 SLOAD PUSH2 0x2541 DUP7 PUSH1 0x2 ADD SLOAD PUSH2 0x2533 PUSH1 0x10 SLOAD DUP8 PUSH2 0x4A8C SWAP1 SWAP2 SWAP1 PUSH4 0xFFFFFFFF AND JUMP JUMPDEST PUSH2 0x4A8C SWAP1 SWAP2 SWAP1 PUSH4 0xFFFFFFFF AND JUMP JUMPDEST PUSH2 0x4AA2 SWAP1 SWAP2 SWAP1 PUSH4 0xFFFFFFFF AND JUMP JUMPDEST SWAP1 POP PUSH2 0x2578 PUSH2 0x2568 PUSH1 0xA DUP4 PUSH2 0x4AA2 SWAP1 SWAP2 SWAP1 PUSH4 0xFFFFFFFF AND JUMP JUMPDEST DUP3 PUSH2 0x2573 SWAP2 SWAP1 PUSH2 0x66DA JUMP JUMPDEST PUSH2 0x1396 JUMP JUMPDEST ISZERO PUSH2 0x26D1 JUMPI PUSH1 0x5 PUSH1 0x0 SWAP1 SLOAD SWAP1 PUSH2 0x100 EXP SWAP1 DIV PUSH20 0xFFFFFFFFFFFFFFFFFFFFFFFFFFFFFFFFFFFFFFFF AND PUSH20 0xFFFFFFFFFFFFFFFFFFFFFFFFFFFFFFFFFFFFFFFF AND PUSH4 0x40C10F19 PUSH1 0xE PUSH1 0x0 SWAP1 SLOAD SWAP1 PUSH2 0x100 EXP SWAP1 DIV PUSH20 0xFFFFFFFFFFFFFFFFFFFFFFFFFFFFFFFFFFFFFFFF AND PUSH2 0x25F2 PUSH1 0xA DUP6 PUSH2 0x4AA2 SWAP1 SWAP2 SWAP1 PUSH4 0xFFFFFFFF AND JUMP JUMPDEST PUSH1 0x40 MLOAD DUP4 PUSH4 0xFFFFFFFF AND PUSH1 0xE0 SHL DUP2 MSTORE PUSH1 0x4 ADD PUSH2 0x260F SWAP3 SWAP2 SWAP1 PUSH2 0x6206 JUMP JUMPDEST PUSH1 0x0 PUSH1 0x40 MLOAD DUP1 DUP4 SUB DUP2 PUSH1 0x0 DUP8 DUP1 EXTCODESIZE ISZERO DUP1 ISZERO PUSH2 0x2629 JUMPI PUSH1 0x0 DUP1 REVERT JUMPDEST POP GAS CALL ISZERO DUP1 ISZERO PUSH2 0x263D JUMPI RETURNDATASIZE PUSH1 0x0 DUP1 RETURNDATACOPY RETURNDATASIZE PUSH1 0x0 REVERT JUMPDEST POP POP POP POP PUSH1 0x5 PUSH1 0x0 SWAP1 SLOAD SWAP1 PUSH2 0x100 EXP SWAP1 DIV PUSH20 0xFFFFFFFFFFFFFFFFFFFFFFFFFFFFFFFFFFFFFFFF AND PUSH20 0xFFFFFFFFFFFFFFFFFFFFFFFFFFFFFFFFFFFFFFFF AND PUSH4 0x40C10F19 ADDRESS DUP4 PUSH1 0x40 MLOAD DUP4 PUSH4 0xFFFFFFFF AND PUSH1 0xE0 SHL DUP2 MSTORE PUSH1 0x4 ADD PUSH2 0x269E SWAP3 SWAP2 SWAP1 PUSH2 0x6206 JUMP JUMPDEST PUSH1 0x0 PUSH1 0x40 MLOAD DUP1 DUP4 SUB DUP2 PUSH1 0x0 DUP8 DUP1 EXTCODESIZE ISZERO DUP1 ISZERO PUSH2 0x26B8 JUMPI PUSH1 0x0 DUP1 REVERT JUMPDEST POP GAS CALL ISZERO DUP1 ISZERO PUSH2 0x26CC JUMPI RETURNDATASIZE PUSH1 0x0 DUP1 RETURNDATACOPY RETURNDATASIZE PUSH1 0x0 REVERT JUMPDEST POP POP POP POP JUMPDEST PUSH2 0x2711 PUSH2 0x26FE DUP5 PUSH2 0x26F0 PUSH5 0xE8D4A51000 DUP6 PUSH2 0x4A8C SWAP1 SWAP2 SWAP1 PUSH4 0xFFFFFFFF AND JUMP JUMPDEST PUSH2 0x4AA2 SWAP1 SWAP2 SWAP1 PUSH4 0xFFFFFFFF AND JUMP JUMPDEST DUP6 PUSH1 0x4 ADD SLOAD PUSH2 0x4A60 SWAP1 SWAP2 SWAP1 PUSH4 0xFFFFFFFF AND JUMP JUMPDEST DUP5 PUSH1 0x4 ADD DUP2 SWAP1 SSTORE POP NUMBER DUP5 PUSH1 0x3 ADD DUP2 SWAP1 SSTORE POP POP POP POP POP JUMPDEST POP JUMP JUMPDEST PUSH1 0x16 PUSH1 0x0 SWAP1 SLOAD SWAP1 PUSH2 0x100 EXP SWAP1 DIV PUSH2 0xFFFF AND DUP2 JUMP JUMPDEST PUSH1 0x0 DUP1 DUP5 SWAP1 POP PUSH1 0x0 PUSH20 0xFFFFFFFFFFFFFFFFFFFFFFFFFFFFFFFFFFFFFFFF AND DUP2 PUSH20 0xFFFFFFFFFFFFFFFFFFFFFFFFFFFFFFFFFFFFFFFF AND EQ ISZERO PUSH2 0x2783 JUMPI PUSH1 0x0 SWAP2 POP POP PUSH2 0x2A7B JUMP JUMPDEST PUSH1 0x0 DUP5 PUSH20 0xFFFFFFFFFFFFFFFFFFFFFFFFFFFFFFFFFFFFFFFF AND DUP3 PUSH20 0xFFFFFFFFFFFFFFFFFFFFFFFFFFFFFFFFFFFFFFFF AND PUSH4 0xDFE1681 PUSH1 0x40 MLOAD DUP2 PUSH4 0xFFFFFFFF AND PUSH1 0xE0 SHL DUP2 MSTORE PUSH1 0x4 ADD PUSH1 0x20 PUSH1 0x40 MLOAD DUP1 DUP4 SUB DUP2 DUP7 DUP1 EXTCODESIZE ISZERO DUP1 ISZERO PUSH2 0x27E2 JUMPI PUSH1 0x0 DUP1 REVERT JUMPDEST POP GAS STATICCALL ISZERO DUP1 ISZERO PUSH2 0x27F6 JUMPI RETURNDATASIZE PUSH1 0x0 DUP1 RETURNDATACOPY RETURNDATASIZE PUSH1 0x0 REVERT JUMPDEST POP POP POP POP PUSH1 0x40 MLOAD RETURNDATASIZE PUSH1 0x1F NOT PUSH1 0x1F DUP3 ADD AND DUP3 ADD DUP1 PUSH1 0x40 MSTORE POP DUP2 ADD SWAP1 PUSH2 0x281A SWAP2 SWAP1 PUSH2 0x58E0 JUMP JUMPDEST PUSH20 0xFFFFFFFFFFFFFFFFFFFFFFFFFFFFFFFFFFFFFFFF AND EQ SWAP1 POP PUSH1 0x0 DUP6 PUSH20 0xFFFFFFFFFFFFFFFFFFFFFFFFFFFFFFFFFFFFFFFF AND DUP4 PUSH20 0xFFFFFFFFFFFFFFFFFFFFFFFFFFFFFFFFFFFFFFFF AND PUSH4 0xD21220A7 PUSH1 0x40 MLOAD DUP2 PUSH4 0xFFFFFFFF AND PUSH1 0xE0 SHL DUP2 MSTORE PUSH1 0x4 ADD PUSH1 0x20 PUSH1 0x40 MLOAD DUP1 DUP4 SUB DUP2 DUP7 DUP1 EXTCODESIZE ISZERO DUP1 ISZERO PUSH2 0x2892 JUMPI PUSH1 0x0 DUP1 REVERT JUMPDEST POP GAS STATICCALL ISZERO DUP1 ISZERO PUSH2 0x28A6 JUMPI RETURNDATASIZE PUSH1 0x0 DUP1 RETURNDATACOPY RETURNDATASIZE PUSH1 0x0 REVERT JUMPDEST POP POP POP POP PUSH1 0x40 MLOAD RETURNDATASIZE PUSH1 0x1F NOT PUSH1 0x1F DUP3 ADD AND DUP3 ADD DUP1 PUSH1 0x40 MSTORE POP DUP2 ADD SWAP1 PUSH2 0x28CA SWAP2 SWAP1 PUSH2 0x58E0 JUMP JUMPDEST PUSH20 0xFFFFFFFFFFFFFFFFFFFFFFFFFFFFFFFFFFFFFFFF AND EQ SWAP1 POP PUSH1 0x0 DUP1 DUP5 PUSH20 0xFFFFFFFFFFFFFFFFFFFFFFFFFFFFFFFFFFFFFFFF AND PUSH4 0x902F1AC PUSH1 0x40 MLOAD DUP2 PUSH4 0xFFFFFFFF AND PUSH1 0xE0 SHL DUP2 MSTORE PUSH1 0x4 ADD PUSH1 0x60 PUSH1 0x40 MLOAD DUP1 DUP4 SUB DUP2 DUP7 DUP1 EXTCODESIZE ISZERO DUP1 ISZERO PUSH2 0x292C JUMPI PUSH1 0x0 DUP1 REVERT JUMPDEST POP GAS STATICCALL ISZERO DUP1 ISZERO PUSH2 0x2940 JUMPI RETURNDATASIZE PUSH1 0x0 DUP1 RETURNDATACOPY RETURNDATASIZE PUSH1 0x0 REVERT JUMPDEST POP POP POP POP PUSH1 0x40 MLOAD RETURNDATASIZE PUSH1 0x1F NOT PUSH1 0x1F DUP3 ADD AND DUP3 ADD DUP1 PUSH1 0x40 MSTORE POP DUP2 ADD SWAP1 PUSH2 0x2964 SWAP2 SWAP1 PUSH2 0x5AC3 JUMP JUMPDEST POP PUSH14 0xFFFFFFFFFFFFFFFFFFFFFFFFFFFF AND SWAP2 POP PUSH14 0xFFFFFFFFFFFFFFFFFFFFFFFFFFFF AND SWAP2 POP PUSH1 0x0 DUP3 EQ DUP1 ISZERO PUSH2 0x2999 JUMPI POP PUSH1 0x0 DUP2 EQ JUMPDEST DUP1 PUSH2 0x29AC JUMPI POP DUP4 ISZERO DUP1 ISZERO PUSH2 0x29AB JUMPI POP DUP3 ISZERO JUMPDEST JUMPDEST ISZERO PUSH2 0x29BF JUMPI PUSH1 0x0 SWAP6 POP POP POP POP POP POP PUSH2 0x2A7B JUMP JUMPDEST PUSH1 0x0 DUP6 PUSH20 0xFFFFFFFFFFFFFFFFFFFFFFFFFFFFFFFFFFFFFFFF AND PUSH4 0x18160DDD PUSH1 0x40 MLOAD DUP2 PUSH4 0xFFFFFFFF AND PUSH1 0xE0 SHL DUP2 MSTORE PUSH1 0x4 ADD PUSH1 0x20 PUSH1 0x40 MLOAD DUP1 DUP4 SUB DUP2 DUP7 DUP1 EXTCODESIZE ISZERO DUP1 ISZERO PUSH2 0x2A07 JUMPI PUSH1 0x0 DUP1 REVERT JUMPDEST POP GAS STATICCALL ISZERO DUP1 ISZERO PUSH2 0x2A1B JUMPI RETURNDATASIZE PUSH1 0x0 DUP1 RETURNDATACOPY RETURNDATASIZE PUSH1 0x0 REVERT JUMPDEST POP POP POP POP PUSH1 0x40 MLOAD RETURNDATASIZE PUSH1 0x1F NOT PUSH1 0x1F DUP3 ADD AND DUP3 ADD DUP1 PUSH1 0x40 MSTORE POP DUP2 ADD SWAP1 PUSH2 0x2A3F SWAP2 SWAP1 PUSH2 0x5B70 JUMP JUMPDEST SWAP1 POP PUSH2 0x2A72 DUP2 PUSH2 0x2A64 DUP8 PUSH2 0x2A53 JUMPI DUP5 PUSH2 0x2A55 JUMP JUMPDEST DUP6 JUMPDEST DUP12 PUSH2 0x4A8C SWAP1 SWAP2 SWAP1 PUSH4 0xFFFFFFFF AND JUMP JUMPDEST PUSH2 0x4AA2 SWAP1 SWAP2 SWAP1 PUSH4 0xFFFFFFFF AND JUMP JUMPDEST SWAP7 POP POP POP POP POP POP POP JUMPDEST SWAP4 SWAP3 POP POP POP JUMP JUMPDEST PUSH1 0x0 DUP1 PUSH1 0xD DUP4 DUP2 SLOAD DUP2 LT PUSH2 0x2A99 JUMPI PUSH2 0x2A98 PUSH2 0x6DC8 JUMP JUMPDEST JUMPDEST SWAP1 PUSH1 0x0 MSTORE PUSH1 0x20 PUSH1 0x0 KECCAK256 SWAP1 PUSH1 0xA MUL ADD SWAP1 POP PUSH1 0x0 PUSH1 0x5 PUSH1 0x0 SWAP1 SLOAD SWAP1 PUSH2 0x100 EXP SWAP1 DIV PUSH20 0xFFFFFFFFFFFFFFFFFFFFFFFFFFFFFFFFFFFFFFFF AND PUSH20 0xFFFFFFFFFFFFFFFFFFFFFFFFFFFFFFFFFFFFFFFF AND DUP3 PUSH1 0x1 ADD PUSH1 0x0 SWAP1 SLOAD SWAP1 PUSH2 0x100 EXP SWAP1 DIV PUSH20 0xFFFFFFFFFFFFFFFFFFFFFFFFFFFFFFFFFFFFFFFF AND PUSH20 0xFFFFFFFFFFFFFFFFFFFFFFFFFFFFFFFFFFFFFFFF AND EQ DUP1 PUSH2 0x2B7C JUMPI POP PUSH1 0x0 PUSH20 0xFFFFFFFFFFFFFFFFFFFFFFFFFFFFFFFFFFFFFFFF AND DUP3 PUSH1 0x0 ADD PUSH1 0x0 SWAP1 SLOAD SWAP1 PUSH2 0x100 EXP SWAP1 DIV PUSH20 0xFFFFFFFFFFFFFFFFFFFFFFFFFFFFFFFFFFFFFFFF AND PUSH20 0xFFFFFFFFFFFFFFFFFFFFFFFFFFFFFFFFFFFFFFFF AND EQ ISZERO JUMPDEST ISZERO PUSH2 0x2B8D JUMPI DUP2 PUSH1 0x6 ADD SLOAD SWAP1 POP PUSH2 0x2C3D JUMP JUMPDEST DUP2 PUSH1 0x1 ADD PUSH1 0x0 SWAP1 SLOAD SWAP1 PUSH2 0x100 EXP SWAP1 DIV PUSH20 0xFFFFFFFFFFFFFFFFFFFFFFFFFFFFFFFFFFFFFFFF AND PUSH20 0xFFFFFFFFFFFFFFFFFFFFFFFFFFFFFFFFFFFFFFFF AND PUSH4 0x70A08231 ADDRESS PUSH1 0x40 MLOAD DUP3 PUSH4 0xFFFFFFFF AND PUSH1 0xE0 SHL DUP2 MSTORE PUSH1 0x4 ADD PUSH2 0x2BEA SWAP2 SWAP1 PUSH2 0x61B4 JUMP JUMPDEST PUSH1 0x20 PUSH1 0x40 MLOAD DUP1 DUP4 SUB DUP2 DUP7 DUP1 EXTCODESIZE ISZERO DUP1 ISZERO PUSH2 0x2C02 JUMPI PUSH1 0x0 DUP1 REVERT JUMPDEST POP GAS STATICCALL ISZERO DUP1 ISZERO PUSH2 0x2C16 JUMPI RETURNDATASIZE PUSH1 0x0 DUP1 RETURNDATACOPY RETURNDATASIZE PUSH1 0x0 REVERT JUMPDEST POP POP POP POP PUSH1 0x40 MLOAD RETURNDATASIZE PUSH1 0x1F NOT PUSH1 0x1F DUP3 ADD AND DUP3 ADD DUP1 PUSH1 0x40 MSTORE POP DUP2 ADD SWAP1 PUSH2 0x2C3A SWAP2 SWAP1 PUSH2 0x5B70 JUMP JUMPDEST SWAP1 POP JUMPDEST DUP1 SWAP3 POP POP POP SWAP2 SWAP1 POP JUMP JUMPDEST PUSH1 0x0 PUSH1 0xD DUP1 SLOAD SWAP1 POP SWAP1 POP PUSH1 0x0 JUMPDEST DUP2 DUP2 LT ISZERO PUSH2 0x2C76 JUMPI PUSH2 0x2C65 DUP2 PUSH2 0x2496 JUMP JUMPDEST DUP1 PUSH2 0x2C6F SWAP1 PUSH2 0x6D21 JUMP JUMPDEST SWAP1 POP PUSH2 0x2C54 JUMP JUMPDEST POP POP JUMP JUMPDEST PUSH1 0x9 SLOAD DUP2 JUMP JUMPDEST PUSH2 0x2C88 PUSH2 0x1833 JUMP JUMPDEST JUMP JUMPDEST PUSH1 0xD DUP2 DUP2 SLOAD DUP2 LT PUSH2 0x2C9A JUMPI PUSH1 0x0 DUP1 REVERT JUMPDEST SWAP1 PUSH1 0x0 MSTORE PUSH1 0x20 PUSH1 0x0 KECCAK256 SWAP1 PUSH1 0xA MUL ADD PUSH1 0x0 SWAP2 POP SWAP1 POP DUP1 PUSH1 0x0 ADD PUSH1 0x0 SWAP1 SLOAD SWAP1 PUSH2 0x100 EXP SWAP1 DIV PUSH20 0xFFFFFFFFFFFFFFFFFFFFFFFFFFFFFFFFFFFFFFFF AND SWAP1 DUP1 PUSH1 0x1 ADD PUSH1 0x0 SWAP1 SLOAD SWAP1 PUSH2 0x100 EXP SWAP1 DIV PUSH20 0xFFFFFFFFFFFFFFFFFFFFFFFFFFFFFFFFFFFFFFFF AND SWAP1 DUP1 PUSH1 0x2 ADD SLOAD SWAP1 DUP1 PUSH1 0x3 ADD SLOAD SWAP1 DUP1 PUSH1 0x4 ADD SLOAD SWAP1 DUP1 PUSH1 0x5 ADD PUSH1 0x0 SWAP1 SLOAD SWAP1 PUSH2 0x100 EXP SWAP1 DIV PUSH2 0xFFFF AND SWAP1 DUP1 PUSH1 0x6 ADD SLOAD SWAP1 DUP1 PUSH1 0x7 ADD SLOAD SWAP1 DUP1 PUSH1 0x8 ADD SLOAD SWAP1 DUP1 PUSH1 0x9 ADD PUSH1 0x0 SWAP1 SLOAD SWAP1 PUSH2 0x100 EXP SWAP1 DIV PUSH1 0xFF AND SWAP1 POP DUP11 JUMP JUMPDEST PUSH1 0x7 DUP2 DUP2 SLOAD DUP2 LT PUSH2 0x2D59 JUMPI PUSH1 0x0 DUP1 REVERT JUMPDEST SWAP1 PUSH1 0x0 MSTORE PUSH1 0x20 PUSH1 0x0 KECCAK256 ADD PUSH1 0x0 SWAP2 POP SWAP1 POP SLOAD DUP2 JUMP JUMPDEST PUSH2 0x2D75 PUSH2 0x4AB8 JUMP JUMPDEST PUSH20 0xFFFFFFFFFFFFFFFFFFFFFFFFFFFFFFFFFFFFFFFF AND PUSH2 0x2D93 PUSH2 0x32B1 JUMP JUMPDEST PUSH20 0xFFFFFFFFFFFFFFFFFFFFFFFFFFFFFFFFFFFFFFFF AND EQ PUSH2 0x2DE9 JUMPI PUSH1 0x40 MLOAD PUSH32 0x8C379A000000000000000000000000000000000000000000000000000000000 DUP2 MSTORE PUSH1 0x4 ADD PUSH2 0x2DE0 SWAP1 PUSH2 0x6443 JUMP JUMPDEST PUSH1 0x40 MLOAD DUP1 SWAP2 SUB SWAP1 REVERT JUMPDEST PUSH2 0x2DF3 PUSH1 0x0 PUSH2 0x4D34 JUMP JUMPDEST JUMP JUMPDEST PUSH1 0x13 SLOAD DUP2 JUMP JUMPDEST PUSH2 0x2E03 PUSH2 0x4AB8 JUMP JUMPDEST PUSH20 0xFFFFFFFFFFFFFFFFFFFFFFFFFFFFFFFFFFFFFFFF AND PUSH2 0x2E21 PUSH2 0x32B1 JUMP JUMPDEST PUSH20 0xFFFFFFFFFFFFFFFFFFFFFFFFFFFFFFFFFFFFFFFF AND EQ PUSH2 0x2E77 JUMPI PUSH1 0x40 MLOAD PUSH32 0x8C379A000000000000000000000000000000000000000000000000000000000 DUP2 MSTORE PUSH1 0x4 ADD PUSH2 0x2E6E SWAP1 PUSH2 0x6443 JUMP JUMPDEST PUSH1 0x40 MLOAD DUP1 SWAP2 SUB SWAP1 REVERT JUMPDEST PUSH1 0x40 MLOAD DUP1 PUSH1 0x40 ADD PUSH1 0x40 MSTORE DUP1 PUSH1 0x7 DUP2 MSTORE PUSH1 0x20 ADD PUSH32 0x736574436F696E00000000000000000000000000000000000000000000000000 DUP2 MSTORE POP PUSH1 0x2 PUSH1 0x0 SWAP1 SLOAD SWAP1 PUSH2 0x100 EXP SWAP1 DIV PUSH1 0xFF AND ISZERO DUP1 PUSH2 0x2F4A JUMPI POP PUSH1 0x0 PUSH1 0x3 DUP3 PUSH1 0x40 MLOAD PUSH2 0x2ED6 SWAP2 SWAP1 PUSH2 0x619D JUMP JUMPDEST SWAP1 DUP2 MSTORE PUSH1 0x20 ADD PUSH1 0x40 MLOAD DUP1 SWAP2 SUB SWAP1 KECCAK256 SLOAD EQ ISZERO DUP1 ISZERO PUSH2 0x2F11 JUMPI POP TIMESTAMP PUSH1 0x3 DUP3 PUSH1 0x40 MLOAD PUSH2 0x2EFF SWAP2 SWAP1 PUSH2 0x619D JUMP JUMPDEST SWAP1 DUP2 MSTORE PUSH1 0x20 ADD PUSH1 0x40 MLOAD DUP1 SWAP2 SUB SWAP1 KECCAK256 SLOAD GT ISZERO JUMPDEST DUP1 ISZERO PUSH2 0x2F49 JUMPI POP TIMESTAMP PUSH3 0x15180 PUSH1 0x3 DUP4 PUSH1 0x40 MLOAD PUSH2 0x2F2D SWAP2 SWAP1 PUSH2 0x619D JUMP JUMPDEST SWAP1 DUP2 MSTORE PUSH1 0x20 ADD PUSH1 0x40 MLOAD DUP1 SWAP2 SUB SWAP1 KECCAK256 SLOAD PUSH2 0x2F46 SWAP2 SWAP1 PUSH2 0x66DA JUMP JUMPDEST LT ISZERO JUMPDEST JUMPDEST PUSH2 0x2F89 JUMPI PUSH1 0x40 MLOAD PUSH32 0x8C379A000000000000000000000000000000000000000000000000000000000 DUP2 MSTORE PUSH1 0x4 ADD PUSH2 0x2F80 SWAP1 PUSH2 0x6483 JUMP JUMPDEST PUSH1 0x40 MLOAD DUP1 SWAP2 SUB SWAP1 REVERT JUMPDEST DUP2 PUSH20 0xFFFFFFFFFFFFFFFFFFFFFFFFFFFFFFFFFFFFFFFF AND PUSH1 0x5 PUSH1 0x0 SWAP1 SLOAD SWAP1 PUSH2 0x100 EXP SWAP1 DIV PUSH20 0xFFFFFFFFFFFFFFFFFFFFFFFFFFFFFFFFFFFFFFFF AND PUSH20 0xFFFFFFFFFFFFFFFFFFFFFFFFFFFFFFFFFFFFFFFF AND EQ ISZERO PUSH2 0x301A JUMPI PUSH1 0x40 MLOAD PUSH32 0x8C379A000000000000000000000000000000000000000000000000000000000 DUP2 MSTORE PUSH1 0x4 ADD PUSH2 0x3011 SWAP1 PUSH2 0x6463 JUMP JUMPDEST PUSH1 0x40 MLOAD DUP1 SWAP2 SUB SWAP1 REVERT JUMPDEST PUSH1 0x0 PUSH20 0xFFFFFFFFFFFFFFFFFFFFFFFFFFFFFFFFFFFFFFFF AND DUP3 PUSH20 0xFFFFFFFFFFFFFFFFFFFFFFFFFFFFFFFFFFFFFFFF AND EQ ISZERO PUSH2 0x308A JUMPI PUSH1 0x40 MLOAD PUSH32 0x8C379A000000000000000000000000000000000000000000000000000000000 DUP2 MSTORE PUSH1 0x4 ADD PUSH2 0x3081 SWAP1 PUSH2 0x6423 JUMP JUMPDEST PUSH1 0x40 MLOAD DUP1 SWAP2 SUB SWAP1 REVERT JUMPDEST PUSH1 0x0 PUSH1 0x5 PUSH1 0x0 SWAP1 SLOAD SWAP1 PUSH2 0x100 EXP SWAP1 DIV PUSH20 0xFFFFFFFFFFFFFFFFFFFFFFFFFFFFFFFFFFFFFFFF AND SWAP1 POP DUP3 PUSH1 0x5 PUSH1 0x0 PUSH2 0x100 EXP DUP2 SLOAD DUP2 PUSH20 0xFFFFFFFFFFFFFFFFFFFFFFFFFFFFFFFFFFFFFFFF MUL NOT AND SWAP1 DUP4 PUSH20 0xFFFFFFFFFFFFFFFFFFFFFFFFFFFFFFFFFFFFFFFF AND MUL OR SWAP1 SSTORE POP PUSH1 0x5 PUSH1 0x0 SWAP1 SLOAD SWAP1 PUSH2 0x100 EXP SWAP1 DIV PUSH20 0xFFFFFFFFFFFFFFFFFFFFFFFFFFFFFFFFFFFFFFFF AND PUSH20 0xFFFFFFFFFFFFFFFFFFFFFFFFFFFFFFFFFFFFFFFF AND PUSH4 0x808A5457 PUSH1 0x40 MLOAD DUP2 PUSH4 0xFFFFFFFF AND PUSH1 0xE0 SHL DUP2 MSTORE PUSH1 0x4 ADD PUSH1 0x20 PUSH1 0x40 MLOAD DUP1 DUP4 SUB DUP2 DUP7 DUP1 EXTCODESIZE ISZERO DUP1 ISZERO PUSH2 0x315A JUMPI PUSH1 0x0 DUP1 REVERT JUMPDEST POP GAS STATICCALL ISZERO DUP1 ISZERO PUSH2 0x316E JUMPI RETURNDATASIZE PUSH1 0x0 DUP1 RETURNDATACOPY RETURNDATASIZE PUSH1 0x0 REVERT JUMPDEST POP POP POP POP PUSH1 0x40 MLOAD RETURNDATASIZE PUSH1 0x1F NOT PUSH1 0x1F DUP3 ADD AND DUP3 ADD DUP1 PUSH1 0x40 MSTORE POP DUP2 ADD SWAP1 PUSH2 0x3192 SWAP2 SWAP1 PUSH2 0x58E0 JUMP JUMPDEST PUSH1 0x6 PUSH1 0x0 PUSH2 0x100 EXP DUP2 SLOAD DUP2 PUSH20 0xFFFFFFFFFFFFFFFFFFFFFFFFFFFFFFFFFFFFFFFF MUL NOT AND SWAP1 DUP4 PUSH20 0xFFFFFFFFFFFFFFFFFFFFFFFFFFFFFFFFFFFFFFFF AND MUL OR SWAP1 SSTORE POP PUSH1 0x0 PUSH1 0x8 DUP2 SWAP1 SSTORE POP PUSH1 0x0 PUSH1 0xA DUP2 SWAP1 SSTORE POP PUSH1 0x0 PUSH1 0xB DUP2 SWAP1 SSTORE POP PUSH1 0x5 PUSH1 0x0 SWAP1 SLOAD SWAP1 PUSH2 0x100 EXP SWAP1 DIV PUSH20 0xFFFFFFFFFFFFFFFFFFFFFFFFFFFFFFFFFFFFFFFF AND PUSH20 0xFFFFFFFFFFFFFFFFFFFFFFFFFFFFFFFFFFFFFFFF AND DUP2 PUSH20 0xFFFFFFFFFFFFFFFFFFFFFFFFFFFFFFFFFFFFFFFF AND PUSH32 0x2DBA03F722A3E07E4F2D2132F8161A513EE0B79EAC0D928B67F5DFFB49316C1B PUSH1 0x40 MLOAD PUSH1 0x40 MLOAD DUP1 SWAP2 SUB SWAP1 LOG3 POP PUSH2 0x3270 DUP2 PUSH2 0x382B JUMP JUMPDEST POP POP JUMP JUMPDEST PUSH1 0xC PUSH1 0x20 MSTORE DUP2 PUSH1 0x0 MSTORE PUSH1 0x40 PUSH1 0x0 KECCAK256 PUSH1 0x20 MSTORE DUP1 PUSH1 0x0 MSTORE PUSH1 0x40 PUSH1 0x0 KECCAK256 PUSH1 0x0 SWAP2 POP SWAP2 POP POP DUP1 PUSH1 0x0 ADD SLOAD SWAP1 DUP1 PUSH1 0x1 ADD SLOAD SWAP1 DUP1 PUSH1 0x2 ADD SLOAD SWAP1 POP DUP4 JUMP JUMPDEST PUSH1 0xB SLOAD DUP2 JUMP JUMPDEST PUSH1 0x0 DUP1 PUSH1 0x0 SWAP1 SLOAD SWAP1 PUSH2 0x100 EXP SWAP1 DIV PUSH20 0xFFFFFFFFFFFFFFFFFFFFFFFFFFFFFFFFFFFFFFFF AND SWAP1 POP SWAP1 JUMP JUMPDEST PUSH1 0x0 DUP1 PUSH1 0xD DUP1 SLOAD SWAP1 POP SWAP1 POP PUSH1 0x0 DUP1 JUMPDEST DUP3 DUP2 LT ISZERO PUSH2 0x34AD JUMPI PUSH1 0x0 PUSH1 0xD DUP3 DUP2 SLOAD DUP2 LT PUSH2 0x3307 JUMPI PUSH2 0x3306 PUSH2 0x6DC8 JUMP JUMPDEST JUMPDEST SWAP1 PUSH1 0x0 MSTORE PUSH1 0x20 PUSH1 0x0 KECCAK256 SWAP1 PUSH1 0xA MUL ADD SWAP1 POP PUSH1 0x0 DUP7 EQ DUP1 PUSH2 0x332A JUMPI POP DUP1 PUSH1 0x8 ADD SLOAD DUP7 GT ISZERO JUMPDEST ISZERO PUSH2 0x349B JUMPI PUSH1 0x0 DUP2 PUSH1 0x1 ADD PUSH1 0x0 SWAP1 SLOAD SWAP1 PUSH2 0x100 EXP SWAP1 DIV PUSH20 0xFFFFFFFFFFFFFFFFFFFFFFFFFFFFFFFFFFFFFFFF AND SWAP1 POP PUSH1 0x0 PUSH1 0x5 PUSH1 0x0 SWAP1 SLOAD SWAP1 PUSH2 0x100 EXP SWAP1 DIV PUSH20 0xFFFFFFFFFFFFFFFFFFFFFFFFFFFFFFFFFFFFFFFF AND SWAP1 POP DUP1 PUSH20 0xFFFFFFFFFFFFFFFFFFFFFFFFFFFFFFFFFFFFFFFF AND DUP3 PUSH20 0xFFFFFFFFFFFFFFFFFFFFFFFFFFFFFFFFFFFFFFFF AND EQ DUP1 PUSH2 0x33C7 JUMPI POP DUP3 PUSH1 0x9 ADD PUSH1 0x0 SWAP1 SLOAD SWAP1 PUSH2 0x100 EXP SWAP1 DIV PUSH1 0xFF AND JUMPDEST ISZERO PUSH2 0x3498 JUMPI PUSH1 0x0 PUSH1 0xC PUSH1 0x0 DUP7 DUP2 MSTORE PUSH1 0x20 ADD SWAP1 DUP2 MSTORE PUSH1 0x20 ADD PUSH1 0x0 KECCAK256 PUSH1 0x0 DUP12 PUSH20 0xFFFFFFFFFFFFFFFFFFFFFFFFFFFFFFFFFFFFFFFF AND PUSH20 0xFFFFFFFFFFFFFFFFFFFFFFFFFFFFFFFFFFFFFFFF AND DUP2 MSTORE PUSH1 0x20 ADD SWAP1 DUP2 MSTORE PUSH1 0x20 ADD PUSH1 0x0 KECCAK256 SWAP1 POP DUP2 PUSH20 0xFFFFFFFFFFFFFFFFFFFFFFFFFFFFFFFFFFFFFFFF AND DUP4 PUSH20 0xFFFFFFFFFFFFFFFFFFFFFFFFFFFFFFFFFFFFFFFF AND EQ ISZERO PUSH2 0x3472 JUMPI PUSH2 0x346B DUP2 PUSH1 0x0 ADD SLOAD DUP8 PUSH2 0x4A60 SWAP1 SWAP2 SWAP1 PUSH4 0xFFFFFFFF AND JUMP JUMPDEST SWAP6 POP PUSH2 0x3496 JUMP JUMPDEST PUSH2 0x3493 PUSH2 0x3484 DUP5 DUP5 DUP5 PUSH1 0x0 ADD SLOAD PUSH2 0x273E JUMP JUMPDEST DUP8 PUSH2 0x4A60 SWAP1 SWAP2 SWAP1 PUSH4 0xFFFFFFFF AND JUMP JUMPDEST SWAP6 POP JUMPDEST POP JUMPDEST POP POP JUMPDEST POP DUP1 PUSH2 0x34A6 SWAP1 PUSH2 0x6D21 JUMP JUMPDEST SWAP1 POP PUSH2 0x32E9 JUMP JUMPDEST POP DUP1 SWAP3 POP POP POP SWAP3 SWAP2 POP POP JUMP JUMPDEST PUSH2 0x34C1 PUSH2 0x4AB8 JUMP JUMPDEST PUSH20 0xFFFFFFFFFFFFFFFFFFFFFFFFFFFFFFFFFFFFFFFF AND PUSH2 0x34DF PUSH2 0x32B1 JUMP JUMPDEST PUSH20 0xFFFFFFFFFFFFFFFFFFFFFFFFFFFFFFFFFFFFFFFF AND EQ PUSH2 0x3535 JUMPI PUSH1 0x40 MLOAD PUSH32 0x8C379A000000000000000000000000000000000000000000000000000000000 DUP2 MSTORE PUSH1 0x4 ADD PUSH2 0x352C SWAP1 PUSH2 0x6443 JUMP JUMPDEST PUSH1 0x40 MLOAD DUP1 SWAP2 SUB SWAP1 REVERT JUMPDEST PUSH2 0x2710 DUP6 PUSH2 0xFFFF AND GT ISZERO PUSH2 0x357E JUMPI PUSH1 0x40 MLOAD PUSH32 0x8C379A000000000000000000000000000000000000000000000000000000000 DUP2 MSTORE PUSH1 0x4 ADD PUSH2 0x3575 SWAP1 PUSH2 0x6523 JUMP JUMPDEST PUSH1 0x40 MLOAD DUP1 SWAP2 SUB SWAP1 REVERT JUMPDEST DUP1 ISZERO PUSH2 0x358D JUMPI PUSH2 0x358C PUSH2 0x2C47 JUMP JUMPDEST JUMPDEST PUSH1 0x0 PUSH1 0x11 SLOAD NUMBER GT PUSH2 0x35A0 JUMPI PUSH1 0x11 SLOAD PUSH2 0x35A2 JUMP JUMPDEST NUMBER JUMPDEST SWAP1 POP PUSH2 0x35B9 DUP10 PUSH1 0x12 SLOAD PUSH2 0x4A60 SWAP1 SWAP2 SWAP1 PUSH4 0xFFFFFFFF AND JUMP JUMPDEST PUSH1 0x12 DUP2 SWAP1 SSTORE POP PUSH1 0xD PUSH1 0x40 MLOAD DUP1 PUSH2 0x140 ADD PUSH1 0x40 MSTORE DUP1 DUP8 PUSH20 0xFFFFFFFFFFFFFFFFFFFFFFFFFFFFFFFFFFFFFFFF AND DUP2 MSTORE PUSH1 0x20 ADD DUP11 PUSH20 0xFFFFFFFFFFFFFFFFFFFFFFFFFFFFFFFFFFFFFFFF AND DUP2 MSTORE PUSH1 0x20 ADD DUP12 DUP2 MSTORE PUSH1 0x20 ADD DUP4 DUP2 MSTORE PUSH1 0x20 ADD PUSH1 0x0 DUP2 MSTORE PUSH1 0x20 ADD DUP9 PUSH2 0xFFFF AND DUP2 MSTORE PUSH1 0x20 ADD PUSH1 0x0 DUP2 MSTORE PUSH1 0x20 ADD DUP10 DUP2 MSTORE PUSH1 0x20 ADD DUP7 DUP2 MSTORE PUSH1 0x20 ADD DUP6 ISZERO ISZERO DUP2 MSTORE POP SWAP1 DUP1 PUSH1 0x1 DUP2 SLOAD ADD DUP1 DUP3 SSTORE DUP1 SWAP2 POP POP PUSH1 0x1 SWAP1 SUB SWAP1 PUSH1 0x0 MSTORE PUSH1 0x20 PUSH1 0x0 KECCAK256 SWAP1 PUSH1 0xA MUL ADD PUSH1 0x0 SWAP1 SWAP2 SWAP1 SWAP2 SWAP1 SWAP2 POP PUSH1 0x0 DUP3 ADD MLOAD DUP2 PUSH1 0x0 ADD PUSH1 0x0 PUSH2 0x100 EXP DUP2 SLOAD DUP2 PUSH20 0xFFFFFFFFFFFFFFFFFFFFFFFFFFFFFFFFFFFFFFFF MUL NOT AND SWAP1 DUP4 PUSH20 0xFFFFFFFFFFFFFFFFFFFFFFFFFFFFFFFFFFFFFFFF AND MUL OR SWAP1 SSTORE POP PUSH1 0x20 DUP3 ADD MLOAD DUP2 PUSH1 0x1 ADD PUSH1 0x0 PUSH2 0x100 EXP DUP2 SLOAD DUP2 PUSH20 0xFFFFFFFFFFFFFFFFFFFFFFFFFFFFFFFFFFFFFFFF MUL NOT AND SWAP1 DUP4 PUSH20 0xFFFFFFFFFFFFFFFFFFFFFFFFFFFFFFFFFFFFFFFF AND MUL OR SWAP1 SSTORE POP PUSH1 0x40 DUP3 ADD MLOAD DUP2 PUSH1 0x2 ADD SSTORE PUSH1 0x60 DUP3 ADD MLOAD DUP2 PUSH1 0x3 ADD SSTORE PUSH1 0x80 DUP3 ADD MLOAD DUP2 PUSH1 0x4 ADD SSTORE PUSH1 0xA0 DUP3 ADD MLOAD DUP2 PUSH1 0x5 ADD PUSH1 0x0 PUSH2 0x100 EXP DUP2 SLOAD DUP2 PUSH2 0xFFFF MUL NOT AND SWAP1 DUP4 PUSH2 0xFFFF AND MUL OR SWAP1 SSTORE POP PUSH1 0xC0 DUP3 ADD MLOAD DUP2 PUSH1 0x6 ADD SSTORE PUSH1 0xE0 DUP3 ADD MLOAD DUP2 PUSH1 0x7 ADD SSTORE PUSH2 0x100 DUP3 ADD MLOAD DUP2 PUSH1 0x8 ADD SSTORE PUSH2 0x120 DUP3 ADD MLOAD DUP2 PUSH1 0x9 ADD PUSH1 0x0 PUSH2 0x100 EXP DUP2 SLOAD DUP2 PUSH1 0xFF MUL NOT AND SWAP1 DUP4 ISZERO ISZERO MUL OR SWAP1 SSTORE POP POP POP PUSH1 0x1 PUSH1 0xD DUP1 SLOAD SWAP1 POP PUSH2 0x3787 SWAP2 SWAP1 PUSH2 0x6B41 JUMP JUMPDEST DUP9 PUSH20 0xFFFFFFFFFFFFFFFFFFFFFFFFFFFFFFFFFFFFFFFF AND PUSH32 0xBE4222BC407CB12031595FC55B46531E46308D31E4572C9C4360D8AE790E1A31 PUSH1 0x40 MLOAD PUSH1 0x40 MLOAD DUP1 SWAP2 SUB SWAP1 LOG3 POP POP POP POP POP POP POP POP POP JUMP JUMPDEST PUSH1 0x0 PUSH1 0x4 PUSH1 0x0 SWAP1 SLOAD SWAP1 PUSH2 0x100 EXP SWAP1 DIV PUSH20 0xFFFFFFFFFFFFFFFFFFFFFFFFFFFFFFFFFFFFFFFF AND SWAP1 POP SWAP1 JUMP JUMPDEST PUSH1 0x6 PUSH1 0x0 SWAP1 SLOAD SWAP1 PUSH2 0x100 EXP SWAP1 DIV PUSH20 0xFFFFFFFFFFFFFFFFFFFFFFFFFFFFFFFFFFFFFFFF AND DUP2 JUMP JUMPDEST PUSH1 0x10 SLOAD DUP2 JUMP JUMPDEST CALLER PUSH20 0xFFFFFFFFFFFFFFFFFFFFFFFFFFFFFFFFFFFFFFFF AND PUSH2 0x384A PUSH2 0x32B1 JUMP JUMPDEST PUSH20 0xFFFFFFFFFFFFFFFFFFFFFFFFFFFFFFFFFFFFFFFF AND EQ DUP1 PUSH2 0x38B9 JUMPI POP CALLER PUSH20 0xFFFFFFFFFFFFFFFFFFFFFFFFFFFFFFFFFFFFFFFF AND PUSH1 0x4 PUSH1 0x0 SWAP1 SLOAD SWAP1 PUSH2 0x100 EXP SWAP1 DIV PUSH20 0xFFFFFFFFFFFFFFFFFFFFFFFFFFFFFFFFFFFFFFFF AND PUSH20 0xFFFFFFFFFFFFFFFFFFFFFFFFFFFFFFFFFFFFFFFF AND EQ JUMPDEST PUSH2 0x38F8 JUMPI PUSH1 0x40 MLOAD PUSH32 0x8C379A000000000000000000000000000000000000000000000000000000000 DUP2 MSTORE PUSH1 0x4 ADD PUSH2 0x38EF SWAP1 PUSH2 0x64A3 JUMP JUMPDEST PUSH1 0x40 MLOAD DUP1 SWAP2 SUB SWAP1 REVERT JUMPDEST PUSH1 0x0 PUSH1 0x3 DUP3 PUSH1 0x40 MLOAD PUSH2 0x390A SWAP2 SWAP1 PUSH2 0x619D JUMP JUMPDEST SWAP1 DUP2 MSTORE PUSH1 0x20 ADD PUSH1 0x40 MLOAD DUP1 SWAP2 SUB SWAP1 KECCAK256 DUP2 SWAP1 SSTORE POP POP JUMP JUMPDEST PUSH1 0x0 DUP1 PUSH1 0xD DUP4 DUP2 SLOAD DUP2 LT PUSH2 0x3936 JUMPI PUSH2 0x3935 PUSH2 0x6DC8 JUMP JUMPDEST JUMPDEST SWAP1 PUSH1 0x0 MSTORE PUSH1 0x20 PUSH1 0x0 KECCAK256 SWAP1 PUSH1 0xA MUL ADD SWAP1 POP PUSH1 0x0 DUP2 PUSH1 0x5 ADD PUSH1 0x0 SWAP1 SLOAD SWAP1 PUSH2 0x100 EXP SWAP1 DIV PUSH2 0xFFFF AND PUSH2 0xFFFF AND SWAP1 POP PUSH1 0x0 PUSH20 0xFFFFFFFFFFFFFFFFFFFFFFFFFFFFFFFFFFFFFFFF AND DUP3 PUSH1 0x0 ADD PUSH1 0x0 SWAP1 SLOAD SWAP1 PUSH2 0x100 EXP SWAP1 DIV PUSH20 0xFFFFFFFFFFFFFFFFFFFFFFFFFFFFFFFFFFFFFFFF AND PUSH20 0xFFFFFFFFFFFFFFFFFFFFFFFFFFFFFFFFFFFFFFFF AND EQ PUSH2 0x3A7F JUMPI PUSH2 0x3A7C DUP3 PUSH1 0x0 ADD PUSH1 0x0 SWAP1 SLOAD SWAP1 PUSH2 0x100 EXP SWAP1 DIV PUSH20 0xFFFFFFFFFFFFFFFFFFFFFFFFFFFFFFFFFFFFFFFF AND PUSH20 0xFFFFFFFFFFFFFFFFFFFFFFFFFFFFFFFFFFFFFFFF AND PUSH4 0x9FBE42E3 DUP5 PUSH1 0x7 ADD SLOAD PUSH1 0x40 MLOAD DUP3 PUSH4 0xFFFFFFFF AND PUSH1 0xE0 SHL DUP2 MSTORE PUSH1 0x4 ADD PUSH2 0x3A1D SWAP2 SWAP1 PUSH2 0x655E JUMP JUMPDEST PUSH1 0x20 PUSH1 0x40 MLOAD DUP1 DUP4 SUB DUP2 DUP7 DUP1 EXTCODESIZE ISZERO DUP1 ISZERO PUSH2 0x3A35 JUMPI PUSH1 0x0 DUP1 REVERT JUMPDEST POP GAS STATICCALL ISZERO DUP1 ISZERO PUSH2 0x3A49 JUMPI RETURNDATASIZE PUSH1 0x0 DUP1 RETURNDATACOPY RETURNDATASIZE PUSH1 0x0 REVERT JUMPDEST POP POP POP POP PUSH1 0x40 MLOAD RETURNDATASIZE PUSH1 0x1F NOT PUSH1 0x1F DUP3 ADD AND DUP3 ADD DUP1 PUSH1 0x40 MSTORE POP DUP2 ADD SWAP1 PUSH2 0x3A6D SWAP2 SWAP1 PUSH2 0x5B70 JUMP JUMPDEST DUP3 PUSH2 0x4A60 SWAP1 SWAP2 SWAP1 PUSH4 0xFFFFFFFF AND JUMP JUMPDEST SWAP1 POP JUMPDEST DUP1 SWAP3 POP POP POP SWAP2 SWAP1 POP JUMP JUMPDEST PUSH1 0x2 PUSH1 0x0 SWAP1 SLOAD SWAP1 PUSH2 0x100 EXP SWAP1 DIV PUSH1 0xFF AND DUP2 JUMP JUMPDEST PUSH1 0x2 PUSH1 0x1 SLOAD EQ ISZERO PUSH2 0x3AE2 JUMPI PUSH1 0x40 MLOAD PUSH32 0x8C379A000000000000000000000000000000000000000000000000000000000 DUP2 MSTORE PUSH1 0x4 ADD PUSH2 0x3AD9 SWAP1 PUSH2 0x6503 JUMP JUMPDEST PUSH1 0x40 MLOAD DUP1 SWAP2 SUB SWAP1 REVERT JUMPDEST PUSH1 0x2 PUSH1 0x1 DUP2 SWAP1 SSTORE POP PUSH1 0x17 PUSH1 0x0 CALLER PUSH20 0xFFFFFFFFFFFFFFFFFFFFFFFFFFFFFFFFFFFFFFFF AND PUSH20 0xFFFFFFFFFFFFFFFFFFFFFFFFFFFFFFFFFFFFFFFF AND DUP2 MSTORE PUSH1 0x20 ADD SWAP1 DUP2 MSTORE PUSH1 0x20 ADD PUSH1 0x0 KECCAK256 PUSH1 0x0 SWAP1 SLOAD SWAP1 PUSH2 0x100 EXP SWAP1 DIV PUSH1 0xFF AND PUSH2 0x3B76 JUMPI PUSH1 0x40 MLOAD PUSH32 0x8C379A000000000000000000000000000000000000000000000000000000000 DUP2 MSTORE PUSH1 0x4 ADD PUSH2 0x3B6D SWAP1 PUSH2 0x6363 JUMP JUMPDEST PUSH1 0x40 MLOAD DUP1 SWAP2 SUB SWAP1 REVERT JUMPDEST PUSH2 0x3B81 DUP4 DUP4 DUP4 PUSH2 0x4DF8 JUMP JUMPDEST PUSH1 0x1 DUP1 DUP2 SWAP1 SSTORE POP POP POP POP JUMP JUMPDEST CALLER PUSH20 0xFFFFFFFFFFFFFFFFFFFFFFFFFFFFFFFFFFFFFFFF AND PUSH2 0x3BAC PUSH2 0x32B1 JUMP JUMPDEST PUSH20 0xFFFFFFFFFFFFFFFFFFFFFFFFFFFFFFFFFFFFFFFF AND EQ DUP1 PUSH2 0x3C1B JUMPI POP CALLER PUSH20 0xFFFFFFFFFFFFFFFFFFFFFFFFFFFFFFFFFFFFFFFF AND PUSH1 0x4 PUSH1 0x0 SWAP1 SLOAD SWAP1 PUSH2 0x100 EXP SWAP1 DIV PUSH20 0xFFFFFFFFFFFFFFFFFFFFFFFFFFFFFFFFFFFFFFFF AND PUSH20 0xFFFFFFFFFFFFFFFFFFFFFFFFFFFFFFFFFFFFFFFF AND EQ JUMPDEST PUSH2 0x3C5A JUMPI PUSH1 0x40 MLOAD PUSH32 0x8C379A000000000000000000000000000000000000000000000000000000000 DUP2 MSTORE PUSH1 0x4 ADD PUSH2 0x3C51 SWAP1 PUSH2 0x64A3 JUMP JUMPDEST PUSH1 0x40 MLOAD DUP1 SWAP2 SUB SWAP1 REVERT JUMPDEST PUSH3 0x15180 TIMESTAMP PUSH2 0x3C69 SWAP2 SWAP1 PUSH2 0x66DA JUMP JUMPDEST PUSH1 0x3 DUP3 PUSH1 0x40 MLOAD PUSH2 0x3C79 SWAP2 SWAP1 PUSH2 0x619D JUMP JUMPDEST SWAP1 DUP2 MSTORE PUSH1 0x20 ADD PUSH1 0x40 MLOAD DUP1 SWAP2 SUB SWAP1 KECCAK256 DUP2 SWAP1 SSTORE POP PUSH1 0x3 DUP2 PUSH1 0x40 MLOAD PUSH2 0x3C9B SWAP2 SWAP1 PUSH2 0x619D JUMP JUMPDEST SWAP1 DUP2 MSTORE PUSH1 0x20 ADD PUSH1 0x40 MLOAD DUP1 SWAP2 SUB SWAP1 KECCAK256 SLOAD DUP2 PUSH1 0x40 MLOAD PUSH2 0x3CB8 SWAP2 SWAP1 PUSH2 0x619D JUMP JUMPDEST PUSH1 0x40 MLOAD DUP1 SWAP2 SUB SWAP1 KECCAK256 PUSH32 0xF77F9A799FE8B0BE1463ABD7459A18FC55DFD8A6A24DDD29B54FD098088089C8 PUSH1 0x40 MLOAD PUSH1 0x40 MLOAD DUP1 SWAP2 SUB SWAP1 LOG3 POP JUMP JUMPDEST PUSH1 0x0 DUP1 PUSH1 0x0 SWAP1 POP PUSH1 0x0 DUP1 JUMPDEST PUSH1 0x8 SLOAD DUP2 GT PUSH2 0x3D78 JUMPI PUSH1 0x0 PUSH1 0x7 DUP3 DUP2 SLOAD DUP2 LT PUSH2 0x3D19 JUMPI PUSH2 0x3D18 PUSH2 0x6DC8 JUMP JUMPDEST JUMPDEST SWAP1 PUSH1 0x0 MSTORE PUSH1 0x20 PUSH1 0x0 KECCAK256 ADD SLOAD GT ISZERO PUSH2 0x3D65 JUMPI PUSH1 0x7 DUP2 DUP2 SLOAD DUP2 LT PUSH2 0x3D3E JUMPI PUSH2 0x3D3D PUSH2 0x6DC8 JUMP JUMPDEST JUMPDEST SWAP1 PUSH1 0x0 MSTORE PUSH1 0x20 PUSH1 0x0 KECCAK256 ADD SLOAD DUP4 PUSH2 0x3D54 SWAP2 SWAP1 PUSH2 0x66DA JUMP JUMPDEST SWAP3 POP DUP2 DUP1 PUSH2 0x3D61 SWAP1 PUSH2 0x6D21 JUMP JUMPDEST SWAP3 POP POP JUMPDEST DUP1 DUP1 PUSH2 0x3D70 SWAP1 PUSH2 0x6D21 JUMP JUMPDEST SWAP2 POP POP PUSH2 0x3CFA JUMP JUMPDEST POP PUSH1 0x0 DUP3 GT DUP1 ISZERO PUSH2 0x3D89 JUMPI POP PUSH1 0x0 DUP2 GT JUMPDEST ISZERO PUSH2 0x3DAA JUMPI PUSH2 0x3DA1 DUP2 DUP4 PUSH2 0x4AA2 SWAP1 SWAP2 SWAP1 PUSH4 0xFFFFFFFF AND JUMP JUMPDEST SWAP3 POP POP POP PUSH2 0x3DB0 JUMP JUMPDEST DUP2 SWAP3 POP POP POP JUMPDEST SWAP1 JUMP JUMPDEST PUSH1 0x2 PUSH1 0x1 SLOAD EQ ISZERO PUSH2 0x3DF9 JUMPI PUSH1 0x40 MLOAD PUSH32 0x8C379A000000000000000000000000000000000000000000000000000000000 DUP2 MSTORE PUSH1 0x4 ADD PUSH2 0x3DF0 SWAP1 PUSH2 0x6503 JUMP JUMPDEST PUSH1 0x40 MLOAD DUP1 SWAP2 SUB SWAP1 REVERT JUMPDEST PUSH1 0x2 PUSH1 0x1 DUP2 SWAP1 SSTORE POP PUSH1 0x0 PUSH1 0xD DUP3 DUP2 SLOAD DUP2 LT PUSH2 0x3E17 JUMPI PUSH2 0x3E16 PUSH2 0x6DC8 JUMP JUMPDEST JUMPDEST SWAP1 PUSH1 0x0 MSTORE PUSH1 0x20 PUSH1 0x0 KECCAK256 SWAP1 PUSH1 0xA MUL ADD SWAP1 POP PUSH1 0x0 PUSH1 0xC PUSH1 0x0 DUP5 DUP2 MSTORE PUSH1 0x20 ADD SWAP1 DUP2 MSTORE PUSH1 0x20 ADD PUSH1 0x0 KECCAK256 PUSH1 0x0 CALLER PUSH20 0xFFFFFFFFFFFFFFFFFFFFFFFFFFFFFFFFFFFFFFFF AND PUSH20 0xFFFFFFFFFFFFFFFFFFFFFFFFFFFFFFFFFFFFFFFF AND DUP2 MSTORE PUSH1 0x20 ADD SWAP1 DUP2 MSTORE PUSH1 0x20 ADD PUSH1 0x0 KECCAK256 SWAP1 POP TIMESTAMP PUSH2 0x3EA5 PUSH3 0x15180 DUP5 PUSH1 0x8 ADD SLOAD PUSH2 0x3E92 SWAP2 SWAP1 PUSH2 0x6A53 JUMP JUMPDEST DUP4 PUSH1 0x2 ADD SLOAD PUSH2 0x4A60 SWAP1 SWAP2 SWAP1 PUSH4 0xFFFFFFFF AND JUMP JUMPDEST GT ISZERO PUSH2 0x3EE6 JUMPI PUSH1 0x40 MLOAD PUSH32 0x8C379A000000000000000000000000000000000000000000000000000000000 DUP2 MSTORE PUSH1 0x4 ADD PUSH2 0x3EDD SWAP1 PUSH2 0x63E3 JUMP JUMPDEST PUSH1 0x40 MLOAD DUP1 SWAP2 SUB SWAP1 REVERT JUMPDEST PUSH1 0x0 DUP2 PUSH1 0x0 ADD SLOAD SWAP1 POP PUSH2 0x3F06 DUP2 DUP5 PUSH1 0x6 ADD SLOAD PUSH2 0x4A76 SWAP1 SWAP2 SWAP1 PUSH4 0xFFFFFFFF AND JUMP JUMPDEST DUP4 PUSH1 0x6 ADD DUP2 SWAP1 SSTORE POP PUSH1 0x0 DUP3 PUSH1 0x0 ADD DUP2 SWAP1 SSTORE POP PUSH1 0x0 DUP3 PUSH1 0x1 ADD DUP2 SWAP1 SSTORE POP PUSH1 0x0 PUSH20 0xFFFFFFFFFFFFFFFFFFFFFFFFFFFFFFFFFFFFFFFF AND DUP4 PUSH1 0x0 ADD PUSH1 0x0 SWAP1 SLOAD SWAP1 PUSH2 0x100 EXP SWAP1 DIV PUSH20 0xFFFFFFFFFFFFFFFFFFFFFFFFFFFFFFFFFFFFFFFF AND PUSH20 0xFFFFFFFFFFFFFFFFFFFFFFFFFFFFFFFFFFFFFFFF AND EQ PUSH2 0x4016 JUMPI DUP3 PUSH1 0x0 ADD PUSH1 0x0 SWAP1 SLOAD SWAP1 PUSH2 0x100 EXP SWAP1 DIV PUSH20 0xFFFFFFFFFFFFFFFFFFFFFFFFFFFFFFFFFFFFFFFF AND PUSH20 0xFFFFFFFFFFFFFFFFFFFFFFFFFFFFFFFFFFFFFFFF AND PUSH4 0xF72B2A4C DUP5 PUSH1 0x7 ADD SLOAD DUP4 CALLER PUSH1 0x40 MLOAD DUP5 PUSH4 0xFFFFFFFF AND PUSH1 0xE0 SHL DUP2 MSTORE PUSH1 0x4 ADD PUSH2 0x3FDF SWAP4 SWAP3 SWAP2 SWAP1 PUSH2 0x65D9 JUMP JUMPDEST PUSH1 0x0 PUSH1 0x40 MLOAD DUP1 DUP4 SUB DUP2 PUSH1 0x0 DUP8 DUP1 EXTCODESIZE ISZERO DUP1 ISZERO PUSH2 0x3FF9 JUMPI PUSH1 0x0 DUP1 REVERT JUMPDEST POP GAS CALL ISZERO DUP1 ISZERO PUSH2 0x400D JUMPI RETURNDATASIZE PUSH1 0x0 DUP1 RETURNDATACOPY RETURNDATASIZE PUSH1 0x0 REVERT JUMPDEST POP POP POP POP PUSH2 0x4066 JUMP JUMPDEST PUSH2 0x4065 CALLER DUP3 DUP6 PUSH1 0x1 ADD PUSH1 0x0 SWAP1 SLOAD SWAP1 PUSH2 0x100 EXP SWAP1 DIV PUSH20 0xFFFFFFFFFFFFFFFFFFFFFFFFFFFFFFFFFFFFFFFF AND PUSH20 0xFFFFFFFFFFFFFFFFFFFFFFFFFFFFFFFFFFFFFFFF AND PUSH2 0x4CAE SWAP1 SWAP3 SWAP2 SWAP1 PUSH4 0xFFFFFFFF AND JUMP JUMPDEST JUMPDEST PUSH1 0x5 PUSH1 0x0 SWAP1 SLOAD SWAP1 PUSH2 0x100 EXP SWAP1 DIV PUSH20 0xFFFFFFFFFFFFFFFFFFFFFFFFFFFFFFFFFFFFFFFF AND PUSH20 0xFFFFFFFFFFFFFFFFFFFFFFFFFFFFFFFFFFFFFFFF AND DUP4 PUSH1 0x1 ADD PUSH1 0x0 SWAP1 SLOAD SWAP1 PUSH2 0x100 EXP SWAP1 DIV PUSH20 0xFFFFFFFFFFFFFFFFFFFFFFFFFFFFFFFFFFFFFFFF AND PUSH20 0xFFFFFFFFFFFFFFFFFFFFFFFFFFFFFFFFFFFFFFFF AND EQ ISZERO PUSH2 0x40FC JUMPI PUSH2 0x40F5 DUP2 PUSH1 0x13 SLOAD PUSH2 0x4A76 SWAP1 SWAP2 SWAP1 PUSH4 0xFFFFFFFF AND JUMP JUMPDEST PUSH1 0x13 DUP2 SWAP1 SSTORE POP JUMPDEST DUP4 CALLER PUSH20 0xFFFFFFFFFFFFFFFFFFFFFFFFFFFFFFFFFFFFFFFF AND PUSH32 0xBB757047C2B5F3974FE26B7C10F732E7BCE710B0952A71082702781E62AE0595 DUP4 PUSH1 0x40 MLOAD PUSH2 0x4143 SWAP2 SWAP1 PUSH2 0x655E JUMP JUMPDEST PUSH1 0x40 MLOAD DUP1 SWAP2 SUB SWAP1 LOG3 POP POP POP PUSH1 0x1 DUP1 DUP2 SWAP1 SSTORE POP POP JUMP JUMPDEST PUSH1 0x0 DUP1 PUSH1 0x10 SLOAD SWAP1 POP DUP3 ISZERO PUSH2 0x41A7 JUMPI PUSH2 0x41A0 PUSH2 0x4191 PUSH3 0xF4240 PUSH2 0x4183 DUP8 DUP6 PUSH2 0x4A8C SWAP1 SWAP2 SWAP1 PUSH4 0xFFFFFFFF AND JUMP JUMPDEST PUSH2 0x4AA2 SWAP1 SWAP2 SWAP1 PUSH4 0xFFFFFFFF AND JUMP JUMPDEST DUP3 PUSH2 0x4A60 SWAP1 SWAP2 SWAP1 PUSH4 0xFFFFFFFF AND JUMP JUMPDEST SWAP1 POP PUSH2 0x41E4 JUMP JUMPDEST PUSH2 0x41E1 PUSH2 0x41D2 PUSH3 0xF4240 PUSH2 0x41C4 DUP8 DUP6 PUSH2 0x4A8C SWAP1 SWAP2 SWAP1 PUSH4 0xFFFFFFFF AND JUMP JUMPDEST PUSH2 0x4AA2 SWAP1 SWAP2 SWAP1 PUSH4 0xFFFFFFFF AND JUMP JUMPDEST DUP3 PUSH2 0x4A76 SWAP1 SWAP2 SWAP1 PUSH4 0xFFFFFFFF AND JUMP JUMPDEST SWAP1 POP JUMPDEST DUP1 SWAP2 POP POP SWAP3 SWAP2 POP POP JUMP JUMPDEST PUSH2 0x41F6 PUSH2 0x4AB8 JUMP JUMPDEST PUSH20 0xFFFFFFFFFFFFFFFFFFFFFFFFFFFFFFFFFFFFFFFF AND PUSH2 0x4214 PUSH2 0x32B1 JUMP JUMPDEST PUSH20 0xFFFFFFFFFFFFFFFFFFFFFFFFFFFFFFFFFFFFFFFF AND EQ PUSH2 0x426A JUMPI PUSH1 0x40 MLOAD PUSH32 0x8C379A000000000000000000000000000000000000000000000000000000000 DUP2 MSTORE PUSH1 0x4 ADD PUSH2 0x4261 SWAP1 PUSH2 0x6443 JUMP JUMPDEST PUSH1 0x40 MLOAD DUP1 SWAP2 SUB SWAP1 REVERT JUMPDEST PUSH1 0x40 MLOAD DUP1 PUSH1 0x40 ADD PUSH1 0x40 MSTORE DUP1 PUSH1 0xD DUP2 MSTORE PUSH1 0x20 ADD PUSH32 0x7365744465764164647265737300000000000000000000000000000000000000 DUP2 MSTORE POP PUSH1 0x2 PUSH1 0x0 SWAP1 SLOAD SWAP1 PUSH2 0x100 EXP SWAP1 DIV PUSH1 0xFF AND ISZERO DUP1 PUSH2 0x433D JUMPI POP PUSH1 0x0 PUSH1 0x3 DUP3 PUSH1 0x40 MLOAD PUSH2 0x42C9 SWAP2 SWAP1 PUSH2 0x619D JUMP JUMPDEST SWAP1 DUP2 MSTORE PUSH1 0x20 ADD PUSH1 0x40 MLOAD DUP1 SWAP2 SUB SWAP1 KECCAK256 SLOAD EQ ISZERO DUP1 ISZERO PUSH2 0x4304 JUMPI POP TIMESTAMP PUSH1 0x3 DUP3 PUSH1 0x40 MLOAD PUSH2 0x42F2 SWAP2 SWAP1 PUSH2 0x619D JUMP JUMPDEST SWAP1 DUP2 MSTORE PUSH1 0x20 ADD PUSH1 0x40 MLOAD DUP1 SWAP2 SUB SWAP1 KECCAK256 SLOAD GT ISZERO JUMPDEST DUP1 ISZERO PUSH2 0x433C JUMPI POP TIMESTAMP PUSH3 0x15180 PUSH1 0x3 DUP4 PUSH1 0x40 MLOAD PUSH2 0x4320 SWAP2 SWAP1 PUSH2 0x619D JUMP JUMPDEST SWAP1 DUP2 MSTORE PUSH1 0x20 ADD PUSH1 0x40 MLOAD DUP1 SWAP2 SUB SWAP1 KECCAK256 SLOAD PUSH2 0x4339 SWAP2 SWAP1 PUSH2 0x66DA JUMP JUMPDEST LT ISZERO JUMPDEST JUMPDEST PUSH2 0x437C JUMPI PUSH1 0x40 MLOAD PUSH32 0x8C379A000000000000000000000000000000000000000000000000000000000 DUP2 MSTORE PUSH1 0x4 ADD PUSH2 0x4373 SWAP1 PUSH2 0x6483 JUMP JUMPDEST PUSH1 0x40 MLOAD DUP1 SWAP2 SUB SWAP1 REVERT JUMPDEST PUSH1 0x0 PUSH20 0xFFFFFFFFFFFFFFFFFFFFFFFFFFFFFFFFFFFFFFFF AND DUP3 PUSH20 0xFFFFFFFFFFFFFFFFFFFFFFFFFFFFFFFFFFFFFFFF AND EQ ISZERO PUSH2 0x43EC JUMPI PUSH1 0x40 MLOAD PUSH32 0x8C379A000000000000000000000000000000000000000000000000000000000 DUP2 MSTORE PUSH1 0x4 ADD PUSH2 0x43E3 SWAP1 PUSH2 0x63C3 JUMP JUMPDEST PUSH1 0x40 MLOAD DUP1 SWAP2 SUB SWAP1 REVERT JUMPDEST DUP2 PUSH1 0xE PUSH1 0x0 PUSH2 0x100 EXP DUP2 SLOAD DUP2 PUSH20 0xFFFFFFFFFFFFFFFFFFFFFFFFFFFFFFFFFFFFFFFF MUL NOT AND SWAP1 DUP4 PUSH20 0xFFFFFFFFFFFFFFFFFFFFFFFFFFFFFFFFFFFFFFFF AND MUL OR SWAP1 SSTORE POP DUP2 PUSH20 0xFFFFFFFFFFFFFFFFFFFFFFFFFFFFFFFFFFFFFFFF AND CALLER PUSH20 0xFFFFFFFFFFFFFFFFFFFFFFFFFFFFFFFFFFFFFFFF AND PUSH32 0x618C54559E94F1499A808AAD71EE8729F8E74E8C48E979616328CE493A1A52E7 PUSH1 0x40 MLOAD PUSH1 0x40 MLOAD DUP1 SWAP2 SUB SWAP1 LOG3 PUSH2 0x4490 DUP2 PUSH2 0x382B JUMP JUMPDEST POP POP JUMP JUMPDEST PUSH1 0x17 PUSH1 0x20 MSTORE DUP1 PUSH1 0x0 MSTORE PUSH1 0x40 PUSH1 0x0 KECCAK256 PUSH1 0x0 SWAP2 POP SLOAD SWAP1 PUSH2 0x100 EXP SWAP1 DIV PUSH1 0xFF AND DUP2 JUMP JUMPDEST PUSH1 0xA SLOAD DUP2 JUMP JUMPDEST PUSH1 0x2 PUSH1 0x1 SLOAD EQ ISZERO PUSH2 0x4500 JUMPI PUSH1 0x40 MLOAD PUSH32 0x8C379A000000000000000000000000000000000000000000000000000000000 DUP2 MSTORE PUSH1 0x4 ADD PUSH2 0x44F7 SWAP1 PUSH2 0x6503 JUMP JUMPDEST PUSH1 0x40 MLOAD DUP1 SWAP2 SUB SWAP1 REVERT JUMPDEST PUSH1 0x2 PUSH1 0x1 DUP2 SWAP1 SSTORE POP PUSH2 0x4513 DUP3 DUP3 CALLER PUSH2 0x4DF8 JUMP JUMPDEST PUSH1 0x1 DUP1 DUP2 SWAP1 SSTORE POP POP POP JUMP JUMPDEST PUSH1 0x0 DUP1 DUP3 PUSH2 0x2710 PUSH1 0x64 DUP6 DUP8 PUSH2 0x4533 SWAP2 SWAP1 PUSH2 0x6AAD JUMP JUMPDEST PUSH2 0x453D SWAP2 SWAP1 PUSH2 0x693C JUMP JUMPDEST PUSH2 0x4547 SWAP2 SWAP1 PUSH2 0x693C JUMP JUMPDEST PUSH2 0x4551 SWAP2 SWAP1 PUSH2 0x6730 JUMP JUMPDEST SWAP1 POP PUSH1 0x0 DUP2 SLT ISZERO PUSH2 0x458B JUMPI PUSH32 0xFFFFFFFFFFFFFFFFFFFFFFFFFFFFFFFFFFFFFFFFFFFFFFFFFFFFFFFFFFFFFFFF DUP2 PUSH2 0x4588 SWAP2 SWAP1 PUSH2 0x693C JUMP JUMPDEST SWAP1 POP JUMPDEST PUSH1 0x0 DUP2 SWAP1 POP DUP1 SWAP3 POP POP POP SWAP3 SWAP2 POP POP JUMP JUMPDEST PUSH1 0x0 DUP1 PUSH1 0xD DUP5 DUP2 SLOAD DUP2 LT PUSH2 0x45B2 JUMPI PUSH2 0x45B1 PUSH2 0x6DC8 JUMP JUMPDEST JUMPDEST SWAP1 PUSH1 0x0 MSTORE PUSH1 0x20 PUSH1 0x0 KECCAK256 SWAP1 PUSH1 0xA MUL ADD SWAP1 POP PUSH1 0x0 PUSH1 0xC PUSH1 0x0 DUP7 DUP2 MSTORE PUSH1 0x20 ADD SWAP1 DUP2 MSTORE PUSH1 0x20 ADD PUSH1 0x0 KECCAK256 PUSH1 0x0 DUP6 PUSH20 0xFFFFFFFFFFFFFFFFFFFFFFFFFFFFFFFFFFFFFFFF AND PUSH20 0xFFFFFFFFFFFFFFFFFFFFFFFFFFFFFFFFFFFFFFFF AND DUP2 MSTORE PUSH1 0x20 ADD SWAP1 DUP2 MSTORE PUSH1 0x20 ADD PUSH1 0x0 KECCAK256 SWAP1 POP PUSH1 0x0 DUP3 PUSH1 0x4 ADD SLOAD SWAP1 POP PUSH1 0x0 PUSH2 0x462A DUP8 PUSH2 0x2A82 JUMP JUMPDEST SWAP1 POP DUP4 PUSH1 0x3 ADD SLOAD NUMBER GT DUP1 ISZERO PUSH2 0x4640 JUMPI POP PUSH1 0x0 DUP2 EQ ISZERO JUMPDEST ISZERO PUSH2 0x46E4 JUMPI PUSH1 0x0 PUSH2 0x465E DUP6 PUSH1 0x3 ADD SLOAD NUMBER PUSH2 0x4A76 SWAP1 SWAP2 SWAP1 PUSH4 0xFFFFFFFF AND JUMP JUMPDEST SWAP1 POP PUSH1 0x0 PUSH2 0x46A1 PUSH1 0x12 SLOAD PUSH2 0x4693 DUP9 PUSH1 0x2 ADD SLOAD PUSH2 0x4685 PUSH1 0x10 SLOAD DUP8 PUSH2 0x4A8C SWAP1 SWAP2 SWAP1 PUSH4 0xFFFFFFFF AND JUMP JUMPDEST PUSH2 0x4A8C SWAP1 SWAP2 SWAP1 PUSH4 0xFFFFFFFF AND JUMP JUMPDEST PUSH2 0x4AA2 SWAP1 SWAP2 SWAP1 PUSH4 0xFFFFFFFF AND JUMP JUMPDEST SWAP1 POP PUSH2 0x46DF PUSH2 0x46D0 DUP5 PUSH2 0x46C2 PUSH5 0xE8D4A51000 DUP6 PUSH2 0x4A8C SWAP1 SWAP2 SWAP1 PUSH4 0xFFFFFFFF AND JUMP JUMPDEST PUSH2 0x4AA2 SWAP1 SWAP2 SWAP1 PUSH4 0xFFFFFFFF AND JUMP JUMPDEST DUP6 PUSH2 0x4A60 SWAP1 SWAP2 SWAP1 PUSH4 0xFFFFFFFF AND JUMP JUMPDEST SWAP4 POP POP POP JUMPDEST PUSH2 0x4728 DUP4 PUSH1 0x1 ADD SLOAD PUSH2 0x471A PUSH5 0xE8D4A51000 PUSH2 0x470C DUP7 DUP9 PUSH1 0x0 ADD SLOAD PUSH2 0x4A8C SWAP1 SWAP2 SWAP1 PUSH4 0xFFFFFFFF AND JUMP JUMPDEST PUSH2 0x4AA2 SWAP1 SWAP2 SWAP1 PUSH4 0xFFFFFFFF AND JUMP JUMPDEST PUSH2 0x4A76 SWAP1 SWAP2 SWAP1 PUSH4 0xFFFFFFFF AND JUMP JUMPDEST SWAP5 POP POP POP POP POP SWAP3 SWAP2 POP POP JUMP JUMPDEST PUSH1 0x14 SLOAD DUP2 JUMP JUMPDEST PUSH2 0x4742 PUSH2 0x4AB8 JUMP JUMPDEST PUSH20 0xFFFFFFFFFFFFFFFFFFFFFFFFFFFFFFFFFFFFFFFF AND PUSH2 0x4760 PUSH2 0x32B1 JUMP JUMPDEST PUSH20 0xFFFFFFFFFFFFFFFFFFFFFFFFFFFFFFFFFFFFFFFF AND EQ PUSH2 0x47B6 JUMPI PUSH1 0x40 MLOAD PUSH32 0x8C379A000000000000000000000000000000000000000000000000000000000 DUP2 MSTORE PUSH1 0x4 ADD PUSH2 0x47AD SWAP1 PUSH2 0x6443 JUMP JUMPDEST PUSH1 0x40 MLOAD DUP1 SWAP2 SUB SWAP1 REVERT JUMPDEST DUP1 PUSH1 0x16 PUSH1 0x0 PUSH2 0x100 EXP DUP2 SLOAD DUP2 PUSH2 0xFFFF MUL NOT AND SWAP1 DUP4 PUSH2 0xFFFF AND MUL OR SWAP1 SSTORE POP CALLER PUSH20 0xFFFFFFFFFFFFFFFFFFFFFFFFFFFFFFFFFFFFFFFF AND PUSH32 0xBAD81196170FB9427A5CE7ABE0FDF496BB5F5F8BDBACBD118FE8FD7760248B26 DUP3 PUSH1 0x40 MLOAD PUSH2 0x4819 SWAP2 SWAP1 PUSH2 0x6543 JUMP JUMPDEST PUSH1 0x40 MLOAD DUP1 SWAP2 SUB SWAP1 LOG2 POP JUMP JUMPDEST PUSH2 0x482C PUSH2 0x4AB8 JUMP JUMPDEST PUSH20 0xFFFFFFFFFFFFFFFFFFFFFFFFFFFFFFFFFFFFFFFF AND PUSH2 0x484A PUSH2 0x32B1 JUMP JUMPDEST PUSH20 0xFFFFFFFFFFFFFFFFFFFFFFFFFFFFFFFFFFFFFFFF AND EQ PUSH2 0x48A0 JUMPI PUSH1 0x40 MLOAD PUSH32 0x8C379A000000000000000000000000000000000000000000000000000000000 DUP2 MSTORE PUSH1 0x4 ADD PUSH2 0x4897 SWAP1 PUSH2 0x6443 JUMP JUMPDEST PUSH1 0x40 MLOAD DUP1 SWAP2 SUB SWAP1 REVERT JUMPDEST PUSH1 0x0 PUSH20 0xFFFFFFFFFFFFFFFFFFFFFFFFFFFFFFFFFFFFFFFF AND DUP2 PUSH20 0xFFFFFFFFFFFFFFFFFFFFFFFFFFFFFFFFFFFFFFFF AND EQ ISZERO PUSH2 0x4910 JUMPI PUSH1 0x40 MLOAD PUSH32 0x8C379A000000000000000000000000000000000000000000000000000000000 DUP2 MSTORE PUSH1 0x4 ADD PUSH2 0x4907 SWAP1 PUSH2 0x6343 JUMP JUMPDEST PUSH1 0x40 MLOAD DUP1 SWAP2 SUB SWAP1 REVERT JUMPDEST PUSH2 0x4919 DUP2 PUSH2 0x4D34 JUMP JUMPDEST POP JUMP JUMPDEST CALLER PUSH20 0xFFFFFFFFFFFFFFFFFFFFFFFFFFFFFFFFFFFFFFFF AND PUSH2 0x493B PUSH2 0x32B1 JUMP JUMPDEST PUSH20 0xFFFFFFFFFFFFFFFFFFFFFFFFFFFFFFFFFFFFFFFF AND EQ DUP1 PUSH2 0x49AA JUMPI POP CALLER PUSH20 0xFFFFFFFFFFFFFFFFFFFFFFFFFFFFFFFFFFFFFFFF AND PUSH1 0x4 PUSH1 0x0 SWAP1 SLOAD SWAP1 PUSH2 0x100 EXP SWAP1 DIV PUSH20 0xFFFFFFFFFFFFFFFFFFFFFFFFFFFFFFFFFFFFFFFF AND PUSH20 0xFFFFFFFFFFFFFFFFFFFFFFFFFFFFFFFFFFFFFFFF AND EQ JUMPDEST PUSH2 0x49E9 JUMPI PUSH1 0x40 MLOAD PUSH32 0x8C379A000000000000000000000000000000000000000000000000000000000 DUP2 MSTORE PUSH1 0x4 ADD PUSH2 0x49E0 SWAP1 PUSH2 0x64A3 JUMP JUMPDEST PUSH1 0x40 MLOAD DUP1 SWAP2 SUB SWAP1 REVERT JUMPDEST PUSH1 0x1 PUSH1 0x2 PUSH1 0x0 PUSH2 0x100 EXP DUP2 SLOAD DUP2 PUSH1 0xFF MUL NOT AND SWAP1 DUP4 ISZERO ISZERO MUL OR SWAP1 SSTORE POP PUSH32 0x2C08B62BFAC9A1B19BB1DEC9323F1CE01696A77948B256ABF3603D30F25A864E PUSH1 0x40 MLOAD PUSH1 0x40 MLOAD DUP1 SWAP2 SUB SWAP1 LOG1 JUMP JUMPDEST PUSH1 0x3 DUP2 DUP1 MLOAD PUSH1 0x20 DUP2 ADD DUP3 ADD DUP1 MLOAD DUP5 DUP3 MSTORE PUSH1 0x20 DUP4 ADD PUSH1 0x20 DUP6 ADD KECCAK256 DUP2 DUP4 MSTORE DUP1 SWAP6 POP POP POP POP POP POP PUSH1 0x0 SWAP2 POP SWAP1 POP SLOAD DUP2 JUMP JUMPDEST PUSH1 0x0 DUP2 DUP4 PUSH2 0x4A6E SWAP2 SWAP1 PUSH2 0x66DA JUMP JUMPDEST SWAP1 POP SWAP3 SWAP2 POP POP JUMP JUMPDEST PUSH1 0x0 DUP2 DUP4 PUSH2 0x4A84 SWAP2 SWAP1 PUSH2 0x6B41 JUMP JUMPDEST SWAP1 POP SWAP3 SWAP2 POP POP JUMP JUMPDEST PUSH1 0x0 DUP2 DUP4 PUSH2 0x4A9A SWAP2 SWAP1 PUSH2 0x6A53 JUMP JUMPDEST SWAP1 POP SWAP3 SWAP2 POP POP JUMP JUMPDEST PUSH1 0x0 DUP2 DUP4 PUSH2 0x4AB0 SWAP2 SWAP1 PUSH2 0x679A JUMP JUMPDEST SWAP1 POP SWAP3 SWAP2 POP POP JUMP JUMPDEST PUSH1 0x0 CALLER SWAP1 POP SWAP1 JUMP JUMPDEST PUSH1 0x0 PUSH1 0x5 PUSH1 0x0 SWAP1 SLOAD SWAP1 PUSH2 0x100 EXP SWAP1 DIV PUSH20 0xFFFFFFFFFFFFFFFFFFFFFFFFFFFFFFFFFFFFFFFF AND SWAP1 POP PUSH1 0x0 PUSH2 0x4B86 PUSH1 0x13 SLOAD DUP4 PUSH20 0xFFFFFFFFFFFFFFFFFFFFFFFFFFFFFFFFFFFFFFFF AND PUSH4 0x70A08231 ADDRESS PUSH1 0x40 MLOAD DUP3 PUSH4 0xFFFFFFFF AND PUSH1 0xE0 SHL DUP2 MSTORE PUSH1 0x4 ADD PUSH2 0x4B28 SWAP2 SWAP1 PUSH2 0x61B4 JUMP JUMPDEST PUSH1 0x20 PUSH1 0x40 MLOAD DUP1 DUP4 SUB DUP2 DUP7 DUP1 EXTCODESIZE ISZERO DUP1 ISZERO PUSH2 0x4B40 JUMPI PUSH1 0x0 DUP1 REVERT JUMPDEST POP GAS STATICCALL ISZERO DUP1 ISZERO PUSH2 0x4B54 JUMPI RETURNDATASIZE PUSH1 0x0 DUP1 RETURNDATACOPY RETURNDATASIZE PUSH1 0x0 REVERT JUMPDEST POP POP POP POP PUSH1 0x40 MLOAD RETURNDATASIZE PUSH1 0x1F NOT PUSH1 0x1F DUP3 ADD AND DUP3 ADD DUP1 PUSH1 0x40 MSTORE POP DUP2 ADD SWAP1 PUSH2 0x4B78 SWAP2 SWAP1 PUSH2 0x5B70 JUMP JUMPDEST PUSH2 0x4A76 SWAP1 SWAP2 SWAP1 PUSH4 0xFFFFFFFF AND JUMP JUMPDEST SWAP1 POP DUP1 DUP4 GT ISZERO PUSH2 0x4BC0 JUMPI PUSH2 0x4BBB DUP5 DUP3 DUP5 PUSH20 0xFFFFFFFFFFFFFFFFFFFFFFFFFFFFFFFFFFFFFFFF AND PUSH2 0x4CAE SWAP1 SWAP3 SWAP2 SWAP1 PUSH4 0xFFFFFFFF AND JUMP JUMPDEST PUSH2 0x4BEC JUMP JUMPDEST PUSH2 0x4BEB DUP5 DUP5 DUP5 PUSH20 0xFFFFFFFFFFFFFFFFFFFFFFFFFFFFFFFFFFFFFFFF AND PUSH2 0x4CAE SWAP1 SWAP3 SWAP2 SWAP1 PUSH4 0xFFFFFFFF AND JUMP JUMPDEST JUMPDEST POP POP POP POP JUMP JUMPDEST PUSH1 0xA SLOAD PUSH1 0xB DUP2 SWAP1 SSTORE POP DUP1 PUSH1 0xA DUP2 SWAP1 SSTORE POP PUSH1 0xA SLOAD PUSH1 0xB SLOAD PUSH32 0x4DB09FF035E174C21F4ED503B26C1FE141926CAA59E40FE975BDA1583C3EBFBA PUSH1 0x40 MLOAD PUSH1 0x40 MLOAD DUP1 SWAP2 SUB SWAP1 LOG3 POP JUMP JUMPDEST PUSH1 0x0 PUSH2 0x4C47 PUSH1 0xA SLOAD PUSH1 0xB SLOAD PUSH2 0x451E JUMP JUMPDEST SWAP1 POP PUSH1 0x16 PUSH1 0x0 SWAP1 SLOAD SWAP1 PUSH2 0x100 EXP SWAP1 DIV PUSH2 0xFFFF AND PUSH2 0xFFFF AND DUP2 GT ISZERO PUSH2 0x4C7D JUMPI PUSH1 0x16 PUSH1 0x0 SWAP1 SLOAD SWAP1 PUSH2 0x100 EXP SWAP1 DIV PUSH2 0xFFFF AND PUSH2 0xFFFF AND SWAP1 POP JUMPDEST PUSH1 0x0 PUSH2 0x4C8F DUP3 PUSH1 0xB SLOAD PUSH1 0xA SLOAD GT PUSH2 0x4158 JUMP JUMPDEST SWAP1 POP DUP2 PUSH1 0x15 DUP2 SWAP1 SSTORE POP PUSH1 0xA SLOAD PUSH1 0xA DUP2 SWAP1 SSTORE POP PUSH2 0x4CAA DUP2 PUSH2 0x53C7 JUMP JUMPDEST POP POP JUMP JUMPDEST PUSH2 0x4D2F DUP4 PUSH4 0xA9059CBB PUSH1 0xE0 SHL DUP5 DUP5 PUSH1 0x40 MLOAD PUSH1 0x24 ADD PUSH2 0x4CCD SWAP3 SWAP2 SWAP1 PUSH2 0x6206 JUMP JUMPDEST PUSH1 0x40 MLOAD PUSH1 0x20 DUP2 DUP4 SUB SUB DUP2 MSTORE SWAP1 PUSH1 0x40 MSTORE SWAP1 PUSH28 0xFFFFFFFFFFFFFFFFFFFFFFFFFFFFFFFFFFFFFFFFFFFFFFFFFFFFFFFF NOT AND PUSH1 0x20 DUP3 ADD DUP1 MLOAD PUSH28 0xFFFFFFFFFFFFFFFFFFFFFFFFFFFFFFFFFFFFFFFFFFFFFFFFFFFFFFFF DUP4 DUP2 DUP4 AND OR DUP4 MSTORE POP POP POP POP PUSH2 0x5427 JUMP JUMPDEST POP POP POP JUMP JUMPDEST PUSH1 0x0 DUP1 PUSH1 0x0 SWAP1 SLOAD SWAP1 PUSH2 0x100 EXP SWAP1 DIV PUSH20 0xFFFFFFFFFFFFFFFFFFFFFFFFFFFFFFFFFFFFFFFF AND SWAP1 POP DUP2 PUSH1 0x0 DUP1 PUSH2 0x100 EXP DUP2 SLOAD DUP2 PUSH20 0xFFFFFFFFFFFFFFFFFFFFFFFFFFFFFFFFFFFFFFFF MUL NOT AND SWAP1 DUP4 PUSH20 0xFFFFFFFFFFFFFFFFFFFFFFFFFFFFFFFFFFFFFFFF AND MUL OR SWAP1 SSTORE POP DUP2 PUSH20 0xFFFFFFFFFFFFFFFFFFFFFFFFFFFFFFFFFFFFFFFF AND DUP2 PUSH20 0xFFFFFFFFFFFFFFFFFFFFFFFFFFFFFFFFFFFFFFFF AND PUSH32 0x8BE0079C531659141344CD1FD0A4F28419497F9722A3DAAFE3B4186F6B6457E0 PUSH1 0x40 MLOAD PUSH1 0x40 MLOAD DUP1 SWAP2 SUB SWAP1 LOG3 POP POP JUMP JUMPDEST PUSH1 0x0 PUSH1 0xD DUP5 DUP2 SLOAD DUP2 LT PUSH2 0x4E0E JUMPI PUSH2 0x4E0D PUSH2 0x6DC8 JUMP JUMPDEST JUMPDEST SWAP1 PUSH1 0x0 MSTORE PUSH1 0x20 PUSH1 0x0 KECCAK256 SWAP1 PUSH1 0xA MUL ADD SWAP1 POP PUSH1 0x0 PUSH1 0xC PUSH1 0x0 DUP7 DUP2 MSTORE PUSH1 0x20 ADD SWAP1 DUP2 MSTORE PUSH1 0x20 ADD PUSH1 0x0 KECCAK256 PUSH1 0x0 DUP5 PUSH20 0xFFFFFFFFFFFFFFFFFFFFFFFFFFFFFFFFFFFFFFFF AND PUSH20 0xFFFFFFFFFFFFFFFFFFFFFFFFFFFFFFFFFFFFFFFF AND DUP2 MSTORE PUSH1 0x20 ADD SWAP1 DUP2 MSTORE PUSH1 0x20 ADD PUSH1 0x0 KECCAK256 SWAP1 POP PUSH2 0x4E7B DUP6 PUSH2 0x2496 JUMP JUMPDEST PUSH1 0x0 DUP2 PUSH1 0x0 ADD SLOAD GT DUP1 ISZERO PUSH2 0x4EBA JUMPI POP CALLER PUSH20 0xFFFFFFFFFFFFFFFFFFFFFFFFFFFFFFFFFFFFFFFF AND DUP4 PUSH20 0xFFFFFFFFFFFFFFFFFFFFFFFFFFFFFFFFFFFFFFFF AND EQ JUMPDEST ISZERO PUSH2 0x4F21 JUMPI PUSH1 0x0 PUSH2 0x4F09 DUP3 PUSH1 0x1 ADD SLOAD PUSH2 0x4EFB PUSH5 0xE8D4A51000 PUSH2 0x4EED DUP8 PUSH1 0x4 ADD SLOAD DUP8 PUSH1 0x0 ADD SLOAD PUSH2 0x4A8C SWAP1 SWAP2 SWAP1 PUSH4 0xFFFFFFFF AND JUMP JUMPDEST PUSH2 0x4AA2 SWAP1 SWAP2 SWAP1 PUSH4 0xFFFFFFFF AND JUMP JUMPDEST PUSH2 0x4A76 SWAP1 SWAP2 SWAP1 PUSH4 0xFFFFFFFF AND JUMP JUMPDEST SWAP1 POP PUSH1 0x0 DUP2 GT ISZERO PUSH2 0x4F1F JUMPI PUSH2 0x4F1E DUP5 DUP3 PUSH2 0x4AC0 JUMP JUMPDEST JUMPDEST POP JUMPDEST PUSH1 0x0 DUP5 SWAP1 POP PUSH1 0x0 DUP6 GT ISZERO PUSH2 0x5298 JUMPI TIMESTAMP DUP3 PUSH1 0x2 ADD DUP2 SWAP1 SSTORE POP PUSH2 0x4F89 CALLER ADDRESS DUP8 DUP7 PUSH1 0x1 ADD PUSH1 0x0 SWAP1 SLOAD SWAP1 PUSH2 0x100 EXP SWAP1 DIV PUSH20 0xFFFFFFFFFFFFFFFFFFFFFFFFFFFFFFFFFFFFFFFF AND PUSH20 0xFFFFFFFFFFFFFFFFFFFFFFFFFFFFFFFFFFFFFFFF AND PUSH2 0x54EE SWAP1 SWAP4 SWAP3 SWAP2 SWAP1 PUSH4 0xFFFFFFFF AND JUMP JUMPDEST PUSH1 0x0 DUP4 PUSH1 0x5 ADD PUSH1 0x0 SWAP1 SLOAD SWAP1 PUSH2 0x100 EXP SWAP1 DIV PUSH2 0xFFFF AND PUSH2 0xFFFF AND GT ISZERO PUSH2 0x5094 JUMPI PUSH1 0x0 PUSH2 0x4FE7 PUSH2 0x2710 PUSH2 0x4FD9 DUP7 PUSH1 0x5 ADD PUSH1 0x0 SWAP1 SLOAD SWAP1 PUSH2 0x100 EXP SWAP1 DIV PUSH2 0xFFFF AND PUSH2 0xFFFF AND DUP10 PUSH2 0x4A8C SWAP1 SWAP2 SWAP1 PUSH4 0xFFFFFFFF AND JUMP JUMPDEST PUSH2 0x4AA2 SWAP1 SWAP2 SWAP1 PUSH4 0xFFFFFFFF AND JUMP JUMPDEST SWAP1 POP PUSH2 0x505A PUSH1 0xF PUSH1 0x0 SWAP1 SLOAD SWAP1 PUSH2 0x100 EXP SWAP1 DIV PUSH20 0xFFFFFFFFFFFFFFFFFFFFFFFFFFFFFFFFFFFFFFFF AND DUP3 DUP7 PUSH1 0x1 ADD PUSH1 0x0 SWAP1 SLOAD SWAP1 PUSH2 0x100 EXP SWAP1 DIV PUSH20 0xFFFFFFFFFFFFFFFFFFFFFFFFFFFFFFFFFFFFFFFF AND PUSH20 0xFFFFFFFFFFFFFFFFFFFFFFFFFFFFFFFFFFFFFFFF AND PUSH2 0x4CAE SWAP1 SWAP3 SWAP2 SWAP1 PUSH4 0xFFFFFFFF AND JUMP JUMPDEST PUSH2 0x506D DUP2 DUP8 PUSH2 0x4A76 SWAP1 SWAP2 SWAP1 PUSH4 0xFFFFFFFF AND JUMP JUMPDEST SWAP2 POP PUSH2 0x5086 DUP3 DUP5 PUSH1 0x0 ADD SLOAD PUSH2 0x4A60 SWAP1 SWAP2 SWAP1 PUSH4 0xFFFFFFFF AND JUMP JUMPDEST DUP4 PUSH1 0x0 ADD DUP2 SWAP1 SSTORE POP POP PUSH2 0x50B4 JUMP JUMPDEST PUSH2 0x50AB DUP6 DUP4 PUSH1 0x0 ADD SLOAD PUSH2 0x4A60 SWAP1 SWAP2 SWAP1 PUSH4 0xFFFFFFFF AND JUMP JUMPDEST DUP3 PUSH1 0x0 ADD DUP2 SWAP1 SSTORE POP JUMPDEST PUSH2 0x50CB DUP2 DUP5 PUSH1 0x6 ADD SLOAD PUSH2 0x4A60 SWAP1 SWAP2 SWAP1 PUSH4 0xFFFFFFFF AND JUMP JUMPDEST DUP4 PUSH1 0x6 ADD DUP2 SWAP1 SSTORE POP PUSH1 0x0 PUSH20 0xFFFFFFFFFFFFFFFFFFFFFFFFFFFFFFFFFFFFFFFF AND DUP4 PUSH1 0x0 ADD PUSH1 0x0 SWAP1 SLOAD SWAP1 PUSH2 0x100 EXP SWAP1 DIV PUSH20 0xFFFFFFFFFFFFFFFFFFFFFFFFFFFFFFFFFFFFFFFF AND PUSH20 0xFFFFFFFFFFFFFFFFFFFFFFFFFFFFFFFFFFFFFFFF AND EQ PUSH2 0x5297 JUMPI DUP3 PUSH1 0x1 ADD PUSH1 0x0 SWAP1 SLOAD SWAP1 PUSH2 0x100 EXP SWAP1 DIV PUSH20 0xFFFFFFFFFFFFFFFFFFFFFFFFFFFFFFFFFFFFFFFF AND PUSH20 0xFFFFFFFFFFFFFFFFFFFFFFFFFFFFFFFFFFFFFFFF AND PUSH4 0x95EA7B3 DUP5 PUSH1 0x0 ADD PUSH1 0x0 SWAP1 SLOAD SWAP1 PUSH2 0x100 EXP SWAP1 DIV PUSH20 0xFFFFFFFFFFFFFFFFFFFFFFFFFFFFFFFFFFFFFFFF AND DUP4 PUSH1 0x40 MLOAD DUP4 PUSH4 0xFFFFFFFF AND PUSH1 0xE0 SHL DUP2 MSTORE PUSH1 0x4 ADD PUSH2 0x51AE SWAP3 SWAP2 SWAP1 PUSH2 0x6206 JUMP JUMPDEST PUSH1 0x20 PUSH1 0x40 MLOAD DUP1 DUP4 SUB DUP2 PUSH1 0x0 DUP8 DUP1 EXTCODESIZE ISZERO DUP1 ISZERO PUSH2 0x51C8 JUMPI PUSH1 0x0 DUP1 REVERT JUMPDEST POP GAS CALL ISZERO DUP1 ISZERO PUSH2 0x51DC JUMPI RETURNDATASIZE PUSH1 0x0 DUP1 RETURNDATACOPY RETURNDATASIZE PUSH1 0x0 REVERT JUMPDEST POP POP POP POP PUSH1 0x40 MLOAD RETURNDATASIZE PUSH1 0x1F NOT PUSH1 0x1F DUP3 ADD AND DUP3 ADD DUP1 PUSH1 0x40 MSTORE POP DUP2 ADD SWAP1 PUSH2 0x5200 SWAP2 SWAP1 PUSH2 0x59A0 JUMP JUMPDEST POP DUP3 PUSH1 0x0 ADD PUSH1 0x0 SWAP1 SLOAD SWAP1 PUSH2 0x100 EXP SWAP1 DIV PUSH20 0xFFFFFFFFFFFFFFFFFFFFFFFFFFFFFFFFFFFFFFFF AND PUSH20 0xFFFFFFFFFFFFFFFFFFFFFFFFFFFFFFFFFFFFFFFF AND PUSH4 0xE2BBB158 DUP5 PUSH1 0x7 ADD SLOAD DUP4 PUSH1 0x40 MLOAD DUP4 PUSH4 0xFFFFFFFF AND PUSH1 0xE0 SHL DUP2 MSTORE PUSH1 0x4 ADD PUSH2 0x5264 SWAP3 SWAP2 SWAP1 PUSH2 0x65B0 JUMP JUMPDEST PUSH1 0x0 PUSH1 0x40 MLOAD DUP1 DUP4 SUB DUP2 PUSH1 0x0 DUP8 DUP1 EXTCODESIZE ISZERO DUP1 ISZERO PUSH2 0x527E JUMPI PUSH1 0x0 DUP1 REVERT JUMPDEST POP GAS CALL ISZERO DUP1 ISZERO PUSH2 0x5292 JUMPI RETURNDATASIZE PUSH1 0x0 DUP1 RETURNDATACOPY RETURNDATASIZE PUSH1 0x0 REVERT JUMPDEST POP POP POP POP JUMPDEST JUMPDEST PUSH2 0x52CA PUSH5 0xE8D4A51000 PUSH2 0x52BC DUP6 PUSH1 0x4 ADD SLOAD DUP6 PUSH1 0x0 ADD SLOAD PUSH2 0x4A8C SWAP1 SWAP2 SWAP1 PUSH4 0xFFFFFFFF AND JUMP JUMPDEST PUSH2 0x4AA2 SWAP1 SWAP2 SWAP1 PUSH4 0xFFFFFFFF AND JUMP JUMPDEST DUP3 PUSH1 0x1 ADD DUP2 SWAP1 SSTORE POP PUSH1 0x5 PUSH1 0x0 SWAP1 SLOAD SWAP1 PUSH2 0x100 EXP SWAP1 DIV PUSH20 0xFFFFFFFFFFFFFFFFFFFFFFFFFFFFFFFFFFFFFFFF AND PUSH20 0xFFFFFFFFFFFFFFFFFFFFFFFFFFFFFFFFFFFFFFFF AND DUP4 PUSH1 0x1 ADD PUSH1 0x0 SWAP1 SLOAD SWAP1 PUSH2 0x100 EXP SWAP1 DIV PUSH20 0xFFFFFFFFFFFFFFFFFFFFFFFFFFFFFFFFFFFFFFFF AND PUSH20 0xFFFFFFFFFFFFFFFFFFFFFFFFFFFFFFFFFFFFFFFF AND EQ ISZERO PUSH2 0x5368 JUMPI PUSH2 0x5361 DUP2 PUSH1 0x13 SLOAD PUSH2 0x4A60 SWAP1 SWAP2 SWAP1 PUSH4 0xFFFFFFFF AND JUMP JUMPDEST PUSH1 0x13 DUP2 SWAP1 SSTORE POP JUMPDEST DUP6 DUP5 PUSH20 0xFFFFFFFFFFFFFFFFFFFFFFFFFFFFFFFFFFFFFFFF AND PUSH32 0x90890809C654F11D6E72A28FA60149770A0D11EC6C92319D6CEB2BB0A4EA1A15 DUP8 PUSH1 0x40 MLOAD PUSH2 0x53AF SWAP2 SWAP1 PUSH2 0x655E JUMP JUMPDEST PUSH1 0x40 MLOAD DUP1 SWAP2 SUB SWAP1 LOG3 PUSH2 0x53BF PUSH2 0x1833 JUMP JUMPDEST POP POP POP POP POP POP JUMP JUMPDEST PUSH2 0x53CF PUSH2 0x2C47 JUMP JUMPDEST DUP1 PUSH1 0x10 DUP2 SWAP1 SSTORE POP ADDRESS PUSH20 0xFFFFFFFFFFFFFFFFFFFFFFFFFFFFFFFFFFFFFFFF AND PUSH32 0xE2492E003BBE8AFA53088B406F0C1CB5D9E280370FC72A74CF116FFD343C4053 DUP3 PUSH1 0x40 MLOAD PUSH2 0x541C SWAP2 SWAP1 PUSH2 0x655E JUMP JUMPDEST PUSH1 0x40 MLOAD DUP1 SWAP2 SUB SWAP1 LOG2 POP JUMP JUMPDEST PUSH1 0x0 PUSH2 0x5489 DUP3 PUSH1 0x40 MLOAD DUP1 PUSH1 0x40 ADD PUSH1 0x40 MSTORE DUP1 PUSH1 0x20 DUP2 MSTORE PUSH1 0x20 ADD PUSH32 0x5361666545524332303A206C6F772D6C6576656C2063616C6C206661696C6564 DUP2 MSTORE POP DUP6 PUSH20 0xFFFFFFFFFFFFFFFFFFFFFFFFFFFFFFFFFFFFFFFF AND PUSH2 0x5577 SWAP1 SWAP3 SWAP2 SWAP1 PUSH4 0xFFFFFFFF AND JUMP JUMPDEST SWAP1 POP PUSH1 0x0 DUP2 MLOAD GT ISZERO PUSH2 0x54E9 JUMPI DUP1 DUP1 PUSH1 0x20 ADD SWAP1 MLOAD DUP2 ADD SWAP1 PUSH2 0x54A9 SWAP2 SWAP1 PUSH2 0x59A0 JUMP JUMPDEST PUSH2 0x54E8 JUMPI PUSH1 0x40 MLOAD PUSH32 0x8C379A000000000000000000000000000000000000000000000000000000000 DUP2 MSTORE PUSH1 0x4 ADD PUSH2 0x54DF SWAP1 PUSH2 0x64E3 JUMP JUMPDEST PUSH1 0x40 MLOAD DUP1 SWAP2 SUB SWAP1 REVERT JUMPDEST JUMPDEST POP POP POP JUMP JUMPDEST PUSH2 0x5571 DUP5 PUSH4 0x23B872DD PUSH1 0xE0 SHL DUP6 DUP6 DUP6 PUSH1 0x40 MLOAD PUSH1 0x24 ADD PUSH2 0x550F SWAP4 SWAP3 SWAP2 SWAP1 PUSH2 0x61CF JUMP JUMPDEST PUSH1 0x40 MLOAD PUSH1 0x20 DUP2 DUP4 SUB SUB DUP2 MSTORE SWAP1 PUSH1 0x40 MSTORE SWAP1 PUSH28 0xFFFFFFFFFFFFFFFFFFFFFFFFFFFFFFFFFFFFFFFFFFFFFFFFFFFFFFFF NOT AND PUSH1 0x20 DUP3 ADD DUP1 MLOAD PUSH28 0xFFFFFFFFFFFFFFFFFFFFFFFFFFFFFFFFFFFFFFFFFFFFFFFFFFFFFFFF DUP4 DUP2 DUP4 AND OR DUP4 MSTORE POP POP POP POP PUSH2 0x5427 JUMP JUMPDEST POP POP POP POP JUMP JUMPDEST PUSH1 0x60 PUSH2 0x5586 DUP5 DUP5 PUSH1 0x0 DUP6 PUSH2 0x558F JUMP JUMPDEST SWAP1 POP SWAP4 SWAP3 POP POP POP JUMP JUMPDEST PUSH1 0x60 DUP3 SELFBALANCE LT ISZERO PUSH2 0x55D4 JUMPI PUSH1 0x40 MLOAD PUSH32 0x8C379A000000000000000000000000000000000000000000000000000000000 DUP2 MSTORE PUSH1 0x4 ADD PUSH2 0x55CB SWAP1 PUSH2 0x6383 JUMP JUMPDEST PUSH1 0x40 MLOAD DUP1 SWAP2 SUB SWAP1 REVERT JUMPDEST PUSH2 0x55DD DUP6 PUSH2 0x56A3 JUMP JUMPDEST PUSH2 0x561C JUMPI PUSH1 0x40 MLOAD PUSH32 0x8C379A000000000000000000000000000000000000000000000000000000000 DUP2 MSTORE PUSH1 0x4 ADD PUSH2 0x5613 SWAP1 PUSH2 0x64C3 JUMP JUMPDEST PUSH1 0x40 MLOAD DUP1 SWAP2 SUB SWAP1 REVERT JUMPDEST PUSH1 0x0 DUP1 DUP7 PUSH20 0xFFFFFFFFFFFFFFFFFFFFFFFFFFFFFFFFFFFFFFFF AND DUP6 DUP8 PUSH1 0x40 MLOAD PUSH2 0x5645 SWAP2 SWAP1 PUSH2 0x6186 JUMP JUMPDEST PUSH1 0x0 PUSH1 0x40 MLOAD DUP1 DUP4 SUB DUP2 DUP6 DUP8 GAS CALL SWAP3 POP POP POP RETURNDATASIZE DUP1 PUSH1 0x0 DUP2 EQ PUSH2 0x5682 JUMPI PUSH1 0x40 MLOAD SWAP2 POP PUSH1 0x1F NOT PUSH1 0x3F RETURNDATASIZE ADD AND DUP3 ADD PUSH1 0x40 MSTORE RETURNDATASIZE DUP3 MSTORE RETURNDATASIZE PUSH1 0x0 PUSH1 0x20 DUP5 ADD RETURNDATACOPY PUSH2 0x5687 JUMP JUMPDEST PUSH1 0x60 SWAP2 POP JUMPDEST POP SWAP2 POP SWAP2 POP PUSH2 0x5697 DUP3 DUP3 DUP7 PUSH2 0x56B6 JUMP JUMPDEST SWAP3 POP POP POP SWAP5 SWAP4 POP POP POP POP JUMP JUMPDEST PUSH1 0x0 DUP1 DUP3 EXTCODESIZE SWAP1 POP PUSH1 0x0 DUP2 GT SWAP2 POP POP SWAP2 SWAP1 POP JUMP JUMPDEST PUSH1 0x60 DUP4 ISZERO PUSH2 0x56C6 JUMPI DUP3 SWAP1 POP PUSH2 0x5716 JUMP JUMPDEST PUSH1 0x0 DUP4 MLOAD GT ISZERO PUSH2 0x56D9 JUMPI DUP3 MLOAD DUP1 DUP5 PUSH1 0x20 ADD REVERT JUMPDEST DUP2 PUSH1 0x40 MLOAD PUSH32 0x8C379A000000000000000000000000000000000000000000000000000000000 DUP2 MSTORE PUSH1 0x4 ADD PUSH2 0x570D SWAP2 SWAP1 PUSH2 0x6301 JUMP JUMPDEST PUSH1 0x40 MLOAD DUP1 SWAP2 SUB SWAP1 REVERT JUMPDEST SWAP4 SWAP3 POP POP POP JUMP JUMPDEST PUSH1 0x0 PUSH2 0x5730 PUSH2 0x572B DUP5 PUSH2 0x666C JUMP JUMPDEST PUSH2 0x6647 JUMP JUMPDEST SWAP1 POP DUP3 DUP2 MSTORE PUSH1 0x20 DUP2 ADD DUP5 DUP5 DUP5 ADD GT ISZERO PUSH2 0x574C JUMPI PUSH2 0x574B PUSH2 0x6E2B JUMP JUMPDEST JUMPDEST PUSH2 0x5757 DUP5 DUP3 DUP6 PUSH2 0x6CAE JUMP JUMPDEST POP SWAP4 SWAP3 POP POP POP JUMP JUMPDEST PUSH1 0x0 DUP2 CALLDATALOAD SWAP1 POP PUSH2 0x576E DUP2 PUSH2 0x7371 JUMP JUMPDEST SWAP3 SWAP2 POP POP JUMP JUMPDEST PUSH1 0x0 DUP2 MLOAD SWAP1 POP PUSH2 0x5783 DUP2 PUSH2 0x7371 JUMP JUMPDEST SWAP3 SWAP2 POP POP JUMP JUMPDEST PUSH1 0x0 DUP2 CALLDATALOAD SWAP1 POP PUSH2 0x5798 DUP2 PUSH2 0x7388 JUMP JUMPDEST SWAP3 SWAP2 POP POP JUMP JUMPDEST PUSH1 0x0 DUP2 MLOAD SWAP1 POP PUSH2 0x57AD DUP2 PUSH2 0x7388 JUMP JUMPDEST SWAP3 SWAP2 POP POP JUMP JUMPDEST PUSH1 0x0 DUP2 CALLDATALOAD SWAP1 POP PUSH2 0x57C2 DUP2 PUSH2 0x739F JUMP JUMPDEST SWAP3 SWAP2 POP POP JUMP JUMPDEST PUSH1 0x0 DUP2 CALLDATALOAD SWAP1 POP PUSH2 0x57D7 DUP2 PUSH2 0x73B6 JUMP JUMPDEST SWAP3 SWAP2 POP POP JUMP JUMPDEST PUSH1 0x0 DUP2 CALLDATALOAD SWAP1 POP PUSH2 0x57EC DUP2 PUSH2 0x73CD JUMP JUMPDEST SWAP3 SWAP2 POP POP JUMP JUMPDEST PUSH1 0x0 DUP2 CALLDATALOAD SWAP1 POP PUSH2 0x5801 DUP2 PUSH2 0x73E4 JUMP JUMPDEST SWAP3 SWAP2 POP POP JUMP JUMPDEST PUSH1 0x0 DUP3 PUSH1 0x1F DUP4 ADD SLT PUSH2 0x581C JUMPI PUSH2 0x581B PUSH2 0x6E26 JUMP JUMPDEST JUMPDEST DUP2 CALLDATALOAD PUSH2 0x582C DUP5 DUP3 PUSH1 0x20 DUP7 ADD PUSH2 0x571D JUMP JUMPDEST SWAP2 POP POP SWAP3 SWAP2 POP POP JUMP JUMPDEST PUSH1 0x0 DUP2 MLOAD SWAP1 POP PUSH2 0x5844 DUP2 PUSH2 0x73FB JUMP JUMPDEST SWAP3 SWAP2 POP POP JUMP JUMPDEST PUSH1 0x0 DUP2 CALLDATALOAD SWAP1 POP PUSH2 0x5859 DUP2 PUSH2 0x7412 JUMP JUMPDEST SWAP3 SWAP2 POP POP JUMP JUMPDEST PUSH1 0x0 DUP2 CALLDATALOAD SWAP1 POP PUSH2 0x586E DUP2 PUSH2 0x7429 JUMP JUMPDEST SWAP3 SWAP2 POP POP JUMP JUMPDEST PUSH1 0x0 DUP2 MLOAD SWAP1 POP PUSH2 0x5883 DUP2 PUSH2 0x7429 JUMP JUMPDEST SWAP3 SWAP2 POP POP JUMP JUMPDEST PUSH1 0x0 DUP2 MLOAD SWAP1 POP PUSH2 0x5898 DUP2 PUSH2 0x7440 JUMP JUMPDEST SWAP3 SWAP2 POP POP JUMP JUMPDEST PUSH1 0x0 DUP2 MLOAD SWAP1 POP PUSH2 0x58AD DUP2 PUSH2 0x7457 JUMP JUMPDEST SWAP3 SWAP2 POP POP JUMP JUMPDEST PUSH1 0x0 PUSH1 0x20 DUP3 DUP5 SUB SLT ISZERO PUSH2 0x58C9 JUMPI PUSH2 0x58C8 PUSH2 0x6E35 JUMP JUMPDEST JUMPDEST PUSH1 0x0 PUSH2 0x58D7 DUP5 DUP3 DUP6 ADD PUSH2 0x575F JUMP JUMPDEST SWAP2 POP POP SWAP3 SWAP2 POP POP JUMP JUMPDEST PUSH1 0x0 PUSH1 0x20 DUP3 DUP5 SUB SLT ISZERO PUSH2 0x58F6 JUMPI PUSH2 0x58F5 PUSH2 0x6E35 JUMP JUMPDEST JUMPDEST PUSH1 0x0 PUSH2 0x5904 DUP5 DUP3 DUP6 ADD PUSH2 0x5774 JUMP JUMPDEST SWAP2 POP POP SWAP3 SWAP2 POP POP JUMP JUMPDEST PUSH1 0x0 DUP1 PUSH1 0x0 PUSH1 0x60 DUP5 DUP7 SUB SLT ISZERO PUSH2 0x5926 JUMPI PUSH2 0x5925 PUSH2 0x6E35 JUMP JUMPDEST JUMPDEST PUSH1 0x0 PUSH2 0x5934 DUP7 DUP3 DUP8 ADD PUSH2 0x575F JUMP JUMPDEST SWAP4 POP POP PUSH1 0x20 PUSH2 0x5945 DUP7 DUP3 DUP8 ADD PUSH2 0x575F JUMP JUMPDEST SWAP3 POP POP PUSH1 0x40 PUSH2 0x5956 DUP7 DUP3 DUP8 ADD PUSH2 0x585F JUMP JUMPDEST SWAP2 POP POP SWAP3 POP SWAP3 POP SWAP3 JUMP JUMPDEST PUSH1 0x0 DUP1 PUSH1 0x40 DUP4 DUP6 SUB SLT ISZERO PUSH2 0x5977 JUMPI PUSH2 0x5976 PUSH2 0x6E35 JUMP JUMPDEST JUMPDEST PUSH1 0x0 PUSH2 0x5985 DUP6 DUP3 DUP7 ADD PUSH2 0x575F JUMP JUMPDEST SWAP3 POP POP PUSH1 0x20 PUSH2 0x5996 DUP6 DUP3 DUP7 ADD PUSH2 0x585F JUMP JUMPDEST SWAP2 POP POP SWAP3 POP SWAP3 SWAP1 POP JUMP JUMPDEST PUSH1 0x0 PUSH1 0x20 DUP3 DUP5 SUB SLT ISZERO PUSH2 0x59B6 JUMPI PUSH2 0x59B5 PUSH2 0x6E35 JUMP JUMPDEST JUMPDEST PUSH1 0x0 PUSH2 0x59C4 DUP5 DUP3 DUP6 ADD PUSH2 0x579E JUMP JUMPDEST SWAP2 POP POP SWAP3 SWAP2 POP POP JUMP JUMPDEST PUSH1 0x0 DUP1 PUSH1 0x40 DUP4 DUP6 SUB SLT ISZERO PUSH2 0x59E4 JUMPI PUSH2 0x59E3 PUSH2 0x6E35 JUMP JUMPDEST JUMPDEST PUSH1 0x0 PUSH2 0x59F2 DUP6 DUP3 DUP7 ADD PUSH2 0x5789 JUMP JUMPDEST SWAP3 POP POP PUSH1 0x20 PUSH2 0x5A03 DUP6 DUP3 DUP7 ADD PUSH2 0x575F JUMP JUMPDEST SWAP2 POP POP SWAP3 POP SWAP3 SWAP1 POP JUMP JUMPDEST PUSH1 0x0 PUSH1 0x20 DUP3 DUP5 SUB SLT ISZERO PUSH2 0x5A23 JUMPI PUSH2 0x5A22 PUSH2 0x6E35 JUMP JUMPDEST JUMPDEST PUSH1 0x0 PUSH2 0x5A31 DUP5 DUP3 DUP6 ADD PUSH2 0x57B3 JUMP JUMPDEST SWAP2 POP POP SWAP3 SWAP2 POP POP JUMP JUMPDEST PUSH1 0x0 DUP1 PUSH1 0x40 DUP4 DUP6 SUB SLT ISZERO PUSH2 0x5A51 JUMPI PUSH2 0x5A50 PUSH2 0x6E35 JUMP JUMPDEST JUMPDEST PUSH1 0x0 PUSH2 0x5A5F DUP6 DUP3 DUP7 ADD PUSH2 0x57F2 JUMP JUMPDEST SWAP3 POP POP PUSH1 0x20 PUSH2 0x5A70 DUP6 DUP3 DUP7 ADD PUSH2 0x57F2 JUMP JUMPDEST SWAP2 POP POP SWAP3 POP SWAP3 SWAP1 POP JUMP JUMPDEST PUSH1 0x0 PUSH1 0x20 DUP3 DUP5 SUB SLT ISZERO PUSH2 0x5A90 JUMPI PUSH2 0x5A8F PUSH2 0x6E35 JUMP JUMPDEST JUMPDEST PUSH1 0x0 DUP3 ADD CALLDATALOAD PUSH8 0xFFFFFFFFFFFFFFFF DUP2 GT ISZERO PUSH2 0x5AAE JUMPI PUSH2 0x5AAD PUSH2 0x6E30 JUMP JUMPDEST JUMPDEST PUSH2 0x5ABA DUP5 DUP3 DUP6 ADD PUSH2 0x5807 JUMP JUMPDEST SWAP2 POP POP SWAP3 SWAP2 POP POP JUMP JUMPDEST PUSH1 0x0 DUP1 PUSH1 0x0 PUSH1 0x60 DUP5 DUP7 SUB SLT ISZERO PUSH2 0x5ADC JUMPI PUSH2 0x5ADB PUSH2 0x6E35 JUMP JUMPDEST JUMPDEST PUSH1 0x0 PUSH2 0x5AEA DUP7 DUP3 DUP8 ADD PUSH2 0x5835 JUMP JUMPDEST SWAP4 POP POP PUSH1 0x20 PUSH2 0x5AFB DUP7 DUP3 DUP8 ADD PUSH2 0x5835 JUMP JUMPDEST SWAP3 POP POP PUSH1 0x40 PUSH2 0x5B0C DUP7 DUP3 DUP8 ADD PUSH2 0x5889 JUMP JUMPDEST SWAP2 POP POP SWAP3 POP SWAP3 POP SWAP3 JUMP JUMPDEST PUSH1 0x0 PUSH1 0x20 DUP3 DUP5 SUB SLT ISZERO PUSH2 0x5B2C JUMPI PUSH2 0x5B2B PUSH2 0x6E35 JUMP JUMPDEST JUMPDEST PUSH1 0x0 PUSH2 0x5B3A DUP5 DUP3 DUP6 ADD PUSH2 0x584A JUMP JUMPDEST SWAP2 POP POP SWAP3 SWAP2 POP POP JUMP JUMPDEST PUSH1 0x0 PUSH1 0x20 DUP3 DUP5 SUB SLT ISZERO PUSH2 0x5B59 JUMPI PUSH2 0x5B58 PUSH2 0x6E35 JUMP JUMPDEST JUMPDEST PUSH1 0x0 PUSH2 0x5B67 DUP5 DUP3 DUP6 ADD PUSH2 0x585F JUMP JUMPDEST SWAP2 POP POP SWAP3 SWAP2 POP POP JUMP JUMPDEST PUSH1 0x0 PUSH1 0x20 DUP3 DUP5 SUB SLT ISZERO PUSH2 0x5B86 JUMPI PUSH2 0x5B85 PUSH2 0x6E35 JUMP JUMPDEST JUMPDEST PUSH1 0x0 PUSH2 0x5B94 DUP5 DUP3 DUP6 ADD PUSH2 0x5874 JUMP JUMPDEST SWAP2 POP POP SWAP3 SWAP2 POP POP JUMP JUMPDEST PUSH1 0x0 DUP1 PUSH1 0x40 DUP4 DUP6 SUB SLT ISZERO PUSH2 0x5BB4 JUMPI PUSH2 0x5BB3 PUSH2 0x6E35 JUMP JUMPDEST JUMPDEST PUSH1 0x0 PUSH2 0x5BC2 DUP6 DUP3 DUP7 ADD PUSH2 0x585F JUMP JUMPDEST SWAP3 POP POP PUSH1 0x20 PUSH2 0x5BD3 DUP6 DUP3 DUP7 ADD PUSH2 0x575F JUMP JUMPDEST SWAP2 POP POP SWAP3 POP SWAP3 SWAP1 POP JUMP JUMPDEST PUSH1 0x0 DUP1 PUSH1 0x40 DUP4 DUP6 SUB SLT ISZERO PUSH2 0x5BF4 JUMPI PUSH2 0x5BF3 PUSH2 0x6E35 JUMP JUMPDEST JUMPDEST PUSH1 0x0 PUSH2 0x5C02 DUP6 DUP3 DUP7 ADD PUSH2 0x585F JUMP JUMPDEST SWAP3 POP POP PUSH1 0x20 PUSH2 0x5C13 DUP6 DUP3 DUP7 ADD PUSH2 0x5789 JUMP JUMPDEST SWAP2 POP POP SWAP3 POP SWAP3 SWAP1 POP JUMP JUMPDEST PUSH1 0x0 DUP1 PUSH1 0x0 DUP1 PUSH1 0x0 DUP1 PUSH1 0x0 DUP1 PUSH2 0x100 DUP10 DUP12 SUB SLT ISZERO PUSH2 0x5C3E JUMPI PUSH2 0x5C3D PUSH2 0x6E35 JUMP JUMPDEST JUMPDEST PUSH1 0x0 PUSH2 0x5C4C DUP12 DUP3 DUP13 ADD PUSH2 0x585F JUMP JUMPDEST SWAP9 POP POP PUSH1 0x20 PUSH2 0x5C5D DUP12 DUP3 DUP13 ADD PUSH2 0x57C8 JUMP JUMPDEST SWAP8 POP POP PUSH1 0x40 PUSH2 0x5C6E DUP12 DUP3 DUP13 ADD PUSH2 0x585F JUMP JUMPDEST SWAP7 POP POP PUSH1 0x60 PUSH2 0x5C7F DUP12 DUP3 DUP13 ADD PUSH2 0x584A JUMP JUMPDEST SWAP6 POP POP PUSH1 0x80 PUSH2 0x5C90 DUP12 DUP3 DUP13 ADD PUSH2 0x57DD JUMP JUMPDEST SWAP5 POP POP PUSH1 0xA0 PUSH2 0x5CA1 DUP12 DUP3 DUP13 ADD PUSH2 0x585F JUMP JUMPDEST SWAP4 POP POP PUSH1 0xC0 PUSH2 0x5CB2 DUP12 DUP3 DUP13 ADD PUSH2 0x5789 JUMP JUMPDEST SWAP3 POP POP PUSH1 0xE0 PUSH2 0x5CC3 DUP12 DUP3 DUP13 ADD PUSH2 0x5789 JUMP JUMPDEST SWAP2 POP POP SWAP3 SWAP6 SWAP9 POP SWAP3 SWAP6 SWAP9 SWAP1 SWAP4 SWAP7 POP JUMP JUMPDEST PUSH1 0x0 DUP1 PUSH1 0x40 DUP4 DUP6 SUB SLT ISZERO PUSH2 0x5CEA JUMPI PUSH2 0x5CE9 PUSH2 0x6E35 JUMP JUMPDEST JUMPDEST PUSH1 0x0 PUSH2 0x5CF8 DUP6 DUP3 DUP7 ADD PUSH2 0x585F JUMP JUMPDEST SWAP3 POP POP PUSH1 0x20 PUSH2 0x5D09 DUP6 DUP3 DUP7 ADD PUSH2 0x585F JUMP JUMPDEST SWAP2 POP POP SWAP3 POP SWAP3 SWAP1 POP JUMP JUMPDEST PUSH1 0x0 DUP1 PUSH1 0x0 PUSH1 0x60 DUP5 DUP7 SUB SLT ISZERO PUSH2 0x5D2C JUMPI PUSH2 0x5D2B PUSH2 0x6E35 JUMP JUMPDEST JUMPDEST PUSH1 0x0 PUSH2 0x5D3A DUP7 DUP3 DUP8 ADD PUSH2 0x585F JUMP JUMPDEST SWAP4 POP POP PUSH1 0x20 PUSH2 0x5D4B DUP7 DUP3 DUP8 ADD PUSH2 0x585F JUMP JUMPDEST SWAP3 POP POP PUSH1 0x40 PUSH2 0x5D5C DUP7 DUP3 DUP8 ADD PUSH2 0x575F JUMP JUMPDEST SWAP2 POP POP SWAP3 POP SWAP3 POP SWAP3 JUMP JUMPDEST PUSH1 0x0 DUP1 PUSH1 0x0 DUP1 PUSH1 0x0 DUP1 PUSH1 0xC0 DUP8 DUP10 SUB SLT ISZERO PUSH2 0x5D83 JUMPI PUSH2 0x5D82 PUSH2 0x6E35 JUMP JUMPDEST JUMPDEST PUSH1 0x0 PUSH2 0x5D91 DUP10 DUP3 DUP11 ADD PUSH2 0x585F JUMP JUMPDEST SWAP7 POP POP PUSH1 0x20 PUSH2 0x5DA2 DUP10 DUP3 DUP11 ADD PUSH2 0x585F JUMP JUMPDEST SWAP6 POP POP PUSH1 0x40 PUSH2 0x5DB3 DUP10 DUP3 DUP11 ADD PUSH2 0x584A JUMP JUMPDEST SWAP5 POP POP PUSH1 0x60 PUSH2 0x5DC4 DUP10 DUP3 DUP11 ADD PUSH2 0x585F JUMP JUMPDEST SWAP4 POP POP PUSH1 0x80 PUSH2 0x5DD5 DUP10 DUP3 DUP11 ADD PUSH2 0x5789 JUMP JUMPDEST SWAP3 POP POP PUSH1 0xA0 PUSH2 0x5DE6 DUP10 DUP3 DUP11 ADD PUSH2 0x5789 JUMP JUMPDEST SWAP2 POP POP SWAP3 SWAP6 POP SWAP3 SWAP6 POP SWAP3 SWAP6 JUMP JUMPDEST PUSH1 0x0 PUSH1 0x20 DUP3 DUP5 SUB SLT ISZERO PUSH2 0x5E09 JUMPI PUSH2 0x5E08 PUSH2 0x6E35 JUMP JUMPDEST JUMPDEST PUSH1 0x0 PUSH2 0x5E17 DUP5 DUP3 DUP6 ADD PUSH2 0x589E JUMP JUMPDEST SWAP2 POP POP SWAP3 SWAP2 POP POP JUMP JUMPDEST PUSH2 0x5E29 DUP2 PUSH2 0x6B75 JUMP JUMPDEST DUP3 MSTORE POP POP JUMP JUMPDEST PUSH2 0x5E38 DUP2 PUSH2 0x6B87 JUMP JUMPDEST DUP3 MSTORE POP POP JUMP JUMPDEST PUSH1 0x0 PUSH2 0x5E49 DUP3 PUSH2 0x669D JUMP JUMPDEST PUSH2 0x5E53 DUP2 DUP6 PUSH2 0x66B3 JUMP JUMPDEST SWAP4 POP PUSH2 0x5E63 DUP2 DUP6 PUSH1 0x20 DUP7 ADD PUSH2 0x6CBD JUMP JUMPDEST DUP1 DUP5 ADD SWAP2 POP POP SWAP3 SWAP2 POP POP JUMP JUMPDEST PUSH2 0x5E78 DUP2 PUSH2 0x6C42 JUMP JUMPDEST DUP3 MSTORE POP POP JUMP JUMPDEST PUSH2 0x5E87 DUP2 PUSH2 0x6C54 JUMP JUMPDEST DUP3 MSTORE POP POP JUMP JUMPDEST PUSH2 0x5E96 DUP2 PUSH2 0x6C66 JUMP JUMPDEST DUP3 MSTORE POP POP JUMP JUMPDEST PUSH2 0x5EA5 DUP2 PUSH2 0x6C78 JUMP JUMPDEST DUP3 MSTORE POP POP JUMP JUMPDEST PUSH1 0x0 PUSH2 0x5EB6 DUP3 PUSH2 0x66A8 JUMP JUMPDEST PUSH2 0x5EC0 DUP2 DUP6 PUSH2 0x66BE JUMP JUMPDEST SWAP4 POP PUSH2 0x5ED0 DUP2 DUP6 PUSH1 0x20 DUP7 ADD PUSH2 0x6CBD JUMP JUMPDEST PUSH2 0x5ED9 DUP2 PUSH2 0x6E3A JUMP JUMPDEST DUP5 ADD SWAP2 POP POP SWAP3 SWAP2 POP POP JUMP JUMPDEST PUSH1 0x0 PUSH2 0x5EEF DUP3 PUSH2 0x66A8 JUMP JUMPDEST PUSH2 0x5EF9 DUP2 DUP6 PUSH2 0x66CF JUMP JUMPDEST SWAP4 POP PUSH2 0x5F09 DUP2 DUP6 PUSH1 0x20 DUP7 ADD PUSH2 0x6CBD JUMP JUMPDEST DUP1 DUP5 ADD SWAP2 POP POP SWAP3 SWAP2 POP POP JUMP JUMPDEST PUSH1 0x0 PUSH2 0x5F22 PUSH1 0x3D DUP4 PUSH2 0x66BE JUMP JUMPDEST SWAP2 POP PUSH2 0x5F2D DUP3 PUSH2 0x6E58 JUMP JUMPDEST PUSH1 0x40 DUP3 ADD SWAP1 POP SWAP2 SWAP1 POP JUMP JUMPDEST PUSH1 0x0 PUSH2 0x5F45 PUSH1 0x26 DUP4 PUSH2 0x66BE JUMP JUMPDEST SWAP2 POP PUSH2 0x5F50 DUP3 PUSH2 0x6EA7 JUMP JUMPDEST PUSH1 0x40 DUP3 ADD SWAP1 POP SWAP2 SWAP1 POP JUMP JUMPDEST PUSH1 0x0 PUSH2 0x5F68 PUSH1 0x43 DUP4 PUSH2 0x66BE JUMP JUMPDEST SWAP2 POP PUSH2 0x5F73 DUP3 PUSH2 0x6EF6 JUMP JUMPDEST PUSH1 0x60 DUP3 ADD SWAP1 POP SWAP2 SWAP1 POP JUMP JUMPDEST PUSH1 0x0 PUSH2 0x5F8B PUSH1 0x26 DUP4 PUSH2 0x66BE JUMP JUMPDEST SWAP2 POP PUSH2 0x5F96 DUP3 PUSH2 0x6F6B JUMP JUMPDEST PUSH1 0x40 DUP3 ADD SWAP1 POP SWAP2 SWAP1 POP JUMP JUMPDEST PUSH1 0x0 PUSH2 0x5FAE PUSH1 0x3C DUP4 PUSH2 0x66BE JUMP JUMPDEST SWAP2 POP PUSH2 0x5FB9 DUP3 PUSH2 0x6FBA JUMP JUMPDEST PUSH1 0x40 DUP3 ADD SWAP1 POP SWAP2 SWAP1 POP JUMP JUMPDEST PUSH1 0x0 PUSH2 0x5FD1 PUSH1 0x26 DUP4 PUSH2 0x66BE JUMP JUMPDEST SWAP2 POP PUSH2 0x5FDC DUP3 PUSH2 0x7009 JUMP JUMPDEST PUSH1 0x40 DUP3 ADD SWAP1 POP SWAP2 SWAP1 POP JUMP JUMPDEST PUSH1 0x0 PUSH2 0x5FF4 PUSH1 0x4A DUP4 PUSH2 0x66BE JUMP JUMPDEST SWAP2 POP PUSH2 0x5FFF DUP3 PUSH2 0x7058 JUMP JUMPDEST PUSH1 0x60 DUP3 ADD SWAP1 POP SWAP2 SWAP1 POP JUMP JUMPDEST PUSH1 0x0 PUSH2 0x6017 PUSH1 0x50 DUP4 PUSH2 0x66BE JUMP JUMPDEST SWAP2 POP PUSH2 0x6022 DUP3 PUSH2 0x70CD JUMP JUMPDEST PUSH1 0x60 DUP3 ADD SWAP1 POP SWAP2 SWAP1 POP JUMP JUMPDEST PUSH1 0x0 PUSH2 0x603A PUSH1 0x2E DUP4 PUSH2 0x66BE JUMP JUMPDEST SWAP2 POP PUSH2 0x6045 DUP3 PUSH2 0x7142 JUMP JUMPDEST PUSH1 0x40 DUP3 ADD SWAP1 POP SWAP2 SWAP1 POP JUMP JUMPDEST PUSH1 0x0 PUSH2 0x605D PUSH1 0x20 DUP4 PUSH2 0x66BE JUMP JUMPDEST SWAP2 POP PUSH2 0x6068 DUP3 PUSH2 0x7191 JUMP JUMPDEST PUSH1 0x20 DUP3 ADD SWAP1 POP SWAP2 SWAP1 POP JUMP JUMPDEST PUSH1 0x0 PUSH2 0x6080 PUSH1 0x2B DUP4 PUSH2 0x66BE JUMP JUMPDEST SWAP2 POP PUSH2 0x608B DUP3 PUSH2 0x71BA JUMP JUMPDEST PUSH1 0x40 DUP3 ADD SWAP1 POP SWAP2 SWAP1 POP JUMP JUMPDEST PUSH1 0x0 PUSH2 0x60A3 PUSH1 0x12 DUP4 PUSH2 0x66BE JUMP JUMPDEST SWAP2 POP PUSH2 0x60AE DUP3 PUSH2 0x7209 JUMP JUMPDEST PUSH1 0x20 DUP3 ADD SWAP1 POP SWAP2 SWAP1 POP JUMP JUMPDEST PUSH1 0x0 PUSH2 0x60C6 PUSH1 0x35 DUP4 PUSH2 0x66BE JUMP JUMPDEST SWAP2 POP PUSH2 0x60D1 DUP3 PUSH2 0x7232 JUMP JUMPDEST PUSH1 0x40 DUP3 ADD SWAP1 POP SWAP2 SWAP1 POP JUMP JUMPDEST PUSH1 0x0 PUSH2 0x60E9 PUSH1 0x1D DUP4 PUSH2 0x66BE JUMP JUMPDEST SWAP2 POP PUSH2 0x60F4 DUP3 PUSH2 0x7281 JUMP JUMPDEST PUSH1 0x20 DUP3 ADD SWAP1 POP SWAP2 SWAP1 POP JUMP JUMPDEST PUSH1 0x0 PUSH2 0x610C PUSH1 0x2A DUP4 PUSH2 0x66BE JUMP JUMPDEST SWAP2 POP PUSH2 0x6117 DUP3 PUSH2 0x72AA JUMP JUMPDEST PUSH1 0x40 DUP3 ADD SWAP1 POP SWAP2 SWAP1 POP JUMP JUMPDEST PUSH1 0x0 PUSH2 0x612F PUSH1 0x1F DUP4 PUSH2 0x66BE JUMP JUMPDEST SWAP2 POP PUSH2 0x613A DUP3 PUSH2 0x72F9 JUMP JUMPDEST PUSH1 0x20 DUP3 ADD SWAP1 POP SWAP2 SWAP1 POP JUMP JUMPDEST PUSH1 0x0 PUSH2 0x6152 PUSH1 0x22 DUP4 PUSH2 0x66BE JUMP JUMPDEST SWAP2 POP PUSH2 0x615D DUP3 PUSH2 0x7322 JUMP JUMPDEST PUSH1 0x40 DUP3 ADD SWAP1 POP SWAP2 SWAP1 POP JUMP JUMPDEST PUSH2 0x6171 DUP2 PUSH2 0x6BED JUMP JUMPDEST DUP3 MSTORE POP POP JUMP JUMPDEST PUSH2 0x6180 DUP2 PUSH2 0x6C1B JUMP JUMPDEST DUP3 MSTORE POP POP JUMP JUMPDEST PUSH1 0x0 PUSH2 0x6192 DUP3 DUP5 PUSH2 0x5E3E JUMP JUMPDEST SWAP2 POP DUP2 SWAP1 POP SWAP3 SWAP2 POP POP JUMP JUMPDEST PUSH1 0x0 PUSH2 0x61A9 DUP3 DUP5 PUSH2 0x5EE4 JUMP JUMPDEST SWAP2 POP DUP2 SWAP1 POP SWAP3 SWAP2 POP POP JUMP JUMPDEST PUSH1 0x0 PUSH1 0x20 DUP3 ADD SWAP1 POP PUSH2 0x61C9 PUSH1 0x0 DUP4 ADD DUP5 PUSH2 0x5E20 JUMP JUMPDEST SWAP3 SWAP2 POP POP JUMP JUMPDEST PUSH1 0x0 PUSH1 0x60 DUP3 ADD SWAP1 POP PUSH2 0x61E4 PUSH1 0x0 DUP4 ADD DUP7 PUSH2 0x5E20 JUMP JUMPDEST PUSH2 0x61F1 PUSH1 0x20 DUP4 ADD DUP6 PUSH2 0x5E20 JUMP JUMPDEST PUSH2 0x61FE PUSH1 0x40 DUP4 ADD DUP5 PUSH2 0x6177 JUMP JUMPDEST SWAP5 SWAP4 POP POP POP POP JUMP JUMPDEST PUSH1 0x0 PUSH1 0x40 DUP3 ADD SWAP1 POP PUSH2 0x621B PUSH1 0x0 DUP4 ADD DUP6 PUSH2 0x5E20 JUMP JUMPDEST PUSH2 0x6228 PUSH1 0x20 DUP4 ADD DUP5 PUSH2 0x6177 JUMP JUMPDEST SWAP4 SWAP3 POP POP POP JUMP JUMPDEST PUSH1 0x0 PUSH1 0x20 DUP3 ADD SWAP1 POP PUSH2 0x6244 PUSH1 0x0 DUP4 ADD DUP5 PUSH2 0x5E2F JUMP JUMPDEST SWAP3 SWAP2 POP POP JUMP JUMPDEST PUSH1 0x0 PUSH1 0x20 DUP3 ADD SWAP1 POP PUSH2 0x625F PUSH1 0x0 DUP4 ADD DUP5 PUSH2 0x5E6F JUMP JUMPDEST SWAP3 SWAP2 POP POP JUMP JUMPDEST PUSH1 0x0 PUSH2 0x140 DUP3 ADD SWAP1 POP PUSH2 0x627B PUSH1 0x0 DUP4 ADD DUP14 PUSH2 0x5E8D JUMP JUMPDEST PUSH2 0x6288 PUSH1 0x20 DUP4 ADD DUP13 PUSH2 0x5E7E JUMP JUMPDEST PUSH2 0x6295 PUSH1 0x40 DUP4 ADD DUP12 PUSH2 0x6177 JUMP JUMPDEST PUSH2 0x62A2 PUSH1 0x60 DUP4 ADD DUP11 PUSH2 0x6177 JUMP JUMPDEST PUSH2 0x62AF PUSH1 0x80 DUP4 ADD DUP10 PUSH2 0x6177 JUMP JUMPDEST PUSH2 0x62BC PUSH1 0xA0 DUP4 ADD DUP9 PUSH2 0x6168 JUMP JUMPDEST PUSH2 0x62C9 PUSH1 0xC0 DUP4 ADD DUP8 PUSH2 0x6177 JUMP JUMPDEST PUSH2 0x62D6 PUSH1 0xE0 DUP4 ADD DUP7 PUSH2 0x6177 JUMP JUMPDEST PUSH2 0x62E4 PUSH2 0x100 DUP4 ADD DUP6 PUSH2 0x6177 JUMP JUMPDEST PUSH2 0x62F2 PUSH2 0x120 DUP4 ADD DUP5 PUSH2 0x5E2F JUMP JUMPDEST SWAP12 SWAP11 POP POP POP POP POP POP POP POP POP POP POP JUMP JUMPDEST PUSH1 0x0 PUSH1 0x20 DUP3 ADD SWAP1 POP DUP2 DUP2 SUB PUSH1 0x0 DUP4 ADD MSTORE PUSH2 0x631B DUP2 DUP5 PUSH2 0x5EAB JUMP JUMPDEST SWAP1 POP SWAP3 SWAP2 POP POP JUMP JUMPDEST PUSH1 0x0 PUSH1 0x20 DUP3 ADD SWAP1 POP DUP2 DUP2 SUB PUSH1 0x0 DUP4 ADD MSTORE PUSH2 0x633C DUP2 PUSH2 0x5F15 JUMP JUMPDEST SWAP1 POP SWAP2 SWAP1 POP JUMP JUMPDEST PUSH1 0x0 PUSH1 0x20 DUP3 ADD SWAP1 POP DUP2 DUP2 SUB PUSH1 0x0 DUP4 ADD MSTORE PUSH2 0x635C DUP2 PUSH2 0x5F38 JUMP JUMPDEST SWAP1 POP SWAP2 SWAP1 POP JUMP JUMPDEST PUSH1 0x0 PUSH1 0x20 DUP3 ADD SWAP1 POP DUP2 DUP2 SUB PUSH1 0x0 DUP4 ADD MSTORE PUSH2 0x637C DUP2 PUSH2 0x5F5B JUMP JUMPDEST SWAP1 POP SWAP2 SWAP1 POP JUMP JUMPDEST PUSH1 0x0 PUSH1 0x20 DUP3 ADD SWAP1 POP DUP2 DUP2 SUB PUSH1 0x0 DUP4 ADD MSTORE PUSH2 0x639C DUP2 PUSH2 0x5F7E JUMP JUMPDEST SWAP1 POP SWAP2 SWAP1 POP JUMP JUMPDEST PUSH1 0x0 PUSH1 0x20 DUP3 ADD SWAP1 POP DUP2 DUP2 SUB PUSH1 0x0 DUP4 ADD MSTORE PUSH2 0x63BC DUP2 PUSH2 0x5FA1 JUMP JUMPDEST SWAP1 POP SWAP2 SWAP1 POP JUMP JUMPDEST PUSH1 0x0 PUSH1 0x20 DUP3 ADD SWAP1 POP DUP2 DUP2 SUB PUSH1 0x0 DUP4 ADD MSTORE PUSH2 0x63DC DUP2 PUSH2 0x5FC4 JUMP JUMPDEST SWAP1 POP SWAP2 SWAP1 POP JUMP JUMPDEST PUSH1 0x0 PUSH1 0x20 DUP3 ADD SWAP1 POP DUP2 DUP2 SUB PUSH1 0x0 DUP4 ADD MSTORE PUSH2 0x63FC DUP2 PUSH2 0x5FE7 JUMP JUMPDEST SWAP1 POP SWAP2 SWAP1 POP JUMP JUMPDEST PUSH1 0x0 PUSH1 0x20 DUP3 ADD SWAP1 POP DUP2 DUP2 SUB PUSH1 0x0 DUP4 ADD MSTORE PUSH2 0x641C DUP2 PUSH2 0x600A JUMP JUMPDEST SWAP1 POP SWAP2 SWAP1 POP JUMP JUMPDEST PUSH1 0x0 PUSH1 0x20 DUP3 ADD SWAP1 POP DUP2 DUP2 SUB PUSH1 0x0 DUP4 ADD MSTORE PUSH2 0x643C DUP2 PUSH2 0x602D JUMP JUMPDEST SWAP1 POP SWAP2 SWAP1 POP JUMP JUMPDEST PUSH1 0x0 PUSH1 0x20 DUP3 ADD SWAP1 POP DUP2 DUP2 SUB PUSH1 0x0 DUP4 ADD MSTORE PUSH2 0x645C DUP2 PUSH2 0x6050 JUMP JUMPDEST SWAP1 POP SWAP2 SWAP1 POP JUMP JUMPDEST PUSH1 0x0 PUSH1 0x20 DUP3 ADD SWAP1 POP DUP2 DUP2 SUB PUSH1 0x0 DUP4 ADD MSTORE PUSH2 0x647C DUP2 PUSH2 0x6073 JUMP JUMPDEST SWAP1 POP SWAP2 SWAP1 POP JUMP JUMPDEST PUSH1 0x0 PUSH1 0x20 DUP3 ADD SWAP1 POP DUP2 DUP2 SUB PUSH1 0x0 DUP4 ADD MSTORE PUSH2 0x649C DUP2 PUSH2 0x6096 JUMP JUMPDEST SWAP1 POP SWAP2 SWAP1 POP JUMP JUMPDEST PUSH1 0x0 PUSH1 0x20 DUP3 ADD SWAP1 POP DUP2 DUP2 SUB PUSH1 0x0 DUP4 ADD MSTORE PUSH2 0x64BC DUP2 PUSH2 0x60B9 JUMP JUMPDEST SWAP1 POP SWAP2 SWAP1 POP JUMP JUMPDEST PUSH1 0x0 PUSH1 0x20 DUP3 ADD SWAP1 POP DUP2 DUP2 SUB PUSH1 0x0 DUP4 ADD MSTORE PUSH2 0x64DC DUP2 PUSH2 0x60DC JUMP JUMPDEST SWAP1 POP SWAP2 SWAP1 POP JUMP JUMPDEST PUSH1 0x0 PUSH1 0x20 DUP3 ADD SWAP1 POP DUP2 DUP2 SUB PUSH1 0x0 DUP4 ADD MSTORE PUSH2 0x64FC DUP2 PUSH2 0x60FF JUMP JUMPDEST SWAP1 POP SWAP2 SWAP1 POP JUMP JUMPDEST PUSH1 0x0 PUSH1 0x20 DUP3 ADD SWAP1 POP DUP2 DUP2 SUB PUSH1 0x0 DUP4 ADD MSTORE PUSH2 0x651C DUP2 PUSH2 0x6122 JUMP JUMPDEST SWAP1 POP SWAP2 SWAP1 POP JUMP JUMPDEST PUSH1 0x0 PUSH1 0x20 DUP3 ADD SWAP1 POP DUP2 DUP2 SUB PUSH1 0x0 DUP4 ADD MSTORE PUSH2 0x653C DUP2 PUSH2 0x6145 JUMP JUMPDEST SWAP1 POP SWAP2 SWAP1 POP JUMP JUMPDEST PUSH1 0x0 PUSH1 0x20 DUP3 ADD SWAP1 POP PUSH2 0x6558 PUSH1 0x0 DUP4 ADD DUP5 PUSH2 0x6168 JUMP JUMPDEST SWAP3 SWAP2 POP POP JUMP JUMPDEST PUSH1 0x0 PUSH1 0x20 DUP3 ADD SWAP1 POP PUSH2 0x6573 PUSH1 0x0 DUP4 ADD DUP5 PUSH2 0x6177 JUMP JUMPDEST SWAP3 SWAP2 POP POP JUMP JUMPDEST PUSH1 0x0 PUSH1 0x60 DUP3 ADD SWAP1 POP PUSH2 0x658E PUSH1 0x0 DUP4 ADD DUP7 PUSH2 0x6177 JUMP JUMPDEST PUSH2 0x659B PUSH1 0x20 DUP4 ADD DUP6 PUSH2 0x5E9C JUMP JUMPDEST PUSH2 0x65A8 PUSH1 0x40 DUP4 ADD DUP5 PUSH2 0x5E20 JUMP JUMPDEST SWAP5 SWAP4 POP POP POP POP JUMP JUMPDEST PUSH1 0x0 PUSH1 0x40 DUP3 ADD SWAP1 POP PUSH2 0x65C5 PUSH1 0x0 DUP4 ADD DUP6 PUSH2 0x6177 JUMP JUMPDEST PUSH2 0x65D2 PUSH1 0x20 DUP4 ADD DUP5 PUSH2 0x6177 JUMP JUMPDEST SWAP4 SWAP3 POP POP POP JUMP JUMPDEST PUSH1 0x0 PUSH1 0x60 DUP3 ADD SWAP1 POP PUSH2 0x65EE PUSH1 0x0 DUP4 ADD DUP7 PUSH2 0x6177 JUMP JUMPDEST PUSH2 0x65FB PUSH1 0x20 DUP4 ADD DUP6 PUSH2 0x6177 JUMP JUMPDEST PUSH2 0x6608 PUSH1 0x40 DUP4 ADD DUP5 PUSH2 0x5E20 JUMP JUMPDEST SWAP5 SWAP4 POP POP POP POP JUMP JUMPDEST PUSH1 0x0 PUSH1 0x60 DUP3 ADD SWAP1 POP PUSH2 0x6625 PUSH1 0x0 DUP4 ADD DUP7 PUSH2 0x6177 JUMP JUMPDEST PUSH2 0x6632 PUSH1 0x20 DUP4 ADD DUP6 PUSH2 0x6177 JUMP JUMPDEST PUSH2 0x663F PUSH1 0x40 DUP4 ADD DUP5 PUSH2 0x6177 JUMP JUMPDEST SWAP5 SWAP4 POP POP POP POP JUMP JUMPDEST PUSH1 0x0 PUSH2 0x6651 PUSH2 0x6662 JUMP JUMPDEST SWAP1 POP PUSH2 0x665D DUP3 DUP3 PUSH2 0x6CF0 JUMP JUMPDEST SWAP2 SWAP1 POP JUMP JUMPDEST PUSH1 0x0 PUSH1 0x40 MLOAD SWAP1 POP SWAP1 JUMP JUMPDEST PUSH1 0x0 PUSH8 0xFFFFFFFFFFFFFFFF DUP3 GT ISZERO PUSH2 0x6687 JUMPI PUSH2 0x6686 PUSH2 0x6DF7 JUMP JUMPDEST JUMPDEST PUSH2 0x6690 DUP3 PUSH2 0x6E3A JUMP JUMPDEST SWAP1 POP PUSH1 0x20 DUP2 ADD SWAP1 POP SWAP2 SWAP1 POP JUMP JUMPDEST PUSH1 0x0 DUP2 MLOAD SWAP1 POP SWAP2 SWAP1 POP JUMP JUMPDEST PUSH1 0x0 DUP2 MLOAD SWAP1 POP SWAP2 SWAP1 POP JUMP JUMPDEST PUSH1 0x0 DUP2 SWAP1 POP SWAP3 SWAP2 POP POP JUMP JUMPDEST PUSH1 0x0 DUP3 DUP3 MSTORE PUSH1 0x20 DUP3 ADD SWAP1 POP SWAP3 SWAP2 POP POP JUMP JUMPDEST PUSH1 0x0 DUP2 SWAP1 POP SWAP3 SWAP2 POP POP JUMP JUMPDEST PUSH1 0x0 PUSH2 0x66E5 DUP3 PUSH2 0x6C1B JUMP JUMPDEST SWAP2 POP PUSH2 0x66F0 DUP4 PUSH2 0x6C1B JUMP JUMPDEST SWAP3 POP DUP3 PUSH32 0xFFFFFFFFFFFFFFFFFFFFFFFFFFFFFFFFFFFFFFFFFFFFFFFFFFFFFFFFFFFFFFFF SUB DUP3 GT ISZERO PUSH2 0x6725 JUMPI PUSH2 0x6724 PUSH2 0x6D6A JUMP JUMPDEST JUMPDEST DUP3 DUP3 ADD SWAP1 POP SWAP3 SWAP2 POP POP JUMP JUMPDEST PUSH1 0x0 PUSH2 0x673B DUP3 PUSH2 0x6BC9 JUMP JUMPDEST SWAP2 POP PUSH2 0x6746 DUP4 PUSH2 0x6BC9 JUMP JUMPDEST SWAP3 POP DUP3 PUSH2 0x6756 JUMPI PUSH2 0x6755 PUSH2 0x6D99 JUMP JUMPDEST JUMPDEST PUSH1 0x1 PUSH1 0x0 SUB DUP4 EQ PUSH32 0x8000000000000000000000000000000000000000000000000000000000000000 DUP4 EQ AND ISZERO PUSH2 0x678F JUMPI PUSH2 0x678E PUSH2 0x6D6A JUMP JUMPDEST JUMPDEST DUP3 DUP3 SDIV SWAP1 POP SWAP3 SWAP2 POP POP JUMP JUMPDEST PUSH1 0x0 PUSH2 0x67A5 DUP3 PUSH2 0x6C1B JUMP JUMPDEST SWAP2 POP PUSH2 0x67B0 DUP4 PUSH2 0x6C1B JUMP JUMPDEST SWAP3 POP DUP3 PUSH2 0x67C0 JUMPI PUSH2 0x67BF PUSH2 0x6D99 JUMP JUMPDEST JUMPDEST DUP3 DUP3 DIV SWAP1 POP SWAP3 SWAP2 POP POP JUMP JUMPDEST PUSH1 0x0 DUP1 DUP3 SWAP2 POP DUP4 SWAP1 POP JUMPDEST PUSH1 0x1 DUP6 GT ISZERO PUSH2 0x6815 JUMPI DUP1 DUP7 DIV DUP2 GT ISZERO PUSH2 0x67F1 JUMPI PUSH2 0x67F0 PUSH2 0x6D6A JUMP JUMPDEST JUMPDEST PUSH1 0x1 DUP6 AND ISZERO PUSH2 0x6800 JUMPI DUP1 DUP3 MUL SWAP2 POP JUMPDEST DUP1 DUP2 MUL SWAP1 POP PUSH2 0x680E DUP6 PUSH2 0x6E4B JUMP JUMPDEST SWAP5 POP PUSH2 0x67D5 JUMP JUMPDEST SWAP5 POP SWAP5 SWAP3 POP POP POP JUMP JUMPDEST PUSH1 0x0 PUSH2 0x6829 DUP3 PUSH2 0x6C1B JUMP JUMPDEST SWAP2 POP PUSH2 0x6834 DUP4 PUSH2 0x6C35 JUMP JUMPDEST SWAP3 POP PUSH2 0x6861 PUSH32 0xFFFFFFFFFFFFFFFFFFFFFFFFFFFFFFFFFFFFFFFFFFFFFFFFFFFFFFFFFFFFFFFF DUP5 DUP5 PUSH2 0x6869 JUMP JUMPDEST SWAP1 POP SWAP3 SWAP2 POP POP JUMP JUMPDEST PUSH1 0x0 DUP3 PUSH2 0x6879 JUMPI PUSH1 0x1 SWAP1 POP PUSH2 0x6935 JUMP JUMPDEST DUP2 PUSH2 0x6887 JUMPI PUSH1 0x0 SWAP1 POP PUSH2 0x6935 JUMP JUMPDEST DUP2 PUSH1 0x1 DUP2 EQ PUSH2 0x689D JUMPI PUSH1 0x2 DUP2 EQ PUSH2 0x68A7 JUMPI PUSH2 0x68D6 JUMP JUMPDEST PUSH1 0x1 SWAP2 POP POP PUSH2 0x6935 JUMP JUMPDEST PUSH1 0xFF DUP5 GT ISZERO PUSH2 0x68B9 JUMPI PUSH2 0x68B8 PUSH2 0x6D6A JUMP JUMPDEST JUMPDEST DUP4 PUSH1 0x2 EXP SWAP2 POP DUP5 DUP3 GT ISZERO PUSH2 0x68D0 JUMPI PUSH2 0x68CF PUSH2 0x6D6A JUMP JUMPDEST JUMPDEST POP PUSH2 0x6935 JUMP JUMPDEST POP PUSH1 0x20 DUP4 LT PUSH2 0x133 DUP4 LT AND PUSH1 0x4E DUP5 LT PUSH1 0xB DUP5 LT AND OR ISZERO PUSH2 0x690B JUMPI DUP3 DUP3 EXP SWAP1 POP DUP4 DUP2 GT ISZERO PUSH2 0x6906 JUMPI PUSH2 0x6905 PUSH2 0x6D6A JUMP JUMPDEST JUMPDEST PUSH2 0x6935 JUMP JUMPDEST PUSH2 0x6918 DUP5 DUP5 DUP5 PUSH1 0x1 PUSH2 0x67CB JUMP JUMPDEST SWAP3 POP SWAP1 POP DUP2 DUP5 DIV DUP2 GT ISZERO PUSH2 0x692F JUMPI PUSH2 0x692E PUSH2 0x6D6A JUMP JUMPDEST JUMPDEST DUP2 DUP2 MUL SWAP1 POP JUMPDEST SWAP4 SWAP3 POP POP POP JUMP JUMPDEST PUSH1 0x0 PUSH2 0x6947 DUP3 PUSH2 0x6BC9 JUMP JUMPDEST SWAP2 POP PUSH2 0x6952 DUP4 PUSH2 0x6BC9 JUMP JUMPDEST SWAP3 POP DUP3 PUSH32 0x7FFFFFFFFFFFFFFFFFFFFFFFFFFFFFFFFFFFFFFFFFFFFFFFFFFFFFFFFFFFFFFF DIV DUP3 GT PUSH1 0x0 DUP5 SGT PUSH1 0x0 DUP5 SGT AND AND ISZERO PUSH2 0x6991 JUMPI PUSH2 0x6990 PUSH2 0x6D6A JUMP JUMPDEST JUMPDEST DUP2 PUSH32 0x8000000000000000000000000000000000000000000000000000000000000000 SDIV DUP4 SLT PUSH1 0x0 DUP5 SLT PUSH1 0x0 DUP5 SGT AND AND ISZERO PUSH2 0x69CE JUMPI PUSH2 0x69CD PUSH2 0x6D6A JUMP JUMPDEST JUMPDEST DUP3 PUSH32 0x8000000000000000000000000000000000000000000000000000000000000000 SDIV DUP3 SLT PUSH1 0x0 DUP5 SGT PUSH1 0x0 DUP5 SLT AND AND ISZERO PUSH2 0x6A0B JUMPI PUSH2 0x6A0A PUSH2 0x6D6A JUMP JUMPDEST JUMPDEST DUP3 PUSH32 0x7FFFFFFFFFFFFFFFFFFFFFFFFFFFFFFFFFFFFFFFFFFFFFFFFFFFFFFFFFFFFFFF SDIV DUP3 SLT PUSH1 0x0 DUP5 SLT PUSH1 0x0 DUP5 SLT AND AND ISZERO PUSH2 0x6A48 JUMPI PUSH2 0x6A47 PUSH2 0x6D6A JUMP JUMPDEST JUMPDEST DUP3 DUP3 MUL SWAP1 POP SWAP3 SWAP2 POP POP JUMP JUMPDEST PUSH1 0x0 PUSH2 0x6A5E DUP3 PUSH2 0x6C1B JUMP JUMPDEST SWAP2 POP PUSH2 0x6A69 DUP4 PUSH2 0x6C1B JUMP JUMPDEST SWAP3 POP DUP2 PUSH32 0xFFFFFFFFFFFFFFFFFFFFFFFFFFFFFFFFFFFFFFFFFFFFFFFFFFFFFFFFFFFFFFFF DIV DUP4 GT DUP3 ISZERO ISZERO AND ISZERO PUSH2 0x6AA2 JUMPI PUSH2 0x6AA1 PUSH2 0x6D6A JUMP JUMPDEST JUMPDEST DUP3 DUP3 MUL SWAP1 POP SWAP3 SWAP2 POP POP JUMP JUMPDEST PUSH1 0x0 PUSH2 0x6AB8 DUP3 PUSH2 0x6BC9 JUMP JUMPDEST SWAP2 POP PUSH2 0x6AC3 DUP4 PUSH2 0x6BC9 JUMP JUMPDEST SWAP3 POP DUP3 PUSH32 0x8000000000000000000000000000000000000000000000000000000000000000 ADD DUP3 SLT PUSH1 0x0 DUP5 SLT ISZERO AND ISZERO PUSH2 0x6AFE JUMPI PUSH2 0x6AFD PUSH2 0x6D6A JUMP JUMPDEST JUMPDEST DUP3 PUSH32 0x7FFFFFFFFFFFFFFFFFFFFFFFFFFFFFFFFFFFFFFFFFFFFFFFFFFFFFFFFFFFFFFF ADD DUP3 SGT PUSH1 0x0 DUP5 SLT AND ISZERO PUSH2 0x6B36 JUMPI PUSH2 0x6B35 PUSH2 0x6D6A JUMP JUMPDEST JUMPDEST DUP3 DUP3 SUB SWAP1 POP SWAP3 SWAP2 POP POP JUMP JUMPDEST PUSH1 0x0 PUSH2 0x6B4C DUP3 PUSH2 0x6C1B JUMP JUMPDEST SWAP2 POP PUSH2 0x6B57 DUP4 PUSH2 0x6C1B JUMP JUMPDEST SWAP3 POP DUP3 DUP3 LT ISZERO PUSH2 0x6B6A JUMPI PUSH2 0x6B69 PUSH2 0x6D6A JUMP JUMPDEST JUMPDEST DUP3 DUP3 SUB SWAP1 POP SWAP3 SWAP2 POP POP JUMP JUMPDEST PUSH1 0x0 PUSH2 0x6B80 DUP3 PUSH2 0x6BFB JUMP JUMPDEST SWAP1 POP SWAP2 SWAP1 POP JUMP JUMPDEST PUSH1 0x0 DUP2 ISZERO ISZERO SWAP1 POP SWAP2 SWAP1 POP JUMP JUMPDEST PUSH1 0x0 PUSH2 0x6B9E DUP3 PUSH2 0x6B75 JUMP JUMPDEST SWAP1 POP SWAP2 SWAP1 POP JUMP JUMPDEST PUSH1 0x0 PUSH2 0x6BB0 DUP3 PUSH2 0x6B75 JUMP JUMPDEST SWAP1 POP SWAP2 SWAP1 POP JUMP JUMPDEST PUSH1 0x0 PUSH2 0x6BC2 DUP3 PUSH2 0x6B75 JUMP JUMPDEST SWAP1 POP SWAP2 SWAP1 POP JUMP JUMPDEST PUSH1 0x0 DUP2 SWAP1 POP SWAP2 SWAP1 POP JUMP JUMPDEST PUSH1 0x0 PUSH14 0xFFFFFFFFFFFFFFFFFFFFFFFFFFFF DUP3 AND SWAP1 POP SWAP2 SWAP1 POP JUMP JUMPDEST PUSH1 0x0 PUSH2 0xFFFF DUP3 AND SWAP1 POP SWAP2 SWAP1 POP JUMP JUMPDEST PUSH1 0x0 PUSH20 0xFFFFFFFFFFFFFFFFFFFFFFFFFFFFFFFFFFFFFFFF DUP3 AND SWAP1 POP SWAP2 SWAP1 POP JUMP JUMPDEST PUSH1 0x0 DUP2 SWAP1 POP SWAP2 SWAP1 POP JUMP JUMPDEST PUSH1 0x0 PUSH4 0xFFFFFFFF DUP3 AND SWAP1 POP SWAP2 SWAP1 POP JUMP JUMPDEST PUSH1 0x0 PUSH1 0xFF DUP3 AND SWAP1 POP SWAP2 SWAP1 POP JUMP JUMPDEST PUSH1 0x0 PUSH2 0x6C4D DUP3 PUSH2 0x6C8A JUMP JUMPDEST SWAP1 POP SWAP2 SWAP1 POP JUMP JUMPDEST PUSH1 0x0 PUSH2 0x6C5F DUP3 PUSH2 0x6C8A JUMP JUMPDEST SWAP1 POP SWAP2 SWAP1 POP JUMP JUMPDEST PUSH1 0x0 PUSH2 0x6C71 DUP3 PUSH2 0x6C8A JUMP JUMPDEST SWAP1 POP SWAP2 SWAP1 POP JUMP JUMPDEST PUSH1 0x0 PUSH2 0x6C83 DUP3 PUSH2 0x6C1B JUMP JUMPDEST SWAP1 POP SWAP2 SWAP1 POP JUMP JUMPDEST PUSH1 0x0 PUSH2 0x6C95 DUP3 PUSH2 0x6C9C JUMP JUMPDEST SWAP1 POP SWAP2 SWAP1 POP JUMP JUMPDEST PUSH1 0x0 PUSH2 0x6CA7 DUP3 PUSH2 0x6BFB JUMP JUMPDEST SWAP1 POP SWAP2 SWAP1 POP JUMP JUMPDEST DUP3 DUP2 DUP4 CALLDATACOPY PUSH1 0x0 DUP4 DUP4 ADD MSTORE POP POP POP JUMP JUMPDEST PUSH1 0x0 JUMPDEST DUP4 DUP2 LT ISZERO PUSH2 0x6CDB JUMPI DUP1 DUP3 ADD MLOAD DUP2 DUP5 ADD MSTORE PUSH1 0x20 DUP2 ADD SWAP1 POP PUSH2 0x6CC0 JUMP JUMPDEST DUP4 DUP2 GT ISZERO PUSH2 0x6CEA JUMPI PUSH1 0x0 DUP5 DUP5 ADD MSTORE JUMPDEST POP POP POP POP JUMP JUMPDEST PUSH2 0x6CF9 DUP3 PUSH2 0x6E3A JUMP JUMPDEST DUP2 ADD DUP2 DUP2 LT PUSH8 0xFFFFFFFFFFFFFFFF DUP3 GT OR ISZERO PUSH2 0x6D18 JUMPI PUSH2 0x6D17 PUSH2 0x6DF7 JUMP JUMPDEST JUMPDEST DUP1 PUSH1 0x40 MSTORE POP POP POP JUMP JUMPDEST PUSH1 0x0 PUSH2 0x6D2C DUP3 PUSH2 0x6C1B JUMP JUMPDEST SWAP2 POP PUSH32 0xFFFFFFFFFFFFFFFFFFFFFFFFFFFFFFFFFFFFFFFFFFFFFFFFFFFFFFFFFFFFFFFF DUP3 EQ ISZERO PUSH2 0x6D5F JUMPI PUSH2 0x6D5E PUSH2 0x6D6A JUMP JUMPDEST JUMPDEST PUSH1 0x1 DUP3 ADD SWAP1 POP SWAP2 SWAP1 POP JUMP JUMPDEST PUSH32 0x4E487B7100000000000000000000000000000000000000000000000000000000 PUSH1 0x0 MSTORE PUSH1 0x11 PUSH1 0x4 MSTORE PUSH1 0x24 PUSH1 0x0 REVERT JUMPDEST PUSH32 0x4E487B7100000000000000000000000000000000000000000000000000000000 PUSH1 0x0 MSTORE PUSH1 0x12 PUSH1 0x4 MSTORE PUSH1 0x24 PUSH1 0x0 REVERT JUMPDEST PUSH32 0x4E487B7100000000000000000000000000000000000000000000000000000000 PUSH1 0x0 MSTORE PUSH1 0x32 PUSH1 0x4 MSTORE PUSH1 0x24 PUSH1 0x0 REVERT JUMPDEST PUSH32 0x4E487B7100000000000000000000000000000000000000000000000000000000 PUSH1 0x0 MSTORE PUSH1 0x41 PUSH1 0x4 MSTORE PUSH1 0x24 PUSH1 0x0 REVERT JUMPDEST PUSH1 0x0 DUP1 REVERT JUMPDEST PUSH1 0x0 DUP1 REVERT JUMPDEST PUSH1 0x0 DUP1 REVERT JUMPDEST PUSH1 0x0 DUP1 REVERT JUMPDEST PUSH1 0x0 PUSH1 0x1F NOT PUSH1 0x1F DUP4 ADD AND SWAP1 POP SWAP2 SWAP1 POP JUMP JUMPDEST PUSH1 0x0 DUP2 PUSH1 0x1 SHR SWAP1 POP SWAP2 SWAP1 POP JUMP JUMPDEST PUSH32 0x77697468647261773A20776974686472617720616D6F756E742063616E277420 PUSH1 0x0 DUP3 ADD MSTORE PUSH32 0x657863656564207573657273206465706F736974656420616D6F756E74000000 PUSH1 0x20 DUP3 ADD MSTORE POP JUMP JUMPDEST PUSH32 0x4F776E61626C653A206E6577206F776E657220697320746865207A65726F2061 PUSH1 0x0 DUP3 ADD MSTORE PUSH32 0x6464726573730000000000000000000000000000000000000000000000000000 PUSH1 0x20 DUP3 ADD MSTORE POP JUMP JUMPDEST PUSH32 0x41424F41543A3A6465706F736974466F72557365723A20596F7520617265206E PUSH1 0x0 DUP3 ADD MSTORE PUSH32 0x6F7420616C6C6F77656420746F20657865637574652074686973206465706F73 PUSH1 0x20 DUP3 ADD MSTORE PUSH32 0x69742E0000000000000000000000000000000000000000000000000000000000 PUSH1 0x40 DUP3 ADD MSTORE POP JUMP JUMPDEST PUSH32 0x416464726573733A20696E73756666696369656E742062616C616E636520666F PUSH1 0x0 DUP3 ADD MSTORE PUSH32 0x722063616C6C0000000000000000000000000000000000000000000000000000 PUSH1 0x20 DUP3 ADD MSTORE POP JUMP JUMPDEST PUSH32 0x41424F41543A3A77697468647261773A2043616E277420776974686472617720 PUSH1 0x0 DUP3 ADD MSTORE PUSH32 0x6265666F7265206C6F636B696E6720706572696F6420656E6465642E00000000 PUSH1 0x20 DUP3 ADD MSTORE POP JUMP JUMPDEST PUSH32 0x44657620616464726573732073686F756C64206E6F74206265207A65726F2061 PUSH1 0x0 DUP3 ADD MSTORE PUSH32 0x6464726573730000000000000000000000000000000000000000000000000000 PUSH1 0x20 DUP3 ADD MSTORE POP JUMP JUMPDEST PUSH32 0x41424F41543A3A7769746864726177576974686F7574526577617264733A2043 PUSH1 0x0 DUP3 ADD MSTORE PUSH32 0x616E2774207769746864726177206265666F7265206C6F636B696E6720706572 PUSH1 0x20 DUP3 ADD MSTORE PUSH32 0x696F6420656E6465642E00000000000000000000000000000000000000000000 PUSH1 0x40 DUP3 ADD MSTORE POP JUMP JUMPDEST PUSH32 0x41424F41543A3A7365744D61696E7461696E65723A204D61696E7461696E6572 PUSH1 0x0 DUP3 ADD MSTORE PUSH32 0x2063616E277420657175616C2070726576696F7573206D61696E7461696E6572 PUSH1 0x20 DUP3 ADD MSTORE PUSH32 0x206F72207A65726F206164647265737300000000000000000000000000000000 PUSH1 0x40 DUP3 ADD MSTORE POP JUMP JUMPDEST PUSH32 0x41424F41543A3A736574436F696E3A2043616E27742073657420636F696E2074 PUSH1 0x0 DUP3 ADD MSTORE PUSH32 0x6F207A65726F2061646472657373000000000000000000000000000000000000 PUSH1 0x20 DUP3 ADD MSTORE POP JUMP JUMPDEST PUSH32 0x4F776E61626C653A2063616C6C6572206973206E6F7420746865206F776E6572 PUSH1 0x0 DUP3 ADD MSTORE POP JUMP JUMPDEST PUSH32 0x41424F41543A3A736574436F696E3A2043616E2774207265706C616365207468 PUSH1 0x0 DUP3 ADD MSTORE PUSH32 0x652073616D6520636F696E000000000000000000000000000000000000000000 PUSH1 0x20 DUP3 ADD MSTORE POP JUMP JUMPDEST PUSH32 0x46756E6374696F6E206973206C6F636B65640000000000000000000000000000 PUSH1 0x0 DUP3 ADD MSTORE POP JUMP JUMPDEST PUSH32 0x6F70657261746F723A2063616C6C6572206973206E6F7420616C6C6F77656420 PUSH1 0x0 DUP3 ADD MSTORE PUSH32 0x746F2063616C6C20746869732066756E6374696F6E0000000000000000000000 PUSH1 0x20 DUP3 ADD MSTORE POP JUMP JUMPDEST PUSH32 0x416464726573733A2063616C6C20746F206E6F6E2D636F6E7472616374000000 PUSH1 0x0 DUP3 ADD MSTORE POP JUMP JUMPDEST PUSH32 0x5361666545524332303A204552433230206F7065726174696F6E20646964206E PUSH1 0x0 DUP3 ADD MSTORE PUSH32 0x6F74207375636365656400000000000000000000000000000000000000000000 PUSH1 0x20 DUP3 ADD MSTORE POP JUMP JUMPDEST PUSH32 0x5265656E7472616E637947756172643A207265656E7472616E742063616C6C00 PUSH1 0x0 DUP3 ADD MSTORE POP JUMP JUMPDEST PUSH32 0x7365743A206465706F736974206665652063616E277420657863656564203130 PUSH1 0x0 DUP3 ADD MSTORE PUSH32 0x2025000000000000000000000000000000000000000000000000000000000000 PUSH1 0x20 DUP3 ADD MSTORE POP JUMP JUMPDEST PUSH2 0x737A DUP2 PUSH2 0x6B75 JUMP JUMPDEST DUP2 EQ PUSH2 0x7385 JUMPI PUSH1 0x0 DUP1 REVERT JUMPDEST POP JUMP JUMPDEST PUSH2 0x7391 DUP2 PUSH2 0x6B87 JUMP JUMPDEST DUP2 EQ PUSH2 0x739C JUMPI PUSH1 0x0 DUP1 REVERT JUMPDEST POP JUMP JUMPDEST PUSH2 0x73A8 DUP2 PUSH2 0x6B93 JUMP JUMPDEST DUP2 EQ PUSH2 0x73B3 JUMPI PUSH1 0x0 DUP1 REVERT JUMPDEST POP JUMP JUMPDEST PUSH2 0x73BF DUP2 PUSH2 0x6BA5 JUMP JUMPDEST DUP2 EQ PUSH2 0x73CA JUMPI PUSH1 0x0 DUP1 REVERT JUMPDEST POP JUMP JUMPDEST PUSH2 0x73D6 DUP2 PUSH2 0x6BB7 JUMP JUMPDEST DUP2 EQ PUSH2 0x73E1 JUMPI PUSH1 0x0 DUP1 REVERT JUMPDEST POP JUMP JUMPDEST PUSH2 0x73ED DUP2 PUSH2 0x6BC9 JUMP JUMPDEST DUP2 EQ PUSH2 0x73F8 JUMPI PUSH1 0x0 DUP1 REVERT JUMPDEST POP JUMP JUMPDEST PUSH2 0x7404 DUP2 PUSH2 0x6BD3 JUMP JUMPDEST DUP2 EQ PUSH2 0x740F JUMPI PUSH1 0x0 DUP1 REVERT JUMPDEST POP JUMP JUMPDEST PUSH2 0x741B DUP2 PUSH2 0x6BED JUMP JUMPDEST DUP2 EQ PUSH2 0x7426 JUMPI PUSH1 0x0 DUP1 REVERT JUMPDEST POP JUMP JUMPDEST PUSH2 0x7432 DUP2 PUSH2 0x6C1B JUMP JUMPDEST DUP2 EQ PUSH2 0x743D JUMPI PUSH1 0x0 DUP1 REVERT JUMPDEST POP JUMP JUMPDEST PUSH2 0x7449 DUP2 PUSH2 0x6C25 JUMP JUMPDEST DUP2 EQ PUSH2 0x7454 JUMPI PUSH1 0x0 DUP1 REVERT JUMPDEST POP JUMP JUMPDEST PUSH2 0x7460 DUP2 PUSH2 0x6C35 JUMP JUMPDEST DUP2 EQ PUSH2 0x746B JUMPI PUSH1 0x0 DUP1 REVERT JUMPDEST POP JUMP INVALID LOG2 PUSH5 0x6970667358 0x22 SLT KECCAK256 SSTORE 0xCB 0x1F MSTORE EXTCODEHASH CALLDATALOAD 0xD5 CALLCODE XOR 0xBC 0xCD PUSH19 0x8CEF67098466A30D46ADA23433FC2C4406683B BALANCE PUSH5 0x736F6C6343 STOP ADDMOD SMOD STOP CALLER "
		},
		"gasEstimates": {
			"creation": {
				"codeDepositCost": "5972000",
				"executionCost": "infinite",
				"totalCost": "infinite"
			},
			"external": {
				"add(uint256,address,uint256,uint16,address,uint256,bool,bool)": "infinite",
				"canClaimRewards(uint256)": "infinite",
				"checkPriceUpdate()": "infinite",
				"claim(uint256)": "infinite",
				"coin()": "2714",
				"coinPerBlock()": "2519",
				"deposit(uint256,uint256)": "infinite",
				"depositForUser(uint256,uint256,address)": "infinite",
				"depositedCoins()": "2562",
				"devAddress()": "2582",
				"feeAddress()": "2626",
				"getAveragePrice()": "infinite",
				"getBalanceOf(address,uint256)": "infinite",
				"getCoinAmount(address,address,uint256)": "infinite",
				"getDepositFee(uint256)": "infinite",
				"getLpSupply(uint256)": "infinite",
				"getNewEmissionRate(uint256,bool)": "infinite",
				"getPriceDifference(int256,int256)": "infinite",
				"getTokenPrice()": "infinite",
				"hourlyIndex()": "2564",
				"hourlyPrices(uint256)": "infinite",
				"isLockEnabled()": "2560",
				"lastAveragePrice()": "2540",
				"lastEmissionIncrease()": "2519",
				"lastEmissionUpdateBlock()": "2540",
				"lastPriceUpdateBlock()": "2519",
				"lockFunction(string)": "infinite",
				"lpAddress()": "2582",
				"maintainer()": "2656",
				"massUpdatePools()": "infinite",
				"maxEmissionIncrease()": "2561",
				"owner()": "2590",
				"pendingCoin(uint256,address)": "infinite",
				"poolInfos(uint256)": "infinite",
				"poolLength()": "2515",
				"previousAveragePrice()": "2542",
				"renounceOwnership()": "30485",
				"setCoin(address)": "infinite",
				"setDevAddress(address)": "infinite",
				"setMaintainer(address)": "infinite",
				"setMaxEmissionIncrease(uint16)": "infinite",
				"setPoolVariables(uint256,uint256,uint16,uint256,bool,bool)": "infinite",
				"setTimelockEnabled()": "29678",
				"startBlock()": "2520",
				"timelock(string)": "infinite",
				"totalAllocPoint()": "2520",
				"transferOwnership(address)": "30811",
				"unlockFunction(string)": "infinite",
				"updateEmissionRate(uint256)": "infinite",
				"updatePool(uint256)": "infinite",
				"updatePrice()": "infinite",
				"userInfos(uint256,address)": "infinite",
				"whitelist(bool,address)": "27322",
				"whitelisted(address)": "2934",
				"withdraw(uint256,uint256)": "infinite",
				"withdrawWithoutRewards(uint256)": "infinite"
			},
			"internal": {
				"executeDeposit(uint256,uint256,address)": "infinite",
				"safeCoinTransfer(address,uint256)": "infinite",
				"updateEmissionRateByPriceDifference()": "infinite",
				"updateEmissionRateInternal(uint256)": "infinite"
			}
		},
		"methodIdentifiers": {
			"add(uint256,address,uint256,uint16,address,uint256,bool,bool)": "97e78494",
			"canClaimRewards(uint256)": "29465d42",
			"checkPriceUpdate()": "437f660e",
			"claim(uint256)": "379607f5",
			"coin()": "11df9995",
			"coinPerBlock()": "9eed5b33",
			"deposit(uint256,uint256)": "e2bbb158",
			"depositForUser(uint256,uint256,address)": "a3f30d27",
			"depositedCoins()": "7ba71c55",
			"devAddress()": "3ad10ef6",
			"feeAddress()": "41275358",
			"getAveragePrice()": "a6be46aa",
			"getBalanceOf(address,uint256)": "94d45b59",
			"getCoinAmount(address,address,uint256)": "575b789c",
			"getDepositFee(uint256)": "9fbe42e3",
			"getLpSupply(uint256)": "5ecbbf98",
			"getNewEmissionRate(uint256,bool)": "ca4164f9",
			"getPriceDifference(int256,int256)": "e6c1e89c",
			"getTokenPrice()": "4b94f50e",
			"hourlyIndex()": "27de1947",
			"hourlyPrices(uint256)": "6e0c9f0a",
			"isLockEnabled()": "a347511a",
			"lastAveragePrice()": "da201248",
			"lastEmissionIncrease()": "3e82211c",
			"lastEmissionUpdateBlock()": "edc23f96",
			"lastPriceUpdateBlock()": "65a2d701",
			"lockFunction(string)": "9f531156",
			"lpAddress()": "9b4dc8cc",
			"maintainer()": "9850d32b",
			"massUpdatePools()": "630b5ba1",
			"maxEmissionIncrease()": "57320251",
			"owner()": "8da5cb5b",
			"pendingCoin(uint256,address)": "e9a52b67",
			"poolInfos(uint256)": "689d84e4",
			"poolLength()": "081e3eda",
			"previousAveragePrice()": "8ca20689",
			"renounceOwnership()": "715018a6",
			"setCoin(address)": "82e46b75",
			"setDevAddress(address)": "d0d41fe1",
			"setMaintainer(address)": "13ea5d29",
			"setMaxEmissionIncrease(uint16)": "f0c44502",
			"setPoolVariables(uint256,uint256,uint16,uint256,bool,bool)": "262917d9",
			"setTimelockEnabled()": "f4762fd6",
			"startBlock()": "48cd4cb1",
			"timelock(string)": "f98080c0",
			"totalAllocPoint()": "17caf6f1",
			"transferOwnership(address)": "f2fde38b",
			"unlockFunction(string)": "a607494a",
			"updateEmissionRate(uint256)": "0ba84cd2",
			"updatePool(uint256)": "51eb05a6",
			"updatePrice()": "673a7e28",
			"userInfos(uint256,address)": "87370846",
			"whitelist(bool,address)": "34c434e4",
			"whitelisted(address)": "d936547e",
			"withdraw(uint256,uint256)": "441a3e70",
			"withdrawWithoutRewards(uint256)": "a8b39eee"
		}
	},
	"abi": [
		{
			"inputs": [
				{
					"internalType": "address",
					"name": "_coin",
					"type": "address"
				},
				{
					"internalType": "address",
					"name": "_devaddr",
					"type": "address"
				},
				{
					"internalType": "address",
					"name": "_feeAddress",
					"type": "address"
				},
				{
					"internalType": "uint256",
					"name": "_startBlock",
					"type": "uint256"
				}
			],
			"stateMutability": "nonpayable",
			"type": "constructor"
		},
		{
			"anonymous": false,
			"inputs": [
				{
					"indexed": true,
					"internalType": "address",
					"name": "previousCoin",
					"type": "address"
				},
				{
					"indexed": true,
					"internalType": "address",
					"name": "newCoin",
					"type": "address"
				}
			],
			"name": "ChangedCoin",
			"type": "event"
		},
		{
			"anonymous": false,
			"inputs": [
				{
					"indexed": true,
					"internalType": "address",
					"name": "user",
					"type": "address"
				},
				{
					"indexed": true,
					"internalType": "uint256",
					"name": "pid",
					"type": "uint256"
				},
				{
					"indexed": false,
					"internalType": "uint256",
					"name": "amount",
					"type": "uint256"
				}
			],
			"name": "Claim",
			"type": "event"
		},
		{
			"anonymous": false,
			"inputs": [
				{
					"indexed": true,
					"internalType": "address",
					"name": "user",
					"type": "address"
				},
				{
					"indexed": true,
					"internalType": "uint256",
					"name": "pid",
					"type": "uint256"
				},
				{
					"indexed": false,
					"internalType": "uint256",
					"name": "amount",
					"type": "uint256"
				}
			],
			"name": "Deposit",
			"type": "event"
		},
		{
			"anonymous": false,
			"inputs": [
				{
					"indexed": true,
					"internalType": "address",
					"name": "user",
					"type": "address"
				},
				{
					"indexed": true,
					"internalType": "uint256",
					"name": "pid",
					"type": "uint256"
				},
				{
					"indexed": false,
					"internalType": "uint256",
					"name": "amount",
					"type": "uint256"
				}
			],
			"name": "EmergencyWithdraw",
			"type": "event"
		},
		{
			"anonymous": false,
			"inputs": [],
			"name": "EnabledLock",
			"type": "event"
		},
		{
			"anonymous": false,
			"inputs": [
				{
					"indexed": true,
					"internalType": "address",
					"name": "previousMaintainer",
					"type": "address"
				},
				{
					"indexed": true,
					"internalType": "address",
					"name": "newMaintainer",
					"type": "address"
				}
			],
			"name": "MaintainerTransferred",
			"type": "event"
		},
		{
			"anonymous": false,
			"inputs": [
				{
					"indexed": true,
					"internalType": "address",
					"name": "pool",
					"type": "address"
				},
				{
					"indexed": true,
					"internalType": "uint256",
					"name": "pid",
					"type": "uint256"
				}
			],
			"name": "NewPool",
			"type": "event"
		},
		{
			"anonymous": false,
			"inputs": [
				{
					"indexed": true,
					"internalType": "address",
					"name": "previousOwner",
					"type": "address"
				},
				{
					"indexed": true,
					"internalType": "address",
					"name": "newOwner",
					"type": "address"
				}
			],
			"name": "OwnershipTransferred",
			"type": "event"
		},
		{
			"anonymous": false,
			"inputs": [
				{
					"indexed": true,
					"internalType": "address",
					"name": "user",
					"type": "address"
				},
				{
					"indexed": true,
					"internalType": "address",
					"name": "newAddress",
					"type": "address"
				}
			],
			"name": "SetDevAddress",
			"type": "event"
		},
		{
			"anonymous": false,
			"inputs": [
				{
					"indexed": true,
					"internalType": "address",
					"name": "user",
					"type": "address"
				},
				{
					"indexed": true,
					"internalType": "address",
					"name": "newAddress",
					"type": "address"
				}
			],
			"name": "SetFeeAddress",
			"type": "event"
		},
		{
			"anonymous": false,
			"inputs": [
				{
					"indexed": true,
					"internalType": "address",
					"name": "user",
					"type": "address"
				},
				{
					"indexed": false,
					"internalType": "uint16",
					"name": "newMaxEmissionIncrease",
					"type": "uint16"
				}
			],
			"name": "SetMaxEmissionIncrease",
			"type": "event"
		},
		{
			"anonymous": false,
			"inputs": [
				{
					"indexed": true,
					"internalType": "string",
					"name": "functionName",
					"type": "string"
				},
				{
					"indexed": true,
					"internalType": "uint256",
					"name": "unlockedAt",
					"type": "uint256"
				}
			],
			"name": "UnlockedFunction",
			"type": "event"
		},
		{
			"anonymous": false,
			"inputs": [
				{
					"indexed": true,
					"internalType": "address",
					"name": "user",
					"type": "address"
				},
				{
					"indexed": false,
					"internalType": "uint256",
					"name": "newEmission",
					"type": "uint256"
				}
			],
			"name": "UpdateEmissionRate",
			"type": "event"
		},
		{
			"anonymous": false,
			"inputs": [
				{
					"indexed": true,
					"internalType": "uint256",
					"name": "previousAveragePrice",
					"type": "uint256"
				},
				{
					"indexed": true,
					"internalType": "uint256",
					"name": "newAveragePrice",
					"type": "uint256"
				}
			],
			"name": "UpdatedAveragePrice",
			"type": "event"
		},
		{
			"anonymous": false,
			"inputs": [
				{
					"indexed": true,
					"internalType": "uint256",
					"name": "pid",
					"type": "uint256"
				}
			],
			"name": "UpdatedPool",
			"type": "event"
		},
		{
			"anonymous": false,
			"inputs": [
				{
					"indexed": true,
					"internalType": "address",
					"name": "user",
					"type": "address"
				},
				{
					"indexed": true,
					"internalType": "uint256",
					"name": "pid",
					"type": "uint256"
				},
				{
					"indexed": false,
					"internalType": "uint256",
					"name": "amount",
					"type": "uint256"
				}
			],
			"name": "Withdraw",
			"type": "event"
		},
		{
			"inputs": [
				{
					"internalType": "uint256",
					"name": "_allocPoint",
					"type": "uint256"
				},
				{
					"internalType": "contract IERC20",
					"name": "_lpToken",
					"type": "address"
				},
				{
					"internalType": "uint256",
					"name": "_pid",
					"type": "uint256"
				},
				{
					"internalType": "uint16",
					"name": "_depositFee",
					"type": "uint16"
				},
				{
					"internalType": "contract IMasterChefContractor",
					"name": "_contractor",
					"type": "address"
				},
				{
					"internalType": "uint256",
					"name": "_lockPeriod",
					"type": "uint256"
				},
				{
					"internalType": "bool",
					"name": "_isCoinLp",
					"type": "bool"
				},
				{
					"internalType": "bool",
					"name": "_withUpdate",
					"type": "bool"
				}
			],
			"name": "add",
			"outputs": [],
			"stateMutability": "nonpayable",
			"type": "function"
		},
		{
			"inputs": [
				{
					"internalType": "uint256",
					"name": "_amount",
					"type": "uint256"
				}
			],
			"name": "canClaimRewards",
			"outputs": [
				{
					"internalType": "bool",
					"name": "",
					"type": "bool"
				}
			],
			"stateMutability": "view",
			"type": "function"
		},
		{
			"inputs": [],
			"name": "checkPriceUpdate",
			"outputs": [],
			"stateMutability": "nonpayable",
			"type": "function"
		},
		{
			"inputs": [
				{
					"internalType": "uint256",
					"name": "_pid",
					"type": "uint256"
				}
			],
			"name": "claim",
			"outputs": [],
			"stateMutability": "nonpayable",
			"type": "function"
		},
		{
			"inputs": [],
			"name": "coin",
			"outputs": [
				{
					"internalType": "contract IAboatToken",
					"name": "",
					"type": "address"
				}
			],
			"stateMutability": "view",
			"type": "function"
		},
		{
			"inputs": [],
			"name": "coinPerBlock",
			"outputs": [
				{
					"internalType": "uint256",
					"name": "",
					"type": "uint256"
				}
			],
			"stateMutability": "view",
			"type": "function"
		},
		{
			"inputs": [
				{
					"internalType": "uint256",
					"name": "_pid",
					"type": "uint256"
				},
				{
					"internalType": "uint256",
					"name": "_amount",
					"type": "uint256"
				}
			],
			"name": "deposit",
			"outputs": [],
			"stateMutability": "nonpayable",
			"type": "function"
		},
		{
			"inputs": [
				{
					"internalType": "uint256",
					"name": "_pid",
					"type": "uint256"
				},
				{
					"internalType": "uint256",
					"name": "_amount",
					"type": "uint256"
				},
				{
					"internalType": "address",
					"name": "user",
					"type": "address"
				}
			],
			"name": "depositForUser",
			"outputs": [],
			"stateMutability": "nonpayable",
			"type": "function"
		},
		{
			"inputs": [],
			"name": "depositedCoins",
			"outputs": [
				{
					"internalType": "uint256",
					"name": "",
					"type": "uint256"
				}
			],
			"stateMutability": "view",
			"type": "function"
		},
		{
			"inputs": [],
			"name": "devAddress",
			"outputs": [
				{
					"internalType": "address",
					"name": "",
					"type": "address"
				}
			],
			"stateMutability": "view",
			"type": "function"
		},
		{
			"inputs": [],
			"name": "feeAddress",
			"outputs": [
				{
					"internalType": "address",
					"name": "",
					"type": "address"
				}
			],
			"stateMutability": "view",
			"type": "function"
		},
		{
			"inputs": [],
			"name": "getAveragePrice",
			"outputs": [
				{
					"internalType": "uint256",
					"name": "",
					"type": "uint256"
				}
			],
			"stateMutability": "view",
			"type": "function"
		},
		{
			"inputs": [
				{
					"internalType": "address",
					"name": "_user",
					"type": "address"
				},
				{
					"internalType": "uint256",
					"name": "_vesting",
					"type": "uint256"
				}
			],
			"name": "getBalanceOf",
			"outputs": [
				{
					"internalType": "uint256",
					"name": "",
					"type": "uint256"
				}
			],
			"stateMutability": "view",
			"type": "function"
		},
		{
			"inputs": [
				{
					"internalType": "address",
					"name": "_pair",
					"type": "address"
				},
				{
					"internalType": "address",
					"name": "_coinOfInterest",
					"type": "address"
				},
				{
					"internalType": "uint256",
					"name": "_amount",
					"type": "uint256"
				}
			],
			"name": "getCoinAmount",
			"outputs": [
				{
					"internalType": "uint256",
					"name": "",
					"type": "uint256"
				}
			],
			"stateMutability": "view",
			"type": "function"
		},
		{
			"inputs": [
				{
					"internalType": "uint256",
					"name": "_pid",
					"type": "uint256"
				}
			],
			"name": "getDepositFee",
			"outputs": [
				{
					"internalType": "uint256",
					"name": "",
					"type": "uint256"
				}
			],
			"stateMutability": "view",
			"type": "function"
		},
		{
			"inputs": [
				{
					"internalType": "uint256",
					"name": "_pid",
					"type": "uint256"
				}
			],
			"name": "getLpSupply",
			"outputs": [
				{
					"internalType": "uint256",
					"name": "",
					"type": "uint256"
				}
			],
			"stateMutability": "view",
			"type": "function"
		},
		{
			"inputs": [
				{
					"internalType": "uint256",
					"name": "percentage",
					"type": "uint256"
				},
				{
					"internalType": "bool",
					"name": "isPositiveChange",
					"type": "bool"
				}
			],
			"name": "getNewEmissionRate",
			"outputs": [
				{
					"internalType": "uint256",
					"name": "",
					"type": "uint256"
				}
			],
			"stateMutability": "view",
			"type": "function"
		},
		{
			"inputs": [
				{
					"internalType": "int256",
					"name": "newPrice",
					"type": "int256"
				},
				{
					"internalType": "int256",
					"name": "oldPrice",
					"type": "int256"
				}
			],
			"name": "getPriceDifference",
			"outputs": [
				{
					"internalType": "uint256",
					"name": "",
					"type": "uint256"
				}
			],
			"stateMutability": "pure",
			"type": "function"
		},
		{
			"inputs": [],
			"name": "getTokenPrice",
			"outputs": [
				{
					"internalType": "uint256",
					"name": "",
					"type": "uint256"
				}
			],
			"stateMutability": "nonpayable",
			"type": "function"
		},
		{
			"inputs": [],
			"name": "hourlyIndex",
			"outputs": [
				{
					"internalType": "uint256",
					"name": "",
					"type": "uint256"
				}
			],
			"stateMutability": "view",
			"type": "function"
		},
		{
			"inputs": [
				{
					"internalType": "uint256",
					"name": "",
					"type": "uint256"
				}
			],
			"name": "hourlyPrices",
			"outputs": [
				{
					"internalType": "uint256",
					"name": "",
					"type": "uint256"
				}
			],
			"stateMutability": "view",
			"type": "function"
		},
		{
			"inputs": [],
			"name": "isLockEnabled",
			"outputs": [
				{
					"internalType": "bool",
					"name": "",
					"type": "bool"
				}
			],
			"stateMutability": "view",
			"type": "function"
		},
		{
			"inputs": [],
			"name": "lastAveragePrice",
			"outputs": [
				{
					"internalType": "uint256",
					"name": "",
					"type": "uint256"
				}
			],
			"stateMutability": "view",
			"type": "function"
		},
		{
			"inputs": [],
			"name": "lastEmissionIncrease",
			"outputs": [
				{
					"internalType": "uint256",
					"name": "",
					"type": "uint256"
				}
			],
			"stateMutability": "view",
			"type": "function"
		},
		{
			"inputs": [],
			"name": "lastEmissionUpdateBlock",
			"outputs": [
				{
					"internalType": "uint256",
					"name": "",
					"type": "uint256"
				}
			],
			"stateMutability": "view",
			"type": "function"
		},
		{
			"inputs": [],
			"name": "lastPriceUpdateBlock",
			"outputs": [
				{
					"internalType": "uint256",
					"name": "",
					"type": "uint256"
				}
			],
			"stateMutability": "view",
			"type": "function"
		},
		{
			"inputs": [
				{
					"internalType": "string",
					"name": "_fn",
					"type": "string"
				}
			],
			"name": "lockFunction",
			"outputs": [],
			"stateMutability": "nonpayable",
			"type": "function"
		},
		{
			"inputs": [],
			"name": "lpAddress",
			"outputs": [
				{
					"internalType": "address",
					"name": "",
					"type": "address"
				}
			],
			"stateMutability": "view",
			"type": "function"
		},
		{
			"inputs": [],
			"name": "maintainer",
			"outputs": [
				{
					"internalType": "address",
					"name": "",
					"type": "address"
				}
			],
			"stateMutability": "view",
			"type": "function"
		},
		{
			"inputs": [],
			"name": "massUpdatePools",
			"outputs": [],
			"stateMutability": "nonpayable",
			"type": "function"
		},
		{
			"inputs": [],
			"name": "maxEmissionIncrease",
			"outputs": [
				{
					"internalType": "uint16",
					"name": "",
					"type": "uint16"
				}
			],
			"stateMutability": "view",
			"type": "function"
		},
		{
			"inputs": [],
			"name": "owner",
			"outputs": [
				{
					"internalType": "address",
					"name": "",
					"type": "address"
				}
			],
			"stateMutability": "view",
			"type": "function"
		},
		{
			"inputs": [
				{
					"internalType": "uint256",
					"name": "_pid",
					"type": "uint256"
				},
				{
					"internalType": "address",
					"name": "_user",
					"type": "address"
				}
			],
			"name": "pendingCoin",
			"outputs": [
				{
					"internalType": "uint256",
					"name": "",
					"type": "uint256"
				}
			],
			"stateMutability": "view",
			"type": "function"
		},
		{
			"inputs": [
				{
					"internalType": "uint256",
					"name": "",
					"type": "uint256"
				}
			],
			"name": "poolInfos",
			"outputs": [
				{
					"internalType": "contract IMasterChefContractor",
					"name": "contractor",
					"type": "address"
				},
				{
					"internalType": "contract IERC20",
					"name": "lpToken",
					"type": "address"
				},
				{
					"internalType": "uint256",
					"name": "allocPoint",
					"type": "uint256"
				},
				{
					"internalType": "uint256",
					"name": "lastRewardBlock",
					"type": "uint256"
				},
				{
					"internalType": "uint256",
					"name": "accCoinPerShare",
					"type": "uint256"
				},
				{
					"internalType": "uint16",
					"name": "depositFee",
					"type": "uint16"
				},
				{
					"internalType": "uint256",
					"name": "depositedCoins",
					"type": "uint256"
				},
				{
					"internalType": "uint256",
					"name": "pid",
					"type": "uint256"
				},
				{
					"internalType": "uint256",
					"name": "lockPeriod",
					"type": "uint256"
				},
				{
					"internalType": "bool",
					"name": "isCoinLp",
					"type": "bool"
				}
			],
			"stateMutability": "view",
			"type": "function"
		},
		{
			"inputs": [],
			"name": "poolLength",
			"outputs": [
				{
					"internalType": "uint256",
					"name": "",
					"type": "uint256"
				}
			],
			"stateMutability": "view",
			"type": "function"
		},
		{
			"inputs": [],
			"name": "previousAveragePrice",
			"outputs": [
				{
					"internalType": "uint256",
					"name": "",
					"type": "uint256"
				}
			],
			"stateMutability": "view",
			"type": "function"
		},
		{
			"inputs": [],
			"name": "renounceOwnership",
			"outputs": [],
			"stateMutability": "nonpayable",
			"type": "function"
		},
		{
			"inputs": [
				{
					"internalType": "contract IAboatToken",
					"name": "_coin",
					"type": "address"
				}
			],
			"name": "setCoin",
			"outputs": [],
			"stateMutability": "nonpayable",
			"type": "function"
		},
		{
			"inputs": [
				{
					"internalType": "address",
					"name": "_devAddress",
					"type": "address"
				}
			],
			"name": "setDevAddress",
			"outputs": [],
			"stateMutability": "nonpayable",
			"type": "function"
		},
		{
			"inputs": [
				{
					"internalType": "address",
					"name": "_newMaintainer",
					"type": "address"
				}
			],
			"name": "setMaintainer",
			"outputs": [],
			"stateMutability": "nonpayable",
			"type": "function"
		},
		{
			"inputs": [
				{
					"internalType": "uint16",
					"name": "_maxEmissionIncrease",
					"type": "uint16"
				}
			],
			"name": "setMaxEmissionIncrease",
			"outputs": [],
			"stateMutability": "nonpayable",
			"type": "function"
		},
		{
			"inputs": [
				{
					"internalType": "uint256",
					"name": "_pid",
					"type": "uint256"
				},
				{
					"internalType": "uint256",
					"name": "_allocPoint",
					"type": "uint256"
				},
				{
					"internalType": "uint16",
					"name": "_depositFee",
					"type": "uint16"
				},
				{
					"internalType": "uint256",
					"name": "_lockPeriod",
					"type": "uint256"
				},
				{
					"internalType": "bool",
					"name": "_isCoinLp",
					"type": "bool"
				},
				{
					"internalType": "bool",
					"name": "_withUpdate",
					"type": "bool"
				}
			],
			"name": "setPoolVariables",
			"outputs": [],
			"stateMutability": "nonpayable",
			"type": "function"
		},
		{
			"inputs": [],
			"name": "setTimelockEnabled",
			"outputs": [],
			"stateMutability": "nonpayable",
			"type": "function"
		},
		{
			"inputs": [],
			"name": "startBlock",
			"outputs": [
				{
					"internalType": "uint256",
					"name": "",
					"type": "uint256"
				}
			],
			"stateMutability": "view",
			"type": "function"
		},
		{
			"inputs": [
				{
					"internalType": "string",
					"name": "",
					"type": "string"
				}
			],
			"name": "timelock",
			"outputs": [
				{
					"internalType": "uint256",
					"name": "",
					"type": "uint256"
				}
			],
			"stateMutability": "view",
			"type": "function"
		},
		{
			"inputs": [],
			"name": "totalAllocPoint",
			"outputs": [
				{
					"internalType": "uint256",
					"name": "",
					"type": "uint256"
				}
			],
			"stateMutability": "view",
			"type": "function"
		},
		{
			"inputs": [
				{
					"internalType": "address",
					"name": "newOwner",
					"type": "address"
				}
			],
			"name": "transferOwnership",
			"outputs": [],
			"stateMutability": "nonpayable",
			"type": "function"
		},
		{
			"inputs": [
				{
					"internalType": "string",
					"name": "_fn",
					"type": "string"
				}
			],
			"name": "unlockFunction",
			"outputs": [],
			"stateMutability": "nonpayable",
			"type": "function"
		},
		{
			"inputs": [
				{
					"internalType": "uint256",
					"name": "_coinPerBlock",
					"type": "uint256"
				}
			],
			"name": "updateEmissionRate",
			"outputs": [],
			"stateMutability": "nonpayable",
			"type": "function"
		},
		{
			"inputs": [
				{
					"internalType": "uint256",
					"name": "_pid",
					"type": "uint256"
				}
			],
			"name": "updatePool",
			"outputs": [],
			"stateMutability": "nonpayable",
			"type": "function"
		},
		{
			"inputs": [],
			"name": "updatePrice",
			"outputs": [],
			"stateMutability": "nonpayable",
			"type": "function"
		},
		{
			"inputs": [
				{
					"internalType": "uint256",
					"name": "",
					"type": "uint256"
				},
				{
					"internalType": "address",
					"name": "",
					"type": "address"
				}
			],
			"name": "userInfos",
			"outputs": [
				{
					"internalType": "uint256",
					"name": "amount",
					"type": "uint256"
				},
				{
					"internalType": "uint256",
					"name": "rewardDebt",
					"type": "uint256"
				},
				{
					"internalType": "uint256",
					"name": "lastDeposit",
					"type": "uint256"
				}
			],
			"stateMutability": "view",
			"type": "function"
		},
		{
			"inputs": [
				{
					"internalType": "bool",
					"name": "_whitelisted",
					"type": "bool"
				},
				{
					"internalType": "address",
					"name": "_address",
					"type": "address"
				}
			],
			"name": "whitelist",
			"outputs": [],
			"stateMutability": "nonpayable",
			"type": "function"
		},
		{
			"inputs": [
				{
					"internalType": "address",
					"name": "",
					"type": "address"
				}
			],
			"name": "whitelisted",
			"outputs": [
				{
					"internalType": "bool",
					"name": "",
					"type": "bool"
				}
			],
			"stateMutability": "view",
			"type": "function"
		},
		{
			"inputs": [
				{
					"internalType": "uint256",
					"name": "_pid",
					"type": "uint256"
				},
				{
					"internalType": "uint256",
					"name": "_amount",
					"type": "uint256"
				}
			],
			"name": "withdraw",
			"outputs": [],
			"stateMutability": "nonpayable",
			"type": "function"
		},
		{
			"inputs": [
				{
					"internalType": "uint256",
					"name": "_pid",
					"type": "uint256"
				}
			],
			"name": "withdrawWithoutRewards",
			"outputs": [],
			"stateMutability": "nonpayable",
			"type": "function"
		}
	]
}