{
	"data": {
		"bytecode": {
			"linkReferences": {},
			"object": "608060405260008060146101000a81548160ff021916908315150217905550640ba43b74006005557376049b7caab30b8bbbdcff3a1059d9147dbf7b19600660006101000a81548173ffffffffffffffffffffffffffffffffffffffff021916908373ffffffffffffffffffffffffffffffffffffffff16021790555073c559acc356d3037ec6dbc33a20587051188b8634600760006101000a81548173ffffffffffffffffffffffffffffffffffffffff021916908373ffffffffffffffffffffffffffffffffffffffff1602179055506a084595161401484a00000060095562015180600a5573bdd4e5660839a088573191a9889a262c0efc0983600b60006101000a81548173ffffffffffffffffffffffffffffffffffffffff021916908373ffffffffffffffffffffffffffffffffffffffff1602179055503480156200014957600080fd5b506040516200521b3803806200521b83398181016040528101906200016f919062000829565b6200018f620001836200024b60201b60201c565b6200025360201b60201c565b33600260006101000a81548173ffffffffffffffffffffffffffffffffffffffff021916908373ffffffffffffffffffffffffffffffffffffffff16021790555080600860006101000a81548173ffffffffffffffffffffffffffffffffffffffff021916908373ffffffffffffffffffffffffffffffffffffffff16021790555062000244600660009054906101000a900473ffffffffffffffffffffffffffffffffffffffff166200031760201b60201c565b5062000c19565b600033905090565b60008060009054906101000a900473ffffffffffffffffffffffffffffffffffffffff169050816000806101000a81548173ffffffffffffffffffffffffffffffffffffffff021916908373ffffffffffffffffffffffffffffffffffffffff1602179055508173ffffffffffffffffffffffffffffffffffffffff168173ffffffffffffffffffffffffffffffffffffffff167f8be0079c531659141344cd1fd0a4f28419497f9722a3daafe3b4186f6b6457e060405160405180910390a35050565b620003276200024b60201b60201c565b73ffffffffffffffffffffffffffffffffffffffff166200034d620005d160201b60201c565b73ffffffffffffffffffffffffffffffffffffffff1614620003a6576040517f08c379a00000000000000000000000000000000000000000000000000000000081526004016200039d9062000969565b60405180910390fd5b6040518060400160405280601281526020017f6368616e67654f7261636c6557616c6c65740000000000000000000000000000815250600060149054906101000a900460ff16158062000484575060006001826040516200040891906200092e565b90815260200160405180910390205414158015620004465750426001826040516200043491906200092e565b90815260200160405180910390205411155b801562000483575042620151806001836040516200046591906200092e565b908152602001604051809103902054620004809190620009f6565b10155b5b620004c6576040517f08c379a0000000000000000000000000000000000000000000000000000000008152600401620004bd906200098b565b60405180910390fd5b620004d782620005fa60201b60201c565b6000600660009054906101000a900473ffffffffffffffffffffffffffffffffffffffff16905082600660006101000a81548173ffffffffffffffffffffffffffffffffffffffff021916908373ffffffffffffffffffffffffffffffffffffffff160217905550600660009054906101000a900473ffffffffffffffffffffffffffffffffffffffff1673ffffffffffffffffffffffffffffffffffffffff168173ffffffffffffffffffffffffffffffffffffffff167f3920ecd0f25e4e6ce57aaec91e57df499cb7e3e70d6c9604f866ae9265382cf360405160405180910390a350620005cd816200071060201b60201c565b5050565b60008060009054906101000a900473ffffffffffffffffffffffffffffffffffffffff16905090565b6200060a6200024b60201b60201c565b73ffffffffffffffffffffffffffffffffffffffff1662000630620005d160201b60201c565b73ffffffffffffffffffffffffffffffffffffffff161462000689576040517f08c379a0000000000000000000000000000000000000000000000000000000008152600401620006809062000969565b60405180910390fd5b600073ffffffffffffffffffffffffffffffffffffffff168173ffffffffffffffffffffffffffffffffffffffff161415620006fc576040517f08c379a0000000000000000000000000000000000000000000000000000000008152600401620006f39062000947565b60405180910390fd5b6200070d816200025360201b60201c565b50565b3373ffffffffffffffffffffffffffffffffffffffff1662000737620005d160201b60201c565b73ffffffffffffffffffffffffffffffffffffffff161480620007a757503373ffffffffffffffffffffffffffffffffffffffff16600260009054906101000a900473ffffffffffffffffffffffffffffffffffffffff1673ffffffffffffffffffffffffffffffffffffffff16145b620007e9576040517f08c379a0000000000000000000000000000000000000000000000000000000008152600401620007e090620009ad565b60405180910390fd5b6000600182604051620007fd91906200092e565b90815260200160405180910390208190555050565b600081519050620008238162000bff565b92915050565b60006020828403121562000842576200084162000b0a565b5b6000620008528482850162000812565b91505092915050565b60006200086882620009cf565b620008748185620009eb565b93506200088681856020860162000aa5565b80840191505092915050565b6000620008a1602683620009da565b9150620008ae8262000b0f565b604082019050919050565b6000620008c8602083620009da565b9150620008d58262000b5e565b602082019050919050565b6000620008ef601283620009da565b9150620008fc8262000b87565b602082019050919050565b600062000916603583620009da565b9150620009238262000bb0565b604082019050919050565b60006200093c82846200085b565b915081905092915050565b60006020820190508181036000830152620009628162000892565b9050919050565b600060208201905081810360008301526200098481620008b9565b9050919050565b60006020820190508181036000830152620009a681620008e0565b9050919050565b60006020820190508181036000830152620009c88162000907565b9050919050565b600081519050919050565b600082825260208201905092915050565b600081905092915050565b600062000a038262000a9b565b915062000a108362000a9b565b9250827fffffffffffffffffffffffffffffffffffffffffffffffffffffffffffffffff0382111562000a485762000a4762000adb565b5b828201905092915050565b600062000a608262000a7b565b9050919050565b600062000a748262000a53565b9050919050565b600073ffffffffffffffffffffffffffffffffffffffff82169050919050565b6000819050919050565b60005b8381101562000ac557808201518184015260208101905062000aa8565b8381111562000ad5576000848401525b50505050565b7f4e487b7100000000000000000000000000000000000000000000000000000000600052601160045260246000fd5b600080fd5b7f4f776e61626c653a206e6577206f776e657220697320746865207a65726f206160008201527f6464726573730000000000000000000000000000000000000000000000000000602082015250565b7f4f776e61626c653a2063616c6c6572206973206e6f7420746865206f776e6572600082015250565b7f46756e6374696f6e206973206c6f636b65640000000000000000000000000000600082015250565b7f6f70657261746f723a2063616c6c6572206973206e6f7420616c6c6f7765642060008201527f746f2063616c6c20746869732066756e6374696f6e0000000000000000000000602082015250565b62000c0a8162000a67565b811462000c1657600080fd5b50565b6145f28062000c296000396000f3fe6080604052600436106101fd5760003560e01c80639850d32b1161010d578063d6e0ece2116100a0578063f2fde38b1161006f578063f2fde38b146106bf578063f4762fd6146106e8578063f7e77bc2146106ff578063f8cf31cb1461073c578063f98080c01461076557610204565b8063d6e0ece21461062b578063db2e21bc14610654578063de996a6e1461066b578063edae876f1461069457610204565b8063a607494a116100dc578063a607494a14610571578063b59c6e0e1461059a578063bf3506c1146105c5578063c0d786551461060257610204565b80639850d32b146104c75780639f531156146104f2578063a221a15f1461051b578063a347511a1461054657610204565b80635dd53826116101905780637d6dfb7e1161015f5780637d6dfb7e146103ce5780637ef189f81461040b578063864e49a71461043657806387df241f146104735780638da5cb5b1461049c57610204565b80635dd538261461033857806363cd79b71461036357806370ed0ada1461038c578063715018a6146103b757610204565b806313ea5d29116101cc57806313ea5d29146102b3578063478a55eb146102dc5780634a938f00146103055780634e71d92d1461032e57610204565b80630126ffb9146102095780630b6d1a701461023457806311a63e171461025d57806312065fe01461028857610204565b3661020457005b600080fd5b34801561021557600080fd5b5061021e6107a2565b60405161022b9190613b7a565b60405180910390f35b34801561024057600080fd5b5061025b6004803603810190610256919061331c565b6107a8565b005b34801561026957600080fd5b50610272610b22565b60405161027f9190613905565b60405180910390f35b34801561029457600080fd5b5061029d610b48565b6040516102aa9190613b7a565b60405180910390f35b3480156102bf57600080fd5b506102da60048036038101906102d591906132c2565b610bfa565b005b3480156102e857600080fd5b5061030360048036038101906102fe919061331c565b610f95565b005b34801561031157600080fd5b5061032c60048036038101906103279190613394565b61130f565b005b6103366113a3565b005b34801561034457600080fd5b5061034d61153e565b60405161035a9190613b7a565b60405180910390f35b34801561036f57600080fd5b5061038a600480360381019061038591906132c2565b611544565b005b34801561039857600080fd5b506103a16117cd565b6040516103ae9190613b7a565b60405180910390f35b3480156103c357600080fd5b506103cc6117d5565b005b3480156103da57600080fd5b506103f560048036038101906103f091906132c2565b61185d565b6040516104029190613949565b60405180910390f35b34801561041757600080fd5b5061042061187d565b60405161042d9190613b7a565b60405180910390f35b34801561044257600080fd5b5061045d600480360381019061045891906132c2565b611883565b60405161046a9190613949565b60405180910390f35b34801561047f57600080fd5b5061049a600480360381019061049591906134ef565b6118dc565b005b3480156104a857600080fd5b506104b1611aae565b6040516104be9190613905565b60405180910390f35b3480156104d357600080fd5b506104dc611ad7565b6040516104e99190613905565b60405180910390f35b3480156104fe57600080fd5b50610519600480360381019061051491906134a6565b611b01565b005b34801561052757600080fd5b50610530611bf5565b60405161053d9190613905565b60405180910390f35b34801561055257600080fd5b5061055b611c1b565b6040516105689190613949565b60405180910390f35b34801561057d57600080fd5b50610598600480360381019061059391906134a6565b611c2e565b005b3480156105a657600080fd5b506105af611d90565b6040516105bc9190613964565b60405180910390f35b3480156105d157600080fd5b506105ec60048036038101906105e791906132c2565b611db6565b6040516105f99190613949565b60405180910390f35b34801561060e57600080fd5b5061062960048036038101906106249190613479565b611e1d565b005b34801561063757600080fd5b50610652600480360381019061064d9190613549565b611edd565b005b34801561066057600080fd5b50610669612204565b005b34801561067757600080fd5b50610692600480360381019061068d91906134ef565b612307565b005b3480156106a057600080fd5b506106a96124d9565b6040516106b6919061397f565b60405180910390f35b3480156106cb57600080fd5b506106e660048036038101906106e191906132c2565b6124ff565b005b3480156106f457600080fd5b506106fd6125f7565b005b34801561070b57600080fd5b50610726600480360381019061072191906132c2565b61270d565b6040516107339190613b7a565b60405180910390f35b34801561074857600080fd5b50610763600480360381019061075e919061344c565b612725565b005b34801561077157600080fd5b5061078c600480360381019061078791906134a6565b612a0e565b6040516107999190613b7a565b60405180910390f35b600a5481565b6107b0612a3c565b73ffffffffffffffffffffffffffffffffffffffff166107ce611aae565b73ffffffffffffffffffffffffffffffffffffffff1614610824576040517f08c379a000000000000000000000000000000000000000000000000000000000815260040161081b90613a3a565b60405180910390fd5b8051825114610868576040517f08c379a000000000000000000000000000000000000000000000000000000000815260040161085f90613b5a565b60405180910390fd5b60005b8151811015610b1d576003600083838151811061088b5761088a613fae565b5b602002602001015173ffffffffffffffffffffffffffffffffffffffff1673ffffffffffffffffffffffffffffffffffffffff16815260200190815260200160002060009054906101000a900460ff16801561090857508281815181106108f5576108f4613fae565b5b6020026020010151610905610b48565b10155b8015610933575061093282828151811061092557610924613fae565b5b6020026020010151611db6565b5b801561095b57506009548382815181106109505761094f613fae565b5b602002602001015111155b15610b0a5760006003600084848151811061097957610978613fae565b5b602002602001015173ffffffffffffffffffffffffffffffffffffffff1673ffffffffffffffffffffffffffffffffffffffff16815260200190815260200160002060006101000a81548160ff02191690831515021790555042600460008484815181106109ea576109e9613fae565b5b602002602001015173ffffffffffffffffffffffffffffffffffffffff1673ffffffffffffffffffffffffffffffffffffffff16815260200190815260200160002081905550610a91600860009054906101000a900473ffffffffffffffffffffffffffffffffffffffff16838381518110610a6957610a68613fae565b5b6020026020010151858481518110610a8457610a83613fae565b5b6020026020010151612a44565b828181518110610aa457610aa3613fae565b5b6020026020010151828281518110610abf57610abe613fae565b5b602002602001015173ffffffffffffffffffffffffffffffffffffffff167fd9d5e983e9e8a6571ffbeafa6a3c2fbd9f0f44e52607977b5e1e7934f7d91bfc60405160405180910390a35b8080610b1590613f07565b91505061086b565b505050565b600760009054906101000a900473ffffffffffffffffffffffffffffffffffffffff1681565b6000600860009054906101000a900473ffffffffffffffffffffffffffffffffffffffff1673ffffffffffffffffffffffffffffffffffffffff166370a08231306040518263ffffffff1660e01b8152600401610ba59190613905565b60206040518083038186803b158015610bbd57600080fd5b505afa158015610bd1573d6000803e3d6000fd5b505050506040513d601f19601f82011682018060405250810190610bf5919061351c565b905090565b3373ffffffffffffffffffffffffffffffffffffffff16610c19611aae565b73ffffffffffffffffffffffffffffffffffffffff161480610c8857503373ffffffffffffffffffffffffffffffffffffffff16600260009054906101000a900473ffffffffffffffffffffffffffffffffffffffff1673ffffffffffffffffffffffffffffffffffffffff16145b610cc7576040517f08c379a0000000000000000000000000000000000000000000000000000000008152600401610cbe90613aba565b60405180910390fd5b6040518060400160405280600a81526020017f6d61696e7461696e657200000000000000000000000000000000000000000000815250600060149054906101000a900460ff161580610d9a57506000600182604051610d2691906138ee565b90815260200160405180910390205414158015610d61575042600182604051610d4f91906138ee565b90815260200160405180910390205411155b8015610d9957504262015180600183604051610d7d91906138ee565b908152602001604051809103902054610d969190613d13565b10155b5b610dd9576040517f08c379a0000000000000000000000000000000000000000000000000000000008152600401610dd090613a9a565b60405180910390fd5b600260009054906101000a900473ffffffffffffffffffffffffffffffffffffffff1673ffffffffffffffffffffffffffffffffffffffff168273ffffffffffffffffffffffffffffffffffffffff1614158015610e645750600073ffffffffffffffffffffffffffffffffffffffff168273ffffffffffffffffffffffffffffffffffffffff1614155b610ea3576040517f08c379a0000000000000000000000000000000000000000000000000000000008152600401610e9a90613a1a565b60405180910390fd5b6000600260009054906101000a900473ffffffffffffffffffffffffffffffffffffffff16905082600260006101000a81548173ffffffffffffffffffffffffffffffffffffffff021916908373ffffffffffffffffffffffffffffffffffffffff160217905550600260009054906101000a900473ffffffffffffffffffffffffffffffffffffffff1673ffffffffffffffffffffffffffffffffffffffff168173ffffffffffffffffffffffffffffffffffffffff167f2f3ffaaaad93928855c8700645d1a3643e6ccfdd500efa9fda048a88f557cf0160405160405180910390a350610f9181611b01565b5050565b610f9d612a3c565b73ffffffffffffffffffffffffffffffffffffffff16610fbb611aae565b73ffffffffffffffffffffffffffffffffffffffff1614611011576040517f08c379a000000000000000000000000000000000000000000000000000000000815260040161100890613a3a565b60405180910390fd5b8051825114611055576040517f08c379a000000000000000000000000000000000000000000000000000000000815260040161104c90613b5a565b60405180910390fd5b60005b815181101561130a576003600083838151811061107857611077613fae565b5b602002602001015173ffffffffffffffffffffffffffffffffffffffff1673ffffffffffffffffffffffffffffffffffffffff16815260200190815260200160002060009054906101000a900460ff1680156110f557508281815181106110e2576110e1613fae565b5b60200260200101516110f2610b48565b10155b8015611120575061111f82828151811061111257611111613fae565b5b6020026020010151611db6565b5b8015611148575060095483828151811061113d5761113c613fae565b5b602002602001015111155b156112f75760006003600084848151811061116657611165613fae565b5b602002602001015173ffffffffffffffffffffffffffffffffffffffff1673ffffffffffffffffffffffffffffffffffffffff16815260200190815260200160002060006101000a81548160ff02191690831515021790555042600460008484815181106111d7576111d6613fae565b5b602002602001015173ffffffffffffffffffffffffffffffffffffffff1673ffffffffffffffffffffffffffffffffffffffff1681526020019081526020016000208190555061127e600860009054906101000a900473ffffffffffffffffffffffffffffffffffffffff1683838151811061125657611255613fae565b5b602002602001015185848151811061127157611270613fae565b5b6020026020010151612a44565b82818151811061129157611290613fae565b5b60200260200101518282815181106112ac576112ab613fae565b5b602002602001015173ffffffffffffffffffffffffffffffffffffffff167fd9d5e983e9e8a6571ffbeafa6a3c2fbd9f0f44e52607977b5e1e7934f7d91bfc60405160405180910390a35b808061130290613f07565b915050611058565b505050565b611317612a3c565b73ffffffffffffffffffffffffffffffffffffffff16611335611aae565b73ffffffffffffffffffffffffffffffffffffffff161461138b576040517f08c379a000000000000000000000000000000000000000000000000000000000815260040161138290613a3a565b60405180910390fd5b611394816118dc565b61139e8383610f95565b505050565b600360003373ffffffffffffffffffffffffffffffffffffffff1673ffffffffffffffffffffffffffffffffffffffff16815260200190815260200160002060009054906101000a900460ff1615611430576040517f08c379a0000000000000000000000000000000000000000000000000000000008152600401611427906139da565b60405180910390fd5b600554341015611475576040517f08c379a000000000000000000000000000000000000000000000000000000000815260040161146c90613b1a565b60405180910390fd5b6114a1600660009054906101000a900473ffffffffffffffffffffffffffffffffffffffff1634612b7a565b6001600360003373ffffffffffffffffffffffffffffffffffffffff1673ffffffffffffffffffffffffffffffffffffffff16815260200190815260200160002060006101000a81548160ff0219169083151502179055503373ffffffffffffffffffffffffffffffffffffffff167f98716c616972f4ef0085deb59c20f6f6a840219c121ad1f3b5413097f3a1035760405160405180910390a2565b60095481565b61154c612a3c565b73ffffffffffffffffffffffffffffffffffffffff1661156a611aae565b73ffffffffffffffffffffffffffffffffffffffff16146115c0576040517f08c379a00000000000000000000000000000000000000000000000000000000081526004016115b790613a3a565b60405180910390fd5b6040518060400160405280601281526020017f6368616e67654f7261636c6557616c6c65740000000000000000000000000000815250600060149054906101000a900460ff1615806116935750600060018260405161161f91906138ee565b9081526020016040518091039020541415801561165a57504260018260405161164891906138ee565b90815260200160405180910390205411155b80156116925750426201518060018360405161167691906138ee565b90815260200160405180910390205461168f9190613d13565b10155b5b6116d2576040517f08c379a00000000000000000000000000000000000000000000000000000000081526004016116c990613a9a565b60405180910390fd5b6116db826124ff565b6000600660009054906101000a900473ffffffffffffffffffffffffffffffffffffffff16905082600660006101000a81548173ffffffffffffffffffffffffffffffffffffffff021916908373ffffffffffffffffffffffffffffffffffffffff160217905550600660009054906101000a900473ffffffffffffffffffffffffffffffffffffffff1673ffffffffffffffffffffffffffffffffffffffff168173ffffffffffffffffffffffffffffffffffffffff167f3920ecd0f25e4e6ce57aaec91e57df499cb7e3e70d6c9604f866ae9265382cf360405160405180910390a3506117c981611b01565b5050565b600047905090565b6117dd612a3c565b73ffffffffffffffffffffffffffffffffffffffff166117fb611aae565b73ffffffffffffffffffffffffffffffffffffffff1614611851576040517f08c379a000000000000000000000000000000000000000000000000000000000815260040161184890613a3a565b60405180910390fd5b61185b6000612c7a565b565b60036020528060005260406000206000915054906101000a900460ff1681565b60055481565b600042600a54600460008573ffffffffffffffffffffffffffffffffffffffff1673ffffffffffffffffffffffffffffffffffffffff168152602001908152602001600020546118d39190613d13565b11159050919050565b6118e4612a3c565b73ffffffffffffffffffffffffffffffffffffffff16611902611aae565b73ffffffffffffffffffffffffffffffffffffffff1614611958576040517f08c379a000000000000000000000000000000000000000000000000000000000815260040161194f90613a3a565b60405180910390fd5b6040518060400160405280600d81526020017f61646a757374476173436f737400000000000000000000000000000000000000815250600060149054906101000a900460ff161580611a2b575060006001826040516119b791906138ee565b908152602001604051809103902054141580156119f25750426001826040516119e091906138ee565b90815260200160405180910390205411155b8015611a2a57504262015180600183604051611a0e91906138ee565b908152602001604051809103902054611a279190613d13565b10155b5b611a6a576040517f08c379a0000000000000000000000000000000000000000000000000000000008152600401611a6190613a9a565b60405180910390fd5b816005547fc3dc19678fd7390a5c1197decfaec52d8a1c63c49f0a51db570f5fe5040c5f7360405160405180910390a381600581905550611aaa81611b01565b5050565b60008060009054906101000a900473ffffffffffffffffffffffffffffffffffffffff16905090565b6000600260009054906101000a900473ffffffffffffffffffffffffffffffffffffffff16905090565b3373ffffffffffffffffffffffffffffffffffffffff16611b20611aae565b73ffffffffffffffffffffffffffffffffffffffff161480611b8f57503373ffffffffffffffffffffffffffffffffffffffff16600260009054906101000a900473ffffffffffffffffffffffffffffffffffffffff1673ffffffffffffffffffffffffffffffffffffffff16145b611bce576040517f08c379a0000000000000000000000000000000000000000000000000000000008152600401611bc590613aba565b60405180910390fd5b6000600182604051611be091906138ee565b90815260200160405180910390208190555050565b600660009054906101000a900473ffffffffffffffffffffffffffffffffffffffff1681565b600060149054906101000a900460ff1681565b3373ffffffffffffffffffffffffffffffffffffffff16611c4d611aae565b73ffffffffffffffffffffffffffffffffffffffff161480611cbc57503373ffffffffffffffffffffffffffffffffffffffff16600260009054906101000a900473ffffffffffffffffffffffffffffffffffffffff1673ffffffffffffffffffffffffffffffffffffffff16145b611cfb576040517f08c379a0000000000000000000000000000000000000000000000000000000008152600401611cf290613aba565b60405180910390fd5b6201518042611d0a9190613d13565b600182604051611d1a91906138ee565b908152602001604051809103902081905550600181604051611d3c91906138ee565b90815260200160405180910390205481604051611d5991906138ee565b60405180910390207ff77f9a799fe8b0be1463abd7459a18fc55dfd8a6a24ddd29b54fd098088089c860405160405180910390a350565b600860009054906101000a900473ffffffffffffffffffffffffffffffffffffffff1681565b6000600360008373ffffffffffffffffffffffffffffffffffffffff1673ffffffffffffffffffffffffffffffffffffffff16815260200190815260200160002060009054906101000a900460ff168015611e165750611e1582611883565b5b9050919050565b611e25612a3c565b73ffffffffffffffffffffffffffffffffffffffff16611e43611aae565b73ffffffffffffffffffffffffffffffffffffffff1614611e99576040517f08c379a0000000000000000000000000000000000000000000000000000000008152600401611e9090613a3a565b60405180910390fd5b80600b60006101000a81548173ffffffffffffffffffffffffffffffffffffffff021916908373ffffffffffffffffffffffffffffffffffffffff16021790555050565b611ee5612a3c565b73ffffffffffffffffffffffffffffffffffffffff16611f03611aae565b73ffffffffffffffffffffffffffffffffffffffff1614611f59576040517f08c379a0000000000000000000000000000000000000000000000000000000008152600401611f5090613a3a565b60405180910390fd5b600073ffffffffffffffffffffffffffffffffffffffff16600b60009054906101000a900473ffffffffffffffffffffffffffffffffffffffff1673ffffffffffffffffffffffffffffffffffffffff161415611feb576040517f08c379a0000000000000000000000000000000000000000000000000000000008152600401611fe290613a5a565b60405180910390fd5b611ff3610b48565b821115612035576040517f08c379a000000000000000000000000000000000000000000000000000000000815260040161202c90613ada565b60405180910390fd5b60095482111561207a576040517f08c379a0000000000000000000000000000000000000000000000000000000008152600401612071906139fa565b60405180910390fd5b61208381611883565b6120c2576040517f08c379a00000000000000000000000000000000000000000000000000000000081526004016120b990613a7a565b60405180910390fd5b42600460008373ffffffffffffffffffffffffffffffffffffffff1673ffffffffffffffffffffffffffffffffffffffff1681526020019081526020016000208190555061210f82612d3e565b60006121266005544761305790919063ffffffff16565b9050612156600660009054906101000a900473ffffffffffffffffffffffffffffffffffffffff16600554612b7a565b600061216c600a8361306d90919063ffffffff16565b9050612181818361305790919063ffffffff16565b91506121af600760009054906101000a900473ffffffffffffffffffffffffffffffffffffffff1682612b7a565b6121b98383612b7a565b80828473ffffffffffffffffffffffffffffffffffffffff167f75b2eac24930bf6a8227dbe172d34480e56be5c6994435067628424190d5343160405160405180910390a450505050565b61220c612a3c565b73ffffffffffffffffffffffffffffffffffffffff1661222a611aae565b73ffffffffffffffffffffffffffffffffffffffff1614612280576040517f08c379a000000000000000000000000000000000000000000000000000000000815260040161227790613a3a565b60405180910390fd5b6122bb600860009054906101000a900473ffffffffffffffffffffffffffffffffffffffff166122ae611aae565b6122b6610b48565b612a44565b6122c3611aae565b73ffffffffffffffffffffffffffffffffffffffff167f5e7b34819cd91b239220bec92fcfd3c10da2214ba13e4e2b1f6c9cfdbd68a9a260405160405180910390a2565b61230f612a3c565b73ffffffffffffffffffffffffffffffffffffffff1661232d611aae565b73ffffffffffffffffffffffffffffffffffffffff1614612383576040517f08c379a000000000000000000000000000000000000000000000000000000000815260040161237a90613a3a565b60405180910390fd5b6040518060400160405280601981526020017f61646a7573744d6178416d6f756e745065725265636569766500000000000000815250600060149054906101000a900460ff161580612456575060006001826040516123e291906138ee565b9081526020016040518091039020541415801561241d57504260018260405161240b91906138ee565b90815260200160405180910390205411155b80156124555750426201518060018360405161243991906138ee565b9081526020016040518091039020546124529190613d13565b10155b5b612495576040517f08c379a000000000000000000000000000000000000000000000000000000000815260040161248c90613a9a565b60405180910390fd5b816009547fd07363c93ca88ca1140b355020cb77b0320b19e19a34bb15aa4566d27c2fabbd60405160405180910390a3816009819055506124d581611b01565b5050565b600b60009054906101000a900473ffffffffffffffffffffffffffffffffffffffff1681565b612507612a3c565b73ffffffffffffffffffffffffffffffffffffffff16612525611aae565b73ffffffffffffffffffffffffffffffffffffffff161461257b576040517f08c379a000000000000000000000000000000000000000000000000000000000815260040161257290613a3a565b60405180910390fd5b600073ffffffffffffffffffffffffffffffffffffffff168173ffffffffffffffffffffffffffffffffffffffff1614156125eb576040517f08c379a00000000000000000000000000000000000000000000000000000000081526004016125e29061399a565b60405180910390fd5b6125f481612c7a565b50565b3373ffffffffffffffffffffffffffffffffffffffff16612616611aae565b73ffffffffffffffffffffffffffffffffffffffff16148061268557503373ffffffffffffffffffffffffffffffffffffffff16600260009054906101000a900473ffffffffffffffffffffffffffffffffffffffff1673ffffffffffffffffffffffffffffffffffffffff16145b6126c4576040517f08c379a00000000000000000000000000000000000000000000000000000000081526004016126bb90613aba565b60405180910390fd5b6001600060146101000a81548160ff0219169083151502179055507f2c08b62bfac9a1b19bb1dec9323f1ce01696a77948b256abf3603d30f25a864e60405160405180910390a1565b60046020528060005260406000206000915090505481565b61272d612a3c565b73ffffffffffffffffffffffffffffffffffffffff1661274b611aae565b73ffffffffffffffffffffffffffffffffffffffff16146127a1576040517f08c379a000000000000000000000000000000000000000000000000000000000815260040161279890613a3a565b60405180910390fd5b6040518060400160405280601181526020017f757064617465526577617264546f6b656e000000000000000000000000000000815250600060149054906101000a900460ff1615806128745750600060018260405161280091906138ee565b9081526020016040518091039020541415801561283b57504260018260405161282991906138ee565b90815260200160405180910390205411155b80156128735750426201518060018360405161285791906138ee565b9081526020016040518091039020546128709190613d13565b10155b5b6128b3576040517f08c379a00000000000000000000000000000000000000000000000000000000081526004016128aa90613a9a565b60405180910390fd5b600860009054906101000a900473ffffffffffffffffffffffffffffffffffffffff1673ffffffffffffffffffffffffffffffffffffffff168273ffffffffffffffffffffffffffffffffffffffff161415612944576040517f08c379a000000000000000000000000000000000000000000000000000000000815260040161293b90613afa565b60405180910390fd5b8173ffffffffffffffffffffffffffffffffffffffff16600860009054906101000a900473ffffffffffffffffffffffffffffffffffffffff1673ffffffffffffffffffffffffffffffffffffffff167fcb89265f21b9fc8710e9d9e42bbb37af1eb207454deca6d5e36787be2367c1d660405160405180910390a381600860006101000a81548173ffffffffffffffffffffffffffffffffffffffff021916908373ffffffffffffffffffffffffffffffffffffffff160217905550612a0a81611b01565b5050565b6001818051602081018201805184825260208301602085012081835280955050505050506000915090505481565b600033905090565b6000808473ffffffffffffffffffffffffffffffffffffffff1663a9059cbb8585604051602401612a76929190613920565b6040516020818303038152906040529060e01b6020820180517bffffffffffffffffffffffffffffffffffffffffffffffffffffffff8381831617835250505050604051612ac491906138d7565b6000604051808303816000865af19150503d8060008114612b01576040519150601f19603f3d011682016040523d82523d6000602084013e612b06565b606091505b5091509150818015612b345750600081511480612b33575080806020019051810190612b32919061341f565b5b5b612b73576040517f08c379a0000000000000000000000000000000000000000000000000000000008152600401612b6a90613b3a565b60405180910390fd5b5050505050565b60008273ffffffffffffffffffffffffffffffffffffffff1682600067ffffffffffffffff811115612baf57612bae613fdd565b5b6040519080825280601f01601f191660200182016040528015612be15781602001600182028036833780820191505090505b50604051612bef91906138d7565b60006040518083038185875af1925050503d8060008114612c2c576040519150601f19603f3d011682016040523d82523d6000602084013e612c31565b606091505b5050905080612c75576040517f08c379a0000000000000000000000000000000000000000000000000000000008152600401612c6c906139ba565b60405180910390fd5b505050565b60008060009054906101000a900473ffffffffffffffffffffffffffffffffffffffff169050816000806101000a81548173ffffffffffffffffffffffffffffffffffffffff021916908373ffffffffffffffffffffffffffffffffffffffff1602179055508173ffffffffffffffffffffffffffffffffffffffff168173ffffffffffffffffffffffffffffffffffffffff167f8be0079c531659141344cd1fd0a4f28419497f9722a3daafe3b4186f6b6457e060405160405180910390a35050565b6000600267ffffffffffffffff811115612d5b57612d5a613fdd565b5b604051908082528060200260200182016040528015612d895781602001602082028036833780820191505090505b509050600860009054906101000a900473ffffffffffffffffffffffffffffffffffffffff1681600081518110612dc357612dc2613fae565b5b602002602001019073ffffffffffffffffffffffffffffffffffffffff16908173ffffffffffffffffffffffffffffffffffffffff1681525050600b60009054906101000a900473ffffffffffffffffffffffffffffffffffffffff1673ffffffffffffffffffffffffffffffffffffffff1663ad5c46486040518163ffffffff1660e01b815260040160206040518083038186803b158015612e6557600080fd5b505afa158015612e79573d6000803e3d6000fd5b505050506040513d601f19601f82011682018060405250810190612e9d91906132ef565b81600181518110612eb157612eb0613fae565b5b602002602001019073ffffffffffffffffffffffffffffffffffffffff16908173ffffffffffffffffffffffffffffffffffffffff1681525050600860009054906101000a900473ffffffffffffffffffffffffffffffffffffffff1673ffffffffffffffffffffffffffffffffffffffff1663095ea7b3600b60009054906101000a900473ffffffffffffffffffffffffffffffffffffffff16846040518363ffffffff1660e01b8152600401612f6a929190613920565b602060405180830381600087803b158015612f8457600080fd5b505af1158015612f98573d6000803e3d6000fd5b505050506040513d601f19601f82011682018060405250810190612fbc919061341f565b50600b60009054906101000a900473ffffffffffffffffffffffffffffffffffffffff1673ffffffffffffffffffffffffffffffffffffffff1663791ac9478360008430426040518663ffffffff1660e01b8152600401613021959493929190613b95565b600060405180830381600087803b15801561303b57600080fd5b505af115801561304f573d6000803e3d6000fd5b505050505050565b600081836130659190613d9a565b905092915050565b6000818361307b9190613d69565b905092915050565b600061309661309184613c14565b613bef565b905080838252602082019050828560208602820111156130b9576130b8614011565b5b60005b858110156130e957816130cf88826131a5565b8452602084019350602083019250506001810190506130bc565b5050509392505050565b600061310661310184613c40565b613bef565b9050808382526020820190508285602086028201111561312957613128614011565b5b60005b85811015613159578161313f8882613298565b84526020840193506020830192505060018101905061312c565b5050509392505050565b600061317661317184613c6c565b613bef565b90508281526020810184848401111561319257613191614016565b5b61319d848285613e94565b509392505050565b6000813590506131b481614549565b92915050565b6000815190506131c981614549565b92915050565b600082601f8301126131e4576131e361400c565b5b81356131f4848260208601613083565b91505092915050565b600082601f8301126132125761321161400c565b5b81356132228482602086016130f3565b91505092915050565b60008151905061323a81614560565b92915050565b60008135905061324f81614577565b92915050565b6000813590506132648161458e565b92915050565b600082601f83011261327f5761327e61400c565b5b813561328f848260208601613163565b91505092915050565b6000813590506132a7816145a5565b92915050565b6000815190506132bc816145a5565b92915050565b6000602082840312156132d8576132d7614020565b5b60006132e6848285016131a5565b91505092915050565b60006020828403121561330557613304614020565b5b6000613313848285016131ba565b91505092915050565b6000806040838503121561333357613332614020565b5b600083013567ffffffffffffffff8111156133515761335061401b565b5b61335d858286016131fd565b925050602083013567ffffffffffffffff81111561337e5761337d61401b565b5b61338a858286016131cf565b9150509250929050565b6000806000606084860312156133ad576133ac614020565b5b600084013567ffffffffffffffff8111156133cb576133ca61401b565b5b6133d7868287016131fd565b935050602084013567ffffffffffffffff8111156133f8576133f761401b565b5b613404868287016131cf565b925050604061341586828701613298565b9150509250925092565b60006020828403121561343557613434614020565b5b60006134438482850161322b565b91505092915050565b60006020828403121561346257613461614020565b5b600061347084828501613240565b91505092915050565b60006020828403121561348f5761348e614020565b5b600061349d84828501613255565b91505092915050565b6000602082840312156134bc576134bb614020565b5b600082013567ffffffffffffffff8111156134da576134d961401b565b5b6134e68482850161326a565b91505092915050565b60006020828403121561350557613504614020565b5b600061351384828501613298565b91505092915050565b60006020828403121561353257613531614020565b5b6000613540848285016132ad565b91505092915050565b600080604083850312156135605761355f614020565b5b600061356e85828601613298565b925050602061357f858286016131a5565b9150509250929050565b600061359583836135a1565b60208301905092915050565b6135aa81613dce565b82525050565b6135b981613dce565b82525050565b60006135ca82613cad565b6135d48185613cdb565b93506135df83613c9d565b8060005b838110156136105781516135f78882613589565b975061360283613cce565b9250506001810190506135e3565b5085935050505092915050565b61362681613de0565b82525050565b600061363782613cb8565b6136418185613cec565b9350613651818560208601613ea3565b80840191505092915050565b61366681613e3a565b82525050565b61367581613e4c565b82525050565b61368481613e5e565b82525050565b600061369582613cc3565b61369f8185613d08565b93506136af818560208601613ea3565b80840191505092915050565b60006136c8602683613cf7565b91506136d382614036565b604082019050919050565b60006136eb603483613cf7565b91506136f682614085565b604082019050919050565b600061370e602f83613cf7565b9150613719826140d4565b604082019050919050565b6000613731603c83613cf7565b915061373c82614123565b604082019050919050565b6000613754605083613cf7565b915061375f82614172565b606082019050919050565b6000613777602083613cf7565b9150613782826141e7565b602082019050919050565b600061379a604a83613cf7565b91506137a582614210565b606082019050919050565b60006137bd603b83613cf7565b91506137c882614285565b604082019050919050565b60006137e0601283613cf7565b91506137eb826142d4565b602082019050919050565b6000613803603583613cf7565b915061380e826142fd565b604082019050919050565b6000613826604783613cf7565b91506138318261434c565b606082019050919050565b6000613849603f83613cf7565b9150613854826143c1565b604082019050919050565b600061386c604f83613cf7565b915061387782614410565b606082019050919050565b600061388f602d83613cf7565b915061389a82614485565b604082019050919050565b60006138b2604e83613cf7565b91506138bd826144d4565b606082019050919050565b6138d181613e30565b82525050565b60006138e3828461362c565b915081905092915050565b60006138fa828461368a565b915081905092915050565b600060208201905061391a60008301846135b0565b92915050565b600060408201905061393560008301856135b0565b61394260208301846138c8565b9392505050565b600060208201905061395e600083018461361d565b92915050565b6000602082019050613979600083018461365d565b92915050565b6000602082019050613994600083018461366c565b92915050565b600060208201905081810360008301526139b3816136bb565b9050919050565b600060208201905081810360008301526139d3816136de565b9050919050565b600060208201905081810360008301526139f381613701565b9050919050565b60006020820190508181036000830152613a1381613724565b9050919050565b60006020820190508181036000830152613a3381613747565b9050919050565b60006020820190508181036000830152613a538161376a565b9050919050565b60006020820190508181036000830152613a738161378d565b9050919050565b60006020820190508181036000830152613a93816137b0565b9050919050565b60006020820190508181036000830152613ab3816137d3565b9050919050565b60006020820190508181036000830152613ad3816137f6565b9050919050565b60006020820190508181036000830152613af381613819565b9050919050565b60006020820190508181036000830152613b138161383c565b9050919050565b60006020820190508181036000830152613b338161385f565b9050919050565b60006020820190508181036000830152613b5381613882565b9050919050565b60006020820190508181036000830152613b73816138a5565b9050919050565b6000602082019050613b8f60008301846138c8565b92915050565b600060a082019050613baa60008301886138c8565b613bb7602083018761367b565b8181036040830152613bc981866135bf565b9050613bd860608301856135b0565b613be560808301846138c8565b9695505050505050565b6000613bf9613c0a565b9050613c058282613ed6565b919050565b6000604051905090565b600067ffffffffffffffff821115613c2f57613c2e613fdd565b5b602082029050602081019050919050565b600067ffffffffffffffff821115613c5b57613c5a613fdd565b5b602082029050602081019050919050565b600067ffffffffffffffff821115613c8757613c86613fdd565b5b613c9082614025565b9050602081019050919050565b6000819050602082019050919050565b600081519050919050565b600081519050919050565b600081519050919050565b6000602082019050919050565b600082825260208201905092915050565b600081905092915050565b600082825260208201905092915050565b600081905092915050565b6000613d1e82613e30565b9150613d2983613e30565b9250827fffffffffffffffffffffffffffffffffffffffffffffffffffffffffffffffff03821115613d5e57613d5d613f50565b5b828201905092915050565b6000613d7482613e30565b9150613d7f83613e30565b925082613d8f57613d8e613f7f565b5b828204905092915050565b6000613da582613e30565b9150613db083613e30565b925082821015613dc357613dc2613f50565b5b828203905092915050565b6000613dd982613e10565b9050919050565b60008115159050919050565b6000613df782613dce565b9050919050565b6000613e0982613dce565b9050919050565b600073ffffffffffffffffffffffffffffffffffffffff82169050919050565b6000819050919050565b6000613e4582613e70565b9050919050565b6000613e5782613e70565b9050919050565b6000613e6982613e30565b9050919050565b6000613e7b82613e82565b9050919050565b6000613e8d82613e10565b9050919050565b82818337600083830152505050565b60005b83811015613ec1578082015181840152602081019050613ea6565b83811115613ed0576000848401525b50505050565b613edf82614025565b810181811067ffffffffffffffff82111715613efe57613efd613fdd565b5b80604052505050565b6000613f1282613e30565b91507fffffffffffffffffffffffffffffffffffffffffffffffffffffffffffffffff821415613f4557613f44613f50565b5b600182019050919050565b7f4e487b7100000000000000000000000000000000000000000000000000000000600052601160045260246000fd5b7f4e487b7100000000000000000000000000000000000000000000000000000000600052601260045260246000fd5b7f4e487b7100000000000000000000000000000000000000000000000000000000600052603260045260246000fd5b7f4e487b7100000000000000000000000000000000000000000000000000000000600052604160045260246000fd5b600080fd5b600080fd5b600080fd5b600080fd5b600080fd5b6000601f19601f8301169050919050565b7f4f776e61626c653a206e6577206f776e657220697320746865207a65726f206160008201527f6464726573730000000000000000000000000000000000000000000000000000602082015250565b7f5472616e7366657248656c7065723a3a736166655472616e736665724554483a60008201527f20455448207472616e73666572206661696c6564000000000000000000000000602082015250565b7f41424f41543a3a636c61696d3a20416c726561647920616c6c6f77656420746f60008201527f207265636965766520746f6b656e730000000000000000000000000000000000602082015250565b7f41424f41543a3a73656e645265776172647341734574683a2043616e2774207360008201527f656e64206d6f72652072657761726473207468616e206c696d69742100000000602082015250565b7f41424f41543a3a7365744d61696e7461696e65723a204d61696e7461696e657260008201527f2063616e277420657175616c2070726576696f7573206d61696e7461696e657260208201527f206f72207a65726f206164647265737300000000000000000000000000000000604082015250565b7f4f776e61626c653a2063616c6c6572206973206e6f7420746865206f776e6572600082015250565b7f41424f41543a3a73656e645265776172647341734574683a205468657265206960008201527f73206e6f20726f7574657220646566696e656420746f207377617020746f6b6560208201527f6e7320666f722065746800000000000000000000000000000000000000000000604082015250565b7f41424f41543a3a73656e645265776172647341734574683a2043616e2774206360008201527f6c61696d206d6f7265207468616e206f6e636520706572206461790000000000602082015250565b7f46756e6374696f6e206973206c6f636b65640000000000000000000000000000600082015250565b7f6f70657261746f723a2063616c6c6572206973206e6f7420616c6c6f7765642060008201527f746f2063616c6c20746869732066756e6374696f6e0000000000000000000000602082015250565b7f41424f41543a3a73656e645265776172647341734574683a2043616e2774207360008201527f656e64206d6f72652072657761726473207468616e20696e207265776172642060208201527f73797374656d2100000000000000000000000000000000000000000000000000604082015250565b7f41424f41543a757064617465526577617264546f6b656e3a20596f752063616e60008201527f277420757064617465207468652065786163742073616d6520746f6b656e7300602082015250565b7f41424f41543a3a636c61696d3a20416d6f756e74206f6620626e6220746f206360008201527f6c61696d2073686f756c642063617272792074686520636f737420746f20616460208201527f642074686520636c61696d61626c650000000000000000000000000000000000604082015250565b7f5472616e7366657248656c7065723a3a736166655472616e736665723a20747260008201527f616e73666572206661696c656400000000000000000000000000000000000000602082015250565b7f41424f41543a3a73656e64526577617264733a20616d6f756e747320616e642060008201527f616464726573736573206d7573742068617665207468652073616d6520616d6f60208201527f756e74206f6620656e7472696573000000000000000000000000000000000000604082015250565b61455281613dce565b811461455d57600080fd5b50565b61456981613de0565b811461457457600080fd5b50565b61458081613dec565b811461458b57600080fd5b50565b61459781613dfe565b81146145a257600080fd5b50565b6145ae81613e30565b81146145b957600080fd5b5056fea2646970667358221220f3cc8892f5cd8973fdf1b70b098469b35663943d8db45aff27c7260cf88b277d64736f6c63430008070033",
			"opcodes": "PUSH1 0x80 PUSH1 0x40 MSTORE PUSH1 0x0 DUP1 PUSH1 0x14 PUSH2 0x100 EXP DUP2 SLOAD DUP2 PUSH1 0xFF MUL NOT AND SWAP1 DUP4 ISZERO ISZERO MUL OR SWAP1 SSTORE POP PUSH5 0xBA43B7400 PUSH1 0x5 SSTORE PUSH20 0x76049B7CAAB30B8BBBDCFF3A1059D9147DBF7B19 PUSH1 0x6 PUSH1 0x0 PUSH2 0x100 EXP DUP2 SLOAD DUP2 PUSH20 0xFFFFFFFFFFFFFFFFFFFFFFFFFFFFFFFFFFFFFFFF MUL NOT AND SWAP1 DUP4 PUSH20 0xFFFFFFFFFFFFFFFFFFFFFFFFFFFFFFFFFFFFFFFF AND MUL OR SWAP1 SSTORE POP PUSH20 0xC559ACC356D3037EC6DBC33A20587051188B8634 PUSH1 0x7 PUSH1 0x0 PUSH2 0x100 EXP DUP2 SLOAD DUP2 PUSH20 0xFFFFFFFFFFFFFFFFFFFFFFFFFFFFFFFFFFFFFFFF MUL NOT AND SWAP1 DUP4 PUSH20 0xFFFFFFFFFFFFFFFFFFFFFFFFFFFFFFFFFFFFFFFF AND MUL OR SWAP1 SSTORE POP PUSH11 0x84595161401484A000000 PUSH1 0x9 SSTORE PUSH3 0x15180 PUSH1 0xA SSTORE PUSH20 0xBDD4E5660839A088573191A9889A262C0EFC0983 PUSH1 0xB PUSH1 0x0 PUSH2 0x100 EXP DUP2 SLOAD DUP2 PUSH20 0xFFFFFFFFFFFFFFFFFFFFFFFFFFFFFFFFFFFFFFFF MUL NOT AND SWAP1 DUP4 PUSH20 0xFFFFFFFFFFFFFFFFFFFFFFFFFFFFFFFFFFFFFFFF AND MUL OR SWAP1 SSTORE POP CALLVALUE DUP1 ISZERO PUSH3 0x149 JUMPI PUSH1 0x0 DUP1 REVERT JUMPDEST POP PUSH1 0x40 MLOAD PUSH3 0x521B CODESIZE SUB DUP1 PUSH3 0x521B DUP4 CODECOPY DUP2 DUP2 ADD PUSH1 0x40 MSTORE DUP2 ADD SWAP1 PUSH3 0x16F SWAP2 SWAP1 PUSH3 0x829 JUMP JUMPDEST PUSH3 0x18F PUSH3 0x183 PUSH3 0x24B PUSH1 0x20 SHL PUSH1 0x20 SHR JUMP JUMPDEST PUSH3 0x253 PUSH1 0x20 SHL PUSH1 0x20 SHR JUMP JUMPDEST CALLER PUSH1 0x2 PUSH1 0x0 PUSH2 0x100 EXP DUP2 SLOAD DUP2 PUSH20 0xFFFFFFFFFFFFFFFFFFFFFFFFFFFFFFFFFFFFFFFF MUL NOT AND SWAP1 DUP4 PUSH20 0xFFFFFFFFFFFFFFFFFFFFFFFFFFFFFFFFFFFFFFFF AND MUL OR SWAP1 SSTORE POP DUP1 PUSH1 0x8 PUSH1 0x0 PUSH2 0x100 EXP DUP2 SLOAD DUP2 PUSH20 0xFFFFFFFFFFFFFFFFFFFFFFFFFFFFFFFFFFFFFFFF MUL NOT AND SWAP1 DUP4 PUSH20 0xFFFFFFFFFFFFFFFFFFFFFFFFFFFFFFFFFFFFFFFF AND MUL OR SWAP1 SSTORE POP PUSH3 0x244 PUSH1 0x6 PUSH1 0x0 SWAP1 SLOAD SWAP1 PUSH2 0x100 EXP SWAP1 DIV PUSH20 0xFFFFFFFFFFFFFFFFFFFFFFFFFFFFFFFFFFFFFFFF AND PUSH3 0x317 PUSH1 0x20 SHL PUSH1 0x20 SHR JUMP JUMPDEST POP PUSH3 0xC19 JUMP JUMPDEST PUSH1 0x0 CALLER SWAP1 POP SWAP1 JUMP JUMPDEST PUSH1 0x0 DUP1 PUSH1 0x0 SWAP1 SLOAD SWAP1 PUSH2 0x100 EXP SWAP1 DIV PUSH20 0xFFFFFFFFFFFFFFFFFFFFFFFFFFFFFFFFFFFFFFFF AND SWAP1 POP DUP2 PUSH1 0x0 DUP1 PUSH2 0x100 EXP DUP2 SLOAD DUP2 PUSH20 0xFFFFFFFFFFFFFFFFFFFFFFFFFFFFFFFFFFFFFFFF MUL NOT AND SWAP1 DUP4 PUSH20 0xFFFFFFFFFFFFFFFFFFFFFFFFFFFFFFFFFFFFFFFF AND MUL OR SWAP1 SSTORE POP DUP2 PUSH20 0xFFFFFFFFFFFFFFFFFFFFFFFFFFFFFFFFFFFFFFFF AND DUP2 PUSH20 0xFFFFFFFFFFFFFFFFFFFFFFFFFFFFFFFFFFFFFFFF AND PUSH32 0x8BE0079C531659141344CD1FD0A4F28419497F9722A3DAAFE3B4186F6B6457E0 PUSH1 0x40 MLOAD PUSH1 0x40 MLOAD DUP1 SWAP2 SUB SWAP1 LOG3 POP POP JUMP JUMPDEST PUSH3 0x327 PUSH3 0x24B PUSH1 0x20 SHL PUSH1 0x20 SHR JUMP JUMPDEST PUSH20 0xFFFFFFFFFFFFFFFFFFFFFFFFFFFFFFFFFFFFFFFF AND PUSH3 0x34D PUSH3 0x5D1 PUSH1 0x20 SHL PUSH1 0x20 SHR JUMP JUMPDEST PUSH20 0xFFFFFFFFFFFFFFFFFFFFFFFFFFFFFFFFFFFFFFFF AND EQ PUSH3 0x3A6 JUMPI PUSH1 0x40 MLOAD PUSH32 0x8C379A000000000000000000000000000000000000000000000000000000000 DUP2 MSTORE PUSH1 0x4 ADD PUSH3 0x39D SWAP1 PUSH3 0x969 JUMP JUMPDEST PUSH1 0x40 MLOAD DUP1 SWAP2 SUB SWAP1 REVERT JUMPDEST PUSH1 0x40 MLOAD DUP1 PUSH1 0x40 ADD PUSH1 0x40 MSTORE DUP1 PUSH1 0x12 DUP2 MSTORE PUSH1 0x20 ADD PUSH32 0x6368616E67654F7261636C6557616C6C65740000000000000000000000000000 DUP2 MSTORE POP PUSH1 0x0 PUSH1 0x14 SWAP1 SLOAD SWAP1 PUSH2 0x100 EXP SWAP1 DIV PUSH1 0xFF AND ISZERO DUP1 PUSH3 0x484 JUMPI POP PUSH1 0x0 PUSH1 0x1 DUP3 PUSH1 0x40 MLOAD PUSH3 0x408 SWAP2 SWAP1 PUSH3 0x92E JUMP JUMPDEST SWAP1 DUP2 MSTORE PUSH1 0x20 ADD PUSH1 0x40 MLOAD DUP1 SWAP2 SUB SWAP1 KECCAK256 SLOAD EQ ISZERO DUP1 ISZERO PUSH3 0x446 JUMPI POP TIMESTAMP PUSH1 0x1 DUP3 PUSH1 0x40 MLOAD PUSH3 0x434 SWAP2 SWAP1 PUSH3 0x92E JUMP JUMPDEST SWAP1 DUP2 MSTORE PUSH1 0x20 ADD PUSH1 0x40 MLOAD DUP1 SWAP2 SUB SWAP1 KECCAK256 SLOAD GT ISZERO JUMPDEST DUP1 ISZERO PUSH3 0x483 JUMPI POP TIMESTAMP PUSH3 0x15180 PUSH1 0x1 DUP4 PUSH1 0x40 MLOAD PUSH3 0x465 SWAP2 SWAP1 PUSH3 0x92E JUMP JUMPDEST SWAP1 DUP2 MSTORE PUSH1 0x20 ADD PUSH1 0x40 MLOAD DUP1 SWAP2 SUB SWAP1 KECCAK256 SLOAD PUSH3 0x480 SWAP2 SWAP1 PUSH3 0x9F6 JUMP JUMPDEST LT ISZERO JUMPDEST JUMPDEST PUSH3 0x4C6 JUMPI PUSH1 0x40 MLOAD PUSH32 0x8C379A000000000000000000000000000000000000000000000000000000000 DUP2 MSTORE PUSH1 0x4 ADD PUSH3 0x4BD SWAP1 PUSH3 0x98B JUMP JUMPDEST PUSH1 0x40 MLOAD DUP1 SWAP2 SUB SWAP1 REVERT JUMPDEST PUSH3 0x4D7 DUP3 PUSH3 0x5FA PUSH1 0x20 SHL PUSH1 0x20 SHR JUMP JUMPDEST PUSH1 0x0 PUSH1 0x6 PUSH1 0x0 SWAP1 SLOAD SWAP1 PUSH2 0x100 EXP SWAP1 DIV PUSH20 0xFFFFFFFFFFFFFFFFFFFFFFFFFFFFFFFFFFFFFFFF AND SWAP1 POP DUP3 PUSH1 0x6 PUSH1 0x0 PUSH2 0x100 EXP DUP2 SLOAD DUP2 PUSH20 0xFFFFFFFFFFFFFFFFFFFFFFFFFFFFFFFFFFFFFFFF MUL NOT AND SWAP1 DUP4 PUSH20 0xFFFFFFFFFFFFFFFFFFFFFFFFFFFFFFFFFFFFFFFF AND MUL OR SWAP1 SSTORE POP PUSH1 0x6 PUSH1 0x0 SWAP1 SLOAD SWAP1 PUSH2 0x100 EXP SWAP1 DIV PUSH20 0xFFFFFFFFFFFFFFFFFFFFFFFFFFFFFFFFFFFFFFFF AND PUSH20 0xFFFFFFFFFFFFFFFFFFFFFFFFFFFFFFFFFFFFFFFF AND DUP2 PUSH20 0xFFFFFFFFFFFFFFFFFFFFFFFFFFFFFFFFFFFFFFFF AND PUSH32 0x3920ECD0F25E4E6CE57AAEC91E57DF499CB7E3E70D6C9604F866AE9265382CF3 PUSH1 0x40 MLOAD PUSH1 0x40 MLOAD DUP1 SWAP2 SUB SWAP1 LOG3 POP PUSH3 0x5CD DUP2 PUSH3 0x710 PUSH1 0x20 SHL PUSH1 0x20 SHR JUMP JUMPDEST POP POP JUMP JUMPDEST PUSH1 0x0 DUP1 PUSH1 0x0 SWAP1 SLOAD SWAP1 PUSH2 0x100 EXP SWAP1 DIV PUSH20 0xFFFFFFFFFFFFFFFFFFFFFFFFFFFFFFFFFFFFFFFF AND SWAP1 POP SWAP1 JUMP JUMPDEST PUSH3 0x60A PUSH3 0x24B PUSH1 0x20 SHL PUSH1 0x20 SHR JUMP JUMPDEST PUSH20 0xFFFFFFFFFFFFFFFFFFFFFFFFFFFFFFFFFFFFFFFF AND PUSH3 0x630 PUSH3 0x5D1 PUSH1 0x20 SHL PUSH1 0x20 SHR JUMP JUMPDEST PUSH20 0xFFFFFFFFFFFFFFFFFFFFFFFFFFFFFFFFFFFFFFFF AND EQ PUSH3 0x689 JUMPI PUSH1 0x40 MLOAD PUSH32 0x8C379A000000000000000000000000000000000000000000000000000000000 DUP2 MSTORE PUSH1 0x4 ADD PUSH3 0x680 SWAP1 PUSH3 0x969 JUMP JUMPDEST PUSH1 0x40 MLOAD DUP1 SWAP2 SUB SWAP1 REVERT JUMPDEST PUSH1 0x0 PUSH20 0xFFFFFFFFFFFFFFFFFFFFFFFFFFFFFFFFFFFFFFFF AND DUP2 PUSH20 0xFFFFFFFFFFFFFFFFFFFFFFFFFFFFFFFFFFFFFFFF AND EQ ISZERO PUSH3 0x6FC JUMPI PUSH1 0x40 MLOAD PUSH32 0x8C379A000000000000000000000000000000000000000000000000000000000 DUP2 MSTORE PUSH1 0x4 ADD PUSH3 0x6F3 SWAP1 PUSH3 0x947 JUMP JUMPDEST PUSH1 0x40 MLOAD DUP1 SWAP2 SUB SWAP1 REVERT JUMPDEST PUSH3 0x70D DUP2 PUSH3 0x253 PUSH1 0x20 SHL PUSH1 0x20 SHR JUMP JUMPDEST POP JUMP JUMPDEST CALLER PUSH20 0xFFFFFFFFFFFFFFFFFFFFFFFFFFFFFFFFFFFFFFFF AND PUSH3 0x737 PUSH3 0x5D1 PUSH1 0x20 SHL PUSH1 0x20 SHR JUMP JUMPDEST PUSH20 0xFFFFFFFFFFFFFFFFFFFFFFFFFFFFFFFFFFFFFFFF AND EQ DUP1 PUSH3 0x7A7 JUMPI POP CALLER PUSH20 0xFFFFFFFFFFFFFFFFFFFFFFFFFFFFFFFFFFFFFFFF AND PUSH1 0x2 PUSH1 0x0 SWAP1 SLOAD SWAP1 PUSH2 0x100 EXP SWAP1 DIV PUSH20 0xFFFFFFFFFFFFFFFFFFFFFFFFFFFFFFFFFFFFFFFF AND PUSH20 0xFFFFFFFFFFFFFFFFFFFFFFFFFFFFFFFFFFFFFFFF AND EQ JUMPDEST PUSH3 0x7E9 JUMPI PUSH1 0x40 MLOAD PUSH32 0x8C379A000000000000000000000000000000000000000000000000000000000 DUP2 MSTORE PUSH1 0x4 ADD PUSH3 0x7E0 SWAP1 PUSH3 0x9AD JUMP JUMPDEST PUSH1 0x40 MLOAD DUP1 SWAP2 SUB SWAP1 REVERT JUMPDEST PUSH1 0x0 PUSH1 0x1 DUP3 PUSH1 0x40 MLOAD PUSH3 0x7FD SWAP2 SWAP1 PUSH3 0x92E JUMP JUMPDEST SWAP1 DUP2 MSTORE PUSH1 0x20 ADD PUSH1 0x40 MLOAD DUP1 SWAP2 SUB SWAP1 KECCAK256 DUP2 SWAP1 SSTORE POP POP JUMP JUMPDEST PUSH1 0x0 DUP2 MLOAD SWAP1 POP PUSH3 0x823 DUP2 PUSH3 0xBFF JUMP JUMPDEST SWAP3 SWAP2 POP POP JUMP JUMPDEST PUSH1 0x0 PUSH1 0x20 DUP3 DUP5 SUB SLT ISZERO PUSH3 0x842 JUMPI PUSH3 0x841 PUSH3 0xB0A JUMP JUMPDEST JUMPDEST PUSH1 0x0 PUSH3 0x852 DUP5 DUP3 DUP6 ADD PUSH3 0x812 JUMP JUMPDEST SWAP2 POP POP SWAP3 SWAP2 POP POP JUMP JUMPDEST PUSH1 0x0 PUSH3 0x868 DUP3 PUSH3 0x9CF JUMP JUMPDEST PUSH3 0x874 DUP2 DUP6 PUSH3 0x9EB JUMP JUMPDEST SWAP4 POP PUSH3 0x886 DUP2 DUP6 PUSH1 0x20 DUP7 ADD PUSH3 0xAA5 JUMP JUMPDEST DUP1 DUP5 ADD SWAP2 POP POP SWAP3 SWAP2 POP POP JUMP JUMPDEST PUSH1 0x0 PUSH3 0x8A1 PUSH1 0x26 DUP4 PUSH3 0x9DA JUMP JUMPDEST SWAP2 POP PUSH3 0x8AE DUP3 PUSH3 0xB0F JUMP JUMPDEST PUSH1 0x40 DUP3 ADD SWAP1 POP SWAP2 SWAP1 POP JUMP JUMPDEST PUSH1 0x0 PUSH3 0x8C8 PUSH1 0x20 DUP4 PUSH3 0x9DA JUMP JUMPDEST SWAP2 POP PUSH3 0x8D5 DUP3 PUSH3 0xB5E JUMP JUMPDEST PUSH1 0x20 DUP3 ADD SWAP1 POP SWAP2 SWAP1 POP JUMP JUMPDEST PUSH1 0x0 PUSH3 0x8EF PUSH1 0x12 DUP4 PUSH3 0x9DA JUMP JUMPDEST SWAP2 POP PUSH3 0x8FC DUP3 PUSH3 0xB87 JUMP JUMPDEST PUSH1 0x20 DUP3 ADD SWAP1 POP SWAP2 SWAP1 POP JUMP JUMPDEST PUSH1 0x0 PUSH3 0x916 PUSH1 0x35 DUP4 PUSH3 0x9DA JUMP JUMPDEST SWAP2 POP PUSH3 0x923 DUP3 PUSH3 0xBB0 JUMP JUMPDEST PUSH1 0x40 DUP3 ADD SWAP1 POP SWAP2 SWAP1 POP JUMP JUMPDEST PUSH1 0x0 PUSH3 0x93C DUP3 DUP5 PUSH3 0x85B JUMP JUMPDEST SWAP2 POP DUP2 SWAP1 POP SWAP3 SWAP2 POP POP JUMP JUMPDEST PUSH1 0x0 PUSH1 0x20 DUP3 ADD SWAP1 POP DUP2 DUP2 SUB PUSH1 0x0 DUP4 ADD MSTORE PUSH3 0x962 DUP2 PUSH3 0x892 JUMP JUMPDEST SWAP1 POP SWAP2 SWAP1 POP JUMP JUMPDEST PUSH1 0x0 PUSH1 0x20 DUP3 ADD SWAP1 POP DUP2 DUP2 SUB PUSH1 0x0 DUP4 ADD MSTORE PUSH3 0x984 DUP2 PUSH3 0x8B9 JUMP JUMPDEST SWAP1 POP SWAP2 SWAP1 POP JUMP JUMPDEST PUSH1 0x0 PUSH1 0x20 DUP3 ADD SWAP1 POP DUP2 DUP2 SUB PUSH1 0x0 DUP4 ADD MSTORE PUSH3 0x9A6 DUP2 PUSH3 0x8E0 JUMP JUMPDEST SWAP1 POP SWAP2 SWAP1 POP JUMP JUMPDEST PUSH1 0x0 PUSH1 0x20 DUP3 ADD SWAP1 POP DUP2 DUP2 SUB PUSH1 0x0 DUP4 ADD MSTORE PUSH3 0x9C8 DUP2 PUSH3 0x907 JUMP JUMPDEST SWAP1 POP SWAP2 SWAP1 POP JUMP JUMPDEST PUSH1 0x0 DUP2 MLOAD SWAP1 POP SWAP2 SWAP1 POP JUMP JUMPDEST PUSH1 0x0 DUP3 DUP3 MSTORE PUSH1 0x20 DUP3 ADD SWAP1 POP SWAP3 SWAP2 POP POP JUMP JUMPDEST PUSH1 0x0 DUP2 SWAP1 POP SWAP3 SWAP2 POP POP JUMP JUMPDEST PUSH1 0x0 PUSH3 0xA03 DUP3 PUSH3 0xA9B JUMP JUMPDEST SWAP2 POP PUSH3 0xA10 DUP4 PUSH3 0xA9B JUMP JUMPDEST SWAP3 POP DUP3 PUSH32 0xFFFFFFFFFFFFFFFFFFFFFFFFFFFFFFFFFFFFFFFFFFFFFFFFFFFFFFFFFFFFFFFF SUB DUP3 GT ISZERO PUSH3 0xA48 JUMPI PUSH3 0xA47 PUSH3 0xADB JUMP JUMPDEST JUMPDEST DUP3 DUP3 ADD SWAP1 POP SWAP3 SWAP2 POP POP JUMP JUMPDEST PUSH1 0x0 PUSH3 0xA60 DUP3 PUSH3 0xA7B JUMP JUMPDEST SWAP1 POP SWAP2 SWAP1 POP JUMP JUMPDEST PUSH1 0x0 PUSH3 0xA74 DUP3 PUSH3 0xA53 JUMP JUMPDEST SWAP1 POP SWAP2 SWAP1 POP JUMP JUMPDEST PUSH1 0x0 PUSH20 0xFFFFFFFFFFFFFFFFFFFFFFFFFFFFFFFFFFFFFFFF DUP3 AND SWAP1 POP SWAP2 SWAP1 POP JUMP JUMPDEST PUSH1 0x0 DUP2 SWAP1 POP SWAP2 SWAP1 POP JUMP JUMPDEST PUSH1 0x0 JUMPDEST DUP4 DUP2 LT ISZERO PUSH3 0xAC5 JUMPI DUP1 DUP3 ADD MLOAD DUP2 DUP5 ADD MSTORE PUSH1 0x20 DUP2 ADD SWAP1 POP PUSH3 0xAA8 JUMP JUMPDEST DUP4 DUP2 GT ISZERO PUSH3 0xAD5 JUMPI PUSH1 0x0 DUP5 DUP5 ADD MSTORE JUMPDEST POP POP POP POP JUMP JUMPDEST PUSH32 0x4E487B7100000000000000000000000000000000000000000000000000000000 PUSH1 0x0 MSTORE PUSH1 0x11 PUSH1 0x4 MSTORE PUSH1 0x24 PUSH1 0x0 REVERT JUMPDEST PUSH1 0x0 DUP1 REVERT JUMPDEST PUSH32 0x4F776E61626C653A206E6577206F776E657220697320746865207A65726F2061 PUSH1 0x0 DUP3 ADD MSTORE PUSH32 0x6464726573730000000000000000000000000000000000000000000000000000 PUSH1 0x20 DUP3 ADD MSTORE POP JUMP JUMPDEST PUSH32 0x4F776E61626C653A2063616C6C6572206973206E6F7420746865206F776E6572 PUSH1 0x0 DUP3 ADD MSTORE POP JUMP JUMPDEST PUSH32 0x46756E6374696F6E206973206C6F636B65640000000000000000000000000000 PUSH1 0x0 DUP3 ADD MSTORE POP JUMP JUMPDEST PUSH32 0x6F70657261746F723A2063616C6C6572206973206E6F7420616C6C6F77656420 PUSH1 0x0 DUP3 ADD MSTORE PUSH32 0x746F2063616C6C20746869732066756E6374696F6E0000000000000000000000 PUSH1 0x20 DUP3 ADD MSTORE POP JUMP JUMPDEST PUSH3 0xC0A DUP2 PUSH3 0xA67 JUMP JUMPDEST DUP2 EQ PUSH3 0xC16 JUMPI PUSH1 0x0 DUP1 REVERT JUMPDEST POP JUMP JUMPDEST PUSH2 0x45F2 DUP1 PUSH3 0xC29 PUSH1 0x0 CODECOPY PUSH1 0x0 RETURN INVALID PUSH1 0x80 PUSH1 0x40 MSTORE PUSH1 0x4 CALLDATASIZE LT PUSH2 0x1FD JUMPI PUSH1 0x0 CALLDATALOAD PUSH1 0xE0 SHR DUP1 PUSH4 0x9850D32B GT PUSH2 0x10D JUMPI DUP1 PUSH4 0xD6E0ECE2 GT PUSH2 0xA0 JUMPI DUP1 PUSH4 0xF2FDE38B GT PUSH2 0x6F JUMPI DUP1 PUSH4 0xF2FDE38B EQ PUSH2 0x6BF JUMPI DUP1 PUSH4 0xF4762FD6 EQ PUSH2 0x6E8 JUMPI DUP1 PUSH4 0xF7E77BC2 EQ PUSH2 0x6FF JUMPI DUP1 PUSH4 0xF8CF31CB EQ PUSH2 0x73C JUMPI DUP1 PUSH4 0xF98080C0 EQ PUSH2 0x765 JUMPI PUSH2 0x204 JUMP JUMPDEST DUP1 PUSH4 0xD6E0ECE2 EQ PUSH2 0x62B JUMPI DUP1 PUSH4 0xDB2E21BC EQ PUSH2 0x654 JUMPI DUP1 PUSH4 0xDE996A6E EQ PUSH2 0x66B JUMPI DUP1 PUSH4 0xEDAE876F EQ PUSH2 0x694 JUMPI PUSH2 0x204 JUMP JUMPDEST DUP1 PUSH4 0xA607494A GT PUSH2 0xDC JUMPI DUP1 PUSH4 0xA607494A EQ PUSH2 0x571 JUMPI DUP1 PUSH4 0xB59C6E0E EQ PUSH2 0x59A JUMPI DUP1 PUSH4 0xBF3506C1 EQ PUSH2 0x5C5 JUMPI DUP1 PUSH4 0xC0D78655 EQ PUSH2 0x602 JUMPI PUSH2 0x204 JUMP JUMPDEST DUP1 PUSH4 0x9850D32B EQ PUSH2 0x4C7 JUMPI DUP1 PUSH4 0x9F531156 EQ PUSH2 0x4F2 JUMPI DUP1 PUSH4 0xA221A15F EQ PUSH2 0x51B JUMPI DUP1 PUSH4 0xA347511A EQ PUSH2 0x546 JUMPI PUSH2 0x204 JUMP JUMPDEST DUP1 PUSH4 0x5DD53826 GT PUSH2 0x190 JUMPI DUP1 PUSH4 0x7D6DFB7E GT PUSH2 0x15F JUMPI DUP1 PUSH4 0x7D6DFB7E EQ PUSH2 0x3CE JUMPI DUP1 PUSH4 0x7EF189F8 EQ PUSH2 0x40B JUMPI DUP1 PUSH4 0x864E49A7 EQ PUSH2 0x436 JUMPI DUP1 PUSH4 0x87DF241F EQ PUSH2 0x473 JUMPI DUP1 PUSH4 0x8DA5CB5B EQ PUSH2 0x49C JUMPI PUSH2 0x204 JUMP JUMPDEST DUP1 PUSH4 0x5DD53826 EQ PUSH2 0x338 JUMPI DUP1 PUSH4 0x63CD79B7 EQ PUSH2 0x363 JUMPI DUP1 PUSH4 0x70ED0ADA EQ PUSH2 0x38C JUMPI DUP1 PUSH4 0x715018A6 EQ PUSH2 0x3B7 JUMPI PUSH2 0x204 JUMP JUMPDEST DUP1 PUSH4 0x13EA5D29 GT PUSH2 0x1CC JUMPI DUP1 PUSH4 0x13EA5D29 EQ PUSH2 0x2B3 JUMPI DUP1 PUSH4 0x478A55EB EQ PUSH2 0x2DC JUMPI DUP1 PUSH4 0x4A938F00 EQ PUSH2 0x305 JUMPI DUP1 PUSH4 0x4E71D92D EQ PUSH2 0x32E JUMPI PUSH2 0x204 JUMP JUMPDEST DUP1 PUSH4 0x126FFB9 EQ PUSH2 0x209 JUMPI DUP1 PUSH4 0xB6D1A70 EQ PUSH2 0x234 JUMPI DUP1 PUSH4 0x11A63E17 EQ PUSH2 0x25D JUMPI DUP1 PUSH4 0x12065FE0 EQ PUSH2 0x288 JUMPI PUSH2 0x204 JUMP JUMPDEST CALLDATASIZE PUSH2 0x204 JUMPI STOP JUMPDEST PUSH1 0x0 DUP1 REVERT JUMPDEST CALLVALUE DUP1 ISZERO PUSH2 0x215 JUMPI PUSH1 0x0 DUP1 REVERT JUMPDEST POP PUSH2 0x21E PUSH2 0x7A2 JUMP JUMPDEST PUSH1 0x40 MLOAD PUSH2 0x22B SWAP2 SWAP1 PUSH2 0x3B7A JUMP JUMPDEST PUSH1 0x40 MLOAD DUP1 SWAP2 SUB SWAP1 RETURN JUMPDEST CALLVALUE DUP1 ISZERO PUSH2 0x240 JUMPI PUSH1 0x0 DUP1 REVERT JUMPDEST POP PUSH2 0x25B PUSH1 0x4 DUP1 CALLDATASIZE SUB DUP2 ADD SWAP1 PUSH2 0x256 SWAP2 SWAP1 PUSH2 0x331C JUMP JUMPDEST PUSH2 0x7A8 JUMP JUMPDEST STOP JUMPDEST CALLVALUE DUP1 ISZERO PUSH2 0x269 JUMPI PUSH1 0x0 DUP1 REVERT JUMPDEST POP PUSH2 0x272 PUSH2 0xB22 JUMP JUMPDEST PUSH1 0x40 MLOAD PUSH2 0x27F SWAP2 SWAP1 PUSH2 0x3905 JUMP JUMPDEST PUSH1 0x40 MLOAD DUP1 SWAP2 SUB SWAP1 RETURN JUMPDEST CALLVALUE DUP1 ISZERO PUSH2 0x294 JUMPI PUSH1 0x0 DUP1 REVERT JUMPDEST POP PUSH2 0x29D PUSH2 0xB48 JUMP JUMPDEST PUSH1 0x40 MLOAD PUSH2 0x2AA SWAP2 SWAP1 PUSH2 0x3B7A JUMP JUMPDEST PUSH1 0x40 MLOAD DUP1 SWAP2 SUB SWAP1 RETURN JUMPDEST CALLVALUE DUP1 ISZERO PUSH2 0x2BF JUMPI PUSH1 0x0 DUP1 REVERT JUMPDEST POP PUSH2 0x2DA PUSH1 0x4 DUP1 CALLDATASIZE SUB DUP2 ADD SWAP1 PUSH2 0x2D5 SWAP2 SWAP1 PUSH2 0x32C2 JUMP JUMPDEST PUSH2 0xBFA JUMP JUMPDEST STOP JUMPDEST CALLVALUE DUP1 ISZERO PUSH2 0x2E8 JUMPI PUSH1 0x0 DUP1 REVERT JUMPDEST POP PUSH2 0x303 PUSH1 0x4 DUP1 CALLDATASIZE SUB DUP2 ADD SWAP1 PUSH2 0x2FE SWAP2 SWAP1 PUSH2 0x331C JUMP JUMPDEST PUSH2 0xF95 JUMP JUMPDEST STOP JUMPDEST CALLVALUE DUP1 ISZERO PUSH2 0x311 JUMPI PUSH1 0x0 DUP1 REVERT JUMPDEST POP PUSH2 0x32C PUSH1 0x4 DUP1 CALLDATASIZE SUB DUP2 ADD SWAP1 PUSH2 0x327 SWAP2 SWAP1 PUSH2 0x3394 JUMP JUMPDEST PUSH2 0x130F JUMP JUMPDEST STOP JUMPDEST PUSH2 0x336 PUSH2 0x13A3 JUMP JUMPDEST STOP JUMPDEST CALLVALUE DUP1 ISZERO PUSH2 0x344 JUMPI PUSH1 0x0 DUP1 REVERT JUMPDEST POP PUSH2 0x34D PUSH2 0x153E JUMP JUMPDEST PUSH1 0x40 MLOAD PUSH2 0x35A SWAP2 SWAP1 PUSH2 0x3B7A JUMP JUMPDEST PUSH1 0x40 MLOAD DUP1 SWAP2 SUB SWAP1 RETURN JUMPDEST CALLVALUE DUP1 ISZERO PUSH2 0x36F JUMPI PUSH1 0x0 DUP1 REVERT JUMPDEST POP PUSH2 0x38A PUSH1 0x4 DUP1 CALLDATASIZE SUB DUP2 ADD SWAP1 PUSH2 0x385 SWAP2 SWAP1 PUSH2 0x32C2 JUMP JUMPDEST PUSH2 0x1544 JUMP JUMPDEST STOP JUMPDEST CALLVALUE DUP1 ISZERO PUSH2 0x398 JUMPI PUSH1 0x0 DUP1 REVERT JUMPDEST POP PUSH2 0x3A1 PUSH2 0x17CD JUMP JUMPDEST PUSH1 0x40 MLOAD PUSH2 0x3AE SWAP2 SWAP1 PUSH2 0x3B7A JUMP JUMPDEST PUSH1 0x40 MLOAD DUP1 SWAP2 SUB SWAP1 RETURN JUMPDEST CALLVALUE DUP1 ISZERO PUSH2 0x3C3 JUMPI PUSH1 0x0 DUP1 REVERT JUMPDEST POP PUSH2 0x3CC PUSH2 0x17D5 JUMP JUMPDEST STOP JUMPDEST CALLVALUE DUP1 ISZERO PUSH2 0x3DA JUMPI PUSH1 0x0 DUP1 REVERT JUMPDEST POP PUSH2 0x3F5 PUSH1 0x4 DUP1 CALLDATASIZE SUB DUP2 ADD SWAP1 PUSH2 0x3F0 SWAP2 SWAP1 PUSH2 0x32C2 JUMP JUMPDEST PUSH2 0x185D JUMP JUMPDEST PUSH1 0x40 MLOAD PUSH2 0x402 SWAP2 SWAP1 PUSH2 0x3949 JUMP JUMPDEST PUSH1 0x40 MLOAD DUP1 SWAP2 SUB SWAP1 RETURN JUMPDEST CALLVALUE DUP1 ISZERO PUSH2 0x417 JUMPI PUSH1 0x0 DUP1 REVERT JUMPDEST POP PUSH2 0x420 PUSH2 0x187D JUMP JUMPDEST PUSH1 0x40 MLOAD PUSH2 0x42D SWAP2 SWAP1 PUSH2 0x3B7A JUMP JUMPDEST PUSH1 0x40 MLOAD DUP1 SWAP2 SUB SWAP1 RETURN JUMPDEST CALLVALUE DUP1 ISZERO PUSH2 0x442 JUMPI PUSH1 0x0 DUP1 REVERT JUMPDEST POP PUSH2 0x45D PUSH1 0x4 DUP1 CALLDATASIZE SUB DUP2 ADD SWAP1 PUSH2 0x458 SWAP2 SWAP1 PUSH2 0x32C2 JUMP JUMPDEST PUSH2 0x1883 JUMP JUMPDEST PUSH1 0x40 MLOAD PUSH2 0x46A SWAP2 SWAP1 PUSH2 0x3949 JUMP JUMPDEST PUSH1 0x40 MLOAD DUP1 SWAP2 SUB SWAP1 RETURN JUMPDEST CALLVALUE DUP1 ISZERO PUSH2 0x47F JUMPI PUSH1 0x0 DUP1 REVERT JUMPDEST POP PUSH2 0x49A PUSH1 0x4 DUP1 CALLDATASIZE SUB DUP2 ADD SWAP1 PUSH2 0x495 SWAP2 SWAP1 PUSH2 0x34EF JUMP JUMPDEST PUSH2 0x18DC JUMP JUMPDEST STOP JUMPDEST CALLVALUE DUP1 ISZERO PUSH2 0x4A8 JUMPI PUSH1 0x0 DUP1 REVERT JUMPDEST POP PUSH2 0x4B1 PUSH2 0x1AAE JUMP JUMPDEST PUSH1 0x40 MLOAD PUSH2 0x4BE SWAP2 SWAP1 PUSH2 0x3905 JUMP JUMPDEST PUSH1 0x40 MLOAD DUP1 SWAP2 SUB SWAP1 RETURN JUMPDEST CALLVALUE DUP1 ISZERO PUSH2 0x4D3 JUMPI PUSH1 0x0 DUP1 REVERT JUMPDEST POP PUSH2 0x4DC PUSH2 0x1AD7 JUMP JUMPDEST PUSH1 0x40 MLOAD PUSH2 0x4E9 SWAP2 SWAP1 PUSH2 0x3905 JUMP JUMPDEST PUSH1 0x40 MLOAD DUP1 SWAP2 SUB SWAP1 RETURN JUMPDEST CALLVALUE DUP1 ISZERO PUSH2 0x4FE JUMPI PUSH1 0x0 DUP1 REVERT JUMPDEST POP PUSH2 0x519 PUSH1 0x4 DUP1 CALLDATASIZE SUB DUP2 ADD SWAP1 PUSH2 0x514 SWAP2 SWAP1 PUSH2 0x34A6 JUMP JUMPDEST PUSH2 0x1B01 JUMP JUMPDEST STOP JUMPDEST CALLVALUE DUP1 ISZERO PUSH2 0x527 JUMPI PUSH1 0x0 DUP1 REVERT JUMPDEST POP PUSH2 0x530 PUSH2 0x1BF5 JUMP JUMPDEST PUSH1 0x40 MLOAD PUSH2 0x53D SWAP2 SWAP1 PUSH2 0x3905 JUMP JUMPDEST PUSH1 0x40 MLOAD DUP1 SWAP2 SUB SWAP1 RETURN JUMPDEST CALLVALUE DUP1 ISZERO PUSH2 0x552 JUMPI PUSH1 0x0 DUP1 REVERT JUMPDEST POP PUSH2 0x55B PUSH2 0x1C1B JUMP JUMPDEST PUSH1 0x40 MLOAD PUSH2 0x568 SWAP2 SWAP1 PUSH2 0x3949 JUMP JUMPDEST PUSH1 0x40 MLOAD DUP1 SWAP2 SUB SWAP1 RETURN JUMPDEST CALLVALUE DUP1 ISZERO PUSH2 0x57D JUMPI PUSH1 0x0 DUP1 REVERT JUMPDEST POP PUSH2 0x598 PUSH1 0x4 DUP1 CALLDATASIZE SUB DUP2 ADD SWAP1 PUSH2 0x593 SWAP2 SWAP1 PUSH2 0x34A6 JUMP JUMPDEST PUSH2 0x1C2E JUMP JUMPDEST STOP JUMPDEST CALLVALUE DUP1 ISZERO PUSH2 0x5A6 JUMPI PUSH1 0x0 DUP1 REVERT JUMPDEST POP PUSH2 0x5AF PUSH2 0x1D90 JUMP JUMPDEST PUSH1 0x40 MLOAD PUSH2 0x5BC SWAP2 SWAP1 PUSH2 0x3964 JUMP JUMPDEST PUSH1 0x40 MLOAD DUP1 SWAP2 SUB SWAP1 RETURN JUMPDEST CALLVALUE DUP1 ISZERO PUSH2 0x5D1 JUMPI PUSH1 0x0 DUP1 REVERT JUMPDEST POP PUSH2 0x5EC PUSH1 0x4 DUP1 CALLDATASIZE SUB DUP2 ADD SWAP1 PUSH2 0x5E7 SWAP2 SWAP1 PUSH2 0x32C2 JUMP JUMPDEST PUSH2 0x1DB6 JUMP JUMPDEST PUSH1 0x40 MLOAD PUSH2 0x5F9 SWAP2 SWAP1 PUSH2 0x3949 JUMP JUMPDEST PUSH1 0x40 MLOAD DUP1 SWAP2 SUB SWAP1 RETURN JUMPDEST CALLVALUE DUP1 ISZERO PUSH2 0x60E JUMPI PUSH1 0x0 DUP1 REVERT JUMPDEST POP PUSH2 0x629 PUSH1 0x4 DUP1 CALLDATASIZE SUB DUP2 ADD SWAP1 PUSH2 0x624 SWAP2 SWAP1 PUSH2 0x3479 JUMP JUMPDEST PUSH2 0x1E1D JUMP JUMPDEST STOP JUMPDEST CALLVALUE DUP1 ISZERO PUSH2 0x637 JUMPI PUSH1 0x0 DUP1 REVERT JUMPDEST POP PUSH2 0x652 PUSH1 0x4 DUP1 CALLDATASIZE SUB DUP2 ADD SWAP1 PUSH2 0x64D SWAP2 SWAP1 PUSH2 0x3549 JUMP JUMPDEST PUSH2 0x1EDD JUMP JUMPDEST STOP JUMPDEST CALLVALUE DUP1 ISZERO PUSH2 0x660 JUMPI PUSH1 0x0 DUP1 REVERT JUMPDEST POP PUSH2 0x669 PUSH2 0x2204 JUMP JUMPDEST STOP JUMPDEST CALLVALUE DUP1 ISZERO PUSH2 0x677 JUMPI PUSH1 0x0 DUP1 REVERT JUMPDEST POP PUSH2 0x692 PUSH1 0x4 DUP1 CALLDATASIZE SUB DUP2 ADD SWAP1 PUSH2 0x68D SWAP2 SWAP1 PUSH2 0x34EF JUMP JUMPDEST PUSH2 0x2307 JUMP JUMPDEST STOP JUMPDEST CALLVALUE DUP1 ISZERO PUSH2 0x6A0 JUMPI PUSH1 0x0 DUP1 REVERT JUMPDEST POP PUSH2 0x6A9 PUSH2 0x24D9 JUMP JUMPDEST PUSH1 0x40 MLOAD PUSH2 0x6B6 SWAP2 SWAP1 PUSH2 0x397F JUMP JUMPDEST PUSH1 0x40 MLOAD DUP1 SWAP2 SUB SWAP1 RETURN JUMPDEST CALLVALUE DUP1 ISZERO PUSH2 0x6CB JUMPI PUSH1 0x0 DUP1 REVERT JUMPDEST POP PUSH2 0x6E6 PUSH1 0x4 DUP1 CALLDATASIZE SUB DUP2 ADD SWAP1 PUSH2 0x6E1 SWAP2 SWAP1 PUSH2 0x32C2 JUMP JUMPDEST PUSH2 0x24FF JUMP JUMPDEST STOP JUMPDEST CALLVALUE DUP1 ISZERO PUSH2 0x6F4 JUMPI PUSH1 0x0 DUP1 REVERT JUMPDEST POP PUSH2 0x6FD PUSH2 0x25F7 JUMP JUMPDEST STOP JUMPDEST CALLVALUE DUP1 ISZERO PUSH2 0x70B JUMPI PUSH1 0x0 DUP1 REVERT JUMPDEST POP PUSH2 0x726 PUSH1 0x4 DUP1 CALLDATASIZE SUB DUP2 ADD SWAP1 PUSH2 0x721 SWAP2 SWAP1 PUSH2 0x32C2 JUMP JUMPDEST PUSH2 0x270D JUMP JUMPDEST PUSH1 0x40 MLOAD PUSH2 0x733 SWAP2 SWAP1 PUSH2 0x3B7A JUMP JUMPDEST PUSH1 0x40 MLOAD DUP1 SWAP2 SUB SWAP1 RETURN JUMPDEST CALLVALUE DUP1 ISZERO PUSH2 0x748 JUMPI PUSH1 0x0 DUP1 REVERT JUMPDEST POP PUSH2 0x763 PUSH1 0x4 DUP1 CALLDATASIZE SUB DUP2 ADD SWAP1 PUSH2 0x75E SWAP2 SWAP1 PUSH2 0x344C JUMP JUMPDEST PUSH2 0x2725 JUMP JUMPDEST STOP JUMPDEST CALLVALUE DUP1 ISZERO PUSH2 0x771 JUMPI PUSH1 0x0 DUP1 REVERT JUMPDEST POP PUSH2 0x78C PUSH1 0x4 DUP1 CALLDATASIZE SUB DUP2 ADD SWAP1 PUSH2 0x787 SWAP2 SWAP1 PUSH2 0x34A6 JUMP JUMPDEST PUSH2 0x2A0E JUMP JUMPDEST PUSH1 0x40 MLOAD PUSH2 0x799 SWAP2 SWAP1 PUSH2 0x3B7A JUMP JUMPDEST PUSH1 0x40 MLOAD DUP1 SWAP2 SUB SWAP1 RETURN JUMPDEST PUSH1 0xA SLOAD DUP2 JUMP JUMPDEST PUSH2 0x7B0 PUSH2 0x2A3C JUMP JUMPDEST PUSH20 0xFFFFFFFFFFFFFFFFFFFFFFFFFFFFFFFFFFFFFFFF AND PUSH2 0x7CE PUSH2 0x1AAE JUMP JUMPDEST PUSH20 0xFFFFFFFFFFFFFFFFFFFFFFFFFFFFFFFFFFFFFFFF AND EQ PUSH2 0x824 JUMPI PUSH1 0x40 MLOAD PUSH32 0x8C379A000000000000000000000000000000000000000000000000000000000 DUP2 MSTORE PUSH1 0x4 ADD PUSH2 0x81B SWAP1 PUSH2 0x3A3A JUMP JUMPDEST PUSH1 0x40 MLOAD DUP1 SWAP2 SUB SWAP1 REVERT JUMPDEST DUP1 MLOAD DUP3 MLOAD EQ PUSH2 0x868 JUMPI PUSH1 0x40 MLOAD PUSH32 0x8C379A000000000000000000000000000000000000000000000000000000000 DUP2 MSTORE PUSH1 0x4 ADD PUSH2 0x85F SWAP1 PUSH2 0x3B5A JUMP JUMPDEST PUSH1 0x40 MLOAD DUP1 SWAP2 SUB SWAP1 REVERT JUMPDEST PUSH1 0x0 JUMPDEST DUP2 MLOAD DUP2 LT ISZERO PUSH2 0xB1D JUMPI PUSH1 0x3 PUSH1 0x0 DUP4 DUP4 DUP2 MLOAD DUP2 LT PUSH2 0x88B JUMPI PUSH2 0x88A PUSH2 0x3FAE JUMP JUMPDEST JUMPDEST PUSH1 0x20 MUL PUSH1 0x20 ADD ADD MLOAD PUSH20 0xFFFFFFFFFFFFFFFFFFFFFFFFFFFFFFFFFFFFFFFF AND PUSH20 0xFFFFFFFFFFFFFFFFFFFFFFFFFFFFFFFFFFFFFFFF AND DUP2 MSTORE PUSH1 0x20 ADD SWAP1 DUP2 MSTORE PUSH1 0x20 ADD PUSH1 0x0 KECCAK256 PUSH1 0x0 SWAP1 SLOAD SWAP1 PUSH2 0x100 EXP SWAP1 DIV PUSH1 0xFF AND DUP1 ISZERO PUSH2 0x908 JUMPI POP DUP3 DUP2 DUP2 MLOAD DUP2 LT PUSH2 0x8F5 JUMPI PUSH2 0x8F4 PUSH2 0x3FAE JUMP JUMPDEST JUMPDEST PUSH1 0x20 MUL PUSH1 0x20 ADD ADD MLOAD PUSH2 0x905 PUSH2 0xB48 JUMP JUMPDEST LT ISZERO JUMPDEST DUP1 ISZERO PUSH2 0x933 JUMPI POP PUSH2 0x932 DUP3 DUP3 DUP2 MLOAD DUP2 LT PUSH2 0x925 JUMPI PUSH2 0x924 PUSH2 0x3FAE JUMP JUMPDEST JUMPDEST PUSH1 0x20 MUL PUSH1 0x20 ADD ADD MLOAD PUSH2 0x1DB6 JUMP JUMPDEST JUMPDEST DUP1 ISZERO PUSH2 0x95B JUMPI POP PUSH1 0x9 SLOAD DUP4 DUP3 DUP2 MLOAD DUP2 LT PUSH2 0x950 JUMPI PUSH2 0x94F PUSH2 0x3FAE JUMP JUMPDEST JUMPDEST PUSH1 0x20 MUL PUSH1 0x20 ADD ADD MLOAD GT ISZERO JUMPDEST ISZERO PUSH2 0xB0A JUMPI PUSH1 0x0 PUSH1 0x3 PUSH1 0x0 DUP5 DUP5 DUP2 MLOAD DUP2 LT PUSH2 0x979 JUMPI PUSH2 0x978 PUSH2 0x3FAE JUMP JUMPDEST JUMPDEST PUSH1 0x20 MUL PUSH1 0x20 ADD ADD MLOAD PUSH20 0xFFFFFFFFFFFFFFFFFFFFFFFFFFFFFFFFFFFFFFFF AND PUSH20 0xFFFFFFFFFFFFFFFFFFFFFFFFFFFFFFFFFFFFFFFF AND DUP2 MSTORE PUSH1 0x20 ADD SWAP1 DUP2 MSTORE PUSH1 0x20 ADD PUSH1 0x0 KECCAK256 PUSH1 0x0 PUSH2 0x100 EXP DUP2 SLOAD DUP2 PUSH1 0xFF MUL NOT AND SWAP1 DUP4 ISZERO ISZERO MUL OR SWAP1 SSTORE POP TIMESTAMP PUSH1 0x4 PUSH1 0x0 DUP5 DUP5 DUP2 MLOAD DUP2 LT PUSH2 0x9EA JUMPI PUSH2 0x9E9 PUSH2 0x3FAE JUMP JUMPDEST JUMPDEST PUSH1 0x20 MUL PUSH1 0x20 ADD ADD MLOAD PUSH20 0xFFFFFFFFFFFFFFFFFFFFFFFFFFFFFFFFFFFFFFFF AND PUSH20 0xFFFFFFFFFFFFFFFFFFFFFFFFFFFFFFFFFFFFFFFF AND DUP2 MSTORE PUSH1 0x20 ADD SWAP1 DUP2 MSTORE PUSH1 0x20 ADD PUSH1 0x0 KECCAK256 DUP2 SWAP1 SSTORE POP PUSH2 0xA91 PUSH1 0x8 PUSH1 0x0 SWAP1 SLOAD SWAP1 PUSH2 0x100 EXP SWAP1 DIV PUSH20 0xFFFFFFFFFFFFFFFFFFFFFFFFFFFFFFFFFFFFFFFF AND DUP4 DUP4 DUP2 MLOAD DUP2 LT PUSH2 0xA69 JUMPI PUSH2 0xA68 PUSH2 0x3FAE JUMP JUMPDEST JUMPDEST PUSH1 0x20 MUL PUSH1 0x20 ADD ADD MLOAD DUP6 DUP5 DUP2 MLOAD DUP2 LT PUSH2 0xA84 JUMPI PUSH2 0xA83 PUSH2 0x3FAE JUMP JUMPDEST JUMPDEST PUSH1 0x20 MUL PUSH1 0x20 ADD ADD MLOAD PUSH2 0x2A44 JUMP JUMPDEST DUP3 DUP2 DUP2 MLOAD DUP2 LT PUSH2 0xAA4 JUMPI PUSH2 0xAA3 PUSH2 0x3FAE JUMP JUMPDEST JUMPDEST PUSH1 0x20 MUL PUSH1 0x20 ADD ADD MLOAD DUP3 DUP3 DUP2 MLOAD DUP2 LT PUSH2 0xABF JUMPI PUSH2 0xABE PUSH2 0x3FAE JUMP JUMPDEST JUMPDEST PUSH1 0x20 MUL PUSH1 0x20 ADD ADD MLOAD PUSH20 0xFFFFFFFFFFFFFFFFFFFFFFFFFFFFFFFFFFFFFFFF AND PUSH32 0xD9D5E983E9E8A6571FFBEAFA6A3C2FBD9F0F44E52607977B5E1E7934F7D91BFC PUSH1 0x40 MLOAD PUSH1 0x40 MLOAD DUP1 SWAP2 SUB SWAP1 LOG3 JUMPDEST DUP1 DUP1 PUSH2 0xB15 SWAP1 PUSH2 0x3F07 JUMP JUMPDEST SWAP2 POP POP PUSH2 0x86B JUMP JUMPDEST POP POP POP JUMP JUMPDEST PUSH1 0x7 PUSH1 0x0 SWAP1 SLOAD SWAP1 PUSH2 0x100 EXP SWAP1 DIV PUSH20 0xFFFFFFFFFFFFFFFFFFFFFFFFFFFFFFFFFFFFFFFF AND DUP2 JUMP JUMPDEST PUSH1 0x0 PUSH1 0x8 PUSH1 0x0 SWAP1 SLOAD SWAP1 PUSH2 0x100 EXP SWAP1 DIV PUSH20 0xFFFFFFFFFFFFFFFFFFFFFFFFFFFFFFFFFFFFFFFF AND PUSH20 0xFFFFFFFFFFFFFFFFFFFFFFFFFFFFFFFFFFFFFFFF AND PUSH4 0x70A08231 ADDRESS PUSH1 0x40 MLOAD DUP3 PUSH4 0xFFFFFFFF AND PUSH1 0xE0 SHL DUP2 MSTORE PUSH1 0x4 ADD PUSH2 0xBA5 SWAP2 SWAP1 PUSH2 0x3905 JUMP JUMPDEST PUSH1 0x20 PUSH1 0x40 MLOAD DUP1 DUP4 SUB DUP2 DUP7 DUP1 EXTCODESIZE ISZERO DUP1 ISZERO PUSH2 0xBBD JUMPI PUSH1 0x0 DUP1 REVERT JUMPDEST POP GAS STATICCALL ISZERO DUP1 ISZERO PUSH2 0xBD1 JUMPI RETURNDATASIZE PUSH1 0x0 DUP1 RETURNDATACOPY RETURNDATASIZE PUSH1 0x0 REVERT JUMPDEST POP POP POP POP PUSH1 0x40 MLOAD RETURNDATASIZE PUSH1 0x1F NOT PUSH1 0x1F DUP3 ADD AND DUP3 ADD DUP1 PUSH1 0x40 MSTORE POP DUP2 ADD SWAP1 PUSH2 0xBF5 SWAP2 SWAP1 PUSH2 0x351C JUMP JUMPDEST SWAP1 POP SWAP1 JUMP JUMPDEST CALLER PUSH20 0xFFFFFFFFFFFFFFFFFFFFFFFFFFFFFFFFFFFFFFFF AND PUSH2 0xC19 PUSH2 0x1AAE JUMP JUMPDEST PUSH20 0xFFFFFFFFFFFFFFFFFFFFFFFFFFFFFFFFFFFFFFFF AND EQ DUP1 PUSH2 0xC88 JUMPI POP CALLER PUSH20 0xFFFFFFFFFFFFFFFFFFFFFFFFFFFFFFFFFFFFFFFF AND PUSH1 0x2 PUSH1 0x0 SWAP1 SLOAD SWAP1 PUSH2 0x100 EXP SWAP1 DIV PUSH20 0xFFFFFFFFFFFFFFFFFFFFFFFFFFFFFFFFFFFFFFFF AND PUSH20 0xFFFFFFFFFFFFFFFFFFFFFFFFFFFFFFFFFFFFFFFF AND EQ JUMPDEST PUSH2 0xCC7 JUMPI PUSH1 0x40 MLOAD PUSH32 0x8C379A000000000000000000000000000000000000000000000000000000000 DUP2 MSTORE PUSH1 0x4 ADD PUSH2 0xCBE SWAP1 PUSH2 0x3ABA JUMP JUMPDEST PUSH1 0x40 MLOAD DUP1 SWAP2 SUB SWAP1 REVERT JUMPDEST PUSH1 0x40 MLOAD DUP1 PUSH1 0x40 ADD PUSH1 0x40 MSTORE DUP1 PUSH1 0xA DUP2 MSTORE PUSH1 0x20 ADD PUSH32 0x6D61696E7461696E657200000000000000000000000000000000000000000000 DUP2 MSTORE POP PUSH1 0x0 PUSH1 0x14 SWAP1 SLOAD SWAP1 PUSH2 0x100 EXP SWAP1 DIV PUSH1 0xFF AND ISZERO DUP1 PUSH2 0xD9A JUMPI POP PUSH1 0x0 PUSH1 0x1 DUP3 PUSH1 0x40 MLOAD PUSH2 0xD26 SWAP2 SWAP1 PUSH2 0x38EE JUMP JUMPDEST SWAP1 DUP2 MSTORE PUSH1 0x20 ADD PUSH1 0x40 MLOAD DUP1 SWAP2 SUB SWAP1 KECCAK256 SLOAD EQ ISZERO DUP1 ISZERO PUSH2 0xD61 JUMPI POP TIMESTAMP PUSH1 0x1 DUP3 PUSH1 0x40 MLOAD PUSH2 0xD4F SWAP2 SWAP1 PUSH2 0x38EE JUMP JUMPDEST SWAP1 DUP2 MSTORE PUSH1 0x20 ADD PUSH1 0x40 MLOAD DUP1 SWAP2 SUB SWAP1 KECCAK256 SLOAD GT ISZERO JUMPDEST DUP1 ISZERO PUSH2 0xD99 JUMPI POP TIMESTAMP PUSH3 0x15180 PUSH1 0x1 DUP4 PUSH1 0x40 MLOAD PUSH2 0xD7D SWAP2 SWAP1 PUSH2 0x38EE JUMP JUMPDEST SWAP1 DUP2 MSTORE PUSH1 0x20 ADD PUSH1 0x40 MLOAD DUP1 SWAP2 SUB SWAP1 KECCAK256 SLOAD PUSH2 0xD96 SWAP2 SWAP1 PUSH2 0x3D13 JUMP JUMPDEST LT ISZERO JUMPDEST JUMPDEST PUSH2 0xDD9 JUMPI PUSH1 0x40 MLOAD PUSH32 0x8C379A000000000000000000000000000000000000000000000000000000000 DUP2 MSTORE PUSH1 0x4 ADD PUSH2 0xDD0 SWAP1 PUSH2 0x3A9A JUMP JUMPDEST PUSH1 0x40 MLOAD DUP1 SWAP2 SUB SWAP1 REVERT JUMPDEST PUSH1 0x2 PUSH1 0x0 SWAP1 SLOAD SWAP1 PUSH2 0x100 EXP SWAP1 DIV PUSH20 0xFFFFFFFFFFFFFFFFFFFFFFFFFFFFFFFFFFFFFFFF AND PUSH20 0xFFFFFFFFFFFFFFFFFFFFFFFFFFFFFFFFFFFFFFFF AND DUP3 PUSH20 0xFFFFFFFFFFFFFFFFFFFFFFFFFFFFFFFFFFFFFFFF AND EQ ISZERO DUP1 ISZERO PUSH2 0xE64 JUMPI POP PUSH1 0x0 PUSH20 0xFFFFFFFFFFFFFFFFFFFFFFFFFFFFFFFFFFFFFFFF AND DUP3 PUSH20 0xFFFFFFFFFFFFFFFFFFFFFFFFFFFFFFFFFFFFFFFF AND EQ ISZERO JUMPDEST PUSH2 0xEA3 JUMPI PUSH1 0x40 MLOAD PUSH32 0x8C379A000000000000000000000000000000000000000000000000000000000 DUP2 MSTORE PUSH1 0x4 ADD PUSH2 0xE9A SWAP1 PUSH2 0x3A1A JUMP JUMPDEST PUSH1 0x40 MLOAD DUP1 SWAP2 SUB SWAP1 REVERT JUMPDEST PUSH1 0x0 PUSH1 0x2 PUSH1 0x0 SWAP1 SLOAD SWAP1 PUSH2 0x100 EXP SWAP1 DIV PUSH20 0xFFFFFFFFFFFFFFFFFFFFFFFFFFFFFFFFFFFFFFFF AND SWAP1 POP DUP3 PUSH1 0x2 PUSH1 0x0 PUSH2 0x100 EXP DUP2 SLOAD DUP2 PUSH20 0xFFFFFFFFFFFFFFFFFFFFFFFFFFFFFFFFFFFFFFFF MUL NOT AND SWAP1 DUP4 PUSH20 0xFFFFFFFFFFFFFFFFFFFFFFFFFFFFFFFFFFFFFFFF AND MUL OR SWAP1 SSTORE POP PUSH1 0x2 PUSH1 0x0 SWAP1 SLOAD SWAP1 PUSH2 0x100 EXP SWAP1 DIV PUSH20 0xFFFFFFFFFFFFFFFFFFFFFFFFFFFFFFFFFFFFFFFF AND PUSH20 0xFFFFFFFFFFFFFFFFFFFFFFFFFFFFFFFFFFFFFFFF AND DUP2 PUSH20 0xFFFFFFFFFFFFFFFFFFFFFFFFFFFFFFFFFFFFFFFF AND PUSH32 0x2F3FFAAAAD93928855C8700645D1A3643E6CCFDD500EFA9FDA048A88F557CF01 PUSH1 0x40 MLOAD PUSH1 0x40 MLOAD DUP1 SWAP2 SUB SWAP1 LOG3 POP PUSH2 0xF91 DUP2 PUSH2 0x1B01 JUMP JUMPDEST POP POP JUMP JUMPDEST PUSH2 0xF9D PUSH2 0x2A3C JUMP JUMPDEST PUSH20 0xFFFFFFFFFFFFFFFFFFFFFFFFFFFFFFFFFFFFFFFF AND PUSH2 0xFBB PUSH2 0x1AAE JUMP JUMPDEST PUSH20 0xFFFFFFFFFFFFFFFFFFFFFFFFFFFFFFFFFFFFFFFF AND EQ PUSH2 0x1011 JUMPI PUSH1 0x40 MLOAD PUSH32 0x8C379A000000000000000000000000000000000000000000000000000000000 DUP2 MSTORE PUSH1 0x4 ADD PUSH2 0x1008 SWAP1 PUSH2 0x3A3A JUMP JUMPDEST PUSH1 0x40 MLOAD DUP1 SWAP2 SUB SWAP1 REVERT JUMPDEST DUP1 MLOAD DUP3 MLOAD EQ PUSH2 0x1055 JUMPI PUSH1 0x40 MLOAD PUSH32 0x8C379A000000000000000000000000000000000000000000000000000000000 DUP2 MSTORE PUSH1 0x4 ADD PUSH2 0x104C SWAP1 PUSH2 0x3B5A JUMP JUMPDEST PUSH1 0x40 MLOAD DUP1 SWAP2 SUB SWAP1 REVERT JUMPDEST PUSH1 0x0 JUMPDEST DUP2 MLOAD DUP2 LT ISZERO PUSH2 0x130A JUMPI PUSH1 0x3 PUSH1 0x0 DUP4 DUP4 DUP2 MLOAD DUP2 LT PUSH2 0x1078 JUMPI PUSH2 0x1077 PUSH2 0x3FAE JUMP JUMPDEST JUMPDEST PUSH1 0x20 MUL PUSH1 0x20 ADD ADD MLOAD PUSH20 0xFFFFFFFFFFFFFFFFFFFFFFFFFFFFFFFFFFFFFFFF AND PUSH20 0xFFFFFFFFFFFFFFFFFFFFFFFFFFFFFFFFFFFFFFFF AND DUP2 MSTORE PUSH1 0x20 ADD SWAP1 DUP2 MSTORE PUSH1 0x20 ADD PUSH1 0x0 KECCAK256 PUSH1 0x0 SWAP1 SLOAD SWAP1 PUSH2 0x100 EXP SWAP1 DIV PUSH1 0xFF AND DUP1 ISZERO PUSH2 0x10F5 JUMPI POP DUP3 DUP2 DUP2 MLOAD DUP2 LT PUSH2 0x10E2 JUMPI PUSH2 0x10E1 PUSH2 0x3FAE JUMP JUMPDEST JUMPDEST PUSH1 0x20 MUL PUSH1 0x20 ADD ADD MLOAD PUSH2 0x10F2 PUSH2 0xB48 JUMP JUMPDEST LT ISZERO JUMPDEST DUP1 ISZERO PUSH2 0x1120 JUMPI POP PUSH2 0x111F DUP3 DUP3 DUP2 MLOAD DUP2 LT PUSH2 0x1112 JUMPI PUSH2 0x1111 PUSH2 0x3FAE JUMP JUMPDEST JUMPDEST PUSH1 0x20 MUL PUSH1 0x20 ADD ADD MLOAD PUSH2 0x1DB6 JUMP JUMPDEST JUMPDEST DUP1 ISZERO PUSH2 0x1148 JUMPI POP PUSH1 0x9 SLOAD DUP4 DUP3 DUP2 MLOAD DUP2 LT PUSH2 0x113D JUMPI PUSH2 0x113C PUSH2 0x3FAE JUMP JUMPDEST JUMPDEST PUSH1 0x20 MUL PUSH1 0x20 ADD ADD MLOAD GT ISZERO JUMPDEST ISZERO PUSH2 0x12F7 JUMPI PUSH1 0x0 PUSH1 0x3 PUSH1 0x0 DUP5 DUP5 DUP2 MLOAD DUP2 LT PUSH2 0x1166 JUMPI PUSH2 0x1165 PUSH2 0x3FAE JUMP JUMPDEST JUMPDEST PUSH1 0x20 MUL PUSH1 0x20 ADD ADD MLOAD PUSH20 0xFFFFFFFFFFFFFFFFFFFFFFFFFFFFFFFFFFFFFFFF AND PUSH20 0xFFFFFFFFFFFFFFFFFFFFFFFFFFFFFFFFFFFFFFFF AND DUP2 MSTORE PUSH1 0x20 ADD SWAP1 DUP2 MSTORE PUSH1 0x20 ADD PUSH1 0x0 KECCAK256 PUSH1 0x0 PUSH2 0x100 EXP DUP2 SLOAD DUP2 PUSH1 0xFF MUL NOT AND SWAP1 DUP4 ISZERO ISZERO MUL OR SWAP1 SSTORE POP TIMESTAMP PUSH1 0x4 PUSH1 0x0 DUP5 DUP5 DUP2 MLOAD DUP2 LT PUSH2 0x11D7 JUMPI PUSH2 0x11D6 PUSH2 0x3FAE JUMP JUMPDEST JUMPDEST PUSH1 0x20 MUL PUSH1 0x20 ADD ADD MLOAD PUSH20 0xFFFFFFFFFFFFFFFFFFFFFFFFFFFFFFFFFFFFFFFF AND PUSH20 0xFFFFFFFFFFFFFFFFFFFFFFFFFFFFFFFFFFFFFFFF AND DUP2 MSTORE PUSH1 0x20 ADD SWAP1 DUP2 MSTORE PUSH1 0x20 ADD PUSH1 0x0 KECCAK256 DUP2 SWAP1 SSTORE POP PUSH2 0x127E PUSH1 0x8 PUSH1 0x0 SWAP1 SLOAD SWAP1 PUSH2 0x100 EXP SWAP1 DIV PUSH20 0xFFFFFFFFFFFFFFFFFFFFFFFFFFFFFFFFFFFFFFFF AND DUP4 DUP4 DUP2 MLOAD DUP2 LT PUSH2 0x1256 JUMPI PUSH2 0x1255 PUSH2 0x3FAE JUMP JUMPDEST JUMPDEST PUSH1 0x20 MUL PUSH1 0x20 ADD ADD MLOAD DUP6 DUP5 DUP2 MLOAD DUP2 LT PUSH2 0x1271 JUMPI PUSH2 0x1270 PUSH2 0x3FAE JUMP JUMPDEST JUMPDEST PUSH1 0x20 MUL PUSH1 0x20 ADD ADD MLOAD PUSH2 0x2A44 JUMP JUMPDEST DUP3 DUP2 DUP2 MLOAD DUP2 LT PUSH2 0x1291 JUMPI PUSH2 0x1290 PUSH2 0x3FAE JUMP JUMPDEST JUMPDEST PUSH1 0x20 MUL PUSH1 0x20 ADD ADD MLOAD DUP3 DUP3 DUP2 MLOAD DUP2 LT PUSH2 0x12AC JUMPI PUSH2 0x12AB PUSH2 0x3FAE JUMP JUMPDEST JUMPDEST PUSH1 0x20 MUL PUSH1 0x20 ADD ADD MLOAD PUSH20 0xFFFFFFFFFFFFFFFFFFFFFFFFFFFFFFFFFFFFFFFF AND PUSH32 0xD9D5E983E9E8A6571FFBEAFA6A3C2FBD9F0F44E52607977B5E1E7934F7D91BFC PUSH1 0x40 MLOAD PUSH1 0x40 MLOAD DUP1 SWAP2 SUB SWAP1 LOG3 JUMPDEST DUP1 DUP1 PUSH2 0x1302 SWAP1 PUSH2 0x3F07 JUMP JUMPDEST SWAP2 POP POP PUSH2 0x1058 JUMP JUMPDEST POP POP POP JUMP JUMPDEST PUSH2 0x1317 PUSH2 0x2A3C JUMP JUMPDEST PUSH20 0xFFFFFFFFFFFFFFFFFFFFFFFFFFFFFFFFFFFFFFFF AND PUSH2 0x1335 PUSH2 0x1AAE JUMP JUMPDEST PUSH20 0xFFFFFFFFFFFFFFFFFFFFFFFFFFFFFFFFFFFFFFFF AND EQ PUSH2 0x138B JUMPI PUSH1 0x40 MLOAD PUSH32 0x8C379A000000000000000000000000000000000000000000000000000000000 DUP2 MSTORE PUSH1 0x4 ADD PUSH2 0x1382 SWAP1 PUSH2 0x3A3A JUMP JUMPDEST PUSH1 0x40 MLOAD DUP1 SWAP2 SUB SWAP1 REVERT JUMPDEST PUSH2 0x1394 DUP2 PUSH2 0x18DC JUMP JUMPDEST PUSH2 0x139E DUP4 DUP4 PUSH2 0xF95 JUMP JUMPDEST POP POP POP JUMP JUMPDEST PUSH1 0x3 PUSH1 0x0 CALLER PUSH20 0xFFFFFFFFFFFFFFFFFFFFFFFFFFFFFFFFFFFFFFFF AND PUSH20 0xFFFFFFFFFFFFFFFFFFFFFFFFFFFFFFFFFFFFFFFF AND DUP2 MSTORE PUSH1 0x20 ADD SWAP1 DUP2 MSTORE PUSH1 0x20 ADD PUSH1 0x0 KECCAK256 PUSH1 0x0 SWAP1 SLOAD SWAP1 PUSH2 0x100 EXP SWAP1 DIV PUSH1 0xFF AND ISZERO PUSH2 0x1430 JUMPI PUSH1 0x40 MLOAD PUSH32 0x8C379A000000000000000000000000000000000000000000000000000000000 DUP2 MSTORE PUSH1 0x4 ADD PUSH2 0x1427 SWAP1 PUSH2 0x39DA JUMP JUMPDEST PUSH1 0x40 MLOAD DUP1 SWAP2 SUB SWAP1 REVERT JUMPDEST PUSH1 0x5 SLOAD CALLVALUE LT ISZERO PUSH2 0x1475 JUMPI PUSH1 0x40 MLOAD PUSH32 0x8C379A000000000000000000000000000000000000000000000000000000000 DUP2 MSTORE PUSH1 0x4 ADD PUSH2 0x146C SWAP1 PUSH2 0x3B1A JUMP JUMPDEST PUSH1 0x40 MLOAD DUP1 SWAP2 SUB SWAP1 REVERT JUMPDEST PUSH2 0x14A1 PUSH1 0x6 PUSH1 0x0 SWAP1 SLOAD SWAP1 PUSH2 0x100 EXP SWAP1 DIV PUSH20 0xFFFFFFFFFFFFFFFFFFFFFFFFFFFFFFFFFFFFFFFF AND CALLVALUE PUSH2 0x2B7A JUMP JUMPDEST PUSH1 0x1 PUSH1 0x3 PUSH1 0x0 CALLER PUSH20 0xFFFFFFFFFFFFFFFFFFFFFFFFFFFFFFFFFFFFFFFF AND PUSH20 0xFFFFFFFFFFFFFFFFFFFFFFFFFFFFFFFFFFFFFFFF AND DUP2 MSTORE PUSH1 0x20 ADD SWAP1 DUP2 MSTORE PUSH1 0x20 ADD PUSH1 0x0 KECCAK256 PUSH1 0x0 PUSH2 0x100 EXP DUP2 SLOAD DUP2 PUSH1 0xFF MUL NOT AND SWAP1 DUP4 ISZERO ISZERO MUL OR SWAP1 SSTORE POP CALLER PUSH20 0xFFFFFFFFFFFFFFFFFFFFFFFFFFFFFFFFFFFFFFFF AND PUSH32 0x98716C616972F4EF0085DEB59C20F6F6A840219C121AD1F3B5413097F3A10357 PUSH1 0x40 MLOAD PUSH1 0x40 MLOAD DUP1 SWAP2 SUB SWAP1 LOG2 JUMP JUMPDEST PUSH1 0x9 SLOAD DUP2 JUMP JUMPDEST PUSH2 0x154C PUSH2 0x2A3C JUMP JUMPDEST PUSH20 0xFFFFFFFFFFFFFFFFFFFFFFFFFFFFFFFFFFFFFFFF AND PUSH2 0x156A PUSH2 0x1AAE JUMP JUMPDEST PUSH20 0xFFFFFFFFFFFFFFFFFFFFFFFFFFFFFFFFFFFFFFFF AND EQ PUSH2 0x15C0 JUMPI PUSH1 0x40 MLOAD PUSH32 0x8C379A000000000000000000000000000000000000000000000000000000000 DUP2 MSTORE PUSH1 0x4 ADD PUSH2 0x15B7 SWAP1 PUSH2 0x3A3A JUMP JUMPDEST PUSH1 0x40 MLOAD DUP1 SWAP2 SUB SWAP1 REVERT JUMPDEST PUSH1 0x40 MLOAD DUP1 PUSH1 0x40 ADD PUSH1 0x40 MSTORE DUP1 PUSH1 0x12 DUP2 MSTORE PUSH1 0x20 ADD PUSH32 0x6368616E67654F7261636C6557616C6C65740000000000000000000000000000 DUP2 MSTORE POP PUSH1 0x0 PUSH1 0x14 SWAP1 SLOAD SWAP1 PUSH2 0x100 EXP SWAP1 DIV PUSH1 0xFF AND ISZERO DUP1 PUSH2 0x1693 JUMPI POP PUSH1 0x0 PUSH1 0x1 DUP3 PUSH1 0x40 MLOAD PUSH2 0x161F SWAP2 SWAP1 PUSH2 0x38EE JUMP JUMPDEST SWAP1 DUP2 MSTORE PUSH1 0x20 ADD PUSH1 0x40 MLOAD DUP1 SWAP2 SUB SWAP1 KECCAK256 SLOAD EQ ISZERO DUP1 ISZERO PUSH2 0x165A JUMPI POP TIMESTAMP PUSH1 0x1 DUP3 PUSH1 0x40 MLOAD PUSH2 0x1648 SWAP2 SWAP1 PUSH2 0x38EE JUMP JUMPDEST SWAP1 DUP2 MSTORE PUSH1 0x20 ADD PUSH1 0x40 MLOAD DUP1 SWAP2 SUB SWAP1 KECCAK256 SLOAD GT ISZERO JUMPDEST DUP1 ISZERO PUSH2 0x1692 JUMPI POP TIMESTAMP PUSH3 0x15180 PUSH1 0x1 DUP4 PUSH1 0x40 MLOAD PUSH2 0x1676 SWAP2 SWAP1 PUSH2 0x38EE JUMP JUMPDEST SWAP1 DUP2 MSTORE PUSH1 0x20 ADD PUSH1 0x40 MLOAD DUP1 SWAP2 SUB SWAP1 KECCAK256 SLOAD PUSH2 0x168F SWAP2 SWAP1 PUSH2 0x3D13 JUMP JUMPDEST LT ISZERO JUMPDEST JUMPDEST PUSH2 0x16D2 JUMPI PUSH1 0x40 MLOAD PUSH32 0x8C379A000000000000000000000000000000000000000000000000000000000 DUP2 MSTORE PUSH1 0x4 ADD PUSH2 0x16C9 SWAP1 PUSH2 0x3A9A JUMP JUMPDEST PUSH1 0x40 MLOAD DUP1 SWAP2 SUB SWAP1 REVERT JUMPDEST PUSH2 0x16DB DUP3 PUSH2 0x24FF JUMP JUMPDEST PUSH1 0x0 PUSH1 0x6 PUSH1 0x0 SWAP1 SLOAD SWAP1 PUSH2 0x100 EXP SWAP1 DIV PUSH20 0xFFFFFFFFFFFFFFFFFFFFFFFFFFFFFFFFFFFFFFFF AND SWAP1 POP DUP3 PUSH1 0x6 PUSH1 0x0 PUSH2 0x100 EXP DUP2 SLOAD DUP2 PUSH20 0xFFFFFFFFFFFFFFFFFFFFFFFFFFFFFFFFFFFFFFFF MUL NOT AND SWAP1 DUP4 PUSH20 0xFFFFFFFFFFFFFFFFFFFFFFFFFFFFFFFFFFFFFFFF AND MUL OR SWAP1 SSTORE POP PUSH1 0x6 PUSH1 0x0 SWAP1 SLOAD SWAP1 PUSH2 0x100 EXP SWAP1 DIV PUSH20 0xFFFFFFFFFFFFFFFFFFFFFFFFFFFFFFFFFFFFFFFF AND PUSH20 0xFFFFFFFFFFFFFFFFFFFFFFFFFFFFFFFFFFFFFFFF AND DUP2 PUSH20 0xFFFFFFFFFFFFFFFFFFFFFFFFFFFFFFFFFFFFFFFF AND PUSH32 0x3920ECD0F25E4E6CE57AAEC91E57DF499CB7E3E70D6C9604F866AE9265382CF3 PUSH1 0x40 MLOAD PUSH1 0x40 MLOAD DUP1 SWAP2 SUB SWAP1 LOG3 POP PUSH2 0x17C9 DUP2 PUSH2 0x1B01 JUMP JUMPDEST POP POP JUMP JUMPDEST PUSH1 0x0 SELFBALANCE SWAP1 POP SWAP1 JUMP JUMPDEST PUSH2 0x17DD PUSH2 0x2A3C JUMP JUMPDEST PUSH20 0xFFFFFFFFFFFFFFFFFFFFFFFFFFFFFFFFFFFFFFFF AND PUSH2 0x17FB PUSH2 0x1AAE JUMP JUMPDEST PUSH20 0xFFFFFFFFFFFFFFFFFFFFFFFFFFFFFFFFFFFFFFFF AND EQ PUSH2 0x1851 JUMPI PUSH1 0x40 MLOAD PUSH32 0x8C379A000000000000000000000000000000000000000000000000000000000 DUP2 MSTORE PUSH1 0x4 ADD PUSH2 0x1848 SWAP1 PUSH2 0x3A3A JUMP JUMPDEST PUSH1 0x40 MLOAD DUP1 SWAP2 SUB SWAP1 REVERT JUMPDEST PUSH2 0x185B PUSH1 0x0 PUSH2 0x2C7A JUMP JUMPDEST JUMP JUMPDEST PUSH1 0x3 PUSH1 0x20 MSTORE DUP1 PUSH1 0x0 MSTORE PUSH1 0x40 PUSH1 0x0 KECCAK256 PUSH1 0x0 SWAP2 POP SLOAD SWAP1 PUSH2 0x100 EXP SWAP1 DIV PUSH1 0xFF AND DUP2 JUMP JUMPDEST PUSH1 0x5 SLOAD DUP2 JUMP JUMPDEST PUSH1 0x0 TIMESTAMP PUSH1 0xA SLOAD PUSH1 0x4 PUSH1 0x0 DUP6 PUSH20 0xFFFFFFFFFFFFFFFFFFFFFFFFFFFFFFFFFFFFFFFF AND PUSH20 0xFFFFFFFFFFFFFFFFFFFFFFFFFFFFFFFFFFFFFFFF AND DUP2 MSTORE PUSH1 0x20 ADD SWAP1 DUP2 MSTORE PUSH1 0x20 ADD PUSH1 0x0 KECCAK256 SLOAD PUSH2 0x18D3 SWAP2 SWAP1 PUSH2 0x3D13 JUMP JUMPDEST GT ISZERO SWAP1 POP SWAP2 SWAP1 POP JUMP JUMPDEST PUSH2 0x18E4 PUSH2 0x2A3C JUMP JUMPDEST PUSH20 0xFFFFFFFFFFFFFFFFFFFFFFFFFFFFFFFFFFFFFFFF AND PUSH2 0x1902 PUSH2 0x1AAE JUMP JUMPDEST PUSH20 0xFFFFFFFFFFFFFFFFFFFFFFFFFFFFFFFFFFFFFFFF AND EQ PUSH2 0x1958 JUMPI PUSH1 0x40 MLOAD PUSH32 0x8C379A000000000000000000000000000000000000000000000000000000000 DUP2 MSTORE PUSH1 0x4 ADD PUSH2 0x194F SWAP1 PUSH2 0x3A3A JUMP JUMPDEST PUSH1 0x40 MLOAD DUP1 SWAP2 SUB SWAP1 REVERT JUMPDEST PUSH1 0x40 MLOAD DUP1 PUSH1 0x40 ADD PUSH1 0x40 MSTORE DUP1 PUSH1 0xD DUP2 MSTORE PUSH1 0x20 ADD PUSH32 0x61646A757374476173436F737400000000000000000000000000000000000000 DUP2 MSTORE POP PUSH1 0x0 PUSH1 0x14 SWAP1 SLOAD SWAP1 PUSH2 0x100 EXP SWAP1 DIV PUSH1 0xFF AND ISZERO DUP1 PUSH2 0x1A2B JUMPI POP PUSH1 0x0 PUSH1 0x1 DUP3 PUSH1 0x40 MLOAD PUSH2 0x19B7 SWAP2 SWAP1 PUSH2 0x38EE JUMP JUMPDEST SWAP1 DUP2 MSTORE PUSH1 0x20 ADD PUSH1 0x40 MLOAD DUP1 SWAP2 SUB SWAP1 KECCAK256 SLOAD EQ ISZERO DUP1 ISZERO PUSH2 0x19F2 JUMPI POP TIMESTAMP PUSH1 0x1 DUP3 PUSH1 0x40 MLOAD PUSH2 0x19E0 SWAP2 SWAP1 PUSH2 0x38EE JUMP JUMPDEST SWAP1 DUP2 MSTORE PUSH1 0x20 ADD PUSH1 0x40 MLOAD DUP1 SWAP2 SUB SWAP1 KECCAK256 SLOAD GT ISZERO JUMPDEST DUP1 ISZERO PUSH2 0x1A2A JUMPI POP TIMESTAMP PUSH3 0x15180 PUSH1 0x1 DUP4 PUSH1 0x40 MLOAD PUSH2 0x1A0E SWAP2 SWAP1 PUSH2 0x38EE JUMP JUMPDEST SWAP1 DUP2 MSTORE PUSH1 0x20 ADD PUSH1 0x40 MLOAD DUP1 SWAP2 SUB SWAP1 KECCAK256 SLOAD PUSH2 0x1A27 SWAP2 SWAP1 PUSH2 0x3D13 JUMP JUMPDEST LT ISZERO JUMPDEST JUMPDEST PUSH2 0x1A6A JUMPI PUSH1 0x40 MLOAD PUSH32 0x8C379A000000000000000000000000000000000000000000000000000000000 DUP2 MSTORE PUSH1 0x4 ADD PUSH2 0x1A61 SWAP1 PUSH2 0x3A9A JUMP JUMPDEST PUSH1 0x40 MLOAD DUP1 SWAP2 SUB SWAP1 REVERT JUMPDEST DUP2 PUSH1 0x5 SLOAD PUSH32 0xC3DC19678FD7390A5C1197DECFAEC52D8A1C63C49F0A51DB570F5FE5040C5F73 PUSH1 0x40 MLOAD PUSH1 0x40 MLOAD DUP1 SWAP2 SUB SWAP1 LOG3 DUP2 PUSH1 0x5 DUP2 SWAP1 SSTORE POP PUSH2 0x1AAA DUP2 PUSH2 0x1B01 JUMP JUMPDEST POP POP JUMP JUMPDEST PUSH1 0x0 DUP1 PUSH1 0x0 SWAP1 SLOAD SWAP1 PUSH2 0x100 EXP SWAP1 DIV PUSH20 0xFFFFFFFFFFFFFFFFFFFFFFFFFFFFFFFFFFFFFFFF AND SWAP1 POP SWAP1 JUMP JUMPDEST PUSH1 0x0 PUSH1 0x2 PUSH1 0x0 SWAP1 SLOAD SWAP1 PUSH2 0x100 EXP SWAP1 DIV PUSH20 0xFFFFFFFFFFFFFFFFFFFFFFFFFFFFFFFFFFFFFFFF AND SWAP1 POP SWAP1 JUMP JUMPDEST CALLER PUSH20 0xFFFFFFFFFFFFFFFFFFFFFFFFFFFFFFFFFFFFFFFF AND PUSH2 0x1B20 PUSH2 0x1AAE JUMP JUMPDEST PUSH20 0xFFFFFFFFFFFFFFFFFFFFFFFFFFFFFFFFFFFFFFFF AND EQ DUP1 PUSH2 0x1B8F JUMPI POP CALLER PUSH20 0xFFFFFFFFFFFFFFFFFFFFFFFFFFFFFFFFFFFFFFFF AND PUSH1 0x2 PUSH1 0x0 SWAP1 SLOAD SWAP1 PUSH2 0x100 EXP SWAP1 DIV PUSH20 0xFFFFFFFFFFFFFFFFFFFFFFFFFFFFFFFFFFFFFFFF AND PUSH20 0xFFFFFFFFFFFFFFFFFFFFFFFFFFFFFFFFFFFFFFFF AND EQ JUMPDEST PUSH2 0x1BCE JUMPI PUSH1 0x40 MLOAD PUSH32 0x8C379A000000000000000000000000000000000000000000000000000000000 DUP2 MSTORE PUSH1 0x4 ADD PUSH2 0x1BC5 SWAP1 PUSH2 0x3ABA JUMP JUMPDEST PUSH1 0x40 MLOAD DUP1 SWAP2 SUB SWAP1 REVERT JUMPDEST PUSH1 0x0 PUSH1 0x1 DUP3 PUSH1 0x40 MLOAD PUSH2 0x1BE0 SWAP2 SWAP1 PUSH2 0x38EE JUMP JUMPDEST SWAP1 DUP2 MSTORE PUSH1 0x20 ADD PUSH1 0x40 MLOAD DUP1 SWAP2 SUB SWAP1 KECCAK256 DUP2 SWAP1 SSTORE POP POP JUMP JUMPDEST PUSH1 0x6 PUSH1 0x0 SWAP1 SLOAD SWAP1 PUSH2 0x100 EXP SWAP1 DIV PUSH20 0xFFFFFFFFFFFFFFFFFFFFFFFFFFFFFFFFFFFFFFFF AND DUP2 JUMP JUMPDEST PUSH1 0x0 PUSH1 0x14 SWAP1 SLOAD SWAP1 PUSH2 0x100 EXP SWAP1 DIV PUSH1 0xFF AND DUP2 JUMP JUMPDEST CALLER PUSH20 0xFFFFFFFFFFFFFFFFFFFFFFFFFFFFFFFFFFFFFFFF AND PUSH2 0x1C4D PUSH2 0x1AAE JUMP JUMPDEST PUSH20 0xFFFFFFFFFFFFFFFFFFFFFFFFFFFFFFFFFFFFFFFF AND EQ DUP1 PUSH2 0x1CBC JUMPI POP CALLER PUSH20 0xFFFFFFFFFFFFFFFFFFFFFFFFFFFFFFFFFFFFFFFF AND PUSH1 0x2 PUSH1 0x0 SWAP1 SLOAD SWAP1 PUSH2 0x100 EXP SWAP1 DIV PUSH20 0xFFFFFFFFFFFFFFFFFFFFFFFFFFFFFFFFFFFFFFFF AND PUSH20 0xFFFFFFFFFFFFFFFFFFFFFFFFFFFFFFFFFFFFFFFF AND EQ JUMPDEST PUSH2 0x1CFB JUMPI PUSH1 0x40 MLOAD PUSH32 0x8C379A000000000000000000000000000000000000000000000000000000000 DUP2 MSTORE PUSH1 0x4 ADD PUSH2 0x1CF2 SWAP1 PUSH2 0x3ABA JUMP JUMPDEST PUSH1 0x40 MLOAD DUP1 SWAP2 SUB SWAP1 REVERT JUMPDEST PUSH3 0x15180 TIMESTAMP PUSH2 0x1D0A SWAP2 SWAP1 PUSH2 0x3D13 JUMP JUMPDEST PUSH1 0x1 DUP3 PUSH1 0x40 MLOAD PUSH2 0x1D1A SWAP2 SWAP1 PUSH2 0x38EE JUMP JUMPDEST SWAP1 DUP2 MSTORE PUSH1 0x20 ADD PUSH1 0x40 MLOAD DUP1 SWAP2 SUB SWAP1 KECCAK256 DUP2 SWAP1 SSTORE POP PUSH1 0x1 DUP2 PUSH1 0x40 MLOAD PUSH2 0x1D3C SWAP2 SWAP1 PUSH2 0x38EE JUMP JUMPDEST SWAP1 DUP2 MSTORE PUSH1 0x20 ADD PUSH1 0x40 MLOAD DUP1 SWAP2 SUB SWAP1 KECCAK256 SLOAD DUP2 PUSH1 0x40 MLOAD PUSH2 0x1D59 SWAP2 SWAP1 PUSH2 0x38EE JUMP JUMPDEST PUSH1 0x40 MLOAD DUP1 SWAP2 SUB SWAP1 KECCAK256 PUSH32 0xF77F9A799FE8B0BE1463ABD7459A18FC55DFD8A6A24DDD29B54FD098088089C8 PUSH1 0x40 MLOAD PUSH1 0x40 MLOAD DUP1 SWAP2 SUB SWAP1 LOG3 POP JUMP JUMPDEST PUSH1 0x8 PUSH1 0x0 SWAP1 SLOAD SWAP1 PUSH2 0x100 EXP SWAP1 DIV PUSH20 0xFFFFFFFFFFFFFFFFFFFFFFFFFFFFFFFFFFFFFFFF AND DUP2 JUMP JUMPDEST PUSH1 0x0 PUSH1 0x3 PUSH1 0x0 DUP4 PUSH20 0xFFFFFFFFFFFFFFFFFFFFFFFFFFFFFFFFFFFFFFFF AND PUSH20 0xFFFFFFFFFFFFFFFFFFFFFFFFFFFFFFFFFFFFFFFF AND DUP2 MSTORE PUSH1 0x20 ADD SWAP1 DUP2 MSTORE PUSH1 0x20 ADD PUSH1 0x0 KECCAK256 PUSH1 0x0 SWAP1 SLOAD SWAP1 PUSH2 0x100 EXP SWAP1 DIV PUSH1 0xFF AND DUP1 ISZERO PUSH2 0x1E16 JUMPI POP PUSH2 0x1E15 DUP3 PUSH2 0x1883 JUMP JUMPDEST JUMPDEST SWAP1 POP SWAP2 SWAP1 POP JUMP JUMPDEST PUSH2 0x1E25 PUSH2 0x2A3C JUMP JUMPDEST PUSH20 0xFFFFFFFFFFFFFFFFFFFFFFFFFFFFFFFFFFFFFFFF AND PUSH2 0x1E43 PUSH2 0x1AAE JUMP JUMPDEST PUSH20 0xFFFFFFFFFFFFFFFFFFFFFFFFFFFFFFFFFFFFFFFF AND EQ PUSH2 0x1E99 JUMPI PUSH1 0x40 MLOAD PUSH32 0x8C379A000000000000000000000000000000000000000000000000000000000 DUP2 MSTORE PUSH1 0x4 ADD PUSH2 0x1E90 SWAP1 PUSH2 0x3A3A JUMP JUMPDEST PUSH1 0x40 MLOAD DUP1 SWAP2 SUB SWAP1 REVERT JUMPDEST DUP1 PUSH1 0xB PUSH1 0x0 PUSH2 0x100 EXP DUP2 SLOAD DUP2 PUSH20 0xFFFFFFFFFFFFFFFFFFFFFFFFFFFFFFFFFFFFFFFF MUL NOT AND SWAP1 DUP4 PUSH20 0xFFFFFFFFFFFFFFFFFFFFFFFFFFFFFFFFFFFFFFFF AND MUL OR SWAP1 SSTORE POP POP JUMP JUMPDEST PUSH2 0x1EE5 PUSH2 0x2A3C JUMP JUMPDEST PUSH20 0xFFFFFFFFFFFFFFFFFFFFFFFFFFFFFFFFFFFFFFFF AND PUSH2 0x1F03 PUSH2 0x1AAE JUMP JUMPDEST PUSH20 0xFFFFFFFFFFFFFFFFFFFFFFFFFFFFFFFFFFFFFFFF AND EQ PUSH2 0x1F59 JUMPI PUSH1 0x40 MLOAD PUSH32 0x8C379A000000000000000000000000000000000000000000000000000000000 DUP2 MSTORE PUSH1 0x4 ADD PUSH2 0x1F50 SWAP1 PUSH2 0x3A3A JUMP JUMPDEST PUSH1 0x40 MLOAD DUP1 SWAP2 SUB SWAP1 REVERT JUMPDEST PUSH1 0x0 PUSH20 0xFFFFFFFFFFFFFFFFFFFFFFFFFFFFFFFFFFFFFFFF AND PUSH1 0xB PUSH1 0x0 SWAP1 SLOAD SWAP1 PUSH2 0x100 EXP SWAP1 DIV PUSH20 0xFFFFFFFFFFFFFFFFFFFFFFFFFFFFFFFFFFFFFFFF AND PUSH20 0xFFFFFFFFFFFFFFFFFFFFFFFFFFFFFFFFFFFFFFFF AND EQ ISZERO PUSH2 0x1FEB JUMPI PUSH1 0x40 MLOAD PUSH32 0x8C379A000000000000000000000000000000000000000000000000000000000 DUP2 MSTORE PUSH1 0x4 ADD PUSH2 0x1FE2 SWAP1 PUSH2 0x3A5A JUMP JUMPDEST PUSH1 0x40 MLOAD DUP1 SWAP2 SUB SWAP1 REVERT JUMPDEST PUSH2 0x1FF3 PUSH2 0xB48 JUMP JUMPDEST DUP3 GT ISZERO PUSH2 0x2035 JUMPI PUSH1 0x40 MLOAD PUSH32 0x8C379A000000000000000000000000000000000000000000000000000000000 DUP2 MSTORE PUSH1 0x4 ADD PUSH2 0x202C SWAP1 PUSH2 0x3ADA JUMP JUMPDEST PUSH1 0x40 MLOAD DUP1 SWAP2 SUB SWAP1 REVERT JUMPDEST PUSH1 0x9 SLOAD DUP3 GT ISZERO PUSH2 0x207A JUMPI PUSH1 0x40 MLOAD PUSH32 0x8C379A000000000000000000000000000000000000000000000000000000000 DUP2 MSTORE PUSH1 0x4 ADD PUSH2 0x2071 SWAP1 PUSH2 0x39FA JUMP JUMPDEST PUSH1 0x40 MLOAD DUP1 SWAP2 SUB SWAP1 REVERT JUMPDEST PUSH2 0x2083 DUP2 PUSH2 0x1883 JUMP JUMPDEST PUSH2 0x20C2 JUMPI PUSH1 0x40 MLOAD PUSH32 0x8C379A000000000000000000000000000000000000000000000000000000000 DUP2 MSTORE PUSH1 0x4 ADD PUSH2 0x20B9 SWAP1 PUSH2 0x3A7A JUMP JUMPDEST PUSH1 0x40 MLOAD DUP1 SWAP2 SUB SWAP1 REVERT JUMPDEST TIMESTAMP PUSH1 0x4 PUSH1 0x0 DUP4 PUSH20 0xFFFFFFFFFFFFFFFFFFFFFFFFFFFFFFFFFFFFFFFF AND PUSH20 0xFFFFFFFFFFFFFFFFFFFFFFFFFFFFFFFFFFFFFFFF AND DUP2 MSTORE PUSH1 0x20 ADD SWAP1 DUP2 MSTORE PUSH1 0x20 ADD PUSH1 0x0 KECCAK256 DUP2 SWAP1 SSTORE POP PUSH2 0x210F DUP3 PUSH2 0x2D3E JUMP JUMPDEST PUSH1 0x0 PUSH2 0x2126 PUSH1 0x5 SLOAD SELFBALANCE PUSH2 0x3057 SWAP1 SWAP2 SWAP1 PUSH4 0xFFFFFFFF AND JUMP JUMPDEST SWAP1 POP PUSH2 0x2156 PUSH1 0x6 PUSH1 0x0 SWAP1 SLOAD SWAP1 PUSH2 0x100 EXP SWAP1 DIV PUSH20 0xFFFFFFFFFFFFFFFFFFFFFFFFFFFFFFFFFFFFFFFF AND PUSH1 0x5 SLOAD PUSH2 0x2B7A JUMP JUMPDEST PUSH1 0x0 PUSH2 0x216C PUSH1 0xA DUP4 PUSH2 0x306D SWAP1 SWAP2 SWAP1 PUSH4 0xFFFFFFFF AND JUMP JUMPDEST SWAP1 POP PUSH2 0x2181 DUP2 DUP4 PUSH2 0x3057 SWAP1 SWAP2 SWAP1 PUSH4 0xFFFFFFFF AND JUMP JUMPDEST SWAP2 POP PUSH2 0x21AF PUSH1 0x7 PUSH1 0x0 SWAP1 SLOAD SWAP1 PUSH2 0x100 EXP SWAP1 DIV PUSH20 0xFFFFFFFFFFFFFFFFFFFFFFFFFFFFFFFFFFFFFFFF AND DUP3 PUSH2 0x2B7A JUMP JUMPDEST PUSH2 0x21B9 DUP4 DUP4 PUSH2 0x2B7A JUMP JUMPDEST DUP1 DUP3 DUP5 PUSH20 0xFFFFFFFFFFFFFFFFFFFFFFFFFFFFFFFFFFFFFFFF AND PUSH32 0x75B2EAC24930BF6A8227DBE172D34480E56BE5C6994435067628424190D53431 PUSH1 0x40 MLOAD PUSH1 0x40 MLOAD DUP1 SWAP2 SUB SWAP1 LOG4 POP POP POP POP JUMP JUMPDEST PUSH2 0x220C PUSH2 0x2A3C JUMP JUMPDEST PUSH20 0xFFFFFFFFFFFFFFFFFFFFFFFFFFFFFFFFFFFFFFFF AND PUSH2 0x222A PUSH2 0x1AAE JUMP JUMPDEST PUSH20 0xFFFFFFFFFFFFFFFFFFFFFFFFFFFFFFFFFFFFFFFF AND EQ PUSH2 0x2280 JUMPI PUSH1 0x40 MLOAD PUSH32 0x8C379A000000000000000000000000000000000000000000000000000000000 DUP2 MSTORE PUSH1 0x4 ADD PUSH2 0x2277 SWAP1 PUSH2 0x3A3A JUMP JUMPDEST PUSH1 0x40 MLOAD DUP1 SWAP2 SUB SWAP1 REVERT JUMPDEST PUSH2 0x22BB PUSH1 0x8 PUSH1 0x0 SWAP1 SLOAD SWAP1 PUSH2 0x100 EXP SWAP1 DIV PUSH20 0xFFFFFFFFFFFFFFFFFFFFFFFFFFFFFFFFFFFFFFFF AND PUSH2 0x22AE PUSH2 0x1AAE JUMP JUMPDEST PUSH2 0x22B6 PUSH2 0xB48 JUMP JUMPDEST PUSH2 0x2A44 JUMP JUMPDEST PUSH2 0x22C3 PUSH2 0x1AAE JUMP JUMPDEST PUSH20 0xFFFFFFFFFFFFFFFFFFFFFFFFFFFFFFFFFFFFFFFF AND PUSH32 0x5E7B34819CD91B239220BEC92FCFD3C10DA2214BA13E4E2B1F6C9CFDBD68A9A2 PUSH1 0x40 MLOAD PUSH1 0x40 MLOAD DUP1 SWAP2 SUB SWAP1 LOG2 JUMP JUMPDEST PUSH2 0x230F PUSH2 0x2A3C JUMP JUMPDEST PUSH20 0xFFFFFFFFFFFFFFFFFFFFFFFFFFFFFFFFFFFFFFFF AND PUSH2 0x232D PUSH2 0x1AAE JUMP JUMPDEST PUSH20 0xFFFFFFFFFFFFFFFFFFFFFFFFFFFFFFFFFFFFFFFF AND EQ PUSH2 0x2383 JUMPI PUSH1 0x40 MLOAD PUSH32 0x8C379A000000000000000000000000000000000000000000000000000000000 DUP2 MSTORE PUSH1 0x4 ADD PUSH2 0x237A SWAP1 PUSH2 0x3A3A JUMP JUMPDEST PUSH1 0x40 MLOAD DUP1 SWAP2 SUB SWAP1 REVERT JUMPDEST PUSH1 0x40 MLOAD DUP1 PUSH1 0x40 ADD PUSH1 0x40 MSTORE DUP1 PUSH1 0x19 DUP2 MSTORE PUSH1 0x20 ADD PUSH32 0x61646A7573744D6178416D6F756E745065725265636569766500000000000000 DUP2 MSTORE POP PUSH1 0x0 PUSH1 0x14 SWAP1 SLOAD SWAP1 PUSH2 0x100 EXP SWAP1 DIV PUSH1 0xFF AND ISZERO DUP1 PUSH2 0x2456 JUMPI POP PUSH1 0x0 PUSH1 0x1 DUP3 PUSH1 0x40 MLOAD PUSH2 0x23E2 SWAP2 SWAP1 PUSH2 0x38EE JUMP JUMPDEST SWAP1 DUP2 MSTORE PUSH1 0x20 ADD PUSH1 0x40 MLOAD DUP1 SWAP2 SUB SWAP1 KECCAK256 SLOAD EQ ISZERO DUP1 ISZERO PUSH2 0x241D JUMPI POP TIMESTAMP PUSH1 0x1 DUP3 PUSH1 0x40 MLOAD PUSH2 0x240B SWAP2 SWAP1 PUSH2 0x38EE JUMP JUMPDEST SWAP1 DUP2 MSTORE PUSH1 0x20 ADD PUSH1 0x40 MLOAD DUP1 SWAP2 SUB SWAP1 KECCAK256 SLOAD GT ISZERO JUMPDEST DUP1 ISZERO PUSH2 0x2455 JUMPI POP TIMESTAMP PUSH3 0x15180 PUSH1 0x1 DUP4 PUSH1 0x40 MLOAD PUSH2 0x2439 SWAP2 SWAP1 PUSH2 0x38EE JUMP JUMPDEST SWAP1 DUP2 MSTORE PUSH1 0x20 ADD PUSH1 0x40 MLOAD DUP1 SWAP2 SUB SWAP1 KECCAK256 SLOAD PUSH2 0x2452 SWAP2 SWAP1 PUSH2 0x3D13 JUMP JUMPDEST LT ISZERO JUMPDEST JUMPDEST PUSH2 0x2495 JUMPI PUSH1 0x40 MLOAD PUSH32 0x8C379A000000000000000000000000000000000000000000000000000000000 DUP2 MSTORE PUSH1 0x4 ADD PUSH2 0x248C SWAP1 PUSH2 0x3A9A JUMP JUMPDEST PUSH1 0x40 MLOAD DUP1 SWAP2 SUB SWAP1 REVERT JUMPDEST DUP2 PUSH1 0x9 SLOAD PUSH32 0xD07363C93CA88CA1140B355020CB77B0320B19E19A34BB15AA4566D27C2FABBD PUSH1 0x40 MLOAD PUSH1 0x40 MLOAD DUP1 SWAP2 SUB SWAP1 LOG3 DUP2 PUSH1 0x9 DUP2 SWAP1 SSTORE POP PUSH2 0x24D5 DUP2 PUSH2 0x1B01 JUMP JUMPDEST POP POP JUMP JUMPDEST PUSH1 0xB PUSH1 0x0 SWAP1 SLOAD SWAP1 PUSH2 0x100 EXP SWAP1 DIV PUSH20 0xFFFFFFFFFFFFFFFFFFFFFFFFFFFFFFFFFFFFFFFF AND DUP2 JUMP JUMPDEST PUSH2 0x2507 PUSH2 0x2A3C JUMP JUMPDEST PUSH20 0xFFFFFFFFFFFFFFFFFFFFFFFFFFFFFFFFFFFFFFFF AND PUSH2 0x2525 PUSH2 0x1AAE JUMP JUMPDEST PUSH20 0xFFFFFFFFFFFFFFFFFFFFFFFFFFFFFFFFFFFFFFFF AND EQ PUSH2 0x257B JUMPI PUSH1 0x40 MLOAD PUSH32 0x8C379A000000000000000000000000000000000000000000000000000000000 DUP2 MSTORE PUSH1 0x4 ADD PUSH2 0x2572 SWAP1 PUSH2 0x3A3A JUMP JUMPDEST PUSH1 0x40 MLOAD DUP1 SWAP2 SUB SWAP1 REVERT JUMPDEST PUSH1 0x0 PUSH20 0xFFFFFFFFFFFFFFFFFFFFFFFFFFFFFFFFFFFFFFFF AND DUP2 PUSH20 0xFFFFFFFFFFFFFFFFFFFFFFFFFFFFFFFFFFFFFFFF AND EQ ISZERO PUSH2 0x25EB JUMPI PUSH1 0x40 MLOAD PUSH32 0x8C379A000000000000000000000000000000000000000000000000000000000 DUP2 MSTORE PUSH1 0x4 ADD PUSH2 0x25E2 SWAP1 PUSH2 0x399A JUMP JUMPDEST PUSH1 0x40 MLOAD DUP1 SWAP2 SUB SWAP1 REVERT JUMPDEST PUSH2 0x25F4 DUP2 PUSH2 0x2C7A JUMP JUMPDEST POP JUMP JUMPDEST CALLER PUSH20 0xFFFFFFFFFFFFFFFFFFFFFFFFFFFFFFFFFFFFFFFF AND PUSH2 0x2616 PUSH2 0x1AAE JUMP JUMPDEST PUSH20 0xFFFFFFFFFFFFFFFFFFFFFFFFFFFFFFFFFFFFFFFF AND EQ DUP1 PUSH2 0x2685 JUMPI POP CALLER PUSH20 0xFFFFFFFFFFFFFFFFFFFFFFFFFFFFFFFFFFFFFFFF AND PUSH1 0x2 PUSH1 0x0 SWAP1 SLOAD SWAP1 PUSH2 0x100 EXP SWAP1 DIV PUSH20 0xFFFFFFFFFFFFFFFFFFFFFFFFFFFFFFFFFFFFFFFF AND PUSH20 0xFFFFFFFFFFFFFFFFFFFFFFFFFFFFFFFFFFFFFFFF AND EQ JUMPDEST PUSH2 0x26C4 JUMPI PUSH1 0x40 MLOAD PUSH32 0x8C379A000000000000000000000000000000000000000000000000000000000 DUP2 MSTORE PUSH1 0x4 ADD PUSH2 0x26BB SWAP1 PUSH2 0x3ABA JUMP JUMPDEST PUSH1 0x40 MLOAD DUP1 SWAP2 SUB SWAP1 REVERT JUMPDEST PUSH1 0x1 PUSH1 0x0 PUSH1 0x14 PUSH2 0x100 EXP DUP2 SLOAD DUP2 PUSH1 0xFF MUL NOT AND SWAP1 DUP4 ISZERO ISZERO MUL OR SWAP1 SSTORE POP PUSH32 0x2C08B62BFAC9A1B19BB1DEC9323F1CE01696A77948B256ABF3603D30F25A864E PUSH1 0x40 MLOAD PUSH1 0x40 MLOAD DUP1 SWAP2 SUB SWAP1 LOG1 JUMP JUMPDEST PUSH1 0x4 PUSH1 0x20 MSTORE DUP1 PUSH1 0x0 MSTORE PUSH1 0x40 PUSH1 0x0 KECCAK256 PUSH1 0x0 SWAP2 POP SWAP1 POP SLOAD DUP2 JUMP JUMPDEST PUSH2 0x272D PUSH2 0x2A3C JUMP JUMPDEST PUSH20 0xFFFFFFFFFFFFFFFFFFFFFFFFFFFFFFFFFFFFFFFF AND PUSH2 0x274B PUSH2 0x1AAE JUMP JUMPDEST PUSH20 0xFFFFFFFFFFFFFFFFFFFFFFFFFFFFFFFFFFFFFFFF AND EQ PUSH2 0x27A1 JUMPI PUSH1 0x40 MLOAD PUSH32 0x8C379A000000000000000000000000000000000000000000000000000000000 DUP2 MSTORE PUSH1 0x4 ADD PUSH2 0x2798 SWAP1 PUSH2 0x3A3A JUMP JUMPDEST PUSH1 0x40 MLOAD DUP1 SWAP2 SUB SWAP1 REVERT JUMPDEST PUSH1 0x40 MLOAD DUP1 PUSH1 0x40 ADD PUSH1 0x40 MSTORE DUP1 PUSH1 0x11 DUP2 MSTORE PUSH1 0x20 ADD PUSH32 0x757064617465526577617264546F6B656E000000000000000000000000000000 DUP2 MSTORE POP PUSH1 0x0 PUSH1 0x14 SWAP1 SLOAD SWAP1 PUSH2 0x100 EXP SWAP1 DIV PUSH1 0xFF AND ISZERO DUP1 PUSH2 0x2874 JUMPI POP PUSH1 0x0 PUSH1 0x1 DUP3 PUSH1 0x40 MLOAD PUSH2 0x2800 SWAP2 SWAP1 PUSH2 0x38EE JUMP JUMPDEST SWAP1 DUP2 MSTORE PUSH1 0x20 ADD PUSH1 0x40 MLOAD DUP1 SWAP2 SUB SWAP1 KECCAK256 SLOAD EQ ISZERO DUP1 ISZERO PUSH2 0x283B JUMPI POP TIMESTAMP PUSH1 0x1 DUP3 PUSH1 0x40 MLOAD PUSH2 0x2829 SWAP2 SWAP1 PUSH2 0x38EE JUMP JUMPDEST SWAP1 DUP2 MSTORE PUSH1 0x20 ADD PUSH1 0x40 MLOAD DUP1 SWAP2 SUB SWAP1 KECCAK256 SLOAD GT ISZERO JUMPDEST DUP1 ISZERO PUSH2 0x2873 JUMPI POP TIMESTAMP PUSH3 0x15180 PUSH1 0x1 DUP4 PUSH1 0x40 MLOAD PUSH2 0x2857 SWAP2 SWAP1 PUSH2 0x38EE JUMP JUMPDEST SWAP1 DUP2 MSTORE PUSH1 0x20 ADD PUSH1 0x40 MLOAD DUP1 SWAP2 SUB SWAP1 KECCAK256 SLOAD PUSH2 0x2870 SWAP2 SWAP1 PUSH2 0x3D13 JUMP JUMPDEST LT ISZERO JUMPDEST JUMPDEST PUSH2 0x28B3 JUMPI PUSH1 0x40 MLOAD PUSH32 0x8C379A000000000000000000000000000000000000000000000000000000000 DUP2 MSTORE PUSH1 0x4 ADD PUSH2 0x28AA SWAP1 PUSH2 0x3A9A JUMP JUMPDEST PUSH1 0x40 MLOAD DUP1 SWAP2 SUB SWAP1 REVERT JUMPDEST PUSH1 0x8 PUSH1 0x0 SWAP1 SLOAD SWAP1 PUSH2 0x100 EXP SWAP1 DIV PUSH20 0xFFFFFFFFFFFFFFFFFFFFFFFFFFFFFFFFFFFFFFFF AND PUSH20 0xFFFFFFFFFFFFFFFFFFFFFFFFFFFFFFFFFFFFFFFF AND DUP3 PUSH20 0xFFFFFFFFFFFFFFFFFFFFFFFFFFFFFFFFFFFFFFFF AND EQ ISZERO PUSH2 0x2944 JUMPI PUSH1 0x40 MLOAD PUSH32 0x8C379A000000000000000000000000000000000000000000000000000000000 DUP2 MSTORE PUSH1 0x4 ADD PUSH2 0x293B SWAP1 PUSH2 0x3AFA JUMP JUMPDEST PUSH1 0x40 MLOAD DUP1 SWAP2 SUB SWAP1 REVERT JUMPDEST DUP2 PUSH20 0xFFFFFFFFFFFFFFFFFFFFFFFFFFFFFFFFFFFFFFFF AND PUSH1 0x8 PUSH1 0x0 SWAP1 SLOAD SWAP1 PUSH2 0x100 EXP SWAP1 DIV PUSH20 0xFFFFFFFFFFFFFFFFFFFFFFFFFFFFFFFFFFFFFFFF AND PUSH20 0xFFFFFFFFFFFFFFFFFFFFFFFFFFFFFFFFFFFFFFFF AND PUSH32 0xCB89265F21B9FC8710E9D9E42BBB37AF1EB207454DECA6D5E36787BE2367C1D6 PUSH1 0x40 MLOAD PUSH1 0x40 MLOAD DUP1 SWAP2 SUB SWAP1 LOG3 DUP2 PUSH1 0x8 PUSH1 0x0 PUSH2 0x100 EXP DUP2 SLOAD DUP2 PUSH20 0xFFFFFFFFFFFFFFFFFFFFFFFFFFFFFFFFFFFFFFFF MUL NOT AND SWAP1 DUP4 PUSH20 0xFFFFFFFFFFFFFFFFFFFFFFFFFFFFFFFFFFFFFFFF AND MUL OR SWAP1 SSTORE POP PUSH2 0x2A0A DUP2 PUSH2 0x1B01 JUMP JUMPDEST POP POP JUMP JUMPDEST PUSH1 0x1 DUP2 DUP1 MLOAD PUSH1 0x20 DUP2 ADD DUP3 ADD DUP1 MLOAD DUP5 DUP3 MSTORE PUSH1 0x20 DUP4 ADD PUSH1 0x20 DUP6 ADD KECCAK256 DUP2 DUP4 MSTORE DUP1 SWAP6 POP POP POP POP POP POP PUSH1 0x0 SWAP2 POP SWAP1 POP SLOAD DUP2 JUMP JUMPDEST PUSH1 0x0 CALLER SWAP1 POP SWAP1 JUMP JUMPDEST PUSH1 0x0 DUP1 DUP5 PUSH20 0xFFFFFFFFFFFFFFFFFFFFFFFFFFFFFFFFFFFFFFFF AND PUSH4 0xA9059CBB DUP6 DUP6 PUSH1 0x40 MLOAD PUSH1 0x24 ADD PUSH2 0x2A76 SWAP3 SWAP2 SWAP1 PUSH2 0x3920 JUMP JUMPDEST PUSH1 0x40 MLOAD PUSH1 0x20 DUP2 DUP4 SUB SUB DUP2 MSTORE SWAP1 PUSH1 0x40 MSTORE SWAP1 PUSH1 0xE0 SHL PUSH1 0x20 DUP3 ADD DUP1 MLOAD PUSH28 0xFFFFFFFFFFFFFFFFFFFFFFFFFFFFFFFFFFFFFFFFFFFFFFFFFFFFFFFF DUP4 DUP2 DUP4 AND OR DUP4 MSTORE POP POP POP POP PUSH1 0x40 MLOAD PUSH2 0x2AC4 SWAP2 SWAP1 PUSH2 0x38D7 JUMP JUMPDEST PUSH1 0x0 PUSH1 0x40 MLOAD DUP1 DUP4 SUB DUP2 PUSH1 0x0 DUP7 GAS CALL SWAP2 POP POP RETURNDATASIZE DUP1 PUSH1 0x0 DUP2 EQ PUSH2 0x2B01 JUMPI PUSH1 0x40 MLOAD SWAP2 POP PUSH1 0x1F NOT PUSH1 0x3F RETURNDATASIZE ADD AND DUP3 ADD PUSH1 0x40 MSTORE RETURNDATASIZE DUP3 MSTORE RETURNDATASIZE PUSH1 0x0 PUSH1 0x20 DUP5 ADD RETURNDATACOPY PUSH2 0x2B06 JUMP JUMPDEST PUSH1 0x60 SWAP2 POP JUMPDEST POP SWAP2 POP SWAP2 POP DUP2 DUP1 ISZERO PUSH2 0x2B34 JUMPI POP PUSH1 0x0 DUP2 MLOAD EQ DUP1 PUSH2 0x2B33 JUMPI POP DUP1 DUP1 PUSH1 0x20 ADD SWAP1 MLOAD DUP2 ADD SWAP1 PUSH2 0x2B32 SWAP2 SWAP1 PUSH2 0x341F JUMP JUMPDEST JUMPDEST JUMPDEST PUSH2 0x2B73 JUMPI PUSH1 0x40 MLOAD PUSH32 0x8C379A000000000000000000000000000000000000000000000000000000000 DUP2 MSTORE PUSH1 0x4 ADD PUSH2 0x2B6A SWAP1 PUSH2 0x3B3A JUMP JUMPDEST PUSH1 0x40 MLOAD DUP1 SWAP2 SUB SWAP1 REVERT JUMPDEST POP POP POP POP POP JUMP JUMPDEST PUSH1 0x0 DUP3 PUSH20 0xFFFFFFFFFFFFFFFFFFFFFFFFFFFFFFFFFFFFFFFF AND DUP3 PUSH1 0x0 PUSH8 0xFFFFFFFFFFFFFFFF DUP2 GT ISZERO PUSH2 0x2BAF JUMPI PUSH2 0x2BAE PUSH2 0x3FDD JUMP JUMPDEST JUMPDEST PUSH1 0x40 MLOAD SWAP1 DUP1 DUP3 MSTORE DUP1 PUSH1 0x1F ADD PUSH1 0x1F NOT AND PUSH1 0x20 ADD DUP3 ADD PUSH1 0x40 MSTORE DUP1 ISZERO PUSH2 0x2BE1 JUMPI DUP2 PUSH1 0x20 ADD PUSH1 0x1 DUP3 MUL DUP1 CALLDATASIZE DUP4 CALLDATACOPY DUP1 DUP3 ADD SWAP2 POP POP SWAP1 POP JUMPDEST POP PUSH1 0x40 MLOAD PUSH2 0x2BEF SWAP2 SWAP1 PUSH2 0x38D7 JUMP JUMPDEST PUSH1 0x0 PUSH1 0x40 MLOAD DUP1 DUP4 SUB DUP2 DUP6 DUP8 GAS CALL SWAP3 POP POP POP RETURNDATASIZE DUP1 PUSH1 0x0 DUP2 EQ PUSH2 0x2C2C JUMPI PUSH1 0x40 MLOAD SWAP2 POP PUSH1 0x1F NOT PUSH1 0x3F RETURNDATASIZE ADD AND DUP3 ADD PUSH1 0x40 MSTORE RETURNDATASIZE DUP3 MSTORE RETURNDATASIZE PUSH1 0x0 PUSH1 0x20 DUP5 ADD RETURNDATACOPY PUSH2 0x2C31 JUMP JUMPDEST PUSH1 0x60 SWAP2 POP JUMPDEST POP POP SWAP1 POP DUP1 PUSH2 0x2C75 JUMPI PUSH1 0x40 MLOAD PUSH32 0x8C379A000000000000000000000000000000000000000000000000000000000 DUP2 MSTORE PUSH1 0x4 ADD PUSH2 0x2C6C SWAP1 PUSH2 0x39BA JUMP JUMPDEST PUSH1 0x40 MLOAD DUP1 SWAP2 SUB SWAP1 REVERT JUMPDEST POP POP POP JUMP JUMPDEST PUSH1 0x0 DUP1 PUSH1 0x0 SWAP1 SLOAD SWAP1 PUSH2 0x100 EXP SWAP1 DIV PUSH20 0xFFFFFFFFFFFFFFFFFFFFFFFFFFFFFFFFFFFFFFFF AND SWAP1 POP DUP2 PUSH1 0x0 DUP1 PUSH2 0x100 EXP DUP2 SLOAD DUP2 PUSH20 0xFFFFFFFFFFFFFFFFFFFFFFFFFFFFFFFFFFFFFFFF MUL NOT AND SWAP1 DUP4 PUSH20 0xFFFFFFFFFFFFFFFFFFFFFFFFFFFFFFFFFFFFFFFF AND MUL OR SWAP1 SSTORE POP DUP2 PUSH20 0xFFFFFFFFFFFFFFFFFFFFFFFFFFFFFFFFFFFFFFFF AND DUP2 PUSH20 0xFFFFFFFFFFFFFFFFFFFFFFFFFFFFFFFFFFFFFFFF AND PUSH32 0x8BE0079C531659141344CD1FD0A4F28419497F9722A3DAAFE3B4186F6B6457E0 PUSH1 0x40 MLOAD PUSH1 0x40 MLOAD DUP1 SWAP2 SUB SWAP1 LOG3 POP POP JUMP JUMPDEST PUSH1 0x0 PUSH1 0x2 PUSH8 0xFFFFFFFFFFFFFFFF DUP2 GT ISZERO PUSH2 0x2D5B JUMPI PUSH2 0x2D5A PUSH2 0x3FDD JUMP JUMPDEST JUMPDEST PUSH1 0x40 MLOAD SWAP1 DUP1 DUP3 MSTORE DUP1 PUSH1 0x20 MUL PUSH1 0x20 ADD DUP3 ADD PUSH1 0x40 MSTORE DUP1 ISZERO PUSH2 0x2D89 JUMPI DUP2 PUSH1 0x20 ADD PUSH1 0x20 DUP3 MUL DUP1 CALLDATASIZE DUP4 CALLDATACOPY DUP1 DUP3 ADD SWAP2 POP POP SWAP1 POP JUMPDEST POP SWAP1 POP PUSH1 0x8 PUSH1 0x0 SWAP1 SLOAD SWAP1 PUSH2 0x100 EXP SWAP1 DIV PUSH20 0xFFFFFFFFFFFFFFFFFFFFFFFFFFFFFFFFFFFFFFFF AND DUP2 PUSH1 0x0 DUP2 MLOAD DUP2 LT PUSH2 0x2DC3 JUMPI PUSH2 0x2DC2 PUSH2 0x3FAE JUMP JUMPDEST JUMPDEST PUSH1 0x20 MUL PUSH1 0x20 ADD ADD SWAP1 PUSH20 0xFFFFFFFFFFFFFFFFFFFFFFFFFFFFFFFFFFFFFFFF AND SWAP1 DUP2 PUSH20 0xFFFFFFFFFFFFFFFFFFFFFFFFFFFFFFFFFFFFFFFF AND DUP2 MSTORE POP POP PUSH1 0xB PUSH1 0x0 SWAP1 SLOAD SWAP1 PUSH2 0x100 EXP SWAP1 DIV PUSH20 0xFFFFFFFFFFFFFFFFFFFFFFFFFFFFFFFFFFFFFFFF AND PUSH20 0xFFFFFFFFFFFFFFFFFFFFFFFFFFFFFFFFFFFFFFFF AND PUSH4 0xAD5C4648 PUSH1 0x40 MLOAD DUP2 PUSH4 0xFFFFFFFF AND PUSH1 0xE0 SHL DUP2 MSTORE PUSH1 0x4 ADD PUSH1 0x20 PUSH1 0x40 MLOAD DUP1 DUP4 SUB DUP2 DUP7 DUP1 EXTCODESIZE ISZERO DUP1 ISZERO PUSH2 0x2E65 JUMPI PUSH1 0x0 DUP1 REVERT JUMPDEST POP GAS STATICCALL ISZERO DUP1 ISZERO PUSH2 0x2E79 JUMPI RETURNDATASIZE PUSH1 0x0 DUP1 RETURNDATACOPY RETURNDATASIZE PUSH1 0x0 REVERT JUMPDEST POP POP POP POP PUSH1 0x40 MLOAD RETURNDATASIZE PUSH1 0x1F NOT PUSH1 0x1F DUP3 ADD AND DUP3 ADD DUP1 PUSH1 0x40 MSTORE POP DUP2 ADD SWAP1 PUSH2 0x2E9D SWAP2 SWAP1 PUSH2 0x32EF JUMP JUMPDEST DUP2 PUSH1 0x1 DUP2 MLOAD DUP2 LT PUSH2 0x2EB1 JUMPI PUSH2 0x2EB0 PUSH2 0x3FAE JUMP JUMPDEST JUMPDEST PUSH1 0x20 MUL PUSH1 0x20 ADD ADD SWAP1 PUSH20 0xFFFFFFFFFFFFFFFFFFFFFFFFFFFFFFFFFFFFFFFF AND SWAP1 DUP2 PUSH20 0xFFFFFFFFFFFFFFFFFFFFFFFFFFFFFFFFFFFFFFFF AND DUP2 MSTORE POP POP PUSH1 0x8 PUSH1 0x0 SWAP1 SLOAD SWAP1 PUSH2 0x100 EXP SWAP1 DIV PUSH20 0xFFFFFFFFFFFFFFFFFFFFFFFFFFFFFFFFFFFFFFFF AND PUSH20 0xFFFFFFFFFFFFFFFFFFFFFFFFFFFFFFFFFFFFFFFF AND PUSH4 0x95EA7B3 PUSH1 0xB PUSH1 0x0 SWAP1 SLOAD SWAP1 PUSH2 0x100 EXP SWAP1 DIV PUSH20 0xFFFFFFFFFFFFFFFFFFFFFFFFFFFFFFFFFFFFFFFF AND DUP5 PUSH1 0x40 MLOAD DUP4 PUSH4 0xFFFFFFFF AND PUSH1 0xE0 SHL DUP2 MSTORE PUSH1 0x4 ADD PUSH2 0x2F6A SWAP3 SWAP2 SWAP1 PUSH2 0x3920 JUMP JUMPDEST PUSH1 0x20 PUSH1 0x40 MLOAD DUP1 DUP4 SUB DUP2 PUSH1 0x0 DUP8 DUP1 EXTCODESIZE ISZERO DUP1 ISZERO PUSH2 0x2F84 JUMPI PUSH1 0x0 DUP1 REVERT JUMPDEST POP GAS CALL ISZERO DUP1 ISZERO PUSH2 0x2F98 JUMPI RETURNDATASIZE PUSH1 0x0 DUP1 RETURNDATACOPY RETURNDATASIZE PUSH1 0x0 REVERT JUMPDEST POP POP POP POP PUSH1 0x40 MLOAD RETURNDATASIZE PUSH1 0x1F NOT PUSH1 0x1F DUP3 ADD AND DUP3 ADD DUP1 PUSH1 0x40 MSTORE POP DUP2 ADD SWAP1 PUSH2 0x2FBC SWAP2 SWAP1 PUSH2 0x341F JUMP JUMPDEST POP PUSH1 0xB PUSH1 0x0 SWAP1 SLOAD SWAP1 PUSH2 0x100 EXP SWAP1 DIV PUSH20 0xFFFFFFFFFFFFFFFFFFFFFFFFFFFFFFFFFFFFFFFF AND PUSH20 0xFFFFFFFFFFFFFFFFFFFFFFFFFFFFFFFFFFFFFFFF AND PUSH4 0x791AC947 DUP4 PUSH1 0x0 DUP5 ADDRESS TIMESTAMP PUSH1 0x40 MLOAD DUP7 PUSH4 0xFFFFFFFF AND PUSH1 0xE0 SHL DUP2 MSTORE PUSH1 0x4 ADD PUSH2 0x3021 SWAP6 SWAP5 SWAP4 SWAP3 SWAP2 SWAP1 PUSH2 0x3B95 JUMP JUMPDEST PUSH1 0x0 PUSH1 0x40 MLOAD DUP1 DUP4 SUB DUP2 PUSH1 0x0 DUP8 DUP1 EXTCODESIZE ISZERO DUP1 ISZERO PUSH2 0x303B JUMPI PUSH1 0x0 DUP1 REVERT JUMPDEST POP GAS CALL ISZERO DUP1 ISZERO PUSH2 0x304F JUMPI RETURNDATASIZE PUSH1 0x0 DUP1 RETURNDATACOPY RETURNDATASIZE PUSH1 0x0 REVERT JUMPDEST POP POP POP POP POP POP JUMP JUMPDEST PUSH1 0x0 DUP2 DUP4 PUSH2 0x3065 SWAP2 SWAP1 PUSH2 0x3D9A JUMP JUMPDEST SWAP1 POP SWAP3 SWAP2 POP POP JUMP JUMPDEST PUSH1 0x0 DUP2 DUP4 PUSH2 0x307B SWAP2 SWAP1 PUSH2 0x3D69 JUMP JUMPDEST SWAP1 POP SWAP3 SWAP2 POP POP JUMP JUMPDEST PUSH1 0x0 PUSH2 0x3096 PUSH2 0x3091 DUP5 PUSH2 0x3C14 JUMP JUMPDEST PUSH2 0x3BEF JUMP JUMPDEST SWAP1 POP DUP1 DUP4 DUP3 MSTORE PUSH1 0x20 DUP3 ADD SWAP1 POP DUP3 DUP6 PUSH1 0x20 DUP7 MUL DUP3 ADD GT ISZERO PUSH2 0x30B9 JUMPI PUSH2 0x30B8 PUSH2 0x4011 JUMP JUMPDEST JUMPDEST PUSH1 0x0 JUMPDEST DUP6 DUP2 LT ISZERO PUSH2 0x30E9 JUMPI DUP2 PUSH2 0x30CF DUP9 DUP3 PUSH2 0x31A5 JUMP JUMPDEST DUP5 MSTORE PUSH1 0x20 DUP5 ADD SWAP4 POP PUSH1 0x20 DUP4 ADD SWAP3 POP POP PUSH1 0x1 DUP2 ADD SWAP1 POP PUSH2 0x30BC JUMP JUMPDEST POP POP POP SWAP4 SWAP3 POP POP POP JUMP JUMPDEST PUSH1 0x0 PUSH2 0x3106 PUSH2 0x3101 DUP5 PUSH2 0x3C40 JUMP JUMPDEST PUSH2 0x3BEF JUMP JUMPDEST SWAP1 POP DUP1 DUP4 DUP3 MSTORE PUSH1 0x20 DUP3 ADD SWAP1 POP DUP3 DUP6 PUSH1 0x20 DUP7 MUL DUP3 ADD GT ISZERO PUSH2 0x3129 JUMPI PUSH2 0x3128 PUSH2 0x4011 JUMP JUMPDEST JUMPDEST PUSH1 0x0 JUMPDEST DUP6 DUP2 LT ISZERO PUSH2 0x3159 JUMPI DUP2 PUSH2 0x313F DUP9 DUP3 PUSH2 0x3298 JUMP JUMPDEST DUP5 MSTORE PUSH1 0x20 DUP5 ADD SWAP4 POP PUSH1 0x20 DUP4 ADD SWAP3 POP POP PUSH1 0x1 DUP2 ADD SWAP1 POP PUSH2 0x312C JUMP JUMPDEST POP POP POP SWAP4 SWAP3 POP POP POP JUMP JUMPDEST PUSH1 0x0 PUSH2 0x3176 PUSH2 0x3171 DUP5 PUSH2 0x3C6C JUMP JUMPDEST PUSH2 0x3BEF JUMP JUMPDEST SWAP1 POP DUP3 DUP2 MSTORE PUSH1 0x20 DUP2 ADD DUP5 DUP5 DUP5 ADD GT ISZERO PUSH2 0x3192 JUMPI PUSH2 0x3191 PUSH2 0x4016 JUMP JUMPDEST JUMPDEST PUSH2 0x319D DUP5 DUP3 DUP6 PUSH2 0x3E94 JUMP JUMPDEST POP SWAP4 SWAP3 POP POP POP JUMP JUMPDEST PUSH1 0x0 DUP2 CALLDATALOAD SWAP1 POP PUSH2 0x31B4 DUP2 PUSH2 0x4549 JUMP JUMPDEST SWAP3 SWAP2 POP POP JUMP JUMPDEST PUSH1 0x0 DUP2 MLOAD SWAP1 POP PUSH2 0x31C9 DUP2 PUSH2 0x4549 JUMP JUMPDEST SWAP3 SWAP2 POP POP JUMP JUMPDEST PUSH1 0x0 DUP3 PUSH1 0x1F DUP4 ADD SLT PUSH2 0x31E4 JUMPI PUSH2 0x31E3 PUSH2 0x400C JUMP JUMPDEST JUMPDEST DUP2 CALLDATALOAD PUSH2 0x31F4 DUP5 DUP3 PUSH1 0x20 DUP7 ADD PUSH2 0x3083 JUMP JUMPDEST SWAP2 POP POP SWAP3 SWAP2 POP POP JUMP JUMPDEST PUSH1 0x0 DUP3 PUSH1 0x1F DUP4 ADD SLT PUSH2 0x3212 JUMPI PUSH2 0x3211 PUSH2 0x400C JUMP JUMPDEST JUMPDEST DUP2 CALLDATALOAD PUSH2 0x3222 DUP5 DUP3 PUSH1 0x20 DUP7 ADD PUSH2 0x30F3 JUMP JUMPDEST SWAP2 POP POP SWAP3 SWAP2 POP POP JUMP JUMPDEST PUSH1 0x0 DUP2 MLOAD SWAP1 POP PUSH2 0x323A DUP2 PUSH2 0x4560 JUMP JUMPDEST SWAP3 SWAP2 POP POP JUMP JUMPDEST PUSH1 0x0 DUP2 CALLDATALOAD SWAP1 POP PUSH2 0x324F DUP2 PUSH2 0x4577 JUMP JUMPDEST SWAP3 SWAP2 POP POP JUMP JUMPDEST PUSH1 0x0 DUP2 CALLDATALOAD SWAP1 POP PUSH2 0x3264 DUP2 PUSH2 0x458E JUMP JUMPDEST SWAP3 SWAP2 POP POP JUMP JUMPDEST PUSH1 0x0 DUP3 PUSH1 0x1F DUP4 ADD SLT PUSH2 0x327F JUMPI PUSH2 0x327E PUSH2 0x400C JUMP JUMPDEST JUMPDEST DUP2 CALLDATALOAD PUSH2 0x328F DUP5 DUP3 PUSH1 0x20 DUP7 ADD PUSH2 0x3163 JUMP JUMPDEST SWAP2 POP POP SWAP3 SWAP2 POP POP JUMP JUMPDEST PUSH1 0x0 DUP2 CALLDATALOAD SWAP1 POP PUSH2 0x32A7 DUP2 PUSH2 0x45A5 JUMP JUMPDEST SWAP3 SWAP2 POP POP JUMP JUMPDEST PUSH1 0x0 DUP2 MLOAD SWAP1 POP PUSH2 0x32BC DUP2 PUSH2 0x45A5 JUMP JUMPDEST SWAP3 SWAP2 POP POP JUMP JUMPDEST PUSH1 0x0 PUSH1 0x20 DUP3 DUP5 SUB SLT ISZERO PUSH2 0x32D8 JUMPI PUSH2 0x32D7 PUSH2 0x4020 JUMP JUMPDEST JUMPDEST PUSH1 0x0 PUSH2 0x32E6 DUP5 DUP3 DUP6 ADD PUSH2 0x31A5 JUMP JUMPDEST SWAP2 POP POP SWAP3 SWAP2 POP POP JUMP JUMPDEST PUSH1 0x0 PUSH1 0x20 DUP3 DUP5 SUB SLT ISZERO PUSH2 0x3305 JUMPI PUSH2 0x3304 PUSH2 0x4020 JUMP JUMPDEST JUMPDEST PUSH1 0x0 PUSH2 0x3313 DUP5 DUP3 DUP6 ADD PUSH2 0x31BA JUMP JUMPDEST SWAP2 POP POP SWAP3 SWAP2 POP POP JUMP JUMPDEST PUSH1 0x0 DUP1 PUSH1 0x40 DUP4 DUP6 SUB SLT ISZERO PUSH2 0x3333 JUMPI PUSH2 0x3332 PUSH2 0x4020 JUMP JUMPDEST JUMPDEST PUSH1 0x0 DUP4 ADD CALLDATALOAD PUSH8 0xFFFFFFFFFFFFFFFF DUP2 GT ISZERO PUSH2 0x3351 JUMPI PUSH2 0x3350 PUSH2 0x401B JUMP JUMPDEST JUMPDEST PUSH2 0x335D DUP6 DUP3 DUP7 ADD PUSH2 0x31FD JUMP JUMPDEST SWAP3 POP POP PUSH1 0x20 DUP4 ADD CALLDATALOAD PUSH8 0xFFFFFFFFFFFFFFFF DUP2 GT ISZERO PUSH2 0x337E JUMPI PUSH2 0x337D PUSH2 0x401B JUMP JUMPDEST JUMPDEST PUSH2 0x338A DUP6 DUP3 DUP7 ADD PUSH2 0x31CF JUMP JUMPDEST SWAP2 POP POP SWAP3 POP SWAP3 SWAP1 POP JUMP JUMPDEST PUSH1 0x0 DUP1 PUSH1 0x0 PUSH1 0x60 DUP5 DUP7 SUB SLT ISZERO PUSH2 0x33AD JUMPI PUSH2 0x33AC PUSH2 0x4020 JUMP JUMPDEST JUMPDEST PUSH1 0x0 DUP5 ADD CALLDATALOAD PUSH8 0xFFFFFFFFFFFFFFFF DUP2 GT ISZERO PUSH2 0x33CB JUMPI PUSH2 0x33CA PUSH2 0x401B JUMP JUMPDEST JUMPDEST PUSH2 0x33D7 DUP7 DUP3 DUP8 ADD PUSH2 0x31FD JUMP JUMPDEST SWAP4 POP POP PUSH1 0x20 DUP5 ADD CALLDATALOAD PUSH8 0xFFFFFFFFFFFFFFFF DUP2 GT ISZERO PUSH2 0x33F8 JUMPI PUSH2 0x33F7 PUSH2 0x401B JUMP JUMPDEST JUMPDEST PUSH2 0x3404 DUP7 DUP3 DUP8 ADD PUSH2 0x31CF JUMP JUMPDEST SWAP3 POP POP PUSH1 0x40 PUSH2 0x3415 DUP7 DUP3 DUP8 ADD PUSH2 0x3298 JUMP JUMPDEST SWAP2 POP POP SWAP3 POP SWAP3 POP SWAP3 JUMP JUMPDEST PUSH1 0x0 PUSH1 0x20 DUP3 DUP5 SUB SLT ISZERO PUSH2 0x3435 JUMPI PUSH2 0x3434 PUSH2 0x4020 JUMP JUMPDEST JUMPDEST PUSH1 0x0 PUSH2 0x3443 DUP5 DUP3 DUP6 ADD PUSH2 0x322B JUMP JUMPDEST SWAP2 POP POP SWAP3 SWAP2 POP POP JUMP JUMPDEST PUSH1 0x0 PUSH1 0x20 DUP3 DUP5 SUB SLT ISZERO PUSH2 0x3462 JUMPI PUSH2 0x3461 PUSH2 0x4020 JUMP JUMPDEST JUMPDEST PUSH1 0x0 PUSH2 0x3470 DUP5 DUP3 DUP6 ADD PUSH2 0x3240 JUMP JUMPDEST SWAP2 POP POP SWAP3 SWAP2 POP POP JUMP JUMPDEST PUSH1 0x0 PUSH1 0x20 DUP3 DUP5 SUB SLT ISZERO PUSH2 0x348F JUMPI PUSH2 0x348E PUSH2 0x4020 JUMP JUMPDEST JUMPDEST PUSH1 0x0 PUSH2 0x349D DUP5 DUP3 DUP6 ADD PUSH2 0x3255 JUMP JUMPDEST SWAP2 POP POP SWAP3 SWAP2 POP POP JUMP JUMPDEST PUSH1 0x0 PUSH1 0x20 DUP3 DUP5 SUB SLT ISZERO PUSH2 0x34BC JUMPI PUSH2 0x34BB PUSH2 0x4020 JUMP JUMPDEST JUMPDEST PUSH1 0x0 DUP3 ADD CALLDATALOAD PUSH8 0xFFFFFFFFFFFFFFFF DUP2 GT ISZERO PUSH2 0x34DA JUMPI PUSH2 0x34D9 PUSH2 0x401B JUMP JUMPDEST JUMPDEST PUSH2 0x34E6 DUP5 DUP3 DUP6 ADD PUSH2 0x326A JUMP JUMPDEST SWAP2 POP POP SWAP3 SWAP2 POP POP JUMP JUMPDEST PUSH1 0x0 PUSH1 0x20 DUP3 DUP5 SUB SLT ISZERO PUSH2 0x3505 JUMPI PUSH2 0x3504 PUSH2 0x4020 JUMP JUMPDEST JUMPDEST PUSH1 0x0 PUSH2 0x3513 DUP5 DUP3 DUP6 ADD PUSH2 0x3298 JUMP JUMPDEST SWAP2 POP POP SWAP3 SWAP2 POP POP JUMP JUMPDEST PUSH1 0x0 PUSH1 0x20 DUP3 DUP5 SUB SLT ISZERO PUSH2 0x3532 JUMPI PUSH2 0x3531 PUSH2 0x4020 JUMP JUMPDEST JUMPDEST PUSH1 0x0 PUSH2 0x3540 DUP5 DUP3 DUP6 ADD PUSH2 0x32AD JUMP JUMPDEST SWAP2 POP POP SWAP3 SWAP2 POP POP JUMP JUMPDEST PUSH1 0x0 DUP1 PUSH1 0x40 DUP4 DUP6 SUB SLT ISZERO PUSH2 0x3560 JUMPI PUSH2 0x355F PUSH2 0x4020 JUMP JUMPDEST JUMPDEST PUSH1 0x0 PUSH2 0x356E DUP6 DUP3 DUP7 ADD PUSH2 0x3298 JUMP JUMPDEST SWAP3 POP POP PUSH1 0x20 PUSH2 0x357F DUP6 DUP3 DUP7 ADD PUSH2 0x31A5 JUMP JUMPDEST SWAP2 POP POP SWAP3 POP SWAP3 SWAP1 POP JUMP JUMPDEST PUSH1 0x0 PUSH2 0x3595 DUP4 DUP4 PUSH2 0x35A1 JUMP JUMPDEST PUSH1 0x20 DUP4 ADD SWAP1 POP SWAP3 SWAP2 POP POP JUMP JUMPDEST PUSH2 0x35AA DUP2 PUSH2 0x3DCE JUMP JUMPDEST DUP3 MSTORE POP POP JUMP JUMPDEST PUSH2 0x35B9 DUP2 PUSH2 0x3DCE JUMP JUMPDEST DUP3 MSTORE POP POP JUMP JUMPDEST PUSH1 0x0 PUSH2 0x35CA DUP3 PUSH2 0x3CAD JUMP JUMPDEST PUSH2 0x35D4 DUP2 DUP6 PUSH2 0x3CDB JUMP JUMPDEST SWAP4 POP PUSH2 0x35DF DUP4 PUSH2 0x3C9D JUMP JUMPDEST DUP1 PUSH1 0x0 JUMPDEST DUP4 DUP2 LT ISZERO PUSH2 0x3610 JUMPI DUP2 MLOAD PUSH2 0x35F7 DUP9 DUP3 PUSH2 0x3589 JUMP JUMPDEST SWAP8 POP PUSH2 0x3602 DUP4 PUSH2 0x3CCE JUMP JUMPDEST SWAP3 POP POP PUSH1 0x1 DUP2 ADD SWAP1 POP PUSH2 0x35E3 JUMP JUMPDEST POP DUP6 SWAP4 POP POP POP POP SWAP3 SWAP2 POP POP JUMP JUMPDEST PUSH2 0x3626 DUP2 PUSH2 0x3DE0 JUMP JUMPDEST DUP3 MSTORE POP POP JUMP JUMPDEST PUSH1 0x0 PUSH2 0x3637 DUP3 PUSH2 0x3CB8 JUMP JUMPDEST PUSH2 0x3641 DUP2 DUP6 PUSH2 0x3CEC JUMP JUMPDEST SWAP4 POP PUSH2 0x3651 DUP2 DUP6 PUSH1 0x20 DUP7 ADD PUSH2 0x3EA3 JUMP JUMPDEST DUP1 DUP5 ADD SWAP2 POP POP SWAP3 SWAP2 POP POP JUMP JUMPDEST PUSH2 0x3666 DUP2 PUSH2 0x3E3A JUMP JUMPDEST DUP3 MSTORE POP POP JUMP JUMPDEST PUSH2 0x3675 DUP2 PUSH2 0x3E4C JUMP JUMPDEST DUP3 MSTORE POP POP JUMP JUMPDEST PUSH2 0x3684 DUP2 PUSH2 0x3E5E JUMP JUMPDEST DUP3 MSTORE POP POP JUMP JUMPDEST PUSH1 0x0 PUSH2 0x3695 DUP3 PUSH2 0x3CC3 JUMP JUMPDEST PUSH2 0x369F DUP2 DUP6 PUSH2 0x3D08 JUMP JUMPDEST SWAP4 POP PUSH2 0x36AF DUP2 DUP6 PUSH1 0x20 DUP7 ADD PUSH2 0x3EA3 JUMP JUMPDEST DUP1 DUP5 ADD SWAP2 POP POP SWAP3 SWAP2 POP POP JUMP JUMPDEST PUSH1 0x0 PUSH2 0x36C8 PUSH1 0x26 DUP4 PUSH2 0x3CF7 JUMP JUMPDEST SWAP2 POP PUSH2 0x36D3 DUP3 PUSH2 0x4036 JUMP JUMPDEST PUSH1 0x40 DUP3 ADD SWAP1 POP SWAP2 SWAP1 POP JUMP JUMPDEST PUSH1 0x0 PUSH2 0x36EB PUSH1 0x34 DUP4 PUSH2 0x3CF7 JUMP JUMPDEST SWAP2 POP PUSH2 0x36F6 DUP3 PUSH2 0x4085 JUMP JUMPDEST PUSH1 0x40 DUP3 ADD SWAP1 POP SWAP2 SWAP1 POP JUMP JUMPDEST PUSH1 0x0 PUSH2 0x370E PUSH1 0x2F DUP4 PUSH2 0x3CF7 JUMP JUMPDEST SWAP2 POP PUSH2 0x3719 DUP3 PUSH2 0x40D4 JUMP JUMPDEST PUSH1 0x40 DUP3 ADD SWAP1 POP SWAP2 SWAP1 POP JUMP JUMPDEST PUSH1 0x0 PUSH2 0x3731 PUSH1 0x3C DUP4 PUSH2 0x3CF7 JUMP JUMPDEST SWAP2 POP PUSH2 0x373C DUP3 PUSH2 0x4123 JUMP JUMPDEST PUSH1 0x40 DUP3 ADD SWAP1 POP SWAP2 SWAP1 POP JUMP JUMPDEST PUSH1 0x0 PUSH2 0x3754 PUSH1 0x50 DUP4 PUSH2 0x3CF7 JUMP JUMPDEST SWAP2 POP PUSH2 0x375F DUP3 PUSH2 0x4172 JUMP JUMPDEST PUSH1 0x60 DUP3 ADD SWAP1 POP SWAP2 SWAP1 POP JUMP JUMPDEST PUSH1 0x0 PUSH2 0x3777 PUSH1 0x20 DUP4 PUSH2 0x3CF7 JUMP JUMPDEST SWAP2 POP PUSH2 0x3782 DUP3 PUSH2 0x41E7 JUMP JUMPDEST PUSH1 0x20 DUP3 ADD SWAP1 POP SWAP2 SWAP1 POP JUMP JUMPDEST PUSH1 0x0 PUSH2 0x379A PUSH1 0x4A DUP4 PUSH2 0x3CF7 JUMP JUMPDEST SWAP2 POP PUSH2 0x37A5 DUP3 PUSH2 0x4210 JUMP JUMPDEST PUSH1 0x60 DUP3 ADD SWAP1 POP SWAP2 SWAP1 POP JUMP JUMPDEST PUSH1 0x0 PUSH2 0x37BD PUSH1 0x3B DUP4 PUSH2 0x3CF7 JUMP JUMPDEST SWAP2 POP PUSH2 0x37C8 DUP3 PUSH2 0x4285 JUMP JUMPDEST PUSH1 0x40 DUP3 ADD SWAP1 POP SWAP2 SWAP1 POP JUMP JUMPDEST PUSH1 0x0 PUSH2 0x37E0 PUSH1 0x12 DUP4 PUSH2 0x3CF7 JUMP JUMPDEST SWAP2 POP PUSH2 0x37EB DUP3 PUSH2 0x42D4 JUMP JUMPDEST PUSH1 0x20 DUP3 ADD SWAP1 POP SWAP2 SWAP1 POP JUMP JUMPDEST PUSH1 0x0 PUSH2 0x3803 PUSH1 0x35 DUP4 PUSH2 0x3CF7 JUMP JUMPDEST SWAP2 POP PUSH2 0x380E DUP3 PUSH2 0x42FD JUMP JUMPDEST PUSH1 0x40 DUP3 ADD SWAP1 POP SWAP2 SWAP1 POP JUMP JUMPDEST PUSH1 0x0 PUSH2 0x3826 PUSH1 0x47 DUP4 PUSH2 0x3CF7 JUMP JUMPDEST SWAP2 POP PUSH2 0x3831 DUP3 PUSH2 0x434C JUMP JUMPDEST PUSH1 0x60 DUP3 ADD SWAP1 POP SWAP2 SWAP1 POP JUMP JUMPDEST PUSH1 0x0 PUSH2 0x3849 PUSH1 0x3F DUP4 PUSH2 0x3CF7 JUMP JUMPDEST SWAP2 POP PUSH2 0x3854 DUP3 PUSH2 0x43C1 JUMP JUMPDEST PUSH1 0x40 DUP3 ADD SWAP1 POP SWAP2 SWAP1 POP JUMP JUMPDEST PUSH1 0x0 PUSH2 0x386C PUSH1 0x4F DUP4 PUSH2 0x3CF7 JUMP JUMPDEST SWAP2 POP PUSH2 0x3877 DUP3 PUSH2 0x4410 JUMP JUMPDEST PUSH1 0x60 DUP3 ADD SWAP1 POP SWAP2 SWAP1 POP JUMP JUMPDEST PUSH1 0x0 PUSH2 0x388F PUSH1 0x2D DUP4 PUSH2 0x3CF7 JUMP JUMPDEST SWAP2 POP PUSH2 0x389A DUP3 PUSH2 0x4485 JUMP JUMPDEST PUSH1 0x40 DUP3 ADD SWAP1 POP SWAP2 SWAP1 POP JUMP JUMPDEST PUSH1 0x0 PUSH2 0x38B2 PUSH1 0x4E DUP4 PUSH2 0x3CF7 JUMP JUMPDEST SWAP2 POP PUSH2 0x38BD DUP3 PUSH2 0x44D4 JUMP JUMPDEST PUSH1 0x60 DUP3 ADD SWAP1 POP SWAP2 SWAP1 POP JUMP JUMPDEST PUSH2 0x38D1 DUP2 PUSH2 0x3E30 JUMP JUMPDEST DUP3 MSTORE POP POP JUMP JUMPDEST PUSH1 0x0 PUSH2 0x38E3 DUP3 DUP5 PUSH2 0x362C JUMP JUMPDEST SWAP2 POP DUP2 SWAP1 POP SWAP3 SWAP2 POP POP JUMP JUMPDEST PUSH1 0x0 PUSH2 0x38FA DUP3 DUP5 PUSH2 0x368A JUMP JUMPDEST SWAP2 POP DUP2 SWAP1 POP SWAP3 SWAP2 POP POP JUMP JUMPDEST PUSH1 0x0 PUSH1 0x20 DUP3 ADD SWAP1 POP PUSH2 0x391A PUSH1 0x0 DUP4 ADD DUP5 PUSH2 0x35B0 JUMP JUMPDEST SWAP3 SWAP2 POP POP JUMP JUMPDEST PUSH1 0x0 PUSH1 0x40 DUP3 ADD SWAP1 POP PUSH2 0x3935 PUSH1 0x0 DUP4 ADD DUP6 PUSH2 0x35B0 JUMP JUMPDEST PUSH2 0x3942 PUSH1 0x20 DUP4 ADD DUP5 PUSH2 0x38C8 JUMP JUMPDEST SWAP4 SWAP3 POP POP POP JUMP JUMPDEST PUSH1 0x0 PUSH1 0x20 DUP3 ADD SWAP1 POP PUSH2 0x395E PUSH1 0x0 DUP4 ADD DUP5 PUSH2 0x361D JUMP JUMPDEST SWAP3 SWAP2 POP POP JUMP JUMPDEST PUSH1 0x0 PUSH1 0x20 DUP3 ADD SWAP1 POP PUSH2 0x3979 PUSH1 0x0 DUP4 ADD DUP5 PUSH2 0x365D JUMP JUMPDEST SWAP3 SWAP2 POP POP JUMP JUMPDEST PUSH1 0x0 PUSH1 0x20 DUP3 ADD SWAP1 POP PUSH2 0x3994 PUSH1 0x0 DUP4 ADD DUP5 PUSH2 0x366C JUMP JUMPDEST SWAP3 SWAP2 POP POP JUMP JUMPDEST PUSH1 0x0 PUSH1 0x20 DUP3 ADD SWAP1 POP DUP2 DUP2 SUB PUSH1 0x0 DUP4 ADD MSTORE PUSH2 0x39B3 DUP2 PUSH2 0x36BB JUMP JUMPDEST SWAP1 POP SWAP2 SWAP1 POP JUMP JUMPDEST PUSH1 0x0 PUSH1 0x20 DUP3 ADD SWAP1 POP DUP2 DUP2 SUB PUSH1 0x0 DUP4 ADD MSTORE PUSH2 0x39D3 DUP2 PUSH2 0x36DE JUMP JUMPDEST SWAP1 POP SWAP2 SWAP1 POP JUMP JUMPDEST PUSH1 0x0 PUSH1 0x20 DUP3 ADD SWAP1 POP DUP2 DUP2 SUB PUSH1 0x0 DUP4 ADD MSTORE PUSH2 0x39F3 DUP2 PUSH2 0x3701 JUMP JUMPDEST SWAP1 POP SWAP2 SWAP1 POP JUMP JUMPDEST PUSH1 0x0 PUSH1 0x20 DUP3 ADD SWAP1 POP DUP2 DUP2 SUB PUSH1 0x0 DUP4 ADD MSTORE PUSH2 0x3A13 DUP2 PUSH2 0x3724 JUMP JUMPDEST SWAP1 POP SWAP2 SWAP1 POP JUMP JUMPDEST PUSH1 0x0 PUSH1 0x20 DUP3 ADD SWAP1 POP DUP2 DUP2 SUB PUSH1 0x0 DUP4 ADD MSTORE PUSH2 0x3A33 DUP2 PUSH2 0x3747 JUMP JUMPDEST SWAP1 POP SWAP2 SWAP1 POP JUMP JUMPDEST PUSH1 0x0 PUSH1 0x20 DUP3 ADD SWAP1 POP DUP2 DUP2 SUB PUSH1 0x0 DUP4 ADD MSTORE PUSH2 0x3A53 DUP2 PUSH2 0x376A JUMP JUMPDEST SWAP1 POP SWAP2 SWAP1 POP JUMP JUMPDEST PUSH1 0x0 PUSH1 0x20 DUP3 ADD SWAP1 POP DUP2 DUP2 SUB PUSH1 0x0 DUP4 ADD MSTORE PUSH2 0x3A73 DUP2 PUSH2 0x378D JUMP JUMPDEST SWAP1 POP SWAP2 SWAP1 POP JUMP JUMPDEST PUSH1 0x0 PUSH1 0x20 DUP3 ADD SWAP1 POP DUP2 DUP2 SUB PUSH1 0x0 DUP4 ADD MSTORE PUSH2 0x3A93 DUP2 PUSH2 0x37B0 JUMP JUMPDEST SWAP1 POP SWAP2 SWAP1 POP JUMP JUMPDEST PUSH1 0x0 PUSH1 0x20 DUP3 ADD SWAP1 POP DUP2 DUP2 SUB PUSH1 0x0 DUP4 ADD MSTORE PUSH2 0x3AB3 DUP2 PUSH2 0x37D3 JUMP JUMPDEST SWAP1 POP SWAP2 SWAP1 POP JUMP JUMPDEST PUSH1 0x0 PUSH1 0x20 DUP3 ADD SWAP1 POP DUP2 DUP2 SUB PUSH1 0x0 DUP4 ADD MSTORE PUSH2 0x3AD3 DUP2 PUSH2 0x37F6 JUMP JUMPDEST SWAP1 POP SWAP2 SWAP1 POP JUMP JUMPDEST PUSH1 0x0 PUSH1 0x20 DUP3 ADD SWAP1 POP DUP2 DUP2 SUB PUSH1 0x0 DUP4 ADD MSTORE PUSH2 0x3AF3 DUP2 PUSH2 0x3819 JUMP JUMPDEST SWAP1 POP SWAP2 SWAP1 POP JUMP JUMPDEST PUSH1 0x0 PUSH1 0x20 DUP3 ADD SWAP1 POP DUP2 DUP2 SUB PUSH1 0x0 DUP4 ADD MSTORE PUSH2 0x3B13 DUP2 PUSH2 0x383C JUMP JUMPDEST SWAP1 POP SWAP2 SWAP1 POP JUMP JUMPDEST PUSH1 0x0 PUSH1 0x20 DUP3 ADD SWAP1 POP DUP2 DUP2 SUB PUSH1 0x0 DUP4 ADD MSTORE PUSH2 0x3B33 DUP2 PUSH2 0x385F JUMP JUMPDEST SWAP1 POP SWAP2 SWAP1 POP JUMP JUMPDEST PUSH1 0x0 PUSH1 0x20 DUP3 ADD SWAP1 POP DUP2 DUP2 SUB PUSH1 0x0 DUP4 ADD MSTORE PUSH2 0x3B53 DUP2 PUSH2 0x3882 JUMP JUMPDEST SWAP1 POP SWAP2 SWAP1 POP JUMP JUMPDEST PUSH1 0x0 PUSH1 0x20 DUP3 ADD SWAP1 POP DUP2 DUP2 SUB PUSH1 0x0 DUP4 ADD MSTORE PUSH2 0x3B73 DUP2 PUSH2 0x38A5 JUMP JUMPDEST SWAP1 POP SWAP2 SWAP1 POP JUMP JUMPDEST PUSH1 0x0 PUSH1 0x20 DUP3 ADD SWAP1 POP PUSH2 0x3B8F PUSH1 0x0 DUP4 ADD DUP5 PUSH2 0x38C8 JUMP JUMPDEST SWAP3 SWAP2 POP POP JUMP JUMPDEST PUSH1 0x0 PUSH1 0xA0 DUP3 ADD SWAP1 POP PUSH2 0x3BAA PUSH1 0x0 DUP4 ADD DUP9 PUSH2 0x38C8 JUMP JUMPDEST PUSH2 0x3BB7 PUSH1 0x20 DUP4 ADD DUP8 PUSH2 0x367B JUMP JUMPDEST DUP2 DUP2 SUB PUSH1 0x40 DUP4 ADD MSTORE PUSH2 0x3BC9 DUP2 DUP7 PUSH2 0x35BF JUMP JUMPDEST SWAP1 POP PUSH2 0x3BD8 PUSH1 0x60 DUP4 ADD DUP6 PUSH2 0x35B0 JUMP JUMPDEST PUSH2 0x3BE5 PUSH1 0x80 DUP4 ADD DUP5 PUSH2 0x38C8 JUMP JUMPDEST SWAP7 SWAP6 POP POP POP POP POP POP JUMP JUMPDEST PUSH1 0x0 PUSH2 0x3BF9 PUSH2 0x3C0A JUMP JUMPDEST SWAP1 POP PUSH2 0x3C05 DUP3 DUP3 PUSH2 0x3ED6 JUMP JUMPDEST SWAP2 SWAP1 POP JUMP JUMPDEST PUSH1 0x0 PUSH1 0x40 MLOAD SWAP1 POP SWAP1 JUMP JUMPDEST PUSH1 0x0 PUSH8 0xFFFFFFFFFFFFFFFF DUP3 GT ISZERO PUSH2 0x3C2F JUMPI PUSH2 0x3C2E PUSH2 0x3FDD JUMP JUMPDEST JUMPDEST PUSH1 0x20 DUP3 MUL SWAP1 POP PUSH1 0x20 DUP2 ADD SWAP1 POP SWAP2 SWAP1 POP JUMP JUMPDEST PUSH1 0x0 PUSH8 0xFFFFFFFFFFFFFFFF DUP3 GT ISZERO PUSH2 0x3C5B JUMPI PUSH2 0x3C5A PUSH2 0x3FDD JUMP JUMPDEST JUMPDEST PUSH1 0x20 DUP3 MUL SWAP1 POP PUSH1 0x20 DUP2 ADD SWAP1 POP SWAP2 SWAP1 POP JUMP JUMPDEST PUSH1 0x0 PUSH8 0xFFFFFFFFFFFFFFFF DUP3 GT ISZERO PUSH2 0x3C87 JUMPI PUSH2 0x3C86 PUSH2 0x3FDD JUMP JUMPDEST JUMPDEST PUSH2 0x3C90 DUP3 PUSH2 0x4025 JUMP JUMPDEST SWAP1 POP PUSH1 0x20 DUP2 ADD SWAP1 POP SWAP2 SWAP1 POP JUMP JUMPDEST PUSH1 0x0 DUP2 SWAP1 POP PUSH1 0x20 DUP3 ADD SWAP1 POP SWAP2 SWAP1 POP JUMP JUMPDEST PUSH1 0x0 DUP2 MLOAD SWAP1 POP SWAP2 SWAP1 POP JUMP JUMPDEST PUSH1 0x0 DUP2 MLOAD SWAP1 POP SWAP2 SWAP1 POP JUMP JUMPDEST PUSH1 0x0 DUP2 MLOAD SWAP1 POP SWAP2 SWAP1 POP JUMP JUMPDEST PUSH1 0x0 PUSH1 0x20 DUP3 ADD SWAP1 POP SWAP2 SWAP1 POP JUMP JUMPDEST PUSH1 0x0 DUP3 DUP3 MSTORE PUSH1 0x20 DUP3 ADD SWAP1 POP SWAP3 SWAP2 POP POP JUMP JUMPDEST PUSH1 0x0 DUP2 SWAP1 POP SWAP3 SWAP2 POP POP JUMP JUMPDEST PUSH1 0x0 DUP3 DUP3 MSTORE PUSH1 0x20 DUP3 ADD SWAP1 POP SWAP3 SWAP2 POP POP JUMP JUMPDEST PUSH1 0x0 DUP2 SWAP1 POP SWAP3 SWAP2 POP POP JUMP JUMPDEST PUSH1 0x0 PUSH2 0x3D1E DUP3 PUSH2 0x3E30 JUMP JUMPDEST SWAP2 POP PUSH2 0x3D29 DUP4 PUSH2 0x3E30 JUMP JUMPDEST SWAP3 POP DUP3 PUSH32 0xFFFFFFFFFFFFFFFFFFFFFFFFFFFFFFFFFFFFFFFFFFFFFFFFFFFFFFFFFFFFFFFF SUB DUP3 GT ISZERO PUSH2 0x3D5E JUMPI PUSH2 0x3D5D PUSH2 0x3F50 JUMP JUMPDEST JUMPDEST DUP3 DUP3 ADD SWAP1 POP SWAP3 SWAP2 POP POP JUMP JUMPDEST PUSH1 0x0 PUSH2 0x3D74 DUP3 PUSH2 0x3E30 JUMP JUMPDEST SWAP2 POP PUSH2 0x3D7F DUP4 PUSH2 0x3E30 JUMP JUMPDEST SWAP3 POP DUP3 PUSH2 0x3D8F JUMPI PUSH2 0x3D8E PUSH2 0x3F7F JUMP JUMPDEST JUMPDEST DUP3 DUP3 DIV SWAP1 POP SWAP3 SWAP2 POP POP JUMP JUMPDEST PUSH1 0x0 PUSH2 0x3DA5 DUP3 PUSH2 0x3E30 JUMP JUMPDEST SWAP2 POP PUSH2 0x3DB0 DUP4 PUSH2 0x3E30 JUMP JUMPDEST SWAP3 POP DUP3 DUP3 LT ISZERO PUSH2 0x3DC3 JUMPI PUSH2 0x3DC2 PUSH2 0x3F50 JUMP JUMPDEST JUMPDEST DUP3 DUP3 SUB SWAP1 POP SWAP3 SWAP2 POP POP JUMP JUMPDEST PUSH1 0x0 PUSH2 0x3DD9 DUP3 PUSH2 0x3E10 JUMP JUMPDEST SWAP1 POP SWAP2 SWAP1 POP JUMP JUMPDEST PUSH1 0x0 DUP2 ISZERO ISZERO SWAP1 POP SWAP2 SWAP1 POP JUMP JUMPDEST PUSH1 0x0 PUSH2 0x3DF7 DUP3 PUSH2 0x3DCE JUMP JUMPDEST SWAP1 POP SWAP2 SWAP1 POP JUMP JUMPDEST PUSH1 0x0 PUSH2 0x3E09 DUP3 PUSH2 0x3DCE JUMP JUMPDEST SWAP1 POP SWAP2 SWAP1 POP JUMP JUMPDEST PUSH1 0x0 PUSH20 0xFFFFFFFFFFFFFFFFFFFFFFFFFFFFFFFFFFFFFFFF DUP3 AND SWAP1 POP SWAP2 SWAP1 POP JUMP JUMPDEST PUSH1 0x0 DUP2 SWAP1 POP SWAP2 SWAP1 POP JUMP JUMPDEST PUSH1 0x0 PUSH2 0x3E45 DUP3 PUSH2 0x3E70 JUMP JUMPDEST SWAP1 POP SWAP2 SWAP1 POP JUMP JUMPDEST PUSH1 0x0 PUSH2 0x3E57 DUP3 PUSH2 0x3E70 JUMP JUMPDEST SWAP1 POP SWAP2 SWAP1 POP JUMP JUMPDEST PUSH1 0x0 PUSH2 0x3E69 DUP3 PUSH2 0x3E30 JUMP JUMPDEST SWAP1 POP SWAP2 SWAP1 POP JUMP JUMPDEST PUSH1 0x0 PUSH2 0x3E7B DUP3 PUSH2 0x3E82 JUMP JUMPDEST SWAP1 POP SWAP2 SWAP1 POP JUMP JUMPDEST PUSH1 0x0 PUSH2 0x3E8D DUP3 PUSH2 0x3E10 JUMP JUMPDEST SWAP1 POP SWAP2 SWAP1 POP JUMP JUMPDEST DUP3 DUP2 DUP4 CALLDATACOPY PUSH1 0x0 DUP4 DUP4 ADD MSTORE POP POP POP JUMP JUMPDEST PUSH1 0x0 JUMPDEST DUP4 DUP2 LT ISZERO PUSH2 0x3EC1 JUMPI DUP1 DUP3 ADD MLOAD DUP2 DUP5 ADD MSTORE PUSH1 0x20 DUP2 ADD SWAP1 POP PUSH2 0x3EA6 JUMP JUMPDEST DUP4 DUP2 GT ISZERO PUSH2 0x3ED0 JUMPI PUSH1 0x0 DUP5 DUP5 ADD MSTORE JUMPDEST POP POP POP POP JUMP JUMPDEST PUSH2 0x3EDF DUP3 PUSH2 0x4025 JUMP JUMPDEST DUP2 ADD DUP2 DUP2 LT PUSH8 0xFFFFFFFFFFFFFFFF DUP3 GT OR ISZERO PUSH2 0x3EFE JUMPI PUSH2 0x3EFD PUSH2 0x3FDD JUMP JUMPDEST JUMPDEST DUP1 PUSH1 0x40 MSTORE POP POP POP JUMP JUMPDEST PUSH1 0x0 PUSH2 0x3F12 DUP3 PUSH2 0x3E30 JUMP JUMPDEST SWAP2 POP PUSH32 0xFFFFFFFFFFFFFFFFFFFFFFFFFFFFFFFFFFFFFFFFFFFFFFFFFFFFFFFFFFFFFFFF DUP3 EQ ISZERO PUSH2 0x3F45 JUMPI PUSH2 0x3F44 PUSH2 0x3F50 JUMP JUMPDEST JUMPDEST PUSH1 0x1 DUP3 ADD SWAP1 POP SWAP2 SWAP1 POP JUMP JUMPDEST PUSH32 0x4E487B7100000000000000000000000000000000000000000000000000000000 PUSH1 0x0 MSTORE PUSH1 0x11 PUSH1 0x4 MSTORE PUSH1 0x24 PUSH1 0x0 REVERT JUMPDEST PUSH32 0x4E487B7100000000000000000000000000000000000000000000000000000000 PUSH1 0x0 MSTORE PUSH1 0x12 PUSH1 0x4 MSTORE PUSH1 0x24 PUSH1 0x0 REVERT JUMPDEST PUSH32 0x4E487B7100000000000000000000000000000000000000000000000000000000 PUSH1 0x0 MSTORE PUSH1 0x32 PUSH1 0x4 MSTORE PUSH1 0x24 PUSH1 0x0 REVERT JUMPDEST PUSH32 0x4E487B7100000000000000000000000000000000000000000000000000000000 PUSH1 0x0 MSTORE PUSH1 0x41 PUSH1 0x4 MSTORE PUSH1 0x24 PUSH1 0x0 REVERT JUMPDEST PUSH1 0x0 DUP1 REVERT JUMPDEST PUSH1 0x0 DUP1 REVERT JUMPDEST PUSH1 0x0 DUP1 REVERT JUMPDEST PUSH1 0x0 DUP1 REVERT JUMPDEST PUSH1 0x0 DUP1 REVERT JUMPDEST PUSH1 0x0 PUSH1 0x1F NOT PUSH1 0x1F DUP4 ADD AND SWAP1 POP SWAP2 SWAP1 POP JUMP JUMPDEST PUSH32 0x4F776E61626C653A206E6577206F776E657220697320746865207A65726F2061 PUSH1 0x0 DUP3 ADD MSTORE PUSH32 0x6464726573730000000000000000000000000000000000000000000000000000 PUSH1 0x20 DUP3 ADD MSTORE POP JUMP JUMPDEST PUSH32 0x5472616E7366657248656C7065723A3A736166655472616E736665724554483A PUSH1 0x0 DUP3 ADD MSTORE PUSH32 0x20455448207472616E73666572206661696C6564000000000000000000000000 PUSH1 0x20 DUP3 ADD MSTORE POP JUMP JUMPDEST PUSH32 0x41424F41543A3A636C61696D3A20416C726561647920616C6C6F77656420746F PUSH1 0x0 DUP3 ADD MSTORE PUSH32 0x207265636965766520746F6B656E730000000000000000000000000000000000 PUSH1 0x20 DUP3 ADD MSTORE POP JUMP JUMPDEST PUSH32 0x41424F41543A3A73656E645265776172647341734574683A2043616E27742073 PUSH1 0x0 DUP3 ADD MSTORE PUSH32 0x656E64206D6F72652072657761726473207468616E206C696D69742100000000 PUSH1 0x20 DUP3 ADD MSTORE POP JUMP JUMPDEST PUSH32 0x41424F41543A3A7365744D61696E7461696E65723A204D61696E7461696E6572 PUSH1 0x0 DUP3 ADD MSTORE PUSH32 0x2063616E277420657175616C2070726576696F7573206D61696E7461696E6572 PUSH1 0x20 DUP3 ADD MSTORE PUSH32 0x206F72207A65726F206164647265737300000000000000000000000000000000 PUSH1 0x40 DUP3 ADD MSTORE POP JUMP JUMPDEST PUSH32 0x4F776E61626C653A2063616C6C6572206973206E6F7420746865206F776E6572 PUSH1 0x0 DUP3 ADD MSTORE POP JUMP JUMPDEST PUSH32 0x41424F41543A3A73656E645265776172647341734574683A2054686572652069 PUSH1 0x0 DUP3 ADD MSTORE PUSH32 0x73206E6F20726F7574657220646566696E656420746F207377617020746F6B65 PUSH1 0x20 DUP3 ADD MSTORE PUSH32 0x6E7320666F722065746800000000000000000000000000000000000000000000 PUSH1 0x40 DUP3 ADD MSTORE POP JUMP JUMPDEST PUSH32 0x41424F41543A3A73656E645265776172647341734574683A2043616E27742063 PUSH1 0x0 DUP3 ADD MSTORE PUSH32 0x6C61696D206D6F7265207468616E206F6E636520706572206461790000000000 PUSH1 0x20 DUP3 ADD MSTORE POP JUMP JUMPDEST PUSH32 0x46756E6374696F6E206973206C6F636B65640000000000000000000000000000 PUSH1 0x0 DUP3 ADD MSTORE POP JUMP JUMPDEST PUSH32 0x6F70657261746F723A2063616C6C6572206973206E6F7420616C6C6F77656420 PUSH1 0x0 DUP3 ADD MSTORE PUSH32 0x746F2063616C6C20746869732066756E6374696F6E0000000000000000000000 PUSH1 0x20 DUP3 ADD MSTORE POP JUMP JUMPDEST PUSH32 0x41424F41543A3A73656E645265776172647341734574683A2043616E27742073 PUSH1 0x0 DUP3 ADD MSTORE PUSH32 0x656E64206D6F72652072657761726473207468616E20696E2072657761726420 PUSH1 0x20 DUP3 ADD MSTORE PUSH32 0x73797374656D2100000000000000000000000000000000000000000000000000 PUSH1 0x40 DUP3 ADD MSTORE POP JUMP JUMPDEST PUSH32 0x41424F41543A757064617465526577617264546F6B656E3A20596F752063616E PUSH1 0x0 DUP3 ADD MSTORE PUSH32 0x277420757064617465207468652065786163742073616D6520746F6B656E7300 PUSH1 0x20 DUP3 ADD MSTORE POP JUMP JUMPDEST PUSH32 0x41424F41543A3A636C61696D3A20416D6F756E74206F6620626E6220746F2063 PUSH1 0x0 DUP3 ADD MSTORE PUSH32 0x6C61696D2073686F756C642063617272792074686520636F737420746F206164 PUSH1 0x20 DUP3 ADD MSTORE PUSH32 0x642074686520636C61696D61626C650000000000000000000000000000000000 PUSH1 0x40 DUP3 ADD MSTORE POP JUMP JUMPDEST PUSH32 0x5472616E7366657248656C7065723A3A736166655472616E736665723A207472 PUSH1 0x0 DUP3 ADD MSTORE PUSH32 0x616E73666572206661696C656400000000000000000000000000000000000000 PUSH1 0x20 DUP3 ADD MSTORE POP JUMP JUMPDEST PUSH32 0x41424F41543A3A73656E64526577617264733A20616D6F756E747320616E6420 PUSH1 0x0 DUP3 ADD MSTORE PUSH32 0x616464726573736573206D7573742068617665207468652073616D6520616D6F PUSH1 0x20 DUP3 ADD MSTORE PUSH32 0x756E74206F6620656E7472696573000000000000000000000000000000000000 PUSH1 0x40 DUP3 ADD MSTORE POP JUMP JUMPDEST PUSH2 0x4552 DUP2 PUSH2 0x3DCE JUMP JUMPDEST DUP2 EQ PUSH2 0x455D JUMPI PUSH1 0x0 DUP1 REVERT JUMPDEST POP JUMP JUMPDEST PUSH2 0x4569 DUP2 PUSH2 0x3DE0 JUMP JUMPDEST DUP2 EQ PUSH2 0x4574 JUMPI PUSH1 0x0 DUP1 REVERT JUMPDEST POP JUMP JUMPDEST PUSH2 0x4580 DUP2 PUSH2 0x3DEC JUMP JUMPDEST DUP2 EQ PUSH2 0x458B JUMPI PUSH1 0x0 DUP1 REVERT JUMPDEST POP JUMP JUMPDEST PUSH2 0x4597 DUP2 PUSH2 0x3DFE JUMP JUMPDEST DUP2 EQ PUSH2 0x45A2 JUMPI PUSH1 0x0 DUP1 REVERT JUMPDEST POP JUMP JUMPDEST PUSH2 0x45AE DUP2 PUSH2 0x3E30 JUMP JUMPDEST DUP2 EQ PUSH2 0x45B9 JUMPI PUSH1 0x0 DUP1 REVERT JUMPDEST POP JUMP INVALID LOG2 PUSH5 0x6970667358 0x22 SLT KECCAK256 RETURN 0xCC DUP9 SWAP3 CREATE2 0xCD DUP10 PUSH20 0xFDF1B70B098469B35663943D8DB45AFF27C7260C 0xF8 DUP12 0x27 PUSH30 0x64736F6C6343000807003300000000000000000000000000000000000000 "
		},
		"gasEstimates": {
			"creation": {
				"codeDepositCost": "3581200",
				"executionCost": "infinite",
				"totalCost": "infinite"
			},
			"external": {
				"_claimTimes(address)": "2902",
				"_devWallet()": "2605",
				"_gasCost()": "2496",
				"_maxAmountPerReceive()": "2475",
				"_oracleWallet()": "2604",
				"_rewardToken()": "2667",
				"_rewards(address)": "2890",
				"_router()": "2711",
				"_timeBetweenClaims()": "2476",
				"adjustGasCost(uint256)": "infinite",
				"adjustMaxAmountPerReceive(uint256)": "infinite",
				"canClaim(address)": "infinite",
				"canClaimNative(address)": "infinite",
				"changeOracleWallet(address)": "infinite",
				"claim()": "infinite",
				"emergencyWithdraw()": "infinite",
				"getBalance()": "infinite",
				"getEthBalance()": "429",
				"isLockEnabled()": "2633",
				"lockFunction(string)": "infinite",
				"maintainer()": "2568",
				"owner()": "2655",
				"renounceOwnership()": "30486",
				"sendRewardAndAdjustGasCost(uint256[],address[],uint256)": "infinite",
				"sendRewards(uint256[],address[])": "infinite",
				"sendRewardsAsEth(uint256,address)": "infinite",
				"sendRewardsNew(uint256[],address[])": "infinite",
				"setMaintainer(address)": "infinite",
				"setRouter(address)": "27116",
				"setTimelockEnabled()": "29684",
				"timelock(string)": "infinite",
				"transferOwnership(address)": "30767",
				"unlockFunction(string)": "infinite",
				"updateRewardToken(address)": "infinite"
			},
			"internal": {
				"swapTokensForEth(uint256)": "infinite"
			}
		},
		"methodIdentifiers": {
			"_claimTimes(address)": "f7e77bc2",
			"_devWallet()": "11a63e17",
			"_gasCost()": "7ef189f8",
			"_maxAmountPerReceive()": "5dd53826",
			"_oracleWallet()": "a221a15f",
			"_rewardToken()": "b59c6e0e",
			"_rewards(address)": "7d6dfb7e",
			"_router()": "edae876f",
			"_timeBetweenClaims()": "0126ffb9",
			"adjustGasCost(uint256)": "87df241f",
			"adjustMaxAmountPerReceive(uint256)": "de996a6e",
			"canClaim(address)": "bf3506c1",
			"canClaimNative(address)": "864e49a7",
			"changeOracleWallet(address)": "63cd79b7",
			"claim()": "4e71d92d",
			"emergencyWithdraw()": "db2e21bc",
			"getBalance()": "12065fe0",
			"getEthBalance()": "70ed0ada",
			"isLockEnabled()": "a347511a",
			"lockFunction(string)": "9f531156",
			"maintainer()": "9850d32b",
			"owner()": "8da5cb5b",
			"renounceOwnership()": "715018a6",
			"sendRewardAndAdjustGasCost(uint256[],address[],uint256)": "4a938f00",
			"sendRewards(uint256[],address[])": "478a55eb",
			"sendRewardsAsEth(uint256,address)": "d6e0ece2",
			"sendRewardsNew(uint256[],address[])": "0b6d1a70",
			"setMaintainer(address)": "13ea5d29",
			"setRouter(address)": "c0d78655",
			"setTimelockEnabled()": "f4762fd6",
			"timelock(string)": "f98080c0",
			"transferOwnership(address)": "f2fde38b",
			"unlockFunction(string)": "a607494a",
			"updateRewardToken(address)": "f8cf31cb"
		}
	},
	"abi": [
		{
			"inputs": [
				{
					"internalType": "contract IERC20",
					"name": "rewardToken",
					"type": "address"
				}
			],
			"stateMutability": "nonpayable",
			"type": "constructor"
		},
		{
			"anonymous": false,
			"inputs": [
				{
					"indexed": true,
					"internalType": "uint256",
					"name": "previousCost",
					"type": "uint256"
				},
				{
					"indexed": true,
					"internalType": "uint256",
					"name": "cost",
					"type": "uint256"
				}
			],
			"name": "ChangedGasCost",
			"type": "event"
		},
		{
			"anonymous": false,
			"inputs": [
				{
					"indexed": true,
					"internalType": "uint256",
					"name": "previousAmount",
					"type": "uint256"
				},
				{
					"indexed": true,
					"internalType": "uint256",
					"name": "amount",
					"type": "uint256"
				}
			],
			"name": "ChangedMaxAmountPerReceive",
			"type": "event"
		},
		{
			"anonymous": false,
			"inputs": [
				{
					"indexed": true,
					"internalType": "address",
					"name": "previousAddress",
					"type": "address"
				},
				{
					"indexed": true,
					"internalType": "address",
					"name": "newAddress",
					"type": "address"
				}
			],
			"name": "ChangedOracleWallet",
			"type": "event"
		},
		{
			"anonymous": false,
			"inputs": [
				{
					"indexed": true,
					"internalType": "address",
					"name": "previousToken",
					"type": "address"
				},
				{
					"indexed": true,
					"internalType": "address",
					"name": "newToken",
					"type": "address"
				}
			],
			"name": "ChangedRewardToken",
			"type": "event"
		},
		{
			"anonymous": false,
			"inputs": [
				{
					"indexed": true,
					"internalType": "address",
					"name": "owner",
					"type": "address"
				}
			],
			"name": "EmergencyWithdraw",
			"type": "event"
		},
		{
			"anonymous": false,
			"inputs": [],
			"name": "EnabledLock",
			"type": "event"
		},
		{
			"anonymous": false,
			"inputs": [
				{
					"indexed": true,
					"internalType": "address",
					"name": "owner",
					"type": "address"
				}
			],
			"name": "EnabledRewards",
			"type": "event"
		},
		{
			"anonymous": false,
			"inputs": [
				{
					"indexed": true,
					"internalType": "address",
					"name": "previousMaintainer",
					"type": "address"
				},
				{
					"indexed": true,
					"internalType": "address",
					"name": "newMaintainer",
					"type": "address"
				}
			],
			"name": "MaintainerTransferred",
			"type": "event"
		},
		{
			"anonymous": false,
			"inputs": [
				{
					"indexed": true,
					"internalType": "address",
					"name": "previousOwner",
					"type": "address"
				},
				{
					"indexed": true,
					"internalType": "address",
					"name": "newOwner",
					"type": "address"
				}
			],
			"name": "OwnershipTransferred",
			"type": "event"
		},
		{
			"anonymous": false,
			"inputs": [
				{
					"indexed": true,
					"internalType": "address",
					"name": "owner",
					"type": "address"
				},
				{
					"indexed": true,
					"internalType": "uint256",
					"name": "amount",
					"type": "uint256"
				}
			],
			"name": "SentRewards",
			"type": "event"
		},
		{
			"anonymous": false,
			"inputs": [
				{
					"indexed": true,
					"internalType": "address",
					"name": "owner",
					"type": "address"
				},
				{
					"indexed": true,
					"internalType": "uint256",
					"name": "amount",
					"type": "uint256"
				},
				{
					"indexed": true,
					"internalType": "uint256",
					"name": "fees",
					"type": "uint256"
				}
			],
			"name": "SentRewardsETH",
			"type": "event"
		},
		{
			"anonymous": false,
			"inputs": [
				{
					"indexed": true,
					"internalType": "string",
					"name": "functionName",
					"type": "string"
				},
				{
					"indexed": true,
					"internalType": "uint256",
					"name": "unlockedAt",
					"type": "uint256"
				}
			],
			"name": "UnlockedFunction",
			"type": "event"
		},
		{
			"inputs": [
				{
					"internalType": "address",
					"name": "",
					"type": "address"
				}
			],
			"name": "_claimTimes",
			"outputs": [
				{
					"internalType": "uint256",
					"name": "",
					"type": "uint256"
				}
			],
			"stateMutability": "view",
			"type": "function"
		},
		{
			"inputs": [],
			"name": "_devWallet",
			"outputs": [
				{
					"internalType": "address",
					"name": "",
					"type": "address"
				}
			],
			"stateMutability": "view",
			"type": "function"
		},
		{
			"inputs": [],
			"name": "_gasCost",
			"outputs": [
				{
					"internalType": "uint256",
					"name": "",
					"type": "uint256"
				}
			],
			"stateMutability": "view",
			"type": "function"
		},
		{
			"inputs": [],
			"name": "_maxAmountPerReceive",
			"outputs": [
				{
					"internalType": "uint256",
					"name": "",
					"type": "uint256"
				}
			],
			"stateMutability": "view",
			"type": "function"
		},
		{
			"inputs": [],
			"name": "_oracleWallet",
			"outputs": [
				{
					"internalType": "address",
					"name": "",
					"type": "address"
				}
			],
			"stateMutability": "view",
			"type": "function"
		},
		{
			"inputs": [],
			"name": "_rewardToken",
			"outputs": [
				{
					"internalType": "contract IERC20",
					"name": "",
					"type": "address"
				}
			],
			"stateMutability": "view",
			"type": "function"
		},
		{
			"inputs": [
				{
					"internalType": "address",
					"name": "",
					"type": "address"
				}
			],
			"name": "_rewards",
			"outputs": [
				{
					"internalType": "bool",
					"name": "",
					"type": "bool"
				}
			],
			"stateMutability": "view",
			"type": "function"
		},
		{
			"inputs": [],
			"name": "_router",
			"outputs": [
				{
					"internalType": "contract IUniswapV2Router02",
					"name": "",
					"type": "address"
				}
			],
			"stateMutability": "view",
			"type": "function"
		},
		{
			"inputs": [],
			"name": "_timeBetweenClaims",
			"outputs": [
				{
					"internalType": "uint256",
					"name": "",
					"type": "uint256"
				}
			],
			"stateMutability": "view",
			"type": "function"
		},
		{
			"inputs": [
				{
					"internalType": "uint256",
					"name": "gasCost",
					"type": "uint256"
				}
			],
			"name": "adjustGasCost",
			"outputs": [],
			"stateMutability": "nonpayable",
			"type": "function"
		},
		{
			"inputs": [
				{
					"internalType": "uint256",
					"name": "newAmount",
					"type": "uint256"
				}
			],
			"name": "adjustMaxAmountPerReceive",
			"outputs": [],
			"stateMutability": "nonpayable",
			"type": "function"
		},
		{
			"inputs": [
				{
					"internalType": "address",
					"name": "user",
					"type": "address"
				}
			],
			"name": "canClaim",
			"outputs": [
				{
					"internalType": "bool",
					"name": "",
					"type": "bool"
				}
			],
			"stateMutability": "view",
			"type": "function"
		},
		{
			"inputs": [
				{
					"internalType": "address",
					"name": "user",
					"type": "address"
				}
			],
			"name": "canClaimNative",
			"outputs": [
				{
					"internalType": "bool",
					"name": "",
					"type": "bool"
				}
			],
			"stateMutability": "view",
			"type": "function"
		},
		{
			"inputs": [
				{
					"internalType": "address",
					"name": "oracleWallet",
					"type": "address"
				}
			],
			"name": "changeOracleWallet",
			"outputs": [],
			"stateMutability": "nonpayable",
			"type": "function"
		},
		{
			"inputs": [],
			"name": "claim",
			"outputs": [],
			"stateMutability": "payable",
			"type": "function"
		},
		{
			"inputs": [],
			"name": "emergencyWithdraw",
			"outputs": [],
			"stateMutability": "nonpayable",
			"type": "function"
		},
		{
			"inputs": [],
			"name": "getBalance",
			"outputs": [
				{
					"internalType": "uint256",
					"name": "",
					"type": "uint256"
				}
			],
			"stateMutability": "view",
			"type": "function"
		},
		{
			"inputs": [],
			"name": "getEthBalance",
			"outputs": [
				{
					"internalType": "uint256",
					"name": "",
					"type": "uint256"
				}
			],
			"stateMutability": "view",
			"type": "function"
		},
		{
			"inputs": [],
			"name": "isLockEnabled",
			"outputs": [
				{
					"internalType": "bool",
					"name": "",
					"type": "bool"
				}
			],
			"stateMutability": "view",
			"type": "function"
		},
		{
			"inputs": [
				{
					"internalType": "string",
					"name": "_fn",
					"type": "string"
				}
			],
			"name": "lockFunction",
			"outputs": [],
			"stateMutability": "nonpayable",
			"type": "function"
		},
		{
			"inputs": [],
			"name": "maintainer",
			"outputs": [
				{
					"internalType": "address",
					"name": "",
					"type": "address"
				}
			],
			"stateMutability": "view",
			"type": "function"
		},
		{
			"inputs": [],
			"name": "owner",
			"outputs": [
				{
					"internalType": "address",
					"name": "",
					"type": "address"
				}
			],
			"stateMutability": "view",
			"type": "function"
		},
		{
			"inputs": [],
			"name": "renounceOwnership",
			"outputs": [],
			"stateMutability": "nonpayable",
			"type": "function"
		},
		{
			"inputs": [
				{
					"internalType": "uint256[]",
					"name": "amounts",
					"type": "uint256[]"
				},
				{
					"internalType": "address[]",
					"name": "addresses",
					"type": "address[]"
				},
				{
					"internalType": "uint256",
					"name": "gasCost",
					"type": "uint256"
				}
			],
			"name": "sendRewardAndAdjustGasCost",
			"outputs": [],
			"stateMutability": "nonpayable",
			"type": "function"
		},
		{
			"inputs": [
				{
					"internalType": "uint256[]",
					"name": "amounts",
					"type": "uint256[]"
				},
				{
					"internalType": "address[]",
					"name": "addresses",
					"type": "address[]"
				}
			],
			"name": "sendRewards",
			"outputs": [],
			"stateMutability": "nonpayable",
			"type": "function"
		},
		{
			"inputs": [
				{
					"internalType": "uint256",
					"name": "amount",
					"type": "uint256"
				},
				{
					"internalType": "address",
					"name": "user",
					"type": "address"
				}
			],
			"name": "sendRewardsAsEth",
			"outputs": [],
			"stateMutability": "nonpayable",
			"type": "function"
		},
		{
			"inputs": [
				{
					"internalType": "uint256[]",
					"name": "amounts",
					"type": "uint256[]"
				},
				{
					"internalType": "address[]",
					"name": "addresses",
					"type": "address[]"
				}
			],
			"name": "sendRewardsNew",
			"outputs": [],
			"stateMutability": "nonpayable",
			"type": "function"
		},
		{
			"inputs": [
				{
					"internalType": "address",
					"name": "_newMaintainer",
					"type": "address"
				}
			],
			"name": "setMaintainer",
			"outputs": [],
			"stateMutability": "nonpayable",
			"type": "function"
		},
		{
			"inputs": [
				{
					"internalType": "contract IUniswapV2Router02",
					"name": "router",
					"type": "address"
				}
			],
			"name": "setRouter",
			"outputs": [],
			"stateMutability": "nonpayable",
			"type": "function"
		},
		{
			"inputs": [],
			"name": "setTimelockEnabled",
			"outputs": [],
			"stateMutability": "nonpayable",
			"type": "function"
		},
		{
			"inputs": [
				{
					"internalType": "string",
					"name": "",
					"type": "string"
				}
			],
			"name": "timelock",
			"outputs": [
				{
					"internalType": "uint256",
					"name": "",
					"type": "uint256"
				}
			],
			"stateMutability": "view",
			"type": "function"
		},
		{
			"inputs": [
				{
					"internalType": "address",
					"name": "newOwner",
					"type": "address"
				}
			],
			"name": "transferOwnership",
			"outputs": [],
			"stateMutability": "nonpayable",
			"type": "function"
		},
		{
			"inputs": [
				{
					"internalType": "string",
					"name": "_fn",
					"type": "string"
				}
			],
			"name": "unlockFunction",
			"outputs": [],
			"stateMutability": "nonpayable",
			"type": "function"
		},
		{
			"inputs": [
				{
					"internalType": "contract IERC20",
					"name": "rewardToken",
					"type": "address"
				}
			],
			"name": "updateRewardToken",
			"outputs": [],
			"stateMutability": "nonpayable",
			"type": "function"
		},
		{
			"stateMutability": "payable",
			"type": "receive"
		}
	]
}