{
	"contracts/chains/polygon/RewardSystem.sol": {
		"RewardSystem": {
			"abi": [
				{
					"inputs": [
						{
							"internalType": "contract IERC20",
							"name": "rewardToken",
							"type": "address"
						}
					],
					"stateMutability": "nonpayable",
					"type": "constructor"
				},
				{
					"anonymous": false,
					"inputs": [
						{
							"indexed": true,
							"internalType": "uint256",
							"name": "previousCost",
							"type": "uint256"
						},
						{
							"indexed": true,
							"internalType": "uint256",
							"name": "cost",
							"type": "uint256"
						}
					],
					"name": "ChangedGasCost",
					"type": "event"
				},
				{
					"anonymous": false,
					"inputs": [
						{
							"indexed": true,
							"internalType": "address",
							"name": "previousAddress",
							"type": "address"
						},
						{
							"indexed": true,
							"internalType": "address",
							"name": "newAddress",
							"type": "address"
						}
					],
					"name": "ChangedOracleWallet",
					"type": "event"
				},
				{
					"anonymous": false,
					"inputs": [
						{
							"indexed": true,
							"internalType": "address",
							"name": "previousToken",
							"type": "address"
						},
						{
							"indexed": true,
							"internalType": "address",
							"name": "newToken",
							"type": "address"
						}
					],
					"name": "ChangedRewardToken",
					"type": "event"
				},
				{
					"anonymous": false,
					"inputs": [],
					"name": "EnabledLock",
					"type": "event"
				},
				{
					"anonymous": false,
					"inputs": [
						{
							"indexed": true,
							"internalType": "address",
							"name": "owner",
							"type": "address"
						}
					],
					"name": "EnabledRewards",
					"type": "event"
				},
				{
					"anonymous": false,
					"inputs": [
						{
							"indexed": true,
							"internalType": "address",
							"name": "previousMaintainer",
							"type": "address"
						},
						{
							"indexed": true,
							"internalType": "address",
							"name": "newMaintainer",
							"type": "address"
						}
					],
					"name": "MaintainerTransferred",
					"type": "event"
				},
				{
					"anonymous": false,
					"inputs": [
						{
							"indexed": true,
							"internalType": "address",
							"name": "previousOwner",
							"type": "address"
						},
						{
							"indexed": true,
							"internalType": "address",
							"name": "newOwner",
							"type": "address"
						}
					],
					"name": "OwnershipTransferred",
					"type": "event"
				},
				{
					"anonymous": false,
					"inputs": [
						{
							"indexed": true,
							"internalType": "address",
							"name": "owner",
							"type": "address"
						},
						{
							"indexed": true,
							"internalType": "uint256",
							"name": "amount",
							"type": "uint256"
						}
					],
					"name": "SentRewards",
					"type": "event"
				},
				{
					"anonymous": false,
					"inputs": [
						{
							"indexed": true,
							"internalType": "address",
							"name": "owner",
							"type": "address"
						},
						{
							"indexed": true,
							"internalType": "uint256",
							"name": "amount",
							"type": "uint256"
						},
						{
							"indexed": true,
							"internalType": "uint256",
							"name": "fees",
							"type": "uint256"
						}
					],
					"name": "SentRewardsETH",
					"type": "event"
				},
				{
					"anonymous": false,
					"inputs": [
						{
							"indexed": true,
							"internalType": "string",
							"name": "functionName",
							"type": "string"
						},
						{
							"indexed": true,
							"internalType": "uint256",
							"name": "unlockedAt",
							"type": "uint256"
						}
					],
					"name": "UnlockedFunction",
					"type": "event"
				},
				{
					"inputs": [],
					"name": "_devWallet",
					"outputs": [
						{
							"internalType": "address",
							"name": "",
							"type": "address"
						}
					],
					"stateMutability": "view",
					"type": "function"
				},
				{
					"inputs": [],
					"name": "_gasCost",
					"outputs": [
						{
							"internalType": "uint256",
							"name": "",
							"type": "uint256"
						}
					],
					"stateMutability": "view",
					"type": "function"
				},
				{
					"inputs": [],
					"name": "_oracleWallet",
					"outputs": [
						{
							"internalType": "address",
							"name": "",
							"type": "address"
						}
					],
					"stateMutability": "view",
					"type": "function"
				},
				{
					"inputs": [],
					"name": "_rewardToken",
					"outputs": [
						{
							"internalType": "contract IERC20",
							"name": "",
							"type": "address"
						}
					],
					"stateMutability": "view",
					"type": "function"
				},
				{
					"inputs": [
						{
							"internalType": "address",
							"name": "",
							"type": "address"
						}
					],
					"name": "_rewards",
					"outputs": [
						{
							"internalType": "bool",
							"name": "",
							"type": "bool"
						}
					],
					"stateMutability": "view",
					"type": "function"
				},
				{
					"inputs": [],
					"name": "_router",
					"outputs": [
						{
							"internalType": "contract IUniswapV2Router02",
							"name": "",
							"type": "address"
						}
					],
					"stateMutability": "view",
					"type": "function"
				},
				{
					"inputs": [
						{
							"internalType": "uint256",
							"name": "gasCost",
							"type": "uint256"
						}
					],
					"name": "adjustGasCost",
					"outputs": [],
					"stateMutability": "nonpayable",
					"type": "function"
				},
				{
					"inputs": [
						{
							"internalType": "address",
							"name": "oracleWallet",
							"type": "address"
						}
					],
					"name": "changeOracleWallet",
					"outputs": [],
					"stateMutability": "nonpayable",
					"type": "function"
				},
				{
					"inputs": [],
					"name": "claim",
					"outputs": [],
					"stateMutability": "payable",
					"type": "function"
				},
				{
					"inputs": [],
					"name": "getBalance",
					"outputs": [
						{
							"internalType": "uint256",
							"name": "",
							"type": "uint256"
						}
					],
					"stateMutability": "view",
					"type": "function"
				},
				{
					"inputs": [],
					"name": "isLockEnabled",
					"outputs": [
						{
							"internalType": "bool",
							"name": "",
							"type": "bool"
						}
					],
					"stateMutability": "view",
					"type": "function"
				},
				{
					"inputs": [
						{
							"internalType": "string",
							"name": "_fn",
							"type": "string"
						}
					],
					"name": "lockFunction",
					"outputs": [],
					"stateMutability": "nonpayable",
					"type": "function"
				},
				{
					"inputs": [],
					"name": "maintainer",
					"outputs": [
						{
							"internalType": "address",
							"name": "",
							"type": "address"
						}
					],
					"stateMutability": "view",
					"type": "function"
				},
				{
					"inputs": [],
					"name": "owner",
					"outputs": [
						{
							"internalType": "address",
							"name": "",
							"type": "address"
						}
					],
					"stateMutability": "view",
					"type": "function"
				},
				{
					"inputs": [],
					"name": "renounceOwnership",
					"outputs": [],
					"stateMutability": "nonpayable",
					"type": "function"
				},
				{
					"inputs": [
						{
							"internalType": "uint256[]",
							"name": "amounts",
							"type": "uint256[]"
						},
						{
							"internalType": "address[]",
							"name": "addresses",
							"type": "address[]"
						},
						{
							"internalType": "uint256",
							"name": "gasCost",
							"type": "uint256"
						}
					],
					"name": "sendRewardAndAdjustGasCost",
					"outputs": [],
					"stateMutability": "nonpayable",
					"type": "function"
				},
				{
					"inputs": [
						{
							"internalType": "uint256[]",
							"name": "amounts",
							"type": "uint256[]"
						},
						{
							"internalType": "address[]",
							"name": "addresses",
							"type": "address[]"
						}
					],
					"name": "sendRewards",
					"outputs": [],
					"stateMutability": "nonpayable",
					"type": "function"
				},
				{
					"inputs": [
						{
							"internalType": "uint256",
							"name": "amount",
							"type": "uint256"
						},
						{
							"internalType": "address",
							"name": "user",
							"type": "address"
						}
					],
					"name": "sendRewardsAsEth",
					"outputs": [],
					"stateMutability": "nonpayable",
					"type": "function"
				},
				{
					"inputs": [
						{
							"internalType": "address",
							"name": "_newMaintainer",
							"type": "address"
						}
					],
					"name": "setMaintainer",
					"outputs": [],
					"stateMutability": "nonpayable",
					"type": "function"
				},
				{
					"inputs": [
						{
							"internalType": "contract IUniswapV2Router02",
							"name": "router",
							"type": "address"
						}
					],
					"name": "setRouter",
					"outputs": [],
					"stateMutability": "nonpayable",
					"type": "function"
				},
				{
					"inputs": [],
					"name": "setTimelockEnabled",
					"outputs": [],
					"stateMutability": "nonpayable",
					"type": "function"
				},
				{
					"inputs": [
						{
							"internalType": "string",
							"name": "",
							"type": "string"
						}
					],
					"name": "timelock",
					"outputs": [
						{
							"internalType": "uint256",
							"name": "",
							"type": "uint256"
						}
					],
					"stateMutability": "view",
					"type": "function"
				},
				{
					"inputs": [
						{
							"internalType": "address",
							"name": "newOwner",
							"type": "address"
						}
					],
					"name": "transferOwnership",
					"outputs": [],
					"stateMutability": "nonpayable",
					"type": "function"
				},
				{
					"inputs": [
						{
							"internalType": "string",
							"name": "_fn",
							"type": "string"
						}
					],
					"name": "unlockFunction",
					"outputs": [],
					"stateMutability": "nonpayable",
					"type": "function"
				},
				{
					"inputs": [
						{
							"internalType": "contract IERC20",
							"name": "rewardToken",
							"type": "address"
						}
					],
					"name": "updateRewardToken",
					"outputs": [],
					"stateMutability": "nonpayable",
					"type": "function"
				},
				{
					"stateMutability": "payable",
					"type": "receive"
				}
			],
			"devdoc": {
				"kind": "dev",
				"methods": {
					"owner()": {
						"details": "Returns the address of the current owner."
					},
					"renounceOwnership()": {
						"details": "Leaves the contract without owner. It will not be possible to call `onlyOwner` functions anymore. Can only be called by the current owner. NOTE: Renouncing ownership will leave the contract without an owner, thereby removing any functionality that is only available to the owner."
					},
					"transferOwnership(address)": {
						"details": "Transfers ownership of the contract to a new account (`newOwner`). Can only be called by the current owner."
					}
				},
				"version": 1
			},
			"evm": {
				"assembly": "    /* \"contracts/chains/polygon/RewardSystem.sol\":442:6820  contract RewardSystem is Ownable, TimeLock {... */\n  mstore(0x40, 0x80)\n    /* \"contracts/libraries/TimeLock.sol\":765:770  false */\n  0x00\n    /* \"contracts/libraries/TimeLock.sol\":737:770  bool public isLockEnabled = false */\n  dup1\n  sload\n  not(shl(0xa0, 0xff))\n  and\n  swap1\n  sstore\n    /* \"contracts/chains/polygon/RewardSystem.sol\":947:963  2100000000000000 */\n  0x0775f05a074000\n    /* \"contracts/chains/polygon/RewardSystem.sol\":921:963  uint256 public _gasCost = 2100000000000000 */\n  0x04\n  sstore\n    /* \"contracts/chains/polygon/RewardSystem.sol\":974:1047  address public _oracleWallet = 0x912E637522dC32A9653c5B7FD9028c7Ae3ae3Ff6 */\n  0x05\n  dup1\n  sload\n  not(sub(shl(0xa0, 0x01), 0x01))\n  swap1\n  dup2\n  and\n    /* \"contracts/chains/polygon/RewardSystem.sol\":1005:1047  0x912E637522dC32A9653c5B7FD9028c7Ae3ae3Ff6 */\n  0x912e637522dc32a9653c5b7fd9028c7ae3ae3ff6\n    /* \"contracts/chains/polygon/RewardSystem.sol\":974:1047  address public _oracleWallet = 0x912E637522dC32A9653c5B7FD9028c7Ae3ae3Ff6 */\n  or\n  swap1\n  swap2\n  sstore\n    /* \"contracts/chains/polygon/RewardSystem.sol\":1053:1123  address public _devWallet = 0x2EA9CA0ca8043575f2189CFF9897B575b0c7e857 */\n  0x06\n  dup1\n  sload\n  dup3\n  and\n    /* \"contracts/chains/polygon/RewardSystem.sol\":1081:1123  0x2EA9CA0ca8043575f2189CFF9897B575b0c7e857 */\n  0x2ea9ca0ca8043575f2189cff9897b575b0c7e857\n    /* \"contracts/chains/polygon/RewardSystem.sol\":1053:1123  address public _devWallet = 0x2EA9CA0ca8043575f2189CFF9897B575b0c7e857 */\n  or\n  swap1\n  sstore\n    /* \"contracts/chains/polygon/RewardSystem.sol\":1171:1269  IUniswapV2Router02 public _router = IUniswapV2Router02(0xbdd4e5660839a088573191A9889A262c0Efc0983) */\n  0x08\n  dup1\n  sload\n  swap1\n  swap2\n  and\n    /* \"contracts/chains/polygon/RewardSystem.sol\":1226:1268  0xbdd4e5660839a088573191A9889A262c0Efc0983 */\n  0xbdd4e5660839a088573191a9889a262c0efc0983\n    /* \"contracts/chains/polygon/RewardSystem.sol\":1171:1269  IUniswapV2Router02 public _router = IUniswapV2Router02(0xbdd4e5660839a088573191A9889A262c0Efc0983) */\n  or\n  swap1\n  sstore\n    /* \"contracts/chains/polygon/RewardSystem.sol\":2069:2187  constructor(IERC20 rewardToken) {... */\n  callvalue\n  dup1\n  iszero\n  tag_1\n  jumpi\n  0x00\n  dup1\n  revert\ntag_1:\n  pop\n  mload(0x40)\n  sub(codesize, bytecodeSize)\n  dup1\n  bytecodeSize\n  dup4\n  codecopy\n  dup2\n  add\n  0x40\n  dup2\n  swap1\n  mstore\n  tag_2\n  swap2\n  tag_3\n  jump\t// in\ntag_2:\n    /* \"@openzeppelin/contracts/access/Ownable.sol\":867:890  _setOwner(_msgSender()) */\n  tag_8\n    /* \"@openzeppelin/contracts/utils/Context.sol\":665:675  msg.sender */\n  caller\n    /* \"@openzeppelin/contracts/access/Ownable.sol\":867:876  _setOwner */\n  tag_11\n    /* \"@openzeppelin/contracts/access/Ownable.sol\":867:890  _setOwner(_msgSender()) */\n  jump\t// in\ntag_8:\n    /* \"contracts/libraries/TimeLock.sol\":2409:2420  _maintainer */\n  0x02\n    /* \"contracts/libraries/TimeLock.sol\":2409:2433  _maintainer = msg.sender */\n  dup1\n  sload\n  not(sub(shl(0xa0, 0x01), 0x01))\n  swap1\n  dup2\n  and\n    /* \"contracts/libraries/TimeLock.sol\":2423:2433  msg.sender */\n  caller\n    /* \"contracts/libraries/TimeLock.sol\":2409:2433  _maintainer = msg.sender */\n  or\n  swap1\n  swap2\n  sstore\n    /* \"contracts/chains/polygon/RewardSystem.sol\":2111:2123  _rewardToken */\n  0x07\n    /* \"contracts/chains/polygon/RewardSystem.sol\":2111:2137  _rewardToken = rewardToken */\n  dup1\n  sload\n  sub(shl(0xa0, 0x01), 0x01)\n  dup5\n  dup2\n  and\n  swap2\n  swap1\n  swap4\n  and\n  or\n  swap1\n  sstore\n    /* \"contracts/chains/polygon/RewardSystem.sol\":2166:2179  _oracleWallet */\n  sload(0x05)\n    /* \"contracts/chains/polygon/RewardSystem.sol\":2147:2180  changeOracleWallet(_oracleWallet) */\n  tag_14\n  swap2\n    /* \"contracts/chains/polygon/RewardSystem.sol\":2166:2179  _oracleWallet */\n  and\n    /* \"contracts/chains/polygon/RewardSystem.sol\":2147:2165  changeOracleWallet */\n  tag_15\n    /* \"contracts/chains/polygon/RewardSystem.sol\":2147:2180  changeOracleWallet(_oracleWallet) */\n  jump\t// in\ntag_14:\n    /* \"contracts/chains/polygon/RewardSystem.sol\":2069:2187  constructor(IERC20 rewardToken) {... */\n  pop\n    /* \"contracts/chains/polygon/RewardSystem.sol\":442:6820  contract RewardSystem is Ownable, TimeLock {... */\n  jump(tag_63)\n    /* \"@openzeppelin/contracts/access/Ownable.sol\":2041:2210  function _setOwner(address newOwner) private {... */\ntag_11:\n    /* \"@openzeppelin/contracts/access/Ownable.sol\":2096:2112  address oldOwner */\n  0x00\n    /* \"@openzeppelin/contracts/access/Ownable.sol\":2115:2121  _owner */\n  dup1\n  sload\n  sub(shl(0xa0, 0x01), 0x01)\n    /* \"@openzeppelin/contracts/access/Ownable.sol\":2131:2148  _owner = newOwner */\n  dup4\n  dup2\n  and\n  not(sub(shl(0xa0, 0x01), 0x01))\n  dup4\n  and\n  dup2\n  or\n  dup5\n  sstore\n    /* \"@openzeppelin/contracts/access/Ownable.sol\":2163:2203  OwnershipTransferred(oldOwner, newOwner) */\n  mload(0x40)\n    /* \"@openzeppelin/contracts/access/Ownable.sol\":2115:2121  _owner */\n  swap2\n  swap1\n  swap3\n  and\n  swap3\n  dup4\n  swap2\n    /* \"@openzeppelin/contracts/access/Ownable.sol\":2163:2203  OwnershipTransferred(oldOwner, newOwner) */\n  0x8be0079c531659141344cd1fd0a4f28419497f9722a3daafe3b4186f6b6457e0\n  swap2\n    /* \"@openzeppelin/contracts/access/Ownable.sol\":2096:2112  address oldOwner */\n  swap1\n    /* \"@openzeppelin/contracts/access/Ownable.sol\":2163:2203  OwnershipTransferred(oldOwner, newOwner) */\n  log3\n    /* \"@openzeppelin/contracts/access/Ownable.sol\":2086:2210  {... */\n  pop\n    /* \"@openzeppelin/contracts/access/Ownable.sol\":2041:2210  function _setOwner(address newOwner) private {... */\n  pop\n  jump\t// out\n    /* \"contracts/chains/polygon/RewardSystem.sol\":3514:3797  function changeOracleWallet(address oracleWallet) public onlyOwner locked(\"changeOracleWallet\") {... */\ntag_15:\n    /* \"@openzeppelin/contracts/access/Ownable.sol\":1019:1026  address */\n  0x00\n    /* \"@openzeppelin/contracts/access/Ownable.sol\":1045:1051  _owner */\n  sload\n  sub(shl(0xa0, 0x01), 0x01)\n  and\n    /* \"@openzeppelin/contracts/utils/Context.sol\":665:675  msg.sender */\n  caller\n    /* \"@openzeppelin/contracts/access/Ownable.sol\":1185:1208  owner() == _msgSender() */\n  eq\n    /* \"@openzeppelin/contracts/access/Ownable.sol\":1177:1245  require(owner() == _msgSender(), \"Ownable: caller is not the owner\") */\n  tag_23\n  jumpi\n  mload(0x40)\n  shl(0xe5, 0x461bcd)\n  dup2\n  mstore\n    /* \"#utility.yul\":1365:1367   */\n  0x20\n    /* \"@openzeppelin/contracts/access/Ownable.sol\":1177:1245  require(owner() == _msgSender(), \"Ownable: caller is not the owner\") */\n  0x04\n  dup3\n  add\n    /* \"#utility.yul\":1347:1368   */\n  dup2\n  swap1\n  mstore\n    /* \"#utility.yul\":1384:1402   */\n  0x24\n  dup3\n  add\n    /* \"#utility.yul\":1377:1407   */\n  mstore\n  0x00\n  dup1\n  mload\n  0x20\n  data_9924ebdf1add33d25d4ef888e16131f0a5687b0580a36c21b5c301a6c462effe\n  dup4\n  codecopy\n  dup2\n  mload\n  swap2\n  mstore\n    /* \"#utility.yul\":1423:1441   */\n  0x44\n  dup3\n  add\n    /* \"#utility.yul\":1416:1478   */\n  mstore\n    /* \"#utility.yul\":1495:1513   */\n  0x64\n  add\n    /* \"@openzeppelin/contracts/access/Ownable.sol\":1177:1245  require(owner() == _msgSender(), \"Ownable: caller is not the owner\") */\ntag_24:\n  mload(0x40)\n  dup1\n  swap2\n  sub\n  swap1\n  revert\ntag_23:\n    /* \"contracts/libraries/TimeLock.sol\":1945:2188  modifier locked(string memory _fn) {... */\n  0x40\n  dup1\n  mload\n  dup1\n  dup3\n  add\n  swap1\n  swap2\n  mstore\n  0x12\n  dup2\n  mstore\n  shl(0x72, 0x18da185b99d953dc9858db1955d85b1b195d)\n  0x20\n  dup3\n  add\n  mstore\n  0x00\n    /* \"contracts/libraries/TimeLock.sol\":1999:2012  isLockEnabled */\n  sload\n  shl(0xa0, 0x01)\n  swap1\n  div\n  0xff\n  and\n    /* \"contracts/libraries/TimeLock.sol\":1998:2012  !isLockEnabled */\n  iszero\n  dup1\n    /* \"contracts/libraries/TimeLock.sol\":1998:2120  !isLockEnabled || (timelock[_fn] != 0 && timelock[_fn] <= block.timestamp && timelock[_fn] + _TIMELOCK >= block.timestamp) */\n  tag_32\n  jumpi\n  pop\n    /* \"contracts/libraries/TimeLock.sol\":2017:2025  timelock */\n  0x01\n    /* \"contracts/libraries/TimeLock.sol\":2026:2029  _fn */\n  dup2\n    /* \"contracts/libraries/TimeLock.sol\":2017:2030  timelock[_fn] */\n  mload(0x40)\n  tag_28\n  swap2\n  swap1\n  tag_29\n  jump\t// in\ntag_28:\n  swap1\n  dup2\n  mstore\n  0x20\n  add\n  mload(0x40)\n  dup1\n  swap2\n  sub\n  swap1\n  keccak256\n  sload\n    /* \"contracts/libraries/TimeLock.sol\":2034:2035  0 */\n  0x00\n    /* \"contracts/libraries/TimeLock.sol\":2017:2035  timelock[_fn] != 0 */\n  eq\n  iszero\n    /* \"contracts/libraries/TimeLock.sol\":2017:2071  timelock[_fn] != 0 && timelock[_fn] <= block.timestamp */\n  dup1\n  iszero\n  tag_30\n  jumpi\n  pop\n    /* \"contracts/libraries/TimeLock.sol\":2056:2071  block.timestamp */\n  timestamp\n    /* \"contracts/libraries/TimeLock.sol\":2039:2047  timelock */\n  0x01\n    /* \"contracts/libraries/TimeLock.sol\":2048:2051  _fn */\n  dup3\n    /* \"contracts/libraries/TimeLock.sol\":2039:2052  timelock[_fn] */\n  mload(0x40)\n  tag_31\n  swap2\n  swap1\n  tag_29\n  jump\t// in\ntag_31:\n  swap1\n  dup2\n  mstore\n  0x20\n  add\n  mload(0x40)\n  dup1\n  swap2\n  sub\n  swap1\n  keccak256\n  sload\n    /* \"contracts/libraries/TimeLock.sol\":2039:2071  timelock[_fn] <= block.timestamp */\n  gt\n  iszero\n    /* \"contracts/libraries/TimeLock.sol\":2017:2071  timelock[_fn] != 0 && timelock[_fn] <= block.timestamp */\ntag_30:\n    /* \"contracts/libraries/TimeLock.sol\":2017:2119  timelock[_fn] != 0 && timelock[_fn] <= block.timestamp && timelock[_fn] + _TIMELOCK >= block.timestamp */\n  dup1\n  iszero\n  tag_32\n  jumpi\n  pop\n    /* \"contracts/libraries/TimeLock.sol\":2104:2119  block.timestamp */\n  timestamp\n    /* \"contracts/libraries/TimeLock.sol\":861:867  1 days */\n  0x015180\n    /* \"contracts/libraries/TimeLock.sol\":2075:2083  timelock */\n  0x01\n    /* \"contracts/libraries/TimeLock.sol\":2084:2087  _fn */\n  dup4\n    /* \"contracts/libraries/TimeLock.sol\":2075:2088  timelock[_fn] */\n  mload(0x40)\n  tag_33\n  swap2\n  swap1\n  tag_29\n  jump\t// in\ntag_33:\n  swap1\n  dup2\n  mstore\n  0x20\n  add\n  mload(0x40)\n  dup1\n  swap2\n  sub\n  swap1\n  keccak256\n  sload\n    /* \"contracts/libraries/TimeLock.sol\":2075:2100  timelock[_fn] + _TIMELOCK */\n  tag_34\n  swap2\n  swap1\n  tag_35\n  jump\t// in\ntag_34:\n    /* \"contracts/libraries/TimeLock.sol\":2075:2119  timelock[_fn] + _TIMELOCK >= block.timestamp */\n  lt\n  iszero\n    /* \"contracts/libraries/TimeLock.sol\":2017:2119  timelock[_fn] != 0 && timelock[_fn] <= block.timestamp && timelock[_fn] + _TIMELOCK >= block.timestamp */\ntag_32:\n    /* \"contracts/libraries/TimeLock.sol\":1990:2143  require(!isLockEnabled || (timelock[_fn] != 0 && timelock[_fn] <= block.timestamp && timelock[_fn] + _TIMELOCK >= block.timestamp), \"Function is locked\") */\n  tag_36\n  jumpi\n  mload(0x40)\n  shl(0xe5, 0x461bcd)\n  dup2\n  mstore\n    /* \"#utility.yul\":1726:1728   */\n  0x20\n    /* \"contracts/libraries/TimeLock.sol\":1990:2143  require(!isLockEnabled || (timelock[_fn] != 0 && timelock[_fn] <= block.timestamp && timelock[_fn] + _TIMELOCK >= block.timestamp), \"Function is locked\") */\n  0x04\n  dup3\n  add\n    /* \"#utility.yul\":1708:1729   */\n  mstore\n    /* \"#utility.yul\":1765:1767   */\n  0x12\n    /* \"#utility.yul\":1745:1763   */\n  0x24\n  dup3\n  add\n    /* \"#utility.yul\":1738:1768   */\n  mstore\n  shl(0x72, 0x119d5b98dd1a5bdb881a5cc81b1bd8dad959)\n    /* \"#utility.yul\":1784:1802   */\n  0x44\n  dup3\n  add\n    /* \"#utility.yul\":1777:1825   */\n  mstore\n    /* \"#utility.yul\":1842:1860   */\n  0x64\n  add\n    /* \"contracts/libraries/TimeLock.sol\":1990:2143  require(!isLockEnabled || (timelock[_fn] != 0 && timelock[_fn] <= block.timestamp && timelock[_fn] + _TIMELOCK >= block.timestamp), \"Function is locked\") */\n  tag_24\n    /* \"#utility.yul\":1524:1866   */\n  jump\n    /* \"contracts/libraries/TimeLock.sol\":1990:2143  require(!isLockEnabled || (timelock[_fn] != 0 && timelock[_fn] <= block.timestamp && timelock[_fn] + _TIMELOCK >= block.timestamp), \"Function is locked\") */\ntag_36:\n    /* \"contracts/chains/polygon/RewardSystem.sol\":3620:3651  transferOwnership(oracleWallet) */\n  tag_40\n    /* \"contracts/chains/polygon/RewardSystem.sol\":3638:3650  oracleWallet */\n  dup3\n    /* \"contracts/chains/polygon/RewardSystem.sol\":3620:3637  transferOwnership */\n  tag_41\n    /* \"contracts/chains/polygon/RewardSystem.sol\":3620:3651  transferOwnership(oracleWallet) */\n  jump\t// in\ntag_40:\n    /* \"contracts/chains/polygon/RewardSystem.sol\":3680:3693  _oracleWallet */\n  0x05\n  dup1\n  sload\n  sub(shl(0xa0, 0x01), 0x01)\n    /* \"contracts/chains/polygon/RewardSystem.sol\":3703:3731  _oracleWallet = oracleWallet */\n  dup5\n  dup2\n  and\n  not(sub(shl(0xa0, 0x01), 0x01))\n  dup4\n  and\n  dup2\n  or\n  swap1\n  swap4\n  sstore\n    /* \"contracts/chains/polygon/RewardSystem.sol\":3746:3790  ChangedOracleWallet(previous, _oracleWallet) */\n  mload(0x40)\n    /* \"contracts/chains/polygon/RewardSystem.sol\":3680:3693  _oracleWallet */\n  swap2\n  and\n  swap2\n    /* \"contracts/chains/polygon/RewardSystem.sol\":3703:3731  _oracleWallet = oracleWallet */\n  swap1\n    /* \"contracts/chains/polygon/RewardSystem.sol\":3680:3693  _oracleWallet */\n  dup3\n  swap1\n    /* \"contracts/chains/polygon/RewardSystem.sol\":3746:3790  ChangedOracleWallet(previous, _oracleWallet) */\n  0x3920ecd0f25e4e6ce57aaec91e57df499cb7e3e70d6c9604f866ae9265382cf3\n  swap1\n    /* \"contracts/chains/polygon/RewardSystem.sol\":3661:3677  address previous */\n  0x00\n  swap1\n    /* \"contracts/chains/polygon/RewardSystem.sol\":3746:3790  ChangedOracleWallet(previous, _oracleWallet) */\n  log3\n  pop\n    /* \"contracts/libraries/TimeLock.sol\":2164:2181  lockFunction(_fn) */\n  tag_42\n    /* \"contracts/libraries/TimeLock.sol\":2177:2180  _fn */\n  dup2\n    /* \"contracts/libraries/TimeLock.sol\":2164:2176  lockFunction */\n  tag_43\n    /* \"contracts/libraries/TimeLock.sol\":2164:2181  lockFunction(_fn) */\n  jump\t// in\ntag_42:\n    /* \"@openzeppelin/contracts/access/Ownable.sol\":1255:1256  _ */\n  pop\n    /* \"contracts/chains/polygon/RewardSystem.sol\":3514:3797  function changeOracleWallet(address oracleWallet) public onlyOwner locked(\"changeOracleWallet\") {... */\n  pop\n  jump\t// out\n    /* \"@openzeppelin/contracts/access/Ownable.sol\":1846:2035  function transferOwnership(address newOwner) public virtual onlyOwner {... */\ntag_41:\n    /* \"@openzeppelin/contracts/access/Ownable.sol\":1019:1026  address */\n  0x00\n    /* \"@openzeppelin/contracts/access/Ownable.sol\":1045:1051  _owner */\n  sload\n  sub(shl(0xa0, 0x01), 0x01)\n  and\n    /* \"@openzeppelin/contracts/utils/Context.sol\":665:675  msg.sender */\n  caller\n    /* \"@openzeppelin/contracts/access/Ownable.sol\":1185:1208  owner() == _msgSender() */\n  eq\n    /* \"@openzeppelin/contracts/access/Ownable.sol\":1177:1245  require(owner() == _msgSender(), \"Ownable: caller is not the owner\") */\n  tag_48\n  jumpi\n  mload(0x40)\n  shl(0xe5, 0x461bcd)\n  dup2\n  mstore\n    /* \"#utility.yul\":1365:1367   */\n  0x20\n    /* \"@openzeppelin/contracts/access/Ownable.sol\":1177:1245  require(owner() == _msgSender(), \"Ownable: caller is not the owner\") */\n  0x04\n  dup3\n  add\n    /* \"#utility.yul\":1347:1368   */\n  dup2\n  swap1\n  mstore\n    /* \"#utility.yul\":1384:1402   */\n  0x24\n  dup3\n  add\n    /* \"#utility.yul\":1377:1407   */\n  mstore\n  0x00\n  dup1\n  mload\n  0x20\n  data_9924ebdf1add33d25d4ef888e16131f0a5687b0580a36c21b5c301a6c462effe\n  dup4\n  codecopy\n  dup2\n  mload\n  swap2\n  mstore\n    /* \"#utility.yul\":1423:1441   */\n  0x44\n  dup3\n  add\n    /* \"#utility.yul\":1416:1478   */\n  mstore\n    /* \"#utility.yul\":1495:1513   */\n  0x64\n  add\n    /* \"@openzeppelin/contracts/access/Ownable.sol\":1177:1245  require(owner() == _msgSender(), \"Ownable: caller is not the owner\") */\n  tag_24\n    /* \"#utility.yul\":1163:1519   */\n  jump\n    /* \"@openzeppelin/contracts/access/Ownable.sol\":1177:1245  require(owner() == _msgSender(), \"Ownable: caller is not the owner\") */\ntag_48:\n  sub(shl(0xa0, 0x01), 0x01)\n    /* \"@openzeppelin/contracts/access/Ownable.sol\":1934:1956  newOwner != address(0) */\n  dup2\n  and\n    /* \"@openzeppelin/contracts/access/Ownable.sol\":1926:1999  require(newOwner != address(0), \"Ownable: new owner is the zero address\") */\n  tag_51\n  jumpi\n  mload(0x40)\n  shl(0xe5, 0x461bcd)\n  dup2\n  mstore\n    /* \"#utility.yul\":958:960   */\n  0x20\n    /* \"@openzeppelin/contracts/access/Ownable.sol\":1926:1999  require(newOwner != address(0), \"Ownable: new owner is the zero address\") */\n  0x04\n  dup3\n  add\n    /* \"#utility.yul\":940:961   */\n  mstore\n    /* \"#utility.yul\":997:999   */\n  0x26\n    /* \"#utility.yul\":977:995   */\n  0x24\n  dup3\n  add\n    /* \"#utility.yul\":970:1000   */\n  mstore\n    /* \"#utility.yul\":1036:1070   */\n  0x4f776e61626c653a206e6577206f776e657220697320746865207a65726f2061\n    /* \"#utility.yul\":1016:1034   */\n  0x44\n  dup3\n  add\n    /* \"#utility.yul\":1009:1071   */\n  mstore\n  shl(0xd0, 0x646472657373)\n    /* \"#utility.yul\":1087:1105   */\n  0x64\n  dup3\n  add\n    /* \"#utility.yul\":1080:1116   */\n  mstore\n    /* \"#utility.yul\":1133:1152   */\n  0x84\n  add\n    /* \"@openzeppelin/contracts/access/Ownable.sol\":1926:1999  require(newOwner != address(0), \"Ownable: new owner is the zero address\") */\n  tag_24\n    /* \"#utility.yul\":756:1158   */\n  jump\n    /* \"@openzeppelin/contracts/access/Ownable.sol\":1926:1999  require(newOwner != address(0), \"Ownable: new owner is the zero address\") */\ntag_51:\n    /* \"@openzeppelin/contracts/access/Ownable.sol\":2009:2028  _setOwner(newOwner) */\n  tag_54\n    /* \"@openzeppelin/contracts/access/Ownable.sol\":2019:2027  newOwner */\n  dup2\n    /* \"@openzeppelin/contracts/access/Ownable.sol\":2009:2018  _setOwner */\n  tag_11\n    /* \"@openzeppelin/contracts/access/Ownable.sol\":2009:2028  _setOwner(newOwner) */\n  jump\t// in\ntag_54:\n    /* \"@openzeppelin/contracts/access/Ownable.sol\":1846:2035  function transferOwnership(address newOwner) public virtual onlyOwner {... */\n  pop\n  jump\t// out\n    /* \"contracts/libraries/TimeLock.sol\":4317:4421  function lockFunction(string memory _fn) public onlyMaintainerOrOwner {... */\ntag_43:\n    /* \"contracts/libraries/TimeLock.sol\":2264:2274  msg.sender */\n  caller\n    /* \"contracts/libraries/TimeLock.sol\":2253:2260  owner() */\n  tag_56\n    /* \"@openzeppelin/contracts/access/Ownable.sol\":1019:1026  address */\n  0x00\n    /* \"@openzeppelin/contracts/access/Ownable.sol\":1045:1051  _owner */\n  sload\n  sub(shl(0xa0, 0x01), 0x01)\n  and\n  swap1\n    /* \"@openzeppelin/contracts/access/Ownable.sol\":973:1058  function owner() public view virtual returns (address) {... */\n  jump\n    /* \"contracts/libraries/TimeLock.sol\":2253:2260  owner() */\ntag_56:\n  sub(shl(0xa0, 0x01), 0x01)\n    /* \"contracts/libraries/TimeLock.sol\":2253:2274  owner() == msg.sender */\n  and\n  eq\n    /* \"contracts/libraries/TimeLock.sol\":2253:2303  owner() == msg.sender || _maintainer == msg.sender */\n  dup1\n  tag_57\n  jumpi\n  pop\n    /* \"contracts/libraries/TimeLock.sol\":2278:2289  _maintainer */\n  and(sub(shl(0xa0, 0x01), 0x01), sload(0x02))\n    /* \"contracts/libraries/TimeLock.sol\":2293:2303  msg.sender */\n  caller\n    /* \"contracts/libraries/TimeLock.sol\":2278:2303  _maintainer == msg.sender */\n  eq\n    /* \"contracts/libraries/TimeLock.sol\":2253:2303  owner() == msg.sender || _maintainer == msg.sender */\ntag_57:\n    /* \"contracts/libraries/TimeLock.sol\":2245:2361  require(owner() == msg.sender || _maintainer == msg.sender, \"operator: caller is not allowed to call this function\") */\n  tag_58\n  jumpi\n  mload(0x40)\n  shl(0xe5, 0x461bcd)\n  dup2\n  mstore\n    /* \"#utility.yul\":2073:2075   */\n  0x20\n    /* \"contracts/libraries/TimeLock.sol\":2245:2361  require(owner() == msg.sender || _maintainer == msg.sender, \"operator: caller is not allowed to call this function\") */\n  0x04\n  dup3\n  add\n    /* \"#utility.yul\":2055:2076   */\n  mstore\n    /* \"#utility.yul\":2112:2114   */\n  0x35\n    /* \"#utility.yul\":2092:2110   */\n  0x24\n  dup3\n  add\n    /* \"#utility.yul\":2085:2115   */\n  mstore\n    /* \"#utility.yul\":2151:2185   */\n  0x6f70657261746f723a2063616c6c6572206973206e6f7420616c6c6f77656420\n    /* \"#utility.yul\":2131:2149   */\n  0x44\n  dup3\n  add\n    /* \"#utility.yul\":2124:2186   */\n  mstore\n    /* \"#utility.yul\":2222:2245   */\n  0x746f2063616c6c20746869732066756e6374696f6e0000000000000000000000\n    /* \"#utility.yul\":2202:2220   */\n  0x64\n  dup3\n  add\n    /* \"#utility.yul\":2195:2246   */\n  mstore\n    /* \"#utility.yul\":2263:2282   */\n  0x84\n  add\n    /* \"contracts/libraries/TimeLock.sol\":2245:2361  require(owner() == msg.sender || _maintainer == msg.sender, \"operator: caller is not allowed to call this function\") */\n  tag_24\n    /* \"#utility.yul\":1871:2288   */\n  jump\n    /* \"contracts/libraries/TimeLock.sol\":2245:2361  require(owner() == msg.sender || _maintainer == msg.sender, \"operator: caller is not allowed to call this function\") */\ntag_58:\n    /* \"contracts/libraries/TimeLock.sol\":4413:4414  0 */\n  0x00\n    /* \"contracts/libraries/TimeLock.sol\":4397:4405  timelock */\n  0x01\n    /* \"contracts/libraries/TimeLock.sol\":4406:4409  _fn */\n  dup3\n    /* \"contracts/libraries/TimeLock.sol\":4397:4410  timelock[_fn] */\n  mload(0x40)\n  tag_62\n  swap2\n  swap1\n  tag_29\n  jump\t// in\ntag_62:\n  swap1\n  dup2\n  mstore\n  mload(0x40)\n  swap1\n  dup2\n  swap1\n  sub\n  0x20\n  add\n  swap1\n  keccak256\n    /* \"contracts/libraries/TimeLock.sol\":4397:4414  timelock[_fn] = 0 */\n  sstore\n  pop\n    /* \"contracts/libraries/TimeLock.sol\":4317:4421  function lockFunction(string memory _fn) public onlyMaintainerOrOwner {... */\n  jump\t// out\n    /* \"#utility.yul\":14:318   */\ntag_3:\n    /* \"#utility.yul\":98:104   */\n  0x00\n    /* \"#utility.yul\":151:153   */\n  0x20\n    /* \"#utility.yul\":139:148   */\n  dup3\n    /* \"#utility.yul\":130:137   */\n  dup5\n    /* \"#utility.yul\":126:149   */\n  sub\n    /* \"#utility.yul\":122:154   */\n  slt\n    /* \"#utility.yul\":119:171   */\n  iszero\n  tag_65\n  jumpi\n    /* \"#utility.yul\":167:168   */\n  0x00\n    /* \"#utility.yul\":164:165   */\n  dup1\n    /* \"#utility.yul\":157:169   */\n  revert\n    /* \"#utility.yul\":119:171   */\ntag_65:\n    /* \"#utility.yul\":193:209   */\n  dup2\n  mload\n  sub(shl(0xa0, 0x01), 0x01)\n    /* \"#utility.yul\":238:269   */\n  dup2\n  and\n    /* \"#utility.yul\":228:270   */\n  dup2\n  eq\n    /* \"#utility.yul\":218:288   */\n  tag_66\n  jumpi\n    /* \"#utility.yul\":284:285   */\n  0x00\n    /* \"#utility.yul\":281:282   */\n  dup1\n    /* \"#utility.yul\":274:286   */\n  revert\n    /* \"#utility.yul\":218:288   */\ntag_66:\n    /* \"#utility.yul\":307:312   */\n  swap4\n    /* \"#utility.yul\":14:318   */\n  swap3\n  pop\n  pop\n  pop\n  jump\t// out\n    /* \"#utility.yul\":323:751   */\ntag_29:\n    /* \"#utility.yul\":454:457   */\n  0x00\n    /* \"#utility.yul\":492:498   */\n  dup3\n    /* \"#utility.yul\":486:499   */\n  mload\n    /* \"#utility.yul\":517:518   */\n  0x00\n    /* \"#utility.yul\":527:656   */\ntag_68:\n    /* \"#utility.yul\":541:547   */\n  dup2\n    /* \"#utility.yul\":538:539   */\n  dup2\n    /* \"#utility.yul\":535:548   */\n  lt\n    /* \"#utility.yul\":527:656   */\n  iszero\n  tag_70\n  jumpi\n    /* \"#utility.yul\":639:643   */\n  0x20\n    /* \"#utility.yul\":623:637   */\n  dup2\n  dup7\n  add\n    /* \"#utility.yul\":619:644   */\n  dup2\n  add\n    /* \"#utility.yul\":613:645   */\n  mload\n    /* \"#utility.yul\":600:611   */\n  dup6\n  dup4\n  add\n    /* \"#utility.yul\":593:646   */\n  mstore\n    /* \"#utility.yul\":556:568   */\n  add\n    /* \"#utility.yul\":527:656   */\n  jump(tag_68)\ntag_70:\n    /* \"#utility.yul\":674:680   */\n  dup2\n    /* \"#utility.yul\":671:672   */\n  dup2\n    /* \"#utility.yul\":668:681   */\n  gt\n    /* \"#utility.yul\":665:713   */\n  iszero\n  tag_71\n  jumpi\n    /* \"#utility.yul\":709:710   */\n  0x00\n    /* \"#utility.yul\":700:706   */\n  dup3\n    /* \"#utility.yul\":695:698   */\n  dup6\n    /* \"#utility.yul\":691:707   */\n  add\n    /* \"#utility.yul\":684:711   */\n  mstore\n    /* \"#utility.yul\":665:713   */\ntag_71:\n  pop\n    /* \"#utility.yul\":729:745   */\n  swap2\n  swap1\n  swap2\n  add\n  swap3\n    /* \"#utility.yul\":323:751   */\n  swap2\n  pop\n  pop\n  jump\t// out\n    /* \"#utility.yul\":2293:2518   */\ntag_35:\n    /* \"#utility.yul\":2333:2336   */\n  0x00\n    /* \"#utility.yul\":2364:2365   */\n  dup3\n    /* \"#utility.yul\":2360:2366   */\n  not\n    /* \"#utility.yul\":2357:2358   */\n  dup3\n    /* \"#utility.yul\":2354:2367   */\n  gt\n    /* \"#utility.yul\":2351:2487   */\n  iszero\n  tag_77\n  jumpi\n    /* \"#utility.yul\":2409:2419   */\n  0x4e487b71\n    /* \"#utility.yul\":2404:2407   */\n  0xe0\n    /* \"#utility.yul\":2400:2420   */\n  shl\n    /* \"#utility.yul\":2397:2398   */\n  0x00\n    /* \"#utility.yul\":2390:2421   */\n  mstore\n    /* \"#utility.yul\":2444:2448   */\n  0x11\n    /* \"#utility.yul\":2441:2442   */\n  0x04\n    /* \"#utility.yul\":2434:2449   */\n  mstore\n    /* \"#utility.yul\":2472:2476   */\n  0x24\n    /* \"#utility.yul\":2469:2470   */\n  0x00\n    /* \"#utility.yul\":2462:2477   */\n  revert\n    /* \"#utility.yul\":2351:2487   */\ntag_77:\n  pop\n    /* \"#utility.yul\":2503:2512   */\n  add\n  swap1\n    /* \"#utility.yul\":2293:2518   */\n  jump\t// out\ntag_63:\n    /* \"contracts/chains/polygon/RewardSystem.sol\":442:6820  contract RewardSystem is Ownable, TimeLock {... */\n  dataSize(sub_0)\n  dup1\n  dataOffset(sub_0)\n  0x00\n  codecopy\n  0x00\n  return\nstop\ndata_9924ebdf1add33d25d4ef888e16131f0a5687b0580a36c21b5c301a6c462effe 4f776e61626c653a2063616c6c6572206973206e6f7420746865206f776e6572\n\nsub_0: assembly {\n        /* \"contracts/chains/polygon/RewardSystem.sol\":442:6820  contract RewardSystem is Ownable, TimeLock {... */\n      mstore(0x40, 0x80)\n      jumpi(tag_1, lt(calldatasize, 0x04))\n      shr(0xe0, calldataload(0x00))\n      dup1\n      0x9850d32b\n      gt\n      tag_28\n      jumpi\n      dup1\n      0xc0d78655\n      gt\n      tag_29\n      jumpi\n      dup1\n      0xf2fde38b\n      gt\n      tag_30\n      jumpi\n      dup1\n      0xf2fde38b\n      eq\n      tag_24\n      jumpi\n      dup1\n      0xf4762fd6\n      eq\n      tag_25\n      jumpi\n      dup1\n      0xf8cf31cb\n      eq\n      tag_26\n      jumpi\n      dup1\n      0xf98080c0\n      eq\n      tag_27\n      jumpi\n      0x00\n      dup1\n      revert\n    tag_30:\n      dup1\n      0xc0d78655\n      eq\n      tag_21\n      jumpi\n      dup1\n      0xd6e0ece2\n      eq\n      tag_22\n      jumpi\n      dup1\n      0xedae876f\n      eq\n      tag_23\n      jumpi\n      0x00\n      dup1\n      revert\n    tag_29:\n      dup1\n      0x9850d32b\n      eq\n      tag_15\n      jumpi\n      dup1\n      0x9f531156\n      eq\n      tag_16\n      jumpi\n      dup1\n      0xa221a15f\n      eq\n      tag_17\n      jumpi\n      dup1\n      0xa347511a\n      eq\n      tag_18\n      jumpi\n      dup1\n      0xa607494a\n      eq\n      tag_19\n      jumpi\n      dup1\n      0xb59c6e0e\n      eq\n      tag_20\n      jumpi\n      0x00\n      dup1\n      revert\n    tag_28:\n      dup1\n      0x63cd79b7\n      gt\n      tag_31\n      jumpi\n      dup1\n      0x63cd79b7\n      eq\n      tag_9\n      jumpi\n      dup1\n      0x715018a6\n      eq\n      tag_10\n      jumpi\n      dup1\n      0x7d6dfb7e\n      eq\n      tag_11\n      jumpi\n      dup1\n      0x7ef189f8\n      eq\n      tag_12\n      jumpi\n      dup1\n      0x87df241f\n      eq\n      tag_13\n      jumpi\n      dup1\n      0x8da5cb5b\n      eq\n      tag_14\n      jumpi\n      0x00\n      dup1\n      revert\n    tag_31:\n      dup1\n      0x11a63e17\n      eq\n      tag_3\n      jumpi\n      dup1\n      0x12065fe0\n      eq\n      tag_4\n      jumpi\n      dup1\n      0x13ea5d29\n      eq\n      tag_5\n      jumpi\n      dup1\n      0x478a55eb\n      eq\n      tag_6\n      jumpi\n      dup1\n      0x4a938f00\n      eq\n      tag_7\n      jumpi\n      dup1\n      0x4e71d92d\n      eq\n      tag_8\n      jumpi\n      0x00\n      dup1\n      revert\n    tag_1:\n      jumpi(tag_2, calldatasize)\n      stop\n    tag_2:\n      0x00\n      dup1\n      revert\n        /* \"contracts/chains/polygon/RewardSystem.sol\":1053:1123  address public _devWallet = 0x2EA9CA0ca8043575f2189CFF9897B575b0c7e857 */\n    tag_3:\n      callvalue\n      dup1\n      iszero\n      tag_34\n      jumpi\n      0x00\n      dup1\n      revert\n    tag_34:\n      pop\n      sload(0x06)\n      tag_35\n      swap1\n      sub(shl(0xa0, 0x01), 0x01)\n      and\n      dup2\n      jump\n    tag_35:\n      mload(0x40)\n      sub(shl(0xa0, 0x01), 0x01)\n        /* \"#utility.yul\":6235:6267   */\n      swap1\n      swap2\n      and\n        /* \"#utility.yul\":6217:6268   */\n      dup2\n      mstore\n        /* \"#utility.yul\":6205:6207   */\n      0x20\n        /* \"#utility.yul\":6190:6208   */\n      add\n        /* \"contracts/chains/polygon/RewardSystem.sol\":1053:1123  address public _devWallet = 0x2EA9CA0ca8043575f2189CFF9897B575b0c7e857 */\n    tag_37:\n      mload(0x40)\n      dup1\n      swap2\n      sub\n      swap1\n      return\n        /* \"contracts/chains/polygon/RewardSystem.sol\":2556:2669  function getBalance() public view returns (uint256) {... */\n    tag_4:\n      callvalue\n      dup1\n      iszero\n      tag_39\n      jumpi\n      0x00\n      dup1\n      revert\n    tag_39:\n      pop\n      tag_40\n      tag_41\n      jump\t// in\n    tag_40:\n      mload(0x40)\n        /* \"#utility.yul\":12998:13023   */\n      swap1\n      dup2\n      mstore\n        /* \"#utility.yul\":12986:12988   */\n      0x20\n        /* \"#utility.yul\":12971:12989   */\n      add\n        /* \"contracts/chains/polygon/RewardSystem.sol\":2556:2669  function getBalance() public view returns (uint256) {... */\n      tag_37\n        /* \"#utility.yul\":12852:13029   */\n      jump\n        /* \"contracts/libraries/TimeLock.sol\":3191:3617  function setMaintainer(address _newMaintainer) public onlyMaintainerOrOwner locked(\"maintainer\") {... */\n    tag_5:\n      callvalue\n      dup1\n      iszero\n      tag_44\n      jumpi\n      0x00\n      dup1\n      revert\n    tag_44:\n      pop\n      tag_45\n      tag_46\n      calldatasize\n      0x04\n      tag_47\n      jump\t// in\n    tag_46:\n      tag_48\n      jump\t// in\n    tag_45:\n      stop\n        /* \"contracts/chains/polygon/RewardSystem.sol\":4234:4895  function sendRewards(uint256[] memory amounts, address[] memory addresses) public onlyOwner {... */\n    tag_6:\n      callvalue\n      dup1\n      iszero\n      tag_49\n      jumpi\n      0x00\n      dup1\n      revert\n    tag_49:\n      pop\n      tag_45\n      tag_51\n      calldatasize\n      0x04\n      tag_52\n      jump\t// in\n    tag_51:\n      tag_53\n      jump\t// in\n        /* \"contracts/chains/polygon/RewardSystem.sol\":6207:6411  function sendRewardAndAdjustGasCost(uint256[] memory amounts, address[] memory addresses, uint256 gasCost) public onlyOwner {... */\n    tag_7:\n      callvalue\n      dup1\n      iszero\n      tag_54\n      jumpi\n      0x00\n      dup1\n      revert\n    tag_54:\n      pop\n      tag_45\n      tag_56\n      calldatasize\n      0x04\n      tag_57\n      jump\t// in\n    tag_56:\n      tag_58\n      jump\t// in\n        /* \"contracts/chains/polygon/RewardSystem.sol\":6421:6818  function claim() public payable {... */\n    tag_8:\n      tag_45\n      tag_60\n      jump\t// in\n        /* \"contracts/chains/polygon/RewardSystem.sol\":3514:3797  function changeOracleWallet(address oracleWallet) public onlyOwner locked(\"changeOracleWallet\") {... */\n    tag_9:\n      callvalue\n      dup1\n      iszero\n      tag_61\n      jumpi\n      0x00\n      dup1\n      revert\n    tag_61:\n      pop\n      tag_45\n      tag_63\n      calldatasize\n      0x04\n      tag_47\n      jump\t// in\n    tag_63:\n      tag_64\n      jump\t// in\n        /* \"@openzeppelin/contracts/access/Ownable.sol\":1605:1697  function renounceOwnership() public virtual onlyOwner {... */\n    tag_10:\n      callvalue\n      dup1\n      iszero\n      tag_65\n      jumpi\n      0x00\n      dup1\n      revert\n    tag_65:\n      pop\n      tag_45\n      tag_67\n      jump\t// in\n        /* \"contracts/chains/polygon/RewardSystem.sol\":875:915  mapping(address => bool) public _rewards */\n    tag_11:\n      callvalue\n      dup1\n      iszero\n      tag_68\n      jumpi\n      0x00\n      dup1\n      revert\n    tag_68:\n      pop\n      tag_69\n      tag_70\n      calldatasize\n      0x04\n      tag_47\n      jump\t// in\n    tag_70:\n      mstore(0x20, 0x03)\n      0x00\n      swap1\n      dup2\n      mstore\n      0x40\n      swap1\n      keccak256\n      sload\n      0xff\n      and\n      dup2\n      jump\n    tag_69:\n      mload(0x40)\n        /* \"#utility.yul\":6723:6737   */\n      swap1\n      iszero\n        /* \"#utility.yul\":6716:6738   */\n      iszero\n        /* \"#utility.yul\":6698:6739   */\n      dup2\n      mstore\n        /* \"#utility.yul\":6686:6688   */\n      0x20\n        /* \"#utility.yul\":6671:6689   */\n      add\n        /* \"contracts/chains/polygon/RewardSystem.sol\":875:915  mapping(address => bool) public _rewards */\n      tag_37\n        /* \"#utility.yul\":6558:6745   */\n      jump\n        /* \"contracts/chains/polygon/RewardSystem.sol\":921:963  uint256 public _gasCost = 2100000000000000 */\n    tag_12:\n      callvalue\n      dup1\n      iszero\n      tag_74\n      jumpi\n      0x00\n      dup1\n      revert\n    tag_74:\n      pop\n      tag_40\n      sload(0x04)\n      dup2\n      jump\n        /* \"contracts/chains/polygon/RewardSystem.sol\":3004:3168  function adjustGasCost(uint256 gasCost) public onlyOwner locked(\"adjustGasCost\") {... */\n    tag_13:\n      callvalue\n      dup1\n      iszero\n      tag_78\n      jumpi\n      0x00\n      dup1\n      revert\n    tag_78:\n      pop\n      tag_45\n      tag_80\n      calldatasize\n      0x04\n      tag_81\n      jump\t// in\n    tag_80:\n      tag_82\n      jump\t// in\n        /* \"@openzeppelin/contracts/access/Ownable.sol\":973:1058  function owner() public view virtual returns (address) {... */\n    tag_14:\n      callvalue\n      dup1\n      iszero\n      tag_83\n      jumpi\n      0x00\n      dup1\n      revert\n    tag_83:\n      pop\n        /* \"@openzeppelin/contracts/access/Ownable.sol\":1019:1026  address */\n      0x00\n        /* \"@openzeppelin/contracts/access/Ownable.sol\":1045:1051  _owner */\n      sload\n      sub(shl(0xa0, 0x01), 0x01)\n      and\n        /* \"@openzeppelin/contracts/access/Ownable.sol\":973:1058  function owner() public view virtual returns (address) {... */\n      jump(tag_35)\n        /* \"contracts/libraries/TimeLock.sol\":2770:2857  function maintainer() public view returns (address) {... */\n    tag_15:\n      callvalue\n      dup1\n      iszero\n      tag_87\n      jumpi\n      0x00\n      dup1\n      revert\n    tag_87:\n      pop\n        /* \"contracts/libraries/TimeLock.sol\":2839:2850  _maintainer */\n      and(sub(shl(0xa0, 0x01), 0x01), sload(0x02))\n        /* \"contracts/libraries/TimeLock.sol\":2770:2857  function maintainer() public view returns (address) {... */\n      jump(tag_35)\n        /* \"contracts/libraries/TimeLock.sol\":4317:4421  function lockFunction(string memory _fn) public onlyMaintainerOrOwner {... */\n    tag_16:\n      callvalue\n      dup1\n      iszero\n      tag_91\n      jumpi\n      0x00\n      dup1\n      revert\n    tag_91:\n      pop\n      tag_45\n      tag_93\n      calldatasize\n      0x04\n      tag_94\n      jump\t// in\n    tag_93:\n      tag_95\n      jump\t// in\n        /* \"contracts/chains/polygon/RewardSystem.sol\":974:1047  address public _oracleWallet = 0x912E637522dC32A9653c5B7FD9028c7Ae3ae3Ff6 */\n    tag_17:\n      callvalue\n      dup1\n      iszero\n      tag_96\n      jumpi\n      0x00\n      dup1\n      revert\n    tag_96:\n      pop\n      sload(0x05)\n      tag_35\n      swap1\n      sub(shl(0xa0, 0x01), 0x01)\n      and\n      dup2\n      jump\n        /* \"contracts/libraries/TimeLock.sol\":737:770  bool public isLockEnabled = false */\n    tag_18:\n      callvalue\n      dup1\n      iszero\n      tag_100\n      jumpi\n      0x00\n      dup1\n      revert\n    tag_100:\n      pop\n      sload(0x00)\n      tag_69\n      swap1\n      shl(0xa0, 0x01)\n      swap1\n      div\n      0xff\n      and\n      dup2\n      jump\n        /* \"contracts/libraries/TimeLock.sol\":4100:4284  function unlockFunction(string memory _fn) public onlyMaintainerOrOwner {... */\n    tag_19:\n      callvalue\n      dup1\n      iszero\n      tag_104\n      jumpi\n      0x00\n      dup1\n      revert\n    tag_104:\n      pop\n      tag_45\n      tag_106\n      calldatasize\n      0x04\n      tag_94\n      jump\t// in\n    tag_106:\n      tag_107\n      jump\t// in\n        /* \"contracts/chains/polygon/RewardSystem.sol\":1134:1160  IERC20 public _rewardToken */\n    tag_20:\n      callvalue\n      dup1\n      iszero\n      tag_108\n      jumpi\n      0x00\n      dup1\n      revert\n    tag_108:\n      pop\n      sload(0x07)\n      tag_35\n      swap1\n      sub(shl(0xa0, 0x01), 0x01)\n      and\n      dup2\n      jump\n        /* \"contracts/chains/polygon/RewardSystem.sol\":3807:3903  function setRouter(IUniswapV2Router02 router) public onlyOwner {... */\n    tag_21:\n      callvalue\n      dup1\n      iszero\n      tag_113\n      jumpi\n      0x00\n      dup1\n      revert\n    tag_113:\n      pop\n      tag_45\n      tag_115\n      calldatasize\n      0x04\n      tag_47\n      jump\t// in\n    tag_115:\n      tag_117\n      jump\t// in\n        /* \"contracts/chains/polygon/RewardSystem.sol\":4905:5635  function sendRewardsAsEth(uint256 amount, address user) public onlyOwner {... */\n    tag_22:\n      callvalue\n      dup1\n      iszero\n      tag_118\n      jumpi\n      0x00\n      dup1\n      revert\n    tag_118:\n      pop\n      tag_45\n      tag_120\n      calldatasize\n      0x04\n      tag_121\n      jump\t// in\n    tag_120:\n      tag_122\n      jump\t// in\n        /* \"contracts/chains/polygon/RewardSystem.sol\":1171:1269  IUniswapV2Router02 public _router = IUniswapV2Router02(0xbdd4e5660839a088573191A9889A262c0Efc0983) */\n    tag_23:\n      callvalue\n      dup1\n      iszero\n      tag_123\n      jumpi\n      0x00\n      dup1\n      revert\n    tag_123:\n      pop\n      sload(0x08)\n      tag_35\n      swap1\n      sub(shl(0xa0, 0x01), 0x01)\n      and\n      dup2\n      jump\n        /* \"@openzeppelin/contracts/access/Ownable.sol\":1846:2035  function transferOwnership(address newOwner) public virtual onlyOwner {... */\n    tag_24:\n      callvalue\n      dup1\n      iszero\n      tag_128\n      jumpi\n      0x00\n      dup1\n      revert\n    tag_128:\n      pop\n      tag_45\n      tag_130\n      calldatasize\n      0x04\n      tag_47\n      jump\t// in\n    tag_130:\n      tag_131\n      jump\t// in\n        /* \"contracts/libraries/TimeLock.sol\":3627:3751  function setTimelockEnabled() public onlyMaintainerOrOwner {... */\n    tag_25:\n      callvalue\n      dup1\n      iszero\n      tag_132\n      jumpi\n      0x00\n      dup1\n      revert\n    tag_132:\n      pop\n      tag_45\n      tag_134\n      jump\t// in\n        /* \"contracts/chains/polygon/RewardSystem.sol\":3178:3504  function updateRewardToken(IERC20 rewardToken) public onlyOwner locked(\"updateRewardToken\") {... */\n    tag_26:\n      callvalue\n      dup1\n      iszero\n      tag_135\n      jumpi\n      0x00\n      dup1\n      revert\n    tag_135:\n      pop\n      tag_45\n      tag_137\n      calldatasize\n      0x04\n      tag_47\n      jump\t// in\n    tag_137:\n      tag_139\n      jump\t// in\n        /* \"contracts/libraries/TimeLock.sol\":776:818  mapping(string => uint256) public timelock */\n    tag_27:\n      callvalue\n      dup1\n      iszero\n      tag_140\n      jumpi\n      0x00\n      dup1\n      revert\n    tag_140:\n      pop\n      tag_40\n      tag_142\n      calldatasize\n      0x04\n      tag_94\n      jump\t// in\n    tag_142:\n      dup1\n      mload\n      0x20\n      dup2\n      dup4\n      add\n      dup2\n      add\n      dup1\n      mload\n      0x01\n      dup3\n      mstore\n      swap3\n      dup3\n      add\n      swap2\n      swap1\n      swap4\n      add\n      keccak256\n      swap2\n      mstore\n      sload\n      dup2\n      jump\n        /* \"contracts/chains/polygon/RewardSystem.sol\":2556:2669  function getBalance() public view returns (uint256) {... */\n    tag_41:\n        /* \"contracts/chains/polygon/RewardSystem.sol\":2625:2637  _rewardToken */\n      sload(0x07)\n        /* \"contracts/chains/polygon/RewardSystem.sol\":2625:2662  _rewardToken.balanceOf(address(this)) */\n      mload(0x40)\n      shl(0xe0, 0x70a08231)\n      dup2\n      mstore\n        /* \"contracts/chains/polygon/RewardSystem.sol\":2656:2660  this */\n      address\n        /* \"contracts/chains/polygon/RewardSystem.sol\":2625:2662  _rewardToken.balanceOf(address(this)) */\n      0x04\n      dup3\n      add\n        /* \"#utility.yul\":6217:6268   */\n      mstore\n        /* \"contracts/chains/polygon/RewardSystem.sol\":2599:2606  uint256 */\n      0x00\n      swap2\n      sub(shl(0xa0, 0x01), 0x01)\n        /* \"contracts/chains/polygon/RewardSystem.sol\":2625:2637  _rewardToken */\n      and\n      swap1\n        /* \"contracts/chains/polygon/RewardSystem.sol\":2625:2647  _rewardToken.balanceOf */\n      0x70a08231\n      swap1\n        /* \"#utility.yul\":6190:6208   */\n      0x24\n      add\n        /* \"contracts/chains/polygon/RewardSystem.sol\":2625:2662  _rewardToken.balanceOf(address(this)) */\n      0x20\n      mload(0x40)\n      dup1\n      dup4\n      sub\n      dup2\n      dup7\n      dup1\n      extcodesize\n      iszero\n      dup1\n      iszero\n      tag_147\n      jumpi\n      0x00\n      dup1\n      revert\n    tag_147:\n      pop\n      gas\n      staticcall\n      iszero\n      dup1\n      iszero\n      tag_149\n      jumpi\n      returndatasize\n      0x00\n      dup1\n      returndatacopy\n      revert(0x00, returndatasize)\n    tag_149:\n      pop\n      pop\n      pop\n      pop\n      mload(0x40)\n      returndatasize\n      not(0x1f)\n      0x1f\n      dup3\n      add\n      and\n      dup3\n      add\n      dup1\n      0x40\n      mstore\n      pop\n      dup2\n      add\n      swap1\n      tag_150\n      swap2\n      swap1\n      tag_151\n      jump\t// in\n    tag_150:\n        /* \"contracts/chains/polygon/RewardSystem.sol\":2618:2662  return _rewardToken.balanceOf(address(this)) */\n      swap1\n      pop\n        /* \"contracts/chains/polygon/RewardSystem.sol\":2556:2669  function getBalance() public view returns (uint256) {... */\n      swap1\n      jump\t// out\n        /* \"contracts/libraries/TimeLock.sol\":3191:3617  function setMaintainer(address _newMaintainer) public onlyMaintainerOrOwner locked(\"maintainer\") {... */\n    tag_48:\n        /* \"contracts/libraries/TimeLock.sol\":2264:2274  msg.sender */\n      caller\n        /* \"contracts/libraries/TimeLock.sol\":2253:2260  owner() */\n      tag_153\n        /* \"@openzeppelin/contracts/access/Ownable.sol\":1019:1026  address */\n      0x00\n        /* \"@openzeppelin/contracts/access/Ownable.sol\":1045:1051  _owner */\n      sload\n      sub(shl(0xa0, 0x01), 0x01)\n      and\n      swap1\n        /* \"@openzeppelin/contracts/access/Ownable.sol\":973:1058  function owner() public view virtual returns (address) {... */\n      jump\n        /* \"contracts/libraries/TimeLock.sol\":2253:2260  owner() */\n    tag_153:\n      sub(shl(0xa0, 0x01), 0x01)\n        /* \"contracts/libraries/TimeLock.sol\":2253:2274  owner() == msg.sender */\n      and\n      eq\n        /* \"contracts/libraries/TimeLock.sol\":2253:2303  owner() == msg.sender || _maintainer == msg.sender */\n      dup1\n      tag_154\n      jumpi\n      pop\n        /* \"contracts/libraries/TimeLock.sol\":2278:2289  _maintainer */\n      and(sub(shl(0xa0, 0x01), 0x01), sload(0x02))\n        /* \"contracts/libraries/TimeLock.sol\":2293:2303  msg.sender */\n      caller\n        /* \"contracts/libraries/TimeLock.sol\":2278:2303  _maintainer == msg.sender */\n      eq\n        /* \"contracts/libraries/TimeLock.sol\":2253:2303  owner() == msg.sender || _maintainer == msg.sender */\n    tag_154:\n        /* \"contracts/libraries/TimeLock.sol\":2245:2361  require(owner() == msg.sender || _maintainer == msg.sender, \"operator: caller is not allowed to call this function\") */\n      tag_155\n      jumpi\n      mload(0x40)\n      shl(0xe5, 0x461bcd)\n      dup2\n      mstore\n      0x04\n      add\n      tag_156\n      swap1\n      tag_157\n      jump\t// in\n    tag_156:\n      mload(0x40)\n      dup1\n      swap2\n      sub\n      swap1\n      revert\n    tag_155:\n        /* \"contracts/libraries/TimeLock.sol\":1945:2188  modifier locked(string memory _fn) {... */\n      0x40\n      dup1\n      mload\n      dup1\n      dup3\n      add\n      swap1\n      swap2\n      mstore\n      0x0a\n      dup2\n      mstore\n      shl(0xb1, 0x36b0b4b73a30b4b732b9)\n      0x20\n      dup3\n      add\n      mstore\n      0x00\n        /* \"contracts/libraries/TimeLock.sol\":1999:2012  isLockEnabled */\n      sload\n      shl(0xa0, 0x01)\n      swap1\n      div\n      0xff\n      and\n        /* \"contracts/libraries/TimeLock.sol\":1998:2012  !isLockEnabled */\n      iszero\n      dup1\n        /* \"contracts/libraries/TimeLock.sol\":1998:2120  !isLockEnabled || (timelock[_fn] != 0 && timelock[_fn] <= block.timestamp && timelock[_fn] + _TIMELOCK >= block.timestamp) */\n      tag_164\n      jumpi\n      pop\n        /* \"contracts/libraries/TimeLock.sol\":2017:2025  timelock */\n      0x01\n        /* \"contracts/libraries/TimeLock.sol\":2026:2029  _fn */\n      dup2\n        /* \"contracts/libraries/TimeLock.sol\":2017:2030  timelock[_fn] */\n      mload(0x40)\n      tag_160\n      swap2\n      swap1\n      tag_367\n      jump\t// in\n    tag_160:\n      swap1\n      dup2\n      mstore\n      0x20\n      add\n      mload(0x40)\n      dup1\n      swap2\n      sub\n      swap1\n      keccak256\n      sload\n        /* \"contracts/libraries/TimeLock.sol\":2034:2035  0 */\n      0x00\n        /* \"contracts/libraries/TimeLock.sol\":2017:2035  timelock[_fn] != 0 */\n      eq\n      iszero\n        /* \"contracts/libraries/TimeLock.sol\":2017:2071  timelock[_fn] != 0 && timelock[_fn] <= block.timestamp */\n      dup1\n      iszero\n      tag_162\n      jumpi\n      pop\n        /* \"contracts/libraries/TimeLock.sol\":2056:2071  block.timestamp */\n      timestamp\n        /* \"contracts/libraries/TimeLock.sol\":2039:2047  timelock */\n      0x01\n        /* \"contracts/libraries/TimeLock.sol\":2048:2051  _fn */\n      dup3\n        /* \"contracts/libraries/TimeLock.sol\":2039:2052  timelock[_fn] */\n      mload(0x40)\n      tag_163\n      swap2\n      swap1\n      tag_367\n      jump\t// in\n    tag_163:\n      swap1\n      dup2\n      mstore\n      0x20\n      add\n      mload(0x40)\n      dup1\n      swap2\n      sub\n      swap1\n      keccak256\n      sload\n        /* \"contracts/libraries/TimeLock.sol\":2039:2071  timelock[_fn] <= block.timestamp */\n      gt\n      iszero\n        /* \"contracts/libraries/TimeLock.sol\":2017:2071  timelock[_fn] != 0 && timelock[_fn] <= block.timestamp */\n    tag_162:\n        /* \"contracts/libraries/TimeLock.sol\":2017:2119  timelock[_fn] != 0 && timelock[_fn] <= block.timestamp && timelock[_fn] + _TIMELOCK >= block.timestamp */\n      dup1\n      iszero\n      tag_164\n      jumpi\n      pop\n        /* \"contracts/libraries/TimeLock.sol\":2104:2119  block.timestamp */\n      timestamp\n        /* \"contracts/libraries/TimeLock.sol\":861:867  1 days */\n      0x015180\n        /* \"contracts/libraries/TimeLock.sol\":2075:2083  timelock */\n      0x01\n        /* \"contracts/libraries/TimeLock.sol\":2084:2087  _fn */\n      dup4\n        /* \"contracts/libraries/TimeLock.sol\":2075:2088  timelock[_fn] */\n      mload(0x40)\n      tag_165\n      swap2\n      swap1\n      tag_367\n      jump\t// in\n    tag_165:\n      swap1\n      dup2\n      mstore\n      0x20\n      add\n      mload(0x40)\n      dup1\n      swap2\n      sub\n      swap1\n      keccak256\n      sload\n        /* \"contracts/libraries/TimeLock.sol\":2075:2100  timelock[_fn] + _TIMELOCK */\n      tag_166\n      swap2\n      swap1\n      tag_167\n      jump\t// in\n    tag_166:\n        /* \"contracts/libraries/TimeLock.sol\":2075:2119  timelock[_fn] + _TIMELOCK >= block.timestamp */\n      lt\n      iszero\n        /* \"contracts/libraries/TimeLock.sol\":2017:2119  timelock[_fn] != 0 && timelock[_fn] <= block.timestamp && timelock[_fn] + _TIMELOCK >= block.timestamp */\n    tag_164:\n        /* \"contracts/libraries/TimeLock.sol\":1990:2143  require(!isLockEnabled || (timelock[_fn] != 0 && timelock[_fn] <= block.timestamp && timelock[_fn] + _TIMELOCK >= block.timestamp), \"Function is locked\") */\n      tag_168\n      jumpi\n      mload(0x40)\n      shl(0xe5, 0x461bcd)\n      dup2\n      mstore\n      0x04\n      add\n      tag_156\n      swap1\n      tag_170\n      jump\t// in\n    tag_168:\n        /* \"contracts/libraries/TimeLock.sol\":3324:3335  _maintainer */\n      sload(0x02)\n      sub(shl(0xa0, 0x01), 0x01)\n        /* \"contracts/libraries/TimeLock.sol\":3306:3335  _newMaintainer != _maintainer */\n      dup4\n      dup2\n      and\n        /* \"contracts/libraries/TimeLock.sol\":3324:3335  _maintainer */\n      swap2\n      and\n        /* \"contracts/libraries/TimeLock.sol\":3306:3335  _newMaintainer != _maintainer */\n      eq\n      dup1\n      iszero\n      swap1\n        /* \"contracts/libraries/TimeLock.sol\":3306:3367  _newMaintainer != _maintainer && _newMaintainer != address(0) */\n      tag_172\n      jumpi\n      pop\n      sub(shl(0xa0, 0x01), 0x01)\n        /* \"contracts/libraries/TimeLock.sol\":3339:3367  _newMaintainer != address(0) */\n      dup3\n      and\n      iszero\n      iszero\n        /* \"contracts/libraries/TimeLock.sol\":3306:3367  _newMaintainer != _maintainer && _newMaintainer != address(0) */\n    tag_172:\n        /* \"contracts/libraries/TimeLock.sol\":3298:3453  require(_newMaintainer != _maintainer && _newMaintainer != address(0), \"ABOAT::setMaintainer: Maintainer can\\'t equal previous maintainer or zero address\") */\n      tag_173\n      jumpi\n      mload(0x40)\n      shl(0xe5, 0x461bcd)\n      dup2\n      mstore\n        /* \"#utility.yul\":9138:9140   */\n      0x20\n        /* \"contracts/libraries/TimeLock.sol\":3298:3453  require(_newMaintainer != _maintainer && _newMaintainer != address(0), \"ABOAT::setMaintainer: Maintainer can\\'t equal previous maintainer or zero address\") */\n      0x04\n      dup3\n      add\n        /* \"#utility.yul\":9120:9141   */\n      mstore\n        /* \"#utility.yul\":9177:9179   */\n      0x50\n        /* \"#utility.yul\":9157:9175   */\n      0x24\n      dup3\n      add\n        /* \"#utility.yul\":9150:9180   */\n      mstore\n        /* \"#utility.yul\":9216:9250   */\n      0x41424f41543a3a7365744d61696e7461696e65723a204d61696e7461696e6572\n        /* \"#utility.yul\":9196:9214   */\n      0x44\n      dup3\n      add\n        /* \"#utility.yul\":9189:9251   */\n      mstore\n        /* \"#utility.yul\":9287:9321   */\n      0x2063616e277420657175616c2070726576696f7573206d61696e7461696e6572\n        /* \"#utility.yul\":9267:9285   */\n      0x64\n      dup3\n      add\n        /* \"#utility.yul\":9260:9322   */\n      mstore\n      shl(0x80, 0x206f72207a65726f2061646472657373)\n        /* \"#utility.yul\":9338:9357   */\n      0x84\n      dup3\n      add\n        /* \"#utility.yul\":9331:9378   */\n      mstore\n        /* \"#utility.yul\":9395:9414   */\n      0xa4\n      add\n        /* \"contracts/libraries/TimeLock.sol\":3298:3453  require(_newMaintainer != _maintainer && _newMaintainer != address(0), \"ABOAT::setMaintainer: Maintainer can\\'t equal previous maintainer or zero address\") */\n      tag_156\n        /* \"#utility.yul\":8936:9420   */\n      jump\n        /* \"contracts/libraries/TimeLock.sol\":3298:3453  require(_newMaintainer != _maintainer && _newMaintainer != address(0), \"ABOAT::setMaintainer: Maintainer can\\'t equal previous maintainer or zero address\") */\n    tag_173:\n        /* \"contracts/libraries/TimeLock.sol\":3492:3503  _maintainer */\n      0x02\n      dup1\n      sload\n      sub(shl(0xa0, 0x01), 0x01)\n        /* \"contracts/libraries/TimeLock.sol\":3513:3541  _maintainer = _newMaintainer */\n      dup5\n      dup2\n      and\n      not(sub(shl(0xa0, 0x01), 0x01))\n      dup4\n      and\n      dup2\n      or\n      swap1\n      swap4\n      sstore\n        /* \"contracts/libraries/TimeLock.sol\":3556:3610  MaintainerTransferred(previousMaintainer, _maintainer) */\n      mload(0x40)\n        /* \"contracts/libraries/TimeLock.sol\":3492:3503  _maintainer */\n      swap2\n      and\n      swap2\n        /* \"contracts/libraries/TimeLock.sol\":3513:3541  _maintainer = _newMaintainer */\n      swap1\n        /* \"contracts/libraries/TimeLock.sol\":3492:3503  _maintainer */\n      dup3\n      swap1\n        /* \"contracts/libraries/TimeLock.sol\":3556:3610  MaintainerTransferred(previousMaintainer, _maintainer) */\n      0x2f3ffaaaad93928855c8700645d1a3643e6ccfdd500efa9fda048a88f557cf01\n      swap1\n        /* \"contracts/libraries/TimeLock.sol\":3463:3489  address previousMaintainer */\n      0x00\n      swap1\n        /* \"contracts/libraries/TimeLock.sol\":3556:3610  MaintainerTransferred(previousMaintainer, _maintainer) */\n      log3\n        /* \"contracts/libraries/TimeLock.sol\":3288:3617  {... */\n      pop\n        /* \"contracts/libraries/TimeLock.sol\":2164:2181  lockFunction(_fn) */\n      tag_176\n        /* \"contracts/libraries/TimeLock.sol\":2177:2180  _fn */\n      dup2\n        /* \"contracts/libraries/TimeLock.sol\":2164:2176  lockFunction */\n      tag_95\n        /* \"contracts/libraries/TimeLock.sol\":2164:2181  lockFunction(_fn) */\n      jump\t// in\n    tag_176:\n        /* \"contracts/libraries/TimeLock.sol\":2371:2372  _ */\n      pop\n        /* \"contracts/libraries/TimeLock.sol\":3191:3617  function setMaintainer(address _newMaintainer) public onlyMaintainerOrOwner locked(\"maintainer\") {... */\n      pop\n      jump\t// out\n        /* \"contracts/chains/polygon/RewardSystem.sol\":4234:4895  function sendRewards(uint256[] memory amounts, address[] memory addresses) public onlyOwner {... */\n    tag_53:\n        /* \"@openzeppelin/contracts/access/Ownable.sol\":1019:1026  address */\n      0x00\n        /* \"@openzeppelin/contracts/access/Ownable.sol\":1045:1051  _owner */\n      sload\n      sub(shl(0xa0, 0x01), 0x01)\n      and\n        /* \"@openzeppelin/contracts/utils/Context.sol\":665:675  msg.sender */\n      caller\n        /* \"@openzeppelin/contracts/access/Ownable.sol\":1185:1208  owner() == _msgSender() */\n      eq\n        /* \"@openzeppelin/contracts/access/Ownable.sol\":1177:1245  require(owner() == _msgSender(), \"Ownable: caller is not the owner\") */\n      tag_181\n      jumpi\n      mload(0x40)\n      shl(0xe5, 0x461bcd)\n      dup2\n      mstore\n      0x04\n      add\n      tag_156\n      swap1\n      tag_183\n      jump\t// in\n    tag_181:\n        /* \"contracts/chains/polygon/RewardSystem.sol\":4362:4371  addresses */\n      dup1\n        /* \"contracts/chains/polygon/RewardSystem.sol\":4362:4378  addresses.length */\n      mload\n        /* \"contracts/chains/polygon/RewardSystem.sol\":4344:4351  amounts */\n      dup3\n        /* \"contracts/chains/polygon/RewardSystem.sol\":4344:4358  amounts.length */\n      mload\n        /* \"contracts/chains/polygon/RewardSystem.sol\":4344:4378  amounts.length == addresses.length */\n      eq\n        /* \"contracts/chains/polygon/RewardSystem.sol\":4336:4459  require(amounts.length == addresses.length, \"ABOAT::addReward: amounts and addresses must have the same amount of entries\") */\n      tag_185\n      jumpi\n      mload(0x40)\n      shl(0xe5, 0x461bcd)\n      dup2\n      mstore\n        /* \"#utility.yul\":7409:7411   */\n      0x20\n        /* \"contracts/chains/polygon/RewardSystem.sol\":4336:4459  require(amounts.length == addresses.length, \"ABOAT::addReward: amounts and addresses must have the same amount of entries\") */\n      0x04\n      dup3\n      add\n        /* \"#utility.yul\":7391:7412   */\n      mstore\n        /* \"#utility.yul\":7448:7450   */\n      0x4c\n        /* \"#utility.yul\":7428:7446   */\n      0x24\n      dup3\n      add\n        /* \"#utility.yul\":7421:7451   */\n      mstore\n        /* \"#utility.yul\":7487:7521   */\n      0x41424f41543a3a6164645265776172643a20616d6f756e747320616e64206164\n        /* \"#utility.yul\":7467:7485   */\n      0x44\n      dup3\n      add\n        /* \"#utility.yul\":7460:7522   */\n      mstore\n        /* \"#utility.yul\":7558:7592   */\n      0x64726573736573206d7573742068617665207468652073616d6520616d6f756e\n        /* \"#utility.yul\":7538:7556   */\n      0x64\n      dup3\n      add\n        /* \"#utility.yul\":7531:7593   */\n      mstore\n      shl(0xa0, 0x74206f6620656e7472696573)\n        /* \"#utility.yul\":7609:7628   */\n      0x84\n      dup3\n      add\n        /* \"#utility.yul\":7602:7645   */\n      mstore\n        /* \"#utility.yul\":7662:7681   */\n      0xa4\n      add\n        /* \"contracts/chains/polygon/RewardSystem.sol\":4336:4459  require(amounts.length == addresses.length, \"ABOAT::addReward: amounts and addresses must have the same amount of entries\") */\n      tag_156\n        /* \"#utility.yul\":7207:7687   */\n      jump\n        /* \"contracts/chains/polygon/RewardSystem.sol\":4336:4459  require(amounts.length == addresses.length, \"ABOAT::addReward: amounts and addresses must have the same amount of entries\") */\n    tag_185:\n        /* \"contracts/chains/polygon/RewardSystem.sol\":4482:4492  uint index */\n      0x00\n        /* \"contracts/chains/polygon/RewardSystem.sol\":4478:4889  for(uint index = 0; index < addresses.length; index++) {... */\n    tag_188:\n        /* \"contracts/chains/polygon/RewardSystem.sol\":4506:4515  addresses */\n      dup2\n        /* \"contracts/chains/polygon/RewardSystem.sol\":4506:4522  addresses.length */\n      mload\n        /* \"contracts/chains/polygon/RewardSystem.sol\":4498:4503  index */\n      dup2\n        /* \"contracts/chains/polygon/RewardSystem.sol\":4498:4522  index < addresses.length */\n      lt\n        /* \"contracts/chains/polygon/RewardSystem.sol\":4478:4889  for(uint index = 0; index < addresses.length; index++) {... */\n      iszero\n      tag_189\n      jumpi\n        /* \"contracts/chains/polygon/RewardSystem.sol\":4550:4558  _rewards */\n      0x03\n        /* \"contracts/chains/polygon/RewardSystem.sol\":4550:4576  _rewards[addresses[index]] */\n      0x00\n        /* \"contracts/chains/polygon/RewardSystem.sol\":4559:4568  addresses */\n      dup4\n        /* \"contracts/chains/polygon/RewardSystem.sol\":4569:4574  index */\n      dup4\n        /* \"contracts/chains/polygon/RewardSystem.sol\":4559:4575  addresses[index] */\n      dup2\n      mload\n      dup2\n      lt\n      tag_192\n      jumpi\n      tag_192\n      tag_193\n      jump\t// in\n    tag_192:\n      0x20\n      swap1\n      dup2\n      mul\n      swap2\n      swap1\n      swap2\n      add\n      dup2\n      add\n      mload\n      sub(shl(0xa0, 0x01), 0x01)\n        /* \"contracts/chains/polygon/RewardSystem.sol\":4550:4576  _rewards[addresses[index]] */\n      and\n      dup3\n      mstore\n      dup2\n      add\n      swap2\n      swap1\n      swap2\n      mstore\n      0x40\n      add\n      0x00\n      keccak256\n      sload\n      0xff\n      and\n        /* \"contracts/chains/polygon/RewardSystem.sol\":4550:4610  _rewards[addresses[index]] && getBalance() >= amounts[index] */\n      dup1\n      iszero\n      tag_194\n      jumpi\n      pop\n        /* \"contracts/chains/polygon/RewardSystem.sol\":4596:4603  amounts */\n      dup3\n        /* \"contracts/chains/polygon/RewardSystem.sol\":4604:4609  index */\n      dup2\n        /* \"contracts/chains/polygon/RewardSystem.sol\":4596:4610  amounts[index] */\n      dup2\n      mload\n      dup2\n      lt\n      tag_196\n      jumpi\n      tag_196\n      tag_193\n      jump\t// in\n    tag_196:\n      0x20\n      mul\n      0x20\n      add\n      add\n      mload\n        /* \"contracts/chains/polygon/RewardSystem.sol\":4580:4592  getBalance() */\n      tag_197\n        /* \"contracts/chains/polygon/RewardSystem.sol\":4580:4590  getBalance */\n      tag_41\n        /* \"contracts/chains/polygon/RewardSystem.sol\":4580:4592  getBalance() */\n      jump\t// in\n    tag_197:\n        /* \"contracts/chains/polygon/RewardSystem.sol\":4580:4610  getBalance() >= amounts[index] */\n      lt\n      iszero\n        /* \"contracts/chains/polygon/RewardSystem.sol\":4550:4610  _rewards[addresses[index]] && getBalance() >= amounts[index] */\n    tag_194:\n        /* \"contracts/chains/polygon/RewardSystem.sol\":4550:4640  _rewards[addresses[index]] && getBalance() >= amounts[index] && _rewards[addresses[index]] */\n      dup1\n      iszero\n      tag_198\n      jumpi\n      pop\n        /* \"contracts/chains/polygon/RewardSystem.sol\":4614:4622  _rewards */\n      0x03\n        /* \"contracts/chains/polygon/RewardSystem.sol\":4614:4640  _rewards[addresses[index]] */\n      0x00\n        /* \"contracts/chains/polygon/RewardSystem.sol\":4623:4632  addresses */\n      dup4\n        /* \"contracts/chains/polygon/RewardSystem.sol\":4633:4638  index */\n      dup4\n        /* \"contracts/chains/polygon/RewardSystem.sol\":4623:4639  addresses[index] */\n      dup2\n      mload\n      dup2\n      lt\n      tag_200\n      jumpi\n      tag_200\n      tag_193\n      jump\t// in\n    tag_200:\n      0x20\n      swap1\n      dup2\n      mul\n      swap2\n      swap1\n      swap2\n      add\n      dup2\n      add\n      mload\n      sub(shl(0xa0, 0x01), 0x01)\n        /* \"contracts/chains/polygon/RewardSystem.sol\":4614:4640  _rewards[addresses[index]] */\n      and\n      dup3\n      mstore\n      dup2\n      add\n      swap2\n      swap1\n      swap2\n      mstore\n      0x40\n      add\n      0x00\n      keccak256\n      sload\n      0xff\n      and\n        /* \"contracts/chains/polygon/RewardSystem.sol\":4550:4640  _rewards[addresses[index]] && getBalance() >= amounts[index] && _rewards[addresses[index]] */\n    tag_198:\n        /* \"contracts/chains/polygon/RewardSystem.sol\":4547:4879  if(_rewards[addresses[index]] && getBalance() >= amounts[index] && _rewards[addresses[index]]) {... */\n      iszero\n      tag_201\n      jumpi\n        /* \"contracts/chains/polygon/RewardSystem.sol\":4689:4694  false */\n      0x00\n        /* \"contracts/chains/polygon/RewardSystem.sol\":4660:4668  _rewards */\n      0x03\n        /* \"contracts/chains/polygon/RewardSystem.sol\":4660:4686  _rewards[addresses[index]] */\n      0x00\n        /* \"contracts/chains/polygon/RewardSystem.sol\":4669:4678  addresses */\n      dup5\n        /* \"contracts/chains/polygon/RewardSystem.sol\":4679:4684  index */\n      dup5\n        /* \"contracts/chains/polygon/RewardSystem.sol\":4669:4685  addresses[index] */\n      dup2\n      mload\n      dup2\n      lt\n      tag_203\n      jumpi\n      tag_203\n      tag_193\n      jump\t// in\n    tag_203:\n      0x20\n      mul\n      0x20\n      add\n      add\n      mload\n      sub(shl(0xa0, 0x01), 0x01)\n        /* \"contracts/chains/polygon/RewardSystem.sol\":4660:4686  _rewards[addresses[index]] */\n      and\n      sub(shl(0xa0, 0x01), 0x01)\n      and\n      dup2\n      mstore\n      0x20\n      add\n      swap1\n      dup2\n      mstore\n      0x20\n      add\n      0x00\n      keccak256\n      0x00\n        /* \"contracts/chains/polygon/RewardSystem.sol\":4660:4694  _rewards[addresses[index]] = false */\n      0x0100\n      exp\n      dup2\n      sload\n      dup2\n      0xff\n      mul\n      not\n      and\n      swap1\n      dup4\n      iszero\n      iszero\n      mul\n      or\n      swap1\n      sstore\n      pop\n        /* \"contracts/chains/polygon/RewardSystem.sol\":4712:4796  TransferHelper.safeTransfer(address(_rewardToken), addresses[index], amounts[index]) */\n      tag_204\n        /* \"contracts/chains/polygon/RewardSystem.sol\":4748:4760  _rewardToken */\n      0x07\n      0x00\n      swap1\n      sload\n      swap1\n      0x0100\n      exp\n      swap1\n      div\n      sub(shl(0xa0, 0x01), 0x01)\n      and\n        /* \"contracts/chains/polygon/RewardSystem.sol\":4763:4772  addresses */\n      dup4\n        /* \"contracts/chains/polygon/RewardSystem.sol\":4773:4778  index */\n      dup4\n        /* \"contracts/chains/polygon/RewardSystem.sol\":4763:4779  addresses[index] */\n      dup2\n      mload\n      dup2\n      lt\n      tag_206\n      jumpi\n      tag_206\n      tag_193\n      jump\t// in\n    tag_206:\n      0x20\n      mul\n      0x20\n      add\n      add\n      mload\n        /* \"contracts/chains/polygon/RewardSystem.sol\":4781:4788  amounts */\n      dup6\n        /* \"contracts/chains/polygon/RewardSystem.sol\":4789:4794  index */\n      dup5\n        /* \"contracts/chains/polygon/RewardSystem.sol\":4781:4795  amounts[index] */\n      dup2\n      mload\n      dup2\n      lt\n      tag_208\n      jumpi\n      tag_208\n      tag_193\n      jump\t// in\n    tag_208:\n      0x20\n      mul\n      0x20\n      add\n      add\n      mload\n        /* \"contracts/chains/polygon/RewardSystem.sol\":4712:4739  TransferHelper.safeTransfer */\n      tag_209\n        /* \"contracts/chains/polygon/RewardSystem.sol\":4712:4796  TransferHelper.safeTransfer(address(_rewardToken), addresses[index], amounts[index]) */\n      jump\t// in\n    tag_204:\n        /* \"contracts/chains/polygon/RewardSystem.sol\":4849:4856  amounts */\n      dup3\n        /* \"contracts/chains/polygon/RewardSystem.sol\":4857:4862  index */\n      dup2\n        /* \"contracts/chains/polygon/RewardSystem.sol\":4849:4863  amounts[index] */\n      dup2\n      mload\n      dup2\n      lt\n      tag_211\n      jumpi\n      tag_211\n      tag_193\n      jump\t// in\n    tag_211:\n      0x20\n      mul\n      0x20\n      add\n      add\n      mload\n        /* \"contracts/chains/polygon/RewardSystem.sol\":4831:4840  addresses */\n      dup3\n        /* \"contracts/chains/polygon/RewardSystem.sol\":4841:4846  index */\n      dup3\n        /* \"contracts/chains/polygon/RewardSystem.sol\":4831:4847  addresses[index] */\n      dup2\n      mload\n      dup2\n      lt\n      tag_213\n      jumpi\n      tag_213\n      tag_193\n      jump\t// in\n    tag_213:\n      0x20\n      mul\n      0x20\n      add\n      add\n      mload\n      sub(shl(0xa0, 0x01), 0x01)\n        /* \"contracts/chains/polygon/RewardSystem.sol\":4819:4864  SentRewards(addresses[index], amounts[index]) */\n      and\n      0xd9d5e983e9e8a6571ffbeafa6a3c2fbd9f0f44e52607977b5e1e7934f7d91bfc\n      mload(0x40)\n      mload(0x40)\n      dup1\n      swap2\n      sub\n      swap1\n      log3\n        /* \"contracts/chains/polygon/RewardSystem.sol\":4547:4879  if(_rewards[addresses[index]] && getBalance() >= amounts[index] && _rewards[addresses[index]]) {... */\n    tag_201:\n        /* \"contracts/chains/polygon/RewardSystem.sol\":4524:4531  index++ */\n      dup1\n      tag_214\n      dup2\n      tag_215\n      jump\t// in\n    tag_214:\n      swap2\n      pop\n      pop\n        /* \"contracts/chains/polygon/RewardSystem.sol\":4478:4889  for(uint index = 0; index < addresses.length; index++) {... */\n      jump(tag_188)\n    tag_189:\n      pop\n        /* \"contracts/chains/polygon/RewardSystem.sol\":4234:4895  function sendRewards(uint256[] memory amounts, address[] memory addresses) public onlyOwner {... */\n      pop\n      pop\n      jump\t// out\n        /* \"contracts/chains/polygon/RewardSystem.sol\":6207:6411  function sendRewardAndAdjustGasCost(uint256[] memory amounts, address[] memory addresses, uint256 gasCost) public onlyOwner {... */\n    tag_58:\n        /* \"@openzeppelin/contracts/access/Ownable.sol\":1019:1026  address */\n      0x00\n        /* \"@openzeppelin/contracts/access/Ownable.sol\":1045:1051  _owner */\n      sload\n      sub(shl(0xa0, 0x01), 0x01)\n      and\n        /* \"@openzeppelin/contracts/utils/Context.sol\":665:675  msg.sender */\n      caller\n        /* \"@openzeppelin/contracts/access/Ownable.sol\":1185:1208  owner() == _msgSender() */\n      eq\n        /* \"@openzeppelin/contracts/access/Ownable.sol\":1177:1245  require(owner() == _msgSender(), \"Ownable: caller is not the owner\") */\n      tag_219\n      jumpi\n      mload(0x40)\n      shl(0xe5, 0x461bcd)\n      dup2\n      mstore\n      0x04\n      add\n      tag_156\n      swap1\n      tag_183\n      jump\t// in\n    tag_219:\n        /* \"contracts/chains/polygon/RewardSystem.sol\":6341:6363  adjustGasCost(gasCost) */\n      tag_222\n        /* \"contracts/chains/polygon/RewardSystem.sol\":6355:6362  gasCost */\n      dup2\n        /* \"contracts/chains/polygon/RewardSystem.sol\":6341:6354  adjustGasCost */\n      tag_82\n        /* \"contracts/chains/polygon/RewardSystem.sol\":6341:6363  adjustGasCost(gasCost) */\n      jump\t// in\n    tag_222:\n        /* \"contracts/chains/polygon/RewardSystem.sol\":6373:6404  sendRewards(amounts, addresses) */\n      tag_189\n        /* \"contracts/chains/polygon/RewardSystem.sol\":6385:6392  amounts */\n      dup4\n        /* \"contracts/chains/polygon/RewardSystem.sol\":6394:6403  addresses */\n      dup4\n        /* \"contracts/chains/polygon/RewardSystem.sol\":6373:6384  sendRewards */\n      tag_53\n        /* \"contracts/chains/polygon/RewardSystem.sol\":6373:6404  sendRewards(amounts, addresses) */\n      jump\t// in\n        /* \"contracts/chains/polygon/RewardSystem.sol\":6421:6818  function claim() public payable {... */\n    tag_60:\n        /* \"contracts/chains/polygon/RewardSystem.sol\":6481:6491  msg.sender */\n      caller\n        /* \"contracts/chains/polygon/RewardSystem.sol\":6472:6492  _rewards[msg.sender] */\n      0x00\n      swap1\n      dup2\n      mstore\n        /* \"contracts/chains/polygon/RewardSystem.sol\":6472:6480  _rewards */\n      0x03\n        /* \"contracts/chains/polygon/RewardSystem.sol\":6472:6492  _rewards[msg.sender] */\n      0x20\n      mstore\n      0x40\n      swap1\n      keccak256\n      sload\n      0xff\n      and\n        /* \"contracts/chains/polygon/RewardSystem.sol\":6471:6492  !_rewards[msg.sender] */\n      iszero\n        /* \"contracts/chains/polygon/RewardSystem.sol\":6463:6544  require(!_rewards[msg.sender], \"ABOAT::claim: Already allowed to recieve tokens\") */\n      tag_225\n      jumpi\n      mload(0x40)\n      shl(0xe5, 0x461bcd)\n      dup2\n      mstore\n        /* \"#utility.yul\":8722:8724   */\n      0x20\n        /* \"contracts/chains/polygon/RewardSystem.sol\":6463:6544  require(!_rewards[msg.sender], \"ABOAT::claim: Already allowed to recieve tokens\") */\n      0x04\n      dup3\n      add\n        /* \"#utility.yul\":8704:8725   */\n      mstore\n        /* \"#utility.yul\":8761:8763   */\n      0x2f\n        /* \"#utility.yul\":8741:8759   */\n      0x24\n      dup3\n      add\n        /* \"#utility.yul\":8734:8764   */\n      mstore\n        /* \"#utility.yul\":8800:8834   */\n      0x41424f41543a3a636c61696d3a20416c726561647920616c6c6f77656420746f\n        /* \"#utility.yul\":8780:8798   */\n      0x44\n      dup3\n      add\n        /* \"#utility.yul\":8773:8835   */\n      mstore\n      shl(0x88, 0x207265636965766520746f6b656e73)\n        /* \"#utility.yul\":8851:8869   */\n      0x64\n      dup3\n      add\n        /* \"#utility.yul\":8844:8889   */\n      mstore\n        /* \"#utility.yul\":8906:8925   */\n      0x84\n      add\n        /* \"contracts/chains/polygon/RewardSystem.sol\":6463:6544  require(!_rewards[msg.sender], \"ABOAT::claim: Already allowed to recieve tokens\") */\n      tag_156\n        /* \"#utility.yul\":8520:8931   */\n      jump\n        /* \"contracts/chains/polygon/RewardSystem.sol\":6463:6544  require(!_rewards[msg.sender], \"ABOAT::claim: Already allowed to recieve tokens\") */\n    tag_225:\n        /* \"contracts/chains/polygon/RewardSystem.sol\":6575:6583  _gasCost */\n      sload(0x04)\n        /* \"contracts/chains/polygon/RewardSystem.sol\":6562:6571  msg.value */\n      callvalue\n        /* \"contracts/chains/polygon/RewardSystem.sol\":6562:6583  msg.value >= _gasCost */\n      lt\n      iszero\n        /* \"contracts/chains/polygon/RewardSystem.sol\":6554:6667  require(msg.value >= _gasCost, \"ABOAT::claim: Amount of bnb to claim should carry the cost to add the claimable\") */\n      tag_228\n      jumpi\n      mload(0x40)\n      shl(0xe5, 0x461bcd)\n      dup2\n      mstore\n        /* \"#utility.yul\":12152:12154   */\n      0x20\n        /* \"contracts/chains/polygon/RewardSystem.sol\":6554:6667  require(msg.value >= _gasCost, \"ABOAT::claim: Amount of bnb to claim should carry the cost to add the claimable\") */\n      0x04\n      dup3\n      add\n        /* \"#utility.yul\":12134:12155   */\n      mstore\n        /* \"#utility.yul\":12191:12193   */\n      0x4f\n        /* \"#utility.yul\":12171:12189   */\n      0x24\n      dup3\n      add\n        /* \"#utility.yul\":12164:12194   */\n      mstore\n        /* \"#utility.yul\":12230:12264   */\n      0x41424f41543a3a636c61696d3a20416d6f756e74206f6620626e6220746f2063\n        /* \"#utility.yul\":12210:12228   */\n      0x44\n      dup3\n      add\n        /* \"#utility.yul\":12203:12265   */\n      mstore\n        /* \"#utility.yul\":12301:12335   */\n      0x6c61696d2073686f756c642063617272792074686520636f737420746f206164\n        /* \"#utility.yul\":12281:12299   */\n      0x64\n      dup3\n      add\n        /* \"#utility.yul\":12274:12336   */\n      mstore\n      shl(0x88, 0x642074686520636c61696d61626c65)\n        /* \"#utility.yul\":12352:12371   */\n      0x84\n      dup3\n      add\n        /* \"#utility.yul\":12345:12391   */\n      mstore\n        /* \"#utility.yul\":12408:12427   */\n      0xa4\n      add\n        /* \"contracts/chains/polygon/RewardSystem.sol\":6554:6667  require(msg.value >= _gasCost, \"ABOAT::claim: Amount of bnb to claim should carry the cost to add the claimable\") */\n      tag_156\n        /* \"#utility.yul\":11950:12433   */\n      jump\n        /* \"contracts/chains/polygon/RewardSystem.sol\":6554:6667  require(msg.value >= _gasCost, \"ABOAT::claim: Amount of bnb to claim should carry the cost to add the claimable\") */\n    tag_228:\n        /* \"contracts/chains/polygon/RewardSystem.sol\":6708:6721  _oracleWallet */\n      sload(0x05)\n        /* \"contracts/chains/polygon/RewardSystem.sol\":6677:6733  TransferHelper.safeTransferETH(_oracleWallet, msg.value) */\n      tag_231\n      swap1\n      sub(shl(0xa0, 0x01), 0x01)\n        /* \"contracts/chains/polygon/RewardSystem.sol\":6708:6721  _oracleWallet */\n      and\n        /* \"contracts/chains/polygon/RewardSystem.sol\":6723:6732  msg.value */\n      callvalue\n        /* \"contracts/chains/polygon/RewardSystem.sol\":6677:6707  TransferHelper.safeTransferETH */\n      tag_232\n        /* \"contracts/chains/polygon/RewardSystem.sol\":6677:6733  TransferHelper.safeTransferETH(_oracleWallet, msg.value) */\n      jump\t// in\n    tag_231:\n        /* \"contracts/chains/polygon/RewardSystem.sol\":6752:6762  msg.sender */\n      caller\n        /* \"contracts/chains/polygon/RewardSystem.sol\":6743:6763  _rewards[msg.sender] */\n      0x00\n      dup2\n      dup2\n      mstore\n        /* \"contracts/chains/polygon/RewardSystem.sol\":6743:6751  _rewards */\n      0x03\n        /* \"contracts/chains/polygon/RewardSystem.sol\":6743:6763  _rewards[msg.sender] */\n      0x20\n      mstore\n      0x40\n      dup1\n      dup3\n      keccak256\n        /* \"contracts/chains/polygon/RewardSystem.sol\":6743:6770  _rewards[msg.sender] = true */\n      dup1\n      sload\n      not(0xff)\n      and\n        /* \"contracts/chains/polygon/RewardSystem.sol\":6766:6770  true */\n      0x01\n        /* \"contracts/chains/polygon/RewardSystem.sol\":6743:6770  _rewards[msg.sender] = true */\n      or\n      swap1\n      sstore\n        /* \"contracts/chains/polygon/RewardSystem.sol\":6785:6811  EnabledRewards(msg.sender) */\n      mload\n      0x98716c616972f4ef0085deb59c20f6f6a840219c121ad1f3b5413097f3a10357\n      swap2\n        /* \"contracts/chains/polygon/RewardSystem.sol\":6743:6763  _rewards[msg.sender] */\n      swap1\n        /* \"contracts/chains/polygon/RewardSystem.sol\":6785:6811  EnabledRewards(msg.sender) */\n      log2\n        /* \"contracts/chains/polygon/RewardSystem.sol\":6421:6818  function claim() public payable {... */\n      jump\t// out\n        /* \"contracts/chains/polygon/RewardSystem.sol\":3514:3797  function changeOracleWallet(address oracleWallet) public onlyOwner locked(\"changeOracleWallet\") {... */\n    tag_64:\n        /* \"@openzeppelin/contracts/access/Ownable.sol\":1019:1026  address */\n      0x00\n        /* \"@openzeppelin/contracts/access/Ownable.sol\":1045:1051  _owner */\n      sload\n      sub(shl(0xa0, 0x01), 0x01)\n      and\n        /* \"@openzeppelin/contracts/utils/Context.sol\":665:675  msg.sender */\n      caller\n        /* \"@openzeppelin/contracts/access/Ownable.sol\":1185:1208  owner() == _msgSender() */\n      eq\n        /* \"@openzeppelin/contracts/access/Ownable.sol\":1177:1245  require(owner() == _msgSender(), \"Ownable: caller is not the owner\") */\n      tag_236\n      jumpi\n      mload(0x40)\n      shl(0xe5, 0x461bcd)\n      dup2\n      mstore\n      0x04\n      add\n      tag_156\n      swap1\n      tag_183\n      jump\t// in\n    tag_236:\n        /* \"contracts/libraries/TimeLock.sol\":1945:2188  modifier locked(string memory _fn) {... */\n      0x40\n      dup1\n      mload\n      dup1\n      dup3\n      add\n      swap1\n      swap2\n      mstore\n      0x12\n      dup2\n      mstore\n      shl(0x72, 0x18da185b99d953dc9858db1955d85b1b195d)\n      0x20\n      dup3\n      add\n      mstore\n      0x00\n        /* \"contracts/libraries/TimeLock.sol\":1999:2012  isLockEnabled */\n      sload\n      shl(0xa0, 0x01)\n      swap1\n      div\n      0xff\n      and\n        /* \"contracts/libraries/TimeLock.sol\":1998:2012  !isLockEnabled */\n      iszero\n      dup1\n        /* \"contracts/libraries/TimeLock.sol\":1998:2120  !isLockEnabled || (timelock[_fn] != 0 && timelock[_fn] <= block.timestamp && timelock[_fn] + _TIMELOCK >= block.timestamp) */\n      tag_243\n      jumpi\n      pop\n        /* \"contracts/libraries/TimeLock.sol\":2017:2025  timelock */\n      0x01\n        /* \"contracts/libraries/TimeLock.sol\":2026:2029  _fn */\n      dup2\n        /* \"contracts/libraries/TimeLock.sol\":2017:2030  timelock[_fn] */\n      mload(0x40)\n      tag_240\n      swap2\n      swap1\n      tag_367\n      jump\t// in\n    tag_240:\n      swap1\n      dup2\n      mstore\n      0x20\n      add\n      mload(0x40)\n      dup1\n      swap2\n      sub\n      swap1\n      keccak256\n      sload\n        /* \"contracts/libraries/TimeLock.sol\":2034:2035  0 */\n      0x00\n        /* \"contracts/libraries/TimeLock.sol\":2017:2035  timelock[_fn] != 0 */\n      eq\n      iszero\n        /* \"contracts/libraries/TimeLock.sol\":2017:2071  timelock[_fn] != 0 && timelock[_fn] <= block.timestamp */\n      dup1\n      iszero\n      tag_241\n      jumpi\n      pop\n        /* \"contracts/libraries/TimeLock.sol\":2056:2071  block.timestamp */\n      timestamp\n        /* \"contracts/libraries/TimeLock.sol\":2039:2047  timelock */\n      0x01\n        /* \"contracts/libraries/TimeLock.sol\":2048:2051  _fn */\n      dup3\n        /* \"contracts/libraries/TimeLock.sol\":2039:2052  timelock[_fn] */\n      mload(0x40)\n      tag_242\n      swap2\n      swap1\n      tag_367\n      jump\t// in\n    tag_242:\n      swap1\n      dup2\n      mstore\n      0x20\n      add\n      mload(0x40)\n      dup1\n      swap2\n      sub\n      swap1\n      keccak256\n      sload\n        /* \"contracts/libraries/TimeLock.sol\":2039:2071  timelock[_fn] <= block.timestamp */\n      gt\n      iszero\n        /* \"contracts/libraries/TimeLock.sol\":2017:2071  timelock[_fn] != 0 && timelock[_fn] <= block.timestamp */\n    tag_241:\n        /* \"contracts/libraries/TimeLock.sol\":2017:2119  timelock[_fn] != 0 && timelock[_fn] <= block.timestamp && timelock[_fn] + _TIMELOCK >= block.timestamp */\n      dup1\n      iszero\n      tag_243\n      jumpi\n      pop\n        /* \"contracts/libraries/TimeLock.sol\":2104:2119  block.timestamp */\n      timestamp\n        /* \"contracts/libraries/TimeLock.sol\":861:867  1 days */\n      0x015180\n        /* \"contracts/libraries/TimeLock.sol\":2075:2083  timelock */\n      0x01\n        /* \"contracts/libraries/TimeLock.sol\":2084:2087  _fn */\n      dup4\n        /* \"contracts/libraries/TimeLock.sol\":2075:2088  timelock[_fn] */\n      mload(0x40)\n      tag_244\n      swap2\n      swap1\n      tag_367\n      jump\t// in\n    tag_244:\n      swap1\n      dup2\n      mstore\n      0x20\n      add\n      mload(0x40)\n      dup1\n      swap2\n      sub\n      swap1\n      keccak256\n      sload\n        /* \"contracts/libraries/TimeLock.sol\":2075:2100  timelock[_fn] + _TIMELOCK */\n      tag_245\n      swap2\n      swap1\n      tag_167\n      jump\t// in\n    tag_245:\n        /* \"contracts/libraries/TimeLock.sol\":2075:2119  timelock[_fn] + _TIMELOCK >= block.timestamp */\n      lt\n      iszero\n        /* \"contracts/libraries/TimeLock.sol\":2017:2119  timelock[_fn] != 0 && timelock[_fn] <= block.timestamp && timelock[_fn] + _TIMELOCK >= block.timestamp */\n    tag_243:\n        /* \"contracts/libraries/TimeLock.sol\":1990:2143  require(!isLockEnabled || (timelock[_fn] != 0 && timelock[_fn] <= block.timestamp && timelock[_fn] + _TIMELOCK >= block.timestamp), \"Function is locked\") */\n      tag_246\n      jumpi\n      mload(0x40)\n      shl(0xe5, 0x461bcd)\n      dup2\n      mstore\n      0x04\n      add\n      tag_156\n      swap1\n      tag_170\n      jump\t// in\n    tag_246:\n        /* \"contracts/chains/polygon/RewardSystem.sol\":3620:3651  transferOwnership(oracleWallet) */\n      tag_249\n        /* \"contracts/chains/polygon/RewardSystem.sol\":3638:3650  oracleWallet */\n      dup3\n        /* \"contracts/chains/polygon/RewardSystem.sol\":3620:3637  transferOwnership */\n      tag_131\n        /* \"contracts/chains/polygon/RewardSystem.sol\":3620:3651  transferOwnership(oracleWallet) */\n      jump\t// in\n    tag_249:\n        /* \"contracts/chains/polygon/RewardSystem.sol\":3680:3693  _oracleWallet */\n      0x05\n      dup1\n      sload\n      sub(shl(0xa0, 0x01), 0x01)\n        /* \"contracts/chains/polygon/RewardSystem.sol\":3703:3731  _oracleWallet = oracleWallet */\n      dup5\n      dup2\n      and\n      not(sub(shl(0xa0, 0x01), 0x01))\n      dup4\n      and\n      dup2\n      or\n      swap1\n      swap4\n      sstore\n        /* \"contracts/chains/polygon/RewardSystem.sol\":3746:3790  ChangedOracleWallet(previous, _oracleWallet) */\n      mload(0x40)\n        /* \"contracts/chains/polygon/RewardSystem.sol\":3680:3693  _oracleWallet */\n      swap2\n      and\n      swap2\n        /* \"contracts/chains/polygon/RewardSystem.sol\":3703:3731  _oracleWallet = oracleWallet */\n      swap1\n        /* \"contracts/chains/polygon/RewardSystem.sol\":3680:3693  _oracleWallet */\n      dup3\n      swap1\n        /* \"contracts/chains/polygon/RewardSystem.sol\":3746:3790  ChangedOracleWallet(previous, _oracleWallet) */\n      0x3920ecd0f25e4e6ce57aaec91e57df499cb7e3e70d6c9604f866ae9265382cf3\n      swap1\n        /* \"contracts/chains/polygon/RewardSystem.sol\":3661:3677  address previous */\n      0x00\n      swap1\n        /* \"contracts/chains/polygon/RewardSystem.sol\":3746:3790  ChangedOracleWallet(previous, _oracleWallet) */\n      log3\n        /* \"contracts/chains/polygon/RewardSystem.sol\":3610:3797  {... */\n      pop\n        /* \"contracts/libraries/TimeLock.sol\":2164:2181  lockFunction(_fn) */\n      tag_176\n        /* \"contracts/libraries/TimeLock.sol\":2177:2180  _fn */\n      dup2\n        /* \"contracts/libraries/TimeLock.sol\":2164:2176  lockFunction */\n      tag_95\n        /* \"contracts/libraries/TimeLock.sol\":2164:2181  lockFunction(_fn) */\n      jump\t// in\n        /* \"@openzeppelin/contracts/access/Ownable.sol\":1605:1697  function renounceOwnership() public virtual onlyOwner {... */\n    tag_67:\n        /* \"@openzeppelin/contracts/access/Ownable.sol\":1019:1026  address */\n      0x00\n        /* \"@openzeppelin/contracts/access/Ownable.sol\":1045:1051  _owner */\n      sload\n      sub(shl(0xa0, 0x01), 0x01)\n      and\n        /* \"@openzeppelin/contracts/utils/Context.sol\":665:675  msg.sender */\n      caller\n        /* \"@openzeppelin/contracts/access/Ownable.sol\":1185:1208  owner() == _msgSender() */\n      eq\n        /* \"@openzeppelin/contracts/access/Ownable.sol\":1177:1245  require(owner() == _msgSender(), \"Ownable: caller is not the owner\") */\n      tag_254\n      jumpi\n      mload(0x40)\n      shl(0xe5, 0x461bcd)\n      dup2\n      mstore\n      0x04\n      add\n      tag_156\n      swap1\n      tag_183\n      jump\t// in\n    tag_254:\n        /* \"@openzeppelin/contracts/access/Ownable.sol\":1669:1690  _setOwner(address(0)) */\n      tag_257\n        /* \"@openzeppelin/contracts/access/Ownable.sol\":1687:1688  0 */\n      0x00\n        /* \"@openzeppelin/contracts/access/Ownable.sol\":1669:1678  _setOwner */\n      tag_258\n        /* \"@openzeppelin/contracts/access/Ownable.sol\":1669:1690  _setOwner(address(0)) */\n      jump\t// in\n    tag_257:\n        /* \"@openzeppelin/contracts/access/Ownable.sol\":1605:1697  function renounceOwnership() public virtual onlyOwner {... */\n      jump\t// out\n        /* \"contracts/chains/polygon/RewardSystem.sol\":3004:3168  function adjustGasCost(uint256 gasCost) public onlyOwner locked(\"adjustGasCost\") {... */\n    tag_82:\n        /* \"@openzeppelin/contracts/access/Ownable.sol\":1019:1026  address */\n      0x00\n        /* \"@openzeppelin/contracts/access/Ownable.sol\":1045:1051  _owner */\n      sload\n      sub(shl(0xa0, 0x01), 0x01)\n      and\n        /* \"@openzeppelin/contracts/utils/Context.sol\":665:675  msg.sender */\n      caller\n        /* \"@openzeppelin/contracts/access/Ownable.sol\":1185:1208  owner() == _msgSender() */\n      eq\n        /* \"@openzeppelin/contracts/access/Ownable.sol\":1177:1245  require(owner() == _msgSender(), \"Ownable: caller is not the owner\") */\n      tag_262\n      jumpi\n      mload(0x40)\n      shl(0xe5, 0x461bcd)\n      dup2\n      mstore\n      0x04\n      add\n      tag_156\n      swap1\n      tag_183\n      jump\t// in\n    tag_262:\n        /* \"contracts/libraries/TimeLock.sol\":1945:2188  modifier locked(string memory _fn) {... */\n      0x40\n      dup1\n      mload\n      dup1\n      dup3\n      add\n      swap1\n      swap2\n      mstore\n      0x0d\n      dup2\n      mstore\n      shl(0x9a, 0x18591a9d5cdd11d85cd0dbdcdd)\n      0x20\n      dup3\n      add\n      mstore\n      0x00\n        /* \"contracts/libraries/TimeLock.sol\":1999:2012  isLockEnabled */\n      sload\n      shl(0xa0, 0x01)\n      swap1\n      div\n      0xff\n      and\n        /* \"contracts/libraries/TimeLock.sol\":1998:2012  !isLockEnabled */\n      iszero\n      dup1\n        /* \"contracts/libraries/TimeLock.sol\":1998:2120  !isLockEnabled || (timelock[_fn] != 0 && timelock[_fn] <= block.timestamp && timelock[_fn] + _TIMELOCK >= block.timestamp) */\n      tag_269\n      jumpi\n      pop\n        /* \"contracts/libraries/TimeLock.sol\":2017:2025  timelock */\n      0x01\n        /* \"contracts/libraries/TimeLock.sol\":2026:2029  _fn */\n      dup2\n        /* \"contracts/libraries/TimeLock.sol\":2017:2030  timelock[_fn] */\n      mload(0x40)\n      tag_266\n      swap2\n      swap1\n      tag_367\n      jump\t// in\n    tag_266:\n      swap1\n      dup2\n      mstore\n      0x20\n      add\n      mload(0x40)\n      dup1\n      swap2\n      sub\n      swap1\n      keccak256\n      sload\n        /* \"contracts/libraries/TimeLock.sol\":2034:2035  0 */\n      0x00\n        /* \"contracts/libraries/TimeLock.sol\":2017:2035  timelock[_fn] != 0 */\n      eq\n      iszero\n        /* \"contracts/libraries/TimeLock.sol\":2017:2071  timelock[_fn] != 0 && timelock[_fn] <= block.timestamp */\n      dup1\n      iszero\n      tag_267\n      jumpi\n      pop\n        /* \"contracts/libraries/TimeLock.sol\":2056:2071  block.timestamp */\n      timestamp\n        /* \"contracts/libraries/TimeLock.sol\":2039:2047  timelock */\n      0x01\n        /* \"contracts/libraries/TimeLock.sol\":2048:2051  _fn */\n      dup3\n        /* \"contracts/libraries/TimeLock.sol\":2039:2052  timelock[_fn] */\n      mload(0x40)\n      tag_268\n      swap2\n      swap1\n      tag_367\n      jump\t// in\n    tag_268:\n      swap1\n      dup2\n      mstore\n      0x20\n      add\n      mload(0x40)\n      dup1\n      swap2\n      sub\n      swap1\n      keccak256\n      sload\n        /* \"contracts/libraries/TimeLock.sol\":2039:2071  timelock[_fn] <= block.timestamp */\n      gt\n      iszero\n        /* \"contracts/libraries/TimeLock.sol\":2017:2071  timelock[_fn] != 0 && timelock[_fn] <= block.timestamp */\n    tag_267:\n        /* \"contracts/libraries/TimeLock.sol\":2017:2119  timelock[_fn] != 0 && timelock[_fn] <= block.timestamp && timelock[_fn] + _TIMELOCK >= block.timestamp */\n      dup1\n      iszero\n      tag_269\n      jumpi\n      pop\n        /* \"contracts/libraries/TimeLock.sol\":2104:2119  block.timestamp */\n      timestamp\n        /* \"contracts/libraries/TimeLock.sol\":861:867  1 days */\n      0x015180\n        /* \"contracts/libraries/TimeLock.sol\":2075:2083  timelock */\n      0x01\n        /* \"contracts/libraries/TimeLock.sol\":2084:2087  _fn */\n      dup4\n        /* \"contracts/libraries/TimeLock.sol\":2075:2088  timelock[_fn] */\n      mload(0x40)\n      tag_270\n      swap2\n      swap1\n      tag_367\n      jump\t// in\n    tag_270:\n      swap1\n      dup2\n      mstore\n      0x20\n      add\n      mload(0x40)\n      dup1\n      swap2\n      sub\n      swap1\n      keccak256\n      sload\n        /* \"contracts/libraries/TimeLock.sol\":2075:2100  timelock[_fn] + _TIMELOCK */\n      tag_271\n      swap2\n      swap1\n      tag_167\n      jump\t// in\n    tag_271:\n        /* \"contracts/libraries/TimeLock.sol\":2075:2119  timelock[_fn] + _TIMELOCK >= block.timestamp */\n      lt\n      iszero\n        /* \"contracts/libraries/TimeLock.sol\":2017:2119  timelock[_fn] != 0 && timelock[_fn] <= block.timestamp && timelock[_fn] + _TIMELOCK >= block.timestamp */\n    tag_269:\n        /* \"contracts/libraries/TimeLock.sol\":1990:2143  require(!isLockEnabled || (timelock[_fn] != 0 && timelock[_fn] <= block.timestamp && timelock[_fn] + _TIMELOCK >= block.timestamp), \"Function is locked\") */\n      tag_272\n      jumpi\n      mload(0x40)\n      shl(0xe5, 0x461bcd)\n      dup2\n      mstore\n      0x04\n      add\n      tag_156\n      swap1\n      tag_170\n      jump\t// in\n    tag_272:\n        /* \"contracts/chains/polygon/RewardSystem.sol\":3115:3123  _gasCost */\n      sload(0x04)\n        /* \"contracts/chains/polygon/RewardSystem.sol\":3100:3133  ChangedGasCost(_gasCost, gasCost) */\n      mload(0x40)\n        /* \"contracts/chains/polygon/RewardSystem.sol\":3125:3132  gasCost */\n      dup4\n      swap2\n        /* \"contracts/chains/polygon/RewardSystem.sol\":3115:3123  _gasCost */\n      swap1\n        /* \"contracts/chains/polygon/RewardSystem.sol\":3100:3133  ChangedGasCost(_gasCost, gasCost) */\n      0xc3dc19678fd7390a5c1197decfaec52d8a1c63c49f0a51db570f5fe5040c5f73\n      swap1\n      0x00\n      swap1\n      log3\n        /* \"contracts/chains/polygon/RewardSystem.sol\":3143:3151  _gasCost */\n      0x04\n        /* \"contracts/chains/polygon/RewardSystem.sol\":3143:3161  _gasCost = gasCost */\n      dup3\n      swap1\n      sstore\n        /* \"contracts/libraries/TimeLock.sol\":2164:2181  lockFunction(_fn) */\n      tag_176\n        /* \"contracts/libraries/TimeLock.sol\":2177:2180  _fn */\n      dup2\n        /* \"contracts/libraries/TimeLock.sol\":4317:4421  function lockFunction(string memory _fn) public onlyMaintainerOrOwner {... */\n    tag_95:\n        /* \"contracts/libraries/TimeLock.sol\":2264:2274  msg.sender */\n      caller\n        /* \"contracts/libraries/TimeLock.sol\":2253:2260  owner() */\n      tag_279\n        /* \"@openzeppelin/contracts/access/Ownable.sol\":1019:1026  address */\n      0x00\n        /* \"@openzeppelin/contracts/access/Ownable.sol\":1045:1051  _owner */\n      sload\n      sub(shl(0xa0, 0x01), 0x01)\n      and\n      swap1\n        /* \"@openzeppelin/contracts/access/Ownable.sol\":973:1058  function owner() public view virtual returns (address) {... */\n      jump\n        /* \"contracts/libraries/TimeLock.sol\":2253:2260  owner() */\n    tag_279:\n      sub(shl(0xa0, 0x01), 0x01)\n        /* \"contracts/libraries/TimeLock.sol\":2253:2274  owner() == msg.sender */\n      and\n      eq\n        /* \"contracts/libraries/TimeLock.sol\":2253:2303  owner() == msg.sender || _maintainer == msg.sender */\n      dup1\n      tag_280\n      jumpi\n      pop\n        /* \"contracts/libraries/TimeLock.sol\":2278:2289  _maintainer */\n      and(sub(shl(0xa0, 0x01), 0x01), sload(0x02))\n        /* \"contracts/libraries/TimeLock.sol\":2293:2303  msg.sender */\n      caller\n        /* \"contracts/libraries/TimeLock.sol\":2278:2303  _maintainer == msg.sender */\n      eq\n        /* \"contracts/libraries/TimeLock.sol\":2253:2303  owner() == msg.sender || _maintainer == msg.sender */\n    tag_280:\n        /* \"contracts/libraries/TimeLock.sol\":2245:2361  require(owner() == msg.sender || _maintainer == msg.sender, \"operator: caller is not allowed to call this function\") */\n      tag_281\n      jumpi\n      mload(0x40)\n      shl(0xe5, 0x461bcd)\n      dup2\n      mstore\n      0x04\n      add\n      tag_156\n      swap1\n      tag_157\n      jump\t// in\n    tag_281:\n        /* \"contracts/libraries/TimeLock.sol\":4413:4414  0 */\n      0x00\n        /* \"contracts/libraries/TimeLock.sol\":4397:4405  timelock */\n      0x01\n        /* \"contracts/libraries/TimeLock.sol\":4406:4409  _fn */\n      dup3\n        /* \"contracts/libraries/TimeLock.sol\":4397:4410  timelock[_fn] */\n      mload(0x40)\n      tag_284\n      swap2\n      swap1\n      tag_367\n      jump\t// in\n    tag_284:\n      swap1\n      dup2\n      mstore\n      mload(0x40)\n      swap1\n      dup2\n      swap1\n      sub\n      0x20\n      add\n      swap1\n      keccak256\n        /* \"contracts/libraries/TimeLock.sol\":4397:4414  timelock[_fn] = 0 */\n      sstore\n      pop\n        /* \"contracts/libraries/TimeLock.sol\":4317:4421  function lockFunction(string memory _fn) public onlyMaintainerOrOwner {... */\n      jump\t// out\n        /* \"contracts/libraries/TimeLock.sol\":4100:4284  function unlockFunction(string memory _fn) public onlyMaintainerOrOwner {... */\n    tag_107:\n        /* \"contracts/libraries/TimeLock.sol\":2264:2274  msg.sender */\n      caller\n        /* \"contracts/libraries/TimeLock.sol\":2253:2260  owner() */\n      tag_286\n        /* \"@openzeppelin/contracts/access/Ownable.sol\":1019:1026  address */\n      0x00\n        /* \"@openzeppelin/contracts/access/Ownable.sol\":1045:1051  _owner */\n      sload\n      sub(shl(0xa0, 0x01), 0x01)\n      and\n      swap1\n        /* \"@openzeppelin/contracts/access/Ownable.sol\":973:1058  function owner() public view virtual returns (address) {... */\n      jump\n        /* \"contracts/libraries/TimeLock.sol\":2253:2260  owner() */\n    tag_286:\n      sub(shl(0xa0, 0x01), 0x01)\n        /* \"contracts/libraries/TimeLock.sol\":2253:2274  owner() == msg.sender */\n      and\n      eq\n        /* \"contracts/libraries/TimeLock.sol\":2253:2303  owner() == msg.sender || _maintainer == msg.sender */\n      dup1\n      tag_287\n      jumpi\n      pop\n        /* \"contracts/libraries/TimeLock.sol\":2278:2289  _maintainer */\n      and(sub(shl(0xa0, 0x01), 0x01), sload(0x02))\n        /* \"contracts/libraries/TimeLock.sol\":2293:2303  msg.sender */\n      caller\n        /* \"contracts/libraries/TimeLock.sol\":2278:2303  _maintainer == msg.sender */\n      eq\n        /* \"contracts/libraries/TimeLock.sol\":2253:2303  owner() == msg.sender || _maintainer == msg.sender */\n    tag_287:\n        /* \"contracts/libraries/TimeLock.sol\":2245:2361  require(owner() == msg.sender || _maintainer == msg.sender, \"operator: caller is not allowed to call this function\") */\n      tag_288\n      jumpi\n      mload(0x40)\n      shl(0xe5, 0x461bcd)\n      dup2\n      mstore\n      0x04\n      add\n      tag_156\n      swap1\n      tag_157\n      jump\t// in\n    tag_288:\n        /* \"contracts/libraries/TimeLock.sol\":4198:4225  block.timestamp + _TIMELOCK */\n      tag_291\n        /* \"contracts/libraries/TimeLock.sol\":861:867  1 days */\n      0x015180\n        /* \"contracts/libraries/TimeLock.sol\":4198:4213  block.timestamp */\n      timestamp\n        /* \"contracts/libraries/TimeLock.sol\":4198:4225  block.timestamp + _TIMELOCK */\n      tag_167\n      jump\t// in\n    tag_291:\n        /* \"contracts/libraries/TimeLock.sol\":4182:4190  timelock */\n      0x01\n        /* \"contracts/libraries/TimeLock.sol\":4191:4194  _fn */\n      dup3\n        /* \"contracts/libraries/TimeLock.sol\":4182:4195  timelock[_fn] */\n      mload(0x40)\n      tag_292\n      swap2\n      swap1\n      tag_367\n      jump\t// in\n    tag_292:\n      swap1\n      dup2\n      mstore\n      0x20\n      add\n      mload(0x40)\n      dup1\n      swap2\n      sub\n      swap1\n      keccak256\n        /* \"contracts/libraries/TimeLock.sol\":4182:4225  timelock[_fn] = block.timestamp + _TIMELOCK */\n      dup2\n      swap1\n      sstore\n      pop\n        /* \"contracts/libraries/TimeLock.sol\":4262:4270  timelock */\n      0x01\n        /* \"contracts/libraries/TimeLock.sol\":4271:4274  _fn */\n      dup2\n        /* \"contracts/libraries/TimeLock.sol\":4262:4275  timelock[_fn] */\n      mload(0x40)\n      tag_293\n      swap2\n      swap1\n      tag_367\n      jump\t// in\n    tag_293:\n      swap1\n      dup2\n      mstore\n      0x20\n      add\n      mload(0x40)\n      dup1\n      swap2\n      sub\n      swap1\n      keccak256\n      sload\n        /* \"contracts/libraries/TimeLock.sol\":4257:4260  _fn */\n      dup2\n        /* \"contracts/libraries/TimeLock.sol\":4240:4276  UnlockedFunction(_fn, timelock[_fn]) */\n      mload(0x40)\n      tag_294\n      swap2\n      swap1\n      tag_367\n      jump\t// in\n    tag_294:\n      mload(0x40)\n      swap1\n      dup2\n      swap1\n      sub\n      dup2\n      keccak256\n      swap1\n      0xf77f9a799fe8b0be1463abd7459a18fc55dfd8a6a24ddd29b54fd098088089c8\n      swap1\n      0x00\n      swap1\n      log3\n        /* \"contracts/libraries/TimeLock.sol\":4100:4284  function unlockFunction(string memory _fn) public onlyMaintainerOrOwner {... */\n      pop\n      jump\t// out\n        /* \"contracts/chains/polygon/RewardSystem.sol\":3807:3903  function setRouter(IUniswapV2Router02 router) public onlyOwner {... */\n    tag_117:\n        /* \"@openzeppelin/contracts/access/Ownable.sol\":1019:1026  address */\n      0x00\n        /* \"@openzeppelin/contracts/access/Ownable.sol\":1045:1051  _owner */\n      sload\n      sub(shl(0xa0, 0x01), 0x01)\n      and\n        /* \"@openzeppelin/contracts/utils/Context.sol\":665:675  msg.sender */\n      caller\n        /* \"@openzeppelin/contracts/access/Ownable.sol\":1185:1208  owner() == _msgSender() */\n      eq\n        /* \"@openzeppelin/contracts/access/Ownable.sol\":1177:1245  require(owner() == _msgSender(), \"Ownable: caller is not the owner\") */\n      tag_298\n      jumpi\n      mload(0x40)\n      shl(0xe5, 0x461bcd)\n      dup2\n      mstore\n      0x04\n      add\n      tag_156\n      swap1\n      tag_183\n      jump\t// in\n    tag_298:\n        /* \"contracts/chains/polygon/RewardSystem.sol\":3880:3887  _router */\n      0x08\n        /* \"contracts/chains/polygon/RewardSystem.sol\":3880:3896  _router = router */\n      dup1\n      sload\n      not(sub(shl(0xa0, 0x01), 0x01))\n      and\n      sub(shl(0xa0, 0x01), 0x01)\n      swap3\n      swap1\n      swap3\n      and\n      swap2\n      swap1\n      swap2\n      or\n      swap1\n      sstore\n        /* \"contracts/chains/polygon/RewardSystem.sol\":3807:3903  function setRouter(IUniswapV2Router02 router) public onlyOwner {... */\n      jump\t// out\n        /* \"contracts/chains/polygon/RewardSystem.sol\":4905:5635  function sendRewardsAsEth(uint256 amount, address user) public onlyOwner {... */\n    tag_122:\n        /* \"@openzeppelin/contracts/access/Ownable.sol\":1019:1026  address */\n      0x00\n        /* \"@openzeppelin/contracts/access/Ownable.sol\":1045:1051  _owner */\n      sload\n      sub(shl(0xa0, 0x01), 0x01)\n      and\n        /* \"@openzeppelin/contracts/utils/Context.sol\":665:675  msg.sender */\n      caller\n        /* \"@openzeppelin/contracts/access/Ownable.sol\":1185:1208  owner() == _msgSender() */\n      eq\n        /* \"@openzeppelin/contracts/access/Ownable.sol\":1177:1245  require(owner() == _msgSender(), \"Ownable: caller is not the owner\") */\n      tag_304\n      jumpi\n      mload(0x40)\n      shl(0xe5, 0x461bcd)\n      dup2\n      mstore\n      0x04\n      add\n      tag_156\n      swap1\n      tag_183\n      jump\t// in\n    tag_304:\n        /* \"contracts/chains/polygon/RewardSystem.sol\":5004:5011  _router */\n      and(sub(shl(0xa0, 0x01), 0x01), sload(0x08))\n        /* \"contracts/chains/polygon/RewardSystem.sol\":4988:5105  require(address(_router) != address(0), \"ABOAT::sendRewardsAsEth: There is no router defined to swap tokens for eth\") */\n      tag_307\n      jumpi\n      mload(0x40)\n      shl(0xe5, 0x461bcd)\n      dup2\n      mstore\n        /* \"#utility.yul\":9988:9990   */\n      0x20\n        /* \"contracts/chains/polygon/RewardSystem.sol\":4988:5105  require(address(_router) != address(0), \"ABOAT::sendRewardsAsEth: There is no router defined to swap tokens for eth\") */\n      0x04\n      dup3\n      add\n        /* \"#utility.yul\":9970:9991   */\n      mstore\n        /* \"#utility.yul\":10027:10029   */\n      0x4a\n        /* \"#utility.yul\":10007:10025   */\n      0x24\n      dup3\n      add\n        /* \"#utility.yul\":10000:10030   */\n      mstore\n        /* \"#utility.yul\":10066:10100   */\n      0x41424f41543a3a73656e645265776172647341734574683a2054686572652069\n        /* \"#utility.yul\":10046:10064   */\n      0x44\n      dup3\n      add\n        /* \"#utility.yul\":10039:10101   */\n      mstore\n        /* \"#utility.yul\":10137:10171   */\n      0x73206e6f20726f7574657220646566696e656420746f207377617020746f6b65\n        /* \"#utility.yul\":10117:10135   */\n      0x64\n      dup3\n      add\n        /* \"#utility.yul\":10110:10172   */\n      mstore\n      shl(0xb3, 0x0dce640ccdee440cae8d)\n        /* \"#utility.yul\":10188:10207   */\n      0x84\n      dup3\n      add\n        /* \"#utility.yul\":10181:10222   */\n      mstore\n        /* \"#utility.yul\":10239:10258   */\n      0xa4\n      add\n        /* \"contracts/chains/polygon/RewardSystem.sol\":4988:5105  require(address(_router) != address(0), \"ABOAT::sendRewardsAsEth: There is no router defined to swap tokens for eth\") */\n      tag_156\n        /* \"#utility.yul\":9786:10264   */\n      jump\n        /* \"contracts/chains/polygon/RewardSystem.sol\":4988:5105  require(address(_router) != address(0), \"ABOAT::sendRewardsAsEth: There is no router defined to swap tokens for eth\") */\n    tag_307:\n        /* \"contracts/chains/polygon/RewardSystem.sol\":5133:5145  getBalance() */\n      tag_310\n        /* \"contracts/chains/polygon/RewardSystem.sol\":5133:5143  getBalance */\n      tag_41\n        /* \"contracts/chains/polygon/RewardSystem.sol\":5133:5145  getBalance() */\n      jump\t// in\n    tag_310:\n        /* \"contracts/chains/polygon/RewardSystem.sol\":5123:5129  amount */\n      dup3\n        /* \"contracts/chains/polygon/RewardSystem.sol\":5123:5145  amount <= getBalance() */\n      gt\n      iszero\n        /* \"contracts/chains/polygon/RewardSystem.sol\":5115:5221  require(amount <= getBalance(), \"ABOAT::sendRewardsAsEth: Can't send more rewards than in reward system!\") */\n      tag_311\n      jumpi\n      mload(0x40)\n      shl(0xe5, 0x461bcd)\n      dup2\n      mstore\n        /* \"#utility.yul\":11240:11242   */\n      0x20\n        /* \"contracts/chains/polygon/RewardSystem.sol\":5115:5221  require(amount <= getBalance(), \"ABOAT::sendRewardsAsEth: Can't send more rewards than in reward system!\") */\n      0x04\n      dup3\n      add\n        /* \"#utility.yul\":11222:11243   */\n      mstore\n        /* \"#utility.yul\":11279:11281   */\n      0x47\n        /* \"#utility.yul\":11259:11277   */\n      0x24\n      dup3\n      add\n        /* \"#utility.yul\":11252:11282   */\n      mstore\n        /* \"#utility.yul\":11318:11352   */\n      0x41424f41543a3a73656e645265776172647341734574683a2043616e27742073\n        /* \"#utility.yul\":11298:11316   */\n      0x44\n      dup3\n      add\n        /* \"#utility.yul\":11291:11353   */\n      mstore\n        /* \"#utility.yul\":11389:11423   */\n      0x656e64206d6f72652072657761726473207468616e20696e2072657761726420\n        /* \"#utility.yul\":11369:11387   */\n      0x64\n      dup3\n      add\n        /* \"#utility.yul\":11362:11424   */\n      mstore\n      shl(0xc8, 0x73797374656d21)\n        /* \"#utility.yul\":11440:11459   */\n      0x84\n      dup3\n      add\n        /* \"#utility.yul\":11433:11471   */\n      mstore\n        /* \"#utility.yul\":11488:11507   */\n      0xa4\n      add\n        /* \"contracts/chains/polygon/RewardSystem.sol\":5115:5221  require(amount <= getBalance(), \"ABOAT::sendRewardsAsEth: Can't send more rewards than in reward system!\") */\n      tag_156\n        /* \"#utility.yul\":11038:11513   */\n      jump\n        /* \"contracts/chains/polygon/RewardSystem.sol\":5115:5221  require(amount <= getBalance(), \"ABOAT::sendRewardsAsEth: Can't send more rewards than in reward system!\") */\n    tag_311:\n        /* \"contracts/chains/polygon/RewardSystem.sol\":5231:5255  swapTokensForEth(amount) */\n      tag_314\n        /* \"contracts/chains/polygon/RewardSystem.sol\":5248:5254  amount */\n      dup3\n        /* \"contracts/chains/polygon/RewardSystem.sol\":5231:5247  swapTokensForEth */\n      tag_315\n        /* \"contracts/chains/polygon/RewardSystem.sol\":5231:5255  swapTokensForEth(amount) */\n      jump\t// in\n    tag_314:\n        /* \"contracts/chains/polygon/RewardSystem.sol\":5265:5280  uint256 userEth */\n      0x00\n        /* \"contracts/chains/polygon/RewardSystem.sol\":5283:5318  address(this).balance.sub(_gasCost) */\n      tag_316\n        /* \"contracts/chains/polygon/RewardSystem.sol\":5309:5317  _gasCost */\n      sload(0x04)\n        /* \"contracts/chains/polygon/RewardSystem.sol\":5283:5304  address(this).balance */\n      selfbalance\n        /* \"contracts/chains/polygon/RewardSystem.sol\":5283:5308  address(this).balance.sub */\n      tag_317\n      swap1\n        /* \"contracts/chains/polygon/RewardSystem.sol\":5283:5318  address(this).balance.sub(_gasCost) */\n      swap2\n      swap1\n      0xffffffff\n      and\n      jump\t// in\n    tag_316:\n        /* \"contracts/chains/polygon/RewardSystem.sol\":5359:5372  _oracleWallet */\n      sload(0x05)\n        /* \"contracts/chains/polygon/RewardSystem.sol\":5374:5382  _gasCost */\n      sload(0x04)\n        /* \"contracts/chains/polygon/RewardSystem.sol\":5265:5318  uint256 userEth = address(this).balance.sub(_gasCost) */\n      swap2\n      swap3\n      pop\n        /* \"contracts/chains/polygon/RewardSystem.sol\":5328:5383  TransferHelper.safeTransferETH(_oracleWallet, _gasCost) */\n      tag_318\n      swap2\n      sub(shl(0xa0, 0x01), 0x01)\n        /* \"contracts/chains/polygon/RewardSystem.sol\":5359:5372  _oracleWallet */\n      swap1\n      swap2\n      and\n      swap1\n        /* \"contracts/chains/polygon/RewardSystem.sol\":5328:5358  TransferHelper.safeTransferETH */\n      tag_232\n        /* \"contracts/chains/polygon/RewardSystem.sol\":5328:5383  TransferHelper.safeTransferETH(_oracleWallet, _gasCost) */\n      jump\t// in\n    tag_318:\n        /* \"contracts/chains/polygon/RewardSystem.sol\":5393:5404  uint256 fee */\n      0x00\n        /* \"contracts/chains/polygon/RewardSystem.sol\":5407:5431  userEth.mul(10).div(100) */\n      tag_319\n        /* \"contracts/chains/polygon/RewardSystem.sol\":5427:5430  100 */\n      0x64\n        /* \"contracts/chains/polygon/RewardSystem.sol\":5407:5422  userEth.mul(10) */\n      tag_320\n        /* \"contracts/chains/polygon/RewardSystem.sol\":5407:5414  userEth */\n      dup5\n        /* \"contracts/chains/polygon/RewardSystem.sol\":5419:5421  10 */\n      0x0a\n        /* \"contracts/chains/polygon/RewardSystem.sol\":5407:5418  userEth.mul */\n      tag_321\n        /* \"contracts/chains/polygon/RewardSystem.sol\":5407:5422  userEth.mul(10) */\n      jump\t// in\n    tag_320:\n        /* \"contracts/chains/polygon/RewardSystem.sol\":5407:5426  userEth.mul(10).div */\n      swap1\n      tag_322\n        /* \"contracts/chains/polygon/RewardSystem.sol\":5407:5431  userEth.mul(10).div(100) */\n      jump\t// in\n    tag_319:\n        /* \"contracts/chains/polygon/RewardSystem.sol\":5393:5431  uint256 fee = userEth.mul(10).div(100) */\n      swap1\n      pop\n        /* \"contracts/chains/polygon/RewardSystem.sol\":5451:5467  userEth.sub(fee) */\n      tag_323\n        /* \"contracts/chains/polygon/RewardSystem.sol\":5451:5458  userEth */\n      dup3\n        /* \"contracts/chains/polygon/RewardSystem.sol\":5393:5431  uint256 fee = userEth.mul(10).div(100) */\n      dup3\n        /* \"contracts/chains/polygon/RewardSystem.sol\":5451:5462  userEth.sub */\n      tag_317\n        /* \"contracts/chains/polygon/RewardSystem.sol\":5451:5467  userEth.sub(fee) */\n      jump\t// in\n    tag_323:\n        /* \"contracts/chains/polygon/RewardSystem.sol\":5508:5518  _devWallet */\n      sload(0x06)\n        /* \"contracts/chains/polygon/RewardSystem.sol\":5441:5467  userEth = userEth.sub(fee) */\n      swap1\n      swap3\n      pop\n        /* \"contracts/chains/polygon/RewardSystem.sol\":5477:5524  TransferHelper.safeTransferETH(_devWallet, fee) */\n      tag_324\n      swap1\n      sub(shl(0xa0, 0x01), 0x01)\n        /* \"contracts/chains/polygon/RewardSystem.sol\":5508:5518  _devWallet */\n      and\n        /* \"contracts/chains/polygon/RewardSystem.sol\":5520:5523  fee */\n      dup3\n        /* \"contracts/chains/polygon/RewardSystem.sol\":5477:5507  TransferHelper.safeTransferETH */\n      tag_232\n        /* \"contracts/chains/polygon/RewardSystem.sol\":5477:5524  TransferHelper.safeTransferETH(_devWallet, fee) */\n      jump\t// in\n    tag_324:\n        /* \"contracts/chains/polygon/RewardSystem.sol\":5534:5579  TransferHelper.safeTransferETH(user, userEth) */\n      tag_325\n        /* \"contracts/chains/polygon/RewardSystem.sol\":5565:5569  user */\n      dup4\n        /* \"contracts/chains/polygon/RewardSystem.sol\":5571:5578  userEth */\n      dup4\n        /* \"contracts/chains/polygon/RewardSystem.sol\":5534:5564  TransferHelper.safeTransferETH */\n      tag_232\n        /* \"contracts/chains/polygon/RewardSystem.sol\":5534:5579  TransferHelper.safeTransferETH(user, userEth) */\n      jump\t// in\n    tag_325:\n        /* \"contracts/chains/polygon/RewardSystem.sol\":5624:5627  fee */\n      dup1\n        /* \"contracts/chains/polygon/RewardSystem.sol\":5615:5622  userEth */\n      dup3\n        /* \"contracts/chains/polygon/RewardSystem.sol\":5609:5613  user */\n      dup5\n      sub(shl(0xa0, 0x01), 0x01)\n        /* \"contracts/chains/polygon/RewardSystem.sol\":5594:5628  SentRewardsETH(user, userEth, fee) */\n      and\n      0x75b2eac24930bf6a8227dbe172d34480e56be5c6994435067628424190d53431\n      mload(0x40)\n      mload(0x40)\n      dup1\n      swap2\n      sub\n      swap1\n      log4\n        /* \"contracts/chains/polygon/RewardSystem.sol\":4978:5635  {... */\n      pop\n      pop\n        /* \"contracts/chains/polygon/RewardSystem.sol\":4905:5635  function sendRewardsAsEth(uint256 amount, address user) public onlyOwner {... */\n      pop\n      pop\n      jump\t// out\n        /* \"@openzeppelin/contracts/access/Ownable.sol\":1846:2035  function transferOwnership(address newOwner) public virtual onlyOwner {... */\n    tag_131:\n        /* \"@openzeppelin/contracts/access/Ownable.sol\":1019:1026  address */\n      0x00\n        /* \"@openzeppelin/contracts/access/Ownable.sol\":1045:1051  _owner */\n      sload\n      sub(shl(0xa0, 0x01), 0x01)\n      and\n        /* \"@openzeppelin/contracts/utils/Context.sol\":665:675  msg.sender */\n      caller\n        /* \"@openzeppelin/contracts/access/Ownable.sol\":1185:1208  owner() == _msgSender() */\n      eq\n        /* \"@openzeppelin/contracts/access/Ownable.sol\":1177:1245  require(owner() == _msgSender(), \"Ownable: caller is not the owner\") */\n      tag_329\n      jumpi\n      mload(0x40)\n      shl(0xe5, 0x461bcd)\n      dup2\n      mstore\n      0x04\n      add\n      tag_156\n      swap1\n      tag_183\n      jump\t// in\n    tag_329:\n      sub(shl(0xa0, 0x01), 0x01)\n        /* \"@openzeppelin/contracts/access/Ownable.sol\":1934:1956  newOwner != address(0) */\n      dup2\n      and\n        /* \"@openzeppelin/contracts/access/Ownable.sol\":1926:1999  require(newOwner != address(0), \"Ownable: new owner is the zero address\") */\n      tag_332\n      jumpi\n      mload(0x40)\n      shl(0xe5, 0x461bcd)\n      dup2\n      mstore\n        /* \"#utility.yul\":7894:7896   */\n      0x20\n        /* \"@openzeppelin/contracts/access/Ownable.sol\":1926:1999  require(newOwner != address(0), \"Ownable: new owner is the zero address\") */\n      0x04\n      dup3\n      add\n        /* \"#utility.yul\":7876:7897   */\n      mstore\n        /* \"#utility.yul\":7933:7935   */\n      0x26\n        /* \"#utility.yul\":7913:7931   */\n      0x24\n      dup3\n      add\n        /* \"#utility.yul\":7906:7936   */\n      mstore\n        /* \"#utility.yul\":7972:8006   */\n      0x4f776e61626c653a206e6577206f776e657220697320746865207a65726f2061\n        /* \"#utility.yul\":7952:7970   */\n      0x44\n      dup3\n      add\n        /* \"#utility.yul\":7945:8007   */\n      mstore\n      shl(0xd0, 0x646472657373)\n        /* \"#utility.yul\":8023:8041   */\n      0x64\n      dup3\n      add\n        /* \"#utility.yul\":8016:8052   */\n      mstore\n        /* \"#utility.yul\":8069:8088   */\n      0x84\n      add\n        /* \"@openzeppelin/contracts/access/Ownable.sol\":1926:1999  require(newOwner != address(0), \"Ownable: new owner is the zero address\") */\n      tag_156\n        /* \"#utility.yul\":7692:8094   */\n      jump\n        /* \"@openzeppelin/contracts/access/Ownable.sol\":1926:1999  require(newOwner != address(0), \"Ownable: new owner is the zero address\") */\n    tag_332:\n        /* \"@openzeppelin/contracts/access/Ownable.sol\":2009:2028  _setOwner(newOwner) */\n      tag_335\n        /* \"@openzeppelin/contracts/access/Ownable.sol\":2019:2027  newOwner */\n      dup2\n        /* \"@openzeppelin/contracts/access/Ownable.sol\":2009:2018  _setOwner */\n      tag_258\n        /* \"@openzeppelin/contracts/access/Ownable.sol\":2009:2028  _setOwner(newOwner) */\n      jump\t// in\n    tag_335:\n        /* \"@openzeppelin/contracts/access/Ownable.sol\":1846:2035  function transferOwnership(address newOwner) public virtual onlyOwner {... */\n      pop\n      jump\t// out\n        /* \"contracts/libraries/TimeLock.sol\":3627:3751  function setTimelockEnabled() public onlyMaintainerOrOwner {... */\n    tag_134:\n        /* \"contracts/libraries/TimeLock.sol\":2264:2274  msg.sender */\n      caller\n        /* \"contracts/libraries/TimeLock.sol\":2253:2260  owner() */\n      tag_337\n        /* \"@openzeppelin/contracts/access/Ownable.sol\":1019:1026  address */\n      0x00\n        /* \"@openzeppelin/contracts/access/Ownable.sol\":1045:1051  _owner */\n      sload\n      sub(shl(0xa0, 0x01), 0x01)\n      and\n      swap1\n        /* \"@openzeppelin/contracts/access/Ownable.sol\":973:1058  function owner() public view virtual returns (address) {... */\n      jump\n        /* \"contracts/libraries/TimeLock.sol\":2253:2260  owner() */\n    tag_337:\n      sub(shl(0xa0, 0x01), 0x01)\n        /* \"contracts/libraries/TimeLock.sol\":2253:2274  owner() == msg.sender */\n      and\n      eq\n        /* \"contracts/libraries/TimeLock.sol\":2253:2303  owner() == msg.sender || _maintainer == msg.sender */\n      dup1\n      tag_338\n      jumpi\n      pop\n        /* \"contracts/libraries/TimeLock.sol\":2278:2289  _maintainer */\n      and(sub(shl(0xa0, 0x01), 0x01), sload(0x02))\n        /* \"contracts/libraries/TimeLock.sol\":2293:2303  msg.sender */\n      caller\n        /* \"contracts/libraries/TimeLock.sol\":2278:2303  _maintainer == msg.sender */\n      eq\n        /* \"contracts/libraries/TimeLock.sol\":2253:2303  owner() == msg.sender || _maintainer == msg.sender */\n    tag_338:\n        /* \"contracts/libraries/TimeLock.sol\":2245:2361  require(owner() == msg.sender || _maintainer == msg.sender, \"operator: caller is not allowed to call this function\") */\n      tag_339\n      jumpi\n      mload(0x40)\n      shl(0xe5, 0x461bcd)\n      dup2\n      mstore\n      0x04\n      add\n      tag_156\n      swap1\n      tag_157\n      jump\t// in\n    tag_339:\n        /* \"contracts/libraries/TimeLock.sol\":3696:3709  isLockEnabled */\n      0x00\n        /* \"contracts/libraries/TimeLock.sol\":3696:3716  isLockEnabled = true */\n      dup1\n      sload\n      not(shl(0xa0, 0xff))\n      and\n      shl(0xa0, 0x01)\n      or\n      dup2\n      sstore\n        /* \"contracts/libraries/TimeLock.sol\":3731:3744  EnabledLock() */\n      mload(0x40)\n      0x2c08b62bfac9a1b19bb1dec9323f1ce01696a77948b256abf3603d30f25a864e\n      swap2\n        /* \"contracts/libraries/TimeLock.sol\":3696:3709  isLockEnabled */\n      swap1\n        /* \"contracts/libraries/TimeLock.sol\":3731:3744  EnabledLock() */\n      log1\n        /* \"contracts/libraries/TimeLock.sol\":3627:3751  function setTimelockEnabled() public onlyMaintainerOrOwner {... */\n      jump\t// out\n        /* \"contracts/chains/polygon/RewardSystem.sol\":3178:3504  function updateRewardToken(IERC20 rewardToken) public onlyOwner locked(\"updateRewardToken\") {... */\n    tag_139:\n        /* \"@openzeppelin/contracts/access/Ownable.sol\":1019:1026  address */\n      0x00\n        /* \"@openzeppelin/contracts/access/Ownable.sol\":1045:1051  _owner */\n      sload\n      sub(shl(0xa0, 0x01), 0x01)\n      and\n        /* \"@openzeppelin/contracts/utils/Context.sol\":665:675  msg.sender */\n      caller\n        /* \"@openzeppelin/contracts/access/Ownable.sol\":1185:1208  owner() == _msgSender() */\n      eq\n        /* \"@openzeppelin/contracts/access/Ownable.sol\":1177:1245  require(owner() == _msgSender(), \"Ownable: caller is not the owner\") */\n      tag_345\n      jumpi\n      mload(0x40)\n      shl(0xe5, 0x461bcd)\n      dup2\n      mstore\n      0x04\n      add\n      tag_156\n      swap1\n      tag_183\n      jump\t// in\n    tag_345:\n        /* \"contracts/libraries/TimeLock.sol\":1945:2188  modifier locked(string memory _fn) {... */\n      0x40\n      dup1\n      mload\n      dup1\n      dup3\n      add\n      swap1\n      swap2\n      mstore\n      0x11\n      dup2\n      mstore\n      shl(0x79, 0x3ab83230ba32a932bbb0b9322a37b5b2b7)\n      0x20\n      dup3\n      add\n      mstore\n      0x00\n        /* \"contracts/libraries/TimeLock.sol\":1999:2012  isLockEnabled */\n      sload\n      shl(0xa0, 0x01)\n      swap1\n      div\n      0xff\n      and\n        /* \"contracts/libraries/TimeLock.sol\":1998:2012  !isLockEnabled */\n      iszero\n      dup1\n        /* \"contracts/libraries/TimeLock.sol\":1998:2120  !isLockEnabled || (timelock[_fn] != 0 && timelock[_fn] <= block.timestamp && timelock[_fn] + _TIMELOCK >= block.timestamp) */\n      tag_352\n      jumpi\n      pop\n        /* \"contracts/libraries/TimeLock.sol\":2017:2025  timelock */\n      0x01\n        /* \"contracts/libraries/TimeLock.sol\":2026:2029  _fn */\n      dup2\n        /* \"contracts/libraries/TimeLock.sol\":2017:2030  timelock[_fn] */\n      mload(0x40)\n      tag_349\n      swap2\n      swap1\n      tag_367\n      jump\t// in\n    tag_349:\n      swap1\n      dup2\n      mstore\n      0x20\n      add\n      mload(0x40)\n      dup1\n      swap2\n      sub\n      swap1\n      keccak256\n      sload\n        /* \"contracts/libraries/TimeLock.sol\":2034:2035  0 */\n      0x00\n        /* \"contracts/libraries/TimeLock.sol\":2017:2035  timelock[_fn] != 0 */\n      eq\n      iszero\n        /* \"contracts/libraries/TimeLock.sol\":2017:2071  timelock[_fn] != 0 && timelock[_fn] <= block.timestamp */\n      dup1\n      iszero\n      tag_350\n      jumpi\n      pop\n        /* \"contracts/libraries/TimeLock.sol\":2056:2071  block.timestamp */\n      timestamp\n        /* \"contracts/libraries/TimeLock.sol\":2039:2047  timelock */\n      0x01\n        /* \"contracts/libraries/TimeLock.sol\":2048:2051  _fn */\n      dup3\n        /* \"contracts/libraries/TimeLock.sol\":2039:2052  timelock[_fn] */\n      mload(0x40)\n      tag_351\n      swap2\n      swap1\n      tag_367\n      jump\t// in\n    tag_351:\n      swap1\n      dup2\n      mstore\n      0x20\n      add\n      mload(0x40)\n      dup1\n      swap2\n      sub\n      swap1\n      keccak256\n      sload\n        /* \"contracts/libraries/TimeLock.sol\":2039:2071  timelock[_fn] <= block.timestamp */\n      gt\n      iszero\n        /* \"contracts/libraries/TimeLock.sol\":2017:2071  timelock[_fn] != 0 && timelock[_fn] <= block.timestamp */\n    tag_350:\n        /* \"contracts/libraries/TimeLock.sol\":2017:2119  timelock[_fn] != 0 && timelock[_fn] <= block.timestamp && timelock[_fn] + _TIMELOCK >= block.timestamp */\n      dup1\n      iszero\n      tag_352\n      jumpi\n      pop\n        /* \"contracts/libraries/TimeLock.sol\":2104:2119  block.timestamp */\n      timestamp\n        /* \"contracts/libraries/TimeLock.sol\":861:867  1 days */\n      0x015180\n        /* \"contracts/libraries/TimeLock.sol\":2075:2083  timelock */\n      0x01\n        /* \"contracts/libraries/TimeLock.sol\":2084:2087  _fn */\n      dup4\n        /* \"contracts/libraries/TimeLock.sol\":2075:2088  timelock[_fn] */\n      mload(0x40)\n      tag_353\n      swap2\n      swap1\n      tag_367\n      jump\t// in\n    tag_353:\n      swap1\n      dup2\n      mstore\n      0x20\n      add\n      mload(0x40)\n      dup1\n      swap2\n      sub\n      swap1\n      keccak256\n      sload\n        /* \"contracts/libraries/TimeLock.sol\":2075:2100  timelock[_fn] + _TIMELOCK */\n      tag_354\n      swap2\n      swap1\n      tag_167\n      jump\t// in\n    tag_354:\n        /* \"contracts/libraries/TimeLock.sol\":2075:2119  timelock[_fn] + _TIMELOCK >= block.timestamp */\n      lt\n      iszero\n        /* \"contracts/libraries/TimeLock.sol\":2017:2119  timelock[_fn] != 0 && timelock[_fn] <= block.timestamp && timelock[_fn] + _TIMELOCK >= block.timestamp */\n    tag_352:\n        /* \"contracts/libraries/TimeLock.sol\":1990:2143  require(!isLockEnabled || (timelock[_fn] != 0 && timelock[_fn] <= block.timestamp && timelock[_fn] + _TIMELOCK >= block.timestamp), \"Function is locked\") */\n      tag_355\n      jumpi\n      mload(0x40)\n      shl(0xe5, 0x461bcd)\n      dup2\n      mstore\n      0x04\n      add\n      tag_156\n      swap1\n      tag_170\n      jump\t// in\n    tag_355:\n        /* \"contracts/chains/polygon/RewardSystem.sol\":3303:3315  _rewardToken */\n      sload(0x07)\n      sub(shl(0xa0, 0x01), 0x01)\n        /* \"contracts/chains/polygon/RewardSystem.sol\":3288:3315  rewardToken != _rewardToken */\n      dup4\n      dup2\n      and\n        /* \"contracts/chains/polygon/RewardSystem.sol\":3303:3315  _rewardToken */\n      swap2\n      and\n        /* \"contracts/chains/polygon/RewardSystem.sol\":3288:3315  rewardToken != _rewardToken */\n      eq\n      iszero\n        /* \"contracts/chains/polygon/RewardSystem.sol\":3280:3383  require(rewardToken != _rewardToken, \"ABOAT:updateRewardToken: You can't update the exact same tokens\") */\n      tag_358\n      jumpi\n      mload(0x40)\n      shl(0xe5, 0x461bcd)\n      dup2\n      mstore\n        /* \"#utility.yul\":11720:11722   */\n      0x20\n        /* \"contracts/chains/polygon/RewardSystem.sol\":3280:3383  require(rewardToken != _rewardToken, \"ABOAT:updateRewardToken: You can't update the exact same tokens\") */\n      0x04\n      dup3\n      add\n        /* \"#utility.yul\":11702:11723   */\n      mstore\n        /* \"#utility.yul\":11759:11761   */\n      0x3f\n        /* \"#utility.yul\":11739:11757   */\n      0x24\n      dup3\n      add\n        /* \"#utility.yul\":11732:11762   */\n      mstore\n        /* \"#utility.yul\":11798:11832   */\n      0x41424f41543a757064617465526577617264546f6b656e3a20596f752063616e\n        /* \"#utility.yul\":11778:11796   */\n      0x44\n      dup3\n      add\n        /* \"#utility.yul\":11771:11833   */\n      mstore\n        /* \"#utility.yul\":11869:11902   */\n      0x277420757064617465207468652065786163742073616d6520746f6b656e7300\n        /* \"#utility.yul\":11849:11867   */\n      0x64\n      dup3\n      add\n        /* \"#utility.yul\":11842:11903   */\n      mstore\n        /* \"#utility.yul\":11920:11939   */\n      0x84\n      add\n        /* \"contracts/chains/polygon/RewardSystem.sol\":3280:3383  require(rewardToken != _rewardToken, \"ABOAT:updateRewardToken: You can't update the exact same tokens\") */\n      tag_156\n        /* \"#utility.yul\":11518:11945   */\n      jump\n        /* \"contracts/chains/polygon/RewardSystem.sol\":3280:3383  require(rewardToken != _rewardToken, \"ABOAT:updateRewardToken: You can't update the exact same tokens\") */\n    tag_358:\n        /* \"contracts/chains/polygon/RewardSystem.sol\":3425:3437  _rewardToken */\n      sload(0x07)\n        /* \"contracts/chains/polygon/RewardSystem.sol\":3398:3461  ChangedRewardToken(address(_rewardToken), address(rewardToken)) */\n      mload(0x40)\n      sub(shl(0xa0, 0x01), 0x01)\n      dup1\n      dup6\n      and\n      swap3\n        /* \"contracts/chains/polygon/RewardSystem.sol\":3425:3437  _rewardToken */\n      and\n      swap1\n        /* \"contracts/chains/polygon/RewardSystem.sol\":3398:3461  ChangedRewardToken(address(_rewardToken), address(rewardToken)) */\n      0xcb89265f21b9fc8710e9d9e42bbb37af1eb207454deca6d5e36787be2367c1d6\n      swap1\n        /* \"contracts/chains/polygon/RewardSystem.sol\":3425:3437  _rewardToken */\n      0x00\n      swap1\n        /* \"contracts/chains/polygon/RewardSystem.sol\":3398:3461  ChangedRewardToken(address(_rewardToken), address(rewardToken)) */\n      log3\n        /* \"contracts/chains/polygon/RewardSystem.sol\":3471:3483  _rewardToken */\n      0x07\n        /* \"contracts/chains/polygon/RewardSystem.sol\":3471:3497  _rewardToken = rewardToken */\n      dup1\n      sload\n      not(sub(shl(0xa0, 0x01), 0x01))\n      and\n      sub(shl(0xa0, 0x01), 0x01)\n      dup5\n      and\n      or\n      swap1\n      sstore\n        /* \"contracts/libraries/TimeLock.sol\":2164:2181  lockFunction(_fn) */\n      tag_176\n        /* \"contracts/libraries/TimeLock.sol\":2177:2180  _fn */\n      dup2\n        /* \"contracts/libraries/TimeLock.sol\":2164:2176  lockFunction */\n      tag_95\n        /* \"contracts/libraries/TimeLock.sol\":2164:2181  lockFunction(_fn) */\n      jump\t// in\n        /* \"contracts/libraries/TransferHelper.sol\":210:594  function safeTransfer(... */\n    tag_209:\n        /* \"contracts/libraries/TransferHelper.sol\":382:427  abi.encodeWithSelector(0xa9059cbb, to, value) */\n      0x40\n      dup1\n      mload\n      sub(shl(0xa0, 0x01), 0x01)\n        /* \"#utility.yul\":6471:6503   */\n      dup5\n      dup2\n      and\n        /* \"contracts/libraries/TransferHelper.sol\":382:427  abi.encodeWithSelector(0xa9059cbb, to, value) */\n      0x24\n      dup4\n      add\n        /* \"#utility.yul\":6453:6504   */\n      mstore\n        /* \"#utility.yul\":6520:6538   */\n      0x44\n      dup1\n      dup4\n      add\n        /* \"#utility.yul\":6513:6547   */\n      dup6\n      swap1\n      mstore\n        /* \"contracts/libraries/TransferHelper.sol\":382:427  abi.encodeWithSelector(0xa9059cbb, to, value) */\n      dup4\n      mload\n      dup1\n      dup5\n      sub\n      swap1\n      swap2\n      add\n      dup2\n      mstore\n        /* \"#utility.yul\":6426:6444   */\n      0x64\n      swap1\n      swap3\n      add\n        /* \"contracts/libraries/TransferHelper.sol\":382:427  abi.encodeWithSelector(0xa9059cbb, to, value) */\n      dup4\n      mstore\n      0x20\n      dup3\n      add\n      dup1\n      mload\n      sub(shl(0xe0, 0x01), 0x01)\n      and\n      shl(0xe0, 0xa9059cbb)\n      or\n      swap1\n      mstore\n        /* \"contracts/libraries/TransferHelper.sol\":371:428  token.call(abi.encodeWithSelector(0xa9059cbb, to, value)) */\n      swap2\n      mload\n      0x00\n      swap3\n      dup4\n      swap3\n        /* \"contracts/libraries/TransferHelper.sol\":371:381  token.call */\n      swap1\n      dup8\n      and\n      swap2\n        /* \"contracts/libraries/TransferHelper.sol\":371:428  token.call(abi.encodeWithSelector(0xa9059cbb, to, value)) */\n      tag_366\n      swap2\n        /* \"contracts/libraries/TransferHelper.sol\":382:427  abi.encodeWithSelector(0xa9059cbb, to, value) */\n      swap1\n        /* \"contracts/libraries/TransferHelper.sol\":371:428  token.call(abi.encodeWithSelector(0xa9059cbb, to, value)) */\n      tag_367\n      jump\t// in\n    tag_366:\n      0x00\n      mload(0x40)\n      dup1\n      dup4\n      sub\n      dup2\n      0x00\n      dup7\n      gas\n      call\n      swap2\n      pop\n      pop\n      returndatasize\n      dup1\n      0x00\n      dup2\n      eq\n      tag_370\n      jumpi\n      mload(0x40)\n      swap2\n      pop\n      and(add(returndatasize, 0x3f), not(0x1f))\n      dup3\n      add\n      0x40\n      mstore\n      returndatasize\n      dup3\n      mstore\n      returndatasize\n      0x00\n      0x20\n      dup5\n      add\n      returndatacopy\n      jump(tag_369)\n    tag_370:\n      0x60\n      swap2\n      pop\n    tag_369:\n      pop\n        /* \"contracts/libraries/TransferHelper.sol\":323:428  (bool success, bytes memory data) =... */\n      swap2\n      pop\n      swap2\n      pop\n        /* \"contracts/libraries/TransferHelper.sol\":459:466  success */\n      dup2\n        /* \"contracts/libraries/TransferHelper.sol\":459:516  success && (data.length == 0 || abi.decode(data, (bool))) */\n      dup1\n      iszero\n      tag_373\n      jumpi\n      pop\n        /* \"contracts/libraries/TransferHelper.sol\":471:482  data.length */\n      dup1\n      mload\n        /* \"contracts/libraries/TransferHelper.sol\":471:487  data.length == 0 */\n      iszero\n      dup1\n        /* \"contracts/libraries/TransferHelper.sol\":471:515  data.length == 0 || abi.decode(data, (bool)) */\n      tag_373\n      jumpi\n      pop\n        /* \"contracts/libraries/TransferHelper.sol\":502:506  data */\n      dup1\n        /* \"contracts/libraries/TransferHelper.sol\":491:515  abi.decode(data, (bool)) */\n      dup1\n      0x20\n      add\n      swap1\n      mload\n      dup2\n      add\n      swap1\n      tag_373\n      swap2\n      swap1\n      tag_374\n      jump\t// in\n    tag_373:\n        /* \"contracts/libraries/TransferHelper.sol\":438:587  require(... */\n      tag_375\n      jumpi\n      mload(0x40)\n      shl(0xe5, 0x461bcd)\n      dup2\n      mstore\n        /* \"#utility.yul\":12640:12642   */\n      0x20\n        /* \"contracts/libraries/TransferHelper.sol\":438:587  require(... */\n      0x04\n      dup3\n      add\n        /* \"#utility.yul\":12622:12643   */\n      mstore\n        /* \"#utility.yul\":12679:12681   */\n      0x2d\n        /* \"#utility.yul\":12659:12677   */\n      0x24\n      dup3\n      add\n        /* \"#utility.yul\":12652:12682   */\n      mstore\n        /* \"#utility.yul\":12718:12752   */\n      0x5472616e7366657248656c7065723a3a736166655472616e736665723a207472\n        /* \"#utility.yul\":12698:12716   */\n      0x44\n      dup3\n      add\n        /* \"#utility.yul\":12691:12753   */\n      mstore\n      shl(0x9a, 0x185b9cd9995c8819985a5b1959)\n        /* \"#utility.yul\":12769:12787   */\n      0x64\n      dup3\n      add\n        /* \"#utility.yul\":12762:12805   */\n      mstore\n        /* \"#utility.yul\":12822:12841   */\n      0x84\n      add\n        /* \"contracts/libraries/TransferHelper.sol\":438:587  require(... */\n      tag_156\n        /* \"#utility.yul\":12438:12847   */\n      jump\n        /* \"contracts/libraries/TransferHelper.sol\":438:587  require(... */\n    tag_375:\n        /* \"contracts/libraries/TransferHelper.sol\":313:594  {... */\n      pop\n      pop\n        /* \"contracts/libraries/TransferHelper.sol\":210:594  function safeTransfer(... */\n      pop\n      pop\n      pop\n      jump\t// out\n        /* \"contracts/libraries/TransferHelper.sol\":1026:1274  function safeTransferETH(address to, uint256 value) internal {... */\n    tag_232:\n        /* \"contracts/libraries/TransferHelper.sol\":1138:1150  new bytes(0) */\n      0x40\n      dup1\n      mload\n        /* \"contracts/libraries/TransferHelper.sol\":1098:1110  bool success */\n      0x00\n        /* \"contracts/libraries/TransferHelper.sol\":1138:1150  new bytes(0) */\n      dup1\n      dup3\n      mstore\n      0x20\n      dup3\n      add\n      swap1\n      swap3\n      mstore\n      sub(shl(0xa0, 0x01), 0x01)\n        /* \"contracts/libraries/TransferHelper.sol\":1116:1123  to.call */\n      dup5\n      and\n      swap1\n        /* \"contracts/libraries/TransferHelper.sol\":1131:1136  value */\n      dup4\n      swap1\n        /* \"contracts/libraries/TransferHelper.sol\":1116:1151  to.call{value: value}(new bytes(0)) */\n      mload(0x40)\n      tag_383\n      swap2\n      swap1\n      tag_367\n      jump\t// in\n    tag_383:\n      0x00\n      mload(0x40)\n      dup1\n      dup4\n      sub\n      dup2\n      dup6\n      dup8\n      gas\n      call\n      swap3\n      pop\n      pop\n      pop\n      returndatasize\n      dup1\n      0x00\n      dup2\n      eq\n      tag_386\n      jumpi\n      mload(0x40)\n      swap2\n      pop\n      and(add(returndatasize, 0x3f), not(0x1f))\n      dup3\n      add\n      0x40\n      mstore\n      returndatasize\n      dup3\n      mstore\n      returndatasize\n      0x00\n      0x20\n      dup5\n      add\n      returndatacopy\n      jump(tag_385)\n    tag_386:\n      0x60\n      swap2\n      pop\n    tag_385:\n      pop\n        /* \"contracts/libraries/TransferHelper.sol\":1097:1151  (bool success, ) = to.call{value: value}(new bytes(0)) */\n      pop\n      swap1\n      pop\n        /* \"contracts/libraries/TransferHelper.sol\":1182:1189  success */\n      dup1\n        /* \"contracts/libraries/TransferHelper.sol\":1161:1267  require(... */\n      tag_189\n      jumpi\n      mload(0x40)\n      shl(0xe5, 0x461bcd)\n      dup2\n      mstore\n        /* \"#utility.yul\":8301:8303   */\n      0x20\n        /* \"contracts/libraries/TransferHelper.sol\":1161:1267  require(... */\n      0x04\n      dup3\n      add\n        /* \"#utility.yul\":8283:8304   */\n      mstore\n        /* \"#utility.yul\":8340:8342   */\n      0x34\n        /* \"#utility.yul\":8320:8338   */\n      0x24\n      dup3\n      add\n        /* \"#utility.yul\":8313:8343   */\n      mstore\n        /* \"#utility.yul\":8379:8413   */\n      0x5472616e7366657248656c7065723a3a736166655472616e736665724554483a\n        /* \"#utility.yul\":8359:8377   */\n      0x44\n      dup3\n      add\n        /* \"#utility.yul\":8352:8414   */\n      mstore\n      shl(0x62, 0x08115512081d1c985b9cd9995c8819985a5b1959)\n        /* \"#utility.yul\":8430:8448   */\n      0x64\n      dup3\n      add\n        /* \"#utility.yul\":8423:8473   */\n      mstore\n        /* \"#utility.yul\":8490:8509   */\n      0x84\n      add\n        /* \"contracts/libraries/TransferHelper.sol\":1161:1267  require(... */\n      tag_156\n        /* \"#utility.yul\":8099:8515   */\n      jump\n        /* \"@openzeppelin/contracts/access/Ownable.sol\":2041:2210  function _setOwner(address newOwner) private {... */\n    tag_258:\n        /* \"@openzeppelin/contracts/access/Ownable.sol\":2096:2112  address oldOwner */\n      0x00\n        /* \"@openzeppelin/contracts/access/Ownable.sol\":2115:2121  _owner */\n      dup1\n      sload\n      sub(shl(0xa0, 0x01), 0x01)\n        /* \"@openzeppelin/contracts/access/Ownable.sol\":2131:2148  _owner = newOwner */\n      dup4\n      dup2\n      and\n      not(sub(shl(0xa0, 0x01), 0x01))\n      dup4\n      and\n      dup2\n      or\n      dup5\n      sstore\n        /* \"@openzeppelin/contracts/access/Ownable.sol\":2163:2203  OwnershipTransferred(oldOwner, newOwner) */\n      mload(0x40)\n        /* \"@openzeppelin/contracts/access/Ownable.sol\":2115:2121  _owner */\n      swap2\n      swap1\n      swap3\n      and\n      swap3\n      dup4\n      swap2\n        /* \"@openzeppelin/contracts/access/Ownable.sol\":2163:2203  OwnershipTransferred(oldOwner, newOwner) */\n      0x8be0079c531659141344cd1fd0a4f28419497f9722a3daafe3b4186f6b6457e0\n      swap2\n        /* \"@openzeppelin/contracts/access/Ownable.sol\":2096:2112  address oldOwner */\n      swap1\n        /* \"@openzeppelin/contracts/access/Ownable.sol\":2163:2203  OwnershipTransferred(oldOwner, newOwner) */\n      log3\n        /* \"@openzeppelin/contracts/access/Ownable.sol\":2086:2210  {... */\n      pop\n        /* \"@openzeppelin/contracts/access/Ownable.sol\":2041:2210  function _setOwner(address newOwner) private {... */\n      pop\n      jump\t// out\n        /* \"contracts/chains/polygon/RewardSystem.sol\":5645:6197  function swapTokensForEth(uint256 tokenAmount) private {... */\n    tag_315:\n        /* \"contracts/chains/polygon/RewardSystem.sol\":5791:5807  new address[](2) */\n      0x40\n      dup1\n      mload\n        /* \"contracts/chains/polygon/RewardSystem.sol\":5805:5806  2 */\n      0x02\n        /* \"contracts/chains/polygon/RewardSystem.sol\":5791:5807  new address[](2) */\n      dup1\n      dup3\n      mstore\n      0x60\n      dup3\n      add\n      dup4\n      mstore\n        /* \"contracts/chains/polygon/RewardSystem.sol\":5767:5788  address[] memory path */\n      0x00\n      swap3\n        /* \"contracts/chains/polygon/RewardSystem.sol\":5791:5807  new address[](2) */\n      0x20\n      dup4\n      add\n      swap1\n      dup1\n      calldatasize\n      dup4\n      calldatacopy\n      pop\n      pop\n        /* \"contracts/chains/polygon/RewardSystem.sol\":5835:5847  _rewardToken */\n      sload(0x07)\n        /* \"contracts/chains/polygon/RewardSystem.sol\":5817:5824  path[0] */\n      dup3\n      mload\n      swap3\n      swap4\n      pop\n      sub(shl(0xa0, 0x01), 0x01)\n        /* \"contracts/chains/polygon/RewardSystem.sol\":5835:5847  _rewardToken */\n      and\n      swap2\n        /* \"contracts/chains/polygon/RewardSystem.sol\":5817:5824  path[0] */\n      dup4\n      swap2\n      pop\n        /* \"contracts/chains/polygon/RewardSystem.sol\":5835:5847  _rewardToken */\n      0x00\n      swap1\n        /* \"contracts/chains/polygon/RewardSystem.sol\":5817:5824  path[0] */\n      tag_396\n      jumpi\n      tag_396\n      tag_193\n      jump\t// in\n    tag_396:\n      sub(shl(0xa0, 0x01), 0x01)\n        /* \"contracts/chains/polygon/RewardSystem.sol\":5817:5848  path[0] = address(_rewardToken) */\n      swap3\n      dup4\n      and\n        /* \"contracts/chains/polygon/RewardSystem.sol\":5817:5824  path[0] */\n      0x20\n      swap2\n      dup3\n      mul\n      swap3\n      swap1\n      swap3\n      add\n      dup2\n      add\n        /* \"contracts/chains/polygon/RewardSystem.sol\":5817:5848  path[0] = address(_rewardToken) */\n      swap2\n      swap1\n      swap2\n      mstore\n        /* \"contracts/chains/polygon/RewardSystem.sol\":5868:5875  _router */\n      sload(0x08)\n        /* \"contracts/chains/polygon/RewardSystem.sol\":5868:5882  _router.WETH() */\n      0x40\n      dup1\n      mload\n      shl(0xe3, 0x15ab88c9)\n      dup2\n      mstore\n      swap1\n      mload\n        /* \"contracts/chains/polygon/RewardSystem.sol\":5868:5875  _router */\n      swap2\n      swap1\n      swap4\n      and\n      swap3\n        /* \"contracts/chains/polygon/RewardSystem.sol\":5868:5880  _router.WETH */\n      0xad5c4648\n      swap3\n        /* \"contracts/chains/polygon/RewardSystem.sol\":5868:5882  _router.WETH() */\n      0x04\n      dup1\n      dup4\n      add\n      swap4\n        /* \"contracts/chains/polygon/RewardSystem.sol\":5817:5824  path[0] */\n      swap2\n      swap3\n        /* \"contracts/chains/polygon/RewardSystem.sol\":5868:5882  _router.WETH() */\n      dup3\n      swap1\n      sub\n      add\n      dup2\n        /* \"contracts/chains/polygon/RewardSystem.sol\":5868:5875  _router */\n      dup7\n        /* \"contracts/chains/polygon/RewardSystem.sol\":5868:5882  _router.WETH() */\n      dup1\n      extcodesize\n      iszero\n      dup1\n      iszero\n      tag_397\n      jumpi\n      0x00\n      dup1\n      revert\n    tag_397:\n      pop\n      gas\n      staticcall\n      iszero\n      dup1\n      iszero\n      tag_399\n      jumpi\n      returndatasize\n      0x00\n      dup1\n      returndatacopy\n      revert(0x00, returndatasize)\n    tag_399:\n      pop\n      pop\n      pop\n      pop\n      mload(0x40)\n      returndatasize\n      not(0x1f)\n      0x1f\n      dup3\n      add\n      and\n      dup3\n      add\n      dup1\n      0x40\n      mstore\n      pop\n      dup2\n      add\n      swap1\n      tag_400\n      swap2\n      swap1\n      tag_401\n      jump\t// in\n    tag_400:\n        /* \"contracts/chains/polygon/RewardSystem.sol\":5858:5862  path */\n      dup2\n        /* \"contracts/chains/polygon/RewardSystem.sol\":5863:5864  1 */\n      0x01\n        /* \"contracts/chains/polygon/RewardSystem.sol\":5858:5865  path[1] */\n      dup2\n      mload\n      dup2\n      lt\n      tag_403\n      jumpi\n      tag_403\n      tag_193\n      jump\t// in\n    tag_403:\n      sub(shl(0xa0, 0x01), 0x01)\n        /* \"contracts/chains/polygon/RewardSystem.sol\":5858:5882  path[1] = _router.WETH() */\n      swap3\n      dup4\n      and\n        /* \"contracts/chains/polygon/RewardSystem.sol\":5858:5865  path[1] */\n      0x20\n      swap2\n      dup3\n      mul\n      swap3\n      swap1\n      swap3\n      add\n      add\n        /* \"contracts/chains/polygon/RewardSystem.sol\":5858:5882  path[1] = _router.WETH() */\n      mstore\n        /* \"contracts/chains/polygon/RewardSystem.sol\":5893:5905  _rewardToken */\n      sload(0x07)\n        /* \"contracts/chains/polygon/RewardSystem.sol\":5922:5929  _router */\n      sload(0x08)\n        /* \"contracts/chains/polygon/RewardSystem.sol\":5893:5944  _rewardToken.approve(address(_router), tokenAmount) */\n      mload(0x40)\n      shl(0xe0, 0x095ea7b3)\n      dup2\n      mstore\n        /* \"contracts/chains/polygon/RewardSystem.sol\":5922:5929  _router */\n      swap1\n      dup4\n      and\n        /* \"contracts/chains/polygon/RewardSystem.sol\":5893:5944  _rewardToken.approve(address(_router), tokenAmount) */\n      0x04\n      dup3\n      add\n        /* \"#utility.yul\":6453:6504   */\n      mstore\n        /* \"#utility.yul\":6520:6538   */\n      0x24\n      dup2\n      add\n        /* \"#utility.yul\":6513:6547   */\n      dup6\n      swap1\n      mstore\n        /* \"contracts/chains/polygon/RewardSystem.sol\":5893:5905  _rewardToken */\n      swap2\n      and\n      swap1\n        /* \"contracts/chains/polygon/RewardSystem.sol\":5893:5913  _rewardToken.approve */\n      0x095ea7b3\n      swap1\n        /* \"#utility.yul\":6426:6444   */\n      0x44\n      add\n        /* \"contracts/chains/polygon/RewardSystem.sol\":5893:5944  _rewardToken.approve(address(_router), tokenAmount) */\n      0x20\n      mload(0x40)\n      dup1\n      dup4\n      sub\n      dup2\n      0x00\n      dup8\n      dup1\n      extcodesize\n      iszero\n      dup1\n      iszero\n      tag_405\n      jumpi\n      0x00\n      dup1\n      revert\n    tag_405:\n      pop\n      gas\n      call\n      iszero\n      dup1\n      iszero\n      tag_407\n      jumpi\n      returndatasize\n      0x00\n      dup1\n      returndatacopy\n      revert(0x00, returndatasize)\n    tag_407:\n      pop\n      pop\n      pop\n      pop\n      mload(0x40)\n      returndatasize\n      not(0x1f)\n      0x1f\n      dup3\n      add\n      and\n      dup3\n      add\n      dup1\n      0x40\n      mstore\n      pop\n      dup2\n      add\n      swap1\n      tag_408\n      swap2\n      swap1\n      tag_374\n      jump\t// in\n    tag_408:\n      pop\n        /* \"contracts/chains/polygon/RewardSystem.sol\":5980:5987  _router */\n      sload(0x08)\n        /* \"contracts/chains/polygon/RewardSystem.sol\":5980:6190  _router.swapExactTokensForETHSupportingFeeOnTransferTokens(... */\n      mload(0x40)\n      shl(0xe0, 0x791ac947)\n      dup2\n      mstore\n      sub(shl(0xa0, 0x01), 0x01)\n        /* \"contracts/chains/polygon/RewardSystem.sol\":5980:5987  _router */\n      swap1\n      swap2\n      and\n      swap1\n        /* \"contracts/chains/polygon/RewardSystem.sol\":5980:6038  _router.swapExactTokensForETHSupportingFeeOnTransferTokens */\n      0x791ac947\n      swap1\n        /* \"contracts/chains/polygon/RewardSystem.sol\":5980:6190  _router.swapExactTokensForETHSupportingFeeOnTransferTokens(... */\n      tag_409\n      swap1\n        /* \"contracts/chains/polygon/RewardSystem.sol\":6052:6063  tokenAmount */\n      dup6\n      swap1\n        /* \"contracts/chains/polygon/RewardSystem.sol\":5980:5987  _router */\n      0x00\n      swap1\n        /* \"contracts/chains/polygon/RewardSystem.sol\":6120:6124  path */\n      dup7\n      swap1\n        /* \"contracts/chains/polygon/RewardSystem.sol\":6146:6150  this */\n      address\n      swap1\n        /* \"contracts/chains/polygon/RewardSystem.sol\":6165:6180  block.timestamp */\n      timestamp\n      swap1\n        /* \"contracts/chains/polygon/RewardSystem.sol\":5980:6190  _router.swapExactTokensForETHSupportingFeeOnTransferTokens(... */\n      0x04\n      add\n      tag_410\n      jump\t// in\n    tag_409:\n      0x00\n      mload(0x40)\n      dup1\n      dup4\n      sub\n      dup2\n      0x00\n      dup8\n      dup1\n      extcodesize\n      iszero\n      dup1\n      iszero\n      tag_411\n      jumpi\n      0x00\n      dup1\n      revert\n    tag_411:\n      pop\n      gas\n      call\n      iszero\n      dup1\n      iszero\n      tag_413\n      jumpi\n      returndatasize\n      0x00\n      dup1\n      returndatacopy\n      revert(0x00, returndatasize)\n    tag_413:\n      pop\n      pop\n      pop\n      pop\n        /* \"contracts/chains/polygon/RewardSystem.sol\":5700:6197  {... */\n      pop\n        /* \"contracts/chains/polygon/RewardSystem.sol\":5645:6197  function swapTokensForEth(uint256 tokenAmount) private {... */\n      pop\n      jump\t// out\n        /* \"@openzeppelin/contracts/utils/math/SafeMath.sol\":3039:3135  function sub(uint256 a, uint256 b) internal pure returns (uint256) {... */\n    tag_317:\n        /* \"@openzeppelin/contracts/utils/math/SafeMath.sol\":3097:3104  uint256 */\n      0x00\n        /* \"@openzeppelin/contracts/utils/math/SafeMath.sol\":3123:3128  a - b */\n      tag_415\n        /* \"@openzeppelin/contracts/utils/math/SafeMath.sol\":3127:3128  b */\n      dup3\n        /* \"@openzeppelin/contracts/utils/math/SafeMath.sol\":3123:3124  a */\n      dup5\n        /* \"@openzeppelin/contracts/utils/math/SafeMath.sol\":3123:3128  a - b */\n      tag_416\n      jump\t// in\n    tag_415:\n        /* \"@openzeppelin/contracts/utils/math/SafeMath.sol\":3116:3128  return a - b */\n      swap4\n        /* \"@openzeppelin/contracts/utils/math/SafeMath.sol\":3039:3135  function sub(uint256 a, uint256 b) internal pure returns (uint256) {... */\n      swap3\n      pop\n      pop\n      pop\n      jump\t// out\n        /* \"@openzeppelin/contracts/utils/math/SafeMath.sol\":3382:3478  function mul(uint256 a, uint256 b) internal pure returns (uint256) {... */\n    tag_321:\n        /* \"@openzeppelin/contracts/utils/math/SafeMath.sol\":3440:3447  uint256 */\n      0x00\n        /* \"@openzeppelin/contracts/utils/math/SafeMath.sol\":3466:3471  a * b */\n      tag_415\n        /* \"@openzeppelin/contracts/utils/math/SafeMath.sol\":3470:3471  b */\n      dup3\n        /* \"@openzeppelin/contracts/utils/math/SafeMath.sol\":3466:3467  a */\n      dup5\n        /* \"@openzeppelin/contracts/utils/math/SafeMath.sol\":3466:3471  a * b */\n      tag_419\n      jump\t// in\n        /* \"@openzeppelin/contracts/utils/math/SafeMath.sol\":3767:3863  function div(uint256 a, uint256 b) internal pure returns (uint256) {... */\n    tag_322:\n        /* \"@openzeppelin/contracts/utils/math/SafeMath.sol\":3825:3832  uint256 */\n      0x00\n        /* \"@openzeppelin/contracts/utils/math/SafeMath.sol\":3851:3856  a / b */\n      tag_415\n        /* \"@openzeppelin/contracts/utils/math/SafeMath.sol\":3855:3856  b */\n      dup3\n        /* \"@openzeppelin/contracts/utils/math/SafeMath.sol\":3851:3852  a */\n      dup5\n        /* \"@openzeppelin/contracts/utils/math/SafeMath.sol\":3851:3856  a / b */\n      tag_422\n      jump\t// in\n        /* \"#utility.yul\":14:762   */\n    tag_424:\n        /* \"#utility.yul\":68:73   */\n      0x00\n        /* \"#utility.yul\":121:124   */\n      dup3\n        /* \"#utility.yul\":114:118   */\n      0x1f\n        /* \"#utility.yul\":106:112   */\n      dup4\n        /* \"#utility.yul\":102:119   */\n      add\n        /* \"#utility.yul\":98:125   */\n      slt\n        /* \"#utility.yul\":88:143   */\n      tag_426\n      jumpi\n        /* \"#utility.yul\":139:140   */\n      0x00\n        /* \"#utility.yul\":136:137   */\n      dup1\n        /* \"#utility.yul\":129:141   */\n      revert\n        /* \"#utility.yul\":88:143   */\n    tag_426:\n        /* \"#utility.yul\":175:181   */\n      dup2\n        /* \"#utility.yul\":162:182   */\n      calldataload\n        /* \"#utility.yul\":201:205   */\n      0x20\n        /* \"#utility.yul\":225:285   */\n      tag_427\n        /* \"#utility.yul\":241:284   */\n      tag_428\n        /* \"#utility.yul\":281:283   */\n      dup4\n        /* \"#utility.yul\":241:284   */\n      tag_429\n      jump\t// in\n    tag_428:\n        /* \"#utility.yul\":225:285   */\n      tag_430\n      jump\t// in\n    tag_427:\n        /* \"#utility.yul\":307:310   */\n      dup1\n        /* \"#utility.yul\":331:333   */\n      dup4\n        /* \"#utility.yul\":326:329   */\n      dup3\n        /* \"#utility.yul\":319:334   */\n      mstore\n        /* \"#utility.yul\":359:361   */\n      dup3\n        /* \"#utility.yul\":354:357   */\n      dup3\n        /* \"#utility.yul\":350:362   */\n      add\n        /* \"#utility.yul\":343:362   */\n      swap2\n      pop\n        /* \"#utility.yul\":394:396   */\n      dup3\n        /* \"#utility.yul\":386:392   */\n      dup7\n        /* \"#utility.yul\":382:397   */\n      add\n        /* \"#utility.yul\":446:449   */\n      dup8\n        /* \"#utility.yul\":441:443   */\n      dup5\n        /* \"#utility.yul\":435:437   */\n      dup7\n        /* \"#utility.yul\":432:433   */\n      0x05\n        /* \"#utility.yul\":428:438   */\n      shl\n        /* \"#utility.yul\":420:426   */\n      dup10\n        /* \"#utility.yul\":416:439   */\n      add\n        /* \"#utility.yul\":412:444   */\n      add\n        /* \"#utility.yul\":409:450   */\n      gt\n        /* \"#utility.yul\":406:467   */\n      iszero\n      tag_431\n      jumpi\n        /* \"#utility.yul\":463:464   */\n      0x00\n        /* \"#utility.yul\":460:461   */\n      dup1\n        /* \"#utility.yul\":453:465   */\n      revert\n        /* \"#utility.yul\":406:467   */\n    tag_431:\n        /* \"#utility.yul\":485:486   */\n      0x00\n        /* \"#utility.yul\":495:733   */\n    tag_432:\n        /* \"#utility.yul\":509:511   */\n      dup6\n        /* \"#utility.yul\":506:507   */\n      dup2\n        /* \"#utility.yul\":503:512   */\n      lt\n        /* \"#utility.yul\":495:733   */\n      iszero\n      tag_434\n      jumpi\n        /* \"#utility.yul\":580:583   */\n      dup2\n        /* \"#utility.yul\":567:584   */\n      calldataload\n        /* \"#utility.yul\":597:628   */\n      tag_435\n        /* \"#utility.yul\":622:627   */\n      dup2\n        /* \"#utility.yul\":597:628   */\n      tag_436\n      jump\t// in\n    tag_435:\n        /* \"#utility.yul\":641:659   */\n      dup5\n      mstore\n        /* \"#utility.yul\":679:691   */\n      swap3\n      dup5\n      add\n      swap3\n        /* \"#utility.yul\":711:723   */\n      swap1\n      dup5\n      add\n      swap1\n        /* \"#utility.yul\":527:528   */\n      0x01\n        /* \"#utility.yul\":520:529   */\n      add\n        /* \"#utility.yul\":495:733   */\n      jump(tag_432)\n    tag_434:\n      pop\n        /* \"#utility.yul\":751:756   */\n      swap1\n      swap8\n        /* \"#utility.yul\":14:762   */\n      swap7\n      pop\n      pop\n      pop\n      pop\n      pop\n      pop\n      pop\n      jump\t// out\n        /* \"#utility.yul\":767:1440   */\n    tag_437:\n        /* \"#utility.yul\":821:826   */\n      0x00\n        /* \"#utility.yul\":874:877   */\n      dup3\n        /* \"#utility.yul\":867:871   */\n      0x1f\n        /* \"#utility.yul\":859:865   */\n      dup4\n        /* \"#utility.yul\":855:872   */\n      add\n        /* \"#utility.yul\":851:878   */\n      slt\n        /* \"#utility.yul\":841:896   */\n      tag_439\n      jumpi\n        /* \"#utility.yul\":892:893   */\n      0x00\n        /* \"#utility.yul\":889:890   */\n      dup1\n        /* \"#utility.yul\":882:894   */\n      revert\n        /* \"#utility.yul\":841:896   */\n    tag_439:\n        /* \"#utility.yul\":928:934   */\n      dup2\n        /* \"#utility.yul\":915:935   */\n      calldataload\n        /* \"#utility.yul\":954:958   */\n      0x20\n        /* \"#utility.yul\":978:1038   */\n      tag_440\n        /* \"#utility.yul\":994:1037   */\n      tag_428\n        /* \"#utility.yul\":1034:1036   */\n      dup4\n        /* \"#utility.yul\":994:1037   */\n      tag_429\n      jump\t// in\n        /* \"#utility.yul\":978:1038   */\n    tag_440:\n        /* \"#utility.yul\":1060:1063   */\n      dup1\n        /* \"#utility.yul\":1084:1086   */\n      dup4\n        /* \"#utility.yul\":1079:1082   */\n      dup3\n        /* \"#utility.yul\":1072:1087   */\n      mstore\n        /* \"#utility.yul\":1112:1114   */\n      dup3\n        /* \"#utility.yul\":1107:1110   */\n      dup3\n        /* \"#utility.yul\":1103:1115   */\n      add\n        /* \"#utility.yul\":1096:1115   */\n      swap2\n      pop\n        /* \"#utility.yul\":1147:1149   */\n      dup3\n        /* \"#utility.yul\":1139:1145   */\n      dup7\n        /* \"#utility.yul\":1135:1150   */\n      add\n        /* \"#utility.yul\":1199:1202   */\n      dup8\n        /* \"#utility.yul\":1194:1196   */\n      dup5\n        /* \"#utility.yul\":1188:1190   */\n      dup7\n        /* \"#utility.yul\":1185:1186   */\n      0x05\n        /* \"#utility.yul\":1181:1191   */\n      shl\n        /* \"#utility.yul\":1173:1179   */\n      dup10\n        /* \"#utility.yul\":1169:1192   */\n      add\n        /* \"#utility.yul\":1165:1197   */\n      add\n        /* \"#utility.yul\":1162:1203   */\n      gt\n        /* \"#utility.yul\":1159:1220   */\n      iszero\n      tag_442\n      jumpi\n        /* \"#utility.yul\":1216:1217   */\n      0x00\n        /* \"#utility.yul\":1213:1214   */\n      dup1\n        /* \"#utility.yul\":1206:1218   */\n      revert\n        /* \"#utility.yul\":1159:1220   */\n    tag_442:\n        /* \"#utility.yul\":1238:1239   */\n      0x00\n        /* \"#utility.yul\":1248:1411   */\n    tag_443:\n        /* \"#utility.yul\":1262:1264   */\n      dup6\n        /* \"#utility.yul\":1259:1260   */\n      dup2\n        /* \"#utility.yul\":1256:1265   */\n      lt\n        /* \"#utility.yul\":1248:1411   */\n      iszero\n      tag_434\n      jumpi\n        /* \"#utility.yul\":1319:1336   */\n      dup2\n      calldataload\n        /* \"#utility.yul\":1307:1337   */\n      dup5\n      mstore\n        /* \"#utility.yul\":1357:1369   */\n      swap3\n      dup5\n      add\n      swap3\n        /* \"#utility.yul\":1389:1401   */\n      swap1\n      dup5\n      add\n      swap1\n        /* \"#utility.yul\":1280:1281   */\n      0x01\n        /* \"#utility.yul\":1273:1282   */\n      add\n        /* \"#utility.yul\":1248:1411   */\n      jump(tag_443)\n        /* \"#utility.yul\":1445:1692   */\n    tag_47:\n        /* \"#utility.yul\":1504:1510   */\n      0x00\n        /* \"#utility.yul\":1557:1559   */\n      0x20\n        /* \"#utility.yul\":1545:1554   */\n      dup3\n        /* \"#utility.yul\":1536:1543   */\n      dup5\n        /* \"#utility.yul\":1532:1555   */\n      sub\n        /* \"#utility.yul\":1528:1560   */\n      slt\n        /* \"#utility.yul\":1525:1577   */\n      iszero\n      tag_447\n      jumpi\n        /* \"#utility.yul\":1573:1574   */\n      0x00\n        /* \"#utility.yul\":1570:1571   */\n      dup1\n        /* \"#utility.yul\":1563:1575   */\n      revert\n        /* \"#utility.yul\":1525:1577   */\n    tag_447:\n        /* \"#utility.yul\":1612:1621   */\n      dup2\n        /* \"#utility.yul\":1599:1622   */\n      calldataload\n        /* \"#utility.yul\":1631:1662   */\n      tag_415\n        /* \"#utility.yul\":1656:1661   */\n      dup2\n        /* \"#utility.yul\":1631:1662   */\n      tag_436\n      jump\t// in\n        /* \"#utility.yul\":1697:1948   */\n    tag_401:\n        /* \"#utility.yul\":1767:1773   */\n      0x00\n        /* \"#utility.yul\":1820:1822   */\n      0x20\n        /* \"#utility.yul\":1808:1817   */\n      dup3\n        /* \"#utility.yul\":1799:1806   */\n      dup5\n        /* \"#utility.yul\":1795:1818   */\n      sub\n        /* \"#utility.yul\":1791:1823   */\n      slt\n        /* \"#utility.yul\":1788:1840   */\n      iszero\n      tag_450\n      jumpi\n        /* \"#utility.yul\":1836:1837   */\n      0x00\n        /* \"#utility.yul\":1833:1834   */\n      dup1\n        /* \"#utility.yul\":1826:1838   */\n      revert\n        /* \"#utility.yul\":1788:1840   */\n    tag_450:\n        /* \"#utility.yul\":1868:1877   */\n      dup2\n        /* \"#utility.yul\":1862:1878   */\n      mload\n        /* \"#utility.yul\":1887:1918   */\n      tag_415\n        /* \"#utility.yul\":1912:1917   */\n      dup2\n        /* \"#utility.yul\":1887:1918   */\n      tag_436\n      jump\t// in\n        /* \"#utility.yul\":1953:2548   */\n    tag_52:\n        /* \"#utility.yul\":2071:2077   */\n      0x00\n        /* \"#utility.yul\":2079:2085   */\n      dup1\n        /* \"#utility.yul\":2132:2134   */\n      0x40\n        /* \"#utility.yul\":2120:2129   */\n      dup4\n        /* \"#utility.yul\":2111:2118   */\n      dup6\n        /* \"#utility.yul\":2107:2130   */\n      sub\n        /* \"#utility.yul\":2103:2135   */\n      slt\n        /* \"#utility.yul\":2100:2152   */\n      iszero\n      tag_453\n      jumpi\n        /* \"#utility.yul\":2148:2149   */\n      0x00\n        /* \"#utility.yul\":2145:2146   */\n      dup1\n        /* \"#utility.yul\":2138:2150   */\n      revert\n        /* \"#utility.yul\":2100:2152   */\n    tag_453:\n        /* \"#utility.yul\":2188:2197   */\n      dup3\n        /* \"#utility.yul\":2175:2198   */\n      calldataload\n        /* \"#utility.yul\":2217:2235   */\n      0xffffffffffffffff\n        /* \"#utility.yul\":2258:2260   */\n      dup1\n        /* \"#utility.yul\":2250:2256   */\n      dup3\n        /* \"#utility.yul\":2247:2261   */\n      gt\n        /* \"#utility.yul\":2244:2278   */\n      iszero\n      tag_454\n      jumpi\n        /* \"#utility.yul\":2274:2275   */\n      0x00\n        /* \"#utility.yul\":2271:2272   */\n      dup1\n        /* \"#utility.yul\":2264:2276   */\n      revert\n        /* \"#utility.yul\":2244:2278   */\n    tag_454:\n        /* \"#utility.yul\":2297:2358   */\n      tag_455\n        /* \"#utility.yul\":2350:2357   */\n      dup7\n        /* \"#utility.yul\":2341:2347   */\n      dup4\n        /* \"#utility.yul\":2330:2339   */\n      dup8\n        /* \"#utility.yul\":2326:2348   */\n      add\n        /* \"#utility.yul\":2297:2358   */\n      tag_437\n      jump\t// in\n    tag_455:\n        /* \"#utility.yul\":2287:2358   */\n      swap4\n      pop\n        /* \"#utility.yul\":2411:2413   */\n      0x20\n        /* \"#utility.yul\":2400:2409   */\n      dup6\n        /* \"#utility.yul\":2396:2414   */\n      add\n        /* \"#utility.yul\":2383:2415   */\n      calldataload\n        /* \"#utility.yul\":2367:2415   */\n      swap2\n      pop\n        /* \"#utility.yul\":2440:2442   */\n      dup1\n        /* \"#utility.yul\":2430:2438   */\n      dup3\n        /* \"#utility.yul\":2427:2443   */\n      gt\n        /* \"#utility.yul\":2424:2460   */\n      iszero\n      tag_456\n      jumpi\n        /* \"#utility.yul\":2456:2457   */\n      0x00\n        /* \"#utility.yul\":2453:2454   */\n      dup1\n        /* \"#utility.yul\":2446:2458   */\n      revert\n        /* \"#utility.yul\":2424:2460   */\n    tag_456:\n      pop\n        /* \"#utility.yul\":2479:2542   */\n      tag_457\n        /* \"#utility.yul\":2534:2541   */\n      dup6\n        /* \"#utility.yul\":2523:2531   */\n      dup3\n        /* \"#utility.yul\":2512:2521   */\n      dup7\n        /* \"#utility.yul\":2508:2532   */\n      add\n        /* \"#utility.yul\":2479:2542   */\n      tag_424\n      jump\t// in\n    tag_457:\n        /* \"#utility.yul\":2469:2542   */\n      swap2\n      pop\n      pop\n        /* \"#utility.yul\":1953:2548   */\n      swap3\n      pop\n      swap3\n      swap1\n      pop\n      jump\t// out\n        /* \"#utility.yul\":2553:3216   */\n    tag_57:\n        /* \"#utility.yul\":2680:2686   */\n      0x00\n        /* \"#utility.yul\":2688:2694   */\n      dup1\n        /* \"#utility.yul\":2696:2702   */\n      0x00\n        /* \"#utility.yul\":2749:2751   */\n      0x60\n        /* \"#utility.yul\":2737:2746   */\n      dup5\n        /* \"#utility.yul\":2728:2735   */\n      dup7\n        /* \"#utility.yul\":2724:2747   */\n      sub\n        /* \"#utility.yul\":2720:2752   */\n      slt\n        /* \"#utility.yul\":2717:2769   */\n      iszero\n      tag_459\n      jumpi\n        /* \"#utility.yul\":2765:2766   */\n      0x00\n        /* \"#utility.yul\":2762:2763   */\n      dup1\n        /* \"#utility.yul\":2755:2767   */\n      revert\n        /* \"#utility.yul\":2717:2769   */\n    tag_459:\n        /* \"#utility.yul\":2805:2814   */\n      dup4\n        /* \"#utility.yul\":2792:2815   */\n      calldataload\n        /* \"#utility.yul\":2834:2852   */\n      0xffffffffffffffff\n        /* \"#utility.yul\":2875:2877   */\n      dup1\n        /* \"#utility.yul\":2867:2873   */\n      dup3\n        /* \"#utility.yul\":2864:2878   */\n      gt\n        /* \"#utility.yul\":2861:2895   */\n      iszero\n      tag_460\n      jumpi\n        /* \"#utility.yul\":2891:2892   */\n      0x00\n        /* \"#utility.yul\":2888:2889   */\n      dup1\n        /* \"#utility.yul\":2881:2893   */\n      revert\n        /* \"#utility.yul\":2861:2895   */\n    tag_460:\n        /* \"#utility.yul\":2914:2975   */\n      tag_461\n        /* \"#utility.yul\":2967:2974   */\n      dup8\n        /* \"#utility.yul\":2958:2964   */\n      dup4\n        /* \"#utility.yul\":2947:2956   */\n      dup9\n        /* \"#utility.yul\":2943:2965   */\n      add\n        /* \"#utility.yul\":2914:2975   */\n      tag_437\n      jump\t// in\n    tag_461:\n        /* \"#utility.yul\":2904:2975   */\n      swap5\n      pop\n        /* \"#utility.yul\":3028:3030   */\n      0x20\n        /* \"#utility.yul\":3017:3026   */\n      dup7\n        /* \"#utility.yul\":3013:3031   */\n      add\n        /* \"#utility.yul\":3000:3032   */\n      calldataload\n        /* \"#utility.yul\":2984:3032   */\n      swap2\n      pop\n        /* \"#utility.yul\":3057:3059   */\n      dup1\n        /* \"#utility.yul\":3047:3055   */\n      dup3\n        /* \"#utility.yul\":3044:3060   */\n      gt\n        /* \"#utility.yul\":3041:3077   */\n      iszero\n      tag_462\n      jumpi\n        /* \"#utility.yul\":3073:3074   */\n      0x00\n        /* \"#utility.yul\":3070:3071   */\n      dup1\n        /* \"#utility.yul\":3063:3075   */\n      revert\n        /* \"#utility.yul\":3041:3077   */\n    tag_462:\n      pop\n        /* \"#utility.yul\":3096:3159   */\n      tag_463\n        /* \"#utility.yul\":3151:3158   */\n      dup7\n        /* \"#utility.yul\":3140:3148   */\n      dup3\n        /* \"#utility.yul\":3129:3138   */\n      dup8\n        /* \"#utility.yul\":3125:3149   */\n      add\n        /* \"#utility.yul\":3096:3159   */\n      tag_424\n      jump\t// in\n    tag_463:\n        /* \"#utility.yul\":3086:3159   */\n      swap3\n      pop\n      pop\n        /* \"#utility.yul\":3206:3208   */\n      0x40\n        /* \"#utility.yul\":3195:3204   */\n      dup5\n        /* \"#utility.yul\":3191:3209   */\n      add\n        /* \"#utility.yul\":3178:3210   */\n      calldataload\n        /* \"#utility.yul\":3168:3210   */\n      swap1\n      pop\n        /* \"#utility.yul\":2553:3216   */\n      swap3\n      pop\n      swap3\n      pop\n      swap3\n      jump\t// out\n        /* \"#utility.yul\":3221:3498   */\n    tag_374:\n        /* \"#utility.yul\":3288:3294   */\n      0x00\n        /* \"#utility.yul\":3341:3343   */\n      0x20\n        /* \"#utility.yul\":3329:3338   */\n      dup3\n        /* \"#utility.yul\":3320:3327   */\n      dup5\n        /* \"#utility.yul\":3316:3339   */\n      sub\n        /* \"#utility.yul\":3312:3344   */\n      slt\n        /* \"#utility.yul\":3309:3361   */\n      iszero\n      tag_465\n      jumpi\n        /* \"#utility.yul\":3357:3358   */\n      0x00\n        /* \"#utility.yul\":3354:3355   */\n      dup1\n        /* \"#utility.yul\":3347:3359   */\n      revert\n        /* \"#utility.yul\":3309:3361   */\n    tag_465:\n        /* \"#utility.yul\":3389:3398   */\n      dup2\n        /* \"#utility.yul\":3383:3399   */\n      mload\n        /* \"#utility.yul\":3442:3447   */\n      dup1\n        /* \"#utility.yul\":3435:3448   */\n      iszero\n        /* \"#utility.yul\":3428:3449   */\n      iszero\n        /* \"#utility.yul\":3421:3426   */\n      dup2\n        /* \"#utility.yul\":3418:3450   */\n      eq\n        /* \"#utility.yul\":3408:3468   */\n      tag_415\n      jumpi\n        /* \"#utility.yul\":3464:3465   */\n      0x00\n        /* \"#utility.yul\":3461:3462   */\n      dup1\n        /* \"#utility.yul\":3454:3466   */\n      revert\n        /* \"#utility.yul\":4048:4812   */\n    tag_94:\n        /* \"#utility.yul\":4117:4123   */\n      0x00\n        /* \"#utility.yul\":4148:4150   */\n      0x20\n        /* \"#utility.yul\":4191:4193   */\n      dup1\n        /* \"#utility.yul\":4179:4188   */\n      dup4\n        /* \"#utility.yul\":4170:4177   */\n      dup6\n        /* \"#utility.yul\":4166:4189   */\n      sub\n        /* \"#utility.yul\":4162:4194   */\n      slt\n        /* \"#utility.yul\":4159:4211   */\n      iszero\n      tag_474\n      jumpi\n        /* \"#utility.yul\":4207:4208   */\n      0x00\n        /* \"#utility.yul\":4204:4205   */\n      dup1\n        /* \"#utility.yul\":4197:4209   */\n      revert\n        /* \"#utility.yul\":4159:4211   */\n    tag_474:\n        /* \"#utility.yul\":4247:4256   */\n      dup3\n        /* \"#utility.yul\":4234:4257   */\n      calldataload\n        /* \"#utility.yul\":4276:4294   */\n      0xffffffffffffffff\n        /* \"#utility.yul\":4317:4319   */\n      dup1\n        /* \"#utility.yul\":4309:4315   */\n      dup3\n        /* \"#utility.yul\":4306:4320   */\n      gt\n        /* \"#utility.yul\":4303:4337   */\n      iszero\n      tag_475\n      jumpi\n        /* \"#utility.yul\":4333:4334   */\n      0x00\n        /* \"#utility.yul\":4330:4331   */\n      dup1\n        /* \"#utility.yul\":4323:4335   */\n      revert\n        /* \"#utility.yul\":4303:4337   */\n    tag_475:\n        /* \"#utility.yul\":4371:4377   */\n      dup2\n        /* \"#utility.yul\":4360:4369   */\n      dup6\n        /* \"#utility.yul\":4356:4378   */\n      add\n        /* \"#utility.yul\":4346:4378   */\n      swap2\n      pop\n        /* \"#utility.yul\":4416:4423   */\n      dup6\n        /* \"#utility.yul\":4409:4413   */\n      0x1f\n        /* \"#utility.yul\":4405:4407   */\n      dup4\n        /* \"#utility.yul\":4401:4414   */\n      add\n        /* \"#utility.yul\":4397:4424   */\n      slt\n        /* \"#utility.yul\":4387:4442   */\n      tag_476\n      jumpi\n        /* \"#utility.yul\":4438:4439   */\n      0x00\n        /* \"#utility.yul\":4435:4436   */\n      dup1\n        /* \"#utility.yul\":4428:4440   */\n      revert\n        /* \"#utility.yul\":4387:4442   */\n    tag_476:\n        /* \"#utility.yul\":4474:4476   */\n      dup2\n        /* \"#utility.yul\":4461:4477   */\n      calldataload\n        /* \"#utility.yul\":4496:4498   */\n      dup2\n        /* \"#utility.yul\":4492:4494   */\n      dup2\n        /* \"#utility.yul\":4489:4499   */\n      gt\n        /* \"#utility.yul\":4486:4522   */\n      iszero\n      tag_478\n      jumpi\n        /* \"#utility.yul\":4502:4520   */\n      tag_478\n      tag_381\n      jump\t// in\n    tag_478:\n        /* \"#utility.yul\":4544:4597   */\n      tag_479\n        /* \"#utility.yul\":4587:4589   */\n      0x1f\n        /* \"#utility.yul\":4568:4581   */\n      dup3\n      add\n      not(0x1f)\n        /* \"#utility.yul\":4564:4591   */\n      and\n        /* \"#utility.yul\":4560:4596   */\n      dup6\n      add\n        /* \"#utility.yul\":4544:4597   */\n      tag_430\n      jump\t// in\n    tag_479:\n        /* \"#utility.yul\":4531:4597   */\n      swap2\n      pop\n        /* \"#utility.yul\":4620:4622   */\n      dup1\n        /* \"#utility.yul\":4613:4618   */\n      dup3\n        /* \"#utility.yul\":4606:4623   */\n      mstore\n        /* \"#utility.yul\":4660:4667   */\n      dup7\n        /* \"#utility.yul\":4655:4657   */\n      dup5\n        /* \"#utility.yul\":4650:4652   */\n      dup3\n        /* \"#utility.yul\":4646:4648   */\n      dup6\n        /* \"#utility.yul\":4642:4653   */\n      add\n        /* \"#utility.yul\":4638:4658   */\n      add\n        /* \"#utility.yul\":4635:4668   */\n      gt\n        /* \"#utility.yul\":4632:4685   */\n      iszero\n      tag_480\n      jumpi\n        /* \"#utility.yul\":4681:4682   */\n      0x00\n        /* \"#utility.yul\":4678:4679   */\n      dup1\n        /* \"#utility.yul\":4671:4683   */\n      revert\n        /* \"#utility.yul\":4632:4685   */\n    tag_480:\n        /* \"#utility.yul\":4736:4738   */\n      dup1\n        /* \"#utility.yul\":4731:4733   */\n      dup5\n        /* \"#utility.yul\":4727:4729   */\n      dup5\n        /* \"#utility.yul\":4723:4734   */\n      add\n        /* \"#utility.yul\":4718:4720   */\n      dup6\n        /* \"#utility.yul\":4711:4716   */\n      dup5\n        /* \"#utility.yul\":4707:4721   */\n      add\n        /* \"#utility.yul\":4694:4739   */\n      calldatacopy\n        /* \"#utility.yul\":4780:4781   */\n      0x00\n        /* \"#utility.yul\":4759:4773   */\n      swap1\n      dup3\n      add\n        /* \"#utility.yul\":4755:4778   */\n      swap1\n      swap4\n      add\n        /* \"#utility.yul\":4748:4782   */\n      swap3\n      swap1\n      swap3\n      mstore\n      pop\n        /* \"#utility.yul\":4763:4768   */\n      swap4\n        /* \"#utility.yul\":4048:4812   */\n      swap3\n      pop\n      pop\n      pop\n      jump\t// out\n        /* \"#utility.yul\":4817:4997   */\n    tag_81:\n        /* \"#utility.yul\":4876:4882   */\n      0x00\n        /* \"#utility.yul\":4929:4931   */\n      0x20\n        /* \"#utility.yul\":4917:4926   */\n      dup3\n        /* \"#utility.yul\":4908:4915   */\n      dup5\n        /* \"#utility.yul\":4904:4927   */\n      sub\n        /* \"#utility.yul\":4900:4932   */\n      slt\n        /* \"#utility.yul\":4897:4949   */\n      iszero\n      tag_482\n      jumpi\n        /* \"#utility.yul\":4945:4946   */\n      0x00\n        /* \"#utility.yul\":4942:4943   */\n      dup1\n        /* \"#utility.yul\":4935:4947   */\n      revert\n        /* \"#utility.yul\":4897:4949   */\n    tag_482:\n      pop\n        /* \"#utility.yul\":4968:4991   */\n      calldataload\n      swap2\n        /* \"#utility.yul\":4817:4997   */\n      swap1\n      pop\n      jump\t// out\n        /* \"#utility.yul\":5002:5186   */\n    tag_151:\n        /* \"#utility.yul\":5072:5078   */\n      0x00\n        /* \"#utility.yul\":5125:5127   */\n      0x20\n        /* \"#utility.yul\":5113:5122   */\n      dup3\n        /* \"#utility.yul\":5104:5111   */\n      dup5\n        /* \"#utility.yul\":5100:5123   */\n      sub\n        /* \"#utility.yul\":5096:5128   */\n      slt\n        /* \"#utility.yul\":5093:5145   */\n      iszero\n      tag_484\n      jumpi\n        /* \"#utility.yul\":5141:5142   */\n      0x00\n        /* \"#utility.yul\":5138:5139   */\n      dup1\n        /* \"#utility.yul\":5131:5143   */\n      revert\n        /* \"#utility.yul\":5093:5145   */\n    tag_484:\n      pop\n        /* \"#utility.yul\":5164:5180   */\n      mload\n      swap2\n        /* \"#utility.yul\":5002:5186   */\n      swap1\n      pop\n      jump\t// out\n        /* \"#utility.yul\":5191:5506   */\n    tag_121:\n        /* \"#utility.yul\":5259:5265   */\n      0x00\n        /* \"#utility.yul\":5267:5273   */\n      dup1\n        /* \"#utility.yul\":5320:5322   */\n      0x40\n        /* \"#utility.yul\":5308:5317   */\n      dup4\n        /* \"#utility.yul\":5299:5306   */\n      dup6\n        /* \"#utility.yul\":5295:5318   */\n      sub\n        /* \"#utility.yul\":5291:5323   */\n      slt\n        /* \"#utility.yul\":5288:5340   */\n      iszero\n      tag_486\n      jumpi\n        /* \"#utility.yul\":5336:5337   */\n      0x00\n        /* \"#utility.yul\":5333:5334   */\n      dup1\n        /* \"#utility.yul\":5326:5338   */\n      revert\n        /* \"#utility.yul\":5288:5340   */\n    tag_486:\n        /* \"#utility.yul\":5372:5381   */\n      dup3\n        /* \"#utility.yul\":5359:5382   */\n      calldataload\n        /* \"#utility.yul\":5349:5382   */\n      swap2\n      pop\n        /* \"#utility.yul\":5432:5434   */\n      0x20\n        /* \"#utility.yul\":5421:5430   */\n      dup4\n        /* \"#utility.yul\":5417:5435   */\n      add\n        /* \"#utility.yul\":5404:5436   */\n      calldataload\n        /* \"#utility.yul\":5445:5476   */\n      tag_487\n        /* \"#utility.yul\":5470:5475   */\n      dup2\n        /* \"#utility.yul\":5445:5476   */\n      tag_436\n      jump\t// in\n    tag_487:\n        /* \"#utility.yul\":5495:5500   */\n      dup1\n        /* \"#utility.yul\":5485:5500   */\n      swap2\n      pop\n      pop\n        /* \"#utility.yul\":5191:5506   */\n      swap3\n      pop\n      swap3\n      swap1\n      pop\n      jump\t// out\n        /* \"#utility.yul\":5511:5785   */\n    tag_367:\n        /* \"#utility.yul\":5640:5643   */\n      0x00\n        /* \"#utility.yul\":5678:5684   */\n      dup3\n        /* \"#utility.yul\":5672:5685   */\n      mload\n        /* \"#utility.yul\":5694:5747   */\n      tag_489\n        /* \"#utility.yul\":5740:5746   */\n      dup2\n        /* \"#utility.yul\":5735:5738   */\n      dup5\n        /* \"#utility.yul\":5728:5732   */\n      0x20\n        /* \"#utility.yul\":5720:5726   */\n      dup8\n        /* \"#utility.yul\":5716:5733   */\n      add\n        /* \"#utility.yul\":5694:5747   */\n      tag_490\n      jump\t// in\n    tag_489:\n        /* \"#utility.yul\":5763:5779   */\n      swap2\n      swap1\n      swap2\n      add\n      swap3\n        /* \"#utility.yul\":5511:5785   */\n      swap2\n      pop\n      pop\n      jump\t// out\n        /* \"#utility.yul\":9425:9781   */\n    tag_183:\n        /* \"#utility.yul\":9627:9629   */\n      0x20\n        /* \"#utility.yul\":9609:9630   */\n      dup1\n      dup3\n      mstore\n        /* \"#utility.yul\":9646:9664   */\n      dup2\n      dup2\n      add\n        /* \"#utility.yul\":9639:9669   */\n      mstore\n        /* \"#utility.yul\":9705:9739   */\n      0x4f776e61626c653a2063616c6c6572206973206e6f7420746865206f776e6572\n        /* \"#utility.yul\":9700:9702   */\n      0x40\n        /* \"#utility.yul\":9685:9703   */\n      dup3\n      add\n        /* \"#utility.yul\":9678:9740   */\n      mstore\n        /* \"#utility.yul\":9772:9774   */\n      0x60\n        /* \"#utility.yul\":9757:9775   */\n      add\n      swap1\n        /* \"#utility.yul\":9425:9781   */\n      jump\t// out\n        /* \"#utility.yul\":10269:10611   */\n    tag_170:\n        /* \"#utility.yul\":10471:10473   */\n      0x20\n        /* \"#utility.yul\":10453:10474   */\n      dup1\n      dup3\n      mstore\n        /* \"#utility.yul\":10510:10512   */\n      0x12\n        /* \"#utility.yul\":10490:10508   */\n      swap1\n      dup3\n      add\n        /* \"#utility.yul\":10483:10513   */\n      mstore\n      shl(0x72, 0x119d5b98dd1a5bdb881a5cc81b1bd8dad959)\n        /* \"#utility.yul\":10544:10546   */\n      0x40\n        /* \"#utility.yul\":10529:10547   */\n      dup3\n      add\n        /* \"#utility.yul\":10522:10570   */\n      mstore\n        /* \"#utility.yul\":10602:10604   */\n      0x60\n        /* \"#utility.yul\":10587:10605   */\n      add\n      swap1\n        /* \"#utility.yul\":10269:10611   */\n      jump\t// out\n        /* \"#utility.yul\":10616:11033   */\n    tag_157:\n        /* \"#utility.yul\":10818:10820   */\n      0x20\n        /* \"#utility.yul\":10800:10821   */\n      dup1\n      dup3\n      mstore\n        /* \"#utility.yul\":10857:10859   */\n      0x35\n        /* \"#utility.yul\":10837:10855   */\n      swap1\n      dup3\n      add\n        /* \"#utility.yul\":10830:10860   */\n      mstore\n        /* \"#utility.yul\":10896:10930   */\n      0x6f70657261746f723a2063616c6c6572206973206e6f7420616c6c6f77656420\n        /* \"#utility.yul\":10891:10893   */\n      0x40\n        /* \"#utility.yul\":10876:10894   */\n      dup3\n      add\n        /* \"#utility.yul\":10869:10931   */\n      mstore\n      shl(0x59, 0x3a379031b0b636103a3434b990333ab731ba34b7b7)\n        /* \"#utility.yul\":10962:10964   */\n      0x60\n        /* \"#utility.yul\":10947:10965   */\n      dup3\n      add\n        /* \"#utility.yul\":10940:10991   */\n      mstore\n        /* \"#utility.yul\":11023:11026   */\n      0x80\n        /* \"#utility.yul\":11008:11027   */\n      add\n      swap1\n        /* \"#utility.yul\":10616:11033   */\n      jump\t// out\n        /* \"#utility.yul\":13034:14014   */\n    tag_410:\n        /* \"#utility.yul\":13296:13300   */\n      0x00\n        /* \"#utility.yul\":13344:13347   */\n      0xa0\n        /* \"#utility.yul\":13333:13342   */\n      dup3\n        /* \"#utility.yul\":13329:13348   */\n      add\n        /* \"#utility.yul\":13375:13381   */\n      dup8\n        /* \"#utility.yul\":13364:13373   */\n      dup4\n        /* \"#utility.yul\":13357:13382   */\n      mstore\n        /* \"#utility.yul\":13401:13403   */\n      0x20\n        /* \"#utility.yul\":13439:13445   */\n      dup8\n        /* \"#utility.yul\":13434:13436   */\n      dup2\n        /* \"#utility.yul\":13423:13432   */\n      dup6\n        /* \"#utility.yul\":13419:13437   */\n      add\n        /* \"#utility.yul\":13412:13446   */\n      mstore\n        /* \"#utility.yul\":13482:13485   */\n      0xa0\n        /* \"#utility.yul\":13477:13479   */\n      0x40\n        /* \"#utility.yul\":13466:13475   */\n      dup6\n        /* \"#utility.yul\":13462:13480   */\n      add\n        /* \"#utility.yul\":13455:13486   */\n      mstore\n        /* \"#utility.yul\":13506:13512   */\n      dup2\n        /* \"#utility.yul\":13541:13547   */\n      dup8\n        /* \"#utility.yul\":13535:13548   */\n      mload\n        /* \"#utility.yul\":13572:13578   */\n      dup1\n        /* \"#utility.yul\":13564:13570   */\n      dup5\n        /* \"#utility.yul\":13557:13579   */\n      mstore\n        /* \"#utility.yul\":13610:13613   */\n      0xc0\n        /* \"#utility.yul\":13599:13608   */\n      dup7\n        /* \"#utility.yul\":13595:13614   */\n      add\n        /* \"#utility.yul\":13588:13614   */\n      swap2\n      pop\n        /* \"#utility.yul\":13649:13651   */\n      dup3\n        /* \"#utility.yul\":13641:13647   */\n      dup10\n        /* \"#utility.yul\":13637:13652   */\n      add\n        /* \"#utility.yul\":13623:13652   */\n      swap4\n      pop\n        /* \"#utility.yul\":13670:13671   */\n      0x00\n        /* \"#utility.yul\":13680:13875   */\n    tag_513:\n        /* \"#utility.yul\":13694:13700   */\n      dup2\n        /* \"#utility.yul\":13691:13692   */\n      dup2\n        /* \"#utility.yul\":13688:13701   */\n      lt\n        /* \"#utility.yul\":13680:13875   */\n      iszero\n      tag_515\n      jumpi\n        /* \"#utility.yul\":13759:13772   */\n      dup5\n      mload\n      sub(shl(0xa0, 0x01), 0x01)\n        /* \"#utility.yul\":13755:13794   */\n      and\n        /* \"#utility.yul\":13743:13795   */\n      dup4\n      mstore\n        /* \"#utility.yul\":13850:13865   */\n      swap4\n      dup4\n      add\n      swap4\n        /* \"#utility.yul\":13815:13827   */\n      swap2\n      dup4\n      add\n      swap2\n        /* \"#utility.yul\":13791:13792   */\n      0x01\n        /* \"#utility.yul\":13709:13718   */\n      add\n        /* \"#utility.yul\":13680:13875   */\n      jump(tag_513)\n    tag_515:\n      pop\n      pop\n      sub(shl(0xa0, 0x01), 0x01)\n        /* \"#utility.yul\":13931:13963   */\n      swap7\n      swap1\n      swap7\n      and\n        /* \"#utility.yul\":13926:13928   */\n      0x60\n        /* \"#utility.yul\":13911:13929   */\n      dup6\n      add\n        /* \"#utility.yul\":13904:13964   */\n      mstore\n      pop\n      pop\n      pop\n        /* \"#utility.yul\":13995:13998   */\n      0x80\n        /* \"#utility.yul\":13980:13999   */\n      add\n        /* \"#utility.yul\":13973:14008   */\n      mstore\n        /* \"#utility.yul\":13892:13895   */\n      swap4\n        /* \"#utility.yul\":13034:14014   */\n      swap3\n      pop\n      pop\n      pop\n      jump\t// out\n        /* \"#utility.yul\":14019:14294   */\n    tag_430:\n        /* \"#utility.yul\":14090:14092   */\n      0x40\n        /* \"#utility.yul\":14084:14093   */\n      mload\n        /* \"#utility.yul\":14155:14157   */\n      0x1f\n        /* \"#utility.yul\":14136:14149   */\n      dup3\n      add\n      not(0x1f)\n        /* \"#utility.yul\":14132:14159   */\n      and\n        /* \"#utility.yul\":14120:14160   */\n      dup2\n      add\n        /* \"#utility.yul\":14190:14208   */\n      0xffffffffffffffff\n        /* \"#utility.yul\":14175:14209   */\n      dup2\n      gt\n        /* \"#utility.yul\":14211:14233   */\n      dup3\n      dup3\n      lt\n        /* \"#utility.yul\":14172:14234   */\n      or\n        /* \"#utility.yul\":14169:14257   */\n      iszero\n      tag_518\n      jumpi\n        /* \"#utility.yul\":14237:14255   */\n      tag_518\n      tag_381\n      jump\t// in\n    tag_518:\n        /* \"#utility.yul\":14273:14275   */\n      0x40\n        /* \"#utility.yul\":14266:14288   */\n      mstore\n        /* \"#utility.yul\":14019:14294   */\n      swap2\n      swap1\n      pop\n      jump\t// out\n        /* \"#utility.yul\":14299:14482   */\n    tag_429:\n        /* \"#utility.yul\":14359:14363   */\n      0x00\n        /* \"#utility.yul\":14392:14410   */\n      0xffffffffffffffff\n        /* \"#utility.yul\":14384:14390   */\n      dup3\n        /* \"#utility.yul\":14381:14411   */\n      gt\n        /* \"#utility.yul\":14378:14434   */\n      iszero\n      tag_521\n      jumpi\n        /* \"#utility.yul\":14414:14432   */\n      tag_521\n      tag_381\n      jump\t// in\n    tag_521:\n      pop\n        /* \"#utility.yul\":14459:14460   */\n      0x05\n        /* \"#utility.yul\":14455:14469   */\n      shl\n        /* \"#utility.yul\":14471:14475   */\n      0x20\n        /* \"#utility.yul\":14451:14476   */\n      add\n      swap1\n        /* \"#utility.yul\":14299:14482   */\n      jump\t// out\n        /* \"#utility.yul\":14487:14615   */\n    tag_167:\n        /* \"#utility.yul\":14527:14530   */\n      0x00\n        /* \"#utility.yul\":14558:14559   */\n      dup3\n        /* \"#utility.yul\":14554:14560   */\n      not\n        /* \"#utility.yul\":14551:14552   */\n      dup3\n        /* \"#utility.yul\":14548:14561   */\n      gt\n        /* \"#utility.yul\":14545:14584   */\n      iszero\n      tag_524\n      jumpi\n        /* \"#utility.yul\":14564:14582   */\n      tag_524\n      tag_525\n      jump\t// in\n    tag_524:\n      pop\n        /* \"#utility.yul\":14600:14609   */\n      add\n      swap1\n        /* \"#utility.yul\":14487:14615   */\n      jump\t// out\n        /* \"#utility.yul\":14620:14837   */\n    tag_422:\n        /* \"#utility.yul\":14660:14661   */\n      0x00\n        /* \"#utility.yul\":14686:14687   */\n      dup3\n        /* \"#utility.yul\":14676:14808   */\n      tag_527\n      jumpi\n        /* \"#utility.yul\":14730:14740   */\n      0x4e487b71\n        /* \"#utility.yul\":14725:14728   */\n      0xe0\n        /* \"#utility.yul\":14721:14741   */\n      shl\n        /* \"#utility.yul\":14718:14719   */\n      0x00\n        /* \"#utility.yul\":14711:14742   */\n      mstore\n        /* \"#utility.yul\":14765:14769   */\n      0x12\n        /* \"#utility.yul\":14762:14763   */\n      0x04\n        /* \"#utility.yul\":14755:14770   */\n      mstore\n        /* \"#utility.yul\":14793:14797   */\n      0x24\n        /* \"#utility.yul\":14790:14791   */\n      0x00\n        /* \"#utility.yul\":14783:14798   */\n      revert\n        /* \"#utility.yul\":14676:14808   */\n    tag_527:\n      pop\n        /* \"#utility.yul\":14822:14831   */\n      div\n      swap1\n        /* \"#utility.yul\":14620:14837   */\n      jump\t// out\n        /* \"#utility.yul\":14842:15010   */\n    tag_419:\n        /* \"#utility.yul\":14882:14889   */\n      0x00\n        /* \"#utility.yul\":14948:14949   */\n      dup2\n        /* \"#utility.yul\":14944:14945   */\n      0x00\n        /* \"#utility.yul\":14940:14946   */\n      not\n        /* \"#utility.yul\":14936:14950   */\n      div\n        /* \"#utility.yul\":14933:14934   */\n      dup4\n        /* \"#utility.yul\":14930:14951   */\n      gt\n        /* \"#utility.yul\":14925:14926   */\n      dup3\n        /* \"#utility.yul\":14918:14927   */\n      iszero\n        /* \"#utility.yul\":14911:14928   */\n      iszero\n        /* \"#utility.yul\":14907:14952   */\n      and\n        /* \"#utility.yul\":14904:14975   */\n      iszero\n      tag_530\n      jumpi\n        /* \"#utility.yul\":14955:14973   */\n      tag_530\n      tag_525\n      jump\t// in\n    tag_530:\n      pop\n        /* \"#utility.yul\":14995:15004   */\n      mul\n      swap1\n        /* \"#utility.yul\":14842:15010   */\n      jump\t// out\n        /* \"#utility.yul\":15015:15140   */\n    tag_416:\n        /* \"#utility.yul\":15055:15059   */\n      0x00\n        /* \"#utility.yul\":15083:15084   */\n      dup3\n        /* \"#utility.yul\":15080:15081   */\n      dup3\n        /* \"#utility.yul\":15077:15085   */\n      lt\n        /* \"#utility.yul\":15074:15108   */\n      iszero\n      tag_533\n      jumpi\n        /* \"#utility.yul\":15088:15106   */\n      tag_533\n      tag_525\n      jump\t// in\n    tag_533:\n      pop\n        /* \"#utility.yul\":15125:15134   */\n      sub\n      swap1\n        /* \"#utility.yul\":15015:15140   */\n      jump\t// out\n        /* \"#utility.yul\":15145:15403   */\n    tag_490:\n        /* \"#utility.yul\":15217:15218   */\n      0x00\n        /* \"#utility.yul\":15227:15340   */\n    tag_535:\n        /* \"#utility.yul\":15241:15247   */\n      dup4\n        /* \"#utility.yul\":15238:15239   */\n      dup2\n        /* \"#utility.yul\":15235:15248   */\n      lt\n        /* \"#utility.yul\":15227:15340   */\n      iszero\n      tag_537\n      jumpi\n        /* \"#utility.yul\":15317:15328   */\n      dup2\n      dup2\n      add\n        /* \"#utility.yul\":15311:15329   */\n      mload\n        /* \"#utility.yul\":15298:15309   */\n      dup4\n      dup3\n      add\n        /* \"#utility.yul\":15291:15330   */\n      mstore\n        /* \"#utility.yul\":15263:15265   */\n      0x20\n        /* \"#utility.yul\":15256:15266   */\n      add\n        /* \"#utility.yul\":15227:15340   */\n      jump(tag_535)\n    tag_537:\n        /* \"#utility.yul\":15358:15364   */\n      dup4\n        /* \"#utility.yul\":15355:15356   */\n      dup2\n        /* \"#utility.yul\":15352:15365   */\n      gt\n        /* \"#utility.yul\":15349:15397   */\n      iszero\n      tag_538\n      jumpi\n        /* \"#utility.yul\":15393:15394   */\n      0x00\n        /* \"#utility.yul\":15384:15390   */\n      dup5\n        /* \"#utility.yul\":15379:15382   */\n      dup5\n        /* \"#utility.yul\":15375:15391   */\n      add\n        /* \"#utility.yul\":15368:15395   */\n      mstore\n        /* \"#utility.yul\":15349:15397   */\n    tag_538:\n      pop\n        /* \"#utility.yul\":15145:15403   */\n      pop\n      pop\n      pop\n      jump\t// out\n        /* \"#utility.yul\":15408:15543   */\n    tag_215:\n        /* \"#utility.yul\":15447:15450   */\n      0x00\n      not(0x00)\n        /* \"#utility.yul\":15468:15485   */\n      dup3\n      eq\n        /* \"#utility.yul\":15465:15508   */\n      iszero\n      tag_541\n      jumpi\n        /* \"#utility.yul\":15488:15506   */\n      tag_541\n      tag_525\n      jump\t// in\n    tag_541:\n      pop\n        /* \"#utility.yul\":15535:15536   */\n      0x01\n        /* \"#utility.yul\":15524:15537   */\n      add\n      swap1\n        /* \"#utility.yul\":15408:15543   */\n      jump\t// out\n        /* \"#utility.yul\":15548:15675   */\n    tag_525:\n        /* \"#utility.yul\":15609:15619   */\n      0x4e487b71\n        /* \"#utility.yul\":15604:15607   */\n      0xe0\n        /* \"#utility.yul\":15600:15620   */\n      shl\n        /* \"#utility.yul\":15597:15598   */\n      0x00\n        /* \"#utility.yul\":15590:15621   */\n      mstore\n        /* \"#utility.yul\":15640:15644   */\n      0x11\n        /* \"#utility.yul\":15637:15638   */\n      0x04\n        /* \"#utility.yul\":15630:15645   */\n      mstore\n        /* \"#utility.yul\":15664:15668   */\n      0x24\n        /* \"#utility.yul\":15661:15662   */\n      0x00\n        /* \"#utility.yul\":15654:15669   */\n      revert\n        /* \"#utility.yul\":15680:15807   */\n    tag_193:\n        /* \"#utility.yul\":15741:15751   */\n      0x4e487b71\n        /* \"#utility.yul\":15736:15739   */\n      0xe0\n        /* \"#utility.yul\":15732:15752   */\n      shl\n        /* \"#utility.yul\":15729:15730   */\n      0x00\n        /* \"#utility.yul\":15722:15753   */\n      mstore\n        /* \"#utility.yul\":15772:15776   */\n      0x32\n        /* \"#utility.yul\":15769:15770   */\n      0x04\n        /* \"#utility.yul\":15762:15777   */\n      mstore\n        /* \"#utility.yul\":15796:15800   */\n      0x24\n        /* \"#utility.yul\":15793:15794   */\n      0x00\n        /* \"#utility.yul\":15786:15801   */\n      revert\n        /* \"#utility.yul\":15812:15939   */\n    tag_381:\n        /* \"#utility.yul\":15873:15883   */\n      0x4e487b71\n        /* \"#utility.yul\":15868:15871   */\n      0xe0\n        /* \"#utility.yul\":15864:15884   */\n      shl\n        /* \"#utility.yul\":15861:15862   */\n      0x00\n        /* \"#utility.yul\":15854:15885   */\n      mstore\n        /* \"#utility.yul\":15904:15908   */\n      0x41\n        /* \"#utility.yul\":15901:15902   */\n      0x04\n        /* \"#utility.yul\":15894:15909   */\n      mstore\n        /* \"#utility.yul\":15928:15932   */\n      0x24\n        /* \"#utility.yul\":15925:15926   */\n      0x00\n        /* \"#utility.yul\":15918:15933   */\n      revert\n        /* \"#utility.yul\":15944:16075   */\n    tag_436:\n      sub(shl(0xa0, 0x01), 0x01)\n        /* \"#utility.yul\":16019:16050   */\n      dup2\n      and\n        /* \"#utility.yul\":16009:16051   */\n      dup2\n      eq\n        /* \"#utility.yul\":15999:16069   */\n      tag_335\n      jumpi\n        /* \"#utility.yul\":16065:16066   */\n      0x00\n        /* \"#utility.yul\":16062:16063   */\n      dup1\n        /* \"#utility.yul\":16055:16067   */\n      revert\n\n    auxdata: 0xa26469706673582212209ae1c871387b8397c3fc68bd8276145edf945aa88e871af9daaeaf7b7383d5bb64736f6c63430008070033\n}\n",
				"bytecode": {
					"linkReferences": {},
					"object": "60806040526000805460ff60a01b19169055660775f05a074000600455600580546001600160a01b031990811673912e637522dc32a9653c5b7fd9028c7ae3ae3ff617909155600680548216732ea9ca0ca8043575f2189cff9897b575b0c7e8571790556008805490911673bdd4e5660839a088573191a9889a262c0efc09831790553480156200008f57600080fd5b50604051620024f3380380620024f3833981016040819052620000b291620004a5565b620000bd33620000fe565b600280546001600160a01b03199081163317909155600780546001600160a01b0384811691909316179055600554620000f791166200014e565b506200053c565b600080546001600160a01b038381166001600160a01b0319831681178455604051919092169283917f8be0079c531659141344cd1fd0a4f28419497f9722a3daafe3b4186f6b6457e09190a35050565b6000546001600160a01b031633146200019d5760405162461bcd60e51b81526020600482018190526024820152600080516020620024d383398151915260448201526064015b60405180910390fd5b60408051808201909152601281527118da185b99d953dc9858db1955d85b1b195d60721b6020820152600054600160a01b900460ff1615806200026a5750600181604051620001ed9190620004d7565b9081526020016040518091039020546000141580156200022d5750426001826040516200021b9190620004d7565b90815260200160405180910390205411155b80156200026a575042620151806001836040516200024c9190620004d7565b90815260200160405180910390205462000267919062000515565b10155b620002ad5760405162461bcd60e51b8152602060048201526012602482015271119d5b98dd1a5bdb881a5cc81b1bd8dad95960721b604482015260640162000194565b620002b88262000316565b600580546001600160a01b038481166001600160a01b0319831681179093556040519116919082907f3920ecd0f25e4e6ce57aaec91e57df499cb7e3e70d6c9604f866ae9265382cf390600090a3506200031281620003d6565b5050565b6000546001600160a01b03163314620003615760405162461bcd60e51b81526020600482018190526024820152600080516020620024d3833981519152604482015260640162000194565b6001600160a01b038116620003c85760405162461bcd60e51b815260206004820152602660248201527f4f776e61626c653a206e6577206f776e657220697320746865207a65726f206160448201526564647265737360d01b606482015260840162000194565b620003d381620000fe565b50565b33620003ea6000546001600160a01b031690565b6001600160a01b031614806200040a57506002546001600160a01b031633145b6200047e5760405162461bcd60e51b815260206004820152603560248201527f6f70657261746f723a2063616c6c6572206973206e6f7420616c6c6f7765642060448201527f746f2063616c6c20746869732066756e6374696f6e0000000000000000000000606482015260840162000194565b6000600182604051620004929190620004d7565b9081526040519081900360200190205550565b600060208284031215620004b857600080fd5b81516001600160a01b0381168114620004d057600080fd5b9392505050565b6000825160005b81811015620004fa5760208186018101518583015201620004de565b818111156200050a576000828501525b509190910192915050565b600082198211156200053757634e487b7160e01b600052601160045260246000fd5b500190565b611f87806200054c6000396000f3fe60806040526004361061016a5760003560e01c80639850d32b116100d1578063c0d786551161008a578063f2fde38b11610064578063f2fde38b14610428578063f4762fd614610448578063f8cf31cb1461045d578063f98080c01461047d57600080fd5b8063c0d78655146103c8578063d6e0ece2146103e8578063edae876f1461040857600080fd5b80639850d32b146103095780639f53115614610327578063a221a15f14610347578063a347511a14610367578063a607494a14610388578063b59c6e0e146103a857600080fd5b806363cd79b71161012357806363cd79b714610240578063715018a6146102605780637d6dfb7e146102755780637ef189f8146102b557806387df241f146102cb5780638da5cb5b146102eb57600080fd5b806311a63e171461017657806312065fe0146101b357806313ea5d29146101d6578063478a55eb146101f85780634a938f00146102185780634e71d92d1461023857600080fd5b3661017157005b600080fd5b34801561018257600080fd5b50600654610196906001600160a01b031681565b6040516001600160a01b0390911681526020015b60405180910390f35b3480156101bf57600080fd5b506101c86104b5565b6040519081526020016101aa565b3480156101e257600080fd5b506101f66101f1366004611a83565b610536565b005b34801561020457600080fd5b506101f6610213366004611abd565b610770565b34801561022457600080fd5b506101f6610233366004611b21565b610a0f565b6101f6610a4c565b34801561024c57600080fd5b506101f661025b366004611a83565b610bac565b34801561026c57600080fd5b506101f6610d15565b34801561028157600080fd5b506102a5610290366004611a83565b60036020526000908152604090205460ff1681565b60405190151581526020016101aa565b3480156102c157600080fd5b506101c860045481565b3480156102d757600080fd5b506101f66102e6366004611c45565b610d4b565b3480156102f757600080fd5b506000546001600160a01b0316610196565b34801561031557600080fd5b506002546001600160a01b0316610196565b34801561033357600080fd5b506101f6610342366004611bb0565b610e87565b34801561035357600080fd5b50600554610196906001600160a01b031681565b34801561037357600080fd5b506000546102a590600160a01b900460ff1681565b34801561039457600080fd5b506101f66103a3366004611bb0565b610efa565b3480156103b457600080fd5b50600754610196906001600160a01b031681565b3480156103d457600080fd5b506101f66103e3366004611a83565b610fd7565b3480156103f457600080fd5b506101f6610403366004611c77565b611023565b34801561041457600080fd5b50600854610196906001600160a01b031681565b34801561043457600080fd5b506101f6610443366004611a83565b61122e565b34801561045457600080fd5b506101f66112c9565b34801561046957600080fd5b506101f6610478366004611a83565b611353565b34801561048957600080fd5b506101c8610498366004611bb0565b805160208183018101805160018252928201919093012091525481565b6007546040516370a0823160e01b81523060048201526000916001600160a01b0316906370a082319060240160206040518083038186803b1580156104f957600080fd5b505afa15801561050d573d6000803e3d6000fd5b505050506040513d601f19601f820116820180604052508101906105319190611c5e565b905090565b336105496000546001600160a01b031690565b6001600160a01b0316148061056857506002546001600160a01b031633145b61058d5760405162461bcd60e51b815260040161058490611d24565b60405180910390fd5b60408051808201909152600a81526936b0b4b73a30b4b732b960b11b6020820152600054600160a01b900460ff16158061064757506001816040516105d29190611ca7565b90815260200160405180910390205460001415801561060f5750426001826040516105fd9190611ca7565b90815260200160405180910390205411155b80156106475750426201518060018360405161062b9190611ca7565b9081526020016040518091039020546106449190611e3f565b10155b6106635760405162461bcd60e51b815260040161058490611cf8565b6002546001600160a01b0383811691161480159061068957506001600160a01b03821615155b6107145760405162461bcd60e51b815260206004820152605060248201527f41424f41543a3a7365744d61696e7461696e65723a204d61696e7461696e657260448201527f2063616e277420657175616c2070726576696f7573206d61696e7461696e657260648201526f206f72207a65726f206164647265737360801b608482015260a401610584565b600280546001600160a01b038481166001600160a01b0319831681179093556040519116919082907f2f3ffaaaad93928855c8700645d1a3643e6ccfdd500efa9fda048a88f557cf0190600090a35061076c81610e87565b5050565b6000546001600160a01b0316331461079a5760405162461bcd60e51b815260040161058490611cc3565b80518251146108265760405162461bcd60e51b815260206004820152604c60248201527f41424f41543a3a6164645265776172643a20616d6f756e747320616e6420616460448201527f64726573736573206d7573742068617665207468652073616d6520616d6f756e60648201526b74206f6620656e747269657360a01b608482015260a401610584565b60005b8151811015610a0a576003600083838151811061084857610848611f10565b6020908102919091018101516001600160a01b031682528101919091526040016000205460ff16801561089b575082818151811061088857610888611f10565b60200260200101516108986104b5565b10155b80156108e05750600360008383815181106108b8576108b8611f10565b6020908102919091018101516001600160a01b031682528101919091526040016000205460ff165b156109f8576000600360008484815181106108fd576108fd611f10565b60200260200101516001600160a01b03166001600160a01b0316815260200190815260200160002060006101000a81548160ff02191690831515021790555061098e600760009054906101000a90046001600160a01b031683838151811061096757610967611f10565b602002602001015185848151811061098157610981611f10565b602002602001015161153c565b8281815181106109a0576109a0611f10565b60200260200101518282815181106109ba576109ba611f10565b60200260200101516001600160a01b03167fd9d5e983e9e8a6571ffbeafa6a3c2fbd9f0f44e52607977b5e1e7934f7d91bfc60405160405180910390a35b80610a0281611edf565b915050610829565b505050565b6000546001600160a01b03163314610a395760405162461bcd60e51b815260040161058490611cc3565b610a4281610d4b565b610a0a8383610770565b3360009081526003602052604090205460ff1615610ac45760405162461bcd60e51b815260206004820152602f60248201527f41424f41543a3a636c61696d3a20416c726561647920616c6c6f77656420746f60448201526e207265636965766520746f6b656e7360881b6064820152608401610584565b600454341015610b545760405162461bcd60e51b815260206004820152604f60248201527f41424f41543a3a636c61696d3a20416d6f756e74206f6620626e6220746f206360448201527f6c61696d2073686f756c642063617272792074686520636f737420746f20616460648201526e642074686520636c61696d61626c6560881b608482015260a401610584565b600554610b6a906001600160a01b03163461166d565b33600081815260036020526040808220805460ff19166001179055517f98716c616972f4ef0085deb59c20f6f6a840219c121ad1f3b5413097f3a103579190a2565b6000546001600160a01b03163314610bd65760405162461bcd60e51b815260040161058490611cc3565b60408051808201909152601281527118da185b99d953dc9858db1955d85b1b195d60721b6020820152600054600160a01b900460ff161580610c985750600181604051610c239190611ca7565b908152602001604051809103902054600014158015610c60575042600182604051610c4e9190611ca7565b90815260200160405180910390205411155b8015610c9857504262015180600183604051610c7c9190611ca7565b908152602001604051809103902054610c959190611e3f565b10155b610cb45760405162461bcd60e51b815260040161058490611cf8565b610cbd8261122e565b600580546001600160a01b038481166001600160a01b0319831681179093556040519116919082907f3920ecd0f25e4e6ce57aaec91e57df499cb7e3e70d6c9604f866ae9265382cf390600090a35061076c81610e87565b6000546001600160a01b03163314610d3f5760405162461bcd60e51b815260040161058490611cc3565b610d496000611747565b565b6000546001600160a01b03163314610d755760405162461bcd60e51b815260040161058490611cc3565b60408051808201909152600d81526c18591a9d5cdd11d85cd0dbdcdd609a1b6020820152600054600160a01b900460ff161580610e325750600181604051610dbd9190611ca7565b908152602001604051809103902054600014158015610dfa575042600182604051610de89190611ca7565b90815260200160405180910390205411155b8015610e3257504262015180600183604051610e169190611ca7565b908152602001604051809103902054610e2f9190611e3f565b10155b610e4e5760405162461bcd60e51b815260040161058490611cf8565b6004546040518391907fc3dc19678fd7390a5c1197decfaec52d8a1c63c49f0a51db570f5fe5040c5f7390600090a3600482905561076c815b33610e9a6000546001600160a01b031690565b6001600160a01b03161480610eb957506002546001600160a01b031633145b610ed55760405162461bcd60e51b815260040161058490611d24565b6000600182604051610ee79190611ca7565b9081526040519081900360200190205550565b33610f0d6000546001600160a01b031690565b6001600160a01b03161480610f2c57506002546001600160a01b031633145b610f485760405162461bcd60e51b815260040161058490611d24565b610f556201518042611e3f565b600182604051610f659190611ca7565b908152602001604051809103902081905550600181604051610f879190611ca7565b90815260200160405180910390205481604051610fa49190611ca7565b604051908190038120907ff77f9a799fe8b0be1463abd7459a18fc55dfd8a6a24ddd29b54fd098088089c890600090a350565b6000546001600160a01b031633146110015760405162461bcd60e51b815260040161058490611cc3565b600880546001600160a01b0319166001600160a01b0392909216919091179055565b6000546001600160a01b0316331461104d5760405162461bcd60e51b815260040161058490611cc3565b6008546001600160a01b03166110de5760405162461bcd60e51b815260206004820152604a60248201527f41424f41543a3a73656e645265776172647341734574683a205468657265206960448201527f73206e6f20726f7574657220646566696e656420746f207377617020746f6b656064820152690dce640ccdee440cae8d60b31b608482015260a401610584565b6110e66104b5565b82111561116b5760405162461bcd60e51b815260206004820152604760248201527f41424f41543a3a73656e645265776172647341734574683a2043616e2774207360448201527f656e64206d6f72652072657761726473207468616e20696e207265776172642060648201526673797374656d2160c81b608482015260a401610584565b61117482611797565b600061118b6004544761197d90919063ffffffff16565b6005546004549192506111a9916001600160a01b039091169061166d565b60006111c160646111bb84600a611990565b9061199c565b90506111cd828261197d565b6006549092506111e6906001600160a01b03168261166d565b6111f0838361166d565b8082846001600160a01b03167f75b2eac24930bf6a8227dbe172d34480e56be5c6994435067628424190d5343160405160405180910390a450505050565b6000546001600160a01b031633146112585760405162461bcd60e51b815260040161058490611cc3565b6001600160a01b0381166112bd5760405162461bcd60e51b815260206004820152602660248201527f4f776e61626c653a206e6577206f776e657220697320746865207a65726f206160448201526564647265737360d01b6064820152608401610584565b6112c681611747565b50565b336112dc6000546001600160a01b031690565b6001600160a01b031614806112fb57506002546001600160a01b031633145b6113175760405162461bcd60e51b815260040161058490611d24565b6000805460ff60a01b1916600160a01b1781556040517f2c08b62bfac9a1b19bb1dec9323f1ce01696a77948b256abf3603d30f25a864e9190a1565b6000546001600160a01b0316331461137d5760405162461bcd60e51b815260040161058490611cc3565b6040805180820190915260118152703ab83230ba32a932bbb0b9322a37b5b2b760791b6020820152600054600160a01b900460ff16158061143e57506001816040516113c99190611ca7565b9081526020016040518091039020546000141580156114065750426001826040516113f49190611ca7565b90815260200160405180910390205411155b801561143e575042620151806001836040516114229190611ca7565b90815260200160405180910390205461143b9190611e3f565b10155b61145a5760405162461bcd60e51b815260040161058490611cf8565b6007546001600160a01b03838116911614156114de5760405162461bcd60e51b815260206004820152603f60248201527f41424f41543a757064617465526577617264546f6b656e3a20596f752063616e60448201527f277420757064617465207468652065786163742073616d6520746f6b656e73006064820152608401610584565b6007546040516001600160a01b038085169216907fcb89265f21b9fc8710e9d9e42bbb37af1eb207454deca6d5e36787be2367c1d690600090a3600780546001600160a01b0319166001600160a01b03841617905561076c81610e87565b604080516001600160a01b038481166024830152604480830185905283518084039091018152606490920183526020820180516001600160e01b031663a9059cbb60e01b17905291516000928392908716916115989190611ca7565b6000604051808303816000865af19150503d80600081146115d5576040519150601f19603f3d011682016040523d82523d6000602084013e6115da565b606091505b50915091508180156116045750805115806116045750808060200190518101906116049190611b8e565b6116665760405162461bcd60e51b815260206004820152602d60248201527f5472616e7366657248656c7065723a3a736166655472616e736665723a20747260448201526c185b9cd9995c8819985a5b1959609a1b6064820152608401610584565b5050505050565b604080516000808252602082019092526001600160a01b0384169083906040516116979190611ca7565b60006040518083038185875af1925050503d80600081146116d4576040519150601f19603f3d011682016040523d82523d6000602084013e6116d9565b606091505b5050905080610a0a5760405162461bcd60e51b815260206004820152603460248201527f5472616e7366657248656c7065723a3a736166655472616e736665724554483a60448201527308115512081d1c985b9cd9995c8819985a5b195960621b6064820152608401610584565b600080546001600160a01b038381166001600160a01b0319831681178455604051919092169283917f8be0079c531659141344cd1fd0a4f28419497f9722a3daafe3b4186f6b6457e09190a35050565b604080516002808252606082018352600092602083019080368337505060075482519293506001600160a01b0316918391506000906117d8576117d8611f10565b6001600160a01b03928316602091820292909201810191909152600854604080516315ab88c960e31b81529051919093169263ad5c4648926004808301939192829003018186803b15801561182c57600080fd5b505afa158015611840573d6000803e3d6000fd5b505050506040513d601f19601f820116820180604052508101906118649190611aa0565b8160018151811061187757611877611f10565b6001600160a01b03928316602091820292909201015260075460085460405163095ea7b360e01b815290831660048201526024810185905291169063095ea7b390604401602060405180830381600087803b1580156118d557600080fd5b505af11580156118e9573d6000803e3d6000fd5b505050506040513d601f19601f8201168201806040525081019061190d9190611b8e565b5060085460405163791ac94760e01b81526001600160a01b039091169063791ac94790611947908590600090869030904290600401611d79565b600060405180830381600087803b15801561196157600080fd5b505af1158015611975573d6000803e3d6000fd5b505050505050565b60006119898284611e98565b9392505050565b60006119898284611e79565b60006119898284611e57565b600082601f8301126119b957600080fd5b813560206119ce6119c983611e1b565b611dea565b80838252828201915082860187848660051b89010111156119ee57600080fd5b60005b85811015611a16578135611a0481611f3c565b845292840192908401906001016119f1565b5090979650505050505050565b600082601f830112611a3457600080fd5b81356020611a446119c983611e1b565b80838252828201915082860187848660051b8901011115611a6457600080fd5b60005b85811015611a1657813584529284019290840190600101611a67565b600060208284031215611a9557600080fd5b813561198981611f3c565b600060208284031215611ab257600080fd5b815161198981611f3c565b60008060408385031215611ad057600080fd5b823567ffffffffffffffff80821115611ae857600080fd5b611af486838701611a23565b93506020850135915080821115611b0a57600080fd5b50611b17858286016119a8565b9150509250929050565b600080600060608486031215611b3657600080fd5b833567ffffffffffffffff80821115611b4e57600080fd5b611b5a87838801611a23565b94506020860135915080821115611b7057600080fd5b50611b7d868287016119a8565b925050604084013590509250925092565b600060208284031215611ba057600080fd5b8151801515811461198957600080fd5b60006020808385031215611bc357600080fd5b823567ffffffffffffffff80821115611bdb57600080fd5b818501915085601f830112611bef57600080fd5b813581811115611c0157611c01611f26565b611c13601f8201601f19168501611dea565b91508082528684828501011115611c2957600080fd5b8084840185840137600090820190930192909252509392505050565b600060208284031215611c5757600080fd5b5035919050565b600060208284031215611c7057600080fd5b5051919050565b60008060408385031215611c8a57600080fd5b823591506020830135611c9c81611f3c565b809150509250929050565b60008251611cb9818460208701611eaf565b9190910192915050565b6020808252818101527f4f776e61626c653a2063616c6c6572206973206e6f7420746865206f776e6572604082015260600190565b602080825260129082015271119d5b98dd1a5bdb881a5cc81b1bd8dad95960721b604082015260600190565b60208082526035908201527f6f70657261746f723a2063616c6c6572206973206e6f7420616c6c6f776564206040820152743a379031b0b636103a3434b990333ab731ba34b7b760591b606082015260800190565b600060a082018783526020878185015260a0604085015281875180845260c086019150828901935060005b81811015611dc95784516001600160a01b031683529383019391830191600101611da4565b50506001600160a01b03969096166060850152505050608001529392505050565b604051601f8201601f1916810167ffffffffffffffff81118282101715611e1357611e13611f26565b604052919050565b600067ffffffffffffffff821115611e3557611e35611f26565b5060051b60200190565b60008219821115611e5257611e52611efa565b500190565b600082611e7457634e487b7160e01b600052601260045260246000fd5b500490565b6000816000190483118215151615611e9357611e93611efa565b500290565b600082821015611eaa57611eaa611efa565b500390565b60005b83811015611eca578181015183820152602001611eb2565b83811115611ed9576000848401525b50505050565b6000600019821415611ef357611ef3611efa565b5060010190565b634e487b7160e01b600052601160045260246000fd5b634e487b7160e01b600052603260045260246000fd5b634e487b7160e01b600052604160045260246000fd5b6001600160a01b03811681146112c657600080fdfea26469706673582212209ae1c871387b8397c3fc68bd8276145edf945aa88e871af9daaeaf7b7383d5bb64736f6c634300080700334f776e61626c653a2063616c6c6572206973206e6f7420746865206f776e6572",
					"opcodes": "PUSH1 0x80 PUSH1 0x40 MSTORE PUSH1 0x0 DUP1 SLOAD PUSH1 0xFF PUSH1 0xA0 SHL NOT AND SWAP1 SSTORE PUSH7 0x775F05A074000 PUSH1 0x4 SSTORE PUSH1 0x5 DUP1 SLOAD PUSH1 0x1 PUSH1 0x1 PUSH1 0xA0 SHL SUB NOT SWAP1 DUP2 AND PUSH20 0x912E637522DC32A9653C5B7FD9028C7AE3AE3FF6 OR SWAP1 SWAP2 SSTORE PUSH1 0x6 DUP1 SLOAD DUP3 AND PUSH20 0x2EA9CA0CA8043575F2189CFF9897B575B0C7E857 OR SWAP1 SSTORE PUSH1 0x8 DUP1 SLOAD SWAP1 SWAP2 AND PUSH20 0xBDD4E5660839A088573191A9889A262C0EFC0983 OR SWAP1 SSTORE CALLVALUE DUP1 ISZERO PUSH3 0x8F JUMPI PUSH1 0x0 DUP1 REVERT JUMPDEST POP PUSH1 0x40 MLOAD PUSH3 0x24F3 CODESIZE SUB DUP1 PUSH3 0x24F3 DUP4 CODECOPY DUP2 ADD PUSH1 0x40 DUP2 SWAP1 MSTORE PUSH3 0xB2 SWAP2 PUSH3 0x4A5 JUMP JUMPDEST PUSH3 0xBD CALLER PUSH3 0xFE JUMP JUMPDEST PUSH1 0x2 DUP1 SLOAD PUSH1 0x1 PUSH1 0x1 PUSH1 0xA0 SHL SUB NOT SWAP1 DUP2 AND CALLER OR SWAP1 SWAP2 SSTORE PUSH1 0x7 DUP1 SLOAD PUSH1 0x1 PUSH1 0x1 PUSH1 0xA0 SHL SUB DUP5 DUP2 AND SWAP2 SWAP1 SWAP4 AND OR SWAP1 SSTORE PUSH1 0x5 SLOAD PUSH3 0xF7 SWAP2 AND PUSH3 0x14E JUMP JUMPDEST POP PUSH3 0x53C JUMP JUMPDEST PUSH1 0x0 DUP1 SLOAD PUSH1 0x1 PUSH1 0x1 PUSH1 0xA0 SHL SUB DUP4 DUP2 AND PUSH1 0x1 PUSH1 0x1 PUSH1 0xA0 SHL SUB NOT DUP4 AND DUP2 OR DUP5 SSTORE PUSH1 0x40 MLOAD SWAP2 SWAP1 SWAP3 AND SWAP3 DUP4 SWAP2 PUSH32 0x8BE0079C531659141344CD1FD0A4F28419497F9722A3DAAFE3B4186F6B6457E0 SWAP2 SWAP1 LOG3 POP POP JUMP JUMPDEST PUSH1 0x0 SLOAD PUSH1 0x1 PUSH1 0x1 PUSH1 0xA0 SHL SUB AND CALLER EQ PUSH3 0x19D JUMPI PUSH1 0x40 MLOAD PUSH3 0x461BCD PUSH1 0xE5 SHL DUP2 MSTORE PUSH1 0x20 PUSH1 0x4 DUP3 ADD DUP2 SWAP1 MSTORE PUSH1 0x24 DUP3 ADD MSTORE PUSH1 0x0 DUP1 MLOAD PUSH1 0x20 PUSH3 0x24D3 DUP4 CODECOPY DUP2 MLOAD SWAP2 MSTORE PUSH1 0x44 DUP3 ADD MSTORE PUSH1 0x64 ADD JUMPDEST PUSH1 0x40 MLOAD DUP1 SWAP2 SUB SWAP1 REVERT JUMPDEST PUSH1 0x40 DUP1 MLOAD DUP1 DUP3 ADD SWAP1 SWAP2 MSTORE PUSH1 0x12 DUP2 MSTORE PUSH18 0x18DA185B99D953DC9858DB1955D85B1B195D PUSH1 0x72 SHL PUSH1 0x20 DUP3 ADD MSTORE PUSH1 0x0 SLOAD PUSH1 0x1 PUSH1 0xA0 SHL SWAP1 DIV PUSH1 0xFF AND ISZERO DUP1 PUSH3 0x26A JUMPI POP PUSH1 0x1 DUP2 PUSH1 0x40 MLOAD PUSH3 0x1ED SWAP2 SWAP1 PUSH3 0x4D7 JUMP JUMPDEST SWAP1 DUP2 MSTORE PUSH1 0x20 ADD PUSH1 0x40 MLOAD DUP1 SWAP2 SUB SWAP1 KECCAK256 SLOAD PUSH1 0x0 EQ ISZERO DUP1 ISZERO PUSH3 0x22D JUMPI POP TIMESTAMP PUSH1 0x1 DUP3 PUSH1 0x40 MLOAD PUSH3 0x21B SWAP2 SWAP1 PUSH3 0x4D7 JUMP JUMPDEST SWAP1 DUP2 MSTORE PUSH1 0x20 ADD PUSH1 0x40 MLOAD DUP1 SWAP2 SUB SWAP1 KECCAK256 SLOAD GT ISZERO JUMPDEST DUP1 ISZERO PUSH3 0x26A JUMPI POP TIMESTAMP PUSH3 0x15180 PUSH1 0x1 DUP4 PUSH1 0x40 MLOAD PUSH3 0x24C SWAP2 SWAP1 PUSH3 0x4D7 JUMP JUMPDEST SWAP1 DUP2 MSTORE PUSH1 0x20 ADD PUSH1 0x40 MLOAD DUP1 SWAP2 SUB SWAP1 KECCAK256 SLOAD PUSH3 0x267 SWAP2 SWAP1 PUSH3 0x515 JUMP JUMPDEST LT ISZERO JUMPDEST PUSH3 0x2AD JUMPI PUSH1 0x40 MLOAD PUSH3 0x461BCD PUSH1 0xE5 SHL DUP2 MSTORE PUSH1 0x20 PUSH1 0x4 DUP3 ADD MSTORE PUSH1 0x12 PUSH1 0x24 DUP3 ADD MSTORE PUSH18 0x119D5B98DD1A5BDB881A5CC81B1BD8DAD959 PUSH1 0x72 SHL PUSH1 0x44 DUP3 ADD MSTORE PUSH1 0x64 ADD PUSH3 0x194 JUMP JUMPDEST PUSH3 0x2B8 DUP3 PUSH3 0x316 JUMP JUMPDEST PUSH1 0x5 DUP1 SLOAD PUSH1 0x1 PUSH1 0x1 PUSH1 0xA0 SHL SUB DUP5 DUP2 AND PUSH1 0x1 PUSH1 0x1 PUSH1 0xA0 SHL SUB NOT DUP4 AND DUP2 OR SWAP1 SWAP4 SSTORE PUSH1 0x40 MLOAD SWAP2 AND SWAP2 SWAP1 DUP3 SWAP1 PUSH32 0x3920ECD0F25E4E6CE57AAEC91E57DF499CB7E3E70D6C9604F866AE9265382CF3 SWAP1 PUSH1 0x0 SWAP1 LOG3 POP PUSH3 0x312 DUP2 PUSH3 0x3D6 JUMP JUMPDEST POP POP JUMP JUMPDEST PUSH1 0x0 SLOAD PUSH1 0x1 PUSH1 0x1 PUSH1 0xA0 SHL SUB AND CALLER EQ PUSH3 0x361 JUMPI PUSH1 0x40 MLOAD PUSH3 0x461BCD PUSH1 0xE5 SHL DUP2 MSTORE PUSH1 0x20 PUSH1 0x4 DUP3 ADD DUP2 SWAP1 MSTORE PUSH1 0x24 DUP3 ADD MSTORE PUSH1 0x0 DUP1 MLOAD PUSH1 0x20 PUSH3 0x24D3 DUP4 CODECOPY DUP2 MLOAD SWAP2 MSTORE PUSH1 0x44 DUP3 ADD MSTORE PUSH1 0x64 ADD PUSH3 0x194 JUMP JUMPDEST PUSH1 0x1 PUSH1 0x1 PUSH1 0xA0 SHL SUB DUP2 AND PUSH3 0x3C8 JUMPI PUSH1 0x40 MLOAD PUSH3 0x461BCD PUSH1 0xE5 SHL DUP2 MSTORE PUSH1 0x20 PUSH1 0x4 DUP3 ADD MSTORE PUSH1 0x26 PUSH1 0x24 DUP3 ADD MSTORE PUSH32 0x4F776E61626C653A206E6577206F776E657220697320746865207A65726F2061 PUSH1 0x44 DUP3 ADD MSTORE PUSH6 0x646472657373 PUSH1 0xD0 SHL PUSH1 0x64 DUP3 ADD MSTORE PUSH1 0x84 ADD PUSH3 0x194 JUMP JUMPDEST PUSH3 0x3D3 DUP2 PUSH3 0xFE JUMP JUMPDEST POP JUMP JUMPDEST CALLER PUSH3 0x3EA PUSH1 0x0 SLOAD PUSH1 0x1 PUSH1 0x1 PUSH1 0xA0 SHL SUB AND SWAP1 JUMP JUMPDEST PUSH1 0x1 PUSH1 0x1 PUSH1 0xA0 SHL SUB AND EQ DUP1 PUSH3 0x40A JUMPI POP PUSH1 0x2 SLOAD PUSH1 0x1 PUSH1 0x1 PUSH1 0xA0 SHL SUB AND CALLER EQ JUMPDEST PUSH3 0x47E JUMPI PUSH1 0x40 MLOAD PUSH3 0x461BCD PUSH1 0xE5 SHL DUP2 MSTORE PUSH1 0x20 PUSH1 0x4 DUP3 ADD MSTORE PUSH1 0x35 PUSH1 0x24 DUP3 ADD MSTORE PUSH32 0x6F70657261746F723A2063616C6C6572206973206E6F7420616C6C6F77656420 PUSH1 0x44 DUP3 ADD MSTORE PUSH32 0x746F2063616C6C20746869732066756E6374696F6E0000000000000000000000 PUSH1 0x64 DUP3 ADD MSTORE PUSH1 0x84 ADD PUSH3 0x194 JUMP JUMPDEST PUSH1 0x0 PUSH1 0x1 DUP3 PUSH1 0x40 MLOAD PUSH3 0x492 SWAP2 SWAP1 PUSH3 0x4D7 JUMP JUMPDEST SWAP1 DUP2 MSTORE PUSH1 0x40 MLOAD SWAP1 DUP2 SWAP1 SUB PUSH1 0x20 ADD SWAP1 KECCAK256 SSTORE POP JUMP JUMPDEST PUSH1 0x0 PUSH1 0x20 DUP3 DUP5 SUB SLT ISZERO PUSH3 0x4B8 JUMPI PUSH1 0x0 DUP1 REVERT JUMPDEST DUP2 MLOAD PUSH1 0x1 PUSH1 0x1 PUSH1 0xA0 SHL SUB DUP2 AND DUP2 EQ PUSH3 0x4D0 JUMPI PUSH1 0x0 DUP1 REVERT JUMPDEST SWAP4 SWAP3 POP POP POP JUMP JUMPDEST PUSH1 0x0 DUP3 MLOAD PUSH1 0x0 JUMPDEST DUP2 DUP2 LT ISZERO PUSH3 0x4FA JUMPI PUSH1 0x20 DUP2 DUP7 ADD DUP2 ADD MLOAD DUP6 DUP4 ADD MSTORE ADD PUSH3 0x4DE JUMP JUMPDEST DUP2 DUP2 GT ISZERO PUSH3 0x50A JUMPI PUSH1 0x0 DUP3 DUP6 ADD MSTORE JUMPDEST POP SWAP2 SWAP1 SWAP2 ADD SWAP3 SWAP2 POP POP JUMP JUMPDEST PUSH1 0x0 DUP3 NOT DUP3 GT ISZERO PUSH3 0x537 JUMPI PUSH4 0x4E487B71 PUSH1 0xE0 SHL PUSH1 0x0 MSTORE PUSH1 0x11 PUSH1 0x4 MSTORE PUSH1 0x24 PUSH1 0x0 REVERT JUMPDEST POP ADD SWAP1 JUMP JUMPDEST PUSH2 0x1F87 DUP1 PUSH3 0x54C PUSH1 0x0 CODECOPY PUSH1 0x0 RETURN INVALID PUSH1 0x80 PUSH1 0x40 MSTORE PUSH1 0x4 CALLDATASIZE LT PUSH2 0x16A JUMPI PUSH1 0x0 CALLDATALOAD PUSH1 0xE0 SHR DUP1 PUSH4 0x9850D32B GT PUSH2 0xD1 JUMPI DUP1 PUSH4 0xC0D78655 GT PUSH2 0x8A JUMPI DUP1 PUSH4 0xF2FDE38B GT PUSH2 0x64 JUMPI DUP1 PUSH4 0xF2FDE38B EQ PUSH2 0x428 JUMPI DUP1 PUSH4 0xF4762FD6 EQ PUSH2 0x448 JUMPI DUP1 PUSH4 0xF8CF31CB EQ PUSH2 0x45D JUMPI DUP1 PUSH4 0xF98080C0 EQ PUSH2 0x47D JUMPI PUSH1 0x0 DUP1 REVERT JUMPDEST DUP1 PUSH4 0xC0D78655 EQ PUSH2 0x3C8 JUMPI DUP1 PUSH4 0xD6E0ECE2 EQ PUSH2 0x3E8 JUMPI DUP1 PUSH4 0xEDAE876F EQ PUSH2 0x408 JUMPI PUSH1 0x0 DUP1 REVERT JUMPDEST DUP1 PUSH4 0x9850D32B EQ PUSH2 0x309 JUMPI DUP1 PUSH4 0x9F531156 EQ PUSH2 0x327 JUMPI DUP1 PUSH4 0xA221A15F EQ PUSH2 0x347 JUMPI DUP1 PUSH4 0xA347511A EQ PUSH2 0x367 JUMPI DUP1 PUSH4 0xA607494A EQ PUSH2 0x388 JUMPI DUP1 PUSH4 0xB59C6E0E EQ PUSH2 0x3A8 JUMPI PUSH1 0x0 DUP1 REVERT JUMPDEST DUP1 PUSH4 0x63CD79B7 GT PUSH2 0x123 JUMPI DUP1 PUSH4 0x63CD79B7 EQ PUSH2 0x240 JUMPI DUP1 PUSH4 0x715018A6 EQ PUSH2 0x260 JUMPI DUP1 PUSH4 0x7D6DFB7E EQ PUSH2 0x275 JUMPI DUP1 PUSH4 0x7EF189F8 EQ PUSH2 0x2B5 JUMPI DUP1 PUSH4 0x87DF241F EQ PUSH2 0x2CB JUMPI DUP1 PUSH4 0x8DA5CB5B EQ PUSH2 0x2EB JUMPI PUSH1 0x0 DUP1 REVERT JUMPDEST DUP1 PUSH4 0x11A63E17 EQ PUSH2 0x176 JUMPI DUP1 PUSH4 0x12065FE0 EQ PUSH2 0x1B3 JUMPI DUP1 PUSH4 0x13EA5D29 EQ PUSH2 0x1D6 JUMPI DUP1 PUSH4 0x478A55EB EQ PUSH2 0x1F8 JUMPI DUP1 PUSH4 0x4A938F00 EQ PUSH2 0x218 JUMPI DUP1 PUSH4 0x4E71D92D EQ PUSH2 0x238 JUMPI PUSH1 0x0 DUP1 REVERT JUMPDEST CALLDATASIZE PUSH2 0x171 JUMPI STOP JUMPDEST PUSH1 0x0 DUP1 REVERT JUMPDEST CALLVALUE DUP1 ISZERO PUSH2 0x182 JUMPI PUSH1 0x0 DUP1 REVERT JUMPDEST POP PUSH1 0x6 SLOAD PUSH2 0x196 SWAP1 PUSH1 0x1 PUSH1 0x1 PUSH1 0xA0 SHL SUB AND DUP2 JUMP JUMPDEST PUSH1 0x40 MLOAD PUSH1 0x1 PUSH1 0x1 PUSH1 0xA0 SHL SUB SWAP1 SWAP2 AND DUP2 MSTORE PUSH1 0x20 ADD JUMPDEST PUSH1 0x40 MLOAD DUP1 SWAP2 SUB SWAP1 RETURN JUMPDEST CALLVALUE DUP1 ISZERO PUSH2 0x1BF JUMPI PUSH1 0x0 DUP1 REVERT JUMPDEST POP PUSH2 0x1C8 PUSH2 0x4B5 JUMP JUMPDEST PUSH1 0x40 MLOAD SWAP1 DUP2 MSTORE PUSH1 0x20 ADD PUSH2 0x1AA JUMP JUMPDEST CALLVALUE DUP1 ISZERO PUSH2 0x1E2 JUMPI PUSH1 0x0 DUP1 REVERT JUMPDEST POP PUSH2 0x1F6 PUSH2 0x1F1 CALLDATASIZE PUSH1 0x4 PUSH2 0x1A83 JUMP JUMPDEST PUSH2 0x536 JUMP JUMPDEST STOP JUMPDEST CALLVALUE DUP1 ISZERO PUSH2 0x204 JUMPI PUSH1 0x0 DUP1 REVERT JUMPDEST POP PUSH2 0x1F6 PUSH2 0x213 CALLDATASIZE PUSH1 0x4 PUSH2 0x1ABD JUMP JUMPDEST PUSH2 0x770 JUMP JUMPDEST CALLVALUE DUP1 ISZERO PUSH2 0x224 JUMPI PUSH1 0x0 DUP1 REVERT JUMPDEST POP PUSH2 0x1F6 PUSH2 0x233 CALLDATASIZE PUSH1 0x4 PUSH2 0x1B21 JUMP JUMPDEST PUSH2 0xA0F JUMP JUMPDEST PUSH2 0x1F6 PUSH2 0xA4C JUMP JUMPDEST CALLVALUE DUP1 ISZERO PUSH2 0x24C JUMPI PUSH1 0x0 DUP1 REVERT JUMPDEST POP PUSH2 0x1F6 PUSH2 0x25B CALLDATASIZE PUSH1 0x4 PUSH2 0x1A83 JUMP JUMPDEST PUSH2 0xBAC JUMP JUMPDEST CALLVALUE DUP1 ISZERO PUSH2 0x26C JUMPI PUSH1 0x0 DUP1 REVERT JUMPDEST POP PUSH2 0x1F6 PUSH2 0xD15 JUMP JUMPDEST CALLVALUE DUP1 ISZERO PUSH2 0x281 JUMPI PUSH1 0x0 DUP1 REVERT JUMPDEST POP PUSH2 0x2A5 PUSH2 0x290 CALLDATASIZE PUSH1 0x4 PUSH2 0x1A83 JUMP JUMPDEST PUSH1 0x3 PUSH1 0x20 MSTORE PUSH1 0x0 SWAP1 DUP2 MSTORE PUSH1 0x40 SWAP1 KECCAK256 SLOAD PUSH1 0xFF AND DUP2 JUMP JUMPDEST PUSH1 0x40 MLOAD SWAP1 ISZERO ISZERO DUP2 MSTORE PUSH1 0x20 ADD PUSH2 0x1AA JUMP JUMPDEST CALLVALUE DUP1 ISZERO PUSH2 0x2C1 JUMPI PUSH1 0x0 DUP1 REVERT JUMPDEST POP PUSH2 0x1C8 PUSH1 0x4 SLOAD DUP2 JUMP JUMPDEST CALLVALUE DUP1 ISZERO PUSH2 0x2D7 JUMPI PUSH1 0x0 DUP1 REVERT JUMPDEST POP PUSH2 0x1F6 PUSH2 0x2E6 CALLDATASIZE PUSH1 0x4 PUSH2 0x1C45 JUMP JUMPDEST PUSH2 0xD4B JUMP JUMPDEST CALLVALUE DUP1 ISZERO PUSH2 0x2F7 JUMPI PUSH1 0x0 DUP1 REVERT JUMPDEST POP PUSH1 0x0 SLOAD PUSH1 0x1 PUSH1 0x1 PUSH1 0xA0 SHL SUB AND PUSH2 0x196 JUMP JUMPDEST CALLVALUE DUP1 ISZERO PUSH2 0x315 JUMPI PUSH1 0x0 DUP1 REVERT JUMPDEST POP PUSH1 0x2 SLOAD PUSH1 0x1 PUSH1 0x1 PUSH1 0xA0 SHL SUB AND PUSH2 0x196 JUMP JUMPDEST CALLVALUE DUP1 ISZERO PUSH2 0x333 JUMPI PUSH1 0x0 DUP1 REVERT JUMPDEST POP PUSH2 0x1F6 PUSH2 0x342 CALLDATASIZE PUSH1 0x4 PUSH2 0x1BB0 JUMP JUMPDEST PUSH2 0xE87 JUMP JUMPDEST CALLVALUE DUP1 ISZERO PUSH2 0x353 JUMPI PUSH1 0x0 DUP1 REVERT JUMPDEST POP PUSH1 0x5 SLOAD PUSH2 0x196 SWAP1 PUSH1 0x1 PUSH1 0x1 PUSH1 0xA0 SHL SUB AND DUP2 JUMP JUMPDEST CALLVALUE DUP1 ISZERO PUSH2 0x373 JUMPI PUSH1 0x0 DUP1 REVERT JUMPDEST POP PUSH1 0x0 SLOAD PUSH2 0x2A5 SWAP1 PUSH1 0x1 PUSH1 0xA0 SHL SWAP1 DIV PUSH1 0xFF AND DUP2 JUMP JUMPDEST CALLVALUE DUP1 ISZERO PUSH2 0x394 JUMPI PUSH1 0x0 DUP1 REVERT JUMPDEST POP PUSH2 0x1F6 PUSH2 0x3A3 CALLDATASIZE PUSH1 0x4 PUSH2 0x1BB0 JUMP JUMPDEST PUSH2 0xEFA JUMP JUMPDEST CALLVALUE DUP1 ISZERO PUSH2 0x3B4 JUMPI PUSH1 0x0 DUP1 REVERT JUMPDEST POP PUSH1 0x7 SLOAD PUSH2 0x196 SWAP1 PUSH1 0x1 PUSH1 0x1 PUSH1 0xA0 SHL SUB AND DUP2 JUMP JUMPDEST CALLVALUE DUP1 ISZERO PUSH2 0x3D4 JUMPI PUSH1 0x0 DUP1 REVERT JUMPDEST POP PUSH2 0x1F6 PUSH2 0x3E3 CALLDATASIZE PUSH1 0x4 PUSH2 0x1A83 JUMP JUMPDEST PUSH2 0xFD7 JUMP JUMPDEST CALLVALUE DUP1 ISZERO PUSH2 0x3F4 JUMPI PUSH1 0x0 DUP1 REVERT JUMPDEST POP PUSH2 0x1F6 PUSH2 0x403 CALLDATASIZE PUSH1 0x4 PUSH2 0x1C77 JUMP JUMPDEST PUSH2 0x1023 JUMP JUMPDEST CALLVALUE DUP1 ISZERO PUSH2 0x414 JUMPI PUSH1 0x0 DUP1 REVERT JUMPDEST POP PUSH1 0x8 SLOAD PUSH2 0x196 SWAP1 PUSH1 0x1 PUSH1 0x1 PUSH1 0xA0 SHL SUB AND DUP2 JUMP JUMPDEST CALLVALUE DUP1 ISZERO PUSH2 0x434 JUMPI PUSH1 0x0 DUP1 REVERT JUMPDEST POP PUSH2 0x1F6 PUSH2 0x443 CALLDATASIZE PUSH1 0x4 PUSH2 0x1A83 JUMP JUMPDEST PUSH2 0x122E JUMP JUMPDEST CALLVALUE DUP1 ISZERO PUSH2 0x454 JUMPI PUSH1 0x0 DUP1 REVERT JUMPDEST POP PUSH2 0x1F6 PUSH2 0x12C9 JUMP JUMPDEST CALLVALUE DUP1 ISZERO PUSH2 0x469 JUMPI PUSH1 0x0 DUP1 REVERT JUMPDEST POP PUSH2 0x1F6 PUSH2 0x478 CALLDATASIZE PUSH1 0x4 PUSH2 0x1A83 JUMP JUMPDEST PUSH2 0x1353 JUMP JUMPDEST CALLVALUE DUP1 ISZERO PUSH2 0x489 JUMPI PUSH1 0x0 DUP1 REVERT JUMPDEST POP PUSH2 0x1C8 PUSH2 0x498 CALLDATASIZE PUSH1 0x4 PUSH2 0x1BB0 JUMP JUMPDEST DUP1 MLOAD PUSH1 0x20 DUP2 DUP4 ADD DUP2 ADD DUP1 MLOAD PUSH1 0x1 DUP3 MSTORE SWAP3 DUP3 ADD SWAP2 SWAP1 SWAP4 ADD KECCAK256 SWAP2 MSTORE SLOAD DUP2 JUMP JUMPDEST PUSH1 0x7 SLOAD PUSH1 0x40 MLOAD PUSH4 0x70A08231 PUSH1 0xE0 SHL DUP2 MSTORE ADDRESS PUSH1 0x4 DUP3 ADD MSTORE PUSH1 0x0 SWAP2 PUSH1 0x1 PUSH1 0x1 PUSH1 0xA0 SHL SUB AND SWAP1 PUSH4 0x70A08231 SWAP1 PUSH1 0x24 ADD PUSH1 0x20 PUSH1 0x40 MLOAD DUP1 DUP4 SUB DUP2 DUP7 DUP1 EXTCODESIZE ISZERO DUP1 ISZERO PUSH2 0x4F9 JUMPI PUSH1 0x0 DUP1 REVERT JUMPDEST POP GAS STATICCALL ISZERO DUP1 ISZERO PUSH2 0x50D JUMPI RETURNDATASIZE PUSH1 0x0 DUP1 RETURNDATACOPY RETURNDATASIZE PUSH1 0x0 REVERT JUMPDEST POP POP POP POP PUSH1 0x40 MLOAD RETURNDATASIZE PUSH1 0x1F NOT PUSH1 0x1F DUP3 ADD AND DUP3 ADD DUP1 PUSH1 0x40 MSTORE POP DUP2 ADD SWAP1 PUSH2 0x531 SWAP2 SWAP1 PUSH2 0x1C5E JUMP JUMPDEST SWAP1 POP SWAP1 JUMP JUMPDEST CALLER PUSH2 0x549 PUSH1 0x0 SLOAD PUSH1 0x1 PUSH1 0x1 PUSH1 0xA0 SHL SUB AND SWAP1 JUMP JUMPDEST PUSH1 0x1 PUSH1 0x1 PUSH1 0xA0 SHL SUB AND EQ DUP1 PUSH2 0x568 JUMPI POP PUSH1 0x2 SLOAD PUSH1 0x1 PUSH1 0x1 PUSH1 0xA0 SHL SUB AND CALLER EQ JUMPDEST PUSH2 0x58D JUMPI PUSH1 0x40 MLOAD PUSH3 0x461BCD PUSH1 0xE5 SHL DUP2 MSTORE PUSH1 0x4 ADD PUSH2 0x584 SWAP1 PUSH2 0x1D24 JUMP JUMPDEST PUSH1 0x40 MLOAD DUP1 SWAP2 SUB SWAP1 REVERT JUMPDEST PUSH1 0x40 DUP1 MLOAD DUP1 DUP3 ADD SWAP1 SWAP2 MSTORE PUSH1 0xA DUP2 MSTORE PUSH10 0x36B0B4B73A30B4B732B9 PUSH1 0xB1 SHL PUSH1 0x20 DUP3 ADD MSTORE PUSH1 0x0 SLOAD PUSH1 0x1 PUSH1 0xA0 SHL SWAP1 DIV PUSH1 0xFF AND ISZERO DUP1 PUSH2 0x647 JUMPI POP PUSH1 0x1 DUP2 PUSH1 0x40 MLOAD PUSH2 0x5D2 SWAP2 SWAP1 PUSH2 0x1CA7 JUMP JUMPDEST SWAP1 DUP2 MSTORE PUSH1 0x20 ADD PUSH1 0x40 MLOAD DUP1 SWAP2 SUB SWAP1 KECCAK256 SLOAD PUSH1 0x0 EQ ISZERO DUP1 ISZERO PUSH2 0x60F JUMPI POP TIMESTAMP PUSH1 0x1 DUP3 PUSH1 0x40 MLOAD PUSH2 0x5FD SWAP2 SWAP1 PUSH2 0x1CA7 JUMP JUMPDEST SWAP1 DUP2 MSTORE PUSH1 0x20 ADD PUSH1 0x40 MLOAD DUP1 SWAP2 SUB SWAP1 KECCAK256 SLOAD GT ISZERO JUMPDEST DUP1 ISZERO PUSH2 0x647 JUMPI POP TIMESTAMP PUSH3 0x15180 PUSH1 0x1 DUP4 PUSH1 0x40 MLOAD PUSH2 0x62B SWAP2 SWAP1 PUSH2 0x1CA7 JUMP JUMPDEST SWAP1 DUP2 MSTORE PUSH1 0x20 ADD PUSH1 0x40 MLOAD DUP1 SWAP2 SUB SWAP1 KECCAK256 SLOAD PUSH2 0x644 SWAP2 SWAP1 PUSH2 0x1E3F JUMP JUMPDEST LT ISZERO JUMPDEST PUSH2 0x663 JUMPI PUSH1 0x40 MLOAD PUSH3 0x461BCD PUSH1 0xE5 SHL DUP2 MSTORE PUSH1 0x4 ADD PUSH2 0x584 SWAP1 PUSH2 0x1CF8 JUMP JUMPDEST PUSH1 0x2 SLOAD PUSH1 0x1 PUSH1 0x1 PUSH1 0xA0 SHL SUB DUP4 DUP2 AND SWAP2 AND EQ DUP1 ISZERO SWAP1 PUSH2 0x689 JUMPI POP PUSH1 0x1 PUSH1 0x1 PUSH1 0xA0 SHL SUB DUP3 AND ISZERO ISZERO JUMPDEST PUSH2 0x714 JUMPI PUSH1 0x40 MLOAD PUSH3 0x461BCD PUSH1 0xE5 SHL DUP2 MSTORE PUSH1 0x20 PUSH1 0x4 DUP3 ADD MSTORE PUSH1 0x50 PUSH1 0x24 DUP3 ADD MSTORE PUSH32 0x41424F41543A3A7365744D61696E7461696E65723A204D61696E7461696E6572 PUSH1 0x44 DUP3 ADD MSTORE PUSH32 0x2063616E277420657175616C2070726576696F7573206D61696E7461696E6572 PUSH1 0x64 DUP3 ADD MSTORE PUSH16 0x206F72207A65726F2061646472657373 PUSH1 0x80 SHL PUSH1 0x84 DUP3 ADD MSTORE PUSH1 0xA4 ADD PUSH2 0x584 JUMP JUMPDEST PUSH1 0x2 DUP1 SLOAD PUSH1 0x1 PUSH1 0x1 PUSH1 0xA0 SHL SUB DUP5 DUP2 AND PUSH1 0x1 PUSH1 0x1 PUSH1 0xA0 SHL SUB NOT DUP4 AND DUP2 OR SWAP1 SWAP4 SSTORE PUSH1 0x40 MLOAD SWAP2 AND SWAP2 SWAP1 DUP3 SWAP1 PUSH32 0x2F3FFAAAAD93928855C8700645D1A3643E6CCFDD500EFA9FDA048A88F557CF01 SWAP1 PUSH1 0x0 SWAP1 LOG3 POP PUSH2 0x76C DUP2 PUSH2 0xE87 JUMP JUMPDEST POP POP JUMP JUMPDEST PUSH1 0x0 SLOAD PUSH1 0x1 PUSH1 0x1 PUSH1 0xA0 SHL SUB AND CALLER EQ PUSH2 0x79A JUMPI PUSH1 0x40 MLOAD PUSH3 0x461BCD PUSH1 0xE5 SHL DUP2 MSTORE PUSH1 0x4 ADD PUSH2 0x584 SWAP1 PUSH2 0x1CC3 JUMP JUMPDEST DUP1 MLOAD DUP3 MLOAD EQ PUSH2 0x826 JUMPI PUSH1 0x40 MLOAD PUSH3 0x461BCD PUSH1 0xE5 SHL DUP2 MSTORE PUSH1 0x20 PUSH1 0x4 DUP3 ADD MSTORE PUSH1 0x4C PUSH1 0x24 DUP3 ADD MSTORE PUSH32 0x41424F41543A3A6164645265776172643A20616D6F756E747320616E64206164 PUSH1 0x44 DUP3 ADD MSTORE PUSH32 0x64726573736573206D7573742068617665207468652073616D6520616D6F756E PUSH1 0x64 DUP3 ADD MSTORE PUSH12 0x74206F6620656E7472696573 PUSH1 0xA0 SHL PUSH1 0x84 DUP3 ADD MSTORE PUSH1 0xA4 ADD PUSH2 0x584 JUMP JUMPDEST PUSH1 0x0 JUMPDEST DUP2 MLOAD DUP2 LT ISZERO PUSH2 0xA0A JUMPI PUSH1 0x3 PUSH1 0x0 DUP4 DUP4 DUP2 MLOAD DUP2 LT PUSH2 0x848 JUMPI PUSH2 0x848 PUSH2 0x1F10 JUMP JUMPDEST PUSH1 0x20 SWAP1 DUP2 MUL SWAP2 SWAP1 SWAP2 ADD DUP2 ADD MLOAD PUSH1 0x1 PUSH1 0x1 PUSH1 0xA0 SHL SUB AND DUP3 MSTORE DUP2 ADD SWAP2 SWAP1 SWAP2 MSTORE PUSH1 0x40 ADD PUSH1 0x0 KECCAK256 SLOAD PUSH1 0xFF AND DUP1 ISZERO PUSH2 0x89B JUMPI POP DUP3 DUP2 DUP2 MLOAD DUP2 LT PUSH2 0x888 JUMPI PUSH2 0x888 PUSH2 0x1F10 JUMP JUMPDEST PUSH1 0x20 MUL PUSH1 0x20 ADD ADD MLOAD PUSH2 0x898 PUSH2 0x4B5 JUMP JUMPDEST LT ISZERO JUMPDEST DUP1 ISZERO PUSH2 0x8E0 JUMPI POP PUSH1 0x3 PUSH1 0x0 DUP4 DUP4 DUP2 MLOAD DUP2 LT PUSH2 0x8B8 JUMPI PUSH2 0x8B8 PUSH2 0x1F10 JUMP JUMPDEST PUSH1 0x20 SWAP1 DUP2 MUL SWAP2 SWAP1 SWAP2 ADD DUP2 ADD MLOAD PUSH1 0x1 PUSH1 0x1 PUSH1 0xA0 SHL SUB AND DUP3 MSTORE DUP2 ADD SWAP2 SWAP1 SWAP2 MSTORE PUSH1 0x40 ADD PUSH1 0x0 KECCAK256 SLOAD PUSH1 0xFF AND JUMPDEST ISZERO PUSH2 0x9F8 JUMPI PUSH1 0x0 PUSH1 0x3 PUSH1 0x0 DUP5 DUP5 DUP2 MLOAD DUP2 LT PUSH2 0x8FD JUMPI PUSH2 0x8FD PUSH2 0x1F10 JUMP JUMPDEST PUSH1 0x20 MUL PUSH1 0x20 ADD ADD MLOAD PUSH1 0x1 PUSH1 0x1 PUSH1 0xA0 SHL SUB AND PUSH1 0x1 PUSH1 0x1 PUSH1 0xA0 SHL SUB AND DUP2 MSTORE PUSH1 0x20 ADD SWAP1 DUP2 MSTORE PUSH1 0x20 ADD PUSH1 0x0 KECCAK256 PUSH1 0x0 PUSH2 0x100 EXP DUP2 SLOAD DUP2 PUSH1 0xFF MUL NOT AND SWAP1 DUP4 ISZERO ISZERO MUL OR SWAP1 SSTORE POP PUSH2 0x98E PUSH1 0x7 PUSH1 0x0 SWAP1 SLOAD SWAP1 PUSH2 0x100 EXP SWAP1 DIV PUSH1 0x1 PUSH1 0x1 PUSH1 0xA0 SHL SUB AND DUP4 DUP4 DUP2 MLOAD DUP2 LT PUSH2 0x967 JUMPI PUSH2 0x967 PUSH2 0x1F10 JUMP JUMPDEST PUSH1 0x20 MUL PUSH1 0x20 ADD ADD MLOAD DUP6 DUP5 DUP2 MLOAD DUP2 LT PUSH2 0x981 JUMPI PUSH2 0x981 PUSH2 0x1F10 JUMP JUMPDEST PUSH1 0x20 MUL PUSH1 0x20 ADD ADD MLOAD PUSH2 0x153C JUMP JUMPDEST DUP3 DUP2 DUP2 MLOAD DUP2 LT PUSH2 0x9A0 JUMPI PUSH2 0x9A0 PUSH2 0x1F10 JUMP JUMPDEST PUSH1 0x20 MUL PUSH1 0x20 ADD ADD MLOAD DUP3 DUP3 DUP2 MLOAD DUP2 LT PUSH2 0x9BA JUMPI PUSH2 0x9BA PUSH2 0x1F10 JUMP JUMPDEST PUSH1 0x20 MUL PUSH1 0x20 ADD ADD MLOAD PUSH1 0x1 PUSH1 0x1 PUSH1 0xA0 SHL SUB AND PUSH32 0xD9D5E983E9E8A6571FFBEAFA6A3C2FBD9F0F44E52607977B5E1E7934F7D91BFC PUSH1 0x40 MLOAD PUSH1 0x40 MLOAD DUP1 SWAP2 SUB SWAP1 LOG3 JUMPDEST DUP1 PUSH2 0xA02 DUP2 PUSH2 0x1EDF JUMP JUMPDEST SWAP2 POP POP PUSH2 0x829 JUMP JUMPDEST POP POP POP JUMP JUMPDEST PUSH1 0x0 SLOAD PUSH1 0x1 PUSH1 0x1 PUSH1 0xA0 SHL SUB AND CALLER EQ PUSH2 0xA39 JUMPI PUSH1 0x40 MLOAD PUSH3 0x461BCD PUSH1 0xE5 SHL DUP2 MSTORE PUSH1 0x4 ADD PUSH2 0x584 SWAP1 PUSH2 0x1CC3 JUMP JUMPDEST PUSH2 0xA42 DUP2 PUSH2 0xD4B JUMP JUMPDEST PUSH2 0xA0A DUP4 DUP4 PUSH2 0x770 JUMP JUMPDEST CALLER PUSH1 0x0 SWAP1 DUP2 MSTORE PUSH1 0x3 PUSH1 0x20 MSTORE PUSH1 0x40 SWAP1 KECCAK256 SLOAD PUSH1 0xFF AND ISZERO PUSH2 0xAC4 JUMPI PUSH1 0x40 MLOAD PUSH3 0x461BCD PUSH1 0xE5 SHL DUP2 MSTORE PUSH1 0x20 PUSH1 0x4 DUP3 ADD MSTORE PUSH1 0x2F PUSH1 0x24 DUP3 ADD MSTORE PUSH32 0x41424F41543A3A636C61696D3A20416C726561647920616C6C6F77656420746F PUSH1 0x44 DUP3 ADD MSTORE PUSH15 0x207265636965766520746F6B656E73 PUSH1 0x88 SHL PUSH1 0x64 DUP3 ADD MSTORE PUSH1 0x84 ADD PUSH2 0x584 JUMP JUMPDEST PUSH1 0x4 SLOAD CALLVALUE LT ISZERO PUSH2 0xB54 JUMPI PUSH1 0x40 MLOAD PUSH3 0x461BCD PUSH1 0xE5 SHL DUP2 MSTORE PUSH1 0x20 PUSH1 0x4 DUP3 ADD MSTORE PUSH1 0x4F PUSH1 0x24 DUP3 ADD MSTORE PUSH32 0x41424F41543A3A636C61696D3A20416D6F756E74206F6620626E6220746F2063 PUSH1 0x44 DUP3 ADD MSTORE PUSH32 0x6C61696D2073686F756C642063617272792074686520636F737420746F206164 PUSH1 0x64 DUP3 ADD MSTORE PUSH15 0x642074686520636C61696D61626C65 PUSH1 0x88 SHL PUSH1 0x84 DUP3 ADD MSTORE PUSH1 0xA4 ADD PUSH2 0x584 JUMP JUMPDEST PUSH1 0x5 SLOAD PUSH2 0xB6A SWAP1 PUSH1 0x1 PUSH1 0x1 PUSH1 0xA0 SHL SUB AND CALLVALUE PUSH2 0x166D JUMP JUMPDEST CALLER PUSH1 0x0 DUP2 DUP2 MSTORE PUSH1 0x3 PUSH1 0x20 MSTORE PUSH1 0x40 DUP1 DUP3 KECCAK256 DUP1 SLOAD PUSH1 0xFF NOT AND PUSH1 0x1 OR SWAP1 SSTORE MLOAD PUSH32 0x98716C616972F4EF0085DEB59C20F6F6A840219C121AD1F3B5413097F3A10357 SWAP2 SWAP1 LOG2 JUMP JUMPDEST PUSH1 0x0 SLOAD PUSH1 0x1 PUSH1 0x1 PUSH1 0xA0 SHL SUB AND CALLER EQ PUSH2 0xBD6 JUMPI PUSH1 0x40 MLOAD PUSH3 0x461BCD PUSH1 0xE5 SHL DUP2 MSTORE PUSH1 0x4 ADD PUSH2 0x584 SWAP1 PUSH2 0x1CC3 JUMP JUMPDEST PUSH1 0x40 DUP1 MLOAD DUP1 DUP3 ADD SWAP1 SWAP2 MSTORE PUSH1 0x12 DUP2 MSTORE PUSH18 0x18DA185B99D953DC9858DB1955D85B1B195D PUSH1 0x72 SHL PUSH1 0x20 DUP3 ADD MSTORE PUSH1 0x0 SLOAD PUSH1 0x1 PUSH1 0xA0 SHL SWAP1 DIV PUSH1 0xFF AND ISZERO DUP1 PUSH2 0xC98 JUMPI POP PUSH1 0x1 DUP2 PUSH1 0x40 MLOAD PUSH2 0xC23 SWAP2 SWAP1 PUSH2 0x1CA7 JUMP JUMPDEST SWAP1 DUP2 MSTORE PUSH1 0x20 ADD PUSH1 0x40 MLOAD DUP1 SWAP2 SUB SWAP1 KECCAK256 SLOAD PUSH1 0x0 EQ ISZERO DUP1 ISZERO PUSH2 0xC60 JUMPI POP TIMESTAMP PUSH1 0x1 DUP3 PUSH1 0x40 MLOAD PUSH2 0xC4E SWAP2 SWAP1 PUSH2 0x1CA7 JUMP JUMPDEST SWAP1 DUP2 MSTORE PUSH1 0x20 ADD PUSH1 0x40 MLOAD DUP1 SWAP2 SUB SWAP1 KECCAK256 SLOAD GT ISZERO JUMPDEST DUP1 ISZERO PUSH2 0xC98 JUMPI POP TIMESTAMP PUSH3 0x15180 PUSH1 0x1 DUP4 PUSH1 0x40 MLOAD PUSH2 0xC7C SWAP2 SWAP1 PUSH2 0x1CA7 JUMP JUMPDEST SWAP1 DUP2 MSTORE PUSH1 0x20 ADD PUSH1 0x40 MLOAD DUP1 SWAP2 SUB SWAP1 KECCAK256 SLOAD PUSH2 0xC95 SWAP2 SWAP1 PUSH2 0x1E3F JUMP JUMPDEST LT ISZERO JUMPDEST PUSH2 0xCB4 JUMPI PUSH1 0x40 MLOAD PUSH3 0x461BCD PUSH1 0xE5 SHL DUP2 MSTORE PUSH1 0x4 ADD PUSH2 0x584 SWAP1 PUSH2 0x1CF8 JUMP JUMPDEST PUSH2 0xCBD DUP3 PUSH2 0x122E JUMP JUMPDEST PUSH1 0x5 DUP1 SLOAD PUSH1 0x1 PUSH1 0x1 PUSH1 0xA0 SHL SUB DUP5 DUP2 AND PUSH1 0x1 PUSH1 0x1 PUSH1 0xA0 SHL SUB NOT DUP4 AND DUP2 OR SWAP1 SWAP4 SSTORE PUSH1 0x40 MLOAD SWAP2 AND SWAP2 SWAP1 DUP3 SWAP1 PUSH32 0x3920ECD0F25E4E6CE57AAEC91E57DF499CB7E3E70D6C9604F866AE9265382CF3 SWAP1 PUSH1 0x0 SWAP1 LOG3 POP PUSH2 0x76C DUP2 PUSH2 0xE87 JUMP JUMPDEST PUSH1 0x0 SLOAD PUSH1 0x1 PUSH1 0x1 PUSH1 0xA0 SHL SUB AND CALLER EQ PUSH2 0xD3F JUMPI PUSH1 0x40 MLOAD PUSH3 0x461BCD PUSH1 0xE5 SHL DUP2 MSTORE PUSH1 0x4 ADD PUSH2 0x584 SWAP1 PUSH2 0x1CC3 JUMP JUMPDEST PUSH2 0xD49 PUSH1 0x0 PUSH2 0x1747 JUMP JUMPDEST JUMP JUMPDEST PUSH1 0x0 SLOAD PUSH1 0x1 PUSH1 0x1 PUSH1 0xA0 SHL SUB AND CALLER EQ PUSH2 0xD75 JUMPI PUSH1 0x40 MLOAD PUSH3 0x461BCD PUSH1 0xE5 SHL DUP2 MSTORE PUSH1 0x4 ADD PUSH2 0x584 SWAP1 PUSH2 0x1CC3 JUMP JUMPDEST PUSH1 0x40 DUP1 MLOAD DUP1 DUP3 ADD SWAP1 SWAP2 MSTORE PUSH1 0xD DUP2 MSTORE PUSH13 0x18591A9D5CDD11D85CD0DBDCDD PUSH1 0x9A SHL PUSH1 0x20 DUP3 ADD MSTORE PUSH1 0x0 SLOAD PUSH1 0x1 PUSH1 0xA0 SHL SWAP1 DIV PUSH1 0xFF AND ISZERO DUP1 PUSH2 0xE32 JUMPI POP PUSH1 0x1 DUP2 PUSH1 0x40 MLOAD PUSH2 0xDBD SWAP2 SWAP1 PUSH2 0x1CA7 JUMP JUMPDEST SWAP1 DUP2 MSTORE PUSH1 0x20 ADD PUSH1 0x40 MLOAD DUP1 SWAP2 SUB SWAP1 KECCAK256 SLOAD PUSH1 0x0 EQ ISZERO DUP1 ISZERO PUSH2 0xDFA JUMPI POP TIMESTAMP PUSH1 0x1 DUP3 PUSH1 0x40 MLOAD PUSH2 0xDE8 SWAP2 SWAP1 PUSH2 0x1CA7 JUMP JUMPDEST SWAP1 DUP2 MSTORE PUSH1 0x20 ADD PUSH1 0x40 MLOAD DUP1 SWAP2 SUB SWAP1 KECCAK256 SLOAD GT ISZERO JUMPDEST DUP1 ISZERO PUSH2 0xE32 JUMPI POP TIMESTAMP PUSH3 0x15180 PUSH1 0x1 DUP4 PUSH1 0x40 MLOAD PUSH2 0xE16 SWAP2 SWAP1 PUSH2 0x1CA7 JUMP JUMPDEST SWAP1 DUP2 MSTORE PUSH1 0x20 ADD PUSH1 0x40 MLOAD DUP1 SWAP2 SUB SWAP1 KECCAK256 SLOAD PUSH2 0xE2F SWAP2 SWAP1 PUSH2 0x1E3F JUMP JUMPDEST LT ISZERO JUMPDEST PUSH2 0xE4E JUMPI PUSH1 0x40 MLOAD PUSH3 0x461BCD PUSH1 0xE5 SHL DUP2 MSTORE PUSH1 0x4 ADD PUSH2 0x584 SWAP1 PUSH2 0x1CF8 JUMP JUMPDEST PUSH1 0x4 SLOAD PUSH1 0x40 MLOAD DUP4 SWAP2 SWAP1 PUSH32 0xC3DC19678FD7390A5C1197DECFAEC52D8A1C63C49F0A51DB570F5FE5040C5F73 SWAP1 PUSH1 0x0 SWAP1 LOG3 PUSH1 0x4 DUP3 SWAP1 SSTORE PUSH2 0x76C DUP2 JUMPDEST CALLER PUSH2 0xE9A PUSH1 0x0 SLOAD PUSH1 0x1 PUSH1 0x1 PUSH1 0xA0 SHL SUB AND SWAP1 JUMP JUMPDEST PUSH1 0x1 PUSH1 0x1 PUSH1 0xA0 SHL SUB AND EQ DUP1 PUSH2 0xEB9 JUMPI POP PUSH1 0x2 SLOAD PUSH1 0x1 PUSH1 0x1 PUSH1 0xA0 SHL SUB AND CALLER EQ JUMPDEST PUSH2 0xED5 JUMPI PUSH1 0x40 MLOAD PUSH3 0x461BCD PUSH1 0xE5 SHL DUP2 MSTORE PUSH1 0x4 ADD PUSH2 0x584 SWAP1 PUSH2 0x1D24 JUMP JUMPDEST PUSH1 0x0 PUSH1 0x1 DUP3 PUSH1 0x40 MLOAD PUSH2 0xEE7 SWAP2 SWAP1 PUSH2 0x1CA7 JUMP JUMPDEST SWAP1 DUP2 MSTORE PUSH1 0x40 MLOAD SWAP1 DUP2 SWAP1 SUB PUSH1 0x20 ADD SWAP1 KECCAK256 SSTORE POP JUMP JUMPDEST CALLER PUSH2 0xF0D PUSH1 0x0 SLOAD PUSH1 0x1 PUSH1 0x1 PUSH1 0xA0 SHL SUB AND SWAP1 JUMP JUMPDEST PUSH1 0x1 PUSH1 0x1 PUSH1 0xA0 SHL SUB AND EQ DUP1 PUSH2 0xF2C JUMPI POP PUSH1 0x2 SLOAD PUSH1 0x1 PUSH1 0x1 PUSH1 0xA0 SHL SUB AND CALLER EQ JUMPDEST PUSH2 0xF48 JUMPI PUSH1 0x40 MLOAD PUSH3 0x461BCD PUSH1 0xE5 SHL DUP2 MSTORE PUSH1 0x4 ADD PUSH2 0x584 SWAP1 PUSH2 0x1D24 JUMP JUMPDEST PUSH2 0xF55 PUSH3 0x15180 TIMESTAMP PUSH2 0x1E3F JUMP JUMPDEST PUSH1 0x1 DUP3 PUSH1 0x40 MLOAD PUSH2 0xF65 SWAP2 SWAP1 PUSH2 0x1CA7 JUMP JUMPDEST SWAP1 DUP2 MSTORE PUSH1 0x20 ADD PUSH1 0x40 MLOAD DUP1 SWAP2 SUB SWAP1 KECCAK256 DUP2 SWAP1 SSTORE POP PUSH1 0x1 DUP2 PUSH1 0x40 MLOAD PUSH2 0xF87 SWAP2 SWAP1 PUSH2 0x1CA7 JUMP JUMPDEST SWAP1 DUP2 MSTORE PUSH1 0x20 ADD PUSH1 0x40 MLOAD DUP1 SWAP2 SUB SWAP1 KECCAK256 SLOAD DUP2 PUSH1 0x40 MLOAD PUSH2 0xFA4 SWAP2 SWAP1 PUSH2 0x1CA7 JUMP JUMPDEST PUSH1 0x40 MLOAD SWAP1 DUP2 SWAP1 SUB DUP2 KECCAK256 SWAP1 PUSH32 0xF77F9A799FE8B0BE1463ABD7459A18FC55DFD8A6A24DDD29B54FD098088089C8 SWAP1 PUSH1 0x0 SWAP1 LOG3 POP JUMP JUMPDEST PUSH1 0x0 SLOAD PUSH1 0x1 PUSH1 0x1 PUSH1 0xA0 SHL SUB AND CALLER EQ PUSH2 0x1001 JUMPI PUSH1 0x40 MLOAD PUSH3 0x461BCD PUSH1 0xE5 SHL DUP2 MSTORE PUSH1 0x4 ADD PUSH2 0x584 SWAP1 PUSH2 0x1CC3 JUMP JUMPDEST PUSH1 0x8 DUP1 SLOAD PUSH1 0x1 PUSH1 0x1 PUSH1 0xA0 SHL SUB NOT AND PUSH1 0x1 PUSH1 0x1 PUSH1 0xA0 SHL SUB SWAP3 SWAP1 SWAP3 AND SWAP2 SWAP1 SWAP2 OR SWAP1 SSTORE JUMP JUMPDEST PUSH1 0x0 SLOAD PUSH1 0x1 PUSH1 0x1 PUSH1 0xA0 SHL SUB AND CALLER EQ PUSH2 0x104D JUMPI PUSH1 0x40 MLOAD PUSH3 0x461BCD PUSH1 0xE5 SHL DUP2 MSTORE PUSH1 0x4 ADD PUSH2 0x584 SWAP1 PUSH2 0x1CC3 JUMP JUMPDEST PUSH1 0x8 SLOAD PUSH1 0x1 PUSH1 0x1 PUSH1 0xA0 SHL SUB AND PUSH2 0x10DE JUMPI PUSH1 0x40 MLOAD PUSH3 0x461BCD PUSH1 0xE5 SHL DUP2 MSTORE PUSH1 0x20 PUSH1 0x4 DUP3 ADD MSTORE PUSH1 0x4A PUSH1 0x24 DUP3 ADD MSTORE PUSH32 0x41424F41543A3A73656E645265776172647341734574683A2054686572652069 PUSH1 0x44 DUP3 ADD MSTORE PUSH32 0x73206E6F20726F7574657220646566696E656420746F207377617020746F6B65 PUSH1 0x64 DUP3 ADD MSTORE PUSH10 0xDCE640CCDEE440CAE8D PUSH1 0xB3 SHL PUSH1 0x84 DUP3 ADD MSTORE PUSH1 0xA4 ADD PUSH2 0x584 JUMP JUMPDEST PUSH2 0x10E6 PUSH2 0x4B5 JUMP JUMPDEST DUP3 GT ISZERO PUSH2 0x116B JUMPI PUSH1 0x40 MLOAD PUSH3 0x461BCD PUSH1 0xE5 SHL DUP2 MSTORE PUSH1 0x20 PUSH1 0x4 DUP3 ADD MSTORE PUSH1 0x47 PUSH1 0x24 DUP3 ADD MSTORE PUSH32 0x41424F41543A3A73656E645265776172647341734574683A2043616E27742073 PUSH1 0x44 DUP3 ADD MSTORE PUSH32 0x656E64206D6F72652072657761726473207468616E20696E2072657761726420 PUSH1 0x64 DUP3 ADD MSTORE PUSH7 0x73797374656D21 PUSH1 0xC8 SHL PUSH1 0x84 DUP3 ADD MSTORE PUSH1 0xA4 ADD PUSH2 0x584 JUMP JUMPDEST PUSH2 0x1174 DUP3 PUSH2 0x1797 JUMP JUMPDEST PUSH1 0x0 PUSH2 0x118B PUSH1 0x4 SLOAD SELFBALANCE PUSH2 0x197D SWAP1 SWAP2 SWAP1 PUSH4 0xFFFFFFFF AND JUMP JUMPDEST PUSH1 0x5 SLOAD PUSH1 0x4 SLOAD SWAP2 SWAP3 POP PUSH2 0x11A9 SWAP2 PUSH1 0x1 PUSH1 0x1 PUSH1 0xA0 SHL SUB SWAP1 SWAP2 AND SWAP1 PUSH2 0x166D JUMP JUMPDEST PUSH1 0x0 PUSH2 0x11C1 PUSH1 0x64 PUSH2 0x11BB DUP5 PUSH1 0xA PUSH2 0x1990 JUMP JUMPDEST SWAP1 PUSH2 0x199C JUMP JUMPDEST SWAP1 POP PUSH2 0x11CD DUP3 DUP3 PUSH2 0x197D JUMP JUMPDEST PUSH1 0x6 SLOAD SWAP1 SWAP3 POP PUSH2 0x11E6 SWAP1 PUSH1 0x1 PUSH1 0x1 PUSH1 0xA0 SHL SUB AND DUP3 PUSH2 0x166D JUMP JUMPDEST PUSH2 0x11F0 DUP4 DUP4 PUSH2 0x166D JUMP JUMPDEST DUP1 DUP3 DUP5 PUSH1 0x1 PUSH1 0x1 PUSH1 0xA0 SHL SUB AND PUSH32 0x75B2EAC24930BF6A8227DBE172D34480E56BE5C6994435067628424190D53431 PUSH1 0x40 MLOAD PUSH1 0x40 MLOAD DUP1 SWAP2 SUB SWAP1 LOG4 POP POP POP POP JUMP JUMPDEST PUSH1 0x0 SLOAD PUSH1 0x1 PUSH1 0x1 PUSH1 0xA0 SHL SUB AND CALLER EQ PUSH2 0x1258 JUMPI PUSH1 0x40 MLOAD PUSH3 0x461BCD PUSH1 0xE5 SHL DUP2 MSTORE PUSH1 0x4 ADD PUSH2 0x584 SWAP1 PUSH2 0x1CC3 JUMP JUMPDEST PUSH1 0x1 PUSH1 0x1 PUSH1 0xA0 SHL SUB DUP2 AND PUSH2 0x12BD JUMPI PUSH1 0x40 MLOAD PUSH3 0x461BCD PUSH1 0xE5 SHL DUP2 MSTORE PUSH1 0x20 PUSH1 0x4 DUP3 ADD MSTORE PUSH1 0x26 PUSH1 0x24 DUP3 ADD MSTORE PUSH32 0x4F776E61626C653A206E6577206F776E657220697320746865207A65726F2061 PUSH1 0x44 DUP3 ADD MSTORE PUSH6 0x646472657373 PUSH1 0xD0 SHL PUSH1 0x64 DUP3 ADD MSTORE PUSH1 0x84 ADD PUSH2 0x584 JUMP JUMPDEST PUSH2 0x12C6 DUP2 PUSH2 0x1747 JUMP JUMPDEST POP JUMP JUMPDEST CALLER PUSH2 0x12DC PUSH1 0x0 SLOAD PUSH1 0x1 PUSH1 0x1 PUSH1 0xA0 SHL SUB AND SWAP1 JUMP JUMPDEST PUSH1 0x1 PUSH1 0x1 PUSH1 0xA0 SHL SUB AND EQ DUP1 PUSH2 0x12FB JUMPI POP PUSH1 0x2 SLOAD PUSH1 0x1 PUSH1 0x1 PUSH1 0xA0 SHL SUB AND CALLER EQ JUMPDEST PUSH2 0x1317 JUMPI PUSH1 0x40 MLOAD PUSH3 0x461BCD PUSH1 0xE5 SHL DUP2 MSTORE PUSH1 0x4 ADD PUSH2 0x584 SWAP1 PUSH2 0x1D24 JUMP JUMPDEST PUSH1 0x0 DUP1 SLOAD PUSH1 0xFF PUSH1 0xA0 SHL NOT AND PUSH1 0x1 PUSH1 0xA0 SHL OR DUP2 SSTORE PUSH1 0x40 MLOAD PUSH32 0x2C08B62BFAC9A1B19BB1DEC9323F1CE01696A77948B256ABF3603D30F25A864E SWAP2 SWAP1 LOG1 JUMP JUMPDEST PUSH1 0x0 SLOAD PUSH1 0x1 PUSH1 0x1 PUSH1 0xA0 SHL SUB AND CALLER EQ PUSH2 0x137D JUMPI PUSH1 0x40 MLOAD PUSH3 0x461BCD PUSH1 0xE5 SHL DUP2 MSTORE PUSH1 0x4 ADD PUSH2 0x584 SWAP1 PUSH2 0x1CC3 JUMP JUMPDEST PUSH1 0x40 DUP1 MLOAD DUP1 DUP3 ADD SWAP1 SWAP2 MSTORE PUSH1 0x11 DUP2 MSTORE PUSH17 0x3AB83230BA32A932BBB0B9322A37B5B2B7 PUSH1 0x79 SHL PUSH1 0x20 DUP3 ADD MSTORE PUSH1 0x0 SLOAD PUSH1 0x1 PUSH1 0xA0 SHL SWAP1 DIV PUSH1 0xFF AND ISZERO DUP1 PUSH2 0x143E JUMPI POP PUSH1 0x1 DUP2 PUSH1 0x40 MLOAD PUSH2 0x13C9 SWAP2 SWAP1 PUSH2 0x1CA7 JUMP JUMPDEST SWAP1 DUP2 MSTORE PUSH1 0x20 ADD PUSH1 0x40 MLOAD DUP1 SWAP2 SUB SWAP1 KECCAK256 SLOAD PUSH1 0x0 EQ ISZERO DUP1 ISZERO PUSH2 0x1406 JUMPI POP TIMESTAMP PUSH1 0x1 DUP3 PUSH1 0x40 MLOAD PUSH2 0x13F4 SWAP2 SWAP1 PUSH2 0x1CA7 JUMP JUMPDEST SWAP1 DUP2 MSTORE PUSH1 0x20 ADD PUSH1 0x40 MLOAD DUP1 SWAP2 SUB SWAP1 KECCAK256 SLOAD GT ISZERO JUMPDEST DUP1 ISZERO PUSH2 0x143E JUMPI POP TIMESTAMP PUSH3 0x15180 PUSH1 0x1 DUP4 PUSH1 0x40 MLOAD PUSH2 0x1422 SWAP2 SWAP1 PUSH2 0x1CA7 JUMP JUMPDEST SWAP1 DUP2 MSTORE PUSH1 0x20 ADD PUSH1 0x40 MLOAD DUP1 SWAP2 SUB SWAP1 KECCAK256 SLOAD PUSH2 0x143B SWAP2 SWAP1 PUSH2 0x1E3F JUMP JUMPDEST LT ISZERO JUMPDEST PUSH2 0x145A JUMPI PUSH1 0x40 MLOAD PUSH3 0x461BCD PUSH1 0xE5 SHL DUP2 MSTORE PUSH1 0x4 ADD PUSH2 0x584 SWAP1 PUSH2 0x1CF8 JUMP JUMPDEST PUSH1 0x7 SLOAD PUSH1 0x1 PUSH1 0x1 PUSH1 0xA0 SHL SUB DUP4 DUP2 AND SWAP2 AND EQ ISZERO PUSH2 0x14DE JUMPI PUSH1 0x40 MLOAD PUSH3 0x461BCD PUSH1 0xE5 SHL DUP2 MSTORE PUSH1 0x20 PUSH1 0x4 DUP3 ADD MSTORE PUSH1 0x3F PUSH1 0x24 DUP3 ADD MSTORE PUSH32 0x41424F41543A757064617465526577617264546F6B656E3A20596F752063616E PUSH1 0x44 DUP3 ADD MSTORE PUSH32 0x277420757064617465207468652065786163742073616D6520746F6B656E7300 PUSH1 0x64 DUP3 ADD MSTORE PUSH1 0x84 ADD PUSH2 0x584 JUMP JUMPDEST PUSH1 0x7 SLOAD PUSH1 0x40 MLOAD PUSH1 0x1 PUSH1 0x1 PUSH1 0xA0 SHL SUB DUP1 DUP6 AND SWAP3 AND SWAP1 PUSH32 0xCB89265F21B9FC8710E9D9E42BBB37AF1EB207454DECA6D5E36787BE2367C1D6 SWAP1 PUSH1 0x0 SWAP1 LOG3 PUSH1 0x7 DUP1 SLOAD PUSH1 0x1 PUSH1 0x1 PUSH1 0xA0 SHL SUB NOT AND PUSH1 0x1 PUSH1 0x1 PUSH1 0xA0 SHL SUB DUP5 AND OR SWAP1 SSTORE PUSH2 0x76C DUP2 PUSH2 0xE87 JUMP JUMPDEST PUSH1 0x40 DUP1 MLOAD PUSH1 0x1 PUSH1 0x1 PUSH1 0xA0 SHL SUB DUP5 DUP2 AND PUSH1 0x24 DUP4 ADD MSTORE PUSH1 0x44 DUP1 DUP4 ADD DUP6 SWAP1 MSTORE DUP4 MLOAD DUP1 DUP5 SUB SWAP1 SWAP2 ADD DUP2 MSTORE PUSH1 0x64 SWAP1 SWAP3 ADD DUP4 MSTORE PUSH1 0x20 DUP3 ADD DUP1 MLOAD PUSH1 0x1 PUSH1 0x1 PUSH1 0xE0 SHL SUB AND PUSH4 0xA9059CBB PUSH1 0xE0 SHL OR SWAP1 MSTORE SWAP2 MLOAD PUSH1 0x0 SWAP3 DUP4 SWAP3 SWAP1 DUP8 AND SWAP2 PUSH2 0x1598 SWAP2 SWAP1 PUSH2 0x1CA7 JUMP JUMPDEST PUSH1 0x0 PUSH1 0x40 MLOAD DUP1 DUP4 SUB DUP2 PUSH1 0x0 DUP7 GAS CALL SWAP2 POP POP RETURNDATASIZE DUP1 PUSH1 0x0 DUP2 EQ PUSH2 0x15D5 JUMPI PUSH1 0x40 MLOAD SWAP2 POP PUSH1 0x1F NOT PUSH1 0x3F RETURNDATASIZE ADD AND DUP3 ADD PUSH1 0x40 MSTORE RETURNDATASIZE DUP3 MSTORE RETURNDATASIZE PUSH1 0x0 PUSH1 0x20 DUP5 ADD RETURNDATACOPY PUSH2 0x15DA JUMP JUMPDEST PUSH1 0x60 SWAP2 POP JUMPDEST POP SWAP2 POP SWAP2 POP DUP2 DUP1 ISZERO PUSH2 0x1604 JUMPI POP DUP1 MLOAD ISZERO DUP1 PUSH2 0x1604 JUMPI POP DUP1 DUP1 PUSH1 0x20 ADD SWAP1 MLOAD DUP2 ADD SWAP1 PUSH2 0x1604 SWAP2 SWAP1 PUSH2 0x1B8E JUMP JUMPDEST PUSH2 0x1666 JUMPI PUSH1 0x40 MLOAD PUSH3 0x461BCD PUSH1 0xE5 SHL DUP2 MSTORE PUSH1 0x20 PUSH1 0x4 DUP3 ADD MSTORE PUSH1 0x2D PUSH1 0x24 DUP3 ADD MSTORE PUSH32 0x5472616E7366657248656C7065723A3A736166655472616E736665723A207472 PUSH1 0x44 DUP3 ADD MSTORE PUSH13 0x185B9CD9995C8819985A5B1959 PUSH1 0x9A SHL PUSH1 0x64 DUP3 ADD MSTORE PUSH1 0x84 ADD PUSH2 0x584 JUMP JUMPDEST POP POP POP POP POP JUMP JUMPDEST PUSH1 0x40 DUP1 MLOAD PUSH1 0x0 DUP1 DUP3 MSTORE PUSH1 0x20 DUP3 ADD SWAP1 SWAP3 MSTORE PUSH1 0x1 PUSH1 0x1 PUSH1 0xA0 SHL SUB DUP5 AND SWAP1 DUP4 SWAP1 PUSH1 0x40 MLOAD PUSH2 0x1697 SWAP2 SWAP1 PUSH2 0x1CA7 JUMP JUMPDEST PUSH1 0x0 PUSH1 0x40 MLOAD DUP1 DUP4 SUB DUP2 DUP6 DUP8 GAS CALL SWAP3 POP POP POP RETURNDATASIZE DUP1 PUSH1 0x0 DUP2 EQ PUSH2 0x16D4 JUMPI PUSH1 0x40 MLOAD SWAP2 POP PUSH1 0x1F NOT PUSH1 0x3F RETURNDATASIZE ADD AND DUP3 ADD PUSH1 0x40 MSTORE RETURNDATASIZE DUP3 MSTORE RETURNDATASIZE PUSH1 0x0 PUSH1 0x20 DUP5 ADD RETURNDATACOPY PUSH2 0x16D9 JUMP JUMPDEST PUSH1 0x60 SWAP2 POP JUMPDEST POP POP SWAP1 POP DUP1 PUSH2 0xA0A JUMPI PUSH1 0x40 MLOAD PUSH3 0x461BCD PUSH1 0xE5 SHL DUP2 MSTORE PUSH1 0x20 PUSH1 0x4 DUP3 ADD MSTORE PUSH1 0x34 PUSH1 0x24 DUP3 ADD MSTORE PUSH32 0x5472616E7366657248656C7065723A3A736166655472616E736665724554483A PUSH1 0x44 DUP3 ADD MSTORE PUSH20 0x8115512081D1C985B9CD9995C8819985A5B1959 PUSH1 0x62 SHL PUSH1 0x64 DUP3 ADD MSTORE PUSH1 0x84 ADD PUSH2 0x584 JUMP JUMPDEST PUSH1 0x0 DUP1 SLOAD PUSH1 0x1 PUSH1 0x1 PUSH1 0xA0 SHL SUB DUP4 DUP2 AND PUSH1 0x1 PUSH1 0x1 PUSH1 0xA0 SHL SUB NOT DUP4 AND DUP2 OR DUP5 SSTORE PUSH1 0x40 MLOAD SWAP2 SWAP1 SWAP3 AND SWAP3 DUP4 SWAP2 PUSH32 0x8BE0079C531659141344CD1FD0A4F28419497F9722A3DAAFE3B4186F6B6457E0 SWAP2 SWAP1 LOG3 POP POP JUMP JUMPDEST PUSH1 0x40 DUP1 MLOAD PUSH1 0x2 DUP1 DUP3 MSTORE PUSH1 0x60 DUP3 ADD DUP4 MSTORE PUSH1 0x0 SWAP3 PUSH1 0x20 DUP4 ADD SWAP1 DUP1 CALLDATASIZE DUP4 CALLDATACOPY POP POP PUSH1 0x7 SLOAD DUP3 MLOAD SWAP3 SWAP4 POP PUSH1 0x1 PUSH1 0x1 PUSH1 0xA0 SHL SUB AND SWAP2 DUP4 SWAP2 POP PUSH1 0x0 SWAP1 PUSH2 0x17D8 JUMPI PUSH2 0x17D8 PUSH2 0x1F10 JUMP JUMPDEST PUSH1 0x1 PUSH1 0x1 PUSH1 0xA0 SHL SUB SWAP3 DUP4 AND PUSH1 0x20 SWAP2 DUP3 MUL SWAP3 SWAP1 SWAP3 ADD DUP2 ADD SWAP2 SWAP1 SWAP2 MSTORE PUSH1 0x8 SLOAD PUSH1 0x40 DUP1 MLOAD PUSH4 0x15AB88C9 PUSH1 0xE3 SHL DUP2 MSTORE SWAP1 MLOAD SWAP2 SWAP1 SWAP4 AND SWAP3 PUSH4 0xAD5C4648 SWAP3 PUSH1 0x4 DUP1 DUP4 ADD SWAP4 SWAP2 SWAP3 DUP3 SWAP1 SUB ADD DUP2 DUP7 DUP1 EXTCODESIZE ISZERO DUP1 ISZERO PUSH2 0x182C JUMPI PUSH1 0x0 DUP1 REVERT JUMPDEST POP GAS STATICCALL ISZERO DUP1 ISZERO PUSH2 0x1840 JUMPI RETURNDATASIZE PUSH1 0x0 DUP1 RETURNDATACOPY RETURNDATASIZE PUSH1 0x0 REVERT JUMPDEST POP POP POP POP PUSH1 0x40 MLOAD RETURNDATASIZE PUSH1 0x1F NOT PUSH1 0x1F DUP3 ADD AND DUP3 ADD DUP1 PUSH1 0x40 MSTORE POP DUP2 ADD SWAP1 PUSH2 0x1864 SWAP2 SWAP1 PUSH2 0x1AA0 JUMP JUMPDEST DUP2 PUSH1 0x1 DUP2 MLOAD DUP2 LT PUSH2 0x1877 JUMPI PUSH2 0x1877 PUSH2 0x1F10 JUMP JUMPDEST PUSH1 0x1 PUSH1 0x1 PUSH1 0xA0 SHL SUB SWAP3 DUP4 AND PUSH1 0x20 SWAP2 DUP3 MUL SWAP3 SWAP1 SWAP3 ADD ADD MSTORE PUSH1 0x7 SLOAD PUSH1 0x8 SLOAD PUSH1 0x40 MLOAD PUSH4 0x95EA7B3 PUSH1 0xE0 SHL DUP2 MSTORE SWAP1 DUP4 AND PUSH1 0x4 DUP3 ADD MSTORE PUSH1 0x24 DUP2 ADD DUP6 SWAP1 MSTORE SWAP2 AND SWAP1 PUSH4 0x95EA7B3 SWAP1 PUSH1 0x44 ADD PUSH1 0x20 PUSH1 0x40 MLOAD DUP1 DUP4 SUB DUP2 PUSH1 0x0 DUP8 DUP1 EXTCODESIZE ISZERO DUP1 ISZERO PUSH2 0x18D5 JUMPI PUSH1 0x0 DUP1 REVERT JUMPDEST POP GAS CALL ISZERO DUP1 ISZERO PUSH2 0x18E9 JUMPI RETURNDATASIZE PUSH1 0x0 DUP1 RETURNDATACOPY RETURNDATASIZE PUSH1 0x0 REVERT JUMPDEST POP POP POP POP PUSH1 0x40 MLOAD RETURNDATASIZE PUSH1 0x1F NOT PUSH1 0x1F DUP3 ADD AND DUP3 ADD DUP1 PUSH1 0x40 MSTORE POP DUP2 ADD SWAP1 PUSH2 0x190D SWAP2 SWAP1 PUSH2 0x1B8E JUMP JUMPDEST POP PUSH1 0x8 SLOAD PUSH1 0x40 MLOAD PUSH4 0x791AC947 PUSH1 0xE0 SHL DUP2 MSTORE PUSH1 0x1 PUSH1 0x1 PUSH1 0xA0 SHL SUB SWAP1 SWAP2 AND SWAP1 PUSH4 0x791AC947 SWAP1 PUSH2 0x1947 SWAP1 DUP6 SWAP1 PUSH1 0x0 SWAP1 DUP7 SWAP1 ADDRESS SWAP1 TIMESTAMP SWAP1 PUSH1 0x4 ADD PUSH2 0x1D79 JUMP JUMPDEST PUSH1 0x0 PUSH1 0x40 MLOAD DUP1 DUP4 SUB DUP2 PUSH1 0x0 DUP8 DUP1 EXTCODESIZE ISZERO DUP1 ISZERO PUSH2 0x1961 JUMPI PUSH1 0x0 DUP1 REVERT JUMPDEST POP GAS CALL ISZERO DUP1 ISZERO PUSH2 0x1975 JUMPI RETURNDATASIZE PUSH1 0x0 DUP1 RETURNDATACOPY RETURNDATASIZE PUSH1 0x0 REVERT JUMPDEST POP POP POP POP POP POP JUMP JUMPDEST PUSH1 0x0 PUSH2 0x1989 DUP3 DUP5 PUSH2 0x1E98 JUMP JUMPDEST SWAP4 SWAP3 POP POP POP JUMP JUMPDEST PUSH1 0x0 PUSH2 0x1989 DUP3 DUP5 PUSH2 0x1E79 JUMP JUMPDEST PUSH1 0x0 PUSH2 0x1989 DUP3 DUP5 PUSH2 0x1E57 JUMP JUMPDEST PUSH1 0x0 DUP3 PUSH1 0x1F DUP4 ADD SLT PUSH2 0x19B9 JUMPI PUSH1 0x0 DUP1 REVERT JUMPDEST DUP2 CALLDATALOAD PUSH1 0x20 PUSH2 0x19CE PUSH2 0x19C9 DUP4 PUSH2 0x1E1B JUMP JUMPDEST PUSH2 0x1DEA JUMP JUMPDEST DUP1 DUP4 DUP3 MSTORE DUP3 DUP3 ADD SWAP2 POP DUP3 DUP7 ADD DUP8 DUP5 DUP7 PUSH1 0x5 SHL DUP10 ADD ADD GT ISZERO PUSH2 0x19EE JUMPI PUSH1 0x0 DUP1 REVERT JUMPDEST PUSH1 0x0 JUMPDEST DUP6 DUP2 LT ISZERO PUSH2 0x1A16 JUMPI DUP2 CALLDATALOAD PUSH2 0x1A04 DUP2 PUSH2 0x1F3C JUMP JUMPDEST DUP5 MSTORE SWAP3 DUP5 ADD SWAP3 SWAP1 DUP5 ADD SWAP1 PUSH1 0x1 ADD PUSH2 0x19F1 JUMP JUMPDEST POP SWAP1 SWAP8 SWAP7 POP POP POP POP POP POP POP JUMP JUMPDEST PUSH1 0x0 DUP3 PUSH1 0x1F DUP4 ADD SLT PUSH2 0x1A34 JUMPI PUSH1 0x0 DUP1 REVERT JUMPDEST DUP2 CALLDATALOAD PUSH1 0x20 PUSH2 0x1A44 PUSH2 0x19C9 DUP4 PUSH2 0x1E1B JUMP JUMPDEST DUP1 DUP4 DUP3 MSTORE DUP3 DUP3 ADD SWAP2 POP DUP3 DUP7 ADD DUP8 DUP5 DUP7 PUSH1 0x5 SHL DUP10 ADD ADD GT ISZERO PUSH2 0x1A64 JUMPI PUSH1 0x0 DUP1 REVERT JUMPDEST PUSH1 0x0 JUMPDEST DUP6 DUP2 LT ISZERO PUSH2 0x1A16 JUMPI DUP2 CALLDATALOAD DUP5 MSTORE SWAP3 DUP5 ADD SWAP3 SWAP1 DUP5 ADD SWAP1 PUSH1 0x1 ADD PUSH2 0x1A67 JUMP JUMPDEST PUSH1 0x0 PUSH1 0x20 DUP3 DUP5 SUB SLT ISZERO PUSH2 0x1A95 JUMPI PUSH1 0x0 DUP1 REVERT JUMPDEST DUP2 CALLDATALOAD PUSH2 0x1989 DUP2 PUSH2 0x1F3C JUMP JUMPDEST PUSH1 0x0 PUSH1 0x20 DUP3 DUP5 SUB SLT ISZERO PUSH2 0x1AB2 JUMPI PUSH1 0x0 DUP1 REVERT JUMPDEST DUP2 MLOAD PUSH2 0x1989 DUP2 PUSH2 0x1F3C JUMP JUMPDEST PUSH1 0x0 DUP1 PUSH1 0x40 DUP4 DUP6 SUB SLT ISZERO PUSH2 0x1AD0 JUMPI PUSH1 0x0 DUP1 REVERT JUMPDEST DUP3 CALLDATALOAD PUSH8 0xFFFFFFFFFFFFFFFF DUP1 DUP3 GT ISZERO PUSH2 0x1AE8 JUMPI PUSH1 0x0 DUP1 REVERT JUMPDEST PUSH2 0x1AF4 DUP7 DUP4 DUP8 ADD PUSH2 0x1A23 JUMP JUMPDEST SWAP4 POP PUSH1 0x20 DUP6 ADD CALLDATALOAD SWAP2 POP DUP1 DUP3 GT ISZERO PUSH2 0x1B0A JUMPI PUSH1 0x0 DUP1 REVERT JUMPDEST POP PUSH2 0x1B17 DUP6 DUP3 DUP7 ADD PUSH2 0x19A8 JUMP JUMPDEST SWAP2 POP POP SWAP3 POP SWAP3 SWAP1 POP JUMP JUMPDEST PUSH1 0x0 DUP1 PUSH1 0x0 PUSH1 0x60 DUP5 DUP7 SUB SLT ISZERO PUSH2 0x1B36 JUMPI PUSH1 0x0 DUP1 REVERT JUMPDEST DUP4 CALLDATALOAD PUSH8 0xFFFFFFFFFFFFFFFF DUP1 DUP3 GT ISZERO PUSH2 0x1B4E JUMPI PUSH1 0x0 DUP1 REVERT JUMPDEST PUSH2 0x1B5A DUP8 DUP4 DUP9 ADD PUSH2 0x1A23 JUMP JUMPDEST SWAP5 POP PUSH1 0x20 DUP7 ADD CALLDATALOAD SWAP2 POP DUP1 DUP3 GT ISZERO PUSH2 0x1B70 JUMPI PUSH1 0x0 DUP1 REVERT JUMPDEST POP PUSH2 0x1B7D DUP7 DUP3 DUP8 ADD PUSH2 0x19A8 JUMP JUMPDEST SWAP3 POP POP PUSH1 0x40 DUP5 ADD CALLDATALOAD SWAP1 POP SWAP3 POP SWAP3 POP SWAP3 JUMP JUMPDEST PUSH1 0x0 PUSH1 0x20 DUP3 DUP5 SUB SLT ISZERO PUSH2 0x1BA0 JUMPI PUSH1 0x0 DUP1 REVERT JUMPDEST DUP2 MLOAD DUP1 ISZERO ISZERO DUP2 EQ PUSH2 0x1989 JUMPI PUSH1 0x0 DUP1 REVERT JUMPDEST PUSH1 0x0 PUSH1 0x20 DUP1 DUP4 DUP6 SUB SLT ISZERO PUSH2 0x1BC3 JUMPI PUSH1 0x0 DUP1 REVERT JUMPDEST DUP3 CALLDATALOAD PUSH8 0xFFFFFFFFFFFFFFFF DUP1 DUP3 GT ISZERO PUSH2 0x1BDB JUMPI PUSH1 0x0 DUP1 REVERT JUMPDEST DUP2 DUP6 ADD SWAP2 POP DUP6 PUSH1 0x1F DUP4 ADD SLT PUSH2 0x1BEF JUMPI PUSH1 0x0 DUP1 REVERT JUMPDEST DUP2 CALLDATALOAD DUP2 DUP2 GT ISZERO PUSH2 0x1C01 JUMPI PUSH2 0x1C01 PUSH2 0x1F26 JUMP JUMPDEST PUSH2 0x1C13 PUSH1 0x1F DUP3 ADD PUSH1 0x1F NOT AND DUP6 ADD PUSH2 0x1DEA JUMP JUMPDEST SWAP2 POP DUP1 DUP3 MSTORE DUP7 DUP5 DUP3 DUP6 ADD ADD GT ISZERO PUSH2 0x1C29 JUMPI PUSH1 0x0 DUP1 REVERT JUMPDEST DUP1 DUP5 DUP5 ADD DUP6 DUP5 ADD CALLDATACOPY PUSH1 0x0 SWAP1 DUP3 ADD SWAP1 SWAP4 ADD SWAP3 SWAP1 SWAP3 MSTORE POP SWAP4 SWAP3 POP POP POP JUMP JUMPDEST PUSH1 0x0 PUSH1 0x20 DUP3 DUP5 SUB SLT ISZERO PUSH2 0x1C57 JUMPI PUSH1 0x0 DUP1 REVERT JUMPDEST POP CALLDATALOAD SWAP2 SWAP1 POP JUMP JUMPDEST PUSH1 0x0 PUSH1 0x20 DUP3 DUP5 SUB SLT ISZERO PUSH2 0x1C70 JUMPI PUSH1 0x0 DUP1 REVERT JUMPDEST POP MLOAD SWAP2 SWAP1 POP JUMP JUMPDEST PUSH1 0x0 DUP1 PUSH1 0x40 DUP4 DUP6 SUB SLT ISZERO PUSH2 0x1C8A JUMPI PUSH1 0x0 DUP1 REVERT JUMPDEST DUP3 CALLDATALOAD SWAP2 POP PUSH1 0x20 DUP4 ADD CALLDATALOAD PUSH2 0x1C9C DUP2 PUSH2 0x1F3C JUMP JUMPDEST DUP1 SWAP2 POP POP SWAP3 POP SWAP3 SWAP1 POP JUMP JUMPDEST PUSH1 0x0 DUP3 MLOAD PUSH2 0x1CB9 DUP2 DUP5 PUSH1 0x20 DUP8 ADD PUSH2 0x1EAF JUMP JUMPDEST SWAP2 SWAP1 SWAP2 ADD SWAP3 SWAP2 POP POP JUMP JUMPDEST PUSH1 0x20 DUP1 DUP3 MSTORE DUP2 DUP2 ADD MSTORE PUSH32 0x4F776E61626C653A2063616C6C6572206973206E6F7420746865206F776E6572 PUSH1 0x40 DUP3 ADD MSTORE PUSH1 0x60 ADD SWAP1 JUMP JUMPDEST PUSH1 0x20 DUP1 DUP3 MSTORE PUSH1 0x12 SWAP1 DUP3 ADD MSTORE PUSH18 0x119D5B98DD1A5BDB881A5CC81B1BD8DAD959 PUSH1 0x72 SHL PUSH1 0x40 DUP3 ADD MSTORE PUSH1 0x60 ADD SWAP1 JUMP JUMPDEST PUSH1 0x20 DUP1 DUP3 MSTORE PUSH1 0x35 SWAP1 DUP3 ADD MSTORE PUSH32 0x6F70657261746F723A2063616C6C6572206973206E6F7420616C6C6F77656420 PUSH1 0x40 DUP3 ADD MSTORE PUSH21 0x3A379031B0B636103A3434B990333AB731BA34B7B7 PUSH1 0x59 SHL PUSH1 0x60 DUP3 ADD MSTORE PUSH1 0x80 ADD SWAP1 JUMP JUMPDEST PUSH1 0x0 PUSH1 0xA0 DUP3 ADD DUP8 DUP4 MSTORE PUSH1 0x20 DUP8 DUP2 DUP6 ADD MSTORE PUSH1 0xA0 PUSH1 0x40 DUP6 ADD MSTORE DUP2 DUP8 MLOAD DUP1 DUP5 MSTORE PUSH1 0xC0 DUP7 ADD SWAP2 POP DUP3 DUP10 ADD SWAP4 POP PUSH1 0x0 JUMPDEST DUP2 DUP2 LT ISZERO PUSH2 0x1DC9 JUMPI DUP5 MLOAD PUSH1 0x1 PUSH1 0x1 PUSH1 0xA0 SHL SUB AND DUP4 MSTORE SWAP4 DUP4 ADD SWAP4 SWAP2 DUP4 ADD SWAP2 PUSH1 0x1 ADD PUSH2 0x1DA4 JUMP JUMPDEST POP POP PUSH1 0x1 PUSH1 0x1 PUSH1 0xA0 SHL SUB SWAP7 SWAP1 SWAP7 AND PUSH1 0x60 DUP6 ADD MSTORE POP POP POP PUSH1 0x80 ADD MSTORE SWAP4 SWAP3 POP POP POP JUMP JUMPDEST PUSH1 0x40 MLOAD PUSH1 0x1F DUP3 ADD PUSH1 0x1F NOT AND DUP2 ADD PUSH8 0xFFFFFFFFFFFFFFFF DUP2 GT DUP3 DUP3 LT OR ISZERO PUSH2 0x1E13 JUMPI PUSH2 0x1E13 PUSH2 0x1F26 JUMP JUMPDEST PUSH1 0x40 MSTORE SWAP2 SWAP1 POP JUMP JUMPDEST PUSH1 0x0 PUSH8 0xFFFFFFFFFFFFFFFF DUP3 GT ISZERO PUSH2 0x1E35 JUMPI PUSH2 0x1E35 PUSH2 0x1F26 JUMP JUMPDEST POP PUSH1 0x5 SHL PUSH1 0x20 ADD SWAP1 JUMP JUMPDEST PUSH1 0x0 DUP3 NOT DUP3 GT ISZERO PUSH2 0x1E52 JUMPI PUSH2 0x1E52 PUSH2 0x1EFA JUMP JUMPDEST POP ADD SWAP1 JUMP JUMPDEST PUSH1 0x0 DUP3 PUSH2 0x1E74 JUMPI PUSH4 0x4E487B71 PUSH1 0xE0 SHL PUSH1 0x0 MSTORE PUSH1 0x12 PUSH1 0x4 MSTORE PUSH1 0x24 PUSH1 0x0 REVERT JUMPDEST POP DIV SWAP1 JUMP JUMPDEST PUSH1 0x0 DUP2 PUSH1 0x0 NOT DIV DUP4 GT DUP3 ISZERO ISZERO AND ISZERO PUSH2 0x1E93 JUMPI PUSH2 0x1E93 PUSH2 0x1EFA JUMP JUMPDEST POP MUL SWAP1 JUMP JUMPDEST PUSH1 0x0 DUP3 DUP3 LT ISZERO PUSH2 0x1EAA JUMPI PUSH2 0x1EAA PUSH2 0x1EFA JUMP JUMPDEST POP SUB SWAP1 JUMP JUMPDEST PUSH1 0x0 JUMPDEST DUP4 DUP2 LT ISZERO PUSH2 0x1ECA JUMPI DUP2 DUP2 ADD MLOAD DUP4 DUP3 ADD MSTORE PUSH1 0x20 ADD PUSH2 0x1EB2 JUMP JUMPDEST DUP4 DUP2 GT ISZERO PUSH2 0x1ED9 JUMPI PUSH1 0x0 DUP5 DUP5 ADD MSTORE JUMPDEST POP POP POP POP JUMP JUMPDEST PUSH1 0x0 PUSH1 0x0 NOT DUP3 EQ ISZERO PUSH2 0x1EF3 JUMPI PUSH2 0x1EF3 PUSH2 0x1EFA JUMP JUMPDEST POP PUSH1 0x1 ADD SWAP1 JUMP JUMPDEST PUSH4 0x4E487B71 PUSH1 0xE0 SHL PUSH1 0x0 MSTORE PUSH1 0x11 PUSH1 0x4 MSTORE PUSH1 0x24 PUSH1 0x0 REVERT JUMPDEST PUSH4 0x4E487B71 PUSH1 0xE0 SHL PUSH1 0x0 MSTORE PUSH1 0x32 PUSH1 0x4 MSTORE PUSH1 0x24 PUSH1 0x0 REVERT JUMPDEST PUSH4 0x4E487B71 PUSH1 0xE0 SHL PUSH1 0x0 MSTORE PUSH1 0x41 PUSH1 0x4 MSTORE PUSH1 0x24 PUSH1 0x0 REVERT JUMPDEST PUSH1 0x1 PUSH1 0x1 PUSH1 0xA0 SHL SUB DUP2 AND DUP2 EQ PUSH2 0x12C6 JUMPI PUSH1 0x0 DUP1 REVERT INVALID LOG2 PUSH5 0x6970667358 0x22 SLT KECCAK256 SWAP11 0xE1 0xC8 PUSH18 0x387B8397C3FC68BD8276145EDF945AA88E87 BYTE 0xF9 0xDA 0xAE 0xAF PUSH28 0x7383D5BB64736F6C634300080700334F776E61626C653A2063616C6C PUSH6 0x72206973206E PUSH16 0x7420746865206F776E65720000000000 "
				},
				"gasEstimates": {
					"creation": {
						"codeDepositCost": "1614200",
						"executionCost": "infinite",
						"totalCost": "infinite"
					},
					"external": {
						"_devWallet()": "2350",
						"_gasCost()": "2384",
						"_oracleWallet()": "2393",
						"_rewardToken()": "2459",
						"_rewards(address)": "2592",
						"_router()": "2415",
						"adjustGasCost(uint256)": "infinite",
						"changeOracleWallet(address)": "infinite",
						"claim()": "infinite",
						"getBalance()": "infinite",
						"isLockEnabled()": "2416",
						"lockFunction(string)": "infinite",
						"maintainer()": "2343",
						"owner()": "2453",
						"renounceOwnership()": "28159",
						"sendRewardAndAdjustGasCost(uint256[],address[],uint256)": "infinite",
						"sendRewards(uint256[],address[])": "infinite",
						"sendRewardsAsEth(uint256,address)": "infinite",
						"setMaintainer(address)": "infinite",
						"setRouter(address)": "26750",
						"setTimelockEnabled()": "29529",
						"timelock(string)": "infinite",
						"transferOwnership(address)": "infinite",
						"unlockFunction(string)": "infinite",
						"updateRewardToken(address)": "infinite"
					},
					"internal": {
						"swapTokensForEth(uint256)": "infinite"
					}
				},
				"methodIdentifiers": {
					"_devWallet()": "11a63e17",
					"_gasCost()": "7ef189f8",
					"_oracleWallet()": "a221a15f",
					"_rewardToken()": "b59c6e0e",
					"_rewards(address)": "7d6dfb7e",
					"_router()": "edae876f",
					"adjustGasCost(uint256)": "87df241f",
					"changeOracleWallet(address)": "63cd79b7",
					"claim()": "4e71d92d",
					"getBalance()": "12065fe0",
					"isLockEnabled()": "a347511a",
					"lockFunction(string)": "9f531156",
					"maintainer()": "9850d32b",
					"owner()": "8da5cb5b",
					"renounceOwnership()": "715018a6",
					"sendRewardAndAdjustGasCost(uint256[],address[],uint256)": "4a938f00",
					"sendRewards(uint256[],address[])": "478a55eb",
					"sendRewardsAsEth(uint256,address)": "d6e0ece2",
					"setMaintainer(address)": "13ea5d29",
					"setRouter(address)": "c0d78655",
					"setTimelockEnabled()": "f4762fd6",
					"timelock(string)": "f98080c0",
					"transferOwnership(address)": "f2fde38b",
					"unlockFunction(string)": "a607494a",
					"updateRewardToken(address)": "f8cf31cb"
				}
			},
			"storageLayout": {
				"storage": [
					{
						"astId": 7,
						"contract": "contracts/chains/polygon/RewardSystem.sol:RewardSystem",
						"label": "_owner",
						"offset": 0,
						"slot": "0",
						"type": "t_address"
					},
					{
						"astId": 2296,
						"contract": "contracts/chains/polygon/RewardSystem.sol:RewardSystem",
						"label": "isLockEnabled",
						"offset": 20,
						"slot": "0",
						"type": "t_bool"
					},
					{
						"astId": 2300,
						"contract": "contracts/chains/polygon/RewardSystem.sol:RewardSystem",
						"label": "timelock",
						"offset": 0,
						"slot": "1",
						"type": "t_mapping(t_string_memory_ptr,t_uint256)"
					},
					{
						"astId": 2305,
						"contract": "contracts/chains/polygon/RewardSystem.sol:RewardSystem",
						"label": "_maintainer",
						"offset": 0,
						"slot": "2",
						"type": "t_address"
					},
					{
						"astId": 1800,
						"contract": "contracts/chains/polygon/RewardSystem.sol:RewardSystem",
						"label": "_rewards",
						"offset": 0,
						"slot": "3",
						"type": "t_mapping(t_address,t_bool)"
					},
					{
						"astId": 1803,
						"contract": "contracts/chains/polygon/RewardSystem.sol:RewardSystem",
						"label": "_gasCost",
						"offset": 0,
						"slot": "4",
						"type": "t_uint256"
					},
					{
						"astId": 1806,
						"contract": "contracts/chains/polygon/RewardSystem.sol:RewardSystem",
						"label": "_oracleWallet",
						"offset": 0,
						"slot": "5",
						"type": "t_address"
					},
					{
						"astId": 1809,
						"contract": "contracts/chains/polygon/RewardSystem.sol:RewardSystem",
						"label": "_devWallet",
						"offset": 0,
						"slot": "6",
						"type": "t_address"
					},
					{
						"astId": 1812,
						"contract": "contracts/chains/polygon/RewardSystem.sol:RewardSystem",
						"label": "_rewardToken",
						"offset": 0,
						"slot": "7",
						"type": "t_contract(IERC20)727"
					},
					{
						"astId": 1818,
						"contract": "contracts/chains/polygon/RewardSystem.sol:RewardSystem",
						"label": "_router",
						"offset": 0,
						"slot": "8",
						"type": "t_contract(IUniswapV2Router02)1777"
					}
				],
				"types": {
					"t_address": {
						"encoding": "inplace",
						"label": "address",
						"numberOfBytes": "20"
					},
					"t_bool": {
						"encoding": "inplace",
						"label": "bool",
						"numberOfBytes": "1"
					},
					"t_contract(IERC20)727": {
						"encoding": "inplace",
						"label": "contract IERC20",
						"numberOfBytes": "20"
					},
					"t_contract(IUniswapV2Router02)1777": {
						"encoding": "inplace",
						"label": "contract IUniswapV2Router02",
						"numberOfBytes": "20"
					},
					"t_mapping(t_address,t_bool)": {
						"encoding": "mapping",
						"key": "t_address",
						"label": "mapping(address => bool)",
						"numberOfBytes": "32",
						"value": "t_bool"
					},
					"t_mapping(t_string_memory_ptr,t_uint256)": {
						"encoding": "mapping",
						"key": "t_string_memory_ptr",
						"label": "mapping(string => uint256)",
						"numberOfBytes": "32",
						"value": "t_uint256"
					},
					"t_string_memory_ptr": {
						"encoding": "bytes",
						"label": "string",
						"numberOfBytes": "32"
					},
					"t_uint256": {
						"encoding": "inplace",
						"label": "uint256",
						"numberOfBytes": "32"
					}
				}
			},
			"userdoc": {
				"kind": "user",
				"methods": {},
				"version": 1
			}
		}
	}
}