{
	"contracts/chains/polygon/RewardSystem.sol": {
		"RewardSystem": {
			"abi": [
				{
					"inputs": [
						{
							"internalType": "contract IERC20",
							"name": "rewardToken",
							"type": "address"
						}
					],
					"stateMutability": "nonpayable",
					"type": "constructor"
				},
				{
					"anonymous": false,
					"inputs": [
						{
							"indexed": true,
							"internalType": "uint256",
							"name": "previousCost",
							"type": "uint256"
						},
						{
							"indexed": true,
							"internalType": "uint256",
							"name": "cost",
							"type": "uint256"
						}
					],
					"name": "ChangedGasCost",
					"type": "event"
				},
				{
					"anonymous": false,
					"inputs": [
						{
							"indexed": true,
							"internalType": "uint256",
							"name": "previousAmount",
							"type": "uint256"
						},
						{
							"indexed": true,
							"internalType": "uint256",
							"name": "amount",
							"type": "uint256"
						}
					],
					"name": "ChangedMaxAmountPerReceive",
					"type": "event"
				},
				{
					"anonymous": false,
					"inputs": [
						{
							"indexed": true,
							"internalType": "address",
							"name": "previousAddress",
							"type": "address"
						},
						{
							"indexed": true,
							"internalType": "address",
							"name": "newAddress",
							"type": "address"
						}
					],
					"name": "ChangedOracleWallet",
					"type": "event"
				},
				{
					"anonymous": false,
					"inputs": [
						{
							"indexed": true,
							"internalType": "address",
							"name": "previousToken",
							"type": "address"
						},
						{
							"indexed": true,
							"internalType": "address",
							"name": "newToken",
							"type": "address"
						}
					],
					"name": "ChangedRewardToken",
					"type": "event"
				},
				{
					"anonymous": false,
					"inputs": [
						{
							"indexed": true,
							"internalType": "address",
							"name": "owner",
							"type": "address"
						}
					],
					"name": "EmergencyWithdraw",
					"type": "event"
				},
				{
					"anonymous": false,
					"inputs": [],
					"name": "EnabledLock",
					"type": "event"
				},
				{
					"anonymous": false,
					"inputs": [
						{
							"indexed": true,
							"internalType": "address",
							"name": "owner",
							"type": "address"
						}
					],
					"name": "EnabledRewards",
					"type": "event"
				},
				{
					"anonymous": false,
					"inputs": [
						{
							"indexed": true,
							"internalType": "address",
							"name": "previousMaintainer",
							"type": "address"
						},
						{
							"indexed": true,
							"internalType": "address",
							"name": "newMaintainer",
							"type": "address"
						}
					],
					"name": "MaintainerTransferred",
					"type": "event"
				},
				{
					"anonymous": false,
					"inputs": [
						{
							"indexed": true,
							"internalType": "address",
							"name": "previousOwner",
							"type": "address"
						},
						{
							"indexed": true,
							"internalType": "address",
							"name": "newOwner",
							"type": "address"
						}
					],
					"name": "OwnershipTransferred",
					"type": "event"
				},
				{
					"anonymous": false,
					"inputs": [
						{
							"indexed": true,
							"internalType": "address",
							"name": "owner",
							"type": "address"
						},
						{
							"indexed": true,
							"internalType": "uint256",
							"name": "amount",
							"type": "uint256"
						}
					],
					"name": "SentRewards",
					"type": "event"
				},
				{
					"anonymous": false,
					"inputs": [
						{
							"indexed": true,
							"internalType": "address",
							"name": "owner",
							"type": "address"
						},
						{
							"indexed": true,
							"internalType": "uint256",
							"name": "amount",
							"type": "uint256"
						},
						{
							"indexed": true,
							"internalType": "uint256",
							"name": "fees",
							"type": "uint256"
						}
					],
					"name": "SentRewardsETH",
					"type": "event"
				},
				{
					"anonymous": false,
					"inputs": [
						{
							"indexed": true,
							"internalType": "string",
							"name": "functionName",
							"type": "string"
						},
						{
							"indexed": true,
							"internalType": "uint256",
							"name": "unlockedAt",
							"type": "uint256"
						}
					],
					"name": "UnlockedFunction",
					"type": "event"
				},
				{
					"inputs": [
						{
							"internalType": "address",
							"name": "",
							"type": "address"
						}
					],
					"name": "_claimTimes",
					"outputs": [
						{
							"internalType": "uint256",
							"name": "",
							"type": "uint256"
						}
					],
					"stateMutability": "view",
					"type": "function"
				},
				{
					"inputs": [],
					"name": "_devWallet",
					"outputs": [
						{
							"internalType": "address",
							"name": "",
							"type": "address"
						}
					],
					"stateMutability": "view",
					"type": "function"
				},
				{
					"inputs": [],
					"name": "_gasCost",
					"outputs": [
						{
							"internalType": "uint256",
							"name": "",
							"type": "uint256"
						}
					],
					"stateMutability": "view",
					"type": "function"
				},
				{
					"inputs": [],
					"name": "_maxAmountPerReceive",
					"outputs": [
						{
							"internalType": "uint256",
							"name": "",
							"type": "uint256"
						}
					],
					"stateMutability": "view",
					"type": "function"
				},
				{
					"inputs": [],
					"name": "_oracleWallet",
					"outputs": [
						{
							"internalType": "address",
							"name": "",
							"type": "address"
						}
					],
					"stateMutability": "view",
					"type": "function"
				},
				{
					"inputs": [],
					"name": "_rewardToken",
					"outputs": [
						{
							"internalType": "contract IERC20",
							"name": "",
							"type": "address"
						}
					],
					"stateMutability": "view",
					"type": "function"
				},
				{
					"inputs": [
						{
							"internalType": "address",
							"name": "",
							"type": "address"
						}
					],
					"name": "_rewards",
					"outputs": [
						{
							"internalType": "bool",
							"name": "",
							"type": "bool"
						}
					],
					"stateMutability": "view",
					"type": "function"
				},
				{
					"inputs": [],
					"name": "_router",
					"outputs": [
						{
							"internalType": "contract IUniswapV2Router02",
							"name": "",
							"type": "address"
						}
					],
					"stateMutability": "view",
					"type": "function"
				},
				{
					"inputs": [],
					"name": "_timeBetweenClaims",
					"outputs": [
						{
							"internalType": "uint256",
							"name": "",
							"type": "uint256"
						}
					],
					"stateMutability": "view",
					"type": "function"
				},
				{
					"inputs": [
						{
							"internalType": "uint256",
							"name": "gasCost",
							"type": "uint256"
						}
					],
					"name": "adjustGasCost",
					"outputs": [],
					"stateMutability": "nonpayable",
					"type": "function"
				},
				{
					"inputs": [
						{
							"internalType": "uint256",
							"name": "newAmount",
							"type": "uint256"
						}
					],
					"name": "adjustMaxAmountPerReceive",
					"outputs": [],
					"stateMutability": "nonpayable",
					"type": "function"
				},
				{
					"inputs": [
						{
							"internalType": "address",
							"name": "user",
							"type": "address"
						}
					],
					"name": "canClaim",
					"outputs": [
						{
							"internalType": "bool",
							"name": "",
							"type": "bool"
						}
					],
					"stateMutability": "view",
					"type": "function"
				},
				{
					"inputs": [
						{
							"internalType": "address",
							"name": "user",
							"type": "address"
						}
					],
					"name": "canClaimNative",
					"outputs": [
						{
							"internalType": "bool",
							"name": "",
							"type": "bool"
						}
					],
					"stateMutability": "view",
					"type": "function"
				},
				{
					"inputs": [
						{
							"internalType": "address",
							"name": "oracleWallet",
							"type": "address"
						}
					],
					"name": "changeOracleWallet",
					"outputs": [],
					"stateMutability": "nonpayable",
					"type": "function"
				},
				{
					"inputs": [],
					"name": "claim",
					"outputs": [],
					"stateMutability": "payable",
					"type": "function"
				},
				{
					"inputs": [],
					"name": "emergencyWithdraw",
					"outputs": [],
					"stateMutability": "nonpayable",
					"type": "function"
				},
				{
					"inputs": [],
					"name": "getBalance",
					"outputs": [
						{
							"internalType": "uint256",
							"name": "",
							"type": "uint256"
						}
					],
					"stateMutability": "view",
					"type": "function"
				},
				{
					"inputs": [],
					"name": "getEthBalance",
					"outputs": [
						{
							"internalType": "uint256",
							"name": "",
							"type": "uint256"
						}
					],
					"stateMutability": "view",
					"type": "function"
				},
				{
					"inputs": [],
					"name": "isLockEnabled",
					"outputs": [
						{
							"internalType": "bool",
							"name": "",
							"type": "bool"
						}
					],
					"stateMutability": "view",
					"type": "function"
				},
				{
					"inputs": [
						{
							"internalType": "string",
							"name": "_fn",
							"type": "string"
						}
					],
					"name": "lockFunction",
					"outputs": [],
					"stateMutability": "nonpayable",
					"type": "function"
				},
				{
					"inputs": [],
					"name": "maintainer",
					"outputs": [
						{
							"internalType": "address",
							"name": "",
							"type": "address"
						}
					],
					"stateMutability": "view",
					"type": "function"
				},
				{
					"inputs": [],
					"name": "owner",
					"outputs": [
						{
							"internalType": "address",
							"name": "",
							"type": "address"
						}
					],
					"stateMutability": "view",
					"type": "function"
				},
				{
					"inputs": [],
					"name": "renounceOwnership",
					"outputs": [],
					"stateMutability": "nonpayable",
					"type": "function"
				},
				{
					"inputs": [
						{
							"internalType": "uint256[]",
							"name": "amounts",
							"type": "uint256[]"
						},
						{
							"internalType": "address[]",
							"name": "addresses",
							"type": "address[]"
						},
						{
							"internalType": "uint256",
							"name": "gasCost",
							"type": "uint256"
						}
					],
					"name": "sendRewardAndAdjustGasCost",
					"outputs": [],
					"stateMutability": "nonpayable",
					"type": "function"
				},
				{
					"inputs": [
						{
							"internalType": "uint256[]",
							"name": "amounts",
							"type": "uint256[]"
						},
						{
							"internalType": "address[]",
							"name": "addresses",
							"type": "address[]"
						}
					],
					"name": "sendRewards",
					"outputs": [],
					"stateMutability": "nonpayable",
					"type": "function"
				},
				{
					"inputs": [
						{
							"internalType": "uint256",
							"name": "amount",
							"type": "uint256"
						},
						{
							"internalType": "address",
							"name": "user",
							"type": "address"
						}
					],
					"name": "sendRewardsAsEth",
					"outputs": [],
					"stateMutability": "nonpayable",
					"type": "function"
				},
				{
					"inputs": [
						{
							"internalType": "address",
							"name": "_newMaintainer",
							"type": "address"
						}
					],
					"name": "setMaintainer",
					"outputs": [],
					"stateMutability": "nonpayable",
					"type": "function"
				},
				{
					"inputs": [
						{
							"internalType": "contract IUniswapV2Router02",
							"name": "router",
							"type": "address"
						}
					],
					"name": "setRouter",
					"outputs": [],
					"stateMutability": "nonpayable",
					"type": "function"
				},
				{
					"inputs": [],
					"name": "setTimelockEnabled",
					"outputs": [],
					"stateMutability": "nonpayable",
					"type": "function"
				},
				{
					"inputs": [
						{
							"internalType": "string",
							"name": "",
							"type": "string"
						}
					],
					"name": "timelock",
					"outputs": [
						{
							"internalType": "uint256",
							"name": "",
							"type": "uint256"
						}
					],
					"stateMutability": "view",
					"type": "function"
				},
				{
					"inputs": [
						{
							"internalType": "address",
							"name": "newOwner",
							"type": "address"
						}
					],
					"name": "transferOwnership",
					"outputs": [],
					"stateMutability": "nonpayable",
					"type": "function"
				},
				{
					"inputs": [
						{
							"internalType": "string",
							"name": "_fn",
							"type": "string"
						}
					],
					"name": "unlockFunction",
					"outputs": [],
					"stateMutability": "nonpayable",
					"type": "function"
				},
				{
					"inputs": [
						{
							"internalType": "contract IERC20",
							"name": "rewardToken",
							"type": "address"
						}
					],
					"name": "updateRewardToken",
					"outputs": [],
					"stateMutability": "nonpayable",
					"type": "function"
				},
				{
					"stateMutability": "payable",
					"type": "receive"
				}
			],
			"devdoc": {
				"kind": "dev",
				"methods": {
					"owner()": {
						"details": "Returns the address of the current owner."
					},
					"renounceOwnership()": {
						"details": "Leaves the contract without owner. It will not be possible to call `onlyOwner` functions anymore. Can only be called by the current owner. NOTE: Renouncing ownership will leave the contract without an owner, thereby removing any functionality that is only available to the owner."
					},
					"transferOwnership(address)": {
						"details": "Transfers ownership of the contract to a new account (`newOwner`). Can only be called by the current owner."
					}
				},
				"version": 1
			},
			"evm": {
				"assembly": "    /* \"contracts/chains/polygon/RewardSystem.sol\":442:8281  contract RewardSystem is Ownable, TimeLock {... */\n  mstore(0x40, 0x80)\n    /* \"contracts/libraries/TimeLock.sol\":765:770  false */\n  0x00\n    /* \"contracts/libraries/TimeLock.sol\":737:770  bool public isLockEnabled = false */\n  dup1\n  sload\n  not(shl(0xa0, 0xff))\n  and\n  swap1\n  sstore\n    /* \"contracts/chains/polygon/RewardSystem.sol\":1000:1007  50 gwei */\n  0x0ba43b7400\n    /* \"contracts/chains/polygon/RewardSystem.sol\":974:1007  uint256 public _gasCost = 50 gwei */\n  0x05\n  sstore\n    /* \"contracts/chains/polygon/RewardSystem.sol\":1018:1091  address public _oracleWallet = 0x76049b7cAaB30b8bBBdcfF3A1059d9147dBF7B19 */\n  0x06\n  dup1\n  sload\n  not(sub(shl(0xa0, 0x01), 0x01))\n  swap1\n  dup2\n  and\n    /* \"contracts/chains/polygon/RewardSystem.sol\":1049:1091  0x76049b7cAaB30b8bBBdcfF3A1059d9147dBF7B19 */\n  0x76049b7caab30b8bbbdcff3a1059d9147dbf7b19\n    /* \"contracts/chains/polygon/RewardSystem.sol\":1018:1091  address public _oracleWallet = 0x76049b7cAaB30b8bBBdcfF3A1059d9147dBF7B19 */\n  or\n  swap1\n  swap2\n  sstore\n    /* \"contracts/chains/polygon/RewardSystem.sol\":1097:1167  address public _devWallet = 0xc559aCc356D3037EC6dbc33a20587051188b8634 */\n  0x07\n  dup1\n  sload\n  dup3\n  and\n    /* \"contracts/chains/polygon/RewardSystem.sol\":1125:1167  0xc559aCc356D3037EC6dbc33a20587051188b8634 */\n  0xc559acc356d3037ec6dbc33a20587051188b8634\n    /* \"contracts/chains/polygon/RewardSystem.sol\":1097:1167  address public _devWallet = 0xc559aCc356D3037EC6dbc33a20587051188b8634 */\n  or\n  swap1\n  sstore\n    /* \"contracts/chains/polygon/RewardSystem.sol\":1252:1266  10000000 ether */\n  0x084595161401484a000000\n    /* \"contracts/chains/polygon/RewardSystem.sol\":1214:1266  uint256 public _maxAmountPerReceive = 10000000 ether */\n  0x09\n  sstore\n    /* \"contracts/chains/polygon/RewardSystem.sol\":1308:1314  1 days */\n  0x015180\n    /* \"contracts/chains/polygon/RewardSystem.sol\":1272:1314  uint256 public _timeBetweenClaims = 1 days */\n  0x0a\n  sstore\n    /* \"contracts/chains/polygon/RewardSystem.sol\":1325:1423  IUniswapV2Router02 public _router = IUniswapV2Router02(0xbdd4e5660839a088573191A9889A262c0Efc0983) */\n  0x0b\n  dup1\n  sload\n  swap1\n  swap2\n  and\n    /* \"contracts/chains/polygon/RewardSystem.sol\":1380:1422  0xbdd4e5660839a088573191A9889A262c0Efc0983 */\n  0xbdd4e5660839a088573191a9889a262c0efc0983\n    /* \"contracts/chains/polygon/RewardSystem.sol\":1325:1423  IUniswapV2Router02 public _router = IUniswapV2Router02(0xbdd4e5660839a088573191A9889A262c0Efc0983) */\n  or\n  swap1\n  sstore\n    /* \"contracts/chains/polygon/RewardSystem.sol\":2366:2484  constructor(IERC20 rewardToken) {... */\n  callvalue\n  dup1\n  iszero\n  tag_1\n  jumpi\n  0x00\n  dup1\n  revert\ntag_1:\n  pop\n  mload(0x40)\n  sub(codesize, bytecodeSize)\n  dup1\n  bytecodeSize\n  dup4\n  codecopy\n  dup2\n  add\n  0x40\n  dup2\n  swap1\n  mstore\n  tag_2\n  swap2\n  tag_3\n  jump\t// in\ntag_2:\n    /* \"@openzeppelin/contracts/access/Ownable.sol\":867:890  _setOwner(_msgSender()) */\n  tag_8\n    /* \"@openzeppelin/contracts/utils/Context.sol\":665:675  msg.sender */\n  caller\n    /* \"@openzeppelin/contracts/access/Ownable.sol\":867:876  _setOwner */\n  tag_11\n    /* \"@openzeppelin/contracts/access/Ownable.sol\":867:890  _setOwner(_msgSender()) */\n  jump\t// in\ntag_8:\n    /* \"contracts/libraries/TimeLock.sol\":2409:2420  _maintainer */\n  0x02\n    /* \"contracts/libraries/TimeLock.sol\":2409:2433  _maintainer = msg.sender */\n  dup1\n  sload\n  not(sub(shl(0xa0, 0x01), 0x01))\n  swap1\n  dup2\n  and\n    /* \"contracts/libraries/TimeLock.sol\":2423:2433  msg.sender */\n  caller\n    /* \"contracts/libraries/TimeLock.sol\":2409:2433  _maintainer = msg.sender */\n  or\n  swap1\n  swap2\n  sstore\n    /* \"contracts/chains/polygon/RewardSystem.sol\":2408:2420  _rewardToken */\n  0x08\n    /* \"contracts/chains/polygon/RewardSystem.sol\":2408:2434  _rewardToken = rewardToken */\n  dup1\n  sload\n  sub(shl(0xa0, 0x01), 0x01)\n  dup5\n  dup2\n  and\n  swap2\n  swap1\n  swap4\n  and\n  or\n  swap1\n  sstore\n    /* \"contracts/chains/polygon/RewardSystem.sol\":2463:2476  _oracleWallet */\n  sload(0x06)\n    /* \"contracts/chains/polygon/RewardSystem.sol\":2444:2477  changeOracleWallet(_oracleWallet) */\n  tag_14\n  swap2\n    /* \"contracts/chains/polygon/RewardSystem.sol\":2463:2476  _oracleWallet */\n  and\n    /* \"contracts/chains/polygon/RewardSystem.sol\":2444:2462  changeOracleWallet */\n  tag_15\n    /* \"contracts/chains/polygon/RewardSystem.sol\":2444:2477  changeOracleWallet(_oracleWallet) */\n  jump\t// in\ntag_14:\n    /* \"contracts/chains/polygon/RewardSystem.sol\":2366:2484  constructor(IERC20 rewardToken) {... */\n  pop\n    /* \"contracts/chains/polygon/RewardSystem.sol\":442:8281  contract RewardSystem is Ownable, TimeLock {... */\n  jump(tag_63)\n    /* \"@openzeppelin/contracts/access/Ownable.sol\":2041:2210  function _setOwner(address newOwner) private {... */\ntag_11:\n    /* \"@openzeppelin/contracts/access/Ownable.sol\":2096:2112  address oldOwner */\n  0x00\n    /* \"@openzeppelin/contracts/access/Ownable.sol\":2115:2121  _owner */\n  dup1\n  sload\n  sub(shl(0xa0, 0x01), 0x01)\n    /* \"@openzeppelin/contracts/access/Ownable.sol\":2131:2148  _owner = newOwner */\n  dup4\n  dup2\n  and\n  not(sub(shl(0xa0, 0x01), 0x01))\n  dup4\n  and\n  dup2\n  or\n  dup5\n  sstore\n    /* \"@openzeppelin/contracts/access/Ownable.sol\":2163:2203  OwnershipTransferred(oldOwner, newOwner) */\n  mload(0x40)\n    /* \"@openzeppelin/contracts/access/Ownable.sol\":2115:2121  _owner */\n  swap2\n  swap1\n  swap3\n  and\n  swap3\n  dup4\n  swap2\n    /* \"@openzeppelin/contracts/access/Ownable.sol\":2163:2203  OwnershipTransferred(oldOwner, newOwner) */\n  0x8be0079c531659141344cd1fd0a4f28419497f9722a3daafe3b4186f6b6457e0\n  swap2\n    /* \"@openzeppelin/contracts/access/Ownable.sol\":2096:2112  address oldOwner */\n  swap1\n    /* \"@openzeppelin/contracts/access/Ownable.sol\":2163:2203  OwnershipTransferred(oldOwner, newOwner) */\n  log3\n    /* \"@openzeppelin/contracts/access/Ownable.sol\":2086:2210  {... */\n  pop\n    /* \"@openzeppelin/contracts/access/Ownable.sol\":2041:2210  function _setOwner(address newOwner) private {... */\n  pop\n  jump\t// out\n    /* \"contracts/chains/polygon/RewardSystem.sol\":4432:4715  function changeOracleWallet(address oracleWallet) public onlyOwner locked(\"changeOracleWallet\") {... */\ntag_15:\n    /* \"@openzeppelin/contracts/access/Ownable.sol\":1019:1026  address */\n  0x00\n    /* \"@openzeppelin/contracts/access/Ownable.sol\":1045:1051  _owner */\n  sload\n  sub(shl(0xa0, 0x01), 0x01)\n  and\n    /* \"@openzeppelin/contracts/utils/Context.sol\":665:675  msg.sender */\n  caller\n    /* \"@openzeppelin/contracts/access/Ownable.sol\":1185:1208  owner() == _msgSender() */\n  eq\n    /* \"@openzeppelin/contracts/access/Ownable.sol\":1177:1245  require(owner() == _msgSender(), \"Ownable: caller is not the owner\") */\n  tag_23\n  jumpi\n  mload(0x40)\n  shl(0xe5, 0x461bcd)\n  dup2\n  mstore\n    /* \"#utility.yul\":1365:1367   */\n  0x20\n    /* \"@openzeppelin/contracts/access/Ownable.sol\":1177:1245  require(owner() == _msgSender(), \"Ownable: caller is not the owner\") */\n  0x04\n  dup3\n  add\n    /* \"#utility.yul\":1347:1368   */\n  dup2\n  swap1\n  mstore\n    /* \"#utility.yul\":1384:1402   */\n  0x24\n  dup3\n  add\n    /* \"#utility.yul\":1377:1407   */\n  mstore\n  0x00\n  dup1\n  mload\n  0x20\n  data_9924ebdf1add33d25d4ef888e16131f0a5687b0580a36c21b5c301a6c462effe\n  dup4\n  codecopy\n  dup2\n  mload\n  swap2\n  mstore\n    /* \"#utility.yul\":1423:1441   */\n  0x44\n  dup3\n  add\n    /* \"#utility.yul\":1416:1478   */\n  mstore\n    /* \"#utility.yul\":1495:1513   */\n  0x64\n  add\n    /* \"@openzeppelin/contracts/access/Ownable.sol\":1177:1245  require(owner() == _msgSender(), \"Ownable: caller is not the owner\") */\ntag_24:\n  mload(0x40)\n  dup1\n  swap2\n  sub\n  swap1\n  revert\ntag_23:\n    /* \"contracts/libraries/TimeLock.sol\":1945:2188  modifier locked(string memory _fn) {... */\n  0x40\n  dup1\n  mload\n  dup1\n  dup3\n  add\n  swap1\n  swap2\n  mstore\n  0x12\n  dup2\n  mstore\n  shl(0x72, 0x18da185b99d953dc9858db1955d85b1b195d)\n  0x20\n  dup3\n  add\n  mstore\n  0x00\n    /* \"contracts/libraries/TimeLock.sol\":1999:2012  isLockEnabled */\n  sload\n  shl(0xa0, 0x01)\n  swap1\n  div\n  0xff\n  and\n    /* \"contracts/libraries/TimeLock.sol\":1998:2012  !isLockEnabled */\n  iszero\n  dup1\n    /* \"contracts/libraries/TimeLock.sol\":1998:2120  !isLockEnabled || (timelock[_fn] != 0 && timelock[_fn] <= block.timestamp && timelock[_fn] + _TIMELOCK >= block.timestamp) */\n  tag_32\n  jumpi\n  pop\n    /* \"contracts/libraries/TimeLock.sol\":2017:2025  timelock */\n  0x01\n    /* \"contracts/libraries/TimeLock.sol\":2026:2029  _fn */\n  dup2\n    /* \"contracts/libraries/TimeLock.sol\":2017:2030  timelock[_fn] */\n  mload(0x40)\n  tag_28\n  swap2\n  swap1\n  tag_29\n  jump\t// in\ntag_28:\n  swap1\n  dup2\n  mstore\n  0x20\n  add\n  mload(0x40)\n  dup1\n  swap2\n  sub\n  swap1\n  keccak256\n  sload\n    /* \"contracts/libraries/TimeLock.sol\":2034:2035  0 */\n  0x00\n    /* \"contracts/libraries/TimeLock.sol\":2017:2035  timelock[_fn] != 0 */\n  eq\n  iszero\n    /* \"contracts/libraries/TimeLock.sol\":2017:2071  timelock[_fn] != 0 && timelock[_fn] <= block.timestamp */\n  dup1\n  iszero\n  tag_30\n  jumpi\n  pop\n    /* \"contracts/libraries/TimeLock.sol\":2056:2071  block.timestamp */\n  timestamp\n    /* \"contracts/libraries/TimeLock.sol\":2039:2047  timelock */\n  0x01\n    /* \"contracts/libraries/TimeLock.sol\":2048:2051  _fn */\n  dup3\n    /* \"contracts/libraries/TimeLock.sol\":2039:2052  timelock[_fn] */\n  mload(0x40)\n  tag_31\n  swap2\n  swap1\n  tag_29\n  jump\t// in\ntag_31:\n  swap1\n  dup2\n  mstore\n  0x20\n  add\n  mload(0x40)\n  dup1\n  swap2\n  sub\n  swap1\n  keccak256\n  sload\n    /* \"contracts/libraries/TimeLock.sol\":2039:2071  timelock[_fn] <= block.timestamp */\n  gt\n  iszero\n    /* \"contracts/libraries/TimeLock.sol\":2017:2071  timelock[_fn] != 0 && timelock[_fn] <= block.timestamp */\ntag_30:\n    /* \"contracts/libraries/TimeLock.sol\":2017:2119  timelock[_fn] != 0 && timelock[_fn] <= block.timestamp && timelock[_fn] + _TIMELOCK >= block.timestamp */\n  dup1\n  iszero\n  tag_32\n  jumpi\n  pop\n    /* \"contracts/libraries/TimeLock.sol\":2104:2119  block.timestamp */\n  timestamp\n    /* \"contracts/libraries/TimeLock.sol\":861:867  1 days */\n  0x015180\n    /* \"contracts/libraries/TimeLock.sol\":2075:2083  timelock */\n  0x01\n    /* \"contracts/libraries/TimeLock.sol\":2084:2087  _fn */\n  dup4\n    /* \"contracts/libraries/TimeLock.sol\":2075:2088  timelock[_fn] */\n  mload(0x40)\n  tag_33\n  swap2\n  swap1\n  tag_29\n  jump\t// in\ntag_33:\n  swap1\n  dup2\n  mstore\n  0x20\n  add\n  mload(0x40)\n  dup1\n  swap2\n  sub\n  swap1\n  keccak256\n  sload\n    /* \"contracts/libraries/TimeLock.sol\":2075:2100  timelock[_fn] + _TIMELOCK */\n  tag_34\n  swap2\n  swap1\n  tag_35\n  jump\t// in\ntag_34:\n    /* \"contracts/libraries/TimeLock.sol\":2075:2119  timelock[_fn] + _TIMELOCK >= block.timestamp */\n  lt\n  iszero\n    /* \"contracts/libraries/TimeLock.sol\":2017:2119  timelock[_fn] != 0 && timelock[_fn] <= block.timestamp && timelock[_fn] + _TIMELOCK >= block.timestamp */\ntag_32:\n    /* \"contracts/libraries/TimeLock.sol\":1990:2143  require(!isLockEnabled || (timelock[_fn] != 0 && timelock[_fn] <= block.timestamp && timelock[_fn] + _TIMELOCK >= block.timestamp), \"Function is locked\") */\n  tag_36\n  jumpi\n  mload(0x40)\n  shl(0xe5, 0x461bcd)\n  dup2\n  mstore\n    /* \"#utility.yul\":1726:1728   */\n  0x20\n    /* \"contracts/libraries/TimeLock.sol\":1990:2143  require(!isLockEnabled || (timelock[_fn] != 0 && timelock[_fn] <= block.timestamp && timelock[_fn] + _TIMELOCK >= block.timestamp), \"Function is locked\") */\n  0x04\n  dup3\n  add\n    /* \"#utility.yul\":1708:1729   */\n  mstore\n    /* \"#utility.yul\":1765:1767   */\n  0x12\n    /* \"#utility.yul\":1745:1763   */\n  0x24\n  dup3\n  add\n    /* \"#utility.yul\":1738:1768   */\n  mstore\n  shl(0x72, 0x119d5b98dd1a5bdb881a5cc81b1bd8dad959)\n    /* \"#utility.yul\":1784:1802   */\n  0x44\n  dup3\n  add\n    /* \"#utility.yul\":1777:1825   */\n  mstore\n    /* \"#utility.yul\":1842:1860   */\n  0x64\n  add\n    /* \"contracts/libraries/TimeLock.sol\":1990:2143  require(!isLockEnabled || (timelock[_fn] != 0 && timelock[_fn] <= block.timestamp && timelock[_fn] + _TIMELOCK >= block.timestamp), \"Function is locked\") */\n  tag_24\n    /* \"#utility.yul\":1524:1866   */\n  jump\n    /* \"contracts/libraries/TimeLock.sol\":1990:2143  require(!isLockEnabled || (timelock[_fn] != 0 && timelock[_fn] <= block.timestamp && timelock[_fn] + _TIMELOCK >= block.timestamp), \"Function is locked\") */\ntag_36:\n    /* \"contracts/chains/polygon/RewardSystem.sol\":4538:4569  transferOwnership(oracleWallet) */\n  tag_40\n    /* \"contracts/chains/polygon/RewardSystem.sol\":4556:4568  oracleWallet */\n  dup3\n    /* \"contracts/chains/polygon/RewardSystem.sol\":4538:4555  transferOwnership */\n  tag_41\n    /* \"contracts/chains/polygon/RewardSystem.sol\":4538:4569  transferOwnership(oracleWallet) */\n  jump\t// in\ntag_40:\n    /* \"contracts/chains/polygon/RewardSystem.sol\":4598:4611  _oracleWallet */\n  0x06\n  dup1\n  sload\n  sub(shl(0xa0, 0x01), 0x01)\n    /* \"contracts/chains/polygon/RewardSystem.sol\":4621:4649  _oracleWallet = oracleWallet */\n  dup5\n  dup2\n  and\n  not(sub(shl(0xa0, 0x01), 0x01))\n  dup4\n  and\n  dup2\n  or\n  swap1\n  swap4\n  sstore\n    /* \"contracts/chains/polygon/RewardSystem.sol\":4664:4708  ChangedOracleWallet(previous, _oracleWallet) */\n  mload(0x40)\n    /* \"contracts/chains/polygon/RewardSystem.sol\":4598:4611  _oracleWallet */\n  swap2\n  and\n  swap2\n    /* \"contracts/chains/polygon/RewardSystem.sol\":4621:4649  _oracleWallet = oracleWallet */\n  swap1\n    /* \"contracts/chains/polygon/RewardSystem.sol\":4598:4611  _oracleWallet */\n  dup3\n  swap1\n    /* \"contracts/chains/polygon/RewardSystem.sol\":4664:4708  ChangedOracleWallet(previous, _oracleWallet) */\n  0x3920ecd0f25e4e6ce57aaec91e57df499cb7e3e70d6c9604f866ae9265382cf3\n  swap1\n    /* \"contracts/chains/polygon/RewardSystem.sol\":4579:4595  address previous */\n  0x00\n  swap1\n    /* \"contracts/chains/polygon/RewardSystem.sol\":4664:4708  ChangedOracleWallet(previous, _oracleWallet) */\n  log3\n  pop\n    /* \"contracts/libraries/TimeLock.sol\":2164:2181  lockFunction(_fn) */\n  tag_42\n    /* \"contracts/libraries/TimeLock.sol\":2177:2180  _fn */\n  dup2\n    /* \"contracts/libraries/TimeLock.sol\":2164:2176  lockFunction */\n  tag_43\n    /* \"contracts/libraries/TimeLock.sol\":2164:2181  lockFunction(_fn) */\n  jump\t// in\ntag_42:\n    /* \"@openzeppelin/contracts/access/Ownable.sol\":1255:1256  _ */\n  pop\n    /* \"contracts/chains/polygon/RewardSystem.sol\":4432:4715  function changeOracleWallet(address oracleWallet) public onlyOwner locked(\"changeOracleWallet\") {... */\n  pop\n  jump\t// out\n    /* \"@openzeppelin/contracts/access/Ownable.sol\":1846:2035  function transferOwnership(address newOwner) public virtual onlyOwner {... */\ntag_41:\n    /* \"@openzeppelin/contracts/access/Ownable.sol\":1019:1026  address */\n  0x00\n    /* \"@openzeppelin/contracts/access/Ownable.sol\":1045:1051  _owner */\n  sload\n  sub(shl(0xa0, 0x01), 0x01)\n  and\n    /* \"@openzeppelin/contracts/utils/Context.sol\":665:675  msg.sender */\n  caller\n    /* \"@openzeppelin/contracts/access/Ownable.sol\":1185:1208  owner() == _msgSender() */\n  eq\n    /* \"@openzeppelin/contracts/access/Ownable.sol\":1177:1245  require(owner() == _msgSender(), \"Ownable: caller is not the owner\") */\n  tag_48\n  jumpi\n  mload(0x40)\n  shl(0xe5, 0x461bcd)\n  dup2\n  mstore\n    /* \"#utility.yul\":1365:1367   */\n  0x20\n    /* \"@openzeppelin/contracts/access/Ownable.sol\":1177:1245  require(owner() == _msgSender(), \"Ownable: caller is not the owner\") */\n  0x04\n  dup3\n  add\n    /* \"#utility.yul\":1347:1368   */\n  dup2\n  swap1\n  mstore\n    /* \"#utility.yul\":1384:1402   */\n  0x24\n  dup3\n  add\n    /* \"#utility.yul\":1377:1407   */\n  mstore\n  0x00\n  dup1\n  mload\n  0x20\n  data_9924ebdf1add33d25d4ef888e16131f0a5687b0580a36c21b5c301a6c462effe\n  dup4\n  codecopy\n  dup2\n  mload\n  swap2\n  mstore\n    /* \"#utility.yul\":1423:1441   */\n  0x44\n  dup3\n  add\n    /* \"#utility.yul\":1416:1478   */\n  mstore\n    /* \"#utility.yul\":1495:1513   */\n  0x64\n  add\n    /* \"@openzeppelin/contracts/access/Ownable.sol\":1177:1245  require(owner() == _msgSender(), \"Ownable: caller is not the owner\") */\n  tag_24\n    /* \"#utility.yul\":1163:1519   */\n  jump\n    /* \"@openzeppelin/contracts/access/Ownable.sol\":1177:1245  require(owner() == _msgSender(), \"Ownable: caller is not the owner\") */\ntag_48:\n  sub(shl(0xa0, 0x01), 0x01)\n    /* \"@openzeppelin/contracts/access/Ownable.sol\":1934:1956  newOwner != address(0) */\n  dup2\n  and\n    /* \"@openzeppelin/contracts/access/Ownable.sol\":1926:1999  require(newOwner != address(0), \"Ownable: new owner is the zero address\") */\n  tag_51\n  jumpi\n  mload(0x40)\n  shl(0xe5, 0x461bcd)\n  dup2\n  mstore\n    /* \"#utility.yul\":958:960   */\n  0x20\n    /* \"@openzeppelin/contracts/access/Ownable.sol\":1926:1999  require(newOwner != address(0), \"Ownable: new owner is the zero address\") */\n  0x04\n  dup3\n  add\n    /* \"#utility.yul\":940:961   */\n  mstore\n    /* \"#utility.yul\":997:999   */\n  0x26\n    /* \"#utility.yul\":977:995   */\n  0x24\n  dup3\n  add\n    /* \"#utility.yul\":970:1000   */\n  mstore\n    /* \"#utility.yul\":1036:1070   */\n  0x4f776e61626c653a206e6577206f776e657220697320746865207a65726f2061\n    /* \"#utility.yul\":1016:1034   */\n  0x44\n  dup3\n  add\n    /* \"#utility.yul\":1009:1071   */\n  mstore\n  shl(0xd0, 0x646472657373)\n    /* \"#utility.yul\":1087:1105   */\n  0x64\n  dup3\n  add\n    /* \"#utility.yul\":1080:1116   */\n  mstore\n    /* \"#utility.yul\":1133:1152   */\n  0x84\n  add\n    /* \"@openzeppelin/contracts/access/Ownable.sol\":1926:1999  require(newOwner != address(0), \"Ownable: new owner is the zero address\") */\n  tag_24\n    /* \"#utility.yul\":756:1158   */\n  jump\n    /* \"@openzeppelin/contracts/access/Ownable.sol\":1926:1999  require(newOwner != address(0), \"Ownable: new owner is the zero address\") */\ntag_51:\n    /* \"@openzeppelin/contracts/access/Ownable.sol\":2009:2028  _setOwner(newOwner) */\n  tag_54\n    /* \"@openzeppelin/contracts/access/Ownable.sol\":2019:2027  newOwner */\n  dup2\n    /* \"@openzeppelin/contracts/access/Ownable.sol\":2009:2018  _setOwner */\n  tag_11\n    /* \"@openzeppelin/contracts/access/Ownable.sol\":2009:2028  _setOwner(newOwner) */\n  jump\t// in\ntag_54:\n    /* \"@openzeppelin/contracts/access/Ownable.sol\":1846:2035  function transferOwnership(address newOwner) public virtual onlyOwner {... */\n  pop\n  jump\t// out\n    /* \"contracts/libraries/TimeLock.sol\":4317:4421  function lockFunction(string memory _fn) public onlyMaintainerOrOwner {... */\ntag_43:\n    /* \"contracts/libraries/TimeLock.sol\":2264:2274  msg.sender */\n  caller\n    /* \"contracts/libraries/TimeLock.sol\":2253:2260  owner() */\n  tag_56\n    /* \"@openzeppelin/contracts/access/Ownable.sol\":1019:1026  address */\n  0x00\n    /* \"@openzeppelin/contracts/access/Ownable.sol\":1045:1051  _owner */\n  sload\n  sub(shl(0xa0, 0x01), 0x01)\n  and\n  swap1\n    /* \"@openzeppelin/contracts/access/Ownable.sol\":973:1058  function owner() public view virtual returns (address) {... */\n  jump\n    /* \"contracts/libraries/TimeLock.sol\":2253:2260  owner() */\ntag_56:\n  sub(shl(0xa0, 0x01), 0x01)\n    /* \"contracts/libraries/TimeLock.sol\":2253:2274  owner() == msg.sender */\n  and\n  eq\n    /* \"contracts/libraries/TimeLock.sol\":2253:2303  owner() == msg.sender || _maintainer == msg.sender */\n  dup1\n  tag_57\n  jumpi\n  pop\n    /* \"contracts/libraries/TimeLock.sol\":2278:2289  _maintainer */\n  and(sub(shl(0xa0, 0x01), 0x01), sload(0x02))\n    /* \"contracts/libraries/TimeLock.sol\":2293:2303  msg.sender */\n  caller\n    /* \"contracts/libraries/TimeLock.sol\":2278:2303  _maintainer == msg.sender */\n  eq\n    /* \"contracts/libraries/TimeLock.sol\":2253:2303  owner() == msg.sender || _maintainer == msg.sender */\ntag_57:\n    /* \"contracts/libraries/TimeLock.sol\":2245:2361  require(owner() == msg.sender || _maintainer == msg.sender, \"operator: caller is not allowed to call this function\") */\n  tag_58\n  jumpi\n  mload(0x40)\n  shl(0xe5, 0x461bcd)\n  dup2\n  mstore\n    /* \"#utility.yul\":2073:2075   */\n  0x20\n    /* \"contracts/libraries/TimeLock.sol\":2245:2361  require(owner() == msg.sender || _maintainer == msg.sender, \"operator: caller is not allowed to call this function\") */\n  0x04\n  dup3\n  add\n    /* \"#utility.yul\":2055:2076   */\n  mstore\n    /* \"#utility.yul\":2112:2114   */\n  0x35\n    /* \"#utility.yul\":2092:2110   */\n  0x24\n  dup3\n  add\n    /* \"#utility.yul\":2085:2115   */\n  mstore\n    /* \"#utility.yul\":2151:2185   */\n  0x6f70657261746f723a2063616c6c6572206973206e6f7420616c6c6f77656420\n    /* \"#utility.yul\":2131:2149   */\n  0x44\n  dup3\n  add\n    /* \"#utility.yul\":2124:2186   */\n  mstore\n    /* \"#utility.yul\":2222:2245   */\n  0x746f2063616c6c20746869732066756e6374696f6e0000000000000000000000\n    /* \"#utility.yul\":2202:2220   */\n  0x64\n  dup3\n  add\n    /* \"#utility.yul\":2195:2246   */\n  mstore\n    /* \"#utility.yul\":2263:2282   */\n  0x84\n  add\n    /* \"contracts/libraries/TimeLock.sol\":2245:2361  require(owner() == msg.sender || _maintainer == msg.sender, \"operator: caller is not allowed to call this function\") */\n  tag_24\n    /* \"#utility.yul\":1871:2288   */\n  jump\n    /* \"contracts/libraries/TimeLock.sol\":2245:2361  require(owner() == msg.sender || _maintainer == msg.sender, \"operator: caller is not allowed to call this function\") */\ntag_58:\n    /* \"contracts/libraries/TimeLock.sol\":4413:4414  0 */\n  0x00\n    /* \"contracts/libraries/TimeLock.sol\":4397:4405  timelock */\n  0x01\n    /* \"contracts/libraries/TimeLock.sol\":4406:4409  _fn */\n  dup3\n    /* \"contracts/libraries/TimeLock.sol\":4397:4410  timelock[_fn] */\n  mload(0x40)\n  tag_62\n  swap2\n  swap1\n  tag_29\n  jump\t// in\ntag_62:\n  swap1\n  dup2\n  mstore\n  mload(0x40)\n  swap1\n  dup2\n  swap1\n  sub\n  0x20\n  add\n  swap1\n  keccak256\n    /* \"contracts/libraries/TimeLock.sol\":4397:4414  timelock[_fn] = 0 */\n  sstore\n  pop\n    /* \"contracts/libraries/TimeLock.sol\":4317:4421  function lockFunction(string memory _fn) public onlyMaintainerOrOwner {... */\n  jump\t// out\n    /* \"#utility.yul\":14:318   */\ntag_3:\n    /* \"#utility.yul\":98:104   */\n  0x00\n    /* \"#utility.yul\":151:153   */\n  0x20\n    /* \"#utility.yul\":139:148   */\n  dup3\n    /* \"#utility.yul\":130:137   */\n  dup5\n    /* \"#utility.yul\":126:149   */\n  sub\n    /* \"#utility.yul\":122:154   */\n  slt\n    /* \"#utility.yul\":119:171   */\n  iszero\n  tag_65\n  jumpi\n    /* \"#utility.yul\":167:168   */\n  0x00\n    /* \"#utility.yul\":164:165   */\n  dup1\n    /* \"#utility.yul\":157:169   */\n  revert\n    /* \"#utility.yul\":119:171   */\ntag_65:\n    /* \"#utility.yul\":193:209   */\n  dup2\n  mload\n  sub(shl(0xa0, 0x01), 0x01)\n    /* \"#utility.yul\":238:269   */\n  dup2\n  and\n    /* \"#utility.yul\":228:270   */\n  dup2\n  eq\n    /* \"#utility.yul\":218:288   */\n  tag_66\n  jumpi\n    /* \"#utility.yul\":284:285   */\n  0x00\n    /* \"#utility.yul\":281:282   */\n  dup1\n    /* \"#utility.yul\":274:286   */\n  revert\n    /* \"#utility.yul\":218:288   */\ntag_66:\n    /* \"#utility.yul\":307:312   */\n  swap4\n    /* \"#utility.yul\":14:318   */\n  swap3\n  pop\n  pop\n  pop\n  jump\t// out\n    /* \"#utility.yul\":323:751   */\ntag_29:\n    /* \"#utility.yul\":454:457   */\n  0x00\n    /* \"#utility.yul\":492:498   */\n  dup3\n    /* \"#utility.yul\":486:499   */\n  mload\n    /* \"#utility.yul\":517:518   */\n  0x00\n    /* \"#utility.yul\":527:656   */\ntag_68:\n    /* \"#utility.yul\":541:547   */\n  dup2\n    /* \"#utility.yul\":538:539   */\n  dup2\n    /* \"#utility.yul\":535:548   */\n  lt\n    /* \"#utility.yul\":527:656   */\n  iszero\n  tag_70\n  jumpi\n    /* \"#utility.yul\":639:643   */\n  0x20\n    /* \"#utility.yul\":623:637   */\n  dup2\n  dup7\n  add\n    /* \"#utility.yul\":619:644   */\n  dup2\n  add\n    /* \"#utility.yul\":613:645   */\n  mload\n    /* \"#utility.yul\":600:611   */\n  dup6\n  dup4\n  add\n    /* \"#utility.yul\":593:646   */\n  mstore\n    /* \"#utility.yul\":556:568   */\n  add\n    /* \"#utility.yul\":527:656   */\n  jump(tag_68)\ntag_70:\n    /* \"#utility.yul\":674:680   */\n  dup2\n    /* \"#utility.yul\":671:672   */\n  dup2\n    /* \"#utility.yul\":668:681   */\n  gt\n    /* \"#utility.yul\":665:713   */\n  iszero\n  tag_71\n  jumpi\n    /* \"#utility.yul\":709:710   */\n  0x00\n    /* \"#utility.yul\":700:706   */\n  dup3\n    /* \"#utility.yul\":695:698   */\n  dup6\n    /* \"#utility.yul\":691:707   */\n  add\n    /* \"#utility.yul\":684:711   */\n  mstore\n    /* \"#utility.yul\":665:713   */\ntag_71:\n  pop\n    /* \"#utility.yul\":729:745   */\n  swap2\n  swap1\n  swap2\n  add\n  swap3\n    /* \"#utility.yul\":323:751   */\n  swap2\n  pop\n  pop\n  jump\t// out\n    /* \"#utility.yul\":2293:2518   */\ntag_35:\n    /* \"#utility.yul\":2333:2336   */\n  0x00\n    /* \"#utility.yul\":2364:2365   */\n  dup3\n    /* \"#utility.yul\":2360:2366   */\n  not\n    /* \"#utility.yul\":2357:2358   */\n  dup3\n    /* \"#utility.yul\":2354:2367   */\n  gt\n    /* \"#utility.yul\":2351:2487   */\n  iszero\n  tag_77\n  jumpi\n    /* \"#utility.yul\":2409:2419   */\n  0x4e487b71\n    /* \"#utility.yul\":2404:2407   */\n  0xe0\n    /* \"#utility.yul\":2400:2420   */\n  shl\n    /* \"#utility.yul\":2397:2398   */\n  0x00\n    /* \"#utility.yul\":2390:2421   */\n  mstore\n    /* \"#utility.yul\":2444:2448   */\n  0x11\n    /* \"#utility.yul\":2441:2442   */\n  0x04\n    /* \"#utility.yul\":2434:2449   */\n  mstore\n    /* \"#utility.yul\":2472:2476   */\n  0x24\n    /* \"#utility.yul\":2469:2470   */\n  0x00\n    /* \"#utility.yul\":2462:2477   */\n  revert\n    /* \"#utility.yul\":2351:2487   */\ntag_77:\n  pop\n    /* \"#utility.yul\":2503:2512   */\n  add\n  swap1\n    /* \"#utility.yul\":2293:2518   */\n  jump\t// out\ntag_63:\n    /* \"contracts/chains/polygon/RewardSystem.sol\":442:8281  contract RewardSystem is Ownable, TimeLock {... */\n  dataSize(sub_0)\n  dup1\n  dataOffset(sub_0)\n  0x00\n  codecopy\n  0x00\n  return\nstop\ndata_9924ebdf1add33d25d4ef888e16131f0a5687b0580a36c21b5c301a6c462effe 4f776e61626c653a2063616c6c6572206973206e6f7420746865206f776e6572\n\nsub_0: assembly {\n        /* \"contracts/chains/polygon/RewardSystem.sol\":442:8281  contract RewardSystem is Ownable, TimeLock {... */\n      mstore(0x40, 0x80)\n      jumpi(tag_1, lt(calldatasize, 0x04))\n      shr(0xe0, calldataload(0x00))\n      dup1\n      0x9850d32b\n      gt\n      tag_36\n      jumpi\n      dup1\n      0xd6e0ece2\n      gt\n      tag_37\n      jumpi\n      dup1\n      0xf2fde38b\n      gt\n      tag_38\n      jumpi\n      dup1\n      0xf2fde38b\n      eq\n      tag_31\n      jumpi\n      dup1\n      0xf4762fd6\n      eq\n      tag_32\n      jumpi\n      dup1\n      0xf7e77bc2\n      eq\n      tag_33\n      jumpi\n      dup1\n      0xf8cf31cb\n      eq\n      tag_34\n      jumpi\n      dup1\n      0xf98080c0\n      eq\n      tag_35\n      jumpi\n      0x00\n      dup1\n      revert\n    tag_38:\n      dup1\n      0xd6e0ece2\n      eq\n      tag_27\n      jumpi\n      dup1\n      0xdb2e21bc\n      eq\n      tag_28\n      jumpi\n      dup1\n      0xde996a6e\n      eq\n      tag_29\n      jumpi\n      dup1\n      0xedae876f\n      eq\n      tag_30\n      jumpi\n      0x00\n      dup1\n      revert\n    tag_37:\n      dup1\n      0xa607494a\n      gt\n      tag_39\n      jumpi\n      dup1\n      0xa607494a\n      eq\n      tag_23\n      jumpi\n      dup1\n      0xb59c6e0e\n      eq\n      tag_24\n      jumpi\n      dup1\n      0xbf3506c1\n      eq\n      tag_25\n      jumpi\n      dup1\n      0xc0d78655\n      eq\n      tag_26\n      jumpi\n      0x00\n      dup1\n      revert\n    tag_39:\n      dup1\n      0x9850d32b\n      eq\n      tag_19\n      jumpi\n      dup1\n      0x9f531156\n      eq\n      tag_20\n      jumpi\n      dup1\n      0xa221a15f\n      eq\n      tag_21\n      jumpi\n      dup1\n      0xa347511a\n      eq\n      tag_22\n      jumpi\n      0x00\n      dup1\n      revert\n    tag_36:\n      dup1\n      0x63cd79b7\n      gt\n      tag_40\n      jumpi\n      dup1\n      0x7ef189f8\n      gt\n      tag_41\n      jumpi\n      dup1\n      0x7ef189f8\n      eq\n      tag_15\n      jumpi\n      dup1\n      0x864e49a7\n      eq\n      tag_16\n      jumpi\n      dup1\n      0x87df241f\n      eq\n      tag_17\n      jumpi\n      dup1\n      0x8da5cb5b\n      eq\n      tag_18\n      jumpi\n      0x00\n      dup1\n      revert\n    tag_41:\n      dup1\n      0x63cd79b7\n      eq\n      tag_11\n      jumpi\n      dup1\n      0x70ed0ada\n      eq\n      tag_12\n      jumpi\n      dup1\n      0x715018a6\n      eq\n      tag_13\n      jumpi\n      dup1\n      0x7d6dfb7e\n      eq\n      tag_14\n      jumpi\n      0x00\n      dup1\n      revert\n    tag_40:\n      dup1\n      0x478a55eb\n      gt\n      tag_42\n      jumpi\n      dup1\n      0x478a55eb\n      eq\n      tag_7\n      jumpi\n      dup1\n      0x4a938f00\n      eq\n      tag_8\n      jumpi\n      dup1\n      0x4e71d92d\n      eq\n      tag_9\n      jumpi\n      dup1\n      0x5dd53826\n      eq\n      tag_10\n      jumpi\n      0x00\n      dup1\n      revert\n    tag_42:\n      dup1\n      0x0126ffb9\n      eq\n      tag_3\n      jumpi\n      dup1\n      0x11a63e17\n      eq\n      tag_4\n      jumpi\n      dup1\n      0x12065fe0\n      eq\n      tag_5\n      jumpi\n      dup1\n      0x13ea5d29\n      eq\n      tag_6\n      jumpi\n      0x00\n      dup1\n      revert\n    tag_1:\n      jumpi(tag_2, calldatasize)\n      stop\n    tag_2:\n      0x00\n      dup1\n      revert\n        /* \"contracts/chains/polygon/RewardSystem.sol\":1272:1314  uint256 public _timeBetweenClaims = 1 days */\n    tag_3:\n      callvalue\n      dup1\n      iszero\n      tag_45\n      jumpi\n      0x00\n      dup1\n      revert\n    tag_45:\n      pop\n      tag_46\n      sload(0x0a)\n      dup2\n      jump\n    tag_46:\n      mload(0x40)\n        /* \"#utility.yul\":13857:13882   */\n      swap1\n      dup2\n      mstore\n        /* \"#utility.yul\":13845:13847   */\n      0x20\n        /* \"#utility.yul\":13830:13848   */\n      add\n        /* \"contracts/chains/polygon/RewardSystem.sol\":1272:1314  uint256 public _timeBetweenClaims = 1 days */\n    tag_48:\n      mload(0x40)\n      dup1\n      swap2\n      sub\n      swap1\n      return\n        /* \"contracts/chains/polygon/RewardSystem.sol\":1097:1167  address public _devWallet = 0xc559aCc356D3037EC6dbc33a20587051188b8634 */\n    tag_4:\n      callvalue\n      dup1\n      iszero\n      tag_50\n      jumpi\n      0x00\n      dup1\n      revert\n    tag_50:\n      pop\n      sload(0x07)\n      tag_51\n      swap1\n      sub(shl(0xa0, 0x01), 0x01)\n      and\n      dup2\n      jump\n    tag_51:\n      mload(0x40)\n      sub(shl(0xa0, 0x01), 0x01)\n        /* \"#utility.yul\":6235:6267   */\n      swap1\n      swap2\n      and\n        /* \"#utility.yul\":6217:6268   */\n      dup2\n      mstore\n        /* \"#utility.yul\":6205:6207   */\n      0x20\n        /* \"#utility.yul\":6190:6208   */\n      add\n        /* \"contracts/chains/polygon/RewardSystem.sol\":1097:1167  address public _devWallet = 0xc559aCc356D3037EC6dbc33a20587051188b8634 */\n      tag_48\n        /* \"#utility.yul\":6071:6274   */\n      jump\n        /* \"contracts/chains/polygon/RewardSystem.sol\":2853:2966  function getBalance() public view returns (uint256) {... */\n    tag_5:\n      callvalue\n      dup1\n      iszero\n      tag_55\n      jumpi\n      0x00\n      dup1\n      revert\n    tag_55:\n      pop\n      tag_46\n      tag_57\n      jump\t// in\n        /* \"contracts/libraries/TimeLock.sol\":3191:3617  function setMaintainer(address _newMaintainer) public onlyMaintainerOrOwner locked(\"maintainer\") {... */\n    tag_6:\n      callvalue\n      dup1\n      iszero\n      tag_59\n      jumpi\n      0x00\n      dup1\n      revert\n    tag_59:\n      pop\n      tag_60\n      tag_61\n      calldatasize\n      0x04\n      tag_62\n      jump\t// in\n    tag_61:\n      tag_63\n      jump\t// in\n    tag_60:\n      stop\n        /* \"contracts/chains/polygon/RewardSystem.sol\":5335:6105  function sendRewards(uint256[] memory amounts, address[] memory addresses) public onlyOwner {... */\n    tag_7:\n      callvalue\n      dup1\n      iszero\n      tag_64\n      jumpi\n      0x00\n      dup1\n      revert\n    tag_64:\n      pop\n      tag_60\n      tag_66\n      calldatasize\n      0x04\n      tag_67\n      jump\t// in\n    tag_66:\n      tag_68\n      jump\t// in\n        /* \"contracts/chains/polygon/RewardSystem.sol\":7668:7872  function sendRewardAndAdjustGasCost(uint256[] memory amounts, address[] memory addresses, uint256 gasCost) public onlyOwner {... */\n    tag_8:\n      callvalue\n      dup1\n      iszero\n      tag_69\n      jumpi\n      0x00\n      dup1\n      revert\n    tag_69:\n      pop\n      tag_60\n      tag_71\n      calldatasize\n      0x04\n      tag_72\n      jump\t// in\n    tag_71:\n      tag_73\n      jump\t// in\n        /* \"contracts/chains/polygon/RewardSystem.sol\":7882:8279  function claim() public payable {... */\n    tag_9:\n      tag_60\n      tag_75\n      jump\t// in\n        /* \"contracts/chains/polygon/RewardSystem.sol\":1214:1266  uint256 public _maxAmountPerReceive = 10000000 ether */\n    tag_10:\n      callvalue\n      dup1\n      iszero\n      tag_76\n      jumpi\n      0x00\n      dup1\n      revert\n    tag_76:\n      pop\n      tag_46\n      sload(0x09)\n      dup2\n      jump\n        /* \"contracts/chains/polygon/RewardSystem.sol\":4432:4715  function changeOracleWallet(address oracleWallet) public onlyOwner locked(\"changeOracleWallet\") {... */\n    tag_11:\n      callvalue\n      dup1\n      iszero\n      tag_80\n      jumpi\n      0x00\n      dup1\n      revert\n    tag_80:\n      pop\n      tag_60\n      tag_82\n      calldatasize\n      0x04\n      tag_62\n      jump\t// in\n    tag_82:\n      tag_83\n      jump\t// in\n        /* \"contracts/chains/polygon/RewardSystem.sol\":2972:3072  function getEthBalance() public view returns (uint256) {... */\n    tag_12:\n      callvalue\n      dup1\n      iszero\n      tag_84\n      jumpi\n      0x00\n      dup1\n      revert\n    tag_84:\n      pop\n        /* \"contracts/chains/polygon/RewardSystem.sol\":3044:3065  address(this).balance */\n      selfbalance\n        /* \"contracts/chains/polygon/RewardSystem.sol\":2972:3072  function getEthBalance() public view returns (uint256) {... */\n      jump(tag_46)\n        /* \"@openzeppelin/contracts/access/Ownable.sol\":1605:1697  function renounceOwnership() public virtual onlyOwner {... */\n    tag_13:\n      callvalue\n      dup1\n      iszero\n      tag_88\n      jumpi\n      0x00\n      dup1\n      revert\n    tag_88:\n      pop\n      tag_60\n      tag_90\n      jump\t// in\n        /* \"contracts/chains/polygon/RewardSystem.sol\":875:915  mapping(address => bool) public _rewards */\n    tag_14:\n      callvalue\n      dup1\n      iszero\n      tag_91\n      jumpi\n      0x00\n      dup1\n      revert\n    tag_91:\n      pop\n      tag_92\n      tag_93\n      calldatasize\n      0x04\n      tag_62\n      jump\t// in\n    tag_93:\n      mstore(0x20, 0x03)\n      0x00\n      swap1\n      dup2\n      mstore\n      0x40\n      swap1\n      keccak256\n      sload\n      0xff\n      and\n      dup2\n      jump\n    tag_92:\n      mload(0x40)\n        /* \"#utility.yul\":6723:6737   */\n      swap1\n      iszero\n        /* \"#utility.yul\":6716:6738   */\n      iszero\n        /* \"#utility.yul\":6698:6739   */\n      dup2\n      mstore\n        /* \"#utility.yul\":6686:6688   */\n      0x20\n        /* \"#utility.yul\":6671:6689   */\n      add\n        /* \"contracts/chains/polygon/RewardSystem.sol\":875:915  mapping(address => bool) public _rewards */\n      tag_48\n        /* \"#utility.yul\":6558:6745   */\n      jump\n        /* \"contracts/chains/polygon/RewardSystem.sol\":974:1007  uint256 public _gasCost = 50 gwei */\n    tag_15:\n      callvalue\n      dup1\n      iszero\n      tag_97\n      jumpi\n      0x00\n      dup1\n      revert\n    tag_97:\n      pop\n      tag_46\n      sload(0x05)\n      dup2\n      jump\n        /* \"contracts/chains/polygon/RewardSystem.sol\":3205:3351  function canClaimNative(address user) public view returns (bool) {... */\n    tag_16:\n      callvalue\n      dup1\n      iszero\n      tag_101\n      jumpi\n      0x00\n      dup1\n      revert\n    tag_101:\n      pop\n      tag_92\n      tag_103\n      calldatasize\n      0x04\n      tag_62\n      jump\t// in\n    tag_103:\n      tag_104\n      jump\t// in\n        /* \"contracts/chains/polygon/RewardSystem.sol\":3686:3850  function adjustGasCost(uint256 gasCost) public onlyOwner locked(\"adjustGasCost\") {... */\n    tag_17:\n      callvalue\n      dup1\n      iszero\n      tag_106\n      jumpi\n      0x00\n      dup1\n      revert\n    tag_106:\n      pop\n      tag_60\n      tag_108\n      calldatasize\n      0x04\n      tag_109\n      jump\t// in\n    tag_108:\n      tag_110\n      jump\t// in\n        /* \"@openzeppelin/contracts/access/Ownable.sol\":973:1058  function owner() public view virtual returns (address) {... */\n    tag_18:\n      callvalue\n      dup1\n      iszero\n      tag_111\n      jumpi\n      0x00\n      dup1\n      revert\n    tag_111:\n      pop\n        /* \"@openzeppelin/contracts/access/Ownable.sol\":1019:1026  address */\n      0x00\n        /* \"@openzeppelin/contracts/access/Ownable.sol\":1045:1051  _owner */\n      sload\n      sub(shl(0xa0, 0x01), 0x01)\n      and\n        /* \"@openzeppelin/contracts/access/Ownable.sol\":973:1058  function owner() public view virtual returns (address) {... */\n      jump(tag_51)\n        /* \"contracts/libraries/TimeLock.sol\":2770:2857  function maintainer() public view returns (address) {... */\n    tag_19:\n      callvalue\n      dup1\n      iszero\n      tag_115\n      jumpi\n      0x00\n      dup1\n      revert\n    tag_115:\n      pop\n        /* \"contracts/libraries/TimeLock.sol\":2839:2850  _maintainer */\n      and(sub(shl(0xa0, 0x01), 0x01), sload(0x02))\n        /* \"contracts/libraries/TimeLock.sol\":2770:2857  function maintainer() public view returns (address) {... */\n      jump(tag_51)\n        /* \"contracts/libraries/TimeLock.sol\":4317:4421  function lockFunction(string memory _fn) public onlyMaintainerOrOwner {... */\n    tag_20:\n      callvalue\n      dup1\n      iszero\n      tag_119\n      jumpi\n      0x00\n      dup1\n      revert\n    tag_119:\n      pop\n      tag_60\n      tag_121\n      calldatasize\n      0x04\n      tag_122\n      jump\t// in\n    tag_121:\n      tag_123\n      jump\t// in\n        /* \"contracts/chains/polygon/RewardSystem.sol\":1018:1091  address public _oracleWallet = 0x76049b7cAaB30b8bBBdcfF3A1059d9147dBF7B19 */\n    tag_21:\n      callvalue\n      dup1\n      iszero\n      tag_124\n      jumpi\n      0x00\n      dup1\n      revert\n    tag_124:\n      pop\n      sload(0x06)\n      tag_51\n      swap1\n      sub(shl(0xa0, 0x01), 0x01)\n      and\n      dup2\n      jump\n        /* \"contracts/libraries/TimeLock.sol\":737:770  bool public isLockEnabled = false */\n    tag_22:\n      callvalue\n      dup1\n      iszero\n      tag_128\n      jumpi\n      0x00\n      dup1\n      revert\n    tag_128:\n      pop\n      sload(0x00)\n      tag_92\n      swap1\n      shl(0xa0, 0x01)\n      swap1\n      div\n      0xff\n      and\n      dup2\n      jump\n        /* \"contracts/libraries/TimeLock.sol\":4100:4284  function unlockFunction(string memory _fn) public onlyMaintainerOrOwner {... */\n    tag_23:\n      callvalue\n      dup1\n      iszero\n      tag_132\n      jumpi\n      0x00\n      dup1\n      revert\n    tag_132:\n      pop\n      tag_60\n      tag_134\n      calldatasize\n      0x04\n      tag_122\n      jump\t// in\n    tag_134:\n      tag_135\n      jump\t// in\n        /* \"contracts/chains/polygon/RewardSystem.sol\":1178:1204  IERC20 public _rewardToken */\n    tag_24:\n      callvalue\n      dup1\n      iszero\n      tag_136\n      jumpi\n      0x00\n      dup1\n      revert\n    tag_136:\n      pop\n      sload(0x08)\n      tag_51\n      swap1\n      sub(shl(0xa0, 0x01), 0x01)\n      and\n      dup2\n      jump\n        /* \"contracts/chains/polygon/RewardSystem.sol\":3078:3199  function canClaim(address user) public view returns (bool) {... */\n    tag_25:\n      callvalue\n      dup1\n      iszero\n      tag_141\n      jumpi\n      0x00\n      dup1\n      revert\n    tag_141:\n      pop\n      tag_92\n      tag_143\n      calldatasize\n      0x04\n      tag_62\n      jump\t// in\n    tag_143:\n      tag_144\n      jump\t// in\n        /* \"contracts/chains/polygon/RewardSystem.sol\":4725:4821  function setRouter(IUniswapV2Router02 router) public onlyOwner {... */\n    tag_26:\n      callvalue\n      dup1\n      iszero\n      tag_146\n      jumpi\n      0x00\n      dup1\n      revert\n    tag_146:\n      pop\n      tag_60\n      tag_148\n      calldatasize\n      0x04\n      tag_62\n      jump\t// in\n    tag_148:\n      tag_150\n      jump\t// in\n        /* \"contracts/chains/polygon/RewardSystem.sol\":6115:7096  function sendRewardsAsEth(uint256 amount, address user) public onlyOwner {... */\n    tag_27:\n      callvalue\n      dup1\n      iszero\n      tag_151\n      jumpi\n      0x00\n      dup1\n      revert\n    tag_151:\n      pop\n      tag_60\n      tag_153\n      calldatasize\n      0x04\n      tag_154\n      jump\t// in\n    tag_153:\n      tag_155\n      jump\t// in\n        /* \"contracts/chains/polygon/RewardSystem.sol\":4827:5004  function emergencyWithdraw() public onlyOwner {... */\n    tag_28:\n      callvalue\n      dup1\n      iszero\n      tag_156\n      jumpi\n      0x00\n      dup1\n      revert\n    tag_156:\n      pop\n      tag_60\n      tag_158\n      jump\t// in\n        /* \"contracts/chains/polygon/RewardSystem.sol\":3856:4086  function adjustMaxAmountPerReceive(uint256 newAmount) public onlyOwner locked(\"adjustMaxAmountPerReceive\") {... */\n    tag_29:\n      callvalue\n      dup1\n      iszero\n      tag_159\n      jumpi\n      0x00\n      dup1\n      revert\n    tag_159:\n      pop\n      tag_60\n      tag_161\n      calldatasize\n      0x04\n      tag_109\n      jump\t// in\n    tag_161:\n      tag_162\n      jump\t// in\n        /* \"contracts/chains/polygon/RewardSystem.sol\":1325:1423  IUniswapV2Router02 public _router = IUniswapV2Router02(0xbdd4e5660839a088573191A9889A262c0Efc0983) */\n    tag_30:\n      callvalue\n      dup1\n      iszero\n      tag_163\n      jumpi\n      0x00\n      dup1\n      revert\n    tag_163:\n      pop\n      sload(0x0b)\n      tag_51\n      swap1\n      sub(shl(0xa0, 0x01), 0x01)\n      and\n      dup2\n      jump\n        /* \"@openzeppelin/contracts/access/Ownable.sol\":1846:2035  function transferOwnership(address newOwner) public virtual onlyOwner {... */\n    tag_31:\n      callvalue\n      dup1\n      iszero\n      tag_168\n      jumpi\n      0x00\n      dup1\n      revert\n    tag_168:\n      pop\n      tag_60\n      tag_170\n      calldatasize\n      0x04\n      tag_62\n      jump\t// in\n    tag_170:\n      tag_171\n      jump\t// in\n        /* \"contracts/libraries/TimeLock.sol\":3627:3751  function setTimelockEnabled() public onlyMaintainerOrOwner {... */\n    tag_32:\n      callvalue\n      dup1\n      iszero\n      tag_172\n      jumpi\n      0x00\n      dup1\n      revert\n    tag_172:\n      pop\n      tag_60\n      tag_174\n      jump\t// in\n        /* \"contracts/chains/polygon/RewardSystem.sol\":921:967  mapping(address => uint256) public _claimTimes */\n    tag_33:\n      callvalue\n      dup1\n      iszero\n      tag_175\n      jumpi\n      0x00\n      dup1\n      revert\n    tag_175:\n      pop\n      tag_46\n      tag_177\n      calldatasize\n      0x04\n      tag_62\n      jump\t// in\n    tag_177:\n      mstore(0x20, 0x04)\n      0x00\n      swap1\n      dup2\n      mstore\n      0x40\n      swap1\n      keccak256\n      sload\n      dup2\n      jump\n        /* \"contracts/chains/polygon/RewardSystem.sol\":4096:4422  function updateRewardToken(IERC20 rewardToken) public onlyOwner locked(\"updateRewardToken\") {... */\n    tag_34:\n      callvalue\n      dup1\n      iszero\n      tag_180\n      jumpi\n      0x00\n      dup1\n      revert\n    tag_180:\n      pop\n      tag_60\n      tag_182\n      calldatasize\n      0x04\n      tag_62\n      jump\t// in\n    tag_182:\n      tag_184\n      jump\t// in\n        /* \"contracts/libraries/TimeLock.sol\":776:818  mapping(string => uint256) public timelock */\n    tag_35:\n      callvalue\n      dup1\n      iszero\n      tag_185\n      jumpi\n      0x00\n      dup1\n      revert\n    tag_185:\n      pop\n      tag_46\n      tag_187\n      calldatasize\n      0x04\n      tag_122\n      jump\t// in\n    tag_187:\n      dup1\n      mload\n      0x20\n      dup2\n      dup4\n      add\n      dup2\n      add\n      dup1\n      mload\n      0x01\n      dup3\n      mstore\n      swap3\n      dup3\n      add\n      swap2\n      swap1\n      swap4\n      add\n      keccak256\n      swap2\n      mstore\n      sload\n      dup2\n      jump\n        /* \"contracts/chains/polygon/RewardSystem.sol\":2853:2966  function getBalance() public view returns (uint256) {... */\n    tag_57:\n        /* \"contracts/chains/polygon/RewardSystem.sol\":2922:2934  _rewardToken */\n      sload(0x08)\n        /* \"contracts/chains/polygon/RewardSystem.sol\":2922:2959  _rewardToken.balanceOf(address(this)) */\n      mload(0x40)\n      shl(0xe0, 0x70a08231)\n      dup2\n      mstore\n        /* \"contracts/chains/polygon/RewardSystem.sol\":2953:2957  this */\n      address\n        /* \"contracts/chains/polygon/RewardSystem.sol\":2922:2959  _rewardToken.balanceOf(address(this)) */\n      0x04\n      dup3\n      add\n        /* \"#utility.yul\":6217:6268   */\n      mstore\n        /* \"contracts/chains/polygon/RewardSystem.sol\":2896:2903  uint256 */\n      0x00\n      swap2\n      sub(shl(0xa0, 0x01), 0x01)\n        /* \"contracts/chains/polygon/RewardSystem.sol\":2922:2934  _rewardToken */\n      and\n      swap1\n        /* \"contracts/chains/polygon/RewardSystem.sol\":2922:2944  _rewardToken.balanceOf */\n      0x70a08231\n      swap1\n        /* \"#utility.yul\":6190:6208   */\n      0x24\n      add\n        /* \"contracts/chains/polygon/RewardSystem.sol\":2922:2959  _rewardToken.balanceOf(address(this)) */\n      0x20\n      mload(0x40)\n      dup1\n      dup4\n      sub\n      dup2\n      dup7\n      dup1\n      extcodesize\n      iszero\n      dup1\n      iszero\n      tag_192\n      jumpi\n      0x00\n      dup1\n      revert\n    tag_192:\n      pop\n      gas\n      staticcall\n      iszero\n      dup1\n      iszero\n      tag_194\n      jumpi\n      returndatasize\n      0x00\n      dup1\n      returndatacopy\n      revert(0x00, returndatasize)\n    tag_194:\n      pop\n      pop\n      pop\n      pop\n      mload(0x40)\n      returndatasize\n      not(0x1f)\n      0x1f\n      dup3\n      add\n      and\n      dup3\n      add\n      dup1\n      0x40\n      mstore\n      pop\n      dup2\n      add\n      swap1\n      tag_195\n      swap2\n      swap1\n      tag_196\n      jump\t// in\n    tag_195:\n        /* \"contracts/chains/polygon/RewardSystem.sol\":2915:2959  return _rewardToken.balanceOf(address(this)) */\n      swap1\n      pop\n        /* \"contracts/chains/polygon/RewardSystem.sol\":2853:2966  function getBalance() public view returns (uint256) {... */\n      swap1\n      jump\t// out\n        /* \"contracts/libraries/TimeLock.sol\":3191:3617  function setMaintainer(address _newMaintainer) public onlyMaintainerOrOwner locked(\"maintainer\") {... */\n    tag_63:\n        /* \"contracts/libraries/TimeLock.sol\":2264:2274  msg.sender */\n      caller\n        /* \"contracts/libraries/TimeLock.sol\":2253:2260  owner() */\n      tag_198\n        /* \"@openzeppelin/contracts/access/Ownable.sol\":1019:1026  address */\n      0x00\n        /* \"@openzeppelin/contracts/access/Ownable.sol\":1045:1051  _owner */\n      sload\n      sub(shl(0xa0, 0x01), 0x01)\n      and\n      swap1\n        /* \"@openzeppelin/contracts/access/Ownable.sol\":973:1058  function owner() public view virtual returns (address) {... */\n      jump\n        /* \"contracts/libraries/TimeLock.sol\":2253:2260  owner() */\n    tag_198:\n      sub(shl(0xa0, 0x01), 0x01)\n        /* \"contracts/libraries/TimeLock.sol\":2253:2274  owner() == msg.sender */\n      and\n      eq\n        /* \"contracts/libraries/TimeLock.sol\":2253:2303  owner() == msg.sender || _maintainer == msg.sender */\n      dup1\n      tag_199\n      jumpi\n      pop\n        /* \"contracts/libraries/TimeLock.sol\":2278:2289  _maintainer */\n      and(sub(shl(0xa0, 0x01), 0x01), sload(0x02))\n        /* \"contracts/libraries/TimeLock.sol\":2293:2303  msg.sender */\n      caller\n        /* \"contracts/libraries/TimeLock.sol\":2278:2303  _maintainer == msg.sender */\n      eq\n        /* \"contracts/libraries/TimeLock.sol\":2253:2303  owner() == msg.sender || _maintainer == msg.sender */\n    tag_199:\n        /* \"contracts/libraries/TimeLock.sol\":2245:2361  require(owner() == msg.sender || _maintainer == msg.sender, \"operator: caller is not allowed to call this function\") */\n      tag_200\n      jumpi\n      mload(0x40)\n      shl(0xe5, 0x461bcd)\n      dup2\n      mstore\n      0x04\n      add\n      tag_201\n      swap1\n      tag_202\n      jump\t// in\n    tag_201:\n      mload(0x40)\n      dup1\n      swap2\n      sub\n      swap1\n      revert\n    tag_200:\n        /* \"contracts/libraries/TimeLock.sol\":1945:2188  modifier locked(string memory _fn) {... */\n      0x40\n      dup1\n      mload\n      dup1\n      dup3\n      add\n      swap1\n      swap2\n      mstore\n      0x0a\n      dup2\n      mstore\n      shl(0xb1, 0x36b0b4b73a30b4b732b9)\n      0x20\n      dup3\n      add\n      mstore\n      0x00\n        /* \"contracts/libraries/TimeLock.sol\":1999:2012  isLockEnabled */\n      sload\n      shl(0xa0, 0x01)\n      swap1\n      div\n      0xff\n      and\n        /* \"contracts/libraries/TimeLock.sol\":1998:2012  !isLockEnabled */\n      iszero\n      dup1\n        /* \"contracts/libraries/TimeLock.sol\":1998:2120  !isLockEnabled || (timelock[_fn] != 0 && timelock[_fn] <= block.timestamp && timelock[_fn] + _TIMELOCK >= block.timestamp) */\n      tag_209\n      jumpi\n      pop\n        /* \"contracts/libraries/TimeLock.sol\":2017:2025  timelock */\n      0x01\n        /* \"contracts/libraries/TimeLock.sol\":2026:2029  _fn */\n      dup2\n        /* \"contracts/libraries/TimeLock.sol\":2017:2030  timelock[_fn] */\n      mload(0x40)\n      tag_205\n      swap2\n      swap1\n      tag_456\n      jump\t// in\n    tag_205:\n      swap1\n      dup2\n      mstore\n      0x20\n      add\n      mload(0x40)\n      dup1\n      swap2\n      sub\n      swap1\n      keccak256\n      sload\n        /* \"contracts/libraries/TimeLock.sol\":2034:2035  0 */\n      0x00\n        /* \"contracts/libraries/TimeLock.sol\":2017:2035  timelock[_fn] != 0 */\n      eq\n      iszero\n        /* \"contracts/libraries/TimeLock.sol\":2017:2071  timelock[_fn] != 0 && timelock[_fn] <= block.timestamp */\n      dup1\n      iszero\n      tag_207\n      jumpi\n      pop\n        /* \"contracts/libraries/TimeLock.sol\":2056:2071  block.timestamp */\n      timestamp\n        /* \"contracts/libraries/TimeLock.sol\":2039:2047  timelock */\n      0x01\n        /* \"contracts/libraries/TimeLock.sol\":2048:2051  _fn */\n      dup3\n        /* \"contracts/libraries/TimeLock.sol\":2039:2052  timelock[_fn] */\n      mload(0x40)\n      tag_208\n      swap2\n      swap1\n      tag_456\n      jump\t// in\n    tag_208:\n      swap1\n      dup2\n      mstore\n      0x20\n      add\n      mload(0x40)\n      dup1\n      swap2\n      sub\n      swap1\n      keccak256\n      sload\n        /* \"contracts/libraries/TimeLock.sol\":2039:2071  timelock[_fn] <= block.timestamp */\n      gt\n      iszero\n        /* \"contracts/libraries/TimeLock.sol\":2017:2071  timelock[_fn] != 0 && timelock[_fn] <= block.timestamp */\n    tag_207:\n        /* \"contracts/libraries/TimeLock.sol\":2017:2119  timelock[_fn] != 0 && timelock[_fn] <= block.timestamp && timelock[_fn] + _TIMELOCK >= block.timestamp */\n      dup1\n      iszero\n      tag_209\n      jumpi\n      pop\n        /* \"contracts/libraries/TimeLock.sol\":2104:2119  block.timestamp */\n      timestamp\n        /* \"contracts/libraries/TimeLock.sol\":861:867  1 days */\n      0x015180\n        /* \"contracts/libraries/TimeLock.sol\":2075:2083  timelock */\n      0x01\n        /* \"contracts/libraries/TimeLock.sol\":2084:2087  _fn */\n      dup4\n        /* \"contracts/libraries/TimeLock.sol\":2075:2088  timelock[_fn] */\n      mload(0x40)\n      tag_210\n      swap2\n      swap1\n      tag_456\n      jump\t// in\n    tag_210:\n      swap1\n      dup2\n      mstore\n      0x20\n      add\n      mload(0x40)\n      dup1\n      swap2\n      sub\n      swap1\n      keccak256\n      sload\n        /* \"contracts/libraries/TimeLock.sol\":2075:2100  timelock[_fn] + _TIMELOCK */\n      tag_211\n      swap2\n      swap1\n      tag_212\n      jump\t// in\n    tag_211:\n        /* \"contracts/libraries/TimeLock.sol\":2075:2119  timelock[_fn] + _TIMELOCK >= block.timestamp */\n      lt\n      iszero\n        /* \"contracts/libraries/TimeLock.sol\":2017:2119  timelock[_fn] != 0 && timelock[_fn] <= block.timestamp && timelock[_fn] + _TIMELOCK >= block.timestamp */\n    tag_209:\n        /* \"contracts/libraries/TimeLock.sol\":1990:2143  require(!isLockEnabled || (timelock[_fn] != 0 && timelock[_fn] <= block.timestamp && timelock[_fn] + _TIMELOCK >= block.timestamp), \"Function is locked\") */\n      tag_213\n      jumpi\n      mload(0x40)\n      shl(0xe5, 0x461bcd)\n      dup2\n      mstore\n      0x04\n      add\n      tag_201\n      swap1\n      tag_215\n      jump\t// in\n    tag_213:\n        /* \"contracts/libraries/TimeLock.sol\":3324:3335  _maintainer */\n      sload(0x02)\n      sub(shl(0xa0, 0x01), 0x01)\n        /* \"contracts/libraries/TimeLock.sol\":3306:3335  _newMaintainer != _maintainer */\n      dup4\n      dup2\n      and\n        /* \"contracts/libraries/TimeLock.sol\":3324:3335  _maintainer */\n      swap2\n      and\n        /* \"contracts/libraries/TimeLock.sol\":3306:3335  _newMaintainer != _maintainer */\n      eq\n      dup1\n      iszero\n      swap1\n        /* \"contracts/libraries/TimeLock.sol\":3306:3367  _newMaintainer != _maintainer && _newMaintainer != address(0) */\n      tag_217\n      jumpi\n      pop\n      sub(shl(0xa0, 0x01), 0x01)\n        /* \"contracts/libraries/TimeLock.sol\":3339:3367  _newMaintainer != address(0) */\n      dup3\n      and\n      iszero\n      iszero\n        /* \"contracts/libraries/TimeLock.sol\":3306:3367  _newMaintainer != _maintainer && _newMaintainer != address(0) */\n    tag_217:\n        /* \"contracts/libraries/TimeLock.sol\":3298:3453  require(_newMaintainer != _maintainer && _newMaintainer != address(0), \"ABOAT::setMaintainer: Maintainer can\\'t equal previous maintainer or zero address\") */\n      tag_218\n      jumpi\n      mload(0x40)\n      shl(0xe5, 0x461bcd)\n      dup2\n      mstore\n        /* \"#utility.yul\":9082:9084   */\n      0x20\n        /* \"contracts/libraries/TimeLock.sol\":3298:3453  require(_newMaintainer != _maintainer && _newMaintainer != address(0), \"ABOAT::setMaintainer: Maintainer can\\'t equal previous maintainer or zero address\") */\n      0x04\n      dup3\n      add\n        /* \"#utility.yul\":9064:9085   */\n      mstore\n        /* \"#utility.yul\":9121:9123   */\n      0x50\n        /* \"#utility.yul\":9101:9119   */\n      0x24\n      dup3\n      add\n        /* \"#utility.yul\":9094:9124   */\n      mstore\n        /* \"#utility.yul\":9160:9194   */\n      0x41424f41543a3a7365744d61696e7461696e65723a204d61696e7461696e6572\n        /* \"#utility.yul\":9140:9158   */\n      0x44\n      dup3\n      add\n        /* \"#utility.yul\":9133:9195   */\n      mstore\n        /* \"#utility.yul\":9231:9265   */\n      0x2063616e277420657175616c2070726576696f7573206d61696e7461696e6572\n        /* \"#utility.yul\":9211:9229   */\n      0x64\n      dup3\n      add\n        /* \"#utility.yul\":9204:9266   */\n      mstore\n      shl(0x80, 0x206f72207a65726f2061646472657373)\n        /* \"#utility.yul\":9282:9301   */\n      0x84\n      dup3\n      add\n        /* \"#utility.yul\":9275:9322   */\n      mstore\n        /* \"#utility.yul\":9339:9358   */\n      0xa4\n      add\n        /* \"contracts/libraries/TimeLock.sol\":3298:3453  require(_newMaintainer != _maintainer && _newMaintainer != address(0), \"ABOAT::setMaintainer: Maintainer can\\'t equal previous maintainer or zero address\") */\n      tag_201\n        /* \"#utility.yul\":8880:9364   */\n      jump\n        /* \"contracts/libraries/TimeLock.sol\":3298:3453  require(_newMaintainer != _maintainer && _newMaintainer != address(0), \"ABOAT::setMaintainer: Maintainer can\\'t equal previous maintainer or zero address\") */\n    tag_218:\n        /* \"contracts/libraries/TimeLock.sol\":3492:3503  _maintainer */\n      0x02\n      dup1\n      sload\n      sub(shl(0xa0, 0x01), 0x01)\n        /* \"contracts/libraries/TimeLock.sol\":3513:3541  _maintainer = _newMaintainer */\n      dup5\n      dup2\n      and\n      not(sub(shl(0xa0, 0x01), 0x01))\n      dup4\n      and\n      dup2\n      or\n      swap1\n      swap4\n      sstore\n        /* \"contracts/libraries/TimeLock.sol\":3556:3610  MaintainerTransferred(previousMaintainer, _maintainer) */\n      mload(0x40)\n        /* \"contracts/libraries/TimeLock.sol\":3492:3503  _maintainer */\n      swap2\n      and\n      swap2\n        /* \"contracts/libraries/TimeLock.sol\":3513:3541  _maintainer = _newMaintainer */\n      swap1\n        /* \"contracts/libraries/TimeLock.sol\":3492:3503  _maintainer */\n      dup3\n      swap1\n        /* \"contracts/libraries/TimeLock.sol\":3556:3610  MaintainerTransferred(previousMaintainer, _maintainer) */\n      0x2f3ffaaaad93928855c8700645d1a3643e6ccfdd500efa9fda048a88f557cf01\n      swap1\n        /* \"contracts/libraries/TimeLock.sol\":3463:3489  address previousMaintainer */\n      0x00\n      swap1\n        /* \"contracts/libraries/TimeLock.sol\":3556:3610  MaintainerTransferred(previousMaintainer, _maintainer) */\n      log3\n        /* \"contracts/libraries/TimeLock.sol\":3288:3617  {... */\n      pop\n        /* \"contracts/libraries/TimeLock.sol\":2164:2181  lockFunction(_fn) */\n      tag_221\n        /* \"contracts/libraries/TimeLock.sol\":2177:2180  _fn */\n      dup2\n        /* \"contracts/libraries/TimeLock.sol\":2164:2176  lockFunction */\n      tag_123\n        /* \"contracts/libraries/TimeLock.sol\":2164:2181  lockFunction(_fn) */\n      jump\t// in\n    tag_221:\n        /* \"contracts/libraries/TimeLock.sol\":2371:2372  _ */\n      pop\n        /* \"contracts/libraries/TimeLock.sol\":3191:3617  function setMaintainer(address _newMaintainer) public onlyMaintainerOrOwner locked(\"maintainer\") {... */\n      pop\n      jump\t// out\n        /* \"contracts/chains/polygon/RewardSystem.sol\":5335:6105  function sendRewards(uint256[] memory amounts, address[] memory addresses) public onlyOwner {... */\n    tag_68:\n        /* \"@openzeppelin/contracts/access/Ownable.sol\":1019:1026  address */\n      0x00\n        /* \"@openzeppelin/contracts/access/Ownable.sol\":1045:1051  _owner */\n      sload\n      sub(shl(0xa0, 0x01), 0x01)\n      and\n        /* \"@openzeppelin/contracts/utils/Context.sol\":665:675  msg.sender */\n      caller\n        /* \"@openzeppelin/contracts/access/Ownable.sol\":1185:1208  owner() == _msgSender() */\n      eq\n        /* \"@openzeppelin/contracts/access/Ownable.sol\":1177:1245  require(owner() == _msgSender(), \"Ownable: caller is not the owner\") */\n      tag_226\n      jumpi\n      mload(0x40)\n      shl(0xe5, 0x461bcd)\n      dup2\n      mstore\n      0x04\n      add\n      tag_201\n      swap1\n      tag_228\n      jump\t// in\n    tag_226:\n        /* \"contracts/chains/polygon/RewardSystem.sol\":5463:5472  addresses */\n      dup1\n        /* \"contracts/chains/polygon/RewardSystem.sol\":5463:5479  addresses.length */\n      mload\n        /* \"contracts/chains/polygon/RewardSystem.sol\":5445:5452  amounts */\n      dup3\n        /* \"contracts/chains/polygon/RewardSystem.sol\":5445:5459  amounts.length */\n      mload\n        /* \"contracts/chains/polygon/RewardSystem.sol\":5445:5479  amounts.length == addresses.length */\n      eq\n        /* \"contracts/chains/polygon/RewardSystem.sol\":5437:5562  require(amounts.length == addresses.length, \"ABOAT::sendRewards: amounts and addresses must have the same amount of entries\") */\n      tag_230\n      jumpi\n      mload(0x40)\n      shl(0xe5, 0x461bcd)\n      dup2\n      mstore\n        /* \"#utility.yul\":13426:13428   */\n      0x20\n        /* \"contracts/chains/polygon/RewardSystem.sol\":5437:5562  require(amounts.length == addresses.length, \"ABOAT::sendRewards: amounts and addresses must have the same amount of entries\") */\n      0x04\n      dup3\n      add\n        /* \"#utility.yul\":13408:13429   */\n      mstore\n        /* \"#utility.yul\":13465:13467   */\n      0x4e\n        /* \"#utility.yul\":13445:13463   */\n      0x24\n      dup3\n      add\n        /* \"#utility.yul\":13438:13468   */\n      mstore\n        /* \"#utility.yul\":13504:13538   */\n      0x41424f41543a3a73656e64526577617264733a20616d6f756e747320616e6420\n        /* \"#utility.yul\":13484:13502   */\n      0x44\n      dup3\n      add\n        /* \"#utility.yul\":13477:13539   */\n      mstore\n        /* \"#utility.yul\":13575:13609   */\n      0x616464726573736573206d7573742068617665207468652073616d6520616d6f\n        /* \"#utility.yul\":13555:13573   */\n      0x64\n      dup3\n      add\n        /* \"#utility.yul\":13548:13610   */\n      mstore\n      shl(0x90, 0x756e74206f6620656e7472696573)\n        /* \"#utility.yul\":13626:13645   */\n      0x84\n      dup3\n      add\n        /* \"#utility.yul\":13619:13664   */\n      mstore\n        /* \"#utility.yul\":13681:13700   */\n      0xa4\n      add\n        /* \"contracts/chains/polygon/RewardSystem.sol\":5437:5562  require(amounts.length == addresses.length, \"ABOAT::sendRewards: amounts and addresses must have the same amount of entries\") */\n      tag_201\n        /* \"#utility.yul\":13224:13706   */\n      jump\n        /* \"contracts/chains/polygon/RewardSystem.sol\":5437:5562  require(amounts.length == addresses.length, \"ABOAT::sendRewards: amounts and addresses must have the same amount of entries\") */\n    tag_230:\n        /* \"contracts/chains/polygon/RewardSystem.sol\":5585:5595  uint index */\n      0x00\n        /* \"contracts/chains/polygon/RewardSystem.sol\":5581:6099  for(uint index = 0; index < addresses.length; index++) {... */\n    tag_233:\n        /* \"contracts/chains/polygon/RewardSystem.sol\":5609:5618  addresses */\n      dup2\n        /* \"contracts/chains/polygon/RewardSystem.sol\":5609:5625  addresses.length */\n      mload\n        /* \"contracts/chains/polygon/RewardSystem.sol\":5601:5606  index */\n      dup2\n        /* \"contracts/chains/polygon/RewardSystem.sol\":5601:5625  index < addresses.length */\n      lt\n        /* \"contracts/chains/polygon/RewardSystem.sol\":5581:6099  for(uint index = 0; index < addresses.length; index++) {... */\n      iszero\n      tag_234\n      jumpi\n        /* \"contracts/chains/polygon/RewardSystem.sol\":5653:5661  _rewards */\n      0x03\n        /* \"contracts/chains/polygon/RewardSystem.sol\":5653:5679  _rewards[addresses[index]] */\n      0x00\n        /* \"contracts/chains/polygon/RewardSystem.sol\":5662:5671  addresses */\n      dup4\n        /* \"contracts/chains/polygon/RewardSystem.sol\":5672:5677  index */\n      dup4\n        /* \"contracts/chains/polygon/RewardSystem.sol\":5662:5678  addresses[index] */\n      dup2\n      mload\n      dup2\n      lt\n      tag_237\n      jumpi\n      tag_237\n      tag_238\n      jump\t// in\n    tag_237:\n      0x20\n      swap1\n      dup2\n      mul\n      swap2\n      swap1\n      swap2\n      add\n      dup2\n      add\n      mload\n      sub(shl(0xa0, 0x01), 0x01)\n        /* \"contracts/chains/polygon/RewardSystem.sol\":5653:5679  _rewards[addresses[index]] */\n      and\n      dup3\n      mstore\n      dup2\n      add\n      swap2\n      swap1\n      swap2\n      mstore\n      0x40\n      add\n      0x00\n      keccak256\n      sload\n      0xff\n      and\n        /* \"contracts/chains/polygon/RewardSystem.sol\":5653:5713  _rewards[addresses[index]] && getBalance() >= amounts[index] */\n      dup1\n      iszero\n      tag_239\n      jumpi\n      pop\n        /* \"contracts/chains/polygon/RewardSystem.sol\":5699:5706  amounts */\n      dup3\n        /* \"contracts/chains/polygon/RewardSystem.sol\":5707:5712  index */\n      dup2\n        /* \"contracts/chains/polygon/RewardSystem.sol\":5699:5713  amounts[index] */\n      dup2\n      mload\n      dup2\n      lt\n      tag_241\n      jumpi\n      tag_241\n      tag_238\n      jump\t// in\n    tag_241:\n      0x20\n      mul\n      0x20\n      add\n      add\n      mload\n        /* \"contracts/chains/polygon/RewardSystem.sol\":5683:5695  getBalance() */\n      tag_242\n        /* \"contracts/chains/polygon/RewardSystem.sol\":5683:5693  getBalance */\n      tag_57\n        /* \"contracts/chains/polygon/RewardSystem.sol\":5683:5695  getBalance() */\n      jump\t// in\n    tag_242:\n        /* \"contracts/chains/polygon/RewardSystem.sol\":5683:5713  getBalance() >= amounts[index] */\n      lt\n      iszero\n        /* \"contracts/chains/polygon/RewardSystem.sol\":5653:5713  _rewards[addresses[index]] && getBalance() >= amounts[index] */\n    tag_239:\n        /* \"contracts/chains/polygon/RewardSystem.sol\":5653:5743  _rewards[addresses[index]] && getBalance() >= amounts[index] && canClaim(addresses[index]) */\n      dup1\n      iszero\n      tag_244\n      jumpi\n      pop\n        /* \"contracts/chains/polygon/RewardSystem.sol\":5717:5743  canClaim(addresses[index]) */\n      tag_244\n        /* \"contracts/chains/polygon/RewardSystem.sol\":5726:5735  addresses */\n      dup3\n        /* \"contracts/chains/polygon/RewardSystem.sol\":5736:5741  index */\n      dup3\n        /* \"contracts/chains/polygon/RewardSystem.sol\":5726:5742  addresses[index] */\n      dup2\n      mload\n      dup2\n      lt\n      tag_246\n      jumpi\n      tag_246\n      tag_238\n      jump\t// in\n    tag_246:\n      0x20\n      mul\n      0x20\n      add\n      add\n      mload\n        /* \"contracts/chains/polygon/RewardSystem.sol\":5717:5725  canClaim */\n      tag_144\n        /* \"contracts/chains/polygon/RewardSystem.sol\":5717:5743  canClaim(addresses[index]) */\n      jump\t// in\n    tag_244:\n        /* \"contracts/chains/polygon/RewardSystem.sol\":5653:5785  _rewards[addresses[index]] && getBalance() >= amounts[index] && canClaim(addresses[index]) && amounts[index] <= _maxAmountPerReceive */\n      dup1\n      iszero\n      tag_247\n      jumpi\n      pop\n        /* \"contracts/chains/polygon/RewardSystem.sol\":5765:5785  _maxAmountPerReceive */\n      sload(0x09)\n        /* \"contracts/chains/polygon/RewardSystem.sol\":5747:5754  amounts */\n      dup4\n        /* \"contracts/chains/polygon/RewardSystem.sol\":5755:5760  index */\n      dup3\n        /* \"contracts/chains/polygon/RewardSystem.sol\":5747:5761  amounts[index] */\n      dup2\n      mload\n      dup2\n      lt\n      tag_249\n      jumpi\n      tag_249\n      tag_238\n      jump\t// in\n    tag_249:\n      0x20\n      mul\n      0x20\n      add\n      add\n      mload\n        /* \"contracts/chains/polygon/RewardSystem.sol\":5747:5785  amounts[index] <= _maxAmountPerReceive */\n      gt\n      iszero\n        /* \"contracts/chains/polygon/RewardSystem.sol\":5653:5785  _rewards[addresses[index]] && getBalance() >= amounts[index] && canClaim(addresses[index]) && amounts[index] <= _maxAmountPerReceive */\n    tag_247:\n        /* \"contracts/chains/polygon/RewardSystem.sol\":5650:6089  if(_rewards[addresses[index]] && getBalance() >= amounts[index] && canClaim(addresses[index]) && amounts[index] <= _maxAmountPerReceive) {... */\n      iszero\n      tag_250\n      jumpi\n        /* \"contracts/chains/polygon/RewardSystem.sol\":5834:5839  false */\n      0x00\n        /* \"contracts/chains/polygon/RewardSystem.sol\":5805:5813  _rewards */\n      0x03\n        /* \"contracts/chains/polygon/RewardSystem.sol\":5805:5831  _rewards[addresses[index]] */\n      0x00\n        /* \"contracts/chains/polygon/RewardSystem.sol\":5814:5823  addresses */\n      dup5\n        /* \"contracts/chains/polygon/RewardSystem.sol\":5824:5829  index */\n      dup5\n        /* \"contracts/chains/polygon/RewardSystem.sol\":5814:5830  addresses[index] */\n      dup2\n      mload\n      dup2\n      lt\n      tag_252\n      jumpi\n      tag_252\n      tag_238\n      jump\t// in\n    tag_252:\n      0x20\n      mul\n      0x20\n      add\n      add\n      mload\n      sub(shl(0xa0, 0x01), 0x01)\n        /* \"contracts/chains/polygon/RewardSystem.sol\":5805:5831  _rewards[addresses[index]] */\n      and\n      sub(shl(0xa0, 0x01), 0x01)\n      and\n      dup2\n      mstore\n      0x20\n      add\n      swap1\n      dup2\n      mstore\n      0x20\n      add\n      0x00\n      keccak256\n      0x00\n        /* \"contracts/chains/polygon/RewardSystem.sol\":5805:5839  _rewards[addresses[index]] = false */\n      0x0100\n      exp\n      dup2\n      sload\n      dup2\n      0xff\n      mul\n      not\n      and\n      swap1\n      dup4\n      iszero\n      iszero\n      mul\n      or\n      swap1\n      sstore\n      pop\n        /* \"contracts/chains/polygon/RewardSystem.sol\":5889:5904  block.timestamp */\n      timestamp\n        /* \"contracts/chains/polygon/RewardSystem.sol\":5857:5868  _claimTimes */\n      0x04\n        /* \"contracts/chains/polygon/RewardSystem.sol\":5857:5886  _claimTimes[addresses[index]] */\n      0x00\n        /* \"contracts/chains/polygon/RewardSystem.sol\":5869:5878  addresses */\n      dup5\n        /* \"contracts/chains/polygon/RewardSystem.sol\":5879:5884  index */\n      dup5\n        /* \"contracts/chains/polygon/RewardSystem.sol\":5869:5885  addresses[index] */\n      dup2\n      mload\n      dup2\n      lt\n      tag_254\n      jumpi\n      tag_254\n      tag_238\n      jump\t// in\n    tag_254:\n      0x20\n      mul\n      0x20\n      add\n      add\n      mload\n      sub(shl(0xa0, 0x01), 0x01)\n        /* \"contracts/chains/polygon/RewardSystem.sol\":5857:5886  _claimTimes[addresses[index]] */\n      and\n      sub(shl(0xa0, 0x01), 0x01)\n      and\n      dup2\n      mstore\n      0x20\n      add\n      swap1\n      dup2\n      mstore\n      0x20\n      add\n      0x00\n      keccak256\n        /* \"contracts/chains/polygon/RewardSystem.sol\":5857:5904  _claimTimes[addresses[index]] = block.timestamp */\n      dup2\n      swap1\n      sstore\n      pop\n        /* \"contracts/chains/polygon/RewardSystem.sol\":5922:6006  TransferHelper.safeTransfer(address(_rewardToken), addresses[index], amounts[index]) */\n      tag_255\n        /* \"contracts/chains/polygon/RewardSystem.sol\":5958:5970  _rewardToken */\n      0x08\n      0x00\n      swap1\n      sload\n      swap1\n      0x0100\n      exp\n      swap1\n      div\n      sub(shl(0xa0, 0x01), 0x01)\n      and\n        /* \"contracts/chains/polygon/RewardSystem.sol\":5973:5982  addresses */\n      dup4\n        /* \"contracts/chains/polygon/RewardSystem.sol\":5983:5988  index */\n      dup4\n        /* \"contracts/chains/polygon/RewardSystem.sol\":5973:5989  addresses[index] */\n      dup2\n      mload\n      dup2\n      lt\n      tag_257\n      jumpi\n      tag_257\n      tag_238\n      jump\t// in\n    tag_257:\n      0x20\n      mul\n      0x20\n      add\n      add\n      mload\n        /* \"contracts/chains/polygon/RewardSystem.sol\":5991:5998  amounts */\n      dup6\n        /* \"contracts/chains/polygon/RewardSystem.sol\":5999:6004  index */\n      dup5\n        /* \"contracts/chains/polygon/RewardSystem.sol\":5991:6005  amounts[index] */\n      dup2\n      mload\n      dup2\n      lt\n      tag_259\n      jumpi\n      tag_259\n      tag_238\n      jump\t// in\n    tag_259:\n      0x20\n      mul\n      0x20\n      add\n      add\n      mload\n        /* \"contracts/chains/polygon/RewardSystem.sol\":5922:5949  TransferHelper.safeTransfer */\n      tag_260\n        /* \"contracts/chains/polygon/RewardSystem.sol\":5922:6006  TransferHelper.safeTransfer(address(_rewardToken), addresses[index], amounts[index]) */\n      jump\t// in\n    tag_255:\n        /* \"contracts/chains/polygon/RewardSystem.sol\":6059:6066  amounts */\n      dup3\n        /* \"contracts/chains/polygon/RewardSystem.sol\":6067:6072  index */\n      dup2\n        /* \"contracts/chains/polygon/RewardSystem.sol\":6059:6073  amounts[index] */\n      dup2\n      mload\n      dup2\n      lt\n      tag_262\n      jumpi\n      tag_262\n      tag_238\n      jump\t// in\n    tag_262:\n      0x20\n      mul\n      0x20\n      add\n      add\n      mload\n        /* \"contracts/chains/polygon/RewardSystem.sol\":6041:6050  addresses */\n      dup3\n        /* \"contracts/chains/polygon/RewardSystem.sol\":6051:6056  index */\n      dup3\n        /* \"contracts/chains/polygon/RewardSystem.sol\":6041:6057  addresses[index] */\n      dup2\n      mload\n      dup2\n      lt\n      tag_264\n      jumpi\n      tag_264\n      tag_238\n      jump\t// in\n    tag_264:\n      0x20\n      mul\n      0x20\n      add\n      add\n      mload\n      sub(shl(0xa0, 0x01), 0x01)\n        /* \"contracts/chains/polygon/RewardSystem.sol\":6029:6074  SentRewards(addresses[index], amounts[index]) */\n      and\n      0xd9d5e983e9e8a6571ffbeafa6a3c2fbd9f0f44e52607977b5e1e7934f7d91bfc\n      mload(0x40)\n      mload(0x40)\n      dup1\n      swap2\n      sub\n      swap1\n      log3\n        /* \"contracts/chains/polygon/RewardSystem.sol\":5650:6089  if(_rewards[addresses[index]] && getBalance() >= amounts[index] && canClaim(addresses[index]) && amounts[index] <= _maxAmountPerReceive) {... */\n    tag_250:\n        /* \"contracts/chains/polygon/RewardSystem.sol\":5627:5634  index++ */\n      dup1\n      tag_265\n      dup2\n      tag_266\n      jump\t// in\n    tag_265:\n      swap2\n      pop\n      pop\n        /* \"contracts/chains/polygon/RewardSystem.sol\":5581:6099  for(uint index = 0; index < addresses.length; index++) {... */\n      jump(tag_233)\n    tag_234:\n      pop\n        /* \"contracts/chains/polygon/RewardSystem.sol\":5335:6105  function sendRewards(uint256[] memory amounts, address[] memory addresses) public onlyOwner {... */\n      pop\n      pop\n      jump\t// out\n        /* \"contracts/chains/polygon/RewardSystem.sol\":7668:7872  function sendRewardAndAdjustGasCost(uint256[] memory amounts, address[] memory addresses, uint256 gasCost) public onlyOwner {... */\n    tag_73:\n        /* \"@openzeppelin/contracts/access/Ownable.sol\":1019:1026  address */\n      0x00\n        /* \"@openzeppelin/contracts/access/Ownable.sol\":1045:1051  _owner */\n      sload\n      sub(shl(0xa0, 0x01), 0x01)\n      and\n        /* \"@openzeppelin/contracts/utils/Context.sol\":665:675  msg.sender */\n      caller\n        /* \"@openzeppelin/contracts/access/Ownable.sol\":1185:1208  owner() == _msgSender() */\n      eq\n        /* \"@openzeppelin/contracts/access/Ownable.sol\":1177:1245  require(owner() == _msgSender(), \"Ownable: caller is not the owner\") */\n      tag_270\n      jumpi\n      mload(0x40)\n      shl(0xe5, 0x461bcd)\n      dup2\n      mstore\n      0x04\n      add\n      tag_201\n      swap1\n      tag_228\n      jump\t// in\n    tag_270:\n        /* \"contracts/chains/polygon/RewardSystem.sol\":7802:7824  adjustGasCost(gasCost) */\n      tag_273\n        /* \"contracts/chains/polygon/RewardSystem.sol\":7816:7823  gasCost */\n      dup2\n        /* \"contracts/chains/polygon/RewardSystem.sol\":7802:7815  adjustGasCost */\n      tag_110\n        /* \"contracts/chains/polygon/RewardSystem.sol\":7802:7824  adjustGasCost(gasCost) */\n      jump\t// in\n    tag_273:\n        /* \"contracts/chains/polygon/RewardSystem.sol\":7834:7865  sendRewards(amounts, addresses) */\n      tag_234\n        /* \"contracts/chains/polygon/RewardSystem.sol\":7846:7853  amounts */\n      dup4\n        /* \"contracts/chains/polygon/RewardSystem.sol\":7855:7864  addresses */\n      dup4\n        /* \"contracts/chains/polygon/RewardSystem.sol\":7834:7845  sendRewards */\n      tag_68\n        /* \"contracts/chains/polygon/RewardSystem.sol\":7834:7865  sendRewards(amounts, addresses) */\n      jump\t// in\n        /* \"contracts/chains/polygon/RewardSystem.sol\":7882:8279  function claim() public payable {... */\n    tag_75:\n        /* \"contracts/chains/polygon/RewardSystem.sol\":7942:7952  msg.sender */\n      caller\n        /* \"contracts/chains/polygon/RewardSystem.sol\":7933:7953  _rewards[msg.sender] */\n      0x00\n      swap1\n      dup2\n      mstore\n        /* \"contracts/chains/polygon/RewardSystem.sol\":7933:7941  _rewards */\n      0x03\n        /* \"contracts/chains/polygon/RewardSystem.sol\":7933:7953  _rewards[msg.sender] */\n      0x20\n      mstore\n      0x40\n      swap1\n      keccak256\n      sload\n      0xff\n      and\n        /* \"contracts/chains/polygon/RewardSystem.sol\":7932:7953  !_rewards[msg.sender] */\n      iszero\n        /* \"contracts/chains/polygon/RewardSystem.sol\":7924:8005  require(!_rewards[msg.sender], \"ABOAT::claim: Already allowed to recieve tokens\") */\n      tag_276\n      jumpi\n      mload(0x40)\n      shl(0xe5, 0x461bcd)\n      dup2\n      mstore\n        /* \"#utility.yul\":8237:8239   */\n      0x20\n        /* \"contracts/chains/polygon/RewardSystem.sol\":7924:8005  require(!_rewards[msg.sender], \"ABOAT::claim: Already allowed to recieve tokens\") */\n      0x04\n      dup3\n      add\n        /* \"#utility.yul\":8219:8240   */\n      mstore\n        /* \"#utility.yul\":8276:8278   */\n      0x2f\n        /* \"#utility.yul\":8256:8274   */\n      0x24\n      dup3\n      add\n        /* \"#utility.yul\":8249:8279   */\n      mstore\n        /* \"#utility.yul\":8315:8349   */\n      0x41424f41543a3a636c61696d3a20416c726561647920616c6c6f77656420746f\n        /* \"#utility.yul\":8295:8313   */\n      0x44\n      dup3\n      add\n        /* \"#utility.yul\":8288:8350   */\n      mstore\n      shl(0x88, 0x207265636965766520746f6b656e73)\n        /* \"#utility.yul\":8366:8384   */\n      0x64\n      dup3\n      add\n        /* \"#utility.yul\":8359:8404   */\n      mstore\n        /* \"#utility.yul\":8421:8440   */\n      0x84\n      add\n        /* \"contracts/chains/polygon/RewardSystem.sol\":7924:8005  require(!_rewards[msg.sender], \"ABOAT::claim: Already allowed to recieve tokens\") */\n      tag_201\n        /* \"#utility.yul\":8035:8446   */\n      jump\n        /* \"contracts/chains/polygon/RewardSystem.sol\":7924:8005  require(!_rewards[msg.sender], \"ABOAT::claim: Already allowed to recieve tokens\") */\n    tag_276:\n        /* \"contracts/chains/polygon/RewardSystem.sol\":8036:8044  _gasCost */\n      sload(0x05)\n        /* \"contracts/chains/polygon/RewardSystem.sol\":8023:8032  msg.value */\n      callvalue\n        /* \"contracts/chains/polygon/RewardSystem.sol\":8023:8044  msg.value >= _gasCost */\n      lt\n      iszero\n        /* \"contracts/chains/polygon/RewardSystem.sol\":8015:8128  require(msg.value >= _gasCost, \"ABOAT::claim: Amount of bnb to claim should carry the cost to add the claimable\") */\n      tag_279\n      jumpi\n      mload(0x40)\n      shl(0xe5, 0x461bcd)\n      dup2\n      mstore\n        /* \"#utility.yul\":12524:12526   */\n      0x20\n        /* \"contracts/chains/polygon/RewardSystem.sol\":8015:8128  require(msg.value >= _gasCost, \"ABOAT::claim: Amount of bnb to claim should carry the cost to add the claimable\") */\n      0x04\n      dup3\n      add\n        /* \"#utility.yul\":12506:12527   */\n      mstore\n        /* \"#utility.yul\":12563:12565   */\n      0x4f\n        /* \"#utility.yul\":12543:12561   */\n      0x24\n      dup3\n      add\n        /* \"#utility.yul\":12536:12566   */\n      mstore\n        /* \"#utility.yul\":12602:12636   */\n      0x41424f41543a3a636c61696d3a20416d6f756e74206f6620626e6220746f2063\n        /* \"#utility.yul\":12582:12600   */\n      0x44\n      dup3\n      add\n        /* \"#utility.yul\":12575:12637   */\n      mstore\n        /* \"#utility.yul\":12673:12707   */\n      0x6c61696d2073686f756c642063617272792074686520636f737420746f206164\n        /* \"#utility.yul\":12653:12671   */\n      0x64\n      dup3\n      add\n        /* \"#utility.yul\":12646:12708   */\n      mstore\n      shl(0x88, 0x642074686520636c61696d61626c65)\n        /* \"#utility.yul\":12724:12743   */\n      0x84\n      dup3\n      add\n        /* \"#utility.yul\":12717:12763   */\n      mstore\n        /* \"#utility.yul\":12780:12799   */\n      0xa4\n      add\n        /* \"contracts/chains/polygon/RewardSystem.sol\":8015:8128  require(msg.value >= _gasCost, \"ABOAT::claim: Amount of bnb to claim should carry the cost to add the claimable\") */\n      tag_201\n        /* \"#utility.yul\":12322:12805   */\n      jump\n        /* \"contracts/chains/polygon/RewardSystem.sol\":8015:8128  require(msg.value >= _gasCost, \"ABOAT::claim: Amount of bnb to claim should carry the cost to add the claimable\") */\n    tag_279:\n        /* \"contracts/chains/polygon/RewardSystem.sol\":8169:8182  _oracleWallet */\n      sload(0x06)\n        /* \"contracts/chains/polygon/RewardSystem.sol\":8138:8194  TransferHelper.safeTransferETH(_oracleWallet, msg.value) */\n      tag_282\n      swap1\n      sub(shl(0xa0, 0x01), 0x01)\n        /* \"contracts/chains/polygon/RewardSystem.sol\":8169:8182  _oracleWallet */\n      and\n        /* \"contracts/chains/polygon/RewardSystem.sol\":8184:8193  msg.value */\n      callvalue\n        /* \"contracts/chains/polygon/RewardSystem.sol\":8138:8168  TransferHelper.safeTransferETH */\n      tag_283\n        /* \"contracts/chains/polygon/RewardSystem.sol\":8138:8194  TransferHelper.safeTransferETH(_oracleWallet, msg.value) */\n      jump\t// in\n    tag_282:\n        /* \"contracts/chains/polygon/RewardSystem.sol\":8213:8223  msg.sender */\n      caller\n        /* \"contracts/chains/polygon/RewardSystem.sol\":8204:8224  _rewards[msg.sender] */\n      0x00\n      dup2\n      dup2\n      mstore\n        /* \"contracts/chains/polygon/RewardSystem.sol\":8204:8212  _rewards */\n      0x03\n        /* \"contracts/chains/polygon/RewardSystem.sol\":8204:8224  _rewards[msg.sender] */\n      0x20\n      mstore\n      0x40\n      dup1\n      dup3\n      keccak256\n        /* \"contracts/chains/polygon/RewardSystem.sol\":8204:8231  _rewards[msg.sender] = true */\n      dup1\n      sload\n      not(0xff)\n      and\n        /* \"contracts/chains/polygon/RewardSystem.sol\":8227:8231  true */\n      0x01\n        /* \"contracts/chains/polygon/RewardSystem.sol\":8204:8231  _rewards[msg.sender] = true */\n      or\n      swap1\n      sstore\n        /* \"contracts/chains/polygon/RewardSystem.sol\":8246:8272  EnabledRewards(msg.sender) */\n      mload\n      0x98716c616972f4ef0085deb59c20f6f6a840219c121ad1f3b5413097f3a10357\n      swap2\n        /* \"contracts/chains/polygon/RewardSystem.sol\":8204:8224  _rewards[msg.sender] */\n      swap1\n        /* \"contracts/chains/polygon/RewardSystem.sol\":8246:8272  EnabledRewards(msg.sender) */\n      log2\n        /* \"contracts/chains/polygon/RewardSystem.sol\":7882:8279  function claim() public payable {... */\n      jump\t// out\n        /* \"contracts/chains/polygon/RewardSystem.sol\":4432:4715  function changeOracleWallet(address oracleWallet) public onlyOwner locked(\"changeOracleWallet\") {... */\n    tag_83:\n        /* \"@openzeppelin/contracts/access/Ownable.sol\":1019:1026  address */\n      0x00\n        /* \"@openzeppelin/contracts/access/Ownable.sol\":1045:1051  _owner */\n      sload\n      sub(shl(0xa0, 0x01), 0x01)\n      and\n        /* \"@openzeppelin/contracts/utils/Context.sol\":665:675  msg.sender */\n      caller\n        /* \"@openzeppelin/contracts/access/Ownable.sol\":1185:1208  owner() == _msgSender() */\n      eq\n        /* \"@openzeppelin/contracts/access/Ownable.sol\":1177:1245  require(owner() == _msgSender(), \"Ownable: caller is not the owner\") */\n      tag_287\n      jumpi\n      mload(0x40)\n      shl(0xe5, 0x461bcd)\n      dup2\n      mstore\n      0x04\n      add\n      tag_201\n      swap1\n      tag_228\n      jump\t// in\n    tag_287:\n        /* \"contracts/libraries/TimeLock.sol\":1945:2188  modifier locked(string memory _fn) {... */\n      0x40\n      dup1\n      mload\n      dup1\n      dup3\n      add\n      swap1\n      swap2\n      mstore\n      0x12\n      dup2\n      mstore\n      shl(0x72, 0x18da185b99d953dc9858db1955d85b1b195d)\n      0x20\n      dup3\n      add\n      mstore\n      0x00\n        /* \"contracts/libraries/TimeLock.sol\":1999:2012  isLockEnabled */\n      sload\n      shl(0xa0, 0x01)\n      swap1\n      div\n      0xff\n      and\n        /* \"contracts/libraries/TimeLock.sol\":1998:2012  !isLockEnabled */\n      iszero\n      dup1\n        /* \"contracts/libraries/TimeLock.sol\":1998:2120  !isLockEnabled || (timelock[_fn] != 0 && timelock[_fn] <= block.timestamp && timelock[_fn] + _TIMELOCK >= block.timestamp) */\n      tag_294\n      jumpi\n      pop\n        /* \"contracts/libraries/TimeLock.sol\":2017:2025  timelock */\n      0x01\n        /* \"contracts/libraries/TimeLock.sol\":2026:2029  _fn */\n      dup2\n        /* \"contracts/libraries/TimeLock.sol\":2017:2030  timelock[_fn] */\n      mload(0x40)\n      tag_291\n      swap2\n      swap1\n      tag_456\n      jump\t// in\n    tag_291:\n      swap1\n      dup2\n      mstore\n      0x20\n      add\n      mload(0x40)\n      dup1\n      swap2\n      sub\n      swap1\n      keccak256\n      sload\n        /* \"contracts/libraries/TimeLock.sol\":2034:2035  0 */\n      0x00\n        /* \"contracts/libraries/TimeLock.sol\":2017:2035  timelock[_fn] != 0 */\n      eq\n      iszero\n        /* \"contracts/libraries/TimeLock.sol\":2017:2071  timelock[_fn] != 0 && timelock[_fn] <= block.timestamp */\n      dup1\n      iszero\n      tag_292\n      jumpi\n      pop\n        /* \"contracts/libraries/TimeLock.sol\":2056:2071  block.timestamp */\n      timestamp\n        /* \"contracts/libraries/TimeLock.sol\":2039:2047  timelock */\n      0x01\n        /* \"contracts/libraries/TimeLock.sol\":2048:2051  _fn */\n      dup3\n        /* \"contracts/libraries/TimeLock.sol\":2039:2052  timelock[_fn] */\n      mload(0x40)\n      tag_293\n      swap2\n      swap1\n      tag_456\n      jump\t// in\n    tag_293:\n      swap1\n      dup2\n      mstore\n      0x20\n      add\n      mload(0x40)\n      dup1\n      swap2\n      sub\n      swap1\n      keccak256\n      sload\n        /* \"contracts/libraries/TimeLock.sol\":2039:2071  timelock[_fn] <= block.timestamp */\n      gt\n      iszero\n        /* \"contracts/libraries/TimeLock.sol\":2017:2071  timelock[_fn] != 0 && timelock[_fn] <= block.timestamp */\n    tag_292:\n        /* \"contracts/libraries/TimeLock.sol\":2017:2119  timelock[_fn] != 0 && timelock[_fn] <= block.timestamp && timelock[_fn] + _TIMELOCK >= block.timestamp */\n      dup1\n      iszero\n      tag_294\n      jumpi\n      pop\n        /* \"contracts/libraries/TimeLock.sol\":2104:2119  block.timestamp */\n      timestamp\n        /* \"contracts/libraries/TimeLock.sol\":861:867  1 days */\n      0x015180\n        /* \"contracts/libraries/TimeLock.sol\":2075:2083  timelock */\n      0x01\n        /* \"contracts/libraries/TimeLock.sol\":2084:2087  _fn */\n      dup4\n        /* \"contracts/libraries/TimeLock.sol\":2075:2088  timelock[_fn] */\n      mload(0x40)\n      tag_295\n      swap2\n      swap1\n      tag_456\n      jump\t// in\n    tag_295:\n      swap1\n      dup2\n      mstore\n      0x20\n      add\n      mload(0x40)\n      dup1\n      swap2\n      sub\n      swap1\n      keccak256\n      sload\n        /* \"contracts/libraries/TimeLock.sol\":2075:2100  timelock[_fn] + _TIMELOCK */\n      tag_296\n      swap2\n      swap1\n      tag_212\n      jump\t// in\n    tag_296:\n        /* \"contracts/libraries/TimeLock.sol\":2075:2119  timelock[_fn] + _TIMELOCK >= block.timestamp */\n      lt\n      iszero\n        /* \"contracts/libraries/TimeLock.sol\":2017:2119  timelock[_fn] != 0 && timelock[_fn] <= block.timestamp && timelock[_fn] + _TIMELOCK >= block.timestamp */\n    tag_294:\n        /* \"contracts/libraries/TimeLock.sol\":1990:2143  require(!isLockEnabled || (timelock[_fn] != 0 && timelock[_fn] <= block.timestamp && timelock[_fn] + _TIMELOCK >= block.timestamp), \"Function is locked\") */\n      tag_297\n      jumpi\n      mload(0x40)\n      shl(0xe5, 0x461bcd)\n      dup2\n      mstore\n      0x04\n      add\n      tag_201\n      swap1\n      tag_215\n      jump\t// in\n    tag_297:\n        /* \"contracts/chains/polygon/RewardSystem.sol\":4538:4569  transferOwnership(oracleWallet) */\n      tag_300\n        /* \"contracts/chains/polygon/RewardSystem.sol\":4556:4568  oracleWallet */\n      dup3\n        /* \"contracts/chains/polygon/RewardSystem.sol\":4538:4555  transferOwnership */\n      tag_171\n        /* \"contracts/chains/polygon/RewardSystem.sol\":4538:4569  transferOwnership(oracleWallet) */\n      jump\t// in\n    tag_300:\n        /* \"contracts/chains/polygon/RewardSystem.sol\":4598:4611  _oracleWallet */\n      0x06\n      dup1\n      sload\n      sub(shl(0xa0, 0x01), 0x01)\n        /* \"contracts/chains/polygon/RewardSystem.sol\":4621:4649  _oracleWallet = oracleWallet */\n      dup5\n      dup2\n      and\n      not(sub(shl(0xa0, 0x01), 0x01))\n      dup4\n      and\n      dup2\n      or\n      swap1\n      swap4\n      sstore\n        /* \"contracts/chains/polygon/RewardSystem.sol\":4664:4708  ChangedOracleWallet(previous, _oracleWallet) */\n      mload(0x40)\n        /* \"contracts/chains/polygon/RewardSystem.sol\":4598:4611  _oracleWallet */\n      swap2\n      and\n      swap2\n        /* \"contracts/chains/polygon/RewardSystem.sol\":4621:4649  _oracleWallet = oracleWallet */\n      swap1\n        /* \"contracts/chains/polygon/RewardSystem.sol\":4598:4611  _oracleWallet */\n      dup3\n      swap1\n        /* \"contracts/chains/polygon/RewardSystem.sol\":4664:4708  ChangedOracleWallet(previous, _oracleWallet) */\n      0x3920ecd0f25e4e6ce57aaec91e57df499cb7e3e70d6c9604f866ae9265382cf3\n      swap1\n        /* \"contracts/chains/polygon/RewardSystem.sol\":4579:4595  address previous */\n      0x00\n      swap1\n        /* \"contracts/chains/polygon/RewardSystem.sol\":4664:4708  ChangedOracleWallet(previous, _oracleWallet) */\n      log3\n        /* \"contracts/chains/polygon/RewardSystem.sol\":4528:4715  {... */\n      pop\n        /* \"contracts/libraries/TimeLock.sol\":2164:2181  lockFunction(_fn) */\n      tag_221\n        /* \"contracts/libraries/TimeLock.sol\":2177:2180  _fn */\n      dup2\n        /* \"contracts/libraries/TimeLock.sol\":2164:2176  lockFunction */\n      tag_123\n        /* \"contracts/libraries/TimeLock.sol\":2164:2181  lockFunction(_fn) */\n      jump\t// in\n        /* \"@openzeppelin/contracts/access/Ownable.sol\":1605:1697  function renounceOwnership() public virtual onlyOwner {... */\n    tag_90:\n        /* \"@openzeppelin/contracts/access/Ownable.sol\":1019:1026  address */\n      0x00\n        /* \"@openzeppelin/contracts/access/Ownable.sol\":1045:1051  _owner */\n      sload\n      sub(shl(0xa0, 0x01), 0x01)\n      and\n        /* \"@openzeppelin/contracts/utils/Context.sol\":665:675  msg.sender */\n      caller\n        /* \"@openzeppelin/contracts/access/Ownable.sol\":1185:1208  owner() == _msgSender() */\n      eq\n        /* \"@openzeppelin/contracts/access/Ownable.sol\":1177:1245  require(owner() == _msgSender(), \"Ownable: caller is not the owner\") */\n      tag_306\n      jumpi\n      mload(0x40)\n      shl(0xe5, 0x461bcd)\n      dup2\n      mstore\n      0x04\n      add\n      tag_201\n      swap1\n      tag_228\n      jump\t// in\n    tag_306:\n        /* \"@openzeppelin/contracts/access/Ownable.sol\":1669:1690  _setOwner(address(0)) */\n      tag_309\n        /* \"@openzeppelin/contracts/access/Ownable.sol\":1687:1688  0 */\n      0x00\n        /* \"@openzeppelin/contracts/access/Ownable.sol\":1669:1678  _setOwner */\n      tag_310\n        /* \"@openzeppelin/contracts/access/Ownable.sol\":1669:1690  _setOwner(address(0)) */\n      jump\t// in\n    tag_309:\n        /* \"@openzeppelin/contracts/access/Ownable.sol\":1605:1697  function renounceOwnership() public virtual onlyOwner {... */\n      jump\t// out\n        /* \"contracts/chains/polygon/RewardSystem.sol\":3205:3351  function canClaimNative(address user) public view returns (bool) {... */\n    tag_104:\n        /* \"contracts/chains/polygon/RewardSystem.sol\":3307:3325  _timeBetweenClaims */\n      sload(0x0a)\n      sub(shl(0xa0, 0x01), 0x01)\n        /* \"contracts/chains/polygon/RewardSystem.sol\":3287:3304  _claimTimes[user] */\n      dup3\n      and\n        /* \"contracts/chains/polygon/RewardSystem.sol\":3264:3268  bool */\n      0x00\n        /* \"contracts/chains/polygon/RewardSystem.sol\":3287:3304  _claimTimes[user] */\n      swap1\n      dup2\n      mstore\n        /* \"contracts/chains/polygon/RewardSystem.sol\":3287:3298  _claimTimes */\n      0x04\n        /* \"contracts/chains/polygon/RewardSystem.sol\":3287:3304  _claimTimes[user] */\n      0x20\n      mstore\n      0x40\n      dup2\n      keccak256\n      sload\n        /* \"contracts/chains/polygon/RewardSystem.sol\":3264:3268  bool */\n      swap1\n      swap2\n        /* \"contracts/chains/polygon/RewardSystem.sol\":3329:3344  block.timestamp */\n      timestamp\n      swap2\n        /* \"contracts/chains/polygon/RewardSystem.sol\":3287:3325  _claimTimes[user] + _timeBetweenClaims */\n      tag_312\n      swap2\n        /* \"contracts/chains/polygon/RewardSystem.sol\":3307:3325  _timeBetweenClaims */\n      swap1\n        /* \"contracts/chains/polygon/RewardSystem.sol\":3287:3325  _claimTimes[user] + _timeBetweenClaims */\n      tag_212\n      jump\t// in\n    tag_312:\n        /* \"contracts/chains/polygon/RewardSystem.sol\":3287:3344  _claimTimes[user] + _timeBetweenClaims <= block.timestamp */\n      gt\n      iszero\n      swap3\n        /* \"contracts/chains/polygon/RewardSystem.sol\":3205:3351  function canClaimNative(address user) public view returns (bool) {... */\n      swap2\n      pop\n      pop\n      jump\t// out\n        /* \"contracts/chains/polygon/RewardSystem.sol\":3686:3850  function adjustGasCost(uint256 gasCost) public onlyOwner locked(\"adjustGasCost\") {... */\n    tag_110:\n        /* \"@openzeppelin/contracts/access/Ownable.sol\":1019:1026  address */\n      0x00\n        /* \"@openzeppelin/contracts/access/Ownable.sol\":1045:1051  _owner */\n      sload\n      sub(shl(0xa0, 0x01), 0x01)\n      and\n        /* \"@openzeppelin/contracts/utils/Context.sol\":665:675  msg.sender */\n      caller\n        /* \"@openzeppelin/contracts/access/Ownable.sol\":1185:1208  owner() == _msgSender() */\n      eq\n        /* \"@openzeppelin/contracts/access/Ownable.sol\":1177:1245  require(owner() == _msgSender(), \"Ownable: caller is not the owner\") */\n      tag_316\n      jumpi\n      mload(0x40)\n      shl(0xe5, 0x461bcd)\n      dup2\n      mstore\n      0x04\n      add\n      tag_201\n      swap1\n      tag_228\n      jump\t// in\n    tag_316:\n        /* \"contracts/libraries/TimeLock.sol\":1945:2188  modifier locked(string memory _fn) {... */\n      0x40\n      dup1\n      mload\n      dup1\n      dup3\n      add\n      swap1\n      swap2\n      mstore\n      0x0d\n      dup2\n      mstore\n      shl(0x9a, 0x18591a9d5cdd11d85cd0dbdcdd)\n      0x20\n      dup3\n      add\n      mstore\n      0x00\n        /* \"contracts/libraries/TimeLock.sol\":1999:2012  isLockEnabled */\n      sload\n      shl(0xa0, 0x01)\n      swap1\n      div\n      0xff\n      and\n        /* \"contracts/libraries/TimeLock.sol\":1998:2012  !isLockEnabled */\n      iszero\n      dup1\n        /* \"contracts/libraries/TimeLock.sol\":1998:2120  !isLockEnabled || (timelock[_fn] != 0 && timelock[_fn] <= block.timestamp && timelock[_fn] + _TIMELOCK >= block.timestamp) */\n      tag_323\n      jumpi\n      pop\n        /* \"contracts/libraries/TimeLock.sol\":2017:2025  timelock */\n      0x01\n        /* \"contracts/libraries/TimeLock.sol\":2026:2029  _fn */\n      dup2\n        /* \"contracts/libraries/TimeLock.sol\":2017:2030  timelock[_fn] */\n      mload(0x40)\n      tag_320\n      swap2\n      swap1\n      tag_456\n      jump\t// in\n    tag_320:\n      swap1\n      dup2\n      mstore\n      0x20\n      add\n      mload(0x40)\n      dup1\n      swap2\n      sub\n      swap1\n      keccak256\n      sload\n        /* \"contracts/libraries/TimeLock.sol\":2034:2035  0 */\n      0x00\n        /* \"contracts/libraries/TimeLock.sol\":2017:2035  timelock[_fn] != 0 */\n      eq\n      iszero\n        /* \"contracts/libraries/TimeLock.sol\":2017:2071  timelock[_fn] != 0 && timelock[_fn] <= block.timestamp */\n      dup1\n      iszero\n      tag_321\n      jumpi\n      pop\n        /* \"contracts/libraries/TimeLock.sol\":2056:2071  block.timestamp */\n      timestamp\n        /* \"contracts/libraries/TimeLock.sol\":2039:2047  timelock */\n      0x01\n        /* \"contracts/libraries/TimeLock.sol\":2048:2051  _fn */\n      dup3\n        /* \"contracts/libraries/TimeLock.sol\":2039:2052  timelock[_fn] */\n      mload(0x40)\n      tag_322\n      swap2\n      swap1\n      tag_456\n      jump\t// in\n    tag_322:\n      swap1\n      dup2\n      mstore\n      0x20\n      add\n      mload(0x40)\n      dup1\n      swap2\n      sub\n      swap1\n      keccak256\n      sload\n        /* \"contracts/libraries/TimeLock.sol\":2039:2071  timelock[_fn] <= block.timestamp */\n      gt\n      iszero\n        /* \"contracts/libraries/TimeLock.sol\":2017:2071  timelock[_fn] != 0 && timelock[_fn] <= block.timestamp */\n    tag_321:\n        /* \"contracts/libraries/TimeLock.sol\":2017:2119  timelock[_fn] != 0 && timelock[_fn] <= block.timestamp && timelock[_fn] + _TIMELOCK >= block.timestamp */\n      dup1\n      iszero\n      tag_323\n      jumpi\n      pop\n        /* \"contracts/libraries/TimeLock.sol\":2104:2119  block.timestamp */\n      timestamp\n        /* \"contracts/libraries/TimeLock.sol\":861:867  1 days */\n      0x015180\n        /* \"contracts/libraries/TimeLock.sol\":2075:2083  timelock */\n      0x01\n        /* \"contracts/libraries/TimeLock.sol\":2084:2087  _fn */\n      dup4\n        /* \"contracts/libraries/TimeLock.sol\":2075:2088  timelock[_fn] */\n      mload(0x40)\n      tag_324\n      swap2\n      swap1\n      tag_456\n      jump\t// in\n    tag_324:\n      swap1\n      dup2\n      mstore\n      0x20\n      add\n      mload(0x40)\n      dup1\n      swap2\n      sub\n      swap1\n      keccak256\n      sload\n        /* \"contracts/libraries/TimeLock.sol\":2075:2100  timelock[_fn] + _TIMELOCK */\n      tag_325\n      swap2\n      swap1\n      tag_212\n      jump\t// in\n    tag_325:\n        /* \"contracts/libraries/TimeLock.sol\":2075:2119  timelock[_fn] + _TIMELOCK >= block.timestamp */\n      lt\n      iszero\n        /* \"contracts/libraries/TimeLock.sol\":2017:2119  timelock[_fn] != 0 && timelock[_fn] <= block.timestamp && timelock[_fn] + _TIMELOCK >= block.timestamp */\n    tag_323:\n        /* \"contracts/libraries/TimeLock.sol\":1990:2143  require(!isLockEnabled || (timelock[_fn] != 0 && timelock[_fn] <= block.timestamp && timelock[_fn] + _TIMELOCK >= block.timestamp), \"Function is locked\") */\n      tag_326\n      jumpi\n      mload(0x40)\n      shl(0xe5, 0x461bcd)\n      dup2\n      mstore\n      0x04\n      add\n      tag_201\n      swap1\n      tag_215\n      jump\t// in\n    tag_326:\n        /* \"contracts/chains/polygon/RewardSystem.sol\":3797:3805  _gasCost */\n      sload(0x05)\n        /* \"contracts/chains/polygon/RewardSystem.sol\":3782:3815  ChangedGasCost(_gasCost, gasCost) */\n      mload(0x40)\n        /* \"contracts/chains/polygon/RewardSystem.sol\":3807:3814  gasCost */\n      dup4\n      swap2\n        /* \"contracts/chains/polygon/RewardSystem.sol\":3797:3805  _gasCost */\n      swap1\n        /* \"contracts/chains/polygon/RewardSystem.sol\":3782:3815  ChangedGasCost(_gasCost, gasCost) */\n      0xc3dc19678fd7390a5c1197decfaec52d8a1c63c49f0a51db570f5fe5040c5f73\n      swap1\n      0x00\n      swap1\n      log3\n        /* \"contracts/chains/polygon/RewardSystem.sol\":3825:3833  _gasCost */\n      0x05\n        /* \"contracts/chains/polygon/RewardSystem.sol\":3825:3843  _gasCost = gasCost */\n      dup3\n      swap1\n      sstore\n        /* \"contracts/libraries/TimeLock.sol\":2164:2181  lockFunction(_fn) */\n      tag_221\n        /* \"contracts/libraries/TimeLock.sol\":2177:2180  _fn */\n      dup2\n        /* \"contracts/libraries/TimeLock.sol\":4317:4421  function lockFunction(string memory _fn) public onlyMaintainerOrOwner {... */\n    tag_123:\n        /* \"contracts/libraries/TimeLock.sol\":2264:2274  msg.sender */\n      caller\n        /* \"contracts/libraries/TimeLock.sol\":2253:2260  owner() */\n      tag_333\n        /* \"@openzeppelin/contracts/access/Ownable.sol\":1019:1026  address */\n      0x00\n        /* \"@openzeppelin/contracts/access/Ownable.sol\":1045:1051  _owner */\n      sload\n      sub(shl(0xa0, 0x01), 0x01)\n      and\n      swap1\n        /* \"@openzeppelin/contracts/access/Ownable.sol\":973:1058  function owner() public view virtual returns (address) {... */\n      jump\n        /* \"contracts/libraries/TimeLock.sol\":2253:2260  owner() */\n    tag_333:\n      sub(shl(0xa0, 0x01), 0x01)\n        /* \"contracts/libraries/TimeLock.sol\":2253:2274  owner() == msg.sender */\n      and\n      eq\n        /* \"contracts/libraries/TimeLock.sol\":2253:2303  owner() == msg.sender || _maintainer == msg.sender */\n      dup1\n      tag_334\n      jumpi\n      pop\n        /* \"contracts/libraries/TimeLock.sol\":2278:2289  _maintainer */\n      and(sub(shl(0xa0, 0x01), 0x01), sload(0x02))\n        /* \"contracts/libraries/TimeLock.sol\":2293:2303  msg.sender */\n      caller\n        /* \"contracts/libraries/TimeLock.sol\":2278:2303  _maintainer == msg.sender */\n      eq\n        /* \"contracts/libraries/TimeLock.sol\":2253:2303  owner() == msg.sender || _maintainer == msg.sender */\n    tag_334:\n        /* \"contracts/libraries/TimeLock.sol\":2245:2361  require(owner() == msg.sender || _maintainer == msg.sender, \"operator: caller is not allowed to call this function\") */\n      tag_335\n      jumpi\n      mload(0x40)\n      shl(0xe5, 0x461bcd)\n      dup2\n      mstore\n      0x04\n      add\n      tag_201\n      swap1\n      tag_202\n      jump\t// in\n    tag_335:\n        /* \"contracts/libraries/TimeLock.sol\":4413:4414  0 */\n      0x00\n        /* \"contracts/libraries/TimeLock.sol\":4397:4405  timelock */\n      0x01\n        /* \"contracts/libraries/TimeLock.sol\":4406:4409  _fn */\n      dup3\n        /* \"contracts/libraries/TimeLock.sol\":4397:4410  timelock[_fn] */\n      mload(0x40)\n      tag_338\n      swap2\n      swap1\n      tag_456\n      jump\t// in\n    tag_338:\n      swap1\n      dup2\n      mstore\n      mload(0x40)\n      swap1\n      dup2\n      swap1\n      sub\n      0x20\n      add\n      swap1\n      keccak256\n        /* \"contracts/libraries/TimeLock.sol\":4397:4414  timelock[_fn] = 0 */\n      sstore\n      pop\n        /* \"contracts/libraries/TimeLock.sol\":4317:4421  function lockFunction(string memory _fn) public onlyMaintainerOrOwner {... */\n      jump\t// out\n        /* \"contracts/libraries/TimeLock.sol\":4100:4284  function unlockFunction(string memory _fn) public onlyMaintainerOrOwner {... */\n    tag_135:\n        /* \"contracts/libraries/TimeLock.sol\":2264:2274  msg.sender */\n      caller\n        /* \"contracts/libraries/TimeLock.sol\":2253:2260  owner() */\n      tag_340\n        /* \"@openzeppelin/contracts/access/Ownable.sol\":1019:1026  address */\n      0x00\n        /* \"@openzeppelin/contracts/access/Ownable.sol\":1045:1051  _owner */\n      sload\n      sub(shl(0xa0, 0x01), 0x01)\n      and\n      swap1\n        /* \"@openzeppelin/contracts/access/Ownable.sol\":973:1058  function owner() public view virtual returns (address) {... */\n      jump\n        /* \"contracts/libraries/TimeLock.sol\":2253:2260  owner() */\n    tag_340:\n      sub(shl(0xa0, 0x01), 0x01)\n        /* \"contracts/libraries/TimeLock.sol\":2253:2274  owner() == msg.sender */\n      and\n      eq\n        /* \"contracts/libraries/TimeLock.sol\":2253:2303  owner() == msg.sender || _maintainer == msg.sender */\n      dup1\n      tag_341\n      jumpi\n      pop\n        /* \"contracts/libraries/TimeLock.sol\":2278:2289  _maintainer */\n      and(sub(shl(0xa0, 0x01), 0x01), sload(0x02))\n        /* \"contracts/libraries/TimeLock.sol\":2293:2303  msg.sender */\n      caller\n        /* \"contracts/libraries/TimeLock.sol\":2278:2303  _maintainer == msg.sender */\n      eq\n        /* \"contracts/libraries/TimeLock.sol\":2253:2303  owner() == msg.sender || _maintainer == msg.sender */\n    tag_341:\n        /* \"contracts/libraries/TimeLock.sol\":2245:2361  require(owner() == msg.sender || _maintainer == msg.sender, \"operator: caller is not allowed to call this function\") */\n      tag_342\n      jumpi\n      mload(0x40)\n      shl(0xe5, 0x461bcd)\n      dup2\n      mstore\n      0x04\n      add\n      tag_201\n      swap1\n      tag_202\n      jump\t// in\n    tag_342:\n        /* \"contracts/libraries/TimeLock.sol\":4198:4225  block.timestamp + _TIMELOCK */\n      tag_345\n        /* \"contracts/libraries/TimeLock.sol\":861:867  1 days */\n      0x015180\n        /* \"contracts/libraries/TimeLock.sol\":4198:4213  block.timestamp */\n      timestamp\n        /* \"contracts/libraries/TimeLock.sol\":4198:4225  block.timestamp + _TIMELOCK */\n      tag_212\n      jump\t// in\n    tag_345:\n        /* \"contracts/libraries/TimeLock.sol\":4182:4190  timelock */\n      0x01\n        /* \"contracts/libraries/TimeLock.sol\":4191:4194  _fn */\n      dup3\n        /* \"contracts/libraries/TimeLock.sol\":4182:4195  timelock[_fn] */\n      mload(0x40)\n      tag_346\n      swap2\n      swap1\n      tag_456\n      jump\t// in\n    tag_346:\n      swap1\n      dup2\n      mstore\n      0x20\n      add\n      mload(0x40)\n      dup1\n      swap2\n      sub\n      swap1\n      keccak256\n        /* \"contracts/libraries/TimeLock.sol\":4182:4225  timelock[_fn] = block.timestamp + _TIMELOCK */\n      dup2\n      swap1\n      sstore\n      pop\n        /* \"contracts/libraries/TimeLock.sol\":4262:4270  timelock */\n      0x01\n        /* \"contracts/libraries/TimeLock.sol\":4271:4274  _fn */\n      dup2\n        /* \"contracts/libraries/TimeLock.sol\":4262:4275  timelock[_fn] */\n      mload(0x40)\n      tag_347\n      swap2\n      swap1\n      tag_456\n      jump\t// in\n    tag_347:\n      swap1\n      dup2\n      mstore\n      0x20\n      add\n      mload(0x40)\n      dup1\n      swap2\n      sub\n      swap1\n      keccak256\n      sload\n        /* \"contracts/libraries/TimeLock.sol\":4257:4260  _fn */\n      dup2\n        /* \"contracts/libraries/TimeLock.sol\":4240:4276  UnlockedFunction(_fn, timelock[_fn]) */\n      mload(0x40)\n      tag_348\n      swap2\n      swap1\n      tag_456\n      jump\t// in\n    tag_348:\n      mload(0x40)\n      swap1\n      dup2\n      swap1\n      sub\n      dup2\n      keccak256\n      swap1\n      0xf77f9a799fe8b0be1463abd7459a18fc55dfd8a6a24ddd29b54fd098088089c8\n      swap1\n      0x00\n      swap1\n      log3\n        /* \"contracts/libraries/TimeLock.sol\":4100:4284  function unlockFunction(string memory _fn) public onlyMaintainerOrOwner {... */\n      pop\n      jump\t// out\n        /* \"contracts/chains/polygon/RewardSystem.sol\":3078:3199  function canClaim(address user) public view returns (bool) {... */\n    tag_144:\n      sub(shl(0xa0, 0x01), 0x01)\n        /* \"contracts/chains/polygon/RewardSystem.sol\":3154:3168  _rewards[user] */\n      dup2\n      and\n        /* \"contracts/chains/polygon/RewardSystem.sol\":3131:3135  bool */\n      0x00\n        /* \"contracts/chains/polygon/RewardSystem.sol\":3154:3168  _rewards[user] */\n      swap1\n      dup2\n      mstore\n        /* \"contracts/chains/polygon/RewardSystem.sol\":3154:3162  _rewards */\n      0x03\n        /* \"contracts/chains/polygon/RewardSystem.sol\":3154:3168  _rewards[user] */\n      0x20\n      mstore\n      0x40\n      dup2\n      keccak256\n      sload\n      0xff\n      and\n        /* \"contracts/chains/polygon/RewardSystem.sol\":3154:3192  _rewards[user] && canClaimNative(user) */\n      dup1\n      iszero\n      tag_351\n      jumpi\n      pop\n        /* \"contracts/chains/polygon/RewardSystem.sol\":3172:3192  canClaimNative(user) */\n      tag_351\n        /* \"contracts/chains/polygon/RewardSystem.sol\":3187:3191  user */\n      dup3\n        /* \"contracts/chains/polygon/RewardSystem.sol\":3172:3186  canClaimNative */\n      tag_104\n        /* \"contracts/chains/polygon/RewardSystem.sol\":3172:3192  canClaimNative(user) */\n      jump\t// in\n    tag_351:\n        /* \"contracts/chains/polygon/RewardSystem.sol\":3147:3192  return _rewards[user] && canClaimNative(user) */\n      swap3\n        /* \"contracts/chains/polygon/RewardSystem.sol\":3078:3199  function canClaim(address user) public view returns (bool) {... */\n      swap2\n      pop\n      pop\n      jump\t// out\n        /* \"contracts/chains/polygon/RewardSystem.sol\":4725:4821  function setRouter(IUniswapV2Router02 router) public onlyOwner {... */\n    tag_150:\n        /* \"@openzeppelin/contracts/access/Ownable.sol\":1019:1026  address */\n      0x00\n        /* \"@openzeppelin/contracts/access/Ownable.sol\":1045:1051  _owner */\n      sload\n      sub(shl(0xa0, 0x01), 0x01)\n      and\n        /* \"@openzeppelin/contracts/utils/Context.sol\":665:675  msg.sender */\n      caller\n        /* \"@openzeppelin/contracts/access/Ownable.sol\":1185:1208  owner() == _msgSender() */\n      eq\n        /* \"@openzeppelin/contracts/access/Ownable.sol\":1177:1245  require(owner() == _msgSender(), \"Ownable: caller is not the owner\") */\n      tag_355\n      jumpi\n      mload(0x40)\n      shl(0xe5, 0x461bcd)\n      dup2\n      mstore\n      0x04\n      add\n      tag_201\n      swap1\n      tag_228\n      jump\t// in\n    tag_355:\n        /* \"contracts/chains/polygon/RewardSystem.sol\":4798:4805  _router */\n      0x0b\n        /* \"contracts/chains/polygon/RewardSystem.sol\":4798:4814  _router = router */\n      dup1\n      sload\n      not(sub(shl(0xa0, 0x01), 0x01))\n      and\n      sub(shl(0xa0, 0x01), 0x01)\n      swap3\n      swap1\n      swap3\n      and\n      swap2\n      swap1\n      swap2\n      or\n      swap1\n      sstore\n        /* \"contracts/chains/polygon/RewardSystem.sol\":4725:4821  function setRouter(IUniswapV2Router02 router) public onlyOwner {... */\n      jump\t// out\n        /* \"contracts/chains/polygon/RewardSystem.sol\":6115:7096  function sendRewardsAsEth(uint256 amount, address user) public onlyOwner {... */\n    tag_155:\n        /* \"@openzeppelin/contracts/access/Ownable.sol\":1019:1026  address */\n      0x00\n        /* \"@openzeppelin/contracts/access/Ownable.sol\":1045:1051  _owner */\n      sload\n      sub(shl(0xa0, 0x01), 0x01)\n      and\n        /* \"@openzeppelin/contracts/utils/Context.sol\":665:675  msg.sender */\n      caller\n        /* \"@openzeppelin/contracts/access/Ownable.sol\":1185:1208  owner() == _msgSender() */\n      eq\n        /* \"@openzeppelin/contracts/access/Ownable.sol\":1177:1245  require(owner() == _msgSender(), \"Ownable: caller is not the owner\") */\n      tag_361\n      jumpi\n      mload(0x40)\n      shl(0xe5, 0x461bcd)\n      dup2\n      mstore\n      0x04\n      add\n      tag_201\n      swap1\n      tag_228\n      jump\t// in\n    tag_361:\n        /* \"contracts/chains/polygon/RewardSystem.sol\":6214:6221  _router */\n      and(sub(shl(0xa0, 0x01), 0x01), sload(0x0b))\n        /* \"contracts/chains/polygon/RewardSystem.sol\":6198:6315  require(address(_router) != address(0), \"ABOAT::sendRewardsAsEth: There is no router defined to swap tokens for eth\") */\n      tag_364\n      jumpi\n      mload(0x40)\n      shl(0xe5, 0x461bcd)\n      dup2\n      mstore\n        /* \"#utility.yul\":9932:9934   */\n      0x20\n        /* \"contracts/chains/polygon/RewardSystem.sol\":6198:6315  require(address(_router) != address(0), \"ABOAT::sendRewardsAsEth: There is no router defined to swap tokens for eth\") */\n      0x04\n      dup3\n      add\n        /* \"#utility.yul\":9914:9935   */\n      mstore\n        /* \"#utility.yul\":9971:9973   */\n      0x4a\n        /* \"#utility.yul\":9951:9969   */\n      0x24\n      dup3\n      add\n        /* \"#utility.yul\":9944:9974   */\n      mstore\n        /* \"#utility.yul\":10010:10044   */\n      0x41424f41543a3a73656e645265776172647341734574683a2054686572652069\n        /* \"#utility.yul\":9990:10008   */\n      0x44\n      dup3\n      add\n        /* \"#utility.yul\":9983:10045   */\n      mstore\n        /* \"#utility.yul\":10081:10115   */\n      0x73206e6f20726f7574657220646566696e656420746f207377617020746f6b65\n        /* \"#utility.yul\":10061:10079   */\n      0x64\n      dup3\n      add\n        /* \"#utility.yul\":10054:10116   */\n      mstore\n      shl(0xb3, 0x0dce640ccdee440cae8d)\n        /* \"#utility.yul\":10132:10151   */\n      0x84\n      dup3\n      add\n        /* \"#utility.yul\":10125:10166   */\n      mstore\n        /* \"#utility.yul\":10183:10202   */\n      0xa4\n      add\n        /* \"contracts/chains/polygon/RewardSystem.sol\":6198:6315  require(address(_router) != address(0), \"ABOAT::sendRewardsAsEth: There is no router defined to swap tokens for eth\") */\n      tag_201\n        /* \"#utility.yul\":9730:10208   */\n      jump\n        /* \"contracts/chains/polygon/RewardSystem.sol\":6198:6315  require(address(_router) != address(0), \"ABOAT::sendRewardsAsEth: There is no router defined to swap tokens for eth\") */\n    tag_364:\n        /* \"contracts/chains/polygon/RewardSystem.sol\":6343:6355  getBalance() */\n      tag_367\n        /* \"contracts/chains/polygon/RewardSystem.sol\":6343:6353  getBalance */\n      tag_57\n        /* \"contracts/chains/polygon/RewardSystem.sol\":6343:6355  getBalance() */\n      jump\t// in\n    tag_367:\n        /* \"contracts/chains/polygon/RewardSystem.sol\":6333:6339  amount */\n      dup3\n        /* \"contracts/chains/polygon/RewardSystem.sol\":6333:6355  amount <= getBalance() */\n      gt\n      iszero\n        /* \"contracts/chains/polygon/RewardSystem.sol\":6325:6431  require(amount <= getBalance(), \"ABOAT::sendRewardsAsEth: Can't send more rewards than in reward system!\") */\n      tag_368\n      jumpi\n      mload(0x40)\n      shl(0xe5, 0x461bcd)\n      dup2\n      mstore\n        /* \"#utility.yul\":11612:11614   */\n      0x20\n        /* \"contracts/chains/polygon/RewardSystem.sol\":6325:6431  require(amount <= getBalance(), \"ABOAT::sendRewardsAsEth: Can't send more rewards than in reward system!\") */\n      0x04\n      dup3\n      add\n        /* \"#utility.yul\":11594:11615   */\n      mstore\n        /* \"#utility.yul\":11651:11653   */\n      0x47\n        /* \"#utility.yul\":11631:11649   */\n      0x24\n      dup3\n      add\n        /* \"#utility.yul\":11624:11654   */\n      mstore\n        /* \"#utility.yul\":11690:11724   */\n      0x41424f41543a3a73656e645265776172647341734574683a2043616e27742073\n        /* \"#utility.yul\":11670:11688   */\n      0x44\n      dup3\n      add\n        /* \"#utility.yul\":11663:11725   */\n      mstore\n        /* \"#utility.yul\":11761:11795   */\n      0x656e64206d6f72652072657761726473207468616e20696e2072657761726420\n        /* \"#utility.yul\":11741:11759   */\n      0x64\n      dup3\n      add\n        /* \"#utility.yul\":11734:11796   */\n      mstore\n      shl(0xc8, 0x73797374656d21)\n        /* \"#utility.yul\":11812:11831   */\n      0x84\n      dup3\n      add\n        /* \"#utility.yul\":11805:11843   */\n      mstore\n        /* \"#utility.yul\":11860:11879   */\n      0xa4\n      add\n        /* \"contracts/chains/polygon/RewardSystem.sol\":6325:6431  require(amount <= getBalance(), \"ABOAT::sendRewardsAsEth: Can't send more rewards than in reward system!\") */\n      tag_201\n        /* \"#utility.yul\":11410:11885   */\n      jump\n        /* \"contracts/chains/polygon/RewardSystem.sol\":6325:6431  require(amount <= getBalance(), \"ABOAT::sendRewardsAsEth: Can't send more rewards than in reward system!\") */\n    tag_368:\n        /* \"contracts/chains/polygon/RewardSystem.sol\":6459:6479  _maxAmountPerReceive */\n      sload(0x09)\n        /* \"contracts/chains/polygon/RewardSystem.sol\":6449:6455  amount */\n      dup3\n        /* \"contracts/chains/polygon/RewardSystem.sol\":6449:6479  amount <= _maxAmountPerReceive */\n      gt\n      iszero\n        /* \"contracts/chains/polygon/RewardSystem.sol\":6441:6544  require(amount <= _maxAmountPerReceive, \"ABOAT::sendRewardsAsEth: Can't send more rewards than limit!\") */\n      tag_371\n      jumpi\n      mload(0x40)\n      shl(0xe5, 0x461bcd)\n      dup2\n      mstore\n        /* \"#utility.yul\":8653:8655   */\n      0x20\n        /* \"contracts/chains/polygon/RewardSystem.sol\":6441:6544  require(amount <= _maxAmountPerReceive, \"ABOAT::sendRewardsAsEth: Can't send more rewards than limit!\") */\n      0x04\n      dup3\n      add\n        /* \"#utility.yul\":8635:8656   */\n      mstore\n        /* \"#utility.yul\":8692:8694   */\n      0x3c\n        /* \"#utility.yul\":8672:8690   */\n      0x24\n      dup3\n      add\n        /* \"#utility.yul\":8665:8695   */\n      mstore\n        /* \"#utility.yul\":8731:8765   */\n      0x41424f41543a3a73656e645265776172647341734574683a2043616e27742073\n        /* \"#utility.yul\":8711:8729   */\n      0x44\n      dup3\n      add\n        /* \"#utility.yul\":8704:8766   */\n      mstore\n        /* \"#utility.yul\":8802:8832   */\n      0x656e64206d6f72652072657761726473207468616e206c696d69742100000000\n        /* \"#utility.yul\":8782:8800   */\n      0x64\n      dup3\n      add\n        /* \"#utility.yul\":8775:8833   */\n      mstore\n        /* \"#utility.yul\":8850:8869   */\n      0x84\n      add\n        /* \"contracts/chains/polygon/RewardSystem.sol\":6441:6544  require(amount <= _maxAmountPerReceive, \"ABOAT::sendRewardsAsEth: Can't send more rewards than limit!\") */\n      tag_201\n        /* \"#utility.yul\":8451:8875   */\n      jump\n        /* \"contracts/chains/polygon/RewardSystem.sol\":6441:6544  require(amount <= _maxAmountPerReceive, \"ABOAT::sendRewardsAsEth: Can't send more rewards than limit!\") */\n    tag_371:\n        /* \"contracts/chains/polygon/RewardSystem.sol\":6562:6582  canClaimNative(user) */\n      tag_374\n        /* \"contracts/chains/polygon/RewardSystem.sol\":6577:6581  user */\n      dup2\n        /* \"contracts/chains/polygon/RewardSystem.sol\":6562:6576  canClaimNative */\n      tag_104\n        /* \"contracts/chains/polygon/RewardSystem.sol\":6562:6582  canClaimNative(user) */\n      jump\t// in\n    tag_374:\n        /* \"contracts/chains/polygon/RewardSystem.sol\":6554:6646  require(canClaimNative(user), \"ABOAT::sendRewardsAsEth: Can't claim more than once per day\") */\n      tag_375\n      jumpi\n      mload(0x40)\n      shl(0xe5, 0x461bcd)\n      dup2\n      mstore\n        /* \"#utility.yul\":10415:10417   */\n      0x20\n        /* \"contracts/chains/polygon/RewardSystem.sol\":6554:6646  require(canClaimNative(user), \"ABOAT::sendRewardsAsEth: Can't claim more than once per day\") */\n      0x04\n      dup3\n      add\n        /* \"#utility.yul\":10397:10418   */\n      mstore\n        /* \"#utility.yul\":10454:10456   */\n      0x3b\n        /* \"#utility.yul\":10434:10452   */\n      0x24\n      dup3\n      add\n        /* \"#utility.yul\":10427:10457   */\n      mstore\n        /* \"#utility.yul\":10493:10527   */\n      0x41424f41543a3a73656e645265776172647341734574683a2043616e27742063\n        /* \"#utility.yul\":10473:10491   */\n      0x44\n      dup3\n      add\n        /* \"#utility.yul\":10466:10528   */\n      mstore\n        /* \"#utility.yul\":10564:10593   */\n      0x6c61696d206d6f7265207468616e206f6e636520706572206461790000000000\n        /* \"#utility.yul\":10544:10562   */\n      0x64\n      dup3\n      add\n        /* \"#utility.yul\":10537:10594   */\n      mstore\n        /* \"#utility.yul\":10611:10630   */\n      0x84\n      add\n        /* \"contracts/chains/polygon/RewardSystem.sol\":6554:6646  require(canClaimNative(user), \"ABOAT::sendRewardsAsEth: Can't claim more than once per day\") */\n      tag_201\n        /* \"#utility.yul\":10213:10636   */\n      jump\n        /* \"contracts/chains/polygon/RewardSystem.sol\":6554:6646  require(canClaimNative(user), \"ABOAT::sendRewardsAsEth: Can't claim more than once per day\") */\n    tag_375:\n      sub(shl(0xa0, 0x01), 0x01)\n        /* \"contracts/chains/polygon/RewardSystem.sol\":6656:6673  _claimTimes[user] */\n      dup2\n      and\n      0x00\n      swap1\n      dup2\n      mstore\n        /* \"contracts/chains/polygon/RewardSystem.sol\":6656:6667  _claimTimes */\n      0x04\n        /* \"contracts/chains/polygon/RewardSystem.sol\":6656:6673  _claimTimes[user] */\n      0x20\n      mstore\n      0x40\n      swap1\n      keccak256\n        /* \"contracts/chains/polygon/RewardSystem.sol\":6676:6691  block.timestamp */\n      timestamp\n        /* \"contracts/chains/polygon/RewardSystem.sol\":6656:6691  _claimTimes[user] = block.timestamp */\n      swap1\n      sstore\n        /* \"contracts/chains/polygon/RewardSystem.sol\":6701:6725  swapTokensForEth(amount) */\n      tag_378\n        /* \"contracts/chains/polygon/RewardSystem.sol\":6718:6724  amount */\n      dup3\n        /* \"contracts/chains/polygon/RewardSystem.sol\":6701:6717  swapTokensForEth */\n      tag_379\n        /* \"contracts/chains/polygon/RewardSystem.sol\":6701:6725  swapTokensForEth(amount) */\n      jump\t// in\n    tag_378:\n        /* \"contracts/chains/polygon/RewardSystem.sol\":6735:6750  uint256 userEth */\n      0x00\n        /* \"contracts/chains/polygon/RewardSystem.sol\":6753:6788  address(this).balance.sub(_gasCost) */\n      tag_380\n        /* \"contracts/chains/polygon/RewardSystem.sol\":6779:6787  _gasCost */\n      sload(0x05)\n        /* \"contracts/chains/polygon/RewardSystem.sol\":6753:6774  address(this).balance */\n      selfbalance\n        /* \"contracts/chains/polygon/RewardSystem.sol\":6753:6778  address(this).balance.sub */\n      tag_381\n      swap1\n        /* \"contracts/chains/polygon/RewardSystem.sol\":6753:6788  address(this).balance.sub(_gasCost) */\n      swap2\n      swap1\n      0xffffffff\n      and\n      jump\t// in\n    tag_380:\n        /* \"contracts/chains/polygon/RewardSystem.sol\":6829:6842  _oracleWallet */\n      sload(0x06)\n        /* \"contracts/chains/polygon/RewardSystem.sol\":6844:6852  _gasCost */\n      sload(0x05)\n        /* \"contracts/chains/polygon/RewardSystem.sol\":6735:6788  uint256 userEth = address(this).balance.sub(_gasCost) */\n      swap2\n      swap3\n      pop\n        /* \"contracts/chains/polygon/RewardSystem.sol\":6798:6853  TransferHelper.safeTransferETH(_oracleWallet, _gasCost) */\n      tag_382\n      swap2\n      sub(shl(0xa0, 0x01), 0x01)\n        /* \"contracts/chains/polygon/RewardSystem.sol\":6829:6842  _oracleWallet */\n      swap1\n      swap2\n      and\n      swap1\n        /* \"contracts/chains/polygon/RewardSystem.sol\":6798:6828  TransferHelper.safeTransferETH */\n      tag_283\n        /* \"contracts/chains/polygon/RewardSystem.sol\":6798:6853  TransferHelper.safeTransferETH(_oracleWallet, _gasCost) */\n      jump\t// in\n    tag_382:\n        /* \"contracts/chains/polygon/RewardSystem.sol\":6863:6874  uint256 fee */\n      0x00\n        /* \"contracts/chains/polygon/RewardSystem.sol\":6877:6892  userEth.div(10) */\n      tag_383\n        /* \"contracts/chains/polygon/RewardSystem.sol\":6877:6884  userEth */\n      dup3\n        /* \"contracts/chains/polygon/RewardSystem.sol\":6889:6891  10 */\n      0x0a\n        /* \"contracts/chains/polygon/RewardSystem.sol\":6877:6888  userEth.div */\n      tag_384\n        /* \"contracts/chains/polygon/RewardSystem.sol\":6877:6892  userEth.div(10) */\n      jump\t// in\n    tag_383:\n        /* \"contracts/chains/polygon/RewardSystem.sol\":6863:6892  uint256 fee = userEth.div(10) */\n      swap1\n      pop\n        /* \"contracts/chains/polygon/RewardSystem.sol\":6912:6928  userEth.sub(fee) */\n      tag_385\n        /* \"contracts/chains/polygon/RewardSystem.sol\":6912:6919  userEth */\n      dup3\n        /* \"contracts/chains/polygon/RewardSystem.sol\":6863:6892  uint256 fee = userEth.div(10) */\n      dup3\n        /* \"contracts/chains/polygon/RewardSystem.sol\":6912:6923  userEth.sub */\n      tag_381\n        /* \"contracts/chains/polygon/RewardSystem.sol\":6912:6928  userEth.sub(fee) */\n      jump\t// in\n    tag_385:\n        /* \"contracts/chains/polygon/RewardSystem.sol\":6969:6979  _devWallet */\n      sload(0x07)\n        /* \"contracts/chains/polygon/RewardSystem.sol\":6902:6928  userEth = userEth.sub(fee) */\n      swap1\n      swap3\n      pop\n        /* \"contracts/chains/polygon/RewardSystem.sol\":6938:6985  TransferHelper.safeTransferETH(_devWallet, fee) */\n      tag_386\n      swap1\n      sub(shl(0xa0, 0x01), 0x01)\n        /* \"contracts/chains/polygon/RewardSystem.sol\":6969:6979  _devWallet */\n      and\n        /* \"contracts/chains/polygon/RewardSystem.sol\":6981:6984  fee */\n      dup3\n        /* \"contracts/chains/polygon/RewardSystem.sol\":6938:6968  TransferHelper.safeTransferETH */\n      tag_283\n        /* \"contracts/chains/polygon/RewardSystem.sol\":6938:6985  TransferHelper.safeTransferETH(_devWallet, fee) */\n      jump\t// in\n    tag_386:\n        /* \"contracts/chains/polygon/RewardSystem.sol\":6995:7040  TransferHelper.safeTransferETH(user, userEth) */\n      tag_387\n        /* \"contracts/chains/polygon/RewardSystem.sol\":7026:7030  user */\n      dup4\n        /* \"contracts/chains/polygon/RewardSystem.sol\":7032:7039  userEth */\n      dup4\n        /* \"contracts/chains/polygon/RewardSystem.sol\":6995:7025  TransferHelper.safeTransferETH */\n      tag_283\n        /* \"contracts/chains/polygon/RewardSystem.sol\":6995:7040  TransferHelper.safeTransferETH(user, userEth) */\n      jump\t// in\n    tag_387:\n        /* \"contracts/chains/polygon/RewardSystem.sol\":7085:7088  fee */\n      dup1\n        /* \"contracts/chains/polygon/RewardSystem.sol\":7076:7083  userEth */\n      dup3\n        /* \"contracts/chains/polygon/RewardSystem.sol\":7070:7074  user */\n      dup5\n      sub(shl(0xa0, 0x01), 0x01)\n        /* \"contracts/chains/polygon/RewardSystem.sol\":7055:7089  SentRewardsETH(user, userEth, fee) */\n      and\n      0x75b2eac24930bf6a8227dbe172d34480e56be5c6994435067628424190d53431\n      mload(0x40)\n      mload(0x40)\n      dup1\n      swap2\n      sub\n      swap1\n      log4\n        /* \"contracts/chains/polygon/RewardSystem.sol\":6188:7096  {... */\n      pop\n      pop\n        /* \"contracts/chains/polygon/RewardSystem.sol\":6115:7096  function sendRewardsAsEth(uint256 amount, address user) public onlyOwner {... */\n      pop\n      pop\n      jump\t// out\n        /* \"contracts/chains/polygon/RewardSystem.sol\":4827:5004  function emergencyWithdraw() public onlyOwner {... */\n    tag_158:\n        /* \"@openzeppelin/contracts/access/Ownable.sol\":1019:1026  address */\n      0x00\n        /* \"@openzeppelin/contracts/access/Ownable.sol\":1045:1051  _owner */\n      sload\n      sub(shl(0xa0, 0x01), 0x01)\n      and\n        /* \"@openzeppelin/contracts/utils/Context.sol\":665:675  msg.sender */\n      caller\n        /* \"@openzeppelin/contracts/access/Ownable.sol\":1185:1208  owner() == _msgSender() */\n      eq\n        /* \"@openzeppelin/contracts/access/Ownable.sol\":1177:1245  require(owner() == _msgSender(), \"Ownable: caller is not the owner\") */\n      tag_391\n      jumpi\n      mload(0x40)\n      shl(0xe5, 0x461bcd)\n      dup2\n      mstore\n      0x04\n      add\n      tag_201\n      swap1\n      tag_228\n      jump\t// in\n    tag_391:\n        /* \"contracts/chains/polygon/RewardSystem.sol\":4919:4931  _rewardToken */\n      sload(0x08)\n        /* \"contracts/chains/polygon/RewardSystem.sol\":4883:4956  TransferHelper.safeTransfer(address(_rewardToken), owner(), getBalance()) */\n      tag_394\n      swap1\n      sub(shl(0xa0, 0x01), 0x01)\n        /* \"contracts/chains/polygon/RewardSystem.sol\":4919:4931  _rewardToken */\n      and\n        /* \"contracts/chains/polygon/RewardSystem.sol\":4934:4941  owner() */\n      tag_395\n        /* \"@openzeppelin/contracts/access/Ownable.sol\":1019:1026  address */\n      0x00\n        /* \"@openzeppelin/contracts/access/Ownable.sol\":1045:1051  _owner */\n      sload\n      sub(shl(0xa0, 0x01), 0x01)\n      and\n      swap1\n        /* \"@openzeppelin/contracts/access/Ownable.sol\":973:1058  function owner() public view virtual returns (address) {... */\n      jump\n        /* \"contracts/chains/polygon/RewardSystem.sol\":4934:4941  owner() */\n    tag_395:\n        /* \"contracts/chains/polygon/RewardSystem.sol\":4943:4955  getBalance() */\n      tag_396\n        /* \"contracts/chains/polygon/RewardSystem.sol\":4943:4953  getBalance */\n      tag_57\n        /* \"contracts/chains/polygon/RewardSystem.sol\":4943:4955  getBalance() */\n      jump\t// in\n    tag_396:\n        /* \"contracts/chains/polygon/RewardSystem.sol\":4883:4910  TransferHelper.safeTransfer */\n      tag_260\n        /* \"contracts/chains/polygon/RewardSystem.sol\":4883:4956  TransferHelper.safeTransfer(address(_rewardToken), owner(), getBalance()) */\n      jump\t// in\n    tag_394:\n        /* \"@openzeppelin/contracts/access/Ownable.sol\":1019:1026  address */\n      0x00\n        /* \"@openzeppelin/contracts/access/Ownable.sol\":1045:1051  _owner */\n      dup1\n      sload\n        /* \"contracts/chains/polygon/RewardSystem.sol\":4971:4997  EmergencyWithdraw(owner()) */\n      mload(0x40)\n      sub(shl(0xa0, 0x01), 0x01)\n        /* \"@openzeppelin/contracts/access/Ownable.sol\":1045:1051  _owner */\n      swap1\n      swap2\n      and\n      swap2\n        /* \"contracts/chains/polygon/RewardSystem.sol\":4971:4997  EmergencyWithdraw(owner()) */\n      0x5e7b34819cd91b239220bec92fcfd3c10da2214ba13e4e2b1f6c9cfdbd68a9a2\n      swap2\n      log2\n        /* \"contracts/chains/polygon/RewardSystem.sol\":4827:5004  function emergencyWithdraw() public onlyOwner {... */\n      jump\t// out\n        /* \"contracts/chains/polygon/RewardSystem.sol\":3856:4086  function adjustMaxAmountPerReceive(uint256 newAmount) public onlyOwner locked(\"adjustMaxAmountPerReceive\") {... */\n    tag_162:\n        /* \"@openzeppelin/contracts/access/Ownable.sol\":1019:1026  address */\n      0x00\n        /* \"@openzeppelin/contracts/access/Ownable.sol\":1045:1051  _owner */\n      sload\n      sub(shl(0xa0, 0x01), 0x01)\n      and\n        /* \"@openzeppelin/contracts/utils/Context.sol\":665:675  msg.sender */\n      caller\n        /* \"@openzeppelin/contracts/access/Ownable.sol\":1185:1208  owner() == _msgSender() */\n      eq\n        /* \"@openzeppelin/contracts/access/Ownable.sol\":1177:1245  require(owner() == _msgSender(), \"Ownable: caller is not the owner\") */\n      tag_401\n      jumpi\n      mload(0x40)\n      shl(0xe5, 0x461bcd)\n      dup2\n      mstore\n      0x04\n      add\n      tag_201\n      swap1\n      tag_228\n      jump\t// in\n    tag_401:\n        /* \"contracts/libraries/TimeLock.sol\":1945:2188  modifier locked(string memory _fn) {... */\n      0x40\n      dup1\n      mload\n      dup1\n      dup3\n      add\n      swap1\n      swap2\n      mstore\n      0x19\n      dup2\n      mstore\n      0x61646a7573744d6178416d6f756e745065725265636569766500000000000000\n      0x20\n      dup3\n      add\n      mstore\n      0x00\n        /* \"contracts/libraries/TimeLock.sol\":1999:2012  isLockEnabled */\n      sload\n      shl(0xa0, 0x01)\n      swap1\n      div\n      0xff\n      and\n        /* \"contracts/libraries/TimeLock.sol\":1998:2012  !isLockEnabled */\n      iszero\n      dup1\n        /* \"contracts/libraries/TimeLock.sol\":1998:2120  !isLockEnabled || (timelock[_fn] != 0 && timelock[_fn] <= block.timestamp && timelock[_fn] + _TIMELOCK >= block.timestamp) */\n      tag_408\n      jumpi\n      pop\n        /* \"contracts/libraries/TimeLock.sol\":2017:2025  timelock */\n      0x01\n        /* \"contracts/libraries/TimeLock.sol\":2026:2029  _fn */\n      dup2\n        /* \"contracts/libraries/TimeLock.sol\":2017:2030  timelock[_fn] */\n      mload(0x40)\n      tag_405\n      swap2\n      swap1\n      tag_456\n      jump\t// in\n    tag_405:\n      swap1\n      dup2\n      mstore\n      0x20\n      add\n      mload(0x40)\n      dup1\n      swap2\n      sub\n      swap1\n      keccak256\n      sload\n        /* \"contracts/libraries/TimeLock.sol\":2034:2035  0 */\n      0x00\n        /* \"contracts/libraries/TimeLock.sol\":2017:2035  timelock[_fn] != 0 */\n      eq\n      iszero\n        /* \"contracts/libraries/TimeLock.sol\":2017:2071  timelock[_fn] != 0 && timelock[_fn] <= block.timestamp */\n      dup1\n      iszero\n      tag_406\n      jumpi\n      pop\n        /* \"contracts/libraries/TimeLock.sol\":2056:2071  block.timestamp */\n      timestamp\n        /* \"contracts/libraries/TimeLock.sol\":2039:2047  timelock */\n      0x01\n        /* \"contracts/libraries/TimeLock.sol\":2048:2051  _fn */\n      dup3\n        /* \"contracts/libraries/TimeLock.sol\":2039:2052  timelock[_fn] */\n      mload(0x40)\n      tag_407\n      swap2\n      swap1\n      tag_456\n      jump\t// in\n    tag_407:\n      swap1\n      dup2\n      mstore\n      0x20\n      add\n      mload(0x40)\n      dup1\n      swap2\n      sub\n      swap1\n      keccak256\n      sload\n        /* \"contracts/libraries/TimeLock.sol\":2039:2071  timelock[_fn] <= block.timestamp */\n      gt\n      iszero\n        /* \"contracts/libraries/TimeLock.sol\":2017:2071  timelock[_fn] != 0 && timelock[_fn] <= block.timestamp */\n    tag_406:\n        /* \"contracts/libraries/TimeLock.sol\":2017:2119  timelock[_fn] != 0 && timelock[_fn] <= block.timestamp && timelock[_fn] + _TIMELOCK >= block.timestamp */\n      dup1\n      iszero\n      tag_408\n      jumpi\n      pop\n        /* \"contracts/libraries/TimeLock.sol\":2104:2119  block.timestamp */\n      timestamp\n        /* \"contracts/libraries/TimeLock.sol\":861:867  1 days */\n      0x015180\n        /* \"contracts/libraries/TimeLock.sol\":2075:2083  timelock */\n      0x01\n        /* \"contracts/libraries/TimeLock.sol\":2084:2087  _fn */\n      dup4\n        /* \"contracts/libraries/TimeLock.sol\":2075:2088  timelock[_fn] */\n      mload(0x40)\n      tag_409\n      swap2\n      swap1\n      tag_456\n      jump\t// in\n    tag_409:\n      swap1\n      dup2\n      mstore\n      0x20\n      add\n      mload(0x40)\n      dup1\n      swap2\n      sub\n      swap1\n      keccak256\n      sload\n        /* \"contracts/libraries/TimeLock.sol\":2075:2100  timelock[_fn] + _TIMELOCK */\n      tag_410\n      swap2\n      swap1\n      tag_212\n      jump\t// in\n    tag_410:\n        /* \"contracts/libraries/TimeLock.sol\":2075:2119  timelock[_fn] + _TIMELOCK >= block.timestamp */\n      lt\n      iszero\n        /* \"contracts/libraries/TimeLock.sol\":2017:2119  timelock[_fn] != 0 && timelock[_fn] <= block.timestamp && timelock[_fn] + _TIMELOCK >= block.timestamp */\n    tag_408:\n        /* \"contracts/libraries/TimeLock.sol\":1990:2143  require(!isLockEnabled || (timelock[_fn] != 0 && timelock[_fn] <= block.timestamp && timelock[_fn] + _TIMELOCK >= block.timestamp), \"Function is locked\") */\n      tag_411\n      jumpi\n      mload(0x40)\n      shl(0xe5, 0x461bcd)\n      dup2\n      mstore\n      0x04\n      add\n      tag_201\n      swap1\n      tag_215\n      jump\t// in\n    tag_411:\n        /* \"contracts/chains/polygon/RewardSystem.sol\":4005:4025  _maxAmountPerReceive */\n      sload(0x09)\n        /* \"contracts/chains/polygon/RewardSystem.sol\":3978:4037  ChangedMaxAmountPerReceive(_maxAmountPerReceive, newAmount) */\n      mload(0x40)\n        /* \"contracts/chains/polygon/RewardSystem.sol\":4027:4036  newAmount */\n      dup4\n      swap2\n        /* \"contracts/chains/polygon/RewardSystem.sol\":4005:4025  _maxAmountPerReceive */\n      swap1\n        /* \"contracts/chains/polygon/RewardSystem.sol\":3978:4037  ChangedMaxAmountPerReceive(_maxAmountPerReceive, newAmount) */\n      0xd07363c93ca88ca1140b355020cb77b0320b19e19a34bb15aa4566d27c2fabbd\n      swap1\n      0x00\n      swap1\n      log3\n        /* \"contracts/chains/polygon/RewardSystem.sol\":4047:4067  _maxAmountPerReceive */\n      0x09\n        /* \"contracts/chains/polygon/RewardSystem.sol\":4047:4079  _maxAmountPerReceive = newAmount */\n      dup3\n      swap1\n      sstore\n        /* \"contracts/libraries/TimeLock.sol\":2164:2181  lockFunction(_fn) */\n      tag_221\n        /* \"contracts/libraries/TimeLock.sol\":2177:2180  _fn */\n      dup2\n        /* \"contracts/libraries/TimeLock.sol\":2164:2176  lockFunction */\n      tag_123\n        /* \"contracts/libraries/TimeLock.sol\":2164:2181  lockFunction(_fn) */\n      jump\t// in\n        /* \"@openzeppelin/contracts/access/Ownable.sol\":1846:2035  function transferOwnership(address newOwner) public virtual onlyOwner {... */\n    tag_171:\n        /* \"@openzeppelin/contracts/access/Ownable.sol\":1019:1026  address */\n      0x00\n        /* \"@openzeppelin/contracts/access/Ownable.sol\":1045:1051  _owner */\n      sload\n      sub(shl(0xa0, 0x01), 0x01)\n      and\n        /* \"@openzeppelin/contracts/utils/Context.sol\":665:675  msg.sender */\n      caller\n        /* \"@openzeppelin/contracts/access/Ownable.sol\":1185:1208  owner() == _msgSender() */\n      eq\n        /* \"@openzeppelin/contracts/access/Ownable.sol\":1177:1245  require(owner() == _msgSender(), \"Ownable: caller is not the owner\") */\n      tag_418\n      jumpi\n      mload(0x40)\n      shl(0xe5, 0x461bcd)\n      dup2\n      mstore\n      0x04\n      add\n      tag_201\n      swap1\n      tag_228\n      jump\t// in\n    tag_418:\n      sub(shl(0xa0, 0x01), 0x01)\n        /* \"@openzeppelin/contracts/access/Ownable.sol\":1934:1956  newOwner != address(0) */\n      dup2\n      and\n        /* \"@openzeppelin/contracts/access/Ownable.sol\":1926:1999  require(newOwner != address(0), \"Ownable: new owner is the zero address\") */\n      tag_421\n      jumpi\n      mload(0x40)\n      shl(0xe5, 0x461bcd)\n      dup2\n      mstore\n        /* \"#utility.yul\":7409:7411   */\n      0x20\n        /* \"@openzeppelin/contracts/access/Ownable.sol\":1926:1999  require(newOwner != address(0), \"Ownable: new owner is the zero address\") */\n      0x04\n      dup3\n      add\n        /* \"#utility.yul\":7391:7412   */\n      mstore\n        /* \"#utility.yul\":7448:7450   */\n      0x26\n        /* \"#utility.yul\":7428:7446   */\n      0x24\n      dup3\n      add\n        /* \"#utility.yul\":7421:7451   */\n      mstore\n        /* \"#utility.yul\":7487:7521   */\n      0x4f776e61626c653a206e6577206f776e657220697320746865207a65726f2061\n        /* \"#utility.yul\":7467:7485   */\n      0x44\n      dup3\n      add\n        /* \"#utility.yul\":7460:7522   */\n      mstore\n      shl(0xd0, 0x646472657373)\n        /* \"#utility.yul\":7538:7556   */\n      0x64\n      dup3\n      add\n        /* \"#utility.yul\":7531:7567   */\n      mstore\n        /* \"#utility.yul\":7584:7603   */\n      0x84\n      add\n        /* \"@openzeppelin/contracts/access/Ownable.sol\":1926:1999  require(newOwner != address(0), \"Ownable: new owner is the zero address\") */\n      tag_201\n        /* \"#utility.yul\":7207:7609   */\n      jump\n        /* \"@openzeppelin/contracts/access/Ownable.sol\":1926:1999  require(newOwner != address(0), \"Ownable: new owner is the zero address\") */\n    tag_421:\n        /* \"@openzeppelin/contracts/access/Ownable.sol\":2009:2028  _setOwner(newOwner) */\n      tag_424\n        /* \"@openzeppelin/contracts/access/Ownable.sol\":2019:2027  newOwner */\n      dup2\n        /* \"@openzeppelin/contracts/access/Ownable.sol\":2009:2018  _setOwner */\n      tag_310\n        /* \"@openzeppelin/contracts/access/Ownable.sol\":2009:2028  _setOwner(newOwner) */\n      jump\t// in\n    tag_424:\n        /* \"@openzeppelin/contracts/access/Ownable.sol\":1846:2035  function transferOwnership(address newOwner) public virtual onlyOwner {... */\n      pop\n      jump\t// out\n        /* \"contracts/libraries/TimeLock.sol\":3627:3751  function setTimelockEnabled() public onlyMaintainerOrOwner {... */\n    tag_174:\n        /* \"contracts/libraries/TimeLock.sol\":2264:2274  msg.sender */\n      caller\n        /* \"contracts/libraries/TimeLock.sol\":2253:2260  owner() */\n      tag_426\n        /* \"@openzeppelin/contracts/access/Ownable.sol\":1019:1026  address */\n      0x00\n        /* \"@openzeppelin/contracts/access/Ownable.sol\":1045:1051  _owner */\n      sload\n      sub(shl(0xa0, 0x01), 0x01)\n      and\n      swap1\n        /* \"@openzeppelin/contracts/access/Ownable.sol\":973:1058  function owner() public view virtual returns (address) {... */\n      jump\n        /* \"contracts/libraries/TimeLock.sol\":2253:2260  owner() */\n    tag_426:\n      sub(shl(0xa0, 0x01), 0x01)\n        /* \"contracts/libraries/TimeLock.sol\":2253:2274  owner() == msg.sender */\n      and\n      eq\n        /* \"contracts/libraries/TimeLock.sol\":2253:2303  owner() == msg.sender || _maintainer == msg.sender */\n      dup1\n      tag_427\n      jumpi\n      pop\n        /* \"contracts/libraries/TimeLock.sol\":2278:2289  _maintainer */\n      and(sub(shl(0xa0, 0x01), 0x01), sload(0x02))\n        /* \"contracts/libraries/TimeLock.sol\":2293:2303  msg.sender */\n      caller\n        /* \"contracts/libraries/TimeLock.sol\":2278:2303  _maintainer == msg.sender */\n      eq\n        /* \"contracts/libraries/TimeLock.sol\":2253:2303  owner() == msg.sender || _maintainer == msg.sender */\n    tag_427:\n        /* \"contracts/libraries/TimeLock.sol\":2245:2361  require(owner() == msg.sender || _maintainer == msg.sender, \"operator: caller is not allowed to call this function\") */\n      tag_428\n      jumpi\n      mload(0x40)\n      shl(0xe5, 0x461bcd)\n      dup2\n      mstore\n      0x04\n      add\n      tag_201\n      swap1\n      tag_202\n      jump\t// in\n    tag_428:\n        /* \"contracts/libraries/TimeLock.sol\":3696:3709  isLockEnabled */\n      0x00\n        /* \"contracts/libraries/TimeLock.sol\":3696:3716  isLockEnabled = true */\n      dup1\n      sload\n      not(shl(0xa0, 0xff))\n      and\n      shl(0xa0, 0x01)\n      or\n      dup2\n      sstore\n        /* \"contracts/libraries/TimeLock.sol\":3731:3744  EnabledLock() */\n      mload(0x40)\n      0x2c08b62bfac9a1b19bb1dec9323f1ce01696a77948b256abf3603d30f25a864e\n      swap2\n        /* \"contracts/libraries/TimeLock.sol\":3696:3709  isLockEnabled */\n      swap1\n        /* \"contracts/libraries/TimeLock.sol\":3731:3744  EnabledLock() */\n      log1\n        /* \"contracts/libraries/TimeLock.sol\":3627:3751  function setTimelockEnabled() public onlyMaintainerOrOwner {... */\n      jump\t// out\n        /* \"contracts/chains/polygon/RewardSystem.sol\":4096:4422  function updateRewardToken(IERC20 rewardToken) public onlyOwner locked(\"updateRewardToken\") {... */\n    tag_184:\n        /* \"@openzeppelin/contracts/access/Ownable.sol\":1019:1026  address */\n      0x00\n        /* \"@openzeppelin/contracts/access/Ownable.sol\":1045:1051  _owner */\n      sload\n      sub(shl(0xa0, 0x01), 0x01)\n      and\n        /* \"@openzeppelin/contracts/utils/Context.sol\":665:675  msg.sender */\n      caller\n        /* \"@openzeppelin/contracts/access/Ownable.sol\":1185:1208  owner() == _msgSender() */\n      eq\n        /* \"@openzeppelin/contracts/access/Ownable.sol\":1177:1245  require(owner() == _msgSender(), \"Ownable: caller is not the owner\") */\n      tag_434\n      jumpi\n      mload(0x40)\n      shl(0xe5, 0x461bcd)\n      dup2\n      mstore\n      0x04\n      add\n      tag_201\n      swap1\n      tag_228\n      jump\t// in\n    tag_434:\n        /* \"contracts/libraries/TimeLock.sol\":1945:2188  modifier locked(string memory _fn) {... */\n      0x40\n      dup1\n      mload\n      dup1\n      dup3\n      add\n      swap1\n      swap2\n      mstore\n      0x11\n      dup2\n      mstore\n      shl(0x79, 0x3ab83230ba32a932bbb0b9322a37b5b2b7)\n      0x20\n      dup3\n      add\n      mstore\n      0x00\n        /* \"contracts/libraries/TimeLock.sol\":1999:2012  isLockEnabled */\n      sload\n      shl(0xa0, 0x01)\n      swap1\n      div\n      0xff\n      and\n        /* \"contracts/libraries/TimeLock.sol\":1998:2012  !isLockEnabled */\n      iszero\n      dup1\n        /* \"contracts/libraries/TimeLock.sol\":1998:2120  !isLockEnabled || (timelock[_fn] != 0 && timelock[_fn] <= block.timestamp && timelock[_fn] + _TIMELOCK >= block.timestamp) */\n      tag_441\n      jumpi\n      pop\n        /* \"contracts/libraries/TimeLock.sol\":2017:2025  timelock */\n      0x01\n        /* \"contracts/libraries/TimeLock.sol\":2026:2029  _fn */\n      dup2\n        /* \"contracts/libraries/TimeLock.sol\":2017:2030  timelock[_fn] */\n      mload(0x40)\n      tag_438\n      swap2\n      swap1\n      tag_456\n      jump\t// in\n    tag_438:\n      swap1\n      dup2\n      mstore\n      0x20\n      add\n      mload(0x40)\n      dup1\n      swap2\n      sub\n      swap1\n      keccak256\n      sload\n        /* \"contracts/libraries/TimeLock.sol\":2034:2035  0 */\n      0x00\n        /* \"contracts/libraries/TimeLock.sol\":2017:2035  timelock[_fn] != 0 */\n      eq\n      iszero\n        /* \"contracts/libraries/TimeLock.sol\":2017:2071  timelock[_fn] != 0 && timelock[_fn] <= block.timestamp */\n      dup1\n      iszero\n      tag_439\n      jumpi\n      pop\n        /* \"contracts/libraries/TimeLock.sol\":2056:2071  block.timestamp */\n      timestamp\n        /* \"contracts/libraries/TimeLock.sol\":2039:2047  timelock */\n      0x01\n        /* \"contracts/libraries/TimeLock.sol\":2048:2051  _fn */\n      dup3\n        /* \"contracts/libraries/TimeLock.sol\":2039:2052  timelock[_fn] */\n      mload(0x40)\n      tag_440\n      swap2\n      swap1\n      tag_456\n      jump\t// in\n    tag_440:\n      swap1\n      dup2\n      mstore\n      0x20\n      add\n      mload(0x40)\n      dup1\n      swap2\n      sub\n      swap1\n      keccak256\n      sload\n        /* \"contracts/libraries/TimeLock.sol\":2039:2071  timelock[_fn] <= block.timestamp */\n      gt\n      iszero\n        /* \"contracts/libraries/TimeLock.sol\":2017:2071  timelock[_fn] != 0 && timelock[_fn] <= block.timestamp */\n    tag_439:\n        /* \"contracts/libraries/TimeLock.sol\":2017:2119  timelock[_fn] != 0 && timelock[_fn] <= block.timestamp && timelock[_fn] + _TIMELOCK >= block.timestamp */\n      dup1\n      iszero\n      tag_441\n      jumpi\n      pop\n        /* \"contracts/libraries/TimeLock.sol\":2104:2119  block.timestamp */\n      timestamp\n        /* \"contracts/libraries/TimeLock.sol\":861:867  1 days */\n      0x015180\n        /* \"contracts/libraries/TimeLock.sol\":2075:2083  timelock */\n      0x01\n        /* \"contracts/libraries/TimeLock.sol\":2084:2087  _fn */\n      dup4\n        /* \"contracts/libraries/TimeLock.sol\":2075:2088  timelock[_fn] */\n      mload(0x40)\n      tag_442\n      swap2\n      swap1\n      tag_456\n      jump\t// in\n    tag_442:\n      swap1\n      dup2\n      mstore\n      0x20\n      add\n      mload(0x40)\n      dup1\n      swap2\n      sub\n      swap1\n      keccak256\n      sload\n        /* \"contracts/libraries/TimeLock.sol\":2075:2100  timelock[_fn] + _TIMELOCK */\n      tag_443\n      swap2\n      swap1\n      tag_212\n      jump\t// in\n    tag_443:\n        /* \"contracts/libraries/TimeLock.sol\":2075:2119  timelock[_fn] + _TIMELOCK >= block.timestamp */\n      lt\n      iszero\n        /* \"contracts/libraries/TimeLock.sol\":2017:2119  timelock[_fn] != 0 && timelock[_fn] <= block.timestamp && timelock[_fn] + _TIMELOCK >= block.timestamp */\n    tag_441:\n        /* \"contracts/libraries/TimeLock.sol\":1990:2143  require(!isLockEnabled || (timelock[_fn] != 0 && timelock[_fn] <= block.timestamp && timelock[_fn] + _TIMELOCK >= block.timestamp), \"Function is locked\") */\n      tag_444\n      jumpi\n      mload(0x40)\n      shl(0xe5, 0x461bcd)\n      dup2\n      mstore\n      0x04\n      add\n      tag_201\n      swap1\n      tag_215\n      jump\t// in\n    tag_444:\n        /* \"contracts/chains/polygon/RewardSystem.sol\":4221:4233  _rewardToken */\n      sload(0x08)\n      sub(shl(0xa0, 0x01), 0x01)\n        /* \"contracts/chains/polygon/RewardSystem.sol\":4206:4233  rewardToken != _rewardToken */\n      dup4\n      dup2\n      and\n        /* \"contracts/chains/polygon/RewardSystem.sol\":4221:4233  _rewardToken */\n      swap2\n      and\n        /* \"contracts/chains/polygon/RewardSystem.sol\":4206:4233  rewardToken != _rewardToken */\n      eq\n      iszero\n        /* \"contracts/chains/polygon/RewardSystem.sol\":4198:4301  require(rewardToken != _rewardToken, \"ABOAT:updateRewardToken: You can't update the exact same tokens\") */\n      tag_447\n      jumpi\n      mload(0x40)\n      shl(0xe5, 0x461bcd)\n      dup2\n      mstore\n        /* \"#utility.yul\":12092:12094   */\n      0x20\n        /* \"contracts/chains/polygon/RewardSystem.sol\":4198:4301  require(rewardToken != _rewardToken, \"ABOAT:updateRewardToken: You can't update the exact same tokens\") */\n      0x04\n      dup3\n      add\n        /* \"#utility.yul\":12074:12095   */\n      mstore\n        /* \"#utility.yul\":12131:12133   */\n      0x3f\n        /* \"#utility.yul\":12111:12129   */\n      0x24\n      dup3\n      add\n        /* \"#utility.yul\":12104:12134   */\n      mstore\n        /* \"#utility.yul\":12170:12204   */\n      0x41424f41543a757064617465526577617264546f6b656e3a20596f752063616e\n        /* \"#utility.yul\":12150:12168   */\n      0x44\n      dup3\n      add\n        /* \"#utility.yul\":12143:12205   */\n      mstore\n        /* \"#utility.yul\":12241:12274   */\n      0x277420757064617465207468652065786163742073616d6520746f6b656e7300\n        /* \"#utility.yul\":12221:12239   */\n      0x64\n      dup3\n      add\n        /* \"#utility.yul\":12214:12275   */\n      mstore\n        /* \"#utility.yul\":12292:12311   */\n      0x84\n      add\n        /* \"contracts/chains/polygon/RewardSystem.sol\":4198:4301  require(rewardToken != _rewardToken, \"ABOAT:updateRewardToken: You can't update the exact same tokens\") */\n      tag_201\n        /* \"#utility.yul\":11890:12317   */\n      jump\n        /* \"contracts/chains/polygon/RewardSystem.sol\":4198:4301  require(rewardToken != _rewardToken, \"ABOAT:updateRewardToken: You can't update the exact same tokens\") */\n    tag_447:\n        /* \"contracts/chains/polygon/RewardSystem.sol\":4343:4355  _rewardToken */\n      sload(0x08)\n        /* \"contracts/chains/polygon/RewardSystem.sol\":4316:4379  ChangedRewardToken(address(_rewardToken), address(rewardToken)) */\n      mload(0x40)\n      sub(shl(0xa0, 0x01), 0x01)\n      dup1\n      dup6\n      and\n      swap3\n        /* \"contracts/chains/polygon/RewardSystem.sol\":4343:4355  _rewardToken */\n      and\n      swap1\n        /* \"contracts/chains/polygon/RewardSystem.sol\":4316:4379  ChangedRewardToken(address(_rewardToken), address(rewardToken)) */\n      0xcb89265f21b9fc8710e9d9e42bbb37af1eb207454deca6d5e36787be2367c1d6\n      swap1\n        /* \"contracts/chains/polygon/RewardSystem.sol\":4343:4355  _rewardToken */\n      0x00\n      swap1\n        /* \"contracts/chains/polygon/RewardSystem.sol\":4316:4379  ChangedRewardToken(address(_rewardToken), address(rewardToken)) */\n      log3\n        /* \"contracts/chains/polygon/RewardSystem.sol\":4389:4401  _rewardToken */\n      0x08\n        /* \"contracts/chains/polygon/RewardSystem.sol\":4389:4415  _rewardToken = rewardToken */\n      dup1\n      sload\n      not(sub(shl(0xa0, 0x01), 0x01))\n      and\n      sub(shl(0xa0, 0x01), 0x01)\n      dup5\n      and\n      or\n      swap1\n      sstore\n        /* \"contracts/libraries/TimeLock.sol\":2164:2181  lockFunction(_fn) */\n      tag_221\n        /* \"contracts/libraries/TimeLock.sol\":2177:2180  _fn */\n      dup2\n        /* \"contracts/libraries/TimeLock.sol\":2164:2176  lockFunction */\n      tag_123\n        /* \"contracts/libraries/TimeLock.sol\":2164:2181  lockFunction(_fn) */\n      jump\t// in\n        /* \"contracts/libraries/TransferHelper.sol\":210:594  function safeTransfer(... */\n    tag_260:\n        /* \"contracts/libraries/TransferHelper.sol\":382:427  abi.encodeWithSelector(0xa9059cbb, to, value) */\n      0x40\n      dup1\n      mload\n      sub(shl(0xa0, 0x01), 0x01)\n        /* \"#utility.yul\":6471:6503   */\n      dup5\n      dup2\n      and\n        /* \"contracts/libraries/TransferHelper.sol\":382:427  abi.encodeWithSelector(0xa9059cbb, to, value) */\n      0x24\n      dup4\n      add\n        /* \"#utility.yul\":6453:6504   */\n      mstore\n        /* \"#utility.yul\":6520:6538   */\n      0x44\n      dup1\n      dup4\n      add\n        /* \"#utility.yul\":6513:6547   */\n      dup6\n      swap1\n      mstore\n        /* \"contracts/libraries/TransferHelper.sol\":382:427  abi.encodeWithSelector(0xa9059cbb, to, value) */\n      dup4\n      mload\n      dup1\n      dup5\n      sub\n      swap1\n      swap2\n      add\n      dup2\n      mstore\n        /* \"#utility.yul\":6426:6444   */\n      0x64\n      swap1\n      swap3\n      add\n        /* \"contracts/libraries/TransferHelper.sol\":382:427  abi.encodeWithSelector(0xa9059cbb, to, value) */\n      dup4\n      mstore\n      0x20\n      dup3\n      add\n      dup1\n      mload\n      sub(shl(0xe0, 0x01), 0x01)\n      and\n      shl(0xe0, 0xa9059cbb)\n      or\n      swap1\n      mstore\n        /* \"contracts/libraries/TransferHelper.sol\":371:428  token.call(abi.encodeWithSelector(0xa9059cbb, to, value)) */\n      swap2\n      mload\n      0x00\n      swap3\n      dup4\n      swap3\n        /* \"contracts/libraries/TransferHelper.sol\":371:381  token.call */\n      swap1\n      dup8\n      and\n      swap2\n        /* \"contracts/libraries/TransferHelper.sol\":371:428  token.call(abi.encodeWithSelector(0xa9059cbb, to, value)) */\n      tag_455\n      swap2\n        /* \"contracts/libraries/TransferHelper.sol\":382:427  abi.encodeWithSelector(0xa9059cbb, to, value) */\n      swap1\n        /* \"contracts/libraries/TransferHelper.sol\":371:428  token.call(abi.encodeWithSelector(0xa9059cbb, to, value)) */\n      tag_456\n      jump\t// in\n    tag_455:\n      0x00\n      mload(0x40)\n      dup1\n      dup4\n      sub\n      dup2\n      0x00\n      dup7\n      gas\n      call\n      swap2\n      pop\n      pop\n      returndatasize\n      dup1\n      0x00\n      dup2\n      eq\n      tag_459\n      jumpi\n      mload(0x40)\n      swap2\n      pop\n      and(add(returndatasize, 0x3f), not(0x1f))\n      dup3\n      add\n      0x40\n      mstore\n      returndatasize\n      dup3\n      mstore\n      returndatasize\n      0x00\n      0x20\n      dup5\n      add\n      returndatacopy\n      jump(tag_458)\n    tag_459:\n      0x60\n      swap2\n      pop\n    tag_458:\n      pop\n        /* \"contracts/libraries/TransferHelper.sol\":323:428  (bool success, bytes memory data) =... */\n      swap2\n      pop\n      swap2\n      pop\n        /* \"contracts/libraries/TransferHelper.sol\":459:466  success */\n      dup2\n        /* \"contracts/libraries/TransferHelper.sol\":459:516  success && (data.length == 0 || abi.decode(data, (bool))) */\n      dup1\n      iszero\n      tag_462\n      jumpi\n      pop\n        /* \"contracts/libraries/TransferHelper.sol\":471:482  data.length */\n      dup1\n      mload\n        /* \"contracts/libraries/TransferHelper.sol\":471:487  data.length == 0 */\n      iszero\n      dup1\n        /* \"contracts/libraries/TransferHelper.sol\":471:515  data.length == 0 || abi.decode(data, (bool)) */\n      tag_462\n      jumpi\n      pop\n        /* \"contracts/libraries/TransferHelper.sol\":502:506  data */\n      dup1\n        /* \"contracts/libraries/TransferHelper.sol\":491:515  abi.decode(data, (bool)) */\n      dup1\n      0x20\n      add\n      swap1\n      mload\n      dup2\n      add\n      swap1\n      tag_462\n      swap2\n      swap1\n      tag_463\n      jump\t// in\n    tag_462:\n        /* \"contracts/libraries/TransferHelper.sol\":438:587  require(... */\n      tag_464\n      jumpi\n      mload(0x40)\n      shl(0xe5, 0x461bcd)\n      dup2\n      mstore\n        /* \"#utility.yul\":13012:13014   */\n      0x20\n        /* \"contracts/libraries/TransferHelper.sol\":438:587  require(... */\n      0x04\n      dup3\n      add\n        /* \"#utility.yul\":12994:13015   */\n      mstore\n        /* \"#utility.yul\":13051:13053   */\n      0x2d\n        /* \"#utility.yul\":13031:13049   */\n      0x24\n      dup3\n      add\n        /* \"#utility.yul\":13024:13054   */\n      mstore\n        /* \"#utility.yul\":13090:13124   */\n      0x5472616e7366657248656c7065723a3a736166655472616e736665723a207472\n        /* \"#utility.yul\":13070:13088   */\n      0x44\n      dup3\n      add\n        /* \"#utility.yul\":13063:13125   */\n      mstore\n      shl(0x9a, 0x185b9cd9995c8819985a5b1959)\n        /* \"#utility.yul\":13141:13159   */\n      0x64\n      dup3\n      add\n        /* \"#utility.yul\":13134:13177   */\n      mstore\n        /* \"#utility.yul\":13194:13213   */\n      0x84\n      add\n        /* \"contracts/libraries/TransferHelper.sol\":438:587  require(... */\n      tag_201\n        /* \"#utility.yul\":12810:13219   */\n      jump\n        /* \"contracts/libraries/TransferHelper.sol\":438:587  require(... */\n    tag_464:\n        /* \"contracts/libraries/TransferHelper.sol\":313:594  {... */\n      pop\n      pop\n        /* \"contracts/libraries/TransferHelper.sol\":210:594  function safeTransfer(... */\n      pop\n      pop\n      pop\n      jump\t// out\n        /* \"contracts/libraries/TransferHelper.sol\":1026:1274  function safeTransferETH(address to, uint256 value) internal {... */\n    tag_283:\n        /* \"contracts/libraries/TransferHelper.sol\":1138:1150  new bytes(0) */\n      0x40\n      dup1\n      mload\n        /* \"contracts/libraries/TransferHelper.sol\":1098:1110  bool success */\n      0x00\n        /* \"contracts/libraries/TransferHelper.sol\":1138:1150  new bytes(0) */\n      dup1\n      dup3\n      mstore\n      0x20\n      dup3\n      add\n      swap1\n      swap3\n      mstore\n      sub(shl(0xa0, 0x01), 0x01)\n        /* \"contracts/libraries/TransferHelper.sol\":1116:1123  to.call */\n      dup5\n      and\n      swap1\n        /* \"contracts/libraries/TransferHelper.sol\":1131:1136  value */\n      dup4\n      swap1\n        /* \"contracts/libraries/TransferHelper.sol\":1116:1151  to.call{value: value}(new bytes(0)) */\n      mload(0x40)\n      tag_472\n      swap2\n      swap1\n      tag_456\n      jump\t// in\n    tag_472:\n      0x00\n      mload(0x40)\n      dup1\n      dup4\n      sub\n      dup2\n      dup6\n      dup8\n      gas\n      call\n      swap3\n      pop\n      pop\n      pop\n      returndatasize\n      dup1\n      0x00\n      dup2\n      eq\n      tag_475\n      jumpi\n      mload(0x40)\n      swap2\n      pop\n      and(add(returndatasize, 0x3f), not(0x1f))\n      dup3\n      add\n      0x40\n      mstore\n      returndatasize\n      dup3\n      mstore\n      returndatasize\n      0x00\n      0x20\n      dup5\n      add\n      returndatacopy\n      jump(tag_474)\n    tag_475:\n      0x60\n      swap2\n      pop\n    tag_474:\n      pop\n        /* \"contracts/libraries/TransferHelper.sol\":1097:1151  (bool success, ) = to.call{value: value}(new bytes(0)) */\n      pop\n      swap1\n      pop\n        /* \"contracts/libraries/TransferHelper.sol\":1182:1189  success */\n      dup1\n        /* \"contracts/libraries/TransferHelper.sol\":1161:1267  require(... */\n      tag_234\n      jumpi\n      mload(0x40)\n      shl(0xe5, 0x461bcd)\n      dup2\n      mstore\n        /* \"#utility.yul\":7816:7818   */\n      0x20\n        /* \"contracts/libraries/TransferHelper.sol\":1161:1267  require(... */\n      0x04\n      dup3\n      add\n        /* \"#utility.yul\":7798:7819   */\n      mstore\n        /* \"#utility.yul\":7855:7857   */\n      0x34\n        /* \"#utility.yul\":7835:7853   */\n      0x24\n      dup3\n      add\n        /* \"#utility.yul\":7828:7858   */\n      mstore\n        /* \"#utility.yul\":7894:7928   */\n      0x5472616e7366657248656c7065723a3a736166655472616e736665724554483a\n        /* \"#utility.yul\":7874:7892   */\n      0x44\n      dup3\n      add\n        /* \"#utility.yul\":7867:7929   */\n      mstore\n      shl(0x62, 0x08115512081d1c985b9cd9995c8819985a5b1959)\n        /* \"#utility.yul\":7945:7963   */\n      0x64\n      dup3\n      add\n        /* \"#utility.yul\":7938:7988   */\n      mstore\n        /* \"#utility.yul\":8005:8024   */\n      0x84\n      add\n        /* \"contracts/libraries/TransferHelper.sol\":1161:1267  require(... */\n      tag_201\n        /* \"#utility.yul\":7614:8030   */\n      jump\n        /* \"@openzeppelin/contracts/access/Ownable.sol\":2041:2210  function _setOwner(address newOwner) private {... */\n    tag_310:\n        /* \"@openzeppelin/contracts/access/Ownable.sol\":2096:2112  address oldOwner */\n      0x00\n        /* \"@openzeppelin/contracts/access/Ownable.sol\":2115:2121  _owner */\n      dup1\n      sload\n      sub(shl(0xa0, 0x01), 0x01)\n        /* \"@openzeppelin/contracts/access/Ownable.sol\":2131:2148  _owner = newOwner */\n      dup4\n      dup2\n      and\n      not(sub(shl(0xa0, 0x01), 0x01))\n      dup4\n      and\n      dup2\n      or\n      dup5\n      sstore\n        /* \"@openzeppelin/contracts/access/Ownable.sol\":2163:2203  OwnershipTransferred(oldOwner, newOwner) */\n      mload(0x40)\n        /* \"@openzeppelin/contracts/access/Ownable.sol\":2115:2121  _owner */\n      swap2\n      swap1\n      swap3\n      and\n      swap3\n      dup4\n      swap2\n        /* \"@openzeppelin/contracts/access/Ownable.sol\":2163:2203  OwnershipTransferred(oldOwner, newOwner) */\n      0x8be0079c531659141344cd1fd0a4f28419497f9722a3daafe3b4186f6b6457e0\n      swap2\n        /* \"@openzeppelin/contracts/access/Ownable.sol\":2096:2112  address oldOwner */\n      swap1\n        /* \"@openzeppelin/contracts/access/Ownable.sol\":2163:2203  OwnershipTransferred(oldOwner, newOwner) */\n      log3\n        /* \"@openzeppelin/contracts/access/Ownable.sol\":2086:2210  {... */\n      pop\n        /* \"@openzeppelin/contracts/access/Ownable.sol\":2041:2210  function _setOwner(address newOwner) private {... */\n      pop\n      jump\t// out\n        /* \"contracts/chains/polygon/RewardSystem.sol\":7106:7658  function swapTokensForEth(uint256 tokenAmount) private {... */\n    tag_379:\n        /* \"contracts/chains/polygon/RewardSystem.sol\":7252:7268  new address[](2) */\n      0x40\n      dup1\n      mload\n        /* \"contracts/chains/polygon/RewardSystem.sol\":7266:7267  2 */\n      0x02\n        /* \"contracts/chains/polygon/RewardSystem.sol\":7252:7268  new address[](2) */\n      dup1\n      dup3\n      mstore\n      0x60\n      dup3\n      add\n      dup4\n      mstore\n        /* \"contracts/chains/polygon/RewardSystem.sol\":7228:7249  address[] memory path */\n      0x00\n      swap3\n        /* \"contracts/chains/polygon/RewardSystem.sol\":7252:7268  new address[](2) */\n      0x20\n      dup4\n      add\n      swap1\n      dup1\n      calldatasize\n      dup4\n      calldatacopy\n      pop\n      pop\n        /* \"contracts/chains/polygon/RewardSystem.sol\":7296:7308  _rewardToken */\n      sload(0x08)\n        /* \"contracts/chains/polygon/RewardSystem.sol\":7278:7285  path[0] */\n      dup3\n      mload\n      swap3\n      swap4\n      pop\n      sub(shl(0xa0, 0x01), 0x01)\n        /* \"contracts/chains/polygon/RewardSystem.sol\":7296:7308  _rewardToken */\n      and\n      swap2\n        /* \"contracts/chains/polygon/RewardSystem.sol\":7278:7285  path[0] */\n      dup4\n      swap2\n      pop\n        /* \"contracts/chains/polygon/RewardSystem.sol\":7296:7308  _rewardToken */\n      0x00\n      swap1\n        /* \"contracts/chains/polygon/RewardSystem.sol\":7278:7285  path[0] */\n      tag_485\n      jumpi\n      tag_485\n      tag_238\n      jump\t// in\n    tag_485:\n      sub(shl(0xa0, 0x01), 0x01)\n        /* \"contracts/chains/polygon/RewardSystem.sol\":7278:7309  path[0] = address(_rewardToken) */\n      swap3\n      dup4\n      and\n        /* \"contracts/chains/polygon/RewardSystem.sol\":7278:7285  path[0] */\n      0x20\n      swap2\n      dup3\n      mul\n      swap3\n      swap1\n      swap3\n      add\n      dup2\n      add\n        /* \"contracts/chains/polygon/RewardSystem.sol\":7278:7309  path[0] = address(_rewardToken) */\n      swap2\n      swap1\n      swap2\n      mstore\n        /* \"contracts/chains/polygon/RewardSystem.sol\":7329:7336  _router */\n      sload(0x0b)\n        /* \"contracts/chains/polygon/RewardSystem.sol\":7329:7343  _router.WETH() */\n      0x40\n      dup1\n      mload\n      shl(0xe3, 0x15ab88c9)\n      dup2\n      mstore\n      swap1\n      mload\n        /* \"contracts/chains/polygon/RewardSystem.sol\":7329:7336  _router */\n      swap2\n      swap1\n      swap4\n      and\n      swap3\n        /* \"contracts/chains/polygon/RewardSystem.sol\":7329:7341  _router.WETH */\n      0xad5c4648\n      swap3\n        /* \"contracts/chains/polygon/RewardSystem.sol\":7329:7343  _router.WETH() */\n      0x04\n      dup1\n      dup4\n      add\n      swap4\n        /* \"contracts/chains/polygon/RewardSystem.sol\":7278:7285  path[0] */\n      swap2\n      swap3\n        /* \"contracts/chains/polygon/RewardSystem.sol\":7329:7343  _router.WETH() */\n      dup3\n      swap1\n      sub\n      add\n      dup2\n        /* \"contracts/chains/polygon/RewardSystem.sol\":7329:7336  _router */\n      dup7\n        /* \"contracts/chains/polygon/RewardSystem.sol\":7329:7343  _router.WETH() */\n      dup1\n      extcodesize\n      iszero\n      dup1\n      iszero\n      tag_486\n      jumpi\n      0x00\n      dup1\n      revert\n    tag_486:\n      pop\n      gas\n      staticcall\n      iszero\n      dup1\n      iszero\n      tag_488\n      jumpi\n      returndatasize\n      0x00\n      dup1\n      returndatacopy\n      revert(0x00, returndatasize)\n    tag_488:\n      pop\n      pop\n      pop\n      pop\n      mload(0x40)\n      returndatasize\n      not(0x1f)\n      0x1f\n      dup3\n      add\n      and\n      dup3\n      add\n      dup1\n      0x40\n      mstore\n      pop\n      dup2\n      add\n      swap1\n      tag_489\n      swap2\n      swap1\n      tag_490\n      jump\t// in\n    tag_489:\n        /* \"contracts/chains/polygon/RewardSystem.sol\":7319:7323  path */\n      dup2\n        /* \"contracts/chains/polygon/RewardSystem.sol\":7324:7325  1 */\n      0x01\n        /* \"contracts/chains/polygon/RewardSystem.sol\":7319:7326  path[1] */\n      dup2\n      mload\n      dup2\n      lt\n      tag_492\n      jumpi\n      tag_492\n      tag_238\n      jump\t// in\n    tag_492:\n      sub(shl(0xa0, 0x01), 0x01)\n        /* \"contracts/chains/polygon/RewardSystem.sol\":7319:7343  path[1] = _router.WETH() */\n      swap3\n      dup4\n      and\n        /* \"contracts/chains/polygon/RewardSystem.sol\":7319:7326  path[1] */\n      0x20\n      swap2\n      dup3\n      mul\n      swap3\n      swap1\n      swap3\n      add\n      add\n        /* \"contracts/chains/polygon/RewardSystem.sol\":7319:7343  path[1] = _router.WETH() */\n      mstore\n        /* \"contracts/chains/polygon/RewardSystem.sol\":7354:7366  _rewardToken */\n      sload(0x08)\n        /* \"contracts/chains/polygon/RewardSystem.sol\":7383:7390  _router */\n      sload(0x0b)\n        /* \"contracts/chains/polygon/RewardSystem.sol\":7354:7405  _rewardToken.approve(address(_router), tokenAmount) */\n      mload(0x40)\n      shl(0xe0, 0x095ea7b3)\n      dup2\n      mstore\n        /* \"contracts/chains/polygon/RewardSystem.sol\":7383:7390  _router */\n      swap1\n      dup4\n      and\n        /* \"contracts/chains/polygon/RewardSystem.sol\":7354:7405  _rewardToken.approve(address(_router), tokenAmount) */\n      0x04\n      dup3\n      add\n        /* \"#utility.yul\":6453:6504   */\n      mstore\n        /* \"#utility.yul\":6520:6538   */\n      0x24\n      dup2\n      add\n        /* \"#utility.yul\":6513:6547   */\n      dup6\n      swap1\n      mstore\n        /* \"contracts/chains/polygon/RewardSystem.sol\":7354:7366  _rewardToken */\n      swap2\n      and\n      swap1\n        /* \"contracts/chains/polygon/RewardSystem.sol\":7354:7374  _rewardToken.approve */\n      0x095ea7b3\n      swap1\n        /* \"#utility.yul\":6426:6444   */\n      0x44\n      add\n        /* \"contracts/chains/polygon/RewardSystem.sol\":7354:7405  _rewardToken.approve(address(_router), tokenAmount) */\n      0x20\n      mload(0x40)\n      dup1\n      dup4\n      sub\n      dup2\n      0x00\n      dup8\n      dup1\n      extcodesize\n      iszero\n      dup1\n      iszero\n      tag_494\n      jumpi\n      0x00\n      dup1\n      revert\n    tag_494:\n      pop\n      gas\n      call\n      iszero\n      dup1\n      iszero\n      tag_496\n      jumpi\n      returndatasize\n      0x00\n      dup1\n      returndatacopy\n      revert(0x00, returndatasize)\n    tag_496:\n      pop\n      pop\n      pop\n      pop\n      mload(0x40)\n      returndatasize\n      not(0x1f)\n      0x1f\n      dup3\n      add\n      and\n      dup3\n      add\n      dup1\n      0x40\n      mstore\n      pop\n      dup2\n      add\n      swap1\n      tag_497\n      swap2\n      swap1\n      tag_463\n      jump\t// in\n    tag_497:\n      pop\n        /* \"contracts/chains/polygon/RewardSystem.sol\":7441:7448  _router */\n      sload(0x0b)\n        /* \"contracts/chains/polygon/RewardSystem.sol\":7441:7651  _router.swapExactTokensForETHSupportingFeeOnTransferTokens(... */\n      mload(0x40)\n      shl(0xe0, 0x791ac947)\n      dup2\n      mstore\n      sub(shl(0xa0, 0x01), 0x01)\n        /* \"contracts/chains/polygon/RewardSystem.sol\":7441:7448  _router */\n      swap1\n      swap2\n      and\n      swap1\n        /* \"contracts/chains/polygon/RewardSystem.sol\":7441:7499  _router.swapExactTokensForETHSupportingFeeOnTransferTokens */\n      0x791ac947\n      swap1\n        /* \"contracts/chains/polygon/RewardSystem.sol\":7441:7651  _router.swapExactTokensForETHSupportingFeeOnTransferTokens(... */\n      tag_498\n      swap1\n        /* \"contracts/chains/polygon/RewardSystem.sol\":7513:7524  tokenAmount */\n      dup6\n      swap1\n        /* \"contracts/chains/polygon/RewardSystem.sol\":7441:7448  _router */\n      0x00\n      swap1\n        /* \"contracts/chains/polygon/RewardSystem.sol\":7581:7585  path */\n      dup7\n      swap1\n        /* \"contracts/chains/polygon/RewardSystem.sol\":7607:7611  this */\n      address\n      swap1\n        /* \"contracts/chains/polygon/RewardSystem.sol\":7626:7641  block.timestamp */\n      timestamp\n      swap1\n        /* \"contracts/chains/polygon/RewardSystem.sol\":7441:7651  _router.swapExactTokensForETHSupportingFeeOnTransferTokens(... */\n      0x04\n      add\n      tag_499\n      jump\t// in\n    tag_498:\n      0x00\n      mload(0x40)\n      dup1\n      dup4\n      sub\n      dup2\n      0x00\n      dup8\n      dup1\n      extcodesize\n      iszero\n      dup1\n      iszero\n      tag_500\n      jumpi\n      0x00\n      dup1\n      revert\n    tag_500:\n      pop\n      gas\n      call\n      iszero\n      dup1\n      iszero\n      tag_502\n      jumpi\n      returndatasize\n      0x00\n      dup1\n      returndatacopy\n      revert(0x00, returndatasize)\n    tag_502:\n      pop\n      pop\n      pop\n      pop\n        /* \"contracts/chains/polygon/RewardSystem.sol\":7161:7658  {... */\n      pop\n        /* \"contracts/chains/polygon/RewardSystem.sol\":7106:7658  function swapTokensForEth(uint256 tokenAmount) private {... */\n      pop\n      jump\t// out\n        /* \"@openzeppelin/contracts/utils/math/SafeMath.sol\":3039:3135  function sub(uint256 a, uint256 b) internal pure returns (uint256) {... */\n    tag_381:\n        /* \"@openzeppelin/contracts/utils/math/SafeMath.sol\":3097:3104  uint256 */\n      0x00\n        /* \"@openzeppelin/contracts/utils/math/SafeMath.sol\":3123:3128  a - b */\n      tag_504\n        /* \"@openzeppelin/contracts/utils/math/SafeMath.sol\":3127:3128  b */\n      dup3\n        /* \"@openzeppelin/contracts/utils/math/SafeMath.sol\":3123:3124  a */\n      dup5\n        /* \"@openzeppelin/contracts/utils/math/SafeMath.sol\":3123:3128  a - b */\n      tag_505\n      jump\t// in\n    tag_504:\n        /* \"@openzeppelin/contracts/utils/math/SafeMath.sol\":3116:3128  return a - b */\n      swap4\n        /* \"@openzeppelin/contracts/utils/math/SafeMath.sol\":3039:3135  function sub(uint256 a, uint256 b) internal pure returns (uint256) {... */\n      swap3\n      pop\n      pop\n      pop\n      jump\t// out\n        /* \"@openzeppelin/contracts/utils/math/SafeMath.sol\":3767:3863  function div(uint256 a, uint256 b) internal pure returns (uint256) {... */\n    tag_384:\n        /* \"@openzeppelin/contracts/utils/math/SafeMath.sol\":3825:3832  uint256 */\n      0x00\n        /* \"@openzeppelin/contracts/utils/math/SafeMath.sol\":3851:3856  a / b */\n      tag_504\n        /* \"@openzeppelin/contracts/utils/math/SafeMath.sol\":3855:3856  b */\n      dup3\n        /* \"@openzeppelin/contracts/utils/math/SafeMath.sol\":3851:3852  a */\n      dup5\n        /* \"@openzeppelin/contracts/utils/math/SafeMath.sol\":3851:3856  a / b */\n      tag_508\n      jump\t// in\n        /* \"#utility.yul\":14:762   */\n    tag_510:\n        /* \"#utility.yul\":68:73   */\n      0x00\n        /* \"#utility.yul\":121:124   */\n      dup3\n        /* \"#utility.yul\":114:118   */\n      0x1f\n        /* \"#utility.yul\":106:112   */\n      dup4\n        /* \"#utility.yul\":102:119   */\n      add\n        /* \"#utility.yul\":98:125   */\n      slt\n        /* \"#utility.yul\":88:143   */\n      tag_512\n      jumpi\n        /* \"#utility.yul\":139:140   */\n      0x00\n        /* \"#utility.yul\":136:137   */\n      dup1\n        /* \"#utility.yul\":129:141   */\n      revert\n        /* \"#utility.yul\":88:143   */\n    tag_512:\n        /* \"#utility.yul\":175:181   */\n      dup2\n        /* \"#utility.yul\":162:182   */\n      calldataload\n        /* \"#utility.yul\":201:205   */\n      0x20\n        /* \"#utility.yul\":225:285   */\n      tag_513\n        /* \"#utility.yul\":241:284   */\n      tag_514\n        /* \"#utility.yul\":281:283   */\n      dup4\n        /* \"#utility.yul\":241:284   */\n      tag_515\n      jump\t// in\n    tag_514:\n        /* \"#utility.yul\":225:285   */\n      tag_516\n      jump\t// in\n    tag_513:\n        /* \"#utility.yul\":307:310   */\n      dup1\n        /* \"#utility.yul\":331:333   */\n      dup4\n        /* \"#utility.yul\":326:329   */\n      dup3\n        /* \"#utility.yul\":319:334   */\n      mstore\n        /* \"#utility.yul\":359:361   */\n      dup3\n        /* \"#utility.yul\":354:357   */\n      dup3\n        /* \"#utility.yul\":350:362   */\n      add\n        /* \"#utility.yul\":343:362   */\n      swap2\n      pop\n        /* \"#utility.yul\":394:396   */\n      dup3\n        /* \"#utility.yul\":386:392   */\n      dup7\n        /* \"#utility.yul\":382:397   */\n      add\n        /* \"#utility.yul\":446:449   */\n      dup8\n        /* \"#utility.yul\":441:443   */\n      dup5\n        /* \"#utility.yul\":435:437   */\n      dup7\n        /* \"#utility.yul\":432:433   */\n      0x05\n        /* \"#utility.yul\":428:438   */\n      shl\n        /* \"#utility.yul\":420:426   */\n      dup10\n        /* \"#utility.yul\":416:439   */\n      add\n        /* \"#utility.yul\":412:444   */\n      add\n        /* \"#utility.yul\":409:450   */\n      gt\n        /* \"#utility.yul\":406:467   */\n      iszero\n      tag_517\n      jumpi\n        /* \"#utility.yul\":463:464   */\n      0x00\n        /* \"#utility.yul\":460:461   */\n      dup1\n        /* \"#utility.yul\":453:465   */\n      revert\n        /* \"#utility.yul\":406:467   */\n    tag_517:\n        /* \"#utility.yul\":485:486   */\n      0x00\n        /* \"#utility.yul\":495:733   */\n    tag_518:\n        /* \"#utility.yul\":509:511   */\n      dup6\n        /* \"#utility.yul\":506:507   */\n      dup2\n        /* \"#utility.yul\":503:512   */\n      lt\n        /* \"#utility.yul\":495:733   */\n      iszero\n      tag_520\n      jumpi\n        /* \"#utility.yul\":580:583   */\n      dup2\n        /* \"#utility.yul\":567:584   */\n      calldataload\n        /* \"#utility.yul\":597:628   */\n      tag_521\n        /* \"#utility.yul\":622:627   */\n      dup2\n        /* \"#utility.yul\":597:628   */\n      tag_522\n      jump\t// in\n    tag_521:\n        /* \"#utility.yul\":641:659   */\n      dup5\n      mstore\n        /* \"#utility.yul\":679:691   */\n      swap3\n      dup5\n      add\n      swap3\n        /* \"#utility.yul\":711:723   */\n      swap1\n      dup5\n      add\n      swap1\n        /* \"#utility.yul\":527:528   */\n      0x01\n        /* \"#utility.yul\":520:529   */\n      add\n        /* \"#utility.yul\":495:733   */\n      jump(tag_518)\n    tag_520:\n      pop\n        /* \"#utility.yul\":751:756   */\n      swap1\n      swap8\n        /* \"#utility.yul\":14:762   */\n      swap7\n      pop\n      pop\n      pop\n      pop\n      pop\n      pop\n      pop\n      jump\t// out\n        /* \"#utility.yul\":767:1440   */\n    tag_523:\n        /* \"#utility.yul\":821:826   */\n      0x00\n        /* \"#utility.yul\":874:877   */\n      dup3\n        /* \"#utility.yul\":867:871   */\n      0x1f\n        /* \"#utility.yul\":859:865   */\n      dup4\n        /* \"#utility.yul\":855:872   */\n      add\n        /* \"#utility.yul\":851:878   */\n      slt\n        /* \"#utility.yul\":841:896   */\n      tag_525\n      jumpi\n        /* \"#utility.yul\":892:893   */\n      0x00\n        /* \"#utility.yul\":889:890   */\n      dup1\n        /* \"#utility.yul\":882:894   */\n      revert\n        /* \"#utility.yul\":841:896   */\n    tag_525:\n        /* \"#utility.yul\":928:934   */\n      dup2\n        /* \"#utility.yul\":915:935   */\n      calldataload\n        /* \"#utility.yul\":954:958   */\n      0x20\n        /* \"#utility.yul\":978:1038   */\n      tag_526\n        /* \"#utility.yul\":994:1037   */\n      tag_514\n        /* \"#utility.yul\":1034:1036   */\n      dup4\n        /* \"#utility.yul\":994:1037   */\n      tag_515\n      jump\t// in\n        /* \"#utility.yul\":978:1038   */\n    tag_526:\n        /* \"#utility.yul\":1060:1063   */\n      dup1\n        /* \"#utility.yul\":1084:1086   */\n      dup4\n        /* \"#utility.yul\":1079:1082   */\n      dup3\n        /* \"#utility.yul\":1072:1087   */\n      mstore\n        /* \"#utility.yul\":1112:1114   */\n      dup3\n        /* \"#utility.yul\":1107:1110   */\n      dup3\n        /* \"#utility.yul\":1103:1115   */\n      add\n        /* \"#utility.yul\":1096:1115   */\n      swap2\n      pop\n        /* \"#utility.yul\":1147:1149   */\n      dup3\n        /* \"#utility.yul\":1139:1145   */\n      dup7\n        /* \"#utility.yul\":1135:1150   */\n      add\n        /* \"#utility.yul\":1199:1202   */\n      dup8\n        /* \"#utility.yul\":1194:1196   */\n      dup5\n        /* \"#utility.yul\":1188:1190   */\n      dup7\n        /* \"#utility.yul\":1185:1186   */\n      0x05\n        /* \"#utility.yul\":1181:1191   */\n      shl\n        /* \"#utility.yul\":1173:1179   */\n      dup10\n        /* \"#utility.yul\":1169:1192   */\n      add\n        /* \"#utility.yul\":1165:1197   */\n      add\n        /* \"#utility.yul\":1162:1203   */\n      gt\n        /* \"#utility.yul\":1159:1220   */\n      iszero\n      tag_528\n      jumpi\n        /* \"#utility.yul\":1216:1217   */\n      0x00\n        /* \"#utility.yul\":1213:1214   */\n      dup1\n        /* \"#utility.yul\":1206:1218   */\n      revert\n        /* \"#utility.yul\":1159:1220   */\n    tag_528:\n        /* \"#utility.yul\":1238:1239   */\n      0x00\n        /* \"#utility.yul\":1248:1411   */\n    tag_529:\n        /* \"#utility.yul\":1262:1264   */\n      dup6\n        /* \"#utility.yul\":1259:1260   */\n      dup2\n        /* \"#utility.yul\":1256:1265   */\n      lt\n        /* \"#utility.yul\":1248:1411   */\n      iszero\n      tag_520\n      jumpi\n        /* \"#utility.yul\":1319:1336   */\n      dup2\n      calldataload\n        /* \"#utility.yul\":1307:1337   */\n      dup5\n      mstore\n        /* \"#utility.yul\":1357:1369   */\n      swap3\n      dup5\n      add\n      swap3\n        /* \"#utility.yul\":1389:1401   */\n      swap1\n      dup5\n      add\n      swap1\n        /* \"#utility.yul\":1280:1281   */\n      0x01\n        /* \"#utility.yul\":1273:1282   */\n      add\n        /* \"#utility.yul\":1248:1411   */\n      jump(tag_529)\n        /* \"#utility.yul\":1445:1692   */\n    tag_62:\n        /* \"#utility.yul\":1504:1510   */\n      0x00\n        /* \"#utility.yul\":1557:1559   */\n      0x20\n        /* \"#utility.yul\":1545:1554   */\n      dup3\n        /* \"#utility.yul\":1536:1543   */\n      dup5\n        /* \"#utility.yul\":1532:1555   */\n      sub\n        /* \"#utility.yul\":1528:1560   */\n      slt\n        /* \"#utility.yul\":1525:1577   */\n      iszero\n      tag_533\n      jumpi\n        /* \"#utility.yul\":1573:1574   */\n      0x00\n        /* \"#utility.yul\":1570:1571   */\n      dup1\n        /* \"#utility.yul\":1563:1575   */\n      revert\n        /* \"#utility.yul\":1525:1577   */\n    tag_533:\n        /* \"#utility.yul\":1612:1621   */\n      dup2\n        /* \"#utility.yul\":1599:1622   */\n      calldataload\n        /* \"#utility.yul\":1631:1662   */\n      tag_504\n        /* \"#utility.yul\":1656:1661   */\n      dup2\n        /* \"#utility.yul\":1631:1662   */\n      tag_522\n      jump\t// in\n        /* \"#utility.yul\":1697:1948   */\n    tag_490:\n        /* \"#utility.yul\":1767:1773   */\n      0x00\n        /* \"#utility.yul\":1820:1822   */\n      0x20\n        /* \"#utility.yul\":1808:1817   */\n      dup3\n        /* \"#utility.yul\":1799:1806   */\n      dup5\n        /* \"#utility.yul\":1795:1818   */\n      sub\n        /* \"#utility.yul\":1791:1823   */\n      slt\n        /* \"#utility.yul\":1788:1840   */\n      iszero\n      tag_536\n      jumpi\n        /* \"#utility.yul\":1836:1837   */\n      0x00\n        /* \"#utility.yul\":1833:1834   */\n      dup1\n        /* \"#utility.yul\":1826:1838   */\n      revert\n        /* \"#utility.yul\":1788:1840   */\n    tag_536:\n        /* \"#utility.yul\":1868:1877   */\n      dup2\n        /* \"#utility.yul\":1862:1878   */\n      mload\n        /* \"#utility.yul\":1887:1918   */\n      tag_504\n        /* \"#utility.yul\":1912:1917   */\n      dup2\n        /* \"#utility.yul\":1887:1918   */\n      tag_522\n      jump\t// in\n        /* \"#utility.yul\":1953:2548   */\n    tag_67:\n        /* \"#utility.yul\":2071:2077   */\n      0x00\n        /* \"#utility.yul\":2079:2085   */\n      dup1\n        /* \"#utility.yul\":2132:2134   */\n      0x40\n        /* \"#utility.yul\":2120:2129   */\n      dup4\n        /* \"#utility.yul\":2111:2118   */\n      dup6\n        /* \"#utility.yul\":2107:2130   */\n      sub\n        /* \"#utility.yul\":2103:2135   */\n      slt\n        /* \"#utility.yul\":2100:2152   */\n      iszero\n      tag_539\n      jumpi\n        /* \"#utility.yul\":2148:2149   */\n      0x00\n        /* \"#utility.yul\":2145:2146   */\n      dup1\n        /* \"#utility.yul\":2138:2150   */\n      revert\n        /* \"#utility.yul\":2100:2152   */\n    tag_539:\n        /* \"#utility.yul\":2188:2197   */\n      dup3\n        /* \"#utility.yul\":2175:2198   */\n      calldataload\n        /* \"#utility.yul\":2217:2235   */\n      0xffffffffffffffff\n        /* \"#utility.yul\":2258:2260   */\n      dup1\n        /* \"#utility.yul\":2250:2256   */\n      dup3\n        /* \"#utility.yul\":2247:2261   */\n      gt\n        /* \"#utility.yul\":2244:2278   */\n      iszero\n      tag_540\n      jumpi\n        /* \"#utility.yul\":2274:2275   */\n      0x00\n        /* \"#utility.yul\":2271:2272   */\n      dup1\n        /* \"#utility.yul\":2264:2276   */\n      revert\n        /* \"#utility.yul\":2244:2278   */\n    tag_540:\n        /* \"#utility.yul\":2297:2358   */\n      tag_541\n        /* \"#utility.yul\":2350:2357   */\n      dup7\n        /* \"#utility.yul\":2341:2347   */\n      dup4\n        /* \"#utility.yul\":2330:2339   */\n      dup8\n        /* \"#utility.yul\":2326:2348   */\n      add\n        /* \"#utility.yul\":2297:2358   */\n      tag_523\n      jump\t// in\n    tag_541:\n        /* \"#utility.yul\":2287:2358   */\n      swap4\n      pop\n        /* \"#utility.yul\":2411:2413   */\n      0x20\n        /* \"#utility.yul\":2400:2409   */\n      dup6\n        /* \"#utility.yul\":2396:2414   */\n      add\n        /* \"#utility.yul\":2383:2415   */\n      calldataload\n        /* \"#utility.yul\":2367:2415   */\n      swap2\n      pop\n        /* \"#utility.yul\":2440:2442   */\n      dup1\n        /* \"#utility.yul\":2430:2438   */\n      dup3\n        /* \"#utility.yul\":2427:2443   */\n      gt\n        /* \"#utility.yul\":2424:2460   */\n      iszero\n      tag_542\n      jumpi\n        /* \"#utility.yul\":2456:2457   */\n      0x00\n        /* \"#utility.yul\":2453:2454   */\n      dup1\n        /* \"#utility.yul\":2446:2458   */\n      revert\n        /* \"#utility.yul\":2424:2460   */\n    tag_542:\n      pop\n        /* \"#utility.yul\":2479:2542   */\n      tag_543\n        /* \"#utility.yul\":2534:2541   */\n      dup6\n        /* \"#utility.yul\":2523:2531   */\n      dup3\n        /* \"#utility.yul\":2512:2521   */\n      dup7\n        /* \"#utility.yul\":2508:2532   */\n      add\n        /* \"#utility.yul\":2479:2542   */\n      tag_510\n      jump\t// in\n    tag_543:\n        /* \"#utility.yul\":2469:2542   */\n      swap2\n      pop\n      pop\n        /* \"#utility.yul\":1953:2548   */\n      swap3\n      pop\n      swap3\n      swap1\n      pop\n      jump\t// out\n        /* \"#utility.yul\":2553:3216   */\n    tag_72:\n        /* \"#utility.yul\":2680:2686   */\n      0x00\n        /* \"#utility.yul\":2688:2694   */\n      dup1\n        /* \"#utility.yul\":2696:2702   */\n      0x00\n        /* \"#utility.yul\":2749:2751   */\n      0x60\n        /* \"#utility.yul\":2737:2746   */\n      dup5\n        /* \"#utility.yul\":2728:2735   */\n      dup7\n        /* \"#utility.yul\":2724:2747   */\n      sub\n        /* \"#utility.yul\":2720:2752   */\n      slt\n        /* \"#utility.yul\":2717:2769   */\n      iszero\n      tag_545\n      jumpi\n        /* \"#utility.yul\":2765:2766   */\n      0x00\n        /* \"#utility.yul\":2762:2763   */\n      dup1\n        /* \"#utility.yul\":2755:2767   */\n      revert\n        /* \"#utility.yul\":2717:2769   */\n    tag_545:\n        /* \"#utility.yul\":2805:2814   */\n      dup4\n        /* \"#utility.yul\":2792:2815   */\n      calldataload\n        /* \"#utility.yul\":2834:2852   */\n      0xffffffffffffffff\n        /* \"#utility.yul\":2875:2877   */\n      dup1\n        /* \"#utility.yul\":2867:2873   */\n      dup3\n        /* \"#utility.yul\":2864:2878   */\n      gt\n        /* \"#utility.yul\":2861:2895   */\n      iszero\n      tag_546\n      jumpi\n        /* \"#utility.yul\":2891:2892   */\n      0x00\n        /* \"#utility.yul\":2888:2889   */\n      dup1\n        /* \"#utility.yul\":2881:2893   */\n      revert\n        /* \"#utility.yul\":2861:2895   */\n    tag_546:\n        /* \"#utility.yul\":2914:2975   */\n      tag_547\n        /* \"#utility.yul\":2967:2974   */\n      dup8\n        /* \"#utility.yul\":2958:2964   */\n      dup4\n        /* \"#utility.yul\":2947:2956   */\n      dup9\n        /* \"#utility.yul\":2943:2965   */\n      add\n        /* \"#utility.yul\":2914:2975   */\n      tag_523\n      jump\t// in\n    tag_547:\n        /* \"#utility.yul\":2904:2975   */\n      swap5\n      pop\n        /* \"#utility.yul\":3028:3030   */\n      0x20\n        /* \"#utility.yul\":3017:3026   */\n      dup7\n        /* \"#utility.yul\":3013:3031   */\n      add\n        /* \"#utility.yul\":3000:3032   */\n      calldataload\n        /* \"#utility.yul\":2984:3032   */\n      swap2\n      pop\n        /* \"#utility.yul\":3057:3059   */\n      dup1\n        /* \"#utility.yul\":3047:3055   */\n      dup3\n        /* \"#utility.yul\":3044:3060   */\n      gt\n        /* \"#utility.yul\":3041:3077   */\n      iszero\n      tag_548\n      jumpi\n        /* \"#utility.yul\":3073:3074   */\n      0x00\n        /* \"#utility.yul\":3070:3071   */\n      dup1\n        /* \"#utility.yul\":3063:3075   */\n      revert\n        /* \"#utility.yul\":3041:3077   */\n    tag_548:\n      pop\n        /* \"#utility.yul\":3096:3159   */\n      tag_549\n        /* \"#utility.yul\":3151:3158   */\n      dup7\n        /* \"#utility.yul\":3140:3148   */\n      dup3\n        /* \"#utility.yul\":3129:3138   */\n      dup8\n        /* \"#utility.yul\":3125:3149   */\n      add\n        /* \"#utility.yul\":3096:3159   */\n      tag_510\n      jump\t// in\n    tag_549:\n        /* \"#utility.yul\":3086:3159   */\n      swap3\n      pop\n      pop\n        /* \"#utility.yul\":3206:3208   */\n      0x40\n        /* \"#utility.yul\":3195:3204   */\n      dup5\n        /* \"#utility.yul\":3191:3209   */\n      add\n        /* \"#utility.yul\":3178:3210   */\n      calldataload\n        /* \"#utility.yul\":3168:3210   */\n      swap1\n      pop\n        /* \"#utility.yul\":2553:3216   */\n      swap3\n      pop\n      swap3\n      pop\n      swap3\n      jump\t// out\n        /* \"#utility.yul\":3221:3498   */\n    tag_463:\n        /* \"#utility.yul\":3288:3294   */\n      0x00\n        /* \"#utility.yul\":3341:3343   */\n      0x20\n        /* \"#utility.yul\":3329:3338   */\n      dup3\n        /* \"#utility.yul\":3320:3327   */\n      dup5\n        /* \"#utility.yul\":3316:3339   */\n      sub\n        /* \"#utility.yul\":3312:3344   */\n      slt\n        /* \"#utility.yul\":3309:3361   */\n      iszero\n      tag_551\n      jumpi\n        /* \"#utility.yul\":3357:3358   */\n      0x00\n        /* \"#utility.yul\":3354:3355   */\n      dup1\n        /* \"#utility.yul\":3347:3359   */\n      revert\n        /* \"#utility.yul\":3309:3361   */\n    tag_551:\n        /* \"#utility.yul\":3389:3398   */\n      dup2\n        /* \"#utility.yul\":3383:3399   */\n      mload\n        /* \"#utility.yul\":3442:3447   */\n      dup1\n        /* \"#utility.yul\":3435:3448   */\n      iszero\n        /* \"#utility.yul\":3428:3449   */\n      iszero\n        /* \"#utility.yul\":3421:3426   */\n      dup2\n        /* \"#utility.yul\":3418:3450   */\n      eq\n        /* \"#utility.yul\":3408:3468   */\n      tag_504\n      jumpi\n        /* \"#utility.yul\":3464:3465   */\n      0x00\n        /* \"#utility.yul\":3461:3462   */\n      dup1\n        /* \"#utility.yul\":3454:3466   */\n      revert\n        /* \"#utility.yul\":4048:4812   */\n    tag_122:\n        /* \"#utility.yul\":4117:4123   */\n      0x00\n        /* \"#utility.yul\":4148:4150   */\n      0x20\n        /* \"#utility.yul\":4191:4193   */\n      dup1\n        /* \"#utility.yul\":4179:4188   */\n      dup4\n        /* \"#utility.yul\":4170:4177   */\n      dup6\n        /* \"#utility.yul\":4166:4189   */\n      sub\n        /* \"#utility.yul\":4162:4194   */\n      slt\n        /* \"#utility.yul\":4159:4211   */\n      iszero\n      tag_560\n      jumpi\n        /* \"#utility.yul\":4207:4208   */\n      0x00\n        /* \"#utility.yul\":4204:4205   */\n      dup1\n        /* \"#utility.yul\":4197:4209   */\n      revert\n        /* \"#utility.yul\":4159:4211   */\n    tag_560:\n        /* \"#utility.yul\":4247:4256   */\n      dup3\n        /* \"#utility.yul\":4234:4257   */\n      calldataload\n        /* \"#utility.yul\":4276:4294   */\n      0xffffffffffffffff\n        /* \"#utility.yul\":4317:4319   */\n      dup1\n        /* \"#utility.yul\":4309:4315   */\n      dup3\n        /* \"#utility.yul\":4306:4320   */\n      gt\n        /* \"#utility.yul\":4303:4337   */\n      iszero\n      tag_561\n      jumpi\n        /* \"#utility.yul\":4333:4334   */\n      0x00\n        /* \"#utility.yul\":4330:4331   */\n      dup1\n        /* \"#utility.yul\":4323:4335   */\n      revert\n        /* \"#utility.yul\":4303:4337   */\n    tag_561:\n        /* \"#utility.yul\":4371:4377   */\n      dup2\n        /* \"#utility.yul\":4360:4369   */\n      dup6\n        /* \"#utility.yul\":4356:4378   */\n      add\n        /* \"#utility.yul\":4346:4378   */\n      swap2\n      pop\n        /* \"#utility.yul\":4416:4423   */\n      dup6\n        /* \"#utility.yul\":4409:4413   */\n      0x1f\n        /* \"#utility.yul\":4405:4407   */\n      dup4\n        /* \"#utility.yul\":4401:4414   */\n      add\n        /* \"#utility.yul\":4397:4424   */\n      slt\n        /* \"#utility.yul\":4387:4442   */\n      tag_562\n      jumpi\n        /* \"#utility.yul\":4438:4439   */\n      0x00\n        /* \"#utility.yul\":4435:4436   */\n      dup1\n        /* \"#utility.yul\":4428:4440   */\n      revert\n        /* \"#utility.yul\":4387:4442   */\n    tag_562:\n        /* \"#utility.yul\":4474:4476   */\n      dup2\n        /* \"#utility.yul\":4461:4477   */\n      calldataload\n        /* \"#utility.yul\":4496:4498   */\n      dup2\n        /* \"#utility.yul\":4492:4494   */\n      dup2\n        /* \"#utility.yul\":4489:4499   */\n      gt\n        /* \"#utility.yul\":4486:4522   */\n      iszero\n      tag_564\n      jumpi\n        /* \"#utility.yul\":4502:4520   */\n      tag_564\n      tag_470\n      jump\t// in\n    tag_564:\n        /* \"#utility.yul\":4544:4597   */\n      tag_565\n        /* \"#utility.yul\":4587:4589   */\n      0x1f\n        /* \"#utility.yul\":4568:4581   */\n      dup3\n      add\n      not(0x1f)\n        /* \"#utility.yul\":4564:4591   */\n      and\n        /* \"#utility.yul\":4560:4596   */\n      dup6\n      add\n        /* \"#utility.yul\":4544:4597   */\n      tag_516\n      jump\t// in\n    tag_565:\n        /* \"#utility.yul\":4531:4597   */\n      swap2\n      pop\n        /* \"#utility.yul\":4620:4622   */\n      dup1\n        /* \"#utility.yul\":4613:4618   */\n      dup3\n        /* \"#utility.yul\":4606:4623   */\n      mstore\n        /* \"#utility.yul\":4660:4667   */\n      dup7\n        /* \"#utility.yul\":4655:4657   */\n      dup5\n        /* \"#utility.yul\":4650:4652   */\n      dup3\n        /* \"#utility.yul\":4646:4648   */\n      dup6\n        /* \"#utility.yul\":4642:4653   */\n      add\n        /* \"#utility.yul\":4638:4658   */\n      add\n        /* \"#utility.yul\":4635:4668   */\n      gt\n        /* \"#utility.yul\":4632:4685   */\n      iszero\n      tag_566\n      jumpi\n        /* \"#utility.yul\":4681:4682   */\n      0x00\n        /* \"#utility.yul\":4678:4679   */\n      dup1\n        /* \"#utility.yul\":4671:4683   */\n      revert\n        /* \"#utility.yul\":4632:4685   */\n    tag_566:\n        /* \"#utility.yul\":4736:4738   */\n      dup1\n        /* \"#utility.yul\":4731:4733   */\n      dup5\n        /* \"#utility.yul\":4727:4729   */\n      dup5\n        /* \"#utility.yul\":4723:4734   */\n      add\n        /* \"#utility.yul\":4718:4720   */\n      dup6\n        /* \"#utility.yul\":4711:4716   */\n      dup5\n        /* \"#utility.yul\":4707:4721   */\n      add\n        /* \"#utility.yul\":4694:4739   */\n      calldatacopy\n        /* \"#utility.yul\":4780:4781   */\n      0x00\n        /* \"#utility.yul\":4759:4773   */\n      swap1\n      dup3\n      add\n        /* \"#utility.yul\":4755:4778   */\n      swap1\n      swap4\n      add\n        /* \"#utility.yul\":4748:4782   */\n      swap3\n      swap1\n      swap3\n      mstore\n      pop\n        /* \"#utility.yul\":4763:4768   */\n      swap4\n        /* \"#utility.yul\":4048:4812   */\n      swap3\n      pop\n      pop\n      pop\n      jump\t// out\n        /* \"#utility.yul\":4817:4997   */\n    tag_109:\n        /* \"#utility.yul\":4876:4882   */\n      0x00\n        /* \"#utility.yul\":4929:4931   */\n      0x20\n        /* \"#utility.yul\":4917:4926   */\n      dup3\n        /* \"#utility.yul\":4908:4915   */\n      dup5\n        /* \"#utility.yul\":4904:4927   */\n      sub\n        /* \"#utility.yul\":4900:4932   */\n      slt\n        /* \"#utility.yul\":4897:4949   */\n      iszero\n      tag_568\n      jumpi\n        /* \"#utility.yul\":4945:4946   */\n      0x00\n        /* \"#utility.yul\":4942:4943   */\n      dup1\n        /* \"#utility.yul\":4935:4947   */\n      revert\n        /* \"#utility.yul\":4897:4949   */\n    tag_568:\n      pop\n        /* \"#utility.yul\":4968:4991   */\n      calldataload\n      swap2\n        /* \"#utility.yul\":4817:4997   */\n      swap1\n      pop\n      jump\t// out\n        /* \"#utility.yul\":5002:5186   */\n    tag_196:\n        /* \"#utility.yul\":5072:5078   */\n      0x00\n        /* \"#utility.yul\":5125:5127   */\n      0x20\n        /* \"#utility.yul\":5113:5122   */\n      dup3\n        /* \"#utility.yul\":5104:5111   */\n      dup5\n        /* \"#utility.yul\":5100:5123   */\n      sub\n        /* \"#utility.yul\":5096:5128   */\n      slt\n        /* \"#utility.yul\":5093:5145   */\n      iszero\n      tag_570\n      jumpi\n        /* \"#utility.yul\":5141:5142   */\n      0x00\n        /* \"#utility.yul\":5138:5139   */\n      dup1\n        /* \"#utility.yul\":5131:5143   */\n      revert\n        /* \"#utility.yul\":5093:5145   */\n    tag_570:\n      pop\n        /* \"#utility.yul\":5164:5180   */\n      mload\n      swap2\n        /* \"#utility.yul\":5002:5186   */\n      swap1\n      pop\n      jump\t// out\n        /* \"#utility.yul\":5191:5506   */\n    tag_154:\n        /* \"#utility.yul\":5259:5265   */\n      0x00\n        /* \"#utility.yul\":5267:5273   */\n      dup1\n        /* \"#utility.yul\":5320:5322   */\n      0x40\n        /* \"#utility.yul\":5308:5317   */\n      dup4\n        /* \"#utility.yul\":5299:5306   */\n      dup6\n        /* \"#utility.yul\":5295:5318   */\n      sub\n        /* \"#utility.yul\":5291:5323   */\n      slt\n        /* \"#utility.yul\":5288:5340   */\n      iszero\n      tag_572\n      jumpi\n        /* \"#utility.yul\":5336:5337   */\n      0x00\n        /* \"#utility.yul\":5333:5334   */\n      dup1\n        /* \"#utility.yul\":5326:5338   */\n      revert\n        /* \"#utility.yul\":5288:5340   */\n    tag_572:\n        /* \"#utility.yul\":5372:5381   */\n      dup3\n        /* \"#utility.yul\":5359:5382   */\n      calldataload\n        /* \"#utility.yul\":5349:5382   */\n      swap2\n      pop\n        /* \"#utility.yul\":5432:5434   */\n      0x20\n        /* \"#utility.yul\":5421:5430   */\n      dup4\n        /* \"#utility.yul\":5417:5435   */\n      add\n        /* \"#utility.yul\":5404:5436   */\n      calldataload\n        /* \"#utility.yul\":5445:5476   */\n      tag_573\n        /* \"#utility.yul\":5470:5475   */\n      dup2\n        /* \"#utility.yul\":5445:5476   */\n      tag_522\n      jump\t// in\n    tag_573:\n        /* \"#utility.yul\":5495:5500   */\n      dup1\n        /* \"#utility.yul\":5485:5500   */\n      swap2\n      pop\n      pop\n        /* \"#utility.yul\":5191:5506   */\n      swap3\n      pop\n      swap3\n      swap1\n      pop\n      jump\t// out\n        /* \"#utility.yul\":5511:5785   */\n    tag_456:\n        /* \"#utility.yul\":5640:5643   */\n      0x00\n        /* \"#utility.yul\":5678:5684   */\n      dup3\n        /* \"#utility.yul\":5672:5685   */\n      mload\n        /* \"#utility.yul\":5694:5747   */\n      tag_575\n        /* \"#utility.yul\":5740:5746   */\n      dup2\n        /* \"#utility.yul\":5735:5738   */\n      dup5\n        /* \"#utility.yul\":5728:5732   */\n      0x20\n        /* \"#utility.yul\":5720:5726   */\n      dup8\n        /* \"#utility.yul\":5716:5733   */\n      add\n        /* \"#utility.yul\":5694:5747   */\n      tag_576\n      jump\t// in\n    tag_575:\n        /* \"#utility.yul\":5763:5779   */\n      swap2\n      swap1\n      swap2\n      add\n      swap3\n        /* \"#utility.yul\":5511:5785   */\n      swap2\n      pop\n      pop\n      jump\t// out\n        /* \"#utility.yul\":9369:9725   */\n    tag_228:\n        /* \"#utility.yul\":9571:9573   */\n      0x20\n        /* \"#utility.yul\":9553:9574   */\n      dup1\n      dup3\n      mstore\n        /* \"#utility.yul\":9590:9608   */\n      dup2\n      dup2\n      add\n        /* \"#utility.yul\":9583:9613   */\n      mstore\n        /* \"#utility.yul\":9649:9683   */\n      0x4f776e61626c653a2063616c6c6572206973206e6f7420746865206f776e6572\n        /* \"#utility.yul\":9644:9646   */\n      0x40\n        /* \"#utility.yul\":9629:9647   */\n      dup3\n      add\n        /* \"#utility.yul\":9622:9684   */\n      mstore\n        /* \"#utility.yul\":9716:9718   */\n      0x60\n        /* \"#utility.yul\":9701:9719   */\n      add\n      swap1\n        /* \"#utility.yul\":9369:9725   */\n      jump\t// out\n        /* \"#utility.yul\":10641:10983   */\n    tag_215:\n        /* \"#utility.yul\":10843:10845   */\n      0x20\n        /* \"#utility.yul\":10825:10846   */\n      dup1\n      dup3\n      mstore\n        /* \"#utility.yul\":10882:10884   */\n      0x12\n        /* \"#utility.yul\":10862:10880   */\n      swap1\n      dup3\n      add\n        /* \"#utility.yul\":10855:10885   */\n      mstore\n      shl(0x72, 0x119d5b98dd1a5bdb881a5cc81b1bd8dad959)\n        /* \"#utility.yul\":10916:10918   */\n      0x40\n        /* \"#utility.yul\":10901:10919   */\n      dup3\n      add\n        /* \"#utility.yul\":10894:10942   */\n      mstore\n        /* \"#utility.yul\":10974:10976   */\n      0x60\n        /* \"#utility.yul\":10959:10977   */\n      add\n      swap1\n        /* \"#utility.yul\":10641:10983   */\n      jump\t// out\n        /* \"#utility.yul\":10988:11405   */\n    tag_202:\n        /* \"#utility.yul\":11190:11192   */\n      0x20\n        /* \"#utility.yul\":11172:11193   */\n      dup1\n      dup3\n      mstore\n        /* \"#utility.yul\":11229:11231   */\n      0x35\n        /* \"#utility.yul\":11209:11227   */\n      swap1\n      dup3\n      add\n        /* \"#utility.yul\":11202:11232   */\n      mstore\n        /* \"#utility.yul\":11268:11302   */\n      0x6f70657261746f723a2063616c6c6572206973206e6f7420616c6c6f77656420\n        /* \"#utility.yul\":11263:11265   */\n      0x40\n        /* \"#utility.yul\":11248:11266   */\n      dup3\n      add\n        /* \"#utility.yul\":11241:11303   */\n      mstore\n      shl(0x59, 0x3a379031b0b636103a3434b990333ab731ba34b7b7)\n        /* \"#utility.yul\":11334:11336   */\n      0x60\n        /* \"#utility.yul\":11319:11337   */\n      dup3\n      add\n        /* \"#utility.yul\":11312:11363   */\n      mstore\n        /* \"#utility.yul\":11395:11398   */\n      0x80\n        /* \"#utility.yul\":11380:11399   */\n      add\n      swap1\n        /* \"#utility.yul\":10988:11405   */\n      jump\t// out\n        /* \"#utility.yul\":13893:14873   */\n    tag_499:\n        /* \"#utility.yul\":14155:14159   */\n      0x00\n        /* \"#utility.yul\":14203:14206   */\n      0xa0\n        /* \"#utility.yul\":14192:14201   */\n      dup3\n        /* \"#utility.yul\":14188:14207   */\n      add\n        /* \"#utility.yul\":14234:14240   */\n      dup8\n        /* \"#utility.yul\":14223:14232   */\n      dup4\n        /* \"#utility.yul\":14216:14241   */\n      mstore\n        /* \"#utility.yul\":14260:14262   */\n      0x20\n        /* \"#utility.yul\":14298:14304   */\n      dup8\n        /* \"#utility.yul\":14293:14295   */\n      dup2\n        /* \"#utility.yul\":14282:14291   */\n      dup6\n        /* \"#utility.yul\":14278:14296   */\n      add\n        /* \"#utility.yul\":14271:14305   */\n      mstore\n        /* \"#utility.yul\":14341:14344   */\n      0xa0\n        /* \"#utility.yul\":14336:14338   */\n      0x40\n        /* \"#utility.yul\":14325:14334   */\n      dup6\n        /* \"#utility.yul\":14321:14339   */\n      add\n        /* \"#utility.yul\":14314:14345   */\n      mstore\n        /* \"#utility.yul\":14365:14371   */\n      dup2\n        /* \"#utility.yul\":14400:14406   */\n      dup8\n        /* \"#utility.yul\":14394:14407   */\n      mload\n        /* \"#utility.yul\":14431:14437   */\n      dup1\n        /* \"#utility.yul\":14423:14429   */\n      dup5\n        /* \"#utility.yul\":14416:14438   */\n      mstore\n        /* \"#utility.yul\":14469:14472   */\n      0xc0\n        /* \"#utility.yul\":14458:14467   */\n      dup7\n        /* \"#utility.yul\":14454:14473   */\n      add\n        /* \"#utility.yul\":14447:14473   */\n      swap2\n      pop\n        /* \"#utility.yul\":14508:14510   */\n      dup3\n        /* \"#utility.yul\":14500:14506   */\n      dup10\n        /* \"#utility.yul\":14496:14511   */\n      add\n        /* \"#utility.yul\":14482:14511   */\n      swap4\n      pop\n        /* \"#utility.yul\":14529:14530   */\n      0x00\n        /* \"#utility.yul\":14539:14734   */\n    tag_601:\n        /* \"#utility.yul\":14553:14559   */\n      dup2\n        /* \"#utility.yul\":14550:14551   */\n      dup2\n        /* \"#utility.yul\":14547:14560   */\n      lt\n        /* \"#utility.yul\":14539:14734   */\n      iszero\n      tag_603\n      jumpi\n        /* \"#utility.yul\":14618:14631   */\n      dup5\n      mload\n      sub(shl(0xa0, 0x01), 0x01)\n        /* \"#utility.yul\":14614:14653   */\n      and\n        /* \"#utility.yul\":14602:14654   */\n      dup4\n      mstore\n        /* \"#utility.yul\":14709:14724   */\n      swap4\n      dup4\n      add\n      swap4\n        /* \"#utility.yul\":14674:14686   */\n      swap2\n      dup4\n      add\n      swap2\n        /* \"#utility.yul\":14650:14651   */\n      0x01\n        /* \"#utility.yul\":14568:14577   */\n      add\n        /* \"#utility.yul\":14539:14734   */\n      jump(tag_601)\n    tag_603:\n      pop\n      pop\n      sub(shl(0xa0, 0x01), 0x01)\n        /* \"#utility.yul\":14790:14822   */\n      swap7\n      swap1\n      swap7\n      and\n        /* \"#utility.yul\":14785:14787   */\n      0x60\n        /* \"#utility.yul\":14770:14788   */\n      dup6\n      add\n        /* \"#utility.yul\":14763:14823   */\n      mstore\n      pop\n      pop\n      pop\n        /* \"#utility.yul\":14854:14857   */\n      0x80\n        /* \"#utility.yul\":14839:14858   */\n      add\n        /* \"#utility.yul\":14832:14867   */\n      mstore\n        /* \"#utility.yul\":14751:14754   */\n      swap4\n        /* \"#utility.yul\":13893:14873   */\n      swap3\n      pop\n      pop\n      pop\n      jump\t// out\n        /* \"#utility.yul\":14878:15153   */\n    tag_516:\n        /* \"#utility.yul\":14949:14951   */\n      0x40\n        /* \"#utility.yul\":14943:14952   */\n      mload\n        /* \"#utility.yul\":15014:15016   */\n      0x1f\n        /* \"#utility.yul\":14995:15008   */\n      dup3\n      add\n      not(0x1f)\n        /* \"#utility.yul\":14991:15018   */\n      and\n        /* \"#utility.yul\":14979:15019   */\n      dup2\n      add\n        /* \"#utility.yul\":15049:15067   */\n      0xffffffffffffffff\n        /* \"#utility.yul\":15034:15068   */\n      dup2\n      gt\n        /* \"#utility.yul\":15070:15092   */\n      dup3\n      dup3\n      lt\n        /* \"#utility.yul\":15031:15093   */\n      or\n        /* \"#utility.yul\":15028:15116   */\n      iszero\n      tag_606\n      jumpi\n        /* \"#utility.yul\":15096:15114   */\n      tag_606\n      tag_470\n      jump\t// in\n    tag_606:\n        /* \"#utility.yul\":15132:15134   */\n      0x40\n        /* \"#utility.yul\":15125:15147   */\n      mstore\n        /* \"#utility.yul\":14878:15153   */\n      swap2\n      swap1\n      pop\n      jump\t// out\n        /* \"#utility.yul\":15158:15341   */\n    tag_515:\n        /* \"#utility.yul\":15218:15222   */\n      0x00\n        /* \"#utility.yul\":15251:15269   */\n      0xffffffffffffffff\n        /* \"#utility.yul\":15243:15249   */\n      dup3\n        /* \"#utility.yul\":15240:15270   */\n      gt\n        /* \"#utility.yul\":15237:15293   */\n      iszero\n      tag_609\n      jumpi\n        /* \"#utility.yul\":15273:15291   */\n      tag_609\n      tag_470\n      jump\t// in\n    tag_609:\n      pop\n        /* \"#utility.yul\":15318:15319   */\n      0x05\n        /* \"#utility.yul\":15314:15328   */\n      shl\n        /* \"#utility.yul\":15330:15334   */\n      0x20\n        /* \"#utility.yul\":15310:15335   */\n      add\n      swap1\n        /* \"#utility.yul\":15158:15341   */\n      jump\t// out\n        /* \"#utility.yul\":15346:15474   */\n    tag_212:\n        /* \"#utility.yul\":15386:15389   */\n      0x00\n        /* \"#utility.yul\":15417:15418   */\n      dup3\n        /* \"#utility.yul\":15413:15419   */\n      not\n        /* \"#utility.yul\":15410:15411   */\n      dup3\n        /* \"#utility.yul\":15407:15420   */\n      gt\n        /* \"#utility.yul\":15404:15443   */\n      iszero\n      tag_612\n      jumpi\n        /* \"#utility.yul\":15423:15441   */\n      tag_612\n      tag_613\n      jump\t// in\n    tag_612:\n      pop\n        /* \"#utility.yul\":15459:15468   */\n      add\n      swap1\n        /* \"#utility.yul\":15346:15474   */\n      jump\t// out\n        /* \"#utility.yul\":15479:15696   */\n    tag_508:\n        /* \"#utility.yul\":15519:15520   */\n      0x00\n        /* \"#utility.yul\":15545:15546   */\n      dup3\n        /* \"#utility.yul\":15535:15667   */\n      tag_615\n      jumpi\n        /* \"#utility.yul\":15589:15599   */\n      0x4e487b71\n        /* \"#utility.yul\":15584:15587   */\n      0xe0\n        /* \"#utility.yul\":15580:15600   */\n      shl\n        /* \"#utility.yul\":15577:15578   */\n      0x00\n        /* \"#utility.yul\":15570:15601   */\n      mstore\n        /* \"#utility.yul\":15624:15628   */\n      0x12\n        /* \"#utility.yul\":15621:15622   */\n      0x04\n        /* \"#utility.yul\":15614:15629   */\n      mstore\n        /* \"#utility.yul\":15652:15656   */\n      0x24\n        /* \"#utility.yul\":15649:15650   */\n      0x00\n        /* \"#utility.yul\":15642:15657   */\n      revert\n        /* \"#utility.yul\":15535:15667   */\n    tag_615:\n      pop\n        /* \"#utility.yul\":15681:15690   */\n      div\n      swap1\n        /* \"#utility.yul\":15479:15696   */\n      jump\t// out\n        /* \"#utility.yul\":15701:15826   */\n    tag_505:\n        /* \"#utility.yul\":15741:15745   */\n      0x00\n        /* \"#utility.yul\":15769:15770   */\n      dup3\n        /* \"#utility.yul\":15766:15767   */\n      dup3\n        /* \"#utility.yul\":15763:15771   */\n      lt\n        /* \"#utility.yul\":15760:15794   */\n      iszero\n      tag_618\n      jumpi\n        /* \"#utility.yul\":15774:15792   */\n      tag_618\n      tag_613\n      jump\t// in\n    tag_618:\n      pop\n        /* \"#utility.yul\":15811:15820   */\n      sub\n      swap1\n        /* \"#utility.yul\":15701:15826   */\n      jump\t// out\n        /* \"#utility.yul\":15831:16089   */\n    tag_576:\n        /* \"#utility.yul\":15903:15904   */\n      0x00\n        /* \"#utility.yul\":15913:16026   */\n    tag_620:\n        /* \"#utility.yul\":15927:15933   */\n      dup4\n        /* \"#utility.yul\":15924:15925   */\n      dup2\n        /* \"#utility.yul\":15921:15934   */\n      lt\n        /* \"#utility.yul\":15913:16026   */\n      iszero\n      tag_622\n      jumpi\n        /* \"#utility.yul\":16003:16014   */\n      dup2\n      dup2\n      add\n        /* \"#utility.yul\":15997:16015   */\n      mload\n        /* \"#utility.yul\":15984:15995   */\n      dup4\n      dup3\n      add\n        /* \"#utility.yul\":15977:16016   */\n      mstore\n        /* \"#utility.yul\":15949:15951   */\n      0x20\n        /* \"#utility.yul\":15942:15952   */\n      add\n        /* \"#utility.yul\":15913:16026   */\n      jump(tag_620)\n    tag_622:\n        /* \"#utility.yul\":16044:16050   */\n      dup4\n        /* \"#utility.yul\":16041:16042   */\n      dup2\n        /* \"#utility.yul\":16038:16051   */\n      gt\n        /* \"#utility.yul\":16035:16083   */\n      iszero\n      tag_623\n      jumpi\n        /* \"#utility.yul\":16079:16080   */\n      0x00\n        /* \"#utility.yul\":16070:16076   */\n      dup5\n        /* \"#utility.yul\":16065:16068   */\n      dup5\n        /* \"#utility.yul\":16061:16077   */\n      add\n        /* \"#utility.yul\":16054:16081   */\n      mstore\n        /* \"#utility.yul\":16035:16083   */\n    tag_623:\n      pop\n        /* \"#utility.yul\":15831:16089   */\n      pop\n      pop\n      pop\n      jump\t// out\n        /* \"#utility.yul\":16094:16229   */\n    tag_266:\n        /* \"#utility.yul\":16133:16136   */\n      0x00\n      not(0x00)\n        /* \"#utility.yul\":16154:16171   */\n      dup3\n      eq\n        /* \"#utility.yul\":16151:16194   */\n      iszero\n      tag_626\n      jumpi\n        /* \"#utility.yul\":16174:16192   */\n      tag_626\n      tag_613\n      jump\t// in\n    tag_626:\n      pop\n        /* \"#utility.yul\":16221:16222   */\n      0x01\n        /* \"#utility.yul\":16210:16223   */\n      add\n      swap1\n        /* \"#utility.yul\":16094:16229   */\n      jump\t// out\n        /* \"#utility.yul\":16234:16361   */\n    tag_613:\n        /* \"#utility.yul\":16295:16305   */\n      0x4e487b71\n        /* \"#utility.yul\":16290:16293   */\n      0xe0\n        /* \"#utility.yul\":16286:16306   */\n      shl\n        /* \"#utility.yul\":16283:16284   */\n      0x00\n        /* \"#utility.yul\":16276:16307   */\n      mstore\n        /* \"#utility.yul\":16326:16330   */\n      0x11\n        /* \"#utility.yul\":16323:16324   */\n      0x04\n        /* \"#utility.yul\":16316:16331   */\n      mstore\n        /* \"#utility.yul\":16350:16354   */\n      0x24\n        /* \"#utility.yul\":16347:16348   */\n      0x00\n        /* \"#utility.yul\":16340:16355   */\n      revert\n        /* \"#utility.yul\":16366:16493   */\n    tag_238:\n        /* \"#utility.yul\":16427:16437   */\n      0x4e487b71\n        /* \"#utility.yul\":16422:16425   */\n      0xe0\n        /* \"#utility.yul\":16418:16438   */\n      shl\n        /* \"#utility.yul\":16415:16416   */\n      0x00\n        /* \"#utility.yul\":16408:16439   */\n      mstore\n        /* \"#utility.yul\":16458:16462   */\n      0x32\n        /* \"#utility.yul\":16455:16456   */\n      0x04\n        /* \"#utility.yul\":16448:16463   */\n      mstore\n        /* \"#utility.yul\":16482:16486   */\n      0x24\n        /* \"#utility.yul\":16479:16480   */\n      0x00\n        /* \"#utility.yul\":16472:16487   */\n      revert\n        /* \"#utility.yul\":16498:16625   */\n    tag_470:\n        /* \"#utility.yul\":16559:16569   */\n      0x4e487b71\n        /* \"#utility.yul\":16554:16557   */\n      0xe0\n        /* \"#utility.yul\":16550:16570   */\n      shl\n        /* \"#utility.yul\":16547:16548   */\n      0x00\n        /* \"#utility.yul\":16540:16571   */\n      mstore\n        /* \"#utility.yul\":16590:16594   */\n      0x41\n        /* \"#utility.yul\":16587:16588   */\n      0x04\n        /* \"#utility.yul\":16580:16595   */\n      mstore\n        /* \"#utility.yul\":16614:16618   */\n      0x24\n        /* \"#utility.yul\":16611:16612   */\n      0x00\n        /* \"#utility.yul\":16604:16619   */\n      revert\n        /* \"#utility.yul\":16630:16761   */\n    tag_522:\n      sub(shl(0xa0, 0x01), 0x01)\n        /* \"#utility.yul\":16705:16736   */\n      dup2\n      and\n        /* \"#utility.yul\":16695:16737   */\n      dup2\n      eq\n        /* \"#utility.yul\":16685:16755   */\n      tag_424\n      jumpi\n        /* \"#utility.yul\":16751:16752   */\n      0x00\n        /* \"#utility.yul\":16748:16749   */\n      dup1\n        /* \"#utility.yul\":16741:16753   */\n      revert\n\n    auxdata: 0xa2646970667358221220a397b5c600b8d9ea57690fe01fd5287a8c02e19013a2bc0d7dab81869f64c09564736f6c63430008070033\n}\n",
				"bytecode": {
					"linkReferences": {},
					"object": "60806040526000805460ff60a01b19169055640ba43b7400600555600680546001600160a01b03199081167376049b7caab30b8bbbdcff3a1059d9147dbf7b191790915560078054821673c559acc356d3037ec6dbc33a20587051188b86341790556a084595161401484a00000060095562015180600a55600b805490911673bdd4e5660839a088573191a9889a262c0efc0983179055348015620000a357600080fd5b50604051620029dd380380620029dd833981016040819052620000c691620004b9565b620000d13362000112565b600280546001600160a01b03199081163317909155600880546001600160a01b03848116919093161790556006546200010b911662000162565b5062000550565b600080546001600160a01b038381166001600160a01b0319831681178455604051919092169283917f8be0079c531659141344cd1fd0a4f28419497f9722a3daafe3b4186f6b6457e09190a35050565b6000546001600160a01b03163314620001b15760405162461bcd60e51b81526020600482018190526024820152600080516020620029bd83398151915260448201526064015b60405180910390fd5b60408051808201909152601281527118da185b99d953dc9858db1955d85b1b195d60721b6020820152600054600160a01b900460ff1615806200027e5750600181604051620002019190620004eb565b908152602001604051809103902054600014158015620002415750426001826040516200022f9190620004eb565b90815260200160405180910390205411155b80156200027e57504262015180600183604051620002609190620004eb565b9081526020016040518091039020546200027b919062000529565b10155b620002c15760405162461bcd60e51b8152602060048201526012602482015271119d5b98dd1a5bdb881a5cc81b1bd8dad95960721b6044820152606401620001a8565b620002cc826200032a565b600680546001600160a01b038481166001600160a01b0319831681179093556040519116919082907f3920ecd0f25e4e6ce57aaec91e57df499cb7e3e70d6c9604f866ae9265382cf390600090a3506200032681620003ea565b5050565b6000546001600160a01b03163314620003755760405162461bcd60e51b81526020600482018190526024820152600080516020620029bd8339815191526044820152606401620001a8565b6001600160a01b038116620003dc5760405162461bcd60e51b815260206004820152602660248201527f4f776e61626c653a206e6577206f776e657220697320746865207a65726f206160448201526564647265737360d01b6064820152608401620001a8565b620003e78162000112565b50565b33620003fe6000546001600160a01b031690565b6001600160a01b031614806200041e57506002546001600160a01b031633145b620004925760405162461bcd60e51b815260206004820152603560248201527f6f70657261746f723a2063616c6c6572206973206e6f7420616c6c6f7765642060448201527f746f2063616c6c20746869732066756e6374696f6e00000000000000000000006064820152608401620001a8565b6000600182604051620004a69190620004eb565b9081526040519081900360200190205550565b600060208284031215620004cc57600080fd5b81516001600160a01b0381168114620004e457600080fd5b9392505050565b6000825160005b818110156200050e5760208186018101518583015201620004f2565b818111156200051e576000828501525b509190910192915050565b600082198211156200054b57634e487b7160e01b600052601160045260246000fd5b500190565b61245d80620005606000396000f3fe6080604052600436106101f25760003560e01c80639850d32b1161010d578063d6e0ece2116100a0578063f2fde38b1161006f578063f2fde38b14610564578063f4762fd614610584578063f7e77bc214610599578063f8cf31cb146105c6578063f98080c0146105e657600080fd5b8063d6e0ece2146104ef578063db2e21bc1461050f578063de996a6e14610524578063edae876f1461054457600080fd5b8063a607494a116100dc578063a607494a1461046f578063b59c6e0e1461048f578063bf3506c1146104af578063c0d78655146104cf57600080fd5b80639850d32b146103f05780639f5311561461040e578063a221a15f1461042e578063a347511a1461044e57600080fd5b806363cd79b7116101855780637ef189f8116101545780637ef189f81461037c578063864e49a71461039257806387df241f146103b25780638da5cb5b146103d257600080fd5b806363cd79b7146102f457806370ed0ada14610314578063715018a6146103275780637d6dfb7e1461033c57600080fd5b8063478a55eb116101c1578063478a55eb146102965780634a938f00146102b65780634e71d92d146102d65780635dd53826146102de57600080fd5b80630126ffb9146101fe57806311a63e171461022757806312065fe01461025f57806313ea5d291461027457600080fd5b366101f957005b600080fd5b34801561020a57600080fd5b50610214600a5481565b6040519081526020015b60405180910390f35b34801561023357600080fd5b50600754610247906001600160a01b031681565b6040516001600160a01b03909116815260200161021e565b34801561026b57600080fd5b5061021461061e565b34801561028057600080fd5b5061029461028f366004611f78565b61069f565b005b3480156102a257600080fd5b506102946102b1366004611fb2565b6108d9565b3480156102c257600080fd5b506102946102d1366004612016565b610bc8565b610294610c05565b3480156102ea57600080fd5b5061021460095481565b34801561030057600080fd5b5061029461030f366004611f78565b610d65565b34801561032057600080fd5b5047610214565b34801561033357600080fd5b50610294610ece565b34801561034857600080fd5b5061036c610357366004611f78565b60036020526000908152604090205460ff1681565b604051901515815260200161021e565b34801561038857600080fd5b5061021460055481565b34801561039e57600080fd5b5061036c6103ad366004611f78565b610f04565b3480156103be57600080fd5b506102946103cd36600461213a565b610f36565b3480156103de57600080fd5b506000546001600160a01b0316610247565b3480156103fc57600080fd5b506002546001600160a01b0316610247565b34801561041a57600080fd5b506102946104293660046120a5565b611072565b34801561043a57600080fd5b50600654610247906001600160a01b031681565b34801561045a57600080fd5b5060005461036c90600160a01b900460ff1681565b34801561047b57600080fd5b5061029461048a3660046120a5565b6110e5565b34801561049b57600080fd5b50600854610247906001600160a01b031681565b3480156104bb57600080fd5b5061036c6104ca366004611f78565b6111c2565b3480156104db57600080fd5b506102946104ea366004611f78565b6111f4565b3480156104fb57600080fd5b5061029461050a36600461216c565b611240565b34801561051b57600080fd5b5061029461154e565b34801561053057600080fd5b5061029461053f36600461213a565b6115df565b34801561055057600080fd5b50600b54610247906001600160a01b031681565b34801561057057600080fd5b5061029461057f366004611f78565b61172f565b34801561059057600080fd5b506102946117ca565b3480156105a557600080fd5b506102146105b4366004611f78565b60046020526000908152604090205481565b3480156105d257600080fd5b506102946105e1366004611f78565b611854565b3480156105f257600080fd5b506102146106013660046120a5565b805160208183018101805160018252928201919093012091525481565b6008546040516370a0823160e01b81523060048201526000916001600160a01b0316906370a082319060240160206040518083038186803b15801561066257600080fd5b505afa158015610676573d6000803e3d6000fd5b505050506040513d601f19601f8201168201806040525081019061069a9190612153565b905090565b336106b26000546001600160a01b031690565b6001600160a01b031614806106d157506002546001600160a01b031633145b6106f65760405162461bcd60e51b81526004016106ed90612219565b60405180910390fd5b60408051808201909152600a81526936b0b4b73a30b4b732b960b11b6020820152600054600160a01b900460ff1615806107b0575060018160405161073b919061219c565b908152602001604051809103902054600014158015610778575042600182604051610766919061219c565b90815260200160405180910390205411155b80156107b057504262015180600183604051610794919061219c565b9081526020016040518091039020546107ad9190612334565b10155b6107cc5760405162461bcd60e51b81526004016106ed906121ed565b6002546001600160a01b038381169116148015906107f257506001600160a01b03821615155b61087d5760405162461bcd60e51b815260206004820152605060248201527f41424f41543a3a7365744d61696e7461696e65723a204d61696e7461696e657260448201527f2063616e277420657175616c2070726576696f7573206d61696e7461696e657260648201526f206f72207a65726f206164647265737360801b608482015260a4016106ed565b600280546001600160a01b038481166001600160a01b0319831681179093556040519116919082907f2f3ffaaaad93928855c8700645d1a3643e6ccfdd500efa9fda048a88f557cf0190600090a3506108d581611072565b5050565b6000546001600160a01b031633146109035760405162461bcd60e51b81526004016106ed906121b8565b80518251146109915760405162461bcd60e51b815260206004820152604e60248201527f41424f41543a3a73656e64526577617264733a20616d6f756e747320616e642060448201527f616464726573736573206d7573742068617665207468652073616d6520616d6f60648201526d756e74206f6620656e747269657360901b608482015260a4016106ed565b60005b8151811015610bc357600360008383815181106109b3576109b36123e6565b6020908102919091018101516001600160a01b031682528101919091526040016000205460ff168015610a0657508281815181106109f3576109f36123e6565b6020026020010151610a0361061e565b10155b8015610a2f5750610a2f828281518110610a2257610a226123e6565b60200260200101516111c2565b8015610a565750600954838281518110610a4b57610a4b6123e6565b602002602001015111155b15610bb157600060036000848481518110610a7357610a736123e6565b60200260200101516001600160a01b03166001600160a01b0316815260200190815260200160002060006101000a81548160ff0219169083151502179055504260046000848481518110610ac957610ac96123e6565b60200260200101516001600160a01b03166001600160a01b0316815260200190815260200160002081905550610b47600860009054906101000a90046001600160a01b0316838381518110610b2057610b206123e6565b6020026020010151858481518110610b3a57610b3a6123e6565b6020026020010151611a3d565b828181518110610b5957610b596123e6565b6020026020010151828281518110610b7357610b736123e6565b60200260200101516001600160a01b03167fd9d5e983e9e8a6571ffbeafa6a3c2fbd9f0f44e52607977b5e1e7934f7d91bfc60405160405180910390a35b80610bbb816123b5565b915050610994565b505050565b6000546001600160a01b03163314610bf25760405162461bcd60e51b81526004016106ed906121b8565b610bfb81610f36565b610bc383836108d9565b3360009081526003602052604090205460ff1615610c7d5760405162461bcd60e51b815260206004820152602f60248201527f41424f41543a3a636c61696d3a20416c726561647920616c6c6f77656420746f60448201526e207265636965766520746f6b656e7360881b60648201526084016106ed565b600554341015610d0d5760405162461bcd60e51b815260206004820152604f60248201527f41424f41543a3a636c61696d3a20416d6f756e74206f6620626e6220746f206360448201527f6c61696d2073686f756c642063617272792074686520636f737420746f20616460648201526e642074686520636c61696d61626c6560881b608482015260a4016106ed565b600654610d23906001600160a01b031634611b6e565b33600081815260036020526040808220805460ff19166001179055517f98716c616972f4ef0085deb59c20f6f6a840219c121ad1f3b5413097f3a103579190a2565b6000546001600160a01b03163314610d8f5760405162461bcd60e51b81526004016106ed906121b8565b60408051808201909152601281527118da185b99d953dc9858db1955d85b1b195d60721b6020820152600054600160a01b900460ff161580610e515750600181604051610ddc919061219c565b908152602001604051809103902054600014158015610e19575042600182604051610e07919061219c565b90815260200160405180910390205411155b8015610e5157504262015180600183604051610e35919061219c565b908152602001604051809103902054610e4e9190612334565b10155b610e6d5760405162461bcd60e51b81526004016106ed906121ed565b610e768261172f565b600680546001600160a01b038481166001600160a01b0319831681179093556040519116919082907f3920ecd0f25e4e6ce57aaec91e57df499cb7e3e70d6c9604f866ae9265382cf390600090a3506108d581611072565b6000546001600160a01b03163314610ef85760405162461bcd60e51b81526004016106ed906121b8565b610f026000611c48565b565b600a546001600160a01b03821660009081526004602052604081205490914291610f2e9190612334565b111592915050565b6000546001600160a01b03163314610f605760405162461bcd60e51b81526004016106ed906121b8565b60408051808201909152600d81526c18591a9d5cdd11d85cd0dbdcdd609a1b6020820152600054600160a01b900460ff16158061101d5750600181604051610fa8919061219c565b908152602001604051809103902054600014158015610fe5575042600182604051610fd3919061219c565b90815260200160405180910390205411155b801561101d57504262015180600183604051611001919061219c565b90815260200160405180910390205461101a9190612334565b10155b6110395760405162461bcd60e51b81526004016106ed906121ed565b6005546040518391907fc3dc19678fd7390a5c1197decfaec52d8a1c63c49f0a51db570f5fe5040c5f7390600090a360058290556108d5815b336110856000546001600160a01b031690565b6001600160a01b031614806110a457506002546001600160a01b031633145b6110c05760405162461bcd60e51b81526004016106ed90612219565b60006001826040516110d2919061219c565b9081526040519081900360200190205550565b336110f86000546001600160a01b031690565b6001600160a01b0316148061111757506002546001600160a01b031633145b6111335760405162461bcd60e51b81526004016106ed90612219565b6111406201518042612334565b600182604051611150919061219c565b908152602001604051809103902081905550600181604051611172919061219c565b9081526020016040518091039020548160405161118f919061219c565b604051908190038120907ff77f9a799fe8b0be1463abd7459a18fc55dfd8a6a24ddd29b54fd098088089c890600090a350565b6001600160a01b03811660009081526003602052604081205460ff1680156111ee57506111ee82610f04565b92915050565b6000546001600160a01b0316331461121e5760405162461bcd60e51b81526004016106ed906121b8565b600b80546001600160a01b0319166001600160a01b0392909216919091179055565b6000546001600160a01b0316331461126a5760405162461bcd60e51b81526004016106ed906121b8565b600b546001600160a01b03166112fb5760405162461bcd60e51b815260206004820152604a60248201527f41424f41543a3a73656e645265776172647341734574683a205468657265206960448201527f73206e6f20726f7574657220646566696e656420746f207377617020746f6b656064820152690dce640ccdee440cae8d60b31b608482015260a4016106ed565b61130361061e565b8211156113885760405162461bcd60e51b815260206004820152604760248201527f41424f41543a3a73656e645265776172647341734574683a2043616e2774207360448201527f656e64206d6f72652072657761726473207468616e20696e207265776172642060648201526673797374656d2160c81b608482015260a4016106ed565b6009548211156114005760405162461bcd60e51b815260206004820152603c60248201527f41424f41543a3a73656e645265776172647341734574683a2043616e2774207360448201527f656e64206d6f72652072657761726473207468616e206c696d6974210000000060648201526084016106ed565b61140981610f04565b61147b5760405162461bcd60e51b815260206004820152603b60248201527f41424f41543a3a73656e645265776172647341734574683a2043616e2774206360448201527f6c61696d206d6f7265207468616e206f6e63652070657220646179000000000060648201526084016106ed565b6001600160a01b038116600090815260046020526040902042905561149f82611c98565b60006114b660055447611e7e90919063ffffffff16565b6006546005549192506114d4916001600160a01b0390911690611b6e565b60006114e182600a611e91565b90506114ed8282611e7e565b600754909250611506906001600160a01b031682611b6e565b6115108383611b6e565b8082846001600160a01b03167f75b2eac24930bf6a8227dbe172d34480e56be5c6994435067628424190d5343160405160405180910390a450505050565b6000546001600160a01b031633146115785760405162461bcd60e51b81526004016106ed906121b8565b6008546115a7906001600160a01b031661159a6000546001600160a01b031690565b6115a261061e565b611a3d565b600080546040516001600160a01b03909116917f5e7b34819cd91b239220bec92fcfd3c10da2214ba13e4e2b1f6c9cfdbd68a9a291a2565b6000546001600160a01b031633146116095760405162461bcd60e51b81526004016106ed906121b8565b60408051808201909152601981527f61646a7573744d6178416d6f756e7450657252656365697665000000000000006020820152600054600160a01b900460ff1615806116d65750600181604051611661919061219c565b90815260200160405180910390205460001415801561169e57504260018260405161168c919061219c565b90815260200160405180910390205411155b80156116d6575042620151806001836040516116ba919061219c565b9081526020016040518091039020546116d39190612334565b10155b6116f25760405162461bcd60e51b81526004016106ed906121ed565b6009546040518391907fd07363c93ca88ca1140b355020cb77b0320b19e19a34bb15aa4566d27c2fabbd90600090a360098290556108d581611072565b6000546001600160a01b031633146117595760405162461bcd60e51b81526004016106ed906121b8565b6001600160a01b0381166117be5760405162461bcd60e51b815260206004820152602660248201527f4f776e61626c653a206e6577206f776e657220697320746865207a65726f206160448201526564647265737360d01b60648201526084016106ed565b6117c781611c48565b50565b336117dd6000546001600160a01b031690565b6001600160a01b031614806117fc57506002546001600160a01b031633145b6118185760405162461bcd60e51b81526004016106ed90612219565b6000805460ff60a01b1916600160a01b1781556040517f2c08b62bfac9a1b19bb1dec9323f1ce01696a77948b256abf3603d30f25a864e9190a1565b6000546001600160a01b0316331461187e5760405162461bcd60e51b81526004016106ed906121b8565b6040805180820190915260118152703ab83230ba32a932bbb0b9322a37b5b2b760791b6020820152600054600160a01b900460ff16158061193f57506001816040516118ca919061219c565b9081526020016040518091039020546000141580156119075750426001826040516118f5919061219c565b90815260200160405180910390205411155b801561193f57504262015180600183604051611923919061219c565b90815260200160405180910390205461193c9190612334565b10155b61195b5760405162461bcd60e51b81526004016106ed906121ed565b6008546001600160a01b03838116911614156119df5760405162461bcd60e51b815260206004820152603f60248201527f41424f41543a757064617465526577617264546f6b656e3a20596f752063616e60448201527f277420757064617465207468652065786163742073616d6520746f6b656e730060648201526084016106ed565b6008546040516001600160a01b038085169216907fcb89265f21b9fc8710e9d9e42bbb37af1eb207454deca6d5e36787be2367c1d690600090a3600880546001600160a01b0319166001600160a01b0384161790556108d581611072565b604080516001600160a01b038481166024830152604480830185905283518084039091018152606490920183526020820180516001600160e01b031663a9059cbb60e01b1790529151600092839290871691611a99919061219c565b6000604051808303816000865af19150503d8060008114611ad6576040519150601f19603f3d011682016040523d82523d6000602084013e611adb565b606091505b5091509150818015611b05575080511580611b05575080806020019051810190611b059190612083565b611b675760405162461bcd60e51b815260206004820152602d60248201527f5472616e7366657248656c7065723a3a736166655472616e736665723a20747260448201526c185b9cd9995c8819985a5b1959609a1b60648201526084016106ed565b5050505050565b604080516000808252602082019092526001600160a01b038416908390604051611b98919061219c565b60006040518083038185875af1925050503d8060008114611bd5576040519150601f19603f3d011682016040523d82523d6000602084013e611bda565b606091505b5050905080610bc35760405162461bcd60e51b815260206004820152603460248201527f5472616e7366657248656c7065723a3a736166655472616e736665724554483a60448201527308115512081d1c985b9cd9995c8819985a5b195960621b60648201526084016106ed565b600080546001600160a01b038381166001600160a01b0319831681178455604051919092169283917f8be0079c531659141344cd1fd0a4f28419497f9722a3daafe3b4186f6b6457e09190a35050565b604080516002808252606082018352600092602083019080368337505060085482519293506001600160a01b031691839150600090611cd957611cd96123e6565b6001600160a01b03928316602091820292909201810191909152600b54604080516315ab88c960e31b81529051919093169263ad5c4648926004808301939192829003018186803b158015611d2d57600080fd5b505afa158015611d41573d6000803e3d6000fd5b505050506040513d601f19601f82011682018060405250810190611d659190611f95565b81600181518110611d7857611d786123e6565b6001600160a01b039283166020918202929092010152600854600b5460405163095ea7b360e01b815290831660048201526024810185905291169063095ea7b390604401602060405180830381600087803b158015611dd657600080fd5b505af1158015611dea573d6000803e3d6000fd5b505050506040513d601f19601f82011682018060405250810190611e0e9190612083565b50600b5460405163791ac94760e01b81526001600160a01b039091169063791ac94790611e4890859060009086903090429060040161226e565b600060405180830381600087803b158015611e6257600080fd5b505af1158015611e76573d6000803e3d6000fd5b505050505050565b6000611e8a828461236e565b9392505050565b6000611e8a828461234c565b600082601f830112611eae57600080fd5b81356020611ec3611ebe83612310565b6122df565b80838252828201915082860187848660051b8901011115611ee357600080fd5b60005b85811015611f0b578135611ef981612412565b84529284019290840190600101611ee6565b5090979650505050505050565b600082601f830112611f2957600080fd5b81356020611f39611ebe83612310565b80838252828201915082860187848660051b8901011115611f5957600080fd5b60005b85811015611f0b57813584529284019290840190600101611f5c565b600060208284031215611f8a57600080fd5b8135611e8a81612412565b600060208284031215611fa757600080fd5b8151611e8a81612412565b60008060408385031215611fc557600080fd5b823567ffffffffffffffff80821115611fdd57600080fd5b611fe986838701611f18565b93506020850135915080821115611fff57600080fd5b5061200c85828601611e9d565b9150509250929050565b60008060006060848603121561202b57600080fd5b833567ffffffffffffffff8082111561204357600080fd5b61204f87838801611f18565b9450602086013591508082111561206557600080fd5b5061207286828701611e9d565b925050604084013590509250925092565b60006020828403121561209557600080fd5b81518015158114611e8a57600080fd5b600060208083850312156120b857600080fd5b823567ffffffffffffffff808211156120d057600080fd5b818501915085601f8301126120e457600080fd5b8135818111156120f6576120f66123fc565b612108601f8201601f191685016122df565b9150808252868482850101111561211e57600080fd5b8084840185840137600090820190930192909252509392505050565b60006020828403121561214c57600080fd5b5035919050565b60006020828403121561216557600080fd5b5051919050565b6000806040838503121561217f57600080fd5b82359150602083013561219181612412565b809150509250929050565b600082516121ae818460208701612385565b9190910192915050565b6020808252818101527f4f776e61626c653a2063616c6c6572206973206e6f7420746865206f776e6572604082015260600190565b602080825260129082015271119d5b98dd1a5bdb881a5cc81b1bd8dad95960721b604082015260600190565b60208082526035908201527f6f70657261746f723a2063616c6c6572206973206e6f7420616c6c6f776564206040820152743a379031b0b636103a3434b990333ab731ba34b7b760591b606082015260800190565b600060a082018783526020878185015260a0604085015281875180845260c086019150828901935060005b818110156122be5784516001600160a01b031683529383019391830191600101612299565b50506001600160a01b03969096166060850152505050608001529392505050565b604051601f8201601f1916810167ffffffffffffffff81118282101715612308576123086123fc565b604052919050565b600067ffffffffffffffff82111561232a5761232a6123fc565b5060051b60200190565b60008219821115612347576123476123d0565b500190565b60008261236957634e487b7160e01b600052601260045260246000fd5b500490565b600082821015612380576123806123d0565b500390565b60005b838110156123a0578181015183820152602001612388565b838111156123af576000848401525b50505050565b60006000198214156123c9576123c96123d0565b5060010190565b634e487b7160e01b600052601160045260246000fd5b634e487b7160e01b600052603260045260246000fd5b634e487b7160e01b600052604160045260246000fd5b6001600160a01b03811681146117c757600080fdfea2646970667358221220a397b5c600b8d9ea57690fe01fd5287a8c02e19013a2bc0d7dab81869f64c09564736f6c634300080700334f776e61626c653a2063616c6c6572206973206e6f7420746865206f776e6572",
					"opcodes": "PUSH1 0x80 PUSH1 0x40 MSTORE PUSH1 0x0 DUP1 SLOAD PUSH1 0xFF PUSH1 0xA0 SHL NOT AND SWAP1 SSTORE PUSH5 0xBA43B7400 PUSH1 0x5 SSTORE PUSH1 0x6 DUP1 SLOAD PUSH1 0x1 PUSH1 0x1 PUSH1 0xA0 SHL SUB NOT SWAP1 DUP2 AND PUSH20 0x76049B7CAAB30B8BBBDCFF3A1059D9147DBF7B19 OR SWAP1 SWAP2 SSTORE PUSH1 0x7 DUP1 SLOAD DUP3 AND PUSH20 0xC559ACC356D3037EC6DBC33A20587051188B8634 OR SWAP1 SSTORE PUSH11 0x84595161401484A000000 PUSH1 0x9 SSTORE PUSH3 0x15180 PUSH1 0xA SSTORE PUSH1 0xB DUP1 SLOAD SWAP1 SWAP2 AND PUSH20 0xBDD4E5660839A088573191A9889A262C0EFC0983 OR SWAP1 SSTORE CALLVALUE DUP1 ISZERO PUSH3 0xA3 JUMPI PUSH1 0x0 DUP1 REVERT JUMPDEST POP PUSH1 0x40 MLOAD PUSH3 0x29DD CODESIZE SUB DUP1 PUSH3 0x29DD DUP4 CODECOPY DUP2 ADD PUSH1 0x40 DUP2 SWAP1 MSTORE PUSH3 0xC6 SWAP2 PUSH3 0x4B9 JUMP JUMPDEST PUSH3 0xD1 CALLER PUSH3 0x112 JUMP JUMPDEST PUSH1 0x2 DUP1 SLOAD PUSH1 0x1 PUSH1 0x1 PUSH1 0xA0 SHL SUB NOT SWAP1 DUP2 AND CALLER OR SWAP1 SWAP2 SSTORE PUSH1 0x8 DUP1 SLOAD PUSH1 0x1 PUSH1 0x1 PUSH1 0xA0 SHL SUB DUP5 DUP2 AND SWAP2 SWAP1 SWAP4 AND OR SWAP1 SSTORE PUSH1 0x6 SLOAD PUSH3 0x10B SWAP2 AND PUSH3 0x162 JUMP JUMPDEST POP PUSH3 0x550 JUMP JUMPDEST PUSH1 0x0 DUP1 SLOAD PUSH1 0x1 PUSH1 0x1 PUSH1 0xA0 SHL SUB DUP4 DUP2 AND PUSH1 0x1 PUSH1 0x1 PUSH1 0xA0 SHL SUB NOT DUP4 AND DUP2 OR DUP5 SSTORE PUSH1 0x40 MLOAD SWAP2 SWAP1 SWAP3 AND SWAP3 DUP4 SWAP2 PUSH32 0x8BE0079C531659141344CD1FD0A4F28419497F9722A3DAAFE3B4186F6B6457E0 SWAP2 SWAP1 LOG3 POP POP JUMP JUMPDEST PUSH1 0x0 SLOAD PUSH1 0x1 PUSH1 0x1 PUSH1 0xA0 SHL SUB AND CALLER EQ PUSH3 0x1B1 JUMPI PUSH1 0x40 MLOAD PUSH3 0x461BCD PUSH1 0xE5 SHL DUP2 MSTORE PUSH1 0x20 PUSH1 0x4 DUP3 ADD DUP2 SWAP1 MSTORE PUSH1 0x24 DUP3 ADD MSTORE PUSH1 0x0 DUP1 MLOAD PUSH1 0x20 PUSH3 0x29BD DUP4 CODECOPY DUP2 MLOAD SWAP2 MSTORE PUSH1 0x44 DUP3 ADD MSTORE PUSH1 0x64 ADD JUMPDEST PUSH1 0x40 MLOAD DUP1 SWAP2 SUB SWAP1 REVERT JUMPDEST PUSH1 0x40 DUP1 MLOAD DUP1 DUP3 ADD SWAP1 SWAP2 MSTORE PUSH1 0x12 DUP2 MSTORE PUSH18 0x18DA185B99D953DC9858DB1955D85B1B195D PUSH1 0x72 SHL PUSH1 0x20 DUP3 ADD MSTORE PUSH1 0x0 SLOAD PUSH1 0x1 PUSH1 0xA0 SHL SWAP1 DIV PUSH1 0xFF AND ISZERO DUP1 PUSH3 0x27E JUMPI POP PUSH1 0x1 DUP2 PUSH1 0x40 MLOAD PUSH3 0x201 SWAP2 SWAP1 PUSH3 0x4EB JUMP JUMPDEST SWAP1 DUP2 MSTORE PUSH1 0x20 ADD PUSH1 0x40 MLOAD DUP1 SWAP2 SUB SWAP1 KECCAK256 SLOAD PUSH1 0x0 EQ ISZERO DUP1 ISZERO PUSH3 0x241 JUMPI POP TIMESTAMP PUSH1 0x1 DUP3 PUSH1 0x40 MLOAD PUSH3 0x22F SWAP2 SWAP1 PUSH3 0x4EB JUMP JUMPDEST SWAP1 DUP2 MSTORE PUSH1 0x20 ADD PUSH1 0x40 MLOAD DUP1 SWAP2 SUB SWAP1 KECCAK256 SLOAD GT ISZERO JUMPDEST DUP1 ISZERO PUSH3 0x27E JUMPI POP TIMESTAMP PUSH3 0x15180 PUSH1 0x1 DUP4 PUSH1 0x40 MLOAD PUSH3 0x260 SWAP2 SWAP1 PUSH3 0x4EB JUMP JUMPDEST SWAP1 DUP2 MSTORE PUSH1 0x20 ADD PUSH1 0x40 MLOAD DUP1 SWAP2 SUB SWAP1 KECCAK256 SLOAD PUSH3 0x27B SWAP2 SWAP1 PUSH3 0x529 JUMP JUMPDEST LT ISZERO JUMPDEST PUSH3 0x2C1 JUMPI PUSH1 0x40 MLOAD PUSH3 0x461BCD PUSH1 0xE5 SHL DUP2 MSTORE PUSH1 0x20 PUSH1 0x4 DUP3 ADD MSTORE PUSH1 0x12 PUSH1 0x24 DUP3 ADD MSTORE PUSH18 0x119D5B98DD1A5BDB881A5CC81B1BD8DAD959 PUSH1 0x72 SHL PUSH1 0x44 DUP3 ADD MSTORE PUSH1 0x64 ADD PUSH3 0x1A8 JUMP JUMPDEST PUSH3 0x2CC DUP3 PUSH3 0x32A JUMP JUMPDEST PUSH1 0x6 DUP1 SLOAD PUSH1 0x1 PUSH1 0x1 PUSH1 0xA0 SHL SUB DUP5 DUP2 AND PUSH1 0x1 PUSH1 0x1 PUSH1 0xA0 SHL SUB NOT DUP4 AND DUP2 OR SWAP1 SWAP4 SSTORE PUSH1 0x40 MLOAD SWAP2 AND SWAP2 SWAP1 DUP3 SWAP1 PUSH32 0x3920ECD0F25E4E6CE57AAEC91E57DF499CB7E3E70D6C9604F866AE9265382CF3 SWAP1 PUSH1 0x0 SWAP1 LOG3 POP PUSH3 0x326 DUP2 PUSH3 0x3EA JUMP JUMPDEST POP POP JUMP JUMPDEST PUSH1 0x0 SLOAD PUSH1 0x1 PUSH1 0x1 PUSH1 0xA0 SHL SUB AND CALLER EQ PUSH3 0x375 JUMPI PUSH1 0x40 MLOAD PUSH3 0x461BCD PUSH1 0xE5 SHL DUP2 MSTORE PUSH1 0x20 PUSH1 0x4 DUP3 ADD DUP2 SWAP1 MSTORE PUSH1 0x24 DUP3 ADD MSTORE PUSH1 0x0 DUP1 MLOAD PUSH1 0x20 PUSH3 0x29BD DUP4 CODECOPY DUP2 MLOAD SWAP2 MSTORE PUSH1 0x44 DUP3 ADD MSTORE PUSH1 0x64 ADD PUSH3 0x1A8 JUMP JUMPDEST PUSH1 0x1 PUSH1 0x1 PUSH1 0xA0 SHL SUB DUP2 AND PUSH3 0x3DC JUMPI PUSH1 0x40 MLOAD PUSH3 0x461BCD PUSH1 0xE5 SHL DUP2 MSTORE PUSH1 0x20 PUSH1 0x4 DUP3 ADD MSTORE PUSH1 0x26 PUSH1 0x24 DUP3 ADD MSTORE PUSH32 0x4F776E61626C653A206E6577206F776E657220697320746865207A65726F2061 PUSH1 0x44 DUP3 ADD MSTORE PUSH6 0x646472657373 PUSH1 0xD0 SHL PUSH1 0x64 DUP3 ADD MSTORE PUSH1 0x84 ADD PUSH3 0x1A8 JUMP JUMPDEST PUSH3 0x3E7 DUP2 PUSH3 0x112 JUMP JUMPDEST POP JUMP JUMPDEST CALLER PUSH3 0x3FE PUSH1 0x0 SLOAD PUSH1 0x1 PUSH1 0x1 PUSH1 0xA0 SHL SUB AND SWAP1 JUMP JUMPDEST PUSH1 0x1 PUSH1 0x1 PUSH1 0xA0 SHL SUB AND EQ DUP1 PUSH3 0x41E JUMPI POP PUSH1 0x2 SLOAD PUSH1 0x1 PUSH1 0x1 PUSH1 0xA0 SHL SUB AND CALLER EQ JUMPDEST PUSH3 0x492 JUMPI PUSH1 0x40 MLOAD PUSH3 0x461BCD PUSH1 0xE5 SHL DUP2 MSTORE PUSH1 0x20 PUSH1 0x4 DUP3 ADD MSTORE PUSH1 0x35 PUSH1 0x24 DUP3 ADD MSTORE PUSH32 0x6F70657261746F723A2063616C6C6572206973206E6F7420616C6C6F77656420 PUSH1 0x44 DUP3 ADD MSTORE PUSH32 0x746F2063616C6C20746869732066756E6374696F6E0000000000000000000000 PUSH1 0x64 DUP3 ADD MSTORE PUSH1 0x84 ADD PUSH3 0x1A8 JUMP JUMPDEST PUSH1 0x0 PUSH1 0x1 DUP3 PUSH1 0x40 MLOAD PUSH3 0x4A6 SWAP2 SWAP1 PUSH3 0x4EB JUMP JUMPDEST SWAP1 DUP2 MSTORE PUSH1 0x40 MLOAD SWAP1 DUP2 SWAP1 SUB PUSH1 0x20 ADD SWAP1 KECCAK256 SSTORE POP JUMP JUMPDEST PUSH1 0x0 PUSH1 0x20 DUP3 DUP5 SUB SLT ISZERO PUSH3 0x4CC JUMPI PUSH1 0x0 DUP1 REVERT JUMPDEST DUP2 MLOAD PUSH1 0x1 PUSH1 0x1 PUSH1 0xA0 SHL SUB DUP2 AND DUP2 EQ PUSH3 0x4E4 JUMPI PUSH1 0x0 DUP1 REVERT JUMPDEST SWAP4 SWAP3 POP POP POP JUMP JUMPDEST PUSH1 0x0 DUP3 MLOAD PUSH1 0x0 JUMPDEST DUP2 DUP2 LT ISZERO PUSH3 0x50E JUMPI PUSH1 0x20 DUP2 DUP7 ADD DUP2 ADD MLOAD DUP6 DUP4 ADD MSTORE ADD PUSH3 0x4F2 JUMP JUMPDEST DUP2 DUP2 GT ISZERO PUSH3 0x51E JUMPI PUSH1 0x0 DUP3 DUP6 ADD MSTORE JUMPDEST POP SWAP2 SWAP1 SWAP2 ADD SWAP3 SWAP2 POP POP JUMP JUMPDEST PUSH1 0x0 DUP3 NOT DUP3 GT ISZERO PUSH3 0x54B JUMPI PUSH4 0x4E487B71 PUSH1 0xE0 SHL PUSH1 0x0 MSTORE PUSH1 0x11 PUSH1 0x4 MSTORE PUSH1 0x24 PUSH1 0x0 REVERT JUMPDEST POP ADD SWAP1 JUMP JUMPDEST PUSH2 0x245D DUP1 PUSH3 0x560 PUSH1 0x0 CODECOPY PUSH1 0x0 RETURN INVALID PUSH1 0x80 PUSH1 0x40 MSTORE PUSH1 0x4 CALLDATASIZE LT PUSH2 0x1F2 JUMPI PUSH1 0x0 CALLDATALOAD PUSH1 0xE0 SHR DUP1 PUSH4 0x9850D32B GT PUSH2 0x10D JUMPI DUP1 PUSH4 0xD6E0ECE2 GT PUSH2 0xA0 JUMPI DUP1 PUSH4 0xF2FDE38B GT PUSH2 0x6F JUMPI DUP1 PUSH4 0xF2FDE38B EQ PUSH2 0x564 JUMPI DUP1 PUSH4 0xF4762FD6 EQ PUSH2 0x584 JUMPI DUP1 PUSH4 0xF7E77BC2 EQ PUSH2 0x599 JUMPI DUP1 PUSH4 0xF8CF31CB EQ PUSH2 0x5C6 JUMPI DUP1 PUSH4 0xF98080C0 EQ PUSH2 0x5E6 JUMPI PUSH1 0x0 DUP1 REVERT JUMPDEST DUP1 PUSH4 0xD6E0ECE2 EQ PUSH2 0x4EF JUMPI DUP1 PUSH4 0xDB2E21BC EQ PUSH2 0x50F JUMPI DUP1 PUSH4 0xDE996A6E EQ PUSH2 0x524 JUMPI DUP1 PUSH4 0xEDAE876F EQ PUSH2 0x544 JUMPI PUSH1 0x0 DUP1 REVERT JUMPDEST DUP1 PUSH4 0xA607494A GT PUSH2 0xDC JUMPI DUP1 PUSH4 0xA607494A EQ PUSH2 0x46F JUMPI DUP1 PUSH4 0xB59C6E0E EQ PUSH2 0x48F JUMPI DUP1 PUSH4 0xBF3506C1 EQ PUSH2 0x4AF JUMPI DUP1 PUSH4 0xC0D78655 EQ PUSH2 0x4CF JUMPI PUSH1 0x0 DUP1 REVERT JUMPDEST DUP1 PUSH4 0x9850D32B EQ PUSH2 0x3F0 JUMPI DUP1 PUSH4 0x9F531156 EQ PUSH2 0x40E JUMPI DUP1 PUSH4 0xA221A15F EQ PUSH2 0x42E JUMPI DUP1 PUSH4 0xA347511A EQ PUSH2 0x44E JUMPI PUSH1 0x0 DUP1 REVERT JUMPDEST DUP1 PUSH4 0x63CD79B7 GT PUSH2 0x185 JUMPI DUP1 PUSH4 0x7EF189F8 GT PUSH2 0x154 JUMPI DUP1 PUSH4 0x7EF189F8 EQ PUSH2 0x37C JUMPI DUP1 PUSH4 0x864E49A7 EQ PUSH2 0x392 JUMPI DUP1 PUSH4 0x87DF241F EQ PUSH2 0x3B2 JUMPI DUP1 PUSH4 0x8DA5CB5B EQ PUSH2 0x3D2 JUMPI PUSH1 0x0 DUP1 REVERT JUMPDEST DUP1 PUSH4 0x63CD79B7 EQ PUSH2 0x2F4 JUMPI DUP1 PUSH4 0x70ED0ADA EQ PUSH2 0x314 JUMPI DUP1 PUSH4 0x715018A6 EQ PUSH2 0x327 JUMPI DUP1 PUSH4 0x7D6DFB7E EQ PUSH2 0x33C JUMPI PUSH1 0x0 DUP1 REVERT JUMPDEST DUP1 PUSH4 0x478A55EB GT PUSH2 0x1C1 JUMPI DUP1 PUSH4 0x478A55EB EQ PUSH2 0x296 JUMPI DUP1 PUSH4 0x4A938F00 EQ PUSH2 0x2B6 JUMPI DUP1 PUSH4 0x4E71D92D EQ PUSH2 0x2D6 JUMPI DUP1 PUSH4 0x5DD53826 EQ PUSH2 0x2DE JUMPI PUSH1 0x0 DUP1 REVERT JUMPDEST DUP1 PUSH4 0x126FFB9 EQ PUSH2 0x1FE JUMPI DUP1 PUSH4 0x11A63E17 EQ PUSH2 0x227 JUMPI DUP1 PUSH4 0x12065FE0 EQ PUSH2 0x25F JUMPI DUP1 PUSH4 0x13EA5D29 EQ PUSH2 0x274 JUMPI PUSH1 0x0 DUP1 REVERT JUMPDEST CALLDATASIZE PUSH2 0x1F9 JUMPI STOP JUMPDEST PUSH1 0x0 DUP1 REVERT JUMPDEST CALLVALUE DUP1 ISZERO PUSH2 0x20A JUMPI PUSH1 0x0 DUP1 REVERT JUMPDEST POP PUSH2 0x214 PUSH1 0xA SLOAD DUP2 JUMP JUMPDEST PUSH1 0x40 MLOAD SWAP1 DUP2 MSTORE PUSH1 0x20 ADD JUMPDEST PUSH1 0x40 MLOAD DUP1 SWAP2 SUB SWAP1 RETURN JUMPDEST CALLVALUE DUP1 ISZERO PUSH2 0x233 JUMPI PUSH1 0x0 DUP1 REVERT JUMPDEST POP PUSH1 0x7 SLOAD PUSH2 0x247 SWAP1 PUSH1 0x1 PUSH1 0x1 PUSH1 0xA0 SHL SUB AND DUP2 JUMP JUMPDEST PUSH1 0x40 MLOAD PUSH1 0x1 PUSH1 0x1 PUSH1 0xA0 SHL SUB SWAP1 SWAP2 AND DUP2 MSTORE PUSH1 0x20 ADD PUSH2 0x21E JUMP JUMPDEST CALLVALUE DUP1 ISZERO PUSH2 0x26B JUMPI PUSH1 0x0 DUP1 REVERT JUMPDEST POP PUSH2 0x214 PUSH2 0x61E JUMP JUMPDEST CALLVALUE DUP1 ISZERO PUSH2 0x280 JUMPI PUSH1 0x0 DUP1 REVERT JUMPDEST POP PUSH2 0x294 PUSH2 0x28F CALLDATASIZE PUSH1 0x4 PUSH2 0x1F78 JUMP JUMPDEST PUSH2 0x69F JUMP JUMPDEST STOP JUMPDEST CALLVALUE DUP1 ISZERO PUSH2 0x2A2 JUMPI PUSH1 0x0 DUP1 REVERT JUMPDEST POP PUSH2 0x294 PUSH2 0x2B1 CALLDATASIZE PUSH1 0x4 PUSH2 0x1FB2 JUMP JUMPDEST PUSH2 0x8D9 JUMP JUMPDEST CALLVALUE DUP1 ISZERO PUSH2 0x2C2 JUMPI PUSH1 0x0 DUP1 REVERT JUMPDEST POP PUSH2 0x294 PUSH2 0x2D1 CALLDATASIZE PUSH1 0x4 PUSH2 0x2016 JUMP JUMPDEST PUSH2 0xBC8 JUMP JUMPDEST PUSH2 0x294 PUSH2 0xC05 JUMP JUMPDEST CALLVALUE DUP1 ISZERO PUSH2 0x2EA JUMPI PUSH1 0x0 DUP1 REVERT JUMPDEST POP PUSH2 0x214 PUSH1 0x9 SLOAD DUP2 JUMP JUMPDEST CALLVALUE DUP1 ISZERO PUSH2 0x300 JUMPI PUSH1 0x0 DUP1 REVERT JUMPDEST POP PUSH2 0x294 PUSH2 0x30F CALLDATASIZE PUSH1 0x4 PUSH2 0x1F78 JUMP JUMPDEST PUSH2 0xD65 JUMP JUMPDEST CALLVALUE DUP1 ISZERO PUSH2 0x320 JUMPI PUSH1 0x0 DUP1 REVERT JUMPDEST POP SELFBALANCE PUSH2 0x214 JUMP JUMPDEST CALLVALUE DUP1 ISZERO PUSH2 0x333 JUMPI PUSH1 0x0 DUP1 REVERT JUMPDEST POP PUSH2 0x294 PUSH2 0xECE JUMP JUMPDEST CALLVALUE DUP1 ISZERO PUSH2 0x348 JUMPI PUSH1 0x0 DUP1 REVERT JUMPDEST POP PUSH2 0x36C PUSH2 0x357 CALLDATASIZE PUSH1 0x4 PUSH2 0x1F78 JUMP JUMPDEST PUSH1 0x3 PUSH1 0x20 MSTORE PUSH1 0x0 SWAP1 DUP2 MSTORE PUSH1 0x40 SWAP1 KECCAK256 SLOAD PUSH1 0xFF AND DUP2 JUMP JUMPDEST PUSH1 0x40 MLOAD SWAP1 ISZERO ISZERO DUP2 MSTORE PUSH1 0x20 ADD PUSH2 0x21E JUMP JUMPDEST CALLVALUE DUP1 ISZERO PUSH2 0x388 JUMPI PUSH1 0x0 DUP1 REVERT JUMPDEST POP PUSH2 0x214 PUSH1 0x5 SLOAD DUP2 JUMP JUMPDEST CALLVALUE DUP1 ISZERO PUSH2 0x39E JUMPI PUSH1 0x0 DUP1 REVERT JUMPDEST POP PUSH2 0x36C PUSH2 0x3AD CALLDATASIZE PUSH1 0x4 PUSH2 0x1F78 JUMP JUMPDEST PUSH2 0xF04 JUMP JUMPDEST CALLVALUE DUP1 ISZERO PUSH2 0x3BE JUMPI PUSH1 0x0 DUP1 REVERT JUMPDEST POP PUSH2 0x294 PUSH2 0x3CD CALLDATASIZE PUSH1 0x4 PUSH2 0x213A JUMP JUMPDEST PUSH2 0xF36 JUMP JUMPDEST CALLVALUE DUP1 ISZERO PUSH2 0x3DE JUMPI PUSH1 0x0 DUP1 REVERT JUMPDEST POP PUSH1 0x0 SLOAD PUSH1 0x1 PUSH1 0x1 PUSH1 0xA0 SHL SUB AND PUSH2 0x247 JUMP JUMPDEST CALLVALUE DUP1 ISZERO PUSH2 0x3FC JUMPI PUSH1 0x0 DUP1 REVERT JUMPDEST POP PUSH1 0x2 SLOAD PUSH1 0x1 PUSH1 0x1 PUSH1 0xA0 SHL SUB AND PUSH2 0x247 JUMP JUMPDEST CALLVALUE DUP1 ISZERO PUSH2 0x41A JUMPI PUSH1 0x0 DUP1 REVERT JUMPDEST POP PUSH2 0x294 PUSH2 0x429 CALLDATASIZE PUSH1 0x4 PUSH2 0x20A5 JUMP JUMPDEST PUSH2 0x1072 JUMP JUMPDEST CALLVALUE DUP1 ISZERO PUSH2 0x43A JUMPI PUSH1 0x0 DUP1 REVERT JUMPDEST POP PUSH1 0x6 SLOAD PUSH2 0x247 SWAP1 PUSH1 0x1 PUSH1 0x1 PUSH1 0xA0 SHL SUB AND DUP2 JUMP JUMPDEST CALLVALUE DUP1 ISZERO PUSH2 0x45A JUMPI PUSH1 0x0 DUP1 REVERT JUMPDEST POP PUSH1 0x0 SLOAD PUSH2 0x36C SWAP1 PUSH1 0x1 PUSH1 0xA0 SHL SWAP1 DIV PUSH1 0xFF AND DUP2 JUMP JUMPDEST CALLVALUE DUP1 ISZERO PUSH2 0x47B JUMPI PUSH1 0x0 DUP1 REVERT JUMPDEST POP PUSH2 0x294 PUSH2 0x48A CALLDATASIZE PUSH1 0x4 PUSH2 0x20A5 JUMP JUMPDEST PUSH2 0x10E5 JUMP JUMPDEST CALLVALUE DUP1 ISZERO PUSH2 0x49B JUMPI PUSH1 0x0 DUP1 REVERT JUMPDEST POP PUSH1 0x8 SLOAD PUSH2 0x247 SWAP1 PUSH1 0x1 PUSH1 0x1 PUSH1 0xA0 SHL SUB AND DUP2 JUMP JUMPDEST CALLVALUE DUP1 ISZERO PUSH2 0x4BB JUMPI PUSH1 0x0 DUP1 REVERT JUMPDEST POP PUSH2 0x36C PUSH2 0x4CA CALLDATASIZE PUSH1 0x4 PUSH2 0x1F78 JUMP JUMPDEST PUSH2 0x11C2 JUMP JUMPDEST CALLVALUE DUP1 ISZERO PUSH2 0x4DB JUMPI PUSH1 0x0 DUP1 REVERT JUMPDEST POP PUSH2 0x294 PUSH2 0x4EA CALLDATASIZE PUSH1 0x4 PUSH2 0x1F78 JUMP JUMPDEST PUSH2 0x11F4 JUMP JUMPDEST CALLVALUE DUP1 ISZERO PUSH2 0x4FB JUMPI PUSH1 0x0 DUP1 REVERT JUMPDEST POP PUSH2 0x294 PUSH2 0x50A CALLDATASIZE PUSH1 0x4 PUSH2 0x216C JUMP JUMPDEST PUSH2 0x1240 JUMP JUMPDEST CALLVALUE DUP1 ISZERO PUSH2 0x51B JUMPI PUSH1 0x0 DUP1 REVERT JUMPDEST POP PUSH2 0x294 PUSH2 0x154E JUMP JUMPDEST CALLVALUE DUP1 ISZERO PUSH2 0x530 JUMPI PUSH1 0x0 DUP1 REVERT JUMPDEST POP PUSH2 0x294 PUSH2 0x53F CALLDATASIZE PUSH1 0x4 PUSH2 0x213A JUMP JUMPDEST PUSH2 0x15DF JUMP JUMPDEST CALLVALUE DUP1 ISZERO PUSH2 0x550 JUMPI PUSH1 0x0 DUP1 REVERT JUMPDEST POP PUSH1 0xB SLOAD PUSH2 0x247 SWAP1 PUSH1 0x1 PUSH1 0x1 PUSH1 0xA0 SHL SUB AND DUP2 JUMP JUMPDEST CALLVALUE DUP1 ISZERO PUSH2 0x570 JUMPI PUSH1 0x0 DUP1 REVERT JUMPDEST POP PUSH2 0x294 PUSH2 0x57F CALLDATASIZE PUSH1 0x4 PUSH2 0x1F78 JUMP JUMPDEST PUSH2 0x172F JUMP JUMPDEST CALLVALUE DUP1 ISZERO PUSH2 0x590 JUMPI PUSH1 0x0 DUP1 REVERT JUMPDEST POP PUSH2 0x294 PUSH2 0x17CA JUMP JUMPDEST CALLVALUE DUP1 ISZERO PUSH2 0x5A5 JUMPI PUSH1 0x0 DUP1 REVERT JUMPDEST POP PUSH2 0x214 PUSH2 0x5B4 CALLDATASIZE PUSH1 0x4 PUSH2 0x1F78 JUMP JUMPDEST PUSH1 0x4 PUSH1 0x20 MSTORE PUSH1 0x0 SWAP1 DUP2 MSTORE PUSH1 0x40 SWAP1 KECCAK256 SLOAD DUP2 JUMP JUMPDEST CALLVALUE DUP1 ISZERO PUSH2 0x5D2 JUMPI PUSH1 0x0 DUP1 REVERT JUMPDEST POP PUSH2 0x294 PUSH2 0x5E1 CALLDATASIZE PUSH1 0x4 PUSH2 0x1F78 JUMP JUMPDEST PUSH2 0x1854 JUMP JUMPDEST CALLVALUE DUP1 ISZERO PUSH2 0x5F2 JUMPI PUSH1 0x0 DUP1 REVERT JUMPDEST POP PUSH2 0x214 PUSH2 0x601 CALLDATASIZE PUSH1 0x4 PUSH2 0x20A5 JUMP JUMPDEST DUP1 MLOAD PUSH1 0x20 DUP2 DUP4 ADD DUP2 ADD DUP1 MLOAD PUSH1 0x1 DUP3 MSTORE SWAP3 DUP3 ADD SWAP2 SWAP1 SWAP4 ADD KECCAK256 SWAP2 MSTORE SLOAD DUP2 JUMP JUMPDEST PUSH1 0x8 SLOAD PUSH1 0x40 MLOAD PUSH4 0x70A08231 PUSH1 0xE0 SHL DUP2 MSTORE ADDRESS PUSH1 0x4 DUP3 ADD MSTORE PUSH1 0x0 SWAP2 PUSH1 0x1 PUSH1 0x1 PUSH1 0xA0 SHL SUB AND SWAP1 PUSH4 0x70A08231 SWAP1 PUSH1 0x24 ADD PUSH1 0x20 PUSH1 0x40 MLOAD DUP1 DUP4 SUB DUP2 DUP7 DUP1 EXTCODESIZE ISZERO DUP1 ISZERO PUSH2 0x662 JUMPI PUSH1 0x0 DUP1 REVERT JUMPDEST POP GAS STATICCALL ISZERO DUP1 ISZERO PUSH2 0x676 JUMPI RETURNDATASIZE PUSH1 0x0 DUP1 RETURNDATACOPY RETURNDATASIZE PUSH1 0x0 REVERT JUMPDEST POP POP POP POP PUSH1 0x40 MLOAD RETURNDATASIZE PUSH1 0x1F NOT PUSH1 0x1F DUP3 ADD AND DUP3 ADD DUP1 PUSH1 0x40 MSTORE POP DUP2 ADD SWAP1 PUSH2 0x69A SWAP2 SWAP1 PUSH2 0x2153 JUMP JUMPDEST SWAP1 POP SWAP1 JUMP JUMPDEST CALLER PUSH2 0x6B2 PUSH1 0x0 SLOAD PUSH1 0x1 PUSH1 0x1 PUSH1 0xA0 SHL SUB AND SWAP1 JUMP JUMPDEST PUSH1 0x1 PUSH1 0x1 PUSH1 0xA0 SHL SUB AND EQ DUP1 PUSH2 0x6D1 JUMPI POP PUSH1 0x2 SLOAD PUSH1 0x1 PUSH1 0x1 PUSH1 0xA0 SHL SUB AND CALLER EQ JUMPDEST PUSH2 0x6F6 JUMPI PUSH1 0x40 MLOAD PUSH3 0x461BCD PUSH1 0xE5 SHL DUP2 MSTORE PUSH1 0x4 ADD PUSH2 0x6ED SWAP1 PUSH2 0x2219 JUMP JUMPDEST PUSH1 0x40 MLOAD DUP1 SWAP2 SUB SWAP1 REVERT JUMPDEST PUSH1 0x40 DUP1 MLOAD DUP1 DUP3 ADD SWAP1 SWAP2 MSTORE PUSH1 0xA DUP2 MSTORE PUSH10 0x36B0B4B73A30B4B732B9 PUSH1 0xB1 SHL PUSH1 0x20 DUP3 ADD MSTORE PUSH1 0x0 SLOAD PUSH1 0x1 PUSH1 0xA0 SHL SWAP1 DIV PUSH1 0xFF AND ISZERO DUP1 PUSH2 0x7B0 JUMPI POP PUSH1 0x1 DUP2 PUSH1 0x40 MLOAD PUSH2 0x73B SWAP2 SWAP1 PUSH2 0x219C JUMP JUMPDEST SWAP1 DUP2 MSTORE PUSH1 0x20 ADD PUSH1 0x40 MLOAD DUP1 SWAP2 SUB SWAP1 KECCAK256 SLOAD PUSH1 0x0 EQ ISZERO DUP1 ISZERO PUSH2 0x778 JUMPI POP TIMESTAMP PUSH1 0x1 DUP3 PUSH1 0x40 MLOAD PUSH2 0x766 SWAP2 SWAP1 PUSH2 0x219C JUMP JUMPDEST SWAP1 DUP2 MSTORE PUSH1 0x20 ADD PUSH1 0x40 MLOAD DUP1 SWAP2 SUB SWAP1 KECCAK256 SLOAD GT ISZERO JUMPDEST DUP1 ISZERO PUSH2 0x7B0 JUMPI POP TIMESTAMP PUSH3 0x15180 PUSH1 0x1 DUP4 PUSH1 0x40 MLOAD PUSH2 0x794 SWAP2 SWAP1 PUSH2 0x219C JUMP JUMPDEST SWAP1 DUP2 MSTORE PUSH1 0x20 ADD PUSH1 0x40 MLOAD DUP1 SWAP2 SUB SWAP1 KECCAK256 SLOAD PUSH2 0x7AD SWAP2 SWAP1 PUSH2 0x2334 JUMP JUMPDEST LT ISZERO JUMPDEST PUSH2 0x7CC JUMPI PUSH1 0x40 MLOAD PUSH3 0x461BCD PUSH1 0xE5 SHL DUP2 MSTORE PUSH1 0x4 ADD PUSH2 0x6ED SWAP1 PUSH2 0x21ED JUMP JUMPDEST PUSH1 0x2 SLOAD PUSH1 0x1 PUSH1 0x1 PUSH1 0xA0 SHL SUB DUP4 DUP2 AND SWAP2 AND EQ DUP1 ISZERO SWAP1 PUSH2 0x7F2 JUMPI POP PUSH1 0x1 PUSH1 0x1 PUSH1 0xA0 SHL SUB DUP3 AND ISZERO ISZERO JUMPDEST PUSH2 0x87D JUMPI PUSH1 0x40 MLOAD PUSH3 0x461BCD PUSH1 0xE5 SHL DUP2 MSTORE PUSH1 0x20 PUSH1 0x4 DUP3 ADD MSTORE PUSH1 0x50 PUSH1 0x24 DUP3 ADD MSTORE PUSH32 0x41424F41543A3A7365744D61696E7461696E65723A204D61696E7461696E6572 PUSH1 0x44 DUP3 ADD MSTORE PUSH32 0x2063616E277420657175616C2070726576696F7573206D61696E7461696E6572 PUSH1 0x64 DUP3 ADD MSTORE PUSH16 0x206F72207A65726F2061646472657373 PUSH1 0x80 SHL PUSH1 0x84 DUP3 ADD MSTORE PUSH1 0xA4 ADD PUSH2 0x6ED JUMP JUMPDEST PUSH1 0x2 DUP1 SLOAD PUSH1 0x1 PUSH1 0x1 PUSH1 0xA0 SHL SUB DUP5 DUP2 AND PUSH1 0x1 PUSH1 0x1 PUSH1 0xA0 SHL SUB NOT DUP4 AND DUP2 OR SWAP1 SWAP4 SSTORE PUSH1 0x40 MLOAD SWAP2 AND SWAP2 SWAP1 DUP3 SWAP1 PUSH32 0x2F3FFAAAAD93928855C8700645D1A3643E6CCFDD500EFA9FDA048A88F557CF01 SWAP1 PUSH1 0x0 SWAP1 LOG3 POP PUSH2 0x8D5 DUP2 PUSH2 0x1072 JUMP JUMPDEST POP POP JUMP JUMPDEST PUSH1 0x0 SLOAD PUSH1 0x1 PUSH1 0x1 PUSH1 0xA0 SHL SUB AND CALLER EQ PUSH2 0x903 JUMPI PUSH1 0x40 MLOAD PUSH3 0x461BCD PUSH1 0xE5 SHL DUP2 MSTORE PUSH1 0x4 ADD PUSH2 0x6ED SWAP1 PUSH2 0x21B8 JUMP JUMPDEST DUP1 MLOAD DUP3 MLOAD EQ PUSH2 0x991 JUMPI PUSH1 0x40 MLOAD PUSH3 0x461BCD PUSH1 0xE5 SHL DUP2 MSTORE PUSH1 0x20 PUSH1 0x4 DUP3 ADD MSTORE PUSH1 0x4E PUSH1 0x24 DUP3 ADD MSTORE PUSH32 0x41424F41543A3A73656E64526577617264733A20616D6F756E747320616E6420 PUSH1 0x44 DUP3 ADD MSTORE PUSH32 0x616464726573736573206D7573742068617665207468652073616D6520616D6F PUSH1 0x64 DUP3 ADD MSTORE PUSH14 0x756E74206F6620656E7472696573 PUSH1 0x90 SHL PUSH1 0x84 DUP3 ADD MSTORE PUSH1 0xA4 ADD PUSH2 0x6ED JUMP JUMPDEST PUSH1 0x0 JUMPDEST DUP2 MLOAD DUP2 LT ISZERO PUSH2 0xBC3 JUMPI PUSH1 0x3 PUSH1 0x0 DUP4 DUP4 DUP2 MLOAD DUP2 LT PUSH2 0x9B3 JUMPI PUSH2 0x9B3 PUSH2 0x23E6 JUMP JUMPDEST PUSH1 0x20 SWAP1 DUP2 MUL SWAP2 SWAP1 SWAP2 ADD DUP2 ADD MLOAD PUSH1 0x1 PUSH1 0x1 PUSH1 0xA0 SHL SUB AND DUP3 MSTORE DUP2 ADD SWAP2 SWAP1 SWAP2 MSTORE PUSH1 0x40 ADD PUSH1 0x0 KECCAK256 SLOAD PUSH1 0xFF AND DUP1 ISZERO PUSH2 0xA06 JUMPI POP DUP3 DUP2 DUP2 MLOAD DUP2 LT PUSH2 0x9F3 JUMPI PUSH2 0x9F3 PUSH2 0x23E6 JUMP JUMPDEST PUSH1 0x20 MUL PUSH1 0x20 ADD ADD MLOAD PUSH2 0xA03 PUSH2 0x61E JUMP JUMPDEST LT ISZERO JUMPDEST DUP1 ISZERO PUSH2 0xA2F JUMPI POP PUSH2 0xA2F DUP3 DUP3 DUP2 MLOAD DUP2 LT PUSH2 0xA22 JUMPI PUSH2 0xA22 PUSH2 0x23E6 JUMP JUMPDEST PUSH1 0x20 MUL PUSH1 0x20 ADD ADD MLOAD PUSH2 0x11C2 JUMP JUMPDEST DUP1 ISZERO PUSH2 0xA56 JUMPI POP PUSH1 0x9 SLOAD DUP4 DUP3 DUP2 MLOAD DUP2 LT PUSH2 0xA4B JUMPI PUSH2 0xA4B PUSH2 0x23E6 JUMP JUMPDEST PUSH1 0x20 MUL PUSH1 0x20 ADD ADD MLOAD GT ISZERO JUMPDEST ISZERO PUSH2 0xBB1 JUMPI PUSH1 0x0 PUSH1 0x3 PUSH1 0x0 DUP5 DUP5 DUP2 MLOAD DUP2 LT PUSH2 0xA73 JUMPI PUSH2 0xA73 PUSH2 0x23E6 JUMP JUMPDEST PUSH1 0x20 MUL PUSH1 0x20 ADD ADD MLOAD PUSH1 0x1 PUSH1 0x1 PUSH1 0xA0 SHL SUB AND PUSH1 0x1 PUSH1 0x1 PUSH1 0xA0 SHL SUB AND DUP2 MSTORE PUSH1 0x20 ADD SWAP1 DUP2 MSTORE PUSH1 0x20 ADD PUSH1 0x0 KECCAK256 PUSH1 0x0 PUSH2 0x100 EXP DUP2 SLOAD DUP2 PUSH1 0xFF MUL NOT AND SWAP1 DUP4 ISZERO ISZERO MUL OR SWAP1 SSTORE POP TIMESTAMP PUSH1 0x4 PUSH1 0x0 DUP5 DUP5 DUP2 MLOAD DUP2 LT PUSH2 0xAC9 JUMPI PUSH2 0xAC9 PUSH2 0x23E6 JUMP JUMPDEST PUSH1 0x20 MUL PUSH1 0x20 ADD ADD MLOAD PUSH1 0x1 PUSH1 0x1 PUSH1 0xA0 SHL SUB AND PUSH1 0x1 PUSH1 0x1 PUSH1 0xA0 SHL SUB AND DUP2 MSTORE PUSH1 0x20 ADD SWAP1 DUP2 MSTORE PUSH1 0x20 ADD PUSH1 0x0 KECCAK256 DUP2 SWAP1 SSTORE POP PUSH2 0xB47 PUSH1 0x8 PUSH1 0x0 SWAP1 SLOAD SWAP1 PUSH2 0x100 EXP SWAP1 DIV PUSH1 0x1 PUSH1 0x1 PUSH1 0xA0 SHL SUB AND DUP4 DUP4 DUP2 MLOAD DUP2 LT PUSH2 0xB20 JUMPI PUSH2 0xB20 PUSH2 0x23E6 JUMP JUMPDEST PUSH1 0x20 MUL PUSH1 0x20 ADD ADD MLOAD DUP6 DUP5 DUP2 MLOAD DUP2 LT PUSH2 0xB3A JUMPI PUSH2 0xB3A PUSH2 0x23E6 JUMP JUMPDEST PUSH1 0x20 MUL PUSH1 0x20 ADD ADD MLOAD PUSH2 0x1A3D JUMP JUMPDEST DUP3 DUP2 DUP2 MLOAD DUP2 LT PUSH2 0xB59 JUMPI PUSH2 0xB59 PUSH2 0x23E6 JUMP JUMPDEST PUSH1 0x20 MUL PUSH1 0x20 ADD ADD MLOAD DUP3 DUP3 DUP2 MLOAD DUP2 LT PUSH2 0xB73 JUMPI PUSH2 0xB73 PUSH2 0x23E6 JUMP JUMPDEST PUSH1 0x20 MUL PUSH1 0x20 ADD ADD MLOAD PUSH1 0x1 PUSH1 0x1 PUSH1 0xA0 SHL SUB AND PUSH32 0xD9D5E983E9E8A6571FFBEAFA6A3C2FBD9F0F44E52607977B5E1E7934F7D91BFC PUSH1 0x40 MLOAD PUSH1 0x40 MLOAD DUP1 SWAP2 SUB SWAP1 LOG3 JUMPDEST DUP1 PUSH2 0xBBB DUP2 PUSH2 0x23B5 JUMP JUMPDEST SWAP2 POP POP PUSH2 0x994 JUMP JUMPDEST POP POP POP JUMP JUMPDEST PUSH1 0x0 SLOAD PUSH1 0x1 PUSH1 0x1 PUSH1 0xA0 SHL SUB AND CALLER EQ PUSH2 0xBF2 JUMPI PUSH1 0x40 MLOAD PUSH3 0x461BCD PUSH1 0xE5 SHL DUP2 MSTORE PUSH1 0x4 ADD PUSH2 0x6ED SWAP1 PUSH2 0x21B8 JUMP JUMPDEST PUSH2 0xBFB DUP2 PUSH2 0xF36 JUMP JUMPDEST PUSH2 0xBC3 DUP4 DUP4 PUSH2 0x8D9 JUMP JUMPDEST CALLER PUSH1 0x0 SWAP1 DUP2 MSTORE PUSH1 0x3 PUSH1 0x20 MSTORE PUSH1 0x40 SWAP1 KECCAK256 SLOAD PUSH1 0xFF AND ISZERO PUSH2 0xC7D JUMPI PUSH1 0x40 MLOAD PUSH3 0x461BCD PUSH1 0xE5 SHL DUP2 MSTORE PUSH1 0x20 PUSH1 0x4 DUP3 ADD MSTORE PUSH1 0x2F PUSH1 0x24 DUP3 ADD MSTORE PUSH32 0x41424F41543A3A636C61696D3A20416C726561647920616C6C6F77656420746F PUSH1 0x44 DUP3 ADD MSTORE PUSH15 0x207265636965766520746F6B656E73 PUSH1 0x88 SHL PUSH1 0x64 DUP3 ADD MSTORE PUSH1 0x84 ADD PUSH2 0x6ED JUMP JUMPDEST PUSH1 0x5 SLOAD CALLVALUE LT ISZERO PUSH2 0xD0D JUMPI PUSH1 0x40 MLOAD PUSH3 0x461BCD PUSH1 0xE5 SHL DUP2 MSTORE PUSH1 0x20 PUSH1 0x4 DUP3 ADD MSTORE PUSH1 0x4F PUSH1 0x24 DUP3 ADD MSTORE PUSH32 0x41424F41543A3A636C61696D3A20416D6F756E74206F6620626E6220746F2063 PUSH1 0x44 DUP3 ADD MSTORE PUSH32 0x6C61696D2073686F756C642063617272792074686520636F737420746F206164 PUSH1 0x64 DUP3 ADD MSTORE PUSH15 0x642074686520636C61696D61626C65 PUSH1 0x88 SHL PUSH1 0x84 DUP3 ADD MSTORE PUSH1 0xA4 ADD PUSH2 0x6ED JUMP JUMPDEST PUSH1 0x6 SLOAD PUSH2 0xD23 SWAP1 PUSH1 0x1 PUSH1 0x1 PUSH1 0xA0 SHL SUB AND CALLVALUE PUSH2 0x1B6E JUMP JUMPDEST CALLER PUSH1 0x0 DUP2 DUP2 MSTORE PUSH1 0x3 PUSH1 0x20 MSTORE PUSH1 0x40 DUP1 DUP3 KECCAK256 DUP1 SLOAD PUSH1 0xFF NOT AND PUSH1 0x1 OR SWAP1 SSTORE MLOAD PUSH32 0x98716C616972F4EF0085DEB59C20F6F6A840219C121AD1F3B5413097F3A10357 SWAP2 SWAP1 LOG2 JUMP JUMPDEST PUSH1 0x0 SLOAD PUSH1 0x1 PUSH1 0x1 PUSH1 0xA0 SHL SUB AND CALLER EQ PUSH2 0xD8F JUMPI PUSH1 0x40 MLOAD PUSH3 0x461BCD PUSH1 0xE5 SHL DUP2 MSTORE PUSH1 0x4 ADD PUSH2 0x6ED SWAP1 PUSH2 0x21B8 JUMP JUMPDEST PUSH1 0x40 DUP1 MLOAD DUP1 DUP3 ADD SWAP1 SWAP2 MSTORE PUSH1 0x12 DUP2 MSTORE PUSH18 0x18DA185B99D953DC9858DB1955D85B1B195D PUSH1 0x72 SHL PUSH1 0x20 DUP3 ADD MSTORE PUSH1 0x0 SLOAD PUSH1 0x1 PUSH1 0xA0 SHL SWAP1 DIV PUSH1 0xFF AND ISZERO DUP1 PUSH2 0xE51 JUMPI POP PUSH1 0x1 DUP2 PUSH1 0x40 MLOAD PUSH2 0xDDC SWAP2 SWAP1 PUSH2 0x219C JUMP JUMPDEST SWAP1 DUP2 MSTORE PUSH1 0x20 ADD PUSH1 0x40 MLOAD DUP1 SWAP2 SUB SWAP1 KECCAK256 SLOAD PUSH1 0x0 EQ ISZERO DUP1 ISZERO PUSH2 0xE19 JUMPI POP TIMESTAMP PUSH1 0x1 DUP3 PUSH1 0x40 MLOAD PUSH2 0xE07 SWAP2 SWAP1 PUSH2 0x219C JUMP JUMPDEST SWAP1 DUP2 MSTORE PUSH1 0x20 ADD PUSH1 0x40 MLOAD DUP1 SWAP2 SUB SWAP1 KECCAK256 SLOAD GT ISZERO JUMPDEST DUP1 ISZERO PUSH2 0xE51 JUMPI POP TIMESTAMP PUSH3 0x15180 PUSH1 0x1 DUP4 PUSH1 0x40 MLOAD PUSH2 0xE35 SWAP2 SWAP1 PUSH2 0x219C JUMP JUMPDEST SWAP1 DUP2 MSTORE PUSH1 0x20 ADD PUSH1 0x40 MLOAD DUP1 SWAP2 SUB SWAP1 KECCAK256 SLOAD PUSH2 0xE4E SWAP2 SWAP1 PUSH2 0x2334 JUMP JUMPDEST LT ISZERO JUMPDEST PUSH2 0xE6D JUMPI PUSH1 0x40 MLOAD PUSH3 0x461BCD PUSH1 0xE5 SHL DUP2 MSTORE PUSH1 0x4 ADD PUSH2 0x6ED SWAP1 PUSH2 0x21ED JUMP JUMPDEST PUSH2 0xE76 DUP3 PUSH2 0x172F JUMP JUMPDEST PUSH1 0x6 DUP1 SLOAD PUSH1 0x1 PUSH1 0x1 PUSH1 0xA0 SHL SUB DUP5 DUP2 AND PUSH1 0x1 PUSH1 0x1 PUSH1 0xA0 SHL SUB NOT DUP4 AND DUP2 OR SWAP1 SWAP4 SSTORE PUSH1 0x40 MLOAD SWAP2 AND SWAP2 SWAP1 DUP3 SWAP1 PUSH32 0x3920ECD0F25E4E6CE57AAEC91E57DF499CB7E3E70D6C9604F866AE9265382CF3 SWAP1 PUSH1 0x0 SWAP1 LOG3 POP PUSH2 0x8D5 DUP2 PUSH2 0x1072 JUMP JUMPDEST PUSH1 0x0 SLOAD PUSH1 0x1 PUSH1 0x1 PUSH1 0xA0 SHL SUB AND CALLER EQ PUSH2 0xEF8 JUMPI PUSH1 0x40 MLOAD PUSH3 0x461BCD PUSH1 0xE5 SHL DUP2 MSTORE PUSH1 0x4 ADD PUSH2 0x6ED SWAP1 PUSH2 0x21B8 JUMP JUMPDEST PUSH2 0xF02 PUSH1 0x0 PUSH2 0x1C48 JUMP JUMPDEST JUMP JUMPDEST PUSH1 0xA SLOAD PUSH1 0x1 PUSH1 0x1 PUSH1 0xA0 SHL SUB DUP3 AND PUSH1 0x0 SWAP1 DUP2 MSTORE PUSH1 0x4 PUSH1 0x20 MSTORE PUSH1 0x40 DUP2 KECCAK256 SLOAD SWAP1 SWAP2 TIMESTAMP SWAP2 PUSH2 0xF2E SWAP2 SWAP1 PUSH2 0x2334 JUMP JUMPDEST GT ISZERO SWAP3 SWAP2 POP POP JUMP JUMPDEST PUSH1 0x0 SLOAD PUSH1 0x1 PUSH1 0x1 PUSH1 0xA0 SHL SUB AND CALLER EQ PUSH2 0xF60 JUMPI PUSH1 0x40 MLOAD PUSH3 0x461BCD PUSH1 0xE5 SHL DUP2 MSTORE PUSH1 0x4 ADD PUSH2 0x6ED SWAP1 PUSH2 0x21B8 JUMP JUMPDEST PUSH1 0x40 DUP1 MLOAD DUP1 DUP3 ADD SWAP1 SWAP2 MSTORE PUSH1 0xD DUP2 MSTORE PUSH13 0x18591A9D5CDD11D85CD0DBDCDD PUSH1 0x9A SHL PUSH1 0x20 DUP3 ADD MSTORE PUSH1 0x0 SLOAD PUSH1 0x1 PUSH1 0xA0 SHL SWAP1 DIV PUSH1 0xFF AND ISZERO DUP1 PUSH2 0x101D JUMPI POP PUSH1 0x1 DUP2 PUSH1 0x40 MLOAD PUSH2 0xFA8 SWAP2 SWAP1 PUSH2 0x219C JUMP JUMPDEST SWAP1 DUP2 MSTORE PUSH1 0x20 ADD PUSH1 0x40 MLOAD DUP1 SWAP2 SUB SWAP1 KECCAK256 SLOAD PUSH1 0x0 EQ ISZERO DUP1 ISZERO PUSH2 0xFE5 JUMPI POP TIMESTAMP PUSH1 0x1 DUP3 PUSH1 0x40 MLOAD PUSH2 0xFD3 SWAP2 SWAP1 PUSH2 0x219C JUMP JUMPDEST SWAP1 DUP2 MSTORE PUSH1 0x20 ADD PUSH1 0x40 MLOAD DUP1 SWAP2 SUB SWAP1 KECCAK256 SLOAD GT ISZERO JUMPDEST DUP1 ISZERO PUSH2 0x101D JUMPI POP TIMESTAMP PUSH3 0x15180 PUSH1 0x1 DUP4 PUSH1 0x40 MLOAD PUSH2 0x1001 SWAP2 SWAP1 PUSH2 0x219C JUMP JUMPDEST SWAP1 DUP2 MSTORE PUSH1 0x20 ADD PUSH1 0x40 MLOAD DUP1 SWAP2 SUB SWAP1 KECCAK256 SLOAD PUSH2 0x101A SWAP2 SWAP1 PUSH2 0x2334 JUMP JUMPDEST LT ISZERO JUMPDEST PUSH2 0x1039 JUMPI PUSH1 0x40 MLOAD PUSH3 0x461BCD PUSH1 0xE5 SHL DUP2 MSTORE PUSH1 0x4 ADD PUSH2 0x6ED SWAP1 PUSH2 0x21ED JUMP JUMPDEST PUSH1 0x5 SLOAD PUSH1 0x40 MLOAD DUP4 SWAP2 SWAP1 PUSH32 0xC3DC19678FD7390A5C1197DECFAEC52D8A1C63C49F0A51DB570F5FE5040C5F73 SWAP1 PUSH1 0x0 SWAP1 LOG3 PUSH1 0x5 DUP3 SWAP1 SSTORE PUSH2 0x8D5 DUP2 JUMPDEST CALLER PUSH2 0x1085 PUSH1 0x0 SLOAD PUSH1 0x1 PUSH1 0x1 PUSH1 0xA0 SHL SUB AND SWAP1 JUMP JUMPDEST PUSH1 0x1 PUSH1 0x1 PUSH1 0xA0 SHL SUB AND EQ DUP1 PUSH2 0x10A4 JUMPI POP PUSH1 0x2 SLOAD PUSH1 0x1 PUSH1 0x1 PUSH1 0xA0 SHL SUB AND CALLER EQ JUMPDEST PUSH2 0x10C0 JUMPI PUSH1 0x40 MLOAD PUSH3 0x461BCD PUSH1 0xE5 SHL DUP2 MSTORE PUSH1 0x4 ADD PUSH2 0x6ED SWAP1 PUSH2 0x2219 JUMP JUMPDEST PUSH1 0x0 PUSH1 0x1 DUP3 PUSH1 0x40 MLOAD PUSH2 0x10D2 SWAP2 SWAP1 PUSH2 0x219C JUMP JUMPDEST SWAP1 DUP2 MSTORE PUSH1 0x40 MLOAD SWAP1 DUP2 SWAP1 SUB PUSH1 0x20 ADD SWAP1 KECCAK256 SSTORE POP JUMP JUMPDEST CALLER PUSH2 0x10F8 PUSH1 0x0 SLOAD PUSH1 0x1 PUSH1 0x1 PUSH1 0xA0 SHL SUB AND SWAP1 JUMP JUMPDEST PUSH1 0x1 PUSH1 0x1 PUSH1 0xA0 SHL SUB AND EQ DUP1 PUSH2 0x1117 JUMPI POP PUSH1 0x2 SLOAD PUSH1 0x1 PUSH1 0x1 PUSH1 0xA0 SHL SUB AND CALLER EQ JUMPDEST PUSH2 0x1133 JUMPI PUSH1 0x40 MLOAD PUSH3 0x461BCD PUSH1 0xE5 SHL DUP2 MSTORE PUSH1 0x4 ADD PUSH2 0x6ED SWAP1 PUSH2 0x2219 JUMP JUMPDEST PUSH2 0x1140 PUSH3 0x15180 TIMESTAMP PUSH2 0x2334 JUMP JUMPDEST PUSH1 0x1 DUP3 PUSH1 0x40 MLOAD PUSH2 0x1150 SWAP2 SWAP1 PUSH2 0x219C JUMP JUMPDEST SWAP1 DUP2 MSTORE PUSH1 0x20 ADD PUSH1 0x40 MLOAD DUP1 SWAP2 SUB SWAP1 KECCAK256 DUP2 SWAP1 SSTORE POP PUSH1 0x1 DUP2 PUSH1 0x40 MLOAD PUSH2 0x1172 SWAP2 SWAP1 PUSH2 0x219C JUMP JUMPDEST SWAP1 DUP2 MSTORE PUSH1 0x20 ADD PUSH1 0x40 MLOAD DUP1 SWAP2 SUB SWAP1 KECCAK256 SLOAD DUP2 PUSH1 0x40 MLOAD PUSH2 0x118F SWAP2 SWAP1 PUSH2 0x219C JUMP JUMPDEST PUSH1 0x40 MLOAD SWAP1 DUP2 SWAP1 SUB DUP2 KECCAK256 SWAP1 PUSH32 0xF77F9A799FE8B0BE1463ABD7459A18FC55DFD8A6A24DDD29B54FD098088089C8 SWAP1 PUSH1 0x0 SWAP1 LOG3 POP JUMP JUMPDEST PUSH1 0x1 PUSH1 0x1 PUSH1 0xA0 SHL SUB DUP2 AND PUSH1 0x0 SWAP1 DUP2 MSTORE PUSH1 0x3 PUSH1 0x20 MSTORE PUSH1 0x40 DUP2 KECCAK256 SLOAD PUSH1 0xFF AND DUP1 ISZERO PUSH2 0x11EE JUMPI POP PUSH2 0x11EE DUP3 PUSH2 0xF04 JUMP JUMPDEST SWAP3 SWAP2 POP POP JUMP JUMPDEST PUSH1 0x0 SLOAD PUSH1 0x1 PUSH1 0x1 PUSH1 0xA0 SHL SUB AND CALLER EQ PUSH2 0x121E JUMPI PUSH1 0x40 MLOAD PUSH3 0x461BCD PUSH1 0xE5 SHL DUP2 MSTORE PUSH1 0x4 ADD PUSH2 0x6ED SWAP1 PUSH2 0x21B8 JUMP JUMPDEST PUSH1 0xB DUP1 SLOAD PUSH1 0x1 PUSH1 0x1 PUSH1 0xA0 SHL SUB NOT AND PUSH1 0x1 PUSH1 0x1 PUSH1 0xA0 SHL SUB SWAP3 SWAP1 SWAP3 AND SWAP2 SWAP1 SWAP2 OR SWAP1 SSTORE JUMP JUMPDEST PUSH1 0x0 SLOAD PUSH1 0x1 PUSH1 0x1 PUSH1 0xA0 SHL SUB AND CALLER EQ PUSH2 0x126A JUMPI PUSH1 0x40 MLOAD PUSH3 0x461BCD PUSH1 0xE5 SHL DUP2 MSTORE PUSH1 0x4 ADD PUSH2 0x6ED SWAP1 PUSH2 0x21B8 JUMP JUMPDEST PUSH1 0xB SLOAD PUSH1 0x1 PUSH1 0x1 PUSH1 0xA0 SHL SUB AND PUSH2 0x12FB JUMPI PUSH1 0x40 MLOAD PUSH3 0x461BCD PUSH1 0xE5 SHL DUP2 MSTORE PUSH1 0x20 PUSH1 0x4 DUP3 ADD MSTORE PUSH1 0x4A PUSH1 0x24 DUP3 ADD MSTORE PUSH32 0x41424F41543A3A73656E645265776172647341734574683A2054686572652069 PUSH1 0x44 DUP3 ADD MSTORE PUSH32 0x73206E6F20726F7574657220646566696E656420746F207377617020746F6B65 PUSH1 0x64 DUP3 ADD MSTORE PUSH10 0xDCE640CCDEE440CAE8D PUSH1 0xB3 SHL PUSH1 0x84 DUP3 ADD MSTORE PUSH1 0xA4 ADD PUSH2 0x6ED JUMP JUMPDEST PUSH2 0x1303 PUSH2 0x61E JUMP JUMPDEST DUP3 GT ISZERO PUSH2 0x1388 JUMPI PUSH1 0x40 MLOAD PUSH3 0x461BCD PUSH1 0xE5 SHL DUP2 MSTORE PUSH1 0x20 PUSH1 0x4 DUP3 ADD MSTORE PUSH1 0x47 PUSH1 0x24 DUP3 ADD MSTORE PUSH32 0x41424F41543A3A73656E645265776172647341734574683A2043616E27742073 PUSH1 0x44 DUP3 ADD MSTORE PUSH32 0x656E64206D6F72652072657761726473207468616E20696E2072657761726420 PUSH1 0x64 DUP3 ADD MSTORE PUSH7 0x73797374656D21 PUSH1 0xC8 SHL PUSH1 0x84 DUP3 ADD MSTORE PUSH1 0xA4 ADD PUSH2 0x6ED JUMP JUMPDEST PUSH1 0x9 SLOAD DUP3 GT ISZERO PUSH2 0x1400 JUMPI PUSH1 0x40 MLOAD PUSH3 0x461BCD PUSH1 0xE5 SHL DUP2 MSTORE PUSH1 0x20 PUSH1 0x4 DUP3 ADD MSTORE PUSH1 0x3C PUSH1 0x24 DUP3 ADD MSTORE PUSH32 0x41424F41543A3A73656E645265776172647341734574683A2043616E27742073 PUSH1 0x44 DUP3 ADD MSTORE PUSH32 0x656E64206D6F72652072657761726473207468616E206C696D69742100000000 PUSH1 0x64 DUP3 ADD MSTORE PUSH1 0x84 ADD PUSH2 0x6ED JUMP JUMPDEST PUSH2 0x1409 DUP2 PUSH2 0xF04 JUMP JUMPDEST PUSH2 0x147B JUMPI PUSH1 0x40 MLOAD PUSH3 0x461BCD PUSH1 0xE5 SHL DUP2 MSTORE PUSH1 0x20 PUSH1 0x4 DUP3 ADD MSTORE PUSH1 0x3B PUSH1 0x24 DUP3 ADD MSTORE PUSH32 0x41424F41543A3A73656E645265776172647341734574683A2043616E27742063 PUSH1 0x44 DUP3 ADD MSTORE PUSH32 0x6C61696D206D6F7265207468616E206F6E636520706572206461790000000000 PUSH1 0x64 DUP3 ADD MSTORE PUSH1 0x84 ADD PUSH2 0x6ED JUMP JUMPDEST PUSH1 0x1 PUSH1 0x1 PUSH1 0xA0 SHL SUB DUP2 AND PUSH1 0x0 SWAP1 DUP2 MSTORE PUSH1 0x4 PUSH1 0x20 MSTORE PUSH1 0x40 SWAP1 KECCAK256 TIMESTAMP SWAP1 SSTORE PUSH2 0x149F DUP3 PUSH2 0x1C98 JUMP JUMPDEST PUSH1 0x0 PUSH2 0x14B6 PUSH1 0x5 SLOAD SELFBALANCE PUSH2 0x1E7E SWAP1 SWAP2 SWAP1 PUSH4 0xFFFFFFFF AND JUMP JUMPDEST PUSH1 0x6 SLOAD PUSH1 0x5 SLOAD SWAP2 SWAP3 POP PUSH2 0x14D4 SWAP2 PUSH1 0x1 PUSH1 0x1 PUSH1 0xA0 SHL SUB SWAP1 SWAP2 AND SWAP1 PUSH2 0x1B6E JUMP JUMPDEST PUSH1 0x0 PUSH2 0x14E1 DUP3 PUSH1 0xA PUSH2 0x1E91 JUMP JUMPDEST SWAP1 POP PUSH2 0x14ED DUP3 DUP3 PUSH2 0x1E7E JUMP JUMPDEST PUSH1 0x7 SLOAD SWAP1 SWAP3 POP PUSH2 0x1506 SWAP1 PUSH1 0x1 PUSH1 0x1 PUSH1 0xA0 SHL SUB AND DUP3 PUSH2 0x1B6E JUMP JUMPDEST PUSH2 0x1510 DUP4 DUP4 PUSH2 0x1B6E JUMP JUMPDEST DUP1 DUP3 DUP5 PUSH1 0x1 PUSH1 0x1 PUSH1 0xA0 SHL SUB AND PUSH32 0x75B2EAC24930BF6A8227DBE172D34480E56BE5C6994435067628424190D53431 PUSH1 0x40 MLOAD PUSH1 0x40 MLOAD DUP1 SWAP2 SUB SWAP1 LOG4 POP POP POP POP JUMP JUMPDEST PUSH1 0x0 SLOAD PUSH1 0x1 PUSH1 0x1 PUSH1 0xA0 SHL SUB AND CALLER EQ PUSH2 0x1578 JUMPI PUSH1 0x40 MLOAD PUSH3 0x461BCD PUSH1 0xE5 SHL DUP2 MSTORE PUSH1 0x4 ADD PUSH2 0x6ED SWAP1 PUSH2 0x21B8 JUMP JUMPDEST PUSH1 0x8 SLOAD PUSH2 0x15A7 SWAP1 PUSH1 0x1 PUSH1 0x1 PUSH1 0xA0 SHL SUB AND PUSH2 0x159A PUSH1 0x0 SLOAD PUSH1 0x1 PUSH1 0x1 PUSH1 0xA0 SHL SUB AND SWAP1 JUMP JUMPDEST PUSH2 0x15A2 PUSH2 0x61E JUMP JUMPDEST PUSH2 0x1A3D JUMP JUMPDEST PUSH1 0x0 DUP1 SLOAD PUSH1 0x40 MLOAD PUSH1 0x1 PUSH1 0x1 PUSH1 0xA0 SHL SUB SWAP1 SWAP2 AND SWAP2 PUSH32 0x5E7B34819CD91B239220BEC92FCFD3C10DA2214BA13E4E2B1F6C9CFDBD68A9A2 SWAP2 LOG2 JUMP JUMPDEST PUSH1 0x0 SLOAD PUSH1 0x1 PUSH1 0x1 PUSH1 0xA0 SHL SUB AND CALLER EQ PUSH2 0x1609 JUMPI PUSH1 0x40 MLOAD PUSH3 0x461BCD PUSH1 0xE5 SHL DUP2 MSTORE PUSH1 0x4 ADD PUSH2 0x6ED SWAP1 PUSH2 0x21B8 JUMP JUMPDEST PUSH1 0x40 DUP1 MLOAD DUP1 DUP3 ADD SWAP1 SWAP2 MSTORE PUSH1 0x19 DUP2 MSTORE PUSH32 0x61646A7573744D6178416D6F756E745065725265636569766500000000000000 PUSH1 0x20 DUP3 ADD MSTORE PUSH1 0x0 SLOAD PUSH1 0x1 PUSH1 0xA0 SHL SWAP1 DIV PUSH1 0xFF AND ISZERO DUP1 PUSH2 0x16D6 JUMPI POP PUSH1 0x1 DUP2 PUSH1 0x40 MLOAD PUSH2 0x1661 SWAP2 SWAP1 PUSH2 0x219C JUMP JUMPDEST SWAP1 DUP2 MSTORE PUSH1 0x20 ADD PUSH1 0x40 MLOAD DUP1 SWAP2 SUB SWAP1 KECCAK256 SLOAD PUSH1 0x0 EQ ISZERO DUP1 ISZERO PUSH2 0x169E JUMPI POP TIMESTAMP PUSH1 0x1 DUP3 PUSH1 0x40 MLOAD PUSH2 0x168C SWAP2 SWAP1 PUSH2 0x219C JUMP JUMPDEST SWAP1 DUP2 MSTORE PUSH1 0x20 ADD PUSH1 0x40 MLOAD DUP1 SWAP2 SUB SWAP1 KECCAK256 SLOAD GT ISZERO JUMPDEST DUP1 ISZERO PUSH2 0x16D6 JUMPI POP TIMESTAMP PUSH3 0x15180 PUSH1 0x1 DUP4 PUSH1 0x40 MLOAD PUSH2 0x16BA SWAP2 SWAP1 PUSH2 0x219C JUMP JUMPDEST SWAP1 DUP2 MSTORE PUSH1 0x20 ADD PUSH1 0x40 MLOAD DUP1 SWAP2 SUB SWAP1 KECCAK256 SLOAD PUSH2 0x16D3 SWAP2 SWAP1 PUSH2 0x2334 JUMP JUMPDEST LT ISZERO JUMPDEST PUSH2 0x16F2 JUMPI PUSH1 0x40 MLOAD PUSH3 0x461BCD PUSH1 0xE5 SHL DUP2 MSTORE PUSH1 0x4 ADD PUSH2 0x6ED SWAP1 PUSH2 0x21ED JUMP JUMPDEST PUSH1 0x9 SLOAD PUSH1 0x40 MLOAD DUP4 SWAP2 SWAP1 PUSH32 0xD07363C93CA88CA1140B355020CB77B0320B19E19A34BB15AA4566D27C2FABBD SWAP1 PUSH1 0x0 SWAP1 LOG3 PUSH1 0x9 DUP3 SWAP1 SSTORE PUSH2 0x8D5 DUP2 PUSH2 0x1072 JUMP JUMPDEST PUSH1 0x0 SLOAD PUSH1 0x1 PUSH1 0x1 PUSH1 0xA0 SHL SUB AND CALLER EQ PUSH2 0x1759 JUMPI PUSH1 0x40 MLOAD PUSH3 0x461BCD PUSH1 0xE5 SHL DUP2 MSTORE PUSH1 0x4 ADD PUSH2 0x6ED SWAP1 PUSH2 0x21B8 JUMP JUMPDEST PUSH1 0x1 PUSH1 0x1 PUSH1 0xA0 SHL SUB DUP2 AND PUSH2 0x17BE JUMPI PUSH1 0x40 MLOAD PUSH3 0x461BCD PUSH1 0xE5 SHL DUP2 MSTORE PUSH1 0x20 PUSH1 0x4 DUP3 ADD MSTORE PUSH1 0x26 PUSH1 0x24 DUP3 ADD MSTORE PUSH32 0x4F776E61626C653A206E6577206F776E657220697320746865207A65726F2061 PUSH1 0x44 DUP3 ADD MSTORE PUSH6 0x646472657373 PUSH1 0xD0 SHL PUSH1 0x64 DUP3 ADD MSTORE PUSH1 0x84 ADD PUSH2 0x6ED JUMP JUMPDEST PUSH2 0x17C7 DUP2 PUSH2 0x1C48 JUMP JUMPDEST POP JUMP JUMPDEST CALLER PUSH2 0x17DD PUSH1 0x0 SLOAD PUSH1 0x1 PUSH1 0x1 PUSH1 0xA0 SHL SUB AND SWAP1 JUMP JUMPDEST PUSH1 0x1 PUSH1 0x1 PUSH1 0xA0 SHL SUB AND EQ DUP1 PUSH2 0x17FC JUMPI POP PUSH1 0x2 SLOAD PUSH1 0x1 PUSH1 0x1 PUSH1 0xA0 SHL SUB AND CALLER EQ JUMPDEST PUSH2 0x1818 JUMPI PUSH1 0x40 MLOAD PUSH3 0x461BCD PUSH1 0xE5 SHL DUP2 MSTORE PUSH1 0x4 ADD PUSH2 0x6ED SWAP1 PUSH2 0x2219 JUMP JUMPDEST PUSH1 0x0 DUP1 SLOAD PUSH1 0xFF PUSH1 0xA0 SHL NOT AND PUSH1 0x1 PUSH1 0xA0 SHL OR DUP2 SSTORE PUSH1 0x40 MLOAD PUSH32 0x2C08B62BFAC9A1B19BB1DEC9323F1CE01696A77948B256ABF3603D30F25A864E SWAP2 SWAP1 LOG1 JUMP JUMPDEST PUSH1 0x0 SLOAD PUSH1 0x1 PUSH1 0x1 PUSH1 0xA0 SHL SUB AND CALLER EQ PUSH2 0x187E JUMPI PUSH1 0x40 MLOAD PUSH3 0x461BCD PUSH1 0xE5 SHL DUP2 MSTORE PUSH1 0x4 ADD PUSH2 0x6ED SWAP1 PUSH2 0x21B8 JUMP JUMPDEST PUSH1 0x40 DUP1 MLOAD DUP1 DUP3 ADD SWAP1 SWAP2 MSTORE PUSH1 0x11 DUP2 MSTORE PUSH17 0x3AB83230BA32A932BBB0B9322A37B5B2B7 PUSH1 0x79 SHL PUSH1 0x20 DUP3 ADD MSTORE PUSH1 0x0 SLOAD PUSH1 0x1 PUSH1 0xA0 SHL SWAP1 DIV PUSH1 0xFF AND ISZERO DUP1 PUSH2 0x193F JUMPI POP PUSH1 0x1 DUP2 PUSH1 0x40 MLOAD PUSH2 0x18CA SWAP2 SWAP1 PUSH2 0x219C JUMP JUMPDEST SWAP1 DUP2 MSTORE PUSH1 0x20 ADD PUSH1 0x40 MLOAD DUP1 SWAP2 SUB SWAP1 KECCAK256 SLOAD PUSH1 0x0 EQ ISZERO DUP1 ISZERO PUSH2 0x1907 JUMPI POP TIMESTAMP PUSH1 0x1 DUP3 PUSH1 0x40 MLOAD PUSH2 0x18F5 SWAP2 SWAP1 PUSH2 0x219C JUMP JUMPDEST SWAP1 DUP2 MSTORE PUSH1 0x20 ADD PUSH1 0x40 MLOAD DUP1 SWAP2 SUB SWAP1 KECCAK256 SLOAD GT ISZERO JUMPDEST DUP1 ISZERO PUSH2 0x193F JUMPI POP TIMESTAMP PUSH3 0x15180 PUSH1 0x1 DUP4 PUSH1 0x40 MLOAD PUSH2 0x1923 SWAP2 SWAP1 PUSH2 0x219C JUMP JUMPDEST SWAP1 DUP2 MSTORE PUSH1 0x20 ADD PUSH1 0x40 MLOAD DUP1 SWAP2 SUB SWAP1 KECCAK256 SLOAD PUSH2 0x193C SWAP2 SWAP1 PUSH2 0x2334 JUMP JUMPDEST LT ISZERO JUMPDEST PUSH2 0x195B JUMPI PUSH1 0x40 MLOAD PUSH3 0x461BCD PUSH1 0xE5 SHL DUP2 MSTORE PUSH1 0x4 ADD PUSH2 0x6ED SWAP1 PUSH2 0x21ED JUMP JUMPDEST PUSH1 0x8 SLOAD PUSH1 0x1 PUSH1 0x1 PUSH1 0xA0 SHL SUB DUP4 DUP2 AND SWAP2 AND EQ ISZERO PUSH2 0x19DF JUMPI PUSH1 0x40 MLOAD PUSH3 0x461BCD PUSH1 0xE5 SHL DUP2 MSTORE PUSH1 0x20 PUSH1 0x4 DUP3 ADD MSTORE PUSH1 0x3F PUSH1 0x24 DUP3 ADD MSTORE PUSH32 0x41424F41543A757064617465526577617264546F6B656E3A20596F752063616E PUSH1 0x44 DUP3 ADD MSTORE PUSH32 0x277420757064617465207468652065786163742073616D6520746F6B656E7300 PUSH1 0x64 DUP3 ADD MSTORE PUSH1 0x84 ADD PUSH2 0x6ED JUMP JUMPDEST PUSH1 0x8 SLOAD PUSH1 0x40 MLOAD PUSH1 0x1 PUSH1 0x1 PUSH1 0xA0 SHL SUB DUP1 DUP6 AND SWAP3 AND SWAP1 PUSH32 0xCB89265F21B9FC8710E9D9E42BBB37AF1EB207454DECA6D5E36787BE2367C1D6 SWAP1 PUSH1 0x0 SWAP1 LOG3 PUSH1 0x8 DUP1 SLOAD PUSH1 0x1 PUSH1 0x1 PUSH1 0xA0 SHL SUB NOT AND PUSH1 0x1 PUSH1 0x1 PUSH1 0xA0 SHL SUB DUP5 AND OR SWAP1 SSTORE PUSH2 0x8D5 DUP2 PUSH2 0x1072 JUMP JUMPDEST PUSH1 0x40 DUP1 MLOAD PUSH1 0x1 PUSH1 0x1 PUSH1 0xA0 SHL SUB DUP5 DUP2 AND PUSH1 0x24 DUP4 ADD MSTORE PUSH1 0x44 DUP1 DUP4 ADD DUP6 SWAP1 MSTORE DUP4 MLOAD DUP1 DUP5 SUB SWAP1 SWAP2 ADD DUP2 MSTORE PUSH1 0x64 SWAP1 SWAP3 ADD DUP4 MSTORE PUSH1 0x20 DUP3 ADD DUP1 MLOAD PUSH1 0x1 PUSH1 0x1 PUSH1 0xE0 SHL SUB AND PUSH4 0xA9059CBB PUSH1 0xE0 SHL OR SWAP1 MSTORE SWAP2 MLOAD PUSH1 0x0 SWAP3 DUP4 SWAP3 SWAP1 DUP8 AND SWAP2 PUSH2 0x1A99 SWAP2 SWAP1 PUSH2 0x219C JUMP JUMPDEST PUSH1 0x0 PUSH1 0x40 MLOAD DUP1 DUP4 SUB DUP2 PUSH1 0x0 DUP7 GAS CALL SWAP2 POP POP RETURNDATASIZE DUP1 PUSH1 0x0 DUP2 EQ PUSH2 0x1AD6 JUMPI PUSH1 0x40 MLOAD SWAP2 POP PUSH1 0x1F NOT PUSH1 0x3F RETURNDATASIZE ADD AND DUP3 ADD PUSH1 0x40 MSTORE RETURNDATASIZE DUP3 MSTORE RETURNDATASIZE PUSH1 0x0 PUSH1 0x20 DUP5 ADD RETURNDATACOPY PUSH2 0x1ADB JUMP JUMPDEST PUSH1 0x60 SWAP2 POP JUMPDEST POP SWAP2 POP SWAP2 POP DUP2 DUP1 ISZERO PUSH2 0x1B05 JUMPI POP DUP1 MLOAD ISZERO DUP1 PUSH2 0x1B05 JUMPI POP DUP1 DUP1 PUSH1 0x20 ADD SWAP1 MLOAD DUP2 ADD SWAP1 PUSH2 0x1B05 SWAP2 SWAP1 PUSH2 0x2083 JUMP JUMPDEST PUSH2 0x1B67 JUMPI PUSH1 0x40 MLOAD PUSH3 0x461BCD PUSH1 0xE5 SHL DUP2 MSTORE PUSH1 0x20 PUSH1 0x4 DUP3 ADD MSTORE PUSH1 0x2D PUSH1 0x24 DUP3 ADD MSTORE PUSH32 0x5472616E7366657248656C7065723A3A736166655472616E736665723A207472 PUSH1 0x44 DUP3 ADD MSTORE PUSH13 0x185B9CD9995C8819985A5B1959 PUSH1 0x9A SHL PUSH1 0x64 DUP3 ADD MSTORE PUSH1 0x84 ADD PUSH2 0x6ED JUMP JUMPDEST POP POP POP POP POP JUMP JUMPDEST PUSH1 0x40 DUP1 MLOAD PUSH1 0x0 DUP1 DUP3 MSTORE PUSH1 0x20 DUP3 ADD SWAP1 SWAP3 MSTORE PUSH1 0x1 PUSH1 0x1 PUSH1 0xA0 SHL SUB DUP5 AND SWAP1 DUP4 SWAP1 PUSH1 0x40 MLOAD PUSH2 0x1B98 SWAP2 SWAP1 PUSH2 0x219C JUMP JUMPDEST PUSH1 0x0 PUSH1 0x40 MLOAD DUP1 DUP4 SUB DUP2 DUP6 DUP8 GAS CALL SWAP3 POP POP POP RETURNDATASIZE DUP1 PUSH1 0x0 DUP2 EQ PUSH2 0x1BD5 JUMPI PUSH1 0x40 MLOAD SWAP2 POP PUSH1 0x1F NOT PUSH1 0x3F RETURNDATASIZE ADD AND DUP3 ADD PUSH1 0x40 MSTORE RETURNDATASIZE DUP3 MSTORE RETURNDATASIZE PUSH1 0x0 PUSH1 0x20 DUP5 ADD RETURNDATACOPY PUSH2 0x1BDA JUMP JUMPDEST PUSH1 0x60 SWAP2 POP JUMPDEST POP POP SWAP1 POP DUP1 PUSH2 0xBC3 JUMPI PUSH1 0x40 MLOAD PUSH3 0x461BCD PUSH1 0xE5 SHL DUP2 MSTORE PUSH1 0x20 PUSH1 0x4 DUP3 ADD MSTORE PUSH1 0x34 PUSH1 0x24 DUP3 ADD MSTORE PUSH32 0x5472616E7366657248656C7065723A3A736166655472616E736665724554483A PUSH1 0x44 DUP3 ADD MSTORE PUSH20 0x8115512081D1C985B9CD9995C8819985A5B1959 PUSH1 0x62 SHL PUSH1 0x64 DUP3 ADD MSTORE PUSH1 0x84 ADD PUSH2 0x6ED JUMP JUMPDEST PUSH1 0x0 DUP1 SLOAD PUSH1 0x1 PUSH1 0x1 PUSH1 0xA0 SHL SUB DUP4 DUP2 AND PUSH1 0x1 PUSH1 0x1 PUSH1 0xA0 SHL SUB NOT DUP4 AND DUP2 OR DUP5 SSTORE PUSH1 0x40 MLOAD SWAP2 SWAP1 SWAP3 AND SWAP3 DUP4 SWAP2 PUSH32 0x8BE0079C531659141344CD1FD0A4F28419497F9722A3DAAFE3B4186F6B6457E0 SWAP2 SWAP1 LOG3 POP POP JUMP JUMPDEST PUSH1 0x40 DUP1 MLOAD PUSH1 0x2 DUP1 DUP3 MSTORE PUSH1 0x60 DUP3 ADD DUP4 MSTORE PUSH1 0x0 SWAP3 PUSH1 0x20 DUP4 ADD SWAP1 DUP1 CALLDATASIZE DUP4 CALLDATACOPY POP POP PUSH1 0x8 SLOAD DUP3 MLOAD SWAP3 SWAP4 POP PUSH1 0x1 PUSH1 0x1 PUSH1 0xA0 SHL SUB AND SWAP2 DUP4 SWAP2 POP PUSH1 0x0 SWAP1 PUSH2 0x1CD9 JUMPI PUSH2 0x1CD9 PUSH2 0x23E6 JUMP JUMPDEST PUSH1 0x1 PUSH1 0x1 PUSH1 0xA0 SHL SUB SWAP3 DUP4 AND PUSH1 0x20 SWAP2 DUP3 MUL SWAP3 SWAP1 SWAP3 ADD DUP2 ADD SWAP2 SWAP1 SWAP2 MSTORE PUSH1 0xB SLOAD PUSH1 0x40 DUP1 MLOAD PUSH4 0x15AB88C9 PUSH1 0xE3 SHL DUP2 MSTORE SWAP1 MLOAD SWAP2 SWAP1 SWAP4 AND SWAP3 PUSH4 0xAD5C4648 SWAP3 PUSH1 0x4 DUP1 DUP4 ADD SWAP4 SWAP2 SWAP3 DUP3 SWAP1 SUB ADD DUP2 DUP7 DUP1 EXTCODESIZE ISZERO DUP1 ISZERO PUSH2 0x1D2D JUMPI PUSH1 0x0 DUP1 REVERT JUMPDEST POP GAS STATICCALL ISZERO DUP1 ISZERO PUSH2 0x1D41 JUMPI RETURNDATASIZE PUSH1 0x0 DUP1 RETURNDATACOPY RETURNDATASIZE PUSH1 0x0 REVERT JUMPDEST POP POP POP POP PUSH1 0x40 MLOAD RETURNDATASIZE PUSH1 0x1F NOT PUSH1 0x1F DUP3 ADD AND DUP3 ADD DUP1 PUSH1 0x40 MSTORE POP DUP2 ADD SWAP1 PUSH2 0x1D65 SWAP2 SWAP1 PUSH2 0x1F95 JUMP JUMPDEST DUP2 PUSH1 0x1 DUP2 MLOAD DUP2 LT PUSH2 0x1D78 JUMPI PUSH2 0x1D78 PUSH2 0x23E6 JUMP JUMPDEST PUSH1 0x1 PUSH1 0x1 PUSH1 0xA0 SHL SUB SWAP3 DUP4 AND PUSH1 0x20 SWAP2 DUP3 MUL SWAP3 SWAP1 SWAP3 ADD ADD MSTORE PUSH1 0x8 SLOAD PUSH1 0xB SLOAD PUSH1 0x40 MLOAD PUSH4 0x95EA7B3 PUSH1 0xE0 SHL DUP2 MSTORE SWAP1 DUP4 AND PUSH1 0x4 DUP3 ADD MSTORE PUSH1 0x24 DUP2 ADD DUP6 SWAP1 MSTORE SWAP2 AND SWAP1 PUSH4 0x95EA7B3 SWAP1 PUSH1 0x44 ADD PUSH1 0x20 PUSH1 0x40 MLOAD DUP1 DUP4 SUB DUP2 PUSH1 0x0 DUP8 DUP1 EXTCODESIZE ISZERO DUP1 ISZERO PUSH2 0x1DD6 JUMPI PUSH1 0x0 DUP1 REVERT JUMPDEST POP GAS CALL ISZERO DUP1 ISZERO PUSH2 0x1DEA JUMPI RETURNDATASIZE PUSH1 0x0 DUP1 RETURNDATACOPY RETURNDATASIZE PUSH1 0x0 REVERT JUMPDEST POP POP POP POP PUSH1 0x40 MLOAD RETURNDATASIZE PUSH1 0x1F NOT PUSH1 0x1F DUP3 ADD AND DUP3 ADD DUP1 PUSH1 0x40 MSTORE POP DUP2 ADD SWAP1 PUSH2 0x1E0E SWAP2 SWAP1 PUSH2 0x2083 JUMP JUMPDEST POP PUSH1 0xB SLOAD PUSH1 0x40 MLOAD PUSH4 0x791AC947 PUSH1 0xE0 SHL DUP2 MSTORE PUSH1 0x1 PUSH1 0x1 PUSH1 0xA0 SHL SUB SWAP1 SWAP2 AND SWAP1 PUSH4 0x791AC947 SWAP1 PUSH2 0x1E48 SWAP1 DUP6 SWAP1 PUSH1 0x0 SWAP1 DUP7 SWAP1 ADDRESS SWAP1 TIMESTAMP SWAP1 PUSH1 0x4 ADD PUSH2 0x226E JUMP JUMPDEST PUSH1 0x0 PUSH1 0x40 MLOAD DUP1 DUP4 SUB DUP2 PUSH1 0x0 DUP8 DUP1 EXTCODESIZE ISZERO DUP1 ISZERO PUSH2 0x1E62 JUMPI PUSH1 0x0 DUP1 REVERT JUMPDEST POP GAS CALL ISZERO DUP1 ISZERO PUSH2 0x1E76 JUMPI RETURNDATASIZE PUSH1 0x0 DUP1 RETURNDATACOPY RETURNDATASIZE PUSH1 0x0 REVERT JUMPDEST POP POP POP POP POP POP JUMP JUMPDEST PUSH1 0x0 PUSH2 0x1E8A DUP3 DUP5 PUSH2 0x236E JUMP JUMPDEST SWAP4 SWAP3 POP POP POP JUMP JUMPDEST PUSH1 0x0 PUSH2 0x1E8A DUP3 DUP5 PUSH2 0x234C JUMP JUMPDEST PUSH1 0x0 DUP3 PUSH1 0x1F DUP4 ADD SLT PUSH2 0x1EAE JUMPI PUSH1 0x0 DUP1 REVERT JUMPDEST DUP2 CALLDATALOAD PUSH1 0x20 PUSH2 0x1EC3 PUSH2 0x1EBE DUP4 PUSH2 0x2310 JUMP JUMPDEST PUSH2 0x22DF JUMP JUMPDEST DUP1 DUP4 DUP3 MSTORE DUP3 DUP3 ADD SWAP2 POP DUP3 DUP7 ADD DUP8 DUP5 DUP7 PUSH1 0x5 SHL DUP10 ADD ADD GT ISZERO PUSH2 0x1EE3 JUMPI PUSH1 0x0 DUP1 REVERT JUMPDEST PUSH1 0x0 JUMPDEST DUP6 DUP2 LT ISZERO PUSH2 0x1F0B JUMPI DUP2 CALLDATALOAD PUSH2 0x1EF9 DUP2 PUSH2 0x2412 JUMP JUMPDEST DUP5 MSTORE SWAP3 DUP5 ADD SWAP3 SWAP1 DUP5 ADD SWAP1 PUSH1 0x1 ADD PUSH2 0x1EE6 JUMP JUMPDEST POP SWAP1 SWAP8 SWAP7 POP POP POP POP POP POP POP JUMP JUMPDEST PUSH1 0x0 DUP3 PUSH1 0x1F DUP4 ADD SLT PUSH2 0x1F29 JUMPI PUSH1 0x0 DUP1 REVERT JUMPDEST DUP2 CALLDATALOAD PUSH1 0x20 PUSH2 0x1F39 PUSH2 0x1EBE DUP4 PUSH2 0x2310 JUMP JUMPDEST DUP1 DUP4 DUP3 MSTORE DUP3 DUP3 ADD SWAP2 POP DUP3 DUP7 ADD DUP8 DUP5 DUP7 PUSH1 0x5 SHL DUP10 ADD ADD GT ISZERO PUSH2 0x1F59 JUMPI PUSH1 0x0 DUP1 REVERT JUMPDEST PUSH1 0x0 JUMPDEST DUP6 DUP2 LT ISZERO PUSH2 0x1F0B JUMPI DUP2 CALLDATALOAD DUP5 MSTORE SWAP3 DUP5 ADD SWAP3 SWAP1 DUP5 ADD SWAP1 PUSH1 0x1 ADD PUSH2 0x1F5C JUMP JUMPDEST PUSH1 0x0 PUSH1 0x20 DUP3 DUP5 SUB SLT ISZERO PUSH2 0x1F8A JUMPI PUSH1 0x0 DUP1 REVERT JUMPDEST DUP2 CALLDATALOAD PUSH2 0x1E8A DUP2 PUSH2 0x2412 JUMP JUMPDEST PUSH1 0x0 PUSH1 0x20 DUP3 DUP5 SUB SLT ISZERO PUSH2 0x1FA7 JUMPI PUSH1 0x0 DUP1 REVERT JUMPDEST DUP2 MLOAD PUSH2 0x1E8A DUP2 PUSH2 0x2412 JUMP JUMPDEST PUSH1 0x0 DUP1 PUSH1 0x40 DUP4 DUP6 SUB SLT ISZERO PUSH2 0x1FC5 JUMPI PUSH1 0x0 DUP1 REVERT JUMPDEST DUP3 CALLDATALOAD PUSH8 0xFFFFFFFFFFFFFFFF DUP1 DUP3 GT ISZERO PUSH2 0x1FDD JUMPI PUSH1 0x0 DUP1 REVERT JUMPDEST PUSH2 0x1FE9 DUP7 DUP4 DUP8 ADD PUSH2 0x1F18 JUMP JUMPDEST SWAP4 POP PUSH1 0x20 DUP6 ADD CALLDATALOAD SWAP2 POP DUP1 DUP3 GT ISZERO PUSH2 0x1FFF JUMPI PUSH1 0x0 DUP1 REVERT JUMPDEST POP PUSH2 0x200C DUP6 DUP3 DUP7 ADD PUSH2 0x1E9D JUMP JUMPDEST SWAP2 POP POP SWAP3 POP SWAP3 SWAP1 POP JUMP JUMPDEST PUSH1 0x0 DUP1 PUSH1 0x0 PUSH1 0x60 DUP5 DUP7 SUB SLT ISZERO PUSH2 0x202B JUMPI PUSH1 0x0 DUP1 REVERT JUMPDEST DUP4 CALLDATALOAD PUSH8 0xFFFFFFFFFFFFFFFF DUP1 DUP3 GT ISZERO PUSH2 0x2043 JUMPI PUSH1 0x0 DUP1 REVERT JUMPDEST PUSH2 0x204F DUP8 DUP4 DUP9 ADD PUSH2 0x1F18 JUMP JUMPDEST SWAP5 POP PUSH1 0x20 DUP7 ADD CALLDATALOAD SWAP2 POP DUP1 DUP3 GT ISZERO PUSH2 0x2065 JUMPI PUSH1 0x0 DUP1 REVERT JUMPDEST POP PUSH2 0x2072 DUP7 DUP3 DUP8 ADD PUSH2 0x1E9D JUMP JUMPDEST SWAP3 POP POP PUSH1 0x40 DUP5 ADD CALLDATALOAD SWAP1 POP SWAP3 POP SWAP3 POP SWAP3 JUMP JUMPDEST PUSH1 0x0 PUSH1 0x20 DUP3 DUP5 SUB SLT ISZERO PUSH2 0x2095 JUMPI PUSH1 0x0 DUP1 REVERT JUMPDEST DUP2 MLOAD DUP1 ISZERO ISZERO DUP2 EQ PUSH2 0x1E8A JUMPI PUSH1 0x0 DUP1 REVERT JUMPDEST PUSH1 0x0 PUSH1 0x20 DUP1 DUP4 DUP6 SUB SLT ISZERO PUSH2 0x20B8 JUMPI PUSH1 0x0 DUP1 REVERT JUMPDEST DUP3 CALLDATALOAD PUSH8 0xFFFFFFFFFFFFFFFF DUP1 DUP3 GT ISZERO PUSH2 0x20D0 JUMPI PUSH1 0x0 DUP1 REVERT JUMPDEST DUP2 DUP6 ADD SWAP2 POP DUP6 PUSH1 0x1F DUP4 ADD SLT PUSH2 0x20E4 JUMPI PUSH1 0x0 DUP1 REVERT JUMPDEST DUP2 CALLDATALOAD DUP2 DUP2 GT ISZERO PUSH2 0x20F6 JUMPI PUSH2 0x20F6 PUSH2 0x23FC JUMP JUMPDEST PUSH2 0x2108 PUSH1 0x1F DUP3 ADD PUSH1 0x1F NOT AND DUP6 ADD PUSH2 0x22DF JUMP JUMPDEST SWAP2 POP DUP1 DUP3 MSTORE DUP7 DUP5 DUP3 DUP6 ADD ADD GT ISZERO PUSH2 0x211E JUMPI PUSH1 0x0 DUP1 REVERT JUMPDEST DUP1 DUP5 DUP5 ADD DUP6 DUP5 ADD CALLDATACOPY PUSH1 0x0 SWAP1 DUP3 ADD SWAP1 SWAP4 ADD SWAP3 SWAP1 SWAP3 MSTORE POP SWAP4 SWAP3 POP POP POP JUMP JUMPDEST PUSH1 0x0 PUSH1 0x20 DUP3 DUP5 SUB SLT ISZERO PUSH2 0x214C JUMPI PUSH1 0x0 DUP1 REVERT JUMPDEST POP CALLDATALOAD SWAP2 SWAP1 POP JUMP JUMPDEST PUSH1 0x0 PUSH1 0x20 DUP3 DUP5 SUB SLT ISZERO PUSH2 0x2165 JUMPI PUSH1 0x0 DUP1 REVERT JUMPDEST POP MLOAD SWAP2 SWAP1 POP JUMP JUMPDEST PUSH1 0x0 DUP1 PUSH1 0x40 DUP4 DUP6 SUB SLT ISZERO PUSH2 0x217F JUMPI PUSH1 0x0 DUP1 REVERT JUMPDEST DUP3 CALLDATALOAD SWAP2 POP PUSH1 0x20 DUP4 ADD CALLDATALOAD PUSH2 0x2191 DUP2 PUSH2 0x2412 JUMP JUMPDEST DUP1 SWAP2 POP POP SWAP3 POP SWAP3 SWAP1 POP JUMP JUMPDEST PUSH1 0x0 DUP3 MLOAD PUSH2 0x21AE DUP2 DUP5 PUSH1 0x20 DUP8 ADD PUSH2 0x2385 JUMP JUMPDEST SWAP2 SWAP1 SWAP2 ADD SWAP3 SWAP2 POP POP JUMP JUMPDEST PUSH1 0x20 DUP1 DUP3 MSTORE DUP2 DUP2 ADD MSTORE PUSH32 0x4F776E61626C653A2063616C6C6572206973206E6F7420746865206F776E6572 PUSH1 0x40 DUP3 ADD MSTORE PUSH1 0x60 ADD SWAP1 JUMP JUMPDEST PUSH1 0x20 DUP1 DUP3 MSTORE PUSH1 0x12 SWAP1 DUP3 ADD MSTORE PUSH18 0x119D5B98DD1A5BDB881A5CC81B1BD8DAD959 PUSH1 0x72 SHL PUSH1 0x40 DUP3 ADD MSTORE PUSH1 0x60 ADD SWAP1 JUMP JUMPDEST PUSH1 0x20 DUP1 DUP3 MSTORE PUSH1 0x35 SWAP1 DUP3 ADD MSTORE PUSH32 0x6F70657261746F723A2063616C6C6572206973206E6F7420616C6C6F77656420 PUSH1 0x40 DUP3 ADD MSTORE PUSH21 0x3A379031B0B636103A3434B990333AB731BA34B7B7 PUSH1 0x59 SHL PUSH1 0x60 DUP3 ADD MSTORE PUSH1 0x80 ADD SWAP1 JUMP JUMPDEST PUSH1 0x0 PUSH1 0xA0 DUP3 ADD DUP8 DUP4 MSTORE PUSH1 0x20 DUP8 DUP2 DUP6 ADD MSTORE PUSH1 0xA0 PUSH1 0x40 DUP6 ADD MSTORE DUP2 DUP8 MLOAD DUP1 DUP5 MSTORE PUSH1 0xC0 DUP7 ADD SWAP2 POP DUP3 DUP10 ADD SWAP4 POP PUSH1 0x0 JUMPDEST DUP2 DUP2 LT ISZERO PUSH2 0x22BE JUMPI DUP5 MLOAD PUSH1 0x1 PUSH1 0x1 PUSH1 0xA0 SHL SUB AND DUP4 MSTORE SWAP4 DUP4 ADD SWAP4 SWAP2 DUP4 ADD SWAP2 PUSH1 0x1 ADD PUSH2 0x2299 JUMP JUMPDEST POP POP PUSH1 0x1 PUSH1 0x1 PUSH1 0xA0 SHL SUB SWAP7 SWAP1 SWAP7 AND PUSH1 0x60 DUP6 ADD MSTORE POP POP POP PUSH1 0x80 ADD MSTORE SWAP4 SWAP3 POP POP POP JUMP JUMPDEST PUSH1 0x40 MLOAD PUSH1 0x1F DUP3 ADD PUSH1 0x1F NOT AND DUP2 ADD PUSH8 0xFFFFFFFFFFFFFFFF DUP2 GT DUP3 DUP3 LT OR ISZERO PUSH2 0x2308 JUMPI PUSH2 0x2308 PUSH2 0x23FC JUMP JUMPDEST PUSH1 0x40 MSTORE SWAP2 SWAP1 POP JUMP JUMPDEST PUSH1 0x0 PUSH8 0xFFFFFFFFFFFFFFFF DUP3 GT ISZERO PUSH2 0x232A JUMPI PUSH2 0x232A PUSH2 0x23FC JUMP JUMPDEST POP PUSH1 0x5 SHL PUSH1 0x20 ADD SWAP1 JUMP JUMPDEST PUSH1 0x0 DUP3 NOT DUP3 GT ISZERO PUSH2 0x2347 JUMPI PUSH2 0x2347 PUSH2 0x23D0 JUMP JUMPDEST POP ADD SWAP1 JUMP JUMPDEST PUSH1 0x0 DUP3 PUSH2 0x2369 JUMPI PUSH4 0x4E487B71 PUSH1 0xE0 SHL PUSH1 0x0 MSTORE PUSH1 0x12 PUSH1 0x4 MSTORE PUSH1 0x24 PUSH1 0x0 REVERT JUMPDEST POP DIV SWAP1 JUMP JUMPDEST PUSH1 0x0 DUP3 DUP3 LT ISZERO PUSH2 0x2380 JUMPI PUSH2 0x2380 PUSH2 0x23D0 JUMP JUMPDEST POP SUB SWAP1 JUMP JUMPDEST PUSH1 0x0 JUMPDEST DUP4 DUP2 LT ISZERO PUSH2 0x23A0 JUMPI DUP2 DUP2 ADD MLOAD DUP4 DUP3 ADD MSTORE PUSH1 0x20 ADD PUSH2 0x2388 JUMP JUMPDEST DUP4 DUP2 GT ISZERO PUSH2 0x23AF JUMPI PUSH1 0x0 DUP5 DUP5 ADD MSTORE JUMPDEST POP POP POP POP JUMP JUMPDEST PUSH1 0x0 PUSH1 0x0 NOT DUP3 EQ ISZERO PUSH2 0x23C9 JUMPI PUSH2 0x23C9 PUSH2 0x23D0 JUMP JUMPDEST POP PUSH1 0x1 ADD SWAP1 JUMP JUMPDEST PUSH4 0x4E487B71 PUSH1 0xE0 SHL PUSH1 0x0 MSTORE PUSH1 0x11 PUSH1 0x4 MSTORE PUSH1 0x24 PUSH1 0x0 REVERT JUMPDEST PUSH4 0x4E487B71 PUSH1 0xE0 SHL PUSH1 0x0 MSTORE PUSH1 0x32 PUSH1 0x4 MSTORE PUSH1 0x24 PUSH1 0x0 REVERT JUMPDEST PUSH4 0x4E487B71 PUSH1 0xE0 SHL PUSH1 0x0 MSTORE PUSH1 0x41 PUSH1 0x4 MSTORE PUSH1 0x24 PUSH1 0x0 REVERT JUMPDEST PUSH1 0x1 PUSH1 0x1 PUSH1 0xA0 SHL SUB DUP2 AND DUP2 EQ PUSH2 0x17C7 JUMPI PUSH1 0x0 DUP1 REVERT INVALID LOG2 PUSH5 0x6970667358 0x22 SLT KECCAK256 LOG3 SWAP8 0xB5 0xC6 STOP 0xB8 0xD9 0xEA JUMPI PUSH10 0xFE01FD5287A8C02E190 SGT LOG2 0xBC 0xD PUSH30 0xAB81869F64C09564736F6C634300080700334F776E61626C653A2063616C PUSH13 0x6572206973206E6F7420746865 KECCAK256 PUSH16 0x776E6572000000000000000000000000 "
				},
				"gasEstimates": {
					"creation": {
						"codeDepositCost": "1861800",
						"executionCost": "infinite",
						"totalCost": "infinite"
					},
					"external": {
						"_claimTimes(address)": "2590",
						"_devWallet()": "2406",
						"_gasCost()": "2329",
						"_maxAmountPerReceive()": "2396",
						"_oracleWallet()": "2427",
						"_rewardToken()": "2404",
						"_rewards(address)": "2637",
						"_router()": "2448",
						"_timeBetweenClaims()": "2331",
						"adjustGasCost(uint256)": "infinite",
						"adjustMaxAmountPerReceive(uint256)": "infinite",
						"canClaim(address)": "7092",
						"canClaimNative(address)": "4816",
						"changeOracleWallet(address)": "infinite",
						"claim()": "infinite",
						"emergencyWithdraw()": "infinite",
						"getBalance()": "infinite",
						"getEthBalance()": "251",
						"isLockEnabled()": "2439",
						"lockFunction(string)": "infinite",
						"maintainer()": "2377",
						"owner()": "2442",
						"renounceOwnership()": "28204",
						"sendRewardAndAdjustGasCost(uint256[],address[],uint256)": "infinite",
						"sendRewards(uint256[],address[])": "infinite",
						"sendRewardsAsEth(uint256,address)": "infinite",
						"setMaintainer(address)": "infinite",
						"setRouter(address)": "26816",
						"setTimelockEnabled()": "29529",
						"timelock(string)": "infinite",
						"transferOwnership(address)": "infinite",
						"unlockFunction(string)": "infinite",
						"updateRewardToken(address)": "infinite"
					},
					"internal": {
						"swapTokensForEth(uint256)": "infinite"
					}
				},
				"methodIdentifiers": {
					"_claimTimes(address)": "f7e77bc2",
					"_devWallet()": "11a63e17",
					"_gasCost()": "7ef189f8",
					"_maxAmountPerReceive()": "5dd53826",
					"_oracleWallet()": "a221a15f",
					"_rewardToken()": "b59c6e0e",
					"_rewards(address)": "7d6dfb7e",
					"_router()": "edae876f",
					"_timeBetweenClaims()": "0126ffb9",
					"adjustGasCost(uint256)": "87df241f",
					"adjustMaxAmountPerReceive(uint256)": "de996a6e",
					"canClaim(address)": "bf3506c1",
					"canClaimNative(address)": "864e49a7",
					"changeOracleWallet(address)": "63cd79b7",
					"claim()": "4e71d92d",
					"emergencyWithdraw()": "db2e21bc",
					"getBalance()": "12065fe0",
					"getEthBalance()": "70ed0ada",
					"isLockEnabled()": "a347511a",
					"lockFunction(string)": "9f531156",
					"maintainer()": "9850d32b",
					"owner()": "8da5cb5b",
					"renounceOwnership()": "715018a6",
					"sendRewardAndAdjustGasCost(uint256[],address[],uint256)": "4a938f00",
					"sendRewards(uint256[],address[])": "478a55eb",
					"sendRewardsAsEth(uint256,address)": "d6e0ece2",
					"setMaintainer(address)": "13ea5d29",
					"setRouter(address)": "c0d78655",
					"setTimelockEnabled()": "f4762fd6",
					"timelock(string)": "f98080c0",
					"transferOwnership(address)": "f2fde38b",
					"unlockFunction(string)": "a607494a",
					"updateRewardToken(address)": "f8cf31cb"
				}
			},
			"storageLayout": {
				"storage": [
					{
						"astId": 7,
						"contract": "contracts/chains/polygon/RewardSystem.sol:RewardSystem",
						"label": "_owner",
						"offset": 0,
						"slot": "0",
						"type": "t_address"
					},
					{
						"astId": 2438,
						"contract": "contracts/chains/polygon/RewardSystem.sol:RewardSystem",
						"label": "isLockEnabled",
						"offset": 20,
						"slot": "0",
						"type": "t_bool"
					},
					{
						"astId": 2442,
						"contract": "contracts/chains/polygon/RewardSystem.sol:RewardSystem",
						"label": "timelock",
						"offset": 0,
						"slot": "1",
						"type": "t_mapping(t_string_memory_ptr,t_uint256)"
					},
					{
						"astId": 2447,
						"contract": "contracts/chains/polygon/RewardSystem.sol:RewardSystem",
						"label": "_maintainer",
						"offset": 0,
						"slot": "2",
						"type": "t_address"
					},
					{
						"astId": 1800,
						"contract": "contracts/chains/polygon/RewardSystem.sol:RewardSystem",
						"label": "_rewards",
						"offset": 0,
						"slot": "3",
						"type": "t_mapping(t_address,t_bool)"
					},
					{
						"astId": 1804,
						"contract": "contracts/chains/polygon/RewardSystem.sol:RewardSystem",
						"label": "_claimTimes",
						"offset": 0,
						"slot": "4",
						"type": "t_mapping(t_address,t_uint256)"
					},
					{
						"astId": 1807,
						"contract": "contracts/chains/polygon/RewardSystem.sol:RewardSystem",
						"label": "_gasCost",
						"offset": 0,
						"slot": "5",
						"type": "t_uint256"
					},
					{
						"astId": 1810,
						"contract": "contracts/chains/polygon/RewardSystem.sol:RewardSystem",
						"label": "_oracleWallet",
						"offset": 0,
						"slot": "6",
						"type": "t_address"
					},
					{
						"astId": 1813,
						"contract": "contracts/chains/polygon/RewardSystem.sol:RewardSystem",
						"label": "_devWallet",
						"offset": 0,
						"slot": "7",
						"type": "t_address"
					},
					{
						"astId": 1816,
						"contract": "contracts/chains/polygon/RewardSystem.sol:RewardSystem",
						"label": "_rewardToken",
						"offset": 0,
						"slot": "8",
						"type": "t_contract(IERC20)727"
					},
					{
						"astId": 1819,
						"contract": "contracts/chains/polygon/RewardSystem.sol:RewardSystem",
						"label": "_maxAmountPerReceive",
						"offset": 0,
						"slot": "9",
						"type": "t_uint256"
					},
					{
						"astId": 1822,
						"contract": "contracts/chains/polygon/RewardSystem.sol:RewardSystem",
						"label": "_timeBetweenClaims",
						"offset": 0,
						"slot": "10",
						"type": "t_uint256"
					},
					{
						"astId": 1828,
						"contract": "contracts/chains/polygon/RewardSystem.sol:RewardSystem",
						"label": "_router",
						"offset": 0,
						"slot": "11",
						"type": "t_contract(IUniswapV2Router02)1777"
					}
				],
				"types": {
					"t_address": {
						"encoding": "inplace",
						"label": "address",
						"numberOfBytes": "20"
					},
					"t_bool": {
						"encoding": "inplace",
						"label": "bool",
						"numberOfBytes": "1"
					},
					"t_contract(IERC20)727": {
						"encoding": "inplace",
						"label": "contract IERC20",
						"numberOfBytes": "20"
					},
					"t_contract(IUniswapV2Router02)1777": {
						"encoding": "inplace",
						"label": "contract IUniswapV2Router02",
						"numberOfBytes": "20"
					},
					"t_mapping(t_address,t_bool)": {
						"encoding": "mapping",
						"key": "t_address",
						"label": "mapping(address => bool)",
						"numberOfBytes": "32",
						"value": "t_bool"
					},
					"t_mapping(t_address,t_uint256)": {
						"encoding": "mapping",
						"key": "t_address",
						"label": "mapping(address => uint256)",
						"numberOfBytes": "32",
						"value": "t_uint256"
					},
					"t_mapping(t_string_memory_ptr,t_uint256)": {
						"encoding": "mapping",
						"key": "t_string_memory_ptr",
						"label": "mapping(string => uint256)",
						"numberOfBytes": "32",
						"value": "t_uint256"
					},
					"t_string_memory_ptr": {
						"encoding": "bytes",
						"label": "string",
						"numberOfBytes": "32"
					},
					"t_uint256": {
						"encoding": "inplace",
						"label": "uint256",
						"numberOfBytes": "32"
					}
				}
			},
			"userdoc": {
				"kind": "user",
				"methods": {},
				"version": 1
			}
		}
	}
}