{
	"contracts/PreSale.sol": {
		"PreSale": {
			"abi": [
				{
					"inputs": [
						{
							"internalType": "contract IERC20",
							"name": "_rewardToken",
							"type": "address"
						},
						{
							"internalType": "contract IERC20",
							"name": "_paymentToken",
							"type": "address"
						},
						{
							"internalType": "uint256",
							"name": "_price",
							"type": "uint256"
						}
					],
					"stateMutability": "nonpayable",
					"type": "constructor"
				},
				{
					"anonymous": false,
					"inputs": [
						{
							"indexed": true,
							"internalType": "uint256",
							"name": "amount",
							"type": "uint256"
						}
					],
					"name": "AddedToWhitelist",
					"type": "event"
				},
				{
					"anonymous": false,
					"inputs": [
						{
							"indexed": true,
							"internalType": "uint256",
							"name": "amount",
							"type": "uint256"
						}
					],
					"name": "AddedToWhitelistFromSaft",
					"type": "event"
				},
				{
					"anonymous": false,
					"inputs": [
						{
							"indexed": true,
							"internalType": "address",
							"name": "buyer",
							"type": "address"
						},
						{
							"indexed": true,
							"internalType": "uint256",
							"name": "amount",
							"type": "uint256"
						}
					],
					"name": "Bought",
					"type": "event"
				},
				{
					"anonymous": false,
					"inputs": [
						{
							"indexed": true,
							"internalType": "address",
							"name": "newToken",
							"type": "address"
						}
					],
					"name": "ChangeRewardToken",
					"type": "event"
				},
				{
					"anonymous": false,
					"inputs": [
						{
							"indexed": true,
							"internalType": "address",
							"name": "owner",
							"type": "address"
						},
						{
							"indexed": true,
							"internalType": "uint256",
							"name": "amount",
							"type": "uint256"
						}
					],
					"name": "Claimed",
					"type": "event"
				},
				{
					"anonymous": false,
					"inputs": [
						{
							"indexed": true,
							"internalType": "address",
							"name": "owner",
							"type": "address"
						},
						{
							"indexed": true,
							"internalType": "uint256",
							"name": "amount",
							"type": "uint256"
						}
					],
					"name": "DepositedInVestingPool",
					"type": "event"
				},
				{
					"anonymous": false,
					"inputs": [
						{
							"indexed": true,
							"internalType": "address",
							"name": "previousOwner",
							"type": "address"
						},
						{
							"indexed": true,
							"internalType": "address",
							"name": "newOwner",
							"type": "address"
						}
					],
					"name": "OwnershipTransferred",
					"type": "event"
				},
				{
					"anonymous": false,
					"inputs": [
						{
							"indexed": true,
							"internalType": "uint256",
							"name": "claimDate",
							"type": "uint256"
						}
					],
					"name": "SaleEnded",
					"type": "event"
				},
				{
					"inputs": [
						{
							"internalType": "address",
							"name": "",
							"type": "address"
						}
					],
					"name": "bought",
					"outputs": [
						{
							"internalType": "uint256",
							"name": "",
							"type": "uint256"
						}
					],
					"stateMutability": "view",
					"type": "function"
				},
				{
					"inputs": [
						{
							"internalType": "uint256",
							"name": "amount",
							"type": "uint256"
						}
					],
					"name": "buy",
					"outputs": [],
					"stateMutability": "payable",
					"type": "function"
				},
				{
					"inputs": [
						{
							"internalType": "address",
							"name": "",
							"type": "address"
						}
					],
					"name": "claimed",
					"outputs": [
						{
							"internalType": "uint256",
							"name": "",
							"type": "uint256"
						}
					],
					"stateMutability": "view",
					"type": "function"
				},
				{
					"inputs": [
						{
							"internalType": "address",
							"name": "",
							"type": "address"
						}
					],
					"name": "claimedTokens",
					"outputs": [
						{
							"internalType": "uint256",
							"name": "",
							"type": "uint256"
						}
					],
					"stateMutability": "view",
					"type": "function"
				},
				{
					"inputs": [],
					"name": "getRemainingBalance",
					"outputs": [
						{
							"internalType": "uint256",
							"name": "",
							"type": "uint256"
						}
					],
					"stateMutability": "view",
					"type": "function"
				},
				{
					"inputs": [
						{
							"internalType": "address",
							"name": "",
							"type": "address"
						}
					],
					"name": "lastClaimAddress",
					"outputs": [
						{
							"internalType": "address",
							"name": "",
							"type": "address"
						}
					],
					"stateMutability": "view",
					"type": "function"
				},
				{
					"inputs": [],
					"name": "owner",
					"outputs": [
						{
							"internalType": "address",
							"name": "",
							"type": "address"
						}
					],
					"stateMutability": "view",
					"type": "function"
				},
				{
					"inputs": [],
					"name": "paymentToken",
					"outputs": [
						{
							"internalType": "contract IERC20",
							"name": "",
							"type": "address"
						}
					],
					"stateMutability": "view",
					"type": "function"
				},
				{
					"inputs": [],
					"name": "pricePerToken",
					"outputs": [
						{
							"internalType": "uint256",
							"name": "",
							"type": "uint256"
						}
					],
					"stateMutability": "view",
					"type": "function"
				},
				{
					"inputs": [],
					"name": "renounceOwnership",
					"outputs": [],
					"stateMutability": "nonpayable",
					"type": "function"
				},
				{
					"inputs": [],
					"name": "rewardToken",
					"outputs": [
						{
							"internalType": "contract IERC20",
							"name": "",
							"type": "address"
						}
					],
					"stateMutability": "view",
					"type": "function"
				},
				{
					"inputs": [
						{
							"internalType": "address",
							"name": "newOwner",
							"type": "address"
						}
					],
					"name": "transferOwnership",
					"outputs": [],
					"stateMutability": "nonpayable",
					"type": "function"
				},
				{
					"inputs": [],
					"name": "transferTokenM",
					"outputs": [
						{
							"internalType": "uint256",
							"name": "",
							"type": "uint256"
						}
					],
					"stateMutability": "view",
					"type": "function"
				}
			],
			"devdoc": {
				"kind": "dev",
				"methods": {
					"owner()": {
						"details": "Returns the address of the current owner."
					},
					"renounceOwnership()": {
						"details": "Leaves the contract without owner. It will not be possible to call `onlyOwner` functions anymore. Can only be called by the current owner. NOTE: Renouncing ownership will leave the contract without an owner, thereby removing any functionality that is only available to the owner."
					},
					"transferOwnership(address)": {
						"details": "Transfers ownership of the contract to a new account (`newOwner`). Can only be called by the current owner."
					}
				},
				"version": 1
			},
			"evm": {
				"assembly": "    /* \"contracts/PreSale.sol\":434:4593  contract PreSale is Ownable {... */\n  mstore(0x40, 0x80)\n    /* \"contracts/PreSale.sol\":2160:2423  constructor(IERC20 _rewardToken, IERC20 _paymentToken, uint256 _price) {... */\n  callvalue\n  dup1\n  iszero\n  tag_1\n  jumpi\n  0x00\n  dup1\n  revert\ntag_1:\n  pop\n  mload(0x40)\n  sub(codesize, bytecodeSize)\n  dup1\n  bytecodeSize\n  dup4\n  codecopy\n  dup2\n  dup2\n  add\n  0x40\n  mstore\n  dup2\n  add\n  swap1\n  tag_2\n  swap2\n  swap1\n  tag_3\n  jump\t// in\ntag_2:\n    /* \"@openzeppelin/contracts/access/Ownable.sol\":867:890  _setOwner(_msgSender()) */\n  tag_7\n    /* \"@openzeppelin/contracts/access/Ownable.sol\":877:889  _msgSender() */\n  tag_8\n    /* \"@openzeppelin/contracts/access/Ownable.sol\":877:887  _msgSender */\n  shl(0x20, tag_9)\n    /* \"@openzeppelin/contracts/access/Ownable.sol\":877:889  _msgSender() */\n  0x20\n  shr\n  jump\t// in\ntag_8:\n    /* \"@openzeppelin/contracts/access/Ownable.sol\":867:876  _setOwner */\n  shl(0x20, tag_10)\n    /* \"@openzeppelin/contracts/access/Ownable.sol\":867:890  _setOwner(_msgSender()) */\n  0x20\n  shr\n  jump\t// in\ntag_7:\n    /* \"contracts/PreSale.sol\":2258:2259  0 */\n  0x00\n    /* \"contracts/PreSale.sol\":2249:2255  _price */\n  dup2\n    /* \"contracts/PreSale.sol\":2249:2259  _price > 0 */\n  gt\n    /* \"contracts/PreSale.sol\":2241:2310  require(_price > 0, \"ABOAT::error: Price has to be higher than zero\") */\n  tag_12\n  jumpi\n  mload(0x40)\n  0x08c379a000000000000000000000000000000000000000000000000000000000\n  dup2\n  mstore\n  0x04\n  add\n  tag_13\n  swap1\n  tag_14\n  jump\t// in\ntag_13:\n  mload(0x40)\n  dup1\n  swap2\n  sub\n  swap1\n  revert\ntag_12:\n    /* \"contracts/PreSale.sol\":2334:2346  _rewardToken */\n  dup3\n    /* \"contracts/PreSale.sol\":2320:2331  rewardToken */\n  0x01\n  0x00\n    /* \"contracts/PreSale.sol\":2320:2346  rewardToken = _rewardToken */\n  0x0100\n  exp\n  dup2\n  sload\n  dup2\n  0xffffffffffffffffffffffffffffffffffffffff\n  mul\n  not\n  and\n  swap1\n  dup4\n  0xffffffffffffffffffffffffffffffffffffffff\n  and\n  mul\n  or\n  swap1\n  sstore\n  pop\n    /* \"contracts/PreSale.sol\":2371:2384  _paymentToken */\n  dup2\n    /* \"contracts/PreSale.sol\":2356:2368  paymentToken */\n  0x02\n  0x00\n    /* \"contracts/PreSale.sol\":2356:2384  paymentToken = _paymentToken */\n  0x0100\n  exp\n  dup2\n  sload\n  dup2\n  0xffffffffffffffffffffffffffffffffffffffff\n  mul\n  not\n  and\n  swap1\n  dup4\n  0xffffffffffffffffffffffffffffffffffffffff\n  and\n  mul\n  or\n  swap1\n  sstore\n  pop\n    /* \"contracts/PreSale.sol\":2410:2416  _price */\n  dup1\n    /* \"contracts/PreSale.sol\":2394:2407  pricePerToken */\n  0x03\n    /* \"contracts/PreSale.sol\":2394:2416  pricePerToken = _price */\n  dup2\n  swap1\n  sstore\n  pop\n    /* \"contracts/PreSale.sol\":2160:2423  constructor(IERC20 _rewardToken, IERC20 _paymentToken, uint256 _price) {... */\n  pop\n  pop\n  pop\n    /* \"contracts/PreSale.sol\":434:4593  contract PreSale is Ownable {... */\n  jump(tag_15)\n    /* \"@openzeppelin/contracts/utils/Context.sol\":586:682  function _msgSender() internal view virtual returns (address) {... */\ntag_9:\n    /* \"@openzeppelin/contracts/utils/Context.sol\":639:646  address */\n  0x00\n    /* \"@openzeppelin/contracts/utils/Context.sol\":665:675  msg.sender */\n  caller\n    /* \"@openzeppelin/contracts/utils/Context.sol\":658:675  return msg.sender */\n  swap1\n  pop\n    /* \"@openzeppelin/contracts/utils/Context.sol\":586:682  function _msgSender() internal view virtual returns (address) {... */\n  swap1\n  jump\t// out\n    /* \"@openzeppelin/contracts/access/Ownable.sol\":2041:2210  function _setOwner(address newOwner) private {... */\ntag_10:\n    /* \"@openzeppelin/contracts/access/Ownable.sol\":2096:2112  address oldOwner */\n  0x00\n    /* \"@openzeppelin/contracts/access/Ownable.sol\":2115:2121  _owner */\n  dup1\n  0x00\n  swap1\n  sload\n  swap1\n  0x0100\n  exp\n  swap1\n  div\n  0xffffffffffffffffffffffffffffffffffffffff\n  and\n    /* \"@openzeppelin/contracts/access/Ownable.sol\":2096:2121  address oldOwner = _owner */\n  swap1\n  pop\n    /* \"@openzeppelin/contracts/access/Ownable.sol\":2140:2148  newOwner */\n  dup2\n    /* \"@openzeppelin/contracts/access/Ownable.sol\":2131:2137  _owner */\n  0x00\n  dup1\n    /* \"@openzeppelin/contracts/access/Ownable.sol\":2131:2148  _owner = newOwner */\n  0x0100\n  exp\n  dup2\n  sload\n  dup2\n  0xffffffffffffffffffffffffffffffffffffffff\n  mul\n  not\n  and\n  swap1\n  dup4\n  0xffffffffffffffffffffffffffffffffffffffff\n  and\n  mul\n  or\n  swap1\n  sstore\n  pop\n    /* \"@openzeppelin/contracts/access/Ownable.sol\":2194:2202  newOwner */\n  dup2\n    /* \"@openzeppelin/contracts/access/Ownable.sol\":2163:2203  OwnershipTransferred(oldOwner, newOwner) */\n  0xffffffffffffffffffffffffffffffffffffffff\n  and\n    /* \"@openzeppelin/contracts/access/Ownable.sol\":2184:2192  oldOwner */\n  dup2\n    /* \"@openzeppelin/contracts/access/Ownable.sol\":2163:2203  OwnershipTransferred(oldOwner, newOwner) */\n  0xffffffffffffffffffffffffffffffffffffffff\n  and\n  0x8be0079c531659141344cd1fd0a4f28419497f9722a3daafe3b4186f6b6457e0\n  mload(0x40)\n  mload(0x40)\n  dup1\n  swap2\n  sub\n  swap1\n  log3\n    /* \"@openzeppelin/contracts/access/Ownable.sol\":2086:2210  {... */\n  pop\n    /* \"@openzeppelin/contracts/access/Ownable.sol\":2041:2210  function _setOwner(address newOwner) private {... */\n  pop\n  jump\t// out\n    /* \"#utility.yul\":7:178   */\ntag_19:\n    /* \"#utility.yul\":78:83   */\n  0x00\n    /* \"#utility.yul\":109:115   */\n  dup2\n    /* \"#utility.yul\":103:116   */\n  mload\n    /* \"#utility.yul\":94:116   */\n  swap1\n  pop\n    /* \"#utility.yul\":125:172   */\n  tag_21\n    /* \"#utility.yul\":166:171   */\n  dup2\n    /* \"#utility.yul\":125:172   */\n  tag_22\n  jump\t// in\ntag_21:\n    /* \"#utility.yul\":7:178   */\n  swap3\n  swap2\n  pop\n  pop\n  jump\t// out\n    /* \"#utility.yul\":184:327   */\ntag_23:\n    /* \"#utility.yul\":241:246   */\n  0x00\n    /* \"#utility.yul\":272:278   */\n  dup2\n    /* \"#utility.yul\":266:279   */\n  mload\n    /* \"#utility.yul\":257:279   */\n  swap1\n  pop\n    /* \"#utility.yul\":288:321   */\n  tag_25\n    /* \"#utility.yul\":315:320   */\n  dup2\n    /* \"#utility.yul\":288:321   */\n  tag_26\n  jump\t// in\ntag_25:\n    /* \"#utility.yul\":184:327   */\n  swap3\n  swap2\n  pop\n  pop\n  jump\t// out\n    /* \"#utility.yul\":333:1052   */\ntag_3:\n    /* \"#utility.yul\":449:455   */\n  0x00\n    /* \"#utility.yul\":457:463   */\n  dup1\n    /* \"#utility.yul\":465:471   */\n  0x00\n    /* \"#utility.yul\":514:516   */\n  0x60\n    /* \"#utility.yul\":502:511   */\n  dup5\n    /* \"#utility.yul\":493:500   */\n  dup7\n    /* \"#utility.yul\":489:512   */\n  sub\n    /* \"#utility.yul\":485:517   */\n  slt\n    /* \"#utility.yul\":482:601   */\n  iszero\n  tag_28\n  jumpi\n    /* \"#utility.yul\":520:599   */\n  tag_29\n  tag_30\n  jump\t// in\ntag_29:\n    /* \"#utility.yul\":482:601   */\ntag_28:\n    /* \"#utility.yul\":640:641   */\n  0x00\n    /* \"#utility.yul\":665:743   */\n  tag_31\n    /* \"#utility.yul\":735:742   */\n  dup7\n    /* \"#utility.yul\":726:732   */\n  dup3\n    /* \"#utility.yul\":715:724   */\n  dup8\n    /* \"#utility.yul\":711:733   */\n  add\n    /* \"#utility.yul\":665:743   */\n  tag_19\n  jump\t// in\ntag_31:\n    /* \"#utility.yul\":655:743   */\n  swap4\n  pop\n    /* \"#utility.yul\":611:753   */\n  pop\n    /* \"#utility.yul\":792:794   */\n  0x20\n    /* \"#utility.yul\":818:896   */\n  tag_32\n    /* \"#utility.yul\":888:895   */\n  dup7\n    /* \"#utility.yul\":879:885   */\n  dup3\n    /* \"#utility.yul\":868:877   */\n  dup8\n    /* \"#utility.yul\":864:886   */\n  add\n    /* \"#utility.yul\":818:896   */\n  tag_19\n  jump\t// in\ntag_32:\n    /* \"#utility.yul\":808:896   */\n  swap3\n  pop\n    /* \"#utility.yul\":763:906   */\n  pop\n    /* \"#utility.yul\":945:947   */\n  0x40\n    /* \"#utility.yul\":971:1035   */\n  tag_33\n    /* \"#utility.yul\":1027:1034   */\n  dup7\n    /* \"#utility.yul\":1018:1024   */\n  dup3\n    /* \"#utility.yul\":1007:1016   */\n  dup8\n    /* \"#utility.yul\":1003:1025   */\n  add\n    /* \"#utility.yul\":971:1035   */\n  tag_23\n  jump\t// in\ntag_33:\n    /* \"#utility.yul\":961:1035   */\n  swap2\n  pop\n    /* \"#utility.yul\":916:1045   */\n  pop\n    /* \"#utility.yul\":333:1052   */\n  swap3\n  pop\n  swap3\n  pop\n  swap3\n  jump\t// out\n    /* \"#utility.yul\":1058:1424   */\ntag_34:\n    /* \"#utility.yul\":1200:1203   */\n  0x00\n    /* \"#utility.yul\":1221:1288   */\n  tag_36\n    /* \"#utility.yul\":1285:1287   */\n  0x2e\n    /* \"#utility.yul\":1280:1283   */\n  dup4\n    /* \"#utility.yul\":1221:1288   */\n  tag_37\n  jump\t// in\ntag_36:\n    /* \"#utility.yul\":1214:1288   */\n  swap2\n  pop\n    /* \"#utility.yul\":1297:1390   */\n  tag_38\n    /* \"#utility.yul\":1386:1389   */\n  dup3\n    /* \"#utility.yul\":1297:1390   */\n  tag_39\n  jump\t// in\ntag_38:\n    /* \"#utility.yul\":1415:1417   */\n  0x40\n    /* \"#utility.yul\":1410:1413   */\n  dup3\n    /* \"#utility.yul\":1406:1418   */\n  add\n    /* \"#utility.yul\":1399:1418   */\n  swap1\n  pop\n    /* \"#utility.yul\":1058:1424   */\n  swap2\n  swap1\n  pop\n  jump\t// out\n    /* \"#utility.yul\":1430:1849   */\ntag_14:\n    /* \"#utility.yul\":1596:1600   */\n  0x00\n    /* \"#utility.yul\":1634:1636   */\n  0x20\n    /* \"#utility.yul\":1623:1632   */\n  dup3\n    /* \"#utility.yul\":1619:1637   */\n  add\n    /* \"#utility.yul\":1611:1637   */\n  swap1\n  pop\n    /* \"#utility.yul\":1683:1692   */\n  dup2\n    /* \"#utility.yul\":1677:1681   */\n  dup2\n    /* \"#utility.yul\":1673:1693   */\n  sub\n    /* \"#utility.yul\":1669:1670   */\n  0x00\n    /* \"#utility.yul\":1658:1667   */\n  dup4\n    /* \"#utility.yul\":1654:1671   */\n  add\n    /* \"#utility.yul\":1647:1694   */\n  mstore\n    /* \"#utility.yul\":1711:1842   */\n  tag_41\n    /* \"#utility.yul\":1837:1841   */\n  dup2\n    /* \"#utility.yul\":1711:1842   */\n  tag_34\n  jump\t// in\ntag_41:\n    /* \"#utility.yul\":1703:1842   */\n  swap1\n  pop\n    /* \"#utility.yul\":1430:1849   */\n  swap2\n  swap1\n  pop\n  jump\t// out\n    /* \"#utility.yul\":1936:2105   */\ntag_37:\n    /* \"#utility.yul\":2020:2031   */\n  0x00\n    /* \"#utility.yul\":2054:2060   */\n  dup3\n    /* \"#utility.yul\":2049:2052   */\n  dup3\n    /* \"#utility.yul\":2042:2061   */\n  mstore\n    /* \"#utility.yul\":2094:2098   */\n  0x20\n    /* \"#utility.yul\":2089:2092   */\n  dup3\n    /* \"#utility.yul\":2085:2099   */\n  add\n    /* \"#utility.yul\":2070:2099   */\n  swap1\n  pop\n    /* \"#utility.yul\":1936:2105   */\n  swap3\n  swap2\n  pop\n  pop\n  jump\t// out\n    /* \"#utility.yul\":2111:2207   */\ntag_45:\n    /* \"#utility.yul\":2148:2155   */\n  0x00\n    /* \"#utility.yul\":2177:2201   */\n  tag_47\n    /* \"#utility.yul\":2195:2200   */\n  dup3\n    /* \"#utility.yul\":2177:2201   */\n  tag_48\n  jump\t// in\ntag_47:\n    /* \"#utility.yul\":2166:2201   */\n  swap1\n  pop\n    /* \"#utility.yul\":2111:2207   */\n  swap2\n  swap1\n  pop\n  jump\t// out\n    /* \"#utility.yul\":2213:2323   */\ntag_49:\n    /* \"#utility.yul\":2264:2271   */\n  0x00\n    /* \"#utility.yul\":2293:2317   */\n  tag_51\n    /* \"#utility.yul\":2311:2316   */\n  dup3\n    /* \"#utility.yul\":2293:2317   */\n  tag_45\n  jump\t// in\ntag_51:\n    /* \"#utility.yul\":2282:2317   */\n  swap1\n  pop\n    /* \"#utility.yul\":2213:2323   */\n  swap2\n  swap1\n  pop\n  jump\t// out\n    /* \"#utility.yul\":2329:2455   */\ntag_48:\n    /* \"#utility.yul\":2366:2373   */\n  0x00\n    /* \"#utility.yul\":2406:2448   */\n  0xffffffffffffffffffffffffffffffffffffffff\n    /* \"#utility.yul\":2399:2404   */\n  dup3\n    /* \"#utility.yul\":2395:2449   */\n  and\n    /* \"#utility.yul\":2384:2449   */\n  swap1\n  pop\n    /* \"#utility.yul\":2329:2455   */\n  swap2\n  swap1\n  pop\n  jump\t// out\n    /* \"#utility.yul\":2461:2538   */\ntag_53:\n    /* \"#utility.yul\":2498:2505   */\n  0x00\n    /* \"#utility.yul\":2527:2532   */\n  dup2\n    /* \"#utility.yul\":2516:2532   */\n  swap1\n  pop\n    /* \"#utility.yul\":2461:2538   */\n  swap2\n  swap1\n  pop\n  jump\t// out\n    /* \"#utility.yul\":2667:2784   */\ntag_30:\n    /* \"#utility.yul\":2776:2777   */\n  0x00\n    /* \"#utility.yul\":2773:2774   */\n  dup1\n    /* \"#utility.yul\":2766:2778   */\n  revert\n    /* \"#utility.yul\":2790:3023   */\ntag_39:\n    /* \"#utility.yul\":2930:2964   */\n  0x41424f41543a3a6572726f723a2050726963652068617320746f206265206869\n    /* \"#utility.yul\":2926:2927   */\n  0x00\n    /* \"#utility.yul\":2918:2924   */\n  dup3\n    /* \"#utility.yul\":2914:2928   */\n  add\n    /* \"#utility.yul\":2907:2965   */\n  mstore\n    /* \"#utility.yul\":2999:3015   */\n  0x67686572207468616e207a65726f000000000000000000000000000000000000\n    /* \"#utility.yul\":2994:2996   */\n  0x20\n    /* \"#utility.yul\":2986:2992   */\n  dup3\n    /* \"#utility.yul\":2982:2997   */\n  add\n    /* \"#utility.yul\":2975:3016   */\n  mstore\n    /* \"#utility.yul\":2790:3023   */\n  pop\n  jump\t// out\n    /* \"#utility.yul\":3029:3179   */\ntag_22:\n    /* \"#utility.yul\":3116:3154   */\n  tag_60\n    /* \"#utility.yul\":3148:3153   */\n  dup2\n    /* \"#utility.yul\":3116:3154   */\n  tag_49\n  jump\t// in\ntag_60:\n    /* \"#utility.yul\":3109:3114   */\n  dup2\n    /* \"#utility.yul\":3106:3155   */\n  eq\n    /* \"#utility.yul\":3096:3173   */\n  tag_61\n  jumpi\n    /* \"#utility.yul\":3169:3170   */\n  0x00\n    /* \"#utility.yul\":3166:3167   */\n  dup1\n    /* \"#utility.yul\":3159:3171   */\n  revert\n    /* \"#utility.yul\":3096:3173   */\ntag_61:\n    /* \"#utility.yul\":3029:3179   */\n  pop\n  jump\t// out\n    /* \"#utility.yul\":3185:3307   */\ntag_26:\n    /* \"#utility.yul\":3258:3282   */\n  tag_63\n    /* \"#utility.yul\":3276:3281   */\n  dup2\n    /* \"#utility.yul\":3258:3282   */\n  tag_53\n  jump\t// in\ntag_63:\n    /* \"#utility.yul\":3251:3256   */\n  dup2\n    /* \"#utility.yul\":3248:3283   */\n  eq\n    /* \"#utility.yul\":3238:3301   */\n  tag_64\n  jumpi\n    /* \"#utility.yul\":3297:3298   */\n  0x00\n    /* \"#utility.yul\":3294:3295   */\n  dup1\n    /* \"#utility.yul\":3287:3299   */\n  revert\n    /* \"#utility.yul\":3238:3301   */\ntag_64:\n    /* \"#utility.yul\":3185:3307   */\n  pop\n  jump\t// out\n    /* \"contracts/PreSale.sol\":434:4593  contract PreSale is Ownable {... */\ntag_15:\n  dataSize(sub_0)\n  dup1\n  dataOffset(sub_0)\n  0x00\n  codecopy\n  0x00\n  return\nstop\n\nsub_0: assembly {\n        /* \"contracts/PreSale.sol\":434:4593  contract PreSale is Ownable {... */\n      mstore(0x40, 0x80)\n      jumpi(tag_1, lt(calldatasize, 0x04))\n      shr(0xe0, calldataload(0x00))\n      dup1\n      0x8da5cb5b\n      gt\n      tag_15\n      jumpi\n      dup1\n      0xd96a094a\n      gt\n      tag_16\n      jumpi\n      dup1\n      0xd96a094a\n      eq\n      tag_11\n      jumpi\n      dup1\n      0xf2fde38b\n      eq\n      tag_12\n      jumpi\n      dup1\n      0xf3739e05\n      eq\n      tag_13\n      jumpi\n      dup1\n      0xf7c618c1\n      eq\n      tag_14\n      jumpi\n      jump(tag_1)\n    tag_16:\n      dup1\n      0x8da5cb5b\n      eq\n      tag_8\n      jumpi\n      dup1\n      0xa960c65f\n      eq\n      tag_9\n      jumpi\n      dup1\n      0xc884ef83\n      eq\n      tag_10\n      jumpi\n      jump(tag_1)\n    tag_15:\n      dup1\n      0x06ee240d\n      eq\n      tag_2\n      jumpi\n      dup1\n      0x2fba2c85\n      eq\n      tag_3\n      jumpi\n      dup1\n      0x3013ce29\n      eq\n      tag_4\n      jumpi\n      dup1\n      0x667022fd\n      eq\n      tag_5\n      jumpi\n      dup1\n      0x715018a6\n      eq\n      tag_6\n      jumpi\n      dup1\n      0x7b1b1de6\n      eq\n      tag_7\n      jumpi\n    tag_1:\n      0x00\n      dup1\n      revert\n        /* \"contracts/PreSale.sol\":3067:3372  function transferTokenM() public view returns(uint256) {... */\n    tag_2:\n      callvalue\n      dup1\n      iszero\n      tag_17\n      jumpi\n      0x00\n      dup1\n      revert\n    tag_17:\n      pop\n      tag_18\n      tag_19\n      jump\t// in\n    tag_18:\n      mload(0x40)\n      tag_20\n      swap2\n      swap1\n      tag_21\n      jump\t// in\n    tag_20:\n      mload(0x40)\n      dup1\n      swap2\n      sub\n      swap1\n      return\n        /* \"contracts/PreSale.sol\":2751:3061  function getRemainingBalance() public view returns(uint256) {... */\n    tag_3:\n      callvalue\n      dup1\n      iszero\n      tag_22\n      jumpi\n      0x00\n      dup1\n      revert\n    tag_22:\n      pop\n      tag_23\n      tag_24\n      jump\t// in\n    tag_23:\n      mload(0x40)\n      tag_25\n      swap2\n      swap1\n      tag_21\n      jump\t// in\n    tag_25:\n      mload(0x40)\n      dup1\n      swap2\n      sub\n      swap1\n      return\n        /* \"contracts/PreSale.sol\":922:948  IERC20 public paymentToken */\n    tag_4:\n      callvalue\n      dup1\n      iszero\n      tag_26\n      jumpi\n      0x00\n      dup1\n      revert\n    tag_26:\n      pop\n      tag_27\n      tag_28\n      jump\t// in\n    tag_27:\n      mload(0x40)\n      tag_29\n      swap2\n      swap1\n      tag_30\n      jump\t// in\n    tag_29:\n      mload(0x40)\n      dup1\n      swap2\n      sub\n      swap1\n      return\n        /* \"contracts/PreSale.sol\":1024:1065  mapping(address => uint256) public bought */\n    tag_5:\n      callvalue\n      dup1\n      iszero\n      tag_31\n      jumpi\n      0x00\n      dup1\n      revert\n    tag_31:\n      pop\n      tag_32\n      0x04\n      dup1\n      calldatasize\n      sub\n      dup2\n      add\n      swap1\n      tag_33\n      swap2\n      swap1\n      tag_34\n      jump\t// in\n    tag_33:\n      tag_35\n      jump\t// in\n    tag_32:\n      mload(0x40)\n      tag_36\n      swap2\n      swap1\n      tag_21\n      jump\t// in\n    tag_36:\n      mload(0x40)\n      dup1\n      swap2\n      sub\n      swap1\n      return\n        /* \"@openzeppelin/contracts/access/Ownable.sol\":1605:1697  function renounceOwnership() public virtual onlyOwner {... */\n    tag_6:\n      callvalue\n      dup1\n      iszero\n      tag_37\n      jumpi\n      0x00\n      dup1\n      revert\n    tag_37:\n      pop\n      tag_38\n      tag_39\n      jump\t// in\n    tag_38:\n      stop\n        /* \"contracts/PreSale.sol\":962:990  uint256 public pricePerToken */\n    tag_7:\n      callvalue\n      dup1\n      iszero\n      tag_40\n      jumpi\n      0x00\n      dup1\n      revert\n    tag_40:\n      pop\n      tag_41\n      tag_42\n      jump\t// in\n    tag_41:\n      mload(0x40)\n      tag_43\n      swap2\n      swap1\n      tag_21\n      jump\t// in\n    tag_43:\n      mload(0x40)\n      dup1\n      swap2\n      sub\n      swap1\n      return\n        /* \"@openzeppelin/contracts/access/Ownable.sol\":973:1058  function owner() public view virtual returns (address) {... */\n    tag_8:\n      callvalue\n      dup1\n      iszero\n      tag_44\n      jumpi\n      0x00\n      dup1\n      revert\n    tag_44:\n      pop\n      tag_45\n      tag_46\n      jump\t// in\n    tag_45:\n      mload(0x40)\n      tag_47\n      swap2\n      swap1\n      tag_48\n      jump\t// in\n    tag_47:\n      mload(0x40)\n      dup1\n      swap2\n      sub\n      swap1\n      return\n        /* \"contracts/PreSale.sol\":1216:1264  mapping(address => uint256) public claimedTokens */\n    tag_9:\n      callvalue\n      dup1\n      iszero\n      tag_49\n      jumpi\n      0x00\n      dup1\n      revert\n    tag_49:\n      pop\n      tag_50\n      0x04\n      dup1\n      calldatasize\n      sub\n      dup2\n      add\n      swap1\n      tag_51\n      swap2\n      swap1\n      tag_34\n      jump\t// in\n    tag_51:\n      tag_52\n      jump\t// in\n    tag_50:\n      mload(0x40)\n      tag_53\n      swap2\n      swap1\n      tag_21\n      jump\t// in\n    tag_53:\n      mload(0x40)\n      dup1\n      swap2\n      sub\n      swap1\n      return\n        /* \"contracts/PreSale.sol\":1113:1155  mapping(address => uint256) public claimed */\n    tag_10:\n      callvalue\n      dup1\n      iszero\n      tag_54\n      jumpi\n      0x00\n      dup1\n      revert\n    tag_54:\n      pop\n      tag_55\n      0x04\n      dup1\n      calldatasize\n      sub\n      dup2\n      add\n      swap1\n      tag_56\n      swap2\n      swap1\n      tag_34\n      jump\t// in\n    tag_56:\n      tag_57\n      jump\t// in\n    tag_55:\n      mload(0x40)\n      tag_58\n      swap2\n      swap1\n      tag_21\n      jump\t// in\n    tag_58:\n      mload(0x40)\n      dup1\n      swap2\n      sub\n      swap1\n      return\n        /* \"contracts/PreSale.sol\":3703:4591  function buy(uint256 amount) public payable {... */\n    tag_11:\n      tag_59\n      0x04\n      dup1\n      calldatasize\n      sub\n      dup2\n      add\n      swap1\n      tag_60\n      swap2\n      swap1\n      tag_61\n      jump\t// in\n    tag_60:\n      tag_62\n      jump\t// in\n    tag_59:\n      stop\n        /* \"@openzeppelin/contracts/access/Ownable.sol\":1846:2035  function transferOwnership(address newOwner) public virtual onlyOwner {... */\n    tag_12:\n      callvalue\n      dup1\n      iszero\n      tag_63\n      jumpi\n      0x00\n      dup1\n      revert\n    tag_63:\n      pop\n      tag_64\n      0x04\n      dup1\n      calldatasize\n      sub\n      dup2\n      add\n      swap1\n      tag_65\n      swap2\n      swap1\n      tag_34\n      jump\t// in\n    tag_65:\n      tag_66\n      jump\t// in\n    tag_64:\n      stop\n        /* \"contracts/PreSale.sol\":1312:1363  mapping(address => address) public lastClaimAddress */\n    tag_13:\n      callvalue\n      dup1\n      iszero\n      tag_67\n      jumpi\n      0x00\n      dup1\n      revert\n    tag_67:\n      pop\n      tag_68\n      0x04\n      dup1\n      calldatasize\n      sub\n      dup2\n      add\n      swap1\n      tag_69\n      swap2\n      swap1\n      tag_34\n      jump\t// in\n    tag_69:\n      tag_70\n      jump\t// in\n    tag_68:\n      mload(0x40)\n      tag_71\n      swap2\n      swap1\n      tag_48\n      jump\t// in\n    tag_71:\n      mload(0x40)\n      dup1\n      swap2\n      sub\n      swap1\n      return\n        /* \"contracts/PreSale.sol\":884:909  IERC20 public rewardToken */\n    tag_14:\n      callvalue\n      dup1\n      iszero\n      tag_72\n      jumpi\n      0x00\n      dup1\n      revert\n    tag_72:\n      pop\n      tag_73\n      tag_74\n      jump\t// in\n    tag_73:\n      mload(0x40)\n      tag_75\n      swap2\n      swap1\n      tag_30\n      jump\t// in\n    tag_75:\n      mload(0x40)\n      dup1\n      swap2\n      sub\n      swap1\n      return\n        /* \"contracts/PreSale.sol\":3067:3372  function transferTokenM() public view returns(uint256) {... */\n    tag_19:\n        /* \"contracts/PreSale.sol\":3113:3120  uint256 */\n      0x00\n        /* \"contracts/PreSale.sol\":3132:3158  bool isRewardTokenEthToken */\n      dup1\n        /* \"contracts/PreSale.sol\":3193:3194  0 */\n      0x00\n        /* \"contracts/PreSale.sol\":3161:3195  address(rewardToken) == address(0) */\n      0xffffffffffffffffffffffffffffffffffffffff\n      and\n        /* \"contracts/PreSale.sol\":3169:3180  rewardToken */\n      0x01\n      0x00\n      swap1\n      sload\n      swap1\n      0x0100\n      exp\n      swap1\n      div\n      0xffffffffffffffffffffffffffffffffffffffff\n      and\n        /* \"contracts/PreSale.sol\":3161:3195  address(rewardToken) == address(0) */\n      0xffffffffffffffffffffffffffffffffffffffff\n      and\n      eq\n        /* \"contracts/PreSale.sol\":3132:3195  bool isRewardTokenEthToken = address(rewardToken) == address(0) */\n      swap1\n      pop\n        /* \"contracts/PreSale.sol\":3208:3229  isRewardTokenEthToken */\n      dup1\n        /* \"contracts/PreSale.sol\":3205:3366  if(isRewardTokenEthToken) {... */\n      iszero\n      tag_77\n      jumpi\n        /* \"contracts/PreSale.sol\":3252:3273  address(this).balance */\n      selfbalance\n        /* \"contracts/PreSale.sol\":3245:3273  return address(this).balance */\n      swap2\n      pop\n      pop\n      jump(tag_76)\n        /* \"contracts/PreSale.sol\":3205:3366  if(isRewardTokenEthToken) {... */\n    tag_77:\n        /* \"contracts/PreSale.sol\":3318:3329  rewardToken */\n      0x01\n      0x00\n      swap1\n      sload\n      swap1\n      0x0100\n      exp\n      swap1\n      div\n      0xffffffffffffffffffffffffffffffffffffffff\n      and\n        /* \"contracts/PreSale.sol\":3311:3340  IERC20(rewardToken).balanceOf */\n      0xffffffffffffffffffffffffffffffffffffffff\n      and\n      0x70a08231\n        /* \"contracts/PreSale.sol\":3349:3353  this */\n      address\n        /* \"contracts/PreSale.sol\":3311:3355  IERC20(rewardToken).balanceOf(address(this)) */\n      mload(0x40)\n      dup3\n      0xffffffff\n      and\n      0xe0\n      shl\n      dup2\n      mstore\n      0x04\n      add\n      tag_79\n      swap2\n      swap1\n      tag_48\n      jump\t// in\n    tag_79:\n      0x20\n      mload(0x40)\n      dup1\n      dup4\n      sub\n      dup2\n      dup7\n      dup1\n      extcodesize\n      iszero\n      dup1\n      iszero\n      tag_80\n      jumpi\n      0x00\n      dup1\n      revert\n    tag_80:\n      pop\n      gas\n      staticcall\n      iszero\n      dup1\n      iszero\n      tag_82\n      jumpi\n      returndatasize\n      0x00\n      dup1\n      returndatacopy\n      revert(0x00, returndatasize)\n    tag_82:\n      pop\n      pop\n      pop\n      pop\n      mload(0x40)\n      returndatasize\n      not(0x1f)\n      0x1f\n      dup3\n      add\n      and\n      dup3\n      add\n      dup1\n      0x40\n      mstore\n      pop\n      dup2\n      add\n      swap1\n      tag_83\n      swap2\n      swap1\n      tag_84\n      jump\t// in\n    tag_83:\n        /* \"contracts/PreSale.sol\":3304:3355  return IERC20(rewardToken).balanceOf(address(this)) */\n      swap2\n      pop\n      pop\n        /* \"contracts/PreSale.sol\":3067:3372  function transferTokenM() public view returns(uint256) {... */\n    tag_76:\n      swap1\n      jump\t// out\n        /* \"contracts/PreSale.sol\":2751:3061  function getRemainingBalance() public view returns(uint256) {... */\n    tag_24:\n        /* \"contracts/PreSale.sol\":2802:2809  uint256 */\n      0x00\n        /* \"contracts/PreSale.sol\":2821:2847  bool isRewardTokenEthToken */\n      dup1\n        /* \"contracts/PreSale.sol\":2882:2883  0 */\n      0x00\n        /* \"contracts/PreSale.sol\":2850:2884  address(rewardToken) == address(0) */\n      0xffffffffffffffffffffffffffffffffffffffff\n      and\n        /* \"contracts/PreSale.sol\":2858:2869  rewardToken */\n      0x01\n      0x00\n      swap1\n      sload\n      swap1\n      0x0100\n      exp\n      swap1\n      div\n      0xffffffffffffffffffffffffffffffffffffffff\n      and\n        /* \"contracts/PreSale.sol\":2850:2884  address(rewardToken) == address(0) */\n      0xffffffffffffffffffffffffffffffffffffffff\n      and\n      eq\n        /* \"contracts/PreSale.sol\":2821:2884  bool isRewardTokenEthToken = address(rewardToken) == address(0) */\n      swap1\n      pop\n        /* \"contracts/PreSale.sol\":2897:2918  isRewardTokenEthToken */\n      dup1\n        /* \"contracts/PreSale.sol\":2894:3055  if(isRewardTokenEthToken) {... */\n      iszero\n      tag_86\n      jumpi\n        /* \"contracts/PreSale.sol\":2941:2962  address(this).balance */\n      selfbalance\n        /* \"contracts/PreSale.sol\":2934:2962  return address(this).balance */\n      swap2\n      pop\n      pop\n      jump(tag_85)\n        /* \"contracts/PreSale.sol\":2894:3055  if(isRewardTokenEthToken) {... */\n    tag_86:\n        /* \"contracts/PreSale.sol\":3007:3018  rewardToken */\n      0x01\n      0x00\n      swap1\n      sload\n      swap1\n      0x0100\n      exp\n      swap1\n      div\n      0xffffffffffffffffffffffffffffffffffffffff\n      and\n        /* \"contracts/PreSale.sol\":3000:3029  IERC20(rewardToken).balanceOf */\n      0xffffffffffffffffffffffffffffffffffffffff\n      and\n      0x70a08231\n        /* \"contracts/PreSale.sol\":3038:3042  this */\n      address\n        /* \"contracts/PreSale.sol\":3000:3044  IERC20(rewardToken).balanceOf(address(this)) */\n      mload(0x40)\n      dup3\n      0xffffffff\n      and\n      0xe0\n      shl\n      dup2\n      mstore\n      0x04\n      add\n      tag_88\n      swap2\n      swap1\n      tag_48\n      jump\t// in\n    tag_88:\n      0x20\n      mload(0x40)\n      dup1\n      dup4\n      sub\n      dup2\n      dup7\n      dup1\n      extcodesize\n      iszero\n      dup1\n      iszero\n      tag_89\n      jumpi\n      0x00\n      dup1\n      revert\n    tag_89:\n      pop\n      gas\n      staticcall\n      iszero\n      dup1\n      iszero\n      tag_91\n      jumpi\n      returndatasize\n      0x00\n      dup1\n      returndatacopy\n      revert(0x00, returndatasize)\n    tag_91:\n      pop\n      pop\n      pop\n      pop\n      mload(0x40)\n      returndatasize\n      not(0x1f)\n      0x1f\n      dup3\n      add\n      and\n      dup3\n      add\n      dup1\n      0x40\n      mstore\n      pop\n      dup2\n      add\n      swap1\n      tag_92\n      swap2\n      swap1\n      tag_84\n      jump\t// in\n    tag_92:\n        /* \"contracts/PreSale.sol\":2993:3044  return IERC20(rewardToken).balanceOf(address(this)) */\n      swap2\n      pop\n      pop\n        /* \"contracts/PreSale.sol\":2751:3061  function getRemainingBalance() public view returns(uint256) {... */\n    tag_85:\n      swap1\n      jump\t// out\n        /* \"contracts/PreSale.sol\":922:948  IERC20 public paymentToken */\n    tag_28:\n      0x02\n      0x00\n      swap1\n      sload\n      swap1\n      0x0100\n      exp\n      swap1\n      div\n      0xffffffffffffffffffffffffffffffffffffffff\n      and\n      dup2\n      jump\t// out\n        /* \"contracts/PreSale.sol\":1024:1065  mapping(address => uint256) public bought */\n    tag_35:\n      mstore(0x20, 0x04)\n      dup1\n      0x00\n      mstore\n      keccak256(0x00, 0x40)\n      0x00\n      swap2\n      pop\n      swap1\n      pop\n      sload\n      dup2\n      jump\t// out\n        /* \"@openzeppelin/contracts/access/Ownable.sol\":1605:1697  function renounceOwnership() public virtual onlyOwner {... */\n    tag_39:\n        /* \"@openzeppelin/contracts/access/Ownable.sol\":1196:1208  _msgSender() */\n      tag_94\n        /* \"@openzeppelin/contracts/access/Ownable.sol\":1196:1206  _msgSender */\n      tag_95\n        /* \"@openzeppelin/contracts/access/Ownable.sol\":1196:1208  _msgSender() */\n      jump\t// in\n    tag_94:\n        /* \"@openzeppelin/contracts/access/Ownable.sol\":1185:1208  owner() == _msgSender() */\n      0xffffffffffffffffffffffffffffffffffffffff\n      and\n        /* \"@openzeppelin/contracts/access/Ownable.sol\":1185:1192  owner() */\n      tag_96\n        /* \"@openzeppelin/contracts/access/Ownable.sol\":1185:1190  owner */\n      tag_46\n        /* \"@openzeppelin/contracts/access/Ownable.sol\":1185:1192  owner() */\n      jump\t// in\n    tag_96:\n        /* \"@openzeppelin/contracts/access/Ownable.sol\":1185:1208  owner() == _msgSender() */\n      0xffffffffffffffffffffffffffffffffffffffff\n      and\n      eq\n        /* \"@openzeppelin/contracts/access/Ownable.sol\":1177:1245  require(owner() == _msgSender(), \"Ownable: caller is not the owner\") */\n      tag_97\n      jumpi\n      mload(0x40)\n      0x08c379a000000000000000000000000000000000000000000000000000000000\n      dup2\n      mstore\n      0x04\n      add\n      tag_98\n      swap1\n      tag_99\n      jump\t// in\n    tag_98:\n      mload(0x40)\n      dup1\n      swap2\n      sub\n      swap1\n      revert\n    tag_97:\n        /* \"@openzeppelin/contracts/access/Ownable.sol\":1669:1690  _setOwner(address(0)) */\n      tag_101\n        /* \"@openzeppelin/contracts/access/Ownable.sol\":1687:1688  0 */\n      0x00\n        /* \"@openzeppelin/contracts/access/Ownable.sol\":1669:1678  _setOwner */\n      tag_102\n        /* \"@openzeppelin/contracts/access/Ownable.sol\":1669:1690  _setOwner(address(0)) */\n      jump\t// in\n    tag_101:\n        /* \"@openzeppelin/contracts/access/Ownable.sol\":1605:1697  function renounceOwnership() public virtual onlyOwner {... */\n      jump\t// out\n        /* \"contracts/PreSale.sol\":962:990  uint256 public pricePerToken */\n    tag_42:\n      sload(0x03)\n      dup2\n      jump\t// out\n        /* \"@openzeppelin/contracts/access/Ownable.sol\":973:1058  function owner() public view virtual returns (address) {... */\n    tag_46:\n        /* \"@openzeppelin/contracts/access/Ownable.sol\":1019:1026  address */\n      0x00\n        /* \"@openzeppelin/contracts/access/Ownable.sol\":1045:1051  _owner */\n      dup1\n      0x00\n      swap1\n      sload\n      swap1\n      0x0100\n      exp\n      swap1\n      div\n      0xffffffffffffffffffffffffffffffffffffffff\n      and\n        /* \"@openzeppelin/contracts/access/Ownable.sol\":1038:1051  return _owner */\n      swap1\n      pop\n        /* \"@openzeppelin/contracts/access/Ownable.sol\":973:1058  function owner() public view virtual returns (address) {... */\n      swap1\n      jump\t// out\n        /* \"contracts/PreSale.sol\":1216:1264  mapping(address => uint256) public claimedTokens */\n    tag_52:\n      mstore(0x20, 0x06)\n      dup1\n      0x00\n      mstore\n      keccak256(0x00, 0x40)\n      0x00\n      swap2\n      pop\n      swap1\n      pop\n      sload\n      dup2\n      jump\t// out\n        /* \"contracts/PreSale.sol\":1113:1155  mapping(address => uint256) public claimed */\n    tag_57:\n      mstore(0x20, 0x05)\n      dup1\n      0x00\n      mstore\n      keccak256(0x00, 0x40)\n      0x00\n      swap2\n      pop\n      swap1\n      pop\n      sload\n      dup2\n      jump\t// out\n        /* \"contracts/PreSale.sol\":3703:4591  function buy(uint256 amount) public payable {... */\n    tag_62:\n        /* \"contracts/PreSale.sol\":3757:3784  bool isPaymentTokenEthToken */\n      0x00\n        /* \"contracts/PreSale.sol\":3820:3821  0 */\n      dup1\n        /* \"contracts/PreSale.sol\":3787:3822  address(paymentToken) == address(0) */\n      0xffffffffffffffffffffffffffffffffffffffff\n      and\n        /* \"contracts/PreSale.sol\":3795:3807  paymentToken */\n      0x02\n      0x00\n      swap1\n      sload\n      swap1\n      0x0100\n      exp\n      swap1\n      div\n      0xffffffffffffffffffffffffffffffffffffffff\n      and\n        /* \"contracts/PreSale.sol\":3787:3822  address(paymentToken) == address(0) */\n      0xffffffffffffffffffffffffffffffffffffffff\n      and\n      eq\n        /* \"contracts/PreSale.sol\":3757:3822  bool isPaymentTokenEthToken = address(paymentToken) == address(0) */\n      swap1\n      pop\n        /* \"contracts/PreSale.sol\":3832:3858  bool isRewardTokenEthToken */\n      0x00\n        /* \"contracts/PreSale.sol\":3893:3894  0 */\n      dup1\n        /* \"contracts/PreSale.sol\":3861:3895  address(rewardToken) == address(0) */\n      0xffffffffffffffffffffffffffffffffffffffff\n      and\n        /* \"contracts/PreSale.sol\":3869:3880  rewardToken */\n      0x01\n      0x00\n      swap1\n      sload\n      swap1\n      0x0100\n      exp\n      swap1\n      div\n      0xffffffffffffffffffffffffffffffffffffffff\n      and\n        /* \"contracts/PreSale.sol\":3861:3895  address(rewardToken) == address(0) */\n      0xffffffffffffffffffffffffffffffffffffffff\n      and\n      eq\n        /* \"contracts/PreSale.sol\":3832:3895  bool isRewardTokenEthToken = address(rewardToken) == address(0) */\n      swap1\n      pop\n        /* \"contracts/PreSale.sol\":3914:3936  isPaymentTokenEthToken */\n      dup2\n        /* \"contracts/PreSale.sol\":3913:3936  !isPaymentTokenEthToken */\n      iszero\n        /* \"contracts/PreSale.sol\":3913:3959  !isPaymentTokenEthToken || msg.value == amount */\n      dup1\n      tag_105\n      jumpi\n      pop\n        /* \"contracts/PreSale.sol\":3953:3959  amount */\n      dup3\n        /* \"contracts/PreSale.sol\":3940:3949  msg.value */\n      callvalue\n        /* \"contracts/PreSale.sol\":3940:3959  msg.value == amount */\n      eq\n        /* \"contracts/PreSale.sol\":3913:3959  !isPaymentTokenEthToken || msg.value == amount */\n    tag_105:\n        /* \"contracts/PreSale.sol\":3905:4016  require(!isPaymentTokenEthToken || msg.value == amount, \"ABOAT::buy: Sent value doesn't meet the given amount\") */\n      tag_106\n      jumpi\n      mload(0x40)\n      0x08c379a000000000000000000000000000000000000000000000000000000000\n      dup2\n      mstore\n      0x04\n      add\n      tag_107\n      swap1\n      tag_108\n      jump\t// in\n    tag_107:\n      mload(0x40)\n      dup1\n      swap2\n      sub\n      swap1\n      revert\n    tag_106:\n        /* \"contracts/PreSale.sol\":4026:4046  uint256 amountBought */\n      0x00\n        /* \"contracts/PreSale.sol\":4049:4084  amount.mul(1e18).div(pricePerToken) */\n      tag_109\n        /* \"contracts/PreSale.sol\":4070:4083  pricePerToken */\n      sload(0x03)\n        /* \"contracts/PreSale.sol\":4049:4065  amount.mul(1e18) */\n      tag_110\n        /* \"contracts/PreSale.sol\":4060:4064  1e18 */\n      0x0de0b6b3a7640000\n        /* \"contracts/PreSale.sol\":4049:4055  amount */\n      dup8\n        /* \"contracts/PreSale.sol\":4049:4059  amount.mul */\n      tag_111\n      swap1\n        /* \"contracts/PreSale.sol\":4049:4065  amount.mul(1e18) */\n      swap2\n      swap1\n      0xffffffff\n      and\n      jump\t// in\n    tag_110:\n        /* \"contracts/PreSale.sol\":4049:4069  amount.mul(1e18).div */\n      tag_112\n      swap1\n        /* \"contracts/PreSale.sol\":4049:4084  amount.mul(1e18).div(pricePerToken) */\n      swap2\n      swap1\n      0xffffffff\n      and\n      jump\t// in\n    tag_109:\n        /* \"contracts/PreSale.sol\":4026:4084  uint256 amountBought = amount.mul(1e18).div(pricePerToken) */\n      swap1\n      pop\n        /* \"contracts/PreSale.sol\":4144:4145  0 */\n      0x00\n        /* \"contracts/PreSale.sol\":4102:4141  getRemainingBalance().sub(amountBought) */\n      tag_113\n        /* \"contracts/PreSale.sol\":4128:4140  amountBought */\n      dup3\n        /* \"contracts/PreSale.sol\":4102:4123  getRemainingBalance() */\n      tag_114\n        /* \"contracts/PreSale.sol\":4102:4121  getRemainingBalance */\n      tag_24\n        /* \"contracts/PreSale.sol\":4102:4123  getRemainingBalance() */\n      jump\t// in\n    tag_114:\n        /* \"contracts/PreSale.sol\":4102:4127  getRemainingBalance().sub */\n      tag_115\n      swap1\n        /* \"contracts/PreSale.sol\":4102:4141  getRemainingBalance().sub(amountBought) */\n      swap2\n      swap1\n      0xffffffff\n      and\n      jump\t// in\n    tag_113:\n        /* \"contracts/PreSale.sol\":4102:4145  getRemainingBalance().sub(amountBought) > 0 */\n      gt\n        /* \"contracts/PreSale.sol\":4094:4203  require(getRemainingBalance().sub(amountBought) > 0, \"ABOAT::buy: Amount would exceed the remaining balance\") */\n      tag_116\n      jumpi\n      mload(0x40)\n      0x08c379a000000000000000000000000000000000000000000000000000000000\n      dup2\n      mstore\n      0x04\n      add\n      tag_117\n      swap1\n      tag_118\n      jump\t// in\n    tag_117:\n      mload(0x40)\n      dup1\n      swap2\n      sub\n      swap1\n      revert\n    tag_116:\n        /* \"contracts/PreSale.sol\":4217:4239  isPaymentTokenEthToken */\n      dup3\n        /* \"contracts/PreSale.sol\":4213:4333  if(!isPaymentTokenEthToken) {... */\n      tag_119\n      jumpi\n        /* \"contracts/PreSale.sol\":4255:4322  paymentToken.safeTransferFrom(address(msg.sender), owner(), amount) */\n      tag_120\n        /* \"contracts/PreSale.sol\":4293:4303  msg.sender */\n      caller\n        /* \"contracts/PreSale.sol\":4306:4313  owner() */\n      tag_121\n        /* \"contracts/PreSale.sol\":4306:4311  owner */\n      tag_46\n        /* \"contracts/PreSale.sol\":4306:4313  owner() */\n      jump\t// in\n    tag_121:\n        /* \"contracts/PreSale.sol\":4315:4321  amount */\n      dup7\n        /* \"contracts/PreSale.sol\":4255:4267  paymentToken */\n      0x02\n      0x00\n      swap1\n      sload\n      swap1\n      0x0100\n      exp\n      swap1\n      div\n      0xffffffffffffffffffffffffffffffffffffffff\n      and\n        /* \"contracts/PreSale.sol\":4255:4284  paymentToken.safeTransferFrom */\n      0xffffffffffffffffffffffffffffffffffffffff\n      and\n      tag_122\n      swap1\n        /* \"contracts/PreSale.sol\":4255:4322  paymentToken.safeTransferFrom(address(msg.sender), owner(), amount) */\n      swap4\n      swap3\n      swap2\n      swap1\n      0xffffffff\n      and\n      jump\t// in\n    tag_120:\n        /* \"contracts/PreSale.sol\":4213:4333  if(!isPaymentTokenEthToken) {... */\n    tag_119:\n        /* \"contracts/PreSale.sol\":4346:4367  isRewardTokenEthToken */\n      dup2\n        /* \"contracts/PreSale.sol\":4343:4544  if(isRewardTokenEthToken) {... */\n      iszero\n      tag_123\n      jumpi\n        /* \"contracts/PreSale.sol\":4383:4433  TransferHelper.safeTransferETH(msg.sender, amount) */\n      tag_124\n        /* \"contracts/PreSale.sol\":4414:4424  msg.sender */\n      caller\n        /* \"contracts/PreSale.sol\":4426:4432  amount */\n      dup6\n        /* \"contracts/PreSale.sol\":4383:4413  TransferHelper.safeTransferETH */\n      tag_125\n        /* \"contracts/PreSale.sol\":4383:4433  TransferHelper.safeTransferETH(msg.sender, amount) */\n      jump\t// in\n    tag_124:\n        /* \"contracts/PreSale.sol\":4343:4544  if(isRewardTokenEthToken) {... */\n      jump(tag_126)\n    tag_123:\n        /* \"contracts/PreSale.sol\":4464:4533  TransferHelper.safeTransfer(address(rewardToken), msg.sender, amount) */\n      tag_127\n        /* \"contracts/PreSale.sol\":4500:4511  rewardToken */\n      0x01\n      0x00\n      swap1\n      sload\n      swap1\n      0x0100\n      exp\n      swap1\n      div\n      0xffffffffffffffffffffffffffffffffffffffff\n      and\n        /* \"contracts/PreSale.sol\":4514:4524  msg.sender */\n      caller\n        /* \"contracts/PreSale.sol\":4526:4532  amount */\n      dup7\n        /* \"contracts/PreSale.sol\":4464:4491  TransferHelper.safeTransfer */\n      tag_128\n        /* \"contracts/PreSale.sol\":4464:4533  TransferHelper.safeTransfer(address(rewardToken), msg.sender, amount) */\n      jump\t// in\n    tag_127:\n        /* \"contracts/PreSale.sol\":4343:4544  if(isRewardTokenEthToken) {... */\n    tag_126:\n        /* \"contracts/PreSale.sol\":4577:4583  amount */\n      dup4\n        /* \"contracts/PreSale.sol\":4565:4575  msg.sender */\n      caller\n        /* \"contracts/PreSale.sol\":4558:4584  Bought(msg.sender, amount) */\n      0xffffffffffffffffffffffffffffffffffffffff\n      and\n      0xc55650ccda1011e1cdc769b1fbf546ebb8c97800b6072b49e06cd560305b1d67\n      mload(0x40)\n      mload(0x40)\n      dup1\n      swap2\n      sub\n      swap1\n      log3\n        /* \"contracts/PreSale.sol\":3747:4591  {... */\n      pop\n      pop\n      pop\n        /* \"contracts/PreSale.sol\":3703:4591  function buy(uint256 amount) public payable {... */\n      pop\n      jump\t// out\n        /* \"@openzeppelin/contracts/access/Ownable.sol\":1846:2035  function transferOwnership(address newOwner) public virtual onlyOwner {... */\n    tag_66:\n        /* \"@openzeppelin/contracts/access/Ownable.sol\":1196:1208  _msgSender() */\n      tag_130\n        /* \"@openzeppelin/contracts/access/Ownable.sol\":1196:1206  _msgSender */\n      tag_95\n        /* \"@openzeppelin/contracts/access/Ownable.sol\":1196:1208  _msgSender() */\n      jump\t// in\n    tag_130:\n        /* \"@openzeppelin/contracts/access/Ownable.sol\":1185:1208  owner() == _msgSender() */\n      0xffffffffffffffffffffffffffffffffffffffff\n      and\n        /* \"@openzeppelin/contracts/access/Ownable.sol\":1185:1192  owner() */\n      tag_131\n        /* \"@openzeppelin/contracts/access/Ownable.sol\":1185:1190  owner */\n      tag_46\n        /* \"@openzeppelin/contracts/access/Ownable.sol\":1185:1192  owner() */\n      jump\t// in\n    tag_131:\n        /* \"@openzeppelin/contracts/access/Ownable.sol\":1185:1208  owner() == _msgSender() */\n      0xffffffffffffffffffffffffffffffffffffffff\n      and\n      eq\n        /* \"@openzeppelin/contracts/access/Ownable.sol\":1177:1245  require(owner() == _msgSender(), \"Ownable: caller is not the owner\") */\n      tag_132\n      jumpi\n      mload(0x40)\n      0x08c379a000000000000000000000000000000000000000000000000000000000\n      dup2\n      mstore\n      0x04\n      add\n      tag_133\n      swap1\n      tag_99\n      jump\t// in\n    tag_133:\n      mload(0x40)\n      dup1\n      swap2\n      sub\n      swap1\n      revert\n    tag_132:\n        /* \"@openzeppelin/contracts/access/Ownable.sol\":1954:1955  0 */\n      0x00\n        /* \"@openzeppelin/contracts/access/Ownable.sol\":1934:1956  newOwner != address(0) */\n      0xffffffffffffffffffffffffffffffffffffffff\n      and\n        /* \"@openzeppelin/contracts/access/Ownable.sol\":1934:1942  newOwner */\n      dup2\n        /* \"@openzeppelin/contracts/access/Ownable.sol\":1934:1956  newOwner != address(0) */\n      0xffffffffffffffffffffffffffffffffffffffff\n      and\n      eq\n      iszero\n        /* \"@openzeppelin/contracts/access/Ownable.sol\":1926:1999  require(newOwner != address(0), \"Ownable: new owner is the zero address\") */\n      tag_135\n      jumpi\n      mload(0x40)\n      0x08c379a000000000000000000000000000000000000000000000000000000000\n      dup2\n      mstore\n      0x04\n      add\n      tag_136\n      swap1\n      tag_137\n      jump\t// in\n    tag_136:\n      mload(0x40)\n      dup1\n      swap2\n      sub\n      swap1\n      revert\n    tag_135:\n        /* \"@openzeppelin/contracts/access/Ownable.sol\":2009:2028  _setOwner(newOwner) */\n      tag_138\n        /* \"@openzeppelin/contracts/access/Ownable.sol\":2019:2027  newOwner */\n      dup2\n        /* \"@openzeppelin/contracts/access/Ownable.sol\":2009:2018  _setOwner */\n      tag_102\n        /* \"@openzeppelin/contracts/access/Ownable.sol\":2009:2028  _setOwner(newOwner) */\n      jump\t// in\n    tag_138:\n        /* \"@openzeppelin/contracts/access/Ownable.sol\":1846:2035  function transferOwnership(address newOwner) public virtual onlyOwner {... */\n      pop\n      jump\t// out\n        /* \"contracts/PreSale.sol\":1312:1363  mapping(address => address) public lastClaimAddress */\n    tag_70:\n      mstore(0x20, 0x07)\n      dup1\n      0x00\n      mstore\n      keccak256(0x00, 0x40)\n      0x00\n      swap2\n      pop\n      sload\n      swap1\n      0x0100\n      exp\n      swap1\n      div\n      0xffffffffffffffffffffffffffffffffffffffff\n      and\n      dup2\n      jump\t// out\n        /* \"contracts/PreSale.sol\":884:909  IERC20 public rewardToken */\n    tag_74:\n      0x01\n      0x00\n      swap1\n      sload\n      swap1\n      0x0100\n      exp\n      swap1\n      div\n      0xffffffffffffffffffffffffffffffffffffffff\n      and\n      dup2\n      jump\t// out\n        /* \"@openzeppelin/contracts/utils/Context.sol\":586:682  function _msgSender() internal view virtual returns (address) {... */\n    tag_95:\n        /* \"@openzeppelin/contracts/utils/Context.sol\":639:646  address */\n      0x00\n        /* \"@openzeppelin/contracts/utils/Context.sol\":665:675  msg.sender */\n      caller\n        /* \"@openzeppelin/contracts/utils/Context.sol\":658:675  return msg.sender */\n      swap1\n      pop\n        /* \"@openzeppelin/contracts/utils/Context.sol\":586:682  function _msgSender() internal view virtual returns (address) {... */\n      swap1\n      jump\t// out\n        /* \"@openzeppelin/contracts/access/Ownable.sol\":2041:2210  function _setOwner(address newOwner) private {... */\n    tag_102:\n        /* \"@openzeppelin/contracts/access/Ownable.sol\":2096:2112  address oldOwner */\n      0x00\n        /* \"@openzeppelin/contracts/access/Ownable.sol\":2115:2121  _owner */\n      dup1\n      0x00\n      swap1\n      sload\n      swap1\n      0x0100\n      exp\n      swap1\n      div\n      0xffffffffffffffffffffffffffffffffffffffff\n      and\n        /* \"@openzeppelin/contracts/access/Ownable.sol\":2096:2121  address oldOwner = _owner */\n      swap1\n      pop\n        /* \"@openzeppelin/contracts/access/Ownable.sol\":2140:2148  newOwner */\n      dup2\n        /* \"@openzeppelin/contracts/access/Ownable.sol\":2131:2137  _owner */\n      0x00\n      dup1\n        /* \"@openzeppelin/contracts/access/Ownable.sol\":2131:2148  _owner = newOwner */\n      0x0100\n      exp\n      dup2\n      sload\n      dup2\n      0xffffffffffffffffffffffffffffffffffffffff\n      mul\n      not\n      and\n      swap1\n      dup4\n      0xffffffffffffffffffffffffffffffffffffffff\n      and\n      mul\n      or\n      swap1\n      sstore\n      pop\n        /* \"@openzeppelin/contracts/access/Ownable.sol\":2194:2202  newOwner */\n      dup2\n        /* \"@openzeppelin/contracts/access/Ownable.sol\":2163:2203  OwnershipTransferred(oldOwner, newOwner) */\n      0xffffffffffffffffffffffffffffffffffffffff\n      and\n        /* \"@openzeppelin/contracts/access/Ownable.sol\":2184:2192  oldOwner */\n      dup2\n        /* \"@openzeppelin/contracts/access/Ownable.sol\":2163:2203  OwnershipTransferred(oldOwner, newOwner) */\n      0xffffffffffffffffffffffffffffffffffffffff\n      and\n      0x8be0079c531659141344cd1fd0a4f28419497f9722a3daafe3b4186f6b6457e0\n      mload(0x40)\n      mload(0x40)\n      dup1\n      swap2\n      sub\n      swap1\n      log3\n        /* \"@openzeppelin/contracts/access/Ownable.sol\":2086:2210  {... */\n      pop\n        /* \"@openzeppelin/contracts/access/Ownable.sol\":2041:2210  function _setOwner(address newOwner) private {... */\n      pop\n      jump\t// out\n        /* \"@openzeppelin/contracts/utils/math/SafeMath.sol\":3382:3478  function mul(uint256 a, uint256 b) internal pure returns (uint256) {... */\n    tag_111:\n        /* \"@openzeppelin/contracts/utils/math/SafeMath.sol\":3440:3447  uint256 */\n      0x00\n        /* \"@openzeppelin/contracts/utils/math/SafeMath.sol\":3470:3471  b */\n      dup2\n        /* \"@openzeppelin/contracts/utils/math/SafeMath.sol\":3466:3467  a */\n      dup4\n        /* \"@openzeppelin/contracts/utils/math/SafeMath.sol\":3466:3471  a * b */\n      tag_142\n      swap2\n      swap1\n      tag_143\n      jump\t// in\n    tag_142:\n        /* \"@openzeppelin/contracts/utils/math/SafeMath.sol\":3459:3471  return a * b */\n      swap1\n      pop\n        /* \"@openzeppelin/contracts/utils/math/SafeMath.sol\":3382:3478  function mul(uint256 a, uint256 b) internal pure returns (uint256) {... */\n      swap3\n      swap2\n      pop\n      pop\n      jump\t// out\n        /* \"@openzeppelin/contracts/utils/math/SafeMath.sol\":3767:3863  function div(uint256 a, uint256 b) internal pure returns (uint256) {... */\n    tag_112:\n        /* \"@openzeppelin/contracts/utils/math/SafeMath.sol\":3825:3832  uint256 */\n      0x00\n        /* \"@openzeppelin/contracts/utils/math/SafeMath.sol\":3855:3856  b */\n      dup2\n        /* \"@openzeppelin/contracts/utils/math/SafeMath.sol\":3851:3852  a */\n      dup4\n        /* \"@openzeppelin/contracts/utils/math/SafeMath.sol\":3851:3856  a / b */\n      tag_145\n      swap2\n      swap1\n      tag_146\n      jump\t// in\n    tag_145:\n        /* \"@openzeppelin/contracts/utils/math/SafeMath.sol\":3844:3856  return a / b */\n      swap1\n      pop\n        /* \"@openzeppelin/contracts/utils/math/SafeMath.sol\":3767:3863  function div(uint256 a, uint256 b) internal pure returns (uint256) {... */\n      swap3\n      swap2\n      pop\n      pop\n      jump\t// out\n        /* \"@openzeppelin/contracts/utils/math/SafeMath.sol\":3039:3135  function sub(uint256 a, uint256 b) internal pure returns (uint256) {... */\n    tag_115:\n        /* \"@openzeppelin/contracts/utils/math/SafeMath.sol\":3097:3104  uint256 */\n      0x00\n        /* \"@openzeppelin/contracts/utils/math/SafeMath.sol\":3127:3128  b */\n      dup2\n        /* \"@openzeppelin/contracts/utils/math/SafeMath.sol\":3123:3124  a */\n      dup4\n        /* \"@openzeppelin/contracts/utils/math/SafeMath.sol\":3123:3128  a - b */\n      tag_148\n      swap2\n      swap1\n      tag_149\n      jump\t// in\n    tag_148:\n        /* \"@openzeppelin/contracts/utils/math/SafeMath.sol\":3116:3128  return a - b */\n      swap1\n      pop\n        /* \"@openzeppelin/contracts/utils/math/SafeMath.sol\":3039:3135  function sub(uint256 a, uint256 b) internal pure returns (uint256) {... */\n      swap3\n      swap2\n      pop\n      pop\n      jump\t// out\n        /* \"@openzeppelin/contracts/token/ERC20/utils/SafeERC20.sol\":845:1086  function safeTransferFrom(... */\n    tag_122:\n        /* \"@openzeppelin/contracts/token/ERC20/utils/SafeERC20.sol\":983:1079  _callOptionalReturn(token, abi.encodeWithSelector(token.transferFrom.selector, from, to, value)) */\n      tag_151\n        /* \"@openzeppelin/contracts/token/ERC20/utils/SafeERC20.sol\":1003:1008  token */\n      dup5\n        /* \"@openzeppelin/contracts/token/ERC20/utils/SafeERC20.sol\":1033:1060  token.transferFrom.selector */\n      shl(0xe0, 0x23b872dd)\n        /* \"@openzeppelin/contracts/token/ERC20/utils/SafeERC20.sol\":1062:1066  from */\n      dup6\n        /* \"@openzeppelin/contracts/token/ERC20/utils/SafeERC20.sol\":1068:1070  to */\n      dup6\n        /* \"@openzeppelin/contracts/token/ERC20/utils/SafeERC20.sol\":1072:1077  value */\n      dup6\n        /* \"@openzeppelin/contracts/token/ERC20/utils/SafeERC20.sol\":1010:1078  abi.encodeWithSelector(token.transferFrom.selector, from, to, value) */\n      add(0x24, mload(0x40))\n      tag_152\n      swap4\n      swap3\n      swap2\n      swap1\n      tag_153\n      jump\t// in\n    tag_152:\n      mload(0x40)\n      0x20\n      dup2\n      dup4\n      sub\n      sub\n      dup2\n      mstore\n      swap1\n      0x40\n      mstore\n      swap1\n      not(0xffffffffffffffffffffffffffffffffffffffffffffffffffffffff)\n      and\n      0x20\n      dup3\n      add\n      dup1\n      mload\n      0xffffffffffffffffffffffffffffffffffffffffffffffffffffffff\n      dup4\n      dup2\n      dup4\n      and\n      or\n      dup4\n      mstore\n      pop\n      pop\n      pop\n      pop\n        /* \"@openzeppelin/contracts/token/ERC20/utils/SafeERC20.sol\":983:1002  _callOptionalReturn */\n      tag_154\n        /* \"@openzeppelin/contracts/token/ERC20/utils/SafeERC20.sol\":983:1079  _callOptionalReturn(token, abi.encodeWithSelector(token.transferFrom.selector, from, to, value)) */\n      jump\t// in\n    tag_151:\n        /* \"@openzeppelin/contracts/token/ERC20/utils/SafeERC20.sol\":845:1086  function safeTransferFrom(... */\n      pop\n      pop\n      pop\n      pop\n      jump\t// out\n        /* \"contracts/libraries/TransferHelper.sol\":1026:1274  function safeTransferETH(address to, uint256 value) internal {... */\n    tag_125:\n        /* \"contracts/libraries/TransferHelper.sol\":1098:1110  bool success */\n      0x00\n        /* \"contracts/libraries/TransferHelper.sol\":1116:1118  to */\n      dup3\n        /* \"contracts/libraries/TransferHelper.sol\":1116:1123  to.call */\n      0xffffffffffffffffffffffffffffffffffffffff\n      and\n        /* \"contracts/libraries/TransferHelper.sol\":1131:1136  value */\n      dup3\n        /* \"contracts/libraries/TransferHelper.sol\":1148:1149  0 */\n      0x00\n        /* \"contracts/libraries/TransferHelper.sol\":1138:1150  new bytes(0) */\n      0xffffffffffffffff\n      dup2\n      gt\n      iszero\n      tag_156\n      jumpi\n      tag_157\n      tag_158\n      jump\t// in\n    tag_157:\n    tag_156:\n      mload(0x40)\n      swap1\n      dup1\n      dup3\n      mstore\n      dup1\n      0x1f\n      add\n      not(0x1f)\n      and\n      0x20\n      add\n      dup3\n      add\n      0x40\n      mstore\n      dup1\n      iszero\n      tag_159\n      jumpi\n      dup2\n      0x20\n      add\n      0x01\n      dup3\n      mul\n      dup1\n      calldatasize\n      dup4\n      calldatacopy\n      dup1\n      dup3\n      add\n      swap2\n      pop\n      pop\n      swap1\n      pop\n    tag_159:\n      pop\n        /* \"contracts/libraries/TransferHelper.sol\":1116:1151  to.call{value: value}(new bytes(0)) */\n      mload(0x40)\n      tag_160\n      swap2\n      swap1\n      tag_161\n      jump\t// in\n    tag_160:\n      0x00\n      mload(0x40)\n      dup1\n      dup4\n      sub\n      dup2\n      dup6\n      dup8\n      gas\n      call\n      swap3\n      pop\n      pop\n      pop\n      returndatasize\n      dup1\n      0x00\n      dup2\n      eq\n      tag_164\n      jumpi\n      mload(0x40)\n      swap2\n      pop\n      and(add(returndatasize, 0x3f), not(0x1f))\n      dup3\n      add\n      0x40\n      mstore\n      returndatasize\n      dup3\n      mstore\n      returndatasize\n      0x00\n      0x20\n      dup5\n      add\n      returndatacopy\n      jump(tag_163)\n    tag_164:\n      0x60\n      swap2\n      pop\n    tag_163:\n      pop\n        /* \"contracts/libraries/TransferHelper.sol\":1097:1151  (bool success, ) = to.call{value: value}(new bytes(0)) */\n      pop\n      swap1\n      pop\n        /* \"contracts/libraries/TransferHelper.sol\":1182:1189  success */\n      dup1\n        /* \"contracts/libraries/TransferHelper.sol\":1161:1267  require(... */\n      tag_165\n      jumpi\n      mload(0x40)\n      0x08c379a000000000000000000000000000000000000000000000000000000000\n      dup2\n      mstore\n      0x04\n      add\n      tag_166\n      swap1\n      tag_167\n      jump\t// in\n    tag_166:\n      mload(0x40)\n      dup1\n      swap2\n      sub\n      swap1\n      revert\n    tag_165:\n        /* \"contracts/libraries/TransferHelper.sol\":1087:1274  {... */\n      pop\n        /* \"contracts/libraries/TransferHelper.sol\":1026:1274  function safeTransferETH(address to, uint256 value) internal {... */\n      pop\n      pop\n      jump\t// out\n        /* \"contracts/libraries/TransferHelper.sol\":210:594  function safeTransfer(... */\n    tag_128:\n        /* \"contracts/libraries/TransferHelper.sol\":324:336  bool success */\n      0x00\n        /* \"contracts/libraries/TransferHelper.sol\":338:355  bytes memory data */\n      dup1\n        /* \"contracts/libraries/TransferHelper.sol\":371:376  token */\n      dup5\n        /* \"contracts/libraries/TransferHelper.sol\":371:381  token.call */\n      0xffffffffffffffffffffffffffffffffffffffff\n      and\n        /* \"contracts/libraries/TransferHelper.sol\":405:415  0xa9059cbb */\n      0xa9059cbb\n        /* \"contracts/libraries/TransferHelper.sol\":417:419  to */\n      dup6\n        /* \"contracts/libraries/TransferHelper.sol\":421:426  value */\n      dup6\n        /* \"contracts/libraries/TransferHelper.sol\":382:427  abi.encodeWithSelector(0xa9059cbb, to, value) */\n      add(0x24, mload(0x40))\n      tag_169\n      swap3\n      swap2\n      swap1\n      tag_170\n      jump\t// in\n    tag_169:\n      mload(0x40)\n      0x20\n      dup2\n      dup4\n      sub\n      sub\n      dup2\n      mstore\n      swap1\n      0x40\n      mstore\n      swap1\n      0xe0\n      shl\n      0x20\n      dup3\n      add\n      dup1\n      mload\n      0xffffffffffffffffffffffffffffffffffffffffffffffffffffffff\n      dup4\n      dup2\n      dup4\n      and\n      or\n      dup4\n      mstore\n      pop\n      pop\n      pop\n      pop\n        /* \"contracts/libraries/TransferHelper.sol\":371:428  token.call(abi.encodeWithSelector(0xa9059cbb, to, value)) */\n      mload(0x40)\n      tag_171\n      swap2\n      swap1\n      tag_161\n      jump\t// in\n    tag_171:\n      0x00\n      mload(0x40)\n      dup1\n      dup4\n      sub\n      dup2\n      0x00\n      dup7\n      gas\n      call\n      swap2\n      pop\n      pop\n      returndatasize\n      dup1\n      0x00\n      dup2\n      eq\n      tag_174\n      jumpi\n      mload(0x40)\n      swap2\n      pop\n      and(add(returndatasize, 0x3f), not(0x1f))\n      dup3\n      add\n      0x40\n      mstore\n      returndatasize\n      dup3\n      mstore\n      returndatasize\n      0x00\n      0x20\n      dup5\n      add\n      returndatacopy\n      jump(tag_173)\n    tag_174:\n      0x60\n      swap2\n      pop\n    tag_173:\n      pop\n        /* \"contracts/libraries/TransferHelper.sol\":323:428  (bool success, bytes memory data) =... */\n      swap2\n      pop\n      swap2\n      pop\n        /* \"contracts/libraries/TransferHelper.sol\":459:466  success */\n      dup2\n        /* \"contracts/libraries/TransferHelper.sol\":459:516  success && (data.length == 0 || abi.decode(data, (bool))) */\n      dup1\n      iszero\n      tag_175\n      jumpi\n      pop\n        /* \"contracts/libraries/TransferHelper.sol\":486:487  0 */\n      0x00\n        /* \"contracts/libraries/TransferHelper.sol\":471:475  data */\n      dup2\n        /* \"contracts/libraries/TransferHelper.sol\":471:482  data.length */\n      mload\n        /* \"contracts/libraries/TransferHelper.sol\":471:487  data.length == 0 */\n      eq\n        /* \"contracts/libraries/TransferHelper.sol\":471:515  data.length == 0 || abi.decode(data, (bool)) */\n      dup1\n      tag_176\n      jumpi\n      pop\n        /* \"contracts/libraries/TransferHelper.sol\":502:506  data */\n      dup1\n        /* \"contracts/libraries/TransferHelper.sol\":491:515  abi.decode(data, (bool)) */\n      dup1\n      0x20\n      add\n      swap1\n      mload\n      dup2\n      add\n      swap1\n      tag_177\n      swap2\n      swap1\n      tag_178\n      jump\t// in\n    tag_177:\n        /* \"contracts/libraries/TransferHelper.sol\":471:515  data.length == 0 || abi.decode(data, (bool)) */\n    tag_176:\n        /* \"contracts/libraries/TransferHelper.sol\":459:516  success && (data.length == 0 || abi.decode(data, (bool))) */\n    tag_175:\n        /* \"contracts/libraries/TransferHelper.sol\":438:587  require(... */\n      tag_179\n      jumpi\n      mload(0x40)\n      0x08c379a000000000000000000000000000000000000000000000000000000000\n      dup2\n      mstore\n      0x04\n      add\n      tag_180\n      swap1\n      tag_181\n      jump\t// in\n    tag_180:\n      mload(0x40)\n      dup1\n      swap2\n      sub\n      swap1\n      revert\n    tag_179:\n        /* \"contracts/libraries/TransferHelper.sol\":313:594  {... */\n      pop\n      pop\n        /* \"contracts/libraries/TransferHelper.sol\":210:594  function safeTransfer(... */\n      pop\n      pop\n      pop\n      jump\t// out\n        /* \"@openzeppelin/contracts/token/ERC20/utils/SafeERC20.sol\":3140:3846  function _callOptionalReturn(IERC20 token, bytes memory data) private {... */\n    tag_154:\n        /* \"@openzeppelin/contracts/token/ERC20/utils/SafeERC20.sol\":3559:3582  bytes memory returndata */\n      0x00\n        /* \"@openzeppelin/contracts/token/ERC20/utils/SafeERC20.sol\":3585:3654  address(token).functionCall(data, \"SafeERC20: low-level call failed\") */\n      tag_183\n        /* \"@openzeppelin/contracts/token/ERC20/utils/SafeERC20.sol\":3613:3617  data */\n      dup3\n        /* \"@openzeppelin/contracts/token/ERC20/utils/SafeERC20.sol\":3585:3654  address(token).functionCall(data, \"SafeERC20: low-level call failed\") */\n      mload(0x40)\n      dup1\n      0x40\n      add\n      0x40\n      mstore\n      dup1\n      0x20\n      dup2\n      mstore\n      0x20\n      add\n      0x5361666545524332303a206c6f772d6c6576656c2063616c6c206661696c6564\n      dup2\n      mstore\n      pop\n        /* \"@openzeppelin/contracts/token/ERC20/utils/SafeERC20.sol\":3593:3598  token */\n      dup6\n        /* \"@openzeppelin/contracts/token/ERC20/utils/SafeERC20.sol\":3585:3612  address(token).functionCall */\n      0xffffffffffffffffffffffffffffffffffffffff\n      and\n      tag_184\n      swap1\n        /* \"@openzeppelin/contracts/token/ERC20/utils/SafeERC20.sol\":3585:3654  address(token).functionCall(data, \"SafeERC20: low-level call failed\") */\n      swap3\n      swap2\n      swap1\n      0xffffffff\n      and\n      jump\t// in\n    tag_183:\n        /* \"@openzeppelin/contracts/token/ERC20/utils/SafeERC20.sol\":3559:3654  bytes memory returndata = address(token).functionCall(data, \"SafeERC20: low-level call failed\") */\n      swap1\n      pop\n        /* \"@openzeppelin/contracts/token/ERC20/utils/SafeERC20.sol\":3688:3689  0 */\n      0x00\n        /* \"@openzeppelin/contracts/token/ERC20/utils/SafeERC20.sol\":3668:3678  returndata */\n      dup2\n        /* \"@openzeppelin/contracts/token/ERC20/utils/SafeERC20.sol\":3668:3685  returndata.length */\n      mload\n        /* \"@openzeppelin/contracts/token/ERC20/utils/SafeERC20.sol\":3668:3689  returndata.length > 0 */\n      gt\n        /* \"@openzeppelin/contracts/token/ERC20/utils/SafeERC20.sol\":3664:3840  if (returndata.length > 0) {... */\n      iszero\n      tag_185\n      jumpi\n        /* \"@openzeppelin/contracts/token/ERC20/utils/SafeERC20.sol\":3763:3773  returndata */\n      dup1\n        /* \"@openzeppelin/contracts/token/ERC20/utils/SafeERC20.sol\":3752:3782  abi.decode(returndata, (bool)) */\n      dup1\n      0x20\n      add\n      swap1\n      mload\n      dup2\n      add\n      swap1\n      tag_186\n      swap2\n      swap1\n      tag_178\n      jump\t// in\n    tag_186:\n        /* \"@openzeppelin/contracts/token/ERC20/utils/SafeERC20.sol\":3744:3829  require(abi.decode(returndata, (bool)), \"SafeERC20: ERC20 operation did not succeed\") */\n      tag_187\n      jumpi\n      mload(0x40)\n      0x08c379a000000000000000000000000000000000000000000000000000000000\n      dup2\n      mstore\n      0x04\n      add\n      tag_188\n      swap1\n      tag_189\n      jump\t// in\n    tag_188:\n      mload(0x40)\n      dup1\n      swap2\n      sub\n      swap1\n      revert\n    tag_187:\n        /* \"@openzeppelin/contracts/token/ERC20/utils/SafeERC20.sol\":3664:3840  if (returndata.length > 0) {... */\n    tag_185:\n        /* \"@openzeppelin/contracts/token/ERC20/utils/SafeERC20.sol\":3210:3846  {... */\n      pop\n        /* \"@openzeppelin/contracts/token/ERC20/utils/SafeERC20.sol\":3140:3846  function _callOptionalReturn(IERC20 token, bytes memory data) private {... */\n      pop\n      pop\n      jump\t// out\n        /* \"@openzeppelin/contracts/utils/Address.sol\":3461:3684  function functionCall(... */\n    tag_184:\n        /* \"@openzeppelin/contracts/utils/Address.sol\":3594:3606  bytes memory */\n      0x60\n        /* \"@openzeppelin/contracts/utils/Address.sol\":3625:3677  functionCallWithValue(target, data, 0, errorMessage) */\n      tag_191\n        /* \"@openzeppelin/contracts/utils/Address.sol\":3647:3653  target */\n      dup5\n        /* \"@openzeppelin/contracts/utils/Address.sol\":3655:3659  data */\n      dup5\n        /* \"@openzeppelin/contracts/utils/Address.sol\":3661:3662  0 */\n      0x00\n        /* \"@openzeppelin/contracts/utils/Address.sol\":3664:3676  errorMessage */\n      dup6\n        /* \"@openzeppelin/contracts/utils/Address.sol\":3625:3646  functionCallWithValue */\n      tag_192\n        /* \"@openzeppelin/contracts/utils/Address.sol\":3625:3677  functionCallWithValue(target, data, 0, errorMessage) */\n      jump\t// in\n    tag_191:\n        /* \"@openzeppelin/contracts/utils/Address.sol\":3618:3677  return functionCallWithValue(target, data, 0, errorMessage) */\n      swap1\n      pop\n        /* \"@openzeppelin/contracts/utils/Address.sol\":3461:3684  function functionCall(... */\n      swap4\n      swap3\n      pop\n      pop\n      pop\n      jump\t// out\n        /* \"@openzeppelin/contracts/utils/Address.sol\":4548:5048  function functionCallWithValue(... */\n    tag_192:\n        /* \"@openzeppelin/contracts/utils/Address.sol\":4713:4725  bytes memory */\n      0x60\n        /* \"@openzeppelin/contracts/utils/Address.sol\":4770:4775  value */\n      dup3\n        /* \"@openzeppelin/contracts/utils/Address.sol\":4745:4766  address(this).balance */\n      selfbalance\n        /* \"@openzeppelin/contracts/utils/Address.sol\":4745:4775  address(this).balance >= value */\n      lt\n      iszero\n        /* \"@openzeppelin/contracts/utils/Address.sol\":4737:4818  require(address(this).balance >= value, \"Address: insufficient balance for call\") */\n      tag_194\n      jumpi\n      mload(0x40)\n      0x08c379a000000000000000000000000000000000000000000000000000000000\n      dup2\n      mstore\n      0x04\n      add\n      tag_195\n      swap1\n      tag_196\n      jump\t// in\n    tag_195:\n      mload(0x40)\n      dup1\n      swap2\n      sub\n      swap1\n      revert\n    tag_194:\n        /* \"@openzeppelin/contracts/utils/Address.sol\":4836:4854  isContract(target) */\n      tag_197\n        /* \"@openzeppelin/contracts/utils/Address.sol\":4847:4853  target */\n      dup6\n        /* \"@openzeppelin/contracts/utils/Address.sol\":4836:4846  isContract */\n      tag_198\n        /* \"@openzeppelin/contracts/utils/Address.sol\":4836:4854  isContract(target) */\n      jump\t// in\n    tag_197:\n        /* \"@openzeppelin/contracts/utils/Address.sol\":4828:4888  require(isContract(target), \"Address: call to non-contract\") */\n      tag_199\n      jumpi\n      mload(0x40)\n      0x08c379a000000000000000000000000000000000000000000000000000000000\n      dup2\n      mstore\n      0x04\n      add\n      tag_200\n      swap1\n      tag_201\n      jump\t// in\n    tag_200:\n      mload(0x40)\n      dup1\n      swap2\n      sub\n      swap1\n      revert\n    tag_199:\n        /* \"@openzeppelin/contracts/utils/Address.sol\":4900:4912  bool success */\n      0x00\n        /* \"@openzeppelin/contracts/utils/Address.sol\":4914:4937  bytes memory returndata */\n      dup1\n        /* \"@openzeppelin/contracts/utils/Address.sol\":4941:4947  target */\n      dup7\n        /* \"@openzeppelin/contracts/utils/Address.sol\":4941:4952  target.call */\n      0xffffffffffffffffffffffffffffffffffffffff\n      and\n        /* \"@openzeppelin/contracts/utils/Address.sol\":4960:4965  value */\n      dup6\n        /* \"@openzeppelin/contracts/utils/Address.sol\":4967:4971  data */\n      dup8\n        /* \"@openzeppelin/contracts/utils/Address.sol\":4941:4972  target.call{value: value}(data) */\n      mload(0x40)\n      tag_202\n      swap2\n      swap1\n      tag_161\n      jump\t// in\n    tag_202:\n      0x00\n      mload(0x40)\n      dup1\n      dup4\n      sub\n      dup2\n      dup6\n      dup8\n      gas\n      call\n      swap3\n      pop\n      pop\n      pop\n      returndatasize\n      dup1\n      0x00\n      dup2\n      eq\n      tag_205\n      jumpi\n      mload(0x40)\n      swap2\n      pop\n      and(add(returndatasize, 0x3f), not(0x1f))\n      dup3\n      add\n      0x40\n      mstore\n      returndatasize\n      dup3\n      mstore\n      returndatasize\n      0x00\n      0x20\n      dup5\n      add\n      returndatacopy\n      jump(tag_204)\n    tag_205:\n      0x60\n      swap2\n      pop\n    tag_204:\n      pop\n        /* \"@openzeppelin/contracts/utils/Address.sol\":4899:4972  (bool success, bytes memory returndata) = target.call{value: value}(data) */\n      swap2\n      pop\n      swap2\n      pop\n        /* \"@openzeppelin/contracts/utils/Address.sol\":4989:5041  _verifyCallResult(success, returndata, errorMessage) */\n      tag_206\n        /* \"@openzeppelin/contracts/utils/Address.sol\":5007:5014  success */\n      dup3\n        /* \"@openzeppelin/contracts/utils/Address.sol\":5016:5026  returndata */\n      dup3\n        /* \"@openzeppelin/contracts/utils/Address.sol\":5028:5040  errorMessage */\n      dup7\n        /* \"@openzeppelin/contracts/utils/Address.sol\":4989:5006  _verifyCallResult */\n      tag_207\n        /* \"@openzeppelin/contracts/utils/Address.sol\":4989:5041  _verifyCallResult(success, returndata, errorMessage) */\n      jump\t// in\n    tag_206:\n        /* \"@openzeppelin/contracts/utils/Address.sol\":4982:5041  return _verifyCallResult(success, returndata, errorMessage) */\n      swap3\n      pop\n      pop\n      pop\n        /* \"@openzeppelin/contracts/utils/Address.sol\":4548:5048  function functionCallWithValue(... */\n      swap5\n      swap4\n      pop\n      pop\n      pop\n      pop\n      jump\t// out\n        /* \"@openzeppelin/contracts/utils/Address.sol\":718:1095  function isContract(address account) internal view returns (bool) {... */\n    tag_198:\n        /* \"@openzeppelin/contracts/utils/Address.sol\":778:782  bool */\n      0x00\n        /* \"@openzeppelin/contracts/utils/Address.sol\":981:993  uint256 size */\n      dup1\n        /* \"@openzeppelin/contracts/utils/Address.sol\":1046:1053  account */\n      dup3\n        /* \"@openzeppelin/contracts/utils/Address.sol\":1034:1054  extcodesize(account) */\n      extcodesize\n        /* \"@openzeppelin/contracts/utils/Address.sol\":1026:1054  size := extcodesize(account) */\n      swap1\n      pop\n        /* \"@openzeppelin/contracts/utils/Address.sol\":1087:1088  0 */\n      0x00\n        /* \"@openzeppelin/contracts/utils/Address.sol\":1080:1084  size */\n      dup2\n        /* \"@openzeppelin/contracts/utils/Address.sol\":1080:1088  size > 0 */\n      gt\n        /* \"@openzeppelin/contracts/utils/Address.sol\":1073:1088  return size > 0 */\n      swap2\n      pop\n      pop\n        /* \"@openzeppelin/contracts/utils/Address.sol\":718:1095  function isContract(address account) internal view returns (bool) {... */\n      swap2\n      swap1\n      pop\n      jump\t// out\n        /* \"@openzeppelin/contracts/utils/Address.sol\":6950:7642  function _verifyCallResult(... */\n    tag_207:\n        /* \"@openzeppelin/contracts/utils/Address.sol\":7096:7108  bytes memory */\n      0x60\n        /* \"@openzeppelin/contracts/utils/Address.sol\":7124:7131  success */\n      dup4\n        /* \"@openzeppelin/contracts/utils/Address.sol\":7120:7636  if (success) {... */\n      iszero\n      tag_210\n      jumpi\n        /* \"@openzeppelin/contracts/utils/Address.sol\":7154:7164  returndata */\n      dup3\n        /* \"@openzeppelin/contracts/utils/Address.sol\":7147:7164  return returndata */\n      swap1\n      pop\n      jump(tag_209)\n        /* \"@openzeppelin/contracts/utils/Address.sol\":7120:7636  if (success) {... */\n    tag_210:\n        /* \"@openzeppelin/contracts/utils/Address.sol\":7285:7286  0 */\n      0x00\n        /* \"@openzeppelin/contracts/utils/Address.sol\":7265:7275  returndata */\n      dup4\n        /* \"@openzeppelin/contracts/utils/Address.sol\":7265:7282  returndata.length */\n      mload\n        /* \"@openzeppelin/contracts/utils/Address.sol\":7265:7286  returndata.length > 0 */\n      gt\n        /* \"@openzeppelin/contracts/utils/Address.sol\":7261:7626  if (returndata.length > 0) {... */\n      iszero\n      tag_212\n      jumpi\n        /* \"@openzeppelin/contracts/utils/Address.sol\":7459:7469  returndata */\n      dup3\n        /* \"@openzeppelin/contracts/utils/Address.sol\":7453:7470  mload(returndata) */\n      mload\n        /* \"@openzeppelin/contracts/utils/Address.sol\":7519:7534  returndata_size */\n      dup1\n        /* \"@openzeppelin/contracts/utils/Address.sol\":7506:7516  returndata */\n      dup5\n        /* \"@openzeppelin/contracts/utils/Address.sol\":7502:7504  32 */\n      0x20\n        /* \"@openzeppelin/contracts/utils/Address.sol\":7498:7517  add(32, returndata) */\n      add\n        /* \"@openzeppelin/contracts/utils/Address.sol\":7491:7535  revert(add(32, returndata), returndata_size) */\n      revert\n        /* \"@openzeppelin/contracts/utils/Address.sol\":7261:7626  if (returndata.length > 0) {... */\n    tag_212:\n        /* \"@openzeppelin/contracts/utils/Address.sol\":7598:7610  errorMessage */\n      dup2\n        /* \"@openzeppelin/contracts/utils/Address.sol\":7591:7611  revert(errorMessage) */\n      mload(0x40)\n      0x08c379a000000000000000000000000000000000000000000000000000000000\n      dup2\n      mstore\n      0x04\n      add\n      tag_214\n      swap2\n      swap1\n      tag_215\n      jump\t// in\n    tag_214:\n      mload(0x40)\n      dup1\n      swap2\n      sub\n      swap1\n      revert\n        /* \"@openzeppelin/contracts/utils/Address.sol\":6950:7642  function _verifyCallResult(... */\n    tag_209:\n      swap4\n      swap3\n      pop\n      pop\n      pop\n      jump\t// out\n        /* \"#utility.yul\":7:146   */\n    tag_217:\n        /* \"#utility.yul\":53:58   */\n      0x00\n        /* \"#utility.yul\":91:97   */\n      dup2\n        /* \"#utility.yul\":78:98   */\n      calldataload\n        /* \"#utility.yul\":69:98   */\n      swap1\n      pop\n        /* \"#utility.yul\":107:140   */\n      tag_219\n        /* \"#utility.yul\":134:139   */\n      dup2\n        /* \"#utility.yul\":107:140   */\n      tag_220\n      jump\t// in\n    tag_219:\n        /* \"#utility.yul\":7:146   */\n      swap3\n      swap2\n      pop\n      pop\n      jump\t// out\n        /* \"#utility.yul\":152:289   */\n    tag_221:\n        /* \"#utility.yul\":206:211   */\n      0x00\n        /* \"#utility.yul\":237:243   */\n      dup2\n        /* \"#utility.yul\":231:244   */\n      mload\n        /* \"#utility.yul\":222:244   */\n      swap1\n      pop\n        /* \"#utility.yul\":253:283   */\n      tag_223\n        /* \"#utility.yul\":277:282   */\n      dup2\n        /* \"#utility.yul\":253:283   */\n      tag_224\n      jump\t// in\n    tag_223:\n        /* \"#utility.yul\":152:289   */\n      swap3\n      swap2\n      pop\n      pop\n      jump\t// out\n        /* \"#utility.yul\":295:434   */\n    tag_225:\n        /* \"#utility.yul\":341:346   */\n      0x00\n        /* \"#utility.yul\":379:385   */\n      dup2\n        /* \"#utility.yul\":366:386   */\n      calldataload\n        /* \"#utility.yul\":357:386   */\n      swap1\n      pop\n        /* \"#utility.yul\":395:428   */\n      tag_227\n        /* \"#utility.yul\":422:427   */\n      dup2\n        /* \"#utility.yul\":395:428   */\n      tag_228\n      jump\t// in\n    tag_227:\n        /* \"#utility.yul\":295:434   */\n      swap3\n      swap2\n      pop\n      pop\n      jump\t// out\n        /* \"#utility.yul\":440:583   */\n    tag_229:\n        /* \"#utility.yul\":497:502   */\n      0x00\n        /* \"#utility.yul\":528:534   */\n      dup2\n        /* \"#utility.yul\":522:535   */\n      mload\n        /* \"#utility.yul\":513:535   */\n      swap1\n      pop\n        /* \"#utility.yul\":544:577   */\n      tag_231\n        /* \"#utility.yul\":571:576   */\n      dup2\n        /* \"#utility.yul\":544:577   */\n      tag_228\n      jump\t// in\n    tag_231:\n        /* \"#utility.yul\":440:583   */\n      swap3\n      swap2\n      pop\n      pop\n      jump\t// out\n        /* \"#utility.yul\":589:918   */\n    tag_34:\n        /* \"#utility.yul\":648:654   */\n      0x00\n        /* \"#utility.yul\":697:699   */\n      0x20\n        /* \"#utility.yul\":685:694   */\n      dup3\n        /* \"#utility.yul\":676:683   */\n      dup5\n        /* \"#utility.yul\":672:695   */\n      sub\n        /* \"#utility.yul\":668:700   */\n      slt\n        /* \"#utility.yul\":665:784   */\n      iszero\n      tag_233\n      jumpi\n        /* \"#utility.yul\":703:782   */\n      tag_234\n      tag_235\n      jump\t// in\n    tag_234:\n        /* \"#utility.yul\":665:784   */\n    tag_233:\n        /* \"#utility.yul\":823:824   */\n      0x00\n        /* \"#utility.yul\":848:901   */\n      tag_236\n        /* \"#utility.yul\":893:900   */\n      dup5\n        /* \"#utility.yul\":884:890   */\n      dup3\n        /* \"#utility.yul\":873:882   */\n      dup6\n        /* \"#utility.yul\":869:891   */\n      add\n        /* \"#utility.yul\":848:901   */\n      tag_217\n      jump\t// in\n    tag_236:\n        /* \"#utility.yul\":838:901   */\n      swap2\n      pop\n        /* \"#utility.yul\":794:911   */\n      pop\n        /* \"#utility.yul\":589:918   */\n      swap3\n      swap2\n      pop\n      pop\n      jump\t// out\n        /* \"#utility.yul\":924:1269   */\n    tag_178:\n        /* \"#utility.yul\":991:997   */\n      0x00\n        /* \"#utility.yul\":1040:1042   */\n      0x20\n        /* \"#utility.yul\":1028:1037   */\n      dup3\n        /* \"#utility.yul\":1019:1026   */\n      dup5\n        /* \"#utility.yul\":1015:1038   */\n      sub\n        /* \"#utility.yul\":1011:1043   */\n      slt\n        /* \"#utility.yul\":1008:1127   */\n      iszero\n      tag_238\n      jumpi\n        /* \"#utility.yul\":1046:1125   */\n      tag_239\n      tag_235\n      jump\t// in\n    tag_239:\n        /* \"#utility.yul\":1008:1127   */\n    tag_238:\n        /* \"#utility.yul\":1166:1167   */\n      0x00\n        /* \"#utility.yul\":1191:1252   */\n      tag_240\n        /* \"#utility.yul\":1244:1251   */\n      dup5\n        /* \"#utility.yul\":1235:1241   */\n      dup3\n        /* \"#utility.yul\":1224:1233   */\n      dup6\n        /* \"#utility.yul\":1220:1242   */\n      add\n        /* \"#utility.yul\":1191:1252   */\n      tag_221\n      jump\t// in\n    tag_240:\n        /* \"#utility.yul\":1181:1252   */\n      swap2\n      pop\n        /* \"#utility.yul\":1137:1262   */\n      pop\n        /* \"#utility.yul\":924:1269   */\n      swap3\n      swap2\n      pop\n      pop\n      jump\t// out\n        /* \"#utility.yul\":1275:1604   */\n    tag_61:\n        /* \"#utility.yul\":1334:1340   */\n      0x00\n        /* \"#utility.yul\":1383:1385   */\n      0x20\n        /* \"#utility.yul\":1371:1380   */\n      dup3\n        /* \"#utility.yul\":1362:1369   */\n      dup5\n        /* \"#utility.yul\":1358:1381   */\n      sub\n        /* \"#utility.yul\":1354:1386   */\n      slt\n        /* \"#utility.yul\":1351:1470   */\n      iszero\n      tag_242\n      jumpi\n        /* \"#utility.yul\":1389:1468   */\n      tag_243\n      tag_235\n      jump\t// in\n    tag_243:\n        /* \"#utility.yul\":1351:1470   */\n    tag_242:\n        /* \"#utility.yul\":1509:1510   */\n      0x00\n        /* \"#utility.yul\":1534:1587   */\n      tag_244\n        /* \"#utility.yul\":1579:1586   */\n      dup5\n        /* \"#utility.yul\":1570:1576   */\n      dup3\n        /* \"#utility.yul\":1559:1568   */\n      dup6\n        /* \"#utility.yul\":1555:1577   */\n      add\n        /* \"#utility.yul\":1534:1587   */\n      tag_225\n      jump\t// in\n    tag_244:\n        /* \"#utility.yul\":1524:1587   */\n      swap2\n      pop\n        /* \"#utility.yul\":1480:1597   */\n      pop\n        /* \"#utility.yul\":1275:1604   */\n      swap3\n      swap2\n      pop\n      pop\n      jump\t// out\n        /* \"#utility.yul\":1610:1961   */\n    tag_84:\n        /* \"#utility.yul\":1680:1686   */\n      0x00\n        /* \"#utility.yul\":1729:1731   */\n      0x20\n        /* \"#utility.yul\":1717:1726   */\n      dup3\n        /* \"#utility.yul\":1708:1715   */\n      dup5\n        /* \"#utility.yul\":1704:1727   */\n      sub\n        /* \"#utility.yul\":1700:1732   */\n      slt\n        /* \"#utility.yul\":1697:1816   */\n      iszero\n      tag_246\n      jumpi\n        /* \"#utility.yul\":1735:1814   */\n      tag_247\n      tag_235\n      jump\t// in\n    tag_247:\n        /* \"#utility.yul\":1697:1816   */\n    tag_246:\n        /* \"#utility.yul\":1855:1856   */\n      0x00\n        /* \"#utility.yul\":1880:1944   */\n      tag_248\n        /* \"#utility.yul\":1936:1943   */\n      dup5\n        /* \"#utility.yul\":1927:1933   */\n      dup3\n        /* \"#utility.yul\":1916:1925   */\n      dup6\n        /* \"#utility.yul\":1912:1934   */\n      add\n        /* \"#utility.yul\":1880:1944   */\n      tag_229\n      jump\t// in\n    tag_248:\n        /* \"#utility.yul\":1870:1944   */\n      swap2\n      pop\n        /* \"#utility.yul\":1826:1954   */\n      pop\n        /* \"#utility.yul\":1610:1961   */\n      swap3\n      swap2\n      pop\n      pop\n      jump\t// out\n        /* \"#utility.yul\":1967:2085   */\n    tag_249:\n        /* \"#utility.yul\":2054:2078   */\n      tag_251\n        /* \"#utility.yul\":2072:2077   */\n      dup2\n        /* \"#utility.yul\":2054:2078   */\n      tag_252\n      jump\t// in\n    tag_251:\n        /* \"#utility.yul\":2049:2052   */\n      dup3\n        /* \"#utility.yul\":2042:2079   */\n      mstore\n        /* \"#utility.yul\":1967:2085   */\n      pop\n      pop\n      jump\t// out\n        /* \"#utility.yul\":2091:2464   */\n    tag_253:\n        /* \"#utility.yul\":2195:2198   */\n      0x00\n        /* \"#utility.yul\":2223:2261   */\n      tag_255\n        /* \"#utility.yul\":2255:2260   */\n      dup3\n        /* \"#utility.yul\":2223:2261   */\n      tag_256\n      jump\t// in\n    tag_255:\n        /* \"#utility.yul\":2277:2365   */\n      tag_257\n        /* \"#utility.yul\":2358:2364   */\n      dup2\n        /* \"#utility.yul\":2353:2356   */\n      dup6\n        /* \"#utility.yul\":2277:2365   */\n      tag_258\n      jump\t// in\n    tag_257:\n        /* \"#utility.yul\":2270:2365   */\n      swap4\n      pop\n        /* \"#utility.yul\":2374:2426   */\n      tag_259\n        /* \"#utility.yul\":2419:2425   */\n      dup2\n        /* \"#utility.yul\":2414:2417   */\n      dup6\n        /* \"#utility.yul\":2407:2411   */\n      0x20\n        /* \"#utility.yul\":2400:2405   */\n      dup7\n        /* \"#utility.yul\":2396:2412   */\n      add\n        /* \"#utility.yul\":2374:2426   */\n      tag_260\n      jump\t// in\n    tag_259:\n        /* \"#utility.yul\":2451:2457   */\n      dup1\n        /* \"#utility.yul\":2446:2449   */\n      dup5\n        /* \"#utility.yul\":2442:2458   */\n      add\n        /* \"#utility.yul\":2435:2458   */\n      swap2\n      pop\n        /* \"#utility.yul\":2199:2464   */\n      pop\n        /* \"#utility.yul\":2091:2464   */\n      swap3\n      swap2\n      pop\n      pop\n      jump\t// out\n        /* \"#utility.yul\":2470:2629   */\n    tag_261:\n        /* \"#utility.yul\":2571:2622   */\n      tag_263\n        /* \"#utility.yul\":2616:2621   */\n      dup2\n        /* \"#utility.yul\":2571:2622   */\n      tag_264\n      jump\t// in\n    tag_263:\n        /* \"#utility.yul\":2566:2569   */\n      dup3\n        /* \"#utility.yul\":2559:2623   */\n      mstore\n        /* \"#utility.yul\":2470:2629   */\n      pop\n      pop\n      jump\t// out\n        /* \"#utility.yul\":2635:2999   */\n    tag_265:\n        /* \"#utility.yul\":2723:2726   */\n      0x00\n        /* \"#utility.yul\":2751:2790   */\n      tag_267\n        /* \"#utility.yul\":2784:2789   */\n      dup3\n        /* \"#utility.yul\":2751:2790   */\n      tag_268\n      jump\t// in\n    tag_267:\n        /* \"#utility.yul\":2806:2877   */\n      tag_269\n        /* \"#utility.yul\":2870:2876   */\n      dup2\n        /* \"#utility.yul\":2865:2868   */\n      dup6\n        /* \"#utility.yul\":2806:2877   */\n      tag_270\n      jump\t// in\n    tag_269:\n        /* \"#utility.yul\":2799:2877   */\n      swap4\n      pop\n        /* \"#utility.yul\":2886:2938   */\n      tag_271\n        /* \"#utility.yul\":2931:2937   */\n      dup2\n        /* \"#utility.yul\":2926:2929   */\n      dup6\n        /* \"#utility.yul\":2919:2923   */\n      0x20\n        /* \"#utility.yul\":2912:2917   */\n      dup7\n        /* \"#utility.yul\":2908:2924   */\n      add\n        /* \"#utility.yul\":2886:2938   */\n      tag_260\n      jump\t// in\n    tag_271:\n        /* \"#utility.yul\":2963:2992   */\n      tag_272\n        /* \"#utility.yul\":2985:2991   */\n      dup2\n        /* \"#utility.yul\":2963:2992   */\n      tag_273\n      jump\t// in\n    tag_272:\n        /* \"#utility.yul\":2958:2961   */\n      dup5\n        /* \"#utility.yul\":2954:2993   */\n      add\n        /* \"#utility.yul\":2947:2993   */\n      swap2\n      pop\n        /* \"#utility.yul\":2727:2999   */\n      pop\n        /* \"#utility.yul\":2635:2999   */\n      swap3\n      swap2\n      pop\n      pop\n      jump\t// out\n        /* \"#utility.yul\":3005:3371   */\n    tag_274:\n        /* \"#utility.yul\":3147:3150   */\n      0x00\n        /* \"#utility.yul\":3168:3235   */\n      tag_276\n        /* \"#utility.yul\":3232:3234   */\n      0x26\n        /* \"#utility.yul\":3227:3230   */\n      dup4\n        /* \"#utility.yul\":3168:3235   */\n      tag_270\n      jump\t// in\n    tag_276:\n        /* \"#utility.yul\":3161:3235   */\n      swap2\n      pop\n        /* \"#utility.yul\":3244:3337   */\n      tag_277\n        /* \"#utility.yul\":3333:3336   */\n      dup3\n        /* \"#utility.yul\":3244:3337   */\n      tag_278\n      jump\t// in\n    tag_277:\n        /* \"#utility.yul\":3362:3364   */\n      0x40\n        /* \"#utility.yul\":3357:3360   */\n      dup3\n        /* \"#utility.yul\":3353:3365   */\n      add\n        /* \"#utility.yul\":3346:3365   */\n      swap1\n      pop\n        /* \"#utility.yul\":3005:3371   */\n      swap2\n      swap1\n      pop\n      jump\t// out\n        /* \"#utility.yul\":3377:3743   */\n    tag_279:\n        /* \"#utility.yul\":3519:3522   */\n      0x00\n        /* \"#utility.yul\":3540:3607   */\n      tag_281\n        /* \"#utility.yul\":3604:3606   */\n      0x34\n        /* \"#utility.yul\":3599:3602   */\n      dup4\n        /* \"#utility.yul\":3540:3607   */\n      tag_270\n      jump\t// in\n    tag_281:\n        /* \"#utility.yul\":3533:3607   */\n      swap2\n      pop\n        /* \"#utility.yul\":3616:3709   */\n      tag_282\n        /* \"#utility.yul\":3705:3708   */\n      dup3\n        /* \"#utility.yul\":3616:3709   */\n      tag_283\n      jump\t// in\n    tag_282:\n        /* \"#utility.yul\":3734:3736   */\n      0x40\n        /* \"#utility.yul\":3729:3732   */\n      dup3\n        /* \"#utility.yul\":3725:3737   */\n      add\n        /* \"#utility.yul\":3718:3737   */\n      swap1\n      pop\n        /* \"#utility.yul\":3377:3743   */\n      swap2\n      swap1\n      pop\n      jump\t// out\n        /* \"#utility.yul\":3749:4115   */\n    tag_284:\n        /* \"#utility.yul\":3891:3894   */\n      0x00\n        /* \"#utility.yul\":3912:3979   */\n      tag_286\n        /* \"#utility.yul\":3976:3978   */\n      0x26\n        /* \"#utility.yul\":3971:3974   */\n      dup4\n        /* \"#utility.yul\":3912:3979   */\n      tag_270\n      jump\t// in\n    tag_286:\n        /* \"#utility.yul\":3905:3979   */\n      swap2\n      pop\n        /* \"#utility.yul\":3988:4081   */\n      tag_287\n        /* \"#utility.yul\":4077:4080   */\n      dup3\n        /* \"#utility.yul\":3988:4081   */\n      tag_288\n      jump\t// in\n    tag_287:\n        /* \"#utility.yul\":4106:4108   */\n      0x40\n        /* \"#utility.yul\":4101:4104   */\n      dup3\n        /* \"#utility.yul\":4097:4109   */\n      add\n        /* \"#utility.yul\":4090:4109   */\n      swap1\n      pop\n        /* \"#utility.yul\":3749:4115   */\n      swap2\n      swap1\n      pop\n      jump\t// out\n        /* \"#utility.yul\":4121:4487   */\n    tag_289:\n        /* \"#utility.yul\":4263:4266   */\n      0x00\n        /* \"#utility.yul\":4284:4351   */\n      tag_291\n        /* \"#utility.yul\":4348:4350   */\n      0x20\n        /* \"#utility.yul\":4343:4346   */\n      dup4\n        /* \"#utility.yul\":4284:4351   */\n      tag_270\n      jump\t// in\n    tag_291:\n        /* \"#utility.yul\":4277:4351   */\n      swap2\n      pop\n        /* \"#utility.yul\":4360:4453   */\n      tag_292\n        /* \"#utility.yul\":4449:4452   */\n      dup3\n        /* \"#utility.yul\":4360:4453   */\n      tag_293\n      jump\t// in\n    tag_292:\n        /* \"#utility.yul\":4478:4480   */\n      0x20\n        /* \"#utility.yul\":4473:4476   */\n      dup3\n        /* \"#utility.yul\":4469:4481   */\n      add\n        /* \"#utility.yul\":4462:4481   */\n      swap1\n      pop\n        /* \"#utility.yul\":4121:4487   */\n      swap2\n      swap1\n      pop\n      jump\t// out\n        /* \"#utility.yul\":4493:4859   */\n    tag_294:\n        /* \"#utility.yul\":4635:4638   */\n      0x00\n        /* \"#utility.yul\":4656:4723   */\n      tag_296\n        /* \"#utility.yul\":4720:4722   */\n      0x35\n        /* \"#utility.yul\":4715:4718   */\n      dup4\n        /* \"#utility.yul\":4656:4723   */\n      tag_270\n      jump\t// in\n    tag_296:\n        /* \"#utility.yul\":4649:4723   */\n      swap2\n      pop\n        /* \"#utility.yul\":4732:4825   */\n      tag_297\n        /* \"#utility.yul\":4821:4824   */\n      dup3\n        /* \"#utility.yul\":4732:4825   */\n      tag_298\n      jump\t// in\n    tag_297:\n        /* \"#utility.yul\":4850:4852   */\n      0x40\n        /* \"#utility.yul\":4845:4848   */\n      dup3\n        /* \"#utility.yul\":4841:4853   */\n      add\n        /* \"#utility.yul\":4834:4853   */\n      swap1\n      pop\n        /* \"#utility.yul\":4493:4859   */\n      swap2\n      swap1\n      pop\n      jump\t// out\n        /* \"#utility.yul\":4865:5231   */\n    tag_299:\n        /* \"#utility.yul\":5007:5010   */\n      0x00\n        /* \"#utility.yul\":5028:5095   */\n      tag_301\n        /* \"#utility.yul\":5092:5094   */\n      0x1d\n        /* \"#utility.yul\":5087:5090   */\n      dup4\n        /* \"#utility.yul\":5028:5095   */\n      tag_270\n      jump\t// in\n    tag_301:\n        /* \"#utility.yul\":5021:5095   */\n      swap2\n      pop\n        /* \"#utility.yul\":5104:5197   */\n      tag_302\n        /* \"#utility.yul\":5193:5196   */\n      dup3\n        /* \"#utility.yul\":5104:5197   */\n      tag_303\n      jump\t// in\n    tag_302:\n        /* \"#utility.yul\":5222:5224   */\n      0x20\n        /* \"#utility.yul\":5217:5220   */\n      dup3\n        /* \"#utility.yul\":5213:5225   */\n      add\n        /* \"#utility.yul\":5206:5225   */\n      swap1\n      pop\n        /* \"#utility.yul\":4865:5231   */\n      swap2\n      swap1\n      pop\n      jump\t// out\n        /* \"#utility.yul\":5237:5603   */\n    tag_304:\n        /* \"#utility.yul\":5379:5382   */\n      0x00\n        /* \"#utility.yul\":5400:5467   */\n      tag_306\n        /* \"#utility.yul\":5464:5466   */\n      0x2d\n        /* \"#utility.yul\":5459:5462   */\n      dup4\n        /* \"#utility.yul\":5400:5467   */\n      tag_270\n      jump\t// in\n    tag_306:\n        /* \"#utility.yul\":5393:5467   */\n      swap2\n      pop\n        /* \"#utility.yul\":5476:5569   */\n      tag_307\n        /* \"#utility.yul\":5565:5568   */\n      dup3\n        /* \"#utility.yul\":5476:5569   */\n      tag_308\n      jump\t// in\n    tag_307:\n        /* \"#utility.yul\":5594:5596   */\n      0x40\n        /* \"#utility.yul\":5589:5592   */\n      dup3\n        /* \"#utility.yul\":5585:5597   */\n      add\n        /* \"#utility.yul\":5578:5597   */\n      swap1\n      pop\n        /* \"#utility.yul\":5237:5603   */\n      swap2\n      swap1\n      pop\n      jump\t// out\n        /* \"#utility.yul\":5609:5975   */\n    tag_309:\n        /* \"#utility.yul\":5751:5754   */\n      0x00\n        /* \"#utility.yul\":5772:5839   */\n      tag_311\n        /* \"#utility.yul\":5836:5838   */\n      0x2a\n        /* \"#utility.yul\":5831:5834   */\n      dup4\n        /* \"#utility.yul\":5772:5839   */\n      tag_270\n      jump\t// in\n    tag_311:\n        /* \"#utility.yul\":5765:5839   */\n      swap2\n      pop\n        /* \"#utility.yul\":5848:5941   */\n      tag_312\n        /* \"#utility.yul\":5937:5940   */\n      dup3\n        /* \"#utility.yul\":5848:5941   */\n      tag_313\n      jump\t// in\n    tag_312:\n        /* \"#utility.yul\":5966:5968   */\n      0x40\n        /* \"#utility.yul\":5961:5964   */\n      dup3\n        /* \"#utility.yul\":5957:5969   */\n      add\n        /* \"#utility.yul\":5950:5969   */\n      swap1\n      pop\n        /* \"#utility.yul\":5609:5975   */\n      swap2\n      swap1\n      pop\n      jump\t// out\n        /* \"#utility.yul\":5981:6347   */\n    tag_314:\n        /* \"#utility.yul\":6123:6126   */\n      0x00\n        /* \"#utility.yul\":6144:6211   */\n      tag_316\n        /* \"#utility.yul\":6208:6210   */\n      0x34\n        /* \"#utility.yul\":6203:6206   */\n      dup4\n        /* \"#utility.yul\":6144:6211   */\n      tag_270\n      jump\t// in\n    tag_316:\n        /* \"#utility.yul\":6137:6211   */\n      swap2\n      pop\n        /* \"#utility.yul\":6220:6313   */\n      tag_317\n        /* \"#utility.yul\":6309:6312   */\n      dup3\n        /* \"#utility.yul\":6220:6313   */\n      tag_318\n      jump\t// in\n    tag_317:\n        /* \"#utility.yul\":6338:6340   */\n      0x40\n        /* \"#utility.yul\":6333:6336   */\n      dup3\n        /* \"#utility.yul\":6329:6341   */\n      add\n        /* \"#utility.yul\":6322:6341   */\n      swap1\n      pop\n        /* \"#utility.yul\":5981:6347   */\n      swap2\n      swap1\n      pop\n      jump\t// out\n        /* \"#utility.yul\":6353:6471   */\n    tag_319:\n        /* \"#utility.yul\":6440:6464   */\n      tag_321\n        /* \"#utility.yul\":6458:6463   */\n      dup2\n        /* \"#utility.yul\":6440:6464   */\n      tag_322\n      jump\t// in\n    tag_321:\n        /* \"#utility.yul\":6435:6438   */\n      dup3\n        /* \"#utility.yul\":6428:6465   */\n      mstore\n        /* \"#utility.yul\":6353:6471   */\n      pop\n      pop\n      jump\t// out\n        /* \"#utility.yul\":6477:6748   */\n    tag_161:\n        /* \"#utility.yul\":6607:6610   */\n      0x00\n        /* \"#utility.yul\":6629:6722   */\n      tag_324\n        /* \"#utility.yul\":6718:6721   */\n      dup3\n        /* \"#utility.yul\":6709:6715   */\n      dup5\n        /* \"#utility.yul\":6629:6722   */\n      tag_253\n      jump\t// in\n    tag_324:\n        /* \"#utility.yul\":6622:6722   */\n      swap2\n      pop\n        /* \"#utility.yul\":6739:6742   */\n      dup2\n        /* \"#utility.yul\":6732:6742   */\n      swap1\n      pop\n        /* \"#utility.yul\":6477:6748   */\n      swap3\n      swap2\n      pop\n      pop\n      jump\t// out\n        /* \"#utility.yul\":6754:6976   */\n    tag_48:\n        /* \"#utility.yul\":6847:6851   */\n      0x00\n        /* \"#utility.yul\":6885:6887   */\n      0x20\n        /* \"#utility.yul\":6874:6883   */\n      dup3\n        /* \"#utility.yul\":6870:6888   */\n      add\n        /* \"#utility.yul\":6862:6888   */\n      swap1\n      pop\n        /* \"#utility.yul\":6898:6969   */\n      tag_326\n        /* \"#utility.yul\":6966:6967   */\n      0x00\n        /* \"#utility.yul\":6955:6964   */\n      dup4\n        /* \"#utility.yul\":6951:6968   */\n      add\n        /* \"#utility.yul\":6942:6948   */\n      dup5\n        /* \"#utility.yul\":6898:6969   */\n      tag_249\n      jump\t// in\n    tag_326:\n        /* \"#utility.yul\":6754:6976   */\n      swap3\n      swap2\n      pop\n      pop\n      jump\t// out\n        /* \"#utility.yul\":6982:7424   */\n    tag_153:\n        /* \"#utility.yul\":7131:7135   */\n      0x00\n        /* \"#utility.yul\":7169:7171   */\n      0x60\n        /* \"#utility.yul\":7158:7167   */\n      dup3\n        /* \"#utility.yul\":7154:7172   */\n      add\n        /* \"#utility.yul\":7146:7172   */\n      swap1\n      pop\n        /* \"#utility.yul\":7182:7253   */\n      tag_328\n        /* \"#utility.yul\":7250:7251   */\n      0x00\n        /* \"#utility.yul\":7239:7248   */\n      dup4\n        /* \"#utility.yul\":7235:7252   */\n      add\n        /* \"#utility.yul\":7226:7232   */\n      dup7\n        /* \"#utility.yul\":7182:7253   */\n      tag_249\n      jump\t// in\n    tag_328:\n        /* \"#utility.yul\":7263:7335   */\n      tag_329\n        /* \"#utility.yul\":7331:7333   */\n      0x20\n        /* \"#utility.yul\":7320:7329   */\n      dup4\n        /* \"#utility.yul\":7316:7334   */\n      add\n        /* \"#utility.yul\":7307:7313   */\n      dup6\n        /* \"#utility.yul\":7263:7335   */\n      tag_249\n      jump\t// in\n    tag_329:\n        /* \"#utility.yul\":7345:7417   */\n      tag_330\n        /* \"#utility.yul\":7413:7415   */\n      0x40\n        /* \"#utility.yul\":7402:7411   */\n      dup4\n        /* \"#utility.yul\":7398:7416   */\n      add\n        /* \"#utility.yul\":7389:7395   */\n      dup5\n        /* \"#utility.yul\":7345:7417   */\n      tag_319\n      jump\t// in\n    tag_330:\n        /* \"#utility.yul\":6982:7424   */\n      swap5\n      swap4\n      pop\n      pop\n      pop\n      pop\n      jump\t// out\n        /* \"#utility.yul\":7430:7762   */\n    tag_170:\n        /* \"#utility.yul\":7551:7555   */\n      0x00\n        /* \"#utility.yul\":7589:7591   */\n      0x40\n        /* \"#utility.yul\":7578:7587   */\n      dup3\n        /* \"#utility.yul\":7574:7592   */\n      add\n        /* \"#utility.yul\":7566:7592   */\n      swap1\n      pop\n        /* \"#utility.yul\":7602:7673   */\n      tag_332\n        /* \"#utility.yul\":7670:7671   */\n      0x00\n        /* \"#utility.yul\":7659:7668   */\n      dup4\n        /* \"#utility.yul\":7655:7672   */\n      add\n        /* \"#utility.yul\":7646:7652   */\n      dup6\n        /* \"#utility.yul\":7602:7673   */\n      tag_249\n      jump\t// in\n    tag_332:\n        /* \"#utility.yul\":7683:7755   */\n      tag_333\n        /* \"#utility.yul\":7751:7753   */\n      0x20\n        /* \"#utility.yul\":7740:7749   */\n      dup4\n        /* \"#utility.yul\":7736:7754   */\n      add\n        /* \"#utility.yul\":7727:7733   */\n      dup5\n        /* \"#utility.yul\":7683:7755   */\n      tag_319\n      jump\t// in\n    tag_333:\n        /* \"#utility.yul\":7430:7762   */\n      swap4\n      swap3\n      pop\n      pop\n      pop\n      jump\t// out\n        /* \"#utility.yul\":7768:8018   */\n    tag_30:\n        /* \"#utility.yul\":7875:7879   */\n      0x00\n        /* \"#utility.yul\":7913:7915   */\n      0x20\n        /* \"#utility.yul\":7902:7911   */\n      dup3\n        /* \"#utility.yul\":7898:7916   */\n      add\n        /* \"#utility.yul\":7890:7916   */\n      swap1\n      pop\n        /* \"#utility.yul\":7926:8011   */\n      tag_335\n        /* \"#utility.yul\":8008:8009   */\n      0x00\n        /* \"#utility.yul\":7997:8006   */\n      dup4\n        /* \"#utility.yul\":7993:8010   */\n      add\n        /* \"#utility.yul\":7984:7990   */\n      dup5\n        /* \"#utility.yul\":7926:8011   */\n      tag_261\n      jump\t// in\n    tag_335:\n        /* \"#utility.yul\":7768:8018   */\n      swap3\n      swap2\n      pop\n      pop\n      jump\t// out\n        /* \"#utility.yul\":8024:8337   */\n    tag_215:\n        /* \"#utility.yul\":8137:8141   */\n      0x00\n        /* \"#utility.yul\":8175:8177   */\n      0x20\n        /* \"#utility.yul\":8164:8173   */\n      dup3\n        /* \"#utility.yul\":8160:8178   */\n      add\n        /* \"#utility.yul\":8152:8178   */\n      swap1\n      pop\n        /* \"#utility.yul\":8224:8233   */\n      dup2\n        /* \"#utility.yul\":8218:8222   */\n      dup2\n        /* \"#utility.yul\":8214:8234   */\n      sub\n        /* \"#utility.yul\":8210:8211   */\n      0x00\n        /* \"#utility.yul\":8199:8208   */\n      dup4\n        /* \"#utility.yul\":8195:8212   */\n      add\n        /* \"#utility.yul\":8188:8235   */\n      mstore\n        /* \"#utility.yul\":8252:8330   */\n      tag_337\n        /* \"#utility.yul\":8325:8329   */\n      dup2\n        /* \"#utility.yul\":8316:8322   */\n      dup5\n        /* \"#utility.yul\":8252:8330   */\n      tag_265\n      jump\t// in\n    tag_337:\n        /* \"#utility.yul\":8244:8330   */\n      swap1\n      pop\n        /* \"#utility.yul\":8024:8337   */\n      swap3\n      swap2\n      pop\n      pop\n      jump\t// out\n        /* \"#utility.yul\":8343:8762   */\n    tag_137:\n        /* \"#utility.yul\":8509:8513   */\n      0x00\n        /* \"#utility.yul\":8547:8549   */\n      0x20\n        /* \"#utility.yul\":8536:8545   */\n      dup3\n        /* \"#utility.yul\":8532:8550   */\n      add\n        /* \"#utility.yul\":8524:8550   */\n      swap1\n      pop\n        /* \"#utility.yul\":8596:8605   */\n      dup2\n        /* \"#utility.yul\":8590:8594   */\n      dup2\n        /* \"#utility.yul\":8586:8606   */\n      sub\n        /* \"#utility.yul\":8582:8583   */\n      0x00\n        /* \"#utility.yul\":8571:8580   */\n      dup4\n        /* \"#utility.yul\":8567:8584   */\n      add\n        /* \"#utility.yul\":8560:8607   */\n      mstore\n        /* \"#utility.yul\":8624:8755   */\n      tag_339\n        /* \"#utility.yul\":8750:8754   */\n      dup2\n        /* \"#utility.yul\":8624:8755   */\n      tag_274\n      jump\t// in\n    tag_339:\n        /* \"#utility.yul\":8616:8755   */\n      swap1\n      pop\n        /* \"#utility.yul\":8343:8762   */\n      swap2\n      swap1\n      pop\n      jump\t// out\n        /* \"#utility.yul\":8768:9187   */\n    tag_167:\n        /* \"#utility.yul\":8934:8938   */\n      0x00\n        /* \"#utility.yul\":8972:8974   */\n      0x20\n        /* \"#utility.yul\":8961:8970   */\n      dup3\n        /* \"#utility.yul\":8957:8975   */\n      add\n        /* \"#utility.yul\":8949:8975   */\n      swap1\n      pop\n        /* \"#utility.yul\":9021:9030   */\n      dup2\n        /* \"#utility.yul\":9015:9019   */\n      dup2\n        /* \"#utility.yul\":9011:9031   */\n      sub\n        /* \"#utility.yul\":9007:9008   */\n      0x00\n        /* \"#utility.yul\":8996:9005   */\n      dup4\n        /* \"#utility.yul\":8992:9009   */\n      add\n        /* \"#utility.yul\":8985:9032   */\n      mstore\n        /* \"#utility.yul\":9049:9180   */\n      tag_341\n        /* \"#utility.yul\":9175:9179   */\n      dup2\n        /* \"#utility.yul\":9049:9180   */\n      tag_279\n      jump\t// in\n    tag_341:\n        /* \"#utility.yul\":9041:9180   */\n      swap1\n      pop\n        /* \"#utility.yul\":8768:9187   */\n      swap2\n      swap1\n      pop\n      jump\t// out\n        /* \"#utility.yul\":9193:9612   */\n    tag_196:\n        /* \"#utility.yul\":9359:9363   */\n      0x00\n        /* \"#utility.yul\":9397:9399   */\n      0x20\n        /* \"#utility.yul\":9386:9395   */\n      dup3\n        /* \"#utility.yul\":9382:9400   */\n      add\n        /* \"#utility.yul\":9374:9400   */\n      swap1\n      pop\n        /* \"#utility.yul\":9446:9455   */\n      dup2\n        /* \"#utility.yul\":9440:9444   */\n      dup2\n        /* \"#utility.yul\":9436:9456   */\n      sub\n        /* \"#utility.yul\":9432:9433   */\n      0x00\n        /* \"#utility.yul\":9421:9430   */\n      dup4\n        /* \"#utility.yul\":9417:9434   */\n      add\n        /* \"#utility.yul\":9410:9457   */\n      mstore\n        /* \"#utility.yul\":9474:9605   */\n      tag_343\n        /* \"#utility.yul\":9600:9604   */\n      dup2\n        /* \"#utility.yul\":9474:9605   */\n      tag_284\n      jump\t// in\n    tag_343:\n        /* \"#utility.yul\":9466:9605   */\n      swap1\n      pop\n        /* \"#utility.yul\":9193:9612   */\n      swap2\n      swap1\n      pop\n      jump\t// out\n        /* \"#utility.yul\":9618:10037   */\n    tag_99:\n        /* \"#utility.yul\":9784:9788   */\n      0x00\n        /* \"#utility.yul\":9822:9824   */\n      0x20\n        /* \"#utility.yul\":9811:9820   */\n      dup3\n        /* \"#utility.yul\":9807:9825   */\n      add\n        /* \"#utility.yul\":9799:9825   */\n      swap1\n      pop\n        /* \"#utility.yul\":9871:9880   */\n      dup2\n        /* \"#utility.yul\":9865:9869   */\n      dup2\n        /* \"#utility.yul\":9861:9881   */\n      sub\n        /* \"#utility.yul\":9857:9858   */\n      0x00\n        /* \"#utility.yul\":9846:9855   */\n      dup4\n        /* \"#utility.yul\":9842:9859   */\n      add\n        /* \"#utility.yul\":9835:9882   */\n      mstore\n        /* \"#utility.yul\":9899:10030   */\n      tag_345\n        /* \"#utility.yul\":10025:10029   */\n      dup2\n        /* \"#utility.yul\":9899:10030   */\n      tag_289\n      jump\t// in\n    tag_345:\n        /* \"#utility.yul\":9891:10030   */\n      swap1\n      pop\n        /* \"#utility.yul\":9618:10037   */\n      swap2\n      swap1\n      pop\n      jump\t// out\n        /* \"#utility.yul\":10043:10462   */\n    tag_118:\n        /* \"#utility.yul\":10209:10213   */\n      0x00\n        /* \"#utility.yul\":10247:10249   */\n      0x20\n        /* \"#utility.yul\":10236:10245   */\n      dup3\n        /* \"#utility.yul\":10232:10250   */\n      add\n        /* \"#utility.yul\":10224:10250   */\n      swap1\n      pop\n        /* \"#utility.yul\":10296:10305   */\n      dup2\n        /* \"#utility.yul\":10290:10294   */\n      dup2\n        /* \"#utility.yul\":10286:10306   */\n      sub\n        /* \"#utility.yul\":10282:10283   */\n      0x00\n        /* \"#utility.yul\":10271:10280   */\n      dup4\n        /* \"#utility.yul\":10267:10284   */\n      add\n        /* \"#utility.yul\":10260:10307   */\n      mstore\n        /* \"#utility.yul\":10324:10455   */\n      tag_347\n        /* \"#utility.yul\":10450:10454   */\n      dup2\n        /* \"#utility.yul\":10324:10455   */\n      tag_294\n      jump\t// in\n    tag_347:\n        /* \"#utility.yul\":10316:10455   */\n      swap1\n      pop\n        /* \"#utility.yul\":10043:10462   */\n      swap2\n      swap1\n      pop\n      jump\t// out\n        /* \"#utility.yul\":10468:10887   */\n    tag_201:\n        /* \"#utility.yul\":10634:10638   */\n      0x00\n        /* \"#utility.yul\":10672:10674   */\n      0x20\n        /* \"#utility.yul\":10661:10670   */\n      dup3\n        /* \"#utility.yul\":10657:10675   */\n      add\n        /* \"#utility.yul\":10649:10675   */\n      swap1\n      pop\n        /* \"#utility.yul\":10721:10730   */\n      dup2\n        /* \"#utility.yul\":10715:10719   */\n      dup2\n        /* \"#utility.yul\":10711:10731   */\n      sub\n        /* \"#utility.yul\":10707:10708   */\n      0x00\n        /* \"#utility.yul\":10696:10705   */\n      dup4\n        /* \"#utility.yul\":10692:10709   */\n      add\n        /* \"#utility.yul\":10685:10732   */\n      mstore\n        /* \"#utility.yul\":10749:10880   */\n      tag_349\n        /* \"#utility.yul\":10875:10879   */\n      dup2\n        /* \"#utility.yul\":10749:10880   */\n      tag_299\n      jump\t// in\n    tag_349:\n        /* \"#utility.yul\":10741:10880   */\n      swap1\n      pop\n        /* \"#utility.yul\":10468:10887   */\n      swap2\n      swap1\n      pop\n      jump\t// out\n        /* \"#utility.yul\":10893:11312   */\n    tag_181:\n        /* \"#utility.yul\":11059:11063   */\n      0x00\n        /* \"#utility.yul\":11097:11099   */\n      0x20\n        /* \"#utility.yul\":11086:11095   */\n      dup3\n        /* \"#utility.yul\":11082:11100   */\n      add\n        /* \"#utility.yul\":11074:11100   */\n      swap1\n      pop\n        /* \"#utility.yul\":11146:11155   */\n      dup2\n        /* \"#utility.yul\":11140:11144   */\n      dup2\n        /* \"#utility.yul\":11136:11156   */\n      sub\n        /* \"#utility.yul\":11132:11133   */\n      0x00\n        /* \"#utility.yul\":11121:11130   */\n      dup4\n        /* \"#utility.yul\":11117:11134   */\n      add\n        /* \"#utility.yul\":11110:11157   */\n      mstore\n        /* \"#utility.yul\":11174:11305   */\n      tag_351\n        /* \"#utility.yul\":11300:11304   */\n      dup2\n        /* \"#utility.yul\":11174:11305   */\n      tag_304\n      jump\t// in\n    tag_351:\n        /* \"#utility.yul\":11166:11305   */\n      swap1\n      pop\n        /* \"#utility.yul\":10893:11312   */\n      swap2\n      swap1\n      pop\n      jump\t// out\n        /* \"#utility.yul\":11318:11737   */\n    tag_189:\n        /* \"#utility.yul\":11484:11488   */\n      0x00\n        /* \"#utility.yul\":11522:11524   */\n      0x20\n        /* \"#utility.yul\":11511:11520   */\n      dup3\n        /* \"#utility.yul\":11507:11525   */\n      add\n        /* \"#utility.yul\":11499:11525   */\n      swap1\n      pop\n        /* \"#utility.yul\":11571:11580   */\n      dup2\n        /* \"#utility.yul\":11565:11569   */\n      dup2\n        /* \"#utility.yul\":11561:11581   */\n      sub\n        /* \"#utility.yul\":11557:11558   */\n      0x00\n        /* \"#utility.yul\":11546:11555   */\n      dup4\n        /* \"#utility.yul\":11542:11559   */\n      add\n        /* \"#utility.yul\":11535:11582   */\n      mstore\n        /* \"#utility.yul\":11599:11730   */\n      tag_353\n        /* \"#utility.yul\":11725:11729   */\n      dup2\n        /* \"#utility.yul\":11599:11730   */\n      tag_309\n      jump\t// in\n    tag_353:\n        /* \"#utility.yul\":11591:11730   */\n      swap1\n      pop\n        /* \"#utility.yul\":11318:11737   */\n      swap2\n      swap1\n      pop\n      jump\t// out\n        /* \"#utility.yul\":11743:12162   */\n    tag_108:\n        /* \"#utility.yul\":11909:11913   */\n      0x00\n        /* \"#utility.yul\":11947:11949   */\n      0x20\n        /* \"#utility.yul\":11936:11945   */\n      dup3\n        /* \"#utility.yul\":11932:11950   */\n      add\n        /* \"#utility.yul\":11924:11950   */\n      swap1\n      pop\n        /* \"#utility.yul\":11996:12005   */\n      dup2\n        /* \"#utility.yul\":11990:11994   */\n      dup2\n        /* \"#utility.yul\":11986:12006   */\n      sub\n        /* \"#utility.yul\":11982:11983   */\n      0x00\n        /* \"#utility.yul\":11971:11980   */\n      dup4\n        /* \"#utility.yul\":11967:11984   */\n      add\n        /* \"#utility.yul\":11960:12007   */\n      mstore\n        /* \"#utility.yul\":12024:12155   */\n      tag_355\n        /* \"#utility.yul\":12150:12154   */\n      dup2\n        /* \"#utility.yul\":12024:12155   */\n      tag_314\n      jump\t// in\n    tag_355:\n        /* \"#utility.yul\":12016:12155   */\n      swap1\n      pop\n        /* \"#utility.yul\":11743:12162   */\n      swap2\n      swap1\n      pop\n      jump\t// out\n        /* \"#utility.yul\":12168:12390   */\n    tag_21:\n        /* \"#utility.yul\":12261:12265   */\n      0x00\n        /* \"#utility.yul\":12299:12301   */\n      0x20\n        /* \"#utility.yul\":12288:12297   */\n      dup3\n        /* \"#utility.yul\":12284:12302   */\n      add\n        /* \"#utility.yul\":12276:12302   */\n      swap1\n      pop\n        /* \"#utility.yul\":12312:12383   */\n      tag_357\n        /* \"#utility.yul\":12380:12381   */\n      0x00\n        /* \"#utility.yul\":12369:12378   */\n      dup4\n        /* \"#utility.yul\":12365:12382   */\n      add\n        /* \"#utility.yul\":12356:12362   */\n      dup5\n        /* \"#utility.yul\":12312:12383   */\n      tag_319\n      jump\t// in\n    tag_357:\n        /* \"#utility.yul\":12168:12390   */\n      swap3\n      swap2\n      pop\n      pop\n      jump\t// out\n        /* \"#utility.yul\":12477:12575   */\n    tag_256:\n        /* \"#utility.yul\":12528:12534   */\n      0x00\n        /* \"#utility.yul\":12562:12567   */\n      dup2\n        /* \"#utility.yul\":12556:12568   */\n      mload\n        /* \"#utility.yul\":12546:12568   */\n      swap1\n      pop\n        /* \"#utility.yul\":12477:12575   */\n      swap2\n      swap1\n      pop\n      jump\t// out\n        /* \"#utility.yul\":12581:12680   */\n    tag_268:\n        /* \"#utility.yul\":12633:12639   */\n      0x00\n        /* \"#utility.yul\":12667:12672   */\n      dup2\n        /* \"#utility.yul\":12661:12673   */\n      mload\n        /* \"#utility.yul\":12651:12673   */\n      swap1\n      pop\n        /* \"#utility.yul\":12581:12680   */\n      swap2\n      swap1\n      pop\n      jump\t// out\n        /* \"#utility.yul\":12686:12833   */\n    tag_258:\n        /* \"#utility.yul\":12787:12798   */\n      0x00\n        /* \"#utility.yul\":12824:12827   */\n      dup2\n        /* \"#utility.yul\":12809:12827   */\n      swap1\n      pop\n        /* \"#utility.yul\":12686:12833   */\n      swap3\n      swap2\n      pop\n      pop\n      jump\t// out\n        /* \"#utility.yul\":12839:13008   */\n    tag_270:\n        /* \"#utility.yul\":12923:12934   */\n      0x00\n        /* \"#utility.yul\":12957:12963   */\n      dup3\n        /* \"#utility.yul\":12952:12955   */\n      dup3\n        /* \"#utility.yul\":12945:12964   */\n      mstore\n        /* \"#utility.yul\":12997:13001   */\n      0x20\n        /* \"#utility.yul\":12992:12995   */\n      dup3\n        /* \"#utility.yul\":12988:13002   */\n      add\n        /* \"#utility.yul\":12973:13002   */\n      swap1\n      pop\n        /* \"#utility.yul\":12839:13008   */\n      swap3\n      swap2\n      pop\n      pop\n      jump\t// out\n        /* \"#utility.yul\":13014:13199   */\n    tag_146:\n        /* \"#utility.yul\":13054:13055   */\n      0x00\n        /* \"#utility.yul\":13071:13091   */\n      tag_365\n        /* \"#utility.yul\":13089:13090   */\n      dup3\n        /* \"#utility.yul\":13071:13091   */\n      tag_322\n      jump\t// in\n    tag_365:\n        /* \"#utility.yul\":13066:13091   */\n      swap2\n      pop\n        /* \"#utility.yul\":13105:13125   */\n      tag_366\n        /* \"#utility.yul\":13123:13124   */\n      dup4\n        /* \"#utility.yul\":13105:13125   */\n      tag_322\n      jump\t// in\n    tag_366:\n        /* \"#utility.yul\":13100:13125   */\n      swap3\n      pop\n        /* \"#utility.yul\":13144:13145   */\n      dup3\n        /* \"#utility.yul\":13134:13169   */\n      tag_367\n      jumpi\n        /* \"#utility.yul\":13149:13167   */\n      tag_368\n      tag_369\n      jump\t// in\n    tag_368:\n        /* \"#utility.yul\":13134:13169   */\n    tag_367:\n        /* \"#utility.yul\":13191:13192   */\n      dup3\n        /* \"#utility.yul\":13188:13189   */\n      dup3\n        /* \"#utility.yul\":13184:13193   */\n      div\n        /* \"#utility.yul\":13179:13193   */\n      swap1\n      pop\n        /* \"#utility.yul\":13014:13199   */\n      swap3\n      swap2\n      pop\n      pop\n      jump\t// out\n        /* \"#utility.yul\":13205:13553   */\n    tag_143:\n        /* \"#utility.yul\":13245:13252   */\n      0x00\n        /* \"#utility.yul\":13268:13288   */\n      tag_371\n        /* \"#utility.yul\":13286:13287   */\n      dup3\n        /* \"#utility.yul\":13268:13288   */\n      tag_322\n      jump\t// in\n    tag_371:\n        /* \"#utility.yul\":13263:13288   */\n      swap2\n      pop\n        /* \"#utility.yul\":13302:13322   */\n      tag_372\n        /* \"#utility.yul\":13320:13321   */\n      dup4\n        /* \"#utility.yul\":13302:13322   */\n      tag_322\n      jump\t// in\n    tag_372:\n        /* \"#utility.yul\":13297:13322   */\n      swap3\n      pop\n        /* \"#utility.yul\":13490:13491   */\n      dup2\n        /* \"#utility.yul\":13422:13488   */\n      0xffffffffffffffffffffffffffffffffffffffffffffffffffffffffffffffff\n        /* \"#utility.yul\":13418:13492   */\n      div\n        /* \"#utility.yul\":13415:13416   */\n      dup4\n        /* \"#utility.yul\":13412:13493   */\n      gt\n        /* \"#utility.yul\":13407:13408   */\n      dup3\n        /* \"#utility.yul\":13400:13409   */\n      iszero\n        /* \"#utility.yul\":13393:13410   */\n      iszero\n        /* \"#utility.yul\":13389:13494   */\n      and\n        /* \"#utility.yul\":13386:13517   */\n      iszero\n      tag_373\n      jumpi\n        /* \"#utility.yul\":13497:13515   */\n      tag_374\n      tag_375\n      jump\t// in\n    tag_374:\n        /* \"#utility.yul\":13386:13517   */\n    tag_373:\n        /* \"#utility.yul\":13545:13546   */\n      dup3\n        /* \"#utility.yul\":13542:13543   */\n      dup3\n        /* \"#utility.yul\":13538:13547   */\n      mul\n        /* \"#utility.yul\":13527:13547   */\n      swap1\n      pop\n        /* \"#utility.yul\":13205:13553   */\n      swap3\n      swap2\n      pop\n      pop\n      jump\t// out\n        /* \"#utility.yul\":13559:13750   */\n    tag_149:\n        /* \"#utility.yul\":13599:13603   */\n      0x00\n        /* \"#utility.yul\":13619:13639   */\n      tag_377\n        /* \"#utility.yul\":13637:13638   */\n      dup3\n        /* \"#utility.yul\":13619:13639   */\n      tag_322\n      jump\t// in\n    tag_377:\n        /* \"#utility.yul\":13614:13639   */\n      swap2\n      pop\n        /* \"#utility.yul\":13653:13673   */\n      tag_378\n        /* \"#utility.yul\":13671:13672   */\n      dup4\n        /* \"#utility.yul\":13653:13673   */\n      tag_322\n      jump\t// in\n    tag_378:\n        /* \"#utility.yul\":13648:13673   */\n      swap3\n      pop\n        /* \"#utility.yul\":13692:13693   */\n      dup3\n        /* \"#utility.yul\":13689:13690   */\n      dup3\n        /* \"#utility.yul\":13686:13694   */\n      lt\n        /* \"#utility.yul\":13683:13717   */\n      iszero\n      tag_379\n      jumpi\n        /* \"#utility.yul\":13697:13715   */\n      tag_380\n      tag_375\n      jump\t// in\n    tag_380:\n        /* \"#utility.yul\":13683:13717   */\n    tag_379:\n        /* \"#utility.yul\":13742:13743   */\n      dup3\n        /* \"#utility.yul\":13739:13740   */\n      dup3\n        /* \"#utility.yul\":13735:13744   */\n      sub\n        /* \"#utility.yul\":13727:13744   */\n      swap1\n      pop\n        /* \"#utility.yul\":13559:13750   */\n      swap3\n      swap2\n      pop\n      pop\n      jump\t// out\n        /* \"#utility.yul\":13756:13852   */\n    tag_252:\n        /* \"#utility.yul\":13793:13800   */\n      0x00\n        /* \"#utility.yul\":13822:13846   */\n      tag_382\n        /* \"#utility.yul\":13840:13845   */\n      dup3\n        /* \"#utility.yul\":13822:13846   */\n      tag_383\n      jump\t// in\n    tag_382:\n        /* \"#utility.yul\":13811:13846   */\n      swap1\n      pop\n        /* \"#utility.yul\":13756:13852   */\n      swap2\n      swap1\n      pop\n      jump\t// out\n        /* \"#utility.yul\":13858:13948   */\n    tag_384:\n        /* \"#utility.yul\":13892:13899   */\n      0x00\n        /* \"#utility.yul\":13935:13940   */\n      dup2\n        /* \"#utility.yul\":13928:13941   */\n      iszero\n        /* \"#utility.yul\":13921:13942   */\n      iszero\n        /* \"#utility.yul\":13910:13942   */\n      swap1\n      pop\n        /* \"#utility.yul\":13858:13948   */\n      swap2\n      swap1\n      pop\n      jump\t// out\n        /* \"#utility.yul\":13954:14080   */\n    tag_383:\n        /* \"#utility.yul\":13991:13998   */\n      0x00\n        /* \"#utility.yul\":14031:14073   */\n      0xffffffffffffffffffffffffffffffffffffffff\n        /* \"#utility.yul\":14024:14029   */\n      dup3\n        /* \"#utility.yul\":14020:14074   */\n      and\n        /* \"#utility.yul\":14009:14074   */\n      swap1\n      pop\n        /* \"#utility.yul\":13954:14080   */\n      swap2\n      swap1\n      pop\n      jump\t// out\n        /* \"#utility.yul\":14086:14163   */\n    tag_322:\n        /* \"#utility.yul\":14123:14130   */\n      0x00\n        /* \"#utility.yul\":14152:14157   */\n      dup2\n        /* \"#utility.yul\":14141:14157   */\n      swap1\n      pop\n        /* \"#utility.yul\":14086:14163   */\n      swap2\n      swap1\n      pop\n      jump\t// out\n        /* \"#utility.yul\":14169:14309   */\n    tag_264:\n        /* \"#utility.yul\":14233:14242   */\n      0x00\n        /* \"#utility.yul\":14266:14303   */\n      tag_389\n        /* \"#utility.yul\":14297:14302   */\n      dup3\n        /* \"#utility.yul\":14266:14303   */\n      tag_390\n      jump\t// in\n    tag_389:\n        /* \"#utility.yul\":14253:14303   */\n      swap1\n      pop\n        /* \"#utility.yul\":14169:14309   */\n      swap2\n      swap1\n      pop\n      jump\t// out\n        /* \"#utility.yul\":14315:14441   */\n    tag_390:\n        /* \"#utility.yul\":14365:14374   */\n      0x00\n        /* \"#utility.yul\":14398:14435   */\n      tag_392\n        /* \"#utility.yul\":14429:14434   */\n      dup3\n        /* \"#utility.yul\":14398:14435   */\n      tag_393\n      jump\t// in\n    tag_392:\n        /* \"#utility.yul\":14385:14435   */\n      swap1\n      pop\n        /* \"#utility.yul\":14315:14441   */\n      swap2\n      swap1\n      pop\n      jump\t// out\n        /* \"#utility.yul\":14447:14560   */\n    tag_393:\n        /* \"#utility.yul\":14497:14506   */\n      0x00\n        /* \"#utility.yul\":14530:14554   */\n      tag_395\n        /* \"#utility.yul\":14548:14553   */\n      dup3\n        /* \"#utility.yul\":14530:14554   */\n      tag_383\n      jump\t// in\n    tag_395:\n        /* \"#utility.yul\":14517:14554   */\n      swap1\n      pop\n        /* \"#utility.yul\":14447:14560   */\n      swap2\n      swap1\n      pop\n      jump\t// out\n        /* \"#utility.yul\":14566:14873   */\n    tag_260:\n        /* \"#utility.yul\":14634:14635   */\n      0x00\n        /* \"#utility.yul\":14644:14757   */\n    tag_397:\n        /* \"#utility.yul\":14658:14664   */\n      dup4\n        /* \"#utility.yul\":14655:14656   */\n      dup2\n        /* \"#utility.yul\":14652:14665   */\n      lt\n        /* \"#utility.yul\":14644:14757   */\n      iszero\n      tag_399\n      jumpi\n        /* \"#utility.yul\":14743:14744   */\n      dup1\n        /* \"#utility.yul\":14738:14741   */\n      dup3\n        /* \"#utility.yul\":14734:14745   */\n      add\n        /* \"#utility.yul\":14728:14746   */\n      mload\n        /* \"#utility.yul\":14724:14725   */\n      dup2\n        /* \"#utility.yul\":14719:14722   */\n      dup5\n        /* \"#utility.yul\":14715:14726   */\n      add\n        /* \"#utility.yul\":14708:14747   */\n      mstore\n        /* \"#utility.yul\":14680:14682   */\n      0x20\n        /* \"#utility.yul\":14677:14678   */\n      dup2\n        /* \"#utility.yul\":14673:14683   */\n      add\n        /* \"#utility.yul\":14668:14683   */\n      swap1\n      pop\n        /* \"#utility.yul\":14644:14757   */\n      jump(tag_397)\n    tag_399:\n        /* \"#utility.yul\":14775:14781   */\n      dup4\n        /* \"#utility.yul\":14772:14773   */\n      dup2\n        /* \"#utility.yul\":14769:14782   */\n      gt\n        /* \"#utility.yul\":14766:14867   */\n      iszero\n      tag_400\n      jumpi\n        /* \"#utility.yul\":14855:14856   */\n      0x00\n        /* \"#utility.yul\":14846:14852   */\n      dup5\n        /* \"#utility.yul\":14841:14844   */\n      dup5\n        /* \"#utility.yul\":14837:14853   */\n      add\n        /* \"#utility.yul\":14830:14857   */\n      mstore\n        /* \"#utility.yul\":14766:14867   */\n    tag_400:\n        /* \"#utility.yul\":14615:14873   */\n      pop\n        /* \"#utility.yul\":14566:14873   */\n      pop\n      pop\n      pop\n      jump\t// out\n        /* \"#utility.yul\":14879:15059   */\n    tag_375:\n        /* \"#utility.yul\":14927:15004   */\n      0x4e487b7100000000000000000000000000000000000000000000000000000000\n        /* \"#utility.yul\":14924:14925   */\n      0x00\n        /* \"#utility.yul\":14917:15005   */\n      mstore\n        /* \"#utility.yul\":15024:15028   */\n      0x11\n        /* \"#utility.yul\":15021:15022   */\n      0x04\n        /* \"#utility.yul\":15014:15029   */\n      mstore\n        /* \"#utility.yul\":15048:15052   */\n      0x24\n        /* \"#utility.yul\":15045:15046   */\n      0x00\n        /* \"#utility.yul\":15038:15053   */\n      revert\n        /* \"#utility.yul\":15065:15245   */\n    tag_369:\n        /* \"#utility.yul\":15113:15190   */\n      0x4e487b7100000000000000000000000000000000000000000000000000000000\n        /* \"#utility.yul\":15110:15111   */\n      0x00\n        /* \"#utility.yul\":15103:15191   */\n      mstore\n        /* \"#utility.yul\":15210:15214   */\n      0x12\n        /* \"#utility.yul\":15207:15208   */\n      0x04\n        /* \"#utility.yul\":15200:15215   */\n      mstore\n        /* \"#utility.yul\":15234:15238   */\n      0x24\n        /* \"#utility.yul\":15231:15232   */\n      0x00\n        /* \"#utility.yul\":15224:15239   */\n      revert\n        /* \"#utility.yul\":15251:15431   */\n    tag_158:\n        /* \"#utility.yul\":15299:15376   */\n      0x4e487b7100000000000000000000000000000000000000000000000000000000\n        /* \"#utility.yul\":15296:15297   */\n      0x00\n        /* \"#utility.yul\":15289:15377   */\n      mstore\n        /* \"#utility.yul\":15396:15400   */\n      0x41\n        /* \"#utility.yul\":15393:15394   */\n      0x04\n        /* \"#utility.yul\":15386:15401   */\n      mstore\n        /* \"#utility.yul\":15420:15424   */\n      0x24\n        /* \"#utility.yul\":15417:15418   */\n      0x00\n        /* \"#utility.yul\":15410:15425   */\n      revert\n        /* \"#utility.yul\":15560:15677   */\n    tag_235:\n        /* \"#utility.yul\":15669:15670   */\n      0x00\n        /* \"#utility.yul\":15666:15667   */\n      dup1\n        /* \"#utility.yul\":15659:15671   */\n      revert\n        /* \"#utility.yul\":15683:15785   */\n    tag_273:\n        /* \"#utility.yul\":15724:15730   */\n      0x00\n        /* \"#utility.yul\":15775:15777   */\n      0x1f\n        /* \"#utility.yul\":15771:15778   */\n      not\n        /* \"#utility.yul\":15766:15768   */\n      0x1f\n        /* \"#utility.yul\":15759:15764   */\n      dup4\n        /* \"#utility.yul\":15755:15769   */\n      add\n        /* \"#utility.yul\":15751:15779   */\n      and\n        /* \"#utility.yul\":15741:15779   */\n      swap1\n      pop\n        /* \"#utility.yul\":15683:15785   */\n      swap2\n      swap1\n      pop\n      jump\t// out\n        /* \"#utility.yul\":15791:16016   */\n    tag_278:\n        /* \"#utility.yul\":15931:15965   */\n      0x4f776e61626c653a206e6577206f776e657220697320746865207a65726f2061\n        /* \"#utility.yul\":15927:15928   */\n      0x00\n        /* \"#utility.yul\":15919:15925   */\n      dup3\n        /* \"#utility.yul\":15915:15929   */\n      add\n        /* \"#utility.yul\":15908:15966   */\n      mstore\n        /* \"#utility.yul\":16000:16008   */\n      0x6464726573730000000000000000000000000000000000000000000000000000\n        /* \"#utility.yul\":15995:15997   */\n      0x20\n        /* \"#utility.yul\":15987:15993   */\n      dup3\n        /* \"#utility.yul\":15983:15998   */\n      add\n        /* \"#utility.yul\":15976:16009   */\n      mstore\n        /* \"#utility.yul\":15791:16016   */\n      pop\n      jump\t// out\n        /* \"#utility.yul\":16022:16261   */\n    tag_283:\n        /* \"#utility.yul\":16162:16196   */\n      0x5472616e7366657248656c7065723a3a736166655472616e736665724554483a\n        /* \"#utility.yul\":16158:16159   */\n      0x00\n        /* \"#utility.yul\":16150:16156   */\n      dup3\n        /* \"#utility.yul\":16146:16160   */\n      add\n        /* \"#utility.yul\":16139:16197   */\n      mstore\n        /* \"#utility.yul\":16231:16253   */\n      0x20455448207472616e73666572206661696c6564000000000000000000000000\n        /* \"#utility.yul\":16226:16228   */\n      0x20\n        /* \"#utility.yul\":16218:16224   */\n      dup3\n        /* \"#utility.yul\":16214:16229   */\n      add\n        /* \"#utility.yul\":16207:16254   */\n      mstore\n        /* \"#utility.yul\":16022:16261   */\n      pop\n      jump\t// out\n        /* \"#utility.yul\":16267:16492   */\n    tag_288:\n        /* \"#utility.yul\":16407:16441   */\n      0x416464726573733a20696e73756666696369656e742062616c616e636520666f\n        /* \"#utility.yul\":16403:16404   */\n      0x00\n        /* \"#utility.yul\":16395:16401   */\n      dup3\n        /* \"#utility.yul\":16391:16405   */\n      add\n        /* \"#utility.yul\":16384:16442   */\n      mstore\n        /* \"#utility.yul\":16476:16484   */\n      0x722063616c6c0000000000000000000000000000000000000000000000000000\n        /* \"#utility.yul\":16471:16473   */\n      0x20\n        /* \"#utility.yul\":16463:16469   */\n      dup3\n        /* \"#utility.yul\":16459:16474   */\n      add\n        /* \"#utility.yul\":16452:16485   */\n      mstore\n        /* \"#utility.yul\":16267:16492   */\n      pop\n      jump\t// out\n        /* \"#utility.yul\":16498:16680   */\n    tag_293:\n        /* \"#utility.yul\":16638:16672   */\n      0x4f776e61626c653a2063616c6c6572206973206e6f7420746865206f776e6572\n        /* \"#utility.yul\":16634:16635   */\n      0x00\n        /* \"#utility.yul\":16626:16632   */\n      dup3\n        /* \"#utility.yul\":16622:16636   */\n      add\n        /* \"#utility.yul\":16615:16673   */\n      mstore\n        /* \"#utility.yul\":16498:16680   */\n      pop\n      jump\t// out\n        /* \"#utility.yul\":16686:16926   */\n    tag_298:\n        /* \"#utility.yul\":16826:16860   */\n      0x41424f41543a3a6275793a20416d6f756e7420776f756c642065786365656420\n        /* \"#utility.yul\":16822:16823   */\n      0x00\n        /* \"#utility.yul\":16814:16820   */\n      dup3\n        /* \"#utility.yul\":16810:16824   */\n      add\n        /* \"#utility.yul\":16803:16861   */\n      mstore\n        /* \"#utility.yul\":16895:16918   */\n      0x7468652072656d61696e696e672062616c616e63650000000000000000000000\n        /* \"#utility.yul\":16890:16892   */\n      0x20\n        /* \"#utility.yul\":16882:16888   */\n      dup3\n        /* \"#utility.yul\":16878:16893   */\n      add\n        /* \"#utility.yul\":16871:16919   */\n      mstore\n        /* \"#utility.yul\":16686:16926   */\n      pop\n      jump\t// out\n        /* \"#utility.yul\":16932:17111   */\n    tag_303:\n        /* \"#utility.yul\":17072:17103   */\n      0x416464726573733a2063616c6c20746f206e6f6e2d636f6e7472616374000000\n        /* \"#utility.yul\":17068:17069   */\n      0x00\n        /* \"#utility.yul\":17060:17066   */\n      dup3\n        /* \"#utility.yul\":17056:17070   */\n      add\n        /* \"#utility.yul\":17049:17104   */\n      mstore\n        /* \"#utility.yul\":16932:17111   */\n      pop\n      jump\t// out\n        /* \"#utility.yul\":17117:17349   */\n    tag_308:\n        /* \"#utility.yul\":17257:17291   */\n      0x5472616e7366657248656c7065723a3a736166655472616e736665723a207472\n        /* \"#utility.yul\":17253:17254   */\n      0x00\n        /* \"#utility.yul\":17245:17251   */\n      dup3\n        /* \"#utility.yul\":17241:17255   */\n      add\n        /* \"#utility.yul\":17234:17292   */\n      mstore\n        /* \"#utility.yul\":17326:17341   */\n      0x616e73666572206661696c656400000000000000000000000000000000000000\n        /* \"#utility.yul\":17321:17323   */\n      0x20\n        /* \"#utility.yul\":17313:17319   */\n      dup3\n        /* \"#utility.yul\":17309:17324   */\n      add\n        /* \"#utility.yul\":17302:17342   */\n      mstore\n        /* \"#utility.yul\":17117:17349   */\n      pop\n      jump\t// out\n        /* \"#utility.yul\":17355:17584   */\n    tag_313:\n        /* \"#utility.yul\":17495:17529   */\n      0x5361666545524332303a204552433230206f7065726174696f6e20646964206e\n        /* \"#utility.yul\":17491:17492   */\n      0x00\n        /* \"#utility.yul\":17483:17489   */\n      dup3\n        /* \"#utility.yul\":17479:17493   */\n      add\n        /* \"#utility.yul\":17472:17530   */\n      mstore\n        /* \"#utility.yul\":17564:17576   */\n      0x6f74207375636365656400000000000000000000000000000000000000000000\n        /* \"#utility.yul\":17559:17561   */\n      0x20\n        /* \"#utility.yul\":17551:17557   */\n      dup3\n        /* \"#utility.yul\":17547:17562   */\n      add\n        /* \"#utility.yul\":17540:17577   */\n      mstore\n        /* \"#utility.yul\":17355:17584   */\n      pop\n      jump\t// out\n        /* \"#utility.yul\":17590:17829   */\n    tag_318:\n        /* \"#utility.yul\":17730:17764   */\n      0x41424f41543a3a6275793a2053656e742076616c756520646f65736e2774206d\n        /* \"#utility.yul\":17726:17727   */\n      0x00\n        /* \"#utility.yul\":17718:17724   */\n      dup3\n        /* \"#utility.yul\":17714:17728   */\n      add\n        /* \"#utility.yul\":17707:17765   */\n      mstore\n        /* \"#utility.yul\":17799:17821   */\n      0x6565742074686520676976656e20616d6f756e74000000000000000000000000\n        /* \"#utility.yul\":17794:17796   */\n      0x20\n        /* \"#utility.yul\":17786:17792   */\n      dup3\n        /* \"#utility.yul\":17782:17797   */\n      add\n        /* \"#utility.yul\":17775:17822   */\n      mstore\n        /* \"#utility.yul\":17590:17829   */\n      pop\n      jump\t// out\n        /* \"#utility.yul\":17835:17957   */\n    tag_220:\n        /* \"#utility.yul\":17908:17932   */\n      tag_418\n        /* \"#utility.yul\":17926:17931   */\n      dup2\n        /* \"#utility.yul\":17908:17932   */\n      tag_252\n      jump\t// in\n    tag_418:\n        /* \"#utility.yul\":17901:17906   */\n      dup2\n        /* \"#utility.yul\":17898:17933   */\n      eq\n        /* \"#utility.yul\":17888:17951   */\n      tag_419\n      jumpi\n        /* \"#utility.yul\":17947:17948   */\n      0x00\n        /* \"#utility.yul\":17944:17945   */\n      dup1\n        /* \"#utility.yul\":17937:17949   */\n      revert\n        /* \"#utility.yul\":17888:17951   */\n    tag_419:\n        /* \"#utility.yul\":17835:17957   */\n      pop\n      jump\t// out\n        /* \"#utility.yul\":17963:18079   */\n    tag_224:\n        /* \"#utility.yul\":18033:18054   */\n      tag_421\n        /* \"#utility.yul\":18048:18053   */\n      dup2\n        /* \"#utility.yul\":18033:18054   */\n      tag_384\n      jump\t// in\n    tag_421:\n        /* \"#utility.yul\":18026:18031   */\n      dup2\n        /* \"#utility.yul\":18023:18055   */\n      eq\n        /* \"#utility.yul\":18013:18073   */\n      tag_422\n      jumpi\n        /* \"#utility.yul\":18069:18070   */\n      0x00\n        /* \"#utility.yul\":18066:18067   */\n      dup1\n        /* \"#utility.yul\":18059:18071   */\n      revert\n        /* \"#utility.yul\":18013:18073   */\n    tag_422:\n        /* \"#utility.yul\":17963:18079   */\n      pop\n      jump\t// out\n        /* \"#utility.yul\":18085:18207   */\n    tag_228:\n        /* \"#utility.yul\":18158:18182   */\n      tag_424\n        /* \"#utility.yul\":18176:18181   */\n      dup2\n        /* \"#utility.yul\":18158:18182   */\n      tag_322\n      jump\t// in\n    tag_424:\n        /* \"#utility.yul\":18151:18156   */\n      dup2\n        /* \"#utility.yul\":18148:18183   */\n      eq\n        /* \"#utility.yul\":18138:18201   */\n      tag_425\n      jumpi\n        /* \"#utility.yul\":18197:18198   */\n      0x00\n        /* \"#utility.yul\":18194:18195   */\n      dup1\n        /* \"#utility.yul\":18187:18199   */\n      revert\n        /* \"#utility.yul\":18138:18201   */\n    tag_425:\n        /* \"#utility.yul\":18085:18207   */\n      pop\n      jump\t// out\n\n    auxdata: 0xa2646970667358221220203fb563ac14be47c23e868580c2f390ca539aa426696d5f2ce6782251f1262f64736f6c63430008070033\n}\n",
				"bytecode": {
					"linkReferences": {},
					"object": "60806040523480156200001157600080fd5b5060405162001e4e38038062001e4e833981810160405281019062000037919062000229565b620000576200004b6200012f60201b60201c565b6200013760201b60201c565b600081116200009d576040517f08c379a00000000000000000000000000000000000000000000000000000000081526004016200009490620002ac565b60405180910390fd5b82600160006101000a81548173ffffffffffffffffffffffffffffffffffffffff021916908373ffffffffffffffffffffffffffffffffffffffff16021790555081600260006101000a81548173ffffffffffffffffffffffffffffffffffffffff021916908373ffffffffffffffffffffffffffffffffffffffff16021790555080600381905550505050620003b9565b600033905090565b60008060009054906101000a900473ffffffffffffffffffffffffffffffffffffffff169050816000806101000a81548173ffffffffffffffffffffffffffffffffffffffff021916908373ffffffffffffffffffffffffffffffffffffffff1602179055508173ffffffffffffffffffffffffffffffffffffffff168173ffffffffffffffffffffffffffffffffffffffff167f8be0079c531659141344cd1fd0a4f28419497f9722a3daafe3b4186f6b6457e060405160405180910390a35050565b6000815190506200020c8162000385565b92915050565b60008151905062000223816200039f565b92915050565b60008060006060848603121562000245576200024462000331565b5b60006200025586828701620001fb565b93505060206200026886828701620001fb565b92505060406200027b8682870162000212565b9150509250925092565b600062000294602e83620002ce565b9150620002a18262000336565b604082019050919050565b60006020820190508181036000830152620002c78162000285565b9050919050565b600082825260208201905092915050565b6000620002ec8262000307565b9050919050565b60006200030082620002df565b9050919050565b600073ffffffffffffffffffffffffffffffffffffffff82169050919050565b6000819050919050565b600080fd5b7f41424f41543a3a6572726f723a2050726963652068617320746f20626520686960008201527f67686572207468616e207a65726f000000000000000000000000000000000000602082015250565b6200039081620002f3565b81146200039c57600080fd5b50565b620003aa8162000327565b8114620003b657600080fd5b50565b611a8580620003c96000396000f3fe6080604052600436106100c25760003560e01c80638da5cb5b1161007f578063d96a094a11610059578063d96a094a1461026c578063f2fde38b14610288578063f3739e05146102b1578063f7c618c1146102ee576100c2565b80638da5cb5b146101c7578063a960c65f146101f2578063c884ef831461022f576100c2565b806306ee240d146100c75780632fba2c85146100f25780633013ce291461011d578063667022fd14610148578063715018a6146101855780637b1b1de61461019c575b600080fd5b3480156100d357600080fd5b506100dc610319565b6040516100e9919061152f565b60405180910390f35b3480156100fe57600080fd5b50610107610431565b604051610114919061152f565b60405180910390f35b34801561012957600080fd5b50610132610549565b60405161013f91906113d2565b60405180910390f35b34801561015457600080fd5b5061016f600480360381019061016a91906110ba565b61056f565b60405161017c919061152f565b60405180910390f35b34801561019157600080fd5b5061019a610587565b005b3480156101a857600080fd5b506101b161060f565b6040516101be919061152f565b60405180910390f35b3480156101d357600080fd5b506101dc610615565b6040516101e99190611357565b60405180910390f35b3480156101fe57600080fd5b50610219600480360381019061021491906110ba565b61063e565b604051610226919061152f565b60405180910390f35b34801561023b57600080fd5b50610256600480360381019061025191906110ba565b610656565b604051610263919061152f565b60405180910390f35b61028660048036038101906102819190611114565b61066e565b005b34801561029457600080fd5b506102af60048036038101906102aa91906110ba565b6108db565b005b3480156102bd57600080fd5b506102d860048036038101906102d391906110ba565b6109d3565b6040516102e59190611357565b60405180910390f35b3480156102fa57600080fd5b50610303610a06565b60405161031091906113d2565b60405180910390f35b600080600073ffffffffffffffffffffffffffffffffffffffff16600160009054906101000a900473ffffffffffffffffffffffffffffffffffffffff1673ffffffffffffffffffffffffffffffffffffffff16149050801561037f574791505061042e565b600160009054906101000a900473ffffffffffffffffffffffffffffffffffffffff1673ffffffffffffffffffffffffffffffffffffffff166370a08231306040518263ffffffff1660e01b81526004016103da9190611357565b60206040518083038186803b1580156103f257600080fd5b505afa158015610406573d6000803e3d6000fd5b505050506040513d601f19601f8201168201806040525081019061042a9190611141565b9150505b90565b600080600073ffffffffffffffffffffffffffffffffffffffff16600160009054906101000a900473ffffffffffffffffffffffffffffffffffffffff1673ffffffffffffffffffffffffffffffffffffffff1614905080156104975747915050610546565b600160009054906101000a900473ffffffffffffffffffffffffffffffffffffffff1673ffffffffffffffffffffffffffffffffffffffff166370a08231306040518263ffffffff1660e01b81526004016104f29190611357565b60206040518083038186803b15801561050a57600080fd5b505afa15801561051e573d6000803e3d6000fd5b505050506040513d601f19601f820116820180604052508101906105429190611141565b9150505b90565b600260009054906101000a900473ffffffffffffffffffffffffffffffffffffffff1681565b60046020528060005260406000206000915090505481565b61058f610a2c565b73ffffffffffffffffffffffffffffffffffffffff166105ad610615565b73ffffffffffffffffffffffffffffffffffffffff1614610603576040517f08c379a00000000000000000000000000000000000000000000000000000000081526004016105fa9061146f565b60405180910390fd5b61060d6000610a34565b565b60035481565b60008060009054906101000a900473ffffffffffffffffffffffffffffffffffffffff16905090565b60066020528060005260406000206000915090505481565b60056020528060005260406000206000915090505481565b60008073ffffffffffffffffffffffffffffffffffffffff16600260009054906101000a900473ffffffffffffffffffffffffffffffffffffffff1673ffffffffffffffffffffffffffffffffffffffff1614905060008073ffffffffffffffffffffffffffffffffffffffff16600160009054906101000a900473ffffffffffffffffffffffffffffffffffffffff1673ffffffffffffffffffffffffffffffffffffffff1614905081158061072457508234145b610763576040517f08c379a000000000000000000000000000000000000000000000000000000000815260040161075a9061150f565b60405180910390fd5b6000610794600354610786670de0b6b3a764000087610af890919063ffffffff16565b610b0e90919063ffffffff16565b905060006107b2826107a4610431565b610b2490919063ffffffff16565b116107f2576040517f08c379a00000000000000000000000000000000000000000000000000000000081526004016107e99061148f565b60405180910390fd5b8261084e5761084d33610803610615565b86600260009054906101000a900473ffffffffffffffffffffffffffffffffffffffff1673ffffffffffffffffffffffffffffffffffffffff16610b3a909392919063ffffffff16565b5b81156108635761085e3385610bc3565b610891565b610890600160009054906101000a900473ffffffffffffffffffffffffffffffffffffffff163386610cc3565b5b833373ffffffffffffffffffffffffffffffffffffffff167fc55650ccda1011e1cdc769b1fbf546ebb8c97800b6072b49e06cd560305b1d6760405160405180910390a350505050565b6108e3610a2c565b73ffffffffffffffffffffffffffffffffffffffff16610901610615565b73ffffffffffffffffffffffffffffffffffffffff1614610957576040517f08c379a000000000000000000000000000000000000000000000000000000000815260040161094e9061146f565b60405180910390fd5b600073ffffffffffffffffffffffffffffffffffffffff168173ffffffffffffffffffffffffffffffffffffffff1614156109c7576040517f08c379a00000000000000000000000000000000000000000000000000000000081526004016109be9061140f565b60405180910390fd5b6109d081610a34565b50565b60076020528060005260406000206000915054906101000a900473ffffffffffffffffffffffffffffffffffffffff1681565b600160009054906101000a900473ffffffffffffffffffffffffffffffffffffffff1681565b600033905090565b60008060009054906101000a900473ffffffffffffffffffffffffffffffffffffffff169050816000806101000a81548173ffffffffffffffffffffffffffffffffffffffff021916908373ffffffffffffffffffffffffffffffffffffffff1602179055508173ffffffffffffffffffffffffffffffffffffffff168173ffffffffffffffffffffffffffffffffffffffff167f8be0079c531659141344cd1fd0a4f28419497f9722a3daafe3b4186f6b6457e060405160405180910390a35050565b60008183610b0691906115ad565b905092915050565b60008183610b1c919061157c565b905092915050565b60008183610b329190611607565b905092915050565b610bbd846323b872dd60e01b858585604051602401610b5b93929190611372565b604051602081830303815290604052907bffffffffffffffffffffffffffffffffffffffffffffffffffffffff19166020820180517bffffffffffffffffffffffffffffffffffffffffffffffffffffffff8381831617835250505050610df9565b50505050565b60008273ffffffffffffffffffffffffffffffffffffffff1682600067ffffffffffffffff811115610bf857610bf761174a565b5b6040519080825280601f01601f191660200182016040528015610c2a5781602001600182028036833780820191505090505b50604051610c389190611340565b60006040518083038185875af1925050503d8060008114610c75576040519150601f19603f3d011682016040523d82523d6000602084013e610c7a565b606091505b5050905080610cbe576040517f08c379a0000000000000000000000000000000000000000000000000000000008152600401610cb59061142f565b60405180910390fd5b505050565b6000808473ffffffffffffffffffffffffffffffffffffffff1663a9059cbb8585604051602401610cf59291906113a9565b6040516020818303038152906040529060e01b6020820180517bffffffffffffffffffffffffffffffffffffffffffffffffffffffff8381831617835250505050604051610d439190611340565b6000604051808303816000865af19150503d8060008114610d80576040519150601f19603f3d011682016040523d82523d6000602084013e610d85565b606091505b5091509150818015610db35750600081511480610db2575080806020019051810190610db191906110e7565b5b5b610df2576040517f08c379a0000000000000000000000000000000000000000000000000000000008152600401610de9906114cf565b60405180910390fd5b5050505050565b6000610e5b826040518060400160405280602081526020017f5361666545524332303a206c6f772d6c6576656c2063616c6c206661696c65648152508573ffffffffffffffffffffffffffffffffffffffff16610ec09092919063ffffffff16565b9050600081511115610ebb5780806020019051810190610e7b91906110e7565b610eba576040517f08c379a0000000000000000000000000000000000000000000000000000000008152600401610eb1906114ef565b60405180910390fd5b5b505050565b6060610ecf8484600085610ed8565b90509392505050565b606082471015610f1d576040517f08c379a0000000000000000000000000000000000000000000000000000000008152600401610f149061144f565b60405180910390fd5b610f2685610fec565b610f65576040517f08c379a0000000000000000000000000000000000000000000000000000000008152600401610f5c906114af565b60405180910390fd5b6000808673ffffffffffffffffffffffffffffffffffffffff168587604051610f8e9190611340565b60006040518083038185875af1925050503d8060008114610fcb576040519150601f19603f3d011682016040523d82523d6000602084013e610fd0565b606091505b5091509150610fe0828286610fff565b92505050949350505050565b600080823b905060008111915050919050565b6060831561100f5782905061105f565b6000835111156110225782518084602001fd5b816040517f08c379a000000000000000000000000000000000000000000000000000000000815260040161105691906113ed565b60405180910390fd5b9392505050565b60008135905061107581611a0a565b92915050565b60008151905061108a81611a21565b92915050565b60008135905061109f81611a38565b92915050565b6000815190506110b481611a38565b92915050565b6000602082840312156110d0576110cf611779565b5b60006110de84828501611066565b91505092915050565b6000602082840312156110fd576110fc611779565b5b600061110b8482850161107b565b91505092915050565b60006020828403121561112a57611129611779565b5b600061113884828501611090565b91505092915050565b60006020828403121561115757611156611779565b5b6000611165848285016110a5565b91505092915050565b6111778161163b565b82525050565b60006111888261154a565b6111928185611560565b93506111a28185602086016116b9565b80840191505092915050565b6111b781611683565b82525050565b60006111c882611555565b6111d2818561156b565b93506111e28185602086016116b9565b6111eb8161177e565b840191505092915050565b600061120360268361156b565b915061120e8261178f565b604082019050919050565b600061122660348361156b565b9150611231826117de565b604082019050919050565b600061124960268361156b565b91506112548261182d565b604082019050919050565b600061126c60208361156b565b91506112778261187c565b602082019050919050565b600061128f60358361156b565b915061129a826118a5565b604082019050919050565b60006112b2601d8361156b565b91506112bd826118f4565b602082019050919050565b60006112d5602d8361156b565b91506112e08261191d565b604082019050919050565b60006112f8602a8361156b565b91506113038261196c565b604082019050919050565b600061131b60348361156b565b9150611326826119bb565b604082019050919050565b61133a81611679565b82525050565b600061134c828461117d565b915081905092915050565b600060208201905061136c600083018461116e565b92915050565b6000606082019050611387600083018661116e565b611394602083018561116e565b6113a16040830184611331565b949350505050565b60006040820190506113be600083018561116e565b6113cb6020830184611331565b9392505050565b60006020820190506113e760008301846111ae565b92915050565b6000602082019050818103600083015261140781846111bd565b905092915050565b60006020820190508181036000830152611428816111f6565b9050919050565b6000602082019050818103600083015261144881611219565b9050919050565b600060208201905081810360008301526114688161123c565b9050919050565b600060208201905081810360008301526114888161125f565b9050919050565b600060208201905081810360008301526114a881611282565b9050919050565b600060208201905081810360008301526114c8816112a5565b9050919050565b600060208201905081810360008301526114e8816112c8565b9050919050565b60006020820190508181036000830152611508816112eb565b9050919050565b600060208201905081810360008301526115288161130e565b9050919050565b60006020820190506115446000830184611331565b92915050565b600081519050919050565b600081519050919050565b600081905092915050565b600082825260208201905092915050565b600061158782611679565b915061159283611679565b9250826115a2576115a161171b565b5b828204905092915050565b60006115b882611679565b91506115c383611679565b9250817fffffffffffffffffffffffffffffffffffffffffffffffffffffffffffffffff04831182151516156115fc576115fb6116ec565b5b828202905092915050565b600061161282611679565b915061161d83611679565b9250828210156116305761162f6116ec565b5b828203905092915050565b600061164682611659565b9050919050565b60008115159050919050565b600073ffffffffffffffffffffffffffffffffffffffff82169050919050565b6000819050919050565b600061168e82611695565b9050919050565b60006116a0826116a7565b9050919050565b60006116b282611659565b9050919050565b60005b838110156116d75780820151818401526020810190506116bc565b838111156116e6576000848401525b50505050565b7f4e487b7100000000000000000000000000000000000000000000000000000000600052601160045260246000fd5b7f4e487b7100000000000000000000000000000000000000000000000000000000600052601260045260246000fd5b7f4e487b7100000000000000000000000000000000000000000000000000000000600052604160045260246000fd5b600080fd5b6000601f19601f8301169050919050565b7f4f776e61626c653a206e6577206f776e657220697320746865207a65726f206160008201527f6464726573730000000000000000000000000000000000000000000000000000602082015250565b7f5472616e7366657248656c7065723a3a736166655472616e736665724554483a60008201527f20455448207472616e73666572206661696c6564000000000000000000000000602082015250565b7f416464726573733a20696e73756666696369656e742062616c616e636520666f60008201527f722063616c6c0000000000000000000000000000000000000000000000000000602082015250565b7f4f776e61626c653a2063616c6c6572206973206e6f7420746865206f776e6572600082015250565b7f41424f41543a3a6275793a20416d6f756e7420776f756c64206578636565642060008201527f7468652072656d61696e696e672062616c616e63650000000000000000000000602082015250565b7f416464726573733a2063616c6c20746f206e6f6e2d636f6e7472616374000000600082015250565b7f5472616e7366657248656c7065723a3a736166655472616e736665723a20747260008201527f616e73666572206661696c656400000000000000000000000000000000000000602082015250565b7f5361666545524332303a204552433230206f7065726174696f6e20646964206e60008201527f6f74207375636365656400000000000000000000000000000000000000000000602082015250565b7f41424f41543a3a6275793a2053656e742076616c756520646f65736e2774206d60008201527f6565742074686520676976656e20616d6f756e74000000000000000000000000602082015250565b611a138161163b565b8114611a1e57600080fd5b50565b611a2a8161164d565b8114611a3557600080fd5b50565b611a4181611679565b8114611a4c57600080fd5b5056fea2646970667358221220203fb563ac14be47c23e868580c2f390ca539aa426696d5f2ce6782251f1262f64736f6c63430008070033",
					"opcodes": "PUSH1 0x80 PUSH1 0x40 MSTORE CALLVALUE DUP1 ISZERO PUSH3 0x11 JUMPI PUSH1 0x0 DUP1 REVERT JUMPDEST POP PUSH1 0x40 MLOAD PUSH3 0x1E4E CODESIZE SUB DUP1 PUSH3 0x1E4E DUP4 CODECOPY DUP2 DUP2 ADD PUSH1 0x40 MSTORE DUP2 ADD SWAP1 PUSH3 0x37 SWAP2 SWAP1 PUSH3 0x229 JUMP JUMPDEST PUSH3 0x57 PUSH3 0x4B PUSH3 0x12F PUSH1 0x20 SHL PUSH1 0x20 SHR JUMP JUMPDEST PUSH3 0x137 PUSH1 0x20 SHL PUSH1 0x20 SHR JUMP JUMPDEST PUSH1 0x0 DUP2 GT PUSH3 0x9D JUMPI PUSH1 0x40 MLOAD PUSH32 0x8C379A000000000000000000000000000000000000000000000000000000000 DUP2 MSTORE PUSH1 0x4 ADD PUSH3 0x94 SWAP1 PUSH3 0x2AC JUMP JUMPDEST PUSH1 0x40 MLOAD DUP1 SWAP2 SUB SWAP1 REVERT JUMPDEST DUP3 PUSH1 0x1 PUSH1 0x0 PUSH2 0x100 EXP DUP2 SLOAD DUP2 PUSH20 0xFFFFFFFFFFFFFFFFFFFFFFFFFFFFFFFFFFFFFFFF MUL NOT AND SWAP1 DUP4 PUSH20 0xFFFFFFFFFFFFFFFFFFFFFFFFFFFFFFFFFFFFFFFF AND MUL OR SWAP1 SSTORE POP DUP2 PUSH1 0x2 PUSH1 0x0 PUSH2 0x100 EXP DUP2 SLOAD DUP2 PUSH20 0xFFFFFFFFFFFFFFFFFFFFFFFFFFFFFFFFFFFFFFFF MUL NOT AND SWAP1 DUP4 PUSH20 0xFFFFFFFFFFFFFFFFFFFFFFFFFFFFFFFFFFFFFFFF AND MUL OR SWAP1 SSTORE POP DUP1 PUSH1 0x3 DUP2 SWAP1 SSTORE POP POP POP POP PUSH3 0x3B9 JUMP JUMPDEST PUSH1 0x0 CALLER SWAP1 POP SWAP1 JUMP JUMPDEST PUSH1 0x0 DUP1 PUSH1 0x0 SWAP1 SLOAD SWAP1 PUSH2 0x100 EXP SWAP1 DIV PUSH20 0xFFFFFFFFFFFFFFFFFFFFFFFFFFFFFFFFFFFFFFFF AND SWAP1 POP DUP2 PUSH1 0x0 DUP1 PUSH2 0x100 EXP DUP2 SLOAD DUP2 PUSH20 0xFFFFFFFFFFFFFFFFFFFFFFFFFFFFFFFFFFFFFFFF MUL NOT AND SWAP1 DUP4 PUSH20 0xFFFFFFFFFFFFFFFFFFFFFFFFFFFFFFFFFFFFFFFF AND MUL OR SWAP1 SSTORE POP DUP2 PUSH20 0xFFFFFFFFFFFFFFFFFFFFFFFFFFFFFFFFFFFFFFFF AND DUP2 PUSH20 0xFFFFFFFFFFFFFFFFFFFFFFFFFFFFFFFFFFFFFFFF AND PUSH32 0x8BE0079C531659141344CD1FD0A4F28419497F9722A3DAAFE3B4186F6B6457E0 PUSH1 0x40 MLOAD PUSH1 0x40 MLOAD DUP1 SWAP2 SUB SWAP1 LOG3 POP POP JUMP JUMPDEST PUSH1 0x0 DUP2 MLOAD SWAP1 POP PUSH3 0x20C DUP2 PUSH3 0x385 JUMP JUMPDEST SWAP3 SWAP2 POP POP JUMP JUMPDEST PUSH1 0x0 DUP2 MLOAD SWAP1 POP PUSH3 0x223 DUP2 PUSH3 0x39F JUMP JUMPDEST SWAP3 SWAP2 POP POP JUMP JUMPDEST PUSH1 0x0 DUP1 PUSH1 0x0 PUSH1 0x60 DUP5 DUP7 SUB SLT ISZERO PUSH3 0x245 JUMPI PUSH3 0x244 PUSH3 0x331 JUMP JUMPDEST JUMPDEST PUSH1 0x0 PUSH3 0x255 DUP7 DUP3 DUP8 ADD PUSH3 0x1FB JUMP JUMPDEST SWAP4 POP POP PUSH1 0x20 PUSH3 0x268 DUP7 DUP3 DUP8 ADD PUSH3 0x1FB JUMP JUMPDEST SWAP3 POP POP PUSH1 0x40 PUSH3 0x27B DUP7 DUP3 DUP8 ADD PUSH3 0x212 JUMP JUMPDEST SWAP2 POP POP SWAP3 POP SWAP3 POP SWAP3 JUMP JUMPDEST PUSH1 0x0 PUSH3 0x294 PUSH1 0x2E DUP4 PUSH3 0x2CE JUMP JUMPDEST SWAP2 POP PUSH3 0x2A1 DUP3 PUSH3 0x336 JUMP JUMPDEST PUSH1 0x40 DUP3 ADD SWAP1 POP SWAP2 SWAP1 POP JUMP JUMPDEST PUSH1 0x0 PUSH1 0x20 DUP3 ADD SWAP1 POP DUP2 DUP2 SUB PUSH1 0x0 DUP4 ADD MSTORE PUSH3 0x2C7 DUP2 PUSH3 0x285 JUMP JUMPDEST SWAP1 POP SWAP2 SWAP1 POP JUMP JUMPDEST PUSH1 0x0 DUP3 DUP3 MSTORE PUSH1 0x20 DUP3 ADD SWAP1 POP SWAP3 SWAP2 POP POP JUMP JUMPDEST PUSH1 0x0 PUSH3 0x2EC DUP3 PUSH3 0x307 JUMP JUMPDEST SWAP1 POP SWAP2 SWAP1 POP JUMP JUMPDEST PUSH1 0x0 PUSH3 0x300 DUP3 PUSH3 0x2DF JUMP JUMPDEST SWAP1 POP SWAP2 SWAP1 POP JUMP JUMPDEST PUSH1 0x0 PUSH20 0xFFFFFFFFFFFFFFFFFFFFFFFFFFFFFFFFFFFFFFFF DUP3 AND SWAP1 POP SWAP2 SWAP1 POP JUMP JUMPDEST PUSH1 0x0 DUP2 SWAP1 POP SWAP2 SWAP1 POP JUMP JUMPDEST PUSH1 0x0 DUP1 REVERT JUMPDEST PUSH32 0x41424F41543A3A6572726F723A2050726963652068617320746F206265206869 PUSH1 0x0 DUP3 ADD MSTORE PUSH32 0x67686572207468616E207A65726F000000000000000000000000000000000000 PUSH1 0x20 DUP3 ADD MSTORE POP JUMP JUMPDEST PUSH3 0x390 DUP2 PUSH3 0x2F3 JUMP JUMPDEST DUP2 EQ PUSH3 0x39C JUMPI PUSH1 0x0 DUP1 REVERT JUMPDEST POP JUMP JUMPDEST PUSH3 0x3AA DUP2 PUSH3 0x327 JUMP JUMPDEST DUP2 EQ PUSH3 0x3B6 JUMPI PUSH1 0x0 DUP1 REVERT JUMPDEST POP JUMP JUMPDEST PUSH2 0x1A85 DUP1 PUSH3 0x3C9 PUSH1 0x0 CODECOPY PUSH1 0x0 RETURN INVALID PUSH1 0x80 PUSH1 0x40 MSTORE PUSH1 0x4 CALLDATASIZE LT PUSH2 0xC2 JUMPI PUSH1 0x0 CALLDATALOAD PUSH1 0xE0 SHR DUP1 PUSH4 0x8DA5CB5B GT PUSH2 0x7F JUMPI DUP1 PUSH4 0xD96A094A GT PUSH2 0x59 JUMPI DUP1 PUSH4 0xD96A094A EQ PUSH2 0x26C JUMPI DUP1 PUSH4 0xF2FDE38B EQ PUSH2 0x288 JUMPI DUP1 PUSH4 0xF3739E05 EQ PUSH2 0x2B1 JUMPI DUP1 PUSH4 0xF7C618C1 EQ PUSH2 0x2EE JUMPI PUSH2 0xC2 JUMP JUMPDEST DUP1 PUSH4 0x8DA5CB5B EQ PUSH2 0x1C7 JUMPI DUP1 PUSH4 0xA960C65F EQ PUSH2 0x1F2 JUMPI DUP1 PUSH4 0xC884EF83 EQ PUSH2 0x22F JUMPI PUSH2 0xC2 JUMP JUMPDEST DUP1 PUSH4 0x6EE240D EQ PUSH2 0xC7 JUMPI DUP1 PUSH4 0x2FBA2C85 EQ PUSH2 0xF2 JUMPI DUP1 PUSH4 0x3013CE29 EQ PUSH2 0x11D JUMPI DUP1 PUSH4 0x667022FD EQ PUSH2 0x148 JUMPI DUP1 PUSH4 0x715018A6 EQ PUSH2 0x185 JUMPI DUP1 PUSH4 0x7B1B1DE6 EQ PUSH2 0x19C JUMPI JUMPDEST PUSH1 0x0 DUP1 REVERT JUMPDEST CALLVALUE DUP1 ISZERO PUSH2 0xD3 JUMPI PUSH1 0x0 DUP1 REVERT JUMPDEST POP PUSH2 0xDC PUSH2 0x319 JUMP JUMPDEST PUSH1 0x40 MLOAD PUSH2 0xE9 SWAP2 SWAP1 PUSH2 0x152F JUMP JUMPDEST PUSH1 0x40 MLOAD DUP1 SWAP2 SUB SWAP1 RETURN JUMPDEST CALLVALUE DUP1 ISZERO PUSH2 0xFE JUMPI PUSH1 0x0 DUP1 REVERT JUMPDEST POP PUSH2 0x107 PUSH2 0x431 JUMP JUMPDEST PUSH1 0x40 MLOAD PUSH2 0x114 SWAP2 SWAP1 PUSH2 0x152F JUMP JUMPDEST PUSH1 0x40 MLOAD DUP1 SWAP2 SUB SWAP1 RETURN JUMPDEST CALLVALUE DUP1 ISZERO PUSH2 0x129 JUMPI PUSH1 0x0 DUP1 REVERT JUMPDEST POP PUSH2 0x132 PUSH2 0x549 JUMP JUMPDEST PUSH1 0x40 MLOAD PUSH2 0x13F SWAP2 SWAP1 PUSH2 0x13D2 JUMP JUMPDEST PUSH1 0x40 MLOAD DUP1 SWAP2 SUB SWAP1 RETURN JUMPDEST CALLVALUE DUP1 ISZERO PUSH2 0x154 JUMPI PUSH1 0x0 DUP1 REVERT JUMPDEST POP PUSH2 0x16F PUSH1 0x4 DUP1 CALLDATASIZE SUB DUP2 ADD SWAP1 PUSH2 0x16A SWAP2 SWAP1 PUSH2 0x10BA JUMP JUMPDEST PUSH2 0x56F JUMP JUMPDEST PUSH1 0x40 MLOAD PUSH2 0x17C SWAP2 SWAP1 PUSH2 0x152F JUMP JUMPDEST PUSH1 0x40 MLOAD DUP1 SWAP2 SUB SWAP1 RETURN JUMPDEST CALLVALUE DUP1 ISZERO PUSH2 0x191 JUMPI PUSH1 0x0 DUP1 REVERT JUMPDEST POP PUSH2 0x19A PUSH2 0x587 JUMP JUMPDEST STOP JUMPDEST CALLVALUE DUP1 ISZERO PUSH2 0x1A8 JUMPI PUSH1 0x0 DUP1 REVERT JUMPDEST POP PUSH2 0x1B1 PUSH2 0x60F JUMP JUMPDEST PUSH1 0x40 MLOAD PUSH2 0x1BE SWAP2 SWAP1 PUSH2 0x152F JUMP JUMPDEST PUSH1 0x40 MLOAD DUP1 SWAP2 SUB SWAP1 RETURN JUMPDEST CALLVALUE DUP1 ISZERO PUSH2 0x1D3 JUMPI PUSH1 0x0 DUP1 REVERT JUMPDEST POP PUSH2 0x1DC PUSH2 0x615 JUMP JUMPDEST PUSH1 0x40 MLOAD PUSH2 0x1E9 SWAP2 SWAP1 PUSH2 0x1357 JUMP JUMPDEST PUSH1 0x40 MLOAD DUP1 SWAP2 SUB SWAP1 RETURN JUMPDEST CALLVALUE DUP1 ISZERO PUSH2 0x1FE JUMPI PUSH1 0x0 DUP1 REVERT JUMPDEST POP PUSH2 0x219 PUSH1 0x4 DUP1 CALLDATASIZE SUB DUP2 ADD SWAP1 PUSH2 0x214 SWAP2 SWAP1 PUSH2 0x10BA JUMP JUMPDEST PUSH2 0x63E JUMP JUMPDEST PUSH1 0x40 MLOAD PUSH2 0x226 SWAP2 SWAP1 PUSH2 0x152F JUMP JUMPDEST PUSH1 0x40 MLOAD DUP1 SWAP2 SUB SWAP1 RETURN JUMPDEST CALLVALUE DUP1 ISZERO PUSH2 0x23B JUMPI PUSH1 0x0 DUP1 REVERT JUMPDEST POP PUSH2 0x256 PUSH1 0x4 DUP1 CALLDATASIZE SUB DUP2 ADD SWAP1 PUSH2 0x251 SWAP2 SWAP1 PUSH2 0x10BA JUMP JUMPDEST PUSH2 0x656 JUMP JUMPDEST PUSH1 0x40 MLOAD PUSH2 0x263 SWAP2 SWAP1 PUSH2 0x152F JUMP JUMPDEST PUSH1 0x40 MLOAD DUP1 SWAP2 SUB SWAP1 RETURN JUMPDEST PUSH2 0x286 PUSH1 0x4 DUP1 CALLDATASIZE SUB DUP2 ADD SWAP1 PUSH2 0x281 SWAP2 SWAP1 PUSH2 0x1114 JUMP JUMPDEST PUSH2 0x66E JUMP JUMPDEST STOP JUMPDEST CALLVALUE DUP1 ISZERO PUSH2 0x294 JUMPI PUSH1 0x0 DUP1 REVERT JUMPDEST POP PUSH2 0x2AF PUSH1 0x4 DUP1 CALLDATASIZE SUB DUP2 ADD SWAP1 PUSH2 0x2AA SWAP2 SWAP1 PUSH2 0x10BA JUMP JUMPDEST PUSH2 0x8DB JUMP JUMPDEST STOP JUMPDEST CALLVALUE DUP1 ISZERO PUSH2 0x2BD JUMPI PUSH1 0x0 DUP1 REVERT JUMPDEST POP PUSH2 0x2D8 PUSH1 0x4 DUP1 CALLDATASIZE SUB DUP2 ADD SWAP1 PUSH2 0x2D3 SWAP2 SWAP1 PUSH2 0x10BA JUMP JUMPDEST PUSH2 0x9D3 JUMP JUMPDEST PUSH1 0x40 MLOAD PUSH2 0x2E5 SWAP2 SWAP1 PUSH2 0x1357 JUMP JUMPDEST PUSH1 0x40 MLOAD DUP1 SWAP2 SUB SWAP1 RETURN JUMPDEST CALLVALUE DUP1 ISZERO PUSH2 0x2FA JUMPI PUSH1 0x0 DUP1 REVERT JUMPDEST POP PUSH2 0x303 PUSH2 0xA06 JUMP JUMPDEST PUSH1 0x40 MLOAD PUSH2 0x310 SWAP2 SWAP1 PUSH2 0x13D2 JUMP JUMPDEST PUSH1 0x40 MLOAD DUP1 SWAP2 SUB SWAP1 RETURN JUMPDEST PUSH1 0x0 DUP1 PUSH1 0x0 PUSH20 0xFFFFFFFFFFFFFFFFFFFFFFFFFFFFFFFFFFFFFFFF AND PUSH1 0x1 PUSH1 0x0 SWAP1 SLOAD SWAP1 PUSH2 0x100 EXP SWAP1 DIV PUSH20 0xFFFFFFFFFFFFFFFFFFFFFFFFFFFFFFFFFFFFFFFF AND PUSH20 0xFFFFFFFFFFFFFFFFFFFFFFFFFFFFFFFFFFFFFFFF AND EQ SWAP1 POP DUP1 ISZERO PUSH2 0x37F JUMPI SELFBALANCE SWAP2 POP POP PUSH2 0x42E JUMP JUMPDEST PUSH1 0x1 PUSH1 0x0 SWAP1 SLOAD SWAP1 PUSH2 0x100 EXP SWAP1 DIV PUSH20 0xFFFFFFFFFFFFFFFFFFFFFFFFFFFFFFFFFFFFFFFF AND PUSH20 0xFFFFFFFFFFFFFFFFFFFFFFFFFFFFFFFFFFFFFFFF AND PUSH4 0x70A08231 ADDRESS PUSH1 0x40 MLOAD DUP3 PUSH4 0xFFFFFFFF AND PUSH1 0xE0 SHL DUP2 MSTORE PUSH1 0x4 ADD PUSH2 0x3DA SWAP2 SWAP1 PUSH2 0x1357 JUMP JUMPDEST PUSH1 0x20 PUSH1 0x40 MLOAD DUP1 DUP4 SUB DUP2 DUP7 DUP1 EXTCODESIZE ISZERO DUP1 ISZERO PUSH2 0x3F2 JUMPI PUSH1 0x0 DUP1 REVERT JUMPDEST POP GAS STATICCALL ISZERO DUP1 ISZERO PUSH2 0x406 JUMPI RETURNDATASIZE PUSH1 0x0 DUP1 RETURNDATACOPY RETURNDATASIZE PUSH1 0x0 REVERT JUMPDEST POP POP POP POP PUSH1 0x40 MLOAD RETURNDATASIZE PUSH1 0x1F NOT PUSH1 0x1F DUP3 ADD AND DUP3 ADD DUP1 PUSH1 0x40 MSTORE POP DUP2 ADD SWAP1 PUSH2 0x42A SWAP2 SWAP1 PUSH2 0x1141 JUMP JUMPDEST SWAP2 POP POP JUMPDEST SWAP1 JUMP JUMPDEST PUSH1 0x0 DUP1 PUSH1 0x0 PUSH20 0xFFFFFFFFFFFFFFFFFFFFFFFFFFFFFFFFFFFFFFFF AND PUSH1 0x1 PUSH1 0x0 SWAP1 SLOAD SWAP1 PUSH2 0x100 EXP SWAP1 DIV PUSH20 0xFFFFFFFFFFFFFFFFFFFFFFFFFFFFFFFFFFFFFFFF AND PUSH20 0xFFFFFFFFFFFFFFFFFFFFFFFFFFFFFFFFFFFFFFFF AND EQ SWAP1 POP DUP1 ISZERO PUSH2 0x497 JUMPI SELFBALANCE SWAP2 POP POP PUSH2 0x546 JUMP JUMPDEST PUSH1 0x1 PUSH1 0x0 SWAP1 SLOAD SWAP1 PUSH2 0x100 EXP SWAP1 DIV PUSH20 0xFFFFFFFFFFFFFFFFFFFFFFFFFFFFFFFFFFFFFFFF AND PUSH20 0xFFFFFFFFFFFFFFFFFFFFFFFFFFFFFFFFFFFFFFFF AND PUSH4 0x70A08231 ADDRESS PUSH1 0x40 MLOAD DUP3 PUSH4 0xFFFFFFFF AND PUSH1 0xE0 SHL DUP2 MSTORE PUSH1 0x4 ADD PUSH2 0x4F2 SWAP2 SWAP1 PUSH2 0x1357 JUMP JUMPDEST PUSH1 0x20 PUSH1 0x40 MLOAD DUP1 DUP4 SUB DUP2 DUP7 DUP1 EXTCODESIZE ISZERO DUP1 ISZERO PUSH2 0x50A JUMPI PUSH1 0x0 DUP1 REVERT JUMPDEST POP GAS STATICCALL ISZERO DUP1 ISZERO PUSH2 0x51E JUMPI RETURNDATASIZE PUSH1 0x0 DUP1 RETURNDATACOPY RETURNDATASIZE PUSH1 0x0 REVERT JUMPDEST POP POP POP POP PUSH1 0x40 MLOAD RETURNDATASIZE PUSH1 0x1F NOT PUSH1 0x1F DUP3 ADD AND DUP3 ADD DUP1 PUSH1 0x40 MSTORE POP DUP2 ADD SWAP1 PUSH2 0x542 SWAP2 SWAP1 PUSH2 0x1141 JUMP JUMPDEST SWAP2 POP POP JUMPDEST SWAP1 JUMP JUMPDEST PUSH1 0x2 PUSH1 0x0 SWAP1 SLOAD SWAP1 PUSH2 0x100 EXP SWAP1 DIV PUSH20 0xFFFFFFFFFFFFFFFFFFFFFFFFFFFFFFFFFFFFFFFF AND DUP2 JUMP JUMPDEST PUSH1 0x4 PUSH1 0x20 MSTORE DUP1 PUSH1 0x0 MSTORE PUSH1 0x40 PUSH1 0x0 KECCAK256 PUSH1 0x0 SWAP2 POP SWAP1 POP SLOAD DUP2 JUMP JUMPDEST PUSH2 0x58F PUSH2 0xA2C JUMP JUMPDEST PUSH20 0xFFFFFFFFFFFFFFFFFFFFFFFFFFFFFFFFFFFFFFFF AND PUSH2 0x5AD PUSH2 0x615 JUMP JUMPDEST PUSH20 0xFFFFFFFFFFFFFFFFFFFFFFFFFFFFFFFFFFFFFFFF AND EQ PUSH2 0x603 JUMPI PUSH1 0x40 MLOAD PUSH32 0x8C379A000000000000000000000000000000000000000000000000000000000 DUP2 MSTORE PUSH1 0x4 ADD PUSH2 0x5FA SWAP1 PUSH2 0x146F JUMP JUMPDEST PUSH1 0x40 MLOAD DUP1 SWAP2 SUB SWAP1 REVERT JUMPDEST PUSH2 0x60D PUSH1 0x0 PUSH2 0xA34 JUMP JUMPDEST JUMP JUMPDEST PUSH1 0x3 SLOAD DUP2 JUMP JUMPDEST PUSH1 0x0 DUP1 PUSH1 0x0 SWAP1 SLOAD SWAP1 PUSH2 0x100 EXP SWAP1 DIV PUSH20 0xFFFFFFFFFFFFFFFFFFFFFFFFFFFFFFFFFFFFFFFF AND SWAP1 POP SWAP1 JUMP JUMPDEST PUSH1 0x6 PUSH1 0x20 MSTORE DUP1 PUSH1 0x0 MSTORE PUSH1 0x40 PUSH1 0x0 KECCAK256 PUSH1 0x0 SWAP2 POP SWAP1 POP SLOAD DUP2 JUMP JUMPDEST PUSH1 0x5 PUSH1 0x20 MSTORE DUP1 PUSH1 0x0 MSTORE PUSH1 0x40 PUSH1 0x0 KECCAK256 PUSH1 0x0 SWAP2 POP SWAP1 POP SLOAD DUP2 JUMP JUMPDEST PUSH1 0x0 DUP1 PUSH20 0xFFFFFFFFFFFFFFFFFFFFFFFFFFFFFFFFFFFFFFFF AND PUSH1 0x2 PUSH1 0x0 SWAP1 SLOAD SWAP1 PUSH2 0x100 EXP SWAP1 DIV PUSH20 0xFFFFFFFFFFFFFFFFFFFFFFFFFFFFFFFFFFFFFFFF AND PUSH20 0xFFFFFFFFFFFFFFFFFFFFFFFFFFFFFFFFFFFFFFFF AND EQ SWAP1 POP PUSH1 0x0 DUP1 PUSH20 0xFFFFFFFFFFFFFFFFFFFFFFFFFFFFFFFFFFFFFFFF AND PUSH1 0x1 PUSH1 0x0 SWAP1 SLOAD SWAP1 PUSH2 0x100 EXP SWAP1 DIV PUSH20 0xFFFFFFFFFFFFFFFFFFFFFFFFFFFFFFFFFFFFFFFF AND PUSH20 0xFFFFFFFFFFFFFFFFFFFFFFFFFFFFFFFFFFFFFFFF AND EQ SWAP1 POP DUP2 ISZERO DUP1 PUSH2 0x724 JUMPI POP DUP3 CALLVALUE EQ JUMPDEST PUSH2 0x763 JUMPI PUSH1 0x40 MLOAD PUSH32 0x8C379A000000000000000000000000000000000000000000000000000000000 DUP2 MSTORE PUSH1 0x4 ADD PUSH2 0x75A SWAP1 PUSH2 0x150F JUMP JUMPDEST PUSH1 0x40 MLOAD DUP1 SWAP2 SUB SWAP1 REVERT JUMPDEST PUSH1 0x0 PUSH2 0x794 PUSH1 0x3 SLOAD PUSH2 0x786 PUSH8 0xDE0B6B3A7640000 DUP8 PUSH2 0xAF8 SWAP1 SWAP2 SWAP1 PUSH4 0xFFFFFFFF AND JUMP JUMPDEST PUSH2 0xB0E SWAP1 SWAP2 SWAP1 PUSH4 0xFFFFFFFF AND JUMP JUMPDEST SWAP1 POP PUSH1 0x0 PUSH2 0x7B2 DUP3 PUSH2 0x7A4 PUSH2 0x431 JUMP JUMPDEST PUSH2 0xB24 SWAP1 SWAP2 SWAP1 PUSH4 0xFFFFFFFF AND JUMP JUMPDEST GT PUSH2 0x7F2 JUMPI PUSH1 0x40 MLOAD PUSH32 0x8C379A000000000000000000000000000000000000000000000000000000000 DUP2 MSTORE PUSH1 0x4 ADD PUSH2 0x7E9 SWAP1 PUSH2 0x148F JUMP JUMPDEST PUSH1 0x40 MLOAD DUP1 SWAP2 SUB SWAP1 REVERT JUMPDEST DUP3 PUSH2 0x84E JUMPI PUSH2 0x84D CALLER PUSH2 0x803 PUSH2 0x615 JUMP JUMPDEST DUP7 PUSH1 0x2 PUSH1 0x0 SWAP1 SLOAD SWAP1 PUSH2 0x100 EXP SWAP1 DIV PUSH20 0xFFFFFFFFFFFFFFFFFFFFFFFFFFFFFFFFFFFFFFFF AND PUSH20 0xFFFFFFFFFFFFFFFFFFFFFFFFFFFFFFFFFFFFFFFF AND PUSH2 0xB3A SWAP1 SWAP4 SWAP3 SWAP2 SWAP1 PUSH4 0xFFFFFFFF AND JUMP JUMPDEST JUMPDEST DUP2 ISZERO PUSH2 0x863 JUMPI PUSH2 0x85E CALLER DUP6 PUSH2 0xBC3 JUMP JUMPDEST PUSH2 0x891 JUMP JUMPDEST PUSH2 0x890 PUSH1 0x1 PUSH1 0x0 SWAP1 SLOAD SWAP1 PUSH2 0x100 EXP SWAP1 DIV PUSH20 0xFFFFFFFFFFFFFFFFFFFFFFFFFFFFFFFFFFFFFFFF AND CALLER DUP7 PUSH2 0xCC3 JUMP JUMPDEST JUMPDEST DUP4 CALLER PUSH20 0xFFFFFFFFFFFFFFFFFFFFFFFFFFFFFFFFFFFFFFFF AND PUSH32 0xC55650CCDA1011E1CDC769B1FBF546EBB8C97800B6072B49E06CD560305B1D67 PUSH1 0x40 MLOAD PUSH1 0x40 MLOAD DUP1 SWAP2 SUB SWAP1 LOG3 POP POP POP POP JUMP JUMPDEST PUSH2 0x8E3 PUSH2 0xA2C JUMP JUMPDEST PUSH20 0xFFFFFFFFFFFFFFFFFFFFFFFFFFFFFFFFFFFFFFFF AND PUSH2 0x901 PUSH2 0x615 JUMP JUMPDEST PUSH20 0xFFFFFFFFFFFFFFFFFFFFFFFFFFFFFFFFFFFFFFFF AND EQ PUSH2 0x957 JUMPI PUSH1 0x40 MLOAD PUSH32 0x8C379A000000000000000000000000000000000000000000000000000000000 DUP2 MSTORE PUSH1 0x4 ADD PUSH2 0x94E SWAP1 PUSH2 0x146F JUMP JUMPDEST PUSH1 0x40 MLOAD DUP1 SWAP2 SUB SWAP1 REVERT JUMPDEST PUSH1 0x0 PUSH20 0xFFFFFFFFFFFFFFFFFFFFFFFFFFFFFFFFFFFFFFFF AND DUP2 PUSH20 0xFFFFFFFFFFFFFFFFFFFFFFFFFFFFFFFFFFFFFFFF AND EQ ISZERO PUSH2 0x9C7 JUMPI PUSH1 0x40 MLOAD PUSH32 0x8C379A000000000000000000000000000000000000000000000000000000000 DUP2 MSTORE PUSH1 0x4 ADD PUSH2 0x9BE SWAP1 PUSH2 0x140F JUMP JUMPDEST PUSH1 0x40 MLOAD DUP1 SWAP2 SUB SWAP1 REVERT JUMPDEST PUSH2 0x9D0 DUP2 PUSH2 0xA34 JUMP JUMPDEST POP JUMP JUMPDEST PUSH1 0x7 PUSH1 0x20 MSTORE DUP1 PUSH1 0x0 MSTORE PUSH1 0x40 PUSH1 0x0 KECCAK256 PUSH1 0x0 SWAP2 POP SLOAD SWAP1 PUSH2 0x100 EXP SWAP1 DIV PUSH20 0xFFFFFFFFFFFFFFFFFFFFFFFFFFFFFFFFFFFFFFFF AND DUP2 JUMP JUMPDEST PUSH1 0x1 PUSH1 0x0 SWAP1 SLOAD SWAP1 PUSH2 0x100 EXP SWAP1 DIV PUSH20 0xFFFFFFFFFFFFFFFFFFFFFFFFFFFFFFFFFFFFFFFF AND DUP2 JUMP JUMPDEST PUSH1 0x0 CALLER SWAP1 POP SWAP1 JUMP JUMPDEST PUSH1 0x0 DUP1 PUSH1 0x0 SWAP1 SLOAD SWAP1 PUSH2 0x100 EXP SWAP1 DIV PUSH20 0xFFFFFFFFFFFFFFFFFFFFFFFFFFFFFFFFFFFFFFFF AND SWAP1 POP DUP2 PUSH1 0x0 DUP1 PUSH2 0x100 EXP DUP2 SLOAD DUP2 PUSH20 0xFFFFFFFFFFFFFFFFFFFFFFFFFFFFFFFFFFFFFFFF MUL NOT AND SWAP1 DUP4 PUSH20 0xFFFFFFFFFFFFFFFFFFFFFFFFFFFFFFFFFFFFFFFF AND MUL OR SWAP1 SSTORE POP DUP2 PUSH20 0xFFFFFFFFFFFFFFFFFFFFFFFFFFFFFFFFFFFFFFFF AND DUP2 PUSH20 0xFFFFFFFFFFFFFFFFFFFFFFFFFFFFFFFFFFFFFFFF AND PUSH32 0x8BE0079C531659141344CD1FD0A4F28419497F9722A3DAAFE3B4186F6B6457E0 PUSH1 0x40 MLOAD PUSH1 0x40 MLOAD DUP1 SWAP2 SUB SWAP1 LOG3 POP POP JUMP JUMPDEST PUSH1 0x0 DUP2 DUP4 PUSH2 0xB06 SWAP2 SWAP1 PUSH2 0x15AD JUMP JUMPDEST SWAP1 POP SWAP3 SWAP2 POP POP JUMP JUMPDEST PUSH1 0x0 DUP2 DUP4 PUSH2 0xB1C SWAP2 SWAP1 PUSH2 0x157C JUMP JUMPDEST SWAP1 POP SWAP3 SWAP2 POP POP JUMP JUMPDEST PUSH1 0x0 DUP2 DUP4 PUSH2 0xB32 SWAP2 SWAP1 PUSH2 0x1607 JUMP JUMPDEST SWAP1 POP SWAP3 SWAP2 POP POP JUMP JUMPDEST PUSH2 0xBBD DUP5 PUSH4 0x23B872DD PUSH1 0xE0 SHL DUP6 DUP6 DUP6 PUSH1 0x40 MLOAD PUSH1 0x24 ADD PUSH2 0xB5B SWAP4 SWAP3 SWAP2 SWAP1 PUSH2 0x1372 JUMP JUMPDEST PUSH1 0x40 MLOAD PUSH1 0x20 DUP2 DUP4 SUB SUB DUP2 MSTORE SWAP1 PUSH1 0x40 MSTORE SWAP1 PUSH28 0xFFFFFFFFFFFFFFFFFFFFFFFFFFFFFFFFFFFFFFFFFFFFFFFFFFFFFFFF NOT AND PUSH1 0x20 DUP3 ADD DUP1 MLOAD PUSH28 0xFFFFFFFFFFFFFFFFFFFFFFFFFFFFFFFFFFFFFFFFFFFFFFFFFFFFFFFF DUP4 DUP2 DUP4 AND OR DUP4 MSTORE POP POP POP POP PUSH2 0xDF9 JUMP JUMPDEST POP POP POP POP JUMP JUMPDEST PUSH1 0x0 DUP3 PUSH20 0xFFFFFFFFFFFFFFFFFFFFFFFFFFFFFFFFFFFFFFFF AND DUP3 PUSH1 0x0 PUSH8 0xFFFFFFFFFFFFFFFF DUP2 GT ISZERO PUSH2 0xBF8 JUMPI PUSH2 0xBF7 PUSH2 0x174A JUMP JUMPDEST JUMPDEST PUSH1 0x40 MLOAD SWAP1 DUP1 DUP3 MSTORE DUP1 PUSH1 0x1F ADD PUSH1 0x1F NOT AND PUSH1 0x20 ADD DUP3 ADD PUSH1 0x40 MSTORE DUP1 ISZERO PUSH2 0xC2A JUMPI DUP2 PUSH1 0x20 ADD PUSH1 0x1 DUP3 MUL DUP1 CALLDATASIZE DUP4 CALLDATACOPY DUP1 DUP3 ADD SWAP2 POP POP SWAP1 POP JUMPDEST POP PUSH1 0x40 MLOAD PUSH2 0xC38 SWAP2 SWAP1 PUSH2 0x1340 JUMP JUMPDEST PUSH1 0x0 PUSH1 0x40 MLOAD DUP1 DUP4 SUB DUP2 DUP6 DUP8 GAS CALL SWAP3 POP POP POP RETURNDATASIZE DUP1 PUSH1 0x0 DUP2 EQ PUSH2 0xC75 JUMPI PUSH1 0x40 MLOAD SWAP2 POP PUSH1 0x1F NOT PUSH1 0x3F RETURNDATASIZE ADD AND DUP3 ADD PUSH1 0x40 MSTORE RETURNDATASIZE DUP3 MSTORE RETURNDATASIZE PUSH1 0x0 PUSH1 0x20 DUP5 ADD RETURNDATACOPY PUSH2 0xC7A JUMP JUMPDEST PUSH1 0x60 SWAP2 POP JUMPDEST POP POP SWAP1 POP DUP1 PUSH2 0xCBE JUMPI PUSH1 0x40 MLOAD PUSH32 0x8C379A000000000000000000000000000000000000000000000000000000000 DUP2 MSTORE PUSH1 0x4 ADD PUSH2 0xCB5 SWAP1 PUSH2 0x142F JUMP JUMPDEST PUSH1 0x40 MLOAD DUP1 SWAP2 SUB SWAP1 REVERT JUMPDEST POP POP POP JUMP JUMPDEST PUSH1 0x0 DUP1 DUP5 PUSH20 0xFFFFFFFFFFFFFFFFFFFFFFFFFFFFFFFFFFFFFFFF AND PUSH4 0xA9059CBB DUP6 DUP6 PUSH1 0x40 MLOAD PUSH1 0x24 ADD PUSH2 0xCF5 SWAP3 SWAP2 SWAP1 PUSH2 0x13A9 JUMP JUMPDEST PUSH1 0x40 MLOAD PUSH1 0x20 DUP2 DUP4 SUB SUB DUP2 MSTORE SWAP1 PUSH1 0x40 MSTORE SWAP1 PUSH1 0xE0 SHL PUSH1 0x20 DUP3 ADD DUP1 MLOAD PUSH28 0xFFFFFFFFFFFFFFFFFFFFFFFFFFFFFFFFFFFFFFFFFFFFFFFFFFFFFFFF DUP4 DUP2 DUP4 AND OR DUP4 MSTORE POP POP POP POP PUSH1 0x40 MLOAD PUSH2 0xD43 SWAP2 SWAP1 PUSH2 0x1340 JUMP JUMPDEST PUSH1 0x0 PUSH1 0x40 MLOAD DUP1 DUP4 SUB DUP2 PUSH1 0x0 DUP7 GAS CALL SWAP2 POP POP RETURNDATASIZE DUP1 PUSH1 0x0 DUP2 EQ PUSH2 0xD80 JUMPI PUSH1 0x40 MLOAD SWAP2 POP PUSH1 0x1F NOT PUSH1 0x3F RETURNDATASIZE ADD AND DUP3 ADD PUSH1 0x40 MSTORE RETURNDATASIZE DUP3 MSTORE RETURNDATASIZE PUSH1 0x0 PUSH1 0x20 DUP5 ADD RETURNDATACOPY PUSH2 0xD85 JUMP JUMPDEST PUSH1 0x60 SWAP2 POP JUMPDEST POP SWAP2 POP SWAP2 POP DUP2 DUP1 ISZERO PUSH2 0xDB3 JUMPI POP PUSH1 0x0 DUP2 MLOAD EQ DUP1 PUSH2 0xDB2 JUMPI POP DUP1 DUP1 PUSH1 0x20 ADD SWAP1 MLOAD DUP2 ADD SWAP1 PUSH2 0xDB1 SWAP2 SWAP1 PUSH2 0x10E7 JUMP JUMPDEST JUMPDEST JUMPDEST PUSH2 0xDF2 JUMPI PUSH1 0x40 MLOAD PUSH32 0x8C379A000000000000000000000000000000000000000000000000000000000 DUP2 MSTORE PUSH1 0x4 ADD PUSH2 0xDE9 SWAP1 PUSH2 0x14CF JUMP JUMPDEST PUSH1 0x40 MLOAD DUP1 SWAP2 SUB SWAP1 REVERT JUMPDEST POP POP POP POP POP JUMP JUMPDEST PUSH1 0x0 PUSH2 0xE5B DUP3 PUSH1 0x40 MLOAD DUP1 PUSH1 0x40 ADD PUSH1 0x40 MSTORE DUP1 PUSH1 0x20 DUP2 MSTORE PUSH1 0x20 ADD PUSH32 0x5361666545524332303A206C6F772D6C6576656C2063616C6C206661696C6564 DUP2 MSTORE POP DUP6 PUSH20 0xFFFFFFFFFFFFFFFFFFFFFFFFFFFFFFFFFFFFFFFF AND PUSH2 0xEC0 SWAP1 SWAP3 SWAP2 SWAP1 PUSH4 0xFFFFFFFF AND JUMP JUMPDEST SWAP1 POP PUSH1 0x0 DUP2 MLOAD GT ISZERO PUSH2 0xEBB JUMPI DUP1 DUP1 PUSH1 0x20 ADD SWAP1 MLOAD DUP2 ADD SWAP1 PUSH2 0xE7B SWAP2 SWAP1 PUSH2 0x10E7 JUMP JUMPDEST PUSH2 0xEBA JUMPI PUSH1 0x40 MLOAD PUSH32 0x8C379A000000000000000000000000000000000000000000000000000000000 DUP2 MSTORE PUSH1 0x4 ADD PUSH2 0xEB1 SWAP1 PUSH2 0x14EF JUMP JUMPDEST PUSH1 0x40 MLOAD DUP1 SWAP2 SUB SWAP1 REVERT JUMPDEST JUMPDEST POP POP POP JUMP JUMPDEST PUSH1 0x60 PUSH2 0xECF DUP5 DUP5 PUSH1 0x0 DUP6 PUSH2 0xED8 JUMP JUMPDEST SWAP1 POP SWAP4 SWAP3 POP POP POP JUMP JUMPDEST PUSH1 0x60 DUP3 SELFBALANCE LT ISZERO PUSH2 0xF1D JUMPI PUSH1 0x40 MLOAD PUSH32 0x8C379A000000000000000000000000000000000000000000000000000000000 DUP2 MSTORE PUSH1 0x4 ADD PUSH2 0xF14 SWAP1 PUSH2 0x144F JUMP JUMPDEST PUSH1 0x40 MLOAD DUP1 SWAP2 SUB SWAP1 REVERT JUMPDEST PUSH2 0xF26 DUP6 PUSH2 0xFEC JUMP JUMPDEST PUSH2 0xF65 JUMPI PUSH1 0x40 MLOAD PUSH32 0x8C379A000000000000000000000000000000000000000000000000000000000 DUP2 MSTORE PUSH1 0x4 ADD PUSH2 0xF5C SWAP1 PUSH2 0x14AF JUMP JUMPDEST PUSH1 0x40 MLOAD DUP1 SWAP2 SUB SWAP1 REVERT JUMPDEST PUSH1 0x0 DUP1 DUP7 PUSH20 0xFFFFFFFFFFFFFFFFFFFFFFFFFFFFFFFFFFFFFFFF AND DUP6 DUP8 PUSH1 0x40 MLOAD PUSH2 0xF8E SWAP2 SWAP1 PUSH2 0x1340 JUMP JUMPDEST PUSH1 0x0 PUSH1 0x40 MLOAD DUP1 DUP4 SUB DUP2 DUP6 DUP8 GAS CALL SWAP3 POP POP POP RETURNDATASIZE DUP1 PUSH1 0x0 DUP2 EQ PUSH2 0xFCB JUMPI PUSH1 0x40 MLOAD SWAP2 POP PUSH1 0x1F NOT PUSH1 0x3F RETURNDATASIZE ADD AND DUP3 ADD PUSH1 0x40 MSTORE RETURNDATASIZE DUP3 MSTORE RETURNDATASIZE PUSH1 0x0 PUSH1 0x20 DUP5 ADD RETURNDATACOPY PUSH2 0xFD0 JUMP JUMPDEST PUSH1 0x60 SWAP2 POP JUMPDEST POP SWAP2 POP SWAP2 POP PUSH2 0xFE0 DUP3 DUP3 DUP7 PUSH2 0xFFF JUMP JUMPDEST SWAP3 POP POP POP SWAP5 SWAP4 POP POP POP POP JUMP JUMPDEST PUSH1 0x0 DUP1 DUP3 EXTCODESIZE SWAP1 POP PUSH1 0x0 DUP2 GT SWAP2 POP POP SWAP2 SWAP1 POP JUMP JUMPDEST PUSH1 0x60 DUP4 ISZERO PUSH2 0x100F JUMPI DUP3 SWAP1 POP PUSH2 0x105F JUMP JUMPDEST PUSH1 0x0 DUP4 MLOAD GT ISZERO PUSH2 0x1022 JUMPI DUP3 MLOAD DUP1 DUP5 PUSH1 0x20 ADD REVERT JUMPDEST DUP2 PUSH1 0x40 MLOAD PUSH32 0x8C379A000000000000000000000000000000000000000000000000000000000 DUP2 MSTORE PUSH1 0x4 ADD PUSH2 0x1056 SWAP2 SWAP1 PUSH2 0x13ED JUMP JUMPDEST PUSH1 0x40 MLOAD DUP1 SWAP2 SUB SWAP1 REVERT JUMPDEST SWAP4 SWAP3 POP POP POP JUMP JUMPDEST PUSH1 0x0 DUP2 CALLDATALOAD SWAP1 POP PUSH2 0x1075 DUP2 PUSH2 0x1A0A JUMP JUMPDEST SWAP3 SWAP2 POP POP JUMP JUMPDEST PUSH1 0x0 DUP2 MLOAD SWAP1 POP PUSH2 0x108A DUP2 PUSH2 0x1A21 JUMP JUMPDEST SWAP3 SWAP2 POP POP JUMP JUMPDEST PUSH1 0x0 DUP2 CALLDATALOAD SWAP1 POP PUSH2 0x109F DUP2 PUSH2 0x1A38 JUMP JUMPDEST SWAP3 SWAP2 POP POP JUMP JUMPDEST PUSH1 0x0 DUP2 MLOAD SWAP1 POP PUSH2 0x10B4 DUP2 PUSH2 0x1A38 JUMP JUMPDEST SWAP3 SWAP2 POP POP JUMP JUMPDEST PUSH1 0x0 PUSH1 0x20 DUP3 DUP5 SUB SLT ISZERO PUSH2 0x10D0 JUMPI PUSH2 0x10CF PUSH2 0x1779 JUMP JUMPDEST JUMPDEST PUSH1 0x0 PUSH2 0x10DE DUP5 DUP3 DUP6 ADD PUSH2 0x1066 JUMP JUMPDEST SWAP2 POP POP SWAP3 SWAP2 POP POP JUMP JUMPDEST PUSH1 0x0 PUSH1 0x20 DUP3 DUP5 SUB SLT ISZERO PUSH2 0x10FD JUMPI PUSH2 0x10FC PUSH2 0x1779 JUMP JUMPDEST JUMPDEST PUSH1 0x0 PUSH2 0x110B DUP5 DUP3 DUP6 ADD PUSH2 0x107B JUMP JUMPDEST SWAP2 POP POP SWAP3 SWAP2 POP POP JUMP JUMPDEST PUSH1 0x0 PUSH1 0x20 DUP3 DUP5 SUB SLT ISZERO PUSH2 0x112A JUMPI PUSH2 0x1129 PUSH2 0x1779 JUMP JUMPDEST JUMPDEST PUSH1 0x0 PUSH2 0x1138 DUP5 DUP3 DUP6 ADD PUSH2 0x1090 JUMP JUMPDEST SWAP2 POP POP SWAP3 SWAP2 POP POP JUMP JUMPDEST PUSH1 0x0 PUSH1 0x20 DUP3 DUP5 SUB SLT ISZERO PUSH2 0x1157 JUMPI PUSH2 0x1156 PUSH2 0x1779 JUMP JUMPDEST JUMPDEST PUSH1 0x0 PUSH2 0x1165 DUP5 DUP3 DUP6 ADD PUSH2 0x10A5 JUMP JUMPDEST SWAP2 POP POP SWAP3 SWAP2 POP POP JUMP JUMPDEST PUSH2 0x1177 DUP2 PUSH2 0x163B JUMP JUMPDEST DUP3 MSTORE POP POP JUMP JUMPDEST PUSH1 0x0 PUSH2 0x1188 DUP3 PUSH2 0x154A JUMP JUMPDEST PUSH2 0x1192 DUP2 DUP6 PUSH2 0x1560 JUMP JUMPDEST SWAP4 POP PUSH2 0x11A2 DUP2 DUP6 PUSH1 0x20 DUP7 ADD PUSH2 0x16B9 JUMP JUMPDEST DUP1 DUP5 ADD SWAP2 POP POP SWAP3 SWAP2 POP POP JUMP JUMPDEST PUSH2 0x11B7 DUP2 PUSH2 0x1683 JUMP JUMPDEST DUP3 MSTORE POP POP JUMP JUMPDEST PUSH1 0x0 PUSH2 0x11C8 DUP3 PUSH2 0x1555 JUMP JUMPDEST PUSH2 0x11D2 DUP2 DUP6 PUSH2 0x156B JUMP JUMPDEST SWAP4 POP PUSH2 0x11E2 DUP2 DUP6 PUSH1 0x20 DUP7 ADD PUSH2 0x16B9 JUMP JUMPDEST PUSH2 0x11EB DUP2 PUSH2 0x177E JUMP JUMPDEST DUP5 ADD SWAP2 POP POP SWAP3 SWAP2 POP POP JUMP JUMPDEST PUSH1 0x0 PUSH2 0x1203 PUSH1 0x26 DUP4 PUSH2 0x156B JUMP JUMPDEST SWAP2 POP PUSH2 0x120E DUP3 PUSH2 0x178F JUMP JUMPDEST PUSH1 0x40 DUP3 ADD SWAP1 POP SWAP2 SWAP1 POP JUMP JUMPDEST PUSH1 0x0 PUSH2 0x1226 PUSH1 0x34 DUP4 PUSH2 0x156B JUMP JUMPDEST SWAP2 POP PUSH2 0x1231 DUP3 PUSH2 0x17DE JUMP JUMPDEST PUSH1 0x40 DUP3 ADD SWAP1 POP SWAP2 SWAP1 POP JUMP JUMPDEST PUSH1 0x0 PUSH2 0x1249 PUSH1 0x26 DUP4 PUSH2 0x156B JUMP JUMPDEST SWAP2 POP PUSH2 0x1254 DUP3 PUSH2 0x182D JUMP JUMPDEST PUSH1 0x40 DUP3 ADD SWAP1 POP SWAP2 SWAP1 POP JUMP JUMPDEST PUSH1 0x0 PUSH2 0x126C PUSH1 0x20 DUP4 PUSH2 0x156B JUMP JUMPDEST SWAP2 POP PUSH2 0x1277 DUP3 PUSH2 0x187C JUMP JUMPDEST PUSH1 0x20 DUP3 ADD SWAP1 POP SWAP2 SWAP1 POP JUMP JUMPDEST PUSH1 0x0 PUSH2 0x128F PUSH1 0x35 DUP4 PUSH2 0x156B JUMP JUMPDEST SWAP2 POP PUSH2 0x129A DUP3 PUSH2 0x18A5 JUMP JUMPDEST PUSH1 0x40 DUP3 ADD SWAP1 POP SWAP2 SWAP1 POP JUMP JUMPDEST PUSH1 0x0 PUSH2 0x12B2 PUSH1 0x1D DUP4 PUSH2 0x156B JUMP JUMPDEST SWAP2 POP PUSH2 0x12BD DUP3 PUSH2 0x18F4 JUMP JUMPDEST PUSH1 0x20 DUP3 ADD SWAP1 POP SWAP2 SWAP1 POP JUMP JUMPDEST PUSH1 0x0 PUSH2 0x12D5 PUSH1 0x2D DUP4 PUSH2 0x156B JUMP JUMPDEST SWAP2 POP PUSH2 0x12E0 DUP3 PUSH2 0x191D JUMP JUMPDEST PUSH1 0x40 DUP3 ADD SWAP1 POP SWAP2 SWAP1 POP JUMP JUMPDEST PUSH1 0x0 PUSH2 0x12F8 PUSH1 0x2A DUP4 PUSH2 0x156B JUMP JUMPDEST SWAP2 POP PUSH2 0x1303 DUP3 PUSH2 0x196C JUMP JUMPDEST PUSH1 0x40 DUP3 ADD SWAP1 POP SWAP2 SWAP1 POP JUMP JUMPDEST PUSH1 0x0 PUSH2 0x131B PUSH1 0x34 DUP4 PUSH2 0x156B JUMP JUMPDEST SWAP2 POP PUSH2 0x1326 DUP3 PUSH2 0x19BB JUMP JUMPDEST PUSH1 0x40 DUP3 ADD SWAP1 POP SWAP2 SWAP1 POP JUMP JUMPDEST PUSH2 0x133A DUP2 PUSH2 0x1679 JUMP JUMPDEST DUP3 MSTORE POP POP JUMP JUMPDEST PUSH1 0x0 PUSH2 0x134C DUP3 DUP5 PUSH2 0x117D JUMP JUMPDEST SWAP2 POP DUP2 SWAP1 POP SWAP3 SWAP2 POP POP JUMP JUMPDEST PUSH1 0x0 PUSH1 0x20 DUP3 ADD SWAP1 POP PUSH2 0x136C PUSH1 0x0 DUP4 ADD DUP5 PUSH2 0x116E JUMP JUMPDEST SWAP3 SWAP2 POP POP JUMP JUMPDEST PUSH1 0x0 PUSH1 0x60 DUP3 ADD SWAP1 POP PUSH2 0x1387 PUSH1 0x0 DUP4 ADD DUP7 PUSH2 0x116E JUMP JUMPDEST PUSH2 0x1394 PUSH1 0x20 DUP4 ADD DUP6 PUSH2 0x116E JUMP JUMPDEST PUSH2 0x13A1 PUSH1 0x40 DUP4 ADD DUP5 PUSH2 0x1331 JUMP JUMPDEST SWAP5 SWAP4 POP POP POP POP JUMP JUMPDEST PUSH1 0x0 PUSH1 0x40 DUP3 ADD SWAP1 POP PUSH2 0x13BE PUSH1 0x0 DUP4 ADD DUP6 PUSH2 0x116E JUMP JUMPDEST PUSH2 0x13CB PUSH1 0x20 DUP4 ADD DUP5 PUSH2 0x1331 JUMP JUMPDEST SWAP4 SWAP3 POP POP POP JUMP JUMPDEST PUSH1 0x0 PUSH1 0x20 DUP3 ADD SWAP1 POP PUSH2 0x13E7 PUSH1 0x0 DUP4 ADD DUP5 PUSH2 0x11AE JUMP JUMPDEST SWAP3 SWAP2 POP POP JUMP JUMPDEST PUSH1 0x0 PUSH1 0x20 DUP3 ADD SWAP1 POP DUP2 DUP2 SUB PUSH1 0x0 DUP4 ADD MSTORE PUSH2 0x1407 DUP2 DUP5 PUSH2 0x11BD JUMP JUMPDEST SWAP1 POP SWAP3 SWAP2 POP POP JUMP JUMPDEST PUSH1 0x0 PUSH1 0x20 DUP3 ADD SWAP1 POP DUP2 DUP2 SUB PUSH1 0x0 DUP4 ADD MSTORE PUSH2 0x1428 DUP2 PUSH2 0x11F6 JUMP JUMPDEST SWAP1 POP SWAP2 SWAP1 POP JUMP JUMPDEST PUSH1 0x0 PUSH1 0x20 DUP3 ADD SWAP1 POP DUP2 DUP2 SUB PUSH1 0x0 DUP4 ADD MSTORE PUSH2 0x1448 DUP2 PUSH2 0x1219 JUMP JUMPDEST SWAP1 POP SWAP2 SWAP1 POP JUMP JUMPDEST PUSH1 0x0 PUSH1 0x20 DUP3 ADD SWAP1 POP DUP2 DUP2 SUB PUSH1 0x0 DUP4 ADD MSTORE PUSH2 0x1468 DUP2 PUSH2 0x123C JUMP JUMPDEST SWAP1 POP SWAP2 SWAP1 POP JUMP JUMPDEST PUSH1 0x0 PUSH1 0x20 DUP3 ADD SWAP1 POP DUP2 DUP2 SUB PUSH1 0x0 DUP4 ADD MSTORE PUSH2 0x1488 DUP2 PUSH2 0x125F JUMP JUMPDEST SWAP1 POP SWAP2 SWAP1 POP JUMP JUMPDEST PUSH1 0x0 PUSH1 0x20 DUP3 ADD SWAP1 POP DUP2 DUP2 SUB PUSH1 0x0 DUP4 ADD MSTORE PUSH2 0x14A8 DUP2 PUSH2 0x1282 JUMP JUMPDEST SWAP1 POP SWAP2 SWAP1 POP JUMP JUMPDEST PUSH1 0x0 PUSH1 0x20 DUP3 ADD SWAP1 POP DUP2 DUP2 SUB PUSH1 0x0 DUP4 ADD MSTORE PUSH2 0x14C8 DUP2 PUSH2 0x12A5 JUMP JUMPDEST SWAP1 POP SWAP2 SWAP1 POP JUMP JUMPDEST PUSH1 0x0 PUSH1 0x20 DUP3 ADD SWAP1 POP DUP2 DUP2 SUB PUSH1 0x0 DUP4 ADD MSTORE PUSH2 0x14E8 DUP2 PUSH2 0x12C8 JUMP JUMPDEST SWAP1 POP SWAP2 SWAP1 POP JUMP JUMPDEST PUSH1 0x0 PUSH1 0x20 DUP3 ADD SWAP1 POP DUP2 DUP2 SUB PUSH1 0x0 DUP4 ADD MSTORE PUSH2 0x1508 DUP2 PUSH2 0x12EB JUMP JUMPDEST SWAP1 POP SWAP2 SWAP1 POP JUMP JUMPDEST PUSH1 0x0 PUSH1 0x20 DUP3 ADD SWAP1 POP DUP2 DUP2 SUB PUSH1 0x0 DUP4 ADD MSTORE PUSH2 0x1528 DUP2 PUSH2 0x130E JUMP JUMPDEST SWAP1 POP SWAP2 SWAP1 POP JUMP JUMPDEST PUSH1 0x0 PUSH1 0x20 DUP3 ADD SWAP1 POP PUSH2 0x1544 PUSH1 0x0 DUP4 ADD DUP5 PUSH2 0x1331 JUMP JUMPDEST SWAP3 SWAP2 POP POP JUMP JUMPDEST PUSH1 0x0 DUP2 MLOAD SWAP1 POP SWAP2 SWAP1 POP JUMP JUMPDEST PUSH1 0x0 DUP2 MLOAD SWAP1 POP SWAP2 SWAP1 POP JUMP JUMPDEST PUSH1 0x0 DUP2 SWAP1 POP SWAP3 SWAP2 POP POP JUMP JUMPDEST PUSH1 0x0 DUP3 DUP3 MSTORE PUSH1 0x20 DUP3 ADD SWAP1 POP SWAP3 SWAP2 POP POP JUMP JUMPDEST PUSH1 0x0 PUSH2 0x1587 DUP3 PUSH2 0x1679 JUMP JUMPDEST SWAP2 POP PUSH2 0x1592 DUP4 PUSH2 0x1679 JUMP JUMPDEST SWAP3 POP DUP3 PUSH2 0x15A2 JUMPI PUSH2 0x15A1 PUSH2 0x171B JUMP JUMPDEST JUMPDEST DUP3 DUP3 DIV SWAP1 POP SWAP3 SWAP2 POP POP JUMP JUMPDEST PUSH1 0x0 PUSH2 0x15B8 DUP3 PUSH2 0x1679 JUMP JUMPDEST SWAP2 POP PUSH2 0x15C3 DUP4 PUSH2 0x1679 JUMP JUMPDEST SWAP3 POP DUP2 PUSH32 0xFFFFFFFFFFFFFFFFFFFFFFFFFFFFFFFFFFFFFFFFFFFFFFFFFFFFFFFFFFFFFFFF DIV DUP4 GT DUP3 ISZERO ISZERO AND ISZERO PUSH2 0x15FC JUMPI PUSH2 0x15FB PUSH2 0x16EC JUMP JUMPDEST JUMPDEST DUP3 DUP3 MUL SWAP1 POP SWAP3 SWAP2 POP POP JUMP JUMPDEST PUSH1 0x0 PUSH2 0x1612 DUP3 PUSH2 0x1679 JUMP JUMPDEST SWAP2 POP PUSH2 0x161D DUP4 PUSH2 0x1679 JUMP JUMPDEST SWAP3 POP DUP3 DUP3 LT ISZERO PUSH2 0x1630 JUMPI PUSH2 0x162F PUSH2 0x16EC JUMP JUMPDEST JUMPDEST DUP3 DUP3 SUB SWAP1 POP SWAP3 SWAP2 POP POP JUMP JUMPDEST PUSH1 0x0 PUSH2 0x1646 DUP3 PUSH2 0x1659 JUMP JUMPDEST SWAP1 POP SWAP2 SWAP1 POP JUMP JUMPDEST PUSH1 0x0 DUP2 ISZERO ISZERO SWAP1 POP SWAP2 SWAP1 POP JUMP JUMPDEST PUSH1 0x0 PUSH20 0xFFFFFFFFFFFFFFFFFFFFFFFFFFFFFFFFFFFFFFFF DUP3 AND SWAP1 POP SWAP2 SWAP1 POP JUMP JUMPDEST PUSH1 0x0 DUP2 SWAP1 POP SWAP2 SWAP1 POP JUMP JUMPDEST PUSH1 0x0 PUSH2 0x168E DUP3 PUSH2 0x1695 JUMP JUMPDEST SWAP1 POP SWAP2 SWAP1 POP JUMP JUMPDEST PUSH1 0x0 PUSH2 0x16A0 DUP3 PUSH2 0x16A7 JUMP JUMPDEST SWAP1 POP SWAP2 SWAP1 POP JUMP JUMPDEST PUSH1 0x0 PUSH2 0x16B2 DUP3 PUSH2 0x1659 JUMP JUMPDEST SWAP1 POP SWAP2 SWAP1 POP JUMP JUMPDEST PUSH1 0x0 JUMPDEST DUP4 DUP2 LT ISZERO PUSH2 0x16D7 JUMPI DUP1 DUP3 ADD MLOAD DUP2 DUP5 ADD MSTORE PUSH1 0x20 DUP2 ADD SWAP1 POP PUSH2 0x16BC JUMP JUMPDEST DUP4 DUP2 GT ISZERO PUSH2 0x16E6 JUMPI PUSH1 0x0 DUP5 DUP5 ADD MSTORE JUMPDEST POP POP POP POP JUMP JUMPDEST PUSH32 0x4E487B7100000000000000000000000000000000000000000000000000000000 PUSH1 0x0 MSTORE PUSH1 0x11 PUSH1 0x4 MSTORE PUSH1 0x24 PUSH1 0x0 REVERT JUMPDEST PUSH32 0x4E487B7100000000000000000000000000000000000000000000000000000000 PUSH1 0x0 MSTORE PUSH1 0x12 PUSH1 0x4 MSTORE PUSH1 0x24 PUSH1 0x0 REVERT JUMPDEST PUSH32 0x4E487B7100000000000000000000000000000000000000000000000000000000 PUSH1 0x0 MSTORE PUSH1 0x41 PUSH1 0x4 MSTORE PUSH1 0x24 PUSH1 0x0 REVERT JUMPDEST PUSH1 0x0 DUP1 REVERT JUMPDEST PUSH1 0x0 PUSH1 0x1F NOT PUSH1 0x1F DUP4 ADD AND SWAP1 POP SWAP2 SWAP1 POP JUMP JUMPDEST PUSH32 0x4F776E61626C653A206E6577206F776E657220697320746865207A65726F2061 PUSH1 0x0 DUP3 ADD MSTORE PUSH32 0x6464726573730000000000000000000000000000000000000000000000000000 PUSH1 0x20 DUP3 ADD MSTORE POP JUMP JUMPDEST PUSH32 0x5472616E7366657248656C7065723A3A736166655472616E736665724554483A PUSH1 0x0 DUP3 ADD MSTORE PUSH32 0x20455448207472616E73666572206661696C6564000000000000000000000000 PUSH1 0x20 DUP3 ADD MSTORE POP JUMP JUMPDEST PUSH32 0x416464726573733A20696E73756666696369656E742062616C616E636520666F PUSH1 0x0 DUP3 ADD MSTORE PUSH32 0x722063616C6C0000000000000000000000000000000000000000000000000000 PUSH1 0x20 DUP3 ADD MSTORE POP JUMP JUMPDEST PUSH32 0x4F776E61626C653A2063616C6C6572206973206E6F7420746865206F776E6572 PUSH1 0x0 DUP3 ADD MSTORE POP JUMP JUMPDEST PUSH32 0x41424F41543A3A6275793A20416D6F756E7420776F756C642065786365656420 PUSH1 0x0 DUP3 ADD MSTORE PUSH32 0x7468652072656D61696E696E672062616C616E63650000000000000000000000 PUSH1 0x20 DUP3 ADD MSTORE POP JUMP JUMPDEST PUSH32 0x416464726573733A2063616C6C20746F206E6F6E2D636F6E7472616374000000 PUSH1 0x0 DUP3 ADD MSTORE POP JUMP JUMPDEST PUSH32 0x5472616E7366657248656C7065723A3A736166655472616E736665723A207472 PUSH1 0x0 DUP3 ADD MSTORE PUSH32 0x616E73666572206661696C656400000000000000000000000000000000000000 PUSH1 0x20 DUP3 ADD MSTORE POP JUMP JUMPDEST PUSH32 0x5361666545524332303A204552433230206F7065726174696F6E20646964206E PUSH1 0x0 DUP3 ADD MSTORE PUSH32 0x6F74207375636365656400000000000000000000000000000000000000000000 PUSH1 0x20 DUP3 ADD MSTORE POP JUMP JUMPDEST PUSH32 0x41424F41543A3A6275793A2053656E742076616C756520646F65736E2774206D PUSH1 0x0 DUP3 ADD MSTORE PUSH32 0x6565742074686520676976656E20616D6F756E74000000000000000000000000 PUSH1 0x20 DUP3 ADD MSTORE POP JUMP JUMPDEST PUSH2 0x1A13 DUP2 PUSH2 0x163B JUMP JUMPDEST DUP2 EQ PUSH2 0x1A1E JUMPI PUSH1 0x0 DUP1 REVERT JUMPDEST POP JUMP JUMPDEST PUSH2 0x1A2A DUP2 PUSH2 0x164D JUMP JUMPDEST DUP2 EQ PUSH2 0x1A35 JUMPI PUSH1 0x0 DUP1 REVERT JUMPDEST POP JUMP JUMPDEST PUSH2 0x1A41 DUP2 PUSH2 0x1679 JUMP JUMPDEST DUP2 EQ PUSH2 0x1A4C JUMPI PUSH1 0x0 DUP1 REVERT JUMPDEST POP JUMP INVALID LOG2 PUSH5 0x6970667358 0x22 SLT KECCAK256 KECCAK256 EXTCODEHASH 0xB5 PUSH4 0xAC14BE47 0xC2 RETURNDATACOPY DUP7 DUP6 DUP1 0xC2 RETURN SWAP1 0xCA MSTORE8 SWAP11 LOG4 0x26 PUSH10 0x6D5F2CE6782251F1262F PUSH5 0x736F6C6343 STOP ADDMOD SMOD STOP CALLER "
				},
				"gasEstimates": {
					"creation": {
						"codeDepositCost": "1357800",
						"executionCost": "infinite",
						"totalCost": "infinite"
					},
					"external": {
						"bought(address)": "2881",
						"buy(uint256)": "infinite",
						"claimed(address)": "2881",
						"claimedTokens(address)": "2859",
						"getRemainingBalance()": "infinite",
						"lastClaimAddress(address)": "infinite",
						"owner()": "2545",
						"paymentToken()": "2645",
						"pricePerToken()": "2540",
						"renounceOwnership()": "30463",
						"rewardToken()": "2688",
						"transferOwnership(address)": "30767",
						"transferTokenM()": "infinite"
					}
				},
				"methodIdentifiers": {
					"bought(address)": "667022fd",
					"buy(uint256)": "d96a094a",
					"claimed(address)": "c884ef83",
					"claimedTokens(address)": "a960c65f",
					"getRemainingBalance()": "2fba2c85",
					"lastClaimAddress(address)": "f3739e05",
					"owner()": "8da5cb5b",
					"paymentToken()": "3013ce29",
					"pricePerToken()": "7b1b1de6",
					"renounceOwnership()": "715018a6",
					"rewardToken()": "f7c618c1",
					"transferOwnership(address)": "f2fde38b",
					"transferTokenM()": "06ee240d"
				}
			},
			"storageLayout": {
				"storage": [
					{
						"astId": 7,
						"contract": "contracts/PreSale.sol:PreSale",
						"label": "_owner",
						"offset": 0,
						"slot": "0",
						"type": "t_address"
					},
					{
						"astId": 1058,
						"contract": "contracts/PreSale.sol:PreSale",
						"label": "rewardToken",
						"offset": 0,
						"slot": "1",
						"type": "t_contract(IERC20)181"
					},
					{
						"astId": 1061,
						"contract": "contracts/PreSale.sol:PreSale",
						"label": "paymentToken",
						"offset": 0,
						"slot": "2",
						"type": "t_contract(IERC20)181"
					},
					{
						"astId": 1063,
						"contract": "contracts/PreSale.sol:PreSale",
						"label": "pricePerToken",
						"offset": 0,
						"slot": "3",
						"type": "t_uint256"
					},
					{
						"astId": 1067,
						"contract": "contracts/PreSale.sol:PreSale",
						"label": "bought",
						"offset": 0,
						"slot": "4",
						"type": "t_mapping(t_address,t_uint256)"
					},
					{
						"astId": 1071,
						"contract": "contracts/PreSale.sol:PreSale",
						"label": "claimed",
						"offset": 0,
						"slot": "5",
						"type": "t_mapping(t_address,t_uint256)"
					},
					{
						"astId": 1075,
						"contract": "contracts/PreSale.sol:PreSale",
						"label": "claimedTokens",
						"offset": 0,
						"slot": "6",
						"type": "t_mapping(t_address,t_uint256)"
					},
					{
						"astId": 1079,
						"contract": "contracts/PreSale.sol:PreSale",
						"label": "lastClaimAddress",
						"offset": 0,
						"slot": "7",
						"type": "t_mapping(t_address,t_address)"
					}
				],
				"types": {
					"t_address": {
						"encoding": "inplace",
						"label": "address",
						"numberOfBytes": "20"
					},
					"t_contract(IERC20)181": {
						"encoding": "inplace",
						"label": "contract IERC20",
						"numberOfBytes": "20"
					},
					"t_mapping(t_address,t_address)": {
						"encoding": "mapping",
						"key": "t_address",
						"label": "mapping(address => address)",
						"numberOfBytes": "32",
						"value": "t_address"
					},
					"t_mapping(t_address,t_uint256)": {
						"encoding": "mapping",
						"key": "t_address",
						"label": "mapping(address => uint256)",
						"numberOfBytes": "32",
						"value": "t_uint256"
					},
					"t_uint256": {
						"encoding": "inplace",
						"label": "uint256",
						"numberOfBytes": "32"
					}
				}
			},
			"userdoc": {
				"kind": "user",
				"methods": {},
				"version": 1
			}
		}
	}
}