{
	"contracts/BalanceHelper.sol": {
		"BalanceHelper": {
			"abi": [
				{
					"inputs": [
						{
							"internalType": "contract IERC20",
							"name": "token",
							"type": "address"
						},
						{
							"internalType": "contract IMasterEntertainer",
							"name": "masterEntertainer",
							"type": "address"
						}
					],
					"stateMutability": "nonpayable",
					"type": "constructor"
				},
				{
					"inputs": [
						{
							"internalType": "address[]",
							"name": "userAddresses",
							"type": "address[]"
						}
					],
					"name": "getTokenBalanceOf",
					"outputs": [
						{
							"internalType": "uint256",
							"name": "",
							"type": "uint256"
						}
					],
					"stateMutability": "view",
					"type": "function"
				}
			],
			"devdoc": {
				"kind": "dev",
				"methods": {},
				"version": 1
			},
			"evm": {
				"assembly": "    /* \"contracts/BalanceHelper.sol\":336:976  contract BalanceHelper {\r... */\n  mstore(0x40, 0x80)\n    /* \"contracts/BalanceHelper.sol\":505:651  constructor(IERC20 token, IMasterEntertainer masterEntertainer) {\r... */\n  callvalue\n  dup1\n  iszero\n  tag_1\n  jumpi\n  0x00\n  dup1\n  revert\ntag_1:\n  pop\n  mload(0x40)\n  sub(codesize, bytecodeSize)\n  dup1\n  bytecodeSize\n  dup4\n  codecopy\n  dup2\n  dup2\n  add\n  0x40\n  mstore\n  dup2\n  add\n  swap1\n  tag_2\n  swap2\n  swap1\n  tag_3\n  jump\t// in\ntag_2:\n    /* \"contracts/BalanceHelper.sol\":589:594  token */\n  dup2\n    /* \"contracts/BalanceHelper.sol\":580:586  _token */\n  0x00\n  dup1\n    /* \"contracts/BalanceHelper.sol\":580:594  _token = token */\n  0x0100\n  exp\n  dup2\n  sload\n  dup2\n  0xffffffffffffffffffffffffffffffffffffffff\n  mul\n  not\n  and\n  swap1\n  dup4\n  0xffffffffffffffffffffffffffffffffffffffff\n  and\n  mul\n  or\n  swap1\n  sstore\n  pop\n    /* \"contracts/BalanceHelper.sol\":626:643  masterEntertainer */\n  dup1\n    /* \"contracts/BalanceHelper.sol\":605:623  _masterEntertainer */\n  0x01\n  0x00\n    /* \"contracts/BalanceHelper.sol\":605:643  _masterEntertainer = masterEntertainer */\n  0x0100\n  exp\n  dup2\n  sload\n  dup2\n  0xffffffffffffffffffffffffffffffffffffffff\n  mul\n  not\n  and\n  swap1\n  dup4\n  0xffffffffffffffffffffffffffffffffffffffff\n  and\n  mul\n  or\n  swap1\n  sstore\n  pop\n    /* \"contracts/BalanceHelper.sol\":505:651  constructor(IERC20 token, IMasterEntertainer masterEntertainer) {\r... */\n  pop\n  pop\n    /* \"contracts/BalanceHelper.sol\":336:976  contract BalanceHelper {\r... */\n  jump(tag_6)\n    /* \"#utility.yul\":7:178   */\ntag_8:\n    /* \"#utility.yul\":78:83   */\n  0x00\n    /* \"#utility.yul\":109:115   */\n  dup2\n    /* \"#utility.yul\":103:116   */\n  mload\n    /* \"#utility.yul\":94:116   */\n  swap1\n  pop\n    /* \"#utility.yul\":125:172   */\n  tag_10\n    /* \"#utility.yul\":166:171   */\n  dup2\n    /* \"#utility.yul\":125:172   */\n  tag_11\n  jump\t// in\ntag_10:\n    /* \"#utility.yul\":7:178   */\n  swap3\n  swap2\n  pop\n  pop\n  jump\t// out\n    /* \"#utility.yul\":184:379   */\ntag_12:\n    /* \"#utility.yul\":267:272   */\n  0x00\n    /* \"#utility.yul\":298:304   */\n  dup2\n    /* \"#utility.yul\":292:305   */\n  mload\n    /* \"#utility.yul\":283:305   */\n  swap1\n  pop\n    /* \"#utility.yul\":314:373   */\n  tag_14\n    /* \"#utility.yul\":367:372   */\n  dup2\n    /* \"#utility.yul\":314:373   */\n  tag_15\n  jump\t// in\ntag_14:\n    /* \"#utility.yul\":184:379   */\n  swap3\n  swap2\n  pop\n  pop\n  jump\t// out\n    /* \"#utility.yul\":385:972   */\ntag_3:\n    /* \"#utility.yul\":504:510   */\n  0x00\n    /* \"#utility.yul\":512:518   */\n  dup1\n    /* \"#utility.yul\":561:563   */\n  0x40\n    /* \"#utility.yul\":549:558   */\n  dup4\n    /* \"#utility.yul\":540:547   */\n  dup6\n    /* \"#utility.yul\":536:559   */\n  sub\n    /* \"#utility.yul\":532:564   */\n  slt\n    /* \"#utility.yul\":529:648   */\n  iszero\n  tag_17\n  jumpi\n    /* \"#utility.yul\":567:646   */\n  tag_18\n  tag_19\n  jump\t// in\ntag_18:\n    /* \"#utility.yul\":529:648   */\ntag_17:\n    /* \"#utility.yul\":687:688   */\n  0x00\n    /* \"#utility.yul\":712:790   */\n  tag_20\n    /* \"#utility.yul\":782:789   */\n  dup6\n    /* \"#utility.yul\":773:779   */\n  dup3\n    /* \"#utility.yul\":762:771   */\n  dup7\n    /* \"#utility.yul\":758:780   */\n  add\n    /* \"#utility.yul\":712:790   */\n  tag_8\n  jump\t// in\ntag_20:\n    /* \"#utility.yul\":702:790   */\n  swap3\n  pop\n    /* \"#utility.yul\":658:800   */\n  pop\n    /* \"#utility.yul\":839:841   */\n  0x20\n    /* \"#utility.yul\":865:955   */\n  tag_21\n    /* \"#utility.yul\":947:954   */\n  dup6\n    /* \"#utility.yul\":938:944   */\n  dup3\n    /* \"#utility.yul\":927:936   */\n  dup7\n    /* \"#utility.yul\":923:945   */\n  add\n    /* \"#utility.yul\":865:955   */\n  tag_12\n  jump\t// in\ntag_21:\n    /* \"#utility.yul\":855:955   */\n  swap2\n  pop\n    /* \"#utility.yul\":810:965   */\n  pop\n    /* \"#utility.yul\":385:972   */\n  swap3\n  pop\n  swap3\n  swap1\n  pop\n  jump\t// out\n    /* \"#utility.yul\":1059:1155   */\ntag_24:\n    /* \"#utility.yul\":1096:1103   */\n  0x00\n    /* \"#utility.yul\":1125:1149   */\n  tag_26\n    /* \"#utility.yul\":1143:1148   */\n  dup3\n    /* \"#utility.yul\":1125:1149   */\n  tag_27\n  jump\t// in\ntag_26:\n    /* \"#utility.yul\":1114:1149   */\n  swap1\n  pop\n    /* \"#utility.yul\":1059:1155   */\n  swap2\n  swap1\n  pop\n  jump\t// out\n    /* \"#utility.yul\":1161:1271   */\ntag_28:\n    /* \"#utility.yul\":1212:1219   */\n  0x00\n    /* \"#utility.yul\":1241:1265   */\n  tag_30\n    /* \"#utility.yul\":1259:1264   */\n  dup3\n    /* \"#utility.yul\":1241:1265   */\n  tag_24\n  jump\t// in\ntag_30:\n    /* \"#utility.yul\":1230:1265   */\n  swap1\n  pop\n    /* \"#utility.yul\":1161:1271   */\n  swap2\n  swap1\n  pop\n  jump\t// out\n    /* \"#utility.yul\":1277:1399   */\ntag_31:\n    /* \"#utility.yul\":1340:1347   */\n  0x00\n    /* \"#utility.yul\":1369:1393   */\n  tag_33\n    /* \"#utility.yul\":1387:1392   */\n  dup3\n    /* \"#utility.yul\":1369:1393   */\n  tag_24\n  jump\t// in\ntag_33:\n    /* \"#utility.yul\":1358:1393   */\n  swap1\n  pop\n    /* \"#utility.yul\":1277:1399   */\n  swap2\n  swap1\n  pop\n  jump\t// out\n    /* \"#utility.yul\":1405:1531   */\ntag_27:\n    /* \"#utility.yul\":1442:1449   */\n  0x00\n    /* \"#utility.yul\":1482:1524   */\n  0xffffffffffffffffffffffffffffffffffffffff\n    /* \"#utility.yul\":1475:1480   */\n  dup3\n    /* \"#utility.yul\":1471:1525   */\n  and\n    /* \"#utility.yul\":1460:1525   */\n  swap1\n  pop\n    /* \"#utility.yul\":1405:1531   */\n  swap2\n  swap1\n  pop\n  jump\t// out\n    /* \"#utility.yul\":1660:1777   */\ntag_19:\n    /* \"#utility.yul\":1769:1770   */\n  0x00\n    /* \"#utility.yul\":1766:1767   */\n  dup1\n    /* \"#utility.yul\":1759:1771   */\n  revert\n    /* \"#utility.yul\":1783:1933   */\ntag_11:\n    /* \"#utility.yul\":1870:1908   */\n  tag_39\n    /* \"#utility.yul\":1902:1907   */\n  dup2\n    /* \"#utility.yul\":1870:1908   */\n  tag_28\n  jump\t// in\ntag_39:\n    /* \"#utility.yul\":1863:1868   */\n  dup2\n    /* \"#utility.yul\":1860:1909   */\n  eq\n    /* \"#utility.yul\":1850:1927   */\n  tag_40\n  jumpi\n    /* \"#utility.yul\":1923:1924   */\n  0x00\n    /* \"#utility.yul\":1920:1921   */\n  dup1\n    /* \"#utility.yul\":1913:1925   */\n  revert\n    /* \"#utility.yul\":1850:1927   */\ntag_40:\n    /* \"#utility.yul\":1783:1933   */\n  pop\n  jump\t// out\n    /* \"#utility.yul\":1939:2113   */\ntag_15:\n    /* \"#utility.yul\":2038:2088   */\n  tag_42\n    /* \"#utility.yul\":2082:2087   */\n  dup2\n    /* \"#utility.yul\":2038:2088   */\n  tag_31\n  jump\t// in\ntag_42:\n    /* \"#utility.yul\":2031:2036   */\n  dup2\n    /* \"#utility.yul\":2028:2089   */\n  eq\n    /* \"#utility.yul\":2018:2107   */\n  tag_43\n  jumpi\n    /* \"#utility.yul\":2103:2104   */\n  0x00\n    /* \"#utility.yul\":2100:2101   */\n  dup1\n    /* \"#utility.yul\":2093:2105   */\n  revert\n    /* \"#utility.yul\":2018:2107   */\ntag_43:\n    /* \"#utility.yul\":1939:2113   */\n  pop\n  jump\t// out\n    /* \"contracts/BalanceHelper.sol\":336:976  contract BalanceHelper {\r... */\ntag_6:\n  dataSize(sub_0)\n  dup1\n  dataOffset(sub_0)\n  0x00\n  codecopy\n  0x00\n  return\nstop\n\nsub_0: assembly {\n        /* \"contracts/BalanceHelper.sol\":336:976  contract BalanceHelper {\r... */\n      mstore(0x40, 0x80)\n      callvalue\n      dup1\n      iszero\n      tag_1\n      jumpi\n      0x00\n      dup1\n      revert\n    tag_1:\n      pop\n      jumpi(tag_2, lt(calldatasize, 0x04))\n      shr(0xe0, calldataload(0x00))\n      dup1\n      0x0a5f75b6\n      eq\n      tag_3\n      jumpi\n    tag_2:\n      0x00\n      dup1\n      revert\n        /* \"contracts/BalanceHelper.sol\":659:965  function getTokenBalanceOf(address[] memory userAddresses) public view returns(uint256) {\r... */\n    tag_3:\n      tag_4\n      0x04\n      dup1\n      calldatasize\n      sub\n      dup2\n      add\n      swap1\n      tag_5\n      swap2\n      swap1\n      tag_6\n      jump\t// in\n    tag_5:\n      tag_7\n      jump\t// in\n    tag_4:\n      mload(0x40)\n      tag_8\n      swap2\n      swap1\n      tag_9\n      jump\t// in\n    tag_8:\n      mload(0x40)\n      dup1\n      swap2\n      sub\n      swap1\n      return\n    tag_7:\n        /* \"contracts/BalanceHelper.sol\":738:745  uint256 */\n      0x00\n        /* \"contracts/BalanceHelper.sol\":758:778  uint256 tokenBalance */\n      dup1\n        /* \"contracts/BalanceHelper.sol\":781:782  0 */\n      0x00\n        /* \"contracts/BalanceHelper.sol\":758:782  uint256 tokenBalance = 0 */\n      swap1\n      pop\n        /* \"contracts/BalanceHelper.sol\":798:804  uint i */\n      0x00\n        /* \"contracts/BalanceHelper.sol\":793:928  for (uint i = 0; i < userAddresses.length; i++) \r... */\n    tag_11:\n        /* \"contracts/BalanceHelper.sol\":814:827  userAddresses */\n      dup4\n        /* \"contracts/BalanceHelper.sol\":814:834  userAddresses.length */\n      mload\n        /* \"contracts/BalanceHelper.sol\":810:811  i */\n      dup2\n        /* \"contracts/BalanceHelper.sol\":810:834  i < userAddresses.length */\n      lt\n        /* \"contracts/BalanceHelper.sol\":793:928  for (uint i = 0; i < userAddresses.length; i++) \r... */\n      iszero\n      tag_12\n      jumpi\n        /* \"contracts/BalanceHelper.sol\":882:888  _token */\n      0x00\n      dup1\n      sload\n      swap1\n      0x0100\n      exp\n      swap1\n      div\n      0xffffffffffffffffffffffffffffffffffffffff\n      and\n        /* \"contracts/BalanceHelper.sol\":882:898  _token.balanceOf */\n      0xffffffffffffffffffffffffffffffffffffffff\n      and\n      0x70a08231\n        /* \"contracts/BalanceHelper.sol\":899:912  userAddresses */\n      dup6\n        /* \"contracts/BalanceHelper.sol\":913:914  i */\n      dup4\n        /* \"contracts/BalanceHelper.sol\":899:915  userAddresses[i] */\n      dup2\n      mload\n      dup2\n      lt\n      tag_14\n      jumpi\n      tag_15\n      tag_16\n      jump\t// in\n    tag_15:\n    tag_14:\n      0x20\n      mul\n      0x20\n      add\n      add\n      mload\n        /* \"contracts/BalanceHelper.sol\":882:916  _token.balanceOf(userAddresses[i]) */\n      mload(0x40)\n      dup3\n      0xffffffff\n      and\n      0xe0\n      shl\n      dup2\n      mstore\n      0x04\n      add\n      tag_17\n      swap2\n      swap1\n      tag_18\n      jump\t// in\n    tag_17:\n      0x20\n      mload(0x40)\n      dup1\n      dup4\n      sub\n      dup2\n      dup7\n      dup1\n      extcodesize\n      iszero\n      dup1\n      iszero\n      tag_19\n      jumpi\n      0x00\n      dup1\n      revert\n    tag_19:\n      pop\n      gas\n      staticcall\n      iszero\n      dup1\n      iszero\n      tag_21\n      jumpi\n      returndatasize\n      0x00\n      dup1\n      returndatacopy\n      revert(0x00, returndatasize)\n    tag_21:\n      pop\n      pop\n      pop\n      pop\n      mload(0x40)\n      returndatasize\n      not(0x1f)\n      0x1f\n      dup3\n      add\n      and\n      dup3\n      add\n      dup1\n      0x40\n      mstore\n      pop\n      dup2\n      add\n      swap1\n      tag_22\n      swap2\n      swap1\n      tag_23\n      jump\t// in\n    tag_22:\n        /* \"contracts/BalanceHelper.sol\":866:916  tokenBalance += _token.balanceOf(userAddresses[i]) */\n      dup3\n      tag_24\n      swap2\n      swap1\n      tag_25\n      jump\t// in\n    tag_24:\n      swap2\n      pop\n        /* \"contracts/BalanceHelper.sol\":836:839  i++ */\n      dup1\n      dup1\n      tag_26\n      swap1\n      tag_27\n      jump\t// in\n    tag_26:\n      swap2\n      pop\n      pop\n        /* \"contracts/BalanceHelper.sol\":793:928  for (uint i = 0; i < userAddresses.length; i++) \r... */\n      jump(tag_11)\n    tag_12:\n      pop\n        /* \"contracts/BalanceHelper.sol\":945:957  tokenBalance */\n      dup1\n        /* \"contracts/BalanceHelper.sol\":938:957  return tokenBalance */\n      swap2\n      pop\n      pop\n        /* \"contracts/BalanceHelper.sol\":659:965  function getTokenBalanceOf(address[] memory userAddresses) public view returns(uint256) {\r... */\n      swap2\n      swap1\n      pop\n      jump\t// out\n        /* \"#utility.yul\":24:746   */\n    tag_29:\n        /* \"#utility.yul\":120:125   */\n      0x00\n        /* \"#utility.yul\":145:226   */\n      tag_31\n        /* \"#utility.yul\":161:225   */\n      tag_32\n        /* \"#utility.yul\":218:224   */\n      dup5\n        /* \"#utility.yul\":161:225   */\n      tag_33\n      jump\t// in\n    tag_32:\n        /* \"#utility.yul\":145:226   */\n      tag_34\n      jump\t// in\n    tag_31:\n        /* \"#utility.yul\":136:226   */\n      swap1\n      pop\n        /* \"#utility.yul\":246:251   */\n      dup1\n        /* \"#utility.yul\":275:281   */\n      dup4\n        /* \"#utility.yul\":268:273   */\n      dup3\n        /* \"#utility.yul\":261:282   */\n      mstore\n        /* \"#utility.yul\":309:313   */\n      0x20\n        /* \"#utility.yul\":302:307   */\n      dup3\n        /* \"#utility.yul\":298:314   */\n      add\n        /* \"#utility.yul\":291:314   */\n      swap1\n      pop\n        /* \"#utility.yul\":335:341   */\n      dup3\n        /* \"#utility.yul\":385:388   */\n      dup6\n        /* \"#utility.yul\":377:381   */\n      0x20\n        /* \"#utility.yul\":369:375   */\n      dup7\n        /* \"#utility.yul\":365:382   */\n      mul\n        /* \"#utility.yul\":360:363   */\n      dup3\n        /* \"#utility.yul\":356:383   */\n      add\n        /* \"#utility.yul\":353:389   */\n      gt\n        /* \"#utility.yul\":350:493   */\n      iszero\n      tag_35\n      jumpi\n        /* \"#utility.yul\":404:483   */\n      tag_36\n      tag_37\n      jump\t// in\n    tag_36:\n        /* \"#utility.yul\":350:493   */\n    tag_35:\n        /* \"#utility.yul\":517:518   */\n      0x00\n        /* \"#utility.yul\":502:740   */\n    tag_38:\n        /* \"#utility.yul\":527:533   */\n      dup6\n        /* \"#utility.yul\":524:525   */\n      dup2\n        /* \"#utility.yul\":521:534   */\n      lt\n        /* \"#utility.yul\":502:740   */\n      iszero\n      tag_40\n      jumpi\n        /* \"#utility.yul\":595:598   */\n      dup2\n        /* \"#utility.yul\":624:661   */\n      tag_41\n        /* \"#utility.yul\":657:660   */\n      dup9\n        /* \"#utility.yul\":645:655   */\n      dup3\n        /* \"#utility.yul\":624:661   */\n      tag_42\n      jump\t// in\n    tag_41:\n        /* \"#utility.yul\":619:622   */\n      dup5\n        /* \"#utility.yul\":612:662   */\n      mstore\n        /* \"#utility.yul\":691:695   */\n      0x20\n        /* \"#utility.yul\":686:689   */\n      dup5\n        /* \"#utility.yul\":682:696   */\n      add\n        /* \"#utility.yul\":675:696   */\n      swap4\n      pop\n        /* \"#utility.yul\":725:729   */\n      0x20\n        /* \"#utility.yul\":720:723   */\n      dup4\n        /* \"#utility.yul\":716:730   */\n      add\n        /* \"#utility.yul\":709:730   */\n      swap3\n      pop\n        /* \"#utility.yul\":562:740   */\n      pop\n        /* \"#utility.yul\":549:550   */\n      0x01\n        /* \"#utility.yul\":546:547   */\n      dup2\n        /* \"#utility.yul\":542:551   */\n      add\n        /* \"#utility.yul\":537:551   */\n      swap1\n      pop\n        /* \"#utility.yul\":502:740   */\n      jump(tag_38)\n    tag_40:\n        /* \"#utility.yul\":506:520   */\n      pop\n        /* \"#utility.yul\":126:746   */\n      pop\n      pop\n        /* \"#utility.yul\":24:746   */\n      swap4\n      swap3\n      pop\n      pop\n      pop\n      jump\t// out\n        /* \"#utility.yul\":752:891   */\n    tag_42:\n        /* \"#utility.yul\":798:803   */\n      0x00\n        /* \"#utility.yul\":836:842   */\n      dup2\n        /* \"#utility.yul\":823:843   */\n      calldataload\n        /* \"#utility.yul\":814:843   */\n      swap1\n      pop\n        /* \"#utility.yul\":852:885   */\n      tag_44\n        /* \"#utility.yul\":879:884   */\n      dup2\n        /* \"#utility.yul\":852:885   */\n      tag_45\n      jump\t// in\n    tag_44:\n        /* \"#utility.yul\":752:891   */\n      swap3\n      swap2\n      pop\n      pop\n      jump\t// out\n        /* \"#utility.yul\":914:1284   */\n    tag_46:\n        /* \"#utility.yul\":985:990   */\n      0x00\n        /* \"#utility.yul\":1034:1037   */\n      dup3\n        /* \"#utility.yul\":1027:1031   */\n      0x1f\n        /* \"#utility.yul\":1019:1025   */\n      dup4\n        /* \"#utility.yul\":1015:1032   */\n      add\n        /* \"#utility.yul\":1011:1038   */\n      slt\n        /* \"#utility.yul\":1001:1123   */\n      tag_48\n      jumpi\n        /* \"#utility.yul\":1042:1121   */\n      tag_49\n      tag_50\n      jump\t// in\n    tag_49:\n        /* \"#utility.yul\":1001:1123   */\n    tag_48:\n        /* \"#utility.yul\":1159:1165   */\n      dup2\n        /* \"#utility.yul\":1146:1166   */\n      calldataload\n        /* \"#utility.yul\":1184:1278   */\n      tag_51\n        /* \"#utility.yul\":1274:1277   */\n      dup5\n        /* \"#utility.yul\":1266:1272   */\n      dup3\n        /* \"#utility.yul\":1259:1263   */\n      0x20\n        /* \"#utility.yul\":1251:1257   */\n      dup7\n        /* \"#utility.yul\":1247:1264   */\n      add\n        /* \"#utility.yul\":1184:1278   */\n      tag_29\n      jump\t// in\n    tag_51:\n        /* \"#utility.yul\":1175:1278   */\n      swap2\n      pop\n        /* \"#utility.yul\":991:1284   */\n      pop\n        /* \"#utility.yul\":914:1284   */\n      swap3\n      swap2\n      pop\n      pop\n      jump\t// out\n        /* \"#utility.yul\":1290:1433   */\n    tag_52:\n        /* \"#utility.yul\":1347:1352   */\n      0x00\n        /* \"#utility.yul\":1378:1384   */\n      dup2\n        /* \"#utility.yul\":1372:1385   */\n      mload\n        /* \"#utility.yul\":1363:1385   */\n      swap1\n      pop\n        /* \"#utility.yul\":1394:1427   */\n      tag_54\n        /* \"#utility.yul\":1421:1426   */\n      dup2\n        /* \"#utility.yul\":1394:1427   */\n      tag_55\n      jump\t// in\n    tag_54:\n        /* \"#utility.yul\":1290:1433   */\n      swap3\n      swap2\n      pop\n      pop\n      jump\t// out\n        /* \"#utility.yul\":1439:1978   */\n    tag_6:\n        /* \"#utility.yul\":1523:1529   */\n      0x00\n        /* \"#utility.yul\":1572:1574   */\n      0x20\n        /* \"#utility.yul\":1560:1569   */\n      dup3\n        /* \"#utility.yul\":1551:1558   */\n      dup5\n        /* \"#utility.yul\":1547:1570   */\n      sub\n        /* \"#utility.yul\":1543:1575   */\n      slt\n        /* \"#utility.yul\":1540:1659   */\n      iszero\n      tag_57\n      jumpi\n        /* \"#utility.yul\":1578:1657   */\n      tag_58\n      tag_59\n      jump\t// in\n    tag_58:\n        /* \"#utility.yul\":1540:1659   */\n    tag_57:\n        /* \"#utility.yul\":1726:1727   */\n      0x00\n        /* \"#utility.yul\":1715:1724   */\n      dup3\n        /* \"#utility.yul\":1711:1728   */\n      add\n        /* \"#utility.yul\":1698:1729   */\n      calldataload\n        /* \"#utility.yul\":1756:1774   */\n      0xffffffffffffffff\n        /* \"#utility.yul\":1748:1754   */\n      dup2\n        /* \"#utility.yul\":1745:1775   */\n      gt\n        /* \"#utility.yul\":1742:1859   */\n      iszero\n      tag_60\n      jumpi\n        /* \"#utility.yul\":1778:1857   */\n      tag_61\n      tag_62\n      jump\t// in\n    tag_61:\n        /* \"#utility.yul\":1742:1859   */\n    tag_60:\n        /* \"#utility.yul\":1883:1961   */\n      tag_63\n        /* \"#utility.yul\":1953:1960   */\n      dup5\n        /* \"#utility.yul\":1944:1950   */\n      dup3\n        /* \"#utility.yul\":1933:1942   */\n      dup6\n        /* \"#utility.yul\":1929:1951   */\n      add\n        /* \"#utility.yul\":1883:1961   */\n      tag_46\n      jump\t// in\n    tag_63:\n        /* \"#utility.yul\":1873:1961   */\n      swap2\n      pop\n        /* \"#utility.yul\":1669:1971   */\n      pop\n        /* \"#utility.yul\":1439:1978   */\n      swap3\n      swap2\n      pop\n      pop\n      jump\t// out\n        /* \"#utility.yul\":1984:2335   */\n    tag_23:\n        /* \"#utility.yul\":2054:2060   */\n      0x00\n        /* \"#utility.yul\":2103:2105   */\n      0x20\n        /* \"#utility.yul\":2091:2100   */\n      dup3\n        /* \"#utility.yul\":2082:2089   */\n      dup5\n        /* \"#utility.yul\":2078:2101   */\n      sub\n        /* \"#utility.yul\":2074:2106   */\n      slt\n        /* \"#utility.yul\":2071:2190   */\n      iszero\n      tag_65\n      jumpi\n        /* \"#utility.yul\":2109:2188   */\n      tag_66\n      tag_59\n      jump\t// in\n    tag_66:\n        /* \"#utility.yul\":2071:2190   */\n    tag_65:\n        /* \"#utility.yul\":2229:2230   */\n      0x00\n        /* \"#utility.yul\":2254:2318   */\n      tag_67\n        /* \"#utility.yul\":2310:2317   */\n      dup5\n        /* \"#utility.yul\":2301:2307   */\n      dup3\n        /* \"#utility.yul\":2290:2299   */\n      dup6\n        /* \"#utility.yul\":2286:2308   */\n      add\n        /* \"#utility.yul\":2254:2318   */\n      tag_52\n      jump\t// in\n    tag_67:\n        /* \"#utility.yul\":2244:2318   */\n      swap2\n      pop\n        /* \"#utility.yul\":2200:2328   */\n      pop\n        /* \"#utility.yul\":1984:2335   */\n      swap3\n      swap2\n      pop\n      pop\n      jump\t// out\n        /* \"#utility.yul\":2341:2459   */\n    tag_68:\n        /* \"#utility.yul\":2428:2452   */\n      tag_70\n        /* \"#utility.yul\":2446:2451   */\n      dup2\n        /* \"#utility.yul\":2428:2452   */\n      tag_71\n      jump\t// in\n    tag_70:\n        /* \"#utility.yul\":2423:2426   */\n      dup3\n        /* \"#utility.yul\":2416:2453   */\n      mstore\n        /* \"#utility.yul\":2341:2459   */\n      pop\n      pop\n      jump\t// out\n        /* \"#utility.yul\":2465:2583   */\n    tag_72:\n        /* \"#utility.yul\":2552:2576   */\n      tag_74\n        /* \"#utility.yul\":2570:2575   */\n      dup2\n        /* \"#utility.yul\":2552:2576   */\n      tag_75\n      jump\t// in\n    tag_74:\n        /* \"#utility.yul\":2547:2550   */\n      dup3\n        /* \"#utility.yul\":2540:2577   */\n      mstore\n        /* \"#utility.yul\":2465:2583   */\n      pop\n      pop\n      jump\t// out\n        /* \"#utility.yul\":2589:2811   */\n    tag_18:\n        /* \"#utility.yul\":2682:2686   */\n      0x00\n        /* \"#utility.yul\":2720:2722   */\n      0x20\n        /* \"#utility.yul\":2709:2718   */\n      dup3\n        /* \"#utility.yul\":2705:2723   */\n      add\n        /* \"#utility.yul\":2697:2723   */\n      swap1\n      pop\n        /* \"#utility.yul\":2733:2804   */\n      tag_77\n        /* \"#utility.yul\":2801:2802   */\n      0x00\n        /* \"#utility.yul\":2790:2799   */\n      dup4\n        /* \"#utility.yul\":2786:2803   */\n      add\n        /* \"#utility.yul\":2777:2783   */\n      dup5\n        /* \"#utility.yul\":2733:2804   */\n      tag_68\n      jump\t// in\n    tag_77:\n        /* \"#utility.yul\":2589:2811   */\n      swap3\n      swap2\n      pop\n      pop\n      jump\t// out\n        /* \"#utility.yul\":2817:3039   */\n    tag_9:\n        /* \"#utility.yul\":2910:2914   */\n      0x00\n        /* \"#utility.yul\":2948:2950   */\n      0x20\n        /* \"#utility.yul\":2937:2946   */\n      dup3\n        /* \"#utility.yul\":2933:2951   */\n      add\n        /* \"#utility.yul\":2925:2951   */\n      swap1\n      pop\n        /* \"#utility.yul\":2961:3032   */\n      tag_79\n        /* \"#utility.yul\":3029:3030   */\n      0x00\n        /* \"#utility.yul\":3018:3027   */\n      dup4\n        /* \"#utility.yul\":3014:3031   */\n      add\n        /* \"#utility.yul\":3005:3011   */\n      dup5\n        /* \"#utility.yul\":2961:3032   */\n      tag_72\n      jump\t// in\n    tag_79:\n        /* \"#utility.yul\":2817:3039   */\n      swap3\n      swap2\n      pop\n      pop\n      jump\t// out\n        /* \"#utility.yul\":3045:3174   */\n    tag_34:\n        /* \"#utility.yul\":3079:3085   */\n      0x00\n        /* \"#utility.yul\":3106:3126   */\n      tag_81\n      tag_82\n      jump\t// in\n    tag_81:\n        /* \"#utility.yul\":3096:3126   */\n      swap1\n      pop\n        /* \"#utility.yul\":3135:3168   */\n      tag_83\n        /* \"#utility.yul\":3163:3167   */\n      dup3\n        /* \"#utility.yul\":3155:3161   */\n      dup3\n        /* \"#utility.yul\":3135:3168   */\n      tag_84\n      jump\t// in\n    tag_83:\n        /* \"#utility.yul\":3045:3174   */\n      swap2\n      swap1\n      pop\n      jump\t// out\n        /* \"#utility.yul\":3180:3255   */\n    tag_82:\n        /* \"#utility.yul\":3213:3219   */\n      0x00\n        /* \"#utility.yul\":3246:3248   */\n      0x40\n        /* \"#utility.yul\":3240:3249   */\n      mload\n        /* \"#utility.yul\":3230:3249   */\n      swap1\n      pop\n        /* \"#utility.yul\":3180:3255   */\n      swap1\n      jump\t// out\n        /* \"#utility.yul\":3261:3572   */\n    tag_33:\n        /* \"#utility.yul\":3338:3342   */\n      0x00\n        /* \"#utility.yul\":3428:3446   */\n      0xffffffffffffffff\n        /* \"#utility.yul\":3420:3426   */\n      dup3\n        /* \"#utility.yul\":3417:3447   */\n      gt\n        /* \"#utility.yul\":3414:3470   */\n      iszero\n      tag_87\n      jumpi\n        /* \"#utility.yul\":3450:3468   */\n      tag_88\n      tag_89\n      jump\t// in\n    tag_88:\n        /* \"#utility.yul\":3414:3470   */\n    tag_87:\n        /* \"#utility.yul\":3500:3504   */\n      0x20\n        /* \"#utility.yul\":3492:3498   */\n      dup3\n        /* \"#utility.yul\":3488:3505   */\n      mul\n        /* \"#utility.yul\":3480:3505   */\n      swap1\n      pop\n        /* \"#utility.yul\":3560:3564   */\n      0x20\n        /* \"#utility.yul\":3554:3558   */\n      dup2\n        /* \"#utility.yul\":3550:3565   */\n      add\n        /* \"#utility.yul\":3542:3565   */\n      swap1\n      pop\n        /* \"#utility.yul\":3261:3572   */\n      swap2\n      swap1\n      pop\n      jump\t// out\n        /* \"#utility.yul\":3578:3883   */\n    tag_25:\n        /* \"#utility.yul\":3618:3621   */\n      0x00\n        /* \"#utility.yul\":3637:3657   */\n      tag_91\n        /* \"#utility.yul\":3655:3656   */\n      dup3\n        /* \"#utility.yul\":3637:3657   */\n      tag_75\n      jump\t// in\n    tag_91:\n        /* \"#utility.yul\":3632:3657   */\n      swap2\n      pop\n        /* \"#utility.yul\":3671:3691   */\n      tag_92\n        /* \"#utility.yul\":3689:3690   */\n      dup4\n        /* \"#utility.yul\":3671:3691   */\n      tag_75\n      jump\t// in\n    tag_92:\n        /* \"#utility.yul\":3666:3691   */\n      swap3\n      pop\n        /* \"#utility.yul\":3825:3826   */\n      dup3\n        /* \"#utility.yul\":3757:3823   */\n      0xffffffffffffffffffffffffffffffffffffffffffffffffffffffffffffffff\n        /* \"#utility.yul\":3753:3827   */\n      sub\n        /* \"#utility.yul\":3750:3751   */\n      dup3\n        /* \"#utility.yul\":3747:3828   */\n      gt\n        /* \"#utility.yul\":3744:3851   */\n      iszero\n      tag_93\n      jumpi\n        /* \"#utility.yul\":3831:3849   */\n      tag_94\n      tag_95\n      jump\t// in\n    tag_94:\n        /* \"#utility.yul\":3744:3851   */\n    tag_93:\n        /* \"#utility.yul\":3875:3876   */\n      dup3\n        /* \"#utility.yul\":3872:3873   */\n      dup3\n        /* \"#utility.yul\":3868:3877   */\n      add\n        /* \"#utility.yul\":3861:3877   */\n      swap1\n      pop\n        /* \"#utility.yul\":3578:3883   */\n      swap3\n      swap2\n      pop\n      pop\n      jump\t// out\n        /* \"#utility.yul\":3889:3985   */\n    tag_71:\n        /* \"#utility.yul\":3926:3933   */\n      0x00\n        /* \"#utility.yul\":3955:3979   */\n      tag_97\n        /* \"#utility.yul\":3973:3978   */\n      dup3\n        /* \"#utility.yul\":3955:3979   */\n      tag_98\n      jump\t// in\n    tag_97:\n        /* \"#utility.yul\":3944:3979   */\n      swap1\n      pop\n        /* \"#utility.yul\":3889:3985   */\n      swap2\n      swap1\n      pop\n      jump\t// out\n        /* \"#utility.yul\":3991:4117   */\n    tag_98:\n        /* \"#utility.yul\":4028:4035   */\n      0x00\n        /* \"#utility.yul\":4068:4110   */\n      0xffffffffffffffffffffffffffffffffffffffff\n        /* \"#utility.yul\":4061:4066   */\n      dup3\n        /* \"#utility.yul\":4057:4111   */\n      and\n        /* \"#utility.yul\":4046:4111   */\n      swap1\n      pop\n        /* \"#utility.yul\":3991:4117   */\n      swap2\n      swap1\n      pop\n      jump\t// out\n        /* \"#utility.yul\":4123:4200   */\n    tag_75:\n        /* \"#utility.yul\":4160:4167   */\n      0x00\n        /* \"#utility.yul\":4189:4194   */\n      dup2\n        /* \"#utility.yul\":4178:4194   */\n      swap1\n      pop\n        /* \"#utility.yul\":4123:4200   */\n      swap2\n      swap1\n      pop\n      jump\t// out\n        /* \"#utility.yul\":4206:4487   */\n    tag_84:\n        /* \"#utility.yul\":4289:4316   */\n      tag_102\n        /* \"#utility.yul\":4311:4315   */\n      dup3\n        /* \"#utility.yul\":4289:4316   */\n      tag_103\n      jump\t// in\n    tag_102:\n        /* \"#utility.yul\":4281:4287   */\n      dup2\n        /* \"#utility.yul\":4277:4317   */\n      add\n        /* \"#utility.yul\":4419:4425   */\n      dup2\n        /* \"#utility.yul\":4407:4417   */\n      dup2\n        /* \"#utility.yul\":4404:4426   */\n      lt\n        /* \"#utility.yul\":4383:4401   */\n      0xffffffffffffffff\n        /* \"#utility.yul\":4371:4381   */\n      dup3\n        /* \"#utility.yul\":4368:4402   */\n      gt\n        /* \"#utility.yul\":4365:4427   */\n      or\n        /* \"#utility.yul\":4362:4450   */\n      iszero\n      tag_104\n      jumpi\n        /* \"#utility.yul\":4430:4448   */\n      tag_105\n      tag_89\n      jump\t// in\n    tag_105:\n        /* \"#utility.yul\":4362:4450   */\n    tag_104:\n        /* \"#utility.yul\":4470:4480   */\n      dup1\n        /* \"#utility.yul\":4466:4468   */\n      0x40\n        /* \"#utility.yul\":4459:4481   */\n      mstore\n        /* \"#utility.yul\":4249:4487   */\n      pop\n        /* \"#utility.yul\":4206:4487   */\n      pop\n      pop\n      jump\t// out\n        /* \"#utility.yul\":4493:4726   */\n    tag_27:\n        /* \"#utility.yul\":4532:4535   */\n      0x00\n        /* \"#utility.yul\":4555:4579   */\n      tag_107\n        /* \"#utility.yul\":4573:4578   */\n      dup3\n        /* \"#utility.yul\":4555:4579   */\n      tag_75\n      jump\t// in\n    tag_107:\n        /* \"#utility.yul\":4546:4579   */\n      swap2\n      pop\n        /* \"#utility.yul\":4601:4667   */\n      0xffffffffffffffffffffffffffffffffffffffffffffffffffffffffffffffff\n        /* \"#utility.yul\":4594:4599   */\n      dup3\n        /* \"#utility.yul\":4591:4668   */\n      eq\n        /* \"#utility.yul\":4588:4691   */\n      iszero\n      tag_108\n      jumpi\n        /* \"#utility.yul\":4671:4689   */\n      tag_109\n      tag_95\n      jump\t// in\n    tag_109:\n        /* \"#utility.yul\":4588:4691   */\n    tag_108:\n        /* \"#utility.yul\":4718:4719   */\n      0x01\n        /* \"#utility.yul\":4711:4716   */\n      dup3\n        /* \"#utility.yul\":4707:4720   */\n      add\n        /* \"#utility.yul\":4700:4720   */\n      swap1\n      pop\n        /* \"#utility.yul\":4493:4726   */\n      swap2\n      swap1\n      pop\n      jump\t// out\n        /* \"#utility.yul\":4732:4912   */\n    tag_95:\n        /* \"#utility.yul\":4780:4857   */\n      0x4e487b7100000000000000000000000000000000000000000000000000000000\n        /* \"#utility.yul\":4777:4778   */\n      0x00\n        /* \"#utility.yul\":4770:4858   */\n      mstore\n        /* \"#utility.yul\":4877:4881   */\n      0x11\n        /* \"#utility.yul\":4874:4875   */\n      0x04\n        /* \"#utility.yul\":4867:4882   */\n      mstore\n        /* \"#utility.yul\":4901:4905   */\n      0x24\n        /* \"#utility.yul\":4898:4899   */\n      0x00\n        /* \"#utility.yul\":4891:4906   */\n      revert\n        /* \"#utility.yul\":4918:5098   */\n    tag_16:\n        /* \"#utility.yul\":4966:5043   */\n      0x4e487b7100000000000000000000000000000000000000000000000000000000\n        /* \"#utility.yul\":4963:4964   */\n      0x00\n        /* \"#utility.yul\":4956:5044   */\n      mstore\n        /* \"#utility.yul\":5063:5067   */\n      0x32\n        /* \"#utility.yul\":5060:5061   */\n      0x04\n        /* \"#utility.yul\":5053:5068   */\n      mstore\n        /* \"#utility.yul\":5087:5091   */\n      0x24\n        /* \"#utility.yul\":5084:5085   */\n      0x00\n        /* \"#utility.yul\":5077:5092   */\n      revert\n        /* \"#utility.yul\":5104:5284   */\n    tag_89:\n        /* \"#utility.yul\":5152:5229   */\n      0x4e487b7100000000000000000000000000000000000000000000000000000000\n        /* \"#utility.yul\":5149:5150   */\n      0x00\n        /* \"#utility.yul\":5142:5230   */\n      mstore\n        /* \"#utility.yul\":5249:5253   */\n      0x41\n        /* \"#utility.yul\":5246:5247   */\n      0x04\n        /* \"#utility.yul\":5239:5254   */\n      mstore\n        /* \"#utility.yul\":5273:5277   */\n      0x24\n        /* \"#utility.yul\":5270:5271   */\n      0x00\n        /* \"#utility.yul\":5263:5278   */\n      revert\n        /* \"#utility.yul\":5290:5407   */\n    tag_50:\n        /* \"#utility.yul\":5399:5400   */\n      0x00\n        /* \"#utility.yul\":5396:5397   */\n      dup1\n        /* \"#utility.yul\":5389:5401   */\n      revert\n        /* \"#utility.yul\":5413:5530   */\n    tag_37:\n        /* \"#utility.yul\":5522:5523   */\n      0x00\n        /* \"#utility.yul\":5519:5520   */\n      dup1\n        /* \"#utility.yul\":5512:5524   */\n      revert\n        /* \"#utility.yul\":5536:5653   */\n    tag_62:\n        /* \"#utility.yul\":5645:5646   */\n      0x00\n        /* \"#utility.yul\":5642:5643   */\n      dup1\n        /* \"#utility.yul\":5635:5647   */\n      revert\n        /* \"#utility.yul\":5659:5776   */\n    tag_59:\n        /* \"#utility.yul\":5768:5769   */\n      0x00\n        /* \"#utility.yul\":5765:5766   */\n      dup1\n        /* \"#utility.yul\":5758:5770   */\n      revert\n        /* \"#utility.yul\":5782:5884   */\n    tag_103:\n        /* \"#utility.yul\":5823:5829   */\n      0x00\n        /* \"#utility.yul\":5874:5876   */\n      0x1f\n        /* \"#utility.yul\":5870:5877   */\n      not\n        /* \"#utility.yul\":5865:5867   */\n      0x1f\n        /* \"#utility.yul\":5858:5863   */\n      dup4\n        /* \"#utility.yul\":5854:5868   */\n      add\n        /* \"#utility.yul\":5850:5878   */\n      and\n        /* \"#utility.yul\":5840:5878   */\n      swap1\n      pop\n        /* \"#utility.yul\":5782:5884   */\n      swap2\n      swap1\n      pop\n      jump\t// out\n        /* \"#utility.yul\":5890:6012   */\n    tag_45:\n        /* \"#utility.yul\":5963:5987   */\n      tag_119\n        /* \"#utility.yul\":5981:5986   */\n      dup2\n        /* \"#utility.yul\":5963:5987   */\n      tag_71\n      jump\t// in\n    tag_119:\n        /* \"#utility.yul\":5956:5961   */\n      dup2\n        /* \"#utility.yul\":5953:5988   */\n      eq\n        /* \"#utility.yul\":5943:6006   */\n      tag_120\n      jumpi\n        /* \"#utility.yul\":6002:6003   */\n      0x00\n        /* \"#utility.yul\":5999:6000   */\n      dup1\n        /* \"#utility.yul\":5992:6004   */\n      revert\n        /* \"#utility.yul\":5943:6006   */\n    tag_120:\n        /* \"#utility.yul\":5890:6012   */\n      pop\n      jump\t// out\n        /* \"#utility.yul\":6018:6140   */\n    tag_55:\n        /* \"#utility.yul\":6091:6115   */\n      tag_122\n        /* \"#utility.yul\":6109:6114   */\n      dup2\n        /* \"#utility.yul\":6091:6115   */\n      tag_75\n      jump\t// in\n    tag_122:\n        /* \"#utility.yul\":6084:6089   */\n      dup2\n        /* \"#utility.yul\":6081:6116   */\n      eq\n        /* \"#utility.yul\":6071:6134   */\n      tag_123\n      jumpi\n        /* \"#utility.yul\":6130:6131   */\n      0x00\n        /* \"#utility.yul\":6127:6128   */\n      dup1\n        /* \"#utility.yul\":6120:6132   */\n      revert\n        /* \"#utility.yul\":6071:6134   */\n    tag_123:\n        /* \"#utility.yul\":6018:6140   */\n      pop\n      jump\t// out\n\n    auxdata: 0xa2646970667358221220a6bfed27a3009d1c992cb8e64f2f1c37ed328df3674cfa64bbf1b27270ffb02664736f6c63430008070033\n}\n",
				"bytecode": {
					"linkReferences": {},
					"object": "608060405234801561001057600080fd5b50604051610721380380610721833981810160405281019061003291906100e4565b816000806101000a81548173ffffffffffffffffffffffffffffffffffffffff021916908373ffffffffffffffffffffffffffffffffffffffff16021790555080600160006101000a81548173ffffffffffffffffffffffffffffffffffffffff021916908373ffffffffffffffffffffffffffffffffffffffff16021790555050506101ad565b6000815190506100c98161017f565b92915050565b6000815190506100de81610196565b92915050565b600080604083850312156100fb576100fa61017a565b5b6000610109858286016100ba565b925050602061011a858286016100cf565b9150509250929050565b600061012f8261015a565b9050919050565b600061014182610124565b9050919050565b600061015382610124565b9050919050565b600073ffffffffffffffffffffffffffffffffffffffff82169050919050565b600080fd5b61018881610136565b811461019357600080fd5b50565b61019f81610148565b81146101aa57600080fd5b50565b610565806101bc6000396000f3fe608060405234801561001057600080fd5b506004361061002b5760003560e01c80630a5f75b614610030575b600080fd5b61004a60048036038101906100459190610228565b610060565b60405161005791906102d7565b60405180910390f35b6000806000905060005b83518110156101565760008054906101000a900473ffffffffffffffffffffffffffffffffffffffff1673ffffffffffffffffffffffffffffffffffffffff166370a082318583815181106100c2576100c161047e565b5b60200260200101516040518263ffffffff1660e01b81526004016100e691906102bc565b60206040518083038186803b1580156100fe57600080fd5b505afa158015610112573d6000803e3d6000fd5b505050506040513d601f19601f820116820180604052508101906101369190610271565b826101419190610343565b9150808061014e90610406565b91505061006a565b5080915050919050565b600061017361016e84610317565b6102f2565b90508083825260208201905082856020860282011115610196576101956104e1565b5b60005b858110156101c657816101ac88826101d0565b845260208401935060208301925050600181019050610199565b5050509392505050565b6000813590506101df81610501565b92915050565b600082601f8301126101fa576101f96104dc565b5b813561020a848260208601610160565b91505092915050565b60008151905061022281610518565b92915050565b60006020828403121561023e5761023d6104eb565b5b600082013567ffffffffffffffff81111561025c5761025b6104e6565b5b610268848285016101e5565b91505092915050565b600060208284031215610287576102866104eb565b5b600061029584828501610213565b91505092915050565b6102a781610399565b82525050565b6102b6816103cb565b82525050565b60006020820190506102d1600083018461029e565b92915050565b60006020820190506102ec60008301846102ad565b92915050565b60006102fc61030d565b905061030882826103d5565b919050565b6000604051905090565b600067ffffffffffffffff821115610332576103316104ad565b5b602082029050602081019050919050565b600061034e826103cb565b9150610359836103cb565b9250827fffffffffffffffffffffffffffffffffffffffffffffffffffffffffffffffff0382111561038e5761038d61044f565b5b828201905092915050565b60006103a4826103ab565b9050919050565b600073ffffffffffffffffffffffffffffffffffffffff82169050919050565b6000819050919050565b6103de826104f0565b810181811067ffffffffffffffff821117156103fd576103fc6104ad565b5b80604052505050565b6000610411826103cb565b91507fffffffffffffffffffffffffffffffffffffffffffffffffffffffffffffffff8214156104445761044361044f565b5b600182019050919050565b7f4e487b7100000000000000000000000000000000000000000000000000000000600052601160045260246000fd5b7f4e487b7100000000000000000000000000000000000000000000000000000000600052603260045260246000fd5b7f4e487b7100000000000000000000000000000000000000000000000000000000600052604160045260246000fd5b600080fd5b600080fd5b600080fd5b600080fd5b6000601f19601f8301169050919050565b61050a81610399565b811461051557600080fd5b50565b610521816103cb565b811461052c57600080fd5b5056fea2646970667358221220a6bfed27a3009d1c992cb8e64f2f1c37ed328df3674cfa64bbf1b27270ffb02664736f6c63430008070033",
					"opcodes": "PUSH1 0x80 PUSH1 0x40 MSTORE CALLVALUE DUP1 ISZERO PUSH2 0x10 JUMPI PUSH1 0x0 DUP1 REVERT JUMPDEST POP PUSH1 0x40 MLOAD PUSH2 0x721 CODESIZE SUB DUP1 PUSH2 0x721 DUP4 CODECOPY DUP2 DUP2 ADD PUSH1 0x40 MSTORE DUP2 ADD SWAP1 PUSH2 0x32 SWAP2 SWAP1 PUSH2 0xE4 JUMP JUMPDEST DUP2 PUSH1 0x0 DUP1 PUSH2 0x100 EXP DUP2 SLOAD DUP2 PUSH20 0xFFFFFFFFFFFFFFFFFFFFFFFFFFFFFFFFFFFFFFFF MUL NOT AND SWAP1 DUP4 PUSH20 0xFFFFFFFFFFFFFFFFFFFFFFFFFFFFFFFFFFFFFFFF AND MUL OR SWAP1 SSTORE POP DUP1 PUSH1 0x1 PUSH1 0x0 PUSH2 0x100 EXP DUP2 SLOAD DUP2 PUSH20 0xFFFFFFFFFFFFFFFFFFFFFFFFFFFFFFFFFFFFFFFF MUL NOT AND SWAP1 DUP4 PUSH20 0xFFFFFFFFFFFFFFFFFFFFFFFFFFFFFFFFFFFFFFFF AND MUL OR SWAP1 SSTORE POP POP POP PUSH2 0x1AD JUMP JUMPDEST PUSH1 0x0 DUP2 MLOAD SWAP1 POP PUSH2 0xC9 DUP2 PUSH2 0x17F JUMP JUMPDEST SWAP3 SWAP2 POP POP JUMP JUMPDEST PUSH1 0x0 DUP2 MLOAD SWAP1 POP PUSH2 0xDE DUP2 PUSH2 0x196 JUMP JUMPDEST SWAP3 SWAP2 POP POP JUMP JUMPDEST PUSH1 0x0 DUP1 PUSH1 0x40 DUP4 DUP6 SUB SLT ISZERO PUSH2 0xFB JUMPI PUSH2 0xFA PUSH2 0x17A JUMP JUMPDEST JUMPDEST PUSH1 0x0 PUSH2 0x109 DUP6 DUP3 DUP7 ADD PUSH2 0xBA JUMP JUMPDEST SWAP3 POP POP PUSH1 0x20 PUSH2 0x11A DUP6 DUP3 DUP7 ADD PUSH2 0xCF JUMP JUMPDEST SWAP2 POP POP SWAP3 POP SWAP3 SWAP1 POP JUMP JUMPDEST PUSH1 0x0 PUSH2 0x12F DUP3 PUSH2 0x15A JUMP JUMPDEST SWAP1 POP SWAP2 SWAP1 POP JUMP JUMPDEST PUSH1 0x0 PUSH2 0x141 DUP3 PUSH2 0x124 JUMP JUMPDEST SWAP1 POP SWAP2 SWAP1 POP JUMP JUMPDEST PUSH1 0x0 PUSH2 0x153 DUP3 PUSH2 0x124 JUMP JUMPDEST SWAP1 POP SWAP2 SWAP1 POP JUMP JUMPDEST PUSH1 0x0 PUSH20 0xFFFFFFFFFFFFFFFFFFFFFFFFFFFFFFFFFFFFFFFF DUP3 AND SWAP1 POP SWAP2 SWAP1 POP JUMP JUMPDEST PUSH1 0x0 DUP1 REVERT JUMPDEST PUSH2 0x188 DUP2 PUSH2 0x136 JUMP JUMPDEST DUP2 EQ PUSH2 0x193 JUMPI PUSH1 0x0 DUP1 REVERT JUMPDEST POP JUMP JUMPDEST PUSH2 0x19F DUP2 PUSH2 0x148 JUMP JUMPDEST DUP2 EQ PUSH2 0x1AA JUMPI PUSH1 0x0 DUP1 REVERT JUMPDEST POP JUMP JUMPDEST PUSH2 0x565 DUP1 PUSH2 0x1BC PUSH1 0x0 CODECOPY PUSH1 0x0 RETURN INVALID PUSH1 0x80 PUSH1 0x40 MSTORE CALLVALUE DUP1 ISZERO PUSH2 0x10 JUMPI PUSH1 0x0 DUP1 REVERT JUMPDEST POP PUSH1 0x4 CALLDATASIZE LT PUSH2 0x2B JUMPI PUSH1 0x0 CALLDATALOAD PUSH1 0xE0 SHR DUP1 PUSH4 0xA5F75B6 EQ PUSH2 0x30 JUMPI JUMPDEST PUSH1 0x0 DUP1 REVERT JUMPDEST PUSH2 0x4A PUSH1 0x4 DUP1 CALLDATASIZE SUB DUP2 ADD SWAP1 PUSH2 0x45 SWAP2 SWAP1 PUSH2 0x228 JUMP JUMPDEST PUSH2 0x60 JUMP JUMPDEST PUSH1 0x40 MLOAD PUSH2 0x57 SWAP2 SWAP1 PUSH2 0x2D7 JUMP JUMPDEST PUSH1 0x40 MLOAD DUP1 SWAP2 SUB SWAP1 RETURN JUMPDEST PUSH1 0x0 DUP1 PUSH1 0x0 SWAP1 POP PUSH1 0x0 JUMPDEST DUP4 MLOAD DUP2 LT ISZERO PUSH2 0x156 JUMPI PUSH1 0x0 DUP1 SLOAD SWAP1 PUSH2 0x100 EXP SWAP1 DIV PUSH20 0xFFFFFFFFFFFFFFFFFFFFFFFFFFFFFFFFFFFFFFFF AND PUSH20 0xFFFFFFFFFFFFFFFFFFFFFFFFFFFFFFFFFFFFFFFF AND PUSH4 0x70A08231 DUP6 DUP4 DUP2 MLOAD DUP2 LT PUSH2 0xC2 JUMPI PUSH2 0xC1 PUSH2 0x47E JUMP JUMPDEST JUMPDEST PUSH1 0x20 MUL PUSH1 0x20 ADD ADD MLOAD PUSH1 0x40 MLOAD DUP3 PUSH4 0xFFFFFFFF AND PUSH1 0xE0 SHL DUP2 MSTORE PUSH1 0x4 ADD PUSH2 0xE6 SWAP2 SWAP1 PUSH2 0x2BC JUMP JUMPDEST PUSH1 0x20 PUSH1 0x40 MLOAD DUP1 DUP4 SUB DUP2 DUP7 DUP1 EXTCODESIZE ISZERO DUP1 ISZERO PUSH2 0xFE JUMPI PUSH1 0x0 DUP1 REVERT JUMPDEST POP GAS STATICCALL ISZERO DUP1 ISZERO PUSH2 0x112 JUMPI RETURNDATASIZE PUSH1 0x0 DUP1 RETURNDATACOPY RETURNDATASIZE PUSH1 0x0 REVERT JUMPDEST POP POP POP POP PUSH1 0x40 MLOAD RETURNDATASIZE PUSH1 0x1F NOT PUSH1 0x1F DUP3 ADD AND DUP3 ADD DUP1 PUSH1 0x40 MSTORE POP DUP2 ADD SWAP1 PUSH2 0x136 SWAP2 SWAP1 PUSH2 0x271 JUMP JUMPDEST DUP3 PUSH2 0x141 SWAP2 SWAP1 PUSH2 0x343 JUMP JUMPDEST SWAP2 POP DUP1 DUP1 PUSH2 0x14E SWAP1 PUSH2 0x406 JUMP JUMPDEST SWAP2 POP POP PUSH2 0x6A JUMP JUMPDEST POP DUP1 SWAP2 POP POP SWAP2 SWAP1 POP JUMP JUMPDEST PUSH1 0x0 PUSH2 0x173 PUSH2 0x16E DUP5 PUSH2 0x317 JUMP JUMPDEST PUSH2 0x2F2 JUMP JUMPDEST SWAP1 POP DUP1 DUP4 DUP3 MSTORE PUSH1 0x20 DUP3 ADD SWAP1 POP DUP3 DUP6 PUSH1 0x20 DUP7 MUL DUP3 ADD GT ISZERO PUSH2 0x196 JUMPI PUSH2 0x195 PUSH2 0x4E1 JUMP JUMPDEST JUMPDEST PUSH1 0x0 JUMPDEST DUP6 DUP2 LT ISZERO PUSH2 0x1C6 JUMPI DUP2 PUSH2 0x1AC DUP9 DUP3 PUSH2 0x1D0 JUMP JUMPDEST DUP5 MSTORE PUSH1 0x20 DUP5 ADD SWAP4 POP PUSH1 0x20 DUP4 ADD SWAP3 POP POP PUSH1 0x1 DUP2 ADD SWAP1 POP PUSH2 0x199 JUMP JUMPDEST POP POP POP SWAP4 SWAP3 POP POP POP JUMP JUMPDEST PUSH1 0x0 DUP2 CALLDATALOAD SWAP1 POP PUSH2 0x1DF DUP2 PUSH2 0x501 JUMP JUMPDEST SWAP3 SWAP2 POP POP JUMP JUMPDEST PUSH1 0x0 DUP3 PUSH1 0x1F DUP4 ADD SLT PUSH2 0x1FA JUMPI PUSH2 0x1F9 PUSH2 0x4DC JUMP JUMPDEST JUMPDEST DUP2 CALLDATALOAD PUSH2 0x20A DUP5 DUP3 PUSH1 0x20 DUP7 ADD PUSH2 0x160 JUMP JUMPDEST SWAP2 POP POP SWAP3 SWAP2 POP POP JUMP JUMPDEST PUSH1 0x0 DUP2 MLOAD SWAP1 POP PUSH2 0x222 DUP2 PUSH2 0x518 JUMP JUMPDEST SWAP3 SWAP2 POP POP JUMP JUMPDEST PUSH1 0x0 PUSH1 0x20 DUP3 DUP5 SUB SLT ISZERO PUSH2 0x23E JUMPI PUSH2 0x23D PUSH2 0x4EB JUMP JUMPDEST JUMPDEST PUSH1 0x0 DUP3 ADD CALLDATALOAD PUSH8 0xFFFFFFFFFFFFFFFF DUP2 GT ISZERO PUSH2 0x25C JUMPI PUSH2 0x25B PUSH2 0x4E6 JUMP JUMPDEST JUMPDEST PUSH2 0x268 DUP5 DUP3 DUP6 ADD PUSH2 0x1E5 JUMP JUMPDEST SWAP2 POP POP SWAP3 SWAP2 POP POP JUMP JUMPDEST PUSH1 0x0 PUSH1 0x20 DUP3 DUP5 SUB SLT ISZERO PUSH2 0x287 JUMPI PUSH2 0x286 PUSH2 0x4EB JUMP JUMPDEST JUMPDEST PUSH1 0x0 PUSH2 0x295 DUP5 DUP3 DUP6 ADD PUSH2 0x213 JUMP JUMPDEST SWAP2 POP POP SWAP3 SWAP2 POP POP JUMP JUMPDEST PUSH2 0x2A7 DUP2 PUSH2 0x399 JUMP JUMPDEST DUP3 MSTORE POP POP JUMP JUMPDEST PUSH2 0x2B6 DUP2 PUSH2 0x3CB JUMP JUMPDEST DUP3 MSTORE POP POP JUMP JUMPDEST PUSH1 0x0 PUSH1 0x20 DUP3 ADD SWAP1 POP PUSH2 0x2D1 PUSH1 0x0 DUP4 ADD DUP5 PUSH2 0x29E JUMP JUMPDEST SWAP3 SWAP2 POP POP JUMP JUMPDEST PUSH1 0x0 PUSH1 0x20 DUP3 ADD SWAP1 POP PUSH2 0x2EC PUSH1 0x0 DUP4 ADD DUP5 PUSH2 0x2AD JUMP JUMPDEST SWAP3 SWAP2 POP POP JUMP JUMPDEST PUSH1 0x0 PUSH2 0x2FC PUSH2 0x30D JUMP JUMPDEST SWAP1 POP PUSH2 0x308 DUP3 DUP3 PUSH2 0x3D5 JUMP JUMPDEST SWAP2 SWAP1 POP JUMP JUMPDEST PUSH1 0x0 PUSH1 0x40 MLOAD SWAP1 POP SWAP1 JUMP JUMPDEST PUSH1 0x0 PUSH8 0xFFFFFFFFFFFFFFFF DUP3 GT ISZERO PUSH2 0x332 JUMPI PUSH2 0x331 PUSH2 0x4AD JUMP JUMPDEST JUMPDEST PUSH1 0x20 DUP3 MUL SWAP1 POP PUSH1 0x20 DUP2 ADD SWAP1 POP SWAP2 SWAP1 POP JUMP JUMPDEST PUSH1 0x0 PUSH2 0x34E DUP3 PUSH2 0x3CB JUMP JUMPDEST SWAP2 POP PUSH2 0x359 DUP4 PUSH2 0x3CB JUMP JUMPDEST SWAP3 POP DUP3 PUSH32 0xFFFFFFFFFFFFFFFFFFFFFFFFFFFFFFFFFFFFFFFFFFFFFFFFFFFFFFFFFFFFFFFF SUB DUP3 GT ISZERO PUSH2 0x38E JUMPI PUSH2 0x38D PUSH2 0x44F JUMP JUMPDEST JUMPDEST DUP3 DUP3 ADD SWAP1 POP SWAP3 SWAP2 POP POP JUMP JUMPDEST PUSH1 0x0 PUSH2 0x3A4 DUP3 PUSH2 0x3AB JUMP JUMPDEST SWAP1 POP SWAP2 SWAP1 POP JUMP JUMPDEST PUSH1 0x0 PUSH20 0xFFFFFFFFFFFFFFFFFFFFFFFFFFFFFFFFFFFFFFFF DUP3 AND SWAP1 POP SWAP2 SWAP1 POP JUMP JUMPDEST PUSH1 0x0 DUP2 SWAP1 POP SWAP2 SWAP1 POP JUMP JUMPDEST PUSH2 0x3DE DUP3 PUSH2 0x4F0 JUMP JUMPDEST DUP2 ADD DUP2 DUP2 LT PUSH8 0xFFFFFFFFFFFFFFFF DUP3 GT OR ISZERO PUSH2 0x3FD JUMPI PUSH2 0x3FC PUSH2 0x4AD JUMP JUMPDEST JUMPDEST DUP1 PUSH1 0x40 MSTORE POP POP POP JUMP JUMPDEST PUSH1 0x0 PUSH2 0x411 DUP3 PUSH2 0x3CB JUMP JUMPDEST SWAP2 POP PUSH32 0xFFFFFFFFFFFFFFFFFFFFFFFFFFFFFFFFFFFFFFFFFFFFFFFFFFFFFFFFFFFFFFFF DUP3 EQ ISZERO PUSH2 0x444 JUMPI PUSH2 0x443 PUSH2 0x44F JUMP JUMPDEST JUMPDEST PUSH1 0x1 DUP3 ADD SWAP1 POP SWAP2 SWAP1 POP JUMP JUMPDEST PUSH32 0x4E487B7100000000000000000000000000000000000000000000000000000000 PUSH1 0x0 MSTORE PUSH1 0x11 PUSH1 0x4 MSTORE PUSH1 0x24 PUSH1 0x0 REVERT JUMPDEST PUSH32 0x4E487B7100000000000000000000000000000000000000000000000000000000 PUSH1 0x0 MSTORE PUSH1 0x32 PUSH1 0x4 MSTORE PUSH1 0x24 PUSH1 0x0 REVERT JUMPDEST PUSH32 0x4E487B7100000000000000000000000000000000000000000000000000000000 PUSH1 0x0 MSTORE PUSH1 0x41 PUSH1 0x4 MSTORE PUSH1 0x24 PUSH1 0x0 REVERT JUMPDEST PUSH1 0x0 DUP1 REVERT JUMPDEST PUSH1 0x0 DUP1 REVERT JUMPDEST PUSH1 0x0 DUP1 REVERT JUMPDEST PUSH1 0x0 DUP1 REVERT JUMPDEST PUSH1 0x0 PUSH1 0x1F NOT PUSH1 0x1F DUP4 ADD AND SWAP1 POP SWAP2 SWAP1 POP JUMP JUMPDEST PUSH2 0x50A DUP2 PUSH2 0x399 JUMP JUMPDEST DUP2 EQ PUSH2 0x515 JUMPI PUSH1 0x0 DUP1 REVERT JUMPDEST POP JUMP JUMPDEST PUSH2 0x521 DUP2 PUSH2 0x3CB JUMP JUMPDEST DUP2 EQ PUSH2 0x52C JUMPI PUSH1 0x0 DUP1 REVERT JUMPDEST POP JUMP INVALID LOG2 PUSH5 0x6970667358 0x22 SLT KECCAK256 0xA6 0xBF 0xED 0x27 LOG3 STOP SWAP14 SHR SWAP10 0x2C 0xB8 0xE6 0x4F 0x2F SHR CALLDATACOPY 0xED ORIGIN DUP14 RETURN PUSH8 0x4CFA64BBF1B27270 SELFDESTRUCT 0xB0 0x26 PUSH5 0x736F6C6343 STOP ADDMOD SMOD STOP CALLER "
				},
				"gasEstimates": {
					"creation": {
						"codeDepositCost": "276200",
						"executionCost": "infinite",
						"totalCost": "infinite"
					},
					"external": {
						"getTokenBalanceOf(address[])": "infinite"
					}
				},
				"methodIdentifiers": {
					"getTokenBalanceOf(address[])": "0a5f75b6"
				}
			},
			"storageLayout": {
				"storage": [
					{
						"astId": 826,
						"contract": "contracts/BalanceHelper.sol:BalanceHelper",
						"label": "_token",
						"offset": 0,
						"slot": "0",
						"type": "t_contract(IERC20)181"
					},
					{
						"astId": 829,
						"contract": "contracts/BalanceHelper.sol:BalanceHelper",
						"label": "_masterEntertainer",
						"offset": 0,
						"slot": "1",
						"type": "t_contract(IMasterEntertainer)909"
					}
				],
				"types": {
					"t_contract(IERC20)181": {
						"encoding": "inplace",
						"label": "contract IERC20",
						"numberOfBytes": "20"
					},
					"t_contract(IMasterEntertainer)909": {
						"encoding": "inplace",
						"label": "contract IMasterEntertainer",
						"numberOfBytes": "20"
					}
				}
			},
			"userdoc": {
				"kind": "user",
				"methods": {},
				"version": 1
			}
		}
	}
}