{
	"contracts/Vesting.sol": {
		"Vesting": {
			"abi": [
				{
					"inputs": [
						{
							"internalType": "contract IERC20",
							"name": "_rewardToken",
							"type": "address"
						}
					],
					"stateMutability": "nonpayable",
					"type": "constructor"
				},
				{
					"anonymous": false,
					"inputs": [
						{
							"indexed": true,
							"internalType": "uint256",
							"name": "amount",
							"type": "uint256"
						}
					],
					"name": "AddedToWhitelist",
					"type": "event"
				},
				{
					"anonymous": false,
					"inputs": [
						{
							"indexed": true,
							"internalType": "uint256",
							"name": "amount",
							"type": "uint256"
						}
					],
					"name": "AddedToWhitelistFromSaft",
					"type": "event"
				},
				{
					"anonymous": false,
					"inputs": [
						{
							"indexed": true,
							"internalType": "address",
							"name": "buyer",
							"type": "address"
						},
						{
							"indexed": true,
							"internalType": "uint256",
							"name": "amount",
							"type": "uint256"
						}
					],
					"name": "Bought",
					"type": "event"
				},
				{
					"anonymous": false,
					"inputs": [
						{
							"indexed": true,
							"internalType": "address",
							"name": "newToken",
							"type": "address"
						}
					],
					"name": "ChangeRewardToken",
					"type": "event"
				},
				{
					"anonymous": false,
					"inputs": [
						{
							"indexed": true,
							"internalType": "uint256",
							"name": "claimDate",
							"type": "uint256"
						}
					],
					"name": "ClaimOpened",
					"type": "event"
				},
				{
					"anonymous": false,
					"inputs": [
						{
							"indexed": true,
							"internalType": "address",
							"name": "owner",
							"type": "address"
						},
						{
							"indexed": true,
							"internalType": "uint256",
							"name": "amount",
							"type": "uint256"
						}
					],
					"name": "Claimed",
					"type": "event"
				},
				{
					"anonymous": false,
					"inputs": [
						{
							"indexed": true,
							"internalType": "address",
							"name": "owner",
							"type": "address"
						},
						{
							"indexed": true,
							"internalType": "uint256",
							"name": "amount",
							"type": "uint256"
						}
					],
					"name": "DepositedInVestingPool",
					"type": "event"
				},
				{
					"anonymous": false,
					"inputs": [
						{
							"indexed": true,
							"internalType": "address",
							"name": "previousOwner",
							"type": "address"
						},
						{
							"indexed": true,
							"internalType": "address",
							"name": "newOwner",
							"type": "address"
						}
					],
					"name": "OwnershipTransferred",
					"type": "event"
				},
				{
					"inputs": [
						{
							"internalType": "address",
							"name": "",
							"type": "address"
						}
					],
					"name": "bought",
					"outputs": [
						{
							"internalType": "uint256",
							"name": "",
							"type": "uint256"
						}
					],
					"stateMutability": "view",
					"type": "function"
				},
				{
					"inputs": [],
					"name": "claim",
					"outputs": [],
					"stateMutability": "nonpayable",
					"type": "function"
				},
				{
					"inputs": [],
					"name": "claimOpen",
					"outputs": [
						{
							"internalType": "uint256",
							"name": "",
							"type": "uint256"
						}
					],
					"stateMutability": "view",
					"type": "function"
				},
				{
					"inputs": [
						{
							"internalType": "address",
							"name": "",
							"type": "address"
						}
					],
					"name": "claimed",
					"outputs": [
						{
							"internalType": "uint256",
							"name": "",
							"type": "uint256"
						}
					],
					"stateMutability": "view",
					"type": "function"
				},
				{
					"inputs": [
						{
							"internalType": "address",
							"name": "",
							"type": "address"
						}
					],
					"name": "claimedTokens",
					"outputs": [
						{
							"internalType": "uint256",
							"name": "",
							"type": "uint256"
						}
					],
					"stateMutability": "view",
					"type": "function"
				},
				{
					"inputs": [],
					"name": "cliffPeriod",
					"outputs": [
						{
							"internalType": "uint256",
							"name": "",
							"type": "uint256"
						}
					],
					"stateMutability": "view",
					"type": "function"
				},
				{
					"inputs": [],
					"name": "getCurrentPercentage",
					"outputs": [
						{
							"internalType": "uint256",
							"name": "",
							"type": "uint256"
						}
					],
					"stateMutability": "view",
					"type": "function"
				},
				{
					"inputs": [],
					"name": "initialClaimPercentage",
					"outputs": [
						{
							"internalType": "uint256",
							"name": "",
							"type": "uint256"
						}
					],
					"stateMutability": "view",
					"type": "function"
				},
				{
					"inputs": [
						{
							"internalType": "address",
							"name": "",
							"type": "address"
						}
					],
					"name": "lastClaimAddress",
					"outputs": [
						{
							"internalType": "address",
							"name": "",
							"type": "address"
						}
					],
					"stateMutability": "view",
					"type": "function"
				},
				{
					"inputs": [],
					"name": "openClaim",
					"outputs": [],
					"stateMutability": "nonpayable",
					"type": "function"
				},
				{
					"inputs": [],
					"name": "owner",
					"outputs": [
						{
							"internalType": "address",
							"name": "",
							"type": "address"
						}
					],
					"stateMutability": "view",
					"type": "function"
				},
				{
					"inputs": [],
					"name": "percentagePerPeriod",
					"outputs": [
						{
							"internalType": "uint256",
							"name": "",
							"type": "uint256"
						}
					],
					"stateMutability": "view",
					"type": "function"
				},
				{
					"inputs": [],
					"name": "period",
					"outputs": [
						{
							"internalType": "uint256",
							"name": "",
							"type": "uint256"
						}
					],
					"stateMutability": "view",
					"type": "function"
				},
				{
					"inputs": [],
					"name": "renounceOwnership",
					"outputs": [],
					"stateMutability": "nonpayable",
					"type": "function"
				},
				{
					"inputs": [],
					"name": "requireWhitelist",
					"outputs": [
						{
							"internalType": "bool",
							"name": "",
							"type": "bool"
						}
					],
					"stateMutability": "view",
					"type": "function"
				},
				{
					"inputs": [],
					"name": "rewardToken",
					"outputs": [
						{
							"internalType": "contract IERC20",
							"name": "",
							"type": "address"
						}
					],
					"stateMutability": "view",
					"type": "function"
				},
				{
					"inputs": [
						{
							"internalType": "address",
							"name": "newOwner",
							"type": "address"
						}
					],
					"name": "transferOwnership",
					"outputs": [],
					"stateMutability": "nonpayable",
					"type": "function"
				},
				{
					"inputs": [
						{
							"internalType": "contract IERC20",
							"name": "_newRewardToken",
							"type": "address"
						}
					],
					"name": "updateRewardToken",
					"outputs": [],
					"stateMutability": "nonpayable",
					"type": "function"
				},
				{
					"inputs": [
						{
							"internalType": "address[]",
							"name": "addresses",
							"type": "address[]"
						},
						{
							"internalType": "uint256[]",
							"name": "amounts",
							"type": "uint256[]"
						}
					],
					"name": "whitelistFromSAFT",
					"outputs": [],
					"stateMutability": "nonpayable",
					"type": "function"
				}
			],
			"devdoc": {
				"kind": "dev",
				"methods": {
					"owner()": {
						"details": "Returns the address of the current owner."
					},
					"renounceOwnership()": {
						"details": "Leaves the contract without owner. It will not be possible to call `onlyOwner` functions anymore. Can only be called by the current owner. NOTE: Renouncing ownership will leave the contract without an owner, thereby removing any functionality that is only available to the owner."
					},
					"transferOwnership(address)": {
						"details": "Transfers ownership of the contract to a new account (`newOwner`). Can only be called by the current owner."
					}
				},
				"version": 1
			},
			"evm": {
				"assembly": "    /* \"contracts/Vesting.sol\":388:7069  contract Vesting is Ownable {... */\n  mstore(0x40, 0x80)\n    /* \"contracts/Vesting.sol\":910:911  0 */\n  0x00\n    /* \"contracts/Vesting.sol\":883:911  uint256 public claimOpen = 0 */\n  0x02\n  sstore\n    /* \"contracts/Vesting.sol\":1413:1417  true */\n  0x01\n    /* \"contracts/Vesting.sol\":1382:1417  bool public requireWhitelist = true */\n  0x03\n  exp(0x0100, 0x00)\n  dup2\n  sload\n  dup2\n  0xff\n  mul\n  not\n  and\n  swap1\n  dup4\n  iszero\n  iszero\n  mul\n  or\n  swap1\n  sstore\n  pop\n    /* \"contracts/Vesting.sol\":2634:2710  constructor(IERC20 _rewardToken) {... */\n  callvalue\n  dup1\n  iszero\n  tag_1\n  jumpi\n  0x00\n  dup1\n  revert\ntag_1:\n  pop\n  mload(0x40)\n  sub(codesize, bytecodeSize)\n  dup1\n  bytecodeSize\n  dup4\n  codecopy\n  dup2\n  dup2\n  add\n  0x40\n  mstore\n  dup2\n  add\n  swap1\n  tag_2\n  swap2\n  swap1\n  tag_3\n  jump\t// in\ntag_2:\n    /* \"@openzeppelin/contracts/access/Ownable.sol\":867:890  _setOwner(_msgSender()) */\n  tag_7\n    /* \"@openzeppelin/contracts/access/Ownable.sol\":877:889  _msgSender() */\n  tag_8\n    /* \"@openzeppelin/contracts/access/Ownable.sol\":877:887  _msgSender */\n  shl(0x20, tag_9)\n    /* \"@openzeppelin/contracts/access/Ownable.sol\":877:889  _msgSender() */\n  0x20\n  shr\n  jump\t// in\ntag_8:\n    /* \"@openzeppelin/contracts/access/Ownable.sol\":867:876  _setOwner */\n  shl(0x20, tag_10)\n    /* \"@openzeppelin/contracts/access/Ownable.sol\":867:890  _setOwner(_msgSender()) */\n  0x20\n  shr\n  jump\t// in\ntag_7:\n    /* \"contracts/Vesting.sol\":2691:2703  _rewardToken */\n  dup1\n    /* \"contracts/Vesting.sol\":2677:2688  rewardToken */\n  0x01\n  0x00\n    /* \"contracts/Vesting.sol\":2677:2703  rewardToken = _rewardToken */\n  0x0100\n  exp\n  dup2\n  sload\n  dup2\n  0xffffffffffffffffffffffffffffffffffffffff\n  mul\n  not\n  and\n  swap1\n  dup4\n  0xffffffffffffffffffffffffffffffffffffffff\n  and\n  mul\n  or\n  swap1\n  sstore\n  pop\n    /* \"contracts/Vesting.sol\":2634:2710  constructor(IERC20 _rewardToken) {... */\n  pop\n    /* \"contracts/Vesting.sol\":388:7069  contract Vesting is Ownable {... */\n  jump(tag_12)\n    /* \"@openzeppelin/contracts/utils/Context.sol\":586:682  function _msgSender() internal view virtual returns (address) {... */\ntag_9:\n    /* \"@openzeppelin/contracts/utils/Context.sol\":639:646  address */\n  0x00\n    /* \"@openzeppelin/contracts/utils/Context.sol\":665:675  msg.sender */\n  caller\n    /* \"@openzeppelin/contracts/utils/Context.sol\":658:675  return msg.sender */\n  swap1\n  pop\n    /* \"@openzeppelin/contracts/utils/Context.sol\":586:682  function _msgSender() internal view virtual returns (address) {... */\n  swap1\n  jump\t// out\n    /* \"@openzeppelin/contracts/access/Ownable.sol\":2041:2210  function _setOwner(address newOwner) private {... */\ntag_10:\n    /* \"@openzeppelin/contracts/access/Ownable.sol\":2096:2112  address oldOwner */\n  0x00\n    /* \"@openzeppelin/contracts/access/Ownable.sol\":2115:2121  _owner */\n  dup1\n  0x00\n  swap1\n  sload\n  swap1\n  0x0100\n  exp\n  swap1\n  div\n  0xffffffffffffffffffffffffffffffffffffffff\n  and\n    /* \"@openzeppelin/contracts/access/Ownable.sol\":2096:2121  address oldOwner = _owner */\n  swap1\n  pop\n    /* \"@openzeppelin/contracts/access/Ownable.sol\":2140:2148  newOwner */\n  dup2\n    /* \"@openzeppelin/contracts/access/Ownable.sol\":2131:2137  _owner */\n  0x00\n  dup1\n    /* \"@openzeppelin/contracts/access/Ownable.sol\":2131:2148  _owner = newOwner */\n  0x0100\n  exp\n  dup2\n  sload\n  dup2\n  0xffffffffffffffffffffffffffffffffffffffff\n  mul\n  not\n  and\n  swap1\n  dup4\n  0xffffffffffffffffffffffffffffffffffffffff\n  and\n  mul\n  or\n  swap1\n  sstore\n  pop\n    /* \"@openzeppelin/contracts/access/Ownable.sol\":2194:2202  newOwner */\n  dup2\n    /* \"@openzeppelin/contracts/access/Ownable.sol\":2163:2203  OwnershipTransferred(oldOwner, newOwner) */\n  0xffffffffffffffffffffffffffffffffffffffff\n  and\n    /* \"@openzeppelin/contracts/access/Ownable.sol\":2184:2192  oldOwner */\n  dup2\n    /* \"@openzeppelin/contracts/access/Ownable.sol\":2163:2203  OwnershipTransferred(oldOwner, newOwner) */\n  0xffffffffffffffffffffffffffffffffffffffff\n  and\n  0x8be0079c531659141344cd1fd0a4f28419497f9722a3daafe3b4186f6b6457e0\n  mload(0x40)\n  mload(0x40)\n  dup1\n  swap2\n  sub\n  swap1\n  log3\n    /* \"@openzeppelin/contracts/access/Ownable.sol\":2086:2210  {... */\n  pop\n    /* \"@openzeppelin/contracts/access/Ownable.sol\":2041:2210  function _setOwner(address newOwner) private {... */\n  pop\n  jump\t// out\n    /* \"#utility.yul\":7:178   */\ntag_16:\n    /* \"#utility.yul\":78:83   */\n  0x00\n    /* \"#utility.yul\":109:115   */\n  dup2\n    /* \"#utility.yul\":103:116   */\n  mload\n    /* \"#utility.yul\":94:116   */\n  swap1\n  pop\n    /* \"#utility.yul\":125:172   */\n  tag_18\n    /* \"#utility.yul\":166:171   */\n  dup2\n    /* \"#utility.yul\":125:172   */\n  tag_19\n  jump\t// in\ntag_18:\n    /* \"#utility.yul\":7:178   */\n  swap3\n  swap2\n  pop\n  pop\n  jump\t// out\n    /* \"#utility.yul\":184:563   */\ntag_3:\n    /* \"#utility.yul\":268:274   */\n  0x00\n    /* \"#utility.yul\":317:319   */\n  0x20\n    /* \"#utility.yul\":305:314   */\n  dup3\n    /* \"#utility.yul\":296:303   */\n  dup5\n    /* \"#utility.yul\":292:315   */\n  sub\n    /* \"#utility.yul\":288:320   */\n  slt\n    /* \"#utility.yul\":285:404   */\n  iszero\n  tag_21\n  jumpi\n    /* \"#utility.yul\":323:402   */\n  tag_22\n  tag_23\n  jump\t// in\ntag_22:\n    /* \"#utility.yul\":285:404   */\ntag_21:\n    /* \"#utility.yul\":443:444   */\n  0x00\n    /* \"#utility.yul\":468:546   */\n  tag_24\n    /* \"#utility.yul\":538:545   */\n  dup5\n    /* \"#utility.yul\":529:535   */\n  dup3\n    /* \"#utility.yul\":518:527   */\n  dup6\n    /* \"#utility.yul\":514:536   */\n  add\n    /* \"#utility.yul\":468:546   */\n  tag_16\n  jump\t// in\ntag_24:\n    /* \"#utility.yul\":458:546   */\n  swap2\n  pop\n    /* \"#utility.yul\":414:556   */\n  pop\n    /* \"#utility.yul\":184:563   */\n  swap3\n  swap2\n  pop\n  pop\n  jump\t// out\n    /* \"#utility.yul\":650:746   */\ntag_27:\n    /* \"#utility.yul\":687:694   */\n  0x00\n    /* \"#utility.yul\":716:740   */\n  tag_29\n    /* \"#utility.yul\":734:739   */\n  dup3\n    /* \"#utility.yul\":716:740   */\n  tag_30\n  jump\t// in\ntag_29:\n    /* \"#utility.yul\":705:740   */\n  swap1\n  pop\n    /* \"#utility.yul\":650:746   */\n  swap2\n  swap1\n  pop\n  jump\t// out\n    /* \"#utility.yul\":752:862   */\ntag_31:\n    /* \"#utility.yul\":803:810   */\n  0x00\n    /* \"#utility.yul\":832:856   */\n  tag_33\n    /* \"#utility.yul\":850:855   */\n  dup3\n    /* \"#utility.yul\":832:856   */\n  tag_27\n  jump\t// in\ntag_33:\n    /* \"#utility.yul\":821:856   */\n  swap1\n  pop\n    /* \"#utility.yul\":752:862   */\n  swap2\n  swap1\n  pop\n  jump\t// out\n    /* \"#utility.yul\":868:994   */\ntag_30:\n    /* \"#utility.yul\":905:912   */\n  0x00\n    /* \"#utility.yul\":945:987   */\n  0xffffffffffffffffffffffffffffffffffffffff\n    /* \"#utility.yul\":938:943   */\n  dup3\n    /* \"#utility.yul\":934:988   */\n  and\n    /* \"#utility.yul\":923:988   */\n  swap1\n  pop\n    /* \"#utility.yul\":868:994   */\n  swap2\n  swap1\n  pop\n  jump\t// out\n    /* \"#utility.yul\":1123:1240   */\ntag_23:\n    /* \"#utility.yul\":1232:1233   */\n  0x00\n    /* \"#utility.yul\":1229:1230   */\n  dup1\n    /* \"#utility.yul\":1222:1234   */\n  revert\n    /* \"#utility.yul\":1246:1396   */\ntag_19:\n    /* \"#utility.yul\":1333:1371   */\n  tag_39\n    /* \"#utility.yul\":1365:1370   */\n  dup2\n    /* \"#utility.yul\":1333:1371   */\n  tag_31\n  jump\t// in\ntag_39:\n    /* \"#utility.yul\":1326:1331   */\n  dup2\n    /* \"#utility.yul\":1323:1372   */\n  eq\n    /* \"#utility.yul\":1313:1390   */\n  tag_40\n  jumpi\n    /* \"#utility.yul\":1386:1387   */\n  0x00\n    /* \"#utility.yul\":1383:1384   */\n  dup1\n    /* \"#utility.yul\":1376:1388   */\n  revert\n    /* \"#utility.yul\":1313:1390   */\ntag_40:\n    /* \"#utility.yul\":1246:1396   */\n  pop\n  jump\t// out\n    /* \"contracts/Vesting.sol\":388:7069  contract Vesting is Ownable {... */\ntag_12:\n  dataSize(sub_0)\n  dup1\n  dataOffset(sub_0)\n  0x00\n  codecopy\n  0x00\n  return\nstop\n\nsub_0: assembly {\n        /* \"contracts/Vesting.sol\":388:7069  contract Vesting is Ownable {... */\n      mstore(0x40, 0x80)\n      callvalue\n      dup1\n      iszero\n      tag_1\n      jumpi\n      0x00\n      dup1\n      revert\n    tag_1:\n      pop\n      jumpi(tag_2, lt(calldatasize, 0x04))\n      shr(0xe0, calldataload(0x00))\n      dup1\n      0x8da5cb5b\n      gt\n      tag_22\n      jumpi\n      dup1\n      0xef78d4fd\n      gt\n      tag_23\n      jumpi\n      dup1\n      0xef78d4fd\n      eq\n      tag_17\n      jumpi\n      dup1\n      0xf2fde38b\n      eq\n      tag_18\n      jumpi\n      dup1\n      0xf3739e05\n      eq\n      tag_19\n      jumpi\n      dup1\n      0xf7c618c1\n      eq\n      tag_20\n      jumpi\n      dup1\n      0xf8cf31cb\n      eq\n      tag_21\n      jumpi\n      jump(tag_2)\n    tag_23:\n      dup1\n      0x8da5cb5b\n      eq\n      tag_12\n      jumpi\n      dup1\n      0x9c92431b\n      eq\n      tag_13\n      jumpi\n      dup1\n      0xa5ebf835\n      eq\n      tag_14\n      jumpi\n      dup1\n      0xa960c65f\n      eq\n      tag_15\n      jumpi\n      dup1\n      0xc884ef83\n      eq\n      tag_16\n      jumpi\n      jump(tag_2)\n    tag_22:\n      dup1\n      0x4e71d92d\n      gt\n      tag_24\n      jumpi\n      dup1\n      0x4e71d92d\n      eq\n      tag_7\n      jumpi\n      dup1\n      0x5372a58e\n      eq\n      tag_8\n      jumpi\n      dup1\n      0x667022fd\n      eq\n      tag_9\n      jumpi\n      dup1\n      0x715018a6\n      eq\n      tag_10\n      jumpi\n      dup1\n      0x856734c4\n      eq\n      tag_11\n      jumpi\n      jump(tag_2)\n    tag_24:\n      dup1\n      0x151bad0a\n      eq\n      tag_3\n      jumpi\n      dup1\n      0x293cdbf1\n      eq\n      tag_4\n      jumpi\n      dup1\n      0x2f661946\n      eq\n      tag_5\n      jumpi\n      dup1\n      0x4b8bcb58\n      eq\n      tag_6\n      jumpi\n    tag_2:\n      0x00\n      dup1\n      revert\n        /* \"contracts/Vesting.sol\":1124:1172  uint256 constant public percentagePerPeriod = 50 */\n    tag_3:\n      tag_25\n      tag_26\n      jump\t// in\n    tag_25:\n      mload(0x40)\n      tag_27\n      swap2\n      swap1\n      tag_28\n      jump\t// in\n    tag_27:\n      mload(0x40)\n      dup1\n      swap2\n      sub\n      swap1\n      return\n        /* \"contracts/Vesting.sol\":3038:3223  function openClaim() public onlyOwner {... */\n    tag_4:\n      tag_29\n      tag_30\n      jump\t// in\n    tag_29:\n      stop\n        /* \"contracts/Vesting.sol\":1256:1296  uint256 constant public cliffPeriod = 10 */\n    tag_5:\n      tag_31\n      tag_32\n      jump\t// in\n    tag_31:\n      mload(0x40)\n      tag_33\n      swap2\n      swap1\n      tag_28\n      jump\t// in\n    tag_33:\n      mload(0x40)\n      dup1\n      swap2\n      sub\n      swap1\n      return\n        /* \"contracts/Vesting.sol\":883:911  uint256 public claimOpen = 0 */\n    tag_6:\n      tag_34\n      tag_35\n      jump\t// in\n    tag_34:\n      mload(0x40)\n      tag_36\n      swap2\n      swap1\n      tag_28\n      jump\t// in\n    tag_36:\n      mload(0x40)\n      dup1\n      swap2\n      sub\n      swap1\n      return\n        /* \"contracts/Vesting.sol\":5828:7067  function claim() public {... */\n    tag_7:\n      tag_37\n      tag_38\n      jump\t// in\n    tag_37:\n      stop\n        /* \"contracts/Vesting.sol\":4030:4541  function whitelistFromSAFT(address[] memory addresses, uint256[] memory amounts) public onlyOwner {... */\n    tag_8:\n      tag_39\n      0x04\n      dup1\n      calldatasize\n      sub\n      dup2\n      add\n      swap1\n      tag_40\n      swap2\n      swap1\n      tag_41\n      jump\t// in\n    tag_40:\n      tag_42\n      jump\t// in\n    tag_39:\n      stop\n        /* \"contracts/Vesting.sol\":1496:1537  mapping(address => uint256) public bought */\n    tag_9:\n      tag_43\n      0x04\n      dup1\n      calldatasize\n      sub\n      dup2\n      add\n      swap1\n      tag_44\n      swap2\n      swap1\n      tag_45\n      jump\t// in\n    tag_44:\n      tag_46\n      jump\t// in\n    tag_43:\n      mload(0x40)\n      tag_47\n      swap2\n      swap1\n      tag_28\n      jump\t// in\n    tag_47:\n      mload(0x40)\n      dup1\n      swap2\n      sub\n      swap1\n      return\n        /* \"@openzeppelin/contracts/access/Ownable.sol\":1605:1697  function renounceOwnership() public virtual onlyOwner {... */\n    tag_10:\n      tag_48\n      tag_49\n      jump\t// in\n    tag_48:\n      stop\n        /* \"contracts/Vesting.sol\":1382:1417  bool public requireWhitelist = true */\n    tag_11:\n      tag_50\n      tag_51\n      jump\t// in\n    tag_50:\n      mload(0x40)\n      tag_52\n      swap2\n      swap1\n      tag_53\n      jump\t// in\n    tag_52:\n      mload(0x40)\n      dup1\n      swap2\n      sub\n      swap1\n      return\n        /* \"@openzeppelin/contracts/access/Ownable.sol\":973:1058  function owner() public view virtual returns (address) {... */\n    tag_12:\n      tag_54\n      tag_55\n      jump\t// in\n    tag_54:\n      mload(0x40)\n      tag_56\n      swap2\n      swap1\n      tag_57\n      jump\t// in\n    tag_56:\n      mload(0x40)\n      dup1\n      swap2\n      sub\n      swap1\n      return\n        /* \"contracts/Vesting.sol\":4870:5362  function getCurrentPercentage() public view returns (uint256) {... */\n    tag_13:\n      tag_58\n      tag_59\n      jump\t// in\n    tag_58:\n      mload(0x40)\n      tag_60\n      swap2\n      swap1\n      tag_28\n      jump\t// in\n    tag_60:\n      mload(0x40)\n      dup1\n      swap2\n      sub\n      swap1\n      return\n        /* \"contracts/Vesting.sol\":997:1049  uint256 constant public initialClaimPercentage = 100 */\n    tag_14:\n      tag_61\n      tag_62\n      jump\t// in\n    tag_61:\n      mload(0x40)\n      tag_63\n      swap2\n      swap1\n      tag_28\n      jump\t// in\n    tag_63:\n      mload(0x40)\n      dup1\n      swap2\n      sub\n      swap1\n      return\n        /* \"contracts/Vesting.sol\":1688:1736  mapping(address => uint256) public claimedTokens */\n    tag_15:\n      tag_64\n      0x04\n      dup1\n      calldatasize\n      sub\n      dup2\n      add\n      swap1\n      tag_65\n      swap2\n      swap1\n      tag_45\n      jump\t// in\n    tag_65:\n      tag_66\n      jump\t// in\n    tag_64:\n      mload(0x40)\n      tag_67\n      swap2\n      swap1\n      tag_28\n      jump\t// in\n    tag_67:\n      mload(0x40)\n      dup1\n      swap2\n      sub\n      swap1\n      return\n        /* \"contracts/Vesting.sol\":1585:1627  mapping(address => uint256) public claimed */\n    tag_16:\n      tag_68\n      0x04\n      dup1\n      calldatasize\n      sub\n      dup2\n      add\n      swap1\n      tag_69\n      swap2\n      swap1\n      tag_45\n      jump\t// in\n    tag_69:\n      tag_70\n      jump\t// in\n    tag_68:\n      mload(0x40)\n      tag_71\n      swap2\n      swap1\n      tag_28\n      jump\t// in\n    tag_71:\n      mload(0x40)\n      dup1\n      swap2\n      sub\n      swap1\n      return\n        /* \"contracts/Vesting.sol\":917:951  uint256 constant public period = 2 */\n    tag_17:\n      tag_72\n      tag_73\n      jump\t// in\n    tag_72:\n      mload(0x40)\n      tag_74\n      swap2\n      swap1\n      tag_28\n      jump\t// in\n    tag_74:\n      mload(0x40)\n      dup1\n      swap2\n      sub\n      swap1\n      return\n        /* \"@openzeppelin/contracts/access/Ownable.sol\":1846:2035  function transferOwnership(address newOwner) public virtual onlyOwner {... */\n    tag_18:\n      tag_75\n      0x04\n      dup1\n      calldatasize\n      sub\n      dup2\n      add\n      swap1\n      tag_76\n      swap2\n      swap1\n      tag_45\n      jump\t// in\n    tag_76:\n      tag_77\n      jump\t// in\n    tag_75:\n      stop\n        /* \"contracts/Vesting.sol\":1784:1835  mapping(address => address) public lastClaimAddress */\n    tag_19:\n      tag_78\n      0x04\n      dup1\n      calldatasize\n      sub\n      dup2\n      add\n      swap1\n      tag_79\n      swap2\n      swap1\n      tag_45\n      jump\t// in\n    tag_79:\n      tag_80\n      jump\t// in\n    tag_78:\n      mload(0x40)\n      tag_81\n      swap2\n      swap1\n      tag_57\n      jump\t// in\n    tag_81:\n      mload(0x40)\n      dup1\n      swap2\n      sub\n      swap1\n      return\n        /* \"contracts/Vesting.sol\":838:863  IERC20 public rewardToken */\n    tag_20:\n      tag_82\n      tag_83\n      jump\t// in\n    tag_82:\n      mload(0x40)\n      tag_84\n      swap2\n      swap1\n      tag_85\n      jump\t// in\n    tag_84:\n      mload(0x40)\n      dup1\n      swap2\n      sub\n      swap1\n      return\n        /* \"contracts/Vesting.sol\":3506:4019  function updateRewardToken(IERC20 _newRewardToken) public onlyOwner {... */\n    tag_21:\n      tag_86\n      0x04\n      dup1\n      calldatasize\n      sub\n      dup2\n      add\n      swap1\n      tag_87\n      swap2\n      swap1\n      tag_88\n      jump\t// in\n    tag_87:\n      tag_89\n      jump\t// in\n    tag_86:\n      stop\n        /* \"contracts/Vesting.sol\":1124:1172  uint256 constant public percentagePerPeriod = 50 */\n    tag_26:\n        /* \"contracts/Vesting.sol\":1170:1172  50 */\n      0x32\n        /* \"contracts/Vesting.sol\":1124:1172  uint256 constant public percentagePerPeriod = 50 */\n      dup2\n      jump\t// out\n        /* \"contracts/Vesting.sol\":3038:3223  function openClaim() public onlyOwner {... */\n    tag_30:\n        /* \"@openzeppelin/contracts/access/Ownable.sol\":1196:1208  _msgSender() */\n      tag_91\n        /* \"@openzeppelin/contracts/access/Ownable.sol\":1196:1206  _msgSender */\n      tag_92\n        /* \"@openzeppelin/contracts/access/Ownable.sol\":1196:1208  _msgSender() */\n      jump\t// in\n    tag_91:\n        /* \"@openzeppelin/contracts/access/Ownable.sol\":1185:1208  owner() == _msgSender() */\n      0xffffffffffffffffffffffffffffffffffffffff\n      and\n        /* \"@openzeppelin/contracts/access/Ownable.sol\":1185:1192  owner() */\n      tag_93\n        /* \"@openzeppelin/contracts/access/Ownable.sol\":1185:1190  owner */\n      tag_55\n        /* \"@openzeppelin/contracts/access/Ownable.sol\":1185:1192  owner() */\n      jump\t// in\n    tag_93:\n        /* \"@openzeppelin/contracts/access/Ownable.sol\":1185:1208  owner() == _msgSender() */\n      0xffffffffffffffffffffffffffffffffffffffff\n      and\n      eq\n        /* \"@openzeppelin/contracts/access/Ownable.sol\":1177:1245  require(owner() == _msgSender(), \"Ownable: caller is not the owner\") */\n      tag_94\n      jumpi\n      mload(0x40)\n      0x08c379a000000000000000000000000000000000000000000000000000000000\n      dup2\n      mstore\n      0x04\n      add\n      tag_95\n      swap1\n      tag_96\n      jump\t// in\n    tag_95:\n      mload(0x40)\n      dup1\n      swap2\n      sub\n      swap1\n      revert\n    tag_94:\n        /* \"contracts/Vesting.sol\":3107:3108  0 */\n      0x00\n        /* \"contracts/Vesting.sol\":3094:3103  claimOpen */\n      sload(0x02)\n        /* \"contracts/Vesting.sol\":3094:3108  claimOpen == 0 */\n      eq\n        /* \"contracts/Vesting.sol\":3086:3136  require(claimOpen == 0, \"Claim is already opened\") */\n      tag_98\n      jumpi\n      mload(0x40)\n      0x08c379a000000000000000000000000000000000000000000000000000000000\n      dup2\n      mstore\n      0x04\n      add\n      tag_99\n      swap1\n      tag_100\n      jump\t// in\n    tag_99:\n      mload(0x40)\n      dup1\n      swap2\n      sub\n      swap1\n      revert\n    tag_98:\n        /* \"contracts/Vesting.sol\":3158:3173  block.timestamp */\n      timestamp\n        /* \"contracts/Vesting.sol\":3146:3155  claimOpen */\n      0x02\n        /* \"contracts/Vesting.sol\":3146:3173  claimOpen = block.timestamp */\n      dup2\n      swap1\n      sstore\n      pop\n        /* \"contracts/Vesting.sol\":3200:3215  block.timestamp */\n      timestamp\n        /* \"contracts/Vesting.sol\":3188:3216  ClaimOpened(block.timestamp) */\n      0x7d425ef8bc8f854f0bddfa263a1a52ae42adbddd9c9c95ad3f21b1e2d311c4ca\n      mload(0x40)\n      mload(0x40)\n      dup1\n      swap2\n      sub\n      swap1\n      log2\n        /* \"contracts/Vesting.sol\":3038:3223  function openClaim() public onlyOwner {... */\n      jump\t// out\n        /* \"contracts/Vesting.sol\":1256:1296  uint256 constant public cliffPeriod = 10 */\n    tag_32:\n        /* \"contracts/Vesting.sol\":1294:1296  10 */\n      0x0a\n        /* \"contracts/Vesting.sol\":1256:1296  uint256 constant public cliffPeriod = 10 */\n      dup2\n      jump\t// out\n        /* \"contracts/Vesting.sol\":883:911  uint256 public claimOpen = 0 */\n    tag_35:\n      sload(0x02)\n      dup2\n      jump\t// out\n        /* \"contracts/Vesting.sol\":5828:7067  function claim() public {... */\n    tag_38:\n        /* \"contracts/Vesting.sol\":5883:5884  0 */\n      0x00\n        /* \"contracts/Vesting.sol\":5870:5879  claimOpen */\n      sload(0x02)\n        /* \"contracts/Vesting.sol\":5870:5884  claimOpen != 0 */\n      eq\n      iszero\n        /* \"contracts/Vesting.sol\":5862:5925  require(claimOpen != 0, \"ABOAT::claim: Claim is not open yet!\") */\n      tag_102\n      jumpi\n      mload(0x40)\n      0x08c379a000000000000000000000000000000000000000000000000000000000\n      dup2\n      mstore\n      0x04\n      add\n      tag_103\n      swap1\n      tag_104\n      jump\t// in\n    tag_103:\n      mload(0x40)\n      dup1\n      swap2\n      sub\n      swap1\n      revert\n    tag_102:\n        /* \"contracts/Vesting.sol\":5935:5960  uint256 currentPercentage */\n      0x00\n        /* \"contracts/Vesting.sol\":5963:5985  getCurrentPercentage() */\n      tag_105\n        /* \"contracts/Vesting.sol\":5963:5983  getCurrentPercentage */\n      tag_59\n        /* \"contracts/Vesting.sol\":5963:5985  getCurrentPercentage() */\n      jump\t// in\n    tag_105:\n        /* \"contracts/Vesting.sol\":5935:5985  uint256 currentPercentage = getCurrentPercentage() */\n      swap1\n      pop\n        /* \"contracts/Vesting.sol\":6023:6024  0 */\n      0x00\n        /* \"contracts/Vesting.sol\":6003:6020  currentPercentage */\n      dup2\n        /* \"contracts/Vesting.sol\":6003:6024  currentPercentage > 0 */\n      gt\n        /* \"contracts/Vesting.sol\":5995:6122  require(currentPercentage > 0, \"ABOAT::claim: The percentage of token you can claim is currently zero. Please try again later\") */\n      tag_106\n      jumpi\n      mload(0x40)\n      0x08c379a000000000000000000000000000000000000000000000000000000000\n      dup2\n      mstore\n      0x04\n      add\n      tag_107\n      swap1\n      tag_108\n      jump\t// in\n    tag_107:\n      mload(0x40)\n      dup1\n      swap2\n      sub\n      swap1\n      revert\n    tag_106:\n        /* \"contracts/Vesting.sol\":6175:6186  rewardToken */\n      0x01\n      0x00\n      swap1\n      sload\n      swap1\n      0x0100\n      exp\n      swap1\n      div\n      0xffffffffffffffffffffffffffffffffffffffff\n      and\n        /* \"contracts/Vesting.sol\":6135:6187  lastClaimAddress[msg.sender] != address(rewardToken) */\n      0xffffffffffffffffffffffffffffffffffffffff\n      and\n        /* \"contracts/Vesting.sol\":6135:6151  lastClaimAddress */\n      0x07\n        /* \"contracts/Vesting.sol\":6135:6163  lastClaimAddress[msg.sender] */\n      0x00\n        /* \"contracts/Vesting.sol\":6152:6162  msg.sender */\n      caller\n        /* \"contracts/Vesting.sol\":6135:6163  lastClaimAddress[msg.sender] */\n      0xffffffffffffffffffffffffffffffffffffffff\n      and\n      0xffffffffffffffffffffffffffffffffffffffff\n      and\n      dup2\n      mstore\n      0x20\n      add\n      swap1\n      dup2\n      mstore\n      0x20\n      add\n      0x00\n      keccak256\n      0x00\n      swap1\n      sload\n      swap1\n      0x0100\n      exp\n      swap1\n      div\n      0xffffffffffffffffffffffffffffffffffffffff\n      and\n        /* \"contracts/Vesting.sol\":6135:6187  lastClaimAddress[msg.sender] != address(rewardToken) */\n      0xffffffffffffffffffffffffffffffffffffffff\n      and\n      eq\n        /* \"contracts/Vesting.sol\":6132:6345  if(lastClaimAddress[msg.sender] != address(rewardToken)) {... */\n      tag_109\n      jumpi\n        /* \"contracts/Vesting.sol\":6242:6253  rewardToken */\n      0x01\n      0x00\n      swap1\n      sload\n      swap1\n      0x0100\n      exp\n      swap1\n      div\n      0xffffffffffffffffffffffffffffffffffffffff\n      and\n        /* \"contracts/Vesting.sol\":6203:6219  lastClaimAddress */\n      0x07\n        /* \"contracts/Vesting.sol\":6203:6231  lastClaimAddress[msg.sender] */\n      0x00\n        /* \"contracts/Vesting.sol\":6220:6230  msg.sender */\n      caller\n        /* \"contracts/Vesting.sol\":6203:6231  lastClaimAddress[msg.sender] */\n      0xffffffffffffffffffffffffffffffffffffffff\n      and\n      0xffffffffffffffffffffffffffffffffffffffff\n      and\n      dup2\n      mstore\n      0x20\n      add\n      swap1\n      dup2\n      mstore\n      0x20\n      add\n      0x00\n      keccak256\n      0x00\n        /* \"contracts/Vesting.sol\":6203:6254  lastClaimAddress[msg.sender] = address(rewardToken) */\n      0x0100\n      exp\n      dup2\n      sload\n      dup2\n      0xffffffffffffffffffffffffffffffffffffffff\n      mul\n      not\n      and\n      swap1\n      dup4\n      0xffffffffffffffffffffffffffffffffffffffff\n      and\n      mul\n      or\n      swap1\n      sstore\n      pop\n        /* \"contracts/Vesting.sol\":6290:6291  0 */\n      0x00\n        /* \"contracts/Vesting.sol\":6268:6275  claimed */\n      0x05\n        /* \"contracts/Vesting.sol\":6268:6287  claimed[msg.sender] */\n      0x00\n        /* \"contracts/Vesting.sol\":6276:6286  msg.sender */\n      caller\n        /* \"contracts/Vesting.sol\":6268:6287  claimed[msg.sender] */\n      0xffffffffffffffffffffffffffffffffffffffff\n      and\n      0xffffffffffffffffffffffffffffffffffffffff\n      and\n      dup2\n      mstore\n      0x20\n      add\n      swap1\n      dup2\n      mstore\n      0x20\n      add\n      0x00\n      keccak256\n        /* \"contracts/Vesting.sol\":6268:6291  claimed[msg.sender] = 0 */\n      dup2\n      swap1\n      sstore\n      pop\n        /* \"contracts/Vesting.sol\":6333:6334  0 */\n      0x00\n        /* \"contracts/Vesting.sol\":6305:6318  claimedTokens */\n      0x06\n        /* \"contracts/Vesting.sol\":6305:6330  claimedTokens[msg.sender] */\n      0x00\n        /* \"contracts/Vesting.sol\":6319:6329  msg.sender */\n      caller\n        /* \"contracts/Vesting.sol\":6305:6330  claimedTokens[msg.sender] */\n      0xffffffffffffffffffffffffffffffffffffffff\n      and\n      0xffffffffffffffffffffffffffffffffffffffff\n      and\n      dup2\n      mstore\n      0x20\n      add\n      swap1\n      dup2\n      mstore\n      0x20\n      add\n      0x00\n      keccak256\n        /* \"contracts/Vesting.sol\":6305:6334  claimedTokens[msg.sender] = 0 */\n      dup2\n      swap1\n      sstore\n      pop\n        /* \"contracts/Vesting.sol\":6132:6345  if(lastClaimAddress[msg.sender] != address(rewardToken)) {... */\n    tag_109:\n        /* \"contracts/Vesting.sol\":6384:6401  currentPercentage */\n      dup1\n        /* \"contracts/Vesting.sol\":6362:6369  claimed */\n      0x05\n        /* \"contracts/Vesting.sol\":6362:6381  claimed[msg.sender] */\n      0x00\n        /* \"contracts/Vesting.sol\":6370:6380  msg.sender */\n      caller\n        /* \"contracts/Vesting.sol\":6362:6381  claimed[msg.sender] */\n      0xffffffffffffffffffffffffffffffffffffffff\n      and\n      0xffffffffffffffffffffffffffffffffffffffff\n      and\n      dup2\n      mstore\n      0x20\n      add\n      swap1\n      dup2\n      mstore\n      0x20\n      add\n      0x00\n      keccak256\n      sload\n        /* \"contracts/Vesting.sol\":6362:6401  claimed[msg.sender] < currentPercentage */\n      lt\n        /* \"contracts/Vesting.sol\":6354:6466  require(claimed[msg.sender] < currentPercentage, \"ABOAT::claim: Already claimed your currently eligible tokens\") */\n      tag_110\n      jumpi\n      mload(0x40)\n      0x08c379a000000000000000000000000000000000000000000000000000000000\n      dup2\n      mstore\n      0x04\n      add\n      tag_111\n      swap1\n      tag_112\n      jump\t// in\n    tag_111:\n      mload(0x40)\n      dup1\n      swap2\n      sub\n      swap1\n      revert\n    tag_110:\n        /* \"contracts/Vesting.sol\":6481:6505  uint256 currentlyClaimed */\n      0x00\n        /* \"contracts/Vesting.sol\":6508:6515  claimed */\n      0x05\n        /* \"contracts/Vesting.sol\":6508:6527  claimed[msg.sender] */\n      0x00\n        /* \"contracts/Vesting.sol\":6516:6526  msg.sender */\n      caller\n        /* \"contracts/Vesting.sol\":6508:6527  claimed[msg.sender] */\n      0xffffffffffffffffffffffffffffffffffffffff\n      and\n      0xffffffffffffffffffffffffffffffffffffffff\n      and\n      dup2\n      mstore\n      0x20\n      add\n      swap1\n      dup2\n      mstore\n      0x20\n      add\n      0x00\n      keccak256\n      sload\n        /* \"contracts/Vesting.sol\":6481:6527  uint256 currentlyClaimed = claimed[msg.sender] */\n      swap1\n      pop\n        /* \"contracts/Vesting.sol\":6563:6580  currentPercentage */\n      dup2\n        /* \"contracts/Vesting.sol\":6541:6548  claimed */\n      0x05\n        /* \"contracts/Vesting.sol\":6541:6560  claimed[msg.sender] */\n      0x00\n        /* \"contracts/Vesting.sol\":6549:6559  msg.sender */\n      caller\n        /* \"contracts/Vesting.sol\":6541:6560  claimed[msg.sender] */\n      0xffffffffffffffffffffffffffffffffffffffff\n      and\n      0xffffffffffffffffffffffffffffffffffffffff\n      and\n      dup2\n      mstore\n      0x20\n      add\n      swap1\n      dup2\n      mstore\n      0x20\n      add\n      0x00\n      keccak256\n        /* \"contracts/Vesting.sol\":6541:6580  claimed[msg.sender] = currentPercentage */\n      dup2\n      swap1\n      sstore\n      pop\n        /* \"contracts/Vesting.sol\":6594:6608  uint256 amount */\n      0x00\n        /* \"contracts/Vesting.sol\":6611:6684  bought[msg.sender].mul(currentPercentage.sub(currentlyClaimed)).div(1000) */\n      tag_113\n        /* \"contracts/Vesting.sol\":6679:6683  1000 */\n      0x03e8\n        /* \"contracts/Vesting.sol\":6611:6674  bought[msg.sender].mul(currentPercentage.sub(currentlyClaimed)) */\n      tag_114\n        /* \"contracts/Vesting.sol\":6634:6673  currentPercentage.sub(currentlyClaimed) */\n      tag_115\n        /* \"contracts/Vesting.sol\":6656:6672  currentlyClaimed */\n      dup6\n        /* \"contracts/Vesting.sol\":6634:6651  currentPercentage */\n      dup8\n        /* \"contracts/Vesting.sol\":6634:6655  currentPercentage.sub */\n      tag_116\n      swap1\n        /* \"contracts/Vesting.sol\":6634:6673  currentPercentage.sub(currentlyClaimed) */\n      swap2\n      swap1\n      0xffffffff\n      and\n      jump\t// in\n    tag_115:\n        /* \"contracts/Vesting.sol\":6611:6617  bought */\n      0x04\n        /* \"contracts/Vesting.sol\":6611:6629  bought[msg.sender] */\n      0x00\n        /* \"contracts/Vesting.sol\":6618:6628  msg.sender */\n      caller\n        /* \"contracts/Vesting.sol\":6611:6629  bought[msg.sender] */\n      0xffffffffffffffffffffffffffffffffffffffff\n      and\n      0xffffffffffffffffffffffffffffffffffffffff\n      and\n      dup2\n      mstore\n      0x20\n      add\n      swap1\n      dup2\n      mstore\n      0x20\n      add\n      0x00\n      keccak256\n      sload\n        /* \"contracts/Vesting.sol\":6611:6633  bought[msg.sender].mul */\n      tag_117\n      swap1\n        /* \"contracts/Vesting.sol\":6611:6674  bought[msg.sender].mul(currentPercentage.sub(currentlyClaimed)) */\n      swap2\n      swap1\n      0xffffffff\n      and\n      jump\t// in\n    tag_114:\n        /* \"contracts/Vesting.sol\":6611:6678  bought[msg.sender].mul(currentPercentage.sub(currentlyClaimed)).div */\n      tag_118\n      swap1\n        /* \"contracts/Vesting.sol\":6611:6684  bought[msg.sender].mul(currentPercentage.sub(currentlyClaimed)).div(1000) */\n      swap2\n      swap1\n      0xffffffff\n      and\n      jump\t// in\n    tag_113:\n        /* \"contracts/Vesting.sol\":6594:6684  uint256 amount = bought[msg.sender].mul(currentPercentage.sub(currentlyClaimed)).div(1000) */\n      swap1\n      pop\n        /* \"contracts/Vesting.sol\":6726:6763  claimedTokens[msg.sender].add(amount) */\n      tag_119\n        /* \"contracts/Vesting.sol\":6756:6762  amount */\n      dup2\n        /* \"contracts/Vesting.sol\":6726:6739  claimedTokens */\n      0x06\n        /* \"contracts/Vesting.sol\":6726:6751  claimedTokens[msg.sender] */\n      0x00\n        /* \"contracts/Vesting.sol\":6740:6750  msg.sender */\n      caller\n        /* \"contracts/Vesting.sol\":6726:6751  claimedTokens[msg.sender] */\n      0xffffffffffffffffffffffffffffffffffffffff\n      and\n      0xffffffffffffffffffffffffffffffffffffffff\n      and\n      dup2\n      mstore\n      0x20\n      add\n      swap1\n      dup2\n      mstore\n      0x20\n      add\n      0x00\n      keccak256\n      sload\n        /* \"contracts/Vesting.sol\":6726:6755  claimedTokens[msg.sender].add */\n      tag_120\n      swap1\n        /* \"contracts/Vesting.sol\":6726:6763  claimedTokens[msg.sender].add(amount) */\n      swap2\n      swap1\n      0xffffffff\n      and\n      jump\t// in\n    tag_119:\n        /* \"contracts/Vesting.sol\":6698:6711  claimedTokens */\n      0x06\n        /* \"contracts/Vesting.sol\":6698:6723  claimedTokens[msg.sender] */\n      0x00\n        /* \"contracts/Vesting.sol\":6712:6722  msg.sender */\n      caller\n        /* \"contracts/Vesting.sol\":6698:6723  claimedTokens[msg.sender] */\n      0xffffffffffffffffffffffffffffffffffffffff\n      and\n      0xffffffffffffffffffffffffffffffffffffffff\n      and\n      dup2\n      mstore\n      0x20\n      add\n      swap1\n      dup2\n      mstore\n      0x20\n      add\n      0x00\n      keccak256\n        /* \"contracts/Vesting.sol\":6698:6763  claimedTokens[msg.sender] = claimedTokens[msg.sender].add(amount) */\n      dup2\n      swap1\n      sstore\n      pop\n        /* \"contracts/Vesting.sol\":6812:6813  0 */\n      0x00\n        /* \"contracts/Vesting.sol\":6780:6814  address(rewardToken) != address(0) */\n      0xffffffffffffffffffffffffffffffffffffffff\n      and\n        /* \"contracts/Vesting.sol\":6788:6799  rewardToken */\n      0x01\n      0x00\n      swap1\n      sload\n      swap1\n      0x0100\n      exp\n      swap1\n      div\n      0xffffffffffffffffffffffffffffffffffffffff\n      and\n        /* \"contracts/Vesting.sol\":6780:6814  address(rewardToken) != address(0) */\n      0xffffffffffffffffffffffffffffffffffffffff\n      and\n      eq\n        /* \"contracts/Vesting.sol\":6777:7007  if(address(rewardToken) != address(0)) {... */\n      tag_121\n      jumpi\n        /* \"contracts/Vesting.sol\":6834:6903  TransferHelper.safeTransfer(address(rewardToken), msg.sender, amount) */\n      tag_122\n        /* \"contracts/Vesting.sol\":6870:6881  rewardToken */\n      0x01\n      0x00\n      swap1\n      sload\n      swap1\n      0x0100\n      exp\n      swap1\n      div\n      0xffffffffffffffffffffffffffffffffffffffff\n      and\n        /* \"contracts/Vesting.sol\":6884:6894  msg.sender */\n      caller\n        /* \"contracts/Vesting.sol\":6896:6902  amount */\n      dup4\n        /* \"contracts/Vesting.sol\":6834:6861  TransferHelper.safeTransfer */\n      tag_123\n        /* \"contracts/Vesting.sol\":6834:6903  TransferHelper.safeTransfer(address(rewardToken), msg.sender, amount) */\n      jump\t// in\n    tag_122:\n        /* \"contracts/Vesting.sol\":6777:7007  if(address(rewardToken) != address(0)) {... */\n      jump(tag_124)\n    tag_121:\n        /* \"contracts/Vesting.sol\":6942:6992  TransferHelper.safeTransferETH(msg.sender, amount) */\n      tag_125\n        /* \"contracts/Vesting.sol\":6973:6983  msg.sender */\n      caller\n        /* \"contracts/Vesting.sol\":6985:6991  amount */\n      dup3\n        /* \"contracts/Vesting.sol\":6942:6972  TransferHelper.safeTransferETH */\n      tag_126\n        /* \"contracts/Vesting.sol\":6942:6992  TransferHelper.safeTransferETH(msg.sender, amount) */\n      jump\t// in\n    tag_125:\n        /* \"contracts/Vesting.sol\":6777:7007  if(address(rewardToken) != address(0)) {... */\n    tag_124:\n        /* \"contracts/Vesting.sol\":7045:7051  amount */\n      dup1\n        /* \"contracts/Vesting.sol\":7033:7043  msg.sender */\n      caller\n        /* \"contracts/Vesting.sol\":7025:7052  Claimed(msg.sender, amount) */\n      0xffffffffffffffffffffffffffffffffffffffff\n      and\n      0xd8138f8a3f377c5259ca548e70e4c2de94f129f5a11036a15b69513cba2b426a\n      mload(0x40)\n      mload(0x40)\n      dup1\n      swap2\n      sub\n      swap1\n      log3\n        /* \"contracts/Vesting.sol\":5852:7067  {... */\n      pop\n      pop\n      pop\n        /* \"contracts/Vesting.sol\":5828:7067  function claim() public {... */\n      jump\t// out\n        /* \"contracts/Vesting.sol\":4030:4541  function whitelistFromSAFT(address[] memory addresses, uint256[] memory amounts) public onlyOwner {... */\n    tag_42:\n        /* \"@openzeppelin/contracts/access/Ownable.sol\":1196:1208  _msgSender() */\n      tag_128\n        /* \"@openzeppelin/contracts/access/Ownable.sol\":1196:1206  _msgSender */\n      tag_92\n        /* \"@openzeppelin/contracts/access/Ownable.sol\":1196:1208  _msgSender() */\n      jump\t// in\n    tag_128:\n        /* \"@openzeppelin/contracts/access/Ownable.sol\":1185:1208  owner() == _msgSender() */\n      0xffffffffffffffffffffffffffffffffffffffff\n      and\n        /* \"@openzeppelin/contracts/access/Ownable.sol\":1185:1192  owner() */\n      tag_129\n        /* \"@openzeppelin/contracts/access/Ownable.sol\":1185:1190  owner */\n      tag_55\n        /* \"@openzeppelin/contracts/access/Ownable.sol\":1185:1192  owner() */\n      jump\t// in\n    tag_129:\n        /* \"@openzeppelin/contracts/access/Ownable.sol\":1185:1208  owner() == _msgSender() */\n      0xffffffffffffffffffffffffffffffffffffffff\n      and\n      eq\n        /* \"@openzeppelin/contracts/access/Ownable.sol\":1177:1245  require(owner() == _msgSender(), \"Ownable: caller is not the owner\") */\n      tag_130\n      jumpi\n      mload(0x40)\n      0x08c379a000000000000000000000000000000000000000000000000000000000\n      dup2\n      mstore\n      0x04\n      add\n      tag_131\n      swap1\n      tag_96\n      jump\t// in\n    tag_131:\n      mload(0x40)\n      dup1\n      swap2\n      sub\n      swap1\n      revert\n    tag_130:\n        /* \"contracts/Vesting.sol\":4166:4169  100 */\n      0x64\n        /* \"contracts/Vesting.sol\":4146:4155  addresses */\n      dup3\n        /* \"contracts/Vesting.sol\":4146:4162  addresses.length */\n      mload\n        /* \"contracts/Vesting.sol\":4146:4169  addresses.length <= 100 */\n      gt\n      iszero\n        /* \"contracts/Vesting.sol\":4138:4246  require(addresses.length <= 100, \"ABOAT::whitelist: You can't add more than 100 addresses at the same time\") */\n      tag_133\n      jumpi\n      mload(0x40)\n      0x08c379a000000000000000000000000000000000000000000000000000000000\n      dup2\n      mstore\n      0x04\n      add\n      tag_134\n      swap1\n      tag_135\n      jump\t// in\n    tag_134:\n      mload(0x40)\n      dup1\n      swap2\n      sub\n      swap1\n      revert\n    tag_133:\n        /* \"contracts/Vesting.sol\":4260:4270  uint index */\n      0x00\n        /* \"contracts/Vesting.sol\":4256:4478  for(uint index = 0; index < addresses.length; index++) {... */\n    tag_136:\n        /* \"contracts/Vesting.sol\":4284:4293  addresses */\n      dup3\n        /* \"contracts/Vesting.sol\":4284:4300  addresses.length */\n      mload\n        /* \"contracts/Vesting.sol\":4276:4281  index */\n      dup2\n        /* \"contracts/Vesting.sol\":4276:4300  index < addresses.length */\n      lt\n        /* \"contracts/Vesting.sol\":4256:4478  for(uint index = 0; index < addresses.length; index++) {... */\n      iszero\n      tag_137\n      jumpi\n        /* \"contracts/Vesting.sol\":4352:4396  bought[addresses[index]].add(amounts[index]) */\n      tag_139\n        /* \"contracts/Vesting.sol\":4381:4388  amounts */\n      dup3\n        /* \"contracts/Vesting.sol\":4389:4394  index */\n      dup3\n        /* \"contracts/Vesting.sol\":4381:4395  amounts[index] */\n      dup2\n      mload\n      dup2\n      lt\n      tag_140\n      jumpi\n      tag_141\n      tag_142\n      jump\t// in\n    tag_141:\n    tag_140:\n      0x20\n      mul\n      0x20\n      add\n      add\n      mload\n        /* \"contracts/Vesting.sol\":4352:4358  bought */\n      0x04\n        /* \"contracts/Vesting.sol\":4352:4376  bought[addresses[index]] */\n      0x00\n        /* \"contracts/Vesting.sol\":4359:4368  addresses */\n      dup7\n        /* \"contracts/Vesting.sol\":4369:4374  index */\n      dup6\n        /* \"contracts/Vesting.sol\":4359:4375  addresses[index] */\n      dup2\n      mload\n      dup2\n      lt\n      tag_143\n      jumpi\n      tag_144\n      tag_142\n      jump\t// in\n    tag_144:\n    tag_143:\n      0x20\n      mul\n      0x20\n      add\n      add\n      mload\n        /* \"contracts/Vesting.sol\":4352:4376  bought[addresses[index]] */\n      0xffffffffffffffffffffffffffffffffffffffff\n      and\n      0xffffffffffffffffffffffffffffffffffffffff\n      and\n      dup2\n      mstore\n      0x20\n      add\n      swap1\n      dup2\n      mstore\n      0x20\n      add\n      0x00\n      keccak256\n      sload\n        /* \"contracts/Vesting.sol\":4352:4380  bought[addresses[index]].add */\n      tag_120\n      swap1\n        /* \"contracts/Vesting.sol\":4352:4396  bought[addresses[index]].add(amounts[index]) */\n      swap2\n      swap1\n      0xffffffff\n      and\n      jump\t// in\n    tag_139:\n        /* \"contracts/Vesting.sol\":4325:4331  bought */\n      0x04\n        /* \"contracts/Vesting.sol\":4325:4349  bought[addresses[index]] */\n      0x00\n        /* \"contracts/Vesting.sol\":4332:4341  addresses */\n      dup6\n        /* \"contracts/Vesting.sol\":4342:4347  index */\n      dup5\n        /* \"contracts/Vesting.sol\":4332:4348  addresses[index] */\n      dup2\n      mload\n      dup2\n      lt\n      tag_145\n      jumpi\n      tag_146\n      tag_142\n      jump\t// in\n    tag_146:\n    tag_145:\n      0x20\n      mul\n      0x20\n      add\n      add\n      mload\n        /* \"contracts/Vesting.sol\":4325:4349  bought[addresses[index]] */\n      0xffffffffffffffffffffffffffffffffffffffff\n      and\n      0xffffffffffffffffffffffffffffffffffffffff\n      and\n      dup2\n      mstore\n      0x20\n      add\n      swap1\n      dup2\n      mstore\n      0x20\n      add\n      0x00\n      keccak256\n        /* \"contracts/Vesting.sol\":4325:4396  bought[addresses[index]] = bought[addresses[index]].add(amounts[index]) */\n      dup2\n      swap1\n      sstore\n      pop\n        /* \"contracts/Vesting.sol\":4455:4466  rewardToken */\n      0x01\n      0x00\n      swap1\n      sload\n      swap1\n      0x0100\n      exp\n      swap1\n      div\n      0xffffffffffffffffffffffffffffffffffffffff\n      and\n        /* \"contracts/Vesting.sol\":4410:4426  lastClaimAddress */\n      0x07\n        /* \"contracts/Vesting.sol\":4410:4444  lastClaimAddress[addresses[index]] */\n      0x00\n        /* \"contracts/Vesting.sol\":4427:4436  addresses */\n      dup6\n        /* \"contracts/Vesting.sol\":4437:4442  index */\n      dup5\n        /* \"contracts/Vesting.sol\":4427:4443  addresses[index] */\n      dup2\n      mload\n      dup2\n      lt\n      tag_147\n      jumpi\n      tag_148\n      tag_142\n      jump\t// in\n    tag_148:\n    tag_147:\n      0x20\n      mul\n      0x20\n      add\n      add\n      mload\n        /* \"contracts/Vesting.sol\":4410:4444  lastClaimAddress[addresses[index]] */\n      0xffffffffffffffffffffffffffffffffffffffff\n      and\n      0xffffffffffffffffffffffffffffffffffffffff\n      and\n      dup2\n      mstore\n      0x20\n      add\n      swap1\n      dup2\n      mstore\n      0x20\n      add\n      0x00\n      keccak256\n      0x00\n        /* \"contracts/Vesting.sol\":4410:4467  lastClaimAddress[addresses[index]] = address(rewardToken) */\n      0x0100\n      exp\n      dup2\n      sload\n      dup2\n      0xffffffffffffffffffffffffffffffffffffffff\n      mul\n      not\n      and\n      swap1\n      dup4\n      0xffffffffffffffffffffffffffffffffffffffff\n      and\n      mul\n      or\n      swap1\n      sstore\n      pop\n        /* \"contracts/Vesting.sol\":4302:4309  index++ */\n      dup1\n      dup1\n      tag_149\n      swap1\n      tag_150\n      jump\t// in\n    tag_149:\n      swap2\n      pop\n      pop\n        /* \"contracts/Vesting.sol\":4256:4478  for(uint index = 0; index < addresses.length; index++) {... */\n      jump(tag_136)\n    tag_137:\n      pop\n        /* \"contracts/Vesting.sol\":4517:4526  addresses */\n      dup2\n        /* \"contracts/Vesting.sol\":4517:4533  addresses.length */\n      mload\n        /* \"contracts/Vesting.sol\":4492:4534  AddedToWhitelistFromSaft(addresses.length) */\n      0x6074084f4dbd9879d266f074be61eb039a0db2aa46e98e700223ad5c2bef5bd5\n      mload(0x40)\n      mload(0x40)\n      dup1\n      swap2\n      sub\n      swap1\n      log2\n        /* \"contracts/Vesting.sol\":4030:4541  function whitelistFromSAFT(address[] memory addresses, uint256[] memory amounts) public onlyOwner {... */\n      pop\n      pop\n      jump\t// out\n        /* \"contracts/Vesting.sol\":1496:1537  mapping(address => uint256) public bought */\n    tag_46:\n      mstore(0x20, 0x04)\n      dup1\n      0x00\n      mstore\n      keccak256(0x00, 0x40)\n      0x00\n      swap2\n      pop\n      swap1\n      pop\n      sload\n      dup2\n      jump\t// out\n        /* \"@openzeppelin/contracts/access/Ownable.sol\":1605:1697  function renounceOwnership() public virtual onlyOwner {... */\n    tag_49:\n        /* \"@openzeppelin/contracts/access/Ownable.sol\":1196:1208  _msgSender() */\n      tag_152\n        /* \"@openzeppelin/contracts/access/Ownable.sol\":1196:1206  _msgSender */\n      tag_92\n        /* \"@openzeppelin/contracts/access/Ownable.sol\":1196:1208  _msgSender() */\n      jump\t// in\n    tag_152:\n        /* \"@openzeppelin/contracts/access/Ownable.sol\":1185:1208  owner() == _msgSender() */\n      0xffffffffffffffffffffffffffffffffffffffff\n      and\n        /* \"@openzeppelin/contracts/access/Ownable.sol\":1185:1192  owner() */\n      tag_153\n        /* \"@openzeppelin/contracts/access/Ownable.sol\":1185:1190  owner */\n      tag_55\n        /* \"@openzeppelin/contracts/access/Ownable.sol\":1185:1192  owner() */\n      jump\t// in\n    tag_153:\n        /* \"@openzeppelin/contracts/access/Ownable.sol\":1185:1208  owner() == _msgSender() */\n      0xffffffffffffffffffffffffffffffffffffffff\n      and\n      eq\n        /* \"@openzeppelin/contracts/access/Ownable.sol\":1177:1245  require(owner() == _msgSender(), \"Ownable: caller is not the owner\") */\n      tag_154\n      jumpi\n      mload(0x40)\n      0x08c379a000000000000000000000000000000000000000000000000000000000\n      dup2\n      mstore\n      0x04\n      add\n      tag_155\n      swap1\n      tag_96\n      jump\t// in\n    tag_155:\n      mload(0x40)\n      dup1\n      swap2\n      sub\n      swap1\n      revert\n    tag_154:\n        /* \"@openzeppelin/contracts/access/Ownable.sol\":1669:1690  _setOwner(address(0)) */\n      tag_157\n        /* \"@openzeppelin/contracts/access/Ownable.sol\":1687:1688  0 */\n      0x00\n        /* \"@openzeppelin/contracts/access/Ownable.sol\":1669:1678  _setOwner */\n      tag_158\n        /* \"@openzeppelin/contracts/access/Ownable.sol\":1669:1690  _setOwner(address(0)) */\n      jump\t// in\n    tag_157:\n        /* \"@openzeppelin/contracts/access/Ownable.sol\":1605:1697  function renounceOwnership() public virtual onlyOwner {... */\n      jump\t// out\n        /* \"contracts/Vesting.sol\":1382:1417  bool public requireWhitelist = true */\n    tag_51:\n      0x03\n      0x00\n      swap1\n      sload\n      swap1\n      0x0100\n      exp\n      swap1\n      div\n      0xff\n      and\n      dup2\n      jump\t// out\n        /* \"@openzeppelin/contracts/access/Ownable.sol\":973:1058  function owner() public view virtual returns (address) {... */\n    tag_55:\n        /* \"@openzeppelin/contracts/access/Ownable.sol\":1019:1026  address */\n      0x00\n        /* \"@openzeppelin/contracts/access/Ownable.sol\":1045:1051  _owner */\n      dup1\n      0x00\n      swap1\n      sload\n      swap1\n      0x0100\n      exp\n      swap1\n      div\n      0xffffffffffffffffffffffffffffffffffffffff\n      and\n        /* \"@openzeppelin/contracts/access/Ownable.sol\":1038:1051  return _owner */\n      swap1\n      pop\n        /* \"@openzeppelin/contracts/access/Ownable.sol\":973:1058  function owner() public view virtual returns (address) {... */\n      swap1\n      jump\t// out\n        /* \"contracts/Vesting.sol\":4870:5362  function getCurrentPercentage() public view returns (uint256) {... */\n    tag_59:\n        /* \"contracts/Vesting.sol\":4923:4930  uint256 */\n      0x00\n        /* \"contracts/Vesting.sol\":4942:4960  uint256 cliffEnded */\n      dup1\n        /* \"contracts/Vesting.sol\":4963:4989  claimOpen.add(cliffPeriod) */\n      tag_161\n        /* \"contracts/Vesting.sol\":1294:1296  10 */\n      0x0a\n        /* \"contracts/Vesting.sol\":4963:4972  claimOpen */\n      sload(0x02)\n        /* \"contracts/Vesting.sol\":4963:4976  claimOpen.add */\n      tag_120\n      swap1\n        /* \"contracts/Vesting.sol\":4963:4989  claimOpen.add(cliffPeriod) */\n      swap2\n      swap1\n      0xffffffff\n      and\n      jump\t// in\n    tag_161:\n        /* \"contracts/Vesting.sol\":4942:4989  uint256 cliffEnded = claimOpen.add(cliffPeriod) */\n      swap1\n      pop\n        /* \"contracts/Vesting.sol\":4999:5018  uint256 deltaPeriod */\n      0x00\n        /* \"contracts/Vesting.sol\":5021:5031  cliffEnded */\n      dup2\n        /* \"contracts/Vesting.sol\":4999:5031  uint256 deltaPeriod = cliffEnded */\n      swap1\n      pop\n        /* \"contracts/Vesting.sol\":5041:5059  uint256 percentage */\n      0x00\n        /* \"contracts/Vesting.sol\":5074:5075  0 */\n      dup1\n        /* \"contracts/Vesting.sol\":5062:5071  claimOpen */\n      sload(0x02)\n        /* \"contracts/Vesting.sol\":5062:5075  claimOpen > 0 */\n      gt\n        /* \"contracts/Vesting.sol\":5062:5108  claimOpen > 0 && block.timestamp > deltaPeriod */\n      dup1\n      iszero\n      tag_162\n      jumpi\n      pop\n        /* \"contracts/Vesting.sol\":5097:5108  deltaPeriod */\n      dup2\n        /* \"contracts/Vesting.sol\":5079:5094  block.timestamp */\n      timestamp\n        /* \"contracts/Vesting.sol\":5079:5108  block.timestamp > deltaPeriod */\n      gt\n        /* \"contracts/Vesting.sol\":5062:5108  claimOpen > 0 && block.timestamp > deltaPeriod */\n    tag_162:\n        /* \"contracts/Vesting.sol\":5062:5301  claimOpen > 0 && block.timestamp > deltaPeriod... */\n      tag_163\n      jumpi\n        /* \"contracts/Vesting.sol\":1046:1049  100 */\n      0x64\n        /* \"contracts/Vesting.sol\":5062:5301  claimOpen > 0 && block.timestamp > deltaPeriod... */\n      jump(tag_164)\n    tag_163:\n        /* \"contracts/Vesting.sol\":5119:5267  block.timestamp.sub(deltaPeriod)... */\n      tag_165\n        /* \"contracts/Vesting.sol\":1046:1049  100 */\n      0x64\n        /* \"contracts/Vesting.sol\":5119:5226  block.timestamp.sub(deltaPeriod)... */\n      tag_166\n        /* \"contracts/Vesting.sol\":1170:1172  50 */\n      0x32\n        /* \"contracts/Vesting.sol\":5119:5188  block.timestamp.sub(deltaPeriod)... */\n      tag_167\n        /* \"contracts/Vesting.sol\":5178:5187  1 minutes */\n      0x3c\n        /* \"contracts/Vesting.sol\":950:951  2 */\n      0x02\n        /* \"contracts/Vesting.sol\":5169:5187  period * 1 minutes */\n      tag_168\n      swap2\n      swap1\n      tag_169\n      jump\t// in\n    tag_168:\n        /* \"contracts/Vesting.sol\":5119:5151  block.timestamp.sub(deltaPeriod) */\n      tag_170\n        /* \"contracts/Vesting.sol\":5139:5150  deltaPeriod */\n      dup9\n        /* \"contracts/Vesting.sol\":5119:5134  block.timestamp */\n      timestamp\n        /* \"contracts/Vesting.sol\":5119:5138  block.timestamp.sub */\n      tag_116\n      swap1\n        /* \"contracts/Vesting.sol\":5119:5151  block.timestamp.sub(deltaPeriod) */\n      swap2\n      swap1\n      0xffffffff\n      and\n      jump\t// in\n    tag_170:\n        /* \"contracts/Vesting.sol\":5119:5168  block.timestamp.sub(deltaPeriod)... */\n      tag_118\n      swap1\n        /* \"contracts/Vesting.sol\":5119:5188  block.timestamp.sub(deltaPeriod)... */\n      swap2\n      swap1\n      0xffffffff\n      and\n      jump\t// in\n    tag_167:\n        /* \"contracts/Vesting.sol\":5119:5205  block.timestamp.sub(deltaPeriod)... */\n      tag_117\n      swap1\n        /* \"contracts/Vesting.sol\":5119:5226  block.timestamp.sub(deltaPeriod)... */\n      swap2\n      swap1\n      0xffffffff\n      and\n      jump\t// in\n    tag_166:\n        /* \"contracts/Vesting.sol\":5119:5243  block.timestamp.sub(deltaPeriod)... */\n      tag_120\n      swap1\n        /* \"contracts/Vesting.sol\":5119:5267  block.timestamp.sub(deltaPeriod)... */\n      swap2\n      swap1\n      0xffffffff\n      and\n      jump\t// in\n    tag_165:\n        /* \"contracts/Vesting.sol\":5062:5301  claimOpen > 0 && block.timestamp > deltaPeriod... */\n    tag_164:\n        /* \"contracts/Vesting.sol\":5041:5301  uint256 percentage = claimOpen > 0 && block.timestamp > deltaPeriod... */\n      swap1\n      pop\n        /* \"contracts/Vesting.sol\":5331:5335  1000 */\n      0x03e8\n        /* \"contracts/Vesting.sol\":5318:5328  percentage */\n      dup2\n        /* \"contracts/Vesting.sol\":5318:5335  percentage > 1000 */\n      gt\n        /* \"contracts/Vesting.sol\":5318:5355  percentage > 1000 ? 1000 : percentage */\n      tag_171\n      jumpi\n        /* \"contracts/Vesting.sol\":5345:5355  percentage */\n      dup1\n        /* \"contracts/Vesting.sol\":5318:5355  percentage > 1000 ? 1000 : percentage */\n      jump(tag_172)\n    tag_171:\n        /* \"contracts/Vesting.sol\":5338:5342  1000 */\n      0x03e8\n        /* \"contracts/Vesting.sol\":5318:5355  percentage > 1000 ? 1000 : percentage */\n    tag_172:\n        /* \"contracts/Vesting.sol\":5311:5355  return percentage > 1000 ? 1000 : percentage */\n      swap4\n      pop\n      pop\n      pop\n      pop\n        /* \"contracts/Vesting.sol\":4870:5362  function getCurrentPercentage() public view returns (uint256) {... */\n      swap1\n      jump\t// out\n        /* \"contracts/Vesting.sol\":997:1049  uint256 constant public initialClaimPercentage = 100 */\n    tag_62:\n        /* \"contracts/Vesting.sol\":1046:1049  100 */\n      0x64\n        /* \"contracts/Vesting.sol\":997:1049  uint256 constant public initialClaimPercentage = 100 */\n      dup2\n      jump\t// out\n        /* \"contracts/Vesting.sol\":1688:1736  mapping(address => uint256) public claimedTokens */\n    tag_66:\n      mstore(0x20, 0x06)\n      dup1\n      0x00\n      mstore\n      keccak256(0x00, 0x40)\n      0x00\n      swap2\n      pop\n      swap1\n      pop\n      sload\n      dup2\n      jump\t// out\n        /* \"contracts/Vesting.sol\":1585:1627  mapping(address => uint256) public claimed */\n    tag_70:\n      mstore(0x20, 0x05)\n      dup1\n      0x00\n      mstore\n      keccak256(0x00, 0x40)\n      0x00\n      swap2\n      pop\n      swap1\n      pop\n      sload\n      dup2\n      jump\t// out\n        /* \"contracts/Vesting.sol\":917:951  uint256 constant public period = 2 */\n    tag_73:\n        /* \"contracts/Vesting.sol\":950:951  2 */\n      0x02\n        /* \"contracts/Vesting.sol\":917:951  uint256 constant public period = 2 */\n      dup2\n      jump\t// out\n        /* \"@openzeppelin/contracts/access/Ownable.sol\":1846:2035  function transferOwnership(address newOwner) public virtual onlyOwner {... */\n    tag_77:\n        /* \"@openzeppelin/contracts/access/Ownable.sol\":1196:1208  _msgSender() */\n      tag_174\n        /* \"@openzeppelin/contracts/access/Ownable.sol\":1196:1206  _msgSender */\n      tag_92\n        /* \"@openzeppelin/contracts/access/Ownable.sol\":1196:1208  _msgSender() */\n      jump\t// in\n    tag_174:\n        /* \"@openzeppelin/contracts/access/Ownable.sol\":1185:1208  owner() == _msgSender() */\n      0xffffffffffffffffffffffffffffffffffffffff\n      and\n        /* \"@openzeppelin/contracts/access/Ownable.sol\":1185:1192  owner() */\n      tag_175\n        /* \"@openzeppelin/contracts/access/Ownable.sol\":1185:1190  owner */\n      tag_55\n        /* \"@openzeppelin/contracts/access/Ownable.sol\":1185:1192  owner() */\n      jump\t// in\n    tag_175:\n        /* \"@openzeppelin/contracts/access/Ownable.sol\":1185:1208  owner() == _msgSender() */\n      0xffffffffffffffffffffffffffffffffffffffff\n      and\n      eq\n        /* \"@openzeppelin/contracts/access/Ownable.sol\":1177:1245  require(owner() == _msgSender(), \"Ownable: caller is not the owner\") */\n      tag_176\n      jumpi\n      mload(0x40)\n      0x08c379a000000000000000000000000000000000000000000000000000000000\n      dup2\n      mstore\n      0x04\n      add\n      tag_177\n      swap1\n      tag_96\n      jump\t// in\n    tag_177:\n      mload(0x40)\n      dup1\n      swap2\n      sub\n      swap1\n      revert\n    tag_176:\n        /* \"@openzeppelin/contracts/access/Ownable.sol\":1954:1955  0 */\n      0x00\n        /* \"@openzeppelin/contracts/access/Ownable.sol\":1934:1956  newOwner != address(0) */\n      0xffffffffffffffffffffffffffffffffffffffff\n      and\n        /* \"@openzeppelin/contracts/access/Ownable.sol\":1934:1942  newOwner */\n      dup2\n        /* \"@openzeppelin/contracts/access/Ownable.sol\":1934:1956  newOwner != address(0) */\n      0xffffffffffffffffffffffffffffffffffffffff\n      and\n      eq\n      iszero\n        /* \"@openzeppelin/contracts/access/Ownable.sol\":1926:1999  require(newOwner != address(0), \"Ownable: new owner is the zero address\") */\n      tag_179\n      jumpi\n      mload(0x40)\n      0x08c379a000000000000000000000000000000000000000000000000000000000\n      dup2\n      mstore\n      0x04\n      add\n      tag_180\n      swap1\n      tag_181\n      jump\t// in\n    tag_180:\n      mload(0x40)\n      dup1\n      swap2\n      sub\n      swap1\n      revert\n    tag_179:\n        /* \"@openzeppelin/contracts/access/Ownable.sol\":2009:2028  _setOwner(newOwner) */\n      tag_182\n        /* \"@openzeppelin/contracts/access/Ownable.sol\":2019:2027  newOwner */\n      dup2\n        /* \"@openzeppelin/contracts/access/Ownable.sol\":2009:2018  _setOwner */\n      tag_158\n        /* \"@openzeppelin/contracts/access/Ownable.sol\":2009:2028  _setOwner(newOwner) */\n      jump\t// in\n    tag_182:\n        /* \"@openzeppelin/contracts/access/Ownable.sol\":1846:2035  function transferOwnership(address newOwner) public virtual onlyOwner {... */\n      pop\n      jump\t// out\n        /* \"contracts/Vesting.sol\":1784:1835  mapping(address => address) public lastClaimAddress */\n    tag_80:\n      mstore(0x20, 0x07)\n      dup1\n      0x00\n      mstore\n      keccak256(0x00, 0x40)\n      0x00\n      swap2\n      pop\n      sload\n      swap1\n      0x0100\n      exp\n      swap1\n      div\n      0xffffffffffffffffffffffffffffffffffffffff\n      and\n      dup2\n      jump\t// out\n        /* \"contracts/Vesting.sol\":838:863  IERC20 public rewardToken */\n    tag_83:\n      0x01\n      0x00\n      swap1\n      sload\n      swap1\n      0x0100\n      exp\n      swap1\n      div\n      0xffffffffffffffffffffffffffffffffffffffff\n      and\n      dup2\n      jump\t// out\n        /* \"contracts/Vesting.sol\":3506:4019  function updateRewardToken(IERC20 _newRewardToken) public onlyOwner {... */\n    tag_89:\n        /* \"@openzeppelin/contracts/access/Ownable.sol\":1196:1208  _msgSender() */\n      tag_184\n        /* \"@openzeppelin/contracts/access/Ownable.sol\":1196:1206  _msgSender */\n      tag_92\n        /* \"@openzeppelin/contracts/access/Ownable.sol\":1196:1208  _msgSender() */\n      jump\t// in\n    tag_184:\n        /* \"@openzeppelin/contracts/access/Ownable.sol\":1185:1208  owner() == _msgSender() */\n      0xffffffffffffffffffffffffffffffffffffffff\n      and\n        /* \"@openzeppelin/contracts/access/Ownable.sol\":1185:1192  owner() */\n      tag_185\n        /* \"@openzeppelin/contracts/access/Ownable.sol\":1185:1190  owner */\n      tag_55\n        /* \"@openzeppelin/contracts/access/Ownable.sol\":1185:1192  owner() */\n      jump\t// in\n    tag_185:\n        /* \"@openzeppelin/contracts/access/Ownable.sol\":1185:1208  owner() == _msgSender() */\n      0xffffffffffffffffffffffffffffffffffffffff\n      and\n      eq\n        /* \"@openzeppelin/contracts/access/Ownable.sol\":1177:1245  require(owner() == _msgSender(), \"Ownable: caller is not the owner\") */\n      tag_186\n      jumpi\n      mload(0x40)\n      0x08c379a000000000000000000000000000000000000000000000000000000000\n      dup2\n      mstore\n      0x04\n      add\n      tag_187\n      swap1\n      tag_96\n      jump\t// in\n    tag_187:\n      mload(0x40)\n      dup1\n      swap2\n      sub\n      swap1\n      revert\n    tag_186:\n        /* \"contracts/Vesting.sol\":3611:3622  rewardToken */\n      0x01\n      0x00\n      swap1\n      sload\n      swap1\n      0x0100\n      exp\n      swap1\n      div\n      0xffffffffffffffffffffffffffffffffffffffff\n      and\n        /* \"contracts/Vesting.sol\":3592:3622  _newRewardToken != rewardToken */\n      0xffffffffffffffffffffffffffffffffffffffff\n      and\n        /* \"contracts/Vesting.sol\":3592:3607  _newRewardToken */\n      dup2\n        /* \"contracts/Vesting.sol\":3592:3622  _newRewardToken != rewardToken */\n      0xffffffffffffffffffffffffffffffffffffffff\n      and\n      eq\n      iszero\n        /* \"contracts/Vesting.sol\":3584:3697  require(_newRewardToken != rewardToken, \"ABOAT::updateRewardToken: New reward should be different from current.\") */\n      tag_189\n      jumpi\n      mload(0x40)\n      0x08c379a000000000000000000000000000000000000000000000000000000000\n      dup2\n      mstore\n      0x04\n      add\n      tag_190\n      swap1\n      tag_191\n      jump\t// in\n    tag_190:\n      mload(0x40)\n      dup1\n      swap2\n      sub\n      swap1\n      revert\n    tag_189:\n        /* \"contracts/Vesting.sol\":3759:3770  rewardToken */\n      0x01\n      0x00\n      swap1\n      sload\n      swap1\n      0x0100\n      exp\n      swap1\n      div\n      0xffffffffffffffffffffffffffffffffffffffff\n      and\n        /* \"contracts/Vesting.sol\":3759:3780  rewardToken.balanceOf */\n      0xffffffffffffffffffffffffffffffffffffffff\n      and\n      0x70a08231\n        /* \"contracts/Vesting.sol\":3789:3793  this */\n      address\n        /* \"contracts/Vesting.sol\":3759:3795  rewardToken.balanceOf(address(this)) */\n      mload(0x40)\n      dup3\n      0xffffffff\n      and\n      0xe0\n      shl\n      dup2\n      mstore\n      0x04\n      add\n      tag_192\n      swap2\n      swap1\n      tag_57\n      jump\t// in\n    tag_192:\n      0x20\n      mload(0x40)\n      dup1\n      dup4\n      sub\n      dup2\n      dup7\n      dup1\n      extcodesize\n      iszero\n      dup1\n      iszero\n      tag_193\n      jumpi\n      0x00\n      dup1\n      revert\n    tag_193:\n      pop\n      gas\n      staticcall\n      iszero\n      dup1\n      iszero\n      tag_195\n      jumpi\n      returndatasize\n      0x00\n      dup1\n      returndatacopy\n      revert(0x00, returndatasize)\n    tag_195:\n      pop\n      pop\n      pop\n      pop\n      mload(0x40)\n      returndatasize\n      not(0x1f)\n      0x1f\n      dup3\n      add\n      and\n      dup3\n      add\n      dup1\n      0x40\n      mstore\n      pop\n      dup2\n      add\n      swap1\n      tag_196\n      swap2\n      swap1\n      tag_197\n      jump\t// in\n    tag_196:\n        /* \"contracts/Vesting.sol\":3715:3730  _newRewardToken */\n      dup2\n        /* \"contracts/Vesting.sol\":3715:3740  _newRewardToken.balanceOf */\n      0xffffffffffffffffffffffffffffffffffffffff\n      and\n      0x70a08231\n        /* \"contracts/Vesting.sol\":3749:3753  this */\n      address\n        /* \"contracts/Vesting.sol\":3715:3755  _newRewardToken.balanceOf(address(this)) */\n      mload(0x40)\n      dup3\n      0xffffffff\n      and\n      0xe0\n      shl\n      dup2\n      mstore\n      0x04\n      add\n      tag_198\n      swap2\n      swap1\n      tag_57\n      jump\t// in\n    tag_198:\n      0x20\n      mload(0x40)\n      dup1\n      dup4\n      sub\n      dup2\n      dup7\n      dup1\n      extcodesize\n      iszero\n      dup1\n      iszero\n      tag_199\n      jumpi\n      0x00\n      dup1\n      revert\n    tag_199:\n      pop\n      gas\n      staticcall\n      iszero\n      dup1\n      iszero\n      tag_201\n      jumpi\n      returndatasize\n      0x00\n      dup1\n      returndatacopy\n      revert(0x00, returndatasize)\n    tag_201:\n      pop\n      pop\n      pop\n      pop\n      mload(0x40)\n      returndatasize\n      not(0x1f)\n      0x1f\n      dup3\n      add\n      and\n      dup3\n      add\n      dup1\n      0x40\n      mstore\n      pop\n      dup2\n      add\n      swap1\n      tag_202\n      swap2\n      swap1\n      tag_197\n      jump\t// in\n    tag_202:\n        /* \"contracts/Vesting.sol\":3715:3795  _newRewardToken.balanceOf(address(this)) == rewardToken.balanceOf(address(this)) */\n      eq\n        /* \"contracts/Vesting.sol\":3707:3919  require(_newRewardToken.balanceOf(address(this)) == rewardToken.balanceOf(address(this)), \"ABOAT::updateRewardToken: The contract should contain atleast the same amount of tokens as from the current rewardToken\") */\n      tag_203\n      jumpi\n      mload(0x40)\n      0x08c379a000000000000000000000000000000000000000000000000000000000\n      dup2\n      mstore\n      0x04\n      add\n      tag_204\n      swap1\n      tag_205\n      jump\t// in\n    tag_204:\n      mload(0x40)\n      dup1\n      swap2\n      sub\n      swap1\n      revert\n    tag_203:\n        /* \"contracts/Vesting.sol\":3943:3958  _newRewardToken */\n      dup1\n        /* \"contracts/Vesting.sol\":3929:3940  rewardToken */\n      0x01\n      0x00\n        /* \"contracts/Vesting.sol\":3929:3958  rewardToken = _newRewardToken */\n      0x0100\n      exp\n      dup2\n      sload\n      dup2\n      0xffffffffffffffffffffffffffffffffffffffff\n      mul\n      not\n      and\n      swap1\n      dup4\n      0xffffffffffffffffffffffffffffffffffffffff\n      and\n      mul\n      or\n      swap1\n      sstore\n      pop\n        /* \"contracts/Vesting.sol\":3999:4010  rewardToken */\n      0x01\n      0x00\n      swap1\n      sload\n      swap1\n      0x0100\n      exp\n      swap1\n      div\n      0xffffffffffffffffffffffffffffffffffffffff\n      and\n        /* \"contracts/Vesting.sol\":3973:4012  ChangeRewardToken(address(rewardToken)) */\n      0xffffffffffffffffffffffffffffffffffffffff\n      and\n      0x3fcfc24a3384ca156092d9242cb0f84abaf442146d91b8c93bea526561b83f83\n      mload(0x40)\n      mload(0x40)\n      dup1\n      swap2\n      sub\n      swap1\n      log2\n        /* \"contracts/Vesting.sol\":3506:4019  function updateRewardToken(IERC20 _newRewardToken) public onlyOwner {... */\n      pop\n      jump\t// out\n        /* \"@openzeppelin/contracts/utils/Context.sol\":586:682  function _msgSender() internal view virtual returns (address) {... */\n    tag_92:\n        /* \"@openzeppelin/contracts/utils/Context.sol\":639:646  address */\n      0x00\n        /* \"@openzeppelin/contracts/utils/Context.sol\":665:675  msg.sender */\n      caller\n        /* \"@openzeppelin/contracts/utils/Context.sol\":658:675  return msg.sender */\n      swap1\n      pop\n        /* \"@openzeppelin/contracts/utils/Context.sol\":586:682  function _msgSender() internal view virtual returns (address) {... */\n      swap1\n      jump\t// out\n        /* \"@openzeppelin/contracts/utils/math/SafeMath.sol\":3039:3135  function sub(uint256 a, uint256 b) internal pure returns (uint256) {... */\n    tag_116:\n        /* \"@openzeppelin/contracts/utils/math/SafeMath.sol\":3097:3104  uint256 */\n      0x00\n        /* \"@openzeppelin/contracts/utils/math/SafeMath.sol\":3127:3128  b */\n      dup2\n        /* \"@openzeppelin/contracts/utils/math/SafeMath.sol\":3123:3124  a */\n      dup4\n        /* \"@openzeppelin/contracts/utils/math/SafeMath.sol\":3123:3128  a - b */\n      tag_208\n      swap2\n      swap1\n      tag_209\n      jump\t// in\n    tag_208:\n        /* \"@openzeppelin/contracts/utils/math/SafeMath.sol\":3116:3128  return a - b */\n      swap1\n      pop\n        /* \"@openzeppelin/contracts/utils/math/SafeMath.sol\":3039:3135  function sub(uint256 a, uint256 b) internal pure returns (uint256) {... */\n      swap3\n      swap2\n      pop\n      pop\n      jump\t// out\n        /* \"@openzeppelin/contracts/utils/math/SafeMath.sol\":3382:3478  function mul(uint256 a, uint256 b) internal pure returns (uint256) {... */\n    tag_117:\n        /* \"@openzeppelin/contracts/utils/math/SafeMath.sol\":3440:3447  uint256 */\n      0x00\n        /* \"@openzeppelin/contracts/utils/math/SafeMath.sol\":3470:3471  b */\n      dup2\n        /* \"@openzeppelin/contracts/utils/math/SafeMath.sol\":3466:3467  a */\n      dup4\n        /* \"@openzeppelin/contracts/utils/math/SafeMath.sol\":3466:3471  a * b */\n      tag_211\n      swap2\n      swap1\n      tag_169\n      jump\t// in\n    tag_211:\n        /* \"@openzeppelin/contracts/utils/math/SafeMath.sol\":3459:3471  return a * b */\n      swap1\n      pop\n        /* \"@openzeppelin/contracts/utils/math/SafeMath.sol\":3382:3478  function mul(uint256 a, uint256 b) internal pure returns (uint256) {... */\n      swap3\n      swap2\n      pop\n      pop\n      jump\t// out\n        /* \"@openzeppelin/contracts/utils/math/SafeMath.sol\":3767:3863  function div(uint256 a, uint256 b) internal pure returns (uint256) {... */\n    tag_118:\n        /* \"@openzeppelin/contracts/utils/math/SafeMath.sol\":3825:3832  uint256 */\n      0x00\n        /* \"@openzeppelin/contracts/utils/math/SafeMath.sol\":3855:3856  b */\n      dup2\n        /* \"@openzeppelin/contracts/utils/math/SafeMath.sol\":3851:3852  a */\n      dup4\n        /* \"@openzeppelin/contracts/utils/math/SafeMath.sol\":3851:3856  a / b */\n      tag_213\n      swap2\n      swap1\n      tag_214\n      jump\t// in\n    tag_213:\n        /* \"@openzeppelin/contracts/utils/math/SafeMath.sol\":3844:3856  return a / b */\n      swap1\n      pop\n        /* \"@openzeppelin/contracts/utils/math/SafeMath.sol\":3767:3863  function div(uint256 a, uint256 b) internal pure returns (uint256) {... */\n      swap3\n      swap2\n      pop\n      pop\n      jump\t// out\n        /* \"@openzeppelin/contracts/utils/math/SafeMath.sol\":2672:2768  function add(uint256 a, uint256 b) internal pure returns (uint256) {... */\n    tag_120:\n        /* \"@openzeppelin/contracts/utils/math/SafeMath.sol\":2730:2737  uint256 */\n      0x00\n        /* \"@openzeppelin/contracts/utils/math/SafeMath.sol\":2760:2761  b */\n      dup2\n        /* \"@openzeppelin/contracts/utils/math/SafeMath.sol\":2756:2757  a */\n      dup4\n        /* \"@openzeppelin/contracts/utils/math/SafeMath.sol\":2756:2761  a + b */\n      tag_216\n      swap2\n      swap1\n      tag_217\n      jump\t// in\n    tag_216:\n        /* \"@openzeppelin/contracts/utils/math/SafeMath.sol\":2749:2761  return a + b */\n      swap1\n      pop\n        /* \"@openzeppelin/contracts/utils/math/SafeMath.sol\":2672:2768  function add(uint256 a, uint256 b) internal pure returns (uint256) {... */\n      swap3\n      swap2\n      pop\n      pop\n      jump\t// out\n        /* \"contracts/libraries/TransferHelper.sol\":210:594  function safeTransfer(... */\n    tag_123:\n        /* \"contracts/libraries/TransferHelper.sol\":324:336  bool success */\n      0x00\n        /* \"contracts/libraries/TransferHelper.sol\":338:355  bytes memory data */\n      dup1\n        /* \"contracts/libraries/TransferHelper.sol\":371:376  token */\n      dup5\n        /* \"contracts/libraries/TransferHelper.sol\":371:381  token.call */\n      0xffffffffffffffffffffffffffffffffffffffff\n      and\n        /* \"contracts/libraries/TransferHelper.sol\":405:415  0xa9059cbb */\n      0xa9059cbb\n        /* \"contracts/libraries/TransferHelper.sol\":417:419  to */\n      dup6\n        /* \"contracts/libraries/TransferHelper.sol\":421:426  value */\n      dup6\n        /* \"contracts/libraries/TransferHelper.sol\":382:427  abi.encodeWithSelector(0xa9059cbb, to, value) */\n      add(0x24, mload(0x40))\n      tag_219\n      swap3\n      swap2\n      swap1\n      tag_220\n      jump\t// in\n    tag_219:\n      mload(0x40)\n      0x20\n      dup2\n      dup4\n      sub\n      sub\n      dup2\n      mstore\n      swap1\n      0x40\n      mstore\n      swap1\n      0xe0\n      shl\n      0x20\n      dup3\n      add\n      dup1\n      mload\n      0xffffffffffffffffffffffffffffffffffffffffffffffffffffffff\n      dup4\n      dup2\n      dup4\n      and\n      or\n      dup4\n      mstore\n      pop\n      pop\n      pop\n      pop\n        /* \"contracts/libraries/TransferHelper.sol\":371:428  token.call(abi.encodeWithSelector(0xa9059cbb, to, value)) */\n      mload(0x40)\n      tag_221\n      swap2\n      swap1\n      tag_222\n      jump\t// in\n    tag_221:\n      0x00\n      mload(0x40)\n      dup1\n      dup4\n      sub\n      dup2\n      0x00\n      dup7\n      gas\n      call\n      swap2\n      pop\n      pop\n      returndatasize\n      dup1\n      0x00\n      dup2\n      eq\n      tag_225\n      jumpi\n      mload(0x40)\n      swap2\n      pop\n      and(add(returndatasize, 0x3f), not(0x1f))\n      dup3\n      add\n      0x40\n      mstore\n      returndatasize\n      dup3\n      mstore\n      returndatasize\n      0x00\n      0x20\n      dup5\n      add\n      returndatacopy\n      jump(tag_224)\n    tag_225:\n      0x60\n      swap2\n      pop\n    tag_224:\n      pop\n        /* \"contracts/libraries/TransferHelper.sol\":323:428  (bool success, bytes memory data) =... */\n      swap2\n      pop\n      swap2\n      pop\n        /* \"contracts/libraries/TransferHelper.sol\":459:466  success */\n      dup2\n        /* \"contracts/libraries/TransferHelper.sol\":459:516  success && (data.length == 0 || abi.decode(data, (bool))) */\n      dup1\n      iszero\n      tag_226\n      jumpi\n      pop\n        /* \"contracts/libraries/TransferHelper.sol\":486:487  0 */\n      0x00\n        /* \"contracts/libraries/TransferHelper.sol\":471:475  data */\n      dup2\n        /* \"contracts/libraries/TransferHelper.sol\":471:482  data.length */\n      mload\n        /* \"contracts/libraries/TransferHelper.sol\":471:487  data.length == 0 */\n      eq\n        /* \"contracts/libraries/TransferHelper.sol\":471:515  data.length == 0 || abi.decode(data, (bool)) */\n      dup1\n      tag_227\n      jumpi\n      pop\n        /* \"contracts/libraries/TransferHelper.sol\":502:506  data */\n      dup1\n        /* \"contracts/libraries/TransferHelper.sol\":491:515  abi.decode(data, (bool)) */\n      dup1\n      0x20\n      add\n      swap1\n      mload\n      dup2\n      add\n      swap1\n      tag_228\n      swap2\n      swap1\n      tag_229\n      jump\t// in\n    tag_228:\n        /* \"contracts/libraries/TransferHelper.sol\":471:515  data.length == 0 || abi.decode(data, (bool)) */\n    tag_227:\n        /* \"contracts/libraries/TransferHelper.sol\":459:516  success && (data.length == 0 || abi.decode(data, (bool))) */\n    tag_226:\n        /* \"contracts/libraries/TransferHelper.sol\":438:587  require(... */\n      tag_230\n      jumpi\n      mload(0x40)\n      0x08c379a000000000000000000000000000000000000000000000000000000000\n      dup2\n      mstore\n      0x04\n      add\n      tag_231\n      swap1\n      tag_232\n      jump\t// in\n    tag_231:\n      mload(0x40)\n      dup1\n      swap2\n      sub\n      swap1\n      revert\n    tag_230:\n        /* \"contracts/libraries/TransferHelper.sol\":313:594  {... */\n      pop\n      pop\n        /* \"contracts/libraries/TransferHelper.sol\":210:594  function safeTransfer(... */\n      pop\n      pop\n      pop\n      jump\t// out\n        /* \"contracts/libraries/TransferHelper.sol\":1026:1274  function safeTransferETH(address to, uint256 value) internal {... */\n    tag_126:\n        /* \"contracts/libraries/TransferHelper.sol\":1098:1110  bool success */\n      0x00\n        /* \"contracts/libraries/TransferHelper.sol\":1116:1118  to */\n      dup3\n        /* \"contracts/libraries/TransferHelper.sol\":1116:1123  to.call */\n      0xffffffffffffffffffffffffffffffffffffffff\n      and\n        /* \"contracts/libraries/TransferHelper.sol\":1131:1136  value */\n      dup3\n        /* \"contracts/libraries/TransferHelper.sol\":1148:1149  0 */\n      0x00\n        /* \"contracts/libraries/TransferHelper.sol\":1138:1150  new bytes(0) */\n      0xffffffffffffffff\n      dup2\n      gt\n      iszero\n      tag_234\n      jumpi\n      tag_235\n      tag_236\n      jump\t// in\n    tag_235:\n    tag_234:\n      mload(0x40)\n      swap1\n      dup1\n      dup3\n      mstore\n      dup1\n      0x1f\n      add\n      not(0x1f)\n      and\n      0x20\n      add\n      dup3\n      add\n      0x40\n      mstore\n      dup1\n      iszero\n      tag_237\n      jumpi\n      dup2\n      0x20\n      add\n      0x01\n      dup3\n      mul\n      dup1\n      calldatasize\n      dup4\n      calldatacopy\n      dup1\n      dup3\n      add\n      swap2\n      pop\n      pop\n      swap1\n      pop\n    tag_237:\n      pop\n        /* \"contracts/libraries/TransferHelper.sol\":1116:1151  to.call{value: value}(new bytes(0)) */\n      mload(0x40)\n      tag_238\n      swap2\n      swap1\n      tag_222\n      jump\t// in\n    tag_238:\n      0x00\n      mload(0x40)\n      dup1\n      dup4\n      sub\n      dup2\n      dup6\n      dup8\n      gas\n      call\n      swap3\n      pop\n      pop\n      pop\n      returndatasize\n      dup1\n      0x00\n      dup2\n      eq\n      tag_241\n      jumpi\n      mload(0x40)\n      swap2\n      pop\n      and(add(returndatasize, 0x3f), not(0x1f))\n      dup3\n      add\n      0x40\n      mstore\n      returndatasize\n      dup3\n      mstore\n      returndatasize\n      0x00\n      0x20\n      dup5\n      add\n      returndatacopy\n      jump(tag_240)\n    tag_241:\n      0x60\n      swap2\n      pop\n    tag_240:\n      pop\n        /* \"contracts/libraries/TransferHelper.sol\":1097:1151  (bool success, ) = to.call{value: value}(new bytes(0)) */\n      pop\n      swap1\n      pop\n        /* \"contracts/libraries/TransferHelper.sol\":1182:1189  success */\n      dup1\n        /* \"contracts/libraries/TransferHelper.sol\":1161:1267  require(... */\n      tag_242\n      jumpi\n      mload(0x40)\n      0x08c379a000000000000000000000000000000000000000000000000000000000\n      dup2\n      mstore\n      0x04\n      add\n      tag_243\n      swap1\n      tag_244\n      jump\t// in\n    tag_243:\n      mload(0x40)\n      dup1\n      swap2\n      sub\n      swap1\n      revert\n    tag_242:\n        /* \"contracts/libraries/TransferHelper.sol\":1087:1274  {... */\n      pop\n        /* \"contracts/libraries/TransferHelper.sol\":1026:1274  function safeTransferETH(address to, uint256 value) internal {... */\n      pop\n      pop\n      jump\t// out\n        /* \"@openzeppelin/contracts/access/Ownable.sol\":2041:2210  function _setOwner(address newOwner) private {... */\n    tag_158:\n        /* \"@openzeppelin/contracts/access/Ownable.sol\":2096:2112  address oldOwner */\n      0x00\n        /* \"@openzeppelin/contracts/access/Ownable.sol\":2115:2121  _owner */\n      dup1\n      0x00\n      swap1\n      sload\n      swap1\n      0x0100\n      exp\n      swap1\n      div\n      0xffffffffffffffffffffffffffffffffffffffff\n      and\n        /* \"@openzeppelin/contracts/access/Ownable.sol\":2096:2121  address oldOwner = _owner */\n      swap1\n      pop\n        /* \"@openzeppelin/contracts/access/Ownable.sol\":2140:2148  newOwner */\n      dup2\n        /* \"@openzeppelin/contracts/access/Ownable.sol\":2131:2137  _owner */\n      0x00\n      dup1\n        /* \"@openzeppelin/contracts/access/Ownable.sol\":2131:2148  _owner = newOwner */\n      0x0100\n      exp\n      dup2\n      sload\n      dup2\n      0xffffffffffffffffffffffffffffffffffffffff\n      mul\n      not\n      and\n      swap1\n      dup4\n      0xffffffffffffffffffffffffffffffffffffffff\n      and\n      mul\n      or\n      swap1\n      sstore\n      pop\n        /* \"@openzeppelin/contracts/access/Ownable.sol\":2194:2202  newOwner */\n      dup2\n        /* \"@openzeppelin/contracts/access/Ownable.sol\":2163:2203  OwnershipTransferred(oldOwner, newOwner) */\n      0xffffffffffffffffffffffffffffffffffffffff\n      and\n        /* \"@openzeppelin/contracts/access/Ownable.sol\":2184:2192  oldOwner */\n      dup2\n        /* \"@openzeppelin/contracts/access/Ownable.sol\":2163:2203  OwnershipTransferred(oldOwner, newOwner) */\n      0xffffffffffffffffffffffffffffffffffffffff\n      and\n      0x8be0079c531659141344cd1fd0a4f28419497f9722a3daafe3b4186f6b6457e0\n      mload(0x40)\n      mload(0x40)\n      dup1\n      swap2\n      sub\n      swap1\n      log3\n        /* \"@openzeppelin/contracts/access/Ownable.sol\":2086:2210  {... */\n      pop\n        /* \"@openzeppelin/contracts/access/Ownable.sol\":2041:2210  function _setOwner(address newOwner) private {... */\n      pop\n      jump\t// out\n        /* \"#utility.yul\":24:746   */\n    tag_247:\n        /* \"#utility.yul\":120:125   */\n      0x00\n        /* \"#utility.yul\":145:226   */\n      tag_249\n        /* \"#utility.yul\":161:225   */\n      tag_250\n        /* \"#utility.yul\":218:224   */\n      dup5\n        /* \"#utility.yul\":161:225   */\n      tag_251\n      jump\t// in\n    tag_250:\n        /* \"#utility.yul\":145:226   */\n      tag_252\n      jump\t// in\n    tag_249:\n        /* \"#utility.yul\":136:226   */\n      swap1\n      pop\n        /* \"#utility.yul\":246:251   */\n      dup1\n        /* \"#utility.yul\":275:281   */\n      dup4\n        /* \"#utility.yul\":268:273   */\n      dup3\n        /* \"#utility.yul\":261:282   */\n      mstore\n        /* \"#utility.yul\":309:313   */\n      0x20\n        /* \"#utility.yul\":302:307   */\n      dup3\n        /* \"#utility.yul\":298:314   */\n      add\n        /* \"#utility.yul\":291:314   */\n      swap1\n      pop\n        /* \"#utility.yul\":335:341   */\n      dup3\n        /* \"#utility.yul\":385:388   */\n      dup6\n        /* \"#utility.yul\":377:381   */\n      0x20\n        /* \"#utility.yul\":369:375   */\n      dup7\n        /* \"#utility.yul\":365:382   */\n      mul\n        /* \"#utility.yul\":360:363   */\n      dup3\n        /* \"#utility.yul\":356:383   */\n      add\n        /* \"#utility.yul\":353:389   */\n      gt\n        /* \"#utility.yul\":350:493   */\n      iszero\n      tag_253\n      jumpi\n        /* \"#utility.yul\":404:483   */\n      tag_254\n      tag_255\n      jump\t// in\n    tag_254:\n        /* \"#utility.yul\":350:493   */\n    tag_253:\n        /* \"#utility.yul\":517:518   */\n      0x00\n        /* \"#utility.yul\":502:740   */\n    tag_256:\n        /* \"#utility.yul\":527:533   */\n      dup6\n        /* \"#utility.yul\":524:525   */\n      dup2\n        /* \"#utility.yul\":521:534   */\n      lt\n        /* \"#utility.yul\":502:740   */\n      iszero\n      tag_258\n      jumpi\n        /* \"#utility.yul\":595:598   */\n      dup2\n        /* \"#utility.yul\":624:661   */\n      tag_259\n        /* \"#utility.yul\":657:660   */\n      dup9\n        /* \"#utility.yul\":645:655   */\n      dup3\n        /* \"#utility.yul\":624:661   */\n      tag_260\n      jump\t// in\n    tag_259:\n        /* \"#utility.yul\":619:622   */\n      dup5\n        /* \"#utility.yul\":612:662   */\n      mstore\n        /* \"#utility.yul\":691:695   */\n      0x20\n        /* \"#utility.yul\":686:689   */\n      dup5\n        /* \"#utility.yul\":682:696   */\n      add\n        /* \"#utility.yul\":675:696   */\n      swap4\n      pop\n        /* \"#utility.yul\":725:729   */\n      0x20\n        /* \"#utility.yul\":720:723   */\n      dup4\n        /* \"#utility.yul\":716:730   */\n      add\n        /* \"#utility.yul\":709:730   */\n      swap3\n      pop\n        /* \"#utility.yul\":562:740   */\n      pop\n        /* \"#utility.yul\":549:550   */\n      0x01\n        /* \"#utility.yul\":546:547   */\n      dup2\n        /* \"#utility.yul\":542:551   */\n      add\n        /* \"#utility.yul\":537:551   */\n      swap1\n      pop\n        /* \"#utility.yul\":502:740   */\n      jump(tag_256)\n    tag_258:\n        /* \"#utility.yul\":506:520   */\n      pop\n        /* \"#utility.yul\":126:746   */\n      pop\n      pop\n        /* \"#utility.yul\":24:746   */\n      swap4\n      swap3\n      pop\n      pop\n      pop\n      jump\t// out\n        /* \"#utility.yul\":769:1491   */\n    tag_261:\n        /* \"#utility.yul\":865:870   */\n      0x00\n        /* \"#utility.yul\":890:971   */\n      tag_263\n        /* \"#utility.yul\":906:970   */\n      tag_264\n        /* \"#utility.yul\":963:969   */\n      dup5\n        /* \"#utility.yul\":906:970   */\n      tag_265\n      jump\t// in\n    tag_264:\n        /* \"#utility.yul\":890:971   */\n      tag_252\n      jump\t// in\n    tag_263:\n        /* \"#utility.yul\":881:971   */\n      swap1\n      pop\n        /* \"#utility.yul\":991:996   */\n      dup1\n        /* \"#utility.yul\":1020:1026   */\n      dup4\n        /* \"#utility.yul\":1013:1018   */\n      dup3\n        /* \"#utility.yul\":1006:1027   */\n      mstore\n        /* \"#utility.yul\":1054:1058   */\n      0x20\n        /* \"#utility.yul\":1047:1052   */\n      dup3\n        /* \"#utility.yul\":1043:1059   */\n      add\n        /* \"#utility.yul\":1036:1059   */\n      swap1\n      pop\n        /* \"#utility.yul\":1080:1086   */\n      dup3\n        /* \"#utility.yul\":1130:1133   */\n      dup6\n        /* \"#utility.yul\":1122:1126   */\n      0x20\n        /* \"#utility.yul\":1114:1120   */\n      dup7\n        /* \"#utility.yul\":1110:1127   */\n      mul\n        /* \"#utility.yul\":1105:1108   */\n      dup3\n        /* \"#utility.yul\":1101:1128   */\n      add\n        /* \"#utility.yul\":1098:1134   */\n      gt\n        /* \"#utility.yul\":1095:1238   */\n      iszero\n      tag_266\n      jumpi\n        /* \"#utility.yul\":1149:1228   */\n      tag_267\n      tag_255\n      jump\t// in\n    tag_267:\n        /* \"#utility.yul\":1095:1238   */\n    tag_266:\n        /* \"#utility.yul\":1262:1263   */\n      0x00\n        /* \"#utility.yul\":1247:1485   */\n    tag_268:\n        /* \"#utility.yul\":1272:1278   */\n      dup6\n        /* \"#utility.yul\":1269:1270   */\n      dup2\n        /* \"#utility.yul\":1266:1279   */\n      lt\n        /* \"#utility.yul\":1247:1485   */\n      iszero\n      tag_270\n      jumpi\n        /* \"#utility.yul\":1340:1343   */\n      dup2\n        /* \"#utility.yul\":1369:1406   */\n      tag_271\n        /* \"#utility.yul\":1402:1405   */\n      dup9\n        /* \"#utility.yul\":1390:1400   */\n      dup3\n        /* \"#utility.yul\":1369:1406   */\n      tag_272\n      jump\t// in\n    tag_271:\n        /* \"#utility.yul\":1364:1367   */\n      dup5\n        /* \"#utility.yul\":1357:1407   */\n      mstore\n        /* \"#utility.yul\":1436:1440   */\n      0x20\n        /* \"#utility.yul\":1431:1434   */\n      dup5\n        /* \"#utility.yul\":1427:1441   */\n      add\n        /* \"#utility.yul\":1420:1441   */\n      swap4\n      pop\n        /* \"#utility.yul\":1470:1474   */\n      0x20\n        /* \"#utility.yul\":1465:1468   */\n      dup4\n        /* \"#utility.yul\":1461:1475   */\n      add\n        /* \"#utility.yul\":1454:1475   */\n      swap3\n      pop\n        /* \"#utility.yul\":1307:1485   */\n      pop\n        /* \"#utility.yul\":1294:1295   */\n      0x01\n        /* \"#utility.yul\":1291:1292   */\n      dup2\n        /* \"#utility.yul\":1287:1296   */\n      add\n        /* \"#utility.yul\":1282:1296   */\n      swap1\n      pop\n        /* \"#utility.yul\":1247:1485   */\n      jump(tag_268)\n    tag_270:\n        /* \"#utility.yul\":1251:1265   */\n      pop\n        /* \"#utility.yul\":871:1491   */\n      pop\n      pop\n        /* \"#utility.yul\":769:1491   */\n      swap4\n      swap3\n      pop\n      pop\n      pop\n      jump\t// out\n        /* \"#utility.yul\":1497:1636   */\n    tag_260:\n        /* \"#utility.yul\":1543:1548   */\n      0x00\n        /* \"#utility.yul\":1581:1587   */\n      dup2\n        /* \"#utility.yul\":1568:1588   */\n      calldataload\n        /* \"#utility.yul\":1559:1588   */\n      swap1\n      pop\n        /* \"#utility.yul\":1597:1630   */\n      tag_274\n        /* \"#utility.yul\":1624:1629   */\n      dup2\n        /* \"#utility.yul\":1597:1630   */\n      tag_275\n      jump\t// in\n    tag_274:\n        /* \"#utility.yul\":1497:1636   */\n      swap3\n      swap2\n      pop\n      pop\n      jump\t// out\n        /* \"#utility.yul\":1659:2029   */\n    tag_276:\n        /* \"#utility.yul\":1730:1735   */\n      0x00\n        /* \"#utility.yul\":1779:1782   */\n      dup3\n        /* \"#utility.yul\":1772:1776   */\n      0x1f\n        /* \"#utility.yul\":1764:1770   */\n      dup4\n        /* \"#utility.yul\":1760:1777   */\n      add\n        /* \"#utility.yul\":1756:1783   */\n      slt\n        /* \"#utility.yul\":1746:1868   */\n      tag_278\n      jumpi\n        /* \"#utility.yul\":1787:1866   */\n      tag_279\n      tag_280\n      jump\t// in\n    tag_279:\n        /* \"#utility.yul\":1746:1868   */\n    tag_278:\n        /* \"#utility.yul\":1904:1910   */\n      dup2\n        /* \"#utility.yul\":1891:1911   */\n      calldataload\n        /* \"#utility.yul\":1929:2023   */\n      tag_281\n        /* \"#utility.yul\":2019:2022   */\n      dup5\n        /* \"#utility.yul\":2011:2017   */\n      dup3\n        /* \"#utility.yul\":2004:2008   */\n      0x20\n        /* \"#utility.yul\":1996:2002   */\n      dup7\n        /* \"#utility.yul\":1992:2009   */\n      add\n        /* \"#utility.yul\":1929:2023   */\n      tag_247\n      jump\t// in\n    tag_281:\n        /* \"#utility.yul\":1920:2023   */\n      swap2\n      pop\n        /* \"#utility.yul\":1736:2029   */\n      pop\n        /* \"#utility.yul\":1659:2029   */\n      swap3\n      swap2\n      pop\n      pop\n      jump\t// out\n        /* \"#utility.yul\":2052:2422   */\n    tag_282:\n        /* \"#utility.yul\":2123:2128   */\n      0x00\n        /* \"#utility.yul\":2172:2175   */\n      dup3\n        /* \"#utility.yul\":2165:2169   */\n      0x1f\n        /* \"#utility.yul\":2157:2163   */\n      dup4\n        /* \"#utility.yul\":2153:2170   */\n      add\n        /* \"#utility.yul\":2149:2176   */\n      slt\n        /* \"#utility.yul\":2139:2261   */\n      tag_284\n      jumpi\n        /* \"#utility.yul\":2180:2259   */\n      tag_285\n      tag_280\n      jump\t// in\n    tag_285:\n        /* \"#utility.yul\":2139:2261   */\n    tag_284:\n        /* \"#utility.yul\":2297:2303   */\n      dup2\n        /* \"#utility.yul\":2284:2304   */\n      calldataload\n        /* \"#utility.yul\":2322:2416   */\n      tag_286\n        /* \"#utility.yul\":2412:2415   */\n      dup5\n        /* \"#utility.yul\":2404:2410   */\n      dup3\n        /* \"#utility.yul\":2397:2401   */\n      0x20\n        /* \"#utility.yul\":2389:2395   */\n      dup7\n        /* \"#utility.yul\":2385:2402   */\n      add\n        /* \"#utility.yul\":2322:2416   */\n      tag_261\n      jump\t// in\n    tag_286:\n        /* \"#utility.yul\":2313:2416   */\n      swap2\n      pop\n        /* \"#utility.yul\":2129:2422   */\n      pop\n        /* \"#utility.yul\":2052:2422   */\n      swap3\n      swap2\n      pop\n      pop\n      jump\t// out\n        /* \"#utility.yul\":2428:2565   */\n    tag_287:\n        /* \"#utility.yul\":2482:2487   */\n      0x00\n        /* \"#utility.yul\":2513:2519   */\n      dup2\n        /* \"#utility.yul\":2507:2520   */\n      mload\n        /* \"#utility.yul\":2498:2520   */\n      swap1\n      pop\n        /* \"#utility.yul\":2529:2559   */\n      tag_289\n        /* \"#utility.yul\":2553:2558   */\n      dup2\n        /* \"#utility.yul\":2529:2559   */\n      tag_290\n      jump\t// in\n    tag_289:\n        /* \"#utility.yul\":2428:2565   */\n      swap3\n      swap2\n      pop\n      pop\n      jump\t// out\n        /* \"#utility.yul\":2571:2738   */\n    tag_291:\n        /* \"#utility.yul\":2631:2636   */\n      0x00\n        /* \"#utility.yul\":2669:2675   */\n      dup2\n        /* \"#utility.yul\":2656:2676   */\n      calldataload\n        /* \"#utility.yul\":2647:2676   */\n      swap1\n      pop\n        /* \"#utility.yul\":2685:2732   */\n      tag_293\n        /* \"#utility.yul\":2726:2731   */\n      dup2\n        /* \"#utility.yul\":2685:2732   */\n      tag_294\n      jump\t// in\n    tag_293:\n        /* \"#utility.yul\":2571:2738   */\n      swap3\n      swap2\n      pop\n      pop\n      jump\t// out\n        /* \"#utility.yul\":2744:2883   */\n    tag_272:\n        /* \"#utility.yul\":2790:2795   */\n      0x00\n        /* \"#utility.yul\":2828:2834   */\n      dup2\n        /* \"#utility.yul\":2815:2835   */\n      calldataload\n        /* \"#utility.yul\":2806:2835   */\n      swap1\n      pop\n        /* \"#utility.yul\":2844:2877   */\n      tag_296\n        /* \"#utility.yul\":2871:2876   */\n      dup2\n        /* \"#utility.yul\":2844:2877   */\n      tag_297\n      jump\t// in\n    tag_296:\n        /* \"#utility.yul\":2744:2883   */\n      swap3\n      swap2\n      pop\n      pop\n      jump\t// out\n        /* \"#utility.yul\":2889:3032   */\n    tag_298:\n        /* \"#utility.yul\":2946:2951   */\n      0x00\n        /* \"#utility.yul\":2977:2983   */\n      dup2\n        /* \"#utility.yul\":2971:2984   */\n      mload\n        /* \"#utility.yul\":2962:2984   */\n      swap1\n      pop\n        /* \"#utility.yul\":2993:3026   */\n      tag_300\n        /* \"#utility.yul\":3020:3025   */\n      dup2\n        /* \"#utility.yul\":2993:3026   */\n      tag_297\n      jump\t// in\n    tag_300:\n        /* \"#utility.yul\":2889:3032   */\n      swap3\n      swap2\n      pop\n      pop\n      jump\t// out\n        /* \"#utility.yul\":3038:3367   */\n    tag_45:\n        /* \"#utility.yul\":3097:3103   */\n      0x00\n        /* \"#utility.yul\":3146:3148   */\n      0x20\n        /* \"#utility.yul\":3134:3143   */\n      dup3\n        /* \"#utility.yul\":3125:3132   */\n      dup5\n        /* \"#utility.yul\":3121:3144   */\n      sub\n        /* \"#utility.yul\":3117:3149   */\n      slt\n        /* \"#utility.yul\":3114:3233   */\n      iszero\n      tag_302\n      jumpi\n        /* \"#utility.yul\":3152:3231   */\n      tag_303\n      tag_304\n      jump\t// in\n    tag_303:\n        /* \"#utility.yul\":3114:3233   */\n    tag_302:\n        /* \"#utility.yul\":3272:3273   */\n      0x00\n        /* \"#utility.yul\":3297:3350   */\n      tag_305\n        /* \"#utility.yul\":3342:3349   */\n      dup5\n        /* \"#utility.yul\":3333:3339   */\n      dup3\n        /* \"#utility.yul\":3322:3331   */\n      dup6\n        /* \"#utility.yul\":3318:3340   */\n      add\n        /* \"#utility.yul\":3297:3350   */\n      tag_260\n      jump\t// in\n    tag_305:\n        /* \"#utility.yul\":3287:3350   */\n      swap2\n      pop\n        /* \"#utility.yul\":3243:3360   */\n      pop\n        /* \"#utility.yul\":3038:3367   */\n      swap3\n      swap2\n      pop\n      pop\n      jump\t// out\n        /* \"#utility.yul\":3373:4267   */\n    tag_41:\n        /* \"#utility.yul\":3491:3497   */\n      0x00\n        /* \"#utility.yul\":3499:3505   */\n      dup1\n        /* \"#utility.yul\":3548:3550   */\n      0x40\n        /* \"#utility.yul\":3536:3545   */\n      dup4\n        /* \"#utility.yul\":3527:3534   */\n      dup6\n        /* \"#utility.yul\":3523:3546   */\n      sub\n        /* \"#utility.yul\":3519:3551   */\n      slt\n        /* \"#utility.yul\":3516:3635   */\n      iszero\n      tag_307\n      jumpi\n        /* \"#utility.yul\":3554:3633   */\n      tag_308\n      tag_304\n      jump\t// in\n    tag_308:\n        /* \"#utility.yul\":3516:3635   */\n    tag_307:\n        /* \"#utility.yul\":3702:3703   */\n      0x00\n        /* \"#utility.yul\":3691:3700   */\n      dup4\n        /* \"#utility.yul\":3687:3704   */\n      add\n        /* \"#utility.yul\":3674:3705   */\n      calldataload\n        /* \"#utility.yul\":3732:3750   */\n      0xffffffffffffffff\n        /* \"#utility.yul\":3724:3730   */\n      dup2\n        /* \"#utility.yul\":3721:3751   */\n      gt\n        /* \"#utility.yul\":3718:3835   */\n      iszero\n      tag_309\n      jumpi\n        /* \"#utility.yul\":3754:3833   */\n      tag_310\n      tag_311\n      jump\t// in\n    tag_310:\n        /* \"#utility.yul\":3718:3835   */\n    tag_309:\n        /* \"#utility.yul\":3859:3937   */\n      tag_312\n        /* \"#utility.yul\":3929:3936   */\n      dup6\n        /* \"#utility.yul\":3920:3926   */\n      dup3\n        /* \"#utility.yul\":3909:3918   */\n      dup7\n        /* \"#utility.yul\":3905:3927   */\n      add\n        /* \"#utility.yul\":3859:3937   */\n      tag_276\n      jump\t// in\n    tag_312:\n        /* \"#utility.yul\":3849:3937   */\n      swap3\n      pop\n        /* \"#utility.yul\":3645:3947   */\n      pop\n        /* \"#utility.yul\":4014:4016   */\n      0x20\n        /* \"#utility.yul\":4003:4012   */\n      dup4\n        /* \"#utility.yul\":3999:4017   */\n      add\n        /* \"#utility.yul\":3986:4018   */\n      calldataload\n        /* \"#utility.yul\":4045:4063   */\n      0xffffffffffffffff\n        /* \"#utility.yul\":4037:4043   */\n      dup2\n        /* \"#utility.yul\":4034:4064   */\n      gt\n        /* \"#utility.yul\":4031:4148   */\n      iszero\n      tag_313\n      jumpi\n        /* \"#utility.yul\":4067:4146   */\n      tag_314\n      tag_311\n      jump\t// in\n    tag_314:\n        /* \"#utility.yul\":4031:4148   */\n    tag_313:\n        /* \"#utility.yul\":4172:4250   */\n      tag_315\n        /* \"#utility.yul\":4242:4249   */\n      dup6\n        /* \"#utility.yul\":4233:4239   */\n      dup3\n        /* \"#utility.yul\":4222:4231   */\n      dup7\n        /* \"#utility.yul\":4218:4240   */\n      add\n        /* \"#utility.yul\":4172:4250   */\n      tag_282\n      jump\t// in\n    tag_315:\n        /* \"#utility.yul\":4162:4250   */\n      swap2\n      pop\n        /* \"#utility.yul\":3957:4260   */\n      pop\n        /* \"#utility.yul\":3373:4267   */\n      swap3\n      pop\n      swap3\n      swap1\n      pop\n      jump\t// out\n        /* \"#utility.yul\":4273:4618   */\n    tag_229:\n        /* \"#utility.yul\":4340:4346   */\n      0x00\n        /* \"#utility.yul\":4389:4391   */\n      0x20\n        /* \"#utility.yul\":4377:4386   */\n      dup3\n        /* \"#utility.yul\":4368:4375   */\n      dup5\n        /* \"#utility.yul\":4364:4387   */\n      sub\n        /* \"#utility.yul\":4360:4392   */\n      slt\n        /* \"#utility.yul\":4357:4476   */\n      iszero\n      tag_317\n      jumpi\n        /* \"#utility.yul\":4395:4474   */\n      tag_318\n      tag_304\n      jump\t// in\n    tag_318:\n        /* \"#utility.yul\":4357:4476   */\n    tag_317:\n        /* \"#utility.yul\":4515:4516   */\n      0x00\n        /* \"#utility.yul\":4540:4601   */\n      tag_319\n        /* \"#utility.yul\":4593:4600   */\n      dup5\n        /* \"#utility.yul\":4584:4590   */\n      dup3\n        /* \"#utility.yul\":4573:4582   */\n      dup6\n        /* \"#utility.yul\":4569:4591   */\n      add\n        /* \"#utility.yul\":4540:4601   */\n      tag_287\n      jump\t// in\n    tag_319:\n        /* \"#utility.yul\":4530:4601   */\n      swap2\n      pop\n        /* \"#utility.yul\":4486:4611   */\n      pop\n        /* \"#utility.yul\":4273:4618   */\n      swap3\n      swap2\n      pop\n      pop\n      jump\t// out\n        /* \"#utility.yul\":4624:4981   */\n    tag_88:\n        /* \"#utility.yul\":4697:4703   */\n      0x00\n        /* \"#utility.yul\":4746:4748   */\n      0x20\n        /* \"#utility.yul\":4734:4743   */\n      dup3\n        /* \"#utility.yul\":4725:4732   */\n      dup5\n        /* \"#utility.yul\":4721:4744   */\n      sub\n        /* \"#utility.yul\":4717:4749   */\n      slt\n        /* \"#utility.yul\":4714:4833   */\n      iszero\n      tag_321\n      jumpi\n        /* \"#utility.yul\":4752:4831   */\n      tag_322\n      tag_304\n      jump\t// in\n    tag_322:\n        /* \"#utility.yul\":4714:4833   */\n    tag_321:\n        /* \"#utility.yul\":4872:4873   */\n      0x00\n        /* \"#utility.yul\":4897:4964   */\n      tag_323\n        /* \"#utility.yul\":4956:4963   */\n      dup5\n        /* \"#utility.yul\":4947:4953   */\n      dup3\n        /* \"#utility.yul\":4936:4945   */\n      dup6\n        /* \"#utility.yul\":4932:4954   */\n      add\n        /* \"#utility.yul\":4897:4964   */\n      tag_291\n      jump\t// in\n    tag_323:\n        /* \"#utility.yul\":4887:4964   */\n      swap2\n      pop\n        /* \"#utility.yul\":4843:4974   */\n      pop\n        /* \"#utility.yul\":4624:4981   */\n      swap3\n      swap2\n      pop\n      pop\n      jump\t// out\n        /* \"#utility.yul\":4987:5338   */\n    tag_197:\n        /* \"#utility.yul\":5057:5063   */\n      0x00\n        /* \"#utility.yul\":5106:5108   */\n      0x20\n        /* \"#utility.yul\":5094:5103   */\n      dup3\n        /* \"#utility.yul\":5085:5092   */\n      dup5\n        /* \"#utility.yul\":5081:5104   */\n      sub\n        /* \"#utility.yul\":5077:5109   */\n      slt\n        /* \"#utility.yul\":5074:5193   */\n      iszero\n      tag_325\n      jumpi\n        /* \"#utility.yul\":5112:5191   */\n      tag_326\n      tag_304\n      jump\t// in\n    tag_326:\n        /* \"#utility.yul\":5074:5193   */\n    tag_325:\n        /* \"#utility.yul\":5232:5233   */\n      0x00\n        /* \"#utility.yul\":5257:5321   */\n      tag_327\n        /* \"#utility.yul\":5313:5320   */\n      dup5\n        /* \"#utility.yul\":5304:5310   */\n      dup3\n        /* \"#utility.yul\":5293:5302   */\n      dup6\n        /* \"#utility.yul\":5289:5311   */\n      add\n        /* \"#utility.yul\":5257:5321   */\n      tag_298\n      jump\t// in\n    tag_327:\n        /* \"#utility.yul\":5247:5321   */\n      swap2\n      pop\n        /* \"#utility.yul\":5203:5331   */\n      pop\n        /* \"#utility.yul\":4987:5338   */\n      swap3\n      swap2\n      pop\n      pop\n      jump\t// out\n        /* \"#utility.yul\":5344:5462   */\n    tag_328:\n        /* \"#utility.yul\":5431:5455   */\n      tag_330\n        /* \"#utility.yul\":5449:5454   */\n      dup2\n        /* \"#utility.yul\":5431:5455   */\n      tag_331\n      jump\t// in\n    tag_330:\n        /* \"#utility.yul\":5426:5429   */\n      dup3\n        /* \"#utility.yul\":5419:5456   */\n      mstore\n        /* \"#utility.yul\":5344:5462   */\n      pop\n      pop\n      jump\t// out\n        /* \"#utility.yul\":5468:5577   */\n    tag_332:\n        /* \"#utility.yul\":5549:5570   */\n      tag_334\n        /* \"#utility.yul\":5564:5569   */\n      dup2\n        /* \"#utility.yul\":5549:5570   */\n      tag_335\n      jump\t// in\n    tag_334:\n        /* \"#utility.yul\":5544:5547   */\n      dup3\n        /* \"#utility.yul\":5537:5571   */\n      mstore\n        /* \"#utility.yul\":5468:5577   */\n      pop\n      pop\n      jump\t// out\n        /* \"#utility.yul\":5583:5956   */\n    tag_336:\n        /* \"#utility.yul\":5687:5690   */\n      0x00\n        /* \"#utility.yul\":5715:5753   */\n      tag_338\n        /* \"#utility.yul\":5747:5752   */\n      dup3\n        /* \"#utility.yul\":5715:5753   */\n      tag_339\n      jump\t// in\n    tag_338:\n        /* \"#utility.yul\":5769:5857   */\n      tag_340\n        /* \"#utility.yul\":5850:5856   */\n      dup2\n        /* \"#utility.yul\":5845:5848   */\n      dup6\n        /* \"#utility.yul\":5769:5857   */\n      tag_341\n      jump\t// in\n    tag_340:\n        /* \"#utility.yul\":5762:5857   */\n      swap4\n      pop\n        /* \"#utility.yul\":5866:5918   */\n      tag_342\n        /* \"#utility.yul\":5911:5917   */\n      dup2\n        /* \"#utility.yul\":5906:5909   */\n      dup6\n        /* \"#utility.yul\":5899:5903   */\n      0x20\n        /* \"#utility.yul\":5892:5897   */\n      dup7\n        /* \"#utility.yul\":5888:5904   */\n      add\n        /* \"#utility.yul\":5866:5918   */\n      tag_343\n      jump\t// in\n    tag_342:\n        /* \"#utility.yul\":5943:5949   */\n      dup1\n        /* \"#utility.yul\":5938:5941   */\n      dup5\n        /* \"#utility.yul\":5934:5950   */\n      add\n        /* \"#utility.yul\":5927:5950   */\n      swap2\n      pop\n        /* \"#utility.yul\":5691:5956   */\n      pop\n        /* \"#utility.yul\":5583:5956   */\n      swap3\n      swap2\n      pop\n      pop\n      jump\t// out\n        /* \"#utility.yul\":5962:6121   */\n    tag_344:\n        /* \"#utility.yul\":6063:6114   */\n      tag_346\n        /* \"#utility.yul\":6108:6113   */\n      dup2\n        /* \"#utility.yul\":6063:6114   */\n      tag_347\n      jump\t// in\n    tag_346:\n        /* \"#utility.yul\":6058:6061   */\n      dup3\n        /* \"#utility.yul\":6051:6115   */\n      mstore\n        /* \"#utility.yul\":5962:6121   */\n      pop\n      pop\n      jump\t// out\n        /* \"#utility.yul\":6127:6493   */\n    tag_348:\n        /* \"#utility.yul\":6269:6272   */\n      0x00\n        /* \"#utility.yul\":6290:6357   */\n      tag_350\n        /* \"#utility.yul\":6354:6356   */\n      0x26\n        /* \"#utility.yul\":6349:6352   */\n      dup4\n        /* \"#utility.yul\":6290:6357   */\n      tag_351\n      jump\t// in\n    tag_350:\n        /* \"#utility.yul\":6283:6357   */\n      swap2\n      pop\n        /* \"#utility.yul\":6366:6459   */\n      tag_352\n        /* \"#utility.yul\":6455:6458   */\n      dup3\n        /* \"#utility.yul\":6366:6459   */\n      tag_353\n      jump\t// in\n    tag_352:\n        /* \"#utility.yul\":6484:6486   */\n      0x40\n        /* \"#utility.yul\":6479:6482   */\n      dup3\n        /* \"#utility.yul\":6475:6487   */\n      add\n        /* \"#utility.yul\":6468:6487   */\n      swap1\n      pop\n        /* \"#utility.yul\":6127:6493   */\n      swap2\n      swap1\n      pop\n      jump\t// out\n        /* \"#utility.yul\":6499:6865   */\n    tag_354:\n        /* \"#utility.yul\":6641:6644   */\n      0x00\n        /* \"#utility.yul\":6662:6729   */\n      tag_356\n        /* \"#utility.yul\":6726:6728   */\n      0x24\n        /* \"#utility.yul\":6721:6724   */\n      dup4\n        /* \"#utility.yul\":6662:6729   */\n      tag_351\n      jump\t// in\n    tag_356:\n        /* \"#utility.yul\":6655:6729   */\n      swap2\n      pop\n        /* \"#utility.yul\":6738:6831   */\n      tag_357\n        /* \"#utility.yul\":6827:6830   */\n      dup3\n        /* \"#utility.yul\":6738:6831   */\n      tag_358\n      jump\t// in\n    tag_357:\n        /* \"#utility.yul\":6856:6858   */\n      0x40\n        /* \"#utility.yul\":6851:6854   */\n      dup3\n        /* \"#utility.yul\":6847:6859   */\n      add\n        /* \"#utility.yul\":6840:6859   */\n      swap1\n      pop\n        /* \"#utility.yul\":6499:6865   */\n      swap2\n      swap1\n      pop\n      jump\t// out\n        /* \"#utility.yul\":6871:7237   */\n    tag_359:\n        /* \"#utility.yul\":7013:7016   */\n      0x00\n        /* \"#utility.yul\":7034:7101   */\n      tag_361\n        /* \"#utility.yul\":7098:7100   */\n      0x34\n        /* \"#utility.yul\":7093:7096   */\n      dup4\n        /* \"#utility.yul\":7034:7101   */\n      tag_351\n      jump\t// in\n    tag_361:\n        /* \"#utility.yul\":7027:7101   */\n      swap2\n      pop\n        /* \"#utility.yul\":7110:7203   */\n      tag_362\n        /* \"#utility.yul\":7199:7202   */\n      dup3\n        /* \"#utility.yul\":7110:7203   */\n      tag_363\n      jump\t// in\n    tag_362:\n        /* \"#utility.yul\":7228:7230   */\n      0x40\n        /* \"#utility.yul\":7223:7226   */\n      dup3\n        /* \"#utility.yul\":7219:7231   */\n      add\n        /* \"#utility.yul\":7212:7231   */\n      swap1\n      pop\n        /* \"#utility.yul\":6871:7237   */\n      swap2\n      swap1\n      pop\n      jump\t// out\n        /* \"#utility.yul\":7243:7609   */\n    tag_364:\n        /* \"#utility.yul\":7385:7388   */\n      0x00\n        /* \"#utility.yul\":7406:7473   */\n      tag_366\n        /* \"#utility.yul\":7470:7472   */\n      0x3c\n        /* \"#utility.yul\":7465:7468   */\n      dup4\n        /* \"#utility.yul\":7406:7473   */\n      tag_351\n      jump\t// in\n    tag_366:\n        /* \"#utility.yul\":7399:7473   */\n      swap2\n      pop\n        /* \"#utility.yul\":7482:7575   */\n      tag_367\n        /* \"#utility.yul\":7571:7574   */\n      dup3\n        /* \"#utility.yul\":7482:7575   */\n      tag_368\n      jump\t// in\n    tag_367:\n        /* \"#utility.yul\":7600:7602   */\n      0x40\n        /* \"#utility.yul\":7595:7598   */\n      dup3\n        /* \"#utility.yul\":7591:7603   */\n      add\n        /* \"#utility.yul\":7584:7603   */\n      swap1\n      pop\n        /* \"#utility.yul\":7243:7609   */\n      swap2\n      swap1\n      pop\n      jump\t// out\n        /* \"#utility.yul\":7615:7981   */\n    tag_369:\n        /* \"#utility.yul\":7757:7760   */\n      0x00\n        /* \"#utility.yul\":7778:7845   */\n      tag_371\n        /* \"#utility.yul\":7842:7844   */\n      0x48\n        /* \"#utility.yul\":7837:7840   */\n      dup4\n        /* \"#utility.yul\":7778:7845   */\n      tag_351\n      jump\t// in\n    tag_371:\n        /* \"#utility.yul\":7771:7845   */\n      swap2\n      pop\n        /* \"#utility.yul\":7854:7947   */\n      tag_372\n        /* \"#utility.yul\":7943:7946   */\n      dup3\n        /* \"#utility.yul\":7854:7947   */\n      tag_373\n      jump\t// in\n    tag_372:\n        /* \"#utility.yul\":7972:7974   */\n      0x60\n        /* \"#utility.yul\":7967:7970   */\n      dup3\n        /* \"#utility.yul\":7963:7975   */\n      add\n        /* \"#utility.yul\":7956:7975   */\n      swap1\n      pop\n        /* \"#utility.yul\":7615:7981   */\n      swap2\n      swap1\n      pop\n      jump\t// out\n        /* \"#utility.yul\":7987:8353   */\n    tag_374:\n        /* \"#utility.yul\":8129:8132   */\n      0x00\n        /* \"#utility.yul\":8150:8217   */\n      tag_376\n        /* \"#utility.yul\":8214:8216   */\n      0x46\n        /* \"#utility.yul\":8209:8212   */\n      dup4\n        /* \"#utility.yul\":8150:8217   */\n      tag_351\n      jump\t// in\n    tag_376:\n        /* \"#utility.yul\":8143:8217   */\n      swap2\n      pop\n        /* \"#utility.yul\":8226:8319   */\n      tag_377\n        /* \"#utility.yul\":8315:8318   */\n      dup3\n        /* \"#utility.yul\":8226:8319   */\n      tag_378\n      jump\t// in\n    tag_377:\n        /* \"#utility.yul\":8344:8346   */\n      0x60\n        /* \"#utility.yul\":8339:8342   */\n      dup3\n        /* \"#utility.yul\":8335:8347   */\n      add\n        /* \"#utility.yul\":8328:8347   */\n      swap1\n      pop\n        /* \"#utility.yul\":7987:8353   */\n      swap2\n      swap1\n      pop\n      jump\t// out\n        /* \"#utility.yul\":8359:8725   */\n    tag_379:\n        /* \"#utility.yul\":8501:8504   */\n      0x00\n        /* \"#utility.yul\":8522:8589   */\n      tag_381\n        /* \"#utility.yul\":8586:8588   */\n      0x5d\n        /* \"#utility.yul\":8581:8584   */\n      dup4\n        /* \"#utility.yul\":8522:8589   */\n      tag_351\n      jump\t// in\n    tag_381:\n        /* \"#utility.yul\":8515:8589   */\n      swap2\n      pop\n        /* \"#utility.yul\":8598:8691   */\n      tag_382\n        /* \"#utility.yul\":8687:8690   */\n      dup3\n        /* \"#utility.yul\":8598:8691   */\n      tag_383\n      jump\t// in\n    tag_382:\n        /* \"#utility.yul\":8716:8718   */\n      0x60\n        /* \"#utility.yul\":8711:8714   */\n      dup3\n        /* \"#utility.yul\":8707:8719   */\n      add\n        /* \"#utility.yul\":8700:8719   */\n      swap1\n      pop\n        /* \"#utility.yul\":8359:8725   */\n      swap2\n      swap1\n      pop\n      jump\t// out\n        /* \"#utility.yul\":8731:9097   */\n    tag_384:\n        /* \"#utility.yul\":8873:8876   */\n      0x00\n        /* \"#utility.yul\":8894:8961   */\n      tag_386\n        /* \"#utility.yul\":8958:8960   */\n      0x17\n        /* \"#utility.yul\":8953:8956   */\n      dup4\n        /* \"#utility.yul\":8894:8961   */\n      tag_351\n      jump\t// in\n    tag_386:\n        /* \"#utility.yul\":8887:8961   */\n      swap2\n      pop\n        /* \"#utility.yul\":8970:9063   */\n      tag_387\n        /* \"#utility.yul\":9059:9062   */\n      dup3\n        /* \"#utility.yul\":8970:9063   */\n      tag_388\n      jump\t// in\n    tag_387:\n        /* \"#utility.yul\":9088:9090   */\n      0x20\n        /* \"#utility.yul\":9083:9086   */\n      dup3\n        /* \"#utility.yul\":9079:9091   */\n      add\n        /* \"#utility.yul\":9072:9091   */\n      swap1\n      pop\n        /* \"#utility.yul\":8731:9097   */\n      swap2\n      swap1\n      pop\n      jump\t// out\n        /* \"#utility.yul\":9103:9471   */\n    tag_389:\n        /* \"#utility.yul\":9245:9248   */\n      0x00\n        /* \"#utility.yul\":9266:9334   */\n      tag_391\n        /* \"#utility.yul\":9330:9333   */\n      0x77\n        /* \"#utility.yul\":9325:9328   */\n      dup4\n        /* \"#utility.yul\":9266:9334   */\n      tag_351\n      jump\t// in\n    tag_391:\n        /* \"#utility.yul\":9259:9334   */\n      swap2\n      pop\n        /* \"#utility.yul\":9343:9436   */\n      tag_392\n        /* \"#utility.yul\":9432:9435   */\n      dup3\n        /* \"#utility.yul\":9343:9436   */\n      tag_393\n      jump\t// in\n    tag_392:\n        /* \"#utility.yul\":9461:9464   */\n      0x80\n        /* \"#utility.yul\":9456:9459   */\n      dup3\n        /* \"#utility.yul\":9452:9465   */\n      add\n        /* \"#utility.yul\":9445:9465   */\n      swap1\n      pop\n        /* \"#utility.yul\":9103:9471   */\n      swap2\n      swap1\n      pop\n      jump\t// out\n        /* \"#utility.yul\":9477:9843   */\n    tag_394:\n        /* \"#utility.yul\":9619:9622   */\n      0x00\n        /* \"#utility.yul\":9640:9707   */\n      tag_396\n        /* \"#utility.yul\":9704:9706   */\n      0x20\n        /* \"#utility.yul\":9699:9702   */\n      dup4\n        /* \"#utility.yul\":9640:9707   */\n      tag_351\n      jump\t// in\n    tag_396:\n        /* \"#utility.yul\":9633:9707   */\n      swap2\n      pop\n        /* \"#utility.yul\":9716:9809   */\n      tag_397\n        /* \"#utility.yul\":9805:9808   */\n      dup3\n        /* \"#utility.yul\":9716:9809   */\n      tag_398\n      jump\t// in\n    tag_397:\n        /* \"#utility.yul\":9834:9836   */\n      0x20\n        /* \"#utility.yul\":9829:9832   */\n      dup3\n        /* \"#utility.yul\":9825:9837   */\n      add\n        /* \"#utility.yul\":9818:9837   */\n      swap1\n      pop\n        /* \"#utility.yul\":9477:9843   */\n      swap2\n      swap1\n      pop\n      jump\t// out\n        /* \"#utility.yul\":9849:10215   */\n    tag_399:\n        /* \"#utility.yul\":9991:9994   */\n      0x00\n        /* \"#utility.yul\":10012:10079   */\n      tag_401\n        /* \"#utility.yul\":10076:10078   */\n      0x2d\n        /* \"#utility.yul\":10071:10074   */\n      dup4\n        /* \"#utility.yul\":10012:10079   */\n      tag_351\n      jump\t// in\n    tag_401:\n        /* \"#utility.yul\":10005:10079   */\n      swap2\n      pop\n        /* \"#utility.yul\":10088:10181   */\n      tag_402\n        /* \"#utility.yul\":10177:10180   */\n      dup3\n        /* \"#utility.yul\":10088:10181   */\n      tag_403\n      jump\t// in\n    tag_402:\n        /* \"#utility.yul\":10206:10208   */\n      0x40\n        /* \"#utility.yul\":10201:10204   */\n      dup3\n        /* \"#utility.yul\":10197:10209   */\n      add\n        /* \"#utility.yul\":10190:10209   */\n      swap1\n      pop\n        /* \"#utility.yul\":9849:10215   */\n      swap2\n      swap1\n      pop\n      jump\t// out\n        /* \"#utility.yul\":10221:10339   */\n    tag_404:\n        /* \"#utility.yul\":10308:10332   */\n      tag_406\n        /* \"#utility.yul\":10326:10331   */\n      dup2\n        /* \"#utility.yul\":10308:10332   */\n      tag_407\n      jump\t// in\n    tag_406:\n        /* \"#utility.yul\":10303:10306   */\n      dup3\n        /* \"#utility.yul\":10296:10333   */\n      mstore\n        /* \"#utility.yul\":10221:10339   */\n      pop\n      pop\n      jump\t// out\n        /* \"#utility.yul\":10345:10616   */\n    tag_222:\n        /* \"#utility.yul\":10475:10478   */\n      0x00\n        /* \"#utility.yul\":10497:10590   */\n      tag_409\n        /* \"#utility.yul\":10586:10589   */\n      dup3\n        /* \"#utility.yul\":10577:10583   */\n      dup5\n        /* \"#utility.yul\":10497:10590   */\n      tag_336\n      jump\t// in\n    tag_409:\n        /* \"#utility.yul\":10490:10590   */\n      swap2\n      pop\n        /* \"#utility.yul\":10607:10610   */\n      dup2\n        /* \"#utility.yul\":10600:10610   */\n      swap1\n      pop\n        /* \"#utility.yul\":10345:10616   */\n      swap3\n      swap2\n      pop\n      pop\n      jump\t// out\n        /* \"#utility.yul\":10622:10844   */\n    tag_57:\n        /* \"#utility.yul\":10715:10719   */\n      0x00\n        /* \"#utility.yul\":10753:10755   */\n      0x20\n        /* \"#utility.yul\":10742:10751   */\n      dup3\n        /* \"#utility.yul\":10738:10756   */\n      add\n        /* \"#utility.yul\":10730:10756   */\n      swap1\n      pop\n        /* \"#utility.yul\":10766:10837   */\n      tag_411\n        /* \"#utility.yul\":10834:10835   */\n      0x00\n        /* \"#utility.yul\":10823:10832   */\n      dup4\n        /* \"#utility.yul\":10819:10836   */\n      add\n        /* \"#utility.yul\":10810:10816   */\n      dup5\n        /* \"#utility.yul\":10766:10837   */\n      tag_328\n      jump\t// in\n    tag_411:\n        /* \"#utility.yul\":10622:10844   */\n      swap3\n      swap2\n      pop\n      pop\n      jump\t// out\n        /* \"#utility.yul\":10850:11182   */\n    tag_220:\n        /* \"#utility.yul\":10971:10975   */\n      0x00\n        /* \"#utility.yul\":11009:11011   */\n      0x40\n        /* \"#utility.yul\":10998:11007   */\n      dup3\n        /* \"#utility.yul\":10994:11012   */\n      add\n        /* \"#utility.yul\":10986:11012   */\n      swap1\n      pop\n        /* \"#utility.yul\":11022:11093   */\n      tag_413\n        /* \"#utility.yul\":11090:11091   */\n      0x00\n        /* \"#utility.yul\":11079:11088   */\n      dup4\n        /* \"#utility.yul\":11075:11092   */\n      add\n        /* \"#utility.yul\":11066:11072   */\n      dup6\n        /* \"#utility.yul\":11022:11093   */\n      tag_328\n      jump\t// in\n    tag_413:\n        /* \"#utility.yul\":11103:11175   */\n      tag_414\n        /* \"#utility.yul\":11171:11173   */\n      0x20\n        /* \"#utility.yul\":11160:11169   */\n      dup4\n        /* \"#utility.yul\":11156:11174   */\n      add\n        /* \"#utility.yul\":11147:11153   */\n      dup5\n        /* \"#utility.yul\":11103:11175   */\n      tag_404\n      jump\t// in\n    tag_414:\n        /* \"#utility.yul\":10850:11182   */\n      swap4\n      swap3\n      pop\n      pop\n      pop\n      jump\t// out\n        /* \"#utility.yul\":11188:11398   */\n    tag_53:\n        /* \"#utility.yul\":11275:11279   */\n      0x00\n        /* \"#utility.yul\":11313:11315   */\n      0x20\n        /* \"#utility.yul\":11302:11311   */\n      dup3\n        /* \"#utility.yul\":11298:11316   */\n      add\n        /* \"#utility.yul\":11290:11316   */\n      swap1\n      pop\n        /* \"#utility.yul\":11326:11391   */\n      tag_416\n        /* \"#utility.yul\":11388:11389   */\n      0x00\n        /* \"#utility.yul\":11377:11386   */\n      dup4\n        /* \"#utility.yul\":11373:11390   */\n      add\n        /* \"#utility.yul\":11364:11370   */\n      dup5\n        /* \"#utility.yul\":11326:11391   */\n      tag_332\n      jump\t// in\n    tag_416:\n        /* \"#utility.yul\":11188:11398   */\n      swap3\n      swap2\n      pop\n      pop\n      jump\t// out\n        /* \"#utility.yul\":11404:11654   */\n    tag_85:\n        /* \"#utility.yul\":11511:11515   */\n      0x00\n        /* \"#utility.yul\":11549:11551   */\n      0x20\n        /* \"#utility.yul\":11538:11547   */\n      dup3\n        /* \"#utility.yul\":11534:11552   */\n      add\n        /* \"#utility.yul\":11526:11552   */\n      swap1\n      pop\n        /* \"#utility.yul\":11562:11647   */\n      tag_418\n        /* \"#utility.yul\":11644:11645   */\n      0x00\n        /* \"#utility.yul\":11633:11642   */\n      dup4\n        /* \"#utility.yul\":11629:11646   */\n      add\n        /* \"#utility.yul\":11620:11626   */\n      dup5\n        /* \"#utility.yul\":11562:11647   */\n      tag_344\n      jump\t// in\n    tag_418:\n        /* \"#utility.yul\":11404:11654   */\n      swap3\n      swap2\n      pop\n      pop\n      jump\t// out\n        /* \"#utility.yul\":11660:12079   */\n    tag_181:\n        /* \"#utility.yul\":11826:11830   */\n      0x00\n        /* \"#utility.yul\":11864:11866   */\n      0x20\n        /* \"#utility.yul\":11853:11862   */\n      dup3\n        /* \"#utility.yul\":11849:11867   */\n      add\n        /* \"#utility.yul\":11841:11867   */\n      swap1\n      pop\n        /* \"#utility.yul\":11913:11922   */\n      dup2\n        /* \"#utility.yul\":11907:11911   */\n      dup2\n        /* \"#utility.yul\":11903:11923   */\n      sub\n        /* \"#utility.yul\":11899:11900   */\n      0x00\n        /* \"#utility.yul\":11888:11897   */\n      dup4\n        /* \"#utility.yul\":11884:11901   */\n      add\n        /* \"#utility.yul\":11877:11924   */\n      mstore\n        /* \"#utility.yul\":11941:12072   */\n      tag_420\n        /* \"#utility.yul\":12067:12071   */\n      dup2\n        /* \"#utility.yul\":11941:12072   */\n      tag_348\n      jump\t// in\n    tag_420:\n        /* \"#utility.yul\":11933:12072   */\n      swap1\n      pop\n        /* \"#utility.yul\":11660:12079   */\n      swap2\n      swap1\n      pop\n      jump\t// out\n        /* \"#utility.yul\":12085:12504   */\n    tag_104:\n        /* \"#utility.yul\":12251:12255   */\n      0x00\n        /* \"#utility.yul\":12289:12291   */\n      0x20\n        /* \"#utility.yul\":12278:12287   */\n      dup3\n        /* \"#utility.yul\":12274:12292   */\n      add\n        /* \"#utility.yul\":12266:12292   */\n      swap1\n      pop\n        /* \"#utility.yul\":12338:12347   */\n      dup2\n        /* \"#utility.yul\":12332:12336   */\n      dup2\n        /* \"#utility.yul\":12328:12348   */\n      sub\n        /* \"#utility.yul\":12324:12325   */\n      0x00\n        /* \"#utility.yul\":12313:12322   */\n      dup4\n        /* \"#utility.yul\":12309:12326   */\n      add\n        /* \"#utility.yul\":12302:12349   */\n      mstore\n        /* \"#utility.yul\":12366:12497   */\n      tag_422\n        /* \"#utility.yul\":12492:12496   */\n      dup2\n        /* \"#utility.yul\":12366:12497   */\n      tag_354\n      jump\t// in\n    tag_422:\n        /* \"#utility.yul\":12358:12497   */\n      swap1\n      pop\n        /* \"#utility.yul\":12085:12504   */\n      swap2\n      swap1\n      pop\n      jump\t// out\n        /* \"#utility.yul\":12510:12929   */\n    tag_244:\n        /* \"#utility.yul\":12676:12680   */\n      0x00\n        /* \"#utility.yul\":12714:12716   */\n      0x20\n        /* \"#utility.yul\":12703:12712   */\n      dup3\n        /* \"#utility.yul\":12699:12717   */\n      add\n        /* \"#utility.yul\":12691:12717   */\n      swap1\n      pop\n        /* \"#utility.yul\":12763:12772   */\n      dup2\n        /* \"#utility.yul\":12757:12761   */\n      dup2\n        /* \"#utility.yul\":12753:12773   */\n      sub\n        /* \"#utility.yul\":12749:12750   */\n      0x00\n        /* \"#utility.yul\":12738:12747   */\n      dup4\n        /* \"#utility.yul\":12734:12751   */\n      add\n        /* \"#utility.yul\":12727:12774   */\n      mstore\n        /* \"#utility.yul\":12791:12922   */\n      tag_424\n        /* \"#utility.yul\":12917:12921   */\n      dup2\n        /* \"#utility.yul\":12791:12922   */\n      tag_359\n      jump\t// in\n    tag_424:\n        /* \"#utility.yul\":12783:12922   */\n      swap1\n      pop\n        /* \"#utility.yul\":12510:12929   */\n      swap2\n      swap1\n      pop\n      jump\t// out\n        /* \"#utility.yul\":12935:13354   */\n    tag_112:\n        /* \"#utility.yul\":13101:13105   */\n      0x00\n        /* \"#utility.yul\":13139:13141   */\n      0x20\n        /* \"#utility.yul\":13128:13137   */\n      dup3\n        /* \"#utility.yul\":13124:13142   */\n      add\n        /* \"#utility.yul\":13116:13142   */\n      swap1\n      pop\n        /* \"#utility.yul\":13188:13197   */\n      dup2\n        /* \"#utility.yul\":13182:13186   */\n      dup2\n        /* \"#utility.yul\":13178:13198   */\n      sub\n        /* \"#utility.yul\":13174:13175   */\n      0x00\n        /* \"#utility.yul\":13163:13172   */\n      dup4\n        /* \"#utility.yul\":13159:13176   */\n      add\n        /* \"#utility.yul\":13152:13199   */\n      mstore\n        /* \"#utility.yul\":13216:13347   */\n      tag_426\n        /* \"#utility.yul\":13342:13346   */\n      dup2\n        /* \"#utility.yul\":13216:13347   */\n      tag_364\n      jump\t// in\n    tag_426:\n        /* \"#utility.yul\":13208:13347   */\n      swap1\n      pop\n        /* \"#utility.yul\":12935:13354   */\n      swap2\n      swap1\n      pop\n      jump\t// out\n        /* \"#utility.yul\":13360:13779   */\n    tag_135:\n        /* \"#utility.yul\":13526:13530   */\n      0x00\n        /* \"#utility.yul\":13564:13566   */\n      0x20\n        /* \"#utility.yul\":13553:13562   */\n      dup3\n        /* \"#utility.yul\":13549:13567   */\n      add\n        /* \"#utility.yul\":13541:13567   */\n      swap1\n      pop\n        /* \"#utility.yul\":13613:13622   */\n      dup2\n        /* \"#utility.yul\":13607:13611   */\n      dup2\n        /* \"#utility.yul\":13603:13623   */\n      sub\n        /* \"#utility.yul\":13599:13600   */\n      0x00\n        /* \"#utility.yul\":13588:13597   */\n      dup4\n        /* \"#utility.yul\":13584:13601   */\n      add\n        /* \"#utility.yul\":13577:13624   */\n      mstore\n        /* \"#utility.yul\":13641:13772   */\n      tag_428\n        /* \"#utility.yul\":13767:13771   */\n      dup2\n        /* \"#utility.yul\":13641:13772   */\n      tag_369\n      jump\t// in\n    tag_428:\n        /* \"#utility.yul\":13633:13772   */\n      swap1\n      pop\n        /* \"#utility.yul\":13360:13779   */\n      swap2\n      swap1\n      pop\n      jump\t// out\n        /* \"#utility.yul\":13785:14204   */\n    tag_191:\n        /* \"#utility.yul\":13951:13955   */\n      0x00\n        /* \"#utility.yul\":13989:13991   */\n      0x20\n        /* \"#utility.yul\":13978:13987   */\n      dup3\n        /* \"#utility.yul\":13974:13992   */\n      add\n        /* \"#utility.yul\":13966:13992   */\n      swap1\n      pop\n        /* \"#utility.yul\":14038:14047   */\n      dup2\n        /* \"#utility.yul\":14032:14036   */\n      dup2\n        /* \"#utility.yul\":14028:14048   */\n      sub\n        /* \"#utility.yul\":14024:14025   */\n      0x00\n        /* \"#utility.yul\":14013:14022   */\n      dup4\n        /* \"#utility.yul\":14009:14026   */\n      add\n        /* \"#utility.yul\":14002:14049   */\n      mstore\n        /* \"#utility.yul\":14066:14197   */\n      tag_430\n        /* \"#utility.yul\":14192:14196   */\n      dup2\n        /* \"#utility.yul\":14066:14197   */\n      tag_374\n      jump\t// in\n    tag_430:\n        /* \"#utility.yul\":14058:14197   */\n      swap1\n      pop\n        /* \"#utility.yul\":13785:14204   */\n      swap2\n      swap1\n      pop\n      jump\t// out\n        /* \"#utility.yul\":14210:14629   */\n    tag_108:\n        /* \"#utility.yul\":14376:14380   */\n      0x00\n        /* \"#utility.yul\":14414:14416   */\n      0x20\n        /* \"#utility.yul\":14403:14412   */\n      dup3\n        /* \"#utility.yul\":14399:14417   */\n      add\n        /* \"#utility.yul\":14391:14417   */\n      swap1\n      pop\n        /* \"#utility.yul\":14463:14472   */\n      dup2\n        /* \"#utility.yul\":14457:14461   */\n      dup2\n        /* \"#utility.yul\":14453:14473   */\n      sub\n        /* \"#utility.yul\":14449:14450   */\n      0x00\n        /* \"#utility.yul\":14438:14447   */\n      dup4\n        /* \"#utility.yul\":14434:14451   */\n      add\n        /* \"#utility.yul\":14427:14474   */\n      mstore\n        /* \"#utility.yul\":14491:14622   */\n      tag_432\n        /* \"#utility.yul\":14617:14621   */\n      dup2\n        /* \"#utility.yul\":14491:14622   */\n      tag_379\n      jump\t// in\n    tag_432:\n        /* \"#utility.yul\":14483:14622   */\n      swap1\n      pop\n        /* \"#utility.yul\":14210:14629   */\n      swap2\n      swap1\n      pop\n      jump\t// out\n        /* \"#utility.yul\":14635:15054   */\n    tag_100:\n        /* \"#utility.yul\":14801:14805   */\n      0x00\n        /* \"#utility.yul\":14839:14841   */\n      0x20\n        /* \"#utility.yul\":14828:14837   */\n      dup3\n        /* \"#utility.yul\":14824:14842   */\n      add\n        /* \"#utility.yul\":14816:14842   */\n      swap1\n      pop\n        /* \"#utility.yul\":14888:14897   */\n      dup2\n        /* \"#utility.yul\":14882:14886   */\n      dup2\n        /* \"#utility.yul\":14878:14898   */\n      sub\n        /* \"#utility.yul\":14874:14875   */\n      0x00\n        /* \"#utility.yul\":14863:14872   */\n      dup4\n        /* \"#utility.yul\":14859:14876   */\n      add\n        /* \"#utility.yul\":14852:14899   */\n      mstore\n        /* \"#utility.yul\":14916:15047   */\n      tag_434\n        /* \"#utility.yul\":15042:15046   */\n      dup2\n        /* \"#utility.yul\":14916:15047   */\n      tag_384\n      jump\t// in\n    tag_434:\n        /* \"#utility.yul\":14908:15047   */\n      swap1\n      pop\n        /* \"#utility.yul\":14635:15054   */\n      swap2\n      swap1\n      pop\n      jump\t// out\n        /* \"#utility.yul\":15060:15479   */\n    tag_205:\n        /* \"#utility.yul\":15226:15230   */\n      0x00\n        /* \"#utility.yul\":15264:15266   */\n      0x20\n        /* \"#utility.yul\":15253:15262   */\n      dup3\n        /* \"#utility.yul\":15249:15267   */\n      add\n        /* \"#utility.yul\":15241:15267   */\n      swap1\n      pop\n        /* \"#utility.yul\":15313:15322   */\n      dup2\n        /* \"#utility.yul\":15307:15311   */\n      dup2\n        /* \"#utility.yul\":15303:15323   */\n      sub\n        /* \"#utility.yul\":15299:15300   */\n      0x00\n        /* \"#utility.yul\":15288:15297   */\n      dup4\n        /* \"#utility.yul\":15284:15301   */\n      add\n        /* \"#utility.yul\":15277:15324   */\n      mstore\n        /* \"#utility.yul\":15341:15472   */\n      tag_436\n        /* \"#utility.yul\":15467:15471   */\n      dup2\n        /* \"#utility.yul\":15341:15472   */\n      tag_389\n      jump\t// in\n    tag_436:\n        /* \"#utility.yul\":15333:15472   */\n      swap1\n      pop\n        /* \"#utility.yul\":15060:15479   */\n      swap2\n      swap1\n      pop\n      jump\t// out\n        /* \"#utility.yul\":15485:15904   */\n    tag_96:\n        /* \"#utility.yul\":15651:15655   */\n      0x00\n        /* \"#utility.yul\":15689:15691   */\n      0x20\n        /* \"#utility.yul\":15678:15687   */\n      dup3\n        /* \"#utility.yul\":15674:15692   */\n      add\n        /* \"#utility.yul\":15666:15692   */\n      swap1\n      pop\n        /* \"#utility.yul\":15738:15747   */\n      dup2\n        /* \"#utility.yul\":15732:15736   */\n      dup2\n        /* \"#utility.yul\":15728:15748   */\n      sub\n        /* \"#utility.yul\":15724:15725   */\n      0x00\n        /* \"#utility.yul\":15713:15722   */\n      dup4\n        /* \"#utility.yul\":15709:15726   */\n      add\n        /* \"#utility.yul\":15702:15749   */\n      mstore\n        /* \"#utility.yul\":15766:15897   */\n      tag_438\n        /* \"#utility.yul\":15892:15896   */\n      dup2\n        /* \"#utility.yul\":15766:15897   */\n      tag_394\n      jump\t// in\n    tag_438:\n        /* \"#utility.yul\":15758:15897   */\n      swap1\n      pop\n        /* \"#utility.yul\":15485:15904   */\n      swap2\n      swap1\n      pop\n      jump\t// out\n        /* \"#utility.yul\":15910:16329   */\n    tag_232:\n        /* \"#utility.yul\":16076:16080   */\n      0x00\n        /* \"#utility.yul\":16114:16116   */\n      0x20\n        /* \"#utility.yul\":16103:16112   */\n      dup3\n        /* \"#utility.yul\":16099:16117   */\n      add\n        /* \"#utility.yul\":16091:16117   */\n      swap1\n      pop\n        /* \"#utility.yul\":16163:16172   */\n      dup2\n        /* \"#utility.yul\":16157:16161   */\n      dup2\n        /* \"#utility.yul\":16153:16173   */\n      sub\n        /* \"#utility.yul\":16149:16150   */\n      0x00\n        /* \"#utility.yul\":16138:16147   */\n      dup4\n        /* \"#utility.yul\":16134:16151   */\n      add\n        /* \"#utility.yul\":16127:16174   */\n      mstore\n        /* \"#utility.yul\":16191:16322   */\n      tag_440\n        /* \"#utility.yul\":16317:16321   */\n      dup2\n        /* \"#utility.yul\":16191:16322   */\n      tag_399\n      jump\t// in\n    tag_440:\n        /* \"#utility.yul\":16183:16322   */\n      swap1\n      pop\n        /* \"#utility.yul\":15910:16329   */\n      swap2\n      swap1\n      pop\n      jump\t// out\n        /* \"#utility.yul\":16335:16557   */\n    tag_28:\n        /* \"#utility.yul\":16428:16432   */\n      0x00\n        /* \"#utility.yul\":16466:16468   */\n      0x20\n        /* \"#utility.yul\":16455:16464   */\n      dup3\n        /* \"#utility.yul\":16451:16469   */\n      add\n        /* \"#utility.yul\":16443:16469   */\n      swap1\n      pop\n        /* \"#utility.yul\":16479:16550   */\n      tag_442\n        /* \"#utility.yul\":16547:16548   */\n      0x00\n        /* \"#utility.yul\":16536:16545   */\n      dup4\n        /* \"#utility.yul\":16532:16549   */\n      add\n        /* \"#utility.yul\":16523:16529   */\n      dup5\n        /* \"#utility.yul\":16479:16550   */\n      tag_404\n      jump\t// in\n    tag_442:\n        /* \"#utility.yul\":16335:16557   */\n      swap3\n      swap2\n      pop\n      pop\n      jump\t// out\n        /* \"#utility.yul\":16563:16692   */\n    tag_252:\n        /* \"#utility.yul\":16597:16603   */\n      0x00\n        /* \"#utility.yul\":16624:16644   */\n      tag_444\n      tag_445\n      jump\t// in\n    tag_444:\n        /* \"#utility.yul\":16614:16644   */\n      swap1\n      pop\n        /* \"#utility.yul\":16653:16686   */\n      tag_446\n        /* \"#utility.yul\":16681:16685   */\n      dup3\n        /* \"#utility.yul\":16673:16679   */\n      dup3\n        /* \"#utility.yul\":16653:16686   */\n      tag_447\n      jump\t// in\n    tag_446:\n        /* \"#utility.yul\":16563:16692   */\n      swap2\n      swap1\n      pop\n      jump\t// out\n        /* \"#utility.yul\":16698:16773   */\n    tag_445:\n        /* \"#utility.yul\":16731:16737   */\n      0x00\n        /* \"#utility.yul\":16764:16766   */\n      0x40\n        /* \"#utility.yul\":16758:16767   */\n      mload\n        /* \"#utility.yul\":16748:16767   */\n      swap1\n      pop\n        /* \"#utility.yul\":16698:16773   */\n      swap1\n      jump\t// out\n        /* \"#utility.yul\":16779:17090   */\n    tag_251:\n        /* \"#utility.yul\":16856:16860   */\n      0x00\n        /* \"#utility.yul\":16946:16964   */\n      0xffffffffffffffff\n        /* \"#utility.yul\":16938:16944   */\n      dup3\n        /* \"#utility.yul\":16935:16965   */\n      gt\n        /* \"#utility.yul\":16932:16988   */\n      iszero\n      tag_450\n      jumpi\n        /* \"#utility.yul\":16968:16986   */\n      tag_451\n      tag_236\n      jump\t// in\n    tag_451:\n        /* \"#utility.yul\":16932:16988   */\n    tag_450:\n        /* \"#utility.yul\":17018:17022   */\n      0x20\n        /* \"#utility.yul\":17010:17016   */\n      dup3\n        /* \"#utility.yul\":17006:17023   */\n      mul\n        /* \"#utility.yul\":16998:17023   */\n      swap1\n      pop\n        /* \"#utility.yul\":17078:17082   */\n      0x20\n        /* \"#utility.yul\":17072:17076   */\n      dup2\n        /* \"#utility.yul\":17068:17083   */\n      add\n        /* \"#utility.yul\":17060:17083   */\n      swap1\n      pop\n        /* \"#utility.yul\":16779:17090   */\n      swap2\n      swap1\n      pop\n      jump\t// out\n        /* \"#utility.yul\":17096:17407   */\n    tag_265:\n        /* \"#utility.yul\":17173:17177   */\n      0x00\n        /* \"#utility.yul\":17263:17281   */\n      0xffffffffffffffff\n        /* \"#utility.yul\":17255:17261   */\n      dup3\n        /* \"#utility.yul\":17252:17282   */\n      gt\n        /* \"#utility.yul\":17249:17305   */\n      iszero\n      tag_453\n      jumpi\n        /* \"#utility.yul\":17285:17303   */\n      tag_454\n      tag_236\n      jump\t// in\n    tag_454:\n        /* \"#utility.yul\":17249:17305   */\n    tag_453:\n        /* \"#utility.yul\":17335:17339   */\n      0x20\n        /* \"#utility.yul\":17327:17333   */\n      dup3\n        /* \"#utility.yul\":17323:17340   */\n      mul\n        /* \"#utility.yul\":17315:17340   */\n      swap1\n      pop\n        /* \"#utility.yul\":17395:17399   */\n      0x20\n        /* \"#utility.yul\":17389:17393   */\n      dup2\n        /* \"#utility.yul\":17385:17400   */\n      add\n        /* \"#utility.yul\":17377:17400   */\n      swap1\n      pop\n        /* \"#utility.yul\":17096:17407   */\n      swap2\n      swap1\n      pop\n      jump\t// out\n        /* \"#utility.yul\":17413:17511   */\n    tag_339:\n        /* \"#utility.yul\":17464:17470   */\n      0x00\n        /* \"#utility.yul\":17498:17503   */\n      dup2\n        /* \"#utility.yul\":17492:17504   */\n      mload\n        /* \"#utility.yul\":17482:17504   */\n      swap1\n      pop\n        /* \"#utility.yul\":17413:17511   */\n      swap2\n      swap1\n      pop\n      jump\t// out\n        /* \"#utility.yul\":17517:17664   */\n    tag_341:\n        /* \"#utility.yul\":17618:17629   */\n      0x00\n        /* \"#utility.yul\":17655:17658   */\n      dup2\n        /* \"#utility.yul\":17640:17658   */\n      swap1\n      pop\n        /* \"#utility.yul\":17517:17664   */\n      swap3\n      swap2\n      pop\n      pop\n      jump\t// out\n        /* \"#utility.yul\":17670:17839   */\n    tag_351:\n        /* \"#utility.yul\":17754:17765   */\n      0x00\n        /* \"#utility.yul\":17788:17794   */\n      dup3\n        /* \"#utility.yul\":17783:17786   */\n      dup3\n        /* \"#utility.yul\":17776:17795   */\n      mstore\n        /* \"#utility.yul\":17828:17832   */\n      0x20\n        /* \"#utility.yul\":17823:17826   */\n      dup3\n        /* \"#utility.yul\":17819:17833   */\n      add\n        /* \"#utility.yul\":17804:17833   */\n      swap1\n      pop\n        /* \"#utility.yul\":17670:17839   */\n      swap3\n      swap2\n      pop\n      pop\n      jump\t// out\n        /* \"#utility.yul\":17845:18150   */\n    tag_217:\n        /* \"#utility.yul\":17885:17888   */\n      0x00\n        /* \"#utility.yul\":17904:17924   */\n      tag_459\n        /* \"#utility.yul\":17922:17923   */\n      dup3\n        /* \"#utility.yul\":17904:17924   */\n      tag_407\n      jump\t// in\n    tag_459:\n        /* \"#utility.yul\":17899:17924   */\n      swap2\n      pop\n        /* \"#utility.yul\":17938:17958   */\n      tag_460\n        /* \"#utility.yul\":17956:17957   */\n      dup4\n        /* \"#utility.yul\":17938:17958   */\n      tag_407\n      jump\t// in\n    tag_460:\n        /* \"#utility.yul\":17933:17958   */\n      swap3\n      pop\n        /* \"#utility.yul\":18092:18093   */\n      dup3\n        /* \"#utility.yul\":18024:18090   */\n      0xffffffffffffffffffffffffffffffffffffffffffffffffffffffffffffffff\n        /* \"#utility.yul\":18020:18094   */\n      sub\n        /* \"#utility.yul\":18017:18018   */\n      dup3\n        /* \"#utility.yul\":18014:18095   */\n      gt\n        /* \"#utility.yul\":18011:18118   */\n      iszero\n      tag_461\n      jumpi\n        /* \"#utility.yul\":18098:18116   */\n      tag_462\n      tag_463\n      jump\t// in\n    tag_462:\n        /* \"#utility.yul\":18011:18118   */\n    tag_461:\n        /* \"#utility.yul\":18142:18143   */\n      dup3\n        /* \"#utility.yul\":18139:18140   */\n      dup3\n        /* \"#utility.yul\":18135:18144   */\n      add\n        /* \"#utility.yul\":18128:18144   */\n      swap1\n      pop\n        /* \"#utility.yul\":17845:18150   */\n      swap3\n      swap2\n      pop\n      pop\n      jump\t// out\n        /* \"#utility.yul\":18156:18341   */\n    tag_214:\n        /* \"#utility.yul\":18196:18197   */\n      0x00\n        /* \"#utility.yul\":18213:18233   */\n      tag_465\n        /* \"#utility.yul\":18231:18232   */\n      dup3\n        /* \"#utility.yul\":18213:18233   */\n      tag_407\n      jump\t// in\n    tag_465:\n        /* \"#utility.yul\":18208:18233   */\n      swap2\n      pop\n        /* \"#utility.yul\":18247:18267   */\n      tag_466\n        /* \"#utility.yul\":18265:18266   */\n      dup4\n        /* \"#utility.yul\":18247:18267   */\n      tag_407\n      jump\t// in\n    tag_466:\n        /* \"#utility.yul\":18242:18267   */\n      swap3\n      pop\n        /* \"#utility.yul\":18286:18287   */\n      dup3\n        /* \"#utility.yul\":18276:18311   */\n      tag_467\n      jumpi\n        /* \"#utility.yul\":18291:18309   */\n      tag_468\n      tag_469\n      jump\t// in\n    tag_468:\n        /* \"#utility.yul\":18276:18311   */\n    tag_467:\n        /* \"#utility.yul\":18333:18334   */\n      dup3\n        /* \"#utility.yul\":18330:18331   */\n      dup3\n        /* \"#utility.yul\":18326:18335   */\n      div\n        /* \"#utility.yul\":18321:18335   */\n      swap1\n      pop\n        /* \"#utility.yul\":18156:18341   */\n      swap3\n      swap2\n      pop\n      pop\n      jump\t// out\n        /* \"#utility.yul\":18347:18695   */\n    tag_169:\n        /* \"#utility.yul\":18387:18394   */\n      0x00\n        /* \"#utility.yul\":18410:18430   */\n      tag_471\n        /* \"#utility.yul\":18428:18429   */\n      dup3\n        /* \"#utility.yul\":18410:18430   */\n      tag_407\n      jump\t// in\n    tag_471:\n        /* \"#utility.yul\":18405:18430   */\n      swap2\n      pop\n        /* \"#utility.yul\":18444:18464   */\n      tag_472\n        /* \"#utility.yul\":18462:18463   */\n      dup4\n        /* \"#utility.yul\":18444:18464   */\n      tag_407\n      jump\t// in\n    tag_472:\n        /* \"#utility.yul\":18439:18464   */\n      swap3\n      pop\n        /* \"#utility.yul\":18632:18633   */\n      dup2\n        /* \"#utility.yul\":18564:18630   */\n      0xffffffffffffffffffffffffffffffffffffffffffffffffffffffffffffffff\n        /* \"#utility.yul\":18560:18634   */\n      div\n        /* \"#utility.yul\":18557:18558   */\n      dup4\n        /* \"#utility.yul\":18554:18635   */\n      gt\n        /* \"#utility.yul\":18549:18550   */\n      dup3\n        /* \"#utility.yul\":18542:18551   */\n      iszero\n        /* \"#utility.yul\":18535:18552   */\n      iszero\n        /* \"#utility.yul\":18531:18636   */\n      and\n        /* \"#utility.yul\":18528:18659   */\n      iszero\n      tag_473\n      jumpi\n        /* \"#utility.yul\":18639:18657   */\n      tag_474\n      tag_463\n      jump\t// in\n    tag_474:\n        /* \"#utility.yul\":18528:18659   */\n    tag_473:\n        /* \"#utility.yul\":18687:18688   */\n      dup3\n        /* \"#utility.yul\":18684:18685   */\n      dup3\n        /* \"#utility.yul\":18680:18689   */\n      mul\n        /* \"#utility.yul\":18669:18689   */\n      swap1\n      pop\n        /* \"#utility.yul\":18347:18695   */\n      swap3\n      swap2\n      pop\n      pop\n      jump\t// out\n        /* \"#utility.yul\":18701:18892   */\n    tag_209:\n        /* \"#utility.yul\":18741:18745   */\n      0x00\n        /* \"#utility.yul\":18761:18781   */\n      tag_476\n        /* \"#utility.yul\":18779:18780   */\n      dup3\n        /* \"#utility.yul\":18761:18781   */\n      tag_407\n      jump\t// in\n    tag_476:\n        /* \"#utility.yul\":18756:18781   */\n      swap2\n      pop\n        /* \"#utility.yul\":18795:18815   */\n      tag_477\n        /* \"#utility.yul\":18813:18814   */\n      dup4\n        /* \"#utility.yul\":18795:18815   */\n      tag_407\n      jump\t// in\n    tag_477:\n        /* \"#utility.yul\":18790:18815   */\n      swap3\n      pop\n        /* \"#utility.yul\":18834:18835   */\n      dup3\n        /* \"#utility.yul\":18831:18832   */\n      dup3\n        /* \"#utility.yul\":18828:18836   */\n      lt\n        /* \"#utility.yul\":18825:18859   */\n      iszero\n      tag_478\n      jumpi\n        /* \"#utility.yul\":18839:18857   */\n      tag_479\n      tag_463\n      jump\t// in\n    tag_479:\n        /* \"#utility.yul\":18825:18859   */\n    tag_478:\n        /* \"#utility.yul\":18884:18885   */\n      dup3\n        /* \"#utility.yul\":18881:18882   */\n      dup3\n        /* \"#utility.yul\":18877:18886   */\n      sub\n        /* \"#utility.yul\":18869:18886   */\n      swap1\n      pop\n        /* \"#utility.yul\":18701:18892   */\n      swap3\n      swap2\n      pop\n      pop\n      jump\t// out\n        /* \"#utility.yul\":18898:18994   */\n    tag_331:\n        /* \"#utility.yul\":18935:18942   */\n      0x00\n        /* \"#utility.yul\":18964:18988   */\n      tag_481\n        /* \"#utility.yul\":18982:18987   */\n      dup3\n        /* \"#utility.yul\":18964:18988   */\n      tag_482\n      jump\t// in\n    tag_481:\n        /* \"#utility.yul\":18953:18988   */\n      swap1\n      pop\n        /* \"#utility.yul\":18898:18994   */\n      swap2\n      swap1\n      pop\n      jump\t// out\n        /* \"#utility.yul\":19000:19090   */\n    tag_335:\n        /* \"#utility.yul\":19034:19041   */\n      0x00\n        /* \"#utility.yul\":19077:19082   */\n      dup2\n        /* \"#utility.yul\":19070:19083   */\n      iszero\n        /* \"#utility.yul\":19063:19084   */\n      iszero\n        /* \"#utility.yul\":19052:19084   */\n      swap1\n      pop\n        /* \"#utility.yul\":19000:19090   */\n      swap2\n      swap1\n      pop\n      jump\t// out\n        /* \"#utility.yul\":19096:19206   */\n    tag_484:\n        /* \"#utility.yul\":19147:19154   */\n      0x00\n        /* \"#utility.yul\":19176:19200   */\n      tag_486\n        /* \"#utility.yul\":19194:19199   */\n      dup3\n        /* \"#utility.yul\":19176:19200   */\n      tag_331\n      jump\t// in\n    tag_486:\n        /* \"#utility.yul\":19165:19200   */\n      swap1\n      pop\n        /* \"#utility.yul\":19096:19206   */\n      swap2\n      swap1\n      pop\n      jump\t// out\n        /* \"#utility.yul\":19212:19338   */\n    tag_482:\n        /* \"#utility.yul\":19249:19256   */\n      0x00\n        /* \"#utility.yul\":19289:19331   */\n      0xffffffffffffffffffffffffffffffffffffffff\n        /* \"#utility.yul\":19282:19287   */\n      dup3\n        /* \"#utility.yul\":19278:19332   */\n      and\n        /* \"#utility.yul\":19267:19332   */\n      swap1\n      pop\n        /* \"#utility.yul\":19212:19338   */\n      swap2\n      swap1\n      pop\n      jump\t// out\n        /* \"#utility.yul\":19344:19421   */\n    tag_407:\n        /* \"#utility.yul\":19381:19388   */\n      0x00\n        /* \"#utility.yul\":19410:19415   */\n      dup2\n        /* \"#utility.yul\":19399:19415   */\n      swap1\n      pop\n        /* \"#utility.yul\":19344:19421   */\n      swap2\n      swap1\n      pop\n      jump\t// out\n        /* \"#utility.yul\":19427:19567   */\n    tag_347:\n        /* \"#utility.yul\":19491:19500   */\n      0x00\n        /* \"#utility.yul\":19524:19561   */\n      tag_490\n        /* \"#utility.yul\":19555:19560   */\n      dup3\n        /* \"#utility.yul\":19524:19561   */\n      tag_491\n      jump\t// in\n    tag_490:\n        /* \"#utility.yul\":19511:19561   */\n      swap1\n      pop\n        /* \"#utility.yul\":19427:19567   */\n      swap2\n      swap1\n      pop\n      jump\t// out\n        /* \"#utility.yul\":19573:19699   */\n    tag_491:\n        /* \"#utility.yul\":19623:19632   */\n      0x00\n        /* \"#utility.yul\":19656:19693   */\n      tag_493\n        /* \"#utility.yul\":19687:19692   */\n      dup3\n        /* \"#utility.yul\":19656:19693   */\n      tag_494\n      jump\t// in\n    tag_493:\n        /* \"#utility.yul\":19643:19693   */\n      swap1\n      pop\n        /* \"#utility.yul\":19573:19699   */\n      swap2\n      swap1\n      pop\n      jump\t// out\n        /* \"#utility.yul\":19705:19818   */\n    tag_494:\n        /* \"#utility.yul\":19755:19764   */\n      0x00\n        /* \"#utility.yul\":19788:19812   */\n      tag_496\n        /* \"#utility.yul\":19806:19811   */\n      dup3\n        /* \"#utility.yul\":19788:19812   */\n      tag_482\n      jump\t// in\n    tag_496:\n        /* \"#utility.yul\":19775:19812   */\n      swap1\n      pop\n        /* \"#utility.yul\":19705:19818   */\n      swap2\n      swap1\n      pop\n      jump\t// out\n        /* \"#utility.yul\":19824:20131   */\n    tag_343:\n        /* \"#utility.yul\":19892:19893   */\n      0x00\n        /* \"#utility.yul\":19902:20015   */\n    tag_498:\n        /* \"#utility.yul\":19916:19922   */\n      dup4\n        /* \"#utility.yul\":19913:19914   */\n      dup2\n        /* \"#utility.yul\":19910:19923   */\n      lt\n        /* \"#utility.yul\":19902:20015   */\n      iszero\n      tag_500\n      jumpi\n        /* \"#utility.yul\":20001:20002   */\n      dup1\n        /* \"#utility.yul\":19996:19999   */\n      dup3\n        /* \"#utility.yul\":19992:20003   */\n      add\n        /* \"#utility.yul\":19986:20004   */\n      mload\n        /* \"#utility.yul\":19982:19983   */\n      dup2\n        /* \"#utility.yul\":19977:19980   */\n      dup5\n        /* \"#utility.yul\":19973:19984   */\n      add\n        /* \"#utility.yul\":19966:20005   */\n      mstore\n        /* \"#utility.yul\":19938:19940   */\n      0x20\n        /* \"#utility.yul\":19935:19936   */\n      dup2\n        /* \"#utility.yul\":19931:19941   */\n      add\n        /* \"#utility.yul\":19926:19941   */\n      swap1\n      pop\n        /* \"#utility.yul\":19902:20015   */\n      jump(tag_498)\n    tag_500:\n        /* \"#utility.yul\":20033:20039   */\n      dup4\n        /* \"#utility.yul\":20030:20031   */\n      dup2\n        /* \"#utility.yul\":20027:20040   */\n      gt\n        /* \"#utility.yul\":20024:20125   */\n      iszero\n      tag_501\n      jumpi\n        /* \"#utility.yul\":20113:20114   */\n      0x00\n        /* \"#utility.yul\":20104:20110   */\n      dup5\n        /* \"#utility.yul\":20099:20102   */\n      dup5\n        /* \"#utility.yul\":20095:20111   */\n      add\n        /* \"#utility.yul\":20088:20115   */\n      mstore\n        /* \"#utility.yul\":20024:20125   */\n    tag_501:\n        /* \"#utility.yul\":19873:20131   */\n      pop\n        /* \"#utility.yul\":19824:20131   */\n      pop\n      pop\n      pop\n      jump\t// out\n        /* \"#utility.yul\":20137:20418   */\n    tag_447:\n        /* \"#utility.yul\":20220:20247   */\n      tag_503\n        /* \"#utility.yul\":20242:20246   */\n      dup3\n        /* \"#utility.yul\":20220:20247   */\n      tag_504\n      jump\t// in\n    tag_503:\n        /* \"#utility.yul\":20212:20218   */\n      dup2\n        /* \"#utility.yul\":20208:20248   */\n      add\n        /* \"#utility.yul\":20350:20356   */\n      dup2\n        /* \"#utility.yul\":20338:20348   */\n      dup2\n        /* \"#utility.yul\":20335:20357   */\n      lt\n        /* \"#utility.yul\":20314:20332   */\n      0xffffffffffffffff\n        /* \"#utility.yul\":20302:20312   */\n      dup3\n        /* \"#utility.yul\":20299:20333   */\n      gt\n        /* \"#utility.yul\":20296:20358   */\n      or\n        /* \"#utility.yul\":20293:20381   */\n      iszero\n      tag_505\n      jumpi\n        /* \"#utility.yul\":20361:20379   */\n      tag_506\n      tag_236\n      jump\t// in\n    tag_506:\n        /* \"#utility.yul\":20293:20381   */\n    tag_505:\n        /* \"#utility.yul\":20401:20411   */\n      dup1\n        /* \"#utility.yul\":20397:20399   */\n      0x40\n        /* \"#utility.yul\":20390:20412   */\n      mstore\n        /* \"#utility.yul\":20180:20418   */\n      pop\n        /* \"#utility.yul\":20137:20418   */\n      pop\n      pop\n      jump\t// out\n        /* \"#utility.yul\":20424:20657   */\n    tag_150:\n        /* \"#utility.yul\":20463:20466   */\n      0x00\n        /* \"#utility.yul\":20486:20510   */\n      tag_508\n        /* \"#utility.yul\":20504:20509   */\n      dup3\n        /* \"#utility.yul\":20486:20510   */\n      tag_407\n      jump\t// in\n    tag_508:\n        /* \"#utility.yul\":20477:20510   */\n      swap2\n      pop\n        /* \"#utility.yul\":20532:20598   */\n      0xffffffffffffffffffffffffffffffffffffffffffffffffffffffffffffffff\n        /* \"#utility.yul\":20525:20530   */\n      dup3\n        /* \"#utility.yul\":20522:20599   */\n      eq\n        /* \"#utility.yul\":20519:20622   */\n      iszero\n      tag_509\n      jumpi\n        /* \"#utility.yul\":20602:20620   */\n      tag_510\n      tag_463\n      jump\t// in\n    tag_510:\n        /* \"#utility.yul\":20519:20622   */\n    tag_509:\n        /* \"#utility.yul\":20649:20650   */\n      0x01\n        /* \"#utility.yul\":20642:20647   */\n      dup3\n        /* \"#utility.yul\":20638:20651   */\n      add\n        /* \"#utility.yul\":20631:20651   */\n      swap1\n      pop\n        /* \"#utility.yul\":20424:20657   */\n      swap2\n      swap1\n      pop\n      jump\t// out\n        /* \"#utility.yul\":20663:20843   */\n    tag_463:\n        /* \"#utility.yul\":20711:20788   */\n      0x4e487b7100000000000000000000000000000000000000000000000000000000\n        /* \"#utility.yul\":20708:20709   */\n      0x00\n        /* \"#utility.yul\":20701:20789   */\n      mstore\n        /* \"#utility.yul\":20808:20812   */\n      0x11\n        /* \"#utility.yul\":20805:20806   */\n      0x04\n        /* \"#utility.yul\":20798:20813   */\n      mstore\n        /* \"#utility.yul\":20832:20836   */\n      0x24\n        /* \"#utility.yul\":20829:20830   */\n      0x00\n        /* \"#utility.yul\":20822:20837   */\n      revert\n        /* \"#utility.yul\":20849:21029   */\n    tag_469:\n        /* \"#utility.yul\":20897:20974   */\n      0x4e487b7100000000000000000000000000000000000000000000000000000000\n        /* \"#utility.yul\":20894:20895   */\n      0x00\n        /* \"#utility.yul\":20887:20975   */\n      mstore\n        /* \"#utility.yul\":20994:20998   */\n      0x12\n        /* \"#utility.yul\":20991:20992   */\n      0x04\n        /* \"#utility.yul\":20984:20999   */\n      mstore\n        /* \"#utility.yul\":21018:21022   */\n      0x24\n        /* \"#utility.yul\":21015:21016   */\n      0x00\n        /* \"#utility.yul\":21008:21023   */\n      revert\n        /* \"#utility.yul\":21035:21215   */\n    tag_142:\n        /* \"#utility.yul\":21083:21160   */\n      0x4e487b7100000000000000000000000000000000000000000000000000000000\n        /* \"#utility.yul\":21080:21081   */\n      0x00\n        /* \"#utility.yul\":21073:21161   */\n      mstore\n        /* \"#utility.yul\":21180:21184   */\n      0x32\n        /* \"#utility.yul\":21177:21178   */\n      0x04\n        /* \"#utility.yul\":21170:21185   */\n      mstore\n        /* \"#utility.yul\":21204:21208   */\n      0x24\n        /* \"#utility.yul\":21201:21202   */\n      0x00\n        /* \"#utility.yul\":21194:21209   */\n      revert\n        /* \"#utility.yul\":21221:21401   */\n    tag_236:\n        /* \"#utility.yul\":21269:21346   */\n      0x4e487b7100000000000000000000000000000000000000000000000000000000\n        /* \"#utility.yul\":21266:21267   */\n      0x00\n        /* \"#utility.yul\":21259:21347   */\n      mstore\n        /* \"#utility.yul\":21366:21370   */\n      0x41\n        /* \"#utility.yul\":21363:21364   */\n      0x04\n        /* \"#utility.yul\":21356:21371   */\n      mstore\n        /* \"#utility.yul\":21390:21394   */\n      0x24\n        /* \"#utility.yul\":21387:21388   */\n      0x00\n        /* \"#utility.yul\":21380:21395   */\n      revert\n        /* \"#utility.yul\":21407:21524   */\n    tag_280:\n        /* \"#utility.yul\":21516:21517   */\n      0x00\n        /* \"#utility.yul\":21513:21514   */\n      dup1\n        /* \"#utility.yul\":21506:21518   */\n      revert\n        /* \"#utility.yul\":21530:21647   */\n    tag_255:\n        /* \"#utility.yul\":21639:21640   */\n      0x00\n        /* \"#utility.yul\":21636:21637   */\n      dup1\n        /* \"#utility.yul\":21629:21641   */\n      revert\n        /* \"#utility.yul\":21653:21770   */\n    tag_311:\n        /* \"#utility.yul\":21762:21763   */\n      0x00\n        /* \"#utility.yul\":21759:21760   */\n      dup1\n        /* \"#utility.yul\":21752:21764   */\n      revert\n        /* \"#utility.yul\":21776:21893   */\n    tag_304:\n        /* \"#utility.yul\":21885:21886   */\n      0x00\n        /* \"#utility.yul\":21882:21883   */\n      dup1\n        /* \"#utility.yul\":21875:21887   */\n      revert\n        /* \"#utility.yul\":21899:22001   */\n    tag_504:\n        /* \"#utility.yul\":21940:21946   */\n      0x00\n        /* \"#utility.yul\":21991:21993   */\n      0x1f\n        /* \"#utility.yul\":21987:21994   */\n      not\n        /* \"#utility.yul\":21982:21984   */\n      0x1f\n        /* \"#utility.yul\":21975:21980   */\n      dup4\n        /* \"#utility.yul\":21971:21985   */\n      add\n        /* \"#utility.yul\":21967:21995   */\n      and\n        /* \"#utility.yul\":21957:21995   */\n      swap1\n      pop\n        /* \"#utility.yul\":21899:22001   */\n      swap2\n      swap1\n      pop\n      jump\t// out\n        /* \"#utility.yul\":22007:22232   */\n    tag_353:\n        /* \"#utility.yul\":22147:22181   */\n      0x4f776e61626c653a206e6577206f776e657220697320746865207a65726f2061\n        /* \"#utility.yul\":22143:22144   */\n      0x00\n        /* \"#utility.yul\":22135:22141   */\n      dup3\n        /* \"#utility.yul\":22131:22145   */\n      add\n        /* \"#utility.yul\":22124:22182   */\n      mstore\n        /* \"#utility.yul\":22216:22224   */\n      0x6464726573730000000000000000000000000000000000000000000000000000\n        /* \"#utility.yul\":22211:22213   */\n      0x20\n        /* \"#utility.yul\":22203:22209   */\n      dup3\n        /* \"#utility.yul\":22199:22214   */\n      add\n        /* \"#utility.yul\":22192:22225   */\n      mstore\n        /* \"#utility.yul\":22007:22232   */\n      pop\n      jump\t// out\n        /* \"#utility.yul\":22238:22461   */\n    tag_358:\n        /* \"#utility.yul\":22378:22412   */\n      0x41424f41543a3a636c61696d3a20436c61696d206973206e6f74206f70656e20\n        /* \"#utility.yul\":22374:22375   */\n      0x00\n        /* \"#utility.yul\":22366:22372   */\n      dup3\n        /* \"#utility.yul\":22362:22376   */\n      add\n        /* \"#utility.yul\":22355:22413   */\n      mstore\n        /* \"#utility.yul\":22447:22453   */\n      0x7965742100000000000000000000000000000000000000000000000000000000\n        /* \"#utility.yul\":22442:22444   */\n      0x20\n        /* \"#utility.yul\":22434:22440   */\n      dup3\n        /* \"#utility.yul\":22430:22445   */\n      add\n        /* \"#utility.yul\":22423:22454   */\n      mstore\n        /* \"#utility.yul\":22238:22461   */\n      pop\n      jump\t// out\n        /* \"#utility.yul\":22467:22706   */\n    tag_363:\n        /* \"#utility.yul\":22607:22641   */\n      0x5472616e7366657248656c7065723a3a736166655472616e736665724554483a\n        /* \"#utility.yul\":22603:22604   */\n      0x00\n        /* \"#utility.yul\":22595:22601   */\n      dup3\n        /* \"#utility.yul\":22591:22605   */\n      add\n        /* \"#utility.yul\":22584:22642   */\n      mstore\n        /* \"#utility.yul\":22676:22698   */\n      0x20455448207472616e73666572206661696c6564000000000000000000000000\n        /* \"#utility.yul\":22671:22673   */\n      0x20\n        /* \"#utility.yul\":22663:22669   */\n      dup3\n        /* \"#utility.yul\":22659:22674   */\n      add\n        /* \"#utility.yul\":22652:22699   */\n      mstore\n        /* \"#utility.yul\":22467:22706   */\n      pop\n      jump\t// out\n        /* \"#utility.yul\":22712:22959   */\n    tag_368:\n        /* \"#utility.yul\":22852:22886   */\n      0x41424f41543a3a636c61696d3a20416c726561647920636c61696d656420796f\n        /* \"#utility.yul\":22848:22849   */\n      0x00\n        /* \"#utility.yul\":22840:22846   */\n      dup3\n        /* \"#utility.yul\":22836:22850   */\n      add\n        /* \"#utility.yul\":22829:22887   */\n      mstore\n        /* \"#utility.yul\":22921:22951   */\n      0x75722063757272656e746c7920656c696769626c6520746f6b656e7300000000\n        /* \"#utility.yul\":22916:22918   */\n      0x20\n        /* \"#utility.yul\":22908:22914   */\n      dup3\n        /* \"#utility.yul\":22904:22919   */\n      add\n        /* \"#utility.yul\":22897:22952   */\n      mstore\n        /* \"#utility.yul\":22712:22959   */\n      pop\n      jump\t// out\n        /* \"#utility.yul\":22965:23261   */\n    tag_373:\n        /* \"#utility.yul\":23105:23139   */\n      0x41424f41543a3a77686974656c6973743a20596f752063616e27742061646420\n        /* \"#utility.yul\":23101:23102   */\n      0x00\n        /* \"#utility.yul\":23093:23099   */\n      dup3\n        /* \"#utility.yul\":23089:23103   */\n      add\n        /* \"#utility.yul\":23082:23140   */\n      mstore\n        /* \"#utility.yul\":23174:23208   */\n      0x6d6f7265207468616e2031303020616464726573736573206174207468652073\n        /* \"#utility.yul\":23169:23171   */\n      0x20\n        /* \"#utility.yul\":23161:23167   */\n      dup3\n        /* \"#utility.yul\":23157:23172   */\n      add\n        /* \"#utility.yul\":23150:23209   */\n      mstore\n        /* \"#utility.yul\":23243:23253   */\n      0x616d652074696d65000000000000000000000000000000000000000000000000\n        /* \"#utility.yul\":23238:23240   */\n      0x40\n        /* \"#utility.yul\":23230:23236   */\n      dup3\n        /* \"#utility.yul\":23226:23241   */\n      add\n        /* \"#utility.yul\":23219:23254   */\n      mstore\n        /* \"#utility.yul\":22965:23261   */\n      pop\n      jump\t// out\n        /* \"#utility.yul\":23267:23561   */\n    tag_378:\n        /* \"#utility.yul\":23407:23441   */\n      0x41424f41543a3a757064617465526577617264546f6b656e3a204e6577207265\n        /* \"#utility.yul\":23403:23404   */\n      0x00\n        /* \"#utility.yul\":23395:23401   */\n      dup3\n        /* \"#utility.yul\":23391:23405   */\n      add\n        /* \"#utility.yul\":23384:23442   */\n      mstore\n        /* \"#utility.yul\":23476:23510   */\n      0x776172642073686f756c6420626520646966666572656e742066726f6d206375\n        /* \"#utility.yul\":23471:23473   */\n      0x20\n        /* \"#utility.yul\":23463:23469   */\n      dup3\n        /* \"#utility.yul\":23459:23474   */\n      add\n        /* \"#utility.yul\":23452:23511   */\n      mstore\n        /* \"#utility.yul\":23545:23553   */\n      0x7272656e742e0000000000000000000000000000000000000000000000000000\n        /* \"#utility.yul\":23540:23542   */\n      0x40\n        /* \"#utility.yul\":23532:23538   */\n      dup3\n        /* \"#utility.yul\":23528:23543   */\n      add\n        /* \"#utility.yul\":23521:23554   */\n      mstore\n        /* \"#utility.yul\":23267:23561   */\n      pop\n      jump\t// out\n        /* \"#utility.yul\":23567:23884   */\n    tag_383:\n        /* \"#utility.yul\":23707:23741   */\n      0x41424f41543a3a636c61696d3a205468652070657263656e74616765206f6620\n        /* \"#utility.yul\":23703:23704   */\n      0x00\n        /* \"#utility.yul\":23695:23701   */\n      dup3\n        /* \"#utility.yul\":23691:23705   */\n      add\n        /* \"#utility.yul\":23684:23742   */\n      mstore\n        /* \"#utility.yul\":23776:23810   */\n      0x746f6b656e20796f752063616e20636c61696d2069732063757272656e746c79\n        /* \"#utility.yul\":23771:23773   */\n      0x20\n        /* \"#utility.yul\":23763:23769   */\n      dup3\n        /* \"#utility.yul\":23759:23774   */\n      add\n        /* \"#utility.yul\":23752:23811   */\n      mstore\n        /* \"#utility.yul\":23845:23876   */\n      0x207a65726f2e20506c656173652074727920616761696e206c61746572000000\n        /* \"#utility.yul\":23840:23842   */\n      0x40\n        /* \"#utility.yul\":23832:23838   */\n      dup3\n        /* \"#utility.yul\":23828:23843   */\n      add\n        /* \"#utility.yul\":23821:23877   */\n      mstore\n        /* \"#utility.yul\":23567:23884   */\n      pop\n      jump\t// out\n        /* \"#utility.yul\":23890:24063   */\n    tag_388:\n        /* \"#utility.yul\":24030:24055   */\n      0x436c61696d20697320616c7265616479206f70656e6564000000000000000000\n        /* \"#utility.yul\":24026:24027   */\n      0x00\n        /* \"#utility.yul\":24018:24024   */\n      dup3\n        /* \"#utility.yul\":24014:24028   */\n      add\n        /* \"#utility.yul\":24007:24056   */\n      mstore\n        /* \"#utility.yul\":23890:24063   */\n      pop\n      jump\t// out\n        /* \"#utility.yul\":24069:24449   */\n    tag_393:\n        /* \"#utility.yul\":24209:24243   */\n      0x41424f41543a3a757064617465526577617264546f6b656e3a2054686520636f\n        /* \"#utility.yul\":24205:24206   */\n      0x00\n        /* \"#utility.yul\":24197:24203   */\n      dup3\n        /* \"#utility.yul\":24193:24207   */\n      add\n        /* \"#utility.yul\":24186:24244   */\n      mstore\n        /* \"#utility.yul\":24278:24312   */\n      0x6e74726163742073686f756c6420636f6e7461696e2061746c65617374207468\n        /* \"#utility.yul\":24273:24275   */\n      0x20\n        /* \"#utility.yul\":24265:24271   */\n      dup3\n        /* \"#utility.yul\":24261:24276   */\n      add\n        /* \"#utility.yul\":24254:24313   */\n      mstore\n        /* \"#utility.yul\":24347:24381   */\n      0x652073616d6520616d6f756e74206f6620746f6b656e732061732066726f6d20\n        /* \"#utility.yul\":24342:24344   */\n      0x40\n        /* \"#utility.yul\":24334:24340   */\n      dup3\n        /* \"#utility.yul\":24330:24345   */\n      add\n        /* \"#utility.yul\":24323:24382   */\n      mstore\n        /* \"#utility.yul\":24416:24441   */\n      0x7468652063757272656e7420726577617264546f6b656e000000000000000000\n        /* \"#utility.yul\":24411:24413   */\n      0x60\n        /* \"#utility.yul\":24403:24409   */\n      dup3\n        /* \"#utility.yul\":24399:24414   */\n      add\n        /* \"#utility.yul\":24392:24442   */\n      mstore\n        /* \"#utility.yul\":24069:24449   */\n      pop\n      jump\t// out\n        /* \"#utility.yul\":24455:24637   */\n    tag_398:\n        /* \"#utility.yul\":24595:24629   */\n      0x4f776e61626c653a2063616c6c6572206973206e6f7420746865206f776e6572\n        /* \"#utility.yul\":24591:24592   */\n      0x00\n        /* \"#utility.yul\":24583:24589   */\n      dup3\n        /* \"#utility.yul\":24579:24593   */\n      add\n        /* \"#utility.yul\":24572:24630   */\n      mstore\n        /* \"#utility.yul\":24455:24637   */\n      pop\n      jump\t// out\n        /* \"#utility.yul\":24643:24875   */\n    tag_403:\n        /* \"#utility.yul\":24783:24817   */\n      0x5472616e7366657248656c7065723a3a736166655472616e736665723a207472\n        /* \"#utility.yul\":24779:24780   */\n      0x00\n        /* \"#utility.yul\":24771:24777   */\n      dup3\n        /* \"#utility.yul\":24767:24781   */\n      add\n        /* \"#utility.yul\":24760:24818   */\n      mstore\n        /* \"#utility.yul\":24852:24867   */\n      0x616e73666572206661696c656400000000000000000000000000000000000000\n        /* \"#utility.yul\":24847:24849   */\n      0x20\n        /* \"#utility.yul\":24839:24845   */\n      dup3\n        /* \"#utility.yul\":24835:24850   */\n      add\n        /* \"#utility.yul\":24828:24868   */\n      mstore\n        /* \"#utility.yul\":24643:24875   */\n      pop\n      jump\t// out\n        /* \"#utility.yul\":24881:25003   */\n    tag_275:\n        /* \"#utility.yul\":24954:24978   */\n      tag_532\n        /* \"#utility.yul\":24972:24977   */\n      dup2\n        /* \"#utility.yul\":24954:24978   */\n      tag_331\n      jump\t// in\n    tag_532:\n        /* \"#utility.yul\":24947:24952   */\n      dup2\n        /* \"#utility.yul\":24944:24979   */\n      eq\n        /* \"#utility.yul\":24934:24997   */\n      tag_533\n      jumpi\n        /* \"#utility.yul\":24993:24994   */\n      0x00\n        /* \"#utility.yul\":24990:24991   */\n      dup1\n        /* \"#utility.yul\":24983:24995   */\n      revert\n        /* \"#utility.yul\":24934:24997   */\n    tag_533:\n        /* \"#utility.yul\":24881:25003   */\n      pop\n      jump\t// out\n        /* \"#utility.yul\":25009:25125   */\n    tag_290:\n        /* \"#utility.yul\":25079:25100   */\n      tag_535\n        /* \"#utility.yul\":25094:25099   */\n      dup2\n        /* \"#utility.yul\":25079:25100   */\n      tag_335\n      jump\t// in\n    tag_535:\n        /* \"#utility.yul\":25072:25077   */\n      dup2\n        /* \"#utility.yul\":25069:25101   */\n      eq\n        /* \"#utility.yul\":25059:25119   */\n      tag_536\n      jumpi\n        /* \"#utility.yul\":25115:25116   */\n      0x00\n        /* \"#utility.yul\":25112:25113   */\n      dup1\n        /* \"#utility.yul\":25105:25117   */\n      revert\n        /* \"#utility.yul\":25059:25119   */\n    tag_536:\n        /* \"#utility.yul\":25009:25125   */\n      pop\n      jump\t// out\n        /* \"#utility.yul\":25131:25281   */\n    tag_294:\n        /* \"#utility.yul\":25218:25256   */\n      tag_538\n        /* \"#utility.yul\":25250:25255   */\n      dup2\n        /* \"#utility.yul\":25218:25256   */\n      tag_484\n      jump\t// in\n    tag_538:\n        /* \"#utility.yul\":25211:25216   */\n      dup2\n        /* \"#utility.yul\":25208:25257   */\n      eq\n        /* \"#utility.yul\":25198:25275   */\n      tag_539\n      jumpi\n        /* \"#utility.yul\":25271:25272   */\n      0x00\n        /* \"#utility.yul\":25268:25269   */\n      dup1\n        /* \"#utility.yul\":25261:25273   */\n      revert\n        /* \"#utility.yul\":25198:25275   */\n    tag_539:\n        /* \"#utility.yul\":25131:25281   */\n      pop\n      jump\t// out\n        /* \"#utility.yul\":25287:25409   */\n    tag_297:\n        /* \"#utility.yul\":25360:25384   */\n      tag_541\n        /* \"#utility.yul\":25378:25383   */\n      dup2\n        /* \"#utility.yul\":25360:25384   */\n      tag_407\n      jump\t// in\n    tag_541:\n        /* \"#utility.yul\":25353:25358   */\n      dup2\n        /* \"#utility.yul\":25350:25385   */\n      eq\n        /* \"#utility.yul\":25340:25403   */\n      tag_542\n      jumpi\n        /* \"#utility.yul\":25399:25400   */\n      0x00\n        /* \"#utility.yul\":25396:25397   */\n      dup1\n        /* \"#utility.yul\":25389:25401   */\n      revert\n        /* \"#utility.yul\":25340:25403   */\n    tag_542:\n        /* \"#utility.yul\":25287:25409   */\n      pop\n      jump\t// out\n\n    auxdata: 0xa264697066735822122012e9138f5a8dc85750e933e34d2a1495d39d6ef2db0eb982b4d03b5d140a36f564736f6c63430008070033\n}\n",
				"bytecode": {
					"linkReferences": {},
					"object": "608060405260006002556001600360006101000a81548160ff0219169083151502179055503480156200003157600080fd5b506040516200277b3803806200277b8339818101604052810190620000579190620001a2565b620000776200006b620000bf60201b60201c565b620000c760201b60201c565b80600160006101000a81548173ffffffffffffffffffffffffffffffffffffffff021916908373ffffffffffffffffffffffffffffffffffffffff160217905550506200023b565b600033905090565b60008060009054906101000a900473ffffffffffffffffffffffffffffffffffffffff169050816000806101000a81548173ffffffffffffffffffffffffffffffffffffffff021916908373ffffffffffffffffffffffffffffffffffffffff1602179055508173ffffffffffffffffffffffffffffffffffffffff168173ffffffffffffffffffffffffffffffffffffffff167f8be0079c531659141344cd1fd0a4f28419497f9722a3daafe3b4186f6b6457e060405160405180910390a35050565b6000815190506200019c8162000221565b92915050565b600060208284031215620001bb57620001ba6200021c565b5b6000620001cb848285016200018b565b91505092915050565b6000620001e182620001fc565b9050919050565b6000620001f582620001d4565b9050919050565b600073ffffffffffffffffffffffffffffffffffffffff82169050919050565b600080fd5b6200022c81620001e8565b81146200023857600080fd5b50565b612530806200024b6000396000f3fe608060405234801561001057600080fd5b50600436106101215760003560e01c80638da5cb5b116100ad578063ef78d4fd11610071578063ef78d4fd146102c2578063f2fde38b146102e0578063f3739e05146102fc578063f7c618c11461032c578063f8cf31cb1461034a57610121565b80638da5cb5b146102085780639c92431b14610226578063a5ebf83514610244578063a960c65f14610262578063c884ef831461029257610121565b80634e71d92d116100f45780634e71d92d1461018a5780635372a58e14610194578063667022fd146101b0578063715018a6146101e0578063856734c4146101ea57610121565b8063151bad0a14610126578063293cdbf1146101445780632f6619461461014e5780634b8bcb581461016c575b600080fd5b61012e610366565b60405161013b9190611cd5565b60405180910390f35b61014c61036b565b005b610156610462565b6040516101639190611cd5565b60405180910390f35b610174610467565b6040516101819190611cd5565b60405180910390f35b61019261046d565b005b6101ae60048036038101906101a991906117f7565b6109d7565b005b6101ca60048036038101906101c591906117ca565b610c87565b6040516101d79190611cd5565b60405180910390f35b6101e8610c9f565b005b6101f2610d27565b6040516101ff9190611b3f565b60405180910390f35b610210610d3a565b60405161021d9190611afb565b60405180910390f35b61022e610d63565b60405161023b9190611cd5565b60405180910390f35b61024c610e16565b6040516102599190611cd5565b60405180910390f35b61027c600480360381019061027791906117ca565b610e1b565b6040516102899190611cd5565b60405180910390f35b6102ac60048036038101906102a791906117ca565b610e33565b6040516102b99190611cd5565b60405180910390f35b6102ca610e4b565b6040516102d79190611cd5565b60405180910390f35b6102fa60048036038101906102f591906117ca565b610e50565b005b610316600480360381019061031191906117ca565b610f48565b6040516103239190611afb565b60405180910390f35b610334610f7b565b6040516103419190611b5a565b60405180910390f35b610364600480360381019061035f919061189c565b610fa1565b005b603281565b6103736112cb565b73ffffffffffffffffffffffffffffffffffffffff16610391610d3a565b73ffffffffffffffffffffffffffffffffffffffff16146103e7576040517f08c379a00000000000000000000000000000000000000000000000000000000081526004016103de90611c95565b60405180910390fd5b60006002541461042c576040517f08c379a000000000000000000000000000000000000000000000000000000000815260040161042390611c55565b60405180910390fd5b42600281905550427f7d425ef8bc8f854f0bddfa263a1a52ae42adbddd9c9c95ad3f21b1e2d311c4ca60405160405180910390a2565b600a81565b60025481565b600060025414156104b3576040517f08c379a00000000000000000000000000000000000000000000000000000000081526004016104aa90611b95565b60405180910390fd5b60006104bd610d63565b905060008111610502576040517f08c379a00000000000000000000000000000000000000000000000000000000081526004016104f990611c35565b60405180910390fd5b600160009054906101000a900473ffffffffffffffffffffffffffffffffffffffff1673ffffffffffffffffffffffffffffffffffffffff16600760003373ffffffffffffffffffffffffffffffffffffffff1673ffffffffffffffffffffffffffffffffffffffff16815260200190815260200160002060009054906101000a900473ffffffffffffffffffffffffffffffffffffffff1673ffffffffffffffffffffffffffffffffffffffff16146106e157600160009054906101000a900473ffffffffffffffffffffffffffffffffffffffff16600760003373ffffffffffffffffffffffffffffffffffffffff1673ffffffffffffffffffffffffffffffffffffffff16815260200190815260200160002060006101000a81548173ffffffffffffffffffffffffffffffffffffffff021916908373ffffffffffffffffffffffffffffffffffffffff1602179055506000600560003373ffffffffffffffffffffffffffffffffffffffff1673ffffffffffffffffffffffffffffffffffffffff168152602001908152602001600020819055506000600660003373ffffffffffffffffffffffffffffffffffffffff1673ffffffffffffffffffffffffffffffffffffffff168152602001908152602001600020819055505b80600560003373ffffffffffffffffffffffffffffffffffffffff1673ffffffffffffffffffffffffffffffffffffffff1681526020019081526020016000205410610762576040517f08c379a000000000000000000000000000000000000000000000000000000000815260040161075990611bd5565b60405180910390fd5b6000600560003373ffffffffffffffffffffffffffffffffffffffff1673ffffffffffffffffffffffffffffffffffffffff16815260200190815260200160002054905081600560003373ffffffffffffffffffffffffffffffffffffffff1673ffffffffffffffffffffffffffffffffffffffff1681526020019081526020016000208190555060006108646103e861085661080885876112d390919063ffffffff16565b600460003373ffffffffffffffffffffffffffffffffffffffff1673ffffffffffffffffffffffffffffffffffffffff168152602001908152602001600020546112e990919063ffffffff16565b6112ff90919063ffffffff16565b90506108b881600660003373ffffffffffffffffffffffffffffffffffffffff1673ffffffffffffffffffffffffffffffffffffffff1681526020019081526020016000205461131590919063ffffffff16565b600660003373ffffffffffffffffffffffffffffffffffffffff1673ffffffffffffffffffffffffffffffffffffffff16815260200190815260200160002081905550600073ffffffffffffffffffffffffffffffffffffffff16600160009054906101000a900473ffffffffffffffffffffffffffffffffffffffff1673ffffffffffffffffffffffffffffffffffffffff16146109835761097e600160009054906101000a900473ffffffffffffffffffffffffffffffffffffffff16338361132b565b61098e565b61098d3382611461565b5b803373ffffffffffffffffffffffffffffffffffffffff167fd8138f8a3f377c5259ca548e70e4c2de94f129f5a11036a15b69513cba2b426a60405160405180910390a3505050565b6109df6112cb565b73ffffffffffffffffffffffffffffffffffffffff166109fd610d3a565b73ffffffffffffffffffffffffffffffffffffffff1614610a53576040517f08c379a0000000000000000000000000000000000000000000000000000000008152600401610a4a90611c95565b60405180910390fd5b606482511115610a98576040517f08c379a0000000000000000000000000000000000000000000000000000000008152600401610a8f90611bf5565b60405180910390fd5b60005b8251811015610c5457610b2a828281518110610aba57610ab9612044565b5b602002602001015160046000868581518110610ad957610ad8612044565b5b602002602001015173ffffffffffffffffffffffffffffffffffffffff1673ffffffffffffffffffffffffffffffffffffffff1681526020019081526020016000205461131590919063ffffffff16565b60046000858481518110610b4157610b40612044565b5b602002602001015173ffffffffffffffffffffffffffffffffffffffff1673ffffffffffffffffffffffffffffffffffffffff16815260200190815260200160002081905550600160009054906101000a900473ffffffffffffffffffffffffffffffffffffffff1660076000858481518110610bc157610bc0612044565b5b602002602001015173ffffffffffffffffffffffffffffffffffffffff1673ffffffffffffffffffffffffffffffffffffffff16815260200190815260200160002060006101000a81548173ffffffffffffffffffffffffffffffffffffffff021916908373ffffffffffffffffffffffffffffffffffffffff1602179055508080610c4c90611f9d565b915050610a9b565b5081517f6074084f4dbd9879d266f074be61eb039a0db2aa46e98e700223ad5c2bef5bd560405160405180910390a25050565b60046020528060005260406000206000915090505481565b610ca76112cb565b73ffffffffffffffffffffffffffffffffffffffff16610cc5610d3a565b73ffffffffffffffffffffffffffffffffffffffff1614610d1b576040517f08c379a0000000000000000000000000000000000000000000000000000000008152600401610d1290611c95565b60405180910390fd5b610d256000611561565b565b600360009054906101000a900460ff1681565b60008060009054906101000a900473ffffffffffffffffffffffffffffffffffffffff16905090565b600080610d7c600a60025461131590919063ffffffff16565b90506000819050600080600254118015610d9557508142115b610da0576064610df9565b610df86064610dea6032610ddc603c6002610dbb9190611e1b565b610dce88426112d390919063ffffffff16565b6112ff90919063ffffffff16565b6112e990919063ffffffff16565b61131590919063ffffffff16565b5b90506103e88111610e0a5780610e0e565b6103e85b935050505090565b606481565b60066020528060005260406000206000915090505481565b60056020528060005260406000206000915090505481565b600281565b610e586112cb565b73ffffffffffffffffffffffffffffffffffffffff16610e76610d3a565b73ffffffffffffffffffffffffffffffffffffffff1614610ecc576040517f08c379a0000000000000000000000000000000000000000000000000000000008152600401610ec390611c95565b60405180910390fd5b600073ffffffffffffffffffffffffffffffffffffffff168173ffffffffffffffffffffffffffffffffffffffff161415610f3c576040517f08c379a0000000000000000000000000000000000000000000000000000000008152600401610f3390611b75565b60405180910390fd5b610f4581611561565b50565b60076020528060005260406000206000915054906101000a900473ffffffffffffffffffffffffffffffffffffffff1681565b600160009054906101000a900473ffffffffffffffffffffffffffffffffffffffff1681565b610fa96112cb565b73ffffffffffffffffffffffffffffffffffffffff16610fc7610d3a565b73ffffffffffffffffffffffffffffffffffffffff161461101d576040517f08c379a000000000000000000000000000000000000000000000000000000000815260040161101490611c95565b60405180910390fd5b600160009054906101000a900473ffffffffffffffffffffffffffffffffffffffff1673ffffffffffffffffffffffffffffffffffffffff168173ffffffffffffffffffffffffffffffffffffffff1614156110ae576040517f08c379a00000000000000000000000000000000000000000000000000000000081526004016110a590611c15565b60405180910390fd5b600160009054906101000a900473ffffffffffffffffffffffffffffffffffffffff1673ffffffffffffffffffffffffffffffffffffffff166370a08231306040518263ffffffff1660e01b81526004016111099190611afb565b60206040518083038186803b15801561112157600080fd5b505afa158015611135573d6000803e3d6000fd5b505050506040513d601f19601f8201168201806040525081019061115991906118c9565b8173ffffffffffffffffffffffffffffffffffffffff166370a08231306040518263ffffffff1660e01b81526004016111929190611afb565b60206040518083038186803b1580156111aa57600080fd5b505afa1580156111be573d6000803e3d6000fd5b505050506040513d601f19601f820116820180604052508101906111e291906118c9565b14611222576040517f08c379a000000000000000000000000000000000000000000000000000000000815260040161121990611c75565b60405180910390fd5b80600160006101000a81548173ffffffffffffffffffffffffffffffffffffffff021916908373ffffffffffffffffffffffffffffffffffffffff160217905550600160009054906101000a900473ffffffffffffffffffffffffffffffffffffffff1673ffffffffffffffffffffffffffffffffffffffff167f3fcfc24a3384ca156092d9242cb0f84abaf442146d91b8c93bea526561b83f8360405160405180910390a250565b600033905090565b600081836112e19190611e75565b905092915050565b600081836112f79190611e1b565b905092915050565b6000818361130d9190611dea565b905092915050565b600081836113239190611d94565b905092915050565b6000808473ffffffffffffffffffffffffffffffffffffffff1663a9059cbb858560405160240161135d929190611b16565b6040516020818303038152906040529060e01b6020820180517bffffffffffffffffffffffffffffffffffffffffffffffffffffffff83818316178352505050506040516113ab9190611ae4565b6000604051808303816000865af19150503d80600081146113e8576040519150601f19603f3d011682016040523d82523d6000602084013e6113ed565b606091505b509150915081801561141b575060008151148061141a575080806020019051810190611419919061186f565b5b5b61145a576040517f08c379a000000000000000000000000000000000000000000000000000000000815260040161145190611cb5565b60405180910390fd5b5050505050565b60008273ffffffffffffffffffffffffffffffffffffffff1682600067ffffffffffffffff81111561149657611495612073565b5b6040519080825280601f01601f1916602001820160405280156114c85781602001600182028036833780820191505090505b506040516114d69190611ae4565b60006040518083038185875af1925050503d8060008114611513576040519150601f19603f3d011682016040523d82523d6000602084013e611518565b606091505b505090508061155c576040517f08c379a000000000000000000000000000000000000000000000000000000000815260040161155390611bb5565b60405180910390fd5b505050565b60008060009054906101000a900473ffffffffffffffffffffffffffffffffffffffff169050816000806101000a81548173ffffffffffffffffffffffffffffffffffffffff021916908373ffffffffffffffffffffffffffffffffffffffff1602179055508173ffffffffffffffffffffffffffffffffffffffff168173ffffffffffffffffffffffffffffffffffffffff167f8be0079c531659141344cd1fd0a4f28419497f9722a3daafe3b4186f6b6457e060405160405180910390a35050565b600061163861163384611d15565b611cf0565b9050808382526020820190508285602086028201111561165b5761165a6120a7565b5b60005b8581101561168b57816116718882611705565b84526020840193506020830192505060018101905061165e565b5050509392505050565b60006116a86116a384611d41565b611cf0565b905080838252602082019050828560208602820111156116cb576116ca6120a7565b5b60005b858110156116fb57816116e188826117a0565b8452602084019350602083019250506001810190506116ce565b5050509392505050565b6000813590506117148161249e565b92915050565b600082601f83011261172f5761172e6120a2565b5b813561173f848260208601611625565b91505092915050565b600082601f83011261175d5761175c6120a2565b5b813561176d848260208601611695565b91505092915050565b600081519050611785816124b5565b92915050565b60008135905061179a816124cc565b92915050565b6000813590506117af816124e3565b92915050565b6000815190506117c4816124e3565b92915050565b6000602082840312156117e0576117df6120b1565b5b60006117ee84828501611705565b91505092915050565b6000806040838503121561180e5761180d6120b1565b5b600083013567ffffffffffffffff81111561182c5761182b6120ac565b5b6118388582860161171a565b925050602083013567ffffffffffffffff811115611859576118586120ac565b5b61186585828601611748565b9150509250929050565b600060208284031215611885576118846120b1565b5b600061189384828501611776565b91505092915050565b6000602082840312156118b2576118b16120b1565b5b60006118c08482850161178b565b91505092915050565b6000602082840312156118df576118de6120b1565b5b60006118ed848285016117b5565b91505092915050565b6118ff81611ea9565b82525050565b61190e81611ebb565b82525050565b600061191f82611d6d565b6119298185611d78565b9350611939818560208601611f39565b80840191505092915050565b61194e81611f03565b82525050565b6000611961602683611d83565b915061196c826120c7565b604082019050919050565b6000611984602483611d83565b915061198f82612116565b604082019050919050565b60006119a7603483611d83565b91506119b282612165565b604082019050919050565b60006119ca603c83611d83565b91506119d5826121b4565b604082019050919050565b60006119ed604883611d83565b91506119f882612203565b606082019050919050565b6000611a10604683611d83565b9150611a1b82612278565b606082019050919050565b6000611a33605d83611d83565b9150611a3e826122ed565b606082019050919050565b6000611a56601783611d83565b9150611a6182612362565b602082019050919050565b6000611a79607783611d83565b9150611a848261238b565b608082019050919050565b6000611a9c602083611d83565b9150611aa782612426565b602082019050919050565b6000611abf602d83611d83565b9150611aca8261244f565b604082019050919050565b611ade81611ef9565b82525050565b6000611af08284611914565b915081905092915050565b6000602082019050611b1060008301846118f6565b92915050565b6000604082019050611b2b60008301856118f6565b611b386020830184611ad5565b9392505050565b6000602082019050611b546000830184611905565b92915050565b6000602082019050611b6f6000830184611945565b92915050565b60006020820190508181036000830152611b8e81611954565b9050919050565b60006020820190508181036000830152611bae81611977565b9050919050565b60006020820190508181036000830152611bce8161199a565b9050919050565b60006020820190508181036000830152611bee816119bd565b9050919050565b60006020820190508181036000830152611c0e816119e0565b9050919050565b60006020820190508181036000830152611c2e81611a03565b9050919050565b60006020820190508181036000830152611c4e81611a26565b9050919050565b60006020820190508181036000830152611c6e81611a49565b9050919050565b60006020820190508181036000830152611c8e81611a6c565b9050919050565b60006020820190508181036000830152611cae81611a8f565b9050919050565b60006020820190508181036000830152611cce81611ab2565b9050919050565b6000602082019050611cea6000830184611ad5565b92915050565b6000611cfa611d0b565b9050611d068282611f6c565b919050565b6000604051905090565b600067ffffffffffffffff821115611d3057611d2f612073565b5b602082029050602081019050919050565b600067ffffffffffffffff821115611d5c57611d5b612073565b5b602082029050602081019050919050565b600081519050919050565b600081905092915050565b600082825260208201905092915050565b6000611d9f82611ef9565b9150611daa83611ef9565b9250827fffffffffffffffffffffffffffffffffffffffffffffffffffffffffffffffff03821115611ddf57611dde611fe6565b5b828201905092915050565b6000611df582611ef9565b9150611e0083611ef9565b925082611e1057611e0f612015565b5b828204905092915050565b6000611e2682611ef9565b9150611e3183611ef9565b9250817fffffffffffffffffffffffffffffffffffffffffffffffffffffffffffffffff0483118215151615611e6a57611e69611fe6565b5b828202905092915050565b6000611e8082611ef9565b9150611e8b83611ef9565b925082821015611e9e57611e9d611fe6565b5b828203905092915050565b6000611eb482611ed9565b9050919050565b60008115159050919050565b6000611ed282611ea9565b9050919050565b600073ffffffffffffffffffffffffffffffffffffffff82169050919050565b6000819050919050565b6000611f0e82611f15565b9050919050565b6000611f2082611f27565b9050919050565b6000611f3282611ed9565b9050919050565b60005b83811015611f57578082015181840152602081019050611f3c565b83811115611f66576000848401525b50505050565b611f75826120b6565b810181811067ffffffffffffffff82111715611f9457611f93612073565b5b80604052505050565b6000611fa882611ef9565b91507fffffffffffffffffffffffffffffffffffffffffffffffffffffffffffffffff821415611fdb57611fda611fe6565b5b600182019050919050565b7f4e487b7100000000000000000000000000000000000000000000000000000000600052601160045260246000fd5b7f4e487b7100000000000000000000000000000000000000000000000000000000600052601260045260246000fd5b7f4e487b7100000000000000000000000000000000000000000000000000000000600052603260045260246000fd5b7f4e487b7100000000000000000000000000000000000000000000000000000000600052604160045260246000fd5b600080fd5b600080fd5b600080fd5b600080fd5b6000601f19601f8301169050919050565b7f4f776e61626c653a206e6577206f776e657220697320746865207a65726f206160008201527f6464726573730000000000000000000000000000000000000000000000000000602082015250565b7f41424f41543a3a636c61696d3a20436c61696d206973206e6f74206f70656e2060008201527f7965742100000000000000000000000000000000000000000000000000000000602082015250565b7f5472616e7366657248656c7065723a3a736166655472616e736665724554483a60008201527f20455448207472616e73666572206661696c6564000000000000000000000000602082015250565b7f41424f41543a3a636c61696d3a20416c726561647920636c61696d656420796f60008201527f75722063757272656e746c7920656c696769626c6520746f6b656e7300000000602082015250565b7f41424f41543a3a77686974656c6973743a20596f752063616e2774206164642060008201527f6d6f7265207468616e203130302061646472657373657320617420746865207360208201527f616d652074696d65000000000000000000000000000000000000000000000000604082015250565b7f41424f41543a3a757064617465526577617264546f6b656e3a204e657720726560008201527f776172642073686f756c6420626520646966666572656e742066726f6d20637560208201527f7272656e742e0000000000000000000000000000000000000000000000000000604082015250565b7f41424f41543a3a636c61696d3a205468652070657263656e74616765206f662060008201527f746f6b656e20796f752063616e20636c61696d2069732063757272656e746c7960208201527f207a65726f2e20506c656173652074727920616761696e206c61746572000000604082015250565b7f436c61696d20697320616c7265616479206f70656e6564000000000000000000600082015250565b7f41424f41543a3a757064617465526577617264546f6b656e3a2054686520636f60008201527f6e74726163742073686f756c6420636f6e7461696e2061746c6561737420746860208201527f652073616d6520616d6f756e74206f6620746f6b656e732061732066726f6d2060408201527f7468652063757272656e7420726577617264546f6b656e000000000000000000606082015250565b7f4f776e61626c653a2063616c6c6572206973206e6f7420746865206f776e6572600082015250565b7f5472616e7366657248656c7065723a3a736166655472616e736665723a20747260008201527f616e73666572206661696c656400000000000000000000000000000000000000602082015250565b6124a781611ea9565b81146124b257600080fd5b50565b6124be81611ebb565b81146124c957600080fd5b50565b6124d581611ec7565b81146124e057600080fd5b50565b6124ec81611ef9565b81146124f757600080fd5b5056fea264697066735822122012e9138f5a8dc85750e933e34d2a1495d39d6ef2db0eb982b4d03b5d140a36f564736f6c63430008070033",
					"opcodes": "PUSH1 0x80 PUSH1 0x40 MSTORE PUSH1 0x0 PUSH1 0x2 SSTORE PUSH1 0x1 PUSH1 0x3 PUSH1 0x0 PUSH2 0x100 EXP DUP2 SLOAD DUP2 PUSH1 0xFF MUL NOT AND SWAP1 DUP4 ISZERO ISZERO MUL OR SWAP1 SSTORE POP CALLVALUE DUP1 ISZERO PUSH3 0x31 JUMPI PUSH1 0x0 DUP1 REVERT JUMPDEST POP PUSH1 0x40 MLOAD PUSH3 0x277B CODESIZE SUB DUP1 PUSH3 0x277B DUP4 CODECOPY DUP2 DUP2 ADD PUSH1 0x40 MSTORE DUP2 ADD SWAP1 PUSH3 0x57 SWAP2 SWAP1 PUSH3 0x1A2 JUMP JUMPDEST PUSH3 0x77 PUSH3 0x6B PUSH3 0xBF PUSH1 0x20 SHL PUSH1 0x20 SHR JUMP JUMPDEST PUSH3 0xC7 PUSH1 0x20 SHL PUSH1 0x20 SHR JUMP JUMPDEST DUP1 PUSH1 0x1 PUSH1 0x0 PUSH2 0x100 EXP DUP2 SLOAD DUP2 PUSH20 0xFFFFFFFFFFFFFFFFFFFFFFFFFFFFFFFFFFFFFFFF MUL NOT AND SWAP1 DUP4 PUSH20 0xFFFFFFFFFFFFFFFFFFFFFFFFFFFFFFFFFFFFFFFF AND MUL OR SWAP1 SSTORE POP POP PUSH3 0x23B JUMP JUMPDEST PUSH1 0x0 CALLER SWAP1 POP SWAP1 JUMP JUMPDEST PUSH1 0x0 DUP1 PUSH1 0x0 SWAP1 SLOAD SWAP1 PUSH2 0x100 EXP SWAP1 DIV PUSH20 0xFFFFFFFFFFFFFFFFFFFFFFFFFFFFFFFFFFFFFFFF AND SWAP1 POP DUP2 PUSH1 0x0 DUP1 PUSH2 0x100 EXP DUP2 SLOAD DUP2 PUSH20 0xFFFFFFFFFFFFFFFFFFFFFFFFFFFFFFFFFFFFFFFF MUL NOT AND SWAP1 DUP4 PUSH20 0xFFFFFFFFFFFFFFFFFFFFFFFFFFFFFFFFFFFFFFFF AND MUL OR SWAP1 SSTORE POP DUP2 PUSH20 0xFFFFFFFFFFFFFFFFFFFFFFFFFFFFFFFFFFFFFFFF AND DUP2 PUSH20 0xFFFFFFFFFFFFFFFFFFFFFFFFFFFFFFFFFFFFFFFF AND PUSH32 0x8BE0079C531659141344CD1FD0A4F28419497F9722A3DAAFE3B4186F6B6457E0 PUSH1 0x40 MLOAD PUSH1 0x40 MLOAD DUP1 SWAP2 SUB SWAP1 LOG3 POP POP JUMP JUMPDEST PUSH1 0x0 DUP2 MLOAD SWAP1 POP PUSH3 0x19C DUP2 PUSH3 0x221 JUMP JUMPDEST SWAP3 SWAP2 POP POP JUMP JUMPDEST PUSH1 0x0 PUSH1 0x20 DUP3 DUP5 SUB SLT ISZERO PUSH3 0x1BB JUMPI PUSH3 0x1BA PUSH3 0x21C JUMP JUMPDEST JUMPDEST PUSH1 0x0 PUSH3 0x1CB DUP5 DUP3 DUP6 ADD PUSH3 0x18B JUMP JUMPDEST SWAP2 POP POP SWAP3 SWAP2 POP POP JUMP JUMPDEST PUSH1 0x0 PUSH3 0x1E1 DUP3 PUSH3 0x1FC JUMP JUMPDEST SWAP1 POP SWAP2 SWAP1 POP JUMP JUMPDEST PUSH1 0x0 PUSH3 0x1F5 DUP3 PUSH3 0x1D4 JUMP JUMPDEST SWAP1 POP SWAP2 SWAP1 POP JUMP JUMPDEST PUSH1 0x0 PUSH20 0xFFFFFFFFFFFFFFFFFFFFFFFFFFFFFFFFFFFFFFFF DUP3 AND SWAP1 POP SWAP2 SWAP1 POP JUMP JUMPDEST PUSH1 0x0 DUP1 REVERT JUMPDEST PUSH3 0x22C DUP2 PUSH3 0x1E8 JUMP JUMPDEST DUP2 EQ PUSH3 0x238 JUMPI PUSH1 0x0 DUP1 REVERT JUMPDEST POP JUMP JUMPDEST PUSH2 0x2530 DUP1 PUSH3 0x24B PUSH1 0x0 CODECOPY PUSH1 0x0 RETURN INVALID PUSH1 0x80 PUSH1 0x40 MSTORE CALLVALUE DUP1 ISZERO PUSH2 0x10 JUMPI PUSH1 0x0 DUP1 REVERT JUMPDEST POP PUSH1 0x4 CALLDATASIZE LT PUSH2 0x121 JUMPI PUSH1 0x0 CALLDATALOAD PUSH1 0xE0 SHR DUP1 PUSH4 0x8DA5CB5B GT PUSH2 0xAD JUMPI DUP1 PUSH4 0xEF78D4FD GT PUSH2 0x71 JUMPI DUP1 PUSH4 0xEF78D4FD EQ PUSH2 0x2C2 JUMPI DUP1 PUSH4 0xF2FDE38B EQ PUSH2 0x2E0 JUMPI DUP1 PUSH4 0xF3739E05 EQ PUSH2 0x2FC JUMPI DUP1 PUSH4 0xF7C618C1 EQ PUSH2 0x32C JUMPI DUP1 PUSH4 0xF8CF31CB EQ PUSH2 0x34A JUMPI PUSH2 0x121 JUMP JUMPDEST DUP1 PUSH4 0x8DA5CB5B EQ PUSH2 0x208 JUMPI DUP1 PUSH4 0x9C92431B EQ PUSH2 0x226 JUMPI DUP1 PUSH4 0xA5EBF835 EQ PUSH2 0x244 JUMPI DUP1 PUSH4 0xA960C65F EQ PUSH2 0x262 JUMPI DUP1 PUSH4 0xC884EF83 EQ PUSH2 0x292 JUMPI PUSH2 0x121 JUMP JUMPDEST DUP1 PUSH4 0x4E71D92D GT PUSH2 0xF4 JUMPI DUP1 PUSH4 0x4E71D92D EQ PUSH2 0x18A JUMPI DUP1 PUSH4 0x5372A58E EQ PUSH2 0x194 JUMPI DUP1 PUSH4 0x667022FD EQ PUSH2 0x1B0 JUMPI DUP1 PUSH4 0x715018A6 EQ PUSH2 0x1E0 JUMPI DUP1 PUSH4 0x856734C4 EQ PUSH2 0x1EA JUMPI PUSH2 0x121 JUMP JUMPDEST DUP1 PUSH4 0x151BAD0A EQ PUSH2 0x126 JUMPI DUP1 PUSH4 0x293CDBF1 EQ PUSH2 0x144 JUMPI DUP1 PUSH4 0x2F661946 EQ PUSH2 0x14E JUMPI DUP1 PUSH4 0x4B8BCB58 EQ PUSH2 0x16C JUMPI JUMPDEST PUSH1 0x0 DUP1 REVERT JUMPDEST PUSH2 0x12E PUSH2 0x366 JUMP JUMPDEST PUSH1 0x40 MLOAD PUSH2 0x13B SWAP2 SWAP1 PUSH2 0x1CD5 JUMP JUMPDEST PUSH1 0x40 MLOAD DUP1 SWAP2 SUB SWAP1 RETURN JUMPDEST PUSH2 0x14C PUSH2 0x36B JUMP JUMPDEST STOP JUMPDEST PUSH2 0x156 PUSH2 0x462 JUMP JUMPDEST PUSH1 0x40 MLOAD PUSH2 0x163 SWAP2 SWAP1 PUSH2 0x1CD5 JUMP JUMPDEST PUSH1 0x40 MLOAD DUP1 SWAP2 SUB SWAP1 RETURN JUMPDEST PUSH2 0x174 PUSH2 0x467 JUMP JUMPDEST PUSH1 0x40 MLOAD PUSH2 0x181 SWAP2 SWAP1 PUSH2 0x1CD5 JUMP JUMPDEST PUSH1 0x40 MLOAD DUP1 SWAP2 SUB SWAP1 RETURN JUMPDEST PUSH2 0x192 PUSH2 0x46D JUMP JUMPDEST STOP JUMPDEST PUSH2 0x1AE PUSH1 0x4 DUP1 CALLDATASIZE SUB DUP2 ADD SWAP1 PUSH2 0x1A9 SWAP2 SWAP1 PUSH2 0x17F7 JUMP JUMPDEST PUSH2 0x9D7 JUMP JUMPDEST STOP JUMPDEST PUSH2 0x1CA PUSH1 0x4 DUP1 CALLDATASIZE SUB DUP2 ADD SWAP1 PUSH2 0x1C5 SWAP2 SWAP1 PUSH2 0x17CA JUMP JUMPDEST PUSH2 0xC87 JUMP JUMPDEST PUSH1 0x40 MLOAD PUSH2 0x1D7 SWAP2 SWAP1 PUSH2 0x1CD5 JUMP JUMPDEST PUSH1 0x40 MLOAD DUP1 SWAP2 SUB SWAP1 RETURN JUMPDEST PUSH2 0x1E8 PUSH2 0xC9F JUMP JUMPDEST STOP JUMPDEST PUSH2 0x1F2 PUSH2 0xD27 JUMP JUMPDEST PUSH1 0x40 MLOAD PUSH2 0x1FF SWAP2 SWAP1 PUSH2 0x1B3F JUMP JUMPDEST PUSH1 0x40 MLOAD DUP1 SWAP2 SUB SWAP1 RETURN JUMPDEST PUSH2 0x210 PUSH2 0xD3A JUMP JUMPDEST PUSH1 0x40 MLOAD PUSH2 0x21D SWAP2 SWAP1 PUSH2 0x1AFB JUMP JUMPDEST PUSH1 0x40 MLOAD DUP1 SWAP2 SUB SWAP1 RETURN JUMPDEST PUSH2 0x22E PUSH2 0xD63 JUMP JUMPDEST PUSH1 0x40 MLOAD PUSH2 0x23B SWAP2 SWAP1 PUSH2 0x1CD5 JUMP JUMPDEST PUSH1 0x40 MLOAD DUP1 SWAP2 SUB SWAP1 RETURN JUMPDEST PUSH2 0x24C PUSH2 0xE16 JUMP JUMPDEST PUSH1 0x40 MLOAD PUSH2 0x259 SWAP2 SWAP1 PUSH2 0x1CD5 JUMP JUMPDEST PUSH1 0x40 MLOAD DUP1 SWAP2 SUB SWAP1 RETURN JUMPDEST PUSH2 0x27C PUSH1 0x4 DUP1 CALLDATASIZE SUB DUP2 ADD SWAP1 PUSH2 0x277 SWAP2 SWAP1 PUSH2 0x17CA JUMP JUMPDEST PUSH2 0xE1B JUMP JUMPDEST PUSH1 0x40 MLOAD PUSH2 0x289 SWAP2 SWAP1 PUSH2 0x1CD5 JUMP JUMPDEST PUSH1 0x40 MLOAD DUP1 SWAP2 SUB SWAP1 RETURN JUMPDEST PUSH2 0x2AC PUSH1 0x4 DUP1 CALLDATASIZE SUB DUP2 ADD SWAP1 PUSH2 0x2A7 SWAP2 SWAP1 PUSH2 0x17CA JUMP JUMPDEST PUSH2 0xE33 JUMP JUMPDEST PUSH1 0x40 MLOAD PUSH2 0x2B9 SWAP2 SWAP1 PUSH2 0x1CD5 JUMP JUMPDEST PUSH1 0x40 MLOAD DUP1 SWAP2 SUB SWAP1 RETURN JUMPDEST PUSH2 0x2CA PUSH2 0xE4B JUMP JUMPDEST PUSH1 0x40 MLOAD PUSH2 0x2D7 SWAP2 SWAP1 PUSH2 0x1CD5 JUMP JUMPDEST PUSH1 0x40 MLOAD DUP1 SWAP2 SUB SWAP1 RETURN JUMPDEST PUSH2 0x2FA PUSH1 0x4 DUP1 CALLDATASIZE SUB DUP2 ADD SWAP1 PUSH2 0x2F5 SWAP2 SWAP1 PUSH2 0x17CA JUMP JUMPDEST PUSH2 0xE50 JUMP JUMPDEST STOP JUMPDEST PUSH2 0x316 PUSH1 0x4 DUP1 CALLDATASIZE SUB DUP2 ADD SWAP1 PUSH2 0x311 SWAP2 SWAP1 PUSH2 0x17CA JUMP JUMPDEST PUSH2 0xF48 JUMP JUMPDEST PUSH1 0x40 MLOAD PUSH2 0x323 SWAP2 SWAP1 PUSH2 0x1AFB JUMP JUMPDEST PUSH1 0x40 MLOAD DUP1 SWAP2 SUB SWAP1 RETURN JUMPDEST PUSH2 0x334 PUSH2 0xF7B JUMP JUMPDEST PUSH1 0x40 MLOAD PUSH2 0x341 SWAP2 SWAP1 PUSH2 0x1B5A JUMP JUMPDEST PUSH1 0x40 MLOAD DUP1 SWAP2 SUB SWAP1 RETURN JUMPDEST PUSH2 0x364 PUSH1 0x4 DUP1 CALLDATASIZE SUB DUP2 ADD SWAP1 PUSH2 0x35F SWAP2 SWAP1 PUSH2 0x189C JUMP JUMPDEST PUSH2 0xFA1 JUMP JUMPDEST STOP JUMPDEST PUSH1 0x32 DUP2 JUMP JUMPDEST PUSH2 0x373 PUSH2 0x12CB JUMP JUMPDEST PUSH20 0xFFFFFFFFFFFFFFFFFFFFFFFFFFFFFFFFFFFFFFFF AND PUSH2 0x391 PUSH2 0xD3A JUMP JUMPDEST PUSH20 0xFFFFFFFFFFFFFFFFFFFFFFFFFFFFFFFFFFFFFFFF AND EQ PUSH2 0x3E7 JUMPI PUSH1 0x40 MLOAD PUSH32 0x8C379A000000000000000000000000000000000000000000000000000000000 DUP2 MSTORE PUSH1 0x4 ADD PUSH2 0x3DE SWAP1 PUSH2 0x1C95 JUMP JUMPDEST PUSH1 0x40 MLOAD DUP1 SWAP2 SUB SWAP1 REVERT JUMPDEST PUSH1 0x0 PUSH1 0x2 SLOAD EQ PUSH2 0x42C JUMPI PUSH1 0x40 MLOAD PUSH32 0x8C379A000000000000000000000000000000000000000000000000000000000 DUP2 MSTORE PUSH1 0x4 ADD PUSH2 0x423 SWAP1 PUSH2 0x1C55 JUMP JUMPDEST PUSH1 0x40 MLOAD DUP1 SWAP2 SUB SWAP1 REVERT JUMPDEST TIMESTAMP PUSH1 0x2 DUP2 SWAP1 SSTORE POP TIMESTAMP PUSH32 0x7D425EF8BC8F854F0BDDFA263A1A52AE42ADBDDD9C9C95AD3F21B1E2D311C4CA PUSH1 0x40 MLOAD PUSH1 0x40 MLOAD DUP1 SWAP2 SUB SWAP1 LOG2 JUMP JUMPDEST PUSH1 0xA DUP2 JUMP JUMPDEST PUSH1 0x2 SLOAD DUP2 JUMP JUMPDEST PUSH1 0x0 PUSH1 0x2 SLOAD EQ ISZERO PUSH2 0x4B3 JUMPI PUSH1 0x40 MLOAD PUSH32 0x8C379A000000000000000000000000000000000000000000000000000000000 DUP2 MSTORE PUSH1 0x4 ADD PUSH2 0x4AA SWAP1 PUSH2 0x1B95 JUMP JUMPDEST PUSH1 0x40 MLOAD DUP1 SWAP2 SUB SWAP1 REVERT JUMPDEST PUSH1 0x0 PUSH2 0x4BD PUSH2 0xD63 JUMP JUMPDEST SWAP1 POP PUSH1 0x0 DUP2 GT PUSH2 0x502 JUMPI PUSH1 0x40 MLOAD PUSH32 0x8C379A000000000000000000000000000000000000000000000000000000000 DUP2 MSTORE PUSH1 0x4 ADD PUSH2 0x4F9 SWAP1 PUSH2 0x1C35 JUMP JUMPDEST PUSH1 0x40 MLOAD DUP1 SWAP2 SUB SWAP1 REVERT JUMPDEST PUSH1 0x1 PUSH1 0x0 SWAP1 SLOAD SWAP1 PUSH2 0x100 EXP SWAP1 DIV PUSH20 0xFFFFFFFFFFFFFFFFFFFFFFFFFFFFFFFFFFFFFFFF AND PUSH20 0xFFFFFFFFFFFFFFFFFFFFFFFFFFFFFFFFFFFFFFFF AND PUSH1 0x7 PUSH1 0x0 CALLER PUSH20 0xFFFFFFFFFFFFFFFFFFFFFFFFFFFFFFFFFFFFFFFF AND PUSH20 0xFFFFFFFFFFFFFFFFFFFFFFFFFFFFFFFFFFFFFFFF AND DUP2 MSTORE PUSH1 0x20 ADD SWAP1 DUP2 MSTORE PUSH1 0x20 ADD PUSH1 0x0 KECCAK256 PUSH1 0x0 SWAP1 SLOAD SWAP1 PUSH2 0x100 EXP SWAP1 DIV PUSH20 0xFFFFFFFFFFFFFFFFFFFFFFFFFFFFFFFFFFFFFFFF AND PUSH20 0xFFFFFFFFFFFFFFFFFFFFFFFFFFFFFFFFFFFFFFFF AND EQ PUSH2 0x6E1 JUMPI PUSH1 0x1 PUSH1 0x0 SWAP1 SLOAD SWAP1 PUSH2 0x100 EXP SWAP1 DIV PUSH20 0xFFFFFFFFFFFFFFFFFFFFFFFFFFFFFFFFFFFFFFFF AND PUSH1 0x7 PUSH1 0x0 CALLER PUSH20 0xFFFFFFFFFFFFFFFFFFFFFFFFFFFFFFFFFFFFFFFF AND PUSH20 0xFFFFFFFFFFFFFFFFFFFFFFFFFFFFFFFFFFFFFFFF AND DUP2 MSTORE PUSH1 0x20 ADD SWAP1 DUP2 MSTORE PUSH1 0x20 ADD PUSH1 0x0 KECCAK256 PUSH1 0x0 PUSH2 0x100 EXP DUP2 SLOAD DUP2 PUSH20 0xFFFFFFFFFFFFFFFFFFFFFFFFFFFFFFFFFFFFFFFF MUL NOT AND SWAP1 DUP4 PUSH20 0xFFFFFFFFFFFFFFFFFFFFFFFFFFFFFFFFFFFFFFFF AND MUL OR SWAP1 SSTORE POP PUSH1 0x0 PUSH1 0x5 PUSH1 0x0 CALLER PUSH20 0xFFFFFFFFFFFFFFFFFFFFFFFFFFFFFFFFFFFFFFFF AND PUSH20 0xFFFFFFFFFFFFFFFFFFFFFFFFFFFFFFFFFFFFFFFF AND DUP2 MSTORE PUSH1 0x20 ADD SWAP1 DUP2 MSTORE PUSH1 0x20 ADD PUSH1 0x0 KECCAK256 DUP2 SWAP1 SSTORE POP PUSH1 0x0 PUSH1 0x6 PUSH1 0x0 CALLER PUSH20 0xFFFFFFFFFFFFFFFFFFFFFFFFFFFFFFFFFFFFFFFF AND PUSH20 0xFFFFFFFFFFFFFFFFFFFFFFFFFFFFFFFFFFFFFFFF AND DUP2 MSTORE PUSH1 0x20 ADD SWAP1 DUP2 MSTORE PUSH1 0x20 ADD PUSH1 0x0 KECCAK256 DUP2 SWAP1 SSTORE POP JUMPDEST DUP1 PUSH1 0x5 PUSH1 0x0 CALLER PUSH20 0xFFFFFFFFFFFFFFFFFFFFFFFFFFFFFFFFFFFFFFFF AND PUSH20 0xFFFFFFFFFFFFFFFFFFFFFFFFFFFFFFFFFFFFFFFF AND DUP2 MSTORE PUSH1 0x20 ADD SWAP1 DUP2 MSTORE PUSH1 0x20 ADD PUSH1 0x0 KECCAK256 SLOAD LT PUSH2 0x762 JUMPI PUSH1 0x40 MLOAD PUSH32 0x8C379A000000000000000000000000000000000000000000000000000000000 DUP2 MSTORE PUSH1 0x4 ADD PUSH2 0x759 SWAP1 PUSH2 0x1BD5 JUMP JUMPDEST PUSH1 0x40 MLOAD DUP1 SWAP2 SUB SWAP1 REVERT JUMPDEST PUSH1 0x0 PUSH1 0x5 PUSH1 0x0 CALLER PUSH20 0xFFFFFFFFFFFFFFFFFFFFFFFFFFFFFFFFFFFFFFFF AND PUSH20 0xFFFFFFFFFFFFFFFFFFFFFFFFFFFFFFFFFFFFFFFF AND DUP2 MSTORE PUSH1 0x20 ADD SWAP1 DUP2 MSTORE PUSH1 0x20 ADD PUSH1 0x0 KECCAK256 SLOAD SWAP1 POP DUP2 PUSH1 0x5 PUSH1 0x0 CALLER PUSH20 0xFFFFFFFFFFFFFFFFFFFFFFFFFFFFFFFFFFFFFFFF AND PUSH20 0xFFFFFFFFFFFFFFFFFFFFFFFFFFFFFFFFFFFFFFFF AND DUP2 MSTORE PUSH1 0x20 ADD SWAP1 DUP2 MSTORE PUSH1 0x20 ADD PUSH1 0x0 KECCAK256 DUP2 SWAP1 SSTORE POP PUSH1 0x0 PUSH2 0x864 PUSH2 0x3E8 PUSH2 0x856 PUSH2 0x808 DUP6 DUP8 PUSH2 0x12D3 SWAP1 SWAP2 SWAP1 PUSH4 0xFFFFFFFF AND JUMP JUMPDEST PUSH1 0x4 PUSH1 0x0 CALLER PUSH20 0xFFFFFFFFFFFFFFFFFFFFFFFFFFFFFFFFFFFFFFFF AND PUSH20 0xFFFFFFFFFFFFFFFFFFFFFFFFFFFFFFFFFFFFFFFF AND DUP2 MSTORE PUSH1 0x20 ADD SWAP1 DUP2 MSTORE PUSH1 0x20 ADD PUSH1 0x0 KECCAK256 SLOAD PUSH2 0x12E9 SWAP1 SWAP2 SWAP1 PUSH4 0xFFFFFFFF AND JUMP JUMPDEST PUSH2 0x12FF SWAP1 SWAP2 SWAP1 PUSH4 0xFFFFFFFF AND JUMP JUMPDEST SWAP1 POP PUSH2 0x8B8 DUP2 PUSH1 0x6 PUSH1 0x0 CALLER PUSH20 0xFFFFFFFFFFFFFFFFFFFFFFFFFFFFFFFFFFFFFFFF AND PUSH20 0xFFFFFFFFFFFFFFFFFFFFFFFFFFFFFFFFFFFFFFFF AND DUP2 MSTORE PUSH1 0x20 ADD SWAP1 DUP2 MSTORE PUSH1 0x20 ADD PUSH1 0x0 KECCAK256 SLOAD PUSH2 0x1315 SWAP1 SWAP2 SWAP1 PUSH4 0xFFFFFFFF AND JUMP JUMPDEST PUSH1 0x6 PUSH1 0x0 CALLER PUSH20 0xFFFFFFFFFFFFFFFFFFFFFFFFFFFFFFFFFFFFFFFF AND PUSH20 0xFFFFFFFFFFFFFFFFFFFFFFFFFFFFFFFFFFFFFFFF AND DUP2 MSTORE PUSH1 0x20 ADD SWAP1 DUP2 MSTORE PUSH1 0x20 ADD PUSH1 0x0 KECCAK256 DUP2 SWAP1 SSTORE POP PUSH1 0x0 PUSH20 0xFFFFFFFFFFFFFFFFFFFFFFFFFFFFFFFFFFFFFFFF AND PUSH1 0x1 PUSH1 0x0 SWAP1 SLOAD SWAP1 PUSH2 0x100 EXP SWAP1 DIV PUSH20 0xFFFFFFFFFFFFFFFFFFFFFFFFFFFFFFFFFFFFFFFF AND PUSH20 0xFFFFFFFFFFFFFFFFFFFFFFFFFFFFFFFFFFFFFFFF AND EQ PUSH2 0x983 JUMPI PUSH2 0x97E PUSH1 0x1 PUSH1 0x0 SWAP1 SLOAD SWAP1 PUSH2 0x100 EXP SWAP1 DIV PUSH20 0xFFFFFFFFFFFFFFFFFFFFFFFFFFFFFFFFFFFFFFFF AND CALLER DUP4 PUSH2 0x132B JUMP JUMPDEST PUSH2 0x98E JUMP JUMPDEST PUSH2 0x98D CALLER DUP3 PUSH2 0x1461 JUMP JUMPDEST JUMPDEST DUP1 CALLER PUSH20 0xFFFFFFFFFFFFFFFFFFFFFFFFFFFFFFFFFFFFFFFF AND PUSH32 0xD8138F8A3F377C5259CA548E70E4C2DE94F129F5A11036A15B69513CBA2B426A PUSH1 0x40 MLOAD PUSH1 0x40 MLOAD DUP1 SWAP2 SUB SWAP1 LOG3 POP POP POP JUMP JUMPDEST PUSH2 0x9DF PUSH2 0x12CB JUMP JUMPDEST PUSH20 0xFFFFFFFFFFFFFFFFFFFFFFFFFFFFFFFFFFFFFFFF AND PUSH2 0x9FD PUSH2 0xD3A JUMP JUMPDEST PUSH20 0xFFFFFFFFFFFFFFFFFFFFFFFFFFFFFFFFFFFFFFFF AND EQ PUSH2 0xA53 JUMPI PUSH1 0x40 MLOAD PUSH32 0x8C379A000000000000000000000000000000000000000000000000000000000 DUP2 MSTORE PUSH1 0x4 ADD PUSH2 0xA4A SWAP1 PUSH2 0x1C95 JUMP JUMPDEST PUSH1 0x40 MLOAD DUP1 SWAP2 SUB SWAP1 REVERT JUMPDEST PUSH1 0x64 DUP3 MLOAD GT ISZERO PUSH2 0xA98 JUMPI PUSH1 0x40 MLOAD PUSH32 0x8C379A000000000000000000000000000000000000000000000000000000000 DUP2 MSTORE PUSH1 0x4 ADD PUSH2 0xA8F SWAP1 PUSH2 0x1BF5 JUMP JUMPDEST PUSH1 0x40 MLOAD DUP1 SWAP2 SUB SWAP1 REVERT JUMPDEST PUSH1 0x0 JUMPDEST DUP3 MLOAD DUP2 LT ISZERO PUSH2 0xC54 JUMPI PUSH2 0xB2A DUP3 DUP3 DUP2 MLOAD DUP2 LT PUSH2 0xABA JUMPI PUSH2 0xAB9 PUSH2 0x2044 JUMP JUMPDEST JUMPDEST PUSH1 0x20 MUL PUSH1 0x20 ADD ADD MLOAD PUSH1 0x4 PUSH1 0x0 DUP7 DUP6 DUP2 MLOAD DUP2 LT PUSH2 0xAD9 JUMPI PUSH2 0xAD8 PUSH2 0x2044 JUMP JUMPDEST JUMPDEST PUSH1 0x20 MUL PUSH1 0x20 ADD ADD MLOAD PUSH20 0xFFFFFFFFFFFFFFFFFFFFFFFFFFFFFFFFFFFFFFFF AND PUSH20 0xFFFFFFFFFFFFFFFFFFFFFFFFFFFFFFFFFFFFFFFF AND DUP2 MSTORE PUSH1 0x20 ADD SWAP1 DUP2 MSTORE PUSH1 0x20 ADD PUSH1 0x0 KECCAK256 SLOAD PUSH2 0x1315 SWAP1 SWAP2 SWAP1 PUSH4 0xFFFFFFFF AND JUMP JUMPDEST PUSH1 0x4 PUSH1 0x0 DUP6 DUP5 DUP2 MLOAD DUP2 LT PUSH2 0xB41 JUMPI PUSH2 0xB40 PUSH2 0x2044 JUMP JUMPDEST JUMPDEST PUSH1 0x20 MUL PUSH1 0x20 ADD ADD MLOAD PUSH20 0xFFFFFFFFFFFFFFFFFFFFFFFFFFFFFFFFFFFFFFFF AND PUSH20 0xFFFFFFFFFFFFFFFFFFFFFFFFFFFFFFFFFFFFFFFF AND DUP2 MSTORE PUSH1 0x20 ADD SWAP1 DUP2 MSTORE PUSH1 0x20 ADD PUSH1 0x0 KECCAK256 DUP2 SWAP1 SSTORE POP PUSH1 0x1 PUSH1 0x0 SWAP1 SLOAD SWAP1 PUSH2 0x100 EXP SWAP1 DIV PUSH20 0xFFFFFFFFFFFFFFFFFFFFFFFFFFFFFFFFFFFFFFFF AND PUSH1 0x7 PUSH1 0x0 DUP6 DUP5 DUP2 MLOAD DUP2 LT PUSH2 0xBC1 JUMPI PUSH2 0xBC0 PUSH2 0x2044 JUMP JUMPDEST JUMPDEST PUSH1 0x20 MUL PUSH1 0x20 ADD ADD MLOAD PUSH20 0xFFFFFFFFFFFFFFFFFFFFFFFFFFFFFFFFFFFFFFFF AND PUSH20 0xFFFFFFFFFFFFFFFFFFFFFFFFFFFFFFFFFFFFFFFF AND DUP2 MSTORE PUSH1 0x20 ADD SWAP1 DUP2 MSTORE PUSH1 0x20 ADD PUSH1 0x0 KECCAK256 PUSH1 0x0 PUSH2 0x100 EXP DUP2 SLOAD DUP2 PUSH20 0xFFFFFFFFFFFFFFFFFFFFFFFFFFFFFFFFFFFFFFFF MUL NOT AND SWAP1 DUP4 PUSH20 0xFFFFFFFFFFFFFFFFFFFFFFFFFFFFFFFFFFFFFFFF AND MUL OR SWAP1 SSTORE POP DUP1 DUP1 PUSH2 0xC4C SWAP1 PUSH2 0x1F9D JUMP JUMPDEST SWAP2 POP POP PUSH2 0xA9B JUMP JUMPDEST POP DUP2 MLOAD PUSH32 0x6074084F4DBD9879D266F074BE61EB039A0DB2AA46E98E700223AD5C2BEF5BD5 PUSH1 0x40 MLOAD PUSH1 0x40 MLOAD DUP1 SWAP2 SUB SWAP1 LOG2 POP POP JUMP JUMPDEST PUSH1 0x4 PUSH1 0x20 MSTORE DUP1 PUSH1 0x0 MSTORE PUSH1 0x40 PUSH1 0x0 KECCAK256 PUSH1 0x0 SWAP2 POP SWAP1 POP SLOAD DUP2 JUMP JUMPDEST PUSH2 0xCA7 PUSH2 0x12CB JUMP JUMPDEST PUSH20 0xFFFFFFFFFFFFFFFFFFFFFFFFFFFFFFFFFFFFFFFF AND PUSH2 0xCC5 PUSH2 0xD3A JUMP JUMPDEST PUSH20 0xFFFFFFFFFFFFFFFFFFFFFFFFFFFFFFFFFFFFFFFF AND EQ PUSH2 0xD1B JUMPI PUSH1 0x40 MLOAD PUSH32 0x8C379A000000000000000000000000000000000000000000000000000000000 DUP2 MSTORE PUSH1 0x4 ADD PUSH2 0xD12 SWAP1 PUSH2 0x1C95 JUMP JUMPDEST PUSH1 0x40 MLOAD DUP1 SWAP2 SUB SWAP1 REVERT JUMPDEST PUSH2 0xD25 PUSH1 0x0 PUSH2 0x1561 JUMP JUMPDEST JUMP JUMPDEST PUSH1 0x3 PUSH1 0x0 SWAP1 SLOAD SWAP1 PUSH2 0x100 EXP SWAP1 DIV PUSH1 0xFF AND DUP2 JUMP JUMPDEST PUSH1 0x0 DUP1 PUSH1 0x0 SWAP1 SLOAD SWAP1 PUSH2 0x100 EXP SWAP1 DIV PUSH20 0xFFFFFFFFFFFFFFFFFFFFFFFFFFFFFFFFFFFFFFFF AND SWAP1 POP SWAP1 JUMP JUMPDEST PUSH1 0x0 DUP1 PUSH2 0xD7C PUSH1 0xA PUSH1 0x2 SLOAD PUSH2 0x1315 SWAP1 SWAP2 SWAP1 PUSH4 0xFFFFFFFF AND JUMP JUMPDEST SWAP1 POP PUSH1 0x0 DUP2 SWAP1 POP PUSH1 0x0 DUP1 PUSH1 0x2 SLOAD GT DUP1 ISZERO PUSH2 0xD95 JUMPI POP DUP2 TIMESTAMP GT JUMPDEST PUSH2 0xDA0 JUMPI PUSH1 0x64 PUSH2 0xDF9 JUMP JUMPDEST PUSH2 0xDF8 PUSH1 0x64 PUSH2 0xDEA PUSH1 0x32 PUSH2 0xDDC PUSH1 0x3C PUSH1 0x2 PUSH2 0xDBB SWAP2 SWAP1 PUSH2 0x1E1B JUMP JUMPDEST PUSH2 0xDCE DUP9 TIMESTAMP PUSH2 0x12D3 SWAP1 SWAP2 SWAP1 PUSH4 0xFFFFFFFF AND JUMP JUMPDEST PUSH2 0x12FF SWAP1 SWAP2 SWAP1 PUSH4 0xFFFFFFFF AND JUMP JUMPDEST PUSH2 0x12E9 SWAP1 SWAP2 SWAP1 PUSH4 0xFFFFFFFF AND JUMP JUMPDEST PUSH2 0x1315 SWAP1 SWAP2 SWAP1 PUSH4 0xFFFFFFFF AND JUMP JUMPDEST JUMPDEST SWAP1 POP PUSH2 0x3E8 DUP2 GT PUSH2 0xE0A JUMPI DUP1 PUSH2 0xE0E JUMP JUMPDEST PUSH2 0x3E8 JUMPDEST SWAP4 POP POP POP POP SWAP1 JUMP JUMPDEST PUSH1 0x64 DUP2 JUMP JUMPDEST PUSH1 0x6 PUSH1 0x20 MSTORE DUP1 PUSH1 0x0 MSTORE PUSH1 0x40 PUSH1 0x0 KECCAK256 PUSH1 0x0 SWAP2 POP SWAP1 POP SLOAD DUP2 JUMP JUMPDEST PUSH1 0x5 PUSH1 0x20 MSTORE DUP1 PUSH1 0x0 MSTORE PUSH1 0x40 PUSH1 0x0 KECCAK256 PUSH1 0x0 SWAP2 POP SWAP1 POP SLOAD DUP2 JUMP JUMPDEST PUSH1 0x2 DUP2 JUMP JUMPDEST PUSH2 0xE58 PUSH2 0x12CB JUMP JUMPDEST PUSH20 0xFFFFFFFFFFFFFFFFFFFFFFFFFFFFFFFFFFFFFFFF AND PUSH2 0xE76 PUSH2 0xD3A JUMP JUMPDEST PUSH20 0xFFFFFFFFFFFFFFFFFFFFFFFFFFFFFFFFFFFFFFFF AND EQ PUSH2 0xECC JUMPI PUSH1 0x40 MLOAD PUSH32 0x8C379A000000000000000000000000000000000000000000000000000000000 DUP2 MSTORE PUSH1 0x4 ADD PUSH2 0xEC3 SWAP1 PUSH2 0x1C95 JUMP JUMPDEST PUSH1 0x40 MLOAD DUP1 SWAP2 SUB SWAP1 REVERT JUMPDEST PUSH1 0x0 PUSH20 0xFFFFFFFFFFFFFFFFFFFFFFFFFFFFFFFFFFFFFFFF AND DUP2 PUSH20 0xFFFFFFFFFFFFFFFFFFFFFFFFFFFFFFFFFFFFFFFF AND EQ ISZERO PUSH2 0xF3C JUMPI PUSH1 0x40 MLOAD PUSH32 0x8C379A000000000000000000000000000000000000000000000000000000000 DUP2 MSTORE PUSH1 0x4 ADD PUSH2 0xF33 SWAP1 PUSH2 0x1B75 JUMP JUMPDEST PUSH1 0x40 MLOAD DUP1 SWAP2 SUB SWAP1 REVERT JUMPDEST PUSH2 0xF45 DUP2 PUSH2 0x1561 JUMP JUMPDEST POP JUMP JUMPDEST PUSH1 0x7 PUSH1 0x20 MSTORE DUP1 PUSH1 0x0 MSTORE PUSH1 0x40 PUSH1 0x0 KECCAK256 PUSH1 0x0 SWAP2 POP SLOAD SWAP1 PUSH2 0x100 EXP SWAP1 DIV PUSH20 0xFFFFFFFFFFFFFFFFFFFFFFFFFFFFFFFFFFFFFFFF AND DUP2 JUMP JUMPDEST PUSH1 0x1 PUSH1 0x0 SWAP1 SLOAD SWAP1 PUSH2 0x100 EXP SWAP1 DIV PUSH20 0xFFFFFFFFFFFFFFFFFFFFFFFFFFFFFFFFFFFFFFFF AND DUP2 JUMP JUMPDEST PUSH2 0xFA9 PUSH2 0x12CB JUMP JUMPDEST PUSH20 0xFFFFFFFFFFFFFFFFFFFFFFFFFFFFFFFFFFFFFFFF AND PUSH2 0xFC7 PUSH2 0xD3A JUMP JUMPDEST PUSH20 0xFFFFFFFFFFFFFFFFFFFFFFFFFFFFFFFFFFFFFFFF AND EQ PUSH2 0x101D JUMPI PUSH1 0x40 MLOAD PUSH32 0x8C379A000000000000000000000000000000000000000000000000000000000 DUP2 MSTORE PUSH1 0x4 ADD PUSH2 0x1014 SWAP1 PUSH2 0x1C95 JUMP JUMPDEST PUSH1 0x40 MLOAD DUP1 SWAP2 SUB SWAP1 REVERT JUMPDEST PUSH1 0x1 PUSH1 0x0 SWAP1 SLOAD SWAP1 PUSH2 0x100 EXP SWAP1 DIV PUSH20 0xFFFFFFFFFFFFFFFFFFFFFFFFFFFFFFFFFFFFFFFF AND PUSH20 0xFFFFFFFFFFFFFFFFFFFFFFFFFFFFFFFFFFFFFFFF AND DUP2 PUSH20 0xFFFFFFFFFFFFFFFFFFFFFFFFFFFFFFFFFFFFFFFF AND EQ ISZERO PUSH2 0x10AE JUMPI PUSH1 0x40 MLOAD PUSH32 0x8C379A000000000000000000000000000000000000000000000000000000000 DUP2 MSTORE PUSH1 0x4 ADD PUSH2 0x10A5 SWAP1 PUSH2 0x1C15 JUMP JUMPDEST PUSH1 0x40 MLOAD DUP1 SWAP2 SUB SWAP1 REVERT JUMPDEST PUSH1 0x1 PUSH1 0x0 SWAP1 SLOAD SWAP1 PUSH2 0x100 EXP SWAP1 DIV PUSH20 0xFFFFFFFFFFFFFFFFFFFFFFFFFFFFFFFFFFFFFFFF AND PUSH20 0xFFFFFFFFFFFFFFFFFFFFFFFFFFFFFFFFFFFFFFFF AND PUSH4 0x70A08231 ADDRESS PUSH1 0x40 MLOAD DUP3 PUSH4 0xFFFFFFFF AND PUSH1 0xE0 SHL DUP2 MSTORE PUSH1 0x4 ADD PUSH2 0x1109 SWAP2 SWAP1 PUSH2 0x1AFB JUMP JUMPDEST PUSH1 0x20 PUSH1 0x40 MLOAD DUP1 DUP4 SUB DUP2 DUP7 DUP1 EXTCODESIZE ISZERO DUP1 ISZERO PUSH2 0x1121 JUMPI PUSH1 0x0 DUP1 REVERT JUMPDEST POP GAS STATICCALL ISZERO DUP1 ISZERO PUSH2 0x1135 JUMPI RETURNDATASIZE PUSH1 0x0 DUP1 RETURNDATACOPY RETURNDATASIZE PUSH1 0x0 REVERT JUMPDEST POP POP POP POP PUSH1 0x40 MLOAD RETURNDATASIZE PUSH1 0x1F NOT PUSH1 0x1F DUP3 ADD AND DUP3 ADD DUP1 PUSH1 0x40 MSTORE POP DUP2 ADD SWAP1 PUSH2 0x1159 SWAP2 SWAP1 PUSH2 0x18C9 JUMP JUMPDEST DUP2 PUSH20 0xFFFFFFFFFFFFFFFFFFFFFFFFFFFFFFFFFFFFFFFF AND PUSH4 0x70A08231 ADDRESS PUSH1 0x40 MLOAD DUP3 PUSH4 0xFFFFFFFF AND PUSH1 0xE0 SHL DUP2 MSTORE PUSH1 0x4 ADD PUSH2 0x1192 SWAP2 SWAP1 PUSH2 0x1AFB JUMP JUMPDEST PUSH1 0x20 PUSH1 0x40 MLOAD DUP1 DUP4 SUB DUP2 DUP7 DUP1 EXTCODESIZE ISZERO DUP1 ISZERO PUSH2 0x11AA JUMPI PUSH1 0x0 DUP1 REVERT JUMPDEST POP GAS STATICCALL ISZERO DUP1 ISZERO PUSH2 0x11BE JUMPI RETURNDATASIZE PUSH1 0x0 DUP1 RETURNDATACOPY RETURNDATASIZE PUSH1 0x0 REVERT JUMPDEST POP POP POP POP PUSH1 0x40 MLOAD RETURNDATASIZE PUSH1 0x1F NOT PUSH1 0x1F DUP3 ADD AND DUP3 ADD DUP1 PUSH1 0x40 MSTORE POP DUP2 ADD SWAP1 PUSH2 0x11E2 SWAP2 SWAP1 PUSH2 0x18C9 JUMP JUMPDEST EQ PUSH2 0x1222 JUMPI PUSH1 0x40 MLOAD PUSH32 0x8C379A000000000000000000000000000000000000000000000000000000000 DUP2 MSTORE PUSH1 0x4 ADD PUSH2 0x1219 SWAP1 PUSH2 0x1C75 JUMP JUMPDEST PUSH1 0x40 MLOAD DUP1 SWAP2 SUB SWAP1 REVERT JUMPDEST DUP1 PUSH1 0x1 PUSH1 0x0 PUSH2 0x100 EXP DUP2 SLOAD DUP2 PUSH20 0xFFFFFFFFFFFFFFFFFFFFFFFFFFFFFFFFFFFFFFFF MUL NOT AND SWAP1 DUP4 PUSH20 0xFFFFFFFFFFFFFFFFFFFFFFFFFFFFFFFFFFFFFFFF AND MUL OR SWAP1 SSTORE POP PUSH1 0x1 PUSH1 0x0 SWAP1 SLOAD SWAP1 PUSH2 0x100 EXP SWAP1 DIV PUSH20 0xFFFFFFFFFFFFFFFFFFFFFFFFFFFFFFFFFFFFFFFF AND PUSH20 0xFFFFFFFFFFFFFFFFFFFFFFFFFFFFFFFFFFFFFFFF AND PUSH32 0x3FCFC24A3384CA156092D9242CB0F84ABAF442146D91B8C93BEA526561B83F83 PUSH1 0x40 MLOAD PUSH1 0x40 MLOAD DUP1 SWAP2 SUB SWAP1 LOG2 POP JUMP JUMPDEST PUSH1 0x0 CALLER SWAP1 POP SWAP1 JUMP JUMPDEST PUSH1 0x0 DUP2 DUP4 PUSH2 0x12E1 SWAP2 SWAP1 PUSH2 0x1E75 JUMP JUMPDEST SWAP1 POP SWAP3 SWAP2 POP POP JUMP JUMPDEST PUSH1 0x0 DUP2 DUP4 PUSH2 0x12F7 SWAP2 SWAP1 PUSH2 0x1E1B JUMP JUMPDEST SWAP1 POP SWAP3 SWAP2 POP POP JUMP JUMPDEST PUSH1 0x0 DUP2 DUP4 PUSH2 0x130D SWAP2 SWAP1 PUSH2 0x1DEA JUMP JUMPDEST SWAP1 POP SWAP3 SWAP2 POP POP JUMP JUMPDEST PUSH1 0x0 DUP2 DUP4 PUSH2 0x1323 SWAP2 SWAP1 PUSH2 0x1D94 JUMP JUMPDEST SWAP1 POP SWAP3 SWAP2 POP POP JUMP JUMPDEST PUSH1 0x0 DUP1 DUP5 PUSH20 0xFFFFFFFFFFFFFFFFFFFFFFFFFFFFFFFFFFFFFFFF AND PUSH4 0xA9059CBB DUP6 DUP6 PUSH1 0x40 MLOAD PUSH1 0x24 ADD PUSH2 0x135D SWAP3 SWAP2 SWAP1 PUSH2 0x1B16 JUMP JUMPDEST PUSH1 0x40 MLOAD PUSH1 0x20 DUP2 DUP4 SUB SUB DUP2 MSTORE SWAP1 PUSH1 0x40 MSTORE SWAP1 PUSH1 0xE0 SHL PUSH1 0x20 DUP3 ADD DUP1 MLOAD PUSH28 0xFFFFFFFFFFFFFFFFFFFFFFFFFFFFFFFFFFFFFFFFFFFFFFFFFFFFFFFF DUP4 DUP2 DUP4 AND OR DUP4 MSTORE POP POP POP POP PUSH1 0x40 MLOAD PUSH2 0x13AB SWAP2 SWAP1 PUSH2 0x1AE4 JUMP JUMPDEST PUSH1 0x0 PUSH1 0x40 MLOAD DUP1 DUP4 SUB DUP2 PUSH1 0x0 DUP7 GAS CALL SWAP2 POP POP RETURNDATASIZE DUP1 PUSH1 0x0 DUP2 EQ PUSH2 0x13E8 JUMPI PUSH1 0x40 MLOAD SWAP2 POP PUSH1 0x1F NOT PUSH1 0x3F RETURNDATASIZE ADD AND DUP3 ADD PUSH1 0x40 MSTORE RETURNDATASIZE DUP3 MSTORE RETURNDATASIZE PUSH1 0x0 PUSH1 0x20 DUP5 ADD RETURNDATACOPY PUSH2 0x13ED JUMP JUMPDEST PUSH1 0x60 SWAP2 POP JUMPDEST POP SWAP2 POP SWAP2 POP DUP2 DUP1 ISZERO PUSH2 0x141B JUMPI POP PUSH1 0x0 DUP2 MLOAD EQ DUP1 PUSH2 0x141A JUMPI POP DUP1 DUP1 PUSH1 0x20 ADD SWAP1 MLOAD DUP2 ADD SWAP1 PUSH2 0x1419 SWAP2 SWAP1 PUSH2 0x186F JUMP JUMPDEST JUMPDEST JUMPDEST PUSH2 0x145A JUMPI PUSH1 0x40 MLOAD PUSH32 0x8C379A000000000000000000000000000000000000000000000000000000000 DUP2 MSTORE PUSH1 0x4 ADD PUSH2 0x1451 SWAP1 PUSH2 0x1CB5 JUMP JUMPDEST PUSH1 0x40 MLOAD DUP1 SWAP2 SUB SWAP1 REVERT JUMPDEST POP POP POP POP POP JUMP JUMPDEST PUSH1 0x0 DUP3 PUSH20 0xFFFFFFFFFFFFFFFFFFFFFFFFFFFFFFFFFFFFFFFF AND DUP3 PUSH1 0x0 PUSH8 0xFFFFFFFFFFFFFFFF DUP2 GT ISZERO PUSH2 0x1496 JUMPI PUSH2 0x1495 PUSH2 0x2073 JUMP JUMPDEST JUMPDEST PUSH1 0x40 MLOAD SWAP1 DUP1 DUP3 MSTORE DUP1 PUSH1 0x1F ADD PUSH1 0x1F NOT AND PUSH1 0x20 ADD DUP3 ADD PUSH1 0x40 MSTORE DUP1 ISZERO PUSH2 0x14C8 JUMPI DUP2 PUSH1 0x20 ADD PUSH1 0x1 DUP3 MUL DUP1 CALLDATASIZE DUP4 CALLDATACOPY DUP1 DUP3 ADD SWAP2 POP POP SWAP1 POP JUMPDEST POP PUSH1 0x40 MLOAD PUSH2 0x14D6 SWAP2 SWAP1 PUSH2 0x1AE4 JUMP JUMPDEST PUSH1 0x0 PUSH1 0x40 MLOAD DUP1 DUP4 SUB DUP2 DUP6 DUP8 GAS CALL SWAP3 POP POP POP RETURNDATASIZE DUP1 PUSH1 0x0 DUP2 EQ PUSH2 0x1513 JUMPI PUSH1 0x40 MLOAD SWAP2 POP PUSH1 0x1F NOT PUSH1 0x3F RETURNDATASIZE ADD AND DUP3 ADD PUSH1 0x40 MSTORE RETURNDATASIZE DUP3 MSTORE RETURNDATASIZE PUSH1 0x0 PUSH1 0x20 DUP5 ADD RETURNDATACOPY PUSH2 0x1518 JUMP JUMPDEST PUSH1 0x60 SWAP2 POP JUMPDEST POP POP SWAP1 POP DUP1 PUSH2 0x155C JUMPI PUSH1 0x40 MLOAD PUSH32 0x8C379A000000000000000000000000000000000000000000000000000000000 DUP2 MSTORE PUSH1 0x4 ADD PUSH2 0x1553 SWAP1 PUSH2 0x1BB5 JUMP JUMPDEST PUSH1 0x40 MLOAD DUP1 SWAP2 SUB SWAP1 REVERT JUMPDEST POP POP POP JUMP JUMPDEST PUSH1 0x0 DUP1 PUSH1 0x0 SWAP1 SLOAD SWAP1 PUSH2 0x100 EXP SWAP1 DIV PUSH20 0xFFFFFFFFFFFFFFFFFFFFFFFFFFFFFFFFFFFFFFFF AND SWAP1 POP DUP2 PUSH1 0x0 DUP1 PUSH2 0x100 EXP DUP2 SLOAD DUP2 PUSH20 0xFFFFFFFFFFFFFFFFFFFFFFFFFFFFFFFFFFFFFFFF MUL NOT AND SWAP1 DUP4 PUSH20 0xFFFFFFFFFFFFFFFFFFFFFFFFFFFFFFFFFFFFFFFF AND MUL OR SWAP1 SSTORE POP DUP2 PUSH20 0xFFFFFFFFFFFFFFFFFFFFFFFFFFFFFFFFFFFFFFFF AND DUP2 PUSH20 0xFFFFFFFFFFFFFFFFFFFFFFFFFFFFFFFFFFFFFFFF AND PUSH32 0x8BE0079C531659141344CD1FD0A4F28419497F9722A3DAAFE3B4186F6B6457E0 PUSH1 0x40 MLOAD PUSH1 0x40 MLOAD DUP1 SWAP2 SUB SWAP1 LOG3 POP POP JUMP JUMPDEST PUSH1 0x0 PUSH2 0x1638 PUSH2 0x1633 DUP5 PUSH2 0x1D15 JUMP JUMPDEST PUSH2 0x1CF0 JUMP JUMPDEST SWAP1 POP DUP1 DUP4 DUP3 MSTORE PUSH1 0x20 DUP3 ADD SWAP1 POP DUP3 DUP6 PUSH1 0x20 DUP7 MUL DUP3 ADD GT ISZERO PUSH2 0x165B JUMPI PUSH2 0x165A PUSH2 0x20A7 JUMP JUMPDEST JUMPDEST PUSH1 0x0 JUMPDEST DUP6 DUP2 LT ISZERO PUSH2 0x168B JUMPI DUP2 PUSH2 0x1671 DUP9 DUP3 PUSH2 0x1705 JUMP JUMPDEST DUP5 MSTORE PUSH1 0x20 DUP5 ADD SWAP4 POP PUSH1 0x20 DUP4 ADD SWAP3 POP POP PUSH1 0x1 DUP2 ADD SWAP1 POP PUSH2 0x165E JUMP JUMPDEST POP POP POP SWAP4 SWAP3 POP POP POP JUMP JUMPDEST PUSH1 0x0 PUSH2 0x16A8 PUSH2 0x16A3 DUP5 PUSH2 0x1D41 JUMP JUMPDEST PUSH2 0x1CF0 JUMP JUMPDEST SWAP1 POP DUP1 DUP4 DUP3 MSTORE PUSH1 0x20 DUP3 ADD SWAP1 POP DUP3 DUP6 PUSH1 0x20 DUP7 MUL DUP3 ADD GT ISZERO PUSH2 0x16CB JUMPI PUSH2 0x16CA PUSH2 0x20A7 JUMP JUMPDEST JUMPDEST PUSH1 0x0 JUMPDEST DUP6 DUP2 LT ISZERO PUSH2 0x16FB JUMPI DUP2 PUSH2 0x16E1 DUP9 DUP3 PUSH2 0x17A0 JUMP JUMPDEST DUP5 MSTORE PUSH1 0x20 DUP5 ADD SWAP4 POP PUSH1 0x20 DUP4 ADD SWAP3 POP POP PUSH1 0x1 DUP2 ADD SWAP1 POP PUSH2 0x16CE JUMP JUMPDEST POP POP POP SWAP4 SWAP3 POP POP POP JUMP JUMPDEST PUSH1 0x0 DUP2 CALLDATALOAD SWAP1 POP PUSH2 0x1714 DUP2 PUSH2 0x249E JUMP JUMPDEST SWAP3 SWAP2 POP POP JUMP JUMPDEST PUSH1 0x0 DUP3 PUSH1 0x1F DUP4 ADD SLT PUSH2 0x172F JUMPI PUSH2 0x172E PUSH2 0x20A2 JUMP JUMPDEST JUMPDEST DUP2 CALLDATALOAD PUSH2 0x173F DUP5 DUP3 PUSH1 0x20 DUP7 ADD PUSH2 0x1625 JUMP JUMPDEST SWAP2 POP POP SWAP3 SWAP2 POP POP JUMP JUMPDEST PUSH1 0x0 DUP3 PUSH1 0x1F DUP4 ADD SLT PUSH2 0x175D JUMPI PUSH2 0x175C PUSH2 0x20A2 JUMP JUMPDEST JUMPDEST DUP2 CALLDATALOAD PUSH2 0x176D DUP5 DUP3 PUSH1 0x20 DUP7 ADD PUSH2 0x1695 JUMP JUMPDEST SWAP2 POP POP SWAP3 SWAP2 POP POP JUMP JUMPDEST PUSH1 0x0 DUP2 MLOAD SWAP1 POP PUSH2 0x1785 DUP2 PUSH2 0x24B5 JUMP JUMPDEST SWAP3 SWAP2 POP POP JUMP JUMPDEST PUSH1 0x0 DUP2 CALLDATALOAD SWAP1 POP PUSH2 0x179A DUP2 PUSH2 0x24CC JUMP JUMPDEST SWAP3 SWAP2 POP POP JUMP JUMPDEST PUSH1 0x0 DUP2 CALLDATALOAD SWAP1 POP PUSH2 0x17AF DUP2 PUSH2 0x24E3 JUMP JUMPDEST SWAP3 SWAP2 POP POP JUMP JUMPDEST PUSH1 0x0 DUP2 MLOAD SWAP1 POP PUSH2 0x17C4 DUP2 PUSH2 0x24E3 JUMP JUMPDEST SWAP3 SWAP2 POP POP JUMP JUMPDEST PUSH1 0x0 PUSH1 0x20 DUP3 DUP5 SUB SLT ISZERO PUSH2 0x17E0 JUMPI PUSH2 0x17DF PUSH2 0x20B1 JUMP JUMPDEST JUMPDEST PUSH1 0x0 PUSH2 0x17EE DUP5 DUP3 DUP6 ADD PUSH2 0x1705 JUMP JUMPDEST SWAP2 POP POP SWAP3 SWAP2 POP POP JUMP JUMPDEST PUSH1 0x0 DUP1 PUSH1 0x40 DUP4 DUP6 SUB SLT ISZERO PUSH2 0x180E JUMPI PUSH2 0x180D PUSH2 0x20B1 JUMP JUMPDEST JUMPDEST PUSH1 0x0 DUP4 ADD CALLDATALOAD PUSH8 0xFFFFFFFFFFFFFFFF DUP2 GT ISZERO PUSH2 0x182C JUMPI PUSH2 0x182B PUSH2 0x20AC JUMP JUMPDEST JUMPDEST PUSH2 0x1838 DUP6 DUP3 DUP7 ADD PUSH2 0x171A JUMP JUMPDEST SWAP3 POP POP PUSH1 0x20 DUP4 ADD CALLDATALOAD PUSH8 0xFFFFFFFFFFFFFFFF DUP2 GT ISZERO PUSH2 0x1859 JUMPI PUSH2 0x1858 PUSH2 0x20AC JUMP JUMPDEST JUMPDEST PUSH2 0x1865 DUP6 DUP3 DUP7 ADD PUSH2 0x1748 JUMP JUMPDEST SWAP2 POP POP SWAP3 POP SWAP3 SWAP1 POP JUMP JUMPDEST PUSH1 0x0 PUSH1 0x20 DUP3 DUP5 SUB SLT ISZERO PUSH2 0x1885 JUMPI PUSH2 0x1884 PUSH2 0x20B1 JUMP JUMPDEST JUMPDEST PUSH1 0x0 PUSH2 0x1893 DUP5 DUP3 DUP6 ADD PUSH2 0x1776 JUMP JUMPDEST SWAP2 POP POP SWAP3 SWAP2 POP POP JUMP JUMPDEST PUSH1 0x0 PUSH1 0x20 DUP3 DUP5 SUB SLT ISZERO PUSH2 0x18B2 JUMPI PUSH2 0x18B1 PUSH2 0x20B1 JUMP JUMPDEST JUMPDEST PUSH1 0x0 PUSH2 0x18C0 DUP5 DUP3 DUP6 ADD PUSH2 0x178B JUMP JUMPDEST SWAP2 POP POP SWAP3 SWAP2 POP POP JUMP JUMPDEST PUSH1 0x0 PUSH1 0x20 DUP3 DUP5 SUB SLT ISZERO PUSH2 0x18DF JUMPI PUSH2 0x18DE PUSH2 0x20B1 JUMP JUMPDEST JUMPDEST PUSH1 0x0 PUSH2 0x18ED DUP5 DUP3 DUP6 ADD PUSH2 0x17B5 JUMP JUMPDEST SWAP2 POP POP SWAP3 SWAP2 POP POP JUMP JUMPDEST PUSH2 0x18FF DUP2 PUSH2 0x1EA9 JUMP JUMPDEST DUP3 MSTORE POP POP JUMP JUMPDEST PUSH2 0x190E DUP2 PUSH2 0x1EBB JUMP JUMPDEST DUP3 MSTORE POP POP JUMP JUMPDEST PUSH1 0x0 PUSH2 0x191F DUP3 PUSH2 0x1D6D JUMP JUMPDEST PUSH2 0x1929 DUP2 DUP6 PUSH2 0x1D78 JUMP JUMPDEST SWAP4 POP PUSH2 0x1939 DUP2 DUP6 PUSH1 0x20 DUP7 ADD PUSH2 0x1F39 JUMP JUMPDEST DUP1 DUP5 ADD SWAP2 POP POP SWAP3 SWAP2 POP POP JUMP JUMPDEST PUSH2 0x194E DUP2 PUSH2 0x1F03 JUMP JUMPDEST DUP3 MSTORE POP POP JUMP JUMPDEST PUSH1 0x0 PUSH2 0x1961 PUSH1 0x26 DUP4 PUSH2 0x1D83 JUMP JUMPDEST SWAP2 POP PUSH2 0x196C DUP3 PUSH2 0x20C7 JUMP JUMPDEST PUSH1 0x40 DUP3 ADD SWAP1 POP SWAP2 SWAP1 POP JUMP JUMPDEST PUSH1 0x0 PUSH2 0x1984 PUSH1 0x24 DUP4 PUSH2 0x1D83 JUMP JUMPDEST SWAP2 POP PUSH2 0x198F DUP3 PUSH2 0x2116 JUMP JUMPDEST PUSH1 0x40 DUP3 ADD SWAP1 POP SWAP2 SWAP1 POP JUMP JUMPDEST PUSH1 0x0 PUSH2 0x19A7 PUSH1 0x34 DUP4 PUSH2 0x1D83 JUMP JUMPDEST SWAP2 POP PUSH2 0x19B2 DUP3 PUSH2 0x2165 JUMP JUMPDEST PUSH1 0x40 DUP3 ADD SWAP1 POP SWAP2 SWAP1 POP JUMP JUMPDEST PUSH1 0x0 PUSH2 0x19CA PUSH1 0x3C DUP4 PUSH2 0x1D83 JUMP JUMPDEST SWAP2 POP PUSH2 0x19D5 DUP3 PUSH2 0x21B4 JUMP JUMPDEST PUSH1 0x40 DUP3 ADD SWAP1 POP SWAP2 SWAP1 POP JUMP JUMPDEST PUSH1 0x0 PUSH2 0x19ED PUSH1 0x48 DUP4 PUSH2 0x1D83 JUMP JUMPDEST SWAP2 POP PUSH2 0x19F8 DUP3 PUSH2 0x2203 JUMP JUMPDEST PUSH1 0x60 DUP3 ADD SWAP1 POP SWAP2 SWAP1 POP JUMP JUMPDEST PUSH1 0x0 PUSH2 0x1A10 PUSH1 0x46 DUP4 PUSH2 0x1D83 JUMP JUMPDEST SWAP2 POP PUSH2 0x1A1B DUP3 PUSH2 0x2278 JUMP JUMPDEST PUSH1 0x60 DUP3 ADD SWAP1 POP SWAP2 SWAP1 POP JUMP JUMPDEST PUSH1 0x0 PUSH2 0x1A33 PUSH1 0x5D DUP4 PUSH2 0x1D83 JUMP JUMPDEST SWAP2 POP PUSH2 0x1A3E DUP3 PUSH2 0x22ED JUMP JUMPDEST PUSH1 0x60 DUP3 ADD SWAP1 POP SWAP2 SWAP1 POP JUMP JUMPDEST PUSH1 0x0 PUSH2 0x1A56 PUSH1 0x17 DUP4 PUSH2 0x1D83 JUMP JUMPDEST SWAP2 POP PUSH2 0x1A61 DUP3 PUSH2 0x2362 JUMP JUMPDEST PUSH1 0x20 DUP3 ADD SWAP1 POP SWAP2 SWAP1 POP JUMP JUMPDEST PUSH1 0x0 PUSH2 0x1A79 PUSH1 0x77 DUP4 PUSH2 0x1D83 JUMP JUMPDEST SWAP2 POP PUSH2 0x1A84 DUP3 PUSH2 0x238B JUMP JUMPDEST PUSH1 0x80 DUP3 ADD SWAP1 POP SWAP2 SWAP1 POP JUMP JUMPDEST PUSH1 0x0 PUSH2 0x1A9C PUSH1 0x20 DUP4 PUSH2 0x1D83 JUMP JUMPDEST SWAP2 POP PUSH2 0x1AA7 DUP3 PUSH2 0x2426 JUMP JUMPDEST PUSH1 0x20 DUP3 ADD SWAP1 POP SWAP2 SWAP1 POP JUMP JUMPDEST PUSH1 0x0 PUSH2 0x1ABF PUSH1 0x2D DUP4 PUSH2 0x1D83 JUMP JUMPDEST SWAP2 POP PUSH2 0x1ACA DUP3 PUSH2 0x244F JUMP JUMPDEST PUSH1 0x40 DUP3 ADD SWAP1 POP SWAP2 SWAP1 POP JUMP JUMPDEST PUSH2 0x1ADE DUP2 PUSH2 0x1EF9 JUMP JUMPDEST DUP3 MSTORE POP POP JUMP JUMPDEST PUSH1 0x0 PUSH2 0x1AF0 DUP3 DUP5 PUSH2 0x1914 JUMP JUMPDEST SWAP2 POP DUP2 SWAP1 POP SWAP3 SWAP2 POP POP JUMP JUMPDEST PUSH1 0x0 PUSH1 0x20 DUP3 ADD SWAP1 POP PUSH2 0x1B10 PUSH1 0x0 DUP4 ADD DUP5 PUSH2 0x18F6 JUMP JUMPDEST SWAP3 SWAP2 POP POP JUMP JUMPDEST PUSH1 0x0 PUSH1 0x40 DUP3 ADD SWAP1 POP PUSH2 0x1B2B PUSH1 0x0 DUP4 ADD DUP6 PUSH2 0x18F6 JUMP JUMPDEST PUSH2 0x1B38 PUSH1 0x20 DUP4 ADD DUP5 PUSH2 0x1AD5 JUMP JUMPDEST SWAP4 SWAP3 POP POP POP JUMP JUMPDEST PUSH1 0x0 PUSH1 0x20 DUP3 ADD SWAP1 POP PUSH2 0x1B54 PUSH1 0x0 DUP4 ADD DUP5 PUSH2 0x1905 JUMP JUMPDEST SWAP3 SWAP2 POP POP JUMP JUMPDEST PUSH1 0x0 PUSH1 0x20 DUP3 ADD SWAP1 POP PUSH2 0x1B6F PUSH1 0x0 DUP4 ADD DUP5 PUSH2 0x1945 JUMP JUMPDEST SWAP3 SWAP2 POP POP JUMP JUMPDEST PUSH1 0x0 PUSH1 0x20 DUP3 ADD SWAP1 POP DUP2 DUP2 SUB PUSH1 0x0 DUP4 ADD MSTORE PUSH2 0x1B8E DUP2 PUSH2 0x1954 JUMP JUMPDEST SWAP1 POP SWAP2 SWAP1 POP JUMP JUMPDEST PUSH1 0x0 PUSH1 0x20 DUP3 ADD SWAP1 POP DUP2 DUP2 SUB PUSH1 0x0 DUP4 ADD MSTORE PUSH2 0x1BAE DUP2 PUSH2 0x1977 JUMP JUMPDEST SWAP1 POP SWAP2 SWAP1 POP JUMP JUMPDEST PUSH1 0x0 PUSH1 0x20 DUP3 ADD SWAP1 POP DUP2 DUP2 SUB PUSH1 0x0 DUP4 ADD MSTORE PUSH2 0x1BCE DUP2 PUSH2 0x199A JUMP JUMPDEST SWAP1 POP SWAP2 SWAP1 POP JUMP JUMPDEST PUSH1 0x0 PUSH1 0x20 DUP3 ADD SWAP1 POP DUP2 DUP2 SUB PUSH1 0x0 DUP4 ADD MSTORE PUSH2 0x1BEE DUP2 PUSH2 0x19BD JUMP JUMPDEST SWAP1 POP SWAP2 SWAP1 POP JUMP JUMPDEST PUSH1 0x0 PUSH1 0x20 DUP3 ADD SWAP1 POP DUP2 DUP2 SUB PUSH1 0x0 DUP4 ADD MSTORE PUSH2 0x1C0E DUP2 PUSH2 0x19E0 JUMP JUMPDEST SWAP1 POP SWAP2 SWAP1 POP JUMP JUMPDEST PUSH1 0x0 PUSH1 0x20 DUP3 ADD SWAP1 POP DUP2 DUP2 SUB PUSH1 0x0 DUP4 ADD MSTORE PUSH2 0x1C2E DUP2 PUSH2 0x1A03 JUMP JUMPDEST SWAP1 POP SWAP2 SWAP1 POP JUMP JUMPDEST PUSH1 0x0 PUSH1 0x20 DUP3 ADD SWAP1 POP DUP2 DUP2 SUB PUSH1 0x0 DUP4 ADD MSTORE PUSH2 0x1C4E DUP2 PUSH2 0x1A26 JUMP JUMPDEST SWAP1 POP SWAP2 SWAP1 POP JUMP JUMPDEST PUSH1 0x0 PUSH1 0x20 DUP3 ADD SWAP1 POP DUP2 DUP2 SUB PUSH1 0x0 DUP4 ADD MSTORE PUSH2 0x1C6E DUP2 PUSH2 0x1A49 JUMP JUMPDEST SWAP1 POP SWAP2 SWAP1 POP JUMP JUMPDEST PUSH1 0x0 PUSH1 0x20 DUP3 ADD SWAP1 POP DUP2 DUP2 SUB PUSH1 0x0 DUP4 ADD MSTORE PUSH2 0x1C8E DUP2 PUSH2 0x1A6C JUMP JUMPDEST SWAP1 POP SWAP2 SWAP1 POP JUMP JUMPDEST PUSH1 0x0 PUSH1 0x20 DUP3 ADD SWAP1 POP DUP2 DUP2 SUB PUSH1 0x0 DUP4 ADD MSTORE PUSH2 0x1CAE DUP2 PUSH2 0x1A8F JUMP JUMPDEST SWAP1 POP SWAP2 SWAP1 POP JUMP JUMPDEST PUSH1 0x0 PUSH1 0x20 DUP3 ADD SWAP1 POP DUP2 DUP2 SUB PUSH1 0x0 DUP4 ADD MSTORE PUSH2 0x1CCE DUP2 PUSH2 0x1AB2 JUMP JUMPDEST SWAP1 POP SWAP2 SWAP1 POP JUMP JUMPDEST PUSH1 0x0 PUSH1 0x20 DUP3 ADD SWAP1 POP PUSH2 0x1CEA PUSH1 0x0 DUP4 ADD DUP5 PUSH2 0x1AD5 JUMP JUMPDEST SWAP3 SWAP2 POP POP JUMP JUMPDEST PUSH1 0x0 PUSH2 0x1CFA PUSH2 0x1D0B JUMP JUMPDEST SWAP1 POP PUSH2 0x1D06 DUP3 DUP3 PUSH2 0x1F6C JUMP JUMPDEST SWAP2 SWAP1 POP JUMP JUMPDEST PUSH1 0x0 PUSH1 0x40 MLOAD SWAP1 POP SWAP1 JUMP JUMPDEST PUSH1 0x0 PUSH8 0xFFFFFFFFFFFFFFFF DUP3 GT ISZERO PUSH2 0x1D30 JUMPI PUSH2 0x1D2F PUSH2 0x2073 JUMP JUMPDEST JUMPDEST PUSH1 0x20 DUP3 MUL SWAP1 POP PUSH1 0x20 DUP2 ADD SWAP1 POP SWAP2 SWAP1 POP JUMP JUMPDEST PUSH1 0x0 PUSH8 0xFFFFFFFFFFFFFFFF DUP3 GT ISZERO PUSH2 0x1D5C JUMPI PUSH2 0x1D5B PUSH2 0x2073 JUMP JUMPDEST JUMPDEST PUSH1 0x20 DUP3 MUL SWAP1 POP PUSH1 0x20 DUP2 ADD SWAP1 POP SWAP2 SWAP1 POP JUMP JUMPDEST PUSH1 0x0 DUP2 MLOAD SWAP1 POP SWAP2 SWAP1 POP JUMP JUMPDEST PUSH1 0x0 DUP2 SWAP1 POP SWAP3 SWAP2 POP POP JUMP JUMPDEST PUSH1 0x0 DUP3 DUP3 MSTORE PUSH1 0x20 DUP3 ADD SWAP1 POP SWAP3 SWAP2 POP POP JUMP JUMPDEST PUSH1 0x0 PUSH2 0x1D9F DUP3 PUSH2 0x1EF9 JUMP JUMPDEST SWAP2 POP PUSH2 0x1DAA DUP4 PUSH2 0x1EF9 JUMP JUMPDEST SWAP3 POP DUP3 PUSH32 0xFFFFFFFFFFFFFFFFFFFFFFFFFFFFFFFFFFFFFFFFFFFFFFFFFFFFFFFFFFFFFFFF SUB DUP3 GT ISZERO PUSH2 0x1DDF JUMPI PUSH2 0x1DDE PUSH2 0x1FE6 JUMP JUMPDEST JUMPDEST DUP3 DUP3 ADD SWAP1 POP SWAP3 SWAP2 POP POP JUMP JUMPDEST PUSH1 0x0 PUSH2 0x1DF5 DUP3 PUSH2 0x1EF9 JUMP JUMPDEST SWAP2 POP PUSH2 0x1E00 DUP4 PUSH2 0x1EF9 JUMP JUMPDEST SWAP3 POP DUP3 PUSH2 0x1E10 JUMPI PUSH2 0x1E0F PUSH2 0x2015 JUMP JUMPDEST JUMPDEST DUP3 DUP3 DIV SWAP1 POP SWAP3 SWAP2 POP POP JUMP JUMPDEST PUSH1 0x0 PUSH2 0x1E26 DUP3 PUSH2 0x1EF9 JUMP JUMPDEST SWAP2 POP PUSH2 0x1E31 DUP4 PUSH2 0x1EF9 JUMP JUMPDEST SWAP3 POP DUP2 PUSH32 0xFFFFFFFFFFFFFFFFFFFFFFFFFFFFFFFFFFFFFFFFFFFFFFFFFFFFFFFFFFFFFFFF DIV DUP4 GT DUP3 ISZERO ISZERO AND ISZERO PUSH2 0x1E6A JUMPI PUSH2 0x1E69 PUSH2 0x1FE6 JUMP JUMPDEST JUMPDEST DUP3 DUP3 MUL SWAP1 POP SWAP3 SWAP2 POP POP JUMP JUMPDEST PUSH1 0x0 PUSH2 0x1E80 DUP3 PUSH2 0x1EF9 JUMP JUMPDEST SWAP2 POP PUSH2 0x1E8B DUP4 PUSH2 0x1EF9 JUMP JUMPDEST SWAP3 POP DUP3 DUP3 LT ISZERO PUSH2 0x1E9E JUMPI PUSH2 0x1E9D PUSH2 0x1FE6 JUMP JUMPDEST JUMPDEST DUP3 DUP3 SUB SWAP1 POP SWAP3 SWAP2 POP POP JUMP JUMPDEST PUSH1 0x0 PUSH2 0x1EB4 DUP3 PUSH2 0x1ED9 JUMP JUMPDEST SWAP1 POP SWAP2 SWAP1 POP JUMP JUMPDEST PUSH1 0x0 DUP2 ISZERO ISZERO SWAP1 POP SWAP2 SWAP1 POP JUMP JUMPDEST PUSH1 0x0 PUSH2 0x1ED2 DUP3 PUSH2 0x1EA9 JUMP JUMPDEST SWAP1 POP SWAP2 SWAP1 POP JUMP JUMPDEST PUSH1 0x0 PUSH20 0xFFFFFFFFFFFFFFFFFFFFFFFFFFFFFFFFFFFFFFFF DUP3 AND SWAP1 POP SWAP2 SWAP1 POP JUMP JUMPDEST PUSH1 0x0 DUP2 SWAP1 POP SWAP2 SWAP1 POP JUMP JUMPDEST PUSH1 0x0 PUSH2 0x1F0E DUP3 PUSH2 0x1F15 JUMP JUMPDEST SWAP1 POP SWAP2 SWAP1 POP JUMP JUMPDEST PUSH1 0x0 PUSH2 0x1F20 DUP3 PUSH2 0x1F27 JUMP JUMPDEST SWAP1 POP SWAP2 SWAP1 POP JUMP JUMPDEST PUSH1 0x0 PUSH2 0x1F32 DUP3 PUSH2 0x1ED9 JUMP JUMPDEST SWAP1 POP SWAP2 SWAP1 POP JUMP JUMPDEST PUSH1 0x0 JUMPDEST DUP4 DUP2 LT ISZERO PUSH2 0x1F57 JUMPI DUP1 DUP3 ADD MLOAD DUP2 DUP5 ADD MSTORE PUSH1 0x20 DUP2 ADD SWAP1 POP PUSH2 0x1F3C JUMP JUMPDEST DUP4 DUP2 GT ISZERO PUSH2 0x1F66 JUMPI PUSH1 0x0 DUP5 DUP5 ADD MSTORE JUMPDEST POP POP POP POP JUMP JUMPDEST PUSH2 0x1F75 DUP3 PUSH2 0x20B6 JUMP JUMPDEST DUP2 ADD DUP2 DUP2 LT PUSH8 0xFFFFFFFFFFFFFFFF DUP3 GT OR ISZERO PUSH2 0x1F94 JUMPI PUSH2 0x1F93 PUSH2 0x2073 JUMP JUMPDEST JUMPDEST DUP1 PUSH1 0x40 MSTORE POP POP POP JUMP JUMPDEST PUSH1 0x0 PUSH2 0x1FA8 DUP3 PUSH2 0x1EF9 JUMP JUMPDEST SWAP2 POP PUSH32 0xFFFFFFFFFFFFFFFFFFFFFFFFFFFFFFFFFFFFFFFFFFFFFFFFFFFFFFFFFFFFFFFF DUP3 EQ ISZERO PUSH2 0x1FDB JUMPI PUSH2 0x1FDA PUSH2 0x1FE6 JUMP JUMPDEST JUMPDEST PUSH1 0x1 DUP3 ADD SWAP1 POP SWAP2 SWAP1 POP JUMP JUMPDEST PUSH32 0x4E487B7100000000000000000000000000000000000000000000000000000000 PUSH1 0x0 MSTORE PUSH1 0x11 PUSH1 0x4 MSTORE PUSH1 0x24 PUSH1 0x0 REVERT JUMPDEST PUSH32 0x4E487B7100000000000000000000000000000000000000000000000000000000 PUSH1 0x0 MSTORE PUSH1 0x12 PUSH1 0x4 MSTORE PUSH1 0x24 PUSH1 0x0 REVERT JUMPDEST PUSH32 0x4E487B7100000000000000000000000000000000000000000000000000000000 PUSH1 0x0 MSTORE PUSH1 0x32 PUSH1 0x4 MSTORE PUSH1 0x24 PUSH1 0x0 REVERT JUMPDEST PUSH32 0x4E487B7100000000000000000000000000000000000000000000000000000000 PUSH1 0x0 MSTORE PUSH1 0x41 PUSH1 0x4 MSTORE PUSH1 0x24 PUSH1 0x0 REVERT JUMPDEST PUSH1 0x0 DUP1 REVERT JUMPDEST PUSH1 0x0 DUP1 REVERT JUMPDEST PUSH1 0x0 DUP1 REVERT JUMPDEST PUSH1 0x0 DUP1 REVERT JUMPDEST PUSH1 0x0 PUSH1 0x1F NOT PUSH1 0x1F DUP4 ADD AND SWAP1 POP SWAP2 SWAP1 POP JUMP JUMPDEST PUSH32 0x4F776E61626C653A206E6577206F776E657220697320746865207A65726F2061 PUSH1 0x0 DUP3 ADD MSTORE PUSH32 0x6464726573730000000000000000000000000000000000000000000000000000 PUSH1 0x20 DUP3 ADD MSTORE POP JUMP JUMPDEST PUSH32 0x41424F41543A3A636C61696D3A20436C61696D206973206E6F74206F70656E20 PUSH1 0x0 DUP3 ADD MSTORE PUSH32 0x7965742100000000000000000000000000000000000000000000000000000000 PUSH1 0x20 DUP3 ADD MSTORE POP JUMP JUMPDEST PUSH32 0x5472616E7366657248656C7065723A3A736166655472616E736665724554483A PUSH1 0x0 DUP3 ADD MSTORE PUSH32 0x20455448207472616E73666572206661696C6564000000000000000000000000 PUSH1 0x20 DUP3 ADD MSTORE POP JUMP JUMPDEST PUSH32 0x41424F41543A3A636C61696D3A20416C726561647920636C61696D656420796F PUSH1 0x0 DUP3 ADD MSTORE PUSH32 0x75722063757272656E746C7920656C696769626C6520746F6B656E7300000000 PUSH1 0x20 DUP3 ADD MSTORE POP JUMP JUMPDEST PUSH32 0x41424F41543A3A77686974656C6973743A20596F752063616E27742061646420 PUSH1 0x0 DUP3 ADD MSTORE PUSH32 0x6D6F7265207468616E2031303020616464726573736573206174207468652073 PUSH1 0x20 DUP3 ADD MSTORE PUSH32 0x616D652074696D65000000000000000000000000000000000000000000000000 PUSH1 0x40 DUP3 ADD MSTORE POP JUMP JUMPDEST PUSH32 0x41424F41543A3A757064617465526577617264546F6B656E3A204E6577207265 PUSH1 0x0 DUP3 ADD MSTORE PUSH32 0x776172642073686F756C6420626520646966666572656E742066726F6D206375 PUSH1 0x20 DUP3 ADD MSTORE PUSH32 0x7272656E742E0000000000000000000000000000000000000000000000000000 PUSH1 0x40 DUP3 ADD MSTORE POP JUMP JUMPDEST PUSH32 0x41424F41543A3A636C61696D3A205468652070657263656E74616765206F6620 PUSH1 0x0 DUP3 ADD MSTORE PUSH32 0x746F6B656E20796F752063616E20636C61696D2069732063757272656E746C79 PUSH1 0x20 DUP3 ADD MSTORE PUSH32 0x207A65726F2E20506C656173652074727920616761696E206C61746572000000 PUSH1 0x40 DUP3 ADD MSTORE POP JUMP JUMPDEST PUSH32 0x436C61696D20697320616C7265616479206F70656E6564000000000000000000 PUSH1 0x0 DUP3 ADD MSTORE POP JUMP JUMPDEST PUSH32 0x41424F41543A3A757064617465526577617264546F6B656E3A2054686520636F PUSH1 0x0 DUP3 ADD MSTORE PUSH32 0x6E74726163742073686F756C6420636F6E7461696E2061746C65617374207468 PUSH1 0x20 DUP3 ADD MSTORE PUSH32 0x652073616D6520616D6F756E74206F6620746F6B656E732061732066726F6D20 PUSH1 0x40 DUP3 ADD MSTORE PUSH32 0x7468652063757272656E7420726577617264546F6B656E000000000000000000 PUSH1 0x60 DUP3 ADD MSTORE POP JUMP JUMPDEST PUSH32 0x4F776E61626C653A2063616C6C6572206973206E6F7420746865206F776E6572 PUSH1 0x0 DUP3 ADD MSTORE POP JUMP JUMPDEST PUSH32 0x5472616E7366657248656C7065723A3A736166655472616E736665723A207472 PUSH1 0x0 DUP3 ADD MSTORE PUSH32 0x616E73666572206661696C656400000000000000000000000000000000000000 PUSH1 0x20 DUP3 ADD MSTORE POP JUMP JUMPDEST PUSH2 0x24A7 DUP2 PUSH2 0x1EA9 JUMP JUMPDEST DUP2 EQ PUSH2 0x24B2 JUMPI PUSH1 0x0 DUP1 REVERT JUMPDEST POP JUMP JUMPDEST PUSH2 0x24BE DUP2 PUSH2 0x1EBB JUMP JUMPDEST DUP2 EQ PUSH2 0x24C9 JUMPI PUSH1 0x0 DUP1 REVERT JUMPDEST POP JUMP JUMPDEST PUSH2 0x24D5 DUP2 PUSH2 0x1EC7 JUMP JUMPDEST DUP2 EQ PUSH2 0x24E0 JUMPI PUSH1 0x0 DUP1 REVERT JUMPDEST POP JUMP JUMPDEST PUSH2 0x24EC DUP2 PUSH2 0x1EF9 JUMP JUMPDEST DUP2 EQ PUSH2 0x24F7 JUMPI PUSH1 0x0 DUP1 REVERT JUMPDEST POP JUMP INVALID LOG2 PUSH5 0x6970667358 0x22 SLT KECCAK256 SLT 0xE9 SGT DUP16 GAS DUP14 0xC8 JUMPI POP 0xE9 CALLER 0xE3 0x4D 0x2A EQ SWAP6 0xD3 SWAP14 PUSH15 0xF2DB0EB982B4D03B5D140A36F56473 PUSH16 0x6C634300080700330000000000000000 "
				},
				"gasEstimates": {
					"creation": {
						"codeDepositCost": "1904000",
						"executionCost": "infinite",
						"totalCost": "infinite"
					},
					"external": {
						"bought(address)": "2881",
						"claim()": "infinite",
						"claimOpen()": "2519",
						"claimed(address)": "2925",
						"claimedTokens(address)": "2903",
						"cliffPeriod()": "397",
						"getCurrentPercentage()": "infinite",
						"initialClaimPercentage()": "396",
						"lastClaimAddress(address)": "infinite",
						"openClaim()": "27820",
						"owner()": "2545",
						"percentagePerPeriod()": "353",
						"period()": "351",
						"renounceOwnership()": "30463",
						"requireWhitelist()": "2582",
						"rewardToken()": "2688",
						"transferOwnership(address)": "30767",
						"updateRewardToken(address)": "infinite",
						"whitelistFromSAFT(address[],uint256[])": "infinite"
					}
				},
				"methodIdentifiers": {
					"bought(address)": "667022fd",
					"claim()": "4e71d92d",
					"claimOpen()": "4b8bcb58",
					"claimed(address)": "c884ef83",
					"claimedTokens(address)": "a960c65f",
					"cliffPeriod()": "2f661946",
					"getCurrentPercentage()": "9c92431b",
					"initialClaimPercentage()": "a5ebf835",
					"lastClaimAddress(address)": "f3739e05",
					"openClaim()": "293cdbf1",
					"owner()": "8da5cb5b",
					"percentagePerPeriod()": "151bad0a",
					"period()": "ef78d4fd",
					"renounceOwnership()": "715018a6",
					"requireWhitelist()": "856734c4",
					"rewardToken()": "f7c618c1",
					"transferOwnership(address)": "f2fde38b",
					"updateRewardToken(address)": "f8cf31cb",
					"whitelistFromSAFT(address[],uint256[])": "5372a58e"
				}
			},
			"storageLayout": {
				"storage": [
					{
						"astId": 7,
						"contract": "contracts/Vesting.sol:Vesting",
						"label": "_owner",
						"offset": 0,
						"slot": "0",
						"type": "t_address"
					},
					{
						"astId": 1057,
						"contract": "contracts/Vesting.sol:Vesting",
						"label": "rewardToken",
						"offset": 0,
						"slot": "1",
						"type": "t_contract(IERC20)181"
					},
					{
						"astId": 1060,
						"contract": "contracts/Vesting.sol:Vesting",
						"label": "claimOpen",
						"offset": 0,
						"slot": "2",
						"type": "t_uint256"
					},
					{
						"astId": 1075,
						"contract": "contracts/Vesting.sol:Vesting",
						"label": "requireWhitelist",
						"offset": 0,
						"slot": "3",
						"type": "t_bool"
					},
					{
						"astId": 1079,
						"contract": "contracts/Vesting.sol:Vesting",
						"label": "bought",
						"offset": 0,
						"slot": "4",
						"type": "t_mapping(t_address,t_uint256)"
					},
					{
						"astId": 1083,
						"contract": "contracts/Vesting.sol:Vesting",
						"label": "claimed",
						"offset": 0,
						"slot": "5",
						"type": "t_mapping(t_address,t_uint256)"
					},
					{
						"astId": 1087,
						"contract": "contracts/Vesting.sol:Vesting",
						"label": "claimedTokens",
						"offset": 0,
						"slot": "6",
						"type": "t_mapping(t_address,t_uint256)"
					},
					{
						"astId": 1091,
						"contract": "contracts/Vesting.sol:Vesting",
						"label": "lastClaimAddress",
						"offset": 0,
						"slot": "7",
						"type": "t_mapping(t_address,t_address)"
					}
				],
				"types": {
					"t_address": {
						"encoding": "inplace",
						"label": "address",
						"numberOfBytes": "20"
					},
					"t_bool": {
						"encoding": "inplace",
						"label": "bool",
						"numberOfBytes": "1"
					},
					"t_contract(IERC20)181": {
						"encoding": "inplace",
						"label": "contract IERC20",
						"numberOfBytes": "20"
					},
					"t_mapping(t_address,t_address)": {
						"encoding": "mapping",
						"key": "t_address",
						"label": "mapping(address => address)",
						"numberOfBytes": "32",
						"value": "t_address"
					},
					"t_mapping(t_address,t_uint256)": {
						"encoding": "mapping",
						"key": "t_address",
						"label": "mapping(address => uint256)",
						"numberOfBytes": "32",
						"value": "t_uint256"
					},
					"t_uint256": {
						"encoding": "inplace",
						"label": "uint256",
						"numberOfBytes": "32"
					}
				}
			},
			"userdoc": {
				"kind": "user",
				"methods": {},
				"version": 1
			}
		}
	}
}