{
	"contracts/Marketplace.sol": {
		"Marketplace": {
			"abi": [
				{
					"inputs": [],
					"stateMutability": "nonpayable",
					"type": "constructor"
				},
				{
					"anonymous": false,
					"inputs": [
						{
							"indexed": false,
							"internalType": "address",
							"name": "nftContract",
							"type": "address"
						},
						{
							"indexed": false,
							"internalType": "uint256",
							"name": "tokenId",
							"type": "uint256"
						},
						{
							"indexed": false,
							"internalType": "address",
							"name": "seller",
							"type": "address"
						},
						{
							"indexed": false,
							"internalType": "address",
							"name": "owner",
							"type": "address"
						},
						{
							"indexed": false,
							"internalType": "uint256",
							"name": "price",
							"type": "uint256"
						}
					],
					"name": "NFTListed",
					"type": "event"
				},
				{
					"anonymous": false,
					"inputs": [
						{
							"indexed": false,
							"internalType": "address",
							"name": "nftContract",
							"type": "address"
						},
						{
							"indexed": false,
							"internalType": "uint256",
							"name": "tokenId",
							"type": "uint256"
						},
						{
							"indexed": false,
							"internalType": "address",
							"name": "seller",
							"type": "address"
						},
						{
							"indexed": false,
							"internalType": "address",
							"name": "owner",
							"type": "address"
						},
						{
							"indexed": false,
							"internalType": "uint256",
							"name": "price",
							"type": "uint256"
						}
					],
					"name": "NFTSold",
					"type": "event"
				},
				{
					"inputs": [],
					"name": "LISTING_FEE",
					"outputs": [
						{
							"internalType": "uint256",
							"name": "",
							"type": "uint256"
						}
					],
					"stateMutability": "view",
					"type": "function"
				},
				{
					"inputs": [],
					"name": "SELLING_FEE",
					"outputs": [
						{
							"internalType": "uint256",
							"name": "",
							"type": "uint256"
						}
					],
					"stateMutability": "view",
					"type": "function"
				},
				{
					"inputs": [
						{
							"internalType": "address",
							"name": "_nftContract",
							"type": "address"
						},
						{
							"internalType": "uint256",
							"name": "_tokenId",
							"type": "uint256"
						}
					],
					"name": "buyNft",
					"outputs": [],
					"stateMutability": "payable",
					"type": "function"
				},
				{
					"inputs": [],
					"name": "getListedNfts",
					"outputs": [
						{
							"components": [
								{
									"internalType": "address",
									"name": "nftContract",
									"type": "address"
								},
								{
									"internalType": "uint256",
									"name": "tokenId",
									"type": "uint256"
								},
								{
									"internalType": "address payable",
									"name": "seller",
									"type": "address"
								},
								{
									"internalType": "address payable",
									"name": "owner",
									"type": "address"
								},
								{
									"internalType": "uint256",
									"name": "price",
									"type": "uint256"
								},
								{
									"internalType": "bool",
									"name": "listed",
									"type": "bool"
								}
							],
							"internalType": "struct Marketplace.NFT[]",
							"name": "",
							"type": "tuple[]"
						}
					],
					"stateMutability": "view",
					"type": "function"
				},
				{
					"inputs": [],
					"name": "getListingFee",
					"outputs": [
						{
							"internalType": "uint256",
							"name": "",
							"type": "uint256"
						}
					],
					"stateMutability": "view",
					"type": "function"
				},
				{
					"inputs": [],
					"name": "getMyListedNfts",
					"outputs": [
						{
							"components": [
								{
									"internalType": "address",
									"name": "nftContract",
									"type": "address"
								},
								{
									"internalType": "uint256",
									"name": "tokenId",
									"type": "uint256"
								},
								{
									"internalType": "address payable",
									"name": "seller",
									"type": "address"
								},
								{
									"internalType": "address payable",
									"name": "owner",
									"type": "address"
								},
								{
									"internalType": "uint256",
									"name": "price",
									"type": "uint256"
								},
								{
									"internalType": "bool",
									"name": "listed",
									"type": "bool"
								}
							],
							"internalType": "struct Marketplace.NFT[]",
							"name": "",
							"type": "tuple[]"
						}
					],
					"stateMutability": "view",
					"type": "function"
				},
				{
					"inputs": [],
					"name": "getMyNfts",
					"outputs": [
						{
							"components": [
								{
									"internalType": "address",
									"name": "nftContract",
									"type": "address"
								},
								{
									"internalType": "uint256",
									"name": "tokenId",
									"type": "uint256"
								},
								{
									"internalType": "address payable",
									"name": "seller",
									"type": "address"
								},
								{
									"internalType": "address payable",
									"name": "owner",
									"type": "address"
								},
								{
									"internalType": "uint256",
									"name": "price",
									"type": "uint256"
								},
								{
									"internalType": "bool",
									"name": "listed",
									"type": "bool"
								}
							],
							"internalType": "struct Marketplace.NFT[]",
							"name": "",
							"type": "tuple[]"
						}
					],
					"stateMutability": "view",
					"type": "function"
				},
				{
					"inputs": [
						{
							"internalType": "address",
							"name": "_nftContract",
							"type": "address"
						},
						{
							"internalType": "uint256",
							"name": "_tokenId",
							"type": "uint256"
						},
						{
							"internalType": "uint256",
							"name": "_price",
							"type": "uint256"
						},
						{
							"internalType": "bool",
							"name": "bid",
							"type": "bool"
						},
						{
							"internalType": "bool",
							"name": "subscription",
							"type": "bool"
						}
					],
					"name": "listNft",
					"outputs": [],
					"stateMutability": "payable",
					"type": "function"
				},
				{
					"inputs": [
						{
							"internalType": "address",
							"name": "_nftContract",
							"type": "address"
						},
						{
							"internalType": "uint256",
							"name": "_tokenId",
							"type": "uint256"
						},
						{
							"internalType": "uint256",
							"name": "_price",
							"type": "uint256"
						}
					],
					"name": "resellNft",
					"outputs": [],
					"stateMutability": "payable",
					"type": "function"
				}
			],
			"devdoc": {
				"kind": "dev",
				"methods": {},
				"version": 1
			},
			"evm": {
				"assembly": "    /* \"contracts/Marketplace.sol\":238:4788  contract Marketplace is ReentrancyGuard {\r... */\n  mstore(0x40, 0x80)\n    /* \"contracts/Marketplace.sol\":430:441  0.001 ether */\n  0x038d7ea4c68000\n    /* \"contracts/Marketplace.sol\":401:441  uint256 public LISTING_FEE = 0.001 ether */\n  0x03\n  sstore\n    /* \"contracts/Marketplace.sol\":517:520  200 */\n  0xc8\n    /* \"contracts/Marketplace.sol\":488:520  uint256 public SELLING_FEE = 200 */\n  0x04\n  sstore\n    /* \"contracts/Marketplace.sol\":1100:1161  constructor() {\r... */\n  callvalue\n  dup1\n  iszero\n  tag_1\n  jumpi\n  0x00\n  dup1\n  revert\ntag_1:\n  pop\n    /* \"@openzeppelin/contracts/security/ReentrancyGuard.sol\":1637:1638  1 */\n  0x01\n    /* \"@openzeppelin/contracts/security/ReentrancyGuard.sol\":1742:1749  _status */\n  0x00\n    /* \"@openzeppelin/contracts/security/ReentrancyGuard.sol\":1742:1764  _status = _NOT_ENTERED */\n  sstore\n    /* \"contracts/Marketplace.sol\":1121:1133  _marketOwner */\n  0x05\n    /* \"contracts/Marketplace.sol\":1121:1155  _marketOwner = payable(msg.sender) */\n  dup1\n  sload\n  not(sub(shl(0xa0, 0x01), 0x01))\n  and\n    /* \"contracts/Marketplace.sol\":1144:1154  msg.sender */\n  caller\n    /* \"contracts/Marketplace.sol\":1121:1155  _marketOwner = payable(msg.sender) */\n  or\n  swap1\n  sstore\n    /* \"contracts/Marketplace.sol\":238:4788  contract Marketplace is ReentrancyGuard {\r... */\n  dataSize(sub_0)\n  dup1\n  dataOffset(sub_0)\n  0x00\n  codecopy\n  0x00\n  return\nstop\n\nsub_0: assembly {\n        /* \"contracts/Marketplace.sol\":238:4788  contract Marketplace is ReentrancyGuard {\r... */\n      mstore(0x40, 0x80)\n      jumpi(tag_1, lt(calldatasize, 0x04))\n      shr(0xe0, calldataload(0x00))\n      dup1\n      0x34f5b624\n      gt\n      tag_11\n      jumpi\n      dup1\n      0x34f5b624\n      eq\n      tag_6\n      jumpi\n      dup1\n      0x4ddf4f8f\n      eq\n      tag_7\n      jumpi\n      dup1\n      0x8d6cb3fb\n      eq\n      tag_8\n      jumpi\n      dup1\n      0xb8fe6abe\n      eq\n      tag_9\n      jumpi\n      dup1\n      0xcdc66b2c\n      eq\n      tag_10\n      jumpi\n      0x00\n      dup1\n      revert\n    tag_11:\n      dup1\n      0x047b07bf\n      eq\n      tag_2\n      jumpi\n      dup1\n      0x1f4cc4db\n      eq\n      tag_3\n      jumpi\n      dup1\n      0x2b86ae38\n      eq\n      tag_4\n      jumpi\n      dup1\n      0x33431c0a\n      eq\n      tag_5\n      jumpi\n    tag_1:\n      0x00\n      dup1\n      revert\n        /* \"contracts/Marketplace.sol\":3641:4171  function getMyNfts() public view returns (NFT[] memory) {\r... */\n    tag_2:\n      callvalue\n      dup1\n      iszero\n      tag_12\n      jumpi\n      0x00\n      dup1\n      revert\n    tag_12:\n      pop\n      tag_13\n      tag_14\n      jump\t// in\n    tag_13:\n      mload(0x40)\n      tag_15\n      swap2\n      swap1\n      tag_16\n      jump\t// in\n    tag_15:\n      mload(0x40)\n      dup1\n      swap2\n      sub\n      swap1\n      return\n        /* \"contracts/Marketplace.sol\":4177:4785  function getMyListedNfts() public view returns (NFT[] memory) {\r... */\n    tag_3:\n      callvalue\n      dup1\n      iszero\n      tag_17\n      jumpi\n      0x00\n      dup1\n      revert\n    tag_17:\n      pop\n      tag_13\n      tag_19\n      jump\t// in\n        /* \"contracts/Marketplace.sol\":401:441  uint256 public LISTING_FEE = 0.001 ether */\n    tag_4:\n      callvalue\n      dup1\n      iszero\n      tag_21\n      jumpi\n      0x00\n      dup1\n      revert\n    tag_21:\n      pop\n      tag_22\n      sload(0x03)\n      dup2\n      jump\n    tag_22:\n      mload(0x40)\n        /* \"#utility.yul\":6410:6435   */\n      swap1\n      dup2\n      mstore\n        /* \"#utility.yul\":6398:6400   */\n      0x20\n        /* \"#utility.yul\":6383:6401   */\n      add\n        /* \"contracts/Marketplace.sol\":401:441  uint256 public LISTING_FEE = 0.001 ether */\n      tag_15\n        /* \"#utility.yul\":6264:6441   */\n      jump\n        /* \"contracts/Marketplace.sol\":1205:1833  function listNft(address _nftContract, uint256 _tokenId, uint256 _price, bool bid, bool subscription) public payable nonReentrant {\r... */\n    tag_5:\n      tag_26\n      tag_27\n      calldatasize\n      0x04\n      tag_28\n      jump\t// in\n    tag_27:\n      tag_29\n      jump\t// in\n    tag_26:\n      stop\n        /* \"contracts/Marketplace.sol\":2496:3103  function resellNft(address _nftContract, uint256 _tokenId, uint256 _price) public payable nonReentrant {\r... */\n    tag_6:\n      tag_26\n      tag_31\n      calldatasize\n      0x04\n      tag_32\n      jump\t// in\n    tag_31:\n      tag_33\n      jump\t// in\n        /* \"contracts/Marketplace.sol\":1856:2439  function buyNft(address _nftContract, uint256 _tokenId) public payable nonReentrant {\r... */\n    tag_7:\n      tag_26\n      tag_35\n      calldatasize\n      0x04\n      tag_36\n      jump\t// in\n    tag_35:\n      tag_37\n      jump\t// in\n        /* \"contracts/Marketplace.sol\":3201:3635  function getListedNfts() public view returns (NFT[] memory) {\r... */\n    tag_8:\n      callvalue\n      dup1\n      iszero\n      tag_38\n      jumpi\n      0x00\n      dup1\n      revert\n    tag_38:\n      pop\n      tag_13\n      tag_40\n      jump\t// in\n        /* \"contracts/Marketplace.sol\":3109:3195  function getListingFee() public view returns (uint256) {\r... */\n    tag_9:\n      callvalue\n      dup1\n      iszero\n      tag_42\n      jumpi\n      0x00\n      dup1\n      revert\n    tag_42:\n      pop\n        /* \"contracts/Marketplace.sol\":3178:3189  LISTING_FEE */\n      sload(0x03)\n        /* \"contracts/Marketplace.sol\":3109:3195  function getListingFee() public view returns (uint256) {\r... */\n      jump(tag_22)\n        /* \"contracts/Marketplace.sol\":488:520  uint256 public SELLING_FEE = 200 */\n    tag_10:\n      callvalue\n      dup1\n      iszero\n      tag_46\n      jumpi\n      0x00\n      dup1\n      revert\n    tag_46:\n      pop\n      tag_22\n      sload(0x04)\n      dup2\n      jump\n        /* \"contracts/Marketplace.sol\":3641:4171  function getMyNfts() public view returns (NFT[] memory) {\r... */\n    tag_14:\n        /* \"contracts/Marketplace.sol\":3683:3695  NFT[] memory */\n      0x60\n        /* \"contracts/Marketplace.sol\":3704:3717  uint nftCount */\n      0x00\n        /* \"contracts/Marketplace.sol\":3720:3739  _nftCount.current() */\n      tag_51\n        /* \"contracts/Marketplace.sol\":3720:3729  _nftCount */\n      0x02\n        /* \"@openzeppelin/contracts/utils/Counters.sol\":918:932  counter._value */\n      sload\n      swap1\n        /* \"@openzeppelin/contracts/utils/Counters.sol\":827:939  function current(Counter storage counter) internal view returns (uint256) {... */\n      jump\n        /* \"contracts/Marketplace.sol\":3720:3739  _nftCount.current() */\n    tag_51:\n        /* \"contracts/Marketplace.sol\":3704:3739  uint nftCount = _nftCount.current() */\n      swap1\n      pop\n        /* \"contracts/Marketplace.sol\":3746:3761  uint myNftCount */\n      0x00\n        /* \"contracts/Marketplace.sol\":3777:3783  uint i */\n      dup1\n        /* \"contracts/Marketplace.sol\":3772:3898  for (uint i = 0; i < nftCount; i++) {\r... */\n    tag_53:\n        /* \"contracts/Marketplace.sol\":3793:3801  nftCount */\n      dup3\n        /* \"contracts/Marketplace.sol\":3789:3790  i */\n      dup2\n        /* \"contracts/Marketplace.sol\":3789:3801  i < nftCount */\n      lt\n        /* \"contracts/Marketplace.sol\":3772:3898  for (uint i = 0; i < nftCount; i++) {\r... */\n      iszero\n      tag_54\n      jumpi\n        /* \"contracts/Marketplace.sol\":3846:3856  msg.sender */\n      caller\n        /* \"contracts/Marketplace.sol\":3821:3829  _idToNFT */\n      0x06\n        /* \"contracts/Marketplace.sol\":3821:3836  _idToNFT[i + 1] */\n      0x00\n        /* \"contracts/Marketplace.sol\":3830:3835  i + 1 */\n      tag_56\n        /* \"contracts/Marketplace.sol\":3830:3831  i */\n      dup5\n        /* \"contracts/Marketplace.sol\":3834:3835  1 */\n      0x01\n        /* \"contracts/Marketplace.sol\":3830:3835  i + 1 */\n      tag_57\n      jump\t// in\n    tag_56:\n        /* \"contracts/Marketplace.sol\":3821:3836  _idToNFT[i + 1] */\n      dup2\n      mstore\n      0x20\n      dup2\n      add\n      swap2\n      swap1\n      swap2\n      mstore\n      0x40\n      add\n      0x00\n      keccak256\n        /* \"contracts/Marketplace.sol\":3821:3842  _idToNFT[i + 1].owner */\n      0x03\n      add\n      sload\n      sub(shl(0xa0, 0x01), 0x01)\n      and\n        /* \"contracts/Marketplace.sol\":3821:3856  _idToNFT[i + 1].owner == msg.sender */\n      eq\n        /* \"contracts/Marketplace.sol\":3817:3891  if (_idToNFT[i + 1].owner == msg.sender) {\r... */\n      iszero\n      tag_58\n      jumpi\n        /* \"contracts/Marketplace.sol\":3869:3881  myNftCount++ */\n      dup2\n      tag_59\n      dup2\n      tag_60\n      jump\t// in\n    tag_59:\n      swap3\n      pop\n      pop\n        /* \"contracts/Marketplace.sol\":3817:3891  if (_idToNFT[i + 1].owner == msg.sender) {\r... */\n    tag_58:\n        /* \"contracts/Marketplace.sol\":3803:3806  i++ */\n      dup1\n      tag_61\n      dup2\n      tag_60\n      jump\t// in\n    tag_61:\n      swap2\n      pop\n      pop\n        /* \"contracts/Marketplace.sol\":3772:3898  for (uint i = 0; i < nftCount; i++) {\r... */\n      jump(tag_53)\n    tag_54:\n      pop\n        /* \"contracts/Marketplace.sol\":3906:3923  NFT[] memory nfts */\n      0x00\n        /* \"contracts/Marketplace.sol\":3936:3946  myNftCount */\n      dup2\n        /* \"contracts/Marketplace.sol\":3926:3947  new NFT[](myNftCount) */\n      0xffffffffffffffff\n      dup2\n      gt\n      iszero\n      tag_63\n      jumpi\n      tag_63\n      tag_64\n      jump\t// in\n    tag_63:\n      mload(0x40)\n      swap1\n      dup1\n      dup3\n      mstore\n      dup1\n      0x20\n      mul\n      0x20\n      add\n      dup3\n      add\n      0x40\n      mstore\n      dup1\n      iszero\n      tag_65\n      jumpi\n      dup2\n      0x20\n      add\n    tag_66:\n      tag_67\n      tag_68\n      jump\t// in\n    tag_67:\n      dup2\n      mstore\n      0x20\n      add\n      swap1\n      0x01\n      swap1\n      sub\n      swap1\n      dup2\n      tag_66\n      jumpi\n      swap1\n      pop\n    tag_65:\n      pop\n        /* \"contracts/Marketplace.sol\":3906:3947  NFT[] memory nfts = new NFT[](myNftCount) */\n      swap1\n      pop\n        /* \"contracts/Marketplace.sol\":3954:3968  uint nftsIndex */\n      0x00\n        /* \"contracts/Marketplace.sol\":3984:3990  uint i */\n      dup1\n        /* \"contracts/Marketplace.sol\":3979:4148  for (uint i = 0; i < nftCount; i++) {\r... */\n    tag_69:\n        /* \"contracts/Marketplace.sol\":4000:4008  nftCount */\n      dup5\n        /* \"contracts/Marketplace.sol\":3996:3997  i */\n      dup2\n        /* \"contracts/Marketplace.sol\":3996:4008  i < nftCount */\n      lt\n        /* \"contracts/Marketplace.sol\":3979:4148  for (uint i = 0; i < nftCount; i++) {\r... */\n      iszero\n      tag_70\n      jumpi\n        /* \"contracts/Marketplace.sol\":4053:4063  msg.sender */\n      caller\n        /* \"contracts/Marketplace.sol\":4028:4036  _idToNFT */\n      0x06\n        /* \"contracts/Marketplace.sol\":4028:4043  _idToNFT[i + 1] */\n      0x00\n        /* \"contracts/Marketplace.sol\":4037:4042  i + 1 */\n      tag_72\n        /* \"contracts/Marketplace.sol\":4037:4038  i */\n      dup5\n        /* \"contracts/Marketplace.sol\":4041:4042  1 */\n      0x01\n        /* \"contracts/Marketplace.sol\":4037:4042  i + 1 */\n      tag_57\n      jump\t// in\n    tag_72:\n        /* \"contracts/Marketplace.sol\":4028:4043  _idToNFT[i + 1] */\n      dup2\n      mstore\n      0x20\n      dup2\n      add\n      swap2\n      swap1\n      swap2\n      mstore\n      0x40\n      add\n      0x00\n      keccak256\n        /* \"contracts/Marketplace.sol\":4028:4049  _idToNFT[i + 1].owner */\n      0x03\n      add\n      sload\n      sub(shl(0xa0, 0x01), 0x01)\n      and\n        /* \"contracts/Marketplace.sol\":4028:4063  _idToNFT[i + 1].owner == msg.sender */\n      eq\n        /* \"contracts/Marketplace.sol\":4024:4141  if (_idToNFT[i + 1].owner == msg.sender) {\r... */\n      iszero\n      tag_73\n      jumpi\n        /* \"contracts/Marketplace.sol\":4094:4102  _idToNFT */\n      0x06\n        /* \"contracts/Marketplace.sol\":4094:4109  _idToNFT[i + 1] */\n      0x00\n        /* \"contracts/Marketplace.sol\":4103:4108  i + 1 */\n      tag_74\n        /* \"contracts/Marketplace.sol\":4103:4104  i */\n      dup4\n        /* \"contracts/Marketplace.sol\":4107:4108  1 */\n      0x01\n        /* \"contracts/Marketplace.sol\":4103:4108  i + 1 */\n      tag_57\n      jump\t// in\n    tag_74:\n        /* \"contracts/Marketplace.sol\":4094:4109  _idToNFT[i + 1] */\n      dup2\n      mstore\n      0x20\n      dup1\n      dup3\n      add\n      swap3\n      swap1\n      swap3\n      mstore\n      0x40\n      swap1\n      dup2\n      add\n      0x00\n      keccak256\n        /* \"contracts/Marketplace.sol\":4076:4109  nfts[nftsIndex] = _idToNFT[i + 1] */\n      dup2\n      mload\n      0xc0\n      dup2\n      add\n      dup4\n      mstore\n      dup2\n      sload\n      sub(shl(0xa0, 0x01), 0x01)\n      swap1\n      dup2\n      and\n      dup3\n      mstore\n      0x01\n      dup4\n      add\n      sload\n      swap5\n      dup3\n      add\n      swap5\n      swap1\n      swap5\n      mstore\n      0x02\n      dup3\n      add\n      sload\n      dup5\n      and\n      swap3\n      dup2\n      add\n      swap3\n      swap1\n      swap3\n      mstore\n      0x03\n      dup2\n      add\n      sload\n      swap1\n      swap3\n      and\n      0x60\n      dup3\n      add\n      mstore\n      0x04\n      dup3\n      add\n      sload\n      0x80\n      dup3\n      add\n      mstore\n      0x05\n      swap1\n      swap2\n      add\n      sload\n      0xff\n      and\n      iszero\n      iszero\n      0xa0\n      dup3\n      add\n      mstore\n        /* \"contracts/Marketplace.sol\":4076:4091  nfts[nftsIndex] */\n      dup4\n      mload\n        /* \"contracts/Marketplace.sol\":4076:4080  nfts */\n      dup5\n      swap1\n        /* \"contracts/Marketplace.sol\":4081:4090  nftsIndex */\n      dup5\n      swap1\n        /* \"contracts/Marketplace.sol\":4076:4091  nfts[nftsIndex] */\n      dup2\n      lt\n      tag_76\n      jumpi\n      tag_76\n      tag_77\n      jump\t// in\n    tag_76:\n      0x20\n      mul\n      0x20\n      add\n      add\n        /* \"contracts/Marketplace.sol\":4076:4109  nfts[nftsIndex] = _idToNFT[i + 1] */\n      dup2\n      swap1\n      mstore\n      pop\n        /* \"contracts/Marketplace.sol\":4120:4131  nftsIndex++ */\n      dup2\n      dup1\n      tag_78\n      swap1\n      tag_60\n      jump\t// in\n    tag_78:\n      swap3\n      pop\n      pop\n        /* \"contracts/Marketplace.sol\":4024:4141  if (_idToNFT[i + 1].owner == msg.sender) {\r... */\n    tag_73:\n        /* \"contracts/Marketplace.sol\":4010:4013  i++ */\n      dup1\n      tag_79\n      dup2\n      tag_60\n      jump\t// in\n    tag_79:\n      swap2\n      pop\n      pop\n        /* \"contracts/Marketplace.sol\":3979:4148  for (uint i = 0; i < nftCount; i++) {\r... */\n      jump(tag_69)\n    tag_70:\n      pop\n        /* \"contracts/Marketplace.sol\":4161:4165  nfts */\n      swap1\n      swap5\n        /* \"contracts/Marketplace.sol\":3641:4171  function getMyNfts() public view returns (NFT[] memory) {\r... */\n      swap4\n      pop\n      pop\n      pop\n      pop\n      jump\t// out\n        /* \"contracts/Marketplace.sol\":4177:4785  function getMyListedNfts() public view returns (NFT[] memory) {\r... */\n    tag_19:\n        /* \"contracts/Marketplace.sol\":4225:4237  NFT[] memory */\n      0x60\n        /* \"contracts/Marketplace.sol\":4246:4259  uint nftCount */\n      0x00\n        /* \"contracts/Marketplace.sol\":4262:4281  _nftCount.current() */\n      tag_81\n        /* \"contracts/Marketplace.sol\":4262:4271  _nftCount */\n      0x02\n        /* \"@openzeppelin/contracts/utils/Counters.sol\":918:932  counter._value */\n      sload\n      swap1\n        /* \"@openzeppelin/contracts/utils/Counters.sol\":827:939  function current(Counter storage counter) internal view returns (uint256) {... */\n      jump\n        /* \"contracts/Marketplace.sol\":4262:4281  _nftCount.current() */\n    tag_81:\n        /* \"contracts/Marketplace.sol\":4246:4281  uint nftCount = _nftCount.current() */\n      swap1\n      pop\n        /* \"contracts/Marketplace.sol\":4288:4309  uint myListedNftCount */\n      0x00\n        /* \"contracts/Marketplace.sol\":4325:4331  uint i */\n      dup1\n        /* \"contracts/Marketplace.sol\":4320:4479  for (uint i = 0; i < nftCount; i++) {\r... */\n    tag_82:\n        /* \"contracts/Marketplace.sol\":4341:4349  nftCount */\n      dup3\n        /* \"contracts/Marketplace.sol\":4337:4338  i */\n      dup2\n        /* \"contracts/Marketplace.sol\":4337:4349  i < nftCount */\n      lt\n        /* \"contracts/Marketplace.sol\":4320:4479  for (uint i = 0; i < nftCount; i++) {\r... */\n      iszero\n      tag_83\n      jumpi\n        /* \"contracts/Marketplace.sol\":4395:4405  msg.sender */\n      caller\n        /* \"contracts/Marketplace.sol\":4369:4377  _idToNFT */\n      0x06\n        /* \"contracts/Marketplace.sol\":4369:4384  _idToNFT[i + 1] */\n      0x00\n        /* \"contracts/Marketplace.sol\":4378:4383  i + 1 */\n      tag_85\n        /* \"contracts/Marketplace.sol\":4378:4379  i */\n      dup5\n        /* \"contracts/Marketplace.sol\":4382:4383  1 */\n      0x01\n        /* \"contracts/Marketplace.sol\":4378:4383  i + 1 */\n      tag_57\n      jump\t// in\n    tag_85:\n        /* \"contracts/Marketplace.sol\":4369:4384  _idToNFT[i + 1] */\n      dup2\n      mstore\n      0x20\n      dup2\n      add\n      swap2\n      swap1\n      swap2\n      mstore\n      0x40\n      add\n      0x00\n      keccak256\n        /* \"contracts/Marketplace.sol\":4369:4391  _idToNFT[i + 1].seller */\n      0x02\n      add\n      sload\n      sub(shl(0xa0, 0x01), 0x01)\n      and\n        /* \"contracts/Marketplace.sol\":4369:4405  _idToNFT[i + 1].seller == msg.sender */\n      eq\n        /* \"contracts/Marketplace.sol\":4369:4431  _idToNFT[i + 1].seller == msg.sender && _idToNFT[i + 1].listed */\n      dup1\n      iszero\n      tag_86\n      jumpi\n      pop\n        /* \"contracts/Marketplace.sol\":4409:4417  _idToNFT */\n      0x06\n        /* \"contracts/Marketplace.sol\":4409:4424  _idToNFT[i + 1] */\n      0x00\n        /* \"contracts/Marketplace.sol\":4418:4423  i + 1 */\n      tag_87\n        /* \"contracts/Marketplace.sol\":4418:4419  i */\n      dup4\n        /* \"contracts/Marketplace.sol\":4422:4423  1 */\n      0x01\n        /* \"contracts/Marketplace.sol\":4418:4423  i + 1 */\n      tag_57\n      jump\t// in\n    tag_87:\n        /* \"contracts/Marketplace.sol\":4409:4424  _idToNFT[i + 1] */\n      dup2\n      mstore\n      0x20\n      dup2\n      add\n      swap2\n      swap1\n      swap2\n      mstore\n      0x40\n      add\n      0x00\n      keccak256\n        /* \"contracts/Marketplace.sol\":4409:4431  _idToNFT[i + 1].listed */\n      0x05\n      add\n      sload\n      0xff\n      and\n        /* \"contracts/Marketplace.sol\":4369:4431  _idToNFT[i + 1].seller == msg.sender && _idToNFT[i + 1].listed */\n    tag_86:\n        /* \"contracts/Marketplace.sol\":4365:4472  if (_idToNFT[i + 1].seller == msg.sender && _idToNFT[i + 1].listed) {\r... */\n      iszero\n      tag_88\n      jumpi\n        /* \"contracts/Marketplace.sol\":4444:4462  myListedNftCount++ */\n      dup2\n      tag_89\n      dup2\n      tag_60\n      jump\t// in\n    tag_89:\n      swap3\n      pop\n      pop\n        /* \"contracts/Marketplace.sol\":4365:4472  if (_idToNFT[i + 1].seller == msg.sender && _idToNFT[i + 1].listed) {\r... */\n    tag_88:\n        /* \"contracts/Marketplace.sol\":4351:4354  i++ */\n      dup1\n      tag_90\n      dup2\n      tag_60\n      jump\t// in\n    tag_90:\n      swap2\n      pop\n      pop\n        /* \"contracts/Marketplace.sol\":4320:4479  for (uint i = 0; i < nftCount; i++) {\r... */\n      jump(tag_82)\n    tag_83:\n      pop\n        /* \"contracts/Marketplace.sol\":4487:4504  NFT[] memory nfts */\n      0x00\n        /* \"contracts/Marketplace.sol\":4517:4533  myListedNftCount */\n      dup2\n        /* \"contracts/Marketplace.sol\":4507:4534  new NFT[](myListedNftCount) */\n      0xffffffffffffffff\n      dup2\n      gt\n      iszero\n      tag_92\n      jumpi\n      tag_92\n      tag_64\n      jump\t// in\n    tag_92:\n      mload(0x40)\n      swap1\n      dup1\n      dup3\n      mstore\n      dup1\n      0x20\n      mul\n      0x20\n      add\n      dup3\n      add\n      0x40\n      mstore\n      dup1\n      iszero\n      tag_93\n      jumpi\n      dup2\n      0x20\n      add\n    tag_94:\n      tag_95\n      tag_68\n      jump\t// in\n    tag_95:\n      dup2\n      mstore\n      0x20\n      add\n      swap1\n      0x01\n      swap1\n      sub\n      swap1\n      dup2\n      tag_94\n      jumpi\n      swap1\n      pop\n    tag_93:\n      pop\n        /* \"contracts/Marketplace.sol\":4487:4534  NFT[] memory nfts = new NFT[](myListedNftCount) */\n      swap1\n      pop\n        /* \"contracts/Marketplace.sol\":4541:4555  uint nftsIndex */\n      0x00\n        /* \"contracts/Marketplace.sol\":4571:4577  uint i */\n      dup1\n        /* \"contracts/Marketplace.sol\":4566:4762  for (uint i = 0; i < nftCount; i++) {\r... */\n    tag_96:\n        /* \"contracts/Marketplace.sol\":4587:4595  nftCount */\n      dup5\n        /* \"contracts/Marketplace.sol\":4583:4584  i */\n      dup2\n        /* \"contracts/Marketplace.sol\":4583:4595  i < nftCount */\n      lt\n        /* \"contracts/Marketplace.sol\":4566:4762  for (uint i = 0; i < nftCount; i++) {\r... */\n      iszero\n      tag_70\n      jumpi\n        /* \"contracts/Marketplace.sol\":4641:4651  msg.sender */\n      caller\n        /* \"contracts/Marketplace.sol\":4615:4623  _idToNFT */\n      0x06\n        /* \"contracts/Marketplace.sol\":4615:4630  _idToNFT[i + 1] */\n      0x00\n        /* \"contracts/Marketplace.sol\":4624:4629  i + 1 */\n      tag_99\n        /* \"contracts/Marketplace.sol\":4624:4625  i */\n      dup5\n        /* \"contracts/Marketplace.sol\":4628:4629  1 */\n      0x01\n        /* \"contracts/Marketplace.sol\":4624:4629  i + 1 */\n      tag_57\n      jump\t// in\n    tag_99:\n        /* \"contracts/Marketplace.sol\":4615:4630  _idToNFT[i + 1] */\n      dup2\n      mstore\n      0x20\n      dup2\n      add\n      swap2\n      swap1\n      swap2\n      mstore\n      0x40\n      add\n      0x00\n      keccak256\n        /* \"contracts/Marketplace.sol\":4615:4637  _idToNFT[i + 1].seller */\n      0x02\n      add\n      sload\n      sub(shl(0xa0, 0x01), 0x01)\n      and\n        /* \"contracts/Marketplace.sol\":4615:4651  _idToNFT[i + 1].seller == msg.sender */\n      eq\n        /* \"contracts/Marketplace.sol\":4615:4677  _idToNFT[i + 1].seller == msg.sender && _idToNFT[i + 1].listed */\n      dup1\n      iszero\n      tag_100\n      jumpi\n      pop\n        /* \"contracts/Marketplace.sol\":4655:4663  _idToNFT */\n      0x06\n        /* \"contracts/Marketplace.sol\":4655:4670  _idToNFT[i + 1] */\n      0x00\n        /* \"contracts/Marketplace.sol\":4664:4669  i + 1 */\n      tag_101\n        /* \"contracts/Marketplace.sol\":4664:4665  i */\n      dup4\n        /* \"contracts/Marketplace.sol\":4668:4669  1 */\n      0x01\n        /* \"contracts/Marketplace.sol\":4664:4669  i + 1 */\n      tag_57\n      jump\t// in\n    tag_101:\n        /* \"contracts/Marketplace.sol\":4655:4670  _idToNFT[i + 1] */\n      dup2\n      mstore\n      0x20\n      dup2\n      add\n      swap2\n      swap1\n      swap2\n      mstore\n      0x40\n      add\n      0x00\n      keccak256\n        /* \"contracts/Marketplace.sol\":4655:4677  _idToNFT[i + 1].listed */\n      0x05\n      add\n      sload\n      0xff\n      and\n        /* \"contracts/Marketplace.sol\":4615:4677  _idToNFT[i + 1].seller == msg.sender && _idToNFT[i + 1].listed */\n    tag_100:\n        /* \"contracts/Marketplace.sol\":4611:4755  if (_idToNFT[i + 1].seller == msg.sender && _idToNFT[i + 1].listed) {\r... */\n      iszero\n      tag_102\n      jumpi\n        /* \"contracts/Marketplace.sol\":4708:4716  _idToNFT */\n      0x06\n        /* \"contracts/Marketplace.sol\":4708:4723  _idToNFT[i + 1] */\n      0x00\n        /* \"contracts/Marketplace.sol\":4717:4722  i + 1 */\n      tag_103\n        /* \"contracts/Marketplace.sol\":4717:4718  i */\n      dup4\n        /* \"contracts/Marketplace.sol\":4721:4722  1 */\n      0x01\n        /* \"contracts/Marketplace.sol\":4717:4722  i + 1 */\n      tag_57\n      jump\t// in\n    tag_103:\n        /* \"contracts/Marketplace.sol\":4708:4723  _idToNFT[i + 1] */\n      dup2\n      mstore\n      0x20\n      dup1\n      dup3\n      add\n      swap3\n      swap1\n      swap3\n      mstore\n      0x40\n      swap1\n      dup2\n      add\n      0x00\n      keccak256\n        /* \"contracts/Marketplace.sol\":4690:4723  nfts[nftsIndex] = _idToNFT[i + 1] */\n      dup2\n      mload\n      0xc0\n      dup2\n      add\n      dup4\n      mstore\n      dup2\n      sload\n      sub(shl(0xa0, 0x01), 0x01)\n      swap1\n      dup2\n      and\n      dup3\n      mstore\n      0x01\n      dup4\n      add\n      sload\n      swap5\n      dup3\n      add\n      swap5\n      swap1\n      swap5\n      mstore\n      0x02\n      dup3\n      add\n      sload\n      dup5\n      and\n      swap3\n      dup2\n      add\n      swap3\n      swap1\n      swap3\n      mstore\n      0x03\n      dup2\n      add\n      sload\n      swap1\n      swap3\n      and\n      0x60\n      dup3\n      add\n      mstore\n      0x04\n      dup3\n      add\n      sload\n      0x80\n      dup3\n      add\n      mstore\n      0x05\n      swap1\n      swap2\n      add\n      sload\n      0xff\n      and\n      iszero\n      iszero\n      0xa0\n      dup3\n      add\n      mstore\n        /* \"contracts/Marketplace.sol\":4690:4705  nfts[nftsIndex] */\n      dup4\n      mload\n        /* \"contracts/Marketplace.sol\":4690:4694  nfts */\n      dup5\n      swap1\n        /* \"contracts/Marketplace.sol\":4695:4704  nftsIndex */\n      dup5\n      swap1\n        /* \"contracts/Marketplace.sol\":4690:4705  nfts[nftsIndex] */\n      dup2\n      lt\n      tag_105\n      jumpi\n      tag_105\n      tag_77\n      jump\t// in\n    tag_105:\n      0x20\n      mul\n      0x20\n      add\n      add\n        /* \"contracts/Marketplace.sol\":4690:4723  nfts[nftsIndex] = _idToNFT[i + 1] */\n      dup2\n      swap1\n      mstore\n      pop\n        /* \"contracts/Marketplace.sol\":4734:4745  nftsIndex++ */\n      dup2\n      dup1\n      tag_106\n      swap1\n      tag_60\n      jump\t// in\n    tag_106:\n      swap3\n      pop\n      pop\n        /* \"contracts/Marketplace.sol\":4611:4755  if (_idToNFT[i + 1].seller == msg.sender && _idToNFT[i + 1].listed) {\r... */\n    tag_102:\n        /* \"contracts/Marketplace.sol\":4597:4600  i++ */\n      dup1\n      tag_107\n      dup2\n      tag_60\n      jump\t// in\n    tag_107:\n      swap2\n      pop\n      pop\n        /* \"contracts/Marketplace.sol\":4566:4762  for (uint i = 0; i < nftCount; i++) {\r... */\n      jump(tag_96)\n        /* \"contracts/Marketplace.sol\":1205:1833  function listNft(address _nftContract, uint256 _tokenId, uint256 _price, bool bid, bool subscription) public payable nonReentrant {\r... */\n    tag_29:\n        /* \"@openzeppelin/contracts/security/ReentrancyGuard.sol\":1680:1681  2 */\n      0x02\n        /* \"@openzeppelin/contracts/security/ReentrancyGuard.sol\":2259:2266  _status */\n      sload(0x00)\n        /* \"@openzeppelin/contracts/security/ReentrancyGuard.sol\":2259:2278  _status != _ENTERED */\n      eq\n      iszero\n        /* \"@openzeppelin/contracts/security/ReentrancyGuard.sol\":2251:2314  require(_status != _ENTERED, \"ReentrancyGuard: reentrant call\") */\n      tag_109\n      jumpi\n      mload(0x40)\n      shl(0xe5, 0x461bcd)\n      dup2\n      mstore\n      0x04\n      add\n      tag_110\n      swap1\n      tag_111\n      jump\t// in\n    tag_110:\n      mload(0x40)\n      dup1\n      swap2\n      sub\n      swap1\n      revert\n    tag_109:\n        /* \"@openzeppelin/contracts/security/ReentrancyGuard.sol\":1680:1681  2 */\n      0x02\n        /* \"@openzeppelin/contracts/security/ReentrancyGuard.sol\":2389:2396  _status */\n      0x00\n        /* \"@openzeppelin/contracts/security/ReentrancyGuard.sol\":2389:2407  _status = _ENTERED */\n      sstore\n        /* \"contracts/Marketplace.sol\":1350:1360  _price > 0 */\n      dup3\n        /* \"contracts/Marketplace.sol\":1342:1393  require(_price > 0, \"Price must be at least 1 wei\") */\n      tag_113\n      jumpi\n      mload(0x40)\n      shl(0xe5, 0x461bcd)\n      dup2\n      mstore\n        /* \"#utility.yul\":6109:6111   */\n      0x20\n        /* \"contracts/Marketplace.sol\":1342:1393  require(_price > 0, \"Price must be at least 1 wei\") */\n      0x04\n      dup3\n      add\n        /* \"#utility.yul\":6091:6112   */\n      mstore\n        /* \"#utility.yul\":6148:6150   */\n      0x1c\n        /* \"#utility.yul\":6128:6146   */\n      0x24\n      dup3\n      add\n        /* \"#utility.yul\":6121:6151   */\n      mstore\n        /* \"#utility.yul\":6187:6217   */\n      0x5072696365206d757374206265206174206c6561737420312077656900000000\n        /* \"#utility.yul\":6167:6185   */\n      0x44\n      dup3\n      add\n        /* \"#utility.yul\":6160:6218   */\n      mstore\n        /* \"#utility.yul\":6235:6253   */\n      0x64\n      add\n        /* \"contracts/Marketplace.sol\":1342:1393  require(_price > 0, \"Price must be at least 1 wei\") */\n      tag_110\n        /* \"#utility.yul\":5907:6259   */\n      jump\n        /* \"contracts/Marketplace.sol\":1342:1393  require(_price > 0, \"Price must be at least 1 wei\") */\n    tag_113:\n        /* \"contracts/Marketplace.sol\":1421:1432  LISTING_FEE */\n      sload(0x03)\n        /* \"contracts/Marketplace.sol\":1408:1417  msg.value */\n      callvalue\n        /* \"contracts/Marketplace.sol\":1408:1432  msg.value == LISTING_FEE */\n      eq\n        /* \"contracts/Marketplace.sol\":1400:1469  require(msg.value == LISTING_FEE, \"Not enough ether for listing fee\") */\n      tag_116\n      jumpi\n      mload(0x40)\n      shl(0xe5, 0x461bcd)\n      dup2\n      mstore\n        /* \"#utility.yul\":5388:5390   */\n      0x20\n        /* \"contracts/Marketplace.sol\":1400:1469  require(msg.value == LISTING_FEE, \"Not enough ether for listing fee\") */\n      0x04\n      dup3\n      add\n        /* \"#utility.yul\":5370:5391   */\n      dup2\n      swap1\n      mstore\n        /* \"#utility.yul\":5407:5425   */\n      0x24\n      dup3\n      add\n        /* \"#utility.yul\":5400:5430   */\n      mstore\n        /* \"#utility.yul\":5466:5500   */\n      0x4e6f7420656e6f75676820657468657220666f72206c697374696e6720666565\n        /* \"#utility.yul\":5446:5464   */\n      0x44\n      dup3\n      add\n        /* \"#utility.yul\":5439:5501   */\n      mstore\n        /* \"#utility.yul\":5518:5536   */\n      0x64\n      add\n        /* \"contracts/Marketplace.sol\":1400:1469  require(msg.value == LISTING_FEE, \"Not enough ether for listing fee\") */\n      tag_110\n        /* \"#utility.yul\":5186:5542   */\n      jump\n        /* \"contracts/Marketplace.sol\":1400:1469  require(msg.value == LISTING_FEE, \"Not enough ether for listing fee\") */\n    tag_116:\n        /* \"contracts/Marketplace.sol\":1478:1549  IERC721(_nftContract).transferFrom(msg.sender, address(this), _tokenId) */\n      mload(0x40)\n      shl(0xe0, 0x23b872dd)\n      dup2\n      mstore\n        /* \"contracts/Marketplace.sol\":1513:1523  msg.sender */\n      caller\n        /* \"contracts/Marketplace.sol\":1478:1549  IERC721(_nftContract).transferFrom(msg.sender, address(this), _tokenId) */\n      0x04\n      dup3\n      add\n        /* \"#utility.yul\":1656:1690   */\n      mstore\n        /* \"contracts/Marketplace.sol\":1533:1537  this */\n      address\n        /* \"#utility.yul\":1706:1724   */\n      0x24\n      dup3\n      add\n        /* \"#utility.yul\":1699:1742   */\n      mstore\n        /* \"#utility.yul\":1758:1776   */\n      0x44\n      dup2\n      add\n        /* \"#utility.yul\":1751:1785   */\n      dup6\n      swap1\n      mstore\n      sub(shl(0xa0, 0x01), 0x01)\n        /* \"contracts/Marketplace.sol\":1478:1512  IERC721(_nftContract).transferFrom */\n      dup7\n      and\n      swap1\n      0x23b872dd\n      swap1\n        /* \"#utility.yul\":1591:1609   */\n      0x64\n      add\n        /* \"contracts/Marketplace.sol\":1478:1549  IERC721(_nftContract).transferFrom(msg.sender, address(this), _tokenId) */\n      0x00\n      mload(0x40)\n      dup1\n      dup4\n      sub\n      dup2\n      0x00\n      dup8\n      dup1\n      extcodesize\n      iszero\n      dup1\n      iszero\n      tag_121\n      jumpi\n      0x00\n      dup1\n      revert\n    tag_121:\n      pop\n      gas\n      call\n      iszero\n      dup1\n      iszero\n      tag_123\n      jumpi\n      returndatasize\n      0x00\n      dup1\n      returndatacopy\n      revert(0x00, returndatasize)\n    tag_123:\n      pop\n      pop\n      pop\n      pop\n        /* \"contracts/Marketplace.sol\":1558:1579  _nftCount.increment() */\n      tag_124\n        /* \"contracts/Marketplace.sol\":1558:1567  _nftCount */\n      0x02\n        /* \"@openzeppelin/contracts/utils/Counters.sol\":1032:1051  counter._value += 1 */\n      dup1\n      sload\n        /* \"@openzeppelin/contracts/utils/Counters.sol\":1050:1051  1 */\n      0x01\n        /* \"@openzeppelin/contracts/utils/Counters.sol\":1032:1051  counter._value += 1 */\n      add\n      swap1\n      sstore\n        /* \"@openzeppelin/contracts/utils/Counters.sol\":945:1068  function increment(Counter storage counter) internal {... */\n      jump\n        /* \"contracts/Marketplace.sol\":1558:1579  _nftCount.increment() */\n    tag_124:\n        /* \"contracts/Marketplace.sol\":1609:1745  NFT(\r... */\n      mload(0x40)\n      dup1\n      0xc0\n      add\n      0x40\n      mstore\n      dup1\n        /* \"contracts/Marketplace.sol\":1621:1633  _nftContract */\n      dup7\n      sub(shl(0xa0, 0x01), 0x01)\n        /* \"contracts/Marketplace.sol\":1609:1745  NFT(\r... */\n      and\n      dup2\n      mstore\n      0x20\n      add\n        /* \"contracts/Marketplace.sol\":1642:1650  _tokenId */\n      dup6\n        /* \"contracts/Marketplace.sol\":1609:1745  NFT(\r... */\n      dup2\n      mstore\n      0x20\n      add\n        /* \"contracts/Marketplace.sol\":1668:1678  msg.sender */\n      caller\n      sub(shl(0xa0, 0x01), 0x01)\n        /* \"contracts/Marketplace.sol\":1609:1745  NFT(\r... */\n      and\n      dup2\n      mstore\n      0x20\n      add\n        /* \"contracts/Marketplace.sol\":1704:1708  this */\n      address\n      sub(shl(0xa0, 0x01), 0x01)\n        /* \"contracts/Marketplace.sol\":1609:1745  NFT(\r... */\n      and\n      dup2\n      mstore\n      0x20\n      add\n        /* \"contracts/Marketplace.sol\":1719:1725  _price */\n      dup5\n        /* \"contracts/Marketplace.sol\":1609:1745  NFT(\r... */\n      dup2\n      mstore\n      0x20\n      add\n        /* \"contracts/Marketplace.sol\":1734:1738  true */\n      0x01\n        /* \"contracts/Marketplace.sol\":1609:1745  NFT(\r... */\n      iszero\n      iszero\n      dup2\n      mstore\n      pop\n        /* \"contracts/Marketplace.sol\":1588:1596  _idToNFT */\n      0x06\n        /* \"contracts/Marketplace.sol\":1588:1606  _idToNFT[_tokenId] */\n      0x00\n        /* \"contracts/Marketplace.sol\":1597:1605  _tokenId */\n      dup7\n        /* \"contracts/Marketplace.sol\":1588:1606  _idToNFT[_tokenId] */\n      dup2\n      mstore\n      0x20\n      add\n      swap1\n      dup2\n      mstore\n      0x20\n      add\n      0x00\n      keccak256\n        /* \"contracts/Marketplace.sol\":1588:1745  _idToNFT[_tokenId] = NFT(\r... */\n      0x00\n      dup3\n      add\n      mload\n      dup2\n      0x00\n      add\n      exp(0x0100, 0x00)\n      dup2\n      sload\n      dup2\n      sub(shl(0xa0, 0x01), 0x01)\n      mul\n      not\n      and\n      swap1\n      dup4\n      sub(shl(0xa0, 0x01), 0x01)\n      and\n      mul\n      or\n      swap1\n      sstore\n      pop\n      0x20\n      dup3\n      add\n      mload\n      dup2\n      0x01\n      add\n      sstore\n      0x40\n      dup3\n      add\n      mload\n      dup2\n      0x02\n      add\n      exp(0x0100, 0x00)\n      dup2\n      sload\n      dup2\n      sub(shl(0xa0, 0x01), 0x01)\n      mul\n      not\n      and\n      swap1\n      dup4\n      sub(shl(0xa0, 0x01), 0x01)\n      and\n      mul\n      or\n      swap1\n      sstore\n      pop\n      0x60\n      dup3\n      add\n      mload\n      dup2\n      0x03\n      add\n      exp(0x0100, 0x00)\n      dup2\n      sload\n      dup2\n      sub(shl(0xa0, 0x01), 0x01)\n      mul\n      not\n      and\n      swap1\n      dup4\n      sub(shl(0xa0, 0x01), 0x01)\n      and\n      mul\n      or\n      swap1\n      sstore\n      pop\n      0x80\n      dup3\n      add\n      mload\n      dup2\n      0x04\n      add\n      sstore\n      0xa0\n      dup3\n      add\n      mload\n      dup2\n      0x05\n      add\n      exp(0x0100, 0x00)\n      dup2\n      sload\n      dup2\n      0xff\n      mul\n      not\n      and\n      swap1\n      dup4\n      iszero\n      iszero\n      mul\n      or\n      swap1\n      sstore\n      pop\n      swap1\n      pop\n      pop\n        /* \"contracts/Marketplace.sol\":1759:1827  NFTListed(_nftContract, _tokenId, msg.sender, address(this), _price) */\n      0xa0c6c0d02d86fdacecbaa5fdf5894bab204e31a778250474108540733a9b8d19\n        /* \"contracts/Marketplace.sol\":1769:1781  _nftContract */\n      dup6\n        /* \"contracts/Marketplace.sol\":1783:1791  _tokenId */\n      dup6\n        /* \"contracts/Marketplace.sol\":1793:1803  msg.sender */\n      caller\n        /* \"contracts/Marketplace.sol\":1813:1817  this */\n      address\n        /* \"contracts/Marketplace.sol\":1820:1826  _price */\n      dup8\n        /* \"contracts/Marketplace.sol\":1759:1827  NFTListed(_nftContract, _tokenId, msg.sender, address(this), _price) */\n      mload(0x40)\n      tag_126\n      swap6\n      swap5\n      swap4\n      swap3\n      swap2\n      swap1\n      tag_161\n      jump\t// in\n    tag_126:\n      mload(0x40)\n      dup1\n      swap2\n      sub\n      swap1\n      log1\n      pop\n      pop\n        /* \"@openzeppelin/contracts/security/ReentrancyGuard.sol\":1637:1638  1 */\n      0x01\n        /* \"@openzeppelin/contracts/security/ReentrancyGuard.sol\":2562:2569  _status */\n      0x00\n        /* \"@openzeppelin/contracts/security/ReentrancyGuard.sol\":2562:2584  _status = _NOT_ENTERED */\n      sstore\n      pop\n      pop\n      pop\n        /* \"contracts/Marketplace.sol\":1205:1833  function listNft(address _nftContract, uint256 _tokenId, uint256 _price, bool bid, bool subscription) public payable nonReentrant {\r... */\n      jump\t// out\n        /* \"contracts/Marketplace.sol\":2496:3103  function resellNft(address _nftContract, uint256 _tokenId, uint256 _price) public payable nonReentrant {\r... */\n    tag_33:\n        /* \"@openzeppelin/contracts/security/ReentrancyGuard.sol\":1680:1681  2 */\n      0x02\n        /* \"@openzeppelin/contracts/security/ReentrancyGuard.sol\":2259:2266  _status */\n      sload(0x00)\n        /* \"@openzeppelin/contracts/security/ReentrancyGuard.sol\":2259:2278  _status != _ENTERED */\n      eq\n      iszero\n        /* \"@openzeppelin/contracts/security/ReentrancyGuard.sol\":2251:2314  require(_status != _ENTERED, \"ReentrancyGuard: reentrant call\") */\n      tag_129\n      jumpi\n      mload(0x40)\n      shl(0xe5, 0x461bcd)\n      dup2\n      mstore\n      0x04\n      add\n      tag_110\n      swap1\n      tag_111\n      jump\t// in\n    tag_129:\n        /* \"@openzeppelin/contracts/security/ReentrancyGuard.sol\":1680:1681  2 */\n      0x02\n        /* \"@openzeppelin/contracts/security/ReentrancyGuard.sol\":2389:2396  _status */\n      0x00\n        /* \"@openzeppelin/contracts/security/ReentrancyGuard.sol\":2389:2407  _status = _ENTERED */\n      sstore\n        /* \"contracts/Marketplace.sol\":2614:2624  _price > 0 */\n      dup1\n        /* \"contracts/Marketplace.sol\":2606:2657  require(_price > 0, \"Price must be at least 1 wei\") */\n      tag_132\n      jumpi\n      mload(0x40)\n      shl(0xe5, 0x461bcd)\n      dup2\n      mstore\n        /* \"#utility.yul\":6109:6111   */\n      0x20\n        /* \"contracts/Marketplace.sol\":2606:2657  require(_price > 0, \"Price must be at least 1 wei\") */\n      0x04\n      dup3\n      add\n        /* \"#utility.yul\":6091:6112   */\n      mstore\n        /* \"#utility.yul\":6148:6150   */\n      0x1c\n        /* \"#utility.yul\":6128:6146   */\n      0x24\n      dup3\n      add\n        /* \"#utility.yul\":6121:6151   */\n      mstore\n        /* \"#utility.yul\":6187:6217   */\n      0x5072696365206d757374206265206174206c6561737420312077656900000000\n        /* \"#utility.yul\":6167:6185   */\n      0x44\n      dup3\n      add\n        /* \"#utility.yul\":6160:6218   */\n      mstore\n        /* \"#utility.yul\":6235:6253   */\n      0x64\n      add\n        /* \"contracts/Marketplace.sol\":2606:2657  require(_price > 0, \"Price must be at least 1 wei\") */\n      tag_110\n        /* \"#utility.yul\":5907:6259   */\n      jump\n        /* \"contracts/Marketplace.sol\":2606:2657  require(_price > 0, \"Price must be at least 1 wei\") */\n    tag_132:\n        /* \"contracts/Marketplace.sol\":2685:2696  LISTING_FEE */\n      sload(0x03)\n        /* \"contracts/Marketplace.sol\":2672:2681  msg.value */\n      callvalue\n        /* \"contracts/Marketplace.sol\":2672:2696  msg.value == LISTING_FEE */\n      eq\n        /* \"contracts/Marketplace.sol\":2664:2733  require(msg.value == LISTING_FEE, \"Not enough ether for listing fee\") */\n      tag_134\n      jumpi\n      mload(0x40)\n      shl(0xe5, 0x461bcd)\n      dup2\n      mstore\n        /* \"#utility.yul\":5388:5390   */\n      0x20\n        /* \"contracts/Marketplace.sol\":2664:2733  require(msg.value == LISTING_FEE, \"Not enough ether for listing fee\") */\n      0x04\n      dup3\n      add\n        /* \"#utility.yul\":5370:5391   */\n      dup2\n      swap1\n      mstore\n        /* \"#utility.yul\":5407:5425   */\n      0x24\n      dup3\n      add\n        /* \"#utility.yul\":5400:5430   */\n      mstore\n        /* \"#utility.yul\":5466:5500   */\n      0x4e6f7420656e6f75676820657468657220666f72206c697374696e6720666565\n        /* \"#utility.yul\":5446:5464   */\n      0x44\n      dup3\n      add\n        /* \"#utility.yul\":5439:5501   */\n      mstore\n        /* \"#utility.yul\":5518:5536   */\n      0x64\n      add\n        /* \"contracts/Marketplace.sol\":2664:2733  require(msg.value == LISTING_FEE, \"Not enough ether for listing fee\") */\n      tag_110\n        /* \"#utility.yul\":5186:5542   */\n      jump\n        /* \"contracts/Marketplace.sol\":2664:2733  require(msg.value == LISTING_FEE, \"Not enough ether for listing fee\") */\n    tag_134:\n        /* \"contracts/Marketplace.sol\":2742:2813  IERC721(_nftContract).transferFrom(msg.sender, address(this), _tokenId) */\n      mload(0x40)\n      shl(0xe0, 0x23b872dd)\n      dup2\n      mstore\n        /* \"contracts/Marketplace.sol\":2777:2787  msg.sender */\n      caller\n        /* \"contracts/Marketplace.sol\":2742:2813  IERC721(_nftContract).transferFrom(msg.sender, address(this), _tokenId) */\n      0x04\n      dup3\n      add\n        /* \"#utility.yul\":1656:1690   */\n      mstore\n        /* \"contracts/Marketplace.sol\":2797:2801  this */\n      address\n        /* \"#utility.yul\":1706:1724   */\n      0x24\n      dup3\n      add\n        /* \"#utility.yul\":1699:1742   */\n      mstore\n        /* \"#utility.yul\":1758:1776   */\n      0x44\n      dup2\n      add\n        /* \"#utility.yul\":1751:1785   */\n      dup4\n      swap1\n      mstore\n      sub(shl(0xa0, 0x01), 0x01)\n        /* \"contracts/Marketplace.sol\":2742:2776  IERC721(_nftContract).transferFrom */\n      dup5\n      and\n      swap1\n      0x23b872dd\n      swap1\n        /* \"#utility.yul\":1591:1609   */\n      0x64\n      add\n        /* \"contracts/Marketplace.sol\":2742:2813  IERC721(_nftContract).transferFrom(msg.sender, address(this), _tokenId) */\n      0x00\n      mload(0x40)\n      dup1\n      dup4\n      sub\n      dup2\n      0x00\n      dup8\n      dup1\n      extcodesize\n      iszero\n      dup1\n      iszero\n      tag_137\n      jumpi\n      0x00\n      dup1\n      revert\n    tag_137:\n      pop\n      gas\n      call\n      iszero\n      dup1\n      iszero\n      tag_139\n      jumpi\n      returndatasize\n      0x00\n      dup1\n      returndatacopy\n      revert(0x00, returndatasize)\n    tag_139:\n      pop\n      pop\n      pop\n        /* \"contracts/Marketplace.sol\":2822:2837  NFT storage nft */\n      0x00\n        /* \"contracts/Marketplace.sol\":2840:2858  _idToNFT[_tokenId] */\n      dup4\n      dup2\n      mstore\n        /* \"contracts/Marketplace.sol\":2840:2848  _idToNFT */\n      0x06\n        /* \"contracts/Marketplace.sol\":2840:2858  _idToNFT[_tokenId] */\n      0x20\n      mstore\n      0x40\n      swap1\n      keccak256\n        /* \"contracts/Marketplace.sol\":2865:2875  nft.seller */\n      0x02\n      dup2\n      add\n        /* \"contracts/Marketplace.sol\":2865:2897  nft.seller = payable(msg.sender) */\n      dup1\n      sload\n      not(sub(shl(0xa0, 0x01), 0x01))\n      swap1\n      dup2\n      and\n        /* \"contracts/Marketplace.sol\":2886:2896  msg.sender */\n      caller\n        /* \"contracts/Marketplace.sol\":2865:2897  nft.seller = payable(msg.sender) */\n      or\n      swap1\n      swap2\n      sstore\n        /* \"contracts/Marketplace.sol\":2904:2913  nft.owner */\n      0x03\n      dup3\n      add\n        /* \"contracts/Marketplace.sol\":2904:2938  nft.owner = payable(address(this)) */\n      dup1\n      sload\n      swap1\n      swap2\n      and\n        /* \"contracts/Marketplace.sol\":2932:2936  this */\n      address\n        /* \"contracts/Marketplace.sol\":2904:2938  nft.owner = payable(address(this)) */\n      or\n      swap1\n      sstore\n        /* \"contracts/Marketplace.sol\":2945:2955  nft.listed */\n      0x05\n      dup2\n      add\n        /* \"contracts/Marketplace.sol\":2945:2962  nft.listed = true */\n      dup1\n      sload\n      not(0xff)\n      and\n        /* \"contracts/Marketplace.sol\":2865:2897  nft.seller = payable(msg.sender) */\n      0x01\n        /* \"contracts/Marketplace.sol\":2945:2962  nft.listed = true */\n      swap1\n      dup2\n      or\n      swap1\n      swap2\n      sstore\n        /* \"contracts/Marketplace.sol\":2969:2978  nft.price */\n      0x04\n      dup3\n      add\n        /* \"contracts/Marketplace.sol\":2969:2987  nft.price = _price */\n      dup5\n      swap1\n      sstore\n        /* \"contracts/Marketplace.sol\":2840:2858  _idToNFT[_tokenId] */\n      swap1\n      swap2\n      pop\n        /* \"contracts/Marketplace.sol\":2996:3017  _nftsSold.decrement() */\n      tag_140\n      swap1\n        /* \"contracts/Marketplace.sol\":2996:3015  _nftsSold.decrement */\n      tag_141\n        /* \"contracts/Marketplace.sol\":2996:3017  _nftsSold.decrement() */\n      jump\t// in\n    tag_140:\n        /* \"contracts/Marketplace.sol\":3029:3097  NFTListed(_nftContract, _tokenId, msg.sender, address(this), _price) */\n      0xa0c6c0d02d86fdacecbaa5fdf5894bab204e31a778250474108540733a9b8d19\n        /* \"contracts/Marketplace.sol\":3039:3051  _nftContract */\n      dup5\n        /* \"contracts/Marketplace.sol\":3053:3061  _tokenId */\n      dup5\n        /* \"contracts/Marketplace.sol\":3063:3073  msg.sender */\n      caller\n        /* \"contracts/Marketplace.sol\":3083:3087  this */\n      address\n        /* \"contracts/Marketplace.sol\":3090:3096  _price */\n      dup7\n        /* \"contracts/Marketplace.sol\":3029:3097  NFTListed(_nftContract, _tokenId, msg.sender, address(this), _price) */\n      mload(0x40)\n      tag_142\n      swap6\n      swap5\n      swap4\n      swap3\n      swap2\n      swap1\n      tag_161\n      jump\t// in\n    tag_142:\n      mload(0x40)\n      dup1\n      swap2\n      sub\n      swap1\n      log1\n      pop\n      pop\n        /* \"@openzeppelin/contracts/security/ReentrancyGuard.sol\":1637:1638  1 */\n      0x01\n        /* \"@openzeppelin/contracts/security/ReentrancyGuard.sol\":2562:2569  _status */\n      0x00\n        /* \"@openzeppelin/contracts/security/ReentrancyGuard.sol\":2562:2584  _status = _NOT_ENTERED */\n      sstore\n      pop\n      pop\n        /* \"contracts/Marketplace.sol\":2496:3103  function resellNft(address _nftContract, uint256 _tokenId, uint256 _price) public payable nonReentrant {\r... */\n      jump\t// out\n        /* \"contracts/Marketplace.sol\":1856:2439  function buyNft(address _nftContract, uint256 _tokenId) public payable nonReentrant {\r... */\n    tag_37:\n        /* \"@openzeppelin/contracts/security/ReentrancyGuard.sol\":1680:1681  2 */\n      0x02\n        /* \"@openzeppelin/contracts/security/ReentrancyGuard.sol\":2259:2266  _status */\n      sload(0x00)\n        /* \"@openzeppelin/contracts/security/ReentrancyGuard.sol\":2259:2278  _status != _ENTERED */\n      eq\n      iszero\n        /* \"@openzeppelin/contracts/security/ReentrancyGuard.sol\":2251:2314  require(_status != _ENTERED, \"ReentrancyGuard: reentrant call\") */\n      tag_144\n      jumpi\n      mload(0x40)\n      shl(0xe5, 0x461bcd)\n      dup2\n      mstore\n      0x04\n      add\n      tag_110\n      swap1\n      tag_111\n      jump\t// in\n    tag_144:\n        /* \"@openzeppelin/contracts/security/ReentrancyGuard.sol\":1680:1681  2 */\n      0x02\n        /* \"@openzeppelin/contracts/security/ReentrancyGuard.sol\":2389:2396  _status */\n      0x00\n        /* \"@openzeppelin/contracts/security/ReentrancyGuard.sol\":2389:2407  _status = _ENTERED */\n      swap1\n      dup2\n      sstore\n        /* \"contracts/Marketplace.sol\":1965:1983  _idToNFT[_tokenId] */\n      dup2\n      dup2\n      mstore\n        /* \"contracts/Marketplace.sol\":1965:1973  _idToNFT */\n      0x06\n        /* \"contracts/Marketplace.sol\":1965:1983  _idToNFT[_tokenId] */\n      0x20\n      mstore\n      0x40\n      swap1\n      keccak256\n        /* \"contracts/Marketplace.sol\":2011:2020  nft.price */\n      0x04\n      dup2\n      add\n      sload\n        /* \"contracts/Marketplace.sol\":1998:2007  msg.value */\n      callvalue\n        /* \"contracts/Marketplace.sol\":1998:2020  msg.value >= nft.price */\n      lt\n      iszero\n        /* \"contracts/Marketplace.sol\":1990:2063  require(msg.value >= nft.price, \"Not enough ether to cover asking price\") */\n      tag_147\n      jumpi\n      mload(0x40)\n      shl(0xe5, 0x461bcd)\n      dup2\n      mstore\n        /* \"#utility.yul\":4981:4983   */\n      0x20\n        /* \"contracts/Marketplace.sol\":1990:2063  require(msg.value >= nft.price, \"Not enough ether to cover asking price\") */\n      0x04\n      dup3\n      add\n        /* \"#utility.yul\":4963:4984   */\n      mstore\n        /* \"#utility.yul\":5020:5022   */\n      0x26\n        /* \"#utility.yul\":5000:5018   */\n      0x24\n      dup3\n      add\n        /* \"#utility.yul\":4993:5023   */\n      mstore\n        /* \"#utility.yul\":5059:5093   */\n      0x4e6f7420656e6f75676820657468657220746f20636f7665722061736b696e67\n        /* \"#utility.yul\":5039:5057   */\n      0x44\n      dup3\n      add\n        /* \"#utility.yul\":5032:5094   */\n      mstore\n      shl(0xd0, 0x207072696365)\n        /* \"#utility.yul\":5110:5128   */\n      0x64\n      dup3\n      add\n        /* \"#utility.yul\":5103:5139   */\n      mstore\n        /* \"#utility.yul\":5156:5175   */\n      0x84\n      add\n        /* \"contracts/Marketplace.sol\":1990:2063  require(msg.value >= nft.price, \"Not enough ether to cover asking price\") */\n      tag_110\n        /* \"#utility.yul\":4779:5181   */\n      jump\n        /* \"contracts/Marketplace.sol\":1990:2063  require(msg.value >= nft.price, \"Not enough ether to cover asking price\") */\n    tag_147:\n        /* \"contracts/Marketplace.sol\":2130:2140  nft.seller */\n      0x02\n      dup2\n      add\n      sload\n        /* \"contracts/Marketplace.sol\":2122:2161  payable(nft.seller).transfer(msg.value) */\n      mload(0x40)\n        /* \"contracts/Marketplace.sol\":2104:2114  msg.sender */\n      caller\n      swap2\n      sub(shl(0xa0, 0x01), 0x01)\n        /* \"contracts/Marketplace.sol\":2130:2140  nft.seller */\n      and\n      swap1\n        /* \"contracts/Marketplace.sol\":2151:2160  msg.value */\n      callvalue\n        /* \"contracts/Marketplace.sol\":2122:2161  payable(nft.seller).transfer(msg.value) */\n      dup1\n      iszero\n      0x08fc\n      mul\n      swap2\n        /* \"contracts/Marketplace.sol\":2072:2093  address payable buyer */\n      0x00\n        /* \"contracts/Marketplace.sol\":2122:2161  payable(nft.seller).transfer(msg.value) */\n      dup2\n        /* \"contracts/Marketplace.sol\":2072:2093  address payable buyer */\n      dup2\n        /* \"contracts/Marketplace.sol\":2122:2161  payable(nft.seller).transfer(msg.value) */\n      dup2\n        /* \"contracts/Marketplace.sol\":2151:2160  msg.value */\n      dup6\n        /* \"contracts/Marketplace.sol\":2130:2140  nft.seller */\n      dup9\n        /* \"contracts/Marketplace.sol\":2122:2161  payable(nft.seller).transfer(msg.value) */\n      dup9\n      call\n      swap4\n      pop\n      pop\n      pop\n      pop\n      iszero\n      dup1\n      iszero\n      tag_151\n      jumpi\n      returndatasize\n      0x00\n      dup1\n      returndatacopy\n      revert(0x00, returndatasize)\n    tag_151:\n      pop\n        /* \"contracts/Marketplace.sol\":2225:2236  nft.tokenId */\n      0x01\n      dup3\n      add\n      sload\n        /* \"contracts/Marketplace.sol\":2168:2237  IERC721(_nftContract).transferFrom(address(this), buyer, nft.tokenId) */\n      mload(0x40)\n      shl(0xe0, 0x23b872dd)\n      dup2\n      mstore\n        /* \"contracts/Marketplace.sol\":2211:2215  this */\n      address\n        /* \"contracts/Marketplace.sol\":2168:2237  IERC721(_nftContract).transferFrom(address(this), buyer, nft.tokenId) */\n      0x04\n      dup3\n      add\n        /* \"#utility.yul\":1656:1690   */\n      mstore\n      sub(shl(0xa0, 0x01), 0x01)\n        /* \"#utility.yul\":1726:1741   */\n      dup4\n      dup2\n      and\n        /* \"#utility.yul\":1706:1724   */\n      0x24\n      dup4\n      add\n        /* \"#utility.yul\":1699:1742   */\n      mstore\n        /* \"#utility.yul\":1758:1776   */\n      0x44\n      dup3\n      add\n        /* \"#utility.yul\":1751:1785   */\n      swap3\n      swap1\n      swap3\n      mstore\n        /* \"contracts/Marketplace.sol\":2168:2202  IERC721(_nftContract).transferFrom */\n      swap1\n      dup6\n      and\n      swap1\n      0x23b872dd\n      swap1\n        /* \"#utility.yul\":1591:1609   */\n      0x64\n      add\n        /* \"contracts/Marketplace.sol\":2168:2237  IERC721(_nftContract).transferFrom(address(this), buyer, nft.tokenId) */\n      0x00\n      mload(0x40)\n      dup1\n      dup4\n      sub\n      dup2\n      0x00\n      dup8\n      dup1\n      extcodesize\n      iszero\n      dup1\n      iszero\n      tag_154\n      jumpi\n      0x00\n      dup1\n      revert\n    tag_154:\n      pop\n      gas\n      call\n      iszero\n      dup1\n      iszero\n      tag_156\n      jumpi\n      returndatasize\n      0x00\n      dup1\n      returndatacopy\n      revert(0x00, returndatasize)\n    tag_156:\n      pop\n      pop\n        /* \"contracts/Marketplace.sol\":2244:2256  _marketOwner */\n      sload(0x05)\n        /* \"contracts/Marketplace.sol\":2266:2277  LISTING_FEE */\n      sload(0x03)\n        /* \"contracts/Marketplace.sol\":2244:2278  _marketOwner.transfer(LISTING_FEE) */\n      mload(0x40)\n      sub(shl(0xa0, 0x01), 0x01)\n        /* \"contracts/Marketplace.sol\":2244:2256  _marketOwner */\n      swap1\n      swap3\n      and\n      swap4\n      pop\n        /* \"contracts/Marketplace.sol\":2244:2278  _marketOwner.transfer(LISTING_FEE) */\n      dup1\n      iszero\n      0x08fc\n      mul\n      swap3\n      pop\n        /* \"contracts/Marketplace.sol\":2266:2277  LISTING_FEE */\n      swap1\n        /* \"contracts/Marketplace.sol\":2244:2256  _marketOwner */\n      0x00\n        /* \"contracts/Marketplace.sol\":2244:2278  _marketOwner.transfer(LISTING_FEE) */\n      dup2\n        /* \"contracts/Marketplace.sol\":2244:2256  _marketOwner */\n      dup2\n        /* \"contracts/Marketplace.sol\":2244:2278  _marketOwner.transfer(LISTING_FEE) */\n      dup2\n        /* \"contracts/Marketplace.sol\":2266:2277  LISTING_FEE */\n      dup6\n        /* \"contracts/Marketplace.sol\":2244:2256  _marketOwner */\n      dup9\n        /* \"contracts/Marketplace.sol\":2244:2278  _marketOwner.transfer(LISTING_FEE) */\n      dup9\n      call\n      swap4\n      pop\n      pop\n      pop\n      pop\n      iszero\n      dup1\n      iszero\n      tag_158\n      jumpi\n      returndatasize\n      0x00\n      dup1\n      returndatacopy\n      revert(0x00, returndatasize)\n    tag_158:\n      pop\n        /* \"contracts/Marketplace.sol\":2285:2294  nft.owner */\n      0x03\n      dup3\n      add\n        /* \"contracts/Marketplace.sol\":2285:2302  nft.owner = buyer */\n      dup1\n      sload\n      not(sub(shl(0xa0, 0x01), 0x01))\n      and\n      sub(shl(0xa0, 0x01), 0x01)\n      dup4\n      and\n      or\n      swap1\n      sstore\n        /* \"contracts/Marketplace.sol\":2309:2319  nft.listed */\n      0x05\n      dup3\n      add\n        /* \"contracts/Marketplace.sol\":2309:2327  nft.listed = false */\n      dup1\n      sload\n      not(0xff)\n      and\n      swap1\n      sstore\n      0x01\n        /* \"@openzeppelin/contracts/utils/Counters.sol\":1032:1051  counter._value += 1 */\n      dup1\n      sload\n      dup2\n      add\n      swap1\n      sstore\n        /* \"contracts/Marketplace.sol\":2391:2402  nft.tokenId */\n      0x01\n      dup3\n      add\n      sload\n        /* \"contracts/Marketplace.sol\":2404:2414  nft.seller */\n      0x02\n      dup4\n      add\n      sload\n        /* \"contracts/Marketplace.sol\":2369:2433  NFTSold(_nftContract, nft.tokenId, nft.seller, buyer, msg.value) */\n      mload(0x40)\n      0x16f1dbd97e6bf646d429ed186cce832f1f7fd9907814293b83181e9970ab7bd2\n      swap3\n      tag_142\n      swap3\n        /* \"contracts/Marketplace.sol\":2377:2389  _nftContract */\n      dup9\n      swap3\n      sub(shl(0xa0, 0x01), 0x01)\n        /* \"contracts/Marketplace.sol\":2404:2414  nft.seller */\n      swap1\n      swap2\n      and\n      swap1\n        /* \"contracts/Marketplace.sol\":2416:2421  buyer */\n      dup7\n      swap1\n        /* \"contracts/Marketplace.sol\":2423:2432  msg.value */\n      callvalue\n      swap1\n        /* \"contracts/Marketplace.sol\":2369:2433  NFTSold(_nftContract, nft.tokenId, nft.seller, buyer, msg.value) */\n      tag_161\n      jump\t// in\n        /* \"contracts/Marketplace.sol\":3201:3635  function getListedNfts() public view returns (NFT[] memory) {\r... */\n    tag_40:\n        /* \"contracts/Marketplace.sol\":3247:3259  NFT[] memory */\n      0x60\n        /* \"contracts/Marketplace.sol\":3268:3284  uint256 nftCount */\n      0x00\n        /* \"contracts/Marketplace.sol\":3287:3306  _nftCount.current() */\n      tag_163\n        /* \"contracts/Marketplace.sol\":3287:3296  _nftCount */\n      0x02\n        /* \"@openzeppelin/contracts/utils/Counters.sol\":918:932  counter._value */\n      sload\n      swap1\n        /* \"@openzeppelin/contracts/utils/Counters.sol\":827:939  function current(Counter storage counter) internal view returns (uint256) {... */\n      jump\n        /* \"contracts/Marketplace.sol\":3287:3306  _nftCount.current() */\n    tag_163:\n        /* \"contracts/Marketplace.sol\":3268:3306  uint256 nftCount = _nftCount.current() */\n      swap1\n      pop\n        /* \"contracts/Marketplace.sol\":3313:3336  uint256 unsoldNftsCount */\n      0x00\n        /* \"contracts/Marketplace.sol\":3350:3369  _nftsSold.current() */\n      tag_164\n        /* \"contracts/Marketplace.sol\":3350:3359  _nftsSold */\n      0x01\n        /* \"@openzeppelin/contracts/utils/Counters.sol\":918:932  counter._value */\n      sload\n      swap1\n        /* \"@openzeppelin/contracts/utils/Counters.sol\":827:939  function current(Counter storage counter) internal view returns (uint256) {... */\n      jump\n        /* \"contracts/Marketplace.sol\":3350:3369  _nftsSold.current() */\n    tag_164:\n        /* \"contracts/Marketplace.sol\":3339:3369  nftCount - _nftsSold.current() */\n      tag_165\n      swap1\n        /* \"contracts/Marketplace.sol\":3339:3347  nftCount */\n      dup4\n        /* \"contracts/Marketplace.sol\":3339:3369  nftCount - _nftsSold.current() */\n      tag_166\n      jump\t// in\n    tag_165:\n        /* \"contracts/Marketplace.sol\":3313:3369  uint256 unsoldNftsCount = nftCount - _nftsSold.current() */\n      swap1\n      pop\n        /* \"contracts/Marketplace.sol\":3378:3395  NFT[] memory nfts */\n      0x00\n        /* \"contracts/Marketplace.sol\":3408:3423  unsoldNftsCount */\n      dup2\n        /* \"contracts/Marketplace.sol\":3398:3424  new NFT[](unsoldNftsCount) */\n      0xffffffffffffffff\n      dup2\n      gt\n      iszero\n      tag_168\n      jumpi\n      tag_168\n      tag_64\n      jump\t// in\n    tag_168:\n      mload(0x40)\n      swap1\n      dup1\n      dup3\n      mstore\n      dup1\n      0x20\n      mul\n      0x20\n      add\n      dup3\n      add\n      0x40\n      mstore\n      dup1\n      iszero\n      tag_169\n      jumpi\n      dup2\n      0x20\n      add\n    tag_170:\n      tag_171\n      tag_68\n      jump\t// in\n    tag_171:\n      dup2\n      mstore\n      0x20\n      add\n      swap1\n      0x01\n      swap1\n      sub\n      swap1\n      dup2\n      tag_170\n      jumpi\n      swap1\n      pop\n    tag_169:\n      pop\n        /* \"contracts/Marketplace.sol\":3378:3424  NFT[] memory nfts = new NFT[](unsoldNftsCount) */\n      swap1\n      pop\n        /* \"contracts/Marketplace.sol\":3431:3445  uint nftsIndex */\n      0x00\n        /* \"contracts/Marketplace.sol\":3461:3467  uint i */\n      dup1\n        /* \"contracts/Marketplace.sol\":3456:3612  for (uint i = 0; i < nftCount; i++) {\r... */\n    tag_172:\n        /* \"contracts/Marketplace.sol\":3477:3485  nftCount */\n      dup5\n        /* \"contracts/Marketplace.sol\":3473:3474  i */\n      dup2\n        /* \"contracts/Marketplace.sol\":3473:3485  i < nftCount */\n      lt\n        /* \"contracts/Marketplace.sol\":3456:3612  for (uint i = 0; i < nftCount; i++) {\r... */\n      iszero\n      tag_70\n      jumpi\n        /* \"contracts/Marketplace.sol\":3505:3513  _idToNFT */\n      0x06\n        /* \"contracts/Marketplace.sol\":3505:3520  _idToNFT[i + 1] */\n      0x00\n        /* \"contracts/Marketplace.sol\":3514:3519  i + 1 */\n      tag_175\n        /* \"contracts/Marketplace.sol\":3514:3515  i */\n      dup4\n        /* \"contracts/Marketplace.sol\":3518:3519  1 */\n      0x01\n        /* \"contracts/Marketplace.sol\":3514:3519  i + 1 */\n      tag_57\n      jump\t// in\n    tag_175:\n        /* \"contracts/Marketplace.sol\":3505:3520  _idToNFT[i + 1] */\n      dup2\n      mstore\n      0x20\n      dup2\n      add\n      swap2\n      swap1\n      swap2\n      mstore\n      0x40\n      add\n      0x00\n      keccak256\n        /* \"contracts/Marketplace.sol\":3505:3527  _idToNFT[i + 1].listed */\n      0x05\n      add\n      sload\n      0xff\n      and\n        /* \"contracts/Marketplace.sol\":3501:3605  if (_idToNFT[i + 1].listed) {\r... */\n      iszero\n      tag_176\n      jumpi\n        /* \"contracts/Marketplace.sol\":3558:3566  _idToNFT */\n      0x06\n        /* \"contracts/Marketplace.sol\":3558:3573  _idToNFT[i + 1] */\n      0x00\n        /* \"contracts/Marketplace.sol\":3567:3572  i + 1 */\n      tag_177\n        /* \"contracts/Marketplace.sol\":3567:3568  i */\n      dup4\n        /* \"contracts/Marketplace.sol\":3571:3572  1 */\n      0x01\n        /* \"contracts/Marketplace.sol\":3567:3572  i + 1 */\n      tag_57\n      jump\t// in\n    tag_177:\n        /* \"contracts/Marketplace.sol\":3558:3573  _idToNFT[i + 1] */\n      dup2\n      mstore\n      0x20\n      dup1\n      dup3\n      add\n      swap3\n      swap1\n      swap3\n      mstore\n      0x40\n      swap1\n      dup2\n      add\n      0x00\n      keccak256\n        /* \"contracts/Marketplace.sol\":3540:3573  nfts[nftsIndex] = _idToNFT[i + 1] */\n      dup2\n      mload\n      0xc0\n      dup2\n      add\n      dup4\n      mstore\n      dup2\n      sload\n      sub(shl(0xa0, 0x01), 0x01)\n      swap1\n      dup2\n      and\n      dup3\n      mstore\n      0x01\n      dup4\n      add\n      sload\n      swap5\n      dup3\n      add\n      swap5\n      swap1\n      swap5\n      mstore\n      0x02\n      dup3\n      add\n      sload\n      dup5\n      and\n      swap3\n      dup2\n      add\n      swap3\n      swap1\n      swap3\n      mstore\n      0x03\n      dup2\n      add\n      sload\n      swap1\n      swap3\n      and\n      0x60\n      dup3\n      add\n      mstore\n      0x04\n      dup3\n      add\n      sload\n      0x80\n      dup3\n      add\n      mstore\n      0x05\n      swap1\n      swap2\n      add\n      sload\n      0xff\n      and\n      iszero\n      iszero\n      0xa0\n      dup3\n      add\n      mstore\n        /* \"contracts/Marketplace.sol\":3540:3555  nfts[nftsIndex] */\n      dup4\n      mload\n        /* \"contracts/Marketplace.sol\":3540:3544  nfts */\n      dup5\n      swap1\n        /* \"contracts/Marketplace.sol\":3545:3554  nftsIndex */\n      dup5\n      swap1\n        /* \"contracts/Marketplace.sol\":3540:3555  nfts[nftsIndex] */\n      dup2\n      lt\n      tag_179\n      jumpi\n      tag_179\n      tag_77\n      jump\t// in\n    tag_179:\n      0x20\n      mul\n      0x20\n      add\n      add\n        /* \"contracts/Marketplace.sol\":3540:3573  nfts[nftsIndex] = _idToNFT[i + 1] */\n      dup2\n      swap1\n      mstore\n      pop\n        /* \"contracts/Marketplace.sol\":3584:3595  nftsIndex++ */\n      dup2\n      dup1\n      tag_180\n      swap1\n      tag_60\n      jump\t// in\n    tag_180:\n      swap3\n      pop\n      pop\n        /* \"contracts/Marketplace.sol\":3501:3605  if (_idToNFT[i + 1].listed) {\r... */\n    tag_176:\n        /* \"contracts/Marketplace.sol\":3487:3490  i++ */\n      dup1\n      tag_181\n      dup2\n      tag_60\n      jump\t// in\n    tag_181:\n      swap2\n      pop\n      pop\n        /* \"contracts/Marketplace.sol\":3456:3612  for (uint i = 0; i < nftCount; i++) {\r... */\n      jump(tag_172)\n        /* \"@openzeppelin/contracts/utils/Counters.sol\":1074:1303  function decrement(Counter storage counter) internal {... */\n    tag_141:\n        /* \"@openzeppelin/contracts/utils/Counters.sol\":1153:1167  counter._value */\n      dup1\n      sload\n        /* \"@openzeppelin/contracts/utils/Counters.sol\":1185:1194  value > 0 */\n      dup1\n        /* \"@openzeppelin/contracts/utils/Counters.sol\":1177:1226  require(value > 0, \"Counter: decrement overflow\") */\n      tag_186\n      jumpi\n      mload(0x40)\n      shl(0xe5, 0x461bcd)\n      dup2\n      mstore\n        /* \"#utility.yul\":4625:4627   */\n      0x20\n        /* \"@openzeppelin/contracts/utils/Counters.sol\":1177:1226  require(value > 0, \"Counter: decrement overflow\") */\n      0x04\n      dup3\n      add\n        /* \"#utility.yul\":4607:4628   */\n      mstore\n        /* \"#utility.yul\":4664:4666   */\n      0x1b\n        /* \"#utility.yul\":4644:4662   */\n      0x24\n      dup3\n      add\n        /* \"#utility.yul\":4637:4667   */\n      mstore\n        /* \"#utility.yul\":4703:4732   */\n      0x436f756e7465723a2064656372656d656e74206f766572666c6f770000000000\n        /* \"#utility.yul\":4683:4701   */\n      0x44\n      dup3\n      add\n        /* \"#utility.yul\":4676:4733   */\n      mstore\n        /* \"#utility.yul\":4750:4768   */\n      0x64\n      add\n        /* \"@openzeppelin/contracts/utils/Counters.sol\":1177:1226  require(value > 0, \"Counter: decrement overflow\") */\n      tag_110\n        /* \"#utility.yul\":4423:4774   */\n      jump\n        /* \"@openzeppelin/contracts/utils/Counters.sol\":1177:1226  require(value > 0, \"Counter: decrement overflow\") */\n    tag_186:\n      not(0x00)\n        /* \"@openzeppelin/contracts/utils/Counters.sol\":1277:1286  value - 1 */\n      add\n        /* \"@openzeppelin/contracts/utils/Counters.sol\":1260:1286  counter._value = value - 1 */\n      swap1\n      sstore\n        /* \"@openzeppelin/contracts/utils/Counters.sol\":1074:1303  function decrement(Counter storage counter) internal {... */\n      jump\t// out\n    tag_68:\n      0x40\n      dup1\n      mload\n      0xc0\n      dup2\n      add\n      dup3\n      mstore\n      0x00\n      dup1\n      dup3\n      mstore\n      0x20\n      dup3\n      add\n      dup2\n      swap1\n      mstore\n      swap2\n      dup2\n      add\n      dup3\n      swap1\n      mstore\n      0x60\n      dup2\n      add\n      dup3\n      swap1\n      mstore\n      0x80\n      dup2\n      add\n      dup3\n      swap1\n      mstore\n      0xa0\n      dup2\n      add\n      swap2\n      swap1\n      swap2\n      mstore\n      swap1\n      jump\t// out\n        /* \"#utility.yul\":14:187   */\n    tag_190:\n        /* \"#utility.yul\":82:102   */\n      dup1\n      calldataload\n      sub(shl(0xa0, 0x01), 0x01)\n        /* \"#utility.yul\":131:162   */\n      dup2\n      and\n        /* \"#utility.yul\":121:163   */\n      dup2\n      eq\n        /* \"#utility.yul\":111:181   */\n      tag_192\n      jumpi\n        /* \"#utility.yul\":177:178   */\n      0x00\n        /* \"#utility.yul\":174:175   */\n      dup1\n        /* \"#utility.yul\":167:179   */\n      revert\n        /* \"#utility.yul\":111:181   */\n    tag_192:\n        /* \"#utility.yul\":14:187   */\n      swap2\n      swap1\n      pop\n      jump\t// out\n        /* \"#utility.yul\":192:352   */\n    tag_193:\n        /* \"#utility.yul\":257:277   */\n      dup1\n      calldataload\n        /* \"#utility.yul\":313:326   */\n      dup1\n      iszero\n        /* \"#utility.yul\":306:327   */\n      iszero\n        /* \"#utility.yul\":296:328   */\n      dup2\n      eq\n        /* \"#utility.yul\":286:346   */\n      tag_192\n      jumpi\n        /* \"#utility.yul\":342:343   */\n      0x00\n        /* \"#utility.yul\":339:340   */\n      dup1\n        /* \"#utility.yul\":332:344   */\n      revert\n        /* \"#utility.yul\":357:611   */\n    tag_36:\n        /* \"#utility.yul\":425:431   */\n      0x00\n        /* \"#utility.yul\":433:439   */\n      dup1\n        /* \"#utility.yul\":486:488   */\n      0x40\n        /* \"#utility.yul\":474:483   */\n      dup4\n        /* \"#utility.yul\":465:472   */\n      dup6\n        /* \"#utility.yul\":461:484   */\n      sub\n        /* \"#utility.yul\":457:489   */\n      slt\n        /* \"#utility.yul\":454:506   */\n      iszero\n      tag_197\n      jumpi\n        /* \"#utility.yul\":502:503   */\n      0x00\n        /* \"#utility.yul\":499:500   */\n      dup1\n        /* \"#utility.yul\":492:504   */\n      revert\n        /* \"#utility.yul\":454:506   */\n    tag_197:\n        /* \"#utility.yul\":525:554   */\n      tag_198\n        /* \"#utility.yul\":544:553   */\n      dup4\n        /* \"#utility.yul\":525:554   */\n      tag_190\n      jump\t// in\n    tag_198:\n        /* \"#utility.yul\":515:554   */\n      swap5\n        /* \"#utility.yul\":601:603   */\n      0x20\n        /* \"#utility.yul\":586:604   */\n      swap4\n      swap1\n      swap4\n      add\n        /* \"#utility.yul\":573:605   */\n      calldataload\n      swap4\n      pop\n      pop\n      pop\n        /* \"#utility.yul\":357:611   */\n      jump\t// out\n        /* \"#utility.yul\":616:938   */\n    tag_32:\n        /* \"#utility.yul\":693:699   */\n      0x00\n        /* \"#utility.yul\":701:707   */\n      dup1\n        /* \"#utility.yul\":709:715   */\n      0x00\n        /* \"#utility.yul\":762:764   */\n      0x60\n        /* \"#utility.yul\":750:759   */\n      dup5\n        /* \"#utility.yul\":741:748   */\n      dup7\n        /* \"#utility.yul\":737:760   */\n      sub\n        /* \"#utility.yul\":733:765   */\n      slt\n        /* \"#utility.yul\":730:782   */\n      iszero\n      tag_200\n      jumpi\n        /* \"#utility.yul\":778:779   */\n      0x00\n        /* \"#utility.yul\":775:776   */\n      dup1\n        /* \"#utility.yul\":768:780   */\n      revert\n        /* \"#utility.yul\":730:782   */\n    tag_200:\n        /* \"#utility.yul\":801:830   */\n      tag_201\n        /* \"#utility.yul\":820:829   */\n      dup5\n        /* \"#utility.yul\":801:830   */\n      tag_190\n      jump\t// in\n    tag_201:\n        /* \"#utility.yul\":791:830   */\n      swap6\n        /* \"#utility.yul\":877:879   */\n      0x20\n        /* \"#utility.yul\":862:880   */\n      dup6\n      add\n        /* \"#utility.yul\":849:881   */\n      calldataload\n      swap6\n      pop\n        /* \"#utility.yul\":928:930   */\n      0x40\n        /* \"#utility.yul\":913:931   */\n      swap1\n      swap5\n      add\n        /* \"#utility.yul\":900:932   */\n      calldataload\n      swap4\n        /* \"#utility.yul\":616:938   */\n      swap3\n      pop\n      pop\n      pop\n      jump\t// out\n        /* \"#utility.yul\":943:1403   */\n    tag_28:\n        /* \"#utility.yul\":1032:1038   */\n      0x00\n        /* \"#utility.yul\":1040:1046   */\n      dup1\n        /* \"#utility.yul\":1048:1054   */\n      0x00\n        /* \"#utility.yul\":1056:1062   */\n      dup1\n        /* \"#utility.yul\":1064:1070   */\n      0x00\n        /* \"#utility.yul\":1117:1120   */\n      0xa0\n        /* \"#utility.yul\":1105:1114   */\n      dup7\n        /* \"#utility.yul\":1096:1103   */\n      dup9\n        /* \"#utility.yul\":1092:1115   */\n      sub\n        /* \"#utility.yul\":1088:1121   */\n      slt\n        /* \"#utility.yul\":1085:1138   */\n      iszero\n      tag_203\n      jumpi\n        /* \"#utility.yul\":1134:1135   */\n      0x00\n        /* \"#utility.yul\":1131:1132   */\n      dup1\n        /* \"#utility.yul\":1124:1136   */\n      revert\n        /* \"#utility.yul\":1085:1138   */\n    tag_203:\n        /* \"#utility.yul\":1157:1186   */\n      tag_204\n        /* \"#utility.yul\":1176:1185   */\n      dup7\n        /* \"#utility.yul\":1157:1186   */\n      tag_190\n      jump\t// in\n    tag_204:\n        /* \"#utility.yul\":1147:1186   */\n      swap5\n      pop\n        /* \"#utility.yul\":1233:1235   */\n      0x20\n        /* \"#utility.yul\":1222:1231   */\n      dup7\n        /* \"#utility.yul\":1218:1236   */\n      add\n        /* \"#utility.yul\":1205:1237   */\n      calldataload\n        /* \"#utility.yul\":1195:1237   */\n      swap4\n      pop\n        /* \"#utility.yul\":1284:1286   */\n      0x40\n        /* \"#utility.yul\":1273:1282   */\n      dup7\n        /* \"#utility.yul\":1269:1287   */\n      add\n        /* \"#utility.yul\":1256:1288   */\n      calldataload\n        /* \"#utility.yul\":1246:1288   */\n      swap3\n      pop\n        /* \"#utility.yul\":1307:1342   */\n      tag_205\n        /* \"#utility.yul\":1338:1340   */\n      0x60\n        /* \"#utility.yul\":1327:1336   */\n      dup8\n        /* \"#utility.yul\":1323:1341   */\n      add\n        /* \"#utility.yul\":1307:1342   */\n      tag_193\n      jump\t// in\n    tag_205:\n        /* \"#utility.yul\":1297:1342   */\n      swap2\n      pop\n        /* \"#utility.yul\":1361:1397   */\n      tag_206\n        /* \"#utility.yul\":1392:1395   */\n      0x80\n        /* \"#utility.yul\":1381:1390   */\n      dup8\n        /* \"#utility.yul\":1377:1396   */\n      add\n        /* \"#utility.yul\":1361:1397   */\n      tag_193\n      jump\t// in\n    tag_206:\n        /* \"#utility.yul\":1351:1397   */\n      swap1\n      pop\n        /* \"#utility.yul\":943:1403   */\n      swap3\n      swap6\n      pop\n      swap3\n      swap6\n      swap1\n      swap4\n      pop\n      jump\t// out\n        /* \"#utility.yul\":2176:2720   */\n    tag_161:\n      sub(shl(0xa0, 0x01), 0x01)\n        /* \"#utility.yul\":2507:2522   */\n      swap6\n      dup7\n      and\n        /* \"#utility.yul\":2489:2523   */\n      dup2\n      mstore\n        /* \"#utility.yul\":2554:2556   */\n      0x20\n        /* \"#utility.yul\":2539:2557   */\n      dup2\n      add\n        /* \"#utility.yul\":2532:2566   */\n      swap5\n      swap1\n      swap5\n      mstore\n        /* \"#utility.yul\":2602:2617   */\n      swap2\n      dup5\n      and\n        /* \"#utility.yul\":2597:2599   */\n      0x40\n        /* \"#utility.yul\":2582:2600   */\n      dup5\n      add\n        /* \"#utility.yul\":2575:2618   */\n      mstore\n        /* \"#utility.yul\":2654:2669   */\n      swap1\n      swap3\n      and\n        /* \"#utility.yul\":2649:2651   */\n      0x60\n        /* \"#utility.yul\":2634:2652   */\n      dup3\n      add\n        /* \"#utility.yul\":2627:2670   */\n      mstore\n        /* \"#utility.yul\":2701:2704   */\n      0x80\n        /* \"#utility.yul\":2686:2705   */\n      dup2\n      add\n        /* \"#utility.yul\":2679:2714   */\n      swap2\n      swap1\n      swap2\n      mstore\n        /* \"#utility.yul\":2438:2441   */\n      0xa0\n        /* \"#utility.yul\":2423:2442   */\n      add\n      swap1\n        /* \"#utility.yul\":2176:2720   */\n      jump\t// out\n        /* \"#utility.yul\":3258:4418   */\n    tag_16:\n        /* \"#utility.yul\":3471:3473   */\n      0x20\n        /* \"#utility.yul\":3523:3544   */\n      dup1\n      dup3\n      mstore\n        /* \"#utility.yul\":3593:3606   */\n      dup3\n      mload\n        /* \"#utility.yul\":3496:3514   */\n      dup3\n      dup3\n      add\n        /* \"#utility.yul\":3615:3637   */\n      dup2\n      swap1\n      mstore\n        /* \"#utility.yul\":3442:3446   */\n      0x00\n      swap2\n        /* \"#utility.yul\":3471:3473   */\n      swap1\n        /* \"#utility.yul\":3656:3658   */\n      0x40\n      swap1\n        /* \"#utility.yul\":3674:3692   */\n      dup2\n      dup6\n      add\n      swap1\n        /* \"#utility.yul\":3715:3730   */\n      dup7\n      dup5\n      add\n        /* \"#utility.yul\":3442:3446   */\n      dup6\n        /* \"#utility.yul\":3758:4392   */\n    tag_212:\n        /* \"#utility.yul\":3772:3778   */\n      dup3\n        /* \"#utility.yul\":3769:3770   */\n      dup2\n        /* \"#utility.yul\":3766:3779   */\n      lt\n        /* \"#utility.yul\":3758:4392   */\n      iszero\n      tag_214\n      jumpi\n        /* \"#utility.yul\":3831:3844   */\n      dup2\n      mload\n        /* \"#utility.yul\":3915:3924   */\n      dup1\n      mload\n      sub(shl(0xa0, 0x01), 0x01)\n        /* \"#utility.yul\":3911:3929   */\n      swap1\n      dup2\n      and\n        /* \"#utility.yul\":3899:3930   */\n      dup7\n      mstore\n        /* \"#utility.yul\":3970:3981   */\n      dup8\n      dup3\n      add\n        /* \"#utility.yul\":3964:3982   */\n      mload\n        /* \"#utility.yul\":3950:3962   */\n      dup9\n      dup8\n      add\n        /* \"#utility.yul\":3943:3983   */\n      mstore\n        /* \"#utility.yul\":4027:4038   */\n      dup7\n      dup3\n      add\n        /* \"#utility.yul\":4021:4039   */\n      mload\n        /* \"#utility.yul\":4017:4044   */\n      dup2\n      and\n        /* \"#utility.yul\":4003:4015   */\n      dup8\n      dup8\n      add\n        /* \"#utility.yul\":3996:4045   */\n      mstore\n        /* \"#utility.yul\":4068:4072   */\n      0x60\n        /* \"#utility.yul\":4116:4127   */\n      dup1\n      dup4\n      add\n        /* \"#utility.yul\":4110:4128   */\n      mload\n        /* \"#utility.yul\":4106:4133   */\n      swap1\n      swap2\n      and\n        /* \"#utility.yul\":4092:4104   */\n      swap1\n      dup7\n      add\n        /* \"#utility.yul\":4085:4134   */\n      mstore\n        /* \"#utility.yul\":4157:4161   */\n      0x80\n        /* \"#utility.yul\":4201:4212   */\n      dup1\n      dup3\n      add\n        /* \"#utility.yul\":4195:4213   */\n      mload\n        /* \"#utility.yul\":4181:4193   */\n      swap1\n      dup7\n      add\n        /* \"#utility.yul\":4174:4214   */\n      mstore\n        /* \"#utility.yul\":3875:3878   */\n      0xa0\n        /* \"#utility.yul\":4295:4306   */\n      swap1\n      dup2\n      add\n        /* \"#utility.yul\":4289:4307   */\n      mload\n        /* \"#utility.yul\":4282:4308   */\n      iszero\n        /* \"#utility.yul\":4275:4309   */\n      iszero\n        /* \"#utility.yul\":4261:4273   */\n      swap1\n      dup6\n      add\n        /* \"#utility.yul\":4254:4310   */\n      mstore\n        /* \"#utility.yul\":4339:4343   */\n      0xc0\n        /* \"#utility.yul\":4330:4344   */\n      swap1\n      swap4\n      add\n      swap3\n        /* \"#utility.yul\":4367:4382   */\n      swap1\n      dup6\n      add\n      swap1\n        /* \"#utility.yul\":3884:3885   */\n      0x01\n        /* \"#utility.yul\":3787:3796   */\n      add\n        /* \"#utility.yul\":3758:4392   */\n      jump(tag_212)\n    tag_214:\n      pop\n        /* \"#utility.yul\":4409:4412   */\n      swap2\n      swap8\n        /* \"#utility.yul\":3258:4418   */\n      swap7\n      pop\n      pop\n      pop\n      pop\n      pop\n      pop\n      pop\n      jump\t// out\n        /* \"#utility.yul\":5547:5902   */\n    tag_111:\n        /* \"#utility.yul\":5749:5751   */\n      0x20\n        /* \"#utility.yul\":5731:5752   */\n      dup1\n      dup3\n      mstore\n        /* \"#utility.yul\":5788:5790   */\n      0x1f\n        /* \"#utility.yul\":5768:5786   */\n      swap1\n      dup3\n      add\n        /* \"#utility.yul\":5761:5791   */\n      mstore\n        /* \"#utility.yul\":5827:5860   */\n      0x5265656e7472616e637947756172643a207265656e7472616e742063616c6c00\n        /* \"#utility.yul\":5822:5824   */\n      0x40\n        /* \"#utility.yul\":5807:5825   */\n      dup3\n      add\n        /* \"#utility.yul\":5800:5861   */\n      mstore\n        /* \"#utility.yul\":5893:5895   */\n      0x60\n        /* \"#utility.yul\":5878:5896   */\n      add\n      swap1\n        /* \"#utility.yul\":5547:5902   */\n      jump\t// out\n        /* \"#utility.yul\":6446:6574   */\n    tag_57:\n        /* \"#utility.yul\":6486:6489   */\n      0x00\n        /* \"#utility.yul\":6517:6518   */\n      dup3\n        /* \"#utility.yul\":6513:6519   */\n      not\n        /* \"#utility.yul\":6510:6511   */\n      dup3\n        /* \"#utility.yul\":6507:6520   */\n      gt\n        /* \"#utility.yul\":6504:6543   */\n      iszero\n      tag_223\n      jumpi\n        /* \"#utility.yul\":6523:6541   */\n      tag_223\n      tag_224\n      jump\t// in\n    tag_223:\n      pop\n        /* \"#utility.yul\":6559:6568   */\n      add\n      swap1\n        /* \"#utility.yul\":6446:6574   */\n      jump\t// out\n        /* \"#utility.yul\":6579:6704   */\n    tag_166:\n        /* \"#utility.yul\":6619:6623   */\n      0x00\n        /* \"#utility.yul\":6647:6648   */\n      dup3\n        /* \"#utility.yul\":6644:6645   */\n      dup3\n        /* \"#utility.yul\":6641:6649   */\n      lt\n        /* \"#utility.yul\":6638:6672   */\n      iszero\n      tag_227\n      jumpi\n        /* \"#utility.yul\":6652:6670   */\n      tag_227\n      tag_224\n      jump\t// in\n    tag_227:\n      pop\n        /* \"#utility.yul\":6689:6698   */\n      sub\n      swap1\n        /* \"#utility.yul\":6579:6704   */\n      jump\t// out\n        /* \"#utility.yul\":6709:6844   */\n    tag_60:\n        /* \"#utility.yul\":6748:6751   */\n      0x00\n      not(0x00)\n        /* \"#utility.yul\":6769:6786   */\n      dup3\n      eq\n        /* \"#utility.yul\":6766:6809   */\n      iszero\n      tag_230\n      jumpi\n        /* \"#utility.yul\":6789:6807   */\n      tag_230\n      tag_224\n      jump\t// in\n    tag_230:\n      pop\n        /* \"#utility.yul\":6836:6837   */\n      0x01\n        /* \"#utility.yul\":6825:6838   */\n      add\n      swap1\n        /* \"#utility.yul\":6709:6844   */\n      jump\t// out\n        /* \"#utility.yul\":6849:6976   */\n    tag_224:\n        /* \"#utility.yul\":6910:6920   */\n      0x4e487b71\n        /* \"#utility.yul\":6905:6908   */\n      0xe0\n        /* \"#utility.yul\":6901:6921   */\n      shl\n        /* \"#utility.yul\":6898:6899   */\n      0x00\n        /* \"#utility.yul\":6891:6922   */\n      mstore\n        /* \"#utility.yul\":6941:6945   */\n      0x11\n        /* \"#utility.yul\":6938:6939   */\n      0x04\n        /* \"#utility.yul\":6931:6946   */\n      mstore\n        /* \"#utility.yul\":6965:6969   */\n      0x24\n        /* \"#utility.yul\":6962:6963   */\n      0x00\n        /* \"#utility.yul\":6955:6970   */\n      revert\n        /* \"#utility.yul\":6981:7108   */\n    tag_77:\n        /* \"#utility.yul\":7042:7052   */\n      0x4e487b71\n        /* \"#utility.yul\":7037:7040   */\n      0xe0\n        /* \"#utility.yul\":7033:7053   */\n      shl\n        /* \"#utility.yul\":7030:7031   */\n      0x00\n        /* \"#utility.yul\":7023:7054   */\n      mstore\n        /* \"#utility.yul\":7073:7077   */\n      0x32\n        /* \"#utility.yul\":7070:7071   */\n      0x04\n        /* \"#utility.yul\":7063:7078   */\n      mstore\n        /* \"#utility.yul\":7097:7101   */\n      0x24\n        /* \"#utility.yul\":7094:7095   */\n      0x00\n        /* \"#utility.yul\":7087:7102   */\n      revert\n        /* \"#utility.yul\":7113:7240   */\n    tag_64:\n        /* \"#utility.yul\":7174:7184   */\n      0x4e487b71\n        /* \"#utility.yul\":7169:7172   */\n      0xe0\n        /* \"#utility.yul\":7165:7185   */\n      shl\n        /* \"#utility.yul\":7162:7163   */\n      0x00\n        /* \"#utility.yul\":7155:7186   */\n      mstore\n        /* \"#utility.yul\":7205:7209   */\n      0x41\n        /* \"#utility.yul\":7202:7203   */\n      0x04\n        /* \"#utility.yul\":7195:7210   */\n      mstore\n        /* \"#utility.yul\":7229:7233   */\n      0x24\n        /* \"#utility.yul\":7226:7227   */\n      0x00\n        /* \"#utility.yul\":7219:7234   */\n      revert\n\n    auxdata: 0xa2646970667358221220dcda4a3d31da159d7428654a8b2218461b3e33c84bc63ccc4ab80960572d478a64736f6c63430008070033\n}\n",
				"bytecode": {
					"linkReferences": {},
					"object": "608060405266038d7ea4c6800060035560c860045534801561002057600080fd5b506001600055600580546001600160a01b03191633179055611050806100476000396000f3fe6080604052600436106100865760003560e01c806334f5b6241161005957806334f5b624146101045780634ddf4f8f146101175780638d6cb3fb1461012a578063b8fe6abe1461013f578063cdc66b2c1461015457600080fd5b8063047b07bf1461008b5780631f4cc4db146100b65780632b86ae38146100cb57806333431c0a146100ef575b600080fd5b34801561009757600080fd5b506100a061016a565b6040516100ad9190610ecd565b60405180910390f35b3480156100c257600080fd5b506100a0610333565b3480156100d757600080fd5b506100e160035481565b6040519081526020016100ad565b6101026100fd366004610e43565b61054e565b005b610102610112366004610e10565b6107f8565b610102610125366004610de6565b6109c4565b34801561013657600080fd5b506100a0610bc0565b34801561014b57600080fd5b506003546100e1565b34801561016057600080fd5b506100e160045481565b6060600061017760025490565b90506000805b828110156101d8573360066000610195846001610f8e565b81526020810191909152604001600020600301546001600160a01b031614156101c657816101c281610fbd565b9250505b806101d081610fbd565b91505061017d565b5060008167ffffffffffffffff8111156101f4576101f4611004565b60405190808252806020026020018201604052801561022d57816020015b61021a610d85565b8152602001906001900390816102125790505b5090506000805b8481101561032957336006600061024c846001610f8e565b81526020810191909152604001600020600301546001600160a01b03161415610317576006600061027e836001610f8e565b81526020808201929092526040908101600020815160c08101835281546001600160a01b0390811682526001830154948201949094526002820154841692810192909252600381015490921660608201526004820154608082015260059091015460ff16151560a082015283518490849081106102fd576102fd610fee565b6020026020010181905250818061031390610fbd565b9250505b8061032181610fbd565b915050610234565b5090949350505050565b6060600061034060025490565b90506000805b828110156103cf57336006600061035e846001610f8e565b81526020810191909152604001600020600201546001600160a01b03161480156103aa575060066000610392836001610f8e565b815260208101919091526040016000206005015460ff165b156103bd57816103b981610fbd565b9250505b806103c781610fbd565b915050610346565b5060008167ffffffffffffffff8111156103eb576103eb611004565b60405190808252806020026020018201604052801561042457816020015b610411610d85565b8152602001906001900390816104095790505b5090506000805b84811015610329573360066000610443846001610f8e565b81526020810191909152604001600020600201546001600160a01b031614801561048f575060066000610477836001610f8e565b815260208101919091526040016000206005015460ff165b1561053c57600660006104a3836001610f8e565b81526020808201929092526040908101600020815160c08101835281546001600160a01b0390811682526001830154948201949094526002820154841692810192909252600381015490921660608201526004820154608082015260059091015460ff16151560a0820152835184908490811061052257610522610fee565b6020026020010181905250818061053890610fbd565b9250505b8061054681610fbd565b91505061042b565b6002600054141561057a5760405162461bcd60e51b815260040161057190610f57565b60405180910390fd5b6002600055826105cc5760405162461bcd60e51b815260206004820152601c60248201527f5072696365206d757374206265206174206c65617374203120776569000000006044820152606401610571565b600354341461061d5760405162461bcd60e51b815260206004820181905260248201527f4e6f7420656e6f75676820657468657220666f72206c697374696e67206665656044820152606401610571565b6040516323b872dd60e01b8152336004820152306024820152604481018590526001600160a01b038616906323b872dd90606401600060405180830381600087803b15801561066b57600080fd5b505af115801561067f573d6000803e3d6000fd5b50505050610691600280546001019055565b6040518060c00160405280866001600160a01b03168152602001858152602001336001600160a01b03168152602001306001600160a01b03168152602001848152602001600115158152506006600086815260200190815260200160002060008201518160000160006101000a8154816001600160a01b0302191690836001600160a01b031602179055506020820151816001015560408201518160020160006101000a8154816001600160a01b0302191690836001600160a01b0316021790555060608201518160030160006101000a8154816001600160a01b0302191690836001600160a01b031602179055506080820151816004015560a08201518160050160006101000a81548160ff0219169083151502179055509050507fa0c6c0d02d86fdacecbaa5fdf5894bab204e31a778250474108540733a9b8d1985853330876040516107e4959493929190610e9a565b60405180910390a150506001600055505050565b6002600054141561081b5760405162461bcd60e51b815260040161057190610f57565b60026000558061086d5760405162461bcd60e51b815260206004820152601c60248201527f5072696365206d757374206265206174206c65617374203120776569000000006044820152606401610571565b60035434146108be5760405162461bcd60e51b815260206004820181905260248201527f4e6f7420656e6f75676820657468657220666f72206c697374696e67206665656044820152606401610571565b6040516323b872dd60e01b8152336004820152306024820152604481018390526001600160a01b038416906323b872dd90606401600060405180830381600087803b15801561090c57600080fd5b505af1158015610920573d6000803e3d6000fd5b50505060008381526006602052604090206002810180546001600160a01b031990811633179091556003820180549091163017905560058101805460ff191660019081179091556004820184905590915061097a90610d2e565b7fa0c6c0d02d86fdacecbaa5fdf5894bab204e31a778250474108540733a9b8d1984843330866040516109b1959493929190610e9a565b60405180910390a1505060016000555050565b600260005414156109e75760405162461bcd60e51b815260040161057190610f57565b600260009081558181526006602052604090206004810154341015610a5d5760405162461bcd60e51b815260206004820152602660248201527f4e6f7420656e6f75676820657468657220746f20636f7665722061736b696e6760448201526520707269636560d01b6064820152608401610571565b600281015460405133916001600160a01b0316903480156108fc02916000818181858888f19350505050158015610a98573d6000803e3d6000fd5b5060018201546040516323b872dd60e01b81523060048201526001600160a01b0383811660248301526044820192909252908516906323b872dd90606401600060405180830381600087803b158015610af057600080fd5b505af1158015610b04573d6000803e3d6000fd5b50506005546003546040516001600160a01b03909216935080156108fc029250906000818181858888f19350505050158015610b44573d6000803e3d6000fd5b506003820180546001600160a01b0319166001600160a01b03831617905560058201805460ff191690556001805481019055600182015460028301546040517f16f1dbd97e6bf646d429ed186cce832f1f7fd9907814293b83181e9970ab7bd2926109b19288926001600160a01b039091169086903490610e9a565b60606000610bcd60025490565b90506000610bda60015490565b610be49083610fa6565b905060008167ffffffffffffffff811115610c0157610c01611004565b604051908082528060200260200182016040528015610c3a57816020015b610c27610d85565b815260200190600190039081610c1f5790505b5090506000805b848110156103295760066000610c58836001610f8e565b815260208101919091526040016000206005015460ff1615610d1c5760066000610c83836001610f8e565b81526020808201929092526040908101600020815160c08101835281546001600160a01b0390811682526001830154948201949094526002820154841692810192909252600381015490921660608201526004820154608082015260059091015460ff16151560a08201528351849084908110610d0257610d02610fee565b60200260200101819052508180610d1890610fbd565b9250505b80610d2681610fbd565b915050610c41565b805480610d7d5760405162461bcd60e51b815260206004820152601b60248201527f436f756e7465723a2064656372656d656e74206f766572666c6f7700000000006044820152606401610571565b600019019055565b6040805160c081018252600080825260208201819052918101829052606081018290526080810182905260a081019190915290565b80356001600160a01b0381168114610dd157600080fd5b919050565b80358015158114610dd157600080fd5b60008060408385031215610df957600080fd5b610e0283610dba565b946020939093013593505050565b600080600060608486031215610e2557600080fd5b610e2e84610dba565b95602085013595506040909401359392505050565b600080600080600060a08688031215610e5b57600080fd5b610e6486610dba565b94506020860135935060408601359250610e8060608701610dd6565b9150610e8e60808701610dd6565b90509295509295909350565b6001600160a01b039586168152602081019490945291841660408401529092166060820152608081019190915260a00190565b602080825282518282018190526000919060409081850190868401855b82811015610f4a57815180516001600160a01b039081168652878201518887015286820151811687870152606080830151909116908601526080808201519086015260a09081015115159085015260c09093019290850190600101610eea565b5091979650505050505050565b6020808252601f908201527f5265656e7472616e637947756172643a207265656e7472616e742063616c6c00604082015260600190565b60008219821115610fa157610fa1610fd8565b500190565b600082821015610fb857610fb8610fd8565b500390565b6000600019821415610fd157610fd1610fd8565b5060010190565b634e487b7160e01b600052601160045260246000fd5b634e487b7160e01b600052603260045260246000fd5b634e487b7160e01b600052604160045260246000fdfea2646970667358221220dcda4a3d31da159d7428654a8b2218461b3e33c84bc63ccc4ab80960572d478a64736f6c63430008070033",
					"opcodes": "PUSH1 0x80 PUSH1 0x40 MSTORE PUSH7 0x38D7EA4C68000 PUSH1 0x3 SSTORE PUSH1 0xC8 PUSH1 0x4 SSTORE CALLVALUE DUP1 ISZERO PUSH2 0x20 JUMPI PUSH1 0x0 DUP1 REVERT JUMPDEST POP PUSH1 0x1 PUSH1 0x0 SSTORE PUSH1 0x5 DUP1 SLOAD PUSH1 0x1 PUSH1 0x1 PUSH1 0xA0 SHL SUB NOT AND CALLER OR SWAP1 SSTORE PUSH2 0x1050 DUP1 PUSH2 0x47 PUSH1 0x0 CODECOPY PUSH1 0x0 RETURN INVALID PUSH1 0x80 PUSH1 0x40 MSTORE PUSH1 0x4 CALLDATASIZE LT PUSH2 0x86 JUMPI PUSH1 0x0 CALLDATALOAD PUSH1 0xE0 SHR DUP1 PUSH4 0x34F5B624 GT PUSH2 0x59 JUMPI DUP1 PUSH4 0x34F5B624 EQ PUSH2 0x104 JUMPI DUP1 PUSH4 0x4DDF4F8F EQ PUSH2 0x117 JUMPI DUP1 PUSH4 0x8D6CB3FB EQ PUSH2 0x12A JUMPI DUP1 PUSH4 0xB8FE6ABE EQ PUSH2 0x13F JUMPI DUP1 PUSH4 0xCDC66B2C EQ PUSH2 0x154 JUMPI PUSH1 0x0 DUP1 REVERT JUMPDEST DUP1 PUSH4 0x47B07BF EQ PUSH2 0x8B JUMPI DUP1 PUSH4 0x1F4CC4DB EQ PUSH2 0xB6 JUMPI DUP1 PUSH4 0x2B86AE38 EQ PUSH2 0xCB JUMPI DUP1 PUSH4 0x33431C0A EQ PUSH2 0xEF JUMPI JUMPDEST PUSH1 0x0 DUP1 REVERT JUMPDEST CALLVALUE DUP1 ISZERO PUSH2 0x97 JUMPI PUSH1 0x0 DUP1 REVERT JUMPDEST POP PUSH2 0xA0 PUSH2 0x16A JUMP JUMPDEST PUSH1 0x40 MLOAD PUSH2 0xAD SWAP2 SWAP1 PUSH2 0xECD JUMP JUMPDEST PUSH1 0x40 MLOAD DUP1 SWAP2 SUB SWAP1 RETURN JUMPDEST CALLVALUE DUP1 ISZERO PUSH2 0xC2 JUMPI PUSH1 0x0 DUP1 REVERT JUMPDEST POP PUSH2 0xA0 PUSH2 0x333 JUMP JUMPDEST CALLVALUE DUP1 ISZERO PUSH2 0xD7 JUMPI PUSH1 0x0 DUP1 REVERT JUMPDEST POP PUSH2 0xE1 PUSH1 0x3 SLOAD DUP2 JUMP JUMPDEST PUSH1 0x40 MLOAD SWAP1 DUP2 MSTORE PUSH1 0x20 ADD PUSH2 0xAD JUMP JUMPDEST PUSH2 0x102 PUSH2 0xFD CALLDATASIZE PUSH1 0x4 PUSH2 0xE43 JUMP JUMPDEST PUSH2 0x54E JUMP JUMPDEST STOP JUMPDEST PUSH2 0x102 PUSH2 0x112 CALLDATASIZE PUSH1 0x4 PUSH2 0xE10 JUMP JUMPDEST PUSH2 0x7F8 JUMP JUMPDEST PUSH2 0x102 PUSH2 0x125 CALLDATASIZE PUSH1 0x4 PUSH2 0xDE6 JUMP JUMPDEST PUSH2 0x9C4 JUMP JUMPDEST CALLVALUE DUP1 ISZERO PUSH2 0x136 JUMPI PUSH1 0x0 DUP1 REVERT JUMPDEST POP PUSH2 0xA0 PUSH2 0xBC0 JUMP JUMPDEST CALLVALUE DUP1 ISZERO PUSH2 0x14B JUMPI PUSH1 0x0 DUP1 REVERT JUMPDEST POP PUSH1 0x3 SLOAD PUSH2 0xE1 JUMP JUMPDEST CALLVALUE DUP1 ISZERO PUSH2 0x160 JUMPI PUSH1 0x0 DUP1 REVERT JUMPDEST POP PUSH2 0xE1 PUSH1 0x4 SLOAD DUP2 JUMP JUMPDEST PUSH1 0x60 PUSH1 0x0 PUSH2 0x177 PUSH1 0x2 SLOAD SWAP1 JUMP JUMPDEST SWAP1 POP PUSH1 0x0 DUP1 JUMPDEST DUP3 DUP2 LT ISZERO PUSH2 0x1D8 JUMPI CALLER PUSH1 0x6 PUSH1 0x0 PUSH2 0x195 DUP5 PUSH1 0x1 PUSH2 0xF8E JUMP JUMPDEST DUP2 MSTORE PUSH1 0x20 DUP2 ADD SWAP2 SWAP1 SWAP2 MSTORE PUSH1 0x40 ADD PUSH1 0x0 KECCAK256 PUSH1 0x3 ADD SLOAD PUSH1 0x1 PUSH1 0x1 PUSH1 0xA0 SHL SUB AND EQ ISZERO PUSH2 0x1C6 JUMPI DUP2 PUSH2 0x1C2 DUP2 PUSH2 0xFBD JUMP JUMPDEST SWAP3 POP POP JUMPDEST DUP1 PUSH2 0x1D0 DUP2 PUSH2 0xFBD JUMP JUMPDEST SWAP2 POP POP PUSH2 0x17D JUMP JUMPDEST POP PUSH1 0x0 DUP2 PUSH8 0xFFFFFFFFFFFFFFFF DUP2 GT ISZERO PUSH2 0x1F4 JUMPI PUSH2 0x1F4 PUSH2 0x1004 JUMP JUMPDEST PUSH1 0x40 MLOAD SWAP1 DUP1 DUP3 MSTORE DUP1 PUSH1 0x20 MUL PUSH1 0x20 ADD DUP3 ADD PUSH1 0x40 MSTORE DUP1 ISZERO PUSH2 0x22D JUMPI DUP2 PUSH1 0x20 ADD JUMPDEST PUSH2 0x21A PUSH2 0xD85 JUMP JUMPDEST DUP2 MSTORE PUSH1 0x20 ADD SWAP1 PUSH1 0x1 SWAP1 SUB SWAP1 DUP2 PUSH2 0x212 JUMPI SWAP1 POP JUMPDEST POP SWAP1 POP PUSH1 0x0 DUP1 JUMPDEST DUP5 DUP2 LT ISZERO PUSH2 0x329 JUMPI CALLER PUSH1 0x6 PUSH1 0x0 PUSH2 0x24C DUP5 PUSH1 0x1 PUSH2 0xF8E JUMP JUMPDEST DUP2 MSTORE PUSH1 0x20 DUP2 ADD SWAP2 SWAP1 SWAP2 MSTORE PUSH1 0x40 ADD PUSH1 0x0 KECCAK256 PUSH1 0x3 ADD SLOAD PUSH1 0x1 PUSH1 0x1 PUSH1 0xA0 SHL SUB AND EQ ISZERO PUSH2 0x317 JUMPI PUSH1 0x6 PUSH1 0x0 PUSH2 0x27E DUP4 PUSH1 0x1 PUSH2 0xF8E JUMP JUMPDEST DUP2 MSTORE PUSH1 0x20 DUP1 DUP3 ADD SWAP3 SWAP1 SWAP3 MSTORE PUSH1 0x40 SWAP1 DUP2 ADD PUSH1 0x0 KECCAK256 DUP2 MLOAD PUSH1 0xC0 DUP2 ADD DUP4 MSTORE DUP2 SLOAD PUSH1 0x1 PUSH1 0x1 PUSH1 0xA0 SHL SUB SWAP1 DUP2 AND DUP3 MSTORE PUSH1 0x1 DUP4 ADD SLOAD SWAP5 DUP3 ADD SWAP5 SWAP1 SWAP5 MSTORE PUSH1 0x2 DUP3 ADD SLOAD DUP5 AND SWAP3 DUP2 ADD SWAP3 SWAP1 SWAP3 MSTORE PUSH1 0x3 DUP2 ADD SLOAD SWAP1 SWAP3 AND PUSH1 0x60 DUP3 ADD MSTORE PUSH1 0x4 DUP3 ADD SLOAD PUSH1 0x80 DUP3 ADD MSTORE PUSH1 0x5 SWAP1 SWAP2 ADD SLOAD PUSH1 0xFF AND ISZERO ISZERO PUSH1 0xA0 DUP3 ADD MSTORE DUP4 MLOAD DUP5 SWAP1 DUP5 SWAP1 DUP2 LT PUSH2 0x2FD JUMPI PUSH2 0x2FD PUSH2 0xFEE JUMP JUMPDEST PUSH1 0x20 MUL PUSH1 0x20 ADD ADD DUP2 SWAP1 MSTORE POP DUP2 DUP1 PUSH2 0x313 SWAP1 PUSH2 0xFBD JUMP JUMPDEST SWAP3 POP POP JUMPDEST DUP1 PUSH2 0x321 DUP2 PUSH2 0xFBD JUMP JUMPDEST SWAP2 POP POP PUSH2 0x234 JUMP JUMPDEST POP SWAP1 SWAP5 SWAP4 POP POP POP POP JUMP JUMPDEST PUSH1 0x60 PUSH1 0x0 PUSH2 0x340 PUSH1 0x2 SLOAD SWAP1 JUMP JUMPDEST SWAP1 POP PUSH1 0x0 DUP1 JUMPDEST DUP3 DUP2 LT ISZERO PUSH2 0x3CF JUMPI CALLER PUSH1 0x6 PUSH1 0x0 PUSH2 0x35E DUP5 PUSH1 0x1 PUSH2 0xF8E JUMP JUMPDEST DUP2 MSTORE PUSH1 0x20 DUP2 ADD SWAP2 SWAP1 SWAP2 MSTORE PUSH1 0x40 ADD PUSH1 0x0 KECCAK256 PUSH1 0x2 ADD SLOAD PUSH1 0x1 PUSH1 0x1 PUSH1 0xA0 SHL SUB AND EQ DUP1 ISZERO PUSH2 0x3AA JUMPI POP PUSH1 0x6 PUSH1 0x0 PUSH2 0x392 DUP4 PUSH1 0x1 PUSH2 0xF8E JUMP JUMPDEST DUP2 MSTORE PUSH1 0x20 DUP2 ADD SWAP2 SWAP1 SWAP2 MSTORE PUSH1 0x40 ADD PUSH1 0x0 KECCAK256 PUSH1 0x5 ADD SLOAD PUSH1 0xFF AND JUMPDEST ISZERO PUSH2 0x3BD JUMPI DUP2 PUSH2 0x3B9 DUP2 PUSH2 0xFBD JUMP JUMPDEST SWAP3 POP POP JUMPDEST DUP1 PUSH2 0x3C7 DUP2 PUSH2 0xFBD JUMP JUMPDEST SWAP2 POP POP PUSH2 0x346 JUMP JUMPDEST POP PUSH1 0x0 DUP2 PUSH8 0xFFFFFFFFFFFFFFFF DUP2 GT ISZERO PUSH2 0x3EB JUMPI PUSH2 0x3EB PUSH2 0x1004 JUMP JUMPDEST PUSH1 0x40 MLOAD SWAP1 DUP1 DUP3 MSTORE DUP1 PUSH1 0x20 MUL PUSH1 0x20 ADD DUP3 ADD PUSH1 0x40 MSTORE DUP1 ISZERO PUSH2 0x424 JUMPI DUP2 PUSH1 0x20 ADD JUMPDEST PUSH2 0x411 PUSH2 0xD85 JUMP JUMPDEST DUP2 MSTORE PUSH1 0x20 ADD SWAP1 PUSH1 0x1 SWAP1 SUB SWAP1 DUP2 PUSH2 0x409 JUMPI SWAP1 POP JUMPDEST POP SWAP1 POP PUSH1 0x0 DUP1 JUMPDEST DUP5 DUP2 LT ISZERO PUSH2 0x329 JUMPI CALLER PUSH1 0x6 PUSH1 0x0 PUSH2 0x443 DUP5 PUSH1 0x1 PUSH2 0xF8E JUMP JUMPDEST DUP2 MSTORE PUSH1 0x20 DUP2 ADD SWAP2 SWAP1 SWAP2 MSTORE PUSH1 0x40 ADD PUSH1 0x0 KECCAK256 PUSH1 0x2 ADD SLOAD PUSH1 0x1 PUSH1 0x1 PUSH1 0xA0 SHL SUB AND EQ DUP1 ISZERO PUSH2 0x48F JUMPI POP PUSH1 0x6 PUSH1 0x0 PUSH2 0x477 DUP4 PUSH1 0x1 PUSH2 0xF8E JUMP JUMPDEST DUP2 MSTORE PUSH1 0x20 DUP2 ADD SWAP2 SWAP1 SWAP2 MSTORE PUSH1 0x40 ADD PUSH1 0x0 KECCAK256 PUSH1 0x5 ADD SLOAD PUSH1 0xFF AND JUMPDEST ISZERO PUSH2 0x53C JUMPI PUSH1 0x6 PUSH1 0x0 PUSH2 0x4A3 DUP4 PUSH1 0x1 PUSH2 0xF8E JUMP JUMPDEST DUP2 MSTORE PUSH1 0x20 DUP1 DUP3 ADD SWAP3 SWAP1 SWAP3 MSTORE PUSH1 0x40 SWAP1 DUP2 ADD PUSH1 0x0 KECCAK256 DUP2 MLOAD PUSH1 0xC0 DUP2 ADD DUP4 MSTORE DUP2 SLOAD PUSH1 0x1 PUSH1 0x1 PUSH1 0xA0 SHL SUB SWAP1 DUP2 AND DUP3 MSTORE PUSH1 0x1 DUP4 ADD SLOAD SWAP5 DUP3 ADD SWAP5 SWAP1 SWAP5 MSTORE PUSH1 0x2 DUP3 ADD SLOAD DUP5 AND SWAP3 DUP2 ADD SWAP3 SWAP1 SWAP3 MSTORE PUSH1 0x3 DUP2 ADD SLOAD SWAP1 SWAP3 AND PUSH1 0x60 DUP3 ADD MSTORE PUSH1 0x4 DUP3 ADD SLOAD PUSH1 0x80 DUP3 ADD MSTORE PUSH1 0x5 SWAP1 SWAP2 ADD SLOAD PUSH1 0xFF AND ISZERO ISZERO PUSH1 0xA0 DUP3 ADD MSTORE DUP4 MLOAD DUP5 SWAP1 DUP5 SWAP1 DUP2 LT PUSH2 0x522 JUMPI PUSH2 0x522 PUSH2 0xFEE JUMP JUMPDEST PUSH1 0x20 MUL PUSH1 0x20 ADD ADD DUP2 SWAP1 MSTORE POP DUP2 DUP1 PUSH2 0x538 SWAP1 PUSH2 0xFBD JUMP JUMPDEST SWAP3 POP POP JUMPDEST DUP1 PUSH2 0x546 DUP2 PUSH2 0xFBD JUMP JUMPDEST SWAP2 POP POP PUSH2 0x42B JUMP JUMPDEST PUSH1 0x2 PUSH1 0x0 SLOAD EQ ISZERO PUSH2 0x57A JUMPI PUSH1 0x40 MLOAD PUSH3 0x461BCD PUSH1 0xE5 SHL DUP2 MSTORE PUSH1 0x4 ADD PUSH2 0x571 SWAP1 PUSH2 0xF57 JUMP JUMPDEST PUSH1 0x40 MLOAD DUP1 SWAP2 SUB SWAP1 REVERT JUMPDEST PUSH1 0x2 PUSH1 0x0 SSTORE DUP3 PUSH2 0x5CC JUMPI PUSH1 0x40 MLOAD PUSH3 0x461BCD PUSH1 0xE5 SHL DUP2 MSTORE PUSH1 0x20 PUSH1 0x4 DUP3 ADD MSTORE PUSH1 0x1C PUSH1 0x24 DUP3 ADD MSTORE PUSH32 0x5072696365206D757374206265206174206C6561737420312077656900000000 PUSH1 0x44 DUP3 ADD MSTORE PUSH1 0x64 ADD PUSH2 0x571 JUMP JUMPDEST PUSH1 0x3 SLOAD CALLVALUE EQ PUSH2 0x61D JUMPI PUSH1 0x40 MLOAD PUSH3 0x461BCD PUSH1 0xE5 SHL DUP2 MSTORE PUSH1 0x20 PUSH1 0x4 DUP3 ADD DUP2 SWAP1 MSTORE PUSH1 0x24 DUP3 ADD MSTORE PUSH32 0x4E6F7420656E6F75676820657468657220666F72206C697374696E6720666565 PUSH1 0x44 DUP3 ADD MSTORE PUSH1 0x64 ADD PUSH2 0x571 JUMP JUMPDEST PUSH1 0x40 MLOAD PUSH4 0x23B872DD PUSH1 0xE0 SHL DUP2 MSTORE CALLER PUSH1 0x4 DUP3 ADD MSTORE ADDRESS PUSH1 0x24 DUP3 ADD MSTORE PUSH1 0x44 DUP2 ADD DUP6 SWAP1 MSTORE PUSH1 0x1 PUSH1 0x1 PUSH1 0xA0 SHL SUB DUP7 AND SWAP1 PUSH4 0x23B872DD SWAP1 PUSH1 0x64 ADD PUSH1 0x0 PUSH1 0x40 MLOAD DUP1 DUP4 SUB DUP2 PUSH1 0x0 DUP8 DUP1 EXTCODESIZE ISZERO DUP1 ISZERO PUSH2 0x66B JUMPI PUSH1 0x0 DUP1 REVERT JUMPDEST POP GAS CALL ISZERO DUP1 ISZERO PUSH2 0x67F JUMPI RETURNDATASIZE PUSH1 0x0 DUP1 RETURNDATACOPY RETURNDATASIZE PUSH1 0x0 REVERT JUMPDEST POP POP POP POP PUSH2 0x691 PUSH1 0x2 DUP1 SLOAD PUSH1 0x1 ADD SWAP1 SSTORE JUMP JUMPDEST PUSH1 0x40 MLOAD DUP1 PUSH1 0xC0 ADD PUSH1 0x40 MSTORE DUP1 DUP7 PUSH1 0x1 PUSH1 0x1 PUSH1 0xA0 SHL SUB AND DUP2 MSTORE PUSH1 0x20 ADD DUP6 DUP2 MSTORE PUSH1 0x20 ADD CALLER PUSH1 0x1 PUSH1 0x1 PUSH1 0xA0 SHL SUB AND DUP2 MSTORE PUSH1 0x20 ADD ADDRESS PUSH1 0x1 PUSH1 0x1 PUSH1 0xA0 SHL SUB AND DUP2 MSTORE PUSH1 0x20 ADD DUP5 DUP2 MSTORE PUSH1 0x20 ADD PUSH1 0x1 ISZERO ISZERO DUP2 MSTORE POP PUSH1 0x6 PUSH1 0x0 DUP7 DUP2 MSTORE PUSH1 0x20 ADD SWAP1 DUP2 MSTORE PUSH1 0x20 ADD PUSH1 0x0 KECCAK256 PUSH1 0x0 DUP3 ADD MLOAD DUP2 PUSH1 0x0 ADD PUSH1 0x0 PUSH2 0x100 EXP DUP2 SLOAD DUP2 PUSH1 0x1 PUSH1 0x1 PUSH1 0xA0 SHL SUB MUL NOT AND SWAP1 DUP4 PUSH1 0x1 PUSH1 0x1 PUSH1 0xA0 SHL SUB AND MUL OR SWAP1 SSTORE POP PUSH1 0x20 DUP3 ADD MLOAD DUP2 PUSH1 0x1 ADD SSTORE PUSH1 0x40 DUP3 ADD MLOAD DUP2 PUSH1 0x2 ADD PUSH1 0x0 PUSH2 0x100 EXP DUP2 SLOAD DUP2 PUSH1 0x1 PUSH1 0x1 PUSH1 0xA0 SHL SUB MUL NOT AND SWAP1 DUP4 PUSH1 0x1 PUSH1 0x1 PUSH1 0xA0 SHL SUB AND MUL OR SWAP1 SSTORE POP PUSH1 0x60 DUP3 ADD MLOAD DUP2 PUSH1 0x3 ADD PUSH1 0x0 PUSH2 0x100 EXP DUP2 SLOAD DUP2 PUSH1 0x1 PUSH1 0x1 PUSH1 0xA0 SHL SUB MUL NOT AND SWAP1 DUP4 PUSH1 0x1 PUSH1 0x1 PUSH1 0xA0 SHL SUB AND MUL OR SWAP1 SSTORE POP PUSH1 0x80 DUP3 ADD MLOAD DUP2 PUSH1 0x4 ADD SSTORE PUSH1 0xA0 DUP3 ADD MLOAD DUP2 PUSH1 0x5 ADD PUSH1 0x0 PUSH2 0x100 EXP DUP2 SLOAD DUP2 PUSH1 0xFF MUL NOT AND SWAP1 DUP4 ISZERO ISZERO MUL OR SWAP1 SSTORE POP SWAP1 POP POP PUSH32 0xA0C6C0D02D86FDACECBAA5FDF5894BAB204E31A778250474108540733A9B8D19 DUP6 DUP6 CALLER ADDRESS DUP8 PUSH1 0x40 MLOAD PUSH2 0x7E4 SWAP6 SWAP5 SWAP4 SWAP3 SWAP2 SWAP1 PUSH2 0xE9A JUMP JUMPDEST PUSH1 0x40 MLOAD DUP1 SWAP2 SUB SWAP1 LOG1 POP POP PUSH1 0x1 PUSH1 0x0 SSTORE POP POP POP JUMP JUMPDEST PUSH1 0x2 PUSH1 0x0 SLOAD EQ ISZERO PUSH2 0x81B JUMPI PUSH1 0x40 MLOAD PUSH3 0x461BCD PUSH1 0xE5 SHL DUP2 MSTORE PUSH1 0x4 ADD PUSH2 0x571 SWAP1 PUSH2 0xF57 JUMP JUMPDEST PUSH1 0x2 PUSH1 0x0 SSTORE DUP1 PUSH2 0x86D JUMPI PUSH1 0x40 MLOAD PUSH3 0x461BCD PUSH1 0xE5 SHL DUP2 MSTORE PUSH1 0x20 PUSH1 0x4 DUP3 ADD MSTORE PUSH1 0x1C PUSH1 0x24 DUP3 ADD MSTORE PUSH32 0x5072696365206D757374206265206174206C6561737420312077656900000000 PUSH1 0x44 DUP3 ADD MSTORE PUSH1 0x64 ADD PUSH2 0x571 JUMP JUMPDEST PUSH1 0x3 SLOAD CALLVALUE EQ PUSH2 0x8BE JUMPI PUSH1 0x40 MLOAD PUSH3 0x461BCD PUSH1 0xE5 SHL DUP2 MSTORE PUSH1 0x20 PUSH1 0x4 DUP3 ADD DUP2 SWAP1 MSTORE PUSH1 0x24 DUP3 ADD MSTORE PUSH32 0x4E6F7420656E6F75676820657468657220666F72206C697374696E6720666565 PUSH1 0x44 DUP3 ADD MSTORE PUSH1 0x64 ADD PUSH2 0x571 JUMP JUMPDEST PUSH1 0x40 MLOAD PUSH4 0x23B872DD PUSH1 0xE0 SHL DUP2 MSTORE CALLER PUSH1 0x4 DUP3 ADD MSTORE ADDRESS PUSH1 0x24 DUP3 ADD MSTORE PUSH1 0x44 DUP2 ADD DUP4 SWAP1 MSTORE PUSH1 0x1 PUSH1 0x1 PUSH1 0xA0 SHL SUB DUP5 AND SWAP1 PUSH4 0x23B872DD SWAP1 PUSH1 0x64 ADD PUSH1 0x0 PUSH1 0x40 MLOAD DUP1 DUP4 SUB DUP2 PUSH1 0x0 DUP8 DUP1 EXTCODESIZE ISZERO DUP1 ISZERO PUSH2 0x90C JUMPI PUSH1 0x0 DUP1 REVERT JUMPDEST POP GAS CALL ISZERO DUP1 ISZERO PUSH2 0x920 JUMPI RETURNDATASIZE PUSH1 0x0 DUP1 RETURNDATACOPY RETURNDATASIZE PUSH1 0x0 REVERT JUMPDEST POP POP POP PUSH1 0x0 DUP4 DUP2 MSTORE PUSH1 0x6 PUSH1 0x20 MSTORE PUSH1 0x40 SWAP1 KECCAK256 PUSH1 0x2 DUP2 ADD DUP1 SLOAD PUSH1 0x1 PUSH1 0x1 PUSH1 0xA0 SHL SUB NOT SWAP1 DUP2 AND CALLER OR SWAP1 SWAP2 SSTORE PUSH1 0x3 DUP3 ADD DUP1 SLOAD SWAP1 SWAP2 AND ADDRESS OR SWAP1 SSTORE PUSH1 0x5 DUP2 ADD DUP1 SLOAD PUSH1 0xFF NOT AND PUSH1 0x1 SWAP1 DUP2 OR SWAP1 SWAP2 SSTORE PUSH1 0x4 DUP3 ADD DUP5 SWAP1 SSTORE SWAP1 SWAP2 POP PUSH2 0x97A SWAP1 PUSH2 0xD2E JUMP JUMPDEST PUSH32 0xA0C6C0D02D86FDACECBAA5FDF5894BAB204E31A778250474108540733A9B8D19 DUP5 DUP5 CALLER ADDRESS DUP7 PUSH1 0x40 MLOAD PUSH2 0x9B1 SWAP6 SWAP5 SWAP4 SWAP3 SWAP2 SWAP1 PUSH2 0xE9A JUMP JUMPDEST PUSH1 0x40 MLOAD DUP1 SWAP2 SUB SWAP1 LOG1 POP POP PUSH1 0x1 PUSH1 0x0 SSTORE POP POP JUMP JUMPDEST PUSH1 0x2 PUSH1 0x0 SLOAD EQ ISZERO PUSH2 0x9E7 JUMPI PUSH1 0x40 MLOAD PUSH3 0x461BCD PUSH1 0xE5 SHL DUP2 MSTORE PUSH1 0x4 ADD PUSH2 0x571 SWAP1 PUSH2 0xF57 JUMP JUMPDEST PUSH1 0x2 PUSH1 0x0 SWAP1 DUP2 SSTORE DUP2 DUP2 MSTORE PUSH1 0x6 PUSH1 0x20 MSTORE PUSH1 0x40 SWAP1 KECCAK256 PUSH1 0x4 DUP2 ADD SLOAD CALLVALUE LT ISZERO PUSH2 0xA5D JUMPI PUSH1 0x40 MLOAD PUSH3 0x461BCD PUSH1 0xE5 SHL DUP2 MSTORE PUSH1 0x20 PUSH1 0x4 DUP3 ADD MSTORE PUSH1 0x26 PUSH1 0x24 DUP3 ADD MSTORE PUSH32 0x4E6F7420656E6F75676820657468657220746F20636F7665722061736B696E67 PUSH1 0x44 DUP3 ADD MSTORE PUSH6 0x207072696365 PUSH1 0xD0 SHL PUSH1 0x64 DUP3 ADD MSTORE PUSH1 0x84 ADD PUSH2 0x571 JUMP JUMPDEST PUSH1 0x2 DUP2 ADD SLOAD PUSH1 0x40 MLOAD CALLER SWAP2 PUSH1 0x1 PUSH1 0x1 PUSH1 0xA0 SHL SUB AND SWAP1 CALLVALUE DUP1 ISZERO PUSH2 0x8FC MUL SWAP2 PUSH1 0x0 DUP2 DUP2 DUP2 DUP6 DUP9 DUP9 CALL SWAP4 POP POP POP POP ISZERO DUP1 ISZERO PUSH2 0xA98 JUMPI RETURNDATASIZE PUSH1 0x0 DUP1 RETURNDATACOPY RETURNDATASIZE PUSH1 0x0 REVERT JUMPDEST POP PUSH1 0x1 DUP3 ADD SLOAD PUSH1 0x40 MLOAD PUSH4 0x23B872DD PUSH1 0xE0 SHL DUP2 MSTORE ADDRESS PUSH1 0x4 DUP3 ADD MSTORE PUSH1 0x1 PUSH1 0x1 PUSH1 0xA0 SHL SUB DUP4 DUP2 AND PUSH1 0x24 DUP4 ADD MSTORE PUSH1 0x44 DUP3 ADD SWAP3 SWAP1 SWAP3 MSTORE SWAP1 DUP6 AND SWAP1 PUSH4 0x23B872DD SWAP1 PUSH1 0x64 ADD PUSH1 0x0 PUSH1 0x40 MLOAD DUP1 DUP4 SUB DUP2 PUSH1 0x0 DUP8 DUP1 EXTCODESIZE ISZERO DUP1 ISZERO PUSH2 0xAF0 JUMPI PUSH1 0x0 DUP1 REVERT JUMPDEST POP GAS CALL ISZERO DUP1 ISZERO PUSH2 0xB04 JUMPI RETURNDATASIZE PUSH1 0x0 DUP1 RETURNDATACOPY RETURNDATASIZE PUSH1 0x0 REVERT JUMPDEST POP POP PUSH1 0x5 SLOAD PUSH1 0x3 SLOAD PUSH1 0x40 MLOAD PUSH1 0x1 PUSH1 0x1 PUSH1 0xA0 SHL SUB SWAP1 SWAP3 AND SWAP4 POP DUP1 ISZERO PUSH2 0x8FC MUL SWAP3 POP SWAP1 PUSH1 0x0 DUP2 DUP2 DUP2 DUP6 DUP9 DUP9 CALL SWAP4 POP POP POP POP ISZERO DUP1 ISZERO PUSH2 0xB44 JUMPI RETURNDATASIZE PUSH1 0x0 DUP1 RETURNDATACOPY RETURNDATASIZE PUSH1 0x0 REVERT JUMPDEST POP PUSH1 0x3 DUP3 ADD DUP1 SLOAD PUSH1 0x1 PUSH1 0x1 PUSH1 0xA0 SHL SUB NOT AND PUSH1 0x1 PUSH1 0x1 PUSH1 0xA0 SHL SUB DUP4 AND OR SWAP1 SSTORE PUSH1 0x5 DUP3 ADD DUP1 SLOAD PUSH1 0xFF NOT AND SWAP1 SSTORE PUSH1 0x1 DUP1 SLOAD DUP2 ADD SWAP1 SSTORE PUSH1 0x1 DUP3 ADD SLOAD PUSH1 0x2 DUP4 ADD SLOAD PUSH1 0x40 MLOAD PUSH32 0x16F1DBD97E6BF646D429ED186CCE832F1F7FD9907814293B83181E9970AB7BD2 SWAP3 PUSH2 0x9B1 SWAP3 DUP9 SWAP3 PUSH1 0x1 PUSH1 0x1 PUSH1 0xA0 SHL SUB SWAP1 SWAP2 AND SWAP1 DUP7 SWAP1 CALLVALUE SWAP1 PUSH2 0xE9A JUMP JUMPDEST PUSH1 0x60 PUSH1 0x0 PUSH2 0xBCD PUSH1 0x2 SLOAD SWAP1 JUMP JUMPDEST SWAP1 POP PUSH1 0x0 PUSH2 0xBDA PUSH1 0x1 SLOAD SWAP1 JUMP JUMPDEST PUSH2 0xBE4 SWAP1 DUP4 PUSH2 0xFA6 JUMP JUMPDEST SWAP1 POP PUSH1 0x0 DUP2 PUSH8 0xFFFFFFFFFFFFFFFF DUP2 GT ISZERO PUSH2 0xC01 JUMPI PUSH2 0xC01 PUSH2 0x1004 JUMP JUMPDEST PUSH1 0x40 MLOAD SWAP1 DUP1 DUP3 MSTORE DUP1 PUSH1 0x20 MUL PUSH1 0x20 ADD DUP3 ADD PUSH1 0x40 MSTORE DUP1 ISZERO PUSH2 0xC3A JUMPI DUP2 PUSH1 0x20 ADD JUMPDEST PUSH2 0xC27 PUSH2 0xD85 JUMP JUMPDEST DUP2 MSTORE PUSH1 0x20 ADD SWAP1 PUSH1 0x1 SWAP1 SUB SWAP1 DUP2 PUSH2 0xC1F JUMPI SWAP1 POP JUMPDEST POP SWAP1 POP PUSH1 0x0 DUP1 JUMPDEST DUP5 DUP2 LT ISZERO PUSH2 0x329 JUMPI PUSH1 0x6 PUSH1 0x0 PUSH2 0xC58 DUP4 PUSH1 0x1 PUSH2 0xF8E JUMP JUMPDEST DUP2 MSTORE PUSH1 0x20 DUP2 ADD SWAP2 SWAP1 SWAP2 MSTORE PUSH1 0x40 ADD PUSH1 0x0 KECCAK256 PUSH1 0x5 ADD SLOAD PUSH1 0xFF AND ISZERO PUSH2 0xD1C JUMPI PUSH1 0x6 PUSH1 0x0 PUSH2 0xC83 DUP4 PUSH1 0x1 PUSH2 0xF8E JUMP JUMPDEST DUP2 MSTORE PUSH1 0x20 DUP1 DUP3 ADD SWAP3 SWAP1 SWAP3 MSTORE PUSH1 0x40 SWAP1 DUP2 ADD PUSH1 0x0 KECCAK256 DUP2 MLOAD PUSH1 0xC0 DUP2 ADD DUP4 MSTORE DUP2 SLOAD PUSH1 0x1 PUSH1 0x1 PUSH1 0xA0 SHL SUB SWAP1 DUP2 AND DUP3 MSTORE PUSH1 0x1 DUP4 ADD SLOAD SWAP5 DUP3 ADD SWAP5 SWAP1 SWAP5 MSTORE PUSH1 0x2 DUP3 ADD SLOAD DUP5 AND SWAP3 DUP2 ADD SWAP3 SWAP1 SWAP3 MSTORE PUSH1 0x3 DUP2 ADD SLOAD SWAP1 SWAP3 AND PUSH1 0x60 DUP3 ADD MSTORE PUSH1 0x4 DUP3 ADD SLOAD PUSH1 0x80 DUP3 ADD MSTORE PUSH1 0x5 SWAP1 SWAP2 ADD SLOAD PUSH1 0xFF AND ISZERO ISZERO PUSH1 0xA0 DUP3 ADD MSTORE DUP4 MLOAD DUP5 SWAP1 DUP5 SWAP1 DUP2 LT PUSH2 0xD02 JUMPI PUSH2 0xD02 PUSH2 0xFEE JUMP JUMPDEST PUSH1 0x20 MUL PUSH1 0x20 ADD ADD DUP2 SWAP1 MSTORE POP DUP2 DUP1 PUSH2 0xD18 SWAP1 PUSH2 0xFBD JUMP JUMPDEST SWAP3 POP POP JUMPDEST DUP1 PUSH2 0xD26 DUP2 PUSH2 0xFBD JUMP JUMPDEST SWAP2 POP POP PUSH2 0xC41 JUMP JUMPDEST DUP1 SLOAD DUP1 PUSH2 0xD7D JUMPI PUSH1 0x40 MLOAD PUSH3 0x461BCD PUSH1 0xE5 SHL DUP2 MSTORE PUSH1 0x20 PUSH1 0x4 DUP3 ADD MSTORE PUSH1 0x1B PUSH1 0x24 DUP3 ADD MSTORE PUSH32 0x436F756E7465723A2064656372656D656E74206F766572666C6F770000000000 PUSH1 0x44 DUP3 ADD MSTORE PUSH1 0x64 ADD PUSH2 0x571 JUMP JUMPDEST PUSH1 0x0 NOT ADD SWAP1 SSTORE JUMP JUMPDEST PUSH1 0x40 DUP1 MLOAD PUSH1 0xC0 DUP2 ADD DUP3 MSTORE PUSH1 0x0 DUP1 DUP3 MSTORE PUSH1 0x20 DUP3 ADD DUP2 SWAP1 MSTORE SWAP2 DUP2 ADD DUP3 SWAP1 MSTORE PUSH1 0x60 DUP2 ADD DUP3 SWAP1 MSTORE PUSH1 0x80 DUP2 ADD DUP3 SWAP1 MSTORE PUSH1 0xA0 DUP2 ADD SWAP2 SWAP1 SWAP2 MSTORE SWAP1 JUMP JUMPDEST DUP1 CALLDATALOAD PUSH1 0x1 PUSH1 0x1 PUSH1 0xA0 SHL SUB DUP2 AND DUP2 EQ PUSH2 0xDD1 JUMPI PUSH1 0x0 DUP1 REVERT JUMPDEST SWAP2 SWAP1 POP JUMP JUMPDEST DUP1 CALLDATALOAD DUP1 ISZERO ISZERO DUP2 EQ PUSH2 0xDD1 JUMPI PUSH1 0x0 DUP1 REVERT JUMPDEST PUSH1 0x0 DUP1 PUSH1 0x40 DUP4 DUP6 SUB SLT ISZERO PUSH2 0xDF9 JUMPI PUSH1 0x0 DUP1 REVERT JUMPDEST PUSH2 0xE02 DUP4 PUSH2 0xDBA JUMP JUMPDEST SWAP5 PUSH1 0x20 SWAP4 SWAP1 SWAP4 ADD CALLDATALOAD SWAP4 POP POP POP JUMP JUMPDEST PUSH1 0x0 DUP1 PUSH1 0x0 PUSH1 0x60 DUP5 DUP7 SUB SLT ISZERO PUSH2 0xE25 JUMPI PUSH1 0x0 DUP1 REVERT JUMPDEST PUSH2 0xE2E DUP5 PUSH2 0xDBA JUMP JUMPDEST SWAP6 PUSH1 0x20 DUP6 ADD CALLDATALOAD SWAP6 POP PUSH1 0x40 SWAP1 SWAP5 ADD CALLDATALOAD SWAP4 SWAP3 POP POP POP JUMP JUMPDEST PUSH1 0x0 DUP1 PUSH1 0x0 DUP1 PUSH1 0x0 PUSH1 0xA0 DUP7 DUP9 SUB SLT ISZERO PUSH2 0xE5B JUMPI PUSH1 0x0 DUP1 REVERT JUMPDEST PUSH2 0xE64 DUP7 PUSH2 0xDBA JUMP JUMPDEST SWAP5 POP PUSH1 0x20 DUP7 ADD CALLDATALOAD SWAP4 POP PUSH1 0x40 DUP7 ADD CALLDATALOAD SWAP3 POP PUSH2 0xE80 PUSH1 0x60 DUP8 ADD PUSH2 0xDD6 JUMP JUMPDEST SWAP2 POP PUSH2 0xE8E PUSH1 0x80 DUP8 ADD PUSH2 0xDD6 JUMP JUMPDEST SWAP1 POP SWAP3 SWAP6 POP SWAP3 SWAP6 SWAP1 SWAP4 POP JUMP JUMPDEST PUSH1 0x1 PUSH1 0x1 PUSH1 0xA0 SHL SUB SWAP6 DUP7 AND DUP2 MSTORE PUSH1 0x20 DUP2 ADD SWAP5 SWAP1 SWAP5 MSTORE SWAP2 DUP5 AND PUSH1 0x40 DUP5 ADD MSTORE SWAP1 SWAP3 AND PUSH1 0x60 DUP3 ADD MSTORE PUSH1 0x80 DUP2 ADD SWAP2 SWAP1 SWAP2 MSTORE PUSH1 0xA0 ADD SWAP1 JUMP JUMPDEST PUSH1 0x20 DUP1 DUP3 MSTORE DUP3 MLOAD DUP3 DUP3 ADD DUP2 SWAP1 MSTORE PUSH1 0x0 SWAP2 SWAP1 PUSH1 0x40 SWAP1 DUP2 DUP6 ADD SWAP1 DUP7 DUP5 ADD DUP6 JUMPDEST DUP3 DUP2 LT ISZERO PUSH2 0xF4A JUMPI DUP2 MLOAD DUP1 MLOAD PUSH1 0x1 PUSH1 0x1 PUSH1 0xA0 SHL SUB SWAP1 DUP2 AND DUP7 MSTORE DUP8 DUP3 ADD MLOAD DUP9 DUP8 ADD MSTORE DUP7 DUP3 ADD MLOAD DUP2 AND DUP8 DUP8 ADD MSTORE PUSH1 0x60 DUP1 DUP4 ADD MLOAD SWAP1 SWAP2 AND SWAP1 DUP7 ADD MSTORE PUSH1 0x80 DUP1 DUP3 ADD MLOAD SWAP1 DUP7 ADD MSTORE PUSH1 0xA0 SWAP1 DUP2 ADD MLOAD ISZERO ISZERO SWAP1 DUP6 ADD MSTORE PUSH1 0xC0 SWAP1 SWAP4 ADD SWAP3 SWAP1 DUP6 ADD SWAP1 PUSH1 0x1 ADD PUSH2 0xEEA JUMP JUMPDEST POP SWAP2 SWAP8 SWAP7 POP POP POP POP POP POP POP JUMP JUMPDEST PUSH1 0x20 DUP1 DUP3 MSTORE PUSH1 0x1F SWAP1 DUP3 ADD MSTORE PUSH32 0x5265656E7472616E637947756172643A207265656E7472616E742063616C6C00 PUSH1 0x40 DUP3 ADD MSTORE PUSH1 0x60 ADD SWAP1 JUMP JUMPDEST PUSH1 0x0 DUP3 NOT DUP3 GT ISZERO PUSH2 0xFA1 JUMPI PUSH2 0xFA1 PUSH2 0xFD8 JUMP JUMPDEST POP ADD SWAP1 JUMP JUMPDEST PUSH1 0x0 DUP3 DUP3 LT ISZERO PUSH2 0xFB8 JUMPI PUSH2 0xFB8 PUSH2 0xFD8 JUMP JUMPDEST POP SUB SWAP1 JUMP JUMPDEST PUSH1 0x0 PUSH1 0x0 NOT DUP3 EQ ISZERO PUSH2 0xFD1 JUMPI PUSH2 0xFD1 PUSH2 0xFD8 JUMP JUMPDEST POP PUSH1 0x1 ADD SWAP1 JUMP JUMPDEST PUSH4 0x4E487B71 PUSH1 0xE0 SHL PUSH1 0x0 MSTORE PUSH1 0x11 PUSH1 0x4 MSTORE PUSH1 0x24 PUSH1 0x0 REVERT JUMPDEST PUSH4 0x4E487B71 PUSH1 0xE0 SHL PUSH1 0x0 MSTORE PUSH1 0x32 PUSH1 0x4 MSTORE PUSH1 0x24 PUSH1 0x0 REVERT JUMPDEST PUSH4 0x4E487B71 PUSH1 0xE0 SHL PUSH1 0x0 MSTORE PUSH1 0x41 PUSH1 0x4 MSTORE PUSH1 0x24 PUSH1 0x0 REVERT INVALID LOG2 PUSH5 0x6970667358 0x22 SLT KECCAK256 0xDC 0xDA 0x4A RETURNDATASIZE BALANCE 0xDA ISZERO SWAP14 PUSH21 0x28654A8B2218461B3E33C84BC63CCC4AB80960572D SELFBALANCE DUP11 PUSH5 0x736F6C6343 STOP ADDMOD SMOD STOP CALLER "
				},
				"gasEstimates": {
					"creation": {
						"codeDepositCost": "835200",
						"executionCost": "91423",
						"totalCost": "926623"
					},
					"external": {
						"LISTING_FEE()": "2340",
						"SELLING_FEE()": "2383",
						"buyNft(address,uint256)": "infinite",
						"getListedNfts()": "infinite",
						"getListingFee()": "2358",
						"getMyListedNfts()": "infinite",
						"getMyNfts()": "infinite",
						"listNft(address,uint256,uint256,bool,bool)": "infinite",
						"resellNft(address,uint256,uint256)": "infinite"
					}
				},
				"methodIdentifiers": {
					"LISTING_FEE()": "2b86ae38",
					"SELLING_FEE()": "cdc66b2c",
					"buyNft(address,uint256)": "4ddf4f8f",
					"getListedNfts()": "8d6cb3fb",
					"getListingFee()": "b8fe6abe",
					"getMyListedNfts()": "1f4cc4db",
					"getMyNfts()": "047b07bf",
					"listNft(address,uint256,uint256,bool,bool)": "33431c0a",
					"resellNft(address,uint256,uint256)": "34f5b624"
				}
			},
			"storageLayout": {
				"storage": [
					{
						"astId": 10,
						"contract": "contracts/Marketplace.sol:Marketplace",
						"label": "_status",
						"offset": 0,
						"slot": "0",
						"type": "t_uint256"
					},
					{
						"astId": 1734,
						"contract": "contracts/Marketplace.sol:Marketplace",
						"label": "_nftsSold",
						"offset": 0,
						"slot": "1",
						"type": "t_struct(Counter)1390_storage"
					},
					{
						"astId": 1737,
						"contract": "contracts/Marketplace.sol:Marketplace",
						"label": "_nftCount",
						"offset": 0,
						"slot": "2",
						"type": "t_struct(Counter)1390_storage"
					},
					{
						"astId": 1740,
						"contract": "contracts/Marketplace.sol:Marketplace",
						"label": "LISTING_FEE",
						"offset": 0,
						"slot": "3",
						"type": "t_uint256"
					},
					{
						"astId": 1743,
						"contract": "contracts/Marketplace.sol:Marketplace",
						"label": "SELLING_FEE",
						"offset": 0,
						"slot": "4",
						"type": "t_uint256"
					},
					{
						"astId": 1745,
						"contract": "contracts/Marketplace.sol:Marketplace",
						"label": "_marketOwner",
						"offset": 0,
						"slot": "5",
						"type": "t_address_payable"
					},
					{
						"astId": 1750,
						"contract": "contracts/Marketplace.sol:Marketplace",
						"label": "_idToNFT",
						"offset": 0,
						"slot": "6",
						"type": "t_mapping(t_uint256,t_struct(NFT)1763_storage)"
					}
				],
				"types": {
					"t_address": {
						"encoding": "inplace",
						"label": "address",
						"numberOfBytes": "20"
					},
					"t_address_payable": {
						"encoding": "inplace",
						"label": "address payable",
						"numberOfBytes": "20"
					},
					"t_bool": {
						"encoding": "inplace",
						"label": "bool",
						"numberOfBytes": "1"
					},
					"t_mapping(t_uint256,t_struct(NFT)1763_storage)": {
						"encoding": "mapping",
						"key": "t_uint256",
						"label": "mapping(uint256 => struct Marketplace.NFT)",
						"numberOfBytes": "32",
						"value": "t_struct(NFT)1763_storage"
					},
					"t_struct(Counter)1390_storage": {
						"encoding": "inplace",
						"label": "struct Counters.Counter",
						"members": [
							{
								"astId": 1389,
								"contract": "contracts/Marketplace.sol:Marketplace",
								"label": "_value",
								"offset": 0,
								"slot": "0",
								"type": "t_uint256"
							}
						],
						"numberOfBytes": "32"
					},
					"t_struct(NFT)1763_storage": {
						"encoding": "inplace",
						"label": "struct Marketplace.NFT",
						"members": [
							{
								"astId": 1752,
								"contract": "contracts/Marketplace.sol:Marketplace",
								"label": "nftContract",
								"offset": 0,
								"slot": "0",
								"type": "t_address"
							},
							{
								"astId": 1754,
								"contract": "contracts/Marketplace.sol:Marketplace",
								"label": "tokenId",
								"offset": 0,
								"slot": "1",
								"type": "t_uint256"
							},
							{
								"astId": 1756,
								"contract": "contracts/Marketplace.sol:Marketplace",
								"label": "seller",
								"offset": 0,
								"slot": "2",
								"type": "t_address_payable"
							},
							{
								"astId": 1758,
								"contract": "contracts/Marketplace.sol:Marketplace",
								"label": "owner",
								"offset": 0,
								"slot": "3",
								"type": "t_address_payable"
							},
							{
								"astId": 1760,
								"contract": "contracts/Marketplace.sol:Marketplace",
								"label": "price",
								"offset": 0,
								"slot": "4",
								"type": "t_uint256"
							},
							{
								"astId": 1762,
								"contract": "contracts/Marketplace.sol:Marketplace",
								"label": "listed",
								"offset": 0,
								"slot": "5",
								"type": "t_bool"
							}
						],
						"numberOfBytes": "192"
					},
					"t_uint256": {
						"encoding": "inplace",
						"label": "uint256",
						"numberOfBytes": "32"
					}
				}
			},
			"userdoc": {
				"kind": "user",
				"methods": {},
				"version": 1
			}
		}
	}
}