{
	"contracts/BalanceHelper.sol": {
		"BalanceHelper": {
			"abi": [
				{
					"inputs": [
						{
							"internalType": "contract IERC20",
							"name": "token",
							"type": "address"
						},
						{
							"internalType": "contract IMasterEntertainer",
							"name": "masterEntertainer",
							"type": "address"
						}
					],
					"stateMutability": "nonpayable",
					"type": "constructor"
				},
				{
					"inputs": [
						{
							"internalType": "uint32[]",
							"name": "vestingDays",
							"type": "uint32[]"
						},
						{
							"internalType": "address[]",
							"name": "userAddresses",
							"type": "address[]"
						}
					],
					"name": "GetStakedBalance",
					"outputs": [
						{
							"components": [
								{
									"internalType": "uint32",
									"name": "VestingDays",
									"type": "uint32"
								},
								{
									"internalType": "uint256",
									"name": "TokenBalance",
									"type": "uint256"
								}
							],
							"internalType": "struct BalanceHelper.Stake[]",
							"name": "",
							"type": "tuple[]"
						}
					],
					"stateMutability": "view",
					"type": "function"
				},
				{
					"inputs": [
						{
							"internalType": "address[]",
							"name": "userAddresses",
							"type": "address[]"
						}
					],
					"name": "getTokenBalanceOf",
					"outputs": [
						{
							"internalType": "uint256",
							"name": "",
							"type": "uint256"
						}
					],
					"stateMutability": "view",
					"type": "function"
				}
			],
			"devdoc": {
				"kind": "dev",
				"methods": {},
				"version": 1
			},
			"evm": {
				"assembly": "    /* \"contracts/BalanceHelper.sol\":336:1790  contract BalanceHelper {\r... */\n  mstore(0x40, 0x80)\n    /* \"contracts/BalanceHelper.sol\":594:740  constructor(IERC20 token, IMasterEntertainer masterEntertainer) {\r... */\n  callvalue\n  dup1\n  iszero\n  tag_1\n  jumpi\n  0x00\n  dup1\n  revert\ntag_1:\n  pop\n  mload(0x40)\n  sub(codesize, bytecodeSize)\n  dup1\n  bytecodeSize\n  dup4\n  codecopy\n  dup2\n  dup2\n  add\n  0x40\n  mstore\n  dup2\n  add\n  swap1\n  tag_2\n  swap2\n  swap1\n  tag_3\n  jump\t// in\ntag_2:\n    /* \"contracts/BalanceHelper.sol\":678:683  token */\n  dup2\n    /* \"contracts/BalanceHelper.sol\":669:675  _token */\n  0x00\n  dup1\n    /* \"contracts/BalanceHelper.sol\":669:683  _token = token */\n  0x0100\n  exp\n  dup2\n  sload\n  dup2\n  0xffffffffffffffffffffffffffffffffffffffff\n  mul\n  not\n  and\n  swap1\n  dup4\n  0xffffffffffffffffffffffffffffffffffffffff\n  and\n  mul\n  or\n  swap1\n  sstore\n  pop\n    /* \"contracts/BalanceHelper.sol\":715:732  masterEntertainer */\n  dup1\n    /* \"contracts/BalanceHelper.sol\":694:712  _masterEntertainer */\n  0x01\n  0x00\n    /* \"contracts/BalanceHelper.sol\":694:732  _masterEntertainer = masterEntertainer */\n  0x0100\n  exp\n  dup2\n  sload\n  dup2\n  0xffffffffffffffffffffffffffffffffffffffff\n  mul\n  not\n  and\n  swap1\n  dup4\n  0xffffffffffffffffffffffffffffffffffffffff\n  and\n  mul\n  or\n  swap1\n  sstore\n  pop\n    /* \"contracts/BalanceHelper.sol\":594:740  constructor(IERC20 token, IMasterEntertainer masterEntertainer) {\r... */\n  pop\n  pop\n    /* \"contracts/BalanceHelper.sol\":336:1790  contract BalanceHelper {\r... */\n  jump(tag_6)\n    /* \"#utility.yul\":7:178   */\ntag_8:\n    /* \"#utility.yul\":78:83   */\n  0x00\n    /* \"#utility.yul\":109:115   */\n  dup2\n    /* \"#utility.yul\":103:116   */\n  mload\n    /* \"#utility.yul\":94:116   */\n  swap1\n  pop\n    /* \"#utility.yul\":125:172   */\n  tag_10\n    /* \"#utility.yul\":166:171   */\n  dup2\n    /* \"#utility.yul\":125:172   */\n  tag_11\n  jump\t// in\ntag_10:\n    /* \"#utility.yul\":7:178   */\n  swap3\n  swap2\n  pop\n  pop\n  jump\t// out\n    /* \"#utility.yul\":184:381   */\ntag_12:\n    /* \"#utility.yul\":268:273   */\n  0x00\n    /* \"#utility.yul\":299:305   */\n  dup2\n    /* \"#utility.yul\":293:306   */\n  mload\n    /* \"#utility.yul\":284:306   */\n  swap1\n  pop\n    /* \"#utility.yul\":315:375   */\n  tag_14\n    /* \"#utility.yul\":369:374   */\n  dup2\n    /* \"#utility.yul\":315:375   */\n  tag_15\n  jump\t// in\ntag_14:\n    /* \"#utility.yul\":184:381   */\n  swap3\n  swap2\n  pop\n  pop\n  jump\t// out\n    /* \"#utility.yul\":387:976   */\ntag_3:\n    /* \"#utility.yul\":507:513   */\n  0x00\n    /* \"#utility.yul\":515:521   */\n  dup1\n    /* \"#utility.yul\":564:566   */\n  0x40\n    /* \"#utility.yul\":552:561   */\n  dup4\n    /* \"#utility.yul\":543:550   */\n  dup6\n    /* \"#utility.yul\":539:562   */\n  sub\n    /* \"#utility.yul\":535:567   */\n  slt\n    /* \"#utility.yul\":532:651   */\n  iszero\n  tag_17\n  jumpi\n    /* \"#utility.yul\":570:649   */\n  tag_18\n  tag_19\n  jump\t// in\ntag_18:\n    /* \"#utility.yul\":532:651   */\ntag_17:\n    /* \"#utility.yul\":690:691   */\n  0x00\n    /* \"#utility.yul\":715:793   */\n  tag_20\n    /* \"#utility.yul\":785:792   */\n  dup6\n    /* \"#utility.yul\":776:782   */\n  dup3\n    /* \"#utility.yul\":765:774   */\n  dup7\n    /* \"#utility.yul\":761:783   */\n  add\n    /* \"#utility.yul\":715:793   */\n  tag_8\n  jump\t// in\ntag_20:\n    /* \"#utility.yul\":705:793   */\n  swap3\n  pop\n    /* \"#utility.yul\":661:803   */\n  pop\n    /* \"#utility.yul\":842:844   */\n  0x20\n    /* \"#utility.yul\":868:959   */\n  tag_21\n    /* \"#utility.yul\":951:958   */\n  dup6\n    /* \"#utility.yul\":942:948   */\n  dup3\n    /* \"#utility.yul\":931:940   */\n  dup7\n    /* \"#utility.yul\":927:949   */\n  add\n    /* \"#utility.yul\":868:959   */\n  tag_12\n  jump\t// in\ntag_21:\n    /* \"#utility.yul\":858:959   */\n  swap2\n  pop\n    /* \"#utility.yul\":813:969   */\n  pop\n    /* \"#utility.yul\":387:976   */\n  swap3\n  pop\n  swap3\n  swap1\n  pop\n  jump\t// out\n    /* \"#utility.yul\":1063:1159   */\ntag_24:\n    /* \"#utility.yul\":1100:1107   */\n  0x00\n    /* \"#utility.yul\":1129:1153   */\n  tag_26\n    /* \"#utility.yul\":1147:1152   */\n  dup3\n    /* \"#utility.yul\":1129:1153   */\n  tag_27\n  jump\t// in\ntag_26:\n    /* \"#utility.yul\":1118:1153   */\n  swap1\n  pop\n    /* \"#utility.yul\":1063:1159   */\n  swap2\n  swap1\n  pop\n  jump\t// out\n    /* \"#utility.yul\":1165:1275   */\ntag_28:\n    /* \"#utility.yul\":1216:1223   */\n  0x00\n    /* \"#utility.yul\":1245:1269   */\n  tag_30\n    /* \"#utility.yul\":1263:1268   */\n  dup3\n    /* \"#utility.yul\":1245:1269   */\n  tag_24\n  jump\t// in\ntag_30:\n    /* \"#utility.yul\":1234:1269   */\n  swap1\n  pop\n    /* \"#utility.yul\":1165:1275   */\n  swap2\n  swap1\n  pop\n  jump\t// out\n    /* \"#utility.yul\":1281:1404   */\ntag_31:\n    /* \"#utility.yul\":1345:1352   */\n  0x00\n    /* \"#utility.yul\":1374:1398   */\n  tag_33\n    /* \"#utility.yul\":1392:1397   */\n  dup3\n    /* \"#utility.yul\":1374:1398   */\n  tag_24\n  jump\t// in\ntag_33:\n    /* \"#utility.yul\":1363:1398   */\n  swap1\n  pop\n    /* \"#utility.yul\":1281:1404   */\n  swap2\n  swap1\n  pop\n  jump\t// out\n    /* \"#utility.yul\":1410:1536   */\ntag_27:\n    /* \"#utility.yul\":1447:1454   */\n  0x00\n    /* \"#utility.yul\":1487:1529   */\n  0xffffffffffffffffffffffffffffffffffffffff\n    /* \"#utility.yul\":1480:1485   */\n  dup3\n    /* \"#utility.yul\":1476:1530   */\n  and\n    /* \"#utility.yul\":1465:1530   */\n  swap1\n  pop\n    /* \"#utility.yul\":1410:1536   */\n  swap2\n  swap1\n  pop\n  jump\t// out\n    /* \"#utility.yul\":1665:1782   */\ntag_19:\n    /* \"#utility.yul\":1774:1775   */\n  0x00\n    /* \"#utility.yul\":1771:1772   */\n  dup1\n    /* \"#utility.yul\":1764:1776   */\n  revert\n    /* \"#utility.yul\":1788:1938   */\ntag_11:\n    /* \"#utility.yul\":1875:1913   */\n  tag_39\n    /* \"#utility.yul\":1907:1912   */\n  dup2\n    /* \"#utility.yul\":1875:1913   */\n  tag_28\n  jump\t// in\ntag_39:\n    /* \"#utility.yul\":1868:1873   */\n  dup2\n    /* \"#utility.yul\":1865:1914   */\n  eq\n    /* \"#utility.yul\":1855:1932   */\n  tag_40\n  jumpi\n    /* \"#utility.yul\":1928:1929   */\n  0x00\n    /* \"#utility.yul\":1925:1926   */\n  dup1\n    /* \"#utility.yul\":1918:1930   */\n  revert\n    /* \"#utility.yul\":1855:1932   */\ntag_40:\n    /* \"#utility.yul\":1788:1938   */\n  pop\n  jump\t// out\n    /* \"#utility.yul\":1944:2120   */\ntag_15:\n    /* \"#utility.yul\":2044:2095   */\n  tag_42\n    /* \"#utility.yul\":2089:2094   */\n  dup2\n    /* \"#utility.yul\":2044:2095   */\n  tag_31\n  jump\t// in\ntag_42:\n    /* \"#utility.yul\":2037:2042   */\n  dup2\n    /* \"#utility.yul\":2034:2096   */\n  eq\n    /* \"#utility.yul\":2024:2114   */\n  tag_43\n  jumpi\n    /* \"#utility.yul\":2110:2111   */\n  0x00\n    /* \"#utility.yul\":2107:2108   */\n  dup1\n    /* \"#utility.yul\":2100:2112   */\n  revert\n    /* \"#utility.yul\":2024:2114   */\ntag_43:\n    /* \"#utility.yul\":1944:2120   */\n  pop\n  jump\t// out\n    /* \"contracts/BalanceHelper.sol\":336:1790  contract BalanceHelper {\r... */\ntag_6:\n  dataSize(sub_0)\n  dup1\n  dataOffset(sub_0)\n  0x00\n  codecopy\n  0x00\n  return\nstop\n\nsub_0: assembly {\n        /* \"contracts/BalanceHelper.sol\":336:1790  contract BalanceHelper {\r... */\n      mstore(0x40, 0x80)\n      callvalue\n      dup1\n      iszero\n      tag_1\n      jumpi\n      0x00\n      dup1\n      revert\n    tag_1:\n      pop\n      jumpi(tag_2, lt(calldatasize, 0x04))\n      shr(0xe0, calldataload(0x00))\n      dup1\n      0x0a5f75b6\n      eq\n      tag_3\n      jumpi\n      dup1\n      0x77969091\n      eq\n      tag_4\n      jumpi\n    tag_2:\n      0x00\n      dup1\n      revert\n        /* \"contracts/BalanceHelper.sol\":748:1071  function getTokenBalanceOf(address[] memory userAddresses) public view returns(uint256) {\r... */\n    tag_3:\n      tag_5\n      0x04\n      dup1\n      calldatasize\n      sub\n      dup2\n      add\n      swap1\n      tag_6\n      swap2\n      swap1\n      tag_7\n      jump\t// in\n    tag_6:\n      tag_8\n      jump\t// in\n    tag_5:\n      mload(0x40)\n      tag_9\n      swap2\n      swap1\n      tag_10\n      jump\t// in\n    tag_9:\n      mload(0x40)\n      dup1\n      swap2\n      sub\n      swap1\n      return\n        /* \"contracts/BalanceHelper.sol\":1079:1779  function GetStakedBalance(uint32[] memory vestingDays, address[] memory userAddresses) public view returns(Stake[] memory) {\r... */\n    tag_4:\n      tag_11\n      0x04\n      dup1\n      calldatasize\n      sub\n      dup2\n      add\n      swap1\n      tag_12\n      swap2\n      swap1\n      tag_13\n      jump\t// in\n    tag_12:\n      tag_14\n      jump\t// in\n    tag_11:\n      mload(0x40)\n      tag_15\n      swap2\n      swap1\n      tag_16\n      jump\t// in\n    tag_15:\n      mload(0x40)\n      dup1\n      swap2\n      sub\n      swap1\n      return\n        /* \"contracts/BalanceHelper.sol\":748:1071  function getTokenBalanceOf(address[] memory userAddresses) public view returns(uint256) {\r... */\n    tag_8:\n        /* \"contracts/BalanceHelper.sol\":827:834  uint256 */\n      0x00\n        /* \"contracts/BalanceHelper.sol\":847:867  uint256 tokenBalance */\n      dup1\n        /* \"contracts/BalanceHelper.sol\":870:871  0 */\n      0x00\n        /* \"contracts/BalanceHelper.sol\":847:871  uint256 tokenBalance = 0 */\n      swap1\n      pop\n        /* \"contracts/BalanceHelper.sol\":887:893  uint i */\n      0x00\n        /* \"contracts/BalanceHelper.sol\":882:1034  for (uint i = 0; i < userAddresses.length; i++) \r... */\n    tag_18:\n        /* \"contracts/BalanceHelper.sol\":903:916  userAddresses */\n      dup4\n        /* \"contracts/BalanceHelper.sol\":903:923  userAddresses.length */\n      mload\n        /* \"contracts/BalanceHelper.sol\":899:900  i */\n      dup2\n        /* \"contracts/BalanceHelper.sol\":899:923  i < userAddresses.length */\n      lt\n        /* \"contracts/BalanceHelper.sol\":882:1034  for (uint i = 0; i < userAddresses.length; i++) \r... */\n      iszero\n      tag_19\n      jumpi\n        /* \"contracts/BalanceHelper.sol\":970:1022  tokenBalance.add(_token.balanceOf(userAddresses[i])) */\n      tag_21\n        /* \"contracts/BalanceHelper.sol\":987:993  _token */\n      0x00\n      dup1\n      sload\n      swap1\n      0x0100\n      exp\n      swap1\n      div\n      0xffffffffffffffffffffffffffffffffffffffff\n      and\n        /* \"contracts/BalanceHelper.sol\":987:1003  _token.balanceOf */\n      0xffffffffffffffffffffffffffffffffffffffff\n      and\n      0x70a08231\n        /* \"contracts/BalanceHelper.sol\":1004:1017  userAddresses */\n      dup7\n        /* \"contracts/BalanceHelper.sol\":1018:1019  i */\n      dup5\n        /* \"contracts/BalanceHelper.sol\":1004:1020  userAddresses[i] */\n      dup2\n      mload\n      dup2\n      lt\n      tag_22\n      jumpi\n      tag_23\n      tag_24\n      jump\t// in\n    tag_23:\n    tag_22:\n      0x20\n      mul\n      0x20\n      add\n      add\n      mload\n        /* \"contracts/BalanceHelper.sol\":987:1021  _token.balanceOf(userAddresses[i]) */\n      mload(0x40)\n      dup3\n      0xffffffff\n      and\n      0xe0\n      shl\n      dup2\n      mstore\n      0x04\n      add\n      tag_25\n      swap2\n      swap1\n      tag_26\n      jump\t// in\n    tag_25:\n      0x20\n      mload(0x40)\n      dup1\n      dup4\n      sub\n      dup2\n      dup7\n      dup1\n      extcodesize\n      iszero\n      dup1\n      iszero\n      tag_27\n      jumpi\n      0x00\n      dup1\n      revert\n    tag_27:\n      pop\n      gas\n      staticcall\n      iszero\n      dup1\n      iszero\n      tag_29\n      jumpi\n      returndatasize\n      0x00\n      dup1\n      returndatacopy\n      revert(0x00, returndatasize)\n    tag_29:\n      pop\n      pop\n      pop\n      pop\n      mload(0x40)\n      returndatasize\n      not(0x1f)\n      0x1f\n      dup3\n      add\n      and\n      dup3\n      add\n      dup1\n      0x40\n      mstore\n      pop\n      dup2\n      add\n      swap1\n      tag_30\n      swap2\n      swap1\n      tag_31\n      jump\t// in\n    tag_30:\n        /* \"contracts/BalanceHelper.sol\":970:982  tokenBalance */\n      dup4\n        /* \"contracts/BalanceHelper.sol\":970:986  tokenBalance.add */\n      tag_32\n      swap1\n        /* \"contracts/BalanceHelper.sol\":970:1022  tokenBalance.add(_token.balanceOf(userAddresses[i])) */\n      swap2\n      swap1\n      0xffffffff\n      and\n      jump\t// in\n    tag_21:\n        /* \"contracts/BalanceHelper.sol\":955:1022  tokenBalance = tokenBalance.add(_token.balanceOf(userAddresses[i])) */\n      swap2\n      pop\n        /* \"contracts/BalanceHelper.sol\":925:928  i++ */\n      dup1\n      dup1\n      tag_33\n      swap1\n      tag_34\n      jump\t// in\n    tag_33:\n      swap2\n      pop\n      pop\n        /* \"contracts/BalanceHelper.sol\":882:1034  for (uint i = 0; i < userAddresses.length; i++) \r... */\n      jump(tag_18)\n    tag_19:\n      pop\n        /* \"contracts/BalanceHelper.sol\":1051:1063  tokenBalance */\n      dup1\n        /* \"contracts/BalanceHelper.sol\":1044:1063  return tokenBalance */\n      swap2\n      pop\n      pop\n        /* \"contracts/BalanceHelper.sol\":748:1071  function getTokenBalanceOf(address[] memory userAddresses) public view returns(uint256) {\r... */\n      swap2\n      swap1\n      pop\n      jump\t// out\n        /* \"contracts/BalanceHelper.sol\":1079:1779  function GetStakedBalance(uint32[] memory vestingDays, address[] memory userAddresses) public view returns(Stake[] memory) {\r... */\n    tag_14:\n        /* \"contracts/BalanceHelper.sol\":1186:1200  Stake[] memory */\n      0x60\n        /* \"contracts/BalanceHelper.sol\":1213:1234  Stake[] memory stakes */\n      0x00\n        /* \"contracts/BalanceHelper.sol\":1249:1260  vestingDays */\n      dup4\n        /* \"contracts/BalanceHelper.sol\":1249:1267  vestingDays.length */\n      mload\n        /* \"contracts/BalanceHelper.sol\":1237:1268  new Stake[](vestingDays.length) */\n      0xffffffffffffffff\n      dup2\n      gt\n      iszero\n      tag_36\n      jumpi\n      tag_37\n      tag_38\n      jump\t// in\n    tag_37:\n    tag_36:\n      mload(0x40)\n      swap1\n      dup1\n      dup3\n      mstore\n      dup1\n      0x20\n      mul\n      0x20\n      add\n      dup3\n      add\n      0x40\n      mstore\n      dup1\n      iszero\n      tag_39\n      jumpi\n      dup2\n      0x20\n      add\n    tag_40:\n      tag_41\n      tag_42\n      jump\t// in\n    tag_41:\n      dup2\n      mstore\n      0x20\n      add\n      swap1\n      0x01\n      swap1\n      sub\n      swap1\n      dup2\n      tag_40\n      jumpi\n      swap1\n      pop\n    tag_39:\n      pop\n        /* \"contracts/BalanceHelper.sol\":1213:1268  Stake[] memory stakes = new Stake[](vestingDays.length) */\n      swap1\n      pop\n        /* \"contracts/BalanceHelper.sol\":1284:1290  uint i */\n      0x00\n        /* \"contracts/BalanceHelper.sol\":1279:1441  for (uint i = 0; i < vestingDays.length; i++) \r... */\n    tag_43:\n        /* \"contracts/BalanceHelper.sol\":1300:1311  vestingDays */\n      dup5\n        /* \"contracts/BalanceHelper.sol\":1300:1318  vestingDays.length */\n      mload\n        /* \"contracts/BalanceHelper.sol\":1296:1297  i */\n      dup2\n        /* \"contracts/BalanceHelper.sol\":1296:1318  i < vestingDays.length */\n      lt\n        /* \"contracts/BalanceHelper.sol\":1279:1441  for (uint i = 0; i < vestingDays.length; i++) \r... */\n      iszero\n      tag_44\n      jumpi\n        /* \"contracts/BalanceHelper.sol\":1374:1385  vestingDays */\n      dup5\n        /* \"contracts/BalanceHelper.sol\":1386:1387  i */\n      dup2\n        /* \"contracts/BalanceHelper.sol\":1374:1388  vestingDays[i] */\n      dup2\n      mload\n      dup2\n      lt\n      tag_46\n      jumpi\n      tag_47\n      tag_24\n      jump\t// in\n    tag_47:\n    tag_46:\n      0x20\n      mul\n      0x20\n      add\n      add\n      mload\n        /* \"contracts/BalanceHelper.sol\":1350:1356  stakes */\n      dup3\n        /* \"contracts/BalanceHelper.sol\":1357:1358  i */\n      dup3\n        /* \"contracts/BalanceHelper.sol\":1350:1359  stakes[i] */\n      dup2\n      mload\n      dup2\n      lt\n      tag_48\n      jumpi\n      tag_49\n      tag_24\n      jump\t// in\n    tag_49:\n    tag_48:\n      0x20\n      mul\n      0x20\n      add\n      add\n      mload\n        /* \"contracts/BalanceHelper.sol\":1350:1371  stakes[i].VestingDays */\n      0x00\n      add\n        /* \"contracts/BalanceHelper.sol\":1350:1388  stakes[i].VestingDays = vestingDays[i] */\n      swap1\n      0xffffffff\n      and\n      swap1\n      dup2\n      0xffffffff\n      and\n      dup2\n      mstore\n      pop\n      pop\n        /* \"contracts/BalanceHelper.sol\":1428:1429  0 */\n      0x00\n        /* \"contracts/BalanceHelper.sol\":1403:1409  stakes */\n      dup3\n        /* \"contracts/BalanceHelper.sol\":1410:1411  i */\n      dup3\n        /* \"contracts/BalanceHelper.sol\":1403:1412  stakes[i] */\n      dup2\n      mload\n      dup2\n      lt\n      tag_50\n      jumpi\n      tag_51\n      tag_24\n      jump\t// in\n    tag_51:\n    tag_50:\n      0x20\n      mul\n      0x20\n      add\n      add\n      mload\n        /* \"contracts/BalanceHelper.sol\":1403:1425  stakes[i].TokenBalance */\n      0x20\n      add\n        /* \"contracts/BalanceHelper.sol\":1403:1429  stakes[i].TokenBalance = 0 */\n      dup2\n      dup2\n      mstore\n      pop\n      pop\n        /* \"contracts/BalanceHelper.sol\":1320:1323  i++ */\n      dup1\n      dup1\n      tag_52\n      swap1\n      tag_34\n      jump\t// in\n    tag_52:\n      swap2\n      pop\n      pop\n        /* \"contracts/BalanceHelper.sol\":1279:1441  for (uint i = 0; i < vestingDays.length; i++) \r... */\n      jump(tag_43)\n    tag_44:\n      pop\n        /* \"contracts/BalanceHelper.sol\":1456:1462  uint i */\n      0x00\n        /* \"contracts/BalanceHelper.sol\":1451:1748  for (uint i = 0; i < userAddresses.length; i++) \r... */\n    tag_53:\n        /* \"contracts/BalanceHelper.sol\":1472:1485  userAddresses */\n      dup4\n        /* \"contracts/BalanceHelper.sol\":1472:1492  userAddresses.length */\n      mload\n        /* \"contracts/BalanceHelper.sol\":1468:1469  i */\n      dup2\n        /* \"contracts/BalanceHelper.sol\":1468:1492  i < userAddresses.length */\n      lt\n        /* \"contracts/BalanceHelper.sol\":1451:1748  for (uint i = 0; i < userAddresses.length; i++) \r... */\n      iszero\n      tag_54\n      jumpi\n        /* \"contracts/BalanceHelper.sol\":1529:1535  uint z */\n      0x00\n        /* \"contracts/BalanceHelper.sol\":1524:1737  for (uint z = 0; z < vestingDays.length; z++) \r... */\n    tag_56:\n        /* \"contracts/BalanceHelper.sol\":1545:1556  vestingDays */\n      dup6\n        /* \"contracts/BalanceHelper.sol\":1545:1563  vestingDays.length */\n      mload\n        /* \"contracts/BalanceHelper.sol\":1541:1542  z */\n      dup2\n        /* \"contracts/BalanceHelper.sol\":1541:1563  z < vestingDays.length */\n      lt\n        /* \"contracts/BalanceHelper.sol\":1524:1737  for (uint z = 0; z < vestingDays.length; z++) \r... */\n      iszero\n      tag_57\n      jumpi\n        /* \"contracts/BalanceHelper.sol\":1628:1721  stakes[z].TokenBalance.add(_masterEntertainer.getBalanceOf(userAddresses[i], vestingDays[z])) */\n      tag_59\n        /* \"contracts/BalanceHelper.sol\":1655:1673  _masterEntertainer */\n      0x01\n      0x00\n      swap1\n      sload\n      swap1\n      0x0100\n      exp\n      swap1\n      div\n      0xffffffffffffffffffffffffffffffffffffffff\n      and\n        /* \"contracts/BalanceHelper.sol\":1655:1686  _masterEntertainer.getBalanceOf */\n      0xffffffffffffffffffffffffffffffffffffffff\n      and\n      0x94d45b59\n        /* \"contracts/BalanceHelper.sol\":1687:1700  userAddresses */\n      dup8\n        /* \"contracts/BalanceHelper.sol\":1701:1702  i */\n      dup6\n        /* \"contracts/BalanceHelper.sol\":1687:1703  userAddresses[i] */\n      dup2\n      mload\n      dup2\n      lt\n      tag_60\n      jumpi\n      tag_61\n      tag_24\n      jump\t// in\n    tag_61:\n    tag_60:\n      0x20\n      mul\n      0x20\n      add\n      add\n      mload\n        /* \"contracts/BalanceHelper.sol\":1705:1716  vestingDays */\n      dup10\n        /* \"contracts/BalanceHelper.sol\":1717:1718  z */\n      dup6\n        /* \"contracts/BalanceHelper.sol\":1705:1719  vestingDays[z] */\n      dup2\n      mload\n      dup2\n      lt\n      tag_62\n      jumpi\n      tag_63\n      tag_24\n      jump\t// in\n    tag_63:\n    tag_62:\n      0x20\n      mul\n      0x20\n      add\n      add\n      mload\n        /* \"contracts/BalanceHelper.sol\":1655:1720  _masterEntertainer.getBalanceOf(userAddresses[i], vestingDays[z]) */\n      mload(0x40)\n      dup4\n      0xffffffff\n      and\n      0xe0\n      shl\n      dup2\n      mstore\n      0x04\n      add\n      tag_64\n      swap3\n      swap2\n      swap1\n      tag_65\n      jump\t// in\n    tag_64:\n      0x20\n      mload(0x40)\n      dup1\n      dup4\n      sub\n      dup2\n      dup7\n      dup1\n      extcodesize\n      iszero\n      dup1\n      iszero\n      tag_66\n      jumpi\n      0x00\n      dup1\n      revert\n    tag_66:\n      pop\n      gas\n      staticcall\n      iszero\n      dup1\n      iszero\n      tag_68\n      jumpi\n      returndatasize\n      0x00\n      dup1\n      returndatacopy\n      revert(0x00, returndatasize)\n    tag_68:\n      pop\n      pop\n      pop\n      pop\n      mload(0x40)\n      returndatasize\n      not(0x1f)\n      0x1f\n      dup3\n      add\n      and\n      dup3\n      add\n      dup1\n      0x40\n      mstore\n      pop\n      dup2\n      add\n      swap1\n      tag_69\n      swap2\n      swap1\n      tag_31\n      jump\t// in\n    tag_69:\n        /* \"contracts/BalanceHelper.sol\":1628:1634  stakes */\n      dup5\n        /* \"contracts/BalanceHelper.sol\":1635:1636  z */\n      dup4\n        /* \"contracts/BalanceHelper.sol\":1628:1637  stakes[z] */\n      dup2\n      mload\n      dup2\n      lt\n      tag_70\n      jumpi\n      tag_71\n      tag_24\n      jump\t// in\n    tag_71:\n    tag_70:\n      0x20\n      mul\n      0x20\n      add\n      add\n      mload\n        /* \"contracts/BalanceHelper.sol\":1628:1650  stakes[z].TokenBalance */\n      0x20\n      add\n      mload\n        /* \"contracts/BalanceHelper.sol\":1628:1654  stakes[z].TokenBalance.add */\n      tag_32\n      swap1\n        /* \"contracts/BalanceHelper.sol\":1628:1721  stakes[z].TokenBalance.add(_masterEntertainer.getBalanceOf(userAddresses[i], vestingDays[z])) */\n      swap2\n      swap1\n      0xffffffff\n      and\n      jump\t// in\n    tag_59:\n        /* \"contracts/BalanceHelper.sol\":1603:1609  stakes */\n      dup4\n        /* \"contracts/BalanceHelper.sol\":1610:1611  z */\n      dup3\n        /* \"contracts/BalanceHelper.sol\":1603:1612  stakes[z] */\n      dup2\n      mload\n      dup2\n      lt\n      tag_72\n      jumpi\n      tag_73\n      tag_24\n      jump\t// in\n    tag_73:\n    tag_72:\n      0x20\n      mul\n      0x20\n      add\n      add\n      mload\n        /* \"contracts/BalanceHelper.sol\":1603:1625  stakes[z].TokenBalance */\n      0x20\n      add\n        /* \"contracts/BalanceHelper.sol\":1603:1721  stakes[z].TokenBalance = stakes[z].TokenBalance.add(_masterEntertainer.getBalanceOf(userAddresses[i], vestingDays[z])) */\n      dup2\n      dup2\n      mstore\n      pop\n      pop\n        /* \"contracts/BalanceHelper.sol\":1565:1568  z++ */\n      dup1\n      dup1\n      tag_74\n      swap1\n      tag_34\n      jump\t// in\n    tag_74:\n      swap2\n      pop\n      pop\n        /* \"contracts/BalanceHelper.sol\":1524:1737  for (uint z = 0; z < vestingDays.length; z++) \r... */\n      jump(tag_56)\n    tag_57:\n      pop\n        /* \"contracts/BalanceHelper.sol\":1494:1497  i++ */\n      dup1\n      dup1\n      tag_75\n      swap1\n      tag_34\n      jump\t// in\n    tag_75:\n      swap2\n      pop\n      pop\n        /* \"contracts/BalanceHelper.sol\":1451:1748  for (uint i = 0; i < userAddresses.length; i++) \r... */\n      jump(tag_53)\n    tag_54:\n      pop\n        /* \"contracts/BalanceHelper.sol\":1765:1771  stakes */\n      dup1\n        /* \"contracts/BalanceHelper.sol\":1758:1771  return stakes */\n      swap2\n      pop\n      pop\n        /* \"contracts/BalanceHelper.sol\":1079:1779  function GetStakedBalance(uint32[] memory vestingDays, address[] memory userAddresses) public view returns(Stake[] memory) {\r... */\n      swap3\n      swap2\n      pop\n      pop\n      jump\t// out\n        /* \"@openzeppelin/contracts/utils/math/SafeMath.sol\":2672:2768  function add(uint256 a, uint256 b) internal pure returns (uint256) {... */\n    tag_32:\n        /* \"@openzeppelin/contracts/utils/math/SafeMath.sol\":2730:2737  uint256 */\n      0x00\n        /* \"@openzeppelin/contracts/utils/math/SafeMath.sol\":2760:2761  b */\n      dup2\n        /* \"@openzeppelin/contracts/utils/math/SafeMath.sol\":2756:2757  a */\n      dup4\n        /* \"@openzeppelin/contracts/utils/math/SafeMath.sol\":2756:2761  a + b */\n      tag_77\n      swap2\n      swap1\n      tag_78\n      jump\t// in\n    tag_77:\n        /* \"@openzeppelin/contracts/utils/math/SafeMath.sol\":2749:2761  return a + b */\n      swap1\n      pop\n        /* \"@openzeppelin/contracts/utils/math/SafeMath.sol\":2672:2768  function add(uint256 a, uint256 b) internal pure returns (uint256) {... */\n      swap3\n      swap2\n      pop\n      pop\n      jump\t// out\n    tag_42:\n      mload(0x40)\n      dup1\n      0x40\n      add\n      0x40\n      mstore\n      dup1\n      and(0xffffffff, 0x00)\n      dup2\n      mstore\n      0x20\n      add\n      0x00\n      dup2\n      mstore\n      pop\n      swap1\n      jump\t// out\n        /* \"#utility.yul\":24:746   */\n    tag_80:\n        /* \"#utility.yul\":120:125   */\n      0x00\n        /* \"#utility.yul\":145:226   */\n      tag_82\n        /* \"#utility.yul\":161:225   */\n      tag_83\n        /* \"#utility.yul\":218:224   */\n      dup5\n        /* \"#utility.yul\":161:225   */\n      tag_84\n      jump\t// in\n    tag_83:\n        /* \"#utility.yul\":145:226   */\n      tag_85\n      jump\t// in\n    tag_82:\n        /* \"#utility.yul\":136:226   */\n      swap1\n      pop\n        /* \"#utility.yul\":246:251   */\n      dup1\n        /* \"#utility.yul\":275:281   */\n      dup4\n        /* \"#utility.yul\":268:273   */\n      dup3\n        /* \"#utility.yul\":261:282   */\n      mstore\n        /* \"#utility.yul\":309:313   */\n      0x20\n        /* \"#utility.yul\":302:307   */\n      dup3\n        /* \"#utility.yul\":298:314   */\n      add\n        /* \"#utility.yul\":291:314   */\n      swap1\n      pop\n        /* \"#utility.yul\":335:341   */\n      dup3\n        /* \"#utility.yul\":385:388   */\n      dup6\n        /* \"#utility.yul\":377:381   */\n      0x20\n        /* \"#utility.yul\":369:375   */\n      dup7\n        /* \"#utility.yul\":365:382   */\n      mul\n        /* \"#utility.yul\":360:363   */\n      dup3\n        /* \"#utility.yul\":356:383   */\n      add\n        /* \"#utility.yul\":353:389   */\n      gt\n        /* \"#utility.yul\":350:493   */\n      iszero\n      tag_86\n      jumpi\n        /* \"#utility.yul\":404:483   */\n      tag_87\n      tag_88\n      jump\t// in\n    tag_87:\n        /* \"#utility.yul\":350:493   */\n    tag_86:\n        /* \"#utility.yul\":517:518   */\n      0x00\n        /* \"#utility.yul\":502:740   */\n    tag_89:\n        /* \"#utility.yul\":527:533   */\n      dup6\n        /* \"#utility.yul\":524:525   */\n      dup2\n        /* \"#utility.yul\":521:534   */\n      lt\n        /* \"#utility.yul\":502:740   */\n      iszero\n      tag_91\n      jumpi\n        /* \"#utility.yul\":595:598   */\n      dup2\n        /* \"#utility.yul\":624:661   */\n      tag_92\n        /* \"#utility.yul\":657:660   */\n      dup9\n        /* \"#utility.yul\":645:655   */\n      dup3\n        /* \"#utility.yul\":624:661   */\n      tag_93\n      jump\t// in\n    tag_92:\n        /* \"#utility.yul\":619:622   */\n      dup5\n        /* \"#utility.yul\":612:662   */\n      mstore\n        /* \"#utility.yul\":691:695   */\n      0x20\n        /* \"#utility.yul\":686:689   */\n      dup5\n        /* \"#utility.yul\":682:696   */\n      add\n        /* \"#utility.yul\":675:696   */\n      swap4\n      pop\n        /* \"#utility.yul\":725:729   */\n      0x20\n        /* \"#utility.yul\":720:723   */\n      dup4\n        /* \"#utility.yul\":716:730   */\n      add\n        /* \"#utility.yul\":709:730   */\n      swap3\n      pop\n        /* \"#utility.yul\":562:740   */\n      pop\n        /* \"#utility.yul\":549:550   */\n      0x01\n        /* \"#utility.yul\":546:547   */\n      dup2\n        /* \"#utility.yul\":542:551   */\n      add\n        /* \"#utility.yul\":537:551   */\n      swap1\n      pop\n        /* \"#utility.yul\":502:740   */\n      jump(tag_89)\n    tag_91:\n        /* \"#utility.yul\":506:520   */\n      pop\n        /* \"#utility.yul\":126:746   */\n      pop\n      pop\n        /* \"#utility.yul\":24:746   */\n      swap4\n      swap3\n      pop\n      pop\n      pop\n      jump\t// out\n        /* \"#utility.yul\":768:1487   */\n    tag_94:\n        /* \"#utility.yul\":863:868   */\n      0x00\n        /* \"#utility.yul\":888:968   */\n      tag_96\n        /* \"#utility.yul\":904:967   */\n      tag_97\n        /* \"#utility.yul\":960:966   */\n      dup5\n        /* \"#utility.yul\":904:967   */\n      tag_98\n      jump\t// in\n    tag_97:\n        /* \"#utility.yul\":888:968   */\n      tag_85\n      jump\t// in\n    tag_96:\n        /* \"#utility.yul\":879:968   */\n      swap1\n      pop\n        /* \"#utility.yul\":988:993   */\n      dup1\n        /* \"#utility.yul\":1017:1023   */\n      dup4\n        /* \"#utility.yul\":1010:1015   */\n      dup3\n        /* \"#utility.yul\":1003:1024   */\n      mstore\n        /* \"#utility.yul\":1051:1055   */\n      0x20\n        /* \"#utility.yul\":1044:1049   */\n      dup3\n        /* \"#utility.yul\":1040:1056   */\n      add\n        /* \"#utility.yul\":1033:1056   */\n      swap1\n      pop\n        /* \"#utility.yul\":1077:1083   */\n      dup3\n        /* \"#utility.yul\":1127:1130   */\n      dup6\n        /* \"#utility.yul\":1119:1123   */\n      0x20\n        /* \"#utility.yul\":1111:1117   */\n      dup7\n        /* \"#utility.yul\":1107:1124   */\n      mul\n        /* \"#utility.yul\":1102:1105   */\n      dup3\n        /* \"#utility.yul\":1098:1125   */\n      add\n        /* \"#utility.yul\":1095:1131   */\n      gt\n        /* \"#utility.yul\":1092:1235   */\n      iszero\n      tag_99\n      jumpi\n        /* \"#utility.yul\":1146:1225   */\n      tag_100\n      tag_88\n      jump\t// in\n    tag_100:\n        /* \"#utility.yul\":1092:1235   */\n    tag_99:\n        /* \"#utility.yul\":1259:1260   */\n      0x00\n        /* \"#utility.yul\":1244:1481   */\n    tag_101:\n        /* \"#utility.yul\":1269:1275   */\n      dup6\n        /* \"#utility.yul\":1266:1267   */\n      dup2\n        /* \"#utility.yul\":1263:1276   */\n      lt\n        /* \"#utility.yul\":1244:1481   */\n      iszero\n      tag_103\n      jumpi\n        /* \"#utility.yul\":1337:1340   */\n      dup2\n        /* \"#utility.yul\":1366:1402   */\n      tag_104\n        /* \"#utility.yul\":1398:1401   */\n      dup9\n        /* \"#utility.yul\":1386:1396   */\n      dup3\n        /* \"#utility.yul\":1366:1402   */\n      tag_105\n      jump\t// in\n    tag_104:\n        /* \"#utility.yul\":1361:1364   */\n      dup5\n        /* \"#utility.yul\":1354:1403   */\n      mstore\n        /* \"#utility.yul\":1432:1436   */\n      0x20\n        /* \"#utility.yul\":1427:1430   */\n      dup5\n        /* \"#utility.yul\":1423:1437   */\n      add\n        /* \"#utility.yul\":1416:1437   */\n      swap4\n      pop\n        /* \"#utility.yul\":1466:1470   */\n      0x20\n        /* \"#utility.yul\":1461:1464   */\n      dup4\n        /* \"#utility.yul\":1457:1471   */\n      add\n        /* \"#utility.yul\":1450:1471   */\n      swap3\n      pop\n        /* \"#utility.yul\":1304:1481   */\n      pop\n        /* \"#utility.yul\":1291:1292   */\n      0x01\n        /* \"#utility.yul\":1288:1289   */\n      dup2\n        /* \"#utility.yul\":1284:1293   */\n      add\n        /* \"#utility.yul\":1279:1293   */\n      swap1\n      pop\n        /* \"#utility.yul\":1244:1481   */\n      jump(tag_101)\n    tag_103:\n        /* \"#utility.yul\":1248:1262   */\n      pop\n        /* \"#utility.yul\":869:1487   */\n      pop\n      pop\n        /* \"#utility.yul\":768:1487   */\n      swap4\n      swap3\n      pop\n      pop\n      pop\n      jump\t// out\n        /* \"#utility.yul\":1493:1632   */\n    tag_93:\n        /* \"#utility.yul\":1539:1544   */\n      0x00\n        /* \"#utility.yul\":1577:1583   */\n      dup2\n        /* \"#utility.yul\":1564:1584   */\n      calldataload\n        /* \"#utility.yul\":1555:1584   */\n      swap1\n      pop\n        /* \"#utility.yul\":1593:1626   */\n      tag_107\n        /* \"#utility.yul\":1620:1625   */\n      dup2\n        /* \"#utility.yul\":1593:1626   */\n      tag_108\n      jump\t// in\n    tag_107:\n        /* \"#utility.yul\":1493:1632   */\n      swap3\n      swap2\n      pop\n      pop\n      jump\t// out\n        /* \"#utility.yul\":1655:2025   */\n    tag_109:\n        /* \"#utility.yul\":1726:1731   */\n      0x00\n        /* \"#utility.yul\":1775:1778   */\n      dup3\n        /* \"#utility.yul\":1768:1772   */\n      0x1f\n        /* \"#utility.yul\":1760:1766   */\n      dup4\n        /* \"#utility.yul\":1756:1773   */\n      add\n        /* \"#utility.yul\":1752:1779   */\n      slt\n        /* \"#utility.yul\":1742:1864   */\n      tag_111\n      jumpi\n        /* \"#utility.yul\":1783:1862   */\n      tag_112\n      tag_113\n      jump\t// in\n    tag_112:\n        /* \"#utility.yul\":1742:1864   */\n    tag_111:\n        /* \"#utility.yul\":1900:1906   */\n      dup2\n        /* \"#utility.yul\":1887:1907   */\n      calldataload\n        /* \"#utility.yul\":1925:2019   */\n      tag_114\n        /* \"#utility.yul\":2015:2018   */\n      dup5\n        /* \"#utility.yul\":2007:2013   */\n      dup3\n        /* \"#utility.yul\":2000:2004   */\n      0x20\n        /* \"#utility.yul\":1992:1998   */\n      dup7\n        /* \"#utility.yul\":1988:2005   */\n      add\n        /* \"#utility.yul\":1925:2019   */\n      tag_80\n      jump\t// in\n    tag_114:\n        /* \"#utility.yul\":1916:2019   */\n      swap2\n      pop\n        /* \"#utility.yul\":1732:2025   */\n      pop\n        /* \"#utility.yul\":1655:2025   */\n      swap3\n      swap2\n      pop\n      pop\n      jump\t// out\n        /* \"#utility.yul\":2047:2415   */\n    tag_115:\n        /* \"#utility.yul\":2117:2122   */\n      0x00\n        /* \"#utility.yul\":2166:2169   */\n      dup3\n        /* \"#utility.yul\":2159:2163   */\n      0x1f\n        /* \"#utility.yul\":2151:2157   */\n      dup4\n        /* \"#utility.yul\":2147:2164   */\n      add\n        /* \"#utility.yul\":2143:2170   */\n      slt\n        /* \"#utility.yul\":2133:2255   */\n      tag_117\n      jumpi\n        /* \"#utility.yul\":2174:2253   */\n      tag_118\n      tag_113\n      jump\t// in\n    tag_118:\n        /* \"#utility.yul\":2133:2255   */\n    tag_117:\n        /* \"#utility.yul\":2291:2297   */\n      dup2\n        /* \"#utility.yul\":2278:2298   */\n      calldataload\n        /* \"#utility.yul\":2316:2409   */\n      tag_119\n        /* \"#utility.yul\":2405:2408   */\n      dup5\n        /* \"#utility.yul\":2397:2403   */\n      dup3\n        /* \"#utility.yul\":2390:2394   */\n      0x20\n        /* \"#utility.yul\":2382:2388   */\n      dup7\n        /* \"#utility.yul\":2378:2395   */\n      add\n        /* \"#utility.yul\":2316:2409   */\n      tag_94\n      jump\t// in\n    tag_119:\n        /* \"#utility.yul\":2307:2409   */\n      swap2\n      pop\n        /* \"#utility.yul\":2123:2415   */\n      pop\n        /* \"#utility.yul\":2047:2415   */\n      swap3\n      swap2\n      pop\n      pop\n      jump\t// out\n        /* \"#utility.yul\":2421:2564   */\n    tag_120:\n        /* \"#utility.yul\":2478:2483   */\n      0x00\n        /* \"#utility.yul\":2509:2515   */\n      dup2\n        /* \"#utility.yul\":2503:2516   */\n      mload\n        /* \"#utility.yul\":2494:2516   */\n      swap1\n      pop\n        /* \"#utility.yul\":2525:2558   */\n      tag_122\n        /* \"#utility.yul\":2552:2557   */\n      dup2\n        /* \"#utility.yul\":2525:2558   */\n      tag_123\n      jump\t// in\n    tag_122:\n        /* \"#utility.yul\":2421:2564   */\n      swap3\n      swap2\n      pop\n      pop\n      jump\t// out\n        /* \"#utility.yul\":2570:2707   */\n    tag_105:\n        /* \"#utility.yul\":2615:2620   */\n      0x00\n        /* \"#utility.yul\":2653:2659   */\n      dup2\n        /* \"#utility.yul\":2640:2660   */\n      calldataload\n        /* \"#utility.yul\":2631:2660   */\n      swap1\n      pop\n        /* \"#utility.yul\":2669:2701   */\n      tag_125\n        /* \"#utility.yul\":2695:2700   */\n      dup2\n        /* \"#utility.yul\":2669:2701   */\n      tag_126\n      jump\t// in\n    tag_125:\n        /* \"#utility.yul\":2570:2707   */\n      swap3\n      swap2\n      pop\n      pop\n      jump\t// out\n        /* \"#utility.yul\":2713:3252   */\n    tag_7:\n        /* \"#utility.yul\":2797:2803   */\n      0x00\n        /* \"#utility.yul\":2846:2848   */\n      0x20\n        /* \"#utility.yul\":2834:2843   */\n      dup3\n        /* \"#utility.yul\":2825:2832   */\n      dup5\n        /* \"#utility.yul\":2821:2844   */\n      sub\n        /* \"#utility.yul\":2817:2849   */\n      slt\n        /* \"#utility.yul\":2814:2933   */\n      iszero\n      tag_128\n      jumpi\n        /* \"#utility.yul\":2852:2931   */\n      tag_129\n      tag_130\n      jump\t// in\n    tag_129:\n        /* \"#utility.yul\":2814:2933   */\n    tag_128:\n        /* \"#utility.yul\":3000:3001   */\n      0x00\n        /* \"#utility.yul\":2989:2998   */\n      dup3\n        /* \"#utility.yul\":2985:3002   */\n      add\n        /* \"#utility.yul\":2972:3003   */\n      calldataload\n        /* \"#utility.yul\":3030:3048   */\n      0xffffffffffffffff\n        /* \"#utility.yul\":3022:3028   */\n      dup2\n        /* \"#utility.yul\":3019:3049   */\n      gt\n        /* \"#utility.yul\":3016:3133   */\n      iszero\n      tag_131\n      jumpi\n        /* \"#utility.yul\":3052:3131   */\n      tag_132\n      tag_133\n      jump\t// in\n    tag_132:\n        /* \"#utility.yul\":3016:3133   */\n    tag_131:\n        /* \"#utility.yul\":3157:3235   */\n      tag_134\n        /* \"#utility.yul\":3227:3234   */\n      dup5\n        /* \"#utility.yul\":3218:3224   */\n      dup3\n        /* \"#utility.yul\":3207:3216   */\n      dup6\n        /* \"#utility.yul\":3203:3225   */\n      add\n        /* \"#utility.yul\":3157:3235   */\n      tag_109\n      jump\t// in\n    tag_134:\n        /* \"#utility.yul\":3147:3235   */\n      swap2\n      pop\n        /* \"#utility.yul\":2943:3245   */\n      pop\n        /* \"#utility.yul\":2713:3252   */\n      swap3\n      swap2\n      pop\n      pop\n      jump\t// out\n        /* \"#utility.yul\":3258:4150   */\n    tag_13:\n        /* \"#utility.yul\":3375:3381   */\n      0x00\n        /* \"#utility.yul\":3383:3389   */\n      dup1\n        /* \"#utility.yul\":3432:3434   */\n      0x40\n        /* \"#utility.yul\":3420:3429   */\n      dup4\n        /* \"#utility.yul\":3411:3418   */\n      dup6\n        /* \"#utility.yul\":3407:3430   */\n      sub\n        /* \"#utility.yul\":3403:3435   */\n      slt\n        /* \"#utility.yul\":3400:3519   */\n      iszero\n      tag_136\n      jumpi\n        /* \"#utility.yul\":3438:3517   */\n      tag_137\n      tag_130\n      jump\t// in\n    tag_137:\n        /* \"#utility.yul\":3400:3519   */\n    tag_136:\n        /* \"#utility.yul\":3586:3587   */\n      0x00\n        /* \"#utility.yul\":3575:3584   */\n      dup4\n        /* \"#utility.yul\":3571:3588   */\n      add\n        /* \"#utility.yul\":3558:3589   */\n      calldataload\n        /* \"#utility.yul\":3616:3634   */\n      0xffffffffffffffff\n        /* \"#utility.yul\":3608:3614   */\n      dup2\n        /* \"#utility.yul\":3605:3635   */\n      gt\n        /* \"#utility.yul\":3602:3719   */\n      iszero\n      tag_138\n      jumpi\n        /* \"#utility.yul\":3638:3717   */\n      tag_139\n      tag_133\n      jump\t// in\n    tag_139:\n        /* \"#utility.yul\":3602:3719   */\n    tag_138:\n        /* \"#utility.yul\":3743:3820   */\n      tag_140\n        /* \"#utility.yul\":3812:3819   */\n      dup6\n        /* \"#utility.yul\":3803:3809   */\n      dup3\n        /* \"#utility.yul\":3792:3801   */\n      dup7\n        /* \"#utility.yul\":3788:3810   */\n      add\n        /* \"#utility.yul\":3743:3820   */\n      tag_115\n      jump\t// in\n    tag_140:\n        /* \"#utility.yul\":3733:3820   */\n      swap3\n      pop\n        /* \"#utility.yul\":3529:3830   */\n      pop\n        /* \"#utility.yul\":3897:3899   */\n      0x20\n        /* \"#utility.yul\":3886:3895   */\n      dup4\n        /* \"#utility.yul\":3882:3900   */\n      add\n        /* \"#utility.yul\":3869:3901   */\n      calldataload\n        /* \"#utility.yul\":3928:3946   */\n      0xffffffffffffffff\n        /* \"#utility.yul\":3920:3926   */\n      dup2\n        /* \"#utility.yul\":3917:3947   */\n      gt\n        /* \"#utility.yul\":3914:4031   */\n      iszero\n      tag_141\n      jumpi\n        /* \"#utility.yul\":3950:4029   */\n      tag_142\n      tag_133\n      jump\t// in\n    tag_142:\n        /* \"#utility.yul\":3914:4031   */\n    tag_141:\n        /* \"#utility.yul\":4055:4133   */\n      tag_143\n        /* \"#utility.yul\":4125:4132   */\n      dup6\n        /* \"#utility.yul\":4116:4122   */\n      dup3\n        /* \"#utility.yul\":4105:4114   */\n      dup7\n        /* \"#utility.yul\":4101:4123   */\n      add\n        /* \"#utility.yul\":4055:4133   */\n      tag_109\n      jump\t// in\n    tag_143:\n        /* \"#utility.yul\":4045:4133   */\n      swap2\n      pop\n        /* \"#utility.yul\":3840:4143   */\n      pop\n        /* \"#utility.yul\":3258:4150   */\n      swap3\n      pop\n      swap3\n      swap1\n      pop\n      jump\t// out\n        /* \"#utility.yul\":4156:4507   */\n    tag_31:\n        /* \"#utility.yul\":4226:4232   */\n      0x00\n        /* \"#utility.yul\":4275:4277   */\n      0x20\n        /* \"#utility.yul\":4263:4272   */\n      dup3\n        /* \"#utility.yul\":4254:4261   */\n      dup5\n        /* \"#utility.yul\":4250:4273   */\n      sub\n        /* \"#utility.yul\":4246:4278   */\n      slt\n        /* \"#utility.yul\":4243:4362   */\n      iszero\n      tag_145\n      jumpi\n        /* \"#utility.yul\":4281:4360   */\n      tag_146\n      tag_130\n      jump\t// in\n    tag_146:\n        /* \"#utility.yul\":4243:4362   */\n    tag_145:\n        /* \"#utility.yul\":4401:4402   */\n      0x00\n        /* \"#utility.yul\":4426:4490   */\n      tag_147\n        /* \"#utility.yul\":4482:4489   */\n      dup5\n        /* \"#utility.yul\":4473:4479   */\n      dup3\n        /* \"#utility.yul\":4462:4471   */\n      dup6\n        /* \"#utility.yul\":4458:4480   */\n      add\n        /* \"#utility.yul\":4426:4490   */\n      tag_120\n      jump\t// in\n    tag_147:\n        /* \"#utility.yul\":4416:4490   */\n      swap2\n      pop\n        /* \"#utility.yul\":4372:4500   */\n      pop\n        /* \"#utility.yul\":4156:4507   */\n      swap3\n      swap2\n      pop\n      pop\n      jump\t// out\n        /* \"#utility.yul\":4513:4780   */\n    tag_148:\n        /* \"#utility.yul\":4626:4636   */\n      0x00\n        /* \"#utility.yul\":4647:4737   */\n      tag_150\n        /* \"#utility.yul\":4733:4736   */\n      dup4\n        /* \"#utility.yul\":4725:4731   */\n      dup4\n        /* \"#utility.yul\":4647:4737   */\n      tag_151\n      jump\t// in\n    tag_150:\n        /* \"#utility.yul\":4769:4773   */\n      0x40\n        /* \"#utility.yul\":4764:4767   */\n      dup4\n        /* \"#utility.yul\":4760:4774   */\n      add\n        /* \"#utility.yul\":4746:4774   */\n      swap1\n      pop\n        /* \"#utility.yul\":4513:4780   */\n      swap3\n      swap2\n      pop\n      pop\n      jump\t// out\n        /* \"#utility.yul\":4786:4904   */\n    tag_152:\n        /* \"#utility.yul\":4873:4897   */\n      tag_154\n        /* \"#utility.yul\":4891:4896   */\n      dup2\n        /* \"#utility.yul\":4873:4897   */\n      tag_155\n      jump\t// in\n    tag_154:\n        /* \"#utility.yul\":4868:4871   */\n      dup3\n        /* \"#utility.yul\":4861:4898   */\n      mstore\n        /* \"#utility.yul\":4786:4904   */\n      pop\n      pop\n      jump\t// out\n        /* \"#utility.yul\":4978:5886   */\n    tag_156:\n        /* \"#utility.yul\":5141:5144   */\n      0x00\n        /* \"#utility.yul\":5170:5246   */\n      tag_158\n        /* \"#utility.yul\":5240:5245   */\n      dup3\n        /* \"#utility.yul\":5170:5246   */\n      tag_159\n      jump\t// in\n    tag_158:\n        /* \"#utility.yul\":5262:5370   */\n      tag_160\n        /* \"#utility.yul\":5363:5369   */\n      dup2\n        /* \"#utility.yul\":5358:5361   */\n      dup6\n        /* \"#utility.yul\":5262:5370   */\n      tag_161\n      jump\t// in\n    tag_160:\n        /* \"#utility.yul\":5255:5370   */\n      swap4\n      pop\n        /* \"#utility.yul\":5394:5472   */\n      tag_162\n        /* \"#utility.yul\":5466:5471   */\n      dup4\n        /* \"#utility.yul\":5394:5472   */\n      tag_163\n      jump\t// in\n    tag_162:\n        /* \"#utility.yul\":5495:5502   */\n      dup1\n        /* \"#utility.yul\":5526:5527   */\n      0x00\n        /* \"#utility.yul\":5511:5861   */\n    tag_164:\n        /* \"#utility.yul\":5536:5542   */\n      dup4\n        /* \"#utility.yul\":5533:5534   */\n      dup2\n        /* \"#utility.yul\":5530:5543   */\n      lt\n        /* \"#utility.yul\":5511:5861   */\n      iszero\n      tag_166\n      jumpi\n        /* \"#utility.yul\":5612:5618   */\n      dup2\n        /* \"#utility.yul\":5606:5619   */\n      mload\n        /* \"#utility.yul\":5639:5746   */\n      tag_167\n        /* \"#utility.yul\":5742:5745   */\n      dup9\n        /* \"#utility.yul\":5727:5740   */\n      dup3\n        /* \"#utility.yul\":5639:5746   */\n      tag_148\n      jump\t// in\n    tag_167:\n        /* \"#utility.yul\":5632:5746   */\n      swap8\n      pop\n        /* \"#utility.yul\":5769:5851   */\n      tag_168\n        /* \"#utility.yul\":5844:5850   */\n      dup4\n        /* \"#utility.yul\":5769:5851   */\n      tag_169\n      jump\t// in\n    tag_168:\n        /* \"#utility.yul\":5759:5851   */\n      swap3\n      pop\n        /* \"#utility.yul\":5571:5861   */\n      pop\n        /* \"#utility.yul\":5558:5559   */\n      0x01\n        /* \"#utility.yul\":5555:5556   */\n      dup2\n        /* \"#utility.yul\":5551:5560   */\n      add\n        /* \"#utility.yul\":5546:5560   */\n      swap1\n      pop\n        /* \"#utility.yul\":5511:5861   */\n      jump(tag_164)\n    tag_166:\n        /* \"#utility.yul\":5515:5529   */\n      pop\n        /* \"#utility.yul\":5877:5880   */\n      dup6\n        /* \"#utility.yul\":5870:5880   */\n      swap4\n      pop\n        /* \"#utility.yul\":5146:5886   */\n      pop\n      pop\n      pop\n        /* \"#utility.yul\":4978:5886   */\n      swap3\n      swap2\n      pop\n      pop\n      jump\t// out\n        /* \"#utility.yul\":5956:6460   */\n    tag_151:\n        /* \"#utility.yul\":6087:6091   */\n      0x40\n        /* \"#utility.yul\":6082:6085   */\n      dup3\n        /* \"#utility.yul\":6078:6092   */\n      add\n        /* \"#utility.yul\":6181:6185   */\n      0x00\n        /* \"#utility.yul\":6174:6179   */\n      dup3\n        /* \"#utility.yul\":6170:6186   */\n      add\n        /* \"#utility.yul\":6164:6187   */\n      mload\n        /* \"#utility.yul\":6200:6261   */\n      tag_171\n        /* \"#utility.yul\":6255:6259   */\n      0x00\n        /* \"#utility.yul\":6250:6253   */\n      dup6\n        /* \"#utility.yul\":6246:6260   */\n      add\n        /* \"#utility.yul\":6232:6244   */\n      dup3\n        /* \"#utility.yul\":6200:6261   */\n      tag_172\n      jump\t// in\n    tag_171:\n        /* \"#utility.yul\":6102:6271   */\n      pop\n        /* \"#utility.yul\":6361:6365   */\n      0x20\n        /* \"#utility.yul\":6354:6359   */\n      dup3\n        /* \"#utility.yul\":6350:6366   */\n      add\n        /* \"#utility.yul\":6344:6367   */\n      mload\n        /* \"#utility.yul\":6380:6443   */\n      tag_173\n        /* \"#utility.yul\":6437:6441   */\n      0x20\n        /* \"#utility.yul\":6432:6435   */\n      dup6\n        /* \"#utility.yul\":6428:6442   */\n      add\n        /* \"#utility.yul\":6414:6426   */\n      dup3\n        /* \"#utility.yul\":6380:6443   */\n      tag_174\n      jump\t// in\n    tag_173:\n        /* \"#utility.yul\":6281:6453   */\n      pop\n        /* \"#utility.yul\":6056:6460   */\n      pop\n        /* \"#utility.yul\":5956:6460   */\n      pop\n      pop\n      jump\t// out\n        /* \"#utility.yul\":6466:6574   */\n    tag_174:\n        /* \"#utility.yul\":6543:6567   */\n      tag_176\n        /* \"#utility.yul\":6561:6566   */\n      dup2\n        /* \"#utility.yul\":6543:6567   */\n      tag_177\n      jump\t// in\n    tag_176:\n        /* \"#utility.yul\":6538:6541   */\n      dup3\n        /* \"#utility.yul\":6531:6568   */\n      mstore\n        /* \"#utility.yul\":6466:6574   */\n      pop\n      pop\n      jump\t// out\n        /* \"#utility.yul\":6580:6698   */\n    tag_178:\n        /* \"#utility.yul\":6667:6691   */\n      tag_180\n        /* \"#utility.yul\":6685:6690   */\n      dup2\n        /* \"#utility.yul\":6667:6691   */\n      tag_177\n      jump\t// in\n    tag_180:\n        /* \"#utility.yul\":6662:6665   */\n      dup3\n        /* \"#utility.yul\":6655:6692   */\n      mstore\n        /* \"#utility.yul\":6580:6698   */\n      pop\n      pop\n      jump\t// out\n        /* \"#utility.yul\":6704:6833   */\n    tag_181:\n        /* \"#utility.yul\":6790:6826   */\n      tag_183\n        /* \"#utility.yul\":6820:6825   */\n      dup2\n        /* \"#utility.yul\":6790:6826   */\n      tag_184\n      jump\t// in\n    tag_183:\n        /* \"#utility.yul\":6785:6788   */\n      dup3\n        /* \"#utility.yul\":6778:6827   */\n      mstore\n        /* \"#utility.yul\":6704:6833   */\n      pop\n      pop\n      jump\t// out\n        /* \"#utility.yul\":6839:6944   */\n    tag_172:\n        /* \"#utility.yul\":6914:6937   */\n      tag_186\n        /* \"#utility.yul\":6931:6936   */\n      dup2\n        /* \"#utility.yul\":6914:6937   */\n      tag_187\n      jump\t// in\n    tag_186:\n        /* \"#utility.yul\":6909:6912   */\n      dup3\n        /* \"#utility.yul\":6902:6938   */\n      mstore\n        /* \"#utility.yul\":6839:6944   */\n      pop\n      pop\n      jump\t// out\n        /* \"#utility.yul\":6950:7172   */\n    tag_26:\n        /* \"#utility.yul\":7043:7047   */\n      0x00\n        /* \"#utility.yul\":7081:7083   */\n      0x20\n        /* \"#utility.yul\":7070:7079   */\n      dup3\n        /* \"#utility.yul\":7066:7084   */\n      add\n        /* \"#utility.yul\":7058:7084   */\n      swap1\n      pop\n        /* \"#utility.yul\":7094:7165   */\n      tag_189\n        /* \"#utility.yul\":7162:7163   */\n      0x00\n        /* \"#utility.yul\":7151:7160   */\n      dup4\n        /* \"#utility.yul\":7147:7164   */\n      add\n        /* \"#utility.yul\":7138:7144   */\n      dup5\n        /* \"#utility.yul\":7094:7165   */\n      tag_152\n      jump\t// in\n    tag_189:\n        /* \"#utility.yul\":6950:7172   */\n      swap3\n      swap2\n      pop\n      pop\n      jump\t// out\n        /* \"#utility.yul\":7178:7508   */\n    tag_65:\n        /* \"#utility.yul\":7298:7302   */\n      0x00\n        /* \"#utility.yul\":7336:7338   */\n      0x40\n        /* \"#utility.yul\":7325:7334   */\n      dup3\n        /* \"#utility.yul\":7321:7339   */\n      add\n        /* \"#utility.yul\":7313:7339   */\n      swap1\n      pop\n        /* \"#utility.yul\":7349:7420   */\n      tag_191\n        /* \"#utility.yul\":7417:7418   */\n      0x00\n        /* \"#utility.yul\":7406:7415   */\n      dup4\n        /* \"#utility.yul\":7402:7419   */\n      add\n        /* \"#utility.yul\":7393:7399   */\n      dup6\n        /* \"#utility.yul\":7349:7420   */\n      tag_152\n      jump\t// in\n    tag_191:\n        /* \"#utility.yul\":7430:7501   */\n      tag_192\n        /* \"#utility.yul\":7497:7499   */\n      0x20\n        /* \"#utility.yul\":7486:7495   */\n      dup4\n        /* \"#utility.yul\":7482:7500   */\n      add\n        /* \"#utility.yul\":7473:7479   */\n      dup5\n        /* \"#utility.yul\":7430:7501   */\n      tag_181\n      jump\t// in\n    tag_192:\n        /* \"#utility.yul\":7178:7508   */\n      swap4\n      swap3\n      pop\n      pop\n      pop\n      jump\t// out\n        /* \"#utility.yul\":7514:7975   */\n    tag_16:\n        /* \"#utility.yul\":7701:7705   */\n      0x00\n        /* \"#utility.yul\":7739:7741   */\n      0x20\n        /* \"#utility.yul\":7728:7737   */\n      dup3\n        /* \"#utility.yul\":7724:7742   */\n      add\n        /* \"#utility.yul\":7716:7742   */\n      swap1\n      pop\n        /* \"#utility.yul\":7788:7797   */\n      dup2\n        /* \"#utility.yul\":7782:7786   */\n      dup2\n        /* \"#utility.yul\":7778:7798   */\n      sub\n        /* \"#utility.yul\":7774:7775   */\n      0x00\n        /* \"#utility.yul\":7763:7772   */\n      dup4\n        /* \"#utility.yul\":7759:7776   */\n      add\n        /* \"#utility.yul\":7752:7799   */\n      mstore\n        /* \"#utility.yul\":7816:7968   */\n      tag_194\n        /* \"#utility.yul\":7963:7967   */\n      dup2\n        /* \"#utility.yul\":7954:7960   */\n      dup5\n        /* \"#utility.yul\":7816:7968   */\n      tag_156\n      jump\t// in\n    tag_194:\n        /* \"#utility.yul\":7808:7968   */\n      swap1\n      pop\n        /* \"#utility.yul\":7514:7975   */\n      swap3\n      swap2\n      pop\n      pop\n      jump\t// out\n        /* \"#utility.yul\":7981:8203   */\n    tag_10:\n        /* \"#utility.yul\":8074:8078   */\n      0x00\n        /* \"#utility.yul\":8112:8114   */\n      0x20\n        /* \"#utility.yul\":8101:8110   */\n      dup3\n        /* \"#utility.yul\":8097:8115   */\n      add\n        /* \"#utility.yul\":8089:8115   */\n      swap1\n      pop\n        /* \"#utility.yul\":8125:8196   */\n      tag_196\n        /* \"#utility.yul\":8193:8194   */\n      0x00\n        /* \"#utility.yul\":8182:8191   */\n      dup4\n        /* \"#utility.yul\":8178:8195   */\n      add\n        /* \"#utility.yul\":8169:8175   */\n      dup5\n        /* \"#utility.yul\":8125:8196   */\n      tag_178\n      jump\t// in\n    tag_196:\n        /* \"#utility.yul\":7981:8203   */\n      swap3\n      swap2\n      pop\n      pop\n      jump\t// out\n        /* \"#utility.yul\":8209:8338   */\n    tag_85:\n        /* \"#utility.yul\":8243:8249   */\n      0x00\n        /* \"#utility.yul\":8270:8290   */\n      tag_198\n      tag_199\n      jump\t// in\n    tag_198:\n        /* \"#utility.yul\":8260:8290   */\n      swap1\n      pop\n        /* \"#utility.yul\":8299:8332   */\n      tag_200\n        /* \"#utility.yul\":8327:8331   */\n      dup3\n        /* \"#utility.yul\":8319:8325   */\n      dup3\n        /* \"#utility.yul\":8299:8332   */\n      tag_201\n      jump\t// in\n    tag_200:\n        /* \"#utility.yul\":8209:8338   */\n      swap2\n      swap1\n      pop\n      jump\t// out\n        /* \"#utility.yul\":8344:8419   */\n    tag_199:\n        /* \"#utility.yul\":8377:8383   */\n      0x00\n        /* \"#utility.yul\":8410:8412   */\n      0x40\n        /* \"#utility.yul\":8404:8413   */\n      mload\n        /* \"#utility.yul\":8394:8413   */\n      swap1\n      pop\n        /* \"#utility.yul\":8344:8419   */\n      swap1\n      jump\t// out\n        /* \"#utility.yul\":8425:8736   */\n    tag_84:\n        /* \"#utility.yul\":8502:8506   */\n      0x00\n        /* \"#utility.yul\":8592:8610   */\n      0xffffffffffffffff\n        /* \"#utility.yul\":8584:8590   */\n      dup3\n        /* \"#utility.yul\":8581:8611   */\n      gt\n        /* \"#utility.yul\":8578:8634   */\n      iszero\n      tag_204\n      jumpi\n        /* \"#utility.yul\":8614:8632   */\n      tag_205\n      tag_38\n      jump\t// in\n    tag_205:\n        /* \"#utility.yul\":8578:8634   */\n    tag_204:\n        /* \"#utility.yul\":8664:8668   */\n      0x20\n        /* \"#utility.yul\":8656:8662   */\n      dup3\n        /* \"#utility.yul\":8652:8669   */\n      mul\n        /* \"#utility.yul\":8644:8669   */\n      swap1\n      pop\n        /* \"#utility.yul\":8724:8728   */\n      0x20\n        /* \"#utility.yul\":8718:8722   */\n      dup2\n        /* \"#utility.yul\":8714:8729   */\n      add\n        /* \"#utility.yul\":8706:8729   */\n      swap1\n      pop\n        /* \"#utility.yul\":8425:8736   */\n      swap2\n      swap1\n      pop\n      jump\t// out\n        /* \"#utility.yul\":8742:9052   */\n    tag_98:\n        /* \"#utility.yul\":8818:8822   */\n      0x00\n        /* \"#utility.yul\":8908:8926   */\n      0xffffffffffffffff\n        /* \"#utility.yul\":8900:8906   */\n      dup3\n        /* \"#utility.yul\":8897:8927   */\n      gt\n        /* \"#utility.yul\":8894:8950   */\n      iszero\n      tag_207\n      jumpi\n        /* \"#utility.yul\":8930:8948   */\n      tag_208\n      tag_38\n      jump\t// in\n    tag_208:\n        /* \"#utility.yul\":8894:8950   */\n    tag_207:\n        /* \"#utility.yul\":8980:8984   */\n      0x20\n        /* \"#utility.yul\":8972:8978   */\n      dup3\n        /* \"#utility.yul\":8968:8985   */\n      mul\n        /* \"#utility.yul\":8960:8985   */\n      swap1\n      pop\n        /* \"#utility.yul\":9040:9044   */\n      0x20\n        /* \"#utility.yul\":9034:9038   */\n      dup2\n        /* \"#utility.yul\":9030:9045   */\n      add\n        /* \"#utility.yul\":9022:9045   */\n      swap1\n      pop\n        /* \"#utility.yul\":8742:9052   */\n      swap2\n      swap1\n      pop\n      jump\t// out\n        /* \"#utility.yul\":9058:9212   */\n    tag_163:\n        /* \"#utility.yul\":9147:9151   */\n      0x00\n        /* \"#utility.yul\":9170:9173   */\n      dup2\n        /* \"#utility.yul\":9162:9173   */\n      swap1\n      pop\n        /* \"#utility.yul\":9200:9204   */\n      0x20\n        /* \"#utility.yul\":9195:9198   */\n      dup3\n        /* \"#utility.yul\":9191:9205   */\n      add\n        /* \"#utility.yul\":9183:9205   */\n      swap1\n      pop\n        /* \"#utility.yul\":9058:9212   */\n      swap2\n      swap1\n      pop\n      jump\t// out\n        /* \"#utility.yul\":9218:9354   */\n    tag_159:\n        /* \"#utility.yul\":9307:9313   */\n      0x00\n        /* \"#utility.yul\":9341:9346   */\n      dup2\n        /* \"#utility.yul\":9335:9347   */\n      mload\n        /* \"#utility.yul\":9325:9347   */\n      swap1\n      pop\n        /* \"#utility.yul\":9218:9354   */\n      swap2\n      swap1\n      pop\n      jump\t// out\n        /* \"#utility.yul\":9360:9495   */\n    tag_169:\n        /* \"#utility.yul\":9452:9456   */\n      0x00\n        /* \"#utility.yul\":9484:9488   */\n      0x20\n        /* \"#utility.yul\":9479:9482   */\n      dup3\n        /* \"#utility.yul\":9475:9489   */\n      add\n        /* \"#utility.yul\":9467:9489   */\n      swap1\n      pop\n        /* \"#utility.yul\":9360:9495   */\n      swap2\n      swap1\n      pop\n      jump\t// out\n        /* \"#utility.yul\":9501:9707   */\n    tag_161:\n        /* \"#utility.yul\":9622:9633   */\n      0x00\n        /* \"#utility.yul\":9656:9662   */\n      dup3\n        /* \"#utility.yul\":9651:9654   */\n      dup3\n        /* \"#utility.yul\":9644:9663   */\n      mstore\n        /* \"#utility.yul\":9696:9700   */\n      0x20\n        /* \"#utility.yul\":9691:9694   */\n      dup3\n        /* \"#utility.yul\":9687:9701   */\n      add\n        /* \"#utility.yul\":9672:9701   */\n      swap1\n      pop\n        /* \"#utility.yul\":9501:9707   */\n      swap3\n      swap2\n      pop\n      pop\n      jump\t// out\n        /* \"#utility.yul\":9713:10018   */\n    tag_78:\n        /* \"#utility.yul\":9753:9756   */\n      0x00\n        /* \"#utility.yul\":9772:9792   */\n      tag_214\n        /* \"#utility.yul\":9790:9791   */\n      dup3\n        /* \"#utility.yul\":9772:9792   */\n      tag_177\n      jump\t// in\n    tag_214:\n        /* \"#utility.yul\":9767:9792   */\n      swap2\n      pop\n        /* \"#utility.yul\":9806:9826   */\n      tag_215\n        /* \"#utility.yul\":9824:9825   */\n      dup4\n        /* \"#utility.yul\":9806:9826   */\n      tag_177\n      jump\t// in\n    tag_215:\n        /* \"#utility.yul\":9801:9826   */\n      swap3\n      pop\n        /* \"#utility.yul\":9960:9961   */\n      dup3\n        /* \"#utility.yul\":9892:9958   */\n      0xffffffffffffffffffffffffffffffffffffffffffffffffffffffffffffffff\n        /* \"#utility.yul\":9888:9962   */\n      sub\n        /* \"#utility.yul\":9885:9886   */\n      dup3\n        /* \"#utility.yul\":9882:9963   */\n      gt\n        /* \"#utility.yul\":9879:9986   */\n      iszero\n      tag_216\n      jumpi\n        /* \"#utility.yul\":9966:9984   */\n      tag_217\n      tag_218\n      jump\t// in\n    tag_217:\n        /* \"#utility.yul\":9879:9986   */\n    tag_216:\n        /* \"#utility.yul\":10010:10011   */\n      dup3\n        /* \"#utility.yul\":10007:10008   */\n      dup3\n        /* \"#utility.yul\":10003:10012   */\n      add\n        /* \"#utility.yul\":9996:10012   */\n      swap1\n      pop\n        /* \"#utility.yul\":9713:10018   */\n      swap3\n      swap2\n      pop\n      pop\n      jump\t// out\n        /* \"#utility.yul\":10024:10120   */\n    tag_155:\n        /* \"#utility.yul\":10061:10068   */\n      0x00\n        /* \"#utility.yul\":10090:10114   */\n      tag_220\n        /* \"#utility.yul\":10108:10113   */\n      dup3\n        /* \"#utility.yul\":10090:10114   */\n      tag_221\n      jump\t// in\n    tag_220:\n        /* \"#utility.yul\":10079:10114   */\n      swap1\n      pop\n        /* \"#utility.yul\":10024:10120   */\n      swap2\n      swap1\n      pop\n      jump\t// out\n        /* \"#utility.yul\":10126:10252   */\n    tag_221:\n        /* \"#utility.yul\":10163:10170   */\n      0x00\n        /* \"#utility.yul\":10203:10245   */\n      0xffffffffffffffffffffffffffffffffffffffff\n        /* \"#utility.yul\":10196:10201   */\n      dup3\n        /* \"#utility.yul\":10192:10246   */\n      and\n        /* \"#utility.yul\":10181:10246   */\n      swap1\n      pop\n        /* \"#utility.yul\":10126:10252   */\n      swap2\n      swap1\n      pop\n      jump\t// out\n        /* \"#utility.yul\":10258:10335   */\n    tag_177:\n        /* \"#utility.yul\":10295:10302   */\n      0x00\n        /* \"#utility.yul\":10324:10329   */\n      dup2\n        /* \"#utility.yul\":10313:10329   */\n      swap1\n      pop\n        /* \"#utility.yul\":10258:10335   */\n      swap2\n      swap1\n      pop\n      jump\t// out\n        /* \"#utility.yul\":10341:10434   */\n    tag_187:\n        /* \"#utility.yul\":10377:10384   */\n      0x00\n        /* \"#utility.yul\":10417:10427   */\n      0xffffffff\n        /* \"#utility.yul\":10410:10415   */\n      dup3\n        /* \"#utility.yul\":10406:10428   */\n      and\n        /* \"#utility.yul\":10395:10428   */\n      swap1\n      pop\n        /* \"#utility.yul\":10341:10434   */\n      swap2\n      swap1\n      pop\n      jump\t// out\n        /* \"#utility.yul\":10440:10551   */\n    tag_184:\n        /* \"#utility.yul\":10489:10498   */\n      0x00\n        /* \"#utility.yul\":10522:10545   */\n      tag_226\n        /* \"#utility.yul\":10539:10544   */\n      dup3\n        /* \"#utility.yul\":10522:10545   */\n      tag_187\n      jump\t// in\n    tag_226:\n        /* \"#utility.yul\":10509:10545   */\n      swap1\n      pop\n        /* \"#utility.yul\":10440:10551   */\n      swap2\n      swap1\n      pop\n      jump\t// out\n        /* \"#utility.yul\":10557:10838   */\n    tag_201:\n        /* \"#utility.yul\":10640:10667   */\n      tag_228\n        /* \"#utility.yul\":10662:10666   */\n      dup3\n        /* \"#utility.yul\":10640:10667   */\n      tag_229\n      jump\t// in\n    tag_228:\n        /* \"#utility.yul\":10632:10638   */\n      dup2\n        /* \"#utility.yul\":10628:10668   */\n      add\n        /* \"#utility.yul\":10770:10776   */\n      dup2\n        /* \"#utility.yul\":10758:10768   */\n      dup2\n        /* \"#utility.yul\":10755:10777   */\n      lt\n        /* \"#utility.yul\":10734:10752   */\n      0xffffffffffffffff\n        /* \"#utility.yul\":10722:10732   */\n      dup3\n        /* \"#utility.yul\":10719:10753   */\n      gt\n        /* \"#utility.yul\":10716:10778   */\n      or\n        /* \"#utility.yul\":10713:10801   */\n      iszero\n      tag_230\n      jumpi\n        /* \"#utility.yul\":10781:10799   */\n      tag_231\n      tag_38\n      jump\t// in\n    tag_231:\n        /* \"#utility.yul\":10713:10801   */\n    tag_230:\n        /* \"#utility.yul\":10821:10831   */\n      dup1\n        /* \"#utility.yul\":10817:10819   */\n      0x40\n        /* \"#utility.yul\":10810:10832   */\n      mstore\n        /* \"#utility.yul\":10600:10838   */\n      pop\n        /* \"#utility.yul\":10557:10838   */\n      pop\n      pop\n      jump\t// out\n        /* \"#utility.yul\":10844:11077   */\n    tag_34:\n        /* \"#utility.yul\":10883:10886   */\n      0x00\n        /* \"#utility.yul\":10906:10930   */\n      tag_233\n        /* \"#utility.yul\":10924:10929   */\n      dup3\n        /* \"#utility.yul\":10906:10930   */\n      tag_177\n      jump\t// in\n    tag_233:\n        /* \"#utility.yul\":10897:10930   */\n      swap2\n      pop\n        /* \"#utility.yul\":10952:11018   */\n      0xffffffffffffffffffffffffffffffffffffffffffffffffffffffffffffffff\n        /* \"#utility.yul\":10945:10950   */\n      dup3\n        /* \"#utility.yul\":10942:11019   */\n      eq\n        /* \"#utility.yul\":10939:11042   */\n      iszero\n      tag_234\n      jumpi\n        /* \"#utility.yul\":11022:11040   */\n      tag_235\n      tag_218\n      jump\t// in\n    tag_235:\n        /* \"#utility.yul\":10939:11042   */\n    tag_234:\n        /* \"#utility.yul\":11069:11070   */\n      0x01\n        /* \"#utility.yul\":11062:11067   */\n      dup3\n        /* \"#utility.yul\":11058:11071   */\n      add\n        /* \"#utility.yul\":11051:11071   */\n      swap1\n      pop\n        /* \"#utility.yul\":10844:11077   */\n      swap2\n      swap1\n      pop\n      jump\t// out\n        /* \"#utility.yul\":11083:11263   */\n    tag_218:\n        /* \"#utility.yul\":11131:11208   */\n      0x4e487b7100000000000000000000000000000000000000000000000000000000\n        /* \"#utility.yul\":11128:11129   */\n      0x00\n        /* \"#utility.yul\":11121:11209   */\n      mstore\n        /* \"#utility.yul\":11228:11232   */\n      0x11\n        /* \"#utility.yul\":11225:11226   */\n      0x04\n        /* \"#utility.yul\":11218:11233   */\n      mstore\n        /* \"#utility.yul\":11252:11256   */\n      0x24\n        /* \"#utility.yul\":11249:11250   */\n      0x00\n        /* \"#utility.yul\":11242:11257   */\n      revert\n        /* \"#utility.yul\":11269:11449   */\n    tag_24:\n        /* \"#utility.yul\":11317:11394   */\n      0x4e487b7100000000000000000000000000000000000000000000000000000000\n        /* \"#utility.yul\":11314:11315   */\n      0x00\n        /* \"#utility.yul\":11307:11395   */\n      mstore\n        /* \"#utility.yul\":11414:11418   */\n      0x32\n        /* \"#utility.yul\":11411:11412   */\n      0x04\n        /* \"#utility.yul\":11404:11419   */\n      mstore\n        /* \"#utility.yul\":11438:11442   */\n      0x24\n        /* \"#utility.yul\":11435:11436   */\n      0x00\n        /* \"#utility.yul\":11428:11443   */\n      revert\n        /* \"#utility.yul\":11455:11635   */\n    tag_38:\n        /* \"#utility.yul\":11503:11580   */\n      0x4e487b7100000000000000000000000000000000000000000000000000000000\n        /* \"#utility.yul\":11500:11501   */\n      0x00\n        /* \"#utility.yul\":11493:11581   */\n      mstore\n        /* \"#utility.yul\":11600:11604   */\n      0x41\n        /* \"#utility.yul\":11597:11598   */\n      0x04\n        /* \"#utility.yul\":11590:11605   */\n      mstore\n        /* \"#utility.yul\":11624:11628   */\n      0x24\n        /* \"#utility.yul\":11621:11622   */\n      0x00\n        /* \"#utility.yul\":11614:11629   */\n      revert\n        /* \"#utility.yul\":11641:11758   */\n    tag_113:\n        /* \"#utility.yul\":11750:11751   */\n      0x00\n        /* \"#utility.yul\":11747:11748   */\n      dup1\n        /* \"#utility.yul\":11740:11752   */\n      revert\n        /* \"#utility.yul\":11764:11881   */\n    tag_88:\n        /* \"#utility.yul\":11873:11874   */\n      0x00\n        /* \"#utility.yul\":11870:11871   */\n      dup1\n        /* \"#utility.yul\":11863:11875   */\n      revert\n        /* \"#utility.yul\":11887:12004   */\n    tag_133:\n        /* \"#utility.yul\":11996:11997   */\n      0x00\n        /* \"#utility.yul\":11993:11994   */\n      dup1\n        /* \"#utility.yul\":11986:11998   */\n      revert\n        /* \"#utility.yul\":12010:12127   */\n    tag_130:\n        /* \"#utility.yul\":12119:12120   */\n      0x00\n        /* \"#utility.yul\":12116:12117   */\n      dup1\n        /* \"#utility.yul\":12109:12121   */\n      revert\n        /* \"#utility.yul\":12133:12235   */\n    tag_229:\n        /* \"#utility.yul\":12174:12180   */\n      0x00\n        /* \"#utility.yul\":12225:12227   */\n      0x1f\n        /* \"#utility.yul\":12221:12228   */\n      not\n        /* \"#utility.yul\":12216:12218   */\n      0x1f\n        /* \"#utility.yul\":12209:12214   */\n      dup4\n        /* \"#utility.yul\":12205:12219   */\n      add\n        /* \"#utility.yul\":12201:12229   */\n      and\n        /* \"#utility.yul\":12191:12229   */\n      swap1\n      pop\n        /* \"#utility.yul\":12133:12235   */\n      swap2\n      swap1\n      pop\n      jump\t// out\n        /* \"#utility.yul\":12241:12363   */\n    tag_108:\n        /* \"#utility.yul\":12314:12338   */\n      tag_245\n        /* \"#utility.yul\":12332:12337   */\n      dup2\n        /* \"#utility.yul\":12314:12338   */\n      tag_155\n      jump\t// in\n    tag_245:\n        /* \"#utility.yul\":12307:12312   */\n      dup2\n        /* \"#utility.yul\":12304:12339   */\n      eq\n        /* \"#utility.yul\":12294:12357   */\n      tag_246\n      jumpi\n        /* \"#utility.yul\":12353:12354   */\n      0x00\n        /* \"#utility.yul\":12350:12351   */\n      dup1\n        /* \"#utility.yul\":12343:12355   */\n      revert\n        /* \"#utility.yul\":12294:12357   */\n    tag_246:\n        /* \"#utility.yul\":12241:12363   */\n      pop\n      jump\t// out\n        /* \"#utility.yul\":12369:12491   */\n    tag_123:\n        /* \"#utility.yul\":12442:12466   */\n      tag_248\n        /* \"#utility.yul\":12460:12465   */\n      dup2\n        /* \"#utility.yul\":12442:12466   */\n      tag_177\n      jump\t// in\n    tag_248:\n        /* \"#utility.yul\":12435:12440   */\n      dup2\n        /* \"#utility.yul\":12432:12467   */\n      eq\n        /* \"#utility.yul\":12422:12485   */\n      tag_249\n      jumpi\n        /* \"#utility.yul\":12481:12482   */\n      0x00\n        /* \"#utility.yul\":12478:12479   */\n      dup1\n        /* \"#utility.yul\":12471:12483   */\n      revert\n        /* \"#utility.yul\":12422:12485   */\n    tag_249:\n        /* \"#utility.yul\":12369:12491   */\n      pop\n      jump\t// out\n        /* \"#utility.yul\":12497:12617   */\n    tag_126:\n        /* \"#utility.yul\":12569:12592   */\n      tag_251\n        /* \"#utility.yul\":12586:12591   */\n      dup2\n        /* \"#utility.yul\":12569:12592   */\n      tag_187\n      jump\t// in\n    tag_251:\n        /* \"#utility.yul\":12562:12567   */\n      dup2\n        /* \"#utility.yul\":12559:12593   */\n      eq\n        /* \"#utility.yul\":12549:12611   */\n      tag_252\n      jumpi\n        /* \"#utility.yul\":12607:12608   */\n      0x00\n        /* \"#utility.yul\":12604:12605   */\n      dup1\n        /* \"#utility.yul\":12597:12609   */\n      revert\n        /* \"#utility.yul\":12549:12611   */\n    tag_252:\n        /* \"#utility.yul\":12497:12617   */\n      pop\n      jump\t// out\n\n    auxdata: 0xa264697066735822122065743ab22d33f4c6d916256259ac4b99413c84dc1f3215d050f8fbe9b8bcc33a64736f6c63430008070033\n}\n",
				"bytecode": {
					"linkReferences": {},
					"object": "60806040523480156200001157600080fd5b5060405162000d0738038062000d078339818101604052810190620000379190620000ee565b816000806101000a81548173ffffffffffffffffffffffffffffffffffffffff021916908373ffffffffffffffffffffffffffffffffffffffff16021790555080600160006101000a81548173ffffffffffffffffffffffffffffffffffffffff021916908373ffffffffffffffffffffffffffffffffffffffff1602179055505050620001ca565b600081519050620000d18162000196565b92915050565b600081519050620000e881620001b0565b92915050565b6000806040838503121562000108576200010762000191565b5b60006200011885828601620000c0565b92505060206200012b85828601620000d7565b9150509250929050565b6000620001428262000171565b9050919050565b6000620001568262000135565b9050919050565b60006200016a8262000135565b9050919050565b600073ffffffffffffffffffffffffffffffffffffffff82169050919050565b600080fd5b620001a18162000149565b8114620001ad57600080fd5b50565b620001bb816200015d565b8114620001c757600080fd5b50565b610b2d80620001da6000396000f3fe608060405234801561001057600080fd5b50600436106100365760003560e01c80630a5f75b61461003b578063779690911461006b575b600080fd5b610055600480360381019061005091906105bd565b61009b565b6040516100629190610801565b60405180910390f35b61008560048036038101906100809190610606565b6101a2565b60405161009291906107df565b60405180910390f35b6000806000905060005b83518110156101985761018360008054906101000a900473ffffffffffffffffffffffffffffffffffffffff1673ffffffffffffffffffffffffffffffffffffffff166370a08231868481518110610100576100ff610a2f565b5b60200260200101516040518263ffffffff1660e01b8152600401610124919061079b565b60206040518083038186803b15801561013c57600080fd5b505afa158015610150573d6000803e3d6000fd5b505050506040513d601f19601f82011682018060405250810190610174919061067e565b8361040c90919063ffffffff16565b91508080610190906109b7565b9150506100a5565b5080915050919050565b60606000835167ffffffffffffffff8111156101c1576101c0610a5e565b5b6040519080825280602002602001820160405280156101fa57816020015b6101e7610422565b8152602001906001900390816101df5790505b50905060005b845181101561028d5784818151811061021c5761021b610a2f565b5b602002602001015182828151811061023757610236610a2f565b5b60200260200101516000019063ffffffff16908163ffffffff1681525050600082828151811061026a57610269610a2f565b5b602002602001015160200181815250508080610285906109b7565b915050610200565b5060005b83518110156104015760005b85518110156103ed576103b7600160009054906101000a900473ffffffffffffffffffffffffffffffffffffffff1673ffffffffffffffffffffffffffffffffffffffff166394d45b598785815181106102fa576102f9610a2f565b5b602002602001015189858151811061031557610314610a2f565b5b60200260200101516040518363ffffffff1660e01b815260040161033a9291906107b6565b60206040518083038186803b15801561035257600080fd5b505afa158015610366573d6000803e3d6000fd5b505050506040513d601f19601f8201168201806040525081019061038a919061067e565b84838151811061039d5761039c610a2f565b5b60200260200101516020015161040c90919063ffffffff16565b8382815181106103ca576103c9610a2f565b5b6020026020010151602001818152505080806103e5906109b7565b91505061029d565b5080806103f9906109b7565b915050610291565b508091505092915050565b6000818361041a91906108d2565b905092915050565b6040518060400160405280600063ffffffff168152602001600081525090565b600061045561045084610841565b61081c565b9050808382526020820190508285602086028201111561047857610477610a92565b5b60005b858110156104a8578161048e8882610522565b84526020840193506020830192505060018101905061047b565b5050509392505050565b60006104c56104c08461086d565b61081c565b905080838252602082019050828560208602820111156104e8576104e7610a92565b5b60005b8581101561051857816104fe88826105a8565b8452602084019350602083019250506001810190506104eb565b5050509392505050565b60008135905061053181610ab2565b92915050565b600082601f83011261054c5761054b610a8d565b5b813561055c848260208601610442565b91505092915050565b600082601f83011261057a57610579610a8d565b5b813561058a8482602086016104b2565b91505092915050565b6000815190506105a281610ac9565b92915050565b6000813590506105b781610ae0565b92915050565b6000602082840312156105d3576105d2610a9c565b5b600082013567ffffffffffffffff8111156105f1576105f0610a97565b5b6105fd84828501610537565b91505092915050565b6000806040838503121561061d5761061c610a9c565b5b600083013567ffffffffffffffff81111561063b5761063a610a97565b5b61064785828601610565565b925050602083013567ffffffffffffffff81111561066857610667610a97565b5b61067485828601610537565b9150509250929050565b60006020828403121561069457610693610a9c565b5b60006106a284828501610593565b91505092915050565b60006106b78383610730565b60408301905092915050565b6106cc81610928565b82525050565b60006106dd826108a9565b6106e781856108c1565b93506106f283610899565b8060005b8381101561072357815161070a88826106ab565b9750610715836108b4565b9250506001810190506106f6565b5085935050505092915050565b604082016000820151610746600085018261078c565b506020820151610759602085018261075f565b50505050565b6107688161095a565b82525050565b6107778161095a565b82525050565b61078681610974565b82525050565b61079581610964565b82525050565b60006020820190506107b060008301846106c3565b92915050565b60006040820190506107cb60008301856106c3565b6107d8602083018461077d565b9392505050565b600060208201905081810360008301526107f981846106d2565b905092915050565b6000602082019050610816600083018461076e565b92915050565b6000610826610837565b90506108328282610986565b919050565b6000604051905090565b600067ffffffffffffffff82111561085c5761085b610a5e565b5b602082029050602081019050919050565b600067ffffffffffffffff82111561088857610887610a5e565b5b602082029050602081019050919050565b6000819050602082019050919050565b600081519050919050565b6000602082019050919050565b600082825260208201905092915050565b60006108dd8261095a565b91506108e88361095a565b9250827fffffffffffffffffffffffffffffffffffffffffffffffffffffffffffffffff0382111561091d5761091c610a00565b5b828201905092915050565b60006109338261093a565b9050919050565b600073ffffffffffffffffffffffffffffffffffffffff82169050919050565b6000819050919050565b600063ffffffff82169050919050565b600061097f82610964565b9050919050565b61098f82610aa1565b810181811067ffffffffffffffff821117156109ae576109ad610a5e565b5b80604052505050565b60006109c28261095a565b91507fffffffffffffffffffffffffffffffffffffffffffffffffffffffffffffffff8214156109f5576109f4610a00565b5b600182019050919050565b7f4e487b7100000000000000000000000000000000000000000000000000000000600052601160045260246000fd5b7f4e487b7100000000000000000000000000000000000000000000000000000000600052603260045260246000fd5b7f4e487b7100000000000000000000000000000000000000000000000000000000600052604160045260246000fd5b600080fd5b600080fd5b600080fd5b600080fd5b6000601f19601f8301169050919050565b610abb81610928565b8114610ac657600080fd5b50565b610ad28161095a565b8114610add57600080fd5b50565b610ae981610964565b8114610af457600080fd5b5056fea264697066735822122065743ab22d33f4c6d916256259ac4b99413c84dc1f3215d050f8fbe9b8bcc33a64736f6c63430008070033",
					"opcodes": "PUSH1 0x80 PUSH1 0x40 MSTORE CALLVALUE DUP1 ISZERO PUSH3 0x11 JUMPI PUSH1 0x0 DUP1 REVERT JUMPDEST POP PUSH1 0x40 MLOAD PUSH3 0xD07 CODESIZE SUB DUP1 PUSH3 0xD07 DUP4 CODECOPY DUP2 DUP2 ADD PUSH1 0x40 MSTORE DUP2 ADD SWAP1 PUSH3 0x37 SWAP2 SWAP1 PUSH3 0xEE JUMP JUMPDEST DUP2 PUSH1 0x0 DUP1 PUSH2 0x100 EXP DUP2 SLOAD DUP2 PUSH20 0xFFFFFFFFFFFFFFFFFFFFFFFFFFFFFFFFFFFFFFFF MUL NOT AND SWAP1 DUP4 PUSH20 0xFFFFFFFFFFFFFFFFFFFFFFFFFFFFFFFFFFFFFFFF AND MUL OR SWAP1 SSTORE POP DUP1 PUSH1 0x1 PUSH1 0x0 PUSH2 0x100 EXP DUP2 SLOAD DUP2 PUSH20 0xFFFFFFFFFFFFFFFFFFFFFFFFFFFFFFFFFFFFFFFF MUL NOT AND SWAP1 DUP4 PUSH20 0xFFFFFFFFFFFFFFFFFFFFFFFFFFFFFFFFFFFFFFFF AND MUL OR SWAP1 SSTORE POP POP POP PUSH3 0x1CA JUMP JUMPDEST PUSH1 0x0 DUP2 MLOAD SWAP1 POP PUSH3 0xD1 DUP2 PUSH3 0x196 JUMP JUMPDEST SWAP3 SWAP2 POP POP JUMP JUMPDEST PUSH1 0x0 DUP2 MLOAD SWAP1 POP PUSH3 0xE8 DUP2 PUSH3 0x1B0 JUMP JUMPDEST SWAP3 SWAP2 POP POP JUMP JUMPDEST PUSH1 0x0 DUP1 PUSH1 0x40 DUP4 DUP6 SUB SLT ISZERO PUSH3 0x108 JUMPI PUSH3 0x107 PUSH3 0x191 JUMP JUMPDEST JUMPDEST PUSH1 0x0 PUSH3 0x118 DUP6 DUP3 DUP7 ADD PUSH3 0xC0 JUMP JUMPDEST SWAP3 POP POP PUSH1 0x20 PUSH3 0x12B DUP6 DUP3 DUP7 ADD PUSH3 0xD7 JUMP JUMPDEST SWAP2 POP POP SWAP3 POP SWAP3 SWAP1 POP JUMP JUMPDEST PUSH1 0x0 PUSH3 0x142 DUP3 PUSH3 0x171 JUMP JUMPDEST SWAP1 POP SWAP2 SWAP1 POP JUMP JUMPDEST PUSH1 0x0 PUSH3 0x156 DUP3 PUSH3 0x135 JUMP JUMPDEST SWAP1 POP SWAP2 SWAP1 POP JUMP JUMPDEST PUSH1 0x0 PUSH3 0x16A DUP3 PUSH3 0x135 JUMP JUMPDEST SWAP1 POP SWAP2 SWAP1 POP JUMP JUMPDEST PUSH1 0x0 PUSH20 0xFFFFFFFFFFFFFFFFFFFFFFFFFFFFFFFFFFFFFFFF DUP3 AND SWAP1 POP SWAP2 SWAP1 POP JUMP JUMPDEST PUSH1 0x0 DUP1 REVERT JUMPDEST PUSH3 0x1A1 DUP2 PUSH3 0x149 JUMP JUMPDEST DUP2 EQ PUSH3 0x1AD JUMPI PUSH1 0x0 DUP1 REVERT JUMPDEST POP JUMP JUMPDEST PUSH3 0x1BB DUP2 PUSH3 0x15D JUMP JUMPDEST DUP2 EQ PUSH3 0x1C7 JUMPI PUSH1 0x0 DUP1 REVERT JUMPDEST POP JUMP JUMPDEST PUSH2 0xB2D DUP1 PUSH3 0x1DA PUSH1 0x0 CODECOPY PUSH1 0x0 RETURN INVALID PUSH1 0x80 PUSH1 0x40 MSTORE CALLVALUE DUP1 ISZERO PUSH2 0x10 JUMPI PUSH1 0x0 DUP1 REVERT JUMPDEST POP PUSH1 0x4 CALLDATASIZE LT PUSH2 0x36 JUMPI PUSH1 0x0 CALLDATALOAD PUSH1 0xE0 SHR DUP1 PUSH4 0xA5F75B6 EQ PUSH2 0x3B JUMPI DUP1 PUSH4 0x77969091 EQ PUSH2 0x6B JUMPI JUMPDEST PUSH1 0x0 DUP1 REVERT JUMPDEST PUSH2 0x55 PUSH1 0x4 DUP1 CALLDATASIZE SUB DUP2 ADD SWAP1 PUSH2 0x50 SWAP2 SWAP1 PUSH2 0x5BD JUMP JUMPDEST PUSH2 0x9B JUMP JUMPDEST PUSH1 0x40 MLOAD PUSH2 0x62 SWAP2 SWAP1 PUSH2 0x801 JUMP JUMPDEST PUSH1 0x40 MLOAD DUP1 SWAP2 SUB SWAP1 RETURN JUMPDEST PUSH2 0x85 PUSH1 0x4 DUP1 CALLDATASIZE SUB DUP2 ADD SWAP1 PUSH2 0x80 SWAP2 SWAP1 PUSH2 0x606 JUMP JUMPDEST PUSH2 0x1A2 JUMP JUMPDEST PUSH1 0x40 MLOAD PUSH2 0x92 SWAP2 SWAP1 PUSH2 0x7DF JUMP JUMPDEST PUSH1 0x40 MLOAD DUP1 SWAP2 SUB SWAP1 RETURN JUMPDEST PUSH1 0x0 DUP1 PUSH1 0x0 SWAP1 POP PUSH1 0x0 JUMPDEST DUP4 MLOAD DUP2 LT ISZERO PUSH2 0x198 JUMPI PUSH2 0x183 PUSH1 0x0 DUP1 SLOAD SWAP1 PUSH2 0x100 EXP SWAP1 DIV PUSH20 0xFFFFFFFFFFFFFFFFFFFFFFFFFFFFFFFFFFFFFFFF AND PUSH20 0xFFFFFFFFFFFFFFFFFFFFFFFFFFFFFFFFFFFFFFFF AND PUSH4 0x70A08231 DUP7 DUP5 DUP2 MLOAD DUP2 LT PUSH2 0x100 JUMPI PUSH2 0xFF PUSH2 0xA2F JUMP JUMPDEST JUMPDEST PUSH1 0x20 MUL PUSH1 0x20 ADD ADD MLOAD PUSH1 0x40 MLOAD DUP3 PUSH4 0xFFFFFFFF AND PUSH1 0xE0 SHL DUP2 MSTORE PUSH1 0x4 ADD PUSH2 0x124 SWAP2 SWAP1 PUSH2 0x79B JUMP JUMPDEST PUSH1 0x20 PUSH1 0x40 MLOAD DUP1 DUP4 SUB DUP2 DUP7 DUP1 EXTCODESIZE ISZERO DUP1 ISZERO PUSH2 0x13C JUMPI PUSH1 0x0 DUP1 REVERT JUMPDEST POP GAS STATICCALL ISZERO DUP1 ISZERO PUSH2 0x150 JUMPI RETURNDATASIZE PUSH1 0x0 DUP1 RETURNDATACOPY RETURNDATASIZE PUSH1 0x0 REVERT JUMPDEST POP POP POP POP PUSH1 0x40 MLOAD RETURNDATASIZE PUSH1 0x1F NOT PUSH1 0x1F DUP3 ADD AND DUP3 ADD DUP1 PUSH1 0x40 MSTORE POP DUP2 ADD SWAP1 PUSH2 0x174 SWAP2 SWAP1 PUSH2 0x67E JUMP JUMPDEST DUP4 PUSH2 0x40C SWAP1 SWAP2 SWAP1 PUSH4 0xFFFFFFFF AND JUMP JUMPDEST SWAP2 POP DUP1 DUP1 PUSH2 0x190 SWAP1 PUSH2 0x9B7 JUMP JUMPDEST SWAP2 POP POP PUSH2 0xA5 JUMP JUMPDEST POP DUP1 SWAP2 POP POP SWAP2 SWAP1 POP JUMP JUMPDEST PUSH1 0x60 PUSH1 0x0 DUP4 MLOAD PUSH8 0xFFFFFFFFFFFFFFFF DUP2 GT ISZERO PUSH2 0x1C1 JUMPI PUSH2 0x1C0 PUSH2 0xA5E JUMP JUMPDEST JUMPDEST PUSH1 0x40 MLOAD SWAP1 DUP1 DUP3 MSTORE DUP1 PUSH1 0x20 MUL PUSH1 0x20 ADD DUP3 ADD PUSH1 0x40 MSTORE DUP1 ISZERO PUSH2 0x1FA JUMPI DUP2 PUSH1 0x20 ADD JUMPDEST PUSH2 0x1E7 PUSH2 0x422 JUMP JUMPDEST DUP2 MSTORE PUSH1 0x20 ADD SWAP1 PUSH1 0x1 SWAP1 SUB SWAP1 DUP2 PUSH2 0x1DF JUMPI SWAP1 POP JUMPDEST POP SWAP1 POP PUSH1 0x0 JUMPDEST DUP5 MLOAD DUP2 LT ISZERO PUSH2 0x28D JUMPI DUP5 DUP2 DUP2 MLOAD DUP2 LT PUSH2 0x21C JUMPI PUSH2 0x21B PUSH2 0xA2F JUMP JUMPDEST JUMPDEST PUSH1 0x20 MUL PUSH1 0x20 ADD ADD MLOAD DUP3 DUP3 DUP2 MLOAD DUP2 LT PUSH2 0x237 JUMPI PUSH2 0x236 PUSH2 0xA2F JUMP JUMPDEST JUMPDEST PUSH1 0x20 MUL PUSH1 0x20 ADD ADD MLOAD PUSH1 0x0 ADD SWAP1 PUSH4 0xFFFFFFFF AND SWAP1 DUP2 PUSH4 0xFFFFFFFF AND DUP2 MSTORE POP POP PUSH1 0x0 DUP3 DUP3 DUP2 MLOAD DUP2 LT PUSH2 0x26A JUMPI PUSH2 0x269 PUSH2 0xA2F JUMP JUMPDEST JUMPDEST PUSH1 0x20 MUL PUSH1 0x20 ADD ADD MLOAD PUSH1 0x20 ADD DUP2 DUP2 MSTORE POP POP DUP1 DUP1 PUSH2 0x285 SWAP1 PUSH2 0x9B7 JUMP JUMPDEST SWAP2 POP POP PUSH2 0x200 JUMP JUMPDEST POP PUSH1 0x0 JUMPDEST DUP4 MLOAD DUP2 LT ISZERO PUSH2 0x401 JUMPI PUSH1 0x0 JUMPDEST DUP6 MLOAD DUP2 LT ISZERO PUSH2 0x3ED JUMPI PUSH2 0x3B7 PUSH1 0x1 PUSH1 0x0 SWAP1 SLOAD SWAP1 PUSH2 0x100 EXP SWAP1 DIV PUSH20 0xFFFFFFFFFFFFFFFFFFFFFFFFFFFFFFFFFFFFFFFF AND PUSH20 0xFFFFFFFFFFFFFFFFFFFFFFFFFFFFFFFFFFFFFFFF AND PUSH4 0x94D45B59 DUP8 DUP6 DUP2 MLOAD DUP2 LT PUSH2 0x2FA JUMPI PUSH2 0x2F9 PUSH2 0xA2F JUMP JUMPDEST JUMPDEST PUSH1 0x20 MUL PUSH1 0x20 ADD ADD MLOAD DUP10 DUP6 DUP2 MLOAD DUP2 LT PUSH2 0x315 JUMPI PUSH2 0x314 PUSH2 0xA2F JUMP JUMPDEST JUMPDEST PUSH1 0x20 MUL PUSH1 0x20 ADD ADD MLOAD PUSH1 0x40 MLOAD DUP4 PUSH4 0xFFFFFFFF AND PUSH1 0xE0 SHL DUP2 MSTORE PUSH1 0x4 ADD PUSH2 0x33A SWAP3 SWAP2 SWAP1 PUSH2 0x7B6 JUMP JUMPDEST PUSH1 0x20 PUSH1 0x40 MLOAD DUP1 DUP4 SUB DUP2 DUP7 DUP1 EXTCODESIZE ISZERO DUP1 ISZERO PUSH2 0x352 JUMPI PUSH1 0x0 DUP1 REVERT JUMPDEST POP GAS STATICCALL ISZERO DUP1 ISZERO PUSH2 0x366 JUMPI RETURNDATASIZE PUSH1 0x0 DUP1 RETURNDATACOPY RETURNDATASIZE PUSH1 0x0 REVERT JUMPDEST POP POP POP POP PUSH1 0x40 MLOAD RETURNDATASIZE PUSH1 0x1F NOT PUSH1 0x1F DUP3 ADD AND DUP3 ADD DUP1 PUSH1 0x40 MSTORE POP DUP2 ADD SWAP1 PUSH2 0x38A SWAP2 SWAP1 PUSH2 0x67E JUMP JUMPDEST DUP5 DUP4 DUP2 MLOAD DUP2 LT PUSH2 0x39D JUMPI PUSH2 0x39C PUSH2 0xA2F JUMP JUMPDEST JUMPDEST PUSH1 0x20 MUL PUSH1 0x20 ADD ADD MLOAD PUSH1 0x20 ADD MLOAD PUSH2 0x40C SWAP1 SWAP2 SWAP1 PUSH4 0xFFFFFFFF AND JUMP JUMPDEST DUP4 DUP3 DUP2 MLOAD DUP2 LT PUSH2 0x3CA JUMPI PUSH2 0x3C9 PUSH2 0xA2F JUMP JUMPDEST JUMPDEST PUSH1 0x20 MUL PUSH1 0x20 ADD ADD MLOAD PUSH1 0x20 ADD DUP2 DUP2 MSTORE POP POP DUP1 DUP1 PUSH2 0x3E5 SWAP1 PUSH2 0x9B7 JUMP JUMPDEST SWAP2 POP POP PUSH2 0x29D JUMP JUMPDEST POP DUP1 DUP1 PUSH2 0x3F9 SWAP1 PUSH2 0x9B7 JUMP JUMPDEST SWAP2 POP POP PUSH2 0x291 JUMP JUMPDEST POP DUP1 SWAP2 POP POP SWAP3 SWAP2 POP POP JUMP JUMPDEST PUSH1 0x0 DUP2 DUP4 PUSH2 0x41A SWAP2 SWAP1 PUSH2 0x8D2 JUMP JUMPDEST SWAP1 POP SWAP3 SWAP2 POP POP JUMP JUMPDEST PUSH1 0x40 MLOAD DUP1 PUSH1 0x40 ADD PUSH1 0x40 MSTORE DUP1 PUSH1 0x0 PUSH4 0xFFFFFFFF AND DUP2 MSTORE PUSH1 0x20 ADD PUSH1 0x0 DUP2 MSTORE POP SWAP1 JUMP JUMPDEST PUSH1 0x0 PUSH2 0x455 PUSH2 0x450 DUP5 PUSH2 0x841 JUMP JUMPDEST PUSH2 0x81C JUMP JUMPDEST SWAP1 POP DUP1 DUP4 DUP3 MSTORE PUSH1 0x20 DUP3 ADD SWAP1 POP DUP3 DUP6 PUSH1 0x20 DUP7 MUL DUP3 ADD GT ISZERO PUSH2 0x478 JUMPI PUSH2 0x477 PUSH2 0xA92 JUMP JUMPDEST JUMPDEST PUSH1 0x0 JUMPDEST DUP6 DUP2 LT ISZERO PUSH2 0x4A8 JUMPI DUP2 PUSH2 0x48E DUP9 DUP3 PUSH2 0x522 JUMP JUMPDEST DUP5 MSTORE PUSH1 0x20 DUP5 ADD SWAP4 POP PUSH1 0x20 DUP4 ADD SWAP3 POP POP PUSH1 0x1 DUP2 ADD SWAP1 POP PUSH2 0x47B JUMP JUMPDEST POP POP POP SWAP4 SWAP3 POP POP POP JUMP JUMPDEST PUSH1 0x0 PUSH2 0x4C5 PUSH2 0x4C0 DUP5 PUSH2 0x86D JUMP JUMPDEST PUSH2 0x81C JUMP JUMPDEST SWAP1 POP DUP1 DUP4 DUP3 MSTORE PUSH1 0x20 DUP3 ADD SWAP1 POP DUP3 DUP6 PUSH1 0x20 DUP7 MUL DUP3 ADD GT ISZERO PUSH2 0x4E8 JUMPI PUSH2 0x4E7 PUSH2 0xA92 JUMP JUMPDEST JUMPDEST PUSH1 0x0 JUMPDEST DUP6 DUP2 LT ISZERO PUSH2 0x518 JUMPI DUP2 PUSH2 0x4FE DUP9 DUP3 PUSH2 0x5A8 JUMP JUMPDEST DUP5 MSTORE PUSH1 0x20 DUP5 ADD SWAP4 POP PUSH1 0x20 DUP4 ADD SWAP3 POP POP PUSH1 0x1 DUP2 ADD SWAP1 POP PUSH2 0x4EB JUMP JUMPDEST POP POP POP SWAP4 SWAP3 POP POP POP JUMP JUMPDEST PUSH1 0x0 DUP2 CALLDATALOAD SWAP1 POP PUSH2 0x531 DUP2 PUSH2 0xAB2 JUMP JUMPDEST SWAP3 SWAP2 POP POP JUMP JUMPDEST PUSH1 0x0 DUP3 PUSH1 0x1F DUP4 ADD SLT PUSH2 0x54C JUMPI PUSH2 0x54B PUSH2 0xA8D JUMP JUMPDEST JUMPDEST DUP2 CALLDATALOAD PUSH2 0x55C DUP5 DUP3 PUSH1 0x20 DUP7 ADD PUSH2 0x442 JUMP JUMPDEST SWAP2 POP POP SWAP3 SWAP2 POP POP JUMP JUMPDEST PUSH1 0x0 DUP3 PUSH1 0x1F DUP4 ADD SLT PUSH2 0x57A JUMPI PUSH2 0x579 PUSH2 0xA8D JUMP JUMPDEST JUMPDEST DUP2 CALLDATALOAD PUSH2 0x58A DUP5 DUP3 PUSH1 0x20 DUP7 ADD PUSH2 0x4B2 JUMP JUMPDEST SWAP2 POP POP SWAP3 SWAP2 POP POP JUMP JUMPDEST PUSH1 0x0 DUP2 MLOAD SWAP1 POP PUSH2 0x5A2 DUP2 PUSH2 0xAC9 JUMP JUMPDEST SWAP3 SWAP2 POP POP JUMP JUMPDEST PUSH1 0x0 DUP2 CALLDATALOAD SWAP1 POP PUSH2 0x5B7 DUP2 PUSH2 0xAE0 JUMP JUMPDEST SWAP3 SWAP2 POP POP JUMP JUMPDEST PUSH1 0x0 PUSH1 0x20 DUP3 DUP5 SUB SLT ISZERO PUSH2 0x5D3 JUMPI PUSH2 0x5D2 PUSH2 0xA9C JUMP JUMPDEST JUMPDEST PUSH1 0x0 DUP3 ADD CALLDATALOAD PUSH8 0xFFFFFFFFFFFFFFFF DUP2 GT ISZERO PUSH2 0x5F1 JUMPI PUSH2 0x5F0 PUSH2 0xA97 JUMP JUMPDEST JUMPDEST PUSH2 0x5FD DUP5 DUP3 DUP6 ADD PUSH2 0x537 JUMP JUMPDEST SWAP2 POP POP SWAP3 SWAP2 POP POP JUMP JUMPDEST PUSH1 0x0 DUP1 PUSH1 0x40 DUP4 DUP6 SUB SLT ISZERO PUSH2 0x61D JUMPI PUSH2 0x61C PUSH2 0xA9C JUMP JUMPDEST JUMPDEST PUSH1 0x0 DUP4 ADD CALLDATALOAD PUSH8 0xFFFFFFFFFFFFFFFF DUP2 GT ISZERO PUSH2 0x63B JUMPI PUSH2 0x63A PUSH2 0xA97 JUMP JUMPDEST JUMPDEST PUSH2 0x647 DUP6 DUP3 DUP7 ADD PUSH2 0x565 JUMP JUMPDEST SWAP3 POP POP PUSH1 0x20 DUP4 ADD CALLDATALOAD PUSH8 0xFFFFFFFFFFFFFFFF DUP2 GT ISZERO PUSH2 0x668 JUMPI PUSH2 0x667 PUSH2 0xA97 JUMP JUMPDEST JUMPDEST PUSH2 0x674 DUP6 DUP3 DUP7 ADD PUSH2 0x537 JUMP JUMPDEST SWAP2 POP POP SWAP3 POP SWAP3 SWAP1 POP JUMP JUMPDEST PUSH1 0x0 PUSH1 0x20 DUP3 DUP5 SUB SLT ISZERO PUSH2 0x694 JUMPI PUSH2 0x693 PUSH2 0xA9C JUMP JUMPDEST JUMPDEST PUSH1 0x0 PUSH2 0x6A2 DUP5 DUP3 DUP6 ADD PUSH2 0x593 JUMP JUMPDEST SWAP2 POP POP SWAP3 SWAP2 POP POP JUMP JUMPDEST PUSH1 0x0 PUSH2 0x6B7 DUP4 DUP4 PUSH2 0x730 JUMP JUMPDEST PUSH1 0x40 DUP4 ADD SWAP1 POP SWAP3 SWAP2 POP POP JUMP JUMPDEST PUSH2 0x6CC DUP2 PUSH2 0x928 JUMP JUMPDEST DUP3 MSTORE POP POP JUMP JUMPDEST PUSH1 0x0 PUSH2 0x6DD DUP3 PUSH2 0x8A9 JUMP JUMPDEST PUSH2 0x6E7 DUP2 DUP6 PUSH2 0x8C1 JUMP JUMPDEST SWAP4 POP PUSH2 0x6F2 DUP4 PUSH2 0x899 JUMP JUMPDEST DUP1 PUSH1 0x0 JUMPDEST DUP4 DUP2 LT ISZERO PUSH2 0x723 JUMPI DUP2 MLOAD PUSH2 0x70A DUP9 DUP3 PUSH2 0x6AB JUMP JUMPDEST SWAP8 POP PUSH2 0x715 DUP4 PUSH2 0x8B4 JUMP JUMPDEST SWAP3 POP POP PUSH1 0x1 DUP2 ADD SWAP1 POP PUSH2 0x6F6 JUMP JUMPDEST POP DUP6 SWAP4 POP POP POP POP SWAP3 SWAP2 POP POP JUMP JUMPDEST PUSH1 0x40 DUP3 ADD PUSH1 0x0 DUP3 ADD MLOAD PUSH2 0x746 PUSH1 0x0 DUP6 ADD DUP3 PUSH2 0x78C JUMP JUMPDEST POP PUSH1 0x20 DUP3 ADD MLOAD PUSH2 0x759 PUSH1 0x20 DUP6 ADD DUP3 PUSH2 0x75F JUMP JUMPDEST POP POP POP POP JUMP JUMPDEST PUSH2 0x768 DUP2 PUSH2 0x95A JUMP JUMPDEST DUP3 MSTORE POP POP JUMP JUMPDEST PUSH2 0x777 DUP2 PUSH2 0x95A JUMP JUMPDEST DUP3 MSTORE POP POP JUMP JUMPDEST PUSH2 0x786 DUP2 PUSH2 0x974 JUMP JUMPDEST DUP3 MSTORE POP POP JUMP JUMPDEST PUSH2 0x795 DUP2 PUSH2 0x964 JUMP JUMPDEST DUP3 MSTORE POP POP JUMP JUMPDEST PUSH1 0x0 PUSH1 0x20 DUP3 ADD SWAP1 POP PUSH2 0x7B0 PUSH1 0x0 DUP4 ADD DUP5 PUSH2 0x6C3 JUMP JUMPDEST SWAP3 SWAP2 POP POP JUMP JUMPDEST PUSH1 0x0 PUSH1 0x40 DUP3 ADD SWAP1 POP PUSH2 0x7CB PUSH1 0x0 DUP4 ADD DUP6 PUSH2 0x6C3 JUMP JUMPDEST PUSH2 0x7D8 PUSH1 0x20 DUP4 ADD DUP5 PUSH2 0x77D JUMP JUMPDEST SWAP4 SWAP3 POP POP POP JUMP JUMPDEST PUSH1 0x0 PUSH1 0x20 DUP3 ADD SWAP1 POP DUP2 DUP2 SUB PUSH1 0x0 DUP4 ADD MSTORE PUSH2 0x7F9 DUP2 DUP5 PUSH2 0x6D2 JUMP JUMPDEST SWAP1 POP SWAP3 SWAP2 POP POP JUMP JUMPDEST PUSH1 0x0 PUSH1 0x20 DUP3 ADD SWAP1 POP PUSH2 0x816 PUSH1 0x0 DUP4 ADD DUP5 PUSH2 0x76E JUMP JUMPDEST SWAP3 SWAP2 POP POP JUMP JUMPDEST PUSH1 0x0 PUSH2 0x826 PUSH2 0x837 JUMP JUMPDEST SWAP1 POP PUSH2 0x832 DUP3 DUP3 PUSH2 0x986 JUMP JUMPDEST SWAP2 SWAP1 POP JUMP JUMPDEST PUSH1 0x0 PUSH1 0x40 MLOAD SWAP1 POP SWAP1 JUMP JUMPDEST PUSH1 0x0 PUSH8 0xFFFFFFFFFFFFFFFF DUP3 GT ISZERO PUSH2 0x85C JUMPI PUSH2 0x85B PUSH2 0xA5E JUMP JUMPDEST JUMPDEST PUSH1 0x20 DUP3 MUL SWAP1 POP PUSH1 0x20 DUP2 ADD SWAP1 POP SWAP2 SWAP1 POP JUMP JUMPDEST PUSH1 0x0 PUSH8 0xFFFFFFFFFFFFFFFF DUP3 GT ISZERO PUSH2 0x888 JUMPI PUSH2 0x887 PUSH2 0xA5E JUMP JUMPDEST JUMPDEST PUSH1 0x20 DUP3 MUL SWAP1 POP PUSH1 0x20 DUP2 ADD SWAP1 POP SWAP2 SWAP1 POP JUMP JUMPDEST PUSH1 0x0 DUP2 SWAP1 POP PUSH1 0x20 DUP3 ADD SWAP1 POP SWAP2 SWAP1 POP JUMP JUMPDEST PUSH1 0x0 DUP2 MLOAD SWAP1 POP SWAP2 SWAP1 POP JUMP JUMPDEST PUSH1 0x0 PUSH1 0x20 DUP3 ADD SWAP1 POP SWAP2 SWAP1 POP JUMP JUMPDEST PUSH1 0x0 DUP3 DUP3 MSTORE PUSH1 0x20 DUP3 ADD SWAP1 POP SWAP3 SWAP2 POP POP JUMP JUMPDEST PUSH1 0x0 PUSH2 0x8DD DUP3 PUSH2 0x95A JUMP JUMPDEST SWAP2 POP PUSH2 0x8E8 DUP4 PUSH2 0x95A JUMP JUMPDEST SWAP3 POP DUP3 PUSH32 0xFFFFFFFFFFFFFFFFFFFFFFFFFFFFFFFFFFFFFFFFFFFFFFFFFFFFFFFFFFFFFFFF SUB DUP3 GT ISZERO PUSH2 0x91D JUMPI PUSH2 0x91C PUSH2 0xA00 JUMP JUMPDEST JUMPDEST DUP3 DUP3 ADD SWAP1 POP SWAP3 SWAP2 POP POP JUMP JUMPDEST PUSH1 0x0 PUSH2 0x933 DUP3 PUSH2 0x93A JUMP JUMPDEST SWAP1 POP SWAP2 SWAP1 POP JUMP JUMPDEST PUSH1 0x0 PUSH20 0xFFFFFFFFFFFFFFFFFFFFFFFFFFFFFFFFFFFFFFFF DUP3 AND SWAP1 POP SWAP2 SWAP1 POP JUMP JUMPDEST PUSH1 0x0 DUP2 SWAP1 POP SWAP2 SWAP1 POP JUMP JUMPDEST PUSH1 0x0 PUSH4 0xFFFFFFFF DUP3 AND SWAP1 POP SWAP2 SWAP1 POP JUMP JUMPDEST PUSH1 0x0 PUSH2 0x97F DUP3 PUSH2 0x964 JUMP JUMPDEST SWAP1 POP SWAP2 SWAP1 POP JUMP JUMPDEST PUSH2 0x98F DUP3 PUSH2 0xAA1 JUMP JUMPDEST DUP2 ADD DUP2 DUP2 LT PUSH8 0xFFFFFFFFFFFFFFFF DUP3 GT OR ISZERO PUSH2 0x9AE JUMPI PUSH2 0x9AD PUSH2 0xA5E JUMP JUMPDEST JUMPDEST DUP1 PUSH1 0x40 MSTORE POP POP POP JUMP JUMPDEST PUSH1 0x0 PUSH2 0x9C2 DUP3 PUSH2 0x95A JUMP JUMPDEST SWAP2 POP PUSH32 0xFFFFFFFFFFFFFFFFFFFFFFFFFFFFFFFFFFFFFFFFFFFFFFFFFFFFFFFFFFFFFFFF DUP3 EQ ISZERO PUSH2 0x9F5 JUMPI PUSH2 0x9F4 PUSH2 0xA00 JUMP JUMPDEST JUMPDEST PUSH1 0x1 DUP3 ADD SWAP1 POP SWAP2 SWAP1 POP JUMP JUMPDEST PUSH32 0x4E487B7100000000000000000000000000000000000000000000000000000000 PUSH1 0x0 MSTORE PUSH1 0x11 PUSH1 0x4 MSTORE PUSH1 0x24 PUSH1 0x0 REVERT JUMPDEST PUSH32 0x4E487B7100000000000000000000000000000000000000000000000000000000 PUSH1 0x0 MSTORE PUSH1 0x32 PUSH1 0x4 MSTORE PUSH1 0x24 PUSH1 0x0 REVERT JUMPDEST PUSH32 0x4E487B7100000000000000000000000000000000000000000000000000000000 PUSH1 0x0 MSTORE PUSH1 0x41 PUSH1 0x4 MSTORE PUSH1 0x24 PUSH1 0x0 REVERT JUMPDEST PUSH1 0x0 DUP1 REVERT JUMPDEST PUSH1 0x0 DUP1 REVERT JUMPDEST PUSH1 0x0 DUP1 REVERT JUMPDEST PUSH1 0x0 DUP1 REVERT JUMPDEST PUSH1 0x0 PUSH1 0x1F NOT PUSH1 0x1F DUP4 ADD AND SWAP1 POP SWAP2 SWAP1 POP JUMP JUMPDEST PUSH2 0xABB DUP2 PUSH2 0x928 JUMP JUMPDEST DUP2 EQ PUSH2 0xAC6 JUMPI PUSH1 0x0 DUP1 REVERT JUMPDEST POP JUMP JUMPDEST PUSH2 0xAD2 DUP2 PUSH2 0x95A JUMP JUMPDEST DUP2 EQ PUSH2 0xADD JUMPI PUSH1 0x0 DUP1 REVERT JUMPDEST POP JUMP JUMPDEST PUSH2 0xAE9 DUP2 PUSH2 0x964 JUMP JUMPDEST DUP2 EQ PUSH2 0xAF4 JUMPI PUSH1 0x0 DUP1 REVERT JUMPDEST POP JUMP INVALID LOG2 PUSH5 0x6970667358 0x22 SLT KECCAK256 PUSH6 0x743AB22D33F4 0xC6 0xD9 AND 0x25 PUSH3 0x59AC4B SWAP10 COINBASE EXTCODECOPY DUP5 0xDC 0x1F ORIGIN ISZERO 0xD0 POP 0xF8 0xFB 0xE9 0xB8 0xBC 0xC3 GASPRICE PUSH5 0x736F6C6343 STOP ADDMOD SMOD STOP CALLER "
				},
				"gasEstimates": {
					"creation": {
						"codeDepositCost": "572200",
						"executionCost": "infinite",
						"totalCost": "infinite"
					},
					"external": {
						"GetStakedBalance(uint32[],address[])": "infinite",
						"getTokenBalanceOf(address[])": "infinite"
					}
				},
				"methodIdentifiers": {
					"GetStakedBalance(uint32[],address[])": "77969091",
					"getTokenBalanceOf(address[])": "0a5f75b6"
				}
			},
			"storageLayout": {
				"storage": [
					{
						"astId": 826,
						"contract": "contracts/BalanceHelper.sol:BalanceHelper",
						"label": "_token",
						"offset": 0,
						"slot": "0",
						"type": "t_contract(IERC20)181"
					},
					{
						"astId": 829,
						"contract": "contracts/BalanceHelper.sol:BalanceHelper",
						"label": "_masterEntertainer",
						"offset": 0,
						"slot": "1",
						"type": "t_contract(IMasterEntertainer)1022"
					}
				],
				"types": {
					"t_contract(IERC20)181": {
						"encoding": "inplace",
						"label": "contract IERC20",
						"numberOfBytes": "20"
					},
					"t_contract(IMasterEntertainer)1022": {
						"encoding": "inplace",
						"label": "contract IMasterEntertainer",
						"numberOfBytes": "20"
					}
				}
			},
			"userdoc": {
				"kind": "user",
				"methods": {},
				"version": 1
			}
		}
	}
}