{
	"contracts/PreSale.sol": {
		"PreSale": {
			"abi": [
				{
					"inputs": [
						{
							"internalType": "contract IERC20",
							"name": "_rewardToken",
							"type": "address"
						},
						{
							"internalType": "contract IERC20",
							"name": "_paymentToken",
							"type": "address"
						},
						{
							"internalType": "uint256",
							"name": "_limit",
							"type": "uint256"
						},
						{
							"internalType": "uint256",
							"name": "_softcap",
							"type": "uint256"
						},
						{
							"internalType": "uint256",
							"name": "_price",
							"type": "uint256"
						}
					],
					"stateMutability": "nonpayable",
					"type": "constructor"
				},
				{
					"anonymous": false,
					"inputs": [
						{
							"indexed": true,
							"internalType": "uint256",
							"name": "amount",
							"type": "uint256"
						}
					],
					"name": "AddedToWhitelist",
					"type": "event"
				},
				{
					"anonymous": false,
					"inputs": [
						{
							"indexed": true,
							"internalType": "uint256",
							"name": "amount",
							"type": "uint256"
						}
					],
					"name": "AddedToWhitelistFromSaft",
					"type": "event"
				},
				{
					"anonymous": false,
					"inputs": [
						{
							"indexed": true,
							"internalType": "address",
							"name": "buyer",
							"type": "address"
						},
						{
							"indexed": true,
							"internalType": "uint256",
							"name": "amount",
							"type": "uint256"
						}
					],
					"name": "Bought",
					"type": "event"
				},
				{
					"anonymous": false,
					"inputs": [
						{
							"indexed": true,
							"internalType": "address",
							"name": "newToken",
							"type": "address"
						}
					],
					"name": "ChangeRewardToken",
					"type": "event"
				},
				{
					"anonymous": false,
					"inputs": [
						{
							"indexed": true,
							"internalType": "address",
							"name": "owner",
							"type": "address"
						},
						{
							"indexed": true,
							"internalType": "uint256",
							"name": "amount",
							"type": "uint256"
						}
					],
					"name": "Claimed",
					"type": "event"
				},
				{
					"anonymous": false,
					"inputs": [
						{
							"indexed": true,
							"internalType": "address",
							"name": "owner",
							"type": "address"
						},
						{
							"indexed": true,
							"internalType": "uint256",
							"name": "amount",
							"type": "uint256"
						}
					],
					"name": "DepositedInVestingPool",
					"type": "event"
				},
				{
					"anonymous": false,
					"inputs": [
						{
							"indexed": true,
							"internalType": "address",
							"name": "previousOwner",
							"type": "address"
						},
						{
							"indexed": true,
							"internalType": "address",
							"name": "newOwner",
							"type": "address"
						}
					],
					"name": "OwnershipTransferred",
					"type": "event"
				},
				{
					"anonymous": false,
					"inputs": [
						{
							"indexed": true,
							"internalType": "uint256",
							"name": "claimDate",
							"type": "uint256"
						}
					],
					"name": "SaleEnded",
					"type": "event"
				},
				{
					"inputs": [
						{
							"internalType": "address",
							"name": "",
							"type": "address"
						}
					],
					"name": "bought",
					"outputs": [
						{
							"internalType": "uint256",
							"name": "",
							"type": "uint256"
						}
					],
					"stateMutability": "view",
					"type": "function"
				},
				{
					"inputs": [
						{
							"internalType": "uint256",
							"name": "amount",
							"type": "uint256"
						}
					],
					"name": "buy",
					"outputs": [],
					"stateMutability": "payable",
					"type": "function"
				},
				{
					"inputs": [
						{
							"internalType": "address",
							"name": "",
							"type": "address"
						}
					],
					"name": "claimed",
					"outputs": [
						{
							"internalType": "uint256",
							"name": "",
							"type": "uint256"
						}
					],
					"stateMutability": "view",
					"type": "function"
				},
				{
					"inputs": [
						{
							"internalType": "address",
							"name": "",
							"type": "address"
						}
					],
					"name": "claimedTokens",
					"outputs": [
						{
							"internalType": "uint256",
							"name": "",
							"type": "uint256"
						}
					],
					"stateMutability": "view",
					"type": "function"
				},
				{
					"inputs": [],
					"name": "getRemainingBalance",
					"outputs": [
						{
							"internalType": "uint256",
							"name": "",
							"type": "uint256"
						}
					],
					"stateMutability": "view",
					"type": "function"
				},
				{
					"inputs": [
						{
							"internalType": "address",
							"name": "",
							"type": "address"
						}
					],
					"name": "lastClaimAddress",
					"outputs": [
						{
							"internalType": "address",
							"name": "",
							"type": "address"
						}
					],
					"stateMutability": "view",
					"type": "function"
				},
				{
					"inputs": [],
					"name": "owner",
					"outputs": [
						{
							"internalType": "address",
							"name": "",
							"type": "address"
						}
					],
					"stateMutability": "view",
					"type": "function"
				},
				{
					"inputs": [],
					"name": "paymentToken",
					"outputs": [
						{
							"internalType": "contract IERC20",
							"name": "",
							"type": "address"
						}
					],
					"stateMutability": "view",
					"type": "function"
				},
				{
					"inputs": [],
					"name": "pricePerToken",
					"outputs": [
						{
							"internalType": "uint256",
							"name": "",
							"type": "uint256"
						}
					],
					"stateMutability": "view",
					"type": "function"
				},
				{
					"inputs": [],
					"name": "renounceOwnership",
					"outputs": [],
					"stateMutability": "nonpayable",
					"type": "function"
				},
				{
					"inputs": [],
					"name": "rewardToken",
					"outputs": [
						{
							"internalType": "contract IERC20",
							"name": "",
							"type": "address"
						}
					],
					"stateMutability": "view",
					"type": "function"
				},
				{
					"inputs": [
						{
							"internalType": "address",
							"name": "newOwner",
							"type": "address"
						}
					],
					"name": "transferOwnership",
					"outputs": [],
					"stateMutability": "nonpayable",
					"type": "function"
				},
				{
					"inputs": [
						{
							"internalType": "contract IERC20",
							"name": "_newRewardToken",
							"type": "address"
						}
					],
					"name": "updateRewardToken",
					"outputs": [],
					"stateMutability": "nonpayable",
					"type": "function"
				}
			],
			"devdoc": {
				"kind": "dev",
				"methods": {
					"owner()": {
						"details": "Returns the address of the current owner."
					},
					"renounceOwnership()": {
						"details": "Leaves the contract without owner. It will not be possible to call `onlyOwner` functions anymore. Can only be called by the current owner. NOTE: Renouncing ownership will leave the contract without an owner, thereby removing any functionality that is only available to the owner."
					},
					"transferOwnership(address)": {
						"details": "Transfers ownership of the contract to a new account (`newOwner`). Can only be called by the current owner."
					}
				},
				"version": 1
			},
			"evm": {
				"assembly": "    /* \"contracts/PreSale.sol\":434:5120  contract PreSale is Ownable {... */\n  mstore(0x40, 0x80)\n    /* \"contracts/PreSale.sol\":2160:2457  constructor(IERC20 _rewardToken, IERC20 _paymentToken, uint256 _limit, uint256 _softcap, uint256 _price) {... */\n  callvalue\n  dup1\n  iszero\n  tag_1\n  jumpi\n  0x00\n  dup1\n  revert\ntag_1:\n  pop\n  mload(0x40)\n  sub(codesize, bytecodeSize)\n  dup1\n  bytecodeSize\n  dup4\n  codecopy\n  dup2\n  dup2\n  add\n  0x40\n  mstore\n  dup2\n  add\n  swap1\n  tag_2\n  swap2\n  swap1\n  tag_3\n  jump\t// in\ntag_2:\n    /* \"@openzeppelin/contracts/access/Ownable.sol\":867:890  _setOwner(_msgSender()) */\n  tag_7\n    /* \"@openzeppelin/contracts/access/Ownable.sol\":877:889  _msgSender() */\n  tag_8\n    /* \"@openzeppelin/contracts/access/Ownable.sol\":877:887  _msgSender */\n  shl(0x20, tag_9)\n    /* \"@openzeppelin/contracts/access/Ownable.sol\":877:889  _msgSender() */\n  0x20\n  shr\n  jump\t// in\ntag_8:\n    /* \"@openzeppelin/contracts/access/Ownable.sol\":867:876  _setOwner */\n  shl(0x20, tag_10)\n    /* \"@openzeppelin/contracts/access/Ownable.sol\":867:890  _setOwner(_msgSender()) */\n  0x20\n  shr\n  jump\t// in\ntag_7:\n    /* \"contracts/PreSale.sol\":2292:2293  0 */\n  0x00\n    /* \"contracts/PreSale.sol\":2283:2289  _price */\n  dup2\n    /* \"contracts/PreSale.sol\":2283:2293  _price > 0 */\n  gt\n    /* \"contracts/PreSale.sol\":2275:2344  require(_price > 0, \"ABOAT::error: Price has to be higher than zero\") */\n  tag_12\n  jumpi\n  mload(0x40)\n  0x08c379a000000000000000000000000000000000000000000000000000000000\n  dup2\n  mstore\n  0x04\n  add\n  tag_13\n  swap1\n  tag_14\n  jump\t// in\ntag_13:\n  mload(0x40)\n  dup1\n  swap2\n  sub\n  swap1\n  revert\ntag_12:\n    /* \"contracts/PreSale.sol\":2368:2380  _rewardToken */\n  dup5\n    /* \"contracts/PreSale.sol\":2354:2365  rewardToken */\n  0x01\n  0x00\n    /* \"contracts/PreSale.sol\":2354:2380  rewardToken = _rewardToken */\n  0x0100\n  exp\n  dup2\n  sload\n  dup2\n  0xffffffffffffffffffffffffffffffffffffffff\n  mul\n  not\n  and\n  swap1\n  dup4\n  0xffffffffffffffffffffffffffffffffffffffff\n  and\n  mul\n  or\n  swap1\n  sstore\n  pop\n    /* \"contracts/PreSale.sol\":2405:2418  _paymentToken */\n  dup4\n    /* \"contracts/PreSale.sol\":2390:2402  paymentToken */\n  0x02\n  0x00\n    /* \"contracts/PreSale.sol\":2390:2418  paymentToken = _paymentToken */\n  0x0100\n  exp\n  dup2\n  sload\n  dup2\n  0xffffffffffffffffffffffffffffffffffffffff\n  mul\n  not\n  and\n  swap1\n  dup4\n  0xffffffffffffffffffffffffffffffffffffffff\n  and\n  mul\n  or\n  swap1\n  sstore\n  pop\n    /* \"contracts/PreSale.sol\":2444:2450  _price */\n  dup1\n    /* \"contracts/PreSale.sol\":2428:2441  pricePerToken */\n  0x03\n    /* \"contracts/PreSale.sol\":2428:2450  pricePerToken = _price */\n  dup2\n  swap1\n  sstore\n  pop\n    /* \"contracts/PreSale.sol\":2160:2457  constructor(IERC20 _rewardToken, IERC20 _paymentToken, uint256 _limit, uint256 _softcap, uint256 _price) {... */\n  pop\n  pop\n  pop\n  pop\n  pop\n    /* \"contracts/PreSale.sol\":434:5120  contract PreSale is Ownable {... */\n  jump(tag_15)\n    /* \"@openzeppelin/contracts/utils/Context.sol\":586:682  function _msgSender() internal view virtual returns (address) {... */\ntag_9:\n    /* \"@openzeppelin/contracts/utils/Context.sol\":639:646  address */\n  0x00\n    /* \"@openzeppelin/contracts/utils/Context.sol\":665:675  msg.sender */\n  caller\n    /* \"@openzeppelin/contracts/utils/Context.sol\":658:675  return msg.sender */\n  swap1\n  pop\n    /* \"@openzeppelin/contracts/utils/Context.sol\":586:682  function _msgSender() internal view virtual returns (address) {... */\n  swap1\n  jump\t// out\n    /* \"@openzeppelin/contracts/access/Ownable.sol\":2041:2210  function _setOwner(address newOwner) private {... */\ntag_10:\n    /* \"@openzeppelin/contracts/access/Ownable.sol\":2096:2112  address oldOwner */\n  0x00\n    /* \"@openzeppelin/contracts/access/Ownable.sol\":2115:2121  _owner */\n  dup1\n  0x00\n  swap1\n  sload\n  swap1\n  0x0100\n  exp\n  swap1\n  div\n  0xffffffffffffffffffffffffffffffffffffffff\n  and\n    /* \"@openzeppelin/contracts/access/Ownable.sol\":2096:2121  address oldOwner = _owner */\n  swap1\n  pop\n    /* \"@openzeppelin/contracts/access/Ownable.sol\":2140:2148  newOwner */\n  dup2\n    /* \"@openzeppelin/contracts/access/Ownable.sol\":2131:2137  _owner */\n  0x00\n  dup1\n    /* \"@openzeppelin/contracts/access/Ownable.sol\":2131:2148  _owner = newOwner */\n  0x0100\n  exp\n  dup2\n  sload\n  dup2\n  0xffffffffffffffffffffffffffffffffffffffff\n  mul\n  not\n  and\n  swap1\n  dup4\n  0xffffffffffffffffffffffffffffffffffffffff\n  and\n  mul\n  or\n  swap1\n  sstore\n  pop\n    /* \"@openzeppelin/contracts/access/Ownable.sol\":2194:2202  newOwner */\n  dup2\n    /* \"@openzeppelin/contracts/access/Ownable.sol\":2163:2203  OwnershipTransferred(oldOwner, newOwner) */\n  0xffffffffffffffffffffffffffffffffffffffff\n  and\n    /* \"@openzeppelin/contracts/access/Ownable.sol\":2184:2192  oldOwner */\n  dup2\n    /* \"@openzeppelin/contracts/access/Ownable.sol\":2163:2203  OwnershipTransferred(oldOwner, newOwner) */\n  0xffffffffffffffffffffffffffffffffffffffff\n  and\n  0x8be0079c531659141344cd1fd0a4f28419497f9722a3daafe3b4186f6b6457e0\n  mload(0x40)\n  mload(0x40)\n  dup1\n  swap2\n  sub\n  swap1\n  log3\n    /* \"@openzeppelin/contracts/access/Ownable.sol\":2086:2210  {... */\n  pop\n    /* \"@openzeppelin/contracts/access/Ownable.sol\":2041:2210  function _setOwner(address newOwner) private {... */\n  pop\n  jump\t// out\n    /* \"#utility.yul\":7:178   */\ntag_19:\n    /* \"#utility.yul\":78:83   */\n  0x00\n    /* \"#utility.yul\":109:115   */\n  dup2\n    /* \"#utility.yul\":103:116   */\n  mload\n    /* \"#utility.yul\":94:116   */\n  swap1\n  pop\n    /* \"#utility.yul\":125:172   */\n  tag_21\n    /* \"#utility.yul\":166:171   */\n  dup2\n    /* \"#utility.yul\":125:172   */\n  tag_22\n  jump\t// in\ntag_21:\n    /* \"#utility.yul\":7:178   */\n  swap3\n  swap2\n  pop\n  pop\n  jump\t// out\n    /* \"#utility.yul\":184:327   */\ntag_23:\n    /* \"#utility.yul\":241:246   */\n  0x00\n    /* \"#utility.yul\":272:278   */\n  dup2\n    /* \"#utility.yul\":266:279   */\n  mload\n    /* \"#utility.yul\":257:279   */\n  swap1\n  pop\n    /* \"#utility.yul\":288:321   */\n  tag_25\n    /* \"#utility.yul\":315:320   */\n  dup2\n    /* \"#utility.yul\":288:321   */\n  tag_26\n  jump\t// in\ntag_25:\n    /* \"#utility.yul\":184:327   */\n  swap3\n  swap2\n  pop\n  pop\n  jump\t// out\n    /* \"#utility.yul\":333:1366   */\ntag_3:\n    /* \"#utility.yul\":467:473   */\n  0x00\n    /* \"#utility.yul\":475:481   */\n  dup1\n    /* \"#utility.yul\":483:489   */\n  0x00\n    /* \"#utility.yul\":491:497   */\n  dup1\n    /* \"#utility.yul\":499:505   */\n  0x00\n    /* \"#utility.yul\":548:551   */\n  0xa0\n    /* \"#utility.yul\":536:545   */\n  dup7\n    /* \"#utility.yul\":527:534   */\n  dup9\n    /* \"#utility.yul\":523:546   */\n  sub\n    /* \"#utility.yul\":519:552   */\n  slt\n    /* \"#utility.yul\":516:636   */\n  iszero\n  tag_28\n  jumpi\n    /* \"#utility.yul\":555:634   */\n  tag_29\n  tag_30\n  jump\t// in\ntag_29:\n    /* \"#utility.yul\":516:636   */\ntag_28:\n    /* \"#utility.yul\":675:676   */\n  0x00\n    /* \"#utility.yul\":700:778   */\n  tag_31\n    /* \"#utility.yul\":770:777   */\n  dup9\n    /* \"#utility.yul\":761:767   */\n  dup3\n    /* \"#utility.yul\":750:759   */\n  dup10\n    /* \"#utility.yul\":746:768   */\n  add\n    /* \"#utility.yul\":700:778   */\n  tag_19\n  jump\t// in\ntag_31:\n    /* \"#utility.yul\":690:778   */\n  swap6\n  pop\n    /* \"#utility.yul\":646:788   */\n  pop\n    /* \"#utility.yul\":827:829   */\n  0x20\n    /* \"#utility.yul\":853:931   */\n  tag_32\n    /* \"#utility.yul\":923:930   */\n  dup9\n    /* \"#utility.yul\":914:920   */\n  dup3\n    /* \"#utility.yul\":903:912   */\n  dup10\n    /* \"#utility.yul\":899:921   */\n  add\n    /* \"#utility.yul\":853:931   */\n  tag_19\n  jump\t// in\ntag_32:\n    /* \"#utility.yul\":843:931   */\n  swap5\n  pop\n    /* \"#utility.yul\":798:941   */\n  pop\n    /* \"#utility.yul\":980:982   */\n  0x40\n    /* \"#utility.yul\":1006:1070   */\n  tag_33\n    /* \"#utility.yul\":1062:1069   */\n  dup9\n    /* \"#utility.yul\":1053:1059   */\n  dup3\n    /* \"#utility.yul\":1042:1051   */\n  dup10\n    /* \"#utility.yul\":1038:1060   */\n  add\n    /* \"#utility.yul\":1006:1070   */\n  tag_23\n  jump\t// in\ntag_33:\n    /* \"#utility.yul\":996:1070   */\n  swap4\n  pop\n    /* \"#utility.yul\":951:1080   */\n  pop\n    /* \"#utility.yul\":1119:1121   */\n  0x60\n    /* \"#utility.yul\":1145:1209   */\n  tag_34\n    /* \"#utility.yul\":1201:1208   */\n  dup9\n    /* \"#utility.yul\":1192:1198   */\n  dup3\n    /* \"#utility.yul\":1181:1190   */\n  dup10\n    /* \"#utility.yul\":1177:1199   */\n  add\n    /* \"#utility.yul\":1145:1209   */\n  tag_23\n  jump\t// in\ntag_34:\n    /* \"#utility.yul\":1135:1209   */\n  swap3\n  pop\n    /* \"#utility.yul\":1090:1219   */\n  pop\n    /* \"#utility.yul\":1258:1261   */\n  0x80\n    /* \"#utility.yul\":1285:1349   */\n  tag_35\n    /* \"#utility.yul\":1341:1348   */\n  dup9\n    /* \"#utility.yul\":1332:1338   */\n  dup3\n    /* \"#utility.yul\":1321:1330   */\n  dup10\n    /* \"#utility.yul\":1317:1339   */\n  add\n    /* \"#utility.yul\":1285:1349   */\n  tag_23\n  jump\t// in\ntag_35:\n    /* \"#utility.yul\":1275:1349   */\n  swap2\n  pop\n    /* \"#utility.yul\":1229:1359   */\n  pop\n    /* \"#utility.yul\":333:1366   */\n  swap3\n  swap6\n  pop\n  swap3\n  swap6\n  swap1\n  swap4\n  pop\n  jump\t// out\n    /* \"#utility.yul\":1372:1738   */\ntag_36:\n    /* \"#utility.yul\":1514:1517   */\n  0x00\n    /* \"#utility.yul\":1535:1602   */\n  tag_38\n    /* \"#utility.yul\":1599:1601   */\n  0x2e\n    /* \"#utility.yul\":1594:1597   */\n  dup4\n    /* \"#utility.yul\":1535:1602   */\n  tag_39\n  jump\t// in\ntag_38:\n    /* \"#utility.yul\":1528:1602   */\n  swap2\n  pop\n    /* \"#utility.yul\":1611:1704   */\n  tag_40\n    /* \"#utility.yul\":1700:1703   */\n  dup3\n    /* \"#utility.yul\":1611:1704   */\n  tag_41\n  jump\t// in\ntag_40:\n    /* \"#utility.yul\":1729:1731   */\n  0x40\n    /* \"#utility.yul\":1724:1727   */\n  dup3\n    /* \"#utility.yul\":1720:1732   */\n  add\n    /* \"#utility.yul\":1713:1732   */\n  swap1\n  pop\n    /* \"#utility.yul\":1372:1738   */\n  swap2\n  swap1\n  pop\n  jump\t// out\n    /* \"#utility.yul\":1744:2163   */\ntag_14:\n    /* \"#utility.yul\":1910:1914   */\n  0x00\n    /* \"#utility.yul\":1948:1950   */\n  0x20\n    /* \"#utility.yul\":1937:1946   */\n  dup3\n    /* \"#utility.yul\":1933:1951   */\n  add\n    /* \"#utility.yul\":1925:1951   */\n  swap1\n  pop\n    /* \"#utility.yul\":1997:2006   */\n  dup2\n    /* \"#utility.yul\":1991:1995   */\n  dup2\n    /* \"#utility.yul\":1987:2007   */\n  sub\n    /* \"#utility.yul\":1983:1984   */\n  0x00\n    /* \"#utility.yul\":1972:1981   */\n  dup4\n    /* \"#utility.yul\":1968:1985   */\n  add\n    /* \"#utility.yul\":1961:2008   */\n  mstore\n    /* \"#utility.yul\":2025:2156   */\n  tag_43\n    /* \"#utility.yul\":2151:2155   */\n  dup2\n    /* \"#utility.yul\":2025:2156   */\n  tag_36\n  jump\t// in\ntag_43:\n    /* \"#utility.yul\":2017:2156   */\n  swap1\n  pop\n    /* \"#utility.yul\":1744:2163   */\n  swap2\n  swap1\n  pop\n  jump\t// out\n    /* \"#utility.yul\":2250:2419   */\ntag_39:\n    /* \"#utility.yul\":2334:2345   */\n  0x00\n    /* \"#utility.yul\":2368:2374   */\n  dup3\n    /* \"#utility.yul\":2363:2366   */\n  dup3\n    /* \"#utility.yul\":2356:2375   */\n  mstore\n    /* \"#utility.yul\":2408:2412   */\n  0x20\n    /* \"#utility.yul\":2403:2406   */\n  dup3\n    /* \"#utility.yul\":2399:2413   */\n  add\n    /* \"#utility.yul\":2384:2413   */\n  swap1\n  pop\n    /* \"#utility.yul\":2250:2419   */\n  swap3\n  swap2\n  pop\n  pop\n  jump\t// out\n    /* \"#utility.yul\":2425:2521   */\ntag_47:\n    /* \"#utility.yul\":2462:2469   */\n  0x00\n    /* \"#utility.yul\":2491:2515   */\n  tag_49\n    /* \"#utility.yul\":2509:2514   */\n  dup3\n    /* \"#utility.yul\":2491:2515   */\n  tag_50\n  jump\t// in\ntag_49:\n    /* \"#utility.yul\":2480:2515   */\n  swap1\n  pop\n    /* \"#utility.yul\":2425:2521   */\n  swap2\n  swap1\n  pop\n  jump\t// out\n    /* \"#utility.yul\":2527:2637   */\ntag_51:\n    /* \"#utility.yul\":2578:2585   */\n  0x00\n    /* \"#utility.yul\":2607:2631   */\n  tag_53\n    /* \"#utility.yul\":2625:2630   */\n  dup3\n    /* \"#utility.yul\":2607:2631   */\n  tag_47\n  jump\t// in\ntag_53:\n    /* \"#utility.yul\":2596:2631   */\n  swap1\n  pop\n    /* \"#utility.yul\":2527:2637   */\n  swap2\n  swap1\n  pop\n  jump\t// out\n    /* \"#utility.yul\":2643:2769   */\ntag_50:\n    /* \"#utility.yul\":2680:2687   */\n  0x00\n    /* \"#utility.yul\":2720:2762   */\n  0xffffffffffffffffffffffffffffffffffffffff\n    /* \"#utility.yul\":2713:2718   */\n  dup3\n    /* \"#utility.yul\":2709:2763   */\n  and\n    /* \"#utility.yul\":2698:2763   */\n  swap1\n  pop\n    /* \"#utility.yul\":2643:2769   */\n  swap2\n  swap1\n  pop\n  jump\t// out\n    /* \"#utility.yul\":2775:2852   */\ntag_55:\n    /* \"#utility.yul\":2812:2819   */\n  0x00\n    /* \"#utility.yul\":2841:2846   */\n  dup2\n    /* \"#utility.yul\":2830:2846   */\n  swap1\n  pop\n    /* \"#utility.yul\":2775:2852   */\n  swap2\n  swap1\n  pop\n  jump\t// out\n    /* \"#utility.yul\":2981:3098   */\ntag_30:\n    /* \"#utility.yul\":3090:3091   */\n  0x00\n    /* \"#utility.yul\":3087:3088   */\n  dup1\n    /* \"#utility.yul\":3080:3092   */\n  revert\n    /* \"#utility.yul\":3104:3337   */\ntag_41:\n    /* \"#utility.yul\":3244:3278   */\n  0x41424f41543a3a6572726f723a2050726963652068617320746f206265206869\n    /* \"#utility.yul\":3240:3241   */\n  0x00\n    /* \"#utility.yul\":3232:3238   */\n  dup3\n    /* \"#utility.yul\":3228:3242   */\n  add\n    /* \"#utility.yul\":3221:3279   */\n  mstore\n    /* \"#utility.yul\":3313:3329   */\n  0x67686572207468616e207a65726f000000000000000000000000000000000000\n    /* \"#utility.yul\":3308:3310   */\n  0x20\n    /* \"#utility.yul\":3300:3306   */\n  dup3\n    /* \"#utility.yul\":3296:3311   */\n  add\n    /* \"#utility.yul\":3289:3330   */\n  mstore\n    /* \"#utility.yul\":3104:3337   */\n  pop\n  jump\t// out\n    /* \"#utility.yul\":3343:3493   */\ntag_22:\n    /* \"#utility.yul\":3430:3468   */\n  tag_62\n    /* \"#utility.yul\":3462:3467   */\n  dup2\n    /* \"#utility.yul\":3430:3468   */\n  tag_51\n  jump\t// in\ntag_62:\n    /* \"#utility.yul\":3423:3428   */\n  dup2\n    /* \"#utility.yul\":3420:3469   */\n  eq\n    /* \"#utility.yul\":3410:3487   */\n  tag_63\n  jumpi\n    /* \"#utility.yul\":3483:3484   */\n  0x00\n    /* \"#utility.yul\":3480:3481   */\n  dup1\n    /* \"#utility.yul\":3473:3485   */\n  revert\n    /* \"#utility.yul\":3410:3487   */\ntag_63:\n    /* \"#utility.yul\":3343:3493   */\n  pop\n  jump\t// out\n    /* \"#utility.yul\":3499:3621   */\ntag_26:\n    /* \"#utility.yul\":3572:3596   */\n  tag_65\n    /* \"#utility.yul\":3590:3595   */\n  dup2\n    /* \"#utility.yul\":3572:3596   */\n  tag_55\n  jump\t// in\ntag_65:\n    /* \"#utility.yul\":3565:3570   */\n  dup2\n    /* \"#utility.yul\":3562:3597   */\n  eq\n    /* \"#utility.yul\":3552:3615   */\n  tag_66\n  jumpi\n    /* \"#utility.yul\":3611:3612   */\n  0x00\n    /* \"#utility.yul\":3608:3609   */\n  dup1\n    /* \"#utility.yul\":3601:3613   */\n  revert\n    /* \"#utility.yul\":3552:3615   */\ntag_66:\n    /* \"#utility.yul\":3499:3621   */\n  pop\n  jump\t// out\n    /* \"contracts/PreSale.sol\":434:5120  contract PreSale is Ownable {... */\ntag_15:\n  dataSize(sub_0)\n  dup1\n  dataOffset(sub_0)\n  0x00\n  codecopy\n  0x00\n  return\nstop\n\nsub_0: assembly {\n        /* \"contracts/PreSale.sol\":434:5120  contract PreSale is Ownable {... */\n      mstore(0x40, 0x80)\n      jumpi(tag_1, lt(calldatasize, 0x04))\n      shr(0xe0, calldataload(0x00))\n      dup1\n      0xa960c65f\n      gt\n      tag_15\n      jumpi\n      dup1\n      0xf2fde38b\n      gt\n      tag_16\n      jumpi\n      dup1\n      0xf2fde38b\n      eq\n      tag_11\n      jumpi\n      dup1\n      0xf3739e05\n      eq\n      tag_12\n      jumpi\n      dup1\n      0xf7c618c1\n      eq\n      tag_13\n      jumpi\n      dup1\n      0xf8cf31cb\n      eq\n      tag_14\n      jumpi\n      jump(tag_1)\n    tag_16:\n      dup1\n      0xa960c65f\n      eq\n      tag_8\n      jumpi\n      dup1\n      0xc884ef83\n      eq\n      tag_9\n      jumpi\n      dup1\n      0xd96a094a\n      eq\n      tag_10\n      jumpi\n      jump(tag_1)\n    tag_15:\n      dup1\n      0x2fba2c85\n      eq\n      tag_2\n      jumpi\n      dup1\n      0x3013ce29\n      eq\n      tag_3\n      jumpi\n      dup1\n      0x667022fd\n      eq\n      tag_4\n      jumpi\n      dup1\n      0x715018a6\n      eq\n      tag_5\n      jumpi\n      dup1\n      0x7b1b1de6\n      eq\n      tag_6\n      jumpi\n      dup1\n      0x8da5cb5b\n      eq\n      tag_7\n      jumpi\n    tag_1:\n      0x00\n      dup1\n      revert\n        /* \"contracts/PreSale.sol\":3583:3893  function getRemainingBalance() public view returns(uint256) {... */\n    tag_2:\n      callvalue\n      dup1\n      iszero\n      tag_17\n      jumpi\n      0x00\n      dup1\n      revert\n    tag_17:\n      pop\n      tag_18\n      tag_19\n      jump\t// in\n    tag_18:\n      mload(0x40)\n      tag_20\n      swap2\n      swap1\n      tag_21\n      jump\t// in\n    tag_20:\n      mload(0x40)\n      dup1\n      swap2\n      sub\n      swap1\n      return\n        /* \"contracts/PreSale.sol\":922:948  IERC20 public paymentToken */\n    tag_3:\n      callvalue\n      dup1\n      iszero\n      tag_22\n      jumpi\n      0x00\n      dup1\n      revert\n    tag_22:\n      pop\n      tag_23\n      tag_24\n      jump\t// in\n    tag_23:\n      mload(0x40)\n      tag_25\n      swap2\n      swap1\n      tag_26\n      jump\t// in\n    tag_25:\n      mload(0x40)\n      dup1\n      swap2\n      sub\n      swap1\n      return\n        /* \"contracts/PreSale.sol\":1024:1065  mapping(address => uint256) public bought */\n    tag_4:\n      callvalue\n      dup1\n      iszero\n      tag_27\n      jumpi\n      0x00\n      dup1\n      revert\n    tag_27:\n      pop\n      tag_28\n      0x04\n      dup1\n      calldatasize\n      sub\n      dup2\n      add\n      swap1\n      tag_29\n      swap2\n      swap1\n      tag_30\n      jump\t// in\n    tag_29:\n      tag_31\n      jump\t// in\n    tag_28:\n      mload(0x40)\n      tag_32\n      swap2\n      swap1\n      tag_21\n      jump\t// in\n    tag_32:\n      mload(0x40)\n      dup1\n      swap2\n      sub\n      swap1\n      return\n        /* \"@openzeppelin/contracts/access/Ownable.sol\":1605:1697  function renounceOwnership() public virtual onlyOwner {... */\n    tag_5:\n      callvalue\n      dup1\n      iszero\n      tag_33\n      jumpi\n      0x00\n      dup1\n      revert\n    tag_33:\n      pop\n      tag_34\n      tag_35\n      jump\t// in\n    tag_34:\n      stop\n        /* \"contracts/PreSale.sol\":962:990  uint256 public pricePerToken */\n    tag_6:\n      callvalue\n      dup1\n      iszero\n      tag_36\n      jumpi\n      0x00\n      dup1\n      revert\n    tag_36:\n      pop\n      tag_37\n      tag_38\n      jump\t// in\n    tag_37:\n      mload(0x40)\n      tag_39\n      swap2\n      swap1\n      tag_21\n      jump\t// in\n    tag_39:\n      mload(0x40)\n      dup1\n      swap2\n      sub\n      swap1\n      return\n        /* \"@openzeppelin/contracts/access/Ownable.sol\":973:1058  function owner() public view virtual returns (address) {... */\n    tag_7:\n      callvalue\n      dup1\n      iszero\n      tag_40\n      jumpi\n      0x00\n      dup1\n      revert\n    tag_40:\n      pop\n      tag_41\n      tag_42\n      jump\t// in\n    tag_41:\n      mload(0x40)\n      tag_43\n      swap2\n      swap1\n      tag_44\n      jump\t// in\n    tag_43:\n      mload(0x40)\n      dup1\n      swap2\n      sub\n      swap1\n      return\n        /* \"contracts/PreSale.sol\":1216:1264  mapping(address => uint256) public claimedTokens */\n    tag_8:\n      callvalue\n      dup1\n      iszero\n      tag_45\n      jumpi\n      0x00\n      dup1\n      revert\n    tag_45:\n      pop\n      tag_46\n      0x04\n      dup1\n      calldatasize\n      sub\n      dup2\n      add\n      swap1\n      tag_47\n      swap2\n      swap1\n      tag_30\n      jump\t// in\n    tag_47:\n      tag_48\n      jump\t// in\n    tag_46:\n      mload(0x40)\n      tag_49\n      swap2\n      swap1\n      tag_21\n      jump\t// in\n    tag_49:\n      mload(0x40)\n      dup1\n      swap2\n      sub\n      swap1\n      return\n        /* \"contracts/PreSale.sol\":1113:1155  mapping(address => uint256) public claimed */\n    tag_9:\n      callvalue\n      dup1\n      iszero\n      tag_50\n      jumpi\n      0x00\n      dup1\n      revert\n    tag_50:\n      pop\n      tag_51\n      0x04\n      dup1\n      calldatasize\n      sub\n      dup2\n      add\n      swap1\n      tag_52\n      swap2\n      swap1\n      tag_30\n      jump\t// in\n    tag_52:\n      tag_53\n      jump\t// in\n    tag_51:\n      mload(0x40)\n      tag_54\n      swap2\n      swap1\n      tag_21\n      jump\t// in\n    tag_54:\n      mload(0x40)\n      dup1\n      swap2\n      sub\n      swap1\n      return\n        /* \"contracts/PreSale.sol\":4224:5118  function buy(uint256 amount) public payable {... */\n    tag_10:\n      tag_55\n      0x04\n      dup1\n      calldatasize\n      sub\n      dup2\n      add\n      swap1\n      tag_56\n      swap2\n      swap1\n      tag_57\n      jump\t// in\n    tag_56:\n      tag_58\n      jump\t// in\n    tag_55:\n      stop\n        /* \"@openzeppelin/contracts/access/Ownable.sol\":1846:2035  function transferOwnership(address newOwner) public virtual onlyOwner {... */\n    tag_11:\n      callvalue\n      dup1\n      iszero\n      tag_59\n      jumpi\n      0x00\n      dup1\n      revert\n    tag_59:\n      pop\n      tag_60\n      0x04\n      dup1\n      calldatasize\n      sub\n      dup2\n      add\n      swap1\n      tag_61\n      swap2\n      swap1\n      tag_30\n      jump\t// in\n    tag_61:\n      tag_62\n      jump\t// in\n    tag_60:\n      stop\n        /* \"contracts/PreSale.sol\":1312:1363  mapping(address => address) public lastClaimAddress */\n    tag_12:\n      callvalue\n      dup1\n      iszero\n      tag_63\n      jumpi\n      0x00\n      dup1\n      revert\n    tag_63:\n      pop\n      tag_64\n      0x04\n      dup1\n      calldatasize\n      sub\n      dup2\n      add\n      swap1\n      tag_65\n      swap2\n      swap1\n      tag_30\n      jump\t// in\n    tag_65:\n      tag_66\n      jump\t// in\n    tag_64:\n      mload(0x40)\n      tag_67\n      swap2\n      swap1\n      tag_44\n      jump\t// in\n    tag_67:\n      mload(0x40)\n      dup1\n      swap2\n      sub\n      swap1\n      return\n        /* \"contracts/PreSale.sol\":884:909  IERC20 public rewardToken */\n    tag_13:\n      callvalue\n      dup1\n      iszero\n      tag_68\n      jumpi\n      0x00\n      dup1\n      revert\n    tag_68:\n      pop\n      tag_69\n      tag_70\n      jump\t// in\n    tag_69:\n      mload(0x40)\n      tag_71\n      swap2\n      swap1\n      tag_26\n      jump\t// in\n    tag_71:\n      mload(0x40)\n      dup1\n      swap2\n      sub\n      swap1\n      return\n        /* \"contracts/PreSale.sol\":3064:3577  function updateRewardToken(IERC20 _newRewardToken) public onlyOwner {... */\n    tag_14:\n      callvalue\n      dup1\n      iszero\n      tag_72\n      jumpi\n      0x00\n      dup1\n      revert\n    tag_72:\n      pop\n      tag_73\n      0x04\n      dup1\n      calldatasize\n      sub\n      dup2\n      add\n      swap1\n      tag_74\n      swap2\n      swap1\n      tag_75\n      jump\t// in\n    tag_74:\n      tag_76\n      jump\t// in\n    tag_73:\n      stop\n        /* \"contracts/PreSale.sol\":3583:3893  function getRemainingBalance() public view returns(uint256) {... */\n    tag_19:\n        /* \"contracts/PreSale.sol\":3634:3641  uint256 */\n      0x00\n        /* \"contracts/PreSale.sol\":3653:3679  bool isRewardTokenEthToken */\n      dup1\n        /* \"contracts/PreSale.sol\":3714:3715  0 */\n      0x00\n        /* \"contracts/PreSale.sol\":3682:3716  address(rewardToken) == address(0) */\n      0xffffffffffffffffffffffffffffffffffffffff\n      and\n        /* \"contracts/PreSale.sol\":3690:3701  rewardToken */\n      0x01\n      0x00\n      swap1\n      sload\n      swap1\n      0x0100\n      exp\n      swap1\n      div\n      0xffffffffffffffffffffffffffffffffffffffff\n      and\n        /* \"contracts/PreSale.sol\":3682:3716  address(rewardToken) == address(0) */\n      0xffffffffffffffffffffffffffffffffffffffff\n      and\n      eq\n        /* \"contracts/PreSale.sol\":3653:3716  bool isRewardTokenEthToken = address(rewardToken) == address(0) */\n      swap1\n      pop\n        /* \"contracts/PreSale.sol\":3729:3750  isRewardTokenEthToken */\n      dup1\n        /* \"contracts/PreSale.sol\":3726:3887  if(isRewardTokenEthToken) {... */\n      iszero\n      tag_78\n      jumpi\n        /* \"contracts/PreSale.sol\":3773:3794  address(this).balance */\n      selfbalance\n        /* \"contracts/PreSale.sol\":3766:3794  return address(this).balance */\n      swap2\n      pop\n      pop\n      jump(tag_77)\n        /* \"contracts/PreSale.sol\":3726:3887  if(isRewardTokenEthToken) {... */\n    tag_78:\n        /* \"contracts/PreSale.sol\":3839:3850  rewardToken */\n      0x01\n      0x00\n      swap1\n      sload\n      swap1\n      0x0100\n      exp\n      swap1\n      div\n      0xffffffffffffffffffffffffffffffffffffffff\n      and\n        /* \"contracts/PreSale.sol\":3832:3861  IERC20(rewardToken).balanceOf */\n      0xffffffffffffffffffffffffffffffffffffffff\n      and\n      0x70a08231\n        /* \"contracts/PreSale.sol\":3870:3874  this */\n      address\n        /* \"contracts/PreSale.sol\":3832:3876  IERC20(rewardToken).balanceOf(address(this)) */\n      mload(0x40)\n      dup3\n      0xffffffff\n      and\n      0xe0\n      shl\n      dup2\n      mstore\n      0x04\n      add\n      tag_80\n      swap2\n      swap1\n      tag_44\n      jump\t// in\n    tag_80:\n      0x20\n      mload(0x40)\n      dup1\n      dup4\n      sub\n      dup2\n      dup7\n      dup1\n      extcodesize\n      iszero\n      dup1\n      iszero\n      tag_81\n      jumpi\n      0x00\n      dup1\n      revert\n    tag_81:\n      pop\n      gas\n      staticcall\n      iszero\n      dup1\n      iszero\n      tag_83\n      jumpi\n      returndatasize\n      0x00\n      dup1\n      returndatacopy\n      revert(0x00, returndatasize)\n    tag_83:\n      pop\n      pop\n      pop\n      pop\n      mload(0x40)\n      returndatasize\n      not(0x1f)\n      0x1f\n      dup3\n      add\n      and\n      dup3\n      add\n      dup1\n      0x40\n      mstore\n      pop\n      dup2\n      add\n      swap1\n      tag_84\n      swap2\n      swap1\n      tag_85\n      jump\t// in\n    tag_84:\n        /* \"contracts/PreSale.sol\":3825:3876  return IERC20(rewardToken).balanceOf(address(this)) */\n      swap2\n      pop\n      pop\n        /* \"contracts/PreSale.sol\":3583:3893  function getRemainingBalance() public view returns(uint256) {... */\n    tag_77:\n      swap1\n      jump\t// out\n        /* \"contracts/PreSale.sol\":922:948  IERC20 public paymentToken */\n    tag_24:\n      0x02\n      0x00\n      swap1\n      sload\n      swap1\n      0x0100\n      exp\n      swap1\n      div\n      0xffffffffffffffffffffffffffffffffffffffff\n      and\n      dup2\n      jump\t// out\n        /* \"contracts/PreSale.sol\":1024:1065  mapping(address => uint256) public bought */\n    tag_31:\n      mstore(0x20, 0x04)\n      dup1\n      0x00\n      mstore\n      keccak256(0x00, 0x40)\n      0x00\n      swap2\n      pop\n      swap1\n      pop\n      sload\n      dup2\n      jump\t// out\n        /* \"@openzeppelin/contracts/access/Ownable.sol\":1605:1697  function renounceOwnership() public virtual onlyOwner {... */\n    tag_35:\n        /* \"@openzeppelin/contracts/access/Ownable.sol\":1196:1208  _msgSender() */\n      tag_87\n        /* \"@openzeppelin/contracts/access/Ownable.sol\":1196:1206  _msgSender */\n      tag_88\n        /* \"@openzeppelin/contracts/access/Ownable.sol\":1196:1208  _msgSender() */\n      jump\t// in\n    tag_87:\n        /* \"@openzeppelin/contracts/access/Ownable.sol\":1185:1208  owner() == _msgSender() */\n      0xffffffffffffffffffffffffffffffffffffffff\n      and\n        /* \"@openzeppelin/contracts/access/Ownable.sol\":1185:1192  owner() */\n      tag_89\n        /* \"@openzeppelin/contracts/access/Ownable.sol\":1185:1190  owner */\n      tag_42\n        /* \"@openzeppelin/contracts/access/Ownable.sol\":1185:1192  owner() */\n      jump\t// in\n    tag_89:\n        /* \"@openzeppelin/contracts/access/Ownable.sol\":1185:1208  owner() == _msgSender() */\n      0xffffffffffffffffffffffffffffffffffffffff\n      and\n      eq\n        /* \"@openzeppelin/contracts/access/Ownable.sol\":1177:1245  require(owner() == _msgSender(), \"Ownable: caller is not the owner\") */\n      tag_90\n      jumpi\n      mload(0x40)\n      0x08c379a000000000000000000000000000000000000000000000000000000000\n      dup2\n      mstore\n      0x04\n      add\n      tag_91\n      swap1\n      tag_92\n      jump\t// in\n    tag_91:\n      mload(0x40)\n      dup1\n      swap2\n      sub\n      swap1\n      revert\n    tag_90:\n        /* \"@openzeppelin/contracts/access/Ownable.sol\":1669:1690  _setOwner(address(0)) */\n      tag_94\n        /* \"@openzeppelin/contracts/access/Ownable.sol\":1687:1688  0 */\n      0x00\n        /* \"@openzeppelin/contracts/access/Ownable.sol\":1669:1678  _setOwner */\n      tag_95\n        /* \"@openzeppelin/contracts/access/Ownable.sol\":1669:1690  _setOwner(address(0)) */\n      jump\t// in\n    tag_94:\n        /* \"@openzeppelin/contracts/access/Ownable.sol\":1605:1697  function renounceOwnership() public virtual onlyOwner {... */\n      jump\t// out\n        /* \"contracts/PreSale.sol\":962:990  uint256 public pricePerToken */\n    tag_38:\n      sload(0x03)\n      dup2\n      jump\t// out\n        /* \"@openzeppelin/contracts/access/Ownable.sol\":973:1058  function owner() public view virtual returns (address) {... */\n    tag_42:\n        /* \"@openzeppelin/contracts/access/Ownable.sol\":1019:1026  address */\n      0x00\n        /* \"@openzeppelin/contracts/access/Ownable.sol\":1045:1051  _owner */\n      dup1\n      0x00\n      swap1\n      sload\n      swap1\n      0x0100\n      exp\n      swap1\n      div\n      0xffffffffffffffffffffffffffffffffffffffff\n      and\n        /* \"@openzeppelin/contracts/access/Ownable.sol\":1038:1051  return _owner */\n      swap1\n      pop\n        /* \"@openzeppelin/contracts/access/Ownable.sol\":973:1058  function owner() public view virtual returns (address) {... */\n      swap1\n      jump\t// out\n        /* \"contracts/PreSale.sol\":1216:1264  mapping(address => uint256) public claimedTokens */\n    tag_48:\n      mstore(0x20, 0x06)\n      dup1\n      0x00\n      mstore\n      keccak256(0x00, 0x40)\n      0x00\n      swap2\n      pop\n      swap1\n      pop\n      sload\n      dup2\n      jump\t// out\n        /* \"contracts/PreSale.sol\":1113:1155  mapping(address => uint256) public claimed */\n    tag_53:\n      mstore(0x20, 0x05)\n      dup1\n      0x00\n      mstore\n      keccak256(0x00, 0x40)\n      0x00\n      swap2\n      pop\n      swap1\n      pop\n      sload\n      dup2\n      jump\t// out\n        /* \"contracts/PreSale.sol\":4224:5118  function buy(uint256 amount) public payable {... */\n    tag_58:\n        /* \"contracts/PreSale.sol\":4278:4305  bool isPaymentTokenEthToken */\n      0x00\n        /* \"contracts/PreSale.sol\":4341:4342  0 */\n      dup1\n        /* \"contracts/PreSale.sol\":4308:4343  address(paymentToken) == address(0) */\n      0xffffffffffffffffffffffffffffffffffffffff\n      and\n        /* \"contracts/PreSale.sol\":4316:4328  paymentToken */\n      0x02\n      0x00\n      swap1\n      sload\n      swap1\n      0x0100\n      exp\n      swap1\n      div\n      0xffffffffffffffffffffffffffffffffffffffff\n      and\n        /* \"contracts/PreSale.sol\":4308:4343  address(paymentToken) == address(0) */\n      0xffffffffffffffffffffffffffffffffffffffff\n      and\n      eq\n        /* \"contracts/PreSale.sol\":4278:4343  bool isPaymentTokenEthToken = address(paymentToken) == address(0) */\n      swap1\n      pop\n        /* \"contracts/PreSale.sol\":4353:4379  bool isRewardTokenEthToken */\n      0x00\n        /* \"contracts/PreSale.sol\":4414:4415  0 */\n      dup1\n        /* \"contracts/PreSale.sol\":4382:4416  address(rewardToken) == address(0) */\n      0xffffffffffffffffffffffffffffffffffffffff\n      and\n        /* \"contracts/PreSale.sol\":4390:4401  rewardToken */\n      0x01\n      0x00\n      swap1\n      sload\n      swap1\n      0x0100\n      exp\n      swap1\n      div\n      0xffffffffffffffffffffffffffffffffffffffff\n      and\n        /* \"contracts/PreSale.sol\":4382:4416  address(rewardToken) == address(0) */\n      0xffffffffffffffffffffffffffffffffffffffff\n      and\n      eq\n        /* \"contracts/PreSale.sol\":4353:4416  bool isRewardTokenEthToken = address(rewardToken) == address(0) */\n      swap1\n      pop\n        /* \"contracts/PreSale.sol\":4435:4457  isPaymentTokenEthToken */\n      dup2\n        /* \"contracts/PreSale.sol\":4434:4457  !isPaymentTokenEthToken */\n      iszero\n        /* \"contracts/PreSale.sol\":4434:4480  !isPaymentTokenEthToken || msg.value == amount */\n      dup1\n      tag_98\n      jumpi\n      pop\n        /* \"contracts/PreSale.sol\":4474:4480  amount */\n      dup3\n        /* \"contracts/PreSale.sol\":4461:4470  msg.value */\n      callvalue\n        /* \"contracts/PreSale.sol\":4461:4480  msg.value == amount */\n      eq\n        /* \"contracts/PreSale.sol\":4434:4480  !isPaymentTokenEthToken || msg.value == amount */\n    tag_98:\n        /* \"contracts/PreSale.sol\":4426:4537  require(!isPaymentTokenEthToken || msg.value == amount, \"ABOAT::buy: Sent value doesn't meet the given amount\") */\n      tag_99\n      jumpi\n      mload(0x40)\n      0x08c379a000000000000000000000000000000000000000000000000000000000\n      dup2\n      mstore\n      0x04\n      add\n      tag_100\n      swap1\n      tag_101\n      jump\t// in\n    tag_100:\n      mload(0x40)\n      dup1\n      swap2\n      sub\n      swap1\n      revert\n    tag_99:\n        /* \"contracts/PreSale.sol\":4547:4567  uint256 amountBought */\n      0x00\n        /* \"contracts/PreSale.sol\":4570:4605  amount.mul(1e18).div(pricePerToken) */\n      tag_102\n        /* \"contracts/PreSale.sol\":4591:4604  pricePerToken */\n      sload(0x03)\n        /* \"contracts/PreSale.sol\":4570:4586  amount.mul(1e18) */\n      tag_103\n        /* \"contracts/PreSale.sol\":4581:4585  1e18 */\n      0x0de0b6b3a7640000\n        /* \"contracts/PreSale.sol\":4570:4576  amount */\n      dup8\n        /* \"contracts/PreSale.sol\":4570:4580  amount.mul */\n      tag_104\n      swap1\n        /* \"contracts/PreSale.sol\":4570:4586  amount.mul(1e18) */\n      swap2\n      swap1\n      0xffffffff\n      and\n      jump\t// in\n    tag_103:\n        /* \"contracts/PreSale.sol\":4570:4590  amount.mul(1e18).div */\n      tag_105\n      swap1\n        /* \"contracts/PreSale.sol\":4570:4605  amount.mul(1e18).div(pricePerToken) */\n      swap2\n      swap1\n      0xffffffff\n      and\n      jump\t// in\n    tag_102:\n        /* \"contracts/PreSale.sol\":4547:4605  uint256 amountBought = amount.mul(1e18).div(pricePerToken) */\n      swap1\n      pop\n        /* \"contracts/PreSale.sol\":4665:4666  0 */\n      0x00\n        /* \"contracts/PreSale.sol\":4623:4662  getRemainingBalance().sub(amountBought) */\n      tag_106\n        /* \"contracts/PreSale.sol\":4649:4661  amountBought */\n      dup3\n        /* \"contracts/PreSale.sol\":4623:4644  getRemainingBalance() */\n      tag_107\n        /* \"contracts/PreSale.sol\":4623:4642  getRemainingBalance */\n      tag_19\n        /* \"contracts/PreSale.sol\":4623:4644  getRemainingBalance() */\n      jump\t// in\n    tag_107:\n        /* \"contracts/PreSale.sol\":4623:4648  getRemainingBalance().sub */\n      tag_108\n      swap1\n        /* \"contracts/PreSale.sol\":4623:4662  getRemainingBalance().sub(amountBought) */\n      swap2\n      swap1\n      0xffffffff\n      and\n      jump\t// in\n    tag_106:\n        /* \"contracts/PreSale.sol\":4623:4666  getRemainingBalance().sub(amountBought) > 0 */\n      gt\n        /* \"contracts/PreSale.sol\":4615:4724  require(getRemainingBalance().sub(amountBought) > 0, \"ABOAT::buy: Amount would exceed the remaining balance\") */\n      tag_109\n      jumpi\n      mload(0x40)\n      0x08c379a000000000000000000000000000000000000000000000000000000000\n      dup2\n      mstore\n      0x04\n      add\n      tag_110\n      swap1\n      tag_111\n      jump\t// in\n    tag_110:\n      mload(0x40)\n      dup1\n      swap2\n      sub\n      swap1\n      revert\n    tag_109:\n        /* \"contracts/PreSale.sol\":4738:4760  isPaymentTokenEthToken */\n      dup3\n        /* \"contracts/PreSale.sol\":4734:4860  if(!isPaymentTokenEthToken) {... */\n      tag_112\n      jumpi\n        /* \"contracts/PreSale.sol\":4776:4849  paymentToken.safeTransferFrom(address(msg.sender), address(this), amount) */\n      tag_113\n        /* \"contracts/PreSale.sol\":4814:4824  msg.sender */\n      caller\n        /* \"contracts/PreSale.sol\":4835:4839  this */\n      address\n        /* \"contracts/PreSale.sol\":4842:4848  amount */\n      dup7\n        /* \"contracts/PreSale.sol\":4776:4788  paymentToken */\n      0x02\n      0x00\n      swap1\n      sload\n      swap1\n      0x0100\n      exp\n      swap1\n      div\n      0xffffffffffffffffffffffffffffffffffffffff\n      and\n        /* \"contracts/PreSale.sol\":4776:4805  paymentToken.safeTransferFrom */\n      0xffffffffffffffffffffffffffffffffffffffff\n      and\n      tag_114\n      swap1\n        /* \"contracts/PreSale.sol\":4776:4849  paymentToken.safeTransferFrom(address(msg.sender), address(this), amount) */\n      swap4\n      swap3\n      swap2\n      swap1\n      0xffffffff\n      and\n      jump\t// in\n    tag_113:\n        /* \"contracts/PreSale.sol\":4734:4860  if(!isPaymentTokenEthToken) {... */\n    tag_112:\n        /* \"contracts/PreSale.sol\":4873:4894  isRewardTokenEthToken */\n      dup2\n        /* \"contracts/PreSale.sol\":4870:5071  if(isRewardTokenEthToken) {... */\n      iszero\n      tag_115\n      jumpi\n        /* \"contracts/PreSale.sol\":4910:4960  TransferHelper.safeTransferETH(msg.sender, amount) */\n      tag_116\n        /* \"contracts/PreSale.sol\":4941:4951  msg.sender */\n      caller\n        /* \"contracts/PreSale.sol\":4953:4959  amount */\n      dup6\n        /* \"contracts/PreSale.sol\":4910:4940  TransferHelper.safeTransferETH */\n      tag_117\n        /* \"contracts/PreSale.sol\":4910:4960  TransferHelper.safeTransferETH(msg.sender, amount) */\n      jump\t// in\n    tag_116:\n        /* \"contracts/PreSale.sol\":4870:5071  if(isRewardTokenEthToken) {... */\n      jump(tag_118)\n    tag_115:\n        /* \"contracts/PreSale.sol\":4991:5060  TransferHelper.safeTransfer(address(rewardToken), msg.sender, amount) */\n      tag_119\n        /* \"contracts/PreSale.sol\":5027:5038  rewardToken */\n      0x01\n      0x00\n      swap1\n      sload\n      swap1\n      0x0100\n      exp\n      swap1\n      div\n      0xffffffffffffffffffffffffffffffffffffffff\n      and\n        /* \"contracts/PreSale.sol\":5041:5051  msg.sender */\n      caller\n        /* \"contracts/PreSale.sol\":5053:5059  amount */\n      dup7\n        /* \"contracts/PreSale.sol\":4991:5018  TransferHelper.safeTransfer */\n      tag_120\n        /* \"contracts/PreSale.sol\":4991:5060  TransferHelper.safeTransfer(address(rewardToken), msg.sender, amount) */\n      jump\t// in\n    tag_119:\n        /* \"contracts/PreSale.sol\":4870:5071  if(isRewardTokenEthToken) {... */\n    tag_118:\n        /* \"contracts/PreSale.sol\":5104:5110  amount */\n      dup4\n        /* \"contracts/PreSale.sol\":5092:5102  msg.sender */\n      caller\n        /* \"contracts/PreSale.sol\":5085:5111  Bought(msg.sender, amount) */\n      0xffffffffffffffffffffffffffffffffffffffff\n      and\n      0xc55650ccda1011e1cdc769b1fbf546ebb8c97800b6072b49e06cd560305b1d67\n      mload(0x40)\n      mload(0x40)\n      dup1\n      swap2\n      sub\n      swap1\n      log3\n        /* \"contracts/PreSale.sol\":4268:5118  {... */\n      pop\n      pop\n      pop\n        /* \"contracts/PreSale.sol\":4224:5118  function buy(uint256 amount) public payable {... */\n      pop\n      jump\t// out\n        /* \"@openzeppelin/contracts/access/Ownable.sol\":1846:2035  function transferOwnership(address newOwner) public virtual onlyOwner {... */\n    tag_62:\n        /* \"@openzeppelin/contracts/access/Ownable.sol\":1196:1208  _msgSender() */\n      tag_122\n        /* \"@openzeppelin/contracts/access/Ownable.sol\":1196:1206  _msgSender */\n      tag_88\n        /* \"@openzeppelin/contracts/access/Ownable.sol\":1196:1208  _msgSender() */\n      jump\t// in\n    tag_122:\n        /* \"@openzeppelin/contracts/access/Ownable.sol\":1185:1208  owner() == _msgSender() */\n      0xffffffffffffffffffffffffffffffffffffffff\n      and\n        /* \"@openzeppelin/contracts/access/Ownable.sol\":1185:1192  owner() */\n      tag_123\n        /* \"@openzeppelin/contracts/access/Ownable.sol\":1185:1190  owner */\n      tag_42\n        /* \"@openzeppelin/contracts/access/Ownable.sol\":1185:1192  owner() */\n      jump\t// in\n    tag_123:\n        /* \"@openzeppelin/contracts/access/Ownable.sol\":1185:1208  owner() == _msgSender() */\n      0xffffffffffffffffffffffffffffffffffffffff\n      and\n      eq\n        /* \"@openzeppelin/contracts/access/Ownable.sol\":1177:1245  require(owner() == _msgSender(), \"Ownable: caller is not the owner\") */\n      tag_124\n      jumpi\n      mload(0x40)\n      0x08c379a000000000000000000000000000000000000000000000000000000000\n      dup2\n      mstore\n      0x04\n      add\n      tag_125\n      swap1\n      tag_92\n      jump\t// in\n    tag_125:\n      mload(0x40)\n      dup1\n      swap2\n      sub\n      swap1\n      revert\n    tag_124:\n        /* \"@openzeppelin/contracts/access/Ownable.sol\":1954:1955  0 */\n      0x00\n        /* \"@openzeppelin/contracts/access/Ownable.sol\":1934:1956  newOwner != address(0) */\n      0xffffffffffffffffffffffffffffffffffffffff\n      and\n        /* \"@openzeppelin/contracts/access/Ownable.sol\":1934:1942  newOwner */\n      dup2\n        /* \"@openzeppelin/contracts/access/Ownable.sol\":1934:1956  newOwner != address(0) */\n      0xffffffffffffffffffffffffffffffffffffffff\n      and\n      eq\n      iszero\n        /* \"@openzeppelin/contracts/access/Ownable.sol\":1926:1999  require(newOwner != address(0), \"Ownable: new owner is the zero address\") */\n      tag_127\n      jumpi\n      mload(0x40)\n      0x08c379a000000000000000000000000000000000000000000000000000000000\n      dup2\n      mstore\n      0x04\n      add\n      tag_128\n      swap1\n      tag_129\n      jump\t// in\n    tag_128:\n      mload(0x40)\n      dup1\n      swap2\n      sub\n      swap1\n      revert\n    tag_127:\n        /* \"@openzeppelin/contracts/access/Ownable.sol\":2009:2028  _setOwner(newOwner) */\n      tag_130\n        /* \"@openzeppelin/contracts/access/Ownable.sol\":2019:2027  newOwner */\n      dup2\n        /* \"@openzeppelin/contracts/access/Ownable.sol\":2009:2018  _setOwner */\n      tag_95\n        /* \"@openzeppelin/contracts/access/Ownable.sol\":2009:2028  _setOwner(newOwner) */\n      jump\t// in\n    tag_130:\n        /* \"@openzeppelin/contracts/access/Ownable.sol\":1846:2035  function transferOwnership(address newOwner) public virtual onlyOwner {... */\n      pop\n      jump\t// out\n        /* \"contracts/PreSale.sol\":1312:1363  mapping(address => address) public lastClaimAddress */\n    tag_66:\n      mstore(0x20, 0x07)\n      dup1\n      0x00\n      mstore\n      keccak256(0x00, 0x40)\n      0x00\n      swap2\n      pop\n      sload\n      swap1\n      0x0100\n      exp\n      swap1\n      div\n      0xffffffffffffffffffffffffffffffffffffffff\n      and\n      dup2\n      jump\t// out\n        /* \"contracts/PreSale.sol\":884:909  IERC20 public rewardToken */\n    tag_70:\n      0x01\n      0x00\n      swap1\n      sload\n      swap1\n      0x0100\n      exp\n      swap1\n      div\n      0xffffffffffffffffffffffffffffffffffffffff\n      and\n      dup2\n      jump\t// out\n        /* \"contracts/PreSale.sol\":3064:3577  function updateRewardToken(IERC20 _newRewardToken) public onlyOwner {... */\n    tag_76:\n        /* \"@openzeppelin/contracts/access/Ownable.sol\":1196:1208  _msgSender() */\n      tag_132\n        /* \"@openzeppelin/contracts/access/Ownable.sol\":1196:1206  _msgSender */\n      tag_88\n        /* \"@openzeppelin/contracts/access/Ownable.sol\":1196:1208  _msgSender() */\n      jump\t// in\n    tag_132:\n        /* \"@openzeppelin/contracts/access/Ownable.sol\":1185:1208  owner() == _msgSender() */\n      0xffffffffffffffffffffffffffffffffffffffff\n      and\n        /* \"@openzeppelin/contracts/access/Ownable.sol\":1185:1192  owner() */\n      tag_133\n        /* \"@openzeppelin/contracts/access/Ownable.sol\":1185:1190  owner */\n      tag_42\n        /* \"@openzeppelin/contracts/access/Ownable.sol\":1185:1192  owner() */\n      jump\t// in\n    tag_133:\n        /* \"@openzeppelin/contracts/access/Ownable.sol\":1185:1208  owner() == _msgSender() */\n      0xffffffffffffffffffffffffffffffffffffffff\n      and\n      eq\n        /* \"@openzeppelin/contracts/access/Ownable.sol\":1177:1245  require(owner() == _msgSender(), \"Ownable: caller is not the owner\") */\n      tag_134\n      jumpi\n      mload(0x40)\n      0x08c379a000000000000000000000000000000000000000000000000000000000\n      dup2\n      mstore\n      0x04\n      add\n      tag_135\n      swap1\n      tag_92\n      jump\t// in\n    tag_135:\n      mload(0x40)\n      dup1\n      swap2\n      sub\n      swap1\n      revert\n    tag_134:\n        /* \"contracts/PreSale.sol\":3169:3180  rewardToken */\n      0x01\n      0x00\n      swap1\n      sload\n      swap1\n      0x0100\n      exp\n      swap1\n      div\n      0xffffffffffffffffffffffffffffffffffffffff\n      and\n        /* \"contracts/PreSale.sol\":3150:3180  _newRewardToken != rewardToken */\n      0xffffffffffffffffffffffffffffffffffffffff\n      and\n        /* \"contracts/PreSale.sol\":3150:3165  _newRewardToken */\n      dup2\n        /* \"contracts/PreSale.sol\":3150:3180  _newRewardToken != rewardToken */\n      0xffffffffffffffffffffffffffffffffffffffff\n      and\n      eq\n      iszero\n        /* \"contracts/PreSale.sol\":3142:3255  require(_newRewardToken != rewardToken, \"ABOAT::updateRewardToken: New reward should be different from current.\") */\n      tag_137\n      jumpi\n      mload(0x40)\n      0x08c379a000000000000000000000000000000000000000000000000000000000\n      dup2\n      mstore\n      0x04\n      add\n      tag_138\n      swap1\n      tag_139\n      jump\t// in\n    tag_138:\n      mload(0x40)\n      dup1\n      swap2\n      sub\n      swap1\n      revert\n    tag_137:\n        /* \"contracts/PreSale.sol\":3317:3328  rewardToken */\n      0x01\n      0x00\n      swap1\n      sload\n      swap1\n      0x0100\n      exp\n      swap1\n      div\n      0xffffffffffffffffffffffffffffffffffffffff\n      and\n        /* \"contracts/PreSale.sol\":3317:3338  rewardToken.balanceOf */\n      0xffffffffffffffffffffffffffffffffffffffff\n      and\n      0x70a08231\n        /* \"contracts/PreSale.sol\":3347:3351  this */\n      address\n        /* \"contracts/PreSale.sol\":3317:3353  rewardToken.balanceOf(address(this)) */\n      mload(0x40)\n      dup3\n      0xffffffff\n      and\n      0xe0\n      shl\n      dup2\n      mstore\n      0x04\n      add\n      tag_140\n      swap2\n      swap1\n      tag_44\n      jump\t// in\n    tag_140:\n      0x20\n      mload(0x40)\n      dup1\n      dup4\n      sub\n      dup2\n      dup7\n      dup1\n      extcodesize\n      iszero\n      dup1\n      iszero\n      tag_141\n      jumpi\n      0x00\n      dup1\n      revert\n    tag_141:\n      pop\n      gas\n      staticcall\n      iszero\n      dup1\n      iszero\n      tag_143\n      jumpi\n      returndatasize\n      0x00\n      dup1\n      returndatacopy\n      revert(0x00, returndatasize)\n    tag_143:\n      pop\n      pop\n      pop\n      pop\n      mload(0x40)\n      returndatasize\n      not(0x1f)\n      0x1f\n      dup3\n      add\n      and\n      dup3\n      add\n      dup1\n      0x40\n      mstore\n      pop\n      dup2\n      add\n      swap1\n      tag_144\n      swap2\n      swap1\n      tag_85\n      jump\t// in\n    tag_144:\n        /* \"contracts/PreSale.sol\":3273:3288  _newRewardToken */\n      dup2\n        /* \"contracts/PreSale.sol\":3273:3298  _newRewardToken.balanceOf */\n      0xffffffffffffffffffffffffffffffffffffffff\n      and\n      0x70a08231\n        /* \"contracts/PreSale.sol\":3307:3311  this */\n      address\n        /* \"contracts/PreSale.sol\":3273:3313  _newRewardToken.balanceOf(address(this)) */\n      mload(0x40)\n      dup3\n      0xffffffff\n      and\n      0xe0\n      shl\n      dup2\n      mstore\n      0x04\n      add\n      tag_145\n      swap2\n      swap1\n      tag_44\n      jump\t// in\n    tag_145:\n      0x20\n      mload(0x40)\n      dup1\n      dup4\n      sub\n      dup2\n      dup7\n      dup1\n      extcodesize\n      iszero\n      dup1\n      iszero\n      tag_146\n      jumpi\n      0x00\n      dup1\n      revert\n    tag_146:\n      pop\n      gas\n      staticcall\n      iszero\n      dup1\n      iszero\n      tag_148\n      jumpi\n      returndatasize\n      0x00\n      dup1\n      returndatacopy\n      revert(0x00, returndatasize)\n    tag_148:\n      pop\n      pop\n      pop\n      pop\n      mload(0x40)\n      returndatasize\n      not(0x1f)\n      0x1f\n      dup3\n      add\n      and\n      dup3\n      add\n      dup1\n      0x40\n      mstore\n      pop\n      dup2\n      add\n      swap1\n      tag_149\n      swap2\n      swap1\n      tag_85\n      jump\t// in\n    tag_149:\n        /* \"contracts/PreSale.sol\":3273:3353  _newRewardToken.balanceOf(address(this)) == rewardToken.balanceOf(address(this)) */\n      eq\n        /* \"contracts/PreSale.sol\":3265:3477  require(_newRewardToken.balanceOf(address(this)) == rewardToken.balanceOf(address(this)), \"ABOAT::updateRewardToken: The contract should contain atleast the same amount of tokens as from the current rewardToken\") */\n      tag_150\n      jumpi\n      mload(0x40)\n      0x08c379a000000000000000000000000000000000000000000000000000000000\n      dup2\n      mstore\n      0x04\n      add\n      tag_151\n      swap1\n      tag_152\n      jump\t// in\n    tag_151:\n      mload(0x40)\n      dup1\n      swap2\n      sub\n      swap1\n      revert\n    tag_150:\n        /* \"contracts/PreSale.sol\":3501:3516  _newRewardToken */\n      dup1\n        /* \"contracts/PreSale.sol\":3487:3498  rewardToken */\n      0x01\n      0x00\n        /* \"contracts/PreSale.sol\":3487:3516  rewardToken = _newRewardToken */\n      0x0100\n      exp\n      dup2\n      sload\n      dup2\n      0xffffffffffffffffffffffffffffffffffffffff\n      mul\n      not\n      and\n      swap1\n      dup4\n      0xffffffffffffffffffffffffffffffffffffffff\n      and\n      mul\n      or\n      swap1\n      sstore\n      pop\n        /* \"contracts/PreSale.sol\":3557:3568  rewardToken */\n      0x01\n      0x00\n      swap1\n      sload\n      swap1\n      0x0100\n      exp\n      swap1\n      div\n      0xffffffffffffffffffffffffffffffffffffffff\n      and\n        /* \"contracts/PreSale.sol\":3531:3570  ChangeRewardToken(address(rewardToken)) */\n      0xffffffffffffffffffffffffffffffffffffffff\n      and\n      0x3fcfc24a3384ca156092d9242cb0f84abaf442146d91b8c93bea526561b83f83\n      mload(0x40)\n      mload(0x40)\n      dup1\n      swap2\n      sub\n      swap1\n      log2\n        /* \"contracts/PreSale.sol\":3064:3577  function updateRewardToken(IERC20 _newRewardToken) public onlyOwner {... */\n      pop\n      jump\t// out\n        /* \"@openzeppelin/contracts/utils/Context.sol\":586:682  function _msgSender() internal view virtual returns (address) {... */\n    tag_88:\n        /* \"@openzeppelin/contracts/utils/Context.sol\":639:646  address */\n      0x00\n        /* \"@openzeppelin/contracts/utils/Context.sol\":665:675  msg.sender */\n      caller\n        /* \"@openzeppelin/contracts/utils/Context.sol\":658:675  return msg.sender */\n      swap1\n      pop\n        /* \"@openzeppelin/contracts/utils/Context.sol\":586:682  function _msgSender() internal view virtual returns (address) {... */\n      swap1\n      jump\t// out\n        /* \"@openzeppelin/contracts/access/Ownable.sol\":2041:2210  function _setOwner(address newOwner) private {... */\n    tag_95:\n        /* \"@openzeppelin/contracts/access/Ownable.sol\":2096:2112  address oldOwner */\n      0x00\n        /* \"@openzeppelin/contracts/access/Ownable.sol\":2115:2121  _owner */\n      dup1\n      0x00\n      swap1\n      sload\n      swap1\n      0x0100\n      exp\n      swap1\n      div\n      0xffffffffffffffffffffffffffffffffffffffff\n      and\n        /* \"@openzeppelin/contracts/access/Ownable.sol\":2096:2121  address oldOwner = _owner */\n      swap1\n      pop\n        /* \"@openzeppelin/contracts/access/Ownable.sol\":2140:2148  newOwner */\n      dup2\n        /* \"@openzeppelin/contracts/access/Ownable.sol\":2131:2137  _owner */\n      0x00\n      dup1\n        /* \"@openzeppelin/contracts/access/Ownable.sol\":2131:2148  _owner = newOwner */\n      0x0100\n      exp\n      dup2\n      sload\n      dup2\n      0xffffffffffffffffffffffffffffffffffffffff\n      mul\n      not\n      and\n      swap1\n      dup4\n      0xffffffffffffffffffffffffffffffffffffffff\n      and\n      mul\n      or\n      swap1\n      sstore\n      pop\n        /* \"@openzeppelin/contracts/access/Ownable.sol\":2194:2202  newOwner */\n      dup2\n        /* \"@openzeppelin/contracts/access/Ownable.sol\":2163:2203  OwnershipTransferred(oldOwner, newOwner) */\n      0xffffffffffffffffffffffffffffffffffffffff\n      and\n        /* \"@openzeppelin/contracts/access/Ownable.sol\":2184:2192  oldOwner */\n      dup2\n        /* \"@openzeppelin/contracts/access/Ownable.sol\":2163:2203  OwnershipTransferred(oldOwner, newOwner) */\n      0xffffffffffffffffffffffffffffffffffffffff\n      and\n      0x8be0079c531659141344cd1fd0a4f28419497f9722a3daafe3b4186f6b6457e0\n      mload(0x40)\n      mload(0x40)\n      dup1\n      swap2\n      sub\n      swap1\n      log3\n        /* \"@openzeppelin/contracts/access/Ownable.sol\":2086:2210  {... */\n      pop\n        /* \"@openzeppelin/contracts/access/Ownable.sol\":2041:2210  function _setOwner(address newOwner) private {... */\n      pop\n      jump\t// out\n        /* \"@openzeppelin/contracts/utils/math/SafeMath.sol\":3382:3478  function mul(uint256 a, uint256 b) internal pure returns (uint256) {... */\n    tag_104:\n        /* \"@openzeppelin/contracts/utils/math/SafeMath.sol\":3440:3447  uint256 */\n      0x00\n        /* \"@openzeppelin/contracts/utils/math/SafeMath.sol\":3470:3471  b */\n      dup2\n        /* \"@openzeppelin/contracts/utils/math/SafeMath.sol\":3466:3467  a */\n      dup4\n        /* \"@openzeppelin/contracts/utils/math/SafeMath.sol\":3466:3471  a * b */\n      tag_156\n      swap2\n      swap1\n      tag_157\n      jump\t// in\n    tag_156:\n        /* \"@openzeppelin/contracts/utils/math/SafeMath.sol\":3459:3471  return a * b */\n      swap1\n      pop\n        /* \"@openzeppelin/contracts/utils/math/SafeMath.sol\":3382:3478  function mul(uint256 a, uint256 b) internal pure returns (uint256) {... */\n      swap3\n      swap2\n      pop\n      pop\n      jump\t// out\n        /* \"@openzeppelin/contracts/utils/math/SafeMath.sol\":3767:3863  function div(uint256 a, uint256 b) internal pure returns (uint256) {... */\n    tag_105:\n        /* \"@openzeppelin/contracts/utils/math/SafeMath.sol\":3825:3832  uint256 */\n      0x00\n        /* \"@openzeppelin/contracts/utils/math/SafeMath.sol\":3855:3856  b */\n      dup2\n        /* \"@openzeppelin/contracts/utils/math/SafeMath.sol\":3851:3852  a */\n      dup4\n        /* \"@openzeppelin/contracts/utils/math/SafeMath.sol\":3851:3856  a / b */\n      tag_159\n      swap2\n      swap1\n      tag_160\n      jump\t// in\n    tag_159:\n        /* \"@openzeppelin/contracts/utils/math/SafeMath.sol\":3844:3856  return a / b */\n      swap1\n      pop\n        /* \"@openzeppelin/contracts/utils/math/SafeMath.sol\":3767:3863  function div(uint256 a, uint256 b) internal pure returns (uint256) {... */\n      swap3\n      swap2\n      pop\n      pop\n      jump\t// out\n        /* \"@openzeppelin/contracts/utils/math/SafeMath.sol\":3039:3135  function sub(uint256 a, uint256 b) internal pure returns (uint256) {... */\n    tag_108:\n        /* \"@openzeppelin/contracts/utils/math/SafeMath.sol\":3097:3104  uint256 */\n      0x00\n        /* \"@openzeppelin/contracts/utils/math/SafeMath.sol\":3127:3128  b */\n      dup2\n        /* \"@openzeppelin/contracts/utils/math/SafeMath.sol\":3123:3124  a */\n      dup4\n        /* \"@openzeppelin/contracts/utils/math/SafeMath.sol\":3123:3128  a - b */\n      tag_162\n      swap2\n      swap1\n      tag_163\n      jump\t// in\n    tag_162:\n        /* \"@openzeppelin/contracts/utils/math/SafeMath.sol\":3116:3128  return a - b */\n      swap1\n      pop\n        /* \"@openzeppelin/contracts/utils/math/SafeMath.sol\":3039:3135  function sub(uint256 a, uint256 b) internal pure returns (uint256) {... */\n      swap3\n      swap2\n      pop\n      pop\n      jump\t// out\n        /* \"@openzeppelin/contracts/token/ERC20/utils/SafeERC20.sol\":845:1086  function safeTransferFrom(... */\n    tag_114:\n        /* \"@openzeppelin/contracts/token/ERC20/utils/SafeERC20.sol\":983:1079  _callOptionalReturn(token, abi.encodeWithSelector(token.transferFrom.selector, from, to, value)) */\n      tag_165\n        /* \"@openzeppelin/contracts/token/ERC20/utils/SafeERC20.sol\":1003:1008  token */\n      dup5\n        /* \"@openzeppelin/contracts/token/ERC20/utils/SafeERC20.sol\":1033:1060  token.transferFrom.selector */\n      shl(0xe0, 0x23b872dd)\n        /* \"@openzeppelin/contracts/token/ERC20/utils/SafeERC20.sol\":1062:1066  from */\n      dup6\n        /* \"@openzeppelin/contracts/token/ERC20/utils/SafeERC20.sol\":1068:1070  to */\n      dup6\n        /* \"@openzeppelin/contracts/token/ERC20/utils/SafeERC20.sol\":1072:1077  value */\n      dup6\n        /* \"@openzeppelin/contracts/token/ERC20/utils/SafeERC20.sol\":1010:1078  abi.encodeWithSelector(token.transferFrom.selector, from, to, value) */\n      add(0x24, mload(0x40))\n      tag_166\n      swap4\n      swap3\n      swap2\n      swap1\n      tag_167\n      jump\t// in\n    tag_166:\n      mload(0x40)\n      0x20\n      dup2\n      dup4\n      sub\n      sub\n      dup2\n      mstore\n      swap1\n      0x40\n      mstore\n      swap1\n      not(0xffffffffffffffffffffffffffffffffffffffffffffffffffffffff)\n      and\n      0x20\n      dup3\n      add\n      dup1\n      mload\n      0xffffffffffffffffffffffffffffffffffffffffffffffffffffffff\n      dup4\n      dup2\n      dup4\n      and\n      or\n      dup4\n      mstore\n      pop\n      pop\n      pop\n      pop\n        /* \"@openzeppelin/contracts/token/ERC20/utils/SafeERC20.sol\":983:1002  _callOptionalReturn */\n      tag_168\n        /* \"@openzeppelin/contracts/token/ERC20/utils/SafeERC20.sol\":983:1079  _callOptionalReturn(token, abi.encodeWithSelector(token.transferFrom.selector, from, to, value)) */\n      jump\t// in\n    tag_165:\n        /* \"@openzeppelin/contracts/token/ERC20/utils/SafeERC20.sol\":845:1086  function safeTransferFrom(... */\n      pop\n      pop\n      pop\n      pop\n      jump\t// out\n        /* \"contracts/libraries/TransferHelper.sol\":1026:1274  function safeTransferETH(address to, uint256 value) internal {... */\n    tag_117:\n        /* \"contracts/libraries/TransferHelper.sol\":1098:1110  bool success */\n      0x00\n        /* \"contracts/libraries/TransferHelper.sol\":1116:1118  to */\n      dup3\n        /* \"contracts/libraries/TransferHelper.sol\":1116:1123  to.call */\n      0xffffffffffffffffffffffffffffffffffffffff\n      and\n        /* \"contracts/libraries/TransferHelper.sol\":1131:1136  value */\n      dup3\n        /* \"contracts/libraries/TransferHelper.sol\":1148:1149  0 */\n      0x00\n        /* \"contracts/libraries/TransferHelper.sol\":1138:1150  new bytes(0) */\n      0xffffffffffffffff\n      dup2\n      gt\n      iszero\n      tag_170\n      jumpi\n      tag_171\n      tag_172\n      jump\t// in\n    tag_171:\n    tag_170:\n      mload(0x40)\n      swap1\n      dup1\n      dup3\n      mstore\n      dup1\n      0x1f\n      add\n      not(0x1f)\n      and\n      0x20\n      add\n      dup3\n      add\n      0x40\n      mstore\n      dup1\n      iszero\n      tag_173\n      jumpi\n      dup2\n      0x20\n      add\n      0x01\n      dup3\n      mul\n      dup1\n      calldatasize\n      dup4\n      calldatacopy\n      dup1\n      dup3\n      add\n      swap2\n      pop\n      pop\n      swap1\n      pop\n    tag_173:\n      pop\n        /* \"contracts/libraries/TransferHelper.sol\":1116:1151  to.call{value: value}(new bytes(0)) */\n      mload(0x40)\n      tag_174\n      swap2\n      swap1\n      tag_175\n      jump\t// in\n    tag_174:\n      0x00\n      mload(0x40)\n      dup1\n      dup4\n      sub\n      dup2\n      dup6\n      dup8\n      gas\n      call\n      swap3\n      pop\n      pop\n      pop\n      returndatasize\n      dup1\n      0x00\n      dup2\n      eq\n      tag_178\n      jumpi\n      mload(0x40)\n      swap2\n      pop\n      and(add(returndatasize, 0x3f), not(0x1f))\n      dup3\n      add\n      0x40\n      mstore\n      returndatasize\n      dup3\n      mstore\n      returndatasize\n      0x00\n      0x20\n      dup5\n      add\n      returndatacopy\n      jump(tag_177)\n    tag_178:\n      0x60\n      swap2\n      pop\n    tag_177:\n      pop\n        /* \"contracts/libraries/TransferHelper.sol\":1097:1151  (bool success, ) = to.call{value: value}(new bytes(0)) */\n      pop\n      swap1\n      pop\n        /* \"contracts/libraries/TransferHelper.sol\":1182:1189  success */\n      dup1\n        /* \"contracts/libraries/TransferHelper.sol\":1161:1267  require(... */\n      tag_179\n      jumpi\n      mload(0x40)\n      0x08c379a000000000000000000000000000000000000000000000000000000000\n      dup2\n      mstore\n      0x04\n      add\n      tag_180\n      swap1\n      tag_181\n      jump\t// in\n    tag_180:\n      mload(0x40)\n      dup1\n      swap2\n      sub\n      swap1\n      revert\n    tag_179:\n        /* \"contracts/libraries/TransferHelper.sol\":1087:1274  {... */\n      pop\n        /* \"contracts/libraries/TransferHelper.sol\":1026:1274  function safeTransferETH(address to, uint256 value) internal {... */\n      pop\n      pop\n      jump\t// out\n        /* \"contracts/libraries/TransferHelper.sol\":210:594  function safeTransfer(... */\n    tag_120:\n        /* \"contracts/libraries/TransferHelper.sol\":324:336  bool success */\n      0x00\n        /* \"contracts/libraries/TransferHelper.sol\":338:355  bytes memory data */\n      dup1\n        /* \"contracts/libraries/TransferHelper.sol\":371:376  token */\n      dup5\n        /* \"contracts/libraries/TransferHelper.sol\":371:381  token.call */\n      0xffffffffffffffffffffffffffffffffffffffff\n      and\n        /* \"contracts/libraries/TransferHelper.sol\":405:415  0xa9059cbb */\n      0xa9059cbb\n        /* \"contracts/libraries/TransferHelper.sol\":417:419  to */\n      dup6\n        /* \"contracts/libraries/TransferHelper.sol\":421:426  value */\n      dup6\n        /* \"contracts/libraries/TransferHelper.sol\":382:427  abi.encodeWithSelector(0xa9059cbb, to, value) */\n      add(0x24, mload(0x40))\n      tag_183\n      swap3\n      swap2\n      swap1\n      tag_184\n      jump\t// in\n    tag_183:\n      mload(0x40)\n      0x20\n      dup2\n      dup4\n      sub\n      sub\n      dup2\n      mstore\n      swap1\n      0x40\n      mstore\n      swap1\n      0xe0\n      shl\n      0x20\n      dup3\n      add\n      dup1\n      mload\n      0xffffffffffffffffffffffffffffffffffffffffffffffffffffffff\n      dup4\n      dup2\n      dup4\n      and\n      or\n      dup4\n      mstore\n      pop\n      pop\n      pop\n      pop\n        /* \"contracts/libraries/TransferHelper.sol\":371:428  token.call(abi.encodeWithSelector(0xa9059cbb, to, value)) */\n      mload(0x40)\n      tag_185\n      swap2\n      swap1\n      tag_175\n      jump\t// in\n    tag_185:\n      0x00\n      mload(0x40)\n      dup1\n      dup4\n      sub\n      dup2\n      0x00\n      dup7\n      gas\n      call\n      swap2\n      pop\n      pop\n      returndatasize\n      dup1\n      0x00\n      dup2\n      eq\n      tag_188\n      jumpi\n      mload(0x40)\n      swap2\n      pop\n      and(add(returndatasize, 0x3f), not(0x1f))\n      dup3\n      add\n      0x40\n      mstore\n      returndatasize\n      dup3\n      mstore\n      returndatasize\n      0x00\n      0x20\n      dup5\n      add\n      returndatacopy\n      jump(tag_187)\n    tag_188:\n      0x60\n      swap2\n      pop\n    tag_187:\n      pop\n        /* \"contracts/libraries/TransferHelper.sol\":323:428  (bool success, bytes memory data) =... */\n      swap2\n      pop\n      swap2\n      pop\n        /* \"contracts/libraries/TransferHelper.sol\":459:466  success */\n      dup2\n        /* \"contracts/libraries/TransferHelper.sol\":459:516  success && (data.length == 0 || abi.decode(data, (bool))) */\n      dup1\n      iszero\n      tag_189\n      jumpi\n      pop\n        /* \"contracts/libraries/TransferHelper.sol\":486:487  0 */\n      0x00\n        /* \"contracts/libraries/TransferHelper.sol\":471:475  data */\n      dup2\n        /* \"contracts/libraries/TransferHelper.sol\":471:482  data.length */\n      mload\n        /* \"contracts/libraries/TransferHelper.sol\":471:487  data.length == 0 */\n      eq\n        /* \"contracts/libraries/TransferHelper.sol\":471:515  data.length == 0 || abi.decode(data, (bool)) */\n      dup1\n      tag_190\n      jumpi\n      pop\n        /* \"contracts/libraries/TransferHelper.sol\":502:506  data */\n      dup1\n        /* \"contracts/libraries/TransferHelper.sol\":491:515  abi.decode(data, (bool)) */\n      dup1\n      0x20\n      add\n      swap1\n      mload\n      dup2\n      add\n      swap1\n      tag_191\n      swap2\n      swap1\n      tag_192\n      jump\t// in\n    tag_191:\n        /* \"contracts/libraries/TransferHelper.sol\":471:515  data.length == 0 || abi.decode(data, (bool)) */\n    tag_190:\n        /* \"contracts/libraries/TransferHelper.sol\":459:516  success && (data.length == 0 || abi.decode(data, (bool))) */\n    tag_189:\n        /* \"contracts/libraries/TransferHelper.sol\":438:587  require(... */\n      tag_193\n      jumpi\n      mload(0x40)\n      0x08c379a000000000000000000000000000000000000000000000000000000000\n      dup2\n      mstore\n      0x04\n      add\n      tag_194\n      swap1\n      tag_195\n      jump\t// in\n    tag_194:\n      mload(0x40)\n      dup1\n      swap2\n      sub\n      swap1\n      revert\n    tag_193:\n        /* \"contracts/libraries/TransferHelper.sol\":313:594  {... */\n      pop\n      pop\n        /* \"contracts/libraries/TransferHelper.sol\":210:594  function safeTransfer(... */\n      pop\n      pop\n      pop\n      jump\t// out\n        /* \"@openzeppelin/contracts/token/ERC20/utils/SafeERC20.sol\":3140:3846  function _callOptionalReturn(IERC20 token, bytes memory data) private {... */\n    tag_168:\n        /* \"@openzeppelin/contracts/token/ERC20/utils/SafeERC20.sol\":3559:3582  bytes memory returndata */\n      0x00\n        /* \"@openzeppelin/contracts/token/ERC20/utils/SafeERC20.sol\":3585:3654  address(token).functionCall(data, \"SafeERC20: low-level call failed\") */\n      tag_197\n        /* \"@openzeppelin/contracts/token/ERC20/utils/SafeERC20.sol\":3613:3617  data */\n      dup3\n        /* \"@openzeppelin/contracts/token/ERC20/utils/SafeERC20.sol\":3585:3654  address(token).functionCall(data, \"SafeERC20: low-level call failed\") */\n      mload(0x40)\n      dup1\n      0x40\n      add\n      0x40\n      mstore\n      dup1\n      0x20\n      dup2\n      mstore\n      0x20\n      add\n      0x5361666545524332303a206c6f772d6c6576656c2063616c6c206661696c6564\n      dup2\n      mstore\n      pop\n        /* \"@openzeppelin/contracts/token/ERC20/utils/SafeERC20.sol\":3593:3598  token */\n      dup6\n        /* \"@openzeppelin/contracts/token/ERC20/utils/SafeERC20.sol\":3585:3612  address(token).functionCall */\n      0xffffffffffffffffffffffffffffffffffffffff\n      and\n      tag_198\n      swap1\n        /* \"@openzeppelin/contracts/token/ERC20/utils/SafeERC20.sol\":3585:3654  address(token).functionCall(data, \"SafeERC20: low-level call failed\") */\n      swap3\n      swap2\n      swap1\n      0xffffffff\n      and\n      jump\t// in\n    tag_197:\n        /* \"@openzeppelin/contracts/token/ERC20/utils/SafeERC20.sol\":3559:3654  bytes memory returndata = address(token).functionCall(data, \"SafeERC20: low-level call failed\") */\n      swap1\n      pop\n        /* \"@openzeppelin/contracts/token/ERC20/utils/SafeERC20.sol\":3688:3689  0 */\n      0x00\n        /* \"@openzeppelin/contracts/token/ERC20/utils/SafeERC20.sol\":3668:3678  returndata */\n      dup2\n        /* \"@openzeppelin/contracts/token/ERC20/utils/SafeERC20.sol\":3668:3685  returndata.length */\n      mload\n        /* \"@openzeppelin/contracts/token/ERC20/utils/SafeERC20.sol\":3668:3689  returndata.length > 0 */\n      gt\n        /* \"@openzeppelin/contracts/token/ERC20/utils/SafeERC20.sol\":3664:3840  if (returndata.length > 0) {... */\n      iszero\n      tag_199\n      jumpi\n        /* \"@openzeppelin/contracts/token/ERC20/utils/SafeERC20.sol\":3763:3773  returndata */\n      dup1\n        /* \"@openzeppelin/contracts/token/ERC20/utils/SafeERC20.sol\":3752:3782  abi.decode(returndata, (bool)) */\n      dup1\n      0x20\n      add\n      swap1\n      mload\n      dup2\n      add\n      swap1\n      tag_200\n      swap2\n      swap1\n      tag_192\n      jump\t// in\n    tag_200:\n        /* \"@openzeppelin/contracts/token/ERC20/utils/SafeERC20.sol\":3744:3829  require(abi.decode(returndata, (bool)), \"SafeERC20: ERC20 operation did not succeed\") */\n      tag_201\n      jumpi\n      mload(0x40)\n      0x08c379a000000000000000000000000000000000000000000000000000000000\n      dup2\n      mstore\n      0x04\n      add\n      tag_202\n      swap1\n      tag_203\n      jump\t// in\n    tag_202:\n      mload(0x40)\n      dup1\n      swap2\n      sub\n      swap1\n      revert\n    tag_201:\n        /* \"@openzeppelin/contracts/token/ERC20/utils/SafeERC20.sol\":3664:3840  if (returndata.length > 0) {... */\n    tag_199:\n        /* \"@openzeppelin/contracts/token/ERC20/utils/SafeERC20.sol\":3210:3846  {... */\n      pop\n        /* \"@openzeppelin/contracts/token/ERC20/utils/SafeERC20.sol\":3140:3846  function _callOptionalReturn(IERC20 token, bytes memory data) private {... */\n      pop\n      pop\n      jump\t// out\n        /* \"@openzeppelin/contracts/utils/Address.sol\":3461:3684  function functionCall(... */\n    tag_198:\n        /* \"@openzeppelin/contracts/utils/Address.sol\":3594:3606  bytes memory */\n      0x60\n        /* \"@openzeppelin/contracts/utils/Address.sol\":3625:3677  functionCallWithValue(target, data, 0, errorMessage) */\n      tag_205\n        /* \"@openzeppelin/contracts/utils/Address.sol\":3647:3653  target */\n      dup5\n        /* \"@openzeppelin/contracts/utils/Address.sol\":3655:3659  data */\n      dup5\n        /* \"@openzeppelin/contracts/utils/Address.sol\":3661:3662  0 */\n      0x00\n        /* \"@openzeppelin/contracts/utils/Address.sol\":3664:3676  errorMessage */\n      dup6\n        /* \"@openzeppelin/contracts/utils/Address.sol\":3625:3646  functionCallWithValue */\n      tag_206\n        /* \"@openzeppelin/contracts/utils/Address.sol\":3625:3677  functionCallWithValue(target, data, 0, errorMessage) */\n      jump\t// in\n    tag_205:\n        /* \"@openzeppelin/contracts/utils/Address.sol\":3618:3677  return functionCallWithValue(target, data, 0, errorMessage) */\n      swap1\n      pop\n        /* \"@openzeppelin/contracts/utils/Address.sol\":3461:3684  function functionCall(... */\n      swap4\n      swap3\n      pop\n      pop\n      pop\n      jump\t// out\n        /* \"@openzeppelin/contracts/utils/Address.sol\":4548:5048  function functionCallWithValue(... */\n    tag_206:\n        /* \"@openzeppelin/contracts/utils/Address.sol\":4713:4725  bytes memory */\n      0x60\n        /* \"@openzeppelin/contracts/utils/Address.sol\":4770:4775  value */\n      dup3\n        /* \"@openzeppelin/contracts/utils/Address.sol\":4745:4766  address(this).balance */\n      selfbalance\n        /* \"@openzeppelin/contracts/utils/Address.sol\":4745:4775  address(this).balance >= value */\n      lt\n      iszero\n        /* \"@openzeppelin/contracts/utils/Address.sol\":4737:4818  require(address(this).balance >= value, \"Address: insufficient balance for call\") */\n      tag_208\n      jumpi\n      mload(0x40)\n      0x08c379a000000000000000000000000000000000000000000000000000000000\n      dup2\n      mstore\n      0x04\n      add\n      tag_209\n      swap1\n      tag_210\n      jump\t// in\n    tag_209:\n      mload(0x40)\n      dup1\n      swap2\n      sub\n      swap1\n      revert\n    tag_208:\n        /* \"@openzeppelin/contracts/utils/Address.sol\":4836:4854  isContract(target) */\n      tag_211\n        /* \"@openzeppelin/contracts/utils/Address.sol\":4847:4853  target */\n      dup6\n        /* \"@openzeppelin/contracts/utils/Address.sol\":4836:4846  isContract */\n      tag_212\n        /* \"@openzeppelin/contracts/utils/Address.sol\":4836:4854  isContract(target) */\n      jump\t// in\n    tag_211:\n        /* \"@openzeppelin/contracts/utils/Address.sol\":4828:4888  require(isContract(target), \"Address: call to non-contract\") */\n      tag_213\n      jumpi\n      mload(0x40)\n      0x08c379a000000000000000000000000000000000000000000000000000000000\n      dup2\n      mstore\n      0x04\n      add\n      tag_214\n      swap1\n      tag_215\n      jump\t// in\n    tag_214:\n      mload(0x40)\n      dup1\n      swap2\n      sub\n      swap1\n      revert\n    tag_213:\n        /* \"@openzeppelin/contracts/utils/Address.sol\":4900:4912  bool success */\n      0x00\n        /* \"@openzeppelin/contracts/utils/Address.sol\":4914:4937  bytes memory returndata */\n      dup1\n        /* \"@openzeppelin/contracts/utils/Address.sol\":4941:4947  target */\n      dup7\n        /* \"@openzeppelin/contracts/utils/Address.sol\":4941:4952  target.call */\n      0xffffffffffffffffffffffffffffffffffffffff\n      and\n        /* \"@openzeppelin/contracts/utils/Address.sol\":4960:4965  value */\n      dup6\n        /* \"@openzeppelin/contracts/utils/Address.sol\":4967:4971  data */\n      dup8\n        /* \"@openzeppelin/contracts/utils/Address.sol\":4941:4972  target.call{value: value}(data) */\n      mload(0x40)\n      tag_216\n      swap2\n      swap1\n      tag_175\n      jump\t// in\n    tag_216:\n      0x00\n      mload(0x40)\n      dup1\n      dup4\n      sub\n      dup2\n      dup6\n      dup8\n      gas\n      call\n      swap3\n      pop\n      pop\n      pop\n      returndatasize\n      dup1\n      0x00\n      dup2\n      eq\n      tag_219\n      jumpi\n      mload(0x40)\n      swap2\n      pop\n      and(add(returndatasize, 0x3f), not(0x1f))\n      dup3\n      add\n      0x40\n      mstore\n      returndatasize\n      dup3\n      mstore\n      returndatasize\n      0x00\n      0x20\n      dup5\n      add\n      returndatacopy\n      jump(tag_218)\n    tag_219:\n      0x60\n      swap2\n      pop\n    tag_218:\n      pop\n        /* \"@openzeppelin/contracts/utils/Address.sol\":4899:4972  (bool success, bytes memory returndata) = target.call{value: value}(data) */\n      swap2\n      pop\n      swap2\n      pop\n        /* \"@openzeppelin/contracts/utils/Address.sol\":4989:5041  _verifyCallResult(success, returndata, errorMessage) */\n      tag_220\n        /* \"@openzeppelin/contracts/utils/Address.sol\":5007:5014  success */\n      dup3\n        /* \"@openzeppelin/contracts/utils/Address.sol\":5016:5026  returndata */\n      dup3\n        /* \"@openzeppelin/contracts/utils/Address.sol\":5028:5040  errorMessage */\n      dup7\n        /* \"@openzeppelin/contracts/utils/Address.sol\":4989:5006  _verifyCallResult */\n      tag_221\n        /* \"@openzeppelin/contracts/utils/Address.sol\":4989:5041  _verifyCallResult(success, returndata, errorMessage) */\n      jump\t// in\n    tag_220:\n        /* \"@openzeppelin/contracts/utils/Address.sol\":4982:5041  return _verifyCallResult(success, returndata, errorMessage) */\n      swap3\n      pop\n      pop\n      pop\n        /* \"@openzeppelin/contracts/utils/Address.sol\":4548:5048  function functionCallWithValue(... */\n      swap5\n      swap4\n      pop\n      pop\n      pop\n      pop\n      jump\t// out\n        /* \"@openzeppelin/contracts/utils/Address.sol\":718:1095  function isContract(address account) internal view returns (bool) {... */\n    tag_212:\n        /* \"@openzeppelin/contracts/utils/Address.sol\":778:782  bool */\n      0x00\n        /* \"@openzeppelin/contracts/utils/Address.sol\":981:993  uint256 size */\n      dup1\n        /* \"@openzeppelin/contracts/utils/Address.sol\":1046:1053  account */\n      dup3\n        /* \"@openzeppelin/contracts/utils/Address.sol\":1034:1054  extcodesize(account) */\n      extcodesize\n        /* \"@openzeppelin/contracts/utils/Address.sol\":1026:1054  size := extcodesize(account) */\n      swap1\n      pop\n        /* \"@openzeppelin/contracts/utils/Address.sol\":1087:1088  0 */\n      0x00\n        /* \"@openzeppelin/contracts/utils/Address.sol\":1080:1084  size */\n      dup2\n        /* \"@openzeppelin/contracts/utils/Address.sol\":1080:1088  size > 0 */\n      gt\n        /* \"@openzeppelin/contracts/utils/Address.sol\":1073:1088  return size > 0 */\n      swap2\n      pop\n      pop\n        /* \"@openzeppelin/contracts/utils/Address.sol\":718:1095  function isContract(address account) internal view returns (bool) {... */\n      swap2\n      swap1\n      pop\n      jump\t// out\n        /* \"@openzeppelin/contracts/utils/Address.sol\":6950:7642  function _verifyCallResult(... */\n    tag_221:\n        /* \"@openzeppelin/contracts/utils/Address.sol\":7096:7108  bytes memory */\n      0x60\n        /* \"@openzeppelin/contracts/utils/Address.sol\":7124:7131  success */\n      dup4\n        /* \"@openzeppelin/contracts/utils/Address.sol\":7120:7636  if (success) {... */\n      iszero\n      tag_224\n      jumpi\n        /* \"@openzeppelin/contracts/utils/Address.sol\":7154:7164  returndata */\n      dup3\n        /* \"@openzeppelin/contracts/utils/Address.sol\":7147:7164  return returndata */\n      swap1\n      pop\n      jump(tag_223)\n        /* \"@openzeppelin/contracts/utils/Address.sol\":7120:7636  if (success) {... */\n    tag_224:\n        /* \"@openzeppelin/contracts/utils/Address.sol\":7285:7286  0 */\n      0x00\n        /* \"@openzeppelin/contracts/utils/Address.sol\":7265:7275  returndata */\n      dup4\n        /* \"@openzeppelin/contracts/utils/Address.sol\":7265:7282  returndata.length */\n      mload\n        /* \"@openzeppelin/contracts/utils/Address.sol\":7265:7286  returndata.length > 0 */\n      gt\n        /* \"@openzeppelin/contracts/utils/Address.sol\":7261:7626  if (returndata.length > 0) {... */\n      iszero\n      tag_226\n      jumpi\n        /* \"@openzeppelin/contracts/utils/Address.sol\":7459:7469  returndata */\n      dup3\n        /* \"@openzeppelin/contracts/utils/Address.sol\":7453:7470  mload(returndata) */\n      mload\n        /* \"@openzeppelin/contracts/utils/Address.sol\":7519:7534  returndata_size */\n      dup1\n        /* \"@openzeppelin/contracts/utils/Address.sol\":7506:7516  returndata */\n      dup5\n        /* \"@openzeppelin/contracts/utils/Address.sol\":7502:7504  32 */\n      0x20\n        /* \"@openzeppelin/contracts/utils/Address.sol\":7498:7517  add(32, returndata) */\n      add\n        /* \"@openzeppelin/contracts/utils/Address.sol\":7491:7535  revert(add(32, returndata), returndata_size) */\n      revert\n        /* \"@openzeppelin/contracts/utils/Address.sol\":7261:7626  if (returndata.length > 0) {... */\n    tag_226:\n        /* \"@openzeppelin/contracts/utils/Address.sol\":7598:7610  errorMessage */\n      dup2\n        /* \"@openzeppelin/contracts/utils/Address.sol\":7591:7611  revert(errorMessage) */\n      mload(0x40)\n      0x08c379a000000000000000000000000000000000000000000000000000000000\n      dup2\n      mstore\n      0x04\n      add\n      tag_228\n      swap2\n      swap1\n      tag_229\n      jump\t// in\n    tag_228:\n      mload(0x40)\n      dup1\n      swap2\n      sub\n      swap1\n      revert\n        /* \"@openzeppelin/contracts/utils/Address.sol\":6950:7642  function _verifyCallResult(... */\n    tag_223:\n      swap4\n      swap3\n      pop\n      pop\n      pop\n      jump\t// out\n        /* \"#utility.yul\":7:146   */\n    tag_231:\n        /* \"#utility.yul\":53:58   */\n      0x00\n        /* \"#utility.yul\":91:97   */\n      dup2\n        /* \"#utility.yul\":78:98   */\n      calldataload\n        /* \"#utility.yul\":69:98   */\n      swap1\n      pop\n        /* \"#utility.yul\":107:140   */\n      tag_233\n        /* \"#utility.yul\":134:139   */\n      dup2\n        /* \"#utility.yul\":107:140   */\n      tag_234\n      jump\t// in\n    tag_233:\n        /* \"#utility.yul\":7:146   */\n      swap3\n      swap2\n      pop\n      pop\n      jump\t// out\n        /* \"#utility.yul\":152:289   */\n    tag_235:\n        /* \"#utility.yul\":206:211   */\n      0x00\n        /* \"#utility.yul\":237:243   */\n      dup2\n        /* \"#utility.yul\":231:244   */\n      mload\n        /* \"#utility.yul\":222:244   */\n      swap1\n      pop\n        /* \"#utility.yul\":253:283   */\n      tag_237\n        /* \"#utility.yul\":277:282   */\n      dup2\n        /* \"#utility.yul\":253:283   */\n      tag_238\n      jump\t// in\n    tag_237:\n        /* \"#utility.yul\":152:289   */\n      swap3\n      swap2\n      pop\n      pop\n      jump\t// out\n        /* \"#utility.yul\":295:462   */\n    tag_239:\n        /* \"#utility.yul\":355:360   */\n      0x00\n        /* \"#utility.yul\":393:399   */\n      dup2\n        /* \"#utility.yul\":380:400   */\n      calldataload\n        /* \"#utility.yul\":371:400   */\n      swap1\n      pop\n        /* \"#utility.yul\":409:456   */\n      tag_241\n        /* \"#utility.yul\":450:455   */\n      dup2\n        /* \"#utility.yul\":409:456   */\n      tag_242\n      jump\t// in\n    tag_241:\n        /* \"#utility.yul\":295:462   */\n      swap3\n      swap2\n      pop\n      pop\n      jump\t// out\n        /* \"#utility.yul\":468:607   */\n    tag_243:\n        /* \"#utility.yul\":514:519   */\n      0x00\n        /* \"#utility.yul\":552:558   */\n      dup2\n        /* \"#utility.yul\":539:559   */\n      calldataload\n        /* \"#utility.yul\":530:559   */\n      swap1\n      pop\n        /* \"#utility.yul\":568:601   */\n      tag_245\n        /* \"#utility.yul\":595:600   */\n      dup2\n        /* \"#utility.yul\":568:601   */\n      tag_246\n      jump\t// in\n    tag_245:\n        /* \"#utility.yul\":468:607   */\n      swap3\n      swap2\n      pop\n      pop\n      jump\t// out\n        /* \"#utility.yul\":613:756   */\n    tag_247:\n        /* \"#utility.yul\":670:675   */\n      0x00\n        /* \"#utility.yul\":701:707   */\n      dup2\n        /* \"#utility.yul\":695:708   */\n      mload\n        /* \"#utility.yul\":686:708   */\n      swap1\n      pop\n        /* \"#utility.yul\":717:750   */\n      tag_249\n        /* \"#utility.yul\":744:749   */\n      dup2\n        /* \"#utility.yul\":717:750   */\n      tag_246\n      jump\t// in\n    tag_249:\n        /* \"#utility.yul\":613:756   */\n      swap3\n      swap2\n      pop\n      pop\n      jump\t// out\n        /* \"#utility.yul\":762:1091   */\n    tag_30:\n        /* \"#utility.yul\":821:827   */\n      0x00\n        /* \"#utility.yul\":870:872   */\n      0x20\n        /* \"#utility.yul\":858:867   */\n      dup3\n        /* \"#utility.yul\":849:856   */\n      dup5\n        /* \"#utility.yul\":845:868   */\n      sub\n        /* \"#utility.yul\":841:873   */\n      slt\n        /* \"#utility.yul\":838:957   */\n      iszero\n      tag_251\n      jumpi\n        /* \"#utility.yul\":876:955   */\n      tag_252\n      tag_253\n      jump\t// in\n    tag_252:\n        /* \"#utility.yul\":838:957   */\n    tag_251:\n        /* \"#utility.yul\":996:997   */\n      0x00\n        /* \"#utility.yul\":1021:1074   */\n      tag_254\n        /* \"#utility.yul\":1066:1073   */\n      dup5\n        /* \"#utility.yul\":1057:1063   */\n      dup3\n        /* \"#utility.yul\":1046:1055   */\n      dup6\n        /* \"#utility.yul\":1042:1064   */\n      add\n        /* \"#utility.yul\":1021:1074   */\n      tag_231\n      jump\t// in\n    tag_254:\n        /* \"#utility.yul\":1011:1074   */\n      swap2\n      pop\n        /* \"#utility.yul\":967:1084   */\n      pop\n        /* \"#utility.yul\":762:1091   */\n      swap3\n      swap2\n      pop\n      pop\n      jump\t// out\n        /* \"#utility.yul\":1097:1442   */\n    tag_192:\n        /* \"#utility.yul\":1164:1170   */\n      0x00\n        /* \"#utility.yul\":1213:1215   */\n      0x20\n        /* \"#utility.yul\":1201:1210   */\n      dup3\n        /* \"#utility.yul\":1192:1199   */\n      dup5\n        /* \"#utility.yul\":1188:1211   */\n      sub\n        /* \"#utility.yul\":1184:1216   */\n      slt\n        /* \"#utility.yul\":1181:1300   */\n      iszero\n      tag_256\n      jumpi\n        /* \"#utility.yul\":1219:1298   */\n      tag_257\n      tag_253\n      jump\t// in\n    tag_257:\n        /* \"#utility.yul\":1181:1300   */\n    tag_256:\n        /* \"#utility.yul\":1339:1340   */\n      0x00\n        /* \"#utility.yul\":1364:1425   */\n      tag_258\n        /* \"#utility.yul\":1417:1424   */\n      dup5\n        /* \"#utility.yul\":1408:1414   */\n      dup3\n        /* \"#utility.yul\":1397:1406   */\n      dup6\n        /* \"#utility.yul\":1393:1415   */\n      add\n        /* \"#utility.yul\":1364:1425   */\n      tag_235\n      jump\t// in\n    tag_258:\n        /* \"#utility.yul\":1354:1425   */\n      swap2\n      pop\n        /* \"#utility.yul\":1310:1435   */\n      pop\n        /* \"#utility.yul\":1097:1442   */\n      swap3\n      swap2\n      pop\n      pop\n      jump\t// out\n        /* \"#utility.yul\":1448:1805   */\n    tag_75:\n        /* \"#utility.yul\":1521:1527   */\n      0x00\n        /* \"#utility.yul\":1570:1572   */\n      0x20\n        /* \"#utility.yul\":1558:1567   */\n      dup3\n        /* \"#utility.yul\":1549:1556   */\n      dup5\n        /* \"#utility.yul\":1545:1568   */\n      sub\n        /* \"#utility.yul\":1541:1573   */\n      slt\n        /* \"#utility.yul\":1538:1657   */\n      iszero\n      tag_260\n      jumpi\n        /* \"#utility.yul\":1576:1655   */\n      tag_261\n      tag_253\n      jump\t// in\n    tag_261:\n        /* \"#utility.yul\":1538:1657   */\n    tag_260:\n        /* \"#utility.yul\":1696:1697   */\n      0x00\n        /* \"#utility.yul\":1721:1788   */\n      tag_262\n        /* \"#utility.yul\":1780:1787   */\n      dup5\n        /* \"#utility.yul\":1771:1777   */\n      dup3\n        /* \"#utility.yul\":1760:1769   */\n      dup6\n        /* \"#utility.yul\":1756:1778   */\n      add\n        /* \"#utility.yul\":1721:1788   */\n      tag_239\n      jump\t// in\n    tag_262:\n        /* \"#utility.yul\":1711:1788   */\n      swap2\n      pop\n        /* \"#utility.yul\":1667:1798   */\n      pop\n        /* \"#utility.yul\":1448:1805   */\n      swap3\n      swap2\n      pop\n      pop\n      jump\t// out\n        /* \"#utility.yul\":1811:2140   */\n    tag_57:\n        /* \"#utility.yul\":1870:1876   */\n      0x00\n        /* \"#utility.yul\":1919:1921   */\n      0x20\n        /* \"#utility.yul\":1907:1916   */\n      dup3\n        /* \"#utility.yul\":1898:1905   */\n      dup5\n        /* \"#utility.yul\":1894:1917   */\n      sub\n        /* \"#utility.yul\":1890:1922   */\n      slt\n        /* \"#utility.yul\":1887:2006   */\n      iszero\n      tag_264\n      jumpi\n        /* \"#utility.yul\":1925:2004   */\n      tag_265\n      tag_253\n      jump\t// in\n    tag_265:\n        /* \"#utility.yul\":1887:2006   */\n    tag_264:\n        /* \"#utility.yul\":2045:2046   */\n      0x00\n        /* \"#utility.yul\":2070:2123   */\n      tag_266\n        /* \"#utility.yul\":2115:2122   */\n      dup5\n        /* \"#utility.yul\":2106:2112   */\n      dup3\n        /* \"#utility.yul\":2095:2104   */\n      dup6\n        /* \"#utility.yul\":2091:2113   */\n      add\n        /* \"#utility.yul\":2070:2123   */\n      tag_243\n      jump\t// in\n    tag_266:\n        /* \"#utility.yul\":2060:2123   */\n      swap2\n      pop\n        /* \"#utility.yul\":2016:2133   */\n      pop\n        /* \"#utility.yul\":1811:2140   */\n      swap3\n      swap2\n      pop\n      pop\n      jump\t// out\n        /* \"#utility.yul\":2146:2497   */\n    tag_85:\n        /* \"#utility.yul\":2216:2222   */\n      0x00\n        /* \"#utility.yul\":2265:2267   */\n      0x20\n        /* \"#utility.yul\":2253:2262   */\n      dup3\n        /* \"#utility.yul\":2244:2251   */\n      dup5\n        /* \"#utility.yul\":2240:2263   */\n      sub\n        /* \"#utility.yul\":2236:2268   */\n      slt\n        /* \"#utility.yul\":2233:2352   */\n      iszero\n      tag_268\n      jumpi\n        /* \"#utility.yul\":2271:2350   */\n      tag_269\n      tag_253\n      jump\t// in\n    tag_269:\n        /* \"#utility.yul\":2233:2352   */\n    tag_268:\n        /* \"#utility.yul\":2391:2392   */\n      0x00\n        /* \"#utility.yul\":2416:2480   */\n      tag_270\n        /* \"#utility.yul\":2472:2479   */\n      dup5\n        /* \"#utility.yul\":2463:2469   */\n      dup3\n        /* \"#utility.yul\":2452:2461   */\n      dup6\n        /* \"#utility.yul\":2448:2470   */\n      add\n        /* \"#utility.yul\":2416:2480   */\n      tag_247\n      jump\t// in\n    tag_270:\n        /* \"#utility.yul\":2406:2480   */\n      swap2\n      pop\n        /* \"#utility.yul\":2362:2490   */\n      pop\n        /* \"#utility.yul\":2146:2497   */\n      swap3\n      swap2\n      pop\n      pop\n      jump\t// out\n        /* \"#utility.yul\":2503:2621   */\n    tag_271:\n        /* \"#utility.yul\":2590:2614   */\n      tag_273\n        /* \"#utility.yul\":2608:2613   */\n      dup2\n        /* \"#utility.yul\":2590:2614   */\n      tag_274\n      jump\t// in\n    tag_273:\n        /* \"#utility.yul\":2585:2588   */\n      dup3\n        /* \"#utility.yul\":2578:2615   */\n      mstore\n        /* \"#utility.yul\":2503:2621   */\n      pop\n      pop\n      jump\t// out\n        /* \"#utility.yul\":2627:3000   */\n    tag_275:\n        /* \"#utility.yul\":2731:2734   */\n      0x00\n        /* \"#utility.yul\":2759:2797   */\n      tag_277\n        /* \"#utility.yul\":2791:2796   */\n      dup3\n        /* \"#utility.yul\":2759:2797   */\n      tag_278\n      jump\t// in\n    tag_277:\n        /* \"#utility.yul\":2813:2901   */\n      tag_279\n        /* \"#utility.yul\":2894:2900   */\n      dup2\n        /* \"#utility.yul\":2889:2892   */\n      dup6\n        /* \"#utility.yul\":2813:2901   */\n      tag_280\n      jump\t// in\n    tag_279:\n        /* \"#utility.yul\":2806:2901   */\n      swap4\n      pop\n        /* \"#utility.yul\":2910:2962   */\n      tag_281\n        /* \"#utility.yul\":2955:2961   */\n      dup2\n        /* \"#utility.yul\":2950:2953   */\n      dup6\n        /* \"#utility.yul\":2943:2947   */\n      0x20\n        /* \"#utility.yul\":2936:2941   */\n      dup7\n        /* \"#utility.yul\":2932:2948   */\n      add\n        /* \"#utility.yul\":2910:2962   */\n      tag_282\n      jump\t// in\n    tag_281:\n        /* \"#utility.yul\":2987:2993   */\n      dup1\n        /* \"#utility.yul\":2982:2985   */\n      dup5\n        /* \"#utility.yul\":2978:2994   */\n      add\n        /* \"#utility.yul\":2971:2994   */\n      swap2\n      pop\n        /* \"#utility.yul\":2735:3000   */\n      pop\n        /* \"#utility.yul\":2627:3000   */\n      swap3\n      swap2\n      pop\n      pop\n      jump\t// out\n        /* \"#utility.yul\":3006:3165   */\n    tag_283:\n        /* \"#utility.yul\":3107:3158   */\n      tag_285\n        /* \"#utility.yul\":3152:3157   */\n      dup2\n        /* \"#utility.yul\":3107:3158   */\n      tag_286\n      jump\t// in\n    tag_285:\n        /* \"#utility.yul\":3102:3105   */\n      dup3\n        /* \"#utility.yul\":3095:3159   */\n      mstore\n        /* \"#utility.yul\":3006:3165   */\n      pop\n      pop\n      jump\t// out\n        /* \"#utility.yul\":3171:3535   */\n    tag_287:\n        /* \"#utility.yul\":3259:3262   */\n      0x00\n        /* \"#utility.yul\":3287:3326   */\n      tag_289\n        /* \"#utility.yul\":3320:3325   */\n      dup3\n        /* \"#utility.yul\":3287:3326   */\n      tag_290\n      jump\t// in\n    tag_289:\n        /* \"#utility.yul\":3342:3413   */\n      tag_291\n        /* \"#utility.yul\":3406:3412   */\n      dup2\n        /* \"#utility.yul\":3401:3404   */\n      dup6\n        /* \"#utility.yul\":3342:3413   */\n      tag_292\n      jump\t// in\n    tag_291:\n        /* \"#utility.yul\":3335:3413   */\n      swap4\n      pop\n        /* \"#utility.yul\":3422:3474   */\n      tag_293\n        /* \"#utility.yul\":3467:3473   */\n      dup2\n        /* \"#utility.yul\":3462:3465   */\n      dup6\n        /* \"#utility.yul\":3455:3459   */\n      0x20\n        /* \"#utility.yul\":3448:3453   */\n      dup7\n        /* \"#utility.yul\":3444:3460   */\n      add\n        /* \"#utility.yul\":3422:3474   */\n      tag_282\n      jump\t// in\n    tag_293:\n        /* \"#utility.yul\":3499:3528   */\n      tag_294\n        /* \"#utility.yul\":3521:3527   */\n      dup2\n        /* \"#utility.yul\":3499:3528   */\n      tag_295\n      jump\t// in\n    tag_294:\n        /* \"#utility.yul\":3494:3497   */\n      dup5\n        /* \"#utility.yul\":3490:3529   */\n      add\n        /* \"#utility.yul\":3483:3529   */\n      swap2\n      pop\n        /* \"#utility.yul\":3263:3535   */\n      pop\n        /* \"#utility.yul\":3171:3535   */\n      swap3\n      swap2\n      pop\n      pop\n      jump\t// out\n        /* \"#utility.yul\":3541:3907   */\n    tag_296:\n        /* \"#utility.yul\":3683:3686   */\n      0x00\n        /* \"#utility.yul\":3704:3771   */\n      tag_298\n        /* \"#utility.yul\":3768:3770   */\n      0x26\n        /* \"#utility.yul\":3763:3766   */\n      dup4\n        /* \"#utility.yul\":3704:3771   */\n      tag_292\n      jump\t// in\n    tag_298:\n        /* \"#utility.yul\":3697:3771   */\n      swap2\n      pop\n        /* \"#utility.yul\":3780:3873   */\n      tag_299\n        /* \"#utility.yul\":3869:3872   */\n      dup3\n        /* \"#utility.yul\":3780:3873   */\n      tag_300\n      jump\t// in\n    tag_299:\n        /* \"#utility.yul\":3898:3900   */\n      0x40\n        /* \"#utility.yul\":3893:3896   */\n      dup3\n        /* \"#utility.yul\":3889:3901   */\n      add\n        /* \"#utility.yul\":3882:3901   */\n      swap1\n      pop\n        /* \"#utility.yul\":3541:3907   */\n      swap2\n      swap1\n      pop\n      jump\t// out\n        /* \"#utility.yul\":3913:4279   */\n    tag_301:\n        /* \"#utility.yul\":4055:4058   */\n      0x00\n        /* \"#utility.yul\":4076:4143   */\n      tag_303\n        /* \"#utility.yul\":4140:4142   */\n      0x34\n        /* \"#utility.yul\":4135:4138   */\n      dup4\n        /* \"#utility.yul\":4076:4143   */\n      tag_292\n      jump\t// in\n    tag_303:\n        /* \"#utility.yul\":4069:4143   */\n      swap2\n      pop\n        /* \"#utility.yul\":4152:4245   */\n      tag_304\n        /* \"#utility.yul\":4241:4244   */\n      dup3\n        /* \"#utility.yul\":4152:4245   */\n      tag_305\n      jump\t// in\n    tag_304:\n        /* \"#utility.yul\":4270:4272   */\n      0x40\n        /* \"#utility.yul\":4265:4268   */\n      dup3\n        /* \"#utility.yul\":4261:4273   */\n      add\n        /* \"#utility.yul\":4254:4273   */\n      swap1\n      pop\n        /* \"#utility.yul\":3913:4279   */\n      swap2\n      swap1\n      pop\n      jump\t// out\n        /* \"#utility.yul\":4285:4651   */\n    tag_306:\n        /* \"#utility.yul\":4427:4430   */\n      0x00\n        /* \"#utility.yul\":4448:4515   */\n      tag_308\n        /* \"#utility.yul\":4512:4514   */\n      0x26\n        /* \"#utility.yul\":4507:4510   */\n      dup4\n        /* \"#utility.yul\":4448:4515   */\n      tag_292\n      jump\t// in\n    tag_308:\n        /* \"#utility.yul\":4441:4515   */\n      swap2\n      pop\n        /* \"#utility.yul\":4524:4617   */\n      tag_309\n        /* \"#utility.yul\":4613:4616   */\n      dup3\n        /* \"#utility.yul\":4524:4617   */\n      tag_310\n      jump\t// in\n    tag_309:\n        /* \"#utility.yul\":4642:4644   */\n      0x40\n        /* \"#utility.yul\":4637:4640   */\n      dup3\n        /* \"#utility.yul\":4633:4645   */\n      add\n        /* \"#utility.yul\":4626:4645   */\n      swap1\n      pop\n        /* \"#utility.yul\":4285:4651   */\n      swap2\n      swap1\n      pop\n      jump\t// out\n        /* \"#utility.yul\":4657:5023   */\n    tag_311:\n        /* \"#utility.yul\":4799:4802   */\n      0x00\n        /* \"#utility.yul\":4820:4887   */\n      tag_313\n        /* \"#utility.yul\":4884:4886   */\n      0x46\n        /* \"#utility.yul\":4879:4882   */\n      dup4\n        /* \"#utility.yul\":4820:4887   */\n      tag_292\n      jump\t// in\n    tag_313:\n        /* \"#utility.yul\":4813:4887   */\n      swap2\n      pop\n        /* \"#utility.yul\":4896:4989   */\n      tag_314\n        /* \"#utility.yul\":4985:4988   */\n      dup3\n        /* \"#utility.yul\":4896:4989   */\n      tag_315\n      jump\t// in\n    tag_314:\n        /* \"#utility.yul\":5014:5016   */\n      0x60\n        /* \"#utility.yul\":5009:5012   */\n      dup3\n        /* \"#utility.yul\":5005:5017   */\n      add\n        /* \"#utility.yul\":4998:5017   */\n      swap1\n      pop\n        /* \"#utility.yul\":4657:5023   */\n      swap2\n      swap1\n      pop\n      jump\t// out\n        /* \"#utility.yul\":5029:5397   */\n    tag_316:\n        /* \"#utility.yul\":5171:5174   */\n      0x00\n        /* \"#utility.yul\":5192:5260   */\n      tag_318\n        /* \"#utility.yul\":5256:5259   */\n      0x77\n        /* \"#utility.yul\":5251:5254   */\n      dup4\n        /* \"#utility.yul\":5192:5260   */\n      tag_292\n      jump\t// in\n    tag_318:\n        /* \"#utility.yul\":5185:5260   */\n      swap2\n      pop\n        /* \"#utility.yul\":5269:5362   */\n      tag_319\n        /* \"#utility.yul\":5358:5361   */\n      dup3\n        /* \"#utility.yul\":5269:5362   */\n      tag_320\n      jump\t// in\n    tag_319:\n        /* \"#utility.yul\":5387:5390   */\n      0x80\n        /* \"#utility.yul\":5382:5385   */\n      dup3\n        /* \"#utility.yul\":5378:5391   */\n      add\n        /* \"#utility.yul\":5371:5391   */\n      swap1\n      pop\n        /* \"#utility.yul\":5029:5397   */\n      swap2\n      swap1\n      pop\n      jump\t// out\n        /* \"#utility.yul\":5403:5769   */\n    tag_321:\n        /* \"#utility.yul\":5545:5548   */\n      0x00\n        /* \"#utility.yul\":5566:5633   */\n      tag_323\n        /* \"#utility.yul\":5630:5632   */\n      0x20\n        /* \"#utility.yul\":5625:5628   */\n      dup4\n        /* \"#utility.yul\":5566:5633   */\n      tag_292\n      jump\t// in\n    tag_323:\n        /* \"#utility.yul\":5559:5633   */\n      swap2\n      pop\n        /* \"#utility.yul\":5642:5735   */\n      tag_324\n        /* \"#utility.yul\":5731:5734   */\n      dup3\n        /* \"#utility.yul\":5642:5735   */\n      tag_325\n      jump\t// in\n    tag_324:\n        /* \"#utility.yul\":5760:5762   */\n      0x20\n        /* \"#utility.yul\":5755:5758   */\n      dup3\n        /* \"#utility.yul\":5751:5763   */\n      add\n        /* \"#utility.yul\":5744:5763   */\n      swap1\n      pop\n        /* \"#utility.yul\":5403:5769   */\n      swap2\n      swap1\n      pop\n      jump\t// out\n        /* \"#utility.yul\":5775:6141   */\n    tag_326:\n        /* \"#utility.yul\":5917:5920   */\n      0x00\n        /* \"#utility.yul\":5938:6005   */\n      tag_328\n        /* \"#utility.yul\":6002:6004   */\n      0x35\n        /* \"#utility.yul\":5997:6000   */\n      dup4\n        /* \"#utility.yul\":5938:6005   */\n      tag_292\n      jump\t// in\n    tag_328:\n        /* \"#utility.yul\":5931:6005   */\n      swap2\n      pop\n        /* \"#utility.yul\":6014:6107   */\n      tag_329\n        /* \"#utility.yul\":6103:6106   */\n      dup3\n        /* \"#utility.yul\":6014:6107   */\n      tag_330\n      jump\t// in\n    tag_329:\n        /* \"#utility.yul\":6132:6134   */\n      0x40\n        /* \"#utility.yul\":6127:6130   */\n      dup3\n        /* \"#utility.yul\":6123:6135   */\n      add\n        /* \"#utility.yul\":6116:6135   */\n      swap1\n      pop\n        /* \"#utility.yul\":5775:6141   */\n      swap2\n      swap1\n      pop\n      jump\t// out\n        /* \"#utility.yul\":6147:6513   */\n    tag_331:\n        /* \"#utility.yul\":6289:6292   */\n      0x00\n        /* \"#utility.yul\":6310:6377   */\n      tag_333\n        /* \"#utility.yul\":6374:6376   */\n      0x1d\n        /* \"#utility.yul\":6369:6372   */\n      dup4\n        /* \"#utility.yul\":6310:6377   */\n      tag_292\n      jump\t// in\n    tag_333:\n        /* \"#utility.yul\":6303:6377   */\n      swap2\n      pop\n        /* \"#utility.yul\":6386:6479   */\n      tag_334\n        /* \"#utility.yul\":6475:6478   */\n      dup3\n        /* \"#utility.yul\":6386:6479   */\n      tag_335\n      jump\t// in\n    tag_334:\n        /* \"#utility.yul\":6504:6506   */\n      0x20\n        /* \"#utility.yul\":6499:6502   */\n      dup3\n        /* \"#utility.yul\":6495:6507   */\n      add\n        /* \"#utility.yul\":6488:6507   */\n      swap1\n      pop\n        /* \"#utility.yul\":6147:6513   */\n      swap2\n      swap1\n      pop\n      jump\t// out\n        /* \"#utility.yul\":6519:6885   */\n    tag_336:\n        /* \"#utility.yul\":6661:6664   */\n      0x00\n        /* \"#utility.yul\":6682:6749   */\n      tag_338\n        /* \"#utility.yul\":6746:6748   */\n      0x2d\n        /* \"#utility.yul\":6741:6744   */\n      dup4\n        /* \"#utility.yul\":6682:6749   */\n      tag_292\n      jump\t// in\n    tag_338:\n        /* \"#utility.yul\":6675:6749   */\n      swap2\n      pop\n        /* \"#utility.yul\":6758:6851   */\n      tag_339\n        /* \"#utility.yul\":6847:6850   */\n      dup3\n        /* \"#utility.yul\":6758:6851   */\n      tag_340\n      jump\t// in\n    tag_339:\n        /* \"#utility.yul\":6876:6878   */\n      0x40\n        /* \"#utility.yul\":6871:6874   */\n      dup3\n        /* \"#utility.yul\":6867:6879   */\n      add\n        /* \"#utility.yul\":6860:6879   */\n      swap1\n      pop\n        /* \"#utility.yul\":6519:6885   */\n      swap2\n      swap1\n      pop\n      jump\t// out\n        /* \"#utility.yul\":6891:7257   */\n    tag_341:\n        /* \"#utility.yul\":7033:7036   */\n      0x00\n        /* \"#utility.yul\":7054:7121   */\n      tag_343\n        /* \"#utility.yul\":7118:7120   */\n      0x2a\n        /* \"#utility.yul\":7113:7116   */\n      dup4\n        /* \"#utility.yul\":7054:7121   */\n      tag_292\n      jump\t// in\n    tag_343:\n        /* \"#utility.yul\":7047:7121   */\n      swap2\n      pop\n        /* \"#utility.yul\":7130:7223   */\n      tag_344\n        /* \"#utility.yul\":7219:7222   */\n      dup3\n        /* \"#utility.yul\":7130:7223   */\n      tag_345\n      jump\t// in\n    tag_344:\n        /* \"#utility.yul\":7248:7250   */\n      0x40\n        /* \"#utility.yul\":7243:7246   */\n      dup3\n        /* \"#utility.yul\":7239:7251   */\n      add\n        /* \"#utility.yul\":7232:7251   */\n      swap1\n      pop\n        /* \"#utility.yul\":6891:7257   */\n      swap2\n      swap1\n      pop\n      jump\t// out\n        /* \"#utility.yul\":7263:7629   */\n    tag_346:\n        /* \"#utility.yul\":7405:7408   */\n      0x00\n        /* \"#utility.yul\":7426:7493   */\n      tag_348\n        /* \"#utility.yul\":7490:7492   */\n      0x34\n        /* \"#utility.yul\":7485:7488   */\n      dup4\n        /* \"#utility.yul\":7426:7493   */\n      tag_292\n      jump\t// in\n    tag_348:\n        /* \"#utility.yul\":7419:7493   */\n      swap2\n      pop\n        /* \"#utility.yul\":7502:7595   */\n      tag_349\n        /* \"#utility.yul\":7591:7594   */\n      dup3\n        /* \"#utility.yul\":7502:7595   */\n      tag_350\n      jump\t// in\n    tag_349:\n        /* \"#utility.yul\":7620:7622   */\n      0x40\n        /* \"#utility.yul\":7615:7618   */\n      dup3\n        /* \"#utility.yul\":7611:7623   */\n      add\n        /* \"#utility.yul\":7604:7623   */\n      swap1\n      pop\n        /* \"#utility.yul\":7263:7629   */\n      swap2\n      swap1\n      pop\n      jump\t// out\n        /* \"#utility.yul\":7635:7753   */\n    tag_351:\n        /* \"#utility.yul\":7722:7746   */\n      tag_353\n        /* \"#utility.yul\":7740:7745   */\n      dup2\n        /* \"#utility.yul\":7722:7746   */\n      tag_354\n      jump\t// in\n    tag_353:\n        /* \"#utility.yul\":7717:7720   */\n      dup3\n        /* \"#utility.yul\":7710:7747   */\n      mstore\n        /* \"#utility.yul\":7635:7753   */\n      pop\n      pop\n      jump\t// out\n        /* \"#utility.yul\":7759:8030   */\n    tag_175:\n        /* \"#utility.yul\":7889:7892   */\n      0x00\n        /* \"#utility.yul\":7911:8004   */\n      tag_356\n        /* \"#utility.yul\":8000:8003   */\n      dup3\n        /* \"#utility.yul\":7991:7997   */\n      dup5\n        /* \"#utility.yul\":7911:8004   */\n      tag_275\n      jump\t// in\n    tag_356:\n        /* \"#utility.yul\":7904:8004   */\n      swap2\n      pop\n        /* \"#utility.yul\":8021:8024   */\n      dup2\n        /* \"#utility.yul\":8014:8024   */\n      swap1\n      pop\n        /* \"#utility.yul\":7759:8030   */\n      swap3\n      swap2\n      pop\n      pop\n      jump\t// out\n        /* \"#utility.yul\":8036:8258   */\n    tag_44:\n        /* \"#utility.yul\":8129:8133   */\n      0x00\n        /* \"#utility.yul\":8167:8169   */\n      0x20\n        /* \"#utility.yul\":8156:8165   */\n      dup3\n        /* \"#utility.yul\":8152:8170   */\n      add\n        /* \"#utility.yul\":8144:8170   */\n      swap1\n      pop\n        /* \"#utility.yul\":8180:8251   */\n      tag_358\n        /* \"#utility.yul\":8248:8249   */\n      0x00\n        /* \"#utility.yul\":8237:8246   */\n      dup4\n        /* \"#utility.yul\":8233:8250   */\n      add\n        /* \"#utility.yul\":8224:8230   */\n      dup5\n        /* \"#utility.yul\":8180:8251   */\n      tag_271\n      jump\t// in\n    tag_358:\n        /* \"#utility.yul\":8036:8258   */\n      swap3\n      swap2\n      pop\n      pop\n      jump\t// out\n        /* \"#utility.yul\":8264:8706   */\n    tag_167:\n        /* \"#utility.yul\":8413:8417   */\n      0x00\n        /* \"#utility.yul\":8451:8453   */\n      0x60\n        /* \"#utility.yul\":8440:8449   */\n      dup3\n        /* \"#utility.yul\":8436:8454   */\n      add\n        /* \"#utility.yul\":8428:8454   */\n      swap1\n      pop\n        /* \"#utility.yul\":8464:8535   */\n      tag_360\n        /* \"#utility.yul\":8532:8533   */\n      0x00\n        /* \"#utility.yul\":8521:8530   */\n      dup4\n        /* \"#utility.yul\":8517:8534   */\n      add\n        /* \"#utility.yul\":8508:8514   */\n      dup7\n        /* \"#utility.yul\":8464:8535   */\n      tag_271\n      jump\t// in\n    tag_360:\n        /* \"#utility.yul\":8545:8617   */\n      tag_361\n        /* \"#utility.yul\":8613:8615   */\n      0x20\n        /* \"#utility.yul\":8602:8611   */\n      dup4\n        /* \"#utility.yul\":8598:8616   */\n      add\n        /* \"#utility.yul\":8589:8595   */\n      dup6\n        /* \"#utility.yul\":8545:8617   */\n      tag_271\n      jump\t// in\n    tag_361:\n        /* \"#utility.yul\":8627:8699   */\n      tag_362\n        /* \"#utility.yul\":8695:8697   */\n      0x40\n        /* \"#utility.yul\":8684:8693   */\n      dup4\n        /* \"#utility.yul\":8680:8698   */\n      add\n        /* \"#utility.yul\":8671:8677   */\n      dup5\n        /* \"#utility.yul\":8627:8699   */\n      tag_351\n      jump\t// in\n    tag_362:\n        /* \"#utility.yul\":8264:8706   */\n      swap5\n      swap4\n      pop\n      pop\n      pop\n      pop\n      jump\t// out\n        /* \"#utility.yul\":8712:9044   */\n    tag_184:\n        /* \"#utility.yul\":8833:8837   */\n      0x00\n        /* \"#utility.yul\":8871:8873   */\n      0x40\n        /* \"#utility.yul\":8860:8869   */\n      dup3\n        /* \"#utility.yul\":8856:8874   */\n      add\n        /* \"#utility.yul\":8848:8874   */\n      swap1\n      pop\n        /* \"#utility.yul\":8884:8955   */\n      tag_364\n        /* \"#utility.yul\":8952:8953   */\n      0x00\n        /* \"#utility.yul\":8941:8950   */\n      dup4\n        /* \"#utility.yul\":8937:8954   */\n      add\n        /* \"#utility.yul\":8928:8934   */\n      dup6\n        /* \"#utility.yul\":8884:8955   */\n      tag_271\n      jump\t// in\n    tag_364:\n        /* \"#utility.yul\":8965:9037   */\n      tag_365\n        /* \"#utility.yul\":9033:9035   */\n      0x20\n        /* \"#utility.yul\":9022:9031   */\n      dup4\n        /* \"#utility.yul\":9018:9036   */\n      add\n        /* \"#utility.yul\":9009:9015   */\n      dup5\n        /* \"#utility.yul\":8965:9037   */\n      tag_351\n      jump\t// in\n    tag_365:\n        /* \"#utility.yul\":8712:9044   */\n      swap4\n      swap3\n      pop\n      pop\n      pop\n      jump\t// out\n        /* \"#utility.yul\":9050:9300   */\n    tag_26:\n        /* \"#utility.yul\":9157:9161   */\n      0x00\n        /* \"#utility.yul\":9195:9197   */\n      0x20\n        /* \"#utility.yul\":9184:9193   */\n      dup3\n        /* \"#utility.yul\":9180:9198   */\n      add\n        /* \"#utility.yul\":9172:9198   */\n      swap1\n      pop\n        /* \"#utility.yul\":9208:9293   */\n      tag_367\n        /* \"#utility.yul\":9290:9291   */\n      0x00\n        /* \"#utility.yul\":9279:9288   */\n      dup4\n        /* \"#utility.yul\":9275:9292   */\n      add\n        /* \"#utility.yul\":9266:9272   */\n      dup5\n        /* \"#utility.yul\":9208:9293   */\n      tag_283\n      jump\t// in\n    tag_367:\n        /* \"#utility.yul\":9050:9300   */\n      swap3\n      swap2\n      pop\n      pop\n      jump\t// out\n        /* \"#utility.yul\":9306:9619   */\n    tag_229:\n        /* \"#utility.yul\":9419:9423   */\n      0x00\n        /* \"#utility.yul\":9457:9459   */\n      0x20\n        /* \"#utility.yul\":9446:9455   */\n      dup3\n        /* \"#utility.yul\":9442:9460   */\n      add\n        /* \"#utility.yul\":9434:9460   */\n      swap1\n      pop\n        /* \"#utility.yul\":9506:9515   */\n      dup2\n        /* \"#utility.yul\":9500:9504   */\n      dup2\n        /* \"#utility.yul\":9496:9516   */\n      sub\n        /* \"#utility.yul\":9492:9493   */\n      0x00\n        /* \"#utility.yul\":9481:9490   */\n      dup4\n        /* \"#utility.yul\":9477:9494   */\n      add\n        /* \"#utility.yul\":9470:9517   */\n      mstore\n        /* \"#utility.yul\":9534:9612   */\n      tag_369\n        /* \"#utility.yul\":9607:9611   */\n      dup2\n        /* \"#utility.yul\":9598:9604   */\n      dup5\n        /* \"#utility.yul\":9534:9612   */\n      tag_287\n      jump\t// in\n    tag_369:\n        /* \"#utility.yul\":9526:9612   */\n      swap1\n      pop\n        /* \"#utility.yul\":9306:9619   */\n      swap3\n      swap2\n      pop\n      pop\n      jump\t// out\n        /* \"#utility.yul\":9625:10044   */\n    tag_129:\n        /* \"#utility.yul\":9791:9795   */\n      0x00\n        /* \"#utility.yul\":9829:9831   */\n      0x20\n        /* \"#utility.yul\":9818:9827   */\n      dup3\n        /* \"#utility.yul\":9814:9832   */\n      add\n        /* \"#utility.yul\":9806:9832   */\n      swap1\n      pop\n        /* \"#utility.yul\":9878:9887   */\n      dup2\n        /* \"#utility.yul\":9872:9876   */\n      dup2\n        /* \"#utility.yul\":9868:9888   */\n      sub\n        /* \"#utility.yul\":9864:9865   */\n      0x00\n        /* \"#utility.yul\":9853:9862   */\n      dup4\n        /* \"#utility.yul\":9849:9866   */\n      add\n        /* \"#utility.yul\":9842:9889   */\n      mstore\n        /* \"#utility.yul\":9906:10037   */\n      tag_371\n        /* \"#utility.yul\":10032:10036   */\n      dup2\n        /* \"#utility.yul\":9906:10037   */\n      tag_296\n      jump\t// in\n    tag_371:\n        /* \"#utility.yul\":9898:10037   */\n      swap1\n      pop\n        /* \"#utility.yul\":9625:10044   */\n      swap2\n      swap1\n      pop\n      jump\t// out\n        /* \"#utility.yul\":10050:10469   */\n    tag_181:\n        /* \"#utility.yul\":10216:10220   */\n      0x00\n        /* \"#utility.yul\":10254:10256   */\n      0x20\n        /* \"#utility.yul\":10243:10252   */\n      dup3\n        /* \"#utility.yul\":10239:10257   */\n      add\n        /* \"#utility.yul\":10231:10257   */\n      swap1\n      pop\n        /* \"#utility.yul\":10303:10312   */\n      dup2\n        /* \"#utility.yul\":10297:10301   */\n      dup2\n        /* \"#utility.yul\":10293:10313   */\n      sub\n        /* \"#utility.yul\":10289:10290   */\n      0x00\n        /* \"#utility.yul\":10278:10287   */\n      dup4\n        /* \"#utility.yul\":10274:10291   */\n      add\n        /* \"#utility.yul\":10267:10314   */\n      mstore\n        /* \"#utility.yul\":10331:10462   */\n      tag_373\n        /* \"#utility.yul\":10457:10461   */\n      dup2\n        /* \"#utility.yul\":10331:10462   */\n      tag_301\n      jump\t// in\n    tag_373:\n        /* \"#utility.yul\":10323:10462   */\n      swap1\n      pop\n        /* \"#utility.yul\":10050:10469   */\n      swap2\n      swap1\n      pop\n      jump\t// out\n        /* \"#utility.yul\":10475:10894   */\n    tag_210:\n        /* \"#utility.yul\":10641:10645   */\n      0x00\n        /* \"#utility.yul\":10679:10681   */\n      0x20\n        /* \"#utility.yul\":10668:10677   */\n      dup3\n        /* \"#utility.yul\":10664:10682   */\n      add\n        /* \"#utility.yul\":10656:10682   */\n      swap1\n      pop\n        /* \"#utility.yul\":10728:10737   */\n      dup2\n        /* \"#utility.yul\":10722:10726   */\n      dup2\n        /* \"#utility.yul\":10718:10738   */\n      sub\n        /* \"#utility.yul\":10714:10715   */\n      0x00\n        /* \"#utility.yul\":10703:10712   */\n      dup4\n        /* \"#utility.yul\":10699:10716   */\n      add\n        /* \"#utility.yul\":10692:10739   */\n      mstore\n        /* \"#utility.yul\":10756:10887   */\n      tag_375\n        /* \"#utility.yul\":10882:10886   */\n      dup2\n        /* \"#utility.yul\":10756:10887   */\n      tag_306\n      jump\t// in\n    tag_375:\n        /* \"#utility.yul\":10748:10887   */\n      swap1\n      pop\n        /* \"#utility.yul\":10475:10894   */\n      swap2\n      swap1\n      pop\n      jump\t// out\n        /* \"#utility.yul\":10900:11319   */\n    tag_139:\n        /* \"#utility.yul\":11066:11070   */\n      0x00\n        /* \"#utility.yul\":11104:11106   */\n      0x20\n        /* \"#utility.yul\":11093:11102   */\n      dup3\n        /* \"#utility.yul\":11089:11107   */\n      add\n        /* \"#utility.yul\":11081:11107   */\n      swap1\n      pop\n        /* \"#utility.yul\":11153:11162   */\n      dup2\n        /* \"#utility.yul\":11147:11151   */\n      dup2\n        /* \"#utility.yul\":11143:11163   */\n      sub\n        /* \"#utility.yul\":11139:11140   */\n      0x00\n        /* \"#utility.yul\":11128:11137   */\n      dup4\n        /* \"#utility.yul\":11124:11141   */\n      add\n        /* \"#utility.yul\":11117:11164   */\n      mstore\n        /* \"#utility.yul\":11181:11312   */\n      tag_377\n        /* \"#utility.yul\":11307:11311   */\n      dup2\n        /* \"#utility.yul\":11181:11312   */\n      tag_311\n      jump\t// in\n    tag_377:\n        /* \"#utility.yul\":11173:11312   */\n      swap1\n      pop\n        /* \"#utility.yul\":10900:11319   */\n      swap2\n      swap1\n      pop\n      jump\t// out\n        /* \"#utility.yul\":11325:11744   */\n    tag_152:\n        /* \"#utility.yul\":11491:11495   */\n      0x00\n        /* \"#utility.yul\":11529:11531   */\n      0x20\n        /* \"#utility.yul\":11518:11527   */\n      dup3\n        /* \"#utility.yul\":11514:11532   */\n      add\n        /* \"#utility.yul\":11506:11532   */\n      swap1\n      pop\n        /* \"#utility.yul\":11578:11587   */\n      dup2\n        /* \"#utility.yul\":11572:11576   */\n      dup2\n        /* \"#utility.yul\":11568:11588   */\n      sub\n        /* \"#utility.yul\":11564:11565   */\n      0x00\n        /* \"#utility.yul\":11553:11562   */\n      dup4\n        /* \"#utility.yul\":11549:11566   */\n      add\n        /* \"#utility.yul\":11542:11589   */\n      mstore\n        /* \"#utility.yul\":11606:11737   */\n      tag_379\n        /* \"#utility.yul\":11732:11736   */\n      dup2\n        /* \"#utility.yul\":11606:11737   */\n      tag_316\n      jump\t// in\n    tag_379:\n        /* \"#utility.yul\":11598:11737   */\n      swap1\n      pop\n        /* \"#utility.yul\":11325:11744   */\n      swap2\n      swap1\n      pop\n      jump\t// out\n        /* \"#utility.yul\":11750:12169   */\n    tag_92:\n        /* \"#utility.yul\":11916:11920   */\n      0x00\n        /* \"#utility.yul\":11954:11956   */\n      0x20\n        /* \"#utility.yul\":11943:11952   */\n      dup3\n        /* \"#utility.yul\":11939:11957   */\n      add\n        /* \"#utility.yul\":11931:11957   */\n      swap1\n      pop\n        /* \"#utility.yul\":12003:12012   */\n      dup2\n        /* \"#utility.yul\":11997:12001   */\n      dup2\n        /* \"#utility.yul\":11993:12013   */\n      sub\n        /* \"#utility.yul\":11989:11990   */\n      0x00\n        /* \"#utility.yul\":11978:11987   */\n      dup4\n        /* \"#utility.yul\":11974:11991   */\n      add\n        /* \"#utility.yul\":11967:12014   */\n      mstore\n        /* \"#utility.yul\":12031:12162   */\n      tag_381\n        /* \"#utility.yul\":12157:12161   */\n      dup2\n        /* \"#utility.yul\":12031:12162   */\n      tag_321\n      jump\t// in\n    tag_381:\n        /* \"#utility.yul\":12023:12162   */\n      swap1\n      pop\n        /* \"#utility.yul\":11750:12169   */\n      swap2\n      swap1\n      pop\n      jump\t// out\n        /* \"#utility.yul\":12175:12594   */\n    tag_111:\n        /* \"#utility.yul\":12341:12345   */\n      0x00\n        /* \"#utility.yul\":12379:12381   */\n      0x20\n        /* \"#utility.yul\":12368:12377   */\n      dup3\n        /* \"#utility.yul\":12364:12382   */\n      add\n        /* \"#utility.yul\":12356:12382   */\n      swap1\n      pop\n        /* \"#utility.yul\":12428:12437   */\n      dup2\n        /* \"#utility.yul\":12422:12426   */\n      dup2\n        /* \"#utility.yul\":12418:12438   */\n      sub\n        /* \"#utility.yul\":12414:12415   */\n      0x00\n        /* \"#utility.yul\":12403:12412   */\n      dup4\n        /* \"#utility.yul\":12399:12416   */\n      add\n        /* \"#utility.yul\":12392:12439   */\n      mstore\n        /* \"#utility.yul\":12456:12587   */\n      tag_383\n        /* \"#utility.yul\":12582:12586   */\n      dup2\n        /* \"#utility.yul\":12456:12587   */\n      tag_326\n      jump\t// in\n    tag_383:\n        /* \"#utility.yul\":12448:12587   */\n      swap1\n      pop\n        /* \"#utility.yul\":12175:12594   */\n      swap2\n      swap1\n      pop\n      jump\t// out\n        /* \"#utility.yul\":12600:13019   */\n    tag_215:\n        /* \"#utility.yul\":12766:12770   */\n      0x00\n        /* \"#utility.yul\":12804:12806   */\n      0x20\n        /* \"#utility.yul\":12793:12802   */\n      dup3\n        /* \"#utility.yul\":12789:12807   */\n      add\n        /* \"#utility.yul\":12781:12807   */\n      swap1\n      pop\n        /* \"#utility.yul\":12853:12862   */\n      dup2\n        /* \"#utility.yul\":12847:12851   */\n      dup2\n        /* \"#utility.yul\":12843:12863   */\n      sub\n        /* \"#utility.yul\":12839:12840   */\n      0x00\n        /* \"#utility.yul\":12828:12837   */\n      dup4\n        /* \"#utility.yul\":12824:12841   */\n      add\n        /* \"#utility.yul\":12817:12864   */\n      mstore\n        /* \"#utility.yul\":12881:13012   */\n      tag_385\n        /* \"#utility.yul\":13007:13011   */\n      dup2\n        /* \"#utility.yul\":12881:13012   */\n      tag_331\n      jump\t// in\n    tag_385:\n        /* \"#utility.yul\":12873:13012   */\n      swap1\n      pop\n        /* \"#utility.yul\":12600:13019   */\n      swap2\n      swap1\n      pop\n      jump\t// out\n        /* \"#utility.yul\":13025:13444   */\n    tag_195:\n        /* \"#utility.yul\":13191:13195   */\n      0x00\n        /* \"#utility.yul\":13229:13231   */\n      0x20\n        /* \"#utility.yul\":13218:13227   */\n      dup3\n        /* \"#utility.yul\":13214:13232   */\n      add\n        /* \"#utility.yul\":13206:13232   */\n      swap1\n      pop\n        /* \"#utility.yul\":13278:13287   */\n      dup2\n        /* \"#utility.yul\":13272:13276   */\n      dup2\n        /* \"#utility.yul\":13268:13288   */\n      sub\n        /* \"#utility.yul\":13264:13265   */\n      0x00\n        /* \"#utility.yul\":13253:13262   */\n      dup4\n        /* \"#utility.yul\":13249:13266   */\n      add\n        /* \"#utility.yul\":13242:13289   */\n      mstore\n        /* \"#utility.yul\":13306:13437   */\n      tag_387\n        /* \"#utility.yul\":13432:13436   */\n      dup2\n        /* \"#utility.yul\":13306:13437   */\n      tag_336\n      jump\t// in\n    tag_387:\n        /* \"#utility.yul\":13298:13437   */\n      swap1\n      pop\n        /* \"#utility.yul\":13025:13444   */\n      swap2\n      swap1\n      pop\n      jump\t// out\n        /* \"#utility.yul\":13450:13869   */\n    tag_203:\n        /* \"#utility.yul\":13616:13620   */\n      0x00\n        /* \"#utility.yul\":13654:13656   */\n      0x20\n        /* \"#utility.yul\":13643:13652   */\n      dup3\n        /* \"#utility.yul\":13639:13657   */\n      add\n        /* \"#utility.yul\":13631:13657   */\n      swap1\n      pop\n        /* \"#utility.yul\":13703:13712   */\n      dup2\n        /* \"#utility.yul\":13697:13701   */\n      dup2\n        /* \"#utility.yul\":13693:13713   */\n      sub\n        /* \"#utility.yul\":13689:13690   */\n      0x00\n        /* \"#utility.yul\":13678:13687   */\n      dup4\n        /* \"#utility.yul\":13674:13691   */\n      add\n        /* \"#utility.yul\":13667:13714   */\n      mstore\n        /* \"#utility.yul\":13731:13862   */\n      tag_389\n        /* \"#utility.yul\":13857:13861   */\n      dup2\n        /* \"#utility.yul\":13731:13862   */\n      tag_341\n      jump\t// in\n    tag_389:\n        /* \"#utility.yul\":13723:13862   */\n      swap1\n      pop\n        /* \"#utility.yul\":13450:13869   */\n      swap2\n      swap1\n      pop\n      jump\t// out\n        /* \"#utility.yul\":13875:14294   */\n    tag_101:\n        /* \"#utility.yul\":14041:14045   */\n      0x00\n        /* \"#utility.yul\":14079:14081   */\n      0x20\n        /* \"#utility.yul\":14068:14077   */\n      dup3\n        /* \"#utility.yul\":14064:14082   */\n      add\n        /* \"#utility.yul\":14056:14082   */\n      swap1\n      pop\n        /* \"#utility.yul\":14128:14137   */\n      dup2\n        /* \"#utility.yul\":14122:14126   */\n      dup2\n        /* \"#utility.yul\":14118:14138   */\n      sub\n        /* \"#utility.yul\":14114:14115   */\n      0x00\n        /* \"#utility.yul\":14103:14112   */\n      dup4\n        /* \"#utility.yul\":14099:14116   */\n      add\n        /* \"#utility.yul\":14092:14139   */\n      mstore\n        /* \"#utility.yul\":14156:14287   */\n      tag_391\n        /* \"#utility.yul\":14282:14286   */\n      dup2\n        /* \"#utility.yul\":14156:14287   */\n      tag_346\n      jump\t// in\n    tag_391:\n        /* \"#utility.yul\":14148:14287   */\n      swap1\n      pop\n        /* \"#utility.yul\":13875:14294   */\n      swap2\n      swap1\n      pop\n      jump\t// out\n        /* \"#utility.yul\":14300:14522   */\n    tag_21:\n        /* \"#utility.yul\":14393:14397   */\n      0x00\n        /* \"#utility.yul\":14431:14433   */\n      0x20\n        /* \"#utility.yul\":14420:14429   */\n      dup3\n        /* \"#utility.yul\":14416:14434   */\n      add\n        /* \"#utility.yul\":14408:14434   */\n      swap1\n      pop\n        /* \"#utility.yul\":14444:14515   */\n      tag_393\n        /* \"#utility.yul\":14512:14513   */\n      0x00\n        /* \"#utility.yul\":14501:14510   */\n      dup4\n        /* \"#utility.yul\":14497:14514   */\n      add\n        /* \"#utility.yul\":14488:14494   */\n      dup5\n        /* \"#utility.yul\":14444:14515   */\n      tag_351\n      jump\t// in\n    tag_393:\n        /* \"#utility.yul\":14300:14522   */\n      swap3\n      swap2\n      pop\n      pop\n      jump\t// out\n        /* \"#utility.yul\":14609:14707   */\n    tag_278:\n        /* \"#utility.yul\":14660:14666   */\n      0x00\n        /* \"#utility.yul\":14694:14699   */\n      dup2\n        /* \"#utility.yul\":14688:14700   */\n      mload\n        /* \"#utility.yul\":14678:14700   */\n      swap1\n      pop\n        /* \"#utility.yul\":14609:14707   */\n      swap2\n      swap1\n      pop\n      jump\t// out\n        /* \"#utility.yul\":14713:14812   */\n    tag_290:\n        /* \"#utility.yul\":14765:14771   */\n      0x00\n        /* \"#utility.yul\":14799:14804   */\n      dup2\n        /* \"#utility.yul\":14793:14805   */\n      mload\n        /* \"#utility.yul\":14783:14805   */\n      swap1\n      pop\n        /* \"#utility.yul\":14713:14812   */\n      swap2\n      swap1\n      pop\n      jump\t// out\n        /* \"#utility.yul\":14818:14965   */\n    tag_280:\n        /* \"#utility.yul\":14919:14930   */\n      0x00\n        /* \"#utility.yul\":14956:14959   */\n      dup2\n        /* \"#utility.yul\":14941:14959   */\n      swap1\n      pop\n        /* \"#utility.yul\":14818:14965   */\n      swap3\n      swap2\n      pop\n      pop\n      jump\t// out\n        /* \"#utility.yul\":14971:15140   */\n    tag_292:\n        /* \"#utility.yul\":15055:15066   */\n      0x00\n        /* \"#utility.yul\":15089:15095   */\n      dup3\n        /* \"#utility.yul\":15084:15087   */\n      dup3\n        /* \"#utility.yul\":15077:15096   */\n      mstore\n        /* \"#utility.yul\":15129:15133   */\n      0x20\n        /* \"#utility.yul\":15124:15127   */\n      dup3\n        /* \"#utility.yul\":15120:15134   */\n      add\n        /* \"#utility.yul\":15105:15134   */\n      swap1\n      pop\n        /* \"#utility.yul\":14971:15140   */\n      swap3\n      swap2\n      pop\n      pop\n      jump\t// out\n        /* \"#utility.yul\":15146:15331   */\n    tag_160:\n        /* \"#utility.yul\":15186:15187   */\n      0x00\n        /* \"#utility.yul\":15203:15223   */\n      tag_401\n        /* \"#utility.yul\":15221:15222   */\n      dup3\n        /* \"#utility.yul\":15203:15223   */\n      tag_354\n      jump\t// in\n    tag_401:\n        /* \"#utility.yul\":15198:15223   */\n      swap2\n      pop\n        /* \"#utility.yul\":15237:15257   */\n      tag_402\n        /* \"#utility.yul\":15255:15256   */\n      dup4\n        /* \"#utility.yul\":15237:15257   */\n      tag_354\n      jump\t// in\n    tag_402:\n        /* \"#utility.yul\":15232:15257   */\n      swap3\n      pop\n        /* \"#utility.yul\":15276:15277   */\n      dup3\n        /* \"#utility.yul\":15266:15301   */\n      tag_403\n      jumpi\n        /* \"#utility.yul\":15281:15299   */\n      tag_404\n      tag_405\n      jump\t// in\n    tag_404:\n        /* \"#utility.yul\":15266:15301   */\n    tag_403:\n        /* \"#utility.yul\":15323:15324   */\n      dup3\n        /* \"#utility.yul\":15320:15321   */\n      dup3\n        /* \"#utility.yul\":15316:15325   */\n      div\n        /* \"#utility.yul\":15311:15325   */\n      swap1\n      pop\n        /* \"#utility.yul\":15146:15331   */\n      swap3\n      swap2\n      pop\n      pop\n      jump\t// out\n        /* \"#utility.yul\":15337:15685   */\n    tag_157:\n        /* \"#utility.yul\":15377:15384   */\n      0x00\n        /* \"#utility.yul\":15400:15420   */\n      tag_407\n        /* \"#utility.yul\":15418:15419   */\n      dup3\n        /* \"#utility.yul\":15400:15420   */\n      tag_354\n      jump\t// in\n    tag_407:\n        /* \"#utility.yul\":15395:15420   */\n      swap2\n      pop\n        /* \"#utility.yul\":15434:15454   */\n      tag_408\n        /* \"#utility.yul\":15452:15453   */\n      dup4\n        /* \"#utility.yul\":15434:15454   */\n      tag_354\n      jump\t// in\n    tag_408:\n        /* \"#utility.yul\":15429:15454   */\n      swap3\n      pop\n        /* \"#utility.yul\":15622:15623   */\n      dup2\n        /* \"#utility.yul\":15554:15620   */\n      0xffffffffffffffffffffffffffffffffffffffffffffffffffffffffffffffff\n        /* \"#utility.yul\":15550:15624   */\n      div\n        /* \"#utility.yul\":15547:15548   */\n      dup4\n        /* \"#utility.yul\":15544:15625   */\n      gt\n        /* \"#utility.yul\":15539:15540   */\n      dup3\n        /* \"#utility.yul\":15532:15541   */\n      iszero\n        /* \"#utility.yul\":15525:15542   */\n      iszero\n        /* \"#utility.yul\":15521:15626   */\n      and\n        /* \"#utility.yul\":15518:15649   */\n      iszero\n      tag_409\n      jumpi\n        /* \"#utility.yul\":15629:15647   */\n      tag_410\n      tag_411\n      jump\t// in\n    tag_410:\n        /* \"#utility.yul\":15518:15649   */\n    tag_409:\n        /* \"#utility.yul\":15677:15678   */\n      dup3\n        /* \"#utility.yul\":15674:15675   */\n      dup3\n        /* \"#utility.yul\":15670:15679   */\n      mul\n        /* \"#utility.yul\":15659:15679   */\n      swap1\n      pop\n        /* \"#utility.yul\":15337:15685   */\n      swap3\n      swap2\n      pop\n      pop\n      jump\t// out\n        /* \"#utility.yul\":15691:15882   */\n    tag_163:\n        /* \"#utility.yul\":15731:15735   */\n      0x00\n        /* \"#utility.yul\":15751:15771   */\n      tag_413\n        /* \"#utility.yul\":15769:15770   */\n      dup3\n        /* \"#utility.yul\":15751:15771   */\n      tag_354\n      jump\t// in\n    tag_413:\n        /* \"#utility.yul\":15746:15771   */\n      swap2\n      pop\n        /* \"#utility.yul\":15785:15805   */\n      tag_414\n        /* \"#utility.yul\":15803:15804   */\n      dup4\n        /* \"#utility.yul\":15785:15805   */\n      tag_354\n      jump\t// in\n    tag_414:\n        /* \"#utility.yul\":15780:15805   */\n      swap3\n      pop\n        /* \"#utility.yul\":15824:15825   */\n      dup3\n        /* \"#utility.yul\":15821:15822   */\n      dup3\n        /* \"#utility.yul\":15818:15826   */\n      lt\n        /* \"#utility.yul\":15815:15849   */\n      iszero\n      tag_415\n      jumpi\n        /* \"#utility.yul\":15829:15847   */\n      tag_416\n      tag_411\n      jump\t// in\n    tag_416:\n        /* \"#utility.yul\":15815:15849   */\n    tag_415:\n        /* \"#utility.yul\":15874:15875   */\n      dup3\n        /* \"#utility.yul\":15871:15872   */\n      dup3\n        /* \"#utility.yul\":15867:15876   */\n      sub\n        /* \"#utility.yul\":15859:15876   */\n      swap1\n      pop\n        /* \"#utility.yul\":15691:15882   */\n      swap3\n      swap2\n      pop\n      pop\n      jump\t// out\n        /* \"#utility.yul\":15888:15984   */\n    tag_274:\n        /* \"#utility.yul\":15925:15932   */\n      0x00\n        /* \"#utility.yul\":15954:15978   */\n      tag_418\n        /* \"#utility.yul\":15972:15977   */\n      dup3\n        /* \"#utility.yul\":15954:15978   */\n      tag_419\n      jump\t// in\n    tag_418:\n        /* \"#utility.yul\":15943:15978   */\n      swap1\n      pop\n        /* \"#utility.yul\":15888:15984   */\n      swap2\n      swap1\n      pop\n      jump\t// out\n        /* \"#utility.yul\":15990:16080   */\n    tag_420:\n        /* \"#utility.yul\":16024:16031   */\n      0x00\n        /* \"#utility.yul\":16067:16072   */\n      dup2\n        /* \"#utility.yul\":16060:16073   */\n      iszero\n        /* \"#utility.yul\":16053:16074   */\n      iszero\n        /* \"#utility.yul\":16042:16074   */\n      swap1\n      pop\n        /* \"#utility.yul\":15990:16080   */\n      swap2\n      swap1\n      pop\n      jump\t// out\n        /* \"#utility.yul\":16086:16196   */\n    tag_422:\n        /* \"#utility.yul\":16137:16144   */\n      0x00\n        /* \"#utility.yul\":16166:16190   */\n      tag_424\n        /* \"#utility.yul\":16184:16189   */\n      dup3\n        /* \"#utility.yul\":16166:16190   */\n      tag_274\n      jump\t// in\n    tag_424:\n        /* \"#utility.yul\":16155:16190   */\n      swap1\n      pop\n        /* \"#utility.yul\":16086:16196   */\n      swap2\n      swap1\n      pop\n      jump\t// out\n        /* \"#utility.yul\":16202:16328   */\n    tag_419:\n        /* \"#utility.yul\":16239:16246   */\n      0x00\n        /* \"#utility.yul\":16279:16321   */\n      0xffffffffffffffffffffffffffffffffffffffff\n        /* \"#utility.yul\":16272:16277   */\n      dup3\n        /* \"#utility.yul\":16268:16322   */\n      and\n        /* \"#utility.yul\":16257:16322   */\n      swap1\n      pop\n        /* \"#utility.yul\":16202:16328   */\n      swap2\n      swap1\n      pop\n      jump\t// out\n        /* \"#utility.yul\":16334:16411   */\n    tag_354:\n        /* \"#utility.yul\":16371:16378   */\n      0x00\n        /* \"#utility.yul\":16400:16405   */\n      dup2\n        /* \"#utility.yul\":16389:16405   */\n      swap1\n      pop\n        /* \"#utility.yul\":16334:16411   */\n      swap2\n      swap1\n      pop\n      jump\t// out\n        /* \"#utility.yul\":16417:16557   */\n    tag_286:\n        /* \"#utility.yul\":16481:16490   */\n      0x00\n        /* \"#utility.yul\":16514:16551   */\n      tag_428\n        /* \"#utility.yul\":16545:16550   */\n      dup3\n        /* \"#utility.yul\":16514:16551   */\n      tag_429\n      jump\t// in\n    tag_428:\n        /* \"#utility.yul\":16501:16551   */\n      swap1\n      pop\n        /* \"#utility.yul\":16417:16557   */\n      swap2\n      swap1\n      pop\n      jump\t// out\n        /* \"#utility.yul\":16563:16689   */\n    tag_429:\n        /* \"#utility.yul\":16613:16622   */\n      0x00\n        /* \"#utility.yul\":16646:16683   */\n      tag_431\n        /* \"#utility.yul\":16677:16682   */\n      dup3\n        /* \"#utility.yul\":16646:16683   */\n      tag_432\n      jump\t// in\n    tag_431:\n        /* \"#utility.yul\":16633:16683   */\n      swap1\n      pop\n        /* \"#utility.yul\":16563:16689   */\n      swap2\n      swap1\n      pop\n      jump\t// out\n        /* \"#utility.yul\":16695:16808   */\n    tag_432:\n        /* \"#utility.yul\":16745:16754   */\n      0x00\n        /* \"#utility.yul\":16778:16802   */\n      tag_434\n        /* \"#utility.yul\":16796:16801   */\n      dup3\n        /* \"#utility.yul\":16778:16802   */\n      tag_419\n      jump\t// in\n    tag_434:\n        /* \"#utility.yul\":16765:16802   */\n      swap1\n      pop\n        /* \"#utility.yul\":16695:16808   */\n      swap2\n      swap1\n      pop\n      jump\t// out\n        /* \"#utility.yul\":16814:17121   */\n    tag_282:\n        /* \"#utility.yul\":16882:16883   */\n      0x00\n        /* \"#utility.yul\":16892:17005   */\n    tag_436:\n        /* \"#utility.yul\":16906:16912   */\n      dup4\n        /* \"#utility.yul\":16903:16904   */\n      dup2\n        /* \"#utility.yul\":16900:16913   */\n      lt\n        /* \"#utility.yul\":16892:17005   */\n      iszero\n      tag_438\n      jumpi\n        /* \"#utility.yul\":16991:16992   */\n      dup1\n        /* \"#utility.yul\":16986:16989   */\n      dup3\n        /* \"#utility.yul\":16982:16993   */\n      add\n        /* \"#utility.yul\":16976:16994   */\n      mload\n        /* \"#utility.yul\":16972:16973   */\n      dup2\n        /* \"#utility.yul\":16967:16970   */\n      dup5\n        /* \"#utility.yul\":16963:16974   */\n      add\n        /* \"#utility.yul\":16956:16995   */\n      mstore\n        /* \"#utility.yul\":16928:16930   */\n      0x20\n        /* \"#utility.yul\":16925:16926   */\n      dup2\n        /* \"#utility.yul\":16921:16931   */\n      add\n        /* \"#utility.yul\":16916:16931   */\n      swap1\n      pop\n        /* \"#utility.yul\":16892:17005   */\n      jump(tag_436)\n    tag_438:\n        /* \"#utility.yul\":17023:17029   */\n      dup4\n        /* \"#utility.yul\":17020:17021   */\n      dup2\n        /* \"#utility.yul\":17017:17030   */\n      gt\n        /* \"#utility.yul\":17014:17115   */\n      iszero\n      tag_439\n      jumpi\n        /* \"#utility.yul\":17103:17104   */\n      0x00\n        /* \"#utility.yul\":17094:17100   */\n      dup5\n        /* \"#utility.yul\":17089:17092   */\n      dup5\n        /* \"#utility.yul\":17085:17101   */\n      add\n        /* \"#utility.yul\":17078:17105   */\n      mstore\n        /* \"#utility.yul\":17014:17115   */\n    tag_439:\n        /* \"#utility.yul\":16863:17121   */\n      pop\n        /* \"#utility.yul\":16814:17121   */\n      pop\n      pop\n      pop\n      jump\t// out\n        /* \"#utility.yul\":17127:17307   */\n    tag_411:\n        /* \"#utility.yul\":17175:17252   */\n      0x4e487b7100000000000000000000000000000000000000000000000000000000\n        /* \"#utility.yul\":17172:17173   */\n      0x00\n        /* \"#utility.yul\":17165:17253   */\n      mstore\n        /* \"#utility.yul\":17272:17276   */\n      0x11\n        /* \"#utility.yul\":17269:17270   */\n      0x04\n        /* \"#utility.yul\":17262:17277   */\n      mstore\n        /* \"#utility.yul\":17296:17300   */\n      0x24\n        /* \"#utility.yul\":17293:17294   */\n      0x00\n        /* \"#utility.yul\":17286:17301   */\n      revert\n        /* \"#utility.yul\":17313:17493   */\n    tag_405:\n        /* \"#utility.yul\":17361:17438   */\n      0x4e487b7100000000000000000000000000000000000000000000000000000000\n        /* \"#utility.yul\":17358:17359   */\n      0x00\n        /* \"#utility.yul\":17351:17439   */\n      mstore\n        /* \"#utility.yul\":17458:17462   */\n      0x12\n        /* \"#utility.yul\":17455:17456   */\n      0x04\n        /* \"#utility.yul\":17448:17463   */\n      mstore\n        /* \"#utility.yul\":17482:17486   */\n      0x24\n        /* \"#utility.yul\":17479:17480   */\n      0x00\n        /* \"#utility.yul\":17472:17487   */\n      revert\n        /* \"#utility.yul\":17499:17679   */\n    tag_172:\n        /* \"#utility.yul\":17547:17624   */\n      0x4e487b7100000000000000000000000000000000000000000000000000000000\n        /* \"#utility.yul\":17544:17545   */\n      0x00\n        /* \"#utility.yul\":17537:17625   */\n      mstore\n        /* \"#utility.yul\":17644:17648   */\n      0x41\n        /* \"#utility.yul\":17641:17642   */\n      0x04\n        /* \"#utility.yul\":17634:17649   */\n      mstore\n        /* \"#utility.yul\":17668:17672   */\n      0x24\n        /* \"#utility.yul\":17665:17666   */\n      0x00\n        /* \"#utility.yul\":17658:17673   */\n      revert\n        /* \"#utility.yul\":17808:17925   */\n    tag_253:\n        /* \"#utility.yul\":17917:17918   */\n      0x00\n        /* \"#utility.yul\":17914:17915   */\n      dup1\n        /* \"#utility.yul\":17907:17919   */\n      revert\n        /* \"#utility.yul\":17931:18033   */\n    tag_295:\n        /* \"#utility.yul\":17972:17978   */\n      0x00\n        /* \"#utility.yul\":18023:18025   */\n      0x1f\n        /* \"#utility.yul\":18019:18026   */\n      not\n        /* \"#utility.yul\":18014:18016   */\n      0x1f\n        /* \"#utility.yul\":18007:18012   */\n      dup4\n        /* \"#utility.yul\":18003:18017   */\n      add\n        /* \"#utility.yul\":17999:18027   */\n      and\n        /* \"#utility.yul\":17989:18027   */\n      swap1\n      pop\n        /* \"#utility.yul\":17931:18033   */\n      swap2\n      swap1\n      pop\n      jump\t// out\n        /* \"#utility.yul\":18039:18264   */\n    tag_300:\n        /* \"#utility.yul\":18179:18213   */\n      0x4f776e61626c653a206e6577206f776e657220697320746865207a65726f2061\n        /* \"#utility.yul\":18175:18176   */\n      0x00\n        /* \"#utility.yul\":18167:18173   */\n      dup3\n        /* \"#utility.yul\":18163:18177   */\n      add\n        /* \"#utility.yul\":18156:18214   */\n      mstore\n        /* \"#utility.yul\":18248:18256   */\n      0x6464726573730000000000000000000000000000000000000000000000000000\n        /* \"#utility.yul\":18243:18245   */\n      0x20\n        /* \"#utility.yul\":18235:18241   */\n      dup3\n        /* \"#utility.yul\":18231:18246   */\n      add\n        /* \"#utility.yul\":18224:18257   */\n      mstore\n        /* \"#utility.yul\":18039:18264   */\n      pop\n      jump\t// out\n        /* \"#utility.yul\":18270:18509   */\n    tag_305:\n        /* \"#utility.yul\":18410:18444   */\n      0x5472616e7366657248656c7065723a3a736166655472616e736665724554483a\n        /* \"#utility.yul\":18406:18407   */\n      0x00\n        /* \"#utility.yul\":18398:18404   */\n      dup3\n        /* \"#utility.yul\":18394:18408   */\n      add\n        /* \"#utility.yul\":18387:18445   */\n      mstore\n        /* \"#utility.yul\":18479:18501   */\n      0x20455448207472616e73666572206661696c6564000000000000000000000000\n        /* \"#utility.yul\":18474:18476   */\n      0x20\n        /* \"#utility.yul\":18466:18472   */\n      dup3\n        /* \"#utility.yul\":18462:18477   */\n      add\n        /* \"#utility.yul\":18455:18502   */\n      mstore\n        /* \"#utility.yul\":18270:18509   */\n      pop\n      jump\t// out\n        /* \"#utility.yul\":18515:18740   */\n    tag_310:\n        /* \"#utility.yul\":18655:18689   */\n      0x416464726573733a20696e73756666696369656e742062616c616e636520666f\n        /* \"#utility.yul\":18651:18652   */\n      0x00\n        /* \"#utility.yul\":18643:18649   */\n      dup3\n        /* \"#utility.yul\":18639:18653   */\n      add\n        /* \"#utility.yul\":18632:18690   */\n      mstore\n        /* \"#utility.yul\":18724:18732   */\n      0x722063616c6c0000000000000000000000000000000000000000000000000000\n        /* \"#utility.yul\":18719:18721   */\n      0x20\n        /* \"#utility.yul\":18711:18717   */\n      dup3\n        /* \"#utility.yul\":18707:18722   */\n      add\n        /* \"#utility.yul\":18700:18733   */\n      mstore\n        /* \"#utility.yul\":18515:18740   */\n      pop\n      jump\t// out\n        /* \"#utility.yul\":18746:19040   */\n    tag_315:\n        /* \"#utility.yul\":18886:18920   */\n      0x41424f41543a3a757064617465526577617264546f6b656e3a204e6577207265\n        /* \"#utility.yul\":18882:18883   */\n      0x00\n        /* \"#utility.yul\":18874:18880   */\n      dup3\n        /* \"#utility.yul\":18870:18884   */\n      add\n        /* \"#utility.yul\":18863:18921   */\n      mstore\n        /* \"#utility.yul\":18955:18989   */\n      0x776172642073686f756c6420626520646966666572656e742066726f6d206375\n        /* \"#utility.yul\":18950:18952   */\n      0x20\n        /* \"#utility.yul\":18942:18948   */\n      dup3\n        /* \"#utility.yul\":18938:18953   */\n      add\n        /* \"#utility.yul\":18931:18990   */\n      mstore\n        /* \"#utility.yul\":19024:19032   */\n      0x7272656e742e0000000000000000000000000000000000000000000000000000\n        /* \"#utility.yul\":19019:19021   */\n      0x40\n        /* \"#utility.yul\":19011:19017   */\n      dup3\n        /* \"#utility.yul\":19007:19022   */\n      add\n        /* \"#utility.yul\":19000:19033   */\n      mstore\n        /* \"#utility.yul\":18746:19040   */\n      pop\n      jump\t// out\n        /* \"#utility.yul\":19046:19426   */\n    tag_320:\n        /* \"#utility.yul\":19186:19220   */\n      0x41424f41543a3a757064617465526577617264546f6b656e3a2054686520636f\n        /* \"#utility.yul\":19182:19183   */\n      0x00\n        /* \"#utility.yul\":19174:19180   */\n      dup3\n        /* \"#utility.yul\":19170:19184   */\n      add\n        /* \"#utility.yul\":19163:19221   */\n      mstore\n        /* \"#utility.yul\":19255:19289   */\n      0x6e74726163742073686f756c6420636f6e7461696e2061746c65617374207468\n        /* \"#utility.yul\":19250:19252   */\n      0x20\n        /* \"#utility.yul\":19242:19248   */\n      dup3\n        /* \"#utility.yul\":19238:19253   */\n      add\n        /* \"#utility.yul\":19231:19290   */\n      mstore\n        /* \"#utility.yul\":19324:19358   */\n      0x652073616d6520616d6f756e74206f6620746f6b656e732061732066726f6d20\n        /* \"#utility.yul\":19319:19321   */\n      0x40\n        /* \"#utility.yul\":19311:19317   */\n      dup3\n        /* \"#utility.yul\":19307:19322   */\n      add\n        /* \"#utility.yul\":19300:19359   */\n      mstore\n        /* \"#utility.yul\":19393:19418   */\n      0x7468652063757272656e7420726577617264546f6b656e000000000000000000\n        /* \"#utility.yul\":19388:19390   */\n      0x60\n        /* \"#utility.yul\":19380:19386   */\n      dup3\n        /* \"#utility.yul\":19376:19391   */\n      add\n        /* \"#utility.yul\":19369:19419   */\n      mstore\n        /* \"#utility.yul\":19046:19426   */\n      pop\n      jump\t// out\n        /* \"#utility.yul\":19432:19614   */\n    tag_325:\n        /* \"#utility.yul\":19572:19606   */\n      0x4f776e61626c653a2063616c6c6572206973206e6f7420746865206f776e6572\n        /* \"#utility.yul\":19568:19569   */\n      0x00\n        /* \"#utility.yul\":19560:19566   */\n      dup3\n        /* \"#utility.yul\":19556:19570   */\n      add\n        /* \"#utility.yul\":19549:19607   */\n      mstore\n        /* \"#utility.yul\":19432:19614   */\n      pop\n      jump\t// out\n        /* \"#utility.yul\":19620:19860   */\n    tag_330:\n        /* \"#utility.yul\":19760:19794   */\n      0x41424f41543a3a6275793a20416d6f756e7420776f756c642065786365656420\n        /* \"#utility.yul\":19756:19757   */\n      0x00\n        /* \"#utility.yul\":19748:19754   */\n      dup3\n        /* \"#utility.yul\":19744:19758   */\n      add\n        /* \"#utility.yul\":19737:19795   */\n      mstore\n        /* \"#utility.yul\":19829:19852   */\n      0x7468652072656d61696e696e672062616c616e63650000000000000000000000\n        /* \"#utility.yul\":19824:19826   */\n      0x20\n        /* \"#utility.yul\":19816:19822   */\n      dup3\n        /* \"#utility.yul\":19812:19827   */\n      add\n        /* \"#utility.yul\":19805:19853   */\n      mstore\n        /* \"#utility.yul\":19620:19860   */\n      pop\n      jump\t// out\n        /* \"#utility.yul\":19866:20045   */\n    tag_335:\n        /* \"#utility.yul\":20006:20037   */\n      0x416464726573733a2063616c6c20746f206e6f6e2d636f6e7472616374000000\n        /* \"#utility.yul\":20002:20003   */\n      0x00\n        /* \"#utility.yul\":19994:20000   */\n      dup3\n        /* \"#utility.yul\":19990:20004   */\n      add\n        /* \"#utility.yul\":19983:20038   */\n      mstore\n        /* \"#utility.yul\":19866:20045   */\n      pop\n      jump\t// out\n        /* \"#utility.yul\":20051:20283   */\n    tag_340:\n        /* \"#utility.yul\":20191:20225   */\n      0x5472616e7366657248656c7065723a3a736166655472616e736665723a207472\n        /* \"#utility.yul\":20187:20188   */\n      0x00\n        /* \"#utility.yul\":20179:20185   */\n      dup3\n        /* \"#utility.yul\":20175:20189   */\n      add\n        /* \"#utility.yul\":20168:20226   */\n      mstore\n        /* \"#utility.yul\":20260:20275   */\n      0x616e73666572206661696c656400000000000000000000000000000000000000\n        /* \"#utility.yul\":20255:20257   */\n      0x20\n        /* \"#utility.yul\":20247:20253   */\n      dup3\n        /* \"#utility.yul\":20243:20258   */\n      add\n        /* \"#utility.yul\":20236:20276   */\n      mstore\n        /* \"#utility.yul\":20051:20283   */\n      pop\n      jump\t// out\n        /* \"#utility.yul\":20289:20518   */\n    tag_345:\n        /* \"#utility.yul\":20429:20463   */\n      0x5361666545524332303a204552433230206f7065726174696f6e20646964206e\n        /* \"#utility.yul\":20425:20426   */\n      0x00\n        /* \"#utility.yul\":20417:20423   */\n      dup3\n        /* \"#utility.yul\":20413:20427   */\n      add\n        /* \"#utility.yul\":20406:20464   */\n      mstore\n        /* \"#utility.yul\":20498:20510   */\n      0x6f74207375636365656400000000000000000000000000000000000000000000\n        /* \"#utility.yul\":20493:20495   */\n      0x20\n        /* \"#utility.yul\":20485:20491   */\n      dup3\n        /* \"#utility.yul\":20481:20496   */\n      add\n        /* \"#utility.yul\":20474:20511   */\n      mstore\n        /* \"#utility.yul\":20289:20518   */\n      pop\n      jump\t// out\n        /* \"#utility.yul\":20524:20763   */\n    tag_350:\n        /* \"#utility.yul\":20664:20698   */\n      0x41424f41543a3a6275793a2053656e742076616c756520646f65736e2774206d\n        /* \"#utility.yul\":20660:20661   */\n      0x00\n        /* \"#utility.yul\":20652:20658   */\n      dup3\n        /* \"#utility.yul\":20648:20662   */\n      add\n        /* \"#utility.yul\":20641:20699   */\n      mstore\n        /* \"#utility.yul\":20733:20755   */\n      0x6565742074686520676976656e20616d6f756e74000000000000000000000000\n        /* \"#utility.yul\":20728:20730   */\n      0x20\n        /* \"#utility.yul\":20720:20726   */\n      dup3\n        /* \"#utility.yul\":20716:20731   */\n      add\n        /* \"#utility.yul\":20709:20756   */\n      mstore\n        /* \"#utility.yul\":20524:20763   */\n      pop\n      jump\t// out\n        /* \"#utility.yul\":20769:20891   */\n    tag_234:\n        /* \"#utility.yul\":20842:20866   */\n      tag_459\n        /* \"#utility.yul\":20860:20865   */\n      dup2\n        /* \"#utility.yul\":20842:20866   */\n      tag_274\n      jump\t// in\n    tag_459:\n        /* \"#utility.yul\":20835:20840   */\n      dup2\n        /* \"#utility.yul\":20832:20867   */\n      eq\n        /* \"#utility.yul\":20822:20885   */\n      tag_460\n      jumpi\n        /* \"#utility.yul\":20881:20882   */\n      0x00\n        /* \"#utility.yul\":20878:20879   */\n      dup1\n        /* \"#utility.yul\":20871:20883   */\n      revert\n        /* \"#utility.yul\":20822:20885   */\n    tag_460:\n        /* \"#utility.yul\":20769:20891   */\n      pop\n      jump\t// out\n        /* \"#utility.yul\":20897:21013   */\n    tag_238:\n        /* \"#utility.yul\":20967:20988   */\n      tag_462\n        /* \"#utility.yul\":20982:20987   */\n      dup2\n        /* \"#utility.yul\":20967:20988   */\n      tag_420\n      jump\t// in\n    tag_462:\n        /* \"#utility.yul\":20960:20965   */\n      dup2\n        /* \"#utility.yul\":20957:20989   */\n      eq\n        /* \"#utility.yul\":20947:21007   */\n      tag_463\n      jumpi\n        /* \"#utility.yul\":21003:21004   */\n      0x00\n        /* \"#utility.yul\":21000:21001   */\n      dup1\n        /* \"#utility.yul\":20993:21005   */\n      revert\n        /* \"#utility.yul\":20947:21007   */\n    tag_463:\n        /* \"#utility.yul\":20897:21013   */\n      pop\n      jump\t// out\n        /* \"#utility.yul\":21019:21169   */\n    tag_242:\n        /* \"#utility.yul\":21106:21144   */\n      tag_465\n        /* \"#utility.yul\":21138:21143   */\n      dup2\n        /* \"#utility.yul\":21106:21144   */\n      tag_422\n      jump\t// in\n    tag_465:\n        /* \"#utility.yul\":21099:21104   */\n      dup2\n        /* \"#utility.yul\":21096:21145   */\n      eq\n        /* \"#utility.yul\":21086:21163   */\n      tag_466\n      jumpi\n        /* \"#utility.yul\":21159:21160   */\n      0x00\n        /* \"#utility.yul\":21156:21157   */\n      dup1\n        /* \"#utility.yul\":21149:21161   */\n      revert\n        /* \"#utility.yul\":21086:21163   */\n    tag_466:\n        /* \"#utility.yul\":21019:21169   */\n      pop\n      jump\t// out\n        /* \"#utility.yul\":21175:21297   */\n    tag_246:\n        /* \"#utility.yul\":21248:21272   */\n      tag_468\n        /* \"#utility.yul\":21266:21271   */\n      dup2\n        /* \"#utility.yul\":21248:21272   */\n      tag_354\n      jump\t// in\n    tag_468:\n        /* \"#utility.yul\":21241:21246   */\n      dup2\n        /* \"#utility.yul\":21238:21273   */\n      eq\n        /* \"#utility.yul\":21228:21291   */\n      tag_469\n      jumpi\n        /* \"#utility.yul\":21287:21288   */\n      0x00\n        /* \"#utility.yul\":21284:21285   */\n      dup1\n        /* \"#utility.yul\":21277:21289   */\n      revert\n        /* \"#utility.yul\":21228:21291   */\n    tag_469:\n        /* \"#utility.yul\":21175:21297   */\n      pop\n      jump\t// out\n\n    auxdata: 0xa264697066735822122022e8cc626dbec3cce122492bc18cc8198a26eebf9d2da323cec591b6fe62dd2764736f6c63430008070033\n}\n",
				"bytecode": {
					"linkReferences": {},
					"object": "60806040523480156200001157600080fd5b50604051620022863803806200228683398181016040528101906200003791906200022b565b620000576200004b6200013160201b60201c565b6200013960201b60201c565b600081116200009d576040517f08c379a00000000000000000000000000000000000000000000000000000000081526004016200009490620002da565b60405180910390fd5b84600160006101000a81548173ffffffffffffffffffffffffffffffffffffffff021916908373ffffffffffffffffffffffffffffffffffffffff16021790555083600260006101000a81548173ffffffffffffffffffffffffffffffffffffffff021916908373ffffffffffffffffffffffffffffffffffffffff160217905550806003819055505050505050620003e7565b600033905090565b60008060009054906101000a900473ffffffffffffffffffffffffffffffffffffffff169050816000806101000a81548173ffffffffffffffffffffffffffffffffffffffff021916908373ffffffffffffffffffffffffffffffffffffffff1602179055508173ffffffffffffffffffffffffffffffffffffffff168173ffffffffffffffffffffffffffffffffffffffff167f8be0079c531659141344cd1fd0a4f28419497f9722a3daafe3b4186f6b6457e060405160405180910390a35050565b6000815190506200020e81620003b3565b92915050565b6000815190506200022581620003cd565b92915050565b600080600080600060a086880312156200024a57620002496200035f565b5b60006200025a88828901620001fd565b95505060206200026d88828901620001fd565b9450506040620002808882890162000214565b9350506060620002938882890162000214565b9250506080620002a68882890162000214565b9150509295509295909350565b6000620002c2602e83620002fc565b9150620002cf8262000364565b604082019050919050565b60006020820190508181036000830152620002f581620002b3565b9050919050565b600082825260208201905092915050565b60006200031a8262000335565b9050919050565b60006200032e826200030d565b9050919050565b600073ffffffffffffffffffffffffffffffffffffffff82169050919050565b6000819050919050565b600080fd5b7f41424f41543a3a6572726f723a2050726963652068617320746f20626520686960008201527f67686572207468616e207a65726f000000000000000000000000000000000000602082015250565b620003be8162000321565b8114620003ca57600080fd5b50565b620003d88162000355565b8114620003e457600080fd5b50565b611e8f80620003f76000396000f3fe6080604052600436106100c25760003560e01c8063a960c65f1161007f578063f2fde38b11610059578063f2fde38b1461025d578063f3739e0514610286578063f7c618c1146102c3578063f8cf31cb146102ee576100c2565b8063a960c65f146101c7578063c884ef8314610204578063d96a094a14610241576100c2565b80632fba2c85146100c75780633013ce29146100f2578063667022fd1461011d578063715018a61461015a5780637b1b1de6146101715780638da5cb5b1461019c575b600080fd5b3480156100d357600080fd5b506100dc610317565b6040516100e99190611800565b60405180910390f35b3480156100fe57600080fd5b5061010761042f565b6040516101149190611663565b60405180910390f35b34801561012957600080fd5b50610144600480360381019061013f91906112d8565b610455565b6040516101519190611800565b60405180910390f35b34801561016657600080fd5b5061016f61046d565b005b34801561017d57600080fd5b506101866104f5565b6040516101939190611800565b60405180910390f35b3480156101a857600080fd5b506101b16104fb565b6040516101be91906115e8565b60405180910390f35b3480156101d357600080fd5b506101ee60048036038101906101e991906112d8565b610524565b6040516101fb9190611800565b60405180910390f35b34801561021057600080fd5b5061022b600480360381019061022691906112d8565b61053c565b6040516102389190611800565b60405180910390f35b61025b6004803603810190610256919061135f565b610554565b005b34801561026957600080fd5b50610284600480360381019061027f91906112d8565b6107ba565b005b34801561029257600080fd5b506102ad60048036038101906102a891906112d8565b6108b2565b6040516102ba91906115e8565b60405180910390f35b3480156102cf57600080fd5b506102d86108e5565b6040516102e59190611663565b60405180910390f35b3480156102fa57600080fd5b5061031560048036038101906103109190611332565b61090b565b005b600080600073ffffffffffffffffffffffffffffffffffffffff16600160009054906101000a900473ffffffffffffffffffffffffffffffffffffffff1673ffffffffffffffffffffffffffffffffffffffff16149050801561037d574791505061042c565b600160009054906101000a900473ffffffffffffffffffffffffffffffffffffffff1673ffffffffffffffffffffffffffffffffffffffff166370a08231306040518263ffffffff1660e01b81526004016103d891906115e8565b60206040518083038186803b1580156103f057600080fd5b505afa158015610404573d6000803e3d6000fd5b505050506040513d601f19601f82011682018060405250810190610428919061138c565b9150505b90565b600260009054906101000a900473ffffffffffffffffffffffffffffffffffffffff1681565b60046020528060005260406000206000915090505481565b610475610c35565b73ffffffffffffffffffffffffffffffffffffffff166104936104fb565b73ffffffffffffffffffffffffffffffffffffffff16146104e9576040517f08c379a00000000000000000000000000000000000000000000000000000000081526004016104e090611740565b60405180910390fd5b6104f36000610c3d565b565b60035481565b60008060009054906101000a900473ffffffffffffffffffffffffffffffffffffffff16905090565b60066020528060005260406000206000915090505481565b60056020528060005260406000206000915090505481565b60008073ffffffffffffffffffffffffffffffffffffffff16600260009054906101000a900473ffffffffffffffffffffffffffffffffffffffff1673ffffffffffffffffffffffffffffffffffffffff1614905060008073ffffffffffffffffffffffffffffffffffffffff16600160009054906101000a900473ffffffffffffffffffffffffffffffffffffffff1673ffffffffffffffffffffffffffffffffffffffff1614905081158061060a57508234145b610649576040517f08c379a0000000000000000000000000000000000000000000000000000000008152600401610640906117e0565b60405180910390fd5b600061067a60035461066c670de0b6b3a764000087610d0190919063ffffffff16565b610d1790919063ffffffff16565b905060006106988261068a610317565b610d2d90919063ffffffff16565b116106d8576040517f08c379a00000000000000000000000000000000000000000000000000000000081526004016106cf90611760565b60405180910390fd5b8261072d5761072c333086600260009054906101000a900473ffffffffffffffffffffffffffffffffffffffff1673ffffffffffffffffffffffffffffffffffffffff16610d43909392919063ffffffff16565b5b81156107425761073d3385610dcc565b610770565b61076f600160009054906101000a900473ffffffffffffffffffffffffffffffffffffffff163386610ecc565b5b833373ffffffffffffffffffffffffffffffffffffffff167fc55650ccda1011e1cdc769b1fbf546ebb8c97800b6072b49e06cd560305b1d6760405160405180910390a350505050565b6107c2610c35565b73ffffffffffffffffffffffffffffffffffffffff166107e06104fb565b73ffffffffffffffffffffffffffffffffffffffff1614610836576040517f08c379a000000000000000000000000000000000000000000000000000000000815260040161082d90611740565b60405180910390fd5b600073ffffffffffffffffffffffffffffffffffffffff168173ffffffffffffffffffffffffffffffffffffffff1614156108a6576040517f08c379a000000000000000000000000000000000000000000000000000000000815260040161089d906116a0565b60405180910390fd5b6108af81610c3d565b50565b60076020528060005260406000206000915054906101000a900473ffffffffffffffffffffffffffffffffffffffff1681565b600160009054906101000a900473ffffffffffffffffffffffffffffffffffffffff1681565b610913610c35565b73ffffffffffffffffffffffffffffffffffffffff166109316104fb565b73ffffffffffffffffffffffffffffffffffffffff1614610987576040517f08c379a000000000000000000000000000000000000000000000000000000000815260040161097e90611740565b60405180910390fd5b600160009054906101000a900473ffffffffffffffffffffffffffffffffffffffff1673ffffffffffffffffffffffffffffffffffffffff168173ffffffffffffffffffffffffffffffffffffffff161415610a18576040517f08c379a0000000000000000000000000000000000000000000000000000000008152600401610a0f90611700565b60405180910390fd5b600160009054906101000a900473ffffffffffffffffffffffffffffffffffffffff1673ffffffffffffffffffffffffffffffffffffffff166370a08231306040518263ffffffff1660e01b8152600401610a7391906115e8565b60206040518083038186803b158015610a8b57600080fd5b505afa158015610a9f573d6000803e3d6000fd5b505050506040513d601f19601f82011682018060405250810190610ac3919061138c565b8173ffffffffffffffffffffffffffffffffffffffff166370a08231306040518263ffffffff1660e01b8152600401610afc91906115e8565b60206040518083038186803b158015610b1457600080fd5b505afa158015610b28573d6000803e3d6000fd5b505050506040513d601f19601f82011682018060405250810190610b4c919061138c565b14610b8c576040517f08c379a0000000000000000000000000000000000000000000000000000000008152600401610b8390611720565b60405180910390fd5b80600160006101000a81548173ffffffffffffffffffffffffffffffffffffffff021916908373ffffffffffffffffffffffffffffffffffffffff160217905550600160009054906101000a900473ffffffffffffffffffffffffffffffffffffffff1673ffffffffffffffffffffffffffffffffffffffff167f3fcfc24a3384ca156092d9242cb0f84abaf442146d91b8c93bea526561b83f8360405160405180910390a250565b600033905090565b60008060009054906101000a900473ffffffffffffffffffffffffffffffffffffffff169050816000806101000a81548173ffffffffffffffffffffffffffffffffffffffff021916908373ffffffffffffffffffffffffffffffffffffffff1602179055508173ffffffffffffffffffffffffffffffffffffffff168173ffffffffffffffffffffffffffffffffffffffff167f8be0079c531659141344cd1fd0a4f28419497f9722a3daafe3b4186f6b6457e060405160405180910390a35050565b60008183610d0f919061187e565b905092915050565b60008183610d25919061184d565b905092915050565b60008183610d3b91906118d8565b905092915050565b610dc6846323b872dd60e01b858585604051602401610d6493929190611603565b604051602081830303815290604052907bffffffffffffffffffffffffffffffffffffffffffffffffffffffff19166020820180517bffffffffffffffffffffffffffffffffffffffffffffffffffffffff8381831617835250505050611002565b50505050565b60008273ffffffffffffffffffffffffffffffffffffffff1682600067ffffffffffffffff811115610e0157610e00611a2d565b5b6040519080825280601f01601f191660200182016040528015610e335781602001600182028036833780820191505090505b50604051610e4191906115d1565b60006040518083038185875af1925050503d8060008114610e7e576040519150601f19603f3d011682016040523d82523d6000602084013e610e83565b606091505b5050905080610ec7576040517f08c379a0000000000000000000000000000000000000000000000000000000008152600401610ebe906116c0565b60405180910390fd5b505050565b6000808473ffffffffffffffffffffffffffffffffffffffff1663a9059cbb8585604051602401610efe92919061163a565b6040516020818303038152906040529060e01b6020820180517bffffffffffffffffffffffffffffffffffffffffffffffffffffffff8381831617835250505050604051610f4c91906115d1565b6000604051808303816000865af19150503d8060008114610f89576040519150601f19603f3d011682016040523d82523d6000602084013e610f8e565b606091505b5091509150818015610fbc5750600081511480610fbb575080806020019051810190610fba9190611305565b5b5b610ffb576040517f08c379a0000000000000000000000000000000000000000000000000000000008152600401610ff2906117a0565b60405180910390fd5b5050505050565b6000611064826040518060400160405280602081526020017f5361666545524332303a206c6f772d6c6576656c2063616c6c206661696c65648152508573ffffffffffffffffffffffffffffffffffffffff166110c99092919063ffffffff16565b90506000815111156110c457808060200190518101906110849190611305565b6110c3576040517f08c379a00000000000000000000000000000000000000000000000000000000081526004016110ba906117c0565b60405180910390fd5b5b505050565b60606110d884846000856110e1565b90509392505050565b606082471015611126576040517f08c379a000000000000000000000000000000000000000000000000000000000815260040161111d906116e0565b60405180910390fd5b61112f856111f5565b61116e576040517f08c379a000000000000000000000000000000000000000000000000000000000815260040161116590611780565b60405180910390fd5b6000808673ffffffffffffffffffffffffffffffffffffffff16858760405161119791906115d1565b60006040518083038185875af1925050503d80600081146111d4576040519150601f19603f3d011682016040523d82523d6000602084013e6111d9565b606091505b50915091506111e9828286611208565b92505050949350505050565b600080823b905060008111915050919050565b6060831561121857829050611268565b60008351111561122b5782518084602001fd5b816040517f08c379a000000000000000000000000000000000000000000000000000000000815260040161125f919061167e565b60405180910390fd5b9392505050565b60008135905061127e81611dfd565b92915050565b60008151905061129381611e14565b92915050565b6000813590506112a881611e2b565b92915050565b6000813590506112bd81611e42565b92915050565b6000815190506112d281611e42565b92915050565b6000602082840312156112ee576112ed611a5c565b5b60006112fc8482850161126f565b91505092915050565b60006020828403121561131b5761131a611a5c565b5b600061132984828501611284565b91505092915050565b60006020828403121561134857611347611a5c565b5b600061135684828501611299565b91505092915050565b60006020828403121561137557611374611a5c565b5b6000611383848285016112ae565b91505092915050565b6000602082840312156113a2576113a1611a5c565b5b60006113b0848285016112c3565b91505092915050565b6113c28161190c565b82525050565b60006113d38261181b565b6113dd8185611831565b93506113ed81856020860161199c565b80840191505092915050565b61140281611966565b82525050565b600061141382611826565b61141d818561183c565b935061142d81856020860161199c565b61143681611a61565b840191505092915050565b600061144e60268361183c565b915061145982611a72565b604082019050919050565b600061147160348361183c565b915061147c82611ac1565b604082019050919050565b600061149460268361183c565b915061149f82611b10565b604082019050919050565b60006114b760468361183c565b91506114c282611b5f565b606082019050919050565b60006114da60778361183c565b91506114e582611bd4565b608082019050919050565b60006114fd60208361183c565b915061150882611c6f565b602082019050919050565b600061152060358361183c565b915061152b82611c98565b604082019050919050565b6000611543601d8361183c565b915061154e82611ce7565b602082019050919050565b6000611566602d8361183c565b915061157182611d10565b604082019050919050565b6000611589602a8361183c565b915061159482611d5f565b604082019050919050565b60006115ac60348361183c565b91506115b782611dae565b604082019050919050565b6115cb8161195c565b82525050565b60006115dd82846113c8565b915081905092915050565b60006020820190506115fd60008301846113b9565b92915050565b600060608201905061161860008301866113b9565b61162560208301856113b9565b61163260408301846115c2565b949350505050565b600060408201905061164f60008301856113b9565b61165c60208301846115c2565b9392505050565b600060208201905061167860008301846113f9565b92915050565b600060208201905081810360008301526116988184611408565b905092915050565b600060208201905081810360008301526116b981611441565b9050919050565b600060208201905081810360008301526116d981611464565b9050919050565b600060208201905081810360008301526116f981611487565b9050919050565b60006020820190508181036000830152611719816114aa565b9050919050565b60006020820190508181036000830152611739816114cd565b9050919050565b60006020820190508181036000830152611759816114f0565b9050919050565b6000602082019050818103600083015261177981611513565b9050919050565b6000602082019050818103600083015261179981611536565b9050919050565b600060208201905081810360008301526117b981611559565b9050919050565b600060208201905081810360008301526117d98161157c565b9050919050565b600060208201905081810360008301526117f98161159f565b9050919050565b600060208201905061181560008301846115c2565b92915050565b600081519050919050565b600081519050919050565b600081905092915050565b600082825260208201905092915050565b60006118588261195c565b91506118638361195c565b925082611873576118726119fe565b5b828204905092915050565b60006118898261195c565b91506118948361195c565b9250817fffffffffffffffffffffffffffffffffffffffffffffffffffffffffffffffff04831182151516156118cd576118cc6119cf565b5b828202905092915050565b60006118e38261195c565b91506118ee8361195c565b925082821015611901576119006119cf565b5b828203905092915050565b60006119178261193c565b9050919050565b60008115159050919050565b60006119358261190c565b9050919050565b600073ffffffffffffffffffffffffffffffffffffffff82169050919050565b6000819050919050565b600061197182611978565b9050919050565b60006119838261198a565b9050919050565b60006119958261193c565b9050919050565b60005b838110156119ba57808201518184015260208101905061199f565b838111156119c9576000848401525b50505050565b7f4e487b7100000000000000000000000000000000000000000000000000000000600052601160045260246000fd5b7f4e487b7100000000000000000000000000000000000000000000000000000000600052601260045260246000fd5b7f4e487b7100000000000000000000000000000000000000000000000000000000600052604160045260246000fd5b600080fd5b6000601f19601f8301169050919050565b7f4f776e61626c653a206e6577206f776e657220697320746865207a65726f206160008201527f6464726573730000000000000000000000000000000000000000000000000000602082015250565b7f5472616e7366657248656c7065723a3a736166655472616e736665724554483a60008201527f20455448207472616e73666572206661696c6564000000000000000000000000602082015250565b7f416464726573733a20696e73756666696369656e742062616c616e636520666f60008201527f722063616c6c0000000000000000000000000000000000000000000000000000602082015250565b7f41424f41543a3a757064617465526577617264546f6b656e3a204e657720726560008201527f776172642073686f756c6420626520646966666572656e742066726f6d20637560208201527f7272656e742e0000000000000000000000000000000000000000000000000000604082015250565b7f41424f41543a3a757064617465526577617264546f6b656e3a2054686520636f60008201527f6e74726163742073686f756c6420636f6e7461696e2061746c6561737420746860208201527f652073616d6520616d6f756e74206f6620746f6b656e732061732066726f6d2060408201527f7468652063757272656e7420726577617264546f6b656e000000000000000000606082015250565b7f4f776e61626c653a2063616c6c6572206973206e6f7420746865206f776e6572600082015250565b7f41424f41543a3a6275793a20416d6f756e7420776f756c64206578636565642060008201527f7468652072656d61696e696e672062616c616e63650000000000000000000000602082015250565b7f416464726573733a2063616c6c20746f206e6f6e2d636f6e7472616374000000600082015250565b7f5472616e7366657248656c7065723a3a736166655472616e736665723a20747260008201527f616e73666572206661696c656400000000000000000000000000000000000000602082015250565b7f5361666545524332303a204552433230206f7065726174696f6e20646964206e60008201527f6f74207375636365656400000000000000000000000000000000000000000000602082015250565b7f41424f41543a3a6275793a2053656e742076616c756520646f65736e2774206d60008201527f6565742074686520676976656e20616d6f756e74000000000000000000000000602082015250565b611e068161190c565b8114611e1157600080fd5b50565b611e1d8161191e565b8114611e2857600080fd5b50565b611e348161192a565b8114611e3f57600080fd5b50565b611e4b8161195c565b8114611e5657600080fd5b5056fea264697066735822122022e8cc626dbec3cce122492bc18cc8198a26eebf9d2da323cec591b6fe62dd2764736f6c63430008070033",
					"opcodes": "PUSH1 0x80 PUSH1 0x40 MSTORE CALLVALUE DUP1 ISZERO PUSH3 0x11 JUMPI PUSH1 0x0 DUP1 REVERT JUMPDEST POP PUSH1 0x40 MLOAD PUSH3 0x2286 CODESIZE SUB DUP1 PUSH3 0x2286 DUP4 CODECOPY DUP2 DUP2 ADD PUSH1 0x40 MSTORE DUP2 ADD SWAP1 PUSH3 0x37 SWAP2 SWAP1 PUSH3 0x22B JUMP JUMPDEST PUSH3 0x57 PUSH3 0x4B PUSH3 0x131 PUSH1 0x20 SHL PUSH1 0x20 SHR JUMP JUMPDEST PUSH3 0x139 PUSH1 0x20 SHL PUSH1 0x20 SHR JUMP JUMPDEST PUSH1 0x0 DUP2 GT PUSH3 0x9D JUMPI PUSH1 0x40 MLOAD PUSH32 0x8C379A000000000000000000000000000000000000000000000000000000000 DUP2 MSTORE PUSH1 0x4 ADD PUSH3 0x94 SWAP1 PUSH3 0x2DA JUMP JUMPDEST PUSH1 0x40 MLOAD DUP1 SWAP2 SUB SWAP1 REVERT JUMPDEST DUP5 PUSH1 0x1 PUSH1 0x0 PUSH2 0x100 EXP DUP2 SLOAD DUP2 PUSH20 0xFFFFFFFFFFFFFFFFFFFFFFFFFFFFFFFFFFFFFFFF MUL NOT AND SWAP1 DUP4 PUSH20 0xFFFFFFFFFFFFFFFFFFFFFFFFFFFFFFFFFFFFFFFF AND MUL OR SWAP1 SSTORE POP DUP4 PUSH1 0x2 PUSH1 0x0 PUSH2 0x100 EXP DUP2 SLOAD DUP2 PUSH20 0xFFFFFFFFFFFFFFFFFFFFFFFFFFFFFFFFFFFFFFFF MUL NOT AND SWAP1 DUP4 PUSH20 0xFFFFFFFFFFFFFFFFFFFFFFFFFFFFFFFFFFFFFFFF AND MUL OR SWAP1 SSTORE POP DUP1 PUSH1 0x3 DUP2 SWAP1 SSTORE POP POP POP POP POP POP PUSH3 0x3E7 JUMP JUMPDEST PUSH1 0x0 CALLER SWAP1 POP SWAP1 JUMP JUMPDEST PUSH1 0x0 DUP1 PUSH1 0x0 SWAP1 SLOAD SWAP1 PUSH2 0x100 EXP SWAP1 DIV PUSH20 0xFFFFFFFFFFFFFFFFFFFFFFFFFFFFFFFFFFFFFFFF AND SWAP1 POP DUP2 PUSH1 0x0 DUP1 PUSH2 0x100 EXP DUP2 SLOAD DUP2 PUSH20 0xFFFFFFFFFFFFFFFFFFFFFFFFFFFFFFFFFFFFFFFF MUL NOT AND SWAP1 DUP4 PUSH20 0xFFFFFFFFFFFFFFFFFFFFFFFFFFFFFFFFFFFFFFFF AND MUL OR SWAP1 SSTORE POP DUP2 PUSH20 0xFFFFFFFFFFFFFFFFFFFFFFFFFFFFFFFFFFFFFFFF AND DUP2 PUSH20 0xFFFFFFFFFFFFFFFFFFFFFFFFFFFFFFFFFFFFFFFF AND PUSH32 0x8BE0079C531659141344CD1FD0A4F28419497F9722A3DAAFE3B4186F6B6457E0 PUSH1 0x40 MLOAD PUSH1 0x40 MLOAD DUP1 SWAP2 SUB SWAP1 LOG3 POP POP JUMP JUMPDEST PUSH1 0x0 DUP2 MLOAD SWAP1 POP PUSH3 0x20E DUP2 PUSH3 0x3B3 JUMP JUMPDEST SWAP3 SWAP2 POP POP JUMP JUMPDEST PUSH1 0x0 DUP2 MLOAD SWAP1 POP PUSH3 0x225 DUP2 PUSH3 0x3CD JUMP JUMPDEST SWAP3 SWAP2 POP POP JUMP JUMPDEST PUSH1 0x0 DUP1 PUSH1 0x0 DUP1 PUSH1 0x0 PUSH1 0xA0 DUP7 DUP9 SUB SLT ISZERO PUSH3 0x24A JUMPI PUSH3 0x249 PUSH3 0x35F JUMP JUMPDEST JUMPDEST PUSH1 0x0 PUSH3 0x25A DUP9 DUP3 DUP10 ADD PUSH3 0x1FD JUMP JUMPDEST SWAP6 POP POP PUSH1 0x20 PUSH3 0x26D DUP9 DUP3 DUP10 ADD PUSH3 0x1FD JUMP JUMPDEST SWAP5 POP POP PUSH1 0x40 PUSH3 0x280 DUP9 DUP3 DUP10 ADD PUSH3 0x214 JUMP JUMPDEST SWAP4 POP POP PUSH1 0x60 PUSH3 0x293 DUP9 DUP3 DUP10 ADD PUSH3 0x214 JUMP JUMPDEST SWAP3 POP POP PUSH1 0x80 PUSH3 0x2A6 DUP9 DUP3 DUP10 ADD PUSH3 0x214 JUMP JUMPDEST SWAP2 POP POP SWAP3 SWAP6 POP SWAP3 SWAP6 SWAP1 SWAP4 POP JUMP JUMPDEST PUSH1 0x0 PUSH3 0x2C2 PUSH1 0x2E DUP4 PUSH3 0x2FC JUMP JUMPDEST SWAP2 POP PUSH3 0x2CF DUP3 PUSH3 0x364 JUMP JUMPDEST PUSH1 0x40 DUP3 ADD SWAP1 POP SWAP2 SWAP1 POP JUMP JUMPDEST PUSH1 0x0 PUSH1 0x20 DUP3 ADD SWAP1 POP DUP2 DUP2 SUB PUSH1 0x0 DUP4 ADD MSTORE PUSH3 0x2F5 DUP2 PUSH3 0x2B3 JUMP JUMPDEST SWAP1 POP SWAP2 SWAP1 POP JUMP JUMPDEST PUSH1 0x0 DUP3 DUP3 MSTORE PUSH1 0x20 DUP3 ADD SWAP1 POP SWAP3 SWAP2 POP POP JUMP JUMPDEST PUSH1 0x0 PUSH3 0x31A DUP3 PUSH3 0x335 JUMP JUMPDEST SWAP1 POP SWAP2 SWAP1 POP JUMP JUMPDEST PUSH1 0x0 PUSH3 0x32E DUP3 PUSH3 0x30D JUMP JUMPDEST SWAP1 POP SWAP2 SWAP1 POP JUMP JUMPDEST PUSH1 0x0 PUSH20 0xFFFFFFFFFFFFFFFFFFFFFFFFFFFFFFFFFFFFFFFF DUP3 AND SWAP1 POP SWAP2 SWAP1 POP JUMP JUMPDEST PUSH1 0x0 DUP2 SWAP1 POP SWAP2 SWAP1 POP JUMP JUMPDEST PUSH1 0x0 DUP1 REVERT JUMPDEST PUSH32 0x41424F41543A3A6572726F723A2050726963652068617320746F206265206869 PUSH1 0x0 DUP3 ADD MSTORE PUSH32 0x67686572207468616E207A65726F000000000000000000000000000000000000 PUSH1 0x20 DUP3 ADD MSTORE POP JUMP JUMPDEST PUSH3 0x3BE DUP2 PUSH3 0x321 JUMP JUMPDEST DUP2 EQ PUSH3 0x3CA JUMPI PUSH1 0x0 DUP1 REVERT JUMPDEST POP JUMP JUMPDEST PUSH3 0x3D8 DUP2 PUSH3 0x355 JUMP JUMPDEST DUP2 EQ PUSH3 0x3E4 JUMPI PUSH1 0x0 DUP1 REVERT JUMPDEST POP JUMP JUMPDEST PUSH2 0x1E8F DUP1 PUSH3 0x3F7 PUSH1 0x0 CODECOPY PUSH1 0x0 RETURN INVALID PUSH1 0x80 PUSH1 0x40 MSTORE PUSH1 0x4 CALLDATASIZE LT PUSH2 0xC2 JUMPI PUSH1 0x0 CALLDATALOAD PUSH1 0xE0 SHR DUP1 PUSH4 0xA960C65F GT PUSH2 0x7F JUMPI DUP1 PUSH4 0xF2FDE38B GT PUSH2 0x59 JUMPI DUP1 PUSH4 0xF2FDE38B EQ PUSH2 0x25D JUMPI DUP1 PUSH4 0xF3739E05 EQ PUSH2 0x286 JUMPI DUP1 PUSH4 0xF7C618C1 EQ PUSH2 0x2C3 JUMPI DUP1 PUSH4 0xF8CF31CB EQ PUSH2 0x2EE JUMPI PUSH2 0xC2 JUMP JUMPDEST DUP1 PUSH4 0xA960C65F EQ PUSH2 0x1C7 JUMPI DUP1 PUSH4 0xC884EF83 EQ PUSH2 0x204 JUMPI DUP1 PUSH4 0xD96A094A EQ PUSH2 0x241 JUMPI PUSH2 0xC2 JUMP JUMPDEST DUP1 PUSH4 0x2FBA2C85 EQ PUSH2 0xC7 JUMPI DUP1 PUSH4 0x3013CE29 EQ PUSH2 0xF2 JUMPI DUP1 PUSH4 0x667022FD EQ PUSH2 0x11D JUMPI DUP1 PUSH4 0x715018A6 EQ PUSH2 0x15A JUMPI DUP1 PUSH4 0x7B1B1DE6 EQ PUSH2 0x171 JUMPI DUP1 PUSH4 0x8DA5CB5B EQ PUSH2 0x19C JUMPI JUMPDEST PUSH1 0x0 DUP1 REVERT JUMPDEST CALLVALUE DUP1 ISZERO PUSH2 0xD3 JUMPI PUSH1 0x0 DUP1 REVERT JUMPDEST POP PUSH2 0xDC PUSH2 0x317 JUMP JUMPDEST PUSH1 0x40 MLOAD PUSH2 0xE9 SWAP2 SWAP1 PUSH2 0x1800 JUMP JUMPDEST PUSH1 0x40 MLOAD DUP1 SWAP2 SUB SWAP1 RETURN JUMPDEST CALLVALUE DUP1 ISZERO PUSH2 0xFE JUMPI PUSH1 0x0 DUP1 REVERT JUMPDEST POP PUSH2 0x107 PUSH2 0x42F JUMP JUMPDEST PUSH1 0x40 MLOAD PUSH2 0x114 SWAP2 SWAP1 PUSH2 0x1663 JUMP JUMPDEST PUSH1 0x40 MLOAD DUP1 SWAP2 SUB SWAP1 RETURN JUMPDEST CALLVALUE DUP1 ISZERO PUSH2 0x129 JUMPI PUSH1 0x0 DUP1 REVERT JUMPDEST POP PUSH2 0x144 PUSH1 0x4 DUP1 CALLDATASIZE SUB DUP2 ADD SWAP1 PUSH2 0x13F SWAP2 SWAP1 PUSH2 0x12D8 JUMP JUMPDEST PUSH2 0x455 JUMP JUMPDEST PUSH1 0x40 MLOAD PUSH2 0x151 SWAP2 SWAP1 PUSH2 0x1800 JUMP JUMPDEST PUSH1 0x40 MLOAD DUP1 SWAP2 SUB SWAP1 RETURN JUMPDEST CALLVALUE DUP1 ISZERO PUSH2 0x166 JUMPI PUSH1 0x0 DUP1 REVERT JUMPDEST POP PUSH2 0x16F PUSH2 0x46D JUMP JUMPDEST STOP JUMPDEST CALLVALUE DUP1 ISZERO PUSH2 0x17D JUMPI PUSH1 0x0 DUP1 REVERT JUMPDEST POP PUSH2 0x186 PUSH2 0x4F5 JUMP JUMPDEST PUSH1 0x40 MLOAD PUSH2 0x193 SWAP2 SWAP1 PUSH2 0x1800 JUMP JUMPDEST PUSH1 0x40 MLOAD DUP1 SWAP2 SUB SWAP1 RETURN JUMPDEST CALLVALUE DUP1 ISZERO PUSH2 0x1A8 JUMPI PUSH1 0x0 DUP1 REVERT JUMPDEST POP PUSH2 0x1B1 PUSH2 0x4FB JUMP JUMPDEST PUSH1 0x40 MLOAD PUSH2 0x1BE SWAP2 SWAP1 PUSH2 0x15E8 JUMP JUMPDEST PUSH1 0x40 MLOAD DUP1 SWAP2 SUB SWAP1 RETURN JUMPDEST CALLVALUE DUP1 ISZERO PUSH2 0x1D3 JUMPI PUSH1 0x0 DUP1 REVERT JUMPDEST POP PUSH2 0x1EE PUSH1 0x4 DUP1 CALLDATASIZE SUB DUP2 ADD SWAP1 PUSH2 0x1E9 SWAP2 SWAP1 PUSH2 0x12D8 JUMP JUMPDEST PUSH2 0x524 JUMP JUMPDEST PUSH1 0x40 MLOAD PUSH2 0x1FB SWAP2 SWAP1 PUSH2 0x1800 JUMP JUMPDEST PUSH1 0x40 MLOAD DUP1 SWAP2 SUB SWAP1 RETURN JUMPDEST CALLVALUE DUP1 ISZERO PUSH2 0x210 JUMPI PUSH1 0x0 DUP1 REVERT JUMPDEST POP PUSH2 0x22B PUSH1 0x4 DUP1 CALLDATASIZE SUB DUP2 ADD SWAP1 PUSH2 0x226 SWAP2 SWAP1 PUSH2 0x12D8 JUMP JUMPDEST PUSH2 0x53C JUMP JUMPDEST PUSH1 0x40 MLOAD PUSH2 0x238 SWAP2 SWAP1 PUSH2 0x1800 JUMP JUMPDEST PUSH1 0x40 MLOAD DUP1 SWAP2 SUB SWAP1 RETURN JUMPDEST PUSH2 0x25B PUSH1 0x4 DUP1 CALLDATASIZE SUB DUP2 ADD SWAP1 PUSH2 0x256 SWAP2 SWAP1 PUSH2 0x135F JUMP JUMPDEST PUSH2 0x554 JUMP JUMPDEST STOP JUMPDEST CALLVALUE DUP1 ISZERO PUSH2 0x269 JUMPI PUSH1 0x0 DUP1 REVERT JUMPDEST POP PUSH2 0x284 PUSH1 0x4 DUP1 CALLDATASIZE SUB DUP2 ADD SWAP1 PUSH2 0x27F SWAP2 SWAP1 PUSH2 0x12D8 JUMP JUMPDEST PUSH2 0x7BA JUMP JUMPDEST STOP JUMPDEST CALLVALUE DUP1 ISZERO PUSH2 0x292 JUMPI PUSH1 0x0 DUP1 REVERT JUMPDEST POP PUSH2 0x2AD PUSH1 0x4 DUP1 CALLDATASIZE SUB DUP2 ADD SWAP1 PUSH2 0x2A8 SWAP2 SWAP1 PUSH2 0x12D8 JUMP JUMPDEST PUSH2 0x8B2 JUMP JUMPDEST PUSH1 0x40 MLOAD PUSH2 0x2BA SWAP2 SWAP1 PUSH2 0x15E8 JUMP JUMPDEST PUSH1 0x40 MLOAD DUP1 SWAP2 SUB SWAP1 RETURN JUMPDEST CALLVALUE DUP1 ISZERO PUSH2 0x2CF JUMPI PUSH1 0x0 DUP1 REVERT JUMPDEST POP PUSH2 0x2D8 PUSH2 0x8E5 JUMP JUMPDEST PUSH1 0x40 MLOAD PUSH2 0x2E5 SWAP2 SWAP1 PUSH2 0x1663 JUMP JUMPDEST PUSH1 0x40 MLOAD DUP1 SWAP2 SUB SWAP1 RETURN JUMPDEST CALLVALUE DUP1 ISZERO PUSH2 0x2FA JUMPI PUSH1 0x0 DUP1 REVERT JUMPDEST POP PUSH2 0x315 PUSH1 0x4 DUP1 CALLDATASIZE SUB DUP2 ADD SWAP1 PUSH2 0x310 SWAP2 SWAP1 PUSH2 0x1332 JUMP JUMPDEST PUSH2 0x90B JUMP JUMPDEST STOP JUMPDEST PUSH1 0x0 DUP1 PUSH1 0x0 PUSH20 0xFFFFFFFFFFFFFFFFFFFFFFFFFFFFFFFFFFFFFFFF AND PUSH1 0x1 PUSH1 0x0 SWAP1 SLOAD SWAP1 PUSH2 0x100 EXP SWAP1 DIV PUSH20 0xFFFFFFFFFFFFFFFFFFFFFFFFFFFFFFFFFFFFFFFF AND PUSH20 0xFFFFFFFFFFFFFFFFFFFFFFFFFFFFFFFFFFFFFFFF AND EQ SWAP1 POP DUP1 ISZERO PUSH2 0x37D JUMPI SELFBALANCE SWAP2 POP POP PUSH2 0x42C JUMP JUMPDEST PUSH1 0x1 PUSH1 0x0 SWAP1 SLOAD SWAP1 PUSH2 0x100 EXP SWAP1 DIV PUSH20 0xFFFFFFFFFFFFFFFFFFFFFFFFFFFFFFFFFFFFFFFF AND PUSH20 0xFFFFFFFFFFFFFFFFFFFFFFFFFFFFFFFFFFFFFFFF AND PUSH4 0x70A08231 ADDRESS PUSH1 0x40 MLOAD DUP3 PUSH4 0xFFFFFFFF AND PUSH1 0xE0 SHL DUP2 MSTORE PUSH1 0x4 ADD PUSH2 0x3D8 SWAP2 SWAP1 PUSH2 0x15E8 JUMP JUMPDEST PUSH1 0x20 PUSH1 0x40 MLOAD DUP1 DUP4 SUB DUP2 DUP7 DUP1 EXTCODESIZE ISZERO DUP1 ISZERO PUSH2 0x3F0 JUMPI PUSH1 0x0 DUP1 REVERT JUMPDEST POP GAS STATICCALL ISZERO DUP1 ISZERO PUSH2 0x404 JUMPI RETURNDATASIZE PUSH1 0x0 DUP1 RETURNDATACOPY RETURNDATASIZE PUSH1 0x0 REVERT JUMPDEST POP POP POP POP PUSH1 0x40 MLOAD RETURNDATASIZE PUSH1 0x1F NOT PUSH1 0x1F DUP3 ADD AND DUP3 ADD DUP1 PUSH1 0x40 MSTORE POP DUP2 ADD SWAP1 PUSH2 0x428 SWAP2 SWAP1 PUSH2 0x138C JUMP JUMPDEST SWAP2 POP POP JUMPDEST SWAP1 JUMP JUMPDEST PUSH1 0x2 PUSH1 0x0 SWAP1 SLOAD SWAP1 PUSH2 0x100 EXP SWAP1 DIV PUSH20 0xFFFFFFFFFFFFFFFFFFFFFFFFFFFFFFFFFFFFFFFF AND DUP2 JUMP JUMPDEST PUSH1 0x4 PUSH1 0x20 MSTORE DUP1 PUSH1 0x0 MSTORE PUSH1 0x40 PUSH1 0x0 KECCAK256 PUSH1 0x0 SWAP2 POP SWAP1 POP SLOAD DUP2 JUMP JUMPDEST PUSH2 0x475 PUSH2 0xC35 JUMP JUMPDEST PUSH20 0xFFFFFFFFFFFFFFFFFFFFFFFFFFFFFFFFFFFFFFFF AND PUSH2 0x493 PUSH2 0x4FB JUMP JUMPDEST PUSH20 0xFFFFFFFFFFFFFFFFFFFFFFFFFFFFFFFFFFFFFFFF AND EQ PUSH2 0x4E9 JUMPI PUSH1 0x40 MLOAD PUSH32 0x8C379A000000000000000000000000000000000000000000000000000000000 DUP2 MSTORE PUSH1 0x4 ADD PUSH2 0x4E0 SWAP1 PUSH2 0x1740 JUMP JUMPDEST PUSH1 0x40 MLOAD DUP1 SWAP2 SUB SWAP1 REVERT JUMPDEST PUSH2 0x4F3 PUSH1 0x0 PUSH2 0xC3D JUMP JUMPDEST JUMP JUMPDEST PUSH1 0x3 SLOAD DUP2 JUMP JUMPDEST PUSH1 0x0 DUP1 PUSH1 0x0 SWAP1 SLOAD SWAP1 PUSH2 0x100 EXP SWAP1 DIV PUSH20 0xFFFFFFFFFFFFFFFFFFFFFFFFFFFFFFFFFFFFFFFF AND SWAP1 POP SWAP1 JUMP JUMPDEST PUSH1 0x6 PUSH1 0x20 MSTORE DUP1 PUSH1 0x0 MSTORE PUSH1 0x40 PUSH1 0x0 KECCAK256 PUSH1 0x0 SWAP2 POP SWAP1 POP SLOAD DUP2 JUMP JUMPDEST PUSH1 0x5 PUSH1 0x20 MSTORE DUP1 PUSH1 0x0 MSTORE PUSH1 0x40 PUSH1 0x0 KECCAK256 PUSH1 0x0 SWAP2 POP SWAP1 POP SLOAD DUP2 JUMP JUMPDEST PUSH1 0x0 DUP1 PUSH20 0xFFFFFFFFFFFFFFFFFFFFFFFFFFFFFFFFFFFFFFFF AND PUSH1 0x2 PUSH1 0x0 SWAP1 SLOAD SWAP1 PUSH2 0x100 EXP SWAP1 DIV PUSH20 0xFFFFFFFFFFFFFFFFFFFFFFFFFFFFFFFFFFFFFFFF AND PUSH20 0xFFFFFFFFFFFFFFFFFFFFFFFFFFFFFFFFFFFFFFFF AND EQ SWAP1 POP PUSH1 0x0 DUP1 PUSH20 0xFFFFFFFFFFFFFFFFFFFFFFFFFFFFFFFFFFFFFFFF AND PUSH1 0x1 PUSH1 0x0 SWAP1 SLOAD SWAP1 PUSH2 0x100 EXP SWAP1 DIV PUSH20 0xFFFFFFFFFFFFFFFFFFFFFFFFFFFFFFFFFFFFFFFF AND PUSH20 0xFFFFFFFFFFFFFFFFFFFFFFFFFFFFFFFFFFFFFFFF AND EQ SWAP1 POP DUP2 ISZERO DUP1 PUSH2 0x60A JUMPI POP DUP3 CALLVALUE EQ JUMPDEST PUSH2 0x649 JUMPI PUSH1 0x40 MLOAD PUSH32 0x8C379A000000000000000000000000000000000000000000000000000000000 DUP2 MSTORE PUSH1 0x4 ADD PUSH2 0x640 SWAP1 PUSH2 0x17E0 JUMP JUMPDEST PUSH1 0x40 MLOAD DUP1 SWAP2 SUB SWAP1 REVERT JUMPDEST PUSH1 0x0 PUSH2 0x67A PUSH1 0x3 SLOAD PUSH2 0x66C PUSH8 0xDE0B6B3A7640000 DUP8 PUSH2 0xD01 SWAP1 SWAP2 SWAP1 PUSH4 0xFFFFFFFF AND JUMP JUMPDEST PUSH2 0xD17 SWAP1 SWAP2 SWAP1 PUSH4 0xFFFFFFFF AND JUMP JUMPDEST SWAP1 POP PUSH1 0x0 PUSH2 0x698 DUP3 PUSH2 0x68A PUSH2 0x317 JUMP JUMPDEST PUSH2 0xD2D SWAP1 SWAP2 SWAP1 PUSH4 0xFFFFFFFF AND JUMP JUMPDEST GT PUSH2 0x6D8 JUMPI PUSH1 0x40 MLOAD PUSH32 0x8C379A000000000000000000000000000000000000000000000000000000000 DUP2 MSTORE PUSH1 0x4 ADD PUSH2 0x6CF SWAP1 PUSH2 0x1760 JUMP JUMPDEST PUSH1 0x40 MLOAD DUP1 SWAP2 SUB SWAP1 REVERT JUMPDEST DUP3 PUSH2 0x72D JUMPI PUSH2 0x72C CALLER ADDRESS DUP7 PUSH1 0x2 PUSH1 0x0 SWAP1 SLOAD SWAP1 PUSH2 0x100 EXP SWAP1 DIV PUSH20 0xFFFFFFFFFFFFFFFFFFFFFFFFFFFFFFFFFFFFFFFF AND PUSH20 0xFFFFFFFFFFFFFFFFFFFFFFFFFFFFFFFFFFFFFFFF AND PUSH2 0xD43 SWAP1 SWAP4 SWAP3 SWAP2 SWAP1 PUSH4 0xFFFFFFFF AND JUMP JUMPDEST JUMPDEST DUP2 ISZERO PUSH2 0x742 JUMPI PUSH2 0x73D CALLER DUP6 PUSH2 0xDCC JUMP JUMPDEST PUSH2 0x770 JUMP JUMPDEST PUSH2 0x76F PUSH1 0x1 PUSH1 0x0 SWAP1 SLOAD SWAP1 PUSH2 0x100 EXP SWAP1 DIV PUSH20 0xFFFFFFFFFFFFFFFFFFFFFFFFFFFFFFFFFFFFFFFF AND CALLER DUP7 PUSH2 0xECC JUMP JUMPDEST JUMPDEST DUP4 CALLER PUSH20 0xFFFFFFFFFFFFFFFFFFFFFFFFFFFFFFFFFFFFFFFF AND PUSH32 0xC55650CCDA1011E1CDC769B1FBF546EBB8C97800B6072B49E06CD560305B1D67 PUSH1 0x40 MLOAD PUSH1 0x40 MLOAD DUP1 SWAP2 SUB SWAP1 LOG3 POP POP POP POP JUMP JUMPDEST PUSH2 0x7C2 PUSH2 0xC35 JUMP JUMPDEST PUSH20 0xFFFFFFFFFFFFFFFFFFFFFFFFFFFFFFFFFFFFFFFF AND PUSH2 0x7E0 PUSH2 0x4FB JUMP JUMPDEST PUSH20 0xFFFFFFFFFFFFFFFFFFFFFFFFFFFFFFFFFFFFFFFF AND EQ PUSH2 0x836 JUMPI PUSH1 0x40 MLOAD PUSH32 0x8C379A000000000000000000000000000000000000000000000000000000000 DUP2 MSTORE PUSH1 0x4 ADD PUSH2 0x82D SWAP1 PUSH2 0x1740 JUMP JUMPDEST PUSH1 0x40 MLOAD DUP1 SWAP2 SUB SWAP1 REVERT JUMPDEST PUSH1 0x0 PUSH20 0xFFFFFFFFFFFFFFFFFFFFFFFFFFFFFFFFFFFFFFFF AND DUP2 PUSH20 0xFFFFFFFFFFFFFFFFFFFFFFFFFFFFFFFFFFFFFFFF AND EQ ISZERO PUSH2 0x8A6 JUMPI PUSH1 0x40 MLOAD PUSH32 0x8C379A000000000000000000000000000000000000000000000000000000000 DUP2 MSTORE PUSH1 0x4 ADD PUSH2 0x89D SWAP1 PUSH2 0x16A0 JUMP JUMPDEST PUSH1 0x40 MLOAD DUP1 SWAP2 SUB SWAP1 REVERT JUMPDEST PUSH2 0x8AF DUP2 PUSH2 0xC3D JUMP JUMPDEST POP JUMP JUMPDEST PUSH1 0x7 PUSH1 0x20 MSTORE DUP1 PUSH1 0x0 MSTORE PUSH1 0x40 PUSH1 0x0 KECCAK256 PUSH1 0x0 SWAP2 POP SLOAD SWAP1 PUSH2 0x100 EXP SWAP1 DIV PUSH20 0xFFFFFFFFFFFFFFFFFFFFFFFFFFFFFFFFFFFFFFFF AND DUP2 JUMP JUMPDEST PUSH1 0x1 PUSH1 0x0 SWAP1 SLOAD SWAP1 PUSH2 0x100 EXP SWAP1 DIV PUSH20 0xFFFFFFFFFFFFFFFFFFFFFFFFFFFFFFFFFFFFFFFF AND DUP2 JUMP JUMPDEST PUSH2 0x913 PUSH2 0xC35 JUMP JUMPDEST PUSH20 0xFFFFFFFFFFFFFFFFFFFFFFFFFFFFFFFFFFFFFFFF AND PUSH2 0x931 PUSH2 0x4FB JUMP JUMPDEST PUSH20 0xFFFFFFFFFFFFFFFFFFFFFFFFFFFFFFFFFFFFFFFF AND EQ PUSH2 0x987 JUMPI PUSH1 0x40 MLOAD PUSH32 0x8C379A000000000000000000000000000000000000000000000000000000000 DUP2 MSTORE PUSH1 0x4 ADD PUSH2 0x97E SWAP1 PUSH2 0x1740 JUMP JUMPDEST PUSH1 0x40 MLOAD DUP1 SWAP2 SUB SWAP1 REVERT JUMPDEST PUSH1 0x1 PUSH1 0x0 SWAP1 SLOAD SWAP1 PUSH2 0x100 EXP SWAP1 DIV PUSH20 0xFFFFFFFFFFFFFFFFFFFFFFFFFFFFFFFFFFFFFFFF AND PUSH20 0xFFFFFFFFFFFFFFFFFFFFFFFFFFFFFFFFFFFFFFFF AND DUP2 PUSH20 0xFFFFFFFFFFFFFFFFFFFFFFFFFFFFFFFFFFFFFFFF AND EQ ISZERO PUSH2 0xA18 JUMPI PUSH1 0x40 MLOAD PUSH32 0x8C379A000000000000000000000000000000000000000000000000000000000 DUP2 MSTORE PUSH1 0x4 ADD PUSH2 0xA0F SWAP1 PUSH2 0x1700 JUMP JUMPDEST PUSH1 0x40 MLOAD DUP1 SWAP2 SUB SWAP1 REVERT JUMPDEST PUSH1 0x1 PUSH1 0x0 SWAP1 SLOAD SWAP1 PUSH2 0x100 EXP SWAP1 DIV PUSH20 0xFFFFFFFFFFFFFFFFFFFFFFFFFFFFFFFFFFFFFFFF AND PUSH20 0xFFFFFFFFFFFFFFFFFFFFFFFFFFFFFFFFFFFFFFFF AND PUSH4 0x70A08231 ADDRESS PUSH1 0x40 MLOAD DUP3 PUSH4 0xFFFFFFFF AND PUSH1 0xE0 SHL DUP2 MSTORE PUSH1 0x4 ADD PUSH2 0xA73 SWAP2 SWAP1 PUSH2 0x15E8 JUMP JUMPDEST PUSH1 0x20 PUSH1 0x40 MLOAD DUP1 DUP4 SUB DUP2 DUP7 DUP1 EXTCODESIZE ISZERO DUP1 ISZERO PUSH2 0xA8B JUMPI PUSH1 0x0 DUP1 REVERT JUMPDEST POP GAS STATICCALL ISZERO DUP1 ISZERO PUSH2 0xA9F JUMPI RETURNDATASIZE PUSH1 0x0 DUP1 RETURNDATACOPY RETURNDATASIZE PUSH1 0x0 REVERT JUMPDEST POP POP POP POP PUSH1 0x40 MLOAD RETURNDATASIZE PUSH1 0x1F NOT PUSH1 0x1F DUP3 ADD AND DUP3 ADD DUP1 PUSH1 0x40 MSTORE POP DUP2 ADD SWAP1 PUSH2 0xAC3 SWAP2 SWAP1 PUSH2 0x138C JUMP JUMPDEST DUP2 PUSH20 0xFFFFFFFFFFFFFFFFFFFFFFFFFFFFFFFFFFFFFFFF AND PUSH4 0x70A08231 ADDRESS PUSH1 0x40 MLOAD DUP3 PUSH4 0xFFFFFFFF AND PUSH1 0xE0 SHL DUP2 MSTORE PUSH1 0x4 ADD PUSH2 0xAFC SWAP2 SWAP1 PUSH2 0x15E8 JUMP JUMPDEST PUSH1 0x20 PUSH1 0x40 MLOAD DUP1 DUP4 SUB DUP2 DUP7 DUP1 EXTCODESIZE ISZERO DUP1 ISZERO PUSH2 0xB14 JUMPI PUSH1 0x0 DUP1 REVERT JUMPDEST POP GAS STATICCALL ISZERO DUP1 ISZERO PUSH2 0xB28 JUMPI RETURNDATASIZE PUSH1 0x0 DUP1 RETURNDATACOPY RETURNDATASIZE PUSH1 0x0 REVERT JUMPDEST POP POP POP POP PUSH1 0x40 MLOAD RETURNDATASIZE PUSH1 0x1F NOT PUSH1 0x1F DUP3 ADD AND DUP3 ADD DUP1 PUSH1 0x40 MSTORE POP DUP2 ADD SWAP1 PUSH2 0xB4C SWAP2 SWAP1 PUSH2 0x138C JUMP JUMPDEST EQ PUSH2 0xB8C JUMPI PUSH1 0x40 MLOAD PUSH32 0x8C379A000000000000000000000000000000000000000000000000000000000 DUP2 MSTORE PUSH1 0x4 ADD PUSH2 0xB83 SWAP1 PUSH2 0x1720 JUMP JUMPDEST PUSH1 0x40 MLOAD DUP1 SWAP2 SUB SWAP1 REVERT JUMPDEST DUP1 PUSH1 0x1 PUSH1 0x0 PUSH2 0x100 EXP DUP2 SLOAD DUP2 PUSH20 0xFFFFFFFFFFFFFFFFFFFFFFFFFFFFFFFFFFFFFFFF MUL NOT AND SWAP1 DUP4 PUSH20 0xFFFFFFFFFFFFFFFFFFFFFFFFFFFFFFFFFFFFFFFF AND MUL OR SWAP1 SSTORE POP PUSH1 0x1 PUSH1 0x0 SWAP1 SLOAD SWAP1 PUSH2 0x100 EXP SWAP1 DIV PUSH20 0xFFFFFFFFFFFFFFFFFFFFFFFFFFFFFFFFFFFFFFFF AND PUSH20 0xFFFFFFFFFFFFFFFFFFFFFFFFFFFFFFFFFFFFFFFF AND PUSH32 0x3FCFC24A3384CA156092D9242CB0F84ABAF442146D91B8C93BEA526561B83F83 PUSH1 0x40 MLOAD PUSH1 0x40 MLOAD DUP1 SWAP2 SUB SWAP1 LOG2 POP JUMP JUMPDEST PUSH1 0x0 CALLER SWAP1 POP SWAP1 JUMP JUMPDEST PUSH1 0x0 DUP1 PUSH1 0x0 SWAP1 SLOAD SWAP1 PUSH2 0x100 EXP SWAP1 DIV PUSH20 0xFFFFFFFFFFFFFFFFFFFFFFFFFFFFFFFFFFFFFFFF AND SWAP1 POP DUP2 PUSH1 0x0 DUP1 PUSH2 0x100 EXP DUP2 SLOAD DUP2 PUSH20 0xFFFFFFFFFFFFFFFFFFFFFFFFFFFFFFFFFFFFFFFF MUL NOT AND SWAP1 DUP4 PUSH20 0xFFFFFFFFFFFFFFFFFFFFFFFFFFFFFFFFFFFFFFFF AND MUL OR SWAP1 SSTORE POP DUP2 PUSH20 0xFFFFFFFFFFFFFFFFFFFFFFFFFFFFFFFFFFFFFFFF AND DUP2 PUSH20 0xFFFFFFFFFFFFFFFFFFFFFFFFFFFFFFFFFFFFFFFF AND PUSH32 0x8BE0079C531659141344CD1FD0A4F28419497F9722A3DAAFE3B4186F6B6457E0 PUSH1 0x40 MLOAD PUSH1 0x40 MLOAD DUP1 SWAP2 SUB SWAP1 LOG3 POP POP JUMP JUMPDEST PUSH1 0x0 DUP2 DUP4 PUSH2 0xD0F SWAP2 SWAP1 PUSH2 0x187E JUMP JUMPDEST SWAP1 POP SWAP3 SWAP2 POP POP JUMP JUMPDEST PUSH1 0x0 DUP2 DUP4 PUSH2 0xD25 SWAP2 SWAP1 PUSH2 0x184D JUMP JUMPDEST SWAP1 POP SWAP3 SWAP2 POP POP JUMP JUMPDEST PUSH1 0x0 DUP2 DUP4 PUSH2 0xD3B SWAP2 SWAP1 PUSH2 0x18D8 JUMP JUMPDEST SWAP1 POP SWAP3 SWAP2 POP POP JUMP JUMPDEST PUSH2 0xDC6 DUP5 PUSH4 0x23B872DD PUSH1 0xE0 SHL DUP6 DUP6 DUP6 PUSH1 0x40 MLOAD PUSH1 0x24 ADD PUSH2 0xD64 SWAP4 SWAP3 SWAP2 SWAP1 PUSH2 0x1603 JUMP JUMPDEST PUSH1 0x40 MLOAD PUSH1 0x20 DUP2 DUP4 SUB SUB DUP2 MSTORE SWAP1 PUSH1 0x40 MSTORE SWAP1 PUSH28 0xFFFFFFFFFFFFFFFFFFFFFFFFFFFFFFFFFFFFFFFFFFFFFFFFFFFFFFFF NOT AND PUSH1 0x20 DUP3 ADD DUP1 MLOAD PUSH28 0xFFFFFFFFFFFFFFFFFFFFFFFFFFFFFFFFFFFFFFFFFFFFFFFFFFFFFFFF DUP4 DUP2 DUP4 AND OR DUP4 MSTORE POP POP POP POP PUSH2 0x1002 JUMP JUMPDEST POP POP POP POP JUMP JUMPDEST PUSH1 0x0 DUP3 PUSH20 0xFFFFFFFFFFFFFFFFFFFFFFFFFFFFFFFFFFFFFFFF AND DUP3 PUSH1 0x0 PUSH8 0xFFFFFFFFFFFFFFFF DUP2 GT ISZERO PUSH2 0xE01 JUMPI PUSH2 0xE00 PUSH2 0x1A2D JUMP JUMPDEST JUMPDEST PUSH1 0x40 MLOAD SWAP1 DUP1 DUP3 MSTORE DUP1 PUSH1 0x1F ADD PUSH1 0x1F NOT AND PUSH1 0x20 ADD DUP3 ADD PUSH1 0x40 MSTORE DUP1 ISZERO PUSH2 0xE33 JUMPI DUP2 PUSH1 0x20 ADD PUSH1 0x1 DUP3 MUL DUP1 CALLDATASIZE DUP4 CALLDATACOPY DUP1 DUP3 ADD SWAP2 POP POP SWAP1 POP JUMPDEST POP PUSH1 0x40 MLOAD PUSH2 0xE41 SWAP2 SWAP1 PUSH2 0x15D1 JUMP JUMPDEST PUSH1 0x0 PUSH1 0x40 MLOAD DUP1 DUP4 SUB DUP2 DUP6 DUP8 GAS CALL SWAP3 POP POP POP RETURNDATASIZE DUP1 PUSH1 0x0 DUP2 EQ PUSH2 0xE7E JUMPI PUSH1 0x40 MLOAD SWAP2 POP PUSH1 0x1F NOT PUSH1 0x3F RETURNDATASIZE ADD AND DUP3 ADD PUSH1 0x40 MSTORE RETURNDATASIZE DUP3 MSTORE RETURNDATASIZE PUSH1 0x0 PUSH1 0x20 DUP5 ADD RETURNDATACOPY PUSH2 0xE83 JUMP JUMPDEST PUSH1 0x60 SWAP2 POP JUMPDEST POP POP SWAP1 POP DUP1 PUSH2 0xEC7 JUMPI PUSH1 0x40 MLOAD PUSH32 0x8C379A000000000000000000000000000000000000000000000000000000000 DUP2 MSTORE PUSH1 0x4 ADD PUSH2 0xEBE SWAP1 PUSH2 0x16C0 JUMP JUMPDEST PUSH1 0x40 MLOAD DUP1 SWAP2 SUB SWAP1 REVERT JUMPDEST POP POP POP JUMP JUMPDEST PUSH1 0x0 DUP1 DUP5 PUSH20 0xFFFFFFFFFFFFFFFFFFFFFFFFFFFFFFFFFFFFFFFF AND PUSH4 0xA9059CBB DUP6 DUP6 PUSH1 0x40 MLOAD PUSH1 0x24 ADD PUSH2 0xEFE SWAP3 SWAP2 SWAP1 PUSH2 0x163A JUMP JUMPDEST PUSH1 0x40 MLOAD PUSH1 0x20 DUP2 DUP4 SUB SUB DUP2 MSTORE SWAP1 PUSH1 0x40 MSTORE SWAP1 PUSH1 0xE0 SHL PUSH1 0x20 DUP3 ADD DUP1 MLOAD PUSH28 0xFFFFFFFFFFFFFFFFFFFFFFFFFFFFFFFFFFFFFFFFFFFFFFFFFFFFFFFF DUP4 DUP2 DUP4 AND OR DUP4 MSTORE POP POP POP POP PUSH1 0x40 MLOAD PUSH2 0xF4C SWAP2 SWAP1 PUSH2 0x15D1 JUMP JUMPDEST PUSH1 0x0 PUSH1 0x40 MLOAD DUP1 DUP4 SUB DUP2 PUSH1 0x0 DUP7 GAS CALL SWAP2 POP POP RETURNDATASIZE DUP1 PUSH1 0x0 DUP2 EQ PUSH2 0xF89 JUMPI PUSH1 0x40 MLOAD SWAP2 POP PUSH1 0x1F NOT PUSH1 0x3F RETURNDATASIZE ADD AND DUP3 ADD PUSH1 0x40 MSTORE RETURNDATASIZE DUP3 MSTORE RETURNDATASIZE PUSH1 0x0 PUSH1 0x20 DUP5 ADD RETURNDATACOPY PUSH2 0xF8E JUMP JUMPDEST PUSH1 0x60 SWAP2 POP JUMPDEST POP SWAP2 POP SWAP2 POP DUP2 DUP1 ISZERO PUSH2 0xFBC JUMPI POP PUSH1 0x0 DUP2 MLOAD EQ DUP1 PUSH2 0xFBB JUMPI POP DUP1 DUP1 PUSH1 0x20 ADD SWAP1 MLOAD DUP2 ADD SWAP1 PUSH2 0xFBA SWAP2 SWAP1 PUSH2 0x1305 JUMP JUMPDEST JUMPDEST JUMPDEST PUSH2 0xFFB JUMPI PUSH1 0x40 MLOAD PUSH32 0x8C379A000000000000000000000000000000000000000000000000000000000 DUP2 MSTORE PUSH1 0x4 ADD PUSH2 0xFF2 SWAP1 PUSH2 0x17A0 JUMP JUMPDEST PUSH1 0x40 MLOAD DUP1 SWAP2 SUB SWAP1 REVERT JUMPDEST POP POP POP POP POP JUMP JUMPDEST PUSH1 0x0 PUSH2 0x1064 DUP3 PUSH1 0x40 MLOAD DUP1 PUSH1 0x40 ADD PUSH1 0x40 MSTORE DUP1 PUSH1 0x20 DUP2 MSTORE PUSH1 0x20 ADD PUSH32 0x5361666545524332303A206C6F772D6C6576656C2063616C6C206661696C6564 DUP2 MSTORE POP DUP6 PUSH20 0xFFFFFFFFFFFFFFFFFFFFFFFFFFFFFFFFFFFFFFFF AND PUSH2 0x10C9 SWAP1 SWAP3 SWAP2 SWAP1 PUSH4 0xFFFFFFFF AND JUMP JUMPDEST SWAP1 POP PUSH1 0x0 DUP2 MLOAD GT ISZERO PUSH2 0x10C4 JUMPI DUP1 DUP1 PUSH1 0x20 ADD SWAP1 MLOAD DUP2 ADD SWAP1 PUSH2 0x1084 SWAP2 SWAP1 PUSH2 0x1305 JUMP JUMPDEST PUSH2 0x10C3 JUMPI PUSH1 0x40 MLOAD PUSH32 0x8C379A000000000000000000000000000000000000000000000000000000000 DUP2 MSTORE PUSH1 0x4 ADD PUSH2 0x10BA SWAP1 PUSH2 0x17C0 JUMP JUMPDEST PUSH1 0x40 MLOAD DUP1 SWAP2 SUB SWAP1 REVERT JUMPDEST JUMPDEST POP POP POP JUMP JUMPDEST PUSH1 0x60 PUSH2 0x10D8 DUP5 DUP5 PUSH1 0x0 DUP6 PUSH2 0x10E1 JUMP JUMPDEST SWAP1 POP SWAP4 SWAP3 POP POP POP JUMP JUMPDEST PUSH1 0x60 DUP3 SELFBALANCE LT ISZERO PUSH2 0x1126 JUMPI PUSH1 0x40 MLOAD PUSH32 0x8C379A000000000000000000000000000000000000000000000000000000000 DUP2 MSTORE PUSH1 0x4 ADD PUSH2 0x111D SWAP1 PUSH2 0x16E0 JUMP JUMPDEST PUSH1 0x40 MLOAD DUP1 SWAP2 SUB SWAP1 REVERT JUMPDEST PUSH2 0x112F DUP6 PUSH2 0x11F5 JUMP JUMPDEST PUSH2 0x116E JUMPI PUSH1 0x40 MLOAD PUSH32 0x8C379A000000000000000000000000000000000000000000000000000000000 DUP2 MSTORE PUSH1 0x4 ADD PUSH2 0x1165 SWAP1 PUSH2 0x1780 JUMP JUMPDEST PUSH1 0x40 MLOAD DUP1 SWAP2 SUB SWAP1 REVERT JUMPDEST PUSH1 0x0 DUP1 DUP7 PUSH20 0xFFFFFFFFFFFFFFFFFFFFFFFFFFFFFFFFFFFFFFFF AND DUP6 DUP8 PUSH1 0x40 MLOAD PUSH2 0x1197 SWAP2 SWAP1 PUSH2 0x15D1 JUMP JUMPDEST PUSH1 0x0 PUSH1 0x40 MLOAD DUP1 DUP4 SUB DUP2 DUP6 DUP8 GAS CALL SWAP3 POP POP POP RETURNDATASIZE DUP1 PUSH1 0x0 DUP2 EQ PUSH2 0x11D4 JUMPI PUSH1 0x40 MLOAD SWAP2 POP PUSH1 0x1F NOT PUSH1 0x3F RETURNDATASIZE ADD AND DUP3 ADD PUSH1 0x40 MSTORE RETURNDATASIZE DUP3 MSTORE RETURNDATASIZE PUSH1 0x0 PUSH1 0x20 DUP5 ADD RETURNDATACOPY PUSH2 0x11D9 JUMP JUMPDEST PUSH1 0x60 SWAP2 POP JUMPDEST POP SWAP2 POP SWAP2 POP PUSH2 0x11E9 DUP3 DUP3 DUP7 PUSH2 0x1208 JUMP JUMPDEST SWAP3 POP POP POP SWAP5 SWAP4 POP POP POP POP JUMP JUMPDEST PUSH1 0x0 DUP1 DUP3 EXTCODESIZE SWAP1 POP PUSH1 0x0 DUP2 GT SWAP2 POP POP SWAP2 SWAP1 POP JUMP JUMPDEST PUSH1 0x60 DUP4 ISZERO PUSH2 0x1218 JUMPI DUP3 SWAP1 POP PUSH2 0x1268 JUMP JUMPDEST PUSH1 0x0 DUP4 MLOAD GT ISZERO PUSH2 0x122B JUMPI DUP3 MLOAD DUP1 DUP5 PUSH1 0x20 ADD REVERT JUMPDEST DUP2 PUSH1 0x40 MLOAD PUSH32 0x8C379A000000000000000000000000000000000000000000000000000000000 DUP2 MSTORE PUSH1 0x4 ADD PUSH2 0x125F SWAP2 SWAP1 PUSH2 0x167E JUMP JUMPDEST PUSH1 0x40 MLOAD DUP1 SWAP2 SUB SWAP1 REVERT JUMPDEST SWAP4 SWAP3 POP POP POP JUMP JUMPDEST PUSH1 0x0 DUP2 CALLDATALOAD SWAP1 POP PUSH2 0x127E DUP2 PUSH2 0x1DFD JUMP JUMPDEST SWAP3 SWAP2 POP POP JUMP JUMPDEST PUSH1 0x0 DUP2 MLOAD SWAP1 POP PUSH2 0x1293 DUP2 PUSH2 0x1E14 JUMP JUMPDEST SWAP3 SWAP2 POP POP JUMP JUMPDEST PUSH1 0x0 DUP2 CALLDATALOAD SWAP1 POP PUSH2 0x12A8 DUP2 PUSH2 0x1E2B JUMP JUMPDEST SWAP3 SWAP2 POP POP JUMP JUMPDEST PUSH1 0x0 DUP2 CALLDATALOAD SWAP1 POP PUSH2 0x12BD DUP2 PUSH2 0x1E42 JUMP JUMPDEST SWAP3 SWAP2 POP POP JUMP JUMPDEST PUSH1 0x0 DUP2 MLOAD SWAP1 POP PUSH2 0x12D2 DUP2 PUSH2 0x1E42 JUMP JUMPDEST SWAP3 SWAP2 POP POP JUMP JUMPDEST PUSH1 0x0 PUSH1 0x20 DUP3 DUP5 SUB SLT ISZERO PUSH2 0x12EE JUMPI PUSH2 0x12ED PUSH2 0x1A5C JUMP JUMPDEST JUMPDEST PUSH1 0x0 PUSH2 0x12FC DUP5 DUP3 DUP6 ADD PUSH2 0x126F JUMP JUMPDEST SWAP2 POP POP SWAP3 SWAP2 POP POP JUMP JUMPDEST PUSH1 0x0 PUSH1 0x20 DUP3 DUP5 SUB SLT ISZERO PUSH2 0x131B JUMPI PUSH2 0x131A PUSH2 0x1A5C JUMP JUMPDEST JUMPDEST PUSH1 0x0 PUSH2 0x1329 DUP5 DUP3 DUP6 ADD PUSH2 0x1284 JUMP JUMPDEST SWAP2 POP POP SWAP3 SWAP2 POP POP JUMP JUMPDEST PUSH1 0x0 PUSH1 0x20 DUP3 DUP5 SUB SLT ISZERO PUSH2 0x1348 JUMPI PUSH2 0x1347 PUSH2 0x1A5C JUMP JUMPDEST JUMPDEST PUSH1 0x0 PUSH2 0x1356 DUP5 DUP3 DUP6 ADD PUSH2 0x1299 JUMP JUMPDEST SWAP2 POP POP SWAP3 SWAP2 POP POP JUMP JUMPDEST PUSH1 0x0 PUSH1 0x20 DUP3 DUP5 SUB SLT ISZERO PUSH2 0x1375 JUMPI PUSH2 0x1374 PUSH2 0x1A5C JUMP JUMPDEST JUMPDEST PUSH1 0x0 PUSH2 0x1383 DUP5 DUP3 DUP6 ADD PUSH2 0x12AE JUMP JUMPDEST SWAP2 POP POP SWAP3 SWAP2 POP POP JUMP JUMPDEST PUSH1 0x0 PUSH1 0x20 DUP3 DUP5 SUB SLT ISZERO PUSH2 0x13A2 JUMPI PUSH2 0x13A1 PUSH2 0x1A5C JUMP JUMPDEST JUMPDEST PUSH1 0x0 PUSH2 0x13B0 DUP5 DUP3 DUP6 ADD PUSH2 0x12C3 JUMP JUMPDEST SWAP2 POP POP SWAP3 SWAP2 POP POP JUMP JUMPDEST PUSH2 0x13C2 DUP2 PUSH2 0x190C JUMP JUMPDEST DUP3 MSTORE POP POP JUMP JUMPDEST PUSH1 0x0 PUSH2 0x13D3 DUP3 PUSH2 0x181B JUMP JUMPDEST PUSH2 0x13DD DUP2 DUP6 PUSH2 0x1831 JUMP JUMPDEST SWAP4 POP PUSH2 0x13ED DUP2 DUP6 PUSH1 0x20 DUP7 ADD PUSH2 0x199C JUMP JUMPDEST DUP1 DUP5 ADD SWAP2 POP POP SWAP3 SWAP2 POP POP JUMP JUMPDEST PUSH2 0x1402 DUP2 PUSH2 0x1966 JUMP JUMPDEST DUP3 MSTORE POP POP JUMP JUMPDEST PUSH1 0x0 PUSH2 0x1413 DUP3 PUSH2 0x1826 JUMP JUMPDEST PUSH2 0x141D DUP2 DUP6 PUSH2 0x183C JUMP JUMPDEST SWAP4 POP PUSH2 0x142D DUP2 DUP6 PUSH1 0x20 DUP7 ADD PUSH2 0x199C JUMP JUMPDEST PUSH2 0x1436 DUP2 PUSH2 0x1A61 JUMP JUMPDEST DUP5 ADD SWAP2 POP POP SWAP3 SWAP2 POP POP JUMP JUMPDEST PUSH1 0x0 PUSH2 0x144E PUSH1 0x26 DUP4 PUSH2 0x183C JUMP JUMPDEST SWAP2 POP PUSH2 0x1459 DUP3 PUSH2 0x1A72 JUMP JUMPDEST PUSH1 0x40 DUP3 ADD SWAP1 POP SWAP2 SWAP1 POP JUMP JUMPDEST PUSH1 0x0 PUSH2 0x1471 PUSH1 0x34 DUP4 PUSH2 0x183C JUMP JUMPDEST SWAP2 POP PUSH2 0x147C DUP3 PUSH2 0x1AC1 JUMP JUMPDEST PUSH1 0x40 DUP3 ADD SWAP1 POP SWAP2 SWAP1 POP JUMP JUMPDEST PUSH1 0x0 PUSH2 0x1494 PUSH1 0x26 DUP4 PUSH2 0x183C JUMP JUMPDEST SWAP2 POP PUSH2 0x149F DUP3 PUSH2 0x1B10 JUMP JUMPDEST PUSH1 0x40 DUP3 ADD SWAP1 POP SWAP2 SWAP1 POP JUMP JUMPDEST PUSH1 0x0 PUSH2 0x14B7 PUSH1 0x46 DUP4 PUSH2 0x183C JUMP JUMPDEST SWAP2 POP PUSH2 0x14C2 DUP3 PUSH2 0x1B5F JUMP JUMPDEST PUSH1 0x60 DUP3 ADD SWAP1 POP SWAP2 SWAP1 POP JUMP JUMPDEST PUSH1 0x0 PUSH2 0x14DA PUSH1 0x77 DUP4 PUSH2 0x183C JUMP JUMPDEST SWAP2 POP PUSH2 0x14E5 DUP3 PUSH2 0x1BD4 JUMP JUMPDEST PUSH1 0x80 DUP3 ADD SWAP1 POP SWAP2 SWAP1 POP JUMP JUMPDEST PUSH1 0x0 PUSH2 0x14FD PUSH1 0x20 DUP4 PUSH2 0x183C JUMP JUMPDEST SWAP2 POP PUSH2 0x1508 DUP3 PUSH2 0x1C6F JUMP JUMPDEST PUSH1 0x20 DUP3 ADD SWAP1 POP SWAP2 SWAP1 POP JUMP JUMPDEST PUSH1 0x0 PUSH2 0x1520 PUSH1 0x35 DUP4 PUSH2 0x183C JUMP JUMPDEST SWAP2 POP PUSH2 0x152B DUP3 PUSH2 0x1C98 JUMP JUMPDEST PUSH1 0x40 DUP3 ADD SWAP1 POP SWAP2 SWAP1 POP JUMP JUMPDEST PUSH1 0x0 PUSH2 0x1543 PUSH1 0x1D DUP4 PUSH2 0x183C JUMP JUMPDEST SWAP2 POP PUSH2 0x154E DUP3 PUSH2 0x1CE7 JUMP JUMPDEST PUSH1 0x20 DUP3 ADD SWAP1 POP SWAP2 SWAP1 POP JUMP JUMPDEST PUSH1 0x0 PUSH2 0x1566 PUSH1 0x2D DUP4 PUSH2 0x183C JUMP JUMPDEST SWAP2 POP PUSH2 0x1571 DUP3 PUSH2 0x1D10 JUMP JUMPDEST PUSH1 0x40 DUP3 ADD SWAP1 POP SWAP2 SWAP1 POP JUMP JUMPDEST PUSH1 0x0 PUSH2 0x1589 PUSH1 0x2A DUP4 PUSH2 0x183C JUMP JUMPDEST SWAP2 POP PUSH2 0x1594 DUP3 PUSH2 0x1D5F JUMP JUMPDEST PUSH1 0x40 DUP3 ADD SWAP1 POP SWAP2 SWAP1 POP JUMP JUMPDEST PUSH1 0x0 PUSH2 0x15AC PUSH1 0x34 DUP4 PUSH2 0x183C JUMP JUMPDEST SWAP2 POP PUSH2 0x15B7 DUP3 PUSH2 0x1DAE JUMP JUMPDEST PUSH1 0x40 DUP3 ADD SWAP1 POP SWAP2 SWAP1 POP JUMP JUMPDEST PUSH2 0x15CB DUP2 PUSH2 0x195C JUMP JUMPDEST DUP3 MSTORE POP POP JUMP JUMPDEST PUSH1 0x0 PUSH2 0x15DD DUP3 DUP5 PUSH2 0x13C8 JUMP JUMPDEST SWAP2 POP DUP2 SWAP1 POP SWAP3 SWAP2 POP POP JUMP JUMPDEST PUSH1 0x0 PUSH1 0x20 DUP3 ADD SWAP1 POP PUSH2 0x15FD PUSH1 0x0 DUP4 ADD DUP5 PUSH2 0x13B9 JUMP JUMPDEST SWAP3 SWAP2 POP POP JUMP JUMPDEST PUSH1 0x0 PUSH1 0x60 DUP3 ADD SWAP1 POP PUSH2 0x1618 PUSH1 0x0 DUP4 ADD DUP7 PUSH2 0x13B9 JUMP JUMPDEST PUSH2 0x1625 PUSH1 0x20 DUP4 ADD DUP6 PUSH2 0x13B9 JUMP JUMPDEST PUSH2 0x1632 PUSH1 0x40 DUP4 ADD DUP5 PUSH2 0x15C2 JUMP JUMPDEST SWAP5 SWAP4 POP POP POP POP JUMP JUMPDEST PUSH1 0x0 PUSH1 0x40 DUP3 ADD SWAP1 POP PUSH2 0x164F PUSH1 0x0 DUP4 ADD DUP6 PUSH2 0x13B9 JUMP JUMPDEST PUSH2 0x165C PUSH1 0x20 DUP4 ADD DUP5 PUSH2 0x15C2 JUMP JUMPDEST SWAP4 SWAP3 POP POP POP JUMP JUMPDEST PUSH1 0x0 PUSH1 0x20 DUP3 ADD SWAP1 POP PUSH2 0x1678 PUSH1 0x0 DUP4 ADD DUP5 PUSH2 0x13F9 JUMP JUMPDEST SWAP3 SWAP2 POP POP JUMP JUMPDEST PUSH1 0x0 PUSH1 0x20 DUP3 ADD SWAP1 POP DUP2 DUP2 SUB PUSH1 0x0 DUP4 ADD MSTORE PUSH2 0x1698 DUP2 DUP5 PUSH2 0x1408 JUMP JUMPDEST SWAP1 POP SWAP3 SWAP2 POP POP JUMP JUMPDEST PUSH1 0x0 PUSH1 0x20 DUP3 ADD SWAP1 POP DUP2 DUP2 SUB PUSH1 0x0 DUP4 ADD MSTORE PUSH2 0x16B9 DUP2 PUSH2 0x1441 JUMP JUMPDEST SWAP1 POP SWAP2 SWAP1 POP JUMP JUMPDEST PUSH1 0x0 PUSH1 0x20 DUP3 ADD SWAP1 POP DUP2 DUP2 SUB PUSH1 0x0 DUP4 ADD MSTORE PUSH2 0x16D9 DUP2 PUSH2 0x1464 JUMP JUMPDEST SWAP1 POP SWAP2 SWAP1 POP JUMP JUMPDEST PUSH1 0x0 PUSH1 0x20 DUP3 ADD SWAP1 POP DUP2 DUP2 SUB PUSH1 0x0 DUP4 ADD MSTORE PUSH2 0x16F9 DUP2 PUSH2 0x1487 JUMP JUMPDEST SWAP1 POP SWAP2 SWAP1 POP JUMP JUMPDEST PUSH1 0x0 PUSH1 0x20 DUP3 ADD SWAP1 POP DUP2 DUP2 SUB PUSH1 0x0 DUP4 ADD MSTORE PUSH2 0x1719 DUP2 PUSH2 0x14AA JUMP JUMPDEST SWAP1 POP SWAP2 SWAP1 POP JUMP JUMPDEST PUSH1 0x0 PUSH1 0x20 DUP3 ADD SWAP1 POP DUP2 DUP2 SUB PUSH1 0x0 DUP4 ADD MSTORE PUSH2 0x1739 DUP2 PUSH2 0x14CD JUMP JUMPDEST SWAP1 POP SWAP2 SWAP1 POP JUMP JUMPDEST PUSH1 0x0 PUSH1 0x20 DUP3 ADD SWAP1 POP DUP2 DUP2 SUB PUSH1 0x0 DUP4 ADD MSTORE PUSH2 0x1759 DUP2 PUSH2 0x14F0 JUMP JUMPDEST SWAP1 POP SWAP2 SWAP1 POP JUMP JUMPDEST PUSH1 0x0 PUSH1 0x20 DUP3 ADD SWAP1 POP DUP2 DUP2 SUB PUSH1 0x0 DUP4 ADD MSTORE PUSH2 0x1779 DUP2 PUSH2 0x1513 JUMP JUMPDEST SWAP1 POP SWAP2 SWAP1 POP JUMP JUMPDEST PUSH1 0x0 PUSH1 0x20 DUP3 ADD SWAP1 POP DUP2 DUP2 SUB PUSH1 0x0 DUP4 ADD MSTORE PUSH2 0x1799 DUP2 PUSH2 0x1536 JUMP JUMPDEST SWAP1 POP SWAP2 SWAP1 POP JUMP JUMPDEST PUSH1 0x0 PUSH1 0x20 DUP3 ADD SWAP1 POP DUP2 DUP2 SUB PUSH1 0x0 DUP4 ADD MSTORE PUSH2 0x17B9 DUP2 PUSH2 0x1559 JUMP JUMPDEST SWAP1 POP SWAP2 SWAP1 POP JUMP JUMPDEST PUSH1 0x0 PUSH1 0x20 DUP3 ADD SWAP1 POP DUP2 DUP2 SUB PUSH1 0x0 DUP4 ADD MSTORE PUSH2 0x17D9 DUP2 PUSH2 0x157C JUMP JUMPDEST SWAP1 POP SWAP2 SWAP1 POP JUMP JUMPDEST PUSH1 0x0 PUSH1 0x20 DUP3 ADD SWAP1 POP DUP2 DUP2 SUB PUSH1 0x0 DUP4 ADD MSTORE PUSH2 0x17F9 DUP2 PUSH2 0x159F JUMP JUMPDEST SWAP1 POP SWAP2 SWAP1 POP JUMP JUMPDEST PUSH1 0x0 PUSH1 0x20 DUP3 ADD SWAP1 POP PUSH2 0x1815 PUSH1 0x0 DUP4 ADD DUP5 PUSH2 0x15C2 JUMP JUMPDEST SWAP3 SWAP2 POP POP JUMP JUMPDEST PUSH1 0x0 DUP2 MLOAD SWAP1 POP SWAP2 SWAP1 POP JUMP JUMPDEST PUSH1 0x0 DUP2 MLOAD SWAP1 POP SWAP2 SWAP1 POP JUMP JUMPDEST PUSH1 0x0 DUP2 SWAP1 POP SWAP3 SWAP2 POP POP JUMP JUMPDEST PUSH1 0x0 DUP3 DUP3 MSTORE PUSH1 0x20 DUP3 ADD SWAP1 POP SWAP3 SWAP2 POP POP JUMP JUMPDEST PUSH1 0x0 PUSH2 0x1858 DUP3 PUSH2 0x195C JUMP JUMPDEST SWAP2 POP PUSH2 0x1863 DUP4 PUSH2 0x195C JUMP JUMPDEST SWAP3 POP DUP3 PUSH2 0x1873 JUMPI PUSH2 0x1872 PUSH2 0x19FE JUMP JUMPDEST JUMPDEST DUP3 DUP3 DIV SWAP1 POP SWAP3 SWAP2 POP POP JUMP JUMPDEST PUSH1 0x0 PUSH2 0x1889 DUP3 PUSH2 0x195C JUMP JUMPDEST SWAP2 POP PUSH2 0x1894 DUP4 PUSH2 0x195C JUMP JUMPDEST SWAP3 POP DUP2 PUSH32 0xFFFFFFFFFFFFFFFFFFFFFFFFFFFFFFFFFFFFFFFFFFFFFFFFFFFFFFFFFFFFFFFF DIV DUP4 GT DUP3 ISZERO ISZERO AND ISZERO PUSH2 0x18CD JUMPI PUSH2 0x18CC PUSH2 0x19CF JUMP JUMPDEST JUMPDEST DUP3 DUP3 MUL SWAP1 POP SWAP3 SWAP2 POP POP JUMP JUMPDEST PUSH1 0x0 PUSH2 0x18E3 DUP3 PUSH2 0x195C JUMP JUMPDEST SWAP2 POP PUSH2 0x18EE DUP4 PUSH2 0x195C JUMP JUMPDEST SWAP3 POP DUP3 DUP3 LT ISZERO PUSH2 0x1901 JUMPI PUSH2 0x1900 PUSH2 0x19CF JUMP JUMPDEST JUMPDEST DUP3 DUP3 SUB SWAP1 POP SWAP3 SWAP2 POP POP JUMP JUMPDEST PUSH1 0x0 PUSH2 0x1917 DUP3 PUSH2 0x193C JUMP JUMPDEST SWAP1 POP SWAP2 SWAP1 POP JUMP JUMPDEST PUSH1 0x0 DUP2 ISZERO ISZERO SWAP1 POP SWAP2 SWAP1 POP JUMP JUMPDEST PUSH1 0x0 PUSH2 0x1935 DUP3 PUSH2 0x190C JUMP JUMPDEST SWAP1 POP SWAP2 SWAP1 POP JUMP JUMPDEST PUSH1 0x0 PUSH20 0xFFFFFFFFFFFFFFFFFFFFFFFFFFFFFFFFFFFFFFFF DUP3 AND SWAP1 POP SWAP2 SWAP1 POP JUMP JUMPDEST PUSH1 0x0 DUP2 SWAP1 POP SWAP2 SWAP1 POP JUMP JUMPDEST PUSH1 0x0 PUSH2 0x1971 DUP3 PUSH2 0x1978 JUMP JUMPDEST SWAP1 POP SWAP2 SWAP1 POP JUMP JUMPDEST PUSH1 0x0 PUSH2 0x1983 DUP3 PUSH2 0x198A JUMP JUMPDEST SWAP1 POP SWAP2 SWAP1 POP JUMP JUMPDEST PUSH1 0x0 PUSH2 0x1995 DUP3 PUSH2 0x193C JUMP JUMPDEST SWAP1 POP SWAP2 SWAP1 POP JUMP JUMPDEST PUSH1 0x0 JUMPDEST DUP4 DUP2 LT ISZERO PUSH2 0x19BA JUMPI DUP1 DUP3 ADD MLOAD DUP2 DUP5 ADD MSTORE PUSH1 0x20 DUP2 ADD SWAP1 POP PUSH2 0x199F JUMP JUMPDEST DUP4 DUP2 GT ISZERO PUSH2 0x19C9 JUMPI PUSH1 0x0 DUP5 DUP5 ADD MSTORE JUMPDEST POP POP POP POP JUMP JUMPDEST PUSH32 0x4E487B7100000000000000000000000000000000000000000000000000000000 PUSH1 0x0 MSTORE PUSH1 0x11 PUSH1 0x4 MSTORE PUSH1 0x24 PUSH1 0x0 REVERT JUMPDEST PUSH32 0x4E487B7100000000000000000000000000000000000000000000000000000000 PUSH1 0x0 MSTORE PUSH1 0x12 PUSH1 0x4 MSTORE PUSH1 0x24 PUSH1 0x0 REVERT JUMPDEST PUSH32 0x4E487B7100000000000000000000000000000000000000000000000000000000 PUSH1 0x0 MSTORE PUSH1 0x41 PUSH1 0x4 MSTORE PUSH1 0x24 PUSH1 0x0 REVERT JUMPDEST PUSH1 0x0 DUP1 REVERT JUMPDEST PUSH1 0x0 PUSH1 0x1F NOT PUSH1 0x1F DUP4 ADD AND SWAP1 POP SWAP2 SWAP1 POP JUMP JUMPDEST PUSH32 0x4F776E61626C653A206E6577206F776E657220697320746865207A65726F2061 PUSH1 0x0 DUP3 ADD MSTORE PUSH32 0x6464726573730000000000000000000000000000000000000000000000000000 PUSH1 0x20 DUP3 ADD MSTORE POP JUMP JUMPDEST PUSH32 0x5472616E7366657248656C7065723A3A736166655472616E736665724554483A PUSH1 0x0 DUP3 ADD MSTORE PUSH32 0x20455448207472616E73666572206661696C6564000000000000000000000000 PUSH1 0x20 DUP3 ADD MSTORE POP JUMP JUMPDEST PUSH32 0x416464726573733A20696E73756666696369656E742062616C616E636520666F PUSH1 0x0 DUP3 ADD MSTORE PUSH32 0x722063616C6C0000000000000000000000000000000000000000000000000000 PUSH1 0x20 DUP3 ADD MSTORE POP JUMP JUMPDEST PUSH32 0x41424F41543A3A757064617465526577617264546F6B656E3A204E6577207265 PUSH1 0x0 DUP3 ADD MSTORE PUSH32 0x776172642073686F756C6420626520646966666572656E742066726F6D206375 PUSH1 0x20 DUP3 ADD MSTORE PUSH32 0x7272656E742E0000000000000000000000000000000000000000000000000000 PUSH1 0x40 DUP3 ADD MSTORE POP JUMP JUMPDEST PUSH32 0x41424F41543A3A757064617465526577617264546F6B656E3A2054686520636F PUSH1 0x0 DUP3 ADD MSTORE PUSH32 0x6E74726163742073686F756C6420636F6E7461696E2061746C65617374207468 PUSH1 0x20 DUP3 ADD MSTORE PUSH32 0x652073616D6520616D6F756E74206F6620746F6B656E732061732066726F6D20 PUSH1 0x40 DUP3 ADD MSTORE PUSH32 0x7468652063757272656E7420726577617264546F6B656E000000000000000000 PUSH1 0x60 DUP3 ADD MSTORE POP JUMP JUMPDEST PUSH32 0x4F776E61626C653A2063616C6C6572206973206E6F7420746865206F776E6572 PUSH1 0x0 DUP3 ADD MSTORE POP JUMP JUMPDEST PUSH32 0x41424F41543A3A6275793A20416D6F756E7420776F756C642065786365656420 PUSH1 0x0 DUP3 ADD MSTORE PUSH32 0x7468652072656D61696E696E672062616C616E63650000000000000000000000 PUSH1 0x20 DUP3 ADD MSTORE POP JUMP JUMPDEST PUSH32 0x416464726573733A2063616C6C20746F206E6F6E2D636F6E7472616374000000 PUSH1 0x0 DUP3 ADD MSTORE POP JUMP JUMPDEST PUSH32 0x5472616E7366657248656C7065723A3A736166655472616E736665723A207472 PUSH1 0x0 DUP3 ADD MSTORE PUSH32 0x616E73666572206661696C656400000000000000000000000000000000000000 PUSH1 0x20 DUP3 ADD MSTORE POP JUMP JUMPDEST PUSH32 0x5361666545524332303A204552433230206F7065726174696F6E20646964206E PUSH1 0x0 DUP3 ADD MSTORE PUSH32 0x6F74207375636365656400000000000000000000000000000000000000000000 PUSH1 0x20 DUP3 ADD MSTORE POP JUMP JUMPDEST PUSH32 0x41424F41543A3A6275793A2053656E742076616C756520646F65736E2774206D PUSH1 0x0 DUP3 ADD MSTORE PUSH32 0x6565742074686520676976656E20616D6F756E74000000000000000000000000 PUSH1 0x20 DUP3 ADD MSTORE POP JUMP JUMPDEST PUSH2 0x1E06 DUP2 PUSH2 0x190C JUMP JUMPDEST DUP2 EQ PUSH2 0x1E11 JUMPI PUSH1 0x0 DUP1 REVERT JUMPDEST POP JUMP JUMPDEST PUSH2 0x1E1D DUP2 PUSH2 0x191E JUMP JUMPDEST DUP2 EQ PUSH2 0x1E28 JUMPI PUSH1 0x0 DUP1 REVERT JUMPDEST POP JUMP JUMPDEST PUSH2 0x1E34 DUP2 PUSH2 0x192A JUMP JUMPDEST DUP2 EQ PUSH2 0x1E3F JUMPI PUSH1 0x0 DUP1 REVERT JUMPDEST POP JUMP JUMPDEST PUSH2 0x1E4B DUP2 PUSH2 0x195C JUMP JUMPDEST DUP2 EQ PUSH2 0x1E56 JUMPI PUSH1 0x0 DUP1 REVERT JUMPDEST POP JUMP INVALID LOG2 PUSH5 0x6970667358 0x22 SLT KECCAK256 0x22 0xE8 0xCC PUSH3 0x6DBEC3 0xCC 0xE1 0x22 0x49 0x2B 0xC1 DUP13 0xC8 NOT DUP11 0x26 0xEE 0xBF SWAP14 0x2D LOG3 0x23 0xCE 0xC5 SWAP2 0xB6 INVALID PUSH3 0xDD2764 PUSH20 0x6F6C634300080700330000000000000000000000 "
				},
				"gasEstimates": {
					"creation": {
						"codeDepositCost": "1564600",
						"executionCost": "infinite",
						"totalCost": "infinite"
					},
					"external": {
						"bought(address)": "2859",
						"buy(uint256)": "infinite",
						"claimed(address)": "2859",
						"claimedTokens(address)": "2837",
						"getRemainingBalance()": "infinite",
						"lastClaimAddress(address)": "infinite",
						"owner()": "2633",
						"paymentToken()": "2623",
						"pricePerToken()": "2518",
						"renounceOwnership()": "30441",
						"rewardToken()": "2666",
						"transferOwnership(address)": "30745",
						"updateRewardToken(address)": "infinite"
					}
				},
				"methodIdentifiers": {
					"bought(address)": "667022fd",
					"buy(uint256)": "d96a094a",
					"claimed(address)": "c884ef83",
					"claimedTokens(address)": "a960c65f",
					"getRemainingBalance()": "2fba2c85",
					"lastClaimAddress(address)": "f3739e05",
					"owner()": "8da5cb5b",
					"paymentToken()": "3013ce29",
					"pricePerToken()": "7b1b1de6",
					"renounceOwnership()": "715018a6",
					"rewardToken()": "f7c618c1",
					"transferOwnership(address)": "f2fde38b",
					"updateRewardToken(address)": "f8cf31cb"
				}
			},
			"storageLayout": {
				"storage": [
					{
						"astId": 7,
						"contract": "contracts/PreSale.sol:PreSale",
						"label": "_owner",
						"offset": 0,
						"slot": "0",
						"type": "t_address"
					},
					{
						"astId": 1058,
						"contract": "contracts/PreSale.sol:PreSale",
						"label": "rewardToken",
						"offset": 0,
						"slot": "1",
						"type": "t_contract(IERC20)181"
					},
					{
						"astId": 1061,
						"contract": "contracts/PreSale.sol:PreSale",
						"label": "paymentToken",
						"offset": 0,
						"slot": "2",
						"type": "t_contract(IERC20)181"
					},
					{
						"astId": 1063,
						"contract": "contracts/PreSale.sol:PreSale",
						"label": "pricePerToken",
						"offset": 0,
						"slot": "3",
						"type": "t_uint256"
					},
					{
						"astId": 1067,
						"contract": "contracts/PreSale.sol:PreSale",
						"label": "bought",
						"offset": 0,
						"slot": "4",
						"type": "t_mapping(t_address,t_uint256)"
					},
					{
						"astId": 1071,
						"contract": "contracts/PreSale.sol:PreSale",
						"label": "claimed",
						"offset": 0,
						"slot": "5",
						"type": "t_mapping(t_address,t_uint256)"
					},
					{
						"astId": 1075,
						"contract": "contracts/PreSale.sol:PreSale",
						"label": "claimedTokens",
						"offset": 0,
						"slot": "6",
						"type": "t_mapping(t_address,t_uint256)"
					},
					{
						"astId": 1079,
						"contract": "contracts/PreSale.sol:PreSale",
						"label": "lastClaimAddress",
						"offset": 0,
						"slot": "7",
						"type": "t_mapping(t_address,t_address)"
					}
				],
				"types": {
					"t_address": {
						"encoding": "inplace",
						"label": "address",
						"numberOfBytes": "20"
					},
					"t_contract(IERC20)181": {
						"encoding": "inplace",
						"label": "contract IERC20",
						"numberOfBytes": "20"
					},
					"t_mapping(t_address,t_address)": {
						"encoding": "mapping",
						"key": "t_address",
						"label": "mapping(address => address)",
						"numberOfBytes": "32",
						"value": "t_address"
					},
					"t_mapping(t_address,t_uint256)": {
						"encoding": "mapping",
						"key": "t_address",
						"label": "mapping(address => uint256)",
						"numberOfBytes": "32",
						"value": "t_uint256"
					},
					"t_uint256": {
						"encoding": "inplace",
						"label": "uint256",
						"numberOfBytes": "32"
					}
				}
			},
			"userdoc": {
				"kind": "user",
				"methods": {},
				"version": 1
			}
		}
	}
}