{
	"contracts/Multichain.sol": {
		"Multichain": {
			"abi": [
				{
					"inputs": [
						{
							"internalType": "contract IERC20",
							"name": "token",
							"type": "address"
						}
					],
					"stateMutability": "nonpayable",
					"type": "constructor"
				},
				{
					"anonymous": false,
					"inputs": [
						{
							"indexed": false,
							"internalType": "uint16",
							"name": "originalChain",
							"type": "uint16"
						},
						{
							"indexed": false,
							"internalType": "uint256",
							"name": "amount",
							"type": "uint256"
						},
						{
							"indexed": false,
							"internalType": "address",
							"name": "user",
							"type": "address"
						},
						{
							"indexed": false,
							"internalType": "uint256",
							"name": "originalSwapId",
							"type": "uint256"
						}
					],
					"name": "CompleteChainTransfer",
					"type": "event"
				},
				{
					"anonymous": false,
					"inputs": [
						{
							"indexed": false,
							"internalType": "uint16",
							"name": "targetChain",
							"type": "uint16"
						},
						{
							"indexed": false,
							"internalType": "uint256",
							"name": "amount",
							"type": "uint256"
						},
						{
							"indexed": false,
							"internalType": "address",
							"name": "user",
							"type": "address"
						}
					],
					"name": "InitChainTransfer",
					"type": "event"
				},
				{
					"anonymous": false,
					"inputs": [
						{
							"indexed": true,
							"internalType": "address",
							"name": "previousOwner",
							"type": "address"
						},
						{
							"indexed": true,
							"internalType": "address",
							"name": "newOwner",
							"type": "address"
						}
					],
					"name": "OwnershipTransferred",
					"type": "event"
				},
				{
					"inputs": [],
					"name": "owner",
					"outputs": [
						{
							"internalType": "address",
							"name": "",
							"type": "address"
						}
					],
					"stateMutability": "view",
					"type": "function"
				},
				{
					"inputs": [],
					"name": "renounceOwnership",
					"outputs": [],
					"stateMutability": "nonpayable",
					"type": "function"
				},
				{
					"inputs": [
						{
							"internalType": "uint256",
							"name": "amount",
							"type": "uint256"
						},
						{
							"internalType": "uint16",
							"name": "chainId",
							"type": "uint16"
						}
					],
					"name": "transferIn",
					"outputs": [
						{
							"internalType": "uint256",
							"name": "",
							"type": "uint256"
						}
					],
					"stateMutability": "nonpayable",
					"type": "function"
				},
				{
					"inputs": [
						{
							"internalType": "uint256",
							"name": "amount",
							"type": "uint256"
						},
						{
							"internalType": "uint16",
							"name": "chainId",
							"type": "uint16"
						},
						{
							"internalType": "uint256",
							"name": "originalSwapId",
							"type": "uint256"
						},
						{
							"internalType": "address",
							"name": "user",
							"type": "address"
						}
					],
					"name": "transferOut",
					"outputs": [],
					"stateMutability": "nonpayable",
					"type": "function"
				},
				{
					"inputs": [
						{
							"internalType": "address",
							"name": "newOwner",
							"type": "address"
						}
					],
					"name": "transferOwnership",
					"outputs": [],
					"stateMutability": "nonpayable",
					"type": "function"
				}
			],
			"devdoc": {
				"kind": "dev",
				"methods": {
					"owner()": {
						"details": "Returns the address of the current owner."
					},
					"renounceOwnership()": {
						"details": "Leaves the contract without owner. It will not be possible to call `onlyOwner` functions anymore. Can only be called by the current owner. NOTE: Renouncing ownership will leave the contract without an owner, thereby removing any functionality that is only available to the owner."
					},
					"transferOwnership(address)": {
						"details": "Transfers ownership of the contract to a new account (`newOwner`). Can only be called by the current owner."
					}
				},
				"version": 1
			},
			"evm": {
				"assembly": "    /* \"contracts/Multichain.sol\":449:2340  contract Multichain is Ownable, ReentrancyGuard{\r... */\n  mstore(0x40, 0x80)\n    /* \"contracts/Multichain.sol\":1193:1252  constructor(IERC20 token) {\r... */\n  callvalue\n  dup1\n  iszero\n  tag_1\n  jumpi\n  0x00\n  dup1\n  revert\ntag_1:\n  pop\n  mload(0x40)\n  sub(codesize, bytecodeSize)\n  dup1\n  bytecodeSize\n  dup4\n  codecopy\n  dup2\n  dup2\n  add\n  0x40\n  mstore\n  dup2\n  add\n  swap1\n  tag_2\n  swap2\n  swap1\n  tag_3\n  jump\t// in\ntag_2:\n    /* \"@openzeppelin/contracts/access/Ownable.sol\":867:890  _setOwner(_msgSender()) */\n  tag_8\n    /* \"@openzeppelin/contracts/access/Ownable.sol\":877:889  _msgSender() */\n  tag_9\n    /* \"@openzeppelin/contracts/access/Ownable.sol\":877:887  _msgSender */\n  shl(0x20, tag_10)\n    /* \"@openzeppelin/contracts/access/Ownable.sol\":877:889  _msgSender() */\n  0x20\n  shr\n  jump\t// in\ntag_9:\n    /* \"@openzeppelin/contracts/access/Ownable.sol\":867:876  _setOwner */\n  shl(0x20, tag_11)\n    /* \"@openzeppelin/contracts/access/Ownable.sol\":867:890  _setOwner(_msgSender()) */\n  0x20\n  shr\n  jump\t// in\ntag_8:\n    /* \"@openzeppelin/contracts/security/ReentrancyGuard.sol\":1637:1638  1 */\n  0x01\n    /* \"@openzeppelin/contracts/security/ReentrancyGuard.sol\":1742:1749  _status */\n  dup1\n    /* \"@openzeppelin/contracts/security/ReentrancyGuard.sol\":1742:1764  _status = _NOT_ENTERED */\n  dup2\n  swap1\n  sstore\n  pop\n    /* \"contracts/Multichain.sol\":1239:1244  token */\n  dup1\n    /* \"contracts/Multichain.sol\":1230:1236  _token */\n  0x03\n  0x00\n    /* \"contracts/Multichain.sol\":1230:1244  _token = token */\n  0x0100\n  exp\n  dup2\n  sload\n  dup2\n  0xffffffffffffffffffffffffffffffffffffffff\n  mul\n  not\n  and\n  swap1\n  dup4\n  0xffffffffffffffffffffffffffffffffffffffff\n  and\n  mul\n  or\n  swap1\n  sstore\n  pop\n    /* \"contracts/Multichain.sol\":1193:1252  constructor(IERC20 token) {\r... */\n  pop\n    /* \"contracts/Multichain.sol\":449:2340  contract Multichain is Ownable, ReentrancyGuard{\r... */\n  jump(tag_14)\n    /* \"@openzeppelin/contracts/utils/Context.sol\":586:682  function _msgSender() internal view virtual returns (address) {... */\ntag_10:\n    /* \"@openzeppelin/contracts/utils/Context.sol\":639:646  address */\n  0x00\n    /* \"@openzeppelin/contracts/utils/Context.sol\":665:675  msg.sender */\n  caller\n    /* \"@openzeppelin/contracts/utils/Context.sol\":658:675  return msg.sender */\n  swap1\n  pop\n    /* \"@openzeppelin/contracts/utils/Context.sol\":586:682  function _msgSender() internal view virtual returns (address) {... */\n  swap1\n  jump\t// out\n    /* \"@openzeppelin/contracts/access/Ownable.sol\":2041:2210  function _setOwner(address newOwner) private {... */\ntag_11:\n    /* \"@openzeppelin/contracts/access/Ownable.sol\":2096:2112  address oldOwner */\n  0x00\n    /* \"@openzeppelin/contracts/access/Ownable.sol\":2115:2121  _owner */\n  dup1\n  0x00\n  swap1\n  sload\n  swap1\n  0x0100\n  exp\n  swap1\n  div\n  0xffffffffffffffffffffffffffffffffffffffff\n  and\n    /* \"@openzeppelin/contracts/access/Ownable.sol\":2096:2121  address oldOwner = _owner */\n  swap1\n  pop\n    /* \"@openzeppelin/contracts/access/Ownable.sol\":2140:2148  newOwner */\n  dup2\n    /* \"@openzeppelin/contracts/access/Ownable.sol\":2131:2137  _owner */\n  0x00\n  dup1\n    /* \"@openzeppelin/contracts/access/Ownable.sol\":2131:2148  _owner = newOwner */\n  0x0100\n  exp\n  dup2\n  sload\n  dup2\n  0xffffffffffffffffffffffffffffffffffffffff\n  mul\n  not\n  and\n  swap1\n  dup4\n  0xffffffffffffffffffffffffffffffffffffffff\n  and\n  mul\n  or\n  swap1\n  sstore\n  pop\n    /* \"@openzeppelin/contracts/access/Ownable.sol\":2194:2202  newOwner */\n  dup2\n    /* \"@openzeppelin/contracts/access/Ownable.sol\":2163:2203  OwnershipTransferred(oldOwner, newOwner) */\n  0xffffffffffffffffffffffffffffffffffffffff\n  and\n    /* \"@openzeppelin/contracts/access/Ownable.sol\":2184:2192  oldOwner */\n  dup2\n    /* \"@openzeppelin/contracts/access/Ownable.sol\":2163:2203  OwnershipTransferred(oldOwner, newOwner) */\n  0xffffffffffffffffffffffffffffffffffffffff\n  and\n  0x8be0079c531659141344cd1fd0a4f28419497f9722a3daafe3b4186f6b6457e0\n  mload(0x40)\n  mload(0x40)\n  dup1\n  swap2\n  sub\n  swap1\n  log3\n    /* \"@openzeppelin/contracts/access/Ownable.sol\":2086:2210  {... */\n  pop\n    /* \"@openzeppelin/contracts/access/Ownable.sol\":2041:2210  function _setOwner(address newOwner) private {... */\n  pop\n  jump\t// out\n    /* \"#utility.yul\":7:178   */\ntag_18:\n    /* \"#utility.yul\":78:83   */\n  0x00\n    /* \"#utility.yul\":109:115   */\n  dup2\n    /* \"#utility.yul\":103:116   */\n  mload\n    /* \"#utility.yul\":94:116   */\n  swap1\n  pop\n    /* \"#utility.yul\":125:172   */\n  tag_20\n    /* \"#utility.yul\":166:171   */\n  dup2\n    /* \"#utility.yul\":125:172   */\n  tag_21\n  jump\t// in\ntag_20:\n    /* \"#utility.yul\":7:178   */\n  swap3\n  swap2\n  pop\n  pop\n  jump\t// out\n    /* \"#utility.yul\":184:563   */\ntag_3:\n    /* \"#utility.yul\":268:274   */\n  0x00\n    /* \"#utility.yul\":317:319   */\n  0x20\n    /* \"#utility.yul\":305:314   */\n  dup3\n    /* \"#utility.yul\":296:303   */\n  dup5\n    /* \"#utility.yul\":292:315   */\n  sub\n    /* \"#utility.yul\":288:320   */\n  slt\n    /* \"#utility.yul\":285:404   */\n  iszero\n  tag_23\n  jumpi\n    /* \"#utility.yul\":323:402   */\n  tag_24\n  tag_25\n  jump\t// in\ntag_24:\n    /* \"#utility.yul\":285:404   */\ntag_23:\n    /* \"#utility.yul\":443:444   */\n  0x00\n    /* \"#utility.yul\":468:546   */\n  tag_26\n    /* \"#utility.yul\":538:545   */\n  dup5\n    /* \"#utility.yul\":529:535   */\n  dup3\n    /* \"#utility.yul\":518:527   */\n  dup6\n    /* \"#utility.yul\":514:536   */\n  add\n    /* \"#utility.yul\":468:546   */\n  tag_18\n  jump\t// in\ntag_26:\n    /* \"#utility.yul\":458:546   */\n  swap2\n  pop\n    /* \"#utility.yul\":414:556   */\n  pop\n    /* \"#utility.yul\":184:563   */\n  swap3\n  swap2\n  pop\n  pop\n  jump\t// out\n    /* \"#utility.yul\":650:746   */\ntag_29:\n    /* \"#utility.yul\":687:694   */\n  0x00\n    /* \"#utility.yul\":716:740   */\n  tag_31\n    /* \"#utility.yul\":734:739   */\n  dup3\n    /* \"#utility.yul\":716:740   */\n  tag_32\n  jump\t// in\ntag_31:\n    /* \"#utility.yul\":705:740   */\n  swap1\n  pop\n    /* \"#utility.yul\":650:746   */\n  swap2\n  swap1\n  pop\n  jump\t// out\n    /* \"#utility.yul\":752:862   */\ntag_33:\n    /* \"#utility.yul\":803:810   */\n  0x00\n    /* \"#utility.yul\":832:856   */\n  tag_35\n    /* \"#utility.yul\":850:855   */\n  dup3\n    /* \"#utility.yul\":832:856   */\n  tag_29\n  jump\t// in\ntag_35:\n    /* \"#utility.yul\":821:856   */\n  swap1\n  pop\n    /* \"#utility.yul\":752:862   */\n  swap2\n  swap1\n  pop\n  jump\t// out\n    /* \"#utility.yul\":868:994   */\ntag_32:\n    /* \"#utility.yul\":905:912   */\n  0x00\n    /* \"#utility.yul\":945:987   */\n  0xffffffffffffffffffffffffffffffffffffffff\n    /* \"#utility.yul\":938:943   */\n  dup3\n    /* \"#utility.yul\":934:988   */\n  and\n    /* \"#utility.yul\":923:988   */\n  swap1\n  pop\n    /* \"#utility.yul\":868:994   */\n  swap2\n  swap1\n  pop\n  jump\t// out\n    /* \"#utility.yul\":1123:1240   */\ntag_25:\n    /* \"#utility.yul\":1232:1233   */\n  0x00\n    /* \"#utility.yul\":1229:1230   */\n  dup1\n    /* \"#utility.yul\":1222:1234   */\n  revert\n    /* \"#utility.yul\":1246:1396   */\ntag_21:\n    /* \"#utility.yul\":1333:1371   */\n  tag_41\n    /* \"#utility.yul\":1365:1370   */\n  dup2\n    /* \"#utility.yul\":1333:1371   */\n  tag_33\n  jump\t// in\ntag_41:\n    /* \"#utility.yul\":1326:1331   */\n  dup2\n    /* \"#utility.yul\":1323:1372   */\n  eq\n    /* \"#utility.yul\":1313:1390   */\n  tag_42\n  jumpi\n    /* \"#utility.yul\":1386:1387   */\n  0x00\n    /* \"#utility.yul\":1383:1384   */\n  dup1\n    /* \"#utility.yul\":1376:1388   */\n  revert\n    /* \"#utility.yul\":1313:1390   */\ntag_42:\n    /* \"#utility.yul\":1246:1396   */\n  pop\n  jump\t// out\n    /* \"contracts/Multichain.sol\":449:2340  contract Multichain is Ownable, ReentrancyGuard{\r... */\ntag_14:\n  dataSize(sub_0)\n  dup1\n  dataOffset(sub_0)\n  0x00\n  codecopy\n  0x00\n  return\nstop\n\nsub_0: assembly {\n        /* \"contracts/Multichain.sol\":449:2340  contract Multichain is Ownable, ReentrancyGuard{\r... */\n      mstore(0x40, 0x80)\n      callvalue\n      dup1\n      iszero\n      tag_1\n      jumpi\n      0x00\n      dup1\n      revert\n    tag_1:\n      pop\n      jumpi(tag_2, lt(calldatasize, 0x04))\n      shr(0xe0, calldataload(0x00))\n      dup1\n      0x715018a6\n      eq\n      tag_3\n      jumpi\n      dup1\n      0x8da5cb5b\n      eq\n      tag_4\n      jumpi\n      dup1\n      0x95ba8275\n      eq\n      tag_5\n      jumpi\n      dup1\n      0xb94a7c04\n      eq\n      tag_6\n      jumpi\n      dup1\n      0xf2fde38b\n      eq\n      tag_7\n      jumpi\n    tag_2:\n      0x00\n      dup1\n      revert\n        /* \"@openzeppelin/contracts/access/Ownable.sol\":1605:1697  function renounceOwnership() public virtual onlyOwner {... */\n    tag_3:\n      tag_8\n      tag_9\n      jump\t// in\n    tag_8:\n      stop\n        /* \"@openzeppelin/contracts/access/Ownable.sol\":973:1058  function owner() public view virtual returns (address) {... */\n    tag_4:\n      tag_10\n      tag_11\n      jump\t// in\n    tag_10:\n      mload(0x40)\n      tag_12\n      swap2\n      swap1\n      tag_13\n      jump\t// in\n    tag_12:\n      mload(0x40)\n      dup1\n      swap2\n      sub\n      swap1\n      return\n        /* \"contracts/Multichain.sol\":1770:2331  function transferOut(uint256 amount, uint16 chainId, uint256 originalSwapId, address user) public onlyOwner {\r... */\n    tag_5:\n      tag_14\n      0x04\n      dup1\n      calldatasize\n      sub\n      dup2\n      add\n      swap1\n      tag_15\n      swap2\n      swap1\n      tag_16\n      jump\t// in\n    tag_15:\n      tag_17\n      jump\t// in\n    tag_14:\n      stop\n        /* \"contracts/Multichain.sol\":1260:1762  function transferIn(uint256 amount, uint16 chainId) public nonReentrant returns (uint256) {\r... */\n    tag_6:\n      tag_18\n      0x04\n      dup1\n      calldatasize\n      sub\n      dup2\n      add\n      swap1\n      tag_19\n      swap2\n      swap1\n      tag_20\n      jump\t// in\n    tag_19:\n      tag_21\n      jump\t// in\n    tag_18:\n      mload(0x40)\n      tag_22\n      swap2\n      swap1\n      tag_23\n      jump\t// in\n    tag_22:\n      mload(0x40)\n      dup1\n      swap2\n      sub\n      swap1\n      return\n        /* \"@openzeppelin/contracts/access/Ownable.sol\":1846:2035  function transferOwnership(address newOwner) public virtual onlyOwner {... */\n    tag_7:\n      tag_24\n      0x04\n      dup1\n      calldatasize\n      sub\n      dup2\n      add\n      swap1\n      tag_25\n      swap2\n      swap1\n      tag_26\n      jump\t// in\n    tag_25:\n      tag_27\n      jump\t// in\n    tag_24:\n      stop\n        /* \"@openzeppelin/contracts/access/Ownable.sol\":1605:1697  function renounceOwnership() public virtual onlyOwner {... */\n    tag_9:\n        /* \"@openzeppelin/contracts/access/Ownable.sol\":1196:1208  _msgSender() */\n      tag_29\n        /* \"@openzeppelin/contracts/access/Ownable.sol\":1196:1206  _msgSender */\n      tag_30\n        /* \"@openzeppelin/contracts/access/Ownable.sol\":1196:1208  _msgSender() */\n      jump\t// in\n    tag_29:\n        /* \"@openzeppelin/contracts/access/Ownable.sol\":1185:1208  owner() == _msgSender() */\n      0xffffffffffffffffffffffffffffffffffffffff\n      and\n        /* \"@openzeppelin/contracts/access/Ownable.sol\":1185:1192  owner() */\n      tag_31\n        /* \"@openzeppelin/contracts/access/Ownable.sol\":1185:1190  owner */\n      tag_11\n        /* \"@openzeppelin/contracts/access/Ownable.sol\":1185:1192  owner() */\n      jump\t// in\n    tag_31:\n        /* \"@openzeppelin/contracts/access/Ownable.sol\":1185:1208  owner() == _msgSender() */\n      0xffffffffffffffffffffffffffffffffffffffff\n      and\n      eq\n        /* \"@openzeppelin/contracts/access/Ownable.sol\":1177:1245  require(owner() == _msgSender(), \"Ownable: caller is not the owner\") */\n      tag_32\n      jumpi\n      mload(0x40)\n      0x08c379a000000000000000000000000000000000000000000000000000000000\n      dup2\n      mstore\n      0x04\n      add\n      tag_33\n      swap1\n      tag_34\n      jump\t// in\n    tag_33:\n      mload(0x40)\n      dup1\n      swap2\n      sub\n      swap1\n      revert\n    tag_32:\n        /* \"@openzeppelin/contracts/access/Ownable.sol\":1669:1690  _setOwner(address(0)) */\n      tag_36\n        /* \"@openzeppelin/contracts/access/Ownable.sol\":1687:1688  0 */\n      0x00\n        /* \"@openzeppelin/contracts/access/Ownable.sol\":1669:1678  _setOwner */\n      tag_37\n        /* \"@openzeppelin/contracts/access/Ownable.sol\":1669:1690  _setOwner(address(0)) */\n      jump\t// in\n    tag_36:\n        /* \"@openzeppelin/contracts/access/Ownable.sol\":1605:1697  function renounceOwnership() public virtual onlyOwner {... */\n      jump\t// out\n        /* \"@openzeppelin/contracts/access/Ownable.sol\":973:1058  function owner() public view virtual returns (address) {... */\n    tag_11:\n        /* \"@openzeppelin/contracts/access/Ownable.sol\":1019:1026  address */\n      0x00\n        /* \"@openzeppelin/contracts/access/Ownable.sol\":1045:1051  _owner */\n      dup1\n      0x00\n      swap1\n      sload\n      swap1\n      0x0100\n      exp\n      swap1\n      div\n      0xffffffffffffffffffffffffffffffffffffffff\n      and\n        /* \"@openzeppelin/contracts/access/Ownable.sol\":1038:1051  return _owner */\n      swap1\n      pop\n        /* \"@openzeppelin/contracts/access/Ownable.sol\":973:1058  function owner() public view virtual returns (address) {... */\n      swap1\n      jump\t// out\n        /* \"contracts/Multichain.sol\":1770:2331  function transferOut(uint256 amount, uint16 chainId, uint256 originalSwapId, address user) public onlyOwner {\r... */\n    tag_17:\n        /* \"@openzeppelin/contracts/access/Ownable.sol\":1196:1208  _msgSender() */\n      tag_40\n        /* \"@openzeppelin/contracts/access/Ownable.sol\":1196:1206  _msgSender */\n      tag_30\n        /* \"@openzeppelin/contracts/access/Ownable.sol\":1196:1208  _msgSender() */\n      jump\t// in\n    tag_40:\n        /* \"@openzeppelin/contracts/access/Ownable.sol\":1185:1208  owner() == _msgSender() */\n      0xffffffffffffffffffffffffffffffffffffffff\n      and\n        /* \"@openzeppelin/contracts/access/Ownable.sol\":1185:1192  owner() */\n      tag_41\n        /* \"@openzeppelin/contracts/access/Ownable.sol\":1185:1190  owner */\n      tag_11\n        /* \"@openzeppelin/contracts/access/Ownable.sol\":1185:1192  owner() */\n      jump\t// in\n    tag_41:\n        /* \"@openzeppelin/contracts/access/Ownable.sol\":1185:1208  owner() == _msgSender() */\n      0xffffffffffffffffffffffffffffffffffffffff\n      and\n      eq\n        /* \"@openzeppelin/contracts/access/Ownable.sol\":1177:1245  require(owner() == _msgSender(), \"Ownable: caller is not the owner\") */\n      tag_42\n      jumpi\n      mload(0x40)\n      0x08c379a000000000000000000000000000000000000000000000000000000000\n      dup2\n      mstore\n      0x04\n      add\n      tag_43\n      swap1\n      tag_34\n      jump\t// in\n    tag_43:\n      mload(0x40)\n      dup1\n      swap2\n      sub\n      swap1\n      revert\n    tag_42:\n        /* \"contracts/Multichain.sol\":1953:1967  originalSwapId */\n      dup2\n        /* \"contracts/Multichain.sol\":1897:1914  outgoingTransfers */\n      0x05\n        /* \"contracts/Multichain.sol\":1897:1923  outgoingTransfers[chainId] */\n      0x00\n        /* \"contracts/Multichain.sol\":1915:1922  chainId */\n      dup6\n        /* \"contracts/Multichain.sol\":1897:1923  outgoingTransfers[chainId] */\n      0xffff\n      and\n      0xffff\n      and\n      dup2\n      mstore\n      0x20\n      add\n      swap1\n      dup2\n      mstore\n      0x20\n      add\n      0x00\n      keccak256\n        /* \"contracts/Multichain.sol\":1897:1939  outgoingTransfers[chainId][originalSwapId] */\n      0x00\n        /* \"contracts/Multichain.sol\":1924:1938  originalSwapId */\n      dup5\n        /* \"contracts/Multichain.sol\":1897:1939  outgoingTransfers[chainId][originalSwapId] */\n      dup2\n      mstore\n      0x20\n      add\n      swap1\n      dup2\n      mstore\n      0x20\n      add\n      0x00\n      keccak256\n        /* \"contracts/Multichain.sol\":1897:1949  outgoingTransfers[chainId][originalSwapId].RefSwapId */\n      0x04\n      add\n      sload\n        /* \"contracts/Multichain.sol\":1897:1967  outgoingTransfers[chainId][originalSwapId].RefSwapId != originalSwapId */\n      eq\n      iszero\n        /* \"contracts/Multichain.sol\":1889:2012  require(outgoingTransfers[chainId][originalSwapId].RefSwapId != originalSwapId, \"ABOAT::ERROR: Swap is already completed!\") */\n      tag_45\n      jumpi\n      mload(0x40)\n      0x08c379a000000000000000000000000000000000000000000000000000000000\n      dup2\n      mstore\n      0x04\n      add\n      tag_46\n      swap1\n      tag_47\n      jump\t// in\n    tag_46:\n      mload(0x40)\n      dup1\n      swap2\n      sub\n      swap1\n      revert\n    tag_45:\n        /* \"contracts/Multichain.sol\":2023:2047  Transfer memory transfer */\n      0x00\n        /* \"contracts/Multichain.sol\":2050:2114  Transfer(chainId, amount, user, block.timestamp, originalSwapId) */\n      mload(0x40)\n      dup1\n      0xa0\n      add\n      0x40\n      mstore\n      dup1\n        /* \"contracts/Multichain.sol\":2059:2066  chainId */\n      dup6\n        /* \"contracts/Multichain.sol\":2050:2114  Transfer(chainId, amount, user, block.timestamp, originalSwapId) */\n      0xffff\n      and\n      dup2\n      mstore\n      0x20\n      add\n        /* \"contracts/Multichain.sol\":2068:2074  amount */\n      dup7\n        /* \"contracts/Multichain.sol\":2050:2114  Transfer(chainId, amount, user, block.timestamp, originalSwapId) */\n      dup2\n      mstore\n      0x20\n      add\n        /* \"contracts/Multichain.sol\":2076:2080  user */\n      dup4\n        /* \"contracts/Multichain.sol\":2050:2114  Transfer(chainId, amount, user, block.timestamp, originalSwapId) */\n      0xffffffffffffffffffffffffffffffffffffffff\n      and\n      dup2\n      mstore\n      0x20\n      add\n        /* \"contracts/Multichain.sol\":2082:2097  block.timestamp */\n      timestamp\n        /* \"contracts/Multichain.sol\":2050:2114  Transfer(chainId, amount, user, block.timestamp, originalSwapId) */\n      dup2\n      mstore\n      0x20\n      add\n        /* \"contracts/Multichain.sol\":2099:2113  originalSwapId */\n      dup5\n        /* \"contracts/Multichain.sol\":2050:2114  Transfer(chainId, amount, user, block.timestamp, originalSwapId) */\n      dup2\n      mstore\n      pop\n        /* \"contracts/Multichain.sol\":2023:2114  Transfer memory transfer = Transfer(chainId, amount, user, block.timestamp, originalSwapId) */\n      swap1\n      pop\n        /* \"contracts/Multichain.sol\":2170:2178  transfer */\n      dup1\n        /* \"contracts/Multichain.sol\":2125:2142  outgoingTransfers */\n      0x05\n        /* \"contracts/Multichain.sol\":2125:2151  outgoingTransfers[chainId] */\n      0x00\n        /* \"contracts/Multichain.sol\":2143:2150  chainId */\n      dup7\n        /* \"contracts/Multichain.sol\":2125:2151  outgoingTransfers[chainId] */\n      0xffff\n      and\n      0xffff\n      and\n      dup2\n      mstore\n      0x20\n      add\n      swap1\n      dup2\n      mstore\n      0x20\n      add\n      0x00\n      keccak256\n        /* \"contracts/Multichain.sol\":2125:2167  outgoingTransfers[chainId][originalSwapId] */\n      0x00\n        /* \"contracts/Multichain.sol\":2152:2166  originalSwapId */\n      dup6\n        /* \"contracts/Multichain.sol\":2125:2167  outgoingTransfers[chainId][originalSwapId] */\n      dup2\n      mstore\n      0x20\n      add\n      swap1\n      dup2\n      mstore\n      0x20\n      add\n      0x00\n      keccak256\n        /* \"contracts/Multichain.sol\":2125:2178  outgoingTransfers[chainId][originalSwapId] = transfer */\n      0x00\n      dup3\n      add\n      mload\n      dup2\n      0x00\n      add\n      exp(0x0100, 0x00)\n      dup2\n      sload\n      dup2\n      0xffff\n      mul\n      not\n      and\n      swap1\n      dup4\n      0xffff\n      and\n      mul\n      or\n      swap1\n      sstore\n      pop\n      0x20\n      dup3\n      add\n      mload\n      dup2\n      0x01\n      add\n      sstore\n      0x40\n      dup3\n      add\n      mload\n      dup2\n      0x02\n      add\n      exp(0x0100, 0x00)\n      dup2\n      sload\n      dup2\n      0xffffffffffffffffffffffffffffffffffffffff\n      mul\n      not\n      and\n      swap1\n      dup4\n      0xffffffffffffffffffffffffffffffffffffffff\n      and\n      mul\n      or\n      swap1\n      sstore\n      pop\n      0x60\n      dup3\n      add\n      mload\n      dup2\n      0x03\n      add\n      sstore\n      0x80\n      dup3\n      add\n      mload\n      dup2\n      0x04\n      add\n      sstore\n      swap1\n      pop\n      pop\n        /* \"contracts/Multichain.sol\":2189:2247  TransferHelper.safeTransfer(address(_token), user, amount) */\n      tag_48\n        /* \"contracts/Multichain.sol\":2225:2231  _token */\n      0x03\n      0x00\n      swap1\n      sload\n      swap1\n      0x0100\n      exp\n      swap1\n      div\n      0xffffffffffffffffffffffffffffffffffffffff\n      and\n        /* \"contracts/Multichain.sol\":2234:2238  user */\n      dup4\n        /* \"contracts/Multichain.sol\":2240:2246  amount */\n      dup8\n        /* \"contracts/Multichain.sol\":2189:2216  TransferHelper.safeTransfer */\n      tag_49\n        /* \"contracts/Multichain.sol\":2189:2247  TransferHelper.safeTransfer(address(_token), user, amount) */\n      jump\t// in\n    tag_48:\n        /* \"contracts/Multichain.sol\":2263:2323  CompleteChainTransfer(chainId, amount, user, originalSwapId) */\n      0xaff796c9727abb3ecd626e88beef4ed7b207ee1e114ddcc896552d267ef524f0\n        /* \"contracts/Multichain.sol\":2285:2292  chainId */\n      dup5\n        /* \"contracts/Multichain.sol\":2294:2300  amount */\n      dup7\n        /* \"contracts/Multichain.sol\":2302:2306  user */\n      dup5\n        /* \"contracts/Multichain.sol\":2308:2322  originalSwapId */\n      dup7\n        /* \"contracts/Multichain.sol\":2263:2323  CompleteChainTransfer(chainId, amount, user, originalSwapId) */\n      mload(0x40)\n      tag_50\n      swap5\n      swap4\n      swap3\n      swap2\n      swap1\n      tag_51\n      jump\t// in\n    tag_50:\n      mload(0x40)\n      dup1\n      swap2\n      sub\n      swap1\n      log1\n        /* \"contracts/Multichain.sol\":1878:2331  {\r... */\n      pop\n        /* \"contracts/Multichain.sol\":1770:2331  function transferOut(uint256 amount, uint16 chainId, uint256 originalSwapId, address user) public onlyOwner {\r... */\n      pop\n      pop\n      pop\n      pop\n      jump\t// out\n        /* \"contracts/Multichain.sol\":1260:1762  function transferIn(uint256 amount, uint16 chainId) public nonReentrant returns (uint256) {\r... */\n    tag_21:\n        /* \"contracts/Multichain.sol\":1341:1348  uint256 */\n      0x00\n        /* \"@openzeppelin/contracts/security/ReentrancyGuard.sol\":1680:1681  2 */\n      0x02\n        /* \"@openzeppelin/contracts/security/ReentrancyGuard.sol\":2259:2266  _status */\n      sload(0x01)\n        /* \"@openzeppelin/contracts/security/ReentrancyGuard.sol\":2259:2278  _status != _ENTERED */\n      eq\n      iszero\n        /* \"@openzeppelin/contracts/security/ReentrancyGuard.sol\":2251:2314  require(_status != _ENTERED, \"ReentrancyGuard: reentrant call\") */\n      tag_53\n      jumpi\n      mload(0x40)\n      0x08c379a000000000000000000000000000000000000000000000000000000000\n      dup2\n      mstore\n      0x04\n      add\n      tag_54\n      swap1\n      tag_55\n      jump\t// in\n    tag_54:\n      mload(0x40)\n      dup1\n      swap2\n      sub\n      swap1\n      revert\n    tag_53:\n        /* \"@openzeppelin/contracts/security/ReentrancyGuard.sol\":1680:1681  2 */\n      0x02\n        /* \"@openzeppelin/contracts/security/ReentrancyGuard.sol\":2389:2396  _status */\n      0x01\n        /* \"@openzeppelin/contracts/security/ReentrancyGuard.sol\":2389:2407  _status = _ENTERED */\n      dup2\n      swap1\n      sstore\n      pop\n        /* \"contracts/Multichain.sol\":1361:1444  TransferHelper.safeTransferFrom(address(_token), msg.sender, address(this), amount) */\n      tag_57\n        /* \"contracts/Multichain.sol\":1401:1407  _token */\n      0x03\n      0x00\n      swap1\n      sload\n      swap1\n      0x0100\n      exp\n      swap1\n      div\n      0xffffffffffffffffffffffffffffffffffffffff\n      and\n        /* \"contracts/Multichain.sol\":1410:1420  msg.sender */\n      caller\n        /* \"contracts/Multichain.sol\":1430:1434  this */\n      address\n        /* \"contracts/Multichain.sol\":1437:1443  amount */\n      dup7\n        /* \"contracts/Multichain.sol\":1361:1392  TransferHelper.safeTransferFrom */\n      tag_58\n        /* \"contracts/Multichain.sol\":1361:1444  TransferHelper.safeTransferFrom(address(_token), msg.sender, address(this), amount) */\n      jump\t// in\n    tag_57:\n        /* \"contracts/Multichain.sol\":1455:1469  uint256 swapId */\n      0x00\n        /* \"contracts/Multichain.sol\":1472:1490  _swapIds.current() */\n      tag_59\n        /* \"contracts/Multichain.sol\":1472:1480  _swapIds */\n      0x02\n        /* \"contracts/Multichain.sol\":1472:1488  _swapIds.current */\n      tag_60\n        /* \"contracts/Multichain.sol\":1472:1490  _swapIds.current() */\n      jump\t// in\n    tag_59:\n        /* \"contracts/Multichain.sol\":1455:1490  uint256 swapId = _swapIds.current() */\n      swap1\n      pop\n        /* \"contracts/Multichain.sol\":1501:1521  _swapIds.increment() */\n      tag_61\n        /* \"contracts/Multichain.sol\":1501:1509  _swapIds */\n      0x02\n        /* \"contracts/Multichain.sol\":1501:1519  _swapIds.increment */\n      tag_62\n        /* \"contracts/Multichain.sol\":1501:1521  _swapIds.increment() */\n      jump\t// in\n    tag_61:\n        /* \"contracts/Multichain.sol\":1532:1556  Transfer memory transfer */\n      0x00\n        /* \"contracts/Multichain.sol\":1559:1621  Transfer(chainId, amount, msg.sender, block.timestamp, swapId) */\n      mload(0x40)\n      dup1\n      0xa0\n      add\n      0x40\n      mstore\n      dup1\n        /* \"contracts/Multichain.sol\":1568:1575  chainId */\n      dup6\n        /* \"contracts/Multichain.sol\":1559:1621  Transfer(chainId, amount, msg.sender, block.timestamp, swapId) */\n      0xffff\n      and\n      dup2\n      mstore\n      0x20\n      add\n        /* \"contracts/Multichain.sol\":1577:1583  amount */\n      dup7\n        /* \"contracts/Multichain.sol\":1559:1621  Transfer(chainId, amount, msg.sender, block.timestamp, swapId) */\n      dup2\n      mstore\n      0x20\n      add\n        /* \"contracts/Multichain.sol\":1585:1595  msg.sender */\n      caller\n        /* \"contracts/Multichain.sol\":1559:1621  Transfer(chainId, amount, msg.sender, block.timestamp, swapId) */\n      0xffffffffffffffffffffffffffffffffffffffff\n      and\n      dup2\n      mstore\n      0x20\n      add\n        /* \"contracts/Multichain.sol\":1597:1612  block.timestamp */\n      timestamp\n        /* \"contracts/Multichain.sol\":1559:1621  Transfer(chainId, amount, msg.sender, block.timestamp, swapId) */\n      dup2\n      mstore\n      0x20\n      add\n        /* \"contracts/Multichain.sol\":1614:1620  swapId */\n      dup4\n        /* \"contracts/Multichain.sol\":1559:1621  Transfer(chainId, amount, msg.sender, block.timestamp, swapId) */\n      dup2\n      mstore\n      pop\n        /* \"contracts/Multichain.sol\":1532:1621  Transfer memory transfer = Transfer(chainId, amount, msg.sender, block.timestamp, swapId) */\n      swap1\n      pop\n        /* \"contracts/Multichain.sol\":1660:1668  transfer */\n      dup1\n        /* \"contracts/Multichain.sol\":1632:1649  incomingTransfers */\n      0x04\n        /* \"contracts/Multichain.sol\":1632:1657  incomingTransfers[swapId] */\n      0x00\n        /* \"contracts/Multichain.sol\":1650:1656  swapId */\n      dup5\n        /* \"contracts/Multichain.sol\":1632:1657  incomingTransfers[swapId] */\n      dup2\n      mstore\n      0x20\n      add\n      swap1\n      dup2\n      mstore\n      0x20\n      add\n      0x00\n      keccak256\n        /* \"contracts/Multichain.sol\":1632:1668  incomingTransfers[swapId] = transfer */\n      0x00\n      dup3\n      add\n      mload\n      dup2\n      0x00\n      add\n      exp(0x0100, 0x00)\n      dup2\n      sload\n      dup2\n      0xffff\n      mul\n      not\n      and\n      swap1\n      dup4\n      0xffff\n      and\n      mul\n      or\n      swap1\n      sstore\n      pop\n      0x20\n      dup3\n      add\n      mload\n      dup2\n      0x01\n      add\n      sstore\n      0x40\n      dup3\n      add\n      mload\n      dup2\n      0x02\n      add\n      exp(0x0100, 0x00)\n      dup2\n      sload\n      dup2\n      0xffffffffffffffffffffffffffffffffffffffff\n      mul\n      not\n      and\n      swap1\n      dup4\n      0xffffffffffffffffffffffffffffffffffffffff\n      and\n      mul\n      or\n      swap1\n      sstore\n      pop\n      0x60\n      dup3\n      add\n      mload\n      dup2\n      0x03\n      add\n      sstore\n      0x80\n      dup3\n      add\n      mload\n      dup2\n      0x04\n      add\n      sstore\n      swap1\n      pop\n      pop\n        /* \"contracts/Multichain.sol\":1684:1730  InitChainTransfer(chainId, amount, msg.sender) */\n      0x98cc25f7a877454dc4170abed318d6bb434a60c701f1a538fd86fe8f6091e12f\n        /* \"contracts/Multichain.sol\":1702:1709  chainId */\n      dup5\n        /* \"contracts/Multichain.sol\":1711:1717  amount */\n      dup7\n        /* \"contracts/Multichain.sol\":1719:1729  msg.sender */\n      caller\n        /* \"contracts/Multichain.sol\":1684:1730  InitChainTransfer(chainId, amount, msg.sender) */\n      mload(0x40)\n      tag_63\n      swap4\n      swap3\n      swap2\n      swap1\n      tag_64\n      jump\t// in\n    tag_63:\n      mload(0x40)\n      dup1\n      swap2\n      sub\n      swap1\n      log1\n        /* \"contracts/Multichain.sol\":1748:1754  swapId */\n      dup2\n        /* \"contracts/Multichain.sol\":1741:1754  return swapId */\n      swap3\n      pop\n      pop\n      pop\n        /* \"@openzeppelin/contracts/security/ReentrancyGuard.sol\":1637:1638  1 */\n      0x01\n        /* \"@openzeppelin/contracts/security/ReentrancyGuard.sol\":2562:2569  _status */\n      dup1\n        /* \"@openzeppelin/contracts/security/ReentrancyGuard.sol\":2562:2584  _status = _NOT_ENTERED */\n      dup2\n      swap1\n      sstore\n      pop\n        /* \"contracts/Multichain.sol\":1260:1762  function transferIn(uint256 amount, uint16 chainId) public nonReentrant returns (uint256) {\r... */\n      swap3\n      swap2\n      pop\n      pop\n      jump\t// out\n        /* \"@openzeppelin/contracts/access/Ownable.sol\":1846:2035  function transferOwnership(address newOwner) public virtual onlyOwner {... */\n    tag_27:\n        /* \"@openzeppelin/contracts/access/Ownable.sol\":1196:1208  _msgSender() */\n      tag_66\n        /* \"@openzeppelin/contracts/access/Ownable.sol\":1196:1206  _msgSender */\n      tag_30\n        /* \"@openzeppelin/contracts/access/Ownable.sol\":1196:1208  _msgSender() */\n      jump\t// in\n    tag_66:\n        /* \"@openzeppelin/contracts/access/Ownable.sol\":1185:1208  owner() == _msgSender() */\n      0xffffffffffffffffffffffffffffffffffffffff\n      and\n        /* \"@openzeppelin/contracts/access/Ownable.sol\":1185:1192  owner() */\n      tag_67\n        /* \"@openzeppelin/contracts/access/Ownable.sol\":1185:1190  owner */\n      tag_11\n        /* \"@openzeppelin/contracts/access/Ownable.sol\":1185:1192  owner() */\n      jump\t// in\n    tag_67:\n        /* \"@openzeppelin/contracts/access/Ownable.sol\":1185:1208  owner() == _msgSender() */\n      0xffffffffffffffffffffffffffffffffffffffff\n      and\n      eq\n        /* \"@openzeppelin/contracts/access/Ownable.sol\":1177:1245  require(owner() == _msgSender(), \"Ownable: caller is not the owner\") */\n      tag_68\n      jumpi\n      mload(0x40)\n      0x08c379a000000000000000000000000000000000000000000000000000000000\n      dup2\n      mstore\n      0x04\n      add\n      tag_69\n      swap1\n      tag_34\n      jump\t// in\n    tag_69:\n      mload(0x40)\n      dup1\n      swap2\n      sub\n      swap1\n      revert\n    tag_68:\n        /* \"@openzeppelin/contracts/access/Ownable.sol\":1954:1955  0 */\n      0x00\n        /* \"@openzeppelin/contracts/access/Ownable.sol\":1934:1956  newOwner != address(0) */\n      0xffffffffffffffffffffffffffffffffffffffff\n      and\n        /* \"@openzeppelin/contracts/access/Ownable.sol\":1934:1942  newOwner */\n      dup2\n        /* \"@openzeppelin/contracts/access/Ownable.sol\":1934:1956  newOwner != address(0) */\n      0xffffffffffffffffffffffffffffffffffffffff\n      and\n      eq\n      iszero\n        /* \"@openzeppelin/contracts/access/Ownable.sol\":1926:1999  require(newOwner != address(0), \"Ownable: new owner is the zero address\") */\n      tag_71\n      jumpi\n      mload(0x40)\n      0x08c379a000000000000000000000000000000000000000000000000000000000\n      dup2\n      mstore\n      0x04\n      add\n      tag_72\n      swap1\n      tag_73\n      jump\t// in\n    tag_72:\n      mload(0x40)\n      dup1\n      swap2\n      sub\n      swap1\n      revert\n    tag_71:\n        /* \"@openzeppelin/contracts/access/Ownable.sol\":2009:2028  _setOwner(newOwner) */\n      tag_74\n        /* \"@openzeppelin/contracts/access/Ownable.sol\":2019:2027  newOwner */\n      dup2\n        /* \"@openzeppelin/contracts/access/Ownable.sol\":2009:2018  _setOwner */\n      tag_37\n        /* \"@openzeppelin/contracts/access/Ownable.sol\":2009:2028  _setOwner(newOwner) */\n      jump\t// in\n    tag_74:\n        /* \"@openzeppelin/contracts/access/Ownable.sol\":1846:2035  function transferOwnership(address newOwner) public virtual onlyOwner {... */\n      pop\n      jump\t// out\n        /* \"@openzeppelin/contracts/utils/Context.sol\":586:682  function _msgSender() internal view virtual returns (address) {... */\n    tag_30:\n        /* \"@openzeppelin/contracts/utils/Context.sol\":639:646  address */\n      0x00\n        /* \"@openzeppelin/contracts/utils/Context.sol\":665:675  msg.sender */\n      caller\n        /* \"@openzeppelin/contracts/utils/Context.sol\":658:675  return msg.sender */\n      swap1\n      pop\n        /* \"@openzeppelin/contracts/utils/Context.sol\":586:682  function _msgSender() internal view virtual returns (address) {... */\n      swap1\n      jump\t// out\n        /* \"@openzeppelin/contracts/access/Ownable.sol\":2041:2210  function _setOwner(address newOwner) private {... */\n    tag_37:\n        /* \"@openzeppelin/contracts/access/Ownable.sol\":2096:2112  address oldOwner */\n      0x00\n        /* \"@openzeppelin/contracts/access/Ownable.sol\":2115:2121  _owner */\n      dup1\n      0x00\n      swap1\n      sload\n      swap1\n      0x0100\n      exp\n      swap1\n      div\n      0xffffffffffffffffffffffffffffffffffffffff\n      and\n        /* \"@openzeppelin/contracts/access/Ownable.sol\":2096:2121  address oldOwner = _owner */\n      swap1\n      pop\n        /* \"@openzeppelin/contracts/access/Ownable.sol\":2140:2148  newOwner */\n      dup2\n        /* \"@openzeppelin/contracts/access/Ownable.sol\":2131:2137  _owner */\n      0x00\n      dup1\n        /* \"@openzeppelin/contracts/access/Ownable.sol\":2131:2148  _owner = newOwner */\n      0x0100\n      exp\n      dup2\n      sload\n      dup2\n      0xffffffffffffffffffffffffffffffffffffffff\n      mul\n      not\n      and\n      swap1\n      dup4\n      0xffffffffffffffffffffffffffffffffffffffff\n      and\n      mul\n      or\n      swap1\n      sstore\n      pop\n        /* \"@openzeppelin/contracts/access/Ownable.sol\":2194:2202  newOwner */\n      dup2\n        /* \"@openzeppelin/contracts/access/Ownable.sol\":2163:2203  OwnershipTransferred(oldOwner, newOwner) */\n      0xffffffffffffffffffffffffffffffffffffffff\n      and\n        /* \"@openzeppelin/contracts/access/Ownable.sol\":2184:2192  oldOwner */\n      dup2\n        /* \"@openzeppelin/contracts/access/Ownable.sol\":2163:2203  OwnershipTransferred(oldOwner, newOwner) */\n      0xffffffffffffffffffffffffffffffffffffffff\n      and\n      0x8be0079c531659141344cd1fd0a4f28419497f9722a3daafe3b4186f6b6457e0\n      mload(0x40)\n      mload(0x40)\n      dup1\n      swap2\n      sub\n      swap1\n      log3\n        /* \"@openzeppelin/contracts/access/Ownable.sol\":2086:2210  {... */\n      pop\n        /* \"@openzeppelin/contracts/access/Ownable.sol\":2041:2210  function _setOwner(address newOwner) private {... */\n      pop\n      jump\t// out\n        /* \"contracts/libraries/TransferHelper.sol\":210:594  function safeTransfer(... */\n    tag_49:\n        /* \"contracts/libraries/TransferHelper.sol\":324:336  bool success */\n      0x00\n        /* \"contracts/libraries/TransferHelper.sol\":338:355  bytes memory data */\n      dup1\n        /* \"contracts/libraries/TransferHelper.sol\":371:376  token */\n      dup5\n        /* \"contracts/libraries/TransferHelper.sol\":371:381  token.call */\n      0xffffffffffffffffffffffffffffffffffffffff\n      and\n        /* \"contracts/libraries/TransferHelper.sol\":405:415  0xa9059cbb */\n      0xa9059cbb\n        /* \"contracts/libraries/TransferHelper.sol\":417:419  to */\n      dup6\n        /* \"contracts/libraries/TransferHelper.sol\":421:426  value */\n      dup6\n        /* \"contracts/libraries/TransferHelper.sol\":382:427  abi.encodeWithSelector(0xa9059cbb, to, value) */\n      add(0x24, mload(0x40))\n      tag_78\n      swap3\n      swap2\n      swap1\n      tag_79\n      jump\t// in\n    tag_78:\n      mload(0x40)\n      0x20\n      dup2\n      dup4\n      sub\n      sub\n      dup2\n      mstore\n      swap1\n      0x40\n      mstore\n      swap1\n      0xe0\n      shl\n      0x20\n      dup3\n      add\n      dup1\n      mload\n      0xffffffffffffffffffffffffffffffffffffffffffffffffffffffff\n      dup4\n      dup2\n      dup4\n      and\n      or\n      dup4\n      mstore\n      pop\n      pop\n      pop\n      pop\n        /* \"contracts/libraries/TransferHelper.sol\":371:428  token.call(abi.encodeWithSelector(0xa9059cbb, to, value)) */\n      mload(0x40)\n      tag_80\n      swap2\n      swap1\n      tag_81\n      jump\t// in\n    tag_80:\n      0x00\n      mload(0x40)\n      dup1\n      dup4\n      sub\n      dup2\n      0x00\n      dup7\n      gas\n      call\n      swap2\n      pop\n      pop\n      returndatasize\n      dup1\n      0x00\n      dup2\n      eq\n      tag_84\n      jumpi\n      mload(0x40)\n      swap2\n      pop\n      and(add(returndatasize, 0x3f), not(0x1f))\n      dup3\n      add\n      0x40\n      mstore\n      returndatasize\n      dup3\n      mstore\n      returndatasize\n      0x00\n      0x20\n      dup5\n      add\n      returndatacopy\n      jump(tag_83)\n    tag_84:\n      0x60\n      swap2\n      pop\n    tag_83:\n      pop\n        /* \"contracts/libraries/TransferHelper.sol\":323:428  (bool success, bytes memory data) =... */\n      swap2\n      pop\n      swap2\n      pop\n        /* \"contracts/libraries/TransferHelper.sol\":459:466  success */\n      dup2\n        /* \"contracts/libraries/TransferHelper.sol\":459:516  success && (data.length == 0 || abi.decode(data, (bool))) */\n      dup1\n      iszero\n      tag_85\n      jumpi\n      pop\n        /* \"contracts/libraries/TransferHelper.sol\":486:487  0 */\n      0x00\n        /* \"contracts/libraries/TransferHelper.sol\":471:475  data */\n      dup2\n        /* \"contracts/libraries/TransferHelper.sol\":471:482  data.length */\n      mload\n        /* \"contracts/libraries/TransferHelper.sol\":471:487  data.length == 0 */\n      eq\n        /* \"contracts/libraries/TransferHelper.sol\":471:515  data.length == 0 || abi.decode(data, (bool)) */\n      dup1\n      tag_86\n      jumpi\n      pop\n        /* \"contracts/libraries/TransferHelper.sol\":502:506  data */\n      dup1\n        /* \"contracts/libraries/TransferHelper.sol\":491:515  abi.decode(data, (bool)) */\n      dup1\n      0x20\n      add\n      swap1\n      mload\n      dup2\n      add\n      swap1\n      tag_87\n      swap2\n      swap1\n      tag_88\n      jump\t// in\n    tag_87:\n        /* \"contracts/libraries/TransferHelper.sol\":471:515  data.length == 0 || abi.decode(data, (bool)) */\n    tag_86:\n        /* \"contracts/libraries/TransferHelper.sol\":459:516  success && (data.length == 0 || abi.decode(data, (bool))) */\n    tag_85:\n        /* \"contracts/libraries/TransferHelper.sol\":438:587  require(... */\n      tag_89\n      jumpi\n      mload(0x40)\n      0x08c379a000000000000000000000000000000000000000000000000000000000\n      dup2\n      mstore\n      0x04\n      add\n      tag_90\n      swap1\n      tag_91\n      jump\t// in\n    tag_90:\n      mload(0x40)\n      dup1\n      swap2\n      sub\n      swap1\n      revert\n    tag_89:\n        /* \"contracts/libraries/TransferHelper.sol\":313:594  {... */\n      pop\n      pop\n        /* \"contracts/libraries/TransferHelper.sol\":210:594  function safeTransfer(... */\n      pop\n      pop\n      pop\n      jump\t// out\n        /* \"contracts/libraries/TransferHelper.sol\":600:1020  function safeTransferFrom(... */\n    tag_58:\n        /* \"contracts/libraries/TransferHelper.sol\":740:752  bool success */\n      0x00\n        /* \"contracts/libraries/TransferHelper.sol\":754:771  bytes memory data */\n      dup1\n        /* \"contracts/libraries/TransferHelper.sol\":787:792  token */\n      dup6\n        /* \"contracts/libraries/TransferHelper.sol\":787:797  token.call */\n      0xffffffffffffffffffffffffffffffffffffffff\n      and\n        /* \"contracts/libraries/TransferHelper.sol\":821:831  0x23b872dd */\n      0x23b872dd\n        /* \"contracts/libraries/TransferHelper.sol\":833:837  from */\n      dup7\n        /* \"contracts/libraries/TransferHelper.sol\":839:841  to */\n      dup7\n        /* \"contracts/libraries/TransferHelper.sol\":843:848  value */\n      dup7\n        /* \"contracts/libraries/TransferHelper.sol\":798:849  abi.encodeWithSelector(0x23b872dd, from, to, value) */\n      add(0x24, mload(0x40))\n      tag_93\n      swap4\n      swap3\n      swap2\n      swap1\n      tag_94\n      jump\t// in\n    tag_93:\n      mload(0x40)\n      0x20\n      dup2\n      dup4\n      sub\n      sub\n      dup2\n      mstore\n      swap1\n      0x40\n      mstore\n      swap1\n      0xe0\n      shl\n      0x20\n      dup3\n      add\n      dup1\n      mload\n      0xffffffffffffffffffffffffffffffffffffffffffffffffffffffff\n      dup4\n      dup2\n      dup4\n      and\n      or\n      dup4\n      mstore\n      pop\n      pop\n      pop\n      pop\n        /* \"contracts/libraries/TransferHelper.sol\":787:850  token.call(abi.encodeWithSelector(0x23b872dd, from, to, value)) */\n      mload(0x40)\n      tag_95\n      swap2\n      swap1\n      tag_81\n      jump\t// in\n    tag_95:\n      0x00\n      mload(0x40)\n      dup1\n      dup4\n      sub\n      dup2\n      0x00\n      dup7\n      gas\n      call\n      swap2\n      pop\n      pop\n      returndatasize\n      dup1\n      0x00\n      dup2\n      eq\n      tag_98\n      jumpi\n      mload(0x40)\n      swap2\n      pop\n      and(add(returndatasize, 0x3f), not(0x1f))\n      dup3\n      add\n      0x40\n      mstore\n      returndatasize\n      dup3\n      mstore\n      returndatasize\n      0x00\n      0x20\n      dup5\n      add\n      returndatacopy\n      jump(tag_97)\n    tag_98:\n      0x60\n      swap2\n      pop\n    tag_97:\n      pop\n        /* \"contracts/libraries/TransferHelper.sol\":739:850  (bool success, bytes memory data) =... */\n      swap2\n      pop\n      swap2\n      pop\n        /* \"contracts/libraries/TransferHelper.sol\":881:888  success */\n      dup2\n        /* \"contracts/libraries/TransferHelper.sol\":881:938  success && (data.length == 0 || abi.decode(data, (bool))) */\n      dup1\n      iszero\n      tag_99\n      jumpi\n      pop\n        /* \"contracts/libraries/TransferHelper.sol\":908:909  0 */\n      0x00\n        /* \"contracts/libraries/TransferHelper.sol\":893:897  data */\n      dup2\n        /* \"contracts/libraries/TransferHelper.sol\":893:904  data.length */\n      mload\n        /* \"contracts/libraries/TransferHelper.sol\":893:909  data.length == 0 */\n      eq\n        /* \"contracts/libraries/TransferHelper.sol\":893:937  data.length == 0 || abi.decode(data, (bool)) */\n      dup1\n      tag_100\n      jumpi\n      pop\n        /* \"contracts/libraries/TransferHelper.sol\":924:928  data */\n      dup1\n        /* \"contracts/libraries/TransferHelper.sol\":913:937  abi.decode(data, (bool)) */\n      dup1\n      0x20\n      add\n      swap1\n      mload\n      dup2\n      add\n      swap1\n      tag_101\n      swap2\n      swap1\n      tag_88\n      jump\t// in\n    tag_101:\n        /* \"contracts/libraries/TransferHelper.sol\":893:937  data.length == 0 || abi.decode(data, (bool)) */\n    tag_100:\n        /* \"contracts/libraries/TransferHelper.sol\":881:938  success && (data.length == 0 || abi.decode(data, (bool))) */\n    tag_99:\n        /* \"contracts/libraries/TransferHelper.sol\":860:1013  require(... */\n      tag_102\n      jumpi\n      mload(0x40)\n      0x08c379a000000000000000000000000000000000000000000000000000000000\n      dup2\n      mstore\n      0x04\n      add\n      tag_103\n      swap1\n      tag_104\n      jump\t// in\n    tag_103:\n      mload(0x40)\n      dup1\n      swap2\n      sub\n      swap1\n      revert\n    tag_102:\n        /* \"contracts/libraries/TransferHelper.sol\":729:1020  {... */\n      pop\n      pop\n        /* \"contracts/libraries/TransferHelper.sol\":600:1020  function safeTransferFrom(... */\n      pop\n      pop\n      pop\n      pop\n      jump\t// out\n        /* \"@openzeppelin/contracts/utils/Counters.sol\":827:939  function current(Counter storage counter) internal view returns (uint256) {... */\n    tag_60:\n        /* \"@openzeppelin/contracts/utils/Counters.sol\":892:899  uint256 */\n      0x00\n        /* \"@openzeppelin/contracts/utils/Counters.sol\":918:925  counter */\n      dup2\n        /* \"@openzeppelin/contracts/utils/Counters.sol\":918:932  counter._value */\n      0x00\n      add\n      sload\n        /* \"@openzeppelin/contracts/utils/Counters.sol\":911:932  return counter._value */\n      swap1\n      pop\n        /* \"@openzeppelin/contracts/utils/Counters.sol\":827:939  function current(Counter storage counter) internal view returns (uint256) {... */\n      swap2\n      swap1\n      pop\n      jump\t// out\n        /* \"@openzeppelin/contracts/utils/Counters.sol\":945:1068  function increment(Counter storage counter) internal {... */\n    tag_62:\n        /* \"@openzeppelin/contracts/utils/Counters.sol\":1050:1051  1 */\n      0x01\n        /* \"@openzeppelin/contracts/utils/Counters.sol\":1032:1039  counter */\n      dup2\n        /* \"@openzeppelin/contracts/utils/Counters.sol\":1032:1046  counter._value */\n      0x00\n      add\n      0x00\n        /* \"@openzeppelin/contracts/utils/Counters.sol\":1032:1051  counter._value += 1 */\n      dup3\n      dup3\n      sload\n      add\n      swap3\n      pop\n      pop\n      dup2\n      swap1\n      sstore\n      pop\n        /* \"@openzeppelin/contracts/utils/Counters.sol\":945:1068  function increment(Counter storage counter) internal {... */\n      pop\n      jump\t// out\n        /* \"#utility.yul\":7:146   */\n    tag_108:\n        /* \"#utility.yul\":53:58   */\n      0x00\n        /* \"#utility.yul\":91:97   */\n      dup2\n        /* \"#utility.yul\":78:98   */\n      calldataload\n        /* \"#utility.yul\":69:98   */\n      swap1\n      pop\n        /* \"#utility.yul\":107:140   */\n      tag_110\n        /* \"#utility.yul\":134:139   */\n      dup2\n        /* \"#utility.yul\":107:140   */\n      tag_111\n      jump\t// in\n    tag_110:\n        /* \"#utility.yul\":7:146   */\n      swap3\n      swap2\n      pop\n      pop\n      jump\t// out\n        /* \"#utility.yul\":152:289   */\n    tag_112:\n        /* \"#utility.yul\":206:211   */\n      0x00\n        /* \"#utility.yul\":237:243   */\n      dup2\n        /* \"#utility.yul\":231:244   */\n      mload\n        /* \"#utility.yul\":222:244   */\n      swap1\n      pop\n        /* \"#utility.yul\":253:283   */\n      tag_114\n        /* \"#utility.yul\":277:282   */\n      dup2\n        /* \"#utility.yul\":253:283   */\n      tag_115\n      jump\t// in\n    tag_114:\n        /* \"#utility.yul\":152:289   */\n      swap3\n      swap2\n      pop\n      pop\n      jump\t// out\n        /* \"#utility.yul\":295:432   */\n    tag_116:\n        /* \"#utility.yul\":340:345   */\n      0x00\n        /* \"#utility.yul\":378:384   */\n      dup2\n        /* \"#utility.yul\":365:385   */\n      calldataload\n        /* \"#utility.yul\":356:385   */\n      swap1\n      pop\n        /* \"#utility.yul\":394:426   */\n      tag_118\n        /* \"#utility.yul\":420:425   */\n      dup2\n        /* \"#utility.yul\":394:426   */\n      tag_119\n      jump\t// in\n    tag_118:\n        /* \"#utility.yul\":295:432   */\n      swap3\n      swap2\n      pop\n      pop\n      jump\t// out\n        /* \"#utility.yul\":438:577   */\n    tag_120:\n        /* \"#utility.yul\":484:489   */\n      0x00\n        /* \"#utility.yul\":522:528   */\n      dup2\n        /* \"#utility.yul\":509:529   */\n      calldataload\n        /* \"#utility.yul\":500:529   */\n      swap1\n      pop\n        /* \"#utility.yul\":538:571   */\n      tag_122\n        /* \"#utility.yul\":565:570   */\n      dup2\n        /* \"#utility.yul\":538:571   */\n      tag_123\n      jump\t// in\n    tag_122:\n        /* \"#utility.yul\":438:577   */\n      swap3\n      swap2\n      pop\n      pop\n      jump\t// out\n        /* \"#utility.yul\":583:912   */\n    tag_26:\n        /* \"#utility.yul\":642:648   */\n      0x00\n        /* \"#utility.yul\":691:693   */\n      0x20\n        /* \"#utility.yul\":679:688   */\n      dup3\n        /* \"#utility.yul\":670:677   */\n      dup5\n        /* \"#utility.yul\":666:689   */\n      sub\n        /* \"#utility.yul\":662:694   */\n      slt\n        /* \"#utility.yul\":659:778   */\n      iszero\n      tag_125\n      jumpi\n        /* \"#utility.yul\":697:776   */\n      tag_126\n      tag_127\n      jump\t// in\n    tag_126:\n        /* \"#utility.yul\":659:778   */\n    tag_125:\n        /* \"#utility.yul\":817:818   */\n      0x00\n        /* \"#utility.yul\":842:895   */\n      tag_128\n        /* \"#utility.yul\":887:894   */\n      dup5\n        /* \"#utility.yul\":878:884   */\n      dup3\n        /* \"#utility.yul\":867:876   */\n      dup6\n        /* \"#utility.yul\":863:885   */\n      add\n        /* \"#utility.yul\":842:895   */\n      tag_108\n      jump\t// in\n    tag_128:\n        /* \"#utility.yul\":832:895   */\n      swap2\n      pop\n        /* \"#utility.yul\":788:905   */\n      pop\n        /* \"#utility.yul\":583:912   */\n      swap3\n      swap2\n      pop\n      pop\n      jump\t// out\n        /* \"#utility.yul\":918:1263   */\n    tag_88:\n        /* \"#utility.yul\":985:991   */\n      0x00\n        /* \"#utility.yul\":1034:1036   */\n      0x20\n        /* \"#utility.yul\":1022:1031   */\n      dup3\n        /* \"#utility.yul\":1013:1020   */\n      dup5\n        /* \"#utility.yul\":1009:1032   */\n      sub\n        /* \"#utility.yul\":1005:1037   */\n      slt\n        /* \"#utility.yul\":1002:1121   */\n      iszero\n      tag_130\n      jumpi\n        /* \"#utility.yul\":1040:1119   */\n      tag_131\n      tag_127\n      jump\t// in\n    tag_131:\n        /* \"#utility.yul\":1002:1121   */\n    tag_130:\n        /* \"#utility.yul\":1160:1161   */\n      0x00\n        /* \"#utility.yul\":1185:1246   */\n      tag_132\n        /* \"#utility.yul\":1238:1245   */\n      dup5\n        /* \"#utility.yul\":1229:1235   */\n      dup3\n        /* \"#utility.yul\":1218:1227   */\n      dup6\n        /* \"#utility.yul\":1214:1236   */\n      add\n        /* \"#utility.yul\":1185:1246   */\n      tag_112\n      jump\t// in\n    tag_132:\n        /* \"#utility.yul\":1175:1246   */\n      swap2\n      pop\n        /* \"#utility.yul\":1131:1256   */\n      pop\n        /* \"#utility.yul\":918:1263   */\n      swap3\n      swap2\n      pop\n      pop\n      jump\t// out\n        /* \"#utility.yul\":1269:1741   */\n    tag_20:\n        /* \"#utility.yul\":1336:1342   */\n      0x00\n        /* \"#utility.yul\":1344:1350   */\n      dup1\n        /* \"#utility.yul\":1393:1395   */\n      0x40\n        /* \"#utility.yul\":1381:1390   */\n      dup4\n        /* \"#utility.yul\":1372:1379   */\n      dup6\n        /* \"#utility.yul\":1368:1391   */\n      sub\n        /* \"#utility.yul\":1364:1396   */\n      slt\n        /* \"#utility.yul\":1361:1480   */\n      iszero\n      tag_134\n      jumpi\n        /* \"#utility.yul\":1399:1478   */\n      tag_135\n      tag_127\n      jump\t// in\n    tag_135:\n        /* \"#utility.yul\":1361:1480   */\n    tag_134:\n        /* \"#utility.yul\":1519:1520   */\n      0x00\n        /* \"#utility.yul\":1544:1597   */\n      tag_136\n        /* \"#utility.yul\":1589:1596   */\n      dup6\n        /* \"#utility.yul\":1580:1586   */\n      dup3\n        /* \"#utility.yul\":1569:1578   */\n      dup7\n        /* \"#utility.yul\":1565:1587   */\n      add\n        /* \"#utility.yul\":1544:1597   */\n      tag_120\n      jump\t// in\n    tag_136:\n        /* \"#utility.yul\":1534:1597   */\n      swap3\n      pop\n        /* \"#utility.yul\":1490:1607   */\n      pop\n        /* \"#utility.yul\":1646:1648   */\n      0x20\n        /* \"#utility.yul\":1672:1724   */\n      tag_137\n        /* \"#utility.yul\":1716:1723   */\n      dup6\n        /* \"#utility.yul\":1707:1713   */\n      dup3\n        /* \"#utility.yul\":1696:1705   */\n      dup7\n        /* \"#utility.yul\":1692:1714   */\n      add\n        /* \"#utility.yul\":1672:1724   */\n      tag_116\n      jump\t// in\n    tag_137:\n        /* \"#utility.yul\":1662:1724   */\n      swap2\n      pop\n        /* \"#utility.yul\":1617:1734   */\n      pop\n        /* \"#utility.yul\":1269:1741   */\n      swap3\n      pop\n      swap3\n      swap1\n      pop\n      jump\t// out\n        /* \"#utility.yul\":1747:2510   */\n    tag_16:\n        /* \"#utility.yul\":1832:1838   */\n      0x00\n        /* \"#utility.yul\":1840:1846   */\n      dup1\n        /* \"#utility.yul\":1848:1854   */\n      0x00\n        /* \"#utility.yul\":1856:1862   */\n      dup1\n        /* \"#utility.yul\":1905:1908   */\n      0x80\n        /* \"#utility.yul\":1893:1902   */\n      dup6\n        /* \"#utility.yul\":1884:1891   */\n      dup8\n        /* \"#utility.yul\":1880:1903   */\n      sub\n        /* \"#utility.yul\":1876:1909   */\n      slt\n        /* \"#utility.yul\":1873:1993   */\n      iszero\n      tag_139\n      jumpi\n        /* \"#utility.yul\":1912:1991   */\n      tag_140\n      tag_127\n      jump\t// in\n    tag_140:\n        /* \"#utility.yul\":1873:1993   */\n    tag_139:\n        /* \"#utility.yul\":2032:2033   */\n      0x00\n        /* \"#utility.yul\":2057:2110   */\n      tag_141\n        /* \"#utility.yul\":2102:2109   */\n      dup8\n        /* \"#utility.yul\":2093:2099   */\n      dup3\n        /* \"#utility.yul\":2082:2091   */\n      dup9\n        /* \"#utility.yul\":2078:2100   */\n      add\n        /* \"#utility.yul\":2057:2110   */\n      tag_120\n      jump\t// in\n    tag_141:\n        /* \"#utility.yul\":2047:2110   */\n      swap5\n      pop\n        /* \"#utility.yul\":2003:2120   */\n      pop\n        /* \"#utility.yul\":2159:2161   */\n      0x20\n        /* \"#utility.yul\":2185:2237   */\n      tag_142\n        /* \"#utility.yul\":2229:2236   */\n      dup8\n        /* \"#utility.yul\":2220:2226   */\n      dup3\n        /* \"#utility.yul\":2209:2218   */\n      dup9\n        /* \"#utility.yul\":2205:2227   */\n      add\n        /* \"#utility.yul\":2185:2237   */\n      tag_116\n      jump\t// in\n    tag_142:\n        /* \"#utility.yul\":2175:2237   */\n      swap4\n      pop\n        /* \"#utility.yul\":2130:2247   */\n      pop\n        /* \"#utility.yul\":2286:2288   */\n      0x40\n        /* \"#utility.yul\":2312:2365   */\n      tag_143\n        /* \"#utility.yul\":2357:2364   */\n      dup8\n        /* \"#utility.yul\":2348:2354   */\n      dup3\n        /* \"#utility.yul\":2337:2346   */\n      dup9\n        /* \"#utility.yul\":2333:2355   */\n      add\n        /* \"#utility.yul\":2312:2365   */\n      tag_120\n      jump\t// in\n    tag_143:\n        /* \"#utility.yul\":2302:2365   */\n      swap3\n      pop\n        /* \"#utility.yul\":2257:2375   */\n      pop\n        /* \"#utility.yul\":2414:2416   */\n      0x60\n        /* \"#utility.yul\":2440:2493   */\n      tag_144\n        /* \"#utility.yul\":2485:2492   */\n      dup8\n        /* \"#utility.yul\":2476:2482   */\n      dup3\n        /* \"#utility.yul\":2465:2474   */\n      dup9\n        /* \"#utility.yul\":2461:2483   */\n      add\n        /* \"#utility.yul\":2440:2493   */\n      tag_108\n      jump\t// in\n    tag_144:\n        /* \"#utility.yul\":2430:2493   */\n      swap2\n      pop\n        /* \"#utility.yul\":2385:2503   */\n      pop\n        /* \"#utility.yul\":1747:2510   */\n      swap3\n      swap6\n      swap2\n      swap5\n      pop\n      swap3\n      pop\n      jump\t// out\n        /* \"#utility.yul\":2516:2634   */\n    tag_145:\n        /* \"#utility.yul\":2603:2627   */\n      tag_147\n        /* \"#utility.yul\":2621:2626   */\n      dup2\n        /* \"#utility.yul\":2603:2627   */\n      tag_148\n      jump\t// in\n    tag_147:\n        /* \"#utility.yul\":2598:2601   */\n      dup3\n        /* \"#utility.yul\":2591:2628   */\n      mstore\n        /* \"#utility.yul\":2516:2634   */\n      pop\n      pop\n      jump\t// out\n        /* \"#utility.yul\":2640:3013   */\n    tag_149:\n        /* \"#utility.yul\":2744:2747   */\n      0x00\n        /* \"#utility.yul\":2772:2810   */\n      tag_151\n        /* \"#utility.yul\":2804:2809   */\n      dup3\n        /* \"#utility.yul\":2772:2810   */\n      tag_152\n      jump\t// in\n    tag_151:\n        /* \"#utility.yul\":2826:2914   */\n      tag_153\n        /* \"#utility.yul\":2907:2913   */\n      dup2\n        /* \"#utility.yul\":2902:2905   */\n      dup6\n        /* \"#utility.yul\":2826:2914   */\n      tag_154\n      jump\t// in\n    tag_153:\n        /* \"#utility.yul\":2819:2914   */\n      swap4\n      pop\n        /* \"#utility.yul\":2923:2975   */\n      tag_155\n        /* \"#utility.yul\":2968:2974   */\n      dup2\n        /* \"#utility.yul\":2963:2966   */\n      dup6\n        /* \"#utility.yul\":2956:2960   */\n      0x20\n        /* \"#utility.yul\":2949:2954   */\n      dup7\n        /* \"#utility.yul\":2945:2961   */\n      add\n        /* \"#utility.yul\":2923:2975   */\n      tag_156\n      jump\t// in\n    tag_155:\n        /* \"#utility.yul\":3000:3006   */\n      dup1\n        /* \"#utility.yul\":2995:2998   */\n      dup5\n        /* \"#utility.yul\":2991:3007   */\n      add\n        /* \"#utility.yul\":2984:3007   */\n      swap2\n      pop\n        /* \"#utility.yul\":2748:3013   */\n      pop\n        /* \"#utility.yul\":2640:3013   */\n      swap3\n      swap2\n      pop\n      pop\n      jump\t// out\n        /* \"#utility.yul\":3019:3385   */\n    tag_157:\n        /* \"#utility.yul\":3161:3164   */\n      0x00\n        /* \"#utility.yul\":3182:3249   */\n      tag_159\n        /* \"#utility.yul\":3246:3248   */\n      0x26\n        /* \"#utility.yul\":3241:3244   */\n      dup4\n        /* \"#utility.yul\":3182:3249   */\n      tag_160\n      jump\t// in\n    tag_159:\n        /* \"#utility.yul\":3175:3249   */\n      swap2\n      pop\n        /* \"#utility.yul\":3258:3351   */\n      tag_161\n        /* \"#utility.yul\":3347:3350   */\n      dup3\n        /* \"#utility.yul\":3258:3351   */\n      tag_162\n      jump\t// in\n    tag_161:\n        /* \"#utility.yul\":3376:3378   */\n      0x40\n        /* \"#utility.yul\":3371:3374   */\n      dup3\n        /* \"#utility.yul\":3367:3379   */\n      add\n        /* \"#utility.yul\":3360:3379   */\n      swap1\n      pop\n        /* \"#utility.yul\":3019:3385   */\n      swap2\n      swap1\n      pop\n      jump\t// out\n        /* \"#utility.yul\":3391:3757   */\n    tag_163:\n        /* \"#utility.yul\":3533:3536   */\n      0x00\n        /* \"#utility.yul\":3554:3621   */\n      tag_165\n        /* \"#utility.yul\":3618:3620   */\n      0x31\n        /* \"#utility.yul\":3613:3616   */\n      dup4\n        /* \"#utility.yul\":3554:3621   */\n      tag_160\n      jump\t// in\n    tag_165:\n        /* \"#utility.yul\":3547:3621   */\n      swap2\n      pop\n        /* \"#utility.yul\":3630:3723   */\n      tag_166\n        /* \"#utility.yul\":3719:3722   */\n      dup3\n        /* \"#utility.yul\":3630:3723   */\n      tag_167\n      jump\t// in\n    tag_166:\n        /* \"#utility.yul\":3748:3750   */\n      0x40\n        /* \"#utility.yul\":3743:3746   */\n      dup3\n        /* \"#utility.yul\":3739:3751   */\n      add\n        /* \"#utility.yul\":3732:3751   */\n      swap1\n      pop\n        /* \"#utility.yul\":3391:3757   */\n      swap2\n      swap1\n      pop\n      jump\t// out\n        /* \"#utility.yul\":3763:4129   */\n    tag_168:\n        /* \"#utility.yul\":3905:3908   */\n      0x00\n        /* \"#utility.yul\":3926:3993   */\n      tag_170\n        /* \"#utility.yul\":3990:3992   */\n      0x20\n        /* \"#utility.yul\":3985:3988   */\n      dup4\n        /* \"#utility.yul\":3926:3993   */\n      tag_160\n      jump\t// in\n    tag_170:\n        /* \"#utility.yul\":3919:3993   */\n      swap2\n      pop\n        /* \"#utility.yul\":4002:4095   */\n      tag_171\n        /* \"#utility.yul\":4091:4094   */\n      dup3\n        /* \"#utility.yul\":4002:4095   */\n      tag_172\n      jump\t// in\n    tag_171:\n        /* \"#utility.yul\":4120:4122   */\n      0x20\n        /* \"#utility.yul\":4115:4118   */\n      dup3\n        /* \"#utility.yul\":4111:4123   */\n      add\n        /* \"#utility.yul\":4104:4123   */\n      swap1\n      pop\n        /* \"#utility.yul\":3763:4129   */\n      swap2\n      swap1\n      pop\n      jump\t// out\n        /* \"#utility.yul\":4135:4501   */\n    tag_173:\n        /* \"#utility.yul\":4277:4280   */\n      0x00\n        /* \"#utility.yul\":4298:4365   */\n      tag_175\n        /* \"#utility.yul\":4362:4364   */\n      0x2d\n        /* \"#utility.yul\":4357:4360   */\n      dup4\n        /* \"#utility.yul\":4298:4365   */\n      tag_160\n      jump\t// in\n    tag_175:\n        /* \"#utility.yul\":4291:4365   */\n      swap2\n      pop\n        /* \"#utility.yul\":4374:4467   */\n      tag_176\n        /* \"#utility.yul\":4463:4466   */\n      dup3\n        /* \"#utility.yul\":4374:4467   */\n      tag_177\n      jump\t// in\n    tag_176:\n        /* \"#utility.yul\":4492:4494   */\n      0x40\n        /* \"#utility.yul\":4487:4490   */\n      dup3\n        /* \"#utility.yul\":4483:4495   */\n      add\n        /* \"#utility.yul\":4476:4495   */\n      swap1\n      pop\n        /* \"#utility.yul\":4135:4501   */\n      swap2\n      swap1\n      pop\n      jump\t// out\n        /* \"#utility.yul\":4507:4873   */\n    tag_178:\n        /* \"#utility.yul\":4649:4652   */\n      0x00\n        /* \"#utility.yul\":4670:4737   */\n      tag_180\n        /* \"#utility.yul\":4734:4736   */\n      0x1f\n        /* \"#utility.yul\":4729:4732   */\n      dup4\n        /* \"#utility.yul\":4670:4737   */\n      tag_160\n      jump\t// in\n    tag_180:\n        /* \"#utility.yul\":4663:4737   */\n      swap2\n      pop\n        /* \"#utility.yul\":4746:4839   */\n      tag_181\n        /* \"#utility.yul\":4835:4838   */\n      dup3\n        /* \"#utility.yul\":4746:4839   */\n      tag_182\n      jump\t// in\n    tag_181:\n        /* \"#utility.yul\":4864:4866   */\n      0x20\n        /* \"#utility.yul\":4859:4862   */\n      dup3\n        /* \"#utility.yul\":4855:4867   */\n      add\n        /* \"#utility.yul\":4848:4867   */\n      swap1\n      pop\n        /* \"#utility.yul\":4507:4873   */\n      swap2\n      swap1\n      pop\n      jump\t// out\n        /* \"#utility.yul\":4879:5245   */\n    tag_183:\n        /* \"#utility.yul\":5021:5024   */\n      0x00\n        /* \"#utility.yul\":5042:5109   */\n      tag_185\n        /* \"#utility.yul\":5106:5108   */\n      0x28\n        /* \"#utility.yul\":5101:5104   */\n      dup4\n        /* \"#utility.yul\":5042:5109   */\n      tag_160\n      jump\t// in\n    tag_185:\n        /* \"#utility.yul\":5035:5109   */\n      swap2\n      pop\n        /* \"#utility.yul\":5118:5211   */\n      tag_186\n        /* \"#utility.yul\":5207:5210   */\n      dup3\n        /* \"#utility.yul\":5118:5211   */\n      tag_187\n      jump\t// in\n    tag_186:\n        /* \"#utility.yul\":5236:5238   */\n      0x40\n        /* \"#utility.yul\":5231:5234   */\n      dup3\n        /* \"#utility.yul\":5227:5239   */\n      add\n        /* \"#utility.yul\":5220:5239   */\n      swap1\n      pop\n        /* \"#utility.yul\":4879:5245   */\n      swap2\n      swap1\n      pop\n      jump\t// out\n        /* \"#utility.yul\":5251:5366   */\n    tag_188:\n        /* \"#utility.yul\":5336:5359   */\n      tag_190\n        /* \"#utility.yul\":5353:5358   */\n      dup2\n        /* \"#utility.yul\":5336:5359   */\n      tag_191\n      jump\t// in\n    tag_190:\n        /* \"#utility.yul\":5331:5334   */\n      dup3\n        /* \"#utility.yul\":5324:5360   */\n      mstore\n        /* \"#utility.yul\":5251:5366   */\n      pop\n      pop\n      jump\t// out\n        /* \"#utility.yul\":5372:5490   */\n    tag_192:\n        /* \"#utility.yul\":5459:5483   */\n      tag_194\n        /* \"#utility.yul\":5477:5482   */\n      dup2\n        /* \"#utility.yul\":5459:5483   */\n      tag_195\n      jump\t// in\n    tag_194:\n        /* \"#utility.yul\":5454:5457   */\n      dup3\n        /* \"#utility.yul\":5447:5484   */\n      mstore\n        /* \"#utility.yul\":5372:5490   */\n      pop\n      pop\n      jump\t// out\n        /* \"#utility.yul\":5496:5767   */\n    tag_81:\n        /* \"#utility.yul\":5626:5629   */\n      0x00\n        /* \"#utility.yul\":5648:5741   */\n      tag_197\n        /* \"#utility.yul\":5737:5740   */\n      dup3\n        /* \"#utility.yul\":5728:5734   */\n      dup5\n        /* \"#utility.yul\":5648:5741   */\n      tag_149\n      jump\t// in\n    tag_197:\n        /* \"#utility.yul\":5641:5741   */\n      swap2\n      pop\n        /* \"#utility.yul\":5758:5761   */\n      dup2\n        /* \"#utility.yul\":5751:5761   */\n      swap1\n      pop\n        /* \"#utility.yul\":5496:5767   */\n      swap3\n      swap2\n      pop\n      pop\n      jump\t// out\n        /* \"#utility.yul\":5773:5995   */\n    tag_13:\n        /* \"#utility.yul\":5866:5870   */\n      0x00\n        /* \"#utility.yul\":5904:5906   */\n      0x20\n        /* \"#utility.yul\":5893:5902   */\n      dup3\n        /* \"#utility.yul\":5889:5907   */\n      add\n        /* \"#utility.yul\":5881:5907   */\n      swap1\n      pop\n        /* \"#utility.yul\":5917:5988   */\n      tag_199\n        /* \"#utility.yul\":5985:5986   */\n      0x00\n        /* \"#utility.yul\":5974:5983   */\n      dup4\n        /* \"#utility.yul\":5970:5987   */\n      add\n        /* \"#utility.yul\":5961:5967   */\n      dup5\n        /* \"#utility.yul\":5917:5988   */\n      tag_145\n      jump\t// in\n    tag_199:\n        /* \"#utility.yul\":5773:5995   */\n      swap3\n      swap2\n      pop\n      pop\n      jump\t// out\n        /* \"#utility.yul\":6001:6443   */\n    tag_94:\n        /* \"#utility.yul\":6150:6154   */\n      0x00\n        /* \"#utility.yul\":6188:6190   */\n      0x60\n        /* \"#utility.yul\":6177:6186   */\n      dup3\n        /* \"#utility.yul\":6173:6191   */\n      add\n        /* \"#utility.yul\":6165:6191   */\n      swap1\n      pop\n        /* \"#utility.yul\":6201:6272   */\n      tag_201\n        /* \"#utility.yul\":6269:6270   */\n      0x00\n        /* \"#utility.yul\":6258:6267   */\n      dup4\n        /* \"#utility.yul\":6254:6271   */\n      add\n        /* \"#utility.yul\":6245:6251   */\n      dup7\n        /* \"#utility.yul\":6201:6272   */\n      tag_145\n      jump\t// in\n    tag_201:\n        /* \"#utility.yul\":6282:6354   */\n      tag_202\n        /* \"#utility.yul\":6350:6352   */\n      0x20\n        /* \"#utility.yul\":6339:6348   */\n      dup4\n        /* \"#utility.yul\":6335:6353   */\n      add\n        /* \"#utility.yul\":6326:6332   */\n      dup6\n        /* \"#utility.yul\":6282:6354   */\n      tag_145\n      jump\t// in\n    tag_202:\n        /* \"#utility.yul\":6364:6436   */\n      tag_203\n        /* \"#utility.yul\":6432:6434   */\n      0x40\n        /* \"#utility.yul\":6421:6430   */\n      dup4\n        /* \"#utility.yul\":6417:6435   */\n      add\n        /* \"#utility.yul\":6408:6414   */\n      dup5\n        /* \"#utility.yul\":6364:6436   */\n      tag_192\n      jump\t// in\n    tag_203:\n        /* \"#utility.yul\":6001:6443   */\n      swap5\n      swap4\n      pop\n      pop\n      pop\n      pop\n      jump\t// out\n        /* \"#utility.yul\":6449:6781   */\n    tag_79:\n        /* \"#utility.yul\":6570:6574   */\n      0x00\n        /* \"#utility.yul\":6608:6610   */\n      0x40\n        /* \"#utility.yul\":6597:6606   */\n      dup3\n        /* \"#utility.yul\":6593:6611   */\n      add\n        /* \"#utility.yul\":6585:6611   */\n      swap1\n      pop\n        /* \"#utility.yul\":6621:6692   */\n      tag_205\n        /* \"#utility.yul\":6689:6690   */\n      0x00\n        /* \"#utility.yul\":6678:6687   */\n      dup4\n        /* \"#utility.yul\":6674:6691   */\n      add\n        /* \"#utility.yul\":6665:6671   */\n      dup6\n        /* \"#utility.yul\":6621:6692   */\n      tag_145\n      jump\t// in\n    tag_205:\n        /* \"#utility.yul\":6702:6774   */\n      tag_206\n        /* \"#utility.yul\":6770:6772   */\n      0x20\n        /* \"#utility.yul\":6759:6768   */\n      dup4\n        /* \"#utility.yul\":6755:6773   */\n      add\n        /* \"#utility.yul\":6746:6752   */\n      dup5\n        /* \"#utility.yul\":6702:6774   */\n      tag_192\n      jump\t// in\n    tag_206:\n        /* \"#utility.yul\":6449:6781   */\n      swap4\n      swap3\n      pop\n      pop\n      pop\n      jump\t// out\n        /* \"#utility.yul\":6787:7206   */\n    tag_73:\n        /* \"#utility.yul\":6953:6957   */\n      0x00\n        /* \"#utility.yul\":6991:6993   */\n      0x20\n        /* \"#utility.yul\":6980:6989   */\n      dup3\n        /* \"#utility.yul\":6976:6994   */\n      add\n        /* \"#utility.yul\":6968:6994   */\n      swap1\n      pop\n        /* \"#utility.yul\":7040:7049   */\n      dup2\n        /* \"#utility.yul\":7034:7038   */\n      dup2\n        /* \"#utility.yul\":7030:7050   */\n      sub\n        /* \"#utility.yul\":7026:7027   */\n      0x00\n        /* \"#utility.yul\":7015:7024   */\n      dup4\n        /* \"#utility.yul\":7011:7028   */\n      add\n        /* \"#utility.yul\":7004:7051   */\n      mstore\n        /* \"#utility.yul\":7068:7199   */\n      tag_208\n        /* \"#utility.yul\":7194:7198   */\n      dup2\n        /* \"#utility.yul\":7068:7199   */\n      tag_157\n      jump\t// in\n    tag_208:\n        /* \"#utility.yul\":7060:7199   */\n      swap1\n      pop\n        /* \"#utility.yul\":6787:7206   */\n      swap2\n      swap1\n      pop\n      jump\t// out\n        /* \"#utility.yul\":7212:7631   */\n    tag_104:\n        /* \"#utility.yul\":7378:7382   */\n      0x00\n        /* \"#utility.yul\":7416:7418   */\n      0x20\n        /* \"#utility.yul\":7405:7414   */\n      dup3\n        /* \"#utility.yul\":7401:7419   */\n      add\n        /* \"#utility.yul\":7393:7419   */\n      swap1\n      pop\n        /* \"#utility.yul\":7465:7474   */\n      dup2\n        /* \"#utility.yul\":7459:7463   */\n      dup2\n        /* \"#utility.yul\":7455:7475   */\n      sub\n        /* \"#utility.yul\":7451:7452   */\n      0x00\n        /* \"#utility.yul\":7440:7449   */\n      dup4\n        /* \"#utility.yul\":7436:7453   */\n      add\n        /* \"#utility.yul\":7429:7476   */\n      mstore\n        /* \"#utility.yul\":7493:7624   */\n      tag_210\n        /* \"#utility.yul\":7619:7623   */\n      dup2\n        /* \"#utility.yul\":7493:7624   */\n      tag_163\n      jump\t// in\n    tag_210:\n        /* \"#utility.yul\":7485:7624   */\n      swap1\n      pop\n        /* \"#utility.yul\":7212:7631   */\n      swap2\n      swap1\n      pop\n      jump\t// out\n        /* \"#utility.yul\":7637:8056   */\n    tag_34:\n        /* \"#utility.yul\":7803:7807   */\n      0x00\n        /* \"#utility.yul\":7841:7843   */\n      0x20\n        /* \"#utility.yul\":7830:7839   */\n      dup3\n        /* \"#utility.yul\":7826:7844   */\n      add\n        /* \"#utility.yul\":7818:7844   */\n      swap1\n      pop\n        /* \"#utility.yul\":7890:7899   */\n      dup2\n        /* \"#utility.yul\":7884:7888   */\n      dup2\n        /* \"#utility.yul\":7880:7900   */\n      sub\n        /* \"#utility.yul\":7876:7877   */\n      0x00\n        /* \"#utility.yul\":7865:7874   */\n      dup4\n        /* \"#utility.yul\":7861:7878   */\n      add\n        /* \"#utility.yul\":7854:7901   */\n      mstore\n        /* \"#utility.yul\":7918:8049   */\n      tag_212\n        /* \"#utility.yul\":8044:8048   */\n      dup2\n        /* \"#utility.yul\":7918:8049   */\n      tag_168\n      jump\t// in\n    tag_212:\n        /* \"#utility.yul\":7910:8049   */\n      swap1\n      pop\n        /* \"#utility.yul\":7637:8056   */\n      swap2\n      swap1\n      pop\n      jump\t// out\n        /* \"#utility.yul\":8062:8481   */\n    tag_91:\n        /* \"#utility.yul\":8228:8232   */\n      0x00\n        /* \"#utility.yul\":8266:8268   */\n      0x20\n        /* \"#utility.yul\":8255:8264   */\n      dup3\n        /* \"#utility.yul\":8251:8269   */\n      add\n        /* \"#utility.yul\":8243:8269   */\n      swap1\n      pop\n        /* \"#utility.yul\":8315:8324   */\n      dup2\n        /* \"#utility.yul\":8309:8313   */\n      dup2\n        /* \"#utility.yul\":8305:8325   */\n      sub\n        /* \"#utility.yul\":8301:8302   */\n      0x00\n        /* \"#utility.yul\":8290:8299   */\n      dup4\n        /* \"#utility.yul\":8286:8303   */\n      add\n        /* \"#utility.yul\":8279:8326   */\n      mstore\n        /* \"#utility.yul\":8343:8474   */\n      tag_214\n        /* \"#utility.yul\":8469:8473   */\n      dup2\n        /* \"#utility.yul\":8343:8474   */\n      tag_173\n      jump\t// in\n    tag_214:\n        /* \"#utility.yul\":8335:8474   */\n      swap1\n      pop\n        /* \"#utility.yul\":8062:8481   */\n      swap2\n      swap1\n      pop\n      jump\t// out\n        /* \"#utility.yul\":8487:8906   */\n    tag_55:\n        /* \"#utility.yul\":8653:8657   */\n      0x00\n        /* \"#utility.yul\":8691:8693   */\n      0x20\n        /* \"#utility.yul\":8680:8689   */\n      dup3\n        /* \"#utility.yul\":8676:8694   */\n      add\n        /* \"#utility.yul\":8668:8694   */\n      swap1\n      pop\n        /* \"#utility.yul\":8740:8749   */\n      dup2\n        /* \"#utility.yul\":8734:8738   */\n      dup2\n        /* \"#utility.yul\":8730:8750   */\n      sub\n        /* \"#utility.yul\":8726:8727   */\n      0x00\n        /* \"#utility.yul\":8715:8724   */\n      dup4\n        /* \"#utility.yul\":8711:8728   */\n      add\n        /* \"#utility.yul\":8704:8751   */\n      mstore\n        /* \"#utility.yul\":8768:8899   */\n      tag_216\n        /* \"#utility.yul\":8894:8898   */\n      dup2\n        /* \"#utility.yul\":8768:8899   */\n      tag_178\n      jump\t// in\n    tag_216:\n        /* \"#utility.yul\":8760:8899   */\n      swap1\n      pop\n        /* \"#utility.yul\":8487:8906   */\n      swap2\n      swap1\n      pop\n      jump\t// out\n        /* \"#utility.yul\":8912:9331   */\n    tag_47:\n        /* \"#utility.yul\":9078:9082   */\n      0x00\n        /* \"#utility.yul\":9116:9118   */\n      0x20\n        /* \"#utility.yul\":9105:9114   */\n      dup3\n        /* \"#utility.yul\":9101:9119   */\n      add\n        /* \"#utility.yul\":9093:9119   */\n      swap1\n      pop\n        /* \"#utility.yul\":9165:9174   */\n      dup2\n        /* \"#utility.yul\":9159:9163   */\n      dup2\n        /* \"#utility.yul\":9155:9175   */\n      sub\n        /* \"#utility.yul\":9151:9152   */\n      0x00\n        /* \"#utility.yul\":9140:9149   */\n      dup4\n        /* \"#utility.yul\":9136:9153   */\n      add\n        /* \"#utility.yul\":9129:9176   */\n      mstore\n        /* \"#utility.yul\":9193:9324   */\n      tag_218\n        /* \"#utility.yul\":9319:9323   */\n      dup2\n        /* \"#utility.yul\":9193:9324   */\n      tag_183\n      jump\t// in\n    tag_218:\n        /* \"#utility.yul\":9185:9324   */\n      swap1\n      pop\n        /* \"#utility.yul\":8912:9331   */\n      swap2\n      swap1\n      pop\n      jump\t// out\n        /* \"#utility.yul\":9337:9775   */\n    tag_64:\n        /* \"#utility.yul\":9484:9488   */\n      0x00\n        /* \"#utility.yul\":9522:9524   */\n      0x60\n        /* \"#utility.yul\":9511:9520   */\n      dup3\n        /* \"#utility.yul\":9507:9525   */\n      add\n        /* \"#utility.yul\":9499:9525   */\n      swap1\n      pop\n        /* \"#utility.yul\":9535:9604   */\n      tag_220\n        /* \"#utility.yul\":9601:9602   */\n      0x00\n        /* \"#utility.yul\":9590:9599   */\n      dup4\n        /* \"#utility.yul\":9586:9603   */\n      add\n        /* \"#utility.yul\":9577:9583   */\n      dup7\n        /* \"#utility.yul\":9535:9604   */\n      tag_188\n      jump\t// in\n    tag_220:\n        /* \"#utility.yul\":9614:9686   */\n      tag_221\n        /* \"#utility.yul\":9682:9684   */\n      0x20\n        /* \"#utility.yul\":9671:9680   */\n      dup4\n        /* \"#utility.yul\":9667:9685   */\n      add\n        /* \"#utility.yul\":9658:9664   */\n      dup6\n        /* \"#utility.yul\":9614:9686   */\n      tag_192\n      jump\t// in\n    tag_221:\n        /* \"#utility.yul\":9696:9768   */\n      tag_222\n        /* \"#utility.yul\":9764:9766   */\n      0x40\n        /* \"#utility.yul\":9753:9762   */\n      dup4\n        /* \"#utility.yul\":9749:9767   */\n      add\n        /* \"#utility.yul\":9740:9746   */\n      dup5\n        /* \"#utility.yul\":9696:9768   */\n      tag_145\n      jump\t// in\n    tag_222:\n        /* \"#utility.yul\":9337:9775   */\n      swap5\n      swap4\n      pop\n      pop\n      pop\n      pop\n      jump\t// out\n        /* \"#utility.yul\":9781:10330   */\n    tag_51:\n        /* \"#utility.yul\":9956:9960   */\n      0x00\n        /* \"#utility.yul\":9994:9997   */\n      0x80\n        /* \"#utility.yul\":9983:9992   */\n      dup3\n        /* \"#utility.yul\":9979:9998   */\n      add\n        /* \"#utility.yul\":9971:9998   */\n      swap1\n      pop\n        /* \"#utility.yul\":10008:10077   */\n      tag_224\n        /* \"#utility.yul\":10074:10075   */\n      0x00\n        /* \"#utility.yul\":10063:10072   */\n      dup4\n        /* \"#utility.yul\":10059:10076   */\n      add\n        /* \"#utility.yul\":10050:10056   */\n      dup8\n        /* \"#utility.yul\":10008:10077   */\n      tag_188\n      jump\t// in\n    tag_224:\n        /* \"#utility.yul\":10087:10159   */\n      tag_225\n        /* \"#utility.yul\":10155:10157   */\n      0x20\n        /* \"#utility.yul\":10144:10153   */\n      dup4\n        /* \"#utility.yul\":10140:10158   */\n      add\n        /* \"#utility.yul\":10131:10137   */\n      dup7\n        /* \"#utility.yul\":10087:10159   */\n      tag_192\n      jump\t// in\n    tag_225:\n        /* \"#utility.yul\":10169:10241   */\n      tag_226\n        /* \"#utility.yul\":10237:10239   */\n      0x40\n        /* \"#utility.yul\":10226:10235   */\n      dup4\n        /* \"#utility.yul\":10222:10240   */\n      add\n        /* \"#utility.yul\":10213:10219   */\n      dup6\n        /* \"#utility.yul\":10169:10241   */\n      tag_145\n      jump\t// in\n    tag_226:\n        /* \"#utility.yul\":10251:10323   */\n      tag_227\n        /* \"#utility.yul\":10319:10321   */\n      0x60\n        /* \"#utility.yul\":10308:10317   */\n      dup4\n        /* \"#utility.yul\":10304:10322   */\n      add\n        /* \"#utility.yul\":10295:10301   */\n      dup5\n        /* \"#utility.yul\":10251:10323   */\n      tag_192\n      jump\t// in\n    tag_227:\n        /* \"#utility.yul\":9781:10330   */\n      swap6\n      swap5\n      pop\n      pop\n      pop\n      pop\n      pop\n      jump\t// out\n        /* \"#utility.yul\":10336:10558   */\n    tag_23:\n        /* \"#utility.yul\":10429:10433   */\n      0x00\n        /* \"#utility.yul\":10467:10469   */\n      0x20\n        /* \"#utility.yul\":10456:10465   */\n      dup3\n        /* \"#utility.yul\":10452:10470   */\n      add\n        /* \"#utility.yul\":10444:10470   */\n      swap1\n      pop\n        /* \"#utility.yul\":10480:10551   */\n      tag_229\n        /* \"#utility.yul\":10548:10549   */\n      0x00\n        /* \"#utility.yul\":10537:10546   */\n      dup4\n        /* \"#utility.yul\":10533:10550   */\n      add\n        /* \"#utility.yul\":10524:10530   */\n      dup5\n        /* \"#utility.yul\":10480:10551   */\n      tag_192\n      jump\t// in\n    tag_229:\n        /* \"#utility.yul\":10336:10558   */\n      swap3\n      swap2\n      pop\n      pop\n      jump\t// out\n        /* \"#utility.yul\":10645:10743   */\n    tag_152:\n        /* \"#utility.yul\":10696:10702   */\n      0x00\n        /* \"#utility.yul\":10730:10735   */\n      dup2\n        /* \"#utility.yul\":10724:10736   */\n      mload\n        /* \"#utility.yul\":10714:10736   */\n      swap1\n      pop\n        /* \"#utility.yul\":10645:10743   */\n      swap2\n      swap1\n      pop\n      jump\t// out\n        /* \"#utility.yul\":10749:10896   */\n    tag_154:\n        /* \"#utility.yul\":10850:10861   */\n      0x00\n        /* \"#utility.yul\":10887:10890   */\n      dup2\n        /* \"#utility.yul\":10872:10890   */\n      swap1\n      pop\n        /* \"#utility.yul\":10749:10896   */\n      swap3\n      swap2\n      pop\n      pop\n      jump\t// out\n        /* \"#utility.yul\":10902:11071   */\n    tag_160:\n        /* \"#utility.yul\":10986:10997   */\n      0x00\n        /* \"#utility.yul\":11020:11026   */\n      dup3\n        /* \"#utility.yul\":11015:11018   */\n      dup3\n        /* \"#utility.yul\":11008:11027   */\n      mstore\n        /* \"#utility.yul\":11060:11064   */\n      0x20\n        /* \"#utility.yul\":11055:11058   */\n      dup3\n        /* \"#utility.yul\":11051:11065   */\n      add\n        /* \"#utility.yul\":11036:11065   */\n      swap1\n      pop\n        /* \"#utility.yul\":10902:11071   */\n      swap3\n      swap2\n      pop\n      pop\n      jump\t// out\n        /* \"#utility.yul\":11077:11173   */\n    tag_148:\n        /* \"#utility.yul\":11114:11121   */\n      0x00\n        /* \"#utility.yul\":11143:11167   */\n      tag_236\n        /* \"#utility.yul\":11161:11166   */\n      dup3\n        /* \"#utility.yul\":11143:11167   */\n      tag_237\n      jump\t// in\n    tag_236:\n        /* \"#utility.yul\":11132:11167   */\n      swap1\n      pop\n        /* \"#utility.yul\":11077:11173   */\n      swap2\n      swap1\n      pop\n      jump\t// out\n        /* \"#utility.yul\":11179:11269   */\n    tag_238:\n        /* \"#utility.yul\":11213:11220   */\n      0x00\n        /* \"#utility.yul\":11256:11261   */\n      dup2\n        /* \"#utility.yul\":11249:11262   */\n      iszero\n        /* \"#utility.yul\":11242:11263   */\n      iszero\n        /* \"#utility.yul\":11231:11263   */\n      swap1\n      pop\n        /* \"#utility.yul\":11179:11269   */\n      swap2\n      swap1\n      pop\n      jump\t// out\n        /* \"#utility.yul\":11275:11364   */\n    tag_191:\n        /* \"#utility.yul\":11311:11318   */\n      0x00\n        /* \"#utility.yul\":11351:11357   */\n      0xffff\n        /* \"#utility.yul\":11344:11349   */\n      dup3\n        /* \"#utility.yul\":11340:11358   */\n      and\n        /* \"#utility.yul\":11329:11358   */\n      swap1\n      pop\n        /* \"#utility.yul\":11275:11364   */\n      swap2\n      swap1\n      pop\n      jump\t// out\n        /* \"#utility.yul\":11370:11496   */\n    tag_237:\n        /* \"#utility.yul\":11407:11414   */\n      0x00\n        /* \"#utility.yul\":11447:11489   */\n      0xffffffffffffffffffffffffffffffffffffffff\n        /* \"#utility.yul\":11440:11445   */\n      dup3\n        /* \"#utility.yul\":11436:11490   */\n      and\n        /* \"#utility.yul\":11425:11490   */\n      swap1\n      pop\n        /* \"#utility.yul\":11370:11496   */\n      swap2\n      swap1\n      pop\n      jump\t// out\n        /* \"#utility.yul\":11502:11579   */\n    tag_195:\n        /* \"#utility.yul\":11539:11546   */\n      0x00\n        /* \"#utility.yul\":11568:11573   */\n      dup2\n        /* \"#utility.yul\":11557:11573   */\n      swap1\n      pop\n        /* \"#utility.yul\":11502:11579   */\n      swap2\n      swap1\n      pop\n      jump\t// out\n        /* \"#utility.yul\":11585:11892   */\n    tag_156:\n        /* \"#utility.yul\":11653:11654   */\n      0x00\n        /* \"#utility.yul\":11663:11776   */\n    tag_244:\n        /* \"#utility.yul\":11677:11683   */\n      dup4\n        /* \"#utility.yul\":11674:11675   */\n      dup2\n        /* \"#utility.yul\":11671:11684   */\n      lt\n        /* \"#utility.yul\":11663:11776   */\n      iszero\n      tag_246\n      jumpi\n        /* \"#utility.yul\":11762:11763   */\n      dup1\n        /* \"#utility.yul\":11757:11760   */\n      dup3\n        /* \"#utility.yul\":11753:11764   */\n      add\n        /* \"#utility.yul\":11747:11765   */\n      mload\n        /* \"#utility.yul\":11743:11744   */\n      dup2\n        /* \"#utility.yul\":11738:11741   */\n      dup5\n        /* \"#utility.yul\":11734:11745   */\n      add\n        /* \"#utility.yul\":11727:11766   */\n      mstore\n        /* \"#utility.yul\":11699:11701   */\n      0x20\n        /* \"#utility.yul\":11696:11697   */\n      dup2\n        /* \"#utility.yul\":11692:11702   */\n      add\n        /* \"#utility.yul\":11687:11702   */\n      swap1\n      pop\n        /* \"#utility.yul\":11663:11776   */\n      jump(tag_244)\n    tag_246:\n        /* \"#utility.yul\":11794:11800   */\n      dup4\n        /* \"#utility.yul\":11791:11792   */\n      dup2\n        /* \"#utility.yul\":11788:11801   */\n      gt\n        /* \"#utility.yul\":11785:11886   */\n      iszero\n      tag_247\n      jumpi\n        /* \"#utility.yul\":11874:11875   */\n      0x00\n        /* \"#utility.yul\":11865:11871   */\n      dup5\n        /* \"#utility.yul\":11860:11863   */\n      dup5\n        /* \"#utility.yul\":11856:11872   */\n      add\n        /* \"#utility.yul\":11849:11876   */\n      mstore\n        /* \"#utility.yul\":11785:11886   */\n    tag_247:\n        /* \"#utility.yul\":11634:11892   */\n      pop\n        /* \"#utility.yul\":11585:11892   */\n      pop\n      pop\n      pop\n      jump\t// out\n        /* \"#utility.yul\":12021:12138   */\n    tag_127:\n        /* \"#utility.yul\":12130:12131   */\n      0x00\n        /* \"#utility.yul\":12127:12128   */\n      dup1\n        /* \"#utility.yul\":12120:12132   */\n      revert\n        /* \"#utility.yul\":12144:12369   */\n    tag_162:\n        /* \"#utility.yul\":12284:12318   */\n      0x4f776e61626c653a206e6577206f776e657220697320746865207a65726f2061\n        /* \"#utility.yul\":12280:12281   */\n      0x00\n        /* \"#utility.yul\":12272:12278   */\n      dup3\n        /* \"#utility.yul\":12268:12282   */\n      add\n        /* \"#utility.yul\":12261:12319   */\n      mstore\n        /* \"#utility.yul\":12353:12361   */\n      0x6464726573730000000000000000000000000000000000000000000000000000\n        /* \"#utility.yul\":12348:12350   */\n      0x20\n        /* \"#utility.yul\":12340:12346   */\n      dup3\n        /* \"#utility.yul\":12336:12351   */\n      add\n        /* \"#utility.yul\":12329:12362   */\n      mstore\n        /* \"#utility.yul\":12144:12369   */\n      pop\n      jump\t// out\n        /* \"#utility.yul\":12375:12611   */\n    tag_167:\n        /* \"#utility.yul\":12515:12549   */\n      0x5472616e7366657248656c7065723a3a7472616e7366657246726f6d3a207472\n        /* \"#utility.yul\":12511:12512   */\n      0x00\n        /* \"#utility.yul\":12503:12509   */\n      dup3\n        /* \"#utility.yul\":12499:12513   */\n      add\n        /* \"#utility.yul\":12492:12550   */\n      mstore\n        /* \"#utility.yul\":12584:12603   */\n      0x616e7366657246726f6d206661696c6564000000000000000000000000000000\n        /* \"#utility.yul\":12579:12581   */\n      0x20\n        /* \"#utility.yul\":12571:12577   */\n      dup3\n        /* \"#utility.yul\":12567:12582   */\n      add\n        /* \"#utility.yul\":12560:12604   */\n      mstore\n        /* \"#utility.yul\":12375:12611   */\n      pop\n      jump\t// out\n        /* \"#utility.yul\":12617:12799   */\n    tag_172:\n        /* \"#utility.yul\":12757:12791   */\n      0x4f776e61626c653a2063616c6c6572206973206e6f7420746865206f776e6572\n        /* \"#utility.yul\":12753:12754   */\n      0x00\n        /* \"#utility.yul\":12745:12751   */\n      dup3\n        /* \"#utility.yul\":12741:12755   */\n      add\n        /* \"#utility.yul\":12734:12792   */\n      mstore\n        /* \"#utility.yul\":12617:12799   */\n      pop\n      jump\t// out\n        /* \"#utility.yul\":12805:13037   */\n    tag_177:\n        /* \"#utility.yul\":12945:12979   */\n      0x5472616e7366657248656c7065723a3a736166655472616e736665723a207472\n        /* \"#utility.yul\":12941:12942   */\n      0x00\n        /* \"#utility.yul\":12933:12939   */\n      dup3\n        /* \"#utility.yul\":12929:12943   */\n      add\n        /* \"#utility.yul\":12922:12980   */\n      mstore\n        /* \"#utility.yul\":13014:13029   */\n      0x616e73666572206661696c656400000000000000000000000000000000000000\n        /* \"#utility.yul\":13009:13011   */\n      0x20\n        /* \"#utility.yul\":13001:13007   */\n      dup3\n        /* \"#utility.yul\":12997:13012   */\n      add\n        /* \"#utility.yul\":12990:13030   */\n      mstore\n        /* \"#utility.yul\":12805:13037   */\n      pop\n      jump\t// out\n        /* \"#utility.yul\":13043:13224   */\n    tag_182:\n        /* \"#utility.yul\":13183:13216   */\n      0x5265656e7472616e637947756172643a207265656e7472616e742063616c6c00\n        /* \"#utility.yul\":13179:13180   */\n      0x00\n        /* \"#utility.yul\":13171:13177   */\n      dup3\n        /* \"#utility.yul\":13167:13181   */\n      add\n        /* \"#utility.yul\":13160:13217   */\n      mstore\n        /* \"#utility.yul\":13043:13224   */\n      pop\n      jump\t// out\n        /* \"#utility.yul\":13230:13457   */\n    tag_187:\n        /* \"#utility.yul\":13370:13404   */\n      0x41424f41543a3a4552524f523a205377617020697320616c726561647920636f\n        /* \"#utility.yul\":13366:13367   */\n      0x00\n        /* \"#utility.yul\":13358:13364   */\n      dup3\n        /* \"#utility.yul\":13354:13368   */\n      add\n        /* \"#utility.yul\":13347:13405   */\n      mstore\n        /* \"#utility.yul\":13439:13449   */\n      0x6d706c6574656421000000000000000000000000000000000000000000000000\n        /* \"#utility.yul\":13434:13436   */\n      0x20\n        /* \"#utility.yul\":13426:13432   */\n      dup3\n        /* \"#utility.yul\":13422:13437   */\n      add\n        /* \"#utility.yul\":13415:13450   */\n      mstore\n        /* \"#utility.yul\":13230:13457   */\n      pop\n      jump\t// out\n        /* \"#utility.yul\":13463:13585   */\n    tag_111:\n        /* \"#utility.yul\":13536:13560   */\n      tag_258\n        /* \"#utility.yul\":13554:13559   */\n      dup2\n        /* \"#utility.yul\":13536:13560   */\n      tag_148\n      jump\t// in\n    tag_258:\n        /* \"#utility.yul\":13529:13534   */\n      dup2\n        /* \"#utility.yul\":13526:13561   */\n      eq\n        /* \"#utility.yul\":13516:13579   */\n      tag_259\n      jumpi\n        /* \"#utility.yul\":13575:13576   */\n      0x00\n        /* \"#utility.yul\":13572:13573   */\n      dup1\n        /* \"#utility.yul\":13565:13577   */\n      revert\n        /* \"#utility.yul\":13516:13579   */\n    tag_259:\n        /* \"#utility.yul\":13463:13585   */\n      pop\n      jump\t// out\n        /* \"#utility.yul\":13591:13707   */\n    tag_115:\n        /* \"#utility.yul\":13661:13682   */\n      tag_261\n        /* \"#utility.yul\":13676:13681   */\n      dup2\n        /* \"#utility.yul\":13661:13682   */\n      tag_238\n      jump\t// in\n    tag_261:\n        /* \"#utility.yul\":13654:13659   */\n      dup2\n        /* \"#utility.yul\":13651:13683   */\n      eq\n        /* \"#utility.yul\":13641:13701   */\n      tag_262\n      jumpi\n        /* \"#utility.yul\":13697:13698   */\n      0x00\n        /* \"#utility.yul\":13694:13695   */\n      dup1\n        /* \"#utility.yul\":13687:13699   */\n      revert\n        /* \"#utility.yul\":13641:13701   */\n    tag_262:\n        /* \"#utility.yul\":13591:13707   */\n      pop\n      jump\t// out\n        /* \"#utility.yul\":13713:13833   */\n    tag_119:\n        /* \"#utility.yul\":13785:13808   */\n      tag_264\n        /* \"#utility.yul\":13802:13807   */\n      dup2\n        /* \"#utility.yul\":13785:13808   */\n      tag_191\n      jump\t// in\n    tag_264:\n        /* \"#utility.yul\":13778:13783   */\n      dup2\n        /* \"#utility.yul\":13775:13809   */\n      eq\n        /* \"#utility.yul\":13765:13827   */\n      tag_265\n      jumpi\n        /* \"#utility.yul\":13823:13824   */\n      0x00\n        /* \"#utility.yul\":13820:13821   */\n      dup1\n        /* \"#utility.yul\":13813:13825   */\n      revert\n        /* \"#utility.yul\":13765:13827   */\n    tag_265:\n        /* \"#utility.yul\":13713:13833   */\n      pop\n      jump\t// out\n        /* \"#utility.yul\":13839:13961   */\n    tag_123:\n        /* \"#utility.yul\":13912:13936   */\n      tag_267\n        /* \"#utility.yul\":13930:13935   */\n      dup2\n        /* \"#utility.yul\":13912:13936   */\n      tag_195\n      jump\t// in\n    tag_267:\n        /* \"#utility.yul\":13905:13910   */\n      dup2\n        /* \"#utility.yul\":13902:13937   */\n      eq\n        /* \"#utility.yul\":13892:13955   */\n      tag_268\n      jumpi\n        /* \"#utility.yul\":13951:13952   */\n      0x00\n        /* \"#utility.yul\":13948:13949   */\n      dup1\n        /* \"#utility.yul\":13941:13953   */\n      revert\n        /* \"#utility.yul\":13892:13955   */\n    tag_268:\n        /* \"#utility.yul\":13839:13961   */\n      pop\n      jump\t// out\n\n    auxdata: 0xa26469706673582212203254a760f7aceee97e56d038e66a5e4bbe1e25809266a6a3e04b60a61244e54d64736f6c63430008070033\n}\n",
				"bytecode": {
					"linkReferences": {},
					"object": "60806040523480156200001157600080fd5b506040516200138c3803806200138c833981810160405281019062000037919062000189565b620000576200004b620000a660201b60201c565b620000ae60201b60201c565b6001808190555080600360006101000a81548173ffffffffffffffffffffffffffffffffffffffff021916908373ffffffffffffffffffffffffffffffffffffffff1602179055505062000222565b600033905090565b60008060009054906101000a900473ffffffffffffffffffffffffffffffffffffffff169050816000806101000a81548173ffffffffffffffffffffffffffffffffffffffff021916908373ffffffffffffffffffffffffffffffffffffffff1602179055508173ffffffffffffffffffffffffffffffffffffffff168173ffffffffffffffffffffffffffffffffffffffff167f8be0079c531659141344cd1fd0a4f28419497f9722a3daafe3b4186f6b6457e060405160405180910390a35050565b600081519050620001838162000208565b92915050565b600060208284031215620001a257620001a162000203565b5b6000620001b28482850162000172565b91505092915050565b6000620001c882620001e3565b9050919050565b6000620001dc82620001bb565b9050919050565b600073ffffffffffffffffffffffffffffffffffffffff82169050919050565b600080fd5b6200021381620001cf565b81146200021f57600080fd5b50565b61115a80620002326000396000f3fe608060405234801561001057600080fd5b50600436106100575760003560e01c8063715018a61461005c5780638da5cb5b1461006657806395ba827514610084578063b94a7c04146100a0578063f2fde38b146100d0575b600080fd5b6100646100ec565b005b61006e610174565b60405161007b9190610cb3565b60405180910390f35b61009e60048036038101906100999190610b05565b61019d565b005b6100ba60048036038101906100b59190610ac5565b6103f9565b6040516100c79190610e6a565b60405180910390f35b6100ea60048036038101906100e59190610a6b565b6105c0565b005b6100f46106b8565b73ffffffffffffffffffffffffffffffffffffffff16610112610174565b73ffffffffffffffffffffffffffffffffffffffff1614610168576040517f08c379a000000000000000000000000000000000000000000000000000000000815260040161015f90610d6e565b60405180910390fd5b61017260006106c0565b565b60008060009054906101000a900473ffffffffffffffffffffffffffffffffffffffff16905090565b6101a56106b8565b73ffffffffffffffffffffffffffffffffffffffff166101c3610174565b73ffffffffffffffffffffffffffffffffffffffff1614610219576040517f08c379a000000000000000000000000000000000000000000000000000000000815260040161021090610d6e565b60405180910390fd5b81600560008561ffff1661ffff168152602001908152602001600020600084815260200190815260200160002060040154141561028b576040517f08c379a000000000000000000000000000000000000000000000000000000000815260040161028290610dce565b60405180910390fd5b60006040518060a001604052808561ffff1681526020018681526020018373ffffffffffffffffffffffffffffffffffffffff16815260200142815260200184815250905080600560008661ffff1661ffff168152602001908152602001600020600085815260200190815260200160002060008201518160000160006101000a81548161ffff021916908361ffff1602179055506020820151816001015560408201518160020160006101000a81548173ffffffffffffffffffffffffffffffffffffffff021916908373ffffffffffffffffffffffffffffffffffffffff16021790555060608201518160030155608082015181600401559050506103b5600360009054906101000a900473ffffffffffffffffffffffffffffffffffffffff168387610784565b7faff796c9727abb3ecd626e88beef4ed7b207ee1e114ddcc896552d267ef524f0848684866040516103ea9493929190610e25565b60405180910390a15050505050565b600060026001541415610441576040517f08c379a000000000000000000000000000000000000000000000000000000000815260040161043890610dae565b60405180910390fd5b6002600181905550610477600360009054906101000a900473ffffffffffffffffffffffffffffffffffffffff163330866108ba565b600061048360026109f3565b905061048f6002610a01565b60006040518060a001604052808561ffff1681526020018681526020013373ffffffffffffffffffffffffffffffffffffffff168152602001428152602001838152509050806004600084815260200190815260200160002060008201518160000160006101000a81548161ffff021916908361ffff1602179055506020820151816001015560408201518160020160006101000a81548173ffffffffffffffffffffffffffffffffffffffff021916908373ffffffffffffffffffffffffffffffffffffffff16021790555060608201518160030155608082015181600401559050507f98cc25f7a877454dc4170abed318d6bb434a60c701f1a538fd86fe8f6091e12f8486336040516105a693929190610dee565b60405180910390a181925050506001808190555092915050565b6105c86106b8565b73ffffffffffffffffffffffffffffffffffffffff166105e6610174565b73ffffffffffffffffffffffffffffffffffffffff161461063c576040517f08c379a000000000000000000000000000000000000000000000000000000000815260040161063390610d6e565b60405180910390fd5b600073ffffffffffffffffffffffffffffffffffffffff168173ffffffffffffffffffffffffffffffffffffffff1614156106ac576040517f08c379a00000000000000000000000000000000000000000000000000000000081526004016106a390610d2e565b60405180910390fd5b6106b5816106c0565b50565b600033905090565b60008060009054906101000a900473ffffffffffffffffffffffffffffffffffffffff169050816000806101000a81548173ffffffffffffffffffffffffffffffffffffffff021916908373ffffffffffffffffffffffffffffffffffffffff1602179055508173ffffffffffffffffffffffffffffffffffffffff168173ffffffffffffffffffffffffffffffffffffffff167f8be0079c531659141344cd1fd0a4f28419497f9722a3daafe3b4186f6b6457e060405160405180910390a35050565b6000808473ffffffffffffffffffffffffffffffffffffffff1663a9059cbb85856040516024016107b6929190610d05565b6040516020818303038152906040529060e01b6020820180517bffffffffffffffffffffffffffffffffffffffffffffffffffffffff83818316178352505050506040516108049190610c9c565b6000604051808303816000865af19150503d8060008114610841576040519150601f19603f3d011682016040523d82523d6000602084013e610846565b606091505b509150915081801561087457506000815114806108735750808060200190518101906108729190610a98565b5b5b6108b3576040517f08c379a00000000000000000000000000000000000000000000000000000000081526004016108aa90610d8e565b60405180910390fd5b5050505050565b6000808573ffffffffffffffffffffffffffffffffffffffff166323b872dd8686866040516024016108ee93929190610cce565b6040516020818303038152906040529060e01b6020820180517bffffffffffffffffffffffffffffffffffffffffffffffffffffffff838183161783525050505060405161093c9190610c9c565b6000604051808303816000865af19150503d8060008114610979576040519150601f19603f3d011682016040523d82523d6000602084013e61097e565b606091505b50915091508180156109ac57506000815114806109ab5750808060200190518101906109aa9190610a98565b5b5b6109eb576040517f08c379a00000000000000000000000000000000000000000000000000000000081526004016109e290610d4e565b60405180910390fd5b505050505050565b600081600001549050919050565b6001816000016000828254019250508190555050565b600081359050610a26816110c8565b92915050565b600081519050610a3b816110df565b92915050565b600081359050610a50816110f6565b92915050565b600081359050610a658161110d565b92915050565b600060208284031215610a8157610a80610f35565b5b6000610a8f84828501610a17565b91505092915050565b600060208284031215610aae57610aad610f35565b5b6000610abc84828501610a2c565b91505092915050565b60008060408385031215610adc57610adb610f35565b5b6000610aea85828601610a56565b9250506020610afb85828601610a41565b9150509250929050565b60008060008060808587031215610b1f57610b1e610f35565b5b6000610b2d87828801610a56565b9450506020610b3e87828801610a41565b9350506040610b4f87828801610a56565b9250506060610b6087828801610a17565b91505092959194509250565b610b7581610eac565b82525050565b6000610b8682610e85565b610b908185610e90565b9350610ba0818560208601610f02565b80840191505092915050565b6000610bb9602683610e9b565b9150610bc482610f3a565b604082019050919050565b6000610bdc603183610e9b565b9150610be782610f89565b604082019050919050565b6000610bff602083610e9b565b9150610c0a82610fd8565b602082019050919050565b6000610c22602d83610e9b565b9150610c2d82611001565b604082019050919050565b6000610c45601f83610e9b565b9150610c5082611050565b602082019050919050565b6000610c68602883610e9b565b9150610c7382611079565b604082019050919050565b610c8781610eca565b82525050565b610c9681610ef8565b82525050565b6000610ca88284610b7b565b915081905092915050565b6000602082019050610cc86000830184610b6c565b92915050565b6000606082019050610ce36000830186610b6c565b610cf06020830185610b6c565b610cfd6040830184610c8d565b949350505050565b6000604082019050610d1a6000830185610b6c565b610d276020830184610c8d565b9392505050565b60006020820190508181036000830152610d4781610bac565b9050919050565b60006020820190508181036000830152610d6781610bcf565b9050919050565b60006020820190508181036000830152610d8781610bf2565b9050919050565b60006020820190508181036000830152610da781610c15565b9050919050565b60006020820190508181036000830152610dc781610c38565b9050919050565b60006020820190508181036000830152610de781610c5b565b9050919050565b6000606082019050610e036000830186610c7e565b610e106020830185610c8d565b610e1d6040830184610b6c565b949350505050565b6000608082019050610e3a6000830187610c7e565b610e476020830186610c8d565b610e546040830185610b6c565b610e616060830184610c8d565b95945050505050565b6000602082019050610e7f6000830184610c8d565b92915050565b600081519050919050565b600081905092915050565b600082825260208201905092915050565b6000610eb782610ed8565b9050919050565b60008115159050919050565b600061ffff82169050919050565b600073ffffffffffffffffffffffffffffffffffffffff82169050919050565b6000819050919050565b60005b83811015610f20578082015181840152602081019050610f05565b83811115610f2f576000848401525b50505050565b600080fd5b7f4f776e61626c653a206e6577206f776e657220697320746865207a65726f206160008201527f6464726573730000000000000000000000000000000000000000000000000000602082015250565b7f5472616e7366657248656c7065723a3a7472616e7366657246726f6d3a20747260008201527f616e7366657246726f6d206661696c6564000000000000000000000000000000602082015250565b7f4f776e61626c653a2063616c6c6572206973206e6f7420746865206f776e6572600082015250565b7f5472616e7366657248656c7065723a3a736166655472616e736665723a20747260008201527f616e73666572206661696c656400000000000000000000000000000000000000602082015250565b7f5265656e7472616e637947756172643a207265656e7472616e742063616c6c00600082015250565b7f41424f41543a3a4552524f523a205377617020697320616c726561647920636f60008201527f6d706c6574656421000000000000000000000000000000000000000000000000602082015250565b6110d181610eac565b81146110dc57600080fd5b50565b6110e881610ebe565b81146110f357600080fd5b50565b6110ff81610eca565b811461110a57600080fd5b50565b61111681610ef8565b811461112157600080fd5b5056fea26469706673582212203254a760f7aceee97e56d038e66a5e4bbe1e25809266a6a3e04b60a61244e54d64736f6c63430008070033",
					"opcodes": "PUSH1 0x80 PUSH1 0x40 MSTORE CALLVALUE DUP1 ISZERO PUSH3 0x11 JUMPI PUSH1 0x0 DUP1 REVERT JUMPDEST POP PUSH1 0x40 MLOAD PUSH3 0x138C CODESIZE SUB DUP1 PUSH3 0x138C DUP4 CODECOPY DUP2 DUP2 ADD PUSH1 0x40 MSTORE DUP2 ADD SWAP1 PUSH3 0x37 SWAP2 SWAP1 PUSH3 0x189 JUMP JUMPDEST PUSH3 0x57 PUSH3 0x4B PUSH3 0xA6 PUSH1 0x20 SHL PUSH1 0x20 SHR JUMP JUMPDEST PUSH3 0xAE PUSH1 0x20 SHL PUSH1 0x20 SHR JUMP JUMPDEST PUSH1 0x1 DUP1 DUP2 SWAP1 SSTORE POP DUP1 PUSH1 0x3 PUSH1 0x0 PUSH2 0x100 EXP DUP2 SLOAD DUP2 PUSH20 0xFFFFFFFFFFFFFFFFFFFFFFFFFFFFFFFFFFFFFFFF MUL NOT AND SWAP1 DUP4 PUSH20 0xFFFFFFFFFFFFFFFFFFFFFFFFFFFFFFFFFFFFFFFF AND MUL OR SWAP1 SSTORE POP POP PUSH3 0x222 JUMP JUMPDEST PUSH1 0x0 CALLER SWAP1 POP SWAP1 JUMP JUMPDEST PUSH1 0x0 DUP1 PUSH1 0x0 SWAP1 SLOAD SWAP1 PUSH2 0x100 EXP SWAP1 DIV PUSH20 0xFFFFFFFFFFFFFFFFFFFFFFFFFFFFFFFFFFFFFFFF AND SWAP1 POP DUP2 PUSH1 0x0 DUP1 PUSH2 0x100 EXP DUP2 SLOAD DUP2 PUSH20 0xFFFFFFFFFFFFFFFFFFFFFFFFFFFFFFFFFFFFFFFF MUL NOT AND SWAP1 DUP4 PUSH20 0xFFFFFFFFFFFFFFFFFFFFFFFFFFFFFFFFFFFFFFFF AND MUL OR SWAP1 SSTORE POP DUP2 PUSH20 0xFFFFFFFFFFFFFFFFFFFFFFFFFFFFFFFFFFFFFFFF AND DUP2 PUSH20 0xFFFFFFFFFFFFFFFFFFFFFFFFFFFFFFFFFFFFFFFF AND PUSH32 0x8BE0079C531659141344CD1FD0A4F28419497F9722A3DAAFE3B4186F6B6457E0 PUSH1 0x40 MLOAD PUSH1 0x40 MLOAD DUP1 SWAP2 SUB SWAP1 LOG3 POP POP JUMP JUMPDEST PUSH1 0x0 DUP2 MLOAD SWAP1 POP PUSH3 0x183 DUP2 PUSH3 0x208 JUMP JUMPDEST SWAP3 SWAP2 POP POP JUMP JUMPDEST PUSH1 0x0 PUSH1 0x20 DUP3 DUP5 SUB SLT ISZERO PUSH3 0x1A2 JUMPI PUSH3 0x1A1 PUSH3 0x203 JUMP JUMPDEST JUMPDEST PUSH1 0x0 PUSH3 0x1B2 DUP5 DUP3 DUP6 ADD PUSH3 0x172 JUMP JUMPDEST SWAP2 POP POP SWAP3 SWAP2 POP POP JUMP JUMPDEST PUSH1 0x0 PUSH3 0x1C8 DUP3 PUSH3 0x1E3 JUMP JUMPDEST SWAP1 POP SWAP2 SWAP1 POP JUMP JUMPDEST PUSH1 0x0 PUSH3 0x1DC DUP3 PUSH3 0x1BB JUMP JUMPDEST SWAP1 POP SWAP2 SWAP1 POP JUMP JUMPDEST PUSH1 0x0 PUSH20 0xFFFFFFFFFFFFFFFFFFFFFFFFFFFFFFFFFFFFFFFF DUP3 AND SWAP1 POP SWAP2 SWAP1 POP JUMP JUMPDEST PUSH1 0x0 DUP1 REVERT JUMPDEST PUSH3 0x213 DUP2 PUSH3 0x1CF JUMP JUMPDEST DUP2 EQ PUSH3 0x21F JUMPI PUSH1 0x0 DUP1 REVERT JUMPDEST POP JUMP JUMPDEST PUSH2 0x115A DUP1 PUSH3 0x232 PUSH1 0x0 CODECOPY PUSH1 0x0 RETURN INVALID PUSH1 0x80 PUSH1 0x40 MSTORE CALLVALUE DUP1 ISZERO PUSH2 0x10 JUMPI PUSH1 0x0 DUP1 REVERT JUMPDEST POP PUSH1 0x4 CALLDATASIZE LT PUSH2 0x57 JUMPI PUSH1 0x0 CALLDATALOAD PUSH1 0xE0 SHR DUP1 PUSH4 0x715018A6 EQ PUSH2 0x5C JUMPI DUP1 PUSH4 0x8DA5CB5B EQ PUSH2 0x66 JUMPI DUP1 PUSH4 0x95BA8275 EQ PUSH2 0x84 JUMPI DUP1 PUSH4 0xB94A7C04 EQ PUSH2 0xA0 JUMPI DUP1 PUSH4 0xF2FDE38B EQ PUSH2 0xD0 JUMPI JUMPDEST PUSH1 0x0 DUP1 REVERT JUMPDEST PUSH2 0x64 PUSH2 0xEC JUMP JUMPDEST STOP JUMPDEST PUSH2 0x6E PUSH2 0x174 JUMP JUMPDEST PUSH1 0x40 MLOAD PUSH2 0x7B SWAP2 SWAP1 PUSH2 0xCB3 JUMP JUMPDEST PUSH1 0x40 MLOAD DUP1 SWAP2 SUB SWAP1 RETURN JUMPDEST PUSH2 0x9E PUSH1 0x4 DUP1 CALLDATASIZE SUB DUP2 ADD SWAP1 PUSH2 0x99 SWAP2 SWAP1 PUSH2 0xB05 JUMP JUMPDEST PUSH2 0x19D JUMP JUMPDEST STOP JUMPDEST PUSH2 0xBA PUSH1 0x4 DUP1 CALLDATASIZE SUB DUP2 ADD SWAP1 PUSH2 0xB5 SWAP2 SWAP1 PUSH2 0xAC5 JUMP JUMPDEST PUSH2 0x3F9 JUMP JUMPDEST PUSH1 0x40 MLOAD PUSH2 0xC7 SWAP2 SWAP1 PUSH2 0xE6A JUMP JUMPDEST PUSH1 0x40 MLOAD DUP1 SWAP2 SUB SWAP1 RETURN JUMPDEST PUSH2 0xEA PUSH1 0x4 DUP1 CALLDATASIZE SUB DUP2 ADD SWAP1 PUSH2 0xE5 SWAP2 SWAP1 PUSH2 0xA6B JUMP JUMPDEST PUSH2 0x5C0 JUMP JUMPDEST STOP JUMPDEST PUSH2 0xF4 PUSH2 0x6B8 JUMP JUMPDEST PUSH20 0xFFFFFFFFFFFFFFFFFFFFFFFFFFFFFFFFFFFFFFFF AND PUSH2 0x112 PUSH2 0x174 JUMP JUMPDEST PUSH20 0xFFFFFFFFFFFFFFFFFFFFFFFFFFFFFFFFFFFFFFFF AND EQ PUSH2 0x168 JUMPI PUSH1 0x40 MLOAD PUSH32 0x8C379A000000000000000000000000000000000000000000000000000000000 DUP2 MSTORE PUSH1 0x4 ADD PUSH2 0x15F SWAP1 PUSH2 0xD6E JUMP JUMPDEST PUSH1 0x40 MLOAD DUP1 SWAP2 SUB SWAP1 REVERT JUMPDEST PUSH2 0x172 PUSH1 0x0 PUSH2 0x6C0 JUMP JUMPDEST JUMP JUMPDEST PUSH1 0x0 DUP1 PUSH1 0x0 SWAP1 SLOAD SWAP1 PUSH2 0x100 EXP SWAP1 DIV PUSH20 0xFFFFFFFFFFFFFFFFFFFFFFFFFFFFFFFFFFFFFFFF AND SWAP1 POP SWAP1 JUMP JUMPDEST PUSH2 0x1A5 PUSH2 0x6B8 JUMP JUMPDEST PUSH20 0xFFFFFFFFFFFFFFFFFFFFFFFFFFFFFFFFFFFFFFFF AND PUSH2 0x1C3 PUSH2 0x174 JUMP JUMPDEST PUSH20 0xFFFFFFFFFFFFFFFFFFFFFFFFFFFFFFFFFFFFFFFF AND EQ PUSH2 0x219 JUMPI PUSH1 0x40 MLOAD PUSH32 0x8C379A000000000000000000000000000000000000000000000000000000000 DUP2 MSTORE PUSH1 0x4 ADD PUSH2 0x210 SWAP1 PUSH2 0xD6E JUMP JUMPDEST PUSH1 0x40 MLOAD DUP1 SWAP2 SUB SWAP1 REVERT JUMPDEST DUP2 PUSH1 0x5 PUSH1 0x0 DUP6 PUSH2 0xFFFF AND PUSH2 0xFFFF AND DUP2 MSTORE PUSH1 0x20 ADD SWAP1 DUP2 MSTORE PUSH1 0x20 ADD PUSH1 0x0 KECCAK256 PUSH1 0x0 DUP5 DUP2 MSTORE PUSH1 0x20 ADD SWAP1 DUP2 MSTORE PUSH1 0x20 ADD PUSH1 0x0 KECCAK256 PUSH1 0x4 ADD SLOAD EQ ISZERO PUSH2 0x28B JUMPI PUSH1 0x40 MLOAD PUSH32 0x8C379A000000000000000000000000000000000000000000000000000000000 DUP2 MSTORE PUSH1 0x4 ADD PUSH2 0x282 SWAP1 PUSH2 0xDCE JUMP JUMPDEST PUSH1 0x40 MLOAD DUP1 SWAP2 SUB SWAP1 REVERT JUMPDEST PUSH1 0x0 PUSH1 0x40 MLOAD DUP1 PUSH1 0xA0 ADD PUSH1 0x40 MSTORE DUP1 DUP6 PUSH2 0xFFFF AND DUP2 MSTORE PUSH1 0x20 ADD DUP7 DUP2 MSTORE PUSH1 0x20 ADD DUP4 PUSH20 0xFFFFFFFFFFFFFFFFFFFFFFFFFFFFFFFFFFFFFFFF AND DUP2 MSTORE PUSH1 0x20 ADD TIMESTAMP DUP2 MSTORE PUSH1 0x20 ADD DUP5 DUP2 MSTORE POP SWAP1 POP DUP1 PUSH1 0x5 PUSH1 0x0 DUP7 PUSH2 0xFFFF AND PUSH2 0xFFFF AND DUP2 MSTORE PUSH1 0x20 ADD SWAP1 DUP2 MSTORE PUSH1 0x20 ADD PUSH1 0x0 KECCAK256 PUSH1 0x0 DUP6 DUP2 MSTORE PUSH1 0x20 ADD SWAP1 DUP2 MSTORE PUSH1 0x20 ADD PUSH1 0x0 KECCAK256 PUSH1 0x0 DUP3 ADD MLOAD DUP2 PUSH1 0x0 ADD PUSH1 0x0 PUSH2 0x100 EXP DUP2 SLOAD DUP2 PUSH2 0xFFFF MUL NOT AND SWAP1 DUP4 PUSH2 0xFFFF AND MUL OR SWAP1 SSTORE POP PUSH1 0x20 DUP3 ADD MLOAD DUP2 PUSH1 0x1 ADD SSTORE PUSH1 0x40 DUP3 ADD MLOAD DUP2 PUSH1 0x2 ADD PUSH1 0x0 PUSH2 0x100 EXP DUP2 SLOAD DUP2 PUSH20 0xFFFFFFFFFFFFFFFFFFFFFFFFFFFFFFFFFFFFFFFF MUL NOT AND SWAP1 DUP4 PUSH20 0xFFFFFFFFFFFFFFFFFFFFFFFFFFFFFFFFFFFFFFFF AND MUL OR SWAP1 SSTORE POP PUSH1 0x60 DUP3 ADD MLOAD DUP2 PUSH1 0x3 ADD SSTORE PUSH1 0x80 DUP3 ADD MLOAD DUP2 PUSH1 0x4 ADD SSTORE SWAP1 POP POP PUSH2 0x3B5 PUSH1 0x3 PUSH1 0x0 SWAP1 SLOAD SWAP1 PUSH2 0x100 EXP SWAP1 DIV PUSH20 0xFFFFFFFFFFFFFFFFFFFFFFFFFFFFFFFFFFFFFFFF AND DUP4 DUP8 PUSH2 0x784 JUMP JUMPDEST PUSH32 0xAFF796C9727ABB3ECD626E88BEEF4ED7B207EE1E114DDCC896552D267EF524F0 DUP5 DUP7 DUP5 DUP7 PUSH1 0x40 MLOAD PUSH2 0x3EA SWAP5 SWAP4 SWAP3 SWAP2 SWAP1 PUSH2 0xE25 JUMP JUMPDEST PUSH1 0x40 MLOAD DUP1 SWAP2 SUB SWAP1 LOG1 POP POP POP POP POP JUMP JUMPDEST PUSH1 0x0 PUSH1 0x2 PUSH1 0x1 SLOAD EQ ISZERO PUSH2 0x441 JUMPI PUSH1 0x40 MLOAD PUSH32 0x8C379A000000000000000000000000000000000000000000000000000000000 DUP2 MSTORE PUSH1 0x4 ADD PUSH2 0x438 SWAP1 PUSH2 0xDAE JUMP JUMPDEST PUSH1 0x40 MLOAD DUP1 SWAP2 SUB SWAP1 REVERT JUMPDEST PUSH1 0x2 PUSH1 0x1 DUP2 SWAP1 SSTORE POP PUSH2 0x477 PUSH1 0x3 PUSH1 0x0 SWAP1 SLOAD SWAP1 PUSH2 0x100 EXP SWAP1 DIV PUSH20 0xFFFFFFFFFFFFFFFFFFFFFFFFFFFFFFFFFFFFFFFF AND CALLER ADDRESS DUP7 PUSH2 0x8BA JUMP JUMPDEST PUSH1 0x0 PUSH2 0x483 PUSH1 0x2 PUSH2 0x9F3 JUMP JUMPDEST SWAP1 POP PUSH2 0x48F PUSH1 0x2 PUSH2 0xA01 JUMP JUMPDEST PUSH1 0x0 PUSH1 0x40 MLOAD DUP1 PUSH1 0xA0 ADD PUSH1 0x40 MSTORE DUP1 DUP6 PUSH2 0xFFFF AND DUP2 MSTORE PUSH1 0x20 ADD DUP7 DUP2 MSTORE PUSH1 0x20 ADD CALLER PUSH20 0xFFFFFFFFFFFFFFFFFFFFFFFFFFFFFFFFFFFFFFFF AND DUP2 MSTORE PUSH1 0x20 ADD TIMESTAMP DUP2 MSTORE PUSH1 0x20 ADD DUP4 DUP2 MSTORE POP SWAP1 POP DUP1 PUSH1 0x4 PUSH1 0x0 DUP5 DUP2 MSTORE PUSH1 0x20 ADD SWAP1 DUP2 MSTORE PUSH1 0x20 ADD PUSH1 0x0 KECCAK256 PUSH1 0x0 DUP3 ADD MLOAD DUP2 PUSH1 0x0 ADD PUSH1 0x0 PUSH2 0x100 EXP DUP2 SLOAD DUP2 PUSH2 0xFFFF MUL NOT AND SWAP1 DUP4 PUSH2 0xFFFF AND MUL OR SWAP1 SSTORE POP PUSH1 0x20 DUP3 ADD MLOAD DUP2 PUSH1 0x1 ADD SSTORE PUSH1 0x40 DUP3 ADD MLOAD DUP2 PUSH1 0x2 ADD PUSH1 0x0 PUSH2 0x100 EXP DUP2 SLOAD DUP2 PUSH20 0xFFFFFFFFFFFFFFFFFFFFFFFFFFFFFFFFFFFFFFFF MUL NOT AND SWAP1 DUP4 PUSH20 0xFFFFFFFFFFFFFFFFFFFFFFFFFFFFFFFFFFFFFFFF AND MUL OR SWAP1 SSTORE POP PUSH1 0x60 DUP3 ADD MLOAD DUP2 PUSH1 0x3 ADD SSTORE PUSH1 0x80 DUP3 ADD MLOAD DUP2 PUSH1 0x4 ADD SSTORE SWAP1 POP POP PUSH32 0x98CC25F7A877454DC4170ABED318D6BB434A60C701F1A538FD86FE8F6091E12F DUP5 DUP7 CALLER PUSH1 0x40 MLOAD PUSH2 0x5A6 SWAP4 SWAP3 SWAP2 SWAP1 PUSH2 0xDEE JUMP JUMPDEST PUSH1 0x40 MLOAD DUP1 SWAP2 SUB SWAP1 LOG1 DUP2 SWAP3 POP POP POP PUSH1 0x1 DUP1 DUP2 SWAP1 SSTORE POP SWAP3 SWAP2 POP POP JUMP JUMPDEST PUSH2 0x5C8 PUSH2 0x6B8 JUMP JUMPDEST PUSH20 0xFFFFFFFFFFFFFFFFFFFFFFFFFFFFFFFFFFFFFFFF AND PUSH2 0x5E6 PUSH2 0x174 JUMP JUMPDEST PUSH20 0xFFFFFFFFFFFFFFFFFFFFFFFFFFFFFFFFFFFFFFFF AND EQ PUSH2 0x63C JUMPI PUSH1 0x40 MLOAD PUSH32 0x8C379A000000000000000000000000000000000000000000000000000000000 DUP2 MSTORE PUSH1 0x4 ADD PUSH2 0x633 SWAP1 PUSH2 0xD6E JUMP JUMPDEST PUSH1 0x40 MLOAD DUP1 SWAP2 SUB SWAP1 REVERT JUMPDEST PUSH1 0x0 PUSH20 0xFFFFFFFFFFFFFFFFFFFFFFFFFFFFFFFFFFFFFFFF AND DUP2 PUSH20 0xFFFFFFFFFFFFFFFFFFFFFFFFFFFFFFFFFFFFFFFF AND EQ ISZERO PUSH2 0x6AC JUMPI PUSH1 0x40 MLOAD PUSH32 0x8C379A000000000000000000000000000000000000000000000000000000000 DUP2 MSTORE PUSH1 0x4 ADD PUSH2 0x6A3 SWAP1 PUSH2 0xD2E JUMP JUMPDEST PUSH1 0x40 MLOAD DUP1 SWAP2 SUB SWAP1 REVERT JUMPDEST PUSH2 0x6B5 DUP2 PUSH2 0x6C0 JUMP JUMPDEST POP JUMP JUMPDEST PUSH1 0x0 CALLER SWAP1 POP SWAP1 JUMP JUMPDEST PUSH1 0x0 DUP1 PUSH1 0x0 SWAP1 SLOAD SWAP1 PUSH2 0x100 EXP SWAP1 DIV PUSH20 0xFFFFFFFFFFFFFFFFFFFFFFFFFFFFFFFFFFFFFFFF AND SWAP1 POP DUP2 PUSH1 0x0 DUP1 PUSH2 0x100 EXP DUP2 SLOAD DUP2 PUSH20 0xFFFFFFFFFFFFFFFFFFFFFFFFFFFFFFFFFFFFFFFF MUL NOT AND SWAP1 DUP4 PUSH20 0xFFFFFFFFFFFFFFFFFFFFFFFFFFFFFFFFFFFFFFFF AND MUL OR SWAP1 SSTORE POP DUP2 PUSH20 0xFFFFFFFFFFFFFFFFFFFFFFFFFFFFFFFFFFFFFFFF AND DUP2 PUSH20 0xFFFFFFFFFFFFFFFFFFFFFFFFFFFFFFFFFFFFFFFF AND PUSH32 0x8BE0079C531659141344CD1FD0A4F28419497F9722A3DAAFE3B4186F6B6457E0 PUSH1 0x40 MLOAD PUSH1 0x40 MLOAD DUP1 SWAP2 SUB SWAP1 LOG3 POP POP JUMP JUMPDEST PUSH1 0x0 DUP1 DUP5 PUSH20 0xFFFFFFFFFFFFFFFFFFFFFFFFFFFFFFFFFFFFFFFF AND PUSH4 0xA9059CBB DUP6 DUP6 PUSH1 0x40 MLOAD PUSH1 0x24 ADD PUSH2 0x7B6 SWAP3 SWAP2 SWAP1 PUSH2 0xD05 JUMP JUMPDEST PUSH1 0x40 MLOAD PUSH1 0x20 DUP2 DUP4 SUB SUB DUP2 MSTORE SWAP1 PUSH1 0x40 MSTORE SWAP1 PUSH1 0xE0 SHL PUSH1 0x20 DUP3 ADD DUP1 MLOAD PUSH28 0xFFFFFFFFFFFFFFFFFFFFFFFFFFFFFFFFFFFFFFFFFFFFFFFFFFFFFFFF DUP4 DUP2 DUP4 AND OR DUP4 MSTORE POP POP POP POP PUSH1 0x40 MLOAD PUSH2 0x804 SWAP2 SWAP1 PUSH2 0xC9C JUMP JUMPDEST PUSH1 0x0 PUSH1 0x40 MLOAD DUP1 DUP4 SUB DUP2 PUSH1 0x0 DUP7 GAS CALL SWAP2 POP POP RETURNDATASIZE DUP1 PUSH1 0x0 DUP2 EQ PUSH2 0x841 JUMPI PUSH1 0x40 MLOAD SWAP2 POP PUSH1 0x1F NOT PUSH1 0x3F RETURNDATASIZE ADD AND DUP3 ADD PUSH1 0x40 MSTORE RETURNDATASIZE DUP3 MSTORE RETURNDATASIZE PUSH1 0x0 PUSH1 0x20 DUP5 ADD RETURNDATACOPY PUSH2 0x846 JUMP JUMPDEST PUSH1 0x60 SWAP2 POP JUMPDEST POP SWAP2 POP SWAP2 POP DUP2 DUP1 ISZERO PUSH2 0x874 JUMPI POP PUSH1 0x0 DUP2 MLOAD EQ DUP1 PUSH2 0x873 JUMPI POP DUP1 DUP1 PUSH1 0x20 ADD SWAP1 MLOAD DUP2 ADD SWAP1 PUSH2 0x872 SWAP2 SWAP1 PUSH2 0xA98 JUMP JUMPDEST JUMPDEST JUMPDEST PUSH2 0x8B3 JUMPI PUSH1 0x40 MLOAD PUSH32 0x8C379A000000000000000000000000000000000000000000000000000000000 DUP2 MSTORE PUSH1 0x4 ADD PUSH2 0x8AA SWAP1 PUSH2 0xD8E JUMP JUMPDEST PUSH1 0x40 MLOAD DUP1 SWAP2 SUB SWAP1 REVERT JUMPDEST POP POP POP POP POP JUMP JUMPDEST PUSH1 0x0 DUP1 DUP6 PUSH20 0xFFFFFFFFFFFFFFFFFFFFFFFFFFFFFFFFFFFFFFFF AND PUSH4 0x23B872DD DUP7 DUP7 DUP7 PUSH1 0x40 MLOAD PUSH1 0x24 ADD PUSH2 0x8EE SWAP4 SWAP3 SWAP2 SWAP1 PUSH2 0xCCE JUMP JUMPDEST PUSH1 0x40 MLOAD PUSH1 0x20 DUP2 DUP4 SUB SUB DUP2 MSTORE SWAP1 PUSH1 0x40 MSTORE SWAP1 PUSH1 0xE0 SHL PUSH1 0x20 DUP3 ADD DUP1 MLOAD PUSH28 0xFFFFFFFFFFFFFFFFFFFFFFFFFFFFFFFFFFFFFFFFFFFFFFFFFFFFFFFF DUP4 DUP2 DUP4 AND OR DUP4 MSTORE POP POP POP POP PUSH1 0x40 MLOAD PUSH2 0x93C SWAP2 SWAP1 PUSH2 0xC9C JUMP JUMPDEST PUSH1 0x0 PUSH1 0x40 MLOAD DUP1 DUP4 SUB DUP2 PUSH1 0x0 DUP7 GAS CALL SWAP2 POP POP RETURNDATASIZE DUP1 PUSH1 0x0 DUP2 EQ PUSH2 0x979 JUMPI PUSH1 0x40 MLOAD SWAP2 POP PUSH1 0x1F NOT PUSH1 0x3F RETURNDATASIZE ADD AND DUP3 ADD PUSH1 0x40 MSTORE RETURNDATASIZE DUP3 MSTORE RETURNDATASIZE PUSH1 0x0 PUSH1 0x20 DUP5 ADD RETURNDATACOPY PUSH2 0x97E JUMP JUMPDEST PUSH1 0x60 SWAP2 POP JUMPDEST POP SWAP2 POP SWAP2 POP DUP2 DUP1 ISZERO PUSH2 0x9AC JUMPI POP PUSH1 0x0 DUP2 MLOAD EQ DUP1 PUSH2 0x9AB JUMPI POP DUP1 DUP1 PUSH1 0x20 ADD SWAP1 MLOAD DUP2 ADD SWAP1 PUSH2 0x9AA SWAP2 SWAP1 PUSH2 0xA98 JUMP JUMPDEST JUMPDEST JUMPDEST PUSH2 0x9EB JUMPI PUSH1 0x40 MLOAD PUSH32 0x8C379A000000000000000000000000000000000000000000000000000000000 DUP2 MSTORE PUSH1 0x4 ADD PUSH2 0x9E2 SWAP1 PUSH2 0xD4E JUMP JUMPDEST PUSH1 0x40 MLOAD DUP1 SWAP2 SUB SWAP1 REVERT JUMPDEST POP POP POP POP POP POP JUMP JUMPDEST PUSH1 0x0 DUP2 PUSH1 0x0 ADD SLOAD SWAP1 POP SWAP2 SWAP1 POP JUMP JUMPDEST PUSH1 0x1 DUP2 PUSH1 0x0 ADD PUSH1 0x0 DUP3 DUP3 SLOAD ADD SWAP3 POP POP DUP2 SWAP1 SSTORE POP POP JUMP JUMPDEST PUSH1 0x0 DUP2 CALLDATALOAD SWAP1 POP PUSH2 0xA26 DUP2 PUSH2 0x10C8 JUMP JUMPDEST SWAP3 SWAP2 POP POP JUMP JUMPDEST PUSH1 0x0 DUP2 MLOAD SWAP1 POP PUSH2 0xA3B DUP2 PUSH2 0x10DF JUMP JUMPDEST SWAP3 SWAP2 POP POP JUMP JUMPDEST PUSH1 0x0 DUP2 CALLDATALOAD SWAP1 POP PUSH2 0xA50 DUP2 PUSH2 0x10F6 JUMP JUMPDEST SWAP3 SWAP2 POP POP JUMP JUMPDEST PUSH1 0x0 DUP2 CALLDATALOAD SWAP1 POP PUSH2 0xA65 DUP2 PUSH2 0x110D JUMP JUMPDEST SWAP3 SWAP2 POP POP JUMP JUMPDEST PUSH1 0x0 PUSH1 0x20 DUP3 DUP5 SUB SLT ISZERO PUSH2 0xA81 JUMPI PUSH2 0xA80 PUSH2 0xF35 JUMP JUMPDEST JUMPDEST PUSH1 0x0 PUSH2 0xA8F DUP5 DUP3 DUP6 ADD PUSH2 0xA17 JUMP JUMPDEST SWAP2 POP POP SWAP3 SWAP2 POP POP JUMP JUMPDEST PUSH1 0x0 PUSH1 0x20 DUP3 DUP5 SUB SLT ISZERO PUSH2 0xAAE JUMPI PUSH2 0xAAD PUSH2 0xF35 JUMP JUMPDEST JUMPDEST PUSH1 0x0 PUSH2 0xABC DUP5 DUP3 DUP6 ADD PUSH2 0xA2C JUMP JUMPDEST SWAP2 POP POP SWAP3 SWAP2 POP POP JUMP JUMPDEST PUSH1 0x0 DUP1 PUSH1 0x40 DUP4 DUP6 SUB SLT ISZERO PUSH2 0xADC JUMPI PUSH2 0xADB PUSH2 0xF35 JUMP JUMPDEST JUMPDEST PUSH1 0x0 PUSH2 0xAEA DUP6 DUP3 DUP7 ADD PUSH2 0xA56 JUMP JUMPDEST SWAP3 POP POP PUSH1 0x20 PUSH2 0xAFB DUP6 DUP3 DUP7 ADD PUSH2 0xA41 JUMP JUMPDEST SWAP2 POP POP SWAP3 POP SWAP3 SWAP1 POP JUMP JUMPDEST PUSH1 0x0 DUP1 PUSH1 0x0 DUP1 PUSH1 0x80 DUP6 DUP8 SUB SLT ISZERO PUSH2 0xB1F JUMPI PUSH2 0xB1E PUSH2 0xF35 JUMP JUMPDEST JUMPDEST PUSH1 0x0 PUSH2 0xB2D DUP8 DUP3 DUP9 ADD PUSH2 0xA56 JUMP JUMPDEST SWAP5 POP POP PUSH1 0x20 PUSH2 0xB3E DUP8 DUP3 DUP9 ADD PUSH2 0xA41 JUMP JUMPDEST SWAP4 POP POP PUSH1 0x40 PUSH2 0xB4F DUP8 DUP3 DUP9 ADD PUSH2 0xA56 JUMP JUMPDEST SWAP3 POP POP PUSH1 0x60 PUSH2 0xB60 DUP8 DUP3 DUP9 ADD PUSH2 0xA17 JUMP JUMPDEST SWAP2 POP POP SWAP3 SWAP6 SWAP2 SWAP5 POP SWAP3 POP JUMP JUMPDEST PUSH2 0xB75 DUP2 PUSH2 0xEAC JUMP JUMPDEST DUP3 MSTORE POP POP JUMP JUMPDEST PUSH1 0x0 PUSH2 0xB86 DUP3 PUSH2 0xE85 JUMP JUMPDEST PUSH2 0xB90 DUP2 DUP6 PUSH2 0xE90 JUMP JUMPDEST SWAP4 POP PUSH2 0xBA0 DUP2 DUP6 PUSH1 0x20 DUP7 ADD PUSH2 0xF02 JUMP JUMPDEST DUP1 DUP5 ADD SWAP2 POP POP SWAP3 SWAP2 POP POP JUMP JUMPDEST PUSH1 0x0 PUSH2 0xBB9 PUSH1 0x26 DUP4 PUSH2 0xE9B JUMP JUMPDEST SWAP2 POP PUSH2 0xBC4 DUP3 PUSH2 0xF3A JUMP JUMPDEST PUSH1 0x40 DUP3 ADD SWAP1 POP SWAP2 SWAP1 POP JUMP JUMPDEST PUSH1 0x0 PUSH2 0xBDC PUSH1 0x31 DUP4 PUSH2 0xE9B JUMP JUMPDEST SWAP2 POP PUSH2 0xBE7 DUP3 PUSH2 0xF89 JUMP JUMPDEST PUSH1 0x40 DUP3 ADD SWAP1 POP SWAP2 SWAP1 POP JUMP JUMPDEST PUSH1 0x0 PUSH2 0xBFF PUSH1 0x20 DUP4 PUSH2 0xE9B JUMP JUMPDEST SWAP2 POP PUSH2 0xC0A DUP3 PUSH2 0xFD8 JUMP JUMPDEST PUSH1 0x20 DUP3 ADD SWAP1 POP SWAP2 SWAP1 POP JUMP JUMPDEST PUSH1 0x0 PUSH2 0xC22 PUSH1 0x2D DUP4 PUSH2 0xE9B JUMP JUMPDEST SWAP2 POP PUSH2 0xC2D DUP3 PUSH2 0x1001 JUMP JUMPDEST PUSH1 0x40 DUP3 ADD SWAP1 POP SWAP2 SWAP1 POP JUMP JUMPDEST PUSH1 0x0 PUSH2 0xC45 PUSH1 0x1F DUP4 PUSH2 0xE9B JUMP JUMPDEST SWAP2 POP PUSH2 0xC50 DUP3 PUSH2 0x1050 JUMP JUMPDEST PUSH1 0x20 DUP3 ADD SWAP1 POP SWAP2 SWAP1 POP JUMP JUMPDEST PUSH1 0x0 PUSH2 0xC68 PUSH1 0x28 DUP4 PUSH2 0xE9B JUMP JUMPDEST SWAP2 POP PUSH2 0xC73 DUP3 PUSH2 0x1079 JUMP JUMPDEST PUSH1 0x40 DUP3 ADD SWAP1 POP SWAP2 SWAP1 POP JUMP JUMPDEST PUSH2 0xC87 DUP2 PUSH2 0xECA JUMP JUMPDEST DUP3 MSTORE POP POP JUMP JUMPDEST PUSH2 0xC96 DUP2 PUSH2 0xEF8 JUMP JUMPDEST DUP3 MSTORE POP POP JUMP JUMPDEST PUSH1 0x0 PUSH2 0xCA8 DUP3 DUP5 PUSH2 0xB7B JUMP JUMPDEST SWAP2 POP DUP2 SWAP1 POP SWAP3 SWAP2 POP POP JUMP JUMPDEST PUSH1 0x0 PUSH1 0x20 DUP3 ADD SWAP1 POP PUSH2 0xCC8 PUSH1 0x0 DUP4 ADD DUP5 PUSH2 0xB6C JUMP JUMPDEST SWAP3 SWAP2 POP POP JUMP JUMPDEST PUSH1 0x0 PUSH1 0x60 DUP3 ADD SWAP1 POP PUSH2 0xCE3 PUSH1 0x0 DUP4 ADD DUP7 PUSH2 0xB6C JUMP JUMPDEST PUSH2 0xCF0 PUSH1 0x20 DUP4 ADD DUP6 PUSH2 0xB6C JUMP JUMPDEST PUSH2 0xCFD PUSH1 0x40 DUP4 ADD DUP5 PUSH2 0xC8D JUMP JUMPDEST SWAP5 SWAP4 POP POP POP POP JUMP JUMPDEST PUSH1 0x0 PUSH1 0x40 DUP3 ADD SWAP1 POP PUSH2 0xD1A PUSH1 0x0 DUP4 ADD DUP6 PUSH2 0xB6C JUMP JUMPDEST PUSH2 0xD27 PUSH1 0x20 DUP4 ADD DUP5 PUSH2 0xC8D JUMP JUMPDEST SWAP4 SWAP3 POP POP POP JUMP JUMPDEST PUSH1 0x0 PUSH1 0x20 DUP3 ADD SWAP1 POP DUP2 DUP2 SUB PUSH1 0x0 DUP4 ADD MSTORE PUSH2 0xD47 DUP2 PUSH2 0xBAC JUMP JUMPDEST SWAP1 POP SWAP2 SWAP1 POP JUMP JUMPDEST PUSH1 0x0 PUSH1 0x20 DUP3 ADD SWAP1 POP DUP2 DUP2 SUB PUSH1 0x0 DUP4 ADD MSTORE PUSH2 0xD67 DUP2 PUSH2 0xBCF JUMP JUMPDEST SWAP1 POP SWAP2 SWAP1 POP JUMP JUMPDEST PUSH1 0x0 PUSH1 0x20 DUP3 ADD SWAP1 POP DUP2 DUP2 SUB PUSH1 0x0 DUP4 ADD MSTORE PUSH2 0xD87 DUP2 PUSH2 0xBF2 JUMP JUMPDEST SWAP1 POP SWAP2 SWAP1 POP JUMP JUMPDEST PUSH1 0x0 PUSH1 0x20 DUP3 ADD SWAP1 POP DUP2 DUP2 SUB PUSH1 0x0 DUP4 ADD MSTORE PUSH2 0xDA7 DUP2 PUSH2 0xC15 JUMP JUMPDEST SWAP1 POP SWAP2 SWAP1 POP JUMP JUMPDEST PUSH1 0x0 PUSH1 0x20 DUP3 ADD SWAP1 POP DUP2 DUP2 SUB PUSH1 0x0 DUP4 ADD MSTORE PUSH2 0xDC7 DUP2 PUSH2 0xC38 JUMP JUMPDEST SWAP1 POP SWAP2 SWAP1 POP JUMP JUMPDEST PUSH1 0x0 PUSH1 0x20 DUP3 ADD SWAP1 POP DUP2 DUP2 SUB PUSH1 0x0 DUP4 ADD MSTORE PUSH2 0xDE7 DUP2 PUSH2 0xC5B JUMP JUMPDEST SWAP1 POP SWAP2 SWAP1 POP JUMP JUMPDEST PUSH1 0x0 PUSH1 0x60 DUP3 ADD SWAP1 POP PUSH2 0xE03 PUSH1 0x0 DUP4 ADD DUP7 PUSH2 0xC7E JUMP JUMPDEST PUSH2 0xE10 PUSH1 0x20 DUP4 ADD DUP6 PUSH2 0xC8D JUMP JUMPDEST PUSH2 0xE1D PUSH1 0x40 DUP4 ADD DUP5 PUSH2 0xB6C JUMP JUMPDEST SWAP5 SWAP4 POP POP POP POP JUMP JUMPDEST PUSH1 0x0 PUSH1 0x80 DUP3 ADD SWAP1 POP PUSH2 0xE3A PUSH1 0x0 DUP4 ADD DUP8 PUSH2 0xC7E JUMP JUMPDEST PUSH2 0xE47 PUSH1 0x20 DUP4 ADD DUP7 PUSH2 0xC8D JUMP JUMPDEST PUSH2 0xE54 PUSH1 0x40 DUP4 ADD DUP6 PUSH2 0xB6C JUMP JUMPDEST PUSH2 0xE61 PUSH1 0x60 DUP4 ADD DUP5 PUSH2 0xC8D JUMP JUMPDEST SWAP6 SWAP5 POP POP POP POP POP JUMP JUMPDEST PUSH1 0x0 PUSH1 0x20 DUP3 ADD SWAP1 POP PUSH2 0xE7F PUSH1 0x0 DUP4 ADD DUP5 PUSH2 0xC8D JUMP JUMPDEST SWAP3 SWAP2 POP POP JUMP JUMPDEST PUSH1 0x0 DUP2 MLOAD SWAP1 POP SWAP2 SWAP1 POP JUMP JUMPDEST PUSH1 0x0 DUP2 SWAP1 POP SWAP3 SWAP2 POP POP JUMP JUMPDEST PUSH1 0x0 DUP3 DUP3 MSTORE PUSH1 0x20 DUP3 ADD SWAP1 POP SWAP3 SWAP2 POP POP JUMP JUMPDEST PUSH1 0x0 PUSH2 0xEB7 DUP3 PUSH2 0xED8 JUMP JUMPDEST SWAP1 POP SWAP2 SWAP1 POP JUMP JUMPDEST PUSH1 0x0 DUP2 ISZERO ISZERO SWAP1 POP SWAP2 SWAP1 POP JUMP JUMPDEST PUSH1 0x0 PUSH2 0xFFFF DUP3 AND SWAP1 POP SWAP2 SWAP1 POP JUMP JUMPDEST PUSH1 0x0 PUSH20 0xFFFFFFFFFFFFFFFFFFFFFFFFFFFFFFFFFFFFFFFF DUP3 AND SWAP1 POP SWAP2 SWAP1 POP JUMP JUMPDEST PUSH1 0x0 DUP2 SWAP1 POP SWAP2 SWAP1 POP JUMP JUMPDEST PUSH1 0x0 JUMPDEST DUP4 DUP2 LT ISZERO PUSH2 0xF20 JUMPI DUP1 DUP3 ADD MLOAD DUP2 DUP5 ADD MSTORE PUSH1 0x20 DUP2 ADD SWAP1 POP PUSH2 0xF05 JUMP JUMPDEST DUP4 DUP2 GT ISZERO PUSH2 0xF2F JUMPI PUSH1 0x0 DUP5 DUP5 ADD MSTORE JUMPDEST POP POP POP POP JUMP JUMPDEST PUSH1 0x0 DUP1 REVERT JUMPDEST PUSH32 0x4F776E61626C653A206E6577206F776E657220697320746865207A65726F2061 PUSH1 0x0 DUP3 ADD MSTORE PUSH32 0x6464726573730000000000000000000000000000000000000000000000000000 PUSH1 0x20 DUP3 ADD MSTORE POP JUMP JUMPDEST PUSH32 0x5472616E7366657248656C7065723A3A7472616E7366657246726F6D3A207472 PUSH1 0x0 DUP3 ADD MSTORE PUSH32 0x616E7366657246726F6D206661696C6564000000000000000000000000000000 PUSH1 0x20 DUP3 ADD MSTORE POP JUMP JUMPDEST PUSH32 0x4F776E61626C653A2063616C6C6572206973206E6F7420746865206F776E6572 PUSH1 0x0 DUP3 ADD MSTORE POP JUMP JUMPDEST PUSH32 0x5472616E7366657248656C7065723A3A736166655472616E736665723A207472 PUSH1 0x0 DUP3 ADD MSTORE PUSH32 0x616E73666572206661696C656400000000000000000000000000000000000000 PUSH1 0x20 DUP3 ADD MSTORE POP JUMP JUMPDEST PUSH32 0x5265656E7472616E637947756172643A207265656E7472616E742063616C6C00 PUSH1 0x0 DUP3 ADD MSTORE POP JUMP JUMPDEST PUSH32 0x41424F41543A3A4552524F523A205377617020697320616C726561647920636F PUSH1 0x0 DUP3 ADD MSTORE PUSH32 0x6D706C6574656421000000000000000000000000000000000000000000000000 PUSH1 0x20 DUP3 ADD MSTORE POP JUMP JUMPDEST PUSH2 0x10D1 DUP2 PUSH2 0xEAC JUMP JUMPDEST DUP2 EQ PUSH2 0x10DC JUMPI PUSH1 0x0 DUP1 REVERT JUMPDEST POP JUMP JUMPDEST PUSH2 0x10E8 DUP2 PUSH2 0xEBE JUMP JUMPDEST DUP2 EQ PUSH2 0x10F3 JUMPI PUSH1 0x0 DUP1 REVERT JUMPDEST POP JUMP JUMPDEST PUSH2 0x10FF DUP2 PUSH2 0xECA JUMP JUMPDEST DUP2 EQ PUSH2 0x110A JUMPI PUSH1 0x0 DUP1 REVERT JUMPDEST POP JUMP JUMPDEST PUSH2 0x1116 DUP2 PUSH2 0xEF8 JUMP JUMPDEST DUP2 EQ PUSH2 0x1121 JUMPI PUSH1 0x0 DUP1 REVERT JUMPDEST POP JUMP INVALID LOG2 PUSH5 0x6970667358 0x22 SLT KECCAK256 ORIGIN SLOAD 0xA7 PUSH1 0xF7 0xAC 0xEE 0xE9 PUSH31 0x56D038E66A5E4BBE1E25809266A6A3E04B60A61244E54D64736F6C63430008 SMOD STOP CALLER "
				},
				"gasEstimates": {
					"creation": {
						"codeDepositCost": "888400",
						"executionCost": "infinite",
						"totalCost": "infinite"
					},
					"external": {
						"owner()": "2522",
						"renounceOwnership()": "30352",
						"transferIn(uint256,uint16)": "infinite",
						"transferOut(uint256,uint16,uint256,address)": "infinite",
						"transferOwnership(address)": "30789"
					}
				},
				"methodIdentifiers": {
					"owner()": "8da5cb5b",
					"renounceOwnership()": "715018a6",
					"transferIn(uint256,uint16)": "b94a7c04",
					"transferOut(uint256,uint16,uint256,address)": "95ba8275",
					"transferOwnership(address)": "f2fde38b"
				}
			},
			"storageLayout": {
				"storage": [
					{
						"astId": 7,
						"contract": "contracts/Multichain.sol:Multichain",
						"label": "_owner",
						"offset": 0,
						"slot": "0",
						"type": "t_address"
					},
					{
						"astId": 114,
						"contract": "contracts/Multichain.sol:Multichain",
						"label": "_status",
						"offset": 0,
						"slot": "1",
						"type": "t_uint256"
					},
					{
						"astId": 950,
						"contract": "contracts/Multichain.sol:Multichain",
						"label": "_swapIds",
						"offset": 0,
						"slot": "2",
						"type": "t_struct(Counter)544_storage"
					},
					{
						"astId": 953,
						"contract": "contracts/Multichain.sol:Multichain",
						"label": "_token",
						"offset": 0,
						"slot": "3",
						"type": "t_contract(IERC20)221"
					},
					{
						"astId": 969,
						"contract": "contracts/Multichain.sol:Multichain",
						"label": "incomingTransfers",
						"offset": 0,
						"slot": "4",
						"type": "t_mapping(t_uint256,t_struct(Transfer)964_storage)"
					},
					{
						"astId": 976,
						"contract": "contracts/Multichain.sol:Multichain",
						"label": "outgoingTransfers",
						"offset": 0,
						"slot": "5",
						"type": "t_mapping(t_uint16,t_mapping(t_uint256,t_struct(Transfer)964_storage))"
					}
				],
				"types": {
					"t_address": {
						"encoding": "inplace",
						"label": "address",
						"numberOfBytes": "20"
					},
					"t_contract(IERC20)221": {
						"encoding": "inplace",
						"label": "contract IERC20",
						"numberOfBytes": "20"
					},
					"t_mapping(t_uint16,t_mapping(t_uint256,t_struct(Transfer)964_storage))": {
						"encoding": "mapping",
						"key": "t_uint16",
						"label": "mapping(uint16 => mapping(uint256 => struct Multichain.Transfer))",
						"numberOfBytes": "32",
						"value": "t_mapping(t_uint256,t_struct(Transfer)964_storage)"
					},
					"t_mapping(t_uint256,t_struct(Transfer)964_storage)": {
						"encoding": "mapping",
						"key": "t_uint256",
						"label": "mapping(uint256 => struct Multichain.Transfer)",
						"numberOfBytes": "32",
						"value": "t_struct(Transfer)964_storage"
					},
					"t_struct(Counter)544_storage": {
						"encoding": "inplace",
						"label": "struct Counters.Counter",
						"members": [
							{
								"astId": 543,
								"contract": "contracts/Multichain.sol:Multichain",
								"label": "_value",
								"offset": 0,
								"slot": "0",
								"type": "t_uint256"
							}
						],
						"numberOfBytes": "32"
					},
					"t_struct(Transfer)964_storage": {
						"encoding": "inplace",
						"label": "struct Multichain.Transfer",
						"members": [
							{
								"astId": 955,
								"contract": "contracts/Multichain.sol:Multichain",
								"label": "ChainId",
								"offset": 0,
								"slot": "0",
								"type": "t_uint16"
							},
							{
								"astId": 957,
								"contract": "contracts/Multichain.sol:Multichain",
								"label": "Amount",
								"offset": 0,
								"slot": "1",
								"type": "t_uint256"
							},
							{
								"astId": 959,
								"contract": "contracts/Multichain.sol:Multichain",
								"label": "User",
								"offset": 0,
								"slot": "2",
								"type": "t_address"
							},
							{
								"astId": 961,
								"contract": "contracts/Multichain.sol:Multichain",
								"label": "Timestamp",
								"offset": 0,
								"slot": "3",
								"type": "t_uint256"
							},
							{
								"astId": 963,
								"contract": "contracts/Multichain.sol:Multichain",
								"label": "RefSwapId",
								"offset": 0,
								"slot": "4",
								"type": "t_uint256"
							}
						],
						"numberOfBytes": "160"
					},
					"t_uint16": {
						"encoding": "inplace",
						"label": "uint16",
						"numberOfBytes": "2"
					},
					"t_uint256": {
						"encoding": "inplace",
						"label": "uint256",
						"numberOfBytes": "32"
					}
				}
			},
			"userdoc": {
				"kind": "user",
				"methods": {},
				"version": 1
			}
		}
	}
}