{
	"contracts/Marketplace.sol": {
		"Marketplace": {
			"abi": [
				{
					"inputs": [],
					"stateMutability": "nonpayable",
					"type": "constructor"
				},
				{
					"anonymous": false,
					"inputs": [
						{
							"indexed": false,
							"internalType": "address",
							"name": "nftContract",
							"type": "address"
						},
						{
							"indexed": false,
							"internalType": "uint256",
							"name": "tokenId",
							"type": "uint256"
						},
						{
							"indexed": false,
							"internalType": "address",
							"name": "seller",
							"type": "address"
						},
						{
							"indexed": false,
							"internalType": "address",
							"name": "owner",
							"type": "address"
						},
						{
							"indexed": false,
							"internalType": "uint256",
							"name": "price",
							"type": "uint256"
						},
						{
							"indexed": false,
							"internalType": "bool",
							"name": "bid",
							"type": "bool"
						},
						{
							"indexed": false,
							"internalType": "bool",
							"name": "subscribe",
							"type": "bool"
						}
					],
					"name": "NFTListed",
					"type": "event"
				},
				{
					"anonymous": false,
					"inputs": [
						{
							"indexed": false,
							"internalType": "address",
							"name": "nftContract",
							"type": "address"
						},
						{
							"indexed": false,
							"internalType": "uint256",
							"name": "tokenId",
							"type": "uint256"
						},
						{
							"indexed": false,
							"internalType": "address",
							"name": "seller",
							"type": "address"
						},
						{
							"indexed": false,
							"internalType": "address",
							"name": "owner",
							"type": "address"
						},
						{
							"indexed": false,
							"internalType": "uint256",
							"name": "price",
							"type": "uint256"
						},
						{
							"indexed": false,
							"internalType": "bool",
							"name": "bid",
							"type": "bool"
						},
						{
							"indexed": false,
							"internalType": "bool",
							"name": "subscribe",
							"type": "bool"
						}
					],
					"name": "NFTSold",
					"type": "event"
				},
				{
					"inputs": [],
					"name": "LISTING_FEE",
					"outputs": [
						{
							"internalType": "uint256",
							"name": "",
							"type": "uint256"
						}
					],
					"stateMutability": "view",
					"type": "function"
				},
				{
					"inputs": [],
					"name": "SELLING_FEE",
					"outputs": [
						{
							"internalType": "uint256",
							"name": "",
							"type": "uint256"
						}
					],
					"stateMutability": "view",
					"type": "function"
				},
				{
					"inputs": [
						{
							"internalType": "address",
							"name": "_nftContract",
							"type": "address"
						},
						{
							"internalType": "uint256",
							"name": "_tokenId",
							"type": "uint256"
						}
					],
					"name": "buyNft",
					"outputs": [],
					"stateMutability": "payable",
					"type": "function"
				},
				{
					"inputs": [
						{
							"internalType": "bool",
							"name": "bid",
							"type": "bool"
						},
						{
							"internalType": "bool",
							"name": "subscribe",
							"type": "bool"
						}
					],
					"name": "getListedNfts",
					"outputs": [
						{
							"components": [
								{
									"internalType": "address",
									"name": "nftContract",
									"type": "address"
								},
								{
									"internalType": "uint256",
									"name": "tokenId",
									"type": "uint256"
								},
								{
									"internalType": "address payable",
									"name": "seller",
									"type": "address"
								},
								{
									"internalType": "address payable",
									"name": "owner",
									"type": "address"
								},
								{
									"internalType": "uint256",
									"name": "price",
									"type": "uint256"
								},
								{
									"internalType": "bool",
									"name": "bid",
									"type": "bool"
								},
								{
									"internalType": "bool",
									"name": "subscribe",
									"type": "bool"
								},
								{
									"internalType": "bool",
									"name": "listed",
									"type": "bool"
								}
							],
							"internalType": "struct Marketplace.NFT[]",
							"name": "",
							"type": "tuple[]"
						}
					],
					"stateMutability": "view",
					"type": "function"
				},
				{
					"inputs": [],
					"name": "getListingFee",
					"outputs": [
						{
							"internalType": "uint256",
							"name": "",
							"type": "uint256"
						}
					],
					"stateMutability": "view",
					"type": "function"
				},
				{
					"inputs": [],
					"name": "getMyListedNfts",
					"outputs": [
						{
							"components": [
								{
									"internalType": "address",
									"name": "nftContract",
									"type": "address"
								},
								{
									"internalType": "uint256",
									"name": "tokenId",
									"type": "uint256"
								},
								{
									"internalType": "address payable",
									"name": "seller",
									"type": "address"
								},
								{
									"internalType": "address payable",
									"name": "owner",
									"type": "address"
								},
								{
									"internalType": "uint256",
									"name": "price",
									"type": "uint256"
								},
								{
									"internalType": "bool",
									"name": "bid",
									"type": "bool"
								},
								{
									"internalType": "bool",
									"name": "subscribe",
									"type": "bool"
								},
								{
									"internalType": "bool",
									"name": "listed",
									"type": "bool"
								}
							],
							"internalType": "struct Marketplace.NFT[]",
							"name": "",
							"type": "tuple[]"
						}
					],
					"stateMutability": "view",
					"type": "function"
				},
				{
					"inputs": [],
					"name": "getMyNfts",
					"outputs": [
						{
							"components": [
								{
									"internalType": "address",
									"name": "nftContract",
									"type": "address"
								},
								{
									"internalType": "uint256",
									"name": "tokenId",
									"type": "uint256"
								},
								{
									"internalType": "address payable",
									"name": "seller",
									"type": "address"
								},
								{
									"internalType": "address payable",
									"name": "owner",
									"type": "address"
								},
								{
									"internalType": "uint256",
									"name": "price",
									"type": "uint256"
								},
								{
									"internalType": "bool",
									"name": "bid",
									"type": "bool"
								},
								{
									"internalType": "bool",
									"name": "subscribe",
									"type": "bool"
								},
								{
									"internalType": "bool",
									"name": "listed",
									"type": "bool"
								}
							],
							"internalType": "struct Marketplace.NFT[]",
							"name": "",
							"type": "tuple[]"
						}
					],
					"stateMutability": "view",
					"type": "function"
				},
				{
					"inputs": [
						{
							"internalType": "address",
							"name": "_nftContract",
							"type": "address"
						},
						{
							"internalType": "uint256",
							"name": "_tokenId",
							"type": "uint256"
						},
						{
							"internalType": "uint256",
							"name": "_price",
							"type": "uint256"
						},
						{
							"internalType": "bool",
							"name": "bid",
							"type": "bool"
						},
						{
							"internalType": "bool",
							"name": "subscribe",
							"type": "bool"
						}
					],
					"name": "listNft",
					"outputs": [],
					"stateMutability": "payable",
					"type": "function"
				},
				{
					"inputs": [
						{
							"internalType": "address",
							"name": "_nftContract",
							"type": "address"
						},
						{
							"internalType": "uint256",
							"name": "_tokenId",
							"type": "uint256"
						},
						{
							"internalType": "uint256",
							"name": "_price",
							"type": "uint256"
						},
						{
							"internalType": "bool",
							"name": "bid",
							"type": "bool"
						},
						{
							"internalType": "bool",
							"name": "subscribe",
							"type": "bool"
						}
					],
					"name": "resellNft",
					"outputs": [],
					"stateMutability": "payable",
					"type": "function"
				}
			],
			"devdoc": {
				"kind": "dev",
				"methods": {},
				"version": 1
			},
			"evm": {
				"assembly": "    /* \"contracts/Marketplace.sol\":238:5172  contract Marketplace is ReentrancyGuard {\r... */\n  mstore(0x40, 0x80)\n    /* \"contracts/Marketplace.sol\":430:441  0.001 ether */\n  0x038d7ea4c68000\n    /* \"contracts/Marketplace.sol\":401:441  uint256 public LISTING_FEE = 0.001 ether */\n  0x03\n  sstore\n    /* \"contracts/Marketplace.sol\":517:520  200 */\n  0xc8\n    /* \"contracts/Marketplace.sol\":488:520  uint256 public SELLING_FEE = 200 */\n  0x04\n  sstore\n    /* \"contracts/Marketplace.sol\":1208:1269  constructor() {\r... */\n  callvalue\n  dup1\n  iszero\n  tag_1\n  jumpi\n  0x00\n  dup1\n  revert\ntag_1:\n  pop\n    /* \"@openzeppelin/contracts/security/ReentrancyGuard.sol\":1637:1638  1 */\n  0x01\n    /* \"@openzeppelin/contracts/security/ReentrancyGuard.sol\":1742:1749  _status */\n  0x00\n    /* \"@openzeppelin/contracts/security/ReentrancyGuard.sol\":1742:1764  _status = _NOT_ENTERED */\n  dup2\n  swap1\n  sstore\n  pop\n    /* \"contracts/Marketplace.sol\":1252:1262  msg.sender */\n  caller\n    /* \"contracts/Marketplace.sol\":1229:1241  _marketOwner */\n  0x05\n  0x00\n    /* \"contracts/Marketplace.sol\":1229:1263  _marketOwner = payable(msg.sender) */\n  0x0100\n  exp\n  dup2\n  sload\n  dup2\n  0xffffffffffffffffffffffffffffffffffffffff\n  mul\n  not\n  and\n  swap1\n  dup4\n  0xffffffffffffffffffffffffffffffffffffffff\n  and\n  mul\n  or\n  swap1\n  sstore\n  pop\n    /* \"contracts/Marketplace.sol\":238:5172  contract Marketplace is ReentrancyGuard {\r... */\n  dataSize(sub_0)\n  dup1\n  dataOffset(sub_0)\n  0x00\n  codecopy\n  0x00\n  return\nstop\n\nsub_0: assembly {\n        /* \"contracts/Marketplace.sol\":238:5172  contract Marketplace is ReentrancyGuard {\r... */\n      mstore(0x40, 0x80)\n      jumpi(tag_1, lt(calldatasize, 0x04))\n      shr(0xe0, calldataload(0x00))\n      dup1\n      0x4ddf4f8f\n      gt\n      tag_11\n      jumpi\n      dup1\n      0x4ddf4f8f\n      eq\n      tag_6\n      jumpi\n      dup1\n      0x81372a9b\n      eq\n      tag_7\n      jumpi\n      dup1\n      0xb8fe6abe\n      eq\n      tag_8\n      jumpi\n      dup1\n      0xcdc66b2c\n      eq\n      tag_9\n      jumpi\n      dup1\n      0xf5860220\n      eq\n      tag_10\n      jumpi\n      jump(tag_1)\n    tag_11:\n      dup1\n      0x047b07bf\n      eq\n      tag_2\n      jumpi\n      dup1\n      0x1f4cc4db\n      eq\n      tag_3\n      jumpi\n      dup1\n      0x2b86ae38\n      eq\n      tag_4\n      jumpi\n      dup1\n      0x33431c0a\n      eq\n      tag_5\n      jumpi\n    tag_1:\n      0x00\n      dup1\n      revert\n        /* \"contracts/Marketplace.sol\":4025:4555  function getMyNfts() public view returns (NFT[] memory) {\r... */\n    tag_2:\n      callvalue\n      dup1\n      iszero\n      tag_12\n      jumpi\n      0x00\n      dup1\n      revert\n    tag_12:\n      pop\n      tag_13\n      tag_14\n      jump\t// in\n    tag_13:\n      mload(0x40)\n      tag_15\n      swap2\n      swap1\n      tag_16\n      jump\t// in\n    tag_15:\n      mload(0x40)\n      dup1\n      swap2\n      sub\n      swap1\n      return\n        /* \"contracts/Marketplace.sol\":4561:5169  function getMyListedNfts() public view returns (NFT[] memory) {\r... */\n    tag_3:\n      callvalue\n      dup1\n      iszero\n      tag_17\n      jumpi\n      0x00\n      dup1\n      revert\n    tag_17:\n      pop\n      tag_18\n      tag_19\n      jump\t// in\n    tag_18:\n      mload(0x40)\n      tag_20\n      swap2\n      swap1\n      tag_16\n      jump\t// in\n    tag_20:\n      mload(0x40)\n      dup1\n      swap2\n      sub\n      swap1\n      return\n        /* \"contracts/Marketplace.sol\":401:441  uint256 public LISTING_FEE = 0.001 ether */\n    tag_4:\n      callvalue\n      dup1\n      iszero\n      tag_21\n      jumpi\n      0x00\n      dup1\n      revert\n    tag_21:\n      pop\n      tag_22\n      tag_23\n      jump\t// in\n    tag_22:\n      mload(0x40)\n      tag_24\n      swap2\n      swap1\n      tag_25\n      jump\t// in\n    tag_24:\n      mload(0x40)\n      dup1\n      swap2\n      sub\n      swap1\n      return\n        /* \"contracts/Marketplace.sol\":1313:1985  function listNft(address _nftContract, uint256 _tokenId, uint256 _price, bool bid, bool subscribe) public payable nonReentrant {\r... */\n    tag_5:\n      tag_26\n      0x04\n      dup1\n      calldatasize\n      sub\n      dup2\n      add\n      swap1\n      tag_27\n      swap2\n      swap1\n      tag_28\n      jump\t// in\n    tag_27:\n      tag_29\n      jump\t// in\n    tag_26:\n      stop\n        /* \"contracts/Marketplace.sol\":2008:2615  function buyNft(address _nftContract, uint256 _tokenId) public payable nonReentrant {\r... */\n    tag_6:\n      tag_30\n      0x04\n      dup1\n      calldatasize\n      sub\n      dup2\n      add\n      swap1\n      tag_31\n      swap2\n      swap1\n      tag_32\n      jump\t// in\n    tag_31:\n      tag_33\n      jump\t// in\n    tag_30:\n      stop\n        /* \"contracts/Marketplace.sol\":3471:4019  function getListedNfts(bool bid, bool subscribe) public view returns (NFT[] memory) {\r... */\n    tag_7:\n      callvalue\n      dup1\n      iszero\n      tag_34\n      jumpi\n      0x00\n      dup1\n      revert\n    tag_34:\n      pop\n      tag_35\n      0x04\n      dup1\n      calldatasize\n      sub\n      dup2\n      add\n      swap1\n      tag_36\n      swap2\n      swap1\n      tag_37\n      jump\t// in\n    tag_36:\n      tag_38\n      jump\t// in\n    tag_35:\n      mload(0x40)\n      tag_39\n      swap2\n      swap1\n      tag_16\n      jump\t// in\n    tag_39:\n      mload(0x40)\n      dup1\n      swap2\n      sub\n      swap1\n      return\n        /* \"contracts/Marketplace.sol\":3379:3465  function getListingFee() public view returns (uint256) {\r... */\n    tag_8:\n      callvalue\n      dup1\n      iszero\n      tag_40\n      jumpi\n      0x00\n      dup1\n      revert\n    tag_40:\n      pop\n      tag_41\n      tag_42\n      jump\t// in\n    tag_41:\n      mload(0x40)\n      tag_43\n      swap2\n      swap1\n      tag_25\n      jump\t// in\n    tag_43:\n      mload(0x40)\n      dup1\n      swap2\n      sub\n      swap1\n      return\n        /* \"contracts/Marketplace.sol\":488:520  uint256 public SELLING_FEE = 200 */\n    tag_9:\n      callvalue\n      dup1\n      iszero\n      tag_44\n      jumpi\n      0x00\n      dup1\n      revert\n    tag_44:\n      pop\n      tag_45\n      tag_46\n      jump\t// in\n    tag_45:\n      mload(0x40)\n      tag_47\n      swap2\n      swap1\n      tag_25\n      jump\t// in\n    tag_47:\n      mload(0x40)\n      dup1\n      swap2\n      sub\n      swap1\n      return\n        /* \"contracts/Marketplace.sol\":2672:3373  function resellNft(address _nftContract, uint256 _tokenId, uint256 _price, bool bid, bool subscribe) public payable nonReentrant {\r... */\n    tag_10:\n      tag_48\n      0x04\n      dup1\n      calldatasize\n      sub\n      dup2\n      add\n      swap1\n      tag_49\n      swap2\n      swap1\n      tag_28\n      jump\t// in\n    tag_49:\n      tag_50\n      jump\t// in\n    tag_48:\n      stop\n        /* \"contracts/Marketplace.sol\":4025:4555  function getMyNfts() public view returns (NFT[] memory) {\r... */\n    tag_14:\n        /* \"contracts/Marketplace.sol\":4067:4079  NFT[] memory */\n      0x60\n        /* \"contracts/Marketplace.sol\":4088:4101  uint nftCount */\n      0x00\n        /* \"contracts/Marketplace.sol\":4104:4123  _nftCount.current() */\n      tag_52\n        /* \"contracts/Marketplace.sol\":4104:4113  _nftCount */\n      0x02\n        /* \"contracts/Marketplace.sol\":4104:4121  _nftCount.current */\n      tag_53\n        /* \"contracts/Marketplace.sol\":4104:4123  _nftCount.current() */\n      jump\t// in\n    tag_52:\n        /* \"contracts/Marketplace.sol\":4088:4123  uint nftCount = _nftCount.current() */\n      swap1\n      pop\n        /* \"contracts/Marketplace.sol\":4130:4145  uint myNftCount */\n      0x00\n        /* \"contracts/Marketplace.sol\":4161:4167  uint i */\n      dup1\n        /* \"contracts/Marketplace.sol\":4156:4282  for (uint i = 0; i < nftCount; i++) {\r... */\n    tag_54:\n        /* \"contracts/Marketplace.sol\":4177:4185  nftCount */\n      dup3\n        /* \"contracts/Marketplace.sol\":4173:4174  i */\n      dup2\n        /* \"contracts/Marketplace.sol\":4173:4185  i < nftCount */\n      lt\n        /* \"contracts/Marketplace.sol\":4156:4282  for (uint i = 0; i < nftCount; i++) {\r... */\n      iszero\n      tag_55\n      jumpi\n        /* \"contracts/Marketplace.sol\":4230:4240  msg.sender */\n      caller\n        /* \"contracts/Marketplace.sol\":4205:4240  _idToNFT[i + 1].owner == msg.sender */\n      0xffffffffffffffffffffffffffffffffffffffff\n      and\n        /* \"contracts/Marketplace.sol\":4205:4213  _idToNFT */\n      0x06\n        /* \"contracts/Marketplace.sol\":4205:4220  _idToNFT[i + 1] */\n      0x00\n        /* \"contracts/Marketplace.sol\":4218:4219  1 */\n      0x01\n        /* \"contracts/Marketplace.sol\":4214:4215  i */\n      dup5\n        /* \"contracts/Marketplace.sol\":4214:4219  i + 1 */\n      tag_57\n      swap2\n      swap1\n      tag_58\n      jump\t// in\n    tag_57:\n        /* \"contracts/Marketplace.sol\":4205:4220  _idToNFT[i + 1] */\n      dup2\n      mstore\n      0x20\n      add\n      swap1\n      dup2\n      mstore\n      0x20\n      add\n      0x00\n      keccak256\n        /* \"contracts/Marketplace.sol\":4205:4226  _idToNFT[i + 1].owner */\n      0x03\n      add\n      0x00\n      swap1\n      sload\n      swap1\n      0x0100\n      exp\n      swap1\n      div\n      0xffffffffffffffffffffffffffffffffffffffff\n      and\n        /* \"contracts/Marketplace.sol\":4205:4240  _idToNFT[i + 1].owner == msg.sender */\n      0xffffffffffffffffffffffffffffffffffffffff\n      and\n      eq\n        /* \"contracts/Marketplace.sol\":4201:4275  if (_idToNFT[i + 1].owner == msg.sender) {\r... */\n      iszero\n      tag_59\n      jumpi\n        /* \"contracts/Marketplace.sol\":4253:4265  myNftCount++ */\n      dup2\n      dup1\n      tag_60\n      swap1\n      tag_61\n      jump\t// in\n    tag_60:\n      swap3\n      pop\n      pop\n        /* \"contracts/Marketplace.sol\":4201:4275  if (_idToNFT[i + 1].owner == msg.sender) {\r... */\n    tag_59:\n        /* \"contracts/Marketplace.sol\":4187:4190  i++ */\n      dup1\n      dup1\n      tag_62\n      swap1\n      tag_61\n      jump\t// in\n    tag_62:\n      swap2\n      pop\n      pop\n        /* \"contracts/Marketplace.sol\":4156:4282  for (uint i = 0; i < nftCount; i++) {\r... */\n      jump(tag_54)\n    tag_55:\n      pop\n        /* \"contracts/Marketplace.sol\":4290:4307  NFT[] memory nfts */\n      0x00\n        /* \"contracts/Marketplace.sol\":4320:4330  myNftCount */\n      dup2\n        /* \"contracts/Marketplace.sol\":4310:4331  new NFT[](myNftCount) */\n      0xffffffffffffffff\n      dup2\n      gt\n      iszero\n      tag_63\n      jumpi\n      tag_64\n      tag_65\n      jump\t// in\n    tag_64:\n    tag_63:\n      mload(0x40)\n      swap1\n      dup1\n      dup3\n      mstore\n      dup1\n      0x20\n      mul\n      0x20\n      add\n      dup3\n      add\n      0x40\n      mstore\n      dup1\n      iszero\n      tag_66\n      jumpi\n      dup2\n      0x20\n      add\n    tag_67:\n      tag_68\n      tag_69\n      jump\t// in\n    tag_68:\n      dup2\n      mstore\n      0x20\n      add\n      swap1\n      0x01\n      swap1\n      sub\n      swap1\n      dup2\n      tag_67\n      jumpi\n      swap1\n      pop\n    tag_66:\n      pop\n        /* \"contracts/Marketplace.sol\":4290:4331  NFT[] memory nfts = new NFT[](myNftCount) */\n      swap1\n      pop\n        /* \"contracts/Marketplace.sol\":4338:4352  uint nftsIndex */\n      0x00\n        /* \"contracts/Marketplace.sol\":4368:4374  uint i */\n      dup1\n        /* \"contracts/Marketplace.sol\":4363:4532  for (uint i = 0; i < nftCount; i++) {\r... */\n    tag_70:\n        /* \"contracts/Marketplace.sol\":4384:4392  nftCount */\n      dup5\n        /* \"contracts/Marketplace.sol\":4380:4381  i */\n      dup2\n        /* \"contracts/Marketplace.sol\":4380:4392  i < nftCount */\n      lt\n        /* \"contracts/Marketplace.sol\":4363:4532  for (uint i = 0; i < nftCount; i++) {\r... */\n      iszero\n      tag_71\n      jumpi\n        /* \"contracts/Marketplace.sol\":4437:4447  msg.sender */\n      caller\n        /* \"contracts/Marketplace.sol\":4412:4447  _idToNFT[i + 1].owner == msg.sender */\n      0xffffffffffffffffffffffffffffffffffffffff\n      and\n        /* \"contracts/Marketplace.sol\":4412:4420  _idToNFT */\n      0x06\n        /* \"contracts/Marketplace.sol\":4412:4427  _idToNFT[i + 1] */\n      0x00\n        /* \"contracts/Marketplace.sol\":4425:4426  1 */\n      0x01\n        /* \"contracts/Marketplace.sol\":4421:4422  i */\n      dup5\n        /* \"contracts/Marketplace.sol\":4421:4426  i + 1 */\n      tag_73\n      swap2\n      swap1\n      tag_58\n      jump\t// in\n    tag_73:\n        /* \"contracts/Marketplace.sol\":4412:4427  _idToNFT[i + 1] */\n      dup2\n      mstore\n      0x20\n      add\n      swap1\n      dup2\n      mstore\n      0x20\n      add\n      0x00\n      keccak256\n        /* \"contracts/Marketplace.sol\":4412:4433  _idToNFT[i + 1].owner */\n      0x03\n      add\n      0x00\n      swap1\n      sload\n      swap1\n      0x0100\n      exp\n      swap1\n      div\n      0xffffffffffffffffffffffffffffffffffffffff\n      and\n        /* \"contracts/Marketplace.sol\":4412:4447  _idToNFT[i + 1].owner == msg.sender */\n      0xffffffffffffffffffffffffffffffffffffffff\n      and\n      eq\n        /* \"contracts/Marketplace.sol\":4408:4525  if (_idToNFT[i + 1].owner == msg.sender) {\r... */\n      iszero\n      tag_74\n      jumpi\n        /* \"contracts/Marketplace.sol\":4478:4486  _idToNFT */\n      0x06\n        /* \"contracts/Marketplace.sol\":4478:4493  _idToNFT[i + 1] */\n      0x00\n        /* \"contracts/Marketplace.sol\":4491:4492  1 */\n      0x01\n        /* \"contracts/Marketplace.sol\":4487:4488  i */\n      dup4\n        /* \"contracts/Marketplace.sol\":4487:4492  i + 1 */\n      tag_75\n      swap2\n      swap1\n      tag_58\n      jump\t// in\n    tag_75:\n        /* \"contracts/Marketplace.sol\":4478:4493  _idToNFT[i + 1] */\n      dup2\n      mstore\n      0x20\n      add\n      swap1\n      dup2\n      mstore\n      0x20\n      add\n      0x00\n      keccak256\n        /* \"contracts/Marketplace.sol\":4460:4493  nfts[nftsIndex] = _idToNFT[i + 1] */\n      mload(0x40)\n      dup1\n      0x0100\n      add\n      0x40\n      mstore\n      swap1\n      dup2\n      0x00\n      dup3\n      add\n      0x00\n      swap1\n      sload\n      swap1\n      0x0100\n      exp\n      swap1\n      div\n      0xffffffffffffffffffffffffffffffffffffffff\n      and\n      0xffffffffffffffffffffffffffffffffffffffff\n      and\n      0xffffffffffffffffffffffffffffffffffffffff\n      and\n      dup2\n      mstore\n      0x20\n      add\n      0x01\n      dup3\n      add\n      sload\n      dup2\n      mstore\n      0x20\n      add\n      0x02\n      dup3\n      add\n      0x00\n      swap1\n      sload\n      swap1\n      0x0100\n      exp\n      swap1\n      div\n      0xffffffffffffffffffffffffffffffffffffffff\n      and\n      0xffffffffffffffffffffffffffffffffffffffff\n      and\n      0xffffffffffffffffffffffffffffffffffffffff\n      and\n      dup2\n      mstore\n      0x20\n      add\n      0x03\n      dup3\n      add\n      0x00\n      swap1\n      sload\n      swap1\n      0x0100\n      exp\n      swap1\n      div\n      0xffffffffffffffffffffffffffffffffffffffff\n      and\n      0xffffffffffffffffffffffffffffffffffffffff\n      and\n      0xffffffffffffffffffffffffffffffffffffffff\n      and\n      dup2\n      mstore\n      0x20\n      add\n      0x04\n      dup3\n      add\n      sload\n      dup2\n      mstore\n      0x20\n      add\n      0x05\n      dup3\n      add\n      0x00\n      swap1\n      sload\n      swap1\n      0x0100\n      exp\n      swap1\n      div\n      0xff\n      and\n      iszero\n      iszero\n      iszero\n      iszero\n      dup2\n      mstore\n      0x20\n      add\n      0x05\n      dup3\n      add\n      0x01\n      swap1\n      sload\n      swap1\n      0x0100\n      exp\n      swap1\n      div\n      0xff\n      and\n      iszero\n      iszero\n      iszero\n      iszero\n      dup2\n      mstore\n      0x20\n      add\n      0x05\n      dup3\n      add\n      0x02\n      swap1\n      sload\n      swap1\n      0x0100\n      exp\n      swap1\n      div\n      0xff\n      and\n      iszero\n      iszero\n      iszero\n      iszero\n      dup2\n      mstore\n      pop\n      pop\n        /* \"contracts/Marketplace.sol\":4460:4464  nfts */\n      dup4\n        /* \"contracts/Marketplace.sol\":4465:4474  nftsIndex */\n      dup4\n        /* \"contracts/Marketplace.sol\":4460:4475  nfts[nftsIndex] */\n      dup2\n      mload\n      dup2\n      lt\n      tag_76\n      jumpi\n      tag_77\n      tag_78\n      jump\t// in\n    tag_77:\n    tag_76:\n      0x20\n      mul\n      0x20\n      add\n      add\n        /* \"contracts/Marketplace.sol\":4460:4493  nfts[nftsIndex] = _idToNFT[i + 1] */\n      dup2\n      swap1\n      mstore\n      pop\n        /* \"contracts/Marketplace.sol\":4504:4515  nftsIndex++ */\n      dup2\n      dup1\n      tag_79\n      swap1\n      tag_61\n      jump\t// in\n    tag_79:\n      swap3\n      pop\n      pop\n        /* \"contracts/Marketplace.sol\":4408:4525  if (_idToNFT[i + 1].owner == msg.sender) {\r... */\n    tag_74:\n        /* \"contracts/Marketplace.sol\":4394:4397  i++ */\n      dup1\n      dup1\n      tag_80\n      swap1\n      tag_61\n      jump\t// in\n    tag_80:\n      swap2\n      pop\n      pop\n        /* \"contracts/Marketplace.sol\":4363:4532  for (uint i = 0; i < nftCount; i++) {\r... */\n      jump(tag_70)\n    tag_71:\n      pop\n        /* \"contracts/Marketplace.sol\":4545:4549  nfts */\n      dup2\n        /* \"contracts/Marketplace.sol\":4538:4549  return nfts */\n      swap5\n      pop\n      pop\n      pop\n      pop\n      pop\n        /* \"contracts/Marketplace.sol\":4025:4555  function getMyNfts() public view returns (NFT[] memory) {\r... */\n      swap1\n      jump\t// out\n        /* \"contracts/Marketplace.sol\":4561:5169  function getMyListedNfts() public view returns (NFT[] memory) {\r... */\n    tag_19:\n        /* \"contracts/Marketplace.sol\":4609:4621  NFT[] memory */\n      0x60\n        /* \"contracts/Marketplace.sol\":4630:4643  uint nftCount */\n      0x00\n        /* \"contracts/Marketplace.sol\":4646:4665  _nftCount.current() */\n      tag_82\n        /* \"contracts/Marketplace.sol\":4646:4655  _nftCount */\n      0x02\n        /* \"contracts/Marketplace.sol\":4646:4663  _nftCount.current */\n      tag_53\n        /* \"contracts/Marketplace.sol\":4646:4665  _nftCount.current() */\n      jump\t// in\n    tag_82:\n        /* \"contracts/Marketplace.sol\":4630:4665  uint nftCount = _nftCount.current() */\n      swap1\n      pop\n        /* \"contracts/Marketplace.sol\":4672:4693  uint myListedNftCount */\n      0x00\n        /* \"contracts/Marketplace.sol\":4709:4715  uint i */\n      dup1\n        /* \"contracts/Marketplace.sol\":4704:4863  for (uint i = 0; i < nftCount; i++) {\r... */\n    tag_83:\n        /* \"contracts/Marketplace.sol\":4725:4733  nftCount */\n      dup3\n        /* \"contracts/Marketplace.sol\":4721:4722  i */\n      dup2\n        /* \"contracts/Marketplace.sol\":4721:4733  i < nftCount */\n      lt\n        /* \"contracts/Marketplace.sol\":4704:4863  for (uint i = 0; i < nftCount; i++) {\r... */\n      iszero\n      tag_84\n      jumpi\n        /* \"contracts/Marketplace.sol\":4779:4789  msg.sender */\n      caller\n        /* \"contracts/Marketplace.sol\":4753:4789  _idToNFT[i + 1].seller == msg.sender */\n      0xffffffffffffffffffffffffffffffffffffffff\n      and\n        /* \"contracts/Marketplace.sol\":4753:4761  _idToNFT */\n      0x06\n        /* \"contracts/Marketplace.sol\":4753:4768  _idToNFT[i + 1] */\n      0x00\n        /* \"contracts/Marketplace.sol\":4766:4767  1 */\n      0x01\n        /* \"contracts/Marketplace.sol\":4762:4763  i */\n      dup5\n        /* \"contracts/Marketplace.sol\":4762:4767  i + 1 */\n      tag_86\n      swap2\n      swap1\n      tag_58\n      jump\t// in\n    tag_86:\n        /* \"contracts/Marketplace.sol\":4753:4768  _idToNFT[i + 1] */\n      dup2\n      mstore\n      0x20\n      add\n      swap1\n      dup2\n      mstore\n      0x20\n      add\n      0x00\n      keccak256\n        /* \"contracts/Marketplace.sol\":4753:4775  _idToNFT[i + 1].seller */\n      0x02\n      add\n      0x00\n      swap1\n      sload\n      swap1\n      0x0100\n      exp\n      swap1\n      div\n      0xffffffffffffffffffffffffffffffffffffffff\n      and\n        /* \"contracts/Marketplace.sol\":4753:4789  _idToNFT[i + 1].seller == msg.sender */\n      0xffffffffffffffffffffffffffffffffffffffff\n      and\n      eq\n        /* \"contracts/Marketplace.sol\":4753:4815  _idToNFT[i + 1].seller == msg.sender && _idToNFT[i + 1].listed */\n      dup1\n      iszero\n      tag_87\n      jumpi\n      pop\n        /* \"contracts/Marketplace.sol\":4793:4801  _idToNFT */\n      0x06\n        /* \"contracts/Marketplace.sol\":4793:4808  _idToNFT[i + 1] */\n      0x00\n        /* \"contracts/Marketplace.sol\":4806:4807  1 */\n      0x01\n        /* \"contracts/Marketplace.sol\":4802:4803  i */\n      dup4\n        /* \"contracts/Marketplace.sol\":4802:4807  i + 1 */\n      tag_88\n      swap2\n      swap1\n      tag_58\n      jump\t// in\n    tag_88:\n        /* \"contracts/Marketplace.sol\":4793:4808  _idToNFT[i + 1] */\n      dup2\n      mstore\n      0x20\n      add\n      swap1\n      dup2\n      mstore\n      0x20\n      add\n      0x00\n      keccak256\n        /* \"contracts/Marketplace.sol\":4793:4815  _idToNFT[i + 1].listed */\n      0x05\n      add\n      0x02\n      swap1\n      sload\n      swap1\n      0x0100\n      exp\n      swap1\n      div\n      0xff\n      and\n        /* \"contracts/Marketplace.sol\":4753:4815  _idToNFT[i + 1].seller == msg.sender && _idToNFT[i + 1].listed */\n    tag_87:\n        /* \"contracts/Marketplace.sol\":4749:4856  if (_idToNFT[i + 1].seller == msg.sender && _idToNFT[i + 1].listed) {\r... */\n      iszero\n      tag_89\n      jumpi\n        /* \"contracts/Marketplace.sol\":4828:4846  myListedNftCount++ */\n      dup2\n      dup1\n      tag_90\n      swap1\n      tag_61\n      jump\t// in\n    tag_90:\n      swap3\n      pop\n      pop\n        /* \"contracts/Marketplace.sol\":4749:4856  if (_idToNFT[i + 1].seller == msg.sender && _idToNFT[i + 1].listed) {\r... */\n    tag_89:\n        /* \"contracts/Marketplace.sol\":4735:4738  i++ */\n      dup1\n      dup1\n      tag_91\n      swap1\n      tag_61\n      jump\t// in\n    tag_91:\n      swap2\n      pop\n      pop\n        /* \"contracts/Marketplace.sol\":4704:4863  for (uint i = 0; i < nftCount; i++) {\r... */\n      jump(tag_83)\n    tag_84:\n      pop\n        /* \"contracts/Marketplace.sol\":4871:4888  NFT[] memory nfts */\n      0x00\n        /* \"contracts/Marketplace.sol\":4901:4917  myListedNftCount */\n      dup2\n        /* \"contracts/Marketplace.sol\":4891:4918  new NFT[](myListedNftCount) */\n      0xffffffffffffffff\n      dup2\n      gt\n      iszero\n      tag_92\n      jumpi\n      tag_93\n      tag_65\n      jump\t// in\n    tag_93:\n    tag_92:\n      mload(0x40)\n      swap1\n      dup1\n      dup3\n      mstore\n      dup1\n      0x20\n      mul\n      0x20\n      add\n      dup3\n      add\n      0x40\n      mstore\n      dup1\n      iszero\n      tag_94\n      jumpi\n      dup2\n      0x20\n      add\n    tag_95:\n      tag_96\n      tag_69\n      jump\t// in\n    tag_96:\n      dup2\n      mstore\n      0x20\n      add\n      swap1\n      0x01\n      swap1\n      sub\n      swap1\n      dup2\n      tag_95\n      jumpi\n      swap1\n      pop\n    tag_94:\n      pop\n        /* \"contracts/Marketplace.sol\":4871:4918  NFT[] memory nfts = new NFT[](myListedNftCount) */\n      swap1\n      pop\n        /* \"contracts/Marketplace.sol\":4925:4939  uint nftsIndex */\n      0x00\n        /* \"contracts/Marketplace.sol\":4955:4961  uint i */\n      dup1\n        /* \"contracts/Marketplace.sol\":4950:5146  for (uint i = 0; i < nftCount; i++) {\r... */\n    tag_97:\n        /* \"contracts/Marketplace.sol\":4971:4979  nftCount */\n      dup5\n        /* \"contracts/Marketplace.sol\":4967:4968  i */\n      dup2\n        /* \"contracts/Marketplace.sol\":4967:4979  i < nftCount */\n      lt\n        /* \"contracts/Marketplace.sol\":4950:5146  for (uint i = 0; i < nftCount; i++) {\r... */\n      iszero\n      tag_98\n      jumpi\n        /* \"contracts/Marketplace.sol\":5025:5035  msg.sender */\n      caller\n        /* \"contracts/Marketplace.sol\":4999:5035  _idToNFT[i + 1].seller == msg.sender */\n      0xffffffffffffffffffffffffffffffffffffffff\n      and\n        /* \"contracts/Marketplace.sol\":4999:5007  _idToNFT */\n      0x06\n        /* \"contracts/Marketplace.sol\":4999:5014  _idToNFT[i + 1] */\n      0x00\n        /* \"contracts/Marketplace.sol\":5012:5013  1 */\n      0x01\n        /* \"contracts/Marketplace.sol\":5008:5009  i */\n      dup5\n        /* \"contracts/Marketplace.sol\":5008:5013  i + 1 */\n      tag_100\n      swap2\n      swap1\n      tag_58\n      jump\t// in\n    tag_100:\n        /* \"contracts/Marketplace.sol\":4999:5014  _idToNFT[i + 1] */\n      dup2\n      mstore\n      0x20\n      add\n      swap1\n      dup2\n      mstore\n      0x20\n      add\n      0x00\n      keccak256\n        /* \"contracts/Marketplace.sol\":4999:5021  _idToNFT[i + 1].seller */\n      0x02\n      add\n      0x00\n      swap1\n      sload\n      swap1\n      0x0100\n      exp\n      swap1\n      div\n      0xffffffffffffffffffffffffffffffffffffffff\n      and\n        /* \"contracts/Marketplace.sol\":4999:5035  _idToNFT[i + 1].seller == msg.sender */\n      0xffffffffffffffffffffffffffffffffffffffff\n      and\n      eq\n        /* \"contracts/Marketplace.sol\":4999:5061  _idToNFT[i + 1].seller == msg.sender && _idToNFT[i + 1].listed */\n      dup1\n      iszero\n      tag_101\n      jumpi\n      pop\n        /* \"contracts/Marketplace.sol\":5039:5047  _idToNFT */\n      0x06\n        /* \"contracts/Marketplace.sol\":5039:5054  _idToNFT[i + 1] */\n      0x00\n        /* \"contracts/Marketplace.sol\":5052:5053  1 */\n      0x01\n        /* \"contracts/Marketplace.sol\":5048:5049  i */\n      dup4\n        /* \"contracts/Marketplace.sol\":5048:5053  i + 1 */\n      tag_102\n      swap2\n      swap1\n      tag_58\n      jump\t// in\n    tag_102:\n        /* \"contracts/Marketplace.sol\":5039:5054  _idToNFT[i + 1] */\n      dup2\n      mstore\n      0x20\n      add\n      swap1\n      dup2\n      mstore\n      0x20\n      add\n      0x00\n      keccak256\n        /* \"contracts/Marketplace.sol\":5039:5061  _idToNFT[i + 1].listed */\n      0x05\n      add\n      0x02\n      swap1\n      sload\n      swap1\n      0x0100\n      exp\n      swap1\n      div\n      0xff\n      and\n        /* \"contracts/Marketplace.sol\":4999:5061  _idToNFT[i + 1].seller == msg.sender && _idToNFT[i + 1].listed */\n    tag_101:\n        /* \"contracts/Marketplace.sol\":4995:5139  if (_idToNFT[i + 1].seller == msg.sender && _idToNFT[i + 1].listed) {\r... */\n      iszero\n      tag_103\n      jumpi\n        /* \"contracts/Marketplace.sol\":5092:5100  _idToNFT */\n      0x06\n        /* \"contracts/Marketplace.sol\":5092:5107  _idToNFT[i + 1] */\n      0x00\n        /* \"contracts/Marketplace.sol\":5105:5106  1 */\n      0x01\n        /* \"contracts/Marketplace.sol\":5101:5102  i */\n      dup4\n        /* \"contracts/Marketplace.sol\":5101:5106  i + 1 */\n      tag_104\n      swap2\n      swap1\n      tag_58\n      jump\t// in\n    tag_104:\n        /* \"contracts/Marketplace.sol\":5092:5107  _idToNFT[i + 1] */\n      dup2\n      mstore\n      0x20\n      add\n      swap1\n      dup2\n      mstore\n      0x20\n      add\n      0x00\n      keccak256\n        /* \"contracts/Marketplace.sol\":5074:5107  nfts[nftsIndex] = _idToNFT[i + 1] */\n      mload(0x40)\n      dup1\n      0x0100\n      add\n      0x40\n      mstore\n      swap1\n      dup2\n      0x00\n      dup3\n      add\n      0x00\n      swap1\n      sload\n      swap1\n      0x0100\n      exp\n      swap1\n      div\n      0xffffffffffffffffffffffffffffffffffffffff\n      and\n      0xffffffffffffffffffffffffffffffffffffffff\n      and\n      0xffffffffffffffffffffffffffffffffffffffff\n      and\n      dup2\n      mstore\n      0x20\n      add\n      0x01\n      dup3\n      add\n      sload\n      dup2\n      mstore\n      0x20\n      add\n      0x02\n      dup3\n      add\n      0x00\n      swap1\n      sload\n      swap1\n      0x0100\n      exp\n      swap1\n      div\n      0xffffffffffffffffffffffffffffffffffffffff\n      and\n      0xffffffffffffffffffffffffffffffffffffffff\n      and\n      0xffffffffffffffffffffffffffffffffffffffff\n      and\n      dup2\n      mstore\n      0x20\n      add\n      0x03\n      dup3\n      add\n      0x00\n      swap1\n      sload\n      swap1\n      0x0100\n      exp\n      swap1\n      div\n      0xffffffffffffffffffffffffffffffffffffffff\n      and\n      0xffffffffffffffffffffffffffffffffffffffff\n      and\n      0xffffffffffffffffffffffffffffffffffffffff\n      and\n      dup2\n      mstore\n      0x20\n      add\n      0x04\n      dup3\n      add\n      sload\n      dup2\n      mstore\n      0x20\n      add\n      0x05\n      dup3\n      add\n      0x00\n      swap1\n      sload\n      swap1\n      0x0100\n      exp\n      swap1\n      div\n      0xff\n      and\n      iszero\n      iszero\n      iszero\n      iszero\n      dup2\n      mstore\n      0x20\n      add\n      0x05\n      dup3\n      add\n      0x01\n      swap1\n      sload\n      swap1\n      0x0100\n      exp\n      swap1\n      div\n      0xff\n      and\n      iszero\n      iszero\n      iszero\n      iszero\n      dup2\n      mstore\n      0x20\n      add\n      0x05\n      dup3\n      add\n      0x02\n      swap1\n      sload\n      swap1\n      0x0100\n      exp\n      swap1\n      div\n      0xff\n      and\n      iszero\n      iszero\n      iszero\n      iszero\n      dup2\n      mstore\n      pop\n      pop\n        /* \"contracts/Marketplace.sol\":5074:5078  nfts */\n      dup4\n        /* \"contracts/Marketplace.sol\":5079:5088  nftsIndex */\n      dup4\n        /* \"contracts/Marketplace.sol\":5074:5089  nfts[nftsIndex] */\n      dup2\n      mload\n      dup2\n      lt\n      tag_105\n      jumpi\n      tag_106\n      tag_78\n      jump\t// in\n    tag_106:\n    tag_105:\n      0x20\n      mul\n      0x20\n      add\n      add\n        /* \"contracts/Marketplace.sol\":5074:5107  nfts[nftsIndex] = _idToNFT[i + 1] */\n      dup2\n      swap1\n      mstore\n      pop\n        /* \"contracts/Marketplace.sol\":5118:5129  nftsIndex++ */\n      dup2\n      dup1\n      tag_107\n      swap1\n      tag_61\n      jump\t// in\n    tag_107:\n      swap3\n      pop\n      pop\n        /* \"contracts/Marketplace.sol\":4995:5139  if (_idToNFT[i + 1].seller == msg.sender && _idToNFT[i + 1].listed) {\r... */\n    tag_103:\n        /* \"contracts/Marketplace.sol\":4981:4984  i++ */\n      dup1\n      dup1\n      tag_108\n      swap1\n      tag_61\n      jump\t// in\n    tag_108:\n      swap2\n      pop\n      pop\n        /* \"contracts/Marketplace.sol\":4950:5146  for (uint i = 0; i < nftCount; i++) {\r... */\n      jump(tag_97)\n    tag_98:\n      pop\n        /* \"contracts/Marketplace.sol\":5159:5163  nfts */\n      dup2\n        /* \"contracts/Marketplace.sol\":5152:5163  return nfts */\n      swap5\n      pop\n      pop\n      pop\n      pop\n      pop\n        /* \"contracts/Marketplace.sol\":4561:5169  function getMyListedNfts() public view returns (NFT[] memory) {\r... */\n      swap1\n      jump\t// out\n        /* \"contracts/Marketplace.sol\":401:441  uint256 public LISTING_FEE = 0.001 ether */\n    tag_23:\n      sload(0x03)\n      dup2\n      jump\t// out\n        /* \"contracts/Marketplace.sol\":1313:1985  function listNft(address _nftContract, uint256 _tokenId, uint256 _price, bool bid, bool subscribe) public payable nonReentrant {\r... */\n    tag_29:\n        /* \"@openzeppelin/contracts/security/ReentrancyGuard.sol\":1680:1681  2 */\n      0x02\n        /* \"@openzeppelin/contracts/security/ReentrancyGuard.sol\":2259:2266  _status */\n      sload(0x00)\n        /* \"@openzeppelin/contracts/security/ReentrancyGuard.sol\":2259:2278  _status != _ENTERED */\n      eq\n      iszero\n        /* \"@openzeppelin/contracts/security/ReentrancyGuard.sol\":2251:2314  require(_status != _ENTERED, \"ReentrancyGuard: reentrant call\") */\n      tag_110\n      jumpi\n      mload(0x40)\n      0x08c379a000000000000000000000000000000000000000000000000000000000\n      dup2\n      mstore\n      0x04\n      add\n      tag_111\n      swap1\n      tag_112\n      jump\t// in\n    tag_111:\n      mload(0x40)\n      dup1\n      swap2\n      sub\n      swap1\n      revert\n    tag_110:\n        /* \"@openzeppelin/contracts/security/ReentrancyGuard.sol\":1680:1681  2 */\n      0x02\n        /* \"@openzeppelin/contracts/security/ReentrancyGuard.sol\":2389:2396  _status */\n      0x00\n        /* \"@openzeppelin/contracts/security/ReentrancyGuard.sol\":2389:2407  _status = _ENTERED */\n      dup2\n      swap1\n      sstore\n      pop\n        /* \"contracts/Marketplace.sol\":1464:1465  0 */\n      0x00\n        /* \"contracts/Marketplace.sol\":1455:1461  _price */\n      dup4\n        /* \"contracts/Marketplace.sol\":1455:1465  _price > 0 */\n      gt\n        /* \"contracts/Marketplace.sol\":1447:1498  require(_price > 0, \"Price must be at least 1 wei\") */\n      tag_114\n      jumpi\n      mload(0x40)\n      0x08c379a000000000000000000000000000000000000000000000000000000000\n      dup2\n      mstore\n      0x04\n      add\n      tag_115\n      swap1\n      tag_116\n      jump\t// in\n    tag_115:\n      mload(0x40)\n      dup1\n      swap2\n      sub\n      swap1\n      revert\n    tag_114:\n        /* \"contracts/Marketplace.sol\":1526:1537  LISTING_FEE */\n      sload(0x03)\n        /* \"contracts/Marketplace.sol\":1513:1522  msg.value */\n      callvalue\n        /* \"contracts/Marketplace.sol\":1513:1537  msg.value == LISTING_FEE */\n      eq\n        /* \"contracts/Marketplace.sol\":1505:1574  require(msg.value == LISTING_FEE, \"Not enough ether for listing fee\") */\n      tag_117\n      jumpi\n      mload(0x40)\n      0x08c379a000000000000000000000000000000000000000000000000000000000\n      dup2\n      mstore\n      0x04\n      add\n      tag_118\n      swap1\n      tag_119\n      jump\t// in\n    tag_118:\n      mload(0x40)\n      dup1\n      swap2\n      sub\n      swap1\n      revert\n    tag_117:\n        /* \"contracts/Marketplace.sol\":1591:1603  _nftContract */\n      dup5\n        /* \"contracts/Marketplace.sol\":1583:1617  IERC721(_nftContract).transferFrom */\n      0xffffffffffffffffffffffffffffffffffffffff\n      and\n      0x23b872dd\n        /* \"contracts/Marketplace.sol\":1618:1628  msg.sender */\n      caller\n        /* \"contracts/Marketplace.sol\":1638:1642  this */\n      address\n        /* \"contracts/Marketplace.sol\":1645:1653  _tokenId */\n      dup8\n        /* \"contracts/Marketplace.sol\":1583:1654  IERC721(_nftContract).transferFrom(msg.sender, address(this), _tokenId) */\n      mload(0x40)\n      dup5\n      0xffffffff\n      and\n      0xe0\n      shl\n      dup2\n      mstore\n      0x04\n      add\n      tag_120\n      swap4\n      swap3\n      swap2\n      swap1\n      tag_121\n      jump\t// in\n    tag_120:\n      0x00\n      mload(0x40)\n      dup1\n      dup4\n      sub\n      dup2\n      0x00\n      dup8\n      dup1\n      extcodesize\n      iszero\n      dup1\n      iszero\n      tag_122\n      jumpi\n      0x00\n      dup1\n      revert\n    tag_122:\n      pop\n      gas\n      call\n      iszero\n      dup1\n      iszero\n      tag_124\n      jumpi\n      returndatasize\n      0x00\n      dup1\n      returndatacopy\n      revert(0x00, returndatasize)\n    tag_124:\n      pop\n      pop\n      pop\n      pop\n        /* \"contracts/Marketplace.sol\":1663:1684  _nftCount.increment() */\n      tag_125\n        /* \"contracts/Marketplace.sol\":1663:1672  _nftCount */\n      0x02\n        /* \"contracts/Marketplace.sol\":1663:1682  _nftCount.increment */\n      tag_126\n        /* \"contracts/Marketplace.sol\":1663:1684  _nftCount.increment() */\n      jump\t// in\n    tag_125:\n        /* \"contracts/Marketplace.sol\":1714:1881  NFT(\r... */\n      mload(0x40)\n      dup1\n      0x0100\n      add\n      0x40\n      mstore\n      dup1\n        /* \"contracts/Marketplace.sol\":1726:1738  _nftContract */\n      dup7\n        /* \"contracts/Marketplace.sol\":1714:1881  NFT(\r... */\n      0xffffffffffffffffffffffffffffffffffffffff\n      and\n      dup2\n      mstore\n      0x20\n      add\n        /* \"contracts/Marketplace.sol\":1747:1755  _tokenId */\n      dup6\n        /* \"contracts/Marketplace.sol\":1714:1881  NFT(\r... */\n      dup2\n      mstore\n      0x20\n      add\n        /* \"contracts/Marketplace.sol\":1773:1783  msg.sender */\n      caller\n        /* \"contracts/Marketplace.sol\":1714:1881  NFT(\r... */\n      0xffffffffffffffffffffffffffffffffffffffff\n      and\n      dup2\n      mstore\n      0x20\n      add\n        /* \"contracts/Marketplace.sol\":1809:1813  this */\n      address\n        /* \"contracts/Marketplace.sol\":1714:1881  NFT(\r... */\n      0xffffffffffffffffffffffffffffffffffffffff\n      and\n      dup2\n      mstore\n      0x20\n      add\n        /* \"contracts/Marketplace.sol\":1824:1830  _price */\n      dup5\n        /* \"contracts/Marketplace.sol\":1714:1881  NFT(\r... */\n      dup2\n      mstore\n      0x20\n      add\n        /* \"contracts/Marketplace.sol\":1839:1842  bid */\n      dup4\n        /* \"contracts/Marketplace.sol\":1714:1881  NFT(\r... */\n      iszero\n      iszero\n      dup2\n      mstore\n      0x20\n      add\n        /* \"contracts/Marketplace.sol\":1852:1861  subscribe */\n      dup3\n        /* \"contracts/Marketplace.sol\":1714:1881  NFT(\r... */\n      iszero\n      iszero\n      dup2\n      mstore\n      0x20\n      add\n        /* \"contracts/Marketplace.sol\":1870:1874  true */\n      0x01\n        /* \"contracts/Marketplace.sol\":1714:1881  NFT(\r... */\n      iszero\n      iszero\n      dup2\n      mstore\n      pop\n        /* \"contracts/Marketplace.sol\":1693:1701  _idToNFT */\n      0x06\n        /* \"contracts/Marketplace.sol\":1693:1711  _idToNFT[_tokenId] */\n      0x00\n        /* \"contracts/Marketplace.sol\":1702:1710  _tokenId */\n      dup7\n        /* \"contracts/Marketplace.sol\":1693:1711  _idToNFT[_tokenId] */\n      dup2\n      mstore\n      0x20\n      add\n      swap1\n      dup2\n      mstore\n      0x20\n      add\n      0x00\n      keccak256\n        /* \"contracts/Marketplace.sol\":1693:1881  _idToNFT[_tokenId] = NFT(\r... */\n      0x00\n      dup3\n      add\n      mload\n      dup2\n      0x00\n      add\n      exp(0x0100, 0x00)\n      dup2\n      sload\n      dup2\n      0xffffffffffffffffffffffffffffffffffffffff\n      mul\n      not\n      and\n      swap1\n      dup4\n      0xffffffffffffffffffffffffffffffffffffffff\n      and\n      mul\n      or\n      swap1\n      sstore\n      pop\n      0x20\n      dup3\n      add\n      mload\n      dup2\n      0x01\n      add\n      sstore\n      0x40\n      dup3\n      add\n      mload\n      dup2\n      0x02\n      add\n      exp(0x0100, 0x00)\n      dup2\n      sload\n      dup2\n      0xffffffffffffffffffffffffffffffffffffffff\n      mul\n      not\n      and\n      swap1\n      dup4\n      0xffffffffffffffffffffffffffffffffffffffff\n      and\n      mul\n      or\n      swap1\n      sstore\n      pop\n      0x60\n      dup3\n      add\n      mload\n      dup2\n      0x03\n      add\n      exp(0x0100, 0x00)\n      dup2\n      sload\n      dup2\n      0xffffffffffffffffffffffffffffffffffffffff\n      mul\n      not\n      and\n      swap1\n      dup4\n      0xffffffffffffffffffffffffffffffffffffffff\n      and\n      mul\n      or\n      swap1\n      sstore\n      pop\n      0x80\n      dup3\n      add\n      mload\n      dup2\n      0x04\n      add\n      sstore\n      0xa0\n      dup3\n      add\n      mload\n      dup2\n      0x05\n      add\n      exp(0x0100, 0x00)\n      dup2\n      sload\n      dup2\n      0xff\n      mul\n      not\n      and\n      swap1\n      dup4\n      iszero\n      iszero\n      mul\n      or\n      swap1\n      sstore\n      pop\n      0xc0\n      dup3\n      add\n      mload\n      dup2\n      0x05\n      add\n      exp(0x0100, 0x01)\n      dup2\n      sload\n      dup2\n      0xff\n      mul\n      not\n      and\n      swap1\n      dup4\n      iszero\n      iszero\n      mul\n      or\n      swap1\n      sstore\n      pop\n      0xe0\n      dup3\n      add\n      mload\n      dup2\n      0x05\n      add\n      exp(0x0100, 0x02)\n      dup2\n      sload\n      dup2\n      0xff\n      mul\n      not\n      and\n      swap1\n      dup4\n      iszero\n      iszero\n      mul\n      or\n      swap1\n      sstore\n      pop\n      swap1\n      pop\n      pop\n        /* \"contracts/Marketplace.sol\":1895:1979  NFTListed(_nftContract, _tokenId, msg.sender, address(this), _price, bid, subscribe) */\n      0xfe39ca4f5d58a07d8b589986fd77ff12272e3c3e03885e48d32964f5a9b8a4e8\n        /* \"contracts/Marketplace.sol\":1905:1917  _nftContract */\n      dup6\n        /* \"contracts/Marketplace.sol\":1919:1927  _tokenId */\n      dup6\n        /* \"contracts/Marketplace.sol\":1929:1939  msg.sender */\n      caller\n        /* \"contracts/Marketplace.sol\":1949:1953  this */\n      address\n        /* \"contracts/Marketplace.sol\":1956:1962  _price */\n      dup8\n        /* \"contracts/Marketplace.sol\":1964:1967  bid */\n      dup8\n        /* \"contracts/Marketplace.sol\":1969:1978  subscribe */\n      dup8\n        /* \"contracts/Marketplace.sol\":1895:1979  NFTListed(_nftContract, _tokenId, msg.sender, address(this), _price, bid, subscribe) */\n      mload(0x40)\n      tag_127\n      swap8\n      swap7\n      swap6\n      swap5\n      swap4\n      swap3\n      swap2\n      swap1\n      tag_128\n      jump\t// in\n    tag_127:\n      mload(0x40)\n      dup1\n      swap2\n      sub\n      swap1\n      log1\n        /* \"@openzeppelin/contracts/security/ReentrancyGuard.sol\":1637:1638  1 */\n      0x01\n        /* \"@openzeppelin/contracts/security/ReentrancyGuard.sol\":2562:2569  _status */\n      0x00\n        /* \"@openzeppelin/contracts/security/ReentrancyGuard.sol\":2562:2584  _status = _NOT_ENTERED */\n      dup2\n      swap1\n      sstore\n      pop\n        /* \"contracts/Marketplace.sol\":1313:1985  function listNft(address _nftContract, uint256 _tokenId, uint256 _price, bool bid, bool subscribe) public payable nonReentrant {\r... */\n      pop\n      pop\n      pop\n      pop\n      pop\n      jump\t// out\n        /* \"contracts/Marketplace.sol\":2008:2615  function buyNft(address _nftContract, uint256 _tokenId) public payable nonReentrant {\r... */\n    tag_33:\n        /* \"@openzeppelin/contracts/security/ReentrancyGuard.sol\":1680:1681  2 */\n      0x02\n        /* \"@openzeppelin/contracts/security/ReentrancyGuard.sol\":2259:2266  _status */\n      sload(0x00)\n        /* \"@openzeppelin/contracts/security/ReentrancyGuard.sol\":2259:2278  _status != _ENTERED */\n      eq\n      iszero\n        /* \"@openzeppelin/contracts/security/ReentrancyGuard.sol\":2251:2314  require(_status != _ENTERED, \"ReentrancyGuard: reentrant call\") */\n      tag_130\n      jumpi\n      mload(0x40)\n      0x08c379a000000000000000000000000000000000000000000000000000000000\n      dup2\n      mstore\n      0x04\n      add\n      tag_131\n      swap1\n      tag_112\n      jump\t// in\n    tag_131:\n      mload(0x40)\n      dup1\n      swap2\n      sub\n      swap1\n      revert\n    tag_130:\n        /* \"@openzeppelin/contracts/security/ReentrancyGuard.sol\":1680:1681  2 */\n      0x02\n        /* \"@openzeppelin/contracts/security/ReentrancyGuard.sol\":2389:2396  _status */\n      0x00\n        /* \"@openzeppelin/contracts/security/ReentrancyGuard.sol\":2389:2407  _status = _ENTERED */\n      dup2\n      swap1\n      sstore\n      pop\n        /* \"contracts/Marketplace.sol\":2099:2114  NFT storage nft */\n      0x00\n        /* \"contracts/Marketplace.sol\":2117:2125  _idToNFT */\n      0x06\n        /* \"contracts/Marketplace.sol\":2117:2135  _idToNFT[_tokenId] */\n      0x00\n        /* \"contracts/Marketplace.sol\":2126:2134  _tokenId */\n      dup4\n        /* \"contracts/Marketplace.sol\":2117:2135  _idToNFT[_tokenId] */\n      dup2\n      mstore\n      0x20\n      add\n      swap1\n      dup2\n      mstore\n      0x20\n      add\n      0x00\n      keccak256\n        /* \"contracts/Marketplace.sol\":2099:2135  NFT storage nft = _idToNFT[_tokenId] */\n      swap1\n      pop\n        /* \"contracts/Marketplace.sol\":2163:2166  nft */\n      dup1\n        /* \"contracts/Marketplace.sol\":2163:2172  nft.price */\n      0x04\n      add\n      sload\n        /* \"contracts/Marketplace.sol\":2150:2159  msg.value */\n      callvalue\n        /* \"contracts/Marketplace.sol\":2150:2172  msg.value >= nft.price */\n      lt\n      iszero\n        /* \"contracts/Marketplace.sol\":2142:2215  require(msg.value >= nft.price, \"Not enough ether to cover asking price\") */\n      tag_133\n      jumpi\n      mload(0x40)\n      0x08c379a000000000000000000000000000000000000000000000000000000000\n      dup2\n      mstore\n      0x04\n      add\n      tag_134\n      swap1\n      tag_135\n      jump\t// in\n    tag_134:\n      mload(0x40)\n      dup1\n      swap2\n      sub\n      swap1\n      revert\n    tag_133:\n        /* \"contracts/Marketplace.sol\":2224:2245  address payable buyer */\n      0x00\n        /* \"contracts/Marketplace.sol\":2256:2266  msg.sender */\n      caller\n        /* \"contracts/Marketplace.sol\":2224:2267  address payable buyer = payable(msg.sender) */\n      swap1\n      pop\n        /* \"contracts/Marketplace.sol\":2282:2285  nft */\n      dup2\n        /* \"contracts/Marketplace.sol\":2282:2292  nft.seller */\n      0x02\n      add\n      0x00\n      swap1\n      sload\n      swap1\n      0x0100\n      exp\n      swap1\n      div\n      0xffffffffffffffffffffffffffffffffffffffff\n      and\n        /* \"contracts/Marketplace.sol\":2274:2302  payable(nft.seller).transfer */\n      0xffffffffffffffffffffffffffffffffffffffff\n      and\n        /* \"contracts/Marketplace.sol\":2274:2313  payable(nft.seller).transfer(msg.value) */\n      0x08fc\n        /* \"contracts/Marketplace.sol\":2303:2312  msg.value */\n      callvalue\n        /* \"contracts/Marketplace.sol\":2274:2313  payable(nft.seller).transfer(msg.value) */\n      swap1\n      dup2\n      iszero\n      mul\n      swap1\n      mload(0x40)\n      0x00\n      mload(0x40)\n      dup1\n      dup4\n      sub\n      dup2\n      dup6\n      dup9\n      dup9\n      call\n      swap4\n      pop\n      pop\n      pop\n      pop\n      iszero\n      dup1\n      iszero\n      tag_137\n      jumpi\n      returndatasize\n      0x00\n      dup1\n      returndatacopy\n      revert(0x00, returndatasize)\n    tag_137:\n      pop\n        /* \"contracts/Marketplace.sol\":2328:2340  _nftContract */\n      dup4\n        /* \"contracts/Marketplace.sol\":2320:2354  IERC721(_nftContract).transferFrom */\n      0xffffffffffffffffffffffffffffffffffffffff\n      and\n      0x23b872dd\n        /* \"contracts/Marketplace.sol\":2363:2367  this */\n      address\n        /* \"contracts/Marketplace.sol\":2370:2375  buyer */\n      dup4\n        /* \"contracts/Marketplace.sol\":2377:2380  nft */\n      dup6\n        /* \"contracts/Marketplace.sol\":2377:2388  nft.tokenId */\n      0x01\n      add\n      sload\n        /* \"contracts/Marketplace.sol\":2320:2389  IERC721(_nftContract).transferFrom(address(this), buyer, nft.tokenId) */\n      mload(0x40)\n      dup5\n      0xffffffff\n      and\n      0xe0\n      shl\n      dup2\n      mstore\n      0x04\n      add\n      tag_138\n      swap4\n      swap3\n      swap2\n      swap1\n      tag_139\n      jump\t// in\n    tag_138:\n      0x00\n      mload(0x40)\n      dup1\n      dup4\n      sub\n      dup2\n      0x00\n      dup8\n      dup1\n      extcodesize\n      iszero\n      dup1\n      iszero\n      tag_140\n      jumpi\n      0x00\n      dup1\n      revert\n    tag_140:\n      pop\n      gas\n      call\n      iszero\n      dup1\n      iszero\n      tag_142\n      jumpi\n      returndatasize\n      0x00\n      dup1\n      returndatacopy\n      revert(0x00, returndatasize)\n    tag_142:\n      pop\n      pop\n      pop\n      pop\n        /* \"contracts/Marketplace.sol\":2396:2408  _marketOwner */\n      0x05\n      0x00\n      swap1\n      sload\n      swap1\n      0x0100\n      exp\n      swap1\n      div\n      0xffffffffffffffffffffffffffffffffffffffff\n      and\n        /* \"contracts/Marketplace.sol\":2396:2417  _marketOwner.transfer */\n      0xffffffffffffffffffffffffffffffffffffffff\n      and\n        /* \"contracts/Marketplace.sol\":2396:2430  _marketOwner.transfer(LISTING_FEE) */\n      0x08fc\n        /* \"contracts/Marketplace.sol\":2418:2429  LISTING_FEE */\n      sload(0x03)\n        /* \"contracts/Marketplace.sol\":2396:2430  _marketOwner.transfer(LISTING_FEE) */\n      swap1\n      dup2\n      iszero\n      mul\n      swap1\n      mload(0x40)\n      0x00\n      mload(0x40)\n      dup1\n      dup4\n      sub\n      dup2\n      dup6\n      dup9\n      dup9\n      call\n      swap4\n      pop\n      pop\n      pop\n      pop\n      iszero\n      dup1\n      iszero\n      tag_144\n      jumpi\n      returndatasize\n      0x00\n      dup1\n      returndatacopy\n      revert(0x00, returndatasize)\n    tag_144:\n      pop\n        /* \"contracts/Marketplace.sol\":2449:2454  buyer */\n      dup1\n        /* \"contracts/Marketplace.sol\":2437:2440  nft */\n      dup3\n        /* \"contracts/Marketplace.sol\":2437:2446  nft.owner */\n      0x03\n      add\n      0x00\n        /* \"contracts/Marketplace.sol\":2437:2454  nft.owner = buyer */\n      0x0100\n      exp\n      dup2\n      sload\n      dup2\n      0xffffffffffffffffffffffffffffffffffffffff\n      mul\n      not\n      and\n      swap1\n      dup4\n      0xffffffffffffffffffffffffffffffffffffffff\n      and\n      mul\n      or\n      swap1\n      sstore\n      pop\n        /* \"contracts/Marketplace.sol\":2474:2479  false */\n      0x00\n        /* \"contracts/Marketplace.sol\":2461:2464  nft */\n      dup3\n        /* \"contracts/Marketplace.sol\":2461:2471  nft.listed */\n      0x05\n      add\n      0x02\n        /* \"contracts/Marketplace.sol\":2461:2479  nft.listed = false */\n      0x0100\n      exp\n      dup2\n      sload\n      dup2\n      0xff\n      mul\n      not\n      and\n      swap1\n      dup4\n      iszero\n      iszero\n      mul\n      or\n      swap1\n      sstore\n      pop\n        /* \"contracts/Marketplace.sol\":2488:2509  _nftsSold.increment() */\n      tag_145\n        /* \"contracts/Marketplace.sol\":2488:2497  _nftsSold */\n      0x01\n        /* \"contracts/Marketplace.sol\":2488:2507  _nftsSold.increment */\n      tag_126\n        /* \"contracts/Marketplace.sol\":2488:2509  _nftsSold.increment() */\n      jump\t// in\n    tag_145:\n        /* \"contracts/Marketplace.sol\":2521:2609  NFTSold(_nftContract, nft.tokenId, nft.seller, buyer, msg.value, nft.bid, nft.subscribe) */\n      0xcc36e356476d207fc81ef74c18d91c21c08d4e0050d5cdc9dff6f5d564b7f446\n        /* \"contracts/Marketplace.sol\":2529:2541  _nftContract */\n      dup5\n        /* \"contracts/Marketplace.sol\":2543:2546  nft */\n      dup4\n        /* \"contracts/Marketplace.sol\":2543:2554  nft.tokenId */\n      0x01\n      add\n      sload\n        /* \"contracts/Marketplace.sol\":2556:2559  nft */\n      dup5\n        /* \"contracts/Marketplace.sol\":2556:2566  nft.seller */\n      0x02\n      add\n      0x00\n      swap1\n      sload\n      swap1\n      0x0100\n      exp\n      swap1\n      div\n      0xffffffffffffffffffffffffffffffffffffffff\n      and\n        /* \"contracts/Marketplace.sol\":2568:2573  buyer */\n      dup5\n        /* \"contracts/Marketplace.sol\":2575:2584  msg.value */\n      callvalue\n        /* \"contracts/Marketplace.sol\":2586:2589  nft */\n      dup8\n        /* \"contracts/Marketplace.sol\":2586:2593  nft.bid */\n      0x05\n      add\n      0x00\n      swap1\n      sload\n      swap1\n      0x0100\n      exp\n      swap1\n      div\n      0xff\n      and\n        /* \"contracts/Marketplace.sol\":2595:2598  nft */\n      dup9\n        /* \"contracts/Marketplace.sol\":2595:2608  nft.subscribe */\n      0x05\n      add\n      0x01\n      swap1\n      sload\n      swap1\n      0x0100\n      exp\n      swap1\n      div\n      0xff\n      and\n        /* \"contracts/Marketplace.sol\":2521:2609  NFTSold(_nftContract, nft.tokenId, nft.seller, buyer, msg.value, nft.bid, nft.subscribe) */\n      mload(0x40)\n      tag_146\n      swap8\n      swap7\n      swap6\n      swap5\n      swap4\n      swap3\n      swap2\n      swap1\n      tag_147\n      jump\t// in\n    tag_146:\n      mload(0x40)\n      dup1\n      swap2\n      sub\n      swap1\n      log1\n        /* \"contracts/Marketplace.sol\":2092:2615  {\r... */\n      pop\n      pop\n        /* \"@openzeppelin/contracts/security/ReentrancyGuard.sol\":1637:1638  1 */\n      0x01\n        /* \"@openzeppelin/contracts/security/ReentrancyGuard.sol\":2562:2569  _status */\n      0x00\n        /* \"@openzeppelin/contracts/security/ReentrancyGuard.sol\":2562:2584  _status = _NOT_ENTERED */\n      dup2\n      swap1\n      sstore\n      pop\n        /* \"contracts/Marketplace.sol\":2008:2615  function buyNft(address _nftContract, uint256 _tokenId) public payable nonReentrant {\r... */\n      pop\n      pop\n      jump\t// out\n        /* \"contracts/Marketplace.sol\":3471:4019  function getListedNfts(bool bid, bool subscribe) public view returns (NFT[] memory) {\r... */\n    tag_38:\n        /* \"contracts/Marketplace.sol\":3541:3553  NFT[] memory */\n      0x60\n        /* \"contracts/Marketplace.sol\":3562:3578  uint256 nftCount */\n      0x00\n        /* \"contracts/Marketplace.sol\":3581:3600  _nftCount.current() */\n      tag_149\n        /* \"contracts/Marketplace.sol\":3581:3590  _nftCount */\n      0x02\n        /* \"contracts/Marketplace.sol\":3581:3598  _nftCount.current */\n      tag_53\n        /* \"contracts/Marketplace.sol\":3581:3600  _nftCount.current() */\n      jump\t// in\n    tag_149:\n        /* \"contracts/Marketplace.sol\":3562:3600  uint256 nftCount = _nftCount.current() */\n      swap1\n      pop\n        /* \"contracts/Marketplace.sol\":3607:3630  uint256 unsoldNftsCount */\n      0x00\n        /* \"contracts/Marketplace.sol\":3644:3663  _nftsSold.current() */\n      tag_150\n        /* \"contracts/Marketplace.sol\":3644:3653  _nftsSold */\n      0x01\n        /* \"contracts/Marketplace.sol\":3644:3661  _nftsSold.current */\n      tag_53\n        /* \"contracts/Marketplace.sol\":3644:3663  _nftsSold.current() */\n      jump\t// in\n    tag_150:\n        /* \"contracts/Marketplace.sol\":3633:3641  nftCount */\n      dup3\n        /* \"contracts/Marketplace.sol\":3633:3663  nftCount - _nftsSold.current() */\n      tag_151\n      swap2\n      swap1\n      tag_152\n      jump\t// in\n    tag_151:\n        /* \"contracts/Marketplace.sol\":3607:3663  uint256 unsoldNftsCount = nftCount - _nftsSold.current() */\n      swap1\n      pop\n        /* \"contracts/Marketplace.sol\":3672:3689  NFT[] memory nfts */\n      0x00\n        /* \"contracts/Marketplace.sol\":3702:3717  unsoldNftsCount */\n      dup2\n        /* \"contracts/Marketplace.sol\":3692:3718  new NFT[](unsoldNftsCount) */\n      0xffffffffffffffff\n      dup2\n      gt\n      iszero\n      tag_153\n      jumpi\n      tag_154\n      tag_65\n      jump\t// in\n    tag_154:\n    tag_153:\n      mload(0x40)\n      swap1\n      dup1\n      dup3\n      mstore\n      dup1\n      0x20\n      mul\n      0x20\n      add\n      dup3\n      add\n      0x40\n      mstore\n      dup1\n      iszero\n      tag_155\n      jumpi\n      dup2\n      0x20\n      add\n    tag_156:\n      tag_157\n      tag_69\n      jump\t// in\n    tag_157:\n      dup2\n      mstore\n      0x20\n      add\n      swap1\n      0x01\n      swap1\n      sub\n      swap1\n      dup2\n      tag_156\n      jumpi\n      swap1\n      pop\n    tag_155:\n      pop\n        /* \"contracts/Marketplace.sol\":3672:3718  NFT[] memory nfts = new NFT[](unsoldNftsCount) */\n      swap1\n      pop\n        /* \"contracts/Marketplace.sol\":3725:3739  uint nftsIndex */\n      0x00\n        /* \"contracts/Marketplace.sol\":3755:3761  uint i */\n      dup1\n        /* \"contracts/Marketplace.sol\":3750:3996  for (uint i = 0; i < nftCount; i++) {\r... */\n    tag_158:\n        /* \"contracts/Marketplace.sol\":3771:3779  nftCount */\n      dup5\n        /* \"contracts/Marketplace.sol\":3767:3768  i */\n      dup2\n        /* \"contracts/Marketplace.sol\":3767:3779  i < nftCount */\n      lt\n        /* \"contracts/Marketplace.sol\":3750:3996  for (uint i = 0; i < nftCount; i++) {\r... */\n      iszero\n      tag_159\n      jumpi\n        /* \"contracts/Marketplace.sol\":3801:3809  _idToNFT */\n      0x06\n        /* \"contracts/Marketplace.sol\":3801:3816  _idToNFT[i + 1] */\n      0x00\n        /* \"contracts/Marketplace.sol\":3814:3815  1 */\n      0x01\n        /* \"contracts/Marketplace.sol\":3810:3811  i */\n      dup4\n        /* \"contracts/Marketplace.sol\":3810:3815  i + 1 */\n      tag_161\n      swap2\n      swap1\n      tag_58\n      jump\t// in\n    tag_161:\n        /* \"contracts/Marketplace.sol\":3801:3816  _idToNFT[i + 1] */\n      dup2\n      mstore\n      0x20\n      add\n      swap1\n      dup2\n      mstore\n      0x20\n      add\n      0x00\n      keccak256\n        /* \"contracts/Marketplace.sol\":3801:3823  _idToNFT[i + 1].listed */\n      0x05\n      add\n      0x02\n      swap1\n      sload\n      swap1\n      0x0100\n      exp\n      swap1\n      div\n      0xff\n      and\n        /* \"contracts/Marketplace.sol\":3801:3856  _idToNFT[i + 1].listed && (!bid || _idToNFT[i + 1].bid) */\n      dup1\n      iszero\n      tag_162\n      jumpi\n      pop\n        /* \"contracts/Marketplace.sol\":3829:3832  bid */\n      dup8\n        /* \"contracts/Marketplace.sol\":3828:3832  !bid */\n      iszero\n        /* \"contracts/Marketplace.sol\":3828:3855  !bid || _idToNFT[i + 1].bid */\n      dup1\n      tag_163\n      jumpi\n      pop\n        /* \"contracts/Marketplace.sol\":3836:3844  _idToNFT */\n      0x06\n        /* \"contracts/Marketplace.sol\":3836:3851  _idToNFT[i + 1] */\n      0x00\n        /* \"contracts/Marketplace.sol\":3849:3850  1 */\n      0x01\n        /* \"contracts/Marketplace.sol\":3845:3846  i */\n      dup4\n        /* \"contracts/Marketplace.sol\":3845:3850  i + 1 */\n      tag_164\n      swap2\n      swap1\n      tag_58\n      jump\t// in\n    tag_164:\n        /* \"contracts/Marketplace.sol\":3836:3851  _idToNFT[i + 1] */\n      dup2\n      mstore\n      0x20\n      add\n      swap1\n      dup2\n      mstore\n      0x20\n      add\n      0x00\n      keccak256\n        /* \"contracts/Marketplace.sol\":3836:3855  _idToNFT[i + 1].bid */\n      0x05\n      add\n      0x00\n      swap1\n      sload\n      swap1\n      0x0100\n      exp\n      swap1\n      div\n      0xff\n      and\n        /* \"contracts/Marketplace.sol\":3828:3855  !bid || _idToNFT[i + 1].bid */\n    tag_163:\n        /* \"contracts/Marketplace.sol\":3801:3856  _idToNFT[i + 1].listed && (!bid || _idToNFT[i + 1].bid) */\n    tag_162:\n        /* \"contracts/Marketplace.sol\":3801:3901  _idToNFT[i + 1].listed && (!bid || _idToNFT[i + 1].bid) && (!subscribe || _idToNFT[i + 1].subscribe) */\n      dup1\n      iszero\n      tag_165\n      jumpi\n      pop\n        /* \"contracts/Marketplace.sol\":3862:3871  subscribe */\n      dup7\n        /* \"contracts/Marketplace.sol\":3861:3871  !subscribe */\n      iszero\n        /* \"contracts/Marketplace.sol\":3861:3900  !subscribe || _idToNFT[i + 1].subscribe */\n      dup1\n      tag_166\n      jumpi\n      pop\n        /* \"contracts/Marketplace.sol\":3875:3883  _idToNFT */\n      0x06\n        /* \"contracts/Marketplace.sol\":3875:3890  _idToNFT[i + 1] */\n      0x00\n        /* \"contracts/Marketplace.sol\":3888:3889  1 */\n      0x01\n        /* \"contracts/Marketplace.sol\":3884:3885  i */\n      dup4\n        /* \"contracts/Marketplace.sol\":3884:3889  i + 1 */\n      tag_167\n      swap2\n      swap1\n      tag_58\n      jump\t// in\n    tag_167:\n        /* \"contracts/Marketplace.sol\":3875:3890  _idToNFT[i + 1] */\n      dup2\n      mstore\n      0x20\n      add\n      swap1\n      dup2\n      mstore\n      0x20\n      add\n      0x00\n      keccak256\n        /* \"contracts/Marketplace.sol\":3875:3900  _idToNFT[i + 1].subscribe */\n      0x05\n      add\n      0x01\n      swap1\n      sload\n      swap1\n      0x0100\n      exp\n      swap1\n      div\n      0xff\n      and\n        /* \"contracts/Marketplace.sol\":3861:3900  !subscribe || _idToNFT[i + 1].subscribe */\n    tag_166:\n        /* \"contracts/Marketplace.sol\":3801:3901  _idToNFT[i + 1].listed && (!bid || _idToNFT[i + 1].bid) && (!subscribe || _idToNFT[i + 1].subscribe) */\n    tag_165:\n        /* \"contracts/Marketplace.sol\":3797:3989  if (_idToNFT[i + 1].listed && (!bid || _idToNFT[i + 1].bid) && (!subscribe || _idToNFT[i + 1].subscribe)) {\r... */\n      iszero\n      tag_168\n      jumpi\n        /* \"contracts/Marketplace.sol\":3936:3944  _idToNFT */\n      0x06\n        /* \"contracts/Marketplace.sol\":3936:3951  _idToNFT[i + 1] */\n      0x00\n        /* \"contracts/Marketplace.sol\":3949:3950  1 */\n      0x01\n        /* \"contracts/Marketplace.sol\":3945:3946  i */\n      dup4\n        /* \"contracts/Marketplace.sol\":3945:3950  i + 1 */\n      tag_169\n      swap2\n      swap1\n      tag_58\n      jump\t// in\n    tag_169:\n        /* \"contracts/Marketplace.sol\":3936:3951  _idToNFT[i + 1] */\n      dup2\n      mstore\n      0x20\n      add\n      swap1\n      dup2\n      mstore\n      0x20\n      add\n      0x00\n      keccak256\n        /* \"contracts/Marketplace.sol\":3918:3951  nfts[nftsIndex] = _idToNFT[i + 1] */\n      mload(0x40)\n      dup1\n      0x0100\n      add\n      0x40\n      mstore\n      swap1\n      dup2\n      0x00\n      dup3\n      add\n      0x00\n      swap1\n      sload\n      swap1\n      0x0100\n      exp\n      swap1\n      div\n      0xffffffffffffffffffffffffffffffffffffffff\n      and\n      0xffffffffffffffffffffffffffffffffffffffff\n      and\n      0xffffffffffffffffffffffffffffffffffffffff\n      and\n      dup2\n      mstore\n      0x20\n      add\n      0x01\n      dup3\n      add\n      sload\n      dup2\n      mstore\n      0x20\n      add\n      0x02\n      dup3\n      add\n      0x00\n      swap1\n      sload\n      swap1\n      0x0100\n      exp\n      swap1\n      div\n      0xffffffffffffffffffffffffffffffffffffffff\n      and\n      0xffffffffffffffffffffffffffffffffffffffff\n      and\n      0xffffffffffffffffffffffffffffffffffffffff\n      and\n      dup2\n      mstore\n      0x20\n      add\n      0x03\n      dup3\n      add\n      0x00\n      swap1\n      sload\n      swap1\n      0x0100\n      exp\n      swap1\n      div\n      0xffffffffffffffffffffffffffffffffffffffff\n      and\n      0xffffffffffffffffffffffffffffffffffffffff\n      and\n      0xffffffffffffffffffffffffffffffffffffffff\n      and\n      dup2\n      mstore\n      0x20\n      add\n      0x04\n      dup3\n      add\n      sload\n      dup2\n      mstore\n      0x20\n      add\n      0x05\n      dup3\n      add\n      0x00\n      swap1\n      sload\n      swap1\n      0x0100\n      exp\n      swap1\n      div\n      0xff\n      and\n      iszero\n      iszero\n      iszero\n      iszero\n      dup2\n      mstore\n      0x20\n      add\n      0x05\n      dup3\n      add\n      0x01\n      swap1\n      sload\n      swap1\n      0x0100\n      exp\n      swap1\n      div\n      0xff\n      and\n      iszero\n      iszero\n      iszero\n      iszero\n      dup2\n      mstore\n      0x20\n      add\n      0x05\n      dup3\n      add\n      0x02\n      swap1\n      sload\n      swap1\n      0x0100\n      exp\n      swap1\n      div\n      0xff\n      and\n      iszero\n      iszero\n      iszero\n      iszero\n      dup2\n      mstore\n      pop\n      pop\n        /* \"contracts/Marketplace.sol\":3918:3922  nfts */\n      dup4\n        /* \"contracts/Marketplace.sol\":3923:3932  nftsIndex */\n      dup4\n        /* \"contracts/Marketplace.sol\":3918:3933  nfts[nftsIndex] */\n      dup2\n      mload\n      dup2\n      lt\n      tag_170\n      jumpi\n      tag_171\n      tag_78\n      jump\t// in\n    tag_171:\n    tag_170:\n      0x20\n      mul\n      0x20\n      add\n      add\n        /* \"contracts/Marketplace.sol\":3918:3951  nfts[nftsIndex] = _idToNFT[i + 1] */\n      dup2\n      swap1\n      mstore\n      pop\n        /* \"contracts/Marketplace.sol\":3966:3977  nftsIndex++ */\n      dup2\n      dup1\n      tag_172\n      swap1\n      tag_61\n      jump\t// in\n    tag_172:\n      swap3\n      pop\n      pop\n        /* \"contracts/Marketplace.sol\":3797:3989  if (_idToNFT[i + 1].listed && (!bid || _idToNFT[i + 1].bid) && (!subscribe || _idToNFT[i + 1].subscribe)) {\r... */\n    tag_168:\n        /* \"contracts/Marketplace.sol\":3781:3784  i++ */\n      dup1\n      dup1\n      tag_173\n      swap1\n      tag_61\n      jump\t// in\n    tag_173:\n      swap2\n      pop\n      pop\n        /* \"contracts/Marketplace.sol\":3750:3996  for (uint i = 0; i < nftCount; i++) {\r... */\n      jump(tag_158)\n    tag_159:\n      pop\n        /* \"contracts/Marketplace.sol\":4009:4013  nfts */\n      dup2\n        /* \"contracts/Marketplace.sol\":4002:4013  return nfts */\n      swap5\n      pop\n      pop\n      pop\n      pop\n      pop\n        /* \"contracts/Marketplace.sol\":3471:4019  function getListedNfts(bool bid, bool subscribe) public view returns (NFT[] memory) {\r... */\n      swap3\n      swap2\n      pop\n      pop\n      jump\t// out\n        /* \"contracts/Marketplace.sol\":3379:3465  function getListingFee() public view returns (uint256) {\r... */\n    tag_42:\n        /* \"contracts/Marketplace.sol\":3425:3432  uint256 */\n      0x00\n        /* \"contracts/Marketplace.sol\":3448:3459  LISTING_FEE */\n      sload(0x03)\n        /* \"contracts/Marketplace.sol\":3441:3459  return LISTING_FEE */\n      swap1\n      pop\n        /* \"contracts/Marketplace.sol\":3379:3465  function getListingFee() public view returns (uint256) {\r... */\n      swap1\n      jump\t// out\n        /* \"contracts/Marketplace.sol\":488:520  uint256 public SELLING_FEE = 200 */\n    tag_46:\n      sload(0x04)\n      dup2\n      jump\t// out\n        /* \"contracts/Marketplace.sol\":2672:3373  function resellNft(address _nftContract, uint256 _tokenId, uint256 _price, bool bid, bool subscribe) public payable nonReentrant {\r... */\n    tag_50:\n        /* \"@openzeppelin/contracts/security/ReentrancyGuard.sol\":1680:1681  2 */\n      0x02\n        /* \"@openzeppelin/contracts/security/ReentrancyGuard.sol\":2259:2266  _status */\n      sload(0x00)\n        /* \"@openzeppelin/contracts/security/ReentrancyGuard.sol\":2259:2278  _status != _ENTERED */\n      eq\n      iszero\n        /* \"@openzeppelin/contracts/security/ReentrancyGuard.sol\":2251:2314  require(_status != _ENTERED, \"ReentrancyGuard: reentrant call\") */\n      tag_176\n      jumpi\n      mload(0x40)\n      0x08c379a000000000000000000000000000000000000000000000000000000000\n      dup2\n      mstore\n      0x04\n      add\n      tag_177\n      swap1\n      tag_112\n      jump\t// in\n    tag_177:\n      mload(0x40)\n      dup1\n      swap2\n      sub\n      swap1\n      revert\n    tag_176:\n        /* \"@openzeppelin/contracts/security/ReentrancyGuard.sol\":1680:1681  2 */\n      0x02\n        /* \"@openzeppelin/contracts/security/ReentrancyGuard.sol\":2389:2396  _status */\n      0x00\n        /* \"@openzeppelin/contracts/security/ReentrancyGuard.sol\":2389:2407  _status = _ENTERED */\n      dup2\n      swap1\n      sstore\n      pop\n        /* \"contracts/Marketplace.sol\":2825:2826  0 */\n      0x00\n        /* \"contracts/Marketplace.sol\":2816:2822  _price */\n      dup4\n        /* \"contracts/Marketplace.sol\":2816:2826  _price > 0 */\n      gt\n        /* \"contracts/Marketplace.sol\":2808:2859  require(_price > 0, \"Price must be at least 1 wei\") */\n      tag_179\n      jumpi\n      mload(0x40)\n      0x08c379a000000000000000000000000000000000000000000000000000000000\n      dup2\n      mstore\n      0x04\n      add\n      tag_180\n      swap1\n      tag_116\n      jump\t// in\n    tag_180:\n      mload(0x40)\n      dup1\n      swap2\n      sub\n      swap1\n      revert\n    tag_179:\n        /* \"contracts/Marketplace.sol\":2887:2898  LISTING_FEE */\n      sload(0x03)\n        /* \"contracts/Marketplace.sol\":2874:2883  msg.value */\n      callvalue\n        /* \"contracts/Marketplace.sol\":2874:2898  msg.value == LISTING_FEE */\n      eq\n        /* \"contracts/Marketplace.sol\":2866:2935  require(msg.value == LISTING_FEE, \"Not enough ether for listing fee\") */\n      tag_181\n      jumpi\n      mload(0x40)\n      0x08c379a000000000000000000000000000000000000000000000000000000000\n      dup2\n      mstore\n      0x04\n      add\n      tag_182\n      swap1\n      tag_119\n      jump\t// in\n    tag_182:\n      mload(0x40)\n      dup1\n      swap2\n      sub\n      swap1\n      revert\n    tag_181:\n        /* \"contracts/Marketplace.sol\":2952:2964  _nftContract */\n      dup5\n        /* \"contracts/Marketplace.sol\":2944:2978  IERC721(_nftContract).transferFrom */\n      0xffffffffffffffffffffffffffffffffffffffff\n      and\n      0x23b872dd\n        /* \"contracts/Marketplace.sol\":2979:2989  msg.sender */\n      caller\n        /* \"contracts/Marketplace.sol\":2999:3003  this */\n      address\n        /* \"contracts/Marketplace.sol\":3006:3014  _tokenId */\n      dup8\n        /* \"contracts/Marketplace.sol\":2944:3015  IERC721(_nftContract).transferFrom(msg.sender, address(this), _tokenId) */\n      mload(0x40)\n      dup5\n      0xffffffff\n      and\n      0xe0\n      shl\n      dup2\n      mstore\n      0x04\n      add\n      tag_183\n      swap4\n      swap3\n      swap2\n      swap1\n      tag_121\n      jump\t// in\n    tag_183:\n      0x00\n      mload(0x40)\n      dup1\n      dup4\n      sub\n      dup2\n      0x00\n      dup8\n      dup1\n      extcodesize\n      iszero\n      dup1\n      iszero\n      tag_184\n      jumpi\n      0x00\n      dup1\n      revert\n    tag_184:\n      pop\n      gas\n      call\n      iszero\n      dup1\n      iszero\n      tag_186\n      jumpi\n      returndatasize\n      0x00\n      dup1\n      returndatacopy\n      revert(0x00, returndatasize)\n    tag_186:\n      pop\n      pop\n      pop\n      pop\n        /* \"contracts/Marketplace.sol\":3024:3039  NFT storage nft */\n      0x00\n        /* \"contracts/Marketplace.sol\":3042:3050  _idToNFT */\n      0x06\n        /* \"contracts/Marketplace.sol\":3042:3060  _idToNFT[_tokenId] */\n      0x00\n        /* \"contracts/Marketplace.sol\":3051:3059  _tokenId */\n      dup7\n        /* \"contracts/Marketplace.sol\":3042:3060  _idToNFT[_tokenId] */\n      dup2\n      mstore\n      0x20\n      add\n      swap1\n      dup2\n      mstore\n      0x20\n      add\n      0x00\n      keccak256\n        /* \"contracts/Marketplace.sol\":3024:3060  NFT storage nft = _idToNFT[_tokenId] */\n      swap1\n      pop\n        /* \"contracts/Marketplace.sol\":3088:3098  msg.sender */\n      caller\n        /* \"contracts/Marketplace.sol\":3067:3070  nft */\n      dup2\n        /* \"contracts/Marketplace.sol\":3067:3077  nft.seller */\n      0x02\n      add\n      0x00\n        /* \"contracts/Marketplace.sol\":3067:3099  nft.seller = payable(msg.sender) */\n      0x0100\n      exp\n      dup2\n      sload\n      dup2\n      0xffffffffffffffffffffffffffffffffffffffff\n      mul\n      not\n      and\n      swap1\n      dup4\n      0xffffffffffffffffffffffffffffffffffffffff\n      and\n      mul\n      or\n      swap1\n      sstore\n      pop\n        /* \"contracts/Marketplace.sol\":3134:3138  this */\n      address\n        /* \"contracts/Marketplace.sol\":3106:3109  nft */\n      dup2\n        /* \"contracts/Marketplace.sol\":3106:3115  nft.owner */\n      0x03\n      add\n      0x00\n        /* \"contracts/Marketplace.sol\":3106:3140  nft.owner = payable(address(this)) */\n      0x0100\n      exp\n      dup2\n      sload\n      dup2\n      0xffffffffffffffffffffffffffffffffffffffff\n      mul\n      not\n      and\n      swap1\n      dup4\n      0xffffffffffffffffffffffffffffffffffffffff\n      and\n      mul\n      or\n      swap1\n      sstore\n      pop\n        /* \"contracts/Marketplace.sol\":3160:3164  true */\n      0x01\n        /* \"contracts/Marketplace.sol\":3147:3150  nft */\n      dup2\n        /* \"contracts/Marketplace.sol\":3147:3157  nft.listed */\n      0x05\n      add\n      0x02\n        /* \"contracts/Marketplace.sol\":3147:3164  nft.listed = true */\n      0x0100\n      exp\n      dup2\n      sload\n      dup2\n      0xff\n      mul\n      not\n      and\n      swap1\n      dup4\n      iszero\n      iszero\n      mul\n      or\n      swap1\n      sstore\n      pop\n        /* \"contracts/Marketplace.sol\":3183:3189  _price */\n      dup4\n        /* \"contracts/Marketplace.sol\":3171:3174  nft */\n      dup2\n        /* \"contracts/Marketplace.sol\":3171:3180  nft.price */\n      0x04\n      add\n        /* \"contracts/Marketplace.sol\":3171:3189  nft.price = _price */\n      dup2\n      swap1\n      sstore\n      pop\n        /* \"contracts/Marketplace.sol\":3206:3209  bid */\n      dup3\n        /* \"contracts/Marketplace.sol\":3196:3199  nft */\n      dup2\n        /* \"contracts/Marketplace.sol\":3196:3203  nft.bid */\n      0x05\n      add\n      0x00\n        /* \"contracts/Marketplace.sol\":3196:3209  nft.bid = bid */\n      0x0100\n      exp\n      dup2\n      sload\n      dup2\n      0xff\n      mul\n      not\n      and\n      swap1\n      dup4\n      iszero\n      iszero\n      mul\n      or\n      swap1\n      sstore\n      pop\n        /* \"contracts/Marketplace.sol\":3232:3241  subscribe */\n      dup2\n        /* \"contracts/Marketplace.sol\":3216:3219  nft */\n      dup2\n        /* \"contracts/Marketplace.sol\":3216:3229  nft.subscribe */\n      0x05\n      add\n      0x01\n        /* \"contracts/Marketplace.sol\":3216:3241  nft.subscribe = subscribe */\n      0x0100\n      exp\n      dup2\n      sload\n      dup2\n      0xff\n      mul\n      not\n      and\n      swap1\n      dup4\n      iszero\n      iszero\n      mul\n      or\n      swap1\n      sstore\n      pop\n        /* \"contracts/Marketplace.sol\":3250:3271  _nftsSold.decrement() */\n      tag_187\n        /* \"contracts/Marketplace.sol\":3250:3259  _nftsSold */\n      0x01\n        /* \"contracts/Marketplace.sol\":3250:3269  _nftsSold.decrement */\n      tag_188\n        /* \"contracts/Marketplace.sol\":3250:3271  _nftsSold.decrement() */\n      jump\t// in\n    tag_187:\n        /* \"contracts/Marketplace.sol\":3283:3367  NFTListed(_nftContract, _tokenId, msg.sender, address(this), _price, bid, subscribe) */\n      0xfe39ca4f5d58a07d8b589986fd77ff12272e3c3e03885e48d32964f5a9b8a4e8\n        /* \"contracts/Marketplace.sol\":3293:3305  _nftContract */\n      dup7\n        /* \"contracts/Marketplace.sol\":3307:3315  _tokenId */\n      dup7\n        /* \"contracts/Marketplace.sol\":3317:3327  msg.sender */\n      caller\n        /* \"contracts/Marketplace.sol\":3337:3341  this */\n      address\n        /* \"contracts/Marketplace.sol\":3344:3350  _price */\n      dup9\n        /* \"contracts/Marketplace.sol\":3352:3355  bid */\n      dup9\n        /* \"contracts/Marketplace.sol\":3357:3366  subscribe */\n      dup9\n        /* \"contracts/Marketplace.sol\":3283:3367  NFTListed(_nftContract, _tokenId, msg.sender, address(this), _price, bid, subscribe) */\n      mload(0x40)\n      tag_189\n      swap8\n      swap7\n      swap6\n      swap5\n      swap4\n      swap3\n      swap2\n      swap1\n      tag_128\n      jump\t// in\n    tag_189:\n      mload(0x40)\n      dup1\n      swap2\n      sub\n      swap1\n      log1\n        /* \"contracts/Marketplace.sol\":2801:3373  {\r... */\n      pop\n        /* \"@openzeppelin/contracts/security/ReentrancyGuard.sol\":1637:1638  1 */\n      0x01\n        /* \"@openzeppelin/contracts/security/ReentrancyGuard.sol\":2562:2569  _status */\n      0x00\n        /* \"@openzeppelin/contracts/security/ReentrancyGuard.sol\":2562:2584  _status = _NOT_ENTERED */\n      dup2\n      swap1\n      sstore\n      pop\n        /* \"contracts/Marketplace.sol\":2672:3373  function resellNft(address _nftContract, uint256 _tokenId, uint256 _price, bool bid, bool subscribe) public payable nonReentrant {\r... */\n      pop\n      pop\n      pop\n      pop\n      pop\n      jump\t// out\n        /* \"@openzeppelin/contracts/utils/Counters.sol\":827:939  function current(Counter storage counter) internal view returns (uint256) {... */\n    tag_53:\n        /* \"@openzeppelin/contracts/utils/Counters.sol\":892:899  uint256 */\n      0x00\n        /* \"@openzeppelin/contracts/utils/Counters.sol\":918:925  counter */\n      dup2\n        /* \"@openzeppelin/contracts/utils/Counters.sol\":918:932  counter._value */\n      0x00\n      add\n      sload\n        /* \"@openzeppelin/contracts/utils/Counters.sol\":911:932  return counter._value */\n      swap1\n      pop\n        /* \"@openzeppelin/contracts/utils/Counters.sol\":827:939  function current(Counter storage counter) internal view returns (uint256) {... */\n      swap2\n      swap1\n      pop\n      jump\t// out\n        /* \"@openzeppelin/contracts/utils/Counters.sol\":945:1068  function increment(Counter storage counter) internal {... */\n    tag_126:\n        /* \"@openzeppelin/contracts/utils/Counters.sol\":1050:1051  1 */\n      0x01\n        /* \"@openzeppelin/contracts/utils/Counters.sol\":1032:1039  counter */\n      dup2\n        /* \"@openzeppelin/contracts/utils/Counters.sol\":1032:1046  counter._value */\n      0x00\n      add\n      0x00\n        /* \"@openzeppelin/contracts/utils/Counters.sol\":1032:1051  counter._value += 1 */\n      dup3\n      dup3\n      sload\n      add\n      swap3\n      pop\n      pop\n      dup2\n      swap1\n      sstore\n      pop\n        /* \"@openzeppelin/contracts/utils/Counters.sol\":945:1068  function increment(Counter storage counter) internal {... */\n      pop\n      jump\t// out\n        /* \"@openzeppelin/contracts/utils/Counters.sol\":1074:1303  function decrement(Counter storage counter) internal {... */\n    tag_188:\n        /* \"@openzeppelin/contracts/utils/Counters.sol\":1137:1150  uint256 value */\n      0x00\n        /* \"@openzeppelin/contracts/utils/Counters.sol\":1153:1160  counter */\n      dup2\n        /* \"@openzeppelin/contracts/utils/Counters.sol\":1153:1167  counter._value */\n      0x00\n      add\n      sload\n        /* \"@openzeppelin/contracts/utils/Counters.sol\":1137:1167  uint256 value = counter._value */\n      swap1\n      pop\n        /* \"@openzeppelin/contracts/utils/Counters.sol\":1193:1194  0 */\n      0x00\n        /* \"@openzeppelin/contracts/utils/Counters.sol\":1185:1190  value */\n      dup2\n        /* \"@openzeppelin/contracts/utils/Counters.sol\":1185:1194  value > 0 */\n      gt\n        /* \"@openzeppelin/contracts/utils/Counters.sol\":1177:1226  require(value > 0, \"Counter: decrement overflow\") */\n      tag_193\n      jumpi\n      mload(0x40)\n      0x08c379a000000000000000000000000000000000000000000000000000000000\n      dup2\n      mstore\n      0x04\n      add\n      tag_194\n      swap1\n      tag_195\n      jump\t// in\n    tag_194:\n      mload(0x40)\n      dup1\n      swap2\n      sub\n      swap1\n      revert\n    tag_193:\n        /* \"@openzeppelin/contracts/utils/Counters.sol\":1285:1286  1 */\n      0x01\n        /* \"@openzeppelin/contracts/utils/Counters.sol\":1277:1282  value */\n      dup2\n        /* \"@openzeppelin/contracts/utils/Counters.sol\":1277:1286  value - 1 */\n      sub\n        /* \"@openzeppelin/contracts/utils/Counters.sol\":1260:1267  counter */\n      dup3\n        /* \"@openzeppelin/contracts/utils/Counters.sol\":1260:1274  counter._value */\n      0x00\n      add\n        /* \"@openzeppelin/contracts/utils/Counters.sol\":1260:1286  counter._value = value - 1 */\n      dup2\n      swap1\n      sstore\n      pop\n        /* \"@openzeppelin/contracts/utils/Counters.sol\":1127:1303  {... */\n      pop\n        /* \"@openzeppelin/contracts/utils/Counters.sol\":1074:1303  function decrement(Counter storage counter) internal {... */\n      pop\n      jump\t// out\n    tag_69:\n      mload(0x40)\n      dup1\n      0x0100\n      add\n      0x40\n      mstore\n      dup1\n      and(0xffffffffffffffffffffffffffffffffffffffff, 0x00)\n      dup2\n      mstore\n      0x20\n      add\n      0x00\n      dup2\n      mstore\n      0x20\n      add\n      and(0xffffffffffffffffffffffffffffffffffffffff, 0x00)\n      dup2\n      mstore\n      0x20\n      add\n      and(0xffffffffffffffffffffffffffffffffffffffff, 0x00)\n      dup2\n      mstore\n      0x20\n      add\n      0x00\n      dup2\n      mstore\n      0x20\n      add\n      iszero(iszero(0x00))\n      dup2\n      mstore\n      0x20\n      add\n      iszero(iszero(0x00))\n      dup2\n      mstore\n      0x20\n      add\n      iszero(iszero(0x00))\n      dup2\n      mstore\n      pop\n      swap1\n      jump\t// out\n        /* \"#utility.yul\":7:146   */\n    tag_197:\n        /* \"#utility.yul\":53:58   */\n      0x00\n        /* \"#utility.yul\":91:97   */\n      dup2\n        /* \"#utility.yul\":78:98   */\n      calldataload\n        /* \"#utility.yul\":69:98   */\n      swap1\n      pop\n        /* \"#utility.yul\":107:140   */\n      tag_199\n        /* \"#utility.yul\":134:139   */\n      dup2\n        /* \"#utility.yul\":107:140   */\n      tag_200\n      jump\t// in\n    tag_199:\n        /* \"#utility.yul\":7:146   */\n      swap3\n      swap2\n      pop\n      pop\n      jump\t// out\n        /* \"#utility.yul\":152:285   */\n    tag_201:\n        /* \"#utility.yul\":195:200   */\n      0x00\n        /* \"#utility.yul\":233:239   */\n      dup2\n        /* \"#utility.yul\":220:240   */\n      calldataload\n        /* \"#utility.yul\":211:240   */\n      swap1\n      pop\n        /* \"#utility.yul\":249:279   */\n      tag_203\n        /* \"#utility.yul\":273:278   */\n      dup2\n        /* \"#utility.yul\":249:279   */\n      tag_204\n      jump\t// in\n    tag_203:\n        /* \"#utility.yul\":152:285   */\n      swap3\n      swap2\n      pop\n      pop\n      jump\t// out\n        /* \"#utility.yul\":291:430   */\n    tag_205:\n        /* \"#utility.yul\":337:342   */\n      0x00\n        /* \"#utility.yul\":375:381   */\n      dup2\n        /* \"#utility.yul\":362:382   */\n      calldataload\n        /* \"#utility.yul\":353:382   */\n      swap1\n      pop\n        /* \"#utility.yul\":391:424   */\n      tag_207\n        /* \"#utility.yul\":418:423   */\n      dup2\n        /* \"#utility.yul\":391:424   */\n      tag_208\n      jump\t// in\n    tag_207:\n        /* \"#utility.yul\":291:430   */\n      swap3\n      swap2\n      pop\n      pop\n      jump\t// out\n        /* \"#utility.yul\":436:910   */\n    tag_32:\n        /* \"#utility.yul\":504:510   */\n      0x00\n        /* \"#utility.yul\":512:518   */\n      dup1\n        /* \"#utility.yul\":561:563   */\n      0x40\n        /* \"#utility.yul\":549:558   */\n      dup4\n        /* \"#utility.yul\":540:547   */\n      dup6\n        /* \"#utility.yul\":536:559   */\n      sub\n        /* \"#utility.yul\":532:564   */\n      slt\n        /* \"#utility.yul\":529:648   */\n      iszero\n      tag_210\n      jumpi\n        /* \"#utility.yul\":567:646   */\n      tag_211\n      tag_212\n      jump\t// in\n    tag_211:\n        /* \"#utility.yul\":529:648   */\n    tag_210:\n        /* \"#utility.yul\":687:688   */\n      0x00\n        /* \"#utility.yul\":712:765   */\n      tag_213\n        /* \"#utility.yul\":757:764   */\n      dup6\n        /* \"#utility.yul\":748:754   */\n      dup3\n        /* \"#utility.yul\":737:746   */\n      dup7\n        /* \"#utility.yul\":733:755   */\n      add\n        /* \"#utility.yul\":712:765   */\n      tag_197\n      jump\t// in\n    tag_213:\n        /* \"#utility.yul\":702:765   */\n      swap3\n      pop\n        /* \"#utility.yul\":658:775   */\n      pop\n        /* \"#utility.yul\":814:816   */\n      0x20\n        /* \"#utility.yul\":840:893   */\n      tag_214\n        /* \"#utility.yul\":885:892   */\n      dup6\n        /* \"#utility.yul\":876:882   */\n      dup3\n        /* \"#utility.yul\":865:874   */\n      dup7\n        /* \"#utility.yul\":861:883   */\n      add\n        /* \"#utility.yul\":840:893   */\n      tag_205\n      jump\t// in\n    tag_214:\n        /* \"#utility.yul\":830:893   */\n      swap2\n      pop\n        /* \"#utility.yul\":785:903   */\n      pop\n        /* \"#utility.yul\":436:910   */\n      swap3\n      pop\n      swap3\n      swap1\n      pop\n      jump\t// out\n        /* \"#utility.yul\":916:1815   */\n    tag_28:\n        /* \"#utility.yul\":1005:1011   */\n      0x00\n        /* \"#utility.yul\":1013:1019   */\n      dup1\n        /* \"#utility.yul\":1021:1027   */\n      0x00\n        /* \"#utility.yul\":1029:1035   */\n      dup1\n        /* \"#utility.yul\":1037:1043   */\n      0x00\n        /* \"#utility.yul\":1086:1089   */\n      0xa0\n        /* \"#utility.yul\":1074:1083   */\n      dup7\n        /* \"#utility.yul\":1065:1072   */\n      dup9\n        /* \"#utility.yul\":1061:1084   */\n      sub\n        /* \"#utility.yul\":1057:1090   */\n      slt\n        /* \"#utility.yul\":1054:1174   */\n      iszero\n      tag_216\n      jumpi\n        /* \"#utility.yul\":1093:1172   */\n      tag_217\n      tag_212\n      jump\t// in\n    tag_217:\n        /* \"#utility.yul\":1054:1174   */\n    tag_216:\n        /* \"#utility.yul\":1213:1214   */\n      0x00\n        /* \"#utility.yul\":1238:1291   */\n      tag_218\n        /* \"#utility.yul\":1283:1290   */\n      dup9\n        /* \"#utility.yul\":1274:1280   */\n      dup3\n        /* \"#utility.yul\":1263:1272   */\n      dup10\n        /* \"#utility.yul\":1259:1281   */\n      add\n        /* \"#utility.yul\":1238:1291   */\n      tag_197\n      jump\t// in\n    tag_218:\n        /* \"#utility.yul\":1228:1291   */\n      swap6\n      pop\n        /* \"#utility.yul\":1184:1301   */\n      pop\n        /* \"#utility.yul\":1340:1342   */\n      0x20\n        /* \"#utility.yul\":1366:1419   */\n      tag_219\n        /* \"#utility.yul\":1411:1418   */\n      dup9\n        /* \"#utility.yul\":1402:1408   */\n      dup3\n        /* \"#utility.yul\":1391:1400   */\n      dup10\n        /* \"#utility.yul\":1387:1409   */\n      add\n        /* \"#utility.yul\":1366:1419   */\n      tag_205\n      jump\t// in\n    tag_219:\n        /* \"#utility.yul\":1356:1419   */\n      swap5\n      pop\n        /* \"#utility.yul\":1311:1429   */\n      pop\n        /* \"#utility.yul\":1468:1470   */\n      0x40\n        /* \"#utility.yul\":1494:1547   */\n      tag_220\n        /* \"#utility.yul\":1539:1546   */\n      dup9\n        /* \"#utility.yul\":1530:1536   */\n      dup3\n        /* \"#utility.yul\":1519:1528   */\n      dup10\n        /* \"#utility.yul\":1515:1537   */\n      add\n        /* \"#utility.yul\":1494:1547   */\n      tag_205\n      jump\t// in\n    tag_220:\n        /* \"#utility.yul\":1484:1547   */\n      swap4\n      pop\n        /* \"#utility.yul\":1439:1557   */\n      pop\n        /* \"#utility.yul\":1596:1598   */\n      0x60\n        /* \"#utility.yul\":1622:1672   */\n      tag_221\n        /* \"#utility.yul\":1664:1671   */\n      dup9\n        /* \"#utility.yul\":1655:1661   */\n      dup3\n        /* \"#utility.yul\":1644:1653   */\n      dup10\n        /* \"#utility.yul\":1640:1662   */\n      add\n        /* \"#utility.yul\":1622:1672   */\n      tag_201\n      jump\t// in\n    tag_221:\n        /* \"#utility.yul\":1612:1672   */\n      swap3\n      pop\n        /* \"#utility.yul\":1567:1682   */\n      pop\n        /* \"#utility.yul\":1721:1724   */\n      0x80\n        /* \"#utility.yul\":1748:1798   */\n      tag_222\n        /* \"#utility.yul\":1790:1797   */\n      dup9\n        /* \"#utility.yul\":1781:1787   */\n      dup3\n        /* \"#utility.yul\":1770:1779   */\n      dup10\n        /* \"#utility.yul\":1766:1788   */\n      add\n        /* \"#utility.yul\":1748:1798   */\n      tag_201\n      jump\t// in\n    tag_222:\n        /* \"#utility.yul\":1738:1798   */\n      swap2\n      pop\n        /* \"#utility.yul\":1692:1808   */\n      pop\n        /* \"#utility.yul\":916:1815   */\n      swap3\n      swap6\n      pop\n      swap3\n      swap6\n      swap1\n      swap4\n      pop\n      jump\t// out\n        /* \"#utility.yul\":1821:2283   */\n    tag_37:\n        /* \"#utility.yul\":1883:1889   */\n      0x00\n        /* \"#utility.yul\":1891:1897   */\n      dup1\n        /* \"#utility.yul\":1940:1942   */\n      0x40\n        /* \"#utility.yul\":1928:1937   */\n      dup4\n        /* \"#utility.yul\":1919:1926   */\n      dup6\n        /* \"#utility.yul\":1915:1938   */\n      sub\n        /* \"#utility.yul\":1911:1943   */\n      slt\n        /* \"#utility.yul\":1908:2027   */\n      iszero\n      tag_224\n      jumpi\n        /* \"#utility.yul\":1946:2025   */\n      tag_225\n      tag_212\n      jump\t// in\n    tag_225:\n        /* \"#utility.yul\":1908:2027   */\n    tag_224:\n        /* \"#utility.yul\":2066:2067   */\n      0x00\n        /* \"#utility.yul\":2091:2141   */\n      tag_226\n        /* \"#utility.yul\":2133:2140   */\n      dup6\n        /* \"#utility.yul\":2124:2130   */\n      dup3\n        /* \"#utility.yul\":2113:2122   */\n      dup7\n        /* \"#utility.yul\":2109:2131   */\n      add\n        /* \"#utility.yul\":2091:2141   */\n      tag_201\n      jump\t// in\n    tag_226:\n        /* \"#utility.yul\":2081:2141   */\n      swap3\n      pop\n        /* \"#utility.yul\":2037:2151   */\n      pop\n        /* \"#utility.yul\":2190:2192   */\n      0x20\n        /* \"#utility.yul\":2216:2266   */\n      tag_227\n        /* \"#utility.yul\":2258:2265   */\n      dup6\n        /* \"#utility.yul\":2249:2255   */\n      dup3\n        /* \"#utility.yul\":2238:2247   */\n      dup7\n        /* \"#utility.yul\":2234:2256   */\n      add\n        /* \"#utility.yul\":2216:2266   */\n      tag_201\n      jump\t// in\n    tag_227:\n        /* \"#utility.yul\":2206:2266   */\n      swap2\n      pop\n        /* \"#utility.yul\":2161:2276   */\n      pop\n        /* \"#utility.yul\":1821:2283   */\n      swap3\n      pop\n      swap3\n      swap1\n      pop\n      jump\t// out\n        /* \"#utility.yul\":2289:2554   */\n    tag_228:\n        /* \"#utility.yul\":2400:2410   */\n      0x00\n        /* \"#utility.yul\":2421:2509   */\n      tag_230\n        /* \"#utility.yul\":2505:2508   */\n      dup4\n        /* \"#utility.yul\":2497:2503   */\n      dup4\n        /* \"#utility.yul\":2421:2509   */\n      tag_231\n      jump\t// in\n    tag_230:\n        /* \"#utility.yul\":2541:2547   */\n      0x0100\n        /* \"#utility.yul\":2536:2539   */\n      dup4\n        /* \"#utility.yul\":2532:2548   */\n      add\n        /* \"#utility.yul\":2518:2548   */\n      swap1\n      pop\n        /* \"#utility.yul\":2289:2554   */\n      swap3\n      swap2\n      pop\n      pop\n      jump\t// out\n        /* \"#utility.yul\":2560:2707   */\n    tag_232:\n        /* \"#utility.yul\":2655:2700   */\n      tag_234\n        /* \"#utility.yul\":2694:2699   */\n      dup2\n        /* \"#utility.yul\":2655:2700   */\n      tag_235\n      jump\t// in\n    tag_234:\n        /* \"#utility.yul\":2650:2653   */\n      dup3\n        /* \"#utility.yul\":2643:2701   */\n      mstore\n        /* \"#utility.yul\":2560:2707   */\n      pop\n      pop\n      jump\t// out\n        /* \"#utility.yul\":2713:2845   */\n    tag_236:\n        /* \"#utility.yul\":2806:2838   */\n      tag_238\n        /* \"#utility.yul\":2832:2837   */\n      dup2\n        /* \"#utility.yul\":2806:2838   */\n      tag_239\n      jump\t// in\n    tag_238:\n        /* \"#utility.yul\":2801:2804   */\n      dup3\n        /* \"#utility.yul\":2794:2839   */\n      mstore\n        /* \"#utility.yul\":2713:2845   */\n      pop\n      pop\n      jump\t// out\n        /* \"#utility.yul\":2851:2959   */\n    tag_240:\n        /* \"#utility.yul\":2928:2952   */\n      tag_242\n        /* \"#utility.yul\":2946:2951   */\n      dup2\n        /* \"#utility.yul\":2928:2952   */\n      tag_243\n      jump\t// in\n    tag_242:\n        /* \"#utility.yul\":2923:2926   */\n      dup3\n        /* \"#utility.yul\":2916:2953   */\n      mstore\n        /* \"#utility.yul\":2851:2959   */\n      pop\n      pop\n      jump\t// out\n        /* \"#utility.yul\":2965:3083   */\n    tag_244:\n        /* \"#utility.yul\":3052:3076   */\n      tag_246\n        /* \"#utility.yul\":3070:3075   */\n      dup2\n        /* \"#utility.yul\":3052:3076   */\n      tag_243\n      jump\t// in\n    tag_246:\n        /* \"#utility.yul\":3047:3050   */\n      dup3\n        /* \"#utility.yul\":3040:3077   */\n      mstore\n        /* \"#utility.yul\":2965:3083   */\n      pop\n      pop\n      jump\t// out\n        /* \"#utility.yul\":3149:4049   */\n    tag_247:\n        /* \"#utility.yul\":3310:3313   */\n      0x00\n        /* \"#utility.yul\":3339:3414   */\n      tag_249\n        /* \"#utility.yul\":3408:3413   */\n      dup3\n        /* \"#utility.yul\":3339:3414   */\n      tag_250\n      jump\t// in\n    tag_249:\n        /* \"#utility.yul\":3430:3537   */\n      tag_251\n        /* \"#utility.yul\":3530:3536   */\n      dup2\n        /* \"#utility.yul\":3525:3528   */\n      dup6\n        /* \"#utility.yul\":3430:3537   */\n      tag_252\n      jump\t// in\n    tag_251:\n        /* \"#utility.yul\":3423:3537   */\n      swap4\n      pop\n        /* \"#utility.yul\":3561:3638   */\n      tag_253\n        /* \"#utility.yul\":3632:3637   */\n      dup4\n        /* \"#utility.yul\":3561:3638   */\n      tag_254\n      jump\t// in\n    tag_253:\n        /* \"#utility.yul\":3661:3668   */\n      dup1\n        /* \"#utility.yul\":3692:3693   */\n      0x00\n        /* \"#utility.yul\":3677:4024   */\n    tag_255:\n        /* \"#utility.yul\":3702:3708   */\n      dup4\n        /* \"#utility.yul\":3699:3700   */\n      dup2\n        /* \"#utility.yul\":3696:3709   */\n      lt\n        /* \"#utility.yul\":3677:4024   */\n      iszero\n      tag_257\n      jumpi\n        /* \"#utility.yul\":3778:3784   */\n      dup2\n        /* \"#utility.yul\":3772:3785   */\n      mload\n        /* \"#utility.yul\":3805:3910   */\n      tag_258\n        /* \"#utility.yul\":3906:3909   */\n      dup9\n        /* \"#utility.yul\":3891:3904   */\n      dup3\n        /* \"#utility.yul\":3805:3910   */\n      tag_228\n      jump\t// in\n    tag_258:\n        /* \"#utility.yul\":3798:3910   */\n      swap8\n      pop\n        /* \"#utility.yul\":3933:4014   */\n      tag_259\n        /* \"#utility.yul\":4007:4013   */\n      dup4\n        /* \"#utility.yul\":3933:4014   */\n      tag_260\n      jump\t// in\n    tag_259:\n        /* \"#utility.yul\":3923:4014   */\n      swap3\n      pop\n        /* \"#utility.yul\":3737:4024   */\n      pop\n        /* \"#utility.yul\":3724:3725   */\n      0x01\n        /* \"#utility.yul\":3721:3722   */\n      dup2\n        /* \"#utility.yul\":3717:3726   */\n      add\n        /* \"#utility.yul\":3712:3726   */\n      swap1\n      pop\n        /* \"#utility.yul\":3677:4024   */\n      jump(tag_255)\n    tag_257:\n        /* \"#utility.yul\":3681:3695   */\n      pop\n        /* \"#utility.yul\":4040:4043   */\n      dup6\n        /* \"#utility.yul\":4033:4043   */\n      swap4\n      pop\n        /* \"#utility.yul\":3315:4049   */\n      pop\n      pop\n      pop\n        /* \"#utility.yul\":3149:4049   */\n      swap3\n      swap2\n      pop\n      pop\n      jump\t// out\n        /* \"#utility.yul\":4055:4154   */\n    tag_261:\n        /* \"#utility.yul\":4126:4147   */\n      tag_263\n        /* \"#utility.yul\":4141:4146   */\n      dup2\n        /* \"#utility.yul\":4126:4147   */\n      tag_264\n      jump\t// in\n    tag_263:\n        /* \"#utility.yul\":4121:4124   */\n      dup3\n        /* \"#utility.yul\":4114:4148   */\n      mstore\n        /* \"#utility.yul\":4055:4154   */\n      pop\n      pop\n      jump\t// out\n        /* \"#utility.yul\":4160:4269   */\n    tag_265:\n        /* \"#utility.yul\":4241:4262   */\n      tag_267\n        /* \"#utility.yul\":4256:4261   */\n      dup2\n        /* \"#utility.yul\":4241:4262   */\n      tag_264\n      jump\t// in\n    tag_267:\n        /* \"#utility.yul\":4236:4239   */\n      dup3\n        /* \"#utility.yul\":4229:4263   */\n      mstore\n        /* \"#utility.yul\":4160:4269   */\n      pop\n      pop\n      jump\t// out\n        /* \"#utility.yul\":4275:4641   */\n    tag_268:\n        /* \"#utility.yul\":4417:4420   */\n      0x00\n        /* \"#utility.yul\":4438:4505   */\n      tag_270\n        /* \"#utility.yul\":4502:4504   */\n      0x1b\n        /* \"#utility.yul\":4497:4500   */\n      dup4\n        /* \"#utility.yul\":4438:4505   */\n      tag_271\n      jump\t// in\n    tag_270:\n        /* \"#utility.yul\":4431:4505   */\n      swap2\n      pop\n        /* \"#utility.yul\":4514:4607   */\n      tag_272\n        /* \"#utility.yul\":4603:4606   */\n      dup3\n        /* \"#utility.yul\":4514:4607   */\n      tag_273\n      jump\t// in\n    tag_272:\n        /* \"#utility.yul\":4632:4634   */\n      0x20\n        /* \"#utility.yul\":4627:4630   */\n      dup3\n        /* \"#utility.yul\":4623:4635   */\n      add\n        /* \"#utility.yul\":4616:4635   */\n      swap1\n      pop\n        /* \"#utility.yul\":4275:4641   */\n      swap2\n      swap1\n      pop\n      jump\t// out\n        /* \"#utility.yul\":4647:5013   */\n    tag_274:\n        /* \"#utility.yul\":4789:4792   */\n      0x00\n        /* \"#utility.yul\":4810:4877   */\n      tag_276\n        /* \"#utility.yul\":4874:4876   */\n      0x26\n        /* \"#utility.yul\":4869:4872   */\n      dup4\n        /* \"#utility.yul\":4810:4877   */\n      tag_271\n      jump\t// in\n    tag_276:\n        /* \"#utility.yul\":4803:4877   */\n      swap2\n      pop\n        /* \"#utility.yul\":4886:4979   */\n      tag_277\n        /* \"#utility.yul\":4975:4978   */\n      dup3\n        /* \"#utility.yul\":4886:4979   */\n      tag_278\n      jump\t// in\n    tag_277:\n        /* \"#utility.yul\":5004:5006   */\n      0x40\n        /* \"#utility.yul\":4999:5002   */\n      dup3\n        /* \"#utility.yul\":4995:5007   */\n      add\n        /* \"#utility.yul\":4988:5007   */\n      swap1\n      pop\n        /* \"#utility.yul\":4647:5013   */\n      swap2\n      swap1\n      pop\n      jump\t// out\n        /* \"#utility.yul\":5019:5385   */\n    tag_279:\n        /* \"#utility.yul\":5161:5164   */\n      0x00\n        /* \"#utility.yul\":5182:5249   */\n      tag_281\n        /* \"#utility.yul\":5246:5248   */\n      0x20\n        /* \"#utility.yul\":5241:5244   */\n      dup4\n        /* \"#utility.yul\":5182:5249   */\n      tag_271\n      jump\t// in\n    tag_281:\n        /* \"#utility.yul\":5175:5249   */\n      swap2\n      pop\n        /* \"#utility.yul\":5258:5351   */\n      tag_282\n        /* \"#utility.yul\":5347:5350   */\n      dup3\n        /* \"#utility.yul\":5258:5351   */\n      tag_283\n      jump\t// in\n    tag_282:\n        /* \"#utility.yul\":5376:5378   */\n      0x20\n        /* \"#utility.yul\":5371:5374   */\n      dup3\n        /* \"#utility.yul\":5367:5379   */\n      add\n        /* \"#utility.yul\":5360:5379   */\n      swap1\n      pop\n        /* \"#utility.yul\":5019:5385   */\n      swap2\n      swap1\n      pop\n      jump\t// out\n        /* \"#utility.yul\":5391:5757   */\n    tag_284:\n        /* \"#utility.yul\":5533:5536   */\n      0x00\n        /* \"#utility.yul\":5554:5621   */\n      tag_286\n        /* \"#utility.yul\":5618:5620   */\n      0x1f\n        /* \"#utility.yul\":5613:5616   */\n      dup4\n        /* \"#utility.yul\":5554:5621   */\n      tag_271\n      jump\t// in\n    tag_286:\n        /* \"#utility.yul\":5547:5621   */\n      swap2\n      pop\n        /* \"#utility.yul\":5630:5723   */\n      tag_287\n        /* \"#utility.yul\":5719:5722   */\n      dup3\n        /* \"#utility.yul\":5630:5723   */\n      tag_288\n      jump\t// in\n    tag_287:\n        /* \"#utility.yul\":5748:5750   */\n      0x20\n        /* \"#utility.yul\":5743:5746   */\n      dup3\n        /* \"#utility.yul\":5739:5751   */\n      add\n        /* \"#utility.yul\":5732:5751   */\n      swap1\n      pop\n        /* \"#utility.yul\":5391:5757   */\n      swap2\n      swap1\n      pop\n      jump\t// out\n        /* \"#utility.yul\":5763:6129   */\n    tag_289:\n        /* \"#utility.yul\":5905:5908   */\n      0x00\n        /* \"#utility.yul\":5926:5993   */\n      tag_291\n        /* \"#utility.yul\":5990:5992   */\n      0x1c\n        /* \"#utility.yul\":5985:5988   */\n      dup4\n        /* \"#utility.yul\":5926:5993   */\n      tag_271\n      jump\t// in\n    tag_291:\n        /* \"#utility.yul\":5919:5993   */\n      swap2\n      pop\n        /* \"#utility.yul\":6002:6095   */\n      tag_292\n        /* \"#utility.yul\":6091:6094   */\n      dup3\n        /* \"#utility.yul\":6002:6095   */\n      tag_293\n      jump\t// in\n    tag_292:\n        /* \"#utility.yul\":6120:6122   */\n      0x20\n        /* \"#utility.yul\":6115:6118   */\n      dup3\n        /* \"#utility.yul\":6111:6123   */\n      add\n        /* \"#utility.yul\":6104:6123   */\n      swap1\n      pop\n        /* \"#utility.yul\":5763:6129   */\n      swap2\n      swap1\n      pop\n      jump\t// out\n        /* \"#utility.yul\":6191:7760   */\n    tag_231:\n        /* \"#utility.yul\":6320:6326   */\n      0x0100\n        /* \"#utility.yul\":6315:6318   */\n      dup3\n        /* \"#utility.yul\":6311:6327   */\n      add\n        /* \"#utility.yul\":6416:6420   */\n      0x00\n        /* \"#utility.yul\":6409:6414   */\n      dup3\n        /* \"#utility.yul\":6405:6421   */\n      add\n        /* \"#utility.yul\":6399:6422   */\n      mload\n        /* \"#utility.yul\":6435:6498   */\n      tag_295\n        /* \"#utility.yul\":6492:6496   */\n      0x00\n        /* \"#utility.yul\":6487:6490   */\n      dup6\n        /* \"#utility.yul\":6483:6497   */\n      add\n        /* \"#utility.yul\":6469:6481   */\n      dup3\n        /* \"#utility.yul\":6435:6498   */\n      tag_240\n      jump\t// in\n    tag_295:\n        /* \"#utility.yul\":6337:6508   */\n      pop\n        /* \"#utility.yul\":6593:6597   */\n      0x20\n        /* \"#utility.yul\":6586:6591   */\n      dup3\n        /* \"#utility.yul\":6582:6598   */\n      add\n        /* \"#utility.yul\":6576:6599   */\n      mload\n        /* \"#utility.yul\":6612:6675   */\n      tag_296\n        /* \"#utility.yul\":6669:6673   */\n      0x20\n        /* \"#utility.yul\":6664:6667   */\n      dup6\n        /* \"#utility.yul\":6660:6674   */\n      add\n        /* \"#utility.yul\":6646:6658   */\n      dup3\n        /* \"#utility.yul\":6612:6675   */\n      tag_297\n      jump\t// in\n    tag_296:\n        /* \"#utility.yul\":6518:6685   */\n      pop\n        /* \"#utility.yul\":6769:6773   */\n      0x40\n        /* \"#utility.yul\":6762:6767   */\n      dup3\n        /* \"#utility.yul\":6758:6774   */\n      add\n        /* \"#utility.yul\":6752:6775   */\n      mload\n        /* \"#utility.yul\":6788:6867   */\n      tag_298\n        /* \"#utility.yul\":6861:6865   */\n      0x40\n        /* \"#utility.yul\":6856:6859   */\n      dup6\n        /* \"#utility.yul\":6852:6866   */\n      add\n        /* \"#utility.yul\":6838:6850   */\n      dup3\n        /* \"#utility.yul\":6788:6867   */\n      tag_236\n      jump\t// in\n    tag_298:\n        /* \"#utility.yul\":6695:6877   */\n      pop\n        /* \"#utility.yul\":6960:6964   */\n      0x60\n        /* \"#utility.yul\":6953:6958   */\n      dup3\n        /* \"#utility.yul\":6949:6965   */\n      add\n        /* \"#utility.yul\":6943:6966   */\n      mload\n        /* \"#utility.yul\":6979:7058   */\n      tag_299\n        /* \"#utility.yul\":7052:7056   */\n      0x60\n        /* \"#utility.yul\":7047:7050   */\n      dup6\n        /* \"#utility.yul\":7043:7057   */\n      add\n        /* \"#utility.yul\":7029:7041   */\n      dup3\n        /* \"#utility.yul\":6979:7058   */\n      tag_236\n      jump\t// in\n    tag_299:\n        /* \"#utility.yul\":6887:7068   */\n      pop\n        /* \"#utility.yul\":7151:7155   */\n      0x80\n        /* \"#utility.yul\":7144:7149   */\n      dup3\n        /* \"#utility.yul\":7140:7156   */\n      add\n        /* \"#utility.yul\":7134:7157   */\n      mload\n        /* \"#utility.yul\":7170:7233   */\n      tag_300\n        /* \"#utility.yul\":7227:7231   */\n      0x80\n        /* \"#utility.yul\":7222:7225   */\n      dup6\n        /* \"#utility.yul\":7218:7232   */\n      add\n        /* \"#utility.yul\":7204:7216   */\n      dup3\n        /* \"#utility.yul\":7170:7233   */\n      tag_297\n      jump\t// in\n    tag_300:\n        /* \"#utility.yul\":7078:7243   */\n      pop\n        /* \"#utility.yul\":7324:7328   */\n      0xa0\n        /* \"#utility.yul\":7317:7322   */\n      dup3\n        /* \"#utility.yul\":7313:7329   */\n      add\n        /* \"#utility.yul\":7307:7330   */\n      mload\n        /* \"#utility.yul\":7343:7400   */\n      tag_301\n        /* \"#utility.yul\":7394:7398   */\n      0xa0\n        /* \"#utility.yul\":7389:7392   */\n      dup6\n        /* \"#utility.yul\":7385:7399   */\n      add\n        /* \"#utility.yul\":7371:7383   */\n      dup3\n        /* \"#utility.yul\":7343:7400   */\n      tag_261\n      jump\t// in\n    tag_301:\n        /* \"#utility.yul\":7253:7410   */\n      pop\n        /* \"#utility.yul\":7497:7501   */\n      0xc0\n        /* \"#utility.yul\":7490:7495   */\n      dup3\n        /* \"#utility.yul\":7486:7502   */\n      add\n        /* \"#utility.yul\":7480:7503   */\n      mload\n        /* \"#utility.yul\":7516:7573   */\n      tag_302\n        /* \"#utility.yul\":7567:7571   */\n      0xc0\n        /* \"#utility.yul\":7562:7565   */\n      dup6\n        /* \"#utility.yul\":7558:7572   */\n      add\n        /* \"#utility.yul\":7544:7556   */\n      dup3\n        /* \"#utility.yul\":7516:7573   */\n      tag_261\n      jump\t// in\n    tag_302:\n        /* \"#utility.yul\":7420:7583   */\n      pop\n        /* \"#utility.yul\":7667:7671   */\n      0xe0\n        /* \"#utility.yul\":7660:7665   */\n      dup3\n        /* \"#utility.yul\":7656:7672   */\n      add\n        /* \"#utility.yul\":7650:7673   */\n      mload\n        /* \"#utility.yul\":7686:7743   */\n      tag_303\n        /* \"#utility.yul\":7737:7741   */\n      0xe0\n        /* \"#utility.yul\":7732:7735   */\n      dup6\n        /* \"#utility.yul\":7728:7742   */\n      add\n        /* \"#utility.yul\":7714:7726   */\n      dup3\n        /* \"#utility.yul\":7686:7743   */\n      tag_261\n      jump\t// in\n    tag_303:\n        /* \"#utility.yul\":7593:7753   */\n      pop\n        /* \"#utility.yul\":6289:7760   */\n      pop\n        /* \"#utility.yul\":6191:7760   */\n      pop\n      pop\n      jump\t// out\n        /* \"#utility.yul\":7766:7874   */\n    tag_297:\n        /* \"#utility.yul\":7843:7867   */\n      tag_305\n        /* \"#utility.yul\":7861:7866   */\n      dup2\n        /* \"#utility.yul\":7843:7867   */\n      tag_306\n      jump\t// in\n    tag_305:\n        /* \"#utility.yul\":7838:7841   */\n      dup3\n        /* \"#utility.yul\":7831:7868   */\n      mstore\n        /* \"#utility.yul\":7766:7874   */\n      pop\n      pop\n      jump\t// out\n        /* \"#utility.yul\":7880:7998   */\n    tag_307:\n        /* \"#utility.yul\":7967:7991   */\n      tag_309\n        /* \"#utility.yul\":7985:7990   */\n      dup2\n        /* \"#utility.yul\":7967:7991   */\n      tag_306\n      jump\t// in\n    tag_309:\n        /* \"#utility.yul\":7962:7965   */\n      dup3\n        /* \"#utility.yul\":7955:7992   */\n      mstore\n        /* \"#utility.yul\":7880:7998   */\n      pop\n      pop\n      jump\t// out\n        /* \"#utility.yul\":8004:8462   */\n    tag_139:\n        /* \"#utility.yul\":8161:8165   */\n      0x00\n        /* \"#utility.yul\":8199:8201   */\n      0x60\n        /* \"#utility.yul\":8188:8197   */\n      dup3\n        /* \"#utility.yul\":8184:8202   */\n      add\n        /* \"#utility.yul\":8176:8202   */\n      swap1\n      pop\n        /* \"#utility.yul\":8212:8283   */\n      tag_311\n        /* \"#utility.yul\":8280:8281   */\n      0x00\n        /* \"#utility.yul\":8269:8278   */\n      dup4\n        /* \"#utility.yul\":8265:8282   */\n      add\n        /* \"#utility.yul\":8256:8262   */\n      dup7\n        /* \"#utility.yul\":8212:8283   */\n      tag_244\n      jump\t// in\n    tag_311:\n        /* \"#utility.yul\":8293:8373   */\n      tag_312\n        /* \"#utility.yul\":8369:8371   */\n      0x20\n        /* \"#utility.yul\":8358:8367   */\n      dup4\n        /* \"#utility.yul\":8354:8372   */\n      add\n        /* \"#utility.yul\":8345:8351   */\n      dup6\n        /* \"#utility.yul\":8293:8373   */\n      tag_232\n      jump\t// in\n    tag_312:\n        /* \"#utility.yul\":8383:8455   */\n      tag_313\n        /* \"#utility.yul\":8451:8453   */\n      0x40\n        /* \"#utility.yul\":8440:8449   */\n      dup4\n        /* \"#utility.yul\":8436:8454   */\n      add\n        /* \"#utility.yul\":8427:8433   */\n      dup5\n        /* \"#utility.yul\":8383:8455   */\n      tag_307\n      jump\t// in\n    tag_313:\n        /* \"#utility.yul\":8004:8462   */\n      swap5\n      swap4\n      pop\n      pop\n      pop\n      pop\n      jump\t// out\n        /* \"#utility.yul\":8468:8910   */\n    tag_121:\n        /* \"#utility.yul\":8617:8621   */\n      0x00\n        /* \"#utility.yul\":8655:8657   */\n      0x60\n        /* \"#utility.yul\":8644:8653   */\n      dup3\n        /* \"#utility.yul\":8640:8658   */\n      add\n        /* \"#utility.yul\":8632:8658   */\n      swap1\n      pop\n        /* \"#utility.yul\":8668:8739   */\n      tag_315\n        /* \"#utility.yul\":8736:8737   */\n      0x00\n        /* \"#utility.yul\":8725:8734   */\n      dup4\n        /* \"#utility.yul\":8721:8738   */\n      add\n        /* \"#utility.yul\":8712:8718   */\n      dup7\n        /* \"#utility.yul\":8668:8739   */\n      tag_244\n      jump\t// in\n    tag_315:\n        /* \"#utility.yul\":8749:8821   */\n      tag_316\n        /* \"#utility.yul\":8817:8819   */\n      0x20\n        /* \"#utility.yul\":8806:8815   */\n      dup4\n        /* \"#utility.yul\":8802:8820   */\n      add\n        /* \"#utility.yul\":8793:8799   */\n      dup6\n        /* \"#utility.yul\":8749:8821   */\n      tag_244\n      jump\t// in\n    tag_316:\n        /* \"#utility.yul\":8831:8903   */\n      tag_317\n        /* \"#utility.yul\":8899:8901   */\n      0x40\n        /* \"#utility.yul\":8888:8897   */\n      dup4\n        /* \"#utility.yul\":8884:8902   */\n      add\n        /* \"#utility.yul\":8875:8881   */\n      dup5\n        /* \"#utility.yul\":8831:8903   */\n      tag_307\n      jump\t// in\n    tag_317:\n        /* \"#utility.yul\":8468:8910   */\n      swap5\n      swap4\n      pop\n      pop\n      pop\n      pop\n      jump\t// out\n        /* \"#utility.yul\":8916:9810   */\n    tag_147:\n        /* \"#utility.yul\":9181:9185   */\n      0x00\n        /* \"#utility.yul\":9219:9222   */\n      0xe0\n        /* \"#utility.yul\":9208:9217   */\n      dup3\n        /* \"#utility.yul\":9204:9223   */\n      add\n        /* \"#utility.yul\":9196:9223   */\n      swap1\n      pop\n        /* \"#utility.yul\":9233:9304   */\n      tag_319\n        /* \"#utility.yul\":9301:9302   */\n      0x00\n        /* \"#utility.yul\":9290:9299   */\n      dup4\n        /* \"#utility.yul\":9286:9303   */\n      add\n        /* \"#utility.yul\":9277:9283   */\n      dup11\n        /* \"#utility.yul\":9233:9304   */\n      tag_244\n      jump\t// in\n    tag_319:\n        /* \"#utility.yul\":9314:9386   */\n      tag_320\n        /* \"#utility.yul\":9382:9384   */\n      0x20\n        /* \"#utility.yul\":9371:9380   */\n      dup4\n        /* \"#utility.yul\":9367:9385   */\n      add\n        /* \"#utility.yul\":9358:9364   */\n      dup10\n        /* \"#utility.yul\":9314:9386   */\n      tag_307\n      jump\t// in\n    tag_320:\n        /* \"#utility.yul\":9396:9476   */\n      tag_321\n        /* \"#utility.yul\":9472:9474   */\n      0x40\n        /* \"#utility.yul\":9461:9470   */\n      dup4\n        /* \"#utility.yul\":9457:9475   */\n      add\n        /* \"#utility.yul\":9448:9454   */\n      dup9\n        /* \"#utility.yul\":9396:9476   */\n      tag_232\n      jump\t// in\n    tag_321:\n        /* \"#utility.yul\":9486:9566   */\n      tag_322\n        /* \"#utility.yul\":9562:9564   */\n      0x60\n        /* \"#utility.yul\":9551:9560   */\n      dup4\n        /* \"#utility.yul\":9547:9565   */\n      add\n        /* \"#utility.yul\":9538:9544   */\n      dup8\n        /* \"#utility.yul\":9486:9566   */\n      tag_232\n      jump\t// in\n    tag_322:\n        /* \"#utility.yul\":9576:9649   */\n      tag_323\n        /* \"#utility.yul\":9644:9647   */\n      0x80\n        /* \"#utility.yul\":9633:9642   */\n      dup4\n        /* \"#utility.yul\":9629:9648   */\n      add\n        /* \"#utility.yul\":9620:9626   */\n      dup7\n        /* \"#utility.yul\":9576:9649   */\n      tag_307\n      jump\t// in\n    tag_323:\n        /* \"#utility.yul\":9659:9726   */\n      tag_324\n        /* \"#utility.yul\":9721:9724   */\n      0xa0\n        /* \"#utility.yul\":9710:9719   */\n      dup4\n        /* \"#utility.yul\":9706:9725   */\n      add\n        /* \"#utility.yul\":9697:9703   */\n      dup6\n        /* \"#utility.yul\":9659:9726   */\n      tag_265\n      jump\t// in\n    tag_324:\n        /* \"#utility.yul\":9736:9803   */\n      tag_325\n        /* \"#utility.yul\":9798:9801   */\n      0xc0\n        /* \"#utility.yul\":9787:9796   */\n      dup4\n        /* \"#utility.yul\":9783:9802   */\n      add\n        /* \"#utility.yul\":9774:9780   */\n      dup5\n        /* \"#utility.yul\":9736:9803   */\n      tag_265\n      jump\t// in\n    tag_325:\n        /* \"#utility.yul\":8916:9810   */\n      swap9\n      swap8\n      pop\n      pop\n      pop\n      pop\n      pop\n      pop\n      pop\n      pop\n      jump\t// out\n        /* \"#utility.yul\":9816:10678   */\n    tag_128:\n        /* \"#utility.yul\":10065:10069   */\n      0x00\n        /* \"#utility.yul\":10103:10106   */\n      0xe0\n        /* \"#utility.yul\":10092:10101   */\n      dup3\n        /* \"#utility.yul\":10088:10107   */\n      add\n        /* \"#utility.yul\":10080:10107   */\n      swap1\n      pop\n        /* \"#utility.yul\":10117:10188   */\n      tag_327\n        /* \"#utility.yul\":10185:10186   */\n      0x00\n        /* \"#utility.yul\":10174:10183   */\n      dup4\n        /* \"#utility.yul\":10170:10187   */\n      add\n        /* \"#utility.yul\":10161:10167   */\n      dup11\n        /* \"#utility.yul\":10117:10188   */\n      tag_244\n      jump\t// in\n    tag_327:\n        /* \"#utility.yul\":10198:10270   */\n      tag_328\n        /* \"#utility.yul\":10266:10268   */\n      0x20\n        /* \"#utility.yul\":10255:10264   */\n      dup4\n        /* \"#utility.yul\":10251:10269   */\n      add\n        /* \"#utility.yul\":10242:10248   */\n      dup10\n        /* \"#utility.yul\":10198:10270   */\n      tag_307\n      jump\t// in\n    tag_328:\n        /* \"#utility.yul\":10280:10352   */\n      tag_329\n        /* \"#utility.yul\":10348:10350   */\n      0x40\n        /* \"#utility.yul\":10337:10346   */\n      dup4\n        /* \"#utility.yul\":10333:10351   */\n      add\n        /* \"#utility.yul\":10324:10330   */\n      dup9\n        /* \"#utility.yul\":10280:10352   */\n      tag_244\n      jump\t// in\n    tag_329:\n        /* \"#utility.yul\":10362:10434   */\n      tag_330\n        /* \"#utility.yul\":10430:10432   */\n      0x60\n        /* \"#utility.yul\":10419:10428   */\n      dup4\n        /* \"#utility.yul\":10415:10433   */\n      add\n        /* \"#utility.yul\":10406:10412   */\n      dup8\n        /* \"#utility.yul\":10362:10434   */\n      tag_244\n      jump\t// in\n    tag_330:\n        /* \"#utility.yul\":10444:10517   */\n      tag_331\n        /* \"#utility.yul\":10512:10515   */\n      0x80\n        /* \"#utility.yul\":10501:10510   */\n      dup4\n        /* \"#utility.yul\":10497:10516   */\n      add\n        /* \"#utility.yul\":10488:10494   */\n      dup7\n        /* \"#utility.yul\":10444:10517   */\n      tag_307\n      jump\t// in\n    tag_331:\n        /* \"#utility.yul\":10527:10594   */\n      tag_332\n        /* \"#utility.yul\":10589:10592   */\n      0xa0\n        /* \"#utility.yul\":10578:10587   */\n      dup4\n        /* \"#utility.yul\":10574:10593   */\n      add\n        /* \"#utility.yul\":10565:10571   */\n      dup6\n        /* \"#utility.yul\":10527:10594   */\n      tag_265\n      jump\t// in\n    tag_332:\n        /* \"#utility.yul\":10604:10671   */\n      tag_333\n        /* \"#utility.yul\":10666:10669   */\n      0xc0\n        /* \"#utility.yul\":10655:10664   */\n      dup4\n        /* \"#utility.yul\":10651:10670   */\n      add\n        /* \"#utility.yul\":10642:10648   */\n      dup5\n        /* \"#utility.yul\":10604:10671   */\n      tag_265\n      jump\t// in\n    tag_333:\n        /* \"#utility.yul\":9816:10678   */\n      swap9\n      swap8\n      pop\n      pop\n      pop\n      pop\n      pop\n      pop\n      pop\n      pop\n      jump\t// out\n        /* \"#utility.yul\":10684:11141   */\n    tag_16:\n        /* \"#utility.yul\":10869:10873   */\n      0x00\n        /* \"#utility.yul\":10907:10909   */\n      0x20\n        /* \"#utility.yul\":10896:10905   */\n      dup3\n        /* \"#utility.yul\":10892:10910   */\n      add\n        /* \"#utility.yul\":10884:10910   */\n      swap1\n      pop\n        /* \"#utility.yul\":10956:10965   */\n      dup2\n        /* \"#utility.yul\":10950:10954   */\n      dup2\n        /* \"#utility.yul\":10946:10966   */\n      sub\n        /* \"#utility.yul\":10942:10943   */\n      0x00\n        /* \"#utility.yul\":10931:10940   */\n      dup4\n        /* \"#utility.yul\":10927:10944   */\n      add\n        /* \"#utility.yul\":10920:10967   */\n      mstore\n        /* \"#utility.yul\":10984:11134   */\n      tag_335\n        /* \"#utility.yul\":11129:11133   */\n      dup2\n        /* \"#utility.yul\":11120:11126   */\n      dup5\n        /* \"#utility.yul\":10984:11134   */\n      tag_247\n      jump\t// in\n    tag_335:\n        /* \"#utility.yul\":10976:11134   */\n      swap1\n      pop\n        /* \"#utility.yul\":10684:11141   */\n      swap3\n      swap2\n      pop\n      pop\n      jump\t// out\n        /* \"#utility.yul\":11147:11566   */\n    tag_195:\n        /* \"#utility.yul\":11313:11317   */\n      0x00\n        /* \"#utility.yul\":11351:11353   */\n      0x20\n        /* \"#utility.yul\":11340:11349   */\n      dup3\n        /* \"#utility.yul\":11336:11354   */\n      add\n        /* \"#utility.yul\":11328:11354   */\n      swap1\n      pop\n        /* \"#utility.yul\":11400:11409   */\n      dup2\n        /* \"#utility.yul\":11394:11398   */\n      dup2\n        /* \"#utility.yul\":11390:11410   */\n      sub\n        /* \"#utility.yul\":11386:11387   */\n      0x00\n        /* \"#utility.yul\":11375:11384   */\n      dup4\n        /* \"#utility.yul\":11371:11388   */\n      add\n        /* \"#utility.yul\":11364:11411   */\n      mstore\n        /* \"#utility.yul\":11428:11559   */\n      tag_337\n        /* \"#utility.yul\":11554:11558   */\n      dup2\n        /* \"#utility.yul\":11428:11559   */\n      tag_268\n      jump\t// in\n    tag_337:\n        /* \"#utility.yul\":11420:11559   */\n      swap1\n      pop\n        /* \"#utility.yul\":11147:11566   */\n      swap2\n      swap1\n      pop\n      jump\t// out\n        /* \"#utility.yul\":11572:11991   */\n    tag_135:\n        /* \"#utility.yul\":11738:11742   */\n      0x00\n        /* \"#utility.yul\":11776:11778   */\n      0x20\n        /* \"#utility.yul\":11765:11774   */\n      dup3\n        /* \"#utility.yul\":11761:11779   */\n      add\n        /* \"#utility.yul\":11753:11779   */\n      swap1\n      pop\n        /* \"#utility.yul\":11825:11834   */\n      dup2\n        /* \"#utility.yul\":11819:11823   */\n      dup2\n        /* \"#utility.yul\":11815:11835   */\n      sub\n        /* \"#utility.yul\":11811:11812   */\n      0x00\n        /* \"#utility.yul\":11800:11809   */\n      dup4\n        /* \"#utility.yul\":11796:11813   */\n      add\n        /* \"#utility.yul\":11789:11836   */\n      mstore\n        /* \"#utility.yul\":11853:11984   */\n      tag_339\n        /* \"#utility.yul\":11979:11983   */\n      dup2\n        /* \"#utility.yul\":11853:11984   */\n      tag_274\n      jump\t// in\n    tag_339:\n        /* \"#utility.yul\":11845:11984   */\n      swap1\n      pop\n        /* \"#utility.yul\":11572:11991   */\n      swap2\n      swap1\n      pop\n      jump\t// out\n        /* \"#utility.yul\":11997:12416   */\n    tag_119:\n        /* \"#utility.yul\":12163:12167   */\n      0x00\n        /* \"#utility.yul\":12201:12203   */\n      0x20\n        /* \"#utility.yul\":12190:12199   */\n      dup3\n        /* \"#utility.yul\":12186:12204   */\n      add\n        /* \"#utility.yul\":12178:12204   */\n      swap1\n      pop\n        /* \"#utility.yul\":12250:12259   */\n      dup2\n        /* \"#utility.yul\":12244:12248   */\n      dup2\n        /* \"#utility.yul\":12240:12260   */\n      sub\n        /* \"#utility.yul\":12236:12237   */\n      0x00\n        /* \"#utility.yul\":12225:12234   */\n      dup4\n        /* \"#utility.yul\":12221:12238   */\n      add\n        /* \"#utility.yul\":12214:12261   */\n      mstore\n        /* \"#utility.yul\":12278:12409   */\n      tag_341\n        /* \"#utility.yul\":12404:12408   */\n      dup2\n        /* \"#utility.yul\":12278:12409   */\n      tag_279\n      jump\t// in\n    tag_341:\n        /* \"#utility.yul\":12270:12409   */\n      swap1\n      pop\n        /* \"#utility.yul\":11997:12416   */\n      swap2\n      swap1\n      pop\n      jump\t// out\n        /* \"#utility.yul\":12422:12841   */\n    tag_112:\n        /* \"#utility.yul\":12588:12592   */\n      0x00\n        /* \"#utility.yul\":12626:12628   */\n      0x20\n        /* \"#utility.yul\":12615:12624   */\n      dup3\n        /* \"#utility.yul\":12611:12629   */\n      add\n        /* \"#utility.yul\":12603:12629   */\n      swap1\n      pop\n        /* \"#utility.yul\":12675:12684   */\n      dup2\n        /* \"#utility.yul\":12669:12673   */\n      dup2\n        /* \"#utility.yul\":12665:12685   */\n      sub\n        /* \"#utility.yul\":12661:12662   */\n      0x00\n        /* \"#utility.yul\":12650:12659   */\n      dup4\n        /* \"#utility.yul\":12646:12663   */\n      add\n        /* \"#utility.yul\":12639:12686   */\n      mstore\n        /* \"#utility.yul\":12703:12834   */\n      tag_343\n        /* \"#utility.yul\":12829:12833   */\n      dup2\n        /* \"#utility.yul\":12703:12834   */\n      tag_284\n      jump\t// in\n    tag_343:\n        /* \"#utility.yul\":12695:12834   */\n      swap1\n      pop\n        /* \"#utility.yul\":12422:12841   */\n      swap2\n      swap1\n      pop\n      jump\t// out\n        /* \"#utility.yul\":12847:13266   */\n    tag_116:\n        /* \"#utility.yul\":13013:13017   */\n      0x00\n        /* \"#utility.yul\":13051:13053   */\n      0x20\n        /* \"#utility.yul\":13040:13049   */\n      dup3\n        /* \"#utility.yul\":13036:13054   */\n      add\n        /* \"#utility.yul\":13028:13054   */\n      swap1\n      pop\n        /* \"#utility.yul\":13100:13109   */\n      dup2\n        /* \"#utility.yul\":13094:13098   */\n      dup2\n        /* \"#utility.yul\":13090:13110   */\n      sub\n        /* \"#utility.yul\":13086:13087   */\n      0x00\n        /* \"#utility.yul\":13075:13084   */\n      dup4\n        /* \"#utility.yul\":13071:13088   */\n      add\n        /* \"#utility.yul\":13064:13111   */\n      mstore\n        /* \"#utility.yul\":13128:13259   */\n      tag_345\n        /* \"#utility.yul\":13254:13258   */\n      dup2\n        /* \"#utility.yul\":13128:13259   */\n      tag_289\n      jump\t// in\n    tag_345:\n        /* \"#utility.yul\":13120:13259   */\n      swap1\n      pop\n        /* \"#utility.yul\":12847:13266   */\n      swap2\n      swap1\n      pop\n      jump\t// out\n        /* \"#utility.yul\":13272:13494   */\n    tag_25:\n        /* \"#utility.yul\":13365:13369   */\n      0x00\n        /* \"#utility.yul\":13403:13405   */\n      0x20\n        /* \"#utility.yul\":13392:13401   */\n      dup3\n        /* \"#utility.yul\":13388:13406   */\n      add\n        /* \"#utility.yul\":13380:13406   */\n      swap1\n      pop\n        /* \"#utility.yul\":13416:13487   */\n      tag_347\n        /* \"#utility.yul\":13484:13485   */\n      0x00\n        /* \"#utility.yul\":13473:13482   */\n      dup4\n        /* \"#utility.yul\":13469:13486   */\n      add\n        /* \"#utility.yul\":13460:13466   */\n      dup5\n        /* \"#utility.yul\":13416:13487   */\n      tag_307\n      jump\t// in\n    tag_347:\n        /* \"#utility.yul\":13272:13494   */\n      swap3\n      swap2\n      pop\n      pop\n      jump\t// out\n        /* \"#utility.yul\":13581:13734   */\n    tag_254:\n        /* \"#utility.yul\":13669:13673   */\n      0x00\n        /* \"#utility.yul\":13692:13695   */\n      dup2\n        /* \"#utility.yul\":13684:13695   */\n      swap1\n      pop\n        /* \"#utility.yul\":13722:13726   */\n      0x20\n        /* \"#utility.yul\":13717:13720   */\n      dup3\n        /* \"#utility.yul\":13713:13727   */\n      add\n        /* \"#utility.yul\":13705:13727   */\n      swap1\n      pop\n        /* \"#utility.yul\":13581:13734   */\n      swap2\n      swap1\n      pop\n      jump\t// out\n        /* \"#utility.yul\":13740:13875   */\n    tag_250:\n        /* \"#utility.yul\":13828:13834   */\n      0x00\n        /* \"#utility.yul\":13862:13867   */\n      dup2\n        /* \"#utility.yul\":13856:13868   */\n      mload\n        /* \"#utility.yul\":13846:13868   */\n      swap1\n      pop\n        /* \"#utility.yul\":13740:13875   */\n      swap2\n      swap1\n      pop\n      jump\t// out\n        /* \"#utility.yul\":13881:14015   */\n    tag_260:\n        /* \"#utility.yul\":13972:13976   */\n      0x00\n        /* \"#utility.yul\":14004:14008   */\n      0x20\n        /* \"#utility.yul\":13999:14002   */\n      dup3\n        /* \"#utility.yul\":13995:14009   */\n      add\n        /* \"#utility.yul\":13987:14009   */\n      swap1\n      pop\n        /* \"#utility.yul\":13881:14015   */\n      swap2\n      swap1\n      pop\n      jump\t// out\n        /* \"#utility.yul\":14021:14226   */\n    tag_252:\n        /* \"#utility.yul\":14141:14152   */\n      0x00\n        /* \"#utility.yul\":14175:14181   */\n      dup3\n        /* \"#utility.yul\":14170:14173   */\n      dup3\n        /* \"#utility.yul\":14163:14182   */\n      mstore\n        /* \"#utility.yul\":14215:14219   */\n      0x20\n        /* \"#utility.yul\":14210:14213   */\n      dup3\n        /* \"#utility.yul\":14206:14220   */\n      add\n        /* \"#utility.yul\":14191:14220   */\n      swap1\n      pop\n        /* \"#utility.yul\":14021:14226   */\n      swap3\n      swap2\n      pop\n      pop\n      jump\t// out\n        /* \"#utility.yul\":14232:14401   */\n    tag_271:\n        /* \"#utility.yul\":14316:14327   */\n      0x00\n        /* \"#utility.yul\":14350:14356   */\n      dup3\n        /* \"#utility.yul\":14345:14348   */\n      dup3\n        /* \"#utility.yul\":14338:14357   */\n      mstore\n        /* \"#utility.yul\":14390:14394   */\n      0x20\n        /* \"#utility.yul\":14385:14388   */\n      dup3\n        /* \"#utility.yul\":14381:14395   */\n      add\n        /* \"#utility.yul\":14366:14395   */\n      swap1\n      pop\n        /* \"#utility.yul\":14232:14401   */\n      swap3\n      swap2\n      pop\n      pop\n      jump\t// out\n        /* \"#utility.yul\":14407:14712   */\n    tag_58:\n        /* \"#utility.yul\":14447:14450   */\n      0x00\n        /* \"#utility.yul\":14466:14486   */\n      tag_356\n        /* \"#utility.yul\":14484:14485   */\n      dup3\n        /* \"#utility.yul\":14466:14486   */\n      tag_306\n      jump\t// in\n    tag_356:\n        /* \"#utility.yul\":14461:14486   */\n      swap2\n      pop\n        /* \"#utility.yul\":14500:14520   */\n      tag_357\n        /* \"#utility.yul\":14518:14519   */\n      dup4\n        /* \"#utility.yul\":14500:14520   */\n      tag_306\n      jump\t// in\n    tag_357:\n        /* \"#utility.yul\":14495:14520   */\n      swap3\n      pop\n        /* \"#utility.yul\":14654:14655   */\n      dup3\n        /* \"#utility.yul\":14586:14652   */\n      0xffffffffffffffffffffffffffffffffffffffffffffffffffffffffffffffff\n        /* \"#utility.yul\":14582:14656   */\n      sub\n        /* \"#utility.yul\":14579:14580   */\n      dup3\n        /* \"#utility.yul\":14576:14657   */\n      gt\n        /* \"#utility.yul\":14573:14680   */\n      iszero\n      tag_358\n      jumpi\n        /* \"#utility.yul\":14660:14678   */\n      tag_359\n      tag_360\n      jump\t// in\n    tag_359:\n        /* \"#utility.yul\":14573:14680   */\n    tag_358:\n        /* \"#utility.yul\":14704:14705   */\n      dup3\n        /* \"#utility.yul\":14701:14702   */\n      dup3\n        /* \"#utility.yul\":14697:14706   */\n      add\n        /* \"#utility.yul\":14690:14706   */\n      swap1\n      pop\n        /* \"#utility.yul\":14407:14712   */\n      swap3\n      swap2\n      pop\n      pop\n      jump\t// out\n        /* \"#utility.yul\":14718:14909   */\n    tag_152:\n        /* \"#utility.yul\":14758:14762   */\n      0x00\n        /* \"#utility.yul\":14778:14798   */\n      tag_362\n        /* \"#utility.yul\":14796:14797   */\n      dup3\n        /* \"#utility.yul\":14778:14798   */\n      tag_306\n      jump\t// in\n    tag_362:\n        /* \"#utility.yul\":14773:14798   */\n      swap2\n      pop\n        /* \"#utility.yul\":14812:14832   */\n      tag_363\n        /* \"#utility.yul\":14830:14831   */\n      dup4\n        /* \"#utility.yul\":14812:14832   */\n      tag_306\n      jump\t// in\n    tag_363:\n        /* \"#utility.yul\":14807:14832   */\n      swap3\n      pop\n        /* \"#utility.yul\":14851:14852   */\n      dup3\n        /* \"#utility.yul\":14848:14849   */\n      dup3\n        /* \"#utility.yul\":14845:14853   */\n      lt\n        /* \"#utility.yul\":14842:14876   */\n      iszero\n      tag_364\n      jumpi\n        /* \"#utility.yul\":14856:14874   */\n      tag_365\n      tag_360\n      jump\t// in\n    tag_365:\n        /* \"#utility.yul\":14842:14876   */\n    tag_364:\n        /* \"#utility.yul\":14901:14902   */\n      dup3\n        /* \"#utility.yul\":14898:14899   */\n      dup3\n        /* \"#utility.yul\":14894:14903   */\n      sub\n        /* \"#utility.yul\":14886:14903   */\n      swap1\n      pop\n        /* \"#utility.yul\":14718:14909   */\n      swap3\n      swap2\n      pop\n      pop\n      jump\t// out\n        /* \"#utility.yul\":14915:15011   */\n    tag_243:\n        /* \"#utility.yul\":14952:14959   */\n      0x00\n        /* \"#utility.yul\":14981:15005   */\n      tag_367\n        /* \"#utility.yul\":14999:15004   */\n      dup3\n        /* \"#utility.yul\":14981:15005   */\n      tag_368\n      jump\t// in\n    tag_367:\n        /* \"#utility.yul\":14970:15005   */\n      swap1\n      pop\n        /* \"#utility.yul\":14915:15011   */\n      swap2\n      swap1\n      pop\n      jump\t// out\n        /* \"#utility.yul\":15017:15121   */\n    tag_239:\n        /* \"#utility.yul\":15062:15069   */\n      0x00\n        /* \"#utility.yul\":15091:15115   */\n      tag_370\n        /* \"#utility.yul\":15109:15114   */\n      dup3\n        /* \"#utility.yul\":15091:15115   */\n      tag_368\n      jump\t// in\n    tag_370:\n        /* \"#utility.yul\":15080:15115   */\n      swap1\n      pop\n        /* \"#utility.yul\":15017:15121   */\n      swap2\n      swap1\n      pop\n      jump\t// out\n        /* \"#utility.yul\":15127:15217   */\n    tag_264:\n        /* \"#utility.yul\":15161:15168   */\n      0x00\n        /* \"#utility.yul\":15204:15209   */\n      dup2\n        /* \"#utility.yul\":15197:15210   */\n      iszero\n        /* \"#utility.yul\":15190:15211   */\n      iszero\n        /* \"#utility.yul\":15179:15211   */\n      swap1\n      pop\n        /* \"#utility.yul\":15127:15217   */\n      swap2\n      swap1\n      pop\n      jump\t// out\n        /* \"#utility.yul\":15223:15349   */\n    tag_368:\n        /* \"#utility.yul\":15260:15267   */\n      0x00\n        /* \"#utility.yul\":15300:15342   */\n      0xffffffffffffffffffffffffffffffffffffffff\n        /* \"#utility.yul\":15293:15298   */\n      dup3\n        /* \"#utility.yul\":15289:15343   */\n      and\n        /* \"#utility.yul\":15278:15343   */\n      swap1\n      pop\n        /* \"#utility.yul\":15223:15349   */\n      swap2\n      swap1\n      pop\n      jump\t// out\n        /* \"#utility.yul\":15355:15432   */\n    tag_306:\n        /* \"#utility.yul\":15392:15399   */\n      0x00\n        /* \"#utility.yul\":15421:15426   */\n      dup2\n        /* \"#utility.yul\":15410:15426   */\n      swap1\n      pop\n        /* \"#utility.yul\":15355:15432   */\n      swap2\n      swap1\n      pop\n      jump\t// out\n        /* \"#utility.yul\":15438:15572   */\n    tag_235:\n        /* \"#utility.yul\":15496:15505   */\n      0x00\n        /* \"#utility.yul\":15529:15566   */\n      tag_375\n        /* \"#utility.yul\":15560:15565   */\n      dup3\n        /* \"#utility.yul\":15529:15566   */\n      tag_376\n      jump\t// in\n    tag_375:\n        /* \"#utility.yul\":15516:15566   */\n      swap1\n      pop\n        /* \"#utility.yul\":15438:15572   */\n      swap2\n      swap1\n      pop\n      jump\t// out\n        /* \"#utility.yul\":15578:15704   */\n    tag_376:\n        /* \"#utility.yul\":15628:15637   */\n      0x00\n        /* \"#utility.yul\":15661:15698   */\n      tag_378\n        /* \"#utility.yul\":15692:15697   */\n      dup3\n        /* \"#utility.yul\":15661:15698   */\n      tag_379\n      jump\t// in\n    tag_378:\n        /* \"#utility.yul\":15648:15698   */\n      swap1\n      pop\n        /* \"#utility.yul\":15578:15704   */\n      swap2\n      swap1\n      pop\n      jump\t// out\n        /* \"#utility.yul\":15710:15823   */\n    tag_379:\n        /* \"#utility.yul\":15760:15769   */\n      0x00\n        /* \"#utility.yul\":15793:15817   */\n      tag_381\n        /* \"#utility.yul\":15811:15816   */\n      dup3\n        /* \"#utility.yul\":15793:15817   */\n      tag_368\n      jump\t// in\n    tag_381:\n        /* \"#utility.yul\":15780:15817   */\n      swap1\n      pop\n        /* \"#utility.yul\":15710:15823   */\n      swap2\n      swap1\n      pop\n      jump\t// out\n        /* \"#utility.yul\":15829:16062   */\n    tag_61:\n        /* \"#utility.yul\":15868:15871   */\n      0x00\n        /* \"#utility.yul\":15891:15915   */\n      tag_383\n        /* \"#utility.yul\":15909:15914   */\n      dup3\n        /* \"#utility.yul\":15891:15915   */\n      tag_306\n      jump\t// in\n    tag_383:\n        /* \"#utility.yul\":15882:15915   */\n      swap2\n      pop\n        /* \"#utility.yul\":15937:16003   */\n      0xffffffffffffffffffffffffffffffffffffffffffffffffffffffffffffffff\n        /* \"#utility.yul\":15930:15935   */\n      dup3\n        /* \"#utility.yul\":15927:16004   */\n      eq\n        /* \"#utility.yul\":15924:16027   */\n      iszero\n      tag_384\n      jumpi\n        /* \"#utility.yul\":16007:16025   */\n      tag_385\n      tag_360\n      jump\t// in\n    tag_385:\n        /* \"#utility.yul\":15924:16027   */\n    tag_384:\n        /* \"#utility.yul\":16054:16055   */\n      0x01\n        /* \"#utility.yul\":16047:16052   */\n      dup3\n        /* \"#utility.yul\":16043:16056   */\n      add\n        /* \"#utility.yul\":16036:16056   */\n      swap1\n      pop\n        /* \"#utility.yul\":15829:16062   */\n      swap2\n      swap1\n      pop\n      jump\t// out\n        /* \"#utility.yul\":16068:16248   */\n    tag_360:\n        /* \"#utility.yul\":16116:16193   */\n      0x4e487b7100000000000000000000000000000000000000000000000000000000\n        /* \"#utility.yul\":16113:16114   */\n      0x00\n        /* \"#utility.yul\":16106:16194   */\n      mstore\n        /* \"#utility.yul\":16213:16217   */\n      0x11\n        /* \"#utility.yul\":16210:16211   */\n      0x04\n        /* \"#utility.yul\":16203:16218   */\n      mstore\n        /* \"#utility.yul\":16237:16241   */\n      0x24\n        /* \"#utility.yul\":16234:16235   */\n      0x00\n        /* \"#utility.yul\":16227:16242   */\n      revert\n        /* \"#utility.yul\":16254:16434   */\n    tag_78:\n        /* \"#utility.yul\":16302:16379   */\n      0x4e487b7100000000000000000000000000000000000000000000000000000000\n        /* \"#utility.yul\":16299:16300   */\n      0x00\n        /* \"#utility.yul\":16292:16380   */\n      mstore\n        /* \"#utility.yul\":16399:16403   */\n      0x32\n        /* \"#utility.yul\":16396:16397   */\n      0x04\n        /* \"#utility.yul\":16389:16404   */\n      mstore\n        /* \"#utility.yul\":16423:16427   */\n      0x24\n        /* \"#utility.yul\":16420:16421   */\n      0x00\n        /* \"#utility.yul\":16413:16428   */\n      revert\n        /* \"#utility.yul\":16440:16620   */\n    tag_65:\n        /* \"#utility.yul\":16488:16565   */\n      0x4e487b7100000000000000000000000000000000000000000000000000000000\n        /* \"#utility.yul\":16485:16486   */\n      0x00\n        /* \"#utility.yul\":16478:16566   */\n      mstore\n        /* \"#utility.yul\":16585:16589   */\n      0x41\n        /* \"#utility.yul\":16582:16583   */\n      0x04\n        /* \"#utility.yul\":16575:16590   */\n      mstore\n        /* \"#utility.yul\":16609:16613   */\n      0x24\n        /* \"#utility.yul\":16606:16607   */\n      0x00\n        /* \"#utility.yul\":16599:16614   */\n      revert\n        /* \"#utility.yul\":16749:16866   */\n    tag_212:\n        /* \"#utility.yul\":16858:16859   */\n      0x00\n        /* \"#utility.yul\":16855:16856   */\n      dup1\n        /* \"#utility.yul\":16848:16860   */\n      revert\n        /* \"#utility.yul\":16872:17049   */\n    tag_273:\n        /* \"#utility.yul\":17012:17041   */\n      0x436f756e7465723a2064656372656d656e74206f766572666c6f770000000000\n        /* \"#utility.yul\":17008:17009   */\n      0x00\n        /* \"#utility.yul\":17000:17006   */\n      dup3\n        /* \"#utility.yul\":16996:17010   */\n      add\n        /* \"#utility.yul\":16989:17042   */\n      mstore\n        /* \"#utility.yul\":16872:17049   */\n      pop\n      jump\t// out\n        /* \"#utility.yul\":17055:17280   */\n    tag_278:\n        /* \"#utility.yul\":17195:17229   */\n      0x4e6f7420656e6f75676820657468657220746f20636f7665722061736b696e67\n        /* \"#utility.yul\":17191:17192   */\n      0x00\n        /* \"#utility.yul\":17183:17189   */\n      dup3\n        /* \"#utility.yul\":17179:17193   */\n      add\n        /* \"#utility.yul\":17172:17230   */\n      mstore\n        /* \"#utility.yul\":17264:17272   */\n      0x2070726963650000000000000000000000000000000000000000000000000000\n        /* \"#utility.yul\":17259:17261   */\n      0x20\n        /* \"#utility.yul\":17251:17257   */\n      dup3\n        /* \"#utility.yul\":17247:17262   */\n      add\n        /* \"#utility.yul\":17240:17273   */\n      mstore\n        /* \"#utility.yul\":17055:17280   */\n      pop\n      jump\t// out\n        /* \"#utility.yul\":17286:17468   */\n    tag_283:\n        /* \"#utility.yul\":17426:17460   */\n      0x4e6f7420656e6f75676820657468657220666f72206c697374696e6720666565\n        /* \"#utility.yul\":17422:17423   */\n      0x00\n        /* \"#utility.yul\":17414:17420   */\n      dup3\n        /* \"#utility.yul\":17410:17424   */\n      add\n        /* \"#utility.yul\":17403:17461   */\n      mstore\n        /* \"#utility.yul\":17286:17468   */\n      pop\n      jump\t// out\n        /* \"#utility.yul\":17474:17655   */\n    tag_288:\n        /* \"#utility.yul\":17614:17647   */\n      0x5265656e7472616e637947756172643a207265656e7472616e742063616c6c00\n        /* \"#utility.yul\":17610:17611   */\n      0x00\n        /* \"#utility.yul\":17602:17608   */\n      dup3\n        /* \"#utility.yul\":17598:17612   */\n      add\n        /* \"#utility.yul\":17591:17648   */\n      mstore\n        /* \"#utility.yul\":17474:17655   */\n      pop\n      jump\t// out\n        /* \"#utility.yul\":17661:17839   */\n    tag_293:\n        /* \"#utility.yul\":17801:17831   */\n      0x5072696365206d757374206265206174206c6561737420312077656900000000\n        /* \"#utility.yul\":17797:17798   */\n      0x00\n        /* \"#utility.yul\":17789:17795   */\n      dup3\n        /* \"#utility.yul\":17785:17799   */\n      add\n        /* \"#utility.yul\":17778:17832   */\n      mstore\n        /* \"#utility.yul\":17661:17839   */\n      pop\n      jump\t// out\n        /* \"#utility.yul\":17845:17967   */\n    tag_200:\n        /* \"#utility.yul\":17918:17942   */\n      tag_398\n        /* \"#utility.yul\":17936:17941   */\n      dup2\n        /* \"#utility.yul\":17918:17942   */\n      tag_243\n      jump\t// in\n    tag_398:\n        /* \"#utility.yul\":17911:17916   */\n      dup2\n        /* \"#utility.yul\":17908:17943   */\n      eq\n        /* \"#utility.yul\":17898:17961   */\n      tag_399\n      jumpi\n        /* \"#utility.yul\":17957:17958   */\n      0x00\n        /* \"#utility.yul\":17954:17955   */\n      dup1\n        /* \"#utility.yul\":17947:17959   */\n      revert\n        /* \"#utility.yul\":17898:17961   */\n    tag_399:\n        /* \"#utility.yul\":17845:17967   */\n      pop\n      jump\t// out\n        /* \"#utility.yul\":17973:18089   */\n    tag_204:\n        /* \"#utility.yul\":18043:18064   */\n      tag_401\n        /* \"#utility.yul\":18058:18063   */\n      dup2\n        /* \"#utility.yul\":18043:18064   */\n      tag_264\n      jump\t// in\n    tag_401:\n        /* \"#utility.yul\":18036:18041   */\n      dup2\n        /* \"#utility.yul\":18033:18065   */\n      eq\n        /* \"#utility.yul\":18023:18083   */\n      tag_402\n      jumpi\n        /* \"#utility.yul\":18079:18080   */\n      0x00\n        /* \"#utility.yul\":18076:18077   */\n      dup1\n        /* \"#utility.yul\":18069:18081   */\n      revert\n        /* \"#utility.yul\":18023:18083   */\n    tag_402:\n        /* \"#utility.yul\":17973:18089   */\n      pop\n      jump\t// out\n        /* \"#utility.yul\":18095:18217   */\n    tag_208:\n        /* \"#utility.yul\":18168:18192   */\n      tag_404\n        /* \"#utility.yul\":18186:18191   */\n      dup2\n        /* \"#utility.yul\":18168:18192   */\n      tag_306\n      jump\t// in\n    tag_404:\n        /* \"#utility.yul\":18161:18166   */\n      dup2\n        /* \"#utility.yul\":18158:18193   */\n      eq\n        /* \"#utility.yul\":18148:18211   */\n      tag_405\n      jumpi\n        /* \"#utility.yul\":18207:18208   */\n      0x00\n        /* \"#utility.yul\":18204:18205   */\n      dup1\n        /* \"#utility.yul\":18197:18209   */\n      revert\n        /* \"#utility.yul\":18148:18211   */\n    tag_405:\n        /* \"#utility.yul\":18095:18217   */\n      pop\n      jump\t// out\n\n    auxdata: 0xa26469706673582212208d8ca429583b4b809243ee6504fc56fe628fa843c259a7f87100e98f1529dd1b64736f6c63430008070033\n}\n",
				"bytecode": {
					"linkReferences": {},
					"object": "608060405266038d7ea4c6800060035560c860045534801561002057600080fd5b50600160008190555033600560006101000a81548173ffffffffffffffffffffffffffffffffffffffff021916908373ffffffffffffffffffffffffffffffffffffffff160217905550611fef806100796000396000f3fe6080604052600436106100865760003560e01c80634ddf4f8f116100595780634ddf4f8f1461012857806381372a9b14610144578063b8fe6abe14610181578063cdc66b2c146101ac578063f5860220146101d757610086565b8063047b07bf1461008b5780631f4cc4db146100b65780632b86ae38146100e157806333431c0a1461010c575b600080fd5b34801561009757600080fd5b506100a06101f3565b6040516100ad9190611b65565b60405180910390f35b3480156100c257600080fd5b506100cb61055f565b6040516100d89190611b65565b60405180910390f35b3480156100ed57600080fd5b506100f661093b565b6040516101039190611c27565b60405180910390f35b6101266004803603810190610121919061171e565b610941565b005b610142600480360381019061013d91906116de565b610cc3565b005b34801561015057600080fd5b5061016b60048036038101906101669190611799565b610fc2565b6040516101789190611b65565b60405180910390f35b34801561018d57600080fd5b506101966112e6565b6040516101a39190611c27565b60405180910390f35b3480156101b857600080fd5b506101c16112f0565b6040516101ce9190611c27565b60405180910390f35b6101f160048036038101906101ec919061171e565b6112f6565b005b606060006102016002611592565b90506000805b828110156102a7573373ffffffffffffffffffffffffffffffffffffffff16600660006001846102379190611c8c565b815260200190815260200160002060030160009054906101000a900473ffffffffffffffffffffffffffffffffffffffff1673ffffffffffffffffffffffffffffffffffffffff16141561029457818061029090611da6565b9250505b808061029f90611da6565b915050610207565b5060008167ffffffffffffffff8111156102c4576102c3611e4d565b5b6040519080825280602002602001820160405280156102fd57816020015b6102ea611612565b8152602001906001900390816102e25790505b5090506000805b84811015610554573373ffffffffffffffffffffffffffffffffffffffff16600660006001846103349190611c8c565b815260200190815260200160002060030160009054906101000a900473ffffffffffffffffffffffffffffffffffffffff1673ffffffffffffffffffffffffffffffffffffffff16141561054157600660006001836103939190611c8c565b8152602001908152602001600020604051806101000160405290816000820160009054906101000a900473ffffffffffffffffffffffffffffffffffffffff1673ffffffffffffffffffffffffffffffffffffffff1673ffffffffffffffffffffffffffffffffffffffff168152602001600182015481526020016002820160009054906101000a900473ffffffffffffffffffffffffffffffffffffffff1673ffffffffffffffffffffffffffffffffffffffff1673ffffffffffffffffffffffffffffffffffffffff1681526020016003820160009054906101000a900473ffffffffffffffffffffffffffffffffffffffff1673ffffffffffffffffffffffffffffffffffffffff1673ffffffffffffffffffffffffffffffffffffffff168152602001600482015481526020016005820160009054906101000a900460ff161515151581526020016005820160019054906101000a900460ff161515151581526020016005820160029054906101000a900460ff16151515158152505083838151811061052757610526611e1e565b5b6020026020010181905250818061053d90611da6565b9250505b808061054c90611da6565b915050610304565b508194505050505090565b6060600061056d6002611592565b90506000805b8281101561064b573373ffffffffffffffffffffffffffffffffffffffff16600660006001846105a39190611c8c565b815260200190815260200160002060020160009054906101000a900473ffffffffffffffffffffffffffffffffffffffff1673ffffffffffffffffffffffffffffffffffffffff161480156106245750600660006001836106049190611c8c565b815260200190815260200160002060050160029054906101000a900460ff165b1561063857818061063490611da6565b9250505b808061064390611da6565b915050610573565b5060008167ffffffffffffffff81111561066857610667611e4d565b5b6040519080825280602002602001820160405280156106a157816020015b61068e611612565b8152602001906001900390816106865790505b5090506000805b84811015610930573373ffffffffffffffffffffffffffffffffffffffff16600660006001846106d89190611c8c565b815260200190815260200160002060020160009054906101000a900473ffffffffffffffffffffffffffffffffffffffff1673ffffffffffffffffffffffffffffffffffffffff161480156107595750600660006001836107399190611c8c565b815260200190815260200160002060050160029054906101000a900460ff165b1561091d576006600060018361076f9190611c8c565b8152602001908152602001600020604051806101000160405290816000820160009054906101000a900473ffffffffffffffffffffffffffffffffffffffff1673ffffffffffffffffffffffffffffffffffffffff1673ffffffffffffffffffffffffffffffffffffffff168152602001600182015481526020016002820160009054906101000a900473ffffffffffffffffffffffffffffffffffffffff1673ffffffffffffffffffffffffffffffffffffffff1673ffffffffffffffffffffffffffffffffffffffff1681526020016003820160009054906101000a900473ffffffffffffffffffffffffffffffffffffffff1673ffffffffffffffffffffffffffffffffffffffff1673ffffffffffffffffffffffffffffffffffffffff168152602001600482015481526020016005820160009054906101000a900460ff161515151581526020016005820160019054906101000a900460ff161515151581526020016005820160029054906101000a900460ff16151515158152505083838151811061090357610902611e1e565b5b6020026020010181905250818061091990611da6565b9250505b808061092890611da6565b9150506106a8565b508194505050505090565b60035481565b60026000541415610987576040517f08c379a000000000000000000000000000000000000000000000000000000000815260040161097e90611be7565b60405180910390fd5b6002600081905550600083116109d2576040517f08c379a00000000000000000000000000000000000000000000000000000000081526004016109c990611c07565b60405180910390fd5b6003543414610a16576040517f08c379a0000000000000000000000000000000000000000000000000000000008152600401610a0d90611bc7565b60405180910390fd5b8473ffffffffffffffffffffffffffffffffffffffff166323b872dd3330876040518463ffffffff1660e01b8152600401610a5393929190611a50565b600060405180830381600087803b158015610a6d57600080fd5b505af1158015610a81573d6000803e3d6000fd5b50505050610a8f60026115a0565b6040518061010001604052808673ffffffffffffffffffffffffffffffffffffffff1681526020018581526020013373ffffffffffffffffffffffffffffffffffffffff1681526020013073ffffffffffffffffffffffffffffffffffffffff16815260200184815260200183151581526020018215158152602001600115158152506006600086815260200190815260200160002060008201518160000160006101000a81548173ffffffffffffffffffffffffffffffffffffffff021916908373ffffffffffffffffffffffffffffffffffffffff1602179055506020820151816001015560408201518160020160006101000a81548173ffffffffffffffffffffffffffffffffffffffff021916908373ffffffffffffffffffffffffffffffffffffffff16021790555060608201518160030160006101000a81548173ffffffffffffffffffffffffffffffffffffffff021916908373ffffffffffffffffffffffffffffffffffffffff1602179055506080820151816004015560a08201518160050160006101000a81548160ff02191690831515021790555060c08201518160050160016101000a81548160ff02191690831515021790555060e08201518160050160026101000a81548160ff0219169083151502179055509050507ffe39ca4f5d58a07d8b589986fd77ff12272e3c3e03885e48d32964f5a9b8a4e885853330878787604051610cac9796959493929190611af6565b60405180910390a160016000819055505050505050565b60026000541415610d09576040517f08c379a0000000000000000000000000000000000000000000000000000000008152600401610d0090611be7565b60405180910390fd5b600260008190555060006006600083815260200190815260200160002090508060040154341015610d6f576040517f08c379a0000000000000000000000000000000000000000000000000000000008152600401610d6690611ba7565b60405180910390fd5b60003390508160020160009054906101000a900473ffffffffffffffffffffffffffffffffffffffff1673ffffffffffffffffffffffffffffffffffffffff166108fc349081150290604051600060405180830381858888f19350505050158015610dde573d6000803e3d6000fd5b508373ffffffffffffffffffffffffffffffffffffffff166323b872dd308385600101546040518463ffffffff1660e01b8152600401610e2093929190611a19565b600060405180830381600087803b158015610e3a57600080fd5b505af1158015610e4e573d6000803e3d6000fd5b50505050600560009054906101000a900473ffffffffffffffffffffffffffffffffffffffff1673ffffffffffffffffffffffffffffffffffffffff166108fc6003549081150290604051600060405180830381858888f19350505050158015610ebc573d6000803e3d6000fd5b50808260030160006101000a81548173ffffffffffffffffffffffffffffffffffffffff021916908373ffffffffffffffffffffffffffffffffffffffff16021790555060008260050160026101000a81548160ff021916908315150217905550610f2760016115a0565b7fcc36e356476d207fc81ef74c18d91c21c08d4e0050d5cdc9dff6f5d564b7f4468483600101548460020160009054906101000a900473ffffffffffffffffffffffffffffffffffffffff1684348760050160009054906101000a900460ff168860050160019054906101000a900460ff16604051610fac9796959493929190611a87565b60405180910390a1505060016000819055505050565b60606000610fd06002611592565b90506000610fde6001611592565b82610fe99190611ce2565b905060008167ffffffffffffffff81111561100757611006611e4d565b5b60405190808252806020026020018201604052801561104057816020015b61102d611612565b8152602001906001900390816110255790505b5090506000805b848110156112d857600660006001836110609190611c8c565b815260200190815260200160002060050160029054906101000a900460ff1680156110c057508715806110bf57506006600060018361109f9190611c8c565b815260200190815260200160002060050160009054906101000a900460ff165b5b801561110157508615806111005750600660006001836110e09190611c8c565b815260200190815260200160002060050160019054906101000a900460ff165b5b156112c557600660006001836111179190611c8c565b8152602001908152602001600020604051806101000160405290816000820160009054906101000a900473ffffffffffffffffffffffffffffffffffffffff1673ffffffffffffffffffffffffffffffffffffffff1673ffffffffffffffffffffffffffffffffffffffff168152602001600182015481526020016002820160009054906101000a900473ffffffffffffffffffffffffffffffffffffffff1673ffffffffffffffffffffffffffffffffffffffff1673ffffffffffffffffffffffffffffffffffffffff1681526020016003820160009054906101000a900473ffffffffffffffffffffffffffffffffffffffff1673ffffffffffffffffffffffffffffffffffffffff1673ffffffffffffffffffffffffffffffffffffffff168152602001600482015481526020016005820160009054906101000a900460ff161515151581526020016005820160019054906101000a900460ff161515151581526020016005820160029054906101000a900460ff1615151515815250508383815181106112ab576112aa611e1e565b5b602002602001018190525081806112c190611da6565b9250505b80806112d090611da6565b915050611047565b508194505050505092915050565b6000600354905090565b60045481565b6002600054141561133c576040517f08c379a000000000000000000000000000000000000000000000000000000000815260040161133390611be7565b60405180910390fd5b600260008190555060008311611387576040517f08c379a000000000000000000000000000000000000000000000000000000000815260040161137e90611c07565b60405180910390fd5b60035434146113cb576040517f08c379a00000000000000000000000000000000000000000000000000000000081526004016113c290611bc7565b60405180910390fd5b8473ffffffffffffffffffffffffffffffffffffffff166323b872dd3330876040518463ffffffff1660e01b815260040161140893929190611a50565b600060405180830381600087803b15801561142257600080fd5b505af1158015611436573d6000803e3d6000fd5b505050506000600660008681526020019081526020016000209050338160020160006101000a81548173ffffffffffffffffffffffffffffffffffffffff021916908373ffffffffffffffffffffffffffffffffffffffff160217905550308160030160006101000a81548173ffffffffffffffffffffffffffffffffffffffff021916908373ffffffffffffffffffffffffffffffffffffffff16021790555060018160050160026101000a81548160ff021916908315150217905550838160040181905550828160050160006101000a81548160ff021916908315150217905550818160050160016101000a81548160ff02191690831515021790555061153f60016115b6565b7ffe39ca4f5d58a07d8b589986fd77ff12272e3c3e03885e48d32964f5a9b8a4e88686333088888860405161157a9796959493929190611af6565b60405180910390a15060016000819055505050505050565b600081600001549050919050565b6001816000016000828254019250508190555050565b60008160000154905060008111611602576040517f08c379a00000000000000000000000000000000000000000000000000000000081526004016115f990611b87565b60405180910390fd5b6001810382600001819055505050565b604051806101000160405280600073ffffffffffffffffffffffffffffffffffffffff16815260200160008152602001600073ffffffffffffffffffffffffffffffffffffffff168152602001600073ffffffffffffffffffffffffffffffffffffffff168152602001600081526020016000151581526020016000151581526020016000151581525090565b6000813590506116ae81611f74565b92915050565b6000813590506116c381611f8b565b92915050565b6000813590506116d881611fa2565b92915050565b600080604083850312156116f5576116f4611e7c565b5b60006117038582860161169f565b9250506020611714858286016116c9565b9150509250929050565b600080600080600060a0868803121561173a57611739611e7c565b5b60006117488882890161169f565b9550506020611759888289016116c9565b945050604061176a888289016116c9565b935050606061177b888289016116b4565b925050608061178c888289016116b4565b9150509295509295909350565b600080604083850312156117b0576117af611e7c565b5b60006117be858286016116b4565b92505060206117cf858286016116b4565b9150509250929050565b60006117e58383611959565b6101008301905092915050565b6117fb81611d70565b82525050565b61180a81611d28565b82525050565b61181981611d16565b82525050565b61182881611d16565b82525050565b600061183982611c52565b6118438185611c6a565b935061184e83611c42565b8060005b8381101561187f57815161186688826117d9565b975061187183611c5d565b925050600181019050611852565b5085935050505092915050565b61189581611d3a565b82525050565b6118a481611d3a565b82525050565b60006118b7601b83611c7b565b91506118c282611e81565b602082019050919050565b60006118da602683611c7b565b91506118e582611eaa565b604082019050919050565b60006118fd602083611c7b565b915061190882611ef9565b602082019050919050565b6000611920601f83611c7b565b915061192b82611f22565b602082019050919050565b6000611943601c83611c7b565b915061194e82611f4b565b602082019050919050565b610100820160008201516119706000850182611810565b50602082015161198360208501826119fb565b5060408201516119966040850182611801565b5060608201516119a96060850182611801565b5060808201516119bc60808501826119fb565b5060a08201516119cf60a085018261188c565b5060c08201516119e260c085018261188c565b5060e08201516119f560e085018261188c565b50505050565b611a0481611d66565b82525050565b611a1381611d66565b82525050565b6000606082019050611a2e600083018661181f565b611a3b60208301856117f2565b611a486040830184611a0a565b949350505050565b6000606082019050611a65600083018661181f565b611a72602083018561181f565b611a7f6040830184611a0a565b949350505050565b600060e082019050611a9c600083018a61181f565b611aa96020830189611a0a565b611ab660408301886117f2565b611ac360608301876117f2565b611ad06080830186611a0a565b611add60a083018561189b565b611aea60c083018461189b565b98975050505050505050565b600060e082019050611b0b600083018a61181f565b611b186020830189611a0a565b611b25604083018861181f565b611b32606083018761181f565b611b3f6080830186611a0a565b611b4c60a083018561189b565b611b5960c083018461189b565b98975050505050505050565b60006020820190508181036000830152611b7f818461182e565b905092915050565b60006020820190508181036000830152611ba0816118aa565b9050919050565b60006020820190508181036000830152611bc0816118cd565b9050919050565b60006020820190508181036000830152611be0816118f0565b9050919050565b60006020820190508181036000830152611c0081611913565b9050919050565b60006020820190508181036000830152611c2081611936565b9050919050565b6000602082019050611c3c6000830184611a0a565b92915050565b6000819050602082019050919050565b600081519050919050565b6000602082019050919050565b600082825260208201905092915050565b600082825260208201905092915050565b6000611c9782611d66565b9150611ca283611d66565b9250827fffffffffffffffffffffffffffffffffffffffffffffffffffffffffffffffff03821115611cd757611cd6611def565b5b828201905092915050565b6000611ced82611d66565b9150611cf883611d66565b925082821015611d0b57611d0a611def565b5b828203905092915050565b6000611d2182611d46565b9050919050565b6000611d3382611d46565b9050919050565b60008115159050919050565b600073ffffffffffffffffffffffffffffffffffffffff82169050919050565b6000819050919050565b6000611d7b82611d82565b9050919050565b6000611d8d82611d94565b9050919050565b6000611d9f82611d46565b9050919050565b6000611db182611d66565b91507fffffffffffffffffffffffffffffffffffffffffffffffffffffffffffffffff821415611de457611de3611def565b5b600182019050919050565b7f4e487b7100000000000000000000000000000000000000000000000000000000600052601160045260246000fd5b7f4e487b7100000000000000000000000000000000000000000000000000000000600052603260045260246000fd5b7f4e487b7100000000000000000000000000000000000000000000000000000000600052604160045260246000fd5b600080fd5b7f436f756e7465723a2064656372656d656e74206f766572666c6f770000000000600082015250565b7f4e6f7420656e6f75676820657468657220746f20636f7665722061736b696e6760008201527f2070726963650000000000000000000000000000000000000000000000000000602082015250565b7f4e6f7420656e6f75676820657468657220666f72206c697374696e6720666565600082015250565b7f5265656e7472616e637947756172643a207265656e7472616e742063616c6c00600082015250565b7f5072696365206d757374206265206174206c6561737420312077656900000000600082015250565b611f7d81611d16565b8114611f8857600080fd5b50565b611f9481611d3a565b8114611f9f57600080fd5b50565b611fab81611d66565b8114611fb657600080fd5b5056fea26469706673582212208d8ca429583b4b809243ee6504fc56fe628fa843c259a7f87100e98f1529dd1b64736f6c63430008070033",
					"opcodes": "PUSH1 0x80 PUSH1 0x40 MSTORE PUSH7 0x38D7EA4C68000 PUSH1 0x3 SSTORE PUSH1 0xC8 PUSH1 0x4 SSTORE CALLVALUE DUP1 ISZERO PUSH2 0x20 JUMPI PUSH1 0x0 DUP1 REVERT JUMPDEST POP PUSH1 0x1 PUSH1 0x0 DUP2 SWAP1 SSTORE POP CALLER PUSH1 0x5 PUSH1 0x0 PUSH2 0x100 EXP DUP2 SLOAD DUP2 PUSH20 0xFFFFFFFFFFFFFFFFFFFFFFFFFFFFFFFFFFFFFFFF MUL NOT AND SWAP1 DUP4 PUSH20 0xFFFFFFFFFFFFFFFFFFFFFFFFFFFFFFFFFFFFFFFF AND MUL OR SWAP1 SSTORE POP PUSH2 0x1FEF DUP1 PUSH2 0x79 PUSH1 0x0 CODECOPY PUSH1 0x0 RETURN INVALID PUSH1 0x80 PUSH1 0x40 MSTORE PUSH1 0x4 CALLDATASIZE LT PUSH2 0x86 JUMPI PUSH1 0x0 CALLDATALOAD PUSH1 0xE0 SHR DUP1 PUSH4 0x4DDF4F8F GT PUSH2 0x59 JUMPI DUP1 PUSH4 0x4DDF4F8F EQ PUSH2 0x128 JUMPI DUP1 PUSH4 0x81372A9B EQ PUSH2 0x144 JUMPI DUP1 PUSH4 0xB8FE6ABE EQ PUSH2 0x181 JUMPI DUP1 PUSH4 0xCDC66B2C EQ PUSH2 0x1AC JUMPI DUP1 PUSH4 0xF5860220 EQ PUSH2 0x1D7 JUMPI PUSH2 0x86 JUMP JUMPDEST DUP1 PUSH4 0x47B07BF EQ PUSH2 0x8B JUMPI DUP1 PUSH4 0x1F4CC4DB EQ PUSH2 0xB6 JUMPI DUP1 PUSH4 0x2B86AE38 EQ PUSH2 0xE1 JUMPI DUP1 PUSH4 0x33431C0A EQ PUSH2 0x10C JUMPI JUMPDEST PUSH1 0x0 DUP1 REVERT JUMPDEST CALLVALUE DUP1 ISZERO PUSH2 0x97 JUMPI PUSH1 0x0 DUP1 REVERT JUMPDEST POP PUSH2 0xA0 PUSH2 0x1F3 JUMP JUMPDEST PUSH1 0x40 MLOAD PUSH2 0xAD SWAP2 SWAP1 PUSH2 0x1B65 JUMP JUMPDEST PUSH1 0x40 MLOAD DUP1 SWAP2 SUB SWAP1 RETURN JUMPDEST CALLVALUE DUP1 ISZERO PUSH2 0xC2 JUMPI PUSH1 0x0 DUP1 REVERT JUMPDEST POP PUSH2 0xCB PUSH2 0x55F JUMP JUMPDEST PUSH1 0x40 MLOAD PUSH2 0xD8 SWAP2 SWAP1 PUSH2 0x1B65 JUMP JUMPDEST PUSH1 0x40 MLOAD DUP1 SWAP2 SUB SWAP1 RETURN JUMPDEST CALLVALUE DUP1 ISZERO PUSH2 0xED JUMPI PUSH1 0x0 DUP1 REVERT JUMPDEST POP PUSH2 0xF6 PUSH2 0x93B JUMP JUMPDEST PUSH1 0x40 MLOAD PUSH2 0x103 SWAP2 SWAP1 PUSH2 0x1C27 JUMP JUMPDEST PUSH1 0x40 MLOAD DUP1 SWAP2 SUB SWAP1 RETURN JUMPDEST PUSH2 0x126 PUSH1 0x4 DUP1 CALLDATASIZE SUB DUP2 ADD SWAP1 PUSH2 0x121 SWAP2 SWAP1 PUSH2 0x171E JUMP JUMPDEST PUSH2 0x941 JUMP JUMPDEST STOP JUMPDEST PUSH2 0x142 PUSH1 0x4 DUP1 CALLDATASIZE SUB DUP2 ADD SWAP1 PUSH2 0x13D SWAP2 SWAP1 PUSH2 0x16DE JUMP JUMPDEST PUSH2 0xCC3 JUMP JUMPDEST STOP JUMPDEST CALLVALUE DUP1 ISZERO PUSH2 0x150 JUMPI PUSH1 0x0 DUP1 REVERT JUMPDEST POP PUSH2 0x16B PUSH1 0x4 DUP1 CALLDATASIZE SUB DUP2 ADD SWAP1 PUSH2 0x166 SWAP2 SWAP1 PUSH2 0x1799 JUMP JUMPDEST PUSH2 0xFC2 JUMP JUMPDEST PUSH1 0x40 MLOAD PUSH2 0x178 SWAP2 SWAP1 PUSH2 0x1B65 JUMP JUMPDEST PUSH1 0x40 MLOAD DUP1 SWAP2 SUB SWAP1 RETURN JUMPDEST CALLVALUE DUP1 ISZERO PUSH2 0x18D JUMPI PUSH1 0x0 DUP1 REVERT JUMPDEST POP PUSH2 0x196 PUSH2 0x12E6 JUMP JUMPDEST PUSH1 0x40 MLOAD PUSH2 0x1A3 SWAP2 SWAP1 PUSH2 0x1C27 JUMP JUMPDEST PUSH1 0x40 MLOAD DUP1 SWAP2 SUB SWAP1 RETURN JUMPDEST CALLVALUE DUP1 ISZERO PUSH2 0x1B8 JUMPI PUSH1 0x0 DUP1 REVERT JUMPDEST POP PUSH2 0x1C1 PUSH2 0x12F0 JUMP JUMPDEST PUSH1 0x40 MLOAD PUSH2 0x1CE SWAP2 SWAP1 PUSH2 0x1C27 JUMP JUMPDEST PUSH1 0x40 MLOAD DUP1 SWAP2 SUB SWAP1 RETURN JUMPDEST PUSH2 0x1F1 PUSH1 0x4 DUP1 CALLDATASIZE SUB DUP2 ADD SWAP1 PUSH2 0x1EC SWAP2 SWAP1 PUSH2 0x171E JUMP JUMPDEST PUSH2 0x12F6 JUMP JUMPDEST STOP JUMPDEST PUSH1 0x60 PUSH1 0x0 PUSH2 0x201 PUSH1 0x2 PUSH2 0x1592 JUMP JUMPDEST SWAP1 POP PUSH1 0x0 DUP1 JUMPDEST DUP3 DUP2 LT ISZERO PUSH2 0x2A7 JUMPI CALLER PUSH20 0xFFFFFFFFFFFFFFFFFFFFFFFFFFFFFFFFFFFFFFFF AND PUSH1 0x6 PUSH1 0x0 PUSH1 0x1 DUP5 PUSH2 0x237 SWAP2 SWAP1 PUSH2 0x1C8C JUMP JUMPDEST DUP2 MSTORE PUSH1 0x20 ADD SWAP1 DUP2 MSTORE PUSH1 0x20 ADD PUSH1 0x0 KECCAK256 PUSH1 0x3 ADD PUSH1 0x0 SWAP1 SLOAD SWAP1 PUSH2 0x100 EXP SWAP1 DIV PUSH20 0xFFFFFFFFFFFFFFFFFFFFFFFFFFFFFFFFFFFFFFFF AND PUSH20 0xFFFFFFFFFFFFFFFFFFFFFFFFFFFFFFFFFFFFFFFF AND EQ ISZERO PUSH2 0x294 JUMPI DUP2 DUP1 PUSH2 0x290 SWAP1 PUSH2 0x1DA6 JUMP JUMPDEST SWAP3 POP POP JUMPDEST DUP1 DUP1 PUSH2 0x29F SWAP1 PUSH2 0x1DA6 JUMP JUMPDEST SWAP2 POP POP PUSH2 0x207 JUMP JUMPDEST POP PUSH1 0x0 DUP2 PUSH8 0xFFFFFFFFFFFFFFFF DUP2 GT ISZERO PUSH2 0x2C4 JUMPI PUSH2 0x2C3 PUSH2 0x1E4D JUMP JUMPDEST JUMPDEST PUSH1 0x40 MLOAD SWAP1 DUP1 DUP3 MSTORE DUP1 PUSH1 0x20 MUL PUSH1 0x20 ADD DUP3 ADD PUSH1 0x40 MSTORE DUP1 ISZERO PUSH2 0x2FD JUMPI DUP2 PUSH1 0x20 ADD JUMPDEST PUSH2 0x2EA PUSH2 0x1612 JUMP JUMPDEST DUP2 MSTORE PUSH1 0x20 ADD SWAP1 PUSH1 0x1 SWAP1 SUB SWAP1 DUP2 PUSH2 0x2E2 JUMPI SWAP1 POP JUMPDEST POP SWAP1 POP PUSH1 0x0 DUP1 JUMPDEST DUP5 DUP2 LT ISZERO PUSH2 0x554 JUMPI CALLER PUSH20 0xFFFFFFFFFFFFFFFFFFFFFFFFFFFFFFFFFFFFFFFF AND PUSH1 0x6 PUSH1 0x0 PUSH1 0x1 DUP5 PUSH2 0x334 SWAP2 SWAP1 PUSH2 0x1C8C JUMP JUMPDEST DUP2 MSTORE PUSH1 0x20 ADD SWAP1 DUP2 MSTORE PUSH1 0x20 ADD PUSH1 0x0 KECCAK256 PUSH1 0x3 ADD PUSH1 0x0 SWAP1 SLOAD SWAP1 PUSH2 0x100 EXP SWAP1 DIV PUSH20 0xFFFFFFFFFFFFFFFFFFFFFFFFFFFFFFFFFFFFFFFF AND PUSH20 0xFFFFFFFFFFFFFFFFFFFFFFFFFFFFFFFFFFFFFFFF AND EQ ISZERO PUSH2 0x541 JUMPI PUSH1 0x6 PUSH1 0x0 PUSH1 0x1 DUP4 PUSH2 0x393 SWAP2 SWAP1 PUSH2 0x1C8C JUMP JUMPDEST DUP2 MSTORE PUSH1 0x20 ADD SWAP1 DUP2 MSTORE PUSH1 0x20 ADD PUSH1 0x0 KECCAK256 PUSH1 0x40 MLOAD DUP1 PUSH2 0x100 ADD PUSH1 0x40 MSTORE SWAP1 DUP2 PUSH1 0x0 DUP3 ADD PUSH1 0x0 SWAP1 SLOAD SWAP1 PUSH2 0x100 EXP SWAP1 DIV PUSH20 0xFFFFFFFFFFFFFFFFFFFFFFFFFFFFFFFFFFFFFFFF AND PUSH20 0xFFFFFFFFFFFFFFFFFFFFFFFFFFFFFFFFFFFFFFFF AND PUSH20 0xFFFFFFFFFFFFFFFFFFFFFFFFFFFFFFFFFFFFFFFF AND DUP2 MSTORE PUSH1 0x20 ADD PUSH1 0x1 DUP3 ADD SLOAD DUP2 MSTORE PUSH1 0x20 ADD PUSH1 0x2 DUP3 ADD PUSH1 0x0 SWAP1 SLOAD SWAP1 PUSH2 0x100 EXP SWAP1 DIV PUSH20 0xFFFFFFFFFFFFFFFFFFFFFFFFFFFFFFFFFFFFFFFF AND PUSH20 0xFFFFFFFFFFFFFFFFFFFFFFFFFFFFFFFFFFFFFFFF AND PUSH20 0xFFFFFFFFFFFFFFFFFFFFFFFFFFFFFFFFFFFFFFFF AND DUP2 MSTORE PUSH1 0x20 ADD PUSH1 0x3 DUP3 ADD PUSH1 0x0 SWAP1 SLOAD SWAP1 PUSH2 0x100 EXP SWAP1 DIV PUSH20 0xFFFFFFFFFFFFFFFFFFFFFFFFFFFFFFFFFFFFFFFF AND PUSH20 0xFFFFFFFFFFFFFFFFFFFFFFFFFFFFFFFFFFFFFFFF AND PUSH20 0xFFFFFFFFFFFFFFFFFFFFFFFFFFFFFFFFFFFFFFFF AND DUP2 MSTORE PUSH1 0x20 ADD PUSH1 0x4 DUP3 ADD SLOAD DUP2 MSTORE PUSH1 0x20 ADD PUSH1 0x5 DUP3 ADD PUSH1 0x0 SWAP1 SLOAD SWAP1 PUSH2 0x100 EXP SWAP1 DIV PUSH1 0xFF AND ISZERO ISZERO ISZERO ISZERO DUP2 MSTORE PUSH1 0x20 ADD PUSH1 0x5 DUP3 ADD PUSH1 0x1 SWAP1 SLOAD SWAP1 PUSH2 0x100 EXP SWAP1 DIV PUSH1 0xFF AND ISZERO ISZERO ISZERO ISZERO DUP2 MSTORE PUSH1 0x20 ADD PUSH1 0x5 DUP3 ADD PUSH1 0x2 SWAP1 SLOAD SWAP1 PUSH2 0x100 EXP SWAP1 DIV PUSH1 0xFF AND ISZERO ISZERO ISZERO ISZERO DUP2 MSTORE POP POP DUP4 DUP4 DUP2 MLOAD DUP2 LT PUSH2 0x527 JUMPI PUSH2 0x526 PUSH2 0x1E1E JUMP JUMPDEST JUMPDEST PUSH1 0x20 MUL PUSH1 0x20 ADD ADD DUP2 SWAP1 MSTORE POP DUP2 DUP1 PUSH2 0x53D SWAP1 PUSH2 0x1DA6 JUMP JUMPDEST SWAP3 POP POP JUMPDEST DUP1 DUP1 PUSH2 0x54C SWAP1 PUSH2 0x1DA6 JUMP JUMPDEST SWAP2 POP POP PUSH2 0x304 JUMP JUMPDEST POP DUP2 SWAP5 POP POP POP POP POP SWAP1 JUMP JUMPDEST PUSH1 0x60 PUSH1 0x0 PUSH2 0x56D PUSH1 0x2 PUSH2 0x1592 JUMP JUMPDEST SWAP1 POP PUSH1 0x0 DUP1 JUMPDEST DUP3 DUP2 LT ISZERO PUSH2 0x64B JUMPI CALLER PUSH20 0xFFFFFFFFFFFFFFFFFFFFFFFFFFFFFFFFFFFFFFFF AND PUSH1 0x6 PUSH1 0x0 PUSH1 0x1 DUP5 PUSH2 0x5A3 SWAP2 SWAP1 PUSH2 0x1C8C JUMP JUMPDEST DUP2 MSTORE PUSH1 0x20 ADD SWAP1 DUP2 MSTORE PUSH1 0x20 ADD PUSH1 0x0 KECCAK256 PUSH1 0x2 ADD PUSH1 0x0 SWAP1 SLOAD SWAP1 PUSH2 0x100 EXP SWAP1 DIV PUSH20 0xFFFFFFFFFFFFFFFFFFFFFFFFFFFFFFFFFFFFFFFF AND PUSH20 0xFFFFFFFFFFFFFFFFFFFFFFFFFFFFFFFFFFFFFFFF AND EQ DUP1 ISZERO PUSH2 0x624 JUMPI POP PUSH1 0x6 PUSH1 0x0 PUSH1 0x1 DUP4 PUSH2 0x604 SWAP2 SWAP1 PUSH2 0x1C8C JUMP JUMPDEST DUP2 MSTORE PUSH1 0x20 ADD SWAP1 DUP2 MSTORE PUSH1 0x20 ADD PUSH1 0x0 KECCAK256 PUSH1 0x5 ADD PUSH1 0x2 SWAP1 SLOAD SWAP1 PUSH2 0x100 EXP SWAP1 DIV PUSH1 0xFF AND JUMPDEST ISZERO PUSH2 0x638 JUMPI DUP2 DUP1 PUSH2 0x634 SWAP1 PUSH2 0x1DA6 JUMP JUMPDEST SWAP3 POP POP JUMPDEST DUP1 DUP1 PUSH2 0x643 SWAP1 PUSH2 0x1DA6 JUMP JUMPDEST SWAP2 POP POP PUSH2 0x573 JUMP JUMPDEST POP PUSH1 0x0 DUP2 PUSH8 0xFFFFFFFFFFFFFFFF DUP2 GT ISZERO PUSH2 0x668 JUMPI PUSH2 0x667 PUSH2 0x1E4D JUMP JUMPDEST JUMPDEST PUSH1 0x40 MLOAD SWAP1 DUP1 DUP3 MSTORE DUP1 PUSH1 0x20 MUL PUSH1 0x20 ADD DUP3 ADD PUSH1 0x40 MSTORE DUP1 ISZERO PUSH2 0x6A1 JUMPI DUP2 PUSH1 0x20 ADD JUMPDEST PUSH2 0x68E PUSH2 0x1612 JUMP JUMPDEST DUP2 MSTORE PUSH1 0x20 ADD SWAP1 PUSH1 0x1 SWAP1 SUB SWAP1 DUP2 PUSH2 0x686 JUMPI SWAP1 POP JUMPDEST POP SWAP1 POP PUSH1 0x0 DUP1 JUMPDEST DUP5 DUP2 LT ISZERO PUSH2 0x930 JUMPI CALLER PUSH20 0xFFFFFFFFFFFFFFFFFFFFFFFFFFFFFFFFFFFFFFFF AND PUSH1 0x6 PUSH1 0x0 PUSH1 0x1 DUP5 PUSH2 0x6D8 SWAP2 SWAP1 PUSH2 0x1C8C JUMP JUMPDEST DUP2 MSTORE PUSH1 0x20 ADD SWAP1 DUP2 MSTORE PUSH1 0x20 ADD PUSH1 0x0 KECCAK256 PUSH1 0x2 ADD PUSH1 0x0 SWAP1 SLOAD SWAP1 PUSH2 0x100 EXP SWAP1 DIV PUSH20 0xFFFFFFFFFFFFFFFFFFFFFFFFFFFFFFFFFFFFFFFF AND PUSH20 0xFFFFFFFFFFFFFFFFFFFFFFFFFFFFFFFFFFFFFFFF AND EQ DUP1 ISZERO PUSH2 0x759 JUMPI POP PUSH1 0x6 PUSH1 0x0 PUSH1 0x1 DUP4 PUSH2 0x739 SWAP2 SWAP1 PUSH2 0x1C8C JUMP JUMPDEST DUP2 MSTORE PUSH1 0x20 ADD SWAP1 DUP2 MSTORE PUSH1 0x20 ADD PUSH1 0x0 KECCAK256 PUSH1 0x5 ADD PUSH1 0x2 SWAP1 SLOAD SWAP1 PUSH2 0x100 EXP SWAP1 DIV PUSH1 0xFF AND JUMPDEST ISZERO PUSH2 0x91D JUMPI PUSH1 0x6 PUSH1 0x0 PUSH1 0x1 DUP4 PUSH2 0x76F SWAP2 SWAP1 PUSH2 0x1C8C JUMP JUMPDEST DUP2 MSTORE PUSH1 0x20 ADD SWAP1 DUP2 MSTORE PUSH1 0x20 ADD PUSH1 0x0 KECCAK256 PUSH1 0x40 MLOAD DUP1 PUSH2 0x100 ADD PUSH1 0x40 MSTORE SWAP1 DUP2 PUSH1 0x0 DUP3 ADD PUSH1 0x0 SWAP1 SLOAD SWAP1 PUSH2 0x100 EXP SWAP1 DIV PUSH20 0xFFFFFFFFFFFFFFFFFFFFFFFFFFFFFFFFFFFFFFFF AND PUSH20 0xFFFFFFFFFFFFFFFFFFFFFFFFFFFFFFFFFFFFFFFF AND PUSH20 0xFFFFFFFFFFFFFFFFFFFFFFFFFFFFFFFFFFFFFFFF AND DUP2 MSTORE PUSH1 0x20 ADD PUSH1 0x1 DUP3 ADD SLOAD DUP2 MSTORE PUSH1 0x20 ADD PUSH1 0x2 DUP3 ADD PUSH1 0x0 SWAP1 SLOAD SWAP1 PUSH2 0x100 EXP SWAP1 DIV PUSH20 0xFFFFFFFFFFFFFFFFFFFFFFFFFFFFFFFFFFFFFFFF AND PUSH20 0xFFFFFFFFFFFFFFFFFFFFFFFFFFFFFFFFFFFFFFFF AND PUSH20 0xFFFFFFFFFFFFFFFFFFFFFFFFFFFFFFFFFFFFFFFF AND DUP2 MSTORE PUSH1 0x20 ADD PUSH1 0x3 DUP3 ADD PUSH1 0x0 SWAP1 SLOAD SWAP1 PUSH2 0x100 EXP SWAP1 DIV PUSH20 0xFFFFFFFFFFFFFFFFFFFFFFFFFFFFFFFFFFFFFFFF AND PUSH20 0xFFFFFFFFFFFFFFFFFFFFFFFFFFFFFFFFFFFFFFFF AND PUSH20 0xFFFFFFFFFFFFFFFFFFFFFFFFFFFFFFFFFFFFFFFF AND DUP2 MSTORE PUSH1 0x20 ADD PUSH1 0x4 DUP3 ADD SLOAD DUP2 MSTORE PUSH1 0x20 ADD PUSH1 0x5 DUP3 ADD PUSH1 0x0 SWAP1 SLOAD SWAP1 PUSH2 0x100 EXP SWAP1 DIV PUSH1 0xFF AND ISZERO ISZERO ISZERO ISZERO DUP2 MSTORE PUSH1 0x20 ADD PUSH1 0x5 DUP3 ADD PUSH1 0x1 SWAP1 SLOAD SWAP1 PUSH2 0x100 EXP SWAP1 DIV PUSH1 0xFF AND ISZERO ISZERO ISZERO ISZERO DUP2 MSTORE PUSH1 0x20 ADD PUSH1 0x5 DUP3 ADD PUSH1 0x2 SWAP1 SLOAD SWAP1 PUSH2 0x100 EXP SWAP1 DIV PUSH1 0xFF AND ISZERO ISZERO ISZERO ISZERO DUP2 MSTORE POP POP DUP4 DUP4 DUP2 MLOAD DUP2 LT PUSH2 0x903 JUMPI PUSH2 0x902 PUSH2 0x1E1E JUMP JUMPDEST JUMPDEST PUSH1 0x20 MUL PUSH1 0x20 ADD ADD DUP2 SWAP1 MSTORE POP DUP2 DUP1 PUSH2 0x919 SWAP1 PUSH2 0x1DA6 JUMP JUMPDEST SWAP3 POP POP JUMPDEST DUP1 DUP1 PUSH2 0x928 SWAP1 PUSH2 0x1DA6 JUMP JUMPDEST SWAP2 POP POP PUSH2 0x6A8 JUMP JUMPDEST POP DUP2 SWAP5 POP POP POP POP POP SWAP1 JUMP JUMPDEST PUSH1 0x3 SLOAD DUP2 JUMP JUMPDEST PUSH1 0x2 PUSH1 0x0 SLOAD EQ ISZERO PUSH2 0x987 JUMPI PUSH1 0x40 MLOAD PUSH32 0x8C379A000000000000000000000000000000000000000000000000000000000 DUP2 MSTORE PUSH1 0x4 ADD PUSH2 0x97E SWAP1 PUSH2 0x1BE7 JUMP JUMPDEST PUSH1 0x40 MLOAD DUP1 SWAP2 SUB SWAP1 REVERT JUMPDEST PUSH1 0x2 PUSH1 0x0 DUP2 SWAP1 SSTORE POP PUSH1 0x0 DUP4 GT PUSH2 0x9D2 JUMPI PUSH1 0x40 MLOAD PUSH32 0x8C379A000000000000000000000000000000000000000000000000000000000 DUP2 MSTORE PUSH1 0x4 ADD PUSH2 0x9C9 SWAP1 PUSH2 0x1C07 JUMP JUMPDEST PUSH1 0x40 MLOAD DUP1 SWAP2 SUB SWAP1 REVERT JUMPDEST PUSH1 0x3 SLOAD CALLVALUE EQ PUSH2 0xA16 JUMPI PUSH1 0x40 MLOAD PUSH32 0x8C379A000000000000000000000000000000000000000000000000000000000 DUP2 MSTORE PUSH1 0x4 ADD PUSH2 0xA0D SWAP1 PUSH2 0x1BC7 JUMP JUMPDEST PUSH1 0x40 MLOAD DUP1 SWAP2 SUB SWAP1 REVERT JUMPDEST DUP5 PUSH20 0xFFFFFFFFFFFFFFFFFFFFFFFFFFFFFFFFFFFFFFFF AND PUSH4 0x23B872DD CALLER ADDRESS DUP8 PUSH1 0x40 MLOAD DUP5 PUSH4 0xFFFFFFFF AND PUSH1 0xE0 SHL DUP2 MSTORE PUSH1 0x4 ADD PUSH2 0xA53 SWAP4 SWAP3 SWAP2 SWAP1 PUSH2 0x1A50 JUMP JUMPDEST PUSH1 0x0 PUSH1 0x40 MLOAD DUP1 DUP4 SUB DUP2 PUSH1 0x0 DUP8 DUP1 EXTCODESIZE ISZERO DUP1 ISZERO PUSH2 0xA6D JUMPI PUSH1 0x0 DUP1 REVERT JUMPDEST POP GAS CALL ISZERO DUP1 ISZERO PUSH2 0xA81 JUMPI RETURNDATASIZE PUSH1 0x0 DUP1 RETURNDATACOPY RETURNDATASIZE PUSH1 0x0 REVERT JUMPDEST POP POP POP POP PUSH2 0xA8F PUSH1 0x2 PUSH2 0x15A0 JUMP JUMPDEST PUSH1 0x40 MLOAD DUP1 PUSH2 0x100 ADD PUSH1 0x40 MSTORE DUP1 DUP7 PUSH20 0xFFFFFFFFFFFFFFFFFFFFFFFFFFFFFFFFFFFFFFFF AND DUP2 MSTORE PUSH1 0x20 ADD DUP6 DUP2 MSTORE PUSH1 0x20 ADD CALLER PUSH20 0xFFFFFFFFFFFFFFFFFFFFFFFFFFFFFFFFFFFFFFFF AND DUP2 MSTORE PUSH1 0x20 ADD ADDRESS PUSH20 0xFFFFFFFFFFFFFFFFFFFFFFFFFFFFFFFFFFFFFFFF AND DUP2 MSTORE PUSH1 0x20 ADD DUP5 DUP2 MSTORE PUSH1 0x20 ADD DUP4 ISZERO ISZERO DUP2 MSTORE PUSH1 0x20 ADD DUP3 ISZERO ISZERO DUP2 MSTORE PUSH1 0x20 ADD PUSH1 0x1 ISZERO ISZERO DUP2 MSTORE POP PUSH1 0x6 PUSH1 0x0 DUP7 DUP2 MSTORE PUSH1 0x20 ADD SWAP1 DUP2 MSTORE PUSH1 0x20 ADD PUSH1 0x0 KECCAK256 PUSH1 0x0 DUP3 ADD MLOAD DUP2 PUSH1 0x0 ADD PUSH1 0x0 PUSH2 0x100 EXP DUP2 SLOAD DUP2 PUSH20 0xFFFFFFFFFFFFFFFFFFFFFFFFFFFFFFFFFFFFFFFF MUL NOT AND SWAP1 DUP4 PUSH20 0xFFFFFFFFFFFFFFFFFFFFFFFFFFFFFFFFFFFFFFFF AND MUL OR SWAP1 SSTORE POP PUSH1 0x20 DUP3 ADD MLOAD DUP2 PUSH1 0x1 ADD SSTORE PUSH1 0x40 DUP3 ADD MLOAD DUP2 PUSH1 0x2 ADD PUSH1 0x0 PUSH2 0x100 EXP DUP2 SLOAD DUP2 PUSH20 0xFFFFFFFFFFFFFFFFFFFFFFFFFFFFFFFFFFFFFFFF MUL NOT AND SWAP1 DUP4 PUSH20 0xFFFFFFFFFFFFFFFFFFFFFFFFFFFFFFFFFFFFFFFF AND MUL OR SWAP1 SSTORE POP PUSH1 0x60 DUP3 ADD MLOAD DUP2 PUSH1 0x3 ADD PUSH1 0x0 PUSH2 0x100 EXP DUP2 SLOAD DUP2 PUSH20 0xFFFFFFFFFFFFFFFFFFFFFFFFFFFFFFFFFFFFFFFF MUL NOT AND SWAP1 DUP4 PUSH20 0xFFFFFFFFFFFFFFFFFFFFFFFFFFFFFFFFFFFFFFFF AND MUL OR SWAP1 SSTORE POP PUSH1 0x80 DUP3 ADD MLOAD DUP2 PUSH1 0x4 ADD SSTORE PUSH1 0xA0 DUP3 ADD MLOAD DUP2 PUSH1 0x5 ADD PUSH1 0x0 PUSH2 0x100 EXP DUP2 SLOAD DUP2 PUSH1 0xFF MUL NOT AND SWAP1 DUP4 ISZERO ISZERO MUL OR SWAP1 SSTORE POP PUSH1 0xC0 DUP3 ADD MLOAD DUP2 PUSH1 0x5 ADD PUSH1 0x1 PUSH2 0x100 EXP DUP2 SLOAD DUP2 PUSH1 0xFF MUL NOT AND SWAP1 DUP4 ISZERO ISZERO MUL OR SWAP1 SSTORE POP PUSH1 0xE0 DUP3 ADD MLOAD DUP2 PUSH1 0x5 ADD PUSH1 0x2 PUSH2 0x100 EXP DUP2 SLOAD DUP2 PUSH1 0xFF MUL NOT AND SWAP1 DUP4 ISZERO ISZERO MUL OR SWAP1 SSTORE POP SWAP1 POP POP PUSH32 0xFE39CA4F5D58A07D8B589986FD77FF12272E3C3E03885E48D32964F5A9B8A4E8 DUP6 DUP6 CALLER ADDRESS DUP8 DUP8 DUP8 PUSH1 0x40 MLOAD PUSH2 0xCAC SWAP8 SWAP7 SWAP6 SWAP5 SWAP4 SWAP3 SWAP2 SWAP1 PUSH2 0x1AF6 JUMP JUMPDEST PUSH1 0x40 MLOAD DUP1 SWAP2 SUB SWAP1 LOG1 PUSH1 0x1 PUSH1 0x0 DUP2 SWAP1 SSTORE POP POP POP POP POP POP JUMP JUMPDEST PUSH1 0x2 PUSH1 0x0 SLOAD EQ ISZERO PUSH2 0xD09 JUMPI PUSH1 0x40 MLOAD PUSH32 0x8C379A000000000000000000000000000000000000000000000000000000000 DUP2 MSTORE PUSH1 0x4 ADD PUSH2 0xD00 SWAP1 PUSH2 0x1BE7 JUMP JUMPDEST PUSH1 0x40 MLOAD DUP1 SWAP2 SUB SWAP1 REVERT JUMPDEST PUSH1 0x2 PUSH1 0x0 DUP2 SWAP1 SSTORE POP PUSH1 0x0 PUSH1 0x6 PUSH1 0x0 DUP4 DUP2 MSTORE PUSH1 0x20 ADD SWAP1 DUP2 MSTORE PUSH1 0x20 ADD PUSH1 0x0 KECCAK256 SWAP1 POP DUP1 PUSH1 0x4 ADD SLOAD CALLVALUE LT ISZERO PUSH2 0xD6F JUMPI PUSH1 0x40 MLOAD PUSH32 0x8C379A000000000000000000000000000000000000000000000000000000000 DUP2 MSTORE PUSH1 0x4 ADD PUSH2 0xD66 SWAP1 PUSH2 0x1BA7 JUMP JUMPDEST PUSH1 0x40 MLOAD DUP1 SWAP2 SUB SWAP1 REVERT JUMPDEST PUSH1 0x0 CALLER SWAP1 POP DUP2 PUSH1 0x2 ADD PUSH1 0x0 SWAP1 SLOAD SWAP1 PUSH2 0x100 EXP SWAP1 DIV PUSH20 0xFFFFFFFFFFFFFFFFFFFFFFFFFFFFFFFFFFFFFFFF AND PUSH20 0xFFFFFFFFFFFFFFFFFFFFFFFFFFFFFFFFFFFFFFFF AND PUSH2 0x8FC CALLVALUE SWAP1 DUP2 ISZERO MUL SWAP1 PUSH1 0x40 MLOAD PUSH1 0x0 PUSH1 0x40 MLOAD DUP1 DUP4 SUB DUP2 DUP6 DUP9 DUP9 CALL SWAP4 POP POP POP POP ISZERO DUP1 ISZERO PUSH2 0xDDE JUMPI RETURNDATASIZE PUSH1 0x0 DUP1 RETURNDATACOPY RETURNDATASIZE PUSH1 0x0 REVERT JUMPDEST POP DUP4 PUSH20 0xFFFFFFFFFFFFFFFFFFFFFFFFFFFFFFFFFFFFFFFF AND PUSH4 0x23B872DD ADDRESS DUP4 DUP6 PUSH1 0x1 ADD SLOAD PUSH1 0x40 MLOAD DUP5 PUSH4 0xFFFFFFFF AND PUSH1 0xE0 SHL DUP2 MSTORE PUSH1 0x4 ADD PUSH2 0xE20 SWAP4 SWAP3 SWAP2 SWAP1 PUSH2 0x1A19 JUMP JUMPDEST PUSH1 0x0 PUSH1 0x40 MLOAD DUP1 DUP4 SUB DUP2 PUSH1 0x0 DUP8 DUP1 EXTCODESIZE ISZERO DUP1 ISZERO PUSH2 0xE3A JUMPI PUSH1 0x0 DUP1 REVERT JUMPDEST POP GAS CALL ISZERO DUP1 ISZERO PUSH2 0xE4E JUMPI RETURNDATASIZE PUSH1 0x0 DUP1 RETURNDATACOPY RETURNDATASIZE PUSH1 0x0 REVERT JUMPDEST POP POP POP POP PUSH1 0x5 PUSH1 0x0 SWAP1 SLOAD SWAP1 PUSH2 0x100 EXP SWAP1 DIV PUSH20 0xFFFFFFFFFFFFFFFFFFFFFFFFFFFFFFFFFFFFFFFF AND PUSH20 0xFFFFFFFFFFFFFFFFFFFFFFFFFFFFFFFFFFFFFFFF AND PUSH2 0x8FC PUSH1 0x3 SLOAD SWAP1 DUP2 ISZERO MUL SWAP1 PUSH1 0x40 MLOAD PUSH1 0x0 PUSH1 0x40 MLOAD DUP1 DUP4 SUB DUP2 DUP6 DUP9 DUP9 CALL SWAP4 POP POP POP POP ISZERO DUP1 ISZERO PUSH2 0xEBC JUMPI RETURNDATASIZE PUSH1 0x0 DUP1 RETURNDATACOPY RETURNDATASIZE PUSH1 0x0 REVERT JUMPDEST POP DUP1 DUP3 PUSH1 0x3 ADD PUSH1 0x0 PUSH2 0x100 EXP DUP2 SLOAD DUP2 PUSH20 0xFFFFFFFFFFFFFFFFFFFFFFFFFFFFFFFFFFFFFFFF MUL NOT AND SWAP1 DUP4 PUSH20 0xFFFFFFFFFFFFFFFFFFFFFFFFFFFFFFFFFFFFFFFF AND MUL OR SWAP1 SSTORE POP PUSH1 0x0 DUP3 PUSH1 0x5 ADD PUSH1 0x2 PUSH2 0x100 EXP DUP2 SLOAD DUP2 PUSH1 0xFF MUL NOT AND SWAP1 DUP4 ISZERO ISZERO MUL OR SWAP1 SSTORE POP PUSH2 0xF27 PUSH1 0x1 PUSH2 0x15A0 JUMP JUMPDEST PUSH32 0xCC36E356476D207FC81EF74C18D91C21C08D4E0050D5CDC9DFF6F5D564B7F446 DUP5 DUP4 PUSH1 0x1 ADD SLOAD DUP5 PUSH1 0x2 ADD PUSH1 0x0 SWAP1 SLOAD SWAP1 PUSH2 0x100 EXP SWAP1 DIV PUSH20 0xFFFFFFFFFFFFFFFFFFFFFFFFFFFFFFFFFFFFFFFF AND DUP5 CALLVALUE DUP8 PUSH1 0x5 ADD PUSH1 0x0 SWAP1 SLOAD SWAP1 PUSH2 0x100 EXP SWAP1 DIV PUSH1 0xFF AND DUP9 PUSH1 0x5 ADD PUSH1 0x1 SWAP1 SLOAD SWAP1 PUSH2 0x100 EXP SWAP1 DIV PUSH1 0xFF AND PUSH1 0x40 MLOAD PUSH2 0xFAC SWAP8 SWAP7 SWAP6 SWAP5 SWAP4 SWAP3 SWAP2 SWAP1 PUSH2 0x1A87 JUMP JUMPDEST PUSH1 0x40 MLOAD DUP1 SWAP2 SUB SWAP1 LOG1 POP POP PUSH1 0x1 PUSH1 0x0 DUP2 SWAP1 SSTORE POP POP POP JUMP JUMPDEST PUSH1 0x60 PUSH1 0x0 PUSH2 0xFD0 PUSH1 0x2 PUSH2 0x1592 JUMP JUMPDEST SWAP1 POP PUSH1 0x0 PUSH2 0xFDE PUSH1 0x1 PUSH2 0x1592 JUMP JUMPDEST DUP3 PUSH2 0xFE9 SWAP2 SWAP1 PUSH2 0x1CE2 JUMP JUMPDEST SWAP1 POP PUSH1 0x0 DUP2 PUSH8 0xFFFFFFFFFFFFFFFF DUP2 GT ISZERO PUSH2 0x1007 JUMPI PUSH2 0x1006 PUSH2 0x1E4D JUMP JUMPDEST JUMPDEST PUSH1 0x40 MLOAD SWAP1 DUP1 DUP3 MSTORE DUP1 PUSH1 0x20 MUL PUSH1 0x20 ADD DUP3 ADD PUSH1 0x40 MSTORE DUP1 ISZERO PUSH2 0x1040 JUMPI DUP2 PUSH1 0x20 ADD JUMPDEST PUSH2 0x102D PUSH2 0x1612 JUMP JUMPDEST DUP2 MSTORE PUSH1 0x20 ADD SWAP1 PUSH1 0x1 SWAP1 SUB SWAP1 DUP2 PUSH2 0x1025 JUMPI SWAP1 POP JUMPDEST POP SWAP1 POP PUSH1 0x0 DUP1 JUMPDEST DUP5 DUP2 LT ISZERO PUSH2 0x12D8 JUMPI PUSH1 0x6 PUSH1 0x0 PUSH1 0x1 DUP4 PUSH2 0x1060 SWAP2 SWAP1 PUSH2 0x1C8C JUMP JUMPDEST DUP2 MSTORE PUSH1 0x20 ADD SWAP1 DUP2 MSTORE PUSH1 0x20 ADD PUSH1 0x0 KECCAK256 PUSH1 0x5 ADD PUSH1 0x2 SWAP1 SLOAD SWAP1 PUSH2 0x100 EXP SWAP1 DIV PUSH1 0xFF AND DUP1 ISZERO PUSH2 0x10C0 JUMPI POP DUP8 ISZERO DUP1 PUSH2 0x10BF JUMPI POP PUSH1 0x6 PUSH1 0x0 PUSH1 0x1 DUP4 PUSH2 0x109F SWAP2 SWAP1 PUSH2 0x1C8C JUMP JUMPDEST DUP2 MSTORE PUSH1 0x20 ADD SWAP1 DUP2 MSTORE PUSH1 0x20 ADD PUSH1 0x0 KECCAK256 PUSH1 0x5 ADD PUSH1 0x0 SWAP1 SLOAD SWAP1 PUSH2 0x100 EXP SWAP1 DIV PUSH1 0xFF AND JUMPDEST JUMPDEST DUP1 ISZERO PUSH2 0x1101 JUMPI POP DUP7 ISZERO DUP1 PUSH2 0x1100 JUMPI POP PUSH1 0x6 PUSH1 0x0 PUSH1 0x1 DUP4 PUSH2 0x10E0 SWAP2 SWAP1 PUSH2 0x1C8C JUMP JUMPDEST DUP2 MSTORE PUSH1 0x20 ADD SWAP1 DUP2 MSTORE PUSH1 0x20 ADD PUSH1 0x0 KECCAK256 PUSH1 0x5 ADD PUSH1 0x1 SWAP1 SLOAD SWAP1 PUSH2 0x100 EXP SWAP1 DIV PUSH1 0xFF AND JUMPDEST JUMPDEST ISZERO PUSH2 0x12C5 JUMPI PUSH1 0x6 PUSH1 0x0 PUSH1 0x1 DUP4 PUSH2 0x1117 SWAP2 SWAP1 PUSH2 0x1C8C JUMP JUMPDEST DUP2 MSTORE PUSH1 0x20 ADD SWAP1 DUP2 MSTORE PUSH1 0x20 ADD PUSH1 0x0 KECCAK256 PUSH1 0x40 MLOAD DUP1 PUSH2 0x100 ADD PUSH1 0x40 MSTORE SWAP1 DUP2 PUSH1 0x0 DUP3 ADD PUSH1 0x0 SWAP1 SLOAD SWAP1 PUSH2 0x100 EXP SWAP1 DIV PUSH20 0xFFFFFFFFFFFFFFFFFFFFFFFFFFFFFFFFFFFFFFFF AND PUSH20 0xFFFFFFFFFFFFFFFFFFFFFFFFFFFFFFFFFFFFFFFF AND PUSH20 0xFFFFFFFFFFFFFFFFFFFFFFFFFFFFFFFFFFFFFFFF AND DUP2 MSTORE PUSH1 0x20 ADD PUSH1 0x1 DUP3 ADD SLOAD DUP2 MSTORE PUSH1 0x20 ADD PUSH1 0x2 DUP3 ADD PUSH1 0x0 SWAP1 SLOAD SWAP1 PUSH2 0x100 EXP SWAP1 DIV PUSH20 0xFFFFFFFFFFFFFFFFFFFFFFFFFFFFFFFFFFFFFFFF AND PUSH20 0xFFFFFFFFFFFFFFFFFFFFFFFFFFFFFFFFFFFFFFFF AND PUSH20 0xFFFFFFFFFFFFFFFFFFFFFFFFFFFFFFFFFFFFFFFF AND DUP2 MSTORE PUSH1 0x20 ADD PUSH1 0x3 DUP3 ADD PUSH1 0x0 SWAP1 SLOAD SWAP1 PUSH2 0x100 EXP SWAP1 DIV PUSH20 0xFFFFFFFFFFFFFFFFFFFFFFFFFFFFFFFFFFFFFFFF AND PUSH20 0xFFFFFFFFFFFFFFFFFFFFFFFFFFFFFFFFFFFFFFFF AND PUSH20 0xFFFFFFFFFFFFFFFFFFFFFFFFFFFFFFFFFFFFFFFF AND DUP2 MSTORE PUSH1 0x20 ADD PUSH1 0x4 DUP3 ADD SLOAD DUP2 MSTORE PUSH1 0x20 ADD PUSH1 0x5 DUP3 ADD PUSH1 0x0 SWAP1 SLOAD SWAP1 PUSH2 0x100 EXP SWAP1 DIV PUSH1 0xFF AND ISZERO ISZERO ISZERO ISZERO DUP2 MSTORE PUSH1 0x20 ADD PUSH1 0x5 DUP3 ADD PUSH1 0x1 SWAP1 SLOAD SWAP1 PUSH2 0x100 EXP SWAP1 DIV PUSH1 0xFF AND ISZERO ISZERO ISZERO ISZERO DUP2 MSTORE PUSH1 0x20 ADD PUSH1 0x5 DUP3 ADD PUSH1 0x2 SWAP1 SLOAD SWAP1 PUSH2 0x100 EXP SWAP1 DIV PUSH1 0xFF AND ISZERO ISZERO ISZERO ISZERO DUP2 MSTORE POP POP DUP4 DUP4 DUP2 MLOAD DUP2 LT PUSH2 0x12AB JUMPI PUSH2 0x12AA PUSH2 0x1E1E JUMP JUMPDEST JUMPDEST PUSH1 0x20 MUL PUSH1 0x20 ADD ADD DUP2 SWAP1 MSTORE POP DUP2 DUP1 PUSH2 0x12C1 SWAP1 PUSH2 0x1DA6 JUMP JUMPDEST SWAP3 POP POP JUMPDEST DUP1 DUP1 PUSH2 0x12D0 SWAP1 PUSH2 0x1DA6 JUMP JUMPDEST SWAP2 POP POP PUSH2 0x1047 JUMP JUMPDEST POP DUP2 SWAP5 POP POP POP POP POP SWAP3 SWAP2 POP POP JUMP JUMPDEST PUSH1 0x0 PUSH1 0x3 SLOAD SWAP1 POP SWAP1 JUMP JUMPDEST PUSH1 0x4 SLOAD DUP2 JUMP JUMPDEST PUSH1 0x2 PUSH1 0x0 SLOAD EQ ISZERO PUSH2 0x133C JUMPI PUSH1 0x40 MLOAD PUSH32 0x8C379A000000000000000000000000000000000000000000000000000000000 DUP2 MSTORE PUSH1 0x4 ADD PUSH2 0x1333 SWAP1 PUSH2 0x1BE7 JUMP JUMPDEST PUSH1 0x40 MLOAD DUP1 SWAP2 SUB SWAP1 REVERT JUMPDEST PUSH1 0x2 PUSH1 0x0 DUP2 SWAP1 SSTORE POP PUSH1 0x0 DUP4 GT PUSH2 0x1387 JUMPI PUSH1 0x40 MLOAD PUSH32 0x8C379A000000000000000000000000000000000000000000000000000000000 DUP2 MSTORE PUSH1 0x4 ADD PUSH2 0x137E SWAP1 PUSH2 0x1C07 JUMP JUMPDEST PUSH1 0x40 MLOAD DUP1 SWAP2 SUB SWAP1 REVERT JUMPDEST PUSH1 0x3 SLOAD CALLVALUE EQ PUSH2 0x13CB JUMPI PUSH1 0x40 MLOAD PUSH32 0x8C379A000000000000000000000000000000000000000000000000000000000 DUP2 MSTORE PUSH1 0x4 ADD PUSH2 0x13C2 SWAP1 PUSH2 0x1BC7 JUMP JUMPDEST PUSH1 0x40 MLOAD DUP1 SWAP2 SUB SWAP1 REVERT JUMPDEST DUP5 PUSH20 0xFFFFFFFFFFFFFFFFFFFFFFFFFFFFFFFFFFFFFFFF AND PUSH4 0x23B872DD CALLER ADDRESS DUP8 PUSH1 0x40 MLOAD DUP5 PUSH4 0xFFFFFFFF AND PUSH1 0xE0 SHL DUP2 MSTORE PUSH1 0x4 ADD PUSH2 0x1408 SWAP4 SWAP3 SWAP2 SWAP1 PUSH2 0x1A50 JUMP JUMPDEST PUSH1 0x0 PUSH1 0x40 MLOAD DUP1 DUP4 SUB DUP2 PUSH1 0x0 DUP8 DUP1 EXTCODESIZE ISZERO DUP1 ISZERO PUSH2 0x1422 JUMPI PUSH1 0x0 DUP1 REVERT JUMPDEST POP GAS CALL ISZERO DUP1 ISZERO PUSH2 0x1436 JUMPI RETURNDATASIZE PUSH1 0x0 DUP1 RETURNDATACOPY RETURNDATASIZE PUSH1 0x0 REVERT JUMPDEST POP POP POP POP PUSH1 0x0 PUSH1 0x6 PUSH1 0x0 DUP7 DUP2 MSTORE PUSH1 0x20 ADD SWAP1 DUP2 MSTORE PUSH1 0x20 ADD PUSH1 0x0 KECCAK256 SWAP1 POP CALLER DUP2 PUSH1 0x2 ADD PUSH1 0x0 PUSH2 0x100 EXP DUP2 SLOAD DUP2 PUSH20 0xFFFFFFFFFFFFFFFFFFFFFFFFFFFFFFFFFFFFFFFF MUL NOT AND SWAP1 DUP4 PUSH20 0xFFFFFFFFFFFFFFFFFFFFFFFFFFFFFFFFFFFFFFFF AND MUL OR SWAP1 SSTORE POP ADDRESS DUP2 PUSH1 0x3 ADD PUSH1 0x0 PUSH2 0x100 EXP DUP2 SLOAD DUP2 PUSH20 0xFFFFFFFFFFFFFFFFFFFFFFFFFFFFFFFFFFFFFFFF MUL NOT AND SWAP1 DUP4 PUSH20 0xFFFFFFFFFFFFFFFFFFFFFFFFFFFFFFFFFFFFFFFF AND MUL OR SWAP1 SSTORE POP PUSH1 0x1 DUP2 PUSH1 0x5 ADD PUSH1 0x2 PUSH2 0x100 EXP DUP2 SLOAD DUP2 PUSH1 0xFF MUL NOT AND SWAP1 DUP4 ISZERO ISZERO MUL OR SWAP1 SSTORE POP DUP4 DUP2 PUSH1 0x4 ADD DUP2 SWAP1 SSTORE POP DUP3 DUP2 PUSH1 0x5 ADD PUSH1 0x0 PUSH2 0x100 EXP DUP2 SLOAD DUP2 PUSH1 0xFF MUL NOT AND SWAP1 DUP4 ISZERO ISZERO MUL OR SWAP1 SSTORE POP DUP2 DUP2 PUSH1 0x5 ADD PUSH1 0x1 PUSH2 0x100 EXP DUP2 SLOAD DUP2 PUSH1 0xFF MUL NOT AND SWAP1 DUP4 ISZERO ISZERO MUL OR SWAP1 SSTORE POP PUSH2 0x153F PUSH1 0x1 PUSH2 0x15B6 JUMP JUMPDEST PUSH32 0xFE39CA4F5D58A07D8B589986FD77FF12272E3C3E03885E48D32964F5A9B8A4E8 DUP7 DUP7 CALLER ADDRESS DUP9 DUP9 DUP9 PUSH1 0x40 MLOAD PUSH2 0x157A SWAP8 SWAP7 SWAP6 SWAP5 SWAP4 SWAP3 SWAP2 SWAP1 PUSH2 0x1AF6 JUMP JUMPDEST PUSH1 0x40 MLOAD DUP1 SWAP2 SUB SWAP1 LOG1 POP PUSH1 0x1 PUSH1 0x0 DUP2 SWAP1 SSTORE POP POP POP POP POP POP JUMP JUMPDEST PUSH1 0x0 DUP2 PUSH1 0x0 ADD SLOAD SWAP1 POP SWAP2 SWAP1 POP JUMP JUMPDEST PUSH1 0x1 DUP2 PUSH1 0x0 ADD PUSH1 0x0 DUP3 DUP3 SLOAD ADD SWAP3 POP POP DUP2 SWAP1 SSTORE POP POP JUMP JUMPDEST PUSH1 0x0 DUP2 PUSH1 0x0 ADD SLOAD SWAP1 POP PUSH1 0x0 DUP2 GT PUSH2 0x1602 JUMPI PUSH1 0x40 MLOAD PUSH32 0x8C379A000000000000000000000000000000000000000000000000000000000 DUP2 MSTORE PUSH1 0x4 ADD PUSH2 0x15F9 SWAP1 PUSH2 0x1B87 JUMP JUMPDEST PUSH1 0x40 MLOAD DUP1 SWAP2 SUB SWAP1 REVERT JUMPDEST PUSH1 0x1 DUP2 SUB DUP3 PUSH1 0x0 ADD DUP2 SWAP1 SSTORE POP POP POP JUMP JUMPDEST PUSH1 0x40 MLOAD DUP1 PUSH2 0x100 ADD PUSH1 0x40 MSTORE DUP1 PUSH1 0x0 PUSH20 0xFFFFFFFFFFFFFFFFFFFFFFFFFFFFFFFFFFFFFFFF AND DUP2 MSTORE PUSH1 0x20 ADD PUSH1 0x0 DUP2 MSTORE PUSH1 0x20 ADD PUSH1 0x0 PUSH20 0xFFFFFFFFFFFFFFFFFFFFFFFFFFFFFFFFFFFFFFFF AND DUP2 MSTORE PUSH1 0x20 ADD PUSH1 0x0 PUSH20 0xFFFFFFFFFFFFFFFFFFFFFFFFFFFFFFFFFFFFFFFF AND DUP2 MSTORE PUSH1 0x20 ADD PUSH1 0x0 DUP2 MSTORE PUSH1 0x20 ADD PUSH1 0x0 ISZERO ISZERO DUP2 MSTORE PUSH1 0x20 ADD PUSH1 0x0 ISZERO ISZERO DUP2 MSTORE PUSH1 0x20 ADD PUSH1 0x0 ISZERO ISZERO DUP2 MSTORE POP SWAP1 JUMP JUMPDEST PUSH1 0x0 DUP2 CALLDATALOAD SWAP1 POP PUSH2 0x16AE DUP2 PUSH2 0x1F74 JUMP JUMPDEST SWAP3 SWAP2 POP POP JUMP JUMPDEST PUSH1 0x0 DUP2 CALLDATALOAD SWAP1 POP PUSH2 0x16C3 DUP2 PUSH2 0x1F8B JUMP JUMPDEST SWAP3 SWAP2 POP POP JUMP JUMPDEST PUSH1 0x0 DUP2 CALLDATALOAD SWAP1 POP PUSH2 0x16D8 DUP2 PUSH2 0x1FA2 JUMP JUMPDEST SWAP3 SWAP2 POP POP JUMP JUMPDEST PUSH1 0x0 DUP1 PUSH1 0x40 DUP4 DUP6 SUB SLT ISZERO PUSH2 0x16F5 JUMPI PUSH2 0x16F4 PUSH2 0x1E7C JUMP JUMPDEST JUMPDEST PUSH1 0x0 PUSH2 0x1703 DUP6 DUP3 DUP7 ADD PUSH2 0x169F JUMP JUMPDEST SWAP3 POP POP PUSH1 0x20 PUSH2 0x1714 DUP6 DUP3 DUP7 ADD PUSH2 0x16C9 JUMP JUMPDEST SWAP2 POP POP SWAP3 POP SWAP3 SWAP1 POP JUMP JUMPDEST PUSH1 0x0 DUP1 PUSH1 0x0 DUP1 PUSH1 0x0 PUSH1 0xA0 DUP7 DUP9 SUB SLT ISZERO PUSH2 0x173A JUMPI PUSH2 0x1739 PUSH2 0x1E7C JUMP JUMPDEST JUMPDEST PUSH1 0x0 PUSH2 0x1748 DUP9 DUP3 DUP10 ADD PUSH2 0x169F JUMP JUMPDEST SWAP6 POP POP PUSH1 0x20 PUSH2 0x1759 DUP9 DUP3 DUP10 ADD PUSH2 0x16C9 JUMP JUMPDEST SWAP5 POP POP PUSH1 0x40 PUSH2 0x176A DUP9 DUP3 DUP10 ADD PUSH2 0x16C9 JUMP JUMPDEST SWAP4 POP POP PUSH1 0x60 PUSH2 0x177B DUP9 DUP3 DUP10 ADD PUSH2 0x16B4 JUMP JUMPDEST SWAP3 POP POP PUSH1 0x80 PUSH2 0x178C DUP9 DUP3 DUP10 ADD PUSH2 0x16B4 JUMP JUMPDEST SWAP2 POP POP SWAP3 SWAP6 POP SWAP3 SWAP6 SWAP1 SWAP4 POP JUMP JUMPDEST PUSH1 0x0 DUP1 PUSH1 0x40 DUP4 DUP6 SUB SLT ISZERO PUSH2 0x17B0 JUMPI PUSH2 0x17AF PUSH2 0x1E7C JUMP JUMPDEST JUMPDEST PUSH1 0x0 PUSH2 0x17BE DUP6 DUP3 DUP7 ADD PUSH2 0x16B4 JUMP JUMPDEST SWAP3 POP POP PUSH1 0x20 PUSH2 0x17CF DUP6 DUP3 DUP7 ADD PUSH2 0x16B4 JUMP JUMPDEST SWAP2 POP POP SWAP3 POP SWAP3 SWAP1 POP JUMP JUMPDEST PUSH1 0x0 PUSH2 0x17E5 DUP4 DUP4 PUSH2 0x1959 JUMP JUMPDEST PUSH2 0x100 DUP4 ADD SWAP1 POP SWAP3 SWAP2 POP POP JUMP JUMPDEST PUSH2 0x17FB DUP2 PUSH2 0x1D70 JUMP JUMPDEST DUP3 MSTORE POP POP JUMP JUMPDEST PUSH2 0x180A DUP2 PUSH2 0x1D28 JUMP JUMPDEST DUP3 MSTORE POP POP JUMP JUMPDEST PUSH2 0x1819 DUP2 PUSH2 0x1D16 JUMP JUMPDEST DUP3 MSTORE POP POP JUMP JUMPDEST PUSH2 0x1828 DUP2 PUSH2 0x1D16 JUMP JUMPDEST DUP3 MSTORE POP POP JUMP JUMPDEST PUSH1 0x0 PUSH2 0x1839 DUP3 PUSH2 0x1C52 JUMP JUMPDEST PUSH2 0x1843 DUP2 DUP6 PUSH2 0x1C6A JUMP JUMPDEST SWAP4 POP PUSH2 0x184E DUP4 PUSH2 0x1C42 JUMP JUMPDEST DUP1 PUSH1 0x0 JUMPDEST DUP4 DUP2 LT ISZERO PUSH2 0x187F JUMPI DUP2 MLOAD PUSH2 0x1866 DUP9 DUP3 PUSH2 0x17D9 JUMP JUMPDEST SWAP8 POP PUSH2 0x1871 DUP4 PUSH2 0x1C5D JUMP JUMPDEST SWAP3 POP POP PUSH1 0x1 DUP2 ADD SWAP1 POP PUSH2 0x1852 JUMP JUMPDEST POP DUP6 SWAP4 POP POP POP POP SWAP3 SWAP2 POP POP JUMP JUMPDEST PUSH2 0x1895 DUP2 PUSH2 0x1D3A JUMP JUMPDEST DUP3 MSTORE POP POP JUMP JUMPDEST PUSH2 0x18A4 DUP2 PUSH2 0x1D3A JUMP JUMPDEST DUP3 MSTORE POP POP JUMP JUMPDEST PUSH1 0x0 PUSH2 0x18B7 PUSH1 0x1B DUP4 PUSH2 0x1C7B JUMP JUMPDEST SWAP2 POP PUSH2 0x18C2 DUP3 PUSH2 0x1E81 JUMP JUMPDEST PUSH1 0x20 DUP3 ADD SWAP1 POP SWAP2 SWAP1 POP JUMP JUMPDEST PUSH1 0x0 PUSH2 0x18DA PUSH1 0x26 DUP4 PUSH2 0x1C7B JUMP JUMPDEST SWAP2 POP PUSH2 0x18E5 DUP3 PUSH2 0x1EAA JUMP JUMPDEST PUSH1 0x40 DUP3 ADD SWAP1 POP SWAP2 SWAP1 POP JUMP JUMPDEST PUSH1 0x0 PUSH2 0x18FD PUSH1 0x20 DUP4 PUSH2 0x1C7B JUMP JUMPDEST SWAP2 POP PUSH2 0x1908 DUP3 PUSH2 0x1EF9 JUMP JUMPDEST PUSH1 0x20 DUP3 ADD SWAP1 POP SWAP2 SWAP1 POP JUMP JUMPDEST PUSH1 0x0 PUSH2 0x1920 PUSH1 0x1F DUP4 PUSH2 0x1C7B JUMP JUMPDEST SWAP2 POP PUSH2 0x192B DUP3 PUSH2 0x1F22 JUMP JUMPDEST PUSH1 0x20 DUP3 ADD SWAP1 POP SWAP2 SWAP1 POP JUMP JUMPDEST PUSH1 0x0 PUSH2 0x1943 PUSH1 0x1C DUP4 PUSH2 0x1C7B JUMP JUMPDEST SWAP2 POP PUSH2 0x194E DUP3 PUSH2 0x1F4B JUMP JUMPDEST PUSH1 0x20 DUP3 ADD SWAP1 POP SWAP2 SWAP1 POP JUMP JUMPDEST PUSH2 0x100 DUP3 ADD PUSH1 0x0 DUP3 ADD MLOAD PUSH2 0x1970 PUSH1 0x0 DUP6 ADD DUP3 PUSH2 0x1810 JUMP JUMPDEST POP PUSH1 0x20 DUP3 ADD MLOAD PUSH2 0x1983 PUSH1 0x20 DUP6 ADD DUP3 PUSH2 0x19FB JUMP JUMPDEST POP PUSH1 0x40 DUP3 ADD MLOAD PUSH2 0x1996 PUSH1 0x40 DUP6 ADD DUP3 PUSH2 0x1801 JUMP JUMPDEST POP PUSH1 0x60 DUP3 ADD MLOAD PUSH2 0x19A9 PUSH1 0x60 DUP6 ADD DUP3 PUSH2 0x1801 JUMP JUMPDEST POP PUSH1 0x80 DUP3 ADD MLOAD PUSH2 0x19BC PUSH1 0x80 DUP6 ADD DUP3 PUSH2 0x19FB JUMP JUMPDEST POP PUSH1 0xA0 DUP3 ADD MLOAD PUSH2 0x19CF PUSH1 0xA0 DUP6 ADD DUP3 PUSH2 0x188C JUMP JUMPDEST POP PUSH1 0xC0 DUP3 ADD MLOAD PUSH2 0x19E2 PUSH1 0xC0 DUP6 ADD DUP3 PUSH2 0x188C JUMP JUMPDEST POP PUSH1 0xE0 DUP3 ADD MLOAD PUSH2 0x19F5 PUSH1 0xE0 DUP6 ADD DUP3 PUSH2 0x188C JUMP JUMPDEST POP POP POP POP JUMP JUMPDEST PUSH2 0x1A04 DUP2 PUSH2 0x1D66 JUMP JUMPDEST DUP3 MSTORE POP POP JUMP JUMPDEST PUSH2 0x1A13 DUP2 PUSH2 0x1D66 JUMP JUMPDEST DUP3 MSTORE POP POP JUMP JUMPDEST PUSH1 0x0 PUSH1 0x60 DUP3 ADD SWAP1 POP PUSH2 0x1A2E PUSH1 0x0 DUP4 ADD DUP7 PUSH2 0x181F JUMP JUMPDEST PUSH2 0x1A3B PUSH1 0x20 DUP4 ADD DUP6 PUSH2 0x17F2 JUMP JUMPDEST PUSH2 0x1A48 PUSH1 0x40 DUP4 ADD DUP5 PUSH2 0x1A0A JUMP JUMPDEST SWAP5 SWAP4 POP POP POP POP JUMP JUMPDEST PUSH1 0x0 PUSH1 0x60 DUP3 ADD SWAP1 POP PUSH2 0x1A65 PUSH1 0x0 DUP4 ADD DUP7 PUSH2 0x181F JUMP JUMPDEST PUSH2 0x1A72 PUSH1 0x20 DUP4 ADD DUP6 PUSH2 0x181F JUMP JUMPDEST PUSH2 0x1A7F PUSH1 0x40 DUP4 ADD DUP5 PUSH2 0x1A0A JUMP JUMPDEST SWAP5 SWAP4 POP POP POP POP JUMP JUMPDEST PUSH1 0x0 PUSH1 0xE0 DUP3 ADD SWAP1 POP PUSH2 0x1A9C PUSH1 0x0 DUP4 ADD DUP11 PUSH2 0x181F JUMP JUMPDEST PUSH2 0x1AA9 PUSH1 0x20 DUP4 ADD DUP10 PUSH2 0x1A0A JUMP JUMPDEST PUSH2 0x1AB6 PUSH1 0x40 DUP4 ADD DUP9 PUSH2 0x17F2 JUMP JUMPDEST PUSH2 0x1AC3 PUSH1 0x60 DUP4 ADD DUP8 PUSH2 0x17F2 JUMP JUMPDEST PUSH2 0x1AD0 PUSH1 0x80 DUP4 ADD DUP7 PUSH2 0x1A0A JUMP JUMPDEST PUSH2 0x1ADD PUSH1 0xA0 DUP4 ADD DUP6 PUSH2 0x189B JUMP JUMPDEST PUSH2 0x1AEA PUSH1 0xC0 DUP4 ADD DUP5 PUSH2 0x189B JUMP JUMPDEST SWAP9 SWAP8 POP POP POP POP POP POP POP POP JUMP JUMPDEST PUSH1 0x0 PUSH1 0xE0 DUP3 ADD SWAP1 POP PUSH2 0x1B0B PUSH1 0x0 DUP4 ADD DUP11 PUSH2 0x181F JUMP JUMPDEST PUSH2 0x1B18 PUSH1 0x20 DUP4 ADD DUP10 PUSH2 0x1A0A JUMP JUMPDEST PUSH2 0x1B25 PUSH1 0x40 DUP4 ADD DUP9 PUSH2 0x181F JUMP JUMPDEST PUSH2 0x1B32 PUSH1 0x60 DUP4 ADD DUP8 PUSH2 0x181F JUMP JUMPDEST PUSH2 0x1B3F PUSH1 0x80 DUP4 ADD DUP7 PUSH2 0x1A0A JUMP JUMPDEST PUSH2 0x1B4C PUSH1 0xA0 DUP4 ADD DUP6 PUSH2 0x189B JUMP JUMPDEST PUSH2 0x1B59 PUSH1 0xC0 DUP4 ADD DUP5 PUSH2 0x189B JUMP JUMPDEST SWAP9 SWAP8 POP POP POP POP POP POP POP POP JUMP JUMPDEST PUSH1 0x0 PUSH1 0x20 DUP3 ADD SWAP1 POP DUP2 DUP2 SUB PUSH1 0x0 DUP4 ADD MSTORE PUSH2 0x1B7F DUP2 DUP5 PUSH2 0x182E JUMP JUMPDEST SWAP1 POP SWAP3 SWAP2 POP POP JUMP JUMPDEST PUSH1 0x0 PUSH1 0x20 DUP3 ADD SWAP1 POP DUP2 DUP2 SUB PUSH1 0x0 DUP4 ADD MSTORE PUSH2 0x1BA0 DUP2 PUSH2 0x18AA JUMP JUMPDEST SWAP1 POP SWAP2 SWAP1 POP JUMP JUMPDEST PUSH1 0x0 PUSH1 0x20 DUP3 ADD SWAP1 POP DUP2 DUP2 SUB PUSH1 0x0 DUP4 ADD MSTORE PUSH2 0x1BC0 DUP2 PUSH2 0x18CD JUMP JUMPDEST SWAP1 POP SWAP2 SWAP1 POP JUMP JUMPDEST PUSH1 0x0 PUSH1 0x20 DUP3 ADD SWAP1 POP DUP2 DUP2 SUB PUSH1 0x0 DUP4 ADD MSTORE PUSH2 0x1BE0 DUP2 PUSH2 0x18F0 JUMP JUMPDEST SWAP1 POP SWAP2 SWAP1 POP JUMP JUMPDEST PUSH1 0x0 PUSH1 0x20 DUP3 ADD SWAP1 POP DUP2 DUP2 SUB PUSH1 0x0 DUP4 ADD MSTORE PUSH2 0x1C00 DUP2 PUSH2 0x1913 JUMP JUMPDEST SWAP1 POP SWAP2 SWAP1 POP JUMP JUMPDEST PUSH1 0x0 PUSH1 0x20 DUP3 ADD SWAP1 POP DUP2 DUP2 SUB PUSH1 0x0 DUP4 ADD MSTORE PUSH2 0x1C20 DUP2 PUSH2 0x1936 JUMP JUMPDEST SWAP1 POP SWAP2 SWAP1 POP JUMP JUMPDEST PUSH1 0x0 PUSH1 0x20 DUP3 ADD SWAP1 POP PUSH2 0x1C3C PUSH1 0x0 DUP4 ADD DUP5 PUSH2 0x1A0A JUMP JUMPDEST SWAP3 SWAP2 POP POP JUMP JUMPDEST PUSH1 0x0 DUP2 SWAP1 POP PUSH1 0x20 DUP3 ADD SWAP1 POP SWAP2 SWAP1 POP JUMP JUMPDEST PUSH1 0x0 DUP2 MLOAD SWAP1 POP SWAP2 SWAP1 POP JUMP JUMPDEST PUSH1 0x0 PUSH1 0x20 DUP3 ADD SWAP1 POP SWAP2 SWAP1 POP JUMP JUMPDEST PUSH1 0x0 DUP3 DUP3 MSTORE PUSH1 0x20 DUP3 ADD SWAP1 POP SWAP3 SWAP2 POP POP JUMP JUMPDEST PUSH1 0x0 DUP3 DUP3 MSTORE PUSH1 0x20 DUP3 ADD SWAP1 POP SWAP3 SWAP2 POP POP JUMP JUMPDEST PUSH1 0x0 PUSH2 0x1C97 DUP3 PUSH2 0x1D66 JUMP JUMPDEST SWAP2 POP PUSH2 0x1CA2 DUP4 PUSH2 0x1D66 JUMP JUMPDEST SWAP3 POP DUP3 PUSH32 0xFFFFFFFFFFFFFFFFFFFFFFFFFFFFFFFFFFFFFFFFFFFFFFFFFFFFFFFFFFFFFFFF SUB DUP3 GT ISZERO PUSH2 0x1CD7 JUMPI PUSH2 0x1CD6 PUSH2 0x1DEF JUMP JUMPDEST JUMPDEST DUP3 DUP3 ADD SWAP1 POP SWAP3 SWAP2 POP POP JUMP JUMPDEST PUSH1 0x0 PUSH2 0x1CED DUP3 PUSH2 0x1D66 JUMP JUMPDEST SWAP2 POP PUSH2 0x1CF8 DUP4 PUSH2 0x1D66 JUMP JUMPDEST SWAP3 POP DUP3 DUP3 LT ISZERO PUSH2 0x1D0B JUMPI PUSH2 0x1D0A PUSH2 0x1DEF JUMP JUMPDEST JUMPDEST DUP3 DUP3 SUB SWAP1 POP SWAP3 SWAP2 POP POP JUMP JUMPDEST PUSH1 0x0 PUSH2 0x1D21 DUP3 PUSH2 0x1D46 JUMP JUMPDEST SWAP1 POP SWAP2 SWAP1 POP JUMP JUMPDEST PUSH1 0x0 PUSH2 0x1D33 DUP3 PUSH2 0x1D46 JUMP JUMPDEST SWAP1 POP SWAP2 SWAP1 POP JUMP JUMPDEST PUSH1 0x0 DUP2 ISZERO ISZERO SWAP1 POP SWAP2 SWAP1 POP JUMP JUMPDEST PUSH1 0x0 PUSH20 0xFFFFFFFFFFFFFFFFFFFFFFFFFFFFFFFFFFFFFFFF DUP3 AND SWAP1 POP SWAP2 SWAP1 POP JUMP JUMPDEST PUSH1 0x0 DUP2 SWAP1 POP SWAP2 SWAP1 POP JUMP JUMPDEST PUSH1 0x0 PUSH2 0x1D7B DUP3 PUSH2 0x1D82 JUMP JUMPDEST SWAP1 POP SWAP2 SWAP1 POP JUMP JUMPDEST PUSH1 0x0 PUSH2 0x1D8D DUP3 PUSH2 0x1D94 JUMP JUMPDEST SWAP1 POP SWAP2 SWAP1 POP JUMP JUMPDEST PUSH1 0x0 PUSH2 0x1D9F DUP3 PUSH2 0x1D46 JUMP JUMPDEST SWAP1 POP SWAP2 SWAP1 POP JUMP JUMPDEST PUSH1 0x0 PUSH2 0x1DB1 DUP3 PUSH2 0x1D66 JUMP JUMPDEST SWAP2 POP PUSH32 0xFFFFFFFFFFFFFFFFFFFFFFFFFFFFFFFFFFFFFFFFFFFFFFFFFFFFFFFFFFFFFFFF DUP3 EQ ISZERO PUSH2 0x1DE4 JUMPI PUSH2 0x1DE3 PUSH2 0x1DEF JUMP JUMPDEST JUMPDEST PUSH1 0x1 DUP3 ADD SWAP1 POP SWAP2 SWAP1 POP JUMP JUMPDEST PUSH32 0x4E487B7100000000000000000000000000000000000000000000000000000000 PUSH1 0x0 MSTORE PUSH1 0x11 PUSH1 0x4 MSTORE PUSH1 0x24 PUSH1 0x0 REVERT JUMPDEST PUSH32 0x4E487B7100000000000000000000000000000000000000000000000000000000 PUSH1 0x0 MSTORE PUSH1 0x32 PUSH1 0x4 MSTORE PUSH1 0x24 PUSH1 0x0 REVERT JUMPDEST PUSH32 0x4E487B7100000000000000000000000000000000000000000000000000000000 PUSH1 0x0 MSTORE PUSH1 0x41 PUSH1 0x4 MSTORE PUSH1 0x24 PUSH1 0x0 REVERT JUMPDEST PUSH1 0x0 DUP1 REVERT JUMPDEST PUSH32 0x436F756E7465723A2064656372656D656E74206F766572666C6F770000000000 PUSH1 0x0 DUP3 ADD MSTORE POP JUMP JUMPDEST PUSH32 0x4E6F7420656E6F75676820657468657220746F20636F7665722061736B696E67 PUSH1 0x0 DUP3 ADD MSTORE PUSH32 0x2070726963650000000000000000000000000000000000000000000000000000 PUSH1 0x20 DUP3 ADD MSTORE POP JUMP JUMPDEST PUSH32 0x4E6F7420656E6F75676820657468657220666F72206C697374696E6720666565 PUSH1 0x0 DUP3 ADD MSTORE POP JUMP JUMPDEST PUSH32 0x5265656E7472616E637947756172643A207265656E7472616E742063616C6C00 PUSH1 0x0 DUP3 ADD MSTORE POP JUMP JUMPDEST PUSH32 0x5072696365206D757374206265206174206C6561737420312077656900000000 PUSH1 0x0 DUP3 ADD MSTORE POP JUMP JUMPDEST PUSH2 0x1F7D DUP2 PUSH2 0x1D16 JUMP JUMPDEST DUP2 EQ PUSH2 0x1F88 JUMPI PUSH1 0x0 DUP1 REVERT JUMPDEST POP JUMP JUMPDEST PUSH2 0x1F94 DUP2 PUSH2 0x1D3A JUMP JUMPDEST DUP2 EQ PUSH2 0x1F9F JUMPI PUSH1 0x0 DUP1 REVERT JUMPDEST POP JUMP JUMPDEST PUSH2 0x1FAB DUP2 PUSH2 0x1D66 JUMP JUMPDEST DUP2 EQ PUSH2 0x1FB6 JUMPI PUSH1 0x0 DUP1 REVERT JUMPDEST POP JUMP INVALID LOG2 PUSH5 0x6970667358 0x22 SLT KECCAK256 DUP14 DUP13 LOG4 0x29 PC EXTCODESIZE 0x4B DUP1 SWAP3 NUMBER 0xEE PUSH6 0x4FC56FE628F 0xA8 NUMBER 0xC2 MSIZE 0xA7 0xF8 PUSH18 0xE98F1529DD1B64736F6C63430008070033 "
				},
				"gasEstimates": {
					"creation": {
						"codeDepositCost": "1635000",
						"executionCost": "92307",
						"totalCost": "1727307"
					},
					"external": {
						"LISTING_FEE()": "2474",
						"SELLING_FEE()": "2495",
						"buyNft(address,uint256)": "infinite",
						"getListedNfts(bool,bool)": "infinite",
						"getListingFee()": "2481",
						"getMyListedNfts()": "infinite",
						"getMyNfts()": "infinite",
						"listNft(address,uint256,uint256,bool,bool)": "infinite",
						"resellNft(address,uint256,uint256,bool,bool)": "infinite"
					}
				},
				"methodIdentifiers": {
					"LISTING_FEE()": "2b86ae38",
					"SELLING_FEE()": "cdc66b2c",
					"buyNft(address,uint256)": "4ddf4f8f",
					"getListedNfts(bool,bool)": "81372a9b",
					"getListingFee()": "b8fe6abe",
					"getMyListedNfts()": "1f4cc4db",
					"getMyNfts()": "047b07bf",
					"listNft(address,uint256,uint256,bool,bool)": "33431c0a",
					"resellNft(address,uint256,uint256,bool,bool)": "f5860220"
				}
			},
			"storageLayout": {
				"storage": [
					{
						"astId": 10,
						"contract": "contracts/Marketplace.sol:Marketplace",
						"label": "_status",
						"offset": 0,
						"slot": "0",
						"type": "t_uint256"
					},
					{
						"astId": 1734,
						"contract": "contracts/Marketplace.sol:Marketplace",
						"label": "_nftsSold",
						"offset": 0,
						"slot": "1",
						"type": "t_struct(Counter)1390_storage"
					},
					{
						"astId": 1737,
						"contract": "contracts/Marketplace.sol:Marketplace",
						"label": "_nftCount",
						"offset": 0,
						"slot": "2",
						"type": "t_struct(Counter)1390_storage"
					},
					{
						"astId": 1740,
						"contract": "contracts/Marketplace.sol:Marketplace",
						"label": "LISTING_FEE",
						"offset": 0,
						"slot": "3",
						"type": "t_uint256"
					},
					{
						"astId": 1743,
						"contract": "contracts/Marketplace.sol:Marketplace",
						"label": "SELLING_FEE",
						"offset": 0,
						"slot": "4",
						"type": "t_uint256"
					},
					{
						"astId": 1745,
						"contract": "contracts/Marketplace.sol:Marketplace",
						"label": "_marketOwner",
						"offset": 0,
						"slot": "5",
						"type": "t_address_payable"
					},
					{
						"astId": 1750,
						"contract": "contracts/Marketplace.sol:Marketplace",
						"label": "_idToNFT",
						"offset": 0,
						"slot": "6",
						"type": "t_mapping(t_uint256,t_struct(NFT)1767_storage)"
					}
				],
				"types": {
					"t_address": {
						"encoding": "inplace",
						"label": "address",
						"numberOfBytes": "20"
					},
					"t_address_payable": {
						"encoding": "inplace",
						"label": "address payable",
						"numberOfBytes": "20"
					},
					"t_bool": {
						"encoding": "inplace",
						"label": "bool",
						"numberOfBytes": "1"
					},
					"t_mapping(t_uint256,t_struct(NFT)1767_storage)": {
						"encoding": "mapping",
						"key": "t_uint256",
						"label": "mapping(uint256 => struct Marketplace.NFT)",
						"numberOfBytes": "32",
						"value": "t_struct(NFT)1767_storage"
					},
					"t_struct(Counter)1390_storage": {
						"encoding": "inplace",
						"label": "struct Counters.Counter",
						"members": [
							{
								"astId": 1389,
								"contract": "contracts/Marketplace.sol:Marketplace",
								"label": "_value",
								"offset": 0,
								"slot": "0",
								"type": "t_uint256"
							}
						],
						"numberOfBytes": "32"
					},
					"t_struct(NFT)1767_storage": {
						"encoding": "inplace",
						"label": "struct Marketplace.NFT",
						"members": [
							{
								"astId": 1752,
								"contract": "contracts/Marketplace.sol:Marketplace",
								"label": "nftContract",
								"offset": 0,
								"slot": "0",
								"type": "t_address"
							},
							{
								"astId": 1754,
								"contract": "contracts/Marketplace.sol:Marketplace",
								"label": "tokenId",
								"offset": 0,
								"slot": "1",
								"type": "t_uint256"
							},
							{
								"astId": 1756,
								"contract": "contracts/Marketplace.sol:Marketplace",
								"label": "seller",
								"offset": 0,
								"slot": "2",
								"type": "t_address_payable"
							},
							{
								"astId": 1758,
								"contract": "contracts/Marketplace.sol:Marketplace",
								"label": "owner",
								"offset": 0,
								"slot": "3",
								"type": "t_address_payable"
							},
							{
								"astId": 1760,
								"contract": "contracts/Marketplace.sol:Marketplace",
								"label": "price",
								"offset": 0,
								"slot": "4",
								"type": "t_uint256"
							},
							{
								"astId": 1762,
								"contract": "contracts/Marketplace.sol:Marketplace",
								"label": "bid",
								"offset": 0,
								"slot": "5",
								"type": "t_bool"
							},
							{
								"astId": 1764,
								"contract": "contracts/Marketplace.sol:Marketplace",
								"label": "subscribe",
								"offset": 1,
								"slot": "5",
								"type": "t_bool"
							},
							{
								"astId": 1766,
								"contract": "contracts/Marketplace.sol:Marketplace",
								"label": "listed",
								"offset": 2,
								"slot": "5",
								"type": "t_bool"
							}
						],
						"numberOfBytes": "192"
					},
					"t_uint256": {
						"encoding": "inplace",
						"label": "uint256",
						"numberOfBytes": "32"
					}
				}
			},
			"userdoc": {
				"kind": "user",
				"methods": {},
				"version": 1
			}
		}
	}
}