{
	"contracts/PreSale.sol": {
		"PreSale": {
			"abi": [
				{
					"inputs": [
						{
							"internalType": "contract IERC20",
							"name": "_rewardToken",
							"type": "address"
						},
						{
							"internalType": "contract IERC20",
							"name": "_paymentToken",
							"type": "address"
						},
						{
							"internalType": "uint256",
							"name": "_limit",
							"type": "uint256"
						},
						{
							"internalType": "uint256",
							"name": "_softcap",
							"type": "uint256"
						},
						{
							"internalType": "uint256",
							"name": "_price",
							"type": "uint256"
						}
					],
					"stateMutability": "nonpayable",
					"type": "constructor"
				},
				{
					"anonymous": false,
					"inputs": [
						{
							"indexed": true,
							"internalType": "uint256",
							"name": "amount",
							"type": "uint256"
						}
					],
					"name": "AddedToWhitelist",
					"type": "event"
				},
				{
					"anonymous": false,
					"inputs": [
						{
							"indexed": true,
							"internalType": "uint256",
							"name": "amount",
							"type": "uint256"
						}
					],
					"name": "AddedToWhitelistFromSaft",
					"type": "event"
				},
				{
					"anonymous": false,
					"inputs": [
						{
							"indexed": true,
							"internalType": "address",
							"name": "buyer",
							"type": "address"
						},
						{
							"indexed": true,
							"internalType": "uint256",
							"name": "amount",
							"type": "uint256"
						}
					],
					"name": "Bought",
					"type": "event"
				},
				{
					"anonymous": false,
					"inputs": [
						{
							"indexed": true,
							"internalType": "address",
							"name": "newToken",
							"type": "address"
						}
					],
					"name": "ChangeRewardToken",
					"type": "event"
				},
				{
					"anonymous": false,
					"inputs": [
						{
							"indexed": true,
							"internalType": "address",
							"name": "owner",
							"type": "address"
						},
						{
							"indexed": true,
							"internalType": "uint256",
							"name": "amount",
							"type": "uint256"
						}
					],
					"name": "Claimed",
					"type": "event"
				},
				{
					"anonymous": false,
					"inputs": [
						{
							"indexed": true,
							"internalType": "address",
							"name": "owner",
							"type": "address"
						},
						{
							"indexed": true,
							"internalType": "uint256",
							"name": "amount",
							"type": "uint256"
						}
					],
					"name": "DepositedInVestingPool",
					"type": "event"
				},
				{
					"anonymous": false,
					"inputs": [
						{
							"indexed": true,
							"internalType": "address",
							"name": "previousOwner",
							"type": "address"
						},
						{
							"indexed": true,
							"internalType": "address",
							"name": "newOwner",
							"type": "address"
						}
					],
					"name": "OwnershipTransferred",
					"type": "event"
				},
				{
					"anonymous": false,
					"inputs": [
						{
							"indexed": true,
							"internalType": "uint256",
							"name": "claimDate",
							"type": "uint256"
						}
					],
					"name": "SaleEnded",
					"type": "event"
				},
				{
					"inputs": [],
					"name": "afterDays",
					"outputs": [
						{
							"internalType": "uint256",
							"name": "",
							"type": "uint256"
						}
					],
					"stateMutability": "view",
					"type": "function"
				},
				{
					"inputs": [
						{
							"internalType": "address",
							"name": "",
							"type": "address"
						}
					],
					"name": "bought",
					"outputs": [
						{
							"internalType": "uint256",
							"name": "",
							"type": "uint256"
						}
					],
					"stateMutability": "view",
					"type": "function"
				},
				{
					"inputs": [
						{
							"internalType": "uint256",
							"name": "amount",
							"type": "uint256"
						}
					],
					"name": "buy",
					"outputs": [],
					"stateMutability": "payable",
					"type": "function"
				},
				{
					"inputs": [],
					"name": "claim",
					"outputs": [],
					"stateMutability": "nonpayable",
					"type": "function"
				},
				{
					"inputs": [
						{
							"internalType": "uint256",
							"name": "_afterDays",
							"type": "uint256"
						}
					],
					"name": "claimAndEndSale",
					"outputs": [],
					"stateMutability": "nonpayable",
					"type": "function"
				},
				{
					"inputs": [
						{
							"internalType": "address",
							"name": "",
							"type": "address"
						}
					],
					"name": "claimed",
					"outputs": [
						{
							"internalType": "uint256",
							"name": "",
							"type": "uint256"
						}
					],
					"stateMutability": "view",
					"type": "function"
				},
				{
					"inputs": [
						{
							"internalType": "address",
							"name": "",
							"type": "address"
						}
					],
					"name": "claimedTokens",
					"outputs": [
						{
							"internalType": "uint256",
							"name": "",
							"type": "uint256"
						}
					],
					"stateMutability": "view",
					"type": "function"
				},
				{
					"inputs": [],
					"name": "cliffPeriod",
					"outputs": [
						{
							"internalType": "uint256",
							"name": "",
							"type": "uint256"
						}
					],
					"stateMutability": "view",
					"type": "function"
				},
				{
					"inputs": [],
					"name": "disableWhitelist",
					"outputs": [],
					"stateMutability": "nonpayable",
					"type": "function"
				},
				{
					"inputs": [],
					"name": "getCurrentPercentage",
					"outputs": [
						{
							"internalType": "uint256",
							"name": "",
							"type": "uint256"
						}
					],
					"stateMutability": "view",
					"type": "function"
				},
				{
					"inputs": [],
					"name": "getRemainingBalance",
					"outputs": [
						{
							"internalType": "uint256",
							"name": "",
							"type": "uint256"
						}
					],
					"stateMutability": "view",
					"type": "function"
				},
				{
					"inputs": [],
					"name": "initialClaimPercentage",
					"outputs": [
						{
							"internalType": "uint256",
							"name": "",
							"type": "uint256"
						}
					],
					"stateMutability": "view",
					"type": "function"
				},
				{
					"inputs": [
						{
							"internalType": "address",
							"name": "",
							"type": "address"
						}
					],
					"name": "lastClaimAddress",
					"outputs": [
						{
							"internalType": "address",
							"name": "",
							"type": "address"
						}
					],
					"stateMutability": "view",
					"type": "function"
				},
				{
					"inputs": [],
					"name": "limit",
					"outputs": [
						{
							"internalType": "uint256",
							"name": "",
							"type": "uint256"
						}
					],
					"stateMutability": "view",
					"type": "function"
				},
				{
					"inputs": [],
					"name": "owner",
					"outputs": [
						{
							"internalType": "address",
							"name": "",
							"type": "address"
						}
					],
					"stateMutability": "view",
					"type": "function"
				},
				{
					"inputs": [],
					"name": "paymentToken",
					"outputs": [
						{
							"internalType": "contract IERC20",
							"name": "",
							"type": "address"
						}
					],
					"stateMutability": "view",
					"type": "function"
				},
				{
					"inputs": [],
					"name": "percentagePerPeriod",
					"outputs": [
						{
							"internalType": "uint256",
							"name": "",
							"type": "uint256"
						}
					],
					"stateMutability": "view",
					"type": "function"
				},
				{
					"inputs": [],
					"name": "period",
					"outputs": [
						{
							"internalType": "uint256",
							"name": "",
							"type": "uint256"
						}
					],
					"stateMutability": "view",
					"type": "function"
				},
				{
					"inputs": [],
					"name": "pricePerToken",
					"outputs": [
						{
							"internalType": "uint256",
							"name": "",
							"type": "uint256"
						}
					],
					"stateMutability": "view",
					"type": "function"
				},
				{
					"inputs": [],
					"name": "renounceOwnership",
					"outputs": [],
					"stateMutability": "nonpayable",
					"type": "function"
				},
				{
					"inputs": [],
					"name": "requireWhitelist",
					"outputs": [
						{
							"internalType": "bool",
							"name": "",
							"type": "bool"
						}
					],
					"stateMutability": "view",
					"type": "function"
				},
				{
					"inputs": [],
					"name": "rewardToken",
					"outputs": [
						{
							"internalType": "contract IERC20",
							"name": "",
							"type": "address"
						}
					],
					"stateMutability": "view",
					"type": "function"
				},
				{
					"inputs": [],
					"name": "saleEnded",
					"outputs": [
						{
							"internalType": "uint256",
							"name": "",
							"type": "uint256"
						}
					],
					"stateMutability": "view",
					"type": "function"
				},
				{
					"inputs": [],
					"name": "softcap",
					"outputs": [
						{
							"internalType": "uint256",
							"name": "",
							"type": "uint256"
						}
					],
					"stateMutability": "view",
					"type": "function"
				},
				{
					"inputs": [],
					"name": "soldTokens",
					"outputs": [
						{
							"internalType": "uint256",
							"name": "",
							"type": "uint256"
						}
					],
					"stateMutability": "view",
					"type": "function"
				},
				{
					"inputs": [
						{
							"internalType": "address",
							"name": "newOwner",
							"type": "address"
						}
					],
					"name": "transferOwnership",
					"outputs": [],
					"stateMutability": "nonpayable",
					"type": "function"
				},
				{
					"inputs": [
						{
							"internalType": "uint256",
							"name": "_afterDays",
							"type": "uint256"
						}
					],
					"name": "updateAfterDays",
					"outputs": [],
					"stateMutability": "nonpayable",
					"type": "function"
				},
				{
					"inputs": [
						{
							"internalType": "contract IERC20",
							"name": "_newRewardToken",
							"type": "address"
						}
					],
					"name": "updateRewardToken",
					"outputs": [],
					"stateMutability": "nonpayable",
					"type": "function"
				},
				{
					"inputs": [
						{
							"internalType": "address[]",
							"name": "addresses",
							"type": "address[]"
						},
						{
							"internalType": "uint256[]",
							"name": "amounts",
							"type": "uint256[]"
						}
					],
					"name": "whitelistFromSAFT",
					"outputs": [],
					"stateMutability": "nonpayable",
					"type": "function"
				},
				{
					"inputs": [
						{
							"internalType": "address",
							"name": "",
							"type": "address"
						}
					],
					"name": "whitelisted",
					"outputs": [
						{
							"internalType": "bool",
							"name": "",
							"type": "bool"
						}
					],
					"stateMutability": "view",
					"type": "function"
				}
			],
			"devdoc": {
				"kind": "dev",
				"methods": {
					"owner()": {
						"details": "Returns the address of the current owner."
					},
					"renounceOwnership()": {
						"details": "Leaves the contract without owner. It will not be possible to call `onlyOwner` functions anymore. Can only be called by the current owner. NOTE: Renouncing ownership will leave the contract without an owner, thereby removing any functionality that is only available to the owner."
					},
					"transferOwnership(address)": {
						"details": "Transfers ownership of the contract to a new account (`newOwner`). Can only be called by the current owner."
					}
				},
				"version": 1
			},
			"evm": {
				"assembly": "    /* \"contracts/PreSale.sol\":434:11641  contract PreSale is Ownable {... */\n  mstore(0x40, 0x80)\n    /* \"contracts/PreSale.sol\":1288:1289  0 */\n  0x00\n    /* \"contracts/PreSale.sol\":1261:1289  uint256 public saleEnded = 0 */\n  0x07\n  sstore\n    /* \"contracts/PreSale.sol\":1931:1935  true */\n  0x01\n    /* \"contracts/PreSale.sol\":1900:1935  bool public requireWhitelist = true */\n  0x09\n  exp(0x0100, 0x00)\n  dup2\n  sload\n  dup2\n  0xff\n  mul\n  not\n  and\n  swap1\n  dup4\n  iszero\n  iszero\n  mul\n  or\n  swap1\n  sstore\n  pop\n    /* \"contracts/PreSale.sol\":3199:3584  constructor(IERC20 _rewardToken, IERC20 _paymentToken, uint256 _limit, uint256 _softcap, uint256 _price) {... */\n  callvalue\n  dup1\n  iszero\n  tag_1\n  jumpi\n  0x00\n  dup1\n  revert\ntag_1:\n  pop\n  mload(0x40)\n  sub(codesize, bytecodeSize)\n  dup1\n  bytecodeSize\n  dup4\n  codecopy\n  dup2\n  dup2\n  add\n  0x40\n  mstore\n  dup2\n  add\n  swap1\n  tag_2\n  swap2\n  swap1\n  tag_3\n  jump\t// in\ntag_2:\n    /* \"@openzeppelin/contracts/access/Ownable.sol\":867:890  _setOwner(_msgSender()) */\n  tag_7\n    /* \"@openzeppelin/contracts/access/Ownable.sol\":877:889  _msgSender() */\n  tag_8\n    /* \"@openzeppelin/contracts/access/Ownable.sol\":877:887  _msgSender */\n  shl(0x20, tag_9)\n    /* \"@openzeppelin/contracts/access/Ownable.sol\":877:889  _msgSender() */\n  0x20\n  shr\n  jump\t// in\ntag_8:\n    /* \"@openzeppelin/contracts/access/Ownable.sol\":867:876  _setOwner */\n  shl(0x20, tag_10)\n    /* \"@openzeppelin/contracts/access/Ownable.sol\":867:890  _setOwner(_msgSender()) */\n  0x20\n  shr\n  jump\t// in\ntag_7:\n    /* \"contracts/PreSale.sol\":3331:3332  0 */\n  0x00\n    /* \"contracts/PreSale.sol\":3322:3328  _price */\n  dup2\n    /* \"contracts/PreSale.sol\":3322:3332  _price > 0 */\n  gt\n    /* \"contracts/PreSale.sol\":3314:3383  require(_price > 0, \"ABOAT::error: Price has to be higher than zero\") */\n  tag_12\n  jumpi\n  mload(0x40)\n  0x08c379a000000000000000000000000000000000000000000000000000000000\n  dup2\n  mstore\n  0x04\n  add\n  tag_13\n  swap1\n  tag_14\n  jump\t// in\ntag_13:\n  mload(0x40)\n  dup1\n  swap2\n  sub\n  swap1\n  revert\ntag_12:\n    /* \"contracts/PreSale.sol\":3407:3419  _rewardToken */\n  dup5\n    /* \"contracts/PreSale.sol\":3393:3404  rewardToken */\n  0x01\n  0x00\n    /* \"contracts/PreSale.sol\":3393:3419  rewardToken = _rewardToken */\n  0x0100\n  exp\n  dup2\n  sload\n  dup2\n  0xffffffffffffffffffffffffffffffffffffffff\n  mul\n  not\n  and\n  swap1\n  dup4\n  0xffffffffffffffffffffffffffffffffffffffff\n  and\n  mul\n  or\n  swap1\n  sstore\n  pop\n    /* \"contracts/PreSale.sol\":3444:3457  _paymentToken */\n  dup4\n    /* \"contracts/PreSale.sol\":3429:3441  paymentToken */\n  0x02\n  0x00\n    /* \"contracts/PreSale.sol\":3429:3457  paymentToken = _paymentToken */\n  0x0100\n  exp\n  dup2\n  sload\n  dup2\n  0xffffffffffffffffffffffffffffffffffffffff\n  mul\n  not\n  and\n  swap1\n  dup4\n  0xffffffffffffffffffffffffffffffffffffffff\n  and\n  mul\n  or\n  swap1\n  sstore\n  pop\n    /* \"contracts/PreSale.sol\":3475:3481  _limit */\n  dup3\n    /* \"contracts/PreSale.sol\":3467:3472  limit */\n  0x04\n    /* \"contracts/PreSale.sol\":3467:3481  limit = _limit */\n  dup2\n  swap1\n  sstore\n  pop\n    /* \"contracts/PreSale.sol\":3501:3509  _softcap */\n  dup2\n    /* \"contracts/PreSale.sol\":3491:3498  softcap */\n  0x05\n    /* \"contracts/PreSale.sol\":3491:3509  softcap = _softcap */\n  dup2\n  swap1\n  sstore\n  pop\n    /* \"contracts/PreSale.sol\":3571:3577  _price */\n  dup1\n    /* \"contracts/PreSale.sol\":3555:3568  pricePerToken */\n  0x03\n    /* \"contracts/PreSale.sol\":3555:3577  pricePerToken = _price */\n  dup2\n  swap1\n  sstore\n  pop\n    /* \"contracts/PreSale.sol\":3199:3584  constructor(IERC20 _rewardToken, IERC20 _paymentToken, uint256 _limit, uint256 _softcap, uint256 _price) {... */\n  pop\n  pop\n  pop\n  pop\n  pop\n    /* \"contracts/PreSale.sol\":434:11641  contract PreSale is Ownable {... */\n  jump(tag_15)\n    /* \"@openzeppelin/contracts/utils/Context.sol\":586:682  function _msgSender() internal view virtual returns (address) {... */\ntag_9:\n    /* \"@openzeppelin/contracts/utils/Context.sol\":639:646  address */\n  0x00\n    /* \"@openzeppelin/contracts/utils/Context.sol\":665:675  msg.sender */\n  caller\n    /* \"@openzeppelin/contracts/utils/Context.sol\":658:675  return msg.sender */\n  swap1\n  pop\n    /* \"@openzeppelin/contracts/utils/Context.sol\":586:682  function _msgSender() internal view virtual returns (address) {... */\n  swap1\n  jump\t// out\n    /* \"@openzeppelin/contracts/access/Ownable.sol\":2041:2210  function _setOwner(address newOwner) private {... */\ntag_10:\n    /* \"@openzeppelin/contracts/access/Ownable.sol\":2096:2112  address oldOwner */\n  0x00\n    /* \"@openzeppelin/contracts/access/Ownable.sol\":2115:2121  _owner */\n  dup1\n  0x00\n  swap1\n  sload\n  swap1\n  0x0100\n  exp\n  swap1\n  div\n  0xffffffffffffffffffffffffffffffffffffffff\n  and\n    /* \"@openzeppelin/contracts/access/Ownable.sol\":2096:2121  address oldOwner = _owner */\n  swap1\n  pop\n    /* \"@openzeppelin/contracts/access/Ownable.sol\":2140:2148  newOwner */\n  dup2\n    /* \"@openzeppelin/contracts/access/Ownable.sol\":2131:2137  _owner */\n  0x00\n  dup1\n    /* \"@openzeppelin/contracts/access/Ownable.sol\":2131:2148  _owner = newOwner */\n  0x0100\n  exp\n  dup2\n  sload\n  dup2\n  0xffffffffffffffffffffffffffffffffffffffff\n  mul\n  not\n  and\n  swap1\n  dup4\n  0xffffffffffffffffffffffffffffffffffffffff\n  and\n  mul\n  or\n  swap1\n  sstore\n  pop\n    /* \"@openzeppelin/contracts/access/Ownable.sol\":2194:2202  newOwner */\n  dup2\n    /* \"@openzeppelin/contracts/access/Ownable.sol\":2163:2203  OwnershipTransferred(oldOwner, newOwner) */\n  0xffffffffffffffffffffffffffffffffffffffff\n  and\n    /* \"@openzeppelin/contracts/access/Ownable.sol\":2184:2192  oldOwner */\n  dup2\n    /* \"@openzeppelin/contracts/access/Ownable.sol\":2163:2203  OwnershipTransferred(oldOwner, newOwner) */\n  0xffffffffffffffffffffffffffffffffffffffff\n  and\n  0x8be0079c531659141344cd1fd0a4f28419497f9722a3daafe3b4186f6b6457e0\n  mload(0x40)\n  mload(0x40)\n  dup1\n  swap2\n  sub\n  swap1\n  log3\n    /* \"@openzeppelin/contracts/access/Ownable.sol\":2086:2210  {... */\n  pop\n    /* \"@openzeppelin/contracts/access/Ownable.sol\":2041:2210  function _setOwner(address newOwner) private {... */\n  pop\n  jump\t// out\n    /* \"#utility.yul\":7:178   */\ntag_19:\n    /* \"#utility.yul\":78:83   */\n  0x00\n    /* \"#utility.yul\":109:115   */\n  dup2\n    /* \"#utility.yul\":103:116   */\n  mload\n    /* \"#utility.yul\":94:116   */\n  swap1\n  pop\n    /* \"#utility.yul\":125:172   */\n  tag_21\n    /* \"#utility.yul\":166:171   */\n  dup2\n    /* \"#utility.yul\":125:172   */\n  tag_22\n  jump\t// in\ntag_21:\n    /* \"#utility.yul\":7:178   */\n  swap3\n  swap2\n  pop\n  pop\n  jump\t// out\n    /* \"#utility.yul\":184:327   */\ntag_23:\n    /* \"#utility.yul\":241:246   */\n  0x00\n    /* \"#utility.yul\":272:278   */\n  dup2\n    /* \"#utility.yul\":266:279   */\n  mload\n    /* \"#utility.yul\":257:279   */\n  swap1\n  pop\n    /* \"#utility.yul\":288:321   */\n  tag_25\n    /* \"#utility.yul\":315:320   */\n  dup2\n    /* \"#utility.yul\":288:321   */\n  tag_26\n  jump\t// in\ntag_25:\n    /* \"#utility.yul\":184:327   */\n  swap3\n  swap2\n  pop\n  pop\n  jump\t// out\n    /* \"#utility.yul\":333:1366   */\ntag_3:\n    /* \"#utility.yul\":467:473   */\n  0x00\n    /* \"#utility.yul\":475:481   */\n  dup1\n    /* \"#utility.yul\":483:489   */\n  0x00\n    /* \"#utility.yul\":491:497   */\n  dup1\n    /* \"#utility.yul\":499:505   */\n  0x00\n    /* \"#utility.yul\":548:551   */\n  0xa0\n    /* \"#utility.yul\":536:545   */\n  dup7\n    /* \"#utility.yul\":527:534   */\n  dup9\n    /* \"#utility.yul\":523:546   */\n  sub\n    /* \"#utility.yul\":519:552   */\n  slt\n    /* \"#utility.yul\":516:636   */\n  iszero\n  tag_28\n  jumpi\n    /* \"#utility.yul\":555:634   */\n  tag_29\n  tag_30\n  jump\t// in\ntag_29:\n    /* \"#utility.yul\":516:636   */\ntag_28:\n    /* \"#utility.yul\":675:676   */\n  0x00\n    /* \"#utility.yul\":700:778   */\n  tag_31\n    /* \"#utility.yul\":770:777   */\n  dup9\n    /* \"#utility.yul\":761:767   */\n  dup3\n    /* \"#utility.yul\":750:759   */\n  dup10\n    /* \"#utility.yul\":746:768   */\n  add\n    /* \"#utility.yul\":700:778   */\n  tag_19\n  jump\t// in\ntag_31:\n    /* \"#utility.yul\":690:778   */\n  swap6\n  pop\n    /* \"#utility.yul\":646:788   */\n  pop\n    /* \"#utility.yul\":827:829   */\n  0x20\n    /* \"#utility.yul\":853:931   */\n  tag_32\n    /* \"#utility.yul\":923:930   */\n  dup9\n    /* \"#utility.yul\":914:920   */\n  dup3\n    /* \"#utility.yul\":903:912   */\n  dup10\n    /* \"#utility.yul\":899:921   */\n  add\n    /* \"#utility.yul\":853:931   */\n  tag_19\n  jump\t// in\ntag_32:\n    /* \"#utility.yul\":843:931   */\n  swap5\n  pop\n    /* \"#utility.yul\":798:941   */\n  pop\n    /* \"#utility.yul\":980:982   */\n  0x40\n    /* \"#utility.yul\":1006:1070   */\n  tag_33\n    /* \"#utility.yul\":1062:1069   */\n  dup9\n    /* \"#utility.yul\":1053:1059   */\n  dup3\n    /* \"#utility.yul\":1042:1051   */\n  dup10\n    /* \"#utility.yul\":1038:1060   */\n  add\n    /* \"#utility.yul\":1006:1070   */\n  tag_23\n  jump\t// in\ntag_33:\n    /* \"#utility.yul\":996:1070   */\n  swap4\n  pop\n    /* \"#utility.yul\":951:1080   */\n  pop\n    /* \"#utility.yul\":1119:1121   */\n  0x60\n    /* \"#utility.yul\":1145:1209   */\n  tag_34\n    /* \"#utility.yul\":1201:1208   */\n  dup9\n    /* \"#utility.yul\":1192:1198   */\n  dup3\n    /* \"#utility.yul\":1181:1190   */\n  dup10\n    /* \"#utility.yul\":1177:1199   */\n  add\n    /* \"#utility.yul\":1145:1209   */\n  tag_23\n  jump\t// in\ntag_34:\n    /* \"#utility.yul\":1135:1209   */\n  swap3\n  pop\n    /* \"#utility.yul\":1090:1219   */\n  pop\n    /* \"#utility.yul\":1258:1261   */\n  0x80\n    /* \"#utility.yul\":1285:1349   */\n  tag_35\n    /* \"#utility.yul\":1341:1348   */\n  dup9\n    /* \"#utility.yul\":1332:1338   */\n  dup3\n    /* \"#utility.yul\":1321:1330   */\n  dup10\n    /* \"#utility.yul\":1317:1339   */\n  add\n    /* \"#utility.yul\":1285:1349   */\n  tag_23\n  jump\t// in\ntag_35:\n    /* \"#utility.yul\":1275:1349   */\n  swap2\n  pop\n    /* \"#utility.yul\":1229:1359   */\n  pop\n    /* \"#utility.yul\":333:1366   */\n  swap3\n  swap6\n  pop\n  swap3\n  swap6\n  swap1\n  swap4\n  pop\n  jump\t// out\n    /* \"#utility.yul\":1372:1738   */\ntag_36:\n    /* \"#utility.yul\":1514:1517   */\n  0x00\n    /* \"#utility.yul\":1535:1602   */\n  tag_38\n    /* \"#utility.yul\":1599:1601   */\n  0x2e\n    /* \"#utility.yul\":1594:1597   */\n  dup4\n    /* \"#utility.yul\":1535:1602   */\n  tag_39\n  jump\t// in\ntag_38:\n    /* \"#utility.yul\":1528:1602   */\n  swap2\n  pop\n    /* \"#utility.yul\":1611:1704   */\n  tag_40\n    /* \"#utility.yul\":1700:1703   */\n  dup3\n    /* \"#utility.yul\":1611:1704   */\n  tag_41\n  jump\t// in\ntag_40:\n    /* \"#utility.yul\":1729:1731   */\n  0x40\n    /* \"#utility.yul\":1724:1727   */\n  dup3\n    /* \"#utility.yul\":1720:1732   */\n  add\n    /* \"#utility.yul\":1713:1732   */\n  swap1\n  pop\n    /* \"#utility.yul\":1372:1738   */\n  swap2\n  swap1\n  pop\n  jump\t// out\n    /* \"#utility.yul\":1744:2163   */\ntag_14:\n    /* \"#utility.yul\":1910:1914   */\n  0x00\n    /* \"#utility.yul\":1948:1950   */\n  0x20\n    /* \"#utility.yul\":1937:1946   */\n  dup3\n    /* \"#utility.yul\":1933:1951   */\n  add\n    /* \"#utility.yul\":1925:1951   */\n  swap1\n  pop\n    /* \"#utility.yul\":1997:2006   */\n  dup2\n    /* \"#utility.yul\":1991:1995   */\n  dup2\n    /* \"#utility.yul\":1987:2007   */\n  sub\n    /* \"#utility.yul\":1983:1984   */\n  0x00\n    /* \"#utility.yul\":1972:1981   */\n  dup4\n    /* \"#utility.yul\":1968:1985   */\n  add\n    /* \"#utility.yul\":1961:2008   */\n  mstore\n    /* \"#utility.yul\":2025:2156   */\n  tag_43\n    /* \"#utility.yul\":2151:2155   */\n  dup2\n    /* \"#utility.yul\":2025:2156   */\n  tag_36\n  jump\t// in\ntag_43:\n    /* \"#utility.yul\":2017:2156   */\n  swap1\n  pop\n    /* \"#utility.yul\":1744:2163   */\n  swap2\n  swap1\n  pop\n  jump\t// out\n    /* \"#utility.yul\":2250:2419   */\ntag_39:\n    /* \"#utility.yul\":2334:2345   */\n  0x00\n    /* \"#utility.yul\":2368:2374   */\n  dup3\n    /* \"#utility.yul\":2363:2366   */\n  dup3\n    /* \"#utility.yul\":2356:2375   */\n  mstore\n    /* \"#utility.yul\":2408:2412   */\n  0x20\n    /* \"#utility.yul\":2403:2406   */\n  dup3\n    /* \"#utility.yul\":2399:2413   */\n  add\n    /* \"#utility.yul\":2384:2413   */\n  swap1\n  pop\n    /* \"#utility.yul\":2250:2419   */\n  swap3\n  swap2\n  pop\n  pop\n  jump\t// out\n    /* \"#utility.yul\":2425:2521   */\ntag_47:\n    /* \"#utility.yul\":2462:2469   */\n  0x00\n    /* \"#utility.yul\":2491:2515   */\n  tag_49\n    /* \"#utility.yul\":2509:2514   */\n  dup3\n    /* \"#utility.yul\":2491:2515   */\n  tag_50\n  jump\t// in\ntag_49:\n    /* \"#utility.yul\":2480:2515   */\n  swap1\n  pop\n    /* \"#utility.yul\":2425:2521   */\n  swap2\n  swap1\n  pop\n  jump\t// out\n    /* \"#utility.yul\":2527:2637   */\ntag_51:\n    /* \"#utility.yul\":2578:2585   */\n  0x00\n    /* \"#utility.yul\":2607:2631   */\n  tag_53\n    /* \"#utility.yul\":2625:2630   */\n  dup3\n    /* \"#utility.yul\":2607:2631   */\n  tag_47\n  jump\t// in\ntag_53:\n    /* \"#utility.yul\":2596:2631   */\n  swap1\n  pop\n    /* \"#utility.yul\":2527:2637   */\n  swap2\n  swap1\n  pop\n  jump\t// out\n    /* \"#utility.yul\":2643:2769   */\ntag_50:\n    /* \"#utility.yul\":2680:2687   */\n  0x00\n    /* \"#utility.yul\":2720:2762   */\n  0xffffffffffffffffffffffffffffffffffffffff\n    /* \"#utility.yul\":2713:2718   */\n  dup3\n    /* \"#utility.yul\":2709:2763   */\n  and\n    /* \"#utility.yul\":2698:2763   */\n  swap1\n  pop\n    /* \"#utility.yul\":2643:2769   */\n  swap2\n  swap1\n  pop\n  jump\t// out\n    /* \"#utility.yul\":2775:2852   */\ntag_55:\n    /* \"#utility.yul\":2812:2819   */\n  0x00\n    /* \"#utility.yul\":2841:2846   */\n  dup2\n    /* \"#utility.yul\":2830:2846   */\n  swap1\n  pop\n    /* \"#utility.yul\":2775:2852   */\n  swap2\n  swap1\n  pop\n  jump\t// out\n    /* \"#utility.yul\":2981:3098   */\ntag_30:\n    /* \"#utility.yul\":3090:3091   */\n  0x00\n    /* \"#utility.yul\":3087:3088   */\n  dup1\n    /* \"#utility.yul\":3080:3092   */\n  revert\n    /* \"#utility.yul\":3104:3337   */\ntag_41:\n    /* \"#utility.yul\":3244:3278   */\n  0x41424f41543a3a6572726f723a2050726963652068617320746f206265206869\n    /* \"#utility.yul\":3240:3241   */\n  0x00\n    /* \"#utility.yul\":3232:3238   */\n  dup3\n    /* \"#utility.yul\":3228:3242   */\n  add\n    /* \"#utility.yul\":3221:3279   */\n  mstore\n    /* \"#utility.yul\":3313:3329   */\n  0x67686572207468616e207a65726f000000000000000000000000000000000000\n    /* \"#utility.yul\":3308:3310   */\n  0x20\n    /* \"#utility.yul\":3300:3306   */\n  dup3\n    /* \"#utility.yul\":3296:3311   */\n  add\n    /* \"#utility.yul\":3289:3330   */\n  mstore\n    /* \"#utility.yul\":3104:3337   */\n  pop\n  jump\t// out\n    /* \"#utility.yul\":3343:3493   */\ntag_22:\n    /* \"#utility.yul\":3430:3468   */\n  tag_62\n    /* \"#utility.yul\":3462:3467   */\n  dup2\n    /* \"#utility.yul\":3430:3468   */\n  tag_51\n  jump\t// in\ntag_62:\n    /* \"#utility.yul\":3423:3428   */\n  dup2\n    /* \"#utility.yul\":3420:3469   */\n  eq\n    /* \"#utility.yul\":3410:3487   */\n  tag_63\n  jumpi\n    /* \"#utility.yul\":3483:3484   */\n  0x00\n    /* \"#utility.yul\":3480:3481   */\n  dup1\n    /* \"#utility.yul\":3473:3485   */\n  revert\n    /* \"#utility.yul\":3410:3487   */\ntag_63:\n    /* \"#utility.yul\":3343:3493   */\n  pop\n  jump\t// out\n    /* \"#utility.yul\":3499:3621   */\ntag_26:\n    /* \"#utility.yul\":3572:3596   */\n  tag_65\n    /* \"#utility.yul\":3590:3595   */\n  dup2\n    /* \"#utility.yul\":3572:3596   */\n  tag_55\n  jump\t// in\ntag_65:\n    /* \"#utility.yul\":3565:3570   */\n  dup2\n    /* \"#utility.yul\":3562:3597   */\n  eq\n    /* \"#utility.yul\":3552:3615   */\n  tag_66\n  jumpi\n    /* \"#utility.yul\":3611:3612   */\n  0x00\n    /* \"#utility.yul\":3608:3609   */\n  dup1\n    /* \"#utility.yul\":3601:3613   */\n  revert\n    /* \"#utility.yul\":3552:3615   */\ntag_66:\n    /* \"#utility.yul\":3499:3621   */\n  pop\n  jump\t// out\n    /* \"contracts/PreSale.sol\":434:11641  contract PreSale is Ownable {... */\ntag_15:\n  dataSize(sub_0)\n  dup1\n  dataOffset(sub_0)\n  0x00\n  codecopy\n  0x00\n  return\nstop\n\nsub_0: assembly {\n        /* \"contracts/PreSale.sol\":434:11641  contract PreSale is Ownable {... */\n      mstore(0x40, 0x80)\n      jumpi(tag_1, lt(calldatasize, 0x04))\n      shr(0xe0, calldataload(0x00))\n      dup1\n      0xa4d66daf\n      gt\n      tag_32\n      jumpi\n      dup1\n      0xe754e7c4\n      gt\n      tag_33\n      jumpi\n      dup1\n      0xf3739e05\n      gt\n      tag_34\n      jumpi\n      dup1\n      0xf3739e05\n      eq\n      tag_28\n      jumpi\n      dup1\n      0xf7c618c1\n      eq\n      tag_29\n      jumpi\n      dup1\n      0xf89be593\n      eq\n      tag_30\n      jumpi\n      dup1\n      0xf8cf31cb\n      eq\n      tag_31\n      jumpi\n      jump(tag_1)\n    tag_34:\n      dup1\n      0xe754e7c4\n      eq\n      tag_24\n      jumpi\n      dup1\n      0xef78d4fd\n      eq\n      tag_25\n      jumpi\n      dup1\n      0xefe95f51\n      eq\n      tag_26\n      jumpi\n      dup1\n      0xf2fde38b\n      eq\n      tag_27\n      jumpi\n      jump(tag_1)\n    tag_33:\n      dup1\n      0xc884ef83\n      gt\n      tag_35\n      jumpi\n      dup1\n      0xc884ef83\n      eq\n      tag_20\n      jumpi\n      dup1\n      0xd6b0f484\n      eq\n      tag_21\n      jumpi\n      dup1\n      0xd936547e\n      eq\n      tag_22\n      jumpi\n      dup1\n      0xd96a094a\n      eq\n      tag_23\n      jumpi\n      jump(tag_1)\n    tag_35:\n      dup1\n      0xa4d66daf\n      eq\n      tag_17\n      jumpi\n      dup1\n      0xa5ebf835\n      eq\n      tag_18\n      jumpi\n      dup1\n      0xa960c65f\n      eq\n      tag_19\n      jumpi\n      jump(tag_1)\n    tag_32:\n      dup1\n      0x5ed9ebfc\n      gt\n      tag_36\n      jumpi\n      dup1\n      0x856734c4\n      gt\n      tag_37\n      jumpi\n      dup1\n      0x856734c4\n      eq\n      tag_13\n      jumpi\n      dup1\n      0x8da5cb5b\n      eq\n      tag_14\n      jumpi\n      dup1\n      0x9b8906ae\n      eq\n      tag_15\n      jumpi\n      dup1\n      0x9c92431b\n      eq\n      tag_16\n      jumpi\n      jump(tag_1)\n    tag_37:\n      dup1\n      0x5ed9ebfc\n      eq\n      tag_9\n      jumpi\n      dup1\n      0x667022fd\n      eq\n      tag_10\n      jumpi\n      dup1\n      0x715018a6\n      eq\n      tag_11\n      jumpi\n      dup1\n      0x7b1b1de6\n      eq\n      tag_12\n      jumpi\n      jump(tag_1)\n    tag_36:\n      dup1\n      0x2fba2c85\n      gt\n      tag_38\n      jumpi\n      dup1\n      0x2fba2c85\n      eq\n      tag_5\n      jumpi\n      dup1\n      0x3013ce29\n      eq\n      tag_6\n      jumpi\n      dup1\n      0x4e71d92d\n      eq\n      tag_7\n      jumpi\n      dup1\n      0x5372a58e\n      eq\n      tag_8\n      jumpi\n      jump(tag_1)\n    tag_38:\n      dup1\n      0x0c0e0862\n      eq\n      tag_2\n      jumpi\n      dup1\n      0x151bad0a\n      eq\n      tag_3\n      jumpi\n      dup1\n      0x2f661946\n      eq\n      tag_4\n      jumpi\n    tag_1:\n      0x00\n      dup1\n      revert\n        /* \"contracts/PreSale.sol\":6069:6245  function updateAfterDays(uint256 _afterDays) public onlyOwner {... */\n    tag_2:\n      callvalue\n      dup1\n      iszero\n      tag_39\n      jumpi\n      0x00\n      dup1\n      revert\n    tag_39:\n      pop\n      tag_40\n      0x04\n      dup1\n      calldatasize\n      sub\n      dup2\n      add\n      swap1\n      tag_41\n      swap2\n      swap1\n      tag_42\n      jump\t// in\n    tag_41:\n      tag_43\n      jump\t// in\n    tag_40:\n      stop\n        /* \"contracts/PreSale.sol\":1642:1690  uint256 constant public percentagePerPeriod = 50 */\n    tag_3:\n      callvalue\n      dup1\n      iszero\n      tag_44\n      jumpi\n      0x00\n      dup1\n      revert\n    tag_44:\n      pop\n      tag_45\n      tag_46\n      jump\t// in\n    tag_45:\n      mload(0x40)\n      tag_47\n      swap2\n      swap1\n      tag_48\n      jump\t// in\n    tag_47:\n      mload(0x40)\n      dup1\n      swap2\n      sub\n      swap1\n      return\n        /* \"contracts/PreSale.sol\":1774:1814  uint256 constant public cliffPeriod = 90 */\n    tag_4:\n      callvalue\n      dup1\n      iszero\n      tag_49\n      jumpi\n      0x00\n      dup1\n      revert\n    tag_49:\n      pop\n      tag_50\n      tag_51\n      jump\t// in\n    tag_50:\n      mload(0x40)\n      tag_52\n      swap2\n      swap1\n      tag_48\n      jump\t// in\n    tag_52:\n      mload(0x40)\n      dup1\n      swap2\n      sub\n      swap1\n      return\n        /* \"contracts/PreSale.sol\":7505:7780  function getRemainingBalance() public view returns (uint256) {... */\n    tag_5:\n      callvalue\n      dup1\n      iszero\n      tag_53\n      jumpi\n      0x00\n      dup1\n      revert\n    tag_53:\n      pop\n      tag_54\n      tag_55\n      jump\t// in\n    tag_54:\n      mload(0x40)\n      tag_56\n      swap2\n      swap1\n      tag_48\n      jump\t// in\n    tag_56:\n      mload(0x40)\n      dup1\n      swap2\n      sub\n      swap1\n      return\n        /* \"contracts/PreSale.sol\":929:955  IERC20 public paymentToken */\n    tag_6:\n      callvalue\n      dup1\n      iszero\n      tag_57\n      jumpi\n      0x00\n      dup1\n      revert\n    tag_57:\n      pop\n      tag_58\n      tag_59\n      jump\t// in\n    tag_58:\n      mload(0x40)\n      tag_60\n      swap2\n      swap1\n      tag_61\n      jump\t// in\n    tag_60:\n      mload(0x40)\n      dup1\n      swap2\n      sub\n      swap1\n      return\n        /* \"contracts/PreSale.sol\":9827:11639  function claim() public {... */\n    tag_7:\n      callvalue\n      dup1\n      iszero\n      tag_62\n      jumpi\n      0x00\n      dup1\n      revert\n    tag_62:\n      pop\n      tag_63\n      tag_64\n      jump\t// in\n    tag_63:\n      stop\n        /* \"contracts/PreSale.sol\":6255:7176  function whitelistFromSAFT(address[] memory addresses, uint256[] memory amounts) public onlyOwner {... */\n    tag_8:\n      callvalue\n      dup1\n      iszero\n      tag_65\n      jumpi\n      0x00\n      dup1\n      revert\n    tag_65:\n      pop\n      tag_66\n      0x04\n      dup1\n      calldatasize\n      sub\n      dup2\n      add\n      swap1\n      tag_67\n      swap2\n      swap1\n      tag_68\n      jump\t// in\n    tag_67:\n      tag_69\n      jump\t// in\n    tag_66:\n      stop\n        /* \"contracts/PreSale.sol\":1194:1219  uint256 public soldTokens */\n    tag_9:\n      callvalue\n      dup1\n      iszero\n      tag_70\n      jumpi\n      0x00\n      dup1\n      revert\n    tag_70:\n      pop\n      tag_71\n      tag_72\n      jump\t// in\n    tag_71:\n      mload(0x40)\n      tag_73\n      swap2\n      swap1\n      tag_48\n      jump\t// in\n    tag_73:\n      mload(0x40)\n      dup1\n      swap2\n      sub\n      swap1\n      return\n        /* \"contracts/PreSale.sol\":2063:2104  mapping(address => uint256) public bought */\n    tag_10:\n      callvalue\n      dup1\n      iszero\n      tag_74\n      jumpi\n      0x00\n      dup1\n      revert\n    tag_74:\n      pop\n      tag_75\n      0x04\n      dup1\n      calldatasize\n      sub\n      dup2\n      add\n      swap1\n      tag_76\n      swap2\n      swap1\n      tag_77\n      jump\t// in\n    tag_76:\n      tag_78\n      jump\t// in\n    tag_75:\n      mload(0x40)\n      tag_79\n      swap2\n      swap1\n      tag_48\n      jump\t// in\n    tag_79:\n      mload(0x40)\n      dup1\n      swap2\n      sub\n      swap1\n      return\n        /* \"@openzeppelin/contracts/access/Ownable.sol\":1605:1697  function renounceOwnership() public virtual onlyOwner {... */\n    tag_11:\n      callvalue\n      dup1\n      iszero\n      tag_80\n      jumpi\n      0x00\n      dup1\n      revert\n    tag_80:\n      pop\n      tag_81\n      tag_82\n      jump\t// in\n    tag_81:\n      stop\n        /* \"contracts/PreSale.sol\":967:995  uint256 public pricePerToken */\n    tag_12:\n      callvalue\n      dup1\n      iszero\n      tag_83\n      jumpi\n      0x00\n      dup1\n      revert\n    tag_83:\n      pop\n      tag_84\n      tag_85\n      jump\t// in\n    tag_84:\n      mload(0x40)\n      tag_86\n      swap2\n      swap1\n      tag_48\n      jump\t// in\n    tag_86:\n      mload(0x40)\n      dup1\n      swap2\n      sub\n      swap1\n      return\n        /* \"contracts/PreSale.sol\":1900:1935  bool public requireWhitelist = true */\n    tag_13:\n      callvalue\n      dup1\n      iszero\n      tag_87\n      jumpi\n      0x00\n      dup1\n      revert\n    tag_87:\n      pop\n      tag_88\n      tag_89\n      jump\t// in\n    tag_88:\n      mload(0x40)\n      tag_90\n      swap2\n      swap1\n      tag_91\n      jump\t// in\n    tag_90:\n      mload(0x40)\n      dup1\n      swap2\n      sub\n      swap1\n      return\n        /* \"@openzeppelin/contracts/access/Ownable.sol\":973:1058  function owner() public view virtual returns (address) {... */\n    tag_14:\n      callvalue\n      dup1\n      iszero\n      tag_92\n      jumpi\n      0x00\n      dup1\n      revert\n    tag_92:\n      pop\n      tag_93\n      tag_94\n      jump\t// in\n    tag_93:\n      mload(0x40)\n      tag_95\n      swap2\n      swap1\n      tag_96\n      jump\t// in\n    tag_95:\n      mload(0x40)\n      dup1\n      swap2\n      sub\n      swap1\n      return\n        /* \"contracts/PreSale.sol\":1261:1289  uint256 public saleEnded = 0 */\n    tag_15:\n      callvalue\n      dup1\n      iszero\n      tag_97\n      jumpi\n      0x00\n      dup1\n      revert\n    tag_97:\n      pop\n      tag_98\n      tag_99\n      jump\t// in\n    tag_98:\n      mload(0x40)\n      tag_100\n      swap2\n      swap1\n      tag_48\n      jump\t// in\n    tag_100:\n      mload(0x40)\n      dup1\n      swap2\n      sub\n      swap1\n      return\n        /* \"contracts/PreSale.sol\":7790:8303  function getCurrentPercentage() public view returns (uint256) {... */\n    tag_16:\n      callvalue\n      dup1\n      iszero\n      tag_101\n      jumpi\n      0x00\n      dup1\n      revert\n    tag_101:\n      pop\n      tag_102\n      tag_103\n      jump\t// in\n    tag_102:\n      mload(0x40)\n      tag_104\n      swap2\n      swap1\n      tag_48\n      jump\t// in\n    tag_104:\n      mload(0x40)\n      dup1\n      swap2\n      sub\n      swap1\n      return\n        /* \"contracts/PreSale.sol\":1034:1054  uint256 public limit */\n    tag_17:\n      callvalue\n      dup1\n      iszero\n      tag_105\n      jumpi\n      0x00\n      dup1\n      revert\n    tag_105:\n      pop\n      tag_106\n      tag_107\n      jump\t// in\n    tag_106:\n      mload(0x40)\n      tag_108\n      swap2\n      swap1\n      tag_48\n      jump\t// in\n    tag_108:\n      mload(0x40)\n      dup1\n      swap2\n      sub\n      swap1\n      return\n        /* \"contracts/PreSale.sol\":1515:1567  uint256 constant public initialClaimPercentage = 100 */\n    tag_18:\n      callvalue\n      dup1\n      iszero\n      tag_109\n      jumpi\n      0x00\n      dup1\n      revert\n    tag_109:\n      pop\n      tag_110\n      tag_111\n      jump\t// in\n    tag_110:\n      mload(0x40)\n      tag_112\n      swap2\n      swap1\n      tag_48\n      jump\t// in\n    tag_112:\n      mload(0x40)\n      dup1\n      swap2\n      sub\n      swap1\n      return\n        /* \"contracts/PreSale.sol\":2255:2303  mapping(address => uint256) public claimedTokens */\n    tag_19:\n      callvalue\n      dup1\n      iszero\n      tag_113\n      jumpi\n      0x00\n      dup1\n      revert\n    tag_113:\n      pop\n      tag_114\n      0x04\n      dup1\n      calldatasize\n      sub\n      dup2\n      add\n      swap1\n      tag_115\n      swap2\n      swap1\n      tag_77\n      jump\t// in\n    tag_115:\n      tag_116\n      jump\t// in\n    tag_114:\n      mload(0x40)\n      tag_117\n      swap2\n      swap1\n      tag_48\n      jump\t// in\n    tag_117:\n      mload(0x40)\n      dup1\n      swap2\n      sub\n      swap1\n      return\n        /* \"contracts/PreSale.sol\":2152:2194  mapping(address => uint256) public claimed */\n    tag_20:\n      callvalue\n      dup1\n      iszero\n      tag_118\n      jumpi\n      0x00\n      dup1\n      revert\n    tag_118:\n      pop\n      tag_119\n      0x04\n      dup1\n      calldatasize\n      sub\n      dup2\n      add\n      swap1\n      tag_120\n      swap2\n      swap1\n      tag_77\n      jump\t// in\n    tag_120:\n      tag_121\n      jump\t// in\n    tag_119:\n      mload(0x40)\n      tag_122\n      swap2\n      swap1\n      tag_48\n      jump\t// in\n    tag_122:\n      mload(0x40)\n      dup1\n      swap2\n      sub\n      swap1\n      return\n        /* \"contracts/PreSale.sol\":5090:5268  function disableWhitelist() public onlyOwner {... */\n    tag_21:\n      callvalue\n      dup1\n      iszero\n      tag_123\n      jumpi\n      0x00\n      dup1\n      revert\n    tag_123:\n      pop\n      tag_124\n      tag_125\n      jump\t// in\n    tag_124:\n      stop\n        /* \"contracts/PreSale.sol\":2014:2057  mapping(address => bool) public whitelisted */\n    tag_22:\n      callvalue\n      dup1\n      iszero\n      tag_126\n      jumpi\n      0x00\n      dup1\n      revert\n    tag_126:\n      pop\n      tag_127\n      0x04\n      dup1\n      calldatasize\n      sub\n      dup2\n      add\n      swap1\n      tag_128\n      swap2\n      swap1\n      tag_77\n      jump\t// in\n    tag_128:\n      tag_129\n      jump\t// in\n    tag_127:\n      mload(0x40)\n      tag_130\n      swap2\n      swap1\n      tag_91\n      jump\t// in\n    tag_130:\n      mload(0x40)\n      dup1\n      swap2\n      sub\n      swap1\n      return\n        /* \"contracts/PreSale.sol\":8639:9690  function buy(uint256 amount) public payable {... */\n    tag_23:\n      tag_131\n      0x04\n      dup1\n      calldatasize\n      sub\n      dup2\n      add\n      swap1\n      tag_132\n      swap2\n      swap1\n      tag_42\n      jump\t// in\n    tag_132:\n      tag_133\n      jump\t// in\n    tag_131:\n      stop\n        /* \"contracts/PreSale.sol\":1343:1367  uint256 public afterDays */\n    tag_24:\n      callvalue\n      dup1\n      iszero\n      tag_134\n      jumpi\n      0x00\n      dup1\n      revert\n    tag_134:\n      pop\n      tag_135\n      tag_136\n      jump\t// in\n    tag_135:\n      mload(0x40)\n      tag_137\n      swap2\n      swap1\n      tag_48\n      jump\t// in\n    tag_137:\n      mload(0x40)\n      dup1\n      swap2\n      sub\n      swap1\n      return\n        /* \"contracts/PreSale.sol\":1434:1469  uint256 constant public period = 30 */\n    tag_25:\n      callvalue\n      dup1\n      iszero\n      tag_138\n      jumpi\n      0x00\n      dup1\n      revert\n    tag_138:\n      pop\n      tag_139\n      tag_140\n      jump\t// in\n    tag_139:\n      mload(0x40)\n      tag_141\n      swap2\n      swap1\n      tag_48\n      jump\t// in\n    tag_141:\n      mload(0x40)\n      dup1\n      swap2\n      sub\n      swap1\n      return\n        /* \"contracts/PreSale.sol\":3916:5080  function claimAndEndSale(uint256 _afterDays) public onlyOwner {... */\n    tag_26:\n      callvalue\n      dup1\n      iszero\n      tag_142\n      jumpi\n      0x00\n      dup1\n      revert\n    tag_142:\n      pop\n      tag_143\n      0x04\n      dup1\n      calldatasize\n      sub\n      dup2\n      add\n      swap1\n      tag_144\n      swap2\n      swap1\n      tag_42\n      jump\t// in\n    tag_144:\n      tag_145\n      jump\t// in\n    tag_143:\n      stop\n        /* \"@openzeppelin/contracts/access/Ownable.sol\":1846:2035  function transferOwnership(address newOwner) public virtual onlyOwner {... */\n    tag_27:\n      callvalue\n      dup1\n      iszero\n      tag_146\n      jumpi\n      0x00\n      dup1\n      revert\n    tag_146:\n      pop\n      tag_147\n      0x04\n      dup1\n      calldatasize\n      sub\n      dup2\n      add\n      swap1\n      tag_148\n      swap2\n      swap1\n      tag_77\n      jump\t// in\n    tag_148:\n      tag_149\n      jump\t// in\n    tag_147:\n      stop\n        /* \"contracts/PreSale.sol\":2351:2402  mapping(address => address) public lastClaimAddress */\n    tag_28:\n      callvalue\n      dup1\n      iszero\n      tag_150\n      jumpi\n      0x00\n      dup1\n      revert\n    tag_150:\n      pop\n      tag_151\n      0x04\n      dup1\n      calldatasize\n      sub\n      dup2\n      add\n      swap1\n      tag_152\n      swap2\n      swap1\n      tag_77\n      jump\t// in\n    tag_152:\n      tag_153\n      jump\t// in\n    tag_151:\n      mload(0x40)\n      tag_154\n      swap2\n      swap1\n      tag_96\n      jump\t// in\n    tag_154:\n      mload(0x40)\n      dup1\n      swap2\n      sub\n      swap1\n      return\n        /* \"contracts/PreSale.sol\":884:909  IERC20 public rewardToken */\n    tag_29:\n      callvalue\n      dup1\n      iszero\n      tag_155\n      jumpi\n      0x00\n      dup1\n      revert\n    tag_155:\n      pop\n      tag_156\n      tag_157\n      jump\t// in\n    tag_156:\n      mload(0x40)\n      tag_158\n      swap2\n      swap1\n      tag_61\n      jump\t// in\n    tag_158:\n      mload(0x40)\n      dup1\n      swap2\n      sub\n      swap1\n      return\n        /* \"contracts/PreSale.sol\":1109:1131  uint256 public softcap */\n    tag_30:\n      callvalue\n      dup1\n      iszero\n      tag_159\n      jumpi\n      0x00\n      dup1\n      revert\n    tag_159:\n      pop\n      tag_160\n      tag_161\n      jump\t// in\n    tag_160:\n      mload(0x40)\n      tag_162\n      swap2\n      swap1\n      tag_48\n      jump\t// in\n    tag_162:\n      mload(0x40)\n      dup1\n      swap2\n      sub\n      swap1\n      return\n        /* \"contracts/PreSale.sol\":5546:6059  function updateRewardToken(IERC20 _newRewardToken) public onlyOwner {... */\n    tag_31:\n      callvalue\n      dup1\n      iszero\n      tag_163\n      jumpi\n      0x00\n      dup1\n      revert\n    tag_163:\n      pop\n      tag_164\n      0x04\n      dup1\n      calldatasize\n      sub\n      dup2\n      add\n      swap1\n      tag_165\n      swap2\n      swap1\n      tag_166\n      jump\t// in\n    tag_165:\n      tag_167\n      jump\t// in\n    tag_164:\n      stop\n        /* \"contracts/PreSale.sol\":6069:6245  function updateAfterDays(uint256 _afterDays) public onlyOwner {... */\n    tag_43:\n        /* \"@openzeppelin/contracts/access/Ownable.sol\":1196:1208  _msgSender() */\n      tag_169\n        /* \"@openzeppelin/contracts/access/Ownable.sol\":1196:1206  _msgSender */\n      tag_170\n        /* \"@openzeppelin/contracts/access/Ownable.sol\":1196:1208  _msgSender() */\n      jump\t// in\n    tag_169:\n        /* \"@openzeppelin/contracts/access/Ownable.sol\":1185:1208  owner() == _msgSender() */\n      0xffffffffffffffffffffffffffffffffffffffff\n      and\n        /* \"@openzeppelin/contracts/access/Ownable.sol\":1185:1192  owner() */\n      tag_171\n        /* \"@openzeppelin/contracts/access/Ownable.sol\":1185:1190  owner */\n      tag_94\n        /* \"@openzeppelin/contracts/access/Ownable.sol\":1185:1192  owner() */\n      jump\t// in\n    tag_171:\n        /* \"@openzeppelin/contracts/access/Ownable.sol\":1185:1208  owner() == _msgSender() */\n      0xffffffffffffffffffffffffffffffffffffffff\n      and\n      eq\n        /* \"@openzeppelin/contracts/access/Ownable.sol\":1177:1245  require(owner() == _msgSender(), \"Ownable: caller is not the owner\") */\n      tag_172\n      jumpi\n      mload(0x40)\n      0x08c379a000000000000000000000000000000000000000000000000000000000\n      dup2\n      mstore\n      0x04\n      add\n      tag_173\n      swap1\n      tag_174\n      jump\t// in\n    tag_173:\n      mload(0x40)\n      dup1\n      swap2\n      sub\n      swap1\n      revert\n    tag_172:\n        /* \"contracts/PreSale.sol\":6162:6163  0 */\n      0x00\n        /* \"contracts/PreSale.sol\":6149:6158  saleEnded */\n      sload(0x07)\n        /* \"contracts/PreSale.sol\":6149:6163  saleEnded != 0 */\n      eq\n      iszero\n        /* \"contracts/PreSale.sol\":6141:6206  require(saleEnded != 0, \"ABOAT::updateAfterDays: Sale not ended\") */\n      tag_176\n      jumpi\n      mload(0x40)\n      0x08c379a000000000000000000000000000000000000000000000000000000000\n      dup2\n      mstore\n      0x04\n      add\n      tag_177\n      swap1\n      tag_178\n      jump\t// in\n    tag_177:\n      mload(0x40)\n      dup1\n      swap2\n      sub\n      swap1\n      revert\n    tag_176:\n        /* \"contracts/PreSale.sol\":6228:6238  _afterDays */\n      dup1\n        /* \"contracts/PreSale.sol\":6216:6225  afterDays */\n      0x08\n        /* \"contracts/PreSale.sol\":6216:6238  afterDays = _afterDays */\n      dup2\n      swap1\n      sstore\n      pop\n        /* \"contracts/PreSale.sol\":6069:6245  function updateAfterDays(uint256 _afterDays) public onlyOwner {... */\n      pop\n      jump\t// out\n        /* \"contracts/PreSale.sol\":1642:1690  uint256 constant public percentagePerPeriod = 50 */\n    tag_46:\n        /* \"contracts/PreSale.sol\":1688:1690  50 */\n      0x32\n        /* \"contracts/PreSale.sol\":1642:1690  uint256 constant public percentagePerPeriod = 50 */\n      dup2\n      jump\t// out\n        /* \"contracts/PreSale.sol\":1774:1814  uint256 constant public cliffPeriod = 90 */\n    tag_51:\n        /* \"contracts/PreSale.sol\":1812:1814  90 */\n      0x5a\n        /* \"contracts/PreSale.sol\":1774:1814  uint256 constant public cliffPeriod = 90 */\n      dup2\n      jump\t// out\n        /* \"contracts/PreSale.sol\":7505:7780  function getRemainingBalance() public view returns (uint256) {... */\n    tag_55:\n        /* \"contracts/PreSale.sol\":7557:7564  uint256 */\n      0x00\n        /* \"contracts/PreSale.sol\":7611:7612  0 */\n      dup1\n        /* \"contracts/PreSale.sol\":7579:7613  address(rewardToken) == address(0) */\n      0xffffffffffffffffffffffffffffffffffffffff\n      and\n        /* \"contracts/PreSale.sol\":7587:7598  rewardToken */\n      0x01\n      0x00\n      swap1\n      sload\n      swap1\n      0x0100\n      exp\n      swap1\n      div\n      0xffffffffffffffffffffffffffffffffffffffff\n      and\n        /* \"contracts/PreSale.sol\":7579:7613  address(rewardToken) == address(0) */\n      0xffffffffffffffffffffffffffffffffffffffff\n      and\n      eq\n        /* \"contracts/PreSale.sol\":7576:7774  if(address(rewardToken) == address(0)) {... */\n      iszero\n      tag_180\n      jumpi\n        /* \"contracts/PreSale.sol\":7636:7673  address(this).balance.sub(soldTokens) */\n      tag_181\n        /* \"contracts/PreSale.sol\":7662:7672  soldTokens */\n      sload(0x06)\n        /* \"contracts/PreSale.sol\":7636:7657  address(this).balance */\n      selfbalance\n        /* \"contracts/PreSale.sol\":7636:7661  address(this).balance.sub */\n      tag_182\n      swap1\n        /* \"contracts/PreSale.sol\":7636:7673  address(this).balance.sub(soldTokens) */\n      swap2\n      swap1\n      0xffffffff\n      and\n      jump\t// in\n    tag_181:\n        /* \"contracts/PreSale.sol\":7629:7673  return address(this).balance.sub(soldTokens) */\n      swap1\n      pop\n      jump(tag_179)\n        /* \"contracts/PreSale.sol\":7576:7774  if(address(rewardToken) == address(0)) {... */\n    tag_180:\n        /* \"contracts/PreSale.sol\":7711:7763  rewardToken.balanceOf(address(this)).sub(soldTokens) */\n      tag_184\n        /* \"contracts/PreSale.sol\":7752:7762  soldTokens */\n      sload(0x06)\n        /* \"contracts/PreSale.sol\":7711:7722  rewardToken */\n      0x01\n      0x00\n      swap1\n      sload\n      swap1\n      0x0100\n      exp\n      swap1\n      div\n      0xffffffffffffffffffffffffffffffffffffffff\n      and\n        /* \"contracts/PreSale.sol\":7711:7732  rewardToken.balanceOf */\n      0xffffffffffffffffffffffffffffffffffffffff\n      and\n      0x70a08231\n        /* \"contracts/PreSale.sol\":7741:7745  this */\n      address\n        /* \"contracts/PreSale.sol\":7711:7747  rewardToken.balanceOf(address(this)) */\n      mload(0x40)\n      dup3\n      0xffffffff\n      and\n      0xe0\n      shl\n      dup2\n      mstore\n      0x04\n      add\n      tag_185\n      swap2\n      swap1\n      tag_96\n      jump\t// in\n    tag_185:\n      0x20\n      mload(0x40)\n      dup1\n      dup4\n      sub\n      dup2\n      dup7\n      dup1\n      extcodesize\n      iszero\n      dup1\n      iszero\n      tag_186\n      jumpi\n      0x00\n      dup1\n      revert\n    tag_186:\n      pop\n      gas\n      staticcall\n      iszero\n      dup1\n      iszero\n      tag_188\n      jumpi\n      returndatasize\n      0x00\n      dup1\n      returndatacopy\n      revert(0x00, returndatasize)\n    tag_188:\n      pop\n      pop\n      pop\n      pop\n      mload(0x40)\n      returndatasize\n      not(0x1f)\n      0x1f\n      dup3\n      add\n      and\n      dup3\n      add\n      dup1\n      0x40\n      mstore\n      pop\n      dup2\n      add\n      swap1\n      tag_189\n      swap2\n      swap1\n      tag_190\n      jump\t// in\n    tag_189:\n        /* \"contracts/PreSale.sol\":7711:7751  rewardToken.balanceOf(address(this)).sub */\n      tag_182\n      swap1\n        /* \"contracts/PreSale.sol\":7711:7763  rewardToken.balanceOf(address(this)).sub(soldTokens) */\n      swap2\n      swap1\n      0xffffffff\n      and\n      jump\t// in\n    tag_184:\n        /* \"contracts/PreSale.sol\":7704:7763  return rewardToken.balanceOf(address(this)).sub(soldTokens) */\n      swap1\n      pop\n        /* \"contracts/PreSale.sol\":7505:7780  function getRemainingBalance() public view returns (uint256) {... */\n    tag_179:\n      swap1\n      jump\t// out\n        /* \"contracts/PreSale.sol\":929:955  IERC20 public paymentToken */\n    tag_59:\n      0x02\n      0x00\n      swap1\n      sload\n      swap1\n      0x0100\n      exp\n      swap1\n      div\n      0xffffffffffffffffffffffffffffffffffffffff\n      and\n      dup2\n      jump\t// out\n        /* \"contracts/PreSale.sol\":9827:11639  function claim() public {... */\n    tag_64:\n        /* \"contracts/PreSale.sol\":9882:9883  0 */\n      0x00\n        /* \"contracts/PreSale.sol\":9869:9878  saleEnded */\n      sload(0x07)\n        /* \"contracts/PreSale.sol\":9869:9883  saleEnded != 0 */\n      eq\n      iszero\n        /* \"contracts/PreSale.sol\":9861:9923  require(saleEnded != 0, \"ABOAT::claim: Sale is not over yet!\") */\n      tag_192\n      jumpi\n      mload(0x40)\n      0x08c379a000000000000000000000000000000000000000000000000000000000\n      dup2\n      mstore\n      0x04\n      add\n      tag_193\n      swap1\n      tag_194\n      jump\t// in\n    tag_193:\n      mload(0x40)\n      dup1\n      swap2\n      sub\n      swap1\n      revert\n    tag_192:\n        /* \"contracts/PreSale.sol\":9960:9998  saleEnded.add((afterDays.mul(1 days))) */\n      tag_195\n        /* \"contracts/PreSale.sol\":9975:9996  afterDays.mul(1 days) */\n      tag_196\n        /* \"contracts/PreSale.sol\":9989:9995  1 days */\n      0x015180\n        /* \"contracts/PreSale.sol\":9975:9984  afterDays */\n      sload(0x08)\n        /* \"contracts/PreSale.sol\":9975:9988  afterDays.mul */\n      tag_197\n      swap1\n        /* \"contracts/PreSale.sol\":9975:9996  afterDays.mul(1 days) */\n      swap2\n      swap1\n      0xffffffff\n      and\n      jump\t// in\n    tag_196:\n        /* \"contracts/PreSale.sol\":9960:9969  saleEnded */\n      sload(0x07)\n        /* \"contracts/PreSale.sol\":9960:9973  saleEnded.add */\n      tag_198\n      swap1\n        /* \"contracts/PreSale.sol\":9960:9998  saleEnded.add((afterDays.mul(1 days))) */\n      swap2\n      swap1\n      0xffffffff\n      and\n      jump\t// in\n    tag_195:\n        /* \"contracts/PreSale.sol\":9941:9956  block.timestamp */\n      timestamp\n        /* \"contracts/PreSale.sol\":9941:9998  block.timestamp >= saleEnded.add((afterDays.mul(1 days))) */\n      lt\n      iszero\n        /* \"contracts/PreSale.sol\":9933:10044  require(block.timestamp >= saleEnded.add((afterDays.mul(1 days))), \"ABOAT::claim: Claim is not available yet.\") */\n      tag_199\n      jumpi\n      mload(0x40)\n      0x08c379a000000000000000000000000000000000000000000000000000000000\n      dup2\n      mstore\n      0x04\n      add\n      tag_200\n      swap1\n      tag_201\n      jump\t// in\n    tag_200:\n      mload(0x40)\n      dup1\n      swap2\n      sub\n      swap1\n      revert\n    tag_199:\n        /* \"contracts/PreSale.sol\":10054:10079  uint256 currentPercentage */\n      0x00\n        /* \"contracts/PreSale.sol\":10082:10104  getCurrentPercentage() */\n      tag_202\n        /* \"contracts/PreSale.sol\":10082:10102  getCurrentPercentage */\n      tag_103\n        /* \"contracts/PreSale.sol\":10082:10104  getCurrentPercentage() */\n      jump\t// in\n    tag_202:\n        /* \"contracts/PreSale.sol\":10054:10104  uint256 currentPercentage = getCurrentPercentage() */\n      swap1\n      pop\n        /* \"contracts/PreSale.sol\":10142:10143  0 */\n      0x00\n        /* \"contracts/PreSale.sol\":10122:10139  currentPercentage */\n      dup2\n        /* \"contracts/PreSale.sol\":10122:10143  currentPercentage > 0 */\n      gt\n        /* \"contracts/PreSale.sol\":10114:10241  require(currentPercentage > 0, \"ABOAT::claim: The percentage of token you can claim is currently zero. Please try again later\") */\n      tag_203\n      jumpi\n      mload(0x40)\n      0x08c379a000000000000000000000000000000000000000000000000000000000\n      dup2\n      mstore\n      0x04\n      add\n      tag_204\n      swap1\n      tag_205\n      jump\t// in\n    tag_204:\n      mload(0x40)\n      dup1\n      swap2\n      sub\n      swap1\n      revert\n    tag_203:\n        /* \"contracts/PreSale.sol\":10294:10305  rewardToken */\n      0x01\n      0x00\n      swap1\n      sload\n      swap1\n      0x0100\n      exp\n      swap1\n      div\n      0xffffffffffffffffffffffffffffffffffffffff\n      and\n        /* \"contracts/PreSale.sol\":10254:10306  lastClaimAddress[msg.sender] != address(rewardToken) */\n      0xffffffffffffffffffffffffffffffffffffffff\n      and\n        /* \"contracts/PreSale.sol\":10254:10270  lastClaimAddress */\n      0x0e\n        /* \"contracts/PreSale.sol\":10254:10282  lastClaimAddress[msg.sender] */\n      0x00\n        /* \"contracts/PreSale.sol\":10271:10281  msg.sender */\n      caller\n        /* \"contracts/PreSale.sol\":10254:10282  lastClaimAddress[msg.sender] */\n      0xffffffffffffffffffffffffffffffffffffffff\n      and\n      0xffffffffffffffffffffffffffffffffffffffff\n      and\n      dup2\n      mstore\n      0x20\n      add\n      swap1\n      dup2\n      mstore\n      0x20\n      add\n      0x00\n      keccak256\n      0x00\n      swap1\n      sload\n      swap1\n      0x0100\n      exp\n      swap1\n      div\n      0xffffffffffffffffffffffffffffffffffffffff\n      and\n        /* \"contracts/PreSale.sol\":10254:10306  lastClaimAddress[msg.sender] != address(rewardToken) */\n      0xffffffffffffffffffffffffffffffffffffffff\n      and\n      eq\n        /* \"contracts/PreSale.sol\":10251:10464  if(lastClaimAddress[msg.sender] != address(rewardToken)) {... */\n      tag_206\n      jumpi\n        /* \"contracts/PreSale.sol\":10361:10372  rewardToken */\n      0x01\n      0x00\n      swap1\n      sload\n      swap1\n      0x0100\n      exp\n      swap1\n      div\n      0xffffffffffffffffffffffffffffffffffffffff\n      and\n        /* \"contracts/PreSale.sol\":10322:10338  lastClaimAddress */\n      0x0e\n        /* \"contracts/PreSale.sol\":10322:10350  lastClaimAddress[msg.sender] */\n      0x00\n        /* \"contracts/PreSale.sol\":10339:10349  msg.sender */\n      caller\n        /* \"contracts/PreSale.sol\":10322:10350  lastClaimAddress[msg.sender] */\n      0xffffffffffffffffffffffffffffffffffffffff\n      and\n      0xffffffffffffffffffffffffffffffffffffffff\n      and\n      dup2\n      mstore\n      0x20\n      add\n      swap1\n      dup2\n      mstore\n      0x20\n      add\n      0x00\n      keccak256\n      0x00\n        /* \"contracts/PreSale.sol\":10322:10373  lastClaimAddress[msg.sender] = address(rewardToken) */\n      0x0100\n      exp\n      dup2\n      sload\n      dup2\n      0xffffffffffffffffffffffffffffffffffffffff\n      mul\n      not\n      and\n      swap1\n      dup4\n      0xffffffffffffffffffffffffffffffffffffffff\n      and\n      mul\n      or\n      swap1\n      sstore\n      pop\n        /* \"contracts/PreSale.sol\":10409:10410  0 */\n      0x00\n        /* \"contracts/PreSale.sol\":10387:10394  claimed */\n      0x0c\n        /* \"contracts/PreSale.sol\":10387:10406  claimed[msg.sender] */\n      0x00\n        /* \"contracts/PreSale.sol\":10395:10405  msg.sender */\n      caller\n        /* \"contracts/PreSale.sol\":10387:10406  claimed[msg.sender] */\n      0xffffffffffffffffffffffffffffffffffffffff\n      and\n      0xffffffffffffffffffffffffffffffffffffffff\n      and\n      dup2\n      mstore\n      0x20\n      add\n      swap1\n      dup2\n      mstore\n      0x20\n      add\n      0x00\n      keccak256\n        /* \"contracts/PreSale.sol\":10387:10410  claimed[msg.sender] = 0 */\n      dup2\n      swap1\n      sstore\n      pop\n        /* \"contracts/PreSale.sol\":10452:10453  0 */\n      0x00\n        /* \"contracts/PreSale.sol\":10424:10437  claimedTokens */\n      0x0d\n        /* \"contracts/PreSale.sol\":10424:10449  claimedTokens[msg.sender] */\n      0x00\n        /* \"contracts/PreSale.sol\":10438:10448  msg.sender */\n      caller\n        /* \"contracts/PreSale.sol\":10424:10449  claimedTokens[msg.sender] */\n      0xffffffffffffffffffffffffffffffffffffffff\n      and\n      0xffffffffffffffffffffffffffffffffffffffff\n      and\n      dup2\n      mstore\n      0x20\n      add\n      swap1\n      dup2\n      mstore\n      0x20\n      add\n      0x00\n      keccak256\n        /* \"contracts/PreSale.sol\":10424:10453  claimedTokens[msg.sender] = 0 */\n      dup2\n      swap1\n      sstore\n      pop\n        /* \"contracts/PreSale.sol\":10251:10464  if(lastClaimAddress[msg.sender] != address(rewardToken)) {... */\n    tag_206:\n        /* \"contracts/PreSale.sol\":10503:10520  currentPercentage */\n      dup1\n        /* \"contracts/PreSale.sol\":10481:10488  claimed */\n      0x0c\n        /* \"contracts/PreSale.sol\":10481:10500  claimed[msg.sender] */\n      0x00\n        /* \"contracts/PreSale.sol\":10489:10499  msg.sender */\n      caller\n        /* \"contracts/PreSale.sol\":10481:10500  claimed[msg.sender] */\n      0xffffffffffffffffffffffffffffffffffffffff\n      and\n      0xffffffffffffffffffffffffffffffffffffffff\n      and\n      dup2\n      mstore\n      0x20\n      add\n      swap1\n      dup2\n      mstore\n      0x20\n      add\n      0x00\n      keccak256\n      sload\n        /* \"contracts/PreSale.sol\":10481:10520  claimed[msg.sender] < currentPercentage */\n      lt\n        /* \"contracts/PreSale.sol\":10473:10585  require(claimed[msg.sender] < currentPercentage, \"ABOAT::claim: Already claimed your currently eligible tokens\") */\n      tag_207\n      jumpi\n      mload(0x40)\n      0x08c379a000000000000000000000000000000000000000000000000000000000\n      dup2\n      mstore\n      0x04\n      add\n      tag_208\n      swap1\n      tag_209\n      jump\t// in\n    tag_208:\n      mload(0x40)\n      dup1\n      swap2\n      sub\n      swap1\n      revert\n    tag_207:\n        /* \"contracts/PreSale.sol\":10609:10619  soldTokens */\n      sload(0x06)\n        /* \"contracts/PreSale.sol\":10598:10605  softcap */\n      sload(0x05)\n        /* \"contracts/PreSale.sol\":10598:10619  softcap <= soldTokens */\n      gt\n        /* \"contracts/PreSale.sol\":10595:11633  if(softcap <= soldTokens) {... */\n      tag_210\n      jumpi\n        /* \"contracts/PreSale.sol\":10635:10659  uint256 currentlyClaimed */\n      0x00\n        /* \"contracts/PreSale.sol\":10662:10669  claimed */\n      0x0c\n        /* \"contracts/PreSale.sol\":10662:10681  claimed[msg.sender] */\n      0x00\n        /* \"contracts/PreSale.sol\":10670:10680  msg.sender */\n      caller\n        /* \"contracts/PreSale.sol\":10662:10681  claimed[msg.sender] */\n      0xffffffffffffffffffffffffffffffffffffffff\n      and\n      0xffffffffffffffffffffffffffffffffffffffff\n      and\n      dup2\n      mstore\n      0x20\n      add\n      swap1\n      dup2\n      mstore\n      0x20\n      add\n      0x00\n      keccak256\n      sload\n        /* \"contracts/PreSale.sol\":10635:10681  uint256 currentlyClaimed = claimed[msg.sender] */\n      swap1\n      pop\n        /* \"contracts/PreSale.sol\":10717:10734  currentPercentage */\n      dup2\n        /* \"contracts/PreSale.sol\":10695:10702  claimed */\n      0x0c\n        /* \"contracts/PreSale.sol\":10695:10714  claimed[msg.sender] */\n      0x00\n        /* \"contracts/PreSale.sol\":10703:10713  msg.sender */\n      caller\n        /* \"contracts/PreSale.sol\":10695:10714  claimed[msg.sender] */\n      0xffffffffffffffffffffffffffffffffffffffff\n      and\n      0xffffffffffffffffffffffffffffffffffffffff\n      and\n      dup2\n      mstore\n      0x20\n      add\n      swap1\n      dup2\n      mstore\n      0x20\n      add\n      0x00\n      keccak256\n        /* \"contracts/PreSale.sol\":10695:10734  claimed[msg.sender] = currentPercentage */\n      dup2\n      swap1\n      sstore\n      pop\n        /* \"contracts/PreSale.sol\":10748:10762  uint256 amount */\n      0x00\n        /* \"contracts/PreSale.sol\":10765:10867  bought[msg.sender].mul(currentPercentage.sub(currentlyClaimed)).div(1000).mul(1e18).div(pricePerToken) */\n      tag_211\n        /* \"contracts/PreSale.sol\":10853:10866  pricePerToken */\n      sload(0x03)\n        /* \"contracts/PreSale.sol\":10765:10848  bought[msg.sender].mul(currentPercentage.sub(currentlyClaimed)).div(1000).mul(1e18) */\n      tag_212\n        /* \"contracts/PreSale.sol\":10843:10847  1e18 */\n      0x0de0b6b3a7640000\n        /* \"contracts/PreSale.sol\":10765:10838  bought[msg.sender].mul(currentPercentage.sub(currentlyClaimed)).div(1000) */\n      tag_213\n        /* \"contracts/PreSale.sol\":10833:10837  1000 */\n      0x03e8\n        /* \"contracts/PreSale.sol\":10765:10828  bought[msg.sender].mul(currentPercentage.sub(currentlyClaimed)) */\n      tag_214\n        /* \"contracts/PreSale.sol\":10788:10827  currentPercentage.sub(currentlyClaimed) */\n      tag_215\n        /* \"contracts/PreSale.sol\":10810:10826  currentlyClaimed */\n      dup10\n        /* \"contracts/PreSale.sol\":10788:10805  currentPercentage */\n      dup12\n        /* \"contracts/PreSale.sol\":10788:10809  currentPercentage.sub */\n      tag_182\n      swap1\n        /* \"contracts/PreSale.sol\":10788:10827  currentPercentage.sub(currentlyClaimed) */\n      swap2\n      swap1\n      0xffffffff\n      and\n      jump\t// in\n    tag_215:\n        /* \"contracts/PreSale.sol\":10765:10771  bought */\n      0x0b\n        /* \"contracts/PreSale.sol\":10765:10783  bought[msg.sender] */\n      0x00\n        /* \"contracts/PreSale.sol\":10772:10782  msg.sender */\n      caller\n        /* \"contracts/PreSale.sol\":10765:10783  bought[msg.sender] */\n      0xffffffffffffffffffffffffffffffffffffffff\n      and\n      0xffffffffffffffffffffffffffffffffffffffff\n      and\n      dup2\n      mstore\n      0x20\n      add\n      swap1\n      dup2\n      mstore\n      0x20\n      add\n      0x00\n      keccak256\n      sload\n        /* \"contracts/PreSale.sol\":10765:10787  bought[msg.sender].mul */\n      tag_197\n      swap1\n        /* \"contracts/PreSale.sol\":10765:10828  bought[msg.sender].mul(currentPercentage.sub(currentlyClaimed)) */\n      swap2\n      swap1\n      0xffffffff\n      and\n      jump\t// in\n    tag_214:\n        /* \"contracts/PreSale.sol\":10765:10832  bought[msg.sender].mul(currentPercentage.sub(currentlyClaimed)).div */\n      tag_216\n      swap1\n        /* \"contracts/PreSale.sol\":10765:10838  bought[msg.sender].mul(currentPercentage.sub(currentlyClaimed)).div(1000) */\n      swap2\n      swap1\n      0xffffffff\n      and\n      jump\t// in\n    tag_213:\n        /* \"contracts/PreSale.sol\":10765:10842  bought[msg.sender].mul(currentPercentage.sub(currentlyClaimed)).div(1000).mul */\n      tag_197\n      swap1\n        /* \"contracts/PreSale.sol\":10765:10848  bought[msg.sender].mul(currentPercentage.sub(currentlyClaimed)).div(1000).mul(1e18) */\n      swap2\n      swap1\n      0xffffffff\n      and\n      jump\t// in\n    tag_212:\n        /* \"contracts/PreSale.sol\":10765:10852  bought[msg.sender].mul(currentPercentage.sub(currentlyClaimed)).div(1000).mul(1e18).div */\n      tag_216\n      swap1\n        /* \"contracts/PreSale.sol\":10765:10867  bought[msg.sender].mul(currentPercentage.sub(currentlyClaimed)).div(1000).mul(1e18).div(pricePerToken) */\n      swap2\n      swap1\n      0xffffffff\n      and\n      jump\t// in\n    tag_211:\n        /* \"contracts/PreSale.sol\":10748:10867  uint256 amount = bought[msg.sender].mul(currentPercentage.sub(currentlyClaimed)).div(1000).mul(1e18).div(pricePerToken) */\n      swap1\n      pop\n        /* \"contracts/PreSale.sol\":10909:10946  claimedTokens[msg.sender].add(amount) */\n      tag_217\n        /* \"contracts/PreSale.sol\":10939:10945  amount */\n      dup2\n        /* \"contracts/PreSale.sol\":10909:10922  claimedTokens */\n      0x0d\n        /* \"contracts/PreSale.sol\":10909:10934  claimedTokens[msg.sender] */\n      0x00\n        /* \"contracts/PreSale.sol\":10923:10933  msg.sender */\n      caller\n        /* \"contracts/PreSale.sol\":10909:10934  claimedTokens[msg.sender] */\n      0xffffffffffffffffffffffffffffffffffffffff\n      and\n      0xffffffffffffffffffffffffffffffffffffffff\n      and\n      dup2\n      mstore\n      0x20\n      add\n      swap1\n      dup2\n      mstore\n      0x20\n      add\n      0x00\n      keccak256\n      sload\n        /* \"contracts/PreSale.sol\":10909:10938  claimedTokens[msg.sender].add */\n      tag_198\n      swap1\n        /* \"contracts/PreSale.sol\":10909:10946  claimedTokens[msg.sender].add(amount) */\n      swap2\n      swap1\n      0xffffffff\n      and\n      jump\t// in\n    tag_217:\n        /* \"contracts/PreSale.sol\":10881:10894  claimedTokens */\n      0x0d\n        /* \"contracts/PreSale.sol\":10881:10906  claimedTokens[msg.sender] */\n      0x00\n        /* \"contracts/PreSale.sol\":10895:10905  msg.sender */\n      caller\n        /* \"contracts/PreSale.sol\":10881:10906  claimedTokens[msg.sender] */\n      0xffffffffffffffffffffffffffffffffffffffff\n      and\n      0xffffffffffffffffffffffffffffffffffffffff\n      and\n      dup2\n      mstore\n      0x20\n      add\n      swap1\n      dup2\n      mstore\n      0x20\n      add\n      0x00\n      keccak256\n        /* \"contracts/PreSale.sol\":10881:10946  claimedTokens[msg.sender] = claimedTokens[msg.sender].add(amount) */\n      dup2\n      swap1\n      sstore\n      pop\n        /* \"contracts/PreSale.sol\":10995:10996  0 */\n      0x00\n        /* \"contracts/PreSale.sol\":10963:10997  address(rewardToken) != address(0) */\n      0xffffffffffffffffffffffffffffffffffffffff\n      and\n        /* \"contracts/PreSale.sol\":10971:10982  rewardToken */\n      0x01\n      0x00\n      swap1\n      sload\n      swap1\n      0x0100\n      exp\n      swap1\n      div\n      0xffffffffffffffffffffffffffffffffffffffff\n      and\n        /* \"contracts/PreSale.sol\":10963:10997  address(rewardToken) != address(0) */\n      0xffffffffffffffffffffffffffffffffffffffff\n      and\n      eq\n        /* \"contracts/PreSale.sol\":10960:11190  if(address(rewardToken) != address(0)) {... */\n      tag_218\n      jumpi\n        /* \"contracts/PreSale.sol\":11017:11086  TransferHelper.safeTransfer(address(rewardToken), msg.sender, amount) */\n      tag_219\n        /* \"contracts/PreSale.sol\":11053:11064  rewardToken */\n      0x01\n      0x00\n      swap1\n      sload\n      swap1\n      0x0100\n      exp\n      swap1\n      div\n      0xffffffffffffffffffffffffffffffffffffffff\n      and\n        /* \"contracts/PreSale.sol\":11067:11077  msg.sender */\n      caller\n        /* \"contracts/PreSale.sol\":11079:11085  amount */\n      dup4\n        /* \"contracts/PreSale.sol\":11017:11044  TransferHelper.safeTransfer */\n      tag_220\n        /* \"contracts/PreSale.sol\":11017:11086  TransferHelper.safeTransfer(address(rewardToken), msg.sender, amount) */\n      jump\t// in\n    tag_219:\n        /* \"contracts/PreSale.sol\":10960:11190  if(address(rewardToken) != address(0)) {... */\n      jump(tag_221)\n    tag_218:\n        /* \"contracts/PreSale.sol\":11125:11175  TransferHelper.safeTransferETH(msg.sender, amount) */\n      tag_222\n        /* \"contracts/PreSale.sol\":11156:11166  msg.sender */\n      caller\n        /* \"contracts/PreSale.sol\":11168:11174  amount */\n      dup3\n        /* \"contracts/PreSale.sol\":11125:11155  TransferHelper.safeTransferETH */\n      tag_223\n        /* \"contracts/PreSale.sol\":11125:11175  TransferHelper.safeTransferETH(msg.sender, amount) */\n      jump\t// in\n    tag_222:\n        /* \"contracts/PreSale.sol\":10960:11190  if(address(rewardToken) != address(0)) {... */\n    tag_221:\n        /* \"contracts/PreSale.sol\":11228:11234  amount */\n      dup1\n        /* \"contracts/PreSale.sol\":11216:11226  msg.sender */\n      caller\n        /* \"contracts/PreSale.sol\":11208:11235  Claimed(msg.sender, amount) */\n      0xffffffffffffffffffffffffffffffffffffffff\n      and\n      0xd8138f8a3f377c5259ca548e70e4c2de94f129f5a11036a15b69513cba2b426a\n      mload(0x40)\n      mload(0x40)\n      dup1\n      swap2\n      sub\n      swap1\n      log3\n        /* \"contracts/PreSale.sol\":10621:11246  {... */\n      pop\n      pop\n        /* \"contracts/PreSale.sol\":10595:11633  if(softcap <= soldTokens) {... */\n      jump(tag_224)\n    tag_210:\n        /* \"contracts/PreSale.sol\":11288:11292  1000 */\n      0x03e8\n        /* \"contracts/PreSale.sol\":11266:11273  claimed */\n      0x0c\n        /* \"contracts/PreSale.sol\":11266:11285  claimed[msg.sender] */\n      0x00\n        /* \"contracts/PreSale.sol\":11274:11284  msg.sender */\n      caller\n        /* \"contracts/PreSale.sol\":11266:11285  claimed[msg.sender] */\n      0xffffffffffffffffffffffffffffffffffffffff\n      and\n      0xffffffffffffffffffffffffffffffffffffffff\n      and\n      dup2\n      mstore\n      0x20\n      add\n      swap1\n      dup2\n      mstore\n      0x20\n      add\n      0x00\n      keccak256\n        /* \"contracts/PreSale.sol\":11266:11292  claimed[msg.sender] = 1000 */\n      dup2\n      swap1\n      sstore\n      pop\n        /* \"contracts/PreSale.sol\":11345:11346  0 */\n      0x00\n        /* \"contracts/PreSale.sol\":11312:11347  address(paymentToken) != address(0) */\n      0xffffffffffffffffffffffffffffffffffffffff\n      and\n        /* \"contracts/PreSale.sol\":11320:11332  paymentToken */\n      0x02\n      0x00\n      swap1\n      sload\n      swap1\n      0x0100\n      exp\n      swap1\n      div\n      0xffffffffffffffffffffffffffffffffffffffff\n      and\n        /* \"contracts/PreSale.sol\":11312:11347  address(paymentToken) != address(0) */\n      0xffffffffffffffffffffffffffffffffffffffff\n      and\n      eq\n        /* \"contracts/PreSale.sol\":11309:11565  if(address(paymentToken) != address(0)) {... */\n      tag_225\n      jumpi\n        /* \"contracts/PreSale.sol\":11367:11449  TransferHelper.safeTransfer(address(paymentToken), msg.sender, bought[msg.sender]) */\n      tag_226\n        /* \"contracts/PreSale.sol\":11403:11415  paymentToken */\n      0x02\n      0x00\n      swap1\n      sload\n      swap1\n      0x0100\n      exp\n      swap1\n      div\n      0xffffffffffffffffffffffffffffffffffffffff\n      and\n        /* \"contracts/PreSale.sol\":11418:11428  msg.sender */\n      caller\n        /* \"contracts/PreSale.sol\":11430:11436  bought */\n      0x0b\n        /* \"contracts/PreSale.sol\":11430:11448  bought[msg.sender] */\n      0x00\n        /* \"contracts/PreSale.sol\":11437:11447  msg.sender */\n      caller\n        /* \"contracts/PreSale.sol\":11430:11448  bought[msg.sender] */\n      0xffffffffffffffffffffffffffffffffffffffff\n      and\n      0xffffffffffffffffffffffffffffffffffffffff\n      and\n      dup2\n      mstore\n      0x20\n      add\n      swap1\n      dup2\n      mstore\n      0x20\n      add\n      0x00\n      keccak256\n      sload\n        /* \"contracts/PreSale.sol\":11367:11394  TransferHelper.safeTransfer */\n      tag_220\n        /* \"contracts/PreSale.sol\":11367:11449  TransferHelper.safeTransfer(address(paymentToken), msg.sender, bought[msg.sender]) */\n      jump\t// in\n    tag_226:\n        /* \"contracts/PreSale.sol\":11309:11565  if(address(paymentToken) != address(0)) {... */\n      jump(tag_227)\n    tag_225:\n        /* \"contracts/PreSale.sol\":11488:11550  TransferHelper.safeTransferETH(msg.sender, bought[msg.sender]) */\n      tag_228\n        /* \"contracts/PreSale.sol\":11519:11529  msg.sender */\n      caller\n        /* \"contracts/PreSale.sol\":11531:11537  bought */\n      0x0b\n        /* \"contracts/PreSale.sol\":11531:11549  bought[msg.sender] */\n      0x00\n        /* \"contracts/PreSale.sol\":11538:11548  msg.sender */\n      caller\n        /* \"contracts/PreSale.sol\":11531:11549  bought[msg.sender] */\n      0xffffffffffffffffffffffffffffffffffffffff\n      and\n      0xffffffffffffffffffffffffffffffffffffffff\n      and\n      dup2\n      mstore\n      0x20\n      add\n      swap1\n      dup2\n      mstore\n      0x20\n      add\n      0x00\n      keccak256\n      sload\n        /* \"contracts/PreSale.sol\":11488:11518  TransferHelper.safeTransferETH */\n      tag_223\n        /* \"contracts/PreSale.sol\":11488:11550  TransferHelper.safeTransferETH(msg.sender, bought[msg.sender]) */\n      jump\t// in\n    tag_228:\n        /* \"contracts/PreSale.sol\":11309:11565  if(address(paymentToken) != address(0)) {... */\n    tag_227:\n        /* \"contracts/PreSale.sol\":11603:11609  bought */\n      0x0b\n        /* \"contracts/PreSale.sol\":11603:11621  bought[msg.sender] */\n      0x00\n        /* \"contracts/PreSale.sol\":11610:11620  msg.sender */\n      caller\n        /* \"contracts/PreSale.sol\":11603:11621  bought[msg.sender] */\n      0xffffffffffffffffffffffffffffffffffffffff\n      and\n      0xffffffffffffffffffffffffffffffffffffffff\n      and\n      dup2\n      mstore\n      0x20\n      add\n      swap1\n      dup2\n      mstore\n      0x20\n      add\n      0x00\n      keccak256\n      sload\n        /* \"contracts/PreSale.sol\":11591:11601  msg.sender */\n      caller\n        /* \"contracts/PreSale.sol\":11583:11622  Claimed(msg.sender, bought[msg.sender]) */\n      0xffffffffffffffffffffffffffffffffffffffff\n      and\n      0xd8138f8a3f377c5259ca548e70e4c2de94f129f5a11036a15b69513cba2b426a\n      mload(0x40)\n      mload(0x40)\n      dup1\n      swap2\n      sub\n      swap1\n      log3\n        /* \"contracts/PreSale.sol\":10595:11633  if(softcap <= soldTokens) {... */\n    tag_224:\n        /* \"contracts/PreSale.sol\":9851:11639  {... */\n      pop\n        /* \"contracts/PreSale.sol\":9827:11639  function claim() public {... */\n      jump\t// out\n        /* \"contracts/PreSale.sol\":6255:7176  function whitelistFromSAFT(address[] memory addresses, uint256[] memory amounts) public onlyOwner {... */\n    tag_69:\n        /* \"@openzeppelin/contracts/access/Ownable.sol\":1196:1208  _msgSender() */\n      tag_230\n        /* \"@openzeppelin/contracts/access/Ownable.sol\":1196:1206  _msgSender */\n      tag_170\n        /* \"@openzeppelin/contracts/access/Ownable.sol\":1196:1208  _msgSender() */\n      jump\t// in\n    tag_230:\n        /* \"@openzeppelin/contracts/access/Ownable.sol\":1185:1208  owner() == _msgSender() */\n      0xffffffffffffffffffffffffffffffffffffffff\n      and\n        /* \"@openzeppelin/contracts/access/Ownable.sol\":1185:1192  owner() */\n      tag_231\n        /* \"@openzeppelin/contracts/access/Ownable.sol\":1185:1190  owner */\n      tag_94\n        /* \"@openzeppelin/contracts/access/Ownable.sol\":1185:1192  owner() */\n      jump\t// in\n    tag_231:\n        /* \"@openzeppelin/contracts/access/Ownable.sol\":1185:1208  owner() == _msgSender() */\n      0xffffffffffffffffffffffffffffffffffffffff\n      and\n      eq\n        /* \"@openzeppelin/contracts/access/Ownable.sol\":1177:1245  require(owner() == _msgSender(), \"Ownable: caller is not the owner\") */\n      tag_232\n      jumpi\n      mload(0x40)\n      0x08c379a000000000000000000000000000000000000000000000000000000000\n      dup2\n      mstore\n      0x04\n      add\n      tag_233\n      swap1\n      tag_174\n      jump\t// in\n    tag_233:\n      mload(0x40)\n      dup1\n      swap2\n      sub\n      swap1\n      revert\n    tag_232:\n        /* \"contracts/PreSale.sol\":6391:6394  100 */\n      0x64\n        /* \"contracts/PreSale.sol\":6371:6380  addresses */\n      dup3\n        /* \"contracts/PreSale.sol\":6371:6387  addresses.length */\n      mload\n        /* \"contracts/PreSale.sol\":6371:6394  addresses.length <= 100 */\n      gt\n      iszero\n        /* \"contracts/PreSale.sol\":6363:6471  require(addresses.length <= 100, \"ABOAT::whitelist: You can't add more than 100 addresses at the same time\") */\n      tag_235\n      jumpi\n      mload(0x40)\n      0x08c379a000000000000000000000000000000000000000000000000000000000\n      dup2\n      mstore\n      0x04\n      add\n      tag_236\n      swap1\n      tag_237\n      jump\t// in\n    tag_236:\n      mload(0x40)\n      dup1\n      swap2\n      sub\n      swap1\n      revert\n    tag_235:\n        /* \"contracts/PreSale.sol\":6481:6504  uint256 sumOfSoldTokens */\n      0x00\n        /* \"contracts/PreSale.sol\":6522:6532  uint index */\n      dup1\n        /* \"contracts/PreSale.sol\":6518:7059  for(uint index = 0; index < addresses.length; index++) {... */\n    tag_238:\n        /* \"contracts/PreSale.sol\":6546:6555  addresses */\n      dup4\n        /* \"contracts/PreSale.sol\":6546:6562  addresses.length */\n      mload\n        /* \"contracts/PreSale.sol\":6538:6543  index */\n      dup2\n        /* \"contracts/PreSale.sol\":6538:6562  index < addresses.length */\n      lt\n        /* \"contracts/PreSale.sol\":6518:7059  for(uint index = 0; index < addresses.length; index++) {... */\n      iszero\n      tag_239\n      jumpi\n        /* \"contracts/PreSale.sol\":6619:6623  true */\n      0x01\n        /* \"contracts/PreSale.sol\":6587:6598  whitelisted */\n      0x0a\n        /* \"contracts/PreSale.sol\":6587:6616  whitelisted[addresses[index]] */\n      0x00\n        /* \"contracts/PreSale.sol\":6599:6608  addresses */\n      dup7\n        /* \"contracts/PreSale.sol\":6609:6614  index */\n      dup5\n        /* \"contracts/PreSale.sol\":6599:6615  addresses[index] */\n      dup2\n      mload\n      dup2\n      lt\n      tag_241\n      jumpi\n      tag_242\n      tag_243\n      jump\t// in\n    tag_242:\n    tag_241:\n      0x20\n      mul\n      0x20\n      add\n      add\n      mload\n        /* \"contracts/PreSale.sol\":6587:6616  whitelisted[addresses[index]] */\n      0xffffffffffffffffffffffffffffffffffffffff\n      and\n      0xffffffffffffffffffffffffffffffffffffffff\n      and\n      dup2\n      mstore\n      0x20\n      add\n      swap1\n      dup2\n      mstore\n      0x20\n      add\n      0x00\n      keccak256\n      0x00\n        /* \"contracts/PreSale.sol\":6587:6623  whitelisted[addresses[index]] = true */\n      0x0100\n      exp\n      dup2\n      sload\n      dup2\n      0xff\n      mul\n      not\n      and\n      swap1\n      dup4\n      iszero\n      iszero\n      mul\n      or\n      swap1\n      sstore\n      pop\n        /* \"contracts/PreSale.sol\":6637:6657  uint256 amountBought */\n      0x00\n        /* \"contracts/PreSale.sol\":6660:6703  amounts[index].mul(1e18).div(pricePerToken) */\n      tag_244\n        /* \"contracts/PreSale.sol\":6689:6702  pricePerToken */\n      sload(0x03)\n        /* \"contracts/PreSale.sol\":6660:6684  amounts[index].mul(1e18) */\n      tag_245\n        /* \"contracts/PreSale.sol\":6679:6683  1e18 */\n      0x0de0b6b3a7640000\n        /* \"contracts/PreSale.sol\":6660:6667  amounts */\n      dup8\n        /* \"contracts/PreSale.sol\":6668:6673  index */\n      dup7\n        /* \"contracts/PreSale.sol\":6660:6674  amounts[index] */\n      dup2\n      mload\n      dup2\n      lt\n      tag_246\n      jumpi\n      tag_247\n      tag_243\n      jump\t// in\n    tag_247:\n    tag_246:\n      0x20\n      mul\n      0x20\n      add\n      add\n      mload\n        /* \"contracts/PreSale.sol\":6660:6678  amounts[index].mul */\n      tag_197\n      swap1\n        /* \"contracts/PreSale.sol\":6660:6684  amounts[index].mul(1e18) */\n      swap2\n      swap1\n      0xffffffff\n      and\n      jump\t// in\n    tag_245:\n        /* \"contracts/PreSale.sol\":6660:6688  amounts[index].mul(1e18).div */\n      tag_216\n      swap1\n        /* \"contracts/PreSale.sol\":6660:6703  amounts[index].mul(1e18).div(pricePerToken) */\n      swap2\n      swap1\n      0xffffffff\n      and\n      jump\t// in\n    tag_244:\n        /* \"contracts/PreSale.sol\":6637:6703  uint256 amountBought = amounts[index].mul(1e18).div(pricePerToken) */\n      swap1\n      pop\n        /* \"contracts/PreSale.sol\":6767:6768  0 */\n      0x00\n        /* \"contracts/PreSale.sol\":6725:6764  getRemainingBalance().sub(amountBought) */\n      tag_248\n        /* \"contracts/PreSale.sol\":6751:6763  amountBought */\n      dup3\n        /* \"contracts/PreSale.sol\":6725:6746  getRemainingBalance() */\n      tag_249\n        /* \"contracts/PreSale.sol\":6725:6744  getRemainingBalance */\n      tag_55\n        /* \"contracts/PreSale.sol\":6725:6746  getRemainingBalance() */\n      jump\t// in\n    tag_249:\n        /* \"contracts/PreSale.sol\":6725:6750  getRemainingBalance().sub */\n      tag_182\n      swap1\n        /* \"contracts/PreSale.sol\":6725:6764  getRemainingBalance().sub(amountBought) */\n      swap2\n      swap1\n      0xffffffff\n      and\n      jump\t// in\n    tag_248:\n        /* \"contracts/PreSale.sol\":6725:6768  getRemainingBalance().sub(amountBought) > 0 */\n      gt\n        /* \"contracts/PreSale.sol\":6717:6826  require(getRemainingBalance().sub(amountBought) > 0, \"ABOAT::buy: Amount would exceed the remaining balance\") */\n      tag_250\n      jumpi\n      mload(0x40)\n      0x08c379a000000000000000000000000000000000000000000000000000000000\n      dup2\n      mstore\n      0x04\n      add\n      tag_251\n      swap1\n      tag_252\n      jump\t// in\n    tag_251:\n      mload(0x40)\n      dup1\n      swap2\n      sub\n      swap1\n      revert\n    tag_250:\n        /* \"contracts/PreSale.sol\":6867:6911  bought[addresses[index]].add(amounts[index]) */\n      tag_253\n        /* \"contracts/PreSale.sol\":6896:6903  amounts */\n      dup5\n        /* \"contracts/PreSale.sol\":6904:6909  index */\n      dup4\n        /* \"contracts/PreSale.sol\":6896:6910  amounts[index] */\n      dup2\n      mload\n      dup2\n      lt\n      tag_254\n      jumpi\n      tag_255\n      tag_243\n      jump\t// in\n    tag_255:\n    tag_254:\n      0x20\n      mul\n      0x20\n      add\n      add\n      mload\n        /* \"contracts/PreSale.sol\":6867:6873  bought */\n      0x0b\n        /* \"contracts/PreSale.sol\":6867:6891  bought[addresses[index]] */\n      0x00\n        /* \"contracts/PreSale.sol\":6874:6883  addresses */\n      dup9\n        /* \"contracts/PreSale.sol\":6884:6889  index */\n      dup7\n        /* \"contracts/PreSale.sol\":6874:6890  addresses[index] */\n      dup2\n      mload\n      dup2\n      lt\n      tag_256\n      jumpi\n      tag_257\n      tag_243\n      jump\t// in\n    tag_257:\n    tag_256:\n      0x20\n      mul\n      0x20\n      add\n      add\n      mload\n        /* \"contracts/PreSale.sol\":6867:6891  bought[addresses[index]] */\n      0xffffffffffffffffffffffffffffffffffffffff\n      and\n      0xffffffffffffffffffffffffffffffffffffffff\n      and\n      dup2\n      mstore\n      0x20\n      add\n      swap1\n      dup2\n      mstore\n      0x20\n      add\n      0x00\n      keccak256\n      sload\n        /* \"contracts/PreSale.sol\":6867:6895  bought[addresses[index]].add */\n      tag_198\n      swap1\n        /* \"contracts/PreSale.sol\":6867:6911  bought[addresses[index]].add(amounts[index]) */\n      swap2\n      swap1\n      0xffffffff\n      and\n      jump\t// in\n    tag_253:\n        /* \"contracts/PreSale.sol\":6840:6846  bought */\n      0x0b\n        /* \"contracts/PreSale.sol\":6840:6864  bought[addresses[index]] */\n      0x00\n        /* \"contracts/PreSale.sol\":6847:6856  addresses */\n      dup8\n        /* \"contracts/PreSale.sol\":6857:6862  index */\n      dup6\n        /* \"contracts/PreSale.sol\":6847:6863  addresses[index] */\n      dup2\n      mload\n      dup2\n      lt\n      tag_258\n      jumpi\n      tag_259\n      tag_243\n      jump\t// in\n    tag_259:\n    tag_258:\n      0x20\n      mul\n      0x20\n      add\n      add\n      mload\n        /* \"contracts/PreSale.sol\":6840:6864  bought[addresses[index]] */\n      0xffffffffffffffffffffffffffffffffffffffff\n      and\n      0xffffffffffffffffffffffffffffffffffffffff\n      and\n      dup2\n      mstore\n      0x20\n      add\n      swap1\n      dup2\n      mstore\n      0x20\n      add\n      0x00\n      keccak256\n        /* \"contracts/PreSale.sol\":6840:6911  bought[addresses[index]] = bought[addresses[index]].add(amounts[index]) */\n      dup2\n      swap1\n      sstore\n      pop\n        /* \"contracts/PreSale.sol\":6943:6976  sumOfSoldTokens.add(amountBought) */\n      tag_260\n        /* \"contracts/PreSale.sol\":6963:6975  amountBought */\n      dup2\n        /* \"contracts/PreSale.sol\":6943:6958  sumOfSoldTokens */\n      dup5\n        /* \"contracts/PreSale.sol\":6943:6962  sumOfSoldTokens.add */\n      tag_198\n      swap1\n        /* \"contracts/PreSale.sol\":6943:6976  sumOfSoldTokens.add(amountBought) */\n      swap2\n      swap1\n      0xffffffff\n      and\n      jump\t// in\n    tag_260:\n        /* \"contracts/PreSale.sol\":6925:6976  sumOfSoldTokens = sumOfSoldTokens.add(amountBought) */\n      swap3\n      pop\n        /* \"contracts/PreSale.sol\":7035:7047  paymentToken */\n      0x02\n      0x00\n      swap1\n      sload\n      swap1\n      0x0100\n      exp\n      swap1\n      div\n      0xffffffffffffffffffffffffffffffffffffffff\n      and\n        /* \"contracts/PreSale.sol\":6990:7006  lastClaimAddress */\n      0x0e\n        /* \"contracts/PreSale.sol\":6990:7024  lastClaimAddress[addresses[index]] */\n      0x00\n        /* \"contracts/PreSale.sol\":7007:7016  addresses */\n      dup8\n        /* \"contracts/PreSale.sol\":7017:7022  index */\n      dup6\n        /* \"contracts/PreSale.sol\":7007:7023  addresses[index] */\n      dup2\n      mload\n      dup2\n      lt\n      tag_261\n      jumpi\n      tag_262\n      tag_243\n      jump\t// in\n    tag_262:\n    tag_261:\n      0x20\n      mul\n      0x20\n      add\n      add\n      mload\n        /* \"contracts/PreSale.sol\":6990:7024  lastClaimAddress[addresses[index]] */\n      0xffffffffffffffffffffffffffffffffffffffff\n      and\n      0xffffffffffffffffffffffffffffffffffffffff\n      and\n      dup2\n      mstore\n      0x20\n      add\n      swap1\n      dup2\n      mstore\n      0x20\n      add\n      0x00\n      keccak256\n      0x00\n        /* \"contracts/PreSale.sol\":6990:7048  lastClaimAddress[addresses[index]] = address(paymentToken) */\n      0x0100\n      exp\n      dup2\n      sload\n      dup2\n      0xffffffffffffffffffffffffffffffffffffffff\n      mul\n      not\n      and\n      swap1\n      dup4\n      0xffffffffffffffffffffffffffffffffffffffff\n      and\n      mul\n      or\n      swap1\n      sstore\n      pop\n        /* \"contracts/PreSale.sol\":6573:7059  {... */\n      pop\n        /* \"contracts/PreSale.sol\":6564:6571  index++ */\n      dup1\n      dup1\n      tag_263\n      swap1\n      tag_264\n      jump\t// in\n    tag_263:\n      swap2\n      pop\n      pop\n        /* \"contracts/PreSale.sol\":6518:7059  for(uint index = 0; index < addresses.length; index++) {... */\n      jump(tag_238)\n    tag_239:\n      pop\n        /* \"contracts/PreSale.sol\":7081:7112  soldTokens.add(sumOfSoldTokens) */\n      tag_265\n        /* \"contracts/PreSale.sol\":7096:7111  sumOfSoldTokens */\n      dup2\n        /* \"contracts/PreSale.sol\":7081:7091  soldTokens */\n      sload(0x06)\n        /* \"contracts/PreSale.sol\":7081:7095  soldTokens.add */\n      tag_198\n      swap1\n        /* \"contracts/PreSale.sol\":7081:7112  soldTokens.add(sumOfSoldTokens) */\n      swap2\n      swap1\n      0xffffffff\n      and\n      jump\t// in\n    tag_265:\n        /* \"contracts/PreSale.sol\":7068:7078  soldTokens */\n      0x06\n        /* \"contracts/PreSale.sol\":7068:7112  soldTokens = soldTokens.add(sumOfSoldTokens) */\n      dup2\n      swap1\n      sstore\n      pop\n        /* \"contracts/PreSale.sol\":7152:7161  addresses */\n      dup3\n        /* \"contracts/PreSale.sol\":7152:7168  addresses.length */\n      mload\n        /* \"contracts/PreSale.sol\":7127:7169  AddedToWhitelistFromSaft(addresses.length) */\n      0x6074084f4dbd9879d266f074be61eb039a0db2aa46e98e700223ad5c2bef5bd5\n      mload(0x40)\n      mload(0x40)\n      dup1\n      swap2\n      sub\n      swap1\n      log2\n        /* \"contracts/PreSale.sol\":6353:7176  {... */\n      pop\n        /* \"contracts/PreSale.sol\":6255:7176  function whitelistFromSAFT(address[] memory addresses, uint256[] memory amounts) public onlyOwner {... */\n      pop\n      pop\n      jump\t// out\n        /* \"contracts/PreSale.sol\":1194:1219  uint256 public soldTokens */\n    tag_72:\n      sload(0x06)\n      dup2\n      jump\t// out\n        /* \"contracts/PreSale.sol\":2063:2104  mapping(address => uint256) public bought */\n    tag_78:\n      mstore(0x20, 0x0b)\n      dup1\n      0x00\n      mstore\n      keccak256(0x00, 0x40)\n      0x00\n      swap2\n      pop\n      swap1\n      pop\n      sload\n      dup2\n      jump\t// out\n        /* \"@openzeppelin/contracts/access/Ownable.sol\":1605:1697  function renounceOwnership() public virtual onlyOwner {... */\n    tag_82:\n        /* \"@openzeppelin/contracts/access/Ownable.sol\":1196:1208  _msgSender() */\n      tag_267\n        /* \"@openzeppelin/contracts/access/Ownable.sol\":1196:1206  _msgSender */\n      tag_170\n        /* \"@openzeppelin/contracts/access/Ownable.sol\":1196:1208  _msgSender() */\n      jump\t// in\n    tag_267:\n        /* \"@openzeppelin/contracts/access/Ownable.sol\":1185:1208  owner() == _msgSender() */\n      0xffffffffffffffffffffffffffffffffffffffff\n      and\n        /* \"@openzeppelin/contracts/access/Ownable.sol\":1185:1192  owner() */\n      tag_268\n        /* \"@openzeppelin/contracts/access/Ownable.sol\":1185:1190  owner */\n      tag_94\n        /* \"@openzeppelin/contracts/access/Ownable.sol\":1185:1192  owner() */\n      jump\t// in\n    tag_268:\n        /* \"@openzeppelin/contracts/access/Ownable.sol\":1185:1208  owner() == _msgSender() */\n      0xffffffffffffffffffffffffffffffffffffffff\n      and\n      eq\n        /* \"@openzeppelin/contracts/access/Ownable.sol\":1177:1245  require(owner() == _msgSender(), \"Ownable: caller is not the owner\") */\n      tag_269\n      jumpi\n      mload(0x40)\n      0x08c379a000000000000000000000000000000000000000000000000000000000\n      dup2\n      mstore\n      0x04\n      add\n      tag_270\n      swap1\n      tag_174\n      jump\t// in\n    tag_270:\n      mload(0x40)\n      dup1\n      swap2\n      sub\n      swap1\n      revert\n    tag_269:\n        /* \"@openzeppelin/contracts/access/Ownable.sol\":1669:1690  _setOwner(address(0)) */\n      tag_272\n        /* \"@openzeppelin/contracts/access/Ownable.sol\":1687:1688  0 */\n      0x00\n        /* \"@openzeppelin/contracts/access/Ownable.sol\":1669:1678  _setOwner */\n      tag_273\n        /* \"@openzeppelin/contracts/access/Ownable.sol\":1669:1690  _setOwner(address(0)) */\n      jump\t// in\n    tag_272:\n        /* \"@openzeppelin/contracts/access/Ownable.sol\":1605:1697  function renounceOwnership() public virtual onlyOwner {... */\n      jump\t// out\n        /* \"contracts/PreSale.sol\":967:995  uint256 public pricePerToken */\n    tag_85:\n      sload(0x03)\n      dup2\n      jump\t// out\n        /* \"contracts/PreSale.sol\":1900:1935  bool public requireWhitelist = true */\n    tag_89:\n      0x09\n      0x00\n      swap1\n      sload\n      swap1\n      0x0100\n      exp\n      swap1\n      div\n      0xff\n      and\n      dup2\n      jump\t// out\n        /* \"@openzeppelin/contracts/access/Ownable.sol\":973:1058  function owner() public view virtual returns (address) {... */\n    tag_94:\n        /* \"@openzeppelin/contracts/access/Ownable.sol\":1019:1026  address */\n      0x00\n        /* \"@openzeppelin/contracts/access/Ownable.sol\":1045:1051  _owner */\n      dup1\n      0x00\n      swap1\n      sload\n      swap1\n      0x0100\n      exp\n      swap1\n      div\n      0xffffffffffffffffffffffffffffffffffffffff\n      and\n        /* \"@openzeppelin/contracts/access/Ownable.sol\":1038:1051  return _owner */\n      swap1\n      pop\n        /* \"@openzeppelin/contracts/access/Ownable.sol\":973:1058  function owner() public view virtual returns (address) {... */\n      swap1\n      jump\t// out\n        /* \"contracts/PreSale.sol\":1261:1289  uint256 public saleEnded = 0 */\n    tag_99:\n      sload(0x07)\n      dup2\n      jump\t// out\n        /* \"contracts/PreSale.sol\":7790:8303  function getCurrentPercentage() public view returns (uint256) {... */\n    tag_103:\n        /* \"contracts/PreSale.sol\":7843:7850  uint256 */\n      0x00\n        /* \"contracts/PreSale.sol\":7862:7880  uint256 cliffEnded */\n      dup1\n        /* \"contracts/PreSale.sol\":7883:7909  saleEnded.add(cliffPeriod) */\n      tag_276\n        /* \"contracts/PreSale.sol\":1812:1814  90 */\n      0x5a\n        /* \"contracts/PreSale.sol\":7883:7892  saleEnded */\n      sload(0x07)\n        /* \"contracts/PreSale.sol\":7883:7896  saleEnded.add */\n      tag_198\n      swap1\n        /* \"contracts/PreSale.sol\":7883:7909  saleEnded.add(cliffPeriod) */\n      swap2\n      swap1\n      0xffffffff\n      and\n      jump\t// in\n    tag_276:\n        /* \"contracts/PreSale.sol\":7862:7909  uint256 cliffEnded = saleEnded.add(cliffPeriod) */\n      swap1\n      pop\n        /* \"contracts/PreSale.sol\":7919:7938  uint256 deltaPeriod */\n      0x00\n        /* \"contracts/PreSale.sol\":7941:7975  cliffEnded.add(afterDays * 1 days) */\n      tag_277\n        /* \"contracts/PreSale.sol\":7968:7974  1 days */\n      0x015180\n        /* \"contracts/PreSale.sol\":7956:7965  afterDays */\n      sload(0x08)\n        /* \"contracts/PreSale.sol\":7956:7974  afterDays * 1 days */\n      tag_278\n      swap2\n      swap1\n      tag_279\n      jump\t// in\n    tag_278:\n        /* \"contracts/PreSale.sol\":7941:7951  cliffEnded */\n      dup4\n        /* \"contracts/PreSale.sol\":7941:7955  cliffEnded.add */\n      tag_198\n      swap1\n        /* \"contracts/PreSale.sol\":7941:7975  cliffEnded.add(afterDays * 1 days) */\n      swap2\n      swap1\n      0xffffffff\n      and\n      jump\t// in\n    tag_277:\n        /* \"contracts/PreSale.sol\":7919:7975  uint256 deltaPeriod = cliffEnded.add(afterDays * 1 days) */\n      swap1\n      pop\n        /* \"contracts/PreSale.sol\":7985:8003  uint256 percentage */\n      0x00\n        /* \"contracts/PreSale.sol\":8018:8019  0 */\n      dup1\n        /* \"contracts/PreSale.sol\":8006:8015  saleEnded */\n      sload(0x07)\n        /* \"contracts/PreSale.sol\":8006:8019  saleEnded > 0 */\n      gt\n        /* \"contracts/PreSale.sol\":8006:8052  saleEnded > 0 && block.timestamp > deltaPeriod */\n      dup1\n      iszero\n      tag_280\n      jumpi\n      pop\n        /* \"contracts/PreSale.sol\":8041:8052  deltaPeriod */\n      dup2\n        /* \"contracts/PreSale.sol\":8023:8038  block.timestamp */\n      timestamp\n        /* \"contracts/PreSale.sol\":8023:8052  block.timestamp > deltaPeriod */\n      gt\n        /* \"contracts/PreSale.sol\":8006:8052  saleEnded > 0 && block.timestamp > deltaPeriod */\n    tag_280:\n        /* \"contracts/PreSale.sol\":8006:8242  saleEnded > 0 && block.timestamp > deltaPeriod... */\n      tag_281\n      jumpi\n        /* \"contracts/PreSale.sol\":1564:1567  100 */\n      0x64\n        /* \"contracts/PreSale.sol\":8006:8242  saleEnded > 0 && block.timestamp > deltaPeriod... */\n      jump(tag_282)\n    tag_281:\n        /* \"contracts/PreSale.sol\":8063:8208  block.timestamp.sub(deltaPeriod)... */\n      tag_283\n        /* \"contracts/PreSale.sol\":1564:1567  100 */\n      0x64\n        /* \"contracts/PreSale.sol\":8063:8167  block.timestamp.sub(deltaPeriod)... */\n      tag_284\n        /* \"contracts/PreSale.sol\":1688:1690  50 */\n      0x32\n        /* \"contracts/PreSale.sol\":8063:8129  block.timestamp.sub(deltaPeriod)... */\n      tag_285\n        /* \"contracts/PreSale.sol\":8122:8128  1 days */\n      0x015180\n        /* \"contracts/PreSale.sol\":1467:1469  30 */\n      0x1e\n        /* \"contracts/PreSale.sol\":8113:8128  period * 1 days */\n      tag_286\n      swap2\n      swap1\n      tag_279\n      jump\t// in\n    tag_286:\n        /* \"contracts/PreSale.sol\":8063:8095  block.timestamp.sub(deltaPeriod) */\n      tag_287\n        /* \"contracts/PreSale.sol\":8083:8094  deltaPeriod */\n      dup9\n        /* \"contracts/PreSale.sol\":8063:8078  block.timestamp */\n      timestamp\n        /* \"contracts/PreSale.sol\":8063:8082  block.timestamp.sub */\n      tag_182\n      swap1\n        /* \"contracts/PreSale.sol\":8063:8095  block.timestamp.sub(deltaPeriod) */\n      swap2\n      swap1\n      0xffffffff\n      and\n      jump\t// in\n    tag_287:\n        /* \"contracts/PreSale.sol\":8063:8112  block.timestamp.sub(deltaPeriod)... */\n      tag_216\n      swap1\n        /* \"contracts/PreSale.sol\":8063:8129  block.timestamp.sub(deltaPeriod)... */\n      swap2\n      swap1\n      0xffffffff\n      and\n      jump\t// in\n    tag_285:\n        /* \"contracts/PreSale.sol\":8063:8146  block.timestamp.sub(deltaPeriod)... */\n      tag_197\n      swap1\n        /* \"contracts/PreSale.sol\":8063:8167  block.timestamp.sub(deltaPeriod)... */\n      swap2\n      swap1\n      0xffffffff\n      and\n      jump\t// in\n    tag_284:\n        /* \"contracts/PreSale.sol\":8063:8184  block.timestamp.sub(deltaPeriod)... */\n      tag_198\n      swap1\n        /* \"contracts/PreSale.sol\":8063:8208  block.timestamp.sub(deltaPeriod)... */\n      swap2\n      swap1\n      0xffffffff\n      and\n      jump\t// in\n    tag_283:\n        /* \"contracts/PreSale.sol\":8006:8242  saleEnded > 0 && block.timestamp > deltaPeriod... */\n    tag_282:\n        /* \"contracts/PreSale.sol\":7985:8242  uint256 percentage = saleEnded > 0 && block.timestamp > deltaPeriod... */\n      swap1\n      pop\n        /* \"contracts/PreSale.sol\":8272:8276  1000 */\n      0x03e8\n        /* \"contracts/PreSale.sol\":8259:8269  percentage */\n      dup2\n        /* \"contracts/PreSale.sol\":8259:8276  percentage > 1000 */\n      gt\n        /* \"contracts/PreSale.sol\":8259:8296  percentage > 1000 ? 1000 : percentage */\n      tag_288\n      jumpi\n        /* \"contracts/PreSale.sol\":8286:8296  percentage */\n      dup1\n        /* \"contracts/PreSale.sol\":8259:8296  percentage > 1000 ? 1000 : percentage */\n      jump(tag_289)\n    tag_288:\n        /* \"contracts/PreSale.sol\":8279:8283  1000 */\n      0x03e8\n        /* \"contracts/PreSale.sol\":8259:8296  percentage > 1000 ? 1000 : percentage */\n    tag_289:\n        /* \"contracts/PreSale.sol\":8252:8296  return percentage > 1000 ? 1000 : percentage */\n      swap4\n      pop\n      pop\n      pop\n      pop\n        /* \"contracts/PreSale.sol\":7790:8303  function getCurrentPercentage() public view returns (uint256) {... */\n      swap1\n      jump\t// out\n        /* \"contracts/PreSale.sol\":1034:1054  uint256 public limit */\n    tag_107:\n      sload(0x04)\n      dup2\n      jump\t// out\n        /* \"contracts/PreSale.sol\":1515:1567  uint256 constant public initialClaimPercentage = 100 */\n    tag_111:\n        /* \"contracts/PreSale.sol\":1564:1567  100 */\n      0x64\n        /* \"contracts/PreSale.sol\":1515:1567  uint256 constant public initialClaimPercentage = 100 */\n      dup2\n      jump\t// out\n        /* \"contracts/PreSale.sol\":2255:2303  mapping(address => uint256) public claimedTokens */\n    tag_116:\n      mstore(0x20, 0x0d)\n      dup1\n      0x00\n      mstore\n      keccak256(0x00, 0x40)\n      0x00\n      swap2\n      pop\n      swap1\n      pop\n      sload\n      dup2\n      jump\t// out\n        /* \"contracts/PreSale.sol\":2152:2194  mapping(address => uint256) public claimed */\n    tag_121:\n      mstore(0x20, 0x0c)\n      dup1\n      0x00\n      mstore\n      keccak256(0x00, 0x40)\n      0x00\n      swap2\n      pop\n      swap1\n      pop\n      sload\n      dup2\n      jump\t// out\n        /* \"contracts/PreSale.sol\":5090:5268  function disableWhitelist() public onlyOwner {... */\n    tag_125:\n        /* \"@openzeppelin/contracts/access/Ownable.sol\":1196:1208  _msgSender() */\n      tag_291\n        /* \"@openzeppelin/contracts/access/Ownable.sol\":1196:1206  _msgSender */\n      tag_170\n        /* \"@openzeppelin/contracts/access/Ownable.sol\":1196:1208  _msgSender() */\n      jump\t// in\n    tag_291:\n        /* \"@openzeppelin/contracts/access/Ownable.sol\":1185:1208  owner() == _msgSender() */\n      0xffffffffffffffffffffffffffffffffffffffff\n      and\n        /* \"@openzeppelin/contracts/access/Ownable.sol\":1185:1192  owner() */\n      tag_292\n        /* \"@openzeppelin/contracts/access/Ownable.sol\":1185:1190  owner */\n      tag_94\n        /* \"@openzeppelin/contracts/access/Ownable.sol\":1185:1192  owner() */\n      jump\t// in\n    tag_292:\n        /* \"@openzeppelin/contracts/access/Ownable.sol\":1185:1208  owner() == _msgSender() */\n      0xffffffffffffffffffffffffffffffffffffffff\n      and\n      eq\n        /* \"@openzeppelin/contracts/access/Ownable.sol\":1177:1245  require(owner() == _msgSender(), \"Ownable: caller is not the owner\") */\n      tag_293\n      jumpi\n      mload(0x40)\n      0x08c379a000000000000000000000000000000000000000000000000000000000\n      dup2\n      mstore\n      0x04\n      add\n      tag_294\n      swap1\n      tag_174\n      jump\t// in\n    tag_294:\n      mload(0x40)\n      dup1\n      swap2\n      sub\n      swap1\n      revert\n    tag_293:\n        /* \"contracts/PreSale.sol\":5153:5169  requireWhitelist */\n      0x09\n      0x00\n      swap1\n      sload\n      swap1\n      0x0100\n      exp\n      swap1\n      div\n      0xff\n      and\n        /* \"contracts/PreSale.sol\":5145:5227  require(requireWhitelist, \"ABOAT:disableWhitelist: Whitelist is already disabled\") */\n      tag_296\n      jumpi\n      mload(0x40)\n      0x08c379a000000000000000000000000000000000000000000000000000000000\n      dup2\n      mstore\n      0x04\n      add\n      tag_297\n      swap1\n      tag_298\n      jump\t// in\n    tag_297:\n      mload(0x40)\n      dup1\n      swap2\n      sub\n      swap1\n      revert\n    tag_296:\n        /* \"contracts/PreSale.sol\":5256:5261  false */\n      0x00\n        /* \"contracts/PreSale.sol\":5237:5253  requireWhitelist */\n      0x09\n      0x00\n        /* \"contracts/PreSale.sol\":5237:5261  requireWhitelist = false */\n      0x0100\n      exp\n      dup2\n      sload\n      dup2\n      0xff\n      mul\n      not\n      and\n      swap1\n      dup4\n      iszero\n      iszero\n      mul\n      or\n      swap1\n      sstore\n      pop\n        /* \"contracts/PreSale.sol\":5090:5268  function disableWhitelist() public onlyOwner {... */\n      jump\t// out\n        /* \"contracts/PreSale.sol\":2014:2057  mapping(address => bool) public whitelisted */\n    tag_129:\n      mstore(0x20, 0x0a)\n      dup1\n      0x00\n      mstore\n      keccak256(0x00, 0x40)\n      0x00\n      swap2\n      pop\n      sload\n      swap1\n      0x0100\n      exp\n      swap1\n      div\n      0xff\n      and\n      dup2\n      jump\t// out\n        /* \"contracts/PreSale.sol\":8639:9690  function buy(uint256 amount) public payable {... */\n    tag_133:\n        /* \"contracts/PreSale.sol\":8714:8715  0 */\n      0x00\n        /* \"contracts/PreSale.sol\":8701:8710  saleEnded */\n      sload(0x07)\n        /* \"contracts/PreSale.sol\":8701:8715  saleEnded == 0 */\n      eq\n        /* \"contracts/PreSale.sol\":8693:8751  require(saleEnded == 0, \"ABOAT::buy: Sale already ended!\") */\n      tag_300\n      jumpi\n      mload(0x40)\n      0x08c379a000000000000000000000000000000000000000000000000000000000\n      dup2\n      mstore\n      0x04\n      add\n      tag_301\n      swap1\n      tag_302\n      jump\t// in\n    tag_301:\n      mload(0x40)\n      dup1\n      swap2\n      sub\n      swap1\n      revert\n    tag_300:\n        /* \"contracts/PreSale.sol\":8769:8780  whitelisted */\n      0x0a\n        /* \"contracts/PreSale.sol\":8769:8792  whitelisted[msg.sender] */\n      0x00\n        /* \"contracts/PreSale.sol\":8781:8791  msg.sender */\n      caller\n        /* \"contracts/PreSale.sol\":8769:8792  whitelisted[msg.sender] */\n      0xffffffffffffffffffffffffffffffffffffffff\n      and\n      0xffffffffffffffffffffffffffffffffffffffff\n      and\n      dup2\n      mstore\n      0x20\n      add\n      swap1\n      dup2\n      mstore\n      0x20\n      add\n      0x00\n      keccak256\n      0x00\n      swap1\n      sload\n      swap1\n      0x0100\n      exp\n      swap1\n      div\n      0xff\n      and\n        /* \"contracts/PreSale.sol\":8769:8813  whitelisted[msg.sender] || !requireWhitelist */\n      dup1\n      tag_303\n      jumpi\n      pop\n        /* \"contracts/PreSale.sol\":8797:8813  requireWhitelist */\n      0x09\n      0x00\n      swap1\n      sload\n      swap1\n      0x0100\n      exp\n      swap1\n      div\n      0xff\n      and\n        /* \"contracts/PreSale.sol\":8796:8813  !requireWhitelist */\n      iszero\n        /* \"contracts/PreSale.sol\":8769:8813  whitelisted[msg.sender] || !requireWhitelist */\n    tag_303:\n        /* \"contracts/PreSale.sol\":8761:8867  require(whitelisted[msg.sender] || !requireWhitelist, \"ABOAT::buy: You're not whitelisted for this sale!\") */\n      tag_304\n      jumpi\n      mload(0x40)\n      0x08c379a000000000000000000000000000000000000000000000000000000000\n      dup2\n      mstore\n      0x04\n      add\n      tag_305\n      swap1\n      tag_306\n      jump\t// in\n    tag_305:\n      mload(0x40)\n      dup1\n      swap2\n      sub\n      swap1\n      revert\n    tag_304:\n        /* \"contracts/PreSale.sol\":8877:8892  bool isEthToken */\n      0x00\n        /* \"contracts/PreSale.sol\":8928:8929  0 */\n      dup1\n        /* \"contracts/PreSale.sol\":8895:8930  address(paymentToken) == address(0) */\n      0xffffffffffffffffffffffffffffffffffffffff\n      and\n        /* \"contracts/PreSale.sol\":8903:8915  paymentToken */\n      0x02\n      0x00\n      swap1\n      sload\n      swap1\n      0x0100\n      exp\n      swap1\n      div\n      0xffffffffffffffffffffffffffffffffffffffff\n      and\n        /* \"contracts/PreSale.sol\":8895:8930  address(paymentToken) == address(0) */\n      0xffffffffffffffffffffffffffffffffffffffff\n      and\n      eq\n        /* \"contracts/PreSale.sol\":8877:8930  bool isEthToken = address(paymentToken) == address(0) */\n      swap1\n      pop\n        /* \"contracts/PreSale.sol\":8949:8959  isEthToken */\n      dup1\n        /* \"contracts/PreSale.sol\":8948:8959  !isEthToken */\n      iszero\n        /* \"contracts/PreSale.sol\":8948:8982  !isEthToken || msg.value == amount */\n      dup1\n      tag_307\n      jumpi\n      pop\n        /* \"contracts/PreSale.sol\":8976:8982  amount */\n      dup2\n        /* \"contracts/PreSale.sol\":8963:8972  msg.value */\n      callvalue\n        /* \"contracts/PreSale.sol\":8963:8982  msg.value == amount */\n      eq\n        /* \"contracts/PreSale.sol\":8948:8982  !isEthToken || msg.value == amount */\n    tag_307:\n        /* \"contracts/PreSale.sol\":8940:9039  require(!isEthToken || msg.value == amount, \"ABOAT::buy: Sent value doesn't meet the given amount\") */\n      tag_308\n      jumpi\n      mload(0x40)\n      0x08c379a000000000000000000000000000000000000000000000000000000000\n      dup2\n      mstore\n      0x04\n      add\n      tag_309\n      swap1\n      tag_310\n      jump\t// in\n    tag_309:\n      mload(0x40)\n      dup1\n      swap2\n      sub\n      swap1\n      revert\n    tag_308:\n        /* \"contracts/PreSale.sol\":9091:9096  limit */\n      sload(0x04)\n        /* \"contracts/PreSale.sol\":9057:9087  bought[msg.sender].add(amount) */\n      tag_311\n        /* \"contracts/PreSale.sol\":9080:9086  amount */\n      dup4\n        /* \"contracts/PreSale.sol\":9057:9063  bought */\n      0x0b\n        /* \"contracts/PreSale.sol\":9057:9075  bought[msg.sender] */\n      0x00\n        /* \"contracts/PreSale.sol\":9064:9074  msg.sender */\n      caller\n        /* \"contracts/PreSale.sol\":9057:9075  bought[msg.sender] */\n      0xffffffffffffffffffffffffffffffffffffffff\n      and\n      0xffffffffffffffffffffffffffffffffffffffff\n      and\n      dup2\n      mstore\n      0x20\n      add\n      swap1\n      dup2\n      mstore\n      0x20\n      add\n      0x00\n      keccak256\n      sload\n        /* \"contracts/PreSale.sol\":9057:9079  bought[msg.sender].add */\n      tag_198\n      swap1\n        /* \"contracts/PreSale.sol\":9057:9087  bought[msg.sender].add(amount) */\n      swap2\n      swap1\n      0xffffffff\n      and\n      jump\t// in\n    tag_311:\n        /* \"contracts/PreSale.sol\":9057:9096  bought[msg.sender].add(amount) <= limit */\n      gt\n      iszero\n        /* \"contracts/PreSale.sol\":9049:9158  require(bought[msg.sender].add(amount) <= limit, \"ABOAT::buy: Amount would exceed the maximum allowed limit\") */\n      tag_312\n      jumpi\n      mload(0x40)\n      0x08c379a000000000000000000000000000000000000000000000000000000000\n      dup2\n      mstore\n      0x04\n      add\n      tag_313\n      swap1\n      tag_314\n      jump\t// in\n    tag_313:\n      mload(0x40)\n      dup1\n      swap2\n      sub\n      swap1\n      revert\n    tag_312:\n        /* \"contracts/PreSale.sol\":9168:9188  uint256 amountBought */\n      0x00\n        /* \"contracts/PreSale.sol\":9191:9226  amount.mul(1e18).div(pricePerToken) */\n      tag_315\n        /* \"contracts/PreSale.sol\":9212:9225  pricePerToken */\n      sload(0x03)\n        /* \"contracts/PreSale.sol\":9191:9207  amount.mul(1e18) */\n      tag_316\n        /* \"contracts/PreSale.sol\":9202:9206  1e18 */\n      0x0de0b6b3a7640000\n        /* \"contracts/PreSale.sol\":9191:9197  amount */\n      dup7\n        /* \"contracts/PreSale.sol\":9191:9201  amount.mul */\n      tag_197\n      swap1\n        /* \"contracts/PreSale.sol\":9191:9207  amount.mul(1e18) */\n      swap2\n      swap1\n      0xffffffff\n      and\n      jump\t// in\n    tag_316:\n        /* \"contracts/PreSale.sol\":9191:9211  amount.mul(1e18).div */\n      tag_216\n      swap1\n        /* \"contracts/PreSale.sol\":9191:9226  amount.mul(1e18).div(pricePerToken) */\n      swap2\n      swap1\n      0xffffffff\n      and\n      jump\t// in\n    tag_315:\n        /* \"contracts/PreSale.sol\":9168:9226  uint256 amountBought = amount.mul(1e18).div(pricePerToken) */\n      swap1\n      pop\n        /* \"contracts/PreSale.sol\":9286:9287  0 */\n      0x00\n        /* \"contracts/PreSale.sol\":9244:9283  getRemainingBalance().sub(amountBought) */\n      tag_317\n        /* \"contracts/PreSale.sol\":9270:9282  amountBought */\n      dup3\n        /* \"contracts/PreSale.sol\":9244:9265  getRemainingBalance() */\n      tag_318\n        /* \"contracts/PreSale.sol\":9244:9263  getRemainingBalance */\n      tag_55\n        /* \"contracts/PreSale.sol\":9244:9265  getRemainingBalance() */\n      jump\t// in\n    tag_318:\n        /* \"contracts/PreSale.sol\":9244:9269  getRemainingBalance().sub */\n      tag_182\n      swap1\n        /* \"contracts/PreSale.sol\":9244:9283  getRemainingBalance().sub(amountBought) */\n      swap2\n      swap1\n      0xffffffff\n      and\n      jump\t// in\n    tag_317:\n        /* \"contracts/PreSale.sol\":9244:9287  getRemainingBalance().sub(amountBought) > 0 */\n      gt\n        /* \"contracts/PreSale.sol\":9236:9345  require(getRemainingBalance().sub(amountBought) > 0, \"ABOAT::buy: Amount would exceed the remaining balance\") */\n      tag_319\n      jumpi\n      mload(0x40)\n      0x08c379a000000000000000000000000000000000000000000000000000000000\n      dup2\n      mstore\n      0x04\n      add\n      tag_320\n      swap1\n      tag_252\n      jump\t// in\n    tag_320:\n      mload(0x40)\n      dup1\n      swap2\n      sub\n      swap1\n      revert\n    tag_319:\n        /* \"contracts/PreSale.sol\":9359:9369  isEthToken */\n      dup2\n        /* \"contracts/PreSale.sol\":9355:9469  if(!isEthToken) {... */\n      tag_321\n      jumpi\n        /* \"contracts/PreSale.sol\":9385:9458  paymentToken.safeTransferFrom(address(msg.sender), address(this), amount) */\n      tag_322\n        /* \"contracts/PreSale.sol\":9423:9433  msg.sender */\n      caller\n        /* \"contracts/PreSale.sol\":9444:9448  this */\n      address\n        /* \"contracts/PreSale.sol\":9451:9457  amount */\n      dup6\n        /* \"contracts/PreSale.sol\":9385:9397  paymentToken */\n      0x02\n      0x00\n      swap1\n      sload\n      swap1\n      0x0100\n      exp\n      swap1\n      div\n      0xffffffffffffffffffffffffffffffffffffffff\n      and\n        /* \"contracts/PreSale.sol\":9385:9414  paymentToken.safeTransferFrom */\n      0xffffffffffffffffffffffffffffffffffffffff\n      and\n      tag_323\n      swap1\n        /* \"contracts/PreSale.sol\":9385:9458  paymentToken.safeTransferFrom(address(msg.sender), address(this), amount) */\n      swap4\n      swap3\n      swap2\n      swap1\n      0xffffffff\n      and\n      jump\t// in\n    tag_322:\n        /* \"contracts/PreSale.sol\":9355:9469  if(!isEthToken) {... */\n    tag_321:\n        /* \"contracts/PreSale.sol\":9499:9529  bought[msg.sender].add(amount) */\n      tag_324\n        /* \"contracts/PreSale.sol\":9522:9528  amount */\n      dup4\n        /* \"contracts/PreSale.sol\":9499:9505  bought */\n      0x0b\n        /* \"contracts/PreSale.sol\":9499:9517  bought[msg.sender] */\n      0x00\n        /* \"contracts/PreSale.sol\":9506:9516  msg.sender */\n      caller\n        /* \"contracts/PreSale.sol\":9499:9517  bought[msg.sender] */\n      0xffffffffffffffffffffffffffffffffffffffff\n      and\n      0xffffffffffffffffffffffffffffffffffffffff\n      and\n      dup2\n      mstore\n      0x20\n      add\n      swap1\n      dup2\n      mstore\n      0x20\n      add\n      0x00\n      keccak256\n      sload\n        /* \"contracts/PreSale.sol\":9499:9521  bought[msg.sender].add */\n      tag_198\n      swap1\n        /* \"contracts/PreSale.sol\":9499:9529  bought[msg.sender].add(amount) */\n      swap2\n      swap1\n      0xffffffff\n      and\n      jump\t// in\n    tag_324:\n        /* \"contracts/PreSale.sol\":9478:9484  bought */\n      0x0b\n        /* \"contracts/PreSale.sol\":9478:9496  bought[msg.sender] */\n      0x00\n        /* \"contracts/PreSale.sol\":9485:9495  msg.sender */\n      caller\n        /* \"contracts/PreSale.sol\":9478:9496  bought[msg.sender] */\n      0xffffffffffffffffffffffffffffffffffffffff\n      and\n      0xffffffffffffffffffffffffffffffffffffffff\n      and\n      dup2\n      mstore\n      0x20\n      add\n      swap1\n      dup2\n      mstore\n      0x20\n      add\n      0x00\n      keccak256\n        /* \"contracts/PreSale.sol\":9478:9529  bought[msg.sender] = bought[msg.sender].add(amount) */\n      dup2\n      swap1\n      sstore\n      pop\n        /* \"contracts/PreSale.sol\":9552:9580  soldTokens.add(amountBought) */\n      tag_325\n        /* \"contracts/PreSale.sol\":9567:9579  amountBought */\n      dup2\n        /* \"contracts/PreSale.sol\":9552:9562  soldTokens */\n      sload(0x06)\n        /* \"contracts/PreSale.sol\":9552:9566  soldTokens.add */\n      tag_198\n      swap1\n        /* \"contracts/PreSale.sol\":9552:9580  soldTokens.add(amountBought) */\n      swap2\n      swap1\n      0xffffffff\n      and\n      jump\t// in\n    tag_325:\n        /* \"contracts/PreSale.sol\":9539:9549  soldTokens */\n      0x06\n        /* \"contracts/PreSale.sol\":9539:9580  soldTokens = soldTokens.add(amountBought) */\n      dup2\n      swap1\n      sstore\n      pop\n        /* \"contracts/PreSale.sol\":9629:9641  paymentToken */\n      0x02\n      0x00\n      swap1\n      sload\n      swap1\n      0x0100\n      exp\n      swap1\n      div\n      0xffffffffffffffffffffffffffffffffffffffff\n      and\n        /* \"contracts/PreSale.sol\":9590:9606  lastClaimAddress */\n      0x0e\n        /* \"contracts/PreSale.sol\":9590:9618  lastClaimAddress[msg.sender] */\n      0x00\n        /* \"contracts/PreSale.sol\":9607:9617  msg.sender */\n      caller\n        /* \"contracts/PreSale.sol\":9590:9618  lastClaimAddress[msg.sender] */\n      0xffffffffffffffffffffffffffffffffffffffff\n      and\n      0xffffffffffffffffffffffffffffffffffffffff\n      and\n      dup2\n      mstore\n      0x20\n      add\n      swap1\n      dup2\n      mstore\n      0x20\n      add\n      0x00\n      keccak256\n      0x00\n        /* \"contracts/PreSale.sol\":9590:9642  lastClaimAddress[msg.sender] = address(paymentToken) */\n      0x0100\n      exp\n      dup2\n      sload\n      dup2\n      0xffffffffffffffffffffffffffffffffffffffff\n      mul\n      not\n      and\n      swap1\n      dup4\n      0xffffffffffffffffffffffffffffffffffffffff\n      and\n      mul\n      or\n      swap1\n      sstore\n      pop\n        /* \"contracts/PreSale.sol\":9676:9682  amount */\n      dup3\n        /* \"contracts/PreSale.sol\":9664:9674  msg.sender */\n      caller\n        /* \"contracts/PreSale.sol\":9657:9683  Bought(msg.sender, amount) */\n      0xffffffffffffffffffffffffffffffffffffffff\n      and\n      0xc55650ccda1011e1cdc769b1fbf546ebb8c97800b6072b49e06cd560305b1d67\n      mload(0x40)\n      mload(0x40)\n      dup1\n      swap2\n      sub\n      swap1\n      log3\n        /* \"contracts/PreSale.sol\":8683:9690  {... */\n      pop\n      pop\n        /* \"contracts/PreSale.sol\":8639:9690  function buy(uint256 amount) public payable {... */\n      pop\n      jump\t// out\n        /* \"contracts/PreSale.sol\":1343:1367  uint256 public afterDays */\n    tag_136:\n      sload(0x08)\n      dup2\n      jump\t// out\n        /* \"contracts/PreSale.sol\":1434:1469  uint256 constant public period = 30 */\n    tag_140:\n        /* \"contracts/PreSale.sol\":1467:1469  30 */\n      0x1e\n        /* \"contracts/PreSale.sol\":1434:1469  uint256 constant public period = 30 */\n      dup2\n      jump\t// out\n        /* \"contracts/PreSale.sol\":3916:5080  function claimAndEndSale(uint256 _afterDays) public onlyOwner {... */\n    tag_145:\n        /* \"@openzeppelin/contracts/access/Ownable.sol\":1196:1208  _msgSender() */\n      tag_327\n        /* \"@openzeppelin/contracts/access/Ownable.sol\":1196:1206  _msgSender */\n      tag_170\n        /* \"@openzeppelin/contracts/access/Ownable.sol\":1196:1208  _msgSender() */\n      jump\t// in\n    tag_327:\n        /* \"@openzeppelin/contracts/access/Ownable.sol\":1185:1208  owner() == _msgSender() */\n      0xffffffffffffffffffffffffffffffffffffffff\n      and\n        /* \"@openzeppelin/contracts/access/Ownable.sol\":1185:1192  owner() */\n      tag_328\n        /* \"@openzeppelin/contracts/access/Ownable.sol\":1185:1190  owner */\n      tag_94\n        /* \"@openzeppelin/contracts/access/Ownable.sol\":1185:1192  owner() */\n      jump\t// in\n    tag_328:\n        /* \"@openzeppelin/contracts/access/Ownable.sol\":1185:1208  owner() == _msgSender() */\n      0xffffffffffffffffffffffffffffffffffffffff\n      and\n      eq\n        /* \"@openzeppelin/contracts/access/Ownable.sol\":1177:1245  require(owner() == _msgSender(), \"Ownable: caller is not the owner\") */\n      tag_329\n      jumpi\n      mload(0x40)\n      0x08c379a000000000000000000000000000000000000000000000000000000000\n      dup2\n      mstore\n      0x04\n      add\n      tag_330\n      swap1\n      tag_174\n      jump\t// in\n    tag_330:\n      mload(0x40)\n      dup1\n      swap2\n      sub\n      swap1\n      revert\n    tag_329:\n        /* \"contracts/PreSale.sol\":4009:4010  0 */\n      0x00\n        /* \"contracts/PreSale.sol\":3996:4005  saleEnded */\n      sload(0x07)\n        /* \"contracts/PreSale.sol\":3996:4010  saleEnded == 0 */\n      eq\n        /* \"contracts/PreSale.sol\":3988:4057  require(saleEnded == 0, \"ABOAT::claimAndEndSale: Sale already ended\") */\n      tag_332\n      jumpi\n      mload(0x40)\n      0x08c379a000000000000000000000000000000000000000000000000000000000\n      dup2\n      mstore\n      0x04\n      add\n      tag_333\n      swap1\n      tag_334\n      jump\t// in\n    tag_333:\n      mload(0x40)\n      dup1\n      swap2\n      sub\n      swap1\n      revert\n    tag_332:\n        /* \"contracts/PreSale.sol\":4079:4094  block.timestamp */\n      timestamp\n        /* \"contracts/PreSale.sol\":4067:4076  saleEnded */\n      0x07\n        /* \"contracts/PreSale.sol\":4067:4094  saleEnded = block.timestamp */\n      dup2\n      swap1\n      sstore\n      pop\n        /* \"contracts/PreSale.sol\":4118:4128  soldTokens */\n      sload(0x06)\n        /* \"contracts/PreSale.sol\":4107:4114  softcap */\n      sload(0x05)\n        /* \"contracts/PreSale.sol\":4107:4128  softcap <= soldTokens */\n      gt\n        /* \"contracts/PreSale.sol\":4104:5012  if(softcap <= soldTokens) {... */\n      tag_335\n      jumpi\n        /* \"contracts/PreSale.sol\":4290:4300  _afterDays */\n      dup1\n        /* \"contracts/PreSale.sol\":4278:4287  afterDays */\n      0x08\n        /* \"contracts/PreSale.sol\":4278:4300  afterDays = _afterDays */\n      dup2\n      swap1\n      sstore\n      pop\n        /* \"contracts/PreSale.sol\":4350:4351  0 */\n      0x00\n        /* \"contracts/PreSale.sol\":4317:4352  address(paymentToken) != address(0) */\n      0xffffffffffffffffffffffffffffffffffffffff\n      and\n        /* \"contracts/PreSale.sol\":4325:4337  paymentToken */\n      0x02\n      0x00\n      swap1\n      sload\n      swap1\n      0x0100\n      exp\n      swap1\n      div\n      0xffffffffffffffffffffffffffffffffffffffff\n      and\n        /* \"contracts/PreSale.sol\":4317:4352  address(paymentToken) != address(0) */\n      0xffffffffffffffffffffffffffffffffffffffff\n      and\n      eq\n        /* \"contracts/PreSale.sol\":4314:4592  if(address(paymentToken) != address(0)) {... */\n      tag_336\n      jumpi\n        /* \"contracts/PreSale.sol\":4372:4473  TransferHelper.safeTransfer(address(paymentToken), msg.sender, paymentToken.balanceOf(address(this))) */\n      tag_337\n        /* \"contracts/PreSale.sol\":4408:4420  paymentToken */\n      0x02\n      0x00\n      swap1\n      sload\n      swap1\n      0x0100\n      exp\n      swap1\n      div\n      0xffffffffffffffffffffffffffffffffffffffff\n      and\n        /* \"contracts/PreSale.sol\":4423:4433  msg.sender */\n      caller\n        /* \"contracts/PreSale.sol\":4435:4447  paymentToken */\n      0x02\n      0x00\n      swap1\n      sload\n      swap1\n      0x0100\n      exp\n      swap1\n      div\n      0xffffffffffffffffffffffffffffffffffffffff\n      and\n        /* \"contracts/PreSale.sol\":4435:4457  paymentToken.balanceOf */\n      0xffffffffffffffffffffffffffffffffffffffff\n      and\n      0x70a08231\n        /* \"contracts/PreSale.sol\":4466:4470  this */\n      address\n        /* \"contracts/PreSale.sol\":4435:4472  paymentToken.balanceOf(address(this)) */\n      mload(0x40)\n      dup3\n      0xffffffff\n      and\n      0xe0\n      shl\n      dup2\n      mstore\n      0x04\n      add\n      tag_338\n      swap2\n      swap1\n      tag_96\n      jump\t// in\n    tag_338:\n      0x20\n      mload(0x40)\n      dup1\n      dup4\n      sub\n      dup2\n      dup7\n      dup1\n      extcodesize\n      iszero\n      dup1\n      iszero\n      tag_339\n      jumpi\n      0x00\n      dup1\n      revert\n    tag_339:\n      pop\n      gas\n      staticcall\n      iszero\n      dup1\n      iszero\n      tag_341\n      jumpi\n      returndatasize\n      0x00\n      dup1\n      returndatacopy\n      revert(0x00, returndatasize)\n    tag_341:\n      pop\n      pop\n      pop\n      pop\n      mload(0x40)\n      returndatasize\n      not(0x1f)\n      0x1f\n      dup3\n      add\n      and\n      dup3\n      add\n      dup1\n      0x40\n      mstore\n      pop\n      dup2\n      add\n      swap1\n      tag_342\n      swap2\n      swap1\n      tag_190\n      jump\t// in\n    tag_342:\n        /* \"contracts/PreSale.sol\":4372:4399  TransferHelper.safeTransfer */\n      tag_220\n        /* \"contracts/PreSale.sol\":4372:4473  TransferHelper.safeTransfer(address(paymentToken), msg.sender, paymentToken.balanceOf(address(this))) */\n      jump\t// in\n    tag_337:\n        /* \"contracts/PreSale.sol\":4314:4592  if(address(paymentToken) != address(0)) {... */\n      jump(tag_343)\n    tag_336:\n        /* \"contracts/PreSale.sol\":4512:4577  TransferHelper.safeTransferETH(msg.sender, address(this).balance) */\n      tag_344\n        /* \"contracts/PreSale.sol\":4543:4553  msg.sender */\n      caller\n        /* \"contracts/PreSale.sol\":4555:4576  address(this).balance */\n      selfbalance\n        /* \"contracts/PreSale.sol\":4512:4542  TransferHelper.safeTransferETH */\n      tag_223\n        /* \"contracts/PreSale.sol\":4512:4577  TransferHelper.safeTransferETH(msg.sender, address(this).balance) */\n      jump\t// in\n    tag_344:\n        /* \"contracts/PreSale.sol\":4314:4592  if(address(paymentToken) != address(0)) {... */\n    tag_343:\n        /* \"contracts/PreSale.sol\":4104:5012  if(softcap <= soldTokens) {... */\n      jump(tag_345)\n    tag_335:\n        /* \"contracts/PreSale.sol\":4710:4711  0 */\n      0x00\n        /* \"contracts/PreSale.sol\":4698:4707  afterDays */\n      0x08\n        /* \"contracts/PreSale.sol\":4698:4711  afterDays = 0 */\n      dup2\n      swap1\n      sstore\n      pop\n        /* \"contracts/PreSale.sol\":4761:4762  0 */\n      0x00\n        /* \"contracts/PreSale.sol\":4729:4763  address(rewardToken) != address(0) */\n      0xffffffffffffffffffffffffffffffffffffffff\n      and\n        /* \"contracts/PreSale.sol\":4737:4748  rewardToken */\n      0x01\n      0x00\n      swap1\n      sload\n      swap1\n      0x0100\n      exp\n      swap1\n      div\n      0xffffffffffffffffffffffffffffffffffffffff\n      and\n        /* \"contracts/PreSale.sol\":4729:4763  address(rewardToken) != address(0) */\n      0xffffffffffffffffffffffffffffffffffffffff\n      and\n      eq\n        /* \"contracts/PreSale.sol\":4726:5002  if(address(rewardToken) != address(0)) {... */\n      tag_346\n      jumpi\n        /* \"contracts/PreSale.sol\":4783:4882  TransferHelper.safeTransfer(address(rewardToken), msg.sender, rewardToken.balanceOf(address(this))) */\n      tag_347\n        /* \"contracts/PreSale.sol\":4819:4830  rewardToken */\n      0x01\n      0x00\n      swap1\n      sload\n      swap1\n      0x0100\n      exp\n      swap1\n      div\n      0xffffffffffffffffffffffffffffffffffffffff\n      and\n        /* \"contracts/PreSale.sol\":4833:4843  msg.sender */\n      caller\n        /* \"contracts/PreSale.sol\":4845:4856  rewardToken */\n      0x01\n      0x00\n      swap1\n      sload\n      swap1\n      0x0100\n      exp\n      swap1\n      div\n      0xffffffffffffffffffffffffffffffffffffffff\n      and\n        /* \"contracts/PreSale.sol\":4845:4866  rewardToken.balanceOf */\n      0xffffffffffffffffffffffffffffffffffffffff\n      and\n      0x70a08231\n        /* \"contracts/PreSale.sol\":4875:4879  this */\n      address\n        /* \"contracts/PreSale.sol\":4845:4881  rewardToken.balanceOf(address(this)) */\n      mload(0x40)\n      dup3\n      0xffffffff\n      and\n      0xe0\n      shl\n      dup2\n      mstore\n      0x04\n      add\n      tag_348\n      swap2\n      swap1\n      tag_96\n      jump\t// in\n    tag_348:\n      0x20\n      mload(0x40)\n      dup1\n      dup4\n      sub\n      dup2\n      dup7\n      dup1\n      extcodesize\n      iszero\n      dup1\n      iszero\n      tag_349\n      jumpi\n      0x00\n      dup1\n      revert\n    tag_349:\n      pop\n      gas\n      staticcall\n      iszero\n      dup1\n      iszero\n      tag_351\n      jumpi\n      returndatasize\n      0x00\n      dup1\n      returndatacopy\n      revert(0x00, returndatasize)\n    tag_351:\n      pop\n      pop\n      pop\n      pop\n      mload(0x40)\n      returndatasize\n      not(0x1f)\n      0x1f\n      dup3\n      add\n      and\n      dup3\n      add\n      dup1\n      0x40\n      mstore\n      pop\n      dup2\n      add\n      swap1\n      tag_352\n      swap2\n      swap1\n      tag_190\n      jump\t// in\n    tag_352:\n        /* \"contracts/PreSale.sol\":4783:4810  TransferHelper.safeTransfer */\n      tag_220\n        /* \"contracts/PreSale.sol\":4783:4882  TransferHelper.safeTransfer(address(rewardToken), msg.sender, rewardToken.balanceOf(address(this))) */\n      jump\t// in\n    tag_347:\n        /* \"contracts/PreSale.sol\":4726:5002  if(address(rewardToken) != address(0)) {... */\n      jump(tag_353)\n    tag_346:\n        /* \"contracts/PreSale.sol\":4921:4987  TransferHelper.safeTransferETH(msg.sender,  address(this).balance) */\n      tag_354\n        /* \"contracts/PreSale.sol\":4952:4962  msg.sender */\n      caller\n        /* \"contracts/PreSale.sol\":4965:4986  address(this).balance */\n      selfbalance\n        /* \"contracts/PreSale.sol\":4921:4951  TransferHelper.safeTransferETH */\n      tag_223\n        /* \"contracts/PreSale.sol\":4921:4987  TransferHelper.safeTransferETH(msg.sender,  address(this).balance) */\n      jump\t// in\n    tag_354:\n        /* \"contracts/PreSale.sol\":4726:5002  if(address(rewardToken) != address(0)) {... */\n    tag_353:\n        /* \"contracts/PreSale.sol\":4104:5012  if(softcap <= soldTokens) {... */\n    tag_345:\n        /* \"contracts/PreSale.sol\":5036:5072  saleEnded.add(afterDays.mul(1 days)) */\n      tag_355\n        /* \"contracts/PreSale.sol\":5050:5071  afterDays.mul(1 days) */\n      tag_356\n        /* \"contracts/PreSale.sol\":5064:5070  1 days */\n      0x015180\n        /* \"contracts/PreSale.sol\":5050:5059  afterDays */\n      sload(0x08)\n        /* \"contracts/PreSale.sol\":5050:5063  afterDays.mul */\n      tag_197\n      swap1\n        /* \"contracts/PreSale.sol\":5050:5071  afterDays.mul(1 days) */\n      swap2\n      swap1\n      0xffffffff\n      and\n      jump\t// in\n    tag_356:\n        /* \"contracts/PreSale.sol\":5036:5045  saleEnded */\n      sload(0x07)\n        /* \"contracts/PreSale.sol\":5036:5049  saleEnded.add */\n      tag_198\n      swap1\n        /* \"contracts/PreSale.sol\":5036:5072  saleEnded.add(afterDays.mul(1 days)) */\n      swap2\n      swap1\n      0xffffffff\n      and\n      jump\t// in\n    tag_355:\n        /* \"contracts/PreSale.sol\":5026:5073  SaleEnded(saleEnded.add(afterDays.mul(1 days))) */\n      0x94bb74a9473ae4063ec1e73dc3e35fd4b5abe9cc1e43ad0db84e5358559ccd5a\n      mload(0x40)\n      mload(0x40)\n      dup1\n      swap2\n      sub\n      swap1\n      log2\n        /* \"contracts/PreSale.sol\":3916:5080  function claimAndEndSale(uint256 _afterDays) public onlyOwner {... */\n      pop\n      jump\t// out\n        /* \"@openzeppelin/contracts/access/Ownable.sol\":1846:2035  function transferOwnership(address newOwner) public virtual onlyOwner {... */\n    tag_149:\n        /* \"@openzeppelin/contracts/access/Ownable.sol\":1196:1208  _msgSender() */\n      tag_358\n        /* \"@openzeppelin/contracts/access/Ownable.sol\":1196:1206  _msgSender */\n      tag_170\n        /* \"@openzeppelin/contracts/access/Ownable.sol\":1196:1208  _msgSender() */\n      jump\t// in\n    tag_358:\n        /* \"@openzeppelin/contracts/access/Ownable.sol\":1185:1208  owner() == _msgSender() */\n      0xffffffffffffffffffffffffffffffffffffffff\n      and\n        /* \"@openzeppelin/contracts/access/Ownable.sol\":1185:1192  owner() */\n      tag_359\n        /* \"@openzeppelin/contracts/access/Ownable.sol\":1185:1190  owner */\n      tag_94\n        /* \"@openzeppelin/contracts/access/Ownable.sol\":1185:1192  owner() */\n      jump\t// in\n    tag_359:\n        /* \"@openzeppelin/contracts/access/Ownable.sol\":1185:1208  owner() == _msgSender() */\n      0xffffffffffffffffffffffffffffffffffffffff\n      and\n      eq\n        /* \"@openzeppelin/contracts/access/Ownable.sol\":1177:1245  require(owner() == _msgSender(), \"Ownable: caller is not the owner\") */\n      tag_360\n      jumpi\n      mload(0x40)\n      0x08c379a000000000000000000000000000000000000000000000000000000000\n      dup2\n      mstore\n      0x04\n      add\n      tag_361\n      swap1\n      tag_174\n      jump\t// in\n    tag_361:\n      mload(0x40)\n      dup1\n      swap2\n      sub\n      swap1\n      revert\n    tag_360:\n        /* \"@openzeppelin/contracts/access/Ownable.sol\":1954:1955  0 */\n      0x00\n        /* \"@openzeppelin/contracts/access/Ownable.sol\":1934:1956  newOwner != address(0) */\n      0xffffffffffffffffffffffffffffffffffffffff\n      and\n        /* \"@openzeppelin/contracts/access/Ownable.sol\":1934:1942  newOwner */\n      dup2\n        /* \"@openzeppelin/contracts/access/Ownable.sol\":1934:1956  newOwner != address(0) */\n      0xffffffffffffffffffffffffffffffffffffffff\n      and\n      eq\n      iszero\n        /* \"@openzeppelin/contracts/access/Ownable.sol\":1926:1999  require(newOwner != address(0), \"Ownable: new owner is the zero address\") */\n      tag_363\n      jumpi\n      mload(0x40)\n      0x08c379a000000000000000000000000000000000000000000000000000000000\n      dup2\n      mstore\n      0x04\n      add\n      tag_364\n      swap1\n      tag_365\n      jump\t// in\n    tag_364:\n      mload(0x40)\n      dup1\n      swap2\n      sub\n      swap1\n      revert\n    tag_363:\n        /* \"@openzeppelin/contracts/access/Ownable.sol\":2009:2028  _setOwner(newOwner) */\n      tag_366\n        /* \"@openzeppelin/contracts/access/Ownable.sol\":2019:2027  newOwner */\n      dup2\n        /* \"@openzeppelin/contracts/access/Ownable.sol\":2009:2018  _setOwner */\n      tag_273\n        /* \"@openzeppelin/contracts/access/Ownable.sol\":2009:2028  _setOwner(newOwner) */\n      jump\t// in\n    tag_366:\n        /* \"@openzeppelin/contracts/access/Ownable.sol\":1846:2035  function transferOwnership(address newOwner) public virtual onlyOwner {... */\n      pop\n      jump\t// out\n        /* \"contracts/PreSale.sol\":2351:2402  mapping(address => address) public lastClaimAddress */\n    tag_153:\n      mstore(0x20, 0x0e)\n      dup1\n      0x00\n      mstore\n      keccak256(0x00, 0x40)\n      0x00\n      swap2\n      pop\n      sload\n      swap1\n      0x0100\n      exp\n      swap1\n      div\n      0xffffffffffffffffffffffffffffffffffffffff\n      and\n      dup2\n      jump\t// out\n        /* \"contracts/PreSale.sol\":884:909  IERC20 public rewardToken */\n    tag_157:\n      0x01\n      0x00\n      swap1\n      sload\n      swap1\n      0x0100\n      exp\n      swap1\n      div\n      0xffffffffffffffffffffffffffffffffffffffff\n      and\n      dup2\n      jump\t// out\n        /* \"contracts/PreSale.sol\":1109:1131  uint256 public softcap */\n    tag_161:\n      sload(0x05)\n      dup2\n      jump\t// out\n        /* \"contracts/PreSale.sol\":5546:6059  function updateRewardToken(IERC20 _newRewardToken) public onlyOwner {... */\n    tag_167:\n        /* \"@openzeppelin/contracts/access/Ownable.sol\":1196:1208  _msgSender() */\n      tag_368\n        /* \"@openzeppelin/contracts/access/Ownable.sol\":1196:1206  _msgSender */\n      tag_170\n        /* \"@openzeppelin/contracts/access/Ownable.sol\":1196:1208  _msgSender() */\n      jump\t// in\n    tag_368:\n        /* \"@openzeppelin/contracts/access/Ownable.sol\":1185:1208  owner() == _msgSender() */\n      0xffffffffffffffffffffffffffffffffffffffff\n      and\n        /* \"@openzeppelin/contracts/access/Ownable.sol\":1185:1192  owner() */\n      tag_369\n        /* \"@openzeppelin/contracts/access/Ownable.sol\":1185:1190  owner */\n      tag_94\n        /* \"@openzeppelin/contracts/access/Ownable.sol\":1185:1192  owner() */\n      jump\t// in\n    tag_369:\n        /* \"@openzeppelin/contracts/access/Ownable.sol\":1185:1208  owner() == _msgSender() */\n      0xffffffffffffffffffffffffffffffffffffffff\n      and\n      eq\n        /* \"@openzeppelin/contracts/access/Ownable.sol\":1177:1245  require(owner() == _msgSender(), \"Ownable: caller is not the owner\") */\n      tag_370\n      jumpi\n      mload(0x40)\n      0x08c379a000000000000000000000000000000000000000000000000000000000\n      dup2\n      mstore\n      0x04\n      add\n      tag_371\n      swap1\n      tag_174\n      jump\t// in\n    tag_371:\n      mload(0x40)\n      dup1\n      swap2\n      sub\n      swap1\n      revert\n    tag_370:\n        /* \"contracts/PreSale.sol\":5651:5662  rewardToken */\n      0x01\n      0x00\n      swap1\n      sload\n      swap1\n      0x0100\n      exp\n      swap1\n      div\n      0xffffffffffffffffffffffffffffffffffffffff\n      and\n        /* \"contracts/PreSale.sol\":5632:5662  _newRewardToken != rewardToken */\n      0xffffffffffffffffffffffffffffffffffffffff\n      and\n        /* \"contracts/PreSale.sol\":5632:5647  _newRewardToken */\n      dup2\n        /* \"contracts/PreSale.sol\":5632:5662  _newRewardToken != rewardToken */\n      0xffffffffffffffffffffffffffffffffffffffff\n      and\n      eq\n      iszero\n        /* \"contracts/PreSale.sol\":5624:5737  require(_newRewardToken != rewardToken, \"ABOAT::updateRewardToken: New reward should be different from current.\") */\n      tag_373\n      jumpi\n      mload(0x40)\n      0x08c379a000000000000000000000000000000000000000000000000000000000\n      dup2\n      mstore\n      0x04\n      add\n      tag_374\n      swap1\n      tag_375\n      jump\t// in\n    tag_374:\n      mload(0x40)\n      dup1\n      swap2\n      sub\n      swap1\n      revert\n    tag_373:\n        /* \"contracts/PreSale.sol\":5799:5810  rewardToken */\n      0x01\n      0x00\n      swap1\n      sload\n      swap1\n      0x0100\n      exp\n      swap1\n      div\n      0xffffffffffffffffffffffffffffffffffffffff\n      and\n        /* \"contracts/PreSale.sol\":5799:5820  rewardToken.balanceOf */\n      0xffffffffffffffffffffffffffffffffffffffff\n      and\n      0x70a08231\n        /* \"contracts/PreSale.sol\":5829:5833  this */\n      address\n        /* \"contracts/PreSale.sol\":5799:5835  rewardToken.balanceOf(address(this)) */\n      mload(0x40)\n      dup3\n      0xffffffff\n      and\n      0xe0\n      shl\n      dup2\n      mstore\n      0x04\n      add\n      tag_376\n      swap2\n      swap1\n      tag_96\n      jump\t// in\n    tag_376:\n      0x20\n      mload(0x40)\n      dup1\n      dup4\n      sub\n      dup2\n      dup7\n      dup1\n      extcodesize\n      iszero\n      dup1\n      iszero\n      tag_377\n      jumpi\n      0x00\n      dup1\n      revert\n    tag_377:\n      pop\n      gas\n      staticcall\n      iszero\n      dup1\n      iszero\n      tag_379\n      jumpi\n      returndatasize\n      0x00\n      dup1\n      returndatacopy\n      revert(0x00, returndatasize)\n    tag_379:\n      pop\n      pop\n      pop\n      pop\n      mload(0x40)\n      returndatasize\n      not(0x1f)\n      0x1f\n      dup3\n      add\n      and\n      dup3\n      add\n      dup1\n      0x40\n      mstore\n      pop\n      dup2\n      add\n      swap1\n      tag_380\n      swap2\n      swap1\n      tag_190\n      jump\t// in\n    tag_380:\n        /* \"contracts/PreSale.sol\":5755:5770  _newRewardToken */\n      dup2\n        /* \"contracts/PreSale.sol\":5755:5780  _newRewardToken.balanceOf */\n      0xffffffffffffffffffffffffffffffffffffffff\n      and\n      0x70a08231\n        /* \"contracts/PreSale.sol\":5789:5793  this */\n      address\n        /* \"contracts/PreSale.sol\":5755:5795  _newRewardToken.balanceOf(address(this)) */\n      mload(0x40)\n      dup3\n      0xffffffff\n      and\n      0xe0\n      shl\n      dup2\n      mstore\n      0x04\n      add\n      tag_381\n      swap2\n      swap1\n      tag_96\n      jump\t// in\n    tag_381:\n      0x20\n      mload(0x40)\n      dup1\n      dup4\n      sub\n      dup2\n      dup7\n      dup1\n      extcodesize\n      iszero\n      dup1\n      iszero\n      tag_382\n      jumpi\n      0x00\n      dup1\n      revert\n    tag_382:\n      pop\n      gas\n      staticcall\n      iszero\n      dup1\n      iszero\n      tag_384\n      jumpi\n      returndatasize\n      0x00\n      dup1\n      returndatacopy\n      revert(0x00, returndatasize)\n    tag_384:\n      pop\n      pop\n      pop\n      pop\n      mload(0x40)\n      returndatasize\n      not(0x1f)\n      0x1f\n      dup3\n      add\n      and\n      dup3\n      add\n      dup1\n      0x40\n      mstore\n      pop\n      dup2\n      add\n      swap1\n      tag_385\n      swap2\n      swap1\n      tag_190\n      jump\t// in\n    tag_385:\n        /* \"contracts/PreSale.sol\":5755:5835  _newRewardToken.balanceOf(address(this)) == rewardToken.balanceOf(address(this)) */\n      eq\n        /* \"contracts/PreSale.sol\":5747:5959  require(_newRewardToken.balanceOf(address(this)) == rewardToken.balanceOf(address(this)), \"ABOAT::updateRewardToken: The contract should contain atleast the same amount of tokens as from the current rewardToken\") */\n      tag_386\n      jumpi\n      mload(0x40)\n      0x08c379a000000000000000000000000000000000000000000000000000000000\n      dup2\n      mstore\n      0x04\n      add\n      tag_387\n      swap1\n      tag_388\n      jump\t// in\n    tag_387:\n      mload(0x40)\n      dup1\n      swap2\n      sub\n      swap1\n      revert\n    tag_386:\n        /* \"contracts/PreSale.sol\":5983:5998  _newRewardToken */\n      dup1\n        /* \"contracts/PreSale.sol\":5969:5980  rewardToken */\n      0x01\n      0x00\n        /* \"contracts/PreSale.sol\":5969:5998  rewardToken = _newRewardToken */\n      0x0100\n      exp\n      dup2\n      sload\n      dup2\n      0xffffffffffffffffffffffffffffffffffffffff\n      mul\n      not\n      and\n      swap1\n      dup4\n      0xffffffffffffffffffffffffffffffffffffffff\n      and\n      mul\n      or\n      swap1\n      sstore\n      pop\n        /* \"contracts/PreSale.sol\":6039:6050  rewardToken */\n      0x01\n      0x00\n      swap1\n      sload\n      swap1\n      0x0100\n      exp\n      swap1\n      div\n      0xffffffffffffffffffffffffffffffffffffffff\n      and\n        /* \"contracts/PreSale.sol\":6013:6052  ChangeRewardToken(address(rewardToken)) */\n      0xffffffffffffffffffffffffffffffffffffffff\n      and\n      0x3fcfc24a3384ca156092d9242cb0f84abaf442146d91b8c93bea526561b83f83\n      mload(0x40)\n      mload(0x40)\n      dup1\n      swap2\n      sub\n      swap1\n      log2\n        /* \"contracts/PreSale.sol\":5546:6059  function updateRewardToken(IERC20 _newRewardToken) public onlyOwner {... */\n      pop\n      jump\t// out\n        /* \"@openzeppelin/contracts/utils/Context.sol\":586:682  function _msgSender() internal view virtual returns (address) {... */\n    tag_170:\n        /* \"@openzeppelin/contracts/utils/Context.sol\":639:646  address */\n      0x00\n        /* \"@openzeppelin/contracts/utils/Context.sol\":665:675  msg.sender */\n      caller\n        /* \"@openzeppelin/contracts/utils/Context.sol\":658:675  return msg.sender */\n      swap1\n      pop\n        /* \"@openzeppelin/contracts/utils/Context.sol\":586:682  function _msgSender() internal view virtual returns (address) {... */\n      swap1\n      jump\t// out\n        /* \"@openzeppelin/contracts/utils/math/SafeMath.sol\":3039:3135  function sub(uint256 a, uint256 b) internal pure returns (uint256) {... */\n    tag_182:\n        /* \"@openzeppelin/contracts/utils/math/SafeMath.sol\":3097:3104  uint256 */\n      0x00\n        /* \"@openzeppelin/contracts/utils/math/SafeMath.sol\":3127:3128  b */\n      dup2\n        /* \"@openzeppelin/contracts/utils/math/SafeMath.sol\":3123:3124  a */\n      dup4\n        /* \"@openzeppelin/contracts/utils/math/SafeMath.sol\":3123:3128  a - b */\n      tag_391\n      swap2\n      swap1\n      tag_392\n      jump\t// in\n    tag_391:\n        /* \"@openzeppelin/contracts/utils/math/SafeMath.sol\":3116:3128  return a - b */\n      swap1\n      pop\n        /* \"@openzeppelin/contracts/utils/math/SafeMath.sol\":3039:3135  function sub(uint256 a, uint256 b) internal pure returns (uint256) {... */\n      swap3\n      swap2\n      pop\n      pop\n      jump\t// out\n        /* \"@openzeppelin/contracts/utils/math/SafeMath.sol\":3382:3478  function mul(uint256 a, uint256 b) internal pure returns (uint256) {... */\n    tag_197:\n        /* \"@openzeppelin/contracts/utils/math/SafeMath.sol\":3440:3447  uint256 */\n      0x00\n        /* \"@openzeppelin/contracts/utils/math/SafeMath.sol\":3470:3471  b */\n      dup2\n        /* \"@openzeppelin/contracts/utils/math/SafeMath.sol\":3466:3467  a */\n      dup4\n        /* \"@openzeppelin/contracts/utils/math/SafeMath.sol\":3466:3471  a * b */\n      tag_394\n      swap2\n      swap1\n      tag_279\n      jump\t// in\n    tag_394:\n        /* \"@openzeppelin/contracts/utils/math/SafeMath.sol\":3459:3471  return a * b */\n      swap1\n      pop\n        /* \"@openzeppelin/contracts/utils/math/SafeMath.sol\":3382:3478  function mul(uint256 a, uint256 b) internal pure returns (uint256) {... */\n      swap3\n      swap2\n      pop\n      pop\n      jump\t// out\n        /* \"@openzeppelin/contracts/utils/math/SafeMath.sol\":2672:2768  function add(uint256 a, uint256 b) internal pure returns (uint256) {... */\n    tag_198:\n        /* \"@openzeppelin/contracts/utils/math/SafeMath.sol\":2730:2737  uint256 */\n      0x00\n        /* \"@openzeppelin/contracts/utils/math/SafeMath.sol\":2760:2761  b */\n      dup2\n        /* \"@openzeppelin/contracts/utils/math/SafeMath.sol\":2756:2757  a */\n      dup4\n        /* \"@openzeppelin/contracts/utils/math/SafeMath.sol\":2756:2761  a + b */\n      tag_396\n      swap2\n      swap1\n      tag_397\n      jump\t// in\n    tag_396:\n        /* \"@openzeppelin/contracts/utils/math/SafeMath.sol\":2749:2761  return a + b */\n      swap1\n      pop\n        /* \"@openzeppelin/contracts/utils/math/SafeMath.sol\":2672:2768  function add(uint256 a, uint256 b) internal pure returns (uint256) {... */\n      swap3\n      swap2\n      pop\n      pop\n      jump\t// out\n        /* \"@openzeppelin/contracts/utils/math/SafeMath.sol\":3767:3863  function div(uint256 a, uint256 b) internal pure returns (uint256) {... */\n    tag_216:\n        /* \"@openzeppelin/contracts/utils/math/SafeMath.sol\":3825:3832  uint256 */\n      0x00\n        /* \"@openzeppelin/contracts/utils/math/SafeMath.sol\":3855:3856  b */\n      dup2\n        /* \"@openzeppelin/contracts/utils/math/SafeMath.sol\":3851:3852  a */\n      dup4\n        /* \"@openzeppelin/contracts/utils/math/SafeMath.sol\":3851:3856  a / b */\n      tag_399\n      swap2\n      swap1\n      tag_400\n      jump\t// in\n    tag_399:\n        /* \"@openzeppelin/contracts/utils/math/SafeMath.sol\":3844:3856  return a / b */\n      swap1\n      pop\n        /* \"@openzeppelin/contracts/utils/math/SafeMath.sol\":3767:3863  function div(uint256 a, uint256 b) internal pure returns (uint256) {... */\n      swap3\n      swap2\n      pop\n      pop\n      jump\t// out\n        /* \"contracts/libraries/TransferHelper.sol\":210:594  function safeTransfer(... */\n    tag_220:\n        /* \"contracts/libraries/TransferHelper.sol\":324:336  bool success */\n      0x00\n        /* \"contracts/libraries/TransferHelper.sol\":338:355  bytes memory data */\n      dup1\n        /* \"contracts/libraries/TransferHelper.sol\":371:376  token */\n      dup5\n        /* \"contracts/libraries/TransferHelper.sol\":371:381  token.call */\n      0xffffffffffffffffffffffffffffffffffffffff\n      and\n        /* \"contracts/libraries/TransferHelper.sol\":405:415  0xa9059cbb */\n      0xa9059cbb\n        /* \"contracts/libraries/TransferHelper.sol\":417:419  to */\n      dup6\n        /* \"contracts/libraries/TransferHelper.sol\":421:426  value */\n      dup6\n        /* \"contracts/libraries/TransferHelper.sol\":382:427  abi.encodeWithSelector(0xa9059cbb, to, value) */\n      add(0x24, mload(0x40))\n      tag_402\n      swap3\n      swap2\n      swap1\n      tag_403\n      jump\t// in\n    tag_402:\n      mload(0x40)\n      0x20\n      dup2\n      dup4\n      sub\n      sub\n      dup2\n      mstore\n      swap1\n      0x40\n      mstore\n      swap1\n      0xe0\n      shl\n      0x20\n      dup3\n      add\n      dup1\n      mload\n      0xffffffffffffffffffffffffffffffffffffffffffffffffffffffff\n      dup4\n      dup2\n      dup4\n      and\n      or\n      dup4\n      mstore\n      pop\n      pop\n      pop\n      pop\n        /* \"contracts/libraries/TransferHelper.sol\":371:428  token.call(abi.encodeWithSelector(0xa9059cbb, to, value)) */\n      mload(0x40)\n      tag_404\n      swap2\n      swap1\n      tag_405\n      jump\t// in\n    tag_404:\n      0x00\n      mload(0x40)\n      dup1\n      dup4\n      sub\n      dup2\n      0x00\n      dup7\n      gas\n      call\n      swap2\n      pop\n      pop\n      returndatasize\n      dup1\n      0x00\n      dup2\n      eq\n      tag_408\n      jumpi\n      mload(0x40)\n      swap2\n      pop\n      and(add(returndatasize, 0x3f), not(0x1f))\n      dup3\n      add\n      0x40\n      mstore\n      returndatasize\n      dup3\n      mstore\n      returndatasize\n      0x00\n      0x20\n      dup5\n      add\n      returndatacopy\n      jump(tag_407)\n    tag_408:\n      0x60\n      swap2\n      pop\n    tag_407:\n      pop\n        /* \"contracts/libraries/TransferHelper.sol\":323:428  (bool success, bytes memory data) =... */\n      swap2\n      pop\n      swap2\n      pop\n        /* \"contracts/libraries/TransferHelper.sol\":459:466  success */\n      dup2\n        /* \"contracts/libraries/TransferHelper.sol\":459:516  success && (data.length == 0 || abi.decode(data, (bool))) */\n      dup1\n      iszero\n      tag_409\n      jumpi\n      pop\n        /* \"contracts/libraries/TransferHelper.sol\":486:487  0 */\n      0x00\n        /* \"contracts/libraries/TransferHelper.sol\":471:475  data */\n      dup2\n        /* \"contracts/libraries/TransferHelper.sol\":471:482  data.length */\n      mload\n        /* \"contracts/libraries/TransferHelper.sol\":471:487  data.length == 0 */\n      eq\n        /* \"contracts/libraries/TransferHelper.sol\":471:515  data.length == 0 || abi.decode(data, (bool)) */\n      dup1\n      tag_410\n      jumpi\n      pop\n        /* \"contracts/libraries/TransferHelper.sol\":502:506  data */\n      dup1\n        /* \"contracts/libraries/TransferHelper.sol\":491:515  abi.decode(data, (bool)) */\n      dup1\n      0x20\n      add\n      swap1\n      mload\n      dup2\n      add\n      swap1\n      tag_411\n      swap2\n      swap1\n      tag_412\n      jump\t// in\n    tag_411:\n        /* \"contracts/libraries/TransferHelper.sol\":471:515  data.length == 0 || abi.decode(data, (bool)) */\n    tag_410:\n        /* \"contracts/libraries/TransferHelper.sol\":459:516  success && (data.length == 0 || abi.decode(data, (bool))) */\n    tag_409:\n        /* \"contracts/libraries/TransferHelper.sol\":438:587  require(... */\n      tag_413\n      jumpi\n      mload(0x40)\n      0x08c379a000000000000000000000000000000000000000000000000000000000\n      dup2\n      mstore\n      0x04\n      add\n      tag_414\n      swap1\n      tag_415\n      jump\t// in\n    tag_414:\n      mload(0x40)\n      dup1\n      swap2\n      sub\n      swap1\n      revert\n    tag_413:\n        /* \"contracts/libraries/TransferHelper.sol\":313:594  {... */\n      pop\n      pop\n        /* \"contracts/libraries/TransferHelper.sol\":210:594  function safeTransfer(... */\n      pop\n      pop\n      pop\n      jump\t// out\n        /* \"contracts/libraries/TransferHelper.sol\":1026:1274  function safeTransferETH(address to, uint256 value) internal {... */\n    tag_223:\n        /* \"contracts/libraries/TransferHelper.sol\":1098:1110  bool success */\n      0x00\n        /* \"contracts/libraries/TransferHelper.sol\":1116:1118  to */\n      dup3\n        /* \"contracts/libraries/TransferHelper.sol\":1116:1123  to.call */\n      0xffffffffffffffffffffffffffffffffffffffff\n      and\n        /* \"contracts/libraries/TransferHelper.sol\":1131:1136  value */\n      dup3\n        /* \"contracts/libraries/TransferHelper.sol\":1148:1149  0 */\n      0x00\n        /* \"contracts/libraries/TransferHelper.sol\":1138:1150  new bytes(0) */\n      0xffffffffffffffff\n      dup2\n      gt\n      iszero\n      tag_417\n      jumpi\n      tag_418\n      tag_419\n      jump\t// in\n    tag_418:\n    tag_417:\n      mload(0x40)\n      swap1\n      dup1\n      dup3\n      mstore\n      dup1\n      0x1f\n      add\n      not(0x1f)\n      and\n      0x20\n      add\n      dup3\n      add\n      0x40\n      mstore\n      dup1\n      iszero\n      tag_420\n      jumpi\n      dup2\n      0x20\n      add\n      0x01\n      dup3\n      mul\n      dup1\n      calldatasize\n      dup4\n      calldatacopy\n      dup1\n      dup3\n      add\n      swap2\n      pop\n      pop\n      swap1\n      pop\n    tag_420:\n      pop\n        /* \"contracts/libraries/TransferHelper.sol\":1116:1151  to.call{value: value}(new bytes(0)) */\n      mload(0x40)\n      tag_421\n      swap2\n      swap1\n      tag_405\n      jump\t// in\n    tag_421:\n      0x00\n      mload(0x40)\n      dup1\n      dup4\n      sub\n      dup2\n      dup6\n      dup8\n      gas\n      call\n      swap3\n      pop\n      pop\n      pop\n      returndatasize\n      dup1\n      0x00\n      dup2\n      eq\n      tag_424\n      jumpi\n      mload(0x40)\n      swap2\n      pop\n      and(add(returndatasize, 0x3f), not(0x1f))\n      dup3\n      add\n      0x40\n      mstore\n      returndatasize\n      dup3\n      mstore\n      returndatasize\n      0x00\n      0x20\n      dup5\n      add\n      returndatacopy\n      jump(tag_423)\n    tag_424:\n      0x60\n      swap2\n      pop\n    tag_423:\n      pop\n        /* \"contracts/libraries/TransferHelper.sol\":1097:1151  (bool success, ) = to.call{value: value}(new bytes(0)) */\n      pop\n      swap1\n      pop\n        /* \"contracts/libraries/TransferHelper.sol\":1182:1189  success */\n      dup1\n        /* \"contracts/libraries/TransferHelper.sol\":1161:1267  require(... */\n      tag_425\n      jumpi\n      mload(0x40)\n      0x08c379a000000000000000000000000000000000000000000000000000000000\n      dup2\n      mstore\n      0x04\n      add\n      tag_426\n      swap1\n      tag_427\n      jump\t// in\n    tag_426:\n      mload(0x40)\n      dup1\n      swap2\n      sub\n      swap1\n      revert\n    tag_425:\n        /* \"contracts/libraries/TransferHelper.sol\":1087:1274  {... */\n      pop\n        /* \"contracts/libraries/TransferHelper.sol\":1026:1274  function safeTransferETH(address to, uint256 value) internal {... */\n      pop\n      pop\n      jump\t// out\n        /* \"@openzeppelin/contracts/access/Ownable.sol\":2041:2210  function _setOwner(address newOwner) private {... */\n    tag_273:\n        /* \"@openzeppelin/contracts/access/Ownable.sol\":2096:2112  address oldOwner */\n      0x00\n        /* \"@openzeppelin/contracts/access/Ownable.sol\":2115:2121  _owner */\n      dup1\n      0x00\n      swap1\n      sload\n      swap1\n      0x0100\n      exp\n      swap1\n      div\n      0xffffffffffffffffffffffffffffffffffffffff\n      and\n        /* \"@openzeppelin/contracts/access/Ownable.sol\":2096:2121  address oldOwner = _owner */\n      swap1\n      pop\n        /* \"@openzeppelin/contracts/access/Ownable.sol\":2140:2148  newOwner */\n      dup2\n        /* \"@openzeppelin/contracts/access/Ownable.sol\":2131:2137  _owner */\n      0x00\n      dup1\n        /* \"@openzeppelin/contracts/access/Ownable.sol\":2131:2148  _owner = newOwner */\n      0x0100\n      exp\n      dup2\n      sload\n      dup2\n      0xffffffffffffffffffffffffffffffffffffffff\n      mul\n      not\n      and\n      swap1\n      dup4\n      0xffffffffffffffffffffffffffffffffffffffff\n      and\n      mul\n      or\n      swap1\n      sstore\n      pop\n        /* \"@openzeppelin/contracts/access/Ownable.sol\":2194:2202  newOwner */\n      dup2\n        /* \"@openzeppelin/contracts/access/Ownable.sol\":2163:2203  OwnershipTransferred(oldOwner, newOwner) */\n      0xffffffffffffffffffffffffffffffffffffffff\n      and\n        /* \"@openzeppelin/contracts/access/Ownable.sol\":2184:2192  oldOwner */\n      dup2\n        /* \"@openzeppelin/contracts/access/Ownable.sol\":2163:2203  OwnershipTransferred(oldOwner, newOwner) */\n      0xffffffffffffffffffffffffffffffffffffffff\n      and\n      0x8be0079c531659141344cd1fd0a4f28419497f9722a3daafe3b4186f6b6457e0\n      mload(0x40)\n      mload(0x40)\n      dup1\n      swap2\n      sub\n      swap1\n      log3\n        /* \"@openzeppelin/contracts/access/Ownable.sol\":2086:2210  {... */\n      pop\n        /* \"@openzeppelin/contracts/access/Ownable.sol\":2041:2210  function _setOwner(address newOwner) private {... */\n      pop\n      jump\t// out\n        /* \"@openzeppelin/contracts/token/ERC20/utils/SafeERC20.sol\":845:1086  function safeTransferFrom(... */\n    tag_323:\n        /* \"@openzeppelin/contracts/token/ERC20/utils/SafeERC20.sol\":983:1079  _callOptionalReturn(token, abi.encodeWithSelector(token.transferFrom.selector, from, to, value)) */\n      tag_430\n        /* \"@openzeppelin/contracts/token/ERC20/utils/SafeERC20.sol\":1003:1008  token */\n      dup5\n        /* \"@openzeppelin/contracts/token/ERC20/utils/SafeERC20.sol\":1033:1060  token.transferFrom.selector */\n      shl(0xe0, 0x23b872dd)\n        /* \"@openzeppelin/contracts/token/ERC20/utils/SafeERC20.sol\":1062:1066  from */\n      dup6\n        /* \"@openzeppelin/contracts/token/ERC20/utils/SafeERC20.sol\":1068:1070  to */\n      dup6\n        /* \"@openzeppelin/contracts/token/ERC20/utils/SafeERC20.sol\":1072:1077  value */\n      dup6\n        /* \"@openzeppelin/contracts/token/ERC20/utils/SafeERC20.sol\":1010:1078  abi.encodeWithSelector(token.transferFrom.selector, from, to, value) */\n      add(0x24, mload(0x40))\n      tag_431\n      swap4\n      swap3\n      swap2\n      swap1\n      tag_432\n      jump\t// in\n    tag_431:\n      mload(0x40)\n      0x20\n      dup2\n      dup4\n      sub\n      sub\n      dup2\n      mstore\n      swap1\n      0x40\n      mstore\n      swap1\n      not(0xffffffffffffffffffffffffffffffffffffffffffffffffffffffff)\n      and\n      0x20\n      dup3\n      add\n      dup1\n      mload\n      0xffffffffffffffffffffffffffffffffffffffffffffffffffffffff\n      dup4\n      dup2\n      dup4\n      and\n      or\n      dup4\n      mstore\n      pop\n      pop\n      pop\n      pop\n        /* \"@openzeppelin/contracts/token/ERC20/utils/SafeERC20.sol\":983:1002  _callOptionalReturn */\n      tag_433\n        /* \"@openzeppelin/contracts/token/ERC20/utils/SafeERC20.sol\":983:1079  _callOptionalReturn(token, abi.encodeWithSelector(token.transferFrom.selector, from, to, value)) */\n      jump\t// in\n    tag_430:\n        /* \"@openzeppelin/contracts/token/ERC20/utils/SafeERC20.sol\":845:1086  function safeTransferFrom(... */\n      pop\n      pop\n      pop\n      pop\n      jump\t// out\n        /* \"@openzeppelin/contracts/token/ERC20/utils/SafeERC20.sol\":3140:3846  function _callOptionalReturn(IERC20 token, bytes memory data) private {... */\n    tag_433:\n        /* \"@openzeppelin/contracts/token/ERC20/utils/SafeERC20.sol\":3559:3582  bytes memory returndata */\n      0x00\n        /* \"@openzeppelin/contracts/token/ERC20/utils/SafeERC20.sol\":3585:3654  address(token).functionCall(data, \"SafeERC20: low-level call failed\") */\n      tag_435\n        /* \"@openzeppelin/contracts/token/ERC20/utils/SafeERC20.sol\":3613:3617  data */\n      dup3\n        /* \"@openzeppelin/contracts/token/ERC20/utils/SafeERC20.sol\":3585:3654  address(token).functionCall(data, \"SafeERC20: low-level call failed\") */\n      mload(0x40)\n      dup1\n      0x40\n      add\n      0x40\n      mstore\n      dup1\n      0x20\n      dup2\n      mstore\n      0x20\n      add\n      0x5361666545524332303a206c6f772d6c6576656c2063616c6c206661696c6564\n      dup2\n      mstore\n      pop\n        /* \"@openzeppelin/contracts/token/ERC20/utils/SafeERC20.sol\":3593:3598  token */\n      dup6\n        /* \"@openzeppelin/contracts/token/ERC20/utils/SafeERC20.sol\":3585:3612  address(token).functionCall */\n      0xffffffffffffffffffffffffffffffffffffffff\n      and\n      tag_436\n      swap1\n        /* \"@openzeppelin/contracts/token/ERC20/utils/SafeERC20.sol\":3585:3654  address(token).functionCall(data, \"SafeERC20: low-level call failed\") */\n      swap3\n      swap2\n      swap1\n      0xffffffff\n      and\n      jump\t// in\n    tag_435:\n        /* \"@openzeppelin/contracts/token/ERC20/utils/SafeERC20.sol\":3559:3654  bytes memory returndata = address(token).functionCall(data, \"SafeERC20: low-level call failed\") */\n      swap1\n      pop\n        /* \"@openzeppelin/contracts/token/ERC20/utils/SafeERC20.sol\":3688:3689  0 */\n      0x00\n        /* \"@openzeppelin/contracts/token/ERC20/utils/SafeERC20.sol\":3668:3678  returndata */\n      dup2\n        /* \"@openzeppelin/contracts/token/ERC20/utils/SafeERC20.sol\":3668:3685  returndata.length */\n      mload\n        /* \"@openzeppelin/contracts/token/ERC20/utils/SafeERC20.sol\":3668:3689  returndata.length > 0 */\n      gt\n        /* \"@openzeppelin/contracts/token/ERC20/utils/SafeERC20.sol\":3664:3840  if (returndata.length > 0) {... */\n      iszero\n      tag_437\n      jumpi\n        /* \"@openzeppelin/contracts/token/ERC20/utils/SafeERC20.sol\":3763:3773  returndata */\n      dup1\n        /* \"@openzeppelin/contracts/token/ERC20/utils/SafeERC20.sol\":3752:3782  abi.decode(returndata, (bool)) */\n      dup1\n      0x20\n      add\n      swap1\n      mload\n      dup2\n      add\n      swap1\n      tag_438\n      swap2\n      swap1\n      tag_412\n      jump\t// in\n    tag_438:\n        /* \"@openzeppelin/contracts/token/ERC20/utils/SafeERC20.sol\":3744:3829  require(abi.decode(returndata, (bool)), \"SafeERC20: ERC20 operation did not succeed\") */\n      tag_439\n      jumpi\n      mload(0x40)\n      0x08c379a000000000000000000000000000000000000000000000000000000000\n      dup2\n      mstore\n      0x04\n      add\n      tag_440\n      swap1\n      tag_441\n      jump\t// in\n    tag_440:\n      mload(0x40)\n      dup1\n      swap2\n      sub\n      swap1\n      revert\n    tag_439:\n        /* \"@openzeppelin/contracts/token/ERC20/utils/SafeERC20.sol\":3664:3840  if (returndata.length > 0) {... */\n    tag_437:\n        /* \"@openzeppelin/contracts/token/ERC20/utils/SafeERC20.sol\":3210:3846  {... */\n      pop\n        /* \"@openzeppelin/contracts/token/ERC20/utils/SafeERC20.sol\":3140:3846  function _callOptionalReturn(IERC20 token, bytes memory data) private {... */\n      pop\n      pop\n      jump\t// out\n        /* \"@openzeppelin/contracts/utils/Address.sol\":3461:3684  function functionCall(... */\n    tag_436:\n        /* \"@openzeppelin/contracts/utils/Address.sol\":3594:3606  bytes memory */\n      0x60\n        /* \"@openzeppelin/contracts/utils/Address.sol\":3625:3677  functionCallWithValue(target, data, 0, errorMessage) */\n      tag_443\n        /* \"@openzeppelin/contracts/utils/Address.sol\":3647:3653  target */\n      dup5\n        /* \"@openzeppelin/contracts/utils/Address.sol\":3655:3659  data */\n      dup5\n        /* \"@openzeppelin/contracts/utils/Address.sol\":3661:3662  0 */\n      0x00\n        /* \"@openzeppelin/contracts/utils/Address.sol\":3664:3676  errorMessage */\n      dup6\n        /* \"@openzeppelin/contracts/utils/Address.sol\":3625:3646  functionCallWithValue */\n      tag_444\n        /* \"@openzeppelin/contracts/utils/Address.sol\":3625:3677  functionCallWithValue(target, data, 0, errorMessage) */\n      jump\t// in\n    tag_443:\n        /* \"@openzeppelin/contracts/utils/Address.sol\":3618:3677  return functionCallWithValue(target, data, 0, errorMessage) */\n      swap1\n      pop\n        /* \"@openzeppelin/contracts/utils/Address.sol\":3461:3684  function functionCall(... */\n      swap4\n      swap3\n      pop\n      pop\n      pop\n      jump\t// out\n        /* \"@openzeppelin/contracts/utils/Address.sol\":4548:5048  function functionCallWithValue(... */\n    tag_444:\n        /* \"@openzeppelin/contracts/utils/Address.sol\":4713:4725  bytes memory */\n      0x60\n        /* \"@openzeppelin/contracts/utils/Address.sol\":4770:4775  value */\n      dup3\n        /* \"@openzeppelin/contracts/utils/Address.sol\":4745:4766  address(this).balance */\n      selfbalance\n        /* \"@openzeppelin/contracts/utils/Address.sol\":4745:4775  address(this).balance >= value */\n      lt\n      iszero\n        /* \"@openzeppelin/contracts/utils/Address.sol\":4737:4818  require(address(this).balance >= value, \"Address: insufficient balance for call\") */\n      tag_446\n      jumpi\n      mload(0x40)\n      0x08c379a000000000000000000000000000000000000000000000000000000000\n      dup2\n      mstore\n      0x04\n      add\n      tag_447\n      swap1\n      tag_448\n      jump\t// in\n    tag_447:\n      mload(0x40)\n      dup1\n      swap2\n      sub\n      swap1\n      revert\n    tag_446:\n        /* \"@openzeppelin/contracts/utils/Address.sol\":4836:4854  isContract(target) */\n      tag_449\n        /* \"@openzeppelin/contracts/utils/Address.sol\":4847:4853  target */\n      dup6\n        /* \"@openzeppelin/contracts/utils/Address.sol\":4836:4846  isContract */\n      tag_450\n        /* \"@openzeppelin/contracts/utils/Address.sol\":4836:4854  isContract(target) */\n      jump\t// in\n    tag_449:\n        /* \"@openzeppelin/contracts/utils/Address.sol\":4828:4888  require(isContract(target), \"Address: call to non-contract\") */\n      tag_451\n      jumpi\n      mload(0x40)\n      0x08c379a000000000000000000000000000000000000000000000000000000000\n      dup2\n      mstore\n      0x04\n      add\n      tag_452\n      swap1\n      tag_453\n      jump\t// in\n    tag_452:\n      mload(0x40)\n      dup1\n      swap2\n      sub\n      swap1\n      revert\n    tag_451:\n        /* \"@openzeppelin/contracts/utils/Address.sol\":4900:4912  bool success */\n      0x00\n        /* \"@openzeppelin/contracts/utils/Address.sol\":4914:4937  bytes memory returndata */\n      dup1\n        /* \"@openzeppelin/contracts/utils/Address.sol\":4941:4947  target */\n      dup7\n        /* \"@openzeppelin/contracts/utils/Address.sol\":4941:4952  target.call */\n      0xffffffffffffffffffffffffffffffffffffffff\n      and\n        /* \"@openzeppelin/contracts/utils/Address.sol\":4960:4965  value */\n      dup6\n        /* \"@openzeppelin/contracts/utils/Address.sol\":4967:4971  data */\n      dup8\n        /* \"@openzeppelin/contracts/utils/Address.sol\":4941:4972  target.call{value: value}(data) */\n      mload(0x40)\n      tag_454\n      swap2\n      swap1\n      tag_405\n      jump\t// in\n    tag_454:\n      0x00\n      mload(0x40)\n      dup1\n      dup4\n      sub\n      dup2\n      dup6\n      dup8\n      gas\n      call\n      swap3\n      pop\n      pop\n      pop\n      returndatasize\n      dup1\n      0x00\n      dup2\n      eq\n      tag_457\n      jumpi\n      mload(0x40)\n      swap2\n      pop\n      and(add(returndatasize, 0x3f), not(0x1f))\n      dup3\n      add\n      0x40\n      mstore\n      returndatasize\n      dup3\n      mstore\n      returndatasize\n      0x00\n      0x20\n      dup5\n      add\n      returndatacopy\n      jump(tag_456)\n    tag_457:\n      0x60\n      swap2\n      pop\n    tag_456:\n      pop\n        /* \"@openzeppelin/contracts/utils/Address.sol\":4899:4972  (bool success, bytes memory returndata) = target.call{value: value}(data) */\n      swap2\n      pop\n      swap2\n      pop\n        /* \"@openzeppelin/contracts/utils/Address.sol\":4989:5041  _verifyCallResult(success, returndata, errorMessage) */\n      tag_458\n        /* \"@openzeppelin/contracts/utils/Address.sol\":5007:5014  success */\n      dup3\n        /* \"@openzeppelin/contracts/utils/Address.sol\":5016:5026  returndata */\n      dup3\n        /* \"@openzeppelin/contracts/utils/Address.sol\":5028:5040  errorMessage */\n      dup7\n        /* \"@openzeppelin/contracts/utils/Address.sol\":4989:5006  _verifyCallResult */\n      tag_459\n        /* \"@openzeppelin/contracts/utils/Address.sol\":4989:5041  _verifyCallResult(success, returndata, errorMessage) */\n      jump\t// in\n    tag_458:\n        /* \"@openzeppelin/contracts/utils/Address.sol\":4982:5041  return _verifyCallResult(success, returndata, errorMessage) */\n      swap3\n      pop\n      pop\n      pop\n        /* \"@openzeppelin/contracts/utils/Address.sol\":4548:5048  function functionCallWithValue(... */\n      swap5\n      swap4\n      pop\n      pop\n      pop\n      pop\n      jump\t// out\n        /* \"@openzeppelin/contracts/utils/Address.sol\":718:1095  function isContract(address account) internal view returns (bool) {... */\n    tag_450:\n        /* \"@openzeppelin/contracts/utils/Address.sol\":778:782  bool */\n      0x00\n        /* \"@openzeppelin/contracts/utils/Address.sol\":981:993  uint256 size */\n      dup1\n        /* \"@openzeppelin/contracts/utils/Address.sol\":1046:1053  account */\n      dup3\n        /* \"@openzeppelin/contracts/utils/Address.sol\":1034:1054  extcodesize(account) */\n      extcodesize\n        /* \"@openzeppelin/contracts/utils/Address.sol\":1026:1054  size := extcodesize(account) */\n      swap1\n      pop\n        /* \"@openzeppelin/contracts/utils/Address.sol\":1087:1088  0 */\n      0x00\n        /* \"@openzeppelin/contracts/utils/Address.sol\":1080:1084  size */\n      dup2\n        /* \"@openzeppelin/contracts/utils/Address.sol\":1080:1088  size > 0 */\n      gt\n        /* \"@openzeppelin/contracts/utils/Address.sol\":1073:1088  return size > 0 */\n      swap2\n      pop\n      pop\n        /* \"@openzeppelin/contracts/utils/Address.sol\":718:1095  function isContract(address account) internal view returns (bool) {... */\n      swap2\n      swap1\n      pop\n      jump\t// out\n        /* \"@openzeppelin/contracts/utils/Address.sol\":6950:7642  function _verifyCallResult(... */\n    tag_459:\n        /* \"@openzeppelin/contracts/utils/Address.sol\":7096:7108  bytes memory */\n      0x60\n        /* \"@openzeppelin/contracts/utils/Address.sol\":7124:7131  success */\n      dup4\n        /* \"@openzeppelin/contracts/utils/Address.sol\":7120:7636  if (success) {... */\n      iszero\n      tag_462\n      jumpi\n        /* \"@openzeppelin/contracts/utils/Address.sol\":7154:7164  returndata */\n      dup3\n        /* \"@openzeppelin/contracts/utils/Address.sol\":7147:7164  return returndata */\n      swap1\n      pop\n      jump(tag_461)\n        /* \"@openzeppelin/contracts/utils/Address.sol\":7120:7636  if (success) {... */\n    tag_462:\n        /* \"@openzeppelin/contracts/utils/Address.sol\":7285:7286  0 */\n      0x00\n        /* \"@openzeppelin/contracts/utils/Address.sol\":7265:7275  returndata */\n      dup4\n        /* \"@openzeppelin/contracts/utils/Address.sol\":7265:7282  returndata.length */\n      mload\n        /* \"@openzeppelin/contracts/utils/Address.sol\":7265:7286  returndata.length > 0 */\n      gt\n        /* \"@openzeppelin/contracts/utils/Address.sol\":7261:7626  if (returndata.length > 0) {... */\n      iszero\n      tag_464\n      jumpi\n        /* \"@openzeppelin/contracts/utils/Address.sol\":7459:7469  returndata */\n      dup3\n        /* \"@openzeppelin/contracts/utils/Address.sol\":7453:7470  mload(returndata) */\n      mload\n        /* \"@openzeppelin/contracts/utils/Address.sol\":7519:7534  returndata_size */\n      dup1\n        /* \"@openzeppelin/contracts/utils/Address.sol\":7506:7516  returndata */\n      dup5\n        /* \"@openzeppelin/contracts/utils/Address.sol\":7502:7504  32 */\n      0x20\n        /* \"@openzeppelin/contracts/utils/Address.sol\":7498:7517  add(32, returndata) */\n      add\n        /* \"@openzeppelin/contracts/utils/Address.sol\":7491:7535  revert(add(32, returndata), returndata_size) */\n      revert\n        /* \"@openzeppelin/contracts/utils/Address.sol\":7261:7626  if (returndata.length > 0) {... */\n    tag_464:\n        /* \"@openzeppelin/contracts/utils/Address.sol\":7598:7610  errorMessage */\n      dup2\n        /* \"@openzeppelin/contracts/utils/Address.sol\":7591:7611  revert(errorMessage) */\n      mload(0x40)\n      0x08c379a000000000000000000000000000000000000000000000000000000000\n      dup2\n      mstore\n      0x04\n      add\n      tag_466\n      swap2\n      swap1\n      tag_467\n      jump\t// in\n    tag_466:\n      mload(0x40)\n      dup1\n      swap2\n      sub\n      swap1\n      revert\n        /* \"@openzeppelin/contracts/utils/Address.sol\":6950:7642  function _verifyCallResult(... */\n    tag_461:\n      swap4\n      swap3\n      pop\n      pop\n      pop\n      jump\t// out\n        /* \"#utility.yul\":24:746   */\n    tag_469:\n        /* \"#utility.yul\":120:125   */\n      0x00\n        /* \"#utility.yul\":145:226   */\n      tag_471\n        /* \"#utility.yul\":161:225   */\n      tag_472\n        /* \"#utility.yul\":218:224   */\n      dup5\n        /* \"#utility.yul\":161:225   */\n      tag_473\n      jump\t// in\n    tag_472:\n        /* \"#utility.yul\":145:226   */\n      tag_474\n      jump\t// in\n    tag_471:\n        /* \"#utility.yul\":136:226   */\n      swap1\n      pop\n        /* \"#utility.yul\":246:251   */\n      dup1\n        /* \"#utility.yul\":275:281   */\n      dup4\n        /* \"#utility.yul\":268:273   */\n      dup3\n        /* \"#utility.yul\":261:282   */\n      mstore\n        /* \"#utility.yul\":309:313   */\n      0x20\n        /* \"#utility.yul\":302:307   */\n      dup3\n        /* \"#utility.yul\":298:314   */\n      add\n        /* \"#utility.yul\":291:314   */\n      swap1\n      pop\n        /* \"#utility.yul\":335:341   */\n      dup3\n        /* \"#utility.yul\":385:388   */\n      dup6\n        /* \"#utility.yul\":377:381   */\n      0x20\n        /* \"#utility.yul\":369:375   */\n      dup7\n        /* \"#utility.yul\":365:382   */\n      mul\n        /* \"#utility.yul\":360:363   */\n      dup3\n        /* \"#utility.yul\":356:383   */\n      add\n        /* \"#utility.yul\":353:389   */\n      gt\n        /* \"#utility.yul\":350:493   */\n      iszero\n      tag_475\n      jumpi\n        /* \"#utility.yul\":404:483   */\n      tag_476\n      tag_477\n      jump\t// in\n    tag_476:\n        /* \"#utility.yul\":350:493   */\n    tag_475:\n        /* \"#utility.yul\":517:518   */\n      0x00\n        /* \"#utility.yul\":502:740   */\n    tag_478:\n        /* \"#utility.yul\":527:533   */\n      dup6\n        /* \"#utility.yul\":524:525   */\n      dup2\n        /* \"#utility.yul\":521:534   */\n      lt\n        /* \"#utility.yul\":502:740   */\n      iszero\n      tag_480\n      jumpi\n        /* \"#utility.yul\":595:598   */\n      dup2\n        /* \"#utility.yul\":624:661   */\n      tag_481\n        /* \"#utility.yul\":657:660   */\n      dup9\n        /* \"#utility.yul\":645:655   */\n      dup3\n        /* \"#utility.yul\":624:661   */\n      tag_482\n      jump\t// in\n    tag_481:\n        /* \"#utility.yul\":619:622   */\n      dup5\n        /* \"#utility.yul\":612:662   */\n      mstore\n        /* \"#utility.yul\":691:695   */\n      0x20\n        /* \"#utility.yul\":686:689   */\n      dup5\n        /* \"#utility.yul\":682:696   */\n      add\n        /* \"#utility.yul\":675:696   */\n      swap4\n      pop\n        /* \"#utility.yul\":725:729   */\n      0x20\n        /* \"#utility.yul\":720:723   */\n      dup4\n        /* \"#utility.yul\":716:730   */\n      add\n        /* \"#utility.yul\":709:730   */\n      swap3\n      pop\n        /* \"#utility.yul\":562:740   */\n      pop\n        /* \"#utility.yul\":549:550   */\n      0x01\n        /* \"#utility.yul\":546:547   */\n      dup2\n        /* \"#utility.yul\":542:551   */\n      add\n        /* \"#utility.yul\":537:551   */\n      swap1\n      pop\n        /* \"#utility.yul\":502:740   */\n      jump(tag_478)\n    tag_480:\n        /* \"#utility.yul\":506:520   */\n      pop\n        /* \"#utility.yul\":126:746   */\n      pop\n      pop\n        /* \"#utility.yul\":24:746   */\n      swap4\n      swap3\n      pop\n      pop\n      pop\n      jump\t// out\n        /* \"#utility.yul\":769:1491   */\n    tag_483:\n        /* \"#utility.yul\":865:870   */\n      0x00\n        /* \"#utility.yul\":890:971   */\n      tag_485\n        /* \"#utility.yul\":906:970   */\n      tag_486\n        /* \"#utility.yul\":963:969   */\n      dup5\n        /* \"#utility.yul\":906:970   */\n      tag_487\n      jump\t// in\n    tag_486:\n        /* \"#utility.yul\":890:971   */\n      tag_474\n      jump\t// in\n    tag_485:\n        /* \"#utility.yul\":881:971   */\n      swap1\n      pop\n        /* \"#utility.yul\":991:996   */\n      dup1\n        /* \"#utility.yul\":1020:1026   */\n      dup4\n        /* \"#utility.yul\":1013:1018   */\n      dup3\n        /* \"#utility.yul\":1006:1027   */\n      mstore\n        /* \"#utility.yul\":1054:1058   */\n      0x20\n        /* \"#utility.yul\":1047:1052   */\n      dup3\n        /* \"#utility.yul\":1043:1059   */\n      add\n        /* \"#utility.yul\":1036:1059   */\n      swap1\n      pop\n        /* \"#utility.yul\":1080:1086   */\n      dup3\n        /* \"#utility.yul\":1130:1133   */\n      dup6\n        /* \"#utility.yul\":1122:1126   */\n      0x20\n        /* \"#utility.yul\":1114:1120   */\n      dup7\n        /* \"#utility.yul\":1110:1127   */\n      mul\n        /* \"#utility.yul\":1105:1108   */\n      dup3\n        /* \"#utility.yul\":1101:1128   */\n      add\n        /* \"#utility.yul\":1098:1134   */\n      gt\n        /* \"#utility.yul\":1095:1238   */\n      iszero\n      tag_488\n      jumpi\n        /* \"#utility.yul\":1149:1228   */\n      tag_489\n      tag_477\n      jump\t// in\n    tag_489:\n        /* \"#utility.yul\":1095:1238   */\n    tag_488:\n        /* \"#utility.yul\":1262:1263   */\n      0x00\n        /* \"#utility.yul\":1247:1485   */\n    tag_490:\n        /* \"#utility.yul\":1272:1278   */\n      dup6\n        /* \"#utility.yul\":1269:1270   */\n      dup2\n        /* \"#utility.yul\":1266:1279   */\n      lt\n        /* \"#utility.yul\":1247:1485   */\n      iszero\n      tag_492\n      jumpi\n        /* \"#utility.yul\":1340:1343   */\n      dup2\n        /* \"#utility.yul\":1369:1406   */\n      tag_493\n        /* \"#utility.yul\":1402:1405   */\n      dup9\n        /* \"#utility.yul\":1390:1400   */\n      dup3\n        /* \"#utility.yul\":1369:1406   */\n      tag_494\n      jump\t// in\n    tag_493:\n        /* \"#utility.yul\":1364:1367   */\n      dup5\n        /* \"#utility.yul\":1357:1407   */\n      mstore\n        /* \"#utility.yul\":1436:1440   */\n      0x20\n        /* \"#utility.yul\":1431:1434   */\n      dup5\n        /* \"#utility.yul\":1427:1441   */\n      add\n        /* \"#utility.yul\":1420:1441   */\n      swap4\n      pop\n        /* \"#utility.yul\":1470:1474   */\n      0x20\n        /* \"#utility.yul\":1465:1468   */\n      dup4\n        /* \"#utility.yul\":1461:1475   */\n      add\n        /* \"#utility.yul\":1454:1475   */\n      swap3\n      pop\n        /* \"#utility.yul\":1307:1485   */\n      pop\n        /* \"#utility.yul\":1294:1295   */\n      0x01\n        /* \"#utility.yul\":1291:1292   */\n      dup2\n        /* \"#utility.yul\":1287:1296   */\n      add\n        /* \"#utility.yul\":1282:1296   */\n      swap1\n      pop\n        /* \"#utility.yul\":1247:1485   */\n      jump(tag_490)\n    tag_492:\n        /* \"#utility.yul\":1251:1265   */\n      pop\n        /* \"#utility.yul\":871:1491   */\n      pop\n      pop\n        /* \"#utility.yul\":769:1491   */\n      swap4\n      swap3\n      pop\n      pop\n      pop\n      jump\t// out\n        /* \"#utility.yul\":1497:1636   */\n    tag_482:\n        /* \"#utility.yul\":1543:1548   */\n      0x00\n        /* \"#utility.yul\":1581:1587   */\n      dup2\n        /* \"#utility.yul\":1568:1588   */\n      calldataload\n        /* \"#utility.yul\":1559:1588   */\n      swap1\n      pop\n        /* \"#utility.yul\":1597:1630   */\n      tag_496\n        /* \"#utility.yul\":1624:1629   */\n      dup2\n        /* \"#utility.yul\":1597:1630   */\n      tag_497\n      jump\t// in\n    tag_496:\n        /* \"#utility.yul\":1497:1636   */\n      swap3\n      swap2\n      pop\n      pop\n      jump\t// out\n        /* \"#utility.yul\":1659:2029   */\n    tag_498:\n        /* \"#utility.yul\":1730:1735   */\n      0x00\n        /* \"#utility.yul\":1779:1782   */\n      dup3\n        /* \"#utility.yul\":1772:1776   */\n      0x1f\n        /* \"#utility.yul\":1764:1770   */\n      dup4\n        /* \"#utility.yul\":1760:1777   */\n      add\n        /* \"#utility.yul\":1756:1783   */\n      slt\n        /* \"#utility.yul\":1746:1868   */\n      tag_500\n      jumpi\n        /* \"#utility.yul\":1787:1866   */\n      tag_501\n      tag_502\n      jump\t// in\n    tag_501:\n        /* \"#utility.yul\":1746:1868   */\n    tag_500:\n        /* \"#utility.yul\":1904:1910   */\n      dup2\n        /* \"#utility.yul\":1891:1911   */\n      calldataload\n        /* \"#utility.yul\":1929:2023   */\n      tag_503\n        /* \"#utility.yul\":2019:2022   */\n      dup5\n        /* \"#utility.yul\":2011:2017   */\n      dup3\n        /* \"#utility.yul\":2004:2008   */\n      0x20\n        /* \"#utility.yul\":1996:2002   */\n      dup7\n        /* \"#utility.yul\":1992:2009   */\n      add\n        /* \"#utility.yul\":1929:2023   */\n      tag_469\n      jump\t// in\n    tag_503:\n        /* \"#utility.yul\":1920:2023   */\n      swap2\n      pop\n        /* \"#utility.yul\":1736:2029   */\n      pop\n        /* \"#utility.yul\":1659:2029   */\n      swap3\n      swap2\n      pop\n      pop\n      jump\t// out\n        /* \"#utility.yul\":2052:2422   */\n    tag_504:\n        /* \"#utility.yul\":2123:2128   */\n      0x00\n        /* \"#utility.yul\":2172:2175   */\n      dup3\n        /* \"#utility.yul\":2165:2169   */\n      0x1f\n        /* \"#utility.yul\":2157:2163   */\n      dup4\n        /* \"#utility.yul\":2153:2170   */\n      add\n        /* \"#utility.yul\":2149:2176   */\n      slt\n        /* \"#utility.yul\":2139:2261   */\n      tag_506\n      jumpi\n        /* \"#utility.yul\":2180:2259   */\n      tag_507\n      tag_502\n      jump\t// in\n    tag_507:\n        /* \"#utility.yul\":2139:2261   */\n    tag_506:\n        /* \"#utility.yul\":2297:2303   */\n      dup2\n        /* \"#utility.yul\":2284:2304   */\n      calldataload\n        /* \"#utility.yul\":2322:2416   */\n      tag_508\n        /* \"#utility.yul\":2412:2415   */\n      dup5\n        /* \"#utility.yul\":2404:2410   */\n      dup3\n        /* \"#utility.yul\":2397:2401   */\n      0x20\n        /* \"#utility.yul\":2389:2395   */\n      dup7\n        /* \"#utility.yul\":2385:2402   */\n      add\n        /* \"#utility.yul\":2322:2416   */\n      tag_483\n      jump\t// in\n    tag_508:\n        /* \"#utility.yul\":2313:2416   */\n      swap2\n      pop\n        /* \"#utility.yul\":2129:2422   */\n      pop\n        /* \"#utility.yul\":2052:2422   */\n      swap3\n      swap2\n      pop\n      pop\n      jump\t// out\n        /* \"#utility.yul\":2428:2565   */\n    tag_509:\n        /* \"#utility.yul\":2482:2487   */\n      0x00\n        /* \"#utility.yul\":2513:2519   */\n      dup2\n        /* \"#utility.yul\":2507:2520   */\n      mload\n        /* \"#utility.yul\":2498:2520   */\n      swap1\n      pop\n        /* \"#utility.yul\":2529:2559   */\n      tag_511\n        /* \"#utility.yul\":2553:2558   */\n      dup2\n        /* \"#utility.yul\":2529:2559   */\n      tag_512\n      jump\t// in\n    tag_511:\n        /* \"#utility.yul\":2428:2565   */\n      swap3\n      swap2\n      pop\n      pop\n      jump\t// out\n        /* \"#utility.yul\":2571:2738   */\n    tag_513:\n        /* \"#utility.yul\":2631:2636   */\n      0x00\n        /* \"#utility.yul\":2669:2675   */\n      dup2\n        /* \"#utility.yul\":2656:2676   */\n      calldataload\n        /* \"#utility.yul\":2647:2676   */\n      swap1\n      pop\n        /* \"#utility.yul\":2685:2732   */\n      tag_515\n        /* \"#utility.yul\":2726:2731   */\n      dup2\n        /* \"#utility.yul\":2685:2732   */\n      tag_516\n      jump\t// in\n    tag_515:\n        /* \"#utility.yul\":2571:2738   */\n      swap3\n      swap2\n      pop\n      pop\n      jump\t// out\n        /* \"#utility.yul\":2744:2883   */\n    tag_494:\n        /* \"#utility.yul\":2790:2795   */\n      0x00\n        /* \"#utility.yul\":2828:2834   */\n      dup2\n        /* \"#utility.yul\":2815:2835   */\n      calldataload\n        /* \"#utility.yul\":2806:2835   */\n      swap1\n      pop\n        /* \"#utility.yul\":2844:2877   */\n      tag_518\n        /* \"#utility.yul\":2871:2876   */\n      dup2\n        /* \"#utility.yul\":2844:2877   */\n      tag_519\n      jump\t// in\n    tag_518:\n        /* \"#utility.yul\":2744:2883   */\n      swap3\n      swap2\n      pop\n      pop\n      jump\t// out\n        /* \"#utility.yul\":2889:3032   */\n    tag_520:\n        /* \"#utility.yul\":2946:2951   */\n      0x00\n        /* \"#utility.yul\":2977:2983   */\n      dup2\n        /* \"#utility.yul\":2971:2984   */\n      mload\n        /* \"#utility.yul\":2962:2984   */\n      swap1\n      pop\n        /* \"#utility.yul\":2993:3026   */\n      tag_522\n        /* \"#utility.yul\":3020:3025   */\n      dup2\n        /* \"#utility.yul\":2993:3026   */\n      tag_519\n      jump\t// in\n    tag_522:\n        /* \"#utility.yul\":2889:3032   */\n      swap3\n      swap2\n      pop\n      pop\n      jump\t// out\n        /* \"#utility.yul\":3038:3367   */\n    tag_77:\n        /* \"#utility.yul\":3097:3103   */\n      0x00\n        /* \"#utility.yul\":3146:3148   */\n      0x20\n        /* \"#utility.yul\":3134:3143   */\n      dup3\n        /* \"#utility.yul\":3125:3132   */\n      dup5\n        /* \"#utility.yul\":3121:3144   */\n      sub\n        /* \"#utility.yul\":3117:3149   */\n      slt\n        /* \"#utility.yul\":3114:3233   */\n      iszero\n      tag_524\n      jumpi\n        /* \"#utility.yul\":3152:3231   */\n      tag_525\n      tag_526\n      jump\t// in\n    tag_525:\n        /* \"#utility.yul\":3114:3233   */\n    tag_524:\n        /* \"#utility.yul\":3272:3273   */\n      0x00\n        /* \"#utility.yul\":3297:3350   */\n      tag_527\n        /* \"#utility.yul\":3342:3349   */\n      dup5\n        /* \"#utility.yul\":3333:3339   */\n      dup3\n        /* \"#utility.yul\":3322:3331   */\n      dup6\n        /* \"#utility.yul\":3318:3340   */\n      add\n        /* \"#utility.yul\":3297:3350   */\n      tag_482\n      jump\t// in\n    tag_527:\n        /* \"#utility.yul\":3287:3350   */\n      swap2\n      pop\n        /* \"#utility.yul\":3243:3360   */\n      pop\n        /* \"#utility.yul\":3038:3367   */\n      swap3\n      swap2\n      pop\n      pop\n      jump\t// out\n        /* \"#utility.yul\":3373:4267   */\n    tag_68:\n        /* \"#utility.yul\":3491:3497   */\n      0x00\n        /* \"#utility.yul\":3499:3505   */\n      dup1\n        /* \"#utility.yul\":3548:3550   */\n      0x40\n        /* \"#utility.yul\":3536:3545   */\n      dup4\n        /* \"#utility.yul\":3527:3534   */\n      dup6\n        /* \"#utility.yul\":3523:3546   */\n      sub\n        /* \"#utility.yul\":3519:3551   */\n      slt\n        /* \"#utility.yul\":3516:3635   */\n      iszero\n      tag_529\n      jumpi\n        /* \"#utility.yul\":3554:3633   */\n      tag_530\n      tag_526\n      jump\t// in\n    tag_530:\n        /* \"#utility.yul\":3516:3635   */\n    tag_529:\n        /* \"#utility.yul\":3702:3703   */\n      0x00\n        /* \"#utility.yul\":3691:3700   */\n      dup4\n        /* \"#utility.yul\":3687:3704   */\n      add\n        /* \"#utility.yul\":3674:3705   */\n      calldataload\n        /* \"#utility.yul\":3732:3750   */\n      0xffffffffffffffff\n        /* \"#utility.yul\":3724:3730   */\n      dup2\n        /* \"#utility.yul\":3721:3751   */\n      gt\n        /* \"#utility.yul\":3718:3835   */\n      iszero\n      tag_531\n      jumpi\n        /* \"#utility.yul\":3754:3833   */\n      tag_532\n      tag_533\n      jump\t// in\n    tag_532:\n        /* \"#utility.yul\":3718:3835   */\n    tag_531:\n        /* \"#utility.yul\":3859:3937   */\n      tag_534\n        /* \"#utility.yul\":3929:3936   */\n      dup6\n        /* \"#utility.yul\":3920:3926   */\n      dup3\n        /* \"#utility.yul\":3909:3918   */\n      dup7\n        /* \"#utility.yul\":3905:3927   */\n      add\n        /* \"#utility.yul\":3859:3937   */\n      tag_498\n      jump\t// in\n    tag_534:\n        /* \"#utility.yul\":3849:3937   */\n      swap3\n      pop\n        /* \"#utility.yul\":3645:3947   */\n      pop\n        /* \"#utility.yul\":4014:4016   */\n      0x20\n        /* \"#utility.yul\":4003:4012   */\n      dup4\n        /* \"#utility.yul\":3999:4017   */\n      add\n        /* \"#utility.yul\":3986:4018   */\n      calldataload\n        /* \"#utility.yul\":4045:4063   */\n      0xffffffffffffffff\n        /* \"#utility.yul\":4037:4043   */\n      dup2\n        /* \"#utility.yul\":4034:4064   */\n      gt\n        /* \"#utility.yul\":4031:4148   */\n      iszero\n      tag_535\n      jumpi\n        /* \"#utility.yul\":4067:4146   */\n      tag_536\n      tag_533\n      jump\t// in\n    tag_536:\n        /* \"#utility.yul\":4031:4148   */\n    tag_535:\n        /* \"#utility.yul\":4172:4250   */\n      tag_537\n        /* \"#utility.yul\":4242:4249   */\n      dup6\n        /* \"#utility.yul\":4233:4239   */\n      dup3\n        /* \"#utility.yul\":4222:4231   */\n      dup7\n        /* \"#utility.yul\":4218:4240   */\n      add\n        /* \"#utility.yul\":4172:4250   */\n      tag_504\n      jump\t// in\n    tag_537:\n        /* \"#utility.yul\":4162:4250   */\n      swap2\n      pop\n        /* \"#utility.yul\":3957:4260   */\n      pop\n        /* \"#utility.yul\":3373:4267   */\n      swap3\n      pop\n      swap3\n      swap1\n      pop\n      jump\t// out\n        /* \"#utility.yul\":4273:4618   */\n    tag_412:\n        /* \"#utility.yul\":4340:4346   */\n      0x00\n        /* \"#utility.yul\":4389:4391   */\n      0x20\n        /* \"#utility.yul\":4377:4386   */\n      dup3\n        /* \"#utility.yul\":4368:4375   */\n      dup5\n        /* \"#utility.yul\":4364:4387   */\n      sub\n        /* \"#utility.yul\":4360:4392   */\n      slt\n        /* \"#utility.yul\":4357:4476   */\n      iszero\n      tag_539\n      jumpi\n        /* \"#utility.yul\":4395:4474   */\n      tag_540\n      tag_526\n      jump\t// in\n    tag_540:\n        /* \"#utility.yul\":4357:4476   */\n    tag_539:\n        /* \"#utility.yul\":4515:4516   */\n      0x00\n        /* \"#utility.yul\":4540:4601   */\n      tag_541\n        /* \"#utility.yul\":4593:4600   */\n      dup5\n        /* \"#utility.yul\":4584:4590   */\n      dup3\n        /* \"#utility.yul\":4573:4582   */\n      dup6\n        /* \"#utility.yul\":4569:4591   */\n      add\n        /* \"#utility.yul\":4540:4601   */\n      tag_509\n      jump\t// in\n    tag_541:\n        /* \"#utility.yul\":4530:4601   */\n      swap2\n      pop\n        /* \"#utility.yul\":4486:4611   */\n      pop\n        /* \"#utility.yul\":4273:4618   */\n      swap3\n      swap2\n      pop\n      pop\n      jump\t// out\n        /* \"#utility.yul\":4624:4981   */\n    tag_166:\n        /* \"#utility.yul\":4697:4703   */\n      0x00\n        /* \"#utility.yul\":4746:4748   */\n      0x20\n        /* \"#utility.yul\":4734:4743   */\n      dup3\n        /* \"#utility.yul\":4725:4732   */\n      dup5\n        /* \"#utility.yul\":4721:4744   */\n      sub\n        /* \"#utility.yul\":4717:4749   */\n      slt\n        /* \"#utility.yul\":4714:4833   */\n      iszero\n      tag_543\n      jumpi\n        /* \"#utility.yul\":4752:4831   */\n      tag_544\n      tag_526\n      jump\t// in\n    tag_544:\n        /* \"#utility.yul\":4714:4833   */\n    tag_543:\n        /* \"#utility.yul\":4872:4873   */\n      0x00\n        /* \"#utility.yul\":4897:4964   */\n      tag_545\n        /* \"#utility.yul\":4956:4963   */\n      dup5\n        /* \"#utility.yul\":4947:4953   */\n      dup3\n        /* \"#utility.yul\":4936:4945   */\n      dup6\n        /* \"#utility.yul\":4932:4954   */\n      add\n        /* \"#utility.yul\":4897:4964   */\n      tag_513\n      jump\t// in\n    tag_545:\n        /* \"#utility.yul\":4887:4964   */\n      swap2\n      pop\n        /* \"#utility.yul\":4843:4974   */\n      pop\n        /* \"#utility.yul\":4624:4981   */\n      swap3\n      swap2\n      pop\n      pop\n      jump\t// out\n        /* \"#utility.yul\":4987:5316   */\n    tag_42:\n        /* \"#utility.yul\":5046:5052   */\n      0x00\n        /* \"#utility.yul\":5095:5097   */\n      0x20\n        /* \"#utility.yul\":5083:5092   */\n      dup3\n        /* \"#utility.yul\":5074:5081   */\n      dup5\n        /* \"#utility.yul\":5070:5093   */\n      sub\n        /* \"#utility.yul\":5066:5098   */\n      slt\n        /* \"#utility.yul\":5063:5182   */\n      iszero\n      tag_547\n      jumpi\n        /* \"#utility.yul\":5101:5180   */\n      tag_548\n      tag_526\n      jump\t// in\n    tag_548:\n        /* \"#utility.yul\":5063:5182   */\n    tag_547:\n        /* \"#utility.yul\":5221:5222   */\n      0x00\n        /* \"#utility.yul\":5246:5299   */\n      tag_549\n        /* \"#utility.yul\":5291:5298   */\n      dup5\n        /* \"#utility.yul\":5282:5288   */\n      dup3\n        /* \"#utility.yul\":5271:5280   */\n      dup6\n        /* \"#utility.yul\":5267:5289   */\n      add\n        /* \"#utility.yul\":5246:5299   */\n      tag_494\n      jump\t// in\n    tag_549:\n        /* \"#utility.yul\":5236:5299   */\n      swap2\n      pop\n        /* \"#utility.yul\":5192:5309   */\n      pop\n        /* \"#utility.yul\":4987:5316   */\n      swap3\n      swap2\n      pop\n      pop\n      jump\t// out\n        /* \"#utility.yul\":5322:5673   */\n    tag_190:\n        /* \"#utility.yul\":5392:5398   */\n      0x00\n        /* \"#utility.yul\":5441:5443   */\n      0x20\n        /* \"#utility.yul\":5429:5438   */\n      dup3\n        /* \"#utility.yul\":5420:5427   */\n      dup5\n        /* \"#utility.yul\":5416:5439   */\n      sub\n        /* \"#utility.yul\":5412:5444   */\n      slt\n        /* \"#utility.yul\":5409:5528   */\n      iszero\n      tag_551\n      jumpi\n        /* \"#utility.yul\":5447:5526   */\n      tag_552\n      tag_526\n      jump\t// in\n    tag_552:\n        /* \"#utility.yul\":5409:5528   */\n    tag_551:\n        /* \"#utility.yul\":5567:5568   */\n      0x00\n        /* \"#utility.yul\":5592:5656   */\n      tag_553\n        /* \"#utility.yul\":5648:5655   */\n      dup5\n        /* \"#utility.yul\":5639:5645   */\n      dup3\n        /* \"#utility.yul\":5628:5637   */\n      dup6\n        /* \"#utility.yul\":5624:5646   */\n      add\n        /* \"#utility.yul\":5592:5656   */\n      tag_520\n      jump\t// in\n    tag_553:\n        /* \"#utility.yul\":5582:5656   */\n      swap2\n      pop\n        /* \"#utility.yul\":5538:5666   */\n      pop\n        /* \"#utility.yul\":5322:5673   */\n      swap3\n      swap2\n      pop\n      pop\n      jump\t// out\n        /* \"#utility.yul\":5679:5797   */\n    tag_554:\n        /* \"#utility.yul\":5766:5790   */\n      tag_556\n        /* \"#utility.yul\":5784:5789   */\n      dup2\n        /* \"#utility.yul\":5766:5790   */\n      tag_557\n      jump\t// in\n    tag_556:\n        /* \"#utility.yul\":5761:5764   */\n      dup3\n        /* \"#utility.yul\":5754:5791   */\n      mstore\n        /* \"#utility.yul\":5679:5797   */\n      pop\n      pop\n      jump\t// out\n        /* \"#utility.yul\":5803:5912   */\n    tag_558:\n        /* \"#utility.yul\":5884:5905   */\n      tag_560\n        /* \"#utility.yul\":5899:5904   */\n      dup2\n        /* \"#utility.yul\":5884:5905   */\n      tag_561\n      jump\t// in\n    tag_560:\n        /* \"#utility.yul\":5879:5882   */\n      dup3\n        /* \"#utility.yul\":5872:5906   */\n      mstore\n        /* \"#utility.yul\":5803:5912   */\n      pop\n      pop\n      jump\t// out\n        /* \"#utility.yul\":5918:6291   */\n    tag_562:\n        /* \"#utility.yul\":6022:6025   */\n      0x00\n        /* \"#utility.yul\":6050:6088   */\n      tag_564\n        /* \"#utility.yul\":6082:6087   */\n      dup3\n        /* \"#utility.yul\":6050:6088   */\n      tag_565\n      jump\t// in\n    tag_564:\n        /* \"#utility.yul\":6104:6192   */\n      tag_566\n        /* \"#utility.yul\":6185:6191   */\n      dup2\n        /* \"#utility.yul\":6180:6183   */\n      dup6\n        /* \"#utility.yul\":6104:6192   */\n      tag_567\n      jump\t// in\n    tag_566:\n        /* \"#utility.yul\":6097:6192   */\n      swap4\n      pop\n        /* \"#utility.yul\":6201:6253   */\n      tag_568\n        /* \"#utility.yul\":6246:6252   */\n      dup2\n        /* \"#utility.yul\":6241:6244   */\n      dup6\n        /* \"#utility.yul\":6234:6238   */\n      0x20\n        /* \"#utility.yul\":6227:6232   */\n      dup7\n        /* \"#utility.yul\":6223:6239   */\n      add\n        /* \"#utility.yul\":6201:6253   */\n      tag_569\n      jump\t// in\n    tag_568:\n        /* \"#utility.yul\":6278:6284   */\n      dup1\n        /* \"#utility.yul\":6273:6276   */\n      dup5\n        /* \"#utility.yul\":6269:6285   */\n      add\n        /* \"#utility.yul\":6262:6285   */\n      swap2\n      pop\n        /* \"#utility.yul\":6026:6291   */\n      pop\n        /* \"#utility.yul\":5918:6291   */\n      swap3\n      swap2\n      pop\n      pop\n      jump\t// out\n        /* \"#utility.yul\":6297:6456   */\n    tag_570:\n        /* \"#utility.yul\":6398:6449   */\n      tag_572\n        /* \"#utility.yul\":6443:6448   */\n      dup2\n        /* \"#utility.yul\":6398:6449   */\n      tag_573\n      jump\t// in\n    tag_572:\n        /* \"#utility.yul\":6393:6396   */\n      dup3\n        /* \"#utility.yul\":6386:6450   */\n      mstore\n        /* \"#utility.yul\":6297:6456   */\n      pop\n      pop\n      jump\t// out\n        /* \"#utility.yul\":6462:6826   */\n    tag_574:\n        /* \"#utility.yul\":6550:6553   */\n      0x00\n        /* \"#utility.yul\":6578:6617   */\n      tag_576\n        /* \"#utility.yul\":6611:6616   */\n      dup3\n        /* \"#utility.yul\":6578:6617   */\n      tag_577\n      jump\t// in\n    tag_576:\n        /* \"#utility.yul\":6633:6704   */\n      tag_578\n        /* \"#utility.yul\":6697:6703   */\n      dup2\n        /* \"#utility.yul\":6692:6695   */\n      dup6\n        /* \"#utility.yul\":6633:6704   */\n      tag_579\n      jump\t// in\n    tag_578:\n        /* \"#utility.yul\":6626:6704   */\n      swap4\n      pop\n        /* \"#utility.yul\":6713:6765   */\n      tag_580\n        /* \"#utility.yul\":6758:6764   */\n      dup2\n        /* \"#utility.yul\":6753:6756   */\n      dup6\n        /* \"#utility.yul\":6746:6750   */\n      0x20\n        /* \"#utility.yul\":6739:6744   */\n      dup7\n        /* \"#utility.yul\":6735:6751   */\n      add\n        /* \"#utility.yul\":6713:6765   */\n      tag_569\n      jump\t// in\n    tag_580:\n        /* \"#utility.yul\":6790:6819   */\n      tag_581\n        /* \"#utility.yul\":6812:6818   */\n      dup2\n        /* \"#utility.yul\":6790:6819   */\n      tag_582\n      jump\t// in\n    tag_581:\n        /* \"#utility.yul\":6785:6788   */\n      dup5\n        /* \"#utility.yul\":6781:6820   */\n      add\n        /* \"#utility.yul\":6774:6820   */\n      swap2\n      pop\n        /* \"#utility.yul\":6554:6826   */\n      pop\n        /* \"#utility.yul\":6462:6826   */\n      swap3\n      swap2\n      pop\n      pop\n      jump\t// out\n        /* \"#utility.yul\":6832:7198   */\n    tag_583:\n        /* \"#utility.yul\":6974:6977   */\n      0x00\n        /* \"#utility.yul\":6995:7062   */\n      tag_585\n        /* \"#utility.yul\":7059:7061   */\n      0x35\n        /* \"#utility.yul\":7054:7057   */\n      dup4\n        /* \"#utility.yul\":6995:7062   */\n      tag_579\n      jump\t// in\n    tag_585:\n        /* \"#utility.yul\":6988:7062   */\n      swap2\n      pop\n        /* \"#utility.yul\":7071:7164   */\n      tag_586\n        /* \"#utility.yul\":7160:7163   */\n      dup3\n        /* \"#utility.yul\":7071:7164   */\n      tag_587\n      jump\t// in\n    tag_586:\n        /* \"#utility.yul\":7189:7191   */\n      0x40\n        /* \"#utility.yul\":7184:7187   */\n      dup3\n        /* \"#utility.yul\":7180:7192   */\n      add\n        /* \"#utility.yul\":7173:7192   */\n      swap1\n      pop\n        /* \"#utility.yul\":6832:7198   */\n      swap2\n      swap1\n      pop\n      jump\t// out\n        /* \"#utility.yul\":7204:7570   */\n    tag_588:\n        /* \"#utility.yul\":7346:7349   */\n      0x00\n        /* \"#utility.yul\":7367:7434   */\n      tag_590\n        /* \"#utility.yul\":7431:7433   */\n      0x26\n        /* \"#utility.yul\":7426:7429   */\n      dup4\n        /* \"#utility.yul\":7367:7434   */\n      tag_579\n      jump\t// in\n    tag_590:\n        /* \"#utility.yul\":7360:7434   */\n      swap2\n      pop\n        /* \"#utility.yul\":7443:7536   */\n      tag_591\n        /* \"#utility.yul\":7532:7535   */\n      dup3\n        /* \"#utility.yul\":7443:7536   */\n      tag_592\n      jump\t// in\n    tag_591:\n        /* \"#utility.yul\":7561:7563   */\n      0x40\n        /* \"#utility.yul\":7556:7559   */\n      dup3\n        /* \"#utility.yul\":7552:7564   */\n      add\n        /* \"#utility.yul\":7545:7564   */\n      swap1\n      pop\n        /* \"#utility.yul\":7204:7570   */\n      swap2\n      swap1\n      pop\n      jump\t// out\n        /* \"#utility.yul\":7576:7942   */\n    tag_593:\n        /* \"#utility.yul\":7718:7721   */\n      0x00\n        /* \"#utility.yul\":7739:7806   */\n      tag_595\n        /* \"#utility.yul\":7803:7805   */\n      0x39\n        /* \"#utility.yul\":7798:7801   */\n      dup4\n        /* \"#utility.yul\":7739:7806   */\n      tag_579\n      jump\t// in\n    tag_595:\n        /* \"#utility.yul\":7732:7806   */\n      swap2\n      pop\n        /* \"#utility.yul\":7815:7908   */\n      tag_596\n        /* \"#utility.yul\":7904:7907   */\n      dup3\n        /* \"#utility.yul\":7815:7908   */\n      tag_597\n      jump\t// in\n    tag_596:\n        /* \"#utility.yul\":7933:7935   */\n      0x40\n        /* \"#utility.yul\":7928:7931   */\n      dup3\n        /* \"#utility.yul\":7924:7936   */\n      add\n        /* \"#utility.yul\":7917:7936   */\n      swap1\n      pop\n        /* \"#utility.yul\":7576:7942   */\n      swap2\n      swap1\n      pop\n      jump\t// out\n        /* \"#utility.yul\":7948:8314   */\n    tag_598:\n        /* \"#utility.yul\":8090:8093   */\n      0x00\n        /* \"#utility.yul\":8111:8178   */\n      tag_600\n        /* \"#utility.yul\":8175:8177   */\n      0x34\n        /* \"#utility.yul\":8170:8173   */\n      dup4\n        /* \"#utility.yul\":8111:8178   */\n      tag_579\n      jump\t// in\n    tag_600:\n        /* \"#utility.yul\":8104:8178   */\n      swap2\n      pop\n        /* \"#utility.yul\":8187:8280   */\n      tag_601\n        /* \"#utility.yul\":8276:8279   */\n      dup3\n        /* \"#utility.yul\":8187:8280   */\n      tag_602\n      jump\t// in\n    tag_601:\n        /* \"#utility.yul\":8305:8307   */\n      0x40\n        /* \"#utility.yul\":8300:8303   */\n      dup3\n        /* \"#utility.yul\":8296:8308   */\n      add\n        /* \"#utility.yul\":8289:8308   */\n      swap1\n      pop\n        /* \"#utility.yul\":7948:8314   */\n      swap2\n      swap1\n      pop\n      jump\t// out\n        /* \"#utility.yul\":8320:8686   */\n    tag_603:\n        /* \"#utility.yul\":8462:8465   */\n      0x00\n        /* \"#utility.yul\":8483:8550   */\n      tag_605\n        /* \"#utility.yul\":8547:8549   */\n      0x29\n        /* \"#utility.yul\":8542:8545   */\n      dup4\n        /* \"#utility.yul\":8483:8550   */\n      tag_579\n      jump\t// in\n    tag_605:\n        /* \"#utility.yul\":8476:8550   */\n      swap2\n      pop\n        /* \"#utility.yul\":8559:8652   */\n      tag_606\n        /* \"#utility.yul\":8648:8651   */\n      dup3\n        /* \"#utility.yul\":8559:8652   */\n      tag_607\n      jump\t// in\n    tag_606:\n        /* \"#utility.yul\":8677:8679   */\n      0x40\n        /* \"#utility.yul\":8672:8675   */\n      dup3\n        /* \"#utility.yul\":8668:8680   */\n      add\n        /* \"#utility.yul\":8661:8680   */\n      swap1\n      pop\n        /* \"#utility.yul\":8320:8686   */\n      swap2\n      swap1\n      pop\n      jump\t// out\n        /* \"#utility.yul\":8692:9058   */\n    tag_608:\n        /* \"#utility.yul\":8834:8837   */\n      0x00\n        /* \"#utility.yul\":8855:8922   */\n      tag_610\n        /* \"#utility.yul\":8919:8921   */\n      0x3c\n        /* \"#utility.yul\":8914:8917   */\n      dup4\n        /* \"#utility.yul\":8855:8922   */\n      tag_579\n      jump\t// in\n    tag_610:\n        /* \"#utility.yul\":8848:8922   */\n      swap2\n      pop\n        /* \"#utility.yul\":8931:9024   */\n      tag_611\n        /* \"#utility.yul\":9020:9023   */\n      dup3\n        /* \"#utility.yul\":8931:9024   */\n      tag_612\n      jump\t// in\n    tag_611:\n        /* \"#utility.yul\":9049:9051   */\n      0x40\n        /* \"#utility.yul\":9044:9047   */\n      dup3\n        /* \"#utility.yul\":9040:9052   */\n      add\n        /* \"#utility.yul\":9033:9052   */\n      swap1\n      pop\n        /* \"#utility.yul\":8692:9058   */\n      swap2\n      swap1\n      pop\n      jump\t// out\n        /* \"#utility.yul\":9064:9430   */\n    tag_613:\n        /* \"#utility.yul\":9206:9209   */\n      0x00\n        /* \"#utility.yul\":9227:9294   */\n      tag_615\n        /* \"#utility.yul\":9291:9293   */\n      0x26\n        /* \"#utility.yul\":9286:9289   */\n      dup4\n        /* \"#utility.yul\":9227:9294   */\n      tag_579\n      jump\t// in\n    tag_615:\n        /* \"#utility.yul\":9220:9294   */\n      swap2\n      pop\n        /* \"#utility.yul\":9303:9396   */\n      tag_616\n        /* \"#utility.yul\":9392:9395   */\n      dup3\n        /* \"#utility.yul\":9303:9396   */\n      tag_617\n      jump\t// in\n    tag_616:\n        /* \"#utility.yul\":9421:9423   */\n      0x40\n        /* \"#utility.yul\":9416:9419   */\n      dup3\n        /* \"#utility.yul\":9412:9424   */\n      add\n        /* \"#utility.yul\":9405:9424   */\n      swap1\n      pop\n        /* \"#utility.yul\":9064:9430   */\n      swap2\n      swap1\n      pop\n      jump\t// out\n        /* \"#utility.yul\":9436:9802   */\n    tag_618:\n        /* \"#utility.yul\":9578:9581   */\n      0x00\n        /* \"#utility.yul\":9599:9666   */\n      tag_620\n        /* \"#utility.yul\":9663:9665   */\n      0x31\n        /* \"#utility.yul\":9658:9661   */\n      dup4\n        /* \"#utility.yul\":9599:9666   */\n      tag_579\n      jump\t// in\n    tag_620:\n        /* \"#utility.yul\":9592:9666   */\n      swap2\n      pop\n        /* \"#utility.yul\":9675:9768   */\n      tag_621\n        /* \"#utility.yul\":9764:9767   */\n      dup3\n        /* \"#utility.yul\":9675:9768   */\n      tag_622\n      jump\t// in\n    tag_621:\n        /* \"#utility.yul\":9793:9795   */\n      0x40\n        /* \"#utility.yul\":9788:9791   */\n      dup3\n        /* \"#utility.yul\":9784:9796   */\n      add\n        /* \"#utility.yul\":9777:9796   */\n      swap1\n      pop\n        /* \"#utility.yul\":9436:9802   */\n      swap2\n      swap1\n      pop\n      jump\t// out\n        /* \"#utility.yul\":9808:10174   */\n    tag_623:\n        /* \"#utility.yul\":9950:9953   */\n      0x00\n        /* \"#utility.yul\":9971:10038   */\n      tag_625\n        /* \"#utility.yul\":10035:10037   */\n      0x48\n        /* \"#utility.yul\":10030:10033   */\n      dup4\n        /* \"#utility.yul\":9971:10038   */\n      tag_579\n      jump\t// in\n    tag_625:\n        /* \"#utility.yul\":9964:10038   */\n      swap2\n      pop\n        /* \"#utility.yul\":10047:10140   */\n      tag_626\n        /* \"#utility.yul\":10136:10139   */\n      dup3\n        /* \"#utility.yul\":10047:10140   */\n      tag_627\n      jump\t// in\n    tag_626:\n        /* \"#utility.yul\":10165:10167   */\n      0x60\n        /* \"#utility.yul\":10160:10163   */\n      dup3\n        /* \"#utility.yul\":10156:10168   */\n      add\n        /* \"#utility.yul\":10149:10168   */\n      swap1\n      pop\n        /* \"#utility.yul\":9808:10174   */\n      swap2\n      swap1\n      pop\n      jump\t// out\n        /* \"#utility.yul\":10180:10546   */\n    tag_628:\n        /* \"#utility.yul\":10322:10325   */\n      0x00\n        /* \"#utility.yul\":10343:10410   */\n      tag_630\n        /* \"#utility.yul\":10407:10409   */\n      0x46\n        /* \"#utility.yul\":10402:10405   */\n      dup4\n        /* \"#utility.yul\":10343:10410   */\n      tag_579\n      jump\t// in\n    tag_630:\n        /* \"#utility.yul\":10336:10410   */\n      swap2\n      pop\n        /* \"#utility.yul\":10419:10512   */\n      tag_631\n        /* \"#utility.yul\":10508:10511   */\n      dup3\n        /* \"#utility.yul\":10419:10512   */\n      tag_632\n      jump\t// in\n    tag_631:\n        /* \"#utility.yul\":10537:10539   */\n      0x60\n        /* \"#utility.yul\":10532:10535   */\n      dup3\n        /* \"#utility.yul\":10528:10540   */\n      add\n        /* \"#utility.yul\":10521:10540   */\n      swap1\n      pop\n        /* \"#utility.yul\":10180:10546   */\n      swap2\n      swap1\n      pop\n      jump\t// out\n        /* \"#utility.yul\":10552:10918   */\n    tag_633:\n        /* \"#utility.yul\":10694:10697   */\n      0x00\n        /* \"#utility.yul\":10715:10782   */\n      tag_635\n        /* \"#utility.yul\":10779:10781   */\n      0x5d\n        /* \"#utility.yul\":10774:10777   */\n      dup4\n        /* \"#utility.yul\":10715:10782   */\n      tag_579\n      jump\t// in\n    tag_635:\n        /* \"#utility.yul\":10708:10782   */\n      swap2\n      pop\n        /* \"#utility.yul\":10791:10884   */\n      tag_636\n        /* \"#utility.yul\":10880:10883   */\n      dup3\n        /* \"#utility.yul\":10791:10884   */\n      tag_637\n      jump\t// in\n    tag_636:\n        /* \"#utility.yul\":10909:10911   */\n      0x60\n        /* \"#utility.yul\":10904:10907   */\n      dup3\n        /* \"#utility.yul\":10900:10912   */\n      add\n        /* \"#utility.yul\":10893:10912   */\n      swap1\n      pop\n        /* \"#utility.yul\":10552:10918   */\n      swap2\n      swap1\n      pop\n      jump\t// out\n        /* \"#utility.yul\":10924:11292   */\n    tag_638:\n        /* \"#utility.yul\":11066:11069   */\n      0x00\n        /* \"#utility.yul\":11087:11155   */\n      tag_640\n        /* \"#utility.yul\":11151:11154   */\n      0x77\n        /* \"#utility.yul\":11146:11149   */\n      dup4\n        /* \"#utility.yul\":11087:11155   */\n      tag_579\n      jump\t// in\n    tag_640:\n        /* \"#utility.yul\":11080:11155   */\n      swap2\n      pop\n        /* \"#utility.yul\":11164:11257   */\n      tag_641\n        /* \"#utility.yul\":11253:11256   */\n      dup3\n        /* \"#utility.yul\":11164:11257   */\n      tag_642\n      jump\t// in\n    tag_641:\n        /* \"#utility.yul\":11282:11285   */\n      0x80\n        /* \"#utility.yul\":11277:11280   */\n      dup3\n        /* \"#utility.yul\":11273:11286   */\n      add\n        /* \"#utility.yul\":11266:11286   */\n      swap1\n      pop\n        /* \"#utility.yul\":10924:11292   */\n      swap2\n      swap1\n      pop\n      jump\t// out\n        /* \"#utility.yul\":11298:11664   */\n    tag_643:\n        /* \"#utility.yul\":11440:11443   */\n      0x00\n        /* \"#utility.yul\":11461:11528   */\n      tag_645\n        /* \"#utility.yul\":11525:11527   */\n      0x20\n        /* \"#utility.yul\":11520:11523   */\n      dup4\n        /* \"#utility.yul\":11461:11528   */\n      tag_579\n      jump\t// in\n    tag_645:\n        /* \"#utility.yul\":11454:11528   */\n      swap2\n      pop\n        /* \"#utility.yul\":11537:11630   */\n      tag_646\n        /* \"#utility.yul\":11626:11629   */\n      dup3\n        /* \"#utility.yul\":11537:11630   */\n      tag_647\n      jump\t// in\n    tag_646:\n        /* \"#utility.yul\":11655:11657   */\n      0x20\n        /* \"#utility.yul\":11650:11653   */\n      dup3\n        /* \"#utility.yul\":11646:11658   */\n      add\n        /* \"#utility.yul\":11639:11658   */\n      swap1\n      pop\n        /* \"#utility.yul\":11298:11664   */\n      swap2\n      swap1\n      pop\n      jump\t// out\n        /* \"#utility.yul\":11670:12036   */\n    tag_648:\n        /* \"#utility.yul\":11812:11815   */\n      0x00\n        /* \"#utility.yul\":11833:11900   */\n      tag_650\n        /* \"#utility.yul\":11897:11899   */\n      0x35\n        /* \"#utility.yul\":11892:11895   */\n      dup4\n        /* \"#utility.yul\":11833:11900   */\n      tag_579\n      jump\t// in\n    tag_650:\n        /* \"#utility.yul\":11826:11900   */\n      swap2\n      pop\n        /* \"#utility.yul\":11909:12002   */\n      tag_651\n        /* \"#utility.yul\":11998:12001   */\n      dup3\n        /* \"#utility.yul\":11909:12002   */\n      tag_652\n      jump\t// in\n    tag_651:\n        /* \"#utility.yul\":12027:12029   */\n      0x40\n        /* \"#utility.yul\":12022:12025   */\n      dup3\n        /* \"#utility.yul\":12018:12030   */\n      add\n        /* \"#utility.yul\":12011:12030   */\n      swap1\n      pop\n        /* \"#utility.yul\":11670:12036   */\n      swap2\n      swap1\n      pop\n      jump\t// out\n        /* \"#utility.yul\":12042:12408   */\n    tag_653:\n        /* \"#utility.yul\":12184:12187   */\n      0x00\n        /* \"#utility.yul\":12205:12272   */\n      tag_655\n        /* \"#utility.yul\":12269:12271   */\n      0x1d\n        /* \"#utility.yul\":12264:12267   */\n      dup4\n        /* \"#utility.yul\":12205:12272   */\n      tag_579\n      jump\t// in\n    tag_655:\n        /* \"#utility.yul\":12198:12272   */\n      swap2\n      pop\n        /* \"#utility.yul\":12281:12374   */\n      tag_656\n        /* \"#utility.yul\":12370:12373   */\n      dup3\n        /* \"#utility.yul\":12281:12374   */\n      tag_657\n      jump\t// in\n    tag_656:\n        /* \"#utility.yul\":12399:12401   */\n      0x20\n        /* \"#utility.yul\":12394:12397   */\n      dup3\n        /* \"#utility.yul\":12390:12402   */\n      add\n        /* \"#utility.yul\":12383:12402   */\n      swap1\n      pop\n        /* \"#utility.yul\":12042:12408   */\n      swap2\n      swap1\n      pop\n      jump\t// out\n        /* \"#utility.yul\":12414:12780   */\n    tag_658:\n        /* \"#utility.yul\":12556:12559   */\n      0x00\n        /* \"#utility.yul\":12577:12644   */\n      tag_660\n        /* \"#utility.yul\":12641:12643   */\n      0x23\n        /* \"#utility.yul\":12636:12639   */\n      dup4\n        /* \"#utility.yul\":12577:12644   */\n      tag_579\n      jump\t// in\n    tag_660:\n        /* \"#utility.yul\":12570:12644   */\n      swap2\n      pop\n        /* \"#utility.yul\":12653:12746   */\n      tag_661\n        /* \"#utility.yul\":12742:12745   */\n      dup3\n        /* \"#utility.yul\":12653:12746   */\n      tag_662\n      jump\t// in\n    tag_661:\n        /* \"#utility.yul\":12771:12773   */\n      0x40\n        /* \"#utility.yul\":12766:12769   */\n      dup3\n        /* \"#utility.yul\":12762:12774   */\n      add\n        /* \"#utility.yul\":12755:12774   */\n      swap1\n      pop\n        /* \"#utility.yul\":12414:12780   */\n      swap2\n      swap1\n      pop\n      jump\t// out\n        /* \"#utility.yul\":12786:13152   */\n    tag_663:\n        /* \"#utility.yul\":12928:12931   */\n      0x00\n        /* \"#utility.yul\":12949:13016   */\n      tag_665\n        /* \"#utility.yul\":13013:13015   */\n      0x2d\n        /* \"#utility.yul\":13008:13011   */\n      dup4\n        /* \"#utility.yul\":12949:13016   */\n      tag_579\n      jump\t// in\n    tag_665:\n        /* \"#utility.yul\":12942:13016   */\n      swap2\n      pop\n        /* \"#utility.yul\":13025:13118   */\n      tag_666\n        /* \"#utility.yul\":13114:13117   */\n      dup3\n        /* \"#utility.yul\":13025:13118   */\n      tag_667\n      jump\t// in\n    tag_666:\n        /* \"#utility.yul\":13143:13145   */\n      0x40\n        /* \"#utility.yul\":13138:13141   */\n      dup3\n        /* \"#utility.yul\":13134:13146   */\n      add\n        /* \"#utility.yul\":13127:13146   */\n      swap1\n      pop\n        /* \"#utility.yul\":12786:13152   */\n      swap2\n      swap1\n      pop\n      jump\t// out\n        /* \"#utility.yul\":13158:13524   */\n    tag_668:\n        /* \"#utility.yul\":13300:13303   */\n      0x00\n        /* \"#utility.yul\":13321:13388   */\n      tag_670\n        /* \"#utility.yul\":13385:13387   */\n      0x2a\n        /* \"#utility.yul\":13380:13383   */\n      dup4\n        /* \"#utility.yul\":13321:13388   */\n      tag_579\n      jump\t// in\n    tag_670:\n        /* \"#utility.yul\":13314:13388   */\n      swap2\n      pop\n        /* \"#utility.yul\":13397:13490   */\n      tag_671\n        /* \"#utility.yul\":13486:13489   */\n      dup3\n        /* \"#utility.yul\":13397:13490   */\n      tag_672\n      jump\t// in\n    tag_671:\n        /* \"#utility.yul\":13515:13517   */\n      0x40\n        /* \"#utility.yul\":13510:13513   */\n      dup3\n        /* \"#utility.yul\":13506:13518   */\n      add\n        /* \"#utility.yul\":13499:13518   */\n      swap1\n      pop\n        /* \"#utility.yul\":13158:13524   */\n      swap2\n      swap1\n      pop\n      jump\t// out\n        /* \"#utility.yul\":13530:13896   */\n    tag_673:\n        /* \"#utility.yul\":13672:13675   */\n      0x00\n        /* \"#utility.yul\":13693:13760   */\n      tag_675\n        /* \"#utility.yul\":13757:13759   */\n      0x2a\n        /* \"#utility.yul\":13752:13755   */\n      dup4\n        /* \"#utility.yul\":13693:13760   */\n      tag_579\n      jump\t// in\n    tag_675:\n        /* \"#utility.yul\":13686:13760   */\n      swap2\n      pop\n        /* \"#utility.yul\":13769:13862   */\n      tag_676\n        /* \"#utility.yul\":13858:13861   */\n      dup3\n        /* \"#utility.yul\":13769:13862   */\n      tag_677\n      jump\t// in\n    tag_676:\n        /* \"#utility.yul\":13887:13889   */\n      0x40\n        /* \"#utility.yul\":13882:13885   */\n      dup3\n        /* \"#utility.yul\":13878:13890   */\n      add\n        /* \"#utility.yul\":13871:13890   */\n      swap1\n      pop\n        /* \"#utility.yul\":13530:13896   */\n      swap2\n      swap1\n      pop\n      jump\t// out\n        /* \"#utility.yul\":13902:14268   */\n    tag_678:\n        /* \"#utility.yul\":14044:14047   */\n      0x00\n        /* \"#utility.yul\":14065:14132   */\n      tag_680\n        /* \"#utility.yul\":14129:14131   */\n      0x26\n        /* \"#utility.yul\":14124:14127   */\n      dup4\n        /* \"#utility.yul\":14065:14132   */\n      tag_579\n      jump\t// in\n    tag_680:\n        /* \"#utility.yul\":14058:14132   */\n      swap2\n      pop\n        /* \"#utility.yul\":14141:14234   */\n      tag_681\n        /* \"#utility.yul\":14230:14233   */\n      dup3\n        /* \"#utility.yul\":14141:14234   */\n      tag_682\n      jump\t// in\n    tag_681:\n        /* \"#utility.yul\":14259:14261   */\n      0x40\n        /* \"#utility.yul\":14254:14257   */\n      dup3\n        /* \"#utility.yul\":14250:14262   */\n      add\n        /* \"#utility.yul\":14243:14262   */\n      swap1\n      pop\n        /* \"#utility.yul\":13902:14268   */\n      swap2\n      swap1\n      pop\n      jump\t// out\n        /* \"#utility.yul\":14274:14640   */\n    tag_683:\n        /* \"#utility.yul\":14416:14419   */\n      0x00\n        /* \"#utility.yul\":14437:14504   */\n      tag_685\n        /* \"#utility.yul\":14501:14503   */\n      0x1f\n        /* \"#utility.yul\":14496:14499   */\n      dup4\n        /* \"#utility.yul\":14437:14504   */\n      tag_579\n      jump\t// in\n    tag_685:\n        /* \"#utility.yul\":14430:14504   */\n      swap2\n      pop\n        /* \"#utility.yul\":14513:14606   */\n      tag_686\n        /* \"#utility.yul\":14602:14605   */\n      dup3\n        /* \"#utility.yul\":14513:14606   */\n      tag_687\n      jump\t// in\n    tag_686:\n        /* \"#utility.yul\":14631:14633   */\n      0x20\n        /* \"#utility.yul\":14626:14629   */\n      dup3\n        /* \"#utility.yul\":14622:14634   */\n      add\n        /* \"#utility.yul\":14615:14634   */\n      swap1\n      pop\n        /* \"#utility.yul\":14274:14640   */\n      swap2\n      swap1\n      pop\n      jump\t// out\n        /* \"#utility.yul\":14646:15012   */\n    tag_688:\n        /* \"#utility.yul\":14788:14791   */\n      0x00\n        /* \"#utility.yul\":14809:14876   */\n      tag_690\n        /* \"#utility.yul\":14873:14875   */\n      0x34\n        /* \"#utility.yul\":14868:14871   */\n      dup4\n        /* \"#utility.yul\":14809:14876   */\n      tag_579\n      jump\t// in\n    tag_690:\n        /* \"#utility.yul\":14802:14876   */\n      swap2\n      pop\n        /* \"#utility.yul\":14885:14978   */\n      tag_691\n        /* \"#utility.yul\":14974:14977   */\n      dup3\n        /* \"#utility.yul\":14885:14978   */\n      tag_692\n      jump\t// in\n    tag_691:\n        /* \"#utility.yul\":15003:15005   */\n      0x40\n        /* \"#utility.yul\":14998:15001   */\n      dup3\n        /* \"#utility.yul\":14994:15006   */\n      add\n        /* \"#utility.yul\":14987:15006   */\n      swap1\n      pop\n        /* \"#utility.yul\":14646:15012   */\n      swap2\n      swap1\n      pop\n      jump\t// out\n        /* \"#utility.yul\":15018:15136   */\n    tag_693:\n        /* \"#utility.yul\":15105:15129   */\n      tag_695\n        /* \"#utility.yul\":15123:15128   */\n      dup2\n        /* \"#utility.yul\":15105:15129   */\n      tag_696\n      jump\t// in\n    tag_695:\n        /* \"#utility.yul\":15100:15103   */\n      dup3\n        /* \"#utility.yul\":15093:15130   */\n      mstore\n        /* \"#utility.yul\":15018:15136   */\n      pop\n      pop\n      jump\t// out\n        /* \"#utility.yul\":15142:15413   */\n    tag_405:\n        /* \"#utility.yul\":15272:15275   */\n      0x00\n        /* \"#utility.yul\":15294:15387   */\n      tag_698\n        /* \"#utility.yul\":15383:15386   */\n      dup3\n        /* \"#utility.yul\":15374:15380   */\n      dup5\n        /* \"#utility.yul\":15294:15387   */\n      tag_562\n      jump\t// in\n    tag_698:\n        /* \"#utility.yul\":15287:15387   */\n      swap2\n      pop\n        /* \"#utility.yul\":15404:15407   */\n      dup2\n        /* \"#utility.yul\":15397:15407   */\n      swap1\n      pop\n        /* \"#utility.yul\":15142:15413   */\n      swap3\n      swap2\n      pop\n      pop\n      jump\t// out\n        /* \"#utility.yul\":15419:15641   */\n    tag_96:\n        /* \"#utility.yul\":15512:15516   */\n      0x00\n        /* \"#utility.yul\":15550:15552   */\n      0x20\n        /* \"#utility.yul\":15539:15548   */\n      dup3\n        /* \"#utility.yul\":15535:15553   */\n      add\n        /* \"#utility.yul\":15527:15553   */\n      swap1\n      pop\n        /* \"#utility.yul\":15563:15634   */\n      tag_700\n        /* \"#utility.yul\":15631:15632   */\n      0x00\n        /* \"#utility.yul\":15620:15629   */\n      dup4\n        /* \"#utility.yul\":15616:15633   */\n      add\n        /* \"#utility.yul\":15607:15613   */\n      dup5\n        /* \"#utility.yul\":15563:15634   */\n      tag_554\n      jump\t// in\n    tag_700:\n        /* \"#utility.yul\":15419:15641   */\n      swap3\n      swap2\n      pop\n      pop\n      jump\t// out\n        /* \"#utility.yul\":15647:16089   */\n    tag_432:\n        /* \"#utility.yul\":15796:15800   */\n      0x00\n        /* \"#utility.yul\":15834:15836   */\n      0x60\n        /* \"#utility.yul\":15823:15832   */\n      dup3\n        /* \"#utility.yul\":15819:15837   */\n      add\n        /* \"#utility.yul\":15811:15837   */\n      swap1\n      pop\n        /* \"#utility.yul\":15847:15918   */\n      tag_702\n        /* \"#utility.yul\":15915:15916   */\n      0x00\n        /* \"#utility.yul\":15904:15913   */\n      dup4\n        /* \"#utility.yul\":15900:15917   */\n      add\n        /* \"#utility.yul\":15891:15897   */\n      dup7\n        /* \"#utility.yul\":15847:15918   */\n      tag_554\n      jump\t// in\n    tag_702:\n        /* \"#utility.yul\":15928:16000   */\n      tag_703\n        /* \"#utility.yul\":15996:15998   */\n      0x20\n        /* \"#utility.yul\":15985:15994   */\n      dup4\n        /* \"#utility.yul\":15981:15999   */\n      add\n        /* \"#utility.yul\":15972:15978   */\n      dup6\n        /* \"#utility.yul\":15928:16000   */\n      tag_554\n      jump\t// in\n    tag_703:\n        /* \"#utility.yul\":16010:16082   */\n      tag_704\n        /* \"#utility.yul\":16078:16080   */\n      0x40\n        /* \"#utility.yul\":16067:16076   */\n      dup4\n        /* \"#utility.yul\":16063:16081   */\n      add\n        /* \"#utility.yul\":16054:16060   */\n      dup5\n        /* \"#utility.yul\":16010:16082   */\n      tag_693\n      jump\t// in\n    tag_704:\n        /* \"#utility.yul\":15647:16089   */\n      swap5\n      swap4\n      pop\n      pop\n      pop\n      pop\n      jump\t// out\n        /* \"#utility.yul\":16095:16427   */\n    tag_403:\n        /* \"#utility.yul\":16216:16220   */\n      0x00\n        /* \"#utility.yul\":16254:16256   */\n      0x40\n        /* \"#utility.yul\":16243:16252   */\n      dup3\n        /* \"#utility.yul\":16239:16257   */\n      add\n        /* \"#utility.yul\":16231:16257   */\n      swap1\n      pop\n        /* \"#utility.yul\":16267:16338   */\n      tag_706\n        /* \"#utility.yul\":16335:16336   */\n      0x00\n        /* \"#utility.yul\":16324:16333   */\n      dup4\n        /* \"#utility.yul\":16320:16337   */\n      add\n        /* \"#utility.yul\":16311:16317   */\n      dup6\n        /* \"#utility.yul\":16267:16338   */\n      tag_554\n      jump\t// in\n    tag_706:\n        /* \"#utility.yul\":16348:16420   */\n      tag_707\n        /* \"#utility.yul\":16416:16418   */\n      0x20\n        /* \"#utility.yul\":16405:16414   */\n      dup4\n        /* \"#utility.yul\":16401:16419   */\n      add\n        /* \"#utility.yul\":16392:16398   */\n      dup5\n        /* \"#utility.yul\":16348:16420   */\n      tag_693\n      jump\t// in\n    tag_707:\n        /* \"#utility.yul\":16095:16427   */\n      swap4\n      swap3\n      pop\n      pop\n      pop\n      jump\t// out\n        /* \"#utility.yul\":16433:16643   */\n    tag_91:\n        /* \"#utility.yul\":16520:16524   */\n      0x00\n        /* \"#utility.yul\":16558:16560   */\n      0x20\n        /* \"#utility.yul\":16547:16556   */\n      dup3\n        /* \"#utility.yul\":16543:16561   */\n      add\n        /* \"#utility.yul\":16535:16561   */\n      swap1\n      pop\n        /* \"#utility.yul\":16571:16636   */\n      tag_709\n        /* \"#utility.yul\":16633:16634   */\n      0x00\n        /* \"#utility.yul\":16622:16631   */\n      dup4\n        /* \"#utility.yul\":16618:16635   */\n      add\n        /* \"#utility.yul\":16609:16615   */\n      dup5\n        /* \"#utility.yul\":16571:16636   */\n      tag_558\n      jump\t// in\n    tag_709:\n        /* \"#utility.yul\":16433:16643   */\n      swap3\n      swap2\n      pop\n      pop\n      jump\t// out\n        /* \"#utility.yul\":16649:16899   */\n    tag_61:\n        /* \"#utility.yul\":16756:16760   */\n      0x00\n        /* \"#utility.yul\":16794:16796   */\n      0x20\n        /* \"#utility.yul\":16783:16792   */\n      dup3\n        /* \"#utility.yul\":16779:16797   */\n      add\n        /* \"#utility.yul\":16771:16797   */\n      swap1\n      pop\n        /* \"#utility.yul\":16807:16892   */\n      tag_711\n        /* \"#utility.yul\":16889:16890   */\n      0x00\n        /* \"#utility.yul\":16878:16887   */\n      dup4\n        /* \"#utility.yul\":16874:16891   */\n      add\n        /* \"#utility.yul\":16865:16871   */\n      dup5\n        /* \"#utility.yul\":16807:16892   */\n      tag_570\n      jump\t// in\n    tag_711:\n        /* \"#utility.yul\":16649:16899   */\n      swap3\n      swap2\n      pop\n      pop\n      jump\t// out\n        /* \"#utility.yul\":16905:17218   */\n    tag_467:\n        /* \"#utility.yul\":17018:17022   */\n      0x00\n        /* \"#utility.yul\":17056:17058   */\n      0x20\n        /* \"#utility.yul\":17045:17054   */\n      dup3\n        /* \"#utility.yul\":17041:17059   */\n      add\n        /* \"#utility.yul\":17033:17059   */\n      swap1\n      pop\n        /* \"#utility.yul\":17105:17114   */\n      dup2\n        /* \"#utility.yul\":17099:17103   */\n      dup2\n        /* \"#utility.yul\":17095:17115   */\n      sub\n        /* \"#utility.yul\":17091:17092   */\n      0x00\n        /* \"#utility.yul\":17080:17089   */\n      dup4\n        /* \"#utility.yul\":17076:17093   */\n      add\n        /* \"#utility.yul\":17069:17116   */\n      mstore\n        /* \"#utility.yul\":17133:17211   */\n      tag_713\n        /* \"#utility.yul\":17206:17210   */\n      dup2\n        /* \"#utility.yul\":17197:17203   */\n      dup5\n        /* \"#utility.yul\":17133:17211   */\n      tag_574\n      jump\t// in\n    tag_713:\n        /* \"#utility.yul\":17125:17211   */\n      swap1\n      pop\n        /* \"#utility.yul\":16905:17218   */\n      swap3\n      swap2\n      pop\n      pop\n      jump\t// out\n        /* \"#utility.yul\":17224:17643   */\n    tag_298:\n        /* \"#utility.yul\":17390:17394   */\n      0x00\n        /* \"#utility.yul\":17428:17430   */\n      0x20\n        /* \"#utility.yul\":17417:17426   */\n      dup3\n        /* \"#utility.yul\":17413:17431   */\n      add\n        /* \"#utility.yul\":17405:17431   */\n      swap1\n      pop\n        /* \"#utility.yul\":17477:17486   */\n      dup2\n        /* \"#utility.yul\":17471:17475   */\n      dup2\n        /* \"#utility.yul\":17467:17487   */\n      sub\n        /* \"#utility.yul\":17463:17464   */\n      0x00\n        /* \"#utility.yul\":17452:17461   */\n      dup4\n        /* \"#utility.yul\":17448:17465   */\n      add\n        /* \"#utility.yul\":17441:17488   */\n      mstore\n        /* \"#utility.yul\":17505:17636   */\n      tag_715\n        /* \"#utility.yul\":17631:17635   */\n      dup2\n        /* \"#utility.yul\":17505:17636   */\n      tag_583\n      jump\t// in\n    tag_715:\n        /* \"#utility.yul\":17497:17636   */\n      swap1\n      pop\n        /* \"#utility.yul\":17224:17643   */\n      swap2\n      swap1\n      pop\n      jump\t// out\n        /* \"#utility.yul\":17649:18068   */\n    tag_365:\n        /* \"#utility.yul\":17815:17819   */\n      0x00\n        /* \"#utility.yul\":17853:17855   */\n      0x20\n        /* \"#utility.yul\":17842:17851   */\n      dup3\n        /* \"#utility.yul\":17838:17856   */\n      add\n        /* \"#utility.yul\":17830:17856   */\n      swap1\n      pop\n        /* \"#utility.yul\":17902:17911   */\n      dup2\n        /* \"#utility.yul\":17896:17900   */\n      dup2\n        /* \"#utility.yul\":17892:17912   */\n      sub\n        /* \"#utility.yul\":17888:17889   */\n      0x00\n        /* \"#utility.yul\":17877:17886   */\n      dup4\n        /* \"#utility.yul\":17873:17890   */\n      add\n        /* \"#utility.yul\":17866:17913   */\n      mstore\n        /* \"#utility.yul\":17930:18061   */\n      tag_717\n        /* \"#utility.yul\":18056:18060   */\n      dup2\n        /* \"#utility.yul\":17930:18061   */\n      tag_588\n      jump\t// in\n    tag_717:\n        /* \"#utility.yul\":17922:18061   */\n      swap1\n      pop\n        /* \"#utility.yul\":17649:18068   */\n      swap2\n      swap1\n      pop\n      jump\t// out\n        /* \"#utility.yul\":18074:18493   */\n    tag_314:\n        /* \"#utility.yul\":18240:18244   */\n      0x00\n        /* \"#utility.yul\":18278:18280   */\n      0x20\n        /* \"#utility.yul\":18267:18276   */\n      dup3\n        /* \"#utility.yul\":18263:18281   */\n      add\n        /* \"#utility.yul\":18255:18281   */\n      swap1\n      pop\n        /* \"#utility.yul\":18327:18336   */\n      dup2\n        /* \"#utility.yul\":18321:18325   */\n      dup2\n        /* \"#utility.yul\":18317:18337   */\n      sub\n        /* \"#utility.yul\":18313:18314   */\n      0x00\n        /* \"#utility.yul\":18302:18311   */\n      dup4\n        /* \"#utility.yul\":18298:18315   */\n      add\n        /* \"#utility.yul\":18291:18338   */\n      mstore\n        /* \"#utility.yul\":18355:18486   */\n      tag_719\n        /* \"#utility.yul\":18481:18485   */\n      dup2\n        /* \"#utility.yul\":18355:18486   */\n      tag_593\n      jump\t// in\n    tag_719:\n        /* \"#utility.yul\":18347:18486   */\n      swap1\n      pop\n        /* \"#utility.yul\":18074:18493   */\n      swap2\n      swap1\n      pop\n      jump\t// out\n        /* \"#utility.yul\":18499:18918   */\n    tag_427:\n        /* \"#utility.yul\":18665:18669   */\n      0x00\n        /* \"#utility.yul\":18703:18705   */\n      0x20\n        /* \"#utility.yul\":18692:18701   */\n      dup3\n        /* \"#utility.yul\":18688:18706   */\n      add\n        /* \"#utility.yul\":18680:18706   */\n      swap1\n      pop\n        /* \"#utility.yul\":18752:18761   */\n      dup2\n        /* \"#utility.yul\":18746:18750   */\n      dup2\n        /* \"#utility.yul\":18742:18762   */\n      sub\n        /* \"#utility.yul\":18738:18739   */\n      0x00\n        /* \"#utility.yul\":18727:18736   */\n      dup4\n        /* \"#utility.yul\":18723:18740   */\n      add\n        /* \"#utility.yul\":18716:18763   */\n      mstore\n        /* \"#utility.yul\":18780:18911   */\n      tag_721\n        /* \"#utility.yul\":18906:18910   */\n      dup2\n        /* \"#utility.yul\":18780:18911   */\n      tag_598\n      jump\t// in\n    tag_721:\n        /* \"#utility.yul\":18772:18911   */\n      swap1\n      pop\n        /* \"#utility.yul\":18499:18918   */\n      swap2\n      swap1\n      pop\n      jump\t// out\n        /* \"#utility.yul\":18924:19343   */\n    tag_201:\n        /* \"#utility.yul\":19090:19094   */\n      0x00\n        /* \"#utility.yul\":19128:19130   */\n      0x20\n        /* \"#utility.yul\":19117:19126   */\n      dup3\n        /* \"#utility.yul\":19113:19131   */\n      add\n        /* \"#utility.yul\":19105:19131   */\n      swap1\n      pop\n        /* \"#utility.yul\":19177:19186   */\n      dup2\n        /* \"#utility.yul\":19171:19175   */\n      dup2\n        /* \"#utility.yul\":19167:19187   */\n      sub\n        /* \"#utility.yul\":19163:19164   */\n      0x00\n        /* \"#utility.yul\":19152:19161   */\n      dup4\n        /* \"#utility.yul\":19148:19165   */\n      add\n        /* \"#utility.yul\":19141:19188   */\n      mstore\n        /* \"#utility.yul\":19205:19336   */\n      tag_723\n        /* \"#utility.yul\":19331:19335   */\n      dup2\n        /* \"#utility.yul\":19205:19336   */\n      tag_603\n      jump\t// in\n    tag_723:\n        /* \"#utility.yul\":19197:19336   */\n      swap1\n      pop\n        /* \"#utility.yul\":18924:19343   */\n      swap2\n      swap1\n      pop\n      jump\t// out\n        /* \"#utility.yul\":19349:19768   */\n    tag_209:\n        /* \"#utility.yul\":19515:19519   */\n      0x00\n        /* \"#utility.yul\":19553:19555   */\n      0x20\n        /* \"#utility.yul\":19542:19551   */\n      dup3\n        /* \"#utility.yul\":19538:19556   */\n      add\n        /* \"#utility.yul\":19530:19556   */\n      swap1\n      pop\n        /* \"#utility.yul\":19602:19611   */\n      dup2\n        /* \"#utility.yul\":19596:19600   */\n      dup2\n        /* \"#utility.yul\":19592:19612   */\n      sub\n        /* \"#utility.yul\":19588:19589   */\n      0x00\n        /* \"#utility.yul\":19577:19586   */\n      dup4\n        /* \"#utility.yul\":19573:19590   */\n      add\n        /* \"#utility.yul\":19566:19613   */\n      mstore\n        /* \"#utility.yul\":19630:19761   */\n      tag_725\n        /* \"#utility.yul\":19756:19760   */\n      dup2\n        /* \"#utility.yul\":19630:19761   */\n      tag_608\n      jump\t// in\n    tag_725:\n        /* \"#utility.yul\":19622:19761   */\n      swap1\n      pop\n        /* \"#utility.yul\":19349:19768   */\n      swap2\n      swap1\n      pop\n      jump\t// out\n        /* \"#utility.yul\":19774:20193   */\n    tag_448:\n        /* \"#utility.yul\":19940:19944   */\n      0x00\n        /* \"#utility.yul\":19978:19980   */\n      0x20\n        /* \"#utility.yul\":19967:19976   */\n      dup3\n        /* \"#utility.yul\":19963:19981   */\n      add\n        /* \"#utility.yul\":19955:19981   */\n      swap1\n      pop\n        /* \"#utility.yul\":20027:20036   */\n      dup2\n        /* \"#utility.yul\":20021:20025   */\n      dup2\n        /* \"#utility.yul\":20017:20037   */\n      sub\n        /* \"#utility.yul\":20013:20014   */\n      0x00\n        /* \"#utility.yul\":20002:20011   */\n      dup4\n        /* \"#utility.yul\":19998:20015   */\n      add\n        /* \"#utility.yul\":19991:20038   */\n      mstore\n        /* \"#utility.yul\":20055:20186   */\n      tag_727\n        /* \"#utility.yul\":20181:20185   */\n      dup2\n        /* \"#utility.yul\":20055:20186   */\n      tag_613\n      jump\t// in\n    tag_727:\n        /* \"#utility.yul\":20047:20186   */\n      swap1\n      pop\n        /* \"#utility.yul\":19774:20193   */\n      swap2\n      swap1\n      pop\n      jump\t// out\n        /* \"#utility.yul\":20199:20618   */\n    tag_306:\n        /* \"#utility.yul\":20365:20369   */\n      0x00\n        /* \"#utility.yul\":20403:20405   */\n      0x20\n        /* \"#utility.yul\":20392:20401   */\n      dup3\n        /* \"#utility.yul\":20388:20406   */\n      add\n        /* \"#utility.yul\":20380:20406   */\n      swap1\n      pop\n        /* \"#utility.yul\":20452:20461   */\n      dup2\n        /* \"#utility.yul\":20446:20450   */\n      dup2\n        /* \"#utility.yul\":20442:20462   */\n      sub\n        /* \"#utility.yul\":20438:20439   */\n      0x00\n        /* \"#utility.yul\":20427:20436   */\n      dup4\n        /* \"#utility.yul\":20423:20440   */\n      add\n        /* \"#utility.yul\":20416:20463   */\n      mstore\n        /* \"#utility.yul\":20480:20611   */\n      tag_729\n        /* \"#utility.yul\":20606:20610   */\n      dup2\n        /* \"#utility.yul\":20480:20611   */\n      tag_618\n      jump\t// in\n    tag_729:\n        /* \"#utility.yul\":20472:20611   */\n      swap1\n      pop\n        /* \"#utility.yul\":20199:20618   */\n      swap2\n      swap1\n      pop\n      jump\t// out\n        /* \"#utility.yul\":20624:21043   */\n    tag_237:\n        /* \"#utility.yul\":20790:20794   */\n      0x00\n        /* \"#utility.yul\":20828:20830   */\n      0x20\n        /* \"#utility.yul\":20817:20826   */\n      dup3\n        /* \"#utility.yul\":20813:20831   */\n      add\n        /* \"#utility.yul\":20805:20831   */\n      swap1\n      pop\n        /* \"#utility.yul\":20877:20886   */\n      dup2\n        /* \"#utility.yul\":20871:20875   */\n      dup2\n        /* \"#utility.yul\":20867:20887   */\n      sub\n        /* \"#utility.yul\":20863:20864   */\n      0x00\n        /* \"#utility.yul\":20852:20861   */\n      dup4\n        /* \"#utility.yul\":20848:20865   */\n      add\n        /* \"#utility.yul\":20841:20888   */\n      mstore\n        /* \"#utility.yul\":20905:21036   */\n      tag_731\n        /* \"#utility.yul\":21031:21035   */\n      dup2\n        /* \"#utility.yul\":20905:21036   */\n      tag_623\n      jump\t// in\n    tag_731:\n        /* \"#utility.yul\":20897:21036   */\n      swap1\n      pop\n        /* \"#utility.yul\":20624:21043   */\n      swap2\n      swap1\n      pop\n      jump\t// out\n        /* \"#utility.yul\":21049:21468   */\n    tag_375:\n        /* \"#utility.yul\":21215:21219   */\n      0x00\n        /* \"#utility.yul\":21253:21255   */\n      0x20\n        /* \"#utility.yul\":21242:21251   */\n      dup3\n        /* \"#utility.yul\":21238:21256   */\n      add\n        /* \"#utility.yul\":21230:21256   */\n      swap1\n      pop\n        /* \"#utility.yul\":21302:21311   */\n      dup2\n        /* \"#utility.yul\":21296:21300   */\n      dup2\n        /* \"#utility.yul\":21292:21312   */\n      sub\n        /* \"#utility.yul\":21288:21289   */\n      0x00\n        /* \"#utility.yul\":21277:21286   */\n      dup4\n        /* \"#utility.yul\":21273:21290   */\n      add\n        /* \"#utility.yul\":21266:21313   */\n      mstore\n        /* \"#utility.yul\":21330:21461   */\n      tag_733\n        /* \"#utility.yul\":21456:21460   */\n      dup2\n        /* \"#utility.yul\":21330:21461   */\n      tag_628\n      jump\t// in\n    tag_733:\n        /* \"#utility.yul\":21322:21461   */\n      swap1\n      pop\n        /* \"#utility.yul\":21049:21468   */\n      swap2\n      swap1\n      pop\n      jump\t// out\n        /* \"#utility.yul\":21474:21893   */\n    tag_205:\n        /* \"#utility.yul\":21640:21644   */\n      0x00\n        /* \"#utility.yul\":21678:21680   */\n      0x20\n        /* \"#utility.yul\":21667:21676   */\n      dup3\n        /* \"#utility.yul\":21663:21681   */\n      add\n        /* \"#utility.yul\":21655:21681   */\n      swap1\n      pop\n        /* \"#utility.yul\":21727:21736   */\n      dup2\n        /* \"#utility.yul\":21721:21725   */\n      dup2\n        /* \"#utility.yul\":21717:21737   */\n      sub\n        /* \"#utility.yul\":21713:21714   */\n      0x00\n        /* \"#utility.yul\":21702:21711   */\n      dup4\n        /* \"#utility.yul\":21698:21715   */\n      add\n        /* \"#utility.yul\":21691:21738   */\n      mstore\n        /* \"#utility.yul\":21755:21886   */\n      tag_735\n        /* \"#utility.yul\":21881:21885   */\n      dup2\n        /* \"#utility.yul\":21755:21886   */\n      tag_633\n      jump\t// in\n    tag_735:\n        /* \"#utility.yul\":21747:21886   */\n      swap1\n      pop\n        /* \"#utility.yul\":21474:21893   */\n      swap2\n      swap1\n      pop\n      jump\t// out\n        /* \"#utility.yul\":21899:22318   */\n    tag_388:\n        /* \"#utility.yul\":22065:22069   */\n      0x00\n        /* \"#utility.yul\":22103:22105   */\n      0x20\n        /* \"#utility.yul\":22092:22101   */\n      dup3\n        /* \"#utility.yul\":22088:22106   */\n      add\n        /* \"#utility.yul\":22080:22106   */\n      swap1\n      pop\n        /* \"#utility.yul\":22152:22161   */\n      dup2\n        /* \"#utility.yul\":22146:22150   */\n      dup2\n        /* \"#utility.yul\":22142:22162   */\n      sub\n        /* \"#utility.yul\":22138:22139   */\n      0x00\n        /* \"#utility.yul\":22127:22136   */\n      dup4\n        /* \"#utility.yul\":22123:22140   */\n      add\n        /* \"#utility.yul\":22116:22163   */\n      mstore\n        /* \"#utility.yul\":22180:22311   */\n      tag_737\n        /* \"#utility.yul\":22306:22310   */\n      dup2\n        /* \"#utility.yul\":22180:22311   */\n      tag_638\n      jump\t// in\n    tag_737:\n        /* \"#utility.yul\":22172:22311   */\n      swap1\n      pop\n        /* \"#utility.yul\":21899:22318   */\n      swap2\n      swap1\n      pop\n      jump\t// out\n        /* \"#utility.yul\":22324:22743   */\n    tag_174:\n        /* \"#utility.yul\":22490:22494   */\n      0x00\n        /* \"#utility.yul\":22528:22530   */\n      0x20\n        /* \"#utility.yul\":22517:22526   */\n      dup3\n        /* \"#utility.yul\":22513:22531   */\n      add\n        /* \"#utility.yul\":22505:22531   */\n      swap1\n      pop\n        /* \"#utility.yul\":22577:22586   */\n      dup2\n        /* \"#utility.yul\":22571:22575   */\n      dup2\n        /* \"#utility.yul\":22567:22587   */\n      sub\n        /* \"#utility.yul\":22563:22564   */\n      0x00\n        /* \"#utility.yul\":22552:22561   */\n      dup4\n        /* \"#utility.yul\":22548:22565   */\n      add\n        /* \"#utility.yul\":22541:22588   */\n      mstore\n        /* \"#utility.yul\":22605:22736   */\n      tag_739\n        /* \"#utility.yul\":22731:22735   */\n      dup2\n        /* \"#utility.yul\":22605:22736   */\n      tag_643\n      jump\t// in\n    tag_739:\n        /* \"#utility.yul\":22597:22736   */\n      swap1\n      pop\n        /* \"#utility.yul\":22324:22743   */\n      swap2\n      swap1\n      pop\n      jump\t// out\n        /* \"#utility.yul\":22749:23168   */\n    tag_252:\n        /* \"#utility.yul\":22915:22919   */\n      0x00\n        /* \"#utility.yul\":22953:22955   */\n      0x20\n        /* \"#utility.yul\":22942:22951   */\n      dup3\n        /* \"#utility.yul\":22938:22956   */\n      add\n        /* \"#utility.yul\":22930:22956   */\n      swap1\n      pop\n        /* \"#utility.yul\":23002:23011   */\n      dup2\n        /* \"#utility.yul\":22996:23000   */\n      dup2\n        /* \"#utility.yul\":22992:23012   */\n      sub\n        /* \"#utility.yul\":22988:22989   */\n      0x00\n        /* \"#utility.yul\":22977:22986   */\n      dup4\n        /* \"#utility.yul\":22973:22990   */\n      add\n        /* \"#utility.yul\":22966:23013   */\n      mstore\n        /* \"#utility.yul\":23030:23161   */\n      tag_741\n        /* \"#utility.yul\":23156:23160   */\n      dup2\n        /* \"#utility.yul\":23030:23161   */\n      tag_648\n      jump\t// in\n    tag_741:\n        /* \"#utility.yul\":23022:23161   */\n      swap1\n      pop\n        /* \"#utility.yul\":22749:23168   */\n      swap2\n      swap1\n      pop\n      jump\t// out\n        /* \"#utility.yul\":23174:23593   */\n    tag_453:\n        /* \"#utility.yul\":23340:23344   */\n      0x00\n        /* \"#utility.yul\":23378:23380   */\n      0x20\n        /* \"#utility.yul\":23367:23376   */\n      dup3\n        /* \"#utility.yul\":23363:23381   */\n      add\n        /* \"#utility.yul\":23355:23381   */\n      swap1\n      pop\n        /* \"#utility.yul\":23427:23436   */\n      dup2\n        /* \"#utility.yul\":23421:23425   */\n      dup2\n        /* \"#utility.yul\":23417:23437   */\n      sub\n        /* \"#utility.yul\":23413:23414   */\n      0x00\n        /* \"#utility.yul\":23402:23411   */\n      dup4\n        /* \"#utility.yul\":23398:23415   */\n      add\n        /* \"#utility.yul\":23391:23438   */\n      mstore\n        /* \"#utility.yul\":23455:23586   */\n      tag_743\n        /* \"#utility.yul\":23581:23585   */\n      dup2\n        /* \"#utility.yul\":23455:23586   */\n      tag_653\n      jump\t// in\n    tag_743:\n        /* \"#utility.yul\":23447:23586   */\n      swap1\n      pop\n        /* \"#utility.yul\":23174:23593   */\n      swap2\n      swap1\n      pop\n      jump\t// out\n        /* \"#utility.yul\":23599:24018   */\n    tag_194:\n        /* \"#utility.yul\":23765:23769   */\n      0x00\n        /* \"#utility.yul\":23803:23805   */\n      0x20\n        /* \"#utility.yul\":23792:23801   */\n      dup3\n        /* \"#utility.yul\":23788:23806   */\n      add\n        /* \"#utility.yul\":23780:23806   */\n      swap1\n      pop\n        /* \"#utility.yul\":23852:23861   */\n      dup2\n        /* \"#utility.yul\":23846:23850   */\n      dup2\n        /* \"#utility.yul\":23842:23862   */\n      sub\n        /* \"#utility.yul\":23838:23839   */\n      0x00\n        /* \"#utility.yul\":23827:23836   */\n      dup4\n        /* \"#utility.yul\":23823:23840   */\n      add\n        /* \"#utility.yul\":23816:23863   */\n      mstore\n        /* \"#utility.yul\":23880:24011   */\n      tag_745\n        /* \"#utility.yul\":24006:24010   */\n      dup2\n        /* \"#utility.yul\":23880:24011   */\n      tag_658\n      jump\t// in\n    tag_745:\n        /* \"#utility.yul\":23872:24011   */\n      swap1\n      pop\n        /* \"#utility.yul\":23599:24018   */\n      swap2\n      swap1\n      pop\n      jump\t// out\n        /* \"#utility.yul\":24024:24443   */\n    tag_415:\n        /* \"#utility.yul\":24190:24194   */\n      0x00\n        /* \"#utility.yul\":24228:24230   */\n      0x20\n        /* \"#utility.yul\":24217:24226   */\n      dup3\n        /* \"#utility.yul\":24213:24231   */\n      add\n        /* \"#utility.yul\":24205:24231   */\n      swap1\n      pop\n        /* \"#utility.yul\":24277:24286   */\n      dup2\n        /* \"#utility.yul\":24271:24275   */\n      dup2\n        /* \"#utility.yul\":24267:24287   */\n      sub\n        /* \"#utility.yul\":24263:24264   */\n      0x00\n        /* \"#utility.yul\":24252:24261   */\n      dup4\n        /* \"#utility.yul\":24248:24265   */\n      add\n        /* \"#utility.yul\":24241:24288   */\n      mstore\n        /* \"#utility.yul\":24305:24436   */\n      tag_747\n        /* \"#utility.yul\":24431:24435   */\n      dup2\n        /* \"#utility.yul\":24305:24436   */\n      tag_663\n      jump\t// in\n    tag_747:\n        /* \"#utility.yul\":24297:24436   */\n      swap1\n      pop\n        /* \"#utility.yul\":24024:24443   */\n      swap2\n      swap1\n      pop\n      jump\t// out\n        /* \"#utility.yul\":24449:24868   */\n    tag_334:\n        /* \"#utility.yul\":24615:24619   */\n      0x00\n        /* \"#utility.yul\":24653:24655   */\n      0x20\n        /* \"#utility.yul\":24642:24651   */\n      dup3\n        /* \"#utility.yul\":24638:24656   */\n      add\n        /* \"#utility.yul\":24630:24656   */\n      swap1\n      pop\n        /* \"#utility.yul\":24702:24711   */\n      dup2\n        /* \"#utility.yul\":24696:24700   */\n      dup2\n        /* \"#utility.yul\":24692:24712   */\n      sub\n        /* \"#utility.yul\":24688:24689   */\n      0x00\n        /* \"#utility.yul\":24677:24686   */\n      dup4\n        /* \"#utility.yul\":24673:24690   */\n      add\n        /* \"#utility.yul\":24666:24713   */\n      mstore\n        /* \"#utility.yul\":24730:24861   */\n      tag_749\n        /* \"#utility.yul\":24856:24860   */\n      dup2\n        /* \"#utility.yul\":24730:24861   */\n      tag_668\n      jump\t// in\n    tag_749:\n        /* \"#utility.yul\":24722:24861   */\n      swap1\n      pop\n        /* \"#utility.yul\":24449:24868   */\n      swap2\n      swap1\n      pop\n      jump\t// out\n        /* \"#utility.yul\":24874:25293   */\n    tag_441:\n        /* \"#utility.yul\":25040:25044   */\n      0x00\n        /* \"#utility.yul\":25078:25080   */\n      0x20\n        /* \"#utility.yul\":25067:25076   */\n      dup3\n        /* \"#utility.yul\":25063:25081   */\n      add\n        /* \"#utility.yul\":25055:25081   */\n      swap1\n      pop\n        /* \"#utility.yul\":25127:25136   */\n      dup2\n        /* \"#utility.yul\":25121:25125   */\n      dup2\n        /* \"#utility.yul\":25117:25137   */\n      sub\n        /* \"#utility.yul\":25113:25114   */\n      0x00\n        /* \"#utility.yul\":25102:25111   */\n      dup4\n        /* \"#utility.yul\":25098:25115   */\n      add\n        /* \"#utility.yul\":25091:25138   */\n      mstore\n        /* \"#utility.yul\":25155:25286   */\n      tag_751\n        /* \"#utility.yul\":25281:25285   */\n      dup2\n        /* \"#utility.yul\":25155:25286   */\n      tag_673\n      jump\t// in\n    tag_751:\n        /* \"#utility.yul\":25147:25286   */\n      swap1\n      pop\n        /* \"#utility.yul\":24874:25293   */\n      swap2\n      swap1\n      pop\n      jump\t// out\n        /* \"#utility.yul\":25299:25718   */\n    tag_178:\n        /* \"#utility.yul\":25465:25469   */\n      0x00\n        /* \"#utility.yul\":25503:25505   */\n      0x20\n        /* \"#utility.yul\":25492:25501   */\n      dup3\n        /* \"#utility.yul\":25488:25506   */\n      add\n        /* \"#utility.yul\":25480:25506   */\n      swap1\n      pop\n        /* \"#utility.yul\":25552:25561   */\n      dup2\n        /* \"#utility.yul\":25546:25550   */\n      dup2\n        /* \"#utility.yul\":25542:25562   */\n      sub\n        /* \"#utility.yul\":25538:25539   */\n      0x00\n        /* \"#utility.yul\":25527:25536   */\n      dup4\n        /* \"#utility.yul\":25523:25540   */\n      add\n        /* \"#utility.yul\":25516:25563   */\n      mstore\n        /* \"#utility.yul\":25580:25711   */\n      tag_753\n        /* \"#utility.yul\":25706:25710   */\n      dup2\n        /* \"#utility.yul\":25580:25711   */\n      tag_678\n      jump\t// in\n    tag_753:\n        /* \"#utility.yul\":25572:25711   */\n      swap1\n      pop\n        /* \"#utility.yul\":25299:25718   */\n      swap2\n      swap1\n      pop\n      jump\t// out\n        /* \"#utility.yul\":25724:26143   */\n    tag_302:\n        /* \"#utility.yul\":25890:25894   */\n      0x00\n        /* \"#utility.yul\":25928:25930   */\n      0x20\n        /* \"#utility.yul\":25917:25926   */\n      dup3\n        /* \"#utility.yul\":25913:25931   */\n      add\n        /* \"#utility.yul\":25905:25931   */\n      swap1\n      pop\n        /* \"#utility.yul\":25977:25986   */\n      dup2\n        /* \"#utility.yul\":25971:25975   */\n      dup2\n        /* \"#utility.yul\":25967:25987   */\n      sub\n        /* \"#utility.yul\":25963:25964   */\n      0x00\n        /* \"#utility.yul\":25952:25961   */\n      dup4\n        /* \"#utility.yul\":25948:25965   */\n      add\n        /* \"#utility.yul\":25941:25988   */\n      mstore\n        /* \"#utility.yul\":26005:26136   */\n      tag_755\n        /* \"#utility.yul\":26131:26135   */\n      dup2\n        /* \"#utility.yul\":26005:26136   */\n      tag_683\n      jump\t// in\n    tag_755:\n        /* \"#utility.yul\":25997:26136   */\n      swap1\n      pop\n        /* \"#utility.yul\":25724:26143   */\n      swap2\n      swap1\n      pop\n      jump\t// out\n        /* \"#utility.yul\":26149:26568   */\n    tag_310:\n        /* \"#utility.yul\":26315:26319   */\n      0x00\n        /* \"#utility.yul\":26353:26355   */\n      0x20\n        /* \"#utility.yul\":26342:26351   */\n      dup3\n        /* \"#utility.yul\":26338:26356   */\n      add\n        /* \"#utility.yul\":26330:26356   */\n      swap1\n      pop\n        /* \"#utility.yul\":26402:26411   */\n      dup2\n        /* \"#utility.yul\":26396:26400   */\n      dup2\n        /* \"#utility.yul\":26392:26412   */\n      sub\n        /* \"#utility.yul\":26388:26389   */\n      0x00\n        /* \"#utility.yul\":26377:26386   */\n      dup4\n        /* \"#utility.yul\":26373:26390   */\n      add\n        /* \"#utility.yul\":26366:26413   */\n      mstore\n        /* \"#utility.yul\":26430:26561   */\n      tag_757\n        /* \"#utility.yul\":26556:26560   */\n      dup2\n        /* \"#utility.yul\":26430:26561   */\n      tag_688\n      jump\t// in\n    tag_757:\n        /* \"#utility.yul\":26422:26561   */\n      swap1\n      pop\n        /* \"#utility.yul\":26149:26568   */\n      swap2\n      swap1\n      pop\n      jump\t// out\n        /* \"#utility.yul\":26574:26796   */\n    tag_48:\n        /* \"#utility.yul\":26667:26671   */\n      0x00\n        /* \"#utility.yul\":26705:26707   */\n      0x20\n        /* \"#utility.yul\":26694:26703   */\n      dup3\n        /* \"#utility.yul\":26690:26708   */\n      add\n        /* \"#utility.yul\":26682:26708   */\n      swap1\n      pop\n        /* \"#utility.yul\":26718:26789   */\n      tag_759\n        /* \"#utility.yul\":26786:26787   */\n      0x00\n        /* \"#utility.yul\":26775:26784   */\n      dup4\n        /* \"#utility.yul\":26771:26788   */\n      add\n        /* \"#utility.yul\":26762:26768   */\n      dup5\n        /* \"#utility.yul\":26718:26789   */\n      tag_693\n      jump\t// in\n    tag_759:\n        /* \"#utility.yul\":26574:26796   */\n      swap3\n      swap2\n      pop\n      pop\n      jump\t// out\n        /* \"#utility.yul\":26802:26931   */\n    tag_474:\n        /* \"#utility.yul\":26836:26842   */\n      0x00\n        /* \"#utility.yul\":26863:26883   */\n      tag_761\n      tag_762\n      jump\t// in\n    tag_761:\n        /* \"#utility.yul\":26853:26883   */\n      swap1\n      pop\n        /* \"#utility.yul\":26892:26925   */\n      tag_763\n        /* \"#utility.yul\":26920:26924   */\n      dup3\n        /* \"#utility.yul\":26912:26918   */\n      dup3\n        /* \"#utility.yul\":26892:26925   */\n      tag_764\n      jump\t// in\n    tag_763:\n        /* \"#utility.yul\":26802:26931   */\n      swap2\n      swap1\n      pop\n      jump\t// out\n        /* \"#utility.yul\":26937:27012   */\n    tag_762:\n        /* \"#utility.yul\":26970:26976   */\n      0x00\n        /* \"#utility.yul\":27003:27005   */\n      0x40\n        /* \"#utility.yul\":26997:27006   */\n      mload\n        /* \"#utility.yul\":26987:27006   */\n      swap1\n      pop\n        /* \"#utility.yul\":26937:27012   */\n      swap1\n      jump\t// out\n        /* \"#utility.yul\":27018:27329   */\n    tag_473:\n        /* \"#utility.yul\":27095:27099   */\n      0x00\n        /* \"#utility.yul\":27185:27203   */\n      0xffffffffffffffff\n        /* \"#utility.yul\":27177:27183   */\n      dup3\n        /* \"#utility.yul\":27174:27204   */\n      gt\n        /* \"#utility.yul\":27171:27227   */\n      iszero\n      tag_767\n      jumpi\n        /* \"#utility.yul\":27207:27225   */\n      tag_768\n      tag_419\n      jump\t// in\n    tag_768:\n        /* \"#utility.yul\":27171:27227   */\n    tag_767:\n        /* \"#utility.yul\":27257:27261   */\n      0x20\n        /* \"#utility.yul\":27249:27255   */\n      dup3\n        /* \"#utility.yul\":27245:27262   */\n      mul\n        /* \"#utility.yul\":27237:27262   */\n      swap1\n      pop\n        /* \"#utility.yul\":27317:27321   */\n      0x20\n        /* \"#utility.yul\":27311:27315   */\n      dup2\n        /* \"#utility.yul\":27307:27322   */\n      add\n        /* \"#utility.yul\":27299:27322   */\n      swap1\n      pop\n        /* \"#utility.yul\":27018:27329   */\n      swap2\n      swap1\n      pop\n      jump\t// out\n        /* \"#utility.yul\":27335:27646   */\n    tag_487:\n        /* \"#utility.yul\":27412:27416   */\n      0x00\n        /* \"#utility.yul\":27502:27520   */\n      0xffffffffffffffff\n        /* \"#utility.yul\":27494:27500   */\n      dup3\n        /* \"#utility.yul\":27491:27521   */\n      gt\n        /* \"#utility.yul\":27488:27544   */\n      iszero\n      tag_770\n      jumpi\n        /* \"#utility.yul\":27524:27542   */\n      tag_771\n      tag_419\n      jump\t// in\n    tag_771:\n        /* \"#utility.yul\":27488:27544   */\n    tag_770:\n        /* \"#utility.yul\":27574:27578   */\n      0x20\n        /* \"#utility.yul\":27566:27572   */\n      dup3\n        /* \"#utility.yul\":27562:27579   */\n      mul\n        /* \"#utility.yul\":27554:27579   */\n      swap1\n      pop\n        /* \"#utility.yul\":27634:27638   */\n      0x20\n        /* \"#utility.yul\":27628:27632   */\n      dup2\n        /* \"#utility.yul\":27624:27639   */\n      add\n        /* \"#utility.yul\":27616:27639   */\n      swap1\n      pop\n        /* \"#utility.yul\":27335:27646   */\n      swap2\n      swap1\n      pop\n      jump\t// out\n        /* \"#utility.yul\":27652:27750   */\n    tag_565:\n        /* \"#utility.yul\":27703:27709   */\n      0x00\n        /* \"#utility.yul\":27737:27742   */\n      dup2\n        /* \"#utility.yul\":27731:27743   */\n      mload\n        /* \"#utility.yul\":27721:27743   */\n      swap1\n      pop\n        /* \"#utility.yul\":27652:27750   */\n      swap2\n      swap1\n      pop\n      jump\t// out\n        /* \"#utility.yul\":27756:27855   */\n    tag_577:\n        /* \"#utility.yul\":27808:27814   */\n      0x00\n        /* \"#utility.yul\":27842:27847   */\n      dup2\n        /* \"#utility.yul\":27836:27848   */\n      mload\n        /* \"#utility.yul\":27826:27848   */\n      swap1\n      pop\n        /* \"#utility.yul\":27756:27855   */\n      swap2\n      swap1\n      pop\n      jump\t// out\n        /* \"#utility.yul\":27861:28008   */\n    tag_567:\n        /* \"#utility.yul\":27962:27973   */\n      0x00\n        /* \"#utility.yul\":27999:28002   */\n      dup2\n        /* \"#utility.yul\":27984:28002   */\n      swap1\n      pop\n        /* \"#utility.yul\":27861:28008   */\n      swap3\n      swap2\n      pop\n      pop\n      jump\t// out\n        /* \"#utility.yul\":28014:28183   */\n    tag_579:\n        /* \"#utility.yul\":28098:28109   */\n      0x00\n        /* \"#utility.yul\":28132:28138   */\n      dup3\n        /* \"#utility.yul\":28127:28130   */\n      dup3\n        /* \"#utility.yul\":28120:28139   */\n      mstore\n        /* \"#utility.yul\":28172:28176   */\n      0x20\n        /* \"#utility.yul\":28167:28170   */\n      dup3\n        /* \"#utility.yul\":28163:28177   */\n      add\n        /* \"#utility.yul\":28148:28177   */\n      swap1\n      pop\n        /* \"#utility.yul\":28014:28183   */\n      swap3\n      swap2\n      pop\n      pop\n      jump\t// out\n        /* \"#utility.yul\":28189:28494   */\n    tag_397:\n        /* \"#utility.yul\":28229:28232   */\n      0x00\n        /* \"#utility.yul\":28248:28268   */\n      tag_777\n        /* \"#utility.yul\":28266:28267   */\n      dup3\n        /* \"#utility.yul\":28248:28268   */\n      tag_696\n      jump\t// in\n    tag_777:\n        /* \"#utility.yul\":28243:28268   */\n      swap2\n      pop\n        /* \"#utility.yul\":28282:28302   */\n      tag_778\n        /* \"#utility.yul\":28300:28301   */\n      dup4\n        /* \"#utility.yul\":28282:28302   */\n      tag_696\n      jump\t// in\n    tag_778:\n        /* \"#utility.yul\":28277:28302   */\n      swap3\n      pop\n        /* \"#utility.yul\":28436:28437   */\n      dup3\n        /* \"#utility.yul\":28368:28434   */\n      0xffffffffffffffffffffffffffffffffffffffffffffffffffffffffffffffff\n        /* \"#utility.yul\":28364:28438   */\n      sub\n        /* \"#utility.yul\":28361:28362   */\n      dup3\n        /* \"#utility.yul\":28358:28439   */\n      gt\n        /* \"#utility.yul\":28355:28462   */\n      iszero\n      tag_779\n      jumpi\n        /* \"#utility.yul\":28442:28460   */\n      tag_780\n      tag_781\n      jump\t// in\n    tag_780:\n        /* \"#utility.yul\":28355:28462   */\n    tag_779:\n        /* \"#utility.yul\":28486:28487   */\n      dup3\n        /* \"#utility.yul\":28483:28484   */\n      dup3\n        /* \"#utility.yul\":28479:28488   */\n      add\n        /* \"#utility.yul\":28472:28488   */\n      swap1\n      pop\n        /* \"#utility.yul\":28189:28494   */\n      swap3\n      swap2\n      pop\n      pop\n      jump\t// out\n        /* \"#utility.yul\":28500:28685   */\n    tag_400:\n        /* \"#utility.yul\":28540:28541   */\n      0x00\n        /* \"#utility.yul\":28557:28577   */\n      tag_783\n        /* \"#utility.yul\":28575:28576   */\n      dup3\n        /* \"#utility.yul\":28557:28577   */\n      tag_696\n      jump\t// in\n    tag_783:\n        /* \"#utility.yul\":28552:28577   */\n      swap2\n      pop\n        /* \"#utility.yul\":28591:28611   */\n      tag_784\n        /* \"#utility.yul\":28609:28610   */\n      dup4\n        /* \"#utility.yul\":28591:28611   */\n      tag_696\n      jump\t// in\n    tag_784:\n        /* \"#utility.yul\":28586:28611   */\n      swap3\n      pop\n        /* \"#utility.yul\":28630:28631   */\n      dup3\n        /* \"#utility.yul\":28620:28655   */\n      tag_785\n      jumpi\n        /* \"#utility.yul\":28635:28653   */\n      tag_786\n      tag_787\n      jump\t// in\n    tag_786:\n        /* \"#utility.yul\":28620:28655   */\n    tag_785:\n        /* \"#utility.yul\":28677:28678   */\n      dup3\n        /* \"#utility.yul\":28674:28675   */\n      dup3\n        /* \"#utility.yul\":28670:28679   */\n      div\n        /* \"#utility.yul\":28665:28679   */\n      swap1\n      pop\n        /* \"#utility.yul\":28500:28685   */\n      swap3\n      swap2\n      pop\n      pop\n      jump\t// out\n        /* \"#utility.yul\":28691:29039   */\n    tag_279:\n        /* \"#utility.yul\":28731:28738   */\n      0x00\n        /* \"#utility.yul\":28754:28774   */\n      tag_789\n        /* \"#utility.yul\":28772:28773   */\n      dup3\n        /* \"#utility.yul\":28754:28774   */\n      tag_696\n      jump\t// in\n    tag_789:\n        /* \"#utility.yul\":28749:28774   */\n      swap2\n      pop\n        /* \"#utility.yul\":28788:28808   */\n      tag_790\n        /* \"#utility.yul\":28806:28807   */\n      dup4\n        /* \"#utility.yul\":28788:28808   */\n      tag_696\n      jump\t// in\n    tag_790:\n        /* \"#utility.yul\":28783:28808   */\n      swap3\n      pop\n        /* \"#utility.yul\":28976:28977   */\n      dup2\n        /* \"#utility.yul\":28908:28974   */\n      0xffffffffffffffffffffffffffffffffffffffffffffffffffffffffffffffff\n        /* \"#utility.yul\":28904:28978   */\n      div\n        /* \"#utility.yul\":28901:28902   */\n      dup4\n        /* \"#utility.yul\":28898:28979   */\n      gt\n        /* \"#utility.yul\":28893:28894   */\n      dup3\n        /* \"#utility.yul\":28886:28895   */\n      iszero\n        /* \"#utility.yul\":28879:28896   */\n      iszero\n        /* \"#utility.yul\":28875:28980   */\n      and\n        /* \"#utility.yul\":28872:29003   */\n      iszero\n      tag_791\n      jumpi\n        /* \"#utility.yul\":28983:29001   */\n      tag_792\n      tag_781\n      jump\t// in\n    tag_792:\n        /* \"#utility.yul\":28872:29003   */\n    tag_791:\n        /* \"#utility.yul\":29031:29032   */\n      dup3\n        /* \"#utility.yul\":29028:29029   */\n      dup3\n        /* \"#utility.yul\":29024:29033   */\n      mul\n        /* \"#utility.yul\":29013:29033   */\n      swap1\n      pop\n        /* \"#utility.yul\":28691:29039   */\n      swap3\n      swap2\n      pop\n      pop\n      jump\t// out\n        /* \"#utility.yul\":29045:29236   */\n    tag_392:\n        /* \"#utility.yul\":29085:29089   */\n      0x00\n        /* \"#utility.yul\":29105:29125   */\n      tag_794\n        /* \"#utility.yul\":29123:29124   */\n      dup3\n        /* \"#utility.yul\":29105:29125   */\n      tag_696\n      jump\t// in\n    tag_794:\n        /* \"#utility.yul\":29100:29125   */\n      swap2\n      pop\n        /* \"#utility.yul\":29139:29159   */\n      tag_795\n        /* \"#utility.yul\":29157:29158   */\n      dup4\n        /* \"#utility.yul\":29139:29159   */\n      tag_696\n      jump\t// in\n    tag_795:\n        /* \"#utility.yul\":29134:29159   */\n      swap3\n      pop\n        /* \"#utility.yul\":29178:29179   */\n      dup3\n        /* \"#utility.yul\":29175:29176   */\n      dup3\n        /* \"#utility.yul\":29172:29180   */\n      lt\n        /* \"#utility.yul\":29169:29203   */\n      iszero\n      tag_796\n      jumpi\n        /* \"#utility.yul\":29183:29201   */\n      tag_797\n      tag_781\n      jump\t// in\n    tag_797:\n        /* \"#utility.yul\":29169:29203   */\n    tag_796:\n        /* \"#utility.yul\":29228:29229   */\n      dup3\n        /* \"#utility.yul\":29225:29226   */\n      dup3\n        /* \"#utility.yul\":29221:29230   */\n      sub\n        /* \"#utility.yul\":29213:29230   */\n      swap1\n      pop\n        /* \"#utility.yul\":29045:29236   */\n      swap3\n      swap2\n      pop\n      pop\n      jump\t// out\n        /* \"#utility.yul\":29242:29338   */\n    tag_557:\n        /* \"#utility.yul\":29279:29286   */\n      0x00\n        /* \"#utility.yul\":29308:29332   */\n      tag_799\n        /* \"#utility.yul\":29326:29331   */\n      dup3\n        /* \"#utility.yul\":29308:29332   */\n      tag_800\n      jump\t// in\n    tag_799:\n        /* \"#utility.yul\":29297:29332   */\n      swap1\n      pop\n        /* \"#utility.yul\":29242:29338   */\n      swap2\n      swap1\n      pop\n      jump\t// out\n        /* \"#utility.yul\":29344:29434   */\n    tag_561:\n        /* \"#utility.yul\":29378:29385   */\n      0x00\n        /* \"#utility.yul\":29421:29426   */\n      dup2\n        /* \"#utility.yul\":29414:29427   */\n      iszero\n        /* \"#utility.yul\":29407:29428   */\n      iszero\n        /* \"#utility.yul\":29396:29428   */\n      swap1\n      pop\n        /* \"#utility.yul\":29344:29434   */\n      swap2\n      swap1\n      pop\n      jump\t// out\n        /* \"#utility.yul\":29440:29550   */\n    tag_802:\n        /* \"#utility.yul\":29491:29498   */\n      0x00\n        /* \"#utility.yul\":29520:29544   */\n      tag_804\n        /* \"#utility.yul\":29538:29543   */\n      dup3\n        /* \"#utility.yul\":29520:29544   */\n      tag_557\n      jump\t// in\n    tag_804:\n        /* \"#utility.yul\":29509:29544   */\n      swap1\n      pop\n        /* \"#utility.yul\":29440:29550   */\n      swap2\n      swap1\n      pop\n      jump\t// out\n        /* \"#utility.yul\":29556:29682   */\n    tag_800:\n        /* \"#utility.yul\":29593:29600   */\n      0x00\n        /* \"#utility.yul\":29633:29675   */\n      0xffffffffffffffffffffffffffffffffffffffff\n        /* \"#utility.yul\":29626:29631   */\n      dup3\n        /* \"#utility.yul\":29622:29676   */\n      and\n        /* \"#utility.yul\":29611:29676   */\n      swap1\n      pop\n        /* \"#utility.yul\":29556:29682   */\n      swap2\n      swap1\n      pop\n      jump\t// out\n        /* \"#utility.yul\":29688:29765   */\n    tag_696:\n        /* \"#utility.yul\":29725:29732   */\n      0x00\n        /* \"#utility.yul\":29754:29759   */\n      dup2\n        /* \"#utility.yul\":29743:29759   */\n      swap1\n      pop\n        /* \"#utility.yul\":29688:29765   */\n      swap2\n      swap1\n      pop\n      jump\t// out\n        /* \"#utility.yul\":29771:29911   */\n    tag_573:\n        /* \"#utility.yul\":29835:29844   */\n      0x00\n        /* \"#utility.yul\":29868:29905   */\n      tag_808\n        /* \"#utility.yul\":29899:29904   */\n      dup3\n        /* \"#utility.yul\":29868:29905   */\n      tag_809\n      jump\t// in\n    tag_808:\n        /* \"#utility.yul\":29855:29905   */\n      swap1\n      pop\n        /* \"#utility.yul\":29771:29911   */\n      swap2\n      swap1\n      pop\n      jump\t// out\n        /* \"#utility.yul\":29917:30043   */\n    tag_809:\n        /* \"#utility.yul\":29967:29976   */\n      0x00\n        /* \"#utility.yul\":30000:30037   */\n      tag_811\n        /* \"#utility.yul\":30031:30036   */\n      dup3\n        /* \"#utility.yul\":30000:30037   */\n      tag_812\n      jump\t// in\n    tag_811:\n        /* \"#utility.yul\":29987:30037   */\n      swap1\n      pop\n        /* \"#utility.yul\":29917:30043   */\n      swap2\n      swap1\n      pop\n      jump\t// out\n        /* \"#utility.yul\":30049:30162   */\n    tag_812:\n        /* \"#utility.yul\":30099:30108   */\n      0x00\n        /* \"#utility.yul\":30132:30156   */\n      tag_814\n        /* \"#utility.yul\":30150:30155   */\n      dup3\n        /* \"#utility.yul\":30132:30156   */\n      tag_800\n      jump\t// in\n    tag_814:\n        /* \"#utility.yul\":30119:30156   */\n      swap1\n      pop\n        /* \"#utility.yul\":30049:30162   */\n      swap2\n      swap1\n      pop\n      jump\t// out\n        /* \"#utility.yul\":30168:30475   */\n    tag_569:\n        /* \"#utility.yul\":30236:30237   */\n      0x00\n        /* \"#utility.yul\":30246:30359   */\n    tag_816:\n        /* \"#utility.yul\":30260:30266   */\n      dup4\n        /* \"#utility.yul\":30257:30258   */\n      dup2\n        /* \"#utility.yul\":30254:30267   */\n      lt\n        /* \"#utility.yul\":30246:30359   */\n      iszero\n      tag_818\n      jumpi\n        /* \"#utility.yul\":30345:30346   */\n      dup1\n        /* \"#utility.yul\":30340:30343   */\n      dup3\n        /* \"#utility.yul\":30336:30347   */\n      add\n        /* \"#utility.yul\":30330:30348   */\n      mload\n        /* \"#utility.yul\":30326:30327   */\n      dup2\n        /* \"#utility.yul\":30321:30324   */\n      dup5\n        /* \"#utility.yul\":30317:30328   */\n      add\n        /* \"#utility.yul\":30310:30349   */\n      mstore\n        /* \"#utility.yul\":30282:30284   */\n      0x20\n        /* \"#utility.yul\":30279:30280   */\n      dup2\n        /* \"#utility.yul\":30275:30285   */\n      add\n        /* \"#utility.yul\":30270:30285   */\n      swap1\n      pop\n        /* \"#utility.yul\":30246:30359   */\n      jump(tag_816)\n    tag_818:\n        /* \"#utility.yul\":30377:30383   */\n      dup4\n        /* \"#utility.yul\":30374:30375   */\n      dup2\n        /* \"#utility.yul\":30371:30384   */\n      gt\n        /* \"#utility.yul\":30368:30469   */\n      iszero\n      tag_819\n      jumpi\n        /* \"#utility.yul\":30457:30458   */\n      0x00\n        /* \"#utility.yul\":30448:30454   */\n      dup5\n        /* \"#utility.yul\":30443:30446   */\n      dup5\n        /* \"#utility.yul\":30439:30455   */\n      add\n        /* \"#utility.yul\":30432:30459   */\n      mstore\n        /* \"#utility.yul\":30368:30469   */\n    tag_819:\n        /* \"#utility.yul\":30217:30475   */\n      pop\n        /* \"#utility.yul\":30168:30475   */\n      pop\n      pop\n      pop\n      jump\t// out\n        /* \"#utility.yul\":30481:30762   */\n    tag_764:\n        /* \"#utility.yul\":30564:30591   */\n      tag_821\n        /* \"#utility.yul\":30586:30590   */\n      dup3\n        /* \"#utility.yul\":30564:30591   */\n      tag_582\n      jump\t// in\n    tag_821:\n        /* \"#utility.yul\":30556:30562   */\n      dup2\n        /* \"#utility.yul\":30552:30592   */\n      add\n        /* \"#utility.yul\":30694:30700   */\n      dup2\n        /* \"#utility.yul\":30682:30692   */\n      dup2\n        /* \"#utility.yul\":30679:30701   */\n      lt\n        /* \"#utility.yul\":30658:30676   */\n      0xffffffffffffffff\n        /* \"#utility.yul\":30646:30656   */\n      dup3\n        /* \"#utility.yul\":30643:30677   */\n      gt\n        /* \"#utility.yul\":30640:30702   */\n      or\n        /* \"#utility.yul\":30637:30725   */\n      iszero\n      tag_822\n      jumpi\n        /* \"#utility.yul\":30705:30723   */\n      tag_823\n      tag_419\n      jump\t// in\n    tag_823:\n        /* \"#utility.yul\":30637:30725   */\n    tag_822:\n        /* \"#utility.yul\":30745:30755   */\n      dup1\n        /* \"#utility.yul\":30741:30743   */\n      0x40\n        /* \"#utility.yul\":30734:30756   */\n      mstore\n        /* \"#utility.yul\":30524:30762   */\n      pop\n        /* \"#utility.yul\":30481:30762   */\n      pop\n      pop\n      jump\t// out\n        /* \"#utility.yul\":30768:31001   */\n    tag_264:\n        /* \"#utility.yul\":30807:30810   */\n      0x00\n        /* \"#utility.yul\":30830:30854   */\n      tag_825\n        /* \"#utility.yul\":30848:30853   */\n      dup3\n        /* \"#utility.yul\":30830:30854   */\n      tag_696\n      jump\t// in\n    tag_825:\n        /* \"#utility.yul\":30821:30854   */\n      swap2\n      pop\n        /* \"#utility.yul\":30876:30942   */\n      0xffffffffffffffffffffffffffffffffffffffffffffffffffffffffffffffff\n        /* \"#utility.yul\":30869:30874   */\n      dup3\n        /* \"#utility.yul\":30866:30943   */\n      eq\n        /* \"#utility.yul\":30863:30966   */\n      iszero\n      tag_826\n      jumpi\n        /* \"#utility.yul\":30946:30964   */\n      tag_827\n      tag_781\n      jump\t// in\n    tag_827:\n        /* \"#utility.yul\":30863:30966   */\n    tag_826:\n        /* \"#utility.yul\":30993:30994   */\n      0x01\n        /* \"#utility.yul\":30986:30991   */\n      dup3\n        /* \"#utility.yul\":30982:30995   */\n      add\n        /* \"#utility.yul\":30975:30995   */\n      swap1\n      pop\n        /* \"#utility.yul\":30768:31001   */\n      swap2\n      swap1\n      pop\n      jump\t// out\n        /* \"#utility.yul\":31007:31187   */\n    tag_781:\n        /* \"#utility.yul\":31055:31132   */\n      0x4e487b7100000000000000000000000000000000000000000000000000000000\n        /* \"#utility.yul\":31052:31053   */\n      0x00\n        /* \"#utility.yul\":31045:31133   */\n      mstore\n        /* \"#utility.yul\":31152:31156   */\n      0x11\n        /* \"#utility.yul\":31149:31150   */\n      0x04\n        /* \"#utility.yul\":31142:31157   */\n      mstore\n        /* \"#utility.yul\":31176:31180   */\n      0x24\n        /* \"#utility.yul\":31173:31174   */\n      0x00\n        /* \"#utility.yul\":31166:31181   */\n      revert\n        /* \"#utility.yul\":31193:31373   */\n    tag_787:\n        /* \"#utility.yul\":31241:31318   */\n      0x4e487b7100000000000000000000000000000000000000000000000000000000\n        /* \"#utility.yul\":31238:31239   */\n      0x00\n        /* \"#utility.yul\":31231:31319   */\n      mstore\n        /* \"#utility.yul\":31338:31342   */\n      0x12\n        /* \"#utility.yul\":31335:31336   */\n      0x04\n        /* \"#utility.yul\":31328:31343   */\n      mstore\n        /* \"#utility.yul\":31362:31366   */\n      0x24\n        /* \"#utility.yul\":31359:31360   */\n      0x00\n        /* \"#utility.yul\":31352:31367   */\n      revert\n        /* \"#utility.yul\":31379:31559   */\n    tag_243:\n        /* \"#utility.yul\":31427:31504   */\n      0x4e487b7100000000000000000000000000000000000000000000000000000000\n        /* \"#utility.yul\":31424:31425   */\n      0x00\n        /* \"#utility.yul\":31417:31505   */\n      mstore\n        /* \"#utility.yul\":31524:31528   */\n      0x32\n        /* \"#utility.yul\":31521:31522   */\n      0x04\n        /* \"#utility.yul\":31514:31529   */\n      mstore\n        /* \"#utility.yul\":31548:31552   */\n      0x24\n        /* \"#utility.yul\":31545:31546   */\n      0x00\n        /* \"#utility.yul\":31538:31553   */\n      revert\n        /* \"#utility.yul\":31565:31745   */\n    tag_419:\n        /* \"#utility.yul\":31613:31690   */\n      0x4e487b7100000000000000000000000000000000000000000000000000000000\n        /* \"#utility.yul\":31610:31611   */\n      0x00\n        /* \"#utility.yul\":31603:31691   */\n      mstore\n        /* \"#utility.yul\":31710:31714   */\n      0x41\n        /* \"#utility.yul\":31707:31708   */\n      0x04\n        /* \"#utility.yul\":31700:31715   */\n      mstore\n        /* \"#utility.yul\":31734:31738   */\n      0x24\n        /* \"#utility.yul\":31731:31732   */\n      0x00\n        /* \"#utility.yul\":31724:31739   */\n      revert\n        /* \"#utility.yul\":31751:31868   */\n    tag_502:\n        /* \"#utility.yul\":31860:31861   */\n      0x00\n        /* \"#utility.yul\":31857:31858   */\n      dup1\n        /* \"#utility.yul\":31850:31862   */\n      revert\n        /* \"#utility.yul\":31874:31991   */\n    tag_477:\n        /* \"#utility.yul\":31983:31984   */\n      0x00\n        /* \"#utility.yul\":31980:31981   */\n      dup1\n        /* \"#utility.yul\":31973:31985   */\n      revert\n        /* \"#utility.yul\":31997:32114   */\n    tag_533:\n        /* \"#utility.yul\":32106:32107   */\n      0x00\n        /* \"#utility.yul\":32103:32104   */\n      dup1\n        /* \"#utility.yul\":32096:32108   */\n      revert\n        /* \"#utility.yul\":32120:32237   */\n    tag_526:\n        /* \"#utility.yul\":32229:32230   */\n      0x00\n        /* \"#utility.yul\":32226:32227   */\n      dup1\n        /* \"#utility.yul\":32219:32231   */\n      revert\n        /* \"#utility.yul\":32243:32345   */\n    tag_582:\n        /* \"#utility.yul\":32284:32290   */\n      0x00\n        /* \"#utility.yul\":32335:32337   */\n      0x1f\n        /* \"#utility.yul\":32331:32338   */\n      not\n        /* \"#utility.yul\":32326:32328   */\n      0x1f\n        /* \"#utility.yul\":32319:32324   */\n      dup4\n        /* \"#utility.yul\":32315:32329   */\n      add\n        /* \"#utility.yul\":32311:32339   */\n      and\n        /* \"#utility.yul\":32301:32339   */\n      swap1\n      pop\n        /* \"#utility.yul\":32243:32345   */\n      swap2\n      swap1\n      pop\n      jump\t// out\n        /* \"#utility.yul\":32351:32591   */\n    tag_587:\n        /* \"#utility.yul\":32491:32525   */\n      0x41424f41543a64697361626c6557686974656c6973743a2057686974656c6973\n        /* \"#utility.yul\":32487:32488   */\n      0x00\n        /* \"#utility.yul\":32479:32485   */\n      dup3\n        /* \"#utility.yul\":32475:32489   */\n      add\n        /* \"#utility.yul\":32468:32526   */\n      mstore\n        /* \"#utility.yul\":32560:32583   */\n      0x7420697320616c72656164792064697361626c65640000000000000000000000\n        /* \"#utility.yul\":32555:32557   */\n      0x20\n        /* \"#utility.yul\":32547:32553   */\n      dup3\n        /* \"#utility.yul\":32543:32558   */\n      add\n        /* \"#utility.yul\":32536:32584   */\n      mstore\n        /* \"#utility.yul\":32351:32591   */\n      pop\n      jump\t// out\n        /* \"#utility.yul\":32597:32822   */\n    tag_592:\n        /* \"#utility.yul\":32737:32771   */\n      0x4f776e61626c653a206e6577206f776e657220697320746865207a65726f2061\n        /* \"#utility.yul\":32733:32734   */\n      0x00\n        /* \"#utility.yul\":32725:32731   */\n      dup3\n        /* \"#utility.yul\":32721:32735   */\n      add\n        /* \"#utility.yul\":32714:32772   */\n      mstore\n        /* \"#utility.yul\":32806:32814   */\n      0x6464726573730000000000000000000000000000000000000000000000000000\n        /* \"#utility.yul\":32801:32803   */\n      0x20\n        /* \"#utility.yul\":32793:32799   */\n      dup3\n        /* \"#utility.yul\":32789:32804   */\n      add\n        /* \"#utility.yul\":32782:32815   */\n      mstore\n        /* \"#utility.yul\":32597:32822   */\n      pop\n      jump\t// out\n        /* \"#utility.yul\":32828:33072   */\n    tag_597:\n        /* \"#utility.yul\":32968:33002   */\n      0x41424f41543a3a6275793a20416d6f756e7420776f756c642065786365656420\n        /* \"#utility.yul\":32964:32965   */\n      0x00\n        /* \"#utility.yul\":32956:32962   */\n      dup3\n        /* \"#utility.yul\":32952:32966   */\n      add\n        /* \"#utility.yul\":32945:33003   */\n      mstore\n        /* \"#utility.yul\":33037:33064   */\n      0x746865206d6178696d756d20616c6c6f776564206c696d697400000000000000\n        /* \"#utility.yul\":33032:33034   */\n      0x20\n        /* \"#utility.yul\":33024:33030   */\n      dup3\n        /* \"#utility.yul\":33020:33035   */\n      add\n        /* \"#utility.yul\":33013:33065   */\n      mstore\n        /* \"#utility.yul\":32828:33072   */\n      pop\n      jump\t// out\n        /* \"#utility.yul\":33078:33317   */\n    tag_602:\n        /* \"#utility.yul\":33218:33252   */\n      0x5472616e7366657248656c7065723a3a736166655472616e736665724554483a\n        /* \"#utility.yul\":33214:33215   */\n      0x00\n        /* \"#utility.yul\":33206:33212   */\n      dup3\n        /* \"#utility.yul\":33202:33216   */\n      add\n        /* \"#utility.yul\":33195:33253   */\n      mstore\n        /* \"#utility.yul\":33287:33309   */\n      0x20455448207472616e73666572206661696c6564000000000000000000000000\n        /* \"#utility.yul\":33282:33284   */\n      0x20\n        /* \"#utility.yul\":33274:33280   */\n      dup3\n        /* \"#utility.yul\":33270:33285   */\n      add\n        /* \"#utility.yul\":33263:33310   */\n      mstore\n        /* \"#utility.yul\":33078:33317   */\n      pop\n      jump\t// out\n        /* \"#utility.yul\":33323:33551   */\n    tag_607:\n        /* \"#utility.yul\":33463:33497   */\n      0x41424f41543a3a636c61696d3a20436c61696d206973206e6f7420617661696c\n        /* \"#utility.yul\":33459:33460   */\n      0x00\n        /* \"#utility.yul\":33451:33457   */\n      dup3\n        /* \"#utility.yul\":33447:33461   */\n      add\n        /* \"#utility.yul\":33440:33498   */\n      mstore\n        /* \"#utility.yul\":33532:33543   */\n      0x61626c65207965742e0000000000000000000000000000000000000000000000\n        /* \"#utility.yul\":33527:33529   */\n      0x20\n        /* \"#utility.yul\":33519:33525   */\n      dup3\n        /* \"#utility.yul\":33515:33530   */\n      add\n        /* \"#utility.yul\":33508:33544   */\n      mstore\n        /* \"#utility.yul\":33323:33551   */\n      pop\n      jump\t// out\n        /* \"#utility.yul\":33557:33804   */\n    tag_612:\n        /* \"#utility.yul\":33697:33731   */\n      0x41424f41543a3a636c61696d3a20416c726561647920636c61696d656420796f\n        /* \"#utility.yul\":33693:33694   */\n      0x00\n        /* \"#utility.yul\":33685:33691   */\n      dup3\n        /* \"#utility.yul\":33681:33695   */\n      add\n        /* \"#utility.yul\":33674:33732   */\n      mstore\n        /* \"#utility.yul\":33766:33796   */\n      0x75722063757272656e746c7920656c696769626c6520746f6b656e7300000000\n        /* \"#utility.yul\":33761:33763   */\n      0x20\n        /* \"#utility.yul\":33753:33759   */\n      dup3\n        /* \"#utility.yul\":33749:33764   */\n      add\n        /* \"#utility.yul\":33742:33797   */\n      mstore\n        /* \"#utility.yul\":33557:33804   */\n      pop\n      jump\t// out\n        /* \"#utility.yul\":33810:34035   */\n    tag_617:\n        /* \"#utility.yul\":33950:33984   */\n      0x416464726573733a20696e73756666696369656e742062616c616e636520666f\n        /* \"#utility.yul\":33946:33947   */\n      0x00\n        /* \"#utility.yul\":33938:33944   */\n      dup3\n        /* \"#utility.yul\":33934:33948   */\n      add\n        /* \"#utility.yul\":33927:33985   */\n      mstore\n        /* \"#utility.yul\":34019:34027   */\n      0x722063616c6c0000000000000000000000000000000000000000000000000000\n        /* \"#utility.yul\":34014:34016   */\n      0x20\n        /* \"#utility.yul\":34006:34012   */\n      dup3\n        /* \"#utility.yul\":34002:34017   */\n      add\n        /* \"#utility.yul\":33995:34028   */\n      mstore\n        /* \"#utility.yul\":33810:34035   */\n      pop\n      jump\t// out\n        /* \"#utility.yul\":34041:34277   */\n    tag_622:\n        /* \"#utility.yul\":34181:34215   */\n      0x41424f41543a3a6275793a20596f75277265206e6f742077686974656c697374\n        /* \"#utility.yul\":34177:34178   */\n      0x00\n        /* \"#utility.yul\":34169:34175   */\n      dup3\n        /* \"#utility.yul\":34165:34179   */\n      add\n        /* \"#utility.yul\":34158:34216   */\n      mstore\n        /* \"#utility.yul\":34250:34269   */\n      0x656420666f7220746869732073616c6521000000000000000000000000000000\n        /* \"#utility.yul\":34245:34247   */\n      0x20\n        /* \"#utility.yul\":34237:34243   */\n      dup3\n        /* \"#utility.yul\":34233:34248   */\n      add\n        /* \"#utility.yul\":34226:34270   */\n      mstore\n        /* \"#utility.yul\":34041:34277   */\n      pop\n      jump\t// out\n        /* \"#utility.yul\":34283:34579   */\n    tag_627:\n        /* \"#utility.yul\":34423:34457   */\n      0x41424f41543a3a77686974656c6973743a20596f752063616e27742061646420\n        /* \"#utility.yul\":34419:34420   */\n      0x00\n        /* \"#utility.yul\":34411:34417   */\n      dup3\n        /* \"#utility.yul\":34407:34421   */\n      add\n        /* \"#utility.yul\":34400:34458   */\n      mstore\n        /* \"#utility.yul\":34492:34526   */\n      0x6d6f7265207468616e2031303020616464726573736573206174207468652073\n        /* \"#utility.yul\":34487:34489   */\n      0x20\n        /* \"#utility.yul\":34479:34485   */\n      dup3\n        /* \"#utility.yul\":34475:34490   */\n      add\n        /* \"#utility.yul\":34468:34527   */\n      mstore\n        /* \"#utility.yul\":34561:34571   */\n      0x616d652074696d65000000000000000000000000000000000000000000000000\n        /* \"#utility.yul\":34556:34558   */\n      0x40\n        /* \"#utility.yul\":34548:34554   */\n      dup3\n        /* \"#utility.yul\":34544:34559   */\n      add\n        /* \"#utility.yul\":34537:34572   */\n      mstore\n        /* \"#utility.yul\":34283:34579   */\n      pop\n      jump\t// out\n        /* \"#utility.yul\":34585:34879   */\n    tag_632:\n        /* \"#utility.yul\":34725:34759   */\n      0x41424f41543a3a757064617465526577617264546f6b656e3a204e6577207265\n        /* \"#utility.yul\":34721:34722   */\n      0x00\n        /* \"#utility.yul\":34713:34719   */\n      dup3\n        /* \"#utility.yul\":34709:34723   */\n      add\n        /* \"#utility.yul\":34702:34760   */\n      mstore\n        /* \"#utility.yul\":34794:34828   */\n      0x776172642073686f756c6420626520646966666572656e742066726f6d206375\n        /* \"#utility.yul\":34789:34791   */\n      0x20\n        /* \"#utility.yul\":34781:34787   */\n      dup3\n        /* \"#utility.yul\":34777:34792   */\n      add\n        /* \"#utility.yul\":34770:34829   */\n      mstore\n        /* \"#utility.yul\":34863:34871   */\n      0x7272656e742e0000000000000000000000000000000000000000000000000000\n        /* \"#utility.yul\":34858:34860   */\n      0x40\n        /* \"#utility.yul\":34850:34856   */\n      dup3\n        /* \"#utility.yul\":34846:34861   */\n      add\n        /* \"#utility.yul\":34839:34872   */\n      mstore\n        /* \"#utility.yul\":34585:34879   */\n      pop\n      jump\t// out\n        /* \"#utility.yul\":34885:35202   */\n    tag_637:\n        /* \"#utility.yul\":35025:35059   */\n      0x41424f41543a3a636c61696d3a205468652070657263656e74616765206f6620\n        /* \"#utility.yul\":35021:35022   */\n      0x00\n        /* \"#utility.yul\":35013:35019   */\n      dup3\n        /* \"#utility.yul\":35009:35023   */\n      add\n        /* \"#utility.yul\":35002:35060   */\n      mstore\n        /* \"#utility.yul\":35094:35128   */\n      0x746f6b656e20796f752063616e20636c61696d2069732063757272656e746c79\n        /* \"#utility.yul\":35089:35091   */\n      0x20\n        /* \"#utility.yul\":35081:35087   */\n      dup3\n        /* \"#utility.yul\":35077:35092   */\n      add\n        /* \"#utility.yul\":35070:35129   */\n      mstore\n        /* \"#utility.yul\":35163:35194   */\n      0x207a65726f2e20506c656173652074727920616761696e206c61746572000000\n        /* \"#utility.yul\":35158:35160   */\n      0x40\n        /* \"#utility.yul\":35150:35156   */\n      dup3\n        /* \"#utility.yul\":35146:35161   */\n      add\n        /* \"#utility.yul\":35139:35195   */\n      mstore\n        /* \"#utility.yul\":34885:35202   */\n      pop\n      jump\t// out\n        /* \"#utility.yul\":35208:35588   */\n    tag_642:\n        /* \"#utility.yul\":35348:35382   */\n      0x41424f41543a3a757064617465526577617264546f6b656e3a2054686520636f\n        /* \"#utility.yul\":35344:35345   */\n      0x00\n        /* \"#utility.yul\":35336:35342   */\n      dup3\n        /* \"#utility.yul\":35332:35346   */\n      add\n        /* \"#utility.yul\":35325:35383   */\n      mstore\n        /* \"#utility.yul\":35417:35451   */\n      0x6e74726163742073686f756c6420636f6e7461696e2061746c65617374207468\n        /* \"#utility.yul\":35412:35414   */\n      0x20\n        /* \"#utility.yul\":35404:35410   */\n      dup3\n        /* \"#utility.yul\":35400:35415   */\n      add\n        /* \"#utility.yul\":35393:35452   */\n      mstore\n        /* \"#utility.yul\":35486:35520   */\n      0x652073616d6520616d6f756e74206f6620746f6b656e732061732066726f6d20\n        /* \"#utility.yul\":35481:35483   */\n      0x40\n        /* \"#utility.yul\":35473:35479   */\n      dup3\n        /* \"#utility.yul\":35469:35484   */\n      add\n        /* \"#utility.yul\":35462:35521   */\n      mstore\n        /* \"#utility.yul\":35555:35580   */\n      0x7468652063757272656e7420726577617264546f6b656e000000000000000000\n        /* \"#utility.yul\":35550:35552   */\n      0x60\n        /* \"#utility.yul\":35542:35548   */\n      dup3\n        /* \"#utility.yul\":35538:35553   */\n      add\n        /* \"#utility.yul\":35531:35581   */\n      mstore\n        /* \"#utility.yul\":35208:35588   */\n      pop\n      jump\t// out\n        /* \"#utility.yul\":35594:35776   */\n    tag_647:\n        /* \"#utility.yul\":35734:35768   */\n      0x4f776e61626c653a2063616c6c6572206973206e6f7420746865206f776e6572\n        /* \"#utility.yul\":35730:35731   */\n      0x00\n        /* \"#utility.yul\":35722:35728   */\n      dup3\n        /* \"#utility.yul\":35718:35732   */\n      add\n        /* \"#utility.yul\":35711:35769   */\n      mstore\n        /* \"#utility.yul\":35594:35776   */\n      pop\n      jump\t// out\n        /* \"#utility.yul\":35782:36022   */\n    tag_652:\n        /* \"#utility.yul\":35922:35956   */\n      0x41424f41543a3a6275793a20416d6f756e7420776f756c642065786365656420\n        /* \"#utility.yul\":35918:35919   */\n      0x00\n        /* \"#utility.yul\":35910:35916   */\n      dup3\n        /* \"#utility.yul\":35906:35920   */\n      add\n        /* \"#utility.yul\":35899:35957   */\n      mstore\n        /* \"#utility.yul\":35991:36014   */\n      0x7468652072656d61696e696e672062616c616e63650000000000000000000000\n        /* \"#utility.yul\":35986:35988   */\n      0x20\n        /* \"#utility.yul\":35978:35984   */\n      dup3\n        /* \"#utility.yul\":35974:35989   */\n      add\n        /* \"#utility.yul\":35967:36015   */\n      mstore\n        /* \"#utility.yul\":35782:36022   */\n      pop\n      jump\t// out\n        /* \"#utility.yul\":36028:36207   */\n    tag_657:\n        /* \"#utility.yul\":36168:36199   */\n      0x416464726573733a2063616c6c20746f206e6f6e2d636f6e7472616374000000\n        /* \"#utility.yul\":36164:36165   */\n      0x00\n        /* \"#utility.yul\":36156:36162   */\n      dup3\n        /* \"#utility.yul\":36152:36166   */\n      add\n        /* \"#utility.yul\":36145:36200   */\n      mstore\n        /* \"#utility.yul\":36028:36207   */\n      pop\n      jump\t// out\n        /* \"#utility.yul\":36213:36435   */\n    tag_662:\n        /* \"#utility.yul\":36353:36387   */\n      0x41424f41543a3a636c61696d3a2053616c65206973206e6f74206f7665722079\n        /* \"#utility.yul\":36349:36350   */\n      0x00\n        /* \"#utility.yul\":36341:36347   */\n      dup3\n        /* \"#utility.yul\":36337:36351   */\n      add\n        /* \"#utility.yul\":36330:36388   */\n      mstore\n        /* \"#utility.yul\":36422:36427   */\n      0x6574210000000000000000000000000000000000000000000000000000000000\n        /* \"#utility.yul\":36417:36419   */\n      0x20\n        /* \"#utility.yul\":36409:36415   */\n      dup3\n        /* \"#utility.yul\":36405:36420   */\n      add\n        /* \"#utility.yul\":36398:36428   */\n      mstore\n        /* \"#utility.yul\":36213:36435   */\n      pop\n      jump\t// out\n        /* \"#utility.yul\":36441:36673   */\n    tag_667:\n        /* \"#utility.yul\":36581:36615   */\n      0x5472616e7366657248656c7065723a3a736166655472616e736665723a207472\n        /* \"#utility.yul\":36577:36578   */\n      0x00\n        /* \"#utility.yul\":36569:36575   */\n      dup3\n        /* \"#utility.yul\":36565:36579   */\n      add\n        /* \"#utility.yul\":36558:36616   */\n      mstore\n        /* \"#utility.yul\":36650:36665   */\n      0x616e73666572206661696c656400000000000000000000000000000000000000\n        /* \"#utility.yul\":36645:36647   */\n      0x20\n        /* \"#utility.yul\":36637:36643   */\n      dup3\n        /* \"#utility.yul\":36633:36648   */\n      add\n        /* \"#utility.yul\":36626:36666   */\n      mstore\n        /* \"#utility.yul\":36441:36673   */\n      pop\n      jump\t// out\n        /* \"#utility.yul\":36679:36908   */\n    tag_672:\n        /* \"#utility.yul\":36819:36853   */\n      0x41424f41543a3a636c61696d416e64456e6453616c653a2053616c6520616c72\n        /* \"#utility.yul\":36815:36816   */\n      0x00\n        /* \"#utility.yul\":36807:36813   */\n      dup3\n        /* \"#utility.yul\":36803:36817   */\n      add\n        /* \"#utility.yul\":36796:36854   */\n      mstore\n        /* \"#utility.yul\":36888:36900   */\n      0x6561647920656e64656400000000000000000000000000000000000000000000\n        /* \"#utility.yul\":36883:36885   */\n      0x20\n        /* \"#utility.yul\":36875:36881   */\n      dup3\n        /* \"#utility.yul\":36871:36886   */\n      add\n        /* \"#utility.yul\":36864:36901   */\n      mstore\n        /* \"#utility.yul\":36679:36908   */\n      pop\n      jump\t// out\n        /* \"#utility.yul\":36914:37143   */\n    tag_677:\n        /* \"#utility.yul\":37054:37088   */\n      0x5361666545524332303a204552433230206f7065726174696f6e20646964206e\n        /* \"#utility.yul\":37050:37051   */\n      0x00\n        /* \"#utility.yul\":37042:37048   */\n      dup3\n        /* \"#utility.yul\":37038:37052   */\n      add\n        /* \"#utility.yul\":37031:37089   */\n      mstore\n        /* \"#utility.yul\":37123:37135   */\n      0x6f74207375636365656400000000000000000000000000000000000000000000\n        /* \"#utility.yul\":37118:37120   */\n      0x20\n        /* \"#utility.yul\":37110:37116   */\n      dup3\n        /* \"#utility.yul\":37106:37121   */\n      add\n        /* \"#utility.yul\":37099:37136   */\n      mstore\n        /* \"#utility.yul\":36914:37143   */\n      pop\n      jump\t// out\n        /* \"#utility.yul\":37149:37374   */\n    tag_682:\n        /* \"#utility.yul\":37289:37323   */\n      0x41424f41543a3a7570646174654166746572446179733a2053616c65206e6f74\n        /* \"#utility.yul\":37285:37286   */\n      0x00\n        /* \"#utility.yul\":37277:37283   */\n      dup3\n        /* \"#utility.yul\":37273:37287   */\n      add\n        /* \"#utility.yul\":37266:37324   */\n      mstore\n        /* \"#utility.yul\":37358:37366   */\n      0x20656e6465640000000000000000000000000000000000000000000000000000\n        /* \"#utility.yul\":37353:37355   */\n      0x20\n        /* \"#utility.yul\":37345:37351   */\n      dup3\n        /* \"#utility.yul\":37341:37356   */\n      add\n        /* \"#utility.yul\":37334:37367   */\n      mstore\n        /* \"#utility.yul\":37149:37374   */\n      pop\n      jump\t// out\n        /* \"#utility.yul\":37380:37561   */\n    tag_687:\n        /* \"#utility.yul\":37520:37553   */\n      0x41424f41543a3a6275793a2053616c6520616c726561647920656e6465642100\n        /* \"#utility.yul\":37516:37517   */\n      0x00\n        /* \"#utility.yul\":37508:37514   */\n      dup3\n        /* \"#utility.yul\":37504:37518   */\n      add\n        /* \"#utility.yul\":37497:37554   */\n      mstore\n        /* \"#utility.yul\":37380:37561   */\n      pop\n      jump\t// out\n        /* \"#utility.yul\":37567:37806   */\n    tag_692:\n        /* \"#utility.yul\":37707:37741   */\n      0x41424f41543a3a6275793a2053656e742076616c756520646f65736e2774206d\n        /* \"#utility.yul\":37703:37704   */\n      0x00\n        /* \"#utility.yul\":37695:37701   */\n      dup3\n        /* \"#utility.yul\":37691:37705   */\n      add\n        /* \"#utility.yul\":37684:37742   */\n      mstore\n        /* \"#utility.yul\":37776:37798   */\n      0x6565742074686520676976656e20616d6f756e74000000000000000000000000\n        /* \"#utility.yul\":37771:37773   */\n      0x20\n        /* \"#utility.yul\":37763:37769   */\n      dup3\n        /* \"#utility.yul\":37759:37774   */\n      add\n        /* \"#utility.yul\":37752:37799   */\n      mstore\n        /* \"#utility.yul\":37567:37806   */\n      pop\n      jump\t// out\n        /* \"#utility.yul\":37812:37934   */\n    tag_497:\n        /* \"#utility.yul\":37885:37909   */\n      tag_860\n        /* \"#utility.yul\":37903:37908   */\n      dup2\n        /* \"#utility.yul\":37885:37909   */\n      tag_557\n      jump\t// in\n    tag_860:\n        /* \"#utility.yul\":37878:37883   */\n      dup2\n        /* \"#utility.yul\":37875:37910   */\n      eq\n        /* \"#utility.yul\":37865:37928   */\n      tag_861\n      jumpi\n        /* \"#utility.yul\":37924:37925   */\n      0x00\n        /* \"#utility.yul\":37921:37922   */\n      dup1\n        /* \"#utility.yul\":37914:37926   */\n      revert\n        /* \"#utility.yul\":37865:37928   */\n    tag_861:\n        /* \"#utility.yul\":37812:37934   */\n      pop\n      jump\t// out\n        /* \"#utility.yul\":37940:38056   */\n    tag_512:\n        /* \"#utility.yul\":38010:38031   */\n      tag_863\n        /* \"#utility.yul\":38025:38030   */\n      dup2\n        /* \"#utility.yul\":38010:38031   */\n      tag_561\n      jump\t// in\n    tag_863:\n        /* \"#utility.yul\":38003:38008   */\n      dup2\n        /* \"#utility.yul\":38000:38032   */\n      eq\n        /* \"#utility.yul\":37990:38050   */\n      tag_864\n      jumpi\n        /* \"#utility.yul\":38046:38047   */\n      0x00\n        /* \"#utility.yul\":38043:38044   */\n      dup1\n        /* \"#utility.yul\":38036:38048   */\n      revert\n        /* \"#utility.yul\":37990:38050   */\n    tag_864:\n        /* \"#utility.yul\":37940:38056   */\n      pop\n      jump\t// out\n        /* \"#utility.yul\":38062:38212   */\n    tag_516:\n        /* \"#utility.yul\":38149:38187   */\n      tag_866\n        /* \"#utility.yul\":38181:38186   */\n      dup2\n        /* \"#utility.yul\":38149:38187   */\n      tag_802\n      jump\t// in\n    tag_866:\n        /* \"#utility.yul\":38142:38147   */\n      dup2\n        /* \"#utility.yul\":38139:38188   */\n      eq\n        /* \"#utility.yul\":38129:38206   */\n      tag_867\n      jumpi\n        /* \"#utility.yul\":38202:38203   */\n      0x00\n        /* \"#utility.yul\":38199:38200   */\n      dup1\n        /* \"#utility.yul\":38192:38204   */\n      revert\n        /* \"#utility.yul\":38129:38206   */\n    tag_867:\n        /* \"#utility.yul\":38062:38212   */\n      pop\n      jump\t// out\n        /* \"#utility.yul\":38218:38340   */\n    tag_519:\n        /* \"#utility.yul\":38291:38315   */\n      tag_869\n        /* \"#utility.yul\":38309:38314   */\n      dup2\n        /* \"#utility.yul\":38291:38315   */\n      tag_696\n      jump\t// in\n    tag_869:\n        /* \"#utility.yul\":38284:38289   */\n      dup2\n        /* \"#utility.yul\":38281:38316   */\n      eq\n        /* \"#utility.yul\":38271:38334   */\n      tag_870\n      jumpi\n        /* \"#utility.yul\":38330:38331   */\n      0x00\n        /* \"#utility.yul\":38327:38328   */\n      dup1\n        /* \"#utility.yul\":38320:38332   */\n      revert\n        /* \"#utility.yul\":38271:38334   */\n    tag_870:\n        /* \"#utility.yul\":38218:38340   */\n      pop\n      jump\t// out\n\n    auxdata: 0xa264697066735822122066ed43e52ceedaa0b31e1578775c998a76b17af0ea69e5b0490a7e89a69908f364736f6c63430008070033\n}\n",
				"bytecode": {
					"linkReferences": {},
					"object": "608060405260006007556001600960006101000a81548160ff0219169083151502179055503480156200003157600080fd5b506040516200455c3803806200455c833981810160405281019062000057919062000259565b620000776200006b6200015f60201b60201c565b6200016760201b60201c565b60008111620000bd576040517f08c379a0000000000000000000000000000000000000000000000000000000008152600401620000b49062000308565b60405180910390fd5b84600160006101000a81548173ffffffffffffffffffffffffffffffffffffffff021916908373ffffffffffffffffffffffffffffffffffffffff16021790555083600260006101000a81548173ffffffffffffffffffffffffffffffffffffffff021916908373ffffffffffffffffffffffffffffffffffffffff160217905550826004819055508160058190555080600381905550505050505062000415565b600033905090565b60008060009054906101000a900473ffffffffffffffffffffffffffffffffffffffff169050816000806101000a81548173ffffffffffffffffffffffffffffffffffffffff021916908373ffffffffffffffffffffffffffffffffffffffff1602179055508173ffffffffffffffffffffffffffffffffffffffff168173ffffffffffffffffffffffffffffffffffffffff167f8be0079c531659141344cd1fd0a4f28419497f9722a3daafe3b4186f6b6457e060405160405180910390a35050565b6000815190506200023c81620003e1565b92915050565b6000815190506200025381620003fb565b92915050565b600080600080600060a086880312156200027857620002776200038d565b5b600062000288888289016200022b565b95505060206200029b888289016200022b565b9450506040620002ae8882890162000242565b9350506060620002c18882890162000242565b9250506080620002d48882890162000242565b9150509295509295909350565b6000620002f0602e836200032a565b9150620002fd8262000392565b604082019050919050565b600060208201905081810360008301526200032381620002e1565b9050919050565b600082825260208201905092915050565b6000620003488262000363565b9050919050565b60006200035c826200033b565b9050919050565b600073ffffffffffffffffffffffffffffffffffffffff82169050919050565b6000819050919050565b600080fd5b7f41424f41543a3a6572726f723a2050726963652068617320746f20626520686960008201527f67686572207468616e207a65726f000000000000000000000000000000000000602082015250565b620003ec816200034f565b8114620003f857600080fd5b50565b620004068162000383565b81146200041257600080fd5b50565b61413780620004256000396000f3fe6080604052600436106101cd5760003560e01c8063a4d66daf116100f7578063e754e7c411610095578063f3739e0511610064578063f3739e0514610625578063f7c618c114610662578063f89be5931461068d578063f8cf31cb146106b8576101cd565b8063e754e7c41461057d578063ef78d4fd146105a8578063efe95f51146105d3578063f2fde38b146105fc576101cd565b8063c884ef83116100d1578063c884ef83146104d0578063d6b0f4841461050d578063d936547e14610524578063d96a094a14610561576101cd565b8063a4d66daf1461043d578063a5ebf83514610468578063a960c65f14610493576101cd565b80635ed9ebfc1161016f578063856734c41161013e578063856734c4146103915780638da5cb5b146103bc5780639b8906ae146103e75780639c92431b14610412576101cd565b80635ed9ebfc146102e7578063667022fd14610312578063715018a61461034f5780637b1b1de614610366576101cd565b80632fba2c85116101ab5780632fba2c85146102515780633013ce291461027c5780634e71d92d146102a75780635372a58e146102be576101cd565b80630c0e0862146101d2578063151bad0a146101fb5780632f66194614610226575b600080fd5b3480156101de57600080fd5b506101f960048036038101906101f49190612de6565b6106e1565b005b34801561020757600080fd5b506102106107ad565b60405161021d9190613592565b60405180910390f35b34801561023257600080fd5b5061023b6107b2565b6040516102489190613592565b60405180910390f35b34801561025d57600080fd5b506102666107b7565b6040516102739190613592565b60405180910390f35b34801561028857600080fd5b506102916108f0565b60405161029e9190613295565b60405180910390f35b3480156102b357600080fd5b506102bc610916565b005b3480156102ca57600080fd5b506102e560048036038101906102e09190612d14565b611107565b005b3480156102f357600080fd5b506102fc611505565b6040516103099190613592565b60405180910390f35b34801561031e57600080fd5b5061033960048036038101906103349190612ce7565b61150b565b6040516103469190613592565b60405180910390f35b34801561035b57600080fd5b50610364611523565b005b34801561037257600080fd5b5061037b6115ab565b6040516103889190613592565b60405180910390f35b34801561039d57600080fd5b506103a66115b1565b6040516103b3919061327a565b60405180910390f35b3480156103c857600080fd5b506103d16115c4565b6040516103de91906131ff565b60405180910390f35b3480156103f357600080fd5b506103fc6115ed565b6040516104099190613592565b60405180910390f35b34801561041e57600080fd5b506104276115f3565b6040516104349190613592565b60405180910390f35b34801561044957600080fd5b506104526116ca565b60405161045f9190613592565b60405180910390f35b34801561047457600080fd5b5061047d6116d0565b60405161048a9190613592565b60405180910390f35b34801561049f57600080fd5b506104ba60048036038101906104b59190612ce7565b6116d5565b6040516104c79190613592565b60405180910390f35b3480156104dc57600080fd5b506104f760048036038101906104f29190612ce7565b6116ed565b6040516105049190613592565b60405180910390f35b34801561051957600080fd5b50610522611705565b005b34801561053057600080fd5b5061054b60048036038101906105469190612ce7565b6117ed565b604051610558919061327a565b60405180910390f35b61057b60048036038101906105769190612de6565b61180d565b005b34801561058957600080fd5b50610592611ca9565b60405161059f9190613592565b60405180910390f35b3480156105b457600080fd5b506105bd611caf565b6040516105ca9190613592565b60405180910390f35b3480156105df57600080fd5b506105fa60048036038101906105f59190612de6565b611cb4565b005b34801561060857600080fd5b50610623600480360381019061061e9190612ce7565b612071565b005b34801561063157600080fd5b5061064c60048036038101906106479190612ce7565b612169565b60405161065991906131ff565b60405180910390f35b34801561066e57600080fd5b5061067761219c565b6040516106849190613295565b60405180910390f35b34801561069957600080fd5b506106a26121c2565b6040516106af9190613592565b60405180910390f35b3480156106c457600080fd5b506106df60048036038101906106da9190612db9565b6121c8565b005b6106e96124f2565b73ffffffffffffffffffffffffffffffffffffffff166107076115c4565b73ffffffffffffffffffffffffffffffffffffffff161461075d576040517f08c379a000000000000000000000000000000000000000000000000000000000815260040161075490613452565b60405180910390fd5b600060075414156107a3576040517f08c379a000000000000000000000000000000000000000000000000000000000815260040161079a90613532565b60405180910390fd5b8060088190555050565b603281565b605a81565b60008073ffffffffffffffffffffffffffffffffffffffff16600160009054906101000a900473ffffffffffffffffffffffffffffffffffffffff1673ffffffffffffffffffffffffffffffffffffffff16141561082b57610824600654476124fa90919063ffffffff16565b90506108ed565b6108ea600654600160009054906101000a900473ffffffffffffffffffffffffffffffffffffffff1673ffffffffffffffffffffffffffffffffffffffff166370a08231306040518263ffffffff1660e01b815260040161088c91906131ff565b60206040518083038186803b1580156108a457600080fd5b505afa1580156108b8573d6000803e3d6000fd5b505050506040513d601f19601f820116820180604052508101906108dc9190612e13565b6124fa90919063ffffffff16565b90505b90565b600260009054906101000a900473ffffffffffffffffffffffffffffffffffffffff1681565b6000600754141561095c576040517f08c379a0000000000000000000000000000000000000000000000000000000008152600401610953906134b2565b60405180910390fd5b6109886109776201518060085461251090919063ffffffff16565b60075461252690919063ffffffff16565b4210156109ca576040517f08c379a00000000000000000000000000000000000000000000000000000000081526004016109c190613352565b60405180910390fd5b60006109d46115f3565b905060008111610a19576040517f08c379a0000000000000000000000000000000000000000000000000000000008152600401610a1090613412565b60405180910390fd5b600160009054906101000a900473ffffffffffffffffffffffffffffffffffffffff1673ffffffffffffffffffffffffffffffffffffffff16600e60003373ffffffffffffffffffffffffffffffffffffffff1673ffffffffffffffffffffffffffffffffffffffff16815260200190815260200160002060009054906101000a900473ffffffffffffffffffffffffffffffffffffffff1673ffffffffffffffffffffffffffffffffffffffff1614610bf857600160009054906101000a900473ffffffffffffffffffffffffffffffffffffffff16600e60003373ffffffffffffffffffffffffffffffffffffffff1673ffffffffffffffffffffffffffffffffffffffff16815260200190815260200160002060006101000a81548173ffffffffffffffffffffffffffffffffffffffff021916908373ffffffffffffffffffffffffffffffffffffffff1602179055506000600c60003373ffffffffffffffffffffffffffffffffffffffff1673ffffffffffffffffffffffffffffffffffffffff168152602001908152602001600020819055506000600d60003373ffffffffffffffffffffffffffffffffffffffff1673ffffffffffffffffffffffffffffffffffffffff168152602001908152602001600020819055505b80600c60003373ffffffffffffffffffffffffffffffffffffffff1673ffffffffffffffffffffffffffffffffffffffff1681526020019081526020016000205410610c79576040517f08c379a0000000000000000000000000000000000000000000000000000000008152600401610c7090613372565b60405180910390fd5b60065460055411610f29576000600c60003373ffffffffffffffffffffffffffffffffffffffff1673ffffffffffffffffffffffffffffffffffffffff16815260200190815260200160002054905081600c60003373ffffffffffffffffffffffffffffffffffffffff1673ffffffffffffffffffffffffffffffffffffffff168152602001908152602001600020819055506000610db4600354610da6670de0b6b3a7640000610d986103e8610d8a610d3c898b6124fa90919063ffffffff16565b600b60003373ffffffffffffffffffffffffffffffffffffffff1673ffffffffffffffffffffffffffffffffffffffff1681526020019081526020016000205461251090919063ffffffff16565b61253c90919063ffffffff16565b61251090919063ffffffff16565b61253c90919063ffffffff16565b9050610e0881600d60003373ffffffffffffffffffffffffffffffffffffffff1673ffffffffffffffffffffffffffffffffffffffff1681526020019081526020016000205461252690919063ffffffff16565b600d60003373ffffffffffffffffffffffffffffffffffffffff1673ffffffffffffffffffffffffffffffffffffffff16815260200190815260200160002081905550600073ffffffffffffffffffffffffffffffffffffffff16600160009054906101000a900473ffffffffffffffffffffffffffffffffffffffff1673ffffffffffffffffffffffffffffffffffffffff1614610ed357610ece600160009054906101000a900473ffffffffffffffffffffffffffffffffffffffff163383612552565b610ede565b610edd3382612688565b5b803373ffffffffffffffffffffffffffffffffffffffff167fd8138f8a3f377c5259ca548e70e4c2de94f129f5a11036a15b69513cba2b426a60405160405180910390a35050611104565b6103e8600c60003373ffffffffffffffffffffffffffffffffffffffff1673ffffffffffffffffffffffffffffffffffffffff16815260200190815260200160002081905550600073ffffffffffffffffffffffffffffffffffffffff16600260009054906101000a900473ffffffffffffffffffffffffffffffffffffffff1673ffffffffffffffffffffffffffffffffffffffff161461103657611031600260009054906101000a900473ffffffffffffffffffffffffffffffffffffffff1633600b60003373ffffffffffffffffffffffffffffffffffffffff1673ffffffffffffffffffffffffffffffffffffffff16815260200190815260200160002054612552565b611080565b61107f33600b60003373ffffffffffffffffffffffffffffffffffffffff1673ffffffffffffffffffffffffffffffffffffffff16815260200190815260200160002054612688565b5b600b60003373ffffffffffffffffffffffffffffffffffffffff1673ffffffffffffffffffffffffffffffffffffffff168152602001908152602001600020543373ffffffffffffffffffffffffffffffffffffffff167fd8138f8a3f377c5259ca548e70e4c2de94f129f5a11036a15b69513cba2b426a60405160405180910390a35b50565b61110f6124f2565b73ffffffffffffffffffffffffffffffffffffffff1661112d6115c4565b73ffffffffffffffffffffffffffffffffffffffff1614611183576040517f08c379a000000000000000000000000000000000000000000000000000000000815260040161117a90613452565b60405180910390fd5b6064825111156111c8576040517f08c379a00000000000000000000000000000000000000000000000000000000081526004016111bf906133d2565b60405180910390fd5b6000805b83518110156114b6576001600a60008684815181106111ee576111ed61390c565b5b602002602001015173ffffffffffffffffffffffffffffffffffffffff1673ffffffffffffffffffffffffffffffffffffffff16815260200190815260200160002060006101000a81548160ff0219169083151502179055506000611292600354611284670de0b6b3a764000087868151811061126e5761126d61390c565b5b602002602001015161251090919063ffffffff16565b61253c90919063ffffffff16565b905060006112b0826112a26107b7565b6124fa90919063ffffffff16565b116112f0576040517f08c379a00000000000000000000000000000000000000000000000000000000081526004016112e790613472565b60405180910390fd5b6113768483815181106113065761130561390c565b5b6020026020010151600b60008886815181106113255761132461390c565b5b602002602001015173ffffffffffffffffffffffffffffffffffffffff1673ffffffffffffffffffffffffffffffffffffffff1681526020019081526020016000205461252690919063ffffffff16565b600b600087858151811061138d5761138c61390c565b5b602002602001015173ffffffffffffffffffffffffffffffffffffffff1673ffffffffffffffffffffffffffffffffffffffff168152602001908152602001600020819055506113e6818461252690919063ffffffff16565b9250600260009054906101000a900473ffffffffffffffffffffffffffffffffffffffff16600e60008785815181106114225761142161390c565b5b602002602001015173ffffffffffffffffffffffffffffffffffffffff1673ffffffffffffffffffffffffffffffffffffffff16815260200190815260200160002060006101000a81548173ffffffffffffffffffffffffffffffffffffffff021916908373ffffffffffffffffffffffffffffffffffffffff1602179055505080806114ae90613865565b9150506111cc565b506114cc8160065461252690919063ffffffff16565b60068190555082517f6074084f4dbd9879d266f074be61eb039a0db2aa46e98e700223ad5c2bef5bd560405160405180910390a2505050565b60065481565b600b6020528060005260406000206000915090505481565b61152b6124f2565b73ffffffffffffffffffffffffffffffffffffffff166115496115c4565b73ffffffffffffffffffffffffffffffffffffffff161461159f576040517f08c379a000000000000000000000000000000000000000000000000000000000815260040161159690613452565b60405180910390fd5b6115a96000612788565b565b60035481565b600960009054906101000a900460ff1681565b60008060009054906101000a900473ffffffffffffffffffffffffffffffffffffffff16905090565b60075481565b60008061160c605a60075461252690919063ffffffff16565b905060006116336201518060085461162491906136e3565b8361252690919063ffffffff16565b905060008060075411801561164757508142115b6116525760646116ad565b6116ac606461169e603261169062015180601e61166f91906136e3565b61168288426124fa90919063ffffffff16565b61253c90919063ffffffff16565b61251090919063ffffffff16565b61252690919063ffffffff16565b5b90506103e881116116be57806116c2565b6103e85b935050505090565b60045481565b606481565b600d6020528060005260406000206000915090505481565b600c6020528060005260406000206000915090505481565b61170d6124f2565b73ffffffffffffffffffffffffffffffffffffffff1661172b6115c4565b73ffffffffffffffffffffffffffffffffffffffff1614611781576040517f08c379a000000000000000000000000000000000000000000000000000000000815260040161177890613452565b60405180910390fd5b600960009054906101000a900460ff166117d0576040517f08c379a00000000000000000000000000000000000000000000000000000000081526004016117c7906132d2565b60405180910390fd5b6000600960006101000a81548160ff021916908315150217905550565b600a6020528060005260406000206000915054906101000a900460ff1681565b600060075414611852576040517f08c379a000000000000000000000000000000000000000000000000000000000815260040161184990613552565b60405180910390fd5b600a60003373ffffffffffffffffffffffffffffffffffffffff1673ffffffffffffffffffffffffffffffffffffffff16815260200190815260200160002060009054906101000a900460ff16806118b75750600960009054906101000a900460ff16155b6118f6576040517f08c379a00000000000000000000000000000000000000000000000000000000081526004016118ed906133b2565b60405180910390fd5b60008073ffffffffffffffffffffffffffffffffffffffff16600260009054906101000a900473ffffffffffffffffffffffffffffffffffffffff1673ffffffffffffffffffffffffffffffffffffffff1614905080158061195757508134145b611996576040517f08c379a000000000000000000000000000000000000000000000000000000000815260040161198d90613572565b60405180910390fd5b6004546119eb83600b60003373ffffffffffffffffffffffffffffffffffffffff1673ffffffffffffffffffffffffffffffffffffffff1681526020019081526020016000205461252690919063ffffffff16565b1115611a2c576040517f08c379a0000000000000000000000000000000000000000000000000000000008152600401611a2390613312565b60405180910390fd5b6000611a5d600354611a4f670de0b6b3a76400008661251090919063ffffffff16565b61253c90919063ffffffff16565b90506000611a7b82611a6d6107b7565b6124fa90919063ffffffff16565b11611abb576040517f08c379a0000000000000000000000000000000000000000000000000000000008152600401611ab290613472565b60405180910390fd5b81611b1057611b0f333085600260009054906101000a900473ffffffffffffffffffffffffffffffffffffffff1673ffffffffffffffffffffffffffffffffffffffff1661284c909392919063ffffffff16565b5b611b6283600b60003373ffffffffffffffffffffffffffffffffffffffff1673ffffffffffffffffffffffffffffffffffffffff1681526020019081526020016000205461252690919063ffffffff16565b600b60003373ffffffffffffffffffffffffffffffffffffffff1673ffffffffffffffffffffffffffffffffffffffff16815260200190815260200160002081905550611bba8160065461252690919063ffffffff16565b600681905550600260009054906101000a900473ffffffffffffffffffffffffffffffffffffffff16600e60003373ffffffffffffffffffffffffffffffffffffffff1673ffffffffffffffffffffffffffffffffffffffff16815260200190815260200160002060006101000a81548173ffffffffffffffffffffffffffffffffffffffff021916908373ffffffffffffffffffffffffffffffffffffffff160217905550823373ffffffffffffffffffffffffffffffffffffffff167fc55650ccda1011e1cdc769b1fbf546ebb8c97800b6072b49e06cd560305b1d6760405160405180910390a3505050565b60085481565b601e81565b611cbc6124f2565b73ffffffffffffffffffffffffffffffffffffffff16611cda6115c4565b73ffffffffffffffffffffffffffffffffffffffff1614611d30576040517f08c379a0000000000000000000000000000000000000000000000000000000008152600401611d2790613452565b60405180910390fd5b600060075414611d75576040517f08c379a0000000000000000000000000000000000000000000000000000000008152600401611d6c906134f2565b60405180910390fd5b4260078190555060065460055411611ed05780600881905550600073ffffffffffffffffffffffffffffffffffffffff16600260009054906101000a900473ffffffffffffffffffffffffffffffffffffffff1673ffffffffffffffffffffffffffffffffffffffff1614611ec057611ebb600260009054906101000a900473ffffffffffffffffffffffffffffffffffffffff1633600260009054906101000a900473ffffffffffffffffffffffffffffffffffffffff1673ffffffffffffffffffffffffffffffffffffffff166370a08231306040518263ffffffff1660e01b8152600401611e6691906131ff565b60206040518083038186803b158015611e7e57600080fd5b505afa158015611e92573d6000803e3d6000fd5b505050506040513d601f19601f82011682018060405250810190611eb69190612e13565b612552565b611ecb565b611eca3347612688565b5b612016565b6000600881905550600073ffffffffffffffffffffffffffffffffffffffff16600160009054906101000a900473ffffffffffffffffffffffffffffffffffffffff1673ffffffffffffffffffffffffffffffffffffffff161461200a57612005600160009054906101000a900473ffffffffffffffffffffffffffffffffffffffff1633600160009054906101000a900473ffffffffffffffffffffffffffffffffffffffff1673ffffffffffffffffffffffffffffffffffffffff166370a08231306040518263ffffffff1660e01b8152600401611fb091906131ff565b60206040518083038186803b158015611fc857600080fd5b505afa158015611fdc573d6000803e3d6000fd5b505050506040513d601f19601f820116820180604052508101906120009190612e13565b612552565b612015565b6120143347612688565b5b5b6120426120316201518060085461251090919063ffffffff16565b60075461252690919063ffffffff16565b7f94bb74a9473ae4063ec1e73dc3e35fd4b5abe9cc1e43ad0db84e5358559ccd5a60405160405180910390a250565b6120796124f2565b73ffffffffffffffffffffffffffffffffffffffff166120976115c4565b73ffffffffffffffffffffffffffffffffffffffff16146120ed576040517f08c379a00000000000000000000000000000000000000000000000000000000081526004016120e490613452565b60405180910390fd5b600073ffffffffffffffffffffffffffffffffffffffff168173ffffffffffffffffffffffffffffffffffffffff16141561215d576040517f08c379a0000000000000000000000000000000000000000000000000000000008152600401612154906132f2565b60405180910390fd5b61216681612788565b50565b600e6020528060005260406000206000915054906101000a900473ffffffffffffffffffffffffffffffffffffffff1681565b600160009054906101000a900473ffffffffffffffffffffffffffffffffffffffff1681565b60055481565b6121d06124f2565b73ffffffffffffffffffffffffffffffffffffffff166121ee6115c4565b73ffffffffffffffffffffffffffffffffffffffff1614612244576040517f08c379a000000000000000000000000000000000000000000000000000000000815260040161223b90613452565b60405180910390fd5b600160009054906101000a900473ffffffffffffffffffffffffffffffffffffffff1673ffffffffffffffffffffffffffffffffffffffff168173ffffffffffffffffffffffffffffffffffffffff1614156122d5576040517f08c379a00000000000000000000000000000000000000000000000000000000081526004016122cc906133f2565b60405180910390fd5b600160009054906101000a900473ffffffffffffffffffffffffffffffffffffffff1673ffffffffffffffffffffffffffffffffffffffff166370a08231306040518263ffffffff1660e01b815260040161233091906131ff565b60206040518083038186803b15801561234857600080fd5b505afa15801561235c573d6000803e3d6000fd5b505050506040513d601f19601f820116820180604052508101906123809190612e13565b8173ffffffffffffffffffffffffffffffffffffffff166370a08231306040518263ffffffff1660e01b81526004016123b991906131ff565b60206040518083038186803b1580156123d157600080fd5b505afa1580156123e5573d6000803e3d6000fd5b505050506040513d601f19601f820116820180604052508101906124099190612e13565b14612449576040517f08c379a000000000000000000000000000000000000000000000000000000000815260040161244090613432565b60405180910390fd5b80600160006101000a81548173ffffffffffffffffffffffffffffffffffffffff021916908373ffffffffffffffffffffffffffffffffffffffff160217905550600160009054906101000a900473ffffffffffffffffffffffffffffffffffffffff1673ffffffffffffffffffffffffffffffffffffffff167f3fcfc24a3384ca156092d9242cb0f84abaf442146d91b8c93bea526561b83f8360405160405180910390a250565b600033905090565b60008183612508919061373d565b905092915050565b6000818361251e91906136e3565b905092915050565b60008183612534919061365c565b905092915050565b6000818361254a91906136b2565b905092915050565b6000808473ffffffffffffffffffffffffffffffffffffffff1663a9059cbb8585604051602401612584929190613251565b6040516020818303038152906040529060e01b6020820180517bffffffffffffffffffffffffffffffffffffffffffffffffffffffff83818316178352505050506040516125d291906131e8565b6000604051808303816000865af19150503d806000811461260f576040519150601f19603f3d011682016040523d82523d6000602084013e612614565b606091505b509150915081801561264257506000815114806126415750808060200190518101906126409190612d8c565b5b5b612681576040517f08c379a0000000000000000000000000000000000000000000000000000000008152600401612678906134d2565b60405180910390fd5b5050505050565b60008273ffffffffffffffffffffffffffffffffffffffff1682600067ffffffffffffffff8111156126bd576126bc61393b565b5b6040519080825280601f01601f1916602001820160405280156126ef5781602001600182028036833780820191505090505b506040516126fd91906131e8565b60006040518083038185875af1925050503d806000811461273a576040519150601f19603f3d011682016040523d82523d6000602084013e61273f565b606091505b5050905080612783576040517f08c379a000000000000000000000000000000000000000000000000000000000815260040161277a90613332565b60405180910390fd5b505050565b60008060009054906101000a900473ffffffffffffffffffffffffffffffffffffffff169050816000806101000a81548173ffffffffffffffffffffffffffffffffffffffff021916908373ffffffffffffffffffffffffffffffffffffffff1602179055508173ffffffffffffffffffffffffffffffffffffffff168173ffffffffffffffffffffffffffffffffffffffff167f8be0079c531659141344cd1fd0a4f28419497f9722a3daafe3b4186f6b6457e060405160405180910390a35050565b6128cf846323b872dd60e01b85858560405160240161286d9392919061321a565b604051602081830303815290604052907bffffffffffffffffffffffffffffffffffffffffffffffffffffffff19166020820180517bffffffffffffffffffffffffffffffffffffffffffffffffffffffff83818316178352505050506128d5565b50505050565b6000612937826040518060400160405280602081526020017f5361666545524332303a206c6f772d6c6576656c2063616c6c206661696c65648152508573ffffffffffffffffffffffffffffffffffffffff1661299c9092919063ffffffff16565b905060008151111561299757808060200190518101906129579190612d8c565b612996576040517f08c379a000000000000000000000000000000000000000000000000000000000815260040161298d90613512565b60405180910390fd5b5b505050565b60606129ab84846000856129b4565b90509392505050565b6060824710156129f9576040517f08c379a00000000000000000000000000000000000000000000000000000000081526004016129f090613392565b60405180910390fd5b612a0285612ac8565b612a41576040517f08c379a0000000000000000000000000000000000000000000000000000000008152600401612a3890613492565b60405180910390fd5b6000808673ffffffffffffffffffffffffffffffffffffffff168587604051612a6a91906131e8565b60006040518083038185875af1925050503d8060008114612aa7576040519150601f19603f3d011682016040523d82523d6000602084013e612aac565b606091505b5091509150612abc828286612adb565b92505050949350505050565b600080823b905060008111915050919050565b60608315612aeb57829050612b3b565b600083511115612afe5782518084602001fd5b816040517f08c379a0000000000000000000000000000000000000000000000000000000008152600401612b3291906132b0565b60405180910390fd5b9392505050565b6000612b55612b50846135d2565b6135ad565b90508083825260208201905082856020860282011115612b7857612b7761396f565b5b60005b85811015612ba85781612b8e8882612c22565b845260208401935060208301925050600181019050612b7b565b5050509392505050565b6000612bc5612bc0846135fe565b6135ad565b90508083825260208201905082856020860282011115612be857612be761396f565b5b60005b85811015612c185781612bfe8882612cbd565b845260208401935060208301925050600181019050612beb565b5050509392505050565b600081359050612c31816140a5565b92915050565b600082601f830112612c4c57612c4b61396a565b5b8135612c5c848260208601612b42565b91505092915050565b600082601f830112612c7a57612c7961396a565b5b8135612c8a848260208601612bb2565b91505092915050565b600081519050612ca2816140bc565b92915050565b600081359050612cb7816140d3565b92915050565b600081359050612ccc816140ea565b92915050565b600081519050612ce1816140ea565b92915050565b600060208284031215612cfd57612cfc613979565b5b6000612d0b84828501612c22565b91505092915050565b60008060408385031215612d2b57612d2a613979565b5b600083013567ffffffffffffffff811115612d4957612d48613974565b5b612d5585828601612c37565b925050602083013567ffffffffffffffff811115612d7657612d75613974565b5b612d8285828601612c65565b9150509250929050565b600060208284031215612da257612da1613979565b5b6000612db084828501612c93565b91505092915050565b600060208284031215612dcf57612dce613979565b5b6000612ddd84828501612ca8565b91505092915050565b600060208284031215612dfc57612dfb613979565b5b6000612e0a84828501612cbd565b91505092915050565b600060208284031215612e2957612e28613979565b5b6000612e3784828501612cd2565b91505092915050565b612e4981613771565b82525050565b612e5881613783565b82525050565b6000612e698261362a565b612e738185613640565b9350612e83818560208601613801565b80840191505092915050565b612e98816137cb565b82525050565b6000612ea982613635565b612eb3818561364b565b9350612ec3818560208601613801565b612ecc8161397e565b840191505092915050565b6000612ee460358361364b565b9150612eef8261398f565b604082019050919050565b6000612f0760268361364b565b9150612f12826139de565b604082019050919050565b6000612f2a60398361364b565b9150612f3582613a2d565b604082019050919050565b6000612f4d60348361364b565b9150612f5882613a7c565b604082019050919050565b6000612f7060298361364b565b9150612f7b82613acb565b604082019050919050565b6000612f93603c8361364b565b9150612f9e82613b1a565b604082019050919050565b6000612fb660268361364b565b9150612fc182613b69565b604082019050919050565b6000612fd960318361364b565b9150612fe482613bb8565b604082019050919050565b6000612ffc60488361364b565b915061300782613c07565b606082019050919050565b600061301f60468361364b565b915061302a82613c7c565b606082019050919050565b6000613042605d8361364b565b915061304d82613cf1565b606082019050919050565b600061306560778361364b565b915061307082613d66565b608082019050919050565b600061308860208361364b565b915061309382613e01565b602082019050919050565b60006130ab60358361364b565b91506130b682613e2a565b604082019050919050565b60006130ce601d8361364b565b91506130d982613e79565b602082019050919050565b60006130f160238361364b565b91506130fc82613ea2565b604082019050919050565b6000613114602d8361364b565b915061311f82613ef1565b604082019050919050565b6000613137602a8361364b565b915061314282613f40565b604082019050919050565b600061315a602a8361364b565b915061316582613f8f565b604082019050919050565b600061317d60268361364b565b915061318882613fde565b604082019050919050565b60006131a0601f8361364b565b91506131ab8261402d565b602082019050919050565b60006131c360348361364b565b91506131ce82614056565b604082019050919050565b6131e2816137c1565b82525050565b60006131f48284612e5e565b915081905092915050565b60006020820190506132146000830184612e40565b92915050565b600060608201905061322f6000830186612e40565b61323c6020830185612e40565b61324960408301846131d9565b949350505050565b60006040820190506132666000830185612e40565b61327360208301846131d9565b9392505050565b600060208201905061328f6000830184612e4f565b92915050565b60006020820190506132aa6000830184612e8f565b92915050565b600060208201905081810360008301526132ca8184612e9e565b905092915050565b600060208201905081810360008301526132eb81612ed7565b9050919050565b6000602082019050818103600083015261330b81612efa565b9050919050565b6000602082019050818103600083015261332b81612f1d565b9050919050565b6000602082019050818103600083015261334b81612f40565b9050919050565b6000602082019050818103600083015261336b81612f63565b9050919050565b6000602082019050818103600083015261338b81612f86565b9050919050565b600060208201905081810360008301526133ab81612fa9565b9050919050565b600060208201905081810360008301526133cb81612fcc565b9050919050565b600060208201905081810360008301526133eb81612fef565b9050919050565b6000602082019050818103600083015261340b81613012565b9050919050565b6000602082019050818103600083015261342b81613035565b9050919050565b6000602082019050818103600083015261344b81613058565b9050919050565b6000602082019050818103600083015261346b8161307b565b9050919050565b6000602082019050818103600083015261348b8161309e565b9050919050565b600060208201905081810360008301526134ab816130c1565b9050919050565b600060208201905081810360008301526134cb816130e4565b9050919050565b600060208201905081810360008301526134eb81613107565b9050919050565b6000602082019050818103600083015261350b8161312a565b9050919050565b6000602082019050818103600083015261352b8161314d565b9050919050565b6000602082019050818103600083015261354b81613170565b9050919050565b6000602082019050818103600083015261356b81613193565b9050919050565b6000602082019050818103600083015261358b816131b6565b9050919050565b60006020820190506135a760008301846131d9565b92915050565b60006135b76135c8565b90506135c38282613834565b919050565b6000604051905090565b600067ffffffffffffffff8211156135ed576135ec61393b565b5b602082029050602081019050919050565b600067ffffffffffffffff8211156136195761361861393b565b5b602082029050602081019050919050565b600081519050919050565b600081519050919050565b600081905092915050565b600082825260208201905092915050565b6000613667826137c1565b9150613672836137c1565b9250827fffffffffffffffffffffffffffffffffffffffffffffffffffffffffffffffff038211156136a7576136a66138ae565b5b828201905092915050565b60006136bd826137c1565b91506136c8836137c1565b9250826136d8576136d76138dd565b5b828204905092915050565b60006136ee826137c1565b91506136f9836137c1565b9250817fffffffffffffffffffffffffffffffffffffffffffffffffffffffffffffffff0483118215151615613732576137316138ae565b5b828202905092915050565b6000613748826137c1565b9150613753836137c1565b925082821015613766576137656138ae565b5b828203905092915050565b600061377c826137a1565b9050919050565b60008115159050919050565b600061379a82613771565b9050919050565b600073ffffffffffffffffffffffffffffffffffffffff82169050919050565b6000819050919050565b60006137d6826137dd565b9050919050565b60006137e8826137ef565b9050919050565b60006137fa826137a1565b9050919050565b60005b8381101561381f578082015181840152602081019050613804565b8381111561382e576000848401525b50505050565b61383d8261397e565b810181811067ffffffffffffffff8211171561385c5761385b61393b565b5b80604052505050565b6000613870826137c1565b91507fffffffffffffffffffffffffffffffffffffffffffffffffffffffffffffffff8214156138a3576138a26138ae565b5b600182019050919050565b7f4e487b7100000000000000000000000000000000000000000000000000000000600052601160045260246000fd5b7f4e487b7100000000000000000000000000000000000000000000000000000000600052601260045260246000fd5b7f4e487b7100000000000000000000000000000000000000000000000000000000600052603260045260246000fd5b7f4e487b7100000000000000000000000000000000000000000000000000000000600052604160045260246000fd5b600080fd5b600080fd5b600080fd5b600080fd5b6000601f19601f8301169050919050565b7f41424f41543a64697361626c6557686974656c6973743a2057686974656c697360008201527f7420697320616c72656164792064697361626c65640000000000000000000000602082015250565b7f4f776e61626c653a206e6577206f776e657220697320746865207a65726f206160008201527f6464726573730000000000000000000000000000000000000000000000000000602082015250565b7f41424f41543a3a6275793a20416d6f756e7420776f756c64206578636565642060008201527f746865206d6178696d756d20616c6c6f776564206c696d697400000000000000602082015250565b7f5472616e7366657248656c7065723a3a736166655472616e736665724554483a60008201527f20455448207472616e73666572206661696c6564000000000000000000000000602082015250565b7f41424f41543a3a636c61696d3a20436c61696d206973206e6f7420617661696c60008201527f61626c65207965742e0000000000000000000000000000000000000000000000602082015250565b7f41424f41543a3a636c61696d3a20416c726561647920636c61696d656420796f60008201527f75722063757272656e746c7920656c696769626c6520746f6b656e7300000000602082015250565b7f416464726573733a20696e73756666696369656e742062616c616e636520666f60008201527f722063616c6c0000000000000000000000000000000000000000000000000000602082015250565b7f41424f41543a3a6275793a20596f75277265206e6f742077686974656c69737460008201527f656420666f7220746869732073616c6521000000000000000000000000000000602082015250565b7f41424f41543a3a77686974656c6973743a20596f752063616e2774206164642060008201527f6d6f7265207468616e203130302061646472657373657320617420746865207360208201527f616d652074696d65000000000000000000000000000000000000000000000000604082015250565b7f41424f41543a3a757064617465526577617264546f6b656e3a204e657720726560008201527f776172642073686f756c6420626520646966666572656e742066726f6d20637560208201527f7272656e742e0000000000000000000000000000000000000000000000000000604082015250565b7f41424f41543a3a636c61696d3a205468652070657263656e74616765206f662060008201527f746f6b656e20796f752063616e20636c61696d2069732063757272656e746c7960208201527f207a65726f2e20506c656173652074727920616761696e206c61746572000000604082015250565b7f41424f41543a3a757064617465526577617264546f6b656e3a2054686520636f60008201527f6e74726163742073686f756c6420636f6e7461696e2061746c6561737420746860208201527f652073616d6520616d6f756e74206f6620746f6b656e732061732066726f6d2060408201527f7468652063757272656e7420726577617264546f6b656e000000000000000000606082015250565b7f4f776e61626c653a2063616c6c6572206973206e6f7420746865206f776e6572600082015250565b7f41424f41543a3a6275793a20416d6f756e7420776f756c64206578636565642060008201527f7468652072656d61696e696e672062616c616e63650000000000000000000000602082015250565b7f416464726573733a2063616c6c20746f206e6f6e2d636f6e7472616374000000600082015250565b7f41424f41543a3a636c61696d3a2053616c65206973206e6f74206f766572207960008201527f6574210000000000000000000000000000000000000000000000000000000000602082015250565b7f5472616e7366657248656c7065723a3a736166655472616e736665723a20747260008201527f616e73666572206661696c656400000000000000000000000000000000000000602082015250565b7f41424f41543a3a636c61696d416e64456e6453616c653a2053616c6520616c7260008201527f6561647920656e64656400000000000000000000000000000000000000000000602082015250565b7f5361666545524332303a204552433230206f7065726174696f6e20646964206e60008201527f6f74207375636365656400000000000000000000000000000000000000000000602082015250565b7f41424f41543a3a7570646174654166746572446179733a2053616c65206e6f7460008201527f20656e6465640000000000000000000000000000000000000000000000000000602082015250565b7f41424f41543a3a6275793a2053616c6520616c726561647920656e6465642100600082015250565b7f41424f41543a3a6275793a2053656e742076616c756520646f65736e2774206d60008201527f6565742074686520676976656e20616d6f756e74000000000000000000000000602082015250565b6140ae81613771565b81146140b957600080fd5b50565b6140c581613783565b81146140d057600080fd5b50565b6140dc8161378f565b81146140e757600080fd5b50565b6140f3816137c1565b81146140fe57600080fd5b5056fea264697066735822122066ed43e52ceedaa0b31e1578775c998a76b17af0ea69e5b0490a7e89a69908f364736f6c63430008070033",
					"opcodes": "PUSH1 0x80 PUSH1 0x40 MSTORE PUSH1 0x0 PUSH1 0x7 SSTORE PUSH1 0x1 PUSH1 0x9 PUSH1 0x0 PUSH2 0x100 EXP DUP2 SLOAD DUP2 PUSH1 0xFF MUL NOT AND SWAP1 DUP4 ISZERO ISZERO MUL OR SWAP1 SSTORE POP CALLVALUE DUP1 ISZERO PUSH3 0x31 JUMPI PUSH1 0x0 DUP1 REVERT JUMPDEST POP PUSH1 0x40 MLOAD PUSH3 0x455C CODESIZE SUB DUP1 PUSH3 0x455C DUP4 CODECOPY DUP2 DUP2 ADD PUSH1 0x40 MSTORE DUP2 ADD SWAP1 PUSH3 0x57 SWAP2 SWAP1 PUSH3 0x259 JUMP JUMPDEST PUSH3 0x77 PUSH3 0x6B PUSH3 0x15F PUSH1 0x20 SHL PUSH1 0x20 SHR JUMP JUMPDEST PUSH3 0x167 PUSH1 0x20 SHL PUSH1 0x20 SHR JUMP JUMPDEST PUSH1 0x0 DUP2 GT PUSH3 0xBD JUMPI PUSH1 0x40 MLOAD PUSH32 0x8C379A000000000000000000000000000000000000000000000000000000000 DUP2 MSTORE PUSH1 0x4 ADD PUSH3 0xB4 SWAP1 PUSH3 0x308 JUMP JUMPDEST PUSH1 0x40 MLOAD DUP1 SWAP2 SUB SWAP1 REVERT JUMPDEST DUP5 PUSH1 0x1 PUSH1 0x0 PUSH2 0x100 EXP DUP2 SLOAD DUP2 PUSH20 0xFFFFFFFFFFFFFFFFFFFFFFFFFFFFFFFFFFFFFFFF MUL NOT AND SWAP1 DUP4 PUSH20 0xFFFFFFFFFFFFFFFFFFFFFFFFFFFFFFFFFFFFFFFF AND MUL OR SWAP1 SSTORE POP DUP4 PUSH1 0x2 PUSH1 0x0 PUSH2 0x100 EXP DUP2 SLOAD DUP2 PUSH20 0xFFFFFFFFFFFFFFFFFFFFFFFFFFFFFFFFFFFFFFFF MUL NOT AND SWAP1 DUP4 PUSH20 0xFFFFFFFFFFFFFFFFFFFFFFFFFFFFFFFFFFFFFFFF AND MUL OR SWAP1 SSTORE POP DUP3 PUSH1 0x4 DUP2 SWAP1 SSTORE POP DUP2 PUSH1 0x5 DUP2 SWAP1 SSTORE POP DUP1 PUSH1 0x3 DUP2 SWAP1 SSTORE POP POP POP POP POP POP PUSH3 0x415 JUMP JUMPDEST PUSH1 0x0 CALLER SWAP1 POP SWAP1 JUMP JUMPDEST PUSH1 0x0 DUP1 PUSH1 0x0 SWAP1 SLOAD SWAP1 PUSH2 0x100 EXP SWAP1 DIV PUSH20 0xFFFFFFFFFFFFFFFFFFFFFFFFFFFFFFFFFFFFFFFF AND SWAP1 POP DUP2 PUSH1 0x0 DUP1 PUSH2 0x100 EXP DUP2 SLOAD DUP2 PUSH20 0xFFFFFFFFFFFFFFFFFFFFFFFFFFFFFFFFFFFFFFFF MUL NOT AND SWAP1 DUP4 PUSH20 0xFFFFFFFFFFFFFFFFFFFFFFFFFFFFFFFFFFFFFFFF AND MUL OR SWAP1 SSTORE POP DUP2 PUSH20 0xFFFFFFFFFFFFFFFFFFFFFFFFFFFFFFFFFFFFFFFF AND DUP2 PUSH20 0xFFFFFFFFFFFFFFFFFFFFFFFFFFFFFFFFFFFFFFFF AND PUSH32 0x8BE0079C531659141344CD1FD0A4F28419497F9722A3DAAFE3B4186F6B6457E0 PUSH1 0x40 MLOAD PUSH1 0x40 MLOAD DUP1 SWAP2 SUB SWAP1 LOG3 POP POP JUMP JUMPDEST PUSH1 0x0 DUP2 MLOAD SWAP1 POP PUSH3 0x23C DUP2 PUSH3 0x3E1 JUMP JUMPDEST SWAP3 SWAP2 POP POP JUMP JUMPDEST PUSH1 0x0 DUP2 MLOAD SWAP1 POP PUSH3 0x253 DUP2 PUSH3 0x3FB JUMP JUMPDEST SWAP3 SWAP2 POP POP JUMP JUMPDEST PUSH1 0x0 DUP1 PUSH1 0x0 DUP1 PUSH1 0x0 PUSH1 0xA0 DUP7 DUP9 SUB SLT ISZERO PUSH3 0x278 JUMPI PUSH3 0x277 PUSH3 0x38D JUMP JUMPDEST JUMPDEST PUSH1 0x0 PUSH3 0x288 DUP9 DUP3 DUP10 ADD PUSH3 0x22B JUMP JUMPDEST SWAP6 POP POP PUSH1 0x20 PUSH3 0x29B DUP9 DUP3 DUP10 ADD PUSH3 0x22B JUMP JUMPDEST SWAP5 POP POP PUSH1 0x40 PUSH3 0x2AE DUP9 DUP3 DUP10 ADD PUSH3 0x242 JUMP JUMPDEST SWAP4 POP POP PUSH1 0x60 PUSH3 0x2C1 DUP9 DUP3 DUP10 ADD PUSH3 0x242 JUMP JUMPDEST SWAP3 POP POP PUSH1 0x80 PUSH3 0x2D4 DUP9 DUP3 DUP10 ADD PUSH3 0x242 JUMP JUMPDEST SWAP2 POP POP SWAP3 SWAP6 POP SWAP3 SWAP6 SWAP1 SWAP4 POP JUMP JUMPDEST PUSH1 0x0 PUSH3 0x2F0 PUSH1 0x2E DUP4 PUSH3 0x32A JUMP JUMPDEST SWAP2 POP PUSH3 0x2FD DUP3 PUSH3 0x392 JUMP JUMPDEST PUSH1 0x40 DUP3 ADD SWAP1 POP SWAP2 SWAP1 POP JUMP JUMPDEST PUSH1 0x0 PUSH1 0x20 DUP3 ADD SWAP1 POP DUP2 DUP2 SUB PUSH1 0x0 DUP4 ADD MSTORE PUSH3 0x323 DUP2 PUSH3 0x2E1 JUMP JUMPDEST SWAP1 POP SWAP2 SWAP1 POP JUMP JUMPDEST PUSH1 0x0 DUP3 DUP3 MSTORE PUSH1 0x20 DUP3 ADD SWAP1 POP SWAP3 SWAP2 POP POP JUMP JUMPDEST PUSH1 0x0 PUSH3 0x348 DUP3 PUSH3 0x363 JUMP JUMPDEST SWAP1 POP SWAP2 SWAP1 POP JUMP JUMPDEST PUSH1 0x0 PUSH3 0x35C DUP3 PUSH3 0x33B JUMP JUMPDEST SWAP1 POP SWAP2 SWAP1 POP JUMP JUMPDEST PUSH1 0x0 PUSH20 0xFFFFFFFFFFFFFFFFFFFFFFFFFFFFFFFFFFFFFFFF DUP3 AND SWAP1 POP SWAP2 SWAP1 POP JUMP JUMPDEST PUSH1 0x0 DUP2 SWAP1 POP SWAP2 SWAP1 POP JUMP JUMPDEST PUSH1 0x0 DUP1 REVERT JUMPDEST PUSH32 0x41424F41543A3A6572726F723A2050726963652068617320746F206265206869 PUSH1 0x0 DUP3 ADD MSTORE PUSH32 0x67686572207468616E207A65726F000000000000000000000000000000000000 PUSH1 0x20 DUP3 ADD MSTORE POP JUMP JUMPDEST PUSH3 0x3EC DUP2 PUSH3 0x34F JUMP JUMPDEST DUP2 EQ PUSH3 0x3F8 JUMPI PUSH1 0x0 DUP1 REVERT JUMPDEST POP JUMP JUMPDEST PUSH3 0x406 DUP2 PUSH3 0x383 JUMP JUMPDEST DUP2 EQ PUSH3 0x412 JUMPI PUSH1 0x0 DUP1 REVERT JUMPDEST POP JUMP JUMPDEST PUSH2 0x4137 DUP1 PUSH3 0x425 PUSH1 0x0 CODECOPY PUSH1 0x0 RETURN INVALID PUSH1 0x80 PUSH1 0x40 MSTORE PUSH1 0x4 CALLDATASIZE LT PUSH2 0x1CD JUMPI PUSH1 0x0 CALLDATALOAD PUSH1 0xE0 SHR DUP1 PUSH4 0xA4D66DAF GT PUSH2 0xF7 JUMPI DUP1 PUSH4 0xE754E7C4 GT PUSH2 0x95 JUMPI DUP1 PUSH4 0xF3739E05 GT PUSH2 0x64 JUMPI DUP1 PUSH4 0xF3739E05 EQ PUSH2 0x625 JUMPI DUP1 PUSH4 0xF7C618C1 EQ PUSH2 0x662 JUMPI DUP1 PUSH4 0xF89BE593 EQ PUSH2 0x68D JUMPI DUP1 PUSH4 0xF8CF31CB EQ PUSH2 0x6B8 JUMPI PUSH2 0x1CD JUMP JUMPDEST DUP1 PUSH4 0xE754E7C4 EQ PUSH2 0x57D JUMPI DUP1 PUSH4 0xEF78D4FD EQ PUSH2 0x5A8 JUMPI DUP1 PUSH4 0xEFE95F51 EQ PUSH2 0x5D3 JUMPI DUP1 PUSH4 0xF2FDE38B EQ PUSH2 0x5FC JUMPI PUSH2 0x1CD JUMP JUMPDEST DUP1 PUSH4 0xC884EF83 GT PUSH2 0xD1 JUMPI DUP1 PUSH4 0xC884EF83 EQ PUSH2 0x4D0 JUMPI DUP1 PUSH4 0xD6B0F484 EQ PUSH2 0x50D JUMPI DUP1 PUSH4 0xD936547E EQ PUSH2 0x524 JUMPI DUP1 PUSH4 0xD96A094A EQ PUSH2 0x561 JUMPI PUSH2 0x1CD JUMP JUMPDEST DUP1 PUSH4 0xA4D66DAF EQ PUSH2 0x43D JUMPI DUP1 PUSH4 0xA5EBF835 EQ PUSH2 0x468 JUMPI DUP1 PUSH4 0xA960C65F EQ PUSH2 0x493 JUMPI PUSH2 0x1CD JUMP JUMPDEST DUP1 PUSH4 0x5ED9EBFC GT PUSH2 0x16F JUMPI DUP1 PUSH4 0x856734C4 GT PUSH2 0x13E JUMPI DUP1 PUSH4 0x856734C4 EQ PUSH2 0x391 JUMPI DUP1 PUSH4 0x8DA5CB5B EQ PUSH2 0x3BC JUMPI DUP1 PUSH4 0x9B8906AE EQ PUSH2 0x3E7 JUMPI DUP1 PUSH4 0x9C92431B EQ PUSH2 0x412 JUMPI PUSH2 0x1CD JUMP JUMPDEST DUP1 PUSH4 0x5ED9EBFC EQ PUSH2 0x2E7 JUMPI DUP1 PUSH4 0x667022FD EQ PUSH2 0x312 JUMPI DUP1 PUSH4 0x715018A6 EQ PUSH2 0x34F JUMPI DUP1 PUSH4 0x7B1B1DE6 EQ PUSH2 0x366 JUMPI PUSH2 0x1CD JUMP JUMPDEST DUP1 PUSH4 0x2FBA2C85 GT PUSH2 0x1AB JUMPI DUP1 PUSH4 0x2FBA2C85 EQ PUSH2 0x251 JUMPI DUP1 PUSH4 0x3013CE29 EQ PUSH2 0x27C JUMPI DUP1 PUSH4 0x4E71D92D EQ PUSH2 0x2A7 JUMPI DUP1 PUSH4 0x5372A58E EQ PUSH2 0x2BE JUMPI PUSH2 0x1CD JUMP JUMPDEST DUP1 PUSH4 0xC0E0862 EQ PUSH2 0x1D2 JUMPI DUP1 PUSH4 0x151BAD0A EQ PUSH2 0x1FB JUMPI DUP1 PUSH4 0x2F661946 EQ PUSH2 0x226 JUMPI JUMPDEST PUSH1 0x0 DUP1 REVERT JUMPDEST CALLVALUE DUP1 ISZERO PUSH2 0x1DE JUMPI PUSH1 0x0 DUP1 REVERT JUMPDEST POP PUSH2 0x1F9 PUSH1 0x4 DUP1 CALLDATASIZE SUB DUP2 ADD SWAP1 PUSH2 0x1F4 SWAP2 SWAP1 PUSH2 0x2DE6 JUMP JUMPDEST PUSH2 0x6E1 JUMP JUMPDEST STOP JUMPDEST CALLVALUE DUP1 ISZERO PUSH2 0x207 JUMPI PUSH1 0x0 DUP1 REVERT JUMPDEST POP PUSH2 0x210 PUSH2 0x7AD JUMP JUMPDEST PUSH1 0x40 MLOAD PUSH2 0x21D SWAP2 SWAP1 PUSH2 0x3592 JUMP JUMPDEST PUSH1 0x40 MLOAD DUP1 SWAP2 SUB SWAP1 RETURN JUMPDEST CALLVALUE DUP1 ISZERO PUSH2 0x232 JUMPI PUSH1 0x0 DUP1 REVERT JUMPDEST POP PUSH2 0x23B PUSH2 0x7B2 JUMP JUMPDEST PUSH1 0x40 MLOAD PUSH2 0x248 SWAP2 SWAP1 PUSH2 0x3592 JUMP JUMPDEST PUSH1 0x40 MLOAD DUP1 SWAP2 SUB SWAP1 RETURN JUMPDEST CALLVALUE DUP1 ISZERO PUSH2 0x25D JUMPI PUSH1 0x0 DUP1 REVERT JUMPDEST POP PUSH2 0x266 PUSH2 0x7B7 JUMP JUMPDEST PUSH1 0x40 MLOAD PUSH2 0x273 SWAP2 SWAP1 PUSH2 0x3592 JUMP JUMPDEST PUSH1 0x40 MLOAD DUP1 SWAP2 SUB SWAP1 RETURN JUMPDEST CALLVALUE DUP1 ISZERO PUSH2 0x288 JUMPI PUSH1 0x0 DUP1 REVERT JUMPDEST POP PUSH2 0x291 PUSH2 0x8F0 JUMP JUMPDEST PUSH1 0x40 MLOAD PUSH2 0x29E SWAP2 SWAP1 PUSH2 0x3295 JUMP JUMPDEST PUSH1 0x40 MLOAD DUP1 SWAP2 SUB SWAP1 RETURN JUMPDEST CALLVALUE DUP1 ISZERO PUSH2 0x2B3 JUMPI PUSH1 0x0 DUP1 REVERT JUMPDEST POP PUSH2 0x2BC PUSH2 0x916 JUMP JUMPDEST STOP JUMPDEST CALLVALUE DUP1 ISZERO PUSH2 0x2CA JUMPI PUSH1 0x0 DUP1 REVERT JUMPDEST POP PUSH2 0x2E5 PUSH1 0x4 DUP1 CALLDATASIZE SUB DUP2 ADD SWAP1 PUSH2 0x2E0 SWAP2 SWAP1 PUSH2 0x2D14 JUMP JUMPDEST PUSH2 0x1107 JUMP JUMPDEST STOP JUMPDEST CALLVALUE DUP1 ISZERO PUSH2 0x2F3 JUMPI PUSH1 0x0 DUP1 REVERT JUMPDEST POP PUSH2 0x2FC PUSH2 0x1505 JUMP JUMPDEST PUSH1 0x40 MLOAD PUSH2 0x309 SWAP2 SWAP1 PUSH2 0x3592 JUMP JUMPDEST PUSH1 0x40 MLOAD DUP1 SWAP2 SUB SWAP1 RETURN JUMPDEST CALLVALUE DUP1 ISZERO PUSH2 0x31E JUMPI PUSH1 0x0 DUP1 REVERT JUMPDEST POP PUSH2 0x339 PUSH1 0x4 DUP1 CALLDATASIZE SUB DUP2 ADD SWAP1 PUSH2 0x334 SWAP2 SWAP1 PUSH2 0x2CE7 JUMP JUMPDEST PUSH2 0x150B JUMP JUMPDEST PUSH1 0x40 MLOAD PUSH2 0x346 SWAP2 SWAP1 PUSH2 0x3592 JUMP JUMPDEST PUSH1 0x40 MLOAD DUP1 SWAP2 SUB SWAP1 RETURN JUMPDEST CALLVALUE DUP1 ISZERO PUSH2 0x35B JUMPI PUSH1 0x0 DUP1 REVERT JUMPDEST POP PUSH2 0x364 PUSH2 0x1523 JUMP JUMPDEST STOP JUMPDEST CALLVALUE DUP1 ISZERO PUSH2 0x372 JUMPI PUSH1 0x0 DUP1 REVERT JUMPDEST POP PUSH2 0x37B PUSH2 0x15AB JUMP JUMPDEST PUSH1 0x40 MLOAD PUSH2 0x388 SWAP2 SWAP1 PUSH2 0x3592 JUMP JUMPDEST PUSH1 0x40 MLOAD DUP1 SWAP2 SUB SWAP1 RETURN JUMPDEST CALLVALUE DUP1 ISZERO PUSH2 0x39D JUMPI PUSH1 0x0 DUP1 REVERT JUMPDEST POP PUSH2 0x3A6 PUSH2 0x15B1 JUMP JUMPDEST PUSH1 0x40 MLOAD PUSH2 0x3B3 SWAP2 SWAP1 PUSH2 0x327A JUMP JUMPDEST PUSH1 0x40 MLOAD DUP1 SWAP2 SUB SWAP1 RETURN JUMPDEST CALLVALUE DUP1 ISZERO PUSH2 0x3C8 JUMPI PUSH1 0x0 DUP1 REVERT JUMPDEST POP PUSH2 0x3D1 PUSH2 0x15C4 JUMP JUMPDEST PUSH1 0x40 MLOAD PUSH2 0x3DE SWAP2 SWAP1 PUSH2 0x31FF JUMP JUMPDEST PUSH1 0x40 MLOAD DUP1 SWAP2 SUB SWAP1 RETURN JUMPDEST CALLVALUE DUP1 ISZERO PUSH2 0x3F3 JUMPI PUSH1 0x0 DUP1 REVERT JUMPDEST POP PUSH2 0x3FC PUSH2 0x15ED JUMP JUMPDEST PUSH1 0x40 MLOAD PUSH2 0x409 SWAP2 SWAP1 PUSH2 0x3592 JUMP JUMPDEST PUSH1 0x40 MLOAD DUP1 SWAP2 SUB SWAP1 RETURN JUMPDEST CALLVALUE DUP1 ISZERO PUSH2 0x41E JUMPI PUSH1 0x0 DUP1 REVERT JUMPDEST POP PUSH2 0x427 PUSH2 0x15F3 JUMP JUMPDEST PUSH1 0x40 MLOAD PUSH2 0x434 SWAP2 SWAP1 PUSH2 0x3592 JUMP JUMPDEST PUSH1 0x40 MLOAD DUP1 SWAP2 SUB SWAP1 RETURN JUMPDEST CALLVALUE DUP1 ISZERO PUSH2 0x449 JUMPI PUSH1 0x0 DUP1 REVERT JUMPDEST POP PUSH2 0x452 PUSH2 0x16CA JUMP JUMPDEST PUSH1 0x40 MLOAD PUSH2 0x45F SWAP2 SWAP1 PUSH2 0x3592 JUMP JUMPDEST PUSH1 0x40 MLOAD DUP1 SWAP2 SUB SWAP1 RETURN JUMPDEST CALLVALUE DUP1 ISZERO PUSH2 0x474 JUMPI PUSH1 0x0 DUP1 REVERT JUMPDEST POP PUSH2 0x47D PUSH2 0x16D0 JUMP JUMPDEST PUSH1 0x40 MLOAD PUSH2 0x48A SWAP2 SWAP1 PUSH2 0x3592 JUMP JUMPDEST PUSH1 0x40 MLOAD DUP1 SWAP2 SUB SWAP1 RETURN JUMPDEST CALLVALUE DUP1 ISZERO PUSH2 0x49F JUMPI PUSH1 0x0 DUP1 REVERT JUMPDEST POP PUSH2 0x4BA PUSH1 0x4 DUP1 CALLDATASIZE SUB DUP2 ADD SWAP1 PUSH2 0x4B5 SWAP2 SWAP1 PUSH2 0x2CE7 JUMP JUMPDEST PUSH2 0x16D5 JUMP JUMPDEST PUSH1 0x40 MLOAD PUSH2 0x4C7 SWAP2 SWAP1 PUSH2 0x3592 JUMP JUMPDEST PUSH1 0x40 MLOAD DUP1 SWAP2 SUB SWAP1 RETURN JUMPDEST CALLVALUE DUP1 ISZERO PUSH2 0x4DC JUMPI PUSH1 0x0 DUP1 REVERT JUMPDEST POP PUSH2 0x4F7 PUSH1 0x4 DUP1 CALLDATASIZE SUB DUP2 ADD SWAP1 PUSH2 0x4F2 SWAP2 SWAP1 PUSH2 0x2CE7 JUMP JUMPDEST PUSH2 0x16ED JUMP JUMPDEST PUSH1 0x40 MLOAD PUSH2 0x504 SWAP2 SWAP1 PUSH2 0x3592 JUMP JUMPDEST PUSH1 0x40 MLOAD DUP1 SWAP2 SUB SWAP1 RETURN JUMPDEST CALLVALUE DUP1 ISZERO PUSH2 0x519 JUMPI PUSH1 0x0 DUP1 REVERT JUMPDEST POP PUSH2 0x522 PUSH2 0x1705 JUMP JUMPDEST STOP JUMPDEST CALLVALUE DUP1 ISZERO PUSH2 0x530 JUMPI PUSH1 0x0 DUP1 REVERT JUMPDEST POP PUSH2 0x54B PUSH1 0x4 DUP1 CALLDATASIZE SUB DUP2 ADD SWAP1 PUSH2 0x546 SWAP2 SWAP1 PUSH2 0x2CE7 JUMP JUMPDEST PUSH2 0x17ED JUMP JUMPDEST PUSH1 0x40 MLOAD PUSH2 0x558 SWAP2 SWAP1 PUSH2 0x327A JUMP JUMPDEST PUSH1 0x40 MLOAD DUP1 SWAP2 SUB SWAP1 RETURN JUMPDEST PUSH2 0x57B PUSH1 0x4 DUP1 CALLDATASIZE SUB DUP2 ADD SWAP1 PUSH2 0x576 SWAP2 SWAP1 PUSH2 0x2DE6 JUMP JUMPDEST PUSH2 0x180D JUMP JUMPDEST STOP JUMPDEST CALLVALUE DUP1 ISZERO PUSH2 0x589 JUMPI PUSH1 0x0 DUP1 REVERT JUMPDEST POP PUSH2 0x592 PUSH2 0x1CA9 JUMP JUMPDEST PUSH1 0x40 MLOAD PUSH2 0x59F SWAP2 SWAP1 PUSH2 0x3592 JUMP JUMPDEST PUSH1 0x40 MLOAD DUP1 SWAP2 SUB SWAP1 RETURN JUMPDEST CALLVALUE DUP1 ISZERO PUSH2 0x5B4 JUMPI PUSH1 0x0 DUP1 REVERT JUMPDEST POP PUSH2 0x5BD PUSH2 0x1CAF JUMP JUMPDEST PUSH1 0x40 MLOAD PUSH2 0x5CA SWAP2 SWAP1 PUSH2 0x3592 JUMP JUMPDEST PUSH1 0x40 MLOAD DUP1 SWAP2 SUB SWAP1 RETURN JUMPDEST CALLVALUE DUP1 ISZERO PUSH2 0x5DF JUMPI PUSH1 0x0 DUP1 REVERT JUMPDEST POP PUSH2 0x5FA PUSH1 0x4 DUP1 CALLDATASIZE SUB DUP2 ADD SWAP1 PUSH2 0x5F5 SWAP2 SWAP1 PUSH2 0x2DE6 JUMP JUMPDEST PUSH2 0x1CB4 JUMP JUMPDEST STOP JUMPDEST CALLVALUE DUP1 ISZERO PUSH2 0x608 JUMPI PUSH1 0x0 DUP1 REVERT JUMPDEST POP PUSH2 0x623 PUSH1 0x4 DUP1 CALLDATASIZE SUB DUP2 ADD SWAP1 PUSH2 0x61E SWAP2 SWAP1 PUSH2 0x2CE7 JUMP JUMPDEST PUSH2 0x2071 JUMP JUMPDEST STOP JUMPDEST CALLVALUE DUP1 ISZERO PUSH2 0x631 JUMPI PUSH1 0x0 DUP1 REVERT JUMPDEST POP PUSH2 0x64C PUSH1 0x4 DUP1 CALLDATASIZE SUB DUP2 ADD SWAP1 PUSH2 0x647 SWAP2 SWAP1 PUSH2 0x2CE7 JUMP JUMPDEST PUSH2 0x2169 JUMP JUMPDEST PUSH1 0x40 MLOAD PUSH2 0x659 SWAP2 SWAP1 PUSH2 0x31FF JUMP JUMPDEST PUSH1 0x40 MLOAD DUP1 SWAP2 SUB SWAP1 RETURN JUMPDEST CALLVALUE DUP1 ISZERO PUSH2 0x66E JUMPI PUSH1 0x0 DUP1 REVERT JUMPDEST POP PUSH2 0x677 PUSH2 0x219C JUMP JUMPDEST PUSH1 0x40 MLOAD PUSH2 0x684 SWAP2 SWAP1 PUSH2 0x3295 JUMP JUMPDEST PUSH1 0x40 MLOAD DUP1 SWAP2 SUB SWAP1 RETURN JUMPDEST CALLVALUE DUP1 ISZERO PUSH2 0x699 JUMPI PUSH1 0x0 DUP1 REVERT JUMPDEST POP PUSH2 0x6A2 PUSH2 0x21C2 JUMP JUMPDEST PUSH1 0x40 MLOAD PUSH2 0x6AF SWAP2 SWAP1 PUSH2 0x3592 JUMP JUMPDEST PUSH1 0x40 MLOAD DUP1 SWAP2 SUB SWAP1 RETURN JUMPDEST CALLVALUE DUP1 ISZERO PUSH2 0x6C4 JUMPI PUSH1 0x0 DUP1 REVERT JUMPDEST POP PUSH2 0x6DF PUSH1 0x4 DUP1 CALLDATASIZE SUB DUP2 ADD SWAP1 PUSH2 0x6DA SWAP2 SWAP1 PUSH2 0x2DB9 JUMP JUMPDEST PUSH2 0x21C8 JUMP JUMPDEST STOP JUMPDEST PUSH2 0x6E9 PUSH2 0x24F2 JUMP JUMPDEST PUSH20 0xFFFFFFFFFFFFFFFFFFFFFFFFFFFFFFFFFFFFFFFF AND PUSH2 0x707 PUSH2 0x15C4 JUMP JUMPDEST PUSH20 0xFFFFFFFFFFFFFFFFFFFFFFFFFFFFFFFFFFFFFFFF AND EQ PUSH2 0x75D JUMPI PUSH1 0x40 MLOAD PUSH32 0x8C379A000000000000000000000000000000000000000000000000000000000 DUP2 MSTORE PUSH1 0x4 ADD PUSH2 0x754 SWAP1 PUSH2 0x3452 JUMP JUMPDEST PUSH1 0x40 MLOAD DUP1 SWAP2 SUB SWAP1 REVERT JUMPDEST PUSH1 0x0 PUSH1 0x7 SLOAD EQ ISZERO PUSH2 0x7A3 JUMPI PUSH1 0x40 MLOAD PUSH32 0x8C379A000000000000000000000000000000000000000000000000000000000 DUP2 MSTORE PUSH1 0x4 ADD PUSH2 0x79A SWAP1 PUSH2 0x3532 JUMP JUMPDEST PUSH1 0x40 MLOAD DUP1 SWAP2 SUB SWAP1 REVERT JUMPDEST DUP1 PUSH1 0x8 DUP2 SWAP1 SSTORE POP POP JUMP JUMPDEST PUSH1 0x32 DUP2 JUMP JUMPDEST PUSH1 0x5A DUP2 JUMP JUMPDEST PUSH1 0x0 DUP1 PUSH20 0xFFFFFFFFFFFFFFFFFFFFFFFFFFFFFFFFFFFFFFFF AND PUSH1 0x1 PUSH1 0x0 SWAP1 SLOAD SWAP1 PUSH2 0x100 EXP SWAP1 DIV PUSH20 0xFFFFFFFFFFFFFFFFFFFFFFFFFFFFFFFFFFFFFFFF AND PUSH20 0xFFFFFFFFFFFFFFFFFFFFFFFFFFFFFFFFFFFFFFFF AND EQ ISZERO PUSH2 0x82B JUMPI PUSH2 0x824 PUSH1 0x6 SLOAD SELFBALANCE PUSH2 0x24FA SWAP1 SWAP2 SWAP1 PUSH4 0xFFFFFFFF AND JUMP JUMPDEST SWAP1 POP PUSH2 0x8ED JUMP JUMPDEST PUSH2 0x8EA PUSH1 0x6 SLOAD PUSH1 0x1 PUSH1 0x0 SWAP1 SLOAD SWAP1 PUSH2 0x100 EXP SWAP1 DIV PUSH20 0xFFFFFFFFFFFFFFFFFFFFFFFFFFFFFFFFFFFFFFFF AND PUSH20 0xFFFFFFFFFFFFFFFFFFFFFFFFFFFFFFFFFFFFFFFF AND PUSH4 0x70A08231 ADDRESS PUSH1 0x40 MLOAD DUP3 PUSH4 0xFFFFFFFF AND PUSH1 0xE0 SHL DUP2 MSTORE PUSH1 0x4 ADD PUSH2 0x88C SWAP2 SWAP1 PUSH2 0x31FF JUMP JUMPDEST PUSH1 0x20 PUSH1 0x40 MLOAD DUP1 DUP4 SUB DUP2 DUP7 DUP1 EXTCODESIZE ISZERO DUP1 ISZERO PUSH2 0x8A4 JUMPI PUSH1 0x0 DUP1 REVERT JUMPDEST POP GAS STATICCALL ISZERO DUP1 ISZERO PUSH2 0x8B8 JUMPI RETURNDATASIZE PUSH1 0x0 DUP1 RETURNDATACOPY RETURNDATASIZE PUSH1 0x0 REVERT JUMPDEST POP POP POP POP PUSH1 0x40 MLOAD RETURNDATASIZE PUSH1 0x1F NOT PUSH1 0x1F DUP3 ADD AND DUP3 ADD DUP1 PUSH1 0x40 MSTORE POP DUP2 ADD SWAP1 PUSH2 0x8DC SWAP2 SWAP1 PUSH2 0x2E13 JUMP JUMPDEST PUSH2 0x24FA SWAP1 SWAP2 SWAP1 PUSH4 0xFFFFFFFF AND JUMP JUMPDEST SWAP1 POP JUMPDEST SWAP1 JUMP JUMPDEST PUSH1 0x2 PUSH1 0x0 SWAP1 SLOAD SWAP1 PUSH2 0x100 EXP SWAP1 DIV PUSH20 0xFFFFFFFFFFFFFFFFFFFFFFFFFFFFFFFFFFFFFFFF AND DUP2 JUMP JUMPDEST PUSH1 0x0 PUSH1 0x7 SLOAD EQ ISZERO PUSH2 0x95C JUMPI PUSH1 0x40 MLOAD PUSH32 0x8C379A000000000000000000000000000000000000000000000000000000000 DUP2 MSTORE PUSH1 0x4 ADD PUSH2 0x953 SWAP1 PUSH2 0x34B2 JUMP JUMPDEST PUSH1 0x40 MLOAD DUP1 SWAP2 SUB SWAP1 REVERT JUMPDEST PUSH2 0x988 PUSH2 0x977 PUSH3 0x15180 PUSH1 0x8 SLOAD PUSH2 0x2510 SWAP1 SWAP2 SWAP1 PUSH4 0xFFFFFFFF AND JUMP JUMPDEST PUSH1 0x7 SLOAD PUSH2 0x2526 SWAP1 SWAP2 SWAP1 PUSH4 0xFFFFFFFF AND JUMP JUMPDEST TIMESTAMP LT ISZERO PUSH2 0x9CA JUMPI PUSH1 0x40 MLOAD PUSH32 0x8C379A000000000000000000000000000000000000000000000000000000000 DUP2 MSTORE PUSH1 0x4 ADD PUSH2 0x9C1 SWAP1 PUSH2 0x3352 JUMP JUMPDEST PUSH1 0x40 MLOAD DUP1 SWAP2 SUB SWAP1 REVERT JUMPDEST PUSH1 0x0 PUSH2 0x9D4 PUSH2 0x15F3 JUMP JUMPDEST SWAP1 POP PUSH1 0x0 DUP2 GT PUSH2 0xA19 JUMPI PUSH1 0x40 MLOAD PUSH32 0x8C379A000000000000000000000000000000000000000000000000000000000 DUP2 MSTORE PUSH1 0x4 ADD PUSH2 0xA10 SWAP1 PUSH2 0x3412 JUMP JUMPDEST PUSH1 0x40 MLOAD DUP1 SWAP2 SUB SWAP1 REVERT JUMPDEST PUSH1 0x1 PUSH1 0x0 SWAP1 SLOAD SWAP1 PUSH2 0x100 EXP SWAP1 DIV PUSH20 0xFFFFFFFFFFFFFFFFFFFFFFFFFFFFFFFFFFFFFFFF AND PUSH20 0xFFFFFFFFFFFFFFFFFFFFFFFFFFFFFFFFFFFFFFFF AND PUSH1 0xE PUSH1 0x0 CALLER PUSH20 0xFFFFFFFFFFFFFFFFFFFFFFFFFFFFFFFFFFFFFFFF AND PUSH20 0xFFFFFFFFFFFFFFFFFFFFFFFFFFFFFFFFFFFFFFFF AND DUP2 MSTORE PUSH1 0x20 ADD SWAP1 DUP2 MSTORE PUSH1 0x20 ADD PUSH1 0x0 KECCAK256 PUSH1 0x0 SWAP1 SLOAD SWAP1 PUSH2 0x100 EXP SWAP1 DIV PUSH20 0xFFFFFFFFFFFFFFFFFFFFFFFFFFFFFFFFFFFFFFFF AND PUSH20 0xFFFFFFFFFFFFFFFFFFFFFFFFFFFFFFFFFFFFFFFF AND EQ PUSH2 0xBF8 JUMPI PUSH1 0x1 PUSH1 0x0 SWAP1 SLOAD SWAP1 PUSH2 0x100 EXP SWAP1 DIV PUSH20 0xFFFFFFFFFFFFFFFFFFFFFFFFFFFFFFFFFFFFFFFF AND PUSH1 0xE PUSH1 0x0 CALLER PUSH20 0xFFFFFFFFFFFFFFFFFFFFFFFFFFFFFFFFFFFFFFFF AND PUSH20 0xFFFFFFFFFFFFFFFFFFFFFFFFFFFFFFFFFFFFFFFF AND DUP2 MSTORE PUSH1 0x20 ADD SWAP1 DUP2 MSTORE PUSH1 0x20 ADD PUSH1 0x0 KECCAK256 PUSH1 0x0 PUSH2 0x100 EXP DUP2 SLOAD DUP2 PUSH20 0xFFFFFFFFFFFFFFFFFFFFFFFFFFFFFFFFFFFFFFFF MUL NOT AND SWAP1 DUP4 PUSH20 0xFFFFFFFFFFFFFFFFFFFFFFFFFFFFFFFFFFFFFFFF AND MUL OR SWAP1 SSTORE POP PUSH1 0x0 PUSH1 0xC PUSH1 0x0 CALLER PUSH20 0xFFFFFFFFFFFFFFFFFFFFFFFFFFFFFFFFFFFFFFFF AND PUSH20 0xFFFFFFFFFFFFFFFFFFFFFFFFFFFFFFFFFFFFFFFF AND DUP2 MSTORE PUSH1 0x20 ADD SWAP1 DUP2 MSTORE PUSH1 0x20 ADD PUSH1 0x0 KECCAK256 DUP2 SWAP1 SSTORE POP PUSH1 0x0 PUSH1 0xD PUSH1 0x0 CALLER PUSH20 0xFFFFFFFFFFFFFFFFFFFFFFFFFFFFFFFFFFFFFFFF AND PUSH20 0xFFFFFFFFFFFFFFFFFFFFFFFFFFFFFFFFFFFFFFFF AND DUP2 MSTORE PUSH1 0x20 ADD SWAP1 DUP2 MSTORE PUSH1 0x20 ADD PUSH1 0x0 KECCAK256 DUP2 SWAP1 SSTORE POP JUMPDEST DUP1 PUSH1 0xC PUSH1 0x0 CALLER PUSH20 0xFFFFFFFFFFFFFFFFFFFFFFFFFFFFFFFFFFFFFFFF AND PUSH20 0xFFFFFFFFFFFFFFFFFFFFFFFFFFFFFFFFFFFFFFFF AND DUP2 MSTORE PUSH1 0x20 ADD SWAP1 DUP2 MSTORE PUSH1 0x20 ADD PUSH1 0x0 KECCAK256 SLOAD LT PUSH2 0xC79 JUMPI PUSH1 0x40 MLOAD PUSH32 0x8C379A000000000000000000000000000000000000000000000000000000000 DUP2 MSTORE PUSH1 0x4 ADD PUSH2 0xC70 SWAP1 PUSH2 0x3372 JUMP JUMPDEST PUSH1 0x40 MLOAD DUP1 SWAP2 SUB SWAP1 REVERT JUMPDEST PUSH1 0x6 SLOAD PUSH1 0x5 SLOAD GT PUSH2 0xF29 JUMPI PUSH1 0x0 PUSH1 0xC PUSH1 0x0 CALLER PUSH20 0xFFFFFFFFFFFFFFFFFFFFFFFFFFFFFFFFFFFFFFFF AND PUSH20 0xFFFFFFFFFFFFFFFFFFFFFFFFFFFFFFFFFFFFFFFF AND DUP2 MSTORE PUSH1 0x20 ADD SWAP1 DUP2 MSTORE PUSH1 0x20 ADD PUSH1 0x0 KECCAK256 SLOAD SWAP1 POP DUP2 PUSH1 0xC PUSH1 0x0 CALLER PUSH20 0xFFFFFFFFFFFFFFFFFFFFFFFFFFFFFFFFFFFFFFFF AND PUSH20 0xFFFFFFFFFFFFFFFFFFFFFFFFFFFFFFFFFFFFFFFF AND DUP2 MSTORE PUSH1 0x20 ADD SWAP1 DUP2 MSTORE PUSH1 0x20 ADD PUSH1 0x0 KECCAK256 DUP2 SWAP1 SSTORE POP PUSH1 0x0 PUSH2 0xDB4 PUSH1 0x3 SLOAD PUSH2 0xDA6 PUSH8 0xDE0B6B3A7640000 PUSH2 0xD98 PUSH2 0x3E8 PUSH2 0xD8A PUSH2 0xD3C DUP10 DUP12 PUSH2 0x24FA SWAP1 SWAP2 SWAP1 PUSH4 0xFFFFFFFF AND JUMP JUMPDEST PUSH1 0xB PUSH1 0x0 CALLER PUSH20 0xFFFFFFFFFFFFFFFFFFFFFFFFFFFFFFFFFFFFFFFF AND PUSH20 0xFFFFFFFFFFFFFFFFFFFFFFFFFFFFFFFFFFFFFFFF AND DUP2 MSTORE PUSH1 0x20 ADD SWAP1 DUP2 MSTORE PUSH1 0x20 ADD PUSH1 0x0 KECCAK256 SLOAD PUSH2 0x2510 SWAP1 SWAP2 SWAP1 PUSH4 0xFFFFFFFF AND JUMP JUMPDEST PUSH2 0x253C SWAP1 SWAP2 SWAP1 PUSH4 0xFFFFFFFF AND JUMP JUMPDEST PUSH2 0x2510 SWAP1 SWAP2 SWAP1 PUSH4 0xFFFFFFFF AND JUMP JUMPDEST PUSH2 0x253C SWAP1 SWAP2 SWAP1 PUSH4 0xFFFFFFFF AND JUMP JUMPDEST SWAP1 POP PUSH2 0xE08 DUP2 PUSH1 0xD PUSH1 0x0 CALLER PUSH20 0xFFFFFFFFFFFFFFFFFFFFFFFFFFFFFFFFFFFFFFFF AND PUSH20 0xFFFFFFFFFFFFFFFFFFFFFFFFFFFFFFFFFFFFFFFF AND DUP2 MSTORE PUSH1 0x20 ADD SWAP1 DUP2 MSTORE PUSH1 0x20 ADD PUSH1 0x0 KECCAK256 SLOAD PUSH2 0x2526 SWAP1 SWAP2 SWAP1 PUSH4 0xFFFFFFFF AND JUMP JUMPDEST PUSH1 0xD PUSH1 0x0 CALLER PUSH20 0xFFFFFFFFFFFFFFFFFFFFFFFFFFFFFFFFFFFFFFFF AND PUSH20 0xFFFFFFFFFFFFFFFFFFFFFFFFFFFFFFFFFFFFFFFF AND DUP2 MSTORE PUSH1 0x20 ADD SWAP1 DUP2 MSTORE PUSH1 0x20 ADD PUSH1 0x0 KECCAK256 DUP2 SWAP1 SSTORE POP PUSH1 0x0 PUSH20 0xFFFFFFFFFFFFFFFFFFFFFFFFFFFFFFFFFFFFFFFF AND PUSH1 0x1 PUSH1 0x0 SWAP1 SLOAD SWAP1 PUSH2 0x100 EXP SWAP1 DIV PUSH20 0xFFFFFFFFFFFFFFFFFFFFFFFFFFFFFFFFFFFFFFFF AND PUSH20 0xFFFFFFFFFFFFFFFFFFFFFFFFFFFFFFFFFFFFFFFF AND EQ PUSH2 0xED3 JUMPI PUSH2 0xECE PUSH1 0x1 PUSH1 0x0 SWAP1 SLOAD SWAP1 PUSH2 0x100 EXP SWAP1 DIV PUSH20 0xFFFFFFFFFFFFFFFFFFFFFFFFFFFFFFFFFFFFFFFF AND CALLER DUP4 PUSH2 0x2552 JUMP JUMPDEST PUSH2 0xEDE JUMP JUMPDEST PUSH2 0xEDD CALLER DUP3 PUSH2 0x2688 JUMP JUMPDEST JUMPDEST DUP1 CALLER PUSH20 0xFFFFFFFFFFFFFFFFFFFFFFFFFFFFFFFFFFFFFFFF AND PUSH32 0xD8138F8A3F377C5259CA548E70E4C2DE94F129F5A11036A15B69513CBA2B426A PUSH1 0x40 MLOAD PUSH1 0x40 MLOAD DUP1 SWAP2 SUB SWAP1 LOG3 POP POP PUSH2 0x1104 JUMP JUMPDEST PUSH2 0x3E8 PUSH1 0xC PUSH1 0x0 CALLER PUSH20 0xFFFFFFFFFFFFFFFFFFFFFFFFFFFFFFFFFFFFFFFF AND PUSH20 0xFFFFFFFFFFFFFFFFFFFFFFFFFFFFFFFFFFFFFFFF AND DUP2 MSTORE PUSH1 0x20 ADD SWAP1 DUP2 MSTORE PUSH1 0x20 ADD PUSH1 0x0 KECCAK256 DUP2 SWAP1 SSTORE POP PUSH1 0x0 PUSH20 0xFFFFFFFFFFFFFFFFFFFFFFFFFFFFFFFFFFFFFFFF AND PUSH1 0x2 PUSH1 0x0 SWAP1 SLOAD SWAP1 PUSH2 0x100 EXP SWAP1 DIV PUSH20 0xFFFFFFFFFFFFFFFFFFFFFFFFFFFFFFFFFFFFFFFF AND PUSH20 0xFFFFFFFFFFFFFFFFFFFFFFFFFFFFFFFFFFFFFFFF AND EQ PUSH2 0x1036 JUMPI PUSH2 0x1031 PUSH1 0x2 PUSH1 0x0 SWAP1 SLOAD SWAP1 PUSH2 0x100 EXP SWAP1 DIV PUSH20 0xFFFFFFFFFFFFFFFFFFFFFFFFFFFFFFFFFFFFFFFF AND CALLER PUSH1 0xB PUSH1 0x0 CALLER PUSH20 0xFFFFFFFFFFFFFFFFFFFFFFFFFFFFFFFFFFFFFFFF AND PUSH20 0xFFFFFFFFFFFFFFFFFFFFFFFFFFFFFFFFFFFFFFFF AND DUP2 MSTORE PUSH1 0x20 ADD SWAP1 DUP2 MSTORE PUSH1 0x20 ADD PUSH1 0x0 KECCAK256 SLOAD PUSH2 0x2552 JUMP JUMPDEST PUSH2 0x1080 JUMP JUMPDEST PUSH2 0x107F CALLER PUSH1 0xB PUSH1 0x0 CALLER PUSH20 0xFFFFFFFFFFFFFFFFFFFFFFFFFFFFFFFFFFFFFFFF AND PUSH20 0xFFFFFFFFFFFFFFFFFFFFFFFFFFFFFFFFFFFFFFFF AND DUP2 MSTORE PUSH1 0x20 ADD SWAP1 DUP2 MSTORE PUSH1 0x20 ADD PUSH1 0x0 KECCAK256 SLOAD PUSH2 0x2688 JUMP JUMPDEST JUMPDEST PUSH1 0xB PUSH1 0x0 CALLER PUSH20 0xFFFFFFFFFFFFFFFFFFFFFFFFFFFFFFFFFFFFFFFF AND PUSH20 0xFFFFFFFFFFFFFFFFFFFFFFFFFFFFFFFFFFFFFFFF AND DUP2 MSTORE PUSH1 0x20 ADD SWAP1 DUP2 MSTORE PUSH1 0x20 ADD PUSH1 0x0 KECCAK256 SLOAD CALLER PUSH20 0xFFFFFFFFFFFFFFFFFFFFFFFFFFFFFFFFFFFFFFFF AND PUSH32 0xD8138F8A3F377C5259CA548E70E4C2DE94F129F5A11036A15B69513CBA2B426A PUSH1 0x40 MLOAD PUSH1 0x40 MLOAD DUP1 SWAP2 SUB SWAP1 LOG3 JUMPDEST POP JUMP JUMPDEST PUSH2 0x110F PUSH2 0x24F2 JUMP JUMPDEST PUSH20 0xFFFFFFFFFFFFFFFFFFFFFFFFFFFFFFFFFFFFFFFF AND PUSH2 0x112D PUSH2 0x15C4 JUMP JUMPDEST PUSH20 0xFFFFFFFFFFFFFFFFFFFFFFFFFFFFFFFFFFFFFFFF AND EQ PUSH2 0x1183 JUMPI PUSH1 0x40 MLOAD PUSH32 0x8C379A000000000000000000000000000000000000000000000000000000000 DUP2 MSTORE PUSH1 0x4 ADD PUSH2 0x117A SWAP1 PUSH2 0x3452 JUMP JUMPDEST PUSH1 0x40 MLOAD DUP1 SWAP2 SUB SWAP1 REVERT JUMPDEST PUSH1 0x64 DUP3 MLOAD GT ISZERO PUSH2 0x11C8 JUMPI PUSH1 0x40 MLOAD PUSH32 0x8C379A000000000000000000000000000000000000000000000000000000000 DUP2 MSTORE PUSH1 0x4 ADD PUSH2 0x11BF SWAP1 PUSH2 0x33D2 JUMP JUMPDEST PUSH1 0x40 MLOAD DUP1 SWAP2 SUB SWAP1 REVERT JUMPDEST PUSH1 0x0 DUP1 JUMPDEST DUP4 MLOAD DUP2 LT ISZERO PUSH2 0x14B6 JUMPI PUSH1 0x1 PUSH1 0xA PUSH1 0x0 DUP7 DUP5 DUP2 MLOAD DUP2 LT PUSH2 0x11EE JUMPI PUSH2 0x11ED PUSH2 0x390C JUMP JUMPDEST JUMPDEST PUSH1 0x20 MUL PUSH1 0x20 ADD ADD MLOAD PUSH20 0xFFFFFFFFFFFFFFFFFFFFFFFFFFFFFFFFFFFFFFFF AND PUSH20 0xFFFFFFFFFFFFFFFFFFFFFFFFFFFFFFFFFFFFFFFF AND DUP2 MSTORE PUSH1 0x20 ADD SWAP1 DUP2 MSTORE PUSH1 0x20 ADD PUSH1 0x0 KECCAK256 PUSH1 0x0 PUSH2 0x100 EXP DUP2 SLOAD DUP2 PUSH1 0xFF MUL NOT AND SWAP1 DUP4 ISZERO ISZERO MUL OR SWAP1 SSTORE POP PUSH1 0x0 PUSH2 0x1292 PUSH1 0x3 SLOAD PUSH2 0x1284 PUSH8 0xDE0B6B3A7640000 DUP8 DUP7 DUP2 MLOAD DUP2 LT PUSH2 0x126E JUMPI PUSH2 0x126D PUSH2 0x390C JUMP JUMPDEST JUMPDEST PUSH1 0x20 MUL PUSH1 0x20 ADD ADD MLOAD PUSH2 0x2510 SWAP1 SWAP2 SWAP1 PUSH4 0xFFFFFFFF AND JUMP JUMPDEST PUSH2 0x253C SWAP1 SWAP2 SWAP1 PUSH4 0xFFFFFFFF AND JUMP JUMPDEST SWAP1 POP PUSH1 0x0 PUSH2 0x12B0 DUP3 PUSH2 0x12A2 PUSH2 0x7B7 JUMP JUMPDEST PUSH2 0x24FA SWAP1 SWAP2 SWAP1 PUSH4 0xFFFFFFFF AND JUMP JUMPDEST GT PUSH2 0x12F0 JUMPI PUSH1 0x40 MLOAD PUSH32 0x8C379A000000000000000000000000000000000000000000000000000000000 DUP2 MSTORE PUSH1 0x4 ADD PUSH2 0x12E7 SWAP1 PUSH2 0x3472 JUMP JUMPDEST PUSH1 0x40 MLOAD DUP1 SWAP2 SUB SWAP1 REVERT JUMPDEST PUSH2 0x1376 DUP5 DUP4 DUP2 MLOAD DUP2 LT PUSH2 0x1306 JUMPI PUSH2 0x1305 PUSH2 0x390C JUMP JUMPDEST JUMPDEST PUSH1 0x20 MUL PUSH1 0x20 ADD ADD MLOAD PUSH1 0xB PUSH1 0x0 DUP9 DUP7 DUP2 MLOAD DUP2 LT PUSH2 0x1325 JUMPI PUSH2 0x1324 PUSH2 0x390C JUMP JUMPDEST JUMPDEST PUSH1 0x20 MUL PUSH1 0x20 ADD ADD MLOAD PUSH20 0xFFFFFFFFFFFFFFFFFFFFFFFFFFFFFFFFFFFFFFFF AND PUSH20 0xFFFFFFFFFFFFFFFFFFFFFFFFFFFFFFFFFFFFFFFF AND DUP2 MSTORE PUSH1 0x20 ADD SWAP1 DUP2 MSTORE PUSH1 0x20 ADD PUSH1 0x0 KECCAK256 SLOAD PUSH2 0x2526 SWAP1 SWAP2 SWAP1 PUSH4 0xFFFFFFFF AND JUMP JUMPDEST PUSH1 0xB PUSH1 0x0 DUP8 DUP6 DUP2 MLOAD DUP2 LT PUSH2 0x138D JUMPI PUSH2 0x138C PUSH2 0x390C JUMP JUMPDEST JUMPDEST PUSH1 0x20 MUL PUSH1 0x20 ADD ADD MLOAD PUSH20 0xFFFFFFFFFFFFFFFFFFFFFFFFFFFFFFFFFFFFFFFF AND PUSH20 0xFFFFFFFFFFFFFFFFFFFFFFFFFFFFFFFFFFFFFFFF AND DUP2 MSTORE PUSH1 0x20 ADD SWAP1 DUP2 MSTORE PUSH1 0x20 ADD PUSH1 0x0 KECCAK256 DUP2 SWAP1 SSTORE POP PUSH2 0x13E6 DUP2 DUP5 PUSH2 0x2526 SWAP1 SWAP2 SWAP1 PUSH4 0xFFFFFFFF AND JUMP JUMPDEST SWAP3 POP PUSH1 0x2 PUSH1 0x0 SWAP1 SLOAD SWAP1 PUSH2 0x100 EXP SWAP1 DIV PUSH20 0xFFFFFFFFFFFFFFFFFFFFFFFFFFFFFFFFFFFFFFFF AND PUSH1 0xE PUSH1 0x0 DUP8 DUP6 DUP2 MLOAD DUP2 LT PUSH2 0x1422 JUMPI PUSH2 0x1421 PUSH2 0x390C JUMP JUMPDEST JUMPDEST PUSH1 0x20 MUL PUSH1 0x20 ADD ADD MLOAD PUSH20 0xFFFFFFFFFFFFFFFFFFFFFFFFFFFFFFFFFFFFFFFF AND PUSH20 0xFFFFFFFFFFFFFFFFFFFFFFFFFFFFFFFFFFFFFFFF AND DUP2 MSTORE PUSH1 0x20 ADD SWAP1 DUP2 MSTORE PUSH1 0x20 ADD PUSH1 0x0 KECCAK256 PUSH1 0x0 PUSH2 0x100 EXP DUP2 SLOAD DUP2 PUSH20 0xFFFFFFFFFFFFFFFFFFFFFFFFFFFFFFFFFFFFFFFF MUL NOT AND SWAP1 DUP4 PUSH20 0xFFFFFFFFFFFFFFFFFFFFFFFFFFFFFFFFFFFFFFFF AND MUL OR SWAP1 SSTORE POP POP DUP1 DUP1 PUSH2 0x14AE SWAP1 PUSH2 0x3865 JUMP JUMPDEST SWAP2 POP POP PUSH2 0x11CC JUMP JUMPDEST POP PUSH2 0x14CC DUP2 PUSH1 0x6 SLOAD PUSH2 0x2526 SWAP1 SWAP2 SWAP1 PUSH4 0xFFFFFFFF AND JUMP JUMPDEST PUSH1 0x6 DUP2 SWAP1 SSTORE POP DUP3 MLOAD PUSH32 0x6074084F4DBD9879D266F074BE61EB039A0DB2AA46E98E700223AD5C2BEF5BD5 PUSH1 0x40 MLOAD PUSH1 0x40 MLOAD DUP1 SWAP2 SUB SWAP1 LOG2 POP POP POP JUMP JUMPDEST PUSH1 0x6 SLOAD DUP2 JUMP JUMPDEST PUSH1 0xB PUSH1 0x20 MSTORE DUP1 PUSH1 0x0 MSTORE PUSH1 0x40 PUSH1 0x0 KECCAK256 PUSH1 0x0 SWAP2 POP SWAP1 POP SLOAD DUP2 JUMP JUMPDEST PUSH2 0x152B PUSH2 0x24F2 JUMP JUMPDEST PUSH20 0xFFFFFFFFFFFFFFFFFFFFFFFFFFFFFFFFFFFFFFFF AND PUSH2 0x1549 PUSH2 0x15C4 JUMP JUMPDEST PUSH20 0xFFFFFFFFFFFFFFFFFFFFFFFFFFFFFFFFFFFFFFFF AND EQ PUSH2 0x159F JUMPI PUSH1 0x40 MLOAD PUSH32 0x8C379A000000000000000000000000000000000000000000000000000000000 DUP2 MSTORE PUSH1 0x4 ADD PUSH2 0x1596 SWAP1 PUSH2 0x3452 JUMP JUMPDEST PUSH1 0x40 MLOAD DUP1 SWAP2 SUB SWAP1 REVERT JUMPDEST PUSH2 0x15A9 PUSH1 0x0 PUSH2 0x2788 JUMP JUMPDEST JUMP JUMPDEST PUSH1 0x3 SLOAD DUP2 JUMP JUMPDEST PUSH1 0x9 PUSH1 0x0 SWAP1 SLOAD SWAP1 PUSH2 0x100 EXP SWAP1 DIV PUSH1 0xFF AND DUP2 JUMP JUMPDEST PUSH1 0x0 DUP1 PUSH1 0x0 SWAP1 SLOAD SWAP1 PUSH2 0x100 EXP SWAP1 DIV PUSH20 0xFFFFFFFFFFFFFFFFFFFFFFFFFFFFFFFFFFFFFFFF AND SWAP1 POP SWAP1 JUMP JUMPDEST PUSH1 0x7 SLOAD DUP2 JUMP JUMPDEST PUSH1 0x0 DUP1 PUSH2 0x160C PUSH1 0x5A PUSH1 0x7 SLOAD PUSH2 0x2526 SWAP1 SWAP2 SWAP1 PUSH4 0xFFFFFFFF AND JUMP JUMPDEST SWAP1 POP PUSH1 0x0 PUSH2 0x1633 PUSH3 0x15180 PUSH1 0x8 SLOAD PUSH2 0x1624 SWAP2 SWAP1 PUSH2 0x36E3 JUMP JUMPDEST DUP4 PUSH2 0x2526 SWAP1 SWAP2 SWAP1 PUSH4 0xFFFFFFFF AND JUMP JUMPDEST SWAP1 POP PUSH1 0x0 DUP1 PUSH1 0x7 SLOAD GT DUP1 ISZERO PUSH2 0x1647 JUMPI POP DUP2 TIMESTAMP GT JUMPDEST PUSH2 0x1652 JUMPI PUSH1 0x64 PUSH2 0x16AD JUMP JUMPDEST PUSH2 0x16AC PUSH1 0x64 PUSH2 0x169E PUSH1 0x32 PUSH2 0x1690 PUSH3 0x15180 PUSH1 0x1E PUSH2 0x166F SWAP2 SWAP1 PUSH2 0x36E3 JUMP JUMPDEST PUSH2 0x1682 DUP9 TIMESTAMP PUSH2 0x24FA SWAP1 SWAP2 SWAP1 PUSH4 0xFFFFFFFF AND JUMP JUMPDEST PUSH2 0x253C SWAP1 SWAP2 SWAP1 PUSH4 0xFFFFFFFF AND JUMP JUMPDEST PUSH2 0x2510 SWAP1 SWAP2 SWAP1 PUSH4 0xFFFFFFFF AND JUMP JUMPDEST PUSH2 0x2526 SWAP1 SWAP2 SWAP1 PUSH4 0xFFFFFFFF AND JUMP JUMPDEST JUMPDEST SWAP1 POP PUSH2 0x3E8 DUP2 GT PUSH2 0x16BE JUMPI DUP1 PUSH2 0x16C2 JUMP JUMPDEST PUSH2 0x3E8 JUMPDEST SWAP4 POP POP POP POP SWAP1 JUMP JUMPDEST PUSH1 0x4 SLOAD DUP2 JUMP JUMPDEST PUSH1 0x64 DUP2 JUMP JUMPDEST PUSH1 0xD PUSH1 0x20 MSTORE DUP1 PUSH1 0x0 MSTORE PUSH1 0x40 PUSH1 0x0 KECCAK256 PUSH1 0x0 SWAP2 POP SWAP1 POP SLOAD DUP2 JUMP JUMPDEST PUSH1 0xC PUSH1 0x20 MSTORE DUP1 PUSH1 0x0 MSTORE PUSH1 0x40 PUSH1 0x0 KECCAK256 PUSH1 0x0 SWAP2 POP SWAP1 POP SLOAD DUP2 JUMP JUMPDEST PUSH2 0x170D PUSH2 0x24F2 JUMP JUMPDEST PUSH20 0xFFFFFFFFFFFFFFFFFFFFFFFFFFFFFFFFFFFFFFFF AND PUSH2 0x172B PUSH2 0x15C4 JUMP JUMPDEST PUSH20 0xFFFFFFFFFFFFFFFFFFFFFFFFFFFFFFFFFFFFFFFF AND EQ PUSH2 0x1781 JUMPI PUSH1 0x40 MLOAD PUSH32 0x8C379A000000000000000000000000000000000000000000000000000000000 DUP2 MSTORE PUSH1 0x4 ADD PUSH2 0x1778 SWAP1 PUSH2 0x3452 JUMP JUMPDEST PUSH1 0x40 MLOAD DUP1 SWAP2 SUB SWAP1 REVERT JUMPDEST PUSH1 0x9 PUSH1 0x0 SWAP1 SLOAD SWAP1 PUSH2 0x100 EXP SWAP1 DIV PUSH1 0xFF AND PUSH2 0x17D0 JUMPI PUSH1 0x40 MLOAD PUSH32 0x8C379A000000000000000000000000000000000000000000000000000000000 DUP2 MSTORE PUSH1 0x4 ADD PUSH2 0x17C7 SWAP1 PUSH2 0x32D2 JUMP JUMPDEST PUSH1 0x40 MLOAD DUP1 SWAP2 SUB SWAP1 REVERT JUMPDEST PUSH1 0x0 PUSH1 0x9 PUSH1 0x0 PUSH2 0x100 EXP DUP2 SLOAD DUP2 PUSH1 0xFF MUL NOT AND SWAP1 DUP4 ISZERO ISZERO MUL OR SWAP1 SSTORE POP JUMP JUMPDEST PUSH1 0xA PUSH1 0x20 MSTORE DUP1 PUSH1 0x0 MSTORE PUSH1 0x40 PUSH1 0x0 KECCAK256 PUSH1 0x0 SWAP2 POP SLOAD SWAP1 PUSH2 0x100 EXP SWAP1 DIV PUSH1 0xFF AND DUP2 JUMP JUMPDEST PUSH1 0x0 PUSH1 0x7 SLOAD EQ PUSH2 0x1852 JUMPI PUSH1 0x40 MLOAD PUSH32 0x8C379A000000000000000000000000000000000000000000000000000000000 DUP2 MSTORE PUSH1 0x4 ADD PUSH2 0x1849 SWAP1 PUSH2 0x3552 JUMP JUMPDEST PUSH1 0x40 MLOAD DUP1 SWAP2 SUB SWAP1 REVERT JUMPDEST PUSH1 0xA PUSH1 0x0 CALLER PUSH20 0xFFFFFFFFFFFFFFFFFFFFFFFFFFFFFFFFFFFFFFFF AND PUSH20 0xFFFFFFFFFFFFFFFFFFFFFFFFFFFFFFFFFFFFFFFF AND DUP2 MSTORE PUSH1 0x20 ADD SWAP1 DUP2 MSTORE PUSH1 0x20 ADD PUSH1 0x0 KECCAK256 PUSH1 0x0 SWAP1 SLOAD SWAP1 PUSH2 0x100 EXP SWAP1 DIV PUSH1 0xFF AND DUP1 PUSH2 0x18B7 JUMPI POP PUSH1 0x9 PUSH1 0x0 SWAP1 SLOAD SWAP1 PUSH2 0x100 EXP SWAP1 DIV PUSH1 0xFF AND ISZERO JUMPDEST PUSH2 0x18F6 JUMPI PUSH1 0x40 MLOAD PUSH32 0x8C379A000000000000000000000000000000000000000000000000000000000 DUP2 MSTORE PUSH1 0x4 ADD PUSH2 0x18ED SWAP1 PUSH2 0x33B2 JUMP JUMPDEST PUSH1 0x40 MLOAD DUP1 SWAP2 SUB SWAP1 REVERT JUMPDEST PUSH1 0x0 DUP1 PUSH20 0xFFFFFFFFFFFFFFFFFFFFFFFFFFFFFFFFFFFFFFFF AND PUSH1 0x2 PUSH1 0x0 SWAP1 SLOAD SWAP1 PUSH2 0x100 EXP SWAP1 DIV PUSH20 0xFFFFFFFFFFFFFFFFFFFFFFFFFFFFFFFFFFFFFFFF AND PUSH20 0xFFFFFFFFFFFFFFFFFFFFFFFFFFFFFFFFFFFFFFFF AND EQ SWAP1 POP DUP1 ISZERO DUP1 PUSH2 0x1957 JUMPI POP DUP2 CALLVALUE EQ JUMPDEST PUSH2 0x1996 JUMPI PUSH1 0x40 MLOAD PUSH32 0x8C379A000000000000000000000000000000000000000000000000000000000 DUP2 MSTORE PUSH1 0x4 ADD PUSH2 0x198D SWAP1 PUSH2 0x3572 JUMP JUMPDEST PUSH1 0x40 MLOAD DUP1 SWAP2 SUB SWAP1 REVERT JUMPDEST PUSH1 0x4 SLOAD PUSH2 0x19EB DUP4 PUSH1 0xB PUSH1 0x0 CALLER PUSH20 0xFFFFFFFFFFFFFFFFFFFFFFFFFFFFFFFFFFFFFFFF AND PUSH20 0xFFFFFFFFFFFFFFFFFFFFFFFFFFFFFFFFFFFFFFFF AND DUP2 MSTORE PUSH1 0x20 ADD SWAP1 DUP2 MSTORE PUSH1 0x20 ADD PUSH1 0x0 KECCAK256 SLOAD PUSH2 0x2526 SWAP1 SWAP2 SWAP1 PUSH4 0xFFFFFFFF AND JUMP JUMPDEST GT ISZERO PUSH2 0x1A2C JUMPI PUSH1 0x40 MLOAD PUSH32 0x8C379A000000000000000000000000000000000000000000000000000000000 DUP2 MSTORE PUSH1 0x4 ADD PUSH2 0x1A23 SWAP1 PUSH2 0x3312 JUMP JUMPDEST PUSH1 0x40 MLOAD DUP1 SWAP2 SUB SWAP1 REVERT JUMPDEST PUSH1 0x0 PUSH2 0x1A5D PUSH1 0x3 SLOAD PUSH2 0x1A4F PUSH8 0xDE0B6B3A7640000 DUP7 PUSH2 0x2510 SWAP1 SWAP2 SWAP1 PUSH4 0xFFFFFFFF AND JUMP JUMPDEST PUSH2 0x253C SWAP1 SWAP2 SWAP1 PUSH4 0xFFFFFFFF AND JUMP JUMPDEST SWAP1 POP PUSH1 0x0 PUSH2 0x1A7B DUP3 PUSH2 0x1A6D PUSH2 0x7B7 JUMP JUMPDEST PUSH2 0x24FA SWAP1 SWAP2 SWAP1 PUSH4 0xFFFFFFFF AND JUMP JUMPDEST GT PUSH2 0x1ABB JUMPI PUSH1 0x40 MLOAD PUSH32 0x8C379A000000000000000000000000000000000000000000000000000000000 DUP2 MSTORE PUSH1 0x4 ADD PUSH2 0x1AB2 SWAP1 PUSH2 0x3472 JUMP JUMPDEST PUSH1 0x40 MLOAD DUP1 SWAP2 SUB SWAP1 REVERT JUMPDEST DUP2 PUSH2 0x1B10 JUMPI PUSH2 0x1B0F CALLER ADDRESS DUP6 PUSH1 0x2 PUSH1 0x0 SWAP1 SLOAD SWAP1 PUSH2 0x100 EXP SWAP1 DIV PUSH20 0xFFFFFFFFFFFFFFFFFFFFFFFFFFFFFFFFFFFFFFFF AND PUSH20 0xFFFFFFFFFFFFFFFFFFFFFFFFFFFFFFFFFFFFFFFF AND PUSH2 0x284C SWAP1 SWAP4 SWAP3 SWAP2 SWAP1 PUSH4 0xFFFFFFFF AND JUMP JUMPDEST JUMPDEST PUSH2 0x1B62 DUP4 PUSH1 0xB PUSH1 0x0 CALLER PUSH20 0xFFFFFFFFFFFFFFFFFFFFFFFFFFFFFFFFFFFFFFFF AND PUSH20 0xFFFFFFFFFFFFFFFFFFFFFFFFFFFFFFFFFFFFFFFF AND DUP2 MSTORE PUSH1 0x20 ADD SWAP1 DUP2 MSTORE PUSH1 0x20 ADD PUSH1 0x0 KECCAK256 SLOAD PUSH2 0x2526 SWAP1 SWAP2 SWAP1 PUSH4 0xFFFFFFFF AND JUMP JUMPDEST PUSH1 0xB PUSH1 0x0 CALLER PUSH20 0xFFFFFFFFFFFFFFFFFFFFFFFFFFFFFFFFFFFFFFFF AND PUSH20 0xFFFFFFFFFFFFFFFFFFFFFFFFFFFFFFFFFFFFFFFF AND DUP2 MSTORE PUSH1 0x20 ADD SWAP1 DUP2 MSTORE PUSH1 0x20 ADD PUSH1 0x0 KECCAK256 DUP2 SWAP1 SSTORE POP PUSH2 0x1BBA DUP2 PUSH1 0x6 SLOAD PUSH2 0x2526 SWAP1 SWAP2 SWAP1 PUSH4 0xFFFFFFFF AND JUMP JUMPDEST PUSH1 0x6 DUP2 SWAP1 SSTORE POP PUSH1 0x2 PUSH1 0x0 SWAP1 SLOAD SWAP1 PUSH2 0x100 EXP SWAP1 DIV PUSH20 0xFFFFFFFFFFFFFFFFFFFFFFFFFFFFFFFFFFFFFFFF AND PUSH1 0xE PUSH1 0x0 CALLER PUSH20 0xFFFFFFFFFFFFFFFFFFFFFFFFFFFFFFFFFFFFFFFF AND PUSH20 0xFFFFFFFFFFFFFFFFFFFFFFFFFFFFFFFFFFFFFFFF AND DUP2 MSTORE PUSH1 0x20 ADD SWAP1 DUP2 MSTORE PUSH1 0x20 ADD PUSH1 0x0 KECCAK256 PUSH1 0x0 PUSH2 0x100 EXP DUP2 SLOAD DUP2 PUSH20 0xFFFFFFFFFFFFFFFFFFFFFFFFFFFFFFFFFFFFFFFF MUL NOT AND SWAP1 DUP4 PUSH20 0xFFFFFFFFFFFFFFFFFFFFFFFFFFFFFFFFFFFFFFFF AND MUL OR SWAP1 SSTORE POP DUP3 CALLER PUSH20 0xFFFFFFFFFFFFFFFFFFFFFFFFFFFFFFFFFFFFFFFF AND PUSH32 0xC55650CCDA1011E1CDC769B1FBF546EBB8C97800B6072B49E06CD560305B1D67 PUSH1 0x40 MLOAD PUSH1 0x40 MLOAD DUP1 SWAP2 SUB SWAP1 LOG3 POP POP POP JUMP JUMPDEST PUSH1 0x8 SLOAD DUP2 JUMP JUMPDEST PUSH1 0x1E DUP2 JUMP JUMPDEST PUSH2 0x1CBC PUSH2 0x24F2 JUMP JUMPDEST PUSH20 0xFFFFFFFFFFFFFFFFFFFFFFFFFFFFFFFFFFFFFFFF AND PUSH2 0x1CDA PUSH2 0x15C4 JUMP JUMPDEST PUSH20 0xFFFFFFFFFFFFFFFFFFFFFFFFFFFFFFFFFFFFFFFF AND EQ PUSH2 0x1D30 JUMPI PUSH1 0x40 MLOAD PUSH32 0x8C379A000000000000000000000000000000000000000000000000000000000 DUP2 MSTORE PUSH1 0x4 ADD PUSH2 0x1D27 SWAP1 PUSH2 0x3452 JUMP JUMPDEST PUSH1 0x40 MLOAD DUP1 SWAP2 SUB SWAP1 REVERT JUMPDEST PUSH1 0x0 PUSH1 0x7 SLOAD EQ PUSH2 0x1D75 JUMPI PUSH1 0x40 MLOAD PUSH32 0x8C379A000000000000000000000000000000000000000000000000000000000 DUP2 MSTORE PUSH1 0x4 ADD PUSH2 0x1D6C SWAP1 PUSH2 0x34F2 JUMP JUMPDEST PUSH1 0x40 MLOAD DUP1 SWAP2 SUB SWAP1 REVERT JUMPDEST TIMESTAMP PUSH1 0x7 DUP2 SWAP1 SSTORE POP PUSH1 0x6 SLOAD PUSH1 0x5 SLOAD GT PUSH2 0x1ED0 JUMPI DUP1 PUSH1 0x8 DUP2 SWAP1 SSTORE POP PUSH1 0x0 PUSH20 0xFFFFFFFFFFFFFFFFFFFFFFFFFFFFFFFFFFFFFFFF AND PUSH1 0x2 PUSH1 0x0 SWAP1 SLOAD SWAP1 PUSH2 0x100 EXP SWAP1 DIV PUSH20 0xFFFFFFFFFFFFFFFFFFFFFFFFFFFFFFFFFFFFFFFF AND PUSH20 0xFFFFFFFFFFFFFFFFFFFFFFFFFFFFFFFFFFFFFFFF AND EQ PUSH2 0x1EC0 JUMPI PUSH2 0x1EBB PUSH1 0x2 PUSH1 0x0 SWAP1 SLOAD SWAP1 PUSH2 0x100 EXP SWAP1 DIV PUSH20 0xFFFFFFFFFFFFFFFFFFFFFFFFFFFFFFFFFFFFFFFF AND CALLER PUSH1 0x2 PUSH1 0x0 SWAP1 SLOAD SWAP1 PUSH2 0x100 EXP SWAP1 DIV PUSH20 0xFFFFFFFFFFFFFFFFFFFFFFFFFFFFFFFFFFFFFFFF AND PUSH20 0xFFFFFFFFFFFFFFFFFFFFFFFFFFFFFFFFFFFFFFFF AND PUSH4 0x70A08231 ADDRESS PUSH1 0x40 MLOAD DUP3 PUSH4 0xFFFFFFFF AND PUSH1 0xE0 SHL DUP2 MSTORE PUSH1 0x4 ADD PUSH2 0x1E66 SWAP2 SWAP1 PUSH2 0x31FF JUMP JUMPDEST PUSH1 0x20 PUSH1 0x40 MLOAD DUP1 DUP4 SUB DUP2 DUP7 DUP1 EXTCODESIZE ISZERO DUP1 ISZERO PUSH2 0x1E7E JUMPI PUSH1 0x0 DUP1 REVERT JUMPDEST POP GAS STATICCALL ISZERO DUP1 ISZERO PUSH2 0x1E92 JUMPI RETURNDATASIZE PUSH1 0x0 DUP1 RETURNDATACOPY RETURNDATASIZE PUSH1 0x0 REVERT JUMPDEST POP POP POP POP PUSH1 0x40 MLOAD RETURNDATASIZE PUSH1 0x1F NOT PUSH1 0x1F DUP3 ADD AND DUP3 ADD DUP1 PUSH1 0x40 MSTORE POP DUP2 ADD SWAP1 PUSH2 0x1EB6 SWAP2 SWAP1 PUSH2 0x2E13 JUMP JUMPDEST PUSH2 0x2552 JUMP JUMPDEST PUSH2 0x1ECB JUMP JUMPDEST PUSH2 0x1ECA CALLER SELFBALANCE PUSH2 0x2688 JUMP JUMPDEST JUMPDEST PUSH2 0x2016 JUMP JUMPDEST PUSH1 0x0 PUSH1 0x8 DUP2 SWAP1 SSTORE POP PUSH1 0x0 PUSH20 0xFFFFFFFFFFFFFFFFFFFFFFFFFFFFFFFFFFFFFFFF AND PUSH1 0x1 PUSH1 0x0 SWAP1 SLOAD SWAP1 PUSH2 0x100 EXP SWAP1 DIV PUSH20 0xFFFFFFFFFFFFFFFFFFFFFFFFFFFFFFFFFFFFFFFF AND PUSH20 0xFFFFFFFFFFFFFFFFFFFFFFFFFFFFFFFFFFFFFFFF AND EQ PUSH2 0x200A JUMPI PUSH2 0x2005 PUSH1 0x1 PUSH1 0x0 SWAP1 SLOAD SWAP1 PUSH2 0x100 EXP SWAP1 DIV PUSH20 0xFFFFFFFFFFFFFFFFFFFFFFFFFFFFFFFFFFFFFFFF AND CALLER PUSH1 0x1 PUSH1 0x0 SWAP1 SLOAD SWAP1 PUSH2 0x100 EXP SWAP1 DIV PUSH20 0xFFFFFFFFFFFFFFFFFFFFFFFFFFFFFFFFFFFFFFFF AND PUSH20 0xFFFFFFFFFFFFFFFFFFFFFFFFFFFFFFFFFFFFFFFF AND PUSH4 0x70A08231 ADDRESS PUSH1 0x40 MLOAD DUP3 PUSH4 0xFFFFFFFF AND PUSH1 0xE0 SHL DUP2 MSTORE PUSH1 0x4 ADD PUSH2 0x1FB0 SWAP2 SWAP1 PUSH2 0x31FF JUMP JUMPDEST PUSH1 0x20 PUSH1 0x40 MLOAD DUP1 DUP4 SUB DUP2 DUP7 DUP1 EXTCODESIZE ISZERO DUP1 ISZERO PUSH2 0x1FC8 JUMPI PUSH1 0x0 DUP1 REVERT JUMPDEST POP GAS STATICCALL ISZERO DUP1 ISZERO PUSH2 0x1FDC JUMPI RETURNDATASIZE PUSH1 0x0 DUP1 RETURNDATACOPY RETURNDATASIZE PUSH1 0x0 REVERT JUMPDEST POP POP POP POP PUSH1 0x40 MLOAD RETURNDATASIZE PUSH1 0x1F NOT PUSH1 0x1F DUP3 ADD AND DUP3 ADD DUP1 PUSH1 0x40 MSTORE POP DUP2 ADD SWAP1 PUSH2 0x2000 SWAP2 SWAP1 PUSH2 0x2E13 JUMP JUMPDEST PUSH2 0x2552 JUMP JUMPDEST PUSH2 0x2015 JUMP JUMPDEST PUSH2 0x2014 CALLER SELFBALANCE PUSH2 0x2688 JUMP JUMPDEST JUMPDEST JUMPDEST PUSH2 0x2042 PUSH2 0x2031 PUSH3 0x15180 PUSH1 0x8 SLOAD PUSH2 0x2510 SWAP1 SWAP2 SWAP1 PUSH4 0xFFFFFFFF AND JUMP JUMPDEST PUSH1 0x7 SLOAD PUSH2 0x2526 SWAP1 SWAP2 SWAP1 PUSH4 0xFFFFFFFF AND JUMP JUMPDEST PUSH32 0x94BB74A9473AE4063EC1E73DC3E35FD4B5ABE9CC1E43AD0DB84E5358559CCD5A PUSH1 0x40 MLOAD PUSH1 0x40 MLOAD DUP1 SWAP2 SUB SWAP1 LOG2 POP JUMP JUMPDEST PUSH2 0x2079 PUSH2 0x24F2 JUMP JUMPDEST PUSH20 0xFFFFFFFFFFFFFFFFFFFFFFFFFFFFFFFFFFFFFFFF AND PUSH2 0x2097 PUSH2 0x15C4 JUMP JUMPDEST PUSH20 0xFFFFFFFFFFFFFFFFFFFFFFFFFFFFFFFFFFFFFFFF AND EQ PUSH2 0x20ED JUMPI PUSH1 0x40 MLOAD PUSH32 0x8C379A000000000000000000000000000000000000000000000000000000000 DUP2 MSTORE PUSH1 0x4 ADD PUSH2 0x20E4 SWAP1 PUSH2 0x3452 JUMP JUMPDEST PUSH1 0x40 MLOAD DUP1 SWAP2 SUB SWAP1 REVERT JUMPDEST PUSH1 0x0 PUSH20 0xFFFFFFFFFFFFFFFFFFFFFFFFFFFFFFFFFFFFFFFF AND DUP2 PUSH20 0xFFFFFFFFFFFFFFFFFFFFFFFFFFFFFFFFFFFFFFFF AND EQ ISZERO PUSH2 0x215D JUMPI PUSH1 0x40 MLOAD PUSH32 0x8C379A000000000000000000000000000000000000000000000000000000000 DUP2 MSTORE PUSH1 0x4 ADD PUSH2 0x2154 SWAP1 PUSH2 0x32F2 JUMP JUMPDEST PUSH1 0x40 MLOAD DUP1 SWAP2 SUB SWAP1 REVERT JUMPDEST PUSH2 0x2166 DUP2 PUSH2 0x2788 JUMP JUMPDEST POP JUMP JUMPDEST PUSH1 0xE PUSH1 0x20 MSTORE DUP1 PUSH1 0x0 MSTORE PUSH1 0x40 PUSH1 0x0 KECCAK256 PUSH1 0x0 SWAP2 POP SLOAD SWAP1 PUSH2 0x100 EXP SWAP1 DIV PUSH20 0xFFFFFFFFFFFFFFFFFFFFFFFFFFFFFFFFFFFFFFFF AND DUP2 JUMP JUMPDEST PUSH1 0x1 PUSH1 0x0 SWAP1 SLOAD SWAP1 PUSH2 0x100 EXP SWAP1 DIV PUSH20 0xFFFFFFFFFFFFFFFFFFFFFFFFFFFFFFFFFFFFFFFF AND DUP2 JUMP JUMPDEST PUSH1 0x5 SLOAD DUP2 JUMP JUMPDEST PUSH2 0x21D0 PUSH2 0x24F2 JUMP JUMPDEST PUSH20 0xFFFFFFFFFFFFFFFFFFFFFFFFFFFFFFFFFFFFFFFF AND PUSH2 0x21EE PUSH2 0x15C4 JUMP JUMPDEST PUSH20 0xFFFFFFFFFFFFFFFFFFFFFFFFFFFFFFFFFFFFFFFF AND EQ PUSH2 0x2244 JUMPI PUSH1 0x40 MLOAD PUSH32 0x8C379A000000000000000000000000000000000000000000000000000000000 DUP2 MSTORE PUSH1 0x4 ADD PUSH2 0x223B SWAP1 PUSH2 0x3452 JUMP JUMPDEST PUSH1 0x40 MLOAD DUP1 SWAP2 SUB SWAP1 REVERT JUMPDEST PUSH1 0x1 PUSH1 0x0 SWAP1 SLOAD SWAP1 PUSH2 0x100 EXP SWAP1 DIV PUSH20 0xFFFFFFFFFFFFFFFFFFFFFFFFFFFFFFFFFFFFFFFF AND PUSH20 0xFFFFFFFFFFFFFFFFFFFFFFFFFFFFFFFFFFFFFFFF AND DUP2 PUSH20 0xFFFFFFFFFFFFFFFFFFFFFFFFFFFFFFFFFFFFFFFF AND EQ ISZERO PUSH2 0x22D5 JUMPI PUSH1 0x40 MLOAD PUSH32 0x8C379A000000000000000000000000000000000000000000000000000000000 DUP2 MSTORE PUSH1 0x4 ADD PUSH2 0x22CC SWAP1 PUSH2 0x33F2 JUMP JUMPDEST PUSH1 0x40 MLOAD DUP1 SWAP2 SUB SWAP1 REVERT JUMPDEST PUSH1 0x1 PUSH1 0x0 SWAP1 SLOAD SWAP1 PUSH2 0x100 EXP SWAP1 DIV PUSH20 0xFFFFFFFFFFFFFFFFFFFFFFFFFFFFFFFFFFFFFFFF AND PUSH20 0xFFFFFFFFFFFFFFFFFFFFFFFFFFFFFFFFFFFFFFFF AND PUSH4 0x70A08231 ADDRESS PUSH1 0x40 MLOAD DUP3 PUSH4 0xFFFFFFFF AND PUSH1 0xE0 SHL DUP2 MSTORE PUSH1 0x4 ADD PUSH2 0x2330 SWAP2 SWAP1 PUSH2 0x31FF JUMP JUMPDEST PUSH1 0x20 PUSH1 0x40 MLOAD DUP1 DUP4 SUB DUP2 DUP7 DUP1 EXTCODESIZE ISZERO DUP1 ISZERO PUSH2 0x2348 JUMPI PUSH1 0x0 DUP1 REVERT JUMPDEST POP GAS STATICCALL ISZERO DUP1 ISZERO PUSH2 0x235C JUMPI RETURNDATASIZE PUSH1 0x0 DUP1 RETURNDATACOPY RETURNDATASIZE PUSH1 0x0 REVERT JUMPDEST POP POP POP POP PUSH1 0x40 MLOAD RETURNDATASIZE PUSH1 0x1F NOT PUSH1 0x1F DUP3 ADD AND DUP3 ADD DUP1 PUSH1 0x40 MSTORE POP DUP2 ADD SWAP1 PUSH2 0x2380 SWAP2 SWAP1 PUSH2 0x2E13 JUMP JUMPDEST DUP2 PUSH20 0xFFFFFFFFFFFFFFFFFFFFFFFFFFFFFFFFFFFFFFFF AND PUSH4 0x70A08231 ADDRESS PUSH1 0x40 MLOAD DUP3 PUSH4 0xFFFFFFFF AND PUSH1 0xE0 SHL DUP2 MSTORE PUSH1 0x4 ADD PUSH2 0x23B9 SWAP2 SWAP1 PUSH2 0x31FF JUMP JUMPDEST PUSH1 0x20 PUSH1 0x40 MLOAD DUP1 DUP4 SUB DUP2 DUP7 DUP1 EXTCODESIZE ISZERO DUP1 ISZERO PUSH2 0x23D1 JUMPI PUSH1 0x0 DUP1 REVERT JUMPDEST POP GAS STATICCALL ISZERO DUP1 ISZERO PUSH2 0x23E5 JUMPI RETURNDATASIZE PUSH1 0x0 DUP1 RETURNDATACOPY RETURNDATASIZE PUSH1 0x0 REVERT JUMPDEST POP POP POP POP PUSH1 0x40 MLOAD RETURNDATASIZE PUSH1 0x1F NOT PUSH1 0x1F DUP3 ADD AND DUP3 ADD DUP1 PUSH1 0x40 MSTORE POP DUP2 ADD SWAP1 PUSH2 0x2409 SWAP2 SWAP1 PUSH2 0x2E13 JUMP JUMPDEST EQ PUSH2 0x2449 JUMPI PUSH1 0x40 MLOAD PUSH32 0x8C379A000000000000000000000000000000000000000000000000000000000 DUP2 MSTORE PUSH1 0x4 ADD PUSH2 0x2440 SWAP1 PUSH2 0x3432 JUMP JUMPDEST PUSH1 0x40 MLOAD DUP1 SWAP2 SUB SWAP1 REVERT JUMPDEST DUP1 PUSH1 0x1 PUSH1 0x0 PUSH2 0x100 EXP DUP2 SLOAD DUP2 PUSH20 0xFFFFFFFFFFFFFFFFFFFFFFFFFFFFFFFFFFFFFFFF MUL NOT AND SWAP1 DUP4 PUSH20 0xFFFFFFFFFFFFFFFFFFFFFFFFFFFFFFFFFFFFFFFF AND MUL OR SWAP1 SSTORE POP PUSH1 0x1 PUSH1 0x0 SWAP1 SLOAD SWAP1 PUSH2 0x100 EXP SWAP1 DIV PUSH20 0xFFFFFFFFFFFFFFFFFFFFFFFFFFFFFFFFFFFFFFFF AND PUSH20 0xFFFFFFFFFFFFFFFFFFFFFFFFFFFFFFFFFFFFFFFF AND PUSH32 0x3FCFC24A3384CA156092D9242CB0F84ABAF442146D91B8C93BEA526561B83F83 PUSH1 0x40 MLOAD PUSH1 0x40 MLOAD DUP1 SWAP2 SUB SWAP1 LOG2 POP JUMP JUMPDEST PUSH1 0x0 CALLER SWAP1 POP SWAP1 JUMP JUMPDEST PUSH1 0x0 DUP2 DUP4 PUSH2 0x2508 SWAP2 SWAP1 PUSH2 0x373D JUMP JUMPDEST SWAP1 POP SWAP3 SWAP2 POP POP JUMP JUMPDEST PUSH1 0x0 DUP2 DUP4 PUSH2 0x251E SWAP2 SWAP1 PUSH2 0x36E3 JUMP JUMPDEST SWAP1 POP SWAP3 SWAP2 POP POP JUMP JUMPDEST PUSH1 0x0 DUP2 DUP4 PUSH2 0x2534 SWAP2 SWAP1 PUSH2 0x365C JUMP JUMPDEST SWAP1 POP SWAP3 SWAP2 POP POP JUMP JUMPDEST PUSH1 0x0 DUP2 DUP4 PUSH2 0x254A SWAP2 SWAP1 PUSH2 0x36B2 JUMP JUMPDEST SWAP1 POP SWAP3 SWAP2 POP POP JUMP JUMPDEST PUSH1 0x0 DUP1 DUP5 PUSH20 0xFFFFFFFFFFFFFFFFFFFFFFFFFFFFFFFFFFFFFFFF AND PUSH4 0xA9059CBB DUP6 DUP6 PUSH1 0x40 MLOAD PUSH1 0x24 ADD PUSH2 0x2584 SWAP3 SWAP2 SWAP1 PUSH2 0x3251 JUMP JUMPDEST PUSH1 0x40 MLOAD PUSH1 0x20 DUP2 DUP4 SUB SUB DUP2 MSTORE SWAP1 PUSH1 0x40 MSTORE SWAP1 PUSH1 0xE0 SHL PUSH1 0x20 DUP3 ADD DUP1 MLOAD PUSH28 0xFFFFFFFFFFFFFFFFFFFFFFFFFFFFFFFFFFFFFFFFFFFFFFFFFFFFFFFF DUP4 DUP2 DUP4 AND OR DUP4 MSTORE POP POP POP POP PUSH1 0x40 MLOAD PUSH2 0x25D2 SWAP2 SWAP1 PUSH2 0x31E8 JUMP JUMPDEST PUSH1 0x0 PUSH1 0x40 MLOAD DUP1 DUP4 SUB DUP2 PUSH1 0x0 DUP7 GAS CALL SWAP2 POP POP RETURNDATASIZE DUP1 PUSH1 0x0 DUP2 EQ PUSH2 0x260F JUMPI PUSH1 0x40 MLOAD SWAP2 POP PUSH1 0x1F NOT PUSH1 0x3F RETURNDATASIZE ADD AND DUP3 ADD PUSH1 0x40 MSTORE RETURNDATASIZE DUP3 MSTORE RETURNDATASIZE PUSH1 0x0 PUSH1 0x20 DUP5 ADD RETURNDATACOPY PUSH2 0x2614 JUMP JUMPDEST PUSH1 0x60 SWAP2 POP JUMPDEST POP SWAP2 POP SWAP2 POP DUP2 DUP1 ISZERO PUSH2 0x2642 JUMPI POP PUSH1 0x0 DUP2 MLOAD EQ DUP1 PUSH2 0x2641 JUMPI POP DUP1 DUP1 PUSH1 0x20 ADD SWAP1 MLOAD DUP2 ADD SWAP1 PUSH2 0x2640 SWAP2 SWAP1 PUSH2 0x2D8C JUMP JUMPDEST JUMPDEST JUMPDEST PUSH2 0x2681 JUMPI PUSH1 0x40 MLOAD PUSH32 0x8C379A000000000000000000000000000000000000000000000000000000000 DUP2 MSTORE PUSH1 0x4 ADD PUSH2 0x2678 SWAP1 PUSH2 0x34D2 JUMP JUMPDEST PUSH1 0x40 MLOAD DUP1 SWAP2 SUB SWAP1 REVERT JUMPDEST POP POP POP POP POP JUMP JUMPDEST PUSH1 0x0 DUP3 PUSH20 0xFFFFFFFFFFFFFFFFFFFFFFFFFFFFFFFFFFFFFFFF AND DUP3 PUSH1 0x0 PUSH8 0xFFFFFFFFFFFFFFFF DUP2 GT ISZERO PUSH2 0x26BD JUMPI PUSH2 0x26BC PUSH2 0x393B JUMP JUMPDEST JUMPDEST PUSH1 0x40 MLOAD SWAP1 DUP1 DUP3 MSTORE DUP1 PUSH1 0x1F ADD PUSH1 0x1F NOT AND PUSH1 0x20 ADD DUP3 ADD PUSH1 0x40 MSTORE DUP1 ISZERO PUSH2 0x26EF JUMPI DUP2 PUSH1 0x20 ADD PUSH1 0x1 DUP3 MUL DUP1 CALLDATASIZE DUP4 CALLDATACOPY DUP1 DUP3 ADD SWAP2 POP POP SWAP1 POP JUMPDEST POP PUSH1 0x40 MLOAD PUSH2 0x26FD SWAP2 SWAP1 PUSH2 0x31E8 JUMP JUMPDEST PUSH1 0x0 PUSH1 0x40 MLOAD DUP1 DUP4 SUB DUP2 DUP6 DUP8 GAS CALL SWAP3 POP POP POP RETURNDATASIZE DUP1 PUSH1 0x0 DUP2 EQ PUSH2 0x273A JUMPI PUSH1 0x40 MLOAD SWAP2 POP PUSH1 0x1F NOT PUSH1 0x3F RETURNDATASIZE ADD AND DUP3 ADD PUSH1 0x40 MSTORE RETURNDATASIZE DUP3 MSTORE RETURNDATASIZE PUSH1 0x0 PUSH1 0x20 DUP5 ADD RETURNDATACOPY PUSH2 0x273F JUMP JUMPDEST PUSH1 0x60 SWAP2 POP JUMPDEST POP POP SWAP1 POP DUP1 PUSH2 0x2783 JUMPI PUSH1 0x40 MLOAD PUSH32 0x8C379A000000000000000000000000000000000000000000000000000000000 DUP2 MSTORE PUSH1 0x4 ADD PUSH2 0x277A SWAP1 PUSH2 0x3332 JUMP JUMPDEST PUSH1 0x40 MLOAD DUP1 SWAP2 SUB SWAP1 REVERT JUMPDEST POP POP POP JUMP JUMPDEST PUSH1 0x0 DUP1 PUSH1 0x0 SWAP1 SLOAD SWAP1 PUSH2 0x100 EXP SWAP1 DIV PUSH20 0xFFFFFFFFFFFFFFFFFFFFFFFFFFFFFFFFFFFFFFFF AND SWAP1 POP DUP2 PUSH1 0x0 DUP1 PUSH2 0x100 EXP DUP2 SLOAD DUP2 PUSH20 0xFFFFFFFFFFFFFFFFFFFFFFFFFFFFFFFFFFFFFFFF MUL NOT AND SWAP1 DUP4 PUSH20 0xFFFFFFFFFFFFFFFFFFFFFFFFFFFFFFFFFFFFFFFF AND MUL OR SWAP1 SSTORE POP DUP2 PUSH20 0xFFFFFFFFFFFFFFFFFFFFFFFFFFFFFFFFFFFFFFFF AND DUP2 PUSH20 0xFFFFFFFFFFFFFFFFFFFFFFFFFFFFFFFFFFFFFFFF AND PUSH32 0x8BE0079C531659141344CD1FD0A4F28419497F9722A3DAAFE3B4186F6B6457E0 PUSH1 0x40 MLOAD PUSH1 0x40 MLOAD DUP1 SWAP2 SUB SWAP1 LOG3 POP POP JUMP JUMPDEST PUSH2 0x28CF DUP5 PUSH4 0x23B872DD PUSH1 0xE0 SHL DUP6 DUP6 DUP6 PUSH1 0x40 MLOAD PUSH1 0x24 ADD PUSH2 0x286D SWAP4 SWAP3 SWAP2 SWAP1 PUSH2 0x321A JUMP JUMPDEST PUSH1 0x40 MLOAD PUSH1 0x20 DUP2 DUP4 SUB SUB DUP2 MSTORE SWAP1 PUSH1 0x40 MSTORE SWAP1 PUSH28 0xFFFFFFFFFFFFFFFFFFFFFFFFFFFFFFFFFFFFFFFFFFFFFFFFFFFFFFFF NOT AND PUSH1 0x20 DUP3 ADD DUP1 MLOAD PUSH28 0xFFFFFFFFFFFFFFFFFFFFFFFFFFFFFFFFFFFFFFFFFFFFFFFFFFFFFFFF DUP4 DUP2 DUP4 AND OR DUP4 MSTORE POP POP POP POP PUSH2 0x28D5 JUMP JUMPDEST POP POP POP POP JUMP JUMPDEST PUSH1 0x0 PUSH2 0x2937 DUP3 PUSH1 0x40 MLOAD DUP1 PUSH1 0x40 ADD PUSH1 0x40 MSTORE DUP1 PUSH1 0x20 DUP2 MSTORE PUSH1 0x20 ADD PUSH32 0x5361666545524332303A206C6F772D6C6576656C2063616C6C206661696C6564 DUP2 MSTORE POP DUP6 PUSH20 0xFFFFFFFFFFFFFFFFFFFFFFFFFFFFFFFFFFFFFFFF AND PUSH2 0x299C SWAP1 SWAP3 SWAP2 SWAP1 PUSH4 0xFFFFFFFF AND JUMP JUMPDEST SWAP1 POP PUSH1 0x0 DUP2 MLOAD GT ISZERO PUSH2 0x2997 JUMPI DUP1 DUP1 PUSH1 0x20 ADD SWAP1 MLOAD DUP2 ADD SWAP1 PUSH2 0x2957 SWAP2 SWAP1 PUSH2 0x2D8C JUMP JUMPDEST PUSH2 0x2996 JUMPI PUSH1 0x40 MLOAD PUSH32 0x8C379A000000000000000000000000000000000000000000000000000000000 DUP2 MSTORE PUSH1 0x4 ADD PUSH2 0x298D SWAP1 PUSH2 0x3512 JUMP JUMPDEST PUSH1 0x40 MLOAD DUP1 SWAP2 SUB SWAP1 REVERT JUMPDEST JUMPDEST POP POP POP JUMP JUMPDEST PUSH1 0x60 PUSH2 0x29AB DUP5 DUP5 PUSH1 0x0 DUP6 PUSH2 0x29B4 JUMP JUMPDEST SWAP1 POP SWAP4 SWAP3 POP POP POP JUMP JUMPDEST PUSH1 0x60 DUP3 SELFBALANCE LT ISZERO PUSH2 0x29F9 JUMPI PUSH1 0x40 MLOAD PUSH32 0x8C379A000000000000000000000000000000000000000000000000000000000 DUP2 MSTORE PUSH1 0x4 ADD PUSH2 0x29F0 SWAP1 PUSH2 0x3392 JUMP JUMPDEST PUSH1 0x40 MLOAD DUP1 SWAP2 SUB SWAP1 REVERT JUMPDEST PUSH2 0x2A02 DUP6 PUSH2 0x2AC8 JUMP JUMPDEST PUSH2 0x2A41 JUMPI PUSH1 0x40 MLOAD PUSH32 0x8C379A000000000000000000000000000000000000000000000000000000000 DUP2 MSTORE PUSH1 0x4 ADD PUSH2 0x2A38 SWAP1 PUSH2 0x3492 JUMP JUMPDEST PUSH1 0x40 MLOAD DUP1 SWAP2 SUB SWAP1 REVERT JUMPDEST PUSH1 0x0 DUP1 DUP7 PUSH20 0xFFFFFFFFFFFFFFFFFFFFFFFFFFFFFFFFFFFFFFFF AND DUP6 DUP8 PUSH1 0x40 MLOAD PUSH2 0x2A6A SWAP2 SWAP1 PUSH2 0x31E8 JUMP JUMPDEST PUSH1 0x0 PUSH1 0x40 MLOAD DUP1 DUP4 SUB DUP2 DUP6 DUP8 GAS CALL SWAP3 POP POP POP RETURNDATASIZE DUP1 PUSH1 0x0 DUP2 EQ PUSH2 0x2AA7 JUMPI PUSH1 0x40 MLOAD SWAP2 POP PUSH1 0x1F NOT PUSH1 0x3F RETURNDATASIZE ADD AND DUP3 ADD PUSH1 0x40 MSTORE RETURNDATASIZE DUP3 MSTORE RETURNDATASIZE PUSH1 0x0 PUSH1 0x20 DUP5 ADD RETURNDATACOPY PUSH2 0x2AAC JUMP JUMPDEST PUSH1 0x60 SWAP2 POP JUMPDEST POP SWAP2 POP SWAP2 POP PUSH2 0x2ABC DUP3 DUP3 DUP7 PUSH2 0x2ADB JUMP JUMPDEST SWAP3 POP POP POP SWAP5 SWAP4 POP POP POP POP JUMP JUMPDEST PUSH1 0x0 DUP1 DUP3 EXTCODESIZE SWAP1 POP PUSH1 0x0 DUP2 GT SWAP2 POP POP SWAP2 SWAP1 POP JUMP JUMPDEST PUSH1 0x60 DUP4 ISZERO PUSH2 0x2AEB JUMPI DUP3 SWAP1 POP PUSH2 0x2B3B JUMP JUMPDEST PUSH1 0x0 DUP4 MLOAD GT ISZERO PUSH2 0x2AFE JUMPI DUP3 MLOAD DUP1 DUP5 PUSH1 0x20 ADD REVERT JUMPDEST DUP2 PUSH1 0x40 MLOAD PUSH32 0x8C379A000000000000000000000000000000000000000000000000000000000 DUP2 MSTORE PUSH1 0x4 ADD PUSH2 0x2B32 SWAP2 SWAP1 PUSH2 0x32B0 JUMP JUMPDEST PUSH1 0x40 MLOAD DUP1 SWAP2 SUB SWAP1 REVERT JUMPDEST SWAP4 SWAP3 POP POP POP JUMP JUMPDEST PUSH1 0x0 PUSH2 0x2B55 PUSH2 0x2B50 DUP5 PUSH2 0x35D2 JUMP JUMPDEST PUSH2 0x35AD JUMP JUMPDEST SWAP1 POP DUP1 DUP4 DUP3 MSTORE PUSH1 0x20 DUP3 ADD SWAP1 POP DUP3 DUP6 PUSH1 0x20 DUP7 MUL DUP3 ADD GT ISZERO PUSH2 0x2B78 JUMPI PUSH2 0x2B77 PUSH2 0x396F JUMP JUMPDEST JUMPDEST PUSH1 0x0 JUMPDEST DUP6 DUP2 LT ISZERO PUSH2 0x2BA8 JUMPI DUP2 PUSH2 0x2B8E DUP9 DUP3 PUSH2 0x2C22 JUMP JUMPDEST DUP5 MSTORE PUSH1 0x20 DUP5 ADD SWAP4 POP PUSH1 0x20 DUP4 ADD SWAP3 POP POP PUSH1 0x1 DUP2 ADD SWAP1 POP PUSH2 0x2B7B JUMP JUMPDEST POP POP POP SWAP4 SWAP3 POP POP POP JUMP JUMPDEST PUSH1 0x0 PUSH2 0x2BC5 PUSH2 0x2BC0 DUP5 PUSH2 0x35FE JUMP JUMPDEST PUSH2 0x35AD JUMP JUMPDEST SWAP1 POP DUP1 DUP4 DUP3 MSTORE PUSH1 0x20 DUP3 ADD SWAP1 POP DUP3 DUP6 PUSH1 0x20 DUP7 MUL DUP3 ADD GT ISZERO PUSH2 0x2BE8 JUMPI PUSH2 0x2BE7 PUSH2 0x396F JUMP JUMPDEST JUMPDEST PUSH1 0x0 JUMPDEST DUP6 DUP2 LT ISZERO PUSH2 0x2C18 JUMPI DUP2 PUSH2 0x2BFE DUP9 DUP3 PUSH2 0x2CBD JUMP JUMPDEST DUP5 MSTORE PUSH1 0x20 DUP5 ADD SWAP4 POP PUSH1 0x20 DUP4 ADD SWAP3 POP POP PUSH1 0x1 DUP2 ADD SWAP1 POP PUSH2 0x2BEB JUMP JUMPDEST POP POP POP SWAP4 SWAP3 POP POP POP JUMP JUMPDEST PUSH1 0x0 DUP2 CALLDATALOAD SWAP1 POP PUSH2 0x2C31 DUP2 PUSH2 0x40A5 JUMP JUMPDEST SWAP3 SWAP2 POP POP JUMP JUMPDEST PUSH1 0x0 DUP3 PUSH1 0x1F DUP4 ADD SLT PUSH2 0x2C4C JUMPI PUSH2 0x2C4B PUSH2 0x396A JUMP JUMPDEST JUMPDEST DUP2 CALLDATALOAD PUSH2 0x2C5C DUP5 DUP3 PUSH1 0x20 DUP7 ADD PUSH2 0x2B42 JUMP JUMPDEST SWAP2 POP POP SWAP3 SWAP2 POP POP JUMP JUMPDEST PUSH1 0x0 DUP3 PUSH1 0x1F DUP4 ADD SLT PUSH2 0x2C7A JUMPI PUSH2 0x2C79 PUSH2 0x396A JUMP JUMPDEST JUMPDEST DUP2 CALLDATALOAD PUSH2 0x2C8A DUP5 DUP3 PUSH1 0x20 DUP7 ADD PUSH2 0x2BB2 JUMP JUMPDEST SWAP2 POP POP SWAP3 SWAP2 POP POP JUMP JUMPDEST PUSH1 0x0 DUP2 MLOAD SWAP1 POP PUSH2 0x2CA2 DUP2 PUSH2 0x40BC JUMP JUMPDEST SWAP3 SWAP2 POP POP JUMP JUMPDEST PUSH1 0x0 DUP2 CALLDATALOAD SWAP1 POP PUSH2 0x2CB7 DUP2 PUSH2 0x40D3 JUMP JUMPDEST SWAP3 SWAP2 POP POP JUMP JUMPDEST PUSH1 0x0 DUP2 CALLDATALOAD SWAP1 POP PUSH2 0x2CCC DUP2 PUSH2 0x40EA JUMP JUMPDEST SWAP3 SWAP2 POP POP JUMP JUMPDEST PUSH1 0x0 DUP2 MLOAD SWAP1 POP PUSH2 0x2CE1 DUP2 PUSH2 0x40EA JUMP JUMPDEST SWAP3 SWAP2 POP POP JUMP JUMPDEST PUSH1 0x0 PUSH1 0x20 DUP3 DUP5 SUB SLT ISZERO PUSH2 0x2CFD JUMPI PUSH2 0x2CFC PUSH2 0x3979 JUMP JUMPDEST JUMPDEST PUSH1 0x0 PUSH2 0x2D0B DUP5 DUP3 DUP6 ADD PUSH2 0x2C22 JUMP JUMPDEST SWAP2 POP POP SWAP3 SWAP2 POP POP JUMP JUMPDEST PUSH1 0x0 DUP1 PUSH1 0x40 DUP4 DUP6 SUB SLT ISZERO PUSH2 0x2D2B JUMPI PUSH2 0x2D2A PUSH2 0x3979 JUMP JUMPDEST JUMPDEST PUSH1 0x0 DUP4 ADD CALLDATALOAD PUSH8 0xFFFFFFFFFFFFFFFF DUP2 GT ISZERO PUSH2 0x2D49 JUMPI PUSH2 0x2D48 PUSH2 0x3974 JUMP JUMPDEST JUMPDEST PUSH2 0x2D55 DUP6 DUP3 DUP7 ADD PUSH2 0x2C37 JUMP JUMPDEST SWAP3 POP POP PUSH1 0x20 DUP4 ADD CALLDATALOAD PUSH8 0xFFFFFFFFFFFFFFFF DUP2 GT ISZERO PUSH2 0x2D76 JUMPI PUSH2 0x2D75 PUSH2 0x3974 JUMP JUMPDEST JUMPDEST PUSH2 0x2D82 DUP6 DUP3 DUP7 ADD PUSH2 0x2C65 JUMP JUMPDEST SWAP2 POP POP SWAP3 POP SWAP3 SWAP1 POP JUMP JUMPDEST PUSH1 0x0 PUSH1 0x20 DUP3 DUP5 SUB SLT ISZERO PUSH2 0x2DA2 JUMPI PUSH2 0x2DA1 PUSH2 0x3979 JUMP JUMPDEST JUMPDEST PUSH1 0x0 PUSH2 0x2DB0 DUP5 DUP3 DUP6 ADD PUSH2 0x2C93 JUMP JUMPDEST SWAP2 POP POP SWAP3 SWAP2 POP POP JUMP JUMPDEST PUSH1 0x0 PUSH1 0x20 DUP3 DUP5 SUB SLT ISZERO PUSH2 0x2DCF JUMPI PUSH2 0x2DCE PUSH2 0x3979 JUMP JUMPDEST JUMPDEST PUSH1 0x0 PUSH2 0x2DDD DUP5 DUP3 DUP6 ADD PUSH2 0x2CA8 JUMP JUMPDEST SWAP2 POP POP SWAP3 SWAP2 POP POP JUMP JUMPDEST PUSH1 0x0 PUSH1 0x20 DUP3 DUP5 SUB SLT ISZERO PUSH2 0x2DFC JUMPI PUSH2 0x2DFB PUSH2 0x3979 JUMP JUMPDEST JUMPDEST PUSH1 0x0 PUSH2 0x2E0A DUP5 DUP3 DUP6 ADD PUSH2 0x2CBD JUMP JUMPDEST SWAP2 POP POP SWAP3 SWAP2 POP POP JUMP JUMPDEST PUSH1 0x0 PUSH1 0x20 DUP3 DUP5 SUB SLT ISZERO PUSH2 0x2E29 JUMPI PUSH2 0x2E28 PUSH2 0x3979 JUMP JUMPDEST JUMPDEST PUSH1 0x0 PUSH2 0x2E37 DUP5 DUP3 DUP6 ADD PUSH2 0x2CD2 JUMP JUMPDEST SWAP2 POP POP SWAP3 SWAP2 POP POP JUMP JUMPDEST PUSH2 0x2E49 DUP2 PUSH2 0x3771 JUMP JUMPDEST DUP3 MSTORE POP POP JUMP JUMPDEST PUSH2 0x2E58 DUP2 PUSH2 0x3783 JUMP JUMPDEST DUP3 MSTORE POP POP JUMP JUMPDEST PUSH1 0x0 PUSH2 0x2E69 DUP3 PUSH2 0x362A JUMP JUMPDEST PUSH2 0x2E73 DUP2 DUP6 PUSH2 0x3640 JUMP JUMPDEST SWAP4 POP PUSH2 0x2E83 DUP2 DUP6 PUSH1 0x20 DUP7 ADD PUSH2 0x3801 JUMP JUMPDEST DUP1 DUP5 ADD SWAP2 POP POP SWAP3 SWAP2 POP POP JUMP JUMPDEST PUSH2 0x2E98 DUP2 PUSH2 0x37CB JUMP JUMPDEST DUP3 MSTORE POP POP JUMP JUMPDEST PUSH1 0x0 PUSH2 0x2EA9 DUP3 PUSH2 0x3635 JUMP JUMPDEST PUSH2 0x2EB3 DUP2 DUP6 PUSH2 0x364B JUMP JUMPDEST SWAP4 POP PUSH2 0x2EC3 DUP2 DUP6 PUSH1 0x20 DUP7 ADD PUSH2 0x3801 JUMP JUMPDEST PUSH2 0x2ECC DUP2 PUSH2 0x397E JUMP JUMPDEST DUP5 ADD SWAP2 POP POP SWAP3 SWAP2 POP POP JUMP JUMPDEST PUSH1 0x0 PUSH2 0x2EE4 PUSH1 0x35 DUP4 PUSH2 0x364B JUMP JUMPDEST SWAP2 POP PUSH2 0x2EEF DUP3 PUSH2 0x398F JUMP JUMPDEST PUSH1 0x40 DUP3 ADD SWAP1 POP SWAP2 SWAP1 POP JUMP JUMPDEST PUSH1 0x0 PUSH2 0x2F07 PUSH1 0x26 DUP4 PUSH2 0x364B JUMP JUMPDEST SWAP2 POP PUSH2 0x2F12 DUP3 PUSH2 0x39DE JUMP JUMPDEST PUSH1 0x40 DUP3 ADD SWAP1 POP SWAP2 SWAP1 POP JUMP JUMPDEST PUSH1 0x0 PUSH2 0x2F2A PUSH1 0x39 DUP4 PUSH2 0x364B JUMP JUMPDEST SWAP2 POP PUSH2 0x2F35 DUP3 PUSH2 0x3A2D JUMP JUMPDEST PUSH1 0x40 DUP3 ADD SWAP1 POP SWAP2 SWAP1 POP JUMP JUMPDEST PUSH1 0x0 PUSH2 0x2F4D PUSH1 0x34 DUP4 PUSH2 0x364B JUMP JUMPDEST SWAP2 POP PUSH2 0x2F58 DUP3 PUSH2 0x3A7C JUMP JUMPDEST PUSH1 0x40 DUP3 ADD SWAP1 POP SWAP2 SWAP1 POP JUMP JUMPDEST PUSH1 0x0 PUSH2 0x2F70 PUSH1 0x29 DUP4 PUSH2 0x364B JUMP JUMPDEST SWAP2 POP PUSH2 0x2F7B DUP3 PUSH2 0x3ACB JUMP JUMPDEST PUSH1 0x40 DUP3 ADD SWAP1 POP SWAP2 SWAP1 POP JUMP JUMPDEST PUSH1 0x0 PUSH2 0x2F93 PUSH1 0x3C DUP4 PUSH2 0x364B JUMP JUMPDEST SWAP2 POP PUSH2 0x2F9E DUP3 PUSH2 0x3B1A JUMP JUMPDEST PUSH1 0x40 DUP3 ADD SWAP1 POP SWAP2 SWAP1 POP JUMP JUMPDEST PUSH1 0x0 PUSH2 0x2FB6 PUSH1 0x26 DUP4 PUSH2 0x364B JUMP JUMPDEST SWAP2 POP PUSH2 0x2FC1 DUP3 PUSH2 0x3B69 JUMP JUMPDEST PUSH1 0x40 DUP3 ADD SWAP1 POP SWAP2 SWAP1 POP JUMP JUMPDEST PUSH1 0x0 PUSH2 0x2FD9 PUSH1 0x31 DUP4 PUSH2 0x364B JUMP JUMPDEST SWAP2 POP PUSH2 0x2FE4 DUP3 PUSH2 0x3BB8 JUMP JUMPDEST PUSH1 0x40 DUP3 ADD SWAP1 POP SWAP2 SWAP1 POP JUMP JUMPDEST PUSH1 0x0 PUSH2 0x2FFC PUSH1 0x48 DUP4 PUSH2 0x364B JUMP JUMPDEST SWAP2 POP PUSH2 0x3007 DUP3 PUSH2 0x3C07 JUMP JUMPDEST PUSH1 0x60 DUP3 ADD SWAP1 POP SWAP2 SWAP1 POP JUMP JUMPDEST PUSH1 0x0 PUSH2 0x301F PUSH1 0x46 DUP4 PUSH2 0x364B JUMP JUMPDEST SWAP2 POP PUSH2 0x302A DUP3 PUSH2 0x3C7C JUMP JUMPDEST PUSH1 0x60 DUP3 ADD SWAP1 POP SWAP2 SWAP1 POP JUMP JUMPDEST PUSH1 0x0 PUSH2 0x3042 PUSH1 0x5D DUP4 PUSH2 0x364B JUMP JUMPDEST SWAP2 POP PUSH2 0x304D DUP3 PUSH2 0x3CF1 JUMP JUMPDEST PUSH1 0x60 DUP3 ADD SWAP1 POP SWAP2 SWAP1 POP JUMP JUMPDEST PUSH1 0x0 PUSH2 0x3065 PUSH1 0x77 DUP4 PUSH2 0x364B JUMP JUMPDEST SWAP2 POP PUSH2 0x3070 DUP3 PUSH2 0x3D66 JUMP JUMPDEST PUSH1 0x80 DUP3 ADD SWAP1 POP SWAP2 SWAP1 POP JUMP JUMPDEST PUSH1 0x0 PUSH2 0x3088 PUSH1 0x20 DUP4 PUSH2 0x364B JUMP JUMPDEST SWAP2 POP PUSH2 0x3093 DUP3 PUSH2 0x3E01 JUMP JUMPDEST PUSH1 0x20 DUP3 ADD SWAP1 POP SWAP2 SWAP1 POP JUMP JUMPDEST PUSH1 0x0 PUSH2 0x30AB PUSH1 0x35 DUP4 PUSH2 0x364B JUMP JUMPDEST SWAP2 POP PUSH2 0x30B6 DUP3 PUSH2 0x3E2A JUMP JUMPDEST PUSH1 0x40 DUP3 ADD SWAP1 POP SWAP2 SWAP1 POP JUMP JUMPDEST PUSH1 0x0 PUSH2 0x30CE PUSH1 0x1D DUP4 PUSH2 0x364B JUMP JUMPDEST SWAP2 POP PUSH2 0x30D9 DUP3 PUSH2 0x3E79 JUMP JUMPDEST PUSH1 0x20 DUP3 ADD SWAP1 POP SWAP2 SWAP1 POP JUMP JUMPDEST PUSH1 0x0 PUSH2 0x30F1 PUSH1 0x23 DUP4 PUSH2 0x364B JUMP JUMPDEST SWAP2 POP PUSH2 0x30FC DUP3 PUSH2 0x3EA2 JUMP JUMPDEST PUSH1 0x40 DUP3 ADD SWAP1 POP SWAP2 SWAP1 POP JUMP JUMPDEST PUSH1 0x0 PUSH2 0x3114 PUSH1 0x2D DUP4 PUSH2 0x364B JUMP JUMPDEST SWAP2 POP PUSH2 0x311F DUP3 PUSH2 0x3EF1 JUMP JUMPDEST PUSH1 0x40 DUP3 ADD SWAP1 POP SWAP2 SWAP1 POP JUMP JUMPDEST PUSH1 0x0 PUSH2 0x3137 PUSH1 0x2A DUP4 PUSH2 0x364B JUMP JUMPDEST SWAP2 POP PUSH2 0x3142 DUP3 PUSH2 0x3F40 JUMP JUMPDEST PUSH1 0x40 DUP3 ADD SWAP1 POP SWAP2 SWAP1 POP JUMP JUMPDEST PUSH1 0x0 PUSH2 0x315A PUSH1 0x2A DUP4 PUSH2 0x364B JUMP JUMPDEST SWAP2 POP PUSH2 0x3165 DUP3 PUSH2 0x3F8F JUMP JUMPDEST PUSH1 0x40 DUP3 ADD SWAP1 POP SWAP2 SWAP1 POP JUMP JUMPDEST PUSH1 0x0 PUSH2 0x317D PUSH1 0x26 DUP4 PUSH2 0x364B JUMP JUMPDEST SWAP2 POP PUSH2 0x3188 DUP3 PUSH2 0x3FDE JUMP JUMPDEST PUSH1 0x40 DUP3 ADD SWAP1 POP SWAP2 SWAP1 POP JUMP JUMPDEST PUSH1 0x0 PUSH2 0x31A0 PUSH1 0x1F DUP4 PUSH2 0x364B JUMP JUMPDEST SWAP2 POP PUSH2 0x31AB DUP3 PUSH2 0x402D JUMP JUMPDEST PUSH1 0x20 DUP3 ADD SWAP1 POP SWAP2 SWAP1 POP JUMP JUMPDEST PUSH1 0x0 PUSH2 0x31C3 PUSH1 0x34 DUP4 PUSH2 0x364B JUMP JUMPDEST SWAP2 POP PUSH2 0x31CE DUP3 PUSH2 0x4056 JUMP JUMPDEST PUSH1 0x40 DUP3 ADD SWAP1 POP SWAP2 SWAP1 POP JUMP JUMPDEST PUSH2 0x31E2 DUP2 PUSH2 0x37C1 JUMP JUMPDEST DUP3 MSTORE POP POP JUMP JUMPDEST PUSH1 0x0 PUSH2 0x31F4 DUP3 DUP5 PUSH2 0x2E5E JUMP JUMPDEST SWAP2 POP DUP2 SWAP1 POP SWAP3 SWAP2 POP POP JUMP JUMPDEST PUSH1 0x0 PUSH1 0x20 DUP3 ADD SWAP1 POP PUSH2 0x3214 PUSH1 0x0 DUP4 ADD DUP5 PUSH2 0x2E40 JUMP JUMPDEST SWAP3 SWAP2 POP POP JUMP JUMPDEST PUSH1 0x0 PUSH1 0x60 DUP3 ADD SWAP1 POP PUSH2 0x322F PUSH1 0x0 DUP4 ADD DUP7 PUSH2 0x2E40 JUMP JUMPDEST PUSH2 0x323C PUSH1 0x20 DUP4 ADD DUP6 PUSH2 0x2E40 JUMP JUMPDEST PUSH2 0x3249 PUSH1 0x40 DUP4 ADD DUP5 PUSH2 0x31D9 JUMP JUMPDEST SWAP5 SWAP4 POP POP POP POP JUMP JUMPDEST PUSH1 0x0 PUSH1 0x40 DUP3 ADD SWAP1 POP PUSH2 0x3266 PUSH1 0x0 DUP4 ADD DUP6 PUSH2 0x2E40 JUMP JUMPDEST PUSH2 0x3273 PUSH1 0x20 DUP4 ADD DUP5 PUSH2 0x31D9 JUMP JUMPDEST SWAP4 SWAP3 POP POP POP JUMP JUMPDEST PUSH1 0x0 PUSH1 0x20 DUP3 ADD SWAP1 POP PUSH2 0x328F PUSH1 0x0 DUP4 ADD DUP5 PUSH2 0x2E4F JUMP JUMPDEST SWAP3 SWAP2 POP POP JUMP JUMPDEST PUSH1 0x0 PUSH1 0x20 DUP3 ADD SWAP1 POP PUSH2 0x32AA PUSH1 0x0 DUP4 ADD DUP5 PUSH2 0x2E8F JUMP JUMPDEST SWAP3 SWAP2 POP POP JUMP JUMPDEST PUSH1 0x0 PUSH1 0x20 DUP3 ADD SWAP1 POP DUP2 DUP2 SUB PUSH1 0x0 DUP4 ADD MSTORE PUSH2 0x32CA DUP2 DUP5 PUSH2 0x2E9E JUMP JUMPDEST SWAP1 POP SWAP3 SWAP2 POP POP JUMP JUMPDEST PUSH1 0x0 PUSH1 0x20 DUP3 ADD SWAP1 POP DUP2 DUP2 SUB PUSH1 0x0 DUP4 ADD MSTORE PUSH2 0x32EB DUP2 PUSH2 0x2ED7 JUMP JUMPDEST SWAP1 POP SWAP2 SWAP1 POP JUMP JUMPDEST PUSH1 0x0 PUSH1 0x20 DUP3 ADD SWAP1 POP DUP2 DUP2 SUB PUSH1 0x0 DUP4 ADD MSTORE PUSH2 0x330B DUP2 PUSH2 0x2EFA JUMP JUMPDEST SWAP1 POP SWAP2 SWAP1 POP JUMP JUMPDEST PUSH1 0x0 PUSH1 0x20 DUP3 ADD SWAP1 POP DUP2 DUP2 SUB PUSH1 0x0 DUP4 ADD MSTORE PUSH2 0x332B DUP2 PUSH2 0x2F1D JUMP JUMPDEST SWAP1 POP SWAP2 SWAP1 POP JUMP JUMPDEST PUSH1 0x0 PUSH1 0x20 DUP3 ADD SWAP1 POP DUP2 DUP2 SUB PUSH1 0x0 DUP4 ADD MSTORE PUSH2 0x334B DUP2 PUSH2 0x2F40 JUMP JUMPDEST SWAP1 POP SWAP2 SWAP1 POP JUMP JUMPDEST PUSH1 0x0 PUSH1 0x20 DUP3 ADD SWAP1 POP DUP2 DUP2 SUB PUSH1 0x0 DUP4 ADD MSTORE PUSH2 0x336B DUP2 PUSH2 0x2F63 JUMP JUMPDEST SWAP1 POP SWAP2 SWAP1 POP JUMP JUMPDEST PUSH1 0x0 PUSH1 0x20 DUP3 ADD SWAP1 POP DUP2 DUP2 SUB PUSH1 0x0 DUP4 ADD MSTORE PUSH2 0x338B DUP2 PUSH2 0x2F86 JUMP JUMPDEST SWAP1 POP SWAP2 SWAP1 POP JUMP JUMPDEST PUSH1 0x0 PUSH1 0x20 DUP3 ADD SWAP1 POP DUP2 DUP2 SUB PUSH1 0x0 DUP4 ADD MSTORE PUSH2 0x33AB DUP2 PUSH2 0x2FA9 JUMP JUMPDEST SWAP1 POP SWAP2 SWAP1 POP JUMP JUMPDEST PUSH1 0x0 PUSH1 0x20 DUP3 ADD SWAP1 POP DUP2 DUP2 SUB PUSH1 0x0 DUP4 ADD MSTORE PUSH2 0x33CB DUP2 PUSH2 0x2FCC JUMP JUMPDEST SWAP1 POP SWAP2 SWAP1 POP JUMP JUMPDEST PUSH1 0x0 PUSH1 0x20 DUP3 ADD SWAP1 POP DUP2 DUP2 SUB PUSH1 0x0 DUP4 ADD MSTORE PUSH2 0x33EB DUP2 PUSH2 0x2FEF JUMP JUMPDEST SWAP1 POP SWAP2 SWAP1 POP JUMP JUMPDEST PUSH1 0x0 PUSH1 0x20 DUP3 ADD SWAP1 POP DUP2 DUP2 SUB PUSH1 0x0 DUP4 ADD MSTORE PUSH2 0x340B DUP2 PUSH2 0x3012 JUMP JUMPDEST SWAP1 POP SWAP2 SWAP1 POP JUMP JUMPDEST PUSH1 0x0 PUSH1 0x20 DUP3 ADD SWAP1 POP DUP2 DUP2 SUB PUSH1 0x0 DUP4 ADD MSTORE PUSH2 0x342B DUP2 PUSH2 0x3035 JUMP JUMPDEST SWAP1 POP SWAP2 SWAP1 POP JUMP JUMPDEST PUSH1 0x0 PUSH1 0x20 DUP3 ADD SWAP1 POP DUP2 DUP2 SUB PUSH1 0x0 DUP4 ADD MSTORE PUSH2 0x344B DUP2 PUSH2 0x3058 JUMP JUMPDEST SWAP1 POP SWAP2 SWAP1 POP JUMP JUMPDEST PUSH1 0x0 PUSH1 0x20 DUP3 ADD SWAP1 POP DUP2 DUP2 SUB PUSH1 0x0 DUP4 ADD MSTORE PUSH2 0x346B DUP2 PUSH2 0x307B JUMP JUMPDEST SWAP1 POP SWAP2 SWAP1 POP JUMP JUMPDEST PUSH1 0x0 PUSH1 0x20 DUP3 ADD SWAP1 POP DUP2 DUP2 SUB PUSH1 0x0 DUP4 ADD MSTORE PUSH2 0x348B DUP2 PUSH2 0x309E JUMP JUMPDEST SWAP1 POP SWAP2 SWAP1 POP JUMP JUMPDEST PUSH1 0x0 PUSH1 0x20 DUP3 ADD SWAP1 POP DUP2 DUP2 SUB PUSH1 0x0 DUP4 ADD MSTORE PUSH2 0x34AB DUP2 PUSH2 0x30C1 JUMP JUMPDEST SWAP1 POP SWAP2 SWAP1 POP JUMP JUMPDEST PUSH1 0x0 PUSH1 0x20 DUP3 ADD SWAP1 POP DUP2 DUP2 SUB PUSH1 0x0 DUP4 ADD MSTORE PUSH2 0x34CB DUP2 PUSH2 0x30E4 JUMP JUMPDEST SWAP1 POP SWAP2 SWAP1 POP JUMP JUMPDEST PUSH1 0x0 PUSH1 0x20 DUP3 ADD SWAP1 POP DUP2 DUP2 SUB PUSH1 0x0 DUP4 ADD MSTORE PUSH2 0x34EB DUP2 PUSH2 0x3107 JUMP JUMPDEST SWAP1 POP SWAP2 SWAP1 POP JUMP JUMPDEST PUSH1 0x0 PUSH1 0x20 DUP3 ADD SWAP1 POP DUP2 DUP2 SUB PUSH1 0x0 DUP4 ADD MSTORE PUSH2 0x350B DUP2 PUSH2 0x312A JUMP JUMPDEST SWAP1 POP SWAP2 SWAP1 POP JUMP JUMPDEST PUSH1 0x0 PUSH1 0x20 DUP3 ADD SWAP1 POP DUP2 DUP2 SUB PUSH1 0x0 DUP4 ADD MSTORE PUSH2 0x352B DUP2 PUSH2 0x314D JUMP JUMPDEST SWAP1 POP SWAP2 SWAP1 POP JUMP JUMPDEST PUSH1 0x0 PUSH1 0x20 DUP3 ADD SWAP1 POP DUP2 DUP2 SUB PUSH1 0x0 DUP4 ADD MSTORE PUSH2 0x354B DUP2 PUSH2 0x3170 JUMP JUMPDEST SWAP1 POP SWAP2 SWAP1 POP JUMP JUMPDEST PUSH1 0x0 PUSH1 0x20 DUP3 ADD SWAP1 POP DUP2 DUP2 SUB PUSH1 0x0 DUP4 ADD MSTORE PUSH2 0x356B DUP2 PUSH2 0x3193 JUMP JUMPDEST SWAP1 POP SWAP2 SWAP1 POP JUMP JUMPDEST PUSH1 0x0 PUSH1 0x20 DUP3 ADD SWAP1 POP DUP2 DUP2 SUB PUSH1 0x0 DUP4 ADD MSTORE PUSH2 0x358B DUP2 PUSH2 0x31B6 JUMP JUMPDEST SWAP1 POP SWAP2 SWAP1 POP JUMP JUMPDEST PUSH1 0x0 PUSH1 0x20 DUP3 ADD SWAP1 POP PUSH2 0x35A7 PUSH1 0x0 DUP4 ADD DUP5 PUSH2 0x31D9 JUMP JUMPDEST SWAP3 SWAP2 POP POP JUMP JUMPDEST PUSH1 0x0 PUSH2 0x35B7 PUSH2 0x35C8 JUMP JUMPDEST SWAP1 POP PUSH2 0x35C3 DUP3 DUP3 PUSH2 0x3834 JUMP JUMPDEST SWAP2 SWAP1 POP JUMP JUMPDEST PUSH1 0x0 PUSH1 0x40 MLOAD SWAP1 POP SWAP1 JUMP JUMPDEST PUSH1 0x0 PUSH8 0xFFFFFFFFFFFFFFFF DUP3 GT ISZERO PUSH2 0x35ED JUMPI PUSH2 0x35EC PUSH2 0x393B JUMP JUMPDEST JUMPDEST PUSH1 0x20 DUP3 MUL SWAP1 POP PUSH1 0x20 DUP2 ADD SWAP1 POP SWAP2 SWAP1 POP JUMP JUMPDEST PUSH1 0x0 PUSH8 0xFFFFFFFFFFFFFFFF DUP3 GT ISZERO PUSH2 0x3619 JUMPI PUSH2 0x3618 PUSH2 0x393B JUMP JUMPDEST JUMPDEST PUSH1 0x20 DUP3 MUL SWAP1 POP PUSH1 0x20 DUP2 ADD SWAP1 POP SWAP2 SWAP1 POP JUMP JUMPDEST PUSH1 0x0 DUP2 MLOAD SWAP1 POP SWAP2 SWAP1 POP JUMP JUMPDEST PUSH1 0x0 DUP2 MLOAD SWAP1 POP SWAP2 SWAP1 POP JUMP JUMPDEST PUSH1 0x0 DUP2 SWAP1 POP SWAP3 SWAP2 POP POP JUMP JUMPDEST PUSH1 0x0 DUP3 DUP3 MSTORE PUSH1 0x20 DUP3 ADD SWAP1 POP SWAP3 SWAP2 POP POP JUMP JUMPDEST PUSH1 0x0 PUSH2 0x3667 DUP3 PUSH2 0x37C1 JUMP JUMPDEST SWAP2 POP PUSH2 0x3672 DUP4 PUSH2 0x37C1 JUMP JUMPDEST SWAP3 POP DUP3 PUSH32 0xFFFFFFFFFFFFFFFFFFFFFFFFFFFFFFFFFFFFFFFFFFFFFFFFFFFFFFFFFFFFFFFF SUB DUP3 GT ISZERO PUSH2 0x36A7 JUMPI PUSH2 0x36A6 PUSH2 0x38AE JUMP JUMPDEST JUMPDEST DUP3 DUP3 ADD SWAP1 POP SWAP3 SWAP2 POP POP JUMP JUMPDEST PUSH1 0x0 PUSH2 0x36BD DUP3 PUSH2 0x37C1 JUMP JUMPDEST SWAP2 POP PUSH2 0x36C8 DUP4 PUSH2 0x37C1 JUMP JUMPDEST SWAP3 POP DUP3 PUSH2 0x36D8 JUMPI PUSH2 0x36D7 PUSH2 0x38DD JUMP JUMPDEST JUMPDEST DUP3 DUP3 DIV SWAP1 POP SWAP3 SWAP2 POP POP JUMP JUMPDEST PUSH1 0x0 PUSH2 0x36EE DUP3 PUSH2 0x37C1 JUMP JUMPDEST SWAP2 POP PUSH2 0x36F9 DUP4 PUSH2 0x37C1 JUMP JUMPDEST SWAP3 POP DUP2 PUSH32 0xFFFFFFFFFFFFFFFFFFFFFFFFFFFFFFFFFFFFFFFFFFFFFFFFFFFFFFFFFFFFFFFF DIV DUP4 GT DUP3 ISZERO ISZERO AND ISZERO PUSH2 0x3732 JUMPI PUSH2 0x3731 PUSH2 0x38AE JUMP JUMPDEST JUMPDEST DUP3 DUP3 MUL SWAP1 POP SWAP3 SWAP2 POP POP JUMP JUMPDEST PUSH1 0x0 PUSH2 0x3748 DUP3 PUSH2 0x37C1 JUMP JUMPDEST SWAP2 POP PUSH2 0x3753 DUP4 PUSH2 0x37C1 JUMP JUMPDEST SWAP3 POP DUP3 DUP3 LT ISZERO PUSH2 0x3766 JUMPI PUSH2 0x3765 PUSH2 0x38AE JUMP JUMPDEST JUMPDEST DUP3 DUP3 SUB SWAP1 POP SWAP3 SWAP2 POP POP JUMP JUMPDEST PUSH1 0x0 PUSH2 0x377C DUP3 PUSH2 0x37A1 JUMP JUMPDEST SWAP1 POP SWAP2 SWAP1 POP JUMP JUMPDEST PUSH1 0x0 DUP2 ISZERO ISZERO SWAP1 POP SWAP2 SWAP1 POP JUMP JUMPDEST PUSH1 0x0 PUSH2 0x379A DUP3 PUSH2 0x3771 JUMP JUMPDEST SWAP1 POP SWAP2 SWAP1 POP JUMP JUMPDEST PUSH1 0x0 PUSH20 0xFFFFFFFFFFFFFFFFFFFFFFFFFFFFFFFFFFFFFFFF DUP3 AND SWAP1 POP SWAP2 SWAP1 POP JUMP JUMPDEST PUSH1 0x0 DUP2 SWAP1 POP SWAP2 SWAP1 POP JUMP JUMPDEST PUSH1 0x0 PUSH2 0x37D6 DUP3 PUSH2 0x37DD JUMP JUMPDEST SWAP1 POP SWAP2 SWAP1 POP JUMP JUMPDEST PUSH1 0x0 PUSH2 0x37E8 DUP3 PUSH2 0x37EF JUMP JUMPDEST SWAP1 POP SWAP2 SWAP1 POP JUMP JUMPDEST PUSH1 0x0 PUSH2 0x37FA DUP3 PUSH2 0x37A1 JUMP JUMPDEST SWAP1 POP SWAP2 SWAP1 POP JUMP JUMPDEST PUSH1 0x0 JUMPDEST DUP4 DUP2 LT ISZERO PUSH2 0x381F JUMPI DUP1 DUP3 ADD MLOAD DUP2 DUP5 ADD MSTORE PUSH1 0x20 DUP2 ADD SWAP1 POP PUSH2 0x3804 JUMP JUMPDEST DUP4 DUP2 GT ISZERO PUSH2 0x382E JUMPI PUSH1 0x0 DUP5 DUP5 ADD MSTORE JUMPDEST POP POP POP POP JUMP JUMPDEST PUSH2 0x383D DUP3 PUSH2 0x397E JUMP JUMPDEST DUP2 ADD DUP2 DUP2 LT PUSH8 0xFFFFFFFFFFFFFFFF DUP3 GT OR ISZERO PUSH2 0x385C JUMPI PUSH2 0x385B PUSH2 0x393B JUMP JUMPDEST JUMPDEST DUP1 PUSH1 0x40 MSTORE POP POP POP JUMP JUMPDEST PUSH1 0x0 PUSH2 0x3870 DUP3 PUSH2 0x37C1 JUMP JUMPDEST SWAP2 POP PUSH32 0xFFFFFFFFFFFFFFFFFFFFFFFFFFFFFFFFFFFFFFFFFFFFFFFFFFFFFFFFFFFFFFFF DUP3 EQ ISZERO PUSH2 0x38A3 JUMPI PUSH2 0x38A2 PUSH2 0x38AE JUMP JUMPDEST JUMPDEST PUSH1 0x1 DUP3 ADD SWAP1 POP SWAP2 SWAP1 POP JUMP JUMPDEST PUSH32 0x4E487B7100000000000000000000000000000000000000000000000000000000 PUSH1 0x0 MSTORE PUSH1 0x11 PUSH1 0x4 MSTORE PUSH1 0x24 PUSH1 0x0 REVERT JUMPDEST PUSH32 0x4E487B7100000000000000000000000000000000000000000000000000000000 PUSH1 0x0 MSTORE PUSH1 0x12 PUSH1 0x4 MSTORE PUSH1 0x24 PUSH1 0x0 REVERT JUMPDEST PUSH32 0x4E487B7100000000000000000000000000000000000000000000000000000000 PUSH1 0x0 MSTORE PUSH1 0x32 PUSH1 0x4 MSTORE PUSH1 0x24 PUSH1 0x0 REVERT JUMPDEST PUSH32 0x4E487B7100000000000000000000000000000000000000000000000000000000 PUSH1 0x0 MSTORE PUSH1 0x41 PUSH1 0x4 MSTORE PUSH1 0x24 PUSH1 0x0 REVERT JUMPDEST PUSH1 0x0 DUP1 REVERT JUMPDEST PUSH1 0x0 DUP1 REVERT JUMPDEST PUSH1 0x0 DUP1 REVERT JUMPDEST PUSH1 0x0 DUP1 REVERT JUMPDEST PUSH1 0x0 PUSH1 0x1F NOT PUSH1 0x1F DUP4 ADD AND SWAP1 POP SWAP2 SWAP1 POP JUMP JUMPDEST PUSH32 0x41424F41543A64697361626C6557686974656C6973743A2057686974656C6973 PUSH1 0x0 DUP3 ADD MSTORE PUSH32 0x7420697320616C72656164792064697361626C65640000000000000000000000 PUSH1 0x20 DUP3 ADD MSTORE POP JUMP JUMPDEST PUSH32 0x4F776E61626C653A206E6577206F776E657220697320746865207A65726F2061 PUSH1 0x0 DUP3 ADD MSTORE PUSH32 0x6464726573730000000000000000000000000000000000000000000000000000 PUSH1 0x20 DUP3 ADD MSTORE POP JUMP JUMPDEST PUSH32 0x41424F41543A3A6275793A20416D6F756E7420776F756C642065786365656420 PUSH1 0x0 DUP3 ADD MSTORE PUSH32 0x746865206D6178696D756D20616C6C6F776564206C696D697400000000000000 PUSH1 0x20 DUP3 ADD MSTORE POP JUMP JUMPDEST PUSH32 0x5472616E7366657248656C7065723A3A736166655472616E736665724554483A PUSH1 0x0 DUP3 ADD MSTORE PUSH32 0x20455448207472616E73666572206661696C6564000000000000000000000000 PUSH1 0x20 DUP3 ADD MSTORE POP JUMP JUMPDEST PUSH32 0x41424F41543A3A636C61696D3A20436C61696D206973206E6F7420617661696C PUSH1 0x0 DUP3 ADD MSTORE PUSH32 0x61626C65207965742E0000000000000000000000000000000000000000000000 PUSH1 0x20 DUP3 ADD MSTORE POP JUMP JUMPDEST PUSH32 0x41424F41543A3A636C61696D3A20416C726561647920636C61696D656420796F PUSH1 0x0 DUP3 ADD MSTORE PUSH32 0x75722063757272656E746C7920656C696769626C6520746F6B656E7300000000 PUSH1 0x20 DUP3 ADD MSTORE POP JUMP JUMPDEST PUSH32 0x416464726573733A20696E73756666696369656E742062616C616E636520666F PUSH1 0x0 DUP3 ADD MSTORE PUSH32 0x722063616C6C0000000000000000000000000000000000000000000000000000 PUSH1 0x20 DUP3 ADD MSTORE POP JUMP JUMPDEST PUSH32 0x41424F41543A3A6275793A20596F75277265206E6F742077686974656C697374 PUSH1 0x0 DUP3 ADD MSTORE PUSH32 0x656420666F7220746869732073616C6521000000000000000000000000000000 PUSH1 0x20 DUP3 ADD MSTORE POP JUMP JUMPDEST PUSH32 0x41424F41543A3A77686974656C6973743A20596F752063616E27742061646420 PUSH1 0x0 DUP3 ADD MSTORE PUSH32 0x6D6F7265207468616E2031303020616464726573736573206174207468652073 PUSH1 0x20 DUP3 ADD MSTORE PUSH32 0x616D652074696D65000000000000000000000000000000000000000000000000 PUSH1 0x40 DUP3 ADD MSTORE POP JUMP JUMPDEST PUSH32 0x41424F41543A3A757064617465526577617264546F6B656E3A204E6577207265 PUSH1 0x0 DUP3 ADD MSTORE PUSH32 0x776172642073686F756C6420626520646966666572656E742066726F6D206375 PUSH1 0x20 DUP3 ADD MSTORE PUSH32 0x7272656E742E0000000000000000000000000000000000000000000000000000 PUSH1 0x40 DUP3 ADD MSTORE POP JUMP JUMPDEST PUSH32 0x41424F41543A3A636C61696D3A205468652070657263656E74616765206F6620 PUSH1 0x0 DUP3 ADD MSTORE PUSH32 0x746F6B656E20796F752063616E20636C61696D2069732063757272656E746C79 PUSH1 0x20 DUP3 ADD MSTORE PUSH32 0x207A65726F2E20506C656173652074727920616761696E206C61746572000000 PUSH1 0x40 DUP3 ADD MSTORE POP JUMP JUMPDEST PUSH32 0x41424F41543A3A757064617465526577617264546F6B656E3A2054686520636F PUSH1 0x0 DUP3 ADD MSTORE PUSH32 0x6E74726163742073686F756C6420636F6E7461696E2061746C65617374207468 PUSH1 0x20 DUP3 ADD MSTORE PUSH32 0x652073616D6520616D6F756E74206F6620746F6B656E732061732066726F6D20 PUSH1 0x40 DUP3 ADD MSTORE PUSH32 0x7468652063757272656E7420726577617264546F6B656E000000000000000000 PUSH1 0x60 DUP3 ADD MSTORE POP JUMP JUMPDEST PUSH32 0x4F776E61626C653A2063616C6C6572206973206E6F7420746865206F776E6572 PUSH1 0x0 DUP3 ADD MSTORE POP JUMP JUMPDEST PUSH32 0x41424F41543A3A6275793A20416D6F756E7420776F756C642065786365656420 PUSH1 0x0 DUP3 ADD MSTORE PUSH32 0x7468652072656D61696E696E672062616C616E63650000000000000000000000 PUSH1 0x20 DUP3 ADD MSTORE POP JUMP JUMPDEST PUSH32 0x416464726573733A2063616C6C20746F206E6F6E2D636F6E7472616374000000 PUSH1 0x0 DUP3 ADD MSTORE POP JUMP JUMPDEST PUSH32 0x41424F41543A3A636C61696D3A2053616C65206973206E6F74206F7665722079 PUSH1 0x0 DUP3 ADD MSTORE PUSH32 0x6574210000000000000000000000000000000000000000000000000000000000 PUSH1 0x20 DUP3 ADD MSTORE POP JUMP JUMPDEST PUSH32 0x5472616E7366657248656C7065723A3A736166655472616E736665723A207472 PUSH1 0x0 DUP3 ADD MSTORE PUSH32 0x616E73666572206661696C656400000000000000000000000000000000000000 PUSH1 0x20 DUP3 ADD MSTORE POP JUMP JUMPDEST PUSH32 0x41424F41543A3A636C61696D416E64456E6453616C653A2053616C6520616C72 PUSH1 0x0 DUP3 ADD MSTORE PUSH32 0x6561647920656E64656400000000000000000000000000000000000000000000 PUSH1 0x20 DUP3 ADD MSTORE POP JUMP JUMPDEST PUSH32 0x5361666545524332303A204552433230206F7065726174696F6E20646964206E PUSH1 0x0 DUP3 ADD MSTORE PUSH32 0x6F74207375636365656400000000000000000000000000000000000000000000 PUSH1 0x20 DUP3 ADD MSTORE POP JUMP JUMPDEST PUSH32 0x41424F41543A3A7570646174654166746572446179733A2053616C65206E6F74 PUSH1 0x0 DUP3 ADD MSTORE PUSH32 0x20656E6465640000000000000000000000000000000000000000000000000000 PUSH1 0x20 DUP3 ADD MSTORE POP JUMP JUMPDEST PUSH32 0x41424F41543A3A6275793A2053616C6520616C726561647920656E6465642100 PUSH1 0x0 DUP3 ADD MSTORE POP JUMP JUMPDEST PUSH32 0x41424F41543A3A6275793A2053656E742076616C756520646F65736E2774206D PUSH1 0x0 DUP3 ADD MSTORE PUSH32 0x6565742074686520676976656E20616D6F756E74000000000000000000000000 PUSH1 0x20 DUP3 ADD MSTORE POP JUMP JUMPDEST PUSH2 0x40AE DUP2 PUSH2 0x3771 JUMP JUMPDEST DUP2 EQ PUSH2 0x40B9 JUMPI PUSH1 0x0 DUP1 REVERT JUMPDEST POP JUMP JUMPDEST PUSH2 0x40C5 DUP2 PUSH2 0x3783 JUMP JUMPDEST DUP2 EQ PUSH2 0x40D0 JUMPI PUSH1 0x0 DUP1 REVERT JUMPDEST POP JUMP JUMPDEST PUSH2 0x40DC DUP2 PUSH2 0x378F JUMP JUMPDEST DUP2 EQ PUSH2 0x40E7 JUMPI PUSH1 0x0 DUP1 REVERT JUMPDEST POP JUMP JUMPDEST PUSH2 0x40F3 DUP2 PUSH2 0x37C1 JUMP JUMPDEST DUP2 EQ PUSH2 0x40FE JUMPI PUSH1 0x0 DUP1 REVERT JUMPDEST POP JUMP INVALID LOG2 PUSH5 0x6970667358 0x22 SLT KECCAK256 PUSH7 0xED43E52CEEDAA0 0xB3 0x1E ISZERO PUSH25 0x775C998A76B17AF0EA69E5B0490A7E89A69908F364736F6C63 NUMBER STOP ADDMOD SMOD STOP CALLER "
				},
				"gasEstimates": {
					"creation": {
						"codeDepositCost": "3339000",
						"executionCost": "infinite",
						"totalCost": "infinite"
					},
					"external": {
						"afterDays()": "2474",
						"bought(address)": "2882",
						"buy(uint256)": "infinite",
						"claim()": "infinite",
						"claimAndEndSale(uint256)": "infinite",
						"claimed(address)": "2859",
						"claimedTokens(address)": "2904",
						"cliffPeriod()": "420",
						"disableWhitelist()": "28871",
						"getCurrentPercentage()": "infinite",
						"getRemainingBalance()": "infinite",
						"initialClaimPercentage()": "397",
						"lastClaimAddress(address)": "infinite",
						"limit()": "2475",
						"owner()": "2589",
						"paymentToken()": "2668",
						"percentagePerPeriod()": "398",
						"period()": "396",
						"pricePerToken()": "2541",
						"renounceOwnership()": "30464",
						"requireWhitelist()": "2516",
						"rewardToken()": "2666",
						"saleEnded()": "2518",
						"softcap()": "2517",
						"soldTokens()": "2475",
						"transferOwnership(address)": "30834",
						"updateAfterDays(uint256)": "26933",
						"updateRewardToken(address)": "infinite",
						"whitelistFromSAFT(address[],uint256[])": "infinite",
						"whitelisted(address)": "2934"
					}
				},
				"methodIdentifiers": {
					"afterDays()": "e754e7c4",
					"bought(address)": "667022fd",
					"buy(uint256)": "d96a094a",
					"claim()": "4e71d92d",
					"claimAndEndSale(uint256)": "efe95f51",
					"claimed(address)": "c884ef83",
					"claimedTokens(address)": "a960c65f",
					"cliffPeriod()": "2f661946",
					"disableWhitelist()": "d6b0f484",
					"getCurrentPercentage()": "9c92431b",
					"getRemainingBalance()": "2fba2c85",
					"initialClaimPercentage()": "a5ebf835",
					"lastClaimAddress(address)": "f3739e05",
					"limit()": "a4d66daf",
					"owner()": "8da5cb5b",
					"paymentToken()": "3013ce29",
					"percentagePerPeriod()": "151bad0a",
					"period()": "ef78d4fd",
					"pricePerToken()": "7b1b1de6",
					"renounceOwnership()": "715018a6",
					"requireWhitelist()": "856734c4",
					"rewardToken()": "f7c618c1",
					"saleEnded()": "9b8906ae",
					"softcap()": "f89be593",
					"soldTokens()": "5ed9ebfc",
					"transferOwnership(address)": "f2fde38b",
					"updateAfterDays(uint256)": "0c0e0862",
					"updateRewardToken(address)": "f8cf31cb",
					"whitelistFromSAFT(address[],uint256[])": "5372a58e",
					"whitelisted(address)": "d936547e"
				}
			},
			"storageLayout": {
				"storage": [
					{
						"astId": 7,
						"contract": "contracts/PreSale.sol:PreSale",
						"label": "_owner",
						"offset": 0,
						"slot": "0",
						"type": "t_address"
					},
					{
						"astId": 1058,
						"contract": "contracts/PreSale.sol:PreSale",
						"label": "rewardToken",
						"offset": 0,
						"slot": "1",
						"type": "t_contract(IERC20)181"
					},
					{
						"astId": 1061,
						"contract": "contracts/PreSale.sol:PreSale",
						"label": "paymentToken",
						"offset": 0,
						"slot": "2",
						"type": "t_contract(IERC20)181"
					},
					{
						"astId": 1063,
						"contract": "contracts/PreSale.sol:PreSale",
						"label": "pricePerToken",
						"offset": 0,
						"slot": "3",
						"type": "t_uint256"
					},
					{
						"astId": 1065,
						"contract": "contracts/PreSale.sol:PreSale",
						"label": "limit",
						"offset": 0,
						"slot": "4",
						"type": "t_uint256"
					},
					{
						"astId": 1067,
						"contract": "contracts/PreSale.sol:PreSale",
						"label": "softcap",
						"offset": 0,
						"slot": "5",
						"type": "t_uint256"
					},
					{
						"astId": 1069,
						"contract": "contracts/PreSale.sol:PreSale",
						"label": "soldTokens",
						"offset": 0,
						"slot": "6",
						"type": "t_uint256"
					},
					{
						"astId": 1072,
						"contract": "contracts/PreSale.sol:PreSale",
						"label": "saleEnded",
						"offset": 0,
						"slot": "7",
						"type": "t_uint256"
					},
					{
						"astId": 1074,
						"contract": "contracts/PreSale.sol:PreSale",
						"label": "afterDays",
						"offset": 0,
						"slot": "8",
						"type": "t_uint256"
					},
					{
						"astId": 1089,
						"contract": "contracts/PreSale.sol:PreSale",
						"label": "requireWhitelist",
						"offset": 0,
						"slot": "9",
						"type": "t_bool"
					},
					{
						"astId": 1093,
						"contract": "contracts/PreSale.sol:PreSale",
						"label": "whitelisted",
						"offset": 0,
						"slot": "10",
						"type": "t_mapping(t_address,t_bool)"
					},
					{
						"astId": 1097,
						"contract": "contracts/PreSale.sol:PreSale",
						"label": "bought",
						"offset": 0,
						"slot": "11",
						"type": "t_mapping(t_address,t_uint256)"
					},
					{
						"astId": 1101,
						"contract": "contracts/PreSale.sol:PreSale",
						"label": "claimed",
						"offset": 0,
						"slot": "12",
						"type": "t_mapping(t_address,t_uint256)"
					},
					{
						"astId": 1105,
						"contract": "contracts/PreSale.sol:PreSale",
						"label": "claimedTokens",
						"offset": 0,
						"slot": "13",
						"type": "t_mapping(t_address,t_uint256)"
					},
					{
						"astId": 1109,
						"contract": "contracts/PreSale.sol:PreSale",
						"label": "lastClaimAddress",
						"offset": 0,
						"slot": "14",
						"type": "t_mapping(t_address,t_address)"
					}
				],
				"types": {
					"t_address": {
						"encoding": "inplace",
						"label": "address",
						"numberOfBytes": "20"
					},
					"t_bool": {
						"encoding": "inplace",
						"label": "bool",
						"numberOfBytes": "1"
					},
					"t_contract(IERC20)181": {
						"encoding": "inplace",
						"label": "contract IERC20",
						"numberOfBytes": "20"
					},
					"t_mapping(t_address,t_address)": {
						"encoding": "mapping",
						"key": "t_address",
						"label": "mapping(address => address)",
						"numberOfBytes": "32",
						"value": "t_address"
					},
					"t_mapping(t_address,t_bool)": {
						"encoding": "mapping",
						"key": "t_address",
						"label": "mapping(address => bool)",
						"numberOfBytes": "32",
						"value": "t_bool"
					},
					"t_mapping(t_address,t_uint256)": {
						"encoding": "mapping",
						"key": "t_address",
						"label": "mapping(address => uint256)",
						"numberOfBytes": "32",
						"value": "t_uint256"
					},
					"t_uint256": {
						"encoding": "inplace",
						"label": "uint256",
						"numberOfBytes": "32"
					}
				}
			},
			"userdoc": {
				"kind": "user",
				"methods": {},
				"version": 1
			}
		}
	}
}