{
	"contracts/PreSale.sol": {
		"PreSale": {
			"abi": [
				{
					"inputs": [
						{
							"internalType": "contract IERC20",
							"name": "_rewardToken",
							"type": "address"
						},
						{
							"internalType": "contract IERC20",
							"name": "_paymentToken",
							"type": "address"
						},
						{
							"internalType": "uint256",
							"name": "_limit",
							"type": "uint256"
						},
						{
							"internalType": "uint256",
							"name": "_softcap",
							"type": "uint256"
						},
						{
							"internalType": "uint256",
							"name": "_price",
							"type": "uint256"
						}
					],
					"stateMutability": "nonpayable",
					"type": "constructor"
				},
				{
					"anonymous": false,
					"inputs": [
						{
							"indexed": true,
							"internalType": "uint256",
							"name": "amount",
							"type": "uint256"
						}
					],
					"name": "AddedToWhitelist",
					"type": "event"
				},
				{
					"anonymous": false,
					"inputs": [
						{
							"indexed": true,
							"internalType": "uint256",
							"name": "amount",
							"type": "uint256"
						}
					],
					"name": "AddedToWhitelistFromSaft",
					"type": "event"
				},
				{
					"anonymous": false,
					"inputs": [
						{
							"indexed": true,
							"internalType": "address",
							"name": "buyer",
							"type": "address"
						},
						{
							"indexed": true,
							"internalType": "uint256",
							"name": "amount",
							"type": "uint256"
						}
					],
					"name": "Bought",
					"type": "event"
				},
				{
					"anonymous": false,
					"inputs": [
						{
							"indexed": true,
							"internalType": "address",
							"name": "newToken",
							"type": "address"
						}
					],
					"name": "ChangeRewardToken",
					"type": "event"
				},
				{
					"anonymous": false,
					"inputs": [
						{
							"indexed": true,
							"internalType": "address",
							"name": "owner",
							"type": "address"
						},
						{
							"indexed": true,
							"internalType": "uint256",
							"name": "amount",
							"type": "uint256"
						}
					],
					"name": "Claimed",
					"type": "event"
				},
				{
					"anonymous": false,
					"inputs": [
						{
							"indexed": true,
							"internalType": "address",
							"name": "owner",
							"type": "address"
						},
						{
							"indexed": true,
							"internalType": "uint256",
							"name": "amount",
							"type": "uint256"
						}
					],
					"name": "DepositedInVestingPool",
					"type": "event"
				},
				{
					"anonymous": false,
					"inputs": [
						{
							"indexed": true,
							"internalType": "address",
							"name": "previousOwner",
							"type": "address"
						},
						{
							"indexed": true,
							"internalType": "address",
							"name": "newOwner",
							"type": "address"
						}
					],
					"name": "OwnershipTransferred",
					"type": "event"
				},
				{
					"anonymous": false,
					"inputs": [
						{
							"indexed": true,
							"internalType": "uint256",
							"name": "claimDate",
							"type": "uint256"
						}
					],
					"name": "SaleEnded",
					"type": "event"
				},
				{
					"inputs": [],
					"name": "afterDays",
					"outputs": [
						{
							"internalType": "uint256",
							"name": "",
							"type": "uint256"
						}
					],
					"stateMutability": "view",
					"type": "function"
				},
				{
					"inputs": [
						{
							"internalType": "address",
							"name": "",
							"type": "address"
						}
					],
					"name": "bought",
					"outputs": [
						{
							"internalType": "uint256",
							"name": "",
							"type": "uint256"
						}
					],
					"stateMutability": "view",
					"type": "function"
				},
				{
					"inputs": [
						{
							"internalType": "uint256",
							"name": "amount",
							"type": "uint256"
						}
					],
					"name": "buy",
					"outputs": [],
					"stateMutability": "payable",
					"type": "function"
				},
				{
					"inputs": [],
					"name": "claim",
					"outputs": [],
					"stateMutability": "nonpayable",
					"type": "function"
				},
				{
					"inputs": [
						{
							"internalType": "uint256",
							"name": "_afterDays",
							"type": "uint256"
						}
					],
					"name": "claimAndEndSale",
					"outputs": [],
					"stateMutability": "nonpayable",
					"type": "function"
				},
				{
					"inputs": [
						{
							"internalType": "address",
							"name": "",
							"type": "address"
						}
					],
					"name": "claimed",
					"outputs": [
						{
							"internalType": "uint256",
							"name": "",
							"type": "uint256"
						}
					],
					"stateMutability": "view",
					"type": "function"
				},
				{
					"inputs": [
						{
							"internalType": "address",
							"name": "",
							"type": "address"
						}
					],
					"name": "claimedTokens",
					"outputs": [
						{
							"internalType": "uint256",
							"name": "",
							"type": "uint256"
						}
					],
					"stateMutability": "view",
					"type": "function"
				},
				{
					"inputs": [],
					"name": "cliffPeriod",
					"outputs": [
						{
							"internalType": "uint256",
							"name": "",
							"type": "uint256"
						}
					],
					"stateMutability": "view",
					"type": "function"
				},
				{
					"inputs": [],
					"name": "disableWhitelist",
					"outputs": [],
					"stateMutability": "nonpayable",
					"type": "function"
				},
				{
					"inputs": [],
					"name": "getCurrentPercentage",
					"outputs": [
						{
							"internalType": "uint256",
							"name": "",
							"type": "uint256"
						}
					],
					"stateMutability": "view",
					"type": "function"
				},
				{
					"inputs": [],
					"name": "getRemainingBalance",
					"outputs": [
						{
							"internalType": "uint256",
							"name": "",
							"type": "uint256"
						}
					],
					"stateMutability": "view",
					"type": "function"
				},
				{
					"inputs": [],
					"name": "initialClaimPercentage",
					"outputs": [
						{
							"internalType": "uint256",
							"name": "",
							"type": "uint256"
						}
					],
					"stateMutability": "view",
					"type": "function"
				},
				{
					"inputs": [
						{
							"internalType": "address",
							"name": "",
							"type": "address"
						}
					],
					"name": "lastClaimAddress",
					"outputs": [
						{
							"internalType": "address",
							"name": "",
							"type": "address"
						}
					],
					"stateMutability": "view",
					"type": "function"
				},
				{
					"inputs": [],
					"name": "limit",
					"outputs": [
						{
							"internalType": "uint256",
							"name": "",
							"type": "uint256"
						}
					],
					"stateMutability": "view",
					"type": "function"
				},
				{
					"inputs": [],
					"name": "owner",
					"outputs": [
						{
							"internalType": "address",
							"name": "",
							"type": "address"
						}
					],
					"stateMutability": "view",
					"type": "function"
				},
				{
					"inputs": [],
					"name": "paymentToken",
					"outputs": [
						{
							"internalType": "contract IERC20",
							"name": "",
							"type": "address"
						}
					],
					"stateMutability": "view",
					"type": "function"
				},
				{
					"inputs": [],
					"name": "percentagePerPeriod",
					"outputs": [
						{
							"internalType": "uint256",
							"name": "",
							"type": "uint256"
						}
					],
					"stateMutability": "view",
					"type": "function"
				},
				{
					"inputs": [],
					"name": "period",
					"outputs": [
						{
							"internalType": "uint256",
							"name": "",
							"type": "uint256"
						}
					],
					"stateMutability": "view",
					"type": "function"
				},
				{
					"inputs": [],
					"name": "pricePerToken",
					"outputs": [
						{
							"internalType": "uint256",
							"name": "",
							"type": "uint256"
						}
					],
					"stateMutability": "view",
					"type": "function"
				},
				{
					"inputs": [],
					"name": "renounceOwnership",
					"outputs": [],
					"stateMutability": "nonpayable",
					"type": "function"
				},
				{
					"inputs": [],
					"name": "requireWhitelist",
					"outputs": [
						{
							"internalType": "bool",
							"name": "",
							"type": "bool"
						}
					],
					"stateMutability": "view",
					"type": "function"
				},
				{
					"inputs": [],
					"name": "rewardToken",
					"outputs": [
						{
							"internalType": "contract IERC20",
							"name": "",
							"type": "address"
						}
					],
					"stateMutability": "view",
					"type": "function"
				},
				{
					"inputs": [],
					"name": "saleEnded",
					"outputs": [
						{
							"internalType": "uint256",
							"name": "",
							"type": "uint256"
						}
					],
					"stateMutability": "view",
					"type": "function"
				},
				{
					"inputs": [],
					"name": "softcap",
					"outputs": [
						{
							"internalType": "uint256",
							"name": "",
							"type": "uint256"
						}
					],
					"stateMutability": "view",
					"type": "function"
				},
				{
					"inputs": [],
					"name": "soldTokens",
					"outputs": [
						{
							"internalType": "uint256",
							"name": "",
							"type": "uint256"
						}
					],
					"stateMutability": "view",
					"type": "function"
				},
				{
					"inputs": [
						{
							"internalType": "address",
							"name": "newOwner",
							"type": "address"
						}
					],
					"name": "transferOwnership",
					"outputs": [],
					"stateMutability": "nonpayable",
					"type": "function"
				},
				{
					"inputs": [
						{
							"internalType": "uint256",
							"name": "_afterDays",
							"type": "uint256"
						}
					],
					"name": "updateAfterDays",
					"outputs": [],
					"stateMutability": "nonpayable",
					"type": "function"
				},
				{
					"inputs": [
						{
							"internalType": "contract IERC20",
							"name": "_newRewardToken",
							"type": "address"
						}
					],
					"name": "updateRewardToken",
					"outputs": [],
					"stateMutability": "nonpayable",
					"type": "function"
				},
				{
					"inputs": [
						{
							"internalType": "address",
							"name": "",
							"type": "address"
						}
					],
					"name": "whitelisted",
					"outputs": [
						{
							"internalType": "bool",
							"name": "",
							"type": "bool"
						}
					],
					"stateMutability": "view",
					"type": "function"
				}
			],
			"devdoc": {
				"kind": "dev",
				"methods": {
					"owner()": {
						"details": "Returns the address of the current owner."
					},
					"renounceOwnership()": {
						"details": "Leaves the contract without owner. It will not be possible to call `onlyOwner` functions anymore. Can only be called by the current owner. NOTE: Renouncing ownership will leave the contract without an owner, thereby removing any functionality that is only available to the owner."
					},
					"transferOwnership(address)": {
						"details": "Transfers ownership of the contract to a new account (`newOwner`). Can only be called by the current owner."
					}
				},
				"version": 1
			},
			"evm": {
				"assembly": "    /* \"contracts/PreSale.sol\":434:10712  contract PreSale is Ownable {... */\n  mstore(0x40, 0x80)\n    /* \"contracts/PreSale.sol\":1288:1289  0 */\n  0x00\n    /* \"contracts/PreSale.sol\":1261:1289  uint256 public saleEnded = 0 */\n  0x07\n  sstore\n    /* \"contracts/PreSale.sol\":1931:1935  true */\n  0x01\n    /* \"contracts/PreSale.sol\":1900:1935  bool public requireWhitelist = true */\n  0x09\n  exp(0x0100, 0x00)\n  dup2\n  sload\n  dup2\n  0xff\n  mul\n  not\n  and\n  swap1\n  dup4\n  iszero\n  iszero\n  mul\n  or\n  swap1\n  sstore\n  pop\n    /* \"contracts/PreSale.sol\":3199:3584  constructor(IERC20 _rewardToken, IERC20 _paymentToken, uint256 _limit, uint256 _softcap, uint256 _price) {... */\n  callvalue\n  dup1\n  iszero\n  tag_1\n  jumpi\n  0x00\n  dup1\n  revert\ntag_1:\n  pop\n  mload(0x40)\n  sub(codesize, bytecodeSize)\n  dup1\n  bytecodeSize\n  dup4\n  codecopy\n  dup2\n  dup2\n  add\n  0x40\n  mstore\n  dup2\n  add\n  swap1\n  tag_2\n  swap2\n  swap1\n  tag_3\n  jump\t// in\ntag_2:\n    /* \"@openzeppelin/contracts/access/Ownable.sol\":867:890  _setOwner(_msgSender()) */\n  tag_7\n    /* \"@openzeppelin/contracts/access/Ownable.sol\":877:889  _msgSender() */\n  tag_8\n    /* \"@openzeppelin/contracts/access/Ownable.sol\":877:887  _msgSender */\n  shl(0x20, tag_9)\n    /* \"@openzeppelin/contracts/access/Ownable.sol\":877:889  _msgSender() */\n  0x20\n  shr\n  jump\t// in\ntag_8:\n    /* \"@openzeppelin/contracts/access/Ownable.sol\":867:876  _setOwner */\n  shl(0x20, tag_10)\n    /* \"@openzeppelin/contracts/access/Ownable.sol\":867:890  _setOwner(_msgSender()) */\n  0x20\n  shr\n  jump\t// in\ntag_7:\n    /* \"contracts/PreSale.sol\":3331:3332  0 */\n  0x00\n    /* \"contracts/PreSale.sol\":3322:3328  _price */\n  dup2\n    /* \"contracts/PreSale.sol\":3322:3332  _price > 0 */\n  gt\n    /* \"contracts/PreSale.sol\":3314:3383  require(_price > 0, \"ABOAT::error: Price has to be higher than zero\") */\n  tag_12\n  jumpi\n  mload(0x40)\n  0x08c379a000000000000000000000000000000000000000000000000000000000\n  dup2\n  mstore\n  0x04\n  add\n  tag_13\n  swap1\n  tag_14\n  jump\t// in\ntag_13:\n  mload(0x40)\n  dup1\n  swap2\n  sub\n  swap1\n  revert\ntag_12:\n    /* \"contracts/PreSale.sol\":3407:3419  _rewardToken */\n  dup5\n    /* \"contracts/PreSale.sol\":3393:3404  rewardToken */\n  0x01\n  0x00\n    /* \"contracts/PreSale.sol\":3393:3419  rewardToken = _rewardToken */\n  0x0100\n  exp\n  dup2\n  sload\n  dup2\n  0xffffffffffffffffffffffffffffffffffffffff\n  mul\n  not\n  and\n  swap1\n  dup4\n  0xffffffffffffffffffffffffffffffffffffffff\n  and\n  mul\n  or\n  swap1\n  sstore\n  pop\n    /* \"contracts/PreSale.sol\":3444:3457  _paymentToken */\n  dup4\n    /* \"contracts/PreSale.sol\":3429:3441  paymentToken */\n  0x02\n  0x00\n    /* \"contracts/PreSale.sol\":3429:3457  paymentToken = _paymentToken */\n  0x0100\n  exp\n  dup2\n  sload\n  dup2\n  0xffffffffffffffffffffffffffffffffffffffff\n  mul\n  not\n  and\n  swap1\n  dup4\n  0xffffffffffffffffffffffffffffffffffffffff\n  and\n  mul\n  or\n  swap1\n  sstore\n  pop\n    /* \"contracts/PreSale.sol\":3475:3481  _limit */\n  dup3\n    /* \"contracts/PreSale.sol\":3467:3472  limit */\n  0x04\n    /* \"contracts/PreSale.sol\":3467:3481  limit = _limit */\n  dup2\n  swap1\n  sstore\n  pop\n    /* \"contracts/PreSale.sol\":3501:3509  _softcap */\n  dup2\n    /* \"contracts/PreSale.sol\":3491:3498  softcap */\n  0x05\n    /* \"contracts/PreSale.sol\":3491:3509  softcap = _softcap */\n  dup2\n  swap1\n  sstore\n  pop\n    /* \"contracts/PreSale.sol\":3571:3577  _price */\n  dup1\n    /* \"contracts/PreSale.sol\":3555:3568  pricePerToken */\n  0x03\n    /* \"contracts/PreSale.sol\":3555:3577  pricePerToken = _price */\n  dup2\n  swap1\n  sstore\n  pop\n    /* \"contracts/PreSale.sol\":3199:3584  constructor(IERC20 _rewardToken, IERC20 _paymentToken, uint256 _limit, uint256 _softcap, uint256 _price) {... */\n  pop\n  pop\n  pop\n  pop\n  pop\n    /* \"contracts/PreSale.sol\":434:10712  contract PreSale is Ownable {... */\n  jump(tag_15)\n    /* \"@openzeppelin/contracts/utils/Context.sol\":586:682  function _msgSender() internal view virtual returns (address) {... */\ntag_9:\n    /* \"@openzeppelin/contracts/utils/Context.sol\":639:646  address */\n  0x00\n    /* \"@openzeppelin/contracts/utils/Context.sol\":665:675  msg.sender */\n  caller\n    /* \"@openzeppelin/contracts/utils/Context.sol\":658:675  return msg.sender */\n  swap1\n  pop\n    /* \"@openzeppelin/contracts/utils/Context.sol\":586:682  function _msgSender() internal view virtual returns (address) {... */\n  swap1\n  jump\t// out\n    /* \"@openzeppelin/contracts/access/Ownable.sol\":2041:2210  function _setOwner(address newOwner) private {... */\ntag_10:\n    /* \"@openzeppelin/contracts/access/Ownable.sol\":2096:2112  address oldOwner */\n  0x00\n    /* \"@openzeppelin/contracts/access/Ownable.sol\":2115:2121  _owner */\n  dup1\n  0x00\n  swap1\n  sload\n  swap1\n  0x0100\n  exp\n  swap1\n  div\n  0xffffffffffffffffffffffffffffffffffffffff\n  and\n    /* \"@openzeppelin/contracts/access/Ownable.sol\":2096:2121  address oldOwner = _owner */\n  swap1\n  pop\n    /* \"@openzeppelin/contracts/access/Ownable.sol\":2140:2148  newOwner */\n  dup2\n    /* \"@openzeppelin/contracts/access/Ownable.sol\":2131:2137  _owner */\n  0x00\n  dup1\n    /* \"@openzeppelin/contracts/access/Ownable.sol\":2131:2148  _owner = newOwner */\n  0x0100\n  exp\n  dup2\n  sload\n  dup2\n  0xffffffffffffffffffffffffffffffffffffffff\n  mul\n  not\n  and\n  swap1\n  dup4\n  0xffffffffffffffffffffffffffffffffffffffff\n  and\n  mul\n  or\n  swap1\n  sstore\n  pop\n    /* \"@openzeppelin/contracts/access/Ownable.sol\":2194:2202  newOwner */\n  dup2\n    /* \"@openzeppelin/contracts/access/Ownable.sol\":2163:2203  OwnershipTransferred(oldOwner, newOwner) */\n  0xffffffffffffffffffffffffffffffffffffffff\n  and\n    /* \"@openzeppelin/contracts/access/Ownable.sol\":2184:2192  oldOwner */\n  dup2\n    /* \"@openzeppelin/contracts/access/Ownable.sol\":2163:2203  OwnershipTransferred(oldOwner, newOwner) */\n  0xffffffffffffffffffffffffffffffffffffffff\n  and\n  0x8be0079c531659141344cd1fd0a4f28419497f9722a3daafe3b4186f6b6457e0\n  mload(0x40)\n  mload(0x40)\n  dup1\n  swap2\n  sub\n  swap1\n  log3\n    /* \"@openzeppelin/contracts/access/Ownable.sol\":2086:2210  {... */\n  pop\n    /* \"@openzeppelin/contracts/access/Ownable.sol\":2041:2210  function _setOwner(address newOwner) private {... */\n  pop\n  jump\t// out\n    /* \"#utility.yul\":7:178   */\ntag_19:\n    /* \"#utility.yul\":78:83   */\n  0x00\n    /* \"#utility.yul\":109:115   */\n  dup2\n    /* \"#utility.yul\":103:116   */\n  mload\n    /* \"#utility.yul\":94:116   */\n  swap1\n  pop\n    /* \"#utility.yul\":125:172   */\n  tag_21\n    /* \"#utility.yul\":166:171   */\n  dup2\n    /* \"#utility.yul\":125:172   */\n  tag_22\n  jump\t// in\ntag_21:\n    /* \"#utility.yul\":7:178   */\n  swap3\n  swap2\n  pop\n  pop\n  jump\t// out\n    /* \"#utility.yul\":184:327   */\ntag_23:\n    /* \"#utility.yul\":241:246   */\n  0x00\n    /* \"#utility.yul\":272:278   */\n  dup2\n    /* \"#utility.yul\":266:279   */\n  mload\n    /* \"#utility.yul\":257:279   */\n  swap1\n  pop\n    /* \"#utility.yul\":288:321   */\n  tag_25\n    /* \"#utility.yul\":315:320   */\n  dup2\n    /* \"#utility.yul\":288:321   */\n  tag_26\n  jump\t// in\ntag_25:\n    /* \"#utility.yul\":184:327   */\n  swap3\n  swap2\n  pop\n  pop\n  jump\t// out\n    /* \"#utility.yul\":333:1366   */\ntag_3:\n    /* \"#utility.yul\":467:473   */\n  0x00\n    /* \"#utility.yul\":475:481   */\n  dup1\n    /* \"#utility.yul\":483:489   */\n  0x00\n    /* \"#utility.yul\":491:497   */\n  dup1\n    /* \"#utility.yul\":499:505   */\n  0x00\n    /* \"#utility.yul\":548:551   */\n  0xa0\n    /* \"#utility.yul\":536:545   */\n  dup7\n    /* \"#utility.yul\":527:534   */\n  dup9\n    /* \"#utility.yul\":523:546   */\n  sub\n    /* \"#utility.yul\":519:552   */\n  slt\n    /* \"#utility.yul\":516:636   */\n  iszero\n  tag_28\n  jumpi\n    /* \"#utility.yul\":555:634   */\n  tag_29\n  tag_30\n  jump\t// in\ntag_29:\n    /* \"#utility.yul\":516:636   */\ntag_28:\n    /* \"#utility.yul\":675:676   */\n  0x00\n    /* \"#utility.yul\":700:778   */\n  tag_31\n    /* \"#utility.yul\":770:777   */\n  dup9\n    /* \"#utility.yul\":761:767   */\n  dup3\n    /* \"#utility.yul\":750:759   */\n  dup10\n    /* \"#utility.yul\":746:768   */\n  add\n    /* \"#utility.yul\":700:778   */\n  tag_19\n  jump\t// in\ntag_31:\n    /* \"#utility.yul\":690:778   */\n  swap6\n  pop\n    /* \"#utility.yul\":646:788   */\n  pop\n    /* \"#utility.yul\":827:829   */\n  0x20\n    /* \"#utility.yul\":853:931   */\n  tag_32\n    /* \"#utility.yul\":923:930   */\n  dup9\n    /* \"#utility.yul\":914:920   */\n  dup3\n    /* \"#utility.yul\":903:912   */\n  dup10\n    /* \"#utility.yul\":899:921   */\n  add\n    /* \"#utility.yul\":853:931   */\n  tag_19\n  jump\t// in\ntag_32:\n    /* \"#utility.yul\":843:931   */\n  swap5\n  pop\n    /* \"#utility.yul\":798:941   */\n  pop\n    /* \"#utility.yul\":980:982   */\n  0x40\n    /* \"#utility.yul\":1006:1070   */\n  tag_33\n    /* \"#utility.yul\":1062:1069   */\n  dup9\n    /* \"#utility.yul\":1053:1059   */\n  dup3\n    /* \"#utility.yul\":1042:1051   */\n  dup10\n    /* \"#utility.yul\":1038:1060   */\n  add\n    /* \"#utility.yul\":1006:1070   */\n  tag_23\n  jump\t// in\ntag_33:\n    /* \"#utility.yul\":996:1070   */\n  swap4\n  pop\n    /* \"#utility.yul\":951:1080   */\n  pop\n    /* \"#utility.yul\":1119:1121   */\n  0x60\n    /* \"#utility.yul\":1145:1209   */\n  tag_34\n    /* \"#utility.yul\":1201:1208   */\n  dup9\n    /* \"#utility.yul\":1192:1198   */\n  dup3\n    /* \"#utility.yul\":1181:1190   */\n  dup10\n    /* \"#utility.yul\":1177:1199   */\n  add\n    /* \"#utility.yul\":1145:1209   */\n  tag_23\n  jump\t// in\ntag_34:\n    /* \"#utility.yul\":1135:1209   */\n  swap3\n  pop\n    /* \"#utility.yul\":1090:1219   */\n  pop\n    /* \"#utility.yul\":1258:1261   */\n  0x80\n    /* \"#utility.yul\":1285:1349   */\n  tag_35\n    /* \"#utility.yul\":1341:1348   */\n  dup9\n    /* \"#utility.yul\":1332:1338   */\n  dup3\n    /* \"#utility.yul\":1321:1330   */\n  dup10\n    /* \"#utility.yul\":1317:1339   */\n  add\n    /* \"#utility.yul\":1285:1349   */\n  tag_23\n  jump\t// in\ntag_35:\n    /* \"#utility.yul\":1275:1349   */\n  swap2\n  pop\n    /* \"#utility.yul\":1229:1359   */\n  pop\n    /* \"#utility.yul\":333:1366   */\n  swap3\n  swap6\n  pop\n  swap3\n  swap6\n  swap1\n  swap4\n  pop\n  jump\t// out\n    /* \"#utility.yul\":1372:1738   */\ntag_36:\n    /* \"#utility.yul\":1514:1517   */\n  0x00\n    /* \"#utility.yul\":1535:1602   */\n  tag_38\n    /* \"#utility.yul\":1599:1601   */\n  0x2e\n    /* \"#utility.yul\":1594:1597   */\n  dup4\n    /* \"#utility.yul\":1535:1602   */\n  tag_39\n  jump\t// in\ntag_38:\n    /* \"#utility.yul\":1528:1602   */\n  swap2\n  pop\n    /* \"#utility.yul\":1611:1704   */\n  tag_40\n    /* \"#utility.yul\":1700:1703   */\n  dup3\n    /* \"#utility.yul\":1611:1704   */\n  tag_41\n  jump\t// in\ntag_40:\n    /* \"#utility.yul\":1729:1731   */\n  0x40\n    /* \"#utility.yul\":1724:1727   */\n  dup3\n    /* \"#utility.yul\":1720:1732   */\n  add\n    /* \"#utility.yul\":1713:1732   */\n  swap1\n  pop\n    /* \"#utility.yul\":1372:1738   */\n  swap2\n  swap1\n  pop\n  jump\t// out\n    /* \"#utility.yul\":1744:2163   */\ntag_14:\n    /* \"#utility.yul\":1910:1914   */\n  0x00\n    /* \"#utility.yul\":1948:1950   */\n  0x20\n    /* \"#utility.yul\":1937:1946   */\n  dup3\n    /* \"#utility.yul\":1933:1951   */\n  add\n    /* \"#utility.yul\":1925:1951   */\n  swap1\n  pop\n    /* \"#utility.yul\":1997:2006   */\n  dup2\n    /* \"#utility.yul\":1991:1995   */\n  dup2\n    /* \"#utility.yul\":1987:2007   */\n  sub\n    /* \"#utility.yul\":1983:1984   */\n  0x00\n    /* \"#utility.yul\":1972:1981   */\n  dup4\n    /* \"#utility.yul\":1968:1985   */\n  add\n    /* \"#utility.yul\":1961:2008   */\n  mstore\n    /* \"#utility.yul\":2025:2156   */\n  tag_43\n    /* \"#utility.yul\":2151:2155   */\n  dup2\n    /* \"#utility.yul\":2025:2156   */\n  tag_36\n  jump\t// in\ntag_43:\n    /* \"#utility.yul\":2017:2156   */\n  swap1\n  pop\n    /* \"#utility.yul\":1744:2163   */\n  swap2\n  swap1\n  pop\n  jump\t// out\n    /* \"#utility.yul\":2250:2419   */\ntag_39:\n    /* \"#utility.yul\":2334:2345   */\n  0x00\n    /* \"#utility.yul\":2368:2374   */\n  dup3\n    /* \"#utility.yul\":2363:2366   */\n  dup3\n    /* \"#utility.yul\":2356:2375   */\n  mstore\n    /* \"#utility.yul\":2408:2412   */\n  0x20\n    /* \"#utility.yul\":2403:2406   */\n  dup3\n    /* \"#utility.yul\":2399:2413   */\n  add\n    /* \"#utility.yul\":2384:2413   */\n  swap1\n  pop\n    /* \"#utility.yul\":2250:2419   */\n  swap3\n  swap2\n  pop\n  pop\n  jump\t// out\n    /* \"#utility.yul\":2425:2521   */\ntag_47:\n    /* \"#utility.yul\":2462:2469   */\n  0x00\n    /* \"#utility.yul\":2491:2515   */\n  tag_49\n    /* \"#utility.yul\":2509:2514   */\n  dup3\n    /* \"#utility.yul\":2491:2515   */\n  tag_50\n  jump\t// in\ntag_49:\n    /* \"#utility.yul\":2480:2515   */\n  swap1\n  pop\n    /* \"#utility.yul\":2425:2521   */\n  swap2\n  swap1\n  pop\n  jump\t// out\n    /* \"#utility.yul\":2527:2637   */\ntag_51:\n    /* \"#utility.yul\":2578:2585   */\n  0x00\n    /* \"#utility.yul\":2607:2631   */\n  tag_53\n    /* \"#utility.yul\":2625:2630   */\n  dup3\n    /* \"#utility.yul\":2607:2631   */\n  tag_47\n  jump\t// in\ntag_53:\n    /* \"#utility.yul\":2596:2631   */\n  swap1\n  pop\n    /* \"#utility.yul\":2527:2637   */\n  swap2\n  swap1\n  pop\n  jump\t// out\n    /* \"#utility.yul\":2643:2769   */\ntag_50:\n    /* \"#utility.yul\":2680:2687   */\n  0x00\n    /* \"#utility.yul\":2720:2762   */\n  0xffffffffffffffffffffffffffffffffffffffff\n    /* \"#utility.yul\":2713:2718   */\n  dup3\n    /* \"#utility.yul\":2709:2763   */\n  and\n    /* \"#utility.yul\":2698:2763   */\n  swap1\n  pop\n    /* \"#utility.yul\":2643:2769   */\n  swap2\n  swap1\n  pop\n  jump\t// out\n    /* \"#utility.yul\":2775:2852   */\ntag_55:\n    /* \"#utility.yul\":2812:2819   */\n  0x00\n    /* \"#utility.yul\":2841:2846   */\n  dup2\n    /* \"#utility.yul\":2830:2846   */\n  swap1\n  pop\n    /* \"#utility.yul\":2775:2852   */\n  swap2\n  swap1\n  pop\n  jump\t// out\n    /* \"#utility.yul\":2981:3098   */\ntag_30:\n    /* \"#utility.yul\":3090:3091   */\n  0x00\n    /* \"#utility.yul\":3087:3088   */\n  dup1\n    /* \"#utility.yul\":3080:3092   */\n  revert\n    /* \"#utility.yul\":3104:3337   */\ntag_41:\n    /* \"#utility.yul\":3244:3278   */\n  0x41424f41543a3a6572726f723a2050726963652068617320746f206265206869\n    /* \"#utility.yul\":3240:3241   */\n  0x00\n    /* \"#utility.yul\":3232:3238   */\n  dup3\n    /* \"#utility.yul\":3228:3242   */\n  add\n    /* \"#utility.yul\":3221:3279   */\n  mstore\n    /* \"#utility.yul\":3313:3329   */\n  0x67686572207468616e207a65726f000000000000000000000000000000000000\n    /* \"#utility.yul\":3308:3310   */\n  0x20\n    /* \"#utility.yul\":3300:3306   */\n  dup3\n    /* \"#utility.yul\":3296:3311   */\n  add\n    /* \"#utility.yul\":3289:3330   */\n  mstore\n    /* \"#utility.yul\":3104:3337   */\n  pop\n  jump\t// out\n    /* \"#utility.yul\":3343:3493   */\ntag_22:\n    /* \"#utility.yul\":3430:3468   */\n  tag_62\n    /* \"#utility.yul\":3462:3467   */\n  dup2\n    /* \"#utility.yul\":3430:3468   */\n  tag_51\n  jump\t// in\ntag_62:\n    /* \"#utility.yul\":3423:3428   */\n  dup2\n    /* \"#utility.yul\":3420:3469   */\n  eq\n    /* \"#utility.yul\":3410:3487   */\n  tag_63\n  jumpi\n    /* \"#utility.yul\":3483:3484   */\n  0x00\n    /* \"#utility.yul\":3480:3481   */\n  dup1\n    /* \"#utility.yul\":3473:3485   */\n  revert\n    /* \"#utility.yul\":3410:3487   */\ntag_63:\n    /* \"#utility.yul\":3343:3493   */\n  pop\n  jump\t// out\n    /* \"#utility.yul\":3499:3621   */\ntag_26:\n    /* \"#utility.yul\":3572:3596   */\n  tag_65\n    /* \"#utility.yul\":3590:3595   */\n  dup2\n    /* \"#utility.yul\":3572:3596   */\n  tag_55\n  jump\t// in\ntag_65:\n    /* \"#utility.yul\":3565:3570   */\n  dup2\n    /* \"#utility.yul\":3562:3597   */\n  eq\n    /* \"#utility.yul\":3552:3615   */\n  tag_66\n  jumpi\n    /* \"#utility.yul\":3611:3612   */\n  0x00\n    /* \"#utility.yul\":3608:3609   */\n  dup1\n    /* \"#utility.yul\":3601:3613   */\n  revert\n    /* \"#utility.yul\":3552:3615   */\ntag_66:\n    /* \"#utility.yul\":3499:3621   */\n  pop\n  jump\t// out\n    /* \"contracts/PreSale.sol\":434:10712  contract PreSale is Ownable {... */\ntag_15:\n  dataSize(sub_0)\n  dup1\n  dataOffset(sub_0)\n  0x00\n  codecopy\n  0x00\n  return\nstop\n\nsub_0: assembly {\n        /* \"contracts/PreSale.sol\":434:10712  contract PreSale is Ownable {... */\n      mstore(0x40, 0x80)\n      jumpi(tag_1, lt(calldatasize, 0x04))\n      shr(0xe0, calldataload(0x00))\n      dup1\n      0xa4d66daf\n      gt\n      tag_31\n      jumpi\n      dup1\n      0xe754e7c4\n      gt\n      tag_32\n      jumpi\n      dup1\n      0xf3739e05\n      gt\n      tag_33\n      jumpi\n      dup1\n      0xf3739e05\n      eq\n      tag_27\n      jumpi\n      dup1\n      0xf7c618c1\n      eq\n      tag_28\n      jumpi\n      dup1\n      0xf89be593\n      eq\n      tag_29\n      jumpi\n      dup1\n      0xf8cf31cb\n      eq\n      tag_30\n      jumpi\n      jump(tag_1)\n    tag_33:\n      dup1\n      0xe754e7c4\n      eq\n      tag_23\n      jumpi\n      dup1\n      0xef78d4fd\n      eq\n      tag_24\n      jumpi\n      dup1\n      0xefe95f51\n      eq\n      tag_25\n      jumpi\n      dup1\n      0xf2fde38b\n      eq\n      tag_26\n      jumpi\n      jump(tag_1)\n    tag_32:\n      dup1\n      0xc884ef83\n      gt\n      tag_34\n      jumpi\n      dup1\n      0xc884ef83\n      eq\n      tag_19\n      jumpi\n      dup1\n      0xd6b0f484\n      eq\n      tag_20\n      jumpi\n      dup1\n      0xd936547e\n      eq\n      tag_21\n      jumpi\n      dup1\n      0xd96a094a\n      eq\n      tag_22\n      jumpi\n      jump(tag_1)\n    tag_34:\n      dup1\n      0xa4d66daf\n      eq\n      tag_16\n      jumpi\n      dup1\n      0xa5ebf835\n      eq\n      tag_17\n      jumpi\n      dup1\n      0xa960c65f\n      eq\n      tag_18\n      jumpi\n      jump(tag_1)\n    tag_31:\n      dup1\n      0x667022fd\n      gt\n      tag_35\n      jumpi\n      dup1\n      0x856734c4\n      gt\n      tag_36\n      jumpi\n      dup1\n      0x856734c4\n      eq\n      tag_12\n      jumpi\n      dup1\n      0x8da5cb5b\n      eq\n      tag_13\n      jumpi\n      dup1\n      0x9b8906ae\n      eq\n      tag_14\n      jumpi\n      dup1\n      0x9c92431b\n      eq\n      tag_15\n      jumpi\n      jump(tag_1)\n    tag_36:\n      dup1\n      0x667022fd\n      eq\n      tag_9\n      jumpi\n      dup1\n      0x715018a6\n      eq\n      tag_10\n      jumpi\n      dup1\n      0x7b1b1de6\n      eq\n      tag_11\n      jumpi\n      jump(tag_1)\n    tag_35:\n      dup1\n      0x2fba2c85\n      gt\n      tag_37\n      jumpi\n      dup1\n      0x2fba2c85\n      eq\n      tag_5\n      jumpi\n      dup1\n      0x3013ce29\n      eq\n      tag_6\n      jumpi\n      dup1\n      0x4e71d92d\n      eq\n      tag_7\n      jumpi\n      dup1\n      0x5ed9ebfc\n      eq\n      tag_8\n      jumpi\n      jump(tag_1)\n    tag_37:\n      dup1\n      0x0c0e0862\n      eq\n      tag_2\n      jumpi\n      dup1\n      0x151bad0a\n      eq\n      tag_3\n      jumpi\n      dup1\n      0x2f661946\n      eq\n      tag_4\n      jumpi\n    tag_1:\n      0x00\n      dup1\n      revert\n        /* \"contracts/PreSale.sol\":6069:6245  function updateAfterDays(uint256 _afterDays) public onlyOwner {... */\n    tag_2:\n      callvalue\n      dup1\n      iszero\n      tag_38\n      jumpi\n      0x00\n      dup1\n      revert\n    tag_38:\n      pop\n      tag_39\n      0x04\n      dup1\n      calldatasize\n      sub\n      dup2\n      add\n      swap1\n      tag_40\n      swap2\n      swap1\n      tag_41\n      jump\t// in\n    tag_40:\n      tag_42\n      jump\t// in\n    tag_39:\n      stop\n        /* \"contracts/PreSale.sol\":1642:1690  uint256 constant public percentagePerPeriod = 50 */\n    tag_3:\n      callvalue\n      dup1\n      iszero\n      tag_43\n      jumpi\n      0x00\n      dup1\n      revert\n    tag_43:\n      pop\n      tag_44\n      tag_45\n      jump\t// in\n    tag_44:\n      mload(0x40)\n      tag_46\n      swap2\n      swap1\n      tag_47\n      jump\t// in\n    tag_46:\n      mload(0x40)\n      dup1\n      swap2\n      sub\n      swap1\n      return\n        /* \"contracts/PreSale.sol\":1774:1814  uint256 constant public cliffPeriod = 90 */\n    tag_4:\n      callvalue\n      dup1\n      iszero\n      tag_48\n      jumpi\n      0x00\n      dup1\n      revert\n    tag_48:\n      pop\n      tag_49\n      tag_50\n      jump\t// in\n    tag_49:\n      mload(0x40)\n      tag_51\n      swap2\n      swap1\n      tag_47\n      jump\t// in\n    tag_51:\n      mload(0x40)\n      dup1\n      swap2\n      sub\n      swap1\n      return\n        /* \"contracts/PreSale.sol\":6576:6851  function getRemainingBalance() public view returns (uint256) {... */\n    tag_5:\n      callvalue\n      dup1\n      iszero\n      tag_52\n      jumpi\n      0x00\n      dup1\n      revert\n    tag_52:\n      pop\n      tag_53\n      tag_54\n      jump\t// in\n    tag_53:\n      mload(0x40)\n      tag_55\n      swap2\n      swap1\n      tag_47\n      jump\t// in\n    tag_55:\n      mload(0x40)\n      dup1\n      swap2\n      sub\n      swap1\n      return\n        /* \"contracts/PreSale.sol\":929:955  IERC20 public paymentToken */\n    tag_6:\n      callvalue\n      dup1\n      iszero\n      tag_56\n      jumpi\n      0x00\n      dup1\n      revert\n    tag_56:\n      pop\n      tag_57\n      tag_58\n      jump\t// in\n    tag_57:\n      mload(0x40)\n      tag_59\n      swap2\n      swap1\n      tag_60\n      jump\t// in\n    tag_59:\n      mload(0x40)\n      dup1\n      swap2\n      sub\n      swap1\n      return\n        /* \"contracts/PreSale.sol\":8898:10710  function claim() public {... */\n    tag_7:\n      callvalue\n      dup1\n      iszero\n      tag_61\n      jumpi\n      0x00\n      dup1\n      revert\n    tag_61:\n      pop\n      tag_62\n      tag_63\n      jump\t// in\n    tag_62:\n      stop\n        /* \"contracts/PreSale.sol\":1194:1219  uint256 public soldTokens */\n    tag_8:\n      callvalue\n      dup1\n      iszero\n      tag_64\n      jumpi\n      0x00\n      dup1\n      revert\n    tag_64:\n      pop\n      tag_65\n      tag_66\n      jump\t// in\n    tag_65:\n      mload(0x40)\n      tag_67\n      swap2\n      swap1\n      tag_47\n      jump\t// in\n    tag_67:\n      mload(0x40)\n      dup1\n      swap2\n      sub\n      swap1\n      return\n        /* \"contracts/PreSale.sol\":2063:2104  mapping(address => uint256) public bought */\n    tag_9:\n      callvalue\n      dup1\n      iszero\n      tag_68\n      jumpi\n      0x00\n      dup1\n      revert\n    tag_68:\n      pop\n      tag_69\n      0x04\n      dup1\n      calldatasize\n      sub\n      dup2\n      add\n      swap1\n      tag_70\n      swap2\n      swap1\n      tag_71\n      jump\t// in\n    tag_70:\n      tag_72\n      jump\t// in\n    tag_69:\n      mload(0x40)\n      tag_73\n      swap2\n      swap1\n      tag_47\n      jump\t// in\n    tag_73:\n      mload(0x40)\n      dup1\n      swap2\n      sub\n      swap1\n      return\n        /* \"@openzeppelin/contracts/access/Ownable.sol\":1605:1697  function renounceOwnership() public virtual onlyOwner {... */\n    tag_10:\n      callvalue\n      dup1\n      iszero\n      tag_74\n      jumpi\n      0x00\n      dup1\n      revert\n    tag_74:\n      pop\n      tag_75\n      tag_76\n      jump\t// in\n    tag_75:\n      stop\n        /* \"contracts/PreSale.sol\":967:995  uint256 public pricePerToken */\n    tag_11:\n      callvalue\n      dup1\n      iszero\n      tag_77\n      jumpi\n      0x00\n      dup1\n      revert\n    tag_77:\n      pop\n      tag_78\n      tag_79\n      jump\t// in\n    tag_78:\n      mload(0x40)\n      tag_80\n      swap2\n      swap1\n      tag_47\n      jump\t// in\n    tag_80:\n      mload(0x40)\n      dup1\n      swap2\n      sub\n      swap1\n      return\n        /* \"contracts/PreSale.sol\":1900:1935  bool public requireWhitelist = true */\n    tag_12:\n      callvalue\n      dup1\n      iszero\n      tag_81\n      jumpi\n      0x00\n      dup1\n      revert\n    tag_81:\n      pop\n      tag_82\n      tag_83\n      jump\t// in\n    tag_82:\n      mload(0x40)\n      tag_84\n      swap2\n      swap1\n      tag_85\n      jump\t// in\n    tag_84:\n      mload(0x40)\n      dup1\n      swap2\n      sub\n      swap1\n      return\n        /* \"@openzeppelin/contracts/access/Ownable.sol\":973:1058  function owner() public view virtual returns (address) {... */\n    tag_13:\n      callvalue\n      dup1\n      iszero\n      tag_86\n      jumpi\n      0x00\n      dup1\n      revert\n    tag_86:\n      pop\n      tag_87\n      tag_88\n      jump\t// in\n    tag_87:\n      mload(0x40)\n      tag_89\n      swap2\n      swap1\n      tag_90\n      jump\t// in\n    tag_89:\n      mload(0x40)\n      dup1\n      swap2\n      sub\n      swap1\n      return\n        /* \"contracts/PreSale.sol\":1261:1289  uint256 public saleEnded = 0 */\n    tag_14:\n      callvalue\n      dup1\n      iszero\n      tag_91\n      jumpi\n      0x00\n      dup1\n      revert\n    tag_91:\n      pop\n      tag_92\n      tag_93\n      jump\t// in\n    tag_92:\n      mload(0x40)\n      tag_94\n      swap2\n      swap1\n      tag_47\n      jump\t// in\n    tag_94:\n      mload(0x40)\n      dup1\n      swap2\n      sub\n      swap1\n      return\n        /* \"contracts/PreSale.sol\":6861:7374  function getCurrentPercentage() public view returns (uint256) {... */\n    tag_15:\n      callvalue\n      dup1\n      iszero\n      tag_95\n      jumpi\n      0x00\n      dup1\n      revert\n    tag_95:\n      pop\n      tag_96\n      tag_97\n      jump\t// in\n    tag_96:\n      mload(0x40)\n      tag_98\n      swap2\n      swap1\n      tag_47\n      jump\t// in\n    tag_98:\n      mload(0x40)\n      dup1\n      swap2\n      sub\n      swap1\n      return\n        /* \"contracts/PreSale.sol\":1034:1054  uint256 public limit */\n    tag_16:\n      callvalue\n      dup1\n      iszero\n      tag_99\n      jumpi\n      0x00\n      dup1\n      revert\n    tag_99:\n      pop\n      tag_100\n      tag_101\n      jump\t// in\n    tag_100:\n      mload(0x40)\n      tag_102\n      swap2\n      swap1\n      tag_47\n      jump\t// in\n    tag_102:\n      mload(0x40)\n      dup1\n      swap2\n      sub\n      swap1\n      return\n        /* \"contracts/PreSale.sol\":1515:1567  uint256 constant public initialClaimPercentage = 100 */\n    tag_17:\n      callvalue\n      dup1\n      iszero\n      tag_103\n      jumpi\n      0x00\n      dup1\n      revert\n    tag_103:\n      pop\n      tag_104\n      tag_105\n      jump\t// in\n    tag_104:\n      mload(0x40)\n      tag_106\n      swap2\n      swap1\n      tag_47\n      jump\t// in\n    tag_106:\n      mload(0x40)\n      dup1\n      swap2\n      sub\n      swap1\n      return\n        /* \"contracts/PreSale.sol\":2255:2303  mapping(address => uint256) public claimedTokens */\n    tag_18:\n      callvalue\n      dup1\n      iszero\n      tag_107\n      jumpi\n      0x00\n      dup1\n      revert\n    tag_107:\n      pop\n      tag_108\n      0x04\n      dup1\n      calldatasize\n      sub\n      dup2\n      add\n      swap1\n      tag_109\n      swap2\n      swap1\n      tag_71\n      jump\t// in\n    tag_109:\n      tag_110\n      jump\t// in\n    tag_108:\n      mload(0x40)\n      tag_111\n      swap2\n      swap1\n      tag_47\n      jump\t// in\n    tag_111:\n      mload(0x40)\n      dup1\n      swap2\n      sub\n      swap1\n      return\n        /* \"contracts/PreSale.sol\":2152:2194  mapping(address => uint256) public claimed */\n    tag_19:\n      callvalue\n      dup1\n      iszero\n      tag_112\n      jumpi\n      0x00\n      dup1\n      revert\n    tag_112:\n      pop\n      tag_113\n      0x04\n      dup1\n      calldatasize\n      sub\n      dup2\n      add\n      swap1\n      tag_114\n      swap2\n      swap1\n      tag_71\n      jump\t// in\n    tag_114:\n      tag_115\n      jump\t// in\n    tag_113:\n      mload(0x40)\n      tag_116\n      swap2\n      swap1\n      tag_47\n      jump\t// in\n    tag_116:\n      mload(0x40)\n      dup1\n      swap2\n      sub\n      swap1\n      return\n        /* \"contracts/PreSale.sol\":5090:5268  function disableWhitelist() public onlyOwner {... */\n    tag_20:\n      callvalue\n      dup1\n      iszero\n      tag_117\n      jumpi\n      0x00\n      dup1\n      revert\n    tag_117:\n      pop\n      tag_118\n      tag_119\n      jump\t// in\n    tag_118:\n      stop\n        /* \"contracts/PreSale.sol\":2014:2057  mapping(address => bool) public whitelisted */\n    tag_21:\n      callvalue\n      dup1\n      iszero\n      tag_120\n      jumpi\n      0x00\n      dup1\n      revert\n    tag_120:\n      pop\n      tag_121\n      0x04\n      dup1\n      calldatasize\n      sub\n      dup2\n      add\n      swap1\n      tag_122\n      swap2\n      swap1\n      tag_71\n      jump\t// in\n    tag_122:\n      tag_123\n      jump\t// in\n    tag_121:\n      mload(0x40)\n      tag_124\n      swap2\n      swap1\n      tag_85\n      jump\t// in\n    tag_124:\n      mload(0x40)\n      dup1\n      swap2\n      sub\n      swap1\n      return\n        /* \"contracts/PreSale.sol\":7710:8761  function buy(uint256 amount) public payable {... */\n    tag_22:\n      tag_125\n      0x04\n      dup1\n      calldatasize\n      sub\n      dup2\n      add\n      swap1\n      tag_126\n      swap2\n      swap1\n      tag_41\n      jump\t// in\n    tag_126:\n      tag_127\n      jump\t// in\n    tag_125:\n      stop\n        /* \"contracts/PreSale.sol\":1343:1367  uint256 public afterDays */\n    tag_23:\n      callvalue\n      dup1\n      iszero\n      tag_128\n      jumpi\n      0x00\n      dup1\n      revert\n    tag_128:\n      pop\n      tag_129\n      tag_130\n      jump\t// in\n    tag_129:\n      mload(0x40)\n      tag_131\n      swap2\n      swap1\n      tag_47\n      jump\t// in\n    tag_131:\n      mload(0x40)\n      dup1\n      swap2\n      sub\n      swap1\n      return\n        /* \"contracts/PreSale.sol\":1434:1469  uint256 constant public period = 30 */\n    tag_24:\n      callvalue\n      dup1\n      iszero\n      tag_132\n      jumpi\n      0x00\n      dup1\n      revert\n    tag_132:\n      pop\n      tag_133\n      tag_134\n      jump\t// in\n    tag_133:\n      mload(0x40)\n      tag_135\n      swap2\n      swap1\n      tag_47\n      jump\t// in\n    tag_135:\n      mload(0x40)\n      dup1\n      swap2\n      sub\n      swap1\n      return\n        /* \"contracts/PreSale.sol\":3916:5080  function claimAndEndSale(uint256 _afterDays) public onlyOwner {... */\n    tag_25:\n      callvalue\n      dup1\n      iszero\n      tag_136\n      jumpi\n      0x00\n      dup1\n      revert\n    tag_136:\n      pop\n      tag_137\n      0x04\n      dup1\n      calldatasize\n      sub\n      dup2\n      add\n      swap1\n      tag_138\n      swap2\n      swap1\n      tag_41\n      jump\t// in\n    tag_138:\n      tag_139\n      jump\t// in\n    tag_137:\n      stop\n        /* \"@openzeppelin/contracts/access/Ownable.sol\":1846:2035  function transferOwnership(address newOwner) public virtual onlyOwner {... */\n    tag_26:\n      callvalue\n      dup1\n      iszero\n      tag_140\n      jumpi\n      0x00\n      dup1\n      revert\n    tag_140:\n      pop\n      tag_141\n      0x04\n      dup1\n      calldatasize\n      sub\n      dup2\n      add\n      swap1\n      tag_142\n      swap2\n      swap1\n      tag_71\n      jump\t// in\n    tag_142:\n      tag_143\n      jump\t// in\n    tag_141:\n      stop\n        /* \"contracts/PreSale.sol\":2351:2402  mapping(address => address) public lastClaimAddress */\n    tag_27:\n      callvalue\n      dup1\n      iszero\n      tag_144\n      jumpi\n      0x00\n      dup1\n      revert\n    tag_144:\n      pop\n      tag_145\n      0x04\n      dup1\n      calldatasize\n      sub\n      dup2\n      add\n      swap1\n      tag_146\n      swap2\n      swap1\n      tag_71\n      jump\t// in\n    tag_146:\n      tag_147\n      jump\t// in\n    tag_145:\n      mload(0x40)\n      tag_148\n      swap2\n      swap1\n      tag_90\n      jump\t// in\n    tag_148:\n      mload(0x40)\n      dup1\n      swap2\n      sub\n      swap1\n      return\n        /* \"contracts/PreSale.sol\":884:909  IERC20 public rewardToken */\n    tag_28:\n      callvalue\n      dup1\n      iszero\n      tag_149\n      jumpi\n      0x00\n      dup1\n      revert\n    tag_149:\n      pop\n      tag_150\n      tag_151\n      jump\t// in\n    tag_150:\n      mload(0x40)\n      tag_152\n      swap2\n      swap1\n      tag_60\n      jump\t// in\n    tag_152:\n      mload(0x40)\n      dup1\n      swap2\n      sub\n      swap1\n      return\n        /* \"contracts/PreSale.sol\":1109:1131  uint256 public softcap */\n    tag_29:\n      callvalue\n      dup1\n      iszero\n      tag_153\n      jumpi\n      0x00\n      dup1\n      revert\n    tag_153:\n      pop\n      tag_154\n      tag_155\n      jump\t// in\n    tag_154:\n      mload(0x40)\n      tag_156\n      swap2\n      swap1\n      tag_47\n      jump\t// in\n    tag_156:\n      mload(0x40)\n      dup1\n      swap2\n      sub\n      swap1\n      return\n        /* \"contracts/PreSale.sol\":5546:6059  function updateRewardToken(IERC20 _newRewardToken) public onlyOwner {... */\n    tag_30:\n      callvalue\n      dup1\n      iszero\n      tag_157\n      jumpi\n      0x00\n      dup1\n      revert\n    tag_157:\n      pop\n      tag_158\n      0x04\n      dup1\n      calldatasize\n      sub\n      dup2\n      add\n      swap1\n      tag_159\n      swap2\n      swap1\n      tag_160\n      jump\t// in\n    tag_159:\n      tag_161\n      jump\t// in\n    tag_158:\n      stop\n        /* \"contracts/PreSale.sol\":6069:6245  function updateAfterDays(uint256 _afterDays) public onlyOwner {... */\n    tag_42:\n        /* \"@openzeppelin/contracts/access/Ownable.sol\":1196:1208  _msgSender() */\n      tag_163\n        /* \"@openzeppelin/contracts/access/Ownable.sol\":1196:1206  _msgSender */\n      tag_164\n        /* \"@openzeppelin/contracts/access/Ownable.sol\":1196:1208  _msgSender() */\n      jump\t// in\n    tag_163:\n        /* \"@openzeppelin/contracts/access/Ownable.sol\":1185:1208  owner() == _msgSender() */\n      0xffffffffffffffffffffffffffffffffffffffff\n      and\n        /* \"@openzeppelin/contracts/access/Ownable.sol\":1185:1192  owner() */\n      tag_165\n        /* \"@openzeppelin/contracts/access/Ownable.sol\":1185:1190  owner */\n      tag_88\n        /* \"@openzeppelin/contracts/access/Ownable.sol\":1185:1192  owner() */\n      jump\t// in\n    tag_165:\n        /* \"@openzeppelin/contracts/access/Ownable.sol\":1185:1208  owner() == _msgSender() */\n      0xffffffffffffffffffffffffffffffffffffffff\n      and\n      eq\n        /* \"@openzeppelin/contracts/access/Ownable.sol\":1177:1245  require(owner() == _msgSender(), \"Ownable: caller is not the owner\") */\n      tag_166\n      jumpi\n      mload(0x40)\n      0x08c379a000000000000000000000000000000000000000000000000000000000\n      dup2\n      mstore\n      0x04\n      add\n      tag_167\n      swap1\n      tag_168\n      jump\t// in\n    tag_167:\n      mload(0x40)\n      dup1\n      swap2\n      sub\n      swap1\n      revert\n    tag_166:\n        /* \"contracts/PreSale.sol\":6162:6163  0 */\n      0x00\n        /* \"contracts/PreSale.sol\":6149:6158  saleEnded */\n      sload(0x07)\n        /* \"contracts/PreSale.sol\":6149:6163  saleEnded != 0 */\n      eq\n      iszero\n        /* \"contracts/PreSale.sol\":6141:6206  require(saleEnded != 0, \"ABOAT::updateAfterDays: Sale not ended\") */\n      tag_170\n      jumpi\n      mload(0x40)\n      0x08c379a000000000000000000000000000000000000000000000000000000000\n      dup2\n      mstore\n      0x04\n      add\n      tag_171\n      swap1\n      tag_172\n      jump\t// in\n    tag_171:\n      mload(0x40)\n      dup1\n      swap2\n      sub\n      swap1\n      revert\n    tag_170:\n        /* \"contracts/PreSale.sol\":6228:6238  _afterDays */\n      dup1\n        /* \"contracts/PreSale.sol\":6216:6225  afterDays */\n      0x08\n        /* \"contracts/PreSale.sol\":6216:6238  afterDays = _afterDays */\n      dup2\n      swap1\n      sstore\n      pop\n        /* \"contracts/PreSale.sol\":6069:6245  function updateAfterDays(uint256 _afterDays) public onlyOwner {... */\n      pop\n      jump\t// out\n        /* \"contracts/PreSale.sol\":1642:1690  uint256 constant public percentagePerPeriod = 50 */\n    tag_45:\n        /* \"contracts/PreSale.sol\":1688:1690  50 */\n      0x32\n        /* \"contracts/PreSale.sol\":1642:1690  uint256 constant public percentagePerPeriod = 50 */\n      dup2\n      jump\t// out\n        /* \"contracts/PreSale.sol\":1774:1814  uint256 constant public cliffPeriod = 90 */\n    tag_50:\n        /* \"contracts/PreSale.sol\":1812:1814  90 */\n      0x5a\n        /* \"contracts/PreSale.sol\":1774:1814  uint256 constant public cliffPeriod = 90 */\n      dup2\n      jump\t// out\n        /* \"contracts/PreSale.sol\":6576:6851  function getRemainingBalance() public view returns (uint256) {... */\n    tag_54:\n        /* \"contracts/PreSale.sol\":6628:6635  uint256 */\n      0x00\n        /* \"contracts/PreSale.sol\":6682:6683  0 */\n      dup1\n        /* \"contracts/PreSale.sol\":6650:6684  address(rewardToken) == address(0) */\n      0xffffffffffffffffffffffffffffffffffffffff\n      and\n        /* \"contracts/PreSale.sol\":6658:6669  rewardToken */\n      0x01\n      0x00\n      swap1\n      sload\n      swap1\n      0x0100\n      exp\n      swap1\n      div\n      0xffffffffffffffffffffffffffffffffffffffff\n      and\n        /* \"contracts/PreSale.sol\":6650:6684  address(rewardToken) == address(0) */\n      0xffffffffffffffffffffffffffffffffffffffff\n      and\n      eq\n        /* \"contracts/PreSale.sol\":6647:6845  if(address(rewardToken) == address(0)) {... */\n      iszero\n      tag_174\n      jumpi\n        /* \"contracts/PreSale.sol\":6707:6744  address(this).balance.sub(soldTokens) */\n      tag_175\n        /* \"contracts/PreSale.sol\":6733:6743  soldTokens */\n      sload(0x06)\n        /* \"contracts/PreSale.sol\":6707:6728  address(this).balance */\n      selfbalance\n        /* \"contracts/PreSale.sol\":6707:6732  address(this).balance.sub */\n      tag_176\n      swap1\n        /* \"contracts/PreSale.sol\":6707:6744  address(this).balance.sub(soldTokens) */\n      swap2\n      swap1\n      0xffffffff\n      and\n      jump\t// in\n    tag_175:\n        /* \"contracts/PreSale.sol\":6700:6744  return address(this).balance.sub(soldTokens) */\n      swap1\n      pop\n      jump(tag_173)\n        /* \"contracts/PreSale.sol\":6647:6845  if(address(rewardToken) == address(0)) {... */\n    tag_174:\n        /* \"contracts/PreSale.sol\":6782:6834  rewardToken.balanceOf(address(this)).sub(soldTokens) */\n      tag_178\n        /* \"contracts/PreSale.sol\":6823:6833  soldTokens */\n      sload(0x06)\n        /* \"contracts/PreSale.sol\":6782:6793  rewardToken */\n      0x01\n      0x00\n      swap1\n      sload\n      swap1\n      0x0100\n      exp\n      swap1\n      div\n      0xffffffffffffffffffffffffffffffffffffffff\n      and\n        /* \"contracts/PreSale.sol\":6782:6803  rewardToken.balanceOf */\n      0xffffffffffffffffffffffffffffffffffffffff\n      and\n      0x70a08231\n        /* \"contracts/PreSale.sol\":6812:6816  this */\n      address\n        /* \"contracts/PreSale.sol\":6782:6818  rewardToken.balanceOf(address(this)) */\n      mload(0x40)\n      dup3\n      0xffffffff\n      and\n      0xe0\n      shl\n      dup2\n      mstore\n      0x04\n      add\n      tag_179\n      swap2\n      swap1\n      tag_90\n      jump\t// in\n    tag_179:\n      0x20\n      mload(0x40)\n      dup1\n      dup4\n      sub\n      dup2\n      dup7\n      dup1\n      extcodesize\n      iszero\n      dup1\n      iszero\n      tag_180\n      jumpi\n      0x00\n      dup1\n      revert\n    tag_180:\n      pop\n      gas\n      staticcall\n      iszero\n      dup1\n      iszero\n      tag_182\n      jumpi\n      returndatasize\n      0x00\n      dup1\n      returndatacopy\n      revert(0x00, returndatasize)\n    tag_182:\n      pop\n      pop\n      pop\n      pop\n      mload(0x40)\n      returndatasize\n      not(0x1f)\n      0x1f\n      dup3\n      add\n      and\n      dup3\n      add\n      dup1\n      0x40\n      mstore\n      pop\n      dup2\n      add\n      swap1\n      tag_183\n      swap2\n      swap1\n      tag_184\n      jump\t// in\n    tag_183:\n        /* \"contracts/PreSale.sol\":6782:6822  rewardToken.balanceOf(address(this)).sub */\n      tag_176\n      swap1\n        /* \"contracts/PreSale.sol\":6782:6834  rewardToken.balanceOf(address(this)).sub(soldTokens) */\n      swap2\n      swap1\n      0xffffffff\n      and\n      jump\t// in\n    tag_178:\n        /* \"contracts/PreSale.sol\":6775:6834  return rewardToken.balanceOf(address(this)).sub(soldTokens) */\n      swap1\n      pop\n        /* \"contracts/PreSale.sol\":6576:6851  function getRemainingBalance() public view returns (uint256) {... */\n    tag_173:\n      swap1\n      jump\t// out\n        /* \"contracts/PreSale.sol\":929:955  IERC20 public paymentToken */\n    tag_58:\n      0x02\n      0x00\n      swap1\n      sload\n      swap1\n      0x0100\n      exp\n      swap1\n      div\n      0xffffffffffffffffffffffffffffffffffffffff\n      and\n      dup2\n      jump\t// out\n        /* \"contracts/PreSale.sol\":8898:10710  function claim() public {... */\n    tag_63:\n        /* \"contracts/PreSale.sol\":8953:8954  0 */\n      0x00\n        /* \"contracts/PreSale.sol\":8940:8949  saleEnded */\n      sload(0x07)\n        /* \"contracts/PreSale.sol\":8940:8954  saleEnded != 0 */\n      eq\n      iszero\n        /* \"contracts/PreSale.sol\":8932:8994  require(saleEnded != 0, \"ABOAT::claim: Sale is not over yet!\") */\n      tag_186\n      jumpi\n      mload(0x40)\n      0x08c379a000000000000000000000000000000000000000000000000000000000\n      dup2\n      mstore\n      0x04\n      add\n      tag_187\n      swap1\n      tag_188\n      jump\t// in\n    tag_187:\n      mload(0x40)\n      dup1\n      swap2\n      sub\n      swap1\n      revert\n    tag_186:\n        /* \"contracts/PreSale.sol\":9031:9069  saleEnded.add((afterDays.mul(1 days))) */\n      tag_189\n        /* \"contracts/PreSale.sol\":9046:9067  afterDays.mul(1 days) */\n      tag_190\n        /* \"contracts/PreSale.sol\":9060:9066  1 days */\n      0x015180\n        /* \"contracts/PreSale.sol\":9046:9055  afterDays */\n      sload(0x08)\n        /* \"contracts/PreSale.sol\":9046:9059  afterDays.mul */\n      tag_191\n      swap1\n        /* \"contracts/PreSale.sol\":9046:9067  afterDays.mul(1 days) */\n      swap2\n      swap1\n      0xffffffff\n      and\n      jump\t// in\n    tag_190:\n        /* \"contracts/PreSale.sol\":9031:9040  saleEnded */\n      sload(0x07)\n        /* \"contracts/PreSale.sol\":9031:9044  saleEnded.add */\n      tag_192\n      swap1\n        /* \"contracts/PreSale.sol\":9031:9069  saleEnded.add((afterDays.mul(1 days))) */\n      swap2\n      swap1\n      0xffffffff\n      and\n      jump\t// in\n    tag_189:\n        /* \"contracts/PreSale.sol\":9012:9027  block.timestamp */\n      timestamp\n        /* \"contracts/PreSale.sol\":9012:9069  block.timestamp >= saleEnded.add((afterDays.mul(1 days))) */\n      lt\n      iszero\n        /* \"contracts/PreSale.sol\":9004:9115  require(block.timestamp >= saleEnded.add((afterDays.mul(1 days))), \"ABOAT::claim: Claim is not available yet.\") */\n      tag_193\n      jumpi\n      mload(0x40)\n      0x08c379a000000000000000000000000000000000000000000000000000000000\n      dup2\n      mstore\n      0x04\n      add\n      tag_194\n      swap1\n      tag_195\n      jump\t// in\n    tag_194:\n      mload(0x40)\n      dup1\n      swap2\n      sub\n      swap1\n      revert\n    tag_193:\n        /* \"contracts/PreSale.sol\":9125:9150  uint256 currentPercentage */\n      0x00\n        /* \"contracts/PreSale.sol\":9153:9175  getCurrentPercentage() */\n      tag_196\n        /* \"contracts/PreSale.sol\":9153:9173  getCurrentPercentage */\n      tag_97\n        /* \"contracts/PreSale.sol\":9153:9175  getCurrentPercentage() */\n      jump\t// in\n    tag_196:\n        /* \"contracts/PreSale.sol\":9125:9175  uint256 currentPercentage = getCurrentPercentage() */\n      swap1\n      pop\n        /* \"contracts/PreSale.sol\":9213:9214  0 */\n      0x00\n        /* \"contracts/PreSale.sol\":9193:9210  currentPercentage */\n      dup2\n        /* \"contracts/PreSale.sol\":9193:9214  currentPercentage > 0 */\n      gt\n        /* \"contracts/PreSale.sol\":9185:9312  require(currentPercentage > 0, \"ABOAT::claim: The percentage of token you can claim is currently zero. Please try again later\") */\n      tag_197\n      jumpi\n      mload(0x40)\n      0x08c379a000000000000000000000000000000000000000000000000000000000\n      dup2\n      mstore\n      0x04\n      add\n      tag_198\n      swap1\n      tag_199\n      jump\t// in\n    tag_198:\n      mload(0x40)\n      dup1\n      swap2\n      sub\n      swap1\n      revert\n    tag_197:\n        /* \"contracts/PreSale.sol\":9365:9376  rewardToken */\n      0x01\n      0x00\n      swap1\n      sload\n      swap1\n      0x0100\n      exp\n      swap1\n      div\n      0xffffffffffffffffffffffffffffffffffffffff\n      and\n        /* \"contracts/PreSale.sol\":9325:9377  lastClaimAddress[msg.sender] != address(rewardToken) */\n      0xffffffffffffffffffffffffffffffffffffffff\n      and\n        /* \"contracts/PreSale.sol\":9325:9341  lastClaimAddress */\n      0x0e\n        /* \"contracts/PreSale.sol\":9325:9353  lastClaimAddress[msg.sender] */\n      0x00\n        /* \"contracts/PreSale.sol\":9342:9352  msg.sender */\n      caller\n        /* \"contracts/PreSale.sol\":9325:9353  lastClaimAddress[msg.sender] */\n      0xffffffffffffffffffffffffffffffffffffffff\n      and\n      0xffffffffffffffffffffffffffffffffffffffff\n      and\n      dup2\n      mstore\n      0x20\n      add\n      swap1\n      dup2\n      mstore\n      0x20\n      add\n      0x00\n      keccak256\n      0x00\n      swap1\n      sload\n      swap1\n      0x0100\n      exp\n      swap1\n      div\n      0xffffffffffffffffffffffffffffffffffffffff\n      and\n        /* \"contracts/PreSale.sol\":9325:9377  lastClaimAddress[msg.sender] != address(rewardToken) */\n      0xffffffffffffffffffffffffffffffffffffffff\n      and\n      eq\n        /* \"contracts/PreSale.sol\":9322:9535  if(lastClaimAddress[msg.sender] != address(rewardToken)) {... */\n      tag_200\n      jumpi\n        /* \"contracts/PreSale.sol\":9432:9443  rewardToken */\n      0x01\n      0x00\n      swap1\n      sload\n      swap1\n      0x0100\n      exp\n      swap1\n      div\n      0xffffffffffffffffffffffffffffffffffffffff\n      and\n        /* \"contracts/PreSale.sol\":9393:9409  lastClaimAddress */\n      0x0e\n        /* \"contracts/PreSale.sol\":9393:9421  lastClaimAddress[msg.sender] */\n      0x00\n        /* \"contracts/PreSale.sol\":9410:9420  msg.sender */\n      caller\n        /* \"contracts/PreSale.sol\":9393:9421  lastClaimAddress[msg.sender] */\n      0xffffffffffffffffffffffffffffffffffffffff\n      and\n      0xffffffffffffffffffffffffffffffffffffffff\n      and\n      dup2\n      mstore\n      0x20\n      add\n      swap1\n      dup2\n      mstore\n      0x20\n      add\n      0x00\n      keccak256\n      0x00\n        /* \"contracts/PreSale.sol\":9393:9444  lastClaimAddress[msg.sender] = address(rewardToken) */\n      0x0100\n      exp\n      dup2\n      sload\n      dup2\n      0xffffffffffffffffffffffffffffffffffffffff\n      mul\n      not\n      and\n      swap1\n      dup4\n      0xffffffffffffffffffffffffffffffffffffffff\n      and\n      mul\n      or\n      swap1\n      sstore\n      pop\n        /* \"contracts/PreSale.sol\":9480:9481  0 */\n      0x00\n        /* \"contracts/PreSale.sol\":9458:9465  claimed */\n      0x0c\n        /* \"contracts/PreSale.sol\":9458:9477  claimed[msg.sender] */\n      0x00\n        /* \"contracts/PreSale.sol\":9466:9476  msg.sender */\n      caller\n        /* \"contracts/PreSale.sol\":9458:9477  claimed[msg.sender] */\n      0xffffffffffffffffffffffffffffffffffffffff\n      and\n      0xffffffffffffffffffffffffffffffffffffffff\n      and\n      dup2\n      mstore\n      0x20\n      add\n      swap1\n      dup2\n      mstore\n      0x20\n      add\n      0x00\n      keccak256\n        /* \"contracts/PreSale.sol\":9458:9481  claimed[msg.sender] = 0 */\n      dup2\n      swap1\n      sstore\n      pop\n        /* \"contracts/PreSale.sol\":9523:9524  0 */\n      0x00\n        /* \"contracts/PreSale.sol\":9495:9508  claimedTokens */\n      0x0d\n        /* \"contracts/PreSale.sol\":9495:9520  claimedTokens[msg.sender] */\n      0x00\n        /* \"contracts/PreSale.sol\":9509:9519  msg.sender */\n      caller\n        /* \"contracts/PreSale.sol\":9495:9520  claimedTokens[msg.sender] */\n      0xffffffffffffffffffffffffffffffffffffffff\n      and\n      0xffffffffffffffffffffffffffffffffffffffff\n      and\n      dup2\n      mstore\n      0x20\n      add\n      swap1\n      dup2\n      mstore\n      0x20\n      add\n      0x00\n      keccak256\n        /* \"contracts/PreSale.sol\":9495:9524  claimedTokens[msg.sender] = 0 */\n      dup2\n      swap1\n      sstore\n      pop\n        /* \"contracts/PreSale.sol\":9322:9535  if(lastClaimAddress[msg.sender] != address(rewardToken)) {... */\n    tag_200:\n        /* \"contracts/PreSale.sol\":9574:9591  currentPercentage */\n      dup1\n        /* \"contracts/PreSale.sol\":9552:9559  claimed */\n      0x0c\n        /* \"contracts/PreSale.sol\":9552:9571  claimed[msg.sender] */\n      0x00\n        /* \"contracts/PreSale.sol\":9560:9570  msg.sender */\n      caller\n        /* \"contracts/PreSale.sol\":9552:9571  claimed[msg.sender] */\n      0xffffffffffffffffffffffffffffffffffffffff\n      and\n      0xffffffffffffffffffffffffffffffffffffffff\n      and\n      dup2\n      mstore\n      0x20\n      add\n      swap1\n      dup2\n      mstore\n      0x20\n      add\n      0x00\n      keccak256\n      sload\n        /* \"contracts/PreSale.sol\":9552:9591  claimed[msg.sender] < currentPercentage */\n      lt\n        /* \"contracts/PreSale.sol\":9544:9656  require(claimed[msg.sender] < currentPercentage, \"ABOAT::claim: Already claimed your currently eligible tokens\") */\n      tag_201\n      jumpi\n      mload(0x40)\n      0x08c379a000000000000000000000000000000000000000000000000000000000\n      dup2\n      mstore\n      0x04\n      add\n      tag_202\n      swap1\n      tag_203\n      jump\t// in\n    tag_202:\n      mload(0x40)\n      dup1\n      swap2\n      sub\n      swap1\n      revert\n    tag_201:\n        /* \"contracts/PreSale.sol\":9680:9690  soldTokens */\n      sload(0x06)\n        /* \"contracts/PreSale.sol\":9669:9676  softcap */\n      sload(0x05)\n        /* \"contracts/PreSale.sol\":9669:9690  softcap <= soldTokens */\n      gt\n        /* \"contracts/PreSale.sol\":9666:10704  if(softcap <= soldTokens) {... */\n      tag_204\n      jumpi\n        /* \"contracts/PreSale.sol\":9706:9730  uint256 currentlyClaimed */\n      0x00\n        /* \"contracts/PreSale.sol\":9733:9740  claimed */\n      0x0c\n        /* \"contracts/PreSale.sol\":9733:9752  claimed[msg.sender] */\n      0x00\n        /* \"contracts/PreSale.sol\":9741:9751  msg.sender */\n      caller\n        /* \"contracts/PreSale.sol\":9733:9752  claimed[msg.sender] */\n      0xffffffffffffffffffffffffffffffffffffffff\n      and\n      0xffffffffffffffffffffffffffffffffffffffff\n      and\n      dup2\n      mstore\n      0x20\n      add\n      swap1\n      dup2\n      mstore\n      0x20\n      add\n      0x00\n      keccak256\n      sload\n        /* \"contracts/PreSale.sol\":9706:9752  uint256 currentlyClaimed = claimed[msg.sender] */\n      swap1\n      pop\n        /* \"contracts/PreSale.sol\":9788:9805  currentPercentage */\n      dup2\n        /* \"contracts/PreSale.sol\":9766:9773  claimed */\n      0x0c\n        /* \"contracts/PreSale.sol\":9766:9785  claimed[msg.sender] */\n      0x00\n        /* \"contracts/PreSale.sol\":9774:9784  msg.sender */\n      caller\n        /* \"contracts/PreSale.sol\":9766:9785  claimed[msg.sender] */\n      0xffffffffffffffffffffffffffffffffffffffff\n      and\n      0xffffffffffffffffffffffffffffffffffffffff\n      and\n      dup2\n      mstore\n      0x20\n      add\n      swap1\n      dup2\n      mstore\n      0x20\n      add\n      0x00\n      keccak256\n        /* \"contracts/PreSale.sol\":9766:9805  claimed[msg.sender] = currentPercentage */\n      dup2\n      swap1\n      sstore\n      pop\n        /* \"contracts/PreSale.sol\":9819:9833  uint256 amount */\n      0x00\n        /* \"contracts/PreSale.sol\":9836:9938  bought[msg.sender].mul(currentPercentage.sub(currentlyClaimed)).div(1000).mul(1e18).div(pricePerToken) */\n      tag_205\n        /* \"contracts/PreSale.sol\":9924:9937  pricePerToken */\n      sload(0x03)\n        /* \"contracts/PreSale.sol\":9836:9919  bought[msg.sender].mul(currentPercentage.sub(currentlyClaimed)).div(1000).mul(1e18) */\n      tag_206\n        /* \"contracts/PreSale.sol\":9914:9918  1e18 */\n      0x0de0b6b3a7640000\n        /* \"contracts/PreSale.sol\":9836:9909  bought[msg.sender].mul(currentPercentage.sub(currentlyClaimed)).div(1000) */\n      tag_207\n        /* \"contracts/PreSale.sol\":9904:9908  1000 */\n      0x03e8\n        /* \"contracts/PreSale.sol\":9836:9899  bought[msg.sender].mul(currentPercentage.sub(currentlyClaimed)) */\n      tag_208\n        /* \"contracts/PreSale.sol\":9859:9898  currentPercentage.sub(currentlyClaimed) */\n      tag_209\n        /* \"contracts/PreSale.sol\":9881:9897  currentlyClaimed */\n      dup10\n        /* \"contracts/PreSale.sol\":9859:9876  currentPercentage */\n      dup12\n        /* \"contracts/PreSale.sol\":9859:9880  currentPercentage.sub */\n      tag_176\n      swap1\n        /* \"contracts/PreSale.sol\":9859:9898  currentPercentage.sub(currentlyClaimed) */\n      swap2\n      swap1\n      0xffffffff\n      and\n      jump\t// in\n    tag_209:\n        /* \"contracts/PreSale.sol\":9836:9842  bought */\n      0x0b\n        /* \"contracts/PreSale.sol\":9836:9854  bought[msg.sender] */\n      0x00\n        /* \"contracts/PreSale.sol\":9843:9853  msg.sender */\n      caller\n        /* \"contracts/PreSale.sol\":9836:9854  bought[msg.sender] */\n      0xffffffffffffffffffffffffffffffffffffffff\n      and\n      0xffffffffffffffffffffffffffffffffffffffff\n      and\n      dup2\n      mstore\n      0x20\n      add\n      swap1\n      dup2\n      mstore\n      0x20\n      add\n      0x00\n      keccak256\n      sload\n        /* \"contracts/PreSale.sol\":9836:9858  bought[msg.sender].mul */\n      tag_191\n      swap1\n        /* \"contracts/PreSale.sol\":9836:9899  bought[msg.sender].mul(currentPercentage.sub(currentlyClaimed)) */\n      swap2\n      swap1\n      0xffffffff\n      and\n      jump\t// in\n    tag_208:\n        /* \"contracts/PreSale.sol\":9836:9903  bought[msg.sender].mul(currentPercentage.sub(currentlyClaimed)).div */\n      tag_210\n      swap1\n        /* \"contracts/PreSale.sol\":9836:9909  bought[msg.sender].mul(currentPercentage.sub(currentlyClaimed)).div(1000) */\n      swap2\n      swap1\n      0xffffffff\n      and\n      jump\t// in\n    tag_207:\n        /* \"contracts/PreSale.sol\":9836:9913  bought[msg.sender].mul(currentPercentage.sub(currentlyClaimed)).div(1000).mul */\n      tag_191\n      swap1\n        /* \"contracts/PreSale.sol\":9836:9919  bought[msg.sender].mul(currentPercentage.sub(currentlyClaimed)).div(1000).mul(1e18) */\n      swap2\n      swap1\n      0xffffffff\n      and\n      jump\t// in\n    tag_206:\n        /* \"contracts/PreSale.sol\":9836:9923  bought[msg.sender].mul(currentPercentage.sub(currentlyClaimed)).div(1000).mul(1e18).div */\n      tag_210\n      swap1\n        /* \"contracts/PreSale.sol\":9836:9938  bought[msg.sender].mul(currentPercentage.sub(currentlyClaimed)).div(1000).mul(1e18).div(pricePerToken) */\n      swap2\n      swap1\n      0xffffffff\n      and\n      jump\t// in\n    tag_205:\n        /* \"contracts/PreSale.sol\":9819:9938  uint256 amount = bought[msg.sender].mul(currentPercentage.sub(currentlyClaimed)).div(1000).mul(1e18).div(pricePerToken) */\n      swap1\n      pop\n        /* \"contracts/PreSale.sol\":9980:10017  claimedTokens[msg.sender].add(amount) */\n      tag_211\n        /* \"contracts/PreSale.sol\":10010:10016  amount */\n      dup2\n        /* \"contracts/PreSale.sol\":9980:9993  claimedTokens */\n      0x0d\n        /* \"contracts/PreSale.sol\":9980:10005  claimedTokens[msg.sender] */\n      0x00\n        /* \"contracts/PreSale.sol\":9994:10004  msg.sender */\n      caller\n        /* \"contracts/PreSale.sol\":9980:10005  claimedTokens[msg.sender] */\n      0xffffffffffffffffffffffffffffffffffffffff\n      and\n      0xffffffffffffffffffffffffffffffffffffffff\n      and\n      dup2\n      mstore\n      0x20\n      add\n      swap1\n      dup2\n      mstore\n      0x20\n      add\n      0x00\n      keccak256\n      sload\n        /* \"contracts/PreSale.sol\":9980:10009  claimedTokens[msg.sender].add */\n      tag_192\n      swap1\n        /* \"contracts/PreSale.sol\":9980:10017  claimedTokens[msg.sender].add(amount) */\n      swap2\n      swap1\n      0xffffffff\n      and\n      jump\t// in\n    tag_211:\n        /* \"contracts/PreSale.sol\":9952:9965  claimedTokens */\n      0x0d\n        /* \"contracts/PreSale.sol\":9952:9977  claimedTokens[msg.sender] */\n      0x00\n        /* \"contracts/PreSale.sol\":9966:9976  msg.sender */\n      caller\n        /* \"contracts/PreSale.sol\":9952:9977  claimedTokens[msg.sender] */\n      0xffffffffffffffffffffffffffffffffffffffff\n      and\n      0xffffffffffffffffffffffffffffffffffffffff\n      and\n      dup2\n      mstore\n      0x20\n      add\n      swap1\n      dup2\n      mstore\n      0x20\n      add\n      0x00\n      keccak256\n        /* \"contracts/PreSale.sol\":9952:10017  claimedTokens[msg.sender] = claimedTokens[msg.sender].add(amount) */\n      dup2\n      swap1\n      sstore\n      pop\n        /* \"contracts/PreSale.sol\":10066:10067  0 */\n      0x00\n        /* \"contracts/PreSale.sol\":10034:10068  address(rewardToken) != address(0) */\n      0xffffffffffffffffffffffffffffffffffffffff\n      and\n        /* \"contracts/PreSale.sol\":10042:10053  rewardToken */\n      0x01\n      0x00\n      swap1\n      sload\n      swap1\n      0x0100\n      exp\n      swap1\n      div\n      0xffffffffffffffffffffffffffffffffffffffff\n      and\n        /* \"contracts/PreSale.sol\":10034:10068  address(rewardToken) != address(0) */\n      0xffffffffffffffffffffffffffffffffffffffff\n      and\n      eq\n        /* \"contracts/PreSale.sol\":10031:10261  if(address(rewardToken) != address(0)) {... */\n      tag_212\n      jumpi\n        /* \"contracts/PreSale.sol\":10088:10157  TransferHelper.safeTransfer(address(rewardToken), msg.sender, amount) */\n      tag_213\n        /* \"contracts/PreSale.sol\":10124:10135  rewardToken */\n      0x01\n      0x00\n      swap1\n      sload\n      swap1\n      0x0100\n      exp\n      swap1\n      div\n      0xffffffffffffffffffffffffffffffffffffffff\n      and\n        /* \"contracts/PreSale.sol\":10138:10148  msg.sender */\n      caller\n        /* \"contracts/PreSale.sol\":10150:10156  amount */\n      dup4\n        /* \"contracts/PreSale.sol\":10088:10115  TransferHelper.safeTransfer */\n      tag_214\n        /* \"contracts/PreSale.sol\":10088:10157  TransferHelper.safeTransfer(address(rewardToken), msg.sender, amount) */\n      jump\t// in\n    tag_213:\n        /* \"contracts/PreSale.sol\":10031:10261  if(address(rewardToken) != address(0)) {... */\n      jump(tag_215)\n    tag_212:\n        /* \"contracts/PreSale.sol\":10196:10246  TransferHelper.safeTransferETH(msg.sender, amount) */\n      tag_216\n        /* \"contracts/PreSale.sol\":10227:10237  msg.sender */\n      caller\n        /* \"contracts/PreSale.sol\":10239:10245  amount */\n      dup3\n        /* \"contracts/PreSale.sol\":10196:10226  TransferHelper.safeTransferETH */\n      tag_217\n        /* \"contracts/PreSale.sol\":10196:10246  TransferHelper.safeTransferETH(msg.sender, amount) */\n      jump\t// in\n    tag_216:\n        /* \"contracts/PreSale.sol\":10031:10261  if(address(rewardToken) != address(0)) {... */\n    tag_215:\n        /* \"contracts/PreSale.sol\":10299:10305  amount */\n      dup1\n        /* \"contracts/PreSale.sol\":10287:10297  msg.sender */\n      caller\n        /* \"contracts/PreSale.sol\":10279:10306  Claimed(msg.sender, amount) */\n      0xffffffffffffffffffffffffffffffffffffffff\n      and\n      0xd8138f8a3f377c5259ca548e70e4c2de94f129f5a11036a15b69513cba2b426a\n      mload(0x40)\n      mload(0x40)\n      dup1\n      swap2\n      sub\n      swap1\n      log3\n        /* \"contracts/PreSale.sol\":9692:10317  {... */\n      pop\n      pop\n        /* \"contracts/PreSale.sol\":9666:10704  if(softcap <= soldTokens) {... */\n      jump(tag_218)\n    tag_204:\n        /* \"contracts/PreSale.sol\":10359:10363  1000 */\n      0x03e8\n        /* \"contracts/PreSale.sol\":10337:10344  claimed */\n      0x0c\n        /* \"contracts/PreSale.sol\":10337:10356  claimed[msg.sender] */\n      0x00\n        /* \"contracts/PreSale.sol\":10345:10355  msg.sender */\n      caller\n        /* \"contracts/PreSale.sol\":10337:10356  claimed[msg.sender] */\n      0xffffffffffffffffffffffffffffffffffffffff\n      and\n      0xffffffffffffffffffffffffffffffffffffffff\n      and\n      dup2\n      mstore\n      0x20\n      add\n      swap1\n      dup2\n      mstore\n      0x20\n      add\n      0x00\n      keccak256\n        /* \"contracts/PreSale.sol\":10337:10363  claimed[msg.sender] = 1000 */\n      dup2\n      swap1\n      sstore\n      pop\n        /* \"contracts/PreSale.sol\":10416:10417  0 */\n      0x00\n        /* \"contracts/PreSale.sol\":10383:10418  address(paymentToken) != address(0) */\n      0xffffffffffffffffffffffffffffffffffffffff\n      and\n        /* \"contracts/PreSale.sol\":10391:10403  paymentToken */\n      0x02\n      0x00\n      swap1\n      sload\n      swap1\n      0x0100\n      exp\n      swap1\n      div\n      0xffffffffffffffffffffffffffffffffffffffff\n      and\n        /* \"contracts/PreSale.sol\":10383:10418  address(paymentToken) != address(0) */\n      0xffffffffffffffffffffffffffffffffffffffff\n      and\n      eq\n        /* \"contracts/PreSale.sol\":10380:10636  if(address(paymentToken) != address(0)) {... */\n      tag_219\n      jumpi\n        /* \"contracts/PreSale.sol\":10438:10520  TransferHelper.safeTransfer(address(paymentToken), msg.sender, bought[msg.sender]) */\n      tag_220\n        /* \"contracts/PreSale.sol\":10474:10486  paymentToken */\n      0x02\n      0x00\n      swap1\n      sload\n      swap1\n      0x0100\n      exp\n      swap1\n      div\n      0xffffffffffffffffffffffffffffffffffffffff\n      and\n        /* \"contracts/PreSale.sol\":10489:10499  msg.sender */\n      caller\n        /* \"contracts/PreSale.sol\":10501:10507  bought */\n      0x0b\n        /* \"contracts/PreSale.sol\":10501:10519  bought[msg.sender] */\n      0x00\n        /* \"contracts/PreSale.sol\":10508:10518  msg.sender */\n      caller\n        /* \"contracts/PreSale.sol\":10501:10519  bought[msg.sender] */\n      0xffffffffffffffffffffffffffffffffffffffff\n      and\n      0xffffffffffffffffffffffffffffffffffffffff\n      and\n      dup2\n      mstore\n      0x20\n      add\n      swap1\n      dup2\n      mstore\n      0x20\n      add\n      0x00\n      keccak256\n      sload\n        /* \"contracts/PreSale.sol\":10438:10465  TransferHelper.safeTransfer */\n      tag_214\n        /* \"contracts/PreSale.sol\":10438:10520  TransferHelper.safeTransfer(address(paymentToken), msg.sender, bought[msg.sender]) */\n      jump\t// in\n    tag_220:\n        /* \"contracts/PreSale.sol\":10380:10636  if(address(paymentToken) != address(0)) {... */\n      jump(tag_221)\n    tag_219:\n        /* \"contracts/PreSale.sol\":10559:10621  TransferHelper.safeTransferETH(msg.sender, bought[msg.sender]) */\n      tag_222\n        /* \"contracts/PreSale.sol\":10590:10600  msg.sender */\n      caller\n        /* \"contracts/PreSale.sol\":10602:10608  bought */\n      0x0b\n        /* \"contracts/PreSale.sol\":10602:10620  bought[msg.sender] */\n      0x00\n        /* \"contracts/PreSale.sol\":10609:10619  msg.sender */\n      caller\n        /* \"contracts/PreSale.sol\":10602:10620  bought[msg.sender] */\n      0xffffffffffffffffffffffffffffffffffffffff\n      and\n      0xffffffffffffffffffffffffffffffffffffffff\n      and\n      dup2\n      mstore\n      0x20\n      add\n      swap1\n      dup2\n      mstore\n      0x20\n      add\n      0x00\n      keccak256\n      sload\n        /* \"contracts/PreSale.sol\":10559:10589  TransferHelper.safeTransferETH */\n      tag_217\n        /* \"contracts/PreSale.sol\":10559:10621  TransferHelper.safeTransferETH(msg.sender, bought[msg.sender]) */\n      jump\t// in\n    tag_222:\n        /* \"contracts/PreSale.sol\":10380:10636  if(address(paymentToken) != address(0)) {... */\n    tag_221:\n        /* \"contracts/PreSale.sol\":10674:10680  bought */\n      0x0b\n        /* \"contracts/PreSale.sol\":10674:10692  bought[msg.sender] */\n      0x00\n        /* \"contracts/PreSale.sol\":10681:10691  msg.sender */\n      caller\n        /* \"contracts/PreSale.sol\":10674:10692  bought[msg.sender] */\n      0xffffffffffffffffffffffffffffffffffffffff\n      and\n      0xffffffffffffffffffffffffffffffffffffffff\n      and\n      dup2\n      mstore\n      0x20\n      add\n      swap1\n      dup2\n      mstore\n      0x20\n      add\n      0x00\n      keccak256\n      sload\n        /* \"contracts/PreSale.sol\":10662:10672  msg.sender */\n      caller\n        /* \"contracts/PreSale.sol\":10654:10693  Claimed(msg.sender, bought[msg.sender]) */\n      0xffffffffffffffffffffffffffffffffffffffff\n      and\n      0xd8138f8a3f377c5259ca548e70e4c2de94f129f5a11036a15b69513cba2b426a\n      mload(0x40)\n      mload(0x40)\n      dup1\n      swap2\n      sub\n      swap1\n      log3\n        /* \"contracts/PreSale.sol\":9666:10704  if(softcap <= soldTokens) {... */\n    tag_218:\n        /* \"contracts/PreSale.sol\":8922:10710  {... */\n      pop\n        /* \"contracts/PreSale.sol\":8898:10710  function claim() public {... */\n      jump\t// out\n        /* \"contracts/PreSale.sol\":1194:1219  uint256 public soldTokens */\n    tag_66:\n      sload(0x06)\n      dup2\n      jump\t// out\n        /* \"contracts/PreSale.sol\":2063:2104  mapping(address => uint256) public bought */\n    tag_72:\n      mstore(0x20, 0x0b)\n      dup1\n      0x00\n      mstore\n      keccak256(0x00, 0x40)\n      0x00\n      swap2\n      pop\n      swap1\n      pop\n      sload\n      dup2\n      jump\t// out\n        /* \"@openzeppelin/contracts/access/Ownable.sol\":1605:1697  function renounceOwnership() public virtual onlyOwner {... */\n    tag_76:\n        /* \"@openzeppelin/contracts/access/Ownable.sol\":1196:1208  _msgSender() */\n      tag_224\n        /* \"@openzeppelin/contracts/access/Ownable.sol\":1196:1206  _msgSender */\n      tag_164\n        /* \"@openzeppelin/contracts/access/Ownable.sol\":1196:1208  _msgSender() */\n      jump\t// in\n    tag_224:\n        /* \"@openzeppelin/contracts/access/Ownable.sol\":1185:1208  owner() == _msgSender() */\n      0xffffffffffffffffffffffffffffffffffffffff\n      and\n        /* \"@openzeppelin/contracts/access/Ownable.sol\":1185:1192  owner() */\n      tag_225\n        /* \"@openzeppelin/contracts/access/Ownable.sol\":1185:1190  owner */\n      tag_88\n        /* \"@openzeppelin/contracts/access/Ownable.sol\":1185:1192  owner() */\n      jump\t// in\n    tag_225:\n        /* \"@openzeppelin/contracts/access/Ownable.sol\":1185:1208  owner() == _msgSender() */\n      0xffffffffffffffffffffffffffffffffffffffff\n      and\n      eq\n        /* \"@openzeppelin/contracts/access/Ownable.sol\":1177:1245  require(owner() == _msgSender(), \"Ownable: caller is not the owner\") */\n      tag_226\n      jumpi\n      mload(0x40)\n      0x08c379a000000000000000000000000000000000000000000000000000000000\n      dup2\n      mstore\n      0x04\n      add\n      tag_227\n      swap1\n      tag_168\n      jump\t// in\n    tag_227:\n      mload(0x40)\n      dup1\n      swap2\n      sub\n      swap1\n      revert\n    tag_226:\n        /* \"@openzeppelin/contracts/access/Ownable.sol\":1669:1690  _setOwner(address(0)) */\n      tag_229\n        /* \"@openzeppelin/contracts/access/Ownable.sol\":1687:1688  0 */\n      0x00\n        /* \"@openzeppelin/contracts/access/Ownable.sol\":1669:1678  _setOwner */\n      tag_230\n        /* \"@openzeppelin/contracts/access/Ownable.sol\":1669:1690  _setOwner(address(0)) */\n      jump\t// in\n    tag_229:\n        /* \"@openzeppelin/contracts/access/Ownable.sol\":1605:1697  function renounceOwnership() public virtual onlyOwner {... */\n      jump\t// out\n        /* \"contracts/PreSale.sol\":967:995  uint256 public pricePerToken */\n    tag_79:\n      sload(0x03)\n      dup2\n      jump\t// out\n        /* \"contracts/PreSale.sol\":1900:1935  bool public requireWhitelist = true */\n    tag_83:\n      0x09\n      0x00\n      swap1\n      sload\n      swap1\n      0x0100\n      exp\n      swap1\n      div\n      0xff\n      and\n      dup2\n      jump\t// out\n        /* \"@openzeppelin/contracts/access/Ownable.sol\":973:1058  function owner() public view virtual returns (address) {... */\n    tag_88:\n        /* \"@openzeppelin/contracts/access/Ownable.sol\":1019:1026  address */\n      0x00\n        /* \"@openzeppelin/contracts/access/Ownable.sol\":1045:1051  _owner */\n      dup1\n      0x00\n      swap1\n      sload\n      swap1\n      0x0100\n      exp\n      swap1\n      div\n      0xffffffffffffffffffffffffffffffffffffffff\n      and\n        /* \"@openzeppelin/contracts/access/Ownable.sol\":1038:1051  return _owner */\n      swap1\n      pop\n        /* \"@openzeppelin/contracts/access/Ownable.sol\":973:1058  function owner() public view virtual returns (address) {... */\n      swap1\n      jump\t// out\n        /* \"contracts/PreSale.sol\":1261:1289  uint256 public saleEnded = 0 */\n    tag_93:\n      sload(0x07)\n      dup2\n      jump\t// out\n        /* \"contracts/PreSale.sol\":6861:7374  function getCurrentPercentage() public view returns (uint256) {... */\n    tag_97:\n        /* \"contracts/PreSale.sol\":6914:6921  uint256 */\n      0x00\n        /* \"contracts/PreSale.sol\":6933:6951  uint256 cliffEnded */\n      dup1\n        /* \"contracts/PreSale.sol\":6954:6980  saleEnded.add(cliffPeriod) */\n      tag_233\n        /* \"contracts/PreSale.sol\":1812:1814  90 */\n      0x5a\n        /* \"contracts/PreSale.sol\":6954:6963  saleEnded */\n      sload(0x07)\n        /* \"contracts/PreSale.sol\":6954:6967  saleEnded.add */\n      tag_192\n      swap1\n        /* \"contracts/PreSale.sol\":6954:6980  saleEnded.add(cliffPeriod) */\n      swap2\n      swap1\n      0xffffffff\n      and\n      jump\t// in\n    tag_233:\n        /* \"contracts/PreSale.sol\":6933:6980  uint256 cliffEnded = saleEnded.add(cliffPeriod) */\n      swap1\n      pop\n        /* \"contracts/PreSale.sol\":6990:7009  uint256 deltaPeriod */\n      0x00\n        /* \"contracts/PreSale.sol\":7012:7046  cliffEnded.add(afterDays * 1 days) */\n      tag_234\n        /* \"contracts/PreSale.sol\":7039:7045  1 days */\n      0x015180\n        /* \"contracts/PreSale.sol\":7027:7036  afterDays */\n      sload(0x08)\n        /* \"contracts/PreSale.sol\":7027:7045  afterDays * 1 days */\n      tag_235\n      swap2\n      swap1\n      tag_236\n      jump\t// in\n    tag_235:\n        /* \"contracts/PreSale.sol\":7012:7022  cliffEnded */\n      dup4\n        /* \"contracts/PreSale.sol\":7012:7026  cliffEnded.add */\n      tag_192\n      swap1\n        /* \"contracts/PreSale.sol\":7012:7046  cliffEnded.add(afterDays * 1 days) */\n      swap2\n      swap1\n      0xffffffff\n      and\n      jump\t// in\n    tag_234:\n        /* \"contracts/PreSale.sol\":6990:7046  uint256 deltaPeriod = cliffEnded.add(afterDays * 1 days) */\n      swap1\n      pop\n        /* \"contracts/PreSale.sol\":7056:7074  uint256 percentage */\n      0x00\n        /* \"contracts/PreSale.sol\":7089:7090  0 */\n      dup1\n        /* \"contracts/PreSale.sol\":7077:7086  saleEnded */\n      sload(0x07)\n        /* \"contracts/PreSale.sol\":7077:7090  saleEnded > 0 */\n      gt\n        /* \"contracts/PreSale.sol\":7077:7123  saleEnded > 0 && block.timestamp > deltaPeriod */\n      dup1\n      iszero\n      tag_237\n      jumpi\n      pop\n        /* \"contracts/PreSale.sol\":7112:7123  deltaPeriod */\n      dup2\n        /* \"contracts/PreSale.sol\":7094:7109  block.timestamp */\n      timestamp\n        /* \"contracts/PreSale.sol\":7094:7123  block.timestamp > deltaPeriod */\n      gt\n        /* \"contracts/PreSale.sol\":7077:7123  saleEnded > 0 && block.timestamp > deltaPeriod */\n    tag_237:\n        /* \"contracts/PreSale.sol\":7077:7313  saleEnded > 0 && block.timestamp > deltaPeriod... */\n      tag_238\n      jumpi\n        /* \"contracts/PreSale.sol\":1564:1567  100 */\n      0x64\n        /* \"contracts/PreSale.sol\":7077:7313  saleEnded > 0 && block.timestamp > deltaPeriod... */\n      jump(tag_239)\n    tag_238:\n        /* \"contracts/PreSale.sol\":7134:7279  block.timestamp.sub(deltaPeriod)... */\n      tag_240\n        /* \"contracts/PreSale.sol\":1564:1567  100 */\n      0x64\n        /* \"contracts/PreSale.sol\":7134:7238  block.timestamp.sub(deltaPeriod)... */\n      tag_241\n        /* \"contracts/PreSale.sol\":1688:1690  50 */\n      0x32\n        /* \"contracts/PreSale.sol\":7134:7200  block.timestamp.sub(deltaPeriod)... */\n      tag_242\n        /* \"contracts/PreSale.sol\":7193:7199  1 days */\n      0x015180\n        /* \"contracts/PreSale.sol\":1467:1469  30 */\n      0x1e\n        /* \"contracts/PreSale.sol\":7184:7199  period * 1 days */\n      tag_243\n      swap2\n      swap1\n      tag_236\n      jump\t// in\n    tag_243:\n        /* \"contracts/PreSale.sol\":7134:7166  block.timestamp.sub(deltaPeriod) */\n      tag_244\n        /* \"contracts/PreSale.sol\":7154:7165  deltaPeriod */\n      dup9\n        /* \"contracts/PreSale.sol\":7134:7149  block.timestamp */\n      timestamp\n        /* \"contracts/PreSale.sol\":7134:7153  block.timestamp.sub */\n      tag_176\n      swap1\n        /* \"contracts/PreSale.sol\":7134:7166  block.timestamp.sub(deltaPeriod) */\n      swap2\n      swap1\n      0xffffffff\n      and\n      jump\t// in\n    tag_244:\n        /* \"contracts/PreSale.sol\":7134:7183  block.timestamp.sub(deltaPeriod)... */\n      tag_210\n      swap1\n        /* \"contracts/PreSale.sol\":7134:7200  block.timestamp.sub(deltaPeriod)... */\n      swap2\n      swap1\n      0xffffffff\n      and\n      jump\t// in\n    tag_242:\n        /* \"contracts/PreSale.sol\":7134:7217  block.timestamp.sub(deltaPeriod)... */\n      tag_191\n      swap1\n        /* \"contracts/PreSale.sol\":7134:7238  block.timestamp.sub(deltaPeriod)... */\n      swap2\n      swap1\n      0xffffffff\n      and\n      jump\t// in\n    tag_241:\n        /* \"contracts/PreSale.sol\":7134:7255  block.timestamp.sub(deltaPeriod)... */\n      tag_192\n      swap1\n        /* \"contracts/PreSale.sol\":7134:7279  block.timestamp.sub(deltaPeriod)... */\n      swap2\n      swap1\n      0xffffffff\n      and\n      jump\t// in\n    tag_240:\n        /* \"contracts/PreSale.sol\":7077:7313  saleEnded > 0 && block.timestamp > deltaPeriod... */\n    tag_239:\n        /* \"contracts/PreSale.sol\":7056:7313  uint256 percentage = saleEnded > 0 && block.timestamp > deltaPeriod... */\n      swap1\n      pop\n        /* \"contracts/PreSale.sol\":7343:7347  1000 */\n      0x03e8\n        /* \"contracts/PreSale.sol\":7330:7340  percentage */\n      dup2\n        /* \"contracts/PreSale.sol\":7330:7347  percentage > 1000 */\n      gt\n        /* \"contracts/PreSale.sol\":7330:7367  percentage > 1000 ? 1000 : percentage */\n      tag_245\n      jumpi\n        /* \"contracts/PreSale.sol\":7357:7367  percentage */\n      dup1\n        /* \"contracts/PreSale.sol\":7330:7367  percentage > 1000 ? 1000 : percentage */\n      jump(tag_246)\n    tag_245:\n        /* \"contracts/PreSale.sol\":7350:7354  1000 */\n      0x03e8\n        /* \"contracts/PreSale.sol\":7330:7367  percentage > 1000 ? 1000 : percentage */\n    tag_246:\n        /* \"contracts/PreSale.sol\":7323:7367  return percentage > 1000 ? 1000 : percentage */\n      swap4\n      pop\n      pop\n      pop\n      pop\n        /* \"contracts/PreSale.sol\":6861:7374  function getCurrentPercentage() public view returns (uint256) {... */\n      swap1\n      jump\t// out\n        /* \"contracts/PreSale.sol\":1034:1054  uint256 public limit */\n    tag_101:\n      sload(0x04)\n      dup2\n      jump\t// out\n        /* \"contracts/PreSale.sol\":1515:1567  uint256 constant public initialClaimPercentage = 100 */\n    tag_105:\n        /* \"contracts/PreSale.sol\":1564:1567  100 */\n      0x64\n        /* \"contracts/PreSale.sol\":1515:1567  uint256 constant public initialClaimPercentage = 100 */\n      dup2\n      jump\t// out\n        /* \"contracts/PreSale.sol\":2255:2303  mapping(address => uint256) public claimedTokens */\n    tag_110:\n      mstore(0x20, 0x0d)\n      dup1\n      0x00\n      mstore\n      keccak256(0x00, 0x40)\n      0x00\n      swap2\n      pop\n      swap1\n      pop\n      sload\n      dup2\n      jump\t// out\n        /* \"contracts/PreSale.sol\":2152:2194  mapping(address => uint256) public claimed */\n    tag_115:\n      mstore(0x20, 0x0c)\n      dup1\n      0x00\n      mstore\n      keccak256(0x00, 0x40)\n      0x00\n      swap2\n      pop\n      swap1\n      pop\n      sload\n      dup2\n      jump\t// out\n        /* \"contracts/PreSale.sol\":5090:5268  function disableWhitelist() public onlyOwner {... */\n    tag_119:\n        /* \"@openzeppelin/contracts/access/Ownable.sol\":1196:1208  _msgSender() */\n      tag_248\n        /* \"@openzeppelin/contracts/access/Ownable.sol\":1196:1206  _msgSender */\n      tag_164\n        /* \"@openzeppelin/contracts/access/Ownable.sol\":1196:1208  _msgSender() */\n      jump\t// in\n    tag_248:\n        /* \"@openzeppelin/contracts/access/Ownable.sol\":1185:1208  owner() == _msgSender() */\n      0xffffffffffffffffffffffffffffffffffffffff\n      and\n        /* \"@openzeppelin/contracts/access/Ownable.sol\":1185:1192  owner() */\n      tag_249\n        /* \"@openzeppelin/contracts/access/Ownable.sol\":1185:1190  owner */\n      tag_88\n        /* \"@openzeppelin/contracts/access/Ownable.sol\":1185:1192  owner() */\n      jump\t// in\n    tag_249:\n        /* \"@openzeppelin/contracts/access/Ownable.sol\":1185:1208  owner() == _msgSender() */\n      0xffffffffffffffffffffffffffffffffffffffff\n      and\n      eq\n        /* \"@openzeppelin/contracts/access/Ownable.sol\":1177:1245  require(owner() == _msgSender(), \"Ownable: caller is not the owner\") */\n      tag_250\n      jumpi\n      mload(0x40)\n      0x08c379a000000000000000000000000000000000000000000000000000000000\n      dup2\n      mstore\n      0x04\n      add\n      tag_251\n      swap1\n      tag_168\n      jump\t// in\n    tag_251:\n      mload(0x40)\n      dup1\n      swap2\n      sub\n      swap1\n      revert\n    tag_250:\n        /* \"contracts/PreSale.sol\":5153:5169  requireWhitelist */\n      0x09\n      0x00\n      swap1\n      sload\n      swap1\n      0x0100\n      exp\n      swap1\n      div\n      0xff\n      and\n        /* \"contracts/PreSale.sol\":5145:5227  require(requireWhitelist, \"ABOAT:disableWhitelist: Whitelist is already disabled\") */\n      tag_253\n      jumpi\n      mload(0x40)\n      0x08c379a000000000000000000000000000000000000000000000000000000000\n      dup2\n      mstore\n      0x04\n      add\n      tag_254\n      swap1\n      tag_255\n      jump\t// in\n    tag_254:\n      mload(0x40)\n      dup1\n      swap2\n      sub\n      swap1\n      revert\n    tag_253:\n        /* \"contracts/PreSale.sol\":5256:5261  false */\n      0x00\n        /* \"contracts/PreSale.sol\":5237:5253  requireWhitelist */\n      0x09\n      0x00\n        /* \"contracts/PreSale.sol\":5237:5261  requireWhitelist = false */\n      0x0100\n      exp\n      dup2\n      sload\n      dup2\n      0xff\n      mul\n      not\n      and\n      swap1\n      dup4\n      iszero\n      iszero\n      mul\n      or\n      swap1\n      sstore\n      pop\n        /* \"contracts/PreSale.sol\":5090:5268  function disableWhitelist() public onlyOwner {... */\n      jump\t// out\n        /* \"contracts/PreSale.sol\":2014:2057  mapping(address => bool) public whitelisted */\n    tag_123:\n      mstore(0x20, 0x0a)\n      dup1\n      0x00\n      mstore\n      keccak256(0x00, 0x40)\n      0x00\n      swap2\n      pop\n      sload\n      swap1\n      0x0100\n      exp\n      swap1\n      div\n      0xff\n      and\n      dup2\n      jump\t// out\n        /* \"contracts/PreSale.sol\":7710:8761  function buy(uint256 amount) public payable {... */\n    tag_127:\n        /* \"contracts/PreSale.sol\":7785:7786  0 */\n      0x00\n        /* \"contracts/PreSale.sol\":7772:7781  saleEnded */\n      sload(0x07)\n        /* \"contracts/PreSale.sol\":7772:7786  saleEnded == 0 */\n      eq\n        /* \"contracts/PreSale.sol\":7764:7822  require(saleEnded == 0, \"ABOAT::buy: Sale already ended!\") */\n      tag_257\n      jumpi\n      mload(0x40)\n      0x08c379a000000000000000000000000000000000000000000000000000000000\n      dup2\n      mstore\n      0x04\n      add\n      tag_258\n      swap1\n      tag_259\n      jump\t// in\n    tag_258:\n      mload(0x40)\n      dup1\n      swap2\n      sub\n      swap1\n      revert\n    tag_257:\n        /* \"contracts/PreSale.sol\":7840:7851  whitelisted */\n      0x0a\n        /* \"contracts/PreSale.sol\":7840:7863  whitelisted[msg.sender] */\n      0x00\n        /* \"contracts/PreSale.sol\":7852:7862  msg.sender */\n      caller\n        /* \"contracts/PreSale.sol\":7840:7863  whitelisted[msg.sender] */\n      0xffffffffffffffffffffffffffffffffffffffff\n      and\n      0xffffffffffffffffffffffffffffffffffffffff\n      and\n      dup2\n      mstore\n      0x20\n      add\n      swap1\n      dup2\n      mstore\n      0x20\n      add\n      0x00\n      keccak256\n      0x00\n      swap1\n      sload\n      swap1\n      0x0100\n      exp\n      swap1\n      div\n      0xff\n      and\n        /* \"contracts/PreSale.sol\":7840:7884  whitelisted[msg.sender] || !requireWhitelist */\n      dup1\n      tag_260\n      jumpi\n      pop\n        /* \"contracts/PreSale.sol\":7868:7884  requireWhitelist */\n      0x09\n      0x00\n      swap1\n      sload\n      swap1\n      0x0100\n      exp\n      swap1\n      div\n      0xff\n      and\n        /* \"contracts/PreSale.sol\":7867:7884  !requireWhitelist */\n      iszero\n        /* \"contracts/PreSale.sol\":7840:7884  whitelisted[msg.sender] || !requireWhitelist */\n    tag_260:\n        /* \"contracts/PreSale.sol\":7832:7938  require(whitelisted[msg.sender] || !requireWhitelist, \"ABOAT::buy: You're not whitelisted for this sale!\") */\n      tag_261\n      jumpi\n      mload(0x40)\n      0x08c379a000000000000000000000000000000000000000000000000000000000\n      dup2\n      mstore\n      0x04\n      add\n      tag_262\n      swap1\n      tag_263\n      jump\t// in\n    tag_262:\n      mload(0x40)\n      dup1\n      swap2\n      sub\n      swap1\n      revert\n    tag_261:\n        /* \"contracts/PreSale.sol\":7948:7963  bool isEthToken */\n      0x00\n        /* \"contracts/PreSale.sol\":7999:8000  0 */\n      dup1\n        /* \"contracts/PreSale.sol\":7966:8001  address(paymentToken) == address(0) */\n      0xffffffffffffffffffffffffffffffffffffffff\n      and\n        /* \"contracts/PreSale.sol\":7974:7986  paymentToken */\n      0x02\n      0x00\n      swap1\n      sload\n      swap1\n      0x0100\n      exp\n      swap1\n      div\n      0xffffffffffffffffffffffffffffffffffffffff\n      and\n        /* \"contracts/PreSale.sol\":7966:8001  address(paymentToken) == address(0) */\n      0xffffffffffffffffffffffffffffffffffffffff\n      and\n      eq\n        /* \"contracts/PreSale.sol\":7948:8001  bool isEthToken = address(paymentToken) == address(0) */\n      swap1\n      pop\n        /* \"contracts/PreSale.sol\":8020:8030  isEthToken */\n      dup1\n        /* \"contracts/PreSale.sol\":8019:8030  !isEthToken */\n      iszero\n        /* \"contracts/PreSale.sol\":8019:8053  !isEthToken || msg.value == amount */\n      dup1\n      tag_264\n      jumpi\n      pop\n        /* \"contracts/PreSale.sol\":8047:8053  amount */\n      dup2\n        /* \"contracts/PreSale.sol\":8034:8043  msg.value */\n      callvalue\n        /* \"contracts/PreSale.sol\":8034:8053  msg.value == amount */\n      eq\n        /* \"contracts/PreSale.sol\":8019:8053  !isEthToken || msg.value == amount */\n    tag_264:\n        /* \"contracts/PreSale.sol\":8011:8110  require(!isEthToken || msg.value == amount, \"ABOAT::buy: Sent value doesn't meet the given amount\") */\n      tag_265\n      jumpi\n      mload(0x40)\n      0x08c379a000000000000000000000000000000000000000000000000000000000\n      dup2\n      mstore\n      0x04\n      add\n      tag_266\n      swap1\n      tag_267\n      jump\t// in\n    tag_266:\n      mload(0x40)\n      dup1\n      swap2\n      sub\n      swap1\n      revert\n    tag_265:\n        /* \"contracts/PreSale.sol\":8162:8167  limit */\n      sload(0x04)\n        /* \"contracts/PreSale.sol\":8128:8158  bought[msg.sender].add(amount) */\n      tag_268\n        /* \"contracts/PreSale.sol\":8151:8157  amount */\n      dup4\n        /* \"contracts/PreSale.sol\":8128:8134  bought */\n      0x0b\n        /* \"contracts/PreSale.sol\":8128:8146  bought[msg.sender] */\n      0x00\n        /* \"contracts/PreSale.sol\":8135:8145  msg.sender */\n      caller\n        /* \"contracts/PreSale.sol\":8128:8146  bought[msg.sender] */\n      0xffffffffffffffffffffffffffffffffffffffff\n      and\n      0xffffffffffffffffffffffffffffffffffffffff\n      and\n      dup2\n      mstore\n      0x20\n      add\n      swap1\n      dup2\n      mstore\n      0x20\n      add\n      0x00\n      keccak256\n      sload\n        /* \"contracts/PreSale.sol\":8128:8150  bought[msg.sender].add */\n      tag_192\n      swap1\n        /* \"contracts/PreSale.sol\":8128:8158  bought[msg.sender].add(amount) */\n      swap2\n      swap1\n      0xffffffff\n      and\n      jump\t// in\n    tag_268:\n        /* \"contracts/PreSale.sol\":8128:8167  bought[msg.sender].add(amount) <= limit */\n      gt\n      iszero\n        /* \"contracts/PreSale.sol\":8120:8229  require(bought[msg.sender].add(amount) <= limit, \"ABOAT::buy: Amount would exceed the maximum allowed limit\") */\n      tag_269\n      jumpi\n      mload(0x40)\n      0x08c379a000000000000000000000000000000000000000000000000000000000\n      dup2\n      mstore\n      0x04\n      add\n      tag_270\n      swap1\n      tag_271\n      jump\t// in\n    tag_270:\n      mload(0x40)\n      dup1\n      swap2\n      sub\n      swap1\n      revert\n    tag_269:\n        /* \"contracts/PreSale.sol\":8239:8259  uint256 amountBought */\n      0x00\n        /* \"contracts/PreSale.sol\":8262:8297  amount.mul(1e18).div(pricePerToken) */\n      tag_272\n        /* \"contracts/PreSale.sol\":8283:8296  pricePerToken */\n      sload(0x03)\n        /* \"contracts/PreSale.sol\":8262:8278  amount.mul(1e18) */\n      tag_273\n        /* \"contracts/PreSale.sol\":8273:8277  1e18 */\n      0x0de0b6b3a7640000\n        /* \"contracts/PreSale.sol\":8262:8268  amount */\n      dup7\n        /* \"contracts/PreSale.sol\":8262:8272  amount.mul */\n      tag_191\n      swap1\n        /* \"contracts/PreSale.sol\":8262:8278  amount.mul(1e18) */\n      swap2\n      swap1\n      0xffffffff\n      and\n      jump\t// in\n    tag_273:\n        /* \"contracts/PreSale.sol\":8262:8282  amount.mul(1e18).div */\n      tag_210\n      swap1\n        /* \"contracts/PreSale.sol\":8262:8297  amount.mul(1e18).div(pricePerToken) */\n      swap2\n      swap1\n      0xffffffff\n      and\n      jump\t// in\n    tag_272:\n        /* \"contracts/PreSale.sol\":8239:8297  uint256 amountBought = amount.mul(1e18).div(pricePerToken) */\n      swap1\n      pop\n        /* \"contracts/PreSale.sol\":8357:8358  0 */\n      0x00\n        /* \"contracts/PreSale.sol\":8315:8354  getRemainingBalance().sub(amountBought) */\n      tag_274\n        /* \"contracts/PreSale.sol\":8341:8353  amountBought */\n      dup3\n        /* \"contracts/PreSale.sol\":8315:8336  getRemainingBalance() */\n      tag_275\n        /* \"contracts/PreSale.sol\":8315:8334  getRemainingBalance */\n      tag_54\n        /* \"contracts/PreSale.sol\":8315:8336  getRemainingBalance() */\n      jump\t// in\n    tag_275:\n        /* \"contracts/PreSale.sol\":8315:8340  getRemainingBalance().sub */\n      tag_176\n      swap1\n        /* \"contracts/PreSale.sol\":8315:8354  getRemainingBalance().sub(amountBought) */\n      swap2\n      swap1\n      0xffffffff\n      and\n      jump\t// in\n    tag_274:\n        /* \"contracts/PreSale.sol\":8315:8358  getRemainingBalance().sub(amountBought) > 0 */\n      gt\n        /* \"contracts/PreSale.sol\":8307:8416  require(getRemainingBalance().sub(amountBought) > 0, \"ABOAT::buy: Amount would exceed the remaining balance\") */\n      tag_276\n      jumpi\n      mload(0x40)\n      0x08c379a000000000000000000000000000000000000000000000000000000000\n      dup2\n      mstore\n      0x04\n      add\n      tag_277\n      swap1\n      tag_278\n      jump\t// in\n    tag_277:\n      mload(0x40)\n      dup1\n      swap2\n      sub\n      swap1\n      revert\n    tag_276:\n        /* \"contracts/PreSale.sol\":8430:8440  isEthToken */\n      dup2\n        /* \"contracts/PreSale.sol\":8426:8540  if(!isEthToken) {... */\n      tag_279\n      jumpi\n        /* \"contracts/PreSale.sol\":8456:8529  paymentToken.safeTransferFrom(address(msg.sender), address(this), amount) */\n      tag_280\n        /* \"contracts/PreSale.sol\":8494:8504  msg.sender */\n      caller\n        /* \"contracts/PreSale.sol\":8515:8519  this */\n      address\n        /* \"contracts/PreSale.sol\":8522:8528  amount */\n      dup6\n        /* \"contracts/PreSale.sol\":8456:8468  paymentToken */\n      0x02\n      0x00\n      swap1\n      sload\n      swap1\n      0x0100\n      exp\n      swap1\n      div\n      0xffffffffffffffffffffffffffffffffffffffff\n      and\n        /* \"contracts/PreSale.sol\":8456:8485  paymentToken.safeTransferFrom */\n      0xffffffffffffffffffffffffffffffffffffffff\n      and\n      tag_281\n      swap1\n        /* \"contracts/PreSale.sol\":8456:8529  paymentToken.safeTransferFrom(address(msg.sender), address(this), amount) */\n      swap4\n      swap3\n      swap2\n      swap1\n      0xffffffff\n      and\n      jump\t// in\n    tag_280:\n        /* \"contracts/PreSale.sol\":8426:8540  if(!isEthToken) {... */\n    tag_279:\n        /* \"contracts/PreSale.sol\":8570:8600  bought[msg.sender].add(amount) */\n      tag_282\n        /* \"contracts/PreSale.sol\":8593:8599  amount */\n      dup4\n        /* \"contracts/PreSale.sol\":8570:8576  bought */\n      0x0b\n        /* \"contracts/PreSale.sol\":8570:8588  bought[msg.sender] */\n      0x00\n        /* \"contracts/PreSale.sol\":8577:8587  msg.sender */\n      caller\n        /* \"contracts/PreSale.sol\":8570:8588  bought[msg.sender] */\n      0xffffffffffffffffffffffffffffffffffffffff\n      and\n      0xffffffffffffffffffffffffffffffffffffffff\n      and\n      dup2\n      mstore\n      0x20\n      add\n      swap1\n      dup2\n      mstore\n      0x20\n      add\n      0x00\n      keccak256\n      sload\n        /* \"contracts/PreSale.sol\":8570:8592  bought[msg.sender].add */\n      tag_192\n      swap1\n        /* \"contracts/PreSale.sol\":8570:8600  bought[msg.sender].add(amount) */\n      swap2\n      swap1\n      0xffffffff\n      and\n      jump\t// in\n    tag_282:\n        /* \"contracts/PreSale.sol\":8549:8555  bought */\n      0x0b\n        /* \"contracts/PreSale.sol\":8549:8567  bought[msg.sender] */\n      0x00\n        /* \"contracts/PreSale.sol\":8556:8566  msg.sender */\n      caller\n        /* \"contracts/PreSale.sol\":8549:8567  bought[msg.sender] */\n      0xffffffffffffffffffffffffffffffffffffffff\n      and\n      0xffffffffffffffffffffffffffffffffffffffff\n      and\n      dup2\n      mstore\n      0x20\n      add\n      swap1\n      dup2\n      mstore\n      0x20\n      add\n      0x00\n      keccak256\n        /* \"contracts/PreSale.sol\":8549:8600  bought[msg.sender] = bought[msg.sender].add(amount) */\n      dup2\n      swap1\n      sstore\n      pop\n        /* \"contracts/PreSale.sol\":8623:8651  soldTokens.add(amountBought) */\n      tag_283\n        /* \"contracts/PreSale.sol\":8638:8650  amountBought */\n      dup2\n        /* \"contracts/PreSale.sol\":8623:8633  soldTokens */\n      sload(0x06)\n        /* \"contracts/PreSale.sol\":8623:8637  soldTokens.add */\n      tag_192\n      swap1\n        /* \"contracts/PreSale.sol\":8623:8651  soldTokens.add(amountBought) */\n      swap2\n      swap1\n      0xffffffff\n      and\n      jump\t// in\n    tag_283:\n        /* \"contracts/PreSale.sol\":8610:8620  soldTokens */\n      0x06\n        /* \"contracts/PreSale.sol\":8610:8651  soldTokens = soldTokens.add(amountBought) */\n      dup2\n      swap1\n      sstore\n      pop\n        /* \"contracts/PreSale.sol\":8700:8712  paymentToken */\n      0x02\n      0x00\n      swap1\n      sload\n      swap1\n      0x0100\n      exp\n      swap1\n      div\n      0xffffffffffffffffffffffffffffffffffffffff\n      and\n        /* \"contracts/PreSale.sol\":8661:8677  lastClaimAddress */\n      0x0e\n        /* \"contracts/PreSale.sol\":8661:8689  lastClaimAddress[msg.sender] */\n      0x00\n        /* \"contracts/PreSale.sol\":8678:8688  msg.sender */\n      caller\n        /* \"contracts/PreSale.sol\":8661:8689  lastClaimAddress[msg.sender] */\n      0xffffffffffffffffffffffffffffffffffffffff\n      and\n      0xffffffffffffffffffffffffffffffffffffffff\n      and\n      dup2\n      mstore\n      0x20\n      add\n      swap1\n      dup2\n      mstore\n      0x20\n      add\n      0x00\n      keccak256\n      0x00\n        /* \"contracts/PreSale.sol\":8661:8713  lastClaimAddress[msg.sender] = address(paymentToken) */\n      0x0100\n      exp\n      dup2\n      sload\n      dup2\n      0xffffffffffffffffffffffffffffffffffffffff\n      mul\n      not\n      and\n      swap1\n      dup4\n      0xffffffffffffffffffffffffffffffffffffffff\n      and\n      mul\n      or\n      swap1\n      sstore\n      pop\n        /* \"contracts/PreSale.sol\":8747:8753  amount */\n      dup3\n        /* \"contracts/PreSale.sol\":8735:8745  msg.sender */\n      caller\n        /* \"contracts/PreSale.sol\":8728:8754  Bought(msg.sender, amount) */\n      0xffffffffffffffffffffffffffffffffffffffff\n      and\n      0xc55650ccda1011e1cdc769b1fbf546ebb8c97800b6072b49e06cd560305b1d67\n      mload(0x40)\n      mload(0x40)\n      dup1\n      swap2\n      sub\n      swap1\n      log3\n        /* \"contracts/PreSale.sol\":7754:8761  {... */\n      pop\n      pop\n        /* \"contracts/PreSale.sol\":7710:8761  function buy(uint256 amount) public payable {... */\n      pop\n      jump\t// out\n        /* \"contracts/PreSale.sol\":1343:1367  uint256 public afterDays */\n    tag_130:\n      sload(0x08)\n      dup2\n      jump\t// out\n        /* \"contracts/PreSale.sol\":1434:1469  uint256 constant public period = 30 */\n    tag_134:\n        /* \"contracts/PreSale.sol\":1467:1469  30 */\n      0x1e\n        /* \"contracts/PreSale.sol\":1434:1469  uint256 constant public period = 30 */\n      dup2\n      jump\t// out\n        /* \"contracts/PreSale.sol\":3916:5080  function claimAndEndSale(uint256 _afterDays) public onlyOwner {... */\n    tag_139:\n        /* \"@openzeppelin/contracts/access/Ownable.sol\":1196:1208  _msgSender() */\n      tag_285\n        /* \"@openzeppelin/contracts/access/Ownable.sol\":1196:1206  _msgSender */\n      tag_164\n        /* \"@openzeppelin/contracts/access/Ownable.sol\":1196:1208  _msgSender() */\n      jump\t// in\n    tag_285:\n        /* \"@openzeppelin/contracts/access/Ownable.sol\":1185:1208  owner() == _msgSender() */\n      0xffffffffffffffffffffffffffffffffffffffff\n      and\n        /* \"@openzeppelin/contracts/access/Ownable.sol\":1185:1192  owner() */\n      tag_286\n        /* \"@openzeppelin/contracts/access/Ownable.sol\":1185:1190  owner */\n      tag_88\n        /* \"@openzeppelin/contracts/access/Ownable.sol\":1185:1192  owner() */\n      jump\t// in\n    tag_286:\n        /* \"@openzeppelin/contracts/access/Ownable.sol\":1185:1208  owner() == _msgSender() */\n      0xffffffffffffffffffffffffffffffffffffffff\n      and\n      eq\n        /* \"@openzeppelin/contracts/access/Ownable.sol\":1177:1245  require(owner() == _msgSender(), \"Ownable: caller is not the owner\") */\n      tag_287\n      jumpi\n      mload(0x40)\n      0x08c379a000000000000000000000000000000000000000000000000000000000\n      dup2\n      mstore\n      0x04\n      add\n      tag_288\n      swap1\n      tag_168\n      jump\t// in\n    tag_288:\n      mload(0x40)\n      dup1\n      swap2\n      sub\n      swap1\n      revert\n    tag_287:\n        /* \"contracts/PreSale.sol\":4009:4010  0 */\n      0x00\n        /* \"contracts/PreSale.sol\":3996:4005  saleEnded */\n      sload(0x07)\n        /* \"contracts/PreSale.sol\":3996:4010  saleEnded == 0 */\n      eq\n        /* \"contracts/PreSale.sol\":3988:4057  require(saleEnded == 0, \"ABOAT::claimAndEndSale: Sale already ended\") */\n      tag_290\n      jumpi\n      mload(0x40)\n      0x08c379a000000000000000000000000000000000000000000000000000000000\n      dup2\n      mstore\n      0x04\n      add\n      tag_291\n      swap1\n      tag_292\n      jump\t// in\n    tag_291:\n      mload(0x40)\n      dup1\n      swap2\n      sub\n      swap1\n      revert\n    tag_290:\n        /* \"contracts/PreSale.sol\":4079:4094  block.timestamp */\n      timestamp\n        /* \"contracts/PreSale.sol\":4067:4076  saleEnded */\n      0x07\n        /* \"contracts/PreSale.sol\":4067:4094  saleEnded = block.timestamp */\n      dup2\n      swap1\n      sstore\n      pop\n        /* \"contracts/PreSale.sol\":4118:4128  soldTokens */\n      sload(0x06)\n        /* \"contracts/PreSale.sol\":4107:4114  softcap */\n      sload(0x05)\n        /* \"contracts/PreSale.sol\":4107:4128  softcap <= soldTokens */\n      gt\n        /* \"contracts/PreSale.sol\":4104:5012  if(softcap <= soldTokens) {... */\n      tag_293\n      jumpi\n        /* \"contracts/PreSale.sol\":4290:4300  _afterDays */\n      dup1\n        /* \"contracts/PreSale.sol\":4278:4287  afterDays */\n      0x08\n        /* \"contracts/PreSale.sol\":4278:4300  afterDays = _afterDays */\n      dup2\n      swap1\n      sstore\n      pop\n        /* \"contracts/PreSale.sol\":4350:4351  0 */\n      0x00\n        /* \"contracts/PreSale.sol\":4317:4352  address(paymentToken) != address(0) */\n      0xffffffffffffffffffffffffffffffffffffffff\n      and\n        /* \"contracts/PreSale.sol\":4325:4337  paymentToken */\n      0x02\n      0x00\n      swap1\n      sload\n      swap1\n      0x0100\n      exp\n      swap1\n      div\n      0xffffffffffffffffffffffffffffffffffffffff\n      and\n        /* \"contracts/PreSale.sol\":4317:4352  address(paymentToken) != address(0) */\n      0xffffffffffffffffffffffffffffffffffffffff\n      and\n      eq\n        /* \"contracts/PreSale.sol\":4314:4592  if(address(paymentToken) != address(0)) {... */\n      tag_294\n      jumpi\n        /* \"contracts/PreSale.sol\":4372:4473  TransferHelper.safeTransfer(address(paymentToken), msg.sender, paymentToken.balanceOf(address(this))) */\n      tag_295\n        /* \"contracts/PreSale.sol\":4408:4420  paymentToken */\n      0x02\n      0x00\n      swap1\n      sload\n      swap1\n      0x0100\n      exp\n      swap1\n      div\n      0xffffffffffffffffffffffffffffffffffffffff\n      and\n        /* \"contracts/PreSale.sol\":4423:4433  msg.sender */\n      caller\n        /* \"contracts/PreSale.sol\":4435:4447  paymentToken */\n      0x02\n      0x00\n      swap1\n      sload\n      swap1\n      0x0100\n      exp\n      swap1\n      div\n      0xffffffffffffffffffffffffffffffffffffffff\n      and\n        /* \"contracts/PreSale.sol\":4435:4457  paymentToken.balanceOf */\n      0xffffffffffffffffffffffffffffffffffffffff\n      and\n      0x70a08231\n        /* \"contracts/PreSale.sol\":4466:4470  this */\n      address\n        /* \"contracts/PreSale.sol\":4435:4472  paymentToken.balanceOf(address(this)) */\n      mload(0x40)\n      dup3\n      0xffffffff\n      and\n      0xe0\n      shl\n      dup2\n      mstore\n      0x04\n      add\n      tag_296\n      swap2\n      swap1\n      tag_90\n      jump\t// in\n    tag_296:\n      0x20\n      mload(0x40)\n      dup1\n      dup4\n      sub\n      dup2\n      dup7\n      dup1\n      extcodesize\n      iszero\n      dup1\n      iszero\n      tag_297\n      jumpi\n      0x00\n      dup1\n      revert\n    tag_297:\n      pop\n      gas\n      staticcall\n      iszero\n      dup1\n      iszero\n      tag_299\n      jumpi\n      returndatasize\n      0x00\n      dup1\n      returndatacopy\n      revert(0x00, returndatasize)\n    tag_299:\n      pop\n      pop\n      pop\n      pop\n      mload(0x40)\n      returndatasize\n      not(0x1f)\n      0x1f\n      dup3\n      add\n      and\n      dup3\n      add\n      dup1\n      0x40\n      mstore\n      pop\n      dup2\n      add\n      swap1\n      tag_300\n      swap2\n      swap1\n      tag_184\n      jump\t// in\n    tag_300:\n        /* \"contracts/PreSale.sol\":4372:4399  TransferHelper.safeTransfer */\n      tag_214\n        /* \"contracts/PreSale.sol\":4372:4473  TransferHelper.safeTransfer(address(paymentToken), msg.sender, paymentToken.balanceOf(address(this))) */\n      jump\t// in\n    tag_295:\n        /* \"contracts/PreSale.sol\":4314:4592  if(address(paymentToken) != address(0)) {... */\n      jump(tag_301)\n    tag_294:\n        /* \"contracts/PreSale.sol\":4512:4577  TransferHelper.safeTransferETH(msg.sender, address(this).balance) */\n      tag_302\n        /* \"contracts/PreSale.sol\":4543:4553  msg.sender */\n      caller\n        /* \"contracts/PreSale.sol\":4555:4576  address(this).balance */\n      selfbalance\n        /* \"contracts/PreSale.sol\":4512:4542  TransferHelper.safeTransferETH */\n      tag_217\n        /* \"contracts/PreSale.sol\":4512:4577  TransferHelper.safeTransferETH(msg.sender, address(this).balance) */\n      jump\t// in\n    tag_302:\n        /* \"contracts/PreSale.sol\":4314:4592  if(address(paymentToken) != address(0)) {... */\n    tag_301:\n        /* \"contracts/PreSale.sol\":4104:5012  if(softcap <= soldTokens) {... */\n      jump(tag_303)\n    tag_293:\n        /* \"contracts/PreSale.sol\":4710:4711  0 */\n      0x00\n        /* \"contracts/PreSale.sol\":4698:4707  afterDays */\n      0x08\n        /* \"contracts/PreSale.sol\":4698:4711  afterDays = 0 */\n      dup2\n      swap1\n      sstore\n      pop\n        /* \"contracts/PreSale.sol\":4761:4762  0 */\n      0x00\n        /* \"contracts/PreSale.sol\":4729:4763  address(rewardToken) != address(0) */\n      0xffffffffffffffffffffffffffffffffffffffff\n      and\n        /* \"contracts/PreSale.sol\":4737:4748  rewardToken */\n      0x01\n      0x00\n      swap1\n      sload\n      swap1\n      0x0100\n      exp\n      swap1\n      div\n      0xffffffffffffffffffffffffffffffffffffffff\n      and\n        /* \"contracts/PreSale.sol\":4729:4763  address(rewardToken) != address(0) */\n      0xffffffffffffffffffffffffffffffffffffffff\n      and\n      eq\n        /* \"contracts/PreSale.sol\":4726:5002  if(address(rewardToken) != address(0)) {... */\n      tag_304\n      jumpi\n        /* \"contracts/PreSale.sol\":4783:4882  TransferHelper.safeTransfer(address(rewardToken), msg.sender, rewardToken.balanceOf(address(this))) */\n      tag_305\n        /* \"contracts/PreSale.sol\":4819:4830  rewardToken */\n      0x01\n      0x00\n      swap1\n      sload\n      swap1\n      0x0100\n      exp\n      swap1\n      div\n      0xffffffffffffffffffffffffffffffffffffffff\n      and\n        /* \"contracts/PreSale.sol\":4833:4843  msg.sender */\n      caller\n        /* \"contracts/PreSale.sol\":4845:4856  rewardToken */\n      0x01\n      0x00\n      swap1\n      sload\n      swap1\n      0x0100\n      exp\n      swap1\n      div\n      0xffffffffffffffffffffffffffffffffffffffff\n      and\n        /* \"contracts/PreSale.sol\":4845:4866  rewardToken.balanceOf */\n      0xffffffffffffffffffffffffffffffffffffffff\n      and\n      0x70a08231\n        /* \"contracts/PreSale.sol\":4875:4879  this */\n      address\n        /* \"contracts/PreSale.sol\":4845:4881  rewardToken.balanceOf(address(this)) */\n      mload(0x40)\n      dup3\n      0xffffffff\n      and\n      0xe0\n      shl\n      dup2\n      mstore\n      0x04\n      add\n      tag_306\n      swap2\n      swap1\n      tag_90\n      jump\t// in\n    tag_306:\n      0x20\n      mload(0x40)\n      dup1\n      dup4\n      sub\n      dup2\n      dup7\n      dup1\n      extcodesize\n      iszero\n      dup1\n      iszero\n      tag_307\n      jumpi\n      0x00\n      dup1\n      revert\n    tag_307:\n      pop\n      gas\n      staticcall\n      iszero\n      dup1\n      iszero\n      tag_309\n      jumpi\n      returndatasize\n      0x00\n      dup1\n      returndatacopy\n      revert(0x00, returndatasize)\n    tag_309:\n      pop\n      pop\n      pop\n      pop\n      mload(0x40)\n      returndatasize\n      not(0x1f)\n      0x1f\n      dup3\n      add\n      and\n      dup3\n      add\n      dup1\n      0x40\n      mstore\n      pop\n      dup2\n      add\n      swap1\n      tag_310\n      swap2\n      swap1\n      tag_184\n      jump\t// in\n    tag_310:\n        /* \"contracts/PreSale.sol\":4783:4810  TransferHelper.safeTransfer */\n      tag_214\n        /* \"contracts/PreSale.sol\":4783:4882  TransferHelper.safeTransfer(address(rewardToken), msg.sender, rewardToken.balanceOf(address(this))) */\n      jump\t// in\n    tag_305:\n        /* \"contracts/PreSale.sol\":4726:5002  if(address(rewardToken) != address(0)) {... */\n      jump(tag_311)\n    tag_304:\n        /* \"contracts/PreSale.sol\":4921:4987  TransferHelper.safeTransferETH(msg.sender,  address(this).balance) */\n      tag_312\n        /* \"contracts/PreSale.sol\":4952:4962  msg.sender */\n      caller\n        /* \"contracts/PreSale.sol\":4965:4986  address(this).balance */\n      selfbalance\n        /* \"contracts/PreSale.sol\":4921:4951  TransferHelper.safeTransferETH */\n      tag_217\n        /* \"contracts/PreSale.sol\":4921:4987  TransferHelper.safeTransferETH(msg.sender,  address(this).balance) */\n      jump\t// in\n    tag_312:\n        /* \"contracts/PreSale.sol\":4726:5002  if(address(rewardToken) != address(0)) {... */\n    tag_311:\n        /* \"contracts/PreSale.sol\":4104:5012  if(softcap <= soldTokens) {... */\n    tag_303:\n        /* \"contracts/PreSale.sol\":5036:5072  saleEnded.add(afterDays.mul(1 days)) */\n      tag_313\n        /* \"contracts/PreSale.sol\":5050:5071  afterDays.mul(1 days) */\n      tag_314\n        /* \"contracts/PreSale.sol\":5064:5070  1 days */\n      0x015180\n        /* \"contracts/PreSale.sol\":5050:5059  afterDays */\n      sload(0x08)\n        /* \"contracts/PreSale.sol\":5050:5063  afterDays.mul */\n      tag_191\n      swap1\n        /* \"contracts/PreSale.sol\":5050:5071  afterDays.mul(1 days) */\n      swap2\n      swap1\n      0xffffffff\n      and\n      jump\t// in\n    tag_314:\n        /* \"contracts/PreSale.sol\":5036:5045  saleEnded */\n      sload(0x07)\n        /* \"contracts/PreSale.sol\":5036:5049  saleEnded.add */\n      tag_192\n      swap1\n        /* \"contracts/PreSale.sol\":5036:5072  saleEnded.add(afterDays.mul(1 days)) */\n      swap2\n      swap1\n      0xffffffff\n      and\n      jump\t// in\n    tag_313:\n        /* \"contracts/PreSale.sol\":5026:5073  SaleEnded(saleEnded.add(afterDays.mul(1 days))) */\n      0x94bb74a9473ae4063ec1e73dc3e35fd4b5abe9cc1e43ad0db84e5358559ccd5a\n      mload(0x40)\n      mload(0x40)\n      dup1\n      swap2\n      sub\n      swap1\n      log2\n        /* \"contracts/PreSale.sol\":3916:5080  function claimAndEndSale(uint256 _afterDays) public onlyOwner {... */\n      pop\n      jump\t// out\n        /* \"@openzeppelin/contracts/access/Ownable.sol\":1846:2035  function transferOwnership(address newOwner) public virtual onlyOwner {... */\n    tag_143:\n        /* \"@openzeppelin/contracts/access/Ownable.sol\":1196:1208  _msgSender() */\n      tag_316\n        /* \"@openzeppelin/contracts/access/Ownable.sol\":1196:1206  _msgSender */\n      tag_164\n        /* \"@openzeppelin/contracts/access/Ownable.sol\":1196:1208  _msgSender() */\n      jump\t// in\n    tag_316:\n        /* \"@openzeppelin/contracts/access/Ownable.sol\":1185:1208  owner() == _msgSender() */\n      0xffffffffffffffffffffffffffffffffffffffff\n      and\n        /* \"@openzeppelin/contracts/access/Ownable.sol\":1185:1192  owner() */\n      tag_317\n        /* \"@openzeppelin/contracts/access/Ownable.sol\":1185:1190  owner */\n      tag_88\n        /* \"@openzeppelin/contracts/access/Ownable.sol\":1185:1192  owner() */\n      jump\t// in\n    tag_317:\n        /* \"@openzeppelin/contracts/access/Ownable.sol\":1185:1208  owner() == _msgSender() */\n      0xffffffffffffffffffffffffffffffffffffffff\n      and\n      eq\n        /* \"@openzeppelin/contracts/access/Ownable.sol\":1177:1245  require(owner() == _msgSender(), \"Ownable: caller is not the owner\") */\n      tag_318\n      jumpi\n      mload(0x40)\n      0x08c379a000000000000000000000000000000000000000000000000000000000\n      dup2\n      mstore\n      0x04\n      add\n      tag_319\n      swap1\n      tag_168\n      jump\t// in\n    tag_319:\n      mload(0x40)\n      dup1\n      swap2\n      sub\n      swap1\n      revert\n    tag_318:\n        /* \"@openzeppelin/contracts/access/Ownable.sol\":1954:1955  0 */\n      0x00\n        /* \"@openzeppelin/contracts/access/Ownable.sol\":1934:1956  newOwner != address(0) */\n      0xffffffffffffffffffffffffffffffffffffffff\n      and\n        /* \"@openzeppelin/contracts/access/Ownable.sol\":1934:1942  newOwner */\n      dup2\n        /* \"@openzeppelin/contracts/access/Ownable.sol\":1934:1956  newOwner != address(0) */\n      0xffffffffffffffffffffffffffffffffffffffff\n      and\n      eq\n      iszero\n        /* \"@openzeppelin/contracts/access/Ownable.sol\":1926:1999  require(newOwner != address(0), \"Ownable: new owner is the zero address\") */\n      tag_321\n      jumpi\n      mload(0x40)\n      0x08c379a000000000000000000000000000000000000000000000000000000000\n      dup2\n      mstore\n      0x04\n      add\n      tag_322\n      swap1\n      tag_323\n      jump\t// in\n    tag_322:\n      mload(0x40)\n      dup1\n      swap2\n      sub\n      swap1\n      revert\n    tag_321:\n        /* \"@openzeppelin/contracts/access/Ownable.sol\":2009:2028  _setOwner(newOwner) */\n      tag_324\n        /* \"@openzeppelin/contracts/access/Ownable.sol\":2019:2027  newOwner */\n      dup2\n        /* \"@openzeppelin/contracts/access/Ownable.sol\":2009:2018  _setOwner */\n      tag_230\n        /* \"@openzeppelin/contracts/access/Ownable.sol\":2009:2028  _setOwner(newOwner) */\n      jump\t// in\n    tag_324:\n        /* \"@openzeppelin/contracts/access/Ownable.sol\":1846:2035  function transferOwnership(address newOwner) public virtual onlyOwner {... */\n      pop\n      jump\t// out\n        /* \"contracts/PreSale.sol\":2351:2402  mapping(address => address) public lastClaimAddress */\n    tag_147:\n      mstore(0x20, 0x0e)\n      dup1\n      0x00\n      mstore\n      keccak256(0x00, 0x40)\n      0x00\n      swap2\n      pop\n      sload\n      swap1\n      0x0100\n      exp\n      swap1\n      div\n      0xffffffffffffffffffffffffffffffffffffffff\n      and\n      dup2\n      jump\t// out\n        /* \"contracts/PreSale.sol\":884:909  IERC20 public rewardToken */\n    tag_151:\n      0x01\n      0x00\n      swap1\n      sload\n      swap1\n      0x0100\n      exp\n      swap1\n      div\n      0xffffffffffffffffffffffffffffffffffffffff\n      and\n      dup2\n      jump\t// out\n        /* \"contracts/PreSale.sol\":1109:1131  uint256 public softcap */\n    tag_155:\n      sload(0x05)\n      dup2\n      jump\t// out\n        /* \"contracts/PreSale.sol\":5546:6059  function updateRewardToken(IERC20 _newRewardToken) public onlyOwner {... */\n    tag_161:\n        /* \"@openzeppelin/contracts/access/Ownable.sol\":1196:1208  _msgSender() */\n      tag_326\n        /* \"@openzeppelin/contracts/access/Ownable.sol\":1196:1206  _msgSender */\n      tag_164\n        /* \"@openzeppelin/contracts/access/Ownable.sol\":1196:1208  _msgSender() */\n      jump\t// in\n    tag_326:\n        /* \"@openzeppelin/contracts/access/Ownable.sol\":1185:1208  owner() == _msgSender() */\n      0xffffffffffffffffffffffffffffffffffffffff\n      and\n        /* \"@openzeppelin/contracts/access/Ownable.sol\":1185:1192  owner() */\n      tag_327\n        /* \"@openzeppelin/contracts/access/Ownable.sol\":1185:1190  owner */\n      tag_88\n        /* \"@openzeppelin/contracts/access/Ownable.sol\":1185:1192  owner() */\n      jump\t// in\n    tag_327:\n        /* \"@openzeppelin/contracts/access/Ownable.sol\":1185:1208  owner() == _msgSender() */\n      0xffffffffffffffffffffffffffffffffffffffff\n      and\n      eq\n        /* \"@openzeppelin/contracts/access/Ownable.sol\":1177:1245  require(owner() == _msgSender(), \"Ownable: caller is not the owner\") */\n      tag_328\n      jumpi\n      mload(0x40)\n      0x08c379a000000000000000000000000000000000000000000000000000000000\n      dup2\n      mstore\n      0x04\n      add\n      tag_329\n      swap1\n      tag_168\n      jump\t// in\n    tag_329:\n      mload(0x40)\n      dup1\n      swap2\n      sub\n      swap1\n      revert\n    tag_328:\n        /* \"contracts/PreSale.sol\":5651:5662  rewardToken */\n      0x01\n      0x00\n      swap1\n      sload\n      swap1\n      0x0100\n      exp\n      swap1\n      div\n      0xffffffffffffffffffffffffffffffffffffffff\n      and\n        /* \"contracts/PreSale.sol\":5632:5662  _newRewardToken != rewardToken */\n      0xffffffffffffffffffffffffffffffffffffffff\n      and\n        /* \"contracts/PreSale.sol\":5632:5647  _newRewardToken */\n      dup2\n        /* \"contracts/PreSale.sol\":5632:5662  _newRewardToken != rewardToken */\n      0xffffffffffffffffffffffffffffffffffffffff\n      and\n      eq\n      iszero\n        /* \"contracts/PreSale.sol\":5624:5737  require(_newRewardToken != rewardToken, \"ABOAT::updateRewardToken: New reward should be different from current.\") */\n      tag_331\n      jumpi\n      mload(0x40)\n      0x08c379a000000000000000000000000000000000000000000000000000000000\n      dup2\n      mstore\n      0x04\n      add\n      tag_332\n      swap1\n      tag_333\n      jump\t// in\n    tag_332:\n      mload(0x40)\n      dup1\n      swap2\n      sub\n      swap1\n      revert\n    tag_331:\n        /* \"contracts/PreSale.sol\":5799:5810  rewardToken */\n      0x01\n      0x00\n      swap1\n      sload\n      swap1\n      0x0100\n      exp\n      swap1\n      div\n      0xffffffffffffffffffffffffffffffffffffffff\n      and\n        /* \"contracts/PreSale.sol\":5799:5820  rewardToken.balanceOf */\n      0xffffffffffffffffffffffffffffffffffffffff\n      and\n      0x70a08231\n        /* \"contracts/PreSale.sol\":5829:5833  this */\n      address\n        /* \"contracts/PreSale.sol\":5799:5835  rewardToken.balanceOf(address(this)) */\n      mload(0x40)\n      dup3\n      0xffffffff\n      and\n      0xe0\n      shl\n      dup2\n      mstore\n      0x04\n      add\n      tag_334\n      swap2\n      swap1\n      tag_90\n      jump\t// in\n    tag_334:\n      0x20\n      mload(0x40)\n      dup1\n      dup4\n      sub\n      dup2\n      dup7\n      dup1\n      extcodesize\n      iszero\n      dup1\n      iszero\n      tag_335\n      jumpi\n      0x00\n      dup1\n      revert\n    tag_335:\n      pop\n      gas\n      staticcall\n      iszero\n      dup1\n      iszero\n      tag_337\n      jumpi\n      returndatasize\n      0x00\n      dup1\n      returndatacopy\n      revert(0x00, returndatasize)\n    tag_337:\n      pop\n      pop\n      pop\n      pop\n      mload(0x40)\n      returndatasize\n      not(0x1f)\n      0x1f\n      dup3\n      add\n      and\n      dup3\n      add\n      dup1\n      0x40\n      mstore\n      pop\n      dup2\n      add\n      swap1\n      tag_338\n      swap2\n      swap1\n      tag_184\n      jump\t// in\n    tag_338:\n        /* \"contracts/PreSale.sol\":5755:5770  _newRewardToken */\n      dup2\n        /* \"contracts/PreSale.sol\":5755:5780  _newRewardToken.balanceOf */\n      0xffffffffffffffffffffffffffffffffffffffff\n      and\n      0x70a08231\n        /* \"contracts/PreSale.sol\":5789:5793  this */\n      address\n        /* \"contracts/PreSale.sol\":5755:5795  _newRewardToken.balanceOf(address(this)) */\n      mload(0x40)\n      dup3\n      0xffffffff\n      and\n      0xe0\n      shl\n      dup2\n      mstore\n      0x04\n      add\n      tag_339\n      swap2\n      swap1\n      tag_90\n      jump\t// in\n    tag_339:\n      0x20\n      mload(0x40)\n      dup1\n      dup4\n      sub\n      dup2\n      dup7\n      dup1\n      extcodesize\n      iszero\n      dup1\n      iszero\n      tag_340\n      jumpi\n      0x00\n      dup1\n      revert\n    tag_340:\n      pop\n      gas\n      staticcall\n      iszero\n      dup1\n      iszero\n      tag_342\n      jumpi\n      returndatasize\n      0x00\n      dup1\n      returndatacopy\n      revert(0x00, returndatasize)\n    tag_342:\n      pop\n      pop\n      pop\n      pop\n      mload(0x40)\n      returndatasize\n      not(0x1f)\n      0x1f\n      dup3\n      add\n      and\n      dup3\n      add\n      dup1\n      0x40\n      mstore\n      pop\n      dup2\n      add\n      swap1\n      tag_343\n      swap2\n      swap1\n      tag_184\n      jump\t// in\n    tag_343:\n        /* \"contracts/PreSale.sol\":5755:5835  _newRewardToken.balanceOf(address(this)) == rewardToken.balanceOf(address(this)) */\n      eq\n        /* \"contracts/PreSale.sol\":5747:5959  require(_newRewardToken.balanceOf(address(this)) == rewardToken.balanceOf(address(this)), \"ABOAT::updateRewardToken: The contract should contain atleast the same amount of tokens as from the current rewardToken\") */\n      tag_344\n      jumpi\n      mload(0x40)\n      0x08c379a000000000000000000000000000000000000000000000000000000000\n      dup2\n      mstore\n      0x04\n      add\n      tag_345\n      swap1\n      tag_346\n      jump\t// in\n    tag_345:\n      mload(0x40)\n      dup1\n      swap2\n      sub\n      swap1\n      revert\n    tag_344:\n        /* \"contracts/PreSale.sol\":5983:5998  _newRewardToken */\n      dup1\n        /* \"contracts/PreSale.sol\":5969:5980  rewardToken */\n      0x01\n      0x00\n        /* \"contracts/PreSale.sol\":5969:5998  rewardToken = _newRewardToken */\n      0x0100\n      exp\n      dup2\n      sload\n      dup2\n      0xffffffffffffffffffffffffffffffffffffffff\n      mul\n      not\n      and\n      swap1\n      dup4\n      0xffffffffffffffffffffffffffffffffffffffff\n      and\n      mul\n      or\n      swap1\n      sstore\n      pop\n        /* \"contracts/PreSale.sol\":6039:6050  rewardToken */\n      0x01\n      0x00\n      swap1\n      sload\n      swap1\n      0x0100\n      exp\n      swap1\n      div\n      0xffffffffffffffffffffffffffffffffffffffff\n      and\n        /* \"contracts/PreSale.sol\":6013:6052  ChangeRewardToken(address(rewardToken)) */\n      0xffffffffffffffffffffffffffffffffffffffff\n      and\n      0x3fcfc24a3384ca156092d9242cb0f84abaf442146d91b8c93bea526561b83f83\n      mload(0x40)\n      mload(0x40)\n      dup1\n      swap2\n      sub\n      swap1\n      log2\n        /* \"contracts/PreSale.sol\":5546:6059  function updateRewardToken(IERC20 _newRewardToken) public onlyOwner {... */\n      pop\n      jump\t// out\n        /* \"@openzeppelin/contracts/utils/Context.sol\":586:682  function _msgSender() internal view virtual returns (address) {... */\n    tag_164:\n        /* \"@openzeppelin/contracts/utils/Context.sol\":639:646  address */\n      0x00\n        /* \"@openzeppelin/contracts/utils/Context.sol\":665:675  msg.sender */\n      caller\n        /* \"@openzeppelin/contracts/utils/Context.sol\":658:675  return msg.sender */\n      swap1\n      pop\n        /* \"@openzeppelin/contracts/utils/Context.sol\":586:682  function _msgSender() internal view virtual returns (address) {... */\n      swap1\n      jump\t// out\n        /* \"@openzeppelin/contracts/utils/math/SafeMath.sol\":3039:3135  function sub(uint256 a, uint256 b) internal pure returns (uint256) {... */\n    tag_176:\n        /* \"@openzeppelin/contracts/utils/math/SafeMath.sol\":3097:3104  uint256 */\n      0x00\n        /* \"@openzeppelin/contracts/utils/math/SafeMath.sol\":3127:3128  b */\n      dup2\n        /* \"@openzeppelin/contracts/utils/math/SafeMath.sol\":3123:3124  a */\n      dup4\n        /* \"@openzeppelin/contracts/utils/math/SafeMath.sol\":3123:3128  a - b */\n      tag_349\n      swap2\n      swap1\n      tag_350\n      jump\t// in\n    tag_349:\n        /* \"@openzeppelin/contracts/utils/math/SafeMath.sol\":3116:3128  return a - b */\n      swap1\n      pop\n        /* \"@openzeppelin/contracts/utils/math/SafeMath.sol\":3039:3135  function sub(uint256 a, uint256 b) internal pure returns (uint256) {... */\n      swap3\n      swap2\n      pop\n      pop\n      jump\t// out\n        /* \"@openzeppelin/contracts/utils/math/SafeMath.sol\":3382:3478  function mul(uint256 a, uint256 b) internal pure returns (uint256) {... */\n    tag_191:\n        /* \"@openzeppelin/contracts/utils/math/SafeMath.sol\":3440:3447  uint256 */\n      0x00\n        /* \"@openzeppelin/contracts/utils/math/SafeMath.sol\":3470:3471  b */\n      dup2\n        /* \"@openzeppelin/contracts/utils/math/SafeMath.sol\":3466:3467  a */\n      dup4\n        /* \"@openzeppelin/contracts/utils/math/SafeMath.sol\":3466:3471  a * b */\n      tag_352\n      swap2\n      swap1\n      tag_236\n      jump\t// in\n    tag_352:\n        /* \"@openzeppelin/contracts/utils/math/SafeMath.sol\":3459:3471  return a * b */\n      swap1\n      pop\n        /* \"@openzeppelin/contracts/utils/math/SafeMath.sol\":3382:3478  function mul(uint256 a, uint256 b) internal pure returns (uint256) {... */\n      swap3\n      swap2\n      pop\n      pop\n      jump\t// out\n        /* \"@openzeppelin/contracts/utils/math/SafeMath.sol\":2672:2768  function add(uint256 a, uint256 b) internal pure returns (uint256) {... */\n    tag_192:\n        /* \"@openzeppelin/contracts/utils/math/SafeMath.sol\":2730:2737  uint256 */\n      0x00\n        /* \"@openzeppelin/contracts/utils/math/SafeMath.sol\":2760:2761  b */\n      dup2\n        /* \"@openzeppelin/contracts/utils/math/SafeMath.sol\":2756:2757  a */\n      dup4\n        /* \"@openzeppelin/contracts/utils/math/SafeMath.sol\":2756:2761  a + b */\n      tag_354\n      swap2\n      swap1\n      tag_355\n      jump\t// in\n    tag_354:\n        /* \"@openzeppelin/contracts/utils/math/SafeMath.sol\":2749:2761  return a + b */\n      swap1\n      pop\n        /* \"@openzeppelin/contracts/utils/math/SafeMath.sol\":2672:2768  function add(uint256 a, uint256 b) internal pure returns (uint256) {... */\n      swap3\n      swap2\n      pop\n      pop\n      jump\t// out\n        /* \"@openzeppelin/contracts/utils/math/SafeMath.sol\":3767:3863  function div(uint256 a, uint256 b) internal pure returns (uint256) {... */\n    tag_210:\n        /* \"@openzeppelin/contracts/utils/math/SafeMath.sol\":3825:3832  uint256 */\n      0x00\n        /* \"@openzeppelin/contracts/utils/math/SafeMath.sol\":3855:3856  b */\n      dup2\n        /* \"@openzeppelin/contracts/utils/math/SafeMath.sol\":3851:3852  a */\n      dup4\n        /* \"@openzeppelin/contracts/utils/math/SafeMath.sol\":3851:3856  a / b */\n      tag_357\n      swap2\n      swap1\n      tag_358\n      jump\t// in\n    tag_357:\n        /* \"@openzeppelin/contracts/utils/math/SafeMath.sol\":3844:3856  return a / b */\n      swap1\n      pop\n        /* \"@openzeppelin/contracts/utils/math/SafeMath.sol\":3767:3863  function div(uint256 a, uint256 b) internal pure returns (uint256) {... */\n      swap3\n      swap2\n      pop\n      pop\n      jump\t// out\n        /* \"contracts/libraries/TransferHelper.sol\":210:594  function safeTransfer(... */\n    tag_214:\n        /* \"contracts/libraries/TransferHelper.sol\":324:336  bool success */\n      0x00\n        /* \"contracts/libraries/TransferHelper.sol\":338:355  bytes memory data */\n      dup1\n        /* \"contracts/libraries/TransferHelper.sol\":371:376  token */\n      dup5\n        /* \"contracts/libraries/TransferHelper.sol\":371:381  token.call */\n      0xffffffffffffffffffffffffffffffffffffffff\n      and\n        /* \"contracts/libraries/TransferHelper.sol\":405:415  0xa9059cbb */\n      0xa9059cbb\n        /* \"contracts/libraries/TransferHelper.sol\":417:419  to */\n      dup6\n        /* \"contracts/libraries/TransferHelper.sol\":421:426  value */\n      dup6\n        /* \"contracts/libraries/TransferHelper.sol\":382:427  abi.encodeWithSelector(0xa9059cbb, to, value) */\n      add(0x24, mload(0x40))\n      tag_360\n      swap3\n      swap2\n      swap1\n      tag_361\n      jump\t// in\n    tag_360:\n      mload(0x40)\n      0x20\n      dup2\n      dup4\n      sub\n      sub\n      dup2\n      mstore\n      swap1\n      0x40\n      mstore\n      swap1\n      0xe0\n      shl\n      0x20\n      dup3\n      add\n      dup1\n      mload\n      0xffffffffffffffffffffffffffffffffffffffffffffffffffffffff\n      dup4\n      dup2\n      dup4\n      and\n      or\n      dup4\n      mstore\n      pop\n      pop\n      pop\n      pop\n        /* \"contracts/libraries/TransferHelper.sol\":371:428  token.call(abi.encodeWithSelector(0xa9059cbb, to, value)) */\n      mload(0x40)\n      tag_362\n      swap2\n      swap1\n      tag_363\n      jump\t// in\n    tag_362:\n      0x00\n      mload(0x40)\n      dup1\n      dup4\n      sub\n      dup2\n      0x00\n      dup7\n      gas\n      call\n      swap2\n      pop\n      pop\n      returndatasize\n      dup1\n      0x00\n      dup2\n      eq\n      tag_366\n      jumpi\n      mload(0x40)\n      swap2\n      pop\n      and(add(returndatasize, 0x3f), not(0x1f))\n      dup3\n      add\n      0x40\n      mstore\n      returndatasize\n      dup3\n      mstore\n      returndatasize\n      0x00\n      0x20\n      dup5\n      add\n      returndatacopy\n      jump(tag_365)\n    tag_366:\n      0x60\n      swap2\n      pop\n    tag_365:\n      pop\n        /* \"contracts/libraries/TransferHelper.sol\":323:428  (bool success, bytes memory data) =... */\n      swap2\n      pop\n      swap2\n      pop\n        /* \"contracts/libraries/TransferHelper.sol\":459:466  success */\n      dup2\n        /* \"contracts/libraries/TransferHelper.sol\":459:516  success && (data.length == 0 || abi.decode(data, (bool))) */\n      dup1\n      iszero\n      tag_367\n      jumpi\n      pop\n        /* \"contracts/libraries/TransferHelper.sol\":486:487  0 */\n      0x00\n        /* \"contracts/libraries/TransferHelper.sol\":471:475  data */\n      dup2\n        /* \"contracts/libraries/TransferHelper.sol\":471:482  data.length */\n      mload\n        /* \"contracts/libraries/TransferHelper.sol\":471:487  data.length == 0 */\n      eq\n        /* \"contracts/libraries/TransferHelper.sol\":471:515  data.length == 0 || abi.decode(data, (bool)) */\n      dup1\n      tag_368\n      jumpi\n      pop\n        /* \"contracts/libraries/TransferHelper.sol\":502:506  data */\n      dup1\n        /* \"contracts/libraries/TransferHelper.sol\":491:515  abi.decode(data, (bool)) */\n      dup1\n      0x20\n      add\n      swap1\n      mload\n      dup2\n      add\n      swap1\n      tag_369\n      swap2\n      swap1\n      tag_370\n      jump\t// in\n    tag_369:\n        /* \"contracts/libraries/TransferHelper.sol\":471:515  data.length == 0 || abi.decode(data, (bool)) */\n    tag_368:\n        /* \"contracts/libraries/TransferHelper.sol\":459:516  success && (data.length == 0 || abi.decode(data, (bool))) */\n    tag_367:\n        /* \"contracts/libraries/TransferHelper.sol\":438:587  require(... */\n      tag_371\n      jumpi\n      mload(0x40)\n      0x08c379a000000000000000000000000000000000000000000000000000000000\n      dup2\n      mstore\n      0x04\n      add\n      tag_372\n      swap1\n      tag_373\n      jump\t// in\n    tag_372:\n      mload(0x40)\n      dup1\n      swap2\n      sub\n      swap1\n      revert\n    tag_371:\n        /* \"contracts/libraries/TransferHelper.sol\":313:594  {... */\n      pop\n      pop\n        /* \"contracts/libraries/TransferHelper.sol\":210:594  function safeTransfer(... */\n      pop\n      pop\n      pop\n      jump\t// out\n        /* \"contracts/libraries/TransferHelper.sol\":1026:1274  function safeTransferETH(address to, uint256 value) internal {... */\n    tag_217:\n        /* \"contracts/libraries/TransferHelper.sol\":1098:1110  bool success */\n      0x00\n        /* \"contracts/libraries/TransferHelper.sol\":1116:1118  to */\n      dup3\n        /* \"contracts/libraries/TransferHelper.sol\":1116:1123  to.call */\n      0xffffffffffffffffffffffffffffffffffffffff\n      and\n        /* \"contracts/libraries/TransferHelper.sol\":1131:1136  value */\n      dup3\n        /* \"contracts/libraries/TransferHelper.sol\":1148:1149  0 */\n      0x00\n        /* \"contracts/libraries/TransferHelper.sol\":1138:1150  new bytes(0) */\n      0xffffffffffffffff\n      dup2\n      gt\n      iszero\n      tag_375\n      jumpi\n      tag_376\n      tag_377\n      jump\t// in\n    tag_376:\n    tag_375:\n      mload(0x40)\n      swap1\n      dup1\n      dup3\n      mstore\n      dup1\n      0x1f\n      add\n      not(0x1f)\n      and\n      0x20\n      add\n      dup3\n      add\n      0x40\n      mstore\n      dup1\n      iszero\n      tag_378\n      jumpi\n      dup2\n      0x20\n      add\n      0x01\n      dup3\n      mul\n      dup1\n      calldatasize\n      dup4\n      calldatacopy\n      dup1\n      dup3\n      add\n      swap2\n      pop\n      pop\n      swap1\n      pop\n    tag_378:\n      pop\n        /* \"contracts/libraries/TransferHelper.sol\":1116:1151  to.call{value: value}(new bytes(0)) */\n      mload(0x40)\n      tag_379\n      swap2\n      swap1\n      tag_363\n      jump\t// in\n    tag_379:\n      0x00\n      mload(0x40)\n      dup1\n      dup4\n      sub\n      dup2\n      dup6\n      dup8\n      gas\n      call\n      swap3\n      pop\n      pop\n      pop\n      returndatasize\n      dup1\n      0x00\n      dup2\n      eq\n      tag_382\n      jumpi\n      mload(0x40)\n      swap2\n      pop\n      and(add(returndatasize, 0x3f), not(0x1f))\n      dup3\n      add\n      0x40\n      mstore\n      returndatasize\n      dup3\n      mstore\n      returndatasize\n      0x00\n      0x20\n      dup5\n      add\n      returndatacopy\n      jump(tag_381)\n    tag_382:\n      0x60\n      swap2\n      pop\n    tag_381:\n      pop\n        /* \"contracts/libraries/TransferHelper.sol\":1097:1151  (bool success, ) = to.call{value: value}(new bytes(0)) */\n      pop\n      swap1\n      pop\n        /* \"contracts/libraries/TransferHelper.sol\":1182:1189  success */\n      dup1\n        /* \"contracts/libraries/TransferHelper.sol\":1161:1267  require(... */\n      tag_383\n      jumpi\n      mload(0x40)\n      0x08c379a000000000000000000000000000000000000000000000000000000000\n      dup2\n      mstore\n      0x04\n      add\n      tag_384\n      swap1\n      tag_385\n      jump\t// in\n    tag_384:\n      mload(0x40)\n      dup1\n      swap2\n      sub\n      swap1\n      revert\n    tag_383:\n        /* \"contracts/libraries/TransferHelper.sol\":1087:1274  {... */\n      pop\n        /* \"contracts/libraries/TransferHelper.sol\":1026:1274  function safeTransferETH(address to, uint256 value) internal {... */\n      pop\n      pop\n      jump\t// out\n        /* \"@openzeppelin/contracts/access/Ownable.sol\":2041:2210  function _setOwner(address newOwner) private {... */\n    tag_230:\n        /* \"@openzeppelin/contracts/access/Ownable.sol\":2096:2112  address oldOwner */\n      0x00\n        /* \"@openzeppelin/contracts/access/Ownable.sol\":2115:2121  _owner */\n      dup1\n      0x00\n      swap1\n      sload\n      swap1\n      0x0100\n      exp\n      swap1\n      div\n      0xffffffffffffffffffffffffffffffffffffffff\n      and\n        /* \"@openzeppelin/contracts/access/Ownable.sol\":2096:2121  address oldOwner = _owner */\n      swap1\n      pop\n        /* \"@openzeppelin/contracts/access/Ownable.sol\":2140:2148  newOwner */\n      dup2\n        /* \"@openzeppelin/contracts/access/Ownable.sol\":2131:2137  _owner */\n      0x00\n      dup1\n        /* \"@openzeppelin/contracts/access/Ownable.sol\":2131:2148  _owner = newOwner */\n      0x0100\n      exp\n      dup2\n      sload\n      dup2\n      0xffffffffffffffffffffffffffffffffffffffff\n      mul\n      not\n      and\n      swap1\n      dup4\n      0xffffffffffffffffffffffffffffffffffffffff\n      and\n      mul\n      or\n      swap1\n      sstore\n      pop\n        /* \"@openzeppelin/contracts/access/Ownable.sol\":2194:2202  newOwner */\n      dup2\n        /* \"@openzeppelin/contracts/access/Ownable.sol\":2163:2203  OwnershipTransferred(oldOwner, newOwner) */\n      0xffffffffffffffffffffffffffffffffffffffff\n      and\n        /* \"@openzeppelin/contracts/access/Ownable.sol\":2184:2192  oldOwner */\n      dup2\n        /* \"@openzeppelin/contracts/access/Ownable.sol\":2163:2203  OwnershipTransferred(oldOwner, newOwner) */\n      0xffffffffffffffffffffffffffffffffffffffff\n      and\n      0x8be0079c531659141344cd1fd0a4f28419497f9722a3daafe3b4186f6b6457e0\n      mload(0x40)\n      mload(0x40)\n      dup1\n      swap2\n      sub\n      swap1\n      log3\n        /* \"@openzeppelin/contracts/access/Ownable.sol\":2086:2210  {... */\n      pop\n        /* \"@openzeppelin/contracts/access/Ownable.sol\":2041:2210  function _setOwner(address newOwner) private {... */\n      pop\n      jump\t// out\n        /* \"@openzeppelin/contracts/token/ERC20/utils/SafeERC20.sol\":845:1086  function safeTransferFrom(... */\n    tag_281:\n        /* \"@openzeppelin/contracts/token/ERC20/utils/SafeERC20.sol\":983:1079  _callOptionalReturn(token, abi.encodeWithSelector(token.transferFrom.selector, from, to, value)) */\n      tag_388\n        /* \"@openzeppelin/contracts/token/ERC20/utils/SafeERC20.sol\":1003:1008  token */\n      dup5\n        /* \"@openzeppelin/contracts/token/ERC20/utils/SafeERC20.sol\":1033:1060  token.transferFrom.selector */\n      shl(0xe0, 0x23b872dd)\n        /* \"@openzeppelin/contracts/token/ERC20/utils/SafeERC20.sol\":1062:1066  from */\n      dup6\n        /* \"@openzeppelin/contracts/token/ERC20/utils/SafeERC20.sol\":1068:1070  to */\n      dup6\n        /* \"@openzeppelin/contracts/token/ERC20/utils/SafeERC20.sol\":1072:1077  value */\n      dup6\n        /* \"@openzeppelin/contracts/token/ERC20/utils/SafeERC20.sol\":1010:1078  abi.encodeWithSelector(token.transferFrom.selector, from, to, value) */\n      add(0x24, mload(0x40))\n      tag_389\n      swap4\n      swap3\n      swap2\n      swap1\n      tag_390\n      jump\t// in\n    tag_389:\n      mload(0x40)\n      0x20\n      dup2\n      dup4\n      sub\n      sub\n      dup2\n      mstore\n      swap1\n      0x40\n      mstore\n      swap1\n      not(0xffffffffffffffffffffffffffffffffffffffffffffffffffffffff)\n      and\n      0x20\n      dup3\n      add\n      dup1\n      mload\n      0xffffffffffffffffffffffffffffffffffffffffffffffffffffffff\n      dup4\n      dup2\n      dup4\n      and\n      or\n      dup4\n      mstore\n      pop\n      pop\n      pop\n      pop\n        /* \"@openzeppelin/contracts/token/ERC20/utils/SafeERC20.sol\":983:1002  _callOptionalReturn */\n      tag_391\n        /* \"@openzeppelin/contracts/token/ERC20/utils/SafeERC20.sol\":983:1079  _callOptionalReturn(token, abi.encodeWithSelector(token.transferFrom.selector, from, to, value)) */\n      jump\t// in\n    tag_388:\n        /* \"@openzeppelin/contracts/token/ERC20/utils/SafeERC20.sol\":845:1086  function safeTransferFrom(... */\n      pop\n      pop\n      pop\n      pop\n      jump\t// out\n        /* \"@openzeppelin/contracts/token/ERC20/utils/SafeERC20.sol\":3140:3846  function _callOptionalReturn(IERC20 token, bytes memory data) private {... */\n    tag_391:\n        /* \"@openzeppelin/contracts/token/ERC20/utils/SafeERC20.sol\":3559:3582  bytes memory returndata */\n      0x00\n        /* \"@openzeppelin/contracts/token/ERC20/utils/SafeERC20.sol\":3585:3654  address(token).functionCall(data, \"SafeERC20: low-level call failed\") */\n      tag_393\n        /* \"@openzeppelin/contracts/token/ERC20/utils/SafeERC20.sol\":3613:3617  data */\n      dup3\n        /* \"@openzeppelin/contracts/token/ERC20/utils/SafeERC20.sol\":3585:3654  address(token).functionCall(data, \"SafeERC20: low-level call failed\") */\n      mload(0x40)\n      dup1\n      0x40\n      add\n      0x40\n      mstore\n      dup1\n      0x20\n      dup2\n      mstore\n      0x20\n      add\n      0x5361666545524332303a206c6f772d6c6576656c2063616c6c206661696c6564\n      dup2\n      mstore\n      pop\n        /* \"@openzeppelin/contracts/token/ERC20/utils/SafeERC20.sol\":3593:3598  token */\n      dup6\n        /* \"@openzeppelin/contracts/token/ERC20/utils/SafeERC20.sol\":3585:3612  address(token).functionCall */\n      0xffffffffffffffffffffffffffffffffffffffff\n      and\n      tag_394\n      swap1\n        /* \"@openzeppelin/contracts/token/ERC20/utils/SafeERC20.sol\":3585:3654  address(token).functionCall(data, \"SafeERC20: low-level call failed\") */\n      swap3\n      swap2\n      swap1\n      0xffffffff\n      and\n      jump\t// in\n    tag_393:\n        /* \"@openzeppelin/contracts/token/ERC20/utils/SafeERC20.sol\":3559:3654  bytes memory returndata = address(token).functionCall(data, \"SafeERC20: low-level call failed\") */\n      swap1\n      pop\n        /* \"@openzeppelin/contracts/token/ERC20/utils/SafeERC20.sol\":3688:3689  0 */\n      0x00\n        /* \"@openzeppelin/contracts/token/ERC20/utils/SafeERC20.sol\":3668:3678  returndata */\n      dup2\n        /* \"@openzeppelin/contracts/token/ERC20/utils/SafeERC20.sol\":3668:3685  returndata.length */\n      mload\n        /* \"@openzeppelin/contracts/token/ERC20/utils/SafeERC20.sol\":3668:3689  returndata.length > 0 */\n      gt\n        /* \"@openzeppelin/contracts/token/ERC20/utils/SafeERC20.sol\":3664:3840  if (returndata.length > 0) {... */\n      iszero\n      tag_395\n      jumpi\n        /* \"@openzeppelin/contracts/token/ERC20/utils/SafeERC20.sol\":3763:3773  returndata */\n      dup1\n        /* \"@openzeppelin/contracts/token/ERC20/utils/SafeERC20.sol\":3752:3782  abi.decode(returndata, (bool)) */\n      dup1\n      0x20\n      add\n      swap1\n      mload\n      dup2\n      add\n      swap1\n      tag_396\n      swap2\n      swap1\n      tag_370\n      jump\t// in\n    tag_396:\n        /* \"@openzeppelin/contracts/token/ERC20/utils/SafeERC20.sol\":3744:3829  require(abi.decode(returndata, (bool)), \"SafeERC20: ERC20 operation did not succeed\") */\n      tag_397\n      jumpi\n      mload(0x40)\n      0x08c379a000000000000000000000000000000000000000000000000000000000\n      dup2\n      mstore\n      0x04\n      add\n      tag_398\n      swap1\n      tag_399\n      jump\t// in\n    tag_398:\n      mload(0x40)\n      dup1\n      swap2\n      sub\n      swap1\n      revert\n    tag_397:\n        /* \"@openzeppelin/contracts/token/ERC20/utils/SafeERC20.sol\":3664:3840  if (returndata.length > 0) {... */\n    tag_395:\n        /* \"@openzeppelin/contracts/token/ERC20/utils/SafeERC20.sol\":3210:3846  {... */\n      pop\n        /* \"@openzeppelin/contracts/token/ERC20/utils/SafeERC20.sol\":3140:3846  function _callOptionalReturn(IERC20 token, bytes memory data) private {... */\n      pop\n      pop\n      jump\t// out\n        /* \"@openzeppelin/contracts/utils/Address.sol\":3461:3684  function functionCall(... */\n    tag_394:\n        /* \"@openzeppelin/contracts/utils/Address.sol\":3594:3606  bytes memory */\n      0x60\n        /* \"@openzeppelin/contracts/utils/Address.sol\":3625:3677  functionCallWithValue(target, data, 0, errorMessage) */\n      tag_401\n        /* \"@openzeppelin/contracts/utils/Address.sol\":3647:3653  target */\n      dup5\n        /* \"@openzeppelin/contracts/utils/Address.sol\":3655:3659  data */\n      dup5\n        /* \"@openzeppelin/contracts/utils/Address.sol\":3661:3662  0 */\n      0x00\n        /* \"@openzeppelin/contracts/utils/Address.sol\":3664:3676  errorMessage */\n      dup6\n        /* \"@openzeppelin/contracts/utils/Address.sol\":3625:3646  functionCallWithValue */\n      tag_402\n        /* \"@openzeppelin/contracts/utils/Address.sol\":3625:3677  functionCallWithValue(target, data, 0, errorMessage) */\n      jump\t// in\n    tag_401:\n        /* \"@openzeppelin/contracts/utils/Address.sol\":3618:3677  return functionCallWithValue(target, data, 0, errorMessage) */\n      swap1\n      pop\n        /* \"@openzeppelin/contracts/utils/Address.sol\":3461:3684  function functionCall(... */\n      swap4\n      swap3\n      pop\n      pop\n      pop\n      jump\t// out\n        /* \"@openzeppelin/contracts/utils/Address.sol\":4548:5048  function functionCallWithValue(... */\n    tag_402:\n        /* \"@openzeppelin/contracts/utils/Address.sol\":4713:4725  bytes memory */\n      0x60\n        /* \"@openzeppelin/contracts/utils/Address.sol\":4770:4775  value */\n      dup3\n        /* \"@openzeppelin/contracts/utils/Address.sol\":4745:4766  address(this).balance */\n      selfbalance\n        /* \"@openzeppelin/contracts/utils/Address.sol\":4745:4775  address(this).balance >= value */\n      lt\n      iszero\n        /* \"@openzeppelin/contracts/utils/Address.sol\":4737:4818  require(address(this).balance >= value, \"Address: insufficient balance for call\") */\n      tag_404\n      jumpi\n      mload(0x40)\n      0x08c379a000000000000000000000000000000000000000000000000000000000\n      dup2\n      mstore\n      0x04\n      add\n      tag_405\n      swap1\n      tag_406\n      jump\t// in\n    tag_405:\n      mload(0x40)\n      dup1\n      swap2\n      sub\n      swap1\n      revert\n    tag_404:\n        /* \"@openzeppelin/contracts/utils/Address.sol\":4836:4854  isContract(target) */\n      tag_407\n        /* \"@openzeppelin/contracts/utils/Address.sol\":4847:4853  target */\n      dup6\n        /* \"@openzeppelin/contracts/utils/Address.sol\":4836:4846  isContract */\n      tag_408\n        /* \"@openzeppelin/contracts/utils/Address.sol\":4836:4854  isContract(target) */\n      jump\t// in\n    tag_407:\n        /* \"@openzeppelin/contracts/utils/Address.sol\":4828:4888  require(isContract(target), \"Address: call to non-contract\") */\n      tag_409\n      jumpi\n      mload(0x40)\n      0x08c379a000000000000000000000000000000000000000000000000000000000\n      dup2\n      mstore\n      0x04\n      add\n      tag_410\n      swap1\n      tag_411\n      jump\t// in\n    tag_410:\n      mload(0x40)\n      dup1\n      swap2\n      sub\n      swap1\n      revert\n    tag_409:\n        /* \"@openzeppelin/contracts/utils/Address.sol\":4900:4912  bool success */\n      0x00\n        /* \"@openzeppelin/contracts/utils/Address.sol\":4914:4937  bytes memory returndata */\n      dup1\n        /* \"@openzeppelin/contracts/utils/Address.sol\":4941:4947  target */\n      dup7\n        /* \"@openzeppelin/contracts/utils/Address.sol\":4941:4952  target.call */\n      0xffffffffffffffffffffffffffffffffffffffff\n      and\n        /* \"@openzeppelin/contracts/utils/Address.sol\":4960:4965  value */\n      dup6\n        /* \"@openzeppelin/contracts/utils/Address.sol\":4967:4971  data */\n      dup8\n        /* \"@openzeppelin/contracts/utils/Address.sol\":4941:4972  target.call{value: value}(data) */\n      mload(0x40)\n      tag_412\n      swap2\n      swap1\n      tag_363\n      jump\t// in\n    tag_412:\n      0x00\n      mload(0x40)\n      dup1\n      dup4\n      sub\n      dup2\n      dup6\n      dup8\n      gas\n      call\n      swap3\n      pop\n      pop\n      pop\n      returndatasize\n      dup1\n      0x00\n      dup2\n      eq\n      tag_415\n      jumpi\n      mload(0x40)\n      swap2\n      pop\n      and(add(returndatasize, 0x3f), not(0x1f))\n      dup3\n      add\n      0x40\n      mstore\n      returndatasize\n      dup3\n      mstore\n      returndatasize\n      0x00\n      0x20\n      dup5\n      add\n      returndatacopy\n      jump(tag_414)\n    tag_415:\n      0x60\n      swap2\n      pop\n    tag_414:\n      pop\n        /* \"@openzeppelin/contracts/utils/Address.sol\":4899:4972  (bool success, bytes memory returndata) = target.call{value: value}(data) */\n      swap2\n      pop\n      swap2\n      pop\n        /* \"@openzeppelin/contracts/utils/Address.sol\":4989:5041  _verifyCallResult(success, returndata, errorMessage) */\n      tag_416\n        /* \"@openzeppelin/contracts/utils/Address.sol\":5007:5014  success */\n      dup3\n        /* \"@openzeppelin/contracts/utils/Address.sol\":5016:5026  returndata */\n      dup3\n        /* \"@openzeppelin/contracts/utils/Address.sol\":5028:5040  errorMessage */\n      dup7\n        /* \"@openzeppelin/contracts/utils/Address.sol\":4989:5006  _verifyCallResult */\n      tag_417\n        /* \"@openzeppelin/contracts/utils/Address.sol\":4989:5041  _verifyCallResult(success, returndata, errorMessage) */\n      jump\t// in\n    tag_416:\n        /* \"@openzeppelin/contracts/utils/Address.sol\":4982:5041  return _verifyCallResult(success, returndata, errorMessage) */\n      swap3\n      pop\n      pop\n      pop\n        /* \"@openzeppelin/contracts/utils/Address.sol\":4548:5048  function functionCallWithValue(... */\n      swap5\n      swap4\n      pop\n      pop\n      pop\n      pop\n      jump\t// out\n        /* \"@openzeppelin/contracts/utils/Address.sol\":718:1095  function isContract(address account) internal view returns (bool) {... */\n    tag_408:\n        /* \"@openzeppelin/contracts/utils/Address.sol\":778:782  bool */\n      0x00\n        /* \"@openzeppelin/contracts/utils/Address.sol\":981:993  uint256 size */\n      dup1\n        /* \"@openzeppelin/contracts/utils/Address.sol\":1046:1053  account */\n      dup3\n        /* \"@openzeppelin/contracts/utils/Address.sol\":1034:1054  extcodesize(account) */\n      extcodesize\n        /* \"@openzeppelin/contracts/utils/Address.sol\":1026:1054  size := extcodesize(account) */\n      swap1\n      pop\n        /* \"@openzeppelin/contracts/utils/Address.sol\":1087:1088  0 */\n      0x00\n        /* \"@openzeppelin/contracts/utils/Address.sol\":1080:1084  size */\n      dup2\n        /* \"@openzeppelin/contracts/utils/Address.sol\":1080:1088  size > 0 */\n      gt\n        /* \"@openzeppelin/contracts/utils/Address.sol\":1073:1088  return size > 0 */\n      swap2\n      pop\n      pop\n        /* \"@openzeppelin/contracts/utils/Address.sol\":718:1095  function isContract(address account) internal view returns (bool) {... */\n      swap2\n      swap1\n      pop\n      jump\t// out\n        /* \"@openzeppelin/contracts/utils/Address.sol\":6950:7642  function _verifyCallResult(... */\n    tag_417:\n        /* \"@openzeppelin/contracts/utils/Address.sol\":7096:7108  bytes memory */\n      0x60\n        /* \"@openzeppelin/contracts/utils/Address.sol\":7124:7131  success */\n      dup4\n        /* \"@openzeppelin/contracts/utils/Address.sol\":7120:7636  if (success) {... */\n      iszero\n      tag_420\n      jumpi\n        /* \"@openzeppelin/contracts/utils/Address.sol\":7154:7164  returndata */\n      dup3\n        /* \"@openzeppelin/contracts/utils/Address.sol\":7147:7164  return returndata */\n      swap1\n      pop\n      jump(tag_419)\n        /* \"@openzeppelin/contracts/utils/Address.sol\":7120:7636  if (success) {... */\n    tag_420:\n        /* \"@openzeppelin/contracts/utils/Address.sol\":7285:7286  0 */\n      0x00\n        /* \"@openzeppelin/contracts/utils/Address.sol\":7265:7275  returndata */\n      dup4\n        /* \"@openzeppelin/contracts/utils/Address.sol\":7265:7282  returndata.length */\n      mload\n        /* \"@openzeppelin/contracts/utils/Address.sol\":7265:7286  returndata.length > 0 */\n      gt\n        /* \"@openzeppelin/contracts/utils/Address.sol\":7261:7626  if (returndata.length > 0) {... */\n      iszero\n      tag_422\n      jumpi\n        /* \"@openzeppelin/contracts/utils/Address.sol\":7459:7469  returndata */\n      dup3\n        /* \"@openzeppelin/contracts/utils/Address.sol\":7453:7470  mload(returndata) */\n      mload\n        /* \"@openzeppelin/contracts/utils/Address.sol\":7519:7534  returndata_size */\n      dup1\n        /* \"@openzeppelin/contracts/utils/Address.sol\":7506:7516  returndata */\n      dup5\n        /* \"@openzeppelin/contracts/utils/Address.sol\":7502:7504  32 */\n      0x20\n        /* \"@openzeppelin/contracts/utils/Address.sol\":7498:7517  add(32, returndata) */\n      add\n        /* \"@openzeppelin/contracts/utils/Address.sol\":7491:7535  revert(add(32, returndata), returndata_size) */\n      revert\n        /* \"@openzeppelin/contracts/utils/Address.sol\":7261:7626  if (returndata.length > 0) {... */\n    tag_422:\n        /* \"@openzeppelin/contracts/utils/Address.sol\":7598:7610  errorMessage */\n      dup2\n        /* \"@openzeppelin/contracts/utils/Address.sol\":7591:7611  revert(errorMessage) */\n      mload(0x40)\n      0x08c379a000000000000000000000000000000000000000000000000000000000\n      dup2\n      mstore\n      0x04\n      add\n      tag_424\n      swap2\n      swap1\n      tag_425\n      jump\t// in\n    tag_424:\n      mload(0x40)\n      dup1\n      swap2\n      sub\n      swap1\n      revert\n        /* \"@openzeppelin/contracts/utils/Address.sol\":6950:7642  function _verifyCallResult(... */\n    tag_419:\n      swap4\n      swap3\n      pop\n      pop\n      pop\n      jump\t// out\n        /* \"#utility.yul\":7:146   */\n    tag_427:\n        /* \"#utility.yul\":53:58   */\n      0x00\n        /* \"#utility.yul\":91:97   */\n      dup2\n        /* \"#utility.yul\":78:98   */\n      calldataload\n        /* \"#utility.yul\":69:98   */\n      swap1\n      pop\n        /* \"#utility.yul\":107:140   */\n      tag_429\n        /* \"#utility.yul\":134:139   */\n      dup2\n        /* \"#utility.yul\":107:140   */\n      tag_430\n      jump\t// in\n    tag_429:\n        /* \"#utility.yul\":7:146   */\n      swap3\n      swap2\n      pop\n      pop\n      jump\t// out\n        /* \"#utility.yul\":152:289   */\n    tag_431:\n        /* \"#utility.yul\":206:211   */\n      0x00\n        /* \"#utility.yul\":237:243   */\n      dup2\n        /* \"#utility.yul\":231:244   */\n      mload\n        /* \"#utility.yul\":222:244   */\n      swap1\n      pop\n        /* \"#utility.yul\":253:283   */\n      tag_433\n        /* \"#utility.yul\":277:282   */\n      dup2\n        /* \"#utility.yul\":253:283   */\n      tag_434\n      jump\t// in\n    tag_433:\n        /* \"#utility.yul\":152:289   */\n      swap3\n      swap2\n      pop\n      pop\n      jump\t// out\n        /* \"#utility.yul\":295:462   */\n    tag_435:\n        /* \"#utility.yul\":355:360   */\n      0x00\n        /* \"#utility.yul\":393:399   */\n      dup2\n        /* \"#utility.yul\":380:400   */\n      calldataload\n        /* \"#utility.yul\":371:400   */\n      swap1\n      pop\n        /* \"#utility.yul\":409:456   */\n      tag_437\n        /* \"#utility.yul\":450:455   */\n      dup2\n        /* \"#utility.yul\":409:456   */\n      tag_438\n      jump\t// in\n    tag_437:\n        /* \"#utility.yul\":295:462   */\n      swap3\n      swap2\n      pop\n      pop\n      jump\t// out\n        /* \"#utility.yul\":468:607   */\n    tag_439:\n        /* \"#utility.yul\":514:519   */\n      0x00\n        /* \"#utility.yul\":552:558   */\n      dup2\n        /* \"#utility.yul\":539:559   */\n      calldataload\n        /* \"#utility.yul\":530:559   */\n      swap1\n      pop\n        /* \"#utility.yul\":568:601   */\n      tag_441\n        /* \"#utility.yul\":595:600   */\n      dup2\n        /* \"#utility.yul\":568:601   */\n      tag_442\n      jump\t// in\n    tag_441:\n        /* \"#utility.yul\":468:607   */\n      swap3\n      swap2\n      pop\n      pop\n      jump\t// out\n        /* \"#utility.yul\":613:756   */\n    tag_443:\n        /* \"#utility.yul\":670:675   */\n      0x00\n        /* \"#utility.yul\":701:707   */\n      dup2\n        /* \"#utility.yul\":695:708   */\n      mload\n        /* \"#utility.yul\":686:708   */\n      swap1\n      pop\n        /* \"#utility.yul\":717:750   */\n      tag_445\n        /* \"#utility.yul\":744:749   */\n      dup2\n        /* \"#utility.yul\":717:750   */\n      tag_442\n      jump\t// in\n    tag_445:\n        /* \"#utility.yul\":613:756   */\n      swap3\n      swap2\n      pop\n      pop\n      jump\t// out\n        /* \"#utility.yul\":762:1091   */\n    tag_71:\n        /* \"#utility.yul\":821:827   */\n      0x00\n        /* \"#utility.yul\":870:872   */\n      0x20\n        /* \"#utility.yul\":858:867   */\n      dup3\n        /* \"#utility.yul\":849:856   */\n      dup5\n        /* \"#utility.yul\":845:868   */\n      sub\n        /* \"#utility.yul\":841:873   */\n      slt\n        /* \"#utility.yul\":838:957   */\n      iszero\n      tag_447\n      jumpi\n        /* \"#utility.yul\":876:955   */\n      tag_448\n      tag_449\n      jump\t// in\n    tag_448:\n        /* \"#utility.yul\":838:957   */\n    tag_447:\n        /* \"#utility.yul\":996:997   */\n      0x00\n        /* \"#utility.yul\":1021:1074   */\n      tag_450\n        /* \"#utility.yul\":1066:1073   */\n      dup5\n        /* \"#utility.yul\":1057:1063   */\n      dup3\n        /* \"#utility.yul\":1046:1055   */\n      dup6\n        /* \"#utility.yul\":1042:1064   */\n      add\n        /* \"#utility.yul\":1021:1074   */\n      tag_427\n      jump\t// in\n    tag_450:\n        /* \"#utility.yul\":1011:1074   */\n      swap2\n      pop\n        /* \"#utility.yul\":967:1084   */\n      pop\n        /* \"#utility.yul\":762:1091   */\n      swap3\n      swap2\n      pop\n      pop\n      jump\t// out\n        /* \"#utility.yul\":1097:1442   */\n    tag_370:\n        /* \"#utility.yul\":1164:1170   */\n      0x00\n        /* \"#utility.yul\":1213:1215   */\n      0x20\n        /* \"#utility.yul\":1201:1210   */\n      dup3\n        /* \"#utility.yul\":1192:1199   */\n      dup5\n        /* \"#utility.yul\":1188:1211   */\n      sub\n        /* \"#utility.yul\":1184:1216   */\n      slt\n        /* \"#utility.yul\":1181:1300   */\n      iszero\n      tag_452\n      jumpi\n        /* \"#utility.yul\":1219:1298   */\n      tag_453\n      tag_449\n      jump\t// in\n    tag_453:\n        /* \"#utility.yul\":1181:1300   */\n    tag_452:\n        /* \"#utility.yul\":1339:1340   */\n      0x00\n        /* \"#utility.yul\":1364:1425   */\n      tag_454\n        /* \"#utility.yul\":1417:1424   */\n      dup5\n        /* \"#utility.yul\":1408:1414   */\n      dup3\n        /* \"#utility.yul\":1397:1406   */\n      dup6\n        /* \"#utility.yul\":1393:1415   */\n      add\n        /* \"#utility.yul\":1364:1425   */\n      tag_431\n      jump\t// in\n    tag_454:\n        /* \"#utility.yul\":1354:1425   */\n      swap2\n      pop\n        /* \"#utility.yul\":1310:1435   */\n      pop\n        /* \"#utility.yul\":1097:1442   */\n      swap3\n      swap2\n      pop\n      pop\n      jump\t// out\n        /* \"#utility.yul\":1448:1805   */\n    tag_160:\n        /* \"#utility.yul\":1521:1527   */\n      0x00\n        /* \"#utility.yul\":1570:1572   */\n      0x20\n        /* \"#utility.yul\":1558:1567   */\n      dup3\n        /* \"#utility.yul\":1549:1556   */\n      dup5\n        /* \"#utility.yul\":1545:1568   */\n      sub\n        /* \"#utility.yul\":1541:1573   */\n      slt\n        /* \"#utility.yul\":1538:1657   */\n      iszero\n      tag_456\n      jumpi\n        /* \"#utility.yul\":1576:1655   */\n      tag_457\n      tag_449\n      jump\t// in\n    tag_457:\n        /* \"#utility.yul\":1538:1657   */\n    tag_456:\n        /* \"#utility.yul\":1696:1697   */\n      0x00\n        /* \"#utility.yul\":1721:1788   */\n      tag_458\n        /* \"#utility.yul\":1780:1787   */\n      dup5\n        /* \"#utility.yul\":1771:1777   */\n      dup3\n        /* \"#utility.yul\":1760:1769   */\n      dup6\n        /* \"#utility.yul\":1756:1778   */\n      add\n        /* \"#utility.yul\":1721:1788   */\n      tag_435\n      jump\t// in\n    tag_458:\n        /* \"#utility.yul\":1711:1788   */\n      swap2\n      pop\n        /* \"#utility.yul\":1667:1798   */\n      pop\n        /* \"#utility.yul\":1448:1805   */\n      swap3\n      swap2\n      pop\n      pop\n      jump\t// out\n        /* \"#utility.yul\":1811:2140   */\n    tag_41:\n        /* \"#utility.yul\":1870:1876   */\n      0x00\n        /* \"#utility.yul\":1919:1921   */\n      0x20\n        /* \"#utility.yul\":1907:1916   */\n      dup3\n        /* \"#utility.yul\":1898:1905   */\n      dup5\n        /* \"#utility.yul\":1894:1917   */\n      sub\n        /* \"#utility.yul\":1890:1922   */\n      slt\n        /* \"#utility.yul\":1887:2006   */\n      iszero\n      tag_460\n      jumpi\n        /* \"#utility.yul\":1925:2004   */\n      tag_461\n      tag_449\n      jump\t// in\n    tag_461:\n        /* \"#utility.yul\":1887:2006   */\n    tag_460:\n        /* \"#utility.yul\":2045:2046   */\n      0x00\n        /* \"#utility.yul\":2070:2123   */\n      tag_462\n        /* \"#utility.yul\":2115:2122   */\n      dup5\n        /* \"#utility.yul\":2106:2112   */\n      dup3\n        /* \"#utility.yul\":2095:2104   */\n      dup6\n        /* \"#utility.yul\":2091:2113   */\n      add\n        /* \"#utility.yul\":2070:2123   */\n      tag_439\n      jump\t// in\n    tag_462:\n        /* \"#utility.yul\":2060:2123   */\n      swap2\n      pop\n        /* \"#utility.yul\":2016:2133   */\n      pop\n        /* \"#utility.yul\":1811:2140   */\n      swap3\n      swap2\n      pop\n      pop\n      jump\t// out\n        /* \"#utility.yul\":2146:2497   */\n    tag_184:\n        /* \"#utility.yul\":2216:2222   */\n      0x00\n        /* \"#utility.yul\":2265:2267   */\n      0x20\n        /* \"#utility.yul\":2253:2262   */\n      dup3\n        /* \"#utility.yul\":2244:2251   */\n      dup5\n        /* \"#utility.yul\":2240:2263   */\n      sub\n        /* \"#utility.yul\":2236:2268   */\n      slt\n        /* \"#utility.yul\":2233:2352   */\n      iszero\n      tag_464\n      jumpi\n        /* \"#utility.yul\":2271:2350   */\n      tag_465\n      tag_449\n      jump\t// in\n    tag_465:\n        /* \"#utility.yul\":2233:2352   */\n    tag_464:\n        /* \"#utility.yul\":2391:2392   */\n      0x00\n        /* \"#utility.yul\":2416:2480   */\n      tag_466\n        /* \"#utility.yul\":2472:2479   */\n      dup5\n        /* \"#utility.yul\":2463:2469   */\n      dup3\n        /* \"#utility.yul\":2452:2461   */\n      dup6\n        /* \"#utility.yul\":2448:2470   */\n      add\n        /* \"#utility.yul\":2416:2480   */\n      tag_443\n      jump\t// in\n    tag_466:\n        /* \"#utility.yul\":2406:2480   */\n      swap2\n      pop\n        /* \"#utility.yul\":2362:2490   */\n      pop\n        /* \"#utility.yul\":2146:2497   */\n      swap3\n      swap2\n      pop\n      pop\n      jump\t// out\n        /* \"#utility.yul\":2503:2621   */\n    tag_467:\n        /* \"#utility.yul\":2590:2614   */\n      tag_469\n        /* \"#utility.yul\":2608:2613   */\n      dup2\n        /* \"#utility.yul\":2590:2614   */\n      tag_470\n      jump\t// in\n    tag_469:\n        /* \"#utility.yul\":2585:2588   */\n      dup3\n        /* \"#utility.yul\":2578:2615   */\n      mstore\n        /* \"#utility.yul\":2503:2621   */\n      pop\n      pop\n      jump\t// out\n        /* \"#utility.yul\":2627:2736   */\n    tag_471:\n        /* \"#utility.yul\":2708:2729   */\n      tag_473\n        /* \"#utility.yul\":2723:2728   */\n      dup2\n        /* \"#utility.yul\":2708:2729   */\n      tag_474\n      jump\t// in\n    tag_473:\n        /* \"#utility.yul\":2703:2706   */\n      dup3\n        /* \"#utility.yul\":2696:2730   */\n      mstore\n        /* \"#utility.yul\":2627:2736   */\n      pop\n      pop\n      jump\t// out\n        /* \"#utility.yul\":2742:3115   */\n    tag_475:\n        /* \"#utility.yul\":2846:2849   */\n      0x00\n        /* \"#utility.yul\":2874:2912   */\n      tag_477\n        /* \"#utility.yul\":2906:2911   */\n      dup3\n        /* \"#utility.yul\":2874:2912   */\n      tag_478\n      jump\t// in\n    tag_477:\n        /* \"#utility.yul\":2928:3016   */\n      tag_479\n        /* \"#utility.yul\":3009:3015   */\n      dup2\n        /* \"#utility.yul\":3004:3007   */\n      dup6\n        /* \"#utility.yul\":2928:3016   */\n      tag_480\n      jump\t// in\n    tag_479:\n        /* \"#utility.yul\":2921:3016   */\n      swap4\n      pop\n        /* \"#utility.yul\":3025:3077   */\n      tag_481\n        /* \"#utility.yul\":3070:3076   */\n      dup2\n        /* \"#utility.yul\":3065:3068   */\n      dup6\n        /* \"#utility.yul\":3058:3062   */\n      0x20\n        /* \"#utility.yul\":3051:3056   */\n      dup7\n        /* \"#utility.yul\":3047:3063   */\n      add\n        /* \"#utility.yul\":3025:3077   */\n      tag_482\n      jump\t// in\n    tag_481:\n        /* \"#utility.yul\":3102:3108   */\n      dup1\n        /* \"#utility.yul\":3097:3100   */\n      dup5\n        /* \"#utility.yul\":3093:3109   */\n      add\n        /* \"#utility.yul\":3086:3109   */\n      swap2\n      pop\n        /* \"#utility.yul\":2850:3115   */\n      pop\n        /* \"#utility.yul\":2742:3115   */\n      swap3\n      swap2\n      pop\n      pop\n      jump\t// out\n        /* \"#utility.yul\":3121:3280   */\n    tag_483:\n        /* \"#utility.yul\":3222:3273   */\n      tag_485\n        /* \"#utility.yul\":3267:3272   */\n      dup2\n        /* \"#utility.yul\":3222:3273   */\n      tag_486\n      jump\t// in\n    tag_485:\n        /* \"#utility.yul\":3217:3220   */\n      dup3\n        /* \"#utility.yul\":3210:3274   */\n      mstore\n        /* \"#utility.yul\":3121:3280   */\n      pop\n      pop\n      jump\t// out\n        /* \"#utility.yul\":3286:3650   */\n    tag_487:\n        /* \"#utility.yul\":3374:3377   */\n      0x00\n        /* \"#utility.yul\":3402:3441   */\n      tag_489\n        /* \"#utility.yul\":3435:3440   */\n      dup3\n        /* \"#utility.yul\":3402:3441   */\n      tag_490\n      jump\t// in\n    tag_489:\n        /* \"#utility.yul\":3457:3528   */\n      tag_491\n        /* \"#utility.yul\":3521:3527   */\n      dup2\n        /* \"#utility.yul\":3516:3519   */\n      dup6\n        /* \"#utility.yul\":3457:3528   */\n      tag_492\n      jump\t// in\n    tag_491:\n        /* \"#utility.yul\":3450:3528   */\n      swap4\n      pop\n        /* \"#utility.yul\":3537:3589   */\n      tag_493\n        /* \"#utility.yul\":3582:3588   */\n      dup2\n        /* \"#utility.yul\":3577:3580   */\n      dup6\n        /* \"#utility.yul\":3570:3574   */\n      0x20\n        /* \"#utility.yul\":3563:3568   */\n      dup7\n        /* \"#utility.yul\":3559:3575   */\n      add\n        /* \"#utility.yul\":3537:3589   */\n      tag_482\n      jump\t// in\n    tag_493:\n        /* \"#utility.yul\":3614:3643   */\n      tag_494\n        /* \"#utility.yul\":3636:3642   */\n      dup2\n        /* \"#utility.yul\":3614:3643   */\n      tag_495\n      jump\t// in\n    tag_494:\n        /* \"#utility.yul\":3609:3612   */\n      dup5\n        /* \"#utility.yul\":3605:3644   */\n      add\n        /* \"#utility.yul\":3598:3644   */\n      swap2\n      pop\n        /* \"#utility.yul\":3378:3650   */\n      pop\n        /* \"#utility.yul\":3286:3650   */\n      swap3\n      swap2\n      pop\n      pop\n      jump\t// out\n        /* \"#utility.yul\":3656:4022   */\n    tag_496:\n        /* \"#utility.yul\":3798:3801   */\n      0x00\n        /* \"#utility.yul\":3819:3886   */\n      tag_498\n        /* \"#utility.yul\":3883:3885   */\n      0x35\n        /* \"#utility.yul\":3878:3881   */\n      dup4\n        /* \"#utility.yul\":3819:3886   */\n      tag_492\n      jump\t// in\n    tag_498:\n        /* \"#utility.yul\":3812:3886   */\n      swap2\n      pop\n        /* \"#utility.yul\":3895:3988   */\n      tag_499\n        /* \"#utility.yul\":3984:3987   */\n      dup3\n        /* \"#utility.yul\":3895:3988   */\n      tag_500\n      jump\t// in\n    tag_499:\n        /* \"#utility.yul\":4013:4015   */\n      0x40\n        /* \"#utility.yul\":4008:4011   */\n      dup3\n        /* \"#utility.yul\":4004:4016   */\n      add\n        /* \"#utility.yul\":3997:4016   */\n      swap1\n      pop\n        /* \"#utility.yul\":3656:4022   */\n      swap2\n      swap1\n      pop\n      jump\t// out\n        /* \"#utility.yul\":4028:4394   */\n    tag_501:\n        /* \"#utility.yul\":4170:4173   */\n      0x00\n        /* \"#utility.yul\":4191:4258   */\n      tag_503\n        /* \"#utility.yul\":4255:4257   */\n      0x26\n        /* \"#utility.yul\":4250:4253   */\n      dup4\n        /* \"#utility.yul\":4191:4258   */\n      tag_492\n      jump\t// in\n    tag_503:\n        /* \"#utility.yul\":4184:4258   */\n      swap2\n      pop\n        /* \"#utility.yul\":4267:4360   */\n      tag_504\n        /* \"#utility.yul\":4356:4359   */\n      dup3\n        /* \"#utility.yul\":4267:4360   */\n      tag_505\n      jump\t// in\n    tag_504:\n        /* \"#utility.yul\":4385:4387   */\n      0x40\n        /* \"#utility.yul\":4380:4383   */\n      dup3\n        /* \"#utility.yul\":4376:4388   */\n      add\n        /* \"#utility.yul\":4369:4388   */\n      swap1\n      pop\n        /* \"#utility.yul\":4028:4394   */\n      swap2\n      swap1\n      pop\n      jump\t// out\n        /* \"#utility.yul\":4400:4766   */\n    tag_506:\n        /* \"#utility.yul\":4542:4545   */\n      0x00\n        /* \"#utility.yul\":4563:4630   */\n      tag_508\n        /* \"#utility.yul\":4627:4629   */\n      0x39\n        /* \"#utility.yul\":4622:4625   */\n      dup4\n        /* \"#utility.yul\":4563:4630   */\n      tag_492\n      jump\t// in\n    tag_508:\n        /* \"#utility.yul\":4556:4630   */\n      swap2\n      pop\n        /* \"#utility.yul\":4639:4732   */\n      tag_509\n        /* \"#utility.yul\":4728:4731   */\n      dup3\n        /* \"#utility.yul\":4639:4732   */\n      tag_510\n      jump\t// in\n    tag_509:\n        /* \"#utility.yul\":4757:4759   */\n      0x40\n        /* \"#utility.yul\":4752:4755   */\n      dup3\n        /* \"#utility.yul\":4748:4760   */\n      add\n        /* \"#utility.yul\":4741:4760   */\n      swap1\n      pop\n        /* \"#utility.yul\":4400:4766   */\n      swap2\n      swap1\n      pop\n      jump\t// out\n        /* \"#utility.yul\":4772:5138   */\n    tag_511:\n        /* \"#utility.yul\":4914:4917   */\n      0x00\n        /* \"#utility.yul\":4935:5002   */\n      tag_513\n        /* \"#utility.yul\":4999:5001   */\n      0x34\n        /* \"#utility.yul\":4994:4997   */\n      dup4\n        /* \"#utility.yul\":4935:5002   */\n      tag_492\n      jump\t// in\n    tag_513:\n        /* \"#utility.yul\":4928:5002   */\n      swap2\n      pop\n        /* \"#utility.yul\":5011:5104   */\n      tag_514\n        /* \"#utility.yul\":5100:5103   */\n      dup3\n        /* \"#utility.yul\":5011:5104   */\n      tag_515\n      jump\t// in\n    tag_514:\n        /* \"#utility.yul\":5129:5131   */\n      0x40\n        /* \"#utility.yul\":5124:5127   */\n      dup3\n        /* \"#utility.yul\":5120:5132   */\n      add\n        /* \"#utility.yul\":5113:5132   */\n      swap1\n      pop\n        /* \"#utility.yul\":4772:5138   */\n      swap2\n      swap1\n      pop\n      jump\t// out\n        /* \"#utility.yul\":5144:5510   */\n    tag_516:\n        /* \"#utility.yul\":5286:5289   */\n      0x00\n        /* \"#utility.yul\":5307:5374   */\n      tag_518\n        /* \"#utility.yul\":5371:5373   */\n      0x29\n        /* \"#utility.yul\":5366:5369   */\n      dup4\n        /* \"#utility.yul\":5307:5374   */\n      tag_492\n      jump\t// in\n    tag_518:\n        /* \"#utility.yul\":5300:5374   */\n      swap2\n      pop\n        /* \"#utility.yul\":5383:5476   */\n      tag_519\n        /* \"#utility.yul\":5472:5475   */\n      dup3\n        /* \"#utility.yul\":5383:5476   */\n      tag_520\n      jump\t// in\n    tag_519:\n        /* \"#utility.yul\":5501:5503   */\n      0x40\n        /* \"#utility.yul\":5496:5499   */\n      dup3\n        /* \"#utility.yul\":5492:5504   */\n      add\n        /* \"#utility.yul\":5485:5504   */\n      swap1\n      pop\n        /* \"#utility.yul\":5144:5510   */\n      swap2\n      swap1\n      pop\n      jump\t// out\n        /* \"#utility.yul\":5516:5882   */\n    tag_521:\n        /* \"#utility.yul\":5658:5661   */\n      0x00\n        /* \"#utility.yul\":5679:5746   */\n      tag_523\n        /* \"#utility.yul\":5743:5745   */\n      0x3c\n        /* \"#utility.yul\":5738:5741   */\n      dup4\n        /* \"#utility.yul\":5679:5746   */\n      tag_492\n      jump\t// in\n    tag_523:\n        /* \"#utility.yul\":5672:5746   */\n      swap2\n      pop\n        /* \"#utility.yul\":5755:5848   */\n      tag_524\n        /* \"#utility.yul\":5844:5847   */\n      dup3\n        /* \"#utility.yul\":5755:5848   */\n      tag_525\n      jump\t// in\n    tag_524:\n        /* \"#utility.yul\":5873:5875   */\n      0x40\n        /* \"#utility.yul\":5868:5871   */\n      dup3\n        /* \"#utility.yul\":5864:5876   */\n      add\n        /* \"#utility.yul\":5857:5876   */\n      swap1\n      pop\n        /* \"#utility.yul\":5516:5882   */\n      swap2\n      swap1\n      pop\n      jump\t// out\n        /* \"#utility.yul\":5888:6254   */\n    tag_526:\n        /* \"#utility.yul\":6030:6033   */\n      0x00\n        /* \"#utility.yul\":6051:6118   */\n      tag_528\n        /* \"#utility.yul\":6115:6117   */\n      0x26\n        /* \"#utility.yul\":6110:6113   */\n      dup4\n        /* \"#utility.yul\":6051:6118   */\n      tag_492\n      jump\t// in\n    tag_528:\n        /* \"#utility.yul\":6044:6118   */\n      swap2\n      pop\n        /* \"#utility.yul\":6127:6220   */\n      tag_529\n        /* \"#utility.yul\":6216:6219   */\n      dup3\n        /* \"#utility.yul\":6127:6220   */\n      tag_530\n      jump\t// in\n    tag_529:\n        /* \"#utility.yul\":6245:6247   */\n      0x40\n        /* \"#utility.yul\":6240:6243   */\n      dup3\n        /* \"#utility.yul\":6236:6248   */\n      add\n        /* \"#utility.yul\":6229:6248   */\n      swap1\n      pop\n        /* \"#utility.yul\":5888:6254   */\n      swap2\n      swap1\n      pop\n      jump\t// out\n        /* \"#utility.yul\":6260:6626   */\n    tag_531:\n        /* \"#utility.yul\":6402:6405   */\n      0x00\n        /* \"#utility.yul\":6423:6490   */\n      tag_533\n        /* \"#utility.yul\":6487:6489   */\n      0x31\n        /* \"#utility.yul\":6482:6485   */\n      dup4\n        /* \"#utility.yul\":6423:6490   */\n      tag_492\n      jump\t// in\n    tag_533:\n        /* \"#utility.yul\":6416:6490   */\n      swap2\n      pop\n        /* \"#utility.yul\":6499:6592   */\n      tag_534\n        /* \"#utility.yul\":6588:6591   */\n      dup3\n        /* \"#utility.yul\":6499:6592   */\n      tag_535\n      jump\t// in\n    tag_534:\n        /* \"#utility.yul\":6617:6619   */\n      0x40\n        /* \"#utility.yul\":6612:6615   */\n      dup3\n        /* \"#utility.yul\":6608:6620   */\n      add\n        /* \"#utility.yul\":6601:6620   */\n      swap1\n      pop\n        /* \"#utility.yul\":6260:6626   */\n      swap2\n      swap1\n      pop\n      jump\t// out\n        /* \"#utility.yul\":6632:6998   */\n    tag_536:\n        /* \"#utility.yul\":6774:6777   */\n      0x00\n        /* \"#utility.yul\":6795:6862   */\n      tag_538\n        /* \"#utility.yul\":6859:6861   */\n      0x46\n        /* \"#utility.yul\":6854:6857   */\n      dup4\n        /* \"#utility.yul\":6795:6862   */\n      tag_492\n      jump\t// in\n    tag_538:\n        /* \"#utility.yul\":6788:6862   */\n      swap2\n      pop\n        /* \"#utility.yul\":6871:6964   */\n      tag_539\n        /* \"#utility.yul\":6960:6963   */\n      dup3\n        /* \"#utility.yul\":6871:6964   */\n      tag_540\n      jump\t// in\n    tag_539:\n        /* \"#utility.yul\":6989:6991   */\n      0x60\n        /* \"#utility.yul\":6984:6987   */\n      dup3\n        /* \"#utility.yul\":6980:6992   */\n      add\n        /* \"#utility.yul\":6973:6992   */\n      swap1\n      pop\n        /* \"#utility.yul\":6632:6998   */\n      swap2\n      swap1\n      pop\n      jump\t// out\n        /* \"#utility.yul\":7004:7370   */\n    tag_541:\n        /* \"#utility.yul\":7146:7149   */\n      0x00\n        /* \"#utility.yul\":7167:7234   */\n      tag_543\n        /* \"#utility.yul\":7231:7233   */\n      0x5d\n        /* \"#utility.yul\":7226:7229   */\n      dup4\n        /* \"#utility.yul\":7167:7234   */\n      tag_492\n      jump\t// in\n    tag_543:\n        /* \"#utility.yul\":7160:7234   */\n      swap2\n      pop\n        /* \"#utility.yul\":7243:7336   */\n      tag_544\n        /* \"#utility.yul\":7332:7335   */\n      dup3\n        /* \"#utility.yul\":7243:7336   */\n      tag_545\n      jump\t// in\n    tag_544:\n        /* \"#utility.yul\":7361:7363   */\n      0x60\n        /* \"#utility.yul\":7356:7359   */\n      dup3\n        /* \"#utility.yul\":7352:7364   */\n      add\n        /* \"#utility.yul\":7345:7364   */\n      swap1\n      pop\n        /* \"#utility.yul\":7004:7370   */\n      swap2\n      swap1\n      pop\n      jump\t// out\n        /* \"#utility.yul\":7376:7744   */\n    tag_546:\n        /* \"#utility.yul\":7518:7521   */\n      0x00\n        /* \"#utility.yul\":7539:7607   */\n      tag_548\n        /* \"#utility.yul\":7603:7606   */\n      0x77\n        /* \"#utility.yul\":7598:7601   */\n      dup4\n        /* \"#utility.yul\":7539:7607   */\n      tag_492\n      jump\t// in\n    tag_548:\n        /* \"#utility.yul\":7532:7607   */\n      swap2\n      pop\n        /* \"#utility.yul\":7616:7709   */\n      tag_549\n        /* \"#utility.yul\":7705:7708   */\n      dup3\n        /* \"#utility.yul\":7616:7709   */\n      tag_550\n      jump\t// in\n    tag_549:\n        /* \"#utility.yul\":7734:7737   */\n      0x80\n        /* \"#utility.yul\":7729:7732   */\n      dup3\n        /* \"#utility.yul\":7725:7738   */\n      add\n        /* \"#utility.yul\":7718:7738   */\n      swap1\n      pop\n        /* \"#utility.yul\":7376:7744   */\n      swap2\n      swap1\n      pop\n      jump\t// out\n        /* \"#utility.yul\":7750:8116   */\n    tag_551:\n        /* \"#utility.yul\":7892:7895   */\n      0x00\n        /* \"#utility.yul\":7913:7980   */\n      tag_553\n        /* \"#utility.yul\":7977:7979   */\n      0x20\n        /* \"#utility.yul\":7972:7975   */\n      dup4\n        /* \"#utility.yul\":7913:7980   */\n      tag_492\n      jump\t// in\n    tag_553:\n        /* \"#utility.yul\":7906:7980   */\n      swap2\n      pop\n        /* \"#utility.yul\":7989:8082   */\n      tag_554\n        /* \"#utility.yul\":8078:8081   */\n      dup3\n        /* \"#utility.yul\":7989:8082   */\n      tag_555\n      jump\t// in\n    tag_554:\n        /* \"#utility.yul\":8107:8109   */\n      0x20\n        /* \"#utility.yul\":8102:8105   */\n      dup3\n        /* \"#utility.yul\":8098:8110   */\n      add\n        /* \"#utility.yul\":8091:8110   */\n      swap1\n      pop\n        /* \"#utility.yul\":7750:8116   */\n      swap2\n      swap1\n      pop\n      jump\t// out\n        /* \"#utility.yul\":8122:8488   */\n    tag_556:\n        /* \"#utility.yul\":8264:8267   */\n      0x00\n        /* \"#utility.yul\":8285:8352   */\n      tag_558\n        /* \"#utility.yul\":8349:8351   */\n      0x35\n        /* \"#utility.yul\":8344:8347   */\n      dup4\n        /* \"#utility.yul\":8285:8352   */\n      tag_492\n      jump\t// in\n    tag_558:\n        /* \"#utility.yul\":8278:8352   */\n      swap2\n      pop\n        /* \"#utility.yul\":8361:8454   */\n      tag_559\n        /* \"#utility.yul\":8450:8453   */\n      dup3\n        /* \"#utility.yul\":8361:8454   */\n      tag_560\n      jump\t// in\n    tag_559:\n        /* \"#utility.yul\":8479:8481   */\n      0x40\n        /* \"#utility.yul\":8474:8477   */\n      dup3\n        /* \"#utility.yul\":8470:8482   */\n      add\n        /* \"#utility.yul\":8463:8482   */\n      swap1\n      pop\n        /* \"#utility.yul\":8122:8488   */\n      swap2\n      swap1\n      pop\n      jump\t// out\n        /* \"#utility.yul\":8494:8860   */\n    tag_561:\n        /* \"#utility.yul\":8636:8639   */\n      0x00\n        /* \"#utility.yul\":8657:8724   */\n      tag_563\n        /* \"#utility.yul\":8721:8723   */\n      0x1d\n        /* \"#utility.yul\":8716:8719   */\n      dup4\n        /* \"#utility.yul\":8657:8724   */\n      tag_492\n      jump\t// in\n    tag_563:\n        /* \"#utility.yul\":8650:8724   */\n      swap2\n      pop\n        /* \"#utility.yul\":8733:8826   */\n      tag_564\n        /* \"#utility.yul\":8822:8825   */\n      dup3\n        /* \"#utility.yul\":8733:8826   */\n      tag_565\n      jump\t// in\n    tag_564:\n        /* \"#utility.yul\":8851:8853   */\n      0x20\n        /* \"#utility.yul\":8846:8849   */\n      dup3\n        /* \"#utility.yul\":8842:8854   */\n      add\n        /* \"#utility.yul\":8835:8854   */\n      swap1\n      pop\n        /* \"#utility.yul\":8494:8860   */\n      swap2\n      swap1\n      pop\n      jump\t// out\n        /* \"#utility.yul\":8866:9232   */\n    tag_566:\n        /* \"#utility.yul\":9008:9011   */\n      0x00\n        /* \"#utility.yul\":9029:9096   */\n      tag_568\n        /* \"#utility.yul\":9093:9095   */\n      0x23\n        /* \"#utility.yul\":9088:9091   */\n      dup4\n        /* \"#utility.yul\":9029:9096   */\n      tag_492\n      jump\t// in\n    tag_568:\n        /* \"#utility.yul\":9022:9096   */\n      swap2\n      pop\n        /* \"#utility.yul\":9105:9198   */\n      tag_569\n        /* \"#utility.yul\":9194:9197   */\n      dup3\n        /* \"#utility.yul\":9105:9198   */\n      tag_570\n      jump\t// in\n    tag_569:\n        /* \"#utility.yul\":9223:9225   */\n      0x40\n        /* \"#utility.yul\":9218:9221   */\n      dup3\n        /* \"#utility.yul\":9214:9226   */\n      add\n        /* \"#utility.yul\":9207:9226   */\n      swap1\n      pop\n        /* \"#utility.yul\":8866:9232   */\n      swap2\n      swap1\n      pop\n      jump\t// out\n        /* \"#utility.yul\":9238:9604   */\n    tag_571:\n        /* \"#utility.yul\":9380:9383   */\n      0x00\n        /* \"#utility.yul\":9401:9468   */\n      tag_573\n        /* \"#utility.yul\":9465:9467   */\n      0x2d\n        /* \"#utility.yul\":9460:9463   */\n      dup4\n        /* \"#utility.yul\":9401:9468   */\n      tag_492\n      jump\t// in\n    tag_573:\n        /* \"#utility.yul\":9394:9468   */\n      swap2\n      pop\n        /* \"#utility.yul\":9477:9570   */\n      tag_574\n        /* \"#utility.yul\":9566:9569   */\n      dup3\n        /* \"#utility.yul\":9477:9570   */\n      tag_575\n      jump\t// in\n    tag_574:\n        /* \"#utility.yul\":9595:9597   */\n      0x40\n        /* \"#utility.yul\":9590:9593   */\n      dup3\n        /* \"#utility.yul\":9586:9598   */\n      add\n        /* \"#utility.yul\":9579:9598   */\n      swap1\n      pop\n        /* \"#utility.yul\":9238:9604   */\n      swap2\n      swap1\n      pop\n      jump\t// out\n        /* \"#utility.yul\":9610:9976   */\n    tag_576:\n        /* \"#utility.yul\":9752:9755   */\n      0x00\n        /* \"#utility.yul\":9773:9840   */\n      tag_578\n        /* \"#utility.yul\":9837:9839   */\n      0x2a\n        /* \"#utility.yul\":9832:9835   */\n      dup4\n        /* \"#utility.yul\":9773:9840   */\n      tag_492\n      jump\t// in\n    tag_578:\n        /* \"#utility.yul\":9766:9840   */\n      swap2\n      pop\n        /* \"#utility.yul\":9849:9942   */\n      tag_579\n        /* \"#utility.yul\":9938:9941   */\n      dup3\n        /* \"#utility.yul\":9849:9942   */\n      tag_580\n      jump\t// in\n    tag_579:\n        /* \"#utility.yul\":9967:9969   */\n      0x40\n        /* \"#utility.yul\":9962:9965   */\n      dup3\n        /* \"#utility.yul\":9958:9970   */\n      add\n        /* \"#utility.yul\":9951:9970   */\n      swap1\n      pop\n        /* \"#utility.yul\":9610:9976   */\n      swap2\n      swap1\n      pop\n      jump\t// out\n        /* \"#utility.yul\":9982:10348   */\n    tag_581:\n        /* \"#utility.yul\":10124:10127   */\n      0x00\n        /* \"#utility.yul\":10145:10212   */\n      tag_583\n        /* \"#utility.yul\":10209:10211   */\n      0x2a\n        /* \"#utility.yul\":10204:10207   */\n      dup4\n        /* \"#utility.yul\":10145:10212   */\n      tag_492\n      jump\t// in\n    tag_583:\n        /* \"#utility.yul\":10138:10212   */\n      swap2\n      pop\n        /* \"#utility.yul\":10221:10314   */\n      tag_584\n        /* \"#utility.yul\":10310:10313   */\n      dup3\n        /* \"#utility.yul\":10221:10314   */\n      tag_585\n      jump\t// in\n    tag_584:\n        /* \"#utility.yul\":10339:10341   */\n      0x40\n        /* \"#utility.yul\":10334:10337   */\n      dup3\n        /* \"#utility.yul\":10330:10342   */\n      add\n        /* \"#utility.yul\":10323:10342   */\n      swap1\n      pop\n        /* \"#utility.yul\":9982:10348   */\n      swap2\n      swap1\n      pop\n      jump\t// out\n        /* \"#utility.yul\":10354:10720   */\n    tag_586:\n        /* \"#utility.yul\":10496:10499   */\n      0x00\n        /* \"#utility.yul\":10517:10584   */\n      tag_588\n        /* \"#utility.yul\":10581:10583   */\n      0x26\n        /* \"#utility.yul\":10576:10579   */\n      dup4\n        /* \"#utility.yul\":10517:10584   */\n      tag_492\n      jump\t// in\n    tag_588:\n        /* \"#utility.yul\":10510:10584   */\n      swap2\n      pop\n        /* \"#utility.yul\":10593:10686   */\n      tag_589\n        /* \"#utility.yul\":10682:10685   */\n      dup3\n        /* \"#utility.yul\":10593:10686   */\n      tag_590\n      jump\t// in\n    tag_589:\n        /* \"#utility.yul\":10711:10713   */\n      0x40\n        /* \"#utility.yul\":10706:10709   */\n      dup3\n        /* \"#utility.yul\":10702:10714   */\n      add\n        /* \"#utility.yul\":10695:10714   */\n      swap1\n      pop\n        /* \"#utility.yul\":10354:10720   */\n      swap2\n      swap1\n      pop\n      jump\t// out\n        /* \"#utility.yul\":10726:11092   */\n    tag_591:\n        /* \"#utility.yul\":10868:10871   */\n      0x00\n        /* \"#utility.yul\":10889:10956   */\n      tag_593\n        /* \"#utility.yul\":10953:10955   */\n      0x1f\n        /* \"#utility.yul\":10948:10951   */\n      dup4\n        /* \"#utility.yul\":10889:10956   */\n      tag_492\n      jump\t// in\n    tag_593:\n        /* \"#utility.yul\":10882:10956   */\n      swap2\n      pop\n        /* \"#utility.yul\":10965:11058   */\n      tag_594\n        /* \"#utility.yul\":11054:11057   */\n      dup3\n        /* \"#utility.yul\":10965:11058   */\n      tag_595\n      jump\t// in\n    tag_594:\n        /* \"#utility.yul\":11083:11085   */\n      0x20\n        /* \"#utility.yul\":11078:11081   */\n      dup3\n        /* \"#utility.yul\":11074:11086   */\n      add\n        /* \"#utility.yul\":11067:11086   */\n      swap1\n      pop\n        /* \"#utility.yul\":10726:11092   */\n      swap2\n      swap1\n      pop\n      jump\t// out\n        /* \"#utility.yul\":11098:11464   */\n    tag_596:\n        /* \"#utility.yul\":11240:11243   */\n      0x00\n        /* \"#utility.yul\":11261:11328   */\n      tag_598\n        /* \"#utility.yul\":11325:11327   */\n      0x34\n        /* \"#utility.yul\":11320:11323   */\n      dup4\n        /* \"#utility.yul\":11261:11328   */\n      tag_492\n      jump\t// in\n    tag_598:\n        /* \"#utility.yul\":11254:11328   */\n      swap2\n      pop\n        /* \"#utility.yul\":11337:11430   */\n      tag_599\n        /* \"#utility.yul\":11426:11429   */\n      dup3\n        /* \"#utility.yul\":11337:11430   */\n      tag_600\n      jump\t// in\n    tag_599:\n        /* \"#utility.yul\":11455:11457   */\n      0x40\n        /* \"#utility.yul\":11450:11453   */\n      dup3\n        /* \"#utility.yul\":11446:11458   */\n      add\n        /* \"#utility.yul\":11439:11458   */\n      swap1\n      pop\n        /* \"#utility.yul\":11098:11464   */\n      swap2\n      swap1\n      pop\n      jump\t// out\n        /* \"#utility.yul\":11470:11588   */\n    tag_601:\n        /* \"#utility.yul\":11557:11581   */\n      tag_603\n        /* \"#utility.yul\":11575:11580   */\n      dup2\n        /* \"#utility.yul\":11557:11581   */\n      tag_604\n      jump\t// in\n    tag_603:\n        /* \"#utility.yul\":11552:11555   */\n      dup3\n        /* \"#utility.yul\":11545:11582   */\n      mstore\n        /* \"#utility.yul\":11470:11588   */\n      pop\n      pop\n      jump\t// out\n        /* \"#utility.yul\":11594:11865   */\n    tag_363:\n        /* \"#utility.yul\":11724:11727   */\n      0x00\n        /* \"#utility.yul\":11746:11839   */\n      tag_606\n        /* \"#utility.yul\":11835:11838   */\n      dup3\n        /* \"#utility.yul\":11826:11832   */\n      dup5\n        /* \"#utility.yul\":11746:11839   */\n      tag_475\n      jump\t// in\n    tag_606:\n        /* \"#utility.yul\":11739:11839   */\n      swap2\n      pop\n        /* \"#utility.yul\":11856:11859   */\n      dup2\n        /* \"#utility.yul\":11849:11859   */\n      swap1\n      pop\n        /* \"#utility.yul\":11594:11865   */\n      swap3\n      swap2\n      pop\n      pop\n      jump\t// out\n        /* \"#utility.yul\":11871:12093   */\n    tag_90:\n        /* \"#utility.yul\":11964:11968   */\n      0x00\n        /* \"#utility.yul\":12002:12004   */\n      0x20\n        /* \"#utility.yul\":11991:12000   */\n      dup3\n        /* \"#utility.yul\":11987:12005   */\n      add\n        /* \"#utility.yul\":11979:12005   */\n      swap1\n      pop\n        /* \"#utility.yul\":12015:12086   */\n      tag_608\n        /* \"#utility.yul\":12083:12084   */\n      0x00\n        /* \"#utility.yul\":12072:12081   */\n      dup4\n        /* \"#utility.yul\":12068:12085   */\n      add\n        /* \"#utility.yul\":12059:12065   */\n      dup5\n        /* \"#utility.yul\":12015:12086   */\n      tag_467\n      jump\t// in\n    tag_608:\n        /* \"#utility.yul\":11871:12093   */\n      swap3\n      swap2\n      pop\n      pop\n      jump\t// out\n        /* \"#utility.yul\":12099:12541   */\n    tag_390:\n        /* \"#utility.yul\":12248:12252   */\n      0x00\n        /* \"#utility.yul\":12286:12288   */\n      0x60\n        /* \"#utility.yul\":12275:12284   */\n      dup3\n        /* \"#utility.yul\":12271:12289   */\n      add\n        /* \"#utility.yul\":12263:12289   */\n      swap1\n      pop\n        /* \"#utility.yul\":12299:12370   */\n      tag_610\n        /* \"#utility.yul\":12367:12368   */\n      0x00\n        /* \"#utility.yul\":12356:12365   */\n      dup4\n        /* \"#utility.yul\":12352:12369   */\n      add\n        /* \"#utility.yul\":12343:12349   */\n      dup7\n        /* \"#utility.yul\":12299:12370   */\n      tag_467\n      jump\t// in\n    tag_610:\n        /* \"#utility.yul\":12380:12452   */\n      tag_611\n        /* \"#utility.yul\":12448:12450   */\n      0x20\n        /* \"#utility.yul\":12437:12446   */\n      dup4\n        /* \"#utility.yul\":12433:12451   */\n      add\n        /* \"#utility.yul\":12424:12430   */\n      dup6\n        /* \"#utility.yul\":12380:12452   */\n      tag_467\n      jump\t// in\n    tag_611:\n        /* \"#utility.yul\":12462:12534   */\n      tag_612\n        /* \"#utility.yul\":12530:12532   */\n      0x40\n        /* \"#utility.yul\":12519:12528   */\n      dup4\n        /* \"#utility.yul\":12515:12533   */\n      add\n        /* \"#utility.yul\":12506:12512   */\n      dup5\n        /* \"#utility.yul\":12462:12534   */\n      tag_601\n      jump\t// in\n    tag_612:\n        /* \"#utility.yul\":12099:12541   */\n      swap5\n      swap4\n      pop\n      pop\n      pop\n      pop\n      jump\t// out\n        /* \"#utility.yul\":12547:12879   */\n    tag_361:\n        /* \"#utility.yul\":12668:12672   */\n      0x00\n        /* \"#utility.yul\":12706:12708   */\n      0x40\n        /* \"#utility.yul\":12695:12704   */\n      dup3\n        /* \"#utility.yul\":12691:12709   */\n      add\n        /* \"#utility.yul\":12683:12709   */\n      swap1\n      pop\n        /* \"#utility.yul\":12719:12790   */\n      tag_614\n        /* \"#utility.yul\":12787:12788   */\n      0x00\n        /* \"#utility.yul\":12776:12785   */\n      dup4\n        /* \"#utility.yul\":12772:12789   */\n      add\n        /* \"#utility.yul\":12763:12769   */\n      dup6\n        /* \"#utility.yul\":12719:12790   */\n      tag_467\n      jump\t// in\n    tag_614:\n        /* \"#utility.yul\":12800:12872   */\n      tag_615\n        /* \"#utility.yul\":12868:12870   */\n      0x20\n        /* \"#utility.yul\":12857:12866   */\n      dup4\n        /* \"#utility.yul\":12853:12871   */\n      add\n        /* \"#utility.yul\":12844:12850   */\n      dup5\n        /* \"#utility.yul\":12800:12872   */\n      tag_601\n      jump\t// in\n    tag_615:\n        /* \"#utility.yul\":12547:12879   */\n      swap4\n      swap3\n      pop\n      pop\n      pop\n      jump\t// out\n        /* \"#utility.yul\":12885:13095   */\n    tag_85:\n        /* \"#utility.yul\":12972:12976   */\n      0x00\n        /* \"#utility.yul\":13010:13012   */\n      0x20\n        /* \"#utility.yul\":12999:13008   */\n      dup3\n        /* \"#utility.yul\":12995:13013   */\n      add\n        /* \"#utility.yul\":12987:13013   */\n      swap1\n      pop\n        /* \"#utility.yul\":13023:13088   */\n      tag_617\n        /* \"#utility.yul\":13085:13086   */\n      0x00\n        /* \"#utility.yul\":13074:13083   */\n      dup4\n        /* \"#utility.yul\":13070:13087   */\n      add\n        /* \"#utility.yul\":13061:13067   */\n      dup5\n        /* \"#utility.yul\":13023:13088   */\n      tag_471\n      jump\t// in\n    tag_617:\n        /* \"#utility.yul\":12885:13095   */\n      swap3\n      swap2\n      pop\n      pop\n      jump\t// out\n        /* \"#utility.yul\":13101:13351   */\n    tag_60:\n        /* \"#utility.yul\":13208:13212   */\n      0x00\n        /* \"#utility.yul\":13246:13248   */\n      0x20\n        /* \"#utility.yul\":13235:13244   */\n      dup3\n        /* \"#utility.yul\":13231:13249   */\n      add\n        /* \"#utility.yul\":13223:13249   */\n      swap1\n      pop\n        /* \"#utility.yul\":13259:13344   */\n      tag_619\n        /* \"#utility.yul\":13341:13342   */\n      0x00\n        /* \"#utility.yul\":13330:13339   */\n      dup4\n        /* \"#utility.yul\":13326:13343   */\n      add\n        /* \"#utility.yul\":13317:13323   */\n      dup5\n        /* \"#utility.yul\":13259:13344   */\n      tag_483\n      jump\t// in\n    tag_619:\n        /* \"#utility.yul\":13101:13351   */\n      swap3\n      swap2\n      pop\n      pop\n      jump\t// out\n        /* \"#utility.yul\":13357:13670   */\n    tag_425:\n        /* \"#utility.yul\":13470:13474   */\n      0x00\n        /* \"#utility.yul\":13508:13510   */\n      0x20\n        /* \"#utility.yul\":13497:13506   */\n      dup3\n        /* \"#utility.yul\":13493:13511   */\n      add\n        /* \"#utility.yul\":13485:13511   */\n      swap1\n      pop\n        /* \"#utility.yul\":13557:13566   */\n      dup2\n        /* \"#utility.yul\":13551:13555   */\n      dup2\n        /* \"#utility.yul\":13547:13567   */\n      sub\n        /* \"#utility.yul\":13543:13544   */\n      0x00\n        /* \"#utility.yul\":13532:13541   */\n      dup4\n        /* \"#utility.yul\":13528:13545   */\n      add\n        /* \"#utility.yul\":13521:13568   */\n      mstore\n        /* \"#utility.yul\":13585:13663   */\n      tag_621\n        /* \"#utility.yul\":13658:13662   */\n      dup2\n        /* \"#utility.yul\":13649:13655   */\n      dup5\n        /* \"#utility.yul\":13585:13663   */\n      tag_487\n      jump\t// in\n    tag_621:\n        /* \"#utility.yul\":13577:13663   */\n      swap1\n      pop\n        /* \"#utility.yul\":13357:13670   */\n      swap3\n      swap2\n      pop\n      pop\n      jump\t// out\n        /* \"#utility.yul\":13676:14095   */\n    tag_255:\n        /* \"#utility.yul\":13842:13846   */\n      0x00\n        /* \"#utility.yul\":13880:13882   */\n      0x20\n        /* \"#utility.yul\":13869:13878   */\n      dup3\n        /* \"#utility.yul\":13865:13883   */\n      add\n        /* \"#utility.yul\":13857:13883   */\n      swap1\n      pop\n        /* \"#utility.yul\":13929:13938   */\n      dup2\n        /* \"#utility.yul\":13923:13927   */\n      dup2\n        /* \"#utility.yul\":13919:13939   */\n      sub\n        /* \"#utility.yul\":13915:13916   */\n      0x00\n        /* \"#utility.yul\":13904:13913   */\n      dup4\n        /* \"#utility.yul\":13900:13917   */\n      add\n        /* \"#utility.yul\":13893:13940   */\n      mstore\n        /* \"#utility.yul\":13957:14088   */\n      tag_623\n        /* \"#utility.yul\":14083:14087   */\n      dup2\n        /* \"#utility.yul\":13957:14088   */\n      tag_496\n      jump\t// in\n    tag_623:\n        /* \"#utility.yul\":13949:14088   */\n      swap1\n      pop\n        /* \"#utility.yul\":13676:14095   */\n      swap2\n      swap1\n      pop\n      jump\t// out\n        /* \"#utility.yul\":14101:14520   */\n    tag_323:\n        /* \"#utility.yul\":14267:14271   */\n      0x00\n        /* \"#utility.yul\":14305:14307   */\n      0x20\n        /* \"#utility.yul\":14294:14303   */\n      dup3\n        /* \"#utility.yul\":14290:14308   */\n      add\n        /* \"#utility.yul\":14282:14308   */\n      swap1\n      pop\n        /* \"#utility.yul\":14354:14363   */\n      dup2\n        /* \"#utility.yul\":14348:14352   */\n      dup2\n        /* \"#utility.yul\":14344:14364   */\n      sub\n        /* \"#utility.yul\":14340:14341   */\n      0x00\n        /* \"#utility.yul\":14329:14338   */\n      dup4\n        /* \"#utility.yul\":14325:14342   */\n      add\n        /* \"#utility.yul\":14318:14365   */\n      mstore\n        /* \"#utility.yul\":14382:14513   */\n      tag_625\n        /* \"#utility.yul\":14508:14512   */\n      dup2\n        /* \"#utility.yul\":14382:14513   */\n      tag_501\n      jump\t// in\n    tag_625:\n        /* \"#utility.yul\":14374:14513   */\n      swap1\n      pop\n        /* \"#utility.yul\":14101:14520   */\n      swap2\n      swap1\n      pop\n      jump\t// out\n        /* \"#utility.yul\":14526:14945   */\n    tag_271:\n        /* \"#utility.yul\":14692:14696   */\n      0x00\n        /* \"#utility.yul\":14730:14732   */\n      0x20\n        /* \"#utility.yul\":14719:14728   */\n      dup3\n        /* \"#utility.yul\":14715:14733   */\n      add\n        /* \"#utility.yul\":14707:14733   */\n      swap1\n      pop\n        /* \"#utility.yul\":14779:14788   */\n      dup2\n        /* \"#utility.yul\":14773:14777   */\n      dup2\n        /* \"#utility.yul\":14769:14789   */\n      sub\n        /* \"#utility.yul\":14765:14766   */\n      0x00\n        /* \"#utility.yul\":14754:14763   */\n      dup4\n        /* \"#utility.yul\":14750:14767   */\n      add\n        /* \"#utility.yul\":14743:14790   */\n      mstore\n        /* \"#utility.yul\":14807:14938   */\n      tag_627\n        /* \"#utility.yul\":14933:14937   */\n      dup2\n        /* \"#utility.yul\":14807:14938   */\n      tag_506\n      jump\t// in\n    tag_627:\n        /* \"#utility.yul\":14799:14938   */\n      swap1\n      pop\n        /* \"#utility.yul\":14526:14945   */\n      swap2\n      swap1\n      pop\n      jump\t// out\n        /* \"#utility.yul\":14951:15370   */\n    tag_385:\n        /* \"#utility.yul\":15117:15121   */\n      0x00\n        /* \"#utility.yul\":15155:15157   */\n      0x20\n        /* \"#utility.yul\":15144:15153   */\n      dup3\n        /* \"#utility.yul\":15140:15158   */\n      add\n        /* \"#utility.yul\":15132:15158   */\n      swap1\n      pop\n        /* \"#utility.yul\":15204:15213   */\n      dup2\n        /* \"#utility.yul\":15198:15202   */\n      dup2\n        /* \"#utility.yul\":15194:15214   */\n      sub\n        /* \"#utility.yul\":15190:15191   */\n      0x00\n        /* \"#utility.yul\":15179:15188   */\n      dup4\n        /* \"#utility.yul\":15175:15192   */\n      add\n        /* \"#utility.yul\":15168:15215   */\n      mstore\n        /* \"#utility.yul\":15232:15363   */\n      tag_629\n        /* \"#utility.yul\":15358:15362   */\n      dup2\n        /* \"#utility.yul\":15232:15363   */\n      tag_511\n      jump\t// in\n    tag_629:\n        /* \"#utility.yul\":15224:15363   */\n      swap1\n      pop\n        /* \"#utility.yul\":14951:15370   */\n      swap2\n      swap1\n      pop\n      jump\t// out\n        /* \"#utility.yul\":15376:15795   */\n    tag_195:\n        /* \"#utility.yul\":15542:15546   */\n      0x00\n        /* \"#utility.yul\":15580:15582   */\n      0x20\n        /* \"#utility.yul\":15569:15578   */\n      dup3\n        /* \"#utility.yul\":15565:15583   */\n      add\n        /* \"#utility.yul\":15557:15583   */\n      swap1\n      pop\n        /* \"#utility.yul\":15629:15638   */\n      dup2\n        /* \"#utility.yul\":15623:15627   */\n      dup2\n        /* \"#utility.yul\":15619:15639   */\n      sub\n        /* \"#utility.yul\":15615:15616   */\n      0x00\n        /* \"#utility.yul\":15604:15613   */\n      dup4\n        /* \"#utility.yul\":15600:15617   */\n      add\n        /* \"#utility.yul\":15593:15640   */\n      mstore\n        /* \"#utility.yul\":15657:15788   */\n      tag_631\n        /* \"#utility.yul\":15783:15787   */\n      dup2\n        /* \"#utility.yul\":15657:15788   */\n      tag_516\n      jump\t// in\n    tag_631:\n        /* \"#utility.yul\":15649:15788   */\n      swap1\n      pop\n        /* \"#utility.yul\":15376:15795   */\n      swap2\n      swap1\n      pop\n      jump\t// out\n        /* \"#utility.yul\":15801:16220   */\n    tag_203:\n        /* \"#utility.yul\":15967:15971   */\n      0x00\n        /* \"#utility.yul\":16005:16007   */\n      0x20\n        /* \"#utility.yul\":15994:16003   */\n      dup3\n        /* \"#utility.yul\":15990:16008   */\n      add\n        /* \"#utility.yul\":15982:16008   */\n      swap1\n      pop\n        /* \"#utility.yul\":16054:16063   */\n      dup2\n        /* \"#utility.yul\":16048:16052   */\n      dup2\n        /* \"#utility.yul\":16044:16064   */\n      sub\n        /* \"#utility.yul\":16040:16041   */\n      0x00\n        /* \"#utility.yul\":16029:16038   */\n      dup4\n        /* \"#utility.yul\":16025:16042   */\n      add\n        /* \"#utility.yul\":16018:16065   */\n      mstore\n        /* \"#utility.yul\":16082:16213   */\n      tag_633\n        /* \"#utility.yul\":16208:16212   */\n      dup2\n        /* \"#utility.yul\":16082:16213   */\n      tag_521\n      jump\t// in\n    tag_633:\n        /* \"#utility.yul\":16074:16213   */\n      swap1\n      pop\n        /* \"#utility.yul\":15801:16220   */\n      swap2\n      swap1\n      pop\n      jump\t// out\n        /* \"#utility.yul\":16226:16645   */\n    tag_406:\n        /* \"#utility.yul\":16392:16396   */\n      0x00\n        /* \"#utility.yul\":16430:16432   */\n      0x20\n        /* \"#utility.yul\":16419:16428   */\n      dup3\n        /* \"#utility.yul\":16415:16433   */\n      add\n        /* \"#utility.yul\":16407:16433   */\n      swap1\n      pop\n        /* \"#utility.yul\":16479:16488   */\n      dup2\n        /* \"#utility.yul\":16473:16477   */\n      dup2\n        /* \"#utility.yul\":16469:16489   */\n      sub\n        /* \"#utility.yul\":16465:16466   */\n      0x00\n        /* \"#utility.yul\":16454:16463   */\n      dup4\n        /* \"#utility.yul\":16450:16467   */\n      add\n        /* \"#utility.yul\":16443:16490   */\n      mstore\n        /* \"#utility.yul\":16507:16638   */\n      tag_635\n        /* \"#utility.yul\":16633:16637   */\n      dup2\n        /* \"#utility.yul\":16507:16638   */\n      tag_526\n      jump\t// in\n    tag_635:\n        /* \"#utility.yul\":16499:16638   */\n      swap1\n      pop\n        /* \"#utility.yul\":16226:16645   */\n      swap2\n      swap1\n      pop\n      jump\t// out\n        /* \"#utility.yul\":16651:17070   */\n    tag_263:\n        /* \"#utility.yul\":16817:16821   */\n      0x00\n        /* \"#utility.yul\":16855:16857   */\n      0x20\n        /* \"#utility.yul\":16844:16853   */\n      dup3\n        /* \"#utility.yul\":16840:16858   */\n      add\n        /* \"#utility.yul\":16832:16858   */\n      swap1\n      pop\n        /* \"#utility.yul\":16904:16913   */\n      dup2\n        /* \"#utility.yul\":16898:16902   */\n      dup2\n        /* \"#utility.yul\":16894:16914   */\n      sub\n        /* \"#utility.yul\":16890:16891   */\n      0x00\n        /* \"#utility.yul\":16879:16888   */\n      dup4\n        /* \"#utility.yul\":16875:16892   */\n      add\n        /* \"#utility.yul\":16868:16915   */\n      mstore\n        /* \"#utility.yul\":16932:17063   */\n      tag_637\n        /* \"#utility.yul\":17058:17062   */\n      dup2\n        /* \"#utility.yul\":16932:17063   */\n      tag_531\n      jump\t// in\n    tag_637:\n        /* \"#utility.yul\":16924:17063   */\n      swap1\n      pop\n        /* \"#utility.yul\":16651:17070   */\n      swap2\n      swap1\n      pop\n      jump\t// out\n        /* \"#utility.yul\":17076:17495   */\n    tag_333:\n        /* \"#utility.yul\":17242:17246   */\n      0x00\n        /* \"#utility.yul\":17280:17282   */\n      0x20\n        /* \"#utility.yul\":17269:17278   */\n      dup3\n        /* \"#utility.yul\":17265:17283   */\n      add\n        /* \"#utility.yul\":17257:17283   */\n      swap1\n      pop\n        /* \"#utility.yul\":17329:17338   */\n      dup2\n        /* \"#utility.yul\":17323:17327   */\n      dup2\n        /* \"#utility.yul\":17319:17339   */\n      sub\n        /* \"#utility.yul\":17315:17316   */\n      0x00\n        /* \"#utility.yul\":17304:17313   */\n      dup4\n        /* \"#utility.yul\":17300:17317   */\n      add\n        /* \"#utility.yul\":17293:17340   */\n      mstore\n        /* \"#utility.yul\":17357:17488   */\n      tag_639\n        /* \"#utility.yul\":17483:17487   */\n      dup2\n        /* \"#utility.yul\":17357:17488   */\n      tag_536\n      jump\t// in\n    tag_639:\n        /* \"#utility.yul\":17349:17488   */\n      swap1\n      pop\n        /* \"#utility.yul\":17076:17495   */\n      swap2\n      swap1\n      pop\n      jump\t// out\n        /* \"#utility.yul\":17501:17920   */\n    tag_199:\n        /* \"#utility.yul\":17667:17671   */\n      0x00\n        /* \"#utility.yul\":17705:17707   */\n      0x20\n        /* \"#utility.yul\":17694:17703   */\n      dup3\n        /* \"#utility.yul\":17690:17708   */\n      add\n        /* \"#utility.yul\":17682:17708   */\n      swap1\n      pop\n        /* \"#utility.yul\":17754:17763   */\n      dup2\n        /* \"#utility.yul\":17748:17752   */\n      dup2\n        /* \"#utility.yul\":17744:17764   */\n      sub\n        /* \"#utility.yul\":17740:17741   */\n      0x00\n        /* \"#utility.yul\":17729:17738   */\n      dup4\n        /* \"#utility.yul\":17725:17742   */\n      add\n        /* \"#utility.yul\":17718:17765   */\n      mstore\n        /* \"#utility.yul\":17782:17913   */\n      tag_641\n        /* \"#utility.yul\":17908:17912   */\n      dup2\n        /* \"#utility.yul\":17782:17913   */\n      tag_541\n      jump\t// in\n    tag_641:\n        /* \"#utility.yul\":17774:17913   */\n      swap1\n      pop\n        /* \"#utility.yul\":17501:17920   */\n      swap2\n      swap1\n      pop\n      jump\t// out\n        /* \"#utility.yul\":17926:18345   */\n    tag_346:\n        /* \"#utility.yul\":18092:18096   */\n      0x00\n        /* \"#utility.yul\":18130:18132   */\n      0x20\n        /* \"#utility.yul\":18119:18128   */\n      dup3\n        /* \"#utility.yul\":18115:18133   */\n      add\n        /* \"#utility.yul\":18107:18133   */\n      swap1\n      pop\n        /* \"#utility.yul\":18179:18188   */\n      dup2\n        /* \"#utility.yul\":18173:18177   */\n      dup2\n        /* \"#utility.yul\":18169:18189   */\n      sub\n        /* \"#utility.yul\":18165:18166   */\n      0x00\n        /* \"#utility.yul\":18154:18163   */\n      dup4\n        /* \"#utility.yul\":18150:18167   */\n      add\n        /* \"#utility.yul\":18143:18190   */\n      mstore\n        /* \"#utility.yul\":18207:18338   */\n      tag_643\n        /* \"#utility.yul\":18333:18337   */\n      dup2\n        /* \"#utility.yul\":18207:18338   */\n      tag_546\n      jump\t// in\n    tag_643:\n        /* \"#utility.yul\":18199:18338   */\n      swap1\n      pop\n        /* \"#utility.yul\":17926:18345   */\n      swap2\n      swap1\n      pop\n      jump\t// out\n        /* \"#utility.yul\":18351:18770   */\n    tag_168:\n        /* \"#utility.yul\":18517:18521   */\n      0x00\n        /* \"#utility.yul\":18555:18557   */\n      0x20\n        /* \"#utility.yul\":18544:18553   */\n      dup3\n        /* \"#utility.yul\":18540:18558   */\n      add\n        /* \"#utility.yul\":18532:18558   */\n      swap1\n      pop\n        /* \"#utility.yul\":18604:18613   */\n      dup2\n        /* \"#utility.yul\":18598:18602   */\n      dup2\n        /* \"#utility.yul\":18594:18614   */\n      sub\n        /* \"#utility.yul\":18590:18591   */\n      0x00\n        /* \"#utility.yul\":18579:18588   */\n      dup4\n        /* \"#utility.yul\":18575:18592   */\n      add\n        /* \"#utility.yul\":18568:18615   */\n      mstore\n        /* \"#utility.yul\":18632:18763   */\n      tag_645\n        /* \"#utility.yul\":18758:18762   */\n      dup2\n        /* \"#utility.yul\":18632:18763   */\n      tag_551\n      jump\t// in\n    tag_645:\n        /* \"#utility.yul\":18624:18763   */\n      swap1\n      pop\n        /* \"#utility.yul\":18351:18770   */\n      swap2\n      swap1\n      pop\n      jump\t// out\n        /* \"#utility.yul\":18776:19195   */\n    tag_278:\n        /* \"#utility.yul\":18942:18946   */\n      0x00\n        /* \"#utility.yul\":18980:18982   */\n      0x20\n        /* \"#utility.yul\":18969:18978   */\n      dup3\n        /* \"#utility.yul\":18965:18983   */\n      add\n        /* \"#utility.yul\":18957:18983   */\n      swap1\n      pop\n        /* \"#utility.yul\":19029:19038   */\n      dup2\n        /* \"#utility.yul\":19023:19027   */\n      dup2\n        /* \"#utility.yul\":19019:19039   */\n      sub\n        /* \"#utility.yul\":19015:19016   */\n      0x00\n        /* \"#utility.yul\":19004:19013   */\n      dup4\n        /* \"#utility.yul\":19000:19017   */\n      add\n        /* \"#utility.yul\":18993:19040   */\n      mstore\n        /* \"#utility.yul\":19057:19188   */\n      tag_647\n        /* \"#utility.yul\":19183:19187   */\n      dup2\n        /* \"#utility.yul\":19057:19188   */\n      tag_556\n      jump\t// in\n    tag_647:\n        /* \"#utility.yul\":19049:19188   */\n      swap1\n      pop\n        /* \"#utility.yul\":18776:19195   */\n      swap2\n      swap1\n      pop\n      jump\t// out\n        /* \"#utility.yul\":19201:19620   */\n    tag_411:\n        /* \"#utility.yul\":19367:19371   */\n      0x00\n        /* \"#utility.yul\":19405:19407   */\n      0x20\n        /* \"#utility.yul\":19394:19403   */\n      dup3\n        /* \"#utility.yul\":19390:19408   */\n      add\n        /* \"#utility.yul\":19382:19408   */\n      swap1\n      pop\n        /* \"#utility.yul\":19454:19463   */\n      dup2\n        /* \"#utility.yul\":19448:19452   */\n      dup2\n        /* \"#utility.yul\":19444:19464   */\n      sub\n        /* \"#utility.yul\":19440:19441   */\n      0x00\n        /* \"#utility.yul\":19429:19438   */\n      dup4\n        /* \"#utility.yul\":19425:19442   */\n      add\n        /* \"#utility.yul\":19418:19465   */\n      mstore\n        /* \"#utility.yul\":19482:19613   */\n      tag_649\n        /* \"#utility.yul\":19608:19612   */\n      dup2\n        /* \"#utility.yul\":19482:19613   */\n      tag_561\n      jump\t// in\n    tag_649:\n        /* \"#utility.yul\":19474:19613   */\n      swap1\n      pop\n        /* \"#utility.yul\":19201:19620   */\n      swap2\n      swap1\n      pop\n      jump\t// out\n        /* \"#utility.yul\":19626:20045   */\n    tag_188:\n        /* \"#utility.yul\":19792:19796   */\n      0x00\n        /* \"#utility.yul\":19830:19832   */\n      0x20\n        /* \"#utility.yul\":19819:19828   */\n      dup3\n        /* \"#utility.yul\":19815:19833   */\n      add\n        /* \"#utility.yul\":19807:19833   */\n      swap1\n      pop\n        /* \"#utility.yul\":19879:19888   */\n      dup2\n        /* \"#utility.yul\":19873:19877   */\n      dup2\n        /* \"#utility.yul\":19869:19889   */\n      sub\n        /* \"#utility.yul\":19865:19866   */\n      0x00\n        /* \"#utility.yul\":19854:19863   */\n      dup4\n        /* \"#utility.yul\":19850:19867   */\n      add\n        /* \"#utility.yul\":19843:19890   */\n      mstore\n        /* \"#utility.yul\":19907:20038   */\n      tag_651\n        /* \"#utility.yul\":20033:20037   */\n      dup2\n        /* \"#utility.yul\":19907:20038   */\n      tag_566\n      jump\t// in\n    tag_651:\n        /* \"#utility.yul\":19899:20038   */\n      swap1\n      pop\n        /* \"#utility.yul\":19626:20045   */\n      swap2\n      swap1\n      pop\n      jump\t// out\n        /* \"#utility.yul\":20051:20470   */\n    tag_373:\n        /* \"#utility.yul\":20217:20221   */\n      0x00\n        /* \"#utility.yul\":20255:20257   */\n      0x20\n        /* \"#utility.yul\":20244:20253   */\n      dup3\n        /* \"#utility.yul\":20240:20258   */\n      add\n        /* \"#utility.yul\":20232:20258   */\n      swap1\n      pop\n        /* \"#utility.yul\":20304:20313   */\n      dup2\n        /* \"#utility.yul\":20298:20302   */\n      dup2\n        /* \"#utility.yul\":20294:20314   */\n      sub\n        /* \"#utility.yul\":20290:20291   */\n      0x00\n        /* \"#utility.yul\":20279:20288   */\n      dup4\n        /* \"#utility.yul\":20275:20292   */\n      add\n        /* \"#utility.yul\":20268:20315   */\n      mstore\n        /* \"#utility.yul\":20332:20463   */\n      tag_653\n        /* \"#utility.yul\":20458:20462   */\n      dup2\n        /* \"#utility.yul\":20332:20463   */\n      tag_571\n      jump\t// in\n    tag_653:\n        /* \"#utility.yul\":20324:20463   */\n      swap1\n      pop\n        /* \"#utility.yul\":20051:20470   */\n      swap2\n      swap1\n      pop\n      jump\t// out\n        /* \"#utility.yul\":20476:20895   */\n    tag_292:\n        /* \"#utility.yul\":20642:20646   */\n      0x00\n        /* \"#utility.yul\":20680:20682   */\n      0x20\n        /* \"#utility.yul\":20669:20678   */\n      dup3\n        /* \"#utility.yul\":20665:20683   */\n      add\n        /* \"#utility.yul\":20657:20683   */\n      swap1\n      pop\n        /* \"#utility.yul\":20729:20738   */\n      dup2\n        /* \"#utility.yul\":20723:20727   */\n      dup2\n        /* \"#utility.yul\":20719:20739   */\n      sub\n        /* \"#utility.yul\":20715:20716   */\n      0x00\n        /* \"#utility.yul\":20704:20713   */\n      dup4\n        /* \"#utility.yul\":20700:20717   */\n      add\n        /* \"#utility.yul\":20693:20740   */\n      mstore\n        /* \"#utility.yul\":20757:20888   */\n      tag_655\n        /* \"#utility.yul\":20883:20887   */\n      dup2\n        /* \"#utility.yul\":20757:20888   */\n      tag_576\n      jump\t// in\n    tag_655:\n        /* \"#utility.yul\":20749:20888   */\n      swap1\n      pop\n        /* \"#utility.yul\":20476:20895   */\n      swap2\n      swap1\n      pop\n      jump\t// out\n        /* \"#utility.yul\":20901:21320   */\n    tag_399:\n        /* \"#utility.yul\":21067:21071   */\n      0x00\n        /* \"#utility.yul\":21105:21107   */\n      0x20\n        /* \"#utility.yul\":21094:21103   */\n      dup3\n        /* \"#utility.yul\":21090:21108   */\n      add\n        /* \"#utility.yul\":21082:21108   */\n      swap1\n      pop\n        /* \"#utility.yul\":21154:21163   */\n      dup2\n        /* \"#utility.yul\":21148:21152   */\n      dup2\n        /* \"#utility.yul\":21144:21164   */\n      sub\n        /* \"#utility.yul\":21140:21141   */\n      0x00\n        /* \"#utility.yul\":21129:21138   */\n      dup4\n        /* \"#utility.yul\":21125:21142   */\n      add\n        /* \"#utility.yul\":21118:21165   */\n      mstore\n        /* \"#utility.yul\":21182:21313   */\n      tag_657\n        /* \"#utility.yul\":21308:21312   */\n      dup2\n        /* \"#utility.yul\":21182:21313   */\n      tag_581\n      jump\t// in\n    tag_657:\n        /* \"#utility.yul\":21174:21313   */\n      swap1\n      pop\n        /* \"#utility.yul\":20901:21320   */\n      swap2\n      swap1\n      pop\n      jump\t// out\n        /* \"#utility.yul\":21326:21745   */\n    tag_172:\n        /* \"#utility.yul\":21492:21496   */\n      0x00\n        /* \"#utility.yul\":21530:21532   */\n      0x20\n        /* \"#utility.yul\":21519:21528   */\n      dup3\n        /* \"#utility.yul\":21515:21533   */\n      add\n        /* \"#utility.yul\":21507:21533   */\n      swap1\n      pop\n        /* \"#utility.yul\":21579:21588   */\n      dup2\n        /* \"#utility.yul\":21573:21577   */\n      dup2\n        /* \"#utility.yul\":21569:21589   */\n      sub\n        /* \"#utility.yul\":21565:21566   */\n      0x00\n        /* \"#utility.yul\":21554:21563   */\n      dup4\n        /* \"#utility.yul\":21550:21567   */\n      add\n        /* \"#utility.yul\":21543:21590   */\n      mstore\n        /* \"#utility.yul\":21607:21738   */\n      tag_659\n        /* \"#utility.yul\":21733:21737   */\n      dup2\n        /* \"#utility.yul\":21607:21738   */\n      tag_586\n      jump\t// in\n    tag_659:\n        /* \"#utility.yul\":21599:21738   */\n      swap1\n      pop\n        /* \"#utility.yul\":21326:21745   */\n      swap2\n      swap1\n      pop\n      jump\t// out\n        /* \"#utility.yul\":21751:22170   */\n    tag_259:\n        /* \"#utility.yul\":21917:21921   */\n      0x00\n        /* \"#utility.yul\":21955:21957   */\n      0x20\n        /* \"#utility.yul\":21944:21953   */\n      dup3\n        /* \"#utility.yul\":21940:21958   */\n      add\n        /* \"#utility.yul\":21932:21958   */\n      swap1\n      pop\n        /* \"#utility.yul\":22004:22013   */\n      dup2\n        /* \"#utility.yul\":21998:22002   */\n      dup2\n        /* \"#utility.yul\":21994:22014   */\n      sub\n        /* \"#utility.yul\":21990:21991   */\n      0x00\n        /* \"#utility.yul\":21979:21988   */\n      dup4\n        /* \"#utility.yul\":21975:21992   */\n      add\n        /* \"#utility.yul\":21968:22015   */\n      mstore\n        /* \"#utility.yul\":22032:22163   */\n      tag_661\n        /* \"#utility.yul\":22158:22162   */\n      dup2\n        /* \"#utility.yul\":22032:22163   */\n      tag_591\n      jump\t// in\n    tag_661:\n        /* \"#utility.yul\":22024:22163   */\n      swap1\n      pop\n        /* \"#utility.yul\":21751:22170   */\n      swap2\n      swap1\n      pop\n      jump\t// out\n        /* \"#utility.yul\":22176:22595   */\n    tag_267:\n        /* \"#utility.yul\":22342:22346   */\n      0x00\n        /* \"#utility.yul\":22380:22382   */\n      0x20\n        /* \"#utility.yul\":22369:22378   */\n      dup3\n        /* \"#utility.yul\":22365:22383   */\n      add\n        /* \"#utility.yul\":22357:22383   */\n      swap1\n      pop\n        /* \"#utility.yul\":22429:22438   */\n      dup2\n        /* \"#utility.yul\":22423:22427   */\n      dup2\n        /* \"#utility.yul\":22419:22439   */\n      sub\n        /* \"#utility.yul\":22415:22416   */\n      0x00\n        /* \"#utility.yul\":22404:22413   */\n      dup4\n        /* \"#utility.yul\":22400:22417   */\n      add\n        /* \"#utility.yul\":22393:22440   */\n      mstore\n        /* \"#utility.yul\":22457:22588   */\n      tag_663\n        /* \"#utility.yul\":22583:22587   */\n      dup2\n        /* \"#utility.yul\":22457:22588   */\n      tag_596\n      jump\t// in\n    tag_663:\n        /* \"#utility.yul\":22449:22588   */\n      swap1\n      pop\n        /* \"#utility.yul\":22176:22595   */\n      swap2\n      swap1\n      pop\n      jump\t// out\n        /* \"#utility.yul\":22601:22823   */\n    tag_47:\n        /* \"#utility.yul\":22694:22698   */\n      0x00\n        /* \"#utility.yul\":22732:22734   */\n      0x20\n        /* \"#utility.yul\":22721:22730   */\n      dup3\n        /* \"#utility.yul\":22717:22735   */\n      add\n        /* \"#utility.yul\":22709:22735   */\n      swap1\n      pop\n        /* \"#utility.yul\":22745:22816   */\n      tag_665\n        /* \"#utility.yul\":22813:22814   */\n      0x00\n        /* \"#utility.yul\":22802:22811   */\n      dup4\n        /* \"#utility.yul\":22798:22815   */\n      add\n        /* \"#utility.yul\":22789:22795   */\n      dup5\n        /* \"#utility.yul\":22745:22816   */\n      tag_601\n      jump\t// in\n    tag_665:\n        /* \"#utility.yul\":22601:22823   */\n      swap3\n      swap2\n      pop\n      pop\n      jump\t// out\n        /* \"#utility.yul\":22910:23008   */\n    tag_478:\n        /* \"#utility.yul\":22961:22967   */\n      0x00\n        /* \"#utility.yul\":22995:23000   */\n      dup2\n        /* \"#utility.yul\":22989:23001   */\n      mload\n        /* \"#utility.yul\":22979:23001   */\n      swap1\n      pop\n        /* \"#utility.yul\":22910:23008   */\n      swap2\n      swap1\n      pop\n      jump\t// out\n        /* \"#utility.yul\":23014:23113   */\n    tag_490:\n        /* \"#utility.yul\":23066:23072   */\n      0x00\n        /* \"#utility.yul\":23100:23105   */\n      dup2\n        /* \"#utility.yul\":23094:23106   */\n      mload\n        /* \"#utility.yul\":23084:23106   */\n      swap1\n      pop\n        /* \"#utility.yul\":23014:23113   */\n      swap2\n      swap1\n      pop\n      jump\t// out\n        /* \"#utility.yul\":23119:23266   */\n    tag_480:\n        /* \"#utility.yul\":23220:23231   */\n      0x00\n        /* \"#utility.yul\":23257:23260   */\n      dup2\n        /* \"#utility.yul\":23242:23260   */\n      swap1\n      pop\n        /* \"#utility.yul\":23119:23266   */\n      swap3\n      swap2\n      pop\n      pop\n      jump\t// out\n        /* \"#utility.yul\":23272:23441   */\n    tag_492:\n        /* \"#utility.yul\":23356:23367   */\n      0x00\n        /* \"#utility.yul\":23390:23396   */\n      dup3\n        /* \"#utility.yul\":23385:23388   */\n      dup3\n        /* \"#utility.yul\":23378:23397   */\n      mstore\n        /* \"#utility.yul\":23430:23434   */\n      0x20\n        /* \"#utility.yul\":23425:23428   */\n      dup3\n        /* \"#utility.yul\":23421:23435   */\n      add\n        /* \"#utility.yul\":23406:23435   */\n      swap1\n      pop\n        /* \"#utility.yul\":23272:23441   */\n      swap3\n      swap2\n      pop\n      pop\n      jump\t// out\n        /* \"#utility.yul\":23447:23752   */\n    tag_355:\n        /* \"#utility.yul\":23487:23490   */\n      0x00\n        /* \"#utility.yul\":23506:23526   */\n      tag_673\n        /* \"#utility.yul\":23524:23525   */\n      dup3\n        /* \"#utility.yul\":23506:23526   */\n      tag_604\n      jump\t// in\n    tag_673:\n        /* \"#utility.yul\":23501:23526   */\n      swap2\n      pop\n        /* \"#utility.yul\":23540:23560   */\n      tag_674\n        /* \"#utility.yul\":23558:23559   */\n      dup4\n        /* \"#utility.yul\":23540:23560   */\n      tag_604\n      jump\t// in\n    tag_674:\n        /* \"#utility.yul\":23535:23560   */\n      swap3\n      pop\n        /* \"#utility.yul\":23694:23695   */\n      dup3\n        /* \"#utility.yul\":23626:23692   */\n      0xffffffffffffffffffffffffffffffffffffffffffffffffffffffffffffffff\n        /* \"#utility.yul\":23622:23696   */\n      sub\n        /* \"#utility.yul\":23619:23620   */\n      dup3\n        /* \"#utility.yul\":23616:23697   */\n      gt\n        /* \"#utility.yul\":23613:23720   */\n      iszero\n      tag_675\n      jumpi\n        /* \"#utility.yul\":23700:23718   */\n      tag_676\n      tag_677\n      jump\t// in\n    tag_676:\n        /* \"#utility.yul\":23613:23720   */\n    tag_675:\n        /* \"#utility.yul\":23744:23745   */\n      dup3\n        /* \"#utility.yul\":23741:23742   */\n      dup3\n        /* \"#utility.yul\":23737:23746   */\n      add\n        /* \"#utility.yul\":23730:23746   */\n      swap1\n      pop\n        /* \"#utility.yul\":23447:23752   */\n      swap3\n      swap2\n      pop\n      pop\n      jump\t// out\n        /* \"#utility.yul\":23758:23943   */\n    tag_358:\n        /* \"#utility.yul\":23798:23799   */\n      0x00\n        /* \"#utility.yul\":23815:23835   */\n      tag_679\n        /* \"#utility.yul\":23833:23834   */\n      dup3\n        /* \"#utility.yul\":23815:23835   */\n      tag_604\n      jump\t// in\n    tag_679:\n        /* \"#utility.yul\":23810:23835   */\n      swap2\n      pop\n        /* \"#utility.yul\":23849:23869   */\n      tag_680\n        /* \"#utility.yul\":23867:23868   */\n      dup4\n        /* \"#utility.yul\":23849:23869   */\n      tag_604\n      jump\t// in\n    tag_680:\n        /* \"#utility.yul\":23844:23869   */\n      swap3\n      pop\n        /* \"#utility.yul\":23888:23889   */\n      dup3\n        /* \"#utility.yul\":23878:23913   */\n      tag_681\n      jumpi\n        /* \"#utility.yul\":23893:23911   */\n      tag_682\n      tag_683\n      jump\t// in\n    tag_682:\n        /* \"#utility.yul\":23878:23913   */\n    tag_681:\n        /* \"#utility.yul\":23935:23936   */\n      dup3\n        /* \"#utility.yul\":23932:23933   */\n      dup3\n        /* \"#utility.yul\":23928:23937   */\n      div\n        /* \"#utility.yul\":23923:23937   */\n      swap1\n      pop\n        /* \"#utility.yul\":23758:23943   */\n      swap3\n      swap2\n      pop\n      pop\n      jump\t// out\n        /* \"#utility.yul\":23949:24297   */\n    tag_236:\n        /* \"#utility.yul\":23989:23996   */\n      0x00\n        /* \"#utility.yul\":24012:24032   */\n      tag_685\n        /* \"#utility.yul\":24030:24031   */\n      dup3\n        /* \"#utility.yul\":24012:24032   */\n      tag_604\n      jump\t// in\n    tag_685:\n        /* \"#utility.yul\":24007:24032   */\n      swap2\n      pop\n        /* \"#utility.yul\":24046:24066   */\n      tag_686\n        /* \"#utility.yul\":24064:24065   */\n      dup4\n        /* \"#utility.yul\":24046:24066   */\n      tag_604\n      jump\t// in\n    tag_686:\n        /* \"#utility.yul\":24041:24066   */\n      swap3\n      pop\n        /* \"#utility.yul\":24234:24235   */\n      dup2\n        /* \"#utility.yul\":24166:24232   */\n      0xffffffffffffffffffffffffffffffffffffffffffffffffffffffffffffffff\n        /* \"#utility.yul\":24162:24236   */\n      div\n        /* \"#utility.yul\":24159:24160   */\n      dup4\n        /* \"#utility.yul\":24156:24237   */\n      gt\n        /* \"#utility.yul\":24151:24152   */\n      dup3\n        /* \"#utility.yul\":24144:24153   */\n      iszero\n        /* \"#utility.yul\":24137:24154   */\n      iszero\n        /* \"#utility.yul\":24133:24238   */\n      and\n        /* \"#utility.yul\":24130:24261   */\n      iszero\n      tag_687\n      jumpi\n        /* \"#utility.yul\":24241:24259   */\n      tag_688\n      tag_677\n      jump\t// in\n    tag_688:\n        /* \"#utility.yul\":24130:24261   */\n    tag_687:\n        /* \"#utility.yul\":24289:24290   */\n      dup3\n        /* \"#utility.yul\":24286:24287   */\n      dup3\n        /* \"#utility.yul\":24282:24291   */\n      mul\n        /* \"#utility.yul\":24271:24291   */\n      swap1\n      pop\n        /* \"#utility.yul\":23949:24297   */\n      swap3\n      swap2\n      pop\n      pop\n      jump\t// out\n        /* \"#utility.yul\":24303:24494   */\n    tag_350:\n        /* \"#utility.yul\":24343:24347   */\n      0x00\n        /* \"#utility.yul\":24363:24383   */\n      tag_690\n        /* \"#utility.yul\":24381:24382   */\n      dup3\n        /* \"#utility.yul\":24363:24383   */\n      tag_604\n      jump\t// in\n    tag_690:\n        /* \"#utility.yul\":24358:24383   */\n      swap2\n      pop\n        /* \"#utility.yul\":24397:24417   */\n      tag_691\n        /* \"#utility.yul\":24415:24416   */\n      dup4\n        /* \"#utility.yul\":24397:24417   */\n      tag_604\n      jump\t// in\n    tag_691:\n        /* \"#utility.yul\":24392:24417   */\n      swap3\n      pop\n        /* \"#utility.yul\":24436:24437   */\n      dup3\n        /* \"#utility.yul\":24433:24434   */\n      dup3\n        /* \"#utility.yul\":24430:24438   */\n      lt\n        /* \"#utility.yul\":24427:24461   */\n      iszero\n      tag_692\n      jumpi\n        /* \"#utility.yul\":24441:24459   */\n      tag_693\n      tag_677\n      jump\t// in\n    tag_693:\n        /* \"#utility.yul\":24427:24461   */\n    tag_692:\n        /* \"#utility.yul\":24486:24487   */\n      dup3\n        /* \"#utility.yul\":24483:24484   */\n      dup3\n        /* \"#utility.yul\":24479:24488   */\n      sub\n        /* \"#utility.yul\":24471:24488   */\n      swap1\n      pop\n        /* \"#utility.yul\":24303:24494   */\n      swap3\n      swap2\n      pop\n      pop\n      jump\t// out\n        /* \"#utility.yul\":24500:24596   */\n    tag_470:\n        /* \"#utility.yul\":24537:24544   */\n      0x00\n        /* \"#utility.yul\":24566:24590   */\n      tag_695\n        /* \"#utility.yul\":24584:24589   */\n      dup3\n        /* \"#utility.yul\":24566:24590   */\n      tag_696\n      jump\t// in\n    tag_695:\n        /* \"#utility.yul\":24555:24590   */\n      swap1\n      pop\n        /* \"#utility.yul\":24500:24596   */\n      swap2\n      swap1\n      pop\n      jump\t// out\n        /* \"#utility.yul\":24602:24692   */\n    tag_474:\n        /* \"#utility.yul\":24636:24643   */\n      0x00\n        /* \"#utility.yul\":24679:24684   */\n      dup2\n        /* \"#utility.yul\":24672:24685   */\n      iszero\n        /* \"#utility.yul\":24665:24686   */\n      iszero\n        /* \"#utility.yul\":24654:24686   */\n      swap1\n      pop\n        /* \"#utility.yul\":24602:24692   */\n      swap2\n      swap1\n      pop\n      jump\t// out\n        /* \"#utility.yul\":24698:24808   */\n    tag_698:\n        /* \"#utility.yul\":24749:24756   */\n      0x00\n        /* \"#utility.yul\":24778:24802   */\n      tag_700\n        /* \"#utility.yul\":24796:24801   */\n      dup3\n        /* \"#utility.yul\":24778:24802   */\n      tag_470\n      jump\t// in\n    tag_700:\n        /* \"#utility.yul\":24767:24802   */\n      swap1\n      pop\n        /* \"#utility.yul\":24698:24808   */\n      swap2\n      swap1\n      pop\n      jump\t// out\n        /* \"#utility.yul\":24814:24940   */\n    tag_696:\n        /* \"#utility.yul\":24851:24858   */\n      0x00\n        /* \"#utility.yul\":24891:24933   */\n      0xffffffffffffffffffffffffffffffffffffffff\n        /* \"#utility.yul\":24884:24889   */\n      dup3\n        /* \"#utility.yul\":24880:24934   */\n      and\n        /* \"#utility.yul\":24869:24934   */\n      swap1\n      pop\n        /* \"#utility.yul\":24814:24940   */\n      swap2\n      swap1\n      pop\n      jump\t// out\n        /* \"#utility.yul\":24946:25023   */\n    tag_604:\n        /* \"#utility.yul\":24983:24990   */\n      0x00\n        /* \"#utility.yul\":25012:25017   */\n      dup2\n        /* \"#utility.yul\":25001:25017   */\n      swap1\n      pop\n        /* \"#utility.yul\":24946:25023   */\n      swap2\n      swap1\n      pop\n      jump\t// out\n        /* \"#utility.yul\":25029:25169   */\n    tag_486:\n        /* \"#utility.yul\":25093:25102   */\n      0x00\n        /* \"#utility.yul\":25126:25163   */\n      tag_704\n        /* \"#utility.yul\":25157:25162   */\n      dup3\n        /* \"#utility.yul\":25126:25163   */\n      tag_705\n      jump\t// in\n    tag_704:\n        /* \"#utility.yul\":25113:25163   */\n      swap1\n      pop\n        /* \"#utility.yul\":25029:25169   */\n      swap2\n      swap1\n      pop\n      jump\t// out\n        /* \"#utility.yul\":25175:25301   */\n    tag_705:\n        /* \"#utility.yul\":25225:25234   */\n      0x00\n        /* \"#utility.yul\":25258:25295   */\n      tag_707\n        /* \"#utility.yul\":25289:25294   */\n      dup3\n        /* \"#utility.yul\":25258:25295   */\n      tag_708\n      jump\t// in\n    tag_707:\n        /* \"#utility.yul\":25245:25295   */\n      swap1\n      pop\n        /* \"#utility.yul\":25175:25301   */\n      swap2\n      swap1\n      pop\n      jump\t// out\n        /* \"#utility.yul\":25307:25420   */\n    tag_708:\n        /* \"#utility.yul\":25357:25366   */\n      0x00\n        /* \"#utility.yul\":25390:25414   */\n      tag_710\n        /* \"#utility.yul\":25408:25413   */\n      dup3\n        /* \"#utility.yul\":25390:25414   */\n      tag_696\n      jump\t// in\n    tag_710:\n        /* \"#utility.yul\":25377:25414   */\n      swap1\n      pop\n        /* \"#utility.yul\":25307:25420   */\n      swap2\n      swap1\n      pop\n      jump\t// out\n        /* \"#utility.yul\":25426:25733   */\n    tag_482:\n        /* \"#utility.yul\":25494:25495   */\n      0x00\n        /* \"#utility.yul\":25504:25617   */\n    tag_712:\n        /* \"#utility.yul\":25518:25524   */\n      dup4\n        /* \"#utility.yul\":25515:25516   */\n      dup2\n        /* \"#utility.yul\":25512:25525   */\n      lt\n        /* \"#utility.yul\":25504:25617   */\n      iszero\n      tag_714\n      jumpi\n        /* \"#utility.yul\":25603:25604   */\n      dup1\n        /* \"#utility.yul\":25598:25601   */\n      dup3\n        /* \"#utility.yul\":25594:25605   */\n      add\n        /* \"#utility.yul\":25588:25606   */\n      mload\n        /* \"#utility.yul\":25584:25585   */\n      dup2\n        /* \"#utility.yul\":25579:25582   */\n      dup5\n        /* \"#utility.yul\":25575:25586   */\n      add\n        /* \"#utility.yul\":25568:25607   */\n      mstore\n        /* \"#utility.yul\":25540:25542   */\n      0x20\n        /* \"#utility.yul\":25537:25538   */\n      dup2\n        /* \"#utility.yul\":25533:25543   */\n      add\n        /* \"#utility.yul\":25528:25543   */\n      swap1\n      pop\n        /* \"#utility.yul\":25504:25617   */\n      jump(tag_712)\n    tag_714:\n        /* \"#utility.yul\":25635:25641   */\n      dup4\n        /* \"#utility.yul\":25632:25633   */\n      dup2\n        /* \"#utility.yul\":25629:25642   */\n      gt\n        /* \"#utility.yul\":25626:25727   */\n      iszero\n      tag_715\n      jumpi\n        /* \"#utility.yul\":25715:25716   */\n      0x00\n        /* \"#utility.yul\":25706:25712   */\n      dup5\n        /* \"#utility.yul\":25701:25704   */\n      dup5\n        /* \"#utility.yul\":25697:25713   */\n      add\n        /* \"#utility.yul\":25690:25717   */\n      mstore\n        /* \"#utility.yul\":25626:25727   */\n    tag_715:\n        /* \"#utility.yul\":25475:25733   */\n      pop\n        /* \"#utility.yul\":25426:25733   */\n      pop\n      pop\n      pop\n      jump\t// out\n        /* \"#utility.yul\":25739:25919   */\n    tag_677:\n        /* \"#utility.yul\":25787:25864   */\n      0x4e487b7100000000000000000000000000000000000000000000000000000000\n        /* \"#utility.yul\":25784:25785   */\n      0x00\n        /* \"#utility.yul\":25777:25865   */\n      mstore\n        /* \"#utility.yul\":25884:25888   */\n      0x11\n        /* \"#utility.yul\":25881:25882   */\n      0x04\n        /* \"#utility.yul\":25874:25889   */\n      mstore\n        /* \"#utility.yul\":25908:25912   */\n      0x24\n        /* \"#utility.yul\":25905:25906   */\n      0x00\n        /* \"#utility.yul\":25898:25913   */\n      revert\n        /* \"#utility.yul\":25925:26105   */\n    tag_683:\n        /* \"#utility.yul\":25973:26050   */\n      0x4e487b7100000000000000000000000000000000000000000000000000000000\n        /* \"#utility.yul\":25970:25971   */\n      0x00\n        /* \"#utility.yul\":25963:26051   */\n      mstore\n        /* \"#utility.yul\":26070:26074   */\n      0x12\n        /* \"#utility.yul\":26067:26068   */\n      0x04\n        /* \"#utility.yul\":26060:26075   */\n      mstore\n        /* \"#utility.yul\":26094:26098   */\n      0x24\n        /* \"#utility.yul\":26091:26092   */\n      0x00\n        /* \"#utility.yul\":26084:26099   */\n      revert\n        /* \"#utility.yul\":26111:26291   */\n    tag_377:\n        /* \"#utility.yul\":26159:26236   */\n      0x4e487b7100000000000000000000000000000000000000000000000000000000\n        /* \"#utility.yul\":26156:26157   */\n      0x00\n        /* \"#utility.yul\":26149:26237   */\n      mstore\n        /* \"#utility.yul\":26256:26260   */\n      0x41\n        /* \"#utility.yul\":26253:26254   */\n      0x04\n        /* \"#utility.yul\":26246:26261   */\n      mstore\n        /* \"#utility.yul\":26280:26284   */\n      0x24\n        /* \"#utility.yul\":26277:26278   */\n      0x00\n        /* \"#utility.yul\":26270:26285   */\n      revert\n        /* \"#utility.yul\":26420:26537   */\n    tag_449:\n        /* \"#utility.yul\":26529:26530   */\n      0x00\n        /* \"#utility.yul\":26526:26527   */\n      dup1\n        /* \"#utility.yul\":26519:26531   */\n      revert\n        /* \"#utility.yul\":26543:26645   */\n    tag_495:\n        /* \"#utility.yul\":26584:26590   */\n      0x00\n        /* \"#utility.yul\":26635:26637   */\n      0x1f\n        /* \"#utility.yul\":26631:26638   */\n      not\n        /* \"#utility.yul\":26626:26628   */\n      0x1f\n        /* \"#utility.yul\":26619:26624   */\n      dup4\n        /* \"#utility.yul\":26615:26629   */\n      add\n        /* \"#utility.yul\":26611:26639   */\n      and\n        /* \"#utility.yul\":26601:26639   */\n      swap1\n      pop\n        /* \"#utility.yul\":26543:26645   */\n      swap2\n      swap1\n      pop\n      jump\t// out\n        /* \"#utility.yul\":26651:26891   */\n    tag_500:\n        /* \"#utility.yul\":26791:26825   */\n      0x41424f41543a64697361626c6557686974656c6973743a2057686974656c6973\n        /* \"#utility.yul\":26787:26788   */\n      0x00\n        /* \"#utility.yul\":26779:26785   */\n      dup3\n        /* \"#utility.yul\":26775:26789   */\n      add\n        /* \"#utility.yul\":26768:26826   */\n      mstore\n        /* \"#utility.yul\":26860:26883   */\n      0x7420697320616c72656164792064697361626c65640000000000000000000000\n        /* \"#utility.yul\":26855:26857   */\n      0x20\n        /* \"#utility.yul\":26847:26853   */\n      dup3\n        /* \"#utility.yul\":26843:26858   */\n      add\n        /* \"#utility.yul\":26836:26884   */\n      mstore\n        /* \"#utility.yul\":26651:26891   */\n      pop\n      jump\t// out\n        /* \"#utility.yul\":26897:27122   */\n    tag_505:\n        /* \"#utility.yul\":27037:27071   */\n      0x4f776e61626c653a206e6577206f776e657220697320746865207a65726f2061\n        /* \"#utility.yul\":27033:27034   */\n      0x00\n        /* \"#utility.yul\":27025:27031   */\n      dup3\n        /* \"#utility.yul\":27021:27035   */\n      add\n        /* \"#utility.yul\":27014:27072   */\n      mstore\n        /* \"#utility.yul\":27106:27114   */\n      0x6464726573730000000000000000000000000000000000000000000000000000\n        /* \"#utility.yul\":27101:27103   */\n      0x20\n        /* \"#utility.yul\":27093:27099   */\n      dup3\n        /* \"#utility.yul\":27089:27104   */\n      add\n        /* \"#utility.yul\":27082:27115   */\n      mstore\n        /* \"#utility.yul\":26897:27122   */\n      pop\n      jump\t// out\n        /* \"#utility.yul\":27128:27372   */\n    tag_510:\n        /* \"#utility.yul\":27268:27302   */\n      0x41424f41543a3a6275793a20416d6f756e7420776f756c642065786365656420\n        /* \"#utility.yul\":27264:27265   */\n      0x00\n        /* \"#utility.yul\":27256:27262   */\n      dup3\n        /* \"#utility.yul\":27252:27266   */\n      add\n        /* \"#utility.yul\":27245:27303   */\n      mstore\n        /* \"#utility.yul\":27337:27364   */\n      0x746865206d6178696d756d20616c6c6f776564206c696d697400000000000000\n        /* \"#utility.yul\":27332:27334   */\n      0x20\n        /* \"#utility.yul\":27324:27330   */\n      dup3\n        /* \"#utility.yul\":27320:27335   */\n      add\n        /* \"#utility.yul\":27313:27365   */\n      mstore\n        /* \"#utility.yul\":27128:27372   */\n      pop\n      jump\t// out\n        /* \"#utility.yul\":27378:27617   */\n    tag_515:\n        /* \"#utility.yul\":27518:27552   */\n      0x5472616e7366657248656c7065723a3a736166655472616e736665724554483a\n        /* \"#utility.yul\":27514:27515   */\n      0x00\n        /* \"#utility.yul\":27506:27512   */\n      dup3\n        /* \"#utility.yul\":27502:27516   */\n      add\n        /* \"#utility.yul\":27495:27553   */\n      mstore\n        /* \"#utility.yul\":27587:27609   */\n      0x20455448207472616e73666572206661696c6564000000000000000000000000\n        /* \"#utility.yul\":27582:27584   */\n      0x20\n        /* \"#utility.yul\":27574:27580   */\n      dup3\n        /* \"#utility.yul\":27570:27585   */\n      add\n        /* \"#utility.yul\":27563:27610   */\n      mstore\n        /* \"#utility.yul\":27378:27617   */\n      pop\n      jump\t// out\n        /* \"#utility.yul\":27623:27851   */\n    tag_520:\n        /* \"#utility.yul\":27763:27797   */\n      0x41424f41543a3a636c61696d3a20436c61696d206973206e6f7420617661696c\n        /* \"#utility.yul\":27759:27760   */\n      0x00\n        /* \"#utility.yul\":27751:27757   */\n      dup3\n        /* \"#utility.yul\":27747:27761   */\n      add\n        /* \"#utility.yul\":27740:27798   */\n      mstore\n        /* \"#utility.yul\":27832:27843   */\n      0x61626c65207965742e0000000000000000000000000000000000000000000000\n        /* \"#utility.yul\":27827:27829   */\n      0x20\n        /* \"#utility.yul\":27819:27825   */\n      dup3\n        /* \"#utility.yul\":27815:27830   */\n      add\n        /* \"#utility.yul\":27808:27844   */\n      mstore\n        /* \"#utility.yul\":27623:27851   */\n      pop\n      jump\t// out\n        /* \"#utility.yul\":27857:28104   */\n    tag_525:\n        /* \"#utility.yul\":27997:28031   */\n      0x41424f41543a3a636c61696d3a20416c726561647920636c61696d656420796f\n        /* \"#utility.yul\":27993:27994   */\n      0x00\n        /* \"#utility.yul\":27985:27991   */\n      dup3\n        /* \"#utility.yul\":27981:27995   */\n      add\n        /* \"#utility.yul\":27974:28032   */\n      mstore\n        /* \"#utility.yul\":28066:28096   */\n      0x75722063757272656e746c7920656c696769626c6520746f6b656e7300000000\n        /* \"#utility.yul\":28061:28063   */\n      0x20\n        /* \"#utility.yul\":28053:28059   */\n      dup3\n        /* \"#utility.yul\":28049:28064   */\n      add\n        /* \"#utility.yul\":28042:28097   */\n      mstore\n        /* \"#utility.yul\":27857:28104   */\n      pop\n      jump\t// out\n        /* \"#utility.yul\":28110:28335   */\n    tag_530:\n        /* \"#utility.yul\":28250:28284   */\n      0x416464726573733a20696e73756666696369656e742062616c616e636520666f\n        /* \"#utility.yul\":28246:28247   */\n      0x00\n        /* \"#utility.yul\":28238:28244   */\n      dup3\n        /* \"#utility.yul\":28234:28248   */\n      add\n        /* \"#utility.yul\":28227:28285   */\n      mstore\n        /* \"#utility.yul\":28319:28327   */\n      0x722063616c6c0000000000000000000000000000000000000000000000000000\n        /* \"#utility.yul\":28314:28316   */\n      0x20\n        /* \"#utility.yul\":28306:28312   */\n      dup3\n        /* \"#utility.yul\":28302:28317   */\n      add\n        /* \"#utility.yul\":28295:28328   */\n      mstore\n        /* \"#utility.yul\":28110:28335   */\n      pop\n      jump\t// out\n        /* \"#utility.yul\":28341:28577   */\n    tag_535:\n        /* \"#utility.yul\":28481:28515   */\n      0x41424f41543a3a6275793a20596f75277265206e6f742077686974656c697374\n        /* \"#utility.yul\":28477:28478   */\n      0x00\n        /* \"#utility.yul\":28469:28475   */\n      dup3\n        /* \"#utility.yul\":28465:28479   */\n      add\n        /* \"#utility.yul\":28458:28516   */\n      mstore\n        /* \"#utility.yul\":28550:28569   */\n      0x656420666f7220746869732073616c6521000000000000000000000000000000\n        /* \"#utility.yul\":28545:28547   */\n      0x20\n        /* \"#utility.yul\":28537:28543   */\n      dup3\n        /* \"#utility.yul\":28533:28548   */\n      add\n        /* \"#utility.yul\":28526:28570   */\n      mstore\n        /* \"#utility.yul\":28341:28577   */\n      pop\n      jump\t// out\n        /* \"#utility.yul\":28583:28877   */\n    tag_540:\n        /* \"#utility.yul\":28723:28757   */\n      0x41424f41543a3a757064617465526577617264546f6b656e3a204e6577207265\n        /* \"#utility.yul\":28719:28720   */\n      0x00\n        /* \"#utility.yul\":28711:28717   */\n      dup3\n        /* \"#utility.yul\":28707:28721   */\n      add\n        /* \"#utility.yul\":28700:28758   */\n      mstore\n        /* \"#utility.yul\":28792:28826   */\n      0x776172642073686f756c6420626520646966666572656e742066726f6d206375\n        /* \"#utility.yul\":28787:28789   */\n      0x20\n        /* \"#utility.yul\":28779:28785   */\n      dup3\n        /* \"#utility.yul\":28775:28790   */\n      add\n        /* \"#utility.yul\":28768:28827   */\n      mstore\n        /* \"#utility.yul\":28861:28869   */\n      0x7272656e742e0000000000000000000000000000000000000000000000000000\n        /* \"#utility.yul\":28856:28858   */\n      0x40\n        /* \"#utility.yul\":28848:28854   */\n      dup3\n        /* \"#utility.yul\":28844:28859   */\n      add\n        /* \"#utility.yul\":28837:28870   */\n      mstore\n        /* \"#utility.yul\":28583:28877   */\n      pop\n      jump\t// out\n        /* \"#utility.yul\":28883:29200   */\n    tag_545:\n        /* \"#utility.yul\":29023:29057   */\n      0x41424f41543a3a636c61696d3a205468652070657263656e74616765206f6620\n        /* \"#utility.yul\":29019:29020   */\n      0x00\n        /* \"#utility.yul\":29011:29017   */\n      dup3\n        /* \"#utility.yul\":29007:29021   */\n      add\n        /* \"#utility.yul\":29000:29058   */\n      mstore\n        /* \"#utility.yul\":29092:29126   */\n      0x746f6b656e20796f752063616e20636c61696d2069732063757272656e746c79\n        /* \"#utility.yul\":29087:29089   */\n      0x20\n        /* \"#utility.yul\":29079:29085   */\n      dup3\n        /* \"#utility.yul\":29075:29090   */\n      add\n        /* \"#utility.yul\":29068:29127   */\n      mstore\n        /* \"#utility.yul\":29161:29192   */\n      0x207a65726f2e20506c656173652074727920616761696e206c61746572000000\n        /* \"#utility.yul\":29156:29158   */\n      0x40\n        /* \"#utility.yul\":29148:29154   */\n      dup3\n        /* \"#utility.yul\":29144:29159   */\n      add\n        /* \"#utility.yul\":29137:29193   */\n      mstore\n        /* \"#utility.yul\":28883:29200   */\n      pop\n      jump\t// out\n        /* \"#utility.yul\":29206:29586   */\n    tag_550:\n        /* \"#utility.yul\":29346:29380   */\n      0x41424f41543a3a757064617465526577617264546f6b656e3a2054686520636f\n        /* \"#utility.yul\":29342:29343   */\n      0x00\n        /* \"#utility.yul\":29334:29340   */\n      dup3\n        /* \"#utility.yul\":29330:29344   */\n      add\n        /* \"#utility.yul\":29323:29381   */\n      mstore\n        /* \"#utility.yul\":29415:29449   */\n      0x6e74726163742073686f756c6420636f6e7461696e2061746c65617374207468\n        /* \"#utility.yul\":29410:29412   */\n      0x20\n        /* \"#utility.yul\":29402:29408   */\n      dup3\n        /* \"#utility.yul\":29398:29413   */\n      add\n        /* \"#utility.yul\":29391:29450   */\n      mstore\n        /* \"#utility.yul\":29484:29518   */\n      0x652073616d6520616d6f756e74206f6620746f6b656e732061732066726f6d20\n        /* \"#utility.yul\":29479:29481   */\n      0x40\n        /* \"#utility.yul\":29471:29477   */\n      dup3\n        /* \"#utility.yul\":29467:29482   */\n      add\n        /* \"#utility.yul\":29460:29519   */\n      mstore\n        /* \"#utility.yul\":29553:29578   */\n      0x7468652063757272656e7420726577617264546f6b656e000000000000000000\n        /* \"#utility.yul\":29548:29550   */\n      0x60\n        /* \"#utility.yul\":29540:29546   */\n      dup3\n        /* \"#utility.yul\":29536:29551   */\n      add\n        /* \"#utility.yul\":29529:29579   */\n      mstore\n        /* \"#utility.yul\":29206:29586   */\n      pop\n      jump\t// out\n        /* \"#utility.yul\":29592:29774   */\n    tag_555:\n        /* \"#utility.yul\":29732:29766   */\n      0x4f776e61626c653a2063616c6c6572206973206e6f7420746865206f776e6572\n        /* \"#utility.yul\":29728:29729   */\n      0x00\n        /* \"#utility.yul\":29720:29726   */\n      dup3\n        /* \"#utility.yul\":29716:29730   */\n      add\n        /* \"#utility.yul\":29709:29767   */\n      mstore\n        /* \"#utility.yul\":29592:29774   */\n      pop\n      jump\t// out\n        /* \"#utility.yul\":29780:30020   */\n    tag_560:\n        /* \"#utility.yul\":29920:29954   */\n      0x41424f41543a3a6275793a20416d6f756e7420776f756c642065786365656420\n        /* \"#utility.yul\":29916:29917   */\n      0x00\n        /* \"#utility.yul\":29908:29914   */\n      dup3\n        /* \"#utility.yul\":29904:29918   */\n      add\n        /* \"#utility.yul\":29897:29955   */\n      mstore\n        /* \"#utility.yul\":29989:30012   */\n      0x7468652072656d61696e696e672062616c616e63650000000000000000000000\n        /* \"#utility.yul\":29984:29986   */\n      0x20\n        /* \"#utility.yul\":29976:29982   */\n      dup3\n        /* \"#utility.yul\":29972:29987   */\n      add\n        /* \"#utility.yul\":29965:30013   */\n      mstore\n        /* \"#utility.yul\":29780:30020   */\n      pop\n      jump\t// out\n        /* \"#utility.yul\":30026:30205   */\n    tag_565:\n        /* \"#utility.yul\":30166:30197   */\n      0x416464726573733a2063616c6c20746f206e6f6e2d636f6e7472616374000000\n        /* \"#utility.yul\":30162:30163   */\n      0x00\n        /* \"#utility.yul\":30154:30160   */\n      dup3\n        /* \"#utility.yul\":30150:30164   */\n      add\n        /* \"#utility.yul\":30143:30198   */\n      mstore\n        /* \"#utility.yul\":30026:30205   */\n      pop\n      jump\t// out\n        /* \"#utility.yul\":30211:30433   */\n    tag_570:\n        /* \"#utility.yul\":30351:30385   */\n      0x41424f41543a3a636c61696d3a2053616c65206973206e6f74206f7665722079\n        /* \"#utility.yul\":30347:30348   */\n      0x00\n        /* \"#utility.yul\":30339:30345   */\n      dup3\n        /* \"#utility.yul\":30335:30349   */\n      add\n        /* \"#utility.yul\":30328:30386   */\n      mstore\n        /* \"#utility.yul\":30420:30425   */\n      0x6574210000000000000000000000000000000000000000000000000000000000\n        /* \"#utility.yul\":30415:30417   */\n      0x20\n        /* \"#utility.yul\":30407:30413   */\n      dup3\n        /* \"#utility.yul\":30403:30418   */\n      add\n        /* \"#utility.yul\":30396:30426   */\n      mstore\n        /* \"#utility.yul\":30211:30433   */\n      pop\n      jump\t// out\n        /* \"#utility.yul\":30439:30671   */\n    tag_575:\n        /* \"#utility.yul\":30579:30613   */\n      0x5472616e7366657248656c7065723a3a736166655472616e736665723a207472\n        /* \"#utility.yul\":30575:30576   */\n      0x00\n        /* \"#utility.yul\":30567:30573   */\n      dup3\n        /* \"#utility.yul\":30563:30577   */\n      add\n        /* \"#utility.yul\":30556:30614   */\n      mstore\n        /* \"#utility.yul\":30648:30663   */\n      0x616e73666572206661696c656400000000000000000000000000000000000000\n        /* \"#utility.yul\":30643:30645   */\n      0x20\n        /* \"#utility.yul\":30635:30641   */\n      dup3\n        /* \"#utility.yul\":30631:30646   */\n      add\n        /* \"#utility.yul\":30624:30664   */\n      mstore\n        /* \"#utility.yul\":30439:30671   */\n      pop\n      jump\t// out\n        /* \"#utility.yul\":30677:30906   */\n    tag_580:\n        /* \"#utility.yul\":30817:30851   */\n      0x41424f41543a3a636c61696d416e64456e6453616c653a2053616c6520616c72\n        /* \"#utility.yul\":30813:30814   */\n      0x00\n        /* \"#utility.yul\":30805:30811   */\n      dup3\n        /* \"#utility.yul\":30801:30815   */\n      add\n        /* \"#utility.yul\":30794:30852   */\n      mstore\n        /* \"#utility.yul\":30886:30898   */\n      0x6561647920656e64656400000000000000000000000000000000000000000000\n        /* \"#utility.yul\":30881:30883   */\n      0x20\n        /* \"#utility.yul\":30873:30879   */\n      dup3\n        /* \"#utility.yul\":30869:30884   */\n      add\n        /* \"#utility.yul\":30862:30899   */\n      mstore\n        /* \"#utility.yul\":30677:30906   */\n      pop\n      jump\t// out\n        /* \"#utility.yul\":30912:31141   */\n    tag_585:\n        /* \"#utility.yul\":31052:31086   */\n      0x5361666545524332303a204552433230206f7065726174696f6e20646964206e\n        /* \"#utility.yul\":31048:31049   */\n      0x00\n        /* \"#utility.yul\":31040:31046   */\n      dup3\n        /* \"#utility.yul\":31036:31050   */\n      add\n        /* \"#utility.yul\":31029:31087   */\n      mstore\n        /* \"#utility.yul\":31121:31133   */\n      0x6f74207375636365656400000000000000000000000000000000000000000000\n        /* \"#utility.yul\":31116:31118   */\n      0x20\n        /* \"#utility.yul\":31108:31114   */\n      dup3\n        /* \"#utility.yul\":31104:31119   */\n      add\n        /* \"#utility.yul\":31097:31134   */\n      mstore\n        /* \"#utility.yul\":30912:31141   */\n      pop\n      jump\t// out\n        /* \"#utility.yul\":31147:31372   */\n    tag_590:\n        /* \"#utility.yul\":31287:31321   */\n      0x41424f41543a3a7570646174654166746572446179733a2053616c65206e6f74\n        /* \"#utility.yul\":31283:31284   */\n      0x00\n        /* \"#utility.yul\":31275:31281   */\n      dup3\n        /* \"#utility.yul\":31271:31285   */\n      add\n        /* \"#utility.yul\":31264:31322   */\n      mstore\n        /* \"#utility.yul\":31356:31364   */\n      0x20656e6465640000000000000000000000000000000000000000000000000000\n        /* \"#utility.yul\":31351:31353   */\n      0x20\n        /* \"#utility.yul\":31343:31349   */\n      dup3\n        /* \"#utility.yul\":31339:31354   */\n      add\n        /* \"#utility.yul\":31332:31365   */\n      mstore\n        /* \"#utility.yul\":31147:31372   */\n      pop\n      jump\t// out\n        /* \"#utility.yul\":31378:31559   */\n    tag_595:\n        /* \"#utility.yul\":31518:31551   */\n      0x41424f41543a3a6275793a2053616c6520616c726561647920656e6465642100\n        /* \"#utility.yul\":31514:31515   */\n      0x00\n        /* \"#utility.yul\":31506:31512   */\n      dup3\n        /* \"#utility.yul\":31502:31516   */\n      add\n        /* \"#utility.yul\":31495:31552   */\n      mstore\n        /* \"#utility.yul\":31378:31559   */\n      pop\n      jump\t// out\n        /* \"#utility.yul\":31565:31804   */\n    tag_600:\n        /* \"#utility.yul\":31705:31739   */\n      0x41424f41543a3a6275793a2053656e742076616c756520646f65736e2774206d\n        /* \"#utility.yul\":31701:31702   */\n      0x00\n        /* \"#utility.yul\":31693:31699   */\n      dup3\n        /* \"#utility.yul\":31689:31703   */\n      add\n        /* \"#utility.yul\":31682:31740   */\n      mstore\n        /* \"#utility.yul\":31774:31796   */\n      0x6565742074686520676976656e20616d6f756e74000000000000000000000000\n        /* \"#utility.yul\":31769:31771   */\n      0x20\n        /* \"#utility.yul\":31761:31767   */\n      dup3\n        /* \"#utility.yul\":31757:31772   */\n      add\n        /* \"#utility.yul\":31750:31797   */\n      mstore\n        /* \"#utility.yul\":31565:31804   */\n      pop\n      jump\t// out\n        /* \"#utility.yul\":31810:31932   */\n    tag_430:\n        /* \"#utility.yul\":31883:31907   */\n      tag_745\n        /* \"#utility.yul\":31901:31906   */\n      dup2\n        /* \"#utility.yul\":31883:31907   */\n      tag_470\n      jump\t// in\n    tag_745:\n        /* \"#utility.yul\":31876:31881   */\n      dup2\n        /* \"#utility.yul\":31873:31908   */\n      eq\n        /* \"#utility.yul\":31863:31926   */\n      tag_746\n      jumpi\n        /* \"#utility.yul\":31922:31923   */\n      0x00\n        /* \"#utility.yul\":31919:31920   */\n      dup1\n        /* \"#utility.yul\":31912:31924   */\n      revert\n        /* \"#utility.yul\":31863:31926   */\n    tag_746:\n        /* \"#utility.yul\":31810:31932   */\n      pop\n      jump\t// out\n        /* \"#utility.yul\":31938:32054   */\n    tag_434:\n        /* \"#utility.yul\":32008:32029   */\n      tag_748\n        /* \"#utility.yul\":32023:32028   */\n      dup2\n        /* \"#utility.yul\":32008:32029   */\n      tag_474\n      jump\t// in\n    tag_748:\n        /* \"#utility.yul\":32001:32006   */\n      dup2\n        /* \"#utility.yul\":31998:32030   */\n      eq\n        /* \"#utility.yul\":31988:32048   */\n      tag_749\n      jumpi\n        /* \"#utility.yul\":32044:32045   */\n      0x00\n        /* \"#utility.yul\":32041:32042   */\n      dup1\n        /* \"#utility.yul\":32034:32046   */\n      revert\n        /* \"#utility.yul\":31988:32048   */\n    tag_749:\n        /* \"#utility.yul\":31938:32054   */\n      pop\n      jump\t// out\n        /* \"#utility.yul\":32060:32210   */\n    tag_438:\n        /* \"#utility.yul\":32147:32185   */\n      tag_751\n        /* \"#utility.yul\":32179:32184   */\n      dup2\n        /* \"#utility.yul\":32147:32185   */\n      tag_698\n      jump\t// in\n    tag_751:\n        /* \"#utility.yul\":32140:32145   */\n      dup2\n        /* \"#utility.yul\":32137:32186   */\n      eq\n        /* \"#utility.yul\":32127:32204   */\n      tag_752\n      jumpi\n        /* \"#utility.yul\":32200:32201   */\n      0x00\n        /* \"#utility.yul\":32197:32198   */\n      dup1\n        /* \"#utility.yul\":32190:32202   */\n      revert\n        /* \"#utility.yul\":32127:32204   */\n    tag_752:\n        /* \"#utility.yul\":32060:32210   */\n      pop\n      jump\t// out\n        /* \"#utility.yul\":32216:32338   */\n    tag_442:\n        /* \"#utility.yul\":32289:32313   */\n      tag_754\n        /* \"#utility.yul\":32307:32312   */\n      dup2\n        /* \"#utility.yul\":32289:32313   */\n      tag_604\n      jump\t// in\n    tag_754:\n        /* \"#utility.yul\":32282:32287   */\n      dup2\n        /* \"#utility.yul\":32279:32314   */\n      eq\n        /* \"#utility.yul\":32269:32332   */\n      tag_755\n      jumpi\n        /* \"#utility.yul\":32328:32329   */\n      0x00\n        /* \"#utility.yul\":32325:32326   */\n      dup1\n        /* \"#utility.yul\":32318:32330   */\n      revert\n        /* \"#utility.yul\":32269:32332   */\n    tag_755:\n        /* \"#utility.yul\":32216:32338   */\n      pop\n      jump\t// out\n\n    auxdata: 0xa2646970667358221220c83e204a03f114549c88860c51a653dfa678a596ab368c05f7389efe0c4495e364736f6c63430008070033\n}\n",
				"bytecode": {
					"linkReferences": {},
					"object": "608060405260006007556001600960006101000a81548160ff0219169083151502179055503480156200003157600080fd5b5060405162003d8938038062003d89833981810160405281019062000057919062000259565b620000776200006b6200015f60201b60201c565b6200016760201b60201c565b60008111620000bd576040517f08c379a0000000000000000000000000000000000000000000000000000000008152600401620000b49062000308565b60405180910390fd5b84600160006101000a81548173ffffffffffffffffffffffffffffffffffffffff021916908373ffffffffffffffffffffffffffffffffffffffff16021790555083600260006101000a81548173ffffffffffffffffffffffffffffffffffffffff021916908373ffffffffffffffffffffffffffffffffffffffff160217905550826004819055508160058190555080600381905550505050505062000415565b600033905090565b60008060009054906101000a900473ffffffffffffffffffffffffffffffffffffffff169050816000806101000a81548173ffffffffffffffffffffffffffffffffffffffff021916908373ffffffffffffffffffffffffffffffffffffffff1602179055508173ffffffffffffffffffffffffffffffffffffffff168173ffffffffffffffffffffffffffffffffffffffff167f8be0079c531659141344cd1fd0a4f28419497f9722a3daafe3b4186f6b6457e060405160405180910390a35050565b6000815190506200023c81620003e1565b92915050565b6000815190506200025381620003fb565b92915050565b600080600080600060a086880312156200027857620002776200038d565b5b600062000288888289016200022b565b95505060206200029b888289016200022b565b9450506040620002ae8882890162000242565b9350506060620002c18882890162000242565b9250506080620002d48882890162000242565b9150509295509295909350565b6000620002f0602e836200032a565b9150620002fd8262000392565b604082019050919050565b600060208201905081810360008301526200032381620002e1565b9050919050565b600082825260208201905092915050565b6000620003488262000363565b9050919050565b60006200035c826200033b565b9050919050565b600073ffffffffffffffffffffffffffffffffffffffff82169050919050565b6000819050919050565b600080fd5b7f41424f41543a3a6572726f723a2050726963652068617320746f20626520686960008201527f67686572207468616e207a65726f000000000000000000000000000000000000602082015250565b620003ec816200034f565b8114620003f857600080fd5b50565b620004068162000383565b81146200041257600080fd5b50565b61396480620004256000396000f3fe6080604052600436106101c25760003560e01c8063a4d66daf116100f7578063e754e7c411610095578063f3739e0511610064578063f3739e05146105f1578063f7c618c11461062e578063f89be59314610659578063f8cf31cb14610684576101c2565b8063e754e7c414610549578063ef78d4fd14610574578063efe95f511461059f578063f2fde38b146105c8576101c2565b8063c884ef83116100d1578063c884ef831461049c578063d6b0f484146104d9578063d936547e146104f0578063d96a094a1461052d576101c2565b8063a4d66daf14610409578063a5ebf83514610434578063a960c65f1461045f576101c2565b8063667022fd11610164578063856734c41161013e578063856734c41461035d5780638da5cb5b146103885780639b8906ae146103b35780639c92431b146103de576101c2565b8063667022fd146102de578063715018a61461031b5780637b1b1de614610332576101c2565b80632fba2c85116101a05780632fba2c85146102465780633013ce29146102715780634e71d92d1461029c5780635ed9ebfc146102b3576101c2565b80630c0e0862146101c7578063151bad0a146101f05780632f6619461461021b575b600080fd5b3480156101d357600080fd5b506101ee60048036038101906101e99190612800565b6106ad565b005b3480156101fc57600080fd5b50610205610779565b6040516102129190612f69565b60405180910390f35b34801561022757600080fd5b5061023061077e565b60405161023d9190612f69565b60405180910390f35b34801561025257600080fd5b5061025b610783565b6040516102689190612f69565b60405180910390f35b34801561027d57600080fd5b506102866108bc565b6040516102939190612c8c565b60405180910390f35b3480156102a857600080fd5b506102b16108e2565b005b3480156102bf57600080fd5b506102c86110d3565b6040516102d59190612f69565b60405180910390f35b3480156102ea57600080fd5b5061030560048036038101906103009190612779565b6110d9565b6040516103129190612f69565b60405180910390f35b34801561032757600080fd5b506103306110f1565b005b34801561033e57600080fd5b50610347611179565b6040516103549190612f69565b60405180910390f35b34801561036957600080fd5b5061037261117f565b60405161037f9190612c71565b60405180910390f35b34801561039457600080fd5b5061039d611192565b6040516103aa9190612bf6565b60405180910390f35b3480156103bf57600080fd5b506103c86111bb565b6040516103d59190612f69565b60405180910390f35b3480156103ea57600080fd5b506103f36111c1565b6040516104009190612f69565b60405180910390f35b34801561041557600080fd5b5061041e611298565b60405161042b9190612f69565b60405180910390f35b34801561044057600080fd5b5061044961129e565b6040516104569190612f69565b60405180910390f35b34801561046b57600080fd5b5061048660048036038101906104819190612779565b6112a3565b6040516104939190612f69565b60405180910390f35b3480156104a857600080fd5b506104c360048036038101906104be9190612779565b6112bb565b6040516104d09190612f69565b60405180910390f35b3480156104e557600080fd5b506104ee6112d3565b005b3480156104fc57600080fd5b5061051760048036038101906105129190612779565b6113bb565b6040516105249190612c71565b60405180910390f35b61054760048036038101906105429190612800565b6113db565b005b34801561055557600080fd5b5061055e611877565b60405161056b9190612f69565b60405180910390f35b34801561058057600080fd5b5061058961187d565b6040516105969190612f69565b60405180910390f35b3480156105ab57600080fd5b506105c660048036038101906105c19190612800565b611882565b005b3480156105d457600080fd5b506105ef60048036038101906105ea9190612779565b611c3f565b005b3480156105fd57600080fd5b5061061860048036038101906106139190612779565b611d37565b6040516106259190612bf6565b60405180910390f35b34801561063a57600080fd5b50610643611d6a565b6040516106509190612c8c565b60405180910390f35b34801561066557600080fd5b5061066e611d90565b60405161067b9190612f69565b60405180910390f35b34801561069057600080fd5b506106ab60048036038101906106a691906127d3565b611d96565b005b6106b56120c0565b73ffffffffffffffffffffffffffffffffffffffff166106d3611192565b73ffffffffffffffffffffffffffffffffffffffff1614610729576040517f08c379a000000000000000000000000000000000000000000000000000000000815260040161072090612e29565b60405180910390fd5b6000600754141561076f576040517f08c379a000000000000000000000000000000000000000000000000000000000815260040161076690612f09565b60405180910390fd5b8060088190555050565b603281565b605a81565b60008073ffffffffffffffffffffffffffffffffffffffff16600160009054906101000a900473ffffffffffffffffffffffffffffffffffffffff1673ffffffffffffffffffffffffffffffffffffffff1614156107f7576107f0600654476120c890919063ffffffff16565b90506108b9565b6108b6600654600160009054906101000a900473ffffffffffffffffffffffffffffffffffffffff1673ffffffffffffffffffffffffffffffffffffffff166370a08231306040518263ffffffff1660e01b81526004016108589190612bf6565b60206040518083038186803b15801561087057600080fd5b505afa158015610884573d6000803e3d6000fd5b505050506040513d601f19601f820116820180604052508101906108a8919061282d565b6120c890919063ffffffff16565b90505b90565b600260009054906101000a900473ffffffffffffffffffffffffffffffffffffffff1681565b60006007541415610928576040517f08c379a000000000000000000000000000000000000000000000000000000000815260040161091f90612e89565b60405180910390fd5b610954610943620151806008546120de90919063ffffffff16565b6007546120f490919063ffffffff16565b421015610996576040517f08c379a000000000000000000000000000000000000000000000000000000000815260040161098d90612d49565b60405180910390fd5b60006109a06111c1565b9050600081116109e5576040517f08c379a00000000000000000000000000000000000000000000000000000000081526004016109dc90612de9565b60405180910390fd5b600160009054906101000a900473ffffffffffffffffffffffffffffffffffffffff1673ffffffffffffffffffffffffffffffffffffffff16600e60003373ffffffffffffffffffffffffffffffffffffffff1673ffffffffffffffffffffffffffffffffffffffff16815260200190815260200160002060009054906101000a900473ffffffffffffffffffffffffffffffffffffffff1673ffffffffffffffffffffffffffffffffffffffff1614610bc457600160009054906101000a900473ffffffffffffffffffffffffffffffffffffffff16600e60003373ffffffffffffffffffffffffffffffffffffffff1673ffffffffffffffffffffffffffffffffffffffff16815260200190815260200160002060006101000a81548173ffffffffffffffffffffffffffffffffffffffff021916908373ffffffffffffffffffffffffffffffffffffffff1602179055506000600c60003373ffffffffffffffffffffffffffffffffffffffff1673ffffffffffffffffffffffffffffffffffffffff168152602001908152602001600020819055506000600d60003373ffffffffffffffffffffffffffffffffffffffff1673ffffffffffffffffffffffffffffffffffffffff168152602001908152602001600020819055505b80600c60003373ffffffffffffffffffffffffffffffffffffffff1673ffffffffffffffffffffffffffffffffffffffff1681526020019081526020016000205410610c45576040517f08c379a0000000000000000000000000000000000000000000000000000000008152600401610c3c90612d69565b60405180910390fd5b60065460055411610ef5576000600c60003373ffffffffffffffffffffffffffffffffffffffff1673ffffffffffffffffffffffffffffffffffffffff16815260200190815260200160002054905081600c60003373ffffffffffffffffffffffffffffffffffffffff1673ffffffffffffffffffffffffffffffffffffffff168152602001908152602001600020819055506000610d80600354610d72670de0b6b3a7640000610d646103e8610d56610d08898b6120c890919063ffffffff16565b600b60003373ffffffffffffffffffffffffffffffffffffffff1673ffffffffffffffffffffffffffffffffffffffff168152602001908152602001600020546120de90919063ffffffff16565b61210a90919063ffffffff16565b6120de90919063ffffffff16565b61210a90919063ffffffff16565b9050610dd481600d60003373ffffffffffffffffffffffffffffffffffffffff1673ffffffffffffffffffffffffffffffffffffffff168152602001908152602001600020546120f490919063ffffffff16565b600d60003373ffffffffffffffffffffffffffffffffffffffff1673ffffffffffffffffffffffffffffffffffffffff16815260200190815260200160002081905550600073ffffffffffffffffffffffffffffffffffffffff16600160009054906101000a900473ffffffffffffffffffffffffffffffffffffffff1673ffffffffffffffffffffffffffffffffffffffff1614610e9f57610e9a600160009054906101000a900473ffffffffffffffffffffffffffffffffffffffff163383612120565b610eaa565b610ea93382612256565b5b803373ffffffffffffffffffffffffffffffffffffffff167fd8138f8a3f377c5259ca548e70e4c2de94f129f5a11036a15b69513cba2b426a60405160405180910390a350506110d0565b6103e8600c60003373ffffffffffffffffffffffffffffffffffffffff1673ffffffffffffffffffffffffffffffffffffffff16815260200190815260200160002081905550600073ffffffffffffffffffffffffffffffffffffffff16600260009054906101000a900473ffffffffffffffffffffffffffffffffffffffff1673ffffffffffffffffffffffffffffffffffffffff161461100257610ffd600260009054906101000a900473ffffffffffffffffffffffffffffffffffffffff1633600b60003373ffffffffffffffffffffffffffffffffffffffff1673ffffffffffffffffffffffffffffffffffffffff16815260200190815260200160002054612120565b61104c565b61104b33600b60003373ffffffffffffffffffffffffffffffffffffffff1673ffffffffffffffffffffffffffffffffffffffff16815260200190815260200160002054612256565b5b600b60003373ffffffffffffffffffffffffffffffffffffffff1673ffffffffffffffffffffffffffffffffffffffff168152602001908152602001600020543373ffffffffffffffffffffffffffffffffffffffff167fd8138f8a3f377c5259ca548e70e4c2de94f129f5a11036a15b69513cba2b426a60405160405180910390a35b50565b60065481565b600b6020528060005260406000206000915090505481565b6110f96120c0565b73ffffffffffffffffffffffffffffffffffffffff16611117611192565b73ffffffffffffffffffffffffffffffffffffffff161461116d576040517f08c379a000000000000000000000000000000000000000000000000000000000815260040161116490612e29565b60405180910390fd5b6111776000612356565b565b60035481565b600960009054906101000a900460ff1681565b60008060009054906101000a900473ffffffffffffffffffffffffffffffffffffffff16905090565b60075481565b6000806111da605a6007546120f490919063ffffffff16565b90506000611201620151806008546111f2919061303d565b836120f490919063ffffffff16565b905060008060075411801561121557508142115b61122057606461127b565b61127a606461126c603261125e62015180601e61123d919061303d565b61125088426120c890919063ffffffff16565b61210a90919063ffffffff16565b6120de90919063ffffffff16565b6120f490919063ffffffff16565b5b90506103e8811161128c5780611290565b6103e85b935050505090565b60045481565b606481565b600d6020528060005260406000206000915090505481565b600c6020528060005260406000206000915090505481565b6112db6120c0565b73ffffffffffffffffffffffffffffffffffffffff166112f9611192565b73ffffffffffffffffffffffffffffffffffffffff161461134f576040517f08c379a000000000000000000000000000000000000000000000000000000000815260040161134690612e29565b60405180910390fd5b600960009054906101000a900460ff1661139e576040517f08c379a000000000000000000000000000000000000000000000000000000000815260040161139590612cc9565b60405180910390fd5b6000600960006101000a81548160ff021916908315150217905550565b600a6020528060005260406000206000915054906101000a900460ff1681565b600060075414611420576040517f08c379a000000000000000000000000000000000000000000000000000000000815260040161141790612f29565b60405180910390fd5b600a60003373ffffffffffffffffffffffffffffffffffffffff1673ffffffffffffffffffffffffffffffffffffffff16815260200190815260200160002060009054906101000a900460ff16806114855750600960009054906101000a900460ff16155b6114c4576040517f08c379a00000000000000000000000000000000000000000000000000000000081526004016114bb90612da9565b60405180910390fd5b60008073ffffffffffffffffffffffffffffffffffffffff16600260009054906101000a900473ffffffffffffffffffffffffffffffffffffffff1673ffffffffffffffffffffffffffffffffffffffff1614905080158061152557508134145b611564576040517f08c379a000000000000000000000000000000000000000000000000000000000815260040161155b90612f49565b60405180910390fd5b6004546115b983600b60003373ffffffffffffffffffffffffffffffffffffffff1673ffffffffffffffffffffffffffffffffffffffff168152602001908152602001600020546120f490919063ffffffff16565b11156115fa576040517f08c379a00000000000000000000000000000000000000000000000000000000081526004016115f190612d09565b60405180910390fd5b600061162b60035461161d670de0b6b3a7640000866120de90919063ffffffff16565b61210a90919063ffffffff16565b905060006116498261163b610783565b6120c890919063ffffffff16565b11611689576040517f08c379a000000000000000000000000000000000000000000000000000000000815260040161168090612e49565b60405180910390fd5b816116de576116dd333085600260009054906101000a900473ffffffffffffffffffffffffffffffffffffffff1673ffffffffffffffffffffffffffffffffffffffff1661241a909392919063ffffffff16565b5b61173083600b60003373ffffffffffffffffffffffffffffffffffffffff1673ffffffffffffffffffffffffffffffffffffffff168152602001908152602001600020546120f490919063ffffffff16565b600b60003373ffffffffffffffffffffffffffffffffffffffff1673ffffffffffffffffffffffffffffffffffffffff16815260200190815260200160002081905550611788816006546120f490919063ffffffff16565b600681905550600260009054906101000a900473ffffffffffffffffffffffffffffffffffffffff16600e60003373ffffffffffffffffffffffffffffffffffffffff1673ffffffffffffffffffffffffffffffffffffffff16815260200190815260200160002060006101000a81548173ffffffffffffffffffffffffffffffffffffffff021916908373ffffffffffffffffffffffffffffffffffffffff160217905550823373ffffffffffffffffffffffffffffffffffffffff167fc55650ccda1011e1cdc769b1fbf546ebb8c97800b6072b49e06cd560305b1d6760405160405180910390a3505050565b60085481565b601e81565b61188a6120c0565b73ffffffffffffffffffffffffffffffffffffffff166118a8611192565b73ffffffffffffffffffffffffffffffffffffffff16146118fe576040517f08c379a00000000000000000000000000000000000000000000000000000000081526004016118f590612e29565b60405180910390fd5b600060075414611943576040517f08c379a000000000000000000000000000000000000000000000000000000000815260040161193a90612ec9565b60405180910390fd5b4260078190555060065460055411611a9e5780600881905550600073ffffffffffffffffffffffffffffffffffffffff16600260009054906101000a900473ffffffffffffffffffffffffffffffffffffffff1673ffffffffffffffffffffffffffffffffffffffff1614611a8e57611a89600260009054906101000a900473ffffffffffffffffffffffffffffffffffffffff1633600260009054906101000a900473ffffffffffffffffffffffffffffffffffffffff1673ffffffffffffffffffffffffffffffffffffffff166370a08231306040518263ffffffff1660e01b8152600401611a349190612bf6565b60206040518083038186803b158015611a4c57600080fd5b505afa158015611a60573d6000803e3d6000fd5b505050506040513d601f19601f82011682018060405250810190611a84919061282d565b612120565b611a99565b611a983347612256565b5b611be4565b6000600881905550600073ffffffffffffffffffffffffffffffffffffffff16600160009054906101000a900473ffffffffffffffffffffffffffffffffffffffff1673ffffffffffffffffffffffffffffffffffffffff1614611bd857611bd3600160009054906101000a900473ffffffffffffffffffffffffffffffffffffffff1633600160009054906101000a900473ffffffffffffffffffffffffffffffffffffffff1673ffffffffffffffffffffffffffffffffffffffff166370a08231306040518263ffffffff1660e01b8152600401611b7e9190612bf6565b60206040518083038186803b158015611b9657600080fd5b505afa158015611baa573d6000803e3d6000fd5b505050506040513d601f19601f82011682018060405250810190611bce919061282d565b612120565b611be3565b611be23347612256565b5b5b611c10611bff620151806008546120de90919063ffffffff16565b6007546120f490919063ffffffff16565b7f94bb74a9473ae4063ec1e73dc3e35fd4b5abe9cc1e43ad0db84e5358559ccd5a60405160405180910390a250565b611c476120c0565b73ffffffffffffffffffffffffffffffffffffffff16611c65611192565b73ffffffffffffffffffffffffffffffffffffffff1614611cbb576040517f08c379a0000000000000000000000000000000000000000000000000000000008152600401611cb290612e29565b60405180910390fd5b600073ffffffffffffffffffffffffffffffffffffffff168173ffffffffffffffffffffffffffffffffffffffff161415611d2b576040517f08c379a0000000000000000000000000000000000000000000000000000000008152600401611d2290612ce9565b60405180910390fd5b611d3481612356565b50565b600e6020528060005260406000206000915054906101000a900473ffffffffffffffffffffffffffffffffffffffff1681565b600160009054906101000a900473ffffffffffffffffffffffffffffffffffffffff1681565b60055481565b611d9e6120c0565b73ffffffffffffffffffffffffffffffffffffffff16611dbc611192565b73ffffffffffffffffffffffffffffffffffffffff1614611e12576040517f08c379a0000000000000000000000000000000000000000000000000000000008152600401611e0990612e29565b60405180910390fd5b600160009054906101000a900473ffffffffffffffffffffffffffffffffffffffff1673ffffffffffffffffffffffffffffffffffffffff168173ffffffffffffffffffffffffffffffffffffffff161415611ea3576040517f08c379a0000000000000000000000000000000000000000000000000000000008152600401611e9a90612dc9565b60405180910390fd5b600160009054906101000a900473ffffffffffffffffffffffffffffffffffffffff1673ffffffffffffffffffffffffffffffffffffffff166370a08231306040518263ffffffff1660e01b8152600401611efe9190612bf6565b60206040518083038186803b158015611f1657600080fd5b505afa158015611f2a573d6000803e3d6000fd5b505050506040513d601f19601f82011682018060405250810190611f4e919061282d565b8173ffffffffffffffffffffffffffffffffffffffff166370a08231306040518263ffffffff1660e01b8152600401611f879190612bf6565b60206040518083038186803b158015611f9f57600080fd5b505afa158015611fb3573d6000803e3d6000fd5b505050506040513d601f19601f82011682018060405250810190611fd7919061282d565b14612017576040517f08c379a000000000000000000000000000000000000000000000000000000000815260040161200e90612e09565b60405180910390fd5b80600160006101000a81548173ffffffffffffffffffffffffffffffffffffffff021916908373ffffffffffffffffffffffffffffffffffffffff160217905550600160009054906101000a900473ffffffffffffffffffffffffffffffffffffffff1673ffffffffffffffffffffffffffffffffffffffff167f3fcfc24a3384ca156092d9242cb0f84abaf442146d91b8c93bea526561b83f8360405160405180910390a250565b600033905090565b600081836120d69190613097565b905092915050565b600081836120ec919061303d565b905092915050565b600081836121029190612fb6565b905092915050565b60008183612118919061300c565b905092915050565b6000808473ffffffffffffffffffffffffffffffffffffffff1663a9059cbb8585604051602401612152929190612c48565b6040516020818303038152906040529060e01b6020820180517bffffffffffffffffffffffffffffffffffffffffffffffffffffffff83818316178352505050506040516121a09190612bdf565b6000604051808303816000865af19150503d80600081146121dd576040519150601f19603f3d011682016040523d82523d6000602084013e6121e2565b606091505b5091509150818015612210575060008151148061220f57508080602001905181019061220e91906127a6565b5b5b61224f576040517f08c379a000000000000000000000000000000000000000000000000000000000815260040161224690612ea9565b60405180910390fd5b5050505050565b60008273ffffffffffffffffffffffffffffffffffffffff1682600067ffffffffffffffff81111561228b5761228a6131ec565b5b6040519080825280601f01601f1916602001820160405280156122bd5781602001600182028036833780820191505090505b506040516122cb9190612bdf565b60006040518083038185875af1925050503d8060008114612308576040519150601f19603f3d011682016040523d82523d6000602084013e61230d565b606091505b5050905080612351576040517f08c379a000000000000000000000000000000000000000000000000000000000815260040161234890612d29565b60405180910390fd5b505050565b60008060009054906101000a900473ffffffffffffffffffffffffffffffffffffffff169050816000806101000a81548173ffffffffffffffffffffffffffffffffffffffff021916908373ffffffffffffffffffffffffffffffffffffffff1602179055508173ffffffffffffffffffffffffffffffffffffffff168173ffffffffffffffffffffffffffffffffffffffff167f8be0079c531659141344cd1fd0a4f28419497f9722a3daafe3b4186f6b6457e060405160405180910390a35050565b61249d846323b872dd60e01b85858560405160240161243b93929190612c11565b604051602081830303815290604052907bffffffffffffffffffffffffffffffffffffffffffffffffffffffff19166020820180517bffffffffffffffffffffffffffffffffffffffffffffffffffffffff83818316178352505050506124a3565b50505050565b6000612505826040518060400160405280602081526020017f5361666545524332303a206c6f772d6c6576656c2063616c6c206661696c65648152508573ffffffffffffffffffffffffffffffffffffffff1661256a9092919063ffffffff16565b9050600081511115612565578080602001905181019061252591906127a6565b612564576040517f08c379a000000000000000000000000000000000000000000000000000000000815260040161255b90612ee9565b60405180910390fd5b5b505050565b60606125798484600085612582565b90509392505050565b6060824710156125c7576040517f08c379a00000000000000000000000000000000000000000000000000000000081526004016125be90612d89565b60405180910390fd5b6125d085612696565b61260f576040517f08c379a000000000000000000000000000000000000000000000000000000000815260040161260690612e69565b60405180910390fd5b6000808673ffffffffffffffffffffffffffffffffffffffff1685876040516126389190612bdf565b60006040518083038185875af1925050503d8060008114612675576040519150601f19603f3d011682016040523d82523d6000602084013e61267a565b606091505b509150915061268a8282866126a9565b92505050949350505050565b600080823b905060008111915050919050565b606083156126b957829050612709565b6000835111156126cc5782518084602001fd5b816040517f08c379a00000000000000000000000000000000000000000000000000000000081526004016127009190612ca7565b60405180910390fd5b9392505050565b60008135905061271f816138d2565b92915050565b600081519050612734816138e9565b92915050565b60008135905061274981613900565b92915050565b60008135905061275e81613917565b92915050565b60008151905061277381613917565b92915050565b60006020828403121561278f5761278e61321b565b5b600061279d84828501612710565b91505092915050565b6000602082840312156127bc576127bb61321b565b5b60006127ca84828501612725565b91505092915050565b6000602082840312156127e9576127e861321b565b5b60006127f78482850161273a565b91505092915050565b6000602082840312156128165761281561321b565b5b60006128248482850161274f565b91505092915050565b6000602082840312156128435761284261321b565b5b600061285184828501612764565b91505092915050565b612863816130cb565b82525050565b612872816130dd565b82525050565b600061288382612f84565b61288d8185612f9a565b935061289d81856020860161315b565b80840191505092915050565b6128b281613125565b82525050565b60006128c382612f8f565b6128cd8185612fa5565b93506128dd81856020860161315b565b6128e681613220565b840191505092915050565b60006128fe603583612fa5565b915061290982613231565b604082019050919050565b6000612921602683612fa5565b915061292c82613280565b604082019050919050565b6000612944603983612fa5565b915061294f826132cf565b604082019050919050565b6000612967603483612fa5565b91506129728261331e565b604082019050919050565b600061298a602983612fa5565b91506129958261336d565b604082019050919050565b60006129ad603c83612fa5565b91506129b8826133bc565b604082019050919050565b60006129d0602683612fa5565b91506129db8261340b565b604082019050919050565b60006129f3603183612fa5565b91506129fe8261345a565b604082019050919050565b6000612a16604683612fa5565b9150612a21826134a9565b606082019050919050565b6000612a39605d83612fa5565b9150612a448261351e565b606082019050919050565b6000612a5c607783612fa5565b9150612a6782613593565b608082019050919050565b6000612a7f602083612fa5565b9150612a8a8261362e565b602082019050919050565b6000612aa2603583612fa5565b9150612aad82613657565b604082019050919050565b6000612ac5601d83612fa5565b9150612ad0826136a6565b602082019050919050565b6000612ae8602383612fa5565b9150612af3826136cf565b604082019050919050565b6000612b0b602d83612fa5565b9150612b168261371e565b604082019050919050565b6000612b2e602a83612fa5565b9150612b398261376d565b604082019050919050565b6000612b51602a83612fa5565b9150612b5c826137bc565b604082019050919050565b6000612b74602683612fa5565b9150612b7f8261380b565b604082019050919050565b6000612b97601f83612fa5565b9150612ba28261385a565b602082019050919050565b6000612bba603483612fa5565b9150612bc582613883565b604082019050919050565b612bd98161311b565b82525050565b6000612beb8284612878565b915081905092915050565b6000602082019050612c0b600083018461285a565b92915050565b6000606082019050612c26600083018661285a565b612c33602083018561285a565b612c406040830184612bd0565b949350505050565b6000604082019050612c5d600083018561285a565b612c6a6020830184612bd0565b9392505050565b6000602082019050612c866000830184612869565b92915050565b6000602082019050612ca160008301846128a9565b92915050565b60006020820190508181036000830152612cc181846128b8565b905092915050565b60006020820190508181036000830152612ce2816128f1565b9050919050565b60006020820190508181036000830152612d0281612914565b9050919050565b60006020820190508181036000830152612d2281612937565b9050919050565b60006020820190508181036000830152612d428161295a565b9050919050565b60006020820190508181036000830152612d628161297d565b9050919050565b60006020820190508181036000830152612d82816129a0565b9050919050565b60006020820190508181036000830152612da2816129c3565b9050919050565b60006020820190508181036000830152612dc2816129e6565b9050919050565b60006020820190508181036000830152612de281612a09565b9050919050565b60006020820190508181036000830152612e0281612a2c565b9050919050565b60006020820190508181036000830152612e2281612a4f565b9050919050565b60006020820190508181036000830152612e4281612a72565b9050919050565b60006020820190508181036000830152612e6281612a95565b9050919050565b60006020820190508181036000830152612e8281612ab8565b9050919050565b60006020820190508181036000830152612ea281612adb565b9050919050565b60006020820190508181036000830152612ec281612afe565b9050919050565b60006020820190508181036000830152612ee281612b21565b9050919050565b60006020820190508181036000830152612f0281612b44565b9050919050565b60006020820190508181036000830152612f2281612b67565b9050919050565b60006020820190508181036000830152612f4281612b8a565b9050919050565b60006020820190508181036000830152612f6281612bad565b9050919050565b6000602082019050612f7e6000830184612bd0565b92915050565b600081519050919050565b600081519050919050565b600081905092915050565b600082825260208201905092915050565b6000612fc18261311b565b9150612fcc8361311b565b9250827fffffffffffffffffffffffffffffffffffffffffffffffffffffffffffffffff038211156130015761300061318e565b5b828201905092915050565b60006130178261311b565b91506130228361311b565b925082613032576130316131bd565b5b828204905092915050565b60006130488261311b565b91506130538361311b565b9250817fffffffffffffffffffffffffffffffffffffffffffffffffffffffffffffffff048311821515161561308c5761308b61318e565b5b828202905092915050565b60006130a28261311b565b91506130ad8361311b565b9250828210156130c0576130bf61318e565b5b828203905092915050565b60006130d6826130fb565b9050919050565b60008115159050919050565b60006130f4826130cb565b9050919050565b600073ffffffffffffffffffffffffffffffffffffffff82169050919050565b6000819050919050565b600061313082613137565b9050919050565b600061314282613149565b9050919050565b6000613154826130fb565b9050919050565b60005b8381101561317957808201518184015260208101905061315e565b83811115613188576000848401525b50505050565b7f4e487b7100000000000000000000000000000000000000000000000000000000600052601160045260246000fd5b7f4e487b7100000000000000000000000000000000000000000000000000000000600052601260045260246000fd5b7f4e487b7100000000000000000000000000000000000000000000000000000000600052604160045260246000fd5b600080fd5b6000601f19601f8301169050919050565b7f41424f41543a64697361626c6557686974656c6973743a2057686974656c697360008201527f7420697320616c72656164792064697361626c65640000000000000000000000602082015250565b7f4f776e61626c653a206e6577206f776e657220697320746865207a65726f206160008201527f6464726573730000000000000000000000000000000000000000000000000000602082015250565b7f41424f41543a3a6275793a20416d6f756e7420776f756c64206578636565642060008201527f746865206d6178696d756d20616c6c6f776564206c696d697400000000000000602082015250565b7f5472616e7366657248656c7065723a3a736166655472616e736665724554483a60008201527f20455448207472616e73666572206661696c6564000000000000000000000000602082015250565b7f41424f41543a3a636c61696d3a20436c61696d206973206e6f7420617661696c60008201527f61626c65207965742e0000000000000000000000000000000000000000000000602082015250565b7f41424f41543a3a636c61696d3a20416c726561647920636c61696d656420796f60008201527f75722063757272656e746c7920656c696769626c6520746f6b656e7300000000602082015250565b7f416464726573733a20696e73756666696369656e742062616c616e636520666f60008201527f722063616c6c0000000000000000000000000000000000000000000000000000602082015250565b7f41424f41543a3a6275793a20596f75277265206e6f742077686974656c69737460008201527f656420666f7220746869732073616c6521000000000000000000000000000000602082015250565b7f41424f41543a3a757064617465526577617264546f6b656e3a204e657720726560008201527f776172642073686f756c6420626520646966666572656e742066726f6d20637560208201527f7272656e742e0000000000000000000000000000000000000000000000000000604082015250565b7f41424f41543a3a636c61696d3a205468652070657263656e74616765206f662060008201527f746f6b656e20796f752063616e20636c61696d2069732063757272656e746c7960208201527f207a65726f2e20506c656173652074727920616761696e206c61746572000000604082015250565b7f41424f41543a3a757064617465526577617264546f6b656e3a2054686520636f60008201527f6e74726163742073686f756c6420636f6e7461696e2061746c6561737420746860208201527f652073616d6520616d6f756e74206f6620746f6b656e732061732066726f6d2060408201527f7468652063757272656e7420726577617264546f6b656e000000000000000000606082015250565b7f4f776e61626c653a2063616c6c6572206973206e6f7420746865206f776e6572600082015250565b7f41424f41543a3a6275793a20416d6f756e7420776f756c64206578636565642060008201527f7468652072656d61696e696e672062616c616e63650000000000000000000000602082015250565b7f416464726573733a2063616c6c20746f206e6f6e2d636f6e7472616374000000600082015250565b7f41424f41543a3a636c61696d3a2053616c65206973206e6f74206f766572207960008201527f6574210000000000000000000000000000000000000000000000000000000000602082015250565b7f5472616e7366657248656c7065723a3a736166655472616e736665723a20747260008201527f616e73666572206661696c656400000000000000000000000000000000000000602082015250565b7f41424f41543a3a636c61696d416e64456e6453616c653a2053616c6520616c7260008201527f6561647920656e64656400000000000000000000000000000000000000000000602082015250565b7f5361666545524332303a204552433230206f7065726174696f6e20646964206e60008201527f6f74207375636365656400000000000000000000000000000000000000000000602082015250565b7f41424f41543a3a7570646174654166746572446179733a2053616c65206e6f7460008201527f20656e6465640000000000000000000000000000000000000000000000000000602082015250565b7f41424f41543a3a6275793a2053616c6520616c726561647920656e6465642100600082015250565b7f41424f41543a3a6275793a2053656e742076616c756520646f65736e2774206d60008201527f6565742074686520676976656e20616d6f756e74000000000000000000000000602082015250565b6138db816130cb565b81146138e657600080fd5b50565b6138f2816130dd565b81146138fd57600080fd5b50565b613909816130e9565b811461391457600080fd5b50565b6139208161311b565b811461392b57600080fd5b5056fea2646970667358221220c83e204a03f114549c88860c51a653dfa678a596ab368c05f7389efe0c4495e364736f6c63430008070033",
					"opcodes": "PUSH1 0x80 PUSH1 0x40 MSTORE PUSH1 0x0 PUSH1 0x7 SSTORE PUSH1 0x1 PUSH1 0x9 PUSH1 0x0 PUSH2 0x100 EXP DUP2 SLOAD DUP2 PUSH1 0xFF MUL NOT AND SWAP1 DUP4 ISZERO ISZERO MUL OR SWAP1 SSTORE POP CALLVALUE DUP1 ISZERO PUSH3 0x31 JUMPI PUSH1 0x0 DUP1 REVERT JUMPDEST POP PUSH1 0x40 MLOAD PUSH3 0x3D89 CODESIZE SUB DUP1 PUSH3 0x3D89 DUP4 CODECOPY DUP2 DUP2 ADD PUSH1 0x40 MSTORE DUP2 ADD SWAP1 PUSH3 0x57 SWAP2 SWAP1 PUSH3 0x259 JUMP JUMPDEST PUSH3 0x77 PUSH3 0x6B PUSH3 0x15F PUSH1 0x20 SHL PUSH1 0x20 SHR JUMP JUMPDEST PUSH3 0x167 PUSH1 0x20 SHL PUSH1 0x20 SHR JUMP JUMPDEST PUSH1 0x0 DUP2 GT PUSH3 0xBD JUMPI PUSH1 0x40 MLOAD PUSH32 0x8C379A000000000000000000000000000000000000000000000000000000000 DUP2 MSTORE PUSH1 0x4 ADD PUSH3 0xB4 SWAP1 PUSH3 0x308 JUMP JUMPDEST PUSH1 0x40 MLOAD DUP1 SWAP2 SUB SWAP1 REVERT JUMPDEST DUP5 PUSH1 0x1 PUSH1 0x0 PUSH2 0x100 EXP DUP2 SLOAD DUP2 PUSH20 0xFFFFFFFFFFFFFFFFFFFFFFFFFFFFFFFFFFFFFFFF MUL NOT AND SWAP1 DUP4 PUSH20 0xFFFFFFFFFFFFFFFFFFFFFFFFFFFFFFFFFFFFFFFF AND MUL OR SWAP1 SSTORE POP DUP4 PUSH1 0x2 PUSH1 0x0 PUSH2 0x100 EXP DUP2 SLOAD DUP2 PUSH20 0xFFFFFFFFFFFFFFFFFFFFFFFFFFFFFFFFFFFFFFFF MUL NOT AND SWAP1 DUP4 PUSH20 0xFFFFFFFFFFFFFFFFFFFFFFFFFFFFFFFFFFFFFFFF AND MUL OR SWAP1 SSTORE POP DUP3 PUSH1 0x4 DUP2 SWAP1 SSTORE POP DUP2 PUSH1 0x5 DUP2 SWAP1 SSTORE POP DUP1 PUSH1 0x3 DUP2 SWAP1 SSTORE POP POP POP POP POP POP PUSH3 0x415 JUMP JUMPDEST PUSH1 0x0 CALLER SWAP1 POP SWAP1 JUMP JUMPDEST PUSH1 0x0 DUP1 PUSH1 0x0 SWAP1 SLOAD SWAP1 PUSH2 0x100 EXP SWAP1 DIV PUSH20 0xFFFFFFFFFFFFFFFFFFFFFFFFFFFFFFFFFFFFFFFF AND SWAP1 POP DUP2 PUSH1 0x0 DUP1 PUSH2 0x100 EXP DUP2 SLOAD DUP2 PUSH20 0xFFFFFFFFFFFFFFFFFFFFFFFFFFFFFFFFFFFFFFFF MUL NOT AND SWAP1 DUP4 PUSH20 0xFFFFFFFFFFFFFFFFFFFFFFFFFFFFFFFFFFFFFFFF AND MUL OR SWAP1 SSTORE POP DUP2 PUSH20 0xFFFFFFFFFFFFFFFFFFFFFFFFFFFFFFFFFFFFFFFF AND DUP2 PUSH20 0xFFFFFFFFFFFFFFFFFFFFFFFFFFFFFFFFFFFFFFFF AND PUSH32 0x8BE0079C531659141344CD1FD0A4F28419497F9722A3DAAFE3B4186F6B6457E0 PUSH1 0x40 MLOAD PUSH1 0x40 MLOAD DUP1 SWAP2 SUB SWAP1 LOG3 POP POP JUMP JUMPDEST PUSH1 0x0 DUP2 MLOAD SWAP1 POP PUSH3 0x23C DUP2 PUSH3 0x3E1 JUMP JUMPDEST SWAP3 SWAP2 POP POP JUMP JUMPDEST PUSH1 0x0 DUP2 MLOAD SWAP1 POP PUSH3 0x253 DUP2 PUSH3 0x3FB JUMP JUMPDEST SWAP3 SWAP2 POP POP JUMP JUMPDEST PUSH1 0x0 DUP1 PUSH1 0x0 DUP1 PUSH1 0x0 PUSH1 0xA0 DUP7 DUP9 SUB SLT ISZERO PUSH3 0x278 JUMPI PUSH3 0x277 PUSH3 0x38D JUMP JUMPDEST JUMPDEST PUSH1 0x0 PUSH3 0x288 DUP9 DUP3 DUP10 ADD PUSH3 0x22B JUMP JUMPDEST SWAP6 POP POP PUSH1 0x20 PUSH3 0x29B DUP9 DUP3 DUP10 ADD PUSH3 0x22B JUMP JUMPDEST SWAP5 POP POP PUSH1 0x40 PUSH3 0x2AE DUP9 DUP3 DUP10 ADD PUSH3 0x242 JUMP JUMPDEST SWAP4 POP POP PUSH1 0x60 PUSH3 0x2C1 DUP9 DUP3 DUP10 ADD PUSH3 0x242 JUMP JUMPDEST SWAP3 POP POP PUSH1 0x80 PUSH3 0x2D4 DUP9 DUP3 DUP10 ADD PUSH3 0x242 JUMP JUMPDEST SWAP2 POP POP SWAP3 SWAP6 POP SWAP3 SWAP6 SWAP1 SWAP4 POP JUMP JUMPDEST PUSH1 0x0 PUSH3 0x2F0 PUSH1 0x2E DUP4 PUSH3 0x32A JUMP JUMPDEST SWAP2 POP PUSH3 0x2FD DUP3 PUSH3 0x392 JUMP JUMPDEST PUSH1 0x40 DUP3 ADD SWAP1 POP SWAP2 SWAP1 POP JUMP JUMPDEST PUSH1 0x0 PUSH1 0x20 DUP3 ADD SWAP1 POP DUP2 DUP2 SUB PUSH1 0x0 DUP4 ADD MSTORE PUSH3 0x323 DUP2 PUSH3 0x2E1 JUMP JUMPDEST SWAP1 POP SWAP2 SWAP1 POP JUMP JUMPDEST PUSH1 0x0 DUP3 DUP3 MSTORE PUSH1 0x20 DUP3 ADD SWAP1 POP SWAP3 SWAP2 POP POP JUMP JUMPDEST PUSH1 0x0 PUSH3 0x348 DUP3 PUSH3 0x363 JUMP JUMPDEST SWAP1 POP SWAP2 SWAP1 POP JUMP JUMPDEST PUSH1 0x0 PUSH3 0x35C DUP3 PUSH3 0x33B JUMP JUMPDEST SWAP1 POP SWAP2 SWAP1 POP JUMP JUMPDEST PUSH1 0x0 PUSH20 0xFFFFFFFFFFFFFFFFFFFFFFFFFFFFFFFFFFFFFFFF DUP3 AND SWAP1 POP SWAP2 SWAP1 POP JUMP JUMPDEST PUSH1 0x0 DUP2 SWAP1 POP SWAP2 SWAP1 POP JUMP JUMPDEST PUSH1 0x0 DUP1 REVERT JUMPDEST PUSH32 0x41424F41543A3A6572726F723A2050726963652068617320746F206265206869 PUSH1 0x0 DUP3 ADD MSTORE PUSH32 0x67686572207468616E207A65726F000000000000000000000000000000000000 PUSH1 0x20 DUP3 ADD MSTORE POP JUMP JUMPDEST PUSH3 0x3EC DUP2 PUSH3 0x34F JUMP JUMPDEST DUP2 EQ PUSH3 0x3F8 JUMPI PUSH1 0x0 DUP1 REVERT JUMPDEST POP JUMP JUMPDEST PUSH3 0x406 DUP2 PUSH3 0x383 JUMP JUMPDEST DUP2 EQ PUSH3 0x412 JUMPI PUSH1 0x0 DUP1 REVERT JUMPDEST POP JUMP JUMPDEST PUSH2 0x3964 DUP1 PUSH3 0x425 PUSH1 0x0 CODECOPY PUSH1 0x0 RETURN INVALID PUSH1 0x80 PUSH1 0x40 MSTORE PUSH1 0x4 CALLDATASIZE LT PUSH2 0x1C2 JUMPI PUSH1 0x0 CALLDATALOAD PUSH1 0xE0 SHR DUP1 PUSH4 0xA4D66DAF GT PUSH2 0xF7 JUMPI DUP1 PUSH4 0xE754E7C4 GT PUSH2 0x95 JUMPI DUP1 PUSH4 0xF3739E05 GT PUSH2 0x64 JUMPI DUP1 PUSH4 0xF3739E05 EQ PUSH2 0x5F1 JUMPI DUP1 PUSH4 0xF7C618C1 EQ PUSH2 0x62E JUMPI DUP1 PUSH4 0xF89BE593 EQ PUSH2 0x659 JUMPI DUP1 PUSH4 0xF8CF31CB EQ PUSH2 0x684 JUMPI PUSH2 0x1C2 JUMP JUMPDEST DUP1 PUSH4 0xE754E7C4 EQ PUSH2 0x549 JUMPI DUP1 PUSH4 0xEF78D4FD EQ PUSH2 0x574 JUMPI DUP1 PUSH4 0xEFE95F51 EQ PUSH2 0x59F JUMPI DUP1 PUSH4 0xF2FDE38B EQ PUSH2 0x5C8 JUMPI PUSH2 0x1C2 JUMP JUMPDEST DUP1 PUSH4 0xC884EF83 GT PUSH2 0xD1 JUMPI DUP1 PUSH4 0xC884EF83 EQ PUSH2 0x49C JUMPI DUP1 PUSH4 0xD6B0F484 EQ PUSH2 0x4D9 JUMPI DUP1 PUSH4 0xD936547E EQ PUSH2 0x4F0 JUMPI DUP1 PUSH4 0xD96A094A EQ PUSH2 0x52D JUMPI PUSH2 0x1C2 JUMP JUMPDEST DUP1 PUSH4 0xA4D66DAF EQ PUSH2 0x409 JUMPI DUP1 PUSH4 0xA5EBF835 EQ PUSH2 0x434 JUMPI DUP1 PUSH4 0xA960C65F EQ PUSH2 0x45F JUMPI PUSH2 0x1C2 JUMP JUMPDEST DUP1 PUSH4 0x667022FD GT PUSH2 0x164 JUMPI DUP1 PUSH4 0x856734C4 GT PUSH2 0x13E JUMPI DUP1 PUSH4 0x856734C4 EQ PUSH2 0x35D JUMPI DUP1 PUSH4 0x8DA5CB5B EQ PUSH2 0x388 JUMPI DUP1 PUSH4 0x9B8906AE EQ PUSH2 0x3B3 JUMPI DUP1 PUSH4 0x9C92431B EQ PUSH2 0x3DE JUMPI PUSH2 0x1C2 JUMP JUMPDEST DUP1 PUSH4 0x667022FD EQ PUSH2 0x2DE JUMPI DUP1 PUSH4 0x715018A6 EQ PUSH2 0x31B JUMPI DUP1 PUSH4 0x7B1B1DE6 EQ PUSH2 0x332 JUMPI PUSH2 0x1C2 JUMP JUMPDEST DUP1 PUSH4 0x2FBA2C85 GT PUSH2 0x1A0 JUMPI DUP1 PUSH4 0x2FBA2C85 EQ PUSH2 0x246 JUMPI DUP1 PUSH4 0x3013CE29 EQ PUSH2 0x271 JUMPI DUP1 PUSH4 0x4E71D92D EQ PUSH2 0x29C JUMPI DUP1 PUSH4 0x5ED9EBFC EQ PUSH2 0x2B3 JUMPI PUSH2 0x1C2 JUMP JUMPDEST DUP1 PUSH4 0xC0E0862 EQ PUSH2 0x1C7 JUMPI DUP1 PUSH4 0x151BAD0A EQ PUSH2 0x1F0 JUMPI DUP1 PUSH4 0x2F661946 EQ PUSH2 0x21B JUMPI JUMPDEST PUSH1 0x0 DUP1 REVERT JUMPDEST CALLVALUE DUP1 ISZERO PUSH2 0x1D3 JUMPI PUSH1 0x0 DUP1 REVERT JUMPDEST POP PUSH2 0x1EE PUSH1 0x4 DUP1 CALLDATASIZE SUB DUP2 ADD SWAP1 PUSH2 0x1E9 SWAP2 SWAP1 PUSH2 0x2800 JUMP JUMPDEST PUSH2 0x6AD JUMP JUMPDEST STOP JUMPDEST CALLVALUE DUP1 ISZERO PUSH2 0x1FC JUMPI PUSH1 0x0 DUP1 REVERT JUMPDEST POP PUSH2 0x205 PUSH2 0x779 JUMP JUMPDEST PUSH1 0x40 MLOAD PUSH2 0x212 SWAP2 SWAP1 PUSH2 0x2F69 JUMP JUMPDEST PUSH1 0x40 MLOAD DUP1 SWAP2 SUB SWAP1 RETURN JUMPDEST CALLVALUE DUP1 ISZERO PUSH2 0x227 JUMPI PUSH1 0x0 DUP1 REVERT JUMPDEST POP PUSH2 0x230 PUSH2 0x77E JUMP JUMPDEST PUSH1 0x40 MLOAD PUSH2 0x23D SWAP2 SWAP1 PUSH2 0x2F69 JUMP JUMPDEST PUSH1 0x40 MLOAD DUP1 SWAP2 SUB SWAP1 RETURN JUMPDEST CALLVALUE DUP1 ISZERO PUSH2 0x252 JUMPI PUSH1 0x0 DUP1 REVERT JUMPDEST POP PUSH2 0x25B PUSH2 0x783 JUMP JUMPDEST PUSH1 0x40 MLOAD PUSH2 0x268 SWAP2 SWAP1 PUSH2 0x2F69 JUMP JUMPDEST PUSH1 0x40 MLOAD DUP1 SWAP2 SUB SWAP1 RETURN JUMPDEST CALLVALUE DUP1 ISZERO PUSH2 0x27D JUMPI PUSH1 0x0 DUP1 REVERT JUMPDEST POP PUSH2 0x286 PUSH2 0x8BC JUMP JUMPDEST PUSH1 0x40 MLOAD PUSH2 0x293 SWAP2 SWAP1 PUSH2 0x2C8C JUMP JUMPDEST PUSH1 0x40 MLOAD DUP1 SWAP2 SUB SWAP1 RETURN JUMPDEST CALLVALUE DUP1 ISZERO PUSH2 0x2A8 JUMPI PUSH1 0x0 DUP1 REVERT JUMPDEST POP PUSH2 0x2B1 PUSH2 0x8E2 JUMP JUMPDEST STOP JUMPDEST CALLVALUE DUP1 ISZERO PUSH2 0x2BF JUMPI PUSH1 0x0 DUP1 REVERT JUMPDEST POP PUSH2 0x2C8 PUSH2 0x10D3 JUMP JUMPDEST PUSH1 0x40 MLOAD PUSH2 0x2D5 SWAP2 SWAP1 PUSH2 0x2F69 JUMP JUMPDEST PUSH1 0x40 MLOAD DUP1 SWAP2 SUB SWAP1 RETURN JUMPDEST CALLVALUE DUP1 ISZERO PUSH2 0x2EA JUMPI PUSH1 0x0 DUP1 REVERT JUMPDEST POP PUSH2 0x305 PUSH1 0x4 DUP1 CALLDATASIZE SUB DUP2 ADD SWAP1 PUSH2 0x300 SWAP2 SWAP1 PUSH2 0x2779 JUMP JUMPDEST PUSH2 0x10D9 JUMP JUMPDEST PUSH1 0x40 MLOAD PUSH2 0x312 SWAP2 SWAP1 PUSH2 0x2F69 JUMP JUMPDEST PUSH1 0x40 MLOAD DUP1 SWAP2 SUB SWAP1 RETURN JUMPDEST CALLVALUE DUP1 ISZERO PUSH2 0x327 JUMPI PUSH1 0x0 DUP1 REVERT JUMPDEST POP PUSH2 0x330 PUSH2 0x10F1 JUMP JUMPDEST STOP JUMPDEST CALLVALUE DUP1 ISZERO PUSH2 0x33E JUMPI PUSH1 0x0 DUP1 REVERT JUMPDEST POP PUSH2 0x347 PUSH2 0x1179 JUMP JUMPDEST PUSH1 0x40 MLOAD PUSH2 0x354 SWAP2 SWAP1 PUSH2 0x2F69 JUMP JUMPDEST PUSH1 0x40 MLOAD DUP1 SWAP2 SUB SWAP1 RETURN JUMPDEST CALLVALUE DUP1 ISZERO PUSH2 0x369 JUMPI PUSH1 0x0 DUP1 REVERT JUMPDEST POP PUSH2 0x372 PUSH2 0x117F JUMP JUMPDEST PUSH1 0x40 MLOAD PUSH2 0x37F SWAP2 SWAP1 PUSH2 0x2C71 JUMP JUMPDEST PUSH1 0x40 MLOAD DUP1 SWAP2 SUB SWAP1 RETURN JUMPDEST CALLVALUE DUP1 ISZERO PUSH2 0x394 JUMPI PUSH1 0x0 DUP1 REVERT JUMPDEST POP PUSH2 0x39D PUSH2 0x1192 JUMP JUMPDEST PUSH1 0x40 MLOAD PUSH2 0x3AA SWAP2 SWAP1 PUSH2 0x2BF6 JUMP JUMPDEST PUSH1 0x40 MLOAD DUP1 SWAP2 SUB SWAP1 RETURN JUMPDEST CALLVALUE DUP1 ISZERO PUSH2 0x3BF JUMPI PUSH1 0x0 DUP1 REVERT JUMPDEST POP PUSH2 0x3C8 PUSH2 0x11BB JUMP JUMPDEST PUSH1 0x40 MLOAD PUSH2 0x3D5 SWAP2 SWAP1 PUSH2 0x2F69 JUMP JUMPDEST PUSH1 0x40 MLOAD DUP1 SWAP2 SUB SWAP1 RETURN JUMPDEST CALLVALUE DUP1 ISZERO PUSH2 0x3EA JUMPI PUSH1 0x0 DUP1 REVERT JUMPDEST POP PUSH2 0x3F3 PUSH2 0x11C1 JUMP JUMPDEST PUSH1 0x40 MLOAD PUSH2 0x400 SWAP2 SWAP1 PUSH2 0x2F69 JUMP JUMPDEST PUSH1 0x40 MLOAD DUP1 SWAP2 SUB SWAP1 RETURN JUMPDEST CALLVALUE DUP1 ISZERO PUSH2 0x415 JUMPI PUSH1 0x0 DUP1 REVERT JUMPDEST POP PUSH2 0x41E PUSH2 0x1298 JUMP JUMPDEST PUSH1 0x40 MLOAD PUSH2 0x42B SWAP2 SWAP1 PUSH2 0x2F69 JUMP JUMPDEST PUSH1 0x40 MLOAD DUP1 SWAP2 SUB SWAP1 RETURN JUMPDEST CALLVALUE DUP1 ISZERO PUSH2 0x440 JUMPI PUSH1 0x0 DUP1 REVERT JUMPDEST POP PUSH2 0x449 PUSH2 0x129E JUMP JUMPDEST PUSH1 0x40 MLOAD PUSH2 0x456 SWAP2 SWAP1 PUSH2 0x2F69 JUMP JUMPDEST PUSH1 0x40 MLOAD DUP1 SWAP2 SUB SWAP1 RETURN JUMPDEST CALLVALUE DUP1 ISZERO PUSH2 0x46B JUMPI PUSH1 0x0 DUP1 REVERT JUMPDEST POP PUSH2 0x486 PUSH1 0x4 DUP1 CALLDATASIZE SUB DUP2 ADD SWAP1 PUSH2 0x481 SWAP2 SWAP1 PUSH2 0x2779 JUMP JUMPDEST PUSH2 0x12A3 JUMP JUMPDEST PUSH1 0x40 MLOAD PUSH2 0x493 SWAP2 SWAP1 PUSH2 0x2F69 JUMP JUMPDEST PUSH1 0x40 MLOAD DUP1 SWAP2 SUB SWAP1 RETURN JUMPDEST CALLVALUE DUP1 ISZERO PUSH2 0x4A8 JUMPI PUSH1 0x0 DUP1 REVERT JUMPDEST POP PUSH2 0x4C3 PUSH1 0x4 DUP1 CALLDATASIZE SUB DUP2 ADD SWAP1 PUSH2 0x4BE SWAP2 SWAP1 PUSH2 0x2779 JUMP JUMPDEST PUSH2 0x12BB JUMP JUMPDEST PUSH1 0x40 MLOAD PUSH2 0x4D0 SWAP2 SWAP1 PUSH2 0x2F69 JUMP JUMPDEST PUSH1 0x40 MLOAD DUP1 SWAP2 SUB SWAP1 RETURN JUMPDEST CALLVALUE DUP1 ISZERO PUSH2 0x4E5 JUMPI PUSH1 0x0 DUP1 REVERT JUMPDEST POP PUSH2 0x4EE PUSH2 0x12D3 JUMP JUMPDEST STOP JUMPDEST CALLVALUE DUP1 ISZERO PUSH2 0x4FC JUMPI PUSH1 0x0 DUP1 REVERT JUMPDEST POP PUSH2 0x517 PUSH1 0x4 DUP1 CALLDATASIZE SUB DUP2 ADD SWAP1 PUSH2 0x512 SWAP2 SWAP1 PUSH2 0x2779 JUMP JUMPDEST PUSH2 0x13BB JUMP JUMPDEST PUSH1 0x40 MLOAD PUSH2 0x524 SWAP2 SWAP1 PUSH2 0x2C71 JUMP JUMPDEST PUSH1 0x40 MLOAD DUP1 SWAP2 SUB SWAP1 RETURN JUMPDEST PUSH2 0x547 PUSH1 0x4 DUP1 CALLDATASIZE SUB DUP2 ADD SWAP1 PUSH2 0x542 SWAP2 SWAP1 PUSH2 0x2800 JUMP JUMPDEST PUSH2 0x13DB JUMP JUMPDEST STOP JUMPDEST CALLVALUE DUP1 ISZERO PUSH2 0x555 JUMPI PUSH1 0x0 DUP1 REVERT JUMPDEST POP PUSH2 0x55E PUSH2 0x1877 JUMP JUMPDEST PUSH1 0x40 MLOAD PUSH2 0x56B SWAP2 SWAP1 PUSH2 0x2F69 JUMP JUMPDEST PUSH1 0x40 MLOAD DUP1 SWAP2 SUB SWAP1 RETURN JUMPDEST CALLVALUE DUP1 ISZERO PUSH2 0x580 JUMPI PUSH1 0x0 DUP1 REVERT JUMPDEST POP PUSH2 0x589 PUSH2 0x187D JUMP JUMPDEST PUSH1 0x40 MLOAD PUSH2 0x596 SWAP2 SWAP1 PUSH2 0x2F69 JUMP JUMPDEST PUSH1 0x40 MLOAD DUP1 SWAP2 SUB SWAP1 RETURN JUMPDEST CALLVALUE DUP1 ISZERO PUSH2 0x5AB JUMPI PUSH1 0x0 DUP1 REVERT JUMPDEST POP PUSH2 0x5C6 PUSH1 0x4 DUP1 CALLDATASIZE SUB DUP2 ADD SWAP1 PUSH2 0x5C1 SWAP2 SWAP1 PUSH2 0x2800 JUMP JUMPDEST PUSH2 0x1882 JUMP JUMPDEST STOP JUMPDEST CALLVALUE DUP1 ISZERO PUSH2 0x5D4 JUMPI PUSH1 0x0 DUP1 REVERT JUMPDEST POP PUSH2 0x5EF PUSH1 0x4 DUP1 CALLDATASIZE SUB DUP2 ADD SWAP1 PUSH2 0x5EA SWAP2 SWAP1 PUSH2 0x2779 JUMP JUMPDEST PUSH2 0x1C3F JUMP JUMPDEST STOP JUMPDEST CALLVALUE DUP1 ISZERO PUSH2 0x5FD JUMPI PUSH1 0x0 DUP1 REVERT JUMPDEST POP PUSH2 0x618 PUSH1 0x4 DUP1 CALLDATASIZE SUB DUP2 ADD SWAP1 PUSH2 0x613 SWAP2 SWAP1 PUSH2 0x2779 JUMP JUMPDEST PUSH2 0x1D37 JUMP JUMPDEST PUSH1 0x40 MLOAD PUSH2 0x625 SWAP2 SWAP1 PUSH2 0x2BF6 JUMP JUMPDEST PUSH1 0x40 MLOAD DUP1 SWAP2 SUB SWAP1 RETURN JUMPDEST CALLVALUE DUP1 ISZERO PUSH2 0x63A JUMPI PUSH1 0x0 DUP1 REVERT JUMPDEST POP PUSH2 0x643 PUSH2 0x1D6A JUMP JUMPDEST PUSH1 0x40 MLOAD PUSH2 0x650 SWAP2 SWAP1 PUSH2 0x2C8C JUMP JUMPDEST PUSH1 0x40 MLOAD DUP1 SWAP2 SUB SWAP1 RETURN JUMPDEST CALLVALUE DUP1 ISZERO PUSH2 0x665 JUMPI PUSH1 0x0 DUP1 REVERT JUMPDEST POP PUSH2 0x66E PUSH2 0x1D90 JUMP JUMPDEST PUSH1 0x40 MLOAD PUSH2 0x67B SWAP2 SWAP1 PUSH2 0x2F69 JUMP JUMPDEST PUSH1 0x40 MLOAD DUP1 SWAP2 SUB SWAP1 RETURN JUMPDEST CALLVALUE DUP1 ISZERO PUSH2 0x690 JUMPI PUSH1 0x0 DUP1 REVERT JUMPDEST POP PUSH2 0x6AB PUSH1 0x4 DUP1 CALLDATASIZE SUB DUP2 ADD SWAP1 PUSH2 0x6A6 SWAP2 SWAP1 PUSH2 0x27D3 JUMP JUMPDEST PUSH2 0x1D96 JUMP JUMPDEST STOP JUMPDEST PUSH2 0x6B5 PUSH2 0x20C0 JUMP JUMPDEST PUSH20 0xFFFFFFFFFFFFFFFFFFFFFFFFFFFFFFFFFFFFFFFF AND PUSH2 0x6D3 PUSH2 0x1192 JUMP JUMPDEST PUSH20 0xFFFFFFFFFFFFFFFFFFFFFFFFFFFFFFFFFFFFFFFF AND EQ PUSH2 0x729 JUMPI PUSH1 0x40 MLOAD PUSH32 0x8C379A000000000000000000000000000000000000000000000000000000000 DUP2 MSTORE PUSH1 0x4 ADD PUSH2 0x720 SWAP1 PUSH2 0x2E29 JUMP JUMPDEST PUSH1 0x40 MLOAD DUP1 SWAP2 SUB SWAP1 REVERT JUMPDEST PUSH1 0x0 PUSH1 0x7 SLOAD EQ ISZERO PUSH2 0x76F JUMPI PUSH1 0x40 MLOAD PUSH32 0x8C379A000000000000000000000000000000000000000000000000000000000 DUP2 MSTORE PUSH1 0x4 ADD PUSH2 0x766 SWAP1 PUSH2 0x2F09 JUMP JUMPDEST PUSH1 0x40 MLOAD DUP1 SWAP2 SUB SWAP1 REVERT JUMPDEST DUP1 PUSH1 0x8 DUP2 SWAP1 SSTORE POP POP JUMP JUMPDEST PUSH1 0x32 DUP2 JUMP JUMPDEST PUSH1 0x5A DUP2 JUMP JUMPDEST PUSH1 0x0 DUP1 PUSH20 0xFFFFFFFFFFFFFFFFFFFFFFFFFFFFFFFFFFFFFFFF AND PUSH1 0x1 PUSH1 0x0 SWAP1 SLOAD SWAP1 PUSH2 0x100 EXP SWAP1 DIV PUSH20 0xFFFFFFFFFFFFFFFFFFFFFFFFFFFFFFFFFFFFFFFF AND PUSH20 0xFFFFFFFFFFFFFFFFFFFFFFFFFFFFFFFFFFFFFFFF AND EQ ISZERO PUSH2 0x7F7 JUMPI PUSH2 0x7F0 PUSH1 0x6 SLOAD SELFBALANCE PUSH2 0x20C8 SWAP1 SWAP2 SWAP1 PUSH4 0xFFFFFFFF AND JUMP JUMPDEST SWAP1 POP PUSH2 0x8B9 JUMP JUMPDEST PUSH2 0x8B6 PUSH1 0x6 SLOAD PUSH1 0x1 PUSH1 0x0 SWAP1 SLOAD SWAP1 PUSH2 0x100 EXP SWAP1 DIV PUSH20 0xFFFFFFFFFFFFFFFFFFFFFFFFFFFFFFFFFFFFFFFF AND PUSH20 0xFFFFFFFFFFFFFFFFFFFFFFFFFFFFFFFFFFFFFFFF AND PUSH4 0x70A08231 ADDRESS PUSH1 0x40 MLOAD DUP3 PUSH4 0xFFFFFFFF AND PUSH1 0xE0 SHL DUP2 MSTORE PUSH1 0x4 ADD PUSH2 0x858 SWAP2 SWAP1 PUSH2 0x2BF6 JUMP JUMPDEST PUSH1 0x20 PUSH1 0x40 MLOAD DUP1 DUP4 SUB DUP2 DUP7 DUP1 EXTCODESIZE ISZERO DUP1 ISZERO PUSH2 0x870 JUMPI PUSH1 0x0 DUP1 REVERT JUMPDEST POP GAS STATICCALL ISZERO DUP1 ISZERO PUSH2 0x884 JUMPI RETURNDATASIZE PUSH1 0x0 DUP1 RETURNDATACOPY RETURNDATASIZE PUSH1 0x0 REVERT JUMPDEST POP POP POP POP PUSH1 0x40 MLOAD RETURNDATASIZE PUSH1 0x1F NOT PUSH1 0x1F DUP3 ADD AND DUP3 ADD DUP1 PUSH1 0x40 MSTORE POP DUP2 ADD SWAP1 PUSH2 0x8A8 SWAP2 SWAP1 PUSH2 0x282D JUMP JUMPDEST PUSH2 0x20C8 SWAP1 SWAP2 SWAP1 PUSH4 0xFFFFFFFF AND JUMP JUMPDEST SWAP1 POP JUMPDEST SWAP1 JUMP JUMPDEST PUSH1 0x2 PUSH1 0x0 SWAP1 SLOAD SWAP1 PUSH2 0x100 EXP SWAP1 DIV PUSH20 0xFFFFFFFFFFFFFFFFFFFFFFFFFFFFFFFFFFFFFFFF AND DUP2 JUMP JUMPDEST PUSH1 0x0 PUSH1 0x7 SLOAD EQ ISZERO PUSH2 0x928 JUMPI PUSH1 0x40 MLOAD PUSH32 0x8C379A000000000000000000000000000000000000000000000000000000000 DUP2 MSTORE PUSH1 0x4 ADD PUSH2 0x91F SWAP1 PUSH2 0x2E89 JUMP JUMPDEST PUSH1 0x40 MLOAD DUP1 SWAP2 SUB SWAP1 REVERT JUMPDEST PUSH2 0x954 PUSH2 0x943 PUSH3 0x15180 PUSH1 0x8 SLOAD PUSH2 0x20DE SWAP1 SWAP2 SWAP1 PUSH4 0xFFFFFFFF AND JUMP JUMPDEST PUSH1 0x7 SLOAD PUSH2 0x20F4 SWAP1 SWAP2 SWAP1 PUSH4 0xFFFFFFFF AND JUMP JUMPDEST TIMESTAMP LT ISZERO PUSH2 0x996 JUMPI PUSH1 0x40 MLOAD PUSH32 0x8C379A000000000000000000000000000000000000000000000000000000000 DUP2 MSTORE PUSH1 0x4 ADD PUSH2 0x98D SWAP1 PUSH2 0x2D49 JUMP JUMPDEST PUSH1 0x40 MLOAD DUP1 SWAP2 SUB SWAP1 REVERT JUMPDEST PUSH1 0x0 PUSH2 0x9A0 PUSH2 0x11C1 JUMP JUMPDEST SWAP1 POP PUSH1 0x0 DUP2 GT PUSH2 0x9E5 JUMPI PUSH1 0x40 MLOAD PUSH32 0x8C379A000000000000000000000000000000000000000000000000000000000 DUP2 MSTORE PUSH1 0x4 ADD PUSH2 0x9DC SWAP1 PUSH2 0x2DE9 JUMP JUMPDEST PUSH1 0x40 MLOAD DUP1 SWAP2 SUB SWAP1 REVERT JUMPDEST PUSH1 0x1 PUSH1 0x0 SWAP1 SLOAD SWAP1 PUSH2 0x100 EXP SWAP1 DIV PUSH20 0xFFFFFFFFFFFFFFFFFFFFFFFFFFFFFFFFFFFFFFFF AND PUSH20 0xFFFFFFFFFFFFFFFFFFFFFFFFFFFFFFFFFFFFFFFF AND PUSH1 0xE PUSH1 0x0 CALLER PUSH20 0xFFFFFFFFFFFFFFFFFFFFFFFFFFFFFFFFFFFFFFFF AND PUSH20 0xFFFFFFFFFFFFFFFFFFFFFFFFFFFFFFFFFFFFFFFF AND DUP2 MSTORE PUSH1 0x20 ADD SWAP1 DUP2 MSTORE PUSH1 0x20 ADD PUSH1 0x0 KECCAK256 PUSH1 0x0 SWAP1 SLOAD SWAP1 PUSH2 0x100 EXP SWAP1 DIV PUSH20 0xFFFFFFFFFFFFFFFFFFFFFFFFFFFFFFFFFFFFFFFF AND PUSH20 0xFFFFFFFFFFFFFFFFFFFFFFFFFFFFFFFFFFFFFFFF AND EQ PUSH2 0xBC4 JUMPI PUSH1 0x1 PUSH1 0x0 SWAP1 SLOAD SWAP1 PUSH2 0x100 EXP SWAP1 DIV PUSH20 0xFFFFFFFFFFFFFFFFFFFFFFFFFFFFFFFFFFFFFFFF AND PUSH1 0xE PUSH1 0x0 CALLER PUSH20 0xFFFFFFFFFFFFFFFFFFFFFFFFFFFFFFFFFFFFFFFF AND PUSH20 0xFFFFFFFFFFFFFFFFFFFFFFFFFFFFFFFFFFFFFFFF AND DUP2 MSTORE PUSH1 0x20 ADD SWAP1 DUP2 MSTORE PUSH1 0x20 ADD PUSH1 0x0 KECCAK256 PUSH1 0x0 PUSH2 0x100 EXP DUP2 SLOAD DUP2 PUSH20 0xFFFFFFFFFFFFFFFFFFFFFFFFFFFFFFFFFFFFFFFF MUL NOT AND SWAP1 DUP4 PUSH20 0xFFFFFFFFFFFFFFFFFFFFFFFFFFFFFFFFFFFFFFFF AND MUL OR SWAP1 SSTORE POP PUSH1 0x0 PUSH1 0xC PUSH1 0x0 CALLER PUSH20 0xFFFFFFFFFFFFFFFFFFFFFFFFFFFFFFFFFFFFFFFF AND PUSH20 0xFFFFFFFFFFFFFFFFFFFFFFFFFFFFFFFFFFFFFFFF AND DUP2 MSTORE PUSH1 0x20 ADD SWAP1 DUP2 MSTORE PUSH1 0x20 ADD PUSH1 0x0 KECCAK256 DUP2 SWAP1 SSTORE POP PUSH1 0x0 PUSH1 0xD PUSH1 0x0 CALLER PUSH20 0xFFFFFFFFFFFFFFFFFFFFFFFFFFFFFFFFFFFFFFFF AND PUSH20 0xFFFFFFFFFFFFFFFFFFFFFFFFFFFFFFFFFFFFFFFF AND DUP2 MSTORE PUSH1 0x20 ADD SWAP1 DUP2 MSTORE PUSH1 0x20 ADD PUSH1 0x0 KECCAK256 DUP2 SWAP1 SSTORE POP JUMPDEST DUP1 PUSH1 0xC PUSH1 0x0 CALLER PUSH20 0xFFFFFFFFFFFFFFFFFFFFFFFFFFFFFFFFFFFFFFFF AND PUSH20 0xFFFFFFFFFFFFFFFFFFFFFFFFFFFFFFFFFFFFFFFF AND DUP2 MSTORE PUSH1 0x20 ADD SWAP1 DUP2 MSTORE PUSH1 0x20 ADD PUSH1 0x0 KECCAK256 SLOAD LT PUSH2 0xC45 JUMPI PUSH1 0x40 MLOAD PUSH32 0x8C379A000000000000000000000000000000000000000000000000000000000 DUP2 MSTORE PUSH1 0x4 ADD PUSH2 0xC3C SWAP1 PUSH2 0x2D69 JUMP JUMPDEST PUSH1 0x40 MLOAD DUP1 SWAP2 SUB SWAP1 REVERT JUMPDEST PUSH1 0x6 SLOAD PUSH1 0x5 SLOAD GT PUSH2 0xEF5 JUMPI PUSH1 0x0 PUSH1 0xC PUSH1 0x0 CALLER PUSH20 0xFFFFFFFFFFFFFFFFFFFFFFFFFFFFFFFFFFFFFFFF AND PUSH20 0xFFFFFFFFFFFFFFFFFFFFFFFFFFFFFFFFFFFFFFFF AND DUP2 MSTORE PUSH1 0x20 ADD SWAP1 DUP2 MSTORE PUSH1 0x20 ADD PUSH1 0x0 KECCAK256 SLOAD SWAP1 POP DUP2 PUSH1 0xC PUSH1 0x0 CALLER PUSH20 0xFFFFFFFFFFFFFFFFFFFFFFFFFFFFFFFFFFFFFFFF AND PUSH20 0xFFFFFFFFFFFFFFFFFFFFFFFFFFFFFFFFFFFFFFFF AND DUP2 MSTORE PUSH1 0x20 ADD SWAP1 DUP2 MSTORE PUSH1 0x20 ADD PUSH1 0x0 KECCAK256 DUP2 SWAP1 SSTORE POP PUSH1 0x0 PUSH2 0xD80 PUSH1 0x3 SLOAD PUSH2 0xD72 PUSH8 0xDE0B6B3A7640000 PUSH2 0xD64 PUSH2 0x3E8 PUSH2 0xD56 PUSH2 0xD08 DUP10 DUP12 PUSH2 0x20C8 SWAP1 SWAP2 SWAP1 PUSH4 0xFFFFFFFF AND JUMP JUMPDEST PUSH1 0xB PUSH1 0x0 CALLER PUSH20 0xFFFFFFFFFFFFFFFFFFFFFFFFFFFFFFFFFFFFFFFF AND PUSH20 0xFFFFFFFFFFFFFFFFFFFFFFFFFFFFFFFFFFFFFFFF AND DUP2 MSTORE PUSH1 0x20 ADD SWAP1 DUP2 MSTORE PUSH1 0x20 ADD PUSH1 0x0 KECCAK256 SLOAD PUSH2 0x20DE SWAP1 SWAP2 SWAP1 PUSH4 0xFFFFFFFF AND JUMP JUMPDEST PUSH2 0x210A SWAP1 SWAP2 SWAP1 PUSH4 0xFFFFFFFF AND JUMP JUMPDEST PUSH2 0x20DE SWAP1 SWAP2 SWAP1 PUSH4 0xFFFFFFFF AND JUMP JUMPDEST PUSH2 0x210A SWAP1 SWAP2 SWAP1 PUSH4 0xFFFFFFFF AND JUMP JUMPDEST SWAP1 POP PUSH2 0xDD4 DUP2 PUSH1 0xD PUSH1 0x0 CALLER PUSH20 0xFFFFFFFFFFFFFFFFFFFFFFFFFFFFFFFFFFFFFFFF AND PUSH20 0xFFFFFFFFFFFFFFFFFFFFFFFFFFFFFFFFFFFFFFFF AND DUP2 MSTORE PUSH1 0x20 ADD SWAP1 DUP2 MSTORE PUSH1 0x20 ADD PUSH1 0x0 KECCAK256 SLOAD PUSH2 0x20F4 SWAP1 SWAP2 SWAP1 PUSH4 0xFFFFFFFF AND JUMP JUMPDEST PUSH1 0xD PUSH1 0x0 CALLER PUSH20 0xFFFFFFFFFFFFFFFFFFFFFFFFFFFFFFFFFFFFFFFF AND PUSH20 0xFFFFFFFFFFFFFFFFFFFFFFFFFFFFFFFFFFFFFFFF AND DUP2 MSTORE PUSH1 0x20 ADD SWAP1 DUP2 MSTORE PUSH1 0x20 ADD PUSH1 0x0 KECCAK256 DUP2 SWAP1 SSTORE POP PUSH1 0x0 PUSH20 0xFFFFFFFFFFFFFFFFFFFFFFFFFFFFFFFFFFFFFFFF AND PUSH1 0x1 PUSH1 0x0 SWAP1 SLOAD SWAP1 PUSH2 0x100 EXP SWAP1 DIV PUSH20 0xFFFFFFFFFFFFFFFFFFFFFFFFFFFFFFFFFFFFFFFF AND PUSH20 0xFFFFFFFFFFFFFFFFFFFFFFFFFFFFFFFFFFFFFFFF AND EQ PUSH2 0xE9F JUMPI PUSH2 0xE9A PUSH1 0x1 PUSH1 0x0 SWAP1 SLOAD SWAP1 PUSH2 0x100 EXP SWAP1 DIV PUSH20 0xFFFFFFFFFFFFFFFFFFFFFFFFFFFFFFFFFFFFFFFF AND CALLER DUP4 PUSH2 0x2120 JUMP JUMPDEST PUSH2 0xEAA JUMP JUMPDEST PUSH2 0xEA9 CALLER DUP3 PUSH2 0x2256 JUMP JUMPDEST JUMPDEST DUP1 CALLER PUSH20 0xFFFFFFFFFFFFFFFFFFFFFFFFFFFFFFFFFFFFFFFF AND PUSH32 0xD8138F8A3F377C5259CA548E70E4C2DE94F129F5A11036A15B69513CBA2B426A PUSH1 0x40 MLOAD PUSH1 0x40 MLOAD DUP1 SWAP2 SUB SWAP1 LOG3 POP POP PUSH2 0x10D0 JUMP JUMPDEST PUSH2 0x3E8 PUSH1 0xC PUSH1 0x0 CALLER PUSH20 0xFFFFFFFFFFFFFFFFFFFFFFFFFFFFFFFFFFFFFFFF AND PUSH20 0xFFFFFFFFFFFFFFFFFFFFFFFFFFFFFFFFFFFFFFFF AND DUP2 MSTORE PUSH1 0x20 ADD SWAP1 DUP2 MSTORE PUSH1 0x20 ADD PUSH1 0x0 KECCAK256 DUP2 SWAP1 SSTORE POP PUSH1 0x0 PUSH20 0xFFFFFFFFFFFFFFFFFFFFFFFFFFFFFFFFFFFFFFFF AND PUSH1 0x2 PUSH1 0x0 SWAP1 SLOAD SWAP1 PUSH2 0x100 EXP SWAP1 DIV PUSH20 0xFFFFFFFFFFFFFFFFFFFFFFFFFFFFFFFFFFFFFFFF AND PUSH20 0xFFFFFFFFFFFFFFFFFFFFFFFFFFFFFFFFFFFFFFFF AND EQ PUSH2 0x1002 JUMPI PUSH2 0xFFD PUSH1 0x2 PUSH1 0x0 SWAP1 SLOAD SWAP1 PUSH2 0x100 EXP SWAP1 DIV PUSH20 0xFFFFFFFFFFFFFFFFFFFFFFFFFFFFFFFFFFFFFFFF AND CALLER PUSH1 0xB PUSH1 0x0 CALLER PUSH20 0xFFFFFFFFFFFFFFFFFFFFFFFFFFFFFFFFFFFFFFFF AND PUSH20 0xFFFFFFFFFFFFFFFFFFFFFFFFFFFFFFFFFFFFFFFF AND DUP2 MSTORE PUSH1 0x20 ADD SWAP1 DUP2 MSTORE PUSH1 0x20 ADD PUSH1 0x0 KECCAK256 SLOAD PUSH2 0x2120 JUMP JUMPDEST PUSH2 0x104C JUMP JUMPDEST PUSH2 0x104B CALLER PUSH1 0xB PUSH1 0x0 CALLER PUSH20 0xFFFFFFFFFFFFFFFFFFFFFFFFFFFFFFFFFFFFFFFF AND PUSH20 0xFFFFFFFFFFFFFFFFFFFFFFFFFFFFFFFFFFFFFFFF AND DUP2 MSTORE PUSH1 0x20 ADD SWAP1 DUP2 MSTORE PUSH1 0x20 ADD PUSH1 0x0 KECCAK256 SLOAD PUSH2 0x2256 JUMP JUMPDEST JUMPDEST PUSH1 0xB PUSH1 0x0 CALLER PUSH20 0xFFFFFFFFFFFFFFFFFFFFFFFFFFFFFFFFFFFFFFFF AND PUSH20 0xFFFFFFFFFFFFFFFFFFFFFFFFFFFFFFFFFFFFFFFF AND DUP2 MSTORE PUSH1 0x20 ADD SWAP1 DUP2 MSTORE PUSH1 0x20 ADD PUSH1 0x0 KECCAK256 SLOAD CALLER PUSH20 0xFFFFFFFFFFFFFFFFFFFFFFFFFFFFFFFFFFFFFFFF AND PUSH32 0xD8138F8A3F377C5259CA548E70E4C2DE94F129F5A11036A15B69513CBA2B426A PUSH1 0x40 MLOAD PUSH1 0x40 MLOAD DUP1 SWAP2 SUB SWAP1 LOG3 JUMPDEST POP JUMP JUMPDEST PUSH1 0x6 SLOAD DUP2 JUMP JUMPDEST PUSH1 0xB PUSH1 0x20 MSTORE DUP1 PUSH1 0x0 MSTORE PUSH1 0x40 PUSH1 0x0 KECCAK256 PUSH1 0x0 SWAP2 POP SWAP1 POP SLOAD DUP2 JUMP JUMPDEST PUSH2 0x10F9 PUSH2 0x20C0 JUMP JUMPDEST PUSH20 0xFFFFFFFFFFFFFFFFFFFFFFFFFFFFFFFFFFFFFFFF AND PUSH2 0x1117 PUSH2 0x1192 JUMP JUMPDEST PUSH20 0xFFFFFFFFFFFFFFFFFFFFFFFFFFFFFFFFFFFFFFFF AND EQ PUSH2 0x116D JUMPI PUSH1 0x40 MLOAD PUSH32 0x8C379A000000000000000000000000000000000000000000000000000000000 DUP2 MSTORE PUSH1 0x4 ADD PUSH2 0x1164 SWAP1 PUSH2 0x2E29 JUMP JUMPDEST PUSH1 0x40 MLOAD DUP1 SWAP2 SUB SWAP1 REVERT JUMPDEST PUSH2 0x1177 PUSH1 0x0 PUSH2 0x2356 JUMP JUMPDEST JUMP JUMPDEST PUSH1 0x3 SLOAD DUP2 JUMP JUMPDEST PUSH1 0x9 PUSH1 0x0 SWAP1 SLOAD SWAP1 PUSH2 0x100 EXP SWAP1 DIV PUSH1 0xFF AND DUP2 JUMP JUMPDEST PUSH1 0x0 DUP1 PUSH1 0x0 SWAP1 SLOAD SWAP1 PUSH2 0x100 EXP SWAP1 DIV PUSH20 0xFFFFFFFFFFFFFFFFFFFFFFFFFFFFFFFFFFFFFFFF AND SWAP1 POP SWAP1 JUMP JUMPDEST PUSH1 0x7 SLOAD DUP2 JUMP JUMPDEST PUSH1 0x0 DUP1 PUSH2 0x11DA PUSH1 0x5A PUSH1 0x7 SLOAD PUSH2 0x20F4 SWAP1 SWAP2 SWAP1 PUSH4 0xFFFFFFFF AND JUMP JUMPDEST SWAP1 POP PUSH1 0x0 PUSH2 0x1201 PUSH3 0x15180 PUSH1 0x8 SLOAD PUSH2 0x11F2 SWAP2 SWAP1 PUSH2 0x303D JUMP JUMPDEST DUP4 PUSH2 0x20F4 SWAP1 SWAP2 SWAP1 PUSH4 0xFFFFFFFF AND JUMP JUMPDEST SWAP1 POP PUSH1 0x0 DUP1 PUSH1 0x7 SLOAD GT DUP1 ISZERO PUSH2 0x1215 JUMPI POP DUP2 TIMESTAMP GT JUMPDEST PUSH2 0x1220 JUMPI PUSH1 0x64 PUSH2 0x127B JUMP JUMPDEST PUSH2 0x127A PUSH1 0x64 PUSH2 0x126C PUSH1 0x32 PUSH2 0x125E PUSH3 0x15180 PUSH1 0x1E PUSH2 0x123D SWAP2 SWAP1 PUSH2 0x303D JUMP JUMPDEST PUSH2 0x1250 DUP9 TIMESTAMP PUSH2 0x20C8 SWAP1 SWAP2 SWAP1 PUSH4 0xFFFFFFFF AND JUMP JUMPDEST PUSH2 0x210A SWAP1 SWAP2 SWAP1 PUSH4 0xFFFFFFFF AND JUMP JUMPDEST PUSH2 0x20DE SWAP1 SWAP2 SWAP1 PUSH4 0xFFFFFFFF AND JUMP JUMPDEST PUSH2 0x20F4 SWAP1 SWAP2 SWAP1 PUSH4 0xFFFFFFFF AND JUMP JUMPDEST JUMPDEST SWAP1 POP PUSH2 0x3E8 DUP2 GT PUSH2 0x128C JUMPI DUP1 PUSH2 0x1290 JUMP JUMPDEST PUSH2 0x3E8 JUMPDEST SWAP4 POP POP POP POP SWAP1 JUMP JUMPDEST PUSH1 0x4 SLOAD DUP2 JUMP JUMPDEST PUSH1 0x64 DUP2 JUMP JUMPDEST PUSH1 0xD PUSH1 0x20 MSTORE DUP1 PUSH1 0x0 MSTORE PUSH1 0x40 PUSH1 0x0 KECCAK256 PUSH1 0x0 SWAP2 POP SWAP1 POP SLOAD DUP2 JUMP JUMPDEST PUSH1 0xC PUSH1 0x20 MSTORE DUP1 PUSH1 0x0 MSTORE PUSH1 0x40 PUSH1 0x0 KECCAK256 PUSH1 0x0 SWAP2 POP SWAP1 POP SLOAD DUP2 JUMP JUMPDEST PUSH2 0x12DB PUSH2 0x20C0 JUMP JUMPDEST PUSH20 0xFFFFFFFFFFFFFFFFFFFFFFFFFFFFFFFFFFFFFFFF AND PUSH2 0x12F9 PUSH2 0x1192 JUMP JUMPDEST PUSH20 0xFFFFFFFFFFFFFFFFFFFFFFFFFFFFFFFFFFFFFFFF AND EQ PUSH2 0x134F JUMPI PUSH1 0x40 MLOAD PUSH32 0x8C379A000000000000000000000000000000000000000000000000000000000 DUP2 MSTORE PUSH1 0x4 ADD PUSH2 0x1346 SWAP1 PUSH2 0x2E29 JUMP JUMPDEST PUSH1 0x40 MLOAD DUP1 SWAP2 SUB SWAP1 REVERT JUMPDEST PUSH1 0x9 PUSH1 0x0 SWAP1 SLOAD SWAP1 PUSH2 0x100 EXP SWAP1 DIV PUSH1 0xFF AND PUSH2 0x139E JUMPI PUSH1 0x40 MLOAD PUSH32 0x8C379A000000000000000000000000000000000000000000000000000000000 DUP2 MSTORE PUSH1 0x4 ADD PUSH2 0x1395 SWAP1 PUSH2 0x2CC9 JUMP JUMPDEST PUSH1 0x40 MLOAD DUP1 SWAP2 SUB SWAP1 REVERT JUMPDEST PUSH1 0x0 PUSH1 0x9 PUSH1 0x0 PUSH2 0x100 EXP DUP2 SLOAD DUP2 PUSH1 0xFF MUL NOT AND SWAP1 DUP4 ISZERO ISZERO MUL OR SWAP1 SSTORE POP JUMP JUMPDEST PUSH1 0xA PUSH1 0x20 MSTORE DUP1 PUSH1 0x0 MSTORE PUSH1 0x40 PUSH1 0x0 KECCAK256 PUSH1 0x0 SWAP2 POP SLOAD SWAP1 PUSH2 0x100 EXP SWAP1 DIV PUSH1 0xFF AND DUP2 JUMP JUMPDEST PUSH1 0x0 PUSH1 0x7 SLOAD EQ PUSH2 0x1420 JUMPI PUSH1 0x40 MLOAD PUSH32 0x8C379A000000000000000000000000000000000000000000000000000000000 DUP2 MSTORE PUSH1 0x4 ADD PUSH2 0x1417 SWAP1 PUSH2 0x2F29 JUMP JUMPDEST PUSH1 0x40 MLOAD DUP1 SWAP2 SUB SWAP1 REVERT JUMPDEST PUSH1 0xA PUSH1 0x0 CALLER PUSH20 0xFFFFFFFFFFFFFFFFFFFFFFFFFFFFFFFFFFFFFFFF AND PUSH20 0xFFFFFFFFFFFFFFFFFFFFFFFFFFFFFFFFFFFFFFFF AND DUP2 MSTORE PUSH1 0x20 ADD SWAP1 DUP2 MSTORE PUSH1 0x20 ADD PUSH1 0x0 KECCAK256 PUSH1 0x0 SWAP1 SLOAD SWAP1 PUSH2 0x100 EXP SWAP1 DIV PUSH1 0xFF AND DUP1 PUSH2 0x1485 JUMPI POP PUSH1 0x9 PUSH1 0x0 SWAP1 SLOAD SWAP1 PUSH2 0x100 EXP SWAP1 DIV PUSH1 0xFF AND ISZERO JUMPDEST PUSH2 0x14C4 JUMPI PUSH1 0x40 MLOAD PUSH32 0x8C379A000000000000000000000000000000000000000000000000000000000 DUP2 MSTORE PUSH1 0x4 ADD PUSH2 0x14BB SWAP1 PUSH2 0x2DA9 JUMP JUMPDEST PUSH1 0x40 MLOAD DUP1 SWAP2 SUB SWAP1 REVERT JUMPDEST PUSH1 0x0 DUP1 PUSH20 0xFFFFFFFFFFFFFFFFFFFFFFFFFFFFFFFFFFFFFFFF AND PUSH1 0x2 PUSH1 0x0 SWAP1 SLOAD SWAP1 PUSH2 0x100 EXP SWAP1 DIV PUSH20 0xFFFFFFFFFFFFFFFFFFFFFFFFFFFFFFFFFFFFFFFF AND PUSH20 0xFFFFFFFFFFFFFFFFFFFFFFFFFFFFFFFFFFFFFFFF AND EQ SWAP1 POP DUP1 ISZERO DUP1 PUSH2 0x1525 JUMPI POP DUP2 CALLVALUE EQ JUMPDEST PUSH2 0x1564 JUMPI PUSH1 0x40 MLOAD PUSH32 0x8C379A000000000000000000000000000000000000000000000000000000000 DUP2 MSTORE PUSH1 0x4 ADD PUSH2 0x155B SWAP1 PUSH2 0x2F49 JUMP JUMPDEST PUSH1 0x40 MLOAD DUP1 SWAP2 SUB SWAP1 REVERT JUMPDEST PUSH1 0x4 SLOAD PUSH2 0x15B9 DUP4 PUSH1 0xB PUSH1 0x0 CALLER PUSH20 0xFFFFFFFFFFFFFFFFFFFFFFFFFFFFFFFFFFFFFFFF AND PUSH20 0xFFFFFFFFFFFFFFFFFFFFFFFFFFFFFFFFFFFFFFFF AND DUP2 MSTORE PUSH1 0x20 ADD SWAP1 DUP2 MSTORE PUSH1 0x20 ADD PUSH1 0x0 KECCAK256 SLOAD PUSH2 0x20F4 SWAP1 SWAP2 SWAP1 PUSH4 0xFFFFFFFF AND JUMP JUMPDEST GT ISZERO PUSH2 0x15FA JUMPI PUSH1 0x40 MLOAD PUSH32 0x8C379A000000000000000000000000000000000000000000000000000000000 DUP2 MSTORE PUSH1 0x4 ADD PUSH2 0x15F1 SWAP1 PUSH2 0x2D09 JUMP JUMPDEST PUSH1 0x40 MLOAD DUP1 SWAP2 SUB SWAP1 REVERT JUMPDEST PUSH1 0x0 PUSH2 0x162B PUSH1 0x3 SLOAD PUSH2 0x161D PUSH8 0xDE0B6B3A7640000 DUP7 PUSH2 0x20DE SWAP1 SWAP2 SWAP1 PUSH4 0xFFFFFFFF AND JUMP JUMPDEST PUSH2 0x210A SWAP1 SWAP2 SWAP1 PUSH4 0xFFFFFFFF AND JUMP JUMPDEST SWAP1 POP PUSH1 0x0 PUSH2 0x1649 DUP3 PUSH2 0x163B PUSH2 0x783 JUMP JUMPDEST PUSH2 0x20C8 SWAP1 SWAP2 SWAP1 PUSH4 0xFFFFFFFF AND JUMP JUMPDEST GT PUSH2 0x1689 JUMPI PUSH1 0x40 MLOAD PUSH32 0x8C379A000000000000000000000000000000000000000000000000000000000 DUP2 MSTORE PUSH1 0x4 ADD PUSH2 0x1680 SWAP1 PUSH2 0x2E49 JUMP JUMPDEST PUSH1 0x40 MLOAD DUP1 SWAP2 SUB SWAP1 REVERT JUMPDEST DUP2 PUSH2 0x16DE JUMPI PUSH2 0x16DD CALLER ADDRESS DUP6 PUSH1 0x2 PUSH1 0x0 SWAP1 SLOAD SWAP1 PUSH2 0x100 EXP SWAP1 DIV PUSH20 0xFFFFFFFFFFFFFFFFFFFFFFFFFFFFFFFFFFFFFFFF AND PUSH20 0xFFFFFFFFFFFFFFFFFFFFFFFFFFFFFFFFFFFFFFFF AND PUSH2 0x241A SWAP1 SWAP4 SWAP3 SWAP2 SWAP1 PUSH4 0xFFFFFFFF AND JUMP JUMPDEST JUMPDEST PUSH2 0x1730 DUP4 PUSH1 0xB PUSH1 0x0 CALLER PUSH20 0xFFFFFFFFFFFFFFFFFFFFFFFFFFFFFFFFFFFFFFFF AND PUSH20 0xFFFFFFFFFFFFFFFFFFFFFFFFFFFFFFFFFFFFFFFF AND DUP2 MSTORE PUSH1 0x20 ADD SWAP1 DUP2 MSTORE PUSH1 0x20 ADD PUSH1 0x0 KECCAK256 SLOAD PUSH2 0x20F4 SWAP1 SWAP2 SWAP1 PUSH4 0xFFFFFFFF AND JUMP JUMPDEST PUSH1 0xB PUSH1 0x0 CALLER PUSH20 0xFFFFFFFFFFFFFFFFFFFFFFFFFFFFFFFFFFFFFFFF AND PUSH20 0xFFFFFFFFFFFFFFFFFFFFFFFFFFFFFFFFFFFFFFFF AND DUP2 MSTORE PUSH1 0x20 ADD SWAP1 DUP2 MSTORE PUSH1 0x20 ADD PUSH1 0x0 KECCAK256 DUP2 SWAP1 SSTORE POP PUSH2 0x1788 DUP2 PUSH1 0x6 SLOAD PUSH2 0x20F4 SWAP1 SWAP2 SWAP1 PUSH4 0xFFFFFFFF AND JUMP JUMPDEST PUSH1 0x6 DUP2 SWAP1 SSTORE POP PUSH1 0x2 PUSH1 0x0 SWAP1 SLOAD SWAP1 PUSH2 0x100 EXP SWAP1 DIV PUSH20 0xFFFFFFFFFFFFFFFFFFFFFFFFFFFFFFFFFFFFFFFF AND PUSH1 0xE PUSH1 0x0 CALLER PUSH20 0xFFFFFFFFFFFFFFFFFFFFFFFFFFFFFFFFFFFFFFFF AND PUSH20 0xFFFFFFFFFFFFFFFFFFFFFFFFFFFFFFFFFFFFFFFF AND DUP2 MSTORE PUSH1 0x20 ADD SWAP1 DUP2 MSTORE PUSH1 0x20 ADD PUSH1 0x0 KECCAK256 PUSH1 0x0 PUSH2 0x100 EXP DUP2 SLOAD DUP2 PUSH20 0xFFFFFFFFFFFFFFFFFFFFFFFFFFFFFFFFFFFFFFFF MUL NOT AND SWAP1 DUP4 PUSH20 0xFFFFFFFFFFFFFFFFFFFFFFFFFFFFFFFFFFFFFFFF AND MUL OR SWAP1 SSTORE POP DUP3 CALLER PUSH20 0xFFFFFFFFFFFFFFFFFFFFFFFFFFFFFFFFFFFFFFFF AND PUSH32 0xC55650CCDA1011E1CDC769B1FBF546EBB8C97800B6072B49E06CD560305B1D67 PUSH1 0x40 MLOAD PUSH1 0x40 MLOAD DUP1 SWAP2 SUB SWAP1 LOG3 POP POP POP JUMP JUMPDEST PUSH1 0x8 SLOAD DUP2 JUMP JUMPDEST PUSH1 0x1E DUP2 JUMP JUMPDEST PUSH2 0x188A PUSH2 0x20C0 JUMP JUMPDEST PUSH20 0xFFFFFFFFFFFFFFFFFFFFFFFFFFFFFFFFFFFFFFFF AND PUSH2 0x18A8 PUSH2 0x1192 JUMP JUMPDEST PUSH20 0xFFFFFFFFFFFFFFFFFFFFFFFFFFFFFFFFFFFFFFFF AND EQ PUSH2 0x18FE JUMPI PUSH1 0x40 MLOAD PUSH32 0x8C379A000000000000000000000000000000000000000000000000000000000 DUP2 MSTORE PUSH1 0x4 ADD PUSH2 0x18F5 SWAP1 PUSH2 0x2E29 JUMP JUMPDEST PUSH1 0x40 MLOAD DUP1 SWAP2 SUB SWAP1 REVERT JUMPDEST PUSH1 0x0 PUSH1 0x7 SLOAD EQ PUSH2 0x1943 JUMPI PUSH1 0x40 MLOAD PUSH32 0x8C379A000000000000000000000000000000000000000000000000000000000 DUP2 MSTORE PUSH1 0x4 ADD PUSH2 0x193A SWAP1 PUSH2 0x2EC9 JUMP JUMPDEST PUSH1 0x40 MLOAD DUP1 SWAP2 SUB SWAP1 REVERT JUMPDEST TIMESTAMP PUSH1 0x7 DUP2 SWAP1 SSTORE POP PUSH1 0x6 SLOAD PUSH1 0x5 SLOAD GT PUSH2 0x1A9E JUMPI DUP1 PUSH1 0x8 DUP2 SWAP1 SSTORE POP PUSH1 0x0 PUSH20 0xFFFFFFFFFFFFFFFFFFFFFFFFFFFFFFFFFFFFFFFF AND PUSH1 0x2 PUSH1 0x0 SWAP1 SLOAD SWAP1 PUSH2 0x100 EXP SWAP1 DIV PUSH20 0xFFFFFFFFFFFFFFFFFFFFFFFFFFFFFFFFFFFFFFFF AND PUSH20 0xFFFFFFFFFFFFFFFFFFFFFFFFFFFFFFFFFFFFFFFF AND EQ PUSH2 0x1A8E JUMPI PUSH2 0x1A89 PUSH1 0x2 PUSH1 0x0 SWAP1 SLOAD SWAP1 PUSH2 0x100 EXP SWAP1 DIV PUSH20 0xFFFFFFFFFFFFFFFFFFFFFFFFFFFFFFFFFFFFFFFF AND CALLER PUSH1 0x2 PUSH1 0x0 SWAP1 SLOAD SWAP1 PUSH2 0x100 EXP SWAP1 DIV PUSH20 0xFFFFFFFFFFFFFFFFFFFFFFFFFFFFFFFFFFFFFFFF AND PUSH20 0xFFFFFFFFFFFFFFFFFFFFFFFFFFFFFFFFFFFFFFFF AND PUSH4 0x70A08231 ADDRESS PUSH1 0x40 MLOAD DUP3 PUSH4 0xFFFFFFFF AND PUSH1 0xE0 SHL DUP2 MSTORE PUSH1 0x4 ADD PUSH2 0x1A34 SWAP2 SWAP1 PUSH2 0x2BF6 JUMP JUMPDEST PUSH1 0x20 PUSH1 0x40 MLOAD DUP1 DUP4 SUB DUP2 DUP7 DUP1 EXTCODESIZE ISZERO DUP1 ISZERO PUSH2 0x1A4C JUMPI PUSH1 0x0 DUP1 REVERT JUMPDEST POP GAS STATICCALL ISZERO DUP1 ISZERO PUSH2 0x1A60 JUMPI RETURNDATASIZE PUSH1 0x0 DUP1 RETURNDATACOPY RETURNDATASIZE PUSH1 0x0 REVERT JUMPDEST POP POP POP POP PUSH1 0x40 MLOAD RETURNDATASIZE PUSH1 0x1F NOT PUSH1 0x1F DUP3 ADD AND DUP3 ADD DUP1 PUSH1 0x40 MSTORE POP DUP2 ADD SWAP1 PUSH2 0x1A84 SWAP2 SWAP1 PUSH2 0x282D JUMP JUMPDEST PUSH2 0x2120 JUMP JUMPDEST PUSH2 0x1A99 JUMP JUMPDEST PUSH2 0x1A98 CALLER SELFBALANCE PUSH2 0x2256 JUMP JUMPDEST JUMPDEST PUSH2 0x1BE4 JUMP JUMPDEST PUSH1 0x0 PUSH1 0x8 DUP2 SWAP1 SSTORE POP PUSH1 0x0 PUSH20 0xFFFFFFFFFFFFFFFFFFFFFFFFFFFFFFFFFFFFFFFF AND PUSH1 0x1 PUSH1 0x0 SWAP1 SLOAD SWAP1 PUSH2 0x100 EXP SWAP1 DIV PUSH20 0xFFFFFFFFFFFFFFFFFFFFFFFFFFFFFFFFFFFFFFFF AND PUSH20 0xFFFFFFFFFFFFFFFFFFFFFFFFFFFFFFFFFFFFFFFF AND EQ PUSH2 0x1BD8 JUMPI PUSH2 0x1BD3 PUSH1 0x1 PUSH1 0x0 SWAP1 SLOAD SWAP1 PUSH2 0x100 EXP SWAP1 DIV PUSH20 0xFFFFFFFFFFFFFFFFFFFFFFFFFFFFFFFFFFFFFFFF AND CALLER PUSH1 0x1 PUSH1 0x0 SWAP1 SLOAD SWAP1 PUSH2 0x100 EXP SWAP1 DIV PUSH20 0xFFFFFFFFFFFFFFFFFFFFFFFFFFFFFFFFFFFFFFFF AND PUSH20 0xFFFFFFFFFFFFFFFFFFFFFFFFFFFFFFFFFFFFFFFF AND PUSH4 0x70A08231 ADDRESS PUSH1 0x40 MLOAD DUP3 PUSH4 0xFFFFFFFF AND PUSH1 0xE0 SHL DUP2 MSTORE PUSH1 0x4 ADD PUSH2 0x1B7E SWAP2 SWAP1 PUSH2 0x2BF6 JUMP JUMPDEST PUSH1 0x20 PUSH1 0x40 MLOAD DUP1 DUP4 SUB DUP2 DUP7 DUP1 EXTCODESIZE ISZERO DUP1 ISZERO PUSH2 0x1B96 JUMPI PUSH1 0x0 DUP1 REVERT JUMPDEST POP GAS STATICCALL ISZERO DUP1 ISZERO PUSH2 0x1BAA JUMPI RETURNDATASIZE PUSH1 0x0 DUP1 RETURNDATACOPY RETURNDATASIZE PUSH1 0x0 REVERT JUMPDEST POP POP POP POP PUSH1 0x40 MLOAD RETURNDATASIZE PUSH1 0x1F NOT PUSH1 0x1F DUP3 ADD AND DUP3 ADD DUP1 PUSH1 0x40 MSTORE POP DUP2 ADD SWAP1 PUSH2 0x1BCE SWAP2 SWAP1 PUSH2 0x282D JUMP JUMPDEST PUSH2 0x2120 JUMP JUMPDEST PUSH2 0x1BE3 JUMP JUMPDEST PUSH2 0x1BE2 CALLER SELFBALANCE PUSH2 0x2256 JUMP JUMPDEST JUMPDEST JUMPDEST PUSH2 0x1C10 PUSH2 0x1BFF PUSH3 0x15180 PUSH1 0x8 SLOAD PUSH2 0x20DE SWAP1 SWAP2 SWAP1 PUSH4 0xFFFFFFFF AND JUMP JUMPDEST PUSH1 0x7 SLOAD PUSH2 0x20F4 SWAP1 SWAP2 SWAP1 PUSH4 0xFFFFFFFF AND JUMP JUMPDEST PUSH32 0x94BB74A9473AE4063EC1E73DC3E35FD4B5ABE9CC1E43AD0DB84E5358559CCD5A PUSH1 0x40 MLOAD PUSH1 0x40 MLOAD DUP1 SWAP2 SUB SWAP1 LOG2 POP JUMP JUMPDEST PUSH2 0x1C47 PUSH2 0x20C0 JUMP JUMPDEST PUSH20 0xFFFFFFFFFFFFFFFFFFFFFFFFFFFFFFFFFFFFFFFF AND PUSH2 0x1C65 PUSH2 0x1192 JUMP JUMPDEST PUSH20 0xFFFFFFFFFFFFFFFFFFFFFFFFFFFFFFFFFFFFFFFF AND EQ PUSH2 0x1CBB JUMPI PUSH1 0x40 MLOAD PUSH32 0x8C379A000000000000000000000000000000000000000000000000000000000 DUP2 MSTORE PUSH1 0x4 ADD PUSH2 0x1CB2 SWAP1 PUSH2 0x2E29 JUMP JUMPDEST PUSH1 0x40 MLOAD DUP1 SWAP2 SUB SWAP1 REVERT JUMPDEST PUSH1 0x0 PUSH20 0xFFFFFFFFFFFFFFFFFFFFFFFFFFFFFFFFFFFFFFFF AND DUP2 PUSH20 0xFFFFFFFFFFFFFFFFFFFFFFFFFFFFFFFFFFFFFFFF AND EQ ISZERO PUSH2 0x1D2B JUMPI PUSH1 0x40 MLOAD PUSH32 0x8C379A000000000000000000000000000000000000000000000000000000000 DUP2 MSTORE PUSH1 0x4 ADD PUSH2 0x1D22 SWAP1 PUSH2 0x2CE9 JUMP JUMPDEST PUSH1 0x40 MLOAD DUP1 SWAP2 SUB SWAP1 REVERT JUMPDEST PUSH2 0x1D34 DUP2 PUSH2 0x2356 JUMP JUMPDEST POP JUMP JUMPDEST PUSH1 0xE PUSH1 0x20 MSTORE DUP1 PUSH1 0x0 MSTORE PUSH1 0x40 PUSH1 0x0 KECCAK256 PUSH1 0x0 SWAP2 POP SLOAD SWAP1 PUSH2 0x100 EXP SWAP1 DIV PUSH20 0xFFFFFFFFFFFFFFFFFFFFFFFFFFFFFFFFFFFFFFFF AND DUP2 JUMP JUMPDEST PUSH1 0x1 PUSH1 0x0 SWAP1 SLOAD SWAP1 PUSH2 0x100 EXP SWAP1 DIV PUSH20 0xFFFFFFFFFFFFFFFFFFFFFFFFFFFFFFFFFFFFFFFF AND DUP2 JUMP JUMPDEST PUSH1 0x5 SLOAD DUP2 JUMP JUMPDEST PUSH2 0x1D9E PUSH2 0x20C0 JUMP JUMPDEST PUSH20 0xFFFFFFFFFFFFFFFFFFFFFFFFFFFFFFFFFFFFFFFF AND PUSH2 0x1DBC PUSH2 0x1192 JUMP JUMPDEST PUSH20 0xFFFFFFFFFFFFFFFFFFFFFFFFFFFFFFFFFFFFFFFF AND EQ PUSH2 0x1E12 JUMPI PUSH1 0x40 MLOAD PUSH32 0x8C379A000000000000000000000000000000000000000000000000000000000 DUP2 MSTORE PUSH1 0x4 ADD PUSH2 0x1E09 SWAP1 PUSH2 0x2E29 JUMP JUMPDEST PUSH1 0x40 MLOAD DUP1 SWAP2 SUB SWAP1 REVERT JUMPDEST PUSH1 0x1 PUSH1 0x0 SWAP1 SLOAD SWAP1 PUSH2 0x100 EXP SWAP1 DIV PUSH20 0xFFFFFFFFFFFFFFFFFFFFFFFFFFFFFFFFFFFFFFFF AND PUSH20 0xFFFFFFFFFFFFFFFFFFFFFFFFFFFFFFFFFFFFFFFF AND DUP2 PUSH20 0xFFFFFFFFFFFFFFFFFFFFFFFFFFFFFFFFFFFFFFFF AND EQ ISZERO PUSH2 0x1EA3 JUMPI PUSH1 0x40 MLOAD PUSH32 0x8C379A000000000000000000000000000000000000000000000000000000000 DUP2 MSTORE PUSH1 0x4 ADD PUSH2 0x1E9A SWAP1 PUSH2 0x2DC9 JUMP JUMPDEST PUSH1 0x40 MLOAD DUP1 SWAP2 SUB SWAP1 REVERT JUMPDEST PUSH1 0x1 PUSH1 0x0 SWAP1 SLOAD SWAP1 PUSH2 0x100 EXP SWAP1 DIV PUSH20 0xFFFFFFFFFFFFFFFFFFFFFFFFFFFFFFFFFFFFFFFF AND PUSH20 0xFFFFFFFFFFFFFFFFFFFFFFFFFFFFFFFFFFFFFFFF AND PUSH4 0x70A08231 ADDRESS PUSH1 0x40 MLOAD DUP3 PUSH4 0xFFFFFFFF AND PUSH1 0xE0 SHL DUP2 MSTORE PUSH1 0x4 ADD PUSH2 0x1EFE SWAP2 SWAP1 PUSH2 0x2BF6 JUMP JUMPDEST PUSH1 0x20 PUSH1 0x40 MLOAD DUP1 DUP4 SUB DUP2 DUP7 DUP1 EXTCODESIZE ISZERO DUP1 ISZERO PUSH2 0x1F16 JUMPI PUSH1 0x0 DUP1 REVERT JUMPDEST POP GAS STATICCALL ISZERO DUP1 ISZERO PUSH2 0x1F2A JUMPI RETURNDATASIZE PUSH1 0x0 DUP1 RETURNDATACOPY RETURNDATASIZE PUSH1 0x0 REVERT JUMPDEST POP POP POP POP PUSH1 0x40 MLOAD RETURNDATASIZE PUSH1 0x1F NOT PUSH1 0x1F DUP3 ADD AND DUP3 ADD DUP1 PUSH1 0x40 MSTORE POP DUP2 ADD SWAP1 PUSH2 0x1F4E SWAP2 SWAP1 PUSH2 0x282D JUMP JUMPDEST DUP2 PUSH20 0xFFFFFFFFFFFFFFFFFFFFFFFFFFFFFFFFFFFFFFFF AND PUSH4 0x70A08231 ADDRESS PUSH1 0x40 MLOAD DUP3 PUSH4 0xFFFFFFFF AND PUSH1 0xE0 SHL DUP2 MSTORE PUSH1 0x4 ADD PUSH2 0x1F87 SWAP2 SWAP1 PUSH2 0x2BF6 JUMP JUMPDEST PUSH1 0x20 PUSH1 0x40 MLOAD DUP1 DUP4 SUB DUP2 DUP7 DUP1 EXTCODESIZE ISZERO DUP1 ISZERO PUSH2 0x1F9F JUMPI PUSH1 0x0 DUP1 REVERT JUMPDEST POP GAS STATICCALL ISZERO DUP1 ISZERO PUSH2 0x1FB3 JUMPI RETURNDATASIZE PUSH1 0x0 DUP1 RETURNDATACOPY RETURNDATASIZE PUSH1 0x0 REVERT JUMPDEST POP POP POP POP PUSH1 0x40 MLOAD RETURNDATASIZE PUSH1 0x1F NOT PUSH1 0x1F DUP3 ADD AND DUP3 ADD DUP1 PUSH1 0x40 MSTORE POP DUP2 ADD SWAP1 PUSH2 0x1FD7 SWAP2 SWAP1 PUSH2 0x282D JUMP JUMPDEST EQ PUSH2 0x2017 JUMPI PUSH1 0x40 MLOAD PUSH32 0x8C379A000000000000000000000000000000000000000000000000000000000 DUP2 MSTORE PUSH1 0x4 ADD PUSH2 0x200E SWAP1 PUSH2 0x2E09 JUMP JUMPDEST PUSH1 0x40 MLOAD DUP1 SWAP2 SUB SWAP1 REVERT JUMPDEST DUP1 PUSH1 0x1 PUSH1 0x0 PUSH2 0x100 EXP DUP2 SLOAD DUP2 PUSH20 0xFFFFFFFFFFFFFFFFFFFFFFFFFFFFFFFFFFFFFFFF MUL NOT AND SWAP1 DUP4 PUSH20 0xFFFFFFFFFFFFFFFFFFFFFFFFFFFFFFFFFFFFFFFF AND MUL OR SWAP1 SSTORE POP PUSH1 0x1 PUSH1 0x0 SWAP1 SLOAD SWAP1 PUSH2 0x100 EXP SWAP1 DIV PUSH20 0xFFFFFFFFFFFFFFFFFFFFFFFFFFFFFFFFFFFFFFFF AND PUSH20 0xFFFFFFFFFFFFFFFFFFFFFFFFFFFFFFFFFFFFFFFF AND PUSH32 0x3FCFC24A3384CA156092D9242CB0F84ABAF442146D91B8C93BEA526561B83F83 PUSH1 0x40 MLOAD PUSH1 0x40 MLOAD DUP1 SWAP2 SUB SWAP1 LOG2 POP JUMP JUMPDEST PUSH1 0x0 CALLER SWAP1 POP SWAP1 JUMP JUMPDEST PUSH1 0x0 DUP2 DUP4 PUSH2 0x20D6 SWAP2 SWAP1 PUSH2 0x3097 JUMP JUMPDEST SWAP1 POP SWAP3 SWAP2 POP POP JUMP JUMPDEST PUSH1 0x0 DUP2 DUP4 PUSH2 0x20EC SWAP2 SWAP1 PUSH2 0x303D JUMP JUMPDEST SWAP1 POP SWAP3 SWAP2 POP POP JUMP JUMPDEST PUSH1 0x0 DUP2 DUP4 PUSH2 0x2102 SWAP2 SWAP1 PUSH2 0x2FB6 JUMP JUMPDEST SWAP1 POP SWAP3 SWAP2 POP POP JUMP JUMPDEST PUSH1 0x0 DUP2 DUP4 PUSH2 0x2118 SWAP2 SWAP1 PUSH2 0x300C JUMP JUMPDEST SWAP1 POP SWAP3 SWAP2 POP POP JUMP JUMPDEST PUSH1 0x0 DUP1 DUP5 PUSH20 0xFFFFFFFFFFFFFFFFFFFFFFFFFFFFFFFFFFFFFFFF AND PUSH4 0xA9059CBB DUP6 DUP6 PUSH1 0x40 MLOAD PUSH1 0x24 ADD PUSH2 0x2152 SWAP3 SWAP2 SWAP1 PUSH2 0x2C48 JUMP JUMPDEST PUSH1 0x40 MLOAD PUSH1 0x20 DUP2 DUP4 SUB SUB DUP2 MSTORE SWAP1 PUSH1 0x40 MSTORE SWAP1 PUSH1 0xE0 SHL PUSH1 0x20 DUP3 ADD DUP1 MLOAD PUSH28 0xFFFFFFFFFFFFFFFFFFFFFFFFFFFFFFFFFFFFFFFFFFFFFFFFFFFFFFFF DUP4 DUP2 DUP4 AND OR DUP4 MSTORE POP POP POP POP PUSH1 0x40 MLOAD PUSH2 0x21A0 SWAP2 SWAP1 PUSH2 0x2BDF JUMP JUMPDEST PUSH1 0x0 PUSH1 0x40 MLOAD DUP1 DUP4 SUB DUP2 PUSH1 0x0 DUP7 GAS CALL SWAP2 POP POP RETURNDATASIZE DUP1 PUSH1 0x0 DUP2 EQ PUSH2 0x21DD JUMPI PUSH1 0x40 MLOAD SWAP2 POP PUSH1 0x1F NOT PUSH1 0x3F RETURNDATASIZE ADD AND DUP3 ADD PUSH1 0x40 MSTORE RETURNDATASIZE DUP3 MSTORE RETURNDATASIZE PUSH1 0x0 PUSH1 0x20 DUP5 ADD RETURNDATACOPY PUSH2 0x21E2 JUMP JUMPDEST PUSH1 0x60 SWAP2 POP JUMPDEST POP SWAP2 POP SWAP2 POP DUP2 DUP1 ISZERO PUSH2 0x2210 JUMPI POP PUSH1 0x0 DUP2 MLOAD EQ DUP1 PUSH2 0x220F JUMPI POP DUP1 DUP1 PUSH1 0x20 ADD SWAP1 MLOAD DUP2 ADD SWAP1 PUSH2 0x220E SWAP2 SWAP1 PUSH2 0x27A6 JUMP JUMPDEST JUMPDEST JUMPDEST PUSH2 0x224F JUMPI PUSH1 0x40 MLOAD PUSH32 0x8C379A000000000000000000000000000000000000000000000000000000000 DUP2 MSTORE PUSH1 0x4 ADD PUSH2 0x2246 SWAP1 PUSH2 0x2EA9 JUMP JUMPDEST PUSH1 0x40 MLOAD DUP1 SWAP2 SUB SWAP1 REVERT JUMPDEST POP POP POP POP POP JUMP JUMPDEST PUSH1 0x0 DUP3 PUSH20 0xFFFFFFFFFFFFFFFFFFFFFFFFFFFFFFFFFFFFFFFF AND DUP3 PUSH1 0x0 PUSH8 0xFFFFFFFFFFFFFFFF DUP2 GT ISZERO PUSH2 0x228B JUMPI PUSH2 0x228A PUSH2 0x31EC JUMP JUMPDEST JUMPDEST PUSH1 0x40 MLOAD SWAP1 DUP1 DUP3 MSTORE DUP1 PUSH1 0x1F ADD PUSH1 0x1F NOT AND PUSH1 0x20 ADD DUP3 ADD PUSH1 0x40 MSTORE DUP1 ISZERO PUSH2 0x22BD JUMPI DUP2 PUSH1 0x20 ADD PUSH1 0x1 DUP3 MUL DUP1 CALLDATASIZE DUP4 CALLDATACOPY DUP1 DUP3 ADD SWAP2 POP POP SWAP1 POP JUMPDEST POP PUSH1 0x40 MLOAD PUSH2 0x22CB SWAP2 SWAP1 PUSH2 0x2BDF JUMP JUMPDEST PUSH1 0x0 PUSH1 0x40 MLOAD DUP1 DUP4 SUB DUP2 DUP6 DUP8 GAS CALL SWAP3 POP POP POP RETURNDATASIZE DUP1 PUSH1 0x0 DUP2 EQ PUSH2 0x2308 JUMPI PUSH1 0x40 MLOAD SWAP2 POP PUSH1 0x1F NOT PUSH1 0x3F RETURNDATASIZE ADD AND DUP3 ADD PUSH1 0x40 MSTORE RETURNDATASIZE DUP3 MSTORE RETURNDATASIZE PUSH1 0x0 PUSH1 0x20 DUP5 ADD RETURNDATACOPY PUSH2 0x230D JUMP JUMPDEST PUSH1 0x60 SWAP2 POP JUMPDEST POP POP SWAP1 POP DUP1 PUSH2 0x2351 JUMPI PUSH1 0x40 MLOAD PUSH32 0x8C379A000000000000000000000000000000000000000000000000000000000 DUP2 MSTORE PUSH1 0x4 ADD PUSH2 0x2348 SWAP1 PUSH2 0x2D29 JUMP JUMPDEST PUSH1 0x40 MLOAD DUP1 SWAP2 SUB SWAP1 REVERT JUMPDEST POP POP POP JUMP JUMPDEST PUSH1 0x0 DUP1 PUSH1 0x0 SWAP1 SLOAD SWAP1 PUSH2 0x100 EXP SWAP1 DIV PUSH20 0xFFFFFFFFFFFFFFFFFFFFFFFFFFFFFFFFFFFFFFFF AND SWAP1 POP DUP2 PUSH1 0x0 DUP1 PUSH2 0x100 EXP DUP2 SLOAD DUP2 PUSH20 0xFFFFFFFFFFFFFFFFFFFFFFFFFFFFFFFFFFFFFFFF MUL NOT AND SWAP1 DUP4 PUSH20 0xFFFFFFFFFFFFFFFFFFFFFFFFFFFFFFFFFFFFFFFF AND MUL OR SWAP1 SSTORE POP DUP2 PUSH20 0xFFFFFFFFFFFFFFFFFFFFFFFFFFFFFFFFFFFFFFFF AND DUP2 PUSH20 0xFFFFFFFFFFFFFFFFFFFFFFFFFFFFFFFFFFFFFFFF AND PUSH32 0x8BE0079C531659141344CD1FD0A4F28419497F9722A3DAAFE3B4186F6B6457E0 PUSH1 0x40 MLOAD PUSH1 0x40 MLOAD DUP1 SWAP2 SUB SWAP1 LOG3 POP POP JUMP JUMPDEST PUSH2 0x249D DUP5 PUSH4 0x23B872DD PUSH1 0xE0 SHL DUP6 DUP6 DUP6 PUSH1 0x40 MLOAD PUSH1 0x24 ADD PUSH2 0x243B SWAP4 SWAP3 SWAP2 SWAP1 PUSH2 0x2C11 JUMP JUMPDEST PUSH1 0x40 MLOAD PUSH1 0x20 DUP2 DUP4 SUB SUB DUP2 MSTORE SWAP1 PUSH1 0x40 MSTORE SWAP1 PUSH28 0xFFFFFFFFFFFFFFFFFFFFFFFFFFFFFFFFFFFFFFFFFFFFFFFFFFFFFFFF NOT AND PUSH1 0x20 DUP3 ADD DUP1 MLOAD PUSH28 0xFFFFFFFFFFFFFFFFFFFFFFFFFFFFFFFFFFFFFFFFFFFFFFFFFFFFFFFF DUP4 DUP2 DUP4 AND OR DUP4 MSTORE POP POP POP POP PUSH2 0x24A3 JUMP JUMPDEST POP POP POP POP JUMP JUMPDEST PUSH1 0x0 PUSH2 0x2505 DUP3 PUSH1 0x40 MLOAD DUP1 PUSH1 0x40 ADD PUSH1 0x40 MSTORE DUP1 PUSH1 0x20 DUP2 MSTORE PUSH1 0x20 ADD PUSH32 0x5361666545524332303A206C6F772D6C6576656C2063616C6C206661696C6564 DUP2 MSTORE POP DUP6 PUSH20 0xFFFFFFFFFFFFFFFFFFFFFFFFFFFFFFFFFFFFFFFF AND PUSH2 0x256A SWAP1 SWAP3 SWAP2 SWAP1 PUSH4 0xFFFFFFFF AND JUMP JUMPDEST SWAP1 POP PUSH1 0x0 DUP2 MLOAD GT ISZERO PUSH2 0x2565 JUMPI DUP1 DUP1 PUSH1 0x20 ADD SWAP1 MLOAD DUP2 ADD SWAP1 PUSH2 0x2525 SWAP2 SWAP1 PUSH2 0x27A6 JUMP JUMPDEST PUSH2 0x2564 JUMPI PUSH1 0x40 MLOAD PUSH32 0x8C379A000000000000000000000000000000000000000000000000000000000 DUP2 MSTORE PUSH1 0x4 ADD PUSH2 0x255B SWAP1 PUSH2 0x2EE9 JUMP JUMPDEST PUSH1 0x40 MLOAD DUP1 SWAP2 SUB SWAP1 REVERT JUMPDEST JUMPDEST POP POP POP JUMP JUMPDEST PUSH1 0x60 PUSH2 0x2579 DUP5 DUP5 PUSH1 0x0 DUP6 PUSH2 0x2582 JUMP JUMPDEST SWAP1 POP SWAP4 SWAP3 POP POP POP JUMP JUMPDEST PUSH1 0x60 DUP3 SELFBALANCE LT ISZERO PUSH2 0x25C7 JUMPI PUSH1 0x40 MLOAD PUSH32 0x8C379A000000000000000000000000000000000000000000000000000000000 DUP2 MSTORE PUSH1 0x4 ADD PUSH2 0x25BE SWAP1 PUSH2 0x2D89 JUMP JUMPDEST PUSH1 0x40 MLOAD DUP1 SWAP2 SUB SWAP1 REVERT JUMPDEST PUSH2 0x25D0 DUP6 PUSH2 0x2696 JUMP JUMPDEST PUSH2 0x260F JUMPI PUSH1 0x40 MLOAD PUSH32 0x8C379A000000000000000000000000000000000000000000000000000000000 DUP2 MSTORE PUSH1 0x4 ADD PUSH2 0x2606 SWAP1 PUSH2 0x2E69 JUMP JUMPDEST PUSH1 0x40 MLOAD DUP1 SWAP2 SUB SWAP1 REVERT JUMPDEST PUSH1 0x0 DUP1 DUP7 PUSH20 0xFFFFFFFFFFFFFFFFFFFFFFFFFFFFFFFFFFFFFFFF AND DUP6 DUP8 PUSH1 0x40 MLOAD PUSH2 0x2638 SWAP2 SWAP1 PUSH2 0x2BDF JUMP JUMPDEST PUSH1 0x0 PUSH1 0x40 MLOAD DUP1 DUP4 SUB DUP2 DUP6 DUP8 GAS CALL SWAP3 POP POP POP RETURNDATASIZE DUP1 PUSH1 0x0 DUP2 EQ PUSH2 0x2675 JUMPI PUSH1 0x40 MLOAD SWAP2 POP PUSH1 0x1F NOT PUSH1 0x3F RETURNDATASIZE ADD AND DUP3 ADD PUSH1 0x40 MSTORE RETURNDATASIZE DUP3 MSTORE RETURNDATASIZE PUSH1 0x0 PUSH1 0x20 DUP5 ADD RETURNDATACOPY PUSH2 0x267A JUMP JUMPDEST PUSH1 0x60 SWAP2 POP JUMPDEST POP SWAP2 POP SWAP2 POP PUSH2 0x268A DUP3 DUP3 DUP7 PUSH2 0x26A9 JUMP JUMPDEST SWAP3 POP POP POP SWAP5 SWAP4 POP POP POP POP JUMP JUMPDEST PUSH1 0x0 DUP1 DUP3 EXTCODESIZE SWAP1 POP PUSH1 0x0 DUP2 GT SWAP2 POP POP SWAP2 SWAP1 POP JUMP JUMPDEST PUSH1 0x60 DUP4 ISZERO PUSH2 0x26B9 JUMPI DUP3 SWAP1 POP PUSH2 0x2709 JUMP JUMPDEST PUSH1 0x0 DUP4 MLOAD GT ISZERO PUSH2 0x26CC JUMPI DUP3 MLOAD DUP1 DUP5 PUSH1 0x20 ADD REVERT JUMPDEST DUP2 PUSH1 0x40 MLOAD PUSH32 0x8C379A000000000000000000000000000000000000000000000000000000000 DUP2 MSTORE PUSH1 0x4 ADD PUSH2 0x2700 SWAP2 SWAP1 PUSH2 0x2CA7 JUMP JUMPDEST PUSH1 0x40 MLOAD DUP1 SWAP2 SUB SWAP1 REVERT JUMPDEST SWAP4 SWAP3 POP POP POP JUMP JUMPDEST PUSH1 0x0 DUP2 CALLDATALOAD SWAP1 POP PUSH2 0x271F DUP2 PUSH2 0x38D2 JUMP JUMPDEST SWAP3 SWAP2 POP POP JUMP JUMPDEST PUSH1 0x0 DUP2 MLOAD SWAP1 POP PUSH2 0x2734 DUP2 PUSH2 0x38E9 JUMP JUMPDEST SWAP3 SWAP2 POP POP JUMP JUMPDEST PUSH1 0x0 DUP2 CALLDATALOAD SWAP1 POP PUSH2 0x2749 DUP2 PUSH2 0x3900 JUMP JUMPDEST SWAP3 SWAP2 POP POP JUMP JUMPDEST PUSH1 0x0 DUP2 CALLDATALOAD SWAP1 POP PUSH2 0x275E DUP2 PUSH2 0x3917 JUMP JUMPDEST SWAP3 SWAP2 POP POP JUMP JUMPDEST PUSH1 0x0 DUP2 MLOAD SWAP1 POP PUSH2 0x2773 DUP2 PUSH2 0x3917 JUMP JUMPDEST SWAP3 SWAP2 POP POP JUMP JUMPDEST PUSH1 0x0 PUSH1 0x20 DUP3 DUP5 SUB SLT ISZERO PUSH2 0x278F JUMPI PUSH2 0x278E PUSH2 0x321B JUMP JUMPDEST JUMPDEST PUSH1 0x0 PUSH2 0x279D DUP5 DUP3 DUP6 ADD PUSH2 0x2710 JUMP JUMPDEST SWAP2 POP POP SWAP3 SWAP2 POP POP JUMP JUMPDEST PUSH1 0x0 PUSH1 0x20 DUP3 DUP5 SUB SLT ISZERO PUSH2 0x27BC JUMPI PUSH2 0x27BB PUSH2 0x321B JUMP JUMPDEST JUMPDEST PUSH1 0x0 PUSH2 0x27CA DUP5 DUP3 DUP6 ADD PUSH2 0x2725 JUMP JUMPDEST SWAP2 POP POP SWAP3 SWAP2 POP POP JUMP JUMPDEST PUSH1 0x0 PUSH1 0x20 DUP3 DUP5 SUB SLT ISZERO PUSH2 0x27E9 JUMPI PUSH2 0x27E8 PUSH2 0x321B JUMP JUMPDEST JUMPDEST PUSH1 0x0 PUSH2 0x27F7 DUP5 DUP3 DUP6 ADD PUSH2 0x273A JUMP JUMPDEST SWAP2 POP POP SWAP3 SWAP2 POP POP JUMP JUMPDEST PUSH1 0x0 PUSH1 0x20 DUP3 DUP5 SUB SLT ISZERO PUSH2 0x2816 JUMPI PUSH2 0x2815 PUSH2 0x321B JUMP JUMPDEST JUMPDEST PUSH1 0x0 PUSH2 0x2824 DUP5 DUP3 DUP6 ADD PUSH2 0x274F JUMP JUMPDEST SWAP2 POP POP SWAP3 SWAP2 POP POP JUMP JUMPDEST PUSH1 0x0 PUSH1 0x20 DUP3 DUP5 SUB SLT ISZERO PUSH2 0x2843 JUMPI PUSH2 0x2842 PUSH2 0x321B JUMP JUMPDEST JUMPDEST PUSH1 0x0 PUSH2 0x2851 DUP5 DUP3 DUP6 ADD PUSH2 0x2764 JUMP JUMPDEST SWAP2 POP POP SWAP3 SWAP2 POP POP JUMP JUMPDEST PUSH2 0x2863 DUP2 PUSH2 0x30CB JUMP JUMPDEST DUP3 MSTORE POP POP JUMP JUMPDEST PUSH2 0x2872 DUP2 PUSH2 0x30DD JUMP JUMPDEST DUP3 MSTORE POP POP JUMP JUMPDEST PUSH1 0x0 PUSH2 0x2883 DUP3 PUSH2 0x2F84 JUMP JUMPDEST PUSH2 0x288D DUP2 DUP6 PUSH2 0x2F9A JUMP JUMPDEST SWAP4 POP PUSH2 0x289D DUP2 DUP6 PUSH1 0x20 DUP7 ADD PUSH2 0x315B JUMP JUMPDEST DUP1 DUP5 ADD SWAP2 POP POP SWAP3 SWAP2 POP POP JUMP JUMPDEST PUSH2 0x28B2 DUP2 PUSH2 0x3125 JUMP JUMPDEST DUP3 MSTORE POP POP JUMP JUMPDEST PUSH1 0x0 PUSH2 0x28C3 DUP3 PUSH2 0x2F8F JUMP JUMPDEST PUSH2 0x28CD DUP2 DUP6 PUSH2 0x2FA5 JUMP JUMPDEST SWAP4 POP PUSH2 0x28DD DUP2 DUP6 PUSH1 0x20 DUP7 ADD PUSH2 0x315B JUMP JUMPDEST PUSH2 0x28E6 DUP2 PUSH2 0x3220 JUMP JUMPDEST DUP5 ADD SWAP2 POP POP SWAP3 SWAP2 POP POP JUMP JUMPDEST PUSH1 0x0 PUSH2 0x28FE PUSH1 0x35 DUP4 PUSH2 0x2FA5 JUMP JUMPDEST SWAP2 POP PUSH2 0x2909 DUP3 PUSH2 0x3231 JUMP JUMPDEST PUSH1 0x40 DUP3 ADD SWAP1 POP SWAP2 SWAP1 POP JUMP JUMPDEST PUSH1 0x0 PUSH2 0x2921 PUSH1 0x26 DUP4 PUSH2 0x2FA5 JUMP JUMPDEST SWAP2 POP PUSH2 0x292C DUP3 PUSH2 0x3280 JUMP JUMPDEST PUSH1 0x40 DUP3 ADD SWAP1 POP SWAP2 SWAP1 POP JUMP JUMPDEST PUSH1 0x0 PUSH2 0x2944 PUSH1 0x39 DUP4 PUSH2 0x2FA5 JUMP JUMPDEST SWAP2 POP PUSH2 0x294F DUP3 PUSH2 0x32CF JUMP JUMPDEST PUSH1 0x40 DUP3 ADD SWAP1 POP SWAP2 SWAP1 POP JUMP JUMPDEST PUSH1 0x0 PUSH2 0x2967 PUSH1 0x34 DUP4 PUSH2 0x2FA5 JUMP JUMPDEST SWAP2 POP PUSH2 0x2972 DUP3 PUSH2 0x331E JUMP JUMPDEST PUSH1 0x40 DUP3 ADD SWAP1 POP SWAP2 SWAP1 POP JUMP JUMPDEST PUSH1 0x0 PUSH2 0x298A PUSH1 0x29 DUP4 PUSH2 0x2FA5 JUMP JUMPDEST SWAP2 POP PUSH2 0x2995 DUP3 PUSH2 0x336D JUMP JUMPDEST PUSH1 0x40 DUP3 ADD SWAP1 POP SWAP2 SWAP1 POP JUMP JUMPDEST PUSH1 0x0 PUSH2 0x29AD PUSH1 0x3C DUP4 PUSH2 0x2FA5 JUMP JUMPDEST SWAP2 POP PUSH2 0x29B8 DUP3 PUSH2 0x33BC JUMP JUMPDEST PUSH1 0x40 DUP3 ADD SWAP1 POP SWAP2 SWAP1 POP JUMP JUMPDEST PUSH1 0x0 PUSH2 0x29D0 PUSH1 0x26 DUP4 PUSH2 0x2FA5 JUMP JUMPDEST SWAP2 POP PUSH2 0x29DB DUP3 PUSH2 0x340B JUMP JUMPDEST PUSH1 0x40 DUP3 ADD SWAP1 POP SWAP2 SWAP1 POP JUMP JUMPDEST PUSH1 0x0 PUSH2 0x29F3 PUSH1 0x31 DUP4 PUSH2 0x2FA5 JUMP JUMPDEST SWAP2 POP PUSH2 0x29FE DUP3 PUSH2 0x345A JUMP JUMPDEST PUSH1 0x40 DUP3 ADD SWAP1 POP SWAP2 SWAP1 POP JUMP JUMPDEST PUSH1 0x0 PUSH2 0x2A16 PUSH1 0x46 DUP4 PUSH2 0x2FA5 JUMP JUMPDEST SWAP2 POP PUSH2 0x2A21 DUP3 PUSH2 0x34A9 JUMP JUMPDEST PUSH1 0x60 DUP3 ADD SWAP1 POP SWAP2 SWAP1 POP JUMP JUMPDEST PUSH1 0x0 PUSH2 0x2A39 PUSH1 0x5D DUP4 PUSH2 0x2FA5 JUMP JUMPDEST SWAP2 POP PUSH2 0x2A44 DUP3 PUSH2 0x351E JUMP JUMPDEST PUSH1 0x60 DUP3 ADD SWAP1 POP SWAP2 SWAP1 POP JUMP JUMPDEST PUSH1 0x0 PUSH2 0x2A5C PUSH1 0x77 DUP4 PUSH2 0x2FA5 JUMP JUMPDEST SWAP2 POP PUSH2 0x2A67 DUP3 PUSH2 0x3593 JUMP JUMPDEST PUSH1 0x80 DUP3 ADD SWAP1 POP SWAP2 SWAP1 POP JUMP JUMPDEST PUSH1 0x0 PUSH2 0x2A7F PUSH1 0x20 DUP4 PUSH2 0x2FA5 JUMP JUMPDEST SWAP2 POP PUSH2 0x2A8A DUP3 PUSH2 0x362E JUMP JUMPDEST PUSH1 0x20 DUP3 ADD SWAP1 POP SWAP2 SWAP1 POP JUMP JUMPDEST PUSH1 0x0 PUSH2 0x2AA2 PUSH1 0x35 DUP4 PUSH2 0x2FA5 JUMP JUMPDEST SWAP2 POP PUSH2 0x2AAD DUP3 PUSH2 0x3657 JUMP JUMPDEST PUSH1 0x40 DUP3 ADD SWAP1 POP SWAP2 SWAP1 POP JUMP JUMPDEST PUSH1 0x0 PUSH2 0x2AC5 PUSH1 0x1D DUP4 PUSH2 0x2FA5 JUMP JUMPDEST SWAP2 POP PUSH2 0x2AD0 DUP3 PUSH2 0x36A6 JUMP JUMPDEST PUSH1 0x20 DUP3 ADD SWAP1 POP SWAP2 SWAP1 POP JUMP JUMPDEST PUSH1 0x0 PUSH2 0x2AE8 PUSH1 0x23 DUP4 PUSH2 0x2FA5 JUMP JUMPDEST SWAP2 POP PUSH2 0x2AF3 DUP3 PUSH2 0x36CF JUMP JUMPDEST PUSH1 0x40 DUP3 ADD SWAP1 POP SWAP2 SWAP1 POP JUMP JUMPDEST PUSH1 0x0 PUSH2 0x2B0B PUSH1 0x2D DUP4 PUSH2 0x2FA5 JUMP JUMPDEST SWAP2 POP PUSH2 0x2B16 DUP3 PUSH2 0x371E JUMP JUMPDEST PUSH1 0x40 DUP3 ADD SWAP1 POP SWAP2 SWAP1 POP JUMP JUMPDEST PUSH1 0x0 PUSH2 0x2B2E PUSH1 0x2A DUP4 PUSH2 0x2FA5 JUMP JUMPDEST SWAP2 POP PUSH2 0x2B39 DUP3 PUSH2 0x376D JUMP JUMPDEST PUSH1 0x40 DUP3 ADD SWAP1 POP SWAP2 SWAP1 POP JUMP JUMPDEST PUSH1 0x0 PUSH2 0x2B51 PUSH1 0x2A DUP4 PUSH2 0x2FA5 JUMP JUMPDEST SWAP2 POP PUSH2 0x2B5C DUP3 PUSH2 0x37BC JUMP JUMPDEST PUSH1 0x40 DUP3 ADD SWAP1 POP SWAP2 SWAP1 POP JUMP JUMPDEST PUSH1 0x0 PUSH2 0x2B74 PUSH1 0x26 DUP4 PUSH2 0x2FA5 JUMP JUMPDEST SWAP2 POP PUSH2 0x2B7F DUP3 PUSH2 0x380B JUMP JUMPDEST PUSH1 0x40 DUP3 ADD SWAP1 POP SWAP2 SWAP1 POP JUMP JUMPDEST PUSH1 0x0 PUSH2 0x2B97 PUSH1 0x1F DUP4 PUSH2 0x2FA5 JUMP JUMPDEST SWAP2 POP PUSH2 0x2BA2 DUP3 PUSH2 0x385A JUMP JUMPDEST PUSH1 0x20 DUP3 ADD SWAP1 POP SWAP2 SWAP1 POP JUMP JUMPDEST PUSH1 0x0 PUSH2 0x2BBA PUSH1 0x34 DUP4 PUSH2 0x2FA5 JUMP JUMPDEST SWAP2 POP PUSH2 0x2BC5 DUP3 PUSH2 0x3883 JUMP JUMPDEST PUSH1 0x40 DUP3 ADD SWAP1 POP SWAP2 SWAP1 POP JUMP JUMPDEST PUSH2 0x2BD9 DUP2 PUSH2 0x311B JUMP JUMPDEST DUP3 MSTORE POP POP JUMP JUMPDEST PUSH1 0x0 PUSH2 0x2BEB DUP3 DUP5 PUSH2 0x2878 JUMP JUMPDEST SWAP2 POP DUP2 SWAP1 POP SWAP3 SWAP2 POP POP JUMP JUMPDEST PUSH1 0x0 PUSH1 0x20 DUP3 ADD SWAP1 POP PUSH2 0x2C0B PUSH1 0x0 DUP4 ADD DUP5 PUSH2 0x285A JUMP JUMPDEST SWAP3 SWAP2 POP POP JUMP JUMPDEST PUSH1 0x0 PUSH1 0x60 DUP3 ADD SWAP1 POP PUSH2 0x2C26 PUSH1 0x0 DUP4 ADD DUP7 PUSH2 0x285A JUMP JUMPDEST PUSH2 0x2C33 PUSH1 0x20 DUP4 ADD DUP6 PUSH2 0x285A JUMP JUMPDEST PUSH2 0x2C40 PUSH1 0x40 DUP4 ADD DUP5 PUSH2 0x2BD0 JUMP JUMPDEST SWAP5 SWAP4 POP POP POP POP JUMP JUMPDEST PUSH1 0x0 PUSH1 0x40 DUP3 ADD SWAP1 POP PUSH2 0x2C5D PUSH1 0x0 DUP4 ADD DUP6 PUSH2 0x285A JUMP JUMPDEST PUSH2 0x2C6A PUSH1 0x20 DUP4 ADD DUP5 PUSH2 0x2BD0 JUMP JUMPDEST SWAP4 SWAP3 POP POP POP JUMP JUMPDEST PUSH1 0x0 PUSH1 0x20 DUP3 ADD SWAP1 POP PUSH2 0x2C86 PUSH1 0x0 DUP4 ADD DUP5 PUSH2 0x2869 JUMP JUMPDEST SWAP3 SWAP2 POP POP JUMP JUMPDEST PUSH1 0x0 PUSH1 0x20 DUP3 ADD SWAP1 POP PUSH2 0x2CA1 PUSH1 0x0 DUP4 ADD DUP5 PUSH2 0x28A9 JUMP JUMPDEST SWAP3 SWAP2 POP POP JUMP JUMPDEST PUSH1 0x0 PUSH1 0x20 DUP3 ADD SWAP1 POP DUP2 DUP2 SUB PUSH1 0x0 DUP4 ADD MSTORE PUSH2 0x2CC1 DUP2 DUP5 PUSH2 0x28B8 JUMP JUMPDEST SWAP1 POP SWAP3 SWAP2 POP POP JUMP JUMPDEST PUSH1 0x0 PUSH1 0x20 DUP3 ADD SWAP1 POP DUP2 DUP2 SUB PUSH1 0x0 DUP4 ADD MSTORE PUSH2 0x2CE2 DUP2 PUSH2 0x28F1 JUMP JUMPDEST SWAP1 POP SWAP2 SWAP1 POP JUMP JUMPDEST PUSH1 0x0 PUSH1 0x20 DUP3 ADD SWAP1 POP DUP2 DUP2 SUB PUSH1 0x0 DUP4 ADD MSTORE PUSH2 0x2D02 DUP2 PUSH2 0x2914 JUMP JUMPDEST SWAP1 POP SWAP2 SWAP1 POP JUMP JUMPDEST PUSH1 0x0 PUSH1 0x20 DUP3 ADD SWAP1 POP DUP2 DUP2 SUB PUSH1 0x0 DUP4 ADD MSTORE PUSH2 0x2D22 DUP2 PUSH2 0x2937 JUMP JUMPDEST SWAP1 POP SWAP2 SWAP1 POP JUMP JUMPDEST PUSH1 0x0 PUSH1 0x20 DUP3 ADD SWAP1 POP DUP2 DUP2 SUB PUSH1 0x0 DUP4 ADD MSTORE PUSH2 0x2D42 DUP2 PUSH2 0x295A JUMP JUMPDEST SWAP1 POP SWAP2 SWAP1 POP JUMP JUMPDEST PUSH1 0x0 PUSH1 0x20 DUP3 ADD SWAP1 POP DUP2 DUP2 SUB PUSH1 0x0 DUP4 ADD MSTORE PUSH2 0x2D62 DUP2 PUSH2 0x297D JUMP JUMPDEST SWAP1 POP SWAP2 SWAP1 POP JUMP JUMPDEST PUSH1 0x0 PUSH1 0x20 DUP3 ADD SWAP1 POP DUP2 DUP2 SUB PUSH1 0x0 DUP4 ADD MSTORE PUSH2 0x2D82 DUP2 PUSH2 0x29A0 JUMP JUMPDEST SWAP1 POP SWAP2 SWAP1 POP JUMP JUMPDEST PUSH1 0x0 PUSH1 0x20 DUP3 ADD SWAP1 POP DUP2 DUP2 SUB PUSH1 0x0 DUP4 ADD MSTORE PUSH2 0x2DA2 DUP2 PUSH2 0x29C3 JUMP JUMPDEST SWAP1 POP SWAP2 SWAP1 POP JUMP JUMPDEST PUSH1 0x0 PUSH1 0x20 DUP3 ADD SWAP1 POP DUP2 DUP2 SUB PUSH1 0x0 DUP4 ADD MSTORE PUSH2 0x2DC2 DUP2 PUSH2 0x29E6 JUMP JUMPDEST SWAP1 POP SWAP2 SWAP1 POP JUMP JUMPDEST PUSH1 0x0 PUSH1 0x20 DUP3 ADD SWAP1 POP DUP2 DUP2 SUB PUSH1 0x0 DUP4 ADD MSTORE PUSH2 0x2DE2 DUP2 PUSH2 0x2A09 JUMP JUMPDEST SWAP1 POP SWAP2 SWAP1 POP JUMP JUMPDEST PUSH1 0x0 PUSH1 0x20 DUP3 ADD SWAP1 POP DUP2 DUP2 SUB PUSH1 0x0 DUP4 ADD MSTORE PUSH2 0x2E02 DUP2 PUSH2 0x2A2C JUMP JUMPDEST SWAP1 POP SWAP2 SWAP1 POP JUMP JUMPDEST PUSH1 0x0 PUSH1 0x20 DUP3 ADD SWAP1 POP DUP2 DUP2 SUB PUSH1 0x0 DUP4 ADD MSTORE PUSH2 0x2E22 DUP2 PUSH2 0x2A4F JUMP JUMPDEST SWAP1 POP SWAP2 SWAP1 POP JUMP JUMPDEST PUSH1 0x0 PUSH1 0x20 DUP3 ADD SWAP1 POP DUP2 DUP2 SUB PUSH1 0x0 DUP4 ADD MSTORE PUSH2 0x2E42 DUP2 PUSH2 0x2A72 JUMP JUMPDEST SWAP1 POP SWAP2 SWAP1 POP JUMP JUMPDEST PUSH1 0x0 PUSH1 0x20 DUP3 ADD SWAP1 POP DUP2 DUP2 SUB PUSH1 0x0 DUP4 ADD MSTORE PUSH2 0x2E62 DUP2 PUSH2 0x2A95 JUMP JUMPDEST SWAP1 POP SWAP2 SWAP1 POP JUMP JUMPDEST PUSH1 0x0 PUSH1 0x20 DUP3 ADD SWAP1 POP DUP2 DUP2 SUB PUSH1 0x0 DUP4 ADD MSTORE PUSH2 0x2E82 DUP2 PUSH2 0x2AB8 JUMP JUMPDEST SWAP1 POP SWAP2 SWAP1 POP JUMP JUMPDEST PUSH1 0x0 PUSH1 0x20 DUP3 ADD SWAP1 POP DUP2 DUP2 SUB PUSH1 0x0 DUP4 ADD MSTORE PUSH2 0x2EA2 DUP2 PUSH2 0x2ADB JUMP JUMPDEST SWAP1 POP SWAP2 SWAP1 POP JUMP JUMPDEST PUSH1 0x0 PUSH1 0x20 DUP3 ADD SWAP1 POP DUP2 DUP2 SUB PUSH1 0x0 DUP4 ADD MSTORE PUSH2 0x2EC2 DUP2 PUSH2 0x2AFE JUMP JUMPDEST SWAP1 POP SWAP2 SWAP1 POP JUMP JUMPDEST PUSH1 0x0 PUSH1 0x20 DUP3 ADD SWAP1 POP DUP2 DUP2 SUB PUSH1 0x0 DUP4 ADD MSTORE PUSH2 0x2EE2 DUP2 PUSH2 0x2B21 JUMP JUMPDEST SWAP1 POP SWAP2 SWAP1 POP JUMP JUMPDEST PUSH1 0x0 PUSH1 0x20 DUP3 ADD SWAP1 POP DUP2 DUP2 SUB PUSH1 0x0 DUP4 ADD MSTORE PUSH2 0x2F02 DUP2 PUSH2 0x2B44 JUMP JUMPDEST SWAP1 POP SWAP2 SWAP1 POP JUMP JUMPDEST PUSH1 0x0 PUSH1 0x20 DUP3 ADD SWAP1 POP DUP2 DUP2 SUB PUSH1 0x0 DUP4 ADD MSTORE PUSH2 0x2F22 DUP2 PUSH2 0x2B67 JUMP JUMPDEST SWAP1 POP SWAP2 SWAP1 POP JUMP JUMPDEST PUSH1 0x0 PUSH1 0x20 DUP3 ADD SWAP1 POP DUP2 DUP2 SUB PUSH1 0x0 DUP4 ADD MSTORE PUSH2 0x2F42 DUP2 PUSH2 0x2B8A JUMP JUMPDEST SWAP1 POP SWAP2 SWAP1 POP JUMP JUMPDEST PUSH1 0x0 PUSH1 0x20 DUP3 ADD SWAP1 POP DUP2 DUP2 SUB PUSH1 0x0 DUP4 ADD MSTORE PUSH2 0x2F62 DUP2 PUSH2 0x2BAD JUMP JUMPDEST SWAP1 POP SWAP2 SWAP1 POP JUMP JUMPDEST PUSH1 0x0 PUSH1 0x20 DUP3 ADD SWAP1 POP PUSH2 0x2F7E PUSH1 0x0 DUP4 ADD DUP5 PUSH2 0x2BD0 JUMP JUMPDEST SWAP3 SWAP2 POP POP JUMP JUMPDEST PUSH1 0x0 DUP2 MLOAD SWAP1 POP SWAP2 SWAP1 POP JUMP JUMPDEST PUSH1 0x0 DUP2 MLOAD SWAP1 POP SWAP2 SWAP1 POP JUMP JUMPDEST PUSH1 0x0 DUP2 SWAP1 POP SWAP3 SWAP2 POP POP JUMP JUMPDEST PUSH1 0x0 DUP3 DUP3 MSTORE PUSH1 0x20 DUP3 ADD SWAP1 POP SWAP3 SWAP2 POP POP JUMP JUMPDEST PUSH1 0x0 PUSH2 0x2FC1 DUP3 PUSH2 0x311B JUMP JUMPDEST SWAP2 POP PUSH2 0x2FCC DUP4 PUSH2 0x311B JUMP JUMPDEST SWAP3 POP DUP3 PUSH32 0xFFFFFFFFFFFFFFFFFFFFFFFFFFFFFFFFFFFFFFFFFFFFFFFFFFFFFFFFFFFFFFFF SUB DUP3 GT ISZERO PUSH2 0x3001 JUMPI PUSH2 0x3000 PUSH2 0x318E JUMP JUMPDEST JUMPDEST DUP3 DUP3 ADD SWAP1 POP SWAP3 SWAP2 POP POP JUMP JUMPDEST PUSH1 0x0 PUSH2 0x3017 DUP3 PUSH2 0x311B JUMP JUMPDEST SWAP2 POP PUSH2 0x3022 DUP4 PUSH2 0x311B JUMP JUMPDEST SWAP3 POP DUP3 PUSH2 0x3032 JUMPI PUSH2 0x3031 PUSH2 0x31BD JUMP JUMPDEST JUMPDEST DUP3 DUP3 DIV SWAP1 POP SWAP3 SWAP2 POP POP JUMP JUMPDEST PUSH1 0x0 PUSH2 0x3048 DUP3 PUSH2 0x311B JUMP JUMPDEST SWAP2 POP PUSH2 0x3053 DUP4 PUSH2 0x311B JUMP JUMPDEST SWAP3 POP DUP2 PUSH32 0xFFFFFFFFFFFFFFFFFFFFFFFFFFFFFFFFFFFFFFFFFFFFFFFFFFFFFFFFFFFFFFFF DIV DUP4 GT DUP3 ISZERO ISZERO AND ISZERO PUSH2 0x308C JUMPI PUSH2 0x308B PUSH2 0x318E JUMP JUMPDEST JUMPDEST DUP3 DUP3 MUL SWAP1 POP SWAP3 SWAP2 POP POP JUMP JUMPDEST PUSH1 0x0 PUSH2 0x30A2 DUP3 PUSH2 0x311B JUMP JUMPDEST SWAP2 POP PUSH2 0x30AD DUP4 PUSH2 0x311B JUMP JUMPDEST SWAP3 POP DUP3 DUP3 LT ISZERO PUSH2 0x30C0 JUMPI PUSH2 0x30BF PUSH2 0x318E JUMP JUMPDEST JUMPDEST DUP3 DUP3 SUB SWAP1 POP SWAP3 SWAP2 POP POP JUMP JUMPDEST PUSH1 0x0 PUSH2 0x30D6 DUP3 PUSH2 0x30FB JUMP JUMPDEST SWAP1 POP SWAP2 SWAP1 POP JUMP JUMPDEST PUSH1 0x0 DUP2 ISZERO ISZERO SWAP1 POP SWAP2 SWAP1 POP JUMP JUMPDEST PUSH1 0x0 PUSH2 0x30F4 DUP3 PUSH2 0x30CB JUMP JUMPDEST SWAP1 POP SWAP2 SWAP1 POP JUMP JUMPDEST PUSH1 0x0 PUSH20 0xFFFFFFFFFFFFFFFFFFFFFFFFFFFFFFFFFFFFFFFF DUP3 AND SWAP1 POP SWAP2 SWAP1 POP JUMP JUMPDEST PUSH1 0x0 DUP2 SWAP1 POP SWAP2 SWAP1 POP JUMP JUMPDEST PUSH1 0x0 PUSH2 0x3130 DUP3 PUSH2 0x3137 JUMP JUMPDEST SWAP1 POP SWAP2 SWAP1 POP JUMP JUMPDEST PUSH1 0x0 PUSH2 0x3142 DUP3 PUSH2 0x3149 JUMP JUMPDEST SWAP1 POP SWAP2 SWAP1 POP JUMP JUMPDEST PUSH1 0x0 PUSH2 0x3154 DUP3 PUSH2 0x30FB JUMP JUMPDEST SWAP1 POP SWAP2 SWAP1 POP JUMP JUMPDEST PUSH1 0x0 JUMPDEST DUP4 DUP2 LT ISZERO PUSH2 0x3179 JUMPI DUP1 DUP3 ADD MLOAD DUP2 DUP5 ADD MSTORE PUSH1 0x20 DUP2 ADD SWAP1 POP PUSH2 0x315E JUMP JUMPDEST DUP4 DUP2 GT ISZERO PUSH2 0x3188 JUMPI PUSH1 0x0 DUP5 DUP5 ADD MSTORE JUMPDEST POP POP POP POP JUMP JUMPDEST PUSH32 0x4E487B7100000000000000000000000000000000000000000000000000000000 PUSH1 0x0 MSTORE PUSH1 0x11 PUSH1 0x4 MSTORE PUSH1 0x24 PUSH1 0x0 REVERT JUMPDEST PUSH32 0x4E487B7100000000000000000000000000000000000000000000000000000000 PUSH1 0x0 MSTORE PUSH1 0x12 PUSH1 0x4 MSTORE PUSH1 0x24 PUSH1 0x0 REVERT JUMPDEST PUSH32 0x4E487B7100000000000000000000000000000000000000000000000000000000 PUSH1 0x0 MSTORE PUSH1 0x41 PUSH1 0x4 MSTORE PUSH1 0x24 PUSH1 0x0 REVERT JUMPDEST PUSH1 0x0 DUP1 REVERT JUMPDEST PUSH1 0x0 PUSH1 0x1F NOT PUSH1 0x1F DUP4 ADD AND SWAP1 POP SWAP2 SWAP1 POP JUMP JUMPDEST PUSH32 0x41424F41543A64697361626C6557686974656C6973743A2057686974656C6973 PUSH1 0x0 DUP3 ADD MSTORE PUSH32 0x7420697320616C72656164792064697361626C65640000000000000000000000 PUSH1 0x20 DUP3 ADD MSTORE POP JUMP JUMPDEST PUSH32 0x4F776E61626C653A206E6577206F776E657220697320746865207A65726F2061 PUSH1 0x0 DUP3 ADD MSTORE PUSH32 0x6464726573730000000000000000000000000000000000000000000000000000 PUSH1 0x20 DUP3 ADD MSTORE POP JUMP JUMPDEST PUSH32 0x41424F41543A3A6275793A20416D6F756E7420776F756C642065786365656420 PUSH1 0x0 DUP3 ADD MSTORE PUSH32 0x746865206D6178696D756D20616C6C6F776564206C696D697400000000000000 PUSH1 0x20 DUP3 ADD MSTORE POP JUMP JUMPDEST PUSH32 0x5472616E7366657248656C7065723A3A736166655472616E736665724554483A PUSH1 0x0 DUP3 ADD MSTORE PUSH32 0x20455448207472616E73666572206661696C6564000000000000000000000000 PUSH1 0x20 DUP3 ADD MSTORE POP JUMP JUMPDEST PUSH32 0x41424F41543A3A636C61696D3A20436C61696D206973206E6F7420617661696C PUSH1 0x0 DUP3 ADD MSTORE PUSH32 0x61626C65207965742E0000000000000000000000000000000000000000000000 PUSH1 0x20 DUP3 ADD MSTORE POP JUMP JUMPDEST PUSH32 0x41424F41543A3A636C61696D3A20416C726561647920636C61696D656420796F PUSH1 0x0 DUP3 ADD MSTORE PUSH32 0x75722063757272656E746C7920656C696769626C6520746F6B656E7300000000 PUSH1 0x20 DUP3 ADD MSTORE POP JUMP JUMPDEST PUSH32 0x416464726573733A20696E73756666696369656E742062616C616E636520666F PUSH1 0x0 DUP3 ADD MSTORE PUSH32 0x722063616C6C0000000000000000000000000000000000000000000000000000 PUSH1 0x20 DUP3 ADD MSTORE POP JUMP JUMPDEST PUSH32 0x41424F41543A3A6275793A20596F75277265206E6F742077686974656C697374 PUSH1 0x0 DUP3 ADD MSTORE PUSH32 0x656420666F7220746869732073616C6521000000000000000000000000000000 PUSH1 0x20 DUP3 ADD MSTORE POP JUMP JUMPDEST PUSH32 0x41424F41543A3A757064617465526577617264546F6B656E3A204E6577207265 PUSH1 0x0 DUP3 ADD MSTORE PUSH32 0x776172642073686F756C6420626520646966666572656E742066726F6D206375 PUSH1 0x20 DUP3 ADD MSTORE PUSH32 0x7272656E742E0000000000000000000000000000000000000000000000000000 PUSH1 0x40 DUP3 ADD MSTORE POP JUMP JUMPDEST PUSH32 0x41424F41543A3A636C61696D3A205468652070657263656E74616765206F6620 PUSH1 0x0 DUP3 ADD MSTORE PUSH32 0x746F6B656E20796F752063616E20636C61696D2069732063757272656E746C79 PUSH1 0x20 DUP3 ADD MSTORE PUSH32 0x207A65726F2E20506C656173652074727920616761696E206C61746572000000 PUSH1 0x40 DUP3 ADD MSTORE POP JUMP JUMPDEST PUSH32 0x41424F41543A3A757064617465526577617264546F6B656E3A2054686520636F PUSH1 0x0 DUP3 ADD MSTORE PUSH32 0x6E74726163742073686F756C6420636F6E7461696E2061746C65617374207468 PUSH1 0x20 DUP3 ADD MSTORE PUSH32 0x652073616D6520616D6F756E74206F6620746F6B656E732061732066726F6D20 PUSH1 0x40 DUP3 ADD MSTORE PUSH32 0x7468652063757272656E7420726577617264546F6B656E000000000000000000 PUSH1 0x60 DUP3 ADD MSTORE POP JUMP JUMPDEST PUSH32 0x4F776E61626C653A2063616C6C6572206973206E6F7420746865206F776E6572 PUSH1 0x0 DUP3 ADD MSTORE POP JUMP JUMPDEST PUSH32 0x41424F41543A3A6275793A20416D6F756E7420776F756C642065786365656420 PUSH1 0x0 DUP3 ADD MSTORE PUSH32 0x7468652072656D61696E696E672062616C616E63650000000000000000000000 PUSH1 0x20 DUP3 ADD MSTORE POP JUMP JUMPDEST PUSH32 0x416464726573733A2063616C6C20746F206E6F6E2D636F6E7472616374000000 PUSH1 0x0 DUP3 ADD MSTORE POP JUMP JUMPDEST PUSH32 0x41424F41543A3A636C61696D3A2053616C65206973206E6F74206F7665722079 PUSH1 0x0 DUP3 ADD MSTORE PUSH32 0x6574210000000000000000000000000000000000000000000000000000000000 PUSH1 0x20 DUP3 ADD MSTORE POP JUMP JUMPDEST PUSH32 0x5472616E7366657248656C7065723A3A736166655472616E736665723A207472 PUSH1 0x0 DUP3 ADD MSTORE PUSH32 0x616E73666572206661696C656400000000000000000000000000000000000000 PUSH1 0x20 DUP3 ADD MSTORE POP JUMP JUMPDEST PUSH32 0x41424F41543A3A636C61696D416E64456E6453616C653A2053616C6520616C72 PUSH1 0x0 DUP3 ADD MSTORE PUSH32 0x6561647920656E64656400000000000000000000000000000000000000000000 PUSH1 0x20 DUP3 ADD MSTORE POP JUMP JUMPDEST PUSH32 0x5361666545524332303A204552433230206F7065726174696F6E20646964206E PUSH1 0x0 DUP3 ADD MSTORE PUSH32 0x6F74207375636365656400000000000000000000000000000000000000000000 PUSH1 0x20 DUP3 ADD MSTORE POP JUMP JUMPDEST PUSH32 0x41424F41543A3A7570646174654166746572446179733A2053616C65206E6F74 PUSH1 0x0 DUP3 ADD MSTORE PUSH32 0x20656E6465640000000000000000000000000000000000000000000000000000 PUSH1 0x20 DUP3 ADD MSTORE POP JUMP JUMPDEST PUSH32 0x41424F41543A3A6275793A2053616C6520616C726561647920656E6465642100 PUSH1 0x0 DUP3 ADD MSTORE POP JUMP JUMPDEST PUSH32 0x41424F41543A3A6275793A2053656E742076616C756520646F65736E2774206D PUSH1 0x0 DUP3 ADD MSTORE PUSH32 0x6565742074686520676976656E20616D6F756E74000000000000000000000000 PUSH1 0x20 DUP3 ADD MSTORE POP JUMP JUMPDEST PUSH2 0x38DB DUP2 PUSH2 0x30CB JUMP JUMPDEST DUP2 EQ PUSH2 0x38E6 JUMPI PUSH1 0x0 DUP1 REVERT JUMPDEST POP JUMP JUMPDEST PUSH2 0x38F2 DUP2 PUSH2 0x30DD JUMP JUMPDEST DUP2 EQ PUSH2 0x38FD JUMPI PUSH1 0x0 DUP1 REVERT JUMPDEST POP JUMP JUMPDEST PUSH2 0x3909 DUP2 PUSH2 0x30E9 JUMP JUMPDEST DUP2 EQ PUSH2 0x3914 JUMPI PUSH1 0x0 DUP1 REVERT JUMPDEST POP JUMP JUMPDEST PUSH2 0x3920 DUP2 PUSH2 0x311B JUMP JUMPDEST DUP2 EQ PUSH2 0x392B JUMPI PUSH1 0x0 DUP1 REVERT JUMPDEST POP JUMP INVALID LOG2 PUSH5 0x6970667358 0x22 SLT KECCAK256 0xC8 RETURNDATACOPY KECCAK256 0x4A SUB CALL EQ SLOAD SWAP13 DUP9 DUP7 0xC MLOAD 0xA6 MSTORE8 0xDF 0xA6 PUSH25 0xA596AB368C05F7389EFE0C4495E364736F6C63430008070033 "
				},
				"gasEstimates": {
					"creation": {
						"codeDepositCost": "2938400",
						"executionCost": "infinite",
						"totalCost": "infinite"
					},
					"external": {
						"afterDays()": "2474",
						"bought(address)": "2860",
						"buy(uint256)": "infinite",
						"claim()": "infinite",
						"claimAndEndSale(uint256)": "infinite",
						"claimed(address)": "2859",
						"claimedTokens(address)": "2904",
						"cliffPeriod()": "420",
						"disableWhitelist()": "28871",
						"getCurrentPercentage()": "infinite",
						"getRemainingBalance()": "infinite",
						"initialClaimPercentage()": "397",
						"lastClaimAddress(address)": "infinite",
						"limit()": "2475",
						"owner()": "2589",
						"paymentToken()": "2668",
						"percentagePerPeriod()": "398",
						"period()": "396",
						"pricePerToken()": "2519",
						"renounceOwnership()": "30442",
						"requireWhitelist()": "2516",
						"rewardToken()": "2666",
						"saleEnded()": "2518",
						"softcap()": "2517",
						"soldTokens()": "2541",
						"transferOwnership(address)": "30834",
						"updateAfterDays(uint256)": "26933",
						"updateRewardToken(address)": "infinite",
						"whitelisted(address)": "2934"
					}
				},
				"methodIdentifiers": {
					"afterDays()": "e754e7c4",
					"bought(address)": "667022fd",
					"buy(uint256)": "d96a094a",
					"claim()": "4e71d92d",
					"claimAndEndSale(uint256)": "efe95f51",
					"claimed(address)": "c884ef83",
					"claimedTokens(address)": "a960c65f",
					"cliffPeriod()": "2f661946",
					"disableWhitelist()": "d6b0f484",
					"getCurrentPercentage()": "9c92431b",
					"getRemainingBalance()": "2fba2c85",
					"initialClaimPercentage()": "a5ebf835",
					"lastClaimAddress(address)": "f3739e05",
					"limit()": "a4d66daf",
					"owner()": "8da5cb5b",
					"paymentToken()": "3013ce29",
					"percentagePerPeriod()": "151bad0a",
					"period()": "ef78d4fd",
					"pricePerToken()": "7b1b1de6",
					"renounceOwnership()": "715018a6",
					"requireWhitelist()": "856734c4",
					"rewardToken()": "f7c618c1",
					"saleEnded()": "9b8906ae",
					"softcap()": "f89be593",
					"soldTokens()": "5ed9ebfc",
					"transferOwnership(address)": "f2fde38b",
					"updateAfterDays(uint256)": "0c0e0862",
					"updateRewardToken(address)": "f8cf31cb",
					"whitelisted(address)": "d936547e"
				}
			},
			"storageLayout": {
				"storage": [
					{
						"astId": 7,
						"contract": "contracts/PreSale.sol:PreSale",
						"label": "_owner",
						"offset": 0,
						"slot": "0",
						"type": "t_address"
					},
					{
						"astId": 1058,
						"contract": "contracts/PreSale.sol:PreSale",
						"label": "rewardToken",
						"offset": 0,
						"slot": "1",
						"type": "t_contract(IERC20)181"
					},
					{
						"astId": 1061,
						"contract": "contracts/PreSale.sol:PreSale",
						"label": "paymentToken",
						"offset": 0,
						"slot": "2",
						"type": "t_contract(IERC20)181"
					},
					{
						"astId": 1063,
						"contract": "contracts/PreSale.sol:PreSale",
						"label": "pricePerToken",
						"offset": 0,
						"slot": "3",
						"type": "t_uint256"
					},
					{
						"astId": 1065,
						"contract": "contracts/PreSale.sol:PreSale",
						"label": "limit",
						"offset": 0,
						"slot": "4",
						"type": "t_uint256"
					},
					{
						"astId": 1067,
						"contract": "contracts/PreSale.sol:PreSale",
						"label": "softcap",
						"offset": 0,
						"slot": "5",
						"type": "t_uint256"
					},
					{
						"astId": 1069,
						"contract": "contracts/PreSale.sol:PreSale",
						"label": "soldTokens",
						"offset": 0,
						"slot": "6",
						"type": "t_uint256"
					},
					{
						"astId": 1072,
						"contract": "contracts/PreSale.sol:PreSale",
						"label": "saleEnded",
						"offset": 0,
						"slot": "7",
						"type": "t_uint256"
					},
					{
						"astId": 1074,
						"contract": "contracts/PreSale.sol:PreSale",
						"label": "afterDays",
						"offset": 0,
						"slot": "8",
						"type": "t_uint256"
					},
					{
						"astId": 1089,
						"contract": "contracts/PreSale.sol:PreSale",
						"label": "requireWhitelist",
						"offset": 0,
						"slot": "9",
						"type": "t_bool"
					},
					{
						"astId": 1093,
						"contract": "contracts/PreSale.sol:PreSale",
						"label": "whitelisted",
						"offset": 0,
						"slot": "10",
						"type": "t_mapping(t_address,t_bool)"
					},
					{
						"astId": 1097,
						"contract": "contracts/PreSale.sol:PreSale",
						"label": "bought",
						"offset": 0,
						"slot": "11",
						"type": "t_mapping(t_address,t_uint256)"
					},
					{
						"astId": 1101,
						"contract": "contracts/PreSale.sol:PreSale",
						"label": "claimed",
						"offset": 0,
						"slot": "12",
						"type": "t_mapping(t_address,t_uint256)"
					},
					{
						"astId": 1105,
						"contract": "contracts/PreSale.sol:PreSale",
						"label": "claimedTokens",
						"offset": 0,
						"slot": "13",
						"type": "t_mapping(t_address,t_uint256)"
					},
					{
						"astId": 1109,
						"contract": "contracts/PreSale.sol:PreSale",
						"label": "lastClaimAddress",
						"offset": 0,
						"slot": "14",
						"type": "t_mapping(t_address,t_address)"
					}
				],
				"types": {
					"t_address": {
						"encoding": "inplace",
						"label": "address",
						"numberOfBytes": "20"
					},
					"t_bool": {
						"encoding": "inplace",
						"label": "bool",
						"numberOfBytes": "1"
					},
					"t_contract(IERC20)181": {
						"encoding": "inplace",
						"label": "contract IERC20",
						"numberOfBytes": "20"
					},
					"t_mapping(t_address,t_address)": {
						"encoding": "mapping",
						"key": "t_address",
						"label": "mapping(address => address)",
						"numberOfBytes": "32",
						"value": "t_address"
					},
					"t_mapping(t_address,t_bool)": {
						"encoding": "mapping",
						"key": "t_address",
						"label": "mapping(address => bool)",
						"numberOfBytes": "32",
						"value": "t_bool"
					},
					"t_mapping(t_address,t_uint256)": {
						"encoding": "mapping",
						"key": "t_address",
						"label": "mapping(address => uint256)",
						"numberOfBytes": "32",
						"value": "t_uint256"
					},
					"t_uint256": {
						"encoding": "inplace",
						"label": "uint256",
						"numberOfBytes": "32"
					}
				}
			},
			"userdoc": {
				"kind": "user",
				"methods": {},
				"version": 1
			}
		}
	}
}