{
	"contracts/Airdrop.sol": {
		"Airdrop": {
			"abi": [
				{
					"inputs": [],
					"stateMutability": "nonpayable",
					"type": "constructor"
				},
				{
					"anonymous": false,
					"inputs": [
						{
							"indexed": true,
							"internalType": "address",
							"name": "buyer",
							"type": "address"
						},
						{
							"indexed": true,
							"internalType": "uint256",
							"name": "amount",
							"type": "uint256"
						}
					],
					"name": "Airdropped",
					"type": "event"
				},
				{
					"anonymous": false,
					"inputs": [
						{
							"indexed": true,
							"internalType": "address",
							"name": "previousOwner",
							"type": "address"
						},
						{
							"indexed": true,
							"internalType": "address",
							"name": "newOwner",
							"type": "address"
						}
					],
					"name": "OwnershipTransferred",
					"type": "event"
				},
				{
					"inputs": [
						{
							"internalType": "address",
							"name": "token",
							"type": "address"
						},
						{
							"components": [
								{
									"internalType": "address",
									"name": "wallet",
									"type": "address"
								},
								{
									"internalType": "uint256",
									"name": "amount",
									"type": "uint256"
								}
							],
							"internalType": "struct Airdrop.User[]",
							"name": "users",
							"type": "tuple[]"
						}
					],
					"name": "airdrop",
					"outputs": [],
					"stateMutability": "payable",
					"type": "function"
				},
				{
					"inputs": [],
					"name": "owner",
					"outputs": [
						{
							"internalType": "address",
							"name": "",
							"type": "address"
						}
					],
					"stateMutability": "view",
					"type": "function"
				},
				{
					"inputs": [],
					"name": "renounceOwnership",
					"outputs": [],
					"stateMutability": "nonpayable",
					"type": "function"
				},
				{
					"inputs": [
						{
							"internalType": "address",
							"name": "newOwner",
							"type": "address"
						}
					],
					"name": "transferOwnership",
					"outputs": [],
					"stateMutability": "nonpayable",
					"type": "function"
				}
			],
			"devdoc": {
				"kind": "dev",
				"methods": {
					"owner()": {
						"details": "Returns the address of the current owner."
					},
					"renounceOwnership()": {
						"details": "Leaves the contract without owner. It will not be possible to call `onlyOwner` functions anymore. Can only be called by the current owner. NOTE: Renouncing ownership will leave the contract without an owner, thereby removing any functionality that is only available to the owner."
					},
					"transferOwnership(address)": {
						"details": "Transfers ownership of the contract to a new account (`newOwner`). Can only be called by the current owner."
					}
				},
				"version": 1
			},
			"evm": {
				"assembly": "    /* \"contracts/Airdrop.sol\":398:2130  contract Airdrop is Ownable {\r... */\n  mstore(0x40, 0x80)\n    /* \"contracts/Airdrop.sol\":1336:1358  constructor() {\r... */\n  callvalue\n  dup1\n  iszero\n  tag_1\n  jumpi\n  0x00\n  dup1\n  revert\ntag_1:\n  pop\n    /* \"@openzeppelin/contracts/access/Ownable.sol\":867:890  _setOwner(_msgSender()) */\n  tag_5\n    /* \"@openzeppelin/contracts/utils/Context.sol\":665:675  msg.sender */\n  caller\n    /* \"@openzeppelin/contracts/access/Ownable.sol\":867:876  _setOwner */\n  tag_8\n    /* \"@openzeppelin/contracts/access/Ownable.sol\":867:890  _setOwner(_msgSender()) */\n  jump\t// in\ntag_5:\n    /* \"contracts/Airdrop.sol\":398:2130  contract Airdrop is Ownable {\r... */\n  jump(tag_10)\n    /* \"@openzeppelin/contracts/access/Ownable.sol\":2041:2210  function _setOwner(address newOwner) private {... */\ntag_8:\n    /* \"@openzeppelin/contracts/access/Ownable.sol\":2096:2112  address oldOwner */\n  0x00\n    /* \"@openzeppelin/contracts/access/Ownable.sol\":2115:2121  _owner */\n  dup1\n  sload\n  sub(shl(0xa0, 0x01), 0x01)\n    /* \"@openzeppelin/contracts/access/Ownable.sol\":2131:2148  _owner = newOwner */\n  dup4\n  dup2\n  and\n  not(sub(shl(0xa0, 0x01), 0x01))\n  dup4\n  and\n  dup2\n  or\n  dup5\n  sstore\n    /* \"@openzeppelin/contracts/access/Ownable.sol\":2163:2203  OwnershipTransferred(oldOwner, newOwner) */\n  mload(0x40)\n    /* \"@openzeppelin/contracts/access/Ownable.sol\":2115:2121  _owner */\n  swap2\n  swap1\n  swap3\n  and\n  swap3\n  dup4\n  swap2\n    /* \"@openzeppelin/contracts/access/Ownable.sol\":2163:2203  OwnershipTransferred(oldOwner, newOwner) */\n  0x8be0079c531659141344cd1fd0a4f28419497f9722a3daafe3b4186f6b6457e0\n  swap2\n    /* \"@openzeppelin/contracts/access/Ownable.sol\":2096:2112  address oldOwner */\n  swap1\n    /* \"@openzeppelin/contracts/access/Ownable.sol\":2163:2203  OwnershipTransferred(oldOwner, newOwner) */\n  log3\n    /* \"@openzeppelin/contracts/access/Ownable.sol\":2086:2210  {... */\n  pop\n    /* \"@openzeppelin/contracts/access/Ownable.sol\":2041:2210  function _setOwner(address newOwner) private {... */\n  pop\n  jump\t// out\n    /* \"contracts/Airdrop.sol\":398:2130  contract Airdrop is Ownable {\r... */\ntag_10:\n  dataSize(sub_0)\n  dup1\n  dataOffset(sub_0)\n  0x00\n  codecopy\n  0x00\n  return\nstop\n\nsub_0: assembly {\n        /* \"contracts/Airdrop.sol\":398:2130  contract Airdrop is Ownable {\r... */\n      mstore(0x40, 0x80)\n      jumpi(tag_1, lt(calldatasize, 0x04))\n      shr(0xe0, calldataload(0x00))\n      dup1\n      0x715018a6\n      eq\n      tag_2\n      jumpi\n      dup1\n      0x7e4d8030\n      eq\n      tag_3\n      jumpi\n      dup1\n      0x8da5cb5b\n      eq\n      tag_4\n      jumpi\n      dup1\n      0xf2fde38b\n      eq\n      tag_5\n      jumpi\n    tag_1:\n      0x00\n      dup1\n      revert\n        /* \"@openzeppelin/contracts/access/Ownable.sol\":1605:1697  function renounceOwnership() public virtual onlyOwner {... */\n    tag_2:\n      callvalue\n      dup1\n      iszero\n      tag_6\n      jumpi\n      0x00\n      dup1\n      revert\n    tag_6:\n      pop\n      tag_7\n      tag_8\n      jump\t// in\n    tag_7:\n      stop\n        /* \"contracts/Airdrop.sol\":1695:2127  function airdrop(address token,  User[] memory users) public payable {\r... */\n    tag_3:\n      tag_7\n      tag_10\n      calldatasize\n      0x04\n      tag_11\n      jump\t// in\n    tag_10:\n      tag_12\n      jump\t// in\n        /* \"@openzeppelin/contracts/access/Ownable.sol\":973:1058  function owner() public view virtual returns (address) {... */\n    tag_4:\n      callvalue\n      dup1\n      iszero\n      tag_13\n      jumpi\n      0x00\n      dup1\n      revert\n    tag_13:\n      pop\n        /* \"@openzeppelin/contracts/access/Ownable.sol\":1019:1026  address */\n      0x00\n        /* \"@openzeppelin/contracts/access/Ownable.sol\":1045:1051  _owner */\n      sload\n        /* \"@openzeppelin/contracts/access/Ownable.sol\":973:1058  function owner() public view virtual returns (address) {... */\n      0x40\n      dup1\n      mload\n      sub(shl(0xa0, 0x01), 0x01)\n        /* \"@openzeppelin/contracts/access/Ownable.sol\":1045:1051  _owner */\n      swap1\n      swap3\n      and\n        /* \"#utility.yul\":2544:2595   */\n      dup3\n      mstore\n        /* \"@openzeppelin/contracts/access/Ownable.sol\":973:1058  function owner() public view virtual returns (address) {... */\n      mload\n      swap1\n      dup2\n      swap1\n      sub\n        /* \"#utility.yul\":2532:2534   */\n      0x20\n        /* \"@openzeppelin/contracts/access/Ownable.sol\":973:1058  function owner() public view virtual returns (address) {... */\n      add\n      swap1\n      return\n        /* \"@openzeppelin/contracts/access/Ownable.sol\":1846:2035  function transferOwnership(address newOwner) public virtual onlyOwner {... */\n    tag_5:\n      callvalue\n      dup1\n      iszero\n      tag_18\n      jumpi\n      0x00\n      dup1\n      revert\n    tag_18:\n      pop\n      tag_7\n      tag_20\n      calldatasize\n      0x04\n      tag_21\n      jump\t// in\n    tag_20:\n      tag_22\n      jump\t// in\n        /* \"@openzeppelin/contracts/access/Ownable.sol\":1605:1697  function renounceOwnership() public virtual onlyOwner {... */\n    tag_8:\n        /* \"@openzeppelin/contracts/access/Ownable.sol\":1019:1026  address */\n      0x00\n        /* \"@openzeppelin/contracts/access/Ownable.sol\":1045:1051  _owner */\n      sload\n      sub(shl(0xa0, 0x01), 0x01)\n      and\n        /* \"@openzeppelin/contracts/utils/Context.sol\":665:675  msg.sender */\n      caller\n        /* \"@openzeppelin/contracts/access/Ownable.sol\":1185:1208  owner() == _msgSender() */\n      eq\n        /* \"@openzeppelin/contracts/access/Ownable.sol\":1177:1245  require(owner() == _msgSender(), \"Ownable: caller is not the owner\") */\n      tag_27\n      jumpi\n      mload(0x40)\n      shl(0xe5, 0x461bcd)\n      dup2\n      mstore\n        /* \"#utility.yul\":4427:4429   */\n      0x20\n        /* \"@openzeppelin/contracts/access/Ownable.sol\":1177:1245  require(owner() == _msgSender(), \"Ownable: caller is not the owner\") */\n      0x04\n      dup3\n      add\n        /* \"#utility.yul\":4409:4430   */\n      dup2\n      swap1\n      mstore\n        /* \"#utility.yul\":4446:4464   */\n      0x24\n      dup3\n      add\n        /* \"#utility.yul\":4439:4469   */\n      mstore\n        /* \"#utility.yul\":4505:4539   */\n      0x4f776e61626c653a2063616c6c6572206973206e6f7420746865206f776e6572\n        /* \"#utility.yul\":4485:4503   */\n      0x44\n      dup3\n      add\n        /* \"#utility.yul\":4478:4540   */\n      mstore\n        /* \"#utility.yul\":4557:4575   */\n      0x64\n      add\n        /* \"@openzeppelin/contracts/access/Ownable.sol\":1177:1245  require(owner() == _msgSender(), \"Ownable: caller is not the owner\") */\n    tag_28:\n      mload(0x40)\n      dup1\n      swap2\n      sub\n      swap1\n      revert\n    tag_27:\n        /* \"@openzeppelin/contracts/access/Ownable.sol\":1669:1690  _setOwner(address(0)) */\n      tag_31\n        /* \"@openzeppelin/contracts/access/Ownable.sol\":1687:1688  0 */\n      0x00\n        /* \"@openzeppelin/contracts/access/Ownable.sol\":1669:1678  _setOwner */\n      tag_32\n        /* \"@openzeppelin/contracts/access/Ownable.sol\":1669:1690  _setOwner(address(0)) */\n      jump\t// in\n    tag_31:\n        /* \"@openzeppelin/contracts/access/Ownable.sol\":1605:1697  function renounceOwnership() public virtual onlyOwner {... */\n      jump\t// out\n        /* \"contracts/Airdrop.sol\":1695:2127  function airdrop(address token,  User[] memory users) public payable {\r... */\n    tag_12:\n        /* \"contracts/Airdrop.sol\":1794:1806  users.length */\n      dup1\n      mload\n        /* \"contracts/Airdrop.sol\":1907:1913  uint i */\n      0x00\n        /* \"contracts/Airdrop.sol\":1902:2118  for (uint i = 0; i < arrayLength; i++) {\r... */\n    tag_37:\n        /* \"contracts/Airdrop.sol\":1923:1934  arrayLength */\n      dup2\n        /* \"contracts/Airdrop.sol\":1919:1920  i */\n      dup2\n        /* \"contracts/Airdrop.sol\":1919:1934  i < arrayLength */\n      lt\n        /* \"contracts/Airdrop.sol\":1902:2118  for (uint i = 0; i < arrayLength; i++) {\r... */\n      iszero\n      tag_38\n      jumpi\n        /* \"contracts/Airdrop.sol\":1956:2040  TransferHelper.safeTransferFrom(token, msg.sender, users[i].wallet, users[i].amount) */\n      tag_40\n        /* \"contracts/Airdrop.sol\":1988:1993  token */\n      dup5\n        /* \"contracts/Airdrop.sol\":1995:2005  msg.sender */\n      caller\n        /* \"contracts/Airdrop.sol\":2007:2012  users */\n      dup6\n        /* \"contracts/Airdrop.sol\":2013:2014  i */\n      dup5\n        /* \"contracts/Airdrop.sol\":2007:2015  users[i] */\n      dup2\n      mload\n      dup2\n      lt\n      tag_42\n      jumpi\n      tag_42\n      tag_43\n      jump\t// in\n    tag_42:\n      0x20\n      mul\n      0x20\n      add\n      add\n      mload\n        /* \"contracts/Airdrop.sol\":2007:2022  users[i].wallet */\n      0x00\n      add\n      mload\n        /* \"contracts/Airdrop.sol\":2024:2029  users */\n      dup7\n        /* \"contracts/Airdrop.sol\":2030:2031  i */\n      dup6\n        /* \"contracts/Airdrop.sol\":2024:2032  users[i] */\n      dup2\n      mload\n      dup2\n      lt\n      tag_45\n      jumpi\n      tag_45\n      tag_43\n      jump\t// in\n    tag_45:\n      0x20\n      mul\n      0x20\n      add\n      add\n      mload\n        /* \"contracts/Airdrop.sol\":2024:2039  users[i].amount */\n      0x20\n      add\n      mload\n        /* \"contracts/Airdrop.sol\":1956:1987  TransferHelper.safeTransferFrom */\n      tag_46\n        /* \"contracts/Airdrop.sol\":1956:2040  TransferHelper.safeTransferFrom(token, msg.sender, users[i].wallet, users[i].amount) */\n      jump\t// in\n    tag_40:\n        /* \"contracts/Airdrop.sol\":2090:2095  users */\n      dup3\n        /* \"contracts/Airdrop.sol\":2096:2097  i */\n      dup2\n        /* \"contracts/Airdrop.sol\":2090:2098  users[i] */\n      dup2\n      mload\n      dup2\n      lt\n      tag_48\n      jumpi\n      tag_48\n      tag_43\n      jump\t// in\n    tag_48:\n      0x20\n      mul\n      0x20\n      add\n      add\n      mload\n        /* \"contracts/Airdrop.sol\":2090:2105  users[i].amount */\n      0x20\n      add\n      mload\n        /* \"contracts/Airdrop.sol\":2073:2078  users */\n      dup4\n        /* \"contracts/Airdrop.sol\":2079:2080  i */\n      dup3\n        /* \"contracts/Airdrop.sol\":2073:2081  users[i] */\n      dup2\n      mload\n      dup2\n      lt\n      tag_50\n      jumpi\n      tag_50\n      tag_43\n      jump\t// in\n    tag_50:\n      0x20\n      mul\n      0x20\n      add\n      add\n      mload\n        /* \"contracts/Airdrop.sol\":2073:2088  users[i].wallet */\n      0x00\n      add\n      mload\n      sub(shl(0xa0, 0x01), 0x01)\n        /* \"contracts/Airdrop.sol\":2062:2106  Airdropped(users[i].wallet, users[i].amount) */\n      and\n      0x7bd6d4be1decdc27a9ed9c7ccdf5bb7cc38e31b3647b958c6b37162a2296c0fa\n      mload(0x40)\n      mload(0x40)\n      dup1\n      swap2\n      sub\n      swap1\n      log3\n        /* \"contracts/Airdrop.sol\":1936:1939  i++ */\n      dup1\n      tag_51\n      dup2\n      tag_52\n      jump\t// in\n    tag_51:\n      swap2\n      pop\n      pop\n        /* \"contracts/Airdrop.sol\":1902:2118  for (uint i = 0; i < arrayLength; i++) {\r... */\n      jump(tag_37)\n    tag_38:\n      pop\n        /* \"contracts/Airdrop.sol\":1764:2127  {\r... */\n      pop\n        /* \"contracts/Airdrop.sol\":1695:2127  function airdrop(address token,  User[] memory users) public payable {\r... */\n      pop\n      pop\n      jump\t// out\n        /* \"@openzeppelin/contracts/access/Ownable.sol\":1846:2035  function transferOwnership(address newOwner) public virtual onlyOwner {... */\n    tag_22:\n        /* \"@openzeppelin/contracts/access/Ownable.sol\":1019:1026  address */\n      0x00\n        /* \"@openzeppelin/contracts/access/Ownable.sol\":1045:1051  _owner */\n      sload\n      sub(shl(0xa0, 0x01), 0x01)\n      and\n        /* \"@openzeppelin/contracts/utils/Context.sol\":665:675  msg.sender */\n      caller\n        /* \"@openzeppelin/contracts/access/Ownable.sol\":1185:1208  owner() == _msgSender() */\n      eq\n        /* \"@openzeppelin/contracts/access/Ownable.sol\":1177:1245  require(owner() == _msgSender(), \"Ownable: caller is not the owner\") */\n      tag_57\n      jumpi\n      mload(0x40)\n      shl(0xe5, 0x461bcd)\n      dup2\n      mstore\n        /* \"#utility.yul\":4427:4429   */\n      0x20\n        /* \"@openzeppelin/contracts/access/Ownable.sol\":1177:1245  require(owner() == _msgSender(), \"Ownable: caller is not the owner\") */\n      0x04\n      dup3\n      add\n        /* \"#utility.yul\":4409:4430   */\n      dup2\n      swap1\n      mstore\n        /* \"#utility.yul\":4446:4464   */\n      0x24\n      dup3\n      add\n        /* \"#utility.yul\":4439:4469   */\n      mstore\n        /* \"#utility.yul\":4505:4539   */\n      0x4f776e61626c653a2063616c6c6572206973206e6f7420746865206f776e6572\n        /* \"#utility.yul\":4485:4503   */\n      0x44\n      dup3\n      add\n        /* \"#utility.yul\":4478:4540   */\n      mstore\n        /* \"#utility.yul\":4557:4575   */\n      0x64\n      add\n        /* \"@openzeppelin/contracts/access/Ownable.sol\":1177:1245  require(owner() == _msgSender(), \"Ownable: caller is not the owner\") */\n      tag_28\n        /* \"#utility.yul\":4225:4581   */\n      jump\n        /* \"@openzeppelin/contracts/access/Ownable.sol\":1177:1245  require(owner() == _msgSender(), \"Ownable: caller is not the owner\") */\n    tag_57:\n      sub(shl(0xa0, 0x01), 0x01)\n        /* \"@openzeppelin/contracts/access/Ownable.sol\":1934:1956  newOwner != address(0) */\n      dup2\n      and\n        /* \"@openzeppelin/contracts/access/Ownable.sol\":1926:1999  require(newOwner != address(0), \"Ownable: new owner is the zero address\") */\n      tag_60\n      jumpi\n      mload(0x40)\n      shl(0xe5, 0x461bcd)\n      dup2\n      mstore\n        /* \"#utility.yul\":3602:3604   */\n      0x20\n        /* \"@openzeppelin/contracts/access/Ownable.sol\":1926:1999  require(newOwner != address(0), \"Ownable: new owner is the zero address\") */\n      0x04\n      dup3\n      add\n        /* \"#utility.yul\":3584:3605   */\n      mstore\n        /* \"#utility.yul\":3641:3643   */\n      0x26\n        /* \"#utility.yul\":3621:3639   */\n      0x24\n      dup3\n      add\n        /* \"#utility.yul\":3614:3644   */\n      mstore\n        /* \"#utility.yul\":3680:3714   */\n      0x4f776e61626c653a206e6577206f776e657220697320746865207a65726f2061\n        /* \"#utility.yul\":3660:3678   */\n      0x44\n      dup3\n      add\n        /* \"#utility.yul\":3653:3715   */\n      mstore\n      shl(0xd0, 0x646472657373)\n        /* \"#utility.yul\":3731:3749   */\n      0x64\n      dup3\n      add\n        /* \"#utility.yul\":3724:3760   */\n      mstore\n        /* \"#utility.yul\":3777:3796   */\n      0x84\n      add\n        /* \"@openzeppelin/contracts/access/Ownable.sol\":1926:1999  require(newOwner != address(0), \"Ownable: new owner is the zero address\") */\n      tag_28\n        /* \"#utility.yul\":3400:3802   */\n      jump\n        /* \"@openzeppelin/contracts/access/Ownable.sol\":1926:1999  require(newOwner != address(0), \"Ownable: new owner is the zero address\") */\n    tag_60:\n        /* \"@openzeppelin/contracts/access/Ownable.sol\":2009:2028  _setOwner(newOwner) */\n      tag_63\n        /* \"@openzeppelin/contracts/access/Ownable.sol\":2019:2027  newOwner */\n      dup2\n        /* \"@openzeppelin/contracts/access/Ownable.sol\":2009:2018  _setOwner */\n      tag_32\n        /* \"@openzeppelin/contracts/access/Ownable.sol\":2009:2028  _setOwner(newOwner) */\n      jump\t// in\n    tag_63:\n        /* \"@openzeppelin/contracts/access/Ownable.sol\":1846:2035  function transferOwnership(address newOwner) public virtual onlyOwner {... */\n      pop\n      jump\t// out\n        /* \"@openzeppelin/contracts/access/Ownable.sol\":2041:2210  function _setOwner(address newOwner) private {... */\n    tag_32:\n        /* \"@openzeppelin/contracts/access/Ownable.sol\":2096:2112  address oldOwner */\n      0x00\n        /* \"@openzeppelin/contracts/access/Ownable.sol\":2115:2121  _owner */\n      dup1\n      sload\n      sub(shl(0xa0, 0x01), 0x01)\n        /* \"@openzeppelin/contracts/access/Ownable.sol\":2131:2148  _owner = newOwner */\n      dup4\n      dup2\n      and\n      not(sub(shl(0xa0, 0x01), 0x01))\n      dup4\n      and\n      dup2\n      or\n      dup5\n      sstore\n        /* \"@openzeppelin/contracts/access/Ownable.sol\":2163:2203  OwnershipTransferred(oldOwner, newOwner) */\n      mload(0x40)\n        /* \"@openzeppelin/contracts/access/Ownable.sol\":2115:2121  _owner */\n      swap2\n      swap1\n      swap3\n      and\n      swap3\n      dup4\n      swap2\n        /* \"@openzeppelin/contracts/access/Ownable.sol\":2163:2203  OwnershipTransferred(oldOwner, newOwner) */\n      0x8be0079c531659141344cd1fd0a4f28419497f9722a3daafe3b4186f6b6457e0\n      swap2\n        /* \"@openzeppelin/contracts/access/Ownable.sol\":2096:2112  address oldOwner */\n      swap1\n        /* \"@openzeppelin/contracts/access/Ownable.sol\":2163:2203  OwnershipTransferred(oldOwner, newOwner) */\n      log3\n        /* \"@openzeppelin/contracts/access/Ownable.sol\":2086:2210  {... */\n      pop\n        /* \"@openzeppelin/contracts/access/Ownable.sol\":2041:2210  function _setOwner(address newOwner) private {... */\n      pop\n      jump\t// out\n        /* \"contracts/libraries/TransferHelper.sol\":600:1020  function safeTransferFrom(... */\n    tag_46:\n        /* \"contracts/libraries/TransferHelper.sol\":798:849  abi.encodeWithSelector(0x23b872dd, from, to, value) */\n      0x40\n      dup1\n      mload\n      sub(shl(0xa0, 0x01), 0x01)\n        /* \"#utility.yul\":2864:2879   */\n      dup6\n      dup2\n      and\n        /* \"contracts/libraries/TransferHelper.sol\":798:849  abi.encodeWithSelector(0x23b872dd, from, to, value) */\n      0x24\n      dup4\n      add\n        /* \"#utility.yul\":2846:2880   */\n      mstore\n        /* \"#utility.yul\":2916:2931   */\n      dup5\n      dup2\n      and\n        /* \"#utility.yul\":2896:2914   */\n      0x44\n      dup4\n      add\n        /* \"#utility.yul\":2889:2932   */\n      mstore\n        /* \"#utility.yul\":2948:2966   */\n      0x64\n      dup1\n      dup4\n      add\n        /* \"#utility.yul\":2941:2975   */\n      dup6\n      swap1\n      mstore\n        /* \"contracts/libraries/TransferHelper.sol\":798:849  abi.encodeWithSelector(0x23b872dd, from, to, value) */\n      dup4\n      mload\n      dup1\n      dup5\n      sub\n      swap1\n      swap2\n      add\n      dup2\n      mstore\n        /* \"#utility.yul\":2781:2799   */\n      0x84\n      swap1\n      swap3\n      add\n        /* \"contracts/libraries/TransferHelper.sol\":798:849  abi.encodeWithSelector(0x23b872dd, from, to, value) */\n      dup4\n      mstore\n      0x20\n      dup3\n      add\n      dup1\n      mload\n      sub(shl(0xe0, 0x01), 0x01)\n      and\n      shl(0xe0, 0x23b872dd)\n      or\n      swap1\n      mstore\n        /* \"contracts/libraries/TransferHelper.sol\":787:850  token.call(abi.encodeWithSelector(0x23b872dd, from, to, value)) */\n      swap2\n      mload\n      0x00\n      swap3\n      dup4\n      swap3\n        /* \"contracts/libraries/TransferHelper.sol\":787:797  token.call */\n      swap1\n      dup9\n      and\n      swap2\n        /* \"contracts/libraries/TransferHelper.sol\":787:850  token.call(abi.encodeWithSelector(0x23b872dd, from, to, value)) */\n      tag_69\n      swap2\n        /* \"contracts/libraries/TransferHelper.sol\":798:849  abi.encodeWithSelector(0x23b872dd, from, to, value) */\n      swap1\n        /* \"contracts/libraries/TransferHelper.sol\":787:850  token.call(abi.encodeWithSelector(0x23b872dd, from, to, value)) */\n      tag_70\n      jump\t// in\n    tag_69:\n      0x00\n      mload(0x40)\n      dup1\n      dup4\n      sub\n      dup2\n      0x00\n      dup7\n      gas\n      call\n      swap2\n      pop\n      pop\n      returndatasize\n      dup1\n      0x00\n      dup2\n      eq\n      tag_73\n      jumpi\n      mload(0x40)\n      swap2\n      pop\n      and(add(returndatasize, 0x3f), not(0x1f))\n      dup3\n      add\n      0x40\n      mstore\n      returndatasize\n      dup3\n      mstore\n      returndatasize\n      0x00\n      0x20\n      dup5\n      add\n      returndatacopy\n      jump(tag_72)\n    tag_73:\n      0x60\n      swap2\n      pop\n    tag_72:\n      pop\n        /* \"contracts/libraries/TransferHelper.sol\":739:850  (bool success, bytes memory data) =... */\n      swap2\n      pop\n      swap2\n      pop\n        /* \"contracts/libraries/TransferHelper.sol\":881:888  success */\n      dup2\n        /* \"contracts/libraries/TransferHelper.sol\":881:938  success && (data.length == 0 || abi.decode(data, (bool))) */\n      dup1\n      iszero\n      tag_76\n      jumpi\n      pop\n        /* \"contracts/libraries/TransferHelper.sol\":893:904  data.length */\n      dup1\n      mload\n        /* \"contracts/libraries/TransferHelper.sol\":893:909  data.length == 0 */\n      iszero\n      dup1\n        /* \"contracts/libraries/TransferHelper.sol\":893:937  data.length == 0 || abi.decode(data, (bool)) */\n      tag_76\n      jumpi\n      pop\n        /* \"contracts/libraries/TransferHelper.sol\":924:928  data */\n      dup1\n        /* \"contracts/libraries/TransferHelper.sol\":913:937  abi.decode(data, (bool)) */\n      dup1\n      0x20\n      add\n      swap1\n      mload\n      dup2\n      add\n      swap1\n      tag_76\n      swap2\n      swap1\n      tag_77\n      jump\t// in\n    tag_76:\n        /* \"contracts/libraries/TransferHelper.sol\":860:1013  require(... */\n      tag_78\n      jumpi\n      mload(0x40)\n      shl(0xe5, 0x461bcd)\n      dup2\n      mstore\n        /* \"#utility.yul\":4009:4011   */\n      0x20\n        /* \"contracts/libraries/TransferHelper.sol\":860:1013  require(... */\n      0x04\n      dup3\n      add\n        /* \"#utility.yul\":3991:4012   */\n      mstore\n        /* \"#utility.yul\":4048:4050   */\n      0x31\n        /* \"#utility.yul\":4028:4046   */\n      0x24\n      dup3\n      add\n        /* \"#utility.yul\":4021:4051   */\n      mstore\n        /* \"#utility.yul\":4087:4121   */\n      0x5472616e7366657248656c7065723a3a7472616e7366657246726f6d3a207472\n        /* \"#utility.yul\":4067:4085   */\n      0x44\n      dup3\n      add\n        /* \"#utility.yul\":4060:4122   */\n      mstore\n      shl(0x7a, 0x185b9cd9995c919c9bdb4819985a5b1959)\n        /* \"#utility.yul\":4138:4156   */\n      0x64\n      dup3\n      add\n        /* \"#utility.yul\":4131:4178   */\n      mstore\n        /* \"#utility.yul\":4195:4214   */\n      0x84\n      add\n        /* \"contracts/libraries/TransferHelper.sol\":860:1013  require(... */\n      tag_28\n        /* \"#utility.yul\":3807:4220   */\n      jump\n        /* \"contracts/libraries/TransferHelper.sol\":860:1013  require(... */\n    tag_78:\n        /* \"contracts/libraries/TransferHelper.sol\":729:1020  {... */\n      pop\n      pop\n        /* \"contracts/libraries/TransferHelper.sol\":600:1020  function safeTransferFrom(... */\n      pop\n      pop\n      pop\n      pop\n      jump\t// out\n        /* \"#utility.yul\":14:187   */\n    tag_82:\n        /* \"#utility.yul\":82:102   */\n      dup1\n      calldataload\n      sub(shl(0xa0, 0x01), 0x01)\n        /* \"#utility.yul\":131:162   */\n      dup2\n      and\n        /* \"#utility.yul\":121:163   */\n      dup2\n      eq\n        /* \"#utility.yul\":111:181   */\n      tag_84\n      jumpi\n        /* \"#utility.yul\":177:178   */\n      0x00\n        /* \"#utility.yul\":174:175   */\n      dup1\n        /* \"#utility.yul\":167:179   */\n      revert\n        /* \"#utility.yul\":111:181   */\n    tag_84:\n        /* \"#utility.yul\":14:187   */\n      swap2\n      swap1\n      pop\n      jump\t// out\n        /* \"#utility.yul\":192:378   */\n    tag_21:\n        /* \"#utility.yul\":251:257   */\n      0x00\n        /* \"#utility.yul\":304:306   */\n      0x20\n        /* \"#utility.yul\":292:301   */\n      dup3\n        /* \"#utility.yul\":283:290   */\n      dup5\n        /* \"#utility.yul\":279:302   */\n      sub\n        /* \"#utility.yul\":275:307   */\n      slt\n        /* \"#utility.yul\":272:324   */\n      iszero\n      tag_86\n      jumpi\n        /* \"#utility.yul\":320:321   */\n      0x00\n        /* \"#utility.yul\":317:318   */\n      dup1\n        /* \"#utility.yul\":310:322   */\n      revert\n        /* \"#utility.yul\":272:324   */\n    tag_86:\n        /* \"#utility.yul\":343:372   */\n      tag_87\n        /* \"#utility.yul\":362:371   */\n      dup3\n        /* \"#utility.yul\":343:372   */\n      tag_82\n      jump\t// in\n    tag_87:\n        /* \"#utility.yul\":333:372   */\n      swap4\n        /* \"#utility.yul\":192:378   */\n      swap3\n      pop\n      pop\n      pop\n      jump\t// out\n        /* \"#utility.yul\":383:1680   */\n    tag_11:\n        /* \"#utility.yul\":498:504   */\n      0x00\n        /* \"#utility.yul\":506:512   */\n      dup1\n        /* \"#utility.yul\":537:539   */\n      0x40\n        /* \"#utility.yul\":580:582   */\n      dup1\n        /* \"#utility.yul\":568:577   */\n      dup5\n        /* \"#utility.yul\":559:566   */\n      dup7\n        /* \"#utility.yul\":555:578   */\n      sub\n        /* \"#utility.yul\":551:583   */\n      slt\n        /* \"#utility.yul\":548:600   */\n      iszero\n      tag_89\n      jumpi\n        /* \"#utility.yul\":596:597   */\n      0x00\n        /* \"#utility.yul\":593:594   */\n      dup1\n        /* \"#utility.yul\":586:598   */\n      revert\n        /* \"#utility.yul\":548:600   */\n    tag_89:\n        /* \"#utility.yul\":619:648   */\n      tag_90\n        /* \"#utility.yul\":638:647   */\n      dup5\n        /* \"#utility.yul\":619:648   */\n      tag_82\n      jump\t// in\n    tag_90:\n        /* \"#utility.yul\":609:648   */\n      swap3\n      pop\n        /* \"#utility.yul\":667:669   */\n      0x20\n        /* \"#utility.yul\":720:722   */\n      dup1\n        /* \"#utility.yul\":709:718   */\n      dup6\n        /* \"#utility.yul\":705:723   */\n      add\n        /* \"#utility.yul\":692:724   */\n      calldataload\n        /* \"#utility.yul\":743:761   */\n      0xffffffffffffffff\n        /* \"#utility.yul\":784:786   */\n      dup1\n        /* \"#utility.yul\":776:782   */\n      dup3\n        /* \"#utility.yul\":773:787   */\n      gt\n        /* \"#utility.yul\":770:804   */\n      iszero\n      tag_91\n      jumpi\n        /* \"#utility.yul\":800:801   */\n      0x00\n        /* \"#utility.yul\":797:798   */\n      dup1\n        /* \"#utility.yul\":790:802   */\n      revert\n        /* \"#utility.yul\":770:804   */\n    tag_91:\n        /* \"#utility.yul\":838:844   */\n      dup2\n        /* \"#utility.yul\":827:836   */\n      dup8\n        /* \"#utility.yul\":823:845   */\n      add\n        /* \"#utility.yul\":813:845   */\n      swap2\n      pop\n        /* \"#utility.yul\":883:890   */\n      dup8\n        /* \"#utility.yul\":876:880   */\n      0x1f\n        /* \"#utility.yul\":872:874   */\n      dup4\n        /* \"#utility.yul\":868:881   */\n      add\n        /* \"#utility.yul\":864:891   */\n      slt\n        /* \"#utility.yul\":854:909   */\n      tag_92\n      jumpi\n        /* \"#utility.yul\":905:906   */\n      0x00\n        /* \"#utility.yul\":902:903   */\n      dup1\n        /* \"#utility.yul\":895:907   */\n      revert\n        /* \"#utility.yul\":854:909   */\n    tag_92:\n        /* \"#utility.yul\":941:943   */\n      dup2\n        /* \"#utility.yul\":928:944   */\n      calldataload\n        /* \"#utility.yul\":963:965   */\n      dup2\n        /* \"#utility.yul\":959:961   */\n      dup2\n        /* \"#utility.yul\":956:966   */\n      gt\n        /* \"#utility.yul\":953:989   */\n      iszero\n      tag_94\n      jumpi\n        /* \"#utility.yul\":969:987   */\n      tag_94\n      tag_95\n      jump\t// in\n    tag_94:\n        /* \"#utility.yul\":1009:1045   */\n      tag_96\n        /* \"#utility.yul\":1041:1043   */\n      dup5\n        /* \"#utility.yul\":1036:1038   */\n      dup3\n        /* \"#utility.yul\":1033:1034   */\n      0x05\n        /* \"#utility.yul\":1029:1039   */\n      shl\n        /* \"#utility.yul\":1025:1044   */\n      add\n        /* \"#utility.yul\":1009:1045   */\n      tag_97\n      jump\t// in\n    tag_96:\n        /* \"#utility.yul\":1079:1094   */\n      dup2\n      dup2\n      mstore\n        /* \"#utility.yul\":1110:1122   */\n      dup5\n      dup2\n      add\n      swap3\n      pop\n        /* \"#utility.yul\":1142:1153   */\n      dup4\n      dup6\n      add\n        /* \"#utility.yul\":1184:1185   */\n      0x06\n        /* \"#utility.yul\":1180:1190   */\n      dup4\n      swap1\n      shl\n        /* \"#utility.yul\":1172:1191   */\n      dup6\n      add\n        /* \"#utility.yul\":1168:1196   */\n      dup7\n      add\n        /* \"#utility.yul\":1165:1206   */\n      dup12\n      lt\n        /* \"#utility.yul\":1162:1223   */\n      iszero\n      tag_98\n      jumpi\n        /* \"#utility.yul\":1219:1220   */\n      0x00\n        /* \"#utility.yul\":1216:1217   */\n      dup1\n        /* \"#utility.yul\":1209:1221   */\n      revert\n        /* \"#utility.yul\":1162:1223   */\n    tag_98:\n        /* \"#utility.yul\":1241:1242   */\n      0x00\n        /* \"#utility.yul\":1232:1242   */\n      swap5\n      pop\n        /* \"#utility.yul\":1262:1263   */\n      dup5\n        /* \"#utility.yul\":1272:1650   */\n    tag_99:\n        /* \"#utility.yul\":1288:1290   */\n      dup4\n        /* \"#utility.yul\":1283:1286   */\n      dup2\n        /* \"#utility.yul\":1280:1291   */\n      lt\n        /* \"#utility.yul\":1272:1650   */\n      iszero\n      tag_101\n      jumpi\n        /* \"#utility.yul\":1363:1365   */\n      dup8\n        /* \"#utility.yul\":1357:1360   */\n      dup3\n        /* \"#utility.yul\":1348:1355   */\n      dup14\n        /* \"#utility.yul\":1344:1361   */\n      sub\n        /* \"#utility.yul\":1340:1366   */\n      slt\n        /* \"#utility.yul\":1337:1383   */\n      iszero\n      tag_102\n      jumpi\n        /* \"#utility.yul\":1379:1380   */\n      dup6\n        /* \"#utility.yul\":1376:1377   */\n      dup7\n        /* \"#utility.yul\":1369:1381   */\n      revert\n        /* \"#utility.yul\":1337:1383   */\n    tag_102:\n        /* \"#utility.yul\":1409:1431   */\n      tag_103\n      tag_104\n      jump\t// in\n    tag_103:\n        /* \"#utility.yul\":1458:1481   */\n      tag_105\n        /* \"#utility.yul\":1477:1480   */\n      dup4\n        /* \"#utility.yul\":1458:1481   */\n      tag_82\n      jump\t// in\n    tag_105:\n        /* \"#utility.yul\":1444:1482   */\n      dup2\n      mstore\n        /* \"#utility.yul\":1531:1543   */\n      dup3\n      dup9\n      add\n        /* \"#utility.yul\":1518:1544   */\n      calldataload\n        /* \"#utility.yul\":1502:1516   */\n      dup9\n      dup3\n      add\n        /* \"#utility.yul\":1495:1545   */\n      mstore\n        /* \"#utility.yul\":1558:1576   */\n      dup6\n      mstore\n        /* \"#utility.yul\":1596:1608   */\n      swap4\n      dup7\n      add\n      swap4\n        /* \"#utility.yul\":1628:1640   */\n      swap1\n      dup8\n      add\n      swap1\n        /* \"#utility.yul\":1310:1311   */\n      0x01\n        /* \"#utility.yul\":1301:1312   */\n      add\n        /* \"#utility.yul\":1272:1650   */\n      jump(tag_99)\n    tag_101:\n      pop\n        /* \"#utility.yul\":383:1680   */\n      swap8\n      swap11\n        /* \"#utility.yul\":1669:1674   */\n      swap1\n      swap10\n      pop\n        /* \"#utility.yul\":383:1680   */\n      swap8\n      pop\n      pop\n      pop\n      pop\n      pop\n      pop\n      pop\n      pop\n      jump\t// out\n        /* \"#utility.yul\":1685:1962   */\n    tag_77:\n        /* \"#utility.yul\":1752:1758   */\n      0x00\n        /* \"#utility.yul\":1805:1807   */\n      0x20\n        /* \"#utility.yul\":1793:1802   */\n      dup3\n        /* \"#utility.yul\":1784:1791   */\n      dup5\n        /* \"#utility.yul\":1780:1803   */\n      sub\n        /* \"#utility.yul\":1776:1808   */\n      slt\n        /* \"#utility.yul\":1773:1825   */\n      iszero\n      tag_107\n      jumpi\n        /* \"#utility.yul\":1821:1822   */\n      0x00\n        /* \"#utility.yul\":1818:1819   */\n      dup1\n        /* \"#utility.yul\":1811:1823   */\n      revert\n        /* \"#utility.yul\":1773:1825   */\n    tag_107:\n        /* \"#utility.yul\":1853:1862   */\n      dup2\n        /* \"#utility.yul\":1847:1863   */\n      mload\n        /* \"#utility.yul\":1906:1911   */\n      dup1\n        /* \"#utility.yul\":1899:1912   */\n      iszero\n        /* \"#utility.yul\":1892:1913   */\n      iszero\n        /* \"#utility.yul\":1885:1890   */\n      dup2\n        /* \"#utility.yul\":1882:1914   */\n      eq\n        /* \"#utility.yul\":1872:1932   */\n      tag_87\n      jumpi\n        /* \"#utility.yul\":1928:1929   */\n      0x00\n        /* \"#utility.yul\":1925:1926   */\n      dup1\n        /* \"#utility.yul\":1918:1930   */\n      revert\n        /* \"#utility.yul\":1967:2393   */\n    tag_70:\n        /* \"#utility.yul\":2096:2099   */\n      0x00\n        /* \"#utility.yul\":2134:2140   */\n      dup3\n        /* \"#utility.yul\":2128:2141   */\n      mload\n        /* \"#utility.yul\":2159:2160   */\n      0x00\n        /* \"#utility.yul\":2169:2298   */\n    tag_110:\n        /* \"#utility.yul\":2183:2189   */\n      dup2\n        /* \"#utility.yul\":2180:2181   */\n      dup2\n        /* \"#utility.yul\":2177:2190   */\n      lt\n        /* \"#utility.yul\":2169:2298   */\n      iszero\n      tag_112\n      jumpi\n        /* \"#utility.yul\":2281:2285   */\n      0x20\n        /* \"#utility.yul\":2265:2279   */\n      dup2\n      dup7\n      add\n        /* \"#utility.yul\":2261:2286   */\n      dup2\n      add\n        /* \"#utility.yul\":2255:2287   */\n      mload\n        /* \"#utility.yul\":2242:2253   */\n      dup6\n      dup4\n      add\n        /* \"#utility.yul\":2235:2288   */\n      mstore\n        /* \"#utility.yul\":2198:2210   */\n      add\n        /* \"#utility.yul\":2169:2298   */\n      jump(tag_110)\n    tag_112:\n        /* \"#utility.yul\":2316:2322   */\n      dup2\n        /* \"#utility.yul\":2313:2314   */\n      dup2\n        /* \"#utility.yul\":2310:2323   */\n      gt\n        /* \"#utility.yul\":2307:2355   */\n      iszero\n      tag_113\n      jumpi\n        /* \"#utility.yul\":2351:2352   */\n      0x00\n        /* \"#utility.yul\":2342:2348   */\n      dup3\n        /* \"#utility.yul\":2337:2340   */\n      dup6\n        /* \"#utility.yul\":2333:2349   */\n      add\n        /* \"#utility.yul\":2326:2353   */\n      mstore\n        /* \"#utility.yul\":2307:2355   */\n    tag_113:\n      pop\n        /* \"#utility.yul\":2371:2387   */\n      swap2\n      swap1\n      swap2\n      add\n      swap3\n        /* \"#utility.yul\":1967:2393   */\n      swap2\n      pop\n      pop\n      jump\t// out\n        /* \"#utility.yul\":4586:4837   */\n    tag_104:\n        /* \"#utility.yul\":4658:4660   */\n      0x40\n        /* \"#utility.yul\":4652:4661   */\n      dup1\n      mload\n      swap1\n        /* \"#utility.yul\":4688:4703   */\n      dup2\n      add\n        /* \"#utility.yul\":4733:4751   */\n      0xffffffffffffffff\n        /* \"#utility.yul\":4718:4752   */\n      dup2\n      gt\n        /* \"#utility.yul\":4754:4776   */\n      dup3\n      dup3\n      lt\n        /* \"#utility.yul\":4715:4777   */\n      or\n        /* \"#utility.yul\":4712:4800   */\n      iszero\n      tag_122\n      jumpi\n        /* \"#utility.yul\":4780:4798   */\n      tag_122\n      tag_95\n      jump\t// in\n    tag_122:\n        /* \"#utility.yul\":4816:4818   */\n      0x40\n        /* \"#utility.yul\":4809:4831   */\n      mstore\n        /* \"#utility.yul\":4586:4837   */\n      swap1\n      jump\t// out\n        /* \"#utility.yul\":4842:5117   */\n    tag_97:\n        /* \"#utility.yul\":4913:4915   */\n      0x40\n        /* \"#utility.yul\":4907:4916   */\n      mload\n        /* \"#utility.yul\":4978:4980   */\n      0x1f\n        /* \"#utility.yul\":4959:4972   */\n      dup3\n      add\n      not(0x1f)\n        /* \"#utility.yul\":4955:4982   */\n      and\n        /* \"#utility.yul\":4943:4983   */\n      dup2\n      add\n        /* \"#utility.yul\":5013:5031   */\n      0xffffffffffffffff\n        /* \"#utility.yul\":4998:5032   */\n      dup2\n      gt\n        /* \"#utility.yul\":5034:5056   */\n      dup3\n      dup3\n      lt\n        /* \"#utility.yul\":4995:5057   */\n      or\n        /* \"#utility.yul\":4992:5080   */\n      iszero\n      tag_125\n      jumpi\n        /* \"#utility.yul\":5060:5078   */\n      tag_125\n      tag_95\n      jump\t// in\n    tag_125:\n        /* \"#utility.yul\":5096:5098   */\n      0x40\n        /* \"#utility.yul\":5089:5111   */\n      mstore\n        /* \"#utility.yul\":4842:5117   */\n      swap2\n      swap1\n      pop\n      jump\t// out\n        /* \"#utility.yul\":5122:5354   */\n    tag_52:\n        /* \"#utility.yul\":5161:5164   */\n      0x00\n      not(0x00)\n        /* \"#utility.yul\":5182:5199   */\n      dup3\n      eq\n        /* \"#utility.yul\":5179:5319   */\n      iszero\n      tag_127\n      jumpi\n        /* \"#utility.yul\":5241:5251   */\n      0x4e487b71\n        /* \"#utility.yul\":5236:5239   */\n      0xe0\n        /* \"#utility.yul\":5232:5252   */\n      shl\n        /* \"#utility.yul\":5229:5230   */\n      0x00\n        /* \"#utility.yul\":5222:5253   */\n      mstore\n        /* \"#utility.yul\":5276:5280   */\n      0x11\n        /* \"#utility.yul\":5273:5274   */\n      0x04\n        /* \"#utility.yul\":5266:5281   */\n      mstore\n        /* \"#utility.yul\":5304:5308   */\n      0x24\n        /* \"#utility.yul\":5301:5302   */\n      0x00\n        /* \"#utility.yul\":5294:5309   */\n      revert\n        /* \"#utility.yul\":5179:5319   */\n    tag_127:\n      pop\n        /* \"#utility.yul\":5346:5347   */\n      0x01\n        /* \"#utility.yul\":5335:5348   */\n      add\n      swap1\n        /* \"#utility.yul\":5122:5354   */\n      jump\t// out\n        /* \"#utility.yul\":5359:5486   */\n    tag_43:\n        /* \"#utility.yul\":5420:5430   */\n      0x4e487b71\n        /* \"#utility.yul\":5415:5418   */\n      0xe0\n        /* \"#utility.yul\":5411:5431   */\n      shl\n        /* \"#utility.yul\":5408:5409   */\n      0x00\n        /* \"#utility.yul\":5401:5432   */\n      mstore\n        /* \"#utility.yul\":5451:5455   */\n      0x32\n        /* \"#utility.yul\":5448:5449   */\n      0x04\n        /* \"#utility.yul\":5441:5456   */\n      mstore\n        /* \"#utility.yul\":5475:5479   */\n      0x24\n        /* \"#utility.yul\":5472:5473   */\n      0x00\n        /* \"#utility.yul\":5465:5480   */\n      revert\n        /* \"#utility.yul\":5491:5618   */\n    tag_95:\n        /* \"#utility.yul\":5552:5562   */\n      0x4e487b71\n        /* \"#utility.yul\":5547:5550   */\n      0xe0\n        /* \"#utility.yul\":5543:5563   */\n      shl\n        /* \"#utility.yul\":5540:5541   */\n      0x00\n        /* \"#utility.yul\":5533:5564   */\n      mstore\n        /* \"#utility.yul\":5583:5587   */\n      0x41\n        /* \"#utility.yul\":5580:5581   */\n      0x04\n        /* \"#utility.yul\":5573:5588   */\n      mstore\n        /* \"#utility.yul\":5607:5611   */\n      0x24\n        /* \"#utility.yul\":5604:5605   */\n      0x00\n        /* \"#utility.yul\":5597:5612   */\n      revert\n\n    auxdata: 0xa2646970667358221220e042c627f20c1545c3489497af180ca847c5816324f039b324f05360e6e85c2964736f6c63430008070033\n}\n",
				"bytecode": {
					"linkReferences": {},
					"object": "608060405234801561001057600080fd5b5061001a3361001f565b61006f565b600080546001600160a01b038381166001600160a01b0319831681178455604051919092169283917f8be0079c531659141344cd1fd0a4f28419497f9722a3daafe3b4186f6b6457e09190a35050565b6106c38061007e6000396000f3fe60806040526004361061003f5760003560e01c8063715018a6146100445780637e4d80301461005b5780638da5cb5b1461006e578063f2fde38b1461009a575b600080fd5b34801561005057600080fd5b506100596100ba565b005b610059610069366004610498565b610125565b34801561007a57600080fd5b50600054604080516001600160a01b039092168252519081900360200190f35b3480156100a657600080fd5b506100596100b5366004610476565b610201565b6000546001600160a01b031633146101195760405162461bcd60e51b815260206004820181905260248201527f4f776e61626c653a2063616c6c6572206973206e6f7420746865206f776e657260448201526064015b60405180910390fd5b61012360006102cc565b565b805160005b818110156101fb57610178843385848151811061014957610149610661565b60200260200101516000015186858151811061016757610167610661565b60200260200101516020015161031c565b82818151811061018a5761018a610661565b6020026020010151602001518382815181106101a8576101a8610661565b6020026020010151600001516001600160a01b03167f7bd6d4be1decdc27a9ed9c7ccdf5bb7cc38e31b3647b958c6b37162a2296c0fa60405160405180910390a3806101f381610638565b91505061012a565b50505050565b6000546001600160a01b0316331461025b5760405162461bcd60e51b815260206004820181905260248201527f4f776e61626c653a2063616c6c6572206973206e6f7420746865206f776e65726044820152606401610110565b6001600160a01b0381166102c05760405162461bcd60e51b815260206004820152602660248201527f4f776e61626c653a206e6577206f776e657220697320746865207a65726f206160448201526564647265737360d01b6064820152608401610110565b6102c9816102cc565b50565b600080546001600160a01b038381166001600160a01b0319831681178455604051919092169283917f8be0079c531659141344cd1fd0a4f28419497f9722a3daafe3b4186f6b6457e09190a35050565b604080516001600160a01b0385811660248301528481166044830152606480830185905283518084039091018152608490920183526020820180516001600160e01b03166323b872dd60e01b179052915160009283929088169161038091906105a3565b6000604051808303816000865af19150503d80600081146103bd576040519150601f19603f3d011682016040523d82523d6000602084013e6103c2565b606091505b50915091508180156103ec5750805115806103ec5750808060200190518101906103ec9190610581565b6104525760405162461bcd60e51b815260206004820152603160248201527f5472616e7366657248656c7065723a3a7472616e7366657246726f6d3a207472604482015270185b9cd9995c919c9bdb4819985a5b1959607a1b6064820152608401610110565b505050505050565b80356001600160a01b038116811461047157600080fd5b919050565b60006020828403121561048857600080fd5b6104918261045a565b9392505050565b60008060408084860312156104ac57600080fd5b6104b58461045a565b925060208085013567ffffffffffffffff808211156104d357600080fd5b818701915087601f8301126104e757600080fd5b8135818111156104f9576104f9610677565b610507848260051b01610607565b8181528481019250838501600683901b850186018b101561052757600080fd5b60009450845b838110156105705787828d031215610543578586fd5b61054b6105de565b6105548361045a565b815282880135888201528552938601939087019060010161052d565b50979a909950975050505050505050565b60006020828403121561059357600080fd5b8151801515811461049157600080fd5b6000825160005b818110156105c457602081860181015185830152016105aa565b818111156105d3576000828501525b509190910192915050565b6040805190810167ffffffffffffffff8111828210171561060157610601610677565b60405290565b604051601f8201601f1916810167ffffffffffffffff8111828210171561063057610630610677565b604052919050565b600060001982141561065a57634e487b7160e01b600052601160045260246000fd5b5060010190565b634e487b7160e01b600052603260045260246000fd5b634e487b7160e01b600052604160045260246000fdfea2646970667358221220e042c627f20c1545c3489497af180ca847c5816324f039b324f05360e6e85c2964736f6c63430008070033",
					"opcodes": "PUSH1 0x80 PUSH1 0x40 MSTORE CALLVALUE DUP1 ISZERO PUSH2 0x10 JUMPI PUSH1 0x0 DUP1 REVERT JUMPDEST POP PUSH2 0x1A CALLER PUSH2 0x1F JUMP JUMPDEST PUSH2 0x6F JUMP JUMPDEST PUSH1 0x0 DUP1 SLOAD PUSH1 0x1 PUSH1 0x1 PUSH1 0xA0 SHL SUB DUP4 DUP2 AND PUSH1 0x1 PUSH1 0x1 PUSH1 0xA0 SHL SUB NOT DUP4 AND DUP2 OR DUP5 SSTORE PUSH1 0x40 MLOAD SWAP2 SWAP1 SWAP3 AND SWAP3 DUP4 SWAP2 PUSH32 0x8BE0079C531659141344CD1FD0A4F28419497F9722A3DAAFE3B4186F6B6457E0 SWAP2 SWAP1 LOG3 POP POP JUMP JUMPDEST PUSH2 0x6C3 DUP1 PUSH2 0x7E PUSH1 0x0 CODECOPY PUSH1 0x0 RETURN INVALID PUSH1 0x80 PUSH1 0x40 MSTORE PUSH1 0x4 CALLDATASIZE LT PUSH2 0x3F JUMPI PUSH1 0x0 CALLDATALOAD PUSH1 0xE0 SHR DUP1 PUSH4 0x715018A6 EQ PUSH2 0x44 JUMPI DUP1 PUSH4 0x7E4D8030 EQ PUSH2 0x5B JUMPI DUP1 PUSH4 0x8DA5CB5B EQ PUSH2 0x6E JUMPI DUP1 PUSH4 0xF2FDE38B EQ PUSH2 0x9A JUMPI JUMPDEST PUSH1 0x0 DUP1 REVERT JUMPDEST CALLVALUE DUP1 ISZERO PUSH2 0x50 JUMPI PUSH1 0x0 DUP1 REVERT JUMPDEST POP PUSH2 0x59 PUSH2 0xBA JUMP JUMPDEST STOP JUMPDEST PUSH2 0x59 PUSH2 0x69 CALLDATASIZE PUSH1 0x4 PUSH2 0x498 JUMP JUMPDEST PUSH2 0x125 JUMP JUMPDEST CALLVALUE DUP1 ISZERO PUSH2 0x7A JUMPI PUSH1 0x0 DUP1 REVERT JUMPDEST POP PUSH1 0x0 SLOAD PUSH1 0x40 DUP1 MLOAD PUSH1 0x1 PUSH1 0x1 PUSH1 0xA0 SHL SUB SWAP1 SWAP3 AND DUP3 MSTORE MLOAD SWAP1 DUP2 SWAP1 SUB PUSH1 0x20 ADD SWAP1 RETURN JUMPDEST CALLVALUE DUP1 ISZERO PUSH2 0xA6 JUMPI PUSH1 0x0 DUP1 REVERT JUMPDEST POP PUSH2 0x59 PUSH2 0xB5 CALLDATASIZE PUSH1 0x4 PUSH2 0x476 JUMP JUMPDEST PUSH2 0x201 JUMP JUMPDEST PUSH1 0x0 SLOAD PUSH1 0x1 PUSH1 0x1 PUSH1 0xA0 SHL SUB AND CALLER EQ PUSH2 0x119 JUMPI PUSH1 0x40 MLOAD PUSH3 0x461BCD PUSH1 0xE5 SHL DUP2 MSTORE PUSH1 0x20 PUSH1 0x4 DUP3 ADD DUP2 SWAP1 MSTORE PUSH1 0x24 DUP3 ADD MSTORE PUSH32 0x4F776E61626C653A2063616C6C6572206973206E6F7420746865206F776E6572 PUSH1 0x44 DUP3 ADD MSTORE PUSH1 0x64 ADD JUMPDEST PUSH1 0x40 MLOAD DUP1 SWAP2 SUB SWAP1 REVERT JUMPDEST PUSH2 0x123 PUSH1 0x0 PUSH2 0x2CC JUMP JUMPDEST JUMP JUMPDEST DUP1 MLOAD PUSH1 0x0 JUMPDEST DUP2 DUP2 LT ISZERO PUSH2 0x1FB JUMPI PUSH2 0x178 DUP5 CALLER DUP6 DUP5 DUP2 MLOAD DUP2 LT PUSH2 0x149 JUMPI PUSH2 0x149 PUSH2 0x661 JUMP JUMPDEST PUSH1 0x20 MUL PUSH1 0x20 ADD ADD MLOAD PUSH1 0x0 ADD MLOAD DUP7 DUP6 DUP2 MLOAD DUP2 LT PUSH2 0x167 JUMPI PUSH2 0x167 PUSH2 0x661 JUMP JUMPDEST PUSH1 0x20 MUL PUSH1 0x20 ADD ADD MLOAD PUSH1 0x20 ADD MLOAD PUSH2 0x31C JUMP JUMPDEST DUP3 DUP2 DUP2 MLOAD DUP2 LT PUSH2 0x18A JUMPI PUSH2 0x18A PUSH2 0x661 JUMP JUMPDEST PUSH1 0x20 MUL PUSH1 0x20 ADD ADD MLOAD PUSH1 0x20 ADD MLOAD DUP4 DUP3 DUP2 MLOAD DUP2 LT PUSH2 0x1A8 JUMPI PUSH2 0x1A8 PUSH2 0x661 JUMP JUMPDEST PUSH1 0x20 MUL PUSH1 0x20 ADD ADD MLOAD PUSH1 0x0 ADD MLOAD PUSH1 0x1 PUSH1 0x1 PUSH1 0xA0 SHL SUB AND PUSH32 0x7BD6D4BE1DECDC27A9ED9C7CCDF5BB7CC38E31B3647B958C6B37162A2296C0FA PUSH1 0x40 MLOAD PUSH1 0x40 MLOAD DUP1 SWAP2 SUB SWAP1 LOG3 DUP1 PUSH2 0x1F3 DUP2 PUSH2 0x638 JUMP JUMPDEST SWAP2 POP POP PUSH2 0x12A JUMP JUMPDEST POP POP POP POP JUMP JUMPDEST PUSH1 0x0 SLOAD PUSH1 0x1 PUSH1 0x1 PUSH1 0xA0 SHL SUB AND CALLER EQ PUSH2 0x25B JUMPI PUSH1 0x40 MLOAD PUSH3 0x461BCD PUSH1 0xE5 SHL DUP2 MSTORE PUSH1 0x20 PUSH1 0x4 DUP3 ADD DUP2 SWAP1 MSTORE PUSH1 0x24 DUP3 ADD MSTORE PUSH32 0x4F776E61626C653A2063616C6C6572206973206E6F7420746865206F776E6572 PUSH1 0x44 DUP3 ADD MSTORE PUSH1 0x64 ADD PUSH2 0x110 JUMP JUMPDEST PUSH1 0x1 PUSH1 0x1 PUSH1 0xA0 SHL SUB DUP2 AND PUSH2 0x2C0 JUMPI PUSH1 0x40 MLOAD PUSH3 0x461BCD PUSH1 0xE5 SHL DUP2 MSTORE PUSH1 0x20 PUSH1 0x4 DUP3 ADD MSTORE PUSH1 0x26 PUSH1 0x24 DUP3 ADD MSTORE PUSH32 0x4F776E61626C653A206E6577206F776E657220697320746865207A65726F2061 PUSH1 0x44 DUP3 ADD MSTORE PUSH6 0x646472657373 PUSH1 0xD0 SHL PUSH1 0x64 DUP3 ADD MSTORE PUSH1 0x84 ADD PUSH2 0x110 JUMP JUMPDEST PUSH2 0x2C9 DUP2 PUSH2 0x2CC JUMP JUMPDEST POP JUMP JUMPDEST PUSH1 0x0 DUP1 SLOAD PUSH1 0x1 PUSH1 0x1 PUSH1 0xA0 SHL SUB DUP4 DUP2 AND PUSH1 0x1 PUSH1 0x1 PUSH1 0xA0 SHL SUB NOT DUP4 AND DUP2 OR DUP5 SSTORE PUSH1 0x40 MLOAD SWAP2 SWAP1 SWAP3 AND SWAP3 DUP4 SWAP2 PUSH32 0x8BE0079C531659141344CD1FD0A4F28419497F9722A3DAAFE3B4186F6B6457E0 SWAP2 SWAP1 LOG3 POP POP JUMP JUMPDEST PUSH1 0x40 DUP1 MLOAD PUSH1 0x1 PUSH1 0x1 PUSH1 0xA0 SHL SUB DUP6 DUP2 AND PUSH1 0x24 DUP4 ADD MSTORE DUP5 DUP2 AND PUSH1 0x44 DUP4 ADD MSTORE PUSH1 0x64 DUP1 DUP4 ADD DUP6 SWAP1 MSTORE DUP4 MLOAD DUP1 DUP5 SUB SWAP1 SWAP2 ADD DUP2 MSTORE PUSH1 0x84 SWAP1 SWAP3 ADD DUP4 MSTORE PUSH1 0x20 DUP3 ADD DUP1 MLOAD PUSH1 0x1 PUSH1 0x1 PUSH1 0xE0 SHL SUB AND PUSH4 0x23B872DD PUSH1 0xE0 SHL OR SWAP1 MSTORE SWAP2 MLOAD PUSH1 0x0 SWAP3 DUP4 SWAP3 SWAP1 DUP9 AND SWAP2 PUSH2 0x380 SWAP2 SWAP1 PUSH2 0x5A3 JUMP JUMPDEST PUSH1 0x0 PUSH1 0x40 MLOAD DUP1 DUP4 SUB DUP2 PUSH1 0x0 DUP7 GAS CALL SWAP2 POP POP RETURNDATASIZE DUP1 PUSH1 0x0 DUP2 EQ PUSH2 0x3BD JUMPI PUSH1 0x40 MLOAD SWAP2 POP PUSH1 0x1F NOT PUSH1 0x3F RETURNDATASIZE ADD AND DUP3 ADD PUSH1 0x40 MSTORE RETURNDATASIZE DUP3 MSTORE RETURNDATASIZE PUSH1 0x0 PUSH1 0x20 DUP5 ADD RETURNDATACOPY PUSH2 0x3C2 JUMP JUMPDEST PUSH1 0x60 SWAP2 POP JUMPDEST POP SWAP2 POP SWAP2 POP DUP2 DUP1 ISZERO PUSH2 0x3EC JUMPI POP DUP1 MLOAD ISZERO DUP1 PUSH2 0x3EC JUMPI POP DUP1 DUP1 PUSH1 0x20 ADD SWAP1 MLOAD DUP2 ADD SWAP1 PUSH2 0x3EC SWAP2 SWAP1 PUSH2 0x581 JUMP JUMPDEST PUSH2 0x452 JUMPI PUSH1 0x40 MLOAD PUSH3 0x461BCD PUSH1 0xE5 SHL DUP2 MSTORE PUSH1 0x20 PUSH1 0x4 DUP3 ADD MSTORE PUSH1 0x31 PUSH1 0x24 DUP3 ADD MSTORE PUSH32 0x5472616E7366657248656C7065723A3A7472616E7366657246726F6D3A207472 PUSH1 0x44 DUP3 ADD MSTORE PUSH17 0x185B9CD9995C919C9BDB4819985A5B1959 PUSH1 0x7A SHL PUSH1 0x64 DUP3 ADD MSTORE PUSH1 0x84 ADD PUSH2 0x110 JUMP JUMPDEST POP POP POP POP POP POP JUMP JUMPDEST DUP1 CALLDATALOAD PUSH1 0x1 PUSH1 0x1 PUSH1 0xA0 SHL SUB DUP2 AND DUP2 EQ PUSH2 0x471 JUMPI PUSH1 0x0 DUP1 REVERT JUMPDEST SWAP2 SWAP1 POP JUMP JUMPDEST PUSH1 0x0 PUSH1 0x20 DUP3 DUP5 SUB SLT ISZERO PUSH2 0x488 JUMPI PUSH1 0x0 DUP1 REVERT JUMPDEST PUSH2 0x491 DUP3 PUSH2 0x45A JUMP JUMPDEST SWAP4 SWAP3 POP POP POP JUMP JUMPDEST PUSH1 0x0 DUP1 PUSH1 0x40 DUP1 DUP5 DUP7 SUB SLT ISZERO PUSH2 0x4AC JUMPI PUSH1 0x0 DUP1 REVERT JUMPDEST PUSH2 0x4B5 DUP5 PUSH2 0x45A JUMP JUMPDEST SWAP3 POP PUSH1 0x20 DUP1 DUP6 ADD CALLDATALOAD PUSH8 0xFFFFFFFFFFFFFFFF DUP1 DUP3 GT ISZERO PUSH2 0x4D3 JUMPI PUSH1 0x0 DUP1 REVERT JUMPDEST DUP2 DUP8 ADD SWAP2 POP DUP8 PUSH1 0x1F DUP4 ADD SLT PUSH2 0x4E7 JUMPI PUSH1 0x0 DUP1 REVERT JUMPDEST DUP2 CALLDATALOAD DUP2 DUP2 GT ISZERO PUSH2 0x4F9 JUMPI PUSH2 0x4F9 PUSH2 0x677 JUMP JUMPDEST PUSH2 0x507 DUP5 DUP3 PUSH1 0x5 SHL ADD PUSH2 0x607 JUMP JUMPDEST DUP2 DUP2 MSTORE DUP5 DUP2 ADD SWAP3 POP DUP4 DUP6 ADD PUSH1 0x6 DUP4 SWAP1 SHL DUP6 ADD DUP7 ADD DUP12 LT ISZERO PUSH2 0x527 JUMPI PUSH1 0x0 DUP1 REVERT JUMPDEST PUSH1 0x0 SWAP5 POP DUP5 JUMPDEST DUP4 DUP2 LT ISZERO PUSH2 0x570 JUMPI DUP8 DUP3 DUP14 SUB SLT ISZERO PUSH2 0x543 JUMPI DUP6 DUP7 REVERT JUMPDEST PUSH2 0x54B PUSH2 0x5DE JUMP JUMPDEST PUSH2 0x554 DUP4 PUSH2 0x45A JUMP JUMPDEST DUP2 MSTORE DUP3 DUP9 ADD CALLDATALOAD DUP9 DUP3 ADD MSTORE DUP6 MSTORE SWAP4 DUP7 ADD SWAP4 SWAP1 DUP8 ADD SWAP1 PUSH1 0x1 ADD PUSH2 0x52D JUMP JUMPDEST POP SWAP8 SWAP11 SWAP1 SWAP10 POP SWAP8 POP POP POP POP POP POP POP POP JUMP JUMPDEST PUSH1 0x0 PUSH1 0x20 DUP3 DUP5 SUB SLT ISZERO PUSH2 0x593 JUMPI PUSH1 0x0 DUP1 REVERT JUMPDEST DUP2 MLOAD DUP1 ISZERO ISZERO DUP2 EQ PUSH2 0x491 JUMPI PUSH1 0x0 DUP1 REVERT JUMPDEST PUSH1 0x0 DUP3 MLOAD PUSH1 0x0 JUMPDEST DUP2 DUP2 LT ISZERO PUSH2 0x5C4 JUMPI PUSH1 0x20 DUP2 DUP7 ADD DUP2 ADD MLOAD DUP6 DUP4 ADD MSTORE ADD PUSH2 0x5AA JUMP JUMPDEST DUP2 DUP2 GT ISZERO PUSH2 0x5D3 JUMPI PUSH1 0x0 DUP3 DUP6 ADD MSTORE JUMPDEST POP SWAP2 SWAP1 SWAP2 ADD SWAP3 SWAP2 POP POP JUMP JUMPDEST PUSH1 0x40 DUP1 MLOAD SWAP1 DUP2 ADD PUSH8 0xFFFFFFFFFFFFFFFF DUP2 GT DUP3 DUP3 LT OR ISZERO PUSH2 0x601 JUMPI PUSH2 0x601 PUSH2 0x677 JUMP JUMPDEST PUSH1 0x40 MSTORE SWAP1 JUMP JUMPDEST PUSH1 0x40 MLOAD PUSH1 0x1F DUP3 ADD PUSH1 0x1F NOT AND DUP2 ADD PUSH8 0xFFFFFFFFFFFFFFFF DUP2 GT DUP3 DUP3 LT OR ISZERO PUSH2 0x630 JUMPI PUSH2 0x630 PUSH2 0x677 JUMP JUMPDEST PUSH1 0x40 MSTORE SWAP2 SWAP1 POP JUMP JUMPDEST PUSH1 0x0 PUSH1 0x0 NOT DUP3 EQ ISZERO PUSH2 0x65A JUMPI PUSH4 0x4E487B71 PUSH1 0xE0 SHL PUSH1 0x0 MSTORE PUSH1 0x11 PUSH1 0x4 MSTORE PUSH1 0x24 PUSH1 0x0 REVERT JUMPDEST POP PUSH1 0x1 ADD SWAP1 JUMP JUMPDEST PUSH4 0x4E487B71 PUSH1 0xE0 SHL PUSH1 0x0 MSTORE PUSH1 0x32 PUSH1 0x4 MSTORE PUSH1 0x24 PUSH1 0x0 REVERT JUMPDEST PUSH4 0x4E487B71 PUSH1 0xE0 SHL PUSH1 0x0 MSTORE PUSH1 0x41 PUSH1 0x4 MSTORE PUSH1 0x24 PUSH1 0x0 REVERT INVALID LOG2 PUSH5 0x6970667358 0x22 SLT KECCAK256 0xE0 TIMESTAMP 0xC6 0x27 CALLCODE 0xC ISZERO GASLIMIT 0xC3 BASEFEE SWAP5 SWAP8 0xAF XOR 0xC 0xA8 SELFBALANCE 0xC5 DUP2 PUSH4 0x24F039B3 0x24 CREATE MSTORE8 PUSH1 0xE6 0xE8 0x5C 0x29 PUSH5 0x736F6C6343 STOP ADDMOD SMOD STOP CALLER "
				},
				"gasEstimates": {
					"creation": {
						"codeDepositCost": "346200",
						"executionCost": "26227",
						"totalCost": "372427"
					},
					"external": {
						"airdrop(address,(address,uint256)[])": "infinite",
						"owner()": "2314",
						"renounceOwnership()": "28092",
						"transferOwnership(address)": "28353"
					}
				},
				"methodIdentifiers": {
					"airdrop(address,(address,uint256)[])": "7e4d8030",
					"owner()": "8da5cb5b",
					"renounceOwnership()": "715018a6",
					"transferOwnership(address)": "f2fde38b"
				}
			},
			"storageLayout": {
				"storage": [
					{
						"astId": 7,
						"contract": "contracts/Airdrop.sol:Airdrop",
						"label": "_owner",
						"offset": 0,
						"slot": "0",
						"type": "t_address"
					}
				],
				"types": {
					"t_address": {
						"encoding": "inplace",
						"label": "address",
						"numberOfBytes": "20"
					}
				}
			},
			"userdoc": {
				"kind": "user",
				"methods": {},
				"version": 1
			}
		}
	}
}