{
	"contracts/Multichain.sol": {
		"Multiu": {
			"abi": [
				{
					"inputs": [
						{
							"internalType": "contract IERC20",
							"name": "token",
							"type": "address"
						},
						{
							"internalType": "contract IMasterEntertainer",
							"name": "masterEntertainer",
							"type": "address"
						}
					],
					"stateMutability": "nonpayable",
					"type": "constructor"
				},
				{
					"inputs": [
						{
							"internalType": "uint32[]",
							"name": "vestingDays",
							"type": "uint32[]"
						},
						{
							"internalType": "address[]",
							"name": "userAddresses",
							"type": "address[]"
						}
					],
					"name": "GetStakedBalance",
					"outputs": [
						{
							"components": [
								{
									"internalType": "uint32",
									"name": "VestingDays",
									"type": "uint32"
								},
								{
									"internalType": "uint256",
									"name": "TokenBalance",
									"type": "uint256"
								}
							],
							"internalType": "struct Multiu.Stake[]",
							"name": "",
							"type": "tuple[]"
						}
					],
					"stateMutability": "view",
					"type": "function"
				},
				{
					"inputs": [
						{
							"internalType": "address[]",
							"name": "userAddresses",
							"type": "address[]"
						}
					],
					"name": "getTokenBalanceOf",
					"outputs": [
						{
							"internalType": "uint256",
							"name": "",
							"type": "uint256"
						}
					],
					"stateMutability": "view",
					"type": "function"
				}
			],
			"devdoc": {
				"kind": "dev",
				"methods": {},
				"version": 1
			},
			"evm": {
				"assembly": "    /* \"contracts/Multichain.sol\":336:1783  contract Multiu {\r... */\n  mstore(0x40, 0x80)\n    /* \"contracts/Multichain.sol\":587:733  constructor(IERC20 token, IMasterEntertainer masterEntertainer) {\r... */\n  callvalue\n  dup1\n  iszero\n  tag_1\n  jumpi\n  0x00\n  dup1\n  revert\ntag_1:\n  pop\n  mload(0x40)\n  sub(codesize, bytecodeSize)\n  dup1\n  bytecodeSize\n  dup4\n  codecopy\n  dup2\n  add\n  0x40\n  dup2\n  swap1\n  mstore\n  tag_2\n  swap2\n  tag_3\n  jump\t// in\ntag_2:\n    /* \"contracts/Multichain.sol\":662:668  _token */\n  0x00\n    /* \"contracts/Multichain.sol\":662:676  _token = token */\n  dup1\n  sload\n  sub(shl(0xa0, 0x01), 0x01)\n  swap4\n  dup5\n  and\n  not(sub(shl(0xa0, 0x01), 0x01))\n  swap2\n  dup3\n  and\n  or\n  swap1\n  swap2\n  sstore\n  0x01\n    /* \"contracts/Multichain.sol\":687:725  _masterEntertainer = masterEntertainer */\n  dup1\n  sload\n  swap3\n  swap1\n  swap4\n  and\n  swap2\n  and\n  or\n  swap1\n  sstore\n    /* \"contracts/Multichain.sol\":336:1783  contract Multiu {\r... */\n  jump(tag_7)\n    /* \"#utility.yul\":14:456   */\ntag_3:\n    /* \"#utility.yul\":134:140   */\n  0x00\n    /* \"#utility.yul\":142:148   */\n  dup1\n    /* \"#utility.yul\":195:197   */\n  0x40\n    /* \"#utility.yul\":183:192   */\n  dup4\n    /* \"#utility.yul\":174:181   */\n  dup6\n    /* \"#utility.yul\":170:193   */\n  sub\n    /* \"#utility.yul\":166:198   */\n  slt\n    /* \"#utility.yul\":163:215   */\n  iszero\n  tag_9\n  jumpi\n    /* \"#utility.yul\":211:212   */\n  0x00\n    /* \"#utility.yul\":208:209   */\n  dup1\n    /* \"#utility.yul\":201:213   */\n  revert\n    /* \"#utility.yul\":163:215   */\ntag_9:\n    /* \"#utility.yul\":243:252   */\n  dup3\n    /* \"#utility.yul\":237:253   */\n  mload\n    /* \"#utility.yul\":262:301   */\n  tag_10\n    /* \"#utility.yul\":295:300   */\n  dup2\n    /* \"#utility.yul\":262:301   */\n  tag_11\n  jump\t// in\ntag_10:\n    /* \"#utility.yul\":370:372   */\n  0x20\n    /* \"#utility.yul\":355:373   */\n  dup5\n  add\n    /* \"#utility.yul\":349:374   */\n  mload\n    /* \"#utility.yul\":320:325   */\n  swap1\n  swap3\n  pop\n    /* \"#utility.yul\":383:424   */\n  tag_12\n    /* \"#utility.yul\":349:374   */\n  dup2\n    /* \"#utility.yul\":383:424   */\n  tag_11\n  jump\t// in\ntag_12:\n    /* \"#utility.yul\":443:450   */\n  dup1\n    /* \"#utility.yul\":433:450   */\n  swap2\n  pop\n  pop\n    /* \"#utility.yul\":14:456   */\n  swap3\n  pop\n  swap3\n  swap1\n  pop\n  jump\t// out\n    /* \"#utility.yul\":461:600   */\ntag_11:\n  sub(shl(0xa0, 0x01), 0x01)\n    /* \"#utility.yul\":544:575   */\n  dup2\n  and\n    /* \"#utility.yul\":534:576   */\n  dup2\n  eq\n    /* \"#utility.yul\":524:594   */\n  tag_14\n  jumpi\n    /* \"#utility.yul\":590:591   */\n  0x00\n    /* \"#utility.yul\":587:588   */\n  dup1\n    /* \"#utility.yul\":580:592   */\n  revert\n    /* \"#utility.yul\":524:594   */\ntag_14:\n    /* \"#utility.yul\":461:600   */\n  pop\n  jump\t// out\ntag_7:\n    /* \"contracts/Multichain.sol\":336:1783  contract Multiu {\r... */\n  dataSize(sub_0)\n  dup1\n  dataOffset(sub_0)\n  0x00\n  codecopy\n  0x00\n  return\nstop\n\nsub_0: assembly {\n        /* \"contracts/Multichain.sol\":336:1783  contract Multiu {\r... */\n      mstore(0x40, 0x80)\n      callvalue\n      dup1\n      iszero\n      tag_1\n      jumpi\n      0x00\n      dup1\n      revert\n    tag_1:\n      pop\n      jumpi(tag_2, lt(calldatasize, 0x04))\n      shr(0xe0, calldataload(0x00))\n      dup1\n      0x0a5f75b6\n      eq\n      tag_3\n      jumpi\n      dup1\n      0x77969091\n      eq\n      tag_4\n      jumpi\n    tag_2:\n      0x00\n      dup1\n      revert\n        /* \"contracts/Multichain.sol\":741:1064  function getTokenBalanceOf(address[] memory userAddresses) public view returns(uint256) {\r... */\n    tag_3:\n      tag_5\n      tag_6\n      calldatasize\n      0x04\n      tag_7\n      jump\t// in\n    tag_6:\n      tag_8\n      jump\t// in\n    tag_5:\n      mload(0x40)\n        /* \"#utility.yul\":4088:4113   */\n      swap1\n      dup2\n      mstore\n        /* \"#utility.yul\":4076:4078   */\n      0x20\n        /* \"#utility.yul\":4061:4079   */\n      add\n        /* \"contracts/Multichain.sol\":741:1064  function getTokenBalanceOf(address[] memory userAddresses) public view returns(uint256) {\r... */\n    tag_9:\n      mload(0x40)\n      dup1\n      swap2\n      sub\n      swap1\n      return\n        /* \"contracts/Multichain.sol\":1072:1772  function GetStakedBalance(uint32[] memory vestingDays, address[] memory userAddresses) public view returns(Stake[] memory) {\r... */\n    tag_4:\n      tag_11\n      tag_12\n      calldatasize\n      0x04\n      tag_13\n      jump\t// in\n    tag_12:\n      tag_14\n      jump\t// in\n    tag_11:\n      mload(0x40)\n      tag_9\n      swap2\n      swap1\n      tag_16\n      jump\t// in\n        /* \"contracts/Multichain.sol\":741:1064  function getTokenBalanceOf(address[] memory userAddresses) public view returns(uint256) {\r... */\n    tag_8:\n        /* \"contracts/Multichain.sol\":820:827  uint256 */\n      0x00\n      dup1\n      dup1\n        /* \"contracts/Multichain.sol\":875:1027  for (uint i = 0; i < userAddresses.length; i++) \r... */\n    tag_18:\n        /* \"contracts/Multichain.sol\":896:909  userAddresses */\n      dup4\n        /* \"contracts/Multichain.sol\":896:916  userAddresses.length */\n      mload\n        /* \"contracts/Multichain.sol\":892:893  i */\n      dup2\n        /* \"contracts/Multichain.sol\":892:916  i < userAddresses.length */\n      lt\n        /* \"contracts/Multichain.sol\":875:1027  for (uint i = 0; i < userAddresses.length; i++) \r... */\n      iszero\n      tag_19\n      jumpi\n        /* \"contracts/Multichain.sol\":980:986  _token */\n      sload(0x00)\n        /* \"contracts/Multichain.sol\":997:1013  userAddresses[i] */\n      dup5\n      mload\n        /* \"contracts/Multichain.sol\":963:1015  tokenBalance.add(_token.balanceOf(userAddresses[i])) */\n      tag_21\n      swap2\n      sub(shl(0xa0, 0x01), 0x01)\n        /* \"contracts/Multichain.sol\":980:986  _token */\n      and\n      swap1\n        /* \"contracts/Multichain.sol\":980:996  _token.balanceOf */\n      0x70a08231\n      swap1\n        /* \"contracts/Multichain.sol\":997:1010  userAddresses */\n      dup8\n      swap1\n        /* \"contracts/Multichain.sol\":1011:1012  i */\n      dup6\n      swap1\n        /* \"contracts/Multichain.sol\":997:1013  userAddresses[i] */\n      dup2\n      lt\n      tag_23\n      jumpi\n      tag_23\n      tag_24\n      jump\t// in\n    tag_23:\n      0x20\n      mul\n      0x20\n      add\n      add\n      mload\n        /* \"contracts/Multichain.sol\":980:1014  _token.balanceOf(userAddresses[i]) */\n      mload(0x40)\n      dup3\n      0xffffffff\n      and\n      0xe0\n      shl\n      dup2\n      mstore\n      0x04\n      add\n      tag_25\n      swap2\n      swap1\n      sub(shl(0xa0, 0x01), 0x01)\n        /* \"#utility.yul\":2799:2831   */\n      swap2\n      swap1\n      swap2\n      and\n        /* \"#utility.yul\":2781:2832   */\n      dup2\n      mstore\n        /* \"#utility.yul\":2769:2771   */\n      0x20\n        /* \"#utility.yul\":2754:2772   */\n      add\n      swap1\n        /* \"#utility.yul\":2635:2838   */\n      jump\n        /* \"contracts/Multichain.sol\":980:1014  _token.balanceOf(userAddresses[i]) */\n    tag_25:\n      0x20\n      mload(0x40)\n      dup1\n      dup4\n      sub\n      dup2\n      dup7\n      dup1\n      extcodesize\n      iszero\n      dup1\n      iszero\n      tag_27\n      jumpi\n      0x00\n      dup1\n      revert\n    tag_27:\n      pop\n      gas\n      staticcall\n      iszero\n      dup1\n      iszero\n      tag_29\n      jumpi\n      returndatasize\n      0x00\n      dup1\n      returndatacopy\n      revert(0x00, returndatasize)\n    tag_29:\n      pop\n      pop\n      pop\n      pop\n      mload(0x40)\n      returndatasize\n      not(0x1f)\n      0x1f\n      dup3\n      add\n      and\n      dup3\n      add\n      dup1\n      0x40\n      mstore\n      pop\n      dup2\n      add\n      swap1\n      tag_30\n      swap2\n      swap1\n      tag_31\n      jump\t// in\n    tag_30:\n        /* \"contracts/Multichain.sol\":963:975  tokenBalance */\n      dup4\n      swap1\n        /* \"contracts/Multichain.sol\":963:979  tokenBalance.add */\n      tag_32\n        /* \"contracts/Multichain.sol\":963:1015  tokenBalance.add(_token.balanceOf(userAddresses[i])) */\n      jump\t// in\n    tag_21:\n        /* \"contracts/Multichain.sol\":948:1015  tokenBalance = tokenBalance.add(_token.balanceOf(userAddresses[i])) */\n      swap2\n      pop\n        /* \"contracts/Multichain.sol\":918:921  i++ */\n      dup1\n      tag_33\n      dup2\n      tag_34\n      jump\t// in\n    tag_33:\n      swap2\n      pop\n      pop\n        /* \"contracts/Multichain.sol\":875:1027  for (uint i = 0; i < userAddresses.length; i++) \r... */\n      jump(tag_18)\n    tag_19:\n      pop\n        /* \"contracts/Multichain.sol\":1044:1056  tokenBalance */\n      swap3\n        /* \"contracts/Multichain.sol\":741:1064  function getTokenBalanceOf(address[] memory userAddresses) public view returns(uint256) {\r... */\n      swap2\n      pop\n      pop\n      jump\t// out\n        /* \"contracts/Multichain.sol\":1072:1772  function GetStakedBalance(uint32[] memory vestingDays, address[] memory userAddresses) public view returns(Stake[] memory) {\r... */\n    tag_14:\n        /* \"contracts/Multichain.sol\":1179:1193  Stake[] memory */\n      0x60\n        /* \"contracts/Multichain.sol\":1206:1227  Stake[] memory stakes */\n      0x00\n        /* \"contracts/Multichain.sol\":1242:1253  vestingDays */\n      dup4\n        /* \"contracts/Multichain.sol\":1242:1260  vestingDays.length */\n      mload\n        /* \"contracts/Multichain.sol\":1230:1261  new Stake[](vestingDays.length) */\n      0xffffffffffffffff\n      dup2\n      gt\n      iszero\n      tag_37\n      jumpi\n      tag_37\n      tag_38\n      jump\t// in\n    tag_37:\n      mload(0x40)\n      swap1\n      dup1\n      dup3\n      mstore\n      dup1\n      0x20\n      mul\n      0x20\n      add\n      dup3\n      add\n      0x40\n      mstore\n      dup1\n      iszero\n      tag_39\n      jumpi\n      dup2\n      0x20\n      add\n    tag_40:\n      0x40\n      dup1\n      mload\n      dup1\n      dup3\n      add\n      swap1\n      swap2\n      mstore\n      0x00\n      dup1\n      dup3\n      mstore\n      0x20\n      dup3\n      add\n      mstore\n      dup2\n      mstore\n      0x20\n      add\n      swap1\n      0x01\n      swap1\n      sub\n      swap1\n      dup2\n      tag_40\n      jumpi\n      swap1\n      pop\n    tag_39:\n      pop\n        /* \"contracts/Multichain.sol\":1206:1261  Stake[] memory stakes = new Stake[](vestingDays.length) */\n      swap1\n      pop\n        /* \"contracts/Multichain.sol\":1277:1283  uint i */\n      0x00\n        /* \"contracts/Multichain.sol\":1272:1434  for (uint i = 0; i < vestingDays.length; i++) \r... */\n    tag_43:\n        /* \"contracts/Multichain.sol\":1293:1304  vestingDays */\n      dup5\n        /* \"contracts/Multichain.sol\":1293:1311  vestingDays.length */\n      mload\n        /* \"contracts/Multichain.sol\":1289:1290  i */\n      dup2\n        /* \"contracts/Multichain.sol\":1289:1311  i < vestingDays.length */\n      lt\n        /* \"contracts/Multichain.sol\":1272:1434  for (uint i = 0; i < vestingDays.length; i++) \r... */\n      iszero\n      tag_44\n      jumpi\n        /* \"contracts/Multichain.sol\":1367:1378  vestingDays */\n      dup5\n        /* \"contracts/Multichain.sol\":1379:1380  i */\n      dup2\n        /* \"contracts/Multichain.sol\":1367:1381  vestingDays[i] */\n      dup2\n      mload\n      dup2\n      lt\n      tag_47\n      jumpi\n      tag_47\n      tag_24\n      jump\t// in\n    tag_47:\n      0x20\n      mul\n      0x20\n      add\n      add\n      mload\n        /* \"contracts/Multichain.sol\":1343:1349  stakes */\n      dup3\n        /* \"contracts/Multichain.sol\":1350:1351  i */\n      dup3\n        /* \"contracts/Multichain.sol\":1343:1352  stakes[i] */\n      dup2\n      mload\n      dup2\n      lt\n      tag_49\n      jumpi\n      tag_49\n      tag_24\n      jump\t// in\n    tag_49:\n      0x20\n      mul\n      0x20\n      add\n      add\n      mload\n        /* \"contracts/Multichain.sol\":1343:1364  stakes[i].VestingDays */\n      0x00\n      add\n        /* \"contracts/Multichain.sol\":1343:1381  stakes[i].VestingDays = vestingDays[i] */\n      swap1\n      0xffffffff\n      and\n      swap1\n      dup2\n      0xffffffff\n      and\n      dup2\n      mstore\n      pop\n      pop\n        /* \"contracts/Multichain.sol\":1421:1422  0 */\n      0x00\n        /* \"contracts/Multichain.sol\":1396:1402  stakes */\n      dup3\n        /* \"contracts/Multichain.sol\":1403:1404  i */\n      dup3\n        /* \"contracts/Multichain.sol\":1396:1405  stakes[i] */\n      dup2\n      mload\n      dup2\n      lt\n      tag_51\n      jumpi\n      tag_51\n      tag_24\n      jump\t// in\n    tag_51:\n      0x20\n      swap1\n      dup2\n      mul\n      swap2\n      swap1\n      swap2\n      add\n      dup2\n      add\n      mload\n        /* \"contracts/Multichain.sol\":1396:1418  stakes[i].TokenBalance */\n      add\n        /* \"contracts/Multichain.sol\":1396:1422  stakes[i].TokenBalance = 0 */\n      mstore\n        /* \"contracts/Multichain.sol\":1313:1316  i++ */\n      dup1\n      tag_52\n      dup2\n      tag_34\n      jump\t// in\n    tag_52:\n      swap2\n      pop\n      pop\n        /* \"contracts/Multichain.sol\":1272:1434  for (uint i = 0; i < vestingDays.length; i++) \r... */\n      jump(tag_43)\n    tag_44:\n      pop\n        /* \"contracts/Multichain.sol\":1449:1455  uint i */\n      0x00\n        /* \"contracts/Multichain.sol\":1444:1741  for (uint i = 0; i < userAddresses.length; i++) \r... */\n    tag_53:\n        /* \"contracts/Multichain.sol\":1465:1478  userAddresses */\n      dup4\n        /* \"contracts/Multichain.sol\":1465:1485  userAddresses.length */\n      mload\n        /* \"contracts/Multichain.sol\":1461:1462  i */\n      dup2\n        /* \"contracts/Multichain.sol\":1461:1485  i < userAddresses.length */\n      lt\n        /* \"contracts/Multichain.sol\":1444:1741  for (uint i = 0; i < userAddresses.length; i++) \r... */\n      iszero\n      tag_54\n      jumpi\n        /* \"contracts/Multichain.sol\":1522:1528  uint z */\n      0x00\n        /* \"contracts/Multichain.sol\":1517:1730  for (uint z = 0; z < vestingDays.length; z++) \r... */\n    tag_56:\n        /* \"contracts/Multichain.sol\":1538:1549  vestingDays */\n      dup6\n        /* \"contracts/Multichain.sol\":1538:1556  vestingDays.length */\n      mload\n        /* \"contracts/Multichain.sol\":1534:1535  z */\n      dup2\n        /* \"contracts/Multichain.sol\":1534:1556  z < vestingDays.length */\n      lt\n        /* \"contracts/Multichain.sol\":1517:1730  for (uint z = 0; z < vestingDays.length; z++) \r... */\n      iszero\n      tag_57\n      jumpi\n        /* \"contracts/Multichain.sol\":1648:1666  _masterEntertainer */\n      sload(0x01)\n        /* \"contracts/Multichain.sol\":1680:1696  userAddresses[i] */\n      dup6\n      mload\n        /* \"contracts/Multichain.sol\":1621:1714  stakes[z].TokenBalance.add(_masterEntertainer.getBalanceOf(userAddresses[i], vestingDays[z])) */\n      tag_59\n      swap2\n      sub(shl(0xa0, 0x01), 0x01)\n        /* \"contracts/Multichain.sol\":1648:1666  _masterEntertainer */\n      and\n      swap1\n        /* \"contracts/Multichain.sol\":1648:1679  _masterEntertainer.getBalanceOf */\n      0x94d45b59\n      swap1\n        /* \"contracts/Multichain.sol\":1680:1693  userAddresses */\n      dup9\n      swap1\n        /* \"contracts/Multichain.sol\":1694:1695  i */\n      dup7\n      swap1\n        /* \"contracts/Multichain.sol\":1680:1696  userAddresses[i] */\n      dup2\n      lt\n      tag_61\n      jumpi\n      tag_61\n      tag_24\n      jump\t// in\n    tag_61:\n      0x20\n      mul\n      0x20\n      add\n      add\n      mload\n        /* \"contracts/Multichain.sol\":1698:1709  vestingDays */\n      dup10\n        /* \"contracts/Multichain.sol\":1710:1711  z */\n      dup6\n        /* \"contracts/Multichain.sol\":1698:1712  vestingDays[z] */\n      dup2\n      mload\n      dup2\n      lt\n      tag_63\n      jumpi\n      tag_63\n      tag_24\n      jump\t// in\n    tag_63:\n      0x20\n      mul\n      0x20\n      add\n      add\n      mload\n        /* \"contracts/Multichain.sol\":1648:1713  _masterEntertainer.getBalanceOf(userAddresses[i], vestingDays[z]) */\n      mload(0x40)\n      dup4\n      0xffffffff\n      and\n      0xe0\n      shl\n      dup2\n      mstore\n      0x04\n      add\n      tag_64\n      swap3\n      swap2\n      swap1\n      sub(shl(0xa0, 0x01), 0x01)\n        /* \"#utility.yul\":3034:3066   */\n      swap3\n      swap1\n      swap3\n      and\n        /* \"#utility.yul\":3016:3067   */\n      dup3\n      mstore\n        /* \"#utility.yul\":3115:3125   */\n      0xffffffff\n        /* \"#utility.yul\":3103:3126   */\n      and\n        /* \"#utility.yul\":3098:3100   */\n      0x20\n        /* \"#utility.yul\":3083:3101   */\n      dup3\n      add\n        /* \"#utility.yul\":3076:3127   */\n      mstore\n        /* \"#utility.yul\":3004:3006   */\n      0x40\n        /* \"#utility.yul\":2989:3007   */\n      add\n      swap1\n        /* \"#utility.yul\":2843:3133   */\n      jump\n        /* \"contracts/Multichain.sol\":1648:1713  _masterEntertainer.getBalanceOf(userAddresses[i], vestingDays[z]) */\n    tag_64:\n      0x20\n      mload(0x40)\n      dup1\n      dup4\n      sub\n      dup2\n      dup7\n      dup1\n      extcodesize\n      iszero\n      dup1\n      iszero\n      tag_66\n      jumpi\n      0x00\n      dup1\n      revert\n    tag_66:\n      pop\n      gas\n      staticcall\n      iszero\n      dup1\n      iszero\n      tag_68\n      jumpi\n      returndatasize\n      0x00\n      dup1\n      returndatacopy\n      revert(0x00, returndatasize)\n    tag_68:\n      pop\n      pop\n      pop\n      pop\n      mload(0x40)\n      returndatasize\n      not(0x1f)\n      0x1f\n      dup3\n      add\n      and\n      dup3\n      add\n      dup1\n      0x40\n      mstore\n      pop\n      dup2\n      add\n      swap1\n      tag_69\n      swap2\n      swap1\n      tag_31\n      jump\t// in\n    tag_69:\n        /* \"contracts/Multichain.sol\":1621:1627  stakes */\n      dup5\n        /* \"contracts/Multichain.sol\":1628:1629  z */\n      dup4\n        /* \"contracts/Multichain.sol\":1621:1630  stakes[z] */\n      dup2\n      mload\n      dup2\n      lt\n      tag_71\n      jumpi\n      tag_71\n      tag_24\n      jump\t// in\n    tag_71:\n      0x20\n      mul\n      0x20\n      add\n      add\n      mload\n        /* \"contracts/Multichain.sol\":1621:1643  stakes[z].TokenBalance */\n      0x20\n      add\n      mload\n        /* \"contracts/Multichain.sol\":1621:1647  stakes[z].TokenBalance.add */\n      tag_32\n      swap1\n        /* \"contracts/Multichain.sol\":1621:1714  stakes[z].TokenBalance.add(_masterEntertainer.getBalanceOf(userAddresses[i], vestingDays[z])) */\n      swap2\n      swap1\n      0xffffffff\n      and\n      jump\t// in\n    tag_59:\n        /* \"contracts/Multichain.sol\":1596:1602  stakes */\n      dup4\n        /* \"contracts/Multichain.sol\":1603:1604  z */\n      dup3\n        /* \"contracts/Multichain.sol\":1596:1605  stakes[z] */\n      dup2\n      mload\n      dup2\n      lt\n      tag_73\n      jumpi\n      tag_73\n      tag_24\n      jump\t// in\n    tag_73:\n      0x20\n      swap1\n      dup2\n      mul\n      swap2\n      swap1\n      swap2\n      add\n      dup2\n      add\n      mload\n        /* \"contracts/Multichain.sol\":1596:1618  stakes[z].TokenBalance */\n      add\n        /* \"contracts/Multichain.sol\":1596:1714  stakes[z].TokenBalance = stakes[z].TokenBalance.add(_masterEntertainer.getBalanceOf(userAddresses[i], vestingDays[z])) */\n      mstore\n        /* \"contracts/Multichain.sol\":1558:1561  z++ */\n      dup1\n      tag_74\n      dup2\n      tag_34\n      jump\t// in\n    tag_74:\n      swap2\n      pop\n      pop\n        /* \"contracts/Multichain.sol\":1517:1730  for (uint z = 0; z < vestingDays.length; z++) \r... */\n      jump(tag_56)\n    tag_57:\n      pop\n        /* \"contracts/Multichain.sol\":1487:1490  i++ */\n      dup1\n      tag_75\n      dup2\n      tag_34\n      jump\t// in\n    tag_75:\n      swap2\n      pop\n      pop\n        /* \"contracts/Multichain.sol\":1444:1741  for (uint i = 0; i < userAddresses.length; i++) \r... */\n      jump(tag_53)\n    tag_54:\n      pop\n        /* \"contracts/Multichain.sol\":1758:1764  stakes */\n      swap4\n        /* \"contracts/Multichain.sol\":1072:1772  function GetStakedBalance(uint32[] memory vestingDays, address[] memory userAddresses) public view returns(Stake[] memory) {\r... */\n      swap3\n      pop\n      pop\n      pop\n      jump\t// out\n        /* \"@openzeppelin/contracts/utils/math/SafeMath.sol\":2672:2768  function add(uint256 a, uint256 b) internal pure returns (uint256) {... */\n    tag_32:\n        /* \"@openzeppelin/contracts/utils/math/SafeMath.sol\":2730:2737  uint256 */\n      0x00\n        /* \"@openzeppelin/contracts/utils/math/SafeMath.sol\":2756:2761  a + b */\n      tag_77\n        /* \"@openzeppelin/contracts/utils/math/SafeMath.sol\":2760:2761  b */\n      dup3\n        /* \"@openzeppelin/contracts/utils/math/SafeMath.sol\":2756:2757  a */\n      dup5\n        /* \"@openzeppelin/contracts/utils/math/SafeMath.sol\":2756:2761  a + b */\n      tag_78\n      jump\t// in\n    tag_77:\n        /* \"@openzeppelin/contracts/utils/math/SafeMath.sol\":2749:2761  return a + b */\n      swap4\n        /* \"@openzeppelin/contracts/utils/math/SafeMath.sol\":2672:2768  function add(uint256 a, uint256 b) internal pure returns (uint256) {... */\n      swap3\n      pop\n      pop\n      pop\n      jump\t// out\n        /* \"#utility.yul\":14:828   */\n    tag_80:\n        /* \"#utility.yul\":68:73   */\n      0x00\n        /* \"#utility.yul\":121:124   */\n      dup3\n        /* \"#utility.yul\":114:118   */\n      0x1f\n        /* \"#utility.yul\":106:112   */\n      dup4\n        /* \"#utility.yul\":102:119   */\n      add\n        /* \"#utility.yul\":98:125   */\n      slt\n        /* \"#utility.yul\":88:143   */\n      tag_82\n      jumpi\n        /* \"#utility.yul\":139:140   */\n      0x00\n        /* \"#utility.yul\":136:137   */\n      dup1\n        /* \"#utility.yul\":129:141   */\n      revert\n        /* \"#utility.yul\":88:143   */\n    tag_82:\n        /* \"#utility.yul\":175:181   */\n      dup2\n        /* \"#utility.yul\":162:182   */\n      calldataload\n        /* \"#utility.yul\":201:205   */\n      0x20\n        /* \"#utility.yul\":225:285   */\n      tag_83\n        /* \"#utility.yul\":241:284   */\n      tag_84\n        /* \"#utility.yul\":281:283   */\n      dup4\n        /* \"#utility.yul\":241:284   */\n      tag_85\n      jump\t// in\n    tag_84:\n        /* \"#utility.yul\":225:285   */\n      tag_86\n      jump\t// in\n    tag_83:\n        /* \"#utility.yul\":307:310   */\n      dup1\n        /* \"#utility.yul\":331:333   */\n      dup4\n        /* \"#utility.yul\":326:329   */\n      dup3\n        /* \"#utility.yul\":319:334   */\n      mstore\n        /* \"#utility.yul\":359:361   */\n      dup3\n        /* \"#utility.yul\":354:357   */\n      dup3\n        /* \"#utility.yul\":350:362   */\n      add\n        /* \"#utility.yul\":343:362   */\n      swap2\n      pop\n        /* \"#utility.yul\":394:396   */\n      dup3\n        /* \"#utility.yul\":386:392   */\n      dup7\n        /* \"#utility.yul\":382:397   */\n      add\n        /* \"#utility.yul\":446:449   */\n      dup8\n        /* \"#utility.yul\":441:443   */\n      dup5\n        /* \"#utility.yul\":435:437   */\n      dup7\n        /* \"#utility.yul\":432:433   */\n      0x05\n        /* \"#utility.yul\":428:438   */\n      shl\n        /* \"#utility.yul\":420:426   */\n      dup10\n        /* \"#utility.yul\":416:439   */\n      add\n        /* \"#utility.yul\":412:444   */\n      add\n        /* \"#utility.yul\":409:450   */\n      gt\n        /* \"#utility.yul\":406:467   */\n      iszero\n      tag_87\n      jumpi\n        /* \"#utility.yul\":463:464   */\n      0x00\n        /* \"#utility.yul\":460:461   */\n      dup1\n        /* \"#utility.yul\":453:465   */\n      revert\n        /* \"#utility.yul\":406:467   */\n    tag_87:\n        /* \"#utility.yul\":485:486   */\n      0x00\n        /* \"#utility.yul\":506:507   */\n      dup1\n        /* \"#utility.yul\":516:799   */\n    tag_88:\n        /* \"#utility.yul\":532:534   */\n      dup7\n        /* \"#utility.yul\":527:530   */\n      dup2\n        /* \"#utility.yul\":524:535   */\n      lt\n        /* \"#utility.yul\":516:799   */\n      iszero\n      tag_90\n      jumpi\n        /* \"#utility.yul\":594:611   */\n      dup3\n      calldataload\n      sub(shl(0xa0, 0x01), 0x01)\n        /* \"#utility.yul\":644:675   */\n      dup2\n      and\n        /* \"#utility.yul\":634:676   */\n      dup2\n      eq\n        /* \"#utility.yul\":624:694   */\n      tag_91\n      jumpi\n        /* \"#utility.yul\":690:691   */\n      dup3\n        /* \"#utility.yul\":687:688   */\n      dup4\n        /* \"#utility.yul\":680:692   */\n      revert\n        /* \"#utility.yul\":624:694   */\n    tag_91:\n        /* \"#utility.yul\":707:725   */\n      dup6\n      mstore\n        /* \"#utility.yul\":745:757   */\n      swap4\n      dup6\n      add\n      swap4\n        /* \"#utility.yul\":777:789   */\n      swap2\n      dup6\n      add\n      swap2\n        /* \"#utility.yul\":554:555   */\n      0x01\n        /* \"#utility.yul\":545:556   */\n      add\n        /* \"#utility.yul\":516:799   */\n      jump(tag_88)\n    tag_90:\n      pop\n        /* \"#utility.yul\":817:822   */\n      swap2\n      swap9\n        /* \"#utility.yul\":14:828   */\n      swap8\n      pop\n      pop\n      pop\n      pop\n      pop\n      pop\n      pop\n      pop\n      jump\t// out\n        /* \"#utility.yul\":833:1181   */\n    tag_7:\n        /* \"#utility.yul\":917:923   */\n      0x00\n        /* \"#utility.yul\":970:972   */\n      0x20\n        /* \"#utility.yul\":958:967   */\n      dup3\n        /* \"#utility.yul\":949:956   */\n      dup5\n        /* \"#utility.yul\":945:968   */\n      sub\n        /* \"#utility.yul\":941:973   */\n      slt\n        /* \"#utility.yul\":938:990   */\n      iszero\n      tag_93\n      jumpi\n        /* \"#utility.yul\":986:987   */\n      0x00\n        /* \"#utility.yul\":983:984   */\n      dup1\n        /* \"#utility.yul\":976:988   */\n      revert\n        /* \"#utility.yul\":938:990   */\n    tag_93:\n        /* \"#utility.yul\":1026:1035   */\n      dup2\n        /* \"#utility.yul\":1013:1036   */\n      calldataload\n        /* \"#utility.yul\":1059:1077   */\n      0xffffffffffffffff\n        /* \"#utility.yul\":1051:1057   */\n      dup2\n        /* \"#utility.yul\":1048:1078   */\n      gt\n        /* \"#utility.yul\":1045:1095   */\n      iszero\n      tag_94\n      jumpi\n        /* \"#utility.yul\":1091:1092   */\n      0x00\n        /* \"#utility.yul\":1088:1089   */\n      dup1\n        /* \"#utility.yul\":1081:1093   */\n      revert\n        /* \"#utility.yul\":1045:1095   */\n    tag_94:\n        /* \"#utility.yul\":1114:1175   */\n      tag_95\n        /* \"#utility.yul\":1167:1174   */\n      dup5\n        /* \"#utility.yul\":1158:1164   */\n      dup3\n        /* \"#utility.yul\":1147:1156   */\n      dup6\n        /* \"#utility.yul\":1143:1165   */\n      add\n        /* \"#utility.yul\":1114:1175   */\n      tag_80\n      jump\t// in\n    tag_95:\n        /* \"#utility.yul\":1104:1175   */\n      swap5\n        /* \"#utility.yul\":833:1181   */\n      swap4\n      pop\n      pop\n      pop\n      pop\n      jump\t// out\n        /* \"#utility.yul\":1186:2441   */\n    tag_13:\n        /* \"#utility.yul\":1303:1309   */\n      0x00\n        /* \"#utility.yul\":1311:1317   */\n      dup1\n        /* \"#utility.yul\":1364:1366   */\n      0x40\n        /* \"#utility.yul\":1352:1361   */\n      dup4\n        /* \"#utility.yul\":1343:1350   */\n      dup6\n        /* \"#utility.yul\":1339:1362   */\n      sub\n        /* \"#utility.yul\":1335:1367   */\n      slt\n        /* \"#utility.yul\":1332:1384   */\n      iszero\n      tag_97\n      jumpi\n        /* \"#utility.yul\":1380:1381   */\n      0x00\n        /* \"#utility.yul\":1377:1378   */\n      dup1\n        /* \"#utility.yul\":1370:1382   */\n      revert\n        /* \"#utility.yul\":1332:1384   */\n    tag_97:\n        /* \"#utility.yul\":1420:1429   */\n      dup3\n        /* \"#utility.yul\":1407:1430   */\n      calldataload\n        /* \"#utility.yul\":1449:1467   */\n      0xffffffffffffffff\n        /* \"#utility.yul\":1490:1492   */\n      dup1\n        /* \"#utility.yul\":1482:1488   */\n      dup3\n        /* \"#utility.yul\":1479:1493   */\n      gt\n        /* \"#utility.yul\":1476:1510   */\n      iszero\n      tag_98\n      jumpi\n        /* \"#utility.yul\":1506:1507   */\n      0x00\n        /* \"#utility.yul\":1503:1504   */\n      dup1\n        /* \"#utility.yul\":1496:1508   */\n      revert\n        /* \"#utility.yul\":1476:1510   */\n    tag_98:\n        /* \"#utility.yul\":1544:1550   */\n      dup2\n        /* \"#utility.yul\":1533:1542   */\n      dup6\n        /* \"#utility.yul\":1529:1551   */\n      add\n        /* \"#utility.yul\":1519:1551   */\n      swap2\n      pop\n        /* \"#utility.yul\":1589:1596   */\n      dup6\n        /* \"#utility.yul\":1582:1586   */\n      0x1f\n        /* \"#utility.yul\":1578:1580   */\n      dup4\n        /* \"#utility.yul\":1574:1587   */\n      add\n        /* \"#utility.yul\":1570:1597   */\n      slt\n        /* \"#utility.yul\":1560:1615   */\n      tag_99\n      jumpi\n        /* \"#utility.yul\":1611:1612   */\n      0x00\n        /* \"#utility.yul\":1608:1609   */\n      dup1\n        /* \"#utility.yul\":1601:1613   */\n      revert\n        /* \"#utility.yul\":1560:1615   */\n    tag_99:\n        /* \"#utility.yul\":1647:1649   */\n      dup2\n        /* \"#utility.yul\":1634:1650   */\n      calldataload\n        /* \"#utility.yul\":1669:1673   */\n      0x20\n        /* \"#utility.yul\":1693:1753   */\n      tag_100\n        /* \"#utility.yul\":1709:1752   */\n      tag_84\n        /* \"#utility.yul\":1749:1751   */\n      dup4\n        /* \"#utility.yul\":1709:1752   */\n      tag_85\n      jump\t// in\n        /* \"#utility.yul\":1693:1753   */\n    tag_100:\n        /* \"#utility.yul\":1775:1778   */\n      dup1\n        /* \"#utility.yul\":1799:1801   */\n      dup4\n        /* \"#utility.yul\":1794:1797   */\n      dup3\n        /* \"#utility.yul\":1787:1802   */\n      mstore\n        /* \"#utility.yul\":1827:1829   */\n      dup3\n        /* \"#utility.yul\":1822:1825   */\n      dup3\n        /* \"#utility.yul\":1818:1830   */\n      add\n        /* \"#utility.yul\":1811:1830   */\n      swap2\n      pop\n        /* \"#utility.yul\":1858:1860   */\n      dup3\n        /* \"#utility.yul\":1854:1856   */\n      dup7\n        /* \"#utility.yul\":1850:1861   */\n      add\n        /* \"#utility.yul\":1906:1913   */\n      dup11\n        /* \"#utility.yul\":1901:1903   */\n      dup5\n        /* \"#utility.yul\":1895:1897   */\n      dup7\n        /* \"#utility.yul\":1892:1893   */\n      0x05\n        /* \"#utility.yul\":1888:1898   */\n      shl\n        /* \"#utility.yul\":1884:1886   */\n      dup10\n        /* \"#utility.yul\":1880:1899   */\n      add\n        /* \"#utility.yul\":1876:1904   */\n      add\n        /* \"#utility.yul\":1873:1914   */\n      gt\n        /* \"#utility.yul\":1870:1931   */\n      iszero\n      tag_102\n      jumpi\n        /* \"#utility.yul\":1927:1928   */\n      0x00\n        /* \"#utility.yul\":1924:1925   */\n      dup1\n        /* \"#utility.yul\":1917:1929   */\n      revert\n        /* \"#utility.yul\":1870:1931   */\n    tag_102:\n        /* \"#utility.yul\":1949:1950   */\n      0x00\n        /* \"#utility.yul\":1940:1950   */\n      swap7\n      pop\n        /* \"#utility.yul\":1959:2227   */\n    tag_103:\n        /* \"#utility.yul\":1973:1975   */\n      dup5\n        /* \"#utility.yul\":1970:1971   */\n      dup8\n        /* \"#utility.yul\":1967:1976   */\n      lt\n        /* \"#utility.yul\":1959:2227   */\n      iszero\n      tag_105\n      jumpi\n        /* \"#utility.yul\":2044:2047   */\n      dup1\n        /* \"#utility.yul\":2031:2048   */\n      calldataload\n        /* \"#utility.yul\":2092:2102   */\n      0xffffffff\n        /* \"#utility.yul\":2085:2090   */\n      dup2\n        /* \"#utility.yul\":2081:2103   */\n      and\n        /* \"#utility.yul\":2074:2079   */\n      dup2\n        /* \"#utility.yul\":2071:2104   */\n      eq\n        /* \"#utility.yul\":2061:2122   */\n      tag_106\n      jumpi\n        /* \"#utility.yul\":2118:2119   */\n      0x00\n        /* \"#utility.yul\":2115:2116   */\n      dup1\n        /* \"#utility.yul\":2108:2120   */\n      revert\n        /* \"#utility.yul\":2061:2122   */\n    tag_106:\n        /* \"#utility.yul\":2135:2153   */\n      dup4\n      mstore\n        /* \"#utility.yul\":1991:1992   */\n      0x01\n        /* \"#utility.yul\":1984:1993   */\n      swap7\n      swap1\n      swap7\n      add\n      swap6\n        /* \"#utility.yul\":2173:2185   */\n      swap2\n      dup4\n      add\n      swap2\n        /* \"#utility.yul\":2205:2217   */\n      dup4\n      add\n        /* \"#utility.yul\":1959:2227   */\n      jump(tag_103)\n    tag_105:\n      pop\n        /* \"#utility.yul\":2246:2251   */\n      swap7\n      pop\n      pop\n        /* \"#utility.yul\":2289:2307   */\n      dup7\n      add\n        /* \"#utility.yul\":2276:2308   */\n      calldataload\n      swap3\n      pop\n      pop\n        /* \"#utility.yul\":2320:2336   */\n      dup1\n      dup3\n      gt\n        /* \"#utility.yul\":2317:2353   */\n      iszero\n      tag_107\n      jumpi\n        /* \"#utility.yul\":2349:2350   */\n      0x00\n        /* \"#utility.yul\":2346:2347   */\n      dup1\n        /* \"#utility.yul\":2339:2351   */\n      revert\n        /* \"#utility.yul\":2317:2353   */\n    tag_107:\n      pop\n        /* \"#utility.yul\":2372:2435   */\n      tag_108\n        /* \"#utility.yul\":2427:2434   */\n      dup6\n        /* \"#utility.yul\":2416:2424   */\n      dup3\n        /* \"#utility.yul\":2405:2414   */\n      dup7\n        /* \"#utility.yul\":2401:2425   */\n      add\n        /* \"#utility.yul\":2372:2435   */\n      tag_80\n      jump\t// in\n    tag_108:\n        /* \"#utility.yul\":2362:2435   */\n      swap2\n      pop\n      pop\n        /* \"#utility.yul\":1186:2441   */\n      swap3\n      pop\n      swap3\n      swap1\n      pop\n      jump\t// out\n        /* \"#utility.yul\":2446:2630   */\n    tag_31:\n        /* \"#utility.yul\":2516:2522   */\n      0x00\n        /* \"#utility.yul\":2569:2571   */\n      0x20\n        /* \"#utility.yul\":2557:2566   */\n      dup3\n        /* \"#utility.yul\":2548:2555   */\n      dup5\n        /* \"#utility.yul\":2544:2567   */\n      sub\n        /* \"#utility.yul\":2540:2572   */\n      slt\n        /* \"#utility.yul\":2537:2589   */\n      iszero\n      tag_110\n      jumpi\n        /* \"#utility.yul\":2585:2586   */\n      0x00\n        /* \"#utility.yul\":2582:2583   */\n      dup1\n        /* \"#utility.yul\":2575:2587   */\n      revert\n        /* \"#utility.yul\":2537:2589   */\n    tag_110:\n      pop\n        /* \"#utility.yul\":2608:2624   */\n      mload\n      swap2\n        /* \"#utility.yul\":2446:2630   */\n      swap1\n      pop\n      jump\t// out\n        /* \"#utility.yul\":3138:3937   */\n    tag_16:\n        /* \"#utility.yul\":3353:3355   */\n      0x20\n        /* \"#utility.yul\":3405:3426   */\n      dup1\n      dup3\n      mstore\n        /* \"#utility.yul\":3475:3488   */\n      dup3\n      mload\n        /* \"#utility.yul\":3378:3396   */\n      dup3\n      dup3\n      add\n        /* \"#utility.yul\":3497:3519   */\n      dup2\n      swap1\n      mstore\n        /* \"#utility.yul\":3324:3328   */\n      0x00\n      swap2\n        /* \"#utility.yul\":3353:3355   */\n      swap1\n        /* \"#utility.yul\":3538:3540   */\n      0x40\n      swap1\n        /* \"#utility.yul\":3556:3574   */\n      dup2\n      dup6\n      add\n      swap1\n        /* \"#utility.yul\":3597:3612   */\n      dup7\n      dup5\n      add\n        /* \"#utility.yul\":3324:3328   */\n      dup6\n        /* \"#utility.yul\":3640:3911   */\n    tag_114:\n        /* \"#utility.yul\":3654:3660   */\n      dup3\n        /* \"#utility.yul\":3651:3652   */\n      dup2\n        /* \"#utility.yul\":3648:3661   */\n      lt\n        /* \"#utility.yul\":3640:3911   */\n      iszero\n      tag_116\n      jumpi\n        /* \"#utility.yul\":3713:3726   */\n      dup2\n      mload\n        /* \"#utility.yul\":3755:3764   */\n      dup1\n      mload\n        /* \"#utility.yul\":3766:3776   */\n      0xffffffff\n        /* \"#utility.yul\":3751:3777   */\n      and\n        /* \"#utility.yul\":3739:3778   */\n      dup6\n      mstore\n        /* \"#utility.yul\":3818:3829   */\n      dup7\n      add\n        /* \"#utility.yul\":3812:3830   */\n      mload\n        /* \"#utility.yul\":3798:3810   */\n      dup7\n      dup6\n      add\n        /* \"#utility.yul\":3791:3831   */\n      mstore\n        /* \"#utility.yul\":3851:3863   */\n      swap3\n      dup5\n      add\n      swap3\n        /* \"#utility.yul\":3886:3901   */\n      swap1\n      dup6\n      add\n      swap1\n        /* \"#utility.yul\":3676:3677   */\n      0x01\n        /* \"#utility.yul\":3669:3678   */\n      add\n        /* \"#utility.yul\":3640:3911   */\n      jump(tag_114)\n    tag_116:\n      pop\n        /* \"#utility.yul\":3928:3931   */\n      swap2\n      swap8\n        /* \"#utility.yul\":3138:3937   */\n      swap7\n      pop\n      pop\n      pop\n      pop\n      pop\n      pop\n      pop\n      jump\t// out\n        /* \"#utility.yul\":4124:4399   */\n    tag_86:\n        /* \"#utility.yul\":4195:4197   */\n      0x40\n        /* \"#utility.yul\":4189:4198   */\n      mload\n        /* \"#utility.yul\":4260:4262   */\n      0x1f\n        /* \"#utility.yul\":4241:4254   */\n      dup3\n      add\n      not(0x1f)\n        /* \"#utility.yul\":4237:4264   */\n      and\n        /* \"#utility.yul\":4225:4265   */\n      dup2\n      add\n        /* \"#utility.yul\":4295:4313   */\n      0xffffffffffffffff\n        /* \"#utility.yul\":4280:4314   */\n      dup2\n      gt\n        /* \"#utility.yul\":4316:4338   */\n      dup3\n      dup3\n      lt\n        /* \"#utility.yul\":4277:4339   */\n      or\n        /* \"#utility.yul\":4274:4362   */\n      iszero\n      tag_120\n      jumpi\n        /* \"#utility.yul\":4342:4360   */\n      tag_120\n      tag_38\n      jump\t// in\n    tag_120:\n        /* \"#utility.yul\":4378:4380   */\n      0x40\n        /* \"#utility.yul\":4371:4393   */\n      mstore\n        /* \"#utility.yul\":4124:4399   */\n      swap2\n      swap1\n      pop\n      jump\t// out\n        /* \"#utility.yul\":4404:4587   */\n    tag_85:\n        /* \"#utility.yul\":4464:4468   */\n      0x00\n        /* \"#utility.yul\":4497:4515   */\n      0xffffffffffffffff\n        /* \"#utility.yul\":4489:4495   */\n      dup3\n        /* \"#utility.yul\":4486:4516   */\n      gt\n        /* \"#utility.yul\":4483:4539   */\n      iszero\n      tag_123\n      jumpi\n        /* \"#utility.yul\":4519:4537   */\n      tag_123\n      tag_38\n      jump\t// in\n    tag_123:\n      pop\n        /* \"#utility.yul\":4564:4565   */\n      0x05\n        /* \"#utility.yul\":4560:4574   */\n      shl\n        /* \"#utility.yul\":4576:4580   */\n      0x20\n        /* \"#utility.yul\":4556:4581   */\n      add\n      swap1\n        /* \"#utility.yul\":4404:4587   */\n      jump\t// out\n        /* \"#utility.yul\":4592:4720   */\n    tag_78:\n        /* \"#utility.yul\":4632:4635   */\n      0x00\n        /* \"#utility.yul\":4663:4664   */\n      dup3\n        /* \"#utility.yul\":4659:4665   */\n      not\n        /* \"#utility.yul\":4656:4657   */\n      dup3\n        /* \"#utility.yul\":4653:4666   */\n      gt\n        /* \"#utility.yul\":4650:4689   */\n      iszero\n      tag_126\n      jumpi\n        /* \"#utility.yul\":4669:4687   */\n      tag_126\n      tag_127\n      jump\t// in\n    tag_126:\n      pop\n        /* \"#utility.yul\":4705:4714   */\n      add\n      swap1\n        /* \"#utility.yul\":4592:4720   */\n      jump\t// out\n        /* \"#utility.yul\":4725:4860   */\n    tag_34:\n        /* \"#utility.yul\":4764:4767   */\n      0x00\n      not(0x00)\n        /* \"#utility.yul\":4785:4802   */\n      dup3\n      eq\n        /* \"#utility.yul\":4782:4825   */\n      iszero\n      tag_130\n      jumpi\n        /* \"#utility.yul\":4805:4823   */\n      tag_130\n      tag_127\n      jump\t// in\n    tag_130:\n      pop\n        /* \"#utility.yul\":4852:4853   */\n      0x01\n        /* \"#utility.yul\":4841:4854   */\n      add\n      swap1\n        /* \"#utility.yul\":4725:4860   */\n      jump\t// out\n        /* \"#utility.yul\":4865:4992   */\n    tag_127:\n        /* \"#utility.yul\":4926:4936   */\n      0x4e487b71\n        /* \"#utility.yul\":4921:4924   */\n      0xe0\n        /* \"#utility.yul\":4917:4937   */\n      shl\n        /* \"#utility.yul\":4914:4915   */\n      0x00\n        /* \"#utility.yul\":4907:4938   */\n      mstore\n        /* \"#utility.yul\":4957:4961   */\n      0x11\n        /* \"#utility.yul\":4954:4955   */\n      0x04\n        /* \"#utility.yul\":4947:4962   */\n      mstore\n        /* \"#utility.yul\":4981:4985   */\n      0x24\n        /* \"#utility.yul\":4978:4979   */\n      0x00\n        /* \"#utility.yul\":4971:4986   */\n      revert\n        /* \"#utility.yul\":4997:5124   */\n    tag_24:\n        /* \"#utility.yul\":5058:5068   */\n      0x4e487b71\n        /* \"#utility.yul\":5053:5056   */\n      0xe0\n        /* \"#utility.yul\":5049:5069   */\n      shl\n        /* \"#utility.yul\":5046:5047   */\n      0x00\n        /* \"#utility.yul\":5039:5070   */\n      mstore\n        /* \"#utility.yul\":5089:5093   */\n      0x32\n        /* \"#utility.yul\":5086:5087   */\n      0x04\n        /* \"#utility.yul\":5079:5094   */\n      mstore\n        /* \"#utility.yul\":5113:5117   */\n      0x24\n        /* \"#utility.yul\":5110:5111   */\n      0x00\n        /* \"#utility.yul\":5103:5118   */\n      revert\n        /* \"#utility.yul\":5129:5256   */\n    tag_38:\n        /* \"#utility.yul\":5190:5200   */\n      0x4e487b71\n        /* \"#utility.yul\":5185:5188   */\n      0xe0\n        /* \"#utility.yul\":5181:5201   */\n      shl\n        /* \"#utility.yul\":5178:5179   */\n      0x00\n        /* \"#utility.yul\":5171:5202   */\n      mstore\n        /* \"#utility.yul\":5221:5225   */\n      0x41\n        /* \"#utility.yul\":5218:5219   */\n      0x04\n        /* \"#utility.yul\":5211:5226   */\n      mstore\n        /* \"#utility.yul\":5245:5249   */\n      0x24\n        /* \"#utility.yul\":5242:5243   */\n      0x00\n        /* \"#utility.yul\":5235:5250   */\n      revert\n\n    auxdata: 0xa2646970667358221220dffbb94535194e3e76fe2e693ae1d1036e6d9282b8d831036c9f3f3648480ece64736f6c63430008070033\n}\n",
				"bytecode": {
					"linkReferences": {},
					"object": "608060405234801561001057600080fd5b5060405161078e38038061078e83398101604081905261002f91610060565b600080546001600160a01b039384166001600160a01b031991821617909155600180549290931691161790556100b2565b6000806040838503121561007357600080fd5b825161007e8161009a565b602084015190925061008f8161009a565b809150509250929050565b6001600160a01b03811681146100af57600080fd5b50565b6106cd806100c16000396000f3fe608060405234801561001057600080fd5b50600436106100365760003560e01c80630a5f75b61461003b5780637796909114610061575b600080fd5b61004e610049366004610450565b610081565b6040519081526020015b60405180910390f35b61007461006f36600461048d565b61015f565b6040516100589190610578565b600080805b8351811015610158576000548451610144916001600160a01b0316906370a08231908790859081106100ba576100ba61066b565b60200260200101516040518263ffffffff1660e01b81526004016100ed91906001600160a01b0391909116815260200190565b60206040518083038186803b15801561010557600080fd5b505afa158015610119573d6000803e3d6000fd5b505050506040513d601f19601f8201168201806040525081019061013d919061055f565b83906103b5565b9150806101508161063a565b915050610086565b5092915050565b60606000835167ffffffffffffffff81111561017d5761017d610681565b6040519080825280602002602001820160405280156101c257816020015b604080518082019091526000808252602082015281526020019060019003908161019b5790505b50905060005b845181101561024f578481815181106101e3576101e361066b565b60200260200101518282815181106101fd576101fd61066b565b60200260200101516000019063ffffffff16908163ffffffff1681525050600082828151811061022f5761022f61066b565b6020908102919091018101510152806102478161063a565b9150506101c8565b5060005b83518110156103ad5760005b855181101561039a576001548551610368916001600160a01b0316906394d45b59908890869081106102935761029361066b565b60200260200101518985815181106102ad576102ad61066b565b60200260200101516040518363ffffffff1660e01b81526004016102ec9291906001600160a01b0392909216825263ffffffff16602082015260400190565b60206040518083038186803b15801561030457600080fd5b505afa158015610318573d6000803e3d6000fd5b505050506040513d601f19601f8201168201806040525081019061033c919061055f565b84838151811061034e5761034e61066b565b6020026020010151602001516103b590919063ffffffff16565b83828151811061037a5761037a61066b565b6020908102919091018101510152806103928161063a565b91505061025f565b50806103a58161063a565b915050610253565b509392505050565b60006103c18284610622565b9392505050565b600082601f8301126103d957600080fd5b813560206103ee6103e9836105fe565b6105cd565b80838252828201915082860187848660051b890101111561040e57600080fd5b6000805b868110156104425782356001600160a01b0381168114610430578283fd5b85529385019391850191600101610412565b509198975050505050505050565b60006020828403121561046257600080fd5b813567ffffffffffffffff81111561047957600080fd5b610485848285016103c8565b949350505050565b600080604083850312156104a057600080fd5b823567ffffffffffffffff808211156104b857600080fd5b818501915085601f8301126104cc57600080fd5b813560206104dc6103e9836105fe565b8083825282820191508286018a848660051b89010111156104fc57600080fd5b600096505b8487101561053157803563ffffffff8116811461051d57600080fd5b835260019690960195918301918301610501565b509650508601359250508082111561054857600080fd5b50610555858286016103c8565b9150509250929050565b60006020828403121561057157600080fd5b5051919050565b602080825282518282018190526000919060409081850190868401855b828110156105c0578151805163ffffffff168552860151868501529284019290850190600101610595565b5091979650505050505050565b604051601f8201601f1916810167ffffffffffffffff811182821017156105f6576105f6610681565b604052919050565b600067ffffffffffffffff82111561061857610618610681565b5060051b60200190565b6000821982111561063557610635610655565b500190565b600060001982141561064e5761064e610655565b5060010190565b634e487b7160e01b600052601160045260246000fd5b634e487b7160e01b600052603260045260246000fd5b634e487b7160e01b600052604160045260246000fdfea2646970667358221220dffbb94535194e3e76fe2e693ae1d1036e6d9282b8d831036c9f3f3648480ece64736f6c63430008070033",
					"opcodes": "PUSH1 0x80 PUSH1 0x40 MSTORE CALLVALUE DUP1 ISZERO PUSH2 0x10 JUMPI PUSH1 0x0 DUP1 REVERT JUMPDEST POP PUSH1 0x40 MLOAD PUSH2 0x78E CODESIZE SUB DUP1 PUSH2 0x78E DUP4 CODECOPY DUP2 ADD PUSH1 0x40 DUP2 SWAP1 MSTORE PUSH2 0x2F SWAP2 PUSH2 0x60 JUMP JUMPDEST PUSH1 0x0 DUP1 SLOAD PUSH1 0x1 PUSH1 0x1 PUSH1 0xA0 SHL SUB SWAP4 DUP5 AND PUSH1 0x1 PUSH1 0x1 PUSH1 0xA0 SHL SUB NOT SWAP2 DUP3 AND OR SWAP1 SWAP2 SSTORE PUSH1 0x1 DUP1 SLOAD SWAP3 SWAP1 SWAP4 AND SWAP2 AND OR SWAP1 SSTORE PUSH2 0xB2 JUMP JUMPDEST PUSH1 0x0 DUP1 PUSH1 0x40 DUP4 DUP6 SUB SLT ISZERO PUSH2 0x73 JUMPI PUSH1 0x0 DUP1 REVERT JUMPDEST DUP3 MLOAD PUSH2 0x7E DUP2 PUSH2 0x9A JUMP JUMPDEST PUSH1 0x20 DUP5 ADD MLOAD SWAP1 SWAP3 POP PUSH2 0x8F DUP2 PUSH2 0x9A JUMP JUMPDEST DUP1 SWAP2 POP POP SWAP3 POP SWAP3 SWAP1 POP JUMP JUMPDEST PUSH1 0x1 PUSH1 0x1 PUSH1 0xA0 SHL SUB DUP2 AND DUP2 EQ PUSH2 0xAF JUMPI PUSH1 0x0 DUP1 REVERT JUMPDEST POP JUMP JUMPDEST PUSH2 0x6CD DUP1 PUSH2 0xC1 PUSH1 0x0 CODECOPY PUSH1 0x0 RETURN INVALID PUSH1 0x80 PUSH1 0x40 MSTORE CALLVALUE DUP1 ISZERO PUSH2 0x10 JUMPI PUSH1 0x0 DUP1 REVERT JUMPDEST POP PUSH1 0x4 CALLDATASIZE LT PUSH2 0x36 JUMPI PUSH1 0x0 CALLDATALOAD PUSH1 0xE0 SHR DUP1 PUSH4 0xA5F75B6 EQ PUSH2 0x3B JUMPI DUP1 PUSH4 0x77969091 EQ PUSH2 0x61 JUMPI JUMPDEST PUSH1 0x0 DUP1 REVERT JUMPDEST PUSH2 0x4E PUSH2 0x49 CALLDATASIZE PUSH1 0x4 PUSH2 0x450 JUMP JUMPDEST PUSH2 0x81 JUMP JUMPDEST PUSH1 0x40 MLOAD SWAP1 DUP2 MSTORE PUSH1 0x20 ADD JUMPDEST PUSH1 0x40 MLOAD DUP1 SWAP2 SUB SWAP1 RETURN JUMPDEST PUSH2 0x74 PUSH2 0x6F CALLDATASIZE PUSH1 0x4 PUSH2 0x48D JUMP JUMPDEST PUSH2 0x15F JUMP JUMPDEST PUSH1 0x40 MLOAD PUSH2 0x58 SWAP2 SWAP1 PUSH2 0x578 JUMP JUMPDEST PUSH1 0x0 DUP1 DUP1 JUMPDEST DUP4 MLOAD DUP2 LT ISZERO PUSH2 0x158 JUMPI PUSH1 0x0 SLOAD DUP5 MLOAD PUSH2 0x144 SWAP2 PUSH1 0x1 PUSH1 0x1 PUSH1 0xA0 SHL SUB AND SWAP1 PUSH4 0x70A08231 SWAP1 DUP8 SWAP1 DUP6 SWAP1 DUP2 LT PUSH2 0xBA JUMPI PUSH2 0xBA PUSH2 0x66B JUMP JUMPDEST PUSH1 0x20 MUL PUSH1 0x20 ADD ADD MLOAD PUSH1 0x40 MLOAD DUP3 PUSH4 0xFFFFFFFF AND PUSH1 0xE0 SHL DUP2 MSTORE PUSH1 0x4 ADD PUSH2 0xED SWAP2 SWAP1 PUSH1 0x1 PUSH1 0x1 PUSH1 0xA0 SHL SUB SWAP2 SWAP1 SWAP2 AND DUP2 MSTORE PUSH1 0x20 ADD SWAP1 JUMP JUMPDEST PUSH1 0x20 PUSH1 0x40 MLOAD DUP1 DUP4 SUB DUP2 DUP7 DUP1 EXTCODESIZE ISZERO DUP1 ISZERO PUSH2 0x105 JUMPI PUSH1 0x0 DUP1 REVERT JUMPDEST POP GAS STATICCALL ISZERO DUP1 ISZERO PUSH2 0x119 JUMPI RETURNDATASIZE PUSH1 0x0 DUP1 RETURNDATACOPY RETURNDATASIZE PUSH1 0x0 REVERT JUMPDEST POP POP POP POP PUSH1 0x40 MLOAD RETURNDATASIZE PUSH1 0x1F NOT PUSH1 0x1F DUP3 ADD AND DUP3 ADD DUP1 PUSH1 0x40 MSTORE POP DUP2 ADD SWAP1 PUSH2 0x13D SWAP2 SWAP1 PUSH2 0x55F JUMP JUMPDEST DUP4 SWAP1 PUSH2 0x3B5 JUMP JUMPDEST SWAP2 POP DUP1 PUSH2 0x150 DUP2 PUSH2 0x63A JUMP JUMPDEST SWAP2 POP POP PUSH2 0x86 JUMP JUMPDEST POP SWAP3 SWAP2 POP POP JUMP JUMPDEST PUSH1 0x60 PUSH1 0x0 DUP4 MLOAD PUSH8 0xFFFFFFFFFFFFFFFF DUP2 GT ISZERO PUSH2 0x17D JUMPI PUSH2 0x17D PUSH2 0x681 JUMP JUMPDEST PUSH1 0x40 MLOAD SWAP1 DUP1 DUP3 MSTORE DUP1 PUSH1 0x20 MUL PUSH1 0x20 ADD DUP3 ADD PUSH1 0x40 MSTORE DUP1 ISZERO PUSH2 0x1C2 JUMPI DUP2 PUSH1 0x20 ADD JUMPDEST PUSH1 0x40 DUP1 MLOAD DUP1 DUP3 ADD SWAP1 SWAP2 MSTORE PUSH1 0x0 DUP1 DUP3 MSTORE PUSH1 0x20 DUP3 ADD MSTORE DUP2 MSTORE PUSH1 0x20 ADD SWAP1 PUSH1 0x1 SWAP1 SUB SWAP1 DUP2 PUSH2 0x19B JUMPI SWAP1 POP JUMPDEST POP SWAP1 POP PUSH1 0x0 JUMPDEST DUP5 MLOAD DUP2 LT ISZERO PUSH2 0x24F JUMPI DUP5 DUP2 DUP2 MLOAD DUP2 LT PUSH2 0x1E3 JUMPI PUSH2 0x1E3 PUSH2 0x66B JUMP JUMPDEST PUSH1 0x20 MUL PUSH1 0x20 ADD ADD MLOAD DUP3 DUP3 DUP2 MLOAD DUP2 LT PUSH2 0x1FD JUMPI PUSH2 0x1FD PUSH2 0x66B JUMP JUMPDEST PUSH1 0x20 MUL PUSH1 0x20 ADD ADD MLOAD PUSH1 0x0 ADD SWAP1 PUSH4 0xFFFFFFFF AND SWAP1 DUP2 PUSH4 0xFFFFFFFF AND DUP2 MSTORE POP POP PUSH1 0x0 DUP3 DUP3 DUP2 MLOAD DUP2 LT PUSH2 0x22F JUMPI PUSH2 0x22F PUSH2 0x66B JUMP JUMPDEST PUSH1 0x20 SWAP1 DUP2 MUL SWAP2 SWAP1 SWAP2 ADD DUP2 ADD MLOAD ADD MSTORE DUP1 PUSH2 0x247 DUP2 PUSH2 0x63A JUMP JUMPDEST SWAP2 POP POP PUSH2 0x1C8 JUMP JUMPDEST POP PUSH1 0x0 JUMPDEST DUP4 MLOAD DUP2 LT ISZERO PUSH2 0x3AD JUMPI PUSH1 0x0 JUMPDEST DUP6 MLOAD DUP2 LT ISZERO PUSH2 0x39A JUMPI PUSH1 0x1 SLOAD DUP6 MLOAD PUSH2 0x368 SWAP2 PUSH1 0x1 PUSH1 0x1 PUSH1 0xA0 SHL SUB AND SWAP1 PUSH4 0x94D45B59 SWAP1 DUP9 SWAP1 DUP7 SWAP1 DUP2 LT PUSH2 0x293 JUMPI PUSH2 0x293 PUSH2 0x66B JUMP JUMPDEST PUSH1 0x20 MUL PUSH1 0x20 ADD ADD MLOAD DUP10 DUP6 DUP2 MLOAD DUP2 LT PUSH2 0x2AD JUMPI PUSH2 0x2AD PUSH2 0x66B JUMP JUMPDEST PUSH1 0x20 MUL PUSH1 0x20 ADD ADD MLOAD PUSH1 0x40 MLOAD DUP4 PUSH4 0xFFFFFFFF AND PUSH1 0xE0 SHL DUP2 MSTORE PUSH1 0x4 ADD PUSH2 0x2EC SWAP3 SWAP2 SWAP1 PUSH1 0x1 PUSH1 0x1 PUSH1 0xA0 SHL SUB SWAP3 SWAP1 SWAP3 AND DUP3 MSTORE PUSH4 0xFFFFFFFF AND PUSH1 0x20 DUP3 ADD MSTORE PUSH1 0x40 ADD SWAP1 JUMP JUMPDEST PUSH1 0x20 PUSH1 0x40 MLOAD DUP1 DUP4 SUB DUP2 DUP7 DUP1 EXTCODESIZE ISZERO DUP1 ISZERO PUSH2 0x304 JUMPI PUSH1 0x0 DUP1 REVERT JUMPDEST POP GAS STATICCALL ISZERO DUP1 ISZERO PUSH2 0x318 JUMPI RETURNDATASIZE PUSH1 0x0 DUP1 RETURNDATACOPY RETURNDATASIZE PUSH1 0x0 REVERT JUMPDEST POP POP POP POP PUSH1 0x40 MLOAD RETURNDATASIZE PUSH1 0x1F NOT PUSH1 0x1F DUP3 ADD AND DUP3 ADD DUP1 PUSH1 0x40 MSTORE POP DUP2 ADD SWAP1 PUSH2 0x33C SWAP2 SWAP1 PUSH2 0x55F JUMP JUMPDEST DUP5 DUP4 DUP2 MLOAD DUP2 LT PUSH2 0x34E JUMPI PUSH2 0x34E PUSH2 0x66B JUMP JUMPDEST PUSH1 0x20 MUL PUSH1 0x20 ADD ADD MLOAD PUSH1 0x20 ADD MLOAD PUSH2 0x3B5 SWAP1 SWAP2 SWAP1 PUSH4 0xFFFFFFFF AND JUMP JUMPDEST DUP4 DUP3 DUP2 MLOAD DUP2 LT PUSH2 0x37A JUMPI PUSH2 0x37A PUSH2 0x66B JUMP JUMPDEST PUSH1 0x20 SWAP1 DUP2 MUL SWAP2 SWAP1 SWAP2 ADD DUP2 ADD MLOAD ADD MSTORE DUP1 PUSH2 0x392 DUP2 PUSH2 0x63A JUMP JUMPDEST SWAP2 POP POP PUSH2 0x25F JUMP JUMPDEST POP DUP1 PUSH2 0x3A5 DUP2 PUSH2 0x63A JUMP JUMPDEST SWAP2 POP POP PUSH2 0x253 JUMP JUMPDEST POP SWAP4 SWAP3 POP POP POP JUMP JUMPDEST PUSH1 0x0 PUSH2 0x3C1 DUP3 DUP5 PUSH2 0x622 JUMP JUMPDEST SWAP4 SWAP3 POP POP POP JUMP JUMPDEST PUSH1 0x0 DUP3 PUSH1 0x1F DUP4 ADD SLT PUSH2 0x3D9 JUMPI PUSH1 0x0 DUP1 REVERT JUMPDEST DUP2 CALLDATALOAD PUSH1 0x20 PUSH2 0x3EE PUSH2 0x3E9 DUP4 PUSH2 0x5FE JUMP JUMPDEST PUSH2 0x5CD JUMP JUMPDEST DUP1 DUP4 DUP3 MSTORE DUP3 DUP3 ADD SWAP2 POP DUP3 DUP7 ADD DUP8 DUP5 DUP7 PUSH1 0x5 SHL DUP10 ADD ADD GT ISZERO PUSH2 0x40E JUMPI PUSH1 0x0 DUP1 REVERT JUMPDEST PUSH1 0x0 DUP1 JUMPDEST DUP7 DUP2 LT ISZERO PUSH2 0x442 JUMPI DUP3 CALLDATALOAD PUSH1 0x1 PUSH1 0x1 PUSH1 0xA0 SHL SUB DUP2 AND DUP2 EQ PUSH2 0x430 JUMPI DUP3 DUP4 REVERT JUMPDEST DUP6 MSTORE SWAP4 DUP6 ADD SWAP4 SWAP2 DUP6 ADD SWAP2 PUSH1 0x1 ADD PUSH2 0x412 JUMP JUMPDEST POP SWAP2 SWAP9 SWAP8 POP POP POP POP POP POP POP POP JUMP JUMPDEST PUSH1 0x0 PUSH1 0x20 DUP3 DUP5 SUB SLT ISZERO PUSH2 0x462 JUMPI PUSH1 0x0 DUP1 REVERT JUMPDEST DUP2 CALLDATALOAD PUSH8 0xFFFFFFFFFFFFFFFF DUP2 GT ISZERO PUSH2 0x479 JUMPI PUSH1 0x0 DUP1 REVERT JUMPDEST PUSH2 0x485 DUP5 DUP3 DUP6 ADD PUSH2 0x3C8 JUMP JUMPDEST SWAP5 SWAP4 POP POP POP POP JUMP JUMPDEST PUSH1 0x0 DUP1 PUSH1 0x40 DUP4 DUP6 SUB SLT ISZERO PUSH2 0x4A0 JUMPI PUSH1 0x0 DUP1 REVERT JUMPDEST DUP3 CALLDATALOAD PUSH8 0xFFFFFFFFFFFFFFFF DUP1 DUP3 GT ISZERO PUSH2 0x4B8 JUMPI PUSH1 0x0 DUP1 REVERT JUMPDEST DUP2 DUP6 ADD SWAP2 POP DUP6 PUSH1 0x1F DUP4 ADD SLT PUSH2 0x4CC JUMPI PUSH1 0x0 DUP1 REVERT JUMPDEST DUP2 CALLDATALOAD PUSH1 0x20 PUSH2 0x4DC PUSH2 0x3E9 DUP4 PUSH2 0x5FE JUMP JUMPDEST DUP1 DUP4 DUP3 MSTORE DUP3 DUP3 ADD SWAP2 POP DUP3 DUP7 ADD DUP11 DUP5 DUP7 PUSH1 0x5 SHL DUP10 ADD ADD GT ISZERO PUSH2 0x4FC JUMPI PUSH1 0x0 DUP1 REVERT JUMPDEST PUSH1 0x0 SWAP7 POP JUMPDEST DUP5 DUP8 LT ISZERO PUSH2 0x531 JUMPI DUP1 CALLDATALOAD PUSH4 0xFFFFFFFF DUP2 AND DUP2 EQ PUSH2 0x51D JUMPI PUSH1 0x0 DUP1 REVERT JUMPDEST DUP4 MSTORE PUSH1 0x1 SWAP7 SWAP1 SWAP7 ADD SWAP6 SWAP2 DUP4 ADD SWAP2 DUP4 ADD PUSH2 0x501 JUMP JUMPDEST POP SWAP7 POP POP DUP7 ADD CALLDATALOAD SWAP3 POP POP DUP1 DUP3 GT ISZERO PUSH2 0x548 JUMPI PUSH1 0x0 DUP1 REVERT JUMPDEST POP PUSH2 0x555 DUP6 DUP3 DUP7 ADD PUSH2 0x3C8 JUMP JUMPDEST SWAP2 POP POP SWAP3 POP SWAP3 SWAP1 POP JUMP JUMPDEST PUSH1 0x0 PUSH1 0x20 DUP3 DUP5 SUB SLT ISZERO PUSH2 0x571 JUMPI PUSH1 0x0 DUP1 REVERT JUMPDEST POP MLOAD SWAP2 SWAP1 POP JUMP JUMPDEST PUSH1 0x20 DUP1 DUP3 MSTORE DUP3 MLOAD DUP3 DUP3 ADD DUP2 SWAP1 MSTORE PUSH1 0x0 SWAP2 SWAP1 PUSH1 0x40 SWAP1 DUP2 DUP6 ADD SWAP1 DUP7 DUP5 ADD DUP6 JUMPDEST DUP3 DUP2 LT ISZERO PUSH2 0x5C0 JUMPI DUP2 MLOAD DUP1 MLOAD PUSH4 0xFFFFFFFF AND DUP6 MSTORE DUP7 ADD MLOAD DUP7 DUP6 ADD MSTORE SWAP3 DUP5 ADD SWAP3 SWAP1 DUP6 ADD SWAP1 PUSH1 0x1 ADD PUSH2 0x595 JUMP JUMPDEST POP SWAP2 SWAP8 SWAP7 POP POP POP POP POP POP POP JUMP JUMPDEST PUSH1 0x40 MLOAD PUSH1 0x1F DUP3 ADD PUSH1 0x1F NOT AND DUP2 ADD PUSH8 0xFFFFFFFFFFFFFFFF DUP2 GT DUP3 DUP3 LT OR ISZERO PUSH2 0x5F6 JUMPI PUSH2 0x5F6 PUSH2 0x681 JUMP JUMPDEST PUSH1 0x40 MSTORE SWAP2 SWAP1 POP JUMP JUMPDEST PUSH1 0x0 PUSH8 0xFFFFFFFFFFFFFFFF DUP3 GT ISZERO PUSH2 0x618 JUMPI PUSH2 0x618 PUSH2 0x681 JUMP JUMPDEST POP PUSH1 0x5 SHL PUSH1 0x20 ADD SWAP1 JUMP JUMPDEST PUSH1 0x0 DUP3 NOT DUP3 GT ISZERO PUSH2 0x635 JUMPI PUSH2 0x635 PUSH2 0x655 JUMP JUMPDEST POP ADD SWAP1 JUMP JUMPDEST PUSH1 0x0 PUSH1 0x0 NOT DUP3 EQ ISZERO PUSH2 0x64E JUMPI PUSH2 0x64E PUSH2 0x655 JUMP JUMPDEST POP PUSH1 0x1 ADD SWAP1 JUMP JUMPDEST PUSH4 0x4E487B71 PUSH1 0xE0 SHL PUSH1 0x0 MSTORE PUSH1 0x11 PUSH1 0x4 MSTORE PUSH1 0x24 PUSH1 0x0 REVERT JUMPDEST PUSH4 0x4E487B71 PUSH1 0xE0 SHL PUSH1 0x0 MSTORE PUSH1 0x32 PUSH1 0x4 MSTORE PUSH1 0x24 PUSH1 0x0 REVERT JUMPDEST PUSH4 0x4E487B71 PUSH1 0xE0 SHL PUSH1 0x0 MSTORE PUSH1 0x41 PUSH1 0x4 MSTORE PUSH1 0x24 PUSH1 0x0 REVERT INVALID LOG2 PUSH5 0x6970667358 0x22 SLT KECCAK256 0xDF 0xFB 0xB9 GASLIMIT CALLDATALOAD NOT 0x4E RETURNDATACOPY PUSH23 0xFE2E693AE1D1036E6D9282B8D831036C9F3F3648480ECE PUSH5 0x736F6C6343 STOP ADDMOD SMOD STOP CALLER "
				},
				"gasEstimates": {
					"creation": {
						"codeDepositCost": "348200",
						"executionCost": "infinite",
						"totalCost": "infinite"
					},
					"external": {
						"GetStakedBalance(uint32[],address[])": "infinite",
						"getTokenBalanceOf(address[])": "infinite"
					}
				},
				"methodIdentifiers": {
					"GetStakedBalance(uint32[],address[])": "77969091",
					"getTokenBalanceOf(address[])": "0a5f75b6"
				}
			},
			"storageLayout": {
				"storage": [
					{
						"astId": 826,
						"contract": "contracts/Multichain.sol:Multiu",
						"label": "_token",
						"offset": 0,
						"slot": "0",
						"type": "t_contract(IERC20)181"
					},
					{
						"astId": 829,
						"contract": "contracts/Multichain.sol:Multiu",
						"label": "_masterEntertainer",
						"offset": 0,
						"slot": "1",
						"type": "t_contract(IMasterEntertainer)1022"
					}
				],
				"types": {
					"t_contract(IERC20)181": {
						"encoding": "inplace",
						"label": "contract IERC20",
						"numberOfBytes": "20"
					},
					"t_contract(IMasterEntertainer)1022": {
						"encoding": "inplace",
						"label": "contract IMasterEntertainer",
						"numberOfBytes": "20"
					}
				}
			},
			"userdoc": {
				"kind": "user",
				"methods": {},
				"version": 1
			}
		}
	}
}