{
	"contracts/Marketplace.sol": {
		"Marketplace": {
			"abi": [
				{
					"inputs": [],
					"stateMutability": "nonpayable",
					"type": "constructor"
				},
				{
					"anonymous": false,
					"inputs": [
						{
							"indexed": false,
							"internalType": "address",
							"name": "nftContract",
							"type": "address"
						},
						{
							"indexed": false,
							"internalType": "uint256",
							"name": "tokenId",
							"type": "uint256"
						},
						{
							"indexed": false,
							"internalType": "address",
							"name": "seller",
							"type": "address"
						},
						{
							"indexed": false,
							"internalType": "address",
							"name": "owner",
							"type": "address"
						},
						{
							"indexed": false,
							"internalType": "uint256",
							"name": "price",
							"type": "uint256"
						}
					],
					"name": "NFTListed",
					"type": "event"
				},
				{
					"anonymous": false,
					"inputs": [
						{
							"indexed": false,
							"internalType": "address",
							"name": "nftContract",
							"type": "address"
						},
						{
							"indexed": false,
							"internalType": "uint256",
							"name": "tokenId",
							"type": "uint256"
						},
						{
							"indexed": false,
							"internalType": "address",
							"name": "seller",
							"type": "address"
						},
						{
							"indexed": false,
							"internalType": "address",
							"name": "owner",
							"type": "address"
						},
						{
							"indexed": false,
							"internalType": "uint256",
							"name": "price",
							"type": "uint256"
						}
					],
					"name": "NFTSold",
					"type": "event"
				},
				{
					"inputs": [],
					"name": "LISTING_FEE",
					"outputs": [
						{
							"internalType": "uint256",
							"name": "",
							"type": "uint256"
						}
					],
					"stateMutability": "view",
					"type": "function"
				},
				{
					"inputs": [
						{
							"internalType": "address",
							"name": "_nftContract",
							"type": "address"
						},
						{
							"internalType": "uint256",
							"name": "_tokenId",
							"type": "uint256"
						}
					],
					"name": "buyNft",
					"outputs": [],
					"stateMutability": "payable",
					"type": "function"
				},
				{
					"inputs": [],
					"name": "getListedNfts",
					"outputs": [
						{
							"components": [
								{
									"internalType": "address",
									"name": "nftContract",
									"type": "address"
								},
								{
									"internalType": "uint256",
									"name": "tokenId",
									"type": "uint256"
								},
								{
									"internalType": "address payable",
									"name": "seller",
									"type": "address"
								},
								{
									"internalType": "address payable",
									"name": "owner",
									"type": "address"
								},
								{
									"internalType": "uint256",
									"name": "price",
									"type": "uint256"
								},
								{
									"internalType": "bool",
									"name": "listed",
									"type": "bool"
								}
							],
							"internalType": "struct Marketplace.NFT[]",
							"name": "",
							"type": "tuple[]"
						}
					],
					"stateMutability": "view",
					"type": "function"
				},
				{
					"inputs": [],
					"name": "getListingFee",
					"outputs": [
						{
							"internalType": "uint256",
							"name": "",
							"type": "uint256"
						}
					],
					"stateMutability": "view",
					"type": "function"
				},
				{
					"inputs": [],
					"name": "getMyListedNfts",
					"outputs": [
						{
							"components": [
								{
									"internalType": "address",
									"name": "nftContract",
									"type": "address"
								},
								{
									"internalType": "uint256",
									"name": "tokenId",
									"type": "uint256"
								},
								{
									"internalType": "address payable",
									"name": "seller",
									"type": "address"
								},
								{
									"internalType": "address payable",
									"name": "owner",
									"type": "address"
								},
								{
									"internalType": "uint256",
									"name": "price",
									"type": "uint256"
								},
								{
									"internalType": "bool",
									"name": "listed",
									"type": "bool"
								}
							],
							"internalType": "struct Marketplace.NFT[]",
							"name": "",
							"type": "tuple[]"
						}
					],
					"stateMutability": "view",
					"type": "function"
				},
				{
					"inputs": [],
					"name": "getMyNfts",
					"outputs": [
						{
							"components": [
								{
									"internalType": "address",
									"name": "nftContract",
									"type": "address"
								},
								{
									"internalType": "uint256",
									"name": "tokenId",
									"type": "uint256"
								},
								{
									"internalType": "address payable",
									"name": "seller",
									"type": "address"
								},
								{
									"internalType": "address payable",
									"name": "owner",
									"type": "address"
								},
								{
									"internalType": "uint256",
									"name": "price",
									"type": "uint256"
								},
								{
									"internalType": "bool",
									"name": "listed",
									"type": "bool"
								}
							],
							"internalType": "struct Marketplace.NFT[]",
							"name": "",
							"type": "tuple[]"
						}
					],
					"stateMutability": "view",
					"type": "function"
				},
				{
					"inputs": [
						{
							"internalType": "address",
							"name": "_nftContract",
							"type": "address"
						},
						{
							"internalType": "uint256",
							"name": "_tokenId",
							"type": "uint256"
						},
						{
							"internalType": "uint256",
							"name": "_price",
							"type": "uint256"
						}
					],
					"name": "listNft",
					"outputs": [],
					"stateMutability": "payable",
					"type": "function"
				},
				{
					"inputs": [
						{
							"internalType": "address",
							"name": "_nftContract",
							"type": "address"
						},
						{
							"internalType": "uint256",
							"name": "_tokenId",
							"type": "uint256"
						},
						{
							"internalType": "uint256",
							"name": "_price",
							"type": "uint256"
						}
					],
					"name": "resellNft",
					"outputs": [],
					"stateMutability": "payable",
					"type": "function"
				}
			],
			"devdoc": {
				"kind": "dev",
				"methods": {},
				"version": 1
			},
			"evm": {
				"assembly": "    /* \"contracts/Marketplace.sol\":240:4626  contract Marketplace is ReentrancyGuard {... */\n  mstore(0x40, 0x80)\n    /* \"contracts/Marketplace.sol\":432:444  0.0001 ether */\n  0x5af3107a4000\n    /* \"contracts/Marketplace.sol\":403:444  uint256 public LISTING_FEE = 0.0001 ether */\n  0x03\n  sstore\n    /* \"contracts/Marketplace.sol\":967:1028  constructor() {... */\n  callvalue\n  dup1\n  iszero\n  tag_1\n  jumpi\n  0x00\n  dup1\n  revert\ntag_1:\n  pop\n    /* \"@openzeppelin/contracts/security/ReentrancyGuard.sol\":1637:1638  1 */\n  0x01\n    /* \"@openzeppelin/contracts/security/ReentrancyGuard.sol\":1742:1749  _status */\n  0x00\n    /* \"@openzeppelin/contracts/security/ReentrancyGuard.sol\":1742:1764  _status = _NOT_ENTERED */\n  sstore\n    /* \"contracts/Marketplace.sol\":988:1000  _marketOwner */\n  0x04\n    /* \"contracts/Marketplace.sol\":988:1022  _marketOwner = payable(msg.sender) */\n  dup1\n  sload\n  not(sub(shl(0xa0, 0x01), 0x01))\n  and\n    /* \"contracts/Marketplace.sol\":1011:1021  msg.sender */\n  caller\n    /* \"contracts/Marketplace.sol\":988:1022  _marketOwner = payable(msg.sender) */\n  or\n  swap1\n  sstore\n    /* \"contracts/Marketplace.sol\":240:4626  contract Marketplace is ReentrancyGuard {... */\n  dataSize(sub_0)\n  dup1\n  dataOffset(sub_0)\n  0x00\n  codecopy\n  0x00\n  return\nstop\n\nsub_0: assembly {\n        /* \"contracts/Marketplace.sol\":240:4626  contract Marketplace is ReentrancyGuard {... */\n      mstore(0x40, 0x80)\n      jumpi(tag_1, lt(calldatasize, 0x04))\n      shr(0xe0, calldataload(0x00))\n      dup1\n      0x4ddf4f8f\n      gt\n      tag_10\n      jumpi\n      dup1\n      0x4ddf4f8f\n      eq\n      tag_6\n      jumpi\n      dup1\n      0x8d6cb3fb\n      eq\n      tag_7\n      jumpi\n      dup1\n      0xb8fe6abe\n      eq\n      tag_8\n      jumpi\n      dup1\n      0xc922b17c\n      eq\n      tag_9\n      jumpi\n      0x00\n      dup1\n      revert\n    tag_10:\n      dup1\n      0x047b07bf\n      eq\n      tag_2\n      jumpi\n      dup1\n      0x1f4cc4db\n      eq\n      tag_3\n      jumpi\n      dup1\n      0x2b86ae38\n      eq\n      tag_4\n      jumpi\n      dup1\n      0x34f5b624\n      eq\n      tag_5\n      jumpi\n    tag_1:\n      0x00\n      dup1\n      revert\n        /* \"contracts/Marketplace.sol\":3479:4009  function getMyNfts() public view returns (NFT[] memory) {... */\n    tag_2:\n      callvalue\n      dup1\n      iszero\n      tag_11\n      jumpi\n      0x00\n      dup1\n      revert\n    tag_11:\n      pop\n      tag_12\n      tag_13\n      jump\t// in\n    tag_12:\n      mload(0x40)\n      tag_14\n      swap2\n      swap1\n      tag_15\n      jump\t// in\n    tag_14:\n      mload(0x40)\n      dup1\n      swap2\n      sub\n      swap1\n      return\n        /* \"contracts/Marketplace.sol\":4015:4623  function getMyListedNfts() public view returns (NFT[] memory) {... */\n    tag_3:\n      callvalue\n      dup1\n      iszero\n      tag_16\n      jumpi\n      0x00\n      dup1\n      revert\n    tag_16:\n      pop\n      tag_12\n      tag_18\n      jump\t// in\n        /* \"contracts/Marketplace.sol\":403:444  uint256 public LISTING_FEE = 0.0001 ether */\n    tag_4:\n      callvalue\n      dup1\n      iszero\n      tag_20\n      jumpi\n      0x00\n      dup1\n      revert\n    tag_20:\n      pop\n      tag_21\n      sload(0x03)\n      dup2\n      jump\n    tag_21:\n      mload(0x40)\n        /* \"#utility.yul\":1325:1350   */\n      swap1\n      dup2\n      mstore\n        /* \"#utility.yul\":1313:1315   */\n      0x20\n        /* \"#utility.yul\":1298:1316   */\n      add\n        /* \"contracts/Marketplace.sol\":403:444  uint256 public LISTING_FEE = 0.0001 ether */\n      tag_14\n        /* \"#utility.yul\":1179:1356   */\n      jump\n        /* \"contracts/Marketplace.sol\":2334:2941  function resellNft(address _nftContract, uint256 _tokenId, uint256 _price) public payable nonReentrant {... */\n    tag_5:\n      tag_25\n      tag_26\n      calldatasize\n      0x04\n      tag_27\n      jump\t// in\n    tag_26:\n      tag_28\n      jump\t// in\n    tag_25:\n      stop\n        /* \"contracts/Marketplace.sol\":1694:2277  function buyNft(address _nftContract, uint256 _tokenId) public payable nonReentrant {... */\n    tag_6:\n      tag_25\n      tag_30\n      calldatasize\n      0x04\n      tag_31\n      jump\t// in\n    tag_30:\n      tag_32\n      jump\t// in\n        /* \"contracts/Marketplace.sol\":3039:3473  function getListedNfts() public view returns (NFT[] memory) {... */\n    tag_7:\n      callvalue\n      dup1\n      iszero\n      tag_33\n      jumpi\n      0x00\n      dup1\n      revert\n    tag_33:\n      pop\n      tag_12\n      tag_35\n      jump\t// in\n        /* \"contracts/Marketplace.sol\":2947:3033  function getListingFee() public view returns (uint256) {... */\n    tag_8:\n      callvalue\n      dup1\n      iszero\n      tag_37\n      jumpi\n      0x00\n      dup1\n      revert\n    tag_37:\n      pop\n        /* \"contracts/Marketplace.sol\":3016:3027  LISTING_FEE */\n      sload(0x03)\n        /* \"contracts/Marketplace.sol\":2947:3033  function getListingFee() public view returns (uint256) {... */\n      jump(tag_21)\n        /* \"contracts/Marketplace.sol\":1072:1671  function listNft(address _nftContract, uint256 _tokenId, uint256 _price) public payable nonReentrant {... */\n    tag_9:\n      tag_25\n      tag_42\n      calldatasize\n      0x04\n      tag_27\n      jump\t// in\n    tag_42:\n      tag_43\n      jump\t// in\n        /* \"contracts/Marketplace.sol\":3479:4009  function getMyNfts() public view returns (NFT[] memory) {... */\n    tag_13:\n        /* \"contracts/Marketplace.sol\":3521:3533  NFT[] memory */\n      0x60\n        /* \"contracts/Marketplace.sol\":3542:3555  uint nftCount */\n      0x00\n        /* \"contracts/Marketplace.sol\":3558:3577  _nftCount.current() */\n      tag_45\n        /* \"contracts/Marketplace.sol\":3558:3567  _nftCount */\n      0x02\n        /* \"@openzeppelin/contracts/utils/Counters.sol\":918:932  counter._value */\n      sload\n      swap1\n        /* \"@openzeppelin/contracts/utils/Counters.sol\":827:939  function current(Counter storage counter) internal view returns (uint256) {... */\n      jump\n        /* \"contracts/Marketplace.sol\":3558:3577  _nftCount.current() */\n    tag_45:\n        /* \"contracts/Marketplace.sol\":3542:3577  uint nftCount = _nftCount.current() */\n      swap1\n      pop\n        /* \"contracts/Marketplace.sol\":3584:3599  uint myNftCount */\n      0x00\n        /* \"contracts/Marketplace.sol\":3615:3621  uint i */\n      dup1\n        /* \"contracts/Marketplace.sol\":3610:3736  for (uint i = 0; i < nftCount; i++) {... */\n    tag_47:\n        /* \"contracts/Marketplace.sol\":3631:3639  nftCount */\n      dup3\n        /* \"contracts/Marketplace.sol\":3627:3628  i */\n      dup2\n        /* \"contracts/Marketplace.sol\":3627:3639  i < nftCount */\n      lt\n        /* \"contracts/Marketplace.sol\":3610:3736  for (uint i = 0; i < nftCount; i++) {... */\n      iszero\n      tag_48\n      jumpi\n        /* \"contracts/Marketplace.sol\":3684:3694  msg.sender */\n      caller\n        /* \"contracts/Marketplace.sol\":3659:3667  _idToNFT */\n      0x05\n        /* \"contracts/Marketplace.sol\":3659:3674  _idToNFT[i + 1] */\n      0x00\n        /* \"contracts/Marketplace.sol\":3668:3673  i + 1 */\n      tag_50\n        /* \"contracts/Marketplace.sol\":3668:3669  i */\n      dup5\n        /* \"contracts/Marketplace.sol\":3672:3673  1 */\n      0x01\n        /* \"contracts/Marketplace.sol\":3668:3673  i + 1 */\n      tag_51\n      jump\t// in\n    tag_50:\n        /* \"contracts/Marketplace.sol\":3659:3674  _idToNFT[i + 1] */\n      dup2\n      mstore\n      0x20\n      dup2\n      add\n      swap2\n      swap1\n      swap2\n      mstore\n      0x40\n      add\n      0x00\n      keccak256\n        /* \"contracts/Marketplace.sol\":3659:3680  _idToNFT[i + 1].owner */\n      0x03\n      add\n      sload\n      sub(shl(0xa0, 0x01), 0x01)\n      and\n        /* \"contracts/Marketplace.sol\":3659:3694  _idToNFT[i + 1].owner == msg.sender */\n      sub\n        /* \"contracts/Marketplace.sol\":3655:3729  if (_idToNFT[i + 1].owner == msg.sender) {... */\n      tag_52\n      jumpi\n        /* \"contracts/Marketplace.sol\":3707:3719  myNftCount++ */\n      dup2\n      tag_53\n      dup2\n      tag_54\n      jump\t// in\n    tag_53:\n      swap3\n      pop\n      pop\n        /* \"contracts/Marketplace.sol\":3655:3729  if (_idToNFT[i + 1].owner == msg.sender) {... */\n    tag_52:\n        /* \"contracts/Marketplace.sol\":3641:3644  i++ */\n      dup1\n      tag_55\n      dup2\n      tag_54\n      jump\t// in\n    tag_55:\n      swap2\n      pop\n      pop\n        /* \"contracts/Marketplace.sol\":3610:3736  for (uint i = 0; i < nftCount; i++) {... */\n      jump(tag_47)\n    tag_48:\n      pop\n        /* \"contracts/Marketplace.sol\":3744:3761  NFT[] memory nfts */\n      0x00\n        /* \"contracts/Marketplace.sol\":3774:3784  myNftCount */\n      dup2\n        /* \"contracts/Marketplace.sol\":3764:3785  new NFT[](myNftCount) */\n      0xffffffffffffffff\n      dup2\n      gt\n      iszero\n      tag_57\n      jumpi\n      tag_57\n      tag_58\n      jump\t// in\n    tag_57:\n      mload(0x40)\n      swap1\n      dup1\n      dup3\n      mstore\n      dup1\n      0x20\n      mul\n      0x20\n      add\n      dup3\n      add\n      0x40\n      mstore\n      dup1\n      iszero\n      tag_59\n      jumpi\n      dup2\n      0x20\n      add\n    tag_60:\n      tag_61\n      tag_62\n      jump\t// in\n    tag_61:\n      dup2\n      mstore\n      0x20\n      add\n      swap1\n      0x01\n      swap1\n      sub\n      swap1\n      dup2\n      tag_60\n      jumpi\n      swap1\n      pop\n    tag_59:\n      pop\n        /* \"contracts/Marketplace.sol\":3744:3785  NFT[] memory nfts = new NFT[](myNftCount) */\n      swap1\n      pop\n        /* \"contracts/Marketplace.sol\":3792:3806  uint nftsIndex */\n      0x00\n        /* \"contracts/Marketplace.sol\":3822:3828  uint i */\n      dup1\n        /* \"contracts/Marketplace.sol\":3817:3986  for (uint i = 0; i < nftCount; i++) {... */\n    tag_63:\n        /* \"contracts/Marketplace.sol\":3838:3846  nftCount */\n      dup5\n        /* \"contracts/Marketplace.sol\":3834:3835  i */\n      dup2\n        /* \"contracts/Marketplace.sol\":3834:3846  i < nftCount */\n      lt\n        /* \"contracts/Marketplace.sol\":3817:3986  for (uint i = 0; i < nftCount; i++) {... */\n      iszero\n      tag_64\n      jumpi\n        /* \"contracts/Marketplace.sol\":3891:3901  msg.sender */\n      caller\n        /* \"contracts/Marketplace.sol\":3866:3874  _idToNFT */\n      0x05\n        /* \"contracts/Marketplace.sol\":3866:3881  _idToNFT[i + 1] */\n      0x00\n        /* \"contracts/Marketplace.sol\":3875:3880  i + 1 */\n      tag_66\n        /* \"contracts/Marketplace.sol\":3875:3876  i */\n      dup5\n        /* \"contracts/Marketplace.sol\":3879:3880  1 */\n      0x01\n        /* \"contracts/Marketplace.sol\":3875:3880  i + 1 */\n      tag_51\n      jump\t// in\n    tag_66:\n        /* \"contracts/Marketplace.sol\":3866:3881  _idToNFT[i + 1] */\n      dup2\n      mstore\n      0x20\n      dup2\n      add\n      swap2\n      swap1\n      swap2\n      mstore\n      0x40\n      add\n      0x00\n      keccak256\n        /* \"contracts/Marketplace.sol\":3866:3887  _idToNFT[i + 1].owner */\n      0x03\n      add\n      sload\n      sub(shl(0xa0, 0x01), 0x01)\n      and\n        /* \"contracts/Marketplace.sol\":3866:3901  _idToNFT[i + 1].owner == msg.sender */\n      sub\n        /* \"contracts/Marketplace.sol\":3862:3979  if (_idToNFT[i + 1].owner == msg.sender) {... */\n      tag_67\n      jumpi\n        /* \"contracts/Marketplace.sol\":3932:3940  _idToNFT */\n      0x05\n        /* \"contracts/Marketplace.sol\":3932:3947  _idToNFT[i + 1] */\n      0x00\n        /* \"contracts/Marketplace.sol\":3941:3946  i + 1 */\n      tag_68\n        /* \"contracts/Marketplace.sol\":3941:3942  i */\n      dup4\n        /* \"contracts/Marketplace.sol\":3945:3946  1 */\n      0x01\n        /* \"contracts/Marketplace.sol\":3941:3946  i + 1 */\n      tag_51\n      jump\t// in\n    tag_68:\n        /* \"contracts/Marketplace.sol\":3932:3947  _idToNFT[i + 1] */\n      dup2\n      mstore\n      0x20\n      dup1\n      dup3\n      add\n      swap3\n      swap1\n      swap3\n      mstore\n      0x40\n      swap1\n      dup2\n      add\n      0x00\n      keccak256\n        /* \"contracts/Marketplace.sol\":3914:3947  nfts[nftsIndex] = _idToNFT[i + 1] */\n      dup2\n      mload\n      0xc0\n      dup2\n      add\n      dup4\n      mstore\n      dup2\n      sload\n      sub(shl(0xa0, 0x01), 0x01)\n      swap1\n      dup2\n      and\n      dup3\n      mstore\n      0x01\n      dup4\n      add\n      sload\n      swap5\n      dup3\n      add\n      swap5\n      swap1\n      swap5\n      mstore\n      0x02\n      dup3\n      add\n      sload\n      dup5\n      and\n      swap3\n      dup2\n      add\n      swap3\n      swap1\n      swap3\n      mstore\n      0x03\n      dup2\n      add\n      sload\n      swap1\n      swap3\n      and\n      0x60\n      dup3\n      add\n      mstore\n      0x04\n      dup3\n      add\n      sload\n      0x80\n      dup3\n      add\n      mstore\n      0x05\n      swap1\n      swap2\n      add\n      sload\n      0xff\n      and\n      iszero\n      iszero\n      0xa0\n      dup3\n      add\n      mstore\n        /* \"contracts/Marketplace.sol\":3914:3929  nfts[nftsIndex] */\n      dup4\n      mload\n        /* \"contracts/Marketplace.sol\":3914:3918  nfts */\n      dup5\n      swap1\n        /* \"contracts/Marketplace.sol\":3919:3928  nftsIndex */\n      dup5\n      swap1\n        /* \"contracts/Marketplace.sol\":3914:3929  nfts[nftsIndex] */\n      dup2\n      lt\n      tag_70\n      jumpi\n      tag_70\n      tag_71\n      jump\t// in\n    tag_70:\n      0x20\n      mul\n      0x20\n      add\n      add\n        /* \"contracts/Marketplace.sol\":3914:3947  nfts[nftsIndex] = _idToNFT[i + 1] */\n      dup2\n      swap1\n      mstore\n      pop\n        /* \"contracts/Marketplace.sol\":3958:3969  nftsIndex++ */\n      dup2\n      dup1\n      tag_72\n      swap1\n      tag_54\n      jump\t// in\n    tag_72:\n      swap3\n      pop\n      pop\n        /* \"contracts/Marketplace.sol\":3862:3979  if (_idToNFT[i + 1].owner == msg.sender) {... */\n    tag_67:\n        /* \"contracts/Marketplace.sol\":3848:3851  i++ */\n      dup1\n      tag_73\n      dup2\n      tag_54\n      jump\t// in\n    tag_73:\n      swap2\n      pop\n      pop\n        /* \"contracts/Marketplace.sol\":3817:3986  for (uint i = 0; i < nftCount; i++) {... */\n      jump(tag_63)\n    tag_64:\n      pop\n        /* \"contracts/Marketplace.sol\":3999:4003  nfts */\n      swap1\n      swap5\n        /* \"contracts/Marketplace.sol\":3479:4009  function getMyNfts() public view returns (NFT[] memory) {... */\n      swap4\n      pop\n      pop\n      pop\n      pop\n      jump\t// out\n        /* \"contracts/Marketplace.sol\":4015:4623  function getMyListedNfts() public view returns (NFT[] memory) {... */\n    tag_18:\n        /* \"contracts/Marketplace.sol\":4063:4075  NFT[] memory */\n      0x60\n        /* \"contracts/Marketplace.sol\":4084:4097  uint nftCount */\n      0x00\n        /* \"contracts/Marketplace.sol\":4100:4119  _nftCount.current() */\n      tag_75\n        /* \"contracts/Marketplace.sol\":4100:4109  _nftCount */\n      0x02\n        /* \"@openzeppelin/contracts/utils/Counters.sol\":918:932  counter._value */\n      sload\n      swap1\n        /* \"@openzeppelin/contracts/utils/Counters.sol\":827:939  function current(Counter storage counter) internal view returns (uint256) {... */\n      jump\n        /* \"contracts/Marketplace.sol\":4100:4119  _nftCount.current() */\n    tag_75:\n        /* \"contracts/Marketplace.sol\":4084:4119  uint nftCount = _nftCount.current() */\n      swap1\n      pop\n        /* \"contracts/Marketplace.sol\":4126:4147  uint myListedNftCount */\n      0x00\n        /* \"contracts/Marketplace.sol\":4163:4169  uint i */\n      dup1\n        /* \"contracts/Marketplace.sol\":4158:4317  for (uint i = 0; i < nftCount; i++) {... */\n    tag_76:\n        /* \"contracts/Marketplace.sol\":4179:4187  nftCount */\n      dup3\n        /* \"contracts/Marketplace.sol\":4175:4176  i */\n      dup2\n        /* \"contracts/Marketplace.sol\":4175:4187  i < nftCount */\n      lt\n        /* \"contracts/Marketplace.sol\":4158:4317  for (uint i = 0; i < nftCount; i++) {... */\n      iszero\n      tag_77\n      jumpi\n        /* \"contracts/Marketplace.sol\":4233:4243  msg.sender */\n      caller\n        /* \"contracts/Marketplace.sol\":4207:4215  _idToNFT */\n      0x05\n        /* \"contracts/Marketplace.sol\":4207:4222  _idToNFT[i + 1] */\n      0x00\n        /* \"contracts/Marketplace.sol\":4216:4221  i + 1 */\n      tag_79\n        /* \"contracts/Marketplace.sol\":4216:4217  i */\n      dup5\n        /* \"contracts/Marketplace.sol\":4220:4221  1 */\n      0x01\n        /* \"contracts/Marketplace.sol\":4216:4221  i + 1 */\n      tag_51\n      jump\t// in\n    tag_79:\n        /* \"contracts/Marketplace.sol\":4207:4222  _idToNFT[i + 1] */\n      dup2\n      mstore\n      0x20\n      dup2\n      add\n      swap2\n      swap1\n      swap2\n      mstore\n      0x40\n      add\n      0x00\n      keccak256\n        /* \"contracts/Marketplace.sol\":4207:4229  _idToNFT[i + 1].seller */\n      0x02\n      add\n      sload\n      sub(shl(0xa0, 0x01), 0x01)\n      and\n        /* \"contracts/Marketplace.sol\":4207:4243  _idToNFT[i + 1].seller == msg.sender */\n      eq\n        /* \"contracts/Marketplace.sol\":4207:4269  _idToNFT[i + 1].seller == msg.sender && _idToNFT[i + 1].listed */\n      dup1\n      iszero\n      tag_80\n      jumpi\n      pop\n        /* \"contracts/Marketplace.sol\":4247:4255  _idToNFT */\n      0x05\n        /* \"contracts/Marketplace.sol\":4247:4262  _idToNFT[i + 1] */\n      0x00\n        /* \"contracts/Marketplace.sol\":4256:4261  i + 1 */\n      tag_81\n        /* \"contracts/Marketplace.sol\":4256:4257  i */\n      dup4\n        /* \"contracts/Marketplace.sol\":4260:4261  1 */\n      0x01\n        /* \"contracts/Marketplace.sol\":4256:4261  i + 1 */\n      tag_51\n      jump\t// in\n    tag_81:\n        /* \"contracts/Marketplace.sol\":4247:4262  _idToNFT[i + 1] */\n      dup2\n      mstore\n      0x20\n      dup2\n      add\n      swap2\n      swap1\n      swap2\n      mstore\n      0x40\n      add\n      0x00\n      keccak256\n        /* \"contracts/Marketplace.sol\":4247:4269  _idToNFT[i + 1].listed */\n      0x05\n      add\n      sload\n      0xff\n      and\n        /* \"contracts/Marketplace.sol\":4207:4269  _idToNFT[i + 1].seller == msg.sender && _idToNFT[i + 1].listed */\n    tag_80:\n        /* \"contracts/Marketplace.sol\":4203:4310  if (_idToNFT[i + 1].seller == msg.sender && _idToNFT[i + 1].listed) {... */\n      iszero\n      tag_82\n      jumpi\n        /* \"contracts/Marketplace.sol\":4282:4300  myListedNftCount++ */\n      dup2\n      tag_83\n      dup2\n      tag_54\n      jump\t// in\n    tag_83:\n      swap3\n      pop\n      pop\n        /* \"contracts/Marketplace.sol\":4203:4310  if (_idToNFT[i + 1].seller == msg.sender && _idToNFT[i + 1].listed) {... */\n    tag_82:\n        /* \"contracts/Marketplace.sol\":4189:4192  i++ */\n      dup1\n      tag_84\n      dup2\n      tag_54\n      jump\t// in\n    tag_84:\n      swap2\n      pop\n      pop\n        /* \"contracts/Marketplace.sol\":4158:4317  for (uint i = 0; i < nftCount; i++) {... */\n      jump(tag_76)\n    tag_77:\n      pop\n        /* \"contracts/Marketplace.sol\":4325:4342  NFT[] memory nfts */\n      0x00\n        /* \"contracts/Marketplace.sol\":4355:4371  myListedNftCount */\n      dup2\n        /* \"contracts/Marketplace.sol\":4345:4372  new NFT[](myListedNftCount) */\n      0xffffffffffffffff\n      dup2\n      gt\n      iszero\n      tag_86\n      jumpi\n      tag_86\n      tag_58\n      jump\t// in\n    tag_86:\n      mload(0x40)\n      swap1\n      dup1\n      dup3\n      mstore\n      dup1\n      0x20\n      mul\n      0x20\n      add\n      dup3\n      add\n      0x40\n      mstore\n      dup1\n      iszero\n      tag_87\n      jumpi\n      dup2\n      0x20\n      add\n    tag_88:\n      tag_89\n      tag_62\n      jump\t// in\n    tag_89:\n      dup2\n      mstore\n      0x20\n      add\n      swap1\n      0x01\n      swap1\n      sub\n      swap1\n      dup2\n      tag_88\n      jumpi\n      swap1\n      pop\n    tag_87:\n      pop\n        /* \"contracts/Marketplace.sol\":4325:4372  NFT[] memory nfts = new NFT[](myListedNftCount) */\n      swap1\n      pop\n        /* \"contracts/Marketplace.sol\":4379:4393  uint nftsIndex */\n      0x00\n        /* \"contracts/Marketplace.sol\":4409:4415  uint i */\n      dup1\n        /* \"contracts/Marketplace.sol\":4404:4600  for (uint i = 0; i < nftCount; i++) {... */\n    tag_90:\n        /* \"contracts/Marketplace.sol\":4425:4433  nftCount */\n      dup5\n        /* \"contracts/Marketplace.sol\":4421:4422  i */\n      dup2\n        /* \"contracts/Marketplace.sol\":4421:4433  i < nftCount */\n      lt\n        /* \"contracts/Marketplace.sol\":4404:4600  for (uint i = 0; i < nftCount; i++) {... */\n      iszero\n      tag_64\n      jumpi\n        /* \"contracts/Marketplace.sol\":4479:4489  msg.sender */\n      caller\n        /* \"contracts/Marketplace.sol\":4453:4461  _idToNFT */\n      0x05\n        /* \"contracts/Marketplace.sol\":4453:4468  _idToNFT[i + 1] */\n      0x00\n        /* \"contracts/Marketplace.sol\":4462:4467  i + 1 */\n      tag_93\n        /* \"contracts/Marketplace.sol\":4462:4463  i */\n      dup5\n        /* \"contracts/Marketplace.sol\":4466:4467  1 */\n      0x01\n        /* \"contracts/Marketplace.sol\":4462:4467  i + 1 */\n      tag_51\n      jump\t// in\n    tag_93:\n        /* \"contracts/Marketplace.sol\":4453:4468  _idToNFT[i + 1] */\n      dup2\n      mstore\n      0x20\n      dup2\n      add\n      swap2\n      swap1\n      swap2\n      mstore\n      0x40\n      add\n      0x00\n      keccak256\n        /* \"contracts/Marketplace.sol\":4453:4475  _idToNFT[i + 1].seller */\n      0x02\n      add\n      sload\n      sub(shl(0xa0, 0x01), 0x01)\n      and\n        /* \"contracts/Marketplace.sol\":4453:4489  _idToNFT[i + 1].seller == msg.sender */\n      eq\n        /* \"contracts/Marketplace.sol\":4453:4515  _idToNFT[i + 1].seller == msg.sender && _idToNFT[i + 1].listed */\n      dup1\n      iszero\n      tag_94\n      jumpi\n      pop\n        /* \"contracts/Marketplace.sol\":4493:4501  _idToNFT */\n      0x05\n        /* \"contracts/Marketplace.sol\":4493:4508  _idToNFT[i + 1] */\n      0x00\n        /* \"contracts/Marketplace.sol\":4502:4507  i + 1 */\n      tag_95\n        /* \"contracts/Marketplace.sol\":4502:4503  i */\n      dup4\n        /* \"contracts/Marketplace.sol\":4506:4507  1 */\n      0x01\n        /* \"contracts/Marketplace.sol\":4502:4507  i + 1 */\n      tag_51\n      jump\t// in\n    tag_95:\n        /* \"contracts/Marketplace.sol\":4493:4508  _idToNFT[i + 1] */\n      dup2\n      mstore\n      0x20\n      dup2\n      add\n      swap2\n      swap1\n      swap2\n      mstore\n      0x40\n      add\n      0x00\n      keccak256\n        /* \"contracts/Marketplace.sol\":4493:4515  _idToNFT[i + 1].listed */\n      0x05\n      add\n      sload\n      0xff\n      and\n        /* \"contracts/Marketplace.sol\":4453:4515  _idToNFT[i + 1].seller == msg.sender && _idToNFT[i + 1].listed */\n    tag_94:\n        /* \"contracts/Marketplace.sol\":4449:4593  if (_idToNFT[i + 1].seller == msg.sender && _idToNFT[i + 1].listed) {... */\n      iszero\n      tag_96\n      jumpi\n        /* \"contracts/Marketplace.sol\":4546:4554  _idToNFT */\n      0x05\n        /* \"contracts/Marketplace.sol\":4546:4561  _idToNFT[i + 1] */\n      0x00\n        /* \"contracts/Marketplace.sol\":4555:4560  i + 1 */\n      tag_97\n        /* \"contracts/Marketplace.sol\":4555:4556  i */\n      dup4\n        /* \"contracts/Marketplace.sol\":4559:4560  1 */\n      0x01\n        /* \"contracts/Marketplace.sol\":4555:4560  i + 1 */\n      tag_51\n      jump\t// in\n    tag_97:\n        /* \"contracts/Marketplace.sol\":4546:4561  _idToNFT[i + 1] */\n      dup2\n      mstore\n      0x20\n      dup1\n      dup3\n      add\n      swap3\n      swap1\n      swap3\n      mstore\n      0x40\n      swap1\n      dup2\n      add\n      0x00\n      keccak256\n        /* \"contracts/Marketplace.sol\":4528:4561  nfts[nftsIndex] = _idToNFT[i + 1] */\n      dup2\n      mload\n      0xc0\n      dup2\n      add\n      dup4\n      mstore\n      dup2\n      sload\n      sub(shl(0xa0, 0x01), 0x01)\n      swap1\n      dup2\n      and\n      dup3\n      mstore\n      0x01\n      dup4\n      add\n      sload\n      swap5\n      dup3\n      add\n      swap5\n      swap1\n      swap5\n      mstore\n      0x02\n      dup3\n      add\n      sload\n      dup5\n      and\n      swap3\n      dup2\n      add\n      swap3\n      swap1\n      swap3\n      mstore\n      0x03\n      dup2\n      add\n      sload\n      swap1\n      swap3\n      and\n      0x60\n      dup3\n      add\n      mstore\n      0x04\n      dup3\n      add\n      sload\n      0x80\n      dup3\n      add\n      mstore\n      0x05\n      swap1\n      swap2\n      add\n      sload\n      0xff\n      and\n      iszero\n      iszero\n      0xa0\n      dup3\n      add\n      mstore\n        /* \"contracts/Marketplace.sol\":4528:4543  nfts[nftsIndex] */\n      dup4\n      mload\n        /* \"contracts/Marketplace.sol\":4528:4532  nfts */\n      dup5\n      swap1\n        /* \"contracts/Marketplace.sol\":4533:4542  nftsIndex */\n      dup5\n      swap1\n        /* \"contracts/Marketplace.sol\":4528:4543  nfts[nftsIndex] */\n      dup2\n      lt\n      tag_99\n      jumpi\n      tag_99\n      tag_71\n      jump\t// in\n    tag_99:\n      0x20\n      mul\n      0x20\n      add\n      add\n        /* \"contracts/Marketplace.sol\":4528:4561  nfts[nftsIndex] = _idToNFT[i + 1] */\n      dup2\n      swap1\n      mstore\n      pop\n        /* \"contracts/Marketplace.sol\":4572:4583  nftsIndex++ */\n      dup2\n      dup1\n      tag_100\n      swap1\n      tag_54\n      jump\t// in\n    tag_100:\n      swap3\n      pop\n      pop\n        /* \"contracts/Marketplace.sol\":4449:4593  if (_idToNFT[i + 1].seller == msg.sender && _idToNFT[i + 1].listed) {... */\n    tag_96:\n        /* \"contracts/Marketplace.sol\":4435:4438  i++ */\n      dup1\n      tag_101\n      dup2\n      tag_54\n      jump\t// in\n    tag_101:\n      swap2\n      pop\n      pop\n        /* \"contracts/Marketplace.sol\":4404:4600  for (uint i = 0; i < nftCount; i++) {... */\n      jump(tag_90)\n        /* \"contracts/Marketplace.sol\":2334:2941  function resellNft(address _nftContract, uint256 _tokenId, uint256 _price) public payable nonReentrant {... */\n    tag_28:\n        /* \"@openzeppelin/contracts/security/ReentrancyGuard.sol\":1680:1681  2 */\n      0x02\n        /* \"@openzeppelin/contracts/security/ReentrancyGuard.sol\":2259:2266  _status */\n      sload(0x00)\n        /* \"@openzeppelin/contracts/security/ReentrancyGuard.sol\":2259:2278  _status != _ENTERED */\n      sub\n        /* \"@openzeppelin/contracts/security/ReentrancyGuard.sol\":2251:2314  require(_status != _ENTERED, \"ReentrancyGuard: reentrant call\") */\n      tag_103\n      jumpi\n      mload(0x40)\n      shl(0xe5, 0x461bcd)\n      dup2\n      mstore\n      0x04\n      add\n      tag_104\n      swap1\n      tag_105\n      jump\t// in\n    tag_104:\n      mload(0x40)\n      dup1\n      swap2\n      sub\n      swap1\n      revert\n    tag_103:\n        /* \"@openzeppelin/contracts/security/ReentrancyGuard.sol\":1680:1681  2 */\n      0x02\n        /* \"@openzeppelin/contracts/security/ReentrancyGuard.sol\":2389:2396  _status */\n      0x00\n        /* \"@openzeppelin/contracts/security/ReentrancyGuard.sol\":2389:2407  _status = _ENTERED */\n      sstore\n        /* \"contracts/Marketplace.sol\":2452:2462  _price > 0 */\n      dup1\n        /* \"contracts/Marketplace.sol\":2444:2495  require(_price > 0, \"Price must be at least 1 wei\") */\n      tag_107\n      jumpi\n      mload(0x40)\n      shl(0xe5, 0x461bcd)\n      dup2\n      mstore\n        /* \"#utility.yul\":3353:3355   */\n      0x20\n        /* \"contracts/Marketplace.sol\":2444:2495  require(_price > 0, \"Price must be at least 1 wei\") */\n      0x04\n      dup3\n      add\n        /* \"#utility.yul\":3335:3356   */\n      mstore\n        /* \"#utility.yul\":3392:3394   */\n      0x1c\n        /* \"#utility.yul\":3372:3390   */\n      0x24\n      dup3\n      add\n        /* \"#utility.yul\":3365:3395   */\n      mstore\n        /* \"#utility.yul\":3431:3461   */\n      0x5072696365206d757374206265206174206c6561737420312077656900000000\n        /* \"#utility.yul\":3411:3429   */\n      0x44\n      dup3\n      add\n        /* \"#utility.yul\":3404:3462   */\n      mstore\n        /* \"#utility.yul\":3479:3497   */\n      0x64\n      add\n        /* \"contracts/Marketplace.sol\":2444:2495  require(_price > 0, \"Price must be at least 1 wei\") */\n      tag_104\n        /* \"#utility.yul\":3151:3503   */\n      jump\n        /* \"contracts/Marketplace.sol\":2444:2495  require(_price > 0, \"Price must be at least 1 wei\") */\n    tag_107:\n        /* \"contracts/Marketplace.sol\":2523:2534  LISTING_FEE */\n      sload(0x03)\n        /* \"contracts/Marketplace.sol\":2510:2519  msg.value */\n      callvalue\n        /* \"contracts/Marketplace.sol\":2510:2534  msg.value == LISTING_FEE */\n      eq\n        /* \"contracts/Marketplace.sol\":2502:2571  require(msg.value == LISTING_FEE, \"Not enough ether for listing fee\") */\n      tag_110\n      jumpi\n      mload(0x40)\n      shl(0xe5, 0x461bcd)\n      dup2\n      mstore\n        /* \"#utility.yul\":3710:3712   */\n      0x20\n        /* \"contracts/Marketplace.sol\":2502:2571  require(msg.value == LISTING_FEE, \"Not enough ether for listing fee\") */\n      0x04\n      dup3\n      add\n        /* \"#utility.yul\":3692:3713   */\n      dup2\n      swap1\n      mstore\n        /* \"#utility.yul\":3729:3747   */\n      0x24\n      dup3\n      add\n        /* \"#utility.yul\":3722:3752   */\n      mstore\n        /* \"#utility.yul\":3788:3822   */\n      0x4e6f7420656e6f75676820657468657220666f72206c697374696e6720666565\n        /* \"#utility.yul\":3768:3786   */\n      0x44\n      dup3\n      add\n        /* \"#utility.yul\":3761:3823   */\n      mstore\n        /* \"#utility.yul\":3840:3858   */\n      0x64\n      add\n        /* \"contracts/Marketplace.sol\":2502:2571  require(msg.value == LISTING_FEE, \"Not enough ether for listing fee\") */\n      tag_104\n        /* \"#utility.yul\":3508:3864   */\n      jump\n        /* \"contracts/Marketplace.sol\":2502:2571  require(msg.value == LISTING_FEE, \"Not enough ether for listing fee\") */\n    tag_110:\n        /* \"contracts/Marketplace.sol\":2580:2651  IERC721(_nftContract).transferFrom(msg.sender, address(this), _tokenId) */\n      mload(0x40)\n      shl(0xe0, 0x23b872dd)\n      dup2\n      mstore\n        /* \"contracts/Marketplace.sol\":2615:2625  msg.sender */\n      caller\n        /* \"contracts/Marketplace.sol\":2580:2651  IERC721(_nftContract).transferFrom(msg.sender, address(this), _tokenId) */\n      0x04\n      dup3\n      add\n        /* \"#utility.yul\":4109:4143   */\n      mstore\n        /* \"contracts/Marketplace.sol\":2635:2639  this */\n      address\n        /* \"#utility.yul\":4159:4177   */\n      0x24\n      dup3\n      add\n        /* \"#utility.yul\":4152:4195   */\n      mstore\n        /* \"#utility.yul\":4211:4229   */\n      0x44\n      dup2\n      add\n        /* \"#utility.yul\":4204:4238   */\n      dup4\n      swap1\n      mstore\n      sub(shl(0xa0, 0x01), 0x01)\n        /* \"contracts/Marketplace.sol\":2580:2614  IERC721(_nftContract).transferFrom */\n      dup5\n      and\n      swap1\n      0x23b872dd\n      swap1\n        /* \"#utility.yul\":4044:4062   */\n      0x64\n      add\n        /* \"contracts/Marketplace.sol\":2580:2651  IERC721(_nftContract).transferFrom(msg.sender, address(this), _tokenId) */\n      0x00\n      mload(0x40)\n      dup1\n      dup4\n      sub\n      dup2\n      0x00\n      dup8\n      dup1\n      extcodesize\n      iszero\n      dup1\n      iszero\n      tag_115\n      jumpi\n      0x00\n      dup1\n      revert\n    tag_115:\n      pop\n      gas\n      call\n      iszero\n      dup1\n      iszero\n      tag_117\n      jumpi\n      returndatasize\n      0x00\n      dup1\n      returndatacopy\n      revert(0x00, returndatasize)\n    tag_117:\n      pop\n      pop\n      pop\n        /* \"contracts/Marketplace.sol\":2660:2675  NFT storage nft */\n      0x00\n        /* \"contracts/Marketplace.sol\":2678:2696  _idToNFT[_tokenId] */\n      dup4\n      dup2\n      mstore\n        /* \"contracts/Marketplace.sol\":2678:2686  _idToNFT */\n      0x05\n        /* \"contracts/Marketplace.sol\":2678:2696  _idToNFT[_tokenId] */\n      0x20\n      dup2\n      swap1\n      mstore\n      0x40\n      swap1\n      swap2\n      keccak256\n        /* \"contracts/Marketplace.sol\":2703:2713  nft.seller */\n      0x02\n      dup2\n      add\n        /* \"contracts/Marketplace.sol\":2703:2735  nft.seller = payable(msg.sender) */\n      dup1\n      sload\n      not(sub(shl(0xa0, 0x01), 0x01))\n      swap1\n      dup2\n      and\n        /* \"contracts/Marketplace.sol\":2724:2734  msg.sender */\n      caller\n        /* \"contracts/Marketplace.sol\":2703:2735  nft.seller = payable(msg.sender) */\n      or\n      swap1\n      swap2\n      sstore\n        /* \"contracts/Marketplace.sol\":2742:2751  nft.owner */\n      0x03\n      dup3\n      add\n        /* \"contracts/Marketplace.sol\":2742:2776  nft.owner = payable(address(this)) */\n      dup1\n      sload\n      swap1\n      swap2\n      and\n        /* \"contracts/Marketplace.sol\":2770:2774  this */\n      address\n        /* \"contracts/Marketplace.sol\":2742:2776  nft.owner = payable(address(this)) */\n      or\n      swap1\n      sstore\n        /* \"contracts/Marketplace.sol\":2783:2793  nft.listed */\n      swap1\n      dup2\n      add\n        /* \"contracts/Marketplace.sol\":2783:2800  nft.listed = true */\n      dup1\n      sload\n      not(0xff)\n      and\n        /* \"contracts/Marketplace.sol\":2703:2735  nft.seller = payable(msg.sender) */\n      0x01\n        /* \"contracts/Marketplace.sol\":2783:2800  nft.listed = true */\n      swap1\n      dup2\n      or\n      swap1\n      swap2\n      sstore\n        /* \"contracts/Marketplace.sol\":2807:2816  nft.price */\n      0x04\n      dup3\n      add\n        /* \"contracts/Marketplace.sol\":2807:2825  nft.price = _price */\n      dup5\n      swap1\n      sstore\n        /* \"contracts/Marketplace.sol\":2678:2696  _idToNFT[_tokenId] */\n      swap1\n      swap2\n      pop\n        /* \"contracts/Marketplace.sol\":2834:2855  _nftsSold.decrement() */\n      tag_118\n      swap1\n        /* \"contracts/Marketplace.sol\":2834:2853  _nftsSold.decrement */\n      tag_119\n        /* \"contracts/Marketplace.sol\":2834:2855  _nftsSold.decrement() */\n      jump\t// in\n    tag_118:\n        /* \"contracts/Marketplace.sol\":2867:2935  NFTListed(_nftContract, _tokenId, msg.sender, address(this), _price) */\n      0xa0c6c0d02d86fdacecbaa5fdf5894bab204e31a778250474108540733a9b8d19\n        /* \"contracts/Marketplace.sol\":2877:2889  _nftContract */\n      dup5\n        /* \"contracts/Marketplace.sol\":2891:2899  _tokenId */\n      dup5\n        /* \"contracts/Marketplace.sol\":2901:2911  msg.sender */\n      caller\n        /* \"contracts/Marketplace.sol\":2921:2925  this */\n      address\n        /* \"contracts/Marketplace.sol\":2928:2934  _price */\n      dup7\n        /* \"contracts/Marketplace.sol\":2867:2935  NFTListed(_nftContract, _tokenId, msg.sender, address(this), _price) */\n      mload(0x40)\n      tag_120\n      swap6\n      swap5\n      swap4\n      swap3\n      swap2\n      swap1\n      tag_121\n      jump\t// in\n    tag_120:\n      mload(0x40)\n      dup1\n      swap2\n      sub\n      swap1\n      log1\n      pop\n      pop\n        /* \"@openzeppelin/contracts/security/ReentrancyGuard.sol\":1637:1638  1 */\n      0x01\n        /* \"@openzeppelin/contracts/security/ReentrancyGuard.sol\":2562:2569  _status */\n      0x00\n        /* \"@openzeppelin/contracts/security/ReentrancyGuard.sol\":2562:2584  _status = _NOT_ENTERED */\n      sstore\n      pop\n      pop\n        /* \"contracts/Marketplace.sol\":2334:2941  function resellNft(address _nftContract, uint256 _tokenId, uint256 _price) public payable nonReentrant {... */\n      jump\t// out\n        /* \"contracts/Marketplace.sol\":1694:2277  function buyNft(address _nftContract, uint256 _tokenId) public payable nonReentrant {... */\n    tag_32:\n        /* \"@openzeppelin/contracts/security/ReentrancyGuard.sol\":1680:1681  2 */\n      0x02\n        /* \"@openzeppelin/contracts/security/ReentrancyGuard.sol\":2259:2266  _status */\n      sload(0x00)\n        /* \"@openzeppelin/contracts/security/ReentrancyGuard.sol\":2259:2278  _status != _ENTERED */\n      sub\n        /* \"@openzeppelin/contracts/security/ReentrancyGuard.sol\":2251:2314  require(_status != _ENTERED, \"ReentrancyGuard: reentrant call\") */\n      tag_123\n      jumpi\n      mload(0x40)\n      shl(0xe5, 0x461bcd)\n      dup2\n      mstore\n      0x04\n      add\n      tag_104\n      swap1\n      tag_105\n      jump\t// in\n    tag_123:\n        /* \"@openzeppelin/contracts/security/ReentrancyGuard.sol\":1680:1681  2 */\n      0x02\n        /* \"@openzeppelin/contracts/security/ReentrancyGuard.sol\":2389:2396  _status */\n      0x00\n        /* \"@openzeppelin/contracts/security/ReentrancyGuard.sol\":2389:2407  _status = _ENTERED */\n      swap1\n      dup2\n      sstore\n        /* \"contracts/Marketplace.sol\":1803:1821  _idToNFT[_tokenId] */\n      dup2\n      dup2\n      mstore\n        /* \"contracts/Marketplace.sol\":1803:1811  _idToNFT */\n      0x05\n        /* \"contracts/Marketplace.sol\":1803:1821  _idToNFT[_tokenId] */\n      0x20\n      mstore\n      0x40\n      swap1\n      keccak256\n        /* \"contracts/Marketplace.sol\":1849:1858  nft.price */\n      0x04\n      dup2\n      add\n      sload\n        /* \"contracts/Marketplace.sol\":1836:1845  msg.value */\n      callvalue\n        /* \"contracts/Marketplace.sol\":1836:1858  msg.value >= nft.price */\n      lt\n      iszero\n        /* \"contracts/Marketplace.sol\":1828:1901  require(msg.value >= nft.price, \"Not enough ether to cover asking price\") */\n      tag_126\n      jumpi\n      mload(0x40)\n      shl(0xe5, 0x461bcd)\n      dup2\n      mstore\n        /* \"#utility.yul\":4984:4986   */\n      0x20\n        /* \"contracts/Marketplace.sol\":1828:1901  require(msg.value >= nft.price, \"Not enough ether to cover asking price\") */\n      0x04\n      dup3\n      add\n        /* \"#utility.yul\":4966:4987   */\n      mstore\n        /* \"#utility.yul\":5023:5025   */\n      0x26\n        /* \"#utility.yul\":5003:5021   */\n      0x24\n      dup3\n      add\n        /* \"#utility.yul\":4996:5026   */\n      mstore\n        /* \"#utility.yul\":5062:5096   */\n      0x4e6f7420656e6f75676820657468657220746f20636f7665722061736b696e67\n        /* \"#utility.yul\":5042:5060   */\n      0x44\n      dup3\n      add\n        /* \"#utility.yul\":5035:5097   */\n      mstore\n      shl(0xd0, 0x207072696365)\n        /* \"#utility.yul\":5113:5131   */\n      0x64\n      dup3\n      add\n        /* \"#utility.yul\":5106:5142   */\n      mstore\n        /* \"#utility.yul\":5159:5178   */\n      0x84\n      add\n        /* \"contracts/Marketplace.sol\":1828:1901  require(msg.value >= nft.price, \"Not enough ether to cover asking price\") */\n      tag_104\n        /* \"#utility.yul\":4782:5184   */\n      jump\n        /* \"contracts/Marketplace.sol\":1828:1901  require(msg.value >= nft.price, \"Not enough ether to cover asking price\") */\n    tag_126:\n        /* \"contracts/Marketplace.sol\":1968:1978  nft.seller */\n      0x02\n      dup2\n      add\n      sload\n        /* \"contracts/Marketplace.sol\":1960:1999  payable(nft.seller).transfer(msg.value) */\n      mload(0x40)\n        /* \"contracts/Marketplace.sol\":1942:1952  msg.sender */\n      caller\n      swap2\n      sub(shl(0xa0, 0x01), 0x01)\n        /* \"contracts/Marketplace.sol\":1968:1978  nft.seller */\n      and\n      swap1\n        /* \"contracts/Marketplace.sol\":1989:1998  msg.value */\n      callvalue\n        /* \"contracts/Marketplace.sol\":1960:1999  payable(nft.seller).transfer(msg.value) */\n      dup1\n      iszero\n      0x08fc\n      mul\n      swap2\n        /* \"contracts/Marketplace.sol\":1910:1931  address payable buyer */\n      0x00\n        /* \"contracts/Marketplace.sol\":1960:1999  payable(nft.seller).transfer(msg.value) */\n      dup2\n        /* \"contracts/Marketplace.sol\":1910:1931  address payable buyer */\n      dup2\n        /* \"contracts/Marketplace.sol\":1960:1999  payable(nft.seller).transfer(msg.value) */\n      dup2\n        /* \"contracts/Marketplace.sol\":1989:1998  msg.value */\n      dup6\n        /* \"contracts/Marketplace.sol\":1968:1978  nft.seller */\n      dup9\n        /* \"contracts/Marketplace.sol\":1960:1999  payable(nft.seller).transfer(msg.value) */\n      dup9\n      call\n      swap4\n      pop\n      pop\n      pop\n      pop\n      iszero\n      dup1\n      iszero\n      tag_130\n      jumpi\n      returndatasize\n      0x00\n      dup1\n      returndatacopy\n      revert(0x00, returndatasize)\n    tag_130:\n      pop\n        /* \"contracts/Marketplace.sol\":2063:2074  nft.tokenId */\n      0x01\n      dup3\n      add\n      sload\n        /* \"contracts/Marketplace.sol\":2006:2075  IERC721(_nftContract).transferFrom(address(this), buyer, nft.tokenId) */\n      mload(0x40)\n      shl(0xe0, 0x23b872dd)\n      dup2\n      mstore\n        /* \"contracts/Marketplace.sol\":2049:2053  this */\n      address\n        /* \"contracts/Marketplace.sol\":2006:2075  IERC721(_nftContract).transferFrom(address(this), buyer, nft.tokenId) */\n      0x04\n      dup3\n      add\n        /* \"#utility.yul\":4109:4143   */\n      mstore\n      sub(shl(0xa0, 0x01), 0x01)\n        /* \"#utility.yul\":4179:4194   */\n      dup4\n      dup2\n      and\n        /* \"#utility.yul\":4159:4177   */\n      0x24\n      dup4\n      add\n        /* \"#utility.yul\":4152:4195   */\n      mstore\n        /* \"#utility.yul\":4211:4229   */\n      0x44\n      dup3\n      add\n        /* \"#utility.yul\":4204:4238   */\n      swap3\n      swap1\n      swap3\n      mstore\n        /* \"contracts/Marketplace.sol\":2006:2040  IERC721(_nftContract).transferFrom */\n      swap1\n      dup6\n      and\n      swap1\n      0x23b872dd\n      swap1\n        /* \"#utility.yul\":4044:4062   */\n      0x64\n      add\n        /* \"contracts/Marketplace.sol\":2006:2075  IERC721(_nftContract).transferFrom(address(this), buyer, nft.tokenId) */\n      0x00\n      mload(0x40)\n      dup1\n      dup4\n      sub\n      dup2\n      0x00\n      dup8\n      dup1\n      extcodesize\n      iszero\n      dup1\n      iszero\n      tag_133\n      jumpi\n      0x00\n      dup1\n      revert\n    tag_133:\n      pop\n      gas\n      call\n      iszero\n      dup1\n      iszero\n      tag_135\n      jumpi\n      returndatasize\n      0x00\n      dup1\n      returndatacopy\n      revert(0x00, returndatasize)\n    tag_135:\n      pop\n      pop\n        /* \"contracts/Marketplace.sol\":2082:2094  _marketOwner */\n      sload(0x04)\n        /* \"contracts/Marketplace.sol\":2104:2115  LISTING_FEE */\n      sload(0x03)\n        /* \"contracts/Marketplace.sol\":2082:2116  _marketOwner.transfer(LISTING_FEE) */\n      mload(0x40)\n      sub(shl(0xa0, 0x01), 0x01)\n        /* \"contracts/Marketplace.sol\":2082:2094  _marketOwner */\n      swap1\n      swap3\n      and\n      swap4\n      pop\n        /* \"contracts/Marketplace.sol\":2082:2116  _marketOwner.transfer(LISTING_FEE) */\n      dup1\n      iszero\n      0x08fc\n      mul\n      swap3\n      pop\n        /* \"contracts/Marketplace.sol\":2104:2115  LISTING_FEE */\n      swap1\n        /* \"contracts/Marketplace.sol\":2082:2094  _marketOwner */\n      0x00\n        /* \"contracts/Marketplace.sol\":2082:2116  _marketOwner.transfer(LISTING_FEE) */\n      dup2\n        /* \"contracts/Marketplace.sol\":2082:2094  _marketOwner */\n      dup2\n        /* \"contracts/Marketplace.sol\":2082:2116  _marketOwner.transfer(LISTING_FEE) */\n      dup2\n        /* \"contracts/Marketplace.sol\":2104:2115  LISTING_FEE */\n      dup6\n        /* \"contracts/Marketplace.sol\":2082:2094  _marketOwner */\n      dup9\n        /* \"contracts/Marketplace.sol\":2082:2116  _marketOwner.transfer(LISTING_FEE) */\n      dup9\n      call\n      swap4\n      pop\n      pop\n      pop\n      pop\n      iszero\n      dup1\n      iszero\n      tag_137\n      jumpi\n      returndatasize\n      0x00\n      dup1\n      returndatacopy\n      revert(0x00, returndatasize)\n    tag_137:\n      pop\n        /* \"contracts/Marketplace.sol\":2123:2132  nft.owner */\n      0x03\n      dup3\n      add\n        /* \"contracts/Marketplace.sol\":2123:2140  nft.owner = buyer */\n      dup1\n      sload\n      not(sub(shl(0xa0, 0x01), 0x01))\n      and\n      sub(shl(0xa0, 0x01), 0x01)\n      dup4\n      and\n      or\n      swap1\n      sstore\n        /* \"contracts/Marketplace.sol\":2147:2157  nft.listed */\n      0x05\n      dup3\n      add\n        /* \"contracts/Marketplace.sol\":2147:2165  nft.listed = false */\n      dup1\n      sload\n      not(0xff)\n      and\n      swap1\n      sstore\n      0x01\n        /* \"@openzeppelin/contracts/utils/Counters.sol\":1032:1051  counter._value += 1 */\n      dup1\n      sload\n      dup2\n      add\n      swap1\n      sstore\n        /* \"contracts/Marketplace.sol\":2229:2240  nft.tokenId */\n      0x01\n      dup3\n      add\n      sload\n        /* \"contracts/Marketplace.sol\":2242:2252  nft.seller */\n      0x02\n      dup4\n      add\n      sload\n        /* \"contracts/Marketplace.sol\":2207:2271  NFTSold(_nftContract, nft.tokenId, nft.seller, buyer, msg.value) */\n      mload(0x40)\n      0x16f1dbd97e6bf646d429ed186cce832f1f7fd9907814293b83181e9970ab7bd2\n      swap3\n      tag_120\n      swap3\n        /* \"contracts/Marketplace.sol\":2215:2227  _nftContract */\n      dup9\n      swap3\n      sub(shl(0xa0, 0x01), 0x01)\n        /* \"contracts/Marketplace.sol\":2242:2252  nft.seller */\n      swap1\n      swap2\n      and\n      swap1\n        /* \"contracts/Marketplace.sol\":2254:2259  buyer */\n      dup7\n      swap1\n        /* \"contracts/Marketplace.sol\":2261:2270  msg.value */\n      callvalue\n      swap1\n        /* \"contracts/Marketplace.sol\":2207:2271  NFTSold(_nftContract, nft.tokenId, nft.seller, buyer, msg.value) */\n      tag_121\n      jump\t// in\n        /* \"contracts/Marketplace.sol\":3039:3473  function getListedNfts() public view returns (NFT[] memory) {... */\n    tag_35:\n        /* \"contracts/Marketplace.sol\":3085:3097  NFT[] memory */\n      0x60\n        /* \"contracts/Marketplace.sol\":3106:3122  uint256 nftCount */\n      0x00\n        /* \"contracts/Marketplace.sol\":3125:3144  _nftCount.current() */\n      tag_143\n        /* \"contracts/Marketplace.sol\":3125:3134  _nftCount */\n      0x02\n        /* \"@openzeppelin/contracts/utils/Counters.sol\":918:932  counter._value */\n      sload\n      swap1\n        /* \"@openzeppelin/contracts/utils/Counters.sol\":827:939  function current(Counter storage counter) internal view returns (uint256) {... */\n      jump\n        /* \"contracts/Marketplace.sol\":3125:3144  _nftCount.current() */\n    tag_143:\n        /* \"contracts/Marketplace.sol\":3106:3144  uint256 nftCount = _nftCount.current() */\n      swap1\n      pop\n        /* \"contracts/Marketplace.sol\":3151:3174  uint256 unsoldNftsCount */\n      0x00\n        /* \"contracts/Marketplace.sol\":3188:3207  _nftsSold.current() */\n      tag_144\n        /* \"contracts/Marketplace.sol\":3188:3197  _nftsSold */\n      0x01\n        /* \"@openzeppelin/contracts/utils/Counters.sol\":918:932  counter._value */\n      sload\n      swap1\n        /* \"@openzeppelin/contracts/utils/Counters.sol\":827:939  function current(Counter storage counter) internal view returns (uint256) {... */\n      jump\n        /* \"contracts/Marketplace.sol\":3188:3207  _nftsSold.current() */\n    tag_144:\n        /* \"contracts/Marketplace.sol\":3177:3207  nftCount - _nftsSold.current() */\n      tag_145\n      swap1\n        /* \"contracts/Marketplace.sol\":3177:3185  nftCount */\n      dup4\n        /* \"contracts/Marketplace.sol\":3177:3207  nftCount - _nftsSold.current() */\n      tag_146\n      jump\t// in\n    tag_145:\n        /* \"contracts/Marketplace.sol\":3151:3207  uint256 unsoldNftsCount = nftCount - _nftsSold.current() */\n      swap1\n      pop\n        /* \"contracts/Marketplace.sol\":3216:3233  NFT[] memory nfts */\n      0x00\n        /* \"contracts/Marketplace.sol\":3246:3261  unsoldNftsCount */\n      dup2\n        /* \"contracts/Marketplace.sol\":3236:3262  new NFT[](unsoldNftsCount) */\n      0xffffffffffffffff\n      dup2\n      gt\n      iszero\n      tag_148\n      jumpi\n      tag_148\n      tag_58\n      jump\t// in\n    tag_148:\n      mload(0x40)\n      swap1\n      dup1\n      dup3\n      mstore\n      dup1\n      0x20\n      mul\n      0x20\n      add\n      dup3\n      add\n      0x40\n      mstore\n      dup1\n      iszero\n      tag_149\n      jumpi\n      dup2\n      0x20\n      add\n    tag_150:\n      tag_151\n      tag_62\n      jump\t// in\n    tag_151:\n      dup2\n      mstore\n      0x20\n      add\n      swap1\n      0x01\n      swap1\n      sub\n      swap1\n      dup2\n      tag_150\n      jumpi\n      swap1\n      pop\n    tag_149:\n      pop\n        /* \"contracts/Marketplace.sol\":3216:3262  NFT[] memory nfts = new NFT[](unsoldNftsCount) */\n      swap1\n      pop\n        /* \"contracts/Marketplace.sol\":3269:3283  uint nftsIndex */\n      0x00\n        /* \"contracts/Marketplace.sol\":3299:3305  uint i */\n      dup1\n        /* \"contracts/Marketplace.sol\":3294:3450  for (uint i = 0; i < nftCount; i++) {... */\n    tag_152:\n        /* \"contracts/Marketplace.sol\":3315:3323  nftCount */\n      dup5\n        /* \"contracts/Marketplace.sol\":3311:3312  i */\n      dup2\n        /* \"contracts/Marketplace.sol\":3311:3323  i < nftCount */\n      lt\n        /* \"contracts/Marketplace.sol\":3294:3450  for (uint i = 0; i < nftCount; i++) {... */\n      iszero\n      tag_64\n      jumpi\n        /* \"contracts/Marketplace.sol\":3343:3351  _idToNFT */\n      0x05\n        /* \"contracts/Marketplace.sol\":3343:3358  _idToNFT[i + 1] */\n      0x00\n        /* \"contracts/Marketplace.sol\":3352:3357  i + 1 */\n      tag_155\n        /* \"contracts/Marketplace.sol\":3352:3353  i */\n      dup4\n        /* \"contracts/Marketplace.sol\":3356:3357  1 */\n      0x01\n        /* \"contracts/Marketplace.sol\":3352:3357  i + 1 */\n      tag_51\n      jump\t// in\n    tag_155:\n        /* \"contracts/Marketplace.sol\":3343:3358  _idToNFT[i + 1] */\n      dup2\n      mstore\n      0x20\n      dup2\n      add\n      swap2\n      swap1\n      swap2\n      mstore\n      0x40\n      add\n      0x00\n      keccak256\n        /* \"contracts/Marketplace.sol\":3343:3365  _idToNFT[i + 1].listed */\n      0x05\n      add\n      sload\n      0xff\n      and\n        /* \"contracts/Marketplace.sol\":3339:3443  if (_idToNFT[i + 1].listed) {... */\n      iszero\n      tag_156\n      jumpi\n        /* \"contracts/Marketplace.sol\":3396:3404  _idToNFT */\n      0x05\n        /* \"contracts/Marketplace.sol\":3396:3411  _idToNFT[i + 1] */\n      0x00\n        /* \"contracts/Marketplace.sol\":3405:3410  i + 1 */\n      tag_157\n        /* \"contracts/Marketplace.sol\":3405:3406  i */\n      dup4\n        /* \"contracts/Marketplace.sol\":3409:3410  1 */\n      0x01\n        /* \"contracts/Marketplace.sol\":3405:3410  i + 1 */\n      tag_51\n      jump\t// in\n    tag_157:\n        /* \"contracts/Marketplace.sol\":3396:3411  _idToNFT[i + 1] */\n      dup2\n      mstore\n      0x20\n      dup1\n      dup3\n      add\n      swap3\n      swap1\n      swap3\n      mstore\n      0x40\n      swap1\n      dup2\n      add\n      0x00\n      keccak256\n        /* \"contracts/Marketplace.sol\":3378:3411  nfts[nftsIndex] = _idToNFT[i + 1] */\n      dup2\n      mload\n      0xc0\n      dup2\n      add\n      dup4\n      mstore\n      dup2\n      sload\n      sub(shl(0xa0, 0x01), 0x01)\n      swap1\n      dup2\n      and\n      dup3\n      mstore\n      0x01\n      dup4\n      add\n      sload\n      swap5\n      dup3\n      add\n      swap5\n      swap1\n      swap5\n      mstore\n      0x02\n      dup3\n      add\n      sload\n      dup5\n      and\n      swap3\n      dup2\n      add\n      swap3\n      swap1\n      swap3\n      mstore\n      0x03\n      dup2\n      add\n      sload\n      swap1\n      swap3\n      and\n      0x60\n      dup3\n      add\n      mstore\n      0x04\n      dup3\n      add\n      sload\n      0x80\n      dup3\n      add\n      mstore\n      0x05\n      swap1\n      swap2\n      add\n      sload\n      0xff\n      and\n      iszero\n      iszero\n      0xa0\n      dup3\n      add\n      mstore\n        /* \"contracts/Marketplace.sol\":3378:3393  nfts[nftsIndex] */\n      dup4\n      mload\n        /* \"contracts/Marketplace.sol\":3378:3382  nfts */\n      dup5\n      swap1\n        /* \"contracts/Marketplace.sol\":3383:3392  nftsIndex */\n      dup5\n      swap1\n        /* \"contracts/Marketplace.sol\":3378:3393  nfts[nftsIndex] */\n      dup2\n      lt\n      tag_159\n      jumpi\n      tag_159\n      tag_71\n      jump\t// in\n    tag_159:\n      0x20\n      mul\n      0x20\n      add\n      add\n        /* \"contracts/Marketplace.sol\":3378:3411  nfts[nftsIndex] = _idToNFT[i + 1] */\n      dup2\n      swap1\n      mstore\n      pop\n        /* \"contracts/Marketplace.sol\":3422:3433  nftsIndex++ */\n      dup2\n      dup1\n      tag_160\n      swap1\n      tag_54\n      jump\t// in\n    tag_160:\n      swap3\n      pop\n      pop\n        /* \"contracts/Marketplace.sol\":3339:3443  if (_idToNFT[i + 1].listed) {... */\n    tag_156:\n        /* \"contracts/Marketplace.sol\":3325:3328  i++ */\n      dup1\n      tag_161\n      dup2\n      tag_54\n      jump\t// in\n    tag_161:\n      swap2\n      pop\n      pop\n        /* \"contracts/Marketplace.sol\":3294:3450  for (uint i = 0; i < nftCount; i++) {... */\n      jump(tag_152)\n        /* \"contracts/Marketplace.sol\":1072:1671  function listNft(address _nftContract, uint256 _tokenId, uint256 _price) public payable nonReentrant {... */\n    tag_43:\n        /* \"@openzeppelin/contracts/security/ReentrancyGuard.sol\":1680:1681  2 */\n      0x02\n        /* \"@openzeppelin/contracts/security/ReentrancyGuard.sol\":2259:2266  _status */\n      sload(0x00)\n        /* \"@openzeppelin/contracts/security/ReentrancyGuard.sol\":2259:2278  _status != _ENTERED */\n      sub\n        /* \"@openzeppelin/contracts/security/ReentrancyGuard.sol\":2251:2314  require(_status != _ENTERED, \"ReentrancyGuard: reentrant call\") */\n      tag_164\n      jumpi\n      mload(0x40)\n      shl(0xe5, 0x461bcd)\n      dup2\n      mstore\n      0x04\n      add\n      tag_104\n      swap1\n      tag_105\n      jump\t// in\n    tag_164:\n        /* \"@openzeppelin/contracts/security/ReentrancyGuard.sol\":1680:1681  2 */\n      0x02\n        /* \"@openzeppelin/contracts/security/ReentrancyGuard.sol\":2389:2396  _status */\n      0x00\n        /* \"@openzeppelin/contracts/security/ReentrancyGuard.sol\":2389:2407  _status = _ENTERED */\n      sstore\n        /* \"contracts/Marketplace.sol\":1188:1198  _price > 0 */\n      dup1\n        /* \"contracts/Marketplace.sol\":1180:1231  require(_price > 0, \"Price must be at least 1 wei\") */\n      tag_167\n      jumpi\n      mload(0x40)\n      shl(0xe5, 0x461bcd)\n      dup2\n      mstore\n        /* \"#utility.yul\":3353:3355   */\n      0x20\n        /* \"contracts/Marketplace.sol\":1180:1231  require(_price > 0, \"Price must be at least 1 wei\") */\n      0x04\n      dup3\n      add\n        /* \"#utility.yul\":3335:3356   */\n      mstore\n        /* \"#utility.yul\":3392:3394   */\n      0x1c\n        /* \"#utility.yul\":3372:3390   */\n      0x24\n      dup3\n      add\n        /* \"#utility.yul\":3365:3395   */\n      mstore\n        /* \"#utility.yul\":3431:3461   */\n      0x5072696365206d757374206265206174206c6561737420312077656900000000\n        /* \"#utility.yul\":3411:3429   */\n      0x44\n      dup3\n      add\n        /* \"#utility.yul\":3404:3462   */\n      mstore\n        /* \"#utility.yul\":3479:3497   */\n      0x64\n      add\n        /* \"contracts/Marketplace.sol\":1180:1231  require(_price > 0, \"Price must be at least 1 wei\") */\n      tag_104\n        /* \"#utility.yul\":3151:3503   */\n      jump\n        /* \"contracts/Marketplace.sol\":1180:1231  require(_price > 0, \"Price must be at least 1 wei\") */\n    tag_167:\n        /* \"contracts/Marketplace.sol\":1259:1270  LISTING_FEE */\n      sload(0x03)\n        /* \"contracts/Marketplace.sol\":1246:1255  msg.value */\n      callvalue\n        /* \"contracts/Marketplace.sol\":1246:1270  msg.value == LISTING_FEE */\n      eq\n        /* \"contracts/Marketplace.sol\":1238:1307  require(msg.value == LISTING_FEE, \"Not enough ether for listing fee\") */\n      tag_169\n      jumpi\n      mload(0x40)\n      shl(0xe5, 0x461bcd)\n      dup2\n      mstore\n        /* \"#utility.yul\":3710:3712   */\n      0x20\n        /* \"contracts/Marketplace.sol\":1238:1307  require(msg.value == LISTING_FEE, \"Not enough ether for listing fee\") */\n      0x04\n      dup3\n      add\n        /* \"#utility.yul\":3692:3713   */\n      dup2\n      swap1\n      mstore\n        /* \"#utility.yul\":3729:3747   */\n      0x24\n      dup3\n      add\n        /* \"#utility.yul\":3722:3752   */\n      mstore\n        /* \"#utility.yul\":3788:3822   */\n      0x4e6f7420656e6f75676820657468657220666f72206c697374696e6720666565\n        /* \"#utility.yul\":3768:3786   */\n      0x44\n      dup3\n      add\n        /* \"#utility.yul\":3761:3823   */\n      mstore\n        /* \"#utility.yul\":3840:3858   */\n      0x64\n      add\n        /* \"contracts/Marketplace.sol\":1238:1307  require(msg.value == LISTING_FEE, \"Not enough ether for listing fee\") */\n      tag_104\n        /* \"#utility.yul\":3508:3864   */\n      jump\n        /* \"contracts/Marketplace.sol\":1238:1307  require(msg.value == LISTING_FEE, \"Not enough ether for listing fee\") */\n    tag_169:\n        /* \"contracts/Marketplace.sol\":1316:1387  IERC721(_nftContract).transferFrom(msg.sender, address(this), _tokenId) */\n      mload(0x40)\n      shl(0xe0, 0x23b872dd)\n      dup2\n      mstore\n        /* \"contracts/Marketplace.sol\":1351:1361  msg.sender */\n      caller\n        /* \"contracts/Marketplace.sol\":1316:1387  IERC721(_nftContract).transferFrom(msg.sender, address(this), _tokenId) */\n      0x04\n      dup3\n      add\n        /* \"#utility.yul\":4109:4143   */\n      mstore\n        /* \"contracts/Marketplace.sol\":1371:1375  this */\n      address\n        /* \"#utility.yul\":4159:4177   */\n      0x24\n      dup3\n      add\n        /* \"#utility.yul\":4152:4195   */\n      mstore\n        /* \"#utility.yul\":4211:4229   */\n      0x44\n      dup2\n      add\n        /* \"#utility.yul\":4204:4238   */\n      dup4\n      swap1\n      mstore\n      sub(shl(0xa0, 0x01), 0x01)\n        /* \"contracts/Marketplace.sol\":1316:1350  IERC721(_nftContract).transferFrom */\n      dup5\n      and\n      swap1\n      0x23b872dd\n      swap1\n        /* \"#utility.yul\":4044:4062   */\n      0x64\n      add\n        /* \"contracts/Marketplace.sol\":1316:1387  IERC721(_nftContract).transferFrom(msg.sender, address(this), _tokenId) */\n      0x00\n      mload(0x40)\n      dup1\n      dup4\n      sub\n      dup2\n      0x00\n      dup8\n      dup1\n      extcodesize\n      iszero\n      dup1\n      iszero\n      tag_172\n      jumpi\n      0x00\n      dup1\n      revert\n    tag_172:\n      pop\n      gas\n      call\n      iszero\n      dup1\n      iszero\n      tag_174\n      jumpi\n      returndatasize\n      0x00\n      dup1\n      returndatacopy\n      revert(0x00, returndatasize)\n    tag_174:\n      pop\n      pop\n      pop\n      pop\n        /* \"contracts/Marketplace.sol\":1396:1417  _nftCount.increment() */\n      tag_175\n        /* \"contracts/Marketplace.sol\":1396:1405  _nftCount */\n      0x02\n        /* \"@openzeppelin/contracts/utils/Counters.sol\":1032:1051  counter._value += 1 */\n      dup1\n      sload\n        /* \"@openzeppelin/contracts/utils/Counters.sol\":1050:1051  1 */\n      0x01\n        /* \"@openzeppelin/contracts/utils/Counters.sol\":1032:1051  counter._value += 1 */\n      add\n      swap1\n      sstore\n        /* \"@openzeppelin/contracts/utils/Counters.sol\":945:1068  function increment(Counter storage counter) internal {... */\n      jump\n        /* \"contracts/Marketplace.sol\":1396:1417  _nftCount.increment() */\n    tag_175:\n        /* \"contracts/Marketplace.sol\":1447:1583  NFT(... */\n      0x40\n      dup1\n      mload\n      0xc0\n      dup2\n      add\n      dup3\n      mstore\n      sub(shl(0xa0, 0x01), 0x01)\n      dup1\n      dup7\n      and\n      dup3\n      mstore\n      0x20\n      dup1\n      dup4\n      add\n      dup7\n      dup2\n      mstore\n        /* \"contracts/Marketplace.sol\":1506:1516  msg.sender */\n      caller\n        /* \"contracts/Marketplace.sol\":1447:1583  NFT(... */\n      dup5\n      dup7\n      add\n      dup2\n      dup2\n      mstore\n        /* \"contracts/Marketplace.sol\":1542:1546  this */\n      address\n        /* \"contracts/Marketplace.sol\":1447:1583  NFT(... */\n      0x60\n      dup8\n      add\n      dup2\n      dup2\n      mstore\n      0x80\n      dup9\n      add\n      dup11\n      dup2\n      mstore\n        /* \"contracts/Marketplace.sol\":1572:1576  true */\n      0x01\n        /* \"contracts/Marketplace.sol\":1447:1583  NFT(... */\n      0xa0\n      dup11\n      add\n      dup2\n      dup2\n      mstore\n      0x00\n        /* \"contracts/Marketplace.sol\":1426:1444  _idToNFT[_tokenId] */\n      dup15\n      dup2\n      mstore\n        /* \"contracts/Marketplace.sol\":1426:1434  _idToNFT */\n      0x05\n        /* \"contracts/Marketplace.sol\":1426:1444  _idToNFT[_tokenId] */\n      swap10\n      dup11\n      swap1\n      mstore\n      dup13\n      swap1\n      keccak256\n        /* \"contracts/Marketplace.sol\":1426:1583  _idToNFT[_tokenId] = NFT(... */\n      swap11\n      mload\n      dup12\n      sload\n      swap1\n      dup12\n      and\n      not(sub(shl(0xa0, 0x01), 0x01))\n      swap2\n      dup3\n      and\n      or\n      dup13\n      sstore\n      swap8\n      mload\n      swap2\n      dup12\n      add\n      swap2\n      swap1\n      swap2\n      sstore\n      swap4\n      mload\n      0x02\n      dup11\n      add\n      dup1\n      sload\n      swap2\n      dup11\n      and\n      swap2\n      dup9\n      and\n      swap2\n      swap1\n      swap2\n      or\n      swap1\n      sstore\n      swap1\n      mload\n      0x03\n      dup10\n      add\n      dup1\n      sload\n      swap2\n      swap1\n      swap9\n      and\n      swap6\n      and\n      swap5\n      swap1\n      swap5\n      or\n      swap1\n      swap6\n      sstore\n      swap2\n      mload\n      0x04\n      dup7\n      add\n      sstore\n      swap1\n      mload\n      swap4\n      swap1\n      swap2\n      add\n      dup1\n      sload\n      swap4\n      iszero\n      iszero\n      not(0xff)\n      swap1\n      swap5\n      and\n      swap4\n      swap1\n      swap4\n      or\n      swap1\n      swap3\n      sstore\n        /* \"contracts/Marketplace.sol\":1597:1665  NFTListed(_nftContract, _tokenId, msg.sender, address(this), _price) */\n      swap2\n      mload\n      0xa0c6c0d02d86fdacecbaa5fdf5894bab204e31a778250474108540733a9b8d19\n      swap3\n      tag_176\n      swap3\n        /* \"contracts/Marketplace.sol\":1459:1471  _nftContract */\n      dup8\n      swap3\n        /* \"contracts/Marketplace.sol\":1480:1488  _tokenId */\n      dup8\n      swap3\n        /* \"contracts/Marketplace.sol\":1542:1546  this */\n      swap1\n        /* \"contracts/Marketplace.sol\":1557:1563  _price */\n      dup8\n      swap1\n        /* \"contracts/Marketplace.sol\":1597:1665  NFTListed(_nftContract, _tokenId, msg.sender, address(this), _price) */\n      tag_121\n      jump\t// in\n    tag_176:\n      mload(0x40)\n      dup1\n      swap2\n      sub\n      swap1\n      log1\n      pop\n      pop\n        /* \"@openzeppelin/contracts/security/ReentrancyGuard.sol\":1637:1638  1 */\n      0x01\n        /* \"@openzeppelin/contracts/security/ReentrancyGuard.sol\":2562:2569  _status */\n      0x00\n        /* \"@openzeppelin/contracts/security/ReentrancyGuard.sol\":2562:2584  _status = _NOT_ENTERED */\n      sstore\n      pop\n        /* \"contracts/Marketplace.sol\":1072:1671  function listNft(address _nftContract, uint256 _tokenId, uint256 _price) public payable nonReentrant {... */\n      jump\t// out\n        /* \"@openzeppelin/contracts/utils/Counters.sol\":1074:1303  function decrement(Counter storage counter) internal {... */\n    tag_119:\n        /* \"@openzeppelin/contracts/utils/Counters.sol\":1153:1167  counter._value */\n      dup1\n      sload\n        /* \"@openzeppelin/contracts/utils/Counters.sol\":1185:1194  value > 0 */\n      dup1\n        /* \"@openzeppelin/contracts/utils/Counters.sol\":1177:1226  require(value > 0, \"Counter: decrement overflow\") */\n      tag_179\n      jumpi\n      mload(0x40)\n      shl(0xe5, 0x461bcd)\n      dup2\n      mstore\n        /* \"#utility.yul\":6461:6463   */\n      0x20\n        /* \"@openzeppelin/contracts/utils/Counters.sol\":1177:1226  require(value > 0, \"Counter: decrement overflow\") */\n      0x04\n      dup3\n      add\n        /* \"#utility.yul\":6443:6464   */\n      mstore\n        /* \"#utility.yul\":6500:6502   */\n      0x1b\n        /* \"#utility.yul\":6480:6498   */\n      0x24\n      dup3\n      add\n        /* \"#utility.yul\":6473:6503   */\n      mstore\n        /* \"#utility.yul\":6539:6568   */\n      0x436f756e7465723a2064656372656d656e74206f766572666c6f770000000000\n        /* \"#utility.yul\":6519:6537   */\n      0x44\n      dup3\n      add\n        /* \"#utility.yul\":6512:6569   */\n      mstore\n        /* \"#utility.yul\":6586:6604   */\n      0x64\n      add\n        /* \"@openzeppelin/contracts/utils/Counters.sol\":1177:1226  require(value > 0, \"Counter: decrement overflow\") */\n      tag_104\n        /* \"#utility.yul\":6259:6610   */\n      jump\n        /* \"@openzeppelin/contracts/utils/Counters.sol\":1177:1226  require(value > 0, \"Counter: decrement overflow\") */\n    tag_179:\n      not(0x00)\n        /* \"@openzeppelin/contracts/utils/Counters.sol\":1277:1286  value - 1 */\n      add\n        /* \"@openzeppelin/contracts/utils/Counters.sol\":1260:1286  counter._value = value - 1 */\n      swap1\n      sstore\n        /* \"@openzeppelin/contracts/utils/Counters.sol\":1074:1303  function decrement(Counter storage counter) internal {... */\n      jump\t// out\n    tag_62:\n      0x40\n      dup1\n      mload\n      0xc0\n      dup2\n      add\n      dup3\n      mstore\n      0x00\n      dup1\n      dup3\n      mstore\n      0x20\n      dup3\n      add\n      dup2\n      swap1\n      mstore\n      swap2\n      dup2\n      add\n      dup3\n      swap1\n      mstore\n      0x60\n      dup2\n      add\n      dup3\n      swap1\n      mstore\n      0x80\n      dup2\n      add\n      dup3\n      swap1\n      mstore\n      0xa0\n      dup2\n      add\n      swap2\n      swap1\n      swap2\n      mstore\n      swap1\n      jump\t// out\n        /* \"#utility.yul\":14:1174   */\n    tag_15:\n        /* \"#utility.yul\":227:229   */\n      0x20\n        /* \"#utility.yul\":279:300   */\n      dup1\n      dup3\n      mstore\n        /* \"#utility.yul\":349:362   */\n      dup3\n      mload\n        /* \"#utility.yul\":252:270   */\n      dup3\n      dup3\n      add\n        /* \"#utility.yul\":371:393   */\n      dup2\n      swap1\n      mstore\n        /* \"#utility.yul\":198:202   */\n      0x00\n      swap2\n        /* \"#utility.yul\":227:229   */\n      swap1\n        /* \"#utility.yul\":412:414   */\n      0x40\n      swap1\n        /* \"#utility.yul\":430:448   */\n      dup2\n      dup6\n      add\n      swap1\n        /* \"#utility.yul\":471:486   */\n      dup7\n      dup5\n      add\n        /* \"#utility.yul\":198:202   */\n      dup6\n        /* \"#utility.yul\":514:1148   */\n    tag_187:\n        /* \"#utility.yul\":528:534   */\n      dup3\n        /* \"#utility.yul\":525:526   */\n      dup2\n        /* \"#utility.yul\":522:535   */\n      lt\n        /* \"#utility.yul\":514:1148   */\n      iszero\n      tag_189\n      jumpi\n        /* \"#utility.yul\":587:600   */\n      dup2\n      mload\n        /* \"#utility.yul\":671:680   */\n      dup1\n      mload\n      sub(shl(0xa0, 0x01), 0x01)\n        /* \"#utility.yul\":667:685   */\n      swap1\n      dup2\n      and\n        /* \"#utility.yul\":655:686   */\n      dup7\n      mstore\n        /* \"#utility.yul\":726:737   */\n      dup8\n      dup3\n      add\n        /* \"#utility.yul\":720:738   */\n      mload\n        /* \"#utility.yul\":706:718   */\n      dup9\n      dup8\n      add\n        /* \"#utility.yul\":699:739   */\n      mstore\n        /* \"#utility.yul\":783:794   */\n      dup7\n      dup3\n      add\n        /* \"#utility.yul\":777:795   */\n      mload\n        /* \"#utility.yul\":773:800   */\n      dup2\n      and\n        /* \"#utility.yul\":759:771   */\n      dup8\n      dup8\n      add\n        /* \"#utility.yul\":752:801   */\n      mstore\n        /* \"#utility.yul\":824:828   */\n      0x60\n        /* \"#utility.yul\":872:883   */\n      dup1\n      dup4\n      add\n        /* \"#utility.yul\":866:884   */\n      mload\n        /* \"#utility.yul\":862:889   */\n      swap1\n      swap2\n      and\n        /* \"#utility.yul\":848:860   */\n      swap1\n      dup7\n      add\n        /* \"#utility.yul\":841:890   */\n      mstore\n        /* \"#utility.yul\":913:917   */\n      0x80\n        /* \"#utility.yul\":957:968   */\n      dup1\n      dup3\n      add\n        /* \"#utility.yul\":951:969   */\n      mload\n        /* \"#utility.yul\":937:949   */\n      swap1\n      dup7\n      add\n        /* \"#utility.yul\":930:970   */\n      mstore\n        /* \"#utility.yul\":631:634   */\n      0xa0\n        /* \"#utility.yul\":1051:1062   */\n      swap1\n      dup2\n      add\n        /* \"#utility.yul\":1045:1063   */\n      mload\n        /* \"#utility.yul\":1038:1064   */\n      iszero\n        /* \"#utility.yul\":1031:1065   */\n      iszero\n        /* \"#utility.yul\":1017:1029   */\n      swap1\n      dup6\n      add\n        /* \"#utility.yul\":1010:1066   */\n      mstore\n        /* \"#utility.yul\":1095:1099   */\n      0xc0\n        /* \"#utility.yul\":1086:1100   */\n      swap1\n      swap4\n      add\n      swap3\n        /* \"#utility.yul\":1123:1138   */\n      swap1\n      dup6\n      add\n      swap1\n        /* \"#utility.yul\":640:641   */\n      0x01\n        /* \"#utility.yul\":543:552   */\n      add\n        /* \"#utility.yul\":514:1148   */\n      jump(tag_187)\n    tag_189:\n      pop\n        /* \"#utility.yul\":1165:1168   */\n      swap2\n      swap8\n        /* \"#utility.yul\":14:1174   */\n      swap7\n      pop\n      pop\n      pop\n      pop\n      pop\n      pop\n      pop\n      jump\t// out\n        /* \"#utility.yul\":1361:1534   */\n    tag_183:\n        /* \"#utility.yul\":1429:1449   */\n      dup1\n      calldataload\n      sub(shl(0xa0, 0x01), 0x01)\n        /* \"#utility.yul\":1478:1509   */\n      dup2\n      and\n        /* \"#utility.yul\":1468:1510   */\n      dup2\n      eq\n        /* \"#utility.yul\":1458:1528   */\n      tag_192\n      jumpi\n        /* \"#utility.yul\":1524:1525   */\n      0x00\n        /* \"#utility.yul\":1521:1522   */\n      dup1\n        /* \"#utility.yul\":1514:1526   */\n      revert\n        /* \"#utility.yul\":1458:1528   */\n    tag_192:\n        /* \"#utility.yul\":1361:1534   */\n      swap2\n      swap1\n      pop\n      jump\t// out\n        /* \"#utility.yul\":1539:1861   */\n    tag_27:\n        /* \"#utility.yul\":1616:1622   */\n      0x00\n        /* \"#utility.yul\":1624:1630   */\n      dup1\n        /* \"#utility.yul\":1632:1638   */\n      0x00\n        /* \"#utility.yul\":1685:1687   */\n      0x60\n        /* \"#utility.yul\":1673:1682   */\n      dup5\n        /* \"#utility.yul\":1664:1671   */\n      dup7\n        /* \"#utility.yul\":1660:1683   */\n      sub\n        /* \"#utility.yul\":1656:1688   */\n      slt\n        /* \"#utility.yul\":1653:1705   */\n      iszero\n      tag_194\n      jumpi\n        /* \"#utility.yul\":1701:1702   */\n      0x00\n        /* \"#utility.yul\":1698:1699   */\n      dup1\n        /* \"#utility.yul\":1691:1703   */\n      revert\n        /* \"#utility.yul\":1653:1705   */\n    tag_194:\n        /* \"#utility.yul\":1724:1753   */\n      tag_195\n        /* \"#utility.yul\":1743:1752   */\n      dup5\n        /* \"#utility.yul\":1724:1753   */\n      tag_183\n      jump\t// in\n    tag_195:\n        /* \"#utility.yul\":1714:1753   */\n      swap6\n        /* \"#utility.yul\":1800:1802   */\n      0x20\n        /* \"#utility.yul\":1785:1803   */\n      dup6\n      add\n        /* \"#utility.yul\":1772:1804   */\n      calldataload\n      swap6\n      pop\n        /* \"#utility.yul\":1851:1853   */\n      0x40\n        /* \"#utility.yul\":1836:1854   */\n      swap1\n      swap5\n      add\n        /* \"#utility.yul\":1823:1855   */\n      calldataload\n      swap4\n        /* \"#utility.yul\":1539:1861   */\n      swap3\n      pop\n      pop\n      pop\n      jump\t// out\n        /* \"#utility.yul\":1866:2120   */\n    tag_31:\n        /* \"#utility.yul\":1934:1940   */\n      0x00\n        /* \"#utility.yul\":1942:1948   */\n      dup1\n        /* \"#utility.yul\":1995:1997   */\n      0x40\n        /* \"#utility.yul\":1983:1992   */\n      dup4\n        /* \"#utility.yul\":1974:1981   */\n      dup6\n        /* \"#utility.yul\":1970:1993   */\n      sub\n        /* \"#utility.yul\":1966:1998   */\n      slt\n        /* \"#utility.yul\":1963:2015   */\n      iszero\n      tag_197\n      jumpi\n        /* \"#utility.yul\":2011:2012   */\n      0x00\n        /* \"#utility.yul\":2008:2009   */\n      dup1\n        /* \"#utility.yul\":2001:2013   */\n      revert\n        /* \"#utility.yul\":1963:2015   */\n    tag_197:\n        /* \"#utility.yul\":2034:2063   */\n      tag_198\n        /* \"#utility.yul\":2053:2062   */\n      dup4\n        /* \"#utility.yul\":2034:2063   */\n      tag_183\n      jump\t// in\n    tag_198:\n        /* \"#utility.yul\":2024:2063   */\n      swap5\n        /* \"#utility.yul\":2110:2112   */\n      0x20\n        /* \"#utility.yul\":2095:2113   */\n      swap4\n      swap1\n      swap4\n      add\n        /* \"#utility.yul\":2082:2114   */\n      calldataload\n      swap4\n      pop\n      pop\n      pop\n        /* \"#utility.yul\":1866:2120   */\n      jump\t// out\n        /* \"#utility.yul\":2125:2252   */\n    tag_184:\n        /* \"#utility.yul\":2186:2196   */\n      0x4e487b71\n        /* \"#utility.yul\":2181:2184   */\n      0xe0\n        /* \"#utility.yul\":2177:2197   */\n      shl\n        /* \"#utility.yul\":2174:2175   */\n      0x00\n        /* \"#utility.yul\":2167:2198   */\n      mstore\n        /* \"#utility.yul\":2217:2221   */\n      0x11\n        /* \"#utility.yul\":2214:2215   */\n      0x04\n        /* \"#utility.yul\":2207:2222   */\n      mstore\n        /* \"#utility.yul\":2241:2245   */\n      0x24\n        /* \"#utility.yul\":2238:2239   */\n      0x00\n        /* \"#utility.yul\":2231:2246   */\n      revert\n        /* \"#utility.yul\":2257:2382   */\n    tag_51:\n        /* \"#utility.yul\":2322:2331   */\n      dup1\n      dup3\n      add\n        /* \"#utility.yul\":2343:2353   */\n      dup1\n      dup3\n      gt\n        /* \"#utility.yul\":2340:2376   */\n      iszero\n      tag_202\n      jumpi\n        /* \"#utility.yul\":2356:2374   */\n      tag_202\n      tag_184\n      jump\t// in\n    tag_202:\n        /* \"#utility.yul\":2257:2382   */\n      swap3\n      swap2\n      pop\n      pop\n      jump\t// out\n        /* \"#utility.yul\":2387:2522   */\n    tag_54:\n        /* \"#utility.yul\":2426:2429   */\n      0x00\n        /* \"#utility.yul\":2447:2464   */\n      0x01\n      dup3\n      add\n        /* \"#utility.yul\":2444:2487   */\n      tag_205\n      jumpi\n        /* \"#utility.yul\":2467:2485   */\n      tag_205\n      tag_184\n      jump\t// in\n    tag_205:\n      pop\n        /* \"#utility.yul\":2514:2515   */\n      0x01\n        /* \"#utility.yul\":2503:2516   */\n      add\n      swap1\n        /* \"#utility.yul\":2387:2522   */\n      jump\t// out\n        /* \"#utility.yul\":2527:2654   */\n    tag_58:\n        /* \"#utility.yul\":2588:2598   */\n      0x4e487b71\n        /* \"#utility.yul\":2583:2586   */\n      0xe0\n        /* \"#utility.yul\":2579:2599   */\n      shl\n        /* \"#utility.yul\":2576:2577   */\n      0x00\n        /* \"#utility.yul\":2569:2600   */\n      mstore\n        /* \"#utility.yul\":2619:2623   */\n      0x41\n        /* \"#utility.yul\":2616:2617   */\n      0x04\n        /* \"#utility.yul\":2609:2624   */\n      mstore\n        /* \"#utility.yul\":2643:2647   */\n      0x24\n        /* \"#utility.yul\":2640:2641   */\n      0x00\n        /* \"#utility.yul\":2633:2648   */\n      revert\n        /* \"#utility.yul\":2659:2786   */\n    tag_71:\n        /* \"#utility.yul\":2720:2730   */\n      0x4e487b71\n        /* \"#utility.yul\":2715:2718   */\n      0xe0\n        /* \"#utility.yul\":2711:2731   */\n      shl\n        /* \"#utility.yul\":2708:2709   */\n      0x00\n        /* \"#utility.yul\":2701:2732   */\n      mstore\n        /* \"#utility.yul\":2751:2755   */\n      0x32\n        /* \"#utility.yul\":2748:2749   */\n      0x04\n        /* \"#utility.yul\":2741:2756   */\n      mstore\n        /* \"#utility.yul\":2775:2779   */\n      0x24\n        /* \"#utility.yul\":2772:2773   */\n      0x00\n        /* \"#utility.yul\":2765:2780   */\n      revert\n        /* \"#utility.yul\":2791:3146   */\n    tag_105:\n        /* \"#utility.yul\":2993:2995   */\n      0x20\n        /* \"#utility.yul\":2975:2996   */\n      dup1\n      dup3\n      mstore\n        /* \"#utility.yul\":3032:3034   */\n      0x1f\n        /* \"#utility.yul\":3012:3030   */\n      swap1\n      dup3\n      add\n        /* \"#utility.yul\":3005:3035   */\n      mstore\n        /* \"#utility.yul\":3071:3104   */\n      0x5265656e7472616e637947756172643a207265656e7472616e742063616c6c00\n        /* \"#utility.yul\":3066:3068   */\n      0x40\n        /* \"#utility.yul\":3051:3069   */\n      dup3\n      add\n        /* \"#utility.yul\":3044:3105   */\n      mstore\n        /* \"#utility.yul\":3137:3139   */\n      0x60\n        /* \"#utility.yul\":3122:3140   */\n      add\n      swap1\n        /* \"#utility.yul\":2791:3146   */\n      jump\t// out\n        /* \"#utility.yul\":4249:4777   */\n    tag_121:\n      sub(shl(0xa0, 0x01), 0x01)\n        /* \"#utility.yul\":4564:4579   */\n      swap6\n      dup7\n      and\n        /* \"#utility.yul\":4546:4580   */\n      dup2\n      mstore\n        /* \"#utility.yul\":4611:4613   */\n      0x20\n        /* \"#utility.yul\":4596:4614   */\n      dup2\n      add\n        /* \"#utility.yul\":4589:4623   */\n      swap5\n      swap1\n      swap5\n      mstore\n        /* \"#utility.yul\":4659:4674   */\n      swap2\n      dup5\n      and\n        /* \"#utility.yul\":4654:4656   */\n      0x40\n        /* \"#utility.yul\":4639:4657   */\n      dup5\n      add\n        /* \"#utility.yul\":4632:4675   */\n      mstore\n        /* \"#utility.yul\":4711:4726   */\n      swap1\n      swap3\n      and\n        /* \"#utility.yul\":4706:4708   */\n      0x60\n        /* \"#utility.yul\":4691:4709   */\n      dup3\n      add\n        /* \"#utility.yul\":4684:4727   */\n      mstore\n        /* \"#utility.yul\":4758:4761   */\n      0x80\n        /* \"#utility.yul\":4743:4762   */\n      dup2\n      add\n        /* \"#utility.yul\":4736:4771   */\n      swap2\n      swap1\n      swap2\n      mstore\n        /* \"#utility.yul\":4495:4498   */\n      0xa0\n        /* \"#utility.yul\":4480:4499   */\n      add\n      swap1\n        /* \"#utility.yul\":4249:4777   */\n      jump\t// out\n        /* \"#utility.yul\":6126:6254   */\n    tag_146:\n        /* \"#utility.yul\":6193:6202   */\n      dup2\n      dup2\n      sub\n        /* \"#utility.yul\":6214:6225   */\n      dup2\n      dup2\n      gt\n        /* \"#utility.yul\":6211:6248   */\n      iszero\n      tag_202\n      jumpi\n        /* \"#utility.yul\":6228:6246   */\n      tag_202\n      tag_184\n      jump\t// in\n\n    auxdata: 0xa26469706673582212209eb2299c401663c6729be70d8396f2ec9ea1a0381b956009404defc6a03d442464736f6c63430008100033\n}\n",
				"bytecode": {
					"linkReferences": {},
					"object": "6080604052655af3107a400060035534801561001a57600080fd5b506001600055600480546001600160a01b03191633179055610f52806100416000396000f3fe60806040526004361061007b5760003560e01c80634ddf4f8f1161004e5780634ddf4f8f146100f95780638d6cb3fb1461010c578063b8fe6abe14610121578063c922b17c1461013657600080fd5b8063047b07bf146100805780631f4cc4db146100ab5780632b86ae38146100c057806334f5b624146100e4575b600080fd5b34801561008c57600080fd5b50610095610149565b6040516100a29190610d28565b60405180910390f35b3480156100b757600080fd5b50610095610310565b3480156100cc57600080fd5b506100d660035481565b6040519081526020016100a2565b6100f76100f2366004610dce565b61052b565b005b6100f7610107366004610e01565b610701565b34801561011857600080fd5b506100956108fc565b34801561012d57600080fd5b506003546100d6565b6100f7610144366004610dce565b610a6a565b6060600061015660025490565b90506000805b828110156101b6573360056000610174846001610e41565b81526020810191909152604001600020600301546001600160a01b0316036101a457816101a081610e5a565b9250505b806101ae81610e5a565b91505061015c565b5060008167ffffffffffffffff8111156101d2576101d2610e73565b60405190808252806020026020018201604052801561020b57816020015b6101f8610cf3565b8152602001906001900390816101f05790505b5090506000805b8481101561030657336005600061022a846001610e41565b81526020810191909152604001600020600301546001600160a01b0316036102f4576005600061025b836001610e41565b81526020808201929092526040908101600020815160c08101835281546001600160a01b0390811682526001830154948201949094526002820154841692810192909252600381015490921660608201526004820154608082015260059091015460ff16151560a082015283518490849081106102da576102da610e89565b602002602001018190525081806102f090610e5a565b9250505b806102fe81610e5a565b915050610212565b5090949350505050565b6060600061031d60025490565b90506000805b828110156103ac57336005600061033b846001610e41565b81526020810191909152604001600020600201546001600160a01b031614801561038757506005600061036f836001610e41565b815260208101919091526040016000206005015460ff165b1561039a578161039681610e5a565b9250505b806103a481610e5a565b915050610323565b5060008167ffffffffffffffff8111156103c8576103c8610e73565b60405190808252806020026020018201604052801561040157816020015b6103ee610cf3565b8152602001906001900390816103e65790505b5090506000805b84811015610306573360056000610420846001610e41565b81526020810191909152604001600020600201546001600160a01b031614801561046c575060056000610454836001610e41565b815260208101919091526040016000206005015460ff165b156105195760056000610480836001610e41565b81526020808201929092526040908101600020815160c08101835281546001600160a01b0390811682526001830154948201949094526002820154841692810192909252600381015490921660608201526004820154608082015260059091015460ff16151560a082015283518490849081106104ff576104ff610e89565b6020026020010181905250818061051590610e5a565b9250505b8061052381610e5a565b915050610408565b6002600054036105565760405162461bcd60e51b815260040161054d90610e9f565b60405180910390fd5b6002600055806105a85760405162461bcd60e51b815260206004820152601c60248201527f5072696365206d757374206265206174206c6561737420312077656900000000604482015260640161054d565b60035434146105f95760405162461bcd60e51b815260206004820181905260248201527f4e6f7420656e6f75676820657468657220666f72206c697374696e6720666565604482015260640161054d565b6040516323b872dd60e01b8152336004820152306024820152604481018390526001600160a01b038416906323b872dd90606401600060405180830381600087803b15801561064757600080fd5b505af115801561065b573d6000803e3d6000fd5b50505060008381526005602081905260409091206002810180546001600160a01b0319908116331790915560038201805490911630179055908101805460ff19166001908117909155600482018490559091506106b790610c9c565b7fa0c6c0d02d86fdacecbaa5fdf5894bab204e31a778250474108540733a9b8d1984843330866040516106ee959493929190610ed6565b60405180910390a1505060016000555050565b6002600054036107235760405162461bcd60e51b815260040161054d90610e9f565b6002600090815581815260056020526040902060048101543410156107995760405162461bcd60e51b815260206004820152602660248201527f4e6f7420656e6f75676820657468657220746f20636f7665722061736b696e6760448201526520707269636560d01b606482015260840161054d565b600281015460405133916001600160a01b0316903480156108fc02916000818181858888f193505050501580156107d4573d6000803e3d6000fd5b5060018201546040516323b872dd60e01b81523060048201526001600160a01b0383811660248301526044820192909252908516906323b872dd90606401600060405180830381600087803b15801561082c57600080fd5b505af1158015610840573d6000803e3d6000fd5b50506004546003546040516001600160a01b03909216935080156108fc029250906000818181858888f19350505050158015610880573d6000803e3d6000fd5b506003820180546001600160a01b0319166001600160a01b03831617905560058201805460ff191690556001805481019055600182015460028301546040517f16f1dbd97e6bf646d429ed186cce832f1f7fd9907814293b83181e9970ab7bd2926106ee9288926001600160a01b039091169086903490610ed6565b6060600061090960025490565b9050600061091660015490565b6109209083610f09565b905060008167ffffffffffffffff81111561093d5761093d610e73565b60405190808252806020026020018201604052801561097657816020015b610963610cf3565b81526020019060019003908161095b5790505b5090506000805b848110156103065760056000610994836001610e41565b815260208101919091526040016000206005015460ff1615610a5857600560006109bf836001610e41565b81526020808201929092526040908101600020815160c08101835281546001600160a01b0390811682526001830154948201949094526002820154841692810192909252600381015490921660608201526004820154608082015260059091015460ff16151560a08201528351849084908110610a3e57610a3e610e89565b60200260200101819052508180610a5490610e5a565b9250505b80610a6281610e5a565b91505061097d565b600260005403610a8c5760405162461bcd60e51b815260040161054d90610e9f565b600260005580610ade5760405162461bcd60e51b815260206004820152601c60248201527f5072696365206d757374206265206174206c6561737420312077656900000000604482015260640161054d565b6003543414610b2f5760405162461bcd60e51b815260206004820181905260248201527f4e6f7420656e6f75676820657468657220666f72206c697374696e6720666565604482015260640161054d565b6040516323b872dd60e01b8152336004820152306024820152604481018390526001600160a01b038416906323b872dd90606401600060405180830381600087803b158015610b7d57600080fd5b505af1158015610b91573d6000803e3d6000fd5b50505050610ba3600280546001019055565b6040805160c0810182526001600160a01b0380861682526020808301868152338486018181523060608701818152608088018a8152600160a08a0181815260008e81526005998a90528c90209a518b54908b166001600160a01b0319918216178c559751918b0191909155935160028a018054918a1691881691909117905590516003890180549190981695169490941790955591516004860155905193909101805493151560ff199094169390931790925591517fa0c6c0d02d86fdacecbaa5fdf5894bab204e31a778250474108540733a9b8d1992610c8a9287928792908790610ed6565b60405180910390a15050600160005550565b805480610ceb5760405162461bcd60e51b815260206004820152601b60248201527f436f756e7465723a2064656372656d656e74206f766572666c6f770000000000604482015260640161054d565b600019019055565b6040805160c081018252600080825260208201819052918101829052606081018290526080810182905260a081019190915290565b602080825282518282018190526000919060409081850190868401855b82811015610da557815180516001600160a01b039081168652878201518887015286820151811687870152606080830151909116908601526080808201519086015260a09081015115159085015260c09093019290850190600101610d45565b5091979650505050505050565b80356001600160a01b0381168114610dc957600080fd5b919050565b600080600060608486031215610de357600080fd5b610dec84610db2565b95602085013595506040909401359392505050565b60008060408385031215610e1457600080fd5b610e1d83610db2565b946020939093013593505050565b634e487b7160e01b600052601160045260246000fd5b80820180821115610e5457610e54610e2b565b92915050565b600060018201610e6c57610e6c610e2b565b5060010190565b634e487b7160e01b600052604160045260246000fd5b634e487b7160e01b600052603260045260246000fd5b6020808252601f908201527f5265656e7472616e637947756172643a207265656e7472616e742063616c6c00604082015260600190565b6001600160a01b039586168152602081019490945291841660408401529092166060820152608081019190915260a00190565b81810381811115610e5457610e54610e2b56fea26469706673582212209eb2299c401663c6729be70d8396f2ec9ea1a0381b956009404defc6a03d442464736f6c63430008100033",
					"opcodes": "PUSH1 0x80 PUSH1 0x40 MSTORE PUSH6 0x5AF3107A4000 PUSH1 0x3 SSTORE CALLVALUE DUP1 ISZERO PUSH2 0x1A JUMPI PUSH1 0x0 DUP1 REVERT JUMPDEST POP PUSH1 0x1 PUSH1 0x0 SSTORE PUSH1 0x4 DUP1 SLOAD PUSH1 0x1 PUSH1 0x1 PUSH1 0xA0 SHL SUB NOT AND CALLER OR SWAP1 SSTORE PUSH2 0xF52 DUP1 PUSH2 0x41 PUSH1 0x0 CODECOPY PUSH1 0x0 RETURN INVALID PUSH1 0x80 PUSH1 0x40 MSTORE PUSH1 0x4 CALLDATASIZE LT PUSH2 0x7B JUMPI PUSH1 0x0 CALLDATALOAD PUSH1 0xE0 SHR DUP1 PUSH4 0x4DDF4F8F GT PUSH2 0x4E JUMPI DUP1 PUSH4 0x4DDF4F8F EQ PUSH2 0xF9 JUMPI DUP1 PUSH4 0x8D6CB3FB EQ PUSH2 0x10C JUMPI DUP1 PUSH4 0xB8FE6ABE EQ PUSH2 0x121 JUMPI DUP1 PUSH4 0xC922B17C EQ PUSH2 0x136 JUMPI PUSH1 0x0 DUP1 REVERT JUMPDEST DUP1 PUSH4 0x47B07BF EQ PUSH2 0x80 JUMPI DUP1 PUSH4 0x1F4CC4DB EQ PUSH2 0xAB JUMPI DUP1 PUSH4 0x2B86AE38 EQ PUSH2 0xC0 JUMPI DUP1 PUSH4 0x34F5B624 EQ PUSH2 0xE4 JUMPI JUMPDEST PUSH1 0x0 DUP1 REVERT JUMPDEST CALLVALUE DUP1 ISZERO PUSH2 0x8C JUMPI PUSH1 0x0 DUP1 REVERT JUMPDEST POP PUSH2 0x95 PUSH2 0x149 JUMP JUMPDEST PUSH1 0x40 MLOAD PUSH2 0xA2 SWAP2 SWAP1 PUSH2 0xD28 JUMP JUMPDEST PUSH1 0x40 MLOAD DUP1 SWAP2 SUB SWAP1 RETURN JUMPDEST CALLVALUE DUP1 ISZERO PUSH2 0xB7 JUMPI PUSH1 0x0 DUP1 REVERT JUMPDEST POP PUSH2 0x95 PUSH2 0x310 JUMP JUMPDEST CALLVALUE DUP1 ISZERO PUSH2 0xCC JUMPI PUSH1 0x0 DUP1 REVERT JUMPDEST POP PUSH2 0xD6 PUSH1 0x3 SLOAD DUP2 JUMP JUMPDEST PUSH1 0x40 MLOAD SWAP1 DUP2 MSTORE PUSH1 0x20 ADD PUSH2 0xA2 JUMP JUMPDEST PUSH2 0xF7 PUSH2 0xF2 CALLDATASIZE PUSH1 0x4 PUSH2 0xDCE JUMP JUMPDEST PUSH2 0x52B JUMP JUMPDEST STOP JUMPDEST PUSH2 0xF7 PUSH2 0x107 CALLDATASIZE PUSH1 0x4 PUSH2 0xE01 JUMP JUMPDEST PUSH2 0x701 JUMP JUMPDEST CALLVALUE DUP1 ISZERO PUSH2 0x118 JUMPI PUSH1 0x0 DUP1 REVERT JUMPDEST POP PUSH2 0x95 PUSH2 0x8FC JUMP JUMPDEST CALLVALUE DUP1 ISZERO PUSH2 0x12D JUMPI PUSH1 0x0 DUP1 REVERT JUMPDEST POP PUSH1 0x3 SLOAD PUSH2 0xD6 JUMP JUMPDEST PUSH2 0xF7 PUSH2 0x144 CALLDATASIZE PUSH1 0x4 PUSH2 0xDCE JUMP JUMPDEST PUSH2 0xA6A JUMP JUMPDEST PUSH1 0x60 PUSH1 0x0 PUSH2 0x156 PUSH1 0x2 SLOAD SWAP1 JUMP JUMPDEST SWAP1 POP PUSH1 0x0 DUP1 JUMPDEST DUP3 DUP2 LT ISZERO PUSH2 0x1B6 JUMPI CALLER PUSH1 0x5 PUSH1 0x0 PUSH2 0x174 DUP5 PUSH1 0x1 PUSH2 0xE41 JUMP JUMPDEST DUP2 MSTORE PUSH1 0x20 DUP2 ADD SWAP2 SWAP1 SWAP2 MSTORE PUSH1 0x40 ADD PUSH1 0x0 KECCAK256 PUSH1 0x3 ADD SLOAD PUSH1 0x1 PUSH1 0x1 PUSH1 0xA0 SHL SUB AND SUB PUSH2 0x1A4 JUMPI DUP2 PUSH2 0x1A0 DUP2 PUSH2 0xE5A JUMP JUMPDEST SWAP3 POP POP JUMPDEST DUP1 PUSH2 0x1AE DUP2 PUSH2 0xE5A JUMP JUMPDEST SWAP2 POP POP PUSH2 0x15C JUMP JUMPDEST POP PUSH1 0x0 DUP2 PUSH8 0xFFFFFFFFFFFFFFFF DUP2 GT ISZERO PUSH2 0x1D2 JUMPI PUSH2 0x1D2 PUSH2 0xE73 JUMP JUMPDEST PUSH1 0x40 MLOAD SWAP1 DUP1 DUP3 MSTORE DUP1 PUSH1 0x20 MUL PUSH1 0x20 ADD DUP3 ADD PUSH1 0x40 MSTORE DUP1 ISZERO PUSH2 0x20B JUMPI DUP2 PUSH1 0x20 ADD JUMPDEST PUSH2 0x1F8 PUSH2 0xCF3 JUMP JUMPDEST DUP2 MSTORE PUSH1 0x20 ADD SWAP1 PUSH1 0x1 SWAP1 SUB SWAP1 DUP2 PUSH2 0x1F0 JUMPI SWAP1 POP JUMPDEST POP SWAP1 POP PUSH1 0x0 DUP1 JUMPDEST DUP5 DUP2 LT ISZERO PUSH2 0x306 JUMPI CALLER PUSH1 0x5 PUSH1 0x0 PUSH2 0x22A DUP5 PUSH1 0x1 PUSH2 0xE41 JUMP JUMPDEST DUP2 MSTORE PUSH1 0x20 DUP2 ADD SWAP2 SWAP1 SWAP2 MSTORE PUSH1 0x40 ADD PUSH1 0x0 KECCAK256 PUSH1 0x3 ADD SLOAD PUSH1 0x1 PUSH1 0x1 PUSH1 0xA0 SHL SUB AND SUB PUSH2 0x2F4 JUMPI PUSH1 0x5 PUSH1 0x0 PUSH2 0x25B DUP4 PUSH1 0x1 PUSH2 0xE41 JUMP JUMPDEST DUP2 MSTORE PUSH1 0x20 DUP1 DUP3 ADD SWAP3 SWAP1 SWAP3 MSTORE PUSH1 0x40 SWAP1 DUP2 ADD PUSH1 0x0 KECCAK256 DUP2 MLOAD PUSH1 0xC0 DUP2 ADD DUP4 MSTORE DUP2 SLOAD PUSH1 0x1 PUSH1 0x1 PUSH1 0xA0 SHL SUB SWAP1 DUP2 AND DUP3 MSTORE PUSH1 0x1 DUP4 ADD SLOAD SWAP5 DUP3 ADD SWAP5 SWAP1 SWAP5 MSTORE PUSH1 0x2 DUP3 ADD SLOAD DUP5 AND SWAP3 DUP2 ADD SWAP3 SWAP1 SWAP3 MSTORE PUSH1 0x3 DUP2 ADD SLOAD SWAP1 SWAP3 AND PUSH1 0x60 DUP3 ADD MSTORE PUSH1 0x4 DUP3 ADD SLOAD PUSH1 0x80 DUP3 ADD MSTORE PUSH1 0x5 SWAP1 SWAP2 ADD SLOAD PUSH1 0xFF AND ISZERO ISZERO PUSH1 0xA0 DUP3 ADD MSTORE DUP4 MLOAD DUP5 SWAP1 DUP5 SWAP1 DUP2 LT PUSH2 0x2DA JUMPI PUSH2 0x2DA PUSH2 0xE89 JUMP JUMPDEST PUSH1 0x20 MUL PUSH1 0x20 ADD ADD DUP2 SWAP1 MSTORE POP DUP2 DUP1 PUSH2 0x2F0 SWAP1 PUSH2 0xE5A JUMP JUMPDEST SWAP3 POP POP JUMPDEST DUP1 PUSH2 0x2FE DUP2 PUSH2 0xE5A JUMP JUMPDEST SWAP2 POP POP PUSH2 0x212 JUMP JUMPDEST POP SWAP1 SWAP5 SWAP4 POP POP POP POP JUMP JUMPDEST PUSH1 0x60 PUSH1 0x0 PUSH2 0x31D PUSH1 0x2 SLOAD SWAP1 JUMP JUMPDEST SWAP1 POP PUSH1 0x0 DUP1 JUMPDEST DUP3 DUP2 LT ISZERO PUSH2 0x3AC JUMPI CALLER PUSH1 0x5 PUSH1 0x0 PUSH2 0x33B DUP5 PUSH1 0x1 PUSH2 0xE41 JUMP JUMPDEST DUP2 MSTORE PUSH1 0x20 DUP2 ADD SWAP2 SWAP1 SWAP2 MSTORE PUSH1 0x40 ADD PUSH1 0x0 KECCAK256 PUSH1 0x2 ADD SLOAD PUSH1 0x1 PUSH1 0x1 PUSH1 0xA0 SHL SUB AND EQ DUP1 ISZERO PUSH2 0x387 JUMPI POP PUSH1 0x5 PUSH1 0x0 PUSH2 0x36F DUP4 PUSH1 0x1 PUSH2 0xE41 JUMP JUMPDEST DUP2 MSTORE PUSH1 0x20 DUP2 ADD SWAP2 SWAP1 SWAP2 MSTORE PUSH1 0x40 ADD PUSH1 0x0 KECCAK256 PUSH1 0x5 ADD SLOAD PUSH1 0xFF AND JUMPDEST ISZERO PUSH2 0x39A JUMPI DUP2 PUSH2 0x396 DUP2 PUSH2 0xE5A JUMP JUMPDEST SWAP3 POP POP JUMPDEST DUP1 PUSH2 0x3A4 DUP2 PUSH2 0xE5A JUMP JUMPDEST SWAP2 POP POP PUSH2 0x323 JUMP JUMPDEST POP PUSH1 0x0 DUP2 PUSH8 0xFFFFFFFFFFFFFFFF DUP2 GT ISZERO PUSH2 0x3C8 JUMPI PUSH2 0x3C8 PUSH2 0xE73 JUMP JUMPDEST PUSH1 0x40 MLOAD SWAP1 DUP1 DUP3 MSTORE DUP1 PUSH1 0x20 MUL PUSH1 0x20 ADD DUP3 ADD PUSH1 0x40 MSTORE DUP1 ISZERO PUSH2 0x401 JUMPI DUP2 PUSH1 0x20 ADD JUMPDEST PUSH2 0x3EE PUSH2 0xCF3 JUMP JUMPDEST DUP2 MSTORE PUSH1 0x20 ADD SWAP1 PUSH1 0x1 SWAP1 SUB SWAP1 DUP2 PUSH2 0x3E6 JUMPI SWAP1 POP JUMPDEST POP SWAP1 POP PUSH1 0x0 DUP1 JUMPDEST DUP5 DUP2 LT ISZERO PUSH2 0x306 JUMPI CALLER PUSH1 0x5 PUSH1 0x0 PUSH2 0x420 DUP5 PUSH1 0x1 PUSH2 0xE41 JUMP JUMPDEST DUP2 MSTORE PUSH1 0x20 DUP2 ADD SWAP2 SWAP1 SWAP2 MSTORE PUSH1 0x40 ADD PUSH1 0x0 KECCAK256 PUSH1 0x2 ADD SLOAD PUSH1 0x1 PUSH1 0x1 PUSH1 0xA0 SHL SUB AND EQ DUP1 ISZERO PUSH2 0x46C JUMPI POP PUSH1 0x5 PUSH1 0x0 PUSH2 0x454 DUP4 PUSH1 0x1 PUSH2 0xE41 JUMP JUMPDEST DUP2 MSTORE PUSH1 0x20 DUP2 ADD SWAP2 SWAP1 SWAP2 MSTORE PUSH1 0x40 ADD PUSH1 0x0 KECCAK256 PUSH1 0x5 ADD SLOAD PUSH1 0xFF AND JUMPDEST ISZERO PUSH2 0x519 JUMPI PUSH1 0x5 PUSH1 0x0 PUSH2 0x480 DUP4 PUSH1 0x1 PUSH2 0xE41 JUMP JUMPDEST DUP2 MSTORE PUSH1 0x20 DUP1 DUP3 ADD SWAP3 SWAP1 SWAP3 MSTORE PUSH1 0x40 SWAP1 DUP2 ADD PUSH1 0x0 KECCAK256 DUP2 MLOAD PUSH1 0xC0 DUP2 ADD DUP4 MSTORE DUP2 SLOAD PUSH1 0x1 PUSH1 0x1 PUSH1 0xA0 SHL SUB SWAP1 DUP2 AND DUP3 MSTORE PUSH1 0x1 DUP4 ADD SLOAD SWAP5 DUP3 ADD SWAP5 SWAP1 SWAP5 MSTORE PUSH1 0x2 DUP3 ADD SLOAD DUP5 AND SWAP3 DUP2 ADD SWAP3 SWAP1 SWAP3 MSTORE PUSH1 0x3 DUP2 ADD SLOAD SWAP1 SWAP3 AND PUSH1 0x60 DUP3 ADD MSTORE PUSH1 0x4 DUP3 ADD SLOAD PUSH1 0x80 DUP3 ADD MSTORE PUSH1 0x5 SWAP1 SWAP2 ADD SLOAD PUSH1 0xFF AND ISZERO ISZERO PUSH1 0xA0 DUP3 ADD MSTORE DUP4 MLOAD DUP5 SWAP1 DUP5 SWAP1 DUP2 LT PUSH2 0x4FF JUMPI PUSH2 0x4FF PUSH2 0xE89 JUMP JUMPDEST PUSH1 0x20 MUL PUSH1 0x20 ADD ADD DUP2 SWAP1 MSTORE POP DUP2 DUP1 PUSH2 0x515 SWAP1 PUSH2 0xE5A JUMP JUMPDEST SWAP3 POP POP JUMPDEST DUP1 PUSH2 0x523 DUP2 PUSH2 0xE5A JUMP JUMPDEST SWAP2 POP POP PUSH2 0x408 JUMP JUMPDEST PUSH1 0x2 PUSH1 0x0 SLOAD SUB PUSH2 0x556 JUMPI PUSH1 0x40 MLOAD PUSH3 0x461BCD PUSH1 0xE5 SHL DUP2 MSTORE PUSH1 0x4 ADD PUSH2 0x54D SWAP1 PUSH2 0xE9F JUMP JUMPDEST PUSH1 0x40 MLOAD DUP1 SWAP2 SUB SWAP1 REVERT JUMPDEST PUSH1 0x2 PUSH1 0x0 SSTORE DUP1 PUSH2 0x5A8 JUMPI PUSH1 0x40 MLOAD PUSH3 0x461BCD PUSH1 0xE5 SHL DUP2 MSTORE PUSH1 0x20 PUSH1 0x4 DUP3 ADD MSTORE PUSH1 0x1C PUSH1 0x24 DUP3 ADD MSTORE PUSH32 0x5072696365206D757374206265206174206C6561737420312077656900000000 PUSH1 0x44 DUP3 ADD MSTORE PUSH1 0x64 ADD PUSH2 0x54D JUMP JUMPDEST PUSH1 0x3 SLOAD CALLVALUE EQ PUSH2 0x5F9 JUMPI PUSH1 0x40 MLOAD PUSH3 0x461BCD PUSH1 0xE5 SHL DUP2 MSTORE PUSH1 0x20 PUSH1 0x4 DUP3 ADD DUP2 SWAP1 MSTORE PUSH1 0x24 DUP3 ADD MSTORE PUSH32 0x4E6F7420656E6F75676820657468657220666F72206C697374696E6720666565 PUSH1 0x44 DUP3 ADD MSTORE PUSH1 0x64 ADD PUSH2 0x54D JUMP JUMPDEST PUSH1 0x40 MLOAD PUSH4 0x23B872DD PUSH1 0xE0 SHL DUP2 MSTORE CALLER PUSH1 0x4 DUP3 ADD MSTORE ADDRESS PUSH1 0x24 DUP3 ADD MSTORE PUSH1 0x44 DUP2 ADD DUP4 SWAP1 MSTORE PUSH1 0x1 PUSH1 0x1 PUSH1 0xA0 SHL SUB DUP5 AND SWAP1 PUSH4 0x23B872DD SWAP1 PUSH1 0x64 ADD PUSH1 0x0 PUSH1 0x40 MLOAD DUP1 DUP4 SUB DUP2 PUSH1 0x0 DUP8 DUP1 EXTCODESIZE ISZERO DUP1 ISZERO PUSH2 0x647 JUMPI PUSH1 0x0 DUP1 REVERT JUMPDEST POP GAS CALL ISZERO DUP1 ISZERO PUSH2 0x65B JUMPI RETURNDATASIZE PUSH1 0x0 DUP1 RETURNDATACOPY RETURNDATASIZE PUSH1 0x0 REVERT JUMPDEST POP POP POP PUSH1 0x0 DUP4 DUP2 MSTORE PUSH1 0x5 PUSH1 0x20 DUP2 SWAP1 MSTORE PUSH1 0x40 SWAP1 SWAP2 KECCAK256 PUSH1 0x2 DUP2 ADD DUP1 SLOAD PUSH1 0x1 PUSH1 0x1 PUSH1 0xA0 SHL SUB NOT SWAP1 DUP2 AND CALLER OR SWAP1 SWAP2 SSTORE PUSH1 0x3 DUP3 ADD DUP1 SLOAD SWAP1 SWAP2 AND ADDRESS OR SWAP1 SSTORE SWAP1 DUP2 ADD DUP1 SLOAD PUSH1 0xFF NOT AND PUSH1 0x1 SWAP1 DUP2 OR SWAP1 SWAP2 SSTORE PUSH1 0x4 DUP3 ADD DUP5 SWAP1 SSTORE SWAP1 SWAP2 POP PUSH2 0x6B7 SWAP1 PUSH2 0xC9C JUMP JUMPDEST PUSH32 0xA0C6C0D02D86FDACECBAA5FDF5894BAB204E31A778250474108540733A9B8D19 DUP5 DUP5 CALLER ADDRESS DUP7 PUSH1 0x40 MLOAD PUSH2 0x6EE SWAP6 SWAP5 SWAP4 SWAP3 SWAP2 SWAP1 PUSH2 0xED6 JUMP JUMPDEST PUSH1 0x40 MLOAD DUP1 SWAP2 SUB SWAP1 LOG1 POP POP PUSH1 0x1 PUSH1 0x0 SSTORE POP POP JUMP JUMPDEST PUSH1 0x2 PUSH1 0x0 SLOAD SUB PUSH2 0x723 JUMPI PUSH1 0x40 MLOAD PUSH3 0x461BCD PUSH1 0xE5 SHL DUP2 MSTORE PUSH1 0x4 ADD PUSH2 0x54D SWAP1 PUSH2 0xE9F JUMP JUMPDEST PUSH1 0x2 PUSH1 0x0 SWAP1 DUP2 SSTORE DUP2 DUP2 MSTORE PUSH1 0x5 PUSH1 0x20 MSTORE PUSH1 0x40 SWAP1 KECCAK256 PUSH1 0x4 DUP2 ADD SLOAD CALLVALUE LT ISZERO PUSH2 0x799 JUMPI PUSH1 0x40 MLOAD PUSH3 0x461BCD PUSH1 0xE5 SHL DUP2 MSTORE PUSH1 0x20 PUSH1 0x4 DUP3 ADD MSTORE PUSH1 0x26 PUSH1 0x24 DUP3 ADD MSTORE PUSH32 0x4E6F7420656E6F75676820657468657220746F20636F7665722061736B696E67 PUSH1 0x44 DUP3 ADD MSTORE PUSH6 0x207072696365 PUSH1 0xD0 SHL PUSH1 0x64 DUP3 ADD MSTORE PUSH1 0x84 ADD PUSH2 0x54D JUMP JUMPDEST PUSH1 0x2 DUP2 ADD SLOAD PUSH1 0x40 MLOAD CALLER SWAP2 PUSH1 0x1 PUSH1 0x1 PUSH1 0xA0 SHL SUB AND SWAP1 CALLVALUE DUP1 ISZERO PUSH2 0x8FC MUL SWAP2 PUSH1 0x0 DUP2 DUP2 DUP2 DUP6 DUP9 DUP9 CALL SWAP4 POP POP POP POP ISZERO DUP1 ISZERO PUSH2 0x7D4 JUMPI RETURNDATASIZE PUSH1 0x0 DUP1 RETURNDATACOPY RETURNDATASIZE PUSH1 0x0 REVERT JUMPDEST POP PUSH1 0x1 DUP3 ADD SLOAD PUSH1 0x40 MLOAD PUSH4 0x23B872DD PUSH1 0xE0 SHL DUP2 MSTORE ADDRESS PUSH1 0x4 DUP3 ADD MSTORE PUSH1 0x1 PUSH1 0x1 PUSH1 0xA0 SHL SUB DUP4 DUP2 AND PUSH1 0x24 DUP4 ADD MSTORE PUSH1 0x44 DUP3 ADD SWAP3 SWAP1 SWAP3 MSTORE SWAP1 DUP6 AND SWAP1 PUSH4 0x23B872DD SWAP1 PUSH1 0x64 ADD PUSH1 0x0 PUSH1 0x40 MLOAD DUP1 DUP4 SUB DUP2 PUSH1 0x0 DUP8 DUP1 EXTCODESIZE ISZERO DUP1 ISZERO PUSH2 0x82C JUMPI PUSH1 0x0 DUP1 REVERT JUMPDEST POP GAS CALL ISZERO DUP1 ISZERO PUSH2 0x840 JUMPI RETURNDATASIZE PUSH1 0x0 DUP1 RETURNDATACOPY RETURNDATASIZE PUSH1 0x0 REVERT JUMPDEST POP POP PUSH1 0x4 SLOAD PUSH1 0x3 SLOAD PUSH1 0x40 MLOAD PUSH1 0x1 PUSH1 0x1 PUSH1 0xA0 SHL SUB SWAP1 SWAP3 AND SWAP4 POP DUP1 ISZERO PUSH2 0x8FC MUL SWAP3 POP SWAP1 PUSH1 0x0 DUP2 DUP2 DUP2 DUP6 DUP9 DUP9 CALL SWAP4 POP POP POP POP ISZERO DUP1 ISZERO PUSH2 0x880 JUMPI RETURNDATASIZE PUSH1 0x0 DUP1 RETURNDATACOPY RETURNDATASIZE PUSH1 0x0 REVERT JUMPDEST POP PUSH1 0x3 DUP3 ADD DUP1 SLOAD PUSH1 0x1 PUSH1 0x1 PUSH1 0xA0 SHL SUB NOT AND PUSH1 0x1 PUSH1 0x1 PUSH1 0xA0 SHL SUB DUP4 AND OR SWAP1 SSTORE PUSH1 0x5 DUP3 ADD DUP1 SLOAD PUSH1 0xFF NOT AND SWAP1 SSTORE PUSH1 0x1 DUP1 SLOAD DUP2 ADD SWAP1 SSTORE PUSH1 0x1 DUP3 ADD SLOAD PUSH1 0x2 DUP4 ADD SLOAD PUSH1 0x40 MLOAD PUSH32 0x16F1DBD97E6BF646D429ED186CCE832F1F7FD9907814293B83181E9970AB7BD2 SWAP3 PUSH2 0x6EE SWAP3 DUP9 SWAP3 PUSH1 0x1 PUSH1 0x1 PUSH1 0xA0 SHL SUB SWAP1 SWAP2 AND SWAP1 DUP7 SWAP1 CALLVALUE SWAP1 PUSH2 0xED6 JUMP JUMPDEST PUSH1 0x60 PUSH1 0x0 PUSH2 0x909 PUSH1 0x2 SLOAD SWAP1 JUMP JUMPDEST SWAP1 POP PUSH1 0x0 PUSH2 0x916 PUSH1 0x1 SLOAD SWAP1 JUMP JUMPDEST PUSH2 0x920 SWAP1 DUP4 PUSH2 0xF09 JUMP JUMPDEST SWAP1 POP PUSH1 0x0 DUP2 PUSH8 0xFFFFFFFFFFFFFFFF DUP2 GT ISZERO PUSH2 0x93D JUMPI PUSH2 0x93D PUSH2 0xE73 JUMP JUMPDEST PUSH1 0x40 MLOAD SWAP1 DUP1 DUP3 MSTORE DUP1 PUSH1 0x20 MUL PUSH1 0x20 ADD DUP3 ADD PUSH1 0x40 MSTORE DUP1 ISZERO PUSH2 0x976 JUMPI DUP2 PUSH1 0x20 ADD JUMPDEST PUSH2 0x963 PUSH2 0xCF3 JUMP JUMPDEST DUP2 MSTORE PUSH1 0x20 ADD SWAP1 PUSH1 0x1 SWAP1 SUB SWAP1 DUP2 PUSH2 0x95B JUMPI SWAP1 POP JUMPDEST POP SWAP1 POP PUSH1 0x0 DUP1 JUMPDEST DUP5 DUP2 LT ISZERO PUSH2 0x306 JUMPI PUSH1 0x5 PUSH1 0x0 PUSH2 0x994 DUP4 PUSH1 0x1 PUSH2 0xE41 JUMP JUMPDEST DUP2 MSTORE PUSH1 0x20 DUP2 ADD SWAP2 SWAP1 SWAP2 MSTORE PUSH1 0x40 ADD PUSH1 0x0 KECCAK256 PUSH1 0x5 ADD SLOAD PUSH1 0xFF AND ISZERO PUSH2 0xA58 JUMPI PUSH1 0x5 PUSH1 0x0 PUSH2 0x9BF DUP4 PUSH1 0x1 PUSH2 0xE41 JUMP JUMPDEST DUP2 MSTORE PUSH1 0x20 DUP1 DUP3 ADD SWAP3 SWAP1 SWAP3 MSTORE PUSH1 0x40 SWAP1 DUP2 ADD PUSH1 0x0 KECCAK256 DUP2 MLOAD PUSH1 0xC0 DUP2 ADD DUP4 MSTORE DUP2 SLOAD PUSH1 0x1 PUSH1 0x1 PUSH1 0xA0 SHL SUB SWAP1 DUP2 AND DUP3 MSTORE PUSH1 0x1 DUP4 ADD SLOAD SWAP5 DUP3 ADD SWAP5 SWAP1 SWAP5 MSTORE PUSH1 0x2 DUP3 ADD SLOAD DUP5 AND SWAP3 DUP2 ADD SWAP3 SWAP1 SWAP3 MSTORE PUSH1 0x3 DUP2 ADD SLOAD SWAP1 SWAP3 AND PUSH1 0x60 DUP3 ADD MSTORE PUSH1 0x4 DUP3 ADD SLOAD PUSH1 0x80 DUP3 ADD MSTORE PUSH1 0x5 SWAP1 SWAP2 ADD SLOAD PUSH1 0xFF AND ISZERO ISZERO PUSH1 0xA0 DUP3 ADD MSTORE DUP4 MLOAD DUP5 SWAP1 DUP5 SWAP1 DUP2 LT PUSH2 0xA3E JUMPI PUSH2 0xA3E PUSH2 0xE89 JUMP JUMPDEST PUSH1 0x20 MUL PUSH1 0x20 ADD ADD DUP2 SWAP1 MSTORE POP DUP2 DUP1 PUSH2 0xA54 SWAP1 PUSH2 0xE5A JUMP JUMPDEST SWAP3 POP POP JUMPDEST DUP1 PUSH2 0xA62 DUP2 PUSH2 0xE5A JUMP JUMPDEST SWAP2 POP POP PUSH2 0x97D JUMP JUMPDEST PUSH1 0x2 PUSH1 0x0 SLOAD SUB PUSH2 0xA8C JUMPI PUSH1 0x40 MLOAD PUSH3 0x461BCD PUSH1 0xE5 SHL DUP2 MSTORE PUSH1 0x4 ADD PUSH2 0x54D SWAP1 PUSH2 0xE9F JUMP JUMPDEST PUSH1 0x2 PUSH1 0x0 SSTORE DUP1 PUSH2 0xADE JUMPI PUSH1 0x40 MLOAD PUSH3 0x461BCD PUSH1 0xE5 SHL DUP2 MSTORE PUSH1 0x20 PUSH1 0x4 DUP3 ADD MSTORE PUSH1 0x1C PUSH1 0x24 DUP3 ADD MSTORE PUSH32 0x5072696365206D757374206265206174206C6561737420312077656900000000 PUSH1 0x44 DUP3 ADD MSTORE PUSH1 0x64 ADD PUSH2 0x54D JUMP JUMPDEST PUSH1 0x3 SLOAD CALLVALUE EQ PUSH2 0xB2F JUMPI PUSH1 0x40 MLOAD PUSH3 0x461BCD PUSH1 0xE5 SHL DUP2 MSTORE PUSH1 0x20 PUSH1 0x4 DUP3 ADD DUP2 SWAP1 MSTORE PUSH1 0x24 DUP3 ADD MSTORE PUSH32 0x4E6F7420656E6F75676820657468657220666F72206C697374696E6720666565 PUSH1 0x44 DUP3 ADD MSTORE PUSH1 0x64 ADD PUSH2 0x54D JUMP JUMPDEST PUSH1 0x40 MLOAD PUSH4 0x23B872DD PUSH1 0xE0 SHL DUP2 MSTORE CALLER PUSH1 0x4 DUP3 ADD MSTORE ADDRESS PUSH1 0x24 DUP3 ADD MSTORE PUSH1 0x44 DUP2 ADD DUP4 SWAP1 MSTORE PUSH1 0x1 PUSH1 0x1 PUSH1 0xA0 SHL SUB DUP5 AND SWAP1 PUSH4 0x23B872DD SWAP1 PUSH1 0x64 ADD PUSH1 0x0 PUSH1 0x40 MLOAD DUP1 DUP4 SUB DUP2 PUSH1 0x0 DUP8 DUP1 EXTCODESIZE ISZERO DUP1 ISZERO PUSH2 0xB7D JUMPI PUSH1 0x0 DUP1 REVERT JUMPDEST POP GAS CALL ISZERO DUP1 ISZERO PUSH2 0xB91 JUMPI RETURNDATASIZE PUSH1 0x0 DUP1 RETURNDATACOPY RETURNDATASIZE PUSH1 0x0 REVERT JUMPDEST POP POP POP POP PUSH2 0xBA3 PUSH1 0x2 DUP1 SLOAD PUSH1 0x1 ADD SWAP1 SSTORE JUMP JUMPDEST PUSH1 0x40 DUP1 MLOAD PUSH1 0xC0 DUP2 ADD DUP3 MSTORE PUSH1 0x1 PUSH1 0x1 PUSH1 0xA0 SHL SUB DUP1 DUP7 AND DUP3 MSTORE PUSH1 0x20 DUP1 DUP4 ADD DUP7 DUP2 MSTORE CALLER DUP5 DUP7 ADD DUP2 DUP2 MSTORE ADDRESS PUSH1 0x60 DUP8 ADD DUP2 DUP2 MSTORE PUSH1 0x80 DUP9 ADD DUP11 DUP2 MSTORE PUSH1 0x1 PUSH1 0xA0 DUP11 ADD DUP2 DUP2 MSTORE PUSH1 0x0 DUP15 DUP2 MSTORE PUSH1 0x5 SWAP10 DUP11 SWAP1 MSTORE DUP13 SWAP1 KECCAK256 SWAP11 MLOAD DUP12 SLOAD SWAP1 DUP12 AND PUSH1 0x1 PUSH1 0x1 PUSH1 0xA0 SHL SUB NOT SWAP2 DUP3 AND OR DUP13 SSTORE SWAP8 MLOAD SWAP2 DUP12 ADD SWAP2 SWAP1 SWAP2 SSTORE SWAP4 MLOAD PUSH1 0x2 DUP11 ADD DUP1 SLOAD SWAP2 DUP11 AND SWAP2 DUP9 AND SWAP2 SWAP1 SWAP2 OR SWAP1 SSTORE SWAP1 MLOAD PUSH1 0x3 DUP10 ADD DUP1 SLOAD SWAP2 SWAP1 SWAP9 AND SWAP6 AND SWAP5 SWAP1 SWAP5 OR SWAP1 SWAP6 SSTORE SWAP2 MLOAD PUSH1 0x4 DUP7 ADD SSTORE SWAP1 MLOAD SWAP4 SWAP1 SWAP2 ADD DUP1 SLOAD SWAP4 ISZERO ISZERO PUSH1 0xFF NOT SWAP1 SWAP5 AND SWAP4 SWAP1 SWAP4 OR SWAP1 SWAP3 SSTORE SWAP2 MLOAD PUSH32 0xA0C6C0D02D86FDACECBAA5FDF5894BAB204E31A778250474108540733A9B8D19 SWAP3 PUSH2 0xC8A SWAP3 DUP8 SWAP3 DUP8 SWAP3 SWAP1 DUP8 SWAP1 PUSH2 0xED6 JUMP JUMPDEST PUSH1 0x40 MLOAD DUP1 SWAP2 SUB SWAP1 LOG1 POP POP PUSH1 0x1 PUSH1 0x0 SSTORE POP JUMP JUMPDEST DUP1 SLOAD DUP1 PUSH2 0xCEB JUMPI PUSH1 0x40 MLOAD PUSH3 0x461BCD PUSH1 0xE5 SHL DUP2 MSTORE PUSH1 0x20 PUSH1 0x4 DUP3 ADD MSTORE PUSH1 0x1B PUSH1 0x24 DUP3 ADD MSTORE PUSH32 0x436F756E7465723A2064656372656D656E74206F766572666C6F770000000000 PUSH1 0x44 DUP3 ADD MSTORE PUSH1 0x64 ADD PUSH2 0x54D JUMP JUMPDEST PUSH1 0x0 NOT ADD SWAP1 SSTORE JUMP JUMPDEST PUSH1 0x40 DUP1 MLOAD PUSH1 0xC0 DUP2 ADD DUP3 MSTORE PUSH1 0x0 DUP1 DUP3 MSTORE PUSH1 0x20 DUP3 ADD DUP2 SWAP1 MSTORE SWAP2 DUP2 ADD DUP3 SWAP1 MSTORE PUSH1 0x60 DUP2 ADD DUP3 SWAP1 MSTORE PUSH1 0x80 DUP2 ADD DUP3 SWAP1 MSTORE PUSH1 0xA0 DUP2 ADD SWAP2 SWAP1 SWAP2 MSTORE SWAP1 JUMP JUMPDEST PUSH1 0x20 DUP1 DUP3 MSTORE DUP3 MLOAD DUP3 DUP3 ADD DUP2 SWAP1 MSTORE PUSH1 0x0 SWAP2 SWAP1 PUSH1 0x40 SWAP1 DUP2 DUP6 ADD SWAP1 DUP7 DUP5 ADD DUP6 JUMPDEST DUP3 DUP2 LT ISZERO PUSH2 0xDA5 JUMPI DUP2 MLOAD DUP1 MLOAD PUSH1 0x1 PUSH1 0x1 PUSH1 0xA0 SHL SUB SWAP1 DUP2 AND DUP7 MSTORE DUP8 DUP3 ADD MLOAD DUP9 DUP8 ADD MSTORE DUP7 DUP3 ADD MLOAD DUP2 AND DUP8 DUP8 ADD MSTORE PUSH1 0x60 DUP1 DUP4 ADD MLOAD SWAP1 SWAP2 AND SWAP1 DUP7 ADD MSTORE PUSH1 0x80 DUP1 DUP3 ADD MLOAD SWAP1 DUP7 ADD MSTORE PUSH1 0xA0 SWAP1 DUP2 ADD MLOAD ISZERO ISZERO SWAP1 DUP6 ADD MSTORE PUSH1 0xC0 SWAP1 SWAP4 ADD SWAP3 SWAP1 DUP6 ADD SWAP1 PUSH1 0x1 ADD PUSH2 0xD45 JUMP JUMPDEST POP SWAP2 SWAP8 SWAP7 POP POP POP POP POP POP POP JUMP JUMPDEST DUP1 CALLDATALOAD PUSH1 0x1 PUSH1 0x1 PUSH1 0xA0 SHL SUB DUP2 AND DUP2 EQ PUSH2 0xDC9 JUMPI PUSH1 0x0 DUP1 REVERT JUMPDEST SWAP2 SWAP1 POP JUMP JUMPDEST PUSH1 0x0 DUP1 PUSH1 0x0 PUSH1 0x60 DUP5 DUP7 SUB SLT ISZERO PUSH2 0xDE3 JUMPI PUSH1 0x0 DUP1 REVERT JUMPDEST PUSH2 0xDEC DUP5 PUSH2 0xDB2 JUMP JUMPDEST SWAP6 PUSH1 0x20 DUP6 ADD CALLDATALOAD SWAP6 POP PUSH1 0x40 SWAP1 SWAP5 ADD CALLDATALOAD SWAP4 SWAP3 POP POP POP JUMP JUMPDEST PUSH1 0x0 DUP1 PUSH1 0x40 DUP4 DUP6 SUB SLT ISZERO PUSH2 0xE14 JUMPI PUSH1 0x0 DUP1 REVERT JUMPDEST PUSH2 0xE1D DUP4 PUSH2 0xDB2 JUMP JUMPDEST SWAP5 PUSH1 0x20 SWAP4 SWAP1 SWAP4 ADD CALLDATALOAD SWAP4 POP POP POP JUMP JUMPDEST PUSH4 0x4E487B71 PUSH1 0xE0 SHL PUSH1 0x0 MSTORE PUSH1 0x11 PUSH1 0x4 MSTORE PUSH1 0x24 PUSH1 0x0 REVERT JUMPDEST DUP1 DUP3 ADD DUP1 DUP3 GT ISZERO PUSH2 0xE54 JUMPI PUSH2 0xE54 PUSH2 0xE2B JUMP JUMPDEST SWAP3 SWAP2 POP POP JUMP JUMPDEST PUSH1 0x0 PUSH1 0x1 DUP3 ADD PUSH2 0xE6C JUMPI PUSH2 0xE6C PUSH2 0xE2B JUMP JUMPDEST POP PUSH1 0x1 ADD SWAP1 JUMP JUMPDEST PUSH4 0x4E487B71 PUSH1 0xE0 SHL PUSH1 0x0 MSTORE PUSH1 0x41 PUSH1 0x4 MSTORE PUSH1 0x24 PUSH1 0x0 REVERT JUMPDEST PUSH4 0x4E487B71 PUSH1 0xE0 SHL PUSH1 0x0 MSTORE PUSH1 0x32 PUSH1 0x4 MSTORE PUSH1 0x24 PUSH1 0x0 REVERT JUMPDEST PUSH1 0x20 DUP1 DUP3 MSTORE PUSH1 0x1F SWAP1 DUP3 ADD MSTORE PUSH32 0x5265656E7472616E637947756172643A207265656E7472616E742063616C6C00 PUSH1 0x40 DUP3 ADD MSTORE PUSH1 0x60 ADD SWAP1 JUMP JUMPDEST PUSH1 0x1 PUSH1 0x1 PUSH1 0xA0 SHL SUB SWAP6 DUP7 AND DUP2 MSTORE PUSH1 0x20 DUP2 ADD SWAP5 SWAP1 SWAP5 MSTORE SWAP2 DUP5 AND PUSH1 0x40 DUP5 ADD MSTORE SWAP1 SWAP3 AND PUSH1 0x60 DUP3 ADD MSTORE PUSH1 0x80 DUP2 ADD SWAP2 SWAP1 SWAP2 MSTORE PUSH1 0xA0 ADD SWAP1 JUMP JUMPDEST DUP2 DUP2 SUB DUP2 DUP2 GT ISZERO PUSH2 0xE54 JUMPI PUSH2 0xE54 PUSH2 0xE2B JUMP INVALID LOG2 PUSH5 0x6970667358 0x22 SLT KECCAK256 SWAP15 0xB2 0x29 SWAP13 BLOCKHASH AND PUSH4 0xC6729BE7 0xD DUP4 SWAP7 CALLCODE 0xEC SWAP15 LOG1 LOG0 CODESIZE SHL SWAP6 PUSH1 0x9 BLOCKHASH 0x4D 0xEF 0xC6 LOG0 RETURNDATASIZE DIFFICULTY 0x24 PUSH5 0x736F6C6343 STOP ADDMOD LT STOP CALLER "
				},
				"gasEstimates": {
					"creation": {
						"codeDepositCost": "784400",
						"executionCost": "69265",
						"totalCost": "853665"
					},
					"external": {
						"LISTING_FEE()": "2340",
						"buyNft(address,uint256)": "infinite",
						"getListedNfts()": "infinite",
						"getListingFee()": "2336",
						"getMyListedNfts()": "infinite",
						"getMyNfts()": "infinite",
						"listNft(address,uint256,uint256)": "infinite",
						"resellNft(address,uint256,uint256)": "infinite"
					}
				},
				"methodIdentifiers": {
					"LISTING_FEE()": "2b86ae38",
					"buyNft(address,uint256)": "4ddf4f8f",
					"getListedNfts()": "8d6cb3fb",
					"getListingFee()": "b8fe6abe",
					"getMyListedNfts()": "1f4cc4db",
					"getMyNfts()": "047b07bf",
					"listNft(address,uint256,uint256)": "c922b17c",
					"resellNft(address,uint256,uint256)": "34f5b624"
				}
			},
			"storageLayout": {
				"storage": [
					{
						"astId": 10,
						"contract": "contracts/Marketplace.sol:Marketplace",
						"label": "_status",
						"offset": 0,
						"slot": "0",
						"type": "t_uint256"
					},
					{
						"astId": 1734,
						"contract": "contracts/Marketplace.sol:Marketplace",
						"label": "_nftsSold",
						"offset": 0,
						"slot": "1",
						"type": "t_struct(Counter)1390_storage"
					},
					{
						"astId": 1737,
						"contract": "contracts/Marketplace.sol:Marketplace",
						"label": "_nftCount",
						"offset": 0,
						"slot": "2",
						"type": "t_struct(Counter)1390_storage"
					},
					{
						"astId": 1740,
						"contract": "contracts/Marketplace.sol:Marketplace",
						"label": "LISTING_FEE",
						"offset": 0,
						"slot": "3",
						"type": "t_uint256"
					},
					{
						"astId": 1742,
						"contract": "contracts/Marketplace.sol:Marketplace",
						"label": "_marketOwner",
						"offset": 0,
						"slot": "4",
						"type": "t_address_payable"
					},
					{
						"astId": 1747,
						"contract": "contracts/Marketplace.sol:Marketplace",
						"label": "_idToNFT",
						"offset": 0,
						"slot": "5",
						"type": "t_mapping(t_uint256,t_struct(NFT)1760_storage)"
					}
				],
				"types": {
					"t_address": {
						"encoding": "inplace",
						"label": "address",
						"numberOfBytes": "20"
					},
					"t_address_payable": {
						"encoding": "inplace",
						"label": "address payable",
						"numberOfBytes": "20"
					},
					"t_bool": {
						"encoding": "inplace",
						"label": "bool",
						"numberOfBytes": "1"
					},
					"t_mapping(t_uint256,t_struct(NFT)1760_storage)": {
						"encoding": "mapping",
						"key": "t_uint256",
						"label": "mapping(uint256 => struct Marketplace.NFT)",
						"numberOfBytes": "32",
						"value": "t_struct(NFT)1760_storage"
					},
					"t_struct(Counter)1390_storage": {
						"encoding": "inplace",
						"label": "struct Counters.Counter",
						"members": [
							{
								"astId": 1389,
								"contract": "contracts/Marketplace.sol:Marketplace",
								"label": "_value",
								"offset": 0,
								"slot": "0",
								"type": "t_uint256"
							}
						],
						"numberOfBytes": "32"
					},
					"t_struct(NFT)1760_storage": {
						"encoding": "inplace",
						"label": "struct Marketplace.NFT",
						"members": [
							{
								"astId": 1749,
								"contract": "contracts/Marketplace.sol:Marketplace",
								"label": "nftContract",
								"offset": 0,
								"slot": "0",
								"type": "t_address"
							},
							{
								"astId": 1751,
								"contract": "contracts/Marketplace.sol:Marketplace",
								"label": "tokenId",
								"offset": 0,
								"slot": "1",
								"type": "t_uint256"
							},
							{
								"astId": 1753,
								"contract": "contracts/Marketplace.sol:Marketplace",
								"label": "seller",
								"offset": 0,
								"slot": "2",
								"type": "t_address_payable"
							},
							{
								"astId": 1755,
								"contract": "contracts/Marketplace.sol:Marketplace",
								"label": "owner",
								"offset": 0,
								"slot": "3",
								"type": "t_address_payable"
							},
							{
								"astId": 1757,
								"contract": "contracts/Marketplace.sol:Marketplace",
								"label": "price",
								"offset": 0,
								"slot": "4",
								"type": "t_uint256"
							},
							{
								"astId": 1759,
								"contract": "contracts/Marketplace.sol:Marketplace",
								"label": "listed",
								"offset": 0,
								"slot": "5",
								"type": "t_bool"
							}
						],
						"numberOfBytes": "192"
					},
					"t_uint256": {
						"encoding": "inplace",
						"label": "uint256",
						"numberOfBytes": "32"
					}
				}
			},
			"userdoc": {
				"kind": "user",
				"methods": {},
				"version": 1
			}
		}
	}
}