{
	"contracts/AboatDAO.sol": {
		"AboatDAO": {
			"abi": [
				{
					"inputs": [
						{
							"internalType": "contract IMasterEntertainer",
							"name": "masterEntertainer",
							"type": "address"
						}
					],
					"stateMutability": "nonpayable",
					"type": "constructor"
				},
				{
					"inputs": [],
					"name": "getMasterEntertainer",
					"outputs": [
						{
							"internalType": "address",
							"name": "",
							"type": "address"
						}
					],
					"stateMutability": "view",
					"type": "function"
				},
				{
					"inputs": [
						{
							"internalType": "address[]",
							"name": "userWallets",
							"type": "address[]"
						}
					],
					"name": "getUserVotingPower",
					"outputs": [
						{
							"internalType": "uint256",
							"name": "",
							"type": "uint256"
						}
					],
					"stateMutability": "view",
					"type": "function"
				}
			],
			"devdoc": {
				"kind": "dev",
				"methods": {},
				"version": 1
			},
			"evm": {
				"assembly": "    /* \"contracts/AboatDAO.sol\":278:1653  contract AboatDAO {\r... */\n  mstore(0x40, 0x80)\n    /* \"contracts/AboatDAO.sol\":416:523  constructor(IMasterEntertainer masterEntertainer) {\r... */\n  callvalue\n  dup1\n  iszero\n  tag_1\n  jumpi\n  0x00\n  dup1\n  revert\ntag_1:\n  pop\n  mload(0x40)\n  sub(codesize, bytecodeSize)\n  dup1\n  bytecodeSize\n  dup4\n  codecopy\n  dup2\n  dup2\n  add\n  0x40\n  mstore\n  dup2\n  add\n  swap1\n  tag_2\n  swap2\n  swap1\n  tag_3\n  jump\t// in\ntag_2:\n    /* \"contracts/AboatDAO.sol\":498:515  masterEntertainer */\n  dup1\n    /* \"contracts/AboatDAO.sol\":477:495  _masterEntertainer */\n  0x00\n  dup1\n    /* \"contracts/AboatDAO.sol\":477:515  _masterEntertainer = masterEntertainer */\n  0x0100\n  exp\n  dup2\n  sload\n  dup2\n  0xffffffffffffffffffffffffffffffffffffffff\n  mul\n  not\n  and\n  swap1\n  dup4\n  0xffffffffffffffffffffffffffffffffffffffff\n  and\n  mul\n  or\n  swap1\n  sstore\n  pop\n    /* \"contracts/AboatDAO.sol\":416:523  constructor(IMasterEntertainer masterEntertainer) {\r... */\n  pop\n    /* \"contracts/AboatDAO.sol\":278:1653  contract AboatDAO {\r... */\n  jump(tag_6)\n    /* \"#utility.yul\":7:202   */\ntag_8:\n    /* \"#utility.yul\":90:95   */\n  0x00\n    /* \"#utility.yul\":121:127   */\n  dup2\n    /* \"#utility.yul\":115:128   */\n  mload\n    /* \"#utility.yul\":106:128   */\n  swap1\n  pop\n    /* \"#utility.yul\":137:196   */\n  tag_10\n    /* \"#utility.yul\":190:195   */\n  dup2\n    /* \"#utility.yul\":137:196   */\n  tag_11\n  jump\t// in\ntag_10:\n    /* \"#utility.yul\":7:202   */\n  swap3\n  swap2\n  pop\n  pop\n  jump\t// out\n    /* \"#utility.yul\":208:611   */\ntag_3:\n    /* \"#utility.yul\":304:310   */\n  0x00\n    /* \"#utility.yul\":353:355   */\n  0x20\n    /* \"#utility.yul\":341:350   */\n  dup3\n    /* \"#utility.yul\":332:339   */\n  dup5\n    /* \"#utility.yul\":328:351   */\n  sub\n    /* \"#utility.yul\":324:356   */\n  slt\n    /* \"#utility.yul\":321:440   */\n  iszero\n  tag_13\n  jumpi\n    /* \"#utility.yul\":359:438   */\n  tag_14\n  tag_15\n  jump\t// in\ntag_14:\n    /* \"#utility.yul\":321:440   */\ntag_13:\n    /* \"#utility.yul\":479:480   */\n  0x00\n    /* \"#utility.yul\":504:594   */\n  tag_16\n    /* \"#utility.yul\":586:593   */\n  dup5\n    /* \"#utility.yul\":577:583   */\n  dup3\n    /* \"#utility.yul\":566:575   */\n  dup6\n    /* \"#utility.yul\":562:584   */\n  add\n    /* \"#utility.yul\":504:594   */\n  tag_8\n  jump\t// in\ntag_16:\n    /* \"#utility.yul\":494:594   */\n  swap2\n  pop\n    /* \"#utility.yul\":450:604   */\n  pop\n    /* \"#utility.yul\":208:611   */\n  swap3\n  swap2\n  pop\n  pop\n  jump\t// out\n    /* \"#utility.yul\":698:794   */\ntag_19:\n    /* \"#utility.yul\":735:742   */\n  0x00\n    /* \"#utility.yul\":764:788   */\n  tag_21\n    /* \"#utility.yul\":782:787   */\n  dup3\n    /* \"#utility.yul\":764:788   */\n  tag_22\n  jump\t// in\ntag_21:\n    /* \"#utility.yul\":753:788   */\n  swap1\n  pop\n    /* \"#utility.yul\":698:794   */\n  swap2\n  swap1\n  pop\n  jump\t// out\n    /* \"#utility.yul\":800:922   */\ntag_23:\n    /* \"#utility.yul\":863:870   */\n  0x00\n    /* \"#utility.yul\":892:916   */\n  tag_25\n    /* \"#utility.yul\":910:915   */\n  dup3\n    /* \"#utility.yul\":892:916   */\n  tag_19\n  jump\t// in\ntag_25:\n    /* \"#utility.yul\":881:916   */\n  swap1\n  pop\n    /* \"#utility.yul\":800:922   */\n  swap2\n  swap1\n  pop\n  jump\t// out\n    /* \"#utility.yul\":928:1054   */\ntag_22:\n    /* \"#utility.yul\":965:972   */\n  0x00\n    /* \"#utility.yul\":1005:1047   */\n  0xffffffffffffffffffffffffffffffffffffffff\n    /* \"#utility.yul\":998:1003   */\n  dup3\n    /* \"#utility.yul\":994:1048   */\n  and\n    /* \"#utility.yul\":983:1048   */\n  swap1\n  pop\n    /* \"#utility.yul\":928:1054   */\n  swap2\n  swap1\n  pop\n  jump\t// out\n    /* \"#utility.yul\":1183:1300   */\ntag_15:\n    /* \"#utility.yul\":1292:1293   */\n  0x00\n    /* \"#utility.yul\":1289:1290   */\n  dup1\n    /* \"#utility.yul\":1282:1294   */\n  revert\n    /* \"#utility.yul\":1306:1480   */\ntag_11:\n    /* \"#utility.yul\":1405:1455   */\n  tag_31\n    /* \"#utility.yul\":1449:1454   */\n  dup2\n    /* \"#utility.yul\":1405:1455   */\n  tag_23\n  jump\t// in\ntag_31:\n    /* \"#utility.yul\":1398:1403   */\n  dup2\n    /* \"#utility.yul\":1395:1456   */\n  eq\n    /* \"#utility.yul\":1385:1474   */\n  tag_32\n  jumpi\n    /* \"#utility.yul\":1470:1471   */\n  0x00\n    /* \"#utility.yul\":1467:1468   */\n  dup1\n    /* \"#utility.yul\":1460:1472   */\n  revert\n    /* \"#utility.yul\":1385:1474   */\ntag_32:\n    /* \"#utility.yul\":1306:1480   */\n  pop\n  jump\t// out\n    /* \"contracts/AboatDAO.sol\":278:1653  contract AboatDAO {\r... */\ntag_6:\n  dataSize(sub_0)\n  dup1\n  dataOffset(sub_0)\n  0x00\n  codecopy\n  0x00\n  return\nstop\n\nsub_0: assembly {\n        /* \"contracts/AboatDAO.sol\":278:1653  contract AboatDAO {\r... */\n      mstore(0x40, 0x80)\n      callvalue\n      dup1\n      iszero\n      tag_1\n      jumpi\n      0x00\n      dup1\n      revert\n    tag_1:\n      pop\n      jumpi(tag_2, lt(calldatasize, 0x04))\n      shr(0xe0, calldataload(0x00))\n      dup1\n      0xa3484a36\n      eq\n      tag_3\n      jumpi\n      dup1\n      0xc1f31440\n      eq\n      tag_4\n      jumpi\n    tag_2:\n      0x00\n      dup1\n      revert\n        /* \"contracts/AboatDAO.sol\":654:1650  function getUserVotingPower(address[] memory userWallets) public view returns (uint256) {\r... */\n    tag_3:\n      tag_5\n      0x04\n      dup1\n      calldatasize\n      sub\n      dup2\n      add\n      swap1\n      tag_6\n      swap2\n      swap1\n      tag_7\n      jump\t// in\n    tag_6:\n      tag_8\n      jump\t// in\n    tag_5:\n      mload(0x40)\n      tag_9\n      swap2\n      swap1\n      tag_10\n      jump\t// in\n    tag_9:\n      mload(0x40)\n      dup1\n      swap2\n      sub\n      swap1\n      return\n        /* \"contracts/AboatDAO.sol\":531:646  function getMasterEntertainer() public view returns (address) {\r... */\n    tag_4:\n      tag_11\n      tag_12\n      jump\t// in\n    tag_11:\n      mload(0x40)\n      tag_13\n      swap2\n      swap1\n      tag_14\n      jump\t// in\n    tag_13:\n      mload(0x40)\n      dup1\n      swap2\n      sub\n      swap1\n      return\n        /* \"contracts/AboatDAO.sol\":654:1650  function getUserVotingPower(address[] memory userWallets) public view returns (uint256) {\r... */\n    tag_8:\n        /* \"contracts/AboatDAO.sol\":733:740  uint256 */\n      0x00\n        /* \"contracts/AboatDAO.sol\":753:775  uint256 overallBalance */\n      dup1\n        /* \"contracts/AboatDAO.sol\":778:779  0 */\n      0x00\n        /* \"contracts/AboatDAO.sol\":753:779  uint256 overallBalance = 0 */\n      swap1\n      pop\n        /* \"contracts/AboatDAO.sol\":790:814  uint256 thirtyDayBalance */\n      0x00\n        /* \"contracts/AboatDAO.sol\":829:853  uint256 ninetyDayBalance */\n      dup1\n        /* \"contracts/AboatDAO.sol\":868:891  uint256 halfYearBalance */\n      0x00\n        /* \"contracts/AboatDAO.sol\":906:928  uint256 oneYearBalance */\n      dup1\n        /* \"contracts/AboatDAO.sol\":947:953  uint i */\n      0x00\n        /* \"contracts/AboatDAO.sol\":943:1526  for(uint i = 0; i < userWallets.length; i++) {\r... */\n    tag_16:\n        /* \"contracts/AboatDAO.sol\":963:974  userWallets */\n      dup8\n        /* \"contracts/AboatDAO.sol\":963:981  userWallets.length */\n      mload\n        /* \"contracts/AboatDAO.sol\":959:960  i */\n      dup2\n        /* \"contracts/AboatDAO.sol\":959:981  i < userWallets.length */\n      lt\n        /* \"contracts/AboatDAO.sol\":943:1526  for(uint i = 0; i < userWallets.length; i++) {\r... */\n      iszero\n      tag_17\n      jumpi\n        /* \"contracts/AboatDAO.sol\":1020:1090  overallBalance.add(_masterEntertainer.getBalanceOf(userWallets[i], 0)) */\n      tag_19\n        /* \"contracts/AboatDAO.sol\":1039:1057  _masterEntertainer */\n      0x00\n      dup1\n      sload\n      swap1\n      0x0100\n      exp\n      swap1\n      div\n      0xffffffffffffffffffffffffffffffffffffffff\n      and\n        /* \"contracts/AboatDAO.sol\":1039:1070  _masterEntertainer.getBalanceOf */\n      0xffffffffffffffffffffffffffffffffffffffff\n      and\n      0x94d45b59\n        /* \"contracts/AboatDAO.sol\":1071:1082  userWallets */\n      dup11\n        /* \"contracts/AboatDAO.sol\":1083:1084  i */\n      dup5\n        /* \"contracts/AboatDAO.sol\":1071:1085  userWallets[i] */\n      dup2\n      mload\n      dup2\n      lt\n      tag_20\n      jumpi\n      tag_21\n      tag_22\n      jump\t// in\n    tag_21:\n    tag_20:\n      0x20\n      mul\n      0x20\n      add\n      add\n      mload\n        /* \"contracts/AboatDAO.sol\":1087:1088  0 */\n      0x00\n        /* \"contracts/AboatDAO.sol\":1039:1089  _masterEntertainer.getBalanceOf(userWallets[i], 0) */\n      mload(0x40)\n      dup4\n      0xffffffff\n      and\n      0xe0\n      shl\n      dup2\n      mstore\n      0x04\n      add\n      tag_23\n      swap3\n      swap2\n      swap1\n      tag_24\n      jump\t// in\n    tag_23:\n      0x20\n      mload(0x40)\n      dup1\n      dup4\n      sub\n      dup2\n      dup7\n      dup1\n      extcodesize\n      iszero\n      dup1\n      iszero\n      tag_25\n      jumpi\n      0x00\n      dup1\n      revert\n    tag_25:\n      pop\n      gas\n      staticcall\n      iszero\n      dup1\n      iszero\n      tag_27\n      jumpi\n      returndatasize\n      0x00\n      dup1\n      returndatacopy\n      revert(0x00, returndatasize)\n    tag_27:\n      pop\n      pop\n      pop\n      pop\n      mload(0x40)\n      returndatasize\n      not(0x1f)\n      0x1f\n      dup3\n      add\n      and\n      dup3\n      add\n      dup1\n      0x40\n      mstore\n      pop\n      dup2\n      add\n      swap1\n      tag_28\n      swap2\n      swap1\n      tag_29\n      jump\t// in\n    tag_28:\n        /* \"contracts/AboatDAO.sol\":1020:1034  overallBalance */\n      dup8\n        /* \"contracts/AboatDAO.sol\":1020:1038  overallBalance.add */\n      tag_30\n      swap1\n        /* \"contracts/AboatDAO.sol\":1020:1090  overallBalance.add(_masterEntertainer.getBalanceOf(userWallets[i], 0)) */\n      swap2\n      swap1\n      0xffffffff\n      and\n      jump\t// in\n    tag_19:\n        /* \"contracts/AboatDAO.sol\":1003:1090  overallBalance = overallBalance.add(_masterEntertainer.getBalanceOf(userWallets[i], 0)) */\n      swap6\n      pop\n        /* \"contracts/AboatDAO.sol\":1124:1197  thirtyDayBalance.add(_masterEntertainer.getBalanceOf(userWallets[i], 30)) */\n      tag_31\n        /* \"contracts/AboatDAO.sol\":1145:1163  _masterEntertainer */\n      0x00\n      dup1\n      sload\n      swap1\n      0x0100\n      exp\n      swap1\n      div\n      0xffffffffffffffffffffffffffffffffffffffff\n      and\n        /* \"contracts/AboatDAO.sol\":1145:1176  _masterEntertainer.getBalanceOf */\n      0xffffffffffffffffffffffffffffffffffffffff\n      and\n      0x94d45b59\n        /* \"contracts/AboatDAO.sol\":1177:1188  userWallets */\n      dup11\n        /* \"contracts/AboatDAO.sol\":1189:1190  i */\n      dup5\n        /* \"contracts/AboatDAO.sol\":1177:1191  userWallets[i] */\n      dup2\n      mload\n      dup2\n      lt\n      tag_32\n      jumpi\n      tag_33\n      tag_22\n      jump\t// in\n    tag_33:\n    tag_32:\n      0x20\n      mul\n      0x20\n      add\n      add\n      mload\n        /* \"contracts/AboatDAO.sol\":1193:1195  30 */\n      0x1e\n        /* \"contracts/AboatDAO.sol\":1145:1196  _masterEntertainer.getBalanceOf(userWallets[i], 30) */\n      mload(0x40)\n      dup4\n      0xffffffff\n      and\n      0xe0\n      shl\n      dup2\n      mstore\n      0x04\n      add\n      tag_34\n      swap3\n      swap2\n      swap1\n      tag_35\n      jump\t// in\n    tag_34:\n      0x20\n      mload(0x40)\n      dup1\n      dup4\n      sub\n      dup2\n      dup7\n      dup1\n      extcodesize\n      iszero\n      dup1\n      iszero\n      tag_36\n      jumpi\n      0x00\n      dup1\n      revert\n    tag_36:\n      pop\n      gas\n      staticcall\n      iszero\n      dup1\n      iszero\n      tag_38\n      jumpi\n      returndatasize\n      0x00\n      dup1\n      returndatacopy\n      revert(0x00, returndatasize)\n    tag_38:\n      pop\n      pop\n      pop\n      pop\n      mload(0x40)\n      returndatasize\n      not(0x1f)\n      0x1f\n      dup3\n      add\n      and\n      dup3\n      add\n      dup1\n      0x40\n      mstore\n      pop\n      dup2\n      add\n      swap1\n      tag_39\n      swap2\n      swap1\n      tag_29\n      jump\t// in\n    tag_39:\n        /* \"contracts/AboatDAO.sol\":1124:1140  thirtyDayBalance */\n      dup7\n        /* \"contracts/AboatDAO.sol\":1124:1144  thirtyDayBalance.add */\n      tag_30\n      swap1\n        /* \"contracts/AboatDAO.sol\":1124:1197  thirtyDayBalance.add(_masterEntertainer.getBalanceOf(userWallets[i], 30)) */\n      swap2\n      swap1\n      0xffffffff\n      and\n      jump\t// in\n    tag_31:\n        /* \"contracts/AboatDAO.sol\":1105:1197  thirtyDayBalance = thirtyDayBalance.add(_masterEntertainer.getBalanceOf(userWallets[i], 30)) */\n      swap5\n      pop\n        /* \"contracts/AboatDAO.sol\":1231:1304  ninetyDayBalance.add(_masterEntertainer.getBalanceOf(userWallets[i], 90)) */\n      tag_40\n        /* \"contracts/AboatDAO.sol\":1252:1270  _masterEntertainer */\n      0x00\n      dup1\n      sload\n      swap1\n      0x0100\n      exp\n      swap1\n      div\n      0xffffffffffffffffffffffffffffffffffffffff\n      and\n        /* \"contracts/AboatDAO.sol\":1252:1283  _masterEntertainer.getBalanceOf */\n      0xffffffffffffffffffffffffffffffffffffffff\n      and\n      0x94d45b59\n        /* \"contracts/AboatDAO.sol\":1284:1295  userWallets */\n      dup11\n        /* \"contracts/AboatDAO.sol\":1296:1297  i */\n      dup5\n        /* \"contracts/AboatDAO.sol\":1284:1298  userWallets[i] */\n      dup2\n      mload\n      dup2\n      lt\n      tag_41\n      jumpi\n      tag_42\n      tag_22\n      jump\t// in\n    tag_42:\n    tag_41:\n      0x20\n      mul\n      0x20\n      add\n      add\n      mload\n        /* \"contracts/AboatDAO.sol\":1300:1302  90 */\n      0x5a\n        /* \"contracts/AboatDAO.sol\":1252:1303  _masterEntertainer.getBalanceOf(userWallets[i], 90) */\n      mload(0x40)\n      dup4\n      0xffffffff\n      and\n      0xe0\n      shl\n      dup2\n      mstore\n      0x04\n      add\n      tag_43\n      swap3\n      swap2\n      swap1\n      tag_44\n      jump\t// in\n    tag_43:\n      0x20\n      mload(0x40)\n      dup1\n      dup4\n      sub\n      dup2\n      dup7\n      dup1\n      extcodesize\n      iszero\n      dup1\n      iszero\n      tag_45\n      jumpi\n      0x00\n      dup1\n      revert\n    tag_45:\n      pop\n      gas\n      staticcall\n      iszero\n      dup1\n      iszero\n      tag_47\n      jumpi\n      returndatasize\n      0x00\n      dup1\n      returndatacopy\n      revert(0x00, returndatasize)\n    tag_47:\n      pop\n      pop\n      pop\n      pop\n      mload(0x40)\n      returndatasize\n      not(0x1f)\n      0x1f\n      dup3\n      add\n      and\n      dup3\n      add\n      dup1\n      0x40\n      mstore\n      pop\n      dup2\n      add\n      swap1\n      tag_48\n      swap2\n      swap1\n      tag_29\n      jump\t// in\n    tag_48:\n        /* \"contracts/AboatDAO.sol\":1231:1247  ninetyDayBalance */\n      dup6\n        /* \"contracts/AboatDAO.sol\":1231:1251  ninetyDayBalance.add */\n      tag_30\n      swap1\n        /* \"contracts/AboatDAO.sol\":1231:1304  ninetyDayBalance.add(_masterEntertainer.getBalanceOf(userWallets[i], 90)) */\n      swap2\n      swap1\n      0xffffffff\n      and\n      jump\t// in\n    tag_40:\n        /* \"contracts/AboatDAO.sol\":1212:1304  ninetyDayBalance = ninetyDayBalance.add(_masterEntertainer.getBalanceOf(userWallets[i], 90)) */\n      swap4\n      pop\n        /* \"contracts/AboatDAO.sol\":1337:1410  halfYearBalance.add(_masterEntertainer.getBalanceOf(userWallets[i], 180)) */\n      tag_49\n        /* \"contracts/AboatDAO.sol\":1357:1375  _masterEntertainer */\n      0x00\n      dup1\n      sload\n      swap1\n      0x0100\n      exp\n      swap1\n      div\n      0xffffffffffffffffffffffffffffffffffffffff\n      and\n        /* \"contracts/AboatDAO.sol\":1357:1388  _masterEntertainer.getBalanceOf */\n      0xffffffffffffffffffffffffffffffffffffffff\n      and\n      0x94d45b59\n        /* \"contracts/AboatDAO.sol\":1389:1400  userWallets */\n      dup11\n        /* \"contracts/AboatDAO.sol\":1401:1402  i */\n      dup5\n        /* \"contracts/AboatDAO.sol\":1389:1403  userWallets[i] */\n      dup2\n      mload\n      dup2\n      lt\n      tag_50\n      jumpi\n      tag_51\n      tag_22\n      jump\t// in\n    tag_51:\n    tag_50:\n      0x20\n      mul\n      0x20\n      add\n      add\n      mload\n        /* \"contracts/AboatDAO.sol\":1405:1408  180 */\n      0xb4\n        /* \"contracts/AboatDAO.sol\":1357:1409  _masterEntertainer.getBalanceOf(userWallets[i], 180) */\n      mload(0x40)\n      dup4\n      0xffffffff\n      and\n      0xe0\n      shl\n      dup2\n      mstore\n      0x04\n      add\n      tag_52\n      swap3\n      swap2\n      swap1\n      tag_53\n      jump\t// in\n    tag_52:\n      0x20\n      mload(0x40)\n      dup1\n      dup4\n      sub\n      dup2\n      dup7\n      dup1\n      extcodesize\n      iszero\n      dup1\n      iszero\n      tag_54\n      jumpi\n      0x00\n      dup1\n      revert\n    tag_54:\n      pop\n      gas\n      staticcall\n      iszero\n      dup1\n      iszero\n      tag_56\n      jumpi\n      returndatasize\n      0x00\n      dup1\n      returndatacopy\n      revert(0x00, returndatasize)\n    tag_56:\n      pop\n      pop\n      pop\n      pop\n      mload(0x40)\n      returndatasize\n      not(0x1f)\n      0x1f\n      dup3\n      add\n      and\n      dup3\n      add\n      dup1\n      0x40\n      mstore\n      pop\n      dup2\n      add\n      swap1\n      tag_57\n      swap2\n      swap1\n      tag_29\n      jump\t// in\n    tag_57:\n        /* \"contracts/AboatDAO.sol\":1337:1352  halfYearBalance */\n      dup5\n        /* \"contracts/AboatDAO.sol\":1337:1356  halfYearBalance.add */\n      tag_30\n      swap1\n        /* \"contracts/AboatDAO.sol\":1337:1410  halfYearBalance.add(_masterEntertainer.getBalanceOf(userWallets[i], 180)) */\n      swap2\n      swap1\n      0xffffffff\n      and\n      jump\t// in\n    tag_49:\n        /* \"contracts/AboatDAO.sol\":1319:1410  halfYearBalance = halfYearBalance.add(_masterEntertainer.getBalanceOf(userWallets[i], 180)) */\n      swap3\n      pop\n        /* \"contracts/AboatDAO.sol\":1442:1514  oneYearBalance.add(_masterEntertainer.getBalanceOf(userWallets[i], 360)) */\n      tag_58\n        /* \"contracts/AboatDAO.sol\":1461:1479  _masterEntertainer */\n      0x00\n      dup1\n      sload\n      swap1\n      0x0100\n      exp\n      swap1\n      div\n      0xffffffffffffffffffffffffffffffffffffffff\n      and\n        /* \"contracts/AboatDAO.sol\":1461:1492  _masterEntertainer.getBalanceOf */\n      0xffffffffffffffffffffffffffffffffffffffff\n      and\n      0x94d45b59\n        /* \"contracts/AboatDAO.sol\":1493:1504  userWallets */\n      dup11\n        /* \"contracts/AboatDAO.sol\":1505:1506  i */\n      dup5\n        /* \"contracts/AboatDAO.sol\":1493:1507  userWallets[i] */\n      dup2\n      mload\n      dup2\n      lt\n      tag_59\n      jumpi\n      tag_60\n      tag_22\n      jump\t// in\n    tag_60:\n    tag_59:\n      0x20\n      mul\n      0x20\n      add\n      add\n      mload\n        /* \"contracts/AboatDAO.sol\":1509:1512  360 */\n      0x0168\n        /* \"contracts/AboatDAO.sol\":1461:1513  _masterEntertainer.getBalanceOf(userWallets[i], 360) */\n      mload(0x40)\n      dup4\n      0xffffffff\n      and\n      0xe0\n      shl\n      dup2\n      mstore\n      0x04\n      add\n      tag_61\n      swap3\n      swap2\n      swap1\n      tag_62\n      jump\t// in\n    tag_61:\n      0x20\n      mload(0x40)\n      dup1\n      dup4\n      sub\n      dup2\n      dup7\n      dup1\n      extcodesize\n      iszero\n      dup1\n      iszero\n      tag_63\n      jumpi\n      0x00\n      dup1\n      revert\n    tag_63:\n      pop\n      gas\n      staticcall\n      iszero\n      dup1\n      iszero\n      tag_65\n      jumpi\n      returndatasize\n      0x00\n      dup1\n      returndatacopy\n      revert(0x00, returndatasize)\n    tag_65:\n      pop\n      pop\n      pop\n      pop\n      mload(0x40)\n      returndatasize\n      not(0x1f)\n      0x1f\n      dup3\n      add\n      and\n      dup3\n      add\n      dup1\n      0x40\n      mstore\n      pop\n      dup2\n      add\n      swap1\n      tag_66\n      swap2\n      swap1\n      tag_29\n      jump\t// in\n    tag_66:\n        /* \"contracts/AboatDAO.sol\":1442:1456  oneYearBalance */\n      dup4\n        /* \"contracts/AboatDAO.sol\":1442:1460  oneYearBalance.add */\n      tag_30\n      swap1\n        /* \"contracts/AboatDAO.sol\":1442:1514  oneYearBalance.add(_masterEntertainer.getBalanceOf(userWallets[i], 360)) */\n      swap2\n      swap1\n      0xffffffff\n      and\n      jump\t// in\n    tag_58:\n        /* \"contracts/AboatDAO.sol\":1425:1514  oneYearBalance = oneYearBalance.add(_masterEntertainer.getBalanceOf(userWallets[i], 360)) */\n      swap2\n      pop\n        /* \"contracts/AboatDAO.sol\":983:986  i++ */\n      dup1\n      dup1\n      tag_67\n      swap1\n      tag_68\n      jump\t// in\n    tag_67:\n      swap2\n      pop\n      pop\n        /* \"contracts/AboatDAO.sol\":943:1526  for(uint i = 0; i < userWallets.length; i++) {\r... */\n      jump(tag_16)\n    tag_17:\n      pop\n        /* \"contracts/AboatDAO.sol\":1543:1642  overallBalance.add(thirtyDayBalance).add(ninetyDayBalance).add(halfYearBalance).add(oneYearBalance) */\n      tag_69\n        /* \"contracts/AboatDAO.sol\":1627:1641  oneYearBalance */\n      dup2\n        /* \"contracts/AboatDAO.sol\":1543:1622  overallBalance.add(thirtyDayBalance).add(ninetyDayBalance).add(halfYearBalance) */\n      tag_70\n        /* \"contracts/AboatDAO.sol\":1606:1621  halfYearBalance */\n      dup5\n        /* \"contracts/AboatDAO.sol\":1543:1601  overallBalance.add(thirtyDayBalance).add(ninetyDayBalance) */\n      tag_71\n        /* \"contracts/AboatDAO.sol\":1584:1600  ninetyDayBalance */\n      dup8\n        /* \"contracts/AboatDAO.sol\":1543:1579  overallBalance.add(thirtyDayBalance) */\n      tag_72\n        /* \"contracts/AboatDAO.sol\":1562:1578  thirtyDayBalance */\n      dup11\n        /* \"contracts/AboatDAO.sol\":1543:1557  overallBalance */\n      dup13\n        /* \"contracts/AboatDAO.sol\":1543:1561  overallBalance.add */\n      tag_30\n      swap1\n        /* \"contracts/AboatDAO.sol\":1543:1579  overallBalance.add(thirtyDayBalance) */\n      swap2\n      swap1\n      0xffffffff\n      and\n      jump\t// in\n    tag_72:\n        /* \"contracts/AboatDAO.sol\":1543:1583  overallBalance.add(thirtyDayBalance).add */\n      tag_30\n      swap1\n        /* \"contracts/AboatDAO.sol\":1543:1601  overallBalance.add(thirtyDayBalance).add(ninetyDayBalance) */\n      swap2\n      swap1\n      0xffffffff\n      and\n      jump\t// in\n    tag_71:\n        /* \"contracts/AboatDAO.sol\":1543:1605  overallBalance.add(thirtyDayBalance).add(ninetyDayBalance).add */\n      tag_30\n      swap1\n        /* \"contracts/AboatDAO.sol\":1543:1622  overallBalance.add(thirtyDayBalance).add(ninetyDayBalance).add(halfYearBalance) */\n      swap2\n      swap1\n      0xffffffff\n      and\n      jump\t// in\n    tag_70:\n        /* \"contracts/AboatDAO.sol\":1543:1626  overallBalance.add(thirtyDayBalance).add(ninetyDayBalance).add(halfYearBalance).add */\n      tag_30\n      swap1\n        /* \"contracts/AboatDAO.sol\":1543:1642  overallBalance.add(thirtyDayBalance).add(ninetyDayBalance).add(halfYearBalance).add(oneYearBalance) */\n      swap2\n      swap1\n      0xffffffff\n      and\n      jump\t// in\n    tag_69:\n        /* \"contracts/AboatDAO.sol\":1536:1642  return overallBalance.add(thirtyDayBalance).add(ninetyDayBalance).add(halfYearBalance).add(oneYearBalance) */\n      swap6\n      pop\n      pop\n      pop\n      pop\n      pop\n      pop\n        /* \"contracts/AboatDAO.sol\":654:1650  function getUserVotingPower(address[] memory userWallets) public view returns (uint256) {\r... */\n      swap2\n      swap1\n      pop\n      jump\t// out\n        /* \"contracts/AboatDAO.sol\":531:646  function getMasterEntertainer() public view returns (address) {\r... */\n    tag_12:\n        /* \"contracts/AboatDAO.sol\":584:591  address */\n      0x00\n        /* \"contracts/AboatDAO.sol\":619:637  _masterEntertainer */\n      dup1\n      0x00\n      swap1\n      sload\n      swap1\n      0x0100\n      exp\n      swap1\n      div\n      0xffffffffffffffffffffffffffffffffffffffff\n      and\n        /* \"contracts/AboatDAO.sol\":604:638  return address(_masterEntertainer) */\n      swap1\n      pop\n        /* \"contracts/AboatDAO.sol\":531:646  function getMasterEntertainer() public view returns (address) {\r... */\n      swap1\n      jump\t// out\n        /* \"@openzeppelin/contracts/utils/math/SafeMath.sol\":2672:2768  function add(uint256 a, uint256 b) internal pure returns (uint256) {... */\n    tag_30:\n        /* \"@openzeppelin/contracts/utils/math/SafeMath.sol\":2730:2737  uint256 */\n      0x00\n        /* \"@openzeppelin/contracts/utils/math/SafeMath.sol\":2760:2761  b */\n      dup2\n        /* \"@openzeppelin/contracts/utils/math/SafeMath.sol\":2756:2757  a */\n      dup4\n        /* \"@openzeppelin/contracts/utils/math/SafeMath.sol\":2756:2761  a + b */\n      tag_75\n      swap2\n      swap1\n      tag_76\n      jump\t// in\n    tag_75:\n        /* \"@openzeppelin/contracts/utils/math/SafeMath.sol\":2749:2761  return a + b */\n      swap1\n      pop\n        /* \"@openzeppelin/contracts/utils/math/SafeMath.sol\":2672:2768  function add(uint256 a, uint256 b) internal pure returns (uint256) {... */\n      swap3\n      swap2\n      pop\n      pop\n      jump\t// out\n        /* \"#utility.yul\":24:746   */\n    tag_78:\n        /* \"#utility.yul\":120:125   */\n      0x00\n        /* \"#utility.yul\":145:226   */\n      tag_80\n        /* \"#utility.yul\":161:225   */\n      tag_81\n        /* \"#utility.yul\":218:224   */\n      dup5\n        /* \"#utility.yul\":161:225   */\n      tag_82\n      jump\t// in\n    tag_81:\n        /* \"#utility.yul\":145:226   */\n      tag_83\n      jump\t// in\n    tag_80:\n        /* \"#utility.yul\":136:226   */\n      swap1\n      pop\n        /* \"#utility.yul\":246:251   */\n      dup1\n        /* \"#utility.yul\":275:281   */\n      dup4\n        /* \"#utility.yul\":268:273   */\n      dup3\n        /* \"#utility.yul\":261:282   */\n      mstore\n        /* \"#utility.yul\":309:313   */\n      0x20\n        /* \"#utility.yul\":302:307   */\n      dup3\n        /* \"#utility.yul\":298:314   */\n      add\n        /* \"#utility.yul\":291:314   */\n      swap1\n      pop\n        /* \"#utility.yul\":335:341   */\n      dup3\n        /* \"#utility.yul\":385:388   */\n      dup6\n        /* \"#utility.yul\":377:381   */\n      0x20\n        /* \"#utility.yul\":369:375   */\n      dup7\n        /* \"#utility.yul\":365:382   */\n      mul\n        /* \"#utility.yul\":360:363   */\n      dup3\n        /* \"#utility.yul\":356:383   */\n      add\n        /* \"#utility.yul\":353:389   */\n      gt\n        /* \"#utility.yul\":350:493   */\n      iszero\n      tag_84\n      jumpi\n        /* \"#utility.yul\":404:483   */\n      tag_85\n      tag_86\n      jump\t// in\n    tag_85:\n        /* \"#utility.yul\":350:493   */\n    tag_84:\n        /* \"#utility.yul\":517:518   */\n      0x00\n        /* \"#utility.yul\":502:740   */\n    tag_87:\n        /* \"#utility.yul\":527:533   */\n      dup6\n        /* \"#utility.yul\":524:525   */\n      dup2\n        /* \"#utility.yul\":521:534   */\n      lt\n        /* \"#utility.yul\":502:740   */\n      iszero\n      tag_89\n      jumpi\n        /* \"#utility.yul\":595:598   */\n      dup2\n        /* \"#utility.yul\":624:661   */\n      tag_90\n        /* \"#utility.yul\":657:660   */\n      dup9\n        /* \"#utility.yul\":645:655   */\n      dup3\n        /* \"#utility.yul\":624:661   */\n      tag_91\n      jump\t// in\n    tag_90:\n        /* \"#utility.yul\":619:622   */\n      dup5\n        /* \"#utility.yul\":612:662   */\n      mstore\n        /* \"#utility.yul\":691:695   */\n      0x20\n        /* \"#utility.yul\":686:689   */\n      dup5\n        /* \"#utility.yul\":682:696   */\n      add\n        /* \"#utility.yul\":675:696   */\n      swap4\n      pop\n        /* \"#utility.yul\":725:729   */\n      0x20\n        /* \"#utility.yul\":720:723   */\n      dup4\n        /* \"#utility.yul\":716:730   */\n      add\n        /* \"#utility.yul\":709:730   */\n      swap3\n      pop\n        /* \"#utility.yul\":562:740   */\n      pop\n        /* \"#utility.yul\":549:550   */\n      0x01\n        /* \"#utility.yul\":546:547   */\n      dup2\n        /* \"#utility.yul\":542:551   */\n      add\n        /* \"#utility.yul\":537:551   */\n      swap1\n      pop\n        /* \"#utility.yul\":502:740   */\n      jump(tag_87)\n    tag_89:\n        /* \"#utility.yul\":506:520   */\n      pop\n        /* \"#utility.yul\":126:746   */\n      pop\n      pop\n        /* \"#utility.yul\":24:746   */\n      swap4\n      swap3\n      pop\n      pop\n      pop\n      jump\t// out\n        /* \"#utility.yul\":752:891   */\n    tag_91:\n        /* \"#utility.yul\":798:803   */\n      0x00\n        /* \"#utility.yul\":836:842   */\n      dup2\n        /* \"#utility.yul\":823:843   */\n      calldataload\n        /* \"#utility.yul\":814:843   */\n      swap1\n      pop\n        /* \"#utility.yul\":852:885   */\n      tag_93\n        /* \"#utility.yul\":879:884   */\n      dup2\n        /* \"#utility.yul\":852:885   */\n      tag_94\n      jump\t// in\n    tag_93:\n        /* \"#utility.yul\":752:891   */\n      swap3\n      swap2\n      pop\n      pop\n      jump\t// out\n        /* \"#utility.yul\":914:1284   */\n    tag_95:\n        /* \"#utility.yul\":985:990   */\n      0x00\n        /* \"#utility.yul\":1034:1037   */\n      dup3\n        /* \"#utility.yul\":1027:1031   */\n      0x1f\n        /* \"#utility.yul\":1019:1025   */\n      dup4\n        /* \"#utility.yul\":1015:1032   */\n      add\n        /* \"#utility.yul\":1011:1038   */\n      slt\n        /* \"#utility.yul\":1001:1123   */\n      tag_97\n      jumpi\n        /* \"#utility.yul\":1042:1121   */\n      tag_98\n      tag_99\n      jump\t// in\n    tag_98:\n        /* \"#utility.yul\":1001:1123   */\n    tag_97:\n        /* \"#utility.yul\":1159:1165   */\n      dup2\n        /* \"#utility.yul\":1146:1166   */\n      calldataload\n        /* \"#utility.yul\":1184:1278   */\n      tag_100\n        /* \"#utility.yul\":1274:1277   */\n      dup5\n        /* \"#utility.yul\":1266:1272   */\n      dup3\n        /* \"#utility.yul\":1259:1263   */\n      0x20\n        /* \"#utility.yul\":1251:1257   */\n      dup7\n        /* \"#utility.yul\":1247:1264   */\n      add\n        /* \"#utility.yul\":1184:1278   */\n      tag_78\n      jump\t// in\n    tag_100:\n        /* \"#utility.yul\":1175:1278   */\n      swap2\n      pop\n        /* \"#utility.yul\":991:1284   */\n      pop\n        /* \"#utility.yul\":914:1284   */\n      swap3\n      swap2\n      pop\n      pop\n      jump\t// out\n        /* \"#utility.yul\":1290:1433   */\n    tag_101:\n        /* \"#utility.yul\":1347:1352   */\n      0x00\n        /* \"#utility.yul\":1378:1384   */\n      dup2\n        /* \"#utility.yul\":1372:1385   */\n      mload\n        /* \"#utility.yul\":1363:1385   */\n      swap1\n      pop\n        /* \"#utility.yul\":1394:1427   */\n      tag_103\n        /* \"#utility.yul\":1421:1426   */\n      dup2\n        /* \"#utility.yul\":1394:1427   */\n      tag_104\n      jump\t// in\n    tag_103:\n        /* \"#utility.yul\":1290:1433   */\n      swap3\n      swap2\n      pop\n      pop\n      jump\t// out\n        /* \"#utility.yul\":1439:1978   */\n    tag_7:\n        /* \"#utility.yul\":1523:1529   */\n      0x00\n        /* \"#utility.yul\":1572:1574   */\n      0x20\n        /* \"#utility.yul\":1560:1569   */\n      dup3\n        /* \"#utility.yul\":1551:1558   */\n      dup5\n        /* \"#utility.yul\":1547:1570   */\n      sub\n        /* \"#utility.yul\":1543:1575   */\n      slt\n        /* \"#utility.yul\":1540:1659   */\n      iszero\n      tag_106\n      jumpi\n        /* \"#utility.yul\":1578:1657   */\n      tag_107\n      tag_108\n      jump\t// in\n    tag_107:\n        /* \"#utility.yul\":1540:1659   */\n    tag_106:\n        /* \"#utility.yul\":1726:1727   */\n      0x00\n        /* \"#utility.yul\":1715:1724   */\n      dup3\n        /* \"#utility.yul\":1711:1728   */\n      add\n        /* \"#utility.yul\":1698:1729   */\n      calldataload\n        /* \"#utility.yul\":1756:1774   */\n      0xffffffffffffffff\n        /* \"#utility.yul\":1748:1754   */\n      dup2\n        /* \"#utility.yul\":1745:1775   */\n      gt\n        /* \"#utility.yul\":1742:1859   */\n      iszero\n      tag_109\n      jumpi\n        /* \"#utility.yul\":1778:1857   */\n      tag_110\n      tag_111\n      jump\t// in\n    tag_110:\n        /* \"#utility.yul\":1742:1859   */\n    tag_109:\n        /* \"#utility.yul\":1883:1961   */\n      tag_112\n        /* \"#utility.yul\":1953:1960   */\n      dup5\n        /* \"#utility.yul\":1944:1950   */\n      dup3\n        /* \"#utility.yul\":1933:1942   */\n      dup6\n        /* \"#utility.yul\":1929:1951   */\n      add\n        /* \"#utility.yul\":1883:1961   */\n      tag_95\n      jump\t// in\n    tag_112:\n        /* \"#utility.yul\":1873:1961   */\n      swap2\n      pop\n        /* \"#utility.yul\":1669:1971   */\n      pop\n        /* \"#utility.yul\":1439:1978   */\n      swap3\n      swap2\n      pop\n      pop\n      jump\t// out\n        /* \"#utility.yul\":1984:2335   */\n    tag_29:\n        /* \"#utility.yul\":2054:2060   */\n      0x00\n        /* \"#utility.yul\":2103:2105   */\n      0x20\n        /* \"#utility.yul\":2091:2100   */\n      dup3\n        /* \"#utility.yul\":2082:2089   */\n      dup5\n        /* \"#utility.yul\":2078:2101   */\n      sub\n        /* \"#utility.yul\":2074:2106   */\n      slt\n        /* \"#utility.yul\":2071:2190   */\n      iszero\n      tag_114\n      jumpi\n        /* \"#utility.yul\":2109:2188   */\n      tag_115\n      tag_108\n      jump\t// in\n    tag_115:\n        /* \"#utility.yul\":2071:2190   */\n    tag_114:\n        /* \"#utility.yul\":2229:2230   */\n      0x00\n        /* \"#utility.yul\":2254:2318   */\n      tag_116\n        /* \"#utility.yul\":2310:2317   */\n      dup5\n        /* \"#utility.yul\":2301:2307   */\n      dup3\n        /* \"#utility.yul\":2290:2299   */\n      dup6\n        /* \"#utility.yul\":2286:2308   */\n      add\n        /* \"#utility.yul\":2254:2318   */\n      tag_101\n      jump\t// in\n    tag_116:\n        /* \"#utility.yul\":2244:2318   */\n      swap2\n      pop\n        /* \"#utility.yul\":2200:2328   */\n      pop\n        /* \"#utility.yul\":1984:2335   */\n      swap3\n      swap2\n      pop\n      pop\n      jump\t// out\n        /* \"#utility.yul\":2341:2459   */\n    tag_117:\n        /* \"#utility.yul\":2428:2452   */\n      tag_119\n        /* \"#utility.yul\":2446:2451   */\n      dup2\n        /* \"#utility.yul\":2428:2452   */\n      tag_120\n      jump\t// in\n    tag_119:\n        /* \"#utility.yul\":2423:2426   */\n      dup3\n        /* \"#utility.yul\":2416:2453   */\n      mstore\n        /* \"#utility.yul\":2341:2459   */\n      pop\n      pop\n      jump\t// out\n        /* \"#utility.yul\":2465:2612   */\n    tag_121:\n        /* \"#utility.yul\":2560:2605   */\n      tag_123\n        /* \"#utility.yul\":2599:2604   */\n      dup2\n        /* \"#utility.yul\":2560:2605   */\n      tag_124\n      jump\t// in\n    tag_123:\n        /* \"#utility.yul\":2555:2558   */\n      dup3\n        /* \"#utility.yul\":2548:2606   */\n      mstore\n        /* \"#utility.yul\":2465:2612   */\n      pop\n      pop\n      jump\t// out\n        /* \"#utility.yul\":2618:2769   */\n    tag_125:\n        /* \"#utility.yul\":2715:2762   */\n      tag_127\n        /* \"#utility.yul\":2756:2761   */\n      dup2\n        /* \"#utility.yul\":2715:2762   */\n      tag_128\n      jump\t// in\n    tag_127:\n        /* \"#utility.yul\":2710:2713   */\n      dup3\n        /* \"#utility.yul\":2703:2763   */\n      mstore\n        /* \"#utility.yul\":2618:2769   */\n      pop\n      pop\n      jump\t// out\n        /* \"#utility.yul\":2775:2924   */\n    tag_129:\n        /* \"#utility.yul\":2871:2917   */\n      tag_131\n        /* \"#utility.yul\":2911:2916   */\n      dup2\n        /* \"#utility.yul\":2871:2917   */\n      tag_132\n      jump\t// in\n    tag_131:\n        /* \"#utility.yul\":2866:2869   */\n      dup3\n        /* \"#utility.yul\":2859:2918   */\n      mstore\n        /* \"#utility.yul\":2775:2924   */\n      pop\n      pop\n      jump\t// out\n        /* \"#utility.yul\":2930:3081   */\n    tag_133:\n        /* \"#utility.yul\":3027:3074   */\n      tag_135\n        /* \"#utility.yul\":3068:3073   */\n      dup2\n        /* \"#utility.yul\":3027:3074   */\n      tag_136\n      jump\t// in\n    tag_135:\n        /* \"#utility.yul\":3022:3025   */\n      dup3\n        /* \"#utility.yul\":3015:3075   */\n      mstore\n        /* \"#utility.yul\":2930:3081   */\n      pop\n      pop\n      jump\t// out\n        /* \"#utility.yul\":3087:3236   */\n    tag_137:\n        /* \"#utility.yul\":3183:3229   */\n      tag_139\n        /* \"#utility.yul\":3223:3228   */\n      dup2\n        /* \"#utility.yul\":3183:3229   */\n      tag_140\n      jump\t// in\n    tag_139:\n        /* \"#utility.yul\":3178:3181   */\n      dup3\n        /* \"#utility.yul\":3171:3230   */\n      mstore\n        /* \"#utility.yul\":3087:3236   */\n      pop\n      pop\n      jump\t// out\n        /* \"#utility.yul\":3242:3360   */\n    tag_141:\n        /* \"#utility.yul\":3329:3353   */\n      tag_143\n        /* \"#utility.yul\":3347:3352   */\n      dup2\n        /* \"#utility.yul\":3329:3353   */\n      tag_144\n      jump\t// in\n    tag_143:\n        /* \"#utility.yul\":3324:3327   */\n      dup3\n        /* \"#utility.yul\":3317:3354   */\n      mstore\n        /* \"#utility.yul\":3242:3360   */\n      pop\n      pop\n      jump\t// out\n        /* \"#utility.yul\":3366:3588   */\n    tag_14:\n        /* \"#utility.yul\":3459:3463   */\n      0x00\n        /* \"#utility.yul\":3497:3499   */\n      0x20\n        /* \"#utility.yul\":3486:3495   */\n      dup3\n        /* \"#utility.yul\":3482:3500   */\n      add\n        /* \"#utility.yul\":3474:3500   */\n      swap1\n      pop\n        /* \"#utility.yul\":3510:3581   */\n      tag_146\n        /* \"#utility.yul\":3578:3579   */\n      0x00\n        /* \"#utility.yul\":3567:3576   */\n      dup4\n        /* \"#utility.yul\":3563:3580   */\n      add\n        /* \"#utility.yul\":3554:3560   */\n      dup5\n        /* \"#utility.yul\":3510:3581   */\n      tag_117\n      jump\t// in\n    tag_146:\n        /* \"#utility.yul\":3366:3588   */\n      swap3\n      swap2\n      pop\n      pop\n      jump\t// out\n        /* \"#utility.yul\":3594:3942   */\n    tag_24:\n        /* \"#utility.yul\":3723:3727   */\n      0x00\n        /* \"#utility.yul\":3761:3763   */\n      0x40\n        /* \"#utility.yul\":3750:3759   */\n      dup3\n        /* \"#utility.yul\":3746:3764   */\n      add\n        /* \"#utility.yul\":3738:3764   */\n      swap1\n      pop\n        /* \"#utility.yul\":3774:3845   */\n      tag_148\n        /* \"#utility.yul\":3842:3843   */\n      0x00\n        /* \"#utility.yul\":3831:3840   */\n      dup4\n        /* \"#utility.yul\":3827:3844   */\n      add\n        /* \"#utility.yul\":3818:3824   */\n      dup6\n        /* \"#utility.yul\":3774:3845   */\n      tag_117\n      jump\t// in\n    tag_148:\n        /* \"#utility.yul\":3855:3935   */\n      tag_149\n        /* \"#utility.yul\":3931:3933   */\n      0x20\n        /* \"#utility.yul\":3920:3929   */\n      dup4\n        /* \"#utility.yul\":3916:3934   */\n      add\n        /* \"#utility.yul\":3907:3913   */\n      dup5\n        /* \"#utility.yul\":3855:3935   */\n      tag_121\n      jump\t// in\n    tag_149:\n        /* \"#utility.yul\":3594:3942   */\n      swap4\n      swap3\n      pop\n      pop\n      pop\n      jump\t// out\n        /* \"#utility.yul\":3948:4300   */\n    tag_53:\n        /* \"#utility.yul\":4079:4083   */\n      0x00\n        /* \"#utility.yul\":4117:4119   */\n      0x40\n        /* \"#utility.yul\":4106:4115   */\n      dup3\n        /* \"#utility.yul\":4102:4120   */\n      add\n        /* \"#utility.yul\":4094:4120   */\n      swap1\n      pop\n        /* \"#utility.yul\":4130:4201   */\n      tag_151\n        /* \"#utility.yul\":4198:4199   */\n      0x00\n        /* \"#utility.yul\":4187:4196   */\n      dup4\n        /* \"#utility.yul\":4183:4200   */\n      add\n        /* \"#utility.yul\":4174:4180   */\n      dup6\n        /* \"#utility.yul\":4130:4201   */\n      tag_117\n      jump\t// in\n    tag_151:\n        /* \"#utility.yul\":4211:4293   */\n      tag_152\n        /* \"#utility.yul\":4289:4291   */\n      0x20\n        /* \"#utility.yul\":4278:4287   */\n      dup4\n        /* \"#utility.yul\":4274:4292   */\n      add\n        /* \"#utility.yul\":4265:4271   */\n      dup5\n        /* \"#utility.yul\":4211:4293   */\n      tag_125\n      jump\t// in\n    tag_152:\n        /* \"#utility.yul\":3948:4300   */\n      swap4\n      swap3\n      pop\n      pop\n      pop\n      jump\t// out\n        /* \"#utility.yul\":4306:4656   */\n    tag_35:\n        /* \"#utility.yul\":4436:4440   */\n      0x00\n        /* \"#utility.yul\":4474:4476   */\n      0x40\n        /* \"#utility.yul\":4463:4472   */\n      dup3\n        /* \"#utility.yul\":4459:4477   */\n      add\n        /* \"#utility.yul\":4451:4477   */\n      swap1\n      pop\n        /* \"#utility.yul\":4487:4558   */\n      tag_154\n        /* \"#utility.yul\":4555:4556   */\n      0x00\n        /* \"#utility.yul\":4544:4553   */\n      dup4\n        /* \"#utility.yul\":4540:4557   */\n      add\n        /* \"#utility.yul\":4531:4537   */\n      dup6\n        /* \"#utility.yul\":4487:4558   */\n      tag_117\n      jump\t// in\n    tag_154:\n        /* \"#utility.yul\":4568:4649   */\n      tag_155\n        /* \"#utility.yul\":4645:4647   */\n      0x20\n        /* \"#utility.yul\":4634:4643   */\n      dup4\n        /* \"#utility.yul\":4630:4648   */\n      add\n        /* \"#utility.yul\":4621:4627   */\n      dup5\n        /* \"#utility.yul\":4568:4649   */\n      tag_129\n      jump\t// in\n    tag_155:\n        /* \"#utility.yul\":4306:4656   */\n      swap4\n      swap3\n      pop\n      pop\n      pop\n      jump\t// out\n        /* \"#utility.yul\":4662:5014   */\n    tag_62:\n        /* \"#utility.yul\":4793:4797   */\n      0x00\n        /* \"#utility.yul\":4831:4833   */\n      0x40\n        /* \"#utility.yul\":4820:4829   */\n      dup3\n        /* \"#utility.yul\":4816:4834   */\n      add\n        /* \"#utility.yul\":4808:4834   */\n      swap1\n      pop\n        /* \"#utility.yul\":4844:4915   */\n      tag_157\n        /* \"#utility.yul\":4912:4913   */\n      0x00\n        /* \"#utility.yul\":4901:4910   */\n      dup4\n        /* \"#utility.yul\":4897:4914   */\n      add\n        /* \"#utility.yul\":4888:4894   */\n      dup6\n        /* \"#utility.yul\":4844:4915   */\n      tag_117\n      jump\t// in\n    tag_157:\n        /* \"#utility.yul\":4925:5007   */\n      tag_158\n        /* \"#utility.yul\":5003:5005   */\n      0x20\n        /* \"#utility.yul\":4992:5001   */\n      dup4\n        /* \"#utility.yul\":4988:5006   */\n      add\n        /* \"#utility.yul\":4979:4985   */\n      dup5\n        /* \"#utility.yul\":4925:5007   */\n      tag_133\n      jump\t// in\n    tag_158:\n        /* \"#utility.yul\":4662:5014   */\n      swap4\n      swap3\n      pop\n      pop\n      pop\n      jump\t// out\n        /* \"#utility.yul\":5020:5370   */\n    tag_44:\n        /* \"#utility.yul\":5150:5154   */\n      0x00\n        /* \"#utility.yul\":5188:5190   */\n      0x40\n        /* \"#utility.yul\":5177:5186   */\n      dup3\n        /* \"#utility.yul\":5173:5191   */\n      add\n        /* \"#utility.yul\":5165:5191   */\n      swap1\n      pop\n        /* \"#utility.yul\":5201:5272   */\n      tag_160\n        /* \"#utility.yul\":5269:5270   */\n      0x00\n        /* \"#utility.yul\":5258:5267   */\n      dup4\n        /* \"#utility.yul\":5254:5271   */\n      add\n        /* \"#utility.yul\":5245:5251   */\n      dup6\n        /* \"#utility.yul\":5201:5272   */\n      tag_117\n      jump\t// in\n    tag_160:\n        /* \"#utility.yul\":5282:5363   */\n      tag_161\n        /* \"#utility.yul\":5359:5361   */\n      0x20\n        /* \"#utility.yul\":5348:5357   */\n      dup4\n        /* \"#utility.yul\":5344:5362   */\n      add\n        /* \"#utility.yul\":5335:5341   */\n      dup5\n        /* \"#utility.yul\":5282:5363   */\n      tag_137\n      jump\t// in\n    tag_161:\n        /* \"#utility.yul\":5020:5370   */\n      swap4\n      swap3\n      pop\n      pop\n      pop\n      jump\t// out\n        /* \"#utility.yul\":5376:5598   */\n    tag_10:\n        /* \"#utility.yul\":5469:5473   */\n      0x00\n        /* \"#utility.yul\":5507:5509   */\n      0x20\n        /* \"#utility.yul\":5496:5505   */\n      dup3\n        /* \"#utility.yul\":5492:5510   */\n      add\n        /* \"#utility.yul\":5484:5510   */\n      swap1\n      pop\n        /* \"#utility.yul\":5520:5591   */\n      tag_163\n        /* \"#utility.yul\":5588:5589   */\n      0x00\n        /* \"#utility.yul\":5577:5586   */\n      dup4\n        /* \"#utility.yul\":5573:5590   */\n      add\n        /* \"#utility.yul\":5564:5570   */\n      dup5\n        /* \"#utility.yul\":5520:5591   */\n      tag_141\n      jump\t// in\n    tag_163:\n        /* \"#utility.yul\":5376:5598   */\n      swap3\n      swap2\n      pop\n      pop\n      jump\t// out\n        /* \"#utility.yul\":5604:5733   */\n    tag_83:\n        /* \"#utility.yul\":5638:5644   */\n      0x00\n        /* \"#utility.yul\":5665:5685   */\n      tag_165\n      tag_166\n      jump\t// in\n    tag_165:\n        /* \"#utility.yul\":5655:5685   */\n      swap1\n      pop\n        /* \"#utility.yul\":5694:5727   */\n      tag_167\n        /* \"#utility.yul\":5722:5726   */\n      dup3\n        /* \"#utility.yul\":5714:5720   */\n      dup3\n        /* \"#utility.yul\":5694:5727   */\n      tag_168\n      jump\t// in\n    tag_167:\n        /* \"#utility.yul\":5604:5733   */\n      swap2\n      swap1\n      pop\n      jump\t// out\n        /* \"#utility.yul\":5739:5814   */\n    tag_166:\n        /* \"#utility.yul\":5772:5778   */\n      0x00\n        /* \"#utility.yul\":5805:5807   */\n      0x40\n        /* \"#utility.yul\":5799:5808   */\n      mload\n        /* \"#utility.yul\":5789:5808   */\n      swap1\n      pop\n        /* \"#utility.yul\":5739:5814   */\n      swap1\n      jump\t// out\n        /* \"#utility.yul\":5820:6131   */\n    tag_82:\n        /* \"#utility.yul\":5897:5901   */\n      0x00\n        /* \"#utility.yul\":5987:6005   */\n      0xffffffffffffffff\n        /* \"#utility.yul\":5979:5985   */\n      dup3\n        /* \"#utility.yul\":5976:6006   */\n      gt\n        /* \"#utility.yul\":5973:6029   */\n      iszero\n      tag_171\n      jumpi\n        /* \"#utility.yul\":6009:6027   */\n      tag_172\n      tag_173\n      jump\t// in\n    tag_172:\n        /* \"#utility.yul\":5973:6029   */\n    tag_171:\n        /* \"#utility.yul\":6059:6063   */\n      0x20\n        /* \"#utility.yul\":6051:6057   */\n      dup3\n        /* \"#utility.yul\":6047:6064   */\n      mul\n        /* \"#utility.yul\":6039:6064   */\n      swap1\n      pop\n        /* \"#utility.yul\":6119:6123   */\n      0x20\n        /* \"#utility.yul\":6113:6117   */\n      dup2\n        /* \"#utility.yul\":6109:6124   */\n      add\n        /* \"#utility.yul\":6101:6124   */\n      swap1\n      pop\n        /* \"#utility.yul\":5820:6131   */\n      swap2\n      swap1\n      pop\n      jump\t// out\n        /* \"#utility.yul\":6137:6442   */\n    tag_76:\n        /* \"#utility.yul\":6177:6180   */\n      0x00\n        /* \"#utility.yul\":6196:6216   */\n      tag_175\n        /* \"#utility.yul\":6214:6215   */\n      dup3\n        /* \"#utility.yul\":6196:6216   */\n      tag_144\n      jump\t// in\n    tag_175:\n        /* \"#utility.yul\":6191:6216   */\n      swap2\n      pop\n        /* \"#utility.yul\":6230:6250   */\n      tag_176\n        /* \"#utility.yul\":6248:6249   */\n      dup4\n        /* \"#utility.yul\":6230:6250   */\n      tag_144\n      jump\t// in\n    tag_176:\n        /* \"#utility.yul\":6225:6250   */\n      swap3\n      pop\n        /* \"#utility.yul\":6384:6385   */\n      dup3\n        /* \"#utility.yul\":6316:6382   */\n      0xffffffffffffffffffffffffffffffffffffffffffffffffffffffffffffffff\n        /* \"#utility.yul\":6312:6386   */\n      sub\n        /* \"#utility.yul\":6309:6310   */\n      dup3\n        /* \"#utility.yul\":6306:6387   */\n      gt\n        /* \"#utility.yul\":6303:6410   */\n      iszero\n      tag_177\n      jumpi\n        /* \"#utility.yul\":6390:6408   */\n      tag_178\n      tag_179\n      jump\t// in\n    tag_178:\n        /* \"#utility.yul\":6303:6410   */\n    tag_177:\n        /* \"#utility.yul\":6434:6435   */\n      dup3\n        /* \"#utility.yul\":6431:6432   */\n      dup3\n        /* \"#utility.yul\":6427:6436   */\n      add\n        /* \"#utility.yul\":6420:6436   */\n      swap1\n      pop\n        /* \"#utility.yul\":6137:6442   */\n      swap3\n      swap2\n      pop\n      pop\n      jump\t// out\n        /* \"#utility.yul\":6448:6544   */\n    tag_120:\n        /* \"#utility.yul\":6485:6492   */\n      0x00\n        /* \"#utility.yul\":6514:6538   */\n      tag_181\n        /* \"#utility.yul\":6532:6537   */\n      dup3\n        /* \"#utility.yul\":6514:6538   */\n      tag_182\n      jump\t// in\n    tag_181:\n        /* \"#utility.yul\":6503:6538   */\n      swap1\n      pop\n        /* \"#utility.yul\":6448:6544   */\n      swap2\n      swap1\n      pop\n      jump\t// out\n        /* \"#utility.yul\":6550:6676   */\n    tag_182:\n        /* \"#utility.yul\":6587:6594   */\n      0x00\n        /* \"#utility.yul\":6627:6669   */\n      0xffffffffffffffffffffffffffffffffffffffff\n        /* \"#utility.yul\":6620:6625   */\n      dup3\n        /* \"#utility.yul\":6616:6670   */\n      and\n        /* \"#utility.yul\":6605:6670   */\n      swap1\n      pop\n        /* \"#utility.yul\":6550:6676   */\n      swap2\n      swap1\n      pop\n      jump\t// out\n        /* \"#utility.yul\":6682:6759   */\n    tag_144:\n        /* \"#utility.yul\":6719:6726   */\n      0x00\n        /* \"#utility.yul\":6748:6753   */\n      dup2\n        /* \"#utility.yul\":6737:6753   */\n      swap1\n      pop\n        /* \"#utility.yul\":6682:6759   */\n      swap2\n      swap1\n      pop\n      jump\t// out\n        /* \"#utility.yul\":6765:6886   */\n    tag_124:\n        /* \"#utility.yul\":6823:6832   */\n      0x00\n        /* \"#utility.yul\":6856:6880   */\n      tag_186\n        /* \"#utility.yul\":6874:6879   */\n      dup3\n        /* \"#utility.yul\":6856:6880   */\n      tag_144\n      jump\t// in\n    tag_186:\n        /* \"#utility.yul\":6843:6880   */\n      swap1\n      pop\n        /* \"#utility.yul\":6765:6886   */\n      swap2\n      swap1\n      pop\n      jump\t// out\n        /* \"#utility.yul\":6892:7015   */\n    tag_128:\n        /* \"#utility.yul\":6952:6961   */\n      0x00\n        /* \"#utility.yul\":6985:7009   */\n      tag_188\n        /* \"#utility.yul\":7003:7008   */\n      dup3\n        /* \"#utility.yul\":6985:7009   */\n      tag_144\n      jump\t// in\n    tag_188:\n        /* \"#utility.yul\":6972:7009   */\n      swap1\n      pop\n        /* \"#utility.yul\":6892:7015   */\n      swap2\n      swap1\n      pop\n      jump\t// out\n        /* \"#utility.yul\":7021:7143   */\n    tag_132:\n        /* \"#utility.yul\":7080:7089   */\n      0x00\n        /* \"#utility.yul\":7113:7137   */\n      tag_190\n        /* \"#utility.yul\":7131:7136   */\n      dup3\n        /* \"#utility.yul\":7113:7137   */\n      tag_144\n      jump\t// in\n    tag_190:\n        /* \"#utility.yul\":7100:7137   */\n      swap1\n      pop\n        /* \"#utility.yul\":7021:7143   */\n      swap2\n      swap1\n      pop\n      jump\t// out\n        /* \"#utility.yul\":7149:7272   */\n    tag_136:\n        /* \"#utility.yul\":7209:7218   */\n      0x00\n        /* \"#utility.yul\":7242:7266   */\n      tag_192\n        /* \"#utility.yul\":7260:7265   */\n      dup3\n        /* \"#utility.yul\":7242:7266   */\n      tag_144\n      jump\t// in\n    tag_192:\n        /* \"#utility.yul\":7229:7266   */\n      swap1\n      pop\n        /* \"#utility.yul\":7149:7272   */\n      swap2\n      swap1\n      pop\n      jump\t// out\n        /* \"#utility.yul\":7278:7400   */\n    tag_140:\n        /* \"#utility.yul\":7337:7346   */\n      0x00\n        /* \"#utility.yul\":7370:7394   */\n      tag_194\n        /* \"#utility.yul\":7388:7393   */\n      dup3\n        /* \"#utility.yul\":7370:7394   */\n      tag_144\n      jump\t// in\n    tag_194:\n        /* \"#utility.yul\":7357:7394   */\n      swap1\n      pop\n        /* \"#utility.yul\":7278:7400   */\n      swap2\n      swap1\n      pop\n      jump\t// out\n        /* \"#utility.yul\":7406:7687   */\n    tag_168:\n        /* \"#utility.yul\":7489:7516   */\n      tag_196\n        /* \"#utility.yul\":7511:7515   */\n      dup3\n        /* \"#utility.yul\":7489:7516   */\n      tag_197\n      jump\t// in\n    tag_196:\n        /* \"#utility.yul\":7481:7487   */\n      dup2\n        /* \"#utility.yul\":7477:7517   */\n      add\n        /* \"#utility.yul\":7619:7625   */\n      dup2\n        /* \"#utility.yul\":7607:7617   */\n      dup2\n        /* \"#utility.yul\":7604:7626   */\n      lt\n        /* \"#utility.yul\":7583:7601   */\n      0xffffffffffffffff\n        /* \"#utility.yul\":7571:7581   */\n      dup3\n        /* \"#utility.yul\":7568:7602   */\n      gt\n        /* \"#utility.yul\":7565:7627   */\n      or\n        /* \"#utility.yul\":7562:7650   */\n      iszero\n      tag_198\n      jumpi\n        /* \"#utility.yul\":7630:7648   */\n      tag_199\n      tag_173\n      jump\t// in\n    tag_199:\n        /* \"#utility.yul\":7562:7650   */\n    tag_198:\n        /* \"#utility.yul\":7670:7680   */\n      dup1\n        /* \"#utility.yul\":7666:7668   */\n      0x40\n        /* \"#utility.yul\":7659:7681   */\n      mstore\n        /* \"#utility.yul\":7449:7687   */\n      pop\n        /* \"#utility.yul\":7406:7687   */\n      pop\n      pop\n      jump\t// out\n        /* \"#utility.yul\":7693:7926   */\n    tag_68:\n        /* \"#utility.yul\":7732:7735   */\n      0x00\n        /* \"#utility.yul\":7755:7779   */\n      tag_201\n        /* \"#utility.yul\":7773:7778   */\n      dup3\n        /* \"#utility.yul\":7755:7779   */\n      tag_144\n      jump\t// in\n    tag_201:\n        /* \"#utility.yul\":7746:7779   */\n      swap2\n      pop\n        /* \"#utility.yul\":7801:7867   */\n      0xffffffffffffffffffffffffffffffffffffffffffffffffffffffffffffffff\n        /* \"#utility.yul\":7794:7799   */\n      dup3\n        /* \"#utility.yul\":7791:7868   */\n      eq\n        /* \"#utility.yul\":7788:7891   */\n      iszero\n      tag_202\n      jumpi\n        /* \"#utility.yul\":7871:7889   */\n      tag_203\n      tag_179\n      jump\t// in\n    tag_203:\n        /* \"#utility.yul\":7788:7891   */\n    tag_202:\n        /* \"#utility.yul\":7918:7919   */\n      0x01\n        /* \"#utility.yul\":7911:7916   */\n      dup3\n        /* \"#utility.yul\":7907:7920   */\n      add\n        /* \"#utility.yul\":7900:7920   */\n      swap1\n      pop\n        /* \"#utility.yul\":7693:7926   */\n      swap2\n      swap1\n      pop\n      jump\t// out\n        /* \"#utility.yul\":7932:8112   */\n    tag_179:\n        /* \"#utility.yul\":7980:8057   */\n      0x4e487b7100000000000000000000000000000000000000000000000000000000\n        /* \"#utility.yul\":7977:7978   */\n      0x00\n        /* \"#utility.yul\":7970:8058   */\n      mstore\n        /* \"#utility.yul\":8077:8081   */\n      0x11\n        /* \"#utility.yul\":8074:8075   */\n      0x04\n        /* \"#utility.yul\":8067:8082   */\n      mstore\n        /* \"#utility.yul\":8101:8105   */\n      0x24\n        /* \"#utility.yul\":8098:8099   */\n      0x00\n        /* \"#utility.yul\":8091:8106   */\n      revert\n        /* \"#utility.yul\":8118:8298   */\n    tag_22:\n        /* \"#utility.yul\":8166:8243   */\n      0x4e487b7100000000000000000000000000000000000000000000000000000000\n        /* \"#utility.yul\":8163:8164   */\n      0x00\n        /* \"#utility.yul\":8156:8244   */\n      mstore\n        /* \"#utility.yul\":8263:8267   */\n      0x32\n        /* \"#utility.yul\":8260:8261   */\n      0x04\n        /* \"#utility.yul\":8253:8268   */\n      mstore\n        /* \"#utility.yul\":8287:8291   */\n      0x24\n        /* \"#utility.yul\":8284:8285   */\n      0x00\n        /* \"#utility.yul\":8277:8292   */\n      revert\n        /* \"#utility.yul\":8304:8484   */\n    tag_173:\n        /* \"#utility.yul\":8352:8429   */\n      0x4e487b7100000000000000000000000000000000000000000000000000000000\n        /* \"#utility.yul\":8349:8350   */\n      0x00\n        /* \"#utility.yul\":8342:8430   */\n      mstore\n        /* \"#utility.yul\":8449:8453   */\n      0x41\n        /* \"#utility.yul\":8446:8447   */\n      0x04\n        /* \"#utility.yul\":8439:8454   */\n      mstore\n        /* \"#utility.yul\":8473:8477   */\n      0x24\n        /* \"#utility.yul\":8470:8471   */\n      0x00\n        /* \"#utility.yul\":8463:8478   */\n      revert\n        /* \"#utility.yul\":8490:8607   */\n    tag_99:\n        /* \"#utility.yul\":8599:8600   */\n      0x00\n        /* \"#utility.yul\":8596:8597   */\n      dup1\n        /* \"#utility.yul\":8589:8601   */\n      revert\n        /* \"#utility.yul\":8613:8730   */\n    tag_86:\n        /* \"#utility.yul\":8722:8723   */\n      0x00\n        /* \"#utility.yul\":8719:8720   */\n      dup1\n        /* \"#utility.yul\":8712:8724   */\n      revert\n        /* \"#utility.yul\":8736:8853   */\n    tag_111:\n        /* \"#utility.yul\":8845:8846   */\n      0x00\n        /* \"#utility.yul\":8842:8843   */\n      dup1\n        /* \"#utility.yul\":8835:8847   */\n      revert\n        /* \"#utility.yul\":8859:8976   */\n    tag_108:\n        /* \"#utility.yul\":8968:8969   */\n      0x00\n        /* \"#utility.yul\":8965:8966   */\n      dup1\n        /* \"#utility.yul\":8958:8970   */\n      revert\n        /* \"#utility.yul\":8982:9084   */\n    tag_197:\n        /* \"#utility.yul\":9023:9029   */\n      0x00\n        /* \"#utility.yul\":9074:9076   */\n      0x1f\n        /* \"#utility.yul\":9070:9077   */\n      not\n        /* \"#utility.yul\":9065:9067   */\n      0x1f\n        /* \"#utility.yul\":9058:9063   */\n      dup4\n        /* \"#utility.yul\":9054:9068   */\n      add\n        /* \"#utility.yul\":9050:9078   */\n      and\n        /* \"#utility.yul\":9040:9078   */\n      swap1\n      pop\n        /* \"#utility.yul\":8982:9084   */\n      swap2\n      swap1\n      pop\n      jump\t// out\n        /* \"#utility.yul\":9090:9212   */\n    tag_94:\n        /* \"#utility.yul\":9163:9187   */\n      tag_213\n        /* \"#utility.yul\":9181:9186   */\n      dup2\n        /* \"#utility.yul\":9163:9187   */\n      tag_120\n      jump\t// in\n    tag_213:\n        /* \"#utility.yul\":9156:9161   */\n      dup2\n        /* \"#utility.yul\":9153:9188   */\n      eq\n        /* \"#utility.yul\":9143:9206   */\n      tag_214\n      jumpi\n        /* \"#utility.yul\":9202:9203   */\n      0x00\n        /* \"#utility.yul\":9199:9200   */\n      dup1\n        /* \"#utility.yul\":9192:9204   */\n      revert\n        /* \"#utility.yul\":9143:9206   */\n    tag_214:\n        /* \"#utility.yul\":9090:9212   */\n      pop\n      jump\t// out\n        /* \"#utility.yul\":9218:9340   */\n    tag_104:\n        /* \"#utility.yul\":9291:9315   */\n      tag_216\n        /* \"#utility.yul\":9309:9314   */\n      dup2\n        /* \"#utility.yul\":9291:9315   */\n      tag_144\n      jump\t// in\n    tag_216:\n        /* \"#utility.yul\":9284:9289   */\n      dup2\n        /* \"#utility.yul\":9281:9316   */\n      eq\n        /* \"#utility.yul\":9271:9334   */\n      tag_217\n      jumpi\n        /* \"#utility.yul\":9330:9331   */\n      0x00\n        /* \"#utility.yul\":9327:9328   */\n      dup1\n        /* \"#utility.yul\":9320:9332   */\n      revert\n        /* \"#utility.yul\":9271:9334   */\n    tag_217:\n        /* \"#utility.yul\":9218:9340   */\n      pop\n      jump\t// out\n\n    auxdata: 0xa2646970667358221220bc41a550fda6c11b7e9b026fdef73dbe9a754211b73736e241e7a7b0bd6ba49f64736f6c63430008070033\n}\n",
				"bytecode": {
					"linkReferences": {},
					"object": "608060405234801561001057600080fd5b50604051610c2d380380610c2d8339818101604052810190610032919061008d565b806000806101000a81548173ffffffffffffffffffffffffffffffffffffffff021916908373ffffffffffffffffffffffffffffffffffffffff1602179055505061011a565b60008151905061008781610103565b92915050565b6000602082840312156100a3576100a26100fe565b5b60006100b184828501610078565b91505092915050565b60006100c5826100de565b9050919050565b60006100d7826100ba565b9050919050565b600073ffffffffffffffffffffffffffffffffffffffff82169050919050565b600080fd5b61010c816100cc565b811461011757600080fd5b50565b610b04806101296000396000f3fe608060405234801561001057600080fd5b50600436106100365760003560e01c8063a3484a361461003b578063c1f314401461006b575b600080fd5b61005560048036038101906100509190610655565b610089565b604051610062919061081c565b60405180910390f35b61007361054e565b6040516100809190610734565b60405180910390f35b6000806000905060008060008060005b87518110156104f85761017a60008054906101000a900473ffffffffffffffffffffffffffffffffffffffff1673ffffffffffffffffffffffffffffffffffffffff166394d45b598a84815181106100f4576100f3610a1d565b5b602002602001015160006040518363ffffffff1660e01b815260040161011b92919061074f565b60206040518083038186803b15801561013357600080fd5b505afa158015610147573d6000803e3d6000fd5b505050506040513d601f19601f8201168201806040525081019061016b919061069e565b8761057790919063ffffffff16565b955061025460008054906101000a900473ffffffffffffffffffffffffffffffffffffffff1673ffffffffffffffffffffffffffffffffffffffff166394d45b598a84815181106101ce576101cd610a1d565b5b6020026020010151601e6040518363ffffffff1660e01b81526004016101f59291906107a1565b60206040518083038186803b15801561020d57600080fd5b505afa158015610221573d6000803e3d6000fd5b505050506040513d601f19601f82011682018060405250810190610245919061069e565b8661057790919063ffffffff16565b945061032e60008054906101000a900473ffffffffffffffffffffffffffffffffffffffff1673ffffffffffffffffffffffffffffffffffffffff166394d45b598a84815181106102a8576102a7610a1d565b5b6020026020010151605a6040518363ffffffff1660e01b81526004016102cf9291906107f3565b60206040518083038186803b1580156102e757600080fd5b505afa1580156102fb573d6000803e3d6000fd5b505050506040513d601f19601f8201168201806040525081019061031f919061069e565b8561057790919063ffffffff16565b935061040860008054906101000a900473ffffffffffffffffffffffffffffffffffffffff1673ffffffffffffffffffffffffffffffffffffffff166394d45b598a848151811061038257610381610a1d565b5b602002602001015160b46040518363ffffffff1660e01b81526004016103a9929190610778565b60206040518083038186803b1580156103c157600080fd5b505afa1580156103d5573d6000803e3d6000fd5b505050506040513d601f19601f820116820180604052508101906103f9919061069e565b8461057790919063ffffffff16565b92506104e360008054906101000a900473ffffffffffffffffffffffffffffffffffffffff1673ffffffffffffffffffffffffffffffffffffffff166394d45b598a848151811061045c5761045b610a1d565b5b60200260200101516101686040518363ffffffff1660e01b81526004016104849291906107ca565b60206040518083038186803b15801561049c57600080fd5b505afa1580156104b0573d6000803e3d6000fd5b505050506040513d601f19601f820116820180604052508101906104d4919061069e565b8361057790919063ffffffff16565b915080806104f0906109a5565b915050610099565b506105428161053484610526876105188a8c61057790919063ffffffff16565b61057790919063ffffffff16565b61057790919063ffffffff16565b61057790919063ffffffff16565b95505050505050919050565b60008060009054906101000a900473ffffffffffffffffffffffffffffffffffffffff16905090565b600081836105859190610888565b905092915050565b60006105a061059b8461085c565b610837565b905080838252602082019050828560208602820111156105c3576105c2610a80565b5b60005b858110156105f357816105d988826105fd565b8452602084019350602083019250506001810190506105c6565b5050509392505050565b60008135905061060c81610aa0565b92915050565b600082601f83011261062757610626610a7b565b5b813561063784826020860161058d565b91505092915050565b60008151905061064f81610ab7565b92915050565b60006020828403121561066b5761066a610a8a565b5b600082013567ffffffffffffffff81111561068957610688610a85565b5b61069584828501610612565b91505092915050565b6000602082840312156106b4576106b3610a8a565b5b60006106c284828501610640565b91505092915050565b6106d4816108de565b82525050565b6106e38161091a565b82525050565b6106f28161092c565b82525050565b6107018161093e565b82525050565b61071081610950565b82525050565b61071f81610962565b82525050565b61072e81610910565b82525050565b600060208201905061074960008301846106cb565b92915050565b600060408201905061076460008301856106cb565b61077160208301846106da565b9392505050565b600060408201905061078d60008301856106cb565b61079a60208301846106e9565b9392505050565b60006040820190506107b660008301856106cb565b6107c360208301846106f8565b9392505050565b60006040820190506107df60008301856106cb565b6107ec6020830184610707565b9392505050565b600060408201905061080860008301856106cb565b6108156020830184610716565b9392505050565b60006020820190506108316000830184610725565b92915050565b6000610841610852565b905061084d8282610974565b919050565b6000604051905090565b600067ffffffffffffffff82111561087757610876610a4c565b5b602082029050602081019050919050565b600061089382610910565b915061089e83610910565b9250827fffffffffffffffffffffffffffffffffffffffffffffffffffffffffffffffff038211156108d3576108d26109ee565b5b828201905092915050565b60006108e9826108f0565b9050919050565b600073ffffffffffffffffffffffffffffffffffffffff82169050919050565b6000819050919050565b600061092582610910565b9050919050565b600061093782610910565b9050919050565b600061094982610910565b9050919050565b600061095b82610910565b9050919050565b600061096d82610910565b9050919050565b61097d82610a8f565b810181811067ffffffffffffffff8211171561099c5761099b610a4c565b5b80604052505050565b60006109b082610910565b91507fffffffffffffffffffffffffffffffffffffffffffffffffffffffffffffffff8214156109e3576109e26109ee565b5b600182019050919050565b7f4e487b7100000000000000000000000000000000000000000000000000000000600052601160045260246000fd5b7f4e487b7100000000000000000000000000000000000000000000000000000000600052603260045260246000fd5b7f4e487b7100000000000000000000000000000000000000000000000000000000600052604160045260246000fd5b600080fd5b600080fd5b600080fd5b600080fd5b6000601f19601f8301169050919050565b610aa9816108de565b8114610ab457600080fd5b50565b610ac081610910565b8114610acb57600080fd5b5056fea2646970667358221220bc41a550fda6c11b7e9b026fdef73dbe9a754211b73736e241e7a7b0bd6ba49f64736f6c63430008070033",
					"opcodes": "PUSH1 0x80 PUSH1 0x40 MSTORE CALLVALUE DUP1 ISZERO PUSH2 0x10 JUMPI PUSH1 0x0 DUP1 REVERT JUMPDEST POP PUSH1 0x40 MLOAD PUSH2 0xC2D CODESIZE SUB DUP1 PUSH2 0xC2D DUP4 CODECOPY DUP2 DUP2 ADD PUSH1 0x40 MSTORE DUP2 ADD SWAP1 PUSH2 0x32 SWAP2 SWAP1 PUSH2 0x8D JUMP JUMPDEST DUP1 PUSH1 0x0 DUP1 PUSH2 0x100 EXP DUP2 SLOAD DUP2 PUSH20 0xFFFFFFFFFFFFFFFFFFFFFFFFFFFFFFFFFFFFFFFF MUL NOT AND SWAP1 DUP4 PUSH20 0xFFFFFFFFFFFFFFFFFFFFFFFFFFFFFFFFFFFFFFFF AND MUL OR SWAP1 SSTORE POP POP PUSH2 0x11A JUMP JUMPDEST PUSH1 0x0 DUP2 MLOAD SWAP1 POP PUSH2 0x87 DUP2 PUSH2 0x103 JUMP JUMPDEST SWAP3 SWAP2 POP POP JUMP JUMPDEST PUSH1 0x0 PUSH1 0x20 DUP3 DUP5 SUB SLT ISZERO PUSH2 0xA3 JUMPI PUSH2 0xA2 PUSH2 0xFE JUMP JUMPDEST JUMPDEST PUSH1 0x0 PUSH2 0xB1 DUP5 DUP3 DUP6 ADD PUSH2 0x78 JUMP JUMPDEST SWAP2 POP POP SWAP3 SWAP2 POP POP JUMP JUMPDEST PUSH1 0x0 PUSH2 0xC5 DUP3 PUSH2 0xDE JUMP JUMPDEST SWAP1 POP SWAP2 SWAP1 POP JUMP JUMPDEST PUSH1 0x0 PUSH2 0xD7 DUP3 PUSH2 0xBA JUMP JUMPDEST SWAP1 POP SWAP2 SWAP1 POP JUMP JUMPDEST PUSH1 0x0 PUSH20 0xFFFFFFFFFFFFFFFFFFFFFFFFFFFFFFFFFFFFFFFF DUP3 AND SWAP1 POP SWAP2 SWAP1 POP JUMP JUMPDEST PUSH1 0x0 DUP1 REVERT JUMPDEST PUSH2 0x10C DUP2 PUSH2 0xCC JUMP JUMPDEST DUP2 EQ PUSH2 0x117 JUMPI PUSH1 0x0 DUP1 REVERT JUMPDEST POP JUMP JUMPDEST PUSH2 0xB04 DUP1 PUSH2 0x129 PUSH1 0x0 CODECOPY PUSH1 0x0 RETURN INVALID PUSH1 0x80 PUSH1 0x40 MSTORE CALLVALUE DUP1 ISZERO PUSH2 0x10 JUMPI PUSH1 0x0 DUP1 REVERT JUMPDEST POP PUSH1 0x4 CALLDATASIZE LT PUSH2 0x36 JUMPI PUSH1 0x0 CALLDATALOAD PUSH1 0xE0 SHR DUP1 PUSH4 0xA3484A36 EQ PUSH2 0x3B JUMPI DUP1 PUSH4 0xC1F31440 EQ PUSH2 0x6B JUMPI JUMPDEST PUSH1 0x0 DUP1 REVERT JUMPDEST PUSH2 0x55 PUSH1 0x4 DUP1 CALLDATASIZE SUB DUP2 ADD SWAP1 PUSH2 0x50 SWAP2 SWAP1 PUSH2 0x655 JUMP JUMPDEST PUSH2 0x89 JUMP JUMPDEST PUSH1 0x40 MLOAD PUSH2 0x62 SWAP2 SWAP1 PUSH2 0x81C JUMP JUMPDEST PUSH1 0x40 MLOAD DUP1 SWAP2 SUB SWAP1 RETURN JUMPDEST PUSH2 0x73 PUSH2 0x54E JUMP JUMPDEST PUSH1 0x40 MLOAD PUSH2 0x80 SWAP2 SWAP1 PUSH2 0x734 JUMP JUMPDEST PUSH1 0x40 MLOAD DUP1 SWAP2 SUB SWAP1 RETURN JUMPDEST PUSH1 0x0 DUP1 PUSH1 0x0 SWAP1 POP PUSH1 0x0 DUP1 PUSH1 0x0 DUP1 PUSH1 0x0 JUMPDEST DUP8 MLOAD DUP2 LT ISZERO PUSH2 0x4F8 JUMPI PUSH2 0x17A PUSH1 0x0 DUP1 SLOAD SWAP1 PUSH2 0x100 EXP SWAP1 DIV PUSH20 0xFFFFFFFFFFFFFFFFFFFFFFFFFFFFFFFFFFFFFFFF AND PUSH20 0xFFFFFFFFFFFFFFFFFFFFFFFFFFFFFFFFFFFFFFFF AND PUSH4 0x94D45B59 DUP11 DUP5 DUP2 MLOAD DUP2 LT PUSH2 0xF4 JUMPI PUSH2 0xF3 PUSH2 0xA1D JUMP JUMPDEST JUMPDEST PUSH1 0x20 MUL PUSH1 0x20 ADD ADD MLOAD PUSH1 0x0 PUSH1 0x40 MLOAD DUP4 PUSH4 0xFFFFFFFF AND PUSH1 0xE0 SHL DUP2 MSTORE PUSH1 0x4 ADD PUSH2 0x11B SWAP3 SWAP2 SWAP1 PUSH2 0x74F JUMP JUMPDEST PUSH1 0x20 PUSH1 0x40 MLOAD DUP1 DUP4 SUB DUP2 DUP7 DUP1 EXTCODESIZE ISZERO DUP1 ISZERO PUSH2 0x133 JUMPI PUSH1 0x0 DUP1 REVERT JUMPDEST POP GAS STATICCALL ISZERO DUP1 ISZERO PUSH2 0x147 JUMPI RETURNDATASIZE PUSH1 0x0 DUP1 RETURNDATACOPY RETURNDATASIZE PUSH1 0x0 REVERT JUMPDEST POP POP POP POP PUSH1 0x40 MLOAD RETURNDATASIZE PUSH1 0x1F NOT PUSH1 0x1F DUP3 ADD AND DUP3 ADD DUP1 PUSH1 0x40 MSTORE POP DUP2 ADD SWAP1 PUSH2 0x16B SWAP2 SWAP1 PUSH2 0x69E JUMP JUMPDEST DUP8 PUSH2 0x577 SWAP1 SWAP2 SWAP1 PUSH4 0xFFFFFFFF AND JUMP JUMPDEST SWAP6 POP PUSH2 0x254 PUSH1 0x0 DUP1 SLOAD SWAP1 PUSH2 0x100 EXP SWAP1 DIV PUSH20 0xFFFFFFFFFFFFFFFFFFFFFFFFFFFFFFFFFFFFFFFF AND PUSH20 0xFFFFFFFFFFFFFFFFFFFFFFFFFFFFFFFFFFFFFFFF AND PUSH4 0x94D45B59 DUP11 DUP5 DUP2 MLOAD DUP2 LT PUSH2 0x1CE JUMPI PUSH2 0x1CD PUSH2 0xA1D JUMP JUMPDEST JUMPDEST PUSH1 0x20 MUL PUSH1 0x20 ADD ADD MLOAD PUSH1 0x1E PUSH1 0x40 MLOAD DUP4 PUSH4 0xFFFFFFFF AND PUSH1 0xE0 SHL DUP2 MSTORE PUSH1 0x4 ADD PUSH2 0x1F5 SWAP3 SWAP2 SWAP1 PUSH2 0x7A1 JUMP JUMPDEST PUSH1 0x20 PUSH1 0x40 MLOAD DUP1 DUP4 SUB DUP2 DUP7 DUP1 EXTCODESIZE ISZERO DUP1 ISZERO PUSH2 0x20D JUMPI PUSH1 0x0 DUP1 REVERT JUMPDEST POP GAS STATICCALL ISZERO DUP1 ISZERO PUSH2 0x221 JUMPI RETURNDATASIZE PUSH1 0x0 DUP1 RETURNDATACOPY RETURNDATASIZE PUSH1 0x0 REVERT JUMPDEST POP POP POP POP PUSH1 0x40 MLOAD RETURNDATASIZE PUSH1 0x1F NOT PUSH1 0x1F DUP3 ADD AND DUP3 ADD DUP1 PUSH1 0x40 MSTORE POP DUP2 ADD SWAP1 PUSH2 0x245 SWAP2 SWAP1 PUSH2 0x69E JUMP JUMPDEST DUP7 PUSH2 0x577 SWAP1 SWAP2 SWAP1 PUSH4 0xFFFFFFFF AND JUMP JUMPDEST SWAP5 POP PUSH2 0x32E PUSH1 0x0 DUP1 SLOAD SWAP1 PUSH2 0x100 EXP SWAP1 DIV PUSH20 0xFFFFFFFFFFFFFFFFFFFFFFFFFFFFFFFFFFFFFFFF AND PUSH20 0xFFFFFFFFFFFFFFFFFFFFFFFFFFFFFFFFFFFFFFFF AND PUSH4 0x94D45B59 DUP11 DUP5 DUP2 MLOAD DUP2 LT PUSH2 0x2A8 JUMPI PUSH2 0x2A7 PUSH2 0xA1D JUMP JUMPDEST JUMPDEST PUSH1 0x20 MUL PUSH1 0x20 ADD ADD MLOAD PUSH1 0x5A PUSH1 0x40 MLOAD DUP4 PUSH4 0xFFFFFFFF AND PUSH1 0xE0 SHL DUP2 MSTORE PUSH1 0x4 ADD PUSH2 0x2CF SWAP3 SWAP2 SWAP1 PUSH2 0x7F3 JUMP JUMPDEST PUSH1 0x20 PUSH1 0x40 MLOAD DUP1 DUP4 SUB DUP2 DUP7 DUP1 EXTCODESIZE ISZERO DUP1 ISZERO PUSH2 0x2E7 JUMPI PUSH1 0x0 DUP1 REVERT JUMPDEST POP GAS STATICCALL ISZERO DUP1 ISZERO PUSH2 0x2FB JUMPI RETURNDATASIZE PUSH1 0x0 DUP1 RETURNDATACOPY RETURNDATASIZE PUSH1 0x0 REVERT JUMPDEST POP POP POP POP PUSH1 0x40 MLOAD RETURNDATASIZE PUSH1 0x1F NOT PUSH1 0x1F DUP3 ADD AND DUP3 ADD DUP1 PUSH1 0x40 MSTORE POP DUP2 ADD SWAP1 PUSH2 0x31F SWAP2 SWAP1 PUSH2 0x69E JUMP JUMPDEST DUP6 PUSH2 0x577 SWAP1 SWAP2 SWAP1 PUSH4 0xFFFFFFFF AND JUMP JUMPDEST SWAP4 POP PUSH2 0x408 PUSH1 0x0 DUP1 SLOAD SWAP1 PUSH2 0x100 EXP SWAP1 DIV PUSH20 0xFFFFFFFFFFFFFFFFFFFFFFFFFFFFFFFFFFFFFFFF AND PUSH20 0xFFFFFFFFFFFFFFFFFFFFFFFFFFFFFFFFFFFFFFFF AND PUSH4 0x94D45B59 DUP11 DUP5 DUP2 MLOAD DUP2 LT PUSH2 0x382 JUMPI PUSH2 0x381 PUSH2 0xA1D JUMP JUMPDEST JUMPDEST PUSH1 0x20 MUL PUSH1 0x20 ADD ADD MLOAD PUSH1 0xB4 PUSH1 0x40 MLOAD DUP4 PUSH4 0xFFFFFFFF AND PUSH1 0xE0 SHL DUP2 MSTORE PUSH1 0x4 ADD PUSH2 0x3A9 SWAP3 SWAP2 SWAP1 PUSH2 0x778 JUMP JUMPDEST PUSH1 0x20 PUSH1 0x40 MLOAD DUP1 DUP4 SUB DUP2 DUP7 DUP1 EXTCODESIZE ISZERO DUP1 ISZERO PUSH2 0x3C1 JUMPI PUSH1 0x0 DUP1 REVERT JUMPDEST POP GAS STATICCALL ISZERO DUP1 ISZERO PUSH2 0x3D5 JUMPI RETURNDATASIZE PUSH1 0x0 DUP1 RETURNDATACOPY RETURNDATASIZE PUSH1 0x0 REVERT JUMPDEST POP POP POP POP PUSH1 0x40 MLOAD RETURNDATASIZE PUSH1 0x1F NOT PUSH1 0x1F DUP3 ADD AND DUP3 ADD DUP1 PUSH1 0x40 MSTORE POP DUP2 ADD SWAP1 PUSH2 0x3F9 SWAP2 SWAP1 PUSH2 0x69E JUMP JUMPDEST DUP5 PUSH2 0x577 SWAP1 SWAP2 SWAP1 PUSH4 0xFFFFFFFF AND JUMP JUMPDEST SWAP3 POP PUSH2 0x4E3 PUSH1 0x0 DUP1 SLOAD SWAP1 PUSH2 0x100 EXP SWAP1 DIV PUSH20 0xFFFFFFFFFFFFFFFFFFFFFFFFFFFFFFFFFFFFFFFF AND PUSH20 0xFFFFFFFFFFFFFFFFFFFFFFFFFFFFFFFFFFFFFFFF AND PUSH4 0x94D45B59 DUP11 DUP5 DUP2 MLOAD DUP2 LT PUSH2 0x45C JUMPI PUSH2 0x45B PUSH2 0xA1D JUMP JUMPDEST JUMPDEST PUSH1 0x20 MUL PUSH1 0x20 ADD ADD MLOAD PUSH2 0x168 PUSH1 0x40 MLOAD DUP4 PUSH4 0xFFFFFFFF AND PUSH1 0xE0 SHL DUP2 MSTORE PUSH1 0x4 ADD PUSH2 0x484 SWAP3 SWAP2 SWAP1 PUSH2 0x7CA JUMP JUMPDEST PUSH1 0x20 PUSH1 0x40 MLOAD DUP1 DUP4 SUB DUP2 DUP7 DUP1 EXTCODESIZE ISZERO DUP1 ISZERO PUSH2 0x49C JUMPI PUSH1 0x0 DUP1 REVERT JUMPDEST POP GAS STATICCALL ISZERO DUP1 ISZERO PUSH2 0x4B0 JUMPI RETURNDATASIZE PUSH1 0x0 DUP1 RETURNDATACOPY RETURNDATASIZE PUSH1 0x0 REVERT JUMPDEST POP POP POP POP PUSH1 0x40 MLOAD RETURNDATASIZE PUSH1 0x1F NOT PUSH1 0x1F DUP3 ADD AND DUP3 ADD DUP1 PUSH1 0x40 MSTORE POP DUP2 ADD SWAP1 PUSH2 0x4D4 SWAP2 SWAP1 PUSH2 0x69E JUMP JUMPDEST DUP4 PUSH2 0x577 SWAP1 SWAP2 SWAP1 PUSH4 0xFFFFFFFF AND JUMP JUMPDEST SWAP2 POP DUP1 DUP1 PUSH2 0x4F0 SWAP1 PUSH2 0x9A5 JUMP JUMPDEST SWAP2 POP POP PUSH2 0x99 JUMP JUMPDEST POP PUSH2 0x542 DUP2 PUSH2 0x534 DUP5 PUSH2 0x526 DUP8 PUSH2 0x518 DUP11 DUP13 PUSH2 0x577 SWAP1 SWAP2 SWAP1 PUSH4 0xFFFFFFFF AND JUMP JUMPDEST PUSH2 0x577 SWAP1 SWAP2 SWAP1 PUSH4 0xFFFFFFFF AND JUMP JUMPDEST PUSH2 0x577 SWAP1 SWAP2 SWAP1 PUSH4 0xFFFFFFFF AND JUMP JUMPDEST PUSH2 0x577 SWAP1 SWAP2 SWAP1 PUSH4 0xFFFFFFFF AND JUMP JUMPDEST SWAP6 POP POP POP POP POP POP SWAP2 SWAP1 POP JUMP JUMPDEST PUSH1 0x0 DUP1 PUSH1 0x0 SWAP1 SLOAD SWAP1 PUSH2 0x100 EXP SWAP1 DIV PUSH20 0xFFFFFFFFFFFFFFFFFFFFFFFFFFFFFFFFFFFFFFFF AND SWAP1 POP SWAP1 JUMP JUMPDEST PUSH1 0x0 DUP2 DUP4 PUSH2 0x585 SWAP2 SWAP1 PUSH2 0x888 JUMP JUMPDEST SWAP1 POP SWAP3 SWAP2 POP POP JUMP JUMPDEST PUSH1 0x0 PUSH2 0x5A0 PUSH2 0x59B DUP5 PUSH2 0x85C JUMP JUMPDEST PUSH2 0x837 JUMP JUMPDEST SWAP1 POP DUP1 DUP4 DUP3 MSTORE PUSH1 0x20 DUP3 ADD SWAP1 POP DUP3 DUP6 PUSH1 0x20 DUP7 MUL DUP3 ADD GT ISZERO PUSH2 0x5C3 JUMPI PUSH2 0x5C2 PUSH2 0xA80 JUMP JUMPDEST JUMPDEST PUSH1 0x0 JUMPDEST DUP6 DUP2 LT ISZERO PUSH2 0x5F3 JUMPI DUP2 PUSH2 0x5D9 DUP9 DUP3 PUSH2 0x5FD JUMP JUMPDEST DUP5 MSTORE PUSH1 0x20 DUP5 ADD SWAP4 POP PUSH1 0x20 DUP4 ADD SWAP3 POP POP PUSH1 0x1 DUP2 ADD SWAP1 POP PUSH2 0x5C6 JUMP JUMPDEST POP POP POP SWAP4 SWAP3 POP POP POP JUMP JUMPDEST PUSH1 0x0 DUP2 CALLDATALOAD SWAP1 POP PUSH2 0x60C DUP2 PUSH2 0xAA0 JUMP JUMPDEST SWAP3 SWAP2 POP POP JUMP JUMPDEST PUSH1 0x0 DUP3 PUSH1 0x1F DUP4 ADD SLT PUSH2 0x627 JUMPI PUSH2 0x626 PUSH2 0xA7B JUMP JUMPDEST JUMPDEST DUP2 CALLDATALOAD PUSH2 0x637 DUP5 DUP3 PUSH1 0x20 DUP7 ADD PUSH2 0x58D JUMP JUMPDEST SWAP2 POP POP SWAP3 SWAP2 POP POP JUMP JUMPDEST PUSH1 0x0 DUP2 MLOAD SWAP1 POP PUSH2 0x64F DUP2 PUSH2 0xAB7 JUMP JUMPDEST SWAP3 SWAP2 POP POP JUMP JUMPDEST PUSH1 0x0 PUSH1 0x20 DUP3 DUP5 SUB SLT ISZERO PUSH2 0x66B JUMPI PUSH2 0x66A PUSH2 0xA8A JUMP JUMPDEST JUMPDEST PUSH1 0x0 DUP3 ADD CALLDATALOAD PUSH8 0xFFFFFFFFFFFFFFFF DUP2 GT ISZERO PUSH2 0x689 JUMPI PUSH2 0x688 PUSH2 0xA85 JUMP JUMPDEST JUMPDEST PUSH2 0x695 DUP5 DUP3 DUP6 ADD PUSH2 0x612 JUMP JUMPDEST SWAP2 POP POP SWAP3 SWAP2 POP POP JUMP JUMPDEST PUSH1 0x0 PUSH1 0x20 DUP3 DUP5 SUB SLT ISZERO PUSH2 0x6B4 JUMPI PUSH2 0x6B3 PUSH2 0xA8A JUMP JUMPDEST JUMPDEST PUSH1 0x0 PUSH2 0x6C2 DUP5 DUP3 DUP6 ADD PUSH2 0x640 JUMP JUMPDEST SWAP2 POP POP SWAP3 SWAP2 POP POP JUMP JUMPDEST PUSH2 0x6D4 DUP2 PUSH2 0x8DE JUMP JUMPDEST DUP3 MSTORE POP POP JUMP JUMPDEST PUSH2 0x6E3 DUP2 PUSH2 0x91A JUMP JUMPDEST DUP3 MSTORE POP POP JUMP JUMPDEST PUSH2 0x6F2 DUP2 PUSH2 0x92C JUMP JUMPDEST DUP3 MSTORE POP POP JUMP JUMPDEST PUSH2 0x701 DUP2 PUSH2 0x93E JUMP JUMPDEST DUP3 MSTORE POP POP JUMP JUMPDEST PUSH2 0x710 DUP2 PUSH2 0x950 JUMP JUMPDEST DUP3 MSTORE POP POP JUMP JUMPDEST PUSH2 0x71F DUP2 PUSH2 0x962 JUMP JUMPDEST DUP3 MSTORE POP POP JUMP JUMPDEST PUSH2 0x72E DUP2 PUSH2 0x910 JUMP JUMPDEST DUP3 MSTORE POP POP JUMP JUMPDEST PUSH1 0x0 PUSH1 0x20 DUP3 ADD SWAP1 POP PUSH2 0x749 PUSH1 0x0 DUP4 ADD DUP5 PUSH2 0x6CB JUMP JUMPDEST SWAP3 SWAP2 POP POP JUMP JUMPDEST PUSH1 0x0 PUSH1 0x40 DUP3 ADD SWAP1 POP PUSH2 0x764 PUSH1 0x0 DUP4 ADD DUP6 PUSH2 0x6CB JUMP JUMPDEST PUSH2 0x771 PUSH1 0x20 DUP4 ADD DUP5 PUSH2 0x6DA JUMP JUMPDEST SWAP4 SWAP3 POP POP POP JUMP JUMPDEST PUSH1 0x0 PUSH1 0x40 DUP3 ADD SWAP1 POP PUSH2 0x78D PUSH1 0x0 DUP4 ADD DUP6 PUSH2 0x6CB JUMP JUMPDEST PUSH2 0x79A PUSH1 0x20 DUP4 ADD DUP5 PUSH2 0x6E9 JUMP JUMPDEST SWAP4 SWAP3 POP POP POP JUMP JUMPDEST PUSH1 0x0 PUSH1 0x40 DUP3 ADD SWAP1 POP PUSH2 0x7B6 PUSH1 0x0 DUP4 ADD DUP6 PUSH2 0x6CB JUMP JUMPDEST PUSH2 0x7C3 PUSH1 0x20 DUP4 ADD DUP5 PUSH2 0x6F8 JUMP JUMPDEST SWAP4 SWAP3 POP POP POP JUMP JUMPDEST PUSH1 0x0 PUSH1 0x40 DUP3 ADD SWAP1 POP PUSH2 0x7DF PUSH1 0x0 DUP4 ADD DUP6 PUSH2 0x6CB JUMP JUMPDEST PUSH2 0x7EC PUSH1 0x20 DUP4 ADD DUP5 PUSH2 0x707 JUMP JUMPDEST SWAP4 SWAP3 POP POP POP JUMP JUMPDEST PUSH1 0x0 PUSH1 0x40 DUP3 ADD SWAP1 POP PUSH2 0x808 PUSH1 0x0 DUP4 ADD DUP6 PUSH2 0x6CB JUMP JUMPDEST PUSH2 0x815 PUSH1 0x20 DUP4 ADD DUP5 PUSH2 0x716 JUMP JUMPDEST SWAP4 SWAP3 POP POP POP JUMP JUMPDEST PUSH1 0x0 PUSH1 0x20 DUP3 ADD SWAP1 POP PUSH2 0x831 PUSH1 0x0 DUP4 ADD DUP5 PUSH2 0x725 JUMP JUMPDEST SWAP3 SWAP2 POP POP JUMP JUMPDEST PUSH1 0x0 PUSH2 0x841 PUSH2 0x852 JUMP JUMPDEST SWAP1 POP PUSH2 0x84D DUP3 DUP3 PUSH2 0x974 JUMP JUMPDEST SWAP2 SWAP1 POP JUMP JUMPDEST PUSH1 0x0 PUSH1 0x40 MLOAD SWAP1 POP SWAP1 JUMP JUMPDEST PUSH1 0x0 PUSH8 0xFFFFFFFFFFFFFFFF DUP3 GT ISZERO PUSH2 0x877 JUMPI PUSH2 0x876 PUSH2 0xA4C JUMP JUMPDEST JUMPDEST PUSH1 0x20 DUP3 MUL SWAP1 POP PUSH1 0x20 DUP2 ADD SWAP1 POP SWAP2 SWAP1 POP JUMP JUMPDEST PUSH1 0x0 PUSH2 0x893 DUP3 PUSH2 0x910 JUMP JUMPDEST SWAP2 POP PUSH2 0x89E DUP4 PUSH2 0x910 JUMP JUMPDEST SWAP3 POP DUP3 PUSH32 0xFFFFFFFFFFFFFFFFFFFFFFFFFFFFFFFFFFFFFFFFFFFFFFFFFFFFFFFFFFFFFFFF SUB DUP3 GT ISZERO PUSH2 0x8D3 JUMPI PUSH2 0x8D2 PUSH2 0x9EE JUMP JUMPDEST JUMPDEST DUP3 DUP3 ADD SWAP1 POP SWAP3 SWAP2 POP POP JUMP JUMPDEST PUSH1 0x0 PUSH2 0x8E9 DUP3 PUSH2 0x8F0 JUMP JUMPDEST SWAP1 POP SWAP2 SWAP1 POP JUMP JUMPDEST PUSH1 0x0 PUSH20 0xFFFFFFFFFFFFFFFFFFFFFFFFFFFFFFFFFFFFFFFF DUP3 AND SWAP1 POP SWAP2 SWAP1 POP JUMP JUMPDEST PUSH1 0x0 DUP2 SWAP1 POP SWAP2 SWAP1 POP JUMP JUMPDEST PUSH1 0x0 PUSH2 0x925 DUP3 PUSH2 0x910 JUMP JUMPDEST SWAP1 POP SWAP2 SWAP1 POP JUMP JUMPDEST PUSH1 0x0 PUSH2 0x937 DUP3 PUSH2 0x910 JUMP JUMPDEST SWAP1 POP SWAP2 SWAP1 POP JUMP JUMPDEST PUSH1 0x0 PUSH2 0x949 DUP3 PUSH2 0x910 JUMP JUMPDEST SWAP1 POP SWAP2 SWAP1 POP JUMP JUMPDEST PUSH1 0x0 PUSH2 0x95B DUP3 PUSH2 0x910 JUMP JUMPDEST SWAP1 POP SWAP2 SWAP1 POP JUMP JUMPDEST PUSH1 0x0 PUSH2 0x96D DUP3 PUSH2 0x910 JUMP JUMPDEST SWAP1 POP SWAP2 SWAP1 POP JUMP JUMPDEST PUSH2 0x97D DUP3 PUSH2 0xA8F JUMP JUMPDEST DUP2 ADD DUP2 DUP2 LT PUSH8 0xFFFFFFFFFFFFFFFF DUP3 GT OR ISZERO PUSH2 0x99C JUMPI PUSH2 0x99B PUSH2 0xA4C JUMP JUMPDEST JUMPDEST DUP1 PUSH1 0x40 MSTORE POP POP POP JUMP JUMPDEST PUSH1 0x0 PUSH2 0x9B0 DUP3 PUSH2 0x910 JUMP JUMPDEST SWAP2 POP PUSH32 0xFFFFFFFFFFFFFFFFFFFFFFFFFFFFFFFFFFFFFFFFFFFFFFFFFFFFFFFFFFFFFFFF DUP3 EQ ISZERO PUSH2 0x9E3 JUMPI PUSH2 0x9E2 PUSH2 0x9EE JUMP JUMPDEST JUMPDEST PUSH1 0x1 DUP3 ADD SWAP1 POP SWAP2 SWAP1 POP JUMP JUMPDEST PUSH32 0x4E487B7100000000000000000000000000000000000000000000000000000000 PUSH1 0x0 MSTORE PUSH1 0x11 PUSH1 0x4 MSTORE PUSH1 0x24 PUSH1 0x0 REVERT JUMPDEST PUSH32 0x4E487B7100000000000000000000000000000000000000000000000000000000 PUSH1 0x0 MSTORE PUSH1 0x32 PUSH1 0x4 MSTORE PUSH1 0x24 PUSH1 0x0 REVERT JUMPDEST PUSH32 0x4E487B7100000000000000000000000000000000000000000000000000000000 PUSH1 0x0 MSTORE PUSH1 0x41 PUSH1 0x4 MSTORE PUSH1 0x24 PUSH1 0x0 REVERT JUMPDEST PUSH1 0x0 DUP1 REVERT JUMPDEST PUSH1 0x0 DUP1 REVERT JUMPDEST PUSH1 0x0 DUP1 REVERT JUMPDEST PUSH1 0x0 DUP1 REVERT JUMPDEST PUSH1 0x0 PUSH1 0x1F NOT PUSH1 0x1F DUP4 ADD AND SWAP1 POP SWAP2 SWAP1 POP JUMP JUMPDEST PUSH2 0xAA9 DUP2 PUSH2 0x8DE JUMP JUMPDEST DUP2 EQ PUSH2 0xAB4 JUMPI PUSH1 0x0 DUP1 REVERT JUMPDEST POP JUMP JUMPDEST PUSH2 0xAC0 DUP2 PUSH2 0x910 JUMP JUMPDEST DUP2 EQ PUSH2 0xACB JUMPI PUSH1 0x0 DUP1 REVERT JUMPDEST POP JUMP INVALID LOG2 PUSH5 0x6970667358 0x22 SLT KECCAK256 0xBC COINBASE 0xA5 POP REVERT 0xA6 0xC1 SHL PUSH31 0x9B026FDEF73DBE9A754211B73736E241E7A7B0BD6BA49F64736F6C63430008 SMOD STOP CALLER "
				},
				"gasEstimates": {
					"creation": {
						"codeDepositCost": "564000",
						"executionCost": "infinite",
						"totalCost": "infinite"
					},
					"external": {
						"getMasterEntertainer()": "2522",
						"getUserVotingPower(address[])": "infinite"
					}
				},
				"methodIdentifiers": {
					"getMasterEntertainer()": "c1f31440",
					"getUserVotingPower(address[])": "a3484a36"
				}
			},
			"storageLayout": {
				"storage": [
					{
						"astId": 747,
						"contract": "contracts/AboatDAO.sol:AboatDAO",
						"label": "_masterEntertainer",
						"offset": 0,
						"slot": "0",
						"type": "t_contract(IMasterEntertainer)915"
					}
				],
				"types": {
					"t_contract(IMasterEntertainer)915": {
						"encoding": "inplace",
						"label": "contract IMasterEntertainer",
						"numberOfBytes": "20"
					}
				}
			},
			"userdoc": {
				"kind": "user",
				"methods": {},
				"version": 1
			}
		}
	}
}