{
	"contracts/PreSale.sol": {
		"PreSale": {
			"abi": [
				{
					"inputs": [
						{
							"internalType": "contract IERC20",
							"name": "_rewardToken",
							"type": "address"
						},
						{
							"internalType": "contract IERC20",
							"name": "_paymentToken",
							"type": "address"
						},
						{
							"internalType": "uint256",
							"name": "_limit",
							"type": "uint256"
						},
						{
							"internalType": "uint256",
							"name": "_softcap",
							"type": "uint256"
						},
						{
							"internalType": "uint256",
							"name": "_price",
							"type": "uint256"
						}
					],
					"stateMutability": "nonpayable",
					"type": "constructor"
				},
				{
					"anonymous": false,
					"inputs": [
						{
							"indexed": true,
							"internalType": "uint256",
							"name": "amount",
							"type": "uint256"
						}
					],
					"name": "AddedToWhitelist",
					"type": "event"
				},
				{
					"anonymous": false,
					"inputs": [
						{
							"indexed": true,
							"internalType": "uint256",
							"name": "amount",
							"type": "uint256"
						}
					],
					"name": "AddedToWhitelistFromSaft",
					"type": "event"
				},
				{
					"anonymous": false,
					"inputs": [
						{
							"indexed": true,
							"internalType": "address",
							"name": "buyer",
							"type": "address"
						},
						{
							"indexed": true,
							"internalType": "uint256",
							"name": "amount",
							"type": "uint256"
						}
					],
					"name": "Bought",
					"type": "event"
				},
				{
					"anonymous": false,
					"inputs": [
						{
							"indexed": true,
							"internalType": "address",
							"name": "newToken",
							"type": "address"
						}
					],
					"name": "ChangeRewardToken",
					"type": "event"
				},
				{
					"anonymous": false,
					"inputs": [
						{
							"indexed": true,
							"internalType": "address",
							"name": "owner",
							"type": "address"
						},
						{
							"indexed": true,
							"internalType": "uint256",
							"name": "amount",
							"type": "uint256"
						}
					],
					"name": "Claimed",
					"type": "event"
				},
				{
					"anonymous": false,
					"inputs": [
						{
							"indexed": true,
							"internalType": "address",
							"name": "owner",
							"type": "address"
						},
						{
							"indexed": true,
							"internalType": "uint256",
							"name": "amount",
							"type": "uint256"
						}
					],
					"name": "DepositedInVestingPool",
					"type": "event"
				},
				{
					"anonymous": false,
					"inputs": [
						{
							"indexed": true,
							"internalType": "address",
							"name": "previousOwner",
							"type": "address"
						},
						{
							"indexed": true,
							"internalType": "address",
							"name": "newOwner",
							"type": "address"
						}
					],
					"name": "OwnershipTransferred",
					"type": "event"
				},
				{
					"anonymous": false,
					"inputs": [
						{
							"indexed": true,
							"internalType": "uint256",
							"name": "claimDate",
							"type": "uint256"
						}
					],
					"name": "SaleEnded",
					"type": "event"
				},
				{
					"inputs": [],
					"name": "afterDays",
					"outputs": [
						{
							"internalType": "uint256",
							"name": "",
							"type": "uint256"
						}
					],
					"stateMutability": "view",
					"type": "function"
				},
				{
					"inputs": [
						{
							"internalType": "address",
							"name": "",
							"type": "address"
						}
					],
					"name": "bought",
					"outputs": [
						{
							"internalType": "uint256",
							"name": "",
							"type": "uint256"
						}
					],
					"stateMutability": "view",
					"type": "function"
				},
				{
					"inputs": [
						{
							"internalType": "uint256",
							"name": "amount",
							"type": "uint256"
						}
					],
					"name": "buy",
					"outputs": [],
					"stateMutability": "payable",
					"type": "function"
				},
				{
					"inputs": [],
					"name": "claim",
					"outputs": [],
					"stateMutability": "nonpayable",
					"type": "function"
				},
				{
					"inputs": [
						{
							"internalType": "uint256",
							"name": "_afterDays",
							"type": "uint256"
						}
					],
					"name": "claimAndEndSale",
					"outputs": [],
					"stateMutability": "nonpayable",
					"type": "function"
				},
				{
					"inputs": [
						{
							"internalType": "address",
							"name": "",
							"type": "address"
						}
					],
					"name": "claimed",
					"outputs": [
						{
							"internalType": "uint256",
							"name": "",
							"type": "uint256"
						}
					],
					"stateMutability": "view",
					"type": "function"
				},
				{
					"inputs": [
						{
							"internalType": "address",
							"name": "",
							"type": "address"
						}
					],
					"name": "claimedTokens",
					"outputs": [
						{
							"internalType": "uint256",
							"name": "",
							"type": "uint256"
						}
					],
					"stateMutability": "view",
					"type": "function"
				},
				{
					"inputs": [],
					"name": "cliffPeriod",
					"outputs": [
						{
							"internalType": "uint256",
							"name": "",
							"type": "uint256"
						}
					],
					"stateMutability": "view",
					"type": "function"
				},
				{
					"inputs": [],
					"name": "disableWhitelist",
					"outputs": [],
					"stateMutability": "nonpayable",
					"type": "function"
				},
				{
					"inputs": [],
					"name": "getCurrentPercentage",
					"outputs": [
						{
							"internalType": "uint256",
							"name": "",
							"type": "uint256"
						}
					],
					"stateMutability": "view",
					"type": "function"
				},
				{
					"inputs": [],
					"name": "getRemainingBalance",
					"outputs": [
						{
							"internalType": "uint256",
							"name": "",
							"type": "uint256"
						}
					],
					"stateMutability": "view",
					"type": "function"
				},
				{
					"inputs": [],
					"name": "initialClaimPercentage",
					"outputs": [
						{
							"internalType": "uint256",
							"name": "",
							"type": "uint256"
						}
					],
					"stateMutability": "view",
					"type": "function"
				},
				{
					"inputs": [
						{
							"internalType": "address",
							"name": "",
							"type": "address"
						}
					],
					"name": "lastClaimAddress",
					"outputs": [
						{
							"internalType": "address",
							"name": "",
							"type": "address"
						}
					],
					"stateMutability": "view",
					"type": "function"
				},
				{
					"inputs": [],
					"name": "limit",
					"outputs": [
						{
							"internalType": "uint256",
							"name": "",
							"type": "uint256"
						}
					],
					"stateMutability": "view",
					"type": "function"
				},
				{
					"inputs": [],
					"name": "owner",
					"outputs": [
						{
							"internalType": "address",
							"name": "",
							"type": "address"
						}
					],
					"stateMutability": "view",
					"type": "function"
				},
				{
					"inputs": [],
					"name": "paymentToken",
					"outputs": [
						{
							"internalType": "contract IERC20",
							"name": "",
							"type": "address"
						}
					],
					"stateMutability": "view",
					"type": "function"
				},
				{
					"inputs": [],
					"name": "percentagePerPeriod",
					"outputs": [
						{
							"internalType": "uint256",
							"name": "",
							"type": "uint256"
						}
					],
					"stateMutability": "view",
					"type": "function"
				},
				{
					"inputs": [],
					"name": "period",
					"outputs": [
						{
							"internalType": "uint256",
							"name": "",
							"type": "uint256"
						}
					],
					"stateMutability": "view",
					"type": "function"
				},
				{
					"inputs": [],
					"name": "pricePerToken",
					"outputs": [
						{
							"internalType": "uint256",
							"name": "",
							"type": "uint256"
						}
					],
					"stateMutability": "view",
					"type": "function"
				},
				{
					"inputs": [],
					"name": "renounceOwnership",
					"outputs": [],
					"stateMutability": "nonpayable",
					"type": "function"
				},
				{
					"inputs": [],
					"name": "requireWhitelist",
					"outputs": [
						{
							"internalType": "bool",
							"name": "",
							"type": "bool"
						}
					],
					"stateMutability": "view",
					"type": "function"
				},
				{
					"inputs": [],
					"name": "rewardToken",
					"outputs": [
						{
							"internalType": "contract IERC20",
							"name": "",
							"type": "address"
						}
					],
					"stateMutability": "view",
					"type": "function"
				},
				{
					"inputs": [],
					"name": "saleEnded",
					"outputs": [
						{
							"internalType": "uint256",
							"name": "",
							"type": "uint256"
						}
					],
					"stateMutability": "view",
					"type": "function"
				},
				{
					"inputs": [],
					"name": "softcap",
					"outputs": [
						{
							"internalType": "uint256",
							"name": "",
							"type": "uint256"
						}
					],
					"stateMutability": "view",
					"type": "function"
				},
				{
					"inputs": [],
					"name": "soldTokens",
					"outputs": [
						{
							"internalType": "uint256",
							"name": "",
							"type": "uint256"
						}
					],
					"stateMutability": "view",
					"type": "function"
				},
				{
					"inputs": [
						{
							"internalType": "address",
							"name": "newOwner",
							"type": "address"
						}
					],
					"name": "transferOwnership",
					"outputs": [],
					"stateMutability": "nonpayable",
					"type": "function"
				},
				{
					"inputs": [
						{
							"internalType": "uint256",
							"name": "_afterDays",
							"type": "uint256"
						}
					],
					"name": "updateAfterDays",
					"outputs": [],
					"stateMutability": "nonpayable",
					"type": "function"
				},
				{
					"inputs": [
						{
							"internalType": "contract IERC20",
							"name": "_newRewardToken",
							"type": "address"
						}
					],
					"name": "updateRewardToken",
					"outputs": [],
					"stateMutability": "nonpayable",
					"type": "function"
				},
				{
					"inputs": [
						{
							"internalType": "address[]",
							"name": "addresses",
							"type": "address[]"
						}
					],
					"name": "whitelist",
					"outputs": [],
					"stateMutability": "nonpayable",
					"type": "function"
				},
				{
					"inputs": [
						{
							"internalType": "address[]",
							"name": "addresses",
							"type": "address[]"
						},
						{
							"internalType": "uint256[]",
							"name": "amounts",
							"type": "uint256[]"
						}
					],
					"name": "whitelistFromSAFT",
					"outputs": [],
					"stateMutability": "nonpayable",
					"type": "function"
				},
				{
					"inputs": [
						{
							"internalType": "address",
							"name": "",
							"type": "address"
						}
					],
					"name": "whitelisted",
					"outputs": [
						{
							"internalType": "bool",
							"name": "",
							"type": "bool"
						}
					],
					"stateMutability": "view",
					"type": "function"
				}
			],
			"devdoc": {
				"kind": "dev",
				"methods": {
					"owner()": {
						"details": "Returns the address of the current owner."
					},
					"renounceOwnership()": {
						"details": "Leaves the contract without owner. It will not be possible to call `onlyOwner` functions anymore. Can only be called by the current owner. NOTE: Renouncing ownership will leave the contract without an owner, thereby removing any functionality that is only available to the owner."
					},
					"transferOwnership(address)": {
						"details": "Transfers ownership of the contract to a new account (`newOwner`). Can only be called by the current owner."
					}
				},
				"version": 1
			},
			"evm": {
				"assembly": "    /* \"contracts/PreSale.sol\":434:12014  contract PreSale is Ownable {... */\n  mstore(0x40, 0x80)\n    /* \"contracts/PreSale.sol\":1288:1289  0 */\n  0x00\n    /* \"contracts/PreSale.sol\":1261:1289  uint256 public saleEnded = 0 */\n  0x07\n  sstore\n    /* \"contracts/PreSale.sol\":1931:1935  true */\n  0x01\n    /* \"contracts/PreSale.sol\":1900:1935  bool public requireWhitelist = true */\n  0x09\n  exp(0x0100, 0x00)\n  dup2\n  sload\n  dup2\n  0xff\n  mul\n  not\n  and\n  swap1\n  dup4\n  iszero\n  iszero\n  mul\n  or\n  swap1\n  sstore\n  pop\n    /* \"contracts/PreSale.sol\":3199:3584  constructor(IERC20 _rewardToken, IERC20 _paymentToken, uint256 _limit, uint256 _softcap, uint256 _price) {... */\n  callvalue\n  dup1\n  iszero\n  tag_1\n  jumpi\n  0x00\n  dup1\n  revert\ntag_1:\n  pop\n  mload(0x40)\n  sub(codesize, bytecodeSize)\n  dup1\n  bytecodeSize\n  dup4\n  codecopy\n  dup2\n  dup2\n  add\n  0x40\n  mstore\n  dup2\n  add\n  swap1\n  tag_2\n  swap2\n  swap1\n  tag_3\n  jump\t// in\ntag_2:\n    /* \"@openzeppelin/contracts/access/Ownable.sol\":867:890  _setOwner(_msgSender()) */\n  tag_7\n    /* \"@openzeppelin/contracts/access/Ownable.sol\":877:889  _msgSender() */\n  tag_8\n    /* \"@openzeppelin/contracts/access/Ownable.sol\":877:887  _msgSender */\n  shl(0x20, tag_9)\n    /* \"@openzeppelin/contracts/access/Ownable.sol\":877:889  _msgSender() */\n  0x20\n  shr\n  jump\t// in\ntag_8:\n    /* \"@openzeppelin/contracts/access/Ownable.sol\":867:876  _setOwner */\n  shl(0x20, tag_10)\n    /* \"@openzeppelin/contracts/access/Ownable.sol\":867:890  _setOwner(_msgSender()) */\n  0x20\n  shr\n  jump\t// in\ntag_7:\n    /* \"contracts/PreSale.sol\":3331:3332  0 */\n  0x00\n    /* \"contracts/PreSale.sol\":3322:3328  _price */\n  dup2\n    /* \"contracts/PreSale.sol\":3322:3332  _price > 0 */\n  gt\n    /* \"contracts/PreSale.sol\":3314:3383  require(_price > 0, \"ABOAT::error: Price has to be higher than zero\") */\n  tag_12\n  jumpi\n  mload(0x40)\n  0x08c379a000000000000000000000000000000000000000000000000000000000\n  dup2\n  mstore\n  0x04\n  add\n  tag_13\n  swap1\n  tag_14\n  jump\t// in\ntag_13:\n  mload(0x40)\n  dup1\n  swap2\n  sub\n  swap1\n  revert\ntag_12:\n    /* \"contracts/PreSale.sol\":3407:3419  _rewardToken */\n  dup5\n    /* \"contracts/PreSale.sol\":3393:3404  rewardToken */\n  0x01\n  0x00\n    /* \"contracts/PreSale.sol\":3393:3419  rewardToken = _rewardToken */\n  0x0100\n  exp\n  dup2\n  sload\n  dup2\n  0xffffffffffffffffffffffffffffffffffffffff\n  mul\n  not\n  and\n  swap1\n  dup4\n  0xffffffffffffffffffffffffffffffffffffffff\n  and\n  mul\n  or\n  swap1\n  sstore\n  pop\n    /* \"contracts/PreSale.sol\":3444:3457  _paymentToken */\n  dup4\n    /* \"contracts/PreSale.sol\":3429:3441  paymentToken */\n  0x02\n  0x00\n    /* \"contracts/PreSale.sol\":3429:3457  paymentToken = _paymentToken */\n  0x0100\n  exp\n  dup2\n  sload\n  dup2\n  0xffffffffffffffffffffffffffffffffffffffff\n  mul\n  not\n  and\n  swap1\n  dup4\n  0xffffffffffffffffffffffffffffffffffffffff\n  and\n  mul\n  or\n  swap1\n  sstore\n  pop\n    /* \"contracts/PreSale.sol\":3475:3481  _limit */\n  dup3\n    /* \"contracts/PreSale.sol\":3467:3472  limit */\n  0x04\n    /* \"contracts/PreSale.sol\":3467:3481  limit = _limit */\n  dup2\n  swap1\n  sstore\n  pop\n    /* \"contracts/PreSale.sol\":3501:3509  _softcap */\n  dup2\n    /* \"contracts/PreSale.sol\":3491:3498  softcap */\n  0x05\n    /* \"contracts/PreSale.sol\":3491:3509  softcap = _softcap */\n  dup2\n  swap1\n  sstore\n  pop\n    /* \"contracts/PreSale.sol\":3571:3577  _price */\n  dup1\n    /* \"contracts/PreSale.sol\":3555:3568  pricePerToken */\n  0x03\n    /* \"contracts/PreSale.sol\":3555:3577  pricePerToken = _price */\n  dup2\n  swap1\n  sstore\n  pop\n    /* \"contracts/PreSale.sol\":3199:3584  constructor(IERC20 _rewardToken, IERC20 _paymentToken, uint256 _limit, uint256 _softcap, uint256 _price) {... */\n  pop\n  pop\n  pop\n  pop\n  pop\n    /* \"contracts/PreSale.sol\":434:12014  contract PreSale is Ownable {... */\n  jump(tag_15)\n    /* \"@openzeppelin/contracts/utils/Context.sol\":586:682  function _msgSender() internal view virtual returns (address) {... */\ntag_9:\n    /* \"@openzeppelin/contracts/utils/Context.sol\":639:646  address */\n  0x00\n    /* \"@openzeppelin/contracts/utils/Context.sol\":665:675  msg.sender */\n  caller\n    /* \"@openzeppelin/contracts/utils/Context.sol\":658:675  return msg.sender */\n  swap1\n  pop\n    /* \"@openzeppelin/contracts/utils/Context.sol\":586:682  function _msgSender() internal view virtual returns (address) {... */\n  swap1\n  jump\t// out\n    /* \"@openzeppelin/contracts/access/Ownable.sol\":2041:2210  function _setOwner(address newOwner) private {... */\ntag_10:\n    /* \"@openzeppelin/contracts/access/Ownable.sol\":2096:2112  address oldOwner */\n  0x00\n    /* \"@openzeppelin/contracts/access/Ownable.sol\":2115:2121  _owner */\n  dup1\n  0x00\n  swap1\n  sload\n  swap1\n  0x0100\n  exp\n  swap1\n  div\n  0xffffffffffffffffffffffffffffffffffffffff\n  and\n    /* \"@openzeppelin/contracts/access/Ownable.sol\":2096:2121  address oldOwner = _owner */\n  swap1\n  pop\n    /* \"@openzeppelin/contracts/access/Ownable.sol\":2140:2148  newOwner */\n  dup2\n    /* \"@openzeppelin/contracts/access/Ownable.sol\":2131:2137  _owner */\n  0x00\n  dup1\n    /* \"@openzeppelin/contracts/access/Ownable.sol\":2131:2148  _owner = newOwner */\n  0x0100\n  exp\n  dup2\n  sload\n  dup2\n  0xffffffffffffffffffffffffffffffffffffffff\n  mul\n  not\n  and\n  swap1\n  dup4\n  0xffffffffffffffffffffffffffffffffffffffff\n  and\n  mul\n  or\n  swap1\n  sstore\n  pop\n    /* \"@openzeppelin/contracts/access/Ownable.sol\":2194:2202  newOwner */\n  dup2\n    /* \"@openzeppelin/contracts/access/Ownable.sol\":2163:2203  OwnershipTransferred(oldOwner, newOwner) */\n  0xffffffffffffffffffffffffffffffffffffffff\n  and\n    /* \"@openzeppelin/contracts/access/Ownable.sol\":2184:2192  oldOwner */\n  dup2\n    /* \"@openzeppelin/contracts/access/Ownable.sol\":2163:2203  OwnershipTransferred(oldOwner, newOwner) */\n  0xffffffffffffffffffffffffffffffffffffffff\n  and\n  0x8be0079c531659141344cd1fd0a4f28419497f9722a3daafe3b4186f6b6457e0\n  mload(0x40)\n  mload(0x40)\n  dup1\n  swap2\n  sub\n  swap1\n  log3\n    /* \"@openzeppelin/contracts/access/Ownable.sol\":2086:2210  {... */\n  pop\n    /* \"@openzeppelin/contracts/access/Ownable.sol\":2041:2210  function _setOwner(address newOwner) private {... */\n  pop\n  jump\t// out\n    /* \"#utility.yul\":7:178   */\ntag_19:\n    /* \"#utility.yul\":78:83   */\n  0x00\n    /* \"#utility.yul\":109:115   */\n  dup2\n    /* \"#utility.yul\":103:116   */\n  mload\n    /* \"#utility.yul\":94:116   */\n  swap1\n  pop\n    /* \"#utility.yul\":125:172   */\n  tag_21\n    /* \"#utility.yul\":166:171   */\n  dup2\n    /* \"#utility.yul\":125:172   */\n  tag_22\n  jump\t// in\ntag_21:\n    /* \"#utility.yul\":7:178   */\n  swap3\n  swap2\n  pop\n  pop\n  jump\t// out\n    /* \"#utility.yul\":184:327   */\ntag_23:\n    /* \"#utility.yul\":241:246   */\n  0x00\n    /* \"#utility.yul\":272:278   */\n  dup2\n    /* \"#utility.yul\":266:279   */\n  mload\n    /* \"#utility.yul\":257:279   */\n  swap1\n  pop\n    /* \"#utility.yul\":288:321   */\n  tag_25\n    /* \"#utility.yul\":315:320   */\n  dup2\n    /* \"#utility.yul\":288:321   */\n  tag_26\n  jump\t// in\ntag_25:\n    /* \"#utility.yul\":184:327   */\n  swap3\n  swap2\n  pop\n  pop\n  jump\t// out\n    /* \"#utility.yul\":333:1366   */\ntag_3:\n    /* \"#utility.yul\":467:473   */\n  0x00\n    /* \"#utility.yul\":475:481   */\n  dup1\n    /* \"#utility.yul\":483:489   */\n  0x00\n    /* \"#utility.yul\":491:497   */\n  dup1\n    /* \"#utility.yul\":499:505   */\n  0x00\n    /* \"#utility.yul\":548:551   */\n  0xa0\n    /* \"#utility.yul\":536:545   */\n  dup7\n    /* \"#utility.yul\":527:534   */\n  dup9\n    /* \"#utility.yul\":523:546   */\n  sub\n    /* \"#utility.yul\":519:552   */\n  slt\n    /* \"#utility.yul\":516:636   */\n  iszero\n  tag_28\n  jumpi\n    /* \"#utility.yul\":555:634   */\n  tag_29\n  tag_30\n  jump\t// in\ntag_29:\n    /* \"#utility.yul\":516:636   */\ntag_28:\n    /* \"#utility.yul\":675:676   */\n  0x00\n    /* \"#utility.yul\":700:778   */\n  tag_31\n    /* \"#utility.yul\":770:777   */\n  dup9\n    /* \"#utility.yul\":761:767   */\n  dup3\n    /* \"#utility.yul\":750:759   */\n  dup10\n    /* \"#utility.yul\":746:768   */\n  add\n    /* \"#utility.yul\":700:778   */\n  tag_19\n  jump\t// in\ntag_31:\n    /* \"#utility.yul\":690:778   */\n  swap6\n  pop\n    /* \"#utility.yul\":646:788   */\n  pop\n    /* \"#utility.yul\":827:829   */\n  0x20\n    /* \"#utility.yul\":853:931   */\n  tag_32\n    /* \"#utility.yul\":923:930   */\n  dup9\n    /* \"#utility.yul\":914:920   */\n  dup3\n    /* \"#utility.yul\":903:912   */\n  dup10\n    /* \"#utility.yul\":899:921   */\n  add\n    /* \"#utility.yul\":853:931   */\n  tag_19\n  jump\t// in\ntag_32:\n    /* \"#utility.yul\":843:931   */\n  swap5\n  pop\n    /* \"#utility.yul\":798:941   */\n  pop\n    /* \"#utility.yul\":980:982   */\n  0x40\n    /* \"#utility.yul\":1006:1070   */\n  tag_33\n    /* \"#utility.yul\":1062:1069   */\n  dup9\n    /* \"#utility.yul\":1053:1059   */\n  dup3\n    /* \"#utility.yul\":1042:1051   */\n  dup10\n    /* \"#utility.yul\":1038:1060   */\n  add\n    /* \"#utility.yul\":1006:1070   */\n  tag_23\n  jump\t// in\ntag_33:\n    /* \"#utility.yul\":996:1070   */\n  swap4\n  pop\n    /* \"#utility.yul\":951:1080   */\n  pop\n    /* \"#utility.yul\":1119:1121   */\n  0x60\n    /* \"#utility.yul\":1145:1209   */\n  tag_34\n    /* \"#utility.yul\":1201:1208   */\n  dup9\n    /* \"#utility.yul\":1192:1198   */\n  dup3\n    /* \"#utility.yul\":1181:1190   */\n  dup10\n    /* \"#utility.yul\":1177:1199   */\n  add\n    /* \"#utility.yul\":1145:1209   */\n  tag_23\n  jump\t// in\ntag_34:\n    /* \"#utility.yul\":1135:1209   */\n  swap3\n  pop\n    /* \"#utility.yul\":1090:1219   */\n  pop\n    /* \"#utility.yul\":1258:1261   */\n  0x80\n    /* \"#utility.yul\":1285:1349   */\n  tag_35\n    /* \"#utility.yul\":1341:1348   */\n  dup9\n    /* \"#utility.yul\":1332:1338   */\n  dup3\n    /* \"#utility.yul\":1321:1330   */\n  dup10\n    /* \"#utility.yul\":1317:1339   */\n  add\n    /* \"#utility.yul\":1285:1349   */\n  tag_23\n  jump\t// in\ntag_35:\n    /* \"#utility.yul\":1275:1349   */\n  swap2\n  pop\n    /* \"#utility.yul\":1229:1359   */\n  pop\n    /* \"#utility.yul\":333:1366   */\n  swap3\n  swap6\n  pop\n  swap3\n  swap6\n  swap1\n  swap4\n  pop\n  jump\t// out\n    /* \"#utility.yul\":1372:1738   */\ntag_36:\n    /* \"#utility.yul\":1514:1517   */\n  0x00\n    /* \"#utility.yul\":1535:1602   */\n  tag_38\n    /* \"#utility.yul\":1599:1601   */\n  0x2e\n    /* \"#utility.yul\":1594:1597   */\n  dup4\n    /* \"#utility.yul\":1535:1602   */\n  tag_39\n  jump\t// in\ntag_38:\n    /* \"#utility.yul\":1528:1602   */\n  swap2\n  pop\n    /* \"#utility.yul\":1611:1704   */\n  tag_40\n    /* \"#utility.yul\":1700:1703   */\n  dup3\n    /* \"#utility.yul\":1611:1704   */\n  tag_41\n  jump\t// in\ntag_40:\n    /* \"#utility.yul\":1729:1731   */\n  0x40\n    /* \"#utility.yul\":1724:1727   */\n  dup3\n    /* \"#utility.yul\":1720:1732   */\n  add\n    /* \"#utility.yul\":1713:1732   */\n  swap1\n  pop\n    /* \"#utility.yul\":1372:1738   */\n  swap2\n  swap1\n  pop\n  jump\t// out\n    /* \"#utility.yul\":1744:2163   */\ntag_14:\n    /* \"#utility.yul\":1910:1914   */\n  0x00\n    /* \"#utility.yul\":1948:1950   */\n  0x20\n    /* \"#utility.yul\":1937:1946   */\n  dup3\n    /* \"#utility.yul\":1933:1951   */\n  add\n    /* \"#utility.yul\":1925:1951   */\n  swap1\n  pop\n    /* \"#utility.yul\":1997:2006   */\n  dup2\n    /* \"#utility.yul\":1991:1995   */\n  dup2\n    /* \"#utility.yul\":1987:2007   */\n  sub\n    /* \"#utility.yul\":1983:1984   */\n  0x00\n    /* \"#utility.yul\":1972:1981   */\n  dup4\n    /* \"#utility.yul\":1968:1985   */\n  add\n    /* \"#utility.yul\":1961:2008   */\n  mstore\n    /* \"#utility.yul\":2025:2156   */\n  tag_43\n    /* \"#utility.yul\":2151:2155   */\n  dup2\n    /* \"#utility.yul\":2025:2156   */\n  tag_36\n  jump\t// in\ntag_43:\n    /* \"#utility.yul\":2017:2156   */\n  swap1\n  pop\n    /* \"#utility.yul\":1744:2163   */\n  swap2\n  swap1\n  pop\n  jump\t// out\n    /* \"#utility.yul\":2250:2419   */\ntag_39:\n    /* \"#utility.yul\":2334:2345   */\n  0x00\n    /* \"#utility.yul\":2368:2374   */\n  dup3\n    /* \"#utility.yul\":2363:2366   */\n  dup3\n    /* \"#utility.yul\":2356:2375   */\n  mstore\n    /* \"#utility.yul\":2408:2412   */\n  0x20\n    /* \"#utility.yul\":2403:2406   */\n  dup3\n    /* \"#utility.yul\":2399:2413   */\n  add\n    /* \"#utility.yul\":2384:2413   */\n  swap1\n  pop\n    /* \"#utility.yul\":2250:2419   */\n  swap3\n  swap2\n  pop\n  pop\n  jump\t// out\n    /* \"#utility.yul\":2425:2521   */\ntag_47:\n    /* \"#utility.yul\":2462:2469   */\n  0x00\n    /* \"#utility.yul\":2491:2515   */\n  tag_49\n    /* \"#utility.yul\":2509:2514   */\n  dup3\n    /* \"#utility.yul\":2491:2515   */\n  tag_50\n  jump\t// in\ntag_49:\n    /* \"#utility.yul\":2480:2515   */\n  swap1\n  pop\n    /* \"#utility.yul\":2425:2521   */\n  swap2\n  swap1\n  pop\n  jump\t// out\n    /* \"#utility.yul\":2527:2637   */\ntag_51:\n    /* \"#utility.yul\":2578:2585   */\n  0x00\n    /* \"#utility.yul\":2607:2631   */\n  tag_53\n    /* \"#utility.yul\":2625:2630   */\n  dup3\n    /* \"#utility.yul\":2607:2631   */\n  tag_47\n  jump\t// in\ntag_53:\n    /* \"#utility.yul\":2596:2631   */\n  swap1\n  pop\n    /* \"#utility.yul\":2527:2637   */\n  swap2\n  swap1\n  pop\n  jump\t// out\n    /* \"#utility.yul\":2643:2769   */\ntag_50:\n    /* \"#utility.yul\":2680:2687   */\n  0x00\n    /* \"#utility.yul\":2720:2762   */\n  0xffffffffffffffffffffffffffffffffffffffff\n    /* \"#utility.yul\":2713:2718   */\n  dup3\n    /* \"#utility.yul\":2709:2763   */\n  and\n    /* \"#utility.yul\":2698:2763   */\n  swap1\n  pop\n    /* \"#utility.yul\":2643:2769   */\n  swap2\n  swap1\n  pop\n  jump\t// out\n    /* \"#utility.yul\":2775:2852   */\ntag_55:\n    /* \"#utility.yul\":2812:2819   */\n  0x00\n    /* \"#utility.yul\":2841:2846   */\n  dup2\n    /* \"#utility.yul\":2830:2846   */\n  swap1\n  pop\n    /* \"#utility.yul\":2775:2852   */\n  swap2\n  swap1\n  pop\n  jump\t// out\n    /* \"#utility.yul\":2981:3098   */\ntag_30:\n    /* \"#utility.yul\":3090:3091   */\n  0x00\n    /* \"#utility.yul\":3087:3088   */\n  dup1\n    /* \"#utility.yul\":3080:3092   */\n  revert\n    /* \"#utility.yul\":3104:3337   */\ntag_41:\n    /* \"#utility.yul\":3244:3278   */\n  0x41424f41543a3a6572726f723a2050726963652068617320746f206265206869\n    /* \"#utility.yul\":3240:3241   */\n  0x00\n    /* \"#utility.yul\":3232:3238   */\n  dup3\n    /* \"#utility.yul\":3228:3242   */\n  add\n    /* \"#utility.yul\":3221:3279   */\n  mstore\n    /* \"#utility.yul\":3313:3329   */\n  0x67686572207468616e207a65726f000000000000000000000000000000000000\n    /* \"#utility.yul\":3308:3310   */\n  0x20\n    /* \"#utility.yul\":3300:3306   */\n  dup3\n    /* \"#utility.yul\":3296:3311   */\n  add\n    /* \"#utility.yul\":3289:3330   */\n  mstore\n    /* \"#utility.yul\":3104:3337   */\n  pop\n  jump\t// out\n    /* \"#utility.yul\":3343:3493   */\ntag_22:\n    /* \"#utility.yul\":3430:3468   */\n  tag_62\n    /* \"#utility.yul\":3462:3467   */\n  dup2\n    /* \"#utility.yul\":3430:3468   */\n  tag_51\n  jump\t// in\ntag_62:\n    /* \"#utility.yul\":3423:3428   */\n  dup2\n    /* \"#utility.yul\":3420:3469   */\n  eq\n    /* \"#utility.yul\":3410:3487   */\n  tag_63\n  jumpi\n    /* \"#utility.yul\":3483:3484   */\n  0x00\n    /* \"#utility.yul\":3480:3481   */\n  dup1\n    /* \"#utility.yul\":3473:3485   */\n  revert\n    /* \"#utility.yul\":3410:3487   */\ntag_63:\n    /* \"#utility.yul\":3343:3493   */\n  pop\n  jump\t// out\n    /* \"#utility.yul\":3499:3621   */\ntag_26:\n    /* \"#utility.yul\":3572:3596   */\n  tag_65\n    /* \"#utility.yul\":3590:3595   */\n  dup2\n    /* \"#utility.yul\":3572:3596   */\n  tag_55\n  jump\t// in\ntag_65:\n    /* \"#utility.yul\":3565:3570   */\n  dup2\n    /* \"#utility.yul\":3562:3597   */\n  eq\n    /* \"#utility.yul\":3552:3615   */\n  tag_66\n  jumpi\n    /* \"#utility.yul\":3611:3612   */\n  0x00\n    /* \"#utility.yul\":3608:3609   */\n  dup1\n    /* \"#utility.yul\":3601:3613   */\n  revert\n    /* \"#utility.yul\":3552:3615   */\ntag_66:\n    /* \"#utility.yul\":3499:3621   */\n  pop\n  jump\t// out\n    /* \"contracts/PreSale.sol\":434:12014  contract PreSale is Ownable {... */\ntag_15:\n  dataSize(sub_0)\n  dup1\n  dataOffset(sub_0)\n  0x00\n  codecopy\n  0x00\n  return\nstop\n\nsub_0: assembly {\n        /* \"contracts/PreSale.sol\":434:12014  contract PreSale is Ownable {... */\n      mstore(0x40, 0x80)\n      jumpi(tag_1, lt(calldatasize, 0x04))\n      shr(0xe0, calldataload(0x00))\n      dup1\n      0xa4d66daf\n      gt\n      tag_33\n      jumpi\n      dup1\n      0xe754e7c4\n      gt\n      tag_34\n      jumpi\n      dup1\n      0xf3739e05\n      gt\n      tag_35\n      jumpi\n      dup1\n      0xf3739e05\n      eq\n      tag_29\n      jumpi\n      dup1\n      0xf7c618c1\n      eq\n      tag_30\n      jumpi\n      dup1\n      0xf89be593\n      eq\n      tag_31\n      jumpi\n      dup1\n      0xf8cf31cb\n      eq\n      tag_32\n      jumpi\n      jump(tag_1)\n    tag_35:\n      dup1\n      0xe754e7c4\n      eq\n      tag_25\n      jumpi\n      dup1\n      0xef78d4fd\n      eq\n      tag_26\n      jumpi\n      dup1\n      0xefe95f51\n      eq\n      tag_27\n      jumpi\n      dup1\n      0xf2fde38b\n      eq\n      tag_28\n      jumpi\n      jump(tag_1)\n    tag_34:\n      dup1\n      0xc884ef83\n      gt\n      tag_36\n      jumpi\n      dup1\n      0xc884ef83\n      eq\n      tag_21\n      jumpi\n      dup1\n      0xd6b0f484\n      eq\n      tag_22\n      jumpi\n      dup1\n      0xd936547e\n      eq\n      tag_23\n      jumpi\n      dup1\n      0xd96a094a\n      eq\n      tag_24\n      jumpi\n      jump(tag_1)\n    tag_36:\n      dup1\n      0xa4d66daf\n      eq\n      tag_17\n      jumpi\n      dup1\n      0xa5ebf835\n      eq\n      tag_18\n      jumpi\n      dup1\n      0xa960c65f\n      eq\n      tag_19\n      jumpi\n      dup1\n      0xbd8aa780\n      eq\n      tag_20\n      jumpi\n      jump(tag_1)\n    tag_33:\n      dup1\n      0x5ed9ebfc\n      gt\n      tag_37\n      jumpi\n      dup1\n      0x856734c4\n      gt\n      tag_38\n      jumpi\n      dup1\n      0x856734c4\n      eq\n      tag_13\n      jumpi\n      dup1\n      0x8da5cb5b\n      eq\n      tag_14\n      jumpi\n      dup1\n      0x9b8906ae\n      eq\n      tag_15\n      jumpi\n      dup1\n      0x9c92431b\n      eq\n      tag_16\n      jumpi\n      jump(tag_1)\n    tag_38:\n      dup1\n      0x5ed9ebfc\n      eq\n      tag_9\n      jumpi\n      dup1\n      0x667022fd\n      eq\n      tag_10\n      jumpi\n      dup1\n      0x715018a6\n      eq\n      tag_11\n      jumpi\n      dup1\n      0x7b1b1de6\n      eq\n      tag_12\n      jumpi\n      jump(tag_1)\n    tag_37:\n      dup1\n      0x2fba2c85\n      gt\n      tag_39\n      jumpi\n      dup1\n      0x2fba2c85\n      eq\n      tag_5\n      jumpi\n      dup1\n      0x3013ce29\n      eq\n      tag_6\n      jumpi\n      dup1\n      0x4e71d92d\n      eq\n      tag_7\n      jumpi\n      dup1\n      0x5372a58e\n      eq\n      tag_8\n      jumpi\n      jump(tag_1)\n    tag_39:\n      dup1\n      0x0c0e0862\n      eq\n      tag_2\n      jumpi\n      dup1\n      0x151bad0a\n      eq\n      tag_3\n      jumpi\n      dup1\n      0x2f661946\n      eq\n      tag_4\n      jumpi\n    tag_1:\n      0x00\n      dup1\n      revert\n        /* \"contracts/PreSale.sol\":6069:6245  function updateAfterDays(uint256 _afterDays) public onlyOwner {... */\n    tag_2:\n      callvalue\n      dup1\n      iszero\n      tag_40\n      jumpi\n      0x00\n      dup1\n      revert\n    tag_40:\n      pop\n      tag_41\n      0x04\n      dup1\n      calldatasize\n      sub\n      dup2\n      add\n      swap1\n      tag_42\n      swap2\n      swap1\n      tag_43\n      jump\t// in\n    tag_42:\n      tag_44\n      jump\t// in\n    tag_41:\n      stop\n        /* \"contracts/PreSale.sol\":1642:1690  uint256 constant public percentagePerPeriod = 50 */\n    tag_3:\n      callvalue\n      dup1\n      iszero\n      tag_45\n      jumpi\n      0x00\n      dup1\n      revert\n    tag_45:\n      pop\n      tag_46\n      tag_47\n      jump\t// in\n    tag_46:\n      mload(0x40)\n      tag_48\n      swap2\n      swap1\n      tag_49\n      jump\t// in\n    tag_48:\n      mload(0x40)\n      dup1\n      swap2\n      sub\n      swap1\n      return\n        /* \"contracts/PreSale.sol\":1774:1814  uint256 constant public cliffPeriod = 90 */\n    tag_4:\n      callvalue\n      dup1\n      iszero\n      tag_50\n      jumpi\n      0x00\n      dup1\n      revert\n    tag_50:\n      pop\n      tag_51\n      tag_52\n      jump\t// in\n    tag_51:\n      mload(0x40)\n      tag_53\n      swap2\n      swap1\n      tag_49\n      jump\t// in\n    tag_53:\n      mload(0x40)\n      dup1\n      swap2\n      sub\n      swap1\n      return\n        /* \"contracts/PreSale.sol\":7878:8153  function getRemainingBalance() public view returns (uint256) {... */\n    tag_5:\n      callvalue\n      dup1\n      iszero\n      tag_54\n      jumpi\n      0x00\n      dup1\n      revert\n    tag_54:\n      pop\n      tag_55\n      tag_56\n      jump\t// in\n    tag_55:\n      mload(0x40)\n      tag_57\n      swap2\n      swap1\n      tag_49\n      jump\t// in\n    tag_57:\n      mload(0x40)\n      dup1\n      swap2\n      sub\n      swap1\n      return\n        /* \"contracts/PreSale.sol\":929:955  IERC20 public paymentToken */\n    tag_6:\n      callvalue\n      dup1\n      iszero\n      tag_58\n      jumpi\n      0x00\n      dup1\n      revert\n    tag_58:\n      pop\n      tag_59\n      tag_60\n      jump\t// in\n    tag_59:\n      mload(0x40)\n      tag_61\n      swap2\n      swap1\n      tag_62\n      jump\t// in\n    tag_61:\n      mload(0x40)\n      dup1\n      swap2\n      sub\n      swap1\n      return\n        /* \"contracts/PreSale.sol\":10200:12012  function claim() public {... */\n    tag_7:\n      callvalue\n      dup1\n      iszero\n      tag_63\n      jumpi\n      0x00\n      dup1\n      revert\n    tag_63:\n      pop\n      tag_64\n      tag_65\n      jump\t// in\n    tag_64:\n      stop\n        /* \"contracts/PreSale.sol\":6628:7549  function whitelistFromSAFT(address[] memory addresses, uint256[] memory amounts) public onlyOwner {... */\n    tag_8:\n      callvalue\n      dup1\n      iszero\n      tag_66\n      jumpi\n      0x00\n      dup1\n      revert\n    tag_66:\n      pop\n      tag_67\n      0x04\n      dup1\n      calldatasize\n      sub\n      dup2\n      add\n      swap1\n      tag_68\n      swap2\n      swap1\n      tag_69\n      jump\t// in\n    tag_68:\n      tag_70\n      jump\t// in\n    tag_67:\n      stop\n        /* \"contracts/PreSale.sol\":1194:1219  uint256 public soldTokens */\n    tag_9:\n      callvalue\n      dup1\n      iszero\n      tag_71\n      jumpi\n      0x00\n      dup1\n      revert\n    tag_71:\n      pop\n      tag_72\n      tag_73\n      jump\t// in\n    tag_72:\n      mload(0x40)\n      tag_74\n      swap2\n      swap1\n      tag_49\n      jump\t// in\n    tag_74:\n      mload(0x40)\n      dup1\n      swap2\n      sub\n      swap1\n      return\n        /* \"contracts/PreSale.sol\":2063:2104  mapping(address => uint256) public bought */\n    tag_10:\n      callvalue\n      dup1\n      iszero\n      tag_75\n      jumpi\n      0x00\n      dup1\n      revert\n    tag_75:\n      pop\n      tag_76\n      0x04\n      dup1\n      calldatasize\n      sub\n      dup2\n      add\n      swap1\n      tag_77\n      swap2\n      swap1\n      tag_78\n      jump\t// in\n    tag_77:\n      tag_79\n      jump\t// in\n    tag_76:\n      mload(0x40)\n      tag_80\n      swap2\n      swap1\n      tag_49\n      jump\t// in\n    tag_80:\n      mload(0x40)\n      dup1\n      swap2\n      sub\n      swap1\n      return\n        /* \"@openzeppelin/contracts/access/Ownable.sol\":1605:1697  function renounceOwnership() public virtual onlyOwner {... */\n    tag_11:\n      callvalue\n      dup1\n      iszero\n      tag_81\n      jumpi\n      0x00\n      dup1\n      revert\n    tag_81:\n      pop\n      tag_82\n      tag_83\n      jump\t// in\n    tag_82:\n      stop\n        /* \"contracts/PreSale.sol\":967:995  uint256 public pricePerToken */\n    tag_12:\n      callvalue\n      dup1\n      iszero\n      tag_84\n      jumpi\n      0x00\n      dup1\n      revert\n    tag_84:\n      pop\n      tag_85\n      tag_86\n      jump\t// in\n    tag_85:\n      mload(0x40)\n      tag_87\n      swap2\n      swap1\n      tag_49\n      jump\t// in\n    tag_87:\n      mload(0x40)\n      dup1\n      swap2\n      sub\n      swap1\n      return\n        /* \"contracts/PreSale.sol\":1900:1935  bool public requireWhitelist = true */\n    tag_13:\n      callvalue\n      dup1\n      iszero\n      tag_88\n      jumpi\n      0x00\n      dup1\n      revert\n    tag_88:\n      pop\n      tag_89\n      tag_90\n      jump\t// in\n    tag_89:\n      mload(0x40)\n      tag_91\n      swap2\n      swap1\n      tag_92\n      jump\t// in\n    tag_91:\n      mload(0x40)\n      dup1\n      swap2\n      sub\n      swap1\n      return\n        /* \"@openzeppelin/contracts/access/Ownable.sol\":973:1058  function owner() public view virtual returns (address) {... */\n    tag_14:\n      callvalue\n      dup1\n      iszero\n      tag_93\n      jumpi\n      0x00\n      dup1\n      revert\n    tag_93:\n      pop\n      tag_94\n      tag_95\n      jump\t// in\n    tag_94:\n      mload(0x40)\n      tag_96\n      swap2\n      swap1\n      tag_97\n      jump\t// in\n    tag_96:\n      mload(0x40)\n      dup1\n      swap2\n      sub\n      swap1\n      return\n        /* \"contracts/PreSale.sol\":1261:1289  uint256 public saleEnded = 0 */\n    tag_15:\n      callvalue\n      dup1\n      iszero\n      tag_98\n      jumpi\n      0x00\n      dup1\n      revert\n    tag_98:\n      pop\n      tag_99\n      tag_100\n      jump\t// in\n    tag_99:\n      mload(0x40)\n      tag_101\n      swap2\n      swap1\n      tag_49\n      jump\t// in\n    tag_101:\n      mload(0x40)\n      dup1\n      swap2\n      sub\n      swap1\n      return\n        /* \"contracts/PreSale.sol\":8163:8676  function getCurrentPercentage() public view returns (uint256) {... */\n    tag_16:\n      callvalue\n      dup1\n      iszero\n      tag_102\n      jumpi\n      0x00\n      dup1\n      revert\n    tag_102:\n      pop\n      tag_103\n      tag_104\n      jump\t// in\n    tag_103:\n      mload(0x40)\n      tag_105\n      swap2\n      swap1\n      tag_49\n      jump\t// in\n    tag_105:\n      mload(0x40)\n      dup1\n      swap2\n      sub\n      swap1\n      return\n        /* \"contracts/PreSale.sol\":1034:1054  uint256 public limit */\n    tag_17:\n      callvalue\n      dup1\n      iszero\n      tag_106\n      jumpi\n      0x00\n      dup1\n      revert\n    tag_106:\n      pop\n      tag_107\n      tag_108\n      jump\t// in\n    tag_107:\n      mload(0x40)\n      tag_109\n      swap2\n      swap1\n      tag_49\n      jump\t// in\n    tag_109:\n      mload(0x40)\n      dup1\n      swap2\n      sub\n      swap1\n      return\n        /* \"contracts/PreSale.sol\":1515:1567  uint256 constant public initialClaimPercentage = 100 */\n    tag_18:\n      callvalue\n      dup1\n      iszero\n      tag_110\n      jumpi\n      0x00\n      dup1\n      revert\n    tag_110:\n      pop\n      tag_111\n      tag_112\n      jump\t// in\n    tag_111:\n      mload(0x40)\n      tag_113\n      swap2\n      swap1\n      tag_49\n      jump\t// in\n    tag_113:\n      mload(0x40)\n      dup1\n      swap2\n      sub\n      swap1\n      return\n        /* \"contracts/PreSale.sol\":2255:2303  mapping(address => uint256) public claimedTokens */\n    tag_19:\n      callvalue\n      dup1\n      iszero\n      tag_114\n      jumpi\n      0x00\n      dup1\n      revert\n    tag_114:\n      pop\n      tag_115\n      0x04\n      dup1\n      calldatasize\n      sub\n      dup2\n      add\n      swap1\n      tag_116\n      swap2\n      swap1\n      tag_78\n      jump\t// in\n    tag_116:\n      tag_117\n      jump\t// in\n    tag_115:\n      mload(0x40)\n      tag_118\n      swap2\n      swap1\n      tag_49\n      jump\t// in\n    tag_118:\n      mload(0x40)\n      dup1\n      swap2\n      sub\n      swap1\n      return\n        /* \"contracts/PreSale.sol\":6259:6622  function whitelist(address[] memory addresses) public onlyOwner {... */\n    tag_20:\n      callvalue\n      dup1\n      iszero\n      tag_119\n      jumpi\n      0x00\n      dup1\n      revert\n    tag_119:\n      pop\n      tag_120\n      0x04\n      dup1\n      calldatasize\n      sub\n      dup2\n      add\n      swap1\n      tag_121\n      swap2\n      swap1\n      tag_122\n      jump\t// in\n    tag_121:\n      tag_123\n      jump\t// in\n    tag_120:\n      stop\n        /* \"contracts/PreSale.sol\":2152:2194  mapping(address => uint256) public claimed */\n    tag_21:\n      callvalue\n      dup1\n      iszero\n      tag_124\n      jumpi\n      0x00\n      dup1\n      revert\n    tag_124:\n      pop\n      tag_125\n      0x04\n      dup1\n      calldatasize\n      sub\n      dup2\n      add\n      swap1\n      tag_126\n      swap2\n      swap1\n      tag_78\n      jump\t// in\n    tag_126:\n      tag_127\n      jump\t// in\n    tag_125:\n      mload(0x40)\n      tag_128\n      swap2\n      swap1\n      tag_49\n      jump\t// in\n    tag_128:\n      mload(0x40)\n      dup1\n      swap2\n      sub\n      swap1\n      return\n        /* \"contracts/PreSale.sol\":5090:5268  function disableWhitelist() public onlyOwner {... */\n    tag_22:\n      callvalue\n      dup1\n      iszero\n      tag_129\n      jumpi\n      0x00\n      dup1\n      revert\n    tag_129:\n      pop\n      tag_130\n      tag_131\n      jump\t// in\n    tag_130:\n      stop\n        /* \"contracts/PreSale.sol\":2014:2057  mapping(address => bool) public whitelisted */\n    tag_23:\n      callvalue\n      dup1\n      iszero\n      tag_132\n      jumpi\n      0x00\n      dup1\n      revert\n    tag_132:\n      pop\n      tag_133\n      0x04\n      dup1\n      calldatasize\n      sub\n      dup2\n      add\n      swap1\n      tag_134\n      swap2\n      swap1\n      tag_78\n      jump\t// in\n    tag_134:\n      tag_135\n      jump\t// in\n    tag_133:\n      mload(0x40)\n      tag_136\n      swap2\n      swap1\n      tag_92\n      jump\t// in\n    tag_136:\n      mload(0x40)\n      dup1\n      swap2\n      sub\n      swap1\n      return\n        /* \"contracts/PreSale.sol\":9012:10063  function buy(uint256 amount) public payable {... */\n    tag_24:\n      tag_137\n      0x04\n      dup1\n      calldatasize\n      sub\n      dup2\n      add\n      swap1\n      tag_138\n      swap2\n      swap1\n      tag_43\n      jump\t// in\n    tag_138:\n      tag_139\n      jump\t// in\n    tag_137:\n      stop\n        /* \"contracts/PreSale.sol\":1343:1367  uint256 public afterDays */\n    tag_25:\n      callvalue\n      dup1\n      iszero\n      tag_140\n      jumpi\n      0x00\n      dup1\n      revert\n    tag_140:\n      pop\n      tag_141\n      tag_142\n      jump\t// in\n    tag_141:\n      mload(0x40)\n      tag_143\n      swap2\n      swap1\n      tag_49\n      jump\t// in\n    tag_143:\n      mload(0x40)\n      dup1\n      swap2\n      sub\n      swap1\n      return\n        /* \"contracts/PreSale.sol\":1434:1469  uint256 constant public period = 30 */\n    tag_26:\n      callvalue\n      dup1\n      iszero\n      tag_144\n      jumpi\n      0x00\n      dup1\n      revert\n    tag_144:\n      pop\n      tag_145\n      tag_146\n      jump\t// in\n    tag_145:\n      mload(0x40)\n      tag_147\n      swap2\n      swap1\n      tag_49\n      jump\t// in\n    tag_147:\n      mload(0x40)\n      dup1\n      swap2\n      sub\n      swap1\n      return\n        /* \"contracts/PreSale.sol\":3916:5080  function claimAndEndSale(uint256 _afterDays) public onlyOwner {... */\n    tag_27:\n      callvalue\n      dup1\n      iszero\n      tag_148\n      jumpi\n      0x00\n      dup1\n      revert\n    tag_148:\n      pop\n      tag_149\n      0x04\n      dup1\n      calldatasize\n      sub\n      dup2\n      add\n      swap1\n      tag_150\n      swap2\n      swap1\n      tag_43\n      jump\t// in\n    tag_150:\n      tag_151\n      jump\t// in\n    tag_149:\n      stop\n        /* \"@openzeppelin/contracts/access/Ownable.sol\":1846:2035  function transferOwnership(address newOwner) public virtual onlyOwner {... */\n    tag_28:\n      callvalue\n      dup1\n      iszero\n      tag_152\n      jumpi\n      0x00\n      dup1\n      revert\n    tag_152:\n      pop\n      tag_153\n      0x04\n      dup1\n      calldatasize\n      sub\n      dup2\n      add\n      swap1\n      tag_154\n      swap2\n      swap1\n      tag_78\n      jump\t// in\n    tag_154:\n      tag_155\n      jump\t// in\n    tag_153:\n      stop\n        /* \"contracts/PreSale.sol\":2351:2402  mapping(address => address) public lastClaimAddress */\n    tag_29:\n      callvalue\n      dup1\n      iszero\n      tag_156\n      jumpi\n      0x00\n      dup1\n      revert\n    tag_156:\n      pop\n      tag_157\n      0x04\n      dup1\n      calldatasize\n      sub\n      dup2\n      add\n      swap1\n      tag_158\n      swap2\n      swap1\n      tag_78\n      jump\t// in\n    tag_158:\n      tag_159\n      jump\t// in\n    tag_157:\n      mload(0x40)\n      tag_160\n      swap2\n      swap1\n      tag_97\n      jump\t// in\n    tag_160:\n      mload(0x40)\n      dup1\n      swap2\n      sub\n      swap1\n      return\n        /* \"contracts/PreSale.sol\":884:909  IERC20 public rewardToken */\n    tag_30:\n      callvalue\n      dup1\n      iszero\n      tag_161\n      jumpi\n      0x00\n      dup1\n      revert\n    tag_161:\n      pop\n      tag_162\n      tag_163\n      jump\t// in\n    tag_162:\n      mload(0x40)\n      tag_164\n      swap2\n      swap1\n      tag_62\n      jump\t// in\n    tag_164:\n      mload(0x40)\n      dup1\n      swap2\n      sub\n      swap1\n      return\n        /* \"contracts/PreSale.sol\":1109:1131  uint256 public softcap */\n    tag_31:\n      callvalue\n      dup1\n      iszero\n      tag_165\n      jumpi\n      0x00\n      dup1\n      revert\n    tag_165:\n      pop\n      tag_166\n      tag_167\n      jump\t// in\n    tag_166:\n      mload(0x40)\n      tag_168\n      swap2\n      swap1\n      tag_49\n      jump\t// in\n    tag_168:\n      mload(0x40)\n      dup1\n      swap2\n      sub\n      swap1\n      return\n        /* \"contracts/PreSale.sol\":5546:6059  function updateRewardToken(IERC20 _newRewardToken) public onlyOwner {... */\n    tag_32:\n      callvalue\n      dup1\n      iszero\n      tag_169\n      jumpi\n      0x00\n      dup1\n      revert\n    tag_169:\n      pop\n      tag_170\n      0x04\n      dup1\n      calldatasize\n      sub\n      dup2\n      add\n      swap1\n      tag_171\n      swap2\n      swap1\n      tag_172\n      jump\t// in\n    tag_171:\n      tag_173\n      jump\t// in\n    tag_170:\n      stop\n        /* \"contracts/PreSale.sol\":6069:6245  function updateAfterDays(uint256 _afterDays) public onlyOwner {... */\n    tag_44:\n        /* \"@openzeppelin/contracts/access/Ownable.sol\":1196:1208  _msgSender() */\n      tag_175\n        /* \"@openzeppelin/contracts/access/Ownable.sol\":1196:1206  _msgSender */\n      tag_176\n        /* \"@openzeppelin/contracts/access/Ownable.sol\":1196:1208  _msgSender() */\n      jump\t// in\n    tag_175:\n        /* \"@openzeppelin/contracts/access/Ownable.sol\":1185:1208  owner() == _msgSender() */\n      0xffffffffffffffffffffffffffffffffffffffff\n      and\n        /* \"@openzeppelin/contracts/access/Ownable.sol\":1185:1192  owner() */\n      tag_177\n        /* \"@openzeppelin/contracts/access/Ownable.sol\":1185:1190  owner */\n      tag_95\n        /* \"@openzeppelin/contracts/access/Ownable.sol\":1185:1192  owner() */\n      jump\t// in\n    tag_177:\n        /* \"@openzeppelin/contracts/access/Ownable.sol\":1185:1208  owner() == _msgSender() */\n      0xffffffffffffffffffffffffffffffffffffffff\n      and\n      eq\n        /* \"@openzeppelin/contracts/access/Ownable.sol\":1177:1245  require(owner() == _msgSender(), \"Ownable: caller is not the owner\") */\n      tag_178\n      jumpi\n      mload(0x40)\n      0x08c379a000000000000000000000000000000000000000000000000000000000\n      dup2\n      mstore\n      0x04\n      add\n      tag_179\n      swap1\n      tag_180\n      jump\t// in\n    tag_179:\n      mload(0x40)\n      dup1\n      swap2\n      sub\n      swap1\n      revert\n    tag_178:\n        /* \"contracts/PreSale.sol\":6162:6163  0 */\n      0x00\n        /* \"contracts/PreSale.sol\":6149:6158  saleEnded */\n      sload(0x07)\n        /* \"contracts/PreSale.sol\":6149:6163  saleEnded != 0 */\n      eq\n      iszero\n        /* \"contracts/PreSale.sol\":6141:6206  require(saleEnded != 0, \"ABOAT::updateAfterDays: Sale not ended\") */\n      tag_182\n      jumpi\n      mload(0x40)\n      0x08c379a000000000000000000000000000000000000000000000000000000000\n      dup2\n      mstore\n      0x04\n      add\n      tag_183\n      swap1\n      tag_184\n      jump\t// in\n    tag_183:\n      mload(0x40)\n      dup1\n      swap2\n      sub\n      swap1\n      revert\n    tag_182:\n        /* \"contracts/PreSale.sol\":6228:6238  _afterDays */\n      dup1\n        /* \"contracts/PreSale.sol\":6216:6225  afterDays */\n      0x08\n        /* \"contracts/PreSale.sol\":6216:6238  afterDays = _afterDays */\n      dup2\n      swap1\n      sstore\n      pop\n        /* \"contracts/PreSale.sol\":6069:6245  function updateAfterDays(uint256 _afterDays) public onlyOwner {... */\n      pop\n      jump\t// out\n        /* \"contracts/PreSale.sol\":1642:1690  uint256 constant public percentagePerPeriod = 50 */\n    tag_47:\n        /* \"contracts/PreSale.sol\":1688:1690  50 */\n      0x32\n        /* \"contracts/PreSale.sol\":1642:1690  uint256 constant public percentagePerPeriod = 50 */\n      dup2\n      jump\t// out\n        /* \"contracts/PreSale.sol\":1774:1814  uint256 constant public cliffPeriod = 90 */\n    tag_52:\n        /* \"contracts/PreSale.sol\":1812:1814  90 */\n      0x5a\n        /* \"contracts/PreSale.sol\":1774:1814  uint256 constant public cliffPeriod = 90 */\n      dup2\n      jump\t// out\n        /* \"contracts/PreSale.sol\":7878:8153  function getRemainingBalance() public view returns (uint256) {... */\n    tag_56:\n        /* \"contracts/PreSale.sol\":7930:7937  uint256 */\n      0x00\n        /* \"contracts/PreSale.sol\":7984:7985  0 */\n      dup1\n        /* \"contracts/PreSale.sol\":7952:7986  address(rewardToken) == address(0) */\n      0xffffffffffffffffffffffffffffffffffffffff\n      and\n        /* \"contracts/PreSale.sol\":7960:7971  rewardToken */\n      0x01\n      0x00\n      swap1\n      sload\n      swap1\n      0x0100\n      exp\n      swap1\n      div\n      0xffffffffffffffffffffffffffffffffffffffff\n      and\n        /* \"contracts/PreSale.sol\":7952:7986  address(rewardToken) == address(0) */\n      0xffffffffffffffffffffffffffffffffffffffff\n      and\n      eq\n        /* \"contracts/PreSale.sol\":7949:8147  if(address(rewardToken) == address(0)) {... */\n      iszero\n      tag_186\n      jumpi\n        /* \"contracts/PreSale.sol\":8009:8046  address(this).balance.sub(soldTokens) */\n      tag_187\n        /* \"contracts/PreSale.sol\":8035:8045  soldTokens */\n      sload(0x06)\n        /* \"contracts/PreSale.sol\":8009:8030  address(this).balance */\n      selfbalance\n        /* \"contracts/PreSale.sol\":8009:8034  address(this).balance.sub */\n      tag_188\n      swap1\n        /* \"contracts/PreSale.sol\":8009:8046  address(this).balance.sub(soldTokens) */\n      swap2\n      swap1\n      0xffffffff\n      and\n      jump\t// in\n    tag_187:\n        /* \"contracts/PreSale.sol\":8002:8046  return address(this).balance.sub(soldTokens) */\n      swap1\n      pop\n      jump(tag_185)\n        /* \"contracts/PreSale.sol\":7949:8147  if(address(rewardToken) == address(0)) {... */\n    tag_186:\n        /* \"contracts/PreSale.sol\":8084:8136  rewardToken.balanceOf(address(this)).sub(soldTokens) */\n      tag_190\n        /* \"contracts/PreSale.sol\":8125:8135  soldTokens */\n      sload(0x06)\n        /* \"contracts/PreSale.sol\":8084:8095  rewardToken */\n      0x01\n      0x00\n      swap1\n      sload\n      swap1\n      0x0100\n      exp\n      swap1\n      div\n      0xffffffffffffffffffffffffffffffffffffffff\n      and\n        /* \"contracts/PreSale.sol\":8084:8105  rewardToken.balanceOf */\n      0xffffffffffffffffffffffffffffffffffffffff\n      and\n      0x70a08231\n        /* \"contracts/PreSale.sol\":8114:8118  this */\n      address\n        /* \"contracts/PreSale.sol\":8084:8120  rewardToken.balanceOf(address(this)) */\n      mload(0x40)\n      dup3\n      0xffffffff\n      and\n      0xe0\n      shl\n      dup2\n      mstore\n      0x04\n      add\n      tag_191\n      swap2\n      swap1\n      tag_97\n      jump\t// in\n    tag_191:\n      0x20\n      mload(0x40)\n      dup1\n      dup4\n      sub\n      dup2\n      dup7\n      dup1\n      extcodesize\n      iszero\n      dup1\n      iszero\n      tag_192\n      jumpi\n      0x00\n      dup1\n      revert\n    tag_192:\n      pop\n      gas\n      staticcall\n      iszero\n      dup1\n      iszero\n      tag_194\n      jumpi\n      returndatasize\n      0x00\n      dup1\n      returndatacopy\n      revert(0x00, returndatasize)\n    tag_194:\n      pop\n      pop\n      pop\n      pop\n      mload(0x40)\n      returndatasize\n      not(0x1f)\n      0x1f\n      dup3\n      add\n      and\n      dup3\n      add\n      dup1\n      0x40\n      mstore\n      pop\n      dup2\n      add\n      swap1\n      tag_195\n      swap2\n      swap1\n      tag_196\n      jump\t// in\n    tag_195:\n        /* \"contracts/PreSale.sol\":8084:8124  rewardToken.balanceOf(address(this)).sub */\n      tag_188\n      swap1\n        /* \"contracts/PreSale.sol\":8084:8136  rewardToken.balanceOf(address(this)).sub(soldTokens) */\n      swap2\n      swap1\n      0xffffffff\n      and\n      jump\t// in\n    tag_190:\n        /* \"contracts/PreSale.sol\":8077:8136  return rewardToken.balanceOf(address(this)).sub(soldTokens) */\n      swap1\n      pop\n        /* \"contracts/PreSale.sol\":7878:8153  function getRemainingBalance() public view returns (uint256) {... */\n    tag_185:\n      swap1\n      jump\t// out\n        /* \"contracts/PreSale.sol\":929:955  IERC20 public paymentToken */\n    tag_60:\n      0x02\n      0x00\n      swap1\n      sload\n      swap1\n      0x0100\n      exp\n      swap1\n      div\n      0xffffffffffffffffffffffffffffffffffffffff\n      and\n      dup2\n      jump\t// out\n        /* \"contracts/PreSale.sol\":10200:12012  function claim() public {... */\n    tag_65:\n        /* \"contracts/PreSale.sol\":10255:10256  0 */\n      0x00\n        /* \"contracts/PreSale.sol\":10242:10251  saleEnded */\n      sload(0x07)\n        /* \"contracts/PreSale.sol\":10242:10256  saleEnded != 0 */\n      eq\n      iszero\n        /* \"contracts/PreSale.sol\":10234:10296  require(saleEnded != 0, \"ABOAT::claim: Sale is not over yet!\") */\n      tag_198\n      jumpi\n      mload(0x40)\n      0x08c379a000000000000000000000000000000000000000000000000000000000\n      dup2\n      mstore\n      0x04\n      add\n      tag_199\n      swap1\n      tag_200\n      jump\t// in\n    tag_199:\n      mload(0x40)\n      dup1\n      swap2\n      sub\n      swap1\n      revert\n    tag_198:\n        /* \"contracts/PreSale.sol\":10333:10371  saleEnded.add((afterDays.mul(1 days))) */\n      tag_201\n        /* \"contracts/PreSale.sol\":10348:10369  afterDays.mul(1 days) */\n      tag_202\n        /* \"contracts/PreSale.sol\":10362:10368  1 days */\n      0x015180\n        /* \"contracts/PreSale.sol\":10348:10357  afterDays */\n      sload(0x08)\n        /* \"contracts/PreSale.sol\":10348:10361  afterDays.mul */\n      tag_203\n      swap1\n        /* \"contracts/PreSale.sol\":10348:10369  afterDays.mul(1 days) */\n      swap2\n      swap1\n      0xffffffff\n      and\n      jump\t// in\n    tag_202:\n        /* \"contracts/PreSale.sol\":10333:10342  saleEnded */\n      sload(0x07)\n        /* \"contracts/PreSale.sol\":10333:10346  saleEnded.add */\n      tag_204\n      swap1\n        /* \"contracts/PreSale.sol\":10333:10371  saleEnded.add((afterDays.mul(1 days))) */\n      swap2\n      swap1\n      0xffffffff\n      and\n      jump\t// in\n    tag_201:\n        /* \"contracts/PreSale.sol\":10314:10329  block.timestamp */\n      timestamp\n        /* \"contracts/PreSale.sol\":10314:10371  block.timestamp >= saleEnded.add((afterDays.mul(1 days))) */\n      lt\n      iszero\n        /* \"contracts/PreSale.sol\":10306:10417  require(block.timestamp >= saleEnded.add((afterDays.mul(1 days))), \"ABOAT::claim: Claim is not available yet.\") */\n      tag_205\n      jumpi\n      mload(0x40)\n      0x08c379a000000000000000000000000000000000000000000000000000000000\n      dup2\n      mstore\n      0x04\n      add\n      tag_206\n      swap1\n      tag_207\n      jump\t// in\n    tag_206:\n      mload(0x40)\n      dup1\n      swap2\n      sub\n      swap1\n      revert\n    tag_205:\n        /* \"contracts/PreSale.sol\":10427:10452  uint256 currentPercentage */\n      0x00\n        /* \"contracts/PreSale.sol\":10455:10477  getCurrentPercentage() */\n      tag_208\n        /* \"contracts/PreSale.sol\":10455:10475  getCurrentPercentage */\n      tag_104\n        /* \"contracts/PreSale.sol\":10455:10477  getCurrentPercentage() */\n      jump\t// in\n    tag_208:\n        /* \"contracts/PreSale.sol\":10427:10477  uint256 currentPercentage = getCurrentPercentage() */\n      swap1\n      pop\n        /* \"contracts/PreSale.sol\":10515:10516  0 */\n      0x00\n        /* \"contracts/PreSale.sol\":10495:10512  currentPercentage */\n      dup2\n        /* \"contracts/PreSale.sol\":10495:10516  currentPercentage > 0 */\n      gt\n        /* \"contracts/PreSale.sol\":10487:10614  require(currentPercentage > 0, \"ABOAT::claim: The percentage of token you can claim is currently zero. Please try again later\") */\n      tag_209\n      jumpi\n      mload(0x40)\n      0x08c379a000000000000000000000000000000000000000000000000000000000\n      dup2\n      mstore\n      0x04\n      add\n      tag_210\n      swap1\n      tag_211\n      jump\t// in\n    tag_210:\n      mload(0x40)\n      dup1\n      swap2\n      sub\n      swap1\n      revert\n    tag_209:\n        /* \"contracts/PreSale.sol\":10667:10678  rewardToken */\n      0x01\n      0x00\n      swap1\n      sload\n      swap1\n      0x0100\n      exp\n      swap1\n      div\n      0xffffffffffffffffffffffffffffffffffffffff\n      and\n        /* \"contracts/PreSale.sol\":10627:10679  lastClaimAddress[msg.sender] != address(rewardToken) */\n      0xffffffffffffffffffffffffffffffffffffffff\n      and\n        /* \"contracts/PreSale.sol\":10627:10643  lastClaimAddress */\n      0x0e\n        /* \"contracts/PreSale.sol\":10627:10655  lastClaimAddress[msg.sender] */\n      0x00\n        /* \"contracts/PreSale.sol\":10644:10654  msg.sender */\n      caller\n        /* \"contracts/PreSale.sol\":10627:10655  lastClaimAddress[msg.sender] */\n      0xffffffffffffffffffffffffffffffffffffffff\n      and\n      0xffffffffffffffffffffffffffffffffffffffff\n      and\n      dup2\n      mstore\n      0x20\n      add\n      swap1\n      dup2\n      mstore\n      0x20\n      add\n      0x00\n      keccak256\n      0x00\n      swap1\n      sload\n      swap1\n      0x0100\n      exp\n      swap1\n      div\n      0xffffffffffffffffffffffffffffffffffffffff\n      and\n        /* \"contracts/PreSale.sol\":10627:10679  lastClaimAddress[msg.sender] != address(rewardToken) */\n      0xffffffffffffffffffffffffffffffffffffffff\n      and\n      eq\n        /* \"contracts/PreSale.sol\":10624:10837  if(lastClaimAddress[msg.sender] != address(rewardToken)) {... */\n      tag_212\n      jumpi\n        /* \"contracts/PreSale.sol\":10734:10745  rewardToken */\n      0x01\n      0x00\n      swap1\n      sload\n      swap1\n      0x0100\n      exp\n      swap1\n      div\n      0xffffffffffffffffffffffffffffffffffffffff\n      and\n        /* \"contracts/PreSale.sol\":10695:10711  lastClaimAddress */\n      0x0e\n        /* \"contracts/PreSale.sol\":10695:10723  lastClaimAddress[msg.sender] */\n      0x00\n        /* \"contracts/PreSale.sol\":10712:10722  msg.sender */\n      caller\n        /* \"contracts/PreSale.sol\":10695:10723  lastClaimAddress[msg.sender] */\n      0xffffffffffffffffffffffffffffffffffffffff\n      and\n      0xffffffffffffffffffffffffffffffffffffffff\n      and\n      dup2\n      mstore\n      0x20\n      add\n      swap1\n      dup2\n      mstore\n      0x20\n      add\n      0x00\n      keccak256\n      0x00\n        /* \"contracts/PreSale.sol\":10695:10746  lastClaimAddress[msg.sender] = address(rewardToken) */\n      0x0100\n      exp\n      dup2\n      sload\n      dup2\n      0xffffffffffffffffffffffffffffffffffffffff\n      mul\n      not\n      and\n      swap1\n      dup4\n      0xffffffffffffffffffffffffffffffffffffffff\n      and\n      mul\n      or\n      swap1\n      sstore\n      pop\n        /* \"contracts/PreSale.sol\":10782:10783  0 */\n      0x00\n        /* \"contracts/PreSale.sol\":10760:10767  claimed */\n      0x0c\n        /* \"contracts/PreSale.sol\":10760:10779  claimed[msg.sender] */\n      0x00\n        /* \"contracts/PreSale.sol\":10768:10778  msg.sender */\n      caller\n        /* \"contracts/PreSale.sol\":10760:10779  claimed[msg.sender] */\n      0xffffffffffffffffffffffffffffffffffffffff\n      and\n      0xffffffffffffffffffffffffffffffffffffffff\n      and\n      dup2\n      mstore\n      0x20\n      add\n      swap1\n      dup2\n      mstore\n      0x20\n      add\n      0x00\n      keccak256\n        /* \"contracts/PreSale.sol\":10760:10783  claimed[msg.sender] = 0 */\n      dup2\n      swap1\n      sstore\n      pop\n        /* \"contracts/PreSale.sol\":10825:10826  0 */\n      0x00\n        /* \"contracts/PreSale.sol\":10797:10810  claimedTokens */\n      0x0d\n        /* \"contracts/PreSale.sol\":10797:10822  claimedTokens[msg.sender] */\n      0x00\n        /* \"contracts/PreSale.sol\":10811:10821  msg.sender */\n      caller\n        /* \"contracts/PreSale.sol\":10797:10822  claimedTokens[msg.sender] */\n      0xffffffffffffffffffffffffffffffffffffffff\n      and\n      0xffffffffffffffffffffffffffffffffffffffff\n      and\n      dup2\n      mstore\n      0x20\n      add\n      swap1\n      dup2\n      mstore\n      0x20\n      add\n      0x00\n      keccak256\n        /* \"contracts/PreSale.sol\":10797:10826  claimedTokens[msg.sender] = 0 */\n      dup2\n      swap1\n      sstore\n      pop\n        /* \"contracts/PreSale.sol\":10624:10837  if(lastClaimAddress[msg.sender] != address(rewardToken)) {... */\n    tag_212:\n        /* \"contracts/PreSale.sol\":10876:10893  currentPercentage */\n      dup1\n        /* \"contracts/PreSale.sol\":10854:10861  claimed */\n      0x0c\n        /* \"contracts/PreSale.sol\":10854:10873  claimed[msg.sender] */\n      0x00\n        /* \"contracts/PreSale.sol\":10862:10872  msg.sender */\n      caller\n        /* \"contracts/PreSale.sol\":10854:10873  claimed[msg.sender] */\n      0xffffffffffffffffffffffffffffffffffffffff\n      and\n      0xffffffffffffffffffffffffffffffffffffffff\n      and\n      dup2\n      mstore\n      0x20\n      add\n      swap1\n      dup2\n      mstore\n      0x20\n      add\n      0x00\n      keccak256\n      sload\n        /* \"contracts/PreSale.sol\":10854:10893  claimed[msg.sender] < currentPercentage */\n      lt\n        /* \"contracts/PreSale.sol\":10846:10958  require(claimed[msg.sender] < currentPercentage, \"ABOAT::claim: Already claimed your currently eligible tokens\") */\n      tag_213\n      jumpi\n      mload(0x40)\n      0x08c379a000000000000000000000000000000000000000000000000000000000\n      dup2\n      mstore\n      0x04\n      add\n      tag_214\n      swap1\n      tag_215\n      jump\t// in\n    tag_214:\n      mload(0x40)\n      dup1\n      swap2\n      sub\n      swap1\n      revert\n    tag_213:\n        /* \"contracts/PreSale.sol\":10982:10992  soldTokens */\n      sload(0x06)\n        /* \"contracts/PreSale.sol\":10971:10978  softcap */\n      sload(0x05)\n        /* \"contracts/PreSale.sol\":10971:10992  softcap <= soldTokens */\n      gt\n        /* \"contracts/PreSale.sol\":10968:12006  if(softcap <= soldTokens) {... */\n      tag_216\n      jumpi\n        /* \"contracts/PreSale.sol\":11008:11032  uint256 currentlyClaimed */\n      0x00\n        /* \"contracts/PreSale.sol\":11035:11042  claimed */\n      0x0c\n        /* \"contracts/PreSale.sol\":11035:11054  claimed[msg.sender] */\n      0x00\n        /* \"contracts/PreSale.sol\":11043:11053  msg.sender */\n      caller\n        /* \"contracts/PreSale.sol\":11035:11054  claimed[msg.sender] */\n      0xffffffffffffffffffffffffffffffffffffffff\n      and\n      0xffffffffffffffffffffffffffffffffffffffff\n      and\n      dup2\n      mstore\n      0x20\n      add\n      swap1\n      dup2\n      mstore\n      0x20\n      add\n      0x00\n      keccak256\n      sload\n        /* \"contracts/PreSale.sol\":11008:11054  uint256 currentlyClaimed = claimed[msg.sender] */\n      swap1\n      pop\n        /* \"contracts/PreSale.sol\":11090:11107  currentPercentage */\n      dup2\n        /* \"contracts/PreSale.sol\":11068:11075  claimed */\n      0x0c\n        /* \"contracts/PreSale.sol\":11068:11087  claimed[msg.sender] */\n      0x00\n        /* \"contracts/PreSale.sol\":11076:11086  msg.sender */\n      caller\n        /* \"contracts/PreSale.sol\":11068:11087  claimed[msg.sender] */\n      0xffffffffffffffffffffffffffffffffffffffff\n      and\n      0xffffffffffffffffffffffffffffffffffffffff\n      and\n      dup2\n      mstore\n      0x20\n      add\n      swap1\n      dup2\n      mstore\n      0x20\n      add\n      0x00\n      keccak256\n        /* \"contracts/PreSale.sol\":11068:11107  claimed[msg.sender] = currentPercentage */\n      dup2\n      swap1\n      sstore\n      pop\n        /* \"contracts/PreSale.sol\":11121:11135  uint256 amount */\n      0x00\n        /* \"contracts/PreSale.sol\":11138:11240  bought[msg.sender].mul(currentPercentage.sub(currentlyClaimed)).div(1000).mul(1e18).div(pricePerToken) */\n      tag_217\n        /* \"contracts/PreSale.sol\":11226:11239  pricePerToken */\n      sload(0x03)\n        /* \"contracts/PreSale.sol\":11138:11221  bought[msg.sender].mul(currentPercentage.sub(currentlyClaimed)).div(1000).mul(1e18) */\n      tag_218\n        /* \"contracts/PreSale.sol\":11216:11220  1e18 */\n      0x0de0b6b3a7640000\n        /* \"contracts/PreSale.sol\":11138:11211  bought[msg.sender].mul(currentPercentage.sub(currentlyClaimed)).div(1000) */\n      tag_219\n        /* \"contracts/PreSale.sol\":11206:11210  1000 */\n      0x03e8\n        /* \"contracts/PreSale.sol\":11138:11201  bought[msg.sender].mul(currentPercentage.sub(currentlyClaimed)) */\n      tag_220\n        /* \"contracts/PreSale.sol\":11161:11200  currentPercentage.sub(currentlyClaimed) */\n      tag_221\n        /* \"contracts/PreSale.sol\":11183:11199  currentlyClaimed */\n      dup10\n        /* \"contracts/PreSale.sol\":11161:11178  currentPercentage */\n      dup12\n        /* \"contracts/PreSale.sol\":11161:11182  currentPercentage.sub */\n      tag_188\n      swap1\n        /* \"contracts/PreSale.sol\":11161:11200  currentPercentage.sub(currentlyClaimed) */\n      swap2\n      swap1\n      0xffffffff\n      and\n      jump\t// in\n    tag_221:\n        /* \"contracts/PreSale.sol\":11138:11144  bought */\n      0x0b\n        /* \"contracts/PreSale.sol\":11138:11156  bought[msg.sender] */\n      0x00\n        /* \"contracts/PreSale.sol\":11145:11155  msg.sender */\n      caller\n        /* \"contracts/PreSale.sol\":11138:11156  bought[msg.sender] */\n      0xffffffffffffffffffffffffffffffffffffffff\n      and\n      0xffffffffffffffffffffffffffffffffffffffff\n      and\n      dup2\n      mstore\n      0x20\n      add\n      swap1\n      dup2\n      mstore\n      0x20\n      add\n      0x00\n      keccak256\n      sload\n        /* \"contracts/PreSale.sol\":11138:11160  bought[msg.sender].mul */\n      tag_203\n      swap1\n        /* \"contracts/PreSale.sol\":11138:11201  bought[msg.sender].mul(currentPercentage.sub(currentlyClaimed)) */\n      swap2\n      swap1\n      0xffffffff\n      and\n      jump\t// in\n    tag_220:\n        /* \"contracts/PreSale.sol\":11138:11205  bought[msg.sender].mul(currentPercentage.sub(currentlyClaimed)).div */\n      tag_222\n      swap1\n        /* \"contracts/PreSale.sol\":11138:11211  bought[msg.sender].mul(currentPercentage.sub(currentlyClaimed)).div(1000) */\n      swap2\n      swap1\n      0xffffffff\n      and\n      jump\t// in\n    tag_219:\n        /* \"contracts/PreSale.sol\":11138:11215  bought[msg.sender].mul(currentPercentage.sub(currentlyClaimed)).div(1000).mul */\n      tag_203\n      swap1\n        /* \"contracts/PreSale.sol\":11138:11221  bought[msg.sender].mul(currentPercentage.sub(currentlyClaimed)).div(1000).mul(1e18) */\n      swap2\n      swap1\n      0xffffffff\n      and\n      jump\t// in\n    tag_218:\n        /* \"contracts/PreSale.sol\":11138:11225  bought[msg.sender].mul(currentPercentage.sub(currentlyClaimed)).div(1000).mul(1e18).div */\n      tag_222\n      swap1\n        /* \"contracts/PreSale.sol\":11138:11240  bought[msg.sender].mul(currentPercentage.sub(currentlyClaimed)).div(1000).mul(1e18).div(pricePerToken) */\n      swap2\n      swap1\n      0xffffffff\n      and\n      jump\t// in\n    tag_217:\n        /* \"contracts/PreSale.sol\":11121:11240  uint256 amount = bought[msg.sender].mul(currentPercentage.sub(currentlyClaimed)).div(1000).mul(1e18).div(pricePerToken) */\n      swap1\n      pop\n        /* \"contracts/PreSale.sol\":11282:11319  claimedTokens[msg.sender].add(amount) */\n      tag_223\n        /* \"contracts/PreSale.sol\":11312:11318  amount */\n      dup2\n        /* \"contracts/PreSale.sol\":11282:11295  claimedTokens */\n      0x0d\n        /* \"contracts/PreSale.sol\":11282:11307  claimedTokens[msg.sender] */\n      0x00\n        /* \"contracts/PreSale.sol\":11296:11306  msg.sender */\n      caller\n        /* \"contracts/PreSale.sol\":11282:11307  claimedTokens[msg.sender] */\n      0xffffffffffffffffffffffffffffffffffffffff\n      and\n      0xffffffffffffffffffffffffffffffffffffffff\n      and\n      dup2\n      mstore\n      0x20\n      add\n      swap1\n      dup2\n      mstore\n      0x20\n      add\n      0x00\n      keccak256\n      sload\n        /* \"contracts/PreSale.sol\":11282:11311  claimedTokens[msg.sender].add */\n      tag_204\n      swap1\n        /* \"contracts/PreSale.sol\":11282:11319  claimedTokens[msg.sender].add(amount) */\n      swap2\n      swap1\n      0xffffffff\n      and\n      jump\t// in\n    tag_223:\n        /* \"contracts/PreSale.sol\":11254:11267  claimedTokens */\n      0x0d\n        /* \"contracts/PreSale.sol\":11254:11279  claimedTokens[msg.sender] */\n      0x00\n        /* \"contracts/PreSale.sol\":11268:11278  msg.sender */\n      caller\n        /* \"contracts/PreSale.sol\":11254:11279  claimedTokens[msg.sender] */\n      0xffffffffffffffffffffffffffffffffffffffff\n      and\n      0xffffffffffffffffffffffffffffffffffffffff\n      and\n      dup2\n      mstore\n      0x20\n      add\n      swap1\n      dup2\n      mstore\n      0x20\n      add\n      0x00\n      keccak256\n        /* \"contracts/PreSale.sol\":11254:11319  claimedTokens[msg.sender] = claimedTokens[msg.sender].add(amount) */\n      dup2\n      swap1\n      sstore\n      pop\n        /* \"contracts/PreSale.sol\":11368:11369  0 */\n      0x00\n        /* \"contracts/PreSale.sol\":11336:11370  address(rewardToken) != address(0) */\n      0xffffffffffffffffffffffffffffffffffffffff\n      and\n        /* \"contracts/PreSale.sol\":11344:11355  rewardToken */\n      0x01\n      0x00\n      swap1\n      sload\n      swap1\n      0x0100\n      exp\n      swap1\n      div\n      0xffffffffffffffffffffffffffffffffffffffff\n      and\n        /* \"contracts/PreSale.sol\":11336:11370  address(rewardToken) != address(0) */\n      0xffffffffffffffffffffffffffffffffffffffff\n      and\n      eq\n        /* \"contracts/PreSale.sol\":11333:11563  if(address(rewardToken) != address(0)) {... */\n      tag_224\n      jumpi\n        /* \"contracts/PreSale.sol\":11390:11459  TransferHelper.safeTransfer(address(rewardToken), msg.sender, amount) */\n      tag_225\n        /* \"contracts/PreSale.sol\":11426:11437  rewardToken */\n      0x01\n      0x00\n      swap1\n      sload\n      swap1\n      0x0100\n      exp\n      swap1\n      div\n      0xffffffffffffffffffffffffffffffffffffffff\n      and\n        /* \"contracts/PreSale.sol\":11440:11450  msg.sender */\n      caller\n        /* \"contracts/PreSale.sol\":11452:11458  amount */\n      dup4\n        /* \"contracts/PreSale.sol\":11390:11417  TransferHelper.safeTransfer */\n      tag_226\n        /* \"contracts/PreSale.sol\":11390:11459  TransferHelper.safeTransfer(address(rewardToken), msg.sender, amount) */\n      jump\t// in\n    tag_225:\n        /* \"contracts/PreSale.sol\":11333:11563  if(address(rewardToken) != address(0)) {... */\n      jump(tag_227)\n    tag_224:\n        /* \"contracts/PreSale.sol\":11498:11548  TransferHelper.safeTransferETH(msg.sender, amount) */\n      tag_228\n        /* \"contracts/PreSale.sol\":11529:11539  msg.sender */\n      caller\n        /* \"contracts/PreSale.sol\":11541:11547  amount */\n      dup3\n        /* \"contracts/PreSale.sol\":11498:11528  TransferHelper.safeTransferETH */\n      tag_229\n        /* \"contracts/PreSale.sol\":11498:11548  TransferHelper.safeTransferETH(msg.sender, amount) */\n      jump\t// in\n    tag_228:\n        /* \"contracts/PreSale.sol\":11333:11563  if(address(rewardToken) != address(0)) {... */\n    tag_227:\n        /* \"contracts/PreSale.sol\":11601:11607  amount */\n      dup1\n        /* \"contracts/PreSale.sol\":11589:11599  msg.sender */\n      caller\n        /* \"contracts/PreSale.sol\":11581:11608  Claimed(msg.sender, amount) */\n      0xffffffffffffffffffffffffffffffffffffffff\n      and\n      0xd8138f8a3f377c5259ca548e70e4c2de94f129f5a11036a15b69513cba2b426a\n      mload(0x40)\n      mload(0x40)\n      dup1\n      swap2\n      sub\n      swap1\n      log3\n        /* \"contracts/PreSale.sol\":10994:11619  {... */\n      pop\n      pop\n        /* \"contracts/PreSale.sol\":10968:12006  if(softcap <= soldTokens) {... */\n      jump(tag_230)\n    tag_216:\n        /* \"contracts/PreSale.sol\":11661:11665  1000 */\n      0x03e8\n        /* \"contracts/PreSale.sol\":11639:11646  claimed */\n      0x0c\n        /* \"contracts/PreSale.sol\":11639:11658  claimed[msg.sender] */\n      0x00\n        /* \"contracts/PreSale.sol\":11647:11657  msg.sender */\n      caller\n        /* \"contracts/PreSale.sol\":11639:11658  claimed[msg.sender] */\n      0xffffffffffffffffffffffffffffffffffffffff\n      and\n      0xffffffffffffffffffffffffffffffffffffffff\n      and\n      dup2\n      mstore\n      0x20\n      add\n      swap1\n      dup2\n      mstore\n      0x20\n      add\n      0x00\n      keccak256\n        /* \"contracts/PreSale.sol\":11639:11665  claimed[msg.sender] = 1000 */\n      dup2\n      swap1\n      sstore\n      pop\n        /* \"contracts/PreSale.sol\":11718:11719  0 */\n      0x00\n        /* \"contracts/PreSale.sol\":11685:11720  address(paymentToken) != address(0) */\n      0xffffffffffffffffffffffffffffffffffffffff\n      and\n        /* \"contracts/PreSale.sol\":11693:11705  paymentToken */\n      0x02\n      0x00\n      swap1\n      sload\n      swap1\n      0x0100\n      exp\n      swap1\n      div\n      0xffffffffffffffffffffffffffffffffffffffff\n      and\n        /* \"contracts/PreSale.sol\":11685:11720  address(paymentToken) != address(0) */\n      0xffffffffffffffffffffffffffffffffffffffff\n      and\n      eq\n        /* \"contracts/PreSale.sol\":11682:11938  if(address(paymentToken) != address(0)) {... */\n      tag_231\n      jumpi\n        /* \"contracts/PreSale.sol\":11740:11822  TransferHelper.safeTransfer(address(paymentToken), msg.sender, bought[msg.sender]) */\n      tag_232\n        /* \"contracts/PreSale.sol\":11776:11788  paymentToken */\n      0x02\n      0x00\n      swap1\n      sload\n      swap1\n      0x0100\n      exp\n      swap1\n      div\n      0xffffffffffffffffffffffffffffffffffffffff\n      and\n        /* \"contracts/PreSale.sol\":11791:11801  msg.sender */\n      caller\n        /* \"contracts/PreSale.sol\":11803:11809  bought */\n      0x0b\n        /* \"contracts/PreSale.sol\":11803:11821  bought[msg.sender] */\n      0x00\n        /* \"contracts/PreSale.sol\":11810:11820  msg.sender */\n      caller\n        /* \"contracts/PreSale.sol\":11803:11821  bought[msg.sender] */\n      0xffffffffffffffffffffffffffffffffffffffff\n      and\n      0xffffffffffffffffffffffffffffffffffffffff\n      and\n      dup2\n      mstore\n      0x20\n      add\n      swap1\n      dup2\n      mstore\n      0x20\n      add\n      0x00\n      keccak256\n      sload\n        /* \"contracts/PreSale.sol\":11740:11767  TransferHelper.safeTransfer */\n      tag_226\n        /* \"contracts/PreSale.sol\":11740:11822  TransferHelper.safeTransfer(address(paymentToken), msg.sender, bought[msg.sender]) */\n      jump\t// in\n    tag_232:\n        /* \"contracts/PreSale.sol\":11682:11938  if(address(paymentToken) != address(0)) {... */\n      jump(tag_233)\n    tag_231:\n        /* \"contracts/PreSale.sol\":11861:11923  TransferHelper.safeTransferETH(msg.sender, bought[msg.sender]) */\n      tag_234\n        /* \"contracts/PreSale.sol\":11892:11902  msg.sender */\n      caller\n        /* \"contracts/PreSale.sol\":11904:11910  bought */\n      0x0b\n        /* \"contracts/PreSale.sol\":11904:11922  bought[msg.sender] */\n      0x00\n        /* \"contracts/PreSale.sol\":11911:11921  msg.sender */\n      caller\n        /* \"contracts/PreSale.sol\":11904:11922  bought[msg.sender] */\n      0xffffffffffffffffffffffffffffffffffffffff\n      and\n      0xffffffffffffffffffffffffffffffffffffffff\n      and\n      dup2\n      mstore\n      0x20\n      add\n      swap1\n      dup2\n      mstore\n      0x20\n      add\n      0x00\n      keccak256\n      sload\n        /* \"contracts/PreSale.sol\":11861:11891  TransferHelper.safeTransferETH */\n      tag_229\n        /* \"contracts/PreSale.sol\":11861:11923  TransferHelper.safeTransferETH(msg.sender, bought[msg.sender]) */\n      jump\t// in\n    tag_234:\n        /* \"contracts/PreSale.sol\":11682:11938  if(address(paymentToken) != address(0)) {... */\n    tag_233:\n        /* \"contracts/PreSale.sol\":11976:11982  bought */\n      0x0b\n        /* \"contracts/PreSale.sol\":11976:11994  bought[msg.sender] */\n      0x00\n        /* \"contracts/PreSale.sol\":11983:11993  msg.sender */\n      caller\n        /* \"contracts/PreSale.sol\":11976:11994  bought[msg.sender] */\n      0xffffffffffffffffffffffffffffffffffffffff\n      and\n      0xffffffffffffffffffffffffffffffffffffffff\n      and\n      dup2\n      mstore\n      0x20\n      add\n      swap1\n      dup2\n      mstore\n      0x20\n      add\n      0x00\n      keccak256\n      sload\n        /* \"contracts/PreSale.sol\":11964:11974  msg.sender */\n      caller\n        /* \"contracts/PreSale.sol\":11956:11995  Claimed(msg.sender, bought[msg.sender]) */\n      0xffffffffffffffffffffffffffffffffffffffff\n      and\n      0xd8138f8a3f377c5259ca548e70e4c2de94f129f5a11036a15b69513cba2b426a\n      mload(0x40)\n      mload(0x40)\n      dup1\n      swap2\n      sub\n      swap1\n      log3\n        /* \"contracts/PreSale.sol\":10968:12006  if(softcap <= soldTokens) {... */\n    tag_230:\n        /* \"contracts/PreSale.sol\":10224:12012  {... */\n      pop\n        /* \"contracts/PreSale.sol\":10200:12012  function claim() public {... */\n      jump\t// out\n        /* \"contracts/PreSale.sol\":6628:7549  function whitelistFromSAFT(address[] memory addresses, uint256[] memory amounts) public onlyOwner {... */\n    tag_70:\n        /* \"@openzeppelin/contracts/access/Ownable.sol\":1196:1208  _msgSender() */\n      tag_236\n        /* \"@openzeppelin/contracts/access/Ownable.sol\":1196:1206  _msgSender */\n      tag_176\n        /* \"@openzeppelin/contracts/access/Ownable.sol\":1196:1208  _msgSender() */\n      jump\t// in\n    tag_236:\n        /* \"@openzeppelin/contracts/access/Ownable.sol\":1185:1208  owner() == _msgSender() */\n      0xffffffffffffffffffffffffffffffffffffffff\n      and\n        /* \"@openzeppelin/contracts/access/Ownable.sol\":1185:1192  owner() */\n      tag_237\n        /* \"@openzeppelin/contracts/access/Ownable.sol\":1185:1190  owner */\n      tag_95\n        /* \"@openzeppelin/contracts/access/Ownable.sol\":1185:1192  owner() */\n      jump\t// in\n    tag_237:\n        /* \"@openzeppelin/contracts/access/Ownable.sol\":1185:1208  owner() == _msgSender() */\n      0xffffffffffffffffffffffffffffffffffffffff\n      and\n      eq\n        /* \"@openzeppelin/contracts/access/Ownable.sol\":1177:1245  require(owner() == _msgSender(), \"Ownable: caller is not the owner\") */\n      tag_238\n      jumpi\n      mload(0x40)\n      0x08c379a000000000000000000000000000000000000000000000000000000000\n      dup2\n      mstore\n      0x04\n      add\n      tag_239\n      swap1\n      tag_180\n      jump\t// in\n    tag_239:\n      mload(0x40)\n      dup1\n      swap2\n      sub\n      swap1\n      revert\n    tag_238:\n        /* \"contracts/PreSale.sol\":6764:6767  100 */\n      0x64\n        /* \"contracts/PreSale.sol\":6744:6753  addresses */\n      dup3\n        /* \"contracts/PreSale.sol\":6744:6760  addresses.length */\n      mload\n        /* \"contracts/PreSale.sol\":6744:6767  addresses.length <= 100 */\n      gt\n      iszero\n        /* \"contracts/PreSale.sol\":6736:6844  require(addresses.length <= 100, \"ABOAT::whitelist: You can't add more than 100 addresses at the same time\") */\n      tag_241\n      jumpi\n      mload(0x40)\n      0x08c379a000000000000000000000000000000000000000000000000000000000\n      dup2\n      mstore\n      0x04\n      add\n      tag_242\n      swap1\n      tag_243\n      jump\t// in\n    tag_242:\n      mload(0x40)\n      dup1\n      swap2\n      sub\n      swap1\n      revert\n    tag_241:\n        /* \"contracts/PreSale.sol\":6854:6877  uint256 sumOfSoldTokens */\n      0x00\n        /* \"contracts/PreSale.sol\":6895:6905  uint index */\n      dup1\n        /* \"contracts/PreSale.sol\":6891:7432  for(uint index = 0; index < addresses.length; index++) {... */\n    tag_244:\n        /* \"contracts/PreSale.sol\":6919:6928  addresses */\n      dup4\n        /* \"contracts/PreSale.sol\":6919:6935  addresses.length */\n      mload\n        /* \"contracts/PreSale.sol\":6911:6916  index */\n      dup2\n        /* \"contracts/PreSale.sol\":6911:6935  index < addresses.length */\n      lt\n        /* \"contracts/PreSale.sol\":6891:7432  for(uint index = 0; index < addresses.length; index++) {... */\n      iszero\n      tag_245\n      jumpi\n        /* \"contracts/PreSale.sol\":6992:6996  true */\n      0x01\n        /* \"contracts/PreSale.sol\":6960:6971  whitelisted */\n      0x0a\n        /* \"contracts/PreSale.sol\":6960:6989  whitelisted[addresses[index]] */\n      0x00\n        /* \"contracts/PreSale.sol\":6972:6981  addresses */\n      dup7\n        /* \"contracts/PreSale.sol\":6982:6987  index */\n      dup5\n        /* \"contracts/PreSale.sol\":6972:6988  addresses[index] */\n      dup2\n      mload\n      dup2\n      lt\n      tag_247\n      jumpi\n      tag_248\n      tag_249\n      jump\t// in\n    tag_248:\n    tag_247:\n      0x20\n      mul\n      0x20\n      add\n      add\n      mload\n        /* \"contracts/PreSale.sol\":6960:6989  whitelisted[addresses[index]] */\n      0xffffffffffffffffffffffffffffffffffffffff\n      and\n      0xffffffffffffffffffffffffffffffffffffffff\n      and\n      dup2\n      mstore\n      0x20\n      add\n      swap1\n      dup2\n      mstore\n      0x20\n      add\n      0x00\n      keccak256\n      0x00\n        /* \"contracts/PreSale.sol\":6960:6996  whitelisted[addresses[index]] = true */\n      0x0100\n      exp\n      dup2\n      sload\n      dup2\n      0xff\n      mul\n      not\n      and\n      swap1\n      dup4\n      iszero\n      iszero\n      mul\n      or\n      swap1\n      sstore\n      pop\n        /* \"contracts/PreSale.sol\":7010:7030  uint256 amountBought */\n      0x00\n        /* \"contracts/PreSale.sol\":7033:7076  amounts[index].mul(1e18).div(pricePerToken) */\n      tag_250\n        /* \"contracts/PreSale.sol\":7062:7075  pricePerToken */\n      sload(0x03)\n        /* \"contracts/PreSale.sol\":7033:7057  amounts[index].mul(1e18) */\n      tag_251\n        /* \"contracts/PreSale.sol\":7052:7056  1e18 */\n      0x0de0b6b3a7640000\n        /* \"contracts/PreSale.sol\":7033:7040  amounts */\n      dup8\n        /* \"contracts/PreSale.sol\":7041:7046  index */\n      dup7\n        /* \"contracts/PreSale.sol\":7033:7047  amounts[index] */\n      dup2\n      mload\n      dup2\n      lt\n      tag_252\n      jumpi\n      tag_253\n      tag_249\n      jump\t// in\n    tag_253:\n    tag_252:\n      0x20\n      mul\n      0x20\n      add\n      add\n      mload\n        /* \"contracts/PreSale.sol\":7033:7051  amounts[index].mul */\n      tag_203\n      swap1\n        /* \"contracts/PreSale.sol\":7033:7057  amounts[index].mul(1e18) */\n      swap2\n      swap1\n      0xffffffff\n      and\n      jump\t// in\n    tag_251:\n        /* \"contracts/PreSale.sol\":7033:7061  amounts[index].mul(1e18).div */\n      tag_222\n      swap1\n        /* \"contracts/PreSale.sol\":7033:7076  amounts[index].mul(1e18).div(pricePerToken) */\n      swap2\n      swap1\n      0xffffffff\n      and\n      jump\t// in\n    tag_250:\n        /* \"contracts/PreSale.sol\":7010:7076  uint256 amountBought = amounts[index].mul(1e18).div(pricePerToken) */\n      swap1\n      pop\n        /* \"contracts/PreSale.sol\":7140:7141  0 */\n      0x00\n        /* \"contracts/PreSale.sol\":7098:7137  getRemainingBalance().sub(amountBought) */\n      tag_254\n        /* \"contracts/PreSale.sol\":7124:7136  amountBought */\n      dup3\n        /* \"contracts/PreSale.sol\":7098:7119  getRemainingBalance() */\n      tag_255\n        /* \"contracts/PreSale.sol\":7098:7117  getRemainingBalance */\n      tag_56\n        /* \"contracts/PreSale.sol\":7098:7119  getRemainingBalance() */\n      jump\t// in\n    tag_255:\n        /* \"contracts/PreSale.sol\":7098:7123  getRemainingBalance().sub */\n      tag_188\n      swap1\n        /* \"contracts/PreSale.sol\":7098:7137  getRemainingBalance().sub(amountBought) */\n      swap2\n      swap1\n      0xffffffff\n      and\n      jump\t// in\n    tag_254:\n        /* \"contracts/PreSale.sol\":7098:7141  getRemainingBalance().sub(amountBought) > 0 */\n      gt\n        /* \"contracts/PreSale.sol\":7090:7199  require(getRemainingBalance().sub(amountBought) > 0, \"ABOAT::buy: Amount would exceed the remaining balance\") */\n      tag_256\n      jumpi\n      mload(0x40)\n      0x08c379a000000000000000000000000000000000000000000000000000000000\n      dup2\n      mstore\n      0x04\n      add\n      tag_257\n      swap1\n      tag_258\n      jump\t// in\n    tag_257:\n      mload(0x40)\n      dup1\n      swap2\n      sub\n      swap1\n      revert\n    tag_256:\n        /* \"contracts/PreSale.sol\":7240:7284  bought[addresses[index]].add(amounts[index]) */\n      tag_259\n        /* \"contracts/PreSale.sol\":7269:7276  amounts */\n      dup5\n        /* \"contracts/PreSale.sol\":7277:7282  index */\n      dup4\n        /* \"contracts/PreSale.sol\":7269:7283  amounts[index] */\n      dup2\n      mload\n      dup2\n      lt\n      tag_260\n      jumpi\n      tag_261\n      tag_249\n      jump\t// in\n    tag_261:\n    tag_260:\n      0x20\n      mul\n      0x20\n      add\n      add\n      mload\n        /* \"contracts/PreSale.sol\":7240:7246  bought */\n      0x0b\n        /* \"contracts/PreSale.sol\":7240:7264  bought[addresses[index]] */\n      0x00\n        /* \"contracts/PreSale.sol\":7247:7256  addresses */\n      dup9\n        /* \"contracts/PreSale.sol\":7257:7262  index */\n      dup7\n        /* \"contracts/PreSale.sol\":7247:7263  addresses[index] */\n      dup2\n      mload\n      dup2\n      lt\n      tag_262\n      jumpi\n      tag_263\n      tag_249\n      jump\t// in\n    tag_263:\n    tag_262:\n      0x20\n      mul\n      0x20\n      add\n      add\n      mload\n        /* \"contracts/PreSale.sol\":7240:7264  bought[addresses[index]] */\n      0xffffffffffffffffffffffffffffffffffffffff\n      and\n      0xffffffffffffffffffffffffffffffffffffffff\n      and\n      dup2\n      mstore\n      0x20\n      add\n      swap1\n      dup2\n      mstore\n      0x20\n      add\n      0x00\n      keccak256\n      sload\n        /* \"contracts/PreSale.sol\":7240:7268  bought[addresses[index]].add */\n      tag_204\n      swap1\n        /* \"contracts/PreSale.sol\":7240:7284  bought[addresses[index]].add(amounts[index]) */\n      swap2\n      swap1\n      0xffffffff\n      and\n      jump\t// in\n    tag_259:\n        /* \"contracts/PreSale.sol\":7213:7219  bought */\n      0x0b\n        /* \"contracts/PreSale.sol\":7213:7237  bought[addresses[index]] */\n      0x00\n        /* \"contracts/PreSale.sol\":7220:7229  addresses */\n      dup8\n        /* \"contracts/PreSale.sol\":7230:7235  index */\n      dup6\n        /* \"contracts/PreSale.sol\":7220:7236  addresses[index] */\n      dup2\n      mload\n      dup2\n      lt\n      tag_264\n      jumpi\n      tag_265\n      tag_249\n      jump\t// in\n    tag_265:\n    tag_264:\n      0x20\n      mul\n      0x20\n      add\n      add\n      mload\n        /* \"contracts/PreSale.sol\":7213:7237  bought[addresses[index]] */\n      0xffffffffffffffffffffffffffffffffffffffff\n      and\n      0xffffffffffffffffffffffffffffffffffffffff\n      and\n      dup2\n      mstore\n      0x20\n      add\n      swap1\n      dup2\n      mstore\n      0x20\n      add\n      0x00\n      keccak256\n        /* \"contracts/PreSale.sol\":7213:7284  bought[addresses[index]] = bought[addresses[index]].add(amounts[index]) */\n      dup2\n      swap1\n      sstore\n      pop\n        /* \"contracts/PreSale.sol\":7316:7349  sumOfSoldTokens.add(amountBought) */\n      tag_266\n        /* \"contracts/PreSale.sol\":7336:7348  amountBought */\n      dup2\n        /* \"contracts/PreSale.sol\":7316:7331  sumOfSoldTokens */\n      dup5\n        /* \"contracts/PreSale.sol\":7316:7335  sumOfSoldTokens.add */\n      tag_204\n      swap1\n        /* \"contracts/PreSale.sol\":7316:7349  sumOfSoldTokens.add(amountBought) */\n      swap2\n      swap1\n      0xffffffff\n      and\n      jump\t// in\n    tag_266:\n        /* \"contracts/PreSale.sol\":7298:7349  sumOfSoldTokens = sumOfSoldTokens.add(amountBought) */\n      swap3\n      pop\n        /* \"contracts/PreSale.sol\":7408:7420  paymentToken */\n      0x02\n      0x00\n      swap1\n      sload\n      swap1\n      0x0100\n      exp\n      swap1\n      div\n      0xffffffffffffffffffffffffffffffffffffffff\n      and\n        /* \"contracts/PreSale.sol\":7363:7379  lastClaimAddress */\n      0x0e\n        /* \"contracts/PreSale.sol\":7363:7397  lastClaimAddress[addresses[index]] */\n      0x00\n        /* \"contracts/PreSale.sol\":7380:7389  addresses */\n      dup8\n        /* \"contracts/PreSale.sol\":7390:7395  index */\n      dup6\n        /* \"contracts/PreSale.sol\":7380:7396  addresses[index] */\n      dup2\n      mload\n      dup2\n      lt\n      tag_267\n      jumpi\n      tag_268\n      tag_249\n      jump\t// in\n    tag_268:\n    tag_267:\n      0x20\n      mul\n      0x20\n      add\n      add\n      mload\n        /* \"contracts/PreSale.sol\":7363:7397  lastClaimAddress[addresses[index]] */\n      0xffffffffffffffffffffffffffffffffffffffff\n      and\n      0xffffffffffffffffffffffffffffffffffffffff\n      and\n      dup2\n      mstore\n      0x20\n      add\n      swap1\n      dup2\n      mstore\n      0x20\n      add\n      0x00\n      keccak256\n      0x00\n        /* \"contracts/PreSale.sol\":7363:7421  lastClaimAddress[addresses[index]] = address(paymentToken) */\n      0x0100\n      exp\n      dup2\n      sload\n      dup2\n      0xffffffffffffffffffffffffffffffffffffffff\n      mul\n      not\n      and\n      swap1\n      dup4\n      0xffffffffffffffffffffffffffffffffffffffff\n      and\n      mul\n      or\n      swap1\n      sstore\n      pop\n        /* \"contracts/PreSale.sol\":6946:7432  {... */\n      pop\n        /* \"contracts/PreSale.sol\":6937:6944  index++ */\n      dup1\n      dup1\n      tag_269\n      swap1\n      tag_270\n      jump\t// in\n    tag_269:\n      swap2\n      pop\n      pop\n        /* \"contracts/PreSale.sol\":6891:7432  for(uint index = 0; index < addresses.length; index++) {... */\n      jump(tag_244)\n    tag_245:\n      pop\n        /* \"contracts/PreSale.sol\":7454:7485  soldTokens.add(sumOfSoldTokens) */\n      tag_271\n        /* \"contracts/PreSale.sol\":7469:7484  sumOfSoldTokens */\n      dup2\n        /* \"contracts/PreSale.sol\":7454:7464  soldTokens */\n      sload(0x06)\n        /* \"contracts/PreSale.sol\":7454:7468  soldTokens.add */\n      tag_204\n      swap1\n        /* \"contracts/PreSale.sol\":7454:7485  soldTokens.add(sumOfSoldTokens) */\n      swap2\n      swap1\n      0xffffffff\n      and\n      jump\t// in\n    tag_271:\n        /* \"contracts/PreSale.sol\":7441:7451  soldTokens */\n      0x06\n        /* \"contracts/PreSale.sol\":7441:7485  soldTokens = soldTokens.add(sumOfSoldTokens) */\n      dup2\n      swap1\n      sstore\n      pop\n        /* \"contracts/PreSale.sol\":7525:7534  addresses */\n      dup3\n        /* \"contracts/PreSale.sol\":7525:7541  addresses.length */\n      mload\n        /* \"contracts/PreSale.sol\":7500:7542  AddedToWhitelistFromSaft(addresses.length) */\n      0x6074084f4dbd9879d266f074be61eb039a0db2aa46e98e700223ad5c2bef5bd5\n      mload(0x40)\n      mload(0x40)\n      dup1\n      swap2\n      sub\n      swap1\n      log2\n        /* \"contracts/PreSale.sol\":6726:7549  {... */\n      pop\n        /* \"contracts/PreSale.sol\":6628:7549  function whitelistFromSAFT(address[] memory addresses, uint256[] memory amounts) public onlyOwner {... */\n      pop\n      pop\n      jump\t// out\n        /* \"contracts/PreSale.sol\":1194:1219  uint256 public soldTokens */\n    tag_73:\n      sload(0x06)\n      dup2\n      jump\t// out\n        /* \"contracts/PreSale.sol\":2063:2104  mapping(address => uint256) public bought */\n    tag_79:\n      mstore(0x20, 0x0b)\n      dup1\n      0x00\n      mstore\n      keccak256(0x00, 0x40)\n      0x00\n      swap2\n      pop\n      swap1\n      pop\n      sload\n      dup2\n      jump\t// out\n        /* \"@openzeppelin/contracts/access/Ownable.sol\":1605:1697  function renounceOwnership() public virtual onlyOwner {... */\n    tag_83:\n        /* \"@openzeppelin/contracts/access/Ownable.sol\":1196:1208  _msgSender() */\n      tag_273\n        /* \"@openzeppelin/contracts/access/Ownable.sol\":1196:1206  _msgSender */\n      tag_176\n        /* \"@openzeppelin/contracts/access/Ownable.sol\":1196:1208  _msgSender() */\n      jump\t// in\n    tag_273:\n        /* \"@openzeppelin/contracts/access/Ownable.sol\":1185:1208  owner() == _msgSender() */\n      0xffffffffffffffffffffffffffffffffffffffff\n      and\n        /* \"@openzeppelin/contracts/access/Ownable.sol\":1185:1192  owner() */\n      tag_274\n        /* \"@openzeppelin/contracts/access/Ownable.sol\":1185:1190  owner */\n      tag_95\n        /* \"@openzeppelin/contracts/access/Ownable.sol\":1185:1192  owner() */\n      jump\t// in\n    tag_274:\n        /* \"@openzeppelin/contracts/access/Ownable.sol\":1185:1208  owner() == _msgSender() */\n      0xffffffffffffffffffffffffffffffffffffffff\n      and\n      eq\n        /* \"@openzeppelin/contracts/access/Ownable.sol\":1177:1245  require(owner() == _msgSender(), \"Ownable: caller is not the owner\") */\n      tag_275\n      jumpi\n      mload(0x40)\n      0x08c379a000000000000000000000000000000000000000000000000000000000\n      dup2\n      mstore\n      0x04\n      add\n      tag_276\n      swap1\n      tag_180\n      jump\t// in\n    tag_276:\n      mload(0x40)\n      dup1\n      swap2\n      sub\n      swap1\n      revert\n    tag_275:\n        /* \"@openzeppelin/contracts/access/Ownable.sol\":1669:1690  _setOwner(address(0)) */\n      tag_278\n        /* \"@openzeppelin/contracts/access/Ownable.sol\":1687:1688  0 */\n      0x00\n        /* \"@openzeppelin/contracts/access/Ownable.sol\":1669:1678  _setOwner */\n      tag_279\n        /* \"@openzeppelin/contracts/access/Ownable.sol\":1669:1690  _setOwner(address(0)) */\n      jump\t// in\n    tag_278:\n        /* \"@openzeppelin/contracts/access/Ownable.sol\":1605:1697  function renounceOwnership() public virtual onlyOwner {... */\n      jump\t// out\n        /* \"contracts/PreSale.sol\":967:995  uint256 public pricePerToken */\n    tag_86:\n      sload(0x03)\n      dup2\n      jump\t// out\n        /* \"contracts/PreSale.sol\":1900:1935  bool public requireWhitelist = true */\n    tag_90:\n      0x09\n      0x00\n      swap1\n      sload\n      swap1\n      0x0100\n      exp\n      swap1\n      div\n      0xff\n      and\n      dup2\n      jump\t// out\n        /* \"@openzeppelin/contracts/access/Ownable.sol\":973:1058  function owner() public view virtual returns (address) {... */\n    tag_95:\n        /* \"@openzeppelin/contracts/access/Ownable.sol\":1019:1026  address */\n      0x00\n        /* \"@openzeppelin/contracts/access/Ownable.sol\":1045:1051  _owner */\n      dup1\n      0x00\n      swap1\n      sload\n      swap1\n      0x0100\n      exp\n      swap1\n      div\n      0xffffffffffffffffffffffffffffffffffffffff\n      and\n        /* \"@openzeppelin/contracts/access/Ownable.sol\":1038:1051  return _owner */\n      swap1\n      pop\n        /* \"@openzeppelin/contracts/access/Ownable.sol\":973:1058  function owner() public view virtual returns (address) {... */\n      swap1\n      jump\t// out\n        /* \"contracts/PreSale.sol\":1261:1289  uint256 public saleEnded = 0 */\n    tag_100:\n      sload(0x07)\n      dup2\n      jump\t// out\n        /* \"contracts/PreSale.sol\":8163:8676  function getCurrentPercentage() public view returns (uint256) {... */\n    tag_104:\n        /* \"contracts/PreSale.sol\":8216:8223  uint256 */\n      0x00\n        /* \"contracts/PreSale.sol\":8235:8253  uint256 cliffEnded */\n      dup1\n        /* \"contracts/PreSale.sol\":8256:8282  saleEnded.add(cliffPeriod) */\n      tag_282\n        /* \"contracts/PreSale.sol\":1812:1814  90 */\n      0x5a\n        /* \"contracts/PreSale.sol\":8256:8265  saleEnded */\n      sload(0x07)\n        /* \"contracts/PreSale.sol\":8256:8269  saleEnded.add */\n      tag_204\n      swap1\n        /* \"contracts/PreSale.sol\":8256:8282  saleEnded.add(cliffPeriod) */\n      swap2\n      swap1\n      0xffffffff\n      and\n      jump\t// in\n    tag_282:\n        /* \"contracts/PreSale.sol\":8235:8282  uint256 cliffEnded = saleEnded.add(cliffPeriod) */\n      swap1\n      pop\n        /* \"contracts/PreSale.sol\":8292:8311  uint256 deltaPeriod */\n      0x00\n        /* \"contracts/PreSale.sol\":8314:8348  cliffEnded.add(afterDays * 1 days) */\n      tag_283\n        /* \"contracts/PreSale.sol\":8341:8347  1 days */\n      0x015180\n        /* \"contracts/PreSale.sol\":8329:8338  afterDays */\n      sload(0x08)\n        /* \"contracts/PreSale.sol\":8329:8347  afterDays * 1 days */\n      tag_284\n      swap2\n      swap1\n      tag_285\n      jump\t// in\n    tag_284:\n        /* \"contracts/PreSale.sol\":8314:8324  cliffEnded */\n      dup4\n        /* \"contracts/PreSale.sol\":8314:8328  cliffEnded.add */\n      tag_204\n      swap1\n        /* \"contracts/PreSale.sol\":8314:8348  cliffEnded.add(afterDays * 1 days) */\n      swap2\n      swap1\n      0xffffffff\n      and\n      jump\t// in\n    tag_283:\n        /* \"contracts/PreSale.sol\":8292:8348  uint256 deltaPeriod = cliffEnded.add(afterDays * 1 days) */\n      swap1\n      pop\n        /* \"contracts/PreSale.sol\":8358:8376  uint256 percentage */\n      0x00\n        /* \"contracts/PreSale.sol\":8391:8392  0 */\n      dup1\n        /* \"contracts/PreSale.sol\":8379:8388  saleEnded */\n      sload(0x07)\n        /* \"contracts/PreSale.sol\":8379:8392  saleEnded > 0 */\n      gt\n        /* \"contracts/PreSale.sol\":8379:8425  saleEnded > 0 && block.timestamp > deltaPeriod */\n      dup1\n      iszero\n      tag_286\n      jumpi\n      pop\n        /* \"contracts/PreSale.sol\":8414:8425  deltaPeriod */\n      dup2\n        /* \"contracts/PreSale.sol\":8396:8411  block.timestamp */\n      timestamp\n        /* \"contracts/PreSale.sol\":8396:8425  block.timestamp > deltaPeriod */\n      gt\n        /* \"contracts/PreSale.sol\":8379:8425  saleEnded > 0 && block.timestamp > deltaPeriod */\n    tag_286:\n        /* \"contracts/PreSale.sol\":8379:8615  saleEnded > 0 && block.timestamp > deltaPeriod... */\n      tag_287\n      jumpi\n        /* \"contracts/PreSale.sol\":1564:1567  100 */\n      0x64\n        /* \"contracts/PreSale.sol\":8379:8615  saleEnded > 0 && block.timestamp > deltaPeriod... */\n      jump(tag_288)\n    tag_287:\n        /* \"contracts/PreSale.sol\":8436:8581  block.timestamp.sub(deltaPeriod)... */\n      tag_289\n        /* \"contracts/PreSale.sol\":1564:1567  100 */\n      0x64\n        /* \"contracts/PreSale.sol\":8436:8540  block.timestamp.sub(deltaPeriod)... */\n      tag_290\n        /* \"contracts/PreSale.sol\":1688:1690  50 */\n      0x32\n        /* \"contracts/PreSale.sol\":8436:8502  block.timestamp.sub(deltaPeriod)... */\n      tag_291\n        /* \"contracts/PreSale.sol\":8495:8501  1 days */\n      0x015180\n        /* \"contracts/PreSale.sol\":1467:1469  30 */\n      0x1e\n        /* \"contracts/PreSale.sol\":8486:8501  period * 1 days */\n      tag_292\n      swap2\n      swap1\n      tag_285\n      jump\t// in\n    tag_292:\n        /* \"contracts/PreSale.sol\":8436:8468  block.timestamp.sub(deltaPeriod) */\n      tag_293\n        /* \"contracts/PreSale.sol\":8456:8467  deltaPeriod */\n      dup9\n        /* \"contracts/PreSale.sol\":8436:8451  block.timestamp */\n      timestamp\n        /* \"contracts/PreSale.sol\":8436:8455  block.timestamp.sub */\n      tag_188\n      swap1\n        /* \"contracts/PreSale.sol\":8436:8468  block.timestamp.sub(deltaPeriod) */\n      swap2\n      swap1\n      0xffffffff\n      and\n      jump\t// in\n    tag_293:\n        /* \"contracts/PreSale.sol\":8436:8485  block.timestamp.sub(deltaPeriod)... */\n      tag_222\n      swap1\n        /* \"contracts/PreSale.sol\":8436:8502  block.timestamp.sub(deltaPeriod)... */\n      swap2\n      swap1\n      0xffffffff\n      and\n      jump\t// in\n    tag_291:\n        /* \"contracts/PreSale.sol\":8436:8519  block.timestamp.sub(deltaPeriod)... */\n      tag_203\n      swap1\n        /* \"contracts/PreSale.sol\":8436:8540  block.timestamp.sub(deltaPeriod)... */\n      swap2\n      swap1\n      0xffffffff\n      and\n      jump\t// in\n    tag_290:\n        /* \"contracts/PreSale.sol\":8436:8557  block.timestamp.sub(deltaPeriod)... */\n      tag_204\n      swap1\n        /* \"contracts/PreSale.sol\":8436:8581  block.timestamp.sub(deltaPeriod)... */\n      swap2\n      swap1\n      0xffffffff\n      and\n      jump\t// in\n    tag_289:\n        /* \"contracts/PreSale.sol\":8379:8615  saleEnded > 0 && block.timestamp > deltaPeriod... */\n    tag_288:\n        /* \"contracts/PreSale.sol\":8358:8615  uint256 percentage = saleEnded > 0 && block.timestamp > deltaPeriod... */\n      swap1\n      pop\n        /* \"contracts/PreSale.sol\":8645:8649  1000 */\n      0x03e8\n        /* \"contracts/PreSale.sol\":8632:8642  percentage */\n      dup2\n        /* \"contracts/PreSale.sol\":8632:8649  percentage > 1000 */\n      gt\n        /* \"contracts/PreSale.sol\":8632:8669  percentage > 1000 ? 1000 : percentage */\n      tag_294\n      jumpi\n        /* \"contracts/PreSale.sol\":8659:8669  percentage */\n      dup1\n        /* \"contracts/PreSale.sol\":8632:8669  percentage > 1000 ? 1000 : percentage */\n      jump(tag_295)\n    tag_294:\n        /* \"contracts/PreSale.sol\":8652:8656  1000 */\n      0x03e8\n        /* \"contracts/PreSale.sol\":8632:8669  percentage > 1000 ? 1000 : percentage */\n    tag_295:\n        /* \"contracts/PreSale.sol\":8625:8669  return percentage > 1000 ? 1000 : percentage */\n      swap4\n      pop\n      pop\n      pop\n      pop\n        /* \"contracts/PreSale.sol\":8163:8676  function getCurrentPercentage() public view returns (uint256) {... */\n      swap1\n      jump\t// out\n        /* \"contracts/PreSale.sol\":1034:1054  uint256 public limit */\n    tag_108:\n      sload(0x04)\n      dup2\n      jump\t// out\n        /* \"contracts/PreSale.sol\":1515:1567  uint256 constant public initialClaimPercentage = 100 */\n    tag_112:\n        /* \"contracts/PreSale.sol\":1564:1567  100 */\n      0x64\n        /* \"contracts/PreSale.sol\":1515:1567  uint256 constant public initialClaimPercentage = 100 */\n      dup2\n      jump\t// out\n        /* \"contracts/PreSale.sol\":2255:2303  mapping(address => uint256) public claimedTokens */\n    tag_117:\n      mstore(0x20, 0x0d)\n      dup1\n      0x00\n      mstore\n      keccak256(0x00, 0x40)\n      0x00\n      swap2\n      pop\n      swap1\n      pop\n      sload\n      dup2\n      jump\t// out\n        /* \"contracts/PreSale.sol\":6259:6622  function whitelist(address[] memory addresses) public onlyOwner {... */\n    tag_123:\n        /* \"@openzeppelin/contracts/access/Ownable.sol\":1196:1208  _msgSender() */\n      tag_297\n        /* \"@openzeppelin/contracts/access/Ownable.sol\":1196:1206  _msgSender */\n      tag_176\n        /* \"@openzeppelin/contracts/access/Ownable.sol\":1196:1208  _msgSender() */\n      jump\t// in\n    tag_297:\n        /* \"@openzeppelin/contracts/access/Ownable.sol\":1185:1208  owner() == _msgSender() */\n      0xffffffffffffffffffffffffffffffffffffffff\n      and\n        /* \"@openzeppelin/contracts/access/Ownable.sol\":1185:1192  owner() */\n      tag_298\n        /* \"@openzeppelin/contracts/access/Ownable.sol\":1185:1190  owner */\n      tag_95\n        /* \"@openzeppelin/contracts/access/Ownable.sol\":1185:1192  owner() */\n      jump\t// in\n    tag_298:\n        /* \"@openzeppelin/contracts/access/Ownable.sol\":1185:1208  owner() == _msgSender() */\n      0xffffffffffffffffffffffffffffffffffffffff\n      and\n      eq\n        /* \"@openzeppelin/contracts/access/Ownable.sol\":1177:1245  require(owner() == _msgSender(), \"Ownable: caller is not the owner\") */\n      tag_299\n      jumpi\n      mload(0x40)\n      0x08c379a000000000000000000000000000000000000000000000000000000000\n      dup2\n      mstore\n      0x04\n      add\n      tag_300\n      swap1\n      tag_180\n      jump\t// in\n    tag_300:\n      mload(0x40)\n      dup1\n      swap2\n      sub\n      swap1\n      revert\n    tag_299:\n        /* \"contracts/PreSale.sol\":6361:6364  100 */\n      0x64\n        /* \"contracts/PreSale.sol\":6341:6350  addresses */\n      dup2\n        /* \"contracts/PreSale.sol\":6341:6357  addresses.length */\n      mload\n        /* \"contracts/PreSale.sol\":6341:6364  addresses.length <= 100 */\n      gt\n      iszero\n        /* \"contracts/PreSale.sol\":6333:6441  require(addresses.length <= 100, \"ABOAT::whitelist: You can't add more than 100 addresses at the same time\") */\n      tag_302\n      jumpi\n      mload(0x40)\n      0x08c379a000000000000000000000000000000000000000000000000000000000\n      dup2\n      mstore\n      0x04\n      add\n      tag_303\n      swap1\n      tag_243\n      jump\t// in\n    tag_303:\n      mload(0x40)\n      dup1\n      swap2\n      sub\n      swap1\n      revert\n    tag_302:\n        /* \"contracts/PreSale.sol\":6455:6465  uint index */\n      0x00\n        /* \"contracts/PreSale.sol\":6451:6567  for(uint index = 0; index < addresses.length; index++) {... */\n    tag_304:\n        /* \"contracts/PreSale.sol\":6479:6488  addresses */\n      dup2\n        /* \"contracts/PreSale.sol\":6479:6495  addresses.length */\n      mload\n        /* \"contracts/PreSale.sol\":6471:6476  index */\n      dup2\n        /* \"contracts/PreSale.sol\":6471:6495  index < addresses.length */\n      lt\n        /* \"contracts/PreSale.sol\":6451:6567  for(uint index = 0; index < addresses.length; index++) {... */\n      iszero\n      tag_305\n      jumpi\n        /* \"contracts/PreSale.sol\":6552:6556  true */\n      0x01\n        /* \"contracts/PreSale.sol\":6520:6531  whitelisted */\n      0x0a\n        /* \"contracts/PreSale.sol\":6520:6549  whitelisted[addresses[index]] */\n      0x00\n        /* \"contracts/PreSale.sol\":6532:6541  addresses */\n      dup5\n        /* \"contracts/PreSale.sol\":6542:6547  index */\n      dup5\n        /* \"contracts/PreSale.sol\":6532:6548  addresses[index] */\n      dup2\n      mload\n      dup2\n      lt\n      tag_307\n      jumpi\n      tag_308\n      tag_249\n      jump\t// in\n    tag_308:\n    tag_307:\n      0x20\n      mul\n      0x20\n      add\n      add\n      mload\n        /* \"contracts/PreSale.sol\":6520:6549  whitelisted[addresses[index]] */\n      0xffffffffffffffffffffffffffffffffffffffff\n      and\n      0xffffffffffffffffffffffffffffffffffffffff\n      and\n      dup2\n      mstore\n      0x20\n      add\n      swap1\n      dup2\n      mstore\n      0x20\n      add\n      0x00\n      keccak256\n      0x00\n        /* \"contracts/PreSale.sol\":6520:6556  whitelisted[addresses[index]] = true */\n      0x0100\n      exp\n      dup2\n      sload\n      dup2\n      0xff\n      mul\n      not\n      and\n      swap1\n      dup4\n      iszero\n      iszero\n      mul\n      or\n      swap1\n      sstore\n      pop\n        /* \"contracts/PreSale.sol\":6497:6504  index++ */\n      dup1\n      dup1\n      tag_309\n      swap1\n      tag_270\n      jump\t// in\n    tag_309:\n      swap2\n      pop\n      pop\n        /* \"contracts/PreSale.sol\":6451:6567  for(uint index = 0; index < addresses.length; index++) {... */\n      jump(tag_304)\n    tag_305:\n      pop\n        /* \"contracts/PreSale.sol\":6598:6607  addresses */\n      dup1\n        /* \"contracts/PreSale.sol\":6598:6614  addresses.length */\n      mload\n        /* \"contracts/PreSale.sol\":6581:6615  AddedToWhitelist(addresses.length) */\n      0xf899e24720678b9547483d3c332e9a7e1eabb9c013bd2e0ff30d83806cf421f3\n      mload(0x40)\n      mload(0x40)\n      dup1\n      swap2\n      sub\n      swap1\n      log2\n        /* \"contracts/PreSale.sol\":6259:6622  function whitelist(address[] memory addresses) public onlyOwner {... */\n      pop\n      jump\t// out\n        /* \"contracts/PreSale.sol\":2152:2194  mapping(address => uint256) public claimed */\n    tag_127:\n      mstore(0x20, 0x0c)\n      dup1\n      0x00\n      mstore\n      keccak256(0x00, 0x40)\n      0x00\n      swap2\n      pop\n      swap1\n      pop\n      sload\n      dup2\n      jump\t// out\n        /* \"contracts/PreSale.sol\":5090:5268  function disableWhitelist() public onlyOwner {... */\n    tag_131:\n        /* \"@openzeppelin/contracts/access/Ownable.sol\":1196:1208  _msgSender() */\n      tag_311\n        /* \"@openzeppelin/contracts/access/Ownable.sol\":1196:1206  _msgSender */\n      tag_176\n        /* \"@openzeppelin/contracts/access/Ownable.sol\":1196:1208  _msgSender() */\n      jump\t// in\n    tag_311:\n        /* \"@openzeppelin/contracts/access/Ownable.sol\":1185:1208  owner() == _msgSender() */\n      0xffffffffffffffffffffffffffffffffffffffff\n      and\n        /* \"@openzeppelin/contracts/access/Ownable.sol\":1185:1192  owner() */\n      tag_312\n        /* \"@openzeppelin/contracts/access/Ownable.sol\":1185:1190  owner */\n      tag_95\n        /* \"@openzeppelin/contracts/access/Ownable.sol\":1185:1192  owner() */\n      jump\t// in\n    tag_312:\n        /* \"@openzeppelin/contracts/access/Ownable.sol\":1185:1208  owner() == _msgSender() */\n      0xffffffffffffffffffffffffffffffffffffffff\n      and\n      eq\n        /* \"@openzeppelin/contracts/access/Ownable.sol\":1177:1245  require(owner() == _msgSender(), \"Ownable: caller is not the owner\") */\n      tag_313\n      jumpi\n      mload(0x40)\n      0x08c379a000000000000000000000000000000000000000000000000000000000\n      dup2\n      mstore\n      0x04\n      add\n      tag_314\n      swap1\n      tag_180\n      jump\t// in\n    tag_314:\n      mload(0x40)\n      dup1\n      swap2\n      sub\n      swap1\n      revert\n    tag_313:\n        /* \"contracts/PreSale.sol\":5153:5169  requireWhitelist */\n      0x09\n      0x00\n      swap1\n      sload\n      swap1\n      0x0100\n      exp\n      swap1\n      div\n      0xff\n      and\n        /* \"contracts/PreSale.sol\":5145:5227  require(requireWhitelist, \"ABOAT:disableWhitelist: Whitelist is already disabled\") */\n      tag_316\n      jumpi\n      mload(0x40)\n      0x08c379a000000000000000000000000000000000000000000000000000000000\n      dup2\n      mstore\n      0x04\n      add\n      tag_317\n      swap1\n      tag_318\n      jump\t// in\n    tag_317:\n      mload(0x40)\n      dup1\n      swap2\n      sub\n      swap1\n      revert\n    tag_316:\n        /* \"contracts/PreSale.sol\":5256:5261  false */\n      0x00\n        /* \"contracts/PreSale.sol\":5237:5253  requireWhitelist */\n      0x09\n      0x00\n        /* \"contracts/PreSale.sol\":5237:5261  requireWhitelist = false */\n      0x0100\n      exp\n      dup2\n      sload\n      dup2\n      0xff\n      mul\n      not\n      and\n      swap1\n      dup4\n      iszero\n      iszero\n      mul\n      or\n      swap1\n      sstore\n      pop\n        /* \"contracts/PreSale.sol\":5090:5268  function disableWhitelist() public onlyOwner {... */\n      jump\t// out\n        /* \"contracts/PreSale.sol\":2014:2057  mapping(address => bool) public whitelisted */\n    tag_135:\n      mstore(0x20, 0x0a)\n      dup1\n      0x00\n      mstore\n      keccak256(0x00, 0x40)\n      0x00\n      swap2\n      pop\n      sload\n      swap1\n      0x0100\n      exp\n      swap1\n      div\n      0xff\n      and\n      dup2\n      jump\t// out\n        /* \"contracts/PreSale.sol\":9012:10063  function buy(uint256 amount) public payable {... */\n    tag_139:\n        /* \"contracts/PreSale.sol\":9087:9088  0 */\n      0x00\n        /* \"contracts/PreSale.sol\":9074:9083  saleEnded */\n      sload(0x07)\n        /* \"contracts/PreSale.sol\":9074:9088  saleEnded == 0 */\n      eq\n        /* \"contracts/PreSale.sol\":9066:9124  require(saleEnded == 0, \"ABOAT::buy: Sale already ended!\") */\n      tag_320\n      jumpi\n      mload(0x40)\n      0x08c379a000000000000000000000000000000000000000000000000000000000\n      dup2\n      mstore\n      0x04\n      add\n      tag_321\n      swap1\n      tag_322\n      jump\t// in\n    tag_321:\n      mload(0x40)\n      dup1\n      swap2\n      sub\n      swap1\n      revert\n    tag_320:\n        /* \"contracts/PreSale.sol\":9142:9153  whitelisted */\n      0x0a\n        /* \"contracts/PreSale.sol\":9142:9165  whitelisted[msg.sender] */\n      0x00\n        /* \"contracts/PreSale.sol\":9154:9164  msg.sender */\n      caller\n        /* \"contracts/PreSale.sol\":9142:9165  whitelisted[msg.sender] */\n      0xffffffffffffffffffffffffffffffffffffffff\n      and\n      0xffffffffffffffffffffffffffffffffffffffff\n      and\n      dup2\n      mstore\n      0x20\n      add\n      swap1\n      dup2\n      mstore\n      0x20\n      add\n      0x00\n      keccak256\n      0x00\n      swap1\n      sload\n      swap1\n      0x0100\n      exp\n      swap1\n      div\n      0xff\n      and\n        /* \"contracts/PreSale.sol\":9142:9186  whitelisted[msg.sender] || !requireWhitelist */\n      dup1\n      tag_323\n      jumpi\n      pop\n        /* \"contracts/PreSale.sol\":9170:9186  requireWhitelist */\n      0x09\n      0x00\n      swap1\n      sload\n      swap1\n      0x0100\n      exp\n      swap1\n      div\n      0xff\n      and\n        /* \"contracts/PreSale.sol\":9169:9186  !requireWhitelist */\n      iszero\n        /* \"contracts/PreSale.sol\":9142:9186  whitelisted[msg.sender] || !requireWhitelist */\n    tag_323:\n        /* \"contracts/PreSale.sol\":9134:9240  require(whitelisted[msg.sender] || !requireWhitelist, \"ABOAT::buy: You're not whitelisted for this sale!\") */\n      tag_324\n      jumpi\n      mload(0x40)\n      0x08c379a000000000000000000000000000000000000000000000000000000000\n      dup2\n      mstore\n      0x04\n      add\n      tag_325\n      swap1\n      tag_326\n      jump\t// in\n    tag_325:\n      mload(0x40)\n      dup1\n      swap2\n      sub\n      swap1\n      revert\n    tag_324:\n        /* \"contracts/PreSale.sol\":9250:9265  bool isEthToken */\n      0x00\n        /* \"contracts/PreSale.sol\":9301:9302  0 */\n      dup1\n        /* \"contracts/PreSale.sol\":9268:9303  address(paymentToken) == address(0) */\n      0xffffffffffffffffffffffffffffffffffffffff\n      and\n        /* \"contracts/PreSale.sol\":9276:9288  paymentToken */\n      0x02\n      0x00\n      swap1\n      sload\n      swap1\n      0x0100\n      exp\n      swap1\n      div\n      0xffffffffffffffffffffffffffffffffffffffff\n      and\n        /* \"contracts/PreSale.sol\":9268:9303  address(paymentToken) == address(0) */\n      0xffffffffffffffffffffffffffffffffffffffff\n      and\n      eq\n        /* \"contracts/PreSale.sol\":9250:9303  bool isEthToken = address(paymentToken) == address(0) */\n      swap1\n      pop\n        /* \"contracts/PreSale.sol\":9322:9332  isEthToken */\n      dup1\n        /* \"contracts/PreSale.sol\":9321:9332  !isEthToken */\n      iszero\n        /* \"contracts/PreSale.sol\":9321:9355  !isEthToken || msg.value == amount */\n      dup1\n      tag_327\n      jumpi\n      pop\n        /* \"contracts/PreSale.sol\":9349:9355  amount */\n      dup2\n        /* \"contracts/PreSale.sol\":9336:9345  msg.value */\n      callvalue\n        /* \"contracts/PreSale.sol\":9336:9355  msg.value == amount */\n      eq\n        /* \"contracts/PreSale.sol\":9321:9355  !isEthToken || msg.value == amount */\n    tag_327:\n        /* \"contracts/PreSale.sol\":9313:9412  require(!isEthToken || msg.value == amount, \"ABOAT::buy: Sent value doesn't meet the given amount\") */\n      tag_328\n      jumpi\n      mload(0x40)\n      0x08c379a000000000000000000000000000000000000000000000000000000000\n      dup2\n      mstore\n      0x04\n      add\n      tag_329\n      swap1\n      tag_330\n      jump\t// in\n    tag_329:\n      mload(0x40)\n      dup1\n      swap2\n      sub\n      swap1\n      revert\n    tag_328:\n        /* \"contracts/PreSale.sol\":9464:9469  limit */\n      sload(0x04)\n        /* \"contracts/PreSale.sol\":9430:9460  bought[msg.sender].add(amount) */\n      tag_331\n        /* \"contracts/PreSale.sol\":9453:9459  amount */\n      dup4\n        /* \"contracts/PreSale.sol\":9430:9436  bought */\n      0x0b\n        /* \"contracts/PreSale.sol\":9430:9448  bought[msg.sender] */\n      0x00\n        /* \"contracts/PreSale.sol\":9437:9447  msg.sender */\n      caller\n        /* \"contracts/PreSale.sol\":9430:9448  bought[msg.sender] */\n      0xffffffffffffffffffffffffffffffffffffffff\n      and\n      0xffffffffffffffffffffffffffffffffffffffff\n      and\n      dup2\n      mstore\n      0x20\n      add\n      swap1\n      dup2\n      mstore\n      0x20\n      add\n      0x00\n      keccak256\n      sload\n        /* \"contracts/PreSale.sol\":9430:9452  bought[msg.sender].add */\n      tag_204\n      swap1\n        /* \"contracts/PreSale.sol\":9430:9460  bought[msg.sender].add(amount) */\n      swap2\n      swap1\n      0xffffffff\n      and\n      jump\t// in\n    tag_331:\n        /* \"contracts/PreSale.sol\":9430:9469  bought[msg.sender].add(amount) <= limit */\n      gt\n      iszero\n        /* \"contracts/PreSale.sol\":9422:9531  require(bought[msg.sender].add(amount) <= limit, \"ABOAT::buy: Amount would exceed the maximum allowed limit\") */\n      tag_332\n      jumpi\n      mload(0x40)\n      0x08c379a000000000000000000000000000000000000000000000000000000000\n      dup2\n      mstore\n      0x04\n      add\n      tag_333\n      swap1\n      tag_334\n      jump\t// in\n    tag_333:\n      mload(0x40)\n      dup1\n      swap2\n      sub\n      swap1\n      revert\n    tag_332:\n        /* \"contracts/PreSale.sol\":9541:9561  uint256 amountBought */\n      0x00\n        /* \"contracts/PreSale.sol\":9564:9599  amount.mul(1e18).div(pricePerToken) */\n      tag_335\n        /* \"contracts/PreSale.sol\":9585:9598  pricePerToken */\n      sload(0x03)\n        /* \"contracts/PreSale.sol\":9564:9580  amount.mul(1e18) */\n      tag_336\n        /* \"contracts/PreSale.sol\":9575:9579  1e18 */\n      0x0de0b6b3a7640000\n        /* \"contracts/PreSale.sol\":9564:9570  amount */\n      dup7\n        /* \"contracts/PreSale.sol\":9564:9574  amount.mul */\n      tag_203\n      swap1\n        /* \"contracts/PreSale.sol\":9564:9580  amount.mul(1e18) */\n      swap2\n      swap1\n      0xffffffff\n      and\n      jump\t// in\n    tag_336:\n        /* \"contracts/PreSale.sol\":9564:9584  amount.mul(1e18).div */\n      tag_222\n      swap1\n        /* \"contracts/PreSale.sol\":9564:9599  amount.mul(1e18).div(pricePerToken) */\n      swap2\n      swap1\n      0xffffffff\n      and\n      jump\t// in\n    tag_335:\n        /* \"contracts/PreSale.sol\":9541:9599  uint256 amountBought = amount.mul(1e18).div(pricePerToken) */\n      swap1\n      pop\n        /* \"contracts/PreSale.sol\":9659:9660  0 */\n      0x00\n        /* \"contracts/PreSale.sol\":9617:9656  getRemainingBalance().sub(amountBought) */\n      tag_337\n        /* \"contracts/PreSale.sol\":9643:9655  amountBought */\n      dup3\n        /* \"contracts/PreSale.sol\":9617:9638  getRemainingBalance() */\n      tag_338\n        /* \"contracts/PreSale.sol\":9617:9636  getRemainingBalance */\n      tag_56\n        /* \"contracts/PreSale.sol\":9617:9638  getRemainingBalance() */\n      jump\t// in\n    tag_338:\n        /* \"contracts/PreSale.sol\":9617:9642  getRemainingBalance().sub */\n      tag_188\n      swap1\n        /* \"contracts/PreSale.sol\":9617:9656  getRemainingBalance().sub(amountBought) */\n      swap2\n      swap1\n      0xffffffff\n      and\n      jump\t// in\n    tag_337:\n        /* \"contracts/PreSale.sol\":9617:9660  getRemainingBalance().sub(amountBought) > 0 */\n      gt\n        /* \"contracts/PreSale.sol\":9609:9718  require(getRemainingBalance().sub(amountBought) > 0, \"ABOAT::buy: Amount would exceed the remaining balance\") */\n      tag_339\n      jumpi\n      mload(0x40)\n      0x08c379a000000000000000000000000000000000000000000000000000000000\n      dup2\n      mstore\n      0x04\n      add\n      tag_340\n      swap1\n      tag_258\n      jump\t// in\n    tag_340:\n      mload(0x40)\n      dup1\n      swap2\n      sub\n      swap1\n      revert\n    tag_339:\n        /* \"contracts/PreSale.sol\":9732:9742  isEthToken */\n      dup2\n        /* \"contracts/PreSale.sol\":9728:9842  if(!isEthToken) {... */\n      tag_341\n      jumpi\n        /* \"contracts/PreSale.sol\":9758:9831  paymentToken.safeTransferFrom(address(msg.sender), address(this), amount) */\n      tag_342\n        /* \"contracts/PreSale.sol\":9796:9806  msg.sender */\n      caller\n        /* \"contracts/PreSale.sol\":9817:9821  this */\n      address\n        /* \"contracts/PreSale.sol\":9824:9830  amount */\n      dup6\n        /* \"contracts/PreSale.sol\":9758:9770  paymentToken */\n      0x02\n      0x00\n      swap1\n      sload\n      swap1\n      0x0100\n      exp\n      swap1\n      div\n      0xffffffffffffffffffffffffffffffffffffffff\n      and\n        /* \"contracts/PreSale.sol\":9758:9787  paymentToken.safeTransferFrom */\n      0xffffffffffffffffffffffffffffffffffffffff\n      and\n      tag_343\n      swap1\n        /* \"contracts/PreSale.sol\":9758:9831  paymentToken.safeTransferFrom(address(msg.sender), address(this), amount) */\n      swap4\n      swap3\n      swap2\n      swap1\n      0xffffffff\n      and\n      jump\t// in\n    tag_342:\n        /* \"contracts/PreSale.sol\":9728:9842  if(!isEthToken) {... */\n    tag_341:\n        /* \"contracts/PreSale.sol\":9872:9902  bought[msg.sender].add(amount) */\n      tag_344\n        /* \"contracts/PreSale.sol\":9895:9901  amount */\n      dup4\n        /* \"contracts/PreSale.sol\":9872:9878  bought */\n      0x0b\n        /* \"contracts/PreSale.sol\":9872:9890  bought[msg.sender] */\n      0x00\n        /* \"contracts/PreSale.sol\":9879:9889  msg.sender */\n      caller\n        /* \"contracts/PreSale.sol\":9872:9890  bought[msg.sender] */\n      0xffffffffffffffffffffffffffffffffffffffff\n      and\n      0xffffffffffffffffffffffffffffffffffffffff\n      and\n      dup2\n      mstore\n      0x20\n      add\n      swap1\n      dup2\n      mstore\n      0x20\n      add\n      0x00\n      keccak256\n      sload\n        /* \"contracts/PreSale.sol\":9872:9894  bought[msg.sender].add */\n      tag_204\n      swap1\n        /* \"contracts/PreSale.sol\":9872:9902  bought[msg.sender].add(amount) */\n      swap2\n      swap1\n      0xffffffff\n      and\n      jump\t// in\n    tag_344:\n        /* \"contracts/PreSale.sol\":9851:9857  bought */\n      0x0b\n        /* \"contracts/PreSale.sol\":9851:9869  bought[msg.sender] */\n      0x00\n        /* \"contracts/PreSale.sol\":9858:9868  msg.sender */\n      caller\n        /* \"contracts/PreSale.sol\":9851:9869  bought[msg.sender] */\n      0xffffffffffffffffffffffffffffffffffffffff\n      and\n      0xffffffffffffffffffffffffffffffffffffffff\n      and\n      dup2\n      mstore\n      0x20\n      add\n      swap1\n      dup2\n      mstore\n      0x20\n      add\n      0x00\n      keccak256\n        /* \"contracts/PreSale.sol\":9851:9902  bought[msg.sender] = bought[msg.sender].add(amount) */\n      dup2\n      swap1\n      sstore\n      pop\n        /* \"contracts/PreSale.sol\":9925:9953  soldTokens.add(amountBought) */\n      tag_345\n        /* \"contracts/PreSale.sol\":9940:9952  amountBought */\n      dup2\n        /* \"contracts/PreSale.sol\":9925:9935  soldTokens */\n      sload(0x06)\n        /* \"contracts/PreSale.sol\":9925:9939  soldTokens.add */\n      tag_204\n      swap1\n        /* \"contracts/PreSale.sol\":9925:9953  soldTokens.add(amountBought) */\n      swap2\n      swap1\n      0xffffffff\n      and\n      jump\t// in\n    tag_345:\n        /* \"contracts/PreSale.sol\":9912:9922  soldTokens */\n      0x06\n        /* \"contracts/PreSale.sol\":9912:9953  soldTokens = soldTokens.add(amountBought) */\n      dup2\n      swap1\n      sstore\n      pop\n        /* \"contracts/PreSale.sol\":10002:10014  paymentToken */\n      0x02\n      0x00\n      swap1\n      sload\n      swap1\n      0x0100\n      exp\n      swap1\n      div\n      0xffffffffffffffffffffffffffffffffffffffff\n      and\n        /* \"contracts/PreSale.sol\":9963:9979  lastClaimAddress */\n      0x0e\n        /* \"contracts/PreSale.sol\":9963:9991  lastClaimAddress[msg.sender] */\n      0x00\n        /* \"contracts/PreSale.sol\":9980:9990  msg.sender */\n      caller\n        /* \"contracts/PreSale.sol\":9963:9991  lastClaimAddress[msg.sender] */\n      0xffffffffffffffffffffffffffffffffffffffff\n      and\n      0xffffffffffffffffffffffffffffffffffffffff\n      and\n      dup2\n      mstore\n      0x20\n      add\n      swap1\n      dup2\n      mstore\n      0x20\n      add\n      0x00\n      keccak256\n      0x00\n        /* \"contracts/PreSale.sol\":9963:10015  lastClaimAddress[msg.sender] = address(paymentToken) */\n      0x0100\n      exp\n      dup2\n      sload\n      dup2\n      0xffffffffffffffffffffffffffffffffffffffff\n      mul\n      not\n      and\n      swap1\n      dup4\n      0xffffffffffffffffffffffffffffffffffffffff\n      and\n      mul\n      or\n      swap1\n      sstore\n      pop\n        /* \"contracts/PreSale.sol\":10049:10055  amount */\n      dup3\n        /* \"contracts/PreSale.sol\":10037:10047  msg.sender */\n      caller\n        /* \"contracts/PreSale.sol\":10030:10056  Bought(msg.sender, amount) */\n      0xffffffffffffffffffffffffffffffffffffffff\n      and\n      0xc55650ccda1011e1cdc769b1fbf546ebb8c97800b6072b49e06cd560305b1d67\n      mload(0x40)\n      mload(0x40)\n      dup1\n      swap2\n      sub\n      swap1\n      log3\n        /* \"contracts/PreSale.sol\":9056:10063  {... */\n      pop\n      pop\n        /* \"contracts/PreSale.sol\":9012:10063  function buy(uint256 amount) public payable {... */\n      pop\n      jump\t// out\n        /* \"contracts/PreSale.sol\":1343:1367  uint256 public afterDays */\n    tag_142:\n      sload(0x08)\n      dup2\n      jump\t// out\n        /* \"contracts/PreSale.sol\":1434:1469  uint256 constant public period = 30 */\n    tag_146:\n        /* \"contracts/PreSale.sol\":1467:1469  30 */\n      0x1e\n        /* \"contracts/PreSale.sol\":1434:1469  uint256 constant public period = 30 */\n      dup2\n      jump\t// out\n        /* \"contracts/PreSale.sol\":3916:5080  function claimAndEndSale(uint256 _afterDays) public onlyOwner {... */\n    tag_151:\n        /* \"@openzeppelin/contracts/access/Ownable.sol\":1196:1208  _msgSender() */\n      tag_347\n        /* \"@openzeppelin/contracts/access/Ownable.sol\":1196:1206  _msgSender */\n      tag_176\n        /* \"@openzeppelin/contracts/access/Ownable.sol\":1196:1208  _msgSender() */\n      jump\t// in\n    tag_347:\n        /* \"@openzeppelin/contracts/access/Ownable.sol\":1185:1208  owner() == _msgSender() */\n      0xffffffffffffffffffffffffffffffffffffffff\n      and\n        /* \"@openzeppelin/contracts/access/Ownable.sol\":1185:1192  owner() */\n      tag_348\n        /* \"@openzeppelin/contracts/access/Ownable.sol\":1185:1190  owner */\n      tag_95\n        /* \"@openzeppelin/contracts/access/Ownable.sol\":1185:1192  owner() */\n      jump\t// in\n    tag_348:\n        /* \"@openzeppelin/contracts/access/Ownable.sol\":1185:1208  owner() == _msgSender() */\n      0xffffffffffffffffffffffffffffffffffffffff\n      and\n      eq\n        /* \"@openzeppelin/contracts/access/Ownable.sol\":1177:1245  require(owner() == _msgSender(), \"Ownable: caller is not the owner\") */\n      tag_349\n      jumpi\n      mload(0x40)\n      0x08c379a000000000000000000000000000000000000000000000000000000000\n      dup2\n      mstore\n      0x04\n      add\n      tag_350\n      swap1\n      tag_180\n      jump\t// in\n    tag_350:\n      mload(0x40)\n      dup1\n      swap2\n      sub\n      swap1\n      revert\n    tag_349:\n        /* \"contracts/PreSale.sol\":4009:4010  0 */\n      0x00\n        /* \"contracts/PreSale.sol\":3996:4005  saleEnded */\n      sload(0x07)\n        /* \"contracts/PreSale.sol\":3996:4010  saleEnded == 0 */\n      eq\n        /* \"contracts/PreSale.sol\":3988:4057  require(saleEnded == 0, \"ABOAT::claimAndEndSale: Sale already ended\") */\n      tag_352\n      jumpi\n      mload(0x40)\n      0x08c379a000000000000000000000000000000000000000000000000000000000\n      dup2\n      mstore\n      0x04\n      add\n      tag_353\n      swap1\n      tag_354\n      jump\t// in\n    tag_353:\n      mload(0x40)\n      dup1\n      swap2\n      sub\n      swap1\n      revert\n    tag_352:\n        /* \"contracts/PreSale.sol\":4079:4094  block.timestamp */\n      timestamp\n        /* \"contracts/PreSale.sol\":4067:4076  saleEnded */\n      0x07\n        /* \"contracts/PreSale.sol\":4067:4094  saleEnded = block.timestamp */\n      dup2\n      swap1\n      sstore\n      pop\n        /* \"contracts/PreSale.sol\":4118:4128  soldTokens */\n      sload(0x06)\n        /* \"contracts/PreSale.sol\":4107:4114  softcap */\n      sload(0x05)\n        /* \"contracts/PreSale.sol\":4107:4128  softcap <= soldTokens */\n      gt\n        /* \"contracts/PreSale.sol\":4104:5012  if(softcap <= soldTokens) {... */\n      tag_355\n      jumpi\n        /* \"contracts/PreSale.sol\":4290:4300  _afterDays */\n      dup1\n        /* \"contracts/PreSale.sol\":4278:4287  afterDays */\n      0x08\n        /* \"contracts/PreSale.sol\":4278:4300  afterDays = _afterDays */\n      dup2\n      swap1\n      sstore\n      pop\n        /* \"contracts/PreSale.sol\":4350:4351  0 */\n      0x00\n        /* \"contracts/PreSale.sol\":4317:4352  address(paymentToken) != address(0) */\n      0xffffffffffffffffffffffffffffffffffffffff\n      and\n        /* \"contracts/PreSale.sol\":4325:4337  paymentToken */\n      0x02\n      0x00\n      swap1\n      sload\n      swap1\n      0x0100\n      exp\n      swap1\n      div\n      0xffffffffffffffffffffffffffffffffffffffff\n      and\n        /* \"contracts/PreSale.sol\":4317:4352  address(paymentToken) != address(0) */\n      0xffffffffffffffffffffffffffffffffffffffff\n      and\n      eq\n        /* \"contracts/PreSale.sol\":4314:4592  if(address(paymentToken) != address(0)) {... */\n      tag_356\n      jumpi\n        /* \"contracts/PreSale.sol\":4372:4473  TransferHelper.safeTransfer(address(paymentToken), msg.sender, paymentToken.balanceOf(address(this))) */\n      tag_357\n        /* \"contracts/PreSale.sol\":4408:4420  paymentToken */\n      0x02\n      0x00\n      swap1\n      sload\n      swap1\n      0x0100\n      exp\n      swap1\n      div\n      0xffffffffffffffffffffffffffffffffffffffff\n      and\n        /* \"contracts/PreSale.sol\":4423:4433  msg.sender */\n      caller\n        /* \"contracts/PreSale.sol\":4435:4447  paymentToken */\n      0x02\n      0x00\n      swap1\n      sload\n      swap1\n      0x0100\n      exp\n      swap1\n      div\n      0xffffffffffffffffffffffffffffffffffffffff\n      and\n        /* \"contracts/PreSale.sol\":4435:4457  paymentToken.balanceOf */\n      0xffffffffffffffffffffffffffffffffffffffff\n      and\n      0x70a08231\n        /* \"contracts/PreSale.sol\":4466:4470  this */\n      address\n        /* \"contracts/PreSale.sol\":4435:4472  paymentToken.balanceOf(address(this)) */\n      mload(0x40)\n      dup3\n      0xffffffff\n      and\n      0xe0\n      shl\n      dup2\n      mstore\n      0x04\n      add\n      tag_358\n      swap2\n      swap1\n      tag_97\n      jump\t// in\n    tag_358:\n      0x20\n      mload(0x40)\n      dup1\n      dup4\n      sub\n      dup2\n      dup7\n      dup1\n      extcodesize\n      iszero\n      dup1\n      iszero\n      tag_359\n      jumpi\n      0x00\n      dup1\n      revert\n    tag_359:\n      pop\n      gas\n      staticcall\n      iszero\n      dup1\n      iszero\n      tag_361\n      jumpi\n      returndatasize\n      0x00\n      dup1\n      returndatacopy\n      revert(0x00, returndatasize)\n    tag_361:\n      pop\n      pop\n      pop\n      pop\n      mload(0x40)\n      returndatasize\n      not(0x1f)\n      0x1f\n      dup3\n      add\n      and\n      dup3\n      add\n      dup1\n      0x40\n      mstore\n      pop\n      dup2\n      add\n      swap1\n      tag_362\n      swap2\n      swap1\n      tag_196\n      jump\t// in\n    tag_362:\n        /* \"contracts/PreSale.sol\":4372:4399  TransferHelper.safeTransfer */\n      tag_226\n        /* \"contracts/PreSale.sol\":4372:4473  TransferHelper.safeTransfer(address(paymentToken), msg.sender, paymentToken.balanceOf(address(this))) */\n      jump\t// in\n    tag_357:\n        /* \"contracts/PreSale.sol\":4314:4592  if(address(paymentToken) != address(0)) {... */\n      jump(tag_363)\n    tag_356:\n        /* \"contracts/PreSale.sol\":4512:4577  TransferHelper.safeTransferETH(msg.sender, address(this).balance) */\n      tag_364\n        /* \"contracts/PreSale.sol\":4543:4553  msg.sender */\n      caller\n        /* \"contracts/PreSale.sol\":4555:4576  address(this).balance */\n      selfbalance\n        /* \"contracts/PreSale.sol\":4512:4542  TransferHelper.safeTransferETH */\n      tag_229\n        /* \"contracts/PreSale.sol\":4512:4577  TransferHelper.safeTransferETH(msg.sender, address(this).balance) */\n      jump\t// in\n    tag_364:\n        /* \"contracts/PreSale.sol\":4314:4592  if(address(paymentToken) != address(0)) {... */\n    tag_363:\n        /* \"contracts/PreSale.sol\":4104:5012  if(softcap <= soldTokens) {... */\n      jump(tag_365)\n    tag_355:\n        /* \"contracts/PreSale.sol\":4710:4711  0 */\n      0x00\n        /* \"contracts/PreSale.sol\":4698:4707  afterDays */\n      0x08\n        /* \"contracts/PreSale.sol\":4698:4711  afterDays = 0 */\n      dup2\n      swap1\n      sstore\n      pop\n        /* \"contracts/PreSale.sol\":4761:4762  0 */\n      0x00\n        /* \"contracts/PreSale.sol\":4729:4763  address(rewardToken) != address(0) */\n      0xffffffffffffffffffffffffffffffffffffffff\n      and\n        /* \"contracts/PreSale.sol\":4737:4748  rewardToken */\n      0x01\n      0x00\n      swap1\n      sload\n      swap1\n      0x0100\n      exp\n      swap1\n      div\n      0xffffffffffffffffffffffffffffffffffffffff\n      and\n        /* \"contracts/PreSale.sol\":4729:4763  address(rewardToken) != address(0) */\n      0xffffffffffffffffffffffffffffffffffffffff\n      and\n      eq\n        /* \"contracts/PreSale.sol\":4726:5002  if(address(rewardToken) != address(0)) {... */\n      tag_366\n      jumpi\n        /* \"contracts/PreSale.sol\":4783:4882  TransferHelper.safeTransfer(address(rewardToken), msg.sender, rewardToken.balanceOf(address(this))) */\n      tag_367\n        /* \"contracts/PreSale.sol\":4819:4830  rewardToken */\n      0x01\n      0x00\n      swap1\n      sload\n      swap1\n      0x0100\n      exp\n      swap1\n      div\n      0xffffffffffffffffffffffffffffffffffffffff\n      and\n        /* \"contracts/PreSale.sol\":4833:4843  msg.sender */\n      caller\n        /* \"contracts/PreSale.sol\":4845:4856  rewardToken */\n      0x01\n      0x00\n      swap1\n      sload\n      swap1\n      0x0100\n      exp\n      swap1\n      div\n      0xffffffffffffffffffffffffffffffffffffffff\n      and\n        /* \"contracts/PreSale.sol\":4845:4866  rewardToken.balanceOf */\n      0xffffffffffffffffffffffffffffffffffffffff\n      and\n      0x70a08231\n        /* \"contracts/PreSale.sol\":4875:4879  this */\n      address\n        /* \"contracts/PreSale.sol\":4845:4881  rewardToken.balanceOf(address(this)) */\n      mload(0x40)\n      dup3\n      0xffffffff\n      and\n      0xe0\n      shl\n      dup2\n      mstore\n      0x04\n      add\n      tag_368\n      swap2\n      swap1\n      tag_97\n      jump\t// in\n    tag_368:\n      0x20\n      mload(0x40)\n      dup1\n      dup4\n      sub\n      dup2\n      dup7\n      dup1\n      extcodesize\n      iszero\n      dup1\n      iszero\n      tag_369\n      jumpi\n      0x00\n      dup1\n      revert\n    tag_369:\n      pop\n      gas\n      staticcall\n      iszero\n      dup1\n      iszero\n      tag_371\n      jumpi\n      returndatasize\n      0x00\n      dup1\n      returndatacopy\n      revert(0x00, returndatasize)\n    tag_371:\n      pop\n      pop\n      pop\n      pop\n      mload(0x40)\n      returndatasize\n      not(0x1f)\n      0x1f\n      dup3\n      add\n      and\n      dup3\n      add\n      dup1\n      0x40\n      mstore\n      pop\n      dup2\n      add\n      swap1\n      tag_372\n      swap2\n      swap1\n      tag_196\n      jump\t// in\n    tag_372:\n        /* \"contracts/PreSale.sol\":4783:4810  TransferHelper.safeTransfer */\n      tag_226\n        /* \"contracts/PreSale.sol\":4783:4882  TransferHelper.safeTransfer(address(rewardToken), msg.sender, rewardToken.balanceOf(address(this))) */\n      jump\t// in\n    tag_367:\n        /* \"contracts/PreSale.sol\":4726:5002  if(address(rewardToken) != address(0)) {... */\n      jump(tag_373)\n    tag_366:\n        /* \"contracts/PreSale.sol\":4921:4987  TransferHelper.safeTransferETH(msg.sender,  address(this).balance) */\n      tag_374\n        /* \"contracts/PreSale.sol\":4952:4962  msg.sender */\n      caller\n        /* \"contracts/PreSale.sol\":4965:4986  address(this).balance */\n      selfbalance\n        /* \"contracts/PreSale.sol\":4921:4951  TransferHelper.safeTransferETH */\n      tag_229\n        /* \"contracts/PreSale.sol\":4921:4987  TransferHelper.safeTransferETH(msg.sender,  address(this).balance) */\n      jump\t// in\n    tag_374:\n        /* \"contracts/PreSale.sol\":4726:5002  if(address(rewardToken) != address(0)) {... */\n    tag_373:\n        /* \"contracts/PreSale.sol\":4104:5012  if(softcap <= soldTokens) {... */\n    tag_365:\n        /* \"contracts/PreSale.sol\":5036:5072  saleEnded.add(afterDays.mul(1 days)) */\n      tag_375\n        /* \"contracts/PreSale.sol\":5050:5071  afterDays.mul(1 days) */\n      tag_376\n        /* \"contracts/PreSale.sol\":5064:5070  1 days */\n      0x015180\n        /* \"contracts/PreSale.sol\":5050:5059  afterDays */\n      sload(0x08)\n        /* \"contracts/PreSale.sol\":5050:5063  afterDays.mul */\n      tag_203\n      swap1\n        /* \"contracts/PreSale.sol\":5050:5071  afterDays.mul(1 days) */\n      swap2\n      swap1\n      0xffffffff\n      and\n      jump\t// in\n    tag_376:\n        /* \"contracts/PreSale.sol\":5036:5045  saleEnded */\n      sload(0x07)\n        /* \"contracts/PreSale.sol\":5036:5049  saleEnded.add */\n      tag_204\n      swap1\n        /* \"contracts/PreSale.sol\":5036:5072  saleEnded.add(afterDays.mul(1 days)) */\n      swap2\n      swap1\n      0xffffffff\n      and\n      jump\t// in\n    tag_375:\n        /* \"contracts/PreSale.sol\":5026:5073  SaleEnded(saleEnded.add(afterDays.mul(1 days))) */\n      0x94bb74a9473ae4063ec1e73dc3e35fd4b5abe9cc1e43ad0db84e5358559ccd5a\n      mload(0x40)\n      mload(0x40)\n      dup1\n      swap2\n      sub\n      swap1\n      log2\n        /* \"contracts/PreSale.sol\":3916:5080  function claimAndEndSale(uint256 _afterDays) public onlyOwner {... */\n      pop\n      jump\t// out\n        /* \"@openzeppelin/contracts/access/Ownable.sol\":1846:2035  function transferOwnership(address newOwner) public virtual onlyOwner {... */\n    tag_155:\n        /* \"@openzeppelin/contracts/access/Ownable.sol\":1196:1208  _msgSender() */\n      tag_378\n        /* \"@openzeppelin/contracts/access/Ownable.sol\":1196:1206  _msgSender */\n      tag_176\n        /* \"@openzeppelin/contracts/access/Ownable.sol\":1196:1208  _msgSender() */\n      jump\t// in\n    tag_378:\n        /* \"@openzeppelin/contracts/access/Ownable.sol\":1185:1208  owner() == _msgSender() */\n      0xffffffffffffffffffffffffffffffffffffffff\n      and\n        /* \"@openzeppelin/contracts/access/Ownable.sol\":1185:1192  owner() */\n      tag_379\n        /* \"@openzeppelin/contracts/access/Ownable.sol\":1185:1190  owner */\n      tag_95\n        /* \"@openzeppelin/contracts/access/Ownable.sol\":1185:1192  owner() */\n      jump\t// in\n    tag_379:\n        /* \"@openzeppelin/contracts/access/Ownable.sol\":1185:1208  owner() == _msgSender() */\n      0xffffffffffffffffffffffffffffffffffffffff\n      and\n      eq\n        /* \"@openzeppelin/contracts/access/Ownable.sol\":1177:1245  require(owner() == _msgSender(), \"Ownable: caller is not the owner\") */\n      tag_380\n      jumpi\n      mload(0x40)\n      0x08c379a000000000000000000000000000000000000000000000000000000000\n      dup2\n      mstore\n      0x04\n      add\n      tag_381\n      swap1\n      tag_180\n      jump\t// in\n    tag_381:\n      mload(0x40)\n      dup1\n      swap2\n      sub\n      swap1\n      revert\n    tag_380:\n        /* \"@openzeppelin/contracts/access/Ownable.sol\":1954:1955  0 */\n      0x00\n        /* \"@openzeppelin/contracts/access/Ownable.sol\":1934:1956  newOwner != address(0) */\n      0xffffffffffffffffffffffffffffffffffffffff\n      and\n        /* \"@openzeppelin/contracts/access/Ownable.sol\":1934:1942  newOwner */\n      dup2\n        /* \"@openzeppelin/contracts/access/Ownable.sol\":1934:1956  newOwner != address(0) */\n      0xffffffffffffffffffffffffffffffffffffffff\n      and\n      eq\n      iszero\n        /* \"@openzeppelin/contracts/access/Ownable.sol\":1926:1999  require(newOwner != address(0), \"Ownable: new owner is the zero address\") */\n      tag_383\n      jumpi\n      mload(0x40)\n      0x08c379a000000000000000000000000000000000000000000000000000000000\n      dup2\n      mstore\n      0x04\n      add\n      tag_384\n      swap1\n      tag_385\n      jump\t// in\n    tag_384:\n      mload(0x40)\n      dup1\n      swap2\n      sub\n      swap1\n      revert\n    tag_383:\n        /* \"@openzeppelin/contracts/access/Ownable.sol\":2009:2028  _setOwner(newOwner) */\n      tag_386\n        /* \"@openzeppelin/contracts/access/Ownable.sol\":2019:2027  newOwner */\n      dup2\n        /* \"@openzeppelin/contracts/access/Ownable.sol\":2009:2018  _setOwner */\n      tag_279\n        /* \"@openzeppelin/contracts/access/Ownable.sol\":2009:2028  _setOwner(newOwner) */\n      jump\t// in\n    tag_386:\n        /* \"@openzeppelin/contracts/access/Ownable.sol\":1846:2035  function transferOwnership(address newOwner) public virtual onlyOwner {... */\n      pop\n      jump\t// out\n        /* \"contracts/PreSale.sol\":2351:2402  mapping(address => address) public lastClaimAddress */\n    tag_159:\n      mstore(0x20, 0x0e)\n      dup1\n      0x00\n      mstore\n      keccak256(0x00, 0x40)\n      0x00\n      swap2\n      pop\n      sload\n      swap1\n      0x0100\n      exp\n      swap1\n      div\n      0xffffffffffffffffffffffffffffffffffffffff\n      and\n      dup2\n      jump\t// out\n        /* \"contracts/PreSale.sol\":884:909  IERC20 public rewardToken */\n    tag_163:\n      0x01\n      0x00\n      swap1\n      sload\n      swap1\n      0x0100\n      exp\n      swap1\n      div\n      0xffffffffffffffffffffffffffffffffffffffff\n      and\n      dup2\n      jump\t// out\n        /* \"contracts/PreSale.sol\":1109:1131  uint256 public softcap */\n    tag_167:\n      sload(0x05)\n      dup2\n      jump\t// out\n        /* \"contracts/PreSale.sol\":5546:6059  function updateRewardToken(IERC20 _newRewardToken) public onlyOwner {... */\n    tag_173:\n        /* \"@openzeppelin/contracts/access/Ownable.sol\":1196:1208  _msgSender() */\n      tag_388\n        /* \"@openzeppelin/contracts/access/Ownable.sol\":1196:1206  _msgSender */\n      tag_176\n        /* \"@openzeppelin/contracts/access/Ownable.sol\":1196:1208  _msgSender() */\n      jump\t// in\n    tag_388:\n        /* \"@openzeppelin/contracts/access/Ownable.sol\":1185:1208  owner() == _msgSender() */\n      0xffffffffffffffffffffffffffffffffffffffff\n      and\n        /* \"@openzeppelin/contracts/access/Ownable.sol\":1185:1192  owner() */\n      tag_389\n        /* \"@openzeppelin/contracts/access/Ownable.sol\":1185:1190  owner */\n      tag_95\n        /* \"@openzeppelin/contracts/access/Ownable.sol\":1185:1192  owner() */\n      jump\t// in\n    tag_389:\n        /* \"@openzeppelin/contracts/access/Ownable.sol\":1185:1208  owner() == _msgSender() */\n      0xffffffffffffffffffffffffffffffffffffffff\n      and\n      eq\n        /* \"@openzeppelin/contracts/access/Ownable.sol\":1177:1245  require(owner() == _msgSender(), \"Ownable: caller is not the owner\") */\n      tag_390\n      jumpi\n      mload(0x40)\n      0x08c379a000000000000000000000000000000000000000000000000000000000\n      dup2\n      mstore\n      0x04\n      add\n      tag_391\n      swap1\n      tag_180\n      jump\t// in\n    tag_391:\n      mload(0x40)\n      dup1\n      swap2\n      sub\n      swap1\n      revert\n    tag_390:\n        /* \"contracts/PreSale.sol\":5651:5662  rewardToken */\n      0x01\n      0x00\n      swap1\n      sload\n      swap1\n      0x0100\n      exp\n      swap1\n      div\n      0xffffffffffffffffffffffffffffffffffffffff\n      and\n        /* \"contracts/PreSale.sol\":5632:5662  _newRewardToken != rewardToken */\n      0xffffffffffffffffffffffffffffffffffffffff\n      and\n        /* \"contracts/PreSale.sol\":5632:5647  _newRewardToken */\n      dup2\n        /* \"contracts/PreSale.sol\":5632:5662  _newRewardToken != rewardToken */\n      0xffffffffffffffffffffffffffffffffffffffff\n      and\n      eq\n      iszero\n        /* \"contracts/PreSale.sol\":5624:5737  require(_newRewardToken != rewardToken, \"ABOAT::updateRewardToken: New reward should be different from current.\") */\n      tag_393\n      jumpi\n      mload(0x40)\n      0x08c379a000000000000000000000000000000000000000000000000000000000\n      dup2\n      mstore\n      0x04\n      add\n      tag_394\n      swap1\n      tag_395\n      jump\t// in\n    tag_394:\n      mload(0x40)\n      dup1\n      swap2\n      sub\n      swap1\n      revert\n    tag_393:\n        /* \"contracts/PreSale.sol\":5799:5810  rewardToken */\n      0x01\n      0x00\n      swap1\n      sload\n      swap1\n      0x0100\n      exp\n      swap1\n      div\n      0xffffffffffffffffffffffffffffffffffffffff\n      and\n        /* \"contracts/PreSale.sol\":5799:5820  rewardToken.balanceOf */\n      0xffffffffffffffffffffffffffffffffffffffff\n      and\n      0x70a08231\n        /* \"contracts/PreSale.sol\":5829:5833  this */\n      address\n        /* \"contracts/PreSale.sol\":5799:5835  rewardToken.balanceOf(address(this)) */\n      mload(0x40)\n      dup3\n      0xffffffff\n      and\n      0xe0\n      shl\n      dup2\n      mstore\n      0x04\n      add\n      tag_396\n      swap2\n      swap1\n      tag_97\n      jump\t// in\n    tag_396:\n      0x20\n      mload(0x40)\n      dup1\n      dup4\n      sub\n      dup2\n      dup7\n      dup1\n      extcodesize\n      iszero\n      dup1\n      iszero\n      tag_397\n      jumpi\n      0x00\n      dup1\n      revert\n    tag_397:\n      pop\n      gas\n      staticcall\n      iszero\n      dup1\n      iszero\n      tag_399\n      jumpi\n      returndatasize\n      0x00\n      dup1\n      returndatacopy\n      revert(0x00, returndatasize)\n    tag_399:\n      pop\n      pop\n      pop\n      pop\n      mload(0x40)\n      returndatasize\n      not(0x1f)\n      0x1f\n      dup3\n      add\n      and\n      dup3\n      add\n      dup1\n      0x40\n      mstore\n      pop\n      dup2\n      add\n      swap1\n      tag_400\n      swap2\n      swap1\n      tag_196\n      jump\t// in\n    tag_400:\n        /* \"contracts/PreSale.sol\":5755:5770  _newRewardToken */\n      dup2\n        /* \"contracts/PreSale.sol\":5755:5780  _newRewardToken.balanceOf */\n      0xffffffffffffffffffffffffffffffffffffffff\n      and\n      0x70a08231\n        /* \"contracts/PreSale.sol\":5789:5793  this */\n      address\n        /* \"contracts/PreSale.sol\":5755:5795  _newRewardToken.balanceOf(address(this)) */\n      mload(0x40)\n      dup3\n      0xffffffff\n      and\n      0xe0\n      shl\n      dup2\n      mstore\n      0x04\n      add\n      tag_401\n      swap2\n      swap1\n      tag_97\n      jump\t// in\n    tag_401:\n      0x20\n      mload(0x40)\n      dup1\n      dup4\n      sub\n      dup2\n      dup7\n      dup1\n      extcodesize\n      iszero\n      dup1\n      iszero\n      tag_402\n      jumpi\n      0x00\n      dup1\n      revert\n    tag_402:\n      pop\n      gas\n      staticcall\n      iszero\n      dup1\n      iszero\n      tag_404\n      jumpi\n      returndatasize\n      0x00\n      dup1\n      returndatacopy\n      revert(0x00, returndatasize)\n    tag_404:\n      pop\n      pop\n      pop\n      pop\n      mload(0x40)\n      returndatasize\n      not(0x1f)\n      0x1f\n      dup3\n      add\n      and\n      dup3\n      add\n      dup1\n      0x40\n      mstore\n      pop\n      dup2\n      add\n      swap1\n      tag_405\n      swap2\n      swap1\n      tag_196\n      jump\t// in\n    tag_405:\n        /* \"contracts/PreSale.sol\":5755:5835  _newRewardToken.balanceOf(address(this)) == rewardToken.balanceOf(address(this)) */\n      eq\n        /* \"contracts/PreSale.sol\":5747:5959  require(_newRewardToken.balanceOf(address(this)) == rewardToken.balanceOf(address(this)), \"ABOAT::updateRewardToken: The contract should contain atleast the same amount of tokens as from the current rewardToken\") */\n      tag_406\n      jumpi\n      mload(0x40)\n      0x08c379a000000000000000000000000000000000000000000000000000000000\n      dup2\n      mstore\n      0x04\n      add\n      tag_407\n      swap1\n      tag_408\n      jump\t// in\n    tag_407:\n      mload(0x40)\n      dup1\n      swap2\n      sub\n      swap1\n      revert\n    tag_406:\n        /* \"contracts/PreSale.sol\":5983:5998  _newRewardToken */\n      dup1\n        /* \"contracts/PreSale.sol\":5969:5980  rewardToken */\n      0x01\n      0x00\n        /* \"contracts/PreSale.sol\":5969:5998  rewardToken = _newRewardToken */\n      0x0100\n      exp\n      dup2\n      sload\n      dup2\n      0xffffffffffffffffffffffffffffffffffffffff\n      mul\n      not\n      and\n      swap1\n      dup4\n      0xffffffffffffffffffffffffffffffffffffffff\n      and\n      mul\n      or\n      swap1\n      sstore\n      pop\n        /* \"contracts/PreSale.sol\":6039:6050  rewardToken */\n      0x01\n      0x00\n      swap1\n      sload\n      swap1\n      0x0100\n      exp\n      swap1\n      div\n      0xffffffffffffffffffffffffffffffffffffffff\n      and\n        /* \"contracts/PreSale.sol\":6013:6052  ChangeRewardToken(address(rewardToken)) */\n      0xffffffffffffffffffffffffffffffffffffffff\n      and\n      0x3fcfc24a3384ca156092d9242cb0f84abaf442146d91b8c93bea526561b83f83\n      mload(0x40)\n      mload(0x40)\n      dup1\n      swap2\n      sub\n      swap1\n      log2\n        /* \"contracts/PreSale.sol\":5546:6059  function updateRewardToken(IERC20 _newRewardToken) public onlyOwner {... */\n      pop\n      jump\t// out\n        /* \"@openzeppelin/contracts/utils/Context.sol\":586:682  function _msgSender() internal view virtual returns (address) {... */\n    tag_176:\n        /* \"@openzeppelin/contracts/utils/Context.sol\":639:646  address */\n      0x00\n        /* \"@openzeppelin/contracts/utils/Context.sol\":665:675  msg.sender */\n      caller\n        /* \"@openzeppelin/contracts/utils/Context.sol\":658:675  return msg.sender */\n      swap1\n      pop\n        /* \"@openzeppelin/contracts/utils/Context.sol\":586:682  function _msgSender() internal view virtual returns (address) {... */\n      swap1\n      jump\t// out\n        /* \"@openzeppelin/contracts/utils/math/SafeMath.sol\":3039:3135  function sub(uint256 a, uint256 b) internal pure returns (uint256) {... */\n    tag_188:\n        /* \"@openzeppelin/contracts/utils/math/SafeMath.sol\":3097:3104  uint256 */\n      0x00\n        /* \"@openzeppelin/contracts/utils/math/SafeMath.sol\":3127:3128  b */\n      dup2\n        /* \"@openzeppelin/contracts/utils/math/SafeMath.sol\":3123:3124  a */\n      dup4\n        /* \"@openzeppelin/contracts/utils/math/SafeMath.sol\":3123:3128  a - b */\n      tag_411\n      swap2\n      swap1\n      tag_412\n      jump\t// in\n    tag_411:\n        /* \"@openzeppelin/contracts/utils/math/SafeMath.sol\":3116:3128  return a - b */\n      swap1\n      pop\n        /* \"@openzeppelin/contracts/utils/math/SafeMath.sol\":3039:3135  function sub(uint256 a, uint256 b) internal pure returns (uint256) {... */\n      swap3\n      swap2\n      pop\n      pop\n      jump\t// out\n        /* \"@openzeppelin/contracts/utils/math/SafeMath.sol\":3382:3478  function mul(uint256 a, uint256 b) internal pure returns (uint256) {... */\n    tag_203:\n        /* \"@openzeppelin/contracts/utils/math/SafeMath.sol\":3440:3447  uint256 */\n      0x00\n        /* \"@openzeppelin/contracts/utils/math/SafeMath.sol\":3470:3471  b */\n      dup2\n        /* \"@openzeppelin/contracts/utils/math/SafeMath.sol\":3466:3467  a */\n      dup4\n        /* \"@openzeppelin/contracts/utils/math/SafeMath.sol\":3466:3471  a * b */\n      tag_414\n      swap2\n      swap1\n      tag_285\n      jump\t// in\n    tag_414:\n        /* \"@openzeppelin/contracts/utils/math/SafeMath.sol\":3459:3471  return a * b */\n      swap1\n      pop\n        /* \"@openzeppelin/contracts/utils/math/SafeMath.sol\":3382:3478  function mul(uint256 a, uint256 b) internal pure returns (uint256) {... */\n      swap3\n      swap2\n      pop\n      pop\n      jump\t// out\n        /* \"@openzeppelin/contracts/utils/math/SafeMath.sol\":2672:2768  function add(uint256 a, uint256 b) internal pure returns (uint256) {... */\n    tag_204:\n        /* \"@openzeppelin/contracts/utils/math/SafeMath.sol\":2730:2737  uint256 */\n      0x00\n        /* \"@openzeppelin/contracts/utils/math/SafeMath.sol\":2760:2761  b */\n      dup2\n        /* \"@openzeppelin/contracts/utils/math/SafeMath.sol\":2756:2757  a */\n      dup4\n        /* \"@openzeppelin/contracts/utils/math/SafeMath.sol\":2756:2761  a + b */\n      tag_416\n      swap2\n      swap1\n      tag_417\n      jump\t// in\n    tag_416:\n        /* \"@openzeppelin/contracts/utils/math/SafeMath.sol\":2749:2761  return a + b */\n      swap1\n      pop\n        /* \"@openzeppelin/contracts/utils/math/SafeMath.sol\":2672:2768  function add(uint256 a, uint256 b) internal pure returns (uint256) {... */\n      swap3\n      swap2\n      pop\n      pop\n      jump\t// out\n        /* \"@openzeppelin/contracts/utils/math/SafeMath.sol\":3767:3863  function div(uint256 a, uint256 b) internal pure returns (uint256) {... */\n    tag_222:\n        /* \"@openzeppelin/contracts/utils/math/SafeMath.sol\":3825:3832  uint256 */\n      0x00\n        /* \"@openzeppelin/contracts/utils/math/SafeMath.sol\":3855:3856  b */\n      dup2\n        /* \"@openzeppelin/contracts/utils/math/SafeMath.sol\":3851:3852  a */\n      dup4\n        /* \"@openzeppelin/contracts/utils/math/SafeMath.sol\":3851:3856  a / b */\n      tag_419\n      swap2\n      swap1\n      tag_420\n      jump\t// in\n    tag_419:\n        /* \"@openzeppelin/contracts/utils/math/SafeMath.sol\":3844:3856  return a / b */\n      swap1\n      pop\n        /* \"@openzeppelin/contracts/utils/math/SafeMath.sol\":3767:3863  function div(uint256 a, uint256 b) internal pure returns (uint256) {... */\n      swap3\n      swap2\n      pop\n      pop\n      jump\t// out\n        /* \"contracts/libraries/TransferHelper.sol\":210:594  function safeTransfer(... */\n    tag_226:\n        /* \"contracts/libraries/TransferHelper.sol\":324:336  bool success */\n      0x00\n        /* \"contracts/libraries/TransferHelper.sol\":338:355  bytes memory data */\n      dup1\n        /* \"contracts/libraries/TransferHelper.sol\":371:376  token */\n      dup5\n        /* \"contracts/libraries/TransferHelper.sol\":371:381  token.call */\n      0xffffffffffffffffffffffffffffffffffffffff\n      and\n        /* \"contracts/libraries/TransferHelper.sol\":405:415  0xa9059cbb */\n      0xa9059cbb\n        /* \"contracts/libraries/TransferHelper.sol\":417:419  to */\n      dup6\n        /* \"contracts/libraries/TransferHelper.sol\":421:426  value */\n      dup6\n        /* \"contracts/libraries/TransferHelper.sol\":382:427  abi.encodeWithSelector(0xa9059cbb, to, value) */\n      add(0x24, mload(0x40))\n      tag_422\n      swap3\n      swap2\n      swap1\n      tag_423\n      jump\t// in\n    tag_422:\n      mload(0x40)\n      0x20\n      dup2\n      dup4\n      sub\n      sub\n      dup2\n      mstore\n      swap1\n      0x40\n      mstore\n      swap1\n      0xe0\n      shl\n      0x20\n      dup3\n      add\n      dup1\n      mload\n      0xffffffffffffffffffffffffffffffffffffffffffffffffffffffff\n      dup4\n      dup2\n      dup4\n      and\n      or\n      dup4\n      mstore\n      pop\n      pop\n      pop\n      pop\n        /* \"contracts/libraries/TransferHelper.sol\":371:428  token.call(abi.encodeWithSelector(0xa9059cbb, to, value)) */\n      mload(0x40)\n      tag_424\n      swap2\n      swap1\n      tag_425\n      jump\t// in\n    tag_424:\n      0x00\n      mload(0x40)\n      dup1\n      dup4\n      sub\n      dup2\n      0x00\n      dup7\n      gas\n      call\n      swap2\n      pop\n      pop\n      returndatasize\n      dup1\n      0x00\n      dup2\n      eq\n      tag_428\n      jumpi\n      mload(0x40)\n      swap2\n      pop\n      and(add(returndatasize, 0x3f), not(0x1f))\n      dup3\n      add\n      0x40\n      mstore\n      returndatasize\n      dup3\n      mstore\n      returndatasize\n      0x00\n      0x20\n      dup5\n      add\n      returndatacopy\n      jump(tag_427)\n    tag_428:\n      0x60\n      swap2\n      pop\n    tag_427:\n      pop\n        /* \"contracts/libraries/TransferHelper.sol\":323:428  (bool success, bytes memory data) =... */\n      swap2\n      pop\n      swap2\n      pop\n        /* \"contracts/libraries/TransferHelper.sol\":459:466  success */\n      dup2\n        /* \"contracts/libraries/TransferHelper.sol\":459:516  success && (data.length == 0 || abi.decode(data, (bool))) */\n      dup1\n      iszero\n      tag_429\n      jumpi\n      pop\n        /* \"contracts/libraries/TransferHelper.sol\":486:487  0 */\n      0x00\n        /* \"contracts/libraries/TransferHelper.sol\":471:475  data */\n      dup2\n        /* \"contracts/libraries/TransferHelper.sol\":471:482  data.length */\n      mload\n        /* \"contracts/libraries/TransferHelper.sol\":471:487  data.length == 0 */\n      eq\n        /* \"contracts/libraries/TransferHelper.sol\":471:515  data.length == 0 || abi.decode(data, (bool)) */\n      dup1\n      tag_430\n      jumpi\n      pop\n        /* \"contracts/libraries/TransferHelper.sol\":502:506  data */\n      dup1\n        /* \"contracts/libraries/TransferHelper.sol\":491:515  abi.decode(data, (bool)) */\n      dup1\n      0x20\n      add\n      swap1\n      mload\n      dup2\n      add\n      swap1\n      tag_431\n      swap2\n      swap1\n      tag_432\n      jump\t// in\n    tag_431:\n        /* \"contracts/libraries/TransferHelper.sol\":471:515  data.length == 0 || abi.decode(data, (bool)) */\n    tag_430:\n        /* \"contracts/libraries/TransferHelper.sol\":459:516  success && (data.length == 0 || abi.decode(data, (bool))) */\n    tag_429:\n        /* \"contracts/libraries/TransferHelper.sol\":438:587  require(... */\n      tag_433\n      jumpi\n      mload(0x40)\n      0x08c379a000000000000000000000000000000000000000000000000000000000\n      dup2\n      mstore\n      0x04\n      add\n      tag_434\n      swap1\n      tag_435\n      jump\t// in\n    tag_434:\n      mload(0x40)\n      dup1\n      swap2\n      sub\n      swap1\n      revert\n    tag_433:\n        /* \"contracts/libraries/TransferHelper.sol\":313:594  {... */\n      pop\n      pop\n        /* \"contracts/libraries/TransferHelper.sol\":210:594  function safeTransfer(... */\n      pop\n      pop\n      pop\n      jump\t// out\n        /* \"contracts/libraries/TransferHelper.sol\":1026:1274  function safeTransferETH(address to, uint256 value) internal {... */\n    tag_229:\n        /* \"contracts/libraries/TransferHelper.sol\":1098:1110  bool success */\n      0x00\n        /* \"contracts/libraries/TransferHelper.sol\":1116:1118  to */\n      dup3\n        /* \"contracts/libraries/TransferHelper.sol\":1116:1123  to.call */\n      0xffffffffffffffffffffffffffffffffffffffff\n      and\n        /* \"contracts/libraries/TransferHelper.sol\":1131:1136  value */\n      dup3\n        /* \"contracts/libraries/TransferHelper.sol\":1148:1149  0 */\n      0x00\n        /* \"contracts/libraries/TransferHelper.sol\":1138:1150  new bytes(0) */\n      0xffffffffffffffff\n      dup2\n      gt\n      iszero\n      tag_437\n      jumpi\n      tag_438\n      tag_439\n      jump\t// in\n    tag_438:\n    tag_437:\n      mload(0x40)\n      swap1\n      dup1\n      dup3\n      mstore\n      dup1\n      0x1f\n      add\n      not(0x1f)\n      and\n      0x20\n      add\n      dup3\n      add\n      0x40\n      mstore\n      dup1\n      iszero\n      tag_440\n      jumpi\n      dup2\n      0x20\n      add\n      0x01\n      dup3\n      mul\n      dup1\n      calldatasize\n      dup4\n      calldatacopy\n      dup1\n      dup3\n      add\n      swap2\n      pop\n      pop\n      swap1\n      pop\n    tag_440:\n      pop\n        /* \"contracts/libraries/TransferHelper.sol\":1116:1151  to.call{value: value}(new bytes(0)) */\n      mload(0x40)\n      tag_441\n      swap2\n      swap1\n      tag_425\n      jump\t// in\n    tag_441:\n      0x00\n      mload(0x40)\n      dup1\n      dup4\n      sub\n      dup2\n      dup6\n      dup8\n      gas\n      call\n      swap3\n      pop\n      pop\n      pop\n      returndatasize\n      dup1\n      0x00\n      dup2\n      eq\n      tag_444\n      jumpi\n      mload(0x40)\n      swap2\n      pop\n      and(add(returndatasize, 0x3f), not(0x1f))\n      dup3\n      add\n      0x40\n      mstore\n      returndatasize\n      dup3\n      mstore\n      returndatasize\n      0x00\n      0x20\n      dup5\n      add\n      returndatacopy\n      jump(tag_443)\n    tag_444:\n      0x60\n      swap2\n      pop\n    tag_443:\n      pop\n        /* \"contracts/libraries/TransferHelper.sol\":1097:1151  (bool success, ) = to.call{value: value}(new bytes(0)) */\n      pop\n      swap1\n      pop\n        /* \"contracts/libraries/TransferHelper.sol\":1182:1189  success */\n      dup1\n        /* \"contracts/libraries/TransferHelper.sol\":1161:1267  require(... */\n      tag_445\n      jumpi\n      mload(0x40)\n      0x08c379a000000000000000000000000000000000000000000000000000000000\n      dup2\n      mstore\n      0x04\n      add\n      tag_446\n      swap1\n      tag_447\n      jump\t// in\n    tag_446:\n      mload(0x40)\n      dup1\n      swap2\n      sub\n      swap1\n      revert\n    tag_445:\n        /* \"contracts/libraries/TransferHelper.sol\":1087:1274  {... */\n      pop\n        /* \"contracts/libraries/TransferHelper.sol\":1026:1274  function safeTransferETH(address to, uint256 value) internal {... */\n      pop\n      pop\n      jump\t// out\n        /* \"@openzeppelin/contracts/access/Ownable.sol\":2041:2210  function _setOwner(address newOwner) private {... */\n    tag_279:\n        /* \"@openzeppelin/contracts/access/Ownable.sol\":2096:2112  address oldOwner */\n      0x00\n        /* \"@openzeppelin/contracts/access/Ownable.sol\":2115:2121  _owner */\n      dup1\n      0x00\n      swap1\n      sload\n      swap1\n      0x0100\n      exp\n      swap1\n      div\n      0xffffffffffffffffffffffffffffffffffffffff\n      and\n        /* \"@openzeppelin/contracts/access/Ownable.sol\":2096:2121  address oldOwner = _owner */\n      swap1\n      pop\n        /* \"@openzeppelin/contracts/access/Ownable.sol\":2140:2148  newOwner */\n      dup2\n        /* \"@openzeppelin/contracts/access/Ownable.sol\":2131:2137  _owner */\n      0x00\n      dup1\n        /* \"@openzeppelin/contracts/access/Ownable.sol\":2131:2148  _owner = newOwner */\n      0x0100\n      exp\n      dup2\n      sload\n      dup2\n      0xffffffffffffffffffffffffffffffffffffffff\n      mul\n      not\n      and\n      swap1\n      dup4\n      0xffffffffffffffffffffffffffffffffffffffff\n      and\n      mul\n      or\n      swap1\n      sstore\n      pop\n        /* \"@openzeppelin/contracts/access/Ownable.sol\":2194:2202  newOwner */\n      dup2\n        /* \"@openzeppelin/contracts/access/Ownable.sol\":2163:2203  OwnershipTransferred(oldOwner, newOwner) */\n      0xffffffffffffffffffffffffffffffffffffffff\n      and\n        /* \"@openzeppelin/contracts/access/Ownable.sol\":2184:2192  oldOwner */\n      dup2\n        /* \"@openzeppelin/contracts/access/Ownable.sol\":2163:2203  OwnershipTransferred(oldOwner, newOwner) */\n      0xffffffffffffffffffffffffffffffffffffffff\n      and\n      0x8be0079c531659141344cd1fd0a4f28419497f9722a3daafe3b4186f6b6457e0\n      mload(0x40)\n      mload(0x40)\n      dup1\n      swap2\n      sub\n      swap1\n      log3\n        /* \"@openzeppelin/contracts/access/Ownable.sol\":2086:2210  {... */\n      pop\n        /* \"@openzeppelin/contracts/access/Ownable.sol\":2041:2210  function _setOwner(address newOwner) private {... */\n      pop\n      jump\t// out\n        /* \"@openzeppelin/contracts/token/ERC20/utils/SafeERC20.sol\":845:1086  function safeTransferFrom(... */\n    tag_343:\n        /* \"@openzeppelin/contracts/token/ERC20/utils/SafeERC20.sol\":983:1079  _callOptionalReturn(token, abi.encodeWithSelector(token.transferFrom.selector, from, to, value)) */\n      tag_450\n        /* \"@openzeppelin/contracts/token/ERC20/utils/SafeERC20.sol\":1003:1008  token */\n      dup5\n        /* \"@openzeppelin/contracts/token/ERC20/utils/SafeERC20.sol\":1033:1060  token.transferFrom.selector */\n      shl(0xe0, 0x23b872dd)\n        /* \"@openzeppelin/contracts/token/ERC20/utils/SafeERC20.sol\":1062:1066  from */\n      dup6\n        /* \"@openzeppelin/contracts/token/ERC20/utils/SafeERC20.sol\":1068:1070  to */\n      dup6\n        /* \"@openzeppelin/contracts/token/ERC20/utils/SafeERC20.sol\":1072:1077  value */\n      dup6\n        /* \"@openzeppelin/contracts/token/ERC20/utils/SafeERC20.sol\":1010:1078  abi.encodeWithSelector(token.transferFrom.selector, from, to, value) */\n      add(0x24, mload(0x40))\n      tag_451\n      swap4\n      swap3\n      swap2\n      swap1\n      tag_452\n      jump\t// in\n    tag_451:\n      mload(0x40)\n      0x20\n      dup2\n      dup4\n      sub\n      sub\n      dup2\n      mstore\n      swap1\n      0x40\n      mstore\n      swap1\n      not(0xffffffffffffffffffffffffffffffffffffffffffffffffffffffff)\n      and\n      0x20\n      dup3\n      add\n      dup1\n      mload\n      0xffffffffffffffffffffffffffffffffffffffffffffffffffffffff\n      dup4\n      dup2\n      dup4\n      and\n      or\n      dup4\n      mstore\n      pop\n      pop\n      pop\n      pop\n        /* \"@openzeppelin/contracts/token/ERC20/utils/SafeERC20.sol\":983:1002  _callOptionalReturn */\n      tag_453\n        /* \"@openzeppelin/contracts/token/ERC20/utils/SafeERC20.sol\":983:1079  _callOptionalReturn(token, abi.encodeWithSelector(token.transferFrom.selector, from, to, value)) */\n      jump\t// in\n    tag_450:\n        /* \"@openzeppelin/contracts/token/ERC20/utils/SafeERC20.sol\":845:1086  function safeTransferFrom(... */\n      pop\n      pop\n      pop\n      pop\n      jump\t// out\n        /* \"@openzeppelin/contracts/token/ERC20/utils/SafeERC20.sol\":3140:3846  function _callOptionalReturn(IERC20 token, bytes memory data) private {... */\n    tag_453:\n        /* \"@openzeppelin/contracts/token/ERC20/utils/SafeERC20.sol\":3559:3582  bytes memory returndata */\n      0x00\n        /* \"@openzeppelin/contracts/token/ERC20/utils/SafeERC20.sol\":3585:3654  address(token).functionCall(data, \"SafeERC20: low-level call failed\") */\n      tag_455\n        /* \"@openzeppelin/contracts/token/ERC20/utils/SafeERC20.sol\":3613:3617  data */\n      dup3\n        /* \"@openzeppelin/contracts/token/ERC20/utils/SafeERC20.sol\":3585:3654  address(token).functionCall(data, \"SafeERC20: low-level call failed\") */\n      mload(0x40)\n      dup1\n      0x40\n      add\n      0x40\n      mstore\n      dup1\n      0x20\n      dup2\n      mstore\n      0x20\n      add\n      0x5361666545524332303a206c6f772d6c6576656c2063616c6c206661696c6564\n      dup2\n      mstore\n      pop\n        /* \"@openzeppelin/contracts/token/ERC20/utils/SafeERC20.sol\":3593:3598  token */\n      dup6\n        /* \"@openzeppelin/contracts/token/ERC20/utils/SafeERC20.sol\":3585:3612  address(token).functionCall */\n      0xffffffffffffffffffffffffffffffffffffffff\n      and\n      tag_456\n      swap1\n        /* \"@openzeppelin/contracts/token/ERC20/utils/SafeERC20.sol\":3585:3654  address(token).functionCall(data, \"SafeERC20: low-level call failed\") */\n      swap3\n      swap2\n      swap1\n      0xffffffff\n      and\n      jump\t// in\n    tag_455:\n        /* \"@openzeppelin/contracts/token/ERC20/utils/SafeERC20.sol\":3559:3654  bytes memory returndata = address(token).functionCall(data, \"SafeERC20: low-level call failed\") */\n      swap1\n      pop\n        /* \"@openzeppelin/contracts/token/ERC20/utils/SafeERC20.sol\":3688:3689  0 */\n      0x00\n        /* \"@openzeppelin/contracts/token/ERC20/utils/SafeERC20.sol\":3668:3678  returndata */\n      dup2\n        /* \"@openzeppelin/contracts/token/ERC20/utils/SafeERC20.sol\":3668:3685  returndata.length */\n      mload\n        /* \"@openzeppelin/contracts/token/ERC20/utils/SafeERC20.sol\":3668:3689  returndata.length > 0 */\n      gt\n        /* \"@openzeppelin/contracts/token/ERC20/utils/SafeERC20.sol\":3664:3840  if (returndata.length > 0) {... */\n      iszero\n      tag_457\n      jumpi\n        /* \"@openzeppelin/contracts/token/ERC20/utils/SafeERC20.sol\":3763:3773  returndata */\n      dup1\n        /* \"@openzeppelin/contracts/token/ERC20/utils/SafeERC20.sol\":3752:3782  abi.decode(returndata, (bool)) */\n      dup1\n      0x20\n      add\n      swap1\n      mload\n      dup2\n      add\n      swap1\n      tag_458\n      swap2\n      swap1\n      tag_432\n      jump\t// in\n    tag_458:\n        /* \"@openzeppelin/contracts/token/ERC20/utils/SafeERC20.sol\":3744:3829  require(abi.decode(returndata, (bool)), \"SafeERC20: ERC20 operation did not succeed\") */\n      tag_459\n      jumpi\n      mload(0x40)\n      0x08c379a000000000000000000000000000000000000000000000000000000000\n      dup2\n      mstore\n      0x04\n      add\n      tag_460\n      swap1\n      tag_461\n      jump\t// in\n    tag_460:\n      mload(0x40)\n      dup1\n      swap2\n      sub\n      swap1\n      revert\n    tag_459:\n        /* \"@openzeppelin/contracts/token/ERC20/utils/SafeERC20.sol\":3664:3840  if (returndata.length > 0) {... */\n    tag_457:\n        /* \"@openzeppelin/contracts/token/ERC20/utils/SafeERC20.sol\":3210:3846  {... */\n      pop\n        /* \"@openzeppelin/contracts/token/ERC20/utils/SafeERC20.sol\":3140:3846  function _callOptionalReturn(IERC20 token, bytes memory data) private {... */\n      pop\n      pop\n      jump\t// out\n        /* \"@openzeppelin/contracts/utils/Address.sol\":3461:3684  function functionCall(... */\n    tag_456:\n        /* \"@openzeppelin/contracts/utils/Address.sol\":3594:3606  bytes memory */\n      0x60\n        /* \"@openzeppelin/contracts/utils/Address.sol\":3625:3677  functionCallWithValue(target, data, 0, errorMessage) */\n      tag_463\n        /* \"@openzeppelin/contracts/utils/Address.sol\":3647:3653  target */\n      dup5\n        /* \"@openzeppelin/contracts/utils/Address.sol\":3655:3659  data */\n      dup5\n        /* \"@openzeppelin/contracts/utils/Address.sol\":3661:3662  0 */\n      0x00\n        /* \"@openzeppelin/contracts/utils/Address.sol\":3664:3676  errorMessage */\n      dup6\n        /* \"@openzeppelin/contracts/utils/Address.sol\":3625:3646  functionCallWithValue */\n      tag_464\n        /* \"@openzeppelin/contracts/utils/Address.sol\":3625:3677  functionCallWithValue(target, data, 0, errorMessage) */\n      jump\t// in\n    tag_463:\n        /* \"@openzeppelin/contracts/utils/Address.sol\":3618:3677  return functionCallWithValue(target, data, 0, errorMessage) */\n      swap1\n      pop\n        /* \"@openzeppelin/contracts/utils/Address.sol\":3461:3684  function functionCall(... */\n      swap4\n      swap3\n      pop\n      pop\n      pop\n      jump\t// out\n        /* \"@openzeppelin/contracts/utils/Address.sol\":4548:5048  function functionCallWithValue(... */\n    tag_464:\n        /* \"@openzeppelin/contracts/utils/Address.sol\":4713:4725  bytes memory */\n      0x60\n        /* \"@openzeppelin/contracts/utils/Address.sol\":4770:4775  value */\n      dup3\n        /* \"@openzeppelin/contracts/utils/Address.sol\":4745:4766  address(this).balance */\n      selfbalance\n        /* \"@openzeppelin/contracts/utils/Address.sol\":4745:4775  address(this).balance >= value */\n      lt\n      iszero\n        /* \"@openzeppelin/contracts/utils/Address.sol\":4737:4818  require(address(this).balance >= value, \"Address: insufficient balance for call\") */\n      tag_466\n      jumpi\n      mload(0x40)\n      0x08c379a000000000000000000000000000000000000000000000000000000000\n      dup2\n      mstore\n      0x04\n      add\n      tag_467\n      swap1\n      tag_468\n      jump\t// in\n    tag_467:\n      mload(0x40)\n      dup1\n      swap2\n      sub\n      swap1\n      revert\n    tag_466:\n        /* \"@openzeppelin/contracts/utils/Address.sol\":4836:4854  isContract(target) */\n      tag_469\n        /* \"@openzeppelin/contracts/utils/Address.sol\":4847:4853  target */\n      dup6\n        /* \"@openzeppelin/contracts/utils/Address.sol\":4836:4846  isContract */\n      tag_470\n        /* \"@openzeppelin/contracts/utils/Address.sol\":4836:4854  isContract(target) */\n      jump\t// in\n    tag_469:\n        /* \"@openzeppelin/contracts/utils/Address.sol\":4828:4888  require(isContract(target), \"Address: call to non-contract\") */\n      tag_471\n      jumpi\n      mload(0x40)\n      0x08c379a000000000000000000000000000000000000000000000000000000000\n      dup2\n      mstore\n      0x04\n      add\n      tag_472\n      swap1\n      tag_473\n      jump\t// in\n    tag_472:\n      mload(0x40)\n      dup1\n      swap2\n      sub\n      swap1\n      revert\n    tag_471:\n        /* \"@openzeppelin/contracts/utils/Address.sol\":4900:4912  bool success */\n      0x00\n        /* \"@openzeppelin/contracts/utils/Address.sol\":4914:4937  bytes memory returndata */\n      dup1\n        /* \"@openzeppelin/contracts/utils/Address.sol\":4941:4947  target */\n      dup7\n        /* \"@openzeppelin/contracts/utils/Address.sol\":4941:4952  target.call */\n      0xffffffffffffffffffffffffffffffffffffffff\n      and\n        /* \"@openzeppelin/contracts/utils/Address.sol\":4960:4965  value */\n      dup6\n        /* \"@openzeppelin/contracts/utils/Address.sol\":4967:4971  data */\n      dup8\n        /* \"@openzeppelin/contracts/utils/Address.sol\":4941:4972  target.call{value: value}(data) */\n      mload(0x40)\n      tag_474\n      swap2\n      swap1\n      tag_425\n      jump\t// in\n    tag_474:\n      0x00\n      mload(0x40)\n      dup1\n      dup4\n      sub\n      dup2\n      dup6\n      dup8\n      gas\n      call\n      swap3\n      pop\n      pop\n      pop\n      returndatasize\n      dup1\n      0x00\n      dup2\n      eq\n      tag_477\n      jumpi\n      mload(0x40)\n      swap2\n      pop\n      and(add(returndatasize, 0x3f), not(0x1f))\n      dup3\n      add\n      0x40\n      mstore\n      returndatasize\n      dup3\n      mstore\n      returndatasize\n      0x00\n      0x20\n      dup5\n      add\n      returndatacopy\n      jump(tag_476)\n    tag_477:\n      0x60\n      swap2\n      pop\n    tag_476:\n      pop\n        /* \"@openzeppelin/contracts/utils/Address.sol\":4899:4972  (bool success, bytes memory returndata) = target.call{value: value}(data) */\n      swap2\n      pop\n      swap2\n      pop\n        /* \"@openzeppelin/contracts/utils/Address.sol\":4989:5041  _verifyCallResult(success, returndata, errorMessage) */\n      tag_478\n        /* \"@openzeppelin/contracts/utils/Address.sol\":5007:5014  success */\n      dup3\n        /* \"@openzeppelin/contracts/utils/Address.sol\":5016:5026  returndata */\n      dup3\n        /* \"@openzeppelin/contracts/utils/Address.sol\":5028:5040  errorMessage */\n      dup7\n        /* \"@openzeppelin/contracts/utils/Address.sol\":4989:5006  _verifyCallResult */\n      tag_479\n        /* \"@openzeppelin/contracts/utils/Address.sol\":4989:5041  _verifyCallResult(success, returndata, errorMessage) */\n      jump\t// in\n    tag_478:\n        /* \"@openzeppelin/contracts/utils/Address.sol\":4982:5041  return _verifyCallResult(success, returndata, errorMessage) */\n      swap3\n      pop\n      pop\n      pop\n        /* \"@openzeppelin/contracts/utils/Address.sol\":4548:5048  function functionCallWithValue(... */\n      swap5\n      swap4\n      pop\n      pop\n      pop\n      pop\n      jump\t// out\n        /* \"@openzeppelin/contracts/utils/Address.sol\":718:1095  function isContract(address account) internal view returns (bool) {... */\n    tag_470:\n        /* \"@openzeppelin/contracts/utils/Address.sol\":778:782  bool */\n      0x00\n        /* \"@openzeppelin/contracts/utils/Address.sol\":981:993  uint256 size */\n      dup1\n        /* \"@openzeppelin/contracts/utils/Address.sol\":1046:1053  account */\n      dup3\n        /* \"@openzeppelin/contracts/utils/Address.sol\":1034:1054  extcodesize(account) */\n      extcodesize\n        /* \"@openzeppelin/contracts/utils/Address.sol\":1026:1054  size := extcodesize(account) */\n      swap1\n      pop\n        /* \"@openzeppelin/contracts/utils/Address.sol\":1087:1088  0 */\n      0x00\n        /* \"@openzeppelin/contracts/utils/Address.sol\":1080:1084  size */\n      dup2\n        /* \"@openzeppelin/contracts/utils/Address.sol\":1080:1088  size > 0 */\n      gt\n        /* \"@openzeppelin/contracts/utils/Address.sol\":1073:1088  return size > 0 */\n      swap2\n      pop\n      pop\n        /* \"@openzeppelin/contracts/utils/Address.sol\":718:1095  function isContract(address account) internal view returns (bool) {... */\n      swap2\n      swap1\n      pop\n      jump\t// out\n        /* \"@openzeppelin/contracts/utils/Address.sol\":6950:7642  function _verifyCallResult(... */\n    tag_479:\n        /* \"@openzeppelin/contracts/utils/Address.sol\":7096:7108  bytes memory */\n      0x60\n        /* \"@openzeppelin/contracts/utils/Address.sol\":7124:7131  success */\n      dup4\n        /* \"@openzeppelin/contracts/utils/Address.sol\":7120:7636  if (success) {... */\n      iszero\n      tag_482\n      jumpi\n        /* \"@openzeppelin/contracts/utils/Address.sol\":7154:7164  returndata */\n      dup3\n        /* \"@openzeppelin/contracts/utils/Address.sol\":7147:7164  return returndata */\n      swap1\n      pop\n      jump(tag_481)\n        /* \"@openzeppelin/contracts/utils/Address.sol\":7120:7636  if (success) {... */\n    tag_482:\n        /* \"@openzeppelin/contracts/utils/Address.sol\":7285:7286  0 */\n      0x00\n        /* \"@openzeppelin/contracts/utils/Address.sol\":7265:7275  returndata */\n      dup4\n        /* \"@openzeppelin/contracts/utils/Address.sol\":7265:7282  returndata.length */\n      mload\n        /* \"@openzeppelin/contracts/utils/Address.sol\":7265:7286  returndata.length > 0 */\n      gt\n        /* \"@openzeppelin/contracts/utils/Address.sol\":7261:7626  if (returndata.length > 0) {... */\n      iszero\n      tag_484\n      jumpi\n        /* \"@openzeppelin/contracts/utils/Address.sol\":7459:7469  returndata */\n      dup3\n        /* \"@openzeppelin/contracts/utils/Address.sol\":7453:7470  mload(returndata) */\n      mload\n        /* \"@openzeppelin/contracts/utils/Address.sol\":7519:7534  returndata_size */\n      dup1\n        /* \"@openzeppelin/contracts/utils/Address.sol\":7506:7516  returndata */\n      dup5\n        /* \"@openzeppelin/contracts/utils/Address.sol\":7502:7504  32 */\n      0x20\n        /* \"@openzeppelin/contracts/utils/Address.sol\":7498:7517  add(32, returndata) */\n      add\n        /* \"@openzeppelin/contracts/utils/Address.sol\":7491:7535  revert(add(32, returndata), returndata_size) */\n      revert\n        /* \"@openzeppelin/contracts/utils/Address.sol\":7261:7626  if (returndata.length > 0) {... */\n    tag_484:\n        /* \"@openzeppelin/contracts/utils/Address.sol\":7598:7610  errorMessage */\n      dup2\n        /* \"@openzeppelin/contracts/utils/Address.sol\":7591:7611  revert(errorMessage) */\n      mload(0x40)\n      0x08c379a000000000000000000000000000000000000000000000000000000000\n      dup2\n      mstore\n      0x04\n      add\n      tag_486\n      swap2\n      swap1\n      tag_487\n      jump\t// in\n    tag_486:\n      mload(0x40)\n      dup1\n      swap2\n      sub\n      swap1\n      revert\n        /* \"@openzeppelin/contracts/utils/Address.sol\":6950:7642  function _verifyCallResult(... */\n    tag_481:\n      swap4\n      swap3\n      pop\n      pop\n      pop\n      jump\t// out\n        /* \"#utility.yul\":24:746   */\n    tag_489:\n        /* \"#utility.yul\":120:125   */\n      0x00\n        /* \"#utility.yul\":145:226   */\n      tag_491\n        /* \"#utility.yul\":161:225   */\n      tag_492\n        /* \"#utility.yul\":218:224   */\n      dup5\n        /* \"#utility.yul\":161:225   */\n      tag_493\n      jump\t// in\n    tag_492:\n        /* \"#utility.yul\":145:226   */\n      tag_494\n      jump\t// in\n    tag_491:\n        /* \"#utility.yul\":136:226   */\n      swap1\n      pop\n        /* \"#utility.yul\":246:251   */\n      dup1\n        /* \"#utility.yul\":275:281   */\n      dup4\n        /* \"#utility.yul\":268:273   */\n      dup3\n        /* \"#utility.yul\":261:282   */\n      mstore\n        /* \"#utility.yul\":309:313   */\n      0x20\n        /* \"#utility.yul\":302:307   */\n      dup3\n        /* \"#utility.yul\":298:314   */\n      add\n        /* \"#utility.yul\":291:314   */\n      swap1\n      pop\n        /* \"#utility.yul\":335:341   */\n      dup3\n        /* \"#utility.yul\":385:388   */\n      dup6\n        /* \"#utility.yul\":377:381   */\n      0x20\n        /* \"#utility.yul\":369:375   */\n      dup7\n        /* \"#utility.yul\":365:382   */\n      mul\n        /* \"#utility.yul\":360:363   */\n      dup3\n        /* \"#utility.yul\":356:383   */\n      add\n        /* \"#utility.yul\":353:389   */\n      gt\n        /* \"#utility.yul\":350:493   */\n      iszero\n      tag_495\n      jumpi\n        /* \"#utility.yul\":404:483   */\n      tag_496\n      tag_497\n      jump\t// in\n    tag_496:\n        /* \"#utility.yul\":350:493   */\n    tag_495:\n        /* \"#utility.yul\":517:518   */\n      0x00\n        /* \"#utility.yul\":502:740   */\n    tag_498:\n        /* \"#utility.yul\":527:533   */\n      dup6\n        /* \"#utility.yul\":524:525   */\n      dup2\n        /* \"#utility.yul\":521:534   */\n      lt\n        /* \"#utility.yul\":502:740   */\n      iszero\n      tag_500\n      jumpi\n        /* \"#utility.yul\":595:598   */\n      dup2\n        /* \"#utility.yul\":624:661   */\n      tag_501\n        /* \"#utility.yul\":657:660   */\n      dup9\n        /* \"#utility.yul\":645:655   */\n      dup3\n        /* \"#utility.yul\":624:661   */\n      tag_502\n      jump\t// in\n    tag_501:\n        /* \"#utility.yul\":619:622   */\n      dup5\n        /* \"#utility.yul\":612:662   */\n      mstore\n        /* \"#utility.yul\":691:695   */\n      0x20\n        /* \"#utility.yul\":686:689   */\n      dup5\n        /* \"#utility.yul\":682:696   */\n      add\n        /* \"#utility.yul\":675:696   */\n      swap4\n      pop\n        /* \"#utility.yul\":725:729   */\n      0x20\n        /* \"#utility.yul\":720:723   */\n      dup4\n        /* \"#utility.yul\":716:730   */\n      add\n        /* \"#utility.yul\":709:730   */\n      swap3\n      pop\n        /* \"#utility.yul\":562:740   */\n      pop\n        /* \"#utility.yul\":549:550   */\n      0x01\n        /* \"#utility.yul\":546:547   */\n      dup2\n        /* \"#utility.yul\":542:551   */\n      add\n        /* \"#utility.yul\":537:551   */\n      swap1\n      pop\n        /* \"#utility.yul\":502:740   */\n      jump(tag_498)\n    tag_500:\n        /* \"#utility.yul\":506:520   */\n      pop\n        /* \"#utility.yul\":126:746   */\n      pop\n      pop\n        /* \"#utility.yul\":24:746   */\n      swap4\n      swap3\n      pop\n      pop\n      pop\n      jump\t// out\n        /* \"#utility.yul\":769:1491   */\n    tag_503:\n        /* \"#utility.yul\":865:870   */\n      0x00\n        /* \"#utility.yul\":890:971   */\n      tag_505\n        /* \"#utility.yul\":906:970   */\n      tag_506\n        /* \"#utility.yul\":963:969   */\n      dup5\n        /* \"#utility.yul\":906:970   */\n      tag_507\n      jump\t// in\n    tag_506:\n        /* \"#utility.yul\":890:971   */\n      tag_494\n      jump\t// in\n    tag_505:\n        /* \"#utility.yul\":881:971   */\n      swap1\n      pop\n        /* \"#utility.yul\":991:996   */\n      dup1\n        /* \"#utility.yul\":1020:1026   */\n      dup4\n        /* \"#utility.yul\":1013:1018   */\n      dup3\n        /* \"#utility.yul\":1006:1027   */\n      mstore\n        /* \"#utility.yul\":1054:1058   */\n      0x20\n        /* \"#utility.yul\":1047:1052   */\n      dup3\n        /* \"#utility.yul\":1043:1059   */\n      add\n        /* \"#utility.yul\":1036:1059   */\n      swap1\n      pop\n        /* \"#utility.yul\":1080:1086   */\n      dup3\n        /* \"#utility.yul\":1130:1133   */\n      dup6\n        /* \"#utility.yul\":1122:1126   */\n      0x20\n        /* \"#utility.yul\":1114:1120   */\n      dup7\n        /* \"#utility.yul\":1110:1127   */\n      mul\n        /* \"#utility.yul\":1105:1108   */\n      dup3\n        /* \"#utility.yul\":1101:1128   */\n      add\n        /* \"#utility.yul\":1098:1134   */\n      gt\n        /* \"#utility.yul\":1095:1238   */\n      iszero\n      tag_508\n      jumpi\n        /* \"#utility.yul\":1149:1228   */\n      tag_509\n      tag_497\n      jump\t// in\n    tag_509:\n        /* \"#utility.yul\":1095:1238   */\n    tag_508:\n        /* \"#utility.yul\":1262:1263   */\n      0x00\n        /* \"#utility.yul\":1247:1485   */\n    tag_510:\n        /* \"#utility.yul\":1272:1278   */\n      dup6\n        /* \"#utility.yul\":1269:1270   */\n      dup2\n        /* \"#utility.yul\":1266:1279   */\n      lt\n        /* \"#utility.yul\":1247:1485   */\n      iszero\n      tag_512\n      jumpi\n        /* \"#utility.yul\":1340:1343   */\n      dup2\n        /* \"#utility.yul\":1369:1406   */\n      tag_513\n        /* \"#utility.yul\":1402:1405   */\n      dup9\n        /* \"#utility.yul\":1390:1400   */\n      dup3\n        /* \"#utility.yul\":1369:1406   */\n      tag_514\n      jump\t// in\n    tag_513:\n        /* \"#utility.yul\":1364:1367   */\n      dup5\n        /* \"#utility.yul\":1357:1407   */\n      mstore\n        /* \"#utility.yul\":1436:1440   */\n      0x20\n        /* \"#utility.yul\":1431:1434   */\n      dup5\n        /* \"#utility.yul\":1427:1441   */\n      add\n        /* \"#utility.yul\":1420:1441   */\n      swap4\n      pop\n        /* \"#utility.yul\":1470:1474   */\n      0x20\n        /* \"#utility.yul\":1465:1468   */\n      dup4\n        /* \"#utility.yul\":1461:1475   */\n      add\n        /* \"#utility.yul\":1454:1475   */\n      swap3\n      pop\n        /* \"#utility.yul\":1307:1485   */\n      pop\n        /* \"#utility.yul\":1294:1295   */\n      0x01\n        /* \"#utility.yul\":1291:1292   */\n      dup2\n        /* \"#utility.yul\":1287:1296   */\n      add\n        /* \"#utility.yul\":1282:1296   */\n      swap1\n      pop\n        /* \"#utility.yul\":1247:1485   */\n      jump(tag_510)\n    tag_512:\n        /* \"#utility.yul\":1251:1265   */\n      pop\n        /* \"#utility.yul\":871:1491   */\n      pop\n      pop\n        /* \"#utility.yul\":769:1491   */\n      swap4\n      swap3\n      pop\n      pop\n      pop\n      jump\t// out\n        /* \"#utility.yul\":1497:1636   */\n    tag_502:\n        /* \"#utility.yul\":1543:1548   */\n      0x00\n        /* \"#utility.yul\":1581:1587   */\n      dup2\n        /* \"#utility.yul\":1568:1588   */\n      calldataload\n        /* \"#utility.yul\":1559:1588   */\n      swap1\n      pop\n        /* \"#utility.yul\":1597:1630   */\n      tag_516\n        /* \"#utility.yul\":1624:1629   */\n      dup2\n        /* \"#utility.yul\":1597:1630   */\n      tag_517\n      jump\t// in\n    tag_516:\n        /* \"#utility.yul\":1497:1636   */\n      swap3\n      swap2\n      pop\n      pop\n      jump\t// out\n        /* \"#utility.yul\":1659:2029   */\n    tag_518:\n        /* \"#utility.yul\":1730:1735   */\n      0x00\n        /* \"#utility.yul\":1779:1782   */\n      dup3\n        /* \"#utility.yul\":1772:1776   */\n      0x1f\n        /* \"#utility.yul\":1764:1770   */\n      dup4\n        /* \"#utility.yul\":1760:1777   */\n      add\n        /* \"#utility.yul\":1756:1783   */\n      slt\n        /* \"#utility.yul\":1746:1868   */\n      tag_520\n      jumpi\n        /* \"#utility.yul\":1787:1866   */\n      tag_521\n      tag_522\n      jump\t// in\n    tag_521:\n        /* \"#utility.yul\":1746:1868   */\n    tag_520:\n        /* \"#utility.yul\":1904:1910   */\n      dup2\n        /* \"#utility.yul\":1891:1911   */\n      calldataload\n        /* \"#utility.yul\":1929:2023   */\n      tag_523\n        /* \"#utility.yul\":2019:2022   */\n      dup5\n        /* \"#utility.yul\":2011:2017   */\n      dup3\n        /* \"#utility.yul\":2004:2008   */\n      0x20\n        /* \"#utility.yul\":1996:2002   */\n      dup7\n        /* \"#utility.yul\":1992:2009   */\n      add\n        /* \"#utility.yul\":1929:2023   */\n      tag_489\n      jump\t// in\n    tag_523:\n        /* \"#utility.yul\":1920:2023   */\n      swap2\n      pop\n        /* \"#utility.yul\":1736:2029   */\n      pop\n        /* \"#utility.yul\":1659:2029   */\n      swap3\n      swap2\n      pop\n      pop\n      jump\t// out\n        /* \"#utility.yul\":2052:2422   */\n    tag_524:\n        /* \"#utility.yul\":2123:2128   */\n      0x00\n        /* \"#utility.yul\":2172:2175   */\n      dup3\n        /* \"#utility.yul\":2165:2169   */\n      0x1f\n        /* \"#utility.yul\":2157:2163   */\n      dup4\n        /* \"#utility.yul\":2153:2170   */\n      add\n        /* \"#utility.yul\":2149:2176   */\n      slt\n        /* \"#utility.yul\":2139:2261   */\n      tag_526\n      jumpi\n        /* \"#utility.yul\":2180:2259   */\n      tag_527\n      tag_522\n      jump\t// in\n    tag_527:\n        /* \"#utility.yul\":2139:2261   */\n    tag_526:\n        /* \"#utility.yul\":2297:2303   */\n      dup2\n        /* \"#utility.yul\":2284:2304   */\n      calldataload\n        /* \"#utility.yul\":2322:2416   */\n      tag_528\n        /* \"#utility.yul\":2412:2415   */\n      dup5\n        /* \"#utility.yul\":2404:2410   */\n      dup3\n        /* \"#utility.yul\":2397:2401   */\n      0x20\n        /* \"#utility.yul\":2389:2395   */\n      dup7\n        /* \"#utility.yul\":2385:2402   */\n      add\n        /* \"#utility.yul\":2322:2416   */\n      tag_503\n      jump\t// in\n    tag_528:\n        /* \"#utility.yul\":2313:2416   */\n      swap2\n      pop\n        /* \"#utility.yul\":2129:2422   */\n      pop\n        /* \"#utility.yul\":2052:2422   */\n      swap3\n      swap2\n      pop\n      pop\n      jump\t// out\n        /* \"#utility.yul\":2428:2565   */\n    tag_529:\n        /* \"#utility.yul\":2482:2487   */\n      0x00\n        /* \"#utility.yul\":2513:2519   */\n      dup2\n        /* \"#utility.yul\":2507:2520   */\n      mload\n        /* \"#utility.yul\":2498:2520   */\n      swap1\n      pop\n        /* \"#utility.yul\":2529:2559   */\n      tag_531\n        /* \"#utility.yul\":2553:2558   */\n      dup2\n        /* \"#utility.yul\":2529:2559   */\n      tag_532\n      jump\t// in\n    tag_531:\n        /* \"#utility.yul\":2428:2565   */\n      swap3\n      swap2\n      pop\n      pop\n      jump\t// out\n        /* \"#utility.yul\":2571:2738   */\n    tag_533:\n        /* \"#utility.yul\":2631:2636   */\n      0x00\n        /* \"#utility.yul\":2669:2675   */\n      dup2\n        /* \"#utility.yul\":2656:2676   */\n      calldataload\n        /* \"#utility.yul\":2647:2676   */\n      swap1\n      pop\n        /* \"#utility.yul\":2685:2732   */\n      tag_535\n        /* \"#utility.yul\":2726:2731   */\n      dup2\n        /* \"#utility.yul\":2685:2732   */\n      tag_536\n      jump\t// in\n    tag_535:\n        /* \"#utility.yul\":2571:2738   */\n      swap3\n      swap2\n      pop\n      pop\n      jump\t// out\n        /* \"#utility.yul\":2744:2883   */\n    tag_514:\n        /* \"#utility.yul\":2790:2795   */\n      0x00\n        /* \"#utility.yul\":2828:2834   */\n      dup2\n        /* \"#utility.yul\":2815:2835   */\n      calldataload\n        /* \"#utility.yul\":2806:2835   */\n      swap1\n      pop\n        /* \"#utility.yul\":2844:2877   */\n      tag_538\n        /* \"#utility.yul\":2871:2876   */\n      dup2\n        /* \"#utility.yul\":2844:2877   */\n      tag_539\n      jump\t// in\n    tag_538:\n        /* \"#utility.yul\":2744:2883   */\n      swap3\n      swap2\n      pop\n      pop\n      jump\t// out\n        /* \"#utility.yul\":2889:3032   */\n    tag_540:\n        /* \"#utility.yul\":2946:2951   */\n      0x00\n        /* \"#utility.yul\":2977:2983   */\n      dup2\n        /* \"#utility.yul\":2971:2984   */\n      mload\n        /* \"#utility.yul\":2962:2984   */\n      swap1\n      pop\n        /* \"#utility.yul\":2993:3026   */\n      tag_542\n        /* \"#utility.yul\":3020:3025   */\n      dup2\n        /* \"#utility.yul\":2993:3026   */\n      tag_539\n      jump\t// in\n    tag_542:\n        /* \"#utility.yul\":2889:3032   */\n      swap3\n      swap2\n      pop\n      pop\n      jump\t// out\n        /* \"#utility.yul\":3038:3367   */\n    tag_78:\n        /* \"#utility.yul\":3097:3103   */\n      0x00\n        /* \"#utility.yul\":3146:3148   */\n      0x20\n        /* \"#utility.yul\":3134:3143   */\n      dup3\n        /* \"#utility.yul\":3125:3132   */\n      dup5\n        /* \"#utility.yul\":3121:3144   */\n      sub\n        /* \"#utility.yul\":3117:3149   */\n      slt\n        /* \"#utility.yul\":3114:3233   */\n      iszero\n      tag_544\n      jumpi\n        /* \"#utility.yul\":3152:3231   */\n      tag_545\n      tag_546\n      jump\t// in\n    tag_545:\n        /* \"#utility.yul\":3114:3233   */\n    tag_544:\n        /* \"#utility.yul\":3272:3273   */\n      0x00\n        /* \"#utility.yul\":3297:3350   */\n      tag_547\n        /* \"#utility.yul\":3342:3349   */\n      dup5\n        /* \"#utility.yul\":3333:3339   */\n      dup3\n        /* \"#utility.yul\":3322:3331   */\n      dup6\n        /* \"#utility.yul\":3318:3340   */\n      add\n        /* \"#utility.yul\":3297:3350   */\n      tag_502\n      jump\t// in\n    tag_547:\n        /* \"#utility.yul\":3287:3350   */\n      swap2\n      pop\n        /* \"#utility.yul\":3243:3360   */\n      pop\n        /* \"#utility.yul\":3038:3367   */\n      swap3\n      swap2\n      pop\n      pop\n      jump\t// out\n        /* \"#utility.yul\":3373:3912   */\n    tag_122:\n        /* \"#utility.yul\":3457:3463   */\n      0x00\n        /* \"#utility.yul\":3506:3508   */\n      0x20\n        /* \"#utility.yul\":3494:3503   */\n      dup3\n        /* \"#utility.yul\":3485:3492   */\n      dup5\n        /* \"#utility.yul\":3481:3504   */\n      sub\n        /* \"#utility.yul\":3477:3509   */\n      slt\n        /* \"#utility.yul\":3474:3593   */\n      iszero\n      tag_549\n      jumpi\n        /* \"#utility.yul\":3512:3591   */\n      tag_550\n      tag_546\n      jump\t// in\n    tag_550:\n        /* \"#utility.yul\":3474:3593   */\n    tag_549:\n        /* \"#utility.yul\":3660:3661   */\n      0x00\n        /* \"#utility.yul\":3649:3658   */\n      dup3\n        /* \"#utility.yul\":3645:3662   */\n      add\n        /* \"#utility.yul\":3632:3663   */\n      calldataload\n        /* \"#utility.yul\":3690:3708   */\n      0xffffffffffffffff\n        /* \"#utility.yul\":3682:3688   */\n      dup2\n        /* \"#utility.yul\":3679:3709   */\n      gt\n        /* \"#utility.yul\":3676:3793   */\n      iszero\n      tag_551\n      jumpi\n        /* \"#utility.yul\":3712:3791   */\n      tag_552\n      tag_553\n      jump\t// in\n    tag_552:\n        /* \"#utility.yul\":3676:3793   */\n    tag_551:\n        /* \"#utility.yul\":3817:3895   */\n      tag_554\n        /* \"#utility.yul\":3887:3894   */\n      dup5\n        /* \"#utility.yul\":3878:3884   */\n      dup3\n        /* \"#utility.yul\":3867:3876   */\n      dup6\n        /* \"#utility.yul\":3863:3885   */\n      add\n        /* \"#utility.yul\":3817:3895   */\n      tag_518\n      jump\t// in\n    tag_554:\n        /* \"#utility.yul\":3807:3895   */\n      swap2\n      pop\n        /* \"#utility.yul\":3603:3905   */\n      pop\n        /* \"#utility.yul\":3373:3912   */\n      swap3\n      swap2\n      pop\n      pop\n      jump\t// out\n        /* \"#utility.yul\":3918:4812   */\n    tag_69:\n        /* \"#utility.yul\":4036:4042   */\n      0x00\n        /* \"#utility.yul\":4044:4050   */\n      dup1\n        /* \"#utility.yul\":4093:4095   */\n      0x40\n        /* \"#utility.yul\":4081:4090   */\n      dup4\n        /* \"#utility.yul\":4072:4079   */\n      dup6\n        /* \"#utility.yul\":4068:4091   */\n      sub\n        /* \"#utility.yul\":4064:4096   */\n      slt\n        /* \"#utility.yul\":4061:4180   */\n      iszero\n      tag_556\n      jumpi\n        /* \"#utility.yul\":4099:4178   */\n      tag_557\n      tag_546\n      jump\t// in\n    tag_557:\n        /* \"#utility.yul\":4061:4180   */\n    tag_556:\n        /* \"#utility.yul\":4247:4248   */\n      0x00\n        /* \"#utility.yul\":4236:4245   */\n      dup4\n        /* \"#utility.yul\":4232:4249   */\n      add\n        /* \"#utility.yul\":4219:4250   */\n      calldataload\n        /* \"#utility.yul\":4277:4295   */\n      0xffffffffffffffff\n        /* \"#utility.yul\":4269:4275   */\n      dup2\n        /* \"#utility.yul\":4266:4296   */\n      gt\n        /* \"#utility.yul\":4263:4380   */\n      iszero\n      tag_558\n      jumpi\n        /* \"#utility.yul\":4299:4378   */\n      tag_559\n      tag_553\n      jump\t// in\n    tag_559:\n        /* \"#utility.yul\":4263:4380   */\n    tag_558:\n        /* \"#utility.yul\":4404:4482   */\n      tag_560\n        /* \"#utility.yul\":4474:4481   */\n      dup6\n        /* \"#utility.yul\":4465:4471   */\n      dup3\n        /* \"#utility.yul\":4454:4463   */\n      dup7\n        /* \"#utility.yul\":4450:4472   */\n      add\n        /* \"#utility.yul\":4404:4482   */\n      tag_518\n      jump\t// in\n    tag_560:\n        /* \"#utility.yul\":4394:4482   */\n      swap3\n      pop\n        /* \"#utility.yul\":4190:4492   */\n      pop\n        /* \"#utility.yul\":4559:4561   */\n      0x20\n        /* \"#utility.yul\":4548:4557   */\n      dup4\n        /* \"#utility.yul\":4544:4562   */\n      add\n        /* \"#utility.yul\":4531:4563   */\n      calldataload\n        /* \"#utility.yul\":4590:4608   */\n      0xffffffffffffffff\n        /* \"#utility.yul\":4582:4588   */\n      dup2\n        /* \"#utility.yul\":4579:4609   */\n      gt\n        /* \"#utility.yul\":4576:4693   */\n      iszero\n      tag_561\n      jumpi\n        /* \"#utility.yul\":4612:4691   */\n      tag_562\n      tag_553\n      jump\t// in\n    tag_562:\n        /* \"#utility.yul\":4576:4693   */\n    tag_561:\n        /* \"#utility.yul\":4717:4795   */\n      tag_563\n        /* \"#utility.yul\":4787:4794   */\n      dup6\n        /* \"#utility.yul\":4778:4784   */\n      dup3\n        /* \"#utility.yul\":4767:4776   */\n      dup7\n        /* \"#utility.yul\":4763:4785   */\n      add\n        /* \"#utility.yul\":4717:4795   */\n      tag_524\n      jump\t// in\n    tag_563:\n        /* \"#utility.yul\":4707:4795   */\n      swap2\n      pop\n        /* \"#utility.yul\":4502:4805   */\n      pop\n        /* \"#utility.yul\":3918:4812   */\n      swap3\n      pop\n      swap3\n      swap1\n      pop\n      jump\t// out\n        /* \"#utility.yul\":4818:5163   */\n    tag_432:\n        /* \"#utility.yul\":4885:4891   */\n      0x00\n        /* \"#utility.yul\":4934:4936   */\n      0x20\n        /* \"#utility.yul\":4922:4931   */\n      dup3\n        /* \"#utility.yul\":4913:4920   */\n      dup5\n        /* \"#utility.yul\":4909:4932   */\n      sub\n        /* \"#utility.yul\":4905:4937   */\n      slt\n        /* \"#utility.yul\":4902:5021   */\n      iszero\n      tag_565\n      jumpi\n        /* \"#utility.yul\":4940:5019   */\n      tag_566\n      tag_546\n      jump\t// in\n    tag_566:\n        /* \"#utility.yul\":4902:5021   */\n    tag_565:\n        /* \"#utility.yul\":5060:5061   */\n      0x00\n        /* \"#utility.yul\":5085:5146   */\n      tag_567\n        /* \"#utility.yul\":5138:5145   */\n      dup5\n        /* \"#utility.yul\":5129:5135   */\n      dup3\n        /* \"#utility.yul\":5118:5127   */\n      dup6\n        /* \"#utility.yul\":5114:5136   */\n      add\n        /* \"#utility.yul\":5085:5146   */\n      tag_529\n      jump\t// in\n    tag_567:\n        /* \"#utility.yul\":5075:5146   */\n      swap2\n      pop\n        /* \"#utility.yul\":5031:5156   */\n      pop\n        /* \"#utility.yul\":4818:5163   */\n      swap3\n      swap2\n      pop\n      pop\n      jump\t// out\n        /* \"#utility.yul\":5169:5526   */\n    tag_172:\n        /* \"#utility.yul\":5242:5248   */\n      0x00\n        /* \"#utility.yul\":5291:5293   */\n      0x20\n        /* \"#utility.yul\":5279:5288   */\n      dup3\n        /* \"#utility.yul\":5270:5277   */\n      dup5\n        /* \"#utility.yul\":5266:5289   */\n      sub\n        /* \"#utility.yul\":5262:5294   */\n      slt\n        /* \"#utility.yul\":5259:5378   */\n      iszero\n      tag_569\n      jumpi\n        /* \"#utility.yul\":5297:5376   */\n      tag_570\n      tag_546\n      jump\t// in\n    tag_570:\n        /* \"#utility.yul\":5259:5378   */\n    tag_569:\n        /* \"#utility.yul\":5417:5418   */\n      0x00\n        /* \"#utility.yul\":5442:5509   */\n      tag_571\n        /* \"#utility.yul\":5501:5508   */\n      dup5\n        /* \"#utility.yul\":5492:5498   */\n      dup3\n        /* \"#utility.yul\":5481:5490   */\n      dup6\n        /* \"#utility.yul\":5477:5499   */\n      add\n        /* \"#utility.yul\":5442:5509   */\n      tag_533\n      jump\t// in\n    tag_571:\n        /* \"#utility.yul\":5432:5509   */\n      swap2\n      pop\n        /* \"#utility.yul\":5388:5519   */\n      pop\n        /* \"#utility.yul\":5169:5526   */\n      swap3\n      swap2\n      pop\n      pop\n      jump\t// out\n        /* \"#utility.yul\":5532:5861   */\n    tag_43:\n        /* \"#utility.yul\":5591:5597   */\n      0x00\n        /* \"#utility.yul\":5640:5642   */\n      0x20\n        /* \"#utility.yul\":5628:5637   */\n      dup3\n        /* \"#utility.yul\":5619:5626   */\n      dup5\n        /* \"#utility.yul\":5615:5638   */\n      sub\n        /* \"#utility.yul\":5611:5643   */\n      slt\n        /* \"#utility.yul\":5608:5727   */\n      iszero\n      tag_573\n      jumpi\n        /* \"#utility.yul\":5646:5725   */\n      tag_574\n      tag_546\n      jump\t// in\n    tag_574:\n        /* \"#utility.yul\":5608:5727   */\n    tag_573:\n        /* \"#utility.yul\":5766:5767   */\n      0x00\n        /* \"#utility.yul\":5791:5844   */\n      tag_575\n        /* \"#utility.yul\":5836:5843   */\n      dup5\n        /* \"#utility.yul\":5827:5833   */\n      dup3\n        /* \"#utility.yul\":5816:5825   */\n      dup6\n        /* \"#utility.yul\":5812:5834   */\n      add\n        /* \"#utility.yul\":5791:5844   */\n      tag_514\n      jump\t// in\n    tag_575:\n        /* \"#utility.yul\":5781:5844   */\n      swap2\n      pop\n        /* \"#utility.yul\":5737:5854   */\n      pop\n        /* \"#utility.yul\":5532:5861   */\n      swap3\n      swap2\n      pop\n      pop\n      jump\t// out\n        /* \"#utility.yul\":5867:6218   */\n    tag_196:\n        /* \"#utility.yul\":5937:5943   */\n      0x00\n        /* \"#utility.yul\":5986:5988   */\n      0x20\n        /* \"#utility.yul\":5974:5983   */\n      dup3\n        /* \"#utility.yul\":5965:5972   */\n      dup5\n        /* \"#utility.yul\":5961:5984   */\n      sub\n        /* \"#utility.yul\":5957:5989   */\n      slt\n        /* \"#utility.yul\":5954:6073   */\n      iszero\n      tag_577\n      jumpi\n        /* \"#utility.yul\":5992:6071   */\n      tag_578\n      tag_546\n      jump\t// in\n    tag_578:\n        /* \"#utility.yul\":5954:6073   */\n    tag_577:\n        /* \"#utility.yul\":6112:6113   */\n      0x00\n        /* \"#utility.yul\":6137:6201   */\n      tag_579\n        /* \"#utility.yul\":6193:6200   */\n      dup5\n        /* \"#utility.yul\":6184:6190   */\n      dup3\n        /* \"#utility.yul\":6173:6182   */\n      dup6\n        /* \"#utility.yul\":6169:6191   */\n      add\n        /* \"#utility.yul\":6137:6201   */\n      tag_540\n      jump\t// in\n    tag_579:\n        /* \"#utility.yul\":6127:6201   */\n      swap2\n      pop\n        /* \"#utility.yul\":6083:6211   */\n      pop\n        /* \"#utility.yul\":5867:6218   */\n      swap3\n      swap2\n      pop\n      pop\n      jump\t// out\n        /* \"#utility.yul\":6224:6342   */\n    tag_580:\n        /* \"#utility.yul\":6311:6335   */\n      tag_582\n        /* \"#utility.yul\":6329:6334   */\n      dup2\n        /* \"#utility.yul\":6311:6335   */\n      tag_583\n      jump\t// in\n    tag_582:\n        /* \"#utility.yul\":6306:6309   */\n      dup3\n        /* \"#utility.yul\":6299:6336   */\n      mstore\n        /* \"#utility.yul\":6224:6342   */\n      pop\n      pop\n      jump\t// out\n        /* \"#utility.yul\":6348:6457   */\n    tag_584:\n        /* \"#utility.yul\":6429:6450   */\n      tag_586\n        /* \"#utility.yul\":6444:6449   */\n      dup2\n        /* \"#utility.yul\":6429:6450   */\n      tag_587\n      jump\t// in\n    tag_586:\n        /* \"#utility.yul\":6424:6427   */\n      dup3\n        /* \"#utility.yul\":6417:6451   */\n      mstore\n        /* \"#utility.yul\":6348:6457   */\n      pop\n      pop\n      jump\t// out\n        /* \"#utility.yul\":6463:6836   */\n    tag_588:\n        /* \"#utility.yul\":6567:6570   */\n      0x00\n        /* \"#utility.yul\":6595:6633   */\n      tag_590\n        /* \"#utility.yul\":6627:6632   */\n      dup3\n        /* \"#utility.yul\":6595:6633   */\n      tag_591\n      jump\t// in\n    tag_590:\n        /* \"#utility.yul\":6649:6737   */\n      tag_592\n        /* \"#utility.yul\":6730:6736   */\n      dup2\n        /* \"#utility.yul\":6725:6728   */\n      dup6\n        /* \"#utility.yul\":6649:6737   */\n      tag_593\n      jump\t// in\n    tag_592:\n        /* \"#utility.yul\":6642:6737   */\n      swap4\n      pop\n        /* \"#utility.yul\":6746:6798   */\n      tag_594\n        /* \"#utility.yul\":6791:6797   */\n      dup2\n        /* \"#utility.yul\":6786:6789   */\n      dup6\n        /* \"#utility.yul\":6779:6783   */\n      0x20\n        /* \"#utility.yul\":6772:6777   */\n      dup7\n        /* \"#utility.yul\":6768:6784   */\n      add\n        /* \"#utility.yul\":6746:6798   */\n      tag_595\n      jump\t// in\n    tag_594:\n        /* \"#utility.yul\":6823:6829   */\n      dup1\n        /* \"#utility.yul\":6818:6821   */\n      dup5\n        /* \"#utility.yul\":6814:6830   */\n      add\n        /* \"#utility.yul\":6807:6830   */\n      swap2\n      pop\n        /* \"#utility.yul\":6571:6836   */\n      pop\n        /* \"#utility.yul\":6463:6836   */\n      swap3\n      swap2\n      pop\n      pop\n      jump\t// out\n        /* \"#utility.yul\":6842:7001   */\n    tag_596:\n        /* \"#utility.yul\":6943:6994   */\n      tag_598\n        /* \"#utility.yul\":6988:6993   */\n      dup2\n        /* \"#utility.yul\":6943:6994   */\n      tag_599\n      jump\t// in\n    tag_598:\n        /* \"#utility.yul\":6938:6941   */\n      dup3\n        /* \"#utility.yul\":6931:6995   */\n      mstore\n        /* \"#utility.yul\":6842:7001   */\n      pop\n      pop\n      jump\t// out\n        /* \"#utility.yul\":7007:7371   */\n    tag_600:\n        /* \"#utility.yul\":7095:7098   */\n      0x00\n        /* \"#utility.yul\":7123:7162   */\n      tag_602\n        /* \"#utility.yul\":7156:7161   */\n      dup3\n        /* \"#utility.yul\":7123:7162   */\n      tag_603\n      jump\t// in\n    tag_602:\n        /* \"#utility.yul\":7178:7249   */\n      tag_604\n        /* \"#utility.yul\":7242:7248   */\n      dup2\n        /* \"#utility.yul\":7237:7240   */\n      dup6\n        /* \"#utility.yul\":7178:7249   */\n      tag_605\n      jump\t// in\n    tag_604:\n        /* \"#utility.yul\":7171:7249   */\n      swap4\n      pop\n        /* \"#utility.yul\":7258:7310   */\n      tag_606\n        /* \"#utility.yul\":7303:7309   */\n      dup2\n        /* \"#utility.yul\":7298:7301   */\n      dup6\n        /* \"#utility.yul\":7291:7295   */\n      0x20\n        /* \"#utility.yul\":7284:7289   */\n      dup7\n        /* \"#utility.yul\":7280:7296   */\n      add\n        /* \"#utility.yul\":7258:7310   */\n      tag_595\n      jump\t// in\n    tag_606:\n        /* \"#utility.yul\":7335:7364   */\n      tag_607\n        /* \"#utility.yul\":7357:7363   */\n      dup2\n        /* \"#utility.yul\":7335:7364   */\n      tag_608\n      jump\t// in\n    tag_607:\n        /* \"#utility.yul\":7330:7333   */\n      dup5\n        /* \"#utility.yul\":7326:7365   */\n      add\n        /* \"#utility.yul\":7319:7365   */\n      swap2\n      pop\n        /* \"#utility.yul\":7099:7371   */\n      pop\n        /* \"#utility.yul\":7007:7371   */\n      swap3\n      swap2\n      pop\n      pop\n      jump\t// out\n        /* \"#utility.yul\":7377:7743   */\n    tag_609:\n        /* \"#utility.yul\":7519:7522   */\n      0x00\n        /* \"#utility.yul\":7540:7607   */\n      tag_611\n        /* \"#utility.yul\":7604:7606   */\n      0x35\n        /* \"#utility.yul\":7599:7602   */\n      dup4\n        /* \"#utility.yul\":7540:7607   */\n      tag_605\n      jump\t// in\n    tag_611:\n        /* \"#utility.yul\":7533:7607   */\n      swap2\n      pop\n        /* \"#utility.yul\":7616:7709   */\n      tag_612\n        /* \"#utility.yul\":7705:7708   */\n      dup3\n        /* \"#utility.yul\":7616:7709   */\n      tag_613\n      jump\t// in\n    tag_612:\n        /* \"#utility.yul\":7734:7736   */\n      0x40\n        /* \"#utility.yul\":7729:7732   */\n      dup3\n        /* \"#utility.yul\":7725:7737   */\n      add\n        /* \"#utility.yul\":7718:7737   */\n      swap1\n      pop\n        /* \"#utility.yul\":7377:7743   */\n      swap2\n      swap1\n      pop\n      jump\t// out\n        /* \"#utility.yul\":7749:8115   */\n    tag_614:\n        /* \"#utility.yul\":7891:7894   */\n      0x00\n        /* \"#utility.yul\":7912:7979   */\n      tag_616\n        /* \"#utility.yul\":7976:7978   */\n      0x26\n        /* \"#utility.yul\":7971:7974   */\n      dup4\n        /* \"#utility.yul\":7912:7979   */\n      tag_605\n      jump\t// in\n    tag_616:\n        /* \"#utility.yul\":7905:7979   */\n      swap2\n      pop\n        /* \"#utility.yul\":7988:8081   */\n      tag_617\n        /* \"#utility.yul\":8077:8080   */\n      dup3\n        /* \"#utility.yul\":7988:8081   */\n      tag_618\n      jump\t// in\n    tag_617:\n        /* \"#utility.yul\":8106:8108   */\n      0x40\n        /* \"#utility.yul\":8101:8104   */\n      dup3\n        /* \"#utility.yul\":8097:8109   */\n      add\n        /* \"#utility.yul\":8090:8109   */\n      swap1\n      pop\n        /* \"#utility.yul\":7749:8115   */\n      swap2\n      swap1\n      pop\n      jump\t// out\n        /* \"#utility.yul\":8121:8487   */\n    tag_619:\n        /* \"#utility.yul\":8263:8266   */\n      0x00\n        /* \"#utility.yul\":8284:8351   */\n      tag_621\n        /* \"#utility.yul\":8348:8350   */\n      0x39\n        /* \"#utility.yul\":8343:8346   */\n      dup4\n        /* \"#utility.yul\":8284:8351   */\n      tag_605\n      jump\t// in\n    tag_621:\n        /* \"#utility.yul\":8277:8351   */\n      swap2\n      pop\n        /* \"#utility.yul\":8360:8453   */\n      tag_622\n        /* \"#utility.yul\":8449:8452   */\n      dup3\n        /* \"#utility.yul\":8360:8453   */\n      tag_623\n      jump\t// in\n    tag_622:\n        /* \"#utility.yul\":8478:8480   */\n      0x40\n        /* \"#utility.yul\":8473:8476   */\n      dup3\n        /* \"#utility.yul\":8469:8481   */\n      add\n        /* \"#utility.yul\":8462:8481   */\n      swap1\n      pop\n        /* \"#utility.yul\":8121:8487   */\n      swap2\n      swap1\n      pop\n      jump\t// out\n        /* \"#utility.yul\":8493:8859   */\n    tag_624:\n        /* \"#utility.yul\":8635:8638   */\n      0x00\n        /* \"#utility.yul\":8656:8723   */\n      tag_626\n        /* \"#utility.yul\":8720:8722   */\n      0x34\n        /* \"#utility.yul\":8715:8718   */\n      dup4\n        /* \"#utility.yul\":8656:8723   */\n      tag_605\n      jump\t// in\n    tag_626:\n        /* \"#utility.yul\":8649:8723   */\n      swap2\n      pop\n        /* \"#utility.yul\":8732:8825   */\n      tag_627\n        /* \"#utility.yul\":8821:8824   */\n      dup3\n        /* \"#utility.yul\":8732:8825   */\n      tag_628\n      jump\t// in\n    tag_627:\n        /* \"#utility.yul\":8850:8852   */\n      0x40\n        /* \"#utility.yul\":8845:8848   */\n      dup3\n        /* \"#utility.yul\":8841:8853   */\n      add\n        /* \"#utility.yul\":8834:8853   */\n      swap1\n      pop\n        /* \"#utility.yul\":8493:8859   */\n      swap2\n      swap1\n      pop\n      jump\t// out\n        /* \"#utility.yul\":8865:9231   */\n    tag_629:\n        /* \"#utility.yul\":9007:9010   */\n      0x00\n        /* \"#utility.yul\":9028:9095   */\n      tag_631\n        /* \"#utility.yul\":9092:9094   */\n      0x29\n        /* \"#utility.yul\":9087:9090   */\n      dup4\n        /* \"#utility.yul\":9028:9095   */\n      tag_605\n      jump\t// in\n    tag_631:\n        /* \"#utility.yul\":9021:9095   */\n      swap2\n      pop\n        /* \"#utility.yul\":9104:9197   */\n      tag_632\n        /* \"#utility.yul\":9193:9196   */\n      dup3\n        /* \"#utility.yul\":9104:9197   */\n      tag_633\n      jump\t// in\n    tag_632:\n        /* \"#utility.yul\":9222:9224   */\n      0x40\n        /* \"#utility.yul\":9217:9220   */\n      dup3\n        /* \"#utility.yul\":9213:9225   */\n      add\n        /* \"#utility.yul\":9206:9225   */\n      swap1\n      pop\n        /* \"#utility.yul\":8865:9231   */\n      swap2\n      swap1\n      pop\n      jump\t// out\n        /* \"#utility.yul\":9237:9603   */\n    tag_634:\n        /* \"#utility.yul\":9379:9382   */\n      0x00\n        /* \"#utility.yul\":9400:9467   */\n      tag_636\n        /* \"#utility.yul\":9464:9466   */\n      0x3c\n        /* \"#utility.yul\":9459:9462   */\n      dup4\n        /* \"#utility.yul\":9400:9467   */\n      tag_605\n      jump\t// in\n    tag_636:\n        /* \"#utility.yul\":9393:9467   */\n      swap2\n      pop\n        /* \"#utility.yul\":9476:9569   */\n      tag_637\n        /* \"#utility.yul\":9565:9568   */\n      dup3\n        /* \"#utility.yul\":9476:9569   */\n      tag_638\n      jump\t// in\n    tag_637:\n        /* \"#utility.yul\":9594:9596   */\n      0x40\n        /* \"#utility.yul\":9589:9592   */\n      dup3\n        /* \"#utility.yul\":9585:9597   */\n      add\n        /* \"#utility.yul\":9578:9597   */\n      swap1\n      pop\n        /* \"#utility.yul\":9237:9603   */\n      swap2\n      swap1\n      pop\n      jump\t// out\n        /* \"#utility.yul\":9609:9975   */\n    tag_639:\n        /* \"#utility.yul\":9751:9754   */\n      0x00\n        /* \"#utility.yul\":9772:9839   */\n      tag_641\n        /* \"#utility.yul\":9836:9838   */\n      0x26\n        /* \"#utility.yul\":9831:9834   */\n      dup4\n        /* \"#utility.yul\":9772:9839   */\n      tag_605\n      jump\t// in\n    tag_641:\n        /* \"#utility.yul\":9765:9839   */\n      swap2\n      pop\n        /* \"#utility.yul\":9848:9941   */\n      tag_642\n        /* \"#utility.yul\":9937:9940   */\n      dup3\n        /* \"#utility.yul\":9848:9941   */\n      tag_643\n      jump\t// in\n    tag_642:\n        /* \"#utility.yul\":9966:9968   */\n      0x40\n        /* \"#utility.yul\":9961:9964   */\n      dup3\n        /* \"#utility.yul\":9957:9969   */\n      add\n        /* \"#utility.yul\":9950:9969   */\n      swap1\n      pop\n        /* \"#utility.yul\":9609:9975   */\n      swap2\n      swap1\n      pop\n      jump\t// out\n        /* \"#utility.yul\":9981:10347   */\n    tag_644:\n        /* \"#utility.yul\":10123:10126   */\n      0x00\n        /* \"#utility.yul\":10144:10211   */\n      tag_646\n        /* \"#utility.yul\":10208:10210   */\n      0x31\n        /* \"#utility.yul\":10203:10206   */\n      dup4\n        /* \"#utility.yul\":10144:10211   */\n      tag_605\n      jump\t// in\n    tag_646:\n        /* \"#utility.yul\":10137:10211   */\n      swap2\n      pop\n        /* \"#utility.yul\":10220:10313   */\n      tag_647\n        /* \"#utility.yul\":10309:10312   */\n      dup3\n        /* \"#utility.yul\":10220:10313   */\n      tag_648\n      jump\t// in\n    tag_647:\n        /* \"#utility.yul\":10338:10340   */\n      0x40\n        /* \"#utility.yul\":10333:10336   */\n      dup3\n        /* \"#utility.yul\":10329:10341   */\n      add\n        /* \"#utility.yul\":10322:10341   */\n      swap1\n      pop\n        /* \"#utility.yul\":9981:10347   */\n      swap2\n      swap1\n      pop\n      jump\t// out\n        /* \"#utility.yul\":10353:10719   */\n    tag_649:\n        /* \"#utility.yul\":10495:10498   */\n      0x00\n        /* \"#utility.yul\":10516:10583   */\n      tag_651\n        /* \"#utility.yul\":10580:10582   */\n      0x48\n        /* \"#utility.yul\":10575:10578   */\n      dup4\n        /* \"#utility.yul\":10516:10583   */\n      tag_605\n      jump\t// in\n    tag_651:\n        /* \"#utility.yul\":10509:10583   */\n      swap2\n      pop\n        /* \"#utility.yul\":10592:10685   */\n      tag_652\n        /* \"#utility.yul\":10681:10684   */\n      dup3\n        /* \"#utility.yul\":10592:10685   */\n      tag_653\n      jump\t// in\n    tag_652:\n        /* \"#utility.yul\":10710:10712   */\n      0x60\n        /* \"#utility.yul\":10705:10708   */\n      dup3\n        /* \"#utility.yul\":10701:10713   */\n      add\n        /* \"#utility.yul\":10694:10713   */\n      swap1\n      pop\n        /* \"#utility.yul\":10353:10719   */\n      swap2\n      swap1\n      pop\n      jump\t// out\n        /* \"#utility.yul\":10725:11091   */\n    tag_654:\n        /* \"#utility.yul\":10867:10870   */\n      0x00\n        /* \"#utility.yul\":10888:10955   */\n      tag_656\n        /* \"#utility.yul\":10952:10954   */\n      0x46\n        /* \"#utility.yul\":10947:10950   */\n      dup4\n        /* \"#utility.yul\":10888:10955   */\n      tag_605\n      jump\t// in\n    tag_656:\n        /* \"#utility.yul\":10881:10955   */\n      swap2\n      pop\n        /* \"#utility.yul\":10964:11057   */\n      tag_657\n        /* \"#utility.yul\":11053:11056   */\n      dup3\n        /* \"#utility.yul\":10964:11057   */\n      tag_658\n      jump\t// in\n    tag_657:\n        /* \"#utility.yul\":11082:11084   */\n      0x60\n        /* \"#utility.yul\":11077:11080   */\n      dup3\n        /* \"#utility.yul\":11073:11085   */\n      add\n        /* \"#utility.yul\":11066:11085   */\n      swap1\n      pop\n        /* \"#utility.yul\":10725:11091   */\n      swap2\n      swap1\n      pop\n      jump\t// out\n        /* \"#utility.yul\":11097:11463   */\n    tag_659:\n        /* \"#utility.yul\":11239:11242   */\n      0x00\n        /* \"#utility.yul\":11260:11327   */\n      tag_661\n        /* \"#utility.yul\":11324:11326   */\n      0x5d\n        /* \"#utility.yul\":11319:11322   */\n      dup4\n        /* \"#utility.yul\":11260:11327   */\n      tag_605\n      jump\t// in\n    tag_661:\n        /* \"#utility.yul\":11253:11327   */\n      swap2\n      pop\n        /* \"#utility.yul\":11336:11429   */\n      tag_662\n        /* \"#utility.yul\":11425:11428   */\n      dup3\n        /* \"#utility.yul\":11336:11429   */\n      tag_663\n      jump\t// in\n    tag_662:\n        /* \"#utility.yul\":11454:11456   */\n      0x60\n        /* \"#utility.yul\":11449:11452   */\n      dup3\n        /* \"#utility.yul\":11445:11457   */\n      add\n        /* \"#utility.yul\":11438:11457   */\n      swap1\n      pop\n        /* \"#utility.yul\":11097:11463   */\n      swap2\n      swap1\n      pop\n      jump\t// out\n        /* \"#utility.yul\":11469:11837   */\n    tag_664:\n        /* \"#utility.yul\":11611:11614   */\n      0x00\n        /* \"#utility.yul\":11632:11700   */\n      tag_666\n        /* \"#utility.yul\":11696:11699   */\n      0x77\n        /* \"#utility.yul\":11691:11694   */\n      dup4\n        /* \"#utility.yul\":11632:11700   */\n      tag_605\n      jump\t// in\n    tag_666:\n        /* \"#utility.yul\":11625:11700   */\n      swap2\n      pop\n        /* \"#utility.yul\":11709:11802   */\n      tag_667\n        /* \"#utility.yul\":11798:11801   */\n      dup3\n        /* \"#utility.yul\":11709:11802   */\n      tag_668\n      jump\t// in\n    tag_667:\n        /* \"#utility.yul\":11827:11830   */\n      0x80\n        /* \"#utility.yul\":11822:11825   */\n      dup3\n        /* \"#utility.yul\":11818:11831   */\n      add\n        /* \"#utility.yul\":11811:11831   */\n      swap1\n      pop\n        /* \"#utility.yul\":11469:11837   */\n      swap2\n      swap1\n      pop\n      jump\t// out\n        /* \"#utility.yul\":11843:12209   */\n    tag_669:\n        /* \"#utility.yul\":11985:11988   */\n      0x00\n        /* \"#utility.yul\":12006:12073   */\n      tag_671\n        /* \"#utility.yul\":12070:12072   */\n      0x20\n        /* \"#utility.yul\":12065:12068   */\n      dup4\n        /* \"#utility.yul\":12006:12073   */\n      tag_605\n      jump\t// in\n    tag_671:\n        /* \"#utility.yul\":11999:12073   */\n      swap2\n      pop\n        /* \"#utility.yul\":12082:12175   */\n      tag_672\n        /* \"#utility.yul\":12171:12174   */\n      dup3\n        /* \"#utility.yul\":12082:12175   */\n      tag_673\n      jump\t// in\n    tag_672:\n        /* \"#utility.yul\":12200:12202   */\n      0x20\n        /* \"#utility.yul\":12195:12198   */\n      dup3\n        /* \"#utility.yul\":12191:12203   */\n      add\n        /* \"#utility.yul\":12184:12203   */\n      swap1\n      pop\n        /* \"#utility.yul\":11843:12209   */\n      swap2\n      swap1\n      pop\n      jump\t// out\n        /* \"#utility.yul\":12215:12581   */\n    tag_674:\n        /* \"#utility.yul\":12357:12360   */\n      0x00\n        /* \"#utility.yul\":12378:12445   */\n      tag_676\n        /* \"#utility.yul\":12442:12444   */\n      0x35\n        /* \"#utility.yul\":12437:12440   */\n      dup4\n        /* \"#utility.yul\":12378:12445   */\n      tag_605\n      jump\t// in\n    tag_676:\n        /* \"#utility.yul\":12371:12445   */\n      swap2\n      pop\n        /* \"#utility.yul\":12454:12547   */\n      tag_677\n        /* \"#utility.yul\":12543:12546   */\n      dup3\n        /* \"#utility.yul\":12454:12547   */\n      tag_678\n      jump\t// in\n    tag_677:\n        /* \"#utility.yul\":12572:12574   */\n      0x40\n        /* \"#utility.yul\":12567:12570   */\n      dup3\n        /* \"#utility.yul\":12563:12575   */\n      add\n        /* \"#utility.yul\":12556:12575   */\n      swap1\n      pop\n        /* \"#utility.yul\":12215:12581   */\n      swap2\n      swap1\n      pop\n      jump\t// out\n        /* \"#utility.yul\":12587:12953   */\n    tag_679:\n        /* \"#utility.yul\":12729:12732   */\n      0x00\n        /* \"#utility.yul\":12750:12817   */\n      tag_681\n        /* \"#utility.yul\":12814:12816   */\n      0x1d\n        /* \"#utility.yul\":12809:12812   */\n      dup4\n        /* \"#utility.yul\":12750:12817   */\n      tag_605\n      jump\t// in\n    tag_681:\n        /* \"#utility.yul\":12743:12817   */\n      swap2\n      pop\n        /* \"#utility.yul\":12826:12919   */\n      tag_682\n        /* \"#utility.yul\":12915:12918   */\n      dup3\n        /* \"#utility.yul\":12826:12919   */\n      tag_683\n      jump\t// in\n    tag_682:\n        /* \"#utility.yul\":12944:12946   */\n      0x20\n        /* \"#utility.yul\":12939:12942   */\n      dup3\n        /* \"#utility.yul\":12935:12947   */\n      add\n        /* \"#utility.yul\":12928:12947   */\n      swap1\n      pop\n        /* \"#utility.yul\":12587:12953   */\n      swap2\n      swap1\n      pop\n      jump\t// out\n        /* \"#utility.yul\":12959:13325   */\n    tag_684:\n        /* \"#utility.yul\":13101:13104   */\n      0x00\n        /* \"#utility.yul\":13122:13189   */\n      tag_686\n        /* \"#utility.yul\":13186:13188   */\n      0x23\n        /* \"#utility.yul\":13181:13184   */\n      dup4\n        /* \"#utility.yul\":13122:13189   */\n      tag_605\n      jump\t// in\n    tag_686:\n        /* \"#utility.yul\":13115:13189   */\n      swap2\n      pop\n        /* \"#utility.yul\":13198:13291   */\n      tag_687\n        /* \"#utility.yul\":13287:13290   */\n      dup3\n        /* \"#utility.yul\":13198:13291   */\n      tag_688\n      jump\t// in\n    tag_687:\n        /* \"#utility.yul\":13316:13318   */\n      0x40\n        /* \"#utility.yul\":13311:13314   */\n      dup3\n        /* \"#utility.yul\":13307:13319   */\n      add\n        /* \"#utility.yul\":13300:13319   */\n      swap1\n      pop\n        /* \"#utility.yul\":12959:13325   */\n      swap2\n      swap1\n      pop\n      jump\t// out\n        /* \"#utility.yul\":13331:13697   */\n    tag_689:\n        /* \"#utility.yul\":13473:13476   */\n      0x00\n        /* \"#utility.yul\":13494:13561   */\n      tag_691\n        /* \"#utility.yul\":13558:13560   */\n      0x2d\n        /* \"#utility.yul\":13553:13556   */\n      dup4\n        /* \"#utility.yul\":13494:13561   */\n      tag_605\n      jump\t// in\n    tag_691:\n        /* \"#utility.yul\":13487:13561   */\n      swap2\n      pop\n        /* \"#utility.yul\":13570:13663   */\n      tag_692\n        /* \"#utility.yul\":13659:13662   */\n      dup3\n        /* \"#utility.yul\":13570:13663   */\n      tag_693\n      jump\t// in\n    tag_692:\n        /* \"#utility.yul\":13688:13690   */\n      0x40\n        /* \"#utility.yul\":13683:13686   */\n      dup3\n        /* \"#utility.yul\":13679:13691   */\n      add\n        /* \"#utility.yul\":13672:13691   */\n      swap1\n      pop\n        /* \"#utility.yul\":13331:13697   */\n      swap2\n      swap1\n      pop\n      jump\t// out\n        /* \"#utility.yul\":13703:14069   */\n    tag_694:\n        /* \"#utility.yul\":13845:13848   */\n      0x00\n        /* \"#utility.yul\":13866:13933   */\n      tag_696\n        /* \"#utility.yul\":13930:13932   */\n      0x2a\n        /* \"#utility.yul\":13925:13928   */\n      dup4\n        /* \"#utility.yul\":13866:13933   */\n      tag_605\n      jump\t// in\n    tag_696:\n        /* \"#utility.yul\":13859:13933   */\n      swap2\n      pop\n        /* \"#utility.yul\":13942:14035   */\n      tag_697\n        /* \"#utility.yul\":14031:14034   */\n      dup3\n        /* \"#utility.yul\":13942:14035   */\n      tag_698\n      jump\t// in\n    tag_697:\n        /* \"#utility.yul\":14060:14062   */\n      0x40\n        /* \"#utility.yul\":14055:14058   */\n      dup3\n        /* \"#utility.yul\":14051:14063   */\n      add\n        /* \"#utility.yul\":14044:14063   */\n      swap1\n      pop\n        /* \"#utility.yul\":13703:14069   */\n      swap2\n      swap1\n      pop\n      jump\t// out\n        /* \"#utility.yul\":14075:14441   */\n    tag_699:\n        /* \"#utility.yul\":14217:14220   */\n      0x00\n        /* \"#utility.yul\":14238:14305   */\n      tag_701\n        /* \"#utility.yul\":14302:14304   */\n      0x2a\n        /* \"#utility.yul\":14297:14300   */\n      dup4\n        /* \"#utility.yul\":14238:14305   */\n      tag_605\n      jump\t// in\n    tag_701:\n        /* \"#utility.yul\":14231:14305   */\n      swap2\n      pop\n        /* \"#utility.yul\":14314:14407   */\n      tag_702\n        /* \"#utility.yul\":14403:14406   */\n      dup3\n        /* \"#utility.yul\":14314:14407   */\n      tag_703\n      jump\t// in\n    tag_702:\n        /* \"#utility.yul\":14432:14434   */\n      0x40\n        /* \"#utility.yul\":14427:14430   */\n      dup3\n        /* \"#utility.yul\":14423:14435   */\n      add\n        /* \"#utility.yul\":14416:14435   */\n      swap1\n      pop\n        /* \"#utility.yul\":14075:14441   */\n      swap2\n      swap1\n      pop\n      jump\t// out\n        /* \"#utility.yul\":14447:14813   */\n    tag_704:\n        /* \"#utility.yul\":14589:14592   */\n      0x00\n        /* \"#utility.yul\":14610:14677   */\n      tag_706\n        /* \"#utility.yul\":14674:14676   */\n      0x26\n        /* \"#utility.yul\":14669:14672   */\n      dup4\n        /* \"#utility.yul\":14610:14677   */\n      tag_605\n      jump\t// in\n    tag_706:\n        /* \"#utility.yul\":14603:14677   */\n      swap2\n      pop\n        /* \"#utility.yul\":14686:14779   */\n      tag_707\n        /* \"#utility.yul\":14775:14778   */\n      dup3\n        /* \"#utility.yul\":14686:14779   */\n      tag_708\n      jump\t// in\n    tag_707:\n        /* \"#utility.yul\":14804:14806   */\n      0x40\n        /* \"#utility.yul\":14799:14802   */\n      dup3\n        /* \"#utility.yul\":14795:14807   */\n      add\n        /* \"#utility.yul\":14788:14807   */\n      swap1\n      pop\n        /* \"#utility.yul\":14447:14813   */\n      swap2\n      swap1\n      pop\n      jump\t// out\n        /* \"#utility.yul\":14819:15185   */\n    tag_709:\n        /* \"#utility.yul\":14961:14964   */\n      0x00\n        /* \"#utility.yul\":14982:15049   */\n      tag_711\n        /* \"#utility.yul\":15046:15048   */\n      0x1f\n        /* \"#utility.yul\":15041:15044   */\n      dup4\n        /* \"#utility.yul\":14982:15049   */\n      tag_605\n      jump\t// in\n    tag_711:\n        /* \"#utility.yul\":14975:15049   */\n      swap2\n      pop\n        /* \"#utility.yul\":15058:15151   */\n      tag_712\n        /* \"#utility.yul\":15147:15150   */\n      dup3\n        /* \"#utility.yul\":15058:15151   */\n      tag_713\n      jump\t// in\n    tag_712:\n        /* \"#utility.yul\":15176:15178   */\n      0x20\n        /* \"#utility.yul\":15171:15174   */\n      dup3\n        /* \"#utility.yul\":15167:15179   */\n      add\n        /* \"#utility.yul\":15160:15179   */\n      swap1\n      pop\n        /* \"#utility.yul\":14819:15185   */\n      swap2\n      swap1\n      pop\n      jump\t// out\n        /* \"#utility.yul\":15191:15557   */\n    tag_714:\n        /* \"#utility.yul\":15333:15336   */\n      0x00\n        /* \"#utility.yul\":15354:15421   */\n      tag_716\n        /* \"#utility.yul\":15418:15420   */\n      0x34\n        /* \"#utility.yul\":15413:15416   */\n      dup4\n        /* \"#utility.yul\":15354:15421   */\n      tag_605\n      jump\t// in\n    tag_716:\n        /* \"#utility.yul\":15347:15421   */\n      swap2\n      pop\n        /* \"#utility.yul\":15430:15523   */\n      tag_717\n        /* \"#utility.yul\":15519:15522   */\n      dup3\n        /* \"#utility.yul\":15430:15523   */\n      tag_718\n      jump\t// in\n    tag_717:\n        /* \"#utility.yul\":15548:15550   */\n      0x40\n        /* \"#utility.yul\":15543:15546   */\n      dup3\n        /* \"#utility.yul\":15539:15551   */\n      add\n        /* \"#utility.yul\":15532:15551   */\n      swap1\n      pop\n        /* \"#utility.yul\":15191:15557   */\n      swap2\n      swap1\n      pop\n      jump\t// out\n        /* \"#utility.yul\":15563:15681   */\n    tag_719:\n        /* \"#utility.yul\":15650:15674   */\n      tag_721\n        /* \"#utility.yul\":15668:15673   */\n      dup2\n        /* \"#utility.yul\":15650:15674   */\n      tag_722\n      jump\t// in\n    tag_721:\n        /* \"#utility.yul\":15645:15648   */\n      dup3\n        /* \"#utility.yul\":15638:15675   */\n      mstore\n        /* \"#utility.yul\":15563:15681   */\n      pop\n      pop\n      jump\t// out\n        /* \"#utility.yul\":15687:15958   */\n    tag_425:\n        /* \"#utility.yul\":15817:15820   */\n      0x00\n        /* \"#utility.yul\":15839:15932   */\n      tag_724\n        /* \"#utility.yul\":15928:15931   */\n      dup3\n        /* \"#utility.yul\":15919:15925   */\n      dup5\n        /* \"#utility.yul\":15839:15932   */\n      tag_588\n      jump\t// in\n    tag_724:\n        /* \"#utility.yul\":15832:15932   */\n      swap2\n      pop\n        /* \"#utility.yul\":15949:15952   */\n      dup2\n        /* \"#utility.yul\":15942:15952   */\n      swap1\n      pop\n        /* \"#utility.yul\":15687:15958   */\n      swap3\n      swap2\n      pop\n      pop\n      jump\t// out\n        /* \"#utility.yul\":15964:16186   */\n    tag_97:\n        /* \"#utility.yul\":16057:16061   */\n      0x00\n        /* \"#utility.yul\":16095:16097   */\n      0x20\n        /* \"#utility.yul\":16084:16093   */\n      dup3\n        /* \"#utility.yul\":16080:16098   */\n      add\n        /* \"#utility.yul\":16072:16098   */\n      swap1\n      pop\n        /* \"#utility.yul\":16108:16179   */\n      tag_726\n        /* \"#utility.yul\":16176:16177   */\n      0x00\n        /* \"#utility.yul\":16165:16174   */\n      dup4\n        /* \"#utility.yul\":16161:16178   */\n      add\n        /* \"#utility.yul\":16152:16158   */\n      dup5\n        /* \"#utility.yul\":16108:16179   */\n      tag_580\n      jump\t// in\n    tag_726:\n        /* \"#utility.yul\":15964:16186   */\n      swap3\n      swap2\n      pop\n      pop\n      jump\t// out\n        /* \"#utility.yul\":16192:16634   */\n    tag_452:\n        /* \"#utility.yul\":16341:16345   */\n      0x00\n        /* \"#utility.yul\":16379:16381   */\n      0x60\n        /* \"#utility.yul\":16368:16377   */\n      dup3\n        /* \"#utility.yul\":16364:16382   */\n      add\n        /* \"#utility.yul\":16356:16382   */\n      swap1\n      pop\n        /* \"#utility.yul\":16392:16463   */\n      tag_728\n        /* \"#utility.yul\":16460:16461   */\n      0x00\n        /* \"#utility.yul\":16449:16458   */\n      dup4\n        /* \"#utility.yul\":16445:16462   */\n      add\n        /* \"#utility.yul\":16436:16442   */\n      dup7\n        /* \"#utility.yul\":16392:16463   */\n      tag_580\n      jump\t// in\n    tag_728:\n        /* \"#utility.yul\":16473:16545   */\n      tag_729\n        /* \"#utility.yul\":16541:16543   */\n      0x20\n        /* \"#utility.yul\":16530:16539   */\n      dup4\n        /* \"#utility.yul\":16526:16544   */\n      add\n        /* \"#utility.yul\":16517:16523   */\n      dup6\n        /* \"#utility.yul\":16473:16545   */\n      tag_580\n      jump\t// in\n    tag_729:\n        /* \"#utility.yul\":16555:16627   */\n      tag_730\n        /* \"#utility.yul\":16623:16625   */\n      0x40\n        /* \"#utility.yul\":16612:16621   */\n      dup4\n        /* \"#utility.yul\":16608:16626   */\n      add\n        /* \"#utility.yul\":16599:16605   */\n      dup5\n        /* \"#utility.yul\":16555:16627   */\n      tag_719\n      jump\t// in\n    tag_730:\n        /* \"#utility.yul\":16192:16634   */\n      swap5\n      swap4\n      pop\n      pop\n      pop\n      pop\n      jump\t// out\n        /* \"#utility.yul\":16640:16972   */\n    tag_423:\n        /* \"#utility.yul\":16761:16765   */\n      0x00\n        /* \"#utility.yul\":16799:16801   */\n      0x40\n        /* \"#utility.yul\":16788:16797   */\n      dup3\n        /* \"#utility.yul\":16784:16802   */\n      add\n        /* \"#utility.yul\":16776:16802   */\n      swap1\n      pop\n        /* \"#utility.yul\":16812:16883   */\n      tag_732\n        /* \"#utility.yul\":16880:16881   */\n      0x00\n        /* \"#utility.yul\":16869:16878   */\n      dup4\n        /* \"#utility.yul\":16865:16882   */\n      add\n        /* \"#utility.yul\":16856:16862   */\n      dup6\n        /* \"#utility.yul\":16812:16883   */\n      tag_580\n      jump\t// in\n    tag_732:\n        /* \"#utility.yul\":16893:16965   */\n      tag_733\n        /* \"#utility.yul\":16961:16963   */\n      0x20\n        /* \"#utility.yul\":16950:16959   */\n      dup4\n        /* \"#utility.yul\":16946:16964   */\n      add\n        /* \"#utility.yul\":16937:16943   */\n      dup5\n        /* \"#utility.yul\":16893:16965   */\n      tag_719\n      jump\t// in\n    tag_733:\n        /* \"#utility.yul\":16640:16972   */\n      swap4\n      swap3\n      pop\n      pop\n      pop\n      jump\t// out\n        /* \"#utility.yul\":16978:17188   */\n    tag_92:\n        /* \"#utility.yul\":17065:17069   */\n      0x00\n        /* \"#utility.yul\":17103:17105   */\n      0x20\n        /* \"#utility.yul\":17092:17101   */\n      dup3\n        /* \"#utility.yul\":17088:17106   */\n      add\n        /* \"#utility.yul\":17080:17106   */\n      swap1\n      pop\n        /* \"#utility.yul\":17116:17181   */\n      tag_735\n        /* \"#utility.yul\":17178:17179   */\n      0x00\n        /* \"#utility.yul\":17167:17176   */\n      dup4\n        /* \"#utility.yul\":17163:17180   */\n      add\n        /* \"#utility.yul\":17154:17160   */\n      dup5\n        /* \"#utility.yul\":17116:17181   */\n      tag_584\n      jump\t// in\n    tag_735:\n        /* \"#utility.yul\":16978:17188   */\n      swap3\n      swap2\n      pop\n      pop\n      jump\t// out\n        /* \"#utility.yul\":17194:17444   */\n    tag_62:\n        /* \"#utility.yul\":17301:17305   */\n      0x00\n        /* \"#utility.yul\":17339:17341   */\n      0x20\n        /* \"#utility.yul\":17328:17337   */\n      dup3\n        /* \"#utility.yul\":17324:17342   */\n      add\n        /* \"#utility.yul\":17316:17342   */\n      swap1\n      pop\n        /* \"#utility.yul\":17352:17437   */\n      tag_737\n        /* \"#utility.yul\":17434:17435   */\n      0x00\n        /* \"#utility.yul\":17423:17432   */\n      dup4\n        /* \"#utility.yul\":17419:17436   */\n      add\n        /* \"#utility.yul\":17410:17416   */\n      dup5\n        /* \"#utility.yul\":17352:17437   */\n      tag_596\n      jump\t// in\n    tag_737:\n        /* \"#utility.yul\":17194:17444   */\n      swap3\n      swap2\n      pop\n      pop\n      jump\t// out\n        /* \"#utility.yul\":17450:17763   */\n    tag_487:\n        /* \"#utility.yul\":17563:17567   */\n      0x00\n        /* \"#utility.yul\":17601:17603   */\n      0x20\n        /* \"#utility.yul\":17590:17599   */\n      dup3\n        /* \"#utility.yul\":17586:17604   */\n      add\n        /* \"#utility.yul\":17578:17604   */\n      swap1\n      pop\n        /* \"#utility.yul\":17650:17659   */\n      dup2\n        /* \"#utility.yul\":17644:17648   */\n      dup2\n        /* \"#utility.yul\":17640:17660   */\n      sub\n        /* \"#utility.yul\":17636:17637   */\n      0x00\n        /* \"#utility.yul\":17625:17634   */\n      dup4\n        /* \"#utility.yul\":17621:17638   */\n      add\n        /* \"#utility.yul\":17614:17661   */\n      mstore\n        /* \"#utility.yul\":17678:17756   */\n      tag_739\n        /* \"#utility.yul\":17751:17755   */\n      dup2\n        /* \"#utility.yul\":17742:17748   */\n      dup5\n        /* \"#utility.yul\":17678:17756   */\n      tag_600\n      jump\t// in\n    tag_739:\n        /* \"#utility.yul\":17670:17756   */\n      swap1\n      pop\n        /* \"#utility.yul\":17450:17763   */\n      swap3\n      swap2\n      pop\n      pop\n      jump\t// out\n        /* \"#utility.yul\":17769:18188   */\n    tag_318:\n        /* \"#utility.yul\":17935:17939   */\n      0x00\n        /* \"#utility.yul\":17973:17975   */\n      0x20\n        /* \"#utility.yul\":17962:17971   */\n      dup3\n        /* \"#utility.yul\":17958:17976   */\n      add\n        /* \"#utility.yul\":17950:17976   */\n      swap1\n      pop\n        /* \"#utility.yul\":18022:18031   */\n      dup2\n        /* \"#utility.yul\":18016:18020   */\n      dup2\n        /* \"#utility.yul\":18012:18032   */\n      sub\n        /* \"#utility.yul\":18008:18009   */\n      0x00\n        /* \"#utility.yul\":17997:18006   */\n      dup4\n        /* \"#utility.yul\":17993:18010   */\n      add\n        /* \"#utility.yul\":17986:18033   */\n      mstore\n        /* \"#utility.yul\":18050:18181   */\n      tag_741\n        /* \"#utility.yul\":18176:18180   */\n      dup2\n        /* \"#utility.yul\":18050:18181   */\n      tag_609\n      jump\t// in\n    tag_741:\n        /* \"#utility.yul\":18042:18181   */\n      swap1\n      pop\n        /* \"#utility.yul\":17769:18188   */\n      swap2\n      swap1\n      pop\n      jump\t// out\n        /* \"#utility.yul\":18194:18613   */\n    tag_385:\n        /* \"#utility.yul\":18360:18364   */\n      0x00\n        /* \"#utility.yul\":18398:18400   */\n      0x20\n        /* \"#utility.yul\":18387:18396   */\n      dup3\n        /* \"#utility.yul\":18383:18401   */\n      add\n        /* \"#utility.yul\":18375:18401   */\n      swap1\n      pop\n        /* \"#utility.yul\":18447:18456   */\n      dup2\n        /* \"#utility.yul\":18441:18445   */\n      dup2\n        /* \"#utility.yul\":18437:18457   */\n      sub\n        /* \"#utility.yul\":18433:18434   */\n      0x00\n        /* \"#utility.yul\":18422:18431   */\n      dup4\n        /* \"#utility.yul\":18418:18435   */\n      add\n        /* \"#utility.yul\":18411:18458   */\n      mstore\n        /* \"#utility.yul\":18475:18606   */\n      tag_743\n        /* \"#utility.yul\":18601:18605   */\n      dup2\n        /* \"#utility.yul\":18475:18606   */\n      tag_614\n      jump\t// in\n    tag_743:\n        /* \"#utility.yul\":18467:18606   */\n      swap1\n      pop\n        /* \"#utility.yul\":18194:18613   */\n      swap2\n      swap1\n      pop\n      jump\t// out\n        /* \"#utility.yul\":18619:19038   */\n    tag_334:\n        /* \"#utility.yul\":18785:18789   */\n      0x00\n        /* \"#utility.yul\":18823:18825   */\n      0x20\n        /* \"#utility.yul\":18812:18821   */\n      dup3\n        /* \"#utility.yul\":18808:18826   */\n      add\n        /* \"#utility.yul\":18800:18826   */\n      swap1\n      pop\n        /* \"#utility.yul\":18872:18881   */\n      dup2\n        /* \"#utility.yul\":18866:18870   */\n      dup2\n        /* \"#utility.yul\":18862:18882   */\n      sub\n        /* \"#utility.yul\":18858:18859   */\n      0x00\n        /* \"#utility.yul\":18847:18856   */\n      dup4\n        /* \"#utility.yul\":18843:18860   */\n      add\n        /* \"#utility.yul\":18836:18883   */\n      mstore\n        /* \"#utility.yul\":18900:19031   */\n      tag_745\n        /* \"#utility.yul\":19026:19030   */\n      dup2\n        /* \"#utility.yul\":18900:19031   */\n      tag_619\n      jump\t// in\n    tag_745:\n        /* \"#utility.yul\":18892:19031   */\n      swap1\n      pop\n        /* \"#utility.yul\":18619:19038   */\n      swap2\n      swap1\n      pop\n      jump\t// out\n        /* \"#utility.yul\":19044:19463   */\n    tag_447:\n        /* \"#utility.yul\":19210:19214   */\n      0x00\n        /* \"#utility.yul\":19248:19250   */\n      0x20\n        /* \"#utility.yul\":19237:19246   */\n      dup3\n        /* \"#utility.yul\":19233:19251   */\n      add\n        /* \"#utility.yul\":19225:19251   */\n      swap1\n      pop\n        /* \"#utility.yul\":19297:19306   */\n      dup2\n        /* \"#utility.yul\":19291:19295   */\n      dup2\n        /* \"#utility.yul\":19287:19307   */\n      sub\n        /* \"#utility.yul\":19283:19284   */\n      0x00\n        /* \"#utility.yul\":19272:19281   */\n      dup4\n        /* \"#utility.yul\":19268:19285   */\n      add\n        /* \"#utility.yul\":19261:19308   */\n      mstore\n        /* \"#utility.yul\":19325:19456   */\n      tag_747\n        /* \"#utility.yul\":19451:19455   */\n      dup2\n        /* \"#utility.yul\":19325:19456   */\n      tag_624\n      jump\t// in\n    tag_747:\n        /* \"#utility.yul\":19317:19456   */\n      swap1\n      pop\n        /* \"#utility.yul\":19044:19463   */\n      swap2\n      swap1\n      pop\n      jump\t// out\n        /* \"#utility.yul\":19469:19888   */\n    tag_207:\n        /* \"#utility.yul\":19635:19639   */\n      0x00\n        /* \"#utility.yul\":19673:19675   */\n      0x20\n        /* \"#utility.yul\":19662:19671   */\n      dup3\n        /* \"#utility.yul\":19658:19676   */\n      add\n        /* \"#utility.yul\":19650:19676   */\n      swap1\n      pop\n        /* \"#utility.yul\":19722:19731   */\n      dup2\n        /* \"#utility.yul\":19716:19720   */\n      dup2\n        /* \"#utility.yul\":19712:19732   */\n      sub\n        /* \"#utility.yul\":19708:19709   */\n      0x00\n        /* \"#utility.yul\":19697:19706   */\n      dup4\n        /* \"#utility.yul\":19693:19710   */\n      add\n        /* \"#utility.yul\":19686:19733   */\n      mstore\n        /* \"#utility.yul\":19750:19881   */\n      tag_749\n        /* \"#utility.yul\":19876:19880   */\n      dup2\n        /* \"#utility.yul\":19750:19881   */\n      tag_629\n      jump\t// in\n    tag_749:\n        /* \"#utility.yul\":19742:19881   */\n      swap1\n      pop\n        /* \"#utility.yul\":19469:19888   */\n      swap2\n      swap1\n      pop\n      jump\t// out\n        /* \"#utility.yul\":19894:20313   */\n    tag_215:\n        /* \"#utility.yul\":20060:20064   */\n      0x00\n        /* \"#utility.yul\":20098:20100   */\n      0x20\n        /* \"#utility.yul\":20087:20096   */\n      dup3\n        /* \"#utility.yul\":20083:20101   */\n      add\n        /* \"#utility.yul\":20075:20101   */\n      swap1\n      pop\n        /* \"#utility.yul\":20147:20156   */\n      dup2\n        /* \"#utility.yul\":20141:20145   */\n      dup2\n        /* \"#utility.yul\":20137:20157   */\n      sub\n        /* \"#utility.yul\":20133:20134   */\n      0x00\n        /* \"#utility.yul\":20122:20131   */\n      dup4\n        /* \"#utility.yul\":20118:20135   */\n      add\n        /* \"#utility.yul\":20111:20158   */\n      mstore\n        /* \"#utility.yul\":20175:20306   */\n      tag_751\n        /* \"#utility.yul\":20301:20305   */\n      dup2\n        /* \"#utility.yul\":20175:20306   */\n      tag_634\n      jump\t// in\n    tag_751:\n        /* \"#utility.yul\":20167:20306   */\n      swap1\n      pop\n        /* \"#utility.yul\":19894:20313   */\n      swap2\n      swap1\n      pop\n      jump\t// out\n        /* \"#utility.yul\":20319:20738   */\n    tag_468:\n        /* \"#utility.yul\":20485:20489   */\n      0x00\n        /* \"#utility.yul\":20523:20525   */\n      0x20\n        /* \"#utility.yul\":20512:20521   */\n      dup3\n        /* \"#utility.yul\":20508:20526   */\n      add\n        /* \"#utility.yul\":20500:20526   */\n      swap1\n      pop\n        /* \"#utility.yul\":20572:20581   */\n      dup2\n        /* \"#utility.yul\":20566:20570   */\n      dup2\n        /* \"#utility.yul\":20562:20582   */\n      sub\n        /* \"#utility.yul\":20558:20559   */\n      0x00\n        /* \"#utility.yul\":20547:20556   */\n      dup4\n        /* \"#utility.yul\":20543:20560   */\n      add\n        /* \"#utility.yul\":20536:20583   */\n      mstore\n        /* \"#utility.yul\":20600:20731   */\n      tag_753\n        /* \"#utility.yul\":20726:20730   */\n      dup2\n        /* \"#utility.yul\":20600:20731   */\n      tag_639\n      jump\t// in\n    tag_753:\n        /* \"#utility.yul\":20592:20731   */\n      swap1\n      pop\n        /* \"#utility.yul\":20319:20738   */\n      swap2\n      swap1\n      pop\n      jump\t// out\n        /* \"#utility.yul\":20744:21163   */\n    tag_326:\n        /* \"#utility.yul\":20910:20914   */\n      0x00\n        /* \"#utility.yul\":20948:20950   */\n      0x20\n        /* \"#utility.yul\":20937:20946   */\n      dup3\n        /* \"#utility.yul\":20933:20951   */\n      add\n        /* \"#utility.yul\":20925:20951   */\n      swap1\n      pop\n        /* \"#utility.yul\":20997:21006   */\n      dup2\n        /* \"#utility.yul\":20991:20995   */\n      dup2\n        /* \"#utility.yul\":20987:21007   */\n      sub\n        /* \"#utility.yul\":20983:20984   */\n      0x00\n        /* \"#utility.yul\":20972:20981   */\n      dup4\n        /* \"#utility.yul\":20968:20985   */\n      add\n        /* \"#utility.yul\":20961:21008   */\n      mstore\n        /* \"#utility.yul\":21025:21156   */\n      tag_755\n        /* \"#utility.yul\":21151:21155   */\n      dup2\n        /* \"#utility.yul\":21025:21156   */\n      tag_644\n      jump\t// in\n    tag_755:\n        /* \"#utility.yul\":21017:21156   */\n      swap1\n      pop\n        /* \"#utility.yul\":20744:21163   */\n      swap2\n      swap1\n      pop\n      jump\t// out\n        /* \"#utility.yul\":21169:21588   */\n    tag_243:\n        /* \"#utility.yul\":21335:21339   */\n      0x00\n        /* \"#utility.yul\":21373:21375   */\n      0x20\n        /* \"#utility.yul\":21362:21371   */\n      dup3\n        /* \"#utility.yul\":21358:21376   */\n      add\n        /* \"#utility.yul\":21350:21376   */\n      swap1\n      pop\n        /* \"#utility.yul\":21422:21431   */\n      dup2\n        /* \"#utility.yul\":21416:21420   */\n      dup2\n        /* \"#utility.yul\":21412:21432   */\n      sub\n        /* \"#utility.yul\":21408:21409   */\n      0x00\n        /* \"#utility.yul\":21397:21406   */\n      dup4\n        /* \"#utility.yul\":21393:21410   */\n      add\n        /* \"#utility.yul\":21386:21433   */\n      mstore\n        /* \"#utility.yul\":21450:21581   */\n      tag_757\n        /* \"#utility.yul\":21576:21580   */\n      dup2\n        /* \"#utility.yul\":21450:21581   */\n      tag_649\n      jump\t// in\n    tag_757:\n        /* \"#utility.yul\":21442:21581   */\n      swap1\n      pop\n        /* \"#utility.yul\":21169:21588   */\n      swap2\n      swap1\n      pop\n      jump\t// out\n        /* \"#utility.yul\":21594:22013   */\n    tag_395:\n        /* \"#utility.yul\":21760:21764   */\n      0x00\n        /* \"#utility.yul\":21798:21800   */\n      0x20\n        /* \"#utility.yul\":21787:21796   */\n      dup3\n        /* \"#utility.yul\":21783:21801   */\n      add\n        /* \"#utility.yul\":21775:21801   */\n      swap1\n      pop\n        /* \"#utility.yul\":21847:21856   */\n      dup2\n        /* \"#utility.yul\":21841:21845   */\n      dup2\n        /* \"#utility.yul\":21837:21857   */\n      sub\n        /* \"#utility.yul\":21833:21834   */\n      0x00\n        /* \"#utility.yul\":21822:21831   */\n      dup4\n        /* \"#utility.yul\":21818:21835   */\n      add\n        /* \"#utility.yul\":21811:21858   */\n      mstore\n        /* \"#utility.yul\":21875:22006   */\n      tag_759\n        /* \"#utility.yul\":22001:22005   */\n      dup2\n        /* \"#utility.yul\":21875:22006   */\n      tag_654\n      jump\t// in\n    tag_759:\n        /* \"#utility.yul\":21867:22006   */\n      swap1\n      pop\n        /* \"#utility.yul\":21594:22013   */\n      swap2\n      swap1\n      pop\n      jump\t// out\n        /* \"#utility.yul\":22019:22438   */\n    tag_211:\n        /* \"#utility.yul\":22185:22189   */\n      0x00\n        /* \"#utility.yul\":22223:22225   */\n      0x20\n        /* \"#utility.yul\":22212:22221   */\n      dup3\n        /* \"#utility.yul\":22208:22226   */\n      add\n        /* \"#utility.yul\":22200:22226   */\n      swap1\n      pop\n        /* \"#utility.yul\":22272:22281   */\n      dup2\n        /* \"#utility.yul\":22266:22270   */\n      dup2\n        /* \"#utility.yul\":22262:22282   */\n      sub\n        /* \"#utility.yul\":22258:22259   */\n      0x00\n        /* \"#utility.yul\":22247:22256   */\n      dup4\n        /* \"#utility.yul\":22243:22260   */\n      add\n        /* \"#utility.yul\":22236:22283   */\n      mstore\n        /* \"#utility.yul\":22300:22431   */\n      tag_761\n        /* \"#utility.yul\":22426:22430   */\n      dup2\n        /* \"#utility.yul\":22300:22431   */\n      tag_659\n      jump\t// in\n    tag_761:\n        /* \"#utility.yul\":22292:22431   */\n      swap1\n      pop\n        /* \"#utility.yul\":22019:22438   */\n      swap2\n      swap1\n      pop\n      jump\t// out\n        /* \"#utility.yul\":22444:22863   */\n    tag_408:\n        /* \"#utility.yul\":22610:22614   */\n      0x00\n        /* \"#utility.yul\":22648:22650   */\n      0x20\n        /* \"#utility.yul\":22637:22646   */\n      dup3\n        /* \"#utility.yul\":22633:22651   */\n      add\n        /* \"#utility.yul\":22625:22651   */\n      swap1\n      pop\n        /* \"#utility.yul\":22697:22706   */\n      dup2\n        /* \"#utility.yul\":22691:22695   */\n      dup2\n        /* \"#utility.yul\":22687:22707   */\n      sub\n        /* \"#utility.yul\":22683:22684   */\n      0x00\n        /* \"#utility.yul\":22672:22681   */\n      dup4\n        /* \"#utility.yul\":22668:22685   */\n      add\n        /* \"#utility.yul\":22661:22708   */\n      mstore\n        /* \"#utility.yul\":22725:22856   */\n      tag_763\n        /* \"#utility.yul\":22851:22855   */\n      dup2\n        /* \"#utility.yul\":22725:22856   */\n      tag_664\n      jump\t// in\n    tag_763:\n        /* \"#utility.yul\":22717:22856   */\n      swap1\n      pop\n        /* \"#utility.yul\":22444:22863   */\n      swap2\n      swap1\n      pop\n      jump\t// out\n        /* \"#utility.yul\":22869:23288   */\n    tag_180:\n        /* \"#utility.yul\":23035:23039   */\n      0x00\n        /* \"#utility.yul\":23073:23075   */\n      0x20\n        /* \"#utility.yul\":23062:23071   */\n      dup3\n        /* \"#utility.yul\":23058:23076   */\n      add\n        /* \"#utility.yul\":23050:23076   */\n      swap1\n      pop\n        /* \"#utility.yul\":23122:23131   */\n      dup2\n        /* \"#utility.yul\":23116:23120   */\n      dup2\n        /* \"#utility.yul\":23112:23132   */\n      sub\n        /* \"#utility.yul\":23108:23109   */\n      0x00\n        /* \"#utility.yul\":23097:23106   */\n      dup4\n        /* \"#utility.yul\":23093:23110   */\n      add\n        /* \"#utility.yul\":23086:23133   */\n      mstore\n        /* \"#utility.yul\":23150:23281   */\n      tag_765\n        /* \"#utility.yul\":23276:23280   */\n      dup2\n        /* \"#utility.yul\":23150:23281   */\n      tag_669\n      jump\t// in\n    tag_765:\n        /* \"#utility.yul\":23142:23281   */\n      swap1\n      pop\n        /* \"#utility.yul\":22869:23288   */\n      swap2\n      swap1\n      pop\n      jump\t// out\n        /* \"#utility.yul\":23294:23713   */\n    tag_258:\n        /* \"#utility.yul\":23460:23464   */\n      0x00\n        /* \"#utility.yul\":23498:23500   */\n      0x20\n        /* \"#utility.yul\":23487:23496   */\n      dup3\n        /* \"#utility.yul\":23483:23501   */\n      add\n        /* \"#utility.yul\":23475:23501   */\n      swap1\n      pop\n        /* \"#utility.yul\":23547:23556   */\n      dup2\n        /* \"#utility.yul\":23541:23545   */\n      dup2\n        /* \"#utility.yul\":23537:23557   */\n      sub\n        /* \"#utility.yul\":23533:23534   */\n      0x00\n        /* \"#utility.yul\":23522:23531   */\n      dup4\n        /* \"#utility.yul\":23518:23535   */\n      add\n        /* \"#utility.yul\":23511:23558   */\n      mstore\n        /* \"#utility.yul\":23575:23706   */\n      tag_767\n        /* \"#utility.yul\":23701:23705   */\n      dup2\n        /* \"#utility.yul\":23575:23706   */\n      tag_674\n      jump\t// in\n    tag_767:\n        /* \"#utility.yul\":23567:23706   */\n      swap1\n      pop\n        /* \"#utility.yul\":23294:23713   */\n      swap2\n      swap1\n      pop\n      jump\t// out\n        /* \"#utility.yul\":23719:24138   */\n    tag_473:\n        /* \"#utility.yul\":23885:23889   */\n      0x00\n        /* \"#utility.yul\":23923:23925   */\n      0x20\n        /* \"#utility.yul\":23912:23921   */\n      dup3\n        /* \"#utility.yul\":23908:23926   */\n      add\n        /* \"#utility.yul\":23900:23926   */\n      swap1\n      pop\n        /* \"#utility.yul\":23972:23981   */\n      dup2\n        /* \"#utility.yul\":23966:23970   */\n      dup2\n        /* \"#utility.yul\":23962:23982   */\n      sub\n        /* \"#utility.yul\":23958:23959   */\n      0x00\n        /* \"#utility.yul\":23947:23956   */\n      dup4\n        /* \"#utility.yul\":23943:23960   */\n      add\n        /* \"#utility.yul\":23936:23983   */\n      mstore\n        /* \"#utility.yul\":24000:24131   */\n      tag_769\n        /* \"#utility.yul\":24126:24130   */\n      dup2\n        /* \"#utility.yul\":24000:24131   */\n      tag_679\n      jump\t// in\n    tag_769:\n        /* \"#utility.yul\":23992:24131   */\n      swap1\n      pop\n        /* \"#utility.yul\":23719:24138   */\n      swap2\n      swap1\n      pop\n      jump\t// out\n        /* \"#utility.yul\":24144:24563   */\n    tag_200:\n        /* \"#utility.yul\":24310:24314   */\n      0x00\n        /* \"#utility.yul\":24348:24350   */\n      0x20\n        /* \"#utility.yul\":24337:24346   */\n      dup3\n        /* \"#utility.yul\":24333:24351   */\n      add\n        /* \"#utility.yul\":24325:24351   */\n      swap1\n      pop\n        /* \"#utility.yul\":24397:24406   */\n      dup2\n        /* \"#utility.yul\":24391:24395   */\n      dup2\n        /* \"#utility.yul\":24387:24407   */\n      sub\n        /* \"#utility.yul\":24383:24384   */\n      0x00\n        /* \"#utility.yul\":24372:24381   */\n      dup4\n        /* \"#utility.yul\":24368:24385   */\n      add\n        /* \"#utility.yul\":24361:24408   */\n      mstore\n        /* \"#utility.yul\":24425:24556   */\n      tag_771\n        /* \"#utility.yul\":24551:24555   */\n      dup2\n        /* \"#utility.yul\":24425:24556   */\n      tag_684\n      jump\t// in\n    tag_771:\n        /* \"#utility.yul\":24417:24556   */\n      swap1\n      pop\n        /* \"#utility.yul\":24144:24563   */\n      swap2\n      swap1\n      pop\n      jump\t// out\n        /* \"#utility.yul\":24569:24988   */\n    tag_435:\n        /* \"#utility.yul\":24735:24739   */\n      0x00\n        /* \"#utility.yul\":24773:24775   */\n      0x20\n        /* \"#utility.yul\":24762:24771   */\n      dup3\n        /* \"#utility.yul\":24758:24776   */\n      add\n        /* \"#utility.yul\":24750:24776   */\n      swap1\n      pop\n        /* \"#utility.yul\":24822:24831   */\n      dup2\n        /* \"#utility.yul\":24816:24820   */\n      dup2\n        /* \"#utility.yul\":24812:24832   */\n      sub\n        /* \"#utility.yul\":24808:24809   */\n      0x00\n        /* \"#utility.yul\":24797:24806   */\n      dup4\n        /* \"#utility.yul\":24793:24810   */\n      add\n        /* \"#utility.yul\":24786:24833   */\n      mstore\n        /* \"#utility.yul\":24850:24981   */\n      tag_773\n        /* \"#utility.yul\":24976:24980   */\n      dup2\n        /* \"#utility.yul\":24850:24981   */\n      tag_689\n      jump\t// in\n    tag_773:\n        /* \"#utility.yul\":24842:24981   */\n      swap1\n      pop\n        /* \"#utility.yul\":24569:24988   */\n      swap2\n      swap1\n      pop\n      jump\t// out\n        /* \"#utility.yul\":24994:25413   */\n    tag_354:\n        /* \"#utility.yul\":25160:25164   */\n      0x00\n        /* \"#utility.yul\":25198:25200   */\n      0x20\n        /* \"#utility.yul\":25187:25196   */\n      dup3\n        /* \"#utility.yul\":25183:25201   */\n      add\n        /* \"#utility.yul\":25175:25201   */\n      swap1\n      pop\n        /* \"#utility.yul\":25247:25256   */\n      dup2\n        /* \"#utility.yul\":25241:25245   */\n      dup2\n        /* \"#utility.yul\":25237:25257   */\n      sub\n        /* \"#utility.yul\":25233:25234   */\n      0x00\n        /* \"#utility.yul\":25222:25231   */\n      dup4\n        /* \"#utility.yul\":25218:25235   */\n      add\n        /* \"#utility.yul\":25211:25258   */\n      mstore\n        /* \"#utility.yul\":25275:25406   */\n      tag_775\n        /* \"#utility.yul\":25401:25405   */\n      dup2\n        /* \"#utility.yul\":25275:25406   */\n      tag_694\n      jump\t// in\n    tag_775:\n        /* \"#utility.yul\":25267:25406   */\n      swap1\n      pop\n        /* \"#utility.yul\":24994:25413   */\n      swap2\n      swap1\n      pop\n      jump\t// out\n        /* \"#utility.yul\":25419:25838   */\n    tag_461:\n        /* \"#utility.yul\":25585:25589   */\n      0x00\n        /* \"#utility.yul\":25623:25625   */\n      0x20\n        /* \"#utility.yul\":25612:25621   */\n      dup3\n        /* \"#utility.yul\":25608:25626   */\n      add\n        /* \"#utility.yul\":25600:25626   */\n      swap1\n      pop\n        /* \"#utility.yul\":25672:25681   */\n      dup2\n        /* \"#utility.yul\":25666:25670   */\n      dup2\n        /* \"#utility.yul\":25662:25682   */\n      sub\n        /* \"#utility.yul\":25658:25659   */\n      0x00\n        /* \"#utility.yul\":25647:25656   */\n      dup4\n        /* \"#utility.yul\":25643:25660   */\n      add\n        /* \"#utility.yul\":25636:25683   */\n      mstore\n        /* \"#utility.yul\":25700:25831   */\n      tag_777\n        /* \"#utility.yul\":25826:25830   */\n      dup2\n        /* \"#utility.yul\":25700:25831   */\n      tag_699\n      jump\t// in\n    tag_777:\n        /* \"#utility.yul\":25692:25831   */\n      swap1\n      pop\n        /* \"#utility.yul\":25419:25838   */\n      swap2\n      swap1\n      pop\n      jump\t// out\n        /* \"#utility.yul\":25844:26263   */\n    tag_184:\n        /* \"#utility.yul\":26010:26014   */\n      0x00\n        /* \"#utility.yul\":26048:26050   */\n      0x20\n        /* \"#utility.yul\":26037:26046   */\n      dup3\n        /* \"#utility.yul\":26033:26051   */\n      add\n        /* \"#utility.yul\":26025:26051   */\n      swap1\n      pop\n        /* \"#utility.yul\":26097:26106   */\n      dup2\n        /* \"#utility.yul\":26091:26095   */\n      dup2\n        /* \"#utility.yul\":26087:26107   */\n      sub\n        /* \"#utility.yul\":26083:26084   */\n      0x00\n        /* \"#utility.yul\":26072:26081   */\n      dup4\n        /* \"#utility.yul\":26068:26085   */\n      add\n        /* \"#utility.yul\":26061:26108   */\n      mstore\n        /* \"#utility.yul\":26125:26256   */\n      tag_779\n        /* \"#utility.yul\":26251:26255   */\n      dup2\n        /* \"#utility.yul\":26125:26256   */\n      tag_704\n      jump\t// in\n    tag_779:\n        /* \"#utility.yul\":26117:26256   */\n      swap1\n      pop\n        /* \"#utility.yul\":25844:26263   */\n      swap2\n      swap1\n      pop\n      jump\t// out\n        /* \"#utility.yul\":26269:26688   */\n    tag_322:\n        /* \"#utility.yul\":26435:26439   */\n      0x00\n        /* \"#utility.yul\":26473:26475   */\n      0x20\n        /* \"#utility.yul\":26462:26471   */\n      dup3\n        /* \"#utility.yul\":26458:26476   */\n      add\n        /* \"#utility.yul\":26450:26476   */\n      swap1\n      pop\n        /* \"#utility.yul\":26522:26531   */\n      dup2\n        /* \"#utility.yul\":26516:26520   */\n      dup2\n        /* \"#utility.yul\":26512:26532   */\n      sub\n        /* \"#utility.yul\":26508:26509   */\n      0x00\n        /* \"#utility.yul\":26497:26506   */\n      dup4\n        /* \"#utility.yul\":26493:26510   */\n      add\n        /* \"#utility.yul\":26486:26533   */\n      mstore\n        /* \"#utility.yul\":26550:26681   */\n      tag_781\n        /* \"#utility.yul\":26676:26680   */\n      dup2\n        /* \"#utility.yul\":26550:26681   */\n      tag_709\n      jump\t// in\n    tag_781:\n        /* \"#utility.yul\":26542:26681   */\n      swap1\n      pop\n        /* \"#utility.yul\":26269:26688   */\n      swap2\n      swap1\n      pop\n      jump\t// out\n        /* \"#utility.yul\":26694:27113   */\n    tag_330:\n        /* \"#utility.yul\":26860:26864   */\n      0x00\n        /* \"#utility.yul\":26898:26900   */\n      0x20\n        /* \"#utility.yul\":26887:26896   */\n      dup3\n        /* \"#utility.yul\":26883:26901   */\n      add\n        /* \"#utility.yul\":26875:26901   */\n      swap1\n      pop\n        /* \"#utility.yul\":26947:26956   */\n      dup2\n        /* \"#utility.yul\":26941:26945   */\n      dup2\n        /* \"#utility.yul\":26937:26957   */\n      sub\n        /* \"#utility.yul\":26933:26934   */\n      0x00\n        /* \"#utility.yul\":26922:26931   */\n      dup4\n        /* \"#utility.yul\":26918:26935   */\n      add\n        /* \"#utility.yul\":26911:26958   */\n      mstore\n        /* \"#utility.yul\":26975:27106   */\n      tag_783\n        /* \"#utility.yul\":27101:27105   */\n      dup2\n        /* \"#utility.yul\":26975:27106   */\n      tag_714\n      jump\t// in\n    tag_783:\n        /* \"#utility.yul\":26967:27106   */\n      swap1\n      pop\n        /* \"#utility.yul\":26694:27113   */\n      swap2\n      swap1\n      pop\n      jump\t// out\n        /* \"#utility.yul\":27119:27341   */\n    tag_49:\n        /* \"#utility.yul\":27212:27216   */\n      0x00\n        /* \"#utility.yul\":27250:27252   */\n      0x20\n        /* \"#utility.yul\":27239:27248   */\n      dup3\n        /* \"#utility.yul\":27235:27253   */\n      add\n        /* \"#utility.yul\":27227:27253   */\n      swap1\n      pop\n        /* \"#utility.yul\":27263:27334   */\n      tag_785\n        /* \"#utility.yul\":27331:27332   */\n      0x00\n        /* \"#utility.yul\":27320:27329   */\n      dup4\n        /* \"#utility.yul\":27316:27333   */\n      add\n        /* \"#utility.yul\":27307:27313   */\n      dup5\n        /* \"#utility.yul\":27263:27334   */\n      tag_719\n      jump\t// in\n    tag_785:\n        /* \"#utility.yul\":27119:27341   */\n      swap3\n      swap2\n      pop\n      pop\n      jump\t// out\n        /* \"#utility.yul\":27347:27476   */\n    tag_494:\n        /* \"#utility.yul\":27381:27387   */\n      0x00\n        /* \"#utility.yul\":27408:27428   */\n      tag_787\n      tag_788\n      jump\t// in\n    tag_787:\n        /* \"#utility.yul\":27398:27428   */\n      swap1\n      pop\n        /* \"#utility.yul\":27437:27470   */\n      tag_789\n        /* \"#utility.yul\":27465:27469   */\n      dup3\n        /* \"#utility.yul\":27457:27463   */\n      dup3\n        /* \"#utility.yul\":27437:27470   */\n      tag_790\n      jump\t// in\n    tag_789:\n        /* \"#utility.yul\":27347:27476   */\n      swap2\n      swap1\n      pop\n      jump\t// out\n        /* \"#utility.yul\":27482:27557   */\n    tag_788:\n        /* \"#utility.yul\":27515:27521   */\n      0x00\n        /* \"#utility.yul\":27548:27550   */\n      0x40\n        /* \"#utility.yul\":27542:27551   */\n      mload\n        /* \"#utility.yul\":27532:27551   */\n      swap1\n      pop\n        /* \"#utility.yul\":27482:27557   */\n      swap1\n      jump\t// out\n        /* \"#utility.yul\":27563:27874   */\n    tag_493:\n        /* \"#utility.yul\":27640:27644   */\n      0x00\n        /* \"#utility.yul\":27730:27748   */\n      0xffffffffffffffff\n        /* \"#utility.yul\":27722:27728   */\n      dup3\n        /* \"#utility.yul\":27719:27749   */\n      gt\n        /* \"#utility.yul\":27716:27772   */\n      iszero\n      tag_793\n      jumpi\n        /* \"#utility.yul\":27752:27770   */\n      tag_794\n      tag_439\n      jump\t// in\n    tag_794:\n        /* \"#utility.yul\":27716:27772   */\n    tag_793:\n        /* \"#utility.yul\":27802:27806   */\n      0x20\n        /* \"#utility.yul\":27794:27800   */\n      dup3\n        /* \"#utility.yul\":27790:27807   */\n      mul\n        /* \"#utility.yul\":27782:27807   */\n      swap1\n      pop\n        /* \"#utility.yul\":27862:27866   */\n      0x20\n        /* \"#utility.yul\":27856:27860   */\n      dup2\n        /* \"#utility.yul\":27852:27867   */\n      add\n        /* \"#utility.yul\":27844:27867   */\n      swap1\n      pop\n        /* \"#utility.yul\":27563:27874   */\n      swap2\n      swap1\n      pop\n      jump\t// out\n        /* \"#utility.yul\":27880:28191   */\n    tag_507:\n        /* \"#utility.yul\":27957:27961   */\n      0x00\n        /* \"#utility.yul\":28047:28065   */\n      0xffffffffffffffff\n        /* \"#utility.yul\":28039:28045   */\n      dup3\n        /* \"#utility.yul\":28036:28066   */\n      gt\n        /* \"#utility.yul\":28033:28089   */\n      iszero\n      tag_796\n      jumpi\n        /* \"#utility.yul\":28069:28087   */\n      tag_797\n      tag_439\n      jump\t// in\n    tag_797:\n        /* \"#utility.yul\":28033:28089   */\n    tag_796:\n        /* \"#utility.yul\":28119:28123   */\n      0x20\n        /* \"#utility.yul\":28111:28117   */\n      dup3\n        /* \"#utility.yul\":28107:28124   */\n      mul\n        /* \"#utility.yul\":28099:28124   */\n      swap1\n      pop\n        /* \"#utility.yul\":28179:28183   */\n      0x20\n        /* \"#utility.yul\":28173:28177   */\n      dup2\n        /* \"#utility.yul\":28169:28184   */\n      add\n        /* \"#utility.yul\":28161:28184   */\n      swap1\n      pop\n        /* \"#utility.yul\":27880:28191   */\n      swap2\n      swap1\n      pop\n      jump\t// out\n        /* \"#utility.yul\":28197:28295   */\n    tag_591:\n        /* \"#utility.yul\":28248:28254   */\n      0x00\n        /* \"#utility.yul\":28282:28287   */\n      dup2\n        /* \"#utility.yul\":28276:28288   */\n      mload\n        /* \"#utility.yul\":28266:28288   */\n      swap1\n      pop\n        /* \"#utility.yul\":28197:28295   */\n      swap2\n      swap1\n      pop\n      jump\t// out\n        /* \"#utility.yul\":28301:28400   */\n    tag_603:\n        /* \"#utility.yul\":28353:28359   */\n      0x00\n        /* \"#utility.yul\":28387:28392   */\n      dup2\n        /* \"#utility.yul\":28381:28393   */\n      mload\n        /* \"#utility.yul\":28371:28393   */\n      swap1\n      pop\n        /* \"#utility.yul\":28301:28400   */\n      swap2\n      swap1\n      pop\n      jump\t// out\n        /* \"#utility.yul\":28406:28553   */\n    tag_593:\n        /* \"#utility.yul\":28507:28518   */\n      0x00\n        /* \"#utility.yul\":28544:28547   */\n      dup2\n        /* \"#utility.yul\":28529:28547   */\n      swap1\n      pop\n        /* \"#utility.yul\":28406:28553   */\n      swap3\n      swap2\n      pop\n      pop\n      jump\t// out\n        /* \"#utility.yul\":28559:28728   */\n    tag_605:\n        /* \"#utility.yul\":28643:28654   */\n      0x00\n        /* \"#utility.yul\":28677:28683   */\n      dup3\n        /* \"#utility.yul\":28672:28675   */\n      dup3\n        /* \"#utility.yul\":28665:28684   */\n      mstore\n        /* \"#utility.yul\":28717:28721   */\n      0x20\n        /* \"#utility.yul\":28712:28715   */\n      dup3\n        /* \"#utility.yul\":28708:28722   */\n      add\n        /* \"#utility.yul\":28693:28722   */\n      swap1\n      pop\n        /* \"#utility.yul\":28559:28728   */\n      swap3\n      swap2\n      pop\n      pop\n      jump\t// out\n        /* \"#utility.yul\":28734:29039   */\n    tag_417:\n        /* \"#utility.yul\":28774:28777   */\n      0x00\n        /* \"#utility.yul\":28793:28813   */\n      tag_803\n        /* \"#utility.yul\":28811:28812   */\n      dup3\n        /* \"#utility.yul\":28793:28813   */\n      tag_722\n      jump\t// in\n    tag_803:\n        /* \"#utility.yul\":28788:28813   */\n      swap2\n      pop\n        /* \"#utility.yul\":28827:28847   */\n      tag_804\n        /* \"#utility.yul\":28845:28846   */\n      dup4\n        /* \"#utility.yul\":28827:28847   */\n      tag_722\n      jump\t// in\n    tag_804:\n        /* \"#utility.yul\":28822:28847   */\n      swap3\n      pop\n        /* \"#utility.yul\":28981:28982   */\n      dup3\n        /* \"#utility.yul\":28913:28979   */\n      0xffffffffffffffffffffffffffffffffffffffffffffffffffffffffffffffff\n        /* \"#utility.yul\":28909:28983   */\n      sub\n        /* \"#utility.yul\":28906:28907   */\n      dup3\n        /* \"#utility.yul\":28903:28984   */\n      gt\n        /* \"#utility.yul\":28900:29007   */\n      iszero\n      tag_805\n      jumpi\n        /* \"#utility.yul\":28987:29005   */\n      tag_806\n      tag_807\n      jump\t// in\n    tag_806:\n        /* \"#utility.yul\":28900:29007   */\n    tag_805:\n        /* \"#utility.yul\":29031:29032   */\n      dup3\n        /* \"#utility.yul\":29028:29029   */\n      dup3\n        /* \"#utility.yul\":29024:29033   */\n      add\n        /* \"#utility.yul\":29017:29033   */\n      swap1\n      pop\n        /* \"#utility.yul\":28734:29039   */\n      swap3\n      swap2\n      pop\n      pop\n      jump\t// out\n        /* \"#utility.yul\":29045:29230   */\n    tag_420:\n        /* \"#utility.yul\":29085:29086   */\n      0x00\n        /* \"#utility.yul\":29102:29122   */\n      tag_809\n        /* \"#utility.yul\":29120:29121   */\n      dup3\n        /* \"#utility.yul\":29102:29122   */\n      tag_722\n      jump\t// in\n    tag_809:\n        /* \"#utility.yul\":29097:29122   */\n      swap2\n      pop\n        /* \"#utility.yul\":29136:29156   */\n      tag_810\n        /* \"#utility.yul\":29154:29155   */\n      dup4\n        /* \"#utility.yul\":29136:29156   */\n      tag_722\n      jump\t// in\n    tag_810:\n        /* \"#utility.yul\":29131:29156   */\n      swap3\n      pop\n        /* \"#utility.yul\":29175:29176   */\n      dup3\n        /* \"#utility.yul\":29165:29200   */\n      tag_811\n      jumpi\n        /* \"#utility.yul\":29180:29198   */\n      tag_812\n      tag_813\n      jump\t// in\n    tag_812:\n        /* \"#utility.yul\":29165:29200   */\n    tag_811:\n        /* \"#utility.yul\":29222:29223   */\n      dup3\n        /* \"#utility.yul\":29219:29220   */\n      dup3\n        /* \"#utility.yul\":29215:29224   */\n      div\n        /* \"#utility.yul\":29210:29224   */\n      swap1\n      pop\n        /* \"#utility.yul\":29045:29230   */\n      swap3\n      swap2\n      pop\n      pop\n      jump\t// out\n        /* \"#utility.yul\":29236:29584   */\n    tag_285:\n        /* \"#utility.yul\":29276:29283   */\n      0x00\n        /* \"#utility.yul\":29299:29319   */\n      tag_815\n        /* \"#utility.yul\":29317:29318   */\n      dup3\n        /* \"#utility.yul\":29299:29319   */\n      tag_722\n      jump\t// in\n    tag_815:\n        /* \"#utility.yul\":29294:29319   */\n      swap2\n      pop\n        /* \"#utility.yul\":29333:29353   */\n      tag_816\n        /* \"#utility.yul\":29351:29352   */\n      dup4\n        /* \"#utility.yul\":29333:29353   */\n      tag_722\n      jump\t// in\n    tag_816:\n        /* \"#utility.yul\":29328:29353   */\n      swap3\n      pop\n        /* \"#utility.yul\":29521:29522   */\n      dup2\n        /* \"#utility.yul\":29453:29519   */\n      0xffffffffffffffffffffffffffffffffffffffffffffffffffffffffffffffff\n        /* \"#utility.yul\":29449:29523   */\n      div\n        /* \"#utility.yul\":29446:29447   */\n      dup4\n        /* \"#utility.yul\":29443:29524   */\n      gt\n        /* \"#utility.yul\":29438:29439   */\n      dup3\n        /* \"#utility.yul\":29431:29440   */\n      iszero\n        /* \"#utility.yul\":29424:29441   */\n      iszero\n        /* \"#utility.yul\":29420:29525   */\n      and\n        /* \"#utility.yul\":29417:29548   */\n      iszero\n      tag_817\n      jumpi\n        /* \"#utility.yul\":29528:29546   */\n      tag_818\n      tag_807\n      jump\t// in\n    tag_818:\n        /* \"#utility.yul\":29417:29548   */\n    tag_817:\n        /* \"#utility.yul\":29576:29577   */\n      dup3\n        /* \"#utility.yul\":29573:29574   */\n      dup3\n        /* \"#utility.yul\":29569:29578   */\n      mul\n        /* \"#utility.yul\":29558:29578   */\n      swap1\n      pop\n        /* \"#utility.yul\":29236:29584   */\n      swap3\n      swap2\n      pop\n      pop\n      jump\t// out\n        /* \"#utility.yul\":29590:29781   */\n    tag_412:\n        /* \"#utility.yul\":29630:29634   */\n      0x00\n        /* \"#utility.yul\":29650:29670   */\n      tag_820\n        /* \"#utility.yul\":29668:29669   */\n      dup3\n        /* \"#utility.yul\":29650:29670   */\n      tag_722\n      jump\t// in\n    tag_820:\n        /* \"#utility.yul\":29645:29670   */\n      swap2\n      pop\n        /* \"#utility.yul\":29684:29704   */\n      tag_821\n        /* \"#utility.yul\":29702:29703   */\n      dup4\n        /* \"#utility.yul\":29684:29704   */\n      tag_722\n      jump\t// in\n    tag_821:\n        /* \"#utility.yul\":29679:29704   */\n      swap3\n      pop\n        /* \"#utility.yul\":29723:29724   */\n      dup3\n        /* \"#utility.yul\":29720:29721   */\n      dup3\n        /* \"#utility.yul\":29717:29725   */\n      lt\n        /* \"#utility.yul\":29714:29748   */\n      iszero\n      tag_822\n      jumpi\n        /* \"#utility.yul\":29728:29746   */\n      tag_823\n      tag_807\n      jump\t// in\n    tag_823:\n        /* \"#utility.yul\":29714:29748   */\n    tag_822:\n        /* \"#utility.yul\":29773:29774   */\n      dup3\n        /* \"#utility.yul\":29770:29771   */\n      dup3\n        /* \"#utility.yul\":29766:29775   */\n      sub\n        /* \"#utility.yul\":29758:29775   */\n      swap1\n      pop\n        /* \"#utility.yul\":29590:29781   */\n      swap3\n      swap2\n      pop\n      pop\n      jump\t// out\n        /* \"#utility.yul\":29787:29883   */\n    tag_583:\n        /* \"#utility.yul\":29824:29831   */\n      0x00\n        /* \"#utility.yul\":29853:29877   */\n      tag_825\n        /* \"#utility.yul\":29871:29876   */\n      dup3\n        /* \"#utility.yul\":29853:29877   */\n      tag_826\n      jump\t// in\n    tag_825:\n        /* \"#utility.yul\":29842:29877   */\n      swap1\n      pop\n        /* \"#utility.yul\":29787:29883   */\n      swap2\n      swap1\n      pop\n      jump\t// out\n        /* \"#utility.yul\":29889:29979   */\n    tag_587:\n        /* \"#utility.yul\":29923:29930   */\n      0x00\n        /* \"#utility.yul\":29966:29971   */\n      dup2\n        /* \"#utility.yul\":29959:29972   */\n      iszero\n        /* \"#utility.yul\":29952:29973   */\n      iszero\n        /* \"#utility.yul\":29941:29973   */\n      swap1\n      pop\n        /* \"#utility.yul\":29889:29979   */\n      swap2\n      swap1\n      pop\n      jump\t// out\n        /* \"#utility.yul\":29985:30095   */\n    tag_828:\n        /* \"#utility.yul\":30036:30043   */\n      0x00\n        /* \"#utility.yul\":30065:30089   */\n      tag_830\n        /* \"#utility.yul\":30083:30088   */\n      dup3\n        /* \"#utility.yul\":30065:30089   */\n      tag_583\n      jump\t// in\n    tag_830:\n        /* \"#utility.yul\":30054:30089   */\n      swap1\n      pop\n        /* \"#utility.yul\":29985:30095   */\n      swap2\n      swap1\n      pop\n      jump\t// out\n        /* \"#utility.yul\":30101:30227   */\n    tag_826:\n        /* \"#utility.yul\":30138:30145   */\n      0x00\n        /* \"#utility.yul\":30178:30220   */\n      0xffffffffffffffffffffffffffffffffffffffff\n        /* \"#utility.yul\":30171:30176   */\n      dup3\n        /* \"#utility.yul\":30167:30221   */\n      and\n        /* \"#utility.yul\":30156:30221   */\n      swap1\n      pop\n        /* \"#utility.yul\":30101:30227   */\n      swap2\n      swap1\n      pop\n      jump\t// out\n        /* \"#utility.yul\":30233:30310   */\n    tag_722:\n        /* \"#utility.yul\":30270:30277   */\n      0x00\n        /* \"#utility.yul\":30299:30304   */\n      dup2\n        /* \"#utility.yul\":30288:30304   */\n      swap1\n      pop\n        /* \"#utility.yul\":30233:30310   */\n      swap2\n      swap1\n      pop\n      jump\t// out\n        /* \"#utility.yul\":30316:30456   */\n    tag_599:\n        /* \"#utility.yul\":30380:30389   */\n      0x00\n        /* \"#utility.yul\":30413:30450   */\n      tag_834\n        /* \"#utility.yul\":30444:30449   */\n      dup3\n        /* \"#utility.yul\":30413:30450   */\n      tag_835\n      jump\t// in\n    tag_834:\n        /* \"#utility.yul\":30400:30450   */\n      swap1\n      pop\n        /* \"#utility.yul\":30316:30456   */\n      swap2\n      swap1\n      pop\n      jump\t// out\n        /* \"#utility.yul\":30462:30588   */\n    tag_835:\n        /* \"#utility.yul\":30512:30521   */\n      0x00\n        /* \"#utility.yul\":30545:30582   */\n      tag_837\n        /* \"#utility.yul\":30576:30581   */\n      dup3\n        /* \"#utility.yul\":30545:30582   */\n      tag_838\n      jump\t// in\n    tag_837:\n        /* \"#utility.yul\":30532:30582   */\n      swap1\n      pop\n        /* \"#utility.yul\":30462:30588   */\n      swap2\n      swap1\n      pop\n      jump\t// out\n        /* \"#utility.yul\":30594:30707   */\n    tag_838:\n        /* \"#utility.yul\":30644:30653   */\n      0x00\n        /* \"#utility.yul\":30677:30701   */\n      tag_840\n        /* \"#utility.yul\":30695:30700   */\n      dup3\n        /* \"#utility.yul\":30677:30701   */\n      tag_826\n      jump\t// in\n    tag_840:\n        /* \"#utility.yul\":30664:30701   */\n      swap1\n      pop\n        /* \"#utility.yul\":30594:30707   */\n      swap2\n      swap1\n      pop\n      jump\t// out\n        /* \"#utility.yul\":30713:31020   */\n    tag_595:\n        /* \"#utility.yul\":30781:30782   */\n      0x00\n        /* \"#utility.yul\":30791:30904   */\n    tag_842:\n        /* \"#utility.yul\":30805:30811   */\n      dup4\n        /* \"#utility.yul\":30802:30803   */\n      dup2\n        /* \"#utility.yul\":30799:30812   */\n      lt\n        /* \"#utility.yul\":30791:30904   */\n      iszero\n      tag_844\n      jumpi\n        /* \"#utility.yul\":30890:30891   */\n      dup1\n        /* \"#utility.yul\":30885:30888   */\n      dup3\n        /* \"#utility.yul\":30881:30892   */\n      add\n        /* \"#utility.yul\":30875:30893   */\n      mload\n        /* \"#utility.yul\":30871:30872   */\n      dup2\n        /* \"#utility.yul\":30866:30869   */\n      dup5\n        /* \"#utility.yul\":30862:30873   */\n      add\n        /* \"#utility.yul\":30855:30894   */\n      mstore\n        /* \"#utility.yul\":30827:30829   */\n      0x20\n        /* \"#utility.yul\":30824:30825   */\n      dup2\n        /* \"#utility.yul\":30820:30830   */\n      add\n        /* \"#utility.yul\":30815:30830   */\n      swap1\n      pop\n        /* \"#utility.yul\":30791:30904   */\n      jump(tag_842)\n    tag_844:\n        /* \"#utility.yul\":30922:30928   */\n      dup4\n        /* \"#utility.yul\":30919:30920   */\n      dup2\n        /* \"#utility.yul\":30916:30929   */\n      gt\n        /* \"#utility.yul\":30913:31014   */\n      iszero\n      tag_845\n      jumpi\n        /* \"#utility.yul\":31002:31003   */\n      0x00\n        /* \"#utility.yul\":30993:30999   */\n      dup5\n        /* \"#utility.yul\":30988:30991   */\n      dup5\n        /* \"#utility.yul\":30984:31000   */\n      add\n        /* \"#utility.yul\":30977:31004   */\n      mstore\n        /* \"#utility.yul\":30913:31014   */\n    tag_845:\n        /* \"#utility.yul\":30762:31020   */\n      pop\n        /* \"#utility.yul\":30713:31020   */\n      pop\n      pop\n      pop\n      jump\t// out\n        /* \"#utility.yul\":31026:31307   */\n    tag_790:\n        /* \"#utility.yul\":31109:31136   */\n      tag_847\n        /* \"#utility.yul\":31131:31135   */\n      dup3\n        /* \"#utility.yul\":31109:31136   */\n      tag_608\n      jump\t// in\n    tag_847:\n        /* \"#utility.yul\":31101:31107   */\n      dup2\n        /* \"#utility.yul\":31097:31137   */\n      add\n        /* \"#utility.yul\":31239:31245   */\n      dup2\n        /* \"#utility.yul\":31227:31237   */\n      dup2\n        /* \"#utility.yul\":31224:31246   */\n      lt\n        /* \"#utility.yul\":31203:31221   */\n      0xffffffffffffffff\n        /* \"#utility.yul\":31191:31201   */\n      dup3\n        /* \"#utility.yul\":31188:31222   */\n      gt\n        /* \"#utility.yul\":31185:31247   */\n      or\n        /* \"#utility.yul\":31182:31270   */\n      iszero\n      tag_848\n      jumpi\n        /* \"#utility.yul\":31250:31268   */\n      tag_849\n      tag_439\n      jump\t// in\n    tag_849:\n        /* \"#utility.yul\":31182:31270   */\n    tag_848:\n        /* \"#utility.yul\":31290:31300   */\n      dup1\n        /* \"#utility.yul\":31286:31288   */\n      0x40\n        /* \"#utility.yul\":31279:31301   */\n      mstore\n        /* \"#utility.yul\":31069:31307   */\n      pop\n        /* \"#utility.yul\":31026:31307   */\n      pop\n      pop\n      jump\t// out\n        /* \"#utility.yul\":31313:31546   */\n    tag_270:\n        /* \"#utility.yul\":31352:31355   */\n      0x00\n        /* \"#utility.yul\":31375:31399   */\n      tag_851\n        /* \"#utility.yul\":31393:31398   */\n      dup3\n        /* \"#utility.yul\":31375:31399   */\n      tag_722\n      jump\t// in\n    tag_851:\n        /* \"#utility.yul\":31366:31399   */\n      swap2\n      pop\n        /* \"#utility.yul\":31421:31487   */\n      0xffffffffffffffffffffffffffffffffffffffffffffffffffffffffffffffff\n        /* \"#utility.yul\":31414:31419   */\n      dup3\n        /* \"#utility.yul\":31411:31488   */\n      eq\n        /* \"#utility.yul\":31408:31511   */\n      iszero\n      tag_852\n      jumpi\n        /* \"#utility.yul\":31491:31509   */\n      tag_853\n      tag_807\n      jump\t// in\n    tag_853:\n        /* \"#utility.yul\":31408:31511   */\n    tag_852:\n        /* \"#utility.yul\":31538:31539   */\n      0x01\n        /* \"#utility.yul\":31531:31536   */\n      dup3\n        /* \"#utility.yul\":31527:31540   */\n      add\n        /* \"#utility.yul\":31520:31540   */\n      swap1\n      pop\n        /* \"#utility.yul\":31313:31546   */\n      swap2\n      swap1\n      pop\n      jump\t// out\n        /* \"#utility.yul\":31552:31732   */\n    tag_807:\n        /* \"#utility.yul\":31600:31677   */\n      0x4e487b7100000000000000000000000000000000000000000000000000000000\n        /* \"#utility.yul\":31597:31598   */\n      0x00\n        /* \"#utility.yul\":31590:31678   */\n      mstore\n        /* \"#utility.yul\":31697:31701   */\n      0x11\n        /* \"#utility.yul\":31694:31695   */\n      0x04\n        /* \"#utility.yul\":31687:31702   */\n      mstore\n        /* \"#utility.yul\":31721:31725   */\n      0x24\n        /* \"#utility.yul\":31718:31719   */\n      0x00\n        /* \"#utility.yul\":31711:31726   */\n      revert\n        /* \"#utility.yul\":31738:31918   */\n    tag_813:\n        /* \"#utility.yul\":31786:31863   */\n      0x4e487b7100000000000000000000000000000000000000000000000000000000\n        /* \"#utility.yul\":31783:31784   */\n      0x00\n        /* \"#utility.yul\":31776:31864   */\n      mstore\n        /* \"#utility.yul\":31883:31887   */\n      0x12\n        /* \"#utility.yul\":31880:31881   */\n      0x04\n        /* \"#utility.yul\":31873:31888   */\n      mstore\n        /* \"#utility.yul\":31907:31911   */\n      0x24\n        /* \"#utility.yul\":31904:31905   */\n      0x00\n        /* \"#utility.yul\":31897:31912   */\n      revert\n        /* \"#utility.yul\":31924:32104   */\n    tag_249:\n        /* \"#utility.yul\":31972:32049   */\n      0x4e487b7100000000000000000000000000000000000000000000000000000000\n        /* \"#utility.yul\":31969:31970   */\n      0x00\n        /* \"#utility.yul\":31962:32050   */\n      mstore\n        /* \"#utility.yul\":32069:32073   */\n      0x32\n        /* \"#utility.yul\":32066:32067   */\n      0x04\n        /* \"#utility.yul\":32059:32074   */\n      mstore\n        /* \"#utility.yul\":32093:32097   */\n      0x24\n        /* \"#utility.yul\":32090:32091   */\n      0x00\n        /* \"#utility.yul\":32083:32098   */\n      revert\n        /* \"#utility.yul\":32110:32290   */\n    tag_439:\n        /* \"#utility.yul\":32158:32235   */\n      0x4e487b7100000000000000000000000000000000000000000000000000000000\n        /* \"#utility.yul\":32155:32156   */\n      0x00\n        /* \"#utility.yul\":32148:32236   */\n      mstore\n        /* \"#utility.yul\":32255:32259   */\n      0x41\n        /* \"#utility.yul\":32252:32253   */\n      0x04\n        /* \"#utility.yul\":32245:32260   */\n      mstore\n        /* \"#utility.yul\":32279:32283   */\n      0x24\n        /* \"#utility.yul\":32276:32277   */\n      0x00\n        /* \"#utility.yul\":32269:32284   */\n      revert\n        /* \"#utility.yul\":32296:32413   */\n    tag_522:\n        /* \"#utility.yul\":32405:32406   */\n      0x00\n        /* \"#utility.yul\":32402:32403   */\n      dup1\n        /* \"#utility.yul\":32395:32407   */\n      revert\n        /* \"#utility.yul\":32419:32536   */\n    tag_497:\n        /* \"#utility.yul\":32528:32529   */\n      0x00\n        /* \"#utility.yul\":32525:32526   */\n      dup1\n        /* \"#utility.yul\":32518:32530   */\n      revert\n        /* \"#utility.yul\":32542:32659   */\n    tag_553:\n        /* \"#utility.yul\":32651:32652   */\n      0x00\n        /* \"#utility.yul\":32648:32649   */\n      dup1\n        /* \"#utility.yul\":32641:32653   */\n      revert\n        /* \"#utility.yul\":32665:32782   */\n    tag_546:\n        /* \"#utility.yul\":32774:32775   */\n      0x00\n        /* \"#utility.yul\":32771:32772   */\n      dup1\n        /* \"#utility.yul\":32764:32776   */\n      revert\n        /* \"#utility.yul\":32788:32890   */\n    tag_608:\n        /* \"#utility.yul\":32829:32835   */\n      0x00\n        /* \"#utility.yul\":32880:32882   */\n      0x1f\n        /* \"#utility.yul\":32876:32883   */\n      not\n        /* \"#utility.yul\":32871:32873   */\n      0x1f\n        /* \"#utility.yul\":32864:32869   */\n      dup4\n        /* \"#utility.yul\":32860:32874   */\n      add\n        /* \"#utility.yul\":32856:32884   */\n      and\n        /* \"#utility.yul\":32846:32884   */\n      swap1\n      pop\n        /* \"#utility.yul\":32788:32890   */\n      swap2\n      swap1\n      pop\n      jump\t// out\n        /* \"#utility.yul\":32896:33136   */\n    tag_613:\n        /* \"#utility.yul\":33036:33070   */\n      0x41424f41543a64697361626c6557686974656c6973743a2057686974656c6973\n        /* \"#utility.yul\":33032:33033   */\n      0x00\n        /* \"#utility.yul\":33024:33030   */\n      dup3\n        /* \"#utility.yul\":33020:33034   */\n      add\n        /* \"#utility.yul\":33013:33071   */\n      mstore\n        /* \"#utility.yul\":33105:33128   */\n      0x7420697320616c72656164792064697361626c65640000000000000000000000\n        /* \"#utility.yul\":33100:33102   */\n      0x20\n        /* \"#utility.yul\":33092:33098   */\n      dup3\n        /* \"#utility.yul\":33088:33103   */\n      add\n        /* \"#utility.yul\":33081:33129   */\n      mstore\n        /* \"#utility.yul\":32896:33136   */\n      pop\n      jump\t// out\n        /* \"#utility.yul\":33142:33367   */\n    tag_618:\n        /* \"#utility.yul\":33282:33316   */\n      0x4f776e61626c653a206e6577206f776e657220697320746865207a65726f2061\n        /* \"#utility.yul\":33278:33279   */\n      0x00\n        /* \"#utility.yul\":33270:33276   */\n      dup3\n        /* \"#utility.yul\":33266:33280   */\n      add\n        /* \"#utility.yul\":33259:33317   */\n      mstore\n        /* \"#utility.yul\":33351:33359   */\n      0x6464726573730000000000000000000000000000000000000000000000000000\n        /* \"#utility.yul\":33346:33348   */\n      0x20\n        /* \"#utility.yul\":33338:33344   */\n      dup3\n        /* \"#utility.yul\":33334:33349   */\n      add\n        /* \"#utility.yul\":33327:33360   */\n      mstore\n        /* \"#utility.yul\":33142:33367   */\n      pop\n      jump\t// out\n        /* \"#utility.yul\":33373:33617   */\n    tag_623:\n        /* \"#utility.yul\":33513:33547   */\n      0x41424f41543a3a6275793a20416d6f756e7420776f756c642065786365656420\n        /* \"#utility.yul\":33509:33510   */\n      0x00\n        /* \"#utility.yul\":33501:33507   */\n      dup3\n        /* \"#utility.yul\":33497:33511   */\n      add\n        /* \"#utility.yul\":33490:33548   */\n      mstore\n        /* \"#utility.yul\":33582:33609   */\n      0x746865206d6178696d756d20616c6c6f776564206c696d697400000000000000\n        /* \"#utility.yul\":33577:33579   */\n      0x20\n        /* \"#utility.yul\":33569:33575   */\n      dup3\n        /* \"#utility.yul\":33565:33580   */\n      add\n        /* \"#utility.yul\":33558:33610   */\n      mstore\n        /* \"#utility.yul\":33373:33617   */\n      pop\n      jump\t// out\n        /* \"#utility.yul\":33623:33862   */\n    tag_628:\n        /* \"#utility.yul\":33763:33797   */\n      0x5472616e7366657248656c7065723a3a736166655472616e736665724554483a\n        /* \"#utility.yul\":33759:33760   */\n      0x00\n        /* \"#utility.yul\":33751:33757   */\n      dup3\n        /* \"#utility.yul\":33747:33761   */\n      add\n        /* \"#utility.yul\":33740:33798   */\n      mstore\n        /* \"#utility.yul\":33832:33854   */\n      0x20455448207472616e73666572206661696c6564000000000000000000000000\n        /* \"#utility.yul\":33827:33829   */\n      0x20\n        /* \"#utility.yul\":33819:33825   */\n      dup3\n        /* \"#utility.yul\":33815:33830   */\n      add\n        /* \"#utility.yul\":33808:33855   */\n      mstore\n        /* \"#utility.yul\":33623:33862   */\n      pop\n      jump\t// out\n        /* \"#utility.yul\":33868:34096   */\n    tag_633:\n        /* \"#utility.yul\":34008:34042   */\n      0x41424f41543a3a636c61696d3a20436c61696d206973206e6f7420617661696c\n        /* \"#utility.yul\":34004:34005   */\n      0x00\n        /* \"#utility.yul\":33996:34002   */\n      dup3\n        /* \"#utility.yul\":33992:34006   */\n      add\n        /* \"#utility.yul\":33985:34043   */\n      mstore\n        /* \"#utility.yul\":34077:34088   */\n      0x61626c65207965742e0000000000000000000000000000000000000000000000\n        /* \"#utility.yul\":34072:34074   */\n      0x20\n        /* \"#utility.yul\":34064:34070   */\n      dup3\n        /* \"#utility.yul\":34060:34075   */\n      add\n        /* \"#utility.yul\":34053:34089   */\n      mstore\n        /* \"#utility.yul\":33868:34096   */\n      pop\n      jump\t// out\n        /* \"#utility.yul\":34102:34349   */\n    tag_638:\n        /* \"#utility.yul\":34242:34276   */\n      0x41424f41543a3a636c61696d3a20416c726561647920636c61696d656420796f\n        /* \"#utility.yul\":34238:34239   */\n      0x00\n        /* \"#utility.yul\":34230:34236   */\n      dup3\n        /* \"#utility.yul\":34226:34240   */\n      add\n        /* \"#utility.yul\":34219:34277   */\n      mstore\n        /* \"#utility.yul\":34311:34341   */\n      0x75722063757272656e746c7920656c696769626c6520746f6b656e7300000000\n        /* \"#utility.yul\":34306:34308   */\n      0x20\n        /* \"#utility.yul\":34298:34304   */\n      dup3\n        /* \"#utility.yul\":34294:34309   */\n      add\n        /* \"#utility.yul\":34287:34342   */\n      mstore\n        /* \"#utility.yul\":34102:34349   */\n      pop\n      jump\t// out\n        /* \"#utility.yul\":34355:34580   */\n    tag_643:\n        /* \"#utility.yul\":34495:34529   */\n      0x416464726573733a20696e73756666696369656e742062616c616e636520666f\n        /* \"#utility.yul\":34491:34492   */\n      0x00\n        /* \"#utility.yul\":34483:34489   */\n      dup3\n        /* \"#utility.yul\":34479:34493   */\n      add\n        /* \"#utility.yul\":34472:34530   */\n      mstore\n        /* \"#utility.yul\":34564:34572   */\n      0x722063616c6c0000000000000000000000000000000000000000000000000000\n        /* \"#utility.yul\":34559:34561   */\n      0x20\n        /* \"#utility.yul\":34551:34557   */\n      dup3\n        /* \"#utility.yul\":34547:34562   */\n      add\n        /* \"#utility.yul\":34540:34573   */\n      mstore\n        /* \"#utility.yul\":34355:34580   */\n      pop\n      jump\t// out\n        /* \"#utility.yul\":34586:34822   */\n    tag_648:\n        /* \"#utility.yul\":34726:34760   */\n      0x41424f41543a3a6275793a20596f75277265206e6f742077686974656c697374\n        /* \"#utility.yul\":34722:34723   */\n      0x00\n        /* \"#utility.yul\":34714:34720   */\n      dup3\n        /* \"#utility.yul\":34710:34724   */\n      add\n        /* \"#utility.yul\":34703:34761   */\n      mstore\n        /* \"#utility.yul\":34795:34814   */\n      0x656420666f7220746869732073616c6521000000000000000000000000000000\n        /* \"#utility.yul\":34790:34792   */\n      0x20\n        /* \"#utility.yul\":34782:34788   */\n      dup3\n        /* \"#utility.yul\":34778:34793   */\n      add\n        /* \"#utility.yul\":34771:34815   */\n      mstore\n        /* \"#utility.yul\":34586:34822   */\n      pop\n      jump\t// out\n        /* \"#utility.yul\":34828:35124   */\n    tag_653:\n        /* \"#utility.yul\":34968:35002   */\n      0x41424f41543a3a77686974656c6973743a20596f752063616e27742061646420\n        /* \"#utility.yul\":34964:34965   */\n      0x00\n        /* \"#utility.yul\":34956:34962   */\n      dup3\n        /* \"#utility.yul\":34952:34966   */\n      add\n        /* \"#utility.yul\":34945:35003   */\n      mstore\n        /* \"#utility.yul\":35037:35071   */\n      0x6d6f7265207468616e2031303020616464726573736573206174207468652073\n        /* \"#utility.yul\":35032:35034   */\n      0x20\n        /* \"#utility.yul\":35024:35030   */\n      dup3\n        /* \"#utility.yul\":35020:35035   */\n      add\n        /* \"#utility.yul\":35013:35072   */\n      mstore\n        /* \"#utility.yul\":35106:35116   */\n      0x616d652074696d65000000000000000000000000000000000000000000000000\n        /* \"#utility.yul\":35101:35103   */\n      0x40\n        /* \"#utility.yul\":35093:35099   */\n      dup3\n        /* \"#utility.yul\":35089:35104   */\n      add\n        /* \"#utility.yul\":35082:35117   */\n      mstore\n        /* \"#utility.yul\":34828:35124   */\n      pop\n      jump\t// out\n        /* \"#utility.yul\":35130:35424   */\n    tag_658:\n        /* \"#utility.yul\":35270:35304   */\n      0x41424f41543a3a757064617465526577617264546f6b656e3a204e6577207265\n        /* \"#utility.yul\":35266:35267   */\n      0x00\n        /* \"#utility.yul\":35258:35264   */\n      dup3\n        /* \"#utility.yul\":35254:35268   */\n      add\n        /* \"#utility.yul\":35247:35305   */\n      mstore\n        /* \"#utility.yul\":35339:35373   */\n      0x776172642073686f756c6420626520646966666572656e742066726f6d206375\n        /* \"#utility.yul\":35334:35336   */\n      0x20\n        /* \"#utility.yul\":35326:35332   */\n      dup3\n        /* \"#utility.yul\":35322:35337   */\n      add\n        /* \"#utility.yul\":35315:35374   */\n      mstore\n        /* \"#utility.yul\":35408:35416   */\n      0x7272656e742e0000000000000000000000000000000000000000000000000000\n        /* \"#utility.yul\":35403:35405   */\n      0x40\n        /* \"#utility.yul\":35395:35401   */\n      dup3\n        /* \"#utility.yul\":35391:35406   */\n      add\n        /* \"#utility.yul\":35384:35417   */\n      mstore\n        /* \"#utility.yul\":35130:35424   */\n      pop\n      jump\t// out\n        /* \"#utility.yul\":35430:35747   */\n    tag_663:\n        /* \"#utility.yul\":35570:35604   */\n      0x41424f41543a3a636c61696d3a205468652070657263656e74616765206f6620\n        /* \"#utility.yul\":35566:35567   */\n      0x00\n        /* \"#utility.yul\":35558:35564   */\n      dup3\n        /* \"#utility.yul\":35554:35568   */\n      add\n        /* \"#utility.yul\":35547:35605   */\n      mstore\n        /* \"#utility.yul\":35639:35673   */\n      0x746f6b656e20796f752063616e20636c61696d2069732063757272656e746c79\n        /* \"#utility.yul\":35634:35636   */\n      0x20\n        /* \"#utility.yul\":35626:35632   */\n      dup3\n        /* \"#utility.yul\":35622:35637   */\n      add\n        /* \"#utility.yul\":35615:35674   */\n      mstore\n        /* \"#utility.yul\":35708:35739   */\n      0x207a65726f2e20506c656173652074727920616761696e206c61746572000000\n        /* \"#utility.yul\":35703:35705   */\n      0x40\n        /* \"#utility.yul\":35695:35701   */\n      dup3\n        /* \"#utility.yul\":35691:35706   */\n      add\n        /* \"#utility.yul\":35684:35740   */\n      mstore\n        /* \"#utility.yul\":35430:35747   */\n      pop\n      jump\t// out\n        /* \"#utility.yul\":35753:36133   */\n    tag_668:\n        /* \"#utility.yul\":35893:35927   */\n      0x41424f41543a3a757064617465526577617264546f6b656e3a2054686520636f\n        /* \"#utility.yul\":35889:35890   */\n      0x00\n        /* \"#utility.yul\":35881:35887   */\n      dup3\n        /* \"#utility.yul\":35877:35891   */\n      add\n        /* \"#utility.yul\":35870:35928   */\n      mstore\n        /* \"#utility.yul\":35962:35996   */\n      0x6e74726163742073686f756c6420636f6e7461696e2061746c65617374207468\n        /* \"#utility.yul\":35957:35959   */\n      0x20\n        /* \"#utility.yul\":35949:35955   */\n      dup3\n        /* \"#utility.yul\":35945:35960   */\n      add\n        /* \"#utility.yul\":35938:35997   */\n      mstore\n        /* \"#utility.yul\":36031:36065   */\n      0x652073616d6520616d6f756e74206f6620746f6b656e732061732066726f6d20\n        /* \"#utility.yul\":36026:36028   */\n      0x40\n        /* \"#utility.yul\":36018:36024   */\n      dup3\n        /* \"#utility.yul\":36014:36029   */\n      add\n        /* \"#utility.yul\":36007:36066   */\n      mstore\n        /* \"#utility.yul\":36100:36125   */\n      0x7468652063757272656e7420726577617264546f6b656e000000000000000000\n        /* \"#utility.yul\":36095:36097   */\n      0x60\n        /* \"#utility.yul\":36087:36093   */\n      dup3\n        /* \"#utility.yul\":36083:36098   */\n      add\n        /* \"#utility.yul\":36076:36126   */\n      mstore\n        /* \"#utility.yul\":35753:36133   */\n      pop\n      jump\t// out\n        /* \"#utility.yul\":36139:36321   */\n    tag_673:\n        /* \"#utility.yul\":36279:36313   */\n      0x4f776e61626c653a2063616c6c6572206973206e6f7420746865206f776e6572\n        /* \"#utility.yul\":36275:36276   */\n      0x00\n        /* \"#utility.yul\":36267:36273   */\n      dup3\n        /* \"#utility.yul\":36263:36277   */\n      add\n        /* \"#utility.yul\":36256:36314   */\n      mstore\n        /* \"#utility.yul\":36139:36321   */\n      pop\n      jump\t// out\n        /* \"#utility.yul\":36327:36567   */\n    tag_678:\n        /* \"#utility.yul\":36467:36501   */\n      0x41424f41543a3a6275793a20416d6f756e7420776f756c642065786365656420\n        /* \"#utility.yul\":36463:36464   */\n      0x00\n        /* \"#utility.yul\":36455:36461   */\n      dup3\n        /* \"#utility.yul\":36451:36465   */\n      add\n        /* \"#utility.yul\":36444:36502   */\n      mstore\n        /* \"#utility.yul\":36536:36559   */\n      0x7468652072656d61696e696e672062616c616e63650000000000000000000000\n        /* \"#utility.yul\":36531:36533   */\n      0x20\n        /* \"#utility.yul\":36523:36529   */\n      dup3\n        /* \"#utility.yul\":36519:36534   */\n      add\n        /* \"#utility.yul\":36512:36560   */\n      mstore\n        /* \"#utility.yul\":36327:36567   */\n      pop\n      jump\t// out\n        /* \"#utility.yul\":36573:36752   */\n    tag_683:\n        /* \"#utility.yul\":36713:36744   */\n      0x416464726573733a2063616c6c20746f206e6f6e2d636f6e7472616374000000\n        /* \"#utility.yul\":36709:36710   */\n      0x00\n        /* \"#utility.yul\":36701:36707   */\n      dup3\n        /* \"#utility.yul\":36697:36711   */\n      add\n        /* \"#utility.yul\":36690:36745   */\n      mstore\n        /* \"#utility.yul\":36573:36752   */\n      pop\n      jump\t// out\n        /* \"#utility.yul\":36758:36980   */\n    tag_688:\n        /* \"#utility.yul\":36898:36932   */\n      0x41424f41543a3a636c61696d3a2053616c65206973206e6f74206f7665722079\n        /* \"#utility.yul\":36894:36895   */\n      0x00\n        /* \"#utility.yul\":36886:36892   */\n      dup3\n        /* \"#utility.yul\":36882:36896   */\n      add\n        /* \"#utility.yul\":36875:36933   */\n      mstore\n        /* \"#utility.yul\":36967:36972   */\n      0x6574210000000000000000000000000000000000000000000000000000000000\n        /* \"#utility.yul\":36962:36964   */\n      0x20\n        /* \"#utility.yul\":36954:36960   */\n      dup3\n        /* \"#utility.yul\":36950:36965   */\n      add\n        /* \"#utility.yul\":36943:36973   */\n      mstore\n        /* \"#utility.yul\":36758:36980   */\n      pop\n      jump\t// out\n        /* \"#utility.yul\":36986:37218   */\n    tag_693:\n        /* \"#utility.yul\":37126:37160   */\n      0x5472616e7366657248656c7065723a3a736166655472616e736665723a207472\n        /* \"#utility.yul\":37122:37123   */\n      0x00\n        /* \"#utility.yul\":37114:37120   */\n      dup3\n        /* \"#utility.yul\":37110:37124   */\n      add\n        /* \"#utility.yul\":37103:37161   */\n      mstore\n        /* \"#utility.yul\":37195:37210   */\n      0x616e73666572206661696c656400000000000000000000000000000000000000\n        /* \"#utility.yul\":37190:37192   */\n      0x20\n        /* \"#utility.yul\":37182:37188   */\n      dup3\n        /* \"#utility.yul\":37178:37193   */\n      add\n        /* \"#utility.yul\":37171:37211   */\n      mstore\n        /* \"#utility.yul\":36986:37218   */\n      pop\n      jump\t// out\n        /* \"#utility.yul\":37224:37453   */\n    tag_698:\n        /* \"#utility.yul\":37364:37398   */\n      0x41424f41543a3a636c61696d416e64456e6453616c653a2053616c6520616c72\n        /* \"#utility.yul\":37360:37361   */\n      0x00\n        /* \"#utility.yul\":37352:37358   */\n      dup3\n        /* \"#utility.yul\":37348:37362   */\n      add\n        /* \"#utility.yul\":37341:37399   */\n      mstore\n        /* \"#utility.yul\":37433:37445   */\n      0x6561647920656e64656400000000000000000000000000000000000000000000\n        /* \"#utility.yul\":37428:37430   */\n      0x20\n        /* \"#utility.yul\":37420:37426   */\n      dup3\n        /* \"#utility.yul\":37416:37431   */\n      add\n        /* \"#utility.yul\":37409:37446   */\n      mstore\n        /* \"#utility.yul\":37224:37453   */\n      pop\n      jump\t// out\n        /* \"#utility.yul\":37459:37688   */\n    tag_703:\n        /* \"#utility.yul\":37599:37633   */\n      0x5361666545524332303a204552433230206f7065726174696f6e20646964206e\n        /* \"#utility.yul\":37595:37596   */\n      0x00\n        /* \"#utility.yul\":37587:37593   */\n      dup3\n        /* \"#utility.yul\":37583:37597   */\n      add\n        /* \"#utility.yul\":37576:37634   */\n      mstore\n        /* \"#utility.yul\":37668:37680   */\n      0x6f74207375636365656400000000000000000000000000000000000000000000\n        /* \"#utility.yul\":37663:37665   */\n      0x20\n        /* \"#utility.yul\":37655:37661   */\n      dup3\n        /* \"#utility.yul\":37651:37666   */\n      add\n        /* \"#utility.yul\":37644:37681   */\n      mstore\n        /* \"#utility.yul\":37459:37688   */\n      pop\n      jump\t// out\n        /* \"#utility.yul\":37694:37919   */\n    tag_708:\n        /* \"#utility.yul\":37834:37868   */\n      0x41424f41543a3a7570646174654166746572446179733a2053616c65206e6f74\n        /* \"#utility.yul\":37830:37831   */\n      0x00\n        /* \"#utility.yul\":37822:37828   */\n      dup3\n        /* \"#utility.yul\":37818:37832   */\n      add\n        /* \"#utility.yul\":37811:37869   */\n      mstore\n        /* \"#utility.yul\":37903:37911   */\n      0x20656e6465640000000000000000000000000000000000000000000000000000\n        /* \"#utility.yul\":37898:37900   */\n      0x20\n        /* \"#utility.yul\":37890:37896   */\n      dup3\n        /* \"#utility.yul\":37886:37901   */\n      add\n        /* \"#utility.yul\":37879:37912   */\n      mstore\n        /* \"#utility.yul\":37694:37919   */\n      pop\n      jump\t// out\n        /* \"#utility.yul\":37925:38106   */\n    tag_713:\n        /* \"#utility.yul\":38065:38098   */\n      0x41424f41543a3a6275793a2053616c6520616c726561647920656e6465642100\n        /* \"#utility.yul\":38061:38062   */\n      0x00\n        /* \"#utility.yul\":38053:38059   */\n      dup3\n        /* \"#utility.yul\":38049:38063   */\n      add\n        /* \"#utility.yul\":38042:38099   */\n      mstore\n        /* \"#utility.yul\":37925:38106   */\n      pop\n      jump\t// out\n        /* \"#utility.yul\":38112:38351   */\n    tag_718:\n        /* \"#utility.yul\":38252:38286   */\n      0x41424f41543a3a6275793a2053656e742076616c756520646f65736e2774206d\n        /* \"#utility.yul\":38248:38249   */\n      0x00\n        /* \"#utility.yul\":38240:38246   */\n      dup3\n        /* \"#utility.yul\":38236:38250   */\n      add\n        /* \"#utility.yul\":38229:38287   */\n      mstore\n        /* \"#utility.yul\":38321:38343   */\n      0x6565742074686520676976656e20616d6f756e74000000000000000000000000\n        /* \"#utility.yul\":38316:38318   */\n      0x20\n        /* \"#utility.yul\":38308:38314   */\n      dup3\n        /* \"#utility.yul\":38304:38319   */\n      add\n        /* \"#utility.yul\":38297:38344   */\n      mstore\n        /* \"#utility.yul\":38112:38351   */\n      pop\n      jump\t// out\n        /* \"#utility.yul\":38357:38479   */\n    tag_517:\n        /* \"#utility.yul\":38430:38454   */\n      tag_886\n        /* \"#utility.yul\":38448:38453   */\n      dup2\n        /* \"#utility.yul\":38430:38454   */\n      tag_583\n      jump\t// in\n    tag_886:\n        /* \"#utility.yul\":38423:38428   */\n      dup2\n        /* \"#utility.yul\":38420:38455   */\n      eq\n        /* \"#utility.yul\":38410:38473   */\n      tag_887\n      jumpi\n        /* \"#utility.yul\":38469:38470   */\n      0x00\n        /* \"#utility.yul\":38466:38467   */\n      dup1\n        /* \"#utility.yul\":38459:38471   */\n      revert\n        /* \"#utility.yul\":38410:38473   */\n    tag_887:\n        /* \"#utility.yul\":38357:38479   */\n      pop\n      jump\t// out\n        /* \"#utility.yul\":38485:38601   */\n    tag_532:\n        /* \"#utility.yul\":38555:38576   */\n      tag_889\n        /* \"#utility.yul\":38570:38575   */\n      dup2\n        /* \"#utility.yul\":38555:38576   */\n      tag_587\n      jump\t// in\n    tag_889:\n        /* \"#utility.yul\":38548:38553   */\n      dup2\n        /* \"#utility.yul\":38545:38577   */\n      eq\n        /* \"#utility.yul\":38535:38595   */\n      tag_890\n      jumpi\n        /* \"#utility.yul\":38591:38592   */\n      0x00\n        /* \"#utility.yul\":38588:38589   */\n      dup1\n        /* \"#utility.yul\":38581:38593   */\n      revert\n        /* \"#utility.yul\":38535:38595   */\n    tag_890:\n        /* \"#utility.yul\":38485:38601   */\n      pop\n      jump\t// out\n        /* \"#utility.yul\":38607:38757   */\n    tag_536:\n        /* \"#utility.yul\":38694:38732   */\n      tag_892\n        /* \"#utility.yul\":38726:38731   */\n      dup2\n        /* \"#utility.yul\":38694:38732   */\n      tag_828\n      jump\t// in\n    tag_892:\n        /* \"#utility.yul\":38687:38692   */\n      dup2\n        /* \"#utility.yul\":38684:38733   */\n      eq\n        /* \"#utility.yul\":38674:38751   */\n      tag_893\n      jumpi\n        /* \"#utility.yul\":38747:38748   */\n      0x00\n        /* \"#utility.yul\":38744:38745   */\n      dup1\n        /* \"#utility.yul\":38737:38749   */\n      revert\n        /* \"#utility.yul\":38674:38751   */\n    tag_893:\n        /* \"#utility.yul\":38607:38757   */\n      pop\n      jump\t// out\n        /* \"#utility.yul\":38763:38885   */\n    tag_539:\n        /* \"#utility.yul\":38836:38860   */\n      tag_895\n        /* \"#utility.yul\":38854:38859   */\n      dup2\n        /* \"#utility.yul\":38836:38860   */\n      tag_722\n      jump\t// in\n    tag_895:\n        /* \"#utility.yul\":38829:38834   */\n      dup2\n        /* \"#utility.yul\":38826:38861   */\n      eq\n        /* \"#utility.yul\":38816:38879   */\n      tag_896\n      jumpi\n        /* \"#utility.yul\":38875:38876   */\n      0x00\n        /* \"#utility.yul\":38872:38873   */\n      dup1\n        /* \"#utility.yul\":38865:38877   */\n      revert\n        /* \"#utility.yul\":38816:38879   */\n    tag_896:\n        /* \"#utility.yul\":38763:38885   */\n      pop\n      jump\t// out\n\n    auxdata: 0xa26469706673582212202bf5337f210dd1227c45804b7f519bf758ad108ee70b65c8467e912ba7e5f10964736f6c63430008070033\n}\n",
				"bytecode": {
					"linkReferences": {},
					"object": "608060405260006007556001600960006101000a81548160ff0219169083151502179055503480156200003157600080fd5b506040516200475d3803806200475d833981810160405281019062000057919062000259565b620000776200006b6200015f60201b60201c565b6200016760201b60201c565b60008111620000bd576040517f08c379a0000000000000000000000000000000000000000000000000000000008152600401620000b49062000308565b60405180910390fd5b84600160006101000a81548173ffffffffffffffffffffffffffffffffffffffff021916908373ffffffffffffffffffffffffffffffffffffffff16021790555083600260006101000a81548173ffffffffffffffffffffffffffffffffffffffff021916908373ffffffffffffffffffffffffffffffffffffffff160217905550826004819055508160058190555080600381905550505050505062000415565b600033905090565b60008060009054906101000a900473ffffffffffffffffffffffffffffffffffffffff169050816000806101000a81548173ffffffffffffffffffffffffffffffffffffffff021916908373ffffffffffffffffffffffffffffffffffffffff1602179055508173ffffffffffffffffffffffffffffffffffffffff168173ffffffffffffffffffffffffffffffffffffffff167f8be0079c531659141344cd1fd0a4f28419497f9722a3daafe3b4186f6b6457e060405160405180910390a35050565b6000815190506200023c81620003e1565b92915050565b6000815190506200025381620003fb565b92915050565b600080600080600060a086880312156200027857620002776200038d565b5b600062000288888289016200022b565b95505060206200029b888289016200022b565b9450506040620002ae8882890162000242565b9350506060620002c18882890162000242565b9250506080620002d48882890162000242565b9150509295509295909350565b6000620002f0602e836200032a565b9150620002fd8262000392565b604082019050919050565b600060208201905081810360008301526200032381620002e1565b9050919050565b600082825260208201905092915050565b6000620003488262000363565b9050919050565b60006200035c826200033b565b9050919050565b600073ffffffffffffffffffffffffffffffffffffffff82169050919050565b6000819050919050565b600080fd5b7f41424f41543a3a6572726f723a2050726963652068617320746f20626520686960008201527f67686572207468616e207a65726f000000000000000000000000000000000000602082015250565b620003ec816200034f565b8114620003f857600080fd5b50565b620004068162000383565b81146200041257600080fd5b50565b61433880620004256000396000f3fe6080604052600436106101d85760003560e01c8063a4d66daf11610102578063e754e7c411610095578063f3739e0511610064578063f3739e0514610659578063f7c618c114610696578063f89be593146106c1578063f8cf31cb146106ec576101d8565b8063e754e7c4146105b1578063ef78d4fd146105dc578063efe95f5114610607578063f2fde38b14610630576101d8565b8063c884ef83116100d1578063c884ef8314610504578063d6b0f48414610541578063d936547e14610558578063d96a094a14610595576101d8565b8063a4d66daf14610448578063a5ebf83514610473578063a960c65f1461049e578063bd8aa780146104db576101d8565b80635ed9ebfc1161017a578063856734c411610149578063856734c41461039c5780638da5cb5b146103c75780639b8906ae146103f25780639c92431b1461041d576101d8565b80635ed9ebfc146102f2578063667022fd1461031d578063715018a61461035a5780637b1b1de614610371576101d8565b80632fba2c85116101b65780632fba2c851461025c5780633013ce29146102875780634e71d92d146102b25780635372a58e146102c9576101d8565b80630c0e0862146101dd578063151bad0a146102065780632f66194614610231575b600080fd5b3480156101e957600080fd5b5061020460048036038101906101ff9190612fe7565b610715565b005b34801561021257600080fd5b5061021b6107e1565b6040516102289190613793565b60405180910390f35b34801561023d57600080fd5b506102466107e6565b6040516102539190613793565b60405180910390f35b34801561026857600080fd5b506102716107eb565b60405161027e9190613793565b60405180910390f35b34801561029357600080fd5b5061029c610924565b6040516102a99190613496565b60405180910390f35b3480156102be57600080fd5b506102c761094a565b005b3480156102d557600080fd5b506102f060048036038101906102eb9190612f15565b61113b565b005b3480156102fe57600080fd5b50610307611539565b6040516103149190613793565b60405180910390f35b34801561032957600080fd5b50610344600480360381019061033f9190612e9f565b61153f565b6040516103519190613793565b60405180910390f35b34801561036657600080fd5b5061036f611557565b005b34801561037d57600080fd5b506103866115df565b6040516103939190613793565b60405180910390f35b3480156103a857600080fd5b506103b16115e5565b6040516103be919061347b565b60405180910390f35b3480156103d357600080fd5b506103dc6115f8565b6040516103e99190613400565b60405180910390f35b3480156103fe57600080fd5b50610407611621565b6040516104149190613793565b60405180910390f35b34801561042957600080fd5b50610432611627565b60405161043f9190613793565b60405180910390f35b34801561045457600080fd5b5061045d6116fe565b60405161046a9190613793565b60405180910390f35b34801561047f57600080fd5b50610488611704565b6040516104959190613793565b60405180910390f35b3480156104aa57600080fd5b506104c560048036038101906104c09190612e9f565b611709565b6040516104d29190613793565b60405180910390f35b3480156104e757600080fd5b5061050260048036038101906104fd9190612ecc565b611721565b005b34801561051057600080fd5b5061052b60048036038101906105269190612e9f565b6118a5565b6040516105389190613793565b60405180910390f35b34801561054d57600080fd5b506105566118bd565b005b34801561056457600080fd5b5061057f600480360381019061057a9190612e9f565b6119a5565b60405161058c919061347b565b60405180910390f35b6105af60048036038101906105aa9190612fe7565b6119c5565b005b3480156105bd57600080fd5b506105c6611e61565b6040516105d39190613793565b60405180910390f35b3480156105e857600080fd5b506105f1611e67565b6040516105fe9190613793565b60405180910390f35b34801561061357600080fd5b5061062e60048036038101906106299190612fe7565b611e6c565b005b34801561063c57600080fd5b5061065760048036038101906106529190612e9f565b612229565b005b34801561066557600080fd5b50610680600480360381019061067b9190612e9f565b612321565b60405161068d9190613400565b60405180910390f35b3480156106a257600080fd5b506106ab612354565b6040516106b89190613496565b60405180910390f35b3480156106cd57600080fd5b506106d661237a565b6040516106e39190613793565b60405180910390f35b3480156106f857600080fd5b50610713600480360381019061070e9190612fba565b612380565b005b61071d6126aa565b73ffffffffffffffffffffffffffffffffffffffff1661073b6115f8565b73ffffffffffffffffffffffffffffffffffffffff1614610791576040517f08c379a000000000000000000000000000000000000000000000000000000000815260040161078890613653565b60405180910390fd5b600060075414156107d7576040517f08c379a00000000000000000000000000000000000000000000000000000000081526004016107ce90613733565b60405180910390fd5b8060088190555050565b603281565b605a81565b60008073ffffffffffffffffffffffffffffffffffffffff16600160009054906101000a900473ffffffffffffffffffffffffffffffffffffffff1673ffffffffffffffffffffffffffffffffffffffff16141561085f57610858600654476126b290919063ffffffff16565b9050610921565b61091e600654600160009054906101000a900473ffffffffffffffffffffffffffffffffffffffff1673ffffffffffffffffffffffffffffffffffffffff166370a08231306040518263ffffffff1660e01b81526004016108c09190613400565b60206040518083038186803b1580156108d857600080fd5b505afa1580156108ec573d6000803e3d6000fd5b505050506040513d601f19601f820116820180604052508101906109109190613014565b6126b290919063ffffffff16565b90505b90565b600260009054906101000a900473ffffffffffffffffffffffffffffffffffffffff1681565b60006007541415610990576040517f08c379a0000000000000000000000000000000000000000000000000000000008152600401610987906136b3565b60405180910390fd5b6109bc6109ab620151806008546126c890919063ffffffff16565b6007546126de90919063ffffffff16565b4210156109fe576040517f08c379a00000000000000000000000000000000000000000000000000000000081526004016109f590613553565b60405180910390fd5b6000610a08611627565b905060008111610a4d576040517f08c379a0000000000000000000000000000000000000000000000000000000008152600401610a4490613613565b60405180910390fd5b600160009054906101000a900473ffffffffffffffffffffffffffffffffffffffff1673ffffffffffffffffffffffffffffffffffffffff16600e60003373ffffffffffffffffffffffffffffffffffffffff1673ffffffffffffffffffffffffffffffffffffffff16815260200190815260200160002060009054906101000a900473ffffffffffffffffffffffffffffffffffffffff1673ffffffffffffffffffffffffffffffffffffffff1614610c2c57600160009054906101000a900473ffffffffffffffffffffffffffffffffffffffff16600e60003373ffffffffffffffffffffffffffffffffffffffff1673ffffffffffffffffffffffffffffffffffffffff16815260200190815260200160002060006101000a81548173ffffffffffffffffffffffffffffffffffffffff021916908373ffffffffffffffffffffffffffffffffffffffff1602179055506000600c60003373ffffffffffffffffffffffffffffffffffffffff1673ffffffffffffffffffffffffffffffffffffffff168152602001908152602001600020819055506000600d60003373ffffffffffffffffffffffffffffffffffffffff1673ffffffffffffffffffffffffffffffffffffffff168152602001908152602001600020819055505b80600c60003373ffffffffffffffffffffffffffffffffffffffff1673ffffffffffffffffffffffffffffffffffffffff1681526020019081526020016000205410610cad576040517f08c379a0000000000000000000000000000000000000000000000000000000008152600401610ca490613573565b60405180910390fd5b60065460055411610f5d576000600c60003373ffffffffffffffffffffffffffffffffffffffff1673ffffffffffffffffffffffffffffffffffffffff16815260200190815260200160002054905081600c60003373ffffffffffffffffffffffffffffffffffffffff1673ffffffffffffffffffffffffffffffffffffffff168152602001908152602001600020819055506000610de8600354610dda670de0b6b3a7640000610dcc6103e8610dbe610d70898b6126b290919063ffffffff16565b600b60003373ffffffffffffffffffffffffffffffffffffffff1673ffffffffffffffffffffffffffffffffffffffff168152602001908152602001600020546126c890919063ffffffff16565b6126f490919063ffffffff16565b6126c890919063ffffffff16565b6126f490919063ffffffff16565b9050610e3c81600d60003373ffffffffffffffffffffffffffffffffffffffff1673ffffffffffffffffffffffffffffffffffffffff168152602001908152602001600020546126de90919063ffffffff16565b600d60003373ffffffffffffffffffffffffffffffffffffffff1673ffffffffffffffffffffffffffffffffffffffff16815260200190815260200160002081905550600073ffffffffffffffffffffffffffffffffffffffff16600160009054906101000a900473ffffffffffffffffffffffffffffffffffffffff1673ffffffffffffffffffffffffffffffffffffffff1614610f0757610f02600160009054906101000a900473ffffffffffffffffffffffffffffffffffffffff16338361270a565b610f12565b610f113382612840565b5b803373ffffffffffffffffffffffffffffffffffffffff167fd8138f8a3f377c5259ca548e70e4c2de94f129f5a11036a15b69513cba2b426a60405160405180910390a35050611138565b6103e8600c60003373ffffffffffffffffffffffffffffffffffffffff1673ffffffffffffffffffffffffffffffffffffffff16815260200190815260200160002081905550600073ffffffffffffffffffffffffffffffffffffffff16600260009054906101000a900473ffffffffffffffffffffffffffffffffffffffff1673ffffffffffffffffffffffffffffffffffffffff161461106a57611065600260009054906101000a900473ffffffffffffffffffffffffffffffffffffffff1633600b60003373ffffffffffffffffffffffffffffffffffffffff1673ffffffffffffffffffffffffffffffffffffffff1681526020019081526020016000205461270a565b6110b4565b6110b333600b60003373ffffffffffffffffffffffffffffffffffffffff1673ffffffffffffffffffffffffffffffffffffffff16815260200190815260200160002054612840565b5b600b60003373ffffffffffffffffffffffffffffffffffffffff1673ffffffffffffffffffffffffffffffffffffffff168152602001908152602001600020543373ffffffffffffffffffffffffffffffffffffffff167fd8138f8a3f377c5259ca548e70e4c2de94f129f5a11036a15b69513cba2b426a60405160405180910390a35b50565b6111436126aa565b73ffffffffffffffffffffffffffffffffffffffff166111616115f8565b73ffffffffffffffffffffffffffffffffffffffff16146111b7576040517f08c379a00000000000000000000000000000000000000000000000000000000081526004016111ae90613653565b60405180910390fd5b6064825111156111fc576040517f08c379a00000000000000000000000000000000000000000000000000000000081526004016111f3906135d3565b60405180910390fd5b6000805b83518110156114ea576001600a600086848151811061122257611221613b0d565b5b602002602001015173ffffffffffffffffffffffffffffffffffffffff1673ffffffffffffffffffffffffffffffffffffffff16815260200190815260200160002060006101000a81548160ff02191690831515021790555060006112c66003546112b8670de0b6b3a76400008786815181106112a2576112a1613b0d565b5b60200260200101516126c890919063ffffffff16565b6126f490919063ffffffff16565b905060006112e4826112d66107eb565b6126b290919063ffffffff16565b11611324576040517f08c379a000000000000000000000000000000000000000000000000000000000815260040161131b90613673565b60405180910390fd5b6113aa84838151811061133a57611339613b0d565b5b6020026020010151600b600088868151811061135957611358613b0d565b5b602002602001015173ffffffffffffffffffffffffffffffffffffffff1673ffffffffffffffffffffffffffffffffffffffff168152602001908152602001600020546126de90919063ffffffff16565b600b60008785815181106113c1576113c0613b0d565b5b602002602001015173ffffffffffffffffffffffffffffffffffffffff1673ffffffffffffffffffffffffffffffffffffffff1681526020019081526020016000208190555061141a81846126de90919063ffffffff16565b9250600260009054906101000a900473ffffffffffffffffffffffffffffffffffffffff16600e600087858151811061145657611455613b0d565b5b602002602001015173ffffffffffffffffffffffffffffffffffffffff1673ffffffffffffffffffffffffffffffffffffffff16815260200190815260200160002060006101000a81548173ffffffffffffffffffffffffffffffffffffffff021916908373ffffffffffffffffffffffffffffffffffffffff1602179055505080806114e290613a66565b915050611200565b50611500816006546126de90919063ffffffff16565b60068190555082517f6074084f4dbd9879d266f074be61eb039a0db2aa46e98e700223ad5c2bef5bd560405160405180910390a2505050565b60065481565b600b6020528060005260406000206000915090505481565b61155f6126aa565b73ffffffffffffffffffffffffffffffffffffffff1661157d6115f8565b73ffffffffffffffffffffffffffffffffffffffff16146115d3576040517f08c379a00000000000000000000000000000000000000000000000000000000081526004016115ca90613653565b60405180910390fd5b6115dd6000612940565b565b60035481565b600960009054906101000a900460ff1681565b60008060009054906101000a900473ffffffffffffffffffffffffffffffffffffffff16905090565b60075481565b600080611640605a6007546126de90919063ffffffff16565b905060006116676201518060085461165891906138e4565b836126de90919063ffffffff16565b905060008060075411801561167b57508142115b6116865760646116e1565b6116e060646116d260326116c462015180601e6116a391906138e4565b6116b688426126b290919063ffffffff16565b6126f490919063ffffffff16565b6126c890919063ffffffff16565b6126de90919063ffffffff16565b5b90506103e881116116f257806116f6565b6103e85b935050505090565b60045481565b606481565b600d6020528060005260406000206000915090505481565b6117296126aa565b73ffffffffffffffffffffffffffffffffffffffff166117476115f8565b73ffffffffffffffffffffffffffffffffffffffff161461179d576040517f08c379a000000000000000000000000000000000000000000000000000000000815260040161179490613653565b60405180910390fd5b6064815111156117e2576040517f08c379a00000000000000000000000000000000000000000000000000000000081526004016117d9906135d3565b60405180910390fd5b60005b8151811015611873576001600a600084848151811061180757611806613b0d565b5b602002602001015173ffffffffffffffffffffffffffffffffffffffff1673ffffffffffffffffffffffffffffffffffffffff16815260200190815260200160002060006101000a81548160ff021916908315150217905550808061186b90613a66565b9150506117e5565b5080517ff899e24720678b9547483d3c332e9a7e1eabb9c013bd2e0ff30d83806cf421f360405160405180910390a250565b600c6020528060005260406000206000915090505481565b6118c56126aa565b73ffffffffffffffffffffffffffffffffffffffff166118e36115f8565b73ffffffffffffffffffffffffffffffffffffffff1614611939576040517f08c379a000000000000000000000000000000000000000000000000000000000815260040161193090613653565b60405180910390fd5b600960009054906101000a900460ff16611988576040517f08c379a000000000000000000000000000000000000000000000000000000000815260040161197f906134d3565b60405180910390fd5b6000600960006101000a81548160ff021916908315150217905550565b600a6020528060005260406000206000915054906101000a900460ff1681565b600060075414611a0a576040517f08c379a0000000000000000000000000000000000000000000000000000000008152600401611a0190613753565b60405180910390fd5b600a60003373ffffffffffffffffffffffffffffffffffffffff1673ffffffffffffffffffffffffffffffffffffffff16815260200190815260200160002060009054906101000a900460ff1680611a6f5750600960009054906101000a900460ff16155b611aae576040517f08c379a0000000000000000000000000000000000000000000000000000000008152600401611aa5906135b3565b60405180910390fd5b60008073ffffffffffffffffffffffffffffffffffffffff16600260009054906101000a900473ffffffffffffffffffffffffffffffffffffffff1673ffffffffffffffffffffffffffffffffffffffff16149050801580611b0f57508134145b611b4e576040517f08c379a0000000000000000000000000000000000000000000000000000000008152600401611b4590613773565b60405180910390fd5b600454611ba383600b60003373ffffffffffffffffffffffffffffffffffffffff1673ffffffffffffffffffffffffffffffffffffffff168152602001908152602001600020546126de90919063ffffffff16565b1115611be4576040517f08c379a0000000000000000000000000000000000000000000000000000000008152600401611bdb90613513565b60405180910390fd5b6000611c15600354611c07670de0b6b3a7640000866126c890919063ffffffff16565b6126f490919063ffffffff16565b90506000611c3382611c256107eb565b6126b290919063ffffffff16565b11611c73576040517f08c379a0000000000000000000000000000000000000000000000000000000008152600401611c6a90613673565b60405180910390fd5b81611cc857611cc7333085600260009054906101000a900473ffffffffffffffffffffffffffffffffffffffff1673ffffffffffffffffffffffffffffffffffffffff16612a04909392919063ffffffff16565b5b611d1a83600b60003373ffffffffffffffffffffffffffffffffffffffff1673ffffffffffffffffffffffffffffffffffffffff168152602001908152602001600020546126de90919063ffffffff16565b600b60003373ffffffffffffffffffffffffffffffffffffffff1673ffffffffffffffffffffffffffffffffffffffff16815260200190815260200160002081905550611d72816006546126de90919063ffffffff16565b600681905550600260009054906101000a900473ffffffffffffffffffffffffffffffffffffffff16600e60003373ffffffffffffffffffffffffffffffffffffffff1673ffffffffffffffffffffffffffffffffffffffff16815260200190815260200160002060006101000a81548173ffffffffffffffffffffffffffffffffffffffff021916908373ffffffffffffffffffffffffffffffffffffffff160217905550823373ffffffffffffffffffffffffffffffffffffffff167fc55650ccda1011e1cdc769b1fbf546ebb8c97800b6072b49e06cd560305b1d6760405160405180910390a3505050565b60085481565b601e81565b611e746126aa565b73ffffffffffffffffffffffffffffffffffffffff16611e926115f8565b73ffffffffffffffffffffffffffffffffffffffff1614611ee8576040517f08c379a0000000000000000000000000000000000000000000000000000000008152600401611edf90613653565b60405180910390fd5b600060075414611f2d576040517f08c379a0000000000000000000000000000000000000000000000000000000008152600401611f24906136f3565b60405180910390fd5b42600781905550600654600554116120885780600881905550600073ffffffffffffffffffffffffffffffffffffffff16600260009054906101000a900473ffffffffffffffffffffffffffffffffffffffff1673ffffffffffffffffffffffffffffffffffffffff161461207857612073600260009054906101000a900473ffffffffffffffffffffffffffffffffffffffff1633600260009054906101000a900473ffffffffffffffffffffffffffffffffffffffff1673ffffffffffffffffffffffffffffffffffffffff166370a08231306040518263ffffffff1660e01b815260040161201e9190613400565b60206040518083038186803b15801561203657600080fd5b505afa15801561204a573d6000803e3d6000fd5b505050506040513d601f19601f8201168201806040525081019061206e9190613014565b61270a565b612083565b6120823347612840565b5b6121ce565b6000600881905550600073ffffffffffffffffffffffffffffffffffffffff16600160009054906101000a900473ffffffffffffffffffffffffffffffffffffffff1673ffffffffffffffffffffffffffffffffffffffff16146121c2576121bd600160009054906101000a900473ffffffffffffffffffffffffffffffffffffffff1633600160009054906101000a900473ffffffffffffffffffffffffffffffffffffffff1673ffffffffffffffffffffffffffffffffffffffff166370a08231306040518263ffffffff1660e01b81526004016121689190613400565b60206040518083038186803b15801561218057600080fd5b505afa158015612194573d6000803e3d6000fd5b505050506040513d601f19601f820116820180604052508101906121b89190613014565b61270a565b6121cd565b6121cc3347612840565b5b5b6121fa6121e9620151806008546126c890919063ffffffff16565b6007546126de90919063ffffffff16565b7f94bb74a9473ae4063ec1e73dc3e35fd4b5abe9cc1e43ad0db84e5358559ccd5a60405160405180910390a250565b6122316126aa565b73ffffffffffffffffffffffffffffffffffffffff1661224f6115f8565b73ffffffffffffffffffffffffffffffffffffffff16146122a5576040517f08c379a000000000000000000000000000000000000000000000000000000000815260040161229c90613653565b60405180910390fd5b600073ffffffffffffffffffffffffffffffffffffffff168173ffffffffffffffffffffffffffffffffffffffff161415612315576040517f08c379a000000000000000000000000000000000000000000000000000000000815260040161230c906134f3565b60405180910390fd5b61231e81612940565b50565b600e6020528060005260406000206000915054906101000a900473ffffffffffffffffffffffffffffffffffffffff1681565b600160009054906101000a900473ffffffffffffffffffffffffffffffffffffffff1681565b60055481565b6123886126aa565b73ffffffffffffffffffffffffffffffffffffffff166123a66115f8565b73ffffffffffffffffffffffffffffffffffffffff16146123fc576040517f08c379a00000000000000000000000000000000000000000000000000000000081526004016123f390613653565b60405180910390fd5b600160009054906101000a900473ffffffffffffffffffffffffffffffffffffffff1673ffffffffffffffffffffffffffffffffffffffff168173ffffffffffffffffffffffffffffffffffffffff16141561248d576040517f08c379a0000000000000000000000000000000000000000000000000000000008152600401612484906135f3565b60405180910390fd5b600160009054906101000a900473ffffffffffffffffffffffffffffffffffffffff1673ffffffffffffffffffffffffffffffffffffffff166370a08231306040518263ffffffff1660e01b81526004016124e89190613400565b60206040518083038186803b15801561250057600080fd5b505afa158015612514573d6000803e3d6000fd5b505050506040513d601f19601f820116820180604052508101906125389190613014565b8173ffffffffffffffffffffffffffffffffffffffff166370a08231306040518263ffffffff1660e01b81526004016125719190613400565b60206040518083038186803b15801561258957600080fd5b505afa15801561259d573d6000803e3d6000fd5b505050506040513d601f19601f820116820180604052508101906125c19190613014565b14612601576040517f08c379a00000000000000000000000000000000000000000000000000000000081526004016125f890613633565b60405180910390fd5b80600160006101000a81548173ffffffffffffffffffffffffffffffffffffffff021916908373ffffffffffffffffffffffffffffffffffffffff160217905550600160009054906101000a900473ffffffffffffffffffffffffffffffffffffffff1673ffffffffffffffffffffffffffffffffffffffff167f3fcfc24a3384ca156092d9242cb0f84abaf442146d91b8c93bea526561b83f8360405160405180910390a250565b600033905090565b600081836126c0919061393e565b905092915050565b600081836126d691906138e4565b905092915050565b600081836126ec919061385d565b905092915050565b6000818361270291906138b3565b905092915050565b6000808473ffffffffffffffffffffffffffffffffffffffff1663a9059cbb858560405160240161273c929190613452565b6040516020818303038152906040529060e01b6020820180517bffffffffffffffffffffffffffffffffffffffffffffffffffffffff838183161783525050505060405161278a91906133e9565b6000604051808303816000865af19150503d80600081146127c7576040519150601f19603f3d011682016040523d82523d6000602084013e6127cc565b606091505b50915091508180156127fa57506000815114806127f95750808060200190518101906127f89190612f8d565b5b5b612839576040517f08c379a0000000000000000000000000000000000000000000000000000000008152600401612830906136d3565b60405180910390fd5b5050505050565b60008273ffffffffffffffffffffffffffffffffffffffff1682600067ffffffffffffffff81111561287557612874613b3c565b5b6040519080825280601f01601f1916602001820160405280156128a75781602001600182028036833780820191505090505b506040516128b591906133e9565b60006040518083038185875af1925050503d80600081146128f2576040519150601f19603f3d011682016040523d82523d6000602084013e6128f7565b606091505b505090508061293b576040517f08c379a000000000000000000000000000000000000000000000000000000000815260040161293290613533565b60405180910390fd5b505050565b60008060009054906101000a900473ffffffffffffffffffffffffffffffffffffffff169050816000806101000a81548173ffffffffffffffffffffffffffffffffffffffff021916908373ffffffffffffffffffffffffffffffffffffffff1602179055508173ffffffffffffffffffffffffffffffffffffffff168173ffffffffffffffffffffffffffffffffffffffff167f8be0079c531659141344cd1fd0a4f28419497f9722a3daafe3b4186f6b6457e060405160405180910390a35050565b612a87846323b872dd60e01b858585604051602401612a259392919061341b565b604051602081830303815290604052907bffffffffffffffffffffffffffffffffffffffffffffffffffffffff19166020820180517bffffffffffffffffffffffffffffffffffffffffffffffffffffffff8381831617835250505050612a8d565b50505050565b6000612aef826040518060400160405280602081526020017f5361666545524332303a206c6f772d6c6576656c2063616c6c206661696c65648152508573ffffffffffffffffffffffffffffffffffffffff16612b549092919063ffffffff16565b9050600081511115612b4f5780806020019051810190612b0f9190612f8d565b612b4e576040517f08c379a0000000000000000000000000000000000000000000000000000000008152600401612b4590613713565b60405180910390fd5b5b505050565b6060612b638484600085612b6c565b90509392505050565b606082471015612bb1576040517f08c379a0000000000000000000000000000000000000000000000000000000008152600401612ba890613593565b60405180910390fd5b612bba85612c80565b612bf9576040517f08c379a0000000000000000000000000000000000000000000000000000000008152600401612bf090613693565b60405180910390fd5b6000808673ffffffffffffffffffffffffffffffffffffffff168587604051612c2291906133e9565b60006040518083038185875af1925050503d8060008114612c5f576040519150601f19603f3d011682016040523d82523d6000602084013e612c64565b606091505b5091509150612c74828286612c93565b92505050949350505050565b600080823b905060008111915050919050565b60608315612ca357829050612cf3565b600083511115612cb65782518084602001fd5b816040517f08c379a0000000000000000000000000000000000000000000000000000000008152600401612cea91906134b1565b60405180910390fd5b9392505050565b6000612d0d612d08846137d3565b6137ae565b90508083825260208201905082856020860282011115612d3057612d2f613b70565b5b60005b85811015612d605781612d468882612dda565b845260208401935060208301925050600181019050612d33565b5050509392505050565b6000612d7d612d78846137ff565b6137ae565b90508083825260208201905082856020860282011115612da057612d9f613b70565b5b60005b85811015612dd05781612db68882612e75565b845260208401935060208301925050600181019050612da3565b5050509392505050565b600081359050612de9816142a6565b92915050565b600082601f830112612e0457612e03613b6b565b5b8135612e14848260208601612cfa565b91505092915050565b600082601f830112612e3257612e31613b6b565b5b8135612e42848260208601612d6a565b91505092915050565b600081519050612e5a816142bd565b92915050565b600081359050612e6f816142d4565b92915050565b600081359050612e84816142eb565b92915050565b600081519050612e99816142eb565b92915050565b600060208284031215612eb557612eb4613b7a565b5b6000612ec384828501612dda565b91505092915050565b600060208284031215612ee257612ee1613b7a565b5b600082013567ffffffffffffffff811115612f0057612eff613b75565b5b612f0c84828501612def565b91505092915050565b60008060408385031215612f2c57612f2b613b7a565b5b600083013567ffffffffffffffff811115612f4a57612f49613b75565b5b612f5685828601612def565b925050602083013567ffffffffffffffff811115612f7757612f76613b75565b5b612f8385828601612e1d565b9150509250929050565b600060208284031215612fa357612fa2613b7a565b5b6000612fb184828501612e4b565b91505092915050565b600060208284031215612fd057612fcf613b7a565b5b6000612fde84828501612e60565b91505092915050565b600060208284031215612ffd57612ffc613b7a565b5b600061300b84828501612e75565b91505092915050565b60006020828403121561302a57613029613b7a565b5b600061303884828501612e8a565b91505092915050565b61304a81613972565b82525050565b61305981613984565b82525050565b600061306a8261382b565b6130748185613841565b9350613084818560208601613a02565b80840191505092915050565b613099816139cc565b82525050565b60006130aa82613836565b6130b4818561384c565b93506130c4818560208601613a02565b6130cd81613b7f565b840191505092915050565b60006130e560358361384c565b91506130f082613b90565b604082019050919050565b600061310860268361384c565b915061311382613bdf565b604082019050919050565b600061312b60398361384c565b915061313682613c2e565b604082019050919050565b600061314e60348361384c565b915061315982613c7d565b604082019050919050565b600061317160298361384c565b915061317c82613ccc565b604082019050919050565b6000613194603c8361384c565b915061319f82613d1b565b604082019050919050565b60006131b760268361384c565b91506131c282613d6a565b604082019050919050565b60006131da60318361384c565b91506131e582613db9565b604082019050919050565b60006131fd60488361384c565b915061320882613e08565b606082019050919050565b600061322060468361384c565b915061322b82613e7d565b606082019050919050565b6000613243605d8361384c565b915061324e82613ef2565b606082019050919050565b600061326660778361384c565b915061327182613f67565b608082019050919050565b600061328960208361384c565b915061329482614002565b602082019050919050565b60006132ac60358361384c565b91506132b78261402b565b604082019050919050565b60006132cf601d8361384c565b91506132da8261407a565b602082019050919050565b60006132f260238361384c565b91506132fd826140a3565b604082019050919050565b6000613315602d8361384c565b9150613320826140f2565b604082019050919050565b6000613338602a8361384c565b915061334382614141565b604082019050919050565b600061335b602a8361384c565b915061336682614190565b604082019050919050565b600061337e60268361384c565b9150613389826141df565b604082019050919050565b60006133a1601f8361384c565b91506133ac8261422e565b602082019050919050565b60006133c460348361384c565b91506133cf82614257565b604082019050919050565b6133e3816139c2565b82525050565b60006133f5828461305f565b915081905092915050565b60006020820190506134156000830184613041565b92915050565b60006060820190506134306000830186613041565b61343d6020830185613041565b61344a60408301846133da565b949350505050565b60006040820190506134676000830185613041565b61347460208301846133da565b9392505050565b60006020820190506134906000830184613050565b92915050565b60006020820190506134ab6000830184613090565b92915050565b600060208201905081810360008301526134cb818461309f565b905092915050565b600060208201905081810360008301526134ec816130d8565b9050919050565b6000602082019050818103600083015261350c816130fb565b9050919050565b6000602082019050818103600083015261352c8161311e565b9050919050565b6000602082019050818103600083015261354c81613141565b9050919050565b6000602082019050818103600083015261356c81613164565b9050919050565b6000602082019050818103600083015261358c81613187565b9050919050565b600060208201905081810360008301526135ac816131aa565b9050919050565b600060208201905081810360008301526135cc816131cd565b9050919050565b600060208201905081810360008301526135ec816131f0565b9050919050565b6000602082019050818103600083015261360c81613213565b9050919050565b6000602082019050818103600083015261362c81613236565b9050919050565b6000602082019050818103600083015261364c81613259565b9050919050565b6000602082019050818103600083015261366c8161327c565b9050919050565b6000602082019050818103600083015261368c8161329f565b9050919050565b600060208201905081810360008301526136ac816132c2565b9050919050565b600060208201905081810360008301526136cc816132e5565b9050919050565b600060208201905081810360008301526136ec81613308565b9050919050565b6000602082019050818103600083015261370c8161332b565b9050919050565b6000602082019050818103600083015261372c8161334e565b9050919050565b6000602082019050818103600083015261374c81613371565b9050919050565b6000602082019050818103600083015261376c81613394565b9050919050565b6000602082019050818103600083015261378c816133b7565b9050919050565b60006020820190506137a860008301846133da565b92915050565b60006137b86137c9565b90506137c48282613a35565b919050565b6000604051905090565b600067ffffffffffffffff8211156137ee576137ed613b3c565b5b602082029050602081019050919050565b600067ffffffffffffffff82111561381a57613819613b3c565b5b602082029050602081019050919050565b600081519050919050565b600081519050919050565b600081905092915050565b600082825260208201905092915050565b6000613868826139c2565b9150613873836139c2565b9250827fffffffffffffffffffffffffffffffffffffffffffffffffffffffffffffffff038211156138a8576138a7613aaf565b5b828201905092915050565b60006138be826139c2565b91506138c9836139c2565b9250826138d9576138d8613ade565b5b828204905092915050565b60006138ef826139c2565b91506138fa836139c2565b9250817fffffffffffffffffffffffffffffffffffffffffffffffffffffffffffffffff048311821515161561393357613932613aaf565b5b828202905092915050565b6000613949826139c2565b9150613954836139c2565b92508282101561396757613966613aaf565b5b828203905092915050565b600061397d826139a2565b9050919050565b60008115159050919050565b600061399b82613972565b9050919050565b600073ffffffffffffffffffffffffffffffffffffffff82169050919050565b6000819050919050565b60006139d7826139de565b9050919050565b60006139e9826139f0565b9050919050565b60006139fb826139a2565b9050919050565b60005b83811015613a20578082015181840152602081019050613a05565b83811115613a2f576000848401525b50505050565b613a3e82613b7f565b810181811067ffffffffffffffff82111715613a5d57613a5c613b3c565b5b80604052505050565b6000613a71826139c2565b91507fffffffffffffffffffffffffffffffffffffffffffffffffffffffffffffffff821415613aa457613aa3613aaf565b5b600182019050919050565b7f4e487b7100000000000000000000000000000000000000000000000000000000600052601160045260246000fd5b7f4e487b7100000000000000000000000000000000000000000000000000000000600052601260045260246000fd5b7f4e487b7100000000000000000000000000000000000000000000000000000000600052603260045260246000fd5b7f4e487b7100000000000000000000000000000000000000000000000000000000600052604160045260246000fd5b600080fd5b600080fd5b600080fd5b600080fd5b6000601f19601f8301169050919050565b7f41424f41543a64697361626c6557686974656c6973743a2057686974656c697360008201527f7420697320616c72656164792064697361626c65640000000000000000000000602082015250565b7f4f776e61626c653a206e6577206f776e657220697320746865207a65726f206160008201527f6464726573730000000000000000000000000000000000000000000000000000602082015250565b7f41424f41543a3a6275793a20416d6f756e7420776f756c64206578636565642060008201527f746865206d6178696d756d20616c6c6f776564206c696d697400000000000000602082015250565b7f5472616e7366657248656c7065723a3a736166655472616e736665724554483a60008201527f20455448207472616e73666572206661696c6564000000000000000000000000602082015250565b7f41424f41543a3a636c61696d3a20436c61696d206973206e6f7420617661696c60008201527f61626c65207965742e0000000000000000000000000000000000000000000000602082015250565b7f41424f41543a3a636c61696d3a20416c726561647920636c61696d656420796f60008201527f75722063757272656e746c7920656c696769626c6520746f6b656e7300000000602082015250565b7f416464726573733a20696e73756666696369656e742062616c616e636520666f60008201527f722063616c6c0000000000000000000000000000000000000000000000000000602082015250565b7f41424f41543a3a6275793a20596f75277265206e6f742077686974656c69737460008201527f656420666f7220746869732073616c6521000000000000000000000000000000602082015250565b7f41424f41543a3a77686974656c6973743a20596f752063616e2774206164642060008201527f6d6f7265207468616e203130302061646472657373657320617420746865207360208201527f616d652074696d65000000000000000000000000000000000000000000000000604082015250565b7f41424f41543a3a757064617465526577617264546f6b656e3a204e657720726560008201527f776172642073686f756c6420626520646966666572656e742066726f6d20637560208201527f7272656e742e0000000000000000000000000000000000000000000000000000604082015250565b7f41424f41543a3a636c61696d3a205468652070657263656e74616765206f662060008201527f746f6b656e20796f752063616e20636c61696d2069732063757272656e746c7960208201527f207a65726f2e20506c656173652074727920616761696e206c61746572000000604082015250565b7f41424f41543a3a757064617465526577617264546f6b656e3a2054686520636f60008201527f6e74726163742073686f756c6420636f6e7461696e2061746c6561737420746860208201527f652073616d6520616d6f756e74206f6620746f6b656e732061732066726f6d2060408201527f7468652063757272656e7420726577617264546f6b656e000000000000000000606082015250565b7f4f776e61626c653a2063616c6c6572206973206e6f7420746865206f776e6572600082015250565b7f41424f41543a3a6275793a20416d6f756e7420776f756c64206578636565642060008201527f7468652072656d61696e696e672062616c616e63650000000000000000000000602082015250565b7f416464726573733a2063616c6c20746f206e6f6e2d636f6e7472616374000000600082015250565b7f41424f41543a3a636c61696d3a2053616c65206973206e6f74206f766572207960008201527f6574210000000000000000000000000000000000000000000000000000000000602082015250565b7f5472616e7366657248656c7065723a3a736166655472616e736665723a20747260008201527f616e73666572206661696c656400000000000000000000000000000000000000602082015250565b7f41424f41543a3a636c61696d416e64456e6453616c653a2053616c6520616c7260008201527f6561647920656e64656400000000000000000000000000000000000000000000602082015250565b7f5361666545524332303a204552433230206f7065726174696f6e20646964206e60008201527f6f74207375636365656400000000000000000000000000000000000000000000602082015250565b7f41424f41543a3a7570646174654166746572446179733a2053616c65206e6f7460008201527f20656e6465640000000000000000000000000000000000000000000000000000602082015250565b7f41424f41543a3a6275793a2053616c6520616c726561647920656e6465642100600082015250565b7f41424f41543a3a6275793a2053656e742076616c756520646f65736e2774206d60008201527f6565742074686520676976656e20616d6f756e74000000000000000000000000602082015250565b6142af81613972565b81146142ba57600080fd5b50565b6142c681613984565b81146142d157600080fd5b50565b6142dd81613990565b81146142e857600080fd5b50565b6142f4816139c2565b81146142ff57600080fd5b5056fea26469706673582212202bf5337f210dd1227c45804b7f519bf758ad108ee70b65c8467e912ba7e5f10964736f6c63430008070033",
					"opcodes": "PUSH1 0x80 PUSH1 0x40 MSTORE PUSH1 0x0 PUSH1 0x7 SSTORE PUSH1 0x1 PUSH1 0x9 PUSH1 0x0 PUSH2 0x100 EXP DUP2 SLOAD DUP2 PUSH1 0xFF MUL NOT AND SWAP1 DUP4 ISZERO ISZERO MUL OR SWAP1 SSTORE POP CALLVALUE DUP1 ISZERO PUSH3 0x31 JUMPI PUSH1 0x0 DUP1 REVERT JUMPDEST POP PUSH1 0x40 MLOAD PUSH3 0x475D CODESIZE SUB DUP1 PUSH3 0x475D DUP4 CODECOPY DUP2 DUP2 ADD PUSH1 0x40 MSTORE DUP2 ADD SWAP1 PUSH3 0x57 SWAP2 SWAP1 PUSH3 0x259 JUMP JUMPDEST PUSH3 0x77 PUSH3 0x6B PUSH3 0x15F PUSH1 0x20 SHL PUSH1 0x20 SHR JUMP JUMPDEST PUSH3 0x167 PUSH1 0x20 SHL PUSH1 0x20 SHR JUMP JUMPDEST PUSH1 0x0 DUP2 GT PUSH3 0xBD JUMPI PUSH1 0x40 MLOAD PUSH32 0x8C379A000000000000000000000000000000000000000000000000000000000 DUP2 MSTORE PUSH1 0x4 ADD PUSH3 0xB4 SWAP1 PUSH3 0x308 JUMP JUMPDEST PUSH1 0x40 MLOAD DUP1 SWAP2 SUB SWAP1 REVERT JUMPDEST DUP5 PUSH1 0x1 PUSH1 0x0 PUSH2 0x100 EXP DUP2 SLOAD DUP2 PUSH20 0xFFFFFFFFFFFFFFFFFFFFFFFFFFFFFFFFFFFFFFFF MUL NOT AND SWAP1 DUP4 PUSH20 0xFFFFFFFFFFFFFFFFFFFFFFFFFFFFFFFFFFFFFFFF AND MUL OR SWAP1 SSTORE POP DUP4 PUSH1 0x2 PUSH1 0x0 PUSH2 0x100 EXP DUP2 SLOAD DUP2 PUSH20 0xFFFFFFFFFFFFFFFFFFFFFFFFFFFFFFFFFFFFFFFF MUL NOT AND SWAP1 DUP4 PUSH20 0xFFFFFFFFFFFFFFFFFFFFFFFFFFFFFFFFFFFFFFFF AND MUL OR SWAP1 SSTORE POP DUP3 PUSH1 0x4 DUP2 SWAP1 SSTORE POP DUP2 PUSH1 0x5 DUP2 SWAP1 SSTORE POP DUP1 PUSH1 0x3 DUP2 SWAP1 SSTORE POP POP POP POP POP POP PUSH3 0x415 JUMP JUMPDEST PUSH1 0x0 CALLER SWAP1 POP SWAP1 JUMP JUMPDEST PUSH1 0x0 DUP1 PUSH1 0x0 SWAP1 SLOAD SWAP1 PUSH2 0x100 EXP SWAP1 DIV PUSH20 0xFFFFFFFFFFFFFFFFFFFFFFFFFFFFFFFFFFFFFFFF AND SWAP1 POP DUP2 PUSH1 0x0 DUP1 PUSH2 0x100 EXP DUP2 SLOAD DUP2 PUSH20 0xFFFFFFFFFFFFFFFFFFFFFFFFFFFFFFFFFFFFFFFF MUL NOT AND SWAP1 DUP4 PUSH20 0xFFFFFFFFFFFFFFFFFFFFFFFFFFFFFFFFFFFFFFFF AND MUL OR SWAP1 SSTORE POP DUP2 PUSH20 0xFFFFFFFFFFFFFFFFFFFFFFFFFFFFFFFFFFFFFFFF AND DUP2 PUSH20 0xFFFFFFFFFFFFFFFFFFFFFFFFFFFFFFFFFFFFFFFF AND PUSH32 0x8BE0079C531659141344CD1FD0A4F28419497F9722A3DAAFE3B4186F6B6457E0 PUSH1 0x40 MLOAD PUSH1 0x40 MLOAD DUP1 SWAP2 SUB SWAP1 LOG3 POP POP JUMP JUMPDEST PUSH1 0x0 DUP2 MLOAD SWAP1 POP PUSH3 0x23C DUP2 PUSH3 0x3E1 JUMP JUMPDEST SWAP3 SWAP2 POP POP JUMP JUMPDEST PUSH1 0x0 DUP2 MLOAD SWAP1 POP PUSH3 0x253 DUP2 PUSH3 0x3FB JUMP JUMPDEST SWAP3 SWAP2 POP POP JUMP JUMPDEST PUSH1 0x0 DUP1 PUSH1 0x0 DUP1 PUSH1 0x0 PUSH1 0xA0 DUP7 DUP9 SUB SLT ISZERO PUSH3 0x278 JUMPI PUSH3 0x277 PUSH3 0x38D JUMP JUMPDEST JUMPDEST PUSH1 0x0 PUSH3 0x288 DUP9 DUP3 DUP10 ADD PUSH3 0x22B JUMP JUMPDEST SWAP6 POP POP PUSH1 0x20 PUSH3 0x29B DUP9 DUP3 DUP10 ADD PUSH3 0x22B JUMP JUMPDEST SWAP5 POP POP PUSH1 0x40 PUSH3 0x2AE DUP9 DUP3 DUP10 ADD PUSH3 0x242 JUMP JUMPDEST SWAP4 POP POP PUSH1 0x60 PUSH3 0x2C1 DUP9 DUP3 DUP10 ADD PUSH3 0x242 JUMP JUMPDEST SWAP3 POP POP PUSH1 0x80 PUSH3 0x2D4 DUP9 DUP3 DUP10 ADD PUSH3 0x242 JUMP JUMPDEST SWAP2 POP POP SWAP3 SWAP6 POP SWAP3 SWAP6 SWAP1 SWAP4 POP JUMP JUMPDEST PUSH1 0x0 PUSH3 0x2F0 PUSH1 0x2E DUP4 PUSH3 0x32A JUMP JUMPDEST SWAP2 POP PUSH3 0x2FD DUP3 PUSH3 0x392 JUMP JUMPDEST PUSH1 0x40 DUP3 ADD SWAP1 POP SWAP2 SWAP1 POP JUMP JUMPDEST PUSH1 0x0 PUSH1 0x20 DUP3 ADD SWAP1 POP DUP2 DUP2 SUB PUSH1 0x0 DUP4 ADD MSTORE PUSH3 0x323 DUP2 PUSH3 0x2E1 JUMP JUMPDEST SWAP1 POP SWAP2 SWAP1 POP JUMP JUMPDEST PUSH1 0x0 DUP3 DUP3 MSTORE PUSH1 0x20 DUP3 ADD SWAP1 POP SWAP3 SWAP2 POP POP JUMP JUMPDEST PUSH1 0x0 PUSH3 0x348 DUP3 PUSH3 0x363 JUMP JUMPDEST SWAP1 POP SWAP2 SWAP1 POP JUMP JUMPDEST PUSH1 0x0 PUSH3 0x35C DUP3 PUSH3 0x33B JUMP JUMPDEST SWAP1 POP SWAP2 SWAP1 POP JUMP JUMPDEST PUSH1 0x0 PUSH20 0xFFFFFFFFFFFFFFFFFFFFFFFFFFFFFFFFFFFFFFFF DUP3 AND SWAP1 POP SWAP2 SWAP1 POP JUMP JUMPDEST PUSH1 0x0 DUP2 SWAP1 POP SWAP2 SWAP1 POP JUMP JUMPDEST PUSH1 0x0 DUP1 REVERT JUMPDEST PUSH32 0x41424F41543A3A6572726F723A2050726963652068617320746F206265206869 PUSH1 0x0 DUP3 ADD MSTORE PUSH32 0x67686572207468616E207A65726F000000000000000000000000000000000000 PUSH1 0x20 DUP3 ADD MSTORE POP JUMP JUMPDEST PUSH3 0x3EC DUP2 PUSH3 0x34F JUMP JUMPDEST DUP2 EQ PUSH3 0x3F8 JUMPI PUSH1 0x0 DUP1 REVERT JUMPDEST POP JUMP JUMPDEST PUSH3 0x406 DUP2 PUSH3 0x383 JUMP JUMPDEST DUP2 EQ PUSH3 0x412 JUMPI PUSH1 0x0 DUP1 REVERT JUMPDEST POP JUMP JUMPDEST PUSH2 0x4338 DUP1 PUSH3 0x425 PUSH1 0x0 CODECOPY PUSH1 0x0 RETURN INVALID PUSH1 0x80 PUSH1 0x40 MSTORE PUSH1 0x4 CALLDATASIZE LT PUSH2 0x1D8 JUMPI PUSH1 0x0 CALLDATALOAD PUSH1 0xE0 SHR DUP1 PUSH4 0xA4D66DAF GT PUSH2 0x102 JUMPI DUP1 PUSH4 0xE754E7C4 GT PUSH2 0x95 JUMPI DUP1 PUSH4 0xF3739E05 GT PUSH2 0x64 JUMPI DUP1 PUSH4 0xF3739E05 EQ PUSH2 0x659 JUMPI DUP1 PUSH4 0xF7C618C1 EQ PUSH2 0x696 JUMPI DUP1 PUSH4 0xF89BE593 EQ PUSH2 0x6C1 JUMPI DUP1 PUSH4 0xF8CF31CB EQ PUSH2 0x6EC JUMPI PUSH2 0x1D8 JUMP JUMPDEST DUP1 PUSH4 0xE754E7C4 EQ PUSH2 0x5B1 JUMPI DUP1 PUSH4 0xEF78D4FD EQ PUSH2 0x5DC JUMPI DUP1 PUSH4 0xEFE95F51 EQ PUSH2 0x607 JUMPI DUP1 PUSH4 0xF2FDE38B EQ PUSH2 0x630 JUMPI PUSH2 0x1D8 JUMP JUMPDEST DUP1 PUSH4 0xC884EF83 GT PUSH2 0xD1 JUMPI DUP1 PUSH4 0xC884EF83 EQ PUSH2 0x504 JUMPI DUP1 PUSH4 0xD6B0F484 EQ PUSH2 0x541 JUMPI DUP1 PUSH4 0xD936547E EQ PUSH2 0x558 JUMPI DUP1 PUSH4 0xD96A094A EQ PUSH2 0x595 JUMPI PUSH2 0x1D8 JUMP JUMPDEST DUP1 PUSH4 0xA4D66DAF EQ PUSH2 0x448 JUMPI DUP1 PUSH4 0xA5EBF835 EQ PUSH2 0x473 JUMPI DUP1 PUSH4 0xA960C65F EQ PUSH2 0x49E JUMPI DUP1 PUSH4 0xBD8AA780 EQ PUSH2 0x4DB JUMPI PUSH2 0x1D8 JUMP JUMPDEST DUP1 PUSH4 0x5ED9EBFC GT PUSH2 0x17A JUMPI DUP1 PUSH4 0x856734C4 GT PUSH2 0x149 JUMPI DUP1 PUSH4 0x856734C4 EQ PUSH2 0x39C JUMPI DUP1 PUSH4 0x8DA5CB5B EQ PUSH2 0x3C7 JUMPI DUP1 PUSH4 0x9B8906AE EQ PUSH2 0x3F2 JUMPI DUP1 PUSH4 0x9C92431B EQ PUSH2 0x41D JUMPI PUSH2 0x1D8 JUMP JUMPDEST DUP1 PUSH4 0x5ED9EBFC EQ PUSH2 0x2F2 JUMPI DUP1 PUSH4 0x667022FD EQ PUSH2 0x31D JUMPI DUP1 PUSH4 0x715018A6 EQ PUSH2 0x35A JUMPI DUP1 PUSH4 0x7B1B1DE6 EQ PUSH2 0x371 JUMPI PUSH2 0x1D8 JUMP JUMPDEST DUP1 PUSH4 0x2FBA2C85 GT PUSH2 0x1B6 JUMPI DUP1 PUSH4 0x2FBA2C85 EQ PUSH2 0x25C JUMPI DUP1 PUSH4 0x3013CE29 EQ PUSH2 0x287 JUMPI DUP1 PUSH4 0x4E71D92D EQ PUSH2 0x2B2 JUMPI DUP1 PUSH4 0x5372A58E EQ PUSH2 0x2C9 JUMPI PUSH2 0x1D8 JUMP JUMPDEST DUP1 PUSH4 0xC0E0862 EQ PUSH2 0x1DD JUMPI DUP1 PUSH4 0x151BAD0A EQ PUSH2 0x206 JUMPI DUP1 PUSH4 0x2F661946 EQ PUSH2 0x231 JUMPI JUMPDEST PUSH1 0x0 DUP1 REVERT JUMPDEST CALLVALUE DUP1 ISZERO PUSH2 0x1E9 JUMPI PUSH1 0x0 DUP1 REVERT JUMPDEST POP PUSH2 0x204 PUSH1 0x4 DUP1 CALLDATASIZE SUB DUP2 ADD SWAP1 PUSH2 0x1FF SWAP2 SWAP1 PUSH2 0x2FE7 JUMP JUMPDEST PUSH2 0x715 JUMP JUMPDEST STOP JUMPDEST CALLVALUE DUP1 ISZERO PUSH2 0x212 JUMPI PUSH1 0x0 DUP1 REVERT JUMPDEST POP PUSH2 0x21B PUSH2 0x7E1 JUMP JUMPDEST PUSH1 0x40 MLOAD PUSH2 0x228 SWAP2 SWAP1 PUSH2 0x3793 JUMP JUMPDEST PUSH1 0x40 MLOAD DUP1 SWAP2 SUB SWAP1 RETURN JUMPDEST CALLVALUE DUP1 ISZERO PUSH2 0x23D JUMPI PUSH1 0x0 DUP1 REVERT JUMPDEST POP PUSH2 0x246 PUSH2 0x7E6 JUMP JUMPDEST PUSH1 0x40 MLOAD PUSH2 0x253 SWAP2 SWAP1 PUSH2 0x3793 JUMP JUMPDEST PUSH1 0x40 MLOAD DUP1 SWAP2 SUB SWAP1 RETURN JUMPDEST CALLVALUE DUP1 ISZERO PUSH2 0x268 JUMPI PUSH1 0x0 DUP1 REVERT JUMPDEST POP PUSH2 0x271 PUSH2 0x7EB JUMP JUMPDEST PUSH1 0x40 MLOAD PUSH2 0x27E SWAP2 SWAP1 PUSH2 0x3793 JUMP JUMPDEST PUSH1 0x40 MLOAD DUP1 SWAP2 SUB SWAP1 RETURN JUMPDEST CALLVALUE DUP1 ISZERO PUSH2 0x293 JUMPI PUSH1 0x0 DUP1 REVERT JUMPDEST POP PUSH2 0x29C PUSH2 0x924 JUMP JUMPDEST PUSH1 0x40 MLOAD PUSH2 0x2A9 SWAP2 SWAP1 PUSH2 0x3496 JUMP JUMPDEST PUSH1 0x40 MLOAD DUP1 SWAP2 SUB SWAP1 RETURN JUMPDEST CALLVALUE DUP1 ISZERO PUSH2 0x2BE JUMPI PUSH1 0x0 DUP1 REVERT JUMPDEST POP PUSH2 0x2C7 PUSH2 0x94A JUMP JUMPDEST STOP JUMPDEST CALLVALUE DUP1 ISZERO PUSH2 0x2D5 JUMPI PUSH1 0x0 DUP1 REVERT JUMPDEST POP PUSH2 0x2F0 PUSH1 0x4 DUP1 CALLDATASIZE SUB DUP2 ADD SWAP1 PUSH2 0x2EB SWAP2 SWAP1 PUSH2 0x2F15 JUMP JUMPDEST PUSH2 0x113B JUMP JUMPDEST STOP JUMPDEST CALLVALUE DUP1 ISZERO PUSH2 0x2FE JUMPI PUSH1 0x0 DUP1 REVERT JUMPDEST POP PUSH2 0x307 PUSH2 0x1539 JUMP JUMPDEST PUSH1 0x40 MLOAD PUSH2 0x314 SWAP2 SWAP1 PUSH2 0x3793 JUMP JUMPDEST PUSH1 0x40 MLOAD DUP1 SWAP2 SUB SWAP1 RETURN JUMPDEST CALLVALUE DUP1 ISZERO PUSH2 0x329 JUMPI PUSH1 0x0 DUP1 REVERT JUMPDEST POP PUSH2 0x344 PUSH1 0x4 DUP1 CALLDATASIZE SUB DUP2 ADD SWAP1 PUSH2 0x33F SWAP2 SWAP1 PUSH2 0x2E9F JUMP JUMPDEST PUSH2 0x153F JUMP JUMPDEST PUSH1 0x40 MLOAD PUSH2 0x351 SWAP2 SWAP1 PUSH2 0x3793 JUMP JUMPDEST PUSH1 0x40 MLOAD DUP1 SWAP2 SUB SWAP1 RETURN JUMPDEST CALLVALUE DUP1 ISZERO PUSH2 0x366 JUMPI PUSH1 0x0 DUP1 REVERT JUMPDEST POP PUSH2 0x36F PUSH2 0x1557 JUMP JUMPDEST STOP JUMPDEST CALLVALUE DUP1 ISZERO PUSH2 0x37D JUMPI PUSH1 0x0 DUP1 REVERT JUMPDEST POP PUSH2 0x386 PUSH2 0x15DF JUMP JUMPDEST PUSH1 0x40 MLOAD PUSH2 0x393 SWAP2 SWAP1 PUSH2 0x3793 JUMP JUMPDEST PUSH1 0x40 MLOAD DUP1 SWAP2 SUB SWAP1 RETURN JUMPDEST CALLVALUE DUP1 ISZERO PUSH2 0x3A8 JUMPI PUSH1 0x0 DUP1 REVERT JUMPDEST POP PUSH2 0x3B1 PUSH2 0x15E5 JUMP JUMPDEST PUSH1 0x40 MLOAD PUSH2 0x3BE SWAP2 SWAP1 PUSH2 0x347B JUMP JUMPDEST PUSH1 0x40 MLOAD DUP1 SWAP2 SUB SWAP1 RETURN JUMPDEST CALLVALUE DUP1 ISZERO PUSH2 0x3D3 JUMPI PUSH1 0x0 DUP1 REVERT JUMPDEST POP PUSH2 0x3DC PUSH2 0x15F8 JUMP JUMPDEST PUSH1 0x40 MLOAD PUSH2 0x3E9 SWAP2 SWAP1 PUSH2 0x3400 JUMP JUMPDEST PUSH1 0x40 MLOAD DUP1 SWAP2 SUB SWAP1 RETURN JUMPDEST CALLVALUE DUP1 ISZERO PUSH2 0x3FE JUMPI PUSH1 0x0 DUP1 REVERT JUMPDEST POP PUSH2 0x407 PUSH2 0x1621 JUMP JUMPDEST PUSH1 0x40 MLOAD PUSH2 0x414 SWAP2 SWAP1 PUSH2 0x3793 JUMP JUMPDEST PUSH1 0x40 MLOAD DUP1 SWAP2 SUB SWAP1 RETURN JUMPDEST CALLVALUE DUP1 ISZERO PUSH2 0x429 JUMPI PUSH1 0x0 DUP1 REVERT JUMPDEST POP PUSH2 0x432 PUSH2 0x1627 JUMP JUMPDEST PUSH1 0x40 MLOAD PUSH2 0x43F SWAP2 SWAP1 PUSH2 0x3793 JUMP JUMPDEST PUSH1 0x40 MLOAD DUP1 SWAP2 SUB SWAP1 RETURN JUMPDEST CALLVALUE DUP1 ISZERO PUSH2 0x454 JUMPI PUSH1 0x0 DUP1 REVERT JUMPDEST POP PUSH2 0x45D PUSH2 0x16FE JUMP JUMPDEST PUSH1 0x40 MLOAD PUSH2 0x46A SWAP2 SWAP1 PUSH2 0x3793 JUMP JUMPDEST PUSH1 0x40 MLOAD DUP1 SWAP2 SUB SWAP1 RETURN JUMPDEST CALLVALUE DUP1 ISZERO PUSH2 0x47F JUMPI PUSH1 0x0 DUP1 REVERT JUMPDEST POP PUSH2 0x488 PUSH2 0x1704 JUMP JUMPDEST PUSH1 0x40 MLOAD PUSH2 0x495 SWAP2 SWAP1 PUSH2 0x3793 JUMP JUMPDEST PUSH1 0x40 MLOAD DUP1 SWAP2 SUB SWAP1 RETURN JUMPDEST CALLVALUE DUP1 ISZERO PUSH2 0x4AA JUMPI PUSH1 0x0 DUP1 REVERT JUMPDEST POP PUSH2 0x4C5 PUSH1 0x4 DUP1 CALLDATASIZE SUB DUP2 ADD SWAP1 PUSH2 0x4C0 SWAP2 SWAP1 PUSH2 0x2E9F JUMP JUMPDEST PUSH2 0x1709 JUMP JUMPDEST PUSH1 0x40 MLOAD PUSH2 0x4D2 SWAP2 SWAP1 PUSH2 0x3793 JUMP JUMPDEST PUSH1 0x40 MLOAD DUP1 SWAP2 SUB SWAP1 RETURN JUMPDEST CALLVALUE DUP1 ISZERO PUSH2 0x4E7 JUMPI PUSH1 0x0 DUP1 REVERT JUMPDEST POP PUSH2 0x502 PUSH1 0x4 DUP1 CALLDATASIZE SUB DUP2 ADD SWAP1 PUSH2 0x4FD SWAP2 SWAP1 PUSH2 0x2ECC JUMP JUMPDEST PUSH2 0x1721 JUMP JUMPDEST STOP JUMPDEST CALLVALUE DUP1 ISZERO PUSH2 0x510 JUMPI PUSH1 0x0 DUP1 REVERT JUMPDEST POP PUSH2 0x52B PUSH1 0x4 DUP1 CALLDATASIZE SUB DUP2 ADD SWAP1 PUSH2 0x526 SWAP2 SWAP1 PUSH2 0x2E9F JUMP JUMPDEST PUSH2 0x18A5 JUMP JUMPDEST PUSH1 0x40 MLOAD PUSH2 0x538 SWAP2 SWAP1 PUSH2 0x3793 JUMP JUMPDEST PUSH1 0x40 MLOAD DUP1 SWAP2 SUB SWAP1 RETURN JUMPDEST CALLVALUE DUP1 ISZERO PUSH2 0x54D JUMPI PUSH1 0x0 DUP1 REVERT JUMPDEST POP PUSH2 0x556 PUSH2 0x18BD JUMP JUMPDEST STOP JUMPDEST CALLVALUE DUP1 ISZERO PUSH2 0x564 JUMPI PUSH1 0x0 DUP1 REVERT JUMPDEST POP PUSH2 0x57F PUSH1 0x4 DUP1 CALLDATASIZE SUB DUP2 ADD SWAP1 PUSH2 0x57A SWAP2 SWAP1 PUSH2 0x2E9F JUMP JUMPDEST PUSH2 0x19A5 JUMP JUMPDEST PUSH1 0x40 MLOAD PUSH2 0x58C SWAP2 SWAP1 PUSH2 0x347B JUMP JUMPDEST PUSH1 0x40 MLOAD DUP1 SWAP2 SUB SWAP1 RETURN JUMPDEST PUSH2 0x5AF PUSH1 0x4 DUP1 CALLDATASIZE SUB DUP2 ADD SWAP1 PUSH2 0x5AA SWAP2 SWAP1 PUSH2 0x2FE7 JUMP JUMPDEST PUSH2 0x19C5 JUMP JUMPDEST STOP JUMPDEST CALLVALUE DUP1 ISZERO PUSH2 0x5BD JUMPI PUSH1 0x0 DUP1 REVERT JUMPDEST POP PUSH2 0x5C6 PUSH2 0x1E61 JUMP JUMPDEST PUSH1 0x40 MLOAD PUSH2 0x5D3 SWAP2 SWAP1 PUSH2 0x3793 JUMP JUMPDEST PUSH1 0x40 MLOAD DUP1 SWAP2 SUB SWAP1 RETURN JUMPDEST CALLVALUE DUP1 ISZERO PUSH2 0x5E8 JUMPI PUSH1 0x0 DUP1 REVERT JUMPDEST POP PUSH2 0x5F1 PUSH2 0x1E67 JUMP JUMPDEST PUSH1 0x40 MLOAD PUSH2 0x5FE SWAP2 SWAP1 PUSH2 0x3793 JUMP JUMPDEST PUSH1 0x40 MLOAD DUP1 SWAP2 SUB SWAP1 RETURN JUMPDEST CALLVALUE DUP1 ISZERO PUSH2 0x613 JUMPI PUSH1 0x0 DUP1 REVERT JUMPDEST POP PUSH2 0x62E PUSH1 0x4 DUP1 CALLDATASIZE SUB DUP2 ADD SWAP1 PUSH2 0x629 SWAP2 SWAP1 PUSH2 0x2FE7 JUMP JUMPDEST PUSH2 0x1E6C JUMP JUMPDEST STOP JUMPDEST CALLVALUE DUP1 ISZERO PUSH2 0x63C JUMPI PUSH1 0x0 DUP1 REVERT JUMPDEST POP PUSH2 0x657 PUSH1 0x4 DUP1 CALLDATASIZE SUB DUP2 ADD SWAP1 PUSH2 0x652 SWAP2 SWAP1 PUSH2 0x2E9F JUMP JUMPDEST PUSH2 0x2229 JUMP JUMPDEST STOP JUMPDEST CALLVALUE DUP1 ISZERO PUSH2 0x665 JUMPI PUSH1 0x0 DUP1 REVERT JUMPDEST POP PUSH2 0x680 PUSH1 0x4 DUP1 CALLDATASIZE SUB DUP2 ADD SWAP1 PUSH2 0x67B SWAP2 SWAP1 PUSH2 0x2E9F JUMP JUMPDEST PUSH2 0x2321 JUMP JUMPDEST PUSH1 0x40 MLOAD PUSH2 0x68D SWAP2 SWAP1 PUSH2 0x3400 JUMP JUMPDEST PUSH1 0x40 MLOAD DUP1 SWAP2 SUB SWAP1 RETURN JUMPDEST CALLVALUE DUP1 ISZERO PUSH2 0x6A2 JUMPI PUSH1 0x0 DUP1 REVERT JUMPDEST POP PUSH2 0x6AB PUSH2 0x2354 JUMP JUMPDEST PUSH1 0x40 MLOAD PUSH2 0x6B8 SWAP2 SWAP1 PUSH2 0x3496 JUMP JUMPDEST PUSH1 0x40 MLOAD DUP1 SWAP2 SUB SWAP1 RETURN JUMPDEST CALLVALUE DUP1 ISZERO PUSH2 0x6CD JUMPI PUSH1 0x0 DUP1 REVERT JUMPDEST POP PUSH2 0x6D6 PUSH2 0x237A JUMP JUMPDEST PUSH1 0x40 MLOAD PUSH2 0x6E3 SWAP2 SWAP1 PUSH2 0x3793 JUMP JUMPDEST PUSH1 0x40 MLOAD DUP1 SWAP2 SUB SWAP1 RETURN JUMPDEST CALLVALUE DUP1 ISZERO PUSH2 0x6F8 JUMPI PUSH1 0x0 DUP1 REVERT JUMPDEST POP PUSH2 0x713 PUSH1 0x4 DUP1 CALLDATASIZE SUB DUP2 ADD SWAP1 PUSH2 0x70E SWAP2 SWAP1 PUSH2 0x2FBA JUMP JUMPDEST PUSH2 0x2380 JUMP JUMPDEST STOP JUMPDEST PUSH2 0x71D PUSH2 0x26AA JUMP JUMPDEST PUSH20 0xFFFFFFFFFFFFFFFFFFFFFFFFFFFFFFFFFFFFFFFF AND PUSH2 0x73B PUSH2 0x15F8 JUMP JUMPDEST PUSH20 0xFFFFFFFFFFFFFFFFFFFFFFFFFFFFFFFFFFFFFFFF AND EQ PUSH2 0x791 JUMPI PUSH1 0x40 MLOAD PUSH32 0x8C379A000000000000000000000000000000000000000000000000000000000 DUP2 MSTORE PUSH1 0x4 ADD PUSH2 0x788 SWAP1 PUSH2 0x3653 JUMP JUMPDEST PUSH1 0x40 MLOAD DUP1 SWAP2 SUB SWAP1 REVERT JUMPDEST PUSH1 0x0 PUSH1 0x7 SLOAD EQ ISZERO PUSH2 0x7D7 JUMPI PUSH1 0x40 MLOAD PUSH32 0x8C379A000000000000000000000000000000000000000000000000000000000 DUP2 MSTORE PUSH1 0x4 ADD PUSH2 0x7CE SWAP1 PUSH2 0x3733 JUMP JUMPDEST PUSH1 0x40 MLOAD DUP1 SWAP2 SUB SWAP1 REVERT JUMPDEST DUP1 PUSH1 0x8 DUP2 SWAP1 SSTORE POP POP JUMP JUMPDEST PUSH1 0x32 DUP2 JUMP JUMPDEST PUSH1 0x5A DUP2 JUMP JUMPDEST PUSH1 0x0 DUP1 PUSH20 0xFFFFFFFFFFFFFFFFFFFFFFFFFFFFFFFFFFFFFFFF AND PUSH1 0x1 PUSH1 0x0 SWAP1 SLOAD SWAP1 PUSH2 0x100 EXP SWAP1 DIV PUSH20 0xFFFFFFFFFFFFFFFFFFFFFFFFFFFFFFFFFFFFFFFF AND PUSH20 0xFFFFFFFFFFFFFFFFFFFFFFFFFFFFFFFFFFFFFFFF AND EQ ISZERO PUSH2 0x85F JUMPI PUSH2 0x858 PUSH1 0x6 SLOAD SELFBALANCE PUSH2 0x26B2 SWAP1 SWAP2 SWAP1 PUSH4 0xFFFFFFFF AND JUMP JUMPDEST SWAP1 POP PUSH2 0x921 JUMP JUMPDEST PUSH2 0x91E PUSH1 0x6 SLOAD PUSH1 0x1 PUSH1 0x0 SWAP1 SLOAD SWAP1 PUSH2 0x100 EXP SWAP1 DIV PUSH20 0xFFFFFFFFFFFFFFFFFFFFFFFFFFFFFFFFFFFFFFFF AND PUSH20 0xFFFFFFFFFFFFFFFFFFFFFFFFFFFFFFFFFFFFFFFF AND PUSH4 0x70A08231 ADDRESS PUSH1 0x40 MLOAD DUP3 PUSH4 0xFFFFFFFF AND PUSH1 0xE0 SHL DUP2 MSTORE PUSH1 0x4 ADD PUSH2 0x8C0 SWAP2 SWAP1 PUSH2 0x3400 JUMP JUMPDEST PUSH1 0x20 PUSH1 0x40 MLOAD DUP1 DUP4 SUB DUP2 DUP7 DUP1 EXTCODESIZE ISZERO DUP1 ISZERO PUSH2 0x8D8 JUMPI PUSH1 0x0 DUP1 REVERT JUMPDEST POP GAS STATICCALL ISZERO DUP1 ISZERO PUSH2 0x8EC JUMPI RETURNDATASIZE PUSH1 0x0 DUP1 RETURNDATACOPY RETURNDATASIZE PUSH1 0x0 REVERT JUMPDEST POP POP POP POP PUSH1 0x40 MLOAD RETURNDATASIZE PUSH1 0x1F NOT PUSH1 0x1F DUP3 ADD AND DUP3 ADD DUP1 PUSH1 0x40 MSTORE POP DUP2 ADD SWAP1 PUSH2 0x910 SWAP2 SWAP1 PUSH2 0x3014 JUMP JUMPDEST PUSH2 0x26B2 SWAP1 SWAP2 SWAP1 PUSH4 0xFFFFFFFF AND JUMP JUMPDEST SWAP1 POP JUMPDEST SWAP1 JUMP JUMPDEST PUSH1 0x2 PUSH1 0x0 SWAP1 SLOAD SWAP1 PUSH2 0x100 EXP SWAP1 DIV PUSH20 0xFFFFFFFFFFFFFFFFFFFFFFFFFFFFFFFFFFFFFFFF AND DUP2 JUMP JUMPDEST PUSH1 0x0 PUSH1 0x7 SLOAD EQ ISZERO PUSH2 0x990 JUMPI PUSH1 0x40 MLOAD PUSH32 0x8C379A000000000000000000000000000000000000000000000000000000000 DUP2 MSTORE PUSH1 0x4 ADD PUSH2 0x987 SWAP1 PUSH2 0x36B3 JUMP JUMPDEST PUSH1 0x40 MLOAD DUP1 SWAP2 SUB SWAP1 REVERT JUMPDEST PUSH2 0x9BC PUSH2 0x9AB PUSH3 0x15180 PUSH1 0x8 SLOAD PUSH2 0x26C8 SWAP1 SWAP2 SWAP1 PUSH4 0xFFFFFFFF AND JUMP JUMPDEST PUSH1 0x7 SLOAD PUSH2 0x26DE SWAP1 SWAP2 SWAP1 PUSH4 0xFFFFFFFF AND JUMP JUMPDEST TIMESTAMP LT ISZERO PUSH2 0x9FE JUMPI PUSH1 0x40 MLOAD PUSH32 0x8C379A000000000000000000000000000000000000000000000000000000000 DUP2 MSTORE PUSH1 0x4 ADD PUSH2 0x9F5 SWAP1 PUSH2 0x3553 JUMP JUMPDEST PUSH1 0x40 MLOAD DUP1 SWAP2 SUB SWAP1 REVERT JUMPDEST PUSH1 0x0 PUSH2 0xA08 PUSH2 0x1627 JUMP JUMPDEST SWAP1 POP PUSH1 0x0 DUP2 GT PUSH2 0xA4D JUMPI PUSH1 0x40 MLOAD PUSH32 0x8C379A000000000000000000000000000000000000000000000000000000000 DUP2 MSTORE PUSH1 0x4 ADD PUSH2 0xA44 SWAP1 PUSH2 0x3613 JUMP JUMPDEST PUSH1 0x40 MLOAD DUP1 SWAP2 SUB SWAP1 REVERT JUMPDEST PUSH1 0x1 PUSH1 0x0 SWAP1 SLOAD SWAP1 PUSH2 0x100 EXP SWAP1 DIV PUSH20 0xFFFFFFFFFFFFFFFFFFFFFFFFFFFFFFFFFFFFFFFF AND PUSH20 0xFFFFFFFFFFFFFFFFFFFFFFFFFFFFFFFFFFFFFFFF AND PUSH1 0xE PUSH1 0x0 CALLER PUSH20 0xFFFFFFFFFFFFFFFFFFFFFFFFFFFFFFFFFFFFFFFF AND PUSH20 0xFFFFFFFFFFFFFFFFFFFFFFFFFFFFFFFFFFFFFFFF AND DUP2 MSTORE PUSH1 0x20 ADD SWAP1 DUP2 MSTORE PUSH1 0x20 ADD PUSH1 0x0 KECCAK256 PUSH1 0x0 SWAP1 SLOAD SWAP1 PUSH2 0x100 EXP SWAP1 DIV PUSH20 0xFFFFFFFFFFFFFFFFFFFFFFFFFFFFFFFFFFFFFFFF AND PUSH20 0xFFFFFFFFFFFFFFFFFFFFFFFFFFFFFFFFFFFFFFFF AND EQ PUSH2 0xC2C JUMPI PUSH1 0x1 PUSH1 0x0 SWAP1 SLOAD SWAP1 PUSH2 0x100 EXP SWAP1 DIV PUSH20 0xFFFFFFFFFFFFFFFFFFFFFFFFFFFFFFFFFFFFFFFF AND PUSH1 0xE PUSH1 0x0 CALLER PUSH20 0xFFFFFFFFFFFFFFFFFFFFFFFFFFFFFFFFFFFFFFFF AND PUSH20 0xFFFFFFFFFFFFFFFFFFFFFFFFFFFFFFFFFFFFFFFF AND DUP2 MSTORE PUSH1 0x20 ADD SWAP1 DUP2 MSTORE PUSH1 0x20 ADD PUSH1 0x0 KECCAK256 PUSH1 0x0 PUSH2 0x100 EXP DUP2 SLOAD DUP2 PUSH20 0xFFFFFFFFFFFFFFFFFFFFFFFFFFFFFFFFFFFFFFFF MUL NOT AND SWAP1 DUP4 PUSH20 0xFFFFFFFFFFFFFFFFFFFFFFFFFFFFFFFFFFFFFFFF AND MUL OR SWAP1 SSTORE POP PUSH1 0x0 PUSH1 0xC PUSH1 0x0 CALLER PUSH20 0xFFFFFFFFFFFFFFFFFFFFFFFFFFFFFFFFFFFFFFFF AND PUSH20 0xFFFFFFFFFFFFFFFFFFFFFFFFFFFFFFFFFFFFFFFF AND DUP2 MSTORE PUSH1 0x20 ADD SWAP1 DUP2 MSTORE PUSH1 0x20 ADD PUSH1 0x0 KECCAK256 DUP2 SWAP1 SSTORE POP PUSH1 0x0 PUSH1 0xD PUSH1 0x0 CALLER PUSH20 0xFFFFFFFFFFFFFFFFFFFFFFFFFFFFFFFFFFFFFFFF AND PUSH20 0xFFFFFFFFFFFFFFFFFFFFFFFFFFFFFFFFFFFFFFFF AND DUP2 MSTORE PUSH1 0x20 ADD SWAP1 DUP2 MSTORE PUSH1 0x20 ADD PUSH1 0x0 KECCAK256 DUP2 SWAP1 SSTORE POP JUMPDEST DUP1 PUSH1 0xC PUSH1 0x0 CALLER PUSH20 0xFFFFFFFFFFFFFFFFFFFFFFFFFFFFFFFFFFFFFFFF AND PUSH20 0xFFFFFFFFFFFFFFFFFFFFFFFFFFFFFFFFFFFFFFFF AND DUP2 MSTORE PUSH1 0x20 ADD SWAP1 DUP2 MSTORE PUSH1 0x20 ADD PUSH1 0x0 KECCAK256 SLOAD LT PUSH2 0xCAD JUMPI PUSH1 0x40 MLOAD PUSH32 0x8C379A000000000000000000000000000000000000000000000000000000000 DUP2 MSTORE PUSH1 0x4 ADD PUSH2 0xCA4 SWAP1 PUSH2 0x3573 JUMP JUMPDEST PUSH1 0x40 MLOAD DUP1 SWAP2 SUB SWAP1 REVERT JUMPDEST PUSH1 0x6 SLOAD PUSH1 0x5 SLOAD GT PUSH2 0xF5D JUMPI PUSH1 0x0 PUSH1 0xC PUSH1 0x0 CALLER PUSH20 0xFFFFFFFFFFFFFFFFFFFFFFFFFFFFFFFFFFFFFFFF AND PUSH20 0xFFFFFFFFFFFFFFFFFFFFFFFFFFFFFFFFFFFFFFFF AND DUP2 MSTORE PUSH1 0x20 ADD SWAP1 DUP2 MSTORE PUSH1 0x20 ADD PUSH1 0x0 KECCAK256 SLOAD SWAP1 POP DUP2 PUSH1 0xC PUSH1 0x0 CALLER PUSH20 0xFFFFFFFFFFFFFFFFFFFFFFFFFFFFFFFFFFFFFFFF AND PUSH20 0xFFFFFFFFFFFFFFFFFFFFFFFFFFFFFFFFFFFFFFFF AND DUP2 MSTORE PUSH1 0x20 ADD SWAP1 DUP2 MSTORE PUSH1 0x20 ADD PUSH1 0x0 KECCAK256 DUP2 SWAP1 SSTORE POP PUSH1 0x0 PUSH2 0xDE8 PUSH1 0x3 SLOAD PUSH2 0xDDA PUSH8 0xDE0B6B3A7640000 PUSH2 0xDCC PUSH2 0x3E8 PUSH2 0xDBE PUSH2 0xD70 DUP10 DUP12 PUSH2 0x26B2 SWAP1 SWAP2 SWAP1 PUSH4 0xFFFFFFFF AND JUMP JUMPDEST PUSH1 0xB PUSH1 0x0 CALLER PUSH20 0xFFFFFFFFFFFFFFFFFFFFFFFFFFFFFFFFFFFFFFFF AND PUSH20 0xFFFFFFFFFFFFFFFFFFFFFFFFFFFFFFFFFFFFFFFF AND DUP2 MSTORE PUSH1 0x20 ADD SWAP1 DUP2 MSTORE PUSH1 0x20 ADD PUSH1 0x0 KECCAK256 SLOAD PUSH2 0x26C8 SWAP1 SWAP2 SWAP1 PUSH4 0xFFFFFFFF AND JUMP JUMPDEST PUSH2 0x26F4 SWAP1 SWAP2 SWAP1 PUSH4 0xFFFFFFFF AND JUMP JUMPDEST PUSH2 0x26C8 SWAP1 SWAP2 SWAP1 PUSH4 0xFFFFFFFF AND JUMP JUMPDEST PUSH2 0x26F4 SWAP1 SWAP2 SWAP1 PUSH4 0xFFFFFFFF AND JUMP JUMPDEST SWAP1 POP PUSH2 0xE3C DUP2 PUSH1 0xD PUSH1 0x0 CALLER PUSH20 0xFFFFFFFFFFFFFFFFFFFFFFFFFFFFFFFFFFFFFFFF AND PUSH20 0xFFFFFFFFFFFFFFFFFFFFFFFFFFFFFFFFFFFFFFFF AND DUP2 MSTORE PUSH1 0x20 ADD SWAP1 DUP2 MSTORE PUSH1 0x20 ADD PUSH1 0x0 KECCAK256 SLOAD PUSH2 0x26DE SWAP1 SWAP2 SWAP1 PUSH4 0xFFFFFFFF AND JUMP JUMPDEST PUSH1 0xD PUSH1 0x0 CALLER PUSH20 0xFFFFFFFFFFFFFFFFFFFFFFFFFFFFFFFFFFFFFFFF AND PUSH20 0xFFFFFFFFFFFFFFFFFFFFFFFFFFFFFFFFFFFFFFFF AND DUP2 MSTORE PUSH1 0x20 ADD SWAP1 DUP2 MSTORE PUSH1 0x20 ADD PUSH1 0x0 KECCAK256 DUP2 SWAP1 SSTORE POP PUSH1 0x0 PUSH20 0xFFFFFFFFFFFFFFFFFFFFFFFFFFFFFFFFFFFFFFFF AND PUSH1 0x1 PUSH1 0x0 SWAP1 SLOAD SWAP1 PUSH2 0x100 EXP SWAP1 DIV PUSH20 0xFFFFFFFFFFFFFFFFFFFFFFFFFFFFFFFFFFFFFFFF AND PUSH20 0xFFFFFFFFFFFFFFFFFFFFFFFFFFFFFFFFFFFFFFFF AND EQ PUSH2 0xF07 JUMPI PUSH2 0xF02 PUSH1 0x1 PUSH1 0x0 SWAP1 SLOAD SWAP1 PUSH2 0x100 EXP SWAP1 DIV PUSH20 0xFFFFFFFFFFFFFFFFFFFFFFFFFFFFFFFFFFFFFFFF AND CALLER DUP4 PUSH2 0x270A JUMP JUMPDEST PUSH2 0xF12 JUMP JUMPDEST PUSH2 0xF11 CALLER DUP3 PUSH2 0x2840 JUMP JUMPDEST JUMPDEST DUP1 CALLER PUSH20 0xFFFFFFFFFFFFFFFFFFFFFFFFFFFFFFFFFFFFFFFF AND PUSH32 0xD8138F8A3F377C5259CA548E70E4C2DE94F129F5A11036A15B69513CBA2B426A PUSH1 0x40 MLOAD PUSH1 0x40 MLOAD DUP1 SWAP2 SUB SWAP1 LOG3 POP POP PUSH2 0x1138 JUMP JUMPDEST PUSH2 0x3E8 PUSH1 0xC PUSH1 0x0 CALLER PUSH20 0xFFFFFFFFFFFFFFFFFFFFFFFFFFFFFFFFFFFFFFFF AND PUSH20 0xFFFFFFFFFFFFFFFFFFFFFFFFFFFFFFFFFFFFFFFF AND DUP2 MSTORE PUSH1 0x20 ADD SWAP1 DUP2 MSTORE PUSH1 0x20 ADD PUSH1 0x0 KECCAK256 DUP2 SWAP1 SSTORE POP PUSH1 0x0 PUSH20 0xFFFFFFFFFFFFFFFFFFFFFFFFFFFFFFFFFFFFFFFF AND PUSH1 0x2 PUSH1 0x0 SWAP1 SLOAD SWAP1 PUSH2 0x100 EXP SWAP1 DIV PUSH20 0xFFFFFFFFFFFFFFFFFFFFFFFFFFFFFFFFFFFFFFFF AND PUSH20 0xFFFFFFFFFFFFFFFFFFFFFFFFFFFFFFFFFFFFFFFF AND EQ PUSH2 0x106A JUMPI PUSH2 0x1065 PUSH1 0x2 PUSH1 0x0 SWAP1 SLOAD SWAP1 PUSH2 0x100 EXP SWAP1 DIV PUSH20 0xFFFFFFFFFFFFFFFFFFFFFFFFFFFFFFFFFFFFFFFF AND CALLER PUSH1 0xB PUSH1 0x0 CALLER PUSH20 0xFFFFFFFFFFFFFFFFFFFFFFFFFFFFFFFFFFFFFFFF AND PUSH20 0xFFFFFFFFFFFFFFFFFFFFFFFFFFFFFFFFFFFFFFFF AND DUP2 MSTORE PUSH1 0x20 ADD SWAP1 DUP2 MSTORE PUSH1 0x20 ADD PUSH1 0x0 KECCAK256 SLOAD PUSH2 0x270A JUMP JUMPDEST PUSH2 0x10B4 JUMP JUMPDEST PUSH2 0x10B3 CALLER PUSH1 0xB PUSH1 0x0 CALLER PUSH20 0xFFFFFFFFFFFFFFFFFFFFFFFFFFFFFFFFFFFFFFFF AND PUSH20 0xFFFFFFFFFFFFFFFFFFFFFFFFFFFFFFFFFFFFFFFF AND DUP2 MSTORE PUSH1 0x20 ADD SWAP1 DUP2 MSTORE PUSH1 0x20 ADD PUSH1 0x0 KECCAK256 SLOAD PUSH2 0x2840 JUMP JUMPDEST JUMPDEST PUSH1 0xB PUSH1 0x0 CALLER PUSH20 0xFFFFFFFFFFFFFFFFFFFFFFFFFFFFFFFFFFFFFFFF AND PUSH20 0xFFFFFFFFFFFFFFFFFFFFFFFFFFFFFFFFFFFFFFFF AND DUP2 MSTORE PUSH1 0x20 ADD SWAP1 DUP2 MSTORE PUSH1 0x20 ADD PUSH1 0x0 KECCAK256 SLOAD CALLER PUSH20 0xFFFFFFFFFFFFFFFFFFFFFFFFFFFFFFFFFFFFFFFF AND PUSH32 0xD8138F8A3F377C5259CA548E70E4C2DE94F129F5A11036A15B69513CBA2B426A PUSH1 0x40 MLOAD PUSH1 0x40 MLOAD DUP1 SWAP2 SUB SWAP1 LOG3 JUMPDEST POP JUMP JUMPDEST PUSH2 0x1143 PUSH2 0x26AA JUMP JUMPDEST PUSH20 0xFFFFFFFFFFFFFFFFFFFFFFFFFFFFFFFFFFFFFFFF AND PUSH2 0x1161 PUSH2 0x15F8 JUMP JUMPDEST PUSH20 0xFFFFFFFFFFFFFFFFFFFFFFFFFFFFFFFFFFFFFFFF AND EQ PUSH2 0x11B7 JUMPI PUSH1 0x40 MLOAD PUSH32 0x8C379A000000000000000000000000000000000000000000000000000000000 DUP2 MSTORE PUSH1 0x4 ADD PUSH2 0x11AE SWAP1 PUSH2 0x3653 JUMP JUMPDEST PUSH1 0x40 MLOAD DUP1 SWAP2 SUB SWAP1 REVERT JUMPDEST PUSH1 0x64 DUP3 MLOAD GT ISZERO PUSH2 0x11FC JUMPI PUSH1 0x40 MLOAD PUSH32 0x8C379A000000000000000000000000000000000000000000000000000000000 DUP2 MSTORE PUSH1 0x4 ADD PUSH2 0x11F3 SWAP1 PUSH2 0x35D3 JUMP JUMPDEST PUSH1 0x40 MLOAD DUP1 SWAP2 SUB SWAP1 REVERT JUMPDEST PUSH1 0x0 DUP1 JUMPDEST DUP4 MLOAD DUP2 LT ISZERO PUSH2 0x14EA JUMPI PUSH1 0x1 PUSH1 0xA PUSH1 0x0 DUP7 DUP5 DUP2 MLOAD DUP2 LT PUSH2 0x1222 JUMPI PUSH2 0x1221 PUSH2 0x3B0D JUMP JUMPDEST JUMPDEST PUSH1 0x20 MUL PUSH1 0x20 ADD ADD MLOAD PUSH20 0xFFFFFFFFFFFFFFFFFFFFFFFFFFFFFFFFFFFFFFFF AND PUSH20 0xFFFFFFFFFFFFFFFFFFFFFFFFFFFFFFFFFFFFFFFF AND DUP2 MSTORE PUSH1 0x20 ADD SWAP1 DUP2 MSTORE PUSH1 0x20 ADD PUSH1 0x0 KECCAK256 PUSH1 0x0 PUSH2 0x100 EXP DUP2 SLOAD DUP2 PUSH1 0xFF MUL NOT AND SWAP1 DUP4 ISZERO ISZERO MUL OR SWAP1 SSTORE POP PUSH1 0x0 PUSH2 0x12C6 PUSH1 0x3 SLOAD PUSH2 0x12B8 PUSH8 0xDE0B6B3A7640000 DUP8 DUP7 DUP2 MLOAD DUP2 LT PUSH2 0x12A2 JUMPI PUSH2 0x12A1 PUSH2 0x3B0D JUMP JUMPDEST JUMPDEST PUSH1 0x20 MUL PUSH1 0x20 ADD ADD MLOAD PUSH2 0x26C8 SWAP1 SWAP2 SWAP1 PUSH4 0xFFFFFFFF AND JUMP JUMPDEST PUSH2 0x26F4 SWAP1 SWAP2 SWAP1 PUSH4 0xFFFFFFFF AND JUMP JUMPDEST SWAP1 POP PUSH1 0x0 PUSH2 0x12E4 DUP3 PUSH2 0x12D6 PUSH2 0x7EB JUMP JUMPDEST PUSH2 0x26B2 SWAP1 SWAP2 SWAP1 PUSH4 0xFFFFFFFF AND JUMP JUMPDEST GT PUSH2 0x1324 JUMPI PUSH1 0x40 MLOAD PUSH32 0x8C379A000000000000000000000000000000000000000000000000000000000 DUP2 MSTORE PUSH1 0x4 ADD PUSH2 0x131B SWAP1 PUSH2 0x3673 JUMP JUMPDEST PUSH1 0x40 MLOAD DUP1 SWAP2 SUB SWAP1 REVERT JUMPDEST PUSH2 0x13AA DUP5 DUP4 DUP2 MLOAD DUP2 LT PUSH2 0x133A JUMPI PUSH2 0x1339 PUSH2 0x3B0D JUMP JUMPDEST JUMPDEST PUSH1 0x20 MUL PUSH1 0x20 ADD ADD MLOAD PUSH1 0xB PUSH1 0x0 DUP9 DUP7 DUP2 MLOAD DUP2 LT PUSH2 0x1359 JUMPI PUSH2 0x1358 PUSH2 0x3B0D JUMP JUMPDEST JUMPDEST PUSH1 0x20 MUL PUSH1 0x20 ADD ADD MLOAD PUSH20 0xFFFFFFFFFFFFFFFFFFFFFFFFFFFFFFFFFFFFFFFF AND PUSH20 0xFFFFFFFFFFFFFFFFFFFFFFFFFFFFFFFFFFFFFFFF AND DUP2 MSTORE PUSH1 0x20 ADD SWAP1 DUP2 MSTORE PUSH1 0x20 ADD PUSH1 0x0 KECCAK256 SLOAD PUSH2 0x26DE SWAP1 SWAP2 SWAP1 PUSH4 0xFFFFFFFF AND JUMP JUMPDEST PUSH1 0xB PUSH1 0x0 DUP8 DUP6 DUP2 MLOAD DUP2 LT PUSH2 0x13C1 JUMPI PUSH2 0x13C0 PUSH2 0x3B0D JUMP JUMPDEST JUMPDEST PUSH1 0x20 MUL PUSH1 0x20 ADD ADD MLOAD PUSH20 0xFFFFFFFFFFFFFFFFFFFFFFFFFFFFFFFFFFFFFFFF AND PUSH20 0xFFFFFFFFFFFFFFFFFFFFFFFFFFFFFFFFFFFFFFFF AND DUP2 MSTORE PUSH1 0x20 ADD SWAP1 DUP2 MSTORE PUSH1 0x20 ADD PUSH1 0x0 KECCAK256 DUP2 SWAP1 SSTORE POP PUSH2 0x141A DUP2 DUP5 PUSH2 0x26DE SWAP1 SWAP2 SWAP1 PUSH4 0xFFFFFFFF AND JUMP JUMPDEST SWAP3 POP PUSH1 0x2 PUSH1 0x0 SWAP1 SLOAD SWAP1 PUSH2 0x100 EXP SWAP1 DIV PUSH20 0xFFFFFFFFFFFFFFFFFFFFFFFFFFFFFFFFFFFFFFFF AND PUSH1 0xE PUSH1 0x0 DUP8 DUP6 DUP2 MLOAD DUP2 LT PUSH2 0x1456 JUMPI PUSH2 0x1455 PUSH2 0x3B0D JUMP JUMPDEST JUMPDEST PUSH1 0x20 MUL PUSH1 0x20 ADD ADD MLOAD PUSH20 0xFFFFFFFFFFFFFFFFFFFFFFFFFFFFFFFFFFFFFFFF AND PUSH20 0xFFFFFFFFFFFFFFFFFFFFFFFFFFFFFFFFFFFFFFFF AND DUP2 MSTORE PUSH1 0x20 ADD SWAP1 DUP2 MSTORE PUSH1 0x20 ADD PUSH1 0x0 KECCAK256 PUSH1 0x0 PUSH2 0x100 EXP DUP2 SLOAD DUP2 PUSH20 0xFFFFFFFFFFFFFFFFFFFFFFFFFFFFFFFFFFFFFFFF MUL NOT AND SWAP1 DUP4 PUSH20 0xFFFFFFFFFFFFFFFFFFFFFFFFFFFFFFFFFFFFFFFF AND MUL OR SWAP1 SSTORE POP POP DUP1 DUP1 PUSH2 0x14E2 SWAP1 PUSH2 0x3A66 JUMP JUMPDEST SWAP2 POP POP PUSH2 0x1200 JUMP JUMPDEST POP PUSH2 0x1500 DUP2 PUSH1 0x6 SLOAD PUSH2 0x26DE SWAP1 SWAP2 SWAP1 PUSH4 0xFFFFFFFF AND JUMP JUMPDEST PUSH1 0x6 DUP2 SWAP1 SSTORE POP DUP3 MLOAD PUSH32 0x6074084F4DBD9879D266F074BE61EB039A0DB2AA46E98E700223AD5C2BEF5BD5 PUSH1 0x40 MLOAD PUSH1 0x40 MLOAD DUP1 SWAP2 SUB SWAP1 LOG2 POP POP POP JUMP JUMPDEST PUSH1 0x6 SLOAD DUP2 JUMP JUMPDEST PUSH1 0xB PUSH1 0x20 MSTORE DUP1 PUSH1 0x0 MSTORE PUSH1 0x40 PUSH1 0x0 KECCAK256 PUSH1 0x0 SWAP2 POP SWAP1 POP SLOAD DUP2 JUMP JUMPDEST PUSH2 0x155F PUSH2 0x26AA JUMP JUMPDEST PUSH20 0xFFFFFFFFFFFFFFFFFFFFFFFFFFFFFFFFFFFFFFFF AND PUSH2 0x157D PUSH2 0x15F8 JUMP JUMPDEST PUSH20 0xFFFFFFFFFFFFFFFFFFFFFFFFFFFFFFFFFFFFFFFF AND EQ PUSH2 0x15D3 JUMPI PUSH1 0x40 MLOAD PUSH32 0x8C379A000000000000000000000000000000000000000000000000000000000 DUP2 MSTORE PUSH1 0x4 ADD PUSH2 0x15CA SWAP1 PUSH2 0x3653 JUMP JUMPDEST PUSH1 0x40 MLOAD DUP1 SWAP2 SUB SWAP1 REVERT JUMPDEST PUSH2 0x15DD PUSH1 0x0 PUSH2 0x2940 JUMP JUMPDEST JUMP JUMPDEST PUSH1 0x3 SLOAD DUP2 JUMP JUMPDEST PUSH1 0x9 PUSH1 0x0 SWAP1 SLOAD SWAP1 PUSH2 0x100 EXP SWAP1 DIV PUSH1 0xFF AND DUP2 JUMP JUMPDEST PUSH1 0x0 DUP1 PUSH1 0x0 SWAP1 SLOAD SWAP1 PUSH2 0x100 EXP SWAP1 DIV PUSH20 0xFFFFFFFFFFFFFFFFFFFFFFFFFFFFFFFFFFFFFFFF AND SWAP1 POP SWAP1 JUMP JUMPDEST PUSH1 0x7 SLOAD DUP2 JUMP JUMPDEST PUSH1 0x0 DUP1 PUSH2 0x1640 PUSH1 0x5A PUSH1 0x7 SLOAD PUSH2 0x26DE SWAP1 SWAP2 SWAP1 PUSH4 0xFFFFFFFF AND JUMP JUMPDEST SWAP1 POP PUSH1 0x0 PUSH2 0x1667 PUSH3 0x15180 PUSH1 0x8 SLOAD PUSH2 0x1658 SWAP2 SWAP1 PUSH2 0x38E4 JUMP JUMPDEST DUP4 PUSH2 0x26DE SWAP1 SWAP2 SWAP1 PUSH4 0xFFFFFFFF AND JUMP JUMPDEST SWAP1 POP PUSH1 0x0 DUP1 PUSH1 0x7 SLOAD GT DUP1 ISZERO PUSH2 0x167B JUMPI POP DUP2 TIMESTAMP GT JUMPDEST PUSH2 0x1686 JUMPI PUSH1 0x64 PUSH2 0x16E1 JUMP JUMPDEST PUSH2 0x16E0 PUSH1 0x64 PUSH2 0x16D2 PUSH1 0x32 PUSH2 0x16C4 PUSH3 0x15180 PUSH1 0x1E PUSH2 0x16A3 SWAP2 SWAP1 PUSH2 0x38E4 JUMP JUMPDEST PUSH2 0x16B6 DUP9 TIMESTAMP PUSH2 0x26B2 SWAP1 SWAP2 SWAP1 PUSH4 0xFFFFFFFF AND JUMP JUMPDEST PUSH2 0x26F4 SWAP1 SWAP2 SWAP1 PUSH4 0xFFFFFFFF AND JUMP JUMPDEST PUSH2 0x26C8 SWAP1 SWAP2 SWAP1 PUSH4 0xFFFFFFFF AND JUMP JUMPDEST PUSH2 0x26DE SWAP1 SWAP2 SWAP1 PUSH4 0xFFFFFFFF AND JUMP JUMPDEST JUMPDEST SWAP1 POP PUSH2 0x3E8 DUP2 GT PUSH2 0x16F2 JUMPI DUP1 PUSH2 0x16F6 JUMP JUMPDEST PUSH2 0x3E8 JUMPDEST SWAP4 POP POP POP POP SWAP1 JUMP JUMPDEST PUSH1 0x4 SLOAD DUP2 JUMP JUMPDEST PUSH1 0x64 DUP2 JUMP JUMPDEST PUSH1 0xD PUSH1 0x20 MSTORE DUP1 PUSH1 0x0 MSTORE PUSH1 0x40 PUSH1 0x0 KECCAK256 PUSH1 0x0 SWAP2 POP SWAP1 POP SLOAD DUP2 JUMP JUMPDEST PUSH2 0x1729 PUSH2 0x26AA JUMP JUMPDEST PUSH20 0xFFFFFFFFFFFFFFFFFFFFFFFFFFFFFFFFFFFFFFFF AND PUSH2 0x1747 PUSH2 0x15F8 JUMP JUMPDEST PUSH20 0xFFFFFFFFFFFFFFFFFFFFFFFFFFFFFFFFFFFFFFFF AND EQ PUSH2 0x179D JUMPI PUSH1 0x40 MLOAD PUSH32 0x8C379A000000000000000000000000000000000000000000000000000000000 DUP2 MSTORE PUSH1 0x4 ADD PUSH2 0x1794 SWAP1 PUSH2 0x3653 JUMP JUMPDEST PUSH1 0x40 MLOAD DUP1 SWAP2 SUB SWAP1 REVERT JUMPDEST PUSH1 0x64 DUP2 MLOAD GT ISZERO PUSH2 0x17E2 JUMPI PUSH1 0x40 MLOAD PUSH32 0x8C379A000000000000000000000000000000000000000000000000000000000 DUP2 MSTORE PUSH1 0x4 ADD PUSH2 0x17D9 SWAP1 PUSH2 0x35D3 JUMP JUMPDEST PUSH1 0x40 MLOAD DUP1 SWAP2 SUB SWAP1 REVERT JUMPDEST PUSH1 0x0 JUMPDEST DUP2 MLOAD DUP2 LT ISZERO PUSH2 0x1873 JUMPI PUSH1 0x1 PUSH1 0xA PUSH1 0x0 DUP5 DUP5 DUP2 MLOAD DUP2 LT PUSH2 0x1807 JUMPI PUSH2 0x1806 PUSH2 0x3B0D JUMP JUMPDEST JUMPDEST PUSH1 0x20 MUL PUSH1 0x20 ADD ADD MLOAD PUSH20 0xFFFFFFFFFFFFFFFFFFFFFFFFFFFFFFFFFFFFFFFF AND PUSH20 0xFFFFFFFFFFFFFFFFFFFFFFFFFFFFFFFFFFFFFFFF AND DUP2 MSTORE PUSH1 0x20 ADD SWAP1 DUP2 MSTORE PUSH1 0x20 ADD PUSH1 0x0 KECCAK256 PUSH1 0x0 PUSH2 0x100 EXP DUP2 SLOAD DUP2 PUSH1 0xFF MUL NOT AND SWAP1 DUP4 ISZERO ISZERO MUL OR SWAP1 SSTORE POP DUP1 DUP1 PUSH2 0x186B SWAP1 PUSH2 0x3A66 JUMP JUMPDEST SWAP2 POP POP PUSH2 0x17E5 JUMP JUMPDEST POP DUP1 MLOAD PUSH32 0xF899E24720678B9547483D3C332E9A7E1EABB9C013BD2E0FF30D83806CF421F3 PUSH1 0x40 MLOAD PUSH1 0x40 MLOAD DUP1 SWAP2 SUB SWAP1 LOG2 POP JUMP JUMPDEST PUSH1 0xC PUSH1 0x20 MSTORE DUP1 PUSH1 0x0 MSTORE PUSH1 0x40 PUSH1 0x0 KECCAK256 PUSH1 0x0 SWAP2 POP SWAP1 POP SLOAD DUP2 JUMP JUMPDEST PUSH2 0x18C5 PUSH2 0x26AA JUMP JUMPDEST PUSH20 0xFFFFFFFFFFFFFFFFFFFFFFFFFFFFFFFFFFFFFFFF AND PUSH2 0x18E3 PUSH2 0x15F8 JUMP JUMPDEST PUSH20 0xFFFFFFFFFFFFFFFFFFFFFFFFFFFFFFFFFFFFFFFF AND EQ PUSH2 0x1939 JUMPI PUSH1 0x40 MLOAD PUSH32 0x8C379A000000000000000000000000000000000000000000000000000000000 DUP2 MSTORE PUSH1 0x4 ADD PUSH2 0x1930 SWAP1 PUSH2 0x3653 JUMP JUMPDEST PUSH1 0x40 MLOAD DUP1 SWAP2 SUB SWAP1 REVERT JUMPDEST PUSH1 0x9 PUSH1 0x0 SWAP1 SLOAD SWAP1 PUSH2 0x100 EXP SWAP1 DIV PUSH1 0xFF AND PUSH2 0x1988 JUMPI PUSH1 0x40 MLOAD PUSH32 0x8C379A000000000000000000000000000000000000000000000000000000000 DUP2 MSTORE PUSH1 0x4 ADD PUSH2 0x197F SWAP1 PUSH2 0x34D3 JUMP JUMPDEST PUSH1 0x40 MLOAD DUP1 SWAP2 SUB SWAP1 REVERT JUMPDEST PUSH1 0x0 PUSH1 0x9 PUSH1 0x0 PUSH2 0x100 EXP DUP2 SLOAD DUP2 PUSH1 0xFF MUL NOT AND SWAP1 DUP4 ISZERO ISZERO MUL OR SWAP1 SSTORE POP JUMP JUMPDEST PUSH1 0xA PUSH1 0x20 MSTORE DUP1 PUSH1 0x0 MSTORE PUSH1 0x40 PUSH1 0x0 KECCAK256 PUSH1 0x0 SWAP2 POP SLOAD SWAP1 PUSH2 0x100 EXP SWAP1 DIV PUSH1 0xFF AND DUP2 JUMP JUMPDEST PUSH1 0x0 PUSH1 0x7 SLOAD EQ PUSH2 0x1A0A JUMPI PUSH1 0x40 MLOAD PUSH32 0x8C379A000000000000000000000000000000000000000000000000000000000 DUP2 MSTORE PUSH1 0x4 ADD PUSH2 0x1A01 SWAP1 PUSH2 0x3753 JUMP JUMPDEST PUSH1 0x40 MLOAD DUP1 SWAP2 SUB SWAP1 REVERT JUMPDEST PUSH1 0xA PUSH1 0x0 CALLER PUSH20 0xFFFFFFFFFFFFFFFFFFFFFFFFFFFFFFFFFFFFFFFF AND PUSH20 0xFFFFFFFFFFFFFFFFFFFFFFFFFFFFFFFFFFFFFFFF AND DUP2 MSTORE PUSH1 0x20 ADD SWAP1 DUP2 MSTORE PUSH1 0x20 ADD PUSH1 0x0 KECCAK256 PUSH1 0x0 SWAP1 SLOAD SWAP1 PUSH2 0x100 EXP SWAP1 DIV PUSH1 0xFF AND DUP1 PUSH2 0x1A6F JUMPI POP PUSH1 0x9 PUSH1 0x0 SWAP1 SLOAD SWAP1 PUSH2 0x100 EXP SWAP1 DIV PUSH1 0xFF AND ISZERO JUMPDEST PUSH2 0x1AAE JUMPI PUSH1 0x40 MLOAD PUSH32 0x8C379A000000000000000000000000000000000000000000000000000000000 DUP2 MSTORE PUSH1 0x4 ADD PUSH2 0x1AA5 SWAP1 PUSH2 0x35B3 JUMP JUMPDEST PUSH1 0x40 MLOAD DUP1 SWAP2 SUB SWAP1 REVERT JUMPDEST PUSH1 0x0 DUP1 PUSH20 0xFFFFFFFFFFFFFFFFFFFFFFFFFFFFFFFFFFFFFFFF AND PUSH1 0x2 PUSH1 0x0 SWAP1 SLOAD SWAP1 PUSH2 0x100 EXP SWAP1 DIV PUSH20 0xFFFFFFFFFFFFFFFFFFFFFFFFFFFFFFFFFFFFFFFF AND PUSH20 0xFFFFFFFFFFFFFFFFFFFFFFFFFFFFFFFFFFFFFFFF AND EQ SWAP1 POP DUP1 ISZERO DUP1 PUSH2 0x1B0F JUMPI POP DUP2 CALLVALUE EQ JUMPDEST PUSH2 0x1B4E JUMPI PUSH1 0x40 MLOAD PUSH32 0x8C379A000000000000000000000000000000000000000000000000000000000 DUP2 MSTORE PUSH1 0x4 ADD PUSH2 0x1B45 SWAP1 PUSH2 0x3773 JUMP JUMPDEST PUSH1 0x40 MLOAD DUP1 SWAP2 SUB SWAP1 REVERT JUMPDEST PUSH1 0x4 SLOAD PUSH2 0x1BA3 DUP4 PUSH1 0xB PUSH1 0x0 CALLER PUSH20 0xFFFFFFFFFFFFFFFFFFFFFFFFFFFFFFFFFFFFFFFF AND PUSH20 0xFFFFFFFFFFFFFFFFFFFFFFFFFFFFFFFFFFFFFFFF AND DUP2 MSTORE PUSH1 0x20 ADD SWAP1 DUP2 MSTORE PUSH1 0x20 ADD PUSH1 0x0 KECCAK256 SLOAD PUSH2 0x26DE SWAP1 SWAP2 SWAP1 PUSH4 0xFFFFFFFF AND JUMP JUMPDEST GT ISZERO PUSH2 0x1BE4 JUMPI PUSH1 0x40 MLOAD PUSH32 0x8C379A000000000000000000000000000000000000000000000000000000000 DUP2 MSTORE PUSH1 0x4 ADD PUSH2 0x1BDB SWAP1 PUSH2 0x3513 JUMP JUMPDEST PUSH1 0x40 MLOAD DUP1 SWAP2 SUB SWAP1 REVERT JUMPDEST PUSH1 0x0 PUSH2 0x1C15 PUSH1 0x3 SLOAD PUSH2 0x1C07 PUSH8 0xDE0B6B3A7640000 DUP7 PUSH2 0x26C8 SWAP1 SWAP2 SWAP1 PUSH4 0xFFFFFFFF AND JUMP JUMPDEST PUSH2 0x26F4 SWAP1 SWAP2 SWAP1 PUSH4 0xFFFFFFFF AND JUMP JUMPDEST SWAP1 POP PUSH1 0x0 PUSH2 0x1C33 DUP3 PUSH2 0x1C25 PUSH2 0x7EB JUMP JUMPDEST PUSH2 0x26B2 SWAP1 SWAP2 SWAP1 PUSH4 0xFFFFFFFF AND JUMP JUMPDEST GT PUSH2 0x1C73 JUMPI PUSH1 0x40 MLOAD PUSH32 0x8C379A000000000000000000000000000000000000000000000000000000000 DUP2 MSTORE PUSH1 0x4 ADD PUSH2 0x1C6A SWAP1 PUSH2 0x3673 JUMP JUMPDEST PUSH1 0x40 MLOAD DUP1 SWAP2 SUB SWAP1 REVERT JUMPDEST DUP2 PUSH2 0x1CC8 JUMPI PUSH2 0x1CC7 CALLER ADDRESS DUP6 PUSH1 0x2 PUSH1 0x0 SWAP1 SLOAD SWAP1 PUSH2 0x100 EXP SWAP1 DIV PUSH20 0xFFFFFFFFFFFFFFFFFFFFFFFFFFFFFFFFFFFFFFFF AND PUSH20 0xFFFFFFFFFFFFFFFFFFFFFFFFFFFFFFFFFFFFFFFF AND PUSH2 0x2A04 SWAP1 SWAP4 SWAP3 SWAP2 SWAP1 PUSH4 0xFFFFFFFF AND JUMP JUMPDEST JUMPDEST PUSH2 0x1D1A DUP4 PUSH1 0xB PUSH1 0x0 CALLER PUSH20 0xFFFFFFFFFFFFFFFFFFFFFFFFFFFFFFFFFFFFFFFF AND PUSH20 0xFFFFFFFFFFFFFFFFFFFFFFFFFFFFFFFFFFFFFFFF AND DUP2 MSTORE PUSH1 0x20 ADD SWAP1 DUP2 MSTORE PUSH1 0x20 ADD PUSH1 0x0 KECCAK256 SLOAD PUSH2 0x26DE SWAP1 SWAP2 SWAP1 PUSH4 0xFFFFFFFF AND JUMP JUMPDEST PUSH1 0xB PUSH1 0x0 CALLER PUSH20 0xFFFFFFFFFFFFFFFFFFFFFFFFFFFFFFFFFFFFFFFF AND PUSH20 0xFFFFFFFFFFFFFFFFFFFFFFFFFFFFFFFFFFFFFFFF AND DUP2 MSTORE PUSH1 0x20 ADD SWAP1 DUP2 MSTORE PUSH1 0x20 ADD PUSH1 0x0 KECCAK256 DUP2 SWAP1 SSTORE POP PUSH2 0x1D72 DUP2 PUSH1 0x6 SLOAD PUSH2 0x26DE SWAP1 SWAP2 SWAP1 PUSH4 0xFFFFFFFF AND JUMP JUMPDEST PUSH1 0x6 DUP2 SWAP1 SSTORE POP PUSH1 0x2 PUSH1 0x0 SWAP1 SLOAD SWAP1 PUSH2 0x100 EXP SWAP1 DIV PUSH20 0xFFFFFFFFFFFFFFFFFFFFFFFFFFFFFFFFFFFFFFFF AND PUSH1 0xE PUSH1 0x0 CALLER PUSH20 0xFFFFFFFFFFFFFFFFFFFFFFFFFFFFFFFFFFFFFFFF AND PUSH20 0xFFFFFFFFFFFFFFFFFFFFFFFFFFFFFFFFFFFFFFFF AND DUP2 MSTORE PUSH1 0x20 ADD SWAP1 DUP2 MSTORE PUSH1 0x20 ADD PUSH1 0x0 KECCAK256 PUSH1 0x0 PUSH2 0x100 EXP DUP2 SLOAD DUP2 PUSH20 0xFFFFFFFFFFFFFFFFFFFFFFFFFFFFFFFFFFFFFFFF MUL NOT AND SWAP1 DUP4 PUSH20 0xFFFFFFFFFFFFFFFFFFFFFFFFFFFFFFFFFFFFFFFF AND MUL OR SWAP1 SSTORE POP DUP3 CALLER PUSH20 0xFFFFFFFFFFFFFFFFFFFFFFFFFFFFFFFFFFFFFFFF AND PUSH32 0xC55650CCDA1011E1CDC769B1FBF546EBB8C97800B6072B49E06CD560305B1D67 PUSH1 0x40 MLOAD PUSH1 0x40 MLOAD DUP1 SWAP2 SUB SWAP1 LOG3 POP POP POP JUMP JUMPDEST PUSH1 0x8 SLOAD DUP2 JUMP JUMPDEST PUSH1 0x1E DUP2 JUMP JUMPDEST PUSH2 0x1E74 PUSH2 0x26AA JUMP JUMPDEST PUSH20 0xFFFFFFFFFFFFFFFFFFFFFFFFFFFFFFFFFFFFFFFF AND PUSH2 0x1E92 PUSH2 0x15F8 JUMP JUMPDEST PUSH20 0xFFFFFFFFFFFFFFFFFFFFFFFFFFFFFFFFFFFFFFFF AND EQ PUSH2 0x1EE8 JUMPI PUSH1 0x40 MLOAD PUSH32 0x8C379A000000000000000000000000000000000000000000000000000000000 DUP2 MSTORE PUSH1 0x4 ADD PUSH2 0x1EDF SWAP1 PUSH2 0x3653 JUMP JUMPDEST PUSH1 0x40 MLOAD DUP1 SWAP2 SUB SWAP1 REVERT JUMPDEST PUSH1 0x0 PUSH1 0x7 SLOAD EQ PUSH2 0x1F2D JUMPI PUSH1 0x40 MLOAD PUSH32 0x8C379A000000000000000000000000000000000000000000000000000000000 DUP2 MSTORE PUSH1 0x4 ADD PUSH2 0x1F24 SWAP1 PUSH2 0x36F3 JUMP JUMPDEST PUSH1 0x40 MLOAD DUP1 SWAP2 SUB SWAP1 REVERT JUMPDEST TIMESTAMP PUSH1 0x7 DUP2 SWAP1 SSTORE POP PUSH1 0x6 SLOAD PUSH1 0x5 SLOAD GT PUSH2 0x2088 JUMPI DUP1 PUSH1 0x8 DUP2 SWAP1 SSTORE POP PUSH1 0x0 PUSH20 0xFFFFFFFFFFFFFFFFFFFFFFFFFFFFFFFFFFFFFFFF AND PUSH1 0x2 PUSH1 0x0 SWAP1 SLOAD SWAP1 PUSH2 0x100 EXP SWAP1 DIV PUSH20 0xFFFFFFFFFFFFFFFFFFFFFFFFFFFFFFFFFFFFFFFF AND PUSH20 0xFFFFFFFFFFFFFFFFFFFFFFFFFFFFFFFFFFFFFFFF AND EQ PUSH2 0x2078 JUMPI PUSH2 0x2073 PUSH1 0x2 PUSH1 0x0 SWAP1 SLOAD SWAP1 PUSH2 0x100 EXP SWAP1 DIV PUSH20 0xFFFFFFFFFFFFFFFFFFFFFFFFFFFFFFFFFFFFFFFF AND CALLER PUSH1 0x2 PUSH1 0x0 SWAP1 SLOAD SWAP1 PUSH2 0x100 EXP SWAP1 DIV PUSH20 0xFFFFFFFFFFFFFFFFFFFFFFFFFFFFFFFFFFFFFFFF AND PUSH20 0xFFFFFFFFFFFFFFFFFFFFFFFFFFFFFFFFFFFFFFFF AND PUSH4 0x70A08231 ADDRESS PUSH1 0x40 MLOAD DUP3 PUSH4 0xFFFFFFFF AND PUSH1 0xE0 SHL DUP2 MSTORE PUSH1 0x4 ADD PUSH2 0x201E SWAP2 SWAP1 PUSH2 0x3400 JUMP JUMPDEST PUSH1 0x20 PUSH1 0x40 MLOAD DUP1 DUP4 SUB DUP2 DUP7 DUP1 EXTCODESIZE ISZERO DUP1 ISZERO PUSH2 0x2036 JUMPI PUSH1 0x0 DUP1 REVERT JUMPDEST POP GAS STATICCALL ISZERO DUP1 ISZERO PUSH2 0x204A JUMPI RETURNDATASIZE PUSH1 0x0 DUP1 RETURNDATACOPY RETURNDATASIZE PUSH1 0x0 REVERT JUMPDEST POP POP POP POP PUSH1 0x40 MLOAD RETURNDATASIZE PUSH1 0x1F NOT PUSH1 0x1F DUP3 ADD AND DUP3 ADD DUP1 PUSH1 0x40 MSTORE POP DUP2 ADD SWAP1 PUSH2 0x206E SWAP2 SWAP1 PUSH2 0x3014 JUMP JUMPDEST PUSH2 0x270A JUMP JUMPDEST PUSH2 0x2083 JUMP JUMPDEST PUSH2 0x2082 CALLER SELFBALANCE PUSH2 0x2840 JUMP JUMPDEST JUMPDEST PUSH2 0x21CE JUMP JUMPDEST PUSH1 0x0 PUSH1 0x8 DUP2 SWAP1 SSTORE POP PUSH1 0x0 PUSH20 0xFFFFFFFFFFFFFFFFFFFFFFFFFFFFFFFFFFFFFFFF AND PUSH1 0x1 PUSH1 0x0 SWAP1 SLOAD SWAP1 PUSH2 0x100 EXP SWAP1 DIV PUSH20 0xFFFFFFFFFFFFFFFFFFFFFFFFFFFFFFFFFFFFFFFF AND PUSH20 0xFFFFFFFFFFFFFFFFFFFFFFFFFFFFFFFFFFFFFFFF AND EQ PUSH2 0x21C2 JUMPI PUSH2 0x21BD PUSH1 0x1 PUSH1 0x0 SWAP1 SLOAD SWAP1 PUSH2 0x100 EXP SWAP1 DIV PUSH20 0xFFFFFFFFFFFFFFFFFFFFFFFFFFFFFFFFFFFFFFFF AND CALLER PUSH1 0x1 PUSH1 0x0 SWAP1 SLOAD SWAP1 PUSH2 0x100 EXP SWAP1 DIV PUSH20 0xFFFFFFFFFFFFFFFFFFFFFFFFFFFFFFFFFFFFFFFF AND PUSH20 0xFFFFFFFFFFFFFFFFFFFFFFFFFFFFFFFFFFFFFFFF AND PUSH4 0x70A08231 ADDRESS PUSH1 0x40 MLOAD DUP3 PUSH4 0xFFFFFFFF AND PUSH1 0xE0 SHL DUP2 MSTORE PUSH1 0x4 ADD PUSH2 0x2168 SWAP2 SWAP1 PUSH2 0x3400 JUMP JUMPDEST PUSH1 0x20 PUSH1 0x40 MLOAD DUP1 DUP4 SUB DUP2 DUP7 DUP1 EXTCODESIZE ISZERO DUP1 ISZERO PUSH2 0x2180 JUMPI PUSH1 0x0 DUP1 REVERT JUMPDEST POP GAS STATICCALL ISZERO DUP1 ISZERO PUSH2 0x2194 JUMPI RETURNDATASIZE PUSH1 0x0 DUP1 RETURNDATACOPY RETURNDATASIZE PUSH1 0x0 REVERT JUMPDEST POP POP POP POP PUSH1 0x40 MLOAD RETURNDATASIZE PUSH1 0x1F NOT PUSH1 0x1F DUP3 ADD AND DUP3 ADD DUP1 PUSH1 0x40 MSTORE POP DUP2 ADD SWAP1 PUSH2 0x21B8 SWAP2 SWAP1 PUSH2 0x3014 JUMP JUMPDEST PUSH2 0x270A JUMP JUMPDEST PUSH2 0x21CD JUMP JUMPDEST PUSH2 0x21CC CALLER SELFBALANCE PUSH2 0x2840 JUMP JUMPDEST JUMPDEST JUMPDEST PUSH2 0x21FA PUSH2 0x21E9 PUSH3 0x15180 PUSH1 0x8 SLOAD PUSH2 0x26C8 SWAP1 SWAP2 SWAP1 PUSH4 0xFFFFFFFF AND JUMP JUMPDEST PUSH1 0x7 SLOAD PUSH2 0x26DE SWAP1 SWAP2 SWAP1 PUSH4 0xFFFFFFFF AND JUMP JUMPDEST PUSH32 0x94BB74A9473AE4063EC1E73DC3E35FD4B5ABE9CC1E43AD0DB84E5358559CCD5A PUSH1 0x40 MLOAD PUSH1 0x40 MLOAD DUP1 SWAP2 SUB SWAP1 LOG2 POP JUMP JUMPDEST PUSH2 0x2231 PUSH2 0x26AA JUMP JUMPDEST PUSH20 0xFFFFFFFFFFFFFFFFFFFFFFFFFFFFFFFFFFFFFFFF AND PUSH2 0x224F PUSH2 0x15F8 JUMP JUMPDEST PUSH20 0xFFFFFFFFFFFFFFFFFFFFFFFFFFFFFFFFFFFFFFFF AND EQ PUSH2 0x22A5 JUMPI PUSH1 0x40 MLOAD PUSH32 0x8C379A000000000000000000000000000000000000000000000000000000000 DUP2 MSTORE PUSH1 0x4 ADD PUSH2 0x229C SWAP1 PUSH2 0x3653 JUMP JUMPDEST PUSH1 0x40 MLOAD DUP1 SWAP2 SUB SWAP1 REVERT JUMPDEST PUSH1 0x0 PUSH20 0xFFFFFFFFFFFFFFFFFFFFFFFFFFFFFFFFFFFFFFFF AND DUP2 PUSH20 0xFFFFFFFFFFFFFFFFFFFFFFFFFFFFFFFFFFFFFFFF AND EQ ISZERO PUSH2 0x2315 JUMPI PUSH1 0x40 MLOAD PUSH32 0x8C379A000000000000000000000000000000000000000000000000000000000 DUP2 MSTORE PUSH1 0x4 ADD PUSH2 0x230C SWAP1 PUSH2 0x34F3 JUMP JUMPDEST PUSH1 0x40 MLOAD DUP1 SWAP2 SUB SWAP1 REVERT JUMPDEST PUSH2 0x231E DUP2 PUSH2 0x2940 JUMP JUMPDEST POP JUMP JUMPDEST PUSH1 0xE PUSH1 0x20 MSTORE DUP1 PUSH1 0x0 MSTORE PUSH1 0x40 PUSH1 0x0 KECCAK256 PUSH1 0x0 SWAP2 POP SLOAD SWAP1 PUSH2 0x100 EXP SWAP1 DIV PUSH20 0xFFFFFFFFFFFFFFFFFFFFFFFFFFFFFFFFFFFFFFFF AND DUP2 JUMP JUMPDEST PUSH1 0x1 PUSH1 0x0 SWAP1 SLOAD SWAP1 PUSH2 0x100 EXP SWAP1 DIV PUSH20 0xFFFFFFFFFFFFFFFFFFFFFFFFFFFFFFFFFFFFFFFF AND DUP2 JUMP JUMPDEST PUSH1 0x5 SLOAD DUP2 JUMP JUMPDEST PUSH2 0x2388 PUSH2 0x26AA JUMP JUMPDEST PUSH20 0xFFFFFFFFFFFFFFFFFFFFFFFFFFFFFFFFFFFFFFFF AND PUSH2 0x23A6 PUSH2 0x15F8 JUMP JUMPDEST PUSH20 0xFFFFFFFFFFFFFFFFFFFFFFFFFFFFFFFFFFFFFFFF AND EQ PUSH2 0x23FC JUMPI PUSH1 0x40 MLOAD PUSH32 0x8C379A000000000000000000000000000000000000000000000000000000000 DUP2 MSTORE PUSH1 0x4 ADD PUSH2 0x23F3 SWAP1 PUSH2 0x3653 JUMP JUMPDEST PUSH1 0x40 MLOAD DUP1 SWAP2 SUB SWAP1 REVERT JUMPDEST PUSH1 0x1 PUSH1 0x0 SWAP1 SLOAD SWAP1 PUSH2 0x100 EXP SWAP1 DIV PUSH20 0xFFFFFFFFFFFFFFFFFFFFFFFFFFFFFFFFFFFFFFFF AND PUSH20 0xFFFFFFFFFFFFFFFFFFFFFFFFFFFFFFFFFFFFFFFF AND DUP2 PUSH20 0xFFFFFFFFFFFFFFFFFFFFFFFFFFFFFFFFFFFFFFFF AND EQ ISZERO PUSH2 0x248D JUMPI PUSH1 0x40 MLOAD PUSH32 0x8C379A000000000000000000000000000000000000000000000000000000000 DUP2 MSTORE PUSH1 0x4 ADD PUSH2 0x2484 SWAP1 PUSH2 0x35F3 JUMP JUMPDEST PUSH1 0x40 MLOAD DUP1 SWAP2 SUB SWAP1 REVERT JUMPDEST PUSH1 0x1 PUSH1 0x0 SWAP1 SLOAD SWAP1 PUSH2 0x100 EXP SWAP1 DIV PUSH20 0xFFFFFFFFFFFFFFFFFFFFFFFFFFFFFFFFFFFFFFFF AND PUSH20 0xFFFFFFFFFFFFFFFFFFFFFFFFFFFFFFFFFFFFFFFF AND PUSH4 0x70A08231 ADDRESS PUSH1 0x40 MLOAD DUP3 PUSH4 0xFFFFFFFF AND PUSH1 0xE0 SHL DUP2 MSTORE PUSH1 0x4 ADD PUSH2 0x24E8 SWAP2 SWAP1 PUSH2 0x3400 JUMP JUMPDEST PUSH1 0x20 PUSH1 0x40 MLOAD DUP1 DUP4 SUB DUP2 DUP7 DUP1 EXTCODESIZE ISZERO DUP1 ISZERO PUSH2 0x2500 JUMPI PUSH1 0x0 DUP1 REVERT JUMPDEST POP GAS STATICCALL ISZERO DUP1 ISZERO PUSH2 0x2514 JUMPI RETURNDATASIZE PUSH1 0x0 DUP1 RETURNDATACOPY RETURNDATASIZE PUSH1 0x0 REVERT JUMPDEST POP POP POP POP PUSH1 0x40 MLOAD RETURNDATASIZE PUSH1 0x1F NOT PUSH1 0x1F DUP3 ADD AND DUP3 ADD DUP1 PUSH1 0x40 MSTORE POP DUP2 ADD SWAP1 PUSH2 0x2538 SWAP2 SWAP1 PUSH2 0x3014 JUMP JUMPDEST DUP2 PUSH20 0xFFFFFFFFFFFFFFFFFFFFFFFFFFFFFFFFFFFFFFFF AND PUSH4 0x70A08231 ADDRESS PUSH1 0x40 MLOAD DUP3 PUSH4 0xFFFFFFFF AND PUSH1 0xE0 SHL DUP2 MSTORE PUSH1 0x4 ADD PUSH2 0x2571 SWAP2 SWAP1 PUSH2 0x3400 JUMP JUMPDEST PUSH1 0x20 PUSH1 0x40 MLOAD DUP1 DUP4 SUB DUP2 DUP7 DUP1 EXTCODESIZE ISZERO DUP1 ISZERO PUSH2 0x2589 JUMPI PUSH1 0x0 DUP1 REVERT JUMPDEST POP GAS STATICCALL ISZERO DUP1 ISZERO PUSH2 0x259D JUMPI RETURNDATASIZE PUSH1 0x0 DUP1 RETURNDATACOPY RETURNDATASIZE PUSH1 0x0 REVERT JUMPDEST POP POP POP POP PUSH1 0x40 MLOAD RETURNDATASIZE PUSH1 0x1F NOT PUSH1 0x1F DUP3 ADD AND DUP3 ADD DUP1 PUSH1 0x40 MSTORE POP DUP2 ADD SWAP1 PUSH2 0x25C1 SWAP2 SWAP1 PUSH2 0x3014 JUMP JUMPDEST EQ PUSH2 0x2601 JUMPI PUSH1 0x40 MLOAD PUSH32 0x8C379A000000000000000000000000000000000000000000000000000000000 DUP2 MSTORE PUSH1 0x4 ADD PUSH2 0x25F8 SWAP1 PUSH2 0x3633 JUMP JUMPDEST PUSH1 0x40 MLOAD DUP1 SWAP2 SUB SWAP1 REVERT JUMPDEST DUP1 PUSH1 0x1 PUSH1 0x0 PUSH2 0x100 EXP DUP2 SLOAD DUP2 PUSH20 0xFFFFFFFFFFFFFFFFFFFFFFFFFFFFFFFFFFFFFFFF MUL NOT AND SWAP1 DUP4 PUSH20 0xFFFFFFFFFFFFFFFFFFFFFFFFFFFFFFFFFFFFFFFF AND MUL OR SWAP1 SSTORE POP PUSH1 0x1 PUSH1 0x0 SWAP1 SLOAD SWAP1 PUSH2 0x100 EXP SWAP1 DIV PUSH20 0xFFFFFFFFFFFFFFFFFFFFFFFFFFFFFFFFFFFFFFFF AND PUSH20 0xFFFFFFFFFFFFFFFFFFFFFFFFFFFFFFFFFFFFFFFF AND PUSH32 0x3FCFC24A3384CA156092D9242CB0F84ABAF442146D91B8C93BEA526561B83F83 PUSH1 0x40 MLOAD PUSH1 0x40 MLOAD DUP1 SWAP2 SUB SWAP1 LOG2 POP JUMP JUMPDEST PUSH1 0x0 CALLER SWAP1 POP SWAP1 JUMP JUMPDEST PUSH1 0x0 DUP2 DUP4 PUSH2 0x26C0 SWAP2 SWAP1 PUSH2 0x393E JUMP JUMPDEST SWAP1 POP SWAP3 SWAP2 POP POP JUMP JUMPDEST PUSH1 0x0 DUP2 DUP4 PUSH2 0x26D6 SWAP2 SWAP1 PUSH2 0x38E4 JUMP JUMPDEST SWAP1 POP SWAP3 SWAP2 POP POP JUMP JUMPDEST PUSH1 0x0 DUP2 DUP4 PUSH2 0x26EC SWAP2 SWAP1 PUSH2 0x385D JUMP JUMPDEST SWAP1 POP SWAP3 SWAP2 POP POP JUMP JUMPDEST PUSH1 0x0 DUP2 DUP4 PUSH2 0x2702 SWAP2 SWAP1 PUSH2 0x38B3 JUMP JUMPDEST SWAP1 POP SWAP3 SWAP2 POP POP JUMP JUMPDEST PUSH1 0x0 DUP1 DUP5 PUSH20 0xFFFFFFFFFFFFFFFFFFFFFFFFFFFFFFFFFFFFFFFF AND PUSH4 0xA9059CBB DUP6 DUP6 PUSH1 0x40 MLOAD PUSH1 0x24 ADD PUSH2 0x273C SWAP3 SWAP2 SWAP1 PUSH2 0x3452 JUMP JUMPDEST PUSH1 0x40 MLOAD PUSH1 0x20 DUP2 DUP4 SUB SUB DUP2 MSTORE SWAP1 PUSH1 0x40 MSTORE SWAP1 PUSH1 0xE0 SHL PUSH1 0x20 DUP3 ADD DUP1 MLOAD PUSH28 0xFFFFFFFFFFFFFFFFFFFFFFFFFFFFFFFFFFFFFFFFFFFFFFFFFFFFFFFF DUP4 DUP2 DUP4 AND OR DUP4 MSTORE POP POP POP POP PUSH1 0x40 MLOAD PUSH2 0x278A SWAP2 SWAP1 PUSH2 0x33E9 JUMP JUMPDEST PUSH1 0x0 PUSH1 0x40 MLOAD DUP1 DUP4 SUB DUP2 PUSH1 0x0 DUP7 GAS CALL SWAP2 POP POP RETURNDATASIZE DUP1 PUSH1 0x0 DUP2 EQ PUSH2 0x27C7 JUMPI PUSH1 0x40 MLOAD SWAP2 POP PUSH1 0x1F NOT PUSH1 0x3F RETURNDATASIZE ADD AND DUP3 ADD PUSH1 0x40 MSTORE RETURNDATASIZE DUP3 MSTORE RETURNDATASIZE PUSH1 0x0 PUSH1 0x20 DUP5 ADD RETURNDATACOPY PUSH2 0x27CC JUMP JUMPDEST PUSH1 0x60 SWAP2 POP JUMPDEST POP SWAP2 POP SWAP2 POP DUP2 DUP1 ISZERO PUSH2 0x27FA JUMPI POP PUSH1 0x0 DUP2 MLOAD EQ DUP1 PUSH2 0x27F9 JUMPI POP DUP1 DUP1 PUSH1 0x20 ADD SWAP1 MLOAD DUP2 ADD SWAP1 PUSH2 0x27F8 SWAP2 SWAP1 PUSH2 0x2F8D JUMP JUMPDEST JUMPDEST JUMPDEST PUSH2 0x2839 JUMPI PUSH1 0x40 MLOAD PUSH32 0x8C379A000000000000000000000000000000000000000000000000000000000 DUP2 MSTORE PUSH1 0x4 ADD PUSH2 0x2830 SWAP1 PUSH2 0x36D3 JUMP JUMPDEST PUSH1 0x40 MLOAD DUP1 SWAP2 SUB SWAP1 REVERT JUMPDEST POP POP POP POP POP JUMP JUMPDEST PUSH1 0x0 DUP3 PUSH20 0xFFFFFFFFFFFFFFFFFFFFFFFFFFFFFFFFFFFFFFFF AND DUP3 PUSH1 0x0 PUSH8 0xFFFFFFFFFFFFFFFF DUP2 GT ISZERO PUSH2 0x2875 JUMPI PUSH2 0x2874 PUSH2 0x3B3C JUMP JUMPDEST JUMPDEST PUSH1 0x40 MLOAD SWAP1 DUP1 DUP3 MSTORE DUP1 PUSH1 0x1F ADD PUSH1 0x1F NOT AND PUSH1 0x20 ADD DUP3 ADD PUSH1 0x40 MSTORE DUP1 ISZERO PUSH2 0x28A7 JUMPI DUP2 PUSH1 0x20 ADD PUSH1 0x1 DUP3 MUL DUP1 CALLDATASIZE DUP4 CALLDATACOPY DUP1 DUP3 ADD SWAP2 POP POP SWAP1 POP JUMPDEST POP PUSH1 0x40 MLOAD PUSH2 0x28B5 SWAP2 SWAP1 PUSH2 0x33E9 JUMP JUMPDEST PUSH1 0x0 PUSH1 0x40 MLOAD DUP1 DUP4 SUB DUP2 DUP6 DUP8 GAS CALL SWAP3 POP POP POP RETURNDATASIZE DUP1 PUSH1 0x0 DUP2 EQ PUSH2 0x28F2 JUMPI PUSH1 0x40 MLOAD SWAP2 POP PUSH1 0x1F NOT PUSH1 0x3F RETURNDATASIZE ADD AND DUP3 ADD PUSH1 0x40 MSTORE RETURNDATASIZE DUP3 MSTORE RETURNDATASIZE PUSH1 0x0 PUSH1 0x20 DUP5 ADD RETURNDATACOPY PUSH2 0x28F7 JUMP JUMPDEST PUSH1 0x60 SWAP2 POP JUMPDEST POP POP SWAP1 POP DUP1 PUSH2 0x293B JUMPI PUSH1 0x40 MLOAD PUSH32 0x8C379A000000000000000000000000000000000000000000000000000000000 DUP2 MSTORE PUSH1 0x4 ADD PUSH2 0x2932 SWAP1 PUSH2 0x3533 JUMP JUMPDEST PUSH1 0x40 MLOAD DUP1 SWAP2 SUB SWAP1 REVERT JUMPDEST POP POP POP JUMP JUMPDEST PUSH1 0x0 DUP1 PUSH1 0x0 SWAP1 SLOAD SWAP1 PUSH2 0x100 EXP SWAP1 DIV PUSH20 0xFFFFFFFFFFFFFFFFFFFFFFFFFFFFFFFFFFFFFFFF AND SWAP1 POP DUP2 PUSH1 0x0 DUP1 PUSH2 0x100 EXP DUP2 SLOAD DUP2 PUSH20 0xFFFFFFFFFFFFFFFFFFFFFFFFFFFFFFFFFFFFFFFF MUL NOT AND SWAP1 DUP4 PUSH20 0xFFFFFFFFFFFFFFFFFFFFFFFFFFFFFFFFFFFFFFFF AND MUL OR SWAP1 SSTORE POP DUP2 PUSH20 0xFFFFFFFFFFFFFFFFFFFFFFFFFFFFFFFFFFFFFFFF AND DUP2 PUSH20 0xFFFFFFFFFFFFFFFFFFFFFFFFFFFFFFFFFFFFFFFF AND PUSH32 0x8BE0079C531659141344CD1FD0A4F28419497F9722A3DAAFE3B4186F6B6457E0 PUSH1 0x40 MLOAD PUSH1 0x40 MLOAD DUP1 SWAP2 SUB SWAP1 LOG3 POP POP JUMP JUMPDEST PUSH2 0x2A87 DUP5 PUSH4 0x23B872DD PUSH1 0xE0 SHL DUP6 DUP6 DUP6 PUSH1 0x40 MLOAD PUSH1 0x24 ADD PUSH2 0x2A25 SWAP4 SWAP3 SWAP2 SWAP1 PUSH2 0x341B JUMP JUMPDEST PUSH1 0x40 MLOAD PUSH1 0x20 DUP2 DUP4 SUB SUB DUP2 MSTORE SWAP1 PUSH1 0x40 MSTORE SWAP1 PUSH28 0xFFFFFFFFFFFFFFFFFFFFFFFFFFFFFFFFFFFFFFFFFFFFFFFFFFFFFFFF NOT AND PUSH1 0x20 DUP3 ADD DUP1 MLOAD PUSH28 0xFFFFFFFFFFFFFFFFFFFFFFFFFFFFFFFFFFFFFFFFFFFFFFFFFFFFFFFF DUP4 DUP2 DUP4 AND OR DUP4 MSTORE POP POP POP POP PUSH2 0x2A8D JUMP JUMPDEST POP POP POP POP JUMP JUMPDEST PUSH1 0x0 PUSH2 0x2AEF DUP3 PUSH1 0x40 MLOAD DUP1 PUSH1 0x40 ADD PUSH1 0x40 MSTORE DUP1 PUSH1 0x20 DUP2 MSTORE PUSH1 0x20 ADD PUSH32 0x5361666545524332303A206C6F772D6C6576656C2063616C6C206661696C6564 DUP2 MSTORE POP DUP6 PUSH20 0xFFFFFFFFFFFFFFFFFFFFFFFFFFFFFFFFFFFFFFFF AND PUSH2 0x2B54 SWAP1 SWAP3 SWAP2 SWAP1 PUSH4 0xFFFFFFFF AND JUMP JUMPDEST SWAP1 POP PUSH1 0x0 DUP2 MLOAD GT ISZERO PUSH2 0x2B4F JUMPI DUP1 DUP1 PUSH1 0x20 ADD SWAP1 MLOAD DUP2 ADD SWAP1 PUSH2 0x2B0F SWAP2 SWAP1 PUSH2 0x2F8D JUMP JUMPDEST PUSH2 0x2B4E JUMPI PUSH1 0x40 MLOAD PUSH32 0x8C379A000000000000000000000000000000000000000000000000000000000 DUP2 MSTORE PUSH1 0x4 ADD PUSH2 0x2B45 SWAP1 PUSH2 0x3713 JUMP JUMPDEST PUSH1 0x40 MLOAD DUP1 SWAP2 SUB SWAP1 REVERT JUMPDEST JUMPDEST POP POP POP JUMP JUMPDEST PUSH1 0x60 PUSH2 0x2B63 DUP5 DUP5 PUSH1 0x0 DUP6 PUSH2 0x2B6C JUMP JUMPDEST SWAP1 POP SWAP4 SWAP3 POP POP POP JUMP JUMPDEST PUSH1 0x60 DUP3 SELFBALANCE LT ISZERO PUSH2 0x2BB1 JUMPI PUSH1 0x40 MLOAD PUSH32 0x8C379A000000000000000000000000000000000000000000000000000000000 DUP2 MSTORE PUSH1 0x4 ADD PUSH2 0x2BA8 SWAP1 PUSH2 0x3593 JUMP JUMPDEST PUSH1 0x40 MLOAD DUP1 SWAP2 SUB SWAP1 REVERT JUMPDEST PUSH2 0x2BBA DUP6 PUSH2 0x2C80 JUMP JUMPDEST PUSH2 0x2BF9 JUMPI PUSH1 0x40 MLOAD PUSH32 0x8C379A000000000000000000000000000000000000000000000000000000000 DUP2 MSTORE PUSH1 0x4 ADD PUSH2 0x2BF0 SWAP1 PUSH2 0x3693 JUMP JUMPDEST PUSH1 0x40 MLOAD DUP1 SWAP2 SUB SWAP1 REVERT JUMPDEST PUSH1 0x0 DUP1 DUP7 PUSH20 0xFFFFFFFFFFFFFFFFFFFFFFFFFFFFFFFFFFFFFFFF AND DUP6 DUP8 PUSH1 0x40 MLOAD PUSH2 0x2C22 SWAP2 SWAP1 PUSH2 0x33E9 JUMP JUMPDEST PUSH1 0x0 PUSH1 0x40 MLOAD DUP1 DUP4 SUB DUP2 DUP6 DUP8 GAS CALL SWAP3 POP POP POP RETURNDATASIZE DUP1 PUSH1 0x0 DUP2 EQ PUSH2 0x2C5F JUMPI PUSH1 0x40 MLOAD SWAP2 POP PUSH1 0x1F NOT PUSH1 0x3F RETURNDATASIZE ADD AND DUP3 ADD PUSH1 0x40 MSTORE RETURNDATASIZE DUP3 MSTORE RETURNDATASIZE PUSH1 0x0 PUSH1 0x20 DUP5 ADD RETURNDATACOPY PUSH2 0x2C64 JUMP JUMPDEST PUSH1 0x60 SWAP2 POP JUMPDEST POP SWAP2 POP SWAP2 POP PUSH2 0x2C74 DUP3 DUP3 DUP7 PUSH2 0x2C93 JUMP JUMPDEST SWAP3 POP POP POP SWAP5 SWAP4 POP POP POP POP JUMP JUMPDEST PUSH1 0x0 DUP1 DUP3 EXTCODESIZE SWAP1 POP PUSH1 0x0 DUP2 GT SWAP2 POP POP SWAP2 SWAP1 POP JUMP JUMPDEST PUSH1 0x60 DUP4 ISZERO PUSH2 0x2CA3 JUMPI DUP3 SWAP1 POP PUSH2 0x2CF3 JUMP JUMPDEST PUSH1 0x0 DUP4 MLOAD GT ISZERO PUSH2 0x2CB6 JUMPI DUP3 MLOAD DUP1 DUP5 PUSH1 0x20 ADD REVERT JUMPDEST DUP2 PUSH1 0x40 MLOAD PUSH32 0x8C379A000000000000000000000000000000000000000000000000000000000 DUP2 MSTORE PUSH1 0x4 ADD PUSH2 0x2CEA SWAP2 SWAP1 PUSH2 0x34B1 JUMP JUMPDEST PUSH1 0x40 MLOAD DUP1 SWAP2 SUB SWAP1 REVERT JUMPDEST SWAP4 SWAP3 POP POP POP JUMP JUMPDEST PUSH1 0x0 PUSH2 0x2D0D PUSH2 0x2D08 DUP5 PUSH2 0x37D3 JUMP JUMPDEST PUSH2 0x37AE JUMP JUMPDEST SWAP1 POP DUP1 DUP4 DUP3 MSTORE PUSH1 0x20 DUP3 ADD SWAP1 POP DUP3 DUP6 PUSH1 0x20 DUP7 MUL DUP3 ADD GT ISZERO PUSH2 0x2D30 JUMPI PUSH2 0x2D2F PUSH2 0x3B70 JUMP JUMPDEST JUMPDEST PUSH1 0x0 JUMPDEST DUP6 DUP2 LT ISZERO PUSH2 0x2D60 JUMPI DUP2 PUSH2 0x2D46 DUP9 DUP3 PUSH2 0x2DDA JUMP JUMPDEST DUP5 MSTORE PUSH1 0x20 DUP5 ADD SWAP4 POP PUSH1 0x20 DUP4 ADD SWAP3 POP POP PUSH1 0x1 DUP2 ADD SWAP1 POP PUSH2 0x2D33 JUMP JUMPDEST POP POP POP SWAP4 SWAP3 POP POP POP JUMP JUMPDEST PUSH1 0x0 PUSH2 0x2D7D PUSH2 0x2D78 DUP5 PUSH2 0x37FF JUMP JUMPDEST PUSH2 0x37AE JUMP JUMPDEST SWAP1 POP DUP1 DUP4 DUP3 MSTORE PUSH1 0x20 DUP3 ADD SWAP1 POP DUP3 DUP6 PUSH1 0x20 DUP7 MUL DUP3 ADD GT ISZERO PUSH2 0x2DA0 JUMPI PUSH2 0x2D9F PUSH2 0x3B70 JUMP JUMPDEST JUMPDEST PUSH1 0x0 JUMPDEST DUP6 DUP2 LT ISZERO PUSH2 0x2DD0 JUMPI DUP2 PUSH2 0x2DB6 DUP9 DUP3 PUSH2 0x2E75 JUMP JUMPDEST DUP5 MSTORE PUSH1 0x20 DUP5 ADD SWAP4 POP PUSH1 0x20 DUP4 ADD SWAP3 POP POP PUSH1 0x1 DUP2 ADD SWAP1 POP PUSH2 0x2DA3 JUMP JUMPDEST POP POP POP SWAP4 SWAP3 POP POP POP JUMP JUMPDEST PUSH1 0x0 DUP2 CALLDATALOAD SWAP1 POP PUSH2 0x2DE9 DUP2 PUSH2 0x42A6 JUMP JUMPDEST SWAP3 SWAP2 POP POP JUMP JUMPDEST PUSH1 0x0 DUP3 PUSH1 0x1F DUP4 ADD SLT PUSH2 0x2E04 JUMPI PUSH2 0x2E03 PUSH2 0x3B6B JUMP JUMPDEST JUMPDEST DUP2 CALLDATALOAD PUSH2 0x2E14 DUP5 DUP3 PUSH1 0x20 DUP7 ADD PUSH2 0x2CFA JUMP JUMPDEST SWAP2 POP POP SWAP3 SWAP2 POP POP JUMP JUMPDEST PUSH1 0x0 DUP3 PUSH1 0x1F DUP4 ADD SLT PUSH2 0x2E32 JUMPI PUSH2 0x2E31 PUSH2 0x3B6B JUMP JUMPDEST JUMPDEST DUP2 CALLDATALOAD PUSH2 0x2E42 DUP5 DUP3 PUSH1 0x20 DUP7 ADD PUSH2 0x2D6A JUMP JUMPDEST SWAP2 POP POP SWAP3 SWAP2 POP POP JUMP JUMPDEST PUSH1 0x0 DUP2 MLOAD SWAP1 POP PUSH2 0x2E5A DUP2 PUSH2 0x42BD JUMP JUMPDEST SWAP3 SWAP2 POP POP JUMP JUMPDEST PUSH1 0x0 DUP2 CALLDATALOAD SWAP1 POP PUSH2 0x2E6F DUP2 PUSH2 0x42D4 JUMP JUMPDEST SWAP3 SWAP2 POP POP JUMP JUMPDEST PUSH1 0x0 DUP2 CALLDATALOAD SWAP1 POP PUSH2 0x2E84 DUP2 PUSH2 0x42EB JUMP JUMPDEST SWAP3 SWAP2 POP POP JUMP JUMPDEST PUSH1 0x0 DUP2 MLOAD SWAP1 POP PUSH2 0x2E99 DUP2 PUSH2 0x42EB JUMP JUMPDEST SWAP3 SWAP2 POP POP JUMP JUMPDEST PUSH1 0x0 PUSH1 0x20 DUP3 DUP5 SUB SLT ISZERO PUSH2 0x2EB5 JUMPI PUSH2 0x2EB4 PUSH2 0x3B7A JUMP JUMPDEST JUMPDEST PUSH1 0x0 PUSH2 0x2EC3 DUP5 DUP3 DUP6 ADD PUSH2 0x2DDA JUMP JUMPDEST SWAP2 POP POP SWAP3 SWAP2 POP POP JUMP JUMPDEST PUSH1 0x0 PUSH1 0x20 DUP3 DUP5 SUB SLT ISZERO PUSH2 0x2EE2 JUMPI PUSH2 0x2EE1 PUSH2 0x3B7A JUMP JUMPDEST JUMPDEST PUSH1 0x0 DUP3 ADD CALLDATALOAD PUSH8 0xFFFFFFFFFFFFFFFF DUP2 GT ISZERO PUSH2 0x2F00 JUMPI PUSH2 0x2EFF PUSH2 0x3B75 JUMP JUMPDEST JUMPDEST PUSH2 0x2F0C DUP5 DUP3 DUP6 ADD PUSH2 0x2DEF JUMP JUMPDEST SWAP2 POP POP SWAP3 SWAP2 POP POP JUMP JUMPDEST PUSH1 0x0 DUP1 PUSH1 0x40 DUP4 DUP6 SUB SLT ISZERO PUSH2 0x2F2C JUMPI PUSH2 0x2F2B PUSH2 0x3B7A JUMP JUMPDEST JUMPDEST PUSH1 0x0 DUP4 ADD CALLDATALOAD PUSH8 0xFFFFFFFFFFFFFFFF DUP2 GT ISZERO PUSH2 0x2F4A JUMPI PUSH2 0x2F49 PUSH2 0x3B75 JUMP JUMPDEST JUMPDEST PUSH2 0x2F56 DUP6 DUP3 DUP7 ADD PUSH2 0x2DEF JUMP JUMPDEST SWAP3 POP POP PUSH1 0x20 DUP4 ADD CALLDATALOAD PUSH8 0xFFFFFFFFFFFFFFFF DUP2 GT ISZERO PUSH2 0x2F77 JUMPI PUSH2 0x2F76 PUSH2 0x3B75 JUMP JUMPDEST JUMPDEST PUSH2 0x2F83 DUP6 DUP3 DUP7 ADD PUSH2 0x2E1D JUMP JUMPDEST SWAP2 POP POP SWAP3 POP SWAP3 SWAP1 POP JUMP JUMPDEST PUSH1 0x0 PUSH1 0x20 DUP3 DUP5 SUB SLT ISZERO PUSH2 0x2FA3 JUMPI PUSH2 0x2FA2 PUSH2 0x3B7A JUMP JUMPDEST JUMPDEST PUSH1 0x0 PUSH2 0x2FB1 DUP5 DUP3 DUP6 ADD PUSH2 0x2E4B JUMP JUMPDEST SWAP2 POP POP SWAP3 SWAP2 POP POP JUMP JUMPDEST PUSH1 0x0 PUSH1 0x20 DUP3 DUP5 SUB SLT ISZERO PUSH2 0x2FD0 JUMPI PUSH2 0x2FCF PUSH2 0x3B7A JUMP JUMPDEST JUMPDEST PUSH1 0x0 PUSH2 0x2FDE DUP5 DUP3 DUP6 ADD PUSH2 0x2E60 JUMP JUMPDEST SWAP2 POP POP SWAP3 SWAP2 POP POP JUMP JUMPDEST PUSH1 0x0 PUSH1 0x20 DUP3 DUP5 SUB SLT ISZERO PUSH2 0x2FFD JUMPI PUSH2 0x2FFC PUSH2 0x3B7A JUMP JUMPDEST JUMPDEST PUSH1 0x0 PUSH2 0x300B DUP5 DUP3 DUP6 ADD PUSH2 0x2E75 JUMP JUMPDEST SWAP2 POP POP SWAP3 SWAP2 POP POP JUMP JUMPDEST PUSH1 0x0 PUSH1 0x20 DUP3 DUP5 SUB SLT ISZERO PUSH2 0x302A JUMPI PUSH2 0x3029 PUSH2 0x3B7A JUMP JUMPDEST JUMPDEST PUSH1 0x0 PUSH2 0x3038 DUP5 DUP3 DUP6 ADD PUSH2 0x2E8A JUMP JUMPDEST SWAP2 POP POP SWAP3 SWAP2 POP POP JUMP JUMPDEST PUSH2 0x304A DUP2 PUSH2 0x3972 JUMP JUMPDEST DUP3 MSTORE POP POP JUMP JUMPDEST PUSH2 0x3059 DUP2 PUSH2 0x3984 JUMP JUMPDEST DUP3 MSTORE POP POP JUMP JUMPDEST PUSH1 0x0 PUSH2 0x306A DUP3 PUSH2 0x382B JUMP JUMPDEST PUSH2 0x3074 DUP2 DUP6 PUSH2 0x3841 JUMP JUMPDEST SWAP4 POP PUSH2 0x3084 DUP2 DUP6 PUSH1 0x20 DUP7 ADD PUSH2 0x3A02 JUMP JUMPDEST DUP1 DUP5 ADD SWAP2 POP POP SWAP3 SWAP2 POP POP JUMP JUMPDEST PUSH2 0x3099 DUP2 PUSH2 0x39CC JUMP JUMPDEST DUP3 MSTORE POP POP JUMP JUMPDEST PUSH1 0x0 PUSH2 0x30AA DUP3 PUSH2 0x3836 JUMP JUMPDEST PUSH2 0x30B4 DUP2 DUP6 PUSH2 0x384C JUMP JUMPDEST SWAP4 POP PUSH2 0x30C4 DUP2 DUP6 PUSH1 0x20 DUP7 ADD PUSH2 0x3A02 JUMP JUMPDEST PUSH2 0x30CD DUP2 PUSH2 0x3B7F JUMP JUMPDEST DUP5 ADD SWAP2 POP POP SWAP3 SWAP2 POP POP JUMP JUMPDEST PUSH1 0x0 PUSH2 0x30E5 PUSH1 0x35 DUP4 PUSH2 0x384C JUMP JUMPDEST SWAP2 POP PUSH2 0x30F0 DUP3 PUSH2 0x3B90 JUMP JUMPDEST PUSH1 0x40 DUP3 ADD SWAP1 POP SWAP2 SWAP1 POP JUMP JUMPDEST PUSH1 0x0 PUSH2 0x3108 PUSH1 0x26 DUP4 PUSH2 0x384C JUMP JUMPDEST SWAP2 POP PUSH2 0x3113 DUP3 PUSH2 0x3BDF JUMP JUMPDEST PUSH1 0x40 DUP3 ADD SWAP1 POP SWAP2 SWAP1 POP JUMP JUMPDEST PUSH1 0x0 PUSH2 0x312B PUSH1 0x39 DUP4 PUSH2 0x384C JUMP JUMPDEST SWAP2 POP PUSH2 0x3136 DUP3 PUSH2 0x3C2E JUMP JUMPDEST PUSH1 0x40 DUP3 ADD SWAP1 POP SWAP2 SWAP1 POP JUMP JUMPDEST PUSH1 0x0 PUSH2 0x314E PUSH1 0x34 DUP4 PUSH2 0x384C JUMP JUMPDEST SWAP2 POP PUSH2 0x3159 DUP3 PUSH2 0x3C7D JUMP JUMPDEST PUSH1 0x40 DUP3 ADD SWAP1 POP SWAP2 SWAP1 POP JUMP JUMPDEST PUSH1 0x0 PUSH2 0x3171 PUSH1 0x29 DUP4 PUSH2 0x384C JUMP JUMPDEST SWAP2 POP PUSH2 0x317C DUP3 PUSH2 0x3CCC JUMP JUMPDEST PUSH1 0x40 DUP3 ADD SWAP1 POP SWAP2 SWAP1 POP JUMP JUMPDEST PUSH1 0x0 PUSH2 0x3194 PUSH1 0x3C DUP4 PUSH2 0x384C JUMP JUMPDEST SWAP2 POP PUSH2 0x319F DUP3 PUSH2 0x3D1B JUMP JUMPDEST PUSH1 0x40 DUP3 ADD SWAP1 POP SWAP2 SWAP1 POP JUMP JUMPDEST PUSH1 0x0 PUSH2 0x31B7 PUSH1 0x26 DUP4 PUSH2 0x384C JUMP JUMPDEST SWAP2 POP PUSH2 0x31C2 DUP3 PUSH2 0x3D6A JUMP JUMPDEST PUSH1 0x40 DUP3 ADD SWAP1 POP SWAP2 SWAP1 POP JUMP JUMPDEST PUSH1 0x0 PUSH2 0x31DA PUSH1 0x31 DUP4 PUSH2 0x384C JUMP JUMPDEST SWAP2 POP PUSH2 0x31E5 DUP3 PUSH2 0x3DB9 JUMP JUMPDEST PUSH1 0x40 DUP3 ADD SWAP1 POP SWAP2 SWAP1 POP JUMP JUMPDEST PUSH1 0x0 PUSH2 0x31FD PUSH1 0x48 DUP4 PUSH2 0x384C JUMP JUMPDEST SWAP2 POP PUSH2 0x3208 DUP3 PUSH2 0x3E08 JUMP JUMPDEST PUSH1 0x60 DUP3 ADD SWAP1 POP SWAP2 SWAP1 POP JUMP JUMPDEST PUSH1 0x0 PUSH2 0x3220 PUSH1 0x46 DUP4 PUSH2 0x384C JUMP JUMPDEST SWAP2 POP PUSH2 0x322B DUP3 PUSH2 0x3E7D JUMP JUMPDEST PUSH1 0x60 DUP3 ADD SWAP1 POP SWAP2 SWAP1 POP JUMP JUMPDEST PUSH1 0x0 PUSH2 0x3243 PUSH1 0x5D DUP4 PUSH2 0x384C JUMP JUMPDEST SWAP2 POP PUSH2 0x324E DUP3 PUSH2 0x3EF2 JUMP JUMPDEST PUSH1 0x60 DUP3 ADD SWAP1 POP SWAP2 SWAP1 POP JUMP JUMPDEST PUSH1 0x0 PUSH2 0x3266 PUSH1 0x77 DUP4 PUSH2 0x384C JUMP JUMPDEST SWAP2 POP PUSH2 0x3271 DUP3 PUSH2 0x3F67 JUMP JUMPDEST PUSH1 0x80 DUP3 ADD SWAP1 POP SWAP2 SWAP1 POP JUMP JUMPDEST PUSH1 0x0 PUSH2 0x3289 PUSH1 0x20 DUP4 PUSH2 0x384C JUMP JUMPDEST SWAP2 POP PUSH2 0x3294 DUP3 PUSH2 0x4002 JUMP JUMPDEST PUSH1 0x20 DUP3 ADD SWAP1 POP SWAP2 SWAP1 POP JUMP JUMPDEST PUSH1 0x0 PUSH2 0x32AC PUSH1 0x35 DUP4 PUSH2 0x384C JUMP JUMPDEST SWAP2 POP PUSH2 0x32B7 DUP3 PUSH2 0x402B JUMP JUMPDEST PUSH1 0x40 DUP3 ADD SWAP1 POP SWAP2 SWAP1 POP JUMP JUMPDEST PUSH1 0x0 PUSH2 0x32CF PUSH1 0x1D DUP4 PUSH2 0x384C JUMP JUMPDEST SWAP2 POP PUSH2 0x32DA DUP3 PUSH2 0x407A JUMP JUMPDEST PUSH1 0x20 DUP3 ADD SWAP1 POP SWAP2 SWAP1 POP JUMP JUMPDEST PUSH1 0x0 PUSH2 0x32F2 PUSH1 0x23 DUP4 PUSH2 0x384C JUMP JUMPDEST SWAP2 POP PUSH2 0x32FD DUP3 PUSH2 0x40A3 JUMP JUMPDEST PUSH1 0x40 DUP3 ADD SWAP1 POP SWAP2 SWAP1 POP JUMP JUMPDEST PUSH1 0x0 PUSH2 0x3315 PUSH1 0x2D DUP4 PUSH2 0x384C JUMP JUMPDEST SWAP2 POP PUSH2 0x3320 DUP3 PUSH2 0x40F2 JUMP JUMPDEST PUSH1 0x40 DUP3 ADD SWAP1 POP SWAP2 SWAP1 POP JUMP JUMPDEST PUSH1 0x0 PUSH2 0x3338 PUSH1 0x2A DUP4 PUSH2 0x384C JUMP JUMPDEST SWAP2 POP PUSH2 0x3343 DUP3 PUSH2 0x4141 JUMP JUMPDEST PUSH1 0x40 DUP3 ADD SWAP1 POP SWAP2 SWAP1 POP JUMP JUMPDEST PUSH1 0x0 PUSH2 0x335B PUSH1 0x2A DUP4 PUSH2 0x384C JUMP JUMPDEST SWAP2 POP PUSH2 0x3366 DUP3 PUSH2 0x4190 JUMP JUMPDEST PUSH1 0x40 DUP3 ADD SWAP1 POP SWAP2 SWAP1 POP JUMP JUMPDEST PUSH1 0x0 PUSH2 0x337E PUSH1 0x26 DUP4 PUSH2 0x384C JUMP JUMPDEST SWAP2 POP PUSH2 0x3389 DUP3 PUSH2 0x41DF JUMP JUMPDEST PUSH1 0x40 DUP3 ADD SWAP1 POP SWAP2 SWAP1 POP JUMP JUMPDEST PUSH1 0x0 PUSH2 0x33A1 PUSH1 0x1F DUP4 PUSH2 0x384C JUMP JUMPDEST SWAP2 POP PUSH2 0x33AC DUP3 PUSH2 0x422E JUMP JUMPDEST PUSH1 0x20 DUP3 ADD SWAP1 POP SWAP2 SWAP1 POP JUMP JUMPDEST PUSH1 0x0 PUSH2 0x33C4 PUSH1 0x34 DUP4 PUSH2 0x384C JUMP JUMPDEST SWAP2 POP PUSH2 0x33CF DUP3 PUSH2 0x4257 JUMP JUMPDEST PUSH1 0x40 DUP3 ADD SWAP1 POP SWAP2 SWAP1 POP JUMP JUMPDEST PUSH2 0x33E3 DUP2 PUSH2 0x39C2 JUMP JUMPDEST DUP3 MSTORE POP POP JUMP JUMPDEST PUSH1 0x0 PUSH2 0x33F5 DUP3 DUP5 PUSH2 0x305F JUMP JUMPDEST SWAP2 POP DUP2 SWAP1 POP SWAP3 SWAP2 POP POP JUMP JUMPDEST PUSH1 0x0 PUSH1 0x20 DUP3 ADD SWAP1 POP PUSH2 0x3415 PUSH1 0x0 DUP4 ADD DUP5 PUSH2 0x3041 JUMP JUMPDEST SWAP3 SWAP2 POP POP JUMP JUMPDEST PUSH1 0x0 PUSH1 0x60 DUP3 ADD SWAP1 POP PUSH2 0x3430 PUSH1 0x0 DUP4 ADD DUP7 PUSH2 0x3041 JUMP JUMPDEST PUSH2 0x343D PUSH1 0x20 DUP4 ADD DUP6 PUSH2 0x3041 JUMP JUMPDEST PUSH2 0x344A PUSH1 0x40 DUP4 ADD DUP5 PUSH2 0x33DA JUMP JUMPDEST SWAP5 SWAP4 POP POP POP POP JUMP JUMPDEST PUSH1 0x0 PUSH1 0x40 DUP3 ADD SWAP1 POP PUSH2 0x3467 PUSH1 0x0 DUP4 ADD DUP6 PUSH2 0x3041 JUMP JUMPDEST PUSH2 0x3474 PUSH1 0x20 DUP4 ADD DUP5 PUSH2 0x33DA JUMP JUMPDEST SWAP4 SWAP3 POP POP POP JUMP JUMPDEST PUSH1 0x0 PUSH1 0x20 DUP3 ADD SWAP1 POP PUSH2 0x3490 PUSH1 0x0 DUP4 ADD DUP5 PUSH2 0x3050 JUMP JUMPDEST SWAP3 SWAP2 POP POP JUMP JUMPDEST PUSH1 0x0 PUSH1 0x20 DUP3 ADD SWAP1 POP PUSH2 0x34AB PUSH1 0x0 DUP4 ADD DUP5 PUSH2 0x3090 JUMP JUMPDEST SWAP3 SWAP2 POP POP JUMP JUMPDEST PUSH1 0x0 PUSH1 0x20 DUP3 ADD SWAP1 POP DUP2 DUP2 SUB PUSH1 0x0 DUP4 ADD MSTORE PUSH2 0x34CB DUP2 DUP5 PUSH2 0x309F JUMP JUMPDEST SWAP1 POP SWAP3 SWAP2 POP POP JUMP JUMPDEST PUSH1 0x0 PUSH1 0x20 DUP3 ADD SWAP1 POP DUP2 DUP2 SUB PUSH1 0x0 DUP4 ADD MSTORE PUSH2 0x34EC DUP2 PUSH2 0x30D8 JUMP JUMPDEST SWAP1 POP SWAP2 SWAP1 POP JUMP JUMPDEST PUSH1 0x0 PUSH1 0x20 DUP3 ADD SWAP1 POP DUP2 DUP2 SUB PUSH1 0x0 DUP4 ADD MSTORE PUSH2 0x350C DUP2 PUSH2 0x30FB JUMP JUMPDEST SWAP1 POP SWAP2 SWAP1 POP JUMP JUMPDEST PUSH1 0x0 PUSH1 0x20 DUP3 ADD SWAP1 POP DUP2 DUP2 SUB PUSH1 0x0 DUP4 ADD MSTORE PUSH2 0x352C DUP2 PUSH2 0x311E JUMP JUMPDEST SWAP1 POP SWAP2 SWAP1 POP JUMP JUMPDEST PUSH1 0x0 PUSH1 0x20 DUP3 ADD SWAP1 POP DUP2 DUP2 SUB PUSH1 0x0 DUP4 ADD MSTORE PUSH2 0x354C DUP2 PUSH2 0x3141 JUMP JUMPDEST SWAP1 POP SWAP2 SWAP1 POP JUMP JUMPDEST PUSH1 0x0 PUSH1 0x20 DUP3 ADD SWAP1 POP DUP2 DUP2 SUB PUSH1 0x0 DUP4 ADD MSTORE PUSH2 0x356C DUP2 PUSH2 0x3164 JUMP JUMPDEST SWAP1 POP SWAP2 SWAP1 POP JUMP JUMPDEST PUSH1 0x0 PUSH1 0x20 DUP3 ADD SWAP1 POP DUP2 DUP2 SUB PUSH1 0x0 DUP4 ADD MSTORE PUSH2 0x358C DUP2 PUSH2 0x3187 JUMP JUMPDEST SWAP1 POP SWAP2 SWAP1 POP JUMP JUMPDEST PUSH1 0x0 PUSH1 0x20 DUP3 ADD SWAP1 POP DUP2 DUP2 SUB PUSH1 0x0 DUP4 ADD MSTORE PUSH2 0x35AC DUP2 PUSH2 0x31AA JUMP JUMPDEST SWAP1 POP SWAP2 SWAP1 POP JUMP JUMPDEST PUSH1 0x0 PUSH1 0x20 DUP3 ADD SWAP1 POP DUP2 DUP2 SUB PUSH1 0x0 DUP4 ADD MSTORE PUSH2 0x35CC DUP2 PUSH2 0x31CD JUMP JUMPDEST SWAP1 POP SWAP2 SWAP1 POP JUMP JUMPDEST PUSH1 0x0 PUSH1 0x20 DUP3 ADD SWAP1 POP DUP2 DUP2 SUB PUSH1 0x0 DUP4 ADD MSTORE PUSH2 0x35EC DUP2 PUSH2 0x31F0 JUMP JUMPDEST SWAP1 POP SWAP2 SWAP1 POP JUMP JUMPDEST PUSH1 0x0 PUSH1 0x20 DUP3 ADD SWAP1 POP DUP2 DUP2 SUB PUSH1 0x0 DUP4 ADD MSTORE PUSH2 0x360C DUP2 PUSH2 0x3213 JUMP JUMPDEST SWAP1 POP SWAP2 SWAP1 POP JUMP JUMPDEST PUSH1 0x0 PUSH1 0x20 DUP3 ADD SWAP1 POP DUP2 DUP2 SUB PUSH1 0x0 DUP4 ADD MSTORE PUSH2 0x362C DUP2 PUSH2 0x3236 JUMP JUMPDEST SWAP1 POP SWAP2 SWAP1 POP JUMP JUMPDEST PUSH1 0x0 PUSH1 0x20 DUP3 ADD SWAP1 POP DUP2 DUP2 SUB PUSH1 0x0 DUP4 ADD MSTORE PUSH2 0x364C DUP2 PUSH2 0x3259 JUMP JUMPDEST SWAP1 POP SWAP2 SWAP1 POP JUMP JUMPDEST PUSH1 0x0 PUSH1 0x20 DUP3 ADD SWAP1 POP DUP2 DUP2 SUB PUSH1 0x0 DUP4 ADD MSTORE PUSH2 0x366C DUP2 PUSH2 0x327C JUMP JUMPDEST SWAP1 POP SWAP2 SWAP1 POP JUMP JUMPDEST PUSH1 0x0 PUSH1 0x20 DUP3 ADD SWAP1 POP DUP2 DUP2 SUB PUSH1 0x0 DUP4 ADD MSTORE PUSH2 0x368C DUP2 PUSH2 0x329F JUMP JUMPDEST SWAP1 POP SWAP2 SWAP1 POP JUMP JUMPDEST PUSH1 0x0 PUSH1 0x20 DUP3 ADD SWAP1 POP DUP2 DUP2 SUB PUSH1 0x0 DUP4 ADD MSTORE PUSH2 0x36AC DUP2 PUSH2 0x32C2 JUMP JUMPDEST SWAP1 POP SWAP2 SWAP1 POP JUMP JUMPDEST PUSH1 0x0 PUSH1 0x20 DUP3 ADD SWAP1 POP DUP2 DUP2 SUB PUSH1 0x0 DUP4 ADD MSTORE PUSH2 0x36CC DUP2 PUSH2 0x32E5 JUMP JUMPDEST SWAP1 POP SWAP2 SWAP1 POP JUMP JUMPDEST PUSH1 0x0 PUSH1 0x20 DUP3 ADD SWAP1 POP DUP2 DUP2 SUB PUSH1 0x0 DUP4 ADD MSTORE PUSH2 0x36EC DUP2 PUSH2 0x3308 JUMP JUMPDEST SWAP1 POP SWAP2 SWAP1 POP JUMP JUMPDEST PUSH1 0x0 PUSH1 0x20 DUP3 ADD SWAP1 POP DUP2 DUP2 SUB PUSH1 0x0 DUP4 ADD MSTORE PUSH2 0x370C DUP2 PUSH2 0x332B JUMP JUMPDEST SWAP1 POP SWAP2 SWAP1 POP JUMP JUMPDEST PUSH1 0x0 PUSH1 0x20 DUP3 ADD SWAP1 POP DUP2 DUP2 SUB PUSH1 0x0 DUP4 ADD MSTORE PUSH2 0x372C DUP2 PUSH2 0x334E JUMP JUMPDEST SWAP1 POP SWAP2 SWAP1 POP JUMP JUMPDEST PUSH1 0x0 PUSH1 0x20 DUP3 ADD SWAP1 POP DUP2 DUP2 SUB PUSH1 0x0 DUP4 ADD MSTORE PUSH2 0x374C DUP2 PUSH2 0x3371 JUMP JUMPDEST SWAP1 POP SWAP2 SWAP1 POP JUMP JUMPDEST PUSH1 0x0 PUSH1 0x20 DUP3 ADD SWAP1 POP DUP2 DUP2 SUB PUSH1 0x0 DUP4 ADD MSTORE PUSH2 0x376C DUP2 PUSH2 0x3394 JUMP JUMPDEST SWAP1 POP SWAP2 SWAP1 POP JUMP JUMPDEST PUSH1 0x0 PUSH1 0x20 DUP3 ADD SWAP1 POP DUP2 DUP2 SUB PUSH1 0x0 DUP4 ADD MSTORE PUSH2 0x378C DUP2 PUSH2 0x33B7 JUMP JUMPDEST SWAP1 POP SWAP2 SWAP1 POP JUMP JUMPDEST PUSH1 0x0 PUSH1 0x20 DUP3 ADD SWAP1 POP PUSH2 0x37A8 PUSH1 0x0 DUP4 ADD DUP5 PUSH2 0x33DA JUMP JUMPDEST SWAP3 SWAP2 POP POP JUMP JUMPDEST PUSH1 0x0 PUSH2 0x37B8 PUSH2 0x37C9 JUMP JUMPDEST SWAP1 POP PUSH2 0x37C4 DUP3 DUP3 PUSH2 0x3A35 JUMP JUMPDEST SWAP2 SWAP1 POP JUMP JUMPDEST PUSH1 0x0 PUSH1 0x40 MLOAD SWAP1 POP SWAP1 JUMP JUMPDEST PUSH1 0x0 PUSH8 0xFFFFFFFFFFFFFFFF DUP3 GT ISZERO PUSH2 0x37EE JUMPI PUSH2 0x37ED PUSH2 0x3B3C JUMP JUMPDEST JUMPDEST PUSH1 0x20 DUP3 MUL SWAP1 POP PUSH1 0x20 DUP2 ADD SWAP1 POP SWAP2 SWAP1 POP JUMP JUMPDEST PUSH1 0x0 PUSH8 0xFFFFFFFFFFFFFFFF DUP3 GT ISZERO PUSH2 0x381A JUMPI PUSH2 0x3819 PUSH2 0x3B3C JUMP JUMPDEST JUMPDEST PUSH1 0x20 DUP3 MUL SWAP1 POP PUSH1 0x20 DUP2 ADD SWAP1 POP SWAP2 SWAP1 POP JUMP JUMPDEST PUSH1 0x0 DUP2 MLOAD SWAP1 POP SWAP2 SWAP1 POP JUMP JUMPDEST PUSH1 0x0 DUP2 MLOAD SWAP1 POP SWAP2 SWAP1 POP JUMP JUMPDEST PUSH1 0x0 DUP2 SWAP1 POP SWAP3 SWAP2 POP POP JUMP JUMPDEST PUSH1 0x0 DUP3 DUP3 MSTORE PUSH1 0x20 DUP3 ADD SWAP1 POP SWAP3 SWAP2 POP POP JUMP JUMPDEST PUSH1 0x0 PUSH2 0x3868 DUP3 PUSH2 0x39C2 JUMP JUMPDEST SWAP2 POP PUSH2 0x3873 DUP4 PUSH2 0x39C2 JUMP JUMPDEST SWAP3 POP DUP3 PUSH32 0xFFFFFFFFFFFFFFFFFFFFFFFFFFFFFFFFFFFFFFFFFFFFFFFFFFFFFFFFFFFFFFFF SUB DUP3 GT ISZERO PUSH2 0x38A8 JUMPI PUSH2 0x38A7 PUSH2 0x3AAF JUMP JUMPDEST JUMPDEST DUP3 DUP3 ADD SWAP1 POP SWAP3 SWAP2 POP POP JUMP JUMPDEST PUSH1 0x0 PUSH2 0x38BE DUP3 PUSH2 0x39C2 JUMP JUMPDEST SWAP2 POP PUSH2 0x38C9 DUP4 PUSH2 0x39C2 JUMP JUMPDEST SWAP3 POP DUP3 PUSH2 0x38D9 JUMPI PUSH2 0x38D8 PUSH2 0x3ADE JUMP JUMPDEST JUMPDEST DUP3 DUP3 DIV SWAP1 POP SWAP3 SWAP2 POP POP JUMP JUMPDEST PUSH1 0x0 PUSH2 0x38EF DUP3 PUSH2 0x39C2 JUMP JUMPDEST SWAP2 POP PUSH2 0x38FA DUP4 PUSH2 0x39C2 JUMP JUMPDEST SWAP3 POP DUP2 PUSH32 0xFFFFFFFFFFFFFFFFFFFFFFFFFFFFFFFFFFFFFFFFFFFFFFFFFFFFFFFFFFFFFFFF DIV DUP4 GT DUP3 ISZERO ISZERO AND ISZERO PUSH2 0x3933 JUMPI PUSH2 0x3932 PUSH2 0x3AAF JUMP JUMPDEST JUMPDEST DUP3 DUP3 MUL SWAP1 POP SWAP3 SWAP2 POP POP JUMP JUMPDEST PUSH1 0x0 PUSH2 0x3949 DUP3 PUSH2 0x39C2 JUMP JUMPDEST SWAP2 POP PUSH2 0x3954 DUP4 PUSH2 0x39C2 JUMP JUMPDEST SWAP3 POP DUP3 DUP3 LT ISZERO PUSH2 0x3967 JUMPI PUSH2 0x3966 PUSH2 0x3AAF JUMP JUMPDEST JUMPDEST DUP3 DUP3 SUB SWAP1 POP SWAP3 SWAP2 POP POP JUMP JUMPDEST PUSH1 0x0 PUSH2 0x397D DUP3 PUSH2 0x39A2 JUMP JUMPDEST SWAP1 POP SWAP2 SWAP1 POP JUMP JUMPDEST PUSH1 0x0 DUP2 ISZERO ISZERO SWAP1 POP SWAP2 SWAP1 POP JUMP JUMPDEST PUSH1 0x0 PUSH2 0x399B DUP3 PUSH2 0x3972 JUMP JUMPDEST SWAP1 POP SWAP2 SWAP1 POP JUMP JUMPDEST PUSH1 0x0 PUSH20 0xFFFFFFFFFFFFFFFFFFFFFFFFFFFFFFFFFFFFFFFF DUP3 AND SWAP1 POP SWAP2 SWAP1 POP JUMP JUMPDEST PUSH1 0x0 DUP2 SWAP1 POP SWAP2 SWAP1 POP JUMP JUMPDEST PUSH1 0x0 PUSH2 0x39D7 DUP3 PUSH2 0x39DE JUMP JUMPDEST SWAP1 POP SWAP2 SWAP1 POP JUMP JUMPDEST PUSH1 0x0 PUSH2 0x39E9 DUP3 PUSH2 0x39F0 JUMP JUMPDEST SWAP1 POP SWAP2 SWAP1 POP JUMP JUMPDEST PUSH1 0x0 PUSH2 0x39FB DUP3 PUSH2 0x39A2 JUMP JUMPDEST SWAP1 POP SWAP2 SWAP1 POP JUMP JUMPDEST PUSH1 0x0 JUMPDEST DUP4 DUP2 LT ISZERO PUSH2 0x3A20 JUMPI DUP1 DUP3 ADD MLOAD DUP2 DUP5 ADD MSTORE PUSH1 0x20 DUP2 ADD SWAP1 POP PUSH2 0x3A05 JUMP JUMPDEST DUP4 DUP2 GT ISZERO PUSH2 0x3A2F JUMPI PUSH1 0x0 DUP5 DUP5 ADD MSTORE JUMPDEST POP POP POP POP JUMP JUMPDEST PUSH2 0x3A3E DUP3 PUSH2 0x3B7F JUMP JUMPDEST DUP2 ADD DUP2 DUP2 LT PUSH8 0xFFFFFFFFFFFFFFFF DUP3 GT OR ISZERO PUSH2 0x3A5D JUMPI PUSH2 0x3A5C PUSH2 0x3B3C JUMP JUMPDEST JUMPDEST DUP1 PUSH1 0x40 MSTORE POP POP POP JUMP JUMPDEST PUSH1 0x0 PUSH2 0x3A71 DUP3 PUSH2 0x39C2 JUMP JUMPDEST SWAP2 POP PUSH32 0xFFFFFFFFFFFFFFFFFFFFFFFFFFFFFFFFFFFFFFFFFFFFFFFFFFFFFFFFFFFFFFFF DUP3 EQ ISZERO PUSH2 0x3AA4 JUMPI PUSH2 0x3AA3 PUSH2 0x3AAF JUMP JUMPDEST JUMPDEST PUSH1 0x1 DUP3 ADD SWAP1 POP SWAP2 SWAP1 POP JUMP JUMPDEST PUSH32 0x4E487B7100000000000000000000000000000000000000000000000000000000 PUSH1 0x0 MSTORE PUSH1 0x11 PUSH1 0x4 MSTORE PUSH1 0x24 PUSH1 0x0 REVERT JUMPDEST PUSH32 0x4E487B7100000000000000000000000000000000000000000000000000000000 PUSH1 0x0 MSTORE PUSH1 0x12 PUSH1 0x4 MSTORE PUSH1 0x24 PUSH1 0x0 REVERT JUMPDEST PUSH32 0x4E487B7100000000000000000000000000000000000000000000000000000000 PUSH1 0x0 MSTORE PUSH1 0x32 PUSH1 0x4 MSTORE PUSH1 0x24 PUSH1 0x0 REVERT JUMPDEST PUSH32 0x4E487B7100000000000000000000000000000000000000000000000000000000 PUSH1 0x0 MSTORE PUSH1 0x41 PUSH1 0x4 MSTORE PUSH1 0x24 PUSH1 0x0 REVERT JUMPDEST PUSH1 0x0 DUP1 REVERT JUMPDEST PUSH1 0x0 DUP1 REVERT JUMPDEST PUSH1 0x0 DUP1 REVERT JUMPDEST PUSH1 0x0 DUP1 REVERT JUMPDEST PUSH1 0x0 PUSH1 0x1F NOT PUSH1 0x1F DUP4 ADD AND SWAP1 POP SWAP2 SWAP1 POP JUMP JUMPDEST PUSH32 0x41424F41543A64697361626C6557686974656C6973743A2057686974656C6973 PUSH1 0x0 DUP3 ADD MSTORE PUSH32 0x7420697320616C72656164792064697361626C65640000000000000000000000 PUSH1 0x20 DUP3 ADD MSTORE POP JUMP JUMPDEST PUSH32 0x4F776E61626C653A206E6577206F776E657220697320746865207A65726F2061 PUSH1 0x0 DUP3 ADD MSTORE PUSH32 0x6464726573730000000000000000000000000000000000000000000000000000 PUSH1 0x20 DUP3 ADD MSTORE POP JUMP JUMPDEST PUSH32 0x41424F41543A3A6275793A20416D6F756E7420776F756C642065786365656420 PUSH1 0x0 DUP3 ADD MSTORE PUSH32 0x746865206D6178696D756D20616C6C6F776564206C696D697400000000000000 PUSH1 0x20 DUP3 ADD MSTORE POP JUMP JUMPDEST PUSH32 0x5472616E7366657248656C7065723A3A736166655472616E736665724554483A PUSH1 0x0 DUP3 ADD MSTORE PUSH32 0x20455448207472616E73666572206661696C6564000000000000000000000000 PUSH1 0x20 DUP3 ADD MSTORE POP JUMP JUMPDEST PUSH32 0x41424F41543A3A636C61696D3A20436C61696D206973206E6F7420617661696C PUSH1 0x0 DUP3 ADD MSTORE PUSH32 0x61626C65207965742E0000000000000000000000000000000000000000000000 PUSH1 0x20 DUP3 ADD MSTORE POP JUMP JUMPDEST PUSH32 0x41424F41543A3A636C61696D3A20416C726561647920636C61696D656420796F PUSH1 0x0 DUP3 ADD MSTORE PUSH32 0x75722063757272656E746C7920656C696769626C6520746F6B656E7300000000 PUSH1 0x20 DUP3 ADD MSTORE POP JUMP JUMPDEST PUSH32 0x416464726573733A20696E73756666696369656E742062616C616E636520666F PUSH1 0x0 DUP3 ADD MSTORE PUSH32 0x722063616C6C0000000000000000000000000000000000000000000000000000 PUSH1 0x20 DUP3 ADD MSTORE POP JUMP JUMPDEST PUSH32 0x41424F41543A3A6275793A20596F75277265206E6F742077686974656C697374 PUSH1 0x0 DUP3 ADD MSTORE PUSH32 0x656420666F7220746869732073616C6521000000000000000000000000000000 PUSH1 0x20 DUP3 ADD MSTORE POP JUMP JUMPDEST PUSH32 0x41424F41543A3A77686974656C6973743A20596F752063616E27742061646420 PUSH1 0x0 DUP3 ADD MSTORE PUSH32 0x6D6F7265207468616E2031303020616464726573736573206174207468652073 PUSH1 0x20 DUP3 ADD MSTORE PUSH32 0x616D652074696D65000000000000000000000000000000000000000000000000 PUSH1 0x40 DUP3 ADD MSTORE POP JUMP JUMPDEST PUSH32 0x41424F41543A3A757064617465526577617264546F6B656E3A204E6577207265 PUSH1 0x0 DUP3 ADD MSTORE PUSH32 0x776172642073686F756C6420626520646966666572656E742066726F6D206375 PUSH1 0x20 DUP3 ADD MSTORE PUSH32 0x7272656E742E0000000000000000000000000000000000000000000000000000 PUSH1 0x40 DUP3 ADD MSTORE POP JUMP JUMPDEST PUSH32 0x41424F41543A3A636C61696D3A205468652070657263656E74616765206F6620 PUSH1 0x0 DUP3 ADD MSTORE PUSH32 0x746F6B656E20796F752063616E20636C61696D2069732063757272656E746C79 PUSH1 0x20 DUP3 ADD MSTORE PUSH32 0x207A65726F2E20506C656173652074727920616761696E206C61746572000000 PUSH1 0x40 DUP3 ADD MSTORE POP JUMP JUMPDEST PUSH32 0x41424F41543A3A757064617465526577617264546F6B656E3A2054686520636F PUSH1 0x0 DUP3 ADD MSTORE PUSH32 0x6E74726163742073686F756C6420636F6E7461696E2061746C65617374207468 PUSH1 0x20 DUP3 ADD MSTORE PUSH32 0x652073616D6520616D6F756E74206F6620746F6B656E732061732066726F6D20 PUSH1 0x40 DUP3 ADD MSTORE PUSH32 0x7468652063757272656E7420726577617264546F6B656E000000000000000000 PUSH1 0x60 DUP3 ADD MSTORE POP JUMP JUMPDEST PUSH32 0x4F776E61626C653A2063616C6C6572206973206E6F7420746865206F776E6572 PUSH1 0x0 DUP3 ADD MSTORE POP JUMP JUMPDEST PUSH32 0x41424F41543A3A6275793A20416D6F756E7420776F756C642065786365656420 PUSH1 0x0 DUP3 ADD MSTORE PUSH32 0x7468652072656D61696E696E672062616C616E63650000000000000000000000 PUSH1 0x20 DUP3 ADD MSTORE POP JUMP JUMPDEST PUSH32 0x416464726573733A2063616C6C20746F206E6F6E2D636F6E7472616374000000 PUSH1 0x0 DUP3 ADD MSTORE POP JUMP JUMPDEST PUSH32 0x41424F41543A3A636C61696D3A2053616C65206973206E6F74206F7665722079 PUSH1 0x0 DUP3 ADD MSTORE PUSH32 0x6574210000000000000000000000000000000000000000000000000000000000 PUSH1 0x20 DUP3 ADD MSTORE POP JUMP JUMPDEST PUSH32 0x5472616E7366657248656C7065723A3A736166655472616E736665723A207472 PUSH1 0x0 DUP3 ADD MSTORE PUSH32 0x616E73666572206661696C656400000000000000000000000000000000000000 PUSH1 0x20 DUP3 ADD MSTORE POP JUMP JUMPDEST PUSH32 0x41424F41543A3A636C61696D416E64456E6453616C653A2053616C6520616C72 PUSH1 0x0 DUP3 ADD MSTORE PUSH32 0x6561647920656E64656400000000000000000000000000000000000000000000 PUSH1 0x20 DUP3 ADD MSTORE POP JUMP JUMPDEST PUSH32 0x5361666545524332303A204552433230206F7065726174696F6E20646964206E PUSH1 0x0 DUP3 ADD MSTORE PUSH32 0x6F74207375636365656400000000000000000000000000000000000000000000 PUSH1 0x20 DUP3 ADD MSTORE POP JUMP JUMPDEST PUSH32 0x41424F41543A3A7570646174654166746572446179733A2053616C65206E6F74 PUSH1 0x0 DUP3 ADD MSTORE PUSH32 0x20656E6465640000000000000000000000000000000000000000000000000000 PUSH1 0x20 DUP3 ADD MSTORE POP JUMP JUMPDEST PUSH32 0x41424F41543A3A6275793A2053616C6520616C726561647920656E6465642100 PUSH1 0x0 DUP3 ADD MSTORE POP JUMP JUMPDEST PUSH32 0x41424F41543A3A6275793A2053656E742076616C756520646F65736E2774206D PUSH1 0x0 DUP3 ADD MSTORE PUSH32 0x6565742074686520676976656E20616D6F756E74000000000000000000000000 PUSH1 0x20 DUP3 ADD MSTORE POP JUMP JUMPDEST PUSH2 0x42AF DUP2 PUSH2 0x3972 JUMP JUMPDEST DUP2 EQ PUSH2 0x42BA JUMPI PUSH1 0x0 DUP1 REVERT JUMPDEST POP JUMP JUMPDEST PUSH2 0x42C6 DUP2 PUSH2 0x3984 JUMP JUMPDEST DUP2 EQ PUSH2 0x42D1 JUMPI PUSH1 0x0 DUP1 REVERT JUMPDEST POP JUMP JUMPDEST PUSH2 0x42DD DUP2 PUSH2 0x3990 JUMP JUMPDEST DUP2 EQ PUSH2 0x42E8 JUMPI PUSH1 0x0 DUP1 REVERT JUMPDEST POP JUMP JUMPDEST PUSH2 0x42F4 DUP2 PUSH2 0x39C2 JUMP JUMPDEST DUP2 EQ PUSH2 0x42FF JUMPI PUSH1 0x0 DUP1 REVERT JUMPDEST POP JUMP INVALID LOG2 PUSH5 0x6970667358 0x22 SLT KECCAK256 0x2B CREATE2 CALLER PUSH32 0x210DD1227C45804B7F519BF758AD108EE70B65C8467E912BA7E5F10964736F6C PUSH4 0x43000807 STOP CALLER "
				},
				"gasEstimates": {
					"creation": {
						"codeDepositCost": "3441600",
						"executionCost": "infinite",
						"totalCost": "infinite"
					},
					"external": {
						"afterDays()": "2474",
						"bought(address)": "2882",
						"buy(uint256)": "infinite",
						"claim()": "infinite",
						"claimAndEndSale(uint256)": "infinite",
						"claimed(address)": "2859",
						"claimedTokens(address)": "2904",
						"cliffPeriod()": "420",
						"disableWhitelist()": "28871",
						"getCurrentPercentage()": "infinite",
						"getRemainingBalance()": "infinite",
						"initialClaimPercentage()": "397",
						"lastClaimAddress(address)": "infinite",
						"limit()": "2475",
						"owner()": "2589",
						"paymentToken()": "2668",
						"percentagePerPeriod()": "398",
						"period()": "396",
						"pricePerToken()": "2541",
						"renounceOwnership()": "30464",
						"requireWhitelist()": "2516",
						"rewardToken()": "2666",
						"saleEnded()": "2518",
						"softcap()": "2517",
						"soldTokens()": "2475",
						"transferOwnership(address)": "30834",
						"updateAfterDays(uint256)": "26933",
						"updateRewardToken(address)": "infinite",
						"whitelist(address[])": "infinite",
						"whitelistFromSAFT(address[],uint256[])": "infinite",
						"whitelisted(address)": "2934"
					}
				},
				"methodIdentifiers": {
					"afterDays()": "e754e7c4",
					"bought(address)": "667022fd",
					"buy(uint256)": "d96a094a",
					"claim()": "4e71d92d",
					"claimAndEndSale(uint256)": "efe95f51",
					"claimed(address)": "c884ef83",
					"claimedTokens(address)": "a960c65f",
					"cliffPeriod()": "2f661946",
					"disableWhitelist()": "d6b0f484",
					"getCurrentPercentage()": "9c92431b",
					"getRemainingBalance()": "2fba2c85",
					"initialClaimPercentage()": "a5ebf835",
					"lastClaimAddress(address)": "f3739e05",
					"limit()": "a4d66daf",
					"owner()": "8da5cb5b",
					"paymentToken()": "3013ce29",
					"percentagePerPeriod()": "151bad0a",
					"period()": "ef78d4fd",
					"pricePerToken()": "7b1b1de6",
					"renounceOwnership()": "715018a6",
					"requireWhitelist()": "856734c4",
					"rewardToken()": "f7c618c1",
					"saleEnded()": "9b8906ae",
					"softcap()": "f89be593",
					"soldTokens()": "5ed9ebfc",
					"transferOwnership(address)": "f2fde38b",
					"updateAfterDays(uint256)": "0c0e0862",
					"updateRewardToken(address)": "f8cf31cb",
					"whitelist(address[])": "bd8aa780",
					"whitelistFromSAFT(address[],uint256[])": "5372a58e",
					"whitelisted(address)": "d936547e"
				}
			},
			"storageLayout": {
				"storage": [
					{
						"astId": 7,
						"contract": "contracts/PreSale.sol:PreSale",
						"label": "_owner",
						"offset": 0,
						"slot": "0",
						"type": "t_address"
					},
					{
						"astId": 1058,
						"contract": "contracts/PreSale.sol:PreSale",
						"label": "rewardToken",
						"offset": 0,
						"slot": "1",
						"type": "t_contract(IERC20)181"
					},
					{
						"astId": 1061,
						"contract": "contracts/PreSale.sol:PreSale",
						"label": "paymentToken",
						"offset": 0,
						"slot": "2",
						"type": "t_contract(IERC20)181"
					},
					{
						"astId": 1063,
						"contract": "contracts/PreSale.sol:PreSale",
						"label": "pricePerToken",
						"offset": 0,
						"slot": "3",
						"type": "t_uint256"
					},
					{
						"astId": 1065,
						"contract": "contracts/PreSale.sol:PreSale",
						"label": "limit",
						"offset": 0,
						"slot": "4",
						"type": "t_uint256"
					},
					{
						"astId": 1067,
						"contract": "contracts/PreSale.sol:PreSale",
						"label": "softcap",
						"offset": 0,
						"slot": "5",
						"type": "t_uint256"
					},
					{
						"astId": 1069,
						"contract": "contracts/PreSale.sol:PreSale",
						"label": "soldTokens",
						"offset": 0,
						"slot": "6",
						"type": "t_uint256"
					},
					{
						"astId": 1072,
						"contract": "contracts/PreSale.sol:PreSale",
						"label": "saleEnded",
						"offset": 0,
						"slot": "7",
						"type": "t_uint256"
					},
					{
						"astId": 1074,
						"contract": "contracts/PreSale.sol:PreSale",
						"label": "afterDays",
						"offset": 0,
						"slot": "8",
						"type": "t_uint256"
					},
					{
						"astId": 1089,
						"contract": "contracts/PreSale.sol:PreSale",
						"label": "requireWhitelist",
						"offset": 0,
						"slot": "9",
						"type": "t_bool"
					},
					{
						"astId": 1093,
						"contract": "contracts/PreSale.sol:PreSale",
						"label": "whitelisted",
						"offset": 0,
						"slot": "10",
						"type": "t_mapping(t_address,t_bool)"
					},
					{
						"astId": 1097,
						"contract": "contracts/PreSale.sol:PreSale",
						"label": "bought",
						"offset": 0,
						"slot": "11",
						"type": "t_mapping(t_address,t_uint256)"
					},
					{
						"astId": 1101,
						"contract": "contracts/PreSale.sol:PreSale",
						"label": "claimed",
						"offset": 0,
						"slot": "12",
						"type": "t_mapping(t_address,t_uint256)"
					},
					{
						"astId": 1105,
						"contract": "contracts/PreSale.sol:PreSale",
						"label": "claimedTokens",
						"offset": 0,
						"slot": "13",
						"type": "t_mapping(t_address,t_uint256)"
					},
					{
						"astId": 1109,
						"contract": "contracts/PreSale.sol:PreSale",
						"label": "lastClaimAddress",
						"offset": 0,
						"slot": "14",
						"type": "t_mapping(t_address,t_address)"
					}
				],
				"types": {
					"t_address": {
						"encoding": "inplace",
						"label": "address",
						"numberOfBytes": "20"
					},
					"t_bool": {
						"encoding": "inplace",
						"label": "bool",
						"numberOfBytes": "1"
					},
					"t_contract(IERC20)181": {
						"encoding": "inplace",
						"label": "contract IERC20",
						"numberOfBytes": "20"
					},
					"t_mapping(t_address,t_address)": {
						"encoding": "mapping",
						"key": "t_address",
						"label": "mapping(address => address)",
						"numberOfBytes": "32",
						"value": "t_address"
					},
					"t_mapping(t_address,t_bool)": {
						"encoding": "mapping",
						"key": "t_address",
						"label": "mapping(address => bool)",
						"numberOfBytes": "32",
						"value": "t_bool"
					},
					"t_mapping(t_address,t_uint256)": {
						"encoding": "mapping",
						"key": "t_address",
						"label": "mapping(address => uint256)",
						"numberOfBytes": "32",
						"value": "t_uint256"
					},
					"t_uint256": {
						"encoding": "inplace",
						"label": "uint256",
						"numberOfBytes": "32"
					}
				}
			},
			"userdoc": {
				"kind": "user",
				"methods": {},
				"version": 1
			}
		}
	}
}