{
	"contracts/Vesting.sol": {
		"Vesting": {
			"abi": [
				{
					"inputs": [
						{
							"internalType": "contract IERC20",
							"name": "_rewardToken",
							"type": "address"
						}
					],
					"stateMutability": "nonpayable",
					"type": "constructor"
				},
				{
					"anonymous": false,
					"inputs": [
						{
							"indexed": true,
							"internalType": "uint256",
							"name": "amount",
							"type": "uint256"
						}
					],
					"name": "AddedToWhitelist",
					"type": "event"
				},
				{
					"anonymous": false,
					"inputs": [
						{
							"indexed": true,
							"internalType": "uint256",
							"name": "amount",
							"type": "uint256"
						}
					],
					"name": "AddedToWhitelistFromSaft",
					"type": "event"
				},
				{
					"anonymous": false,
					"inputs": [
						{
							"indexed": true,
							"internalType": "address",
							"name": "buyer",
							"type": "address"
						},
						{
							"indexed": true,
							"internalType": "uint256",
							"name": "amount",
							"type": "uint256"
						}
					],
					"name": "Bought",
					"type": "event"
				},
				{
					"anonymous": false,
					"inputs": [
						{
							"indexed": true,
							"internalType": "address",
							"name": "newToken",
							"type": "address"
						}
					],
					"name": "ChangeRewardToken",
					"type": "event"
				},
				{
					"anonymous": false,
					"inputs": [
						{
							"indexed": true,
							"internalType": "uint256",
							"name": "claimDate",
							"type": "uint256"
						}
					],
					"name": "ClaimOpened",
					"type": "event"
				},
				{
					"anonymous": false,
					"inputs": [
						{
							"indexed": true,
							"internalType": "address",
							"name": "owner",
							"type": "address"
						},
						{
							"indexed": true,
							"internalType": "uint256",
							"name": "amount",
							"type": "uint256"
						}
					],
					"name": "Claimed",
					"type": "event"
				},
				{
					"anonymous": false,
					"inputs": [
						{
							"indexed": true,
							"internalType": "address",
							"name": "owner",
							"type": "address"
						},
						{
							"indexed": true,
							"internalType": "uint256",
							"name": "amount",
							"type": "uint256"
						}
					],
					"name": "DepositedInVestingPool",
					"type": "event"
				},
				{
					"anonymous": false,
					"inputs": [
						{
							"indexed": true,
							"internalType": "address",
							"name": "previousOwner",
							"type": "address"
						},
						{
							"indexed": true,
							"internalType": "address",
							"name": "newOwner",
							"type": "address"
						}
					],
					"name": "OwnershipTransferred",
					"type": "event"
				},
				{
					"inputs": [
						{
							"internalType": "address",
							"name": "",
							"type": "address"
						}
					],
					"name": "bought",
					"outputs": [
						{
							"internalType": "uint256",
							"name": "",
							"type": "uint256"
						}
					],
					"stateMutability": "view",
					"type": "function"
				},
				{
					"inputs": [],
					"name": "claim",
					"outputs": [],
					"stateMutability": "nonpayable",
					"type": "function"
				},
				{
					"inputs": [],
					"name": "claimOpen",
					"outputs": [
						{
							"internalType": "uint256",
							"name": "",
							"type": "uint256"
						}
					],
					"stateMutability": "view",
					"type": "function"
				},
				{
					"inputs": [
						{
							"internalType": "address",
							"name": "",
							"type": "address"
						}
					],
					"name": "claimed",
					"outputs": [
						{
							"internalType": "uint256",
							"name": "",
							"type": "uint256"
						}
					],
					"stateMutability": "view",
					"type": "function"
				},
				{
					"inputs": [
						{
							"internalType": "address",
							"name": "",
							"type": "address"
						}
					],
					"name": "claimedTokens",
					"outputs": [
						{
							"internalType": "uint256",
							"name": "",
							"type": "uint256"
						}
					],
					"stateMutability": "view",
					"type": "function"
				},
				{
					"inputs": [],
					"name": "cliffPeriod",
					"outputs": [
						{
							"internalType": "uint256",
							"name": "",
							"type": "uint256"
						}
					],
					"stateMutability": "view",
					"type": "function"
				},
				{
					"inputs": [],
					"name": "getCurrentPercentage",
					"outputs": [
						{
							"internalType": "uint256",
							"name": "",
							"type": "uint256"
						}
					],
					"stateMutability": "view",
					"type": "function"
				},
				{
					"inputs": [],
					"name": "initialClaimPercentage",
					"outputs": [
						{
							"internalType": "uint256",
							"name": "",
							"type": "uint256"
						}
					],
					"stateMutability": "view",
					"type": "function"
				},
				{
					"inputs": [
						{
							"internalType": "address",
							"name": "",
							"type": "address"
						}
					],
					"name": "lastClaimAddress",
					"outputs": [
						{
							"internalType": "address",
							"name": "",
							"type": "address"
						}
					],
					"stateMutability": "view",
					"type": "function"
				},
				{
					"inputs": [],
					"name": "openClaim",
					"outputs": [],
					"stateMutability": "nonpayable",
					"type": "function"
				},
				{
					"inputs": [],
					"name": "owner",
					"outputs": [
						{
							"internalType": "address",
							"name": "",
							"type": "address"
						}
					],
					"stateMutability": "view",
					"type": "function"
				},
				{
					"inputs": [],
					"name": "percentagePerPeriod",
					"outputs": [
						{
							"internalType": "uint256",
							"name": "",
							"type": "uint256"
						}
					],
					"stateMutability": "view",
					"type": "function"
				},
				{
					"inputs": [],
					"name": "period",
					"outputs": [
						{
							"internalType": "uint256",
							"name": "",
							"type": "uint256"
						}
					],
					"stateMutability": "view",
					"type": "function"
				},
				{
					"inputs": [],
					"name": "renounceOwnership",
					"outputs": [],
					"stateMutability": "nonpayable",
					"type": "function"
				},
				{
					"inputs": [],
					"name": "requireWhitelist",
					"outputs": [
						{
							"internalType": "bool",
							"name": "",
							"type": "bool"
						}
					],
					"stateMutability": "view",
					"type": "function"
				},
				{
					"inputs": [],
					"name": "rewardToken",
					"outputs": [
						{
							"internalType": "contract IERC20",
							"name": "",
							"type": "address"
						}
					],
					"stateMutability": "view",
					"type": "function"
				},
				{
					"inputs": [
						{
							"internalType": "address",
							"name": "newOwner",
							"type": "address"
						}
					],
					"name": "transferOwnership",
					"outputs": [],
					"stateMutability": "nonpayable",
					"type": "function"
				},
				{
					"inputs": [
						{
							"internalType": "contract IERC20",
							"name": "_newRewardToken",
							"type": "address"
						}
					],
					"name": "updateRewardToken",
					"outputs": [],
					"stateMutability": "nonpayable",
					"type": "function"
				},
				{
					"inputs": [
						{
							"internalType": "address[]",
							"name": "addresses",
							"type": "address[]"
						},
						{
							"internalType": "uint256[]",
							"name": "amounts",
							"type": "uint256[]"
						}
					],
					"name": "whitelistFromSAFT",
					"outputs": [],
					"stateMutability": "nonpayable",
					"type": "function"
				}
			],
			"devdoc": {
				"kind": "dev",
				"methods": {
					"owner()": {
						"details": "Returns the address of the current owner."
					},
					"renounceOwnership()": {
						"details": "Leaves the contract without owner. It will not be possible to call `onlyOwner` functions anymore. Can only be called by the current owner. NOTE: Renouncing ownership will leave the contract without an owner, thereby removing any functionality that is only available to the owner."
					},
					"transferOwnership(address)": {
						"details": "Transfers ownership of the contract to a new account (`newOwner`). Can only be called by the current owner."
					}
				},
				"version": 1
			},
			"evm": {
				"assembly": "    /* \"contracts/Vesting.sol\":388:7069  contract Vesting is Ownable {... */\n  mstore(0x40, 0x80)\n    /* \"contracts/Vesting.sol\":910:911  0 */\n  0x00\n    /* \"contracts/Vesting.sol\":883:911  uint256 public claimOpen = 0 */\n  0x02\n  sstore\n    /* \"contracts/Vesting.sol\":1382:1417  bool public requireWhitelist = true */\n  0x03\n  dup1\n  sload\n  not(0xff)\n  and\n    /* \"contracts/Vesting.sol\":1413:1417  true */\n  0x01\n    /* \"contracts/Vesting.sol\":1382:1417  bool public requireWhitelist = true */\n  or\n  swap1\n  sstore\n    /* \"contracts/Vesting.sol\":2634:2710  constructor(IERC20 _rewardToken) {... */\n  callvalue\n  dup1\n  iszero\n  tag_1\n  jumpi\n  0x00\n  dup1\n  revert\ntag_1:\n  pop\n  mload(0x40)\n  sub(codesize, bytecodeSize)\n  dup1\n  bytecodeSize\n  dup4\n  codecopy\n  dup2\n  add\n  0x40\n  dup2\n  swap1\n  mstore\n  tag_2\n  swap2\n  tag_3\n  jump\t// in\ntag_2:\n    /* \"@openzeppelin/contracts/access/Ownable.sol\":867:890  _setOwner(_msgSender()) */\n  tag_7\n    /* \"@openzeppelin/contracts/utils/Context.sol\":665:675  msg.sender */\n  caller\n    /* \"@openzeppelin/contracts/access/Ownable.sol\":867:876  _setOwner */\n  tag_10\n    /* \"@openzeppelin/contracts/access/Ownable.sol\":867:890  _setOwner(_msgSender()) */\n  jump\t// in\ntag_7:\n    /* \"contracts/Vesting.sol\":2677:2688  rewardToken */\n  0x01\n    /* \"contracts/Vesting.sol\":2677:2703  rewardToken = _rewardToken */\n  dup1\n  sload\n  not(sub(shl(0xa0, 0x01), 0x01))\n  and\n  sub(shl(0xa0, 0x01), 0x01)\n  swap3\n  swap1\n  swap3\n  and\n  swap2\n  swap1\n  swap2\n  or\n  swap1\n  sstore\n    /* \"contracts/Vesting.sol\":388:7069  contract Vesting is Ownable {... */\n  jump(tag_15)\n    /* \"@openzeppelin/contracts/access/Ownable.sol\":2041:2210  function _setOwner(address newOwner) private {... */\ntag_10:\n    /* \"@openzeppelin/contracts/access/Ownable.sol\":2096:2112  address oldOwner */\n  0x00\n    /* \"@openzeppelin/contracts/access/Ownable.sol\":2115:2121  _owner */\n  dup1\n  sload\n  sub(shl(0xa0, 0x01), 0x01)\n    /* \"@openzeppelin/contracts/access/Ownable.sol\":2131:2148  _owner = newOwner */\n  dup4\n  dup2\n  and\n  not(sub(shl(0xa0, 0x01), 0x01))\n  dup4\n  and\n  dup2\n  or\n  dup5\n  sstore\n    /* \"@openzeppelin/contracts/access/Ownable.sol\":2163:2203  OwnershipTransferred(oldOwner, newOwner) */\n  mload(0x40)\n    /* \"@openzeppelin/contracts/access/Ownable.sol\":2115:2121  _owner */\n  swap2\n  swap1\n  swap3\n  and\n  swap3\n  dup4\n  swap2\n    /* \"@openzeppelin/contracts/access/Ownable.sol\":2163:2203  OwnershipTransferred(oldOwner, newOwner) */\n  0x8be0079c531659141344cd1fd0a4f28419497f9722a3daafe3b4186f6b6457e0\n  swap2\n    /* \"@openzeppelin/contracts/access/Ownable.sol\":2096:2112  address oldOwner */\n  swap1\n    /* \"@openzeppelin/contracts/access/Ownable.sol\":2163:2203  OwnershipTransferred(oldOwner, newOwner) */\n  log3\n    /* \"@openzeppelin/contracts/access/Ownable.sol\":2086:2210  {... */\n  pop\n    /* \"@openzeppelin/contracts/access/Ownable.sol\":2041:2210  function _setOwner(address newOwner) private {... */\n  pop\n  jump\t// out\n    /* \"#utility.yul\":14:318   */\ntag_3:\n    /* \"#utility.yul\":98:104   */\n  0x00\n    /* \"#utility.yul\":151:153   */\n  0x20\n    /* \"#utility.yul\":139:148   */\n  dup3\n    /* \"#utility.yul\":130:137   */\n  dup5\n    /* \"#utility.yul\":126:149   */\n  sub\n    /* \"#utility.yul\":122:154   */\n  slt\n    /* \"#utility.yul\":119:171   */\n  iszero\n  tag_17\n  jumpi\n    /* \"#utility.yul\":167:168   */\n  0x00\n    /* \"#utility.yul\":164:165   */\n  dup1\n    /* \"#utility.yul\":157:169   */\n  revert\n    /* \"#utility.yul\":119:171   */\ntag_17:\n    /* \"#utility.yul\":193:209   */\n  dup2\n  mload\n  sub(shl(0xa0, 0x01), 0x01)\n    /* \"#utility.yul\":238:269   */\n  dup2\n  and\n    /* \"#utility.yul\":228:270   */\n  dup2\n  eq\n    /* \"#utility.yul\":218:288   */\n  tag_18\n  jumpi\n    /* \"#utility.yul\":284:285   */\n  0x00\n    /* \"#utility.yul\":281:282   */\n  dup1\n    /* \"#utility.yul\":274:286   */\n  revert\n    /* \"#utility.yul\":218:288   */\ntag_18:\n    /* \"#utility.yul\":307:312   */\n  swap4\n    /* \"#utility.yul\":14:318   */\n  swap3\n  pop\n  pop\n  pop\n  jump\t// out\ntag_15:\n    /* \"contracts/Vesting.sol\":388:7069  contract Vesting is Ownable {... */\n  dataSize(sub_0)\n  dup1\n  dataOffset(sub_0)\n  0x00\n  codecopy\n  0x00\n  return\nstop\n\nsub_0: assembly {\n        /* \"contracts/Vesting.sol\":388:7069  contract Vesting is Ownable {... */\n      mstore(0x40, 0x80)\n      callvalue\n      dup1\n      iszero\n      tag_1\n      jumpi\n      0x00\n      dup1\n      revert\n    tag_1:\n      pop\n      jumpi(tag_2, lt(calldatasize, 0x04))\n      shr(0xe0, calldataload(0x00))\n      dup1\n      0x8da5cb5b\n      gt\n      tag_22\n      jumpi\n      dup1\n      0xef78d4fd\n      gt\n      tag_23\n      jumpi\n      dup1\n      0xef78d4fd\n      eq\n      tag_17\n      jumpi\n      dup1\n      0xf2fde38b\n      eq\n      tag_18\n      jumpi\n      dup1\n      0xf3739e05\n      eq\n      tag_19\n      jumpi\n      dup1\n      0xf7c618c1\n      eq\n      tag_20\n      jumpi\n      dup1\n      0xf8cf31cb\n      eq\n      tag_21\n      jumpi\n      0x00\n      dup1\n      revert\n    tag_23:\n      dup1\n      0x8da5cb5b\n      eq\n      tag_12\n      jumpi\n      dup1\n      0x9c92431b\n      eq\n      tag_13\n      jumpi\n      dup1\n      0xa5ebf835\n      eq\n      tag_14\n      jumpi\n      dup1\n      0xa960c65f\n      eq\n      tag_15\n      jumpi\n      dup1\n      0xc884ef83\n      eq\n      tag_16\n      jumpi\n      0x00\n      dup1\n      revert\n    tag_22:\n      dup1\n      0x4e71d92d\n      gt\n      tag_24\n      jumpi\n      dup1\n      0x4e71d92d\n      eq\n      tag_7\n      jumpi\n      dup1\n      0x5372a58e\n      eq\n      tag_8\n      jumpi\n      dup1\n      0x667022fd\n      eq\n      tag_9\n      jumpi\n      dup1\n      0x715018a6\n      eq\n      tag_10\n      jumpi\n      dup1\n      0x856734c4\n      eq\n      tag_11\n      jumpi\n      0x00\n      dup1\n      revert\n    tag_24:\n      dup1\n      0x151bad0a\n      eq\n      tag_3\n      jumpi\n      dup1\n      0x293cdbf1\n      eq\n      tag_4\n      jumpi\n      dup1\n      0x2f661946\n      eq\n      tag_5\n      jumpi\n      dup1\n      0x4b8bcb58\n      eq\n      tag_6\n      jumpi\n    tag_2:\n      0x00\n      dup1\n      revert\n        /* \"contracts/Vesting.sol\":1124:1172  uint256 constant public percentagePerPeriod = 50 */\n    tag_3:\n      tag_25\n        /* \"contracts/Vesting.sol\":1170:1172  50 */\n      0x32\n        /* \"contracts/Vesting.sol\":1124:1172  uint256 constant public percentagePerPeriod = 50 */\n      dup2\n      jump\n    tag_25:\n      mload(0x40)\n        /* \"#utility.yul\":9210:9235   */\n      swap1\n      dup2\n      mstore\n        /* \"#utility.yul\":9198:9200   */\n      0x20\n        /* \"#utility.yul\":9183:9201   */\n      add\n        /* \"contracts/Vesting.sol\":1124:1172  uint256 constant public percentagePerPeriod = 50 */\n    tag_27:\n      mload(0x40)\n      dup1\n      swap2\n      sub\n      swap1\n      return\n        /* \"contracts/Vesting.sol\":3038:3223  function openClaim() public onlyOwner {... */\n    tag_4:\n      tag_29\n      tag_30\n      jump\t// in\n    tag_29:\n      stop\n        /* \"contracts/Vesting.sol\":1256:1296  uint256 constant public cliffPeriod = 10 */\n    tag_5:\n      tag_25\n        /* \"contracts/Vesting.sol\":1294:1296  10 */\n      0x0a\n        /* \"contracts/Vesting.sol\":1256:1296  uint256 constant public cliffPeriod = 10 */\n      dup2\n      jump\n        /* \"contracts/Vesting.sol\":883:911  uint256 public claimOpen = 0 */\n    tag_6:\n      tag_25\n      sload(0x02)\n      dup2\n      jump\n        /* \"contracts/Vesting.sol\":5828:7067  function claim() public {... */\n    tag_7:\n      tag_29\n      tag_38\n      jump\t// in\n        /* \"contracts/Vesting.sol\":4030:4541  function whitelistFromSAFT(address[] memory addresses, uint256[] memory amounts) public onlyOwner {... */\n    tag_8:\n      tag_29\n      tag_40\n      calldatasize\n      0x04\n      tag_41\n      jump\t// in\n    tag_40:\n      tag_42\n      jump\t// in\n        /* \"contracts/Vesting.sol\":1496:1537  mapping(address => uint256) public bought */\n    tag_9:\n      tag_25\n      tag_44\n      calldatasize\n      0x04\n      tag_45\n      jump\t// in\n    tag_44:\n      mstore(0x20, 0x04)\n      0x00\n      swap1\n      dup2\n      mstore\n      0x40\n      swap1\n      keccak256\n      sload\n      dup2\n      jump\n        /* \"@openzeppelin/contracts/access/Ownable.sol\":1605:1697  function renounceOwnership() public virtual onlyOwner {... */\n    tag_10:\n      tag_29\n      tag_49\n      jump\t// in\n        /* \"contracts/Vesting.sol\":1382:1417  bool public requireWhitelist = true */\n    tag_11:\n      sload(0x03)\n      tag_50\n      swap1\n      0xff\n      and\n      dup2\n      jump\n    tag_50:\n      mload(0x40)\n        /* \"#utility.yul\":3995:4009   */\n      swap1\n      iszero\n        /* \"#utility.yul\":3988:4010   */\n      iszero\n        /* \"#utility.yul\":3970:4011   */\n      dup2\n      mstore\n        /* \"#utility.yul\":3958:3960   */\n      0x20\n        /* \"#utility.yul\":3943:3961   */\n      add\n        /* \"contracts/Vesting.sol\":1382:1417  bool public requireWhitelist = true */\n      tag_27\n        /* \"#utility.yul\":3830:4017   */\n      jump\n        /* \"@openzeppelin/contracts/access/Ownable.sol\":973:1058  function owner() public view virtual returns (address) {... */\n    tag_12:\n        /* \"@openzeppelin/contracts/access/Ownable.sol\":1019:1026  address */\n      0x00\n        /* \"@openzeppelin/contracts/access/Ownable.sol\":1045:1051  _owner */\n      sload\n      sub(shl(0xa0, 0x01), 0x01)\n      and\n        /* \"@openzeppelin/contracts/access/Ownable.sol\":973:1058  function owner() public view virtual returns (address) {... */\n    tag_54:\n      mload(0x40)\n      sub(shl(0xa0, 0x01), 0x01)\n        /* \"#utility.yul\":3507:3539   */\n      swap1\n      swap2\n      and\n        /* \"#utility.yul\":3489:3540   */\n      dup2\n      mstore\n        /* \"#utility.yul\":3477:3479   */\n      0x20\n        /* \"#utility.yul\":3462:3480   */\n      add\n        /* \"@openzeppelin/contracts/access/Ownable.sol\":973:1058  function owner() public view virtual returns (address) {... */\n      tag_27\n        /* \"#utility.yul\":3343:3546   */\n      jump\n        /* \"contracts/Vesting.sol\":4870:5362  function getCurrentPercentage() public view returns (uint256) {... */\n    tag_13:\n      tag_25\n      tag_59\n      jump\t// in\n        /* \"contracts/Vesting.sol\":997:1049  uint256 constant public initialClaimPercentage = 100 */\n    tag_14:\n      tag_25\n        /* \"contracts/Vesting.sol\":1046:1049  100 */\n      0x64\n        /* \"contracts/Vesting.sol\":997:1049  uint256 constant public initialClaimPercentage = 100 */\n      dup2\n      jump\n        /* \"contracts/Vesting.sol\":1688:1736  mapping(address => uint256) public claimedTokens */\n    tag_15:\n      tag_25\n      tag_65\n      calldatasize\n      0x04\n      tag_45\n      jump\t// in\n    tag_65:\n      mstore(0x20, 0x06)\n      0x00\n      swap1\n      dup2\n      mstore\n      0x40\n      swap1\n      keccak256\n      sload\n      dup2\n      jump\n        /* \"contracts/Vesting.sol\":1585:1627  mapping(address => uint256) public claimed */\n    tag_16:\n      tag_25\n      tag_69\n      calldatasize\n      0x04\n      tag_45\n      jump\t// in\n    tag_69:\n      mstore(0x20, 0x05)\n      0x00\n      swap1\n      dup2\n      mstore\n      0x40\n      swap1\n      keccak256\n      sload\n      dup2\n      jump\n        /* \"contracts/Vesting.sol\":917:951  uint256 constant public period = 2 */\n    tag_17:\n      tag_25\n        /* \"contracts/Vesting.sol\":950:951  2 */\n      0x02\n        /* \"contracts/Vesting.sol\":917:951  uint256 constant public period = 2 */\n      dup2\n      jump\n        /* \"@openzeppelin/contracts/access/Ownable.sol\":1846:2035  function transferOwnership(address newOwner) public virtual onlyOwner {... */\n    tag_18:\n      tag_29\n      tag_76\n      calldatasize\n      0x04\n      tag_45\n      jump\t// in\n    tag_76:\n      tag_77\n      jump\t// in\n        /* \"contracts/Vesting.sol\":1784:1835  mapping(address => address) public lastClaimAddress */\n    tag_19:\n      tag_54\n      tag_79\n      calldatasize\n      0x04\n      tag_45\n      jump\t// in\n    tag_79:\n      mstore(0x20, 0x07)\n      0x00\n      swap1\n      dup2\n      mstore\n      0x40\n      swap1\n      keccak256\n      sload\n      sub(shl(0xa0, 0x01), 0x01)\n      and\n      dup2\n      jump\n        /* \"contracts/Vesting.sol\":838:863  IERC20 public rewardToken */\n    tag_20:\n      sload(0x01)\n      tag_54\n      swap1\n      sub(shl(0xa0, 0x01), 0x01)\n      and\n      dup2\n      jump\n        /* \"contracts/Vesting.sol\":3506:4019  function updateRewardToken(IERC20 _newRewardToken) public onlyOwner {... */\n    tag_21:\n      tag_29\n      tag_87\n      calldatasize\n      0x04\n      tag_45\n      jump\t// in\n    tag_87:\n      tag_89\n      jump\t// in\n        /* \"contracts/Vesting.sol\":3038:3223  function openClaim() public onlyOwner {... */\n    tag_30:\n        /* \"@openzeppelin/contracts/access/Ownable.sol\":1019:1026  address */\n      0x00\n        /* \"@openzeppelin/contracts/access/Ownable.sol\":1045:1051  _owner */\n      sload\n      sub(shl(0xa0, 0x01), 0x01)\n      and\n        /* \"@openzeppelin/contracts/utils/Context.sol\":665:675  msg.sender */\n      caller\n        /* \"@openzeppelin/contracts/access/Ownable.sol\":1185:1208  owner() == _msgSender() */\n      eq\n        /* \"@openzeppelin/contracts/access/Ownable.sol\":1177:1245  require(owner() == _msgSender(), \"Ownable: caller is not the owner\") */\n      tag_94\n      jumpi\n      mload(0x40)\n      shl(0xe5, 0x461bcd)\n      dup2\n      mstore\n      0x04\n      add\n      tag_95\n      swap1\n      tag_96\n      jump\t// in\n    tag_95:\n      mload(0x40)\n      dup1\n      swap2\n      sub\n      swap1\n      revert\n    tag_94:\n        /* \"contracts/Vesting.sol\":3094:3103  claimOpen */\n      sload(0x02)\n        /* \"contracts/Vesting.sol\":3094:3108  claimOpen == 0 */\n      iszero\n        /* \"contracts/Vesting.sol\":3086:3136  require(claimOpen == 0, \"Claim is already opened\") */\n      tag_98\n      jumpi\n      mload(0x40)\n      shl(0xe5, 0x461bcd)\n      dup2\n      mstore\n        /* \"#utility.yul\":7570:7572   */\n      0x20\n        /* \"contracts/Vesting.sol\":3086:3136  require(claimOpen == 0, \"Claim is already opened\") */\n      0x04\n      dup3\n      add\n        /* \"#utility.yul\":7552:7573   */\n      mstore\n        /* \"#utility.yul\":7609:7611   */\n      0x17\n        /* \"#utility.yul\":7589:7607   */\n      0x24\n      dup3\n      add\n        /* \"#utility.yul\":7582:7612   */\n      mstore\n        /* \"#utility.yul\":7648:7673   */\n      0x436c61696d20697320616c7265616479206f70656e6564000000000000000000\n        /* \"#utility.yul\":7628:7646   */\n      0x44\n      dup3\n      add\n        /* \"#utility.yul\":7621:7674   */\n      mstore\n        /* \"#utility.yul\":7691:7709   */\n      0x64\n      add\n        /* \"contracts/Vesting.sol\":3086:3136  require(claimOpen == 0, \"Claim is already opened\") */\n      tag_95\n        /* \"#utility.yul\":7368:7715   */\n      jump\n        /* \"contracts/Vesting.sol\":3086:3136  require(claimOpen == 0, \"Claim is already opened\") */\n    tag_98:\n        /* \"contracts/Vesting.sol\":3158:3173  block.timestamp */\n      timestamp\n        /* \"contracts/Vesting.sol\":3146:3155  claimOpen */\n      0x02\n        /* \"contracts/Vesting.sol\":3146:3173  claimOpen = block.timestamp */\n      dup2\n      swap1\n      sstore\n        /* \"contracts/Vesting.sol\":3188:3216  ClaimOpened(block.timestamp) */\n      mload(0x40)\n      0x7d425ef8bc8f854f0bddfa263a1a52ae42adbddd9c9c95ad3f21b1e2d311c4ca\n      swap1\n      0x00\n      swap1\n      log2\n        /* \"contracts/Vesting.sol\":3038:3223  function openClaim() public onlyOwner {... */\n      jump\t// out\n        /* \"contracts/Vesting.sol\":5828:7067  function claim() public {... */\n    tag_38:\n        /* \"contracts/Vesting.sol\":5870:5879  claimOpen */\n      sload(0x02)\n        /* \"contracts/Vesting.sol\":5862:5925  require(claimOpen != 0, \"ABOAT::claim: Claim is not open yet!\") */\n      tag_102\n      jumpi\n      mload(0x40)\n      shl(0xe5, 0x461bcd)\n      dup2\n      mstore\n        /* \"#utility.yul\":4853:4855   */\n      0x20\n        /* \"contracts/Vesting.sol\":5862:5925  require(claimOpen != 0, \"ABOAT::claim: Claim is not open yet!\") */\n      0x04\n      dup3\n      add\n        /* \"#utility.yul\":4835:4856   */\n      mstore\n        /* \"#utility.yul\":4892:4894   */\n      0x24\n        /* \"#utility.yul\":4872:4890   */\n      dup1\n      dup3\n      add\n        /* \"#utility.yul\":4865:4895   */\n      mstore\n        /* \"#utility.yul\":4931:4965   */\n      0x41424f41543a3a636c61696d3a20436c61696d206973206e6f74206f70656e20\n        /* \"#utility.yul\":4911:4929   */\n      0x44\n      dup3\n      add\n        /* \"#utility.yul\":4904:4966   */\n      mstore\n      shl(0xe0, 0x79657421)\n        /* \"#utility.yul\":4982:5000   */\n      0x64\n      dup3\n      add\n        /* \"#utility.yul\":4975:5009   */\n      mstore\n        /* \"#utility.yul\":5026:5045   */\n      0x84\n      add\n        /* \"contracts/Vesting.sol\":5862:5925  require(claimOpen != 0, \"ABOAT::claim: Claim is not open yet!\") */\n      tag_95\n        /* \"#utility.yul\":4651:5051   */\n      jump\n        /* \"contracts/Vesting.sol\":5862:5925  require(claimOpen != 0, \"ABOAT::claim: Claim is not open yet!\") */\n    tag_102:\n        /* \"contracts/Vesting.sol\":5935:5960  uint256 currentPercentage */\n      0x00\n        /* \"contracts/Vesting.sol\":5963:5985  getCurrentPercentage() */\n      tag_105\n        /* \"contracts/Vesting.sol\":5963:5983  getCurrentPercentage */\n      tag_59\n        /* \"contracts/Vesting.sol\":5963:5985  getCurrentPercentage() */\n      jump\t// in\n    tag_105:\n        /* \"contracts/Vesting.sol\":5935:5985  uint256 currentPercentage = getCurrentPercentage() */\n      swap1\n      pop\n        /* \"contracts/Vesting.sol\":6023:6024  0 */\n      0x00\n        /* \"contracts/Vesting.sol\":6003:6020  currentPercentage */\n      dup2\n        /* \"contracts/Vesting.sol\":6003:6024  currentPercentage > 0 */\n      gt\n        /* \"contracts/Vesting.sol\":5995:6122  require(currentPercentage > 0, \"ABOAT::claim: The percentage of token you can claim is currently zero. Please try again later\") */\n      tag_106\n      jumpi\n      mload(0x40)\n      shl(0xe5, 0x461bcd)\n      dup2\n      mstore\n        /* \"#utility.yul\":7068:7070   */\n      0x20\n        /* \"contracts/Vesting.sol\":5995:6122  require(currentPercentage > 0, \"ABOAT::claim: The percentage of token you can claim is currently zero. Please try again later\") */\n      0x04\n      dup3\n      add\n        /* \"#utility.yul\":7050:7071   */\n      mstore\n        /* \"#utility.yul\":7107:7109   */\n      0x5d\n        /* \"#utility.yul\":7087:7105   */\n      0x24\n      dup3\n      add\n        /* \"#utility.yul\":7080:7110   */\n      mstore\n        /* \"#utility.yul\":7146:7180   */\n      0x41424f41543a3a636c61696d3a205468652070657263656e74616765206f6620\n        /* \"#utility.yul\":7126:7144   */\n      0x44\n      dup3\n      add\n        /* \"#utility.yul\":7119:7181   */\n      mstore\n        /* \"#utility.yul\":7217:7251   */\n      0x746f6b656e20796f752063616e20636c61696d2069732063757272656e746c79\n        /* \"#utility.yul\":7197:7215   */\n      0x64\n      dup3\n      add\n        /* \"#utility.yul\":7190:7252   */\n      mstore\n        /* \"#utility.yul\":7289:7320   */\n      0x207a65726f2e20506c656173652074727920616761696e206c61746572000000\n        /* \"#utility.yul\":7268:7287   */\n      0x84\n      dup3\n      add\n        /* \"#utility.yul\":7261:7321   */\n      mstore\n        /* \"#utility.yul\":7338:7357   */\n      0xa4\n      add\n        /* \"contracts/Vesting.sol\":5995:6122  require(currentPercentage > 0, \"ABOAT::claim: The percentage of token you can claim is currently zero. Please try again later\") */\n      tag_95\n        /* \"#utility.yul\":6866:7363   */\n      jump\n        /* \"contracts/Vesting.sol\":5995:6122  require(currentPercentage > 0, \"ABOAT::claim: The percentage of token you can claim is currently zero. Please try again later\") */\n    tag_106:\n        /* \"contracts/Vesting.sol\":6175:6186  rewardToken */\n      sload(0x01)\n        /* \"contracts/Vesting.sol\":6152:6162  msg.sender */\n      caller\n        /* \"contracts/Vesting.sol\":6175:6186  rewardToken */\n      0x00\n        /* \"contracts/Vesting.sol\":6135:6163  lastClaimAddress[msg.sender] */\n      swap1\n      dup2\n      mstore\n        /* \"contracts/Vesting.sol\":6135:6151  lastClaimAddress */\n      0x07\n        /* \"contracts/Vesting.sol\":6135:6163  lastClaimAddress[msg.sender] */\n      0x20\n      mstore\n      0x40\n      swap1\n      keccak256\n      sload\n      sub(shl(0xa0, 0x01), 0x01)\n      swap1\n      dup2\n      and\n        /* \"contracts/Vesting.sol\":6175:6186  rewardToken */\n      swap2\n      and\n        /* \"contracts/Vesting.sol\":6135:6187  lastClaimAddress[msg.sender] != address(rewardToken) */\n      eq\n        /* \"contracts/Vesting.sol\":6132:6345  if(lastClaimAddress[msg.sender] != address(rewardToken)) {... */\n      tag_109\n      jumpi\n        /* \"contracts/Vesting.sol\":6242:6253  rewardToken */\n      sload(0x01)\n        /* \"contracts/Vesting.sol\":6220:6230  msg.sender */\n      caller\n        /* \"contracts/Vesting.sol\":6242:6253  rewardToken */\n      0x00\n        /* \"contracts/Vesting.sol\":6203:6231  lastClaimAddress[msg.sender] */\n      swap1\n      dup2\n      mstore\n        /* \"contracts/Vesting.sol\":6203:6219  lastClaimAddress */\n      0x07\n        /* \"contracts/Vesting.sol\":6203:6231  lastClaimAddress[msg.sender] */\n      0x20\n      swap1\n      dup2\n      mstore\n      0x40\n      dup1\n      dup4\n      keccak256\n        /* \"contracts/Vesting.sol\":6203:6254  lastClaimAddress[msg.sender] = address(rewardToken) */\n      dup1\n      sload\n      not(sub(shl(0xa0, 0x01), 0x01))\n      and\n      sub(shl(0xa0, 0x01), 0x01)\n        /* \"contracts/Vesting.sol\":6242:6253  rewardToken */\n      swap1\n      swap6\n      and\n        /* \"contracts/Vesting.sol\":6203:6254  lastClaimAddress[msg.sender] = address(rewardToken) */\n      swap5\n      swap1\n      swap5\n      or\n      swap1\n      swap4\n      sstore\n        /* \"contracts/Vesting.sol\":6268:6275  claimed */\n      0x05\n        /* \"contracts/Vesting.sol\":6268:6287  claimed[msg.sender] */\n      dup2\n      mstore\n      dup3\n      dup3\n      keccak256\n        /* \"contracts/Vesting.sol\":6268:6291  claimed[msg.sender] = 0 */\n      dup3\n      swap1\n      sstore\n        /* \"contracts/Vesting.sol\":6305:6318  claimedTokens */\n      0x06\n        /* \"contracts/Vesting.sol\":6305:6330  claimedTokens[msg.sender] */\n      swap1\n      mstore\n      swap1\n      dup2\n      keccak256\n        /* \"contracts/Vesting.sol\":6305:6334  claimedTokens[msg.sender] = 0 */\n      sstore\n        /* \"contracts/Vesting.sol\":6132:6345  if(lastClaimAddress[msg.sender] != address(rewardToken)) {... */\n    tag_109:\n        /* \"contracts/Vesting.sol\":6370:6380  msg.sender */\n      caller\n        /* \"contracts/Vesting.sol\":6362:6381  claimed[msg.sender] */\n      0x00\n      swap1\n      dup2\n      mstore\n        /* \"contracts/Vesting.sol\":6362:6369  claimed */\n      0x05\n        /* \"contracts/Vesting.sol\":6362:6381  claimed[msg.sender] */\n      0x20\n      mstore\n      0x40\n      swap1\n      keccak256\n      sload\n        /* \"contracts/Vesting.sol\":6362:6401  claimed[msg.sender] < currentPercentage */\n      dup2\n      gt\n        /* \"contracts/Vesting.sol\":6354:6466  require(claimed[msg.sender] < currentPercentage, \"ABOAT::claim: Already claimed your currently eligible tokens\") */\n      tag_110\n      jumpi\n      mload(0x40)\n      shl(0xe5, 0x461bcd)\n      dup2\n      mstore\n        /* \"#utility.yul\":5679:5681   */\n      0x20\n        /* \"contracts/Vesting.sol\":6354:6466  require(claimed[msg.sender] < currentPercentage, \"ABOAT::claim: Already claimed your currently eligible tokens\") */\n      0x04\n      dup3\n      add\n        /* \"#utility.yul\":5661:5682   */\n      mstore\n        /* \"#utility.yul\":5718:5720   */\n      0x3c\n        /* \"#utility.yul\":5698:5716   */\n      0x24\n      dup3\n      add\n        /* \"#utility.yul\":5691:5721   */\n      mstore\n        /* \"#utility.yul\":5757:5791   */\n      0x41424f41543a3a636c61696d3a20416c726561647920636c61696d656420796f\n        /* \"#utility.yul\":5737:5755   */\n      0x44\n      dup3\n      add\n        /* \"#utility.yul\":5730:5792   */\n      mstore\n        /* \"#utility.yul\":5828:5858   */\n      0x75722063757272656e746c7920656c696769626c6520746f6b656e7300000000\n        /* \"#utility.yul\":5808:5826   */\n      0x64\n      dup3\n      add\n        /* \"#utility.yul\":5801:5859   */\n      mstore\n        /* \"#utility.yul\":5876:5895   */\n      0x84\n      add\n        /* \"contracts/Vesting.sol\":6354:6466  require(claimed[msg.sender] < currentPercentage, \"ABOAT::claim: Already claimed your currently eligible tokens\") */\n      tag_95\n        /* \"#utility.yul\":5477:5901   */\n      jump\n        /* \"contracts/Vesting.sol\":6354:6466  require(claimed[msg.sender] < currentPercentage, \"ABOAT::claim: Already claimed your currently eligible tokens\") */\n    tag_110:\n        /* \"contracts/Vesting.sol\":6516:6526  msg.sender */\n      caller\n        /* \"contracts/Vesting.sol\":6481:6505  uint256 currentlyClaimed */\n      0x00\n        /* \"contracts/Vesting.sol\":6508:6527  claimed[msg.sender] */\n      swap1\n      dup2\n      mstore\n        /* \"contracts/Vesting.sol\":6508:6515  claimed */\n      0x05\n        /* \"contracts/Vesting.sol\":6508:6527  claimed[msg.sender] */\n      0x20\n      mstore\n      0x40\n      dup2\n      keccak256\n      dup1\n      sload\n        /* \"contracts/Vesting.sol\":6541:6580  claimed[msg.sender] = currentPercentage */\n      swap1\n      dup4\n      swap1\n      sstore\n        /* \"contracts/Vesting.sol\":6508:6527  claimed[msg.sender] */\n      swap1\n        /* \"contracts/Vesting.sol\":6611:6684  bought[msg.sender].mul(currentPercentage.sub(currentlyClaimed)).div(1000) */\n      tag_113\n        /* \"contracts/Vesting.sol\":6679:6683  1000 */\n      0x03e8\n        /* \"contracts/Vesting.sol\":6611:6674  bought[msg.sender].mul(currentPercentage.sub(currentlyClaimed)) */\n      tag_114\n        /* \"contracts/Vesting.sol\":6634:6673  currentPercentage.sub(currentlyClaimed) */\n      tag_115\n        /* \"contracts/Vesting.sol\":6563:6580  currentPercentage */\n      dup7\n        /* \"contracts/Vesting.sol\":6508:6527  claimed[msg.sender] */\n      dup7\n        /* \"contracts/Vesting.sol\":6634:6655  currentPercentage.sub */\n      tag_116\n        /* \"contracts/Vesting.sol\":6634:6673  currentPercentage.sub(currentlyClaimed) */\n      jump\t// in\n    tag_115:\n        /* \"contracts/Vesting.sol\":6618:6628  msg.sender */\n      caller\n        /* \"contracts/Vesting.sol\":6611:6629  bought[msg.sender] */\n      0x00\n      swap1\n      dup2\n      mstore\n        /* \"contracts/Vesting.sol\":6611:6617  bought */\n      0x04\n        /* \"contracts/Vesting.sol\":6611:6629  bought[msg.sender] */\n      0x20\n      mstore\n      0x40\n      swap1\n      keccak256\n      sload\n      swap1\n        /* \"contracts/Vesting.sol\":6611:6633  bought[msg.sender].mul */\n      tag_117\n        /* \"contracts/Vesting.sol\":6611:6674  bought[msg.sender].mul(currentPercentage.sub(currentlyClaimed)) */\n      jump\t// in\n    tag_114:\n        /* \"contracts/Vesting.sol\":6611:6678  bought[msg.sender].mul(currentPercentage.sub(currentlyClaimed)).div */\n      swap1\n      tag_118\n        /* \"contracts/Vesting.sol\":6611:6684  bought[msg.sender].mul(currentPercentage.sub(currentlyClaimed)).div(1000) */\n      jump\t// in\n    tag_113:\n        /* \"contracts/Vesting.sol\":6740:6750  msg.sender */\n      caller\n        /* \"contracts/Vesting.sol\":6726:6751  claimedTokens[msg.sender] */\n      0x00\n      swap1\n      dup2\n      mstore\n        /* \"contracts/Vesting.sol\":6726:6739  claimedTokens */\n      0x06\n        /* \"contracts/Vesting.sol\":6726:6751  claimedTokens[msg.sender] */\n      0x20\n      mstore\n      0x40\n      swap1\n      keccak256\n      sload\n        /* \"contracts/Vesting.sol\":6594:6684  uint256 amount = bought[msg.sender].mul(currentPercentage.sub(currentlyClaimed)).div(1000) */\n      swap1\n      swap2\n      pop\n        /* \"contracts/Vesting.sol\":6726:6763  claimedTokens[msg.sender].add(amount) */\n      tag_119\n      swap1\n        /* \"contracts/Vesting.sol\":6594:6684  uint256 amount = bought[msg.sender].mul(currentPercentage.sub(currentlyClaimed)).div(1000) */\n      dup3\n        /* \"contracts/Vesting.sol\":6726:6755  claimedTokens[msg.sender].add */\n      tag_120\n        /* \"contracts/Vesting.sol\":6726:6763  claimedTokens[msg.sender].add(amount) */\n      jump\t// in\n    tag_119:\n        /* \"contracts/Vesting.sol\":6712:6722  msg.sender */\n      caller\n        /* \"contracts/Vesting.sol\":6698:6723  claimedTokens[msg.sender] */\n      0x00\n      swap1\n      dup2\n      mstore\n        /* \"contracts/Vesting.sol\":6698:6711  claimedTokens */\n      0x06\n        /* \"contracts/Vesting.sol\":6698:6723  claimedTokens[msg.sender] */\n      0x20\n      mstore\n      0x40\n      swap1\n      keccak256\n        /* \"contracts/Vesting.sol\":6698:6763  claimedTokens[msg.sender] = claimedTokens[msg.sender].add(amount) */\n      sstore\n        /* \"contracts/Vesting.sol\":6788:6799  rewardToken */\n      and(sub(shl(0xa0, 0x01), 0x01), sload(0x01))\n        /* \"contracts/Vesting.sol\":6780:6814  address(rewardToken) != address(0) */\n      iszero\n        /* \"contracts/Vesting.sol\":6777:7007  if(address(rewardToken) != address(0)) {... */\n      tag_121\n      jumpi\n        /* \"contracts/Vesting.sol\":6870:6881  rewardToken */\n      sload(0x01)\n        /* \"contracts/Vesting.sol\":6834:6903  TransferHelper.safeTransfer(address(rewardToken), msg.sender, amount) */\n      tag_122\n      swap1\n      sub(shl(0xa0, 0x01), 0x01)\n        /* \"contracts/Vesting.sol\":6870:6881  rewardToken */\n      and\n        /* \"contracts/Vesting.sol\":6884:6894  msg.sender */\n      caller\n        /* \"contracts/Vesting.sol\":6896:6902  amount */\n      dup4\n        /* \"contracts/Vesting.sol\":6834:6861  TransferHelper.safeTransfer */\n      tag_123\n        /* \"contracts/Vesting.sol\":6834:6903  TransferHelper.safeTransfer(address(rewardToken), msg.sender, amount) */\n      jump\t// in\n    tag_122:\n        /* \"contracts/Vesting.sol\":6777:7007  if(address(rewardToken) != address(0)) {... */\n      jump(tag_125)\n    tag_121:\n        /* \"contracts/Vesting.sol\":6942:6992  TransferHelper.safeTransferETH(msg.sender, amount) */\n      tag_125\n        /* \"contracts/Vesting.sol\":6973:6983  msg.sender */\n      caller\n        /* \"contracts/Vesting.sol\":6985:6991  amount */\n      dup3\n        /* \"contracts/Vesting.sol\":6942:6972  TransferHelper.safeTransferETH */\n      tag_126\n        /* \"contracts/Vesting.sol\":6942:6992  TransferHelper.safeTransferETH(msg.sender, amount) */\n      jump\t// in\n    tag_125:\n        /* \"contracts/Vesting.sol\":7025:7052  Claimed(msg.sender, amount) */\n      mload(0x40)\n        /* \"contracts/Vesting.sol\":7045:7051  amount */\n      dup2\n      swap1\n        /* \"contracts/Vesting.sol\":7033:7043  msg.sender */\n      caller\n      swap1\n        /* \"contracts/Vesting.sol\":7025:7052  Claimed(msg.sender, amount) */\n      0xd8138f8a3f377c5259ca548e70e4c2de94f129f5a11036a15b69513cba2b426a\n      swap1\n      0x00\n      swap1\n      log3\n        /* \"contracts/Vesting.sol\":5852:7067  {... */\n      pop\n      pop\n      pop\n        /* \"contracts/Vesting.sol\":5828:7067  function claim() public {... */\n      jump\t// out\n        /* \"contracts/Vesting.sol\":4030:4541  function whitelistFromSAFT(address[] memory addresses, uint256[] memory amounts) public onlyOwner {... */\n    tag_42:\n        /* \"@openzeppelin/contracts/access/Ownable.sol\":1019:1026  address */\n      0x00\n        /* \"@openzeppelin/contracts/access/Ownable.sol\":1045:1051  _owner */\n      sload\n      sub(shl(0xa0, 0x01), 0x01)\n      and\n        /* \"@openzeppelin/contracts/utils/Context.sol\":665:675  msg.sender */\n      caller\n        /* \"@openzeppelin/contracts/access/Ownable.sol\":1185:1208  owner() == _msgSender() */\n      eq\n        /* \"@openzeppelin/contracts/access/Ownable.sol\":1177:1245  require(owner() == _msgSender(), \"Ownable: caller is not the owner\") */\n      tag_130\n      jumpi\n      mload(0x40)\n      shl(0xe5, 0x461bcd)\n      dup2\n      mstore\n      0x04\n      add\n      tag_95\n      swap1\n      tag_96\n      jump\t// in\n    tag_130:\n        /* \"contracts/Vesting.sol\":4166:4169  100 */\n      0x64\n        /* \"contracts/Vesting.sol\":4146:4155  addresses */\n      dup3\n        /* \"contracts/Vesting.sol\":4146:4162  addresses.length */\n      mload\n        /* \"contracts/Vesting.sol\":4146:4169  addresses.length <= 100 */\n      gt\n      iszero\n        /* \"contracts/Vesting.sol\":4138:4246  require(addresses.length <= 100, \"ABOAT::whitelist: You can't add more than 100 addresses at the same time\") */\n      tag_133\n      jumpi\n      mload(0x40)\n      shl(0xe5, 0x461bcd)\n      dup2\n      mstore\n        /* \"#utility.yul\":6108:6110   */\n      0x20\n        /* \"contracts/Vesting.sol\":4138:4246  require(addresses.length <= 100, \"ABOAT::whitelist: You can't add more than 100 addresses at the same time\") */\n      0x04\n      dup3\n      add\n        /* \"#utility.yul\":6090:6111   */\n      mstore\n        /* \"#utility.yul\":6147:6149   */\n      0x48\n        /* \"#utility.yul\":6127:6145   */\n      0x24\n      dup3\n      add\n        /* \"#utility.yul\":6120:6150   */\n      mstore\n        /* \"#utility.yul\":6186:6220   */\n      0x41424f41543a3a77686974656c6973743a20596f752063616e27742061646420\n        /* \"#utility.yul\":6166:6184   */\n      0x44\n      dup3\n      add\n        /* \"#utility.yul\":6159:6221   */\n      mstore\n        /* \"#utility.yul\":6257:6291   */\n      0x6d6f7265207468616e2031303020616464726573736573206174207468652073\n        /* \"#utility.yul\":6237:6255   */\n      0x64\n      dup3\n      add\n        /* \"#utility.yul\":6230:6292   */\n      mstore\n      shl(0xc0, 0x616d652074696d65)\n        /* \"#utility.yul\":6308:6327   */\n      0x84\n      dup3\n      add\n        /* \"#utility.yul\":6301:6340   */\n      mstore\n        /* \"#utility.yul\":6357:6376   */\n      0xa4\n      add\n        /* \"contracts/Vesting.sol\":4138:4246  require(addresses.length <= 100, \"ABOAT::whitelist: You can't add more than 100 addresses at the same time\") */\n      tag_95\n        /* \"#utility.yul\":5906:6382   */\n      jump\n        /* \"contracts/Vesting.sol\":4138:4246  require(addresses.length <= 100, \"ABOAT::whitelist: You can't add more than 100 addresses at the same time\") */\n    tag_133:\n        /* \"contracts/Vesting.sol\":4260:4270  uint index */\n      0x00\n        /* \"contracts/Vesting.sol\":4256:4478  for(uint index = 0; index < addresses.length; index++) {... */\n    tag_136:\n        /* \"contracts/Vesting.sol\":4284:4293  addresses */\n      dup3\n        /* \"contracts/Vesting.sol\":4284:4300  addresses.length */\n      mload\n        /* \"contracts/Vesting.sol\":4276:4281  index */\n      dup2\n        /* \"contracts/Vesting.sol\":4276:4300  index < addresses.length */\n      lt\n        /* \"contracts/Vesting.sol\":4256:4478  for(uint index = 0; index < addresses.length; index++) {... */\n      iszero\n      tag_137\n      jumpi\n        /* \"contracts/Vesting.sol\":4352:4396  bought[addresses[index]].add(amounts[index]) */\n      tag_139\n        /* \"contracts/Vesting.sol\":4381:4388  amounts */\n      dup3\n        /* \"contracts/Vesting.sol\":4389:4394  index */\n      dup3\n        /* \"contracts/Vesting.sol\":4381:4395  amounts[index] */\n      dup2\n      mload\n      dup2\n      lt\n      tag_141\n      jumpi\n      tag_141\n      tag_142\n      jump\t// in\n    tag_141:\n      0x20\n      mul\n      0x20\n      add\n      add\n      mload\n        /* \"contracts/Vesting.sol\":4352:4358  bought */\n      0x04\n        /* \"contracts/Vesting.sol\":4352:4376  bought[addresses[index]] */\n      0x00\n        /* \"contracts/Vesting.sol\":4359:4368  addresses */\n      dup7\n        /* \"contracts/Vesting.sol\":4369:4374  index */\n      dup6\n        /* \"contracts/Vesting.sol\":4359:4375  addresses[index] */\n      dup2\n      mload\n      dup2\n      lt\n      tag_144\n      jumpi\n      tag_144\n      tag_142\n      jump\t// in\n    tag_144:\n      0x20\n      mul\n      0x20\n      add\n      add\n      mload\n      sub(shl(0xa0, 0x01), 0x01)\n        /* \"contracts/Vesting.sol\":4352:4376  bought[addresses[index]] */\n      and\n      sub(shl(0xa0, 0x01), 0x01)\n      and\n      dup2\n      mstore\n      0x20\n      add\n      swap1\n      dup2\n      mstore\n      0x20\n      add\n      0x00\n      keccak256\n      sload\n        /* \"contracts/Vesting.sol\":4352:4380  bought[addresses[index]].add */\n      tag_120\n      swap1\n        /* \"contracts/Vesting.sol\":4352:4396  bought[addresses[index]].add(amounts[index]) */\n      swap2\n      swap1\n      0xffffffff\n      and\n      jump\t// in\n    tag_139:\n        /* \"contracts/Vesting.sol\":4325:4331  bought */\n      0x04\n        /* \"contracts/Vesting.sol\":4325:4349  bought[addresses[index]] */\n      0x00\n        /* \"contracts/Vesting.sol\":4332:4341  addresses */\n      dup6\n        /* \"contracts/Vesting.sol\":4342:4347  index */\n      dup5\n        /* \"contracts/Vesting.sol\":4332:4348  addresses[index] */\n      dup2\n      mload\n      dup2\n      lt\n      tag_146\n      jumpi\n      tag_146\n      tag_142\n      jump\t// in\n    tag_146:\n      0x20\n      mul\n      0x20\n      add\n      add\n      mload\n      sub(shl(0xa0, 0x01), 0x01)\n        /* \"contracts/Vesting.sol\":4325:4349  bought[addresses[index]] */\n      and\n      sub(shl(0xa0, 0x01), 0x01)\n      and\n      dup2\n      mstore\n      0x20\n      add\n      swap1\n      dup2\n      mstore\n      0x20\n      add\n      0x00\n      keccak256\n        /* \"contracts/Vesting.sol\":4325:4396  bought[addresses[index]] = bought[addresses[index]].add(amounts[index]) */\n      dup2\n      swap1\n      sstore\n      pop\n        /* \"contracts/Vesting.sol\":4455:4466  rewardToken */\n      0x01\n      0x00\n      swap1\n      sload\n      swap1\n      0x0100\n      exp\n      swap1\n      div\n      sub(shl(0xa0, 0x01), 0x01)\n      and\n        /* \"contracts/Vesting.sol\":4410:4426  lastClaimAddress */\n      0x07\n        /* \"contracts/Vesting.sol\":4410:4444  lastClaimAddress[addresses[index]] */\n      0x00\n        /* \"contracts/Vesting.sol\":4427:4436  addresses */\n      dup6\n        /* \"contracts/Vesting.sol\":4437:4442  index */\n      dup5\n        /* \"contracts/Vesting.sol\":4427:4443  addresses[index] */\n      dup2\n      mload\n      dup2\n      lt\n      tag_148\n      jumpi\n      tag_148\n      tag_142\n      jump\t// in\n    tag_148:\n      0x20\n      mul\n      0x20\n      add\n      add\n      mload\n      sub(shl(0xa0, 0x01), 0x01)\n        /* \"contracts/Vesting.sol\":4410:4444  lastClaimAddress[addresses[index]] */\n      and\n      sub(shl(0xa0, 0x01), 0x01)\n      and\n      dup2\n      mstore\n      0x20\n      add\n      swap1\n      dup2\n      mstore\n      0x20\n      add\n      0x00\n      keccak256\n      0x00\n        /* \"contracts/Vesting.sol\":4410:4467  lastClaimAddress[addresses[index]] = address(rewardToken) */\n      0x0100\n      exp\n      dup2\n      sload\n      dup2\n      sub(shl(0xa0, 0x01), 0x01)\n      mul\n      not\n      and\n      swap1\n      dup4\n      sub(shl(0xa0, 0x01), 0x01)\n      and\n      mul\n      or\n      swap1\n      sstore\n      pop\n        /* \"contracts/Vesting.sol\":4302:4309  index++ */\n      dup1\n      dup1\n      tag_149\n      swap1\n      tag_150\n      jump\t// in\n    tag_149:\n      swap2\n      pop\n      pop\n        /* \"contracts/Vesting.sol\":4256:4478  for(uint index = 0; index < addresses.length; index++) {... */\n      jump(tag_136)\n    tag_137:\n      pop\n        /* \"contracts/Vesting.sol\":4517:4533  addresses.length */\n      dup2\n      mload\n        /* \"contracts/Vesting.sol\":4492:4534  AddedToWhitelistFromSaft(addresses.length) */\n      mload(0x40)\n      0x6074084f4dbd9879d266f074be61eb039a0db2aa46e98e700223ad5c2bef5bd5\n      swap1\n      0x00\n      swap1\n      log2\n        /* \"contracts/Vesting.sol\":4030:4541  function whitelistFromSAFT(address[] memory addresses, uint256[] memory amounts) public onlyOwner {... */\n      pop\n      pop\n      jump\t// out\n        /* \"@openzeppelin/contracts/access/Ownable.sol\":1605:1697  function renounceOwnership() public virtual onlyOwner {... */\n    tag_49:\n        /* \"@openzeppelin/contracts/access/Ownable.sol\":1019:1026  address */\n      0x00\n        /* \"@openzeppelin/contracts/access/Ownable.sol\":1045:1051  _owner */\n      sload\n      sub(shl(0xa0, 0x01), 0x01)\n      and\n        /* \"@openzeppelin/contracts/utils/Context.sol\":665:675  msg.sender */\n      caller\n        /* \"@openzeppelin/contracts/access/Ownable.sol\":1185:1208  owner() == _msgSender() */\n      eq\n        /* \"@openzeppelin/contracts/access/Ownable.sol\":1177:1245  require(owner() == _msgSender(), \"Ownable: caller is not the owner\") */\n      tag_154\n      jumpi\n      mload(0x40)\n      shl(0xe5, 0x461bcd)\n      dup2\n      mstore\n      0x04\n      add\n      tag_95\n      swap1\n      tag_96\n      jump\t// in\n    tag_154:\n        /* \"@openzeppelin/contracts/access/Ownable.sol\":1669:1690  _setOwner(address(0)) */\n      tag_157\n        /* \"@openzeppelin/contracts/access/Ownable.sol\":1687:1688  0 */\n      0x00\n        /* \"@openzeppelin/contracts/access/Ownable.sol\":1669:1678  _setOwner */\n      tag_158\n        /* \"@openzeppelin/contracts/access/Ownable.sol\":1669:1690  _setOwner(address(0)) */\n      jump\t// in\n    tag_157:\n        /* \"@openzeppelin/contracts/access/Ownable.sol\":1605:1697  function renounceOwnership() public virtual onlyOwner {... */\n      jump\t// out\n        /* \"contracts/Vesting.sol\":4870:5362  function getCurrentPercentage() public view returns (uint256) {... */\n    tag_59:\n        /* \"contracts/Vesting.sol\":4923:4930  uint256 */\n      0x00\n        /* \"contracts/Vesting.sol\":4942:4960  uint256 cliffEnded */\n      dup1\n        /* \"contracts/Vesting.sol\":4963:4989  claimOpen.add(cliffPeriod) */\n      tag_161\n        /* \"contracts/Vesting.sol\":1294:1296  10 */\n      0x0a\n        /* \"contracts/Vesting.sol\":4963:4972  claimOpen */\n      sload(0x02)\n        /* \"contracts/Vesting.sol\":4963:4976  claimOpen.add */\n      tag_120\n      swap1\n        /* \"contracts/Vesting.sol\":4963:4989  claimOpen.add(cliffPeriod) */\n      swap2\n      swap1\n      0xffffffff\n      and\n      jump\t// in\n    tag_161:\n        /* \"contracts/Vesting.sol\":4942:4989  uint256 cliffEnded = claimOpen.add(cliffPeriod) */\n      swap1\n      pop\n        /* \"contracts/Vesting.sol\":4999:5018  uint256 deltaPeriod */\n      0x00\n        /* \"contracts/Vesting.sol\":5021:5031  cliffEnded */\n      dup2\n        /* \"contracts/Vesting.sol\":4999:5031  uint256 deltaPeriod = cliffEnded */\n      swap1\n      pop\n        /* \"contracts/Vesting.sol\":5041:5059  uint256 percentage */\n      0x00\n        /* \"contracts/Vesting.sol\":5074:5075  0 */\n      dup1\n        /* \"contracts/Vesting.sol\":5062:5071  claimOpen */\n      sload(0x02)\n        /* \"contracts/Vesting.sol\":5062:5075  claimOpen > 0 */\n      gt\n        /* \"contracts/Vesting.sol\":5062:5108  claimOpen > 0 && block.timestamp > deltaPeriod */\n      dup1\n      iszero\n      tag_162\n      jumpi\n      pop\n        /* \"contracts/Vesting.sol\":5097:5108  deltaPeriod */\n      dup2\n        /* \"contracts/Vesting.sol\":5079:5094  block.timestamp */\n      timestamp\n        /* \"contracts/Vesting.sol\":5079:5108  block.timestamp > deltaPeriod */\n      gt\n        /* \"contracts/Vesting.sol\":5062:5108  claimOpen > 0 && block.timestamp > deltaPeriod */\n    tag_162:\n        /* \"contracts/Vesting.sol\":5062:5301  claimOpen > 0 && block.timestamp > deltaPeriod... */\n      tag_163\n      jumpi\n        /* \"contracts/Vesting.sol\":1046:1049  100 */\n      0x64\n        /* \"contracts/Vesting.sol\":5062:5301  claimOpen > 0 && block.timestamp > deltaPeriod... */\n      jump(tag_165)\n    tag_163:\n        /* \"contracts/Vesting.sol\":5119:5267  block.timestamp.sub(deltaPeriod)... */\n      tag_165\n        /* \"contracts/Vesting.sol\":1046:1049  100 */\n      0x64\n        /* \"contracts/Vesting.sol\":5119:5226  block.timestamp.sub(deltaPeriod)... */\n      tag_166\n        /* \"contracts/Vesting.sol\":1170:1172  50 */\n      0x32\n        /* \"contracts/Vesting.sol\":5119:5188  block.timestamp.sub(deltaPeriod)... */\n      tag_167\n        /* \"contracts/Vesting.sol\":5169:5187  period * 1 minutes */\n      tag_168\n        /* \"contracts/Vesting.sol\":950:951  2 */\n      0x02\n        /* \"contracts/Vesting.sol\":5178:5187  1 minutes */\n      0x3c\n        /* \"contracts/Vesting.sol\":5169:5187  period * 1 minutes */\n      tag_169\n      jump\t// in\n    tag_168:\n        /* \"contracts/Vesting.sol\":5119:5151  block.timestamp.sub(deltaPeriod) */\n      tag_114\n        /* \"contracts/Vesting.sol\":5119:5134  block.timestamp */\n      timestamp\n        /* \"contracts/Vesting.sol\":5139:5150  deltaPeriod */\n      dup10\n        /* \"contracts/Vesting.sol\":5119:5138  block.timestamp.sub */\n      tag_116\n        /* \"contracts/Vesting.sol\":5119:5151  block.timestamp.sub(deltaPeriod) */\n      jump\t// in\n        /* \"contracts/Vesting.sol\":5119:5188  block.timestamp.sub(deltaPeriod)... */\n    tag_167:\n        /* \"contracts/Vesting.sol\":5119:5205  block.timestamp.sub(deltaPeriod)... */\n      swap1\n      tag_117\n        /* \"contracts/Vesting.sol\":5119:5226  block.timestamp.sub(deltaPeriod)... */\n      jump\t// in\n    tag_166:\n        /* \"contracts/Vesting.sol\":5119:5243  block.timestamp.sub(deltaPeriod)... */\n      swap1\n      tag_120\n        /* \"contracts/Vesting.sol\":5119:5267  block.timestamp.sub(deltaPeriod)... */\n      jump\t// in\n    tag_165:\n        /* \"contracts/Vesting.sol\":5041:5301  uint256 percentage = claimOpen > 0 && block.timestamp > deltaPeriod... */\n      swap1\n      pop\n        /* \"contracts/Vesting.sol\":5331:5335  1000 */\n      0x03e8\n        /* \"contracts/Vesting.sol\":5318:5328  percentage */\n      dup2\n        /* \"contracts/Vesting.sol\":5318:5335  percentage > 1000 */\n      gt\n        /* \"contracts/Vesting.sol\":5318:5355  percentage > 1000 ? 1000 : percentage */\n      tag_171\n      jumpi\n        /* \"contracts/Vesting.sol\":5345:5355  percentage */\n      dup1\n        /* \"contracts/Vesting.sol\":5318:5355  percentage > 1000 ? 1000 : percentage */\n      jump(tag_172)\n    tag_171:\n        /* \"contracts/Vesting.sol\":5338:5342  1000 */\n      0x03e8\n        /* \"contracts/Vesting.sol\":5318:5355  percentage > 1000 ? 1000 : percentage */\n    tag_172:\n        /* \"contracts/Vesting.sol\":5311:5355  return percentage > 1000 ? 1000 : percentage */\n      swap4\n      pop\n      pop\n      pop\n      pop\n        /* \"contracts/Vesting.sol\":4870:5362  function getCurrentPercentage() public view returns (uint256) {... */\n      swap1\n      jump\t// out\n        /* \"@openzeppelin/contracts/access/Ownable.sol\":1846:2035  function transferOwnership(address newOwner) public virtual onlyOwner {... */\n    tag_77:\n        /* \"@openzeppelin/contracts/access/Ownable.sol\":1019:1026  address */\n      0x00\n        /* \"@openzeppelin/contracts/access/Ownable.sol\":1045:1051  _owner */\n      sload\n      sub(shl(0xa0, 0x01), 0x01)\n      and\n        /* \"@openzeppelin/contracts/utils/Context.sol\":665:675  msg.sender */\n      caller\n        /* \"@openzeppelin/contracts/access/Ownable.sol\":1185:1208  owner() == _msgSender() */\n      eq\n        /* \"@openzeppelin/contracts/access/Ownable.sol\":1177:1245  require(owner() == _msgSender(), \"Ownable: caller is not the owner\") */\n      tag_176\n      jumpi\n      mload(0x40)\n      shl(0xe5, 0x461bcd)\n      dup2\n      mstore\n      0x04\n      add\n      tag_95\n      swap1\n      tag_96\n      jump\t// in\n    tag_176:\n      sub(shl(0xa0, 0x01), 0x01)\n        /* \"@openzeppelin/contracts/access/Ownable.sol\":1934:1956  newOwner != address(0) */\n      dup2\n      and\n        /* \"@openzeppelin/contracts/access/Ownable.sol\":1926:1999  require(newOwner != address(0), \"Ownable: new owner is the zero address\") */\n      tag_179\n      jumpi\n      mload(0x40)\n      shl(0xe5, 0x461bcd)\n      dup2\n      mstore\n        /* \"#utility.yul\":4446:4448   */\n      0x20\n        /* \"@openzeppelin/contracts/access/Ownable.sol\":1926:1999  require(newOwner != address(0), \"Ownable: new owner is the zero address\") */\n      0x04\n      dup3\n      add\n        /* \"#utility.yul\":4428:4449   */\n      mstore\n        /* \"#utility.yul\":4485:4487   */\n      0x26\n        /* \"#utility.yul\":4465:4483   */\n      0x24\n      dup3\n      add\n        /* \"#utility.yul\":4458:4488   */\n      mstore\n        /* \"#utility.yul\":4524:4558   */\n      0x4f776e61626c653a206e6577206f776e657220697320746865207a65726f2061\n        /* \"#utility.yul\":4504:4522   */\n      0x44\n      dup3\n      add\n        /* \"#utility.yul\":4497:4559   */\n      mstore\n      shl(0xd0, 0x646472657373)\n        /* \"#utility.yul\":4575:4593   */\n      0x64\n      dup3\n      add\n        /* \"#utility.yul\":4568:4604   */\n      mstore\n        /* \"#utility.yul\":4621:4640   */\n      0x84\n      add\n        /* \"@openzeppelin/contracts/access/Ownable.sol\":1926:1999  require(newOwner != address(0), \"Ownable: new owner is the zero address\") */\n      tag_95\n        /* \"#utility.yul\":4244:4646   */\n      jump\n        /* \"@openzeppelin/contracts/access/Ownable.sol\":1926:1999  require(newOwner != address(0), \"Ownable: new owner is the zero address\") */\n    tag_179:\n        /* \"@openzeppelin/contracts/access/Ownable.sol\":2009:2028  _setOwner(newOwner) */\n      tag_182\n        /* \"@openzeppelin/contracts/access/Ownable.sol\":2019:2027  newOwner */\n      dup2\n        /* \"@openzeppelin/contracts/access/Ownable.sol\":2009:2018  _setOwner */\n      tag_158\n        /* \"@openzeppelin/contracts/access/Ownable.sol\":2009:2028  _setOwner(newOwner) */\n      jump\t// in\n    tag_182:\n        /* \"@openzeppelin/contracts/access/Ownable.sol\":1846:2035  function transferOwnership(address newOwner) public virtual onlyOwner {... */\n      pop\n      jump\t// out\n        /* \"contracts/Vesting.sol\":3506:4019  function updateRewardToken(IERC20 _newRewardToken) public onlyOwner {... */\n    tag_89:\n        /* \"@openzeppelin/contracts/access/Ownable.sol\":1019:1026  address */\n      0x00\n        /* \"@openzeppelin/contracts/access/Ownable.sol\":1045:1051  _owner */\n      sload\n      sub(shl(0xa0, 0x01), 0x01)\n      and\n        /* \"@openzeppelin/contracts/utils/Context.sol\":665:675  msg.sender */\n      caller\n        /* \"@openzeppelin/contracts/access/Ownable.sol\":1185:1208  owner() == _msgSender() */\n      eq\n        /* \"@openzeppelin/contracts/access/Ownable.sol\":1177:1245  require(owner() == _msgSender(), \"Ownable: caller is not the owner\") */\n      tag_186\n      jumpi\n      mload(0x40)\n      shl(0xe5, 0x461bcd)\n      dup2\n      mstore\n      0x04\n      add\n      tag_95\n      swap1\n      tag_96\n      jump\t// in\n    tag_186:\n        /* \"contracts/Vesting.sol\":3611:3622  rewardToken */\n      sload(0x01)\n      sub(shl(0xa0, 0x01), 0x01)\n        /* \"contracts/Vesting.sol\":3592:3622  _newRewardToken != rewardToken */\n      dup3\n      dup2\n      and\n        /* \"contracts/Vesting.sol\":3611:3622  rewardToken */\n      swap2\n      and\n        /* \"contracts/Vesting.sol\":3592:3622  _newRewardToken != rewardToken */\n      eq\n      iszero\n        /* \"contracts/Vesting.sol\":3584:3697  require(_newRewardToken != rewardToken, \"ABOAT::updateRewardToken: New reward should be different from current.\") */\n      tag_189\n      jumpi\n      mload(0x40)\n      shl(0xe5, 0x461bcd)\n      dup2\n      mstore\n        /* \"#utility.yul\":6589:6591   */\n      0x20\n        /* \"contracts/Vesting.sol\":3584:3697  require(_newRewardToken != rewardToken, \"ABOAT::updateRewardToken: New reward should be different from current.\") */\n      0x04\n      dup3\n      add\n        /* \"#utility.yul\":6571:6592   */\n      mstore\n        /* \"#utility.yul\":6628:6630   */\n      0x46\n        /* \"#utility.yul\":6608:6626   */\n      0x24\n      dup3\n      add\n        /* \"#utility.yul\":6601:6631   */\n      mstore\n        /* \"#utility.yul\":6667:6701   */\n      0x41424f41543a3a757064617465526577617264546f6b656e3a204e6577207265\n        /* \"#utility.yul\":6647:6665   */\n      0x44\n      dup3\n      add\n        /* \"#utility.yul\":6640:6702   */\n      mstore\n        /* \"#utility.yul\":6738:6772   */\n      0x776172642073686f756c6420626520646966666572656e742066726f6d206375\n        /* \"#utility.yul\":6718:6736   */\n      0x64\n      dup3\n      add\n        /* \"#utility.yul\":6711:6773   */\n      mstore\n      shl(0xd1, 0x393932b73a17)\n        /* \"#utility.yul\":6789:6808   */\n      0x84\n      dup3\n      add\n        /* \"#utility.yul\":6782:6819   */\n      mstore\n        /* \"#utility.yul\":6836:6855   */\n      0xa4\n      add\n        /* \"contracts/Vesting.sol\":3584:3697  require(_newRewardToken != rewardToken, \"ABOAT::updateRewardToken: New reward should be different from current.\") */\n      tag_95\n        /* \"#utility.yul\":6387:6861   */\n      jump\n        /* \"contracts/Vesting.sol\":3584:3697  require(_newRewardToken != rewardToken, \"ABOAT::updateRewardToken: New reward should be different from current.\") */\n    tag_189:\n        /* \"contracts/Vesting.sol\":3759:3770  rewardToken */\n      sload(0x01)\n        /* \"contracts/Vesting.sol\":3759:3795  rewardToken.balanceOf(address(this)) */\n      mload(0x40)\n      shl(0xe0, 0x70a08231)\n      dup2\n      mstore\n        /* \"contracts/Vesting.sol\":3789:3793  this */\n      address\n        /* \"contracts/Vesting.sol\":3759:3795  rewardToken.balanceOf(address(this)) */\n      0x04\n      dup3\n      add\n        /* \"#utility.yul\":3489:3540   */\n      mstore\n      sub(shl(0xa0, 0x01), 0x01)\n        /* \"contracts/Vesting.sol\":3759:3770  rewardToken */\n      swap1\n      swap2\n      and\n      swap1\n        /* \"contracts/Vesting.sol\":3759:3780  rewardToken.balanceOf */\n      0x70a08231\n      swap1\n        /* \"#utility.yul\":3462:3480   */\n      0x24\n      add\n        /* \"contracts/Vesting.sol\":3759:3795  rewardToken.balanceOf(address(this)) */\n      0x20\n      mload(0x40)\n      dup1\n      dup4\n      sub\n      dup2\n      dup7\n      dup1\n      extcodesize\n      iszero\n      dup1\n      iszero\n      tag_193\n      jumpi\n      0x00\n      dup1\n      revert\n    tag_193:\n      pop\n      gas\n      staticcall\n      iszero\n      dup1\n      iszero\n      tag_195\n      jumpi\n      returndatasize\n      0x00\n      dup1\n      returndatacopy\n      revert(0x00, returndatasize)\n    tag_195:\n      pop\n      pop\n      pop\n      pop\n      mload(0x40)\n      returndatasize\n      not(0x1f)\n      0x1f\n      dup3\n      add\n      and\n      dup3\n      add\n      dup1\n      0x40\n      mstore\n      pop\n      dup2\n      add\n      swap1\n      tag_196\n      swap2\n      swap1\n      tag_197\n      jump\t// in\n    tag_196:\n        /* \"contracts/Vesting.sol\":3715:3755  _newRewardToken.balanceOf(address(this)) */\n      mload(0x40)\n      shl(0xe0, 0x70a08231)\n      dup2\n      mstore\n        /* \"contracts/Vesting.sol\":3749:3753  this */\n      address\n        /* \"contracts/Vesting.sol\":3715:3755  _newRewardToken.balanceOf(address(this)) */\n      0x04\n      dup3\n      add\n        /* \"#utility.yul\":3489:3540   */\n      mstore\n      sub(shl(0xa0, 0x01), 0x01)\n        /* \"contracts/Vesting.sol\":3715:3740  _newRewardToken.balanceOf */\n      dup4\n      and\n      swap1\n      0x70a08231\n      swap1\n        /* \"#utility.yul\":3462:3480   */\n      0x24\n      add\n        /* \"contracts/Vesting.sol\":3715:3755  _newRewardToken.balanceOf(address(this)) */\n      0x20\n      mload(0x40)\n      dup1\n      dup4\n      sub\n      dup2\n      dup7\n      dup1\n      extcodesize\n      iszero\n      dup1\n      iszero\n      tag_199\n      jumpi\n      0x00\n      dup1\n      revert\n    tag_199:\n      pop\n      gas\n      staticcall\n      iszero\n      dup1\n      iszero\n      tag_201\n      jumpi\n      returndatasize\n      0x00\n      dup1\n      returndatacopy\n      revert(0x00, returndatasize)\n    tag_201:\n      pop\n      pop\n      pop\n      pop\n      mload(0x40)\n      returndatasize\n      not(0x1f)\n      0x1f\n      dup3\n      add\n      and\n      dup3\n      add\n      dup1\n      0x40\n      mstore\n      pop\n      dup2\n      add\n      swap1\n      tag_202\n      swap2\n      swap1\n      tag_197\n      jump\t// in\n    tag_202:\n        /* \"contracts/Vesting.sol\":3715:3795  _newRewardToken.balanceOf(address(this)) == rewardToken.balanceOf(address(this)) */\n      eq\n        /* \"contracts/Vesting.sol\":3707:3919  require(_newRewardToken.balanceOf(address(this)) == rewardToken.balanceOf(address(this)), \"ABOAT::updateRewardToken: The contract should contain atleast the same amount of tokens as from the current rewardToken\") */\n      tag_203\n      jumpi\n      mload(0x40)\n      shl(0xe5, 0x461bcd)\n      dup2\n      mstore\n        /* \"#utility.yul\":7922:7924   */\n      0x20\n        /* \"contracts/Vesting.sol\":3707:3919  require(_newRewardToken.balanceOf(address(this)) == rewardToken.balanceOf(address(this)), \"ABOAT::updateRewardToken: The contract should contain atleast the same amount of tokens as from the current rewardToken\") */\n      0x04\n      dup3\n      add\n        /* \"#utility.yul\":7904:7925   */\n      mstore\n        /* \"#utility.yul\":7961:7964   */\n      0x77\n        /* \"#utility.yul\":7941:7959   */\n      0x24\n      dup3\n      add\n        /* \"#utility.yul\":7934:7965   */\n      mstore\n        /* \"#utility.yul\":8001:8035   */\n      0x41424f41543a3a757064617465526577617264546f6b656e3a2054686520636f\n        /* \"#utility.yul\":7981:7999   */\n      0x44\n      dup3\n      add\n        /* \"#utility.yul\":7974:8036   */\n      mstore\n        /* \"#utility.yul\":8072:8106   */\n      0x6e74726163742073686f756c6420636f6e7461696e2061746c65617374207468\n        /* \"#utility.yul\":8052:8070   */\n      0x64\n      dup3\n      add\n        /* \"#utility.yul\":8045:8107   */\n      mstore\n        /* \"#utility.yul\":8144:8178   */\n      0x652073616d6520616d6f756e74206f6620746f6b656e732061732066726f6d20\n        /* \"#utility.yul\":8123:8142   */\n      0x84\n      dup3\n      add\n        /* \"#utility.yul\":8116:8179   */\n      mstore\n        /* \"#utility.yul\":8216:8241   */\n      0x7468652063757272656e7420726577617264546f6b656e000000000000000000\n        /* \"#utility.yul\":8195:8214   */\n      0xa4\n      dup3\n      add\n        /* \"#utility.yul\":8188:8242   */\n      mstore\n        /* \"#utility.yul\":8259:8278   */\n      0xc4\n      add\n        /* \"contracts/Vesting.sol\":3707:3919  require(_newRewardToken.balanceOf(address(this)) == rewardToken.balanceOf(address(this)), \"ABOAT::updateRewardToken: The contract should contain atleast the same amount of tokens as from the current rewardToken\") */\n      tag_95\n        /* \"#utility.yul\":7720:8284   */\n      jump\n        /* \"contracts/Vesting.sol\":3707:3919  require(_newRewardToken.balanceOf(address(this)) == rewardToken.balanceOf(address(this)), \"ABOAT::updateRewardToken: The contract should contain atleast the same amount of tokens as from the current rewardToken\") */\n    tag_203:\n        /* \"contracts/Vesting.sol\":3929:3940  rewardToken */\n      0x01\n        /* \"contracts/Vesting.sol\":3929:3958  rewardToken = _newRewardToken */\n      dup1\n      sload\n      not(sub(shl(0xa0, 0x01), 0x01))\n      and\n      sub(shl(0xa0, 0x01), 0x01)\n      dup4\n      and\n      swap1\n      dup2\n      or\n      swap1\n      swap2\n      sstore\n        /* \"contracts/Vesting.sol\":3973:4012  ChangeRewardToken(address(rewardToken)) */\n      mload(0x40)\n      0x3fcfc24a3384ca156092d9242cb0f84abaf442146d91b8c93bea526561b83f83\n      swap1\n      0x00\n      swap1\n      log2\n        /* \"contracts/Vesting.sol\":3506:4019  function updateRewardToken(IERC20 _newRewardToken) public onlyOwner {... */\n      pop\n      jump\t// out\n        /* \"@openzeppelin/contracts/utils/math/SafeMath.sol\":3039:3135  function sub(uint256 a, uint256 b) internal pure returns (uint256) {... */\n    tag_116:\n        /* \"@openzeppelin/contracts/utils/math/SafeMath.sol\":3097:3104  uint256 */\n      0x00\n        /* \"@openzeppelin/contracts/utils/math/SafeMath.sol\":3123:3128  a - b */\n      tag_208\n        /* \"@openzeppelin/contracts/utils/math/SafeMath.sol\":3127:3128  b */\n      dup3\n        /* \"@openzeppelin/contracts/utils/math/SafeMath.sol\":3123:3124  a */\n      dup5\n        /* \"@openzeppelin/contracts/utils/math/SafeMath.sol\":3123:3128  a - b */\n      tag_209\n      jump\t// in\n    tag_208:\n        /* \"@openzeppelin/contracts/utils/math/SafeMath.sol\":3116:3128  return a - b */\n      swap4\n        /* \"@openzeppelin/contracts/utils/math/SafeMath.sol\":3039:3135  function sub(uint256 a, uint256 b) internal pure returns (uint256) {... */\n      swap3\n      pop\n      pop\n      pop\n      jump\t// out\n        /* \"@openzeppelin/contracts/utils/math/SafeMath.sol\":3382:3478  function mul(uint256 a, uint256 b) internal pure returns (uint256) {... */\n    tag_117:\n        /* \"@openzeppelin/contracts/utils/math/SafeMath.sol\":3440:3447  uint256 */\n      0x00\n        /* \"@openzeppelin/contracts/utils/math/SafeMath.sol\":3466:3471  a * b */\n      tag_208\n        /* \"@openzeppelin/contracts/utils/math/SafeMath.sol\":3470:3471  b */\n      dup3\n        /* \"@openzeppelin/contracts/utils/math/SafeMath.sol\":3466:3467  a */\n      dup5\n        /* \"@openzeppelin/contracts/utils/math/SafeMath.sol\":3466:3471  a * b */\n      tag_169\n      jump\t// in\n        /* \"@openzeppelin/contracts/utils/math/SafeMath.sol\":3767:3863  function div(uint256 a, uint256 b) internal pure returns (uint256) {... */\n    tag_118:\n        /* \"@openzeppelin/contracts/utils/math/SafeMath.sol\":3825:3832  uint256 */\n      0x00\n        /* \"@openzeppelin/contracts/utils/math/SafeMath.sol\":3851:3856  a / b */\n      tag_208\n        /* \"@openzeppelin/contracts/utils/math/SafeMath.sol\":3855:3856  b */\n      dup3\n        /* \"@openzeppelin/contracts/utils/math/SafeMath.sol\":3851:3852  a */\n      dup5\n        /* \"@openzeppelin/contracts/utils/math/SafeMath.sol\":3851:3856  a / b */\n      tag_214\n      jump\t// in\n        /* \"@openzeppelin/contracts/utils/math/SafeMath.sol\":2672:2768  function add(uint256 a, uint256 b) internal pure returns (uint256) {... */\n    tag_120:\n        /* \"@openzeppelin/contracts/utils/math/SafeMath.sol\":2730:2737  uint256 */\n      0x00\n        /* \"@openzeppelin/contracts/utils/math/SafeMath.sol\":2756:2761  a + b */\n      tag_208\n        /* \"@openzeppelin/contracts/utils/math/SafeMath.sol\":2760:2761  b */\n      dup3\n        /* \"@openzeppelin/contracts/utils/math/SafeMath.sol\":2756:2757  a */\n      dup5\n        /* \"@openzeppelin/contracts/utils/math/SafeMath.sol\":2756:2761  a + b */\n      tag_217\n      jump\t// in\n        /* \"contracts/libraries/TransferHelper.sol\":210:594  function safeTransfer(... */\n    tag_123:\n        /* \"contracts/libraries/TransferHelper.sol\":382:427  abi.encodeWithSelector(0xa9059cbb, to, value) */\n      0x40\n      dup1\n      mload\n      sub(shl(0xa0, 0x01), 0x01)\n        /* \"#utility.yul\":3743:3775   */\n      dup5\n      dup2\n      and\n        /* \"contracts/libraries/TransferHelper.sol\":382:427  abi.encodeWithSelector(0xa9059cbb, to, value) */\n      0x24\n      dup4\n      add\n        /* \"#utility.yul\":3725:3776   */\n      mstore\n        /* \"#utility.yul\":3792:3810   */\n      0x44\n      dup1\n      dup4\n      add\n        /* \"#utility.yul\":3785:3819   */\n      dup6\n      swap1\n      mstore\n        /* \"contracts/libraries/TransferHelper.sol\":382:427  abi.encodeWithSelector(0xa9059cbb, to, value) */\n      dup4\n      mload\n      dup1\n      dup5\n      sub\n      swap1\n      swap2\n      add\n      dup2\n      mstore\n        /* \"#utility.yul\":3698:3716   */\n      0x64\n      swap1\n      swap3\n      add\n        /* \"contracts/libraries/TransferHelper.sol\":382:427  abi.encodeWithSelector(0xa9059cbb, to, value) */\n      dup4\n      mstore\n      0x20\n      dup3\n      add\n      dup1\n      mload\n      sub(shl(0xe0, 0x01), 0x01)\n      and\n      shl(0xe0, 0xa9059cbb)\n      or\n      swap1\n      mstore\n        /* \"contracts/libraries/TransferHelper.sol\":371:428  token.call(abi.encodeWithSelector(0xa9059cbb, to, value)) */\n      swap2\n      mload\n      0x00\n      swap3\n      dup4\n      swap3\n        /* \"contracts/libraries/TransferHelper.sol\":371:381  token.call */\n      swap1\n      dup8\n      and\n      swap2\n        /* \"contracts/libraries/TransferHelper.sol\":371:428  token.call(abi.encodeWithSelector(0xa9059cbb, to, value)) */\n      tag_221\n      swap2\n        /* \"contracts/libraries/TransferHelper.sol\":382:427  abi.encodeWithSelector(0xa9059cbb, to, value) */\n      swap1\n        /* \"contracts/libraries/TransferHelper.sol\":371:428  token.call(abi.encodeWithSelector(0xa9059cbb, to, value)) */\n      tag_222\n      jump\t// in\n    tag_221:\n      0x00\n      mload(0x40)\n      dup1\n      dup4\n      sub\n      dup2\n      0x00\n      dup7\n      gas\n      call\n      swap2\n      pop\n      pop\n      returndatasize\n      dup1\n      0x00\n      dup2\n      eq\n      tag_225\n      jumpi\n      mload(0x40)\n      swap2\n      pop\n      and(add(returndatasize, 0x3f), not(0x1f))\n      dup3\n      add\n      0x40\n      mstore\n      returndatasize\n      dup3\n      mstore\n      returndatasize\n      0x00\n      0x20\n      dup5\n      add\n      returndatacopy\n      jump(tag_224)\n    tag_225:\n      0x60\n      swap2\n      pop\n    tag_224:\n      pop\n        /* \"contracts/libraries/TransferHelper.sol\":323:428  (bool success, bytes memory data) =... */\n      swap2\n      pop\n      swap2\n      pop\n        /* \"contracts/libraries/TransferHelper.sol\":459:466  success */\n      dup2\n        /* \"contracts/libraries/TransferHelper.sol\":459:516  success && (data.length == 0 || abi.decode(data, (bool))) */\n      dup1\n      iszero\n      tag_228\n      jumpi\n      pop\n        /* \"contracts/libraries/TransferHelper.sol\":471:482  data.length */\n      dup1\n      mload\n        /* \"contracts/libraries/TransferHelper.sol\":471:487  data.length == 0 */\n      iszero\n      dup1\n        /* \"contracts/libraries/TransferHelper.sol\":471:515  data.length == 0 || abi.decode(data, (bool)) */\n      tag_228\n      jumpi\n      pop\n        /* \"contracts/libraries/TransferHelper.sol\":502:506  data */\n      dup1\n        /* \"contracts/libraries/TransferHelper.sol\":491:515  abi.decode(data, (bool)) */\n      dup1\n      0x20\n      add\n      swap1\n      mload\n      dup2\n      add\n      swap1\n      tag_228\n      swap2\n      swap1\n      tag_229\n      jump\t// in\n    tag_228:\n        /* \"contracts/libraries/TransferHelper.sol\":438:587  require(... */\n      tag_230\n      jumpi\n      mload(0x40)\n      shl(0xe5, 0x461bcd)\n      dup2\n      mstore\n        /* \"#utility.yul\":8852:8854   */\n      0x20\n        /* \"contracts/libraries/TransferHelper.sol\":438:587  require(... */\n      0x04\n      dup3\n      add\n        /* \"#utility.yul\":8834:8855   */\n      mstore\n        /* \"#utility.yul\":8891:8893   */\n      0x2d\n        /* \"#utility.yul\":8871:8889   */\n      0x24\n      dup3\n      add\n        /* \"#utility.yul\":8864:8894   */\n      mstore\n        /* \"#utility.yul\":8930:8964   */\n      0x5472616e7366657248656c7065723a3a736166655472616e736665723a207472\n        /* \"#utility.yul\":8910:8928   */\n      0x44\n      dup3\n      add\n        /* \"#utility.yul\":8903:8965   */\n      mstore\n      shl(0x9a, 0x185b9cd9995c8819985a5b1959)\n        /* \"#utility.yul\":8981:8999   */\n      0x64\n      dup3\n      add\n        /* \"#utility.yul\":8974:9017   */\n      mstore\n        /* \"#utility.yul\":9034:9053   */\n      0x84\n      add\n        /* \"contracts/libraries/TransferHelper.sol\":438:587  require(... */\n      tag_95\n        /* \"#utility.yul\":8650:9059   */\n      jump\n        /* \"contracts/libraries/TransferHelper.sol\":438:587  require(... */\n    tag_230:\n        /* \"contracts/libraries/TransferHelper.sol\":313:594  {... */\n      pop\n      pop\n        /* \"contracts/libraries/TransferHelper.sol\":210:594  function safeTransfer(... */\n      pop\n      pop\n      pop\n      jump\t// out\n        /* \"contracts/libraries/TransferHelper.sol\":1026:1274  function safeTransferETH(address to, uint256 value) internal {... */\n    tag_126:\n        /* \"contracts/libraries/TransferHelper.sol\":1138:1150  new bytes(0) */\n      0x40\n      dup1\n      mload\n        /* \"contracts/libraries/TransferHelper.sol\":1098:1110  bool success */\n      0x00\n        /* \"contracts/libraries/TransferHelper.sol\":1138:1150  new bytes(0) */\n      dup1\n      dup3\n      mstore\n      0x20\n      dup3\n      add\n      swap1\n      swap3\n      mstore\n      sub(shl(0xa0, 0x01), 0x01)\n        /* \"contracts/libraries/TransferHelper.sol\":1116:1123  to.call */\n      dup5\n      and\n      swap1\n        /* \"contracts/libraries/TransferHelper.sol\":1131:1136  value */\n      dup4\n      swap1\n        /* \"contracts/libraries/TransferHelper.sol\":1116:1151  to.call{value: value}(new bytes(0)) */\n      mload(0x40)\n      tag_238\n      swap2\n      swap1\n      tag_222\n      jump\t// in\n    tag_238:\n      0x00\n      mload(0x40)\n      dup1\n      dup4\n      sub\n      dup2\n      dup6\n      dup8\n      gas\n      call\n      swap3\n      pop\n      pop\n      pop\n      returndatasize\n      dup1\n      0x00\n      dup2\n      eq\n      tag_241\n      jumpi\n      mload(0x40)\n      swap2\n      pop\n      and(add(returndatasize, 0x3f), not(0x1f))\n      dup3\n      add\n      0x40\n      mstore\n      returndatasize\n      dup3\n      mstore\n      returndatasize\n      0x00\n      0x20\n      dup5\n      add\n      returndatacopy\n      jump(tag_240)\n    tag_241:\n      0x60\n      swap2\n      pop\n    tag_240:\n      pop\n        /* \"contracts/libraries/TransferHelper.sol\":1097:1151  (bool success, ) = to.call{value: value}(new bytes(0)) */\n      pop\n      swap1\n      pop\n        /* \"contracts/libraries/TransferHelper.sol\":1182:1189  success */\n      dup1\n        /* \"contracts/libraries/TransferHelper.sol\":1161:1267  require(... */\n      tag_242\n      jumpi\n      mload(0x40)\n      shl(0xe5, 0x461bcd)\n      dup2\n      mstore\n        /* \"#utility.yul\":5258:5260   */\n      0x20\n        /* \"contracts/libraries/TransferHelper.sol\":1161:1267  require(... */\n      0x04\n      dup3\n      add\n        /* \"#utility.yul\":5240:5261   */\n      mstore\n        /* \"#utility.yul\":5297:5299   */\n      0x34\n        /* \"#utility.yul\":5277:5295   */\n      0x24\n      dup3\n      add\n        /* \"#utility.yul\":5270:5300   */\n      mstore\n        /* \"#utility.yul\":5336:5370   */\n      0x5472616e7366657248656c7065723a3a736166655472616e736665724554483a\n        /* \"#utility.yul\":5316:5334   */\n      0x44\n      dup3\n      add\n        /* \"#utility.yul\":5309:5371   */\n      mstore\n      shl(0x62, 0x08115512081d1c985b9cd9995c8819985a5b1959)\n        /* \"#utility.yul\":5387:5405   */\n      0x64\n      dup3\n      add\n        /* \"#utility.yul\":5380:5430   */\n      mstore\n        /* \"#utility.yul\":5447:5466   */\n      0x84\n      add\n        /* \"contracts/libraries/TransferHelper.sol\":1161:1267  require(... */\n      tag_95\n        /* \"#utility.yul\":5056:5472   */\n      jump\n        /* \"contracts/libraries/TransferHelper.sol\":1161:1267  require(... */\n    tag_242:\n        /* \"contracts/libraries/TransferHelper.sol\":1087:1274  {... */\n      pop\n        /* \"contracts/libraries/TransferHelper.sol\":1026:1274  function safeTransferETH(address to, uint256 value) internal {... */\n      pop\n      pop\n      jump\t// out\n        /* \"@openzeppelin/contracts/access/Ownable.sol\":2041:2210  function _setOwner(address newOwner) private {... */\n    tag_158:\n        /* \"@openzeppelin/contracts/access/Ownable.sol\":2096:2112  address oldOwner */\n      0x00\n        /* \"@openzeppelin/contracts/access/Ownable.sol\":2115:2121  _owner */\n      dup1\n      sload\n      sub(shl(0xa0, 0x01), 0x01)\n        /* \"@openzeppelin/contracts/access/Ownable.sol\":2131:2148  _owner = newOwner */\n      dup4\n      dup2\n      and\n      not(sub(shl(0xa0, 0x01), 0x01))\n      dup4\n      and\n      dup2\n      or\n      dup5\n      sstore\n        /* \"@openzeppelin/contracts/access/Ownable.sol\":2163:2203  OwnershipTransferred(oldOwner, newOwner) */\n      mload(0x40)\n        /* \"@openzeppelin/contracts/access/Ownable.sol\":2115:2121  _owner */\n      swap2\n      swap1\n      swap3\n      and\n      swap3\n      dup4\n      swap2\n        /* \"@openzeppelin/contracts/access/Ownable.sol\":2163:2203  OwnershipTransferred(oldOwner, newOwner) */\n      0x8be0079c531659141344cd1fd0a4f28419497f9722a3daafe3b4186f6b6457e0\n      swap2\n        /* \"@openzeppelin/contracts/access/Ownable.sol\":2096:2112  address oldOwner */\n      swap1\n        /* \"@openzeppelin/contracts/access/Ownable.sol\":2163:2203  OwnershipTransferred(oldOwner, newOwner) */\n      log3\n        /* \"@openzeppelin/contracts/access/Ownable.sol\":2086:2210  {... */\n      pop\n        /* \"@openzeppelin/contracts/access/Ownable.sol\":2041:2210  function _setOwner(address newOwner) private {... */\n      pop\n      jump\t// out\n        /* \"#utility.yul\":14:687   */\n    tag_247:\n        /* \"#utility.yul\":68:73   */\n      0x00\n        /* \"#utility.yul\":121:124   */\n      dup3\n        /* \"#utility.yul\":114:118   */\n      0x1f\n        /* \"#utility.yul\":106:112   */\n      dup4\n        /* \"#utility.yul\":102:119   */\n      add\n        /* \"#utility.yul\":98:125   */\n      slt\n        /* \"#utility.yul\":88:143   */\n      tag_249\n      jumpi\n        /* \"#utility.yul\":139:140   */\n      0x00\n        /* \"#utility.yul\":136:137   */\n      dup1\n        /* \"#utility.yul\":129:141   */\n      revert\n        /* \"#utility.yul\":88:143   */\n    tag_249:\n        /* \"#utility.yul\":175:181   */\n      dup2\n        /* \"#utility.yul\":162:182   */\n      calldataload\n        /* \"#utility.yul\":201:205   */\n      0x20\n        /* \"#utility.yul\":225:285   */\n      tag_250\n        /* \"#utility.yul\":241:284   */\n      tag_251\n        /* \"#utility.yul\":281:283   */\n      dup4\n        /* \"#utility.yul\":241:284   */\n      tag_252\n      jump\t// in\n    tag_251:\n        /* \"#utility.yul\":225:285   */\n      tag_253\n      jump\t// in\n    tag_250:\n        /* \"#utility.yul\":307:310   */\n      dup1\n        /* \"#utility.yul\":331:333   */\n      dup4\n        /* \"#utility.yul\":326:329   */\n      dup3\n        /* \"#utility.yul\":319:334   */\n      mstore\n        /* \"#utility.yul\":359:361   */\n      dup3\n        /* \"#utility.yul\":354:357   */\n      dup3\n        /* \"#utility.yul\":350:362   */\n      add\n        /* \"#utility.yul\":343:362   */\n      swap2\n      pop\n        /* \"#utility.yul\":394:396   */\n      dup3\n        /* \"#utility.yul\":386:392   */\n      dup7\n        /* \"#utility.yul\":382:397   */\n      add\n        /* \"#utility.yul\":446:449   */\n      dup8\n        /* \"#utility.yul\":441:443   */\n      dup5\n        /* \"#utility.yul\":435:437   */\n      dup7\n        /* \"#utility.yul\":432:433   */\n      0x05\n        /* \"#utility.yul\":428:438   */\n      shl\n        /* \"#utility.yul\":420:426   */\n      dup10\n        /* \"#utility.yul\":416:439   */\n      add\n        /* \"#utility.yul\":412:444   */\n      add\n        /* \"#utility.yul\":409:450   */\n      gt\n        /* \"#utility.yul\":406:467   */\n      iszero\n      tag_254\n      jumpi\n        /* \"#utility.yul\":463:464   */\n      0x00\n        /* \"#utility.yul\":460:461   */\n      dup1\n        /* \"#utility.yul\":453:465   */\n      revert\n        /* \"#utility.yul\":406:467   */\n    tag_254:\n        /* \"#utility.yul\":485:486   */\n      0x00\n        /* \"#utility.yul\":495:658   */\n    tag_255:\n        /* \"#utility.yul\":509:511   */\n      dup6\n        /* \"#utility.yul\":506:507   */\n      dup2\n        /* \"#utility.yul\":503:512   */\n      lt\n        /* \"#utility.yul\":495:658   */\n      iszero\n      tag_257\n      jumpi\n        /* \"#utility.yul\":566:583   */\n      dup2\n      calldataload\n        /* \"#utility.yul\":554:584   */\n      dup5\n      mstore\n        /* \"#utility.yul\":604:616   */\n      swap3\n      dup5\n      add\n      swap3\n        /* \"#utility.yul\":636:648   */\n      swap1\n      dup5\n      add\n      swap1\n        /* \"#utility.yul\":527:528   */\n      0x01\n        /* \"#utility.yul\":520:529   */\n      add\n        /* \"#utility.yul\":495:658   */\n      jump(tag_255)\n    tag_257:\n      pop\n        /* \"#utility.yul\":676:681   */\n      swap1\n      swap8\n        /* \"#utility.yul\":14:687   */\n      swap7\n      pop\n      pop\n      pop\n      pop\n      pop\n      pop\n      pop\n      jump\t// out\n        /* \"#utility.yul\":692:939   */\n    tag_45:\n        /* \"#utility.yul\":751:757   */\n      0x00\n        /* \"#utility.yul\":804:806   */\n      0x20\n        /* \"#utility.yul\":792:801   */\n      dup3\n        /* \"#utility.yul\":783:790   */\n      dup5\n        /* \"#utility.yul\":779:802   */\n      sub\n        /* \"#utility.yul\":775:807   */\n      slt\n        /* \"#utility.yul\":772:824   */\n      iszero\n      tag_259\n      jumpi\n        /* \"#utility.yul\":820:821   */\n      0x00\n        /* \"#utility.yul\":817:818   */\n      dup1\n        /* \"#utility.yul\":810:822   */\n      revert\n        /* \"#utility.yul\":772:824   */\n    tag_259:\n        /* \"#utility.yul\":859:868   */\n      dup2\n        /* \"#utility.yul\":846:869   */\n      calldataload\n        /* \"#utility.yul\":878:909   */\n      tag_208\n        /* \"#utility.yul\":903:908   */\n      dup2\n        /* \"#utility.yul\":878:909   */\n      tag_261\n      jump\t// in\n        /* \"#utility.yul\":944:2170   */\n    tag_41:\n        /* \"#utility.yul\":1062:1068   */\n      0x00\n        /* \"#utility.yul\":1070:1076   */\n      dup1\n        /* \"#utility.yul\":1123:1125   */\n      0x40\n        /* \"#utility.yul\":1111:1120   */\n      dup4\n        /* \"#utility.yul\":1102:1109   */\n      dup6\n        /* \"#utility.yul\":1098:1121   */\n      sub\n        /* \"#utility.yul\":1094:1126   */\n      slt\n        /* \"#utility.yul\":1091:1143   */\n      iszero\n      tag_263\n      jumpi\n        /* \"#utility.yul\":1139:1140   */\n      0x00\n        /* \"#utility.yul\":1136:1137   */\n      dup1\n        /* \"#utility.yul\":1129:1141   */\n      revert\n        /* \"#utility.yul\":1091:1143   */\n    tag_263:\n        /* \"#utility.yul\":1179:1188   */\n      dup3\n        /* \"#utility.yul\":1166:1189   */\n      calldataload\n        /* \"#utility.yul\":1208:1226   */\n      0xffffffffffffffff\n        /* \"#utility.yul\":1249:1251   */\n      dup1\n        /* \"#utility.yul\":1241:1247   */\n      dup3\n        /* \"#utility.yul\":1238:1252   */\n      gt\n        /* \"#utility.yul\":1235:1269   */\n      iszero\n      tag_264\n      jumpi\n        /* \"#utility.yul\":1265:1266   */\n      0x00\n        /* \"#utility.yul\":1262:1263   */\n      dup1\n        /* \"#utility.yul\":1255:1267   */\n      revert\n        /* \"#utility.yul\":1235:1269   */\n    tag_264:\n        /* \"#utility.yul\":1303:1309   */\n      dup2\n        /* \"#utility.yul\":1292:1301   */\n      dup6\n        /* \"#utility.yul\":1288:1310   */\n      add\n        /* \"#utility.yul\":1278:1310   */\n      swap2\n      pop\n        /* \"#utility.yul\":1348:1355   */\n      dup6\n        /* \"#utility.yul\":1341:1345   */\n      0x1f\n        /* \"#utility.yul\":1337:1339   */\n      dup4\n        /* \"#utility.yul\":1333:1346   */\n      add\n        /* \"#utility.yul\":1329:1356   */\n      slt\n        /* \"#utility.yul\":1319:1374   */\n      tag_265\n      jumpi\n        /* \"#utility.yul\":1370:1371   */\n      0x00\n        /* \"#utility.yul\":1367:1368   */\n      dup1\n        /* \"#utility.yul\":1360:1372   */\n      revert\n        /* \"#utility.yul\":1319:1374   */\n    tag_265:\n        /* \"#utility.yul\":1406:1408   */\n      dup2\n        /* \"#utility.yul\":1393:1409   */\n      calldataload\n        /* \"#utility.yul\":1428:1432   */\n      0x20\n        /* \"#utility.yul\":1452:1512   */\n      tag_266\n        /* \"#utility.yul\":1468:1511   */\n      tag_251\n        /* \"#utility.yul\":1508:1510   */\n      dup4\n        /* \"#utility.yul\":1468:1511   */\n      tag_252\n      jump\t// in\n        /* \"#utility.yul\":1452:1512   */\n    tag_266:\n        /* \"#utility.yul\":1534:1537   */\n      dup1\n        /* \"#utility.yul\":1558:1560   */\n      dup4\n        /* \"#utility.yul\":1553:1556   */\n      dup3\n        /* \"#utility.yul\":1546:1561   */\n      mstore\n        /* \"#utility.yul\":1586:1588   */\n      dup3\n        /* \"#utility.yul\":1581:1584   */\n      dup3\n        /* \"#utility.yul\":1577:1589   */\n      add\n        /* \"#utility.yul\":1570:1589   */\n      swap2\n      pop\n        /* \"#utility.yul\":1617:1619   */\n      dup3\n        /* \"#utility.yul\":1613:1615   */\n      dup7\n        /* \"#utility.yul\":1609:1620   */\n      add\n        /* \"#utility.yul\":1665:1672   */\n      dup11\n        /* \"#utility.yul\":1660:1662   */\n      dup5\n        /* \"#utility.yul\":1654:1656   */\n      dup7\n        /* \"#utility.yul\":1651:1652   */\n      0x05\n        /* \"#utility.yul\":1647:1657   */\n      shl\n        /* \"#utility.yul\":1643:1645   */\n      dup10\n        /* \"#utility.yul\":1639:1658   */\n      add\n        /* \"#utility.yul\":1635:1663   */\n      add\n        /* \"#utility.yul\":1632:1673   */\n      gt\n        /* \"#utility.yul\":1629:1690   */\n      iszero\n      tag_268\n      jumpi\n        /* \"#utility.yul\":1686:1687   */\n      0x00\n        /* \"#utility.yul\":1683:1684   */\n      dup1\n        /* \"#utility.yul\":1676:1688   */\n      revert\n        /* \"#utility.yul\":1629:1690   */\n    tag_268:\n        /* \"#utility.yul\":1708:1709   */\n      0x00\n        /* \"#utility.yul\":1699:1709   */\n      swap7\n      pop\n        /* \"#utility.yul\":1718:1956   */\n    tag_269:\n        /* \"#utility.yul\":1732:1734   */\n      dup5\n        /* \"#utility.yul\":1729:1730   */\n      dup8\n        /* \"#utility.yul\":1726:1735   */\n      lt\n        /* \"#utility.yul\":1718:1956   */\n      iszero\n      tag_271\n      jumpi\n        /* \"#utility.yul\":1803:1806   */\n      dup1\n        /* \"#utility.yul\":1790:1807   */\n      calldataload\n        /* \"#utility.yul\":1820:1851   */\n      tag_272\n        /* \"#utility.yul\":1845:1850   */\n      dup2\n        /* \"#utility.yul\":1820:1851   */\n      tag_261\n      jump\t// in\n    tag_272:\n        /* \"#utility.yul\":1864:1882   */\n      dup4\n      mstore\n        /* \"#utility.yul\":1750:1751   */\n      0x01\n        /* \"#utility.yul\":1743:1752   */\n      swap7\n      swap1\n      swap7\n      add\n      swap6\n        /* \"#utility.yul\":1902:1914   */\n      swap2\n      dup4\n      add\n      swap2\n        /* \"#utility.yul\":1934:1946   */\n      dup4\n      add\n        /* \"#utility.yul\":1718:1956   */\n      jump(tag_269)\n    tag_271:\n      pop\n        /* \"#utility.yul\":1975:1980   */\n      swap7\n      pop\n      pop\n        /* \"#utility.yul\":2018:2036   */\n      dup7\n      add\n        /* \"#utility.yul\":2005:2037   */\n      calldataload\n      swap3\n      pop\n      pop\n        /* \"#utility.yul\":2049:2065   */\n      dup1\n      dup3\n      gt\n        /* \"#utility.yul\":2046:2082   */\n      iszero\n      tag_273\n      jumpi\n        /* \"#utility.yul\":2078:2079   */\n      0x00\n        /* \"#utility.yul\":2075:2076   */\n      dup1\n        /* \"#utility.yul\":2068:2080   */\n      revert\n        /* \"#utility.yul\":2046:2082   */\n    tag_273:\n      pop\n        /* \"#utility.yul\":2101:2164   */\n      tag_274\n        /* \"#utility.yul\":2156:2163   */\n      dup6\n        /* \"#utility.yul\":2145:2153   */\n      dup3\n        /* \"#utility.yul\":2134:2143   */\n      dup7\n        /* \"#utility.yul\":2130:2154   */\n      add\n        /* \"#utility.yul\":2101:2164   */\n      tag_247\n      jump\t// in\n    tag_274:\n        /* \"#utility.yul\":2091:2164   */\n      swap2\n      pop\n      pop\n        /* \"#utility.yul\":944:2170   */\n      swap3\n      pop\n      swap3\n      swap1\n      pop\n      jump\t// out\n        /* \"#utility.yul\":2175:2452   */\n    tag_229:\n        /* \"#utility.yul\":2242:2248   */\n      0x00\n        /* \"#utility.yul\":2295:2297   */\n      0x20\n        /* \"#utility.yul\":2283:2292   */\n      dup3\n        /* \"#utility.yul\":2274:2281   */\n      dup5\n        /* \"#utility.yul\":2270:2293   */\n      sub\n        /* \"#utility.yul\":2266:2298   */\n      slt\n        /* \"#utility.yul\":2263:2315   */\n      iszero\n      tag_276\n      jumpi\n        /* \"#utility.yul\":2311:2312   */\n      0x00\n        /* \"#utility.yul\":2308:2309   */\n      dup1\n        /* \"#utility.yul\":2301:2313   */\n      revert\n        /* \"#utility.yul\":2263:2315   */\n    tag_276:\n        /* \"#utility.yul\":2343:2352   */\n      dup2\n        /* \"#utility.yul\":2337:2353   */\n      mload\n        /* \"#utility.yul\":2396:2401   */\n      dup1\n        /* \"#utility.yul\":2389:2402   */\n      iszero\n        /* \"#utility.yul\":2382:2403   */\n      iszero\n        /* \"#utility.yul\":2375:2380   */\n      dup2\n        /* \"#utility.yul\":2372:2404   */\n      eq\n        /* \"#utility.yul\":2362:2422   */\n      tag_208\n      jumpi\n        /* \"#utility.yul\":2418:2419   */\n      0x00\n        /* \"#utility.yul\":2415:2416   */\n      dup1\n        /* \"#utility.yul\":2408:2420   */\n      revert\n        /* \"#utility.yul\":2723:2907   */\n    tag_197:\n        /* \"#utility.yul\":2793:2799   */\n      0x00\n        /* \"#utility.yul\":2846:2848   */\n      0x20\n        /* \"#utility.yul\":2834:2843   */\n      dup3\n        /* \"#utility.yul\":2825:2832   */\n      dup5\n        /* \"#utility.yul\":2821:2844   */\n      sub\n        /* \"#utility.yul\":2817:2849   */\n      slt\n        /* \"#utility.yul\":2814:2866   */\n      iszero\n      tag_282\n      jumpi\n        /* \"#utility.yul\":2862:2863   */\n      0x00\n        /* \"#utility.yul\":2859:2860   */\n      dup1\n        /* \"#utility.yul\":2852:2864   */\n      revert\n        /* \"#utility.yul\":2814:2866   */\n    tag_282:\n      pop\n        /* \"#utility.yul\":2885:2901   */\n      mload\n      swap2\n        /* \"#utility.yul\":2723:2907   */\n      swap1\n      pop\n      jump\t// out\n        /* \"#utility.yul\":2912:3338   */\n    tag_222:\n        /* \"#utility.yul\":3041:3044   */\n      0x00\n        /* \"#utility.yul\":3079:3085   */\n      dup3\n        /* \"#utility.yul\":3073:3086   */\n      mload\n        /* \"#utility.yul\":3104:3105   */\n      0x00\n        /* \"#utility.yul\":3114:3243   */\n    tag_284:\n        /* \"#utility.yul\":3128:3134   */\n      dup2\n        /* \"#utility.yul\":3125:3126   */\n      dup2\n        /* \"#utility.yul\":3122:3135   */\n      lt\n        /* \"#utility.yul\":3114:3243   */\n      iszero\n      tag_286\n      jumpi\n        /* \"#utility.yul\":3226:3230   */\n      0x20\n        /* \"#utility.yul\":3210:3224   */\n      dup2\n      dup7\n      add\n        /* \"#utility.yul\":3206:3231   */\n      dup2\n      add\n        /* \"#utility.yul\":3200:3232   */\n      mload\n        /* \"#utility.yul\":3187:3198   */\n      dup6\n      dup4\n      add\n        /* \"#utility.yul\":3180:3233   */\n      mstore\n        /* \"#utility.yul\":3143:3155   */\n      add\n        /* \"#utility.yul\":3114:3243   */\n      jump(tag_284)\n    tag_286:\n        /* \"#utility.yul\":3261:3267   */\n      dup2\n        /* \"#utility.yul\":3258:3259   */\n      dup2\n        /* \"#utility.yul\":3255:3268   */\n      gt\n        /* \"#utility.yul\":3252:3300   */\n      iszero\n      tag_287\n      jumpi\n        /* \"#utility.yul\":3296:3297   */\n      0x00\n        /* \"#utility.yul\":3287:3293   */\n      dup3\n        /* \"#utility.yul\":3282:3285   */\n      dup6\n        /* \"#utility.yul\":3278:3294   */\n      add\n        /* \"#utility.yul\":3271:3298   */\n      mstore\n        /* \"#utility.yul\":3252:3300   */\n    tag_287:\n      pop\n        /* \"#utility.yul\":3316:3332   */\n      swap2\n      swap1\n      swap2\n      add\n      swap3\n        /* \"#utility.yul\":2912:3338   */\n      swap2\n      pop\n      pop\n      jump\t// out\n        /* \"#utility.yul\":8289:8645   */\n    tag_96:\n        /* \"#utility.yul\":8491:8493   */\n      0x20\n        /* \"#utility.yul\":8473:8494   */\n      dup1\n      dup3\n      mstore\n        /* \"#utility.yul\":8510:8528   */\n      dup2\n      dup2\n      add\n        /* \"#utility.yul\":8503:8533   */\n      mstore\n        /* \"#utility.yul\":8569:8603   */\n      0x4f776e61626c653a2063616c6c6572206973206e6f7420746865206f776e6572\n        /* \"#utility.yul\":8564:8566   */\n      0x40\n        /* \"#utility.yul\":8549:8567   */\n      dup3\n      add\n        /* \"#utility.yul\":8542:8604   */\n      mstore\n        /* \"#utility.yul\":8636:8638   */\n      0x60\n        /* \"#utility.yul\":8621:8639   */\n      add\n      swap1\n        /* \"#utility.yul\":8289:8645   */\n      jump\t// out\n        /* \"#utility.yul\":9246:9521   */\n    tag_253:\n        /* \"#utility.yul\":9317:9319   */\n      0x40\n        /* \"#utility.yul\":9311:9320   */\n      mload\n        /* \"#utility.yul\":9382:9384   */\n      0x1f\n        /* \"#utility.yul\":9363:9376   */\n      dup3\n      add\n      not(0x1f)\n        /* \"#utility.yul\":9359:9386   */\n      and\n        /* \"#utility.yul\":9347:9387   */\n      dup2\n      add\n        /* \"#utility.yul\":9417:9435   */\n      0xffffffffffffffff\n        /* \"#utility.yul\":9402:9436   */\n      dup2\n      gt\n        /* \"#utility.yul\":9438:9460   */\n      dup3\n      dup3\n      lt\n        /* \"#utility.yul\":9399:9461   */\n      or\n        /* \"#utility.yul\":9396:9484   */\n      iszero\n      tag_306\n      jumpi\n        /* \"#utility.yul\":9464:9482   */\n      tag_306\n      tag_236\n      jump\t// in\n    tag_306:\n        /* \"#utility.yul\":9500:9502   */\n      0x40\n        /* \"#utility.yul\":9493:9515   */\n      mstore\n        /* \"#utility.yul\":9246:9521   */\n      swap2\n      swap1\n      pop\n      jump\t// out\n        /* \"#utility.yul\":9526:9709   */\n    tag_252:\n        /* \"#utility.yul\":9586:9590   */\n      0x00\n        /* \"#utility.yul\":9619:9637   */\n      0xffffffffffffffff\n        /* \"#utility.yul\":9611:9617   */\n      dup3\n        /* \"#utility.yul\":9608:9638   */\n      gt\n        /* \"#utility.yul\":9605:9661   */\n      iszero\n      tag_309\n      jumpi\n        /* \"#utility.yul\":9641:9659   */\n      tag_309\n      tag_236\n      jump\t// in\n    tag_309:\n      pop\n        /* \"#utility.yul\":9686:9687   */\n      0x05\n        /* \"#utility.yul\":9682:9696   */\n      shl\n        /* \"#utility.yul\":9698:9702   */\n      0x20\n        /* \"#utility.yul\":9678:9703   */\n      add\n      swap1\n        /* \"#utility.yul\":9526:9709   */\n      jump\t// out\n        /* \"#utility.yul\":9714:9842   */\n    tag_217:\n        /* \"#utility.yul\":9754:9757   */\n      0x00\n        /* \"#utility.yul\":9785:9786   */\n      dup3\n        /* \"#utility.yul\":9781:9787   */\n      not\n        /* \"#utility.yul\":9778:9779   */\n      dup3\n        /* \"#utility.yul\":9775:9788   */\n      gt\n        /* \"#utility.yul\":9772:9811   */\n      iszero\n      tag_312\n      jumpi\n        /* \"#utility.yul\":9791:9809   */\n      tag_312\n      tag_313\n      jump\t// in\n    tag_312:\n      pop\n        /* \"#utility.yul\":9827:9836   */\n      add\n      swap1\n        /* \"#utility.yul\":9714:9842   */\n      jump\t// out\n        /* \"#utility.yul\":9847:10064   */\n    tag_214:\n        /* \"#utility.yul\":9887:9888   */\n      0x00\n        /* \"#utility.yul\":9913:9914   */\n      dup3\n        /* \"#utility.yul\":9903:10035   */\n      tag_315\n      jumpi\n        /* \"#utility.yul\":9957:9967   */\n      0x4e487b71\n        /* \"#utility.yul\":9952:9955   */\n      0xe0\n        /* \"#utility.yul\":9948:9968   */\n      shl\n        /* \"#utility.yul\":9945:9946   */\n      0x00\n        /* \"#utility.yul\":9938:9969   */\n      mstore\n        /* \"#utility.yul\":9992:9996   */\n      0x12\n        /* \"#utility.yul\":9989:9990   */\n      0x04\n        /* \"#utility.yul\":9982:9997   */\n      mstore\n        /* \"#utility.yul\":10020:10024   */\n      0x24\n        /* \"#utility.yul\":10017:10018   */\n      0x00\n        /* \"#utility.yul\":10010:10025   */\n      revert\n        /* \"#utility.yul\":9903:10035   */\n    tag_315:\n      pop\n        /* \"#utility.yul\":10049:10058   */\n      div\n      swap1\n        /* \"#utility.yul\":9847:10064   */\n      jump\t// out\n        /* \"#utility.yul\":10069:10237   */\n    tag_169:\n        /* \"#utility.yul\":10109:10116   */\n      0x00\n        /* \"#utility.yul\":10175:10176   */\n      dup2\n        /* \"#utility.yul\":10171:10172   */\n      0x00\n        /* \"#utility.yul\":10167:10173   */\n      not\n        /* \"#utility.yul\":10163:10177   */\n      div\n        /* \"#utility.yul\":10160:10161   */\n      dup4\n        /* \"#utility.yul\":10157:10178   */\n      gt\n        /* \"#utility.yul\":10152:10153   */\n      dup3\n        /* \"#utility.yul\":10145:10154   */\n      iszero\n        /* \"#utility.yul\":10138:10155   */\n      iszero\n        /* \"#utility.yul\":10134:10179   */\n      and\n        /* \"#utility.yul\":10131:10202   */\n      iszero\n      tag_318\n      jumpi\n        /* \"#utility.yul\":10182:10200   */\n      tag_318\n      tag_313\n      jump\t// in\n    tag_318:\n      pop\n        /* \"#utility.yul\":10222:10231   */\n      mul\n      swap1\n        /* \"#utility.yul\":10069:10237   */\n      jump\t// out\n        /* \"#utility.yul\":10242:10367   */\n    tag_209:\n        /* \"#utility.yul\":10282:10286   */\n      0x00\n        /* \"#utility.yul\":10310:10311   */\n      dup3\n        /* \"#utility.yul\":10307:10308   */\n      dup3\n        /* \"#utility.yul\":10304:10312   */\n      lt\n        /* \"#utility.yul\":10301:10335   */\n      iszero\n      tag_321\n      jumpi\n        /* \"#utility.yul\":10315:10333   */\n      tag_321\n      tag_313\n      jump\t// in\n    tag_321:\n      pop\n        /* \"#utility.yul\":10352:10361   */\n      sub\n      swap1\n        /* \"#utility.yul\":10242:10367   */\n      jump\t// out\n        /* \"#utility.yul\":10372:10507   */\n    tag_150:\n        /* \"#utility.yul\":10411:10414   */\n      0x00\n      not(0x00)\n        /* \"#utility.yul\":10432:10449   */\n      dup3\n      eq\n        /* \"#utility.yul\":10429:10472   */\n      iszero\n      tag_324\n      jumpi\n        /* \"#utility.yul\":10452:10470   */\n      tag_324\n      tag_313\n      jump\t// in\n    tag_324:\n      pop\n        /* \"#utility.yul\":10499:10500   */\n      0x01\n        /* \"#utility.yul\":10488:10501   */\n      add\n      swap1\n        /* \"#utility.yul\":10372:10507   */\n      jump\t// out\n        /* \"#utility.yul\":10512:10639   */\n    tag_313:\n        /* \"#utility.yul\":10573:10583   */\n      0x4e487b71\n        /* \"#utility.yul\":10568:10571   */\n      0xe0\n        /* \"#utility.yul\":10564:10584   */\n      shl\n        /* \"#utility.yul\":10561:10562   */\n      0x00\n        /* \"#utility.yul\":10554:10585   */\n      mstore\n        /* \"#utility.yul\":10604:10608   */\n      0x11\n        /* \"#utility.yul\":10601:10602   */\n      0x04\n        /* \"#utility.yul\":10594:10609   */\n      mstore\n        /* \"#utility.yul\":10628:10632   */\n      0x24\n        /* \"#utility.yul\":10625:10626   */\n      0x00\n        /* \"#utility.yul\":10618:10633   */\n      revert\n        /* \"#utility.yul\":10644:10771   */\n    tag_142:\n        /* \"#utility.yul\":10705:10715   */\n      0x4e487b71\n        /* \"#utility.yul\":10700:10703   */\n      0xe0\n        /* \"#utility.yul\":10696:10716   */\n      shl\n        /* \"#utility.yul\":10693:10694   */\n      0x00\n        /* \"#utility.yul\":10686:10717   */\n      mstore\n        /* \"#utility.yul\":10736:10740   */\n      0x32\n        /* \"#utility.yul\":10733:10734   */\n      0x04\n        /* \"#utility.yul\":10726:10741   */\n      mstore\n        /* \"#utility.yul\":10760:10764   */\n      0x24\n        /* \"#utility.yul\":10757:10758   */\n      0x00\n        /* \"#utility.yul\":10750:10765   */\n      revert\n        /* \"#utility.yul\":10776:10903   */\n    tag_236:\n        /* \"#utility.yul\":10837:10847   */\n      0x4e487b71\n        /* \"#utility.yul\":10832:10835   */\n      0xe0\n        /* \"#utility.yul\":10828:10848   */\n      shl\n        /* \"#utility.yul\":10825:10826   */\n      0x00\n        /* \"#utility.yul\":10818:10849   */\n      mstore\n        /* \"#utility.yul\":10868:10872   */\n      0x41\n        /* \"#utility.yul\":10865:10866   */\n      0x04\n        /* \"#utility.yul\":10858:10873   */\n      mstore\n        /* \"#utility.yul\":10892:10896   */\n      0x24\n        /* \"#utility.yul\":10889:10890   */\n      0x00\n        /* \"#utility.yul\":10882:10897   */\n      revert\n        /* \"#utility.yul\":10908:11039   */\n    tag_261:\n      sub(shl(0xa0, 0x01), 0x01)\n        /* \"#utility.yul\":10983:11014   */\n      dup2\n      and\n        /* \"#utility.yul\":10973:11015   */\n      dup2\n      eq\n        /* \"#utility.yul\":10963:11033   */\n      tag_182\n      jumpi\n        /* \"#utility.yul\":11029:11030   */\n      0x00\n        /* \"#utility.yul\":11026:11027   */\n      dup1\n        /* \"#utility.yul\":11019:11031   */\n      revert\n\n    auxdata: 0xa264697066735822122031f848aca0ac9fe7c09cde9c34850309b627fe2ae9facae1e608226a0a7950a664736f6c63430008070033\n}\n",
				"bytecode": {
					"linkReferences": {},
					"object": "608060405260006002556003805460ff1916600117905534801561002257600080fd5b50604051611359380380611359833981016040819052610041916100bf565b61004a3361006f565b600180546001600160a01b0319166001600160a01b03929092169190911790556100ef565b600080546001600160a01b038381166001600160a01b0319831681178455604051919092169283917f8be0079c531659141344cd1fd0a4f28419497f9722a3daafe3b4186f6b6457e09190a35050565b6000602082840312156100d157600080fd5b81516001600160a01b03811681146100e857600080fd5b9392505050565b61125b806100fe6000396000f3fe608060405234801561001057600080fd5b50600436106101215760003560e01c80638da5cb5b116100ad578063ef78d4fd11610071578063ef78d4fd14610231578063f2fde38b14610239578063f3739e051461024c578063f7c618c114610275578063f8cf31cb1461028857600080fd5b80638da5cb5b146101bc5780639c92431b146101e1578063a5ebf835146101e9578063a960c65f146101f1578063c884ef831461021157600080fd5b80634e71d92d116100f45780634e71d92d1461015c5780635372a58e14610164578063667022fd14610177578063715018a614610197578063856734c41461019f57600080fd5b8063151bad0a14610126578063293cdbf1146101415780632f6619461461014b5780634b8bcb5814610153575b600080fd5b61012e603281565b6040519081526020015b60405180910390f35b61014961029b565b005b61012e600a81565b61012e60025481565b61014961034f565b610149610172366004610f7a565b61061c565b61012e610185366004610f5d565b60046020526000908152604090205481565b610149610842565b6003546101ac9060ff1681565b6040519015158152602001610138565b6000546001600160a01b03165b6040516001600160a01b039091168152602001610138565b61012e610878565b61012e606481565b61012e6101ff366004610f5d565b60066020526000908152604090205481565b61012e61021f366004610f5d565b60056020526000908152604090205481565b61012e600281565b610149610247366004610f5d565b610901565b6101c961025a366004610f5d565b6007602052600090815260409020546001600160a01b031681565b6001546101c9906001600160a01b031681565b610149610296366004610f5d565b61099c565b6000546001600160a01b031633146102ce5760405162461bcd60e51b81526004016102c5906110b9565b60405180910390fd5b6002541561031e5760405162461bcd60e51b815260206004820152601760248201527f436c61696d20697320616c7265616479206f70656e656400000000000000000060448201526064016102c5565b4260028190556040517f7d425ef8bc8f854f0bddfa263a1a52ae42adbddd9c9c95ad3f21b1e2d311c4ca90600090a2565b6002546103aa5760405162461bcd60e51b8152602060048201526024808201527f41424f41543a3a636c61696d3a20436c61696d206973206e6f74206f70656e206044820152637965742160e01b60648201526084016102c5565b60006103b4610878565b9050600081116104525760405162461bcd60e51b815260206004820152605d60248201527f41424f41543a3a636c61696d3a205468652070657263656e74616765206f662060448201527f746f6b656e20796f752063616e20636c61696d2069732063757272656e746c7960648201527f207a65726f2e20506c656173652074727920616761696e206c61746572000000608482015260a4016102c5565b600154336000908152600760205260409020546001600160a01b039081169116146104bd5760015433600090815260076020908152604080832080546001600160a01b0319166001600160a01b03909516949094179093556005815282822082905560069052908120555b3360009081526005602052604090205481116105415760405162461bcd60e51b815260206004820152603c60248201527f41424f41543a3a636c61696d3a20416c726561647920636c61696d656420796f60448201527f75722063757272656e746c7920656c696769626c6520746f6b656e730000000060648201526084016102c5565b336000908152600560205260408120805490839055906105866103e861058061056a8686610c54565b3360009081526004602052604090205490610c67565b90610c73565b336000908152600660205260409020549091506105a39082610c7f565b336000908152600660205260409020556001546001600160a01b0316156105e0576001546105db906001600160a01b03163383610c8b565b6105ea565b6105ea3382610dbc565b604051819033907fd8138f8a3f377c5259ca548e70e4c2de94f129f5a11036a15b69513cba2b426a90600090a3505050565b6000546001600160a01b031633146106465760405162461bcd60e51b81526004016102c5906110b9565b6064825111156106cf5760405162461bcd60e51b815260206004820152604860248201527f41424f41543a3a77686974656c6973743a20596f752063616e2774206164642060448201527f6d6f7265207468616e2031303020616464726573736573206174207468652073606482015267616d652074696d6560c01b608482015260a4016102c5565b60005b8251811015610812576107458282815181106106f0576106f06111e4565b60200260200101516004600086858151811061070e5761070e6111e4565b60200260200101516001600160a01b03166001600160a01b0316815260200190815260200160002054610c7f90919063ffffffff16565b6004600085848151811061075b5761075b6111e4565b60200260200101516001600160a01b03166001600160a01b0316815260200190815260200160002081905550600160009054906101000a90046001600160a01b0316600760008584815181106107b3576107b36111e4565b60200260200101516001600160a01b03166001600160a01b0316815260200190815260200160002060006101000a8154816001600160a01b0302191690836001600160a01b03160217905550808061080a906111b3565b9150506106d2565b5081516040517f6074084f4dbd9879d266f074be61eb039a0db2aa46e98e700223ad5c2bef5bd590600090a25050565b6000546001600160a01b0316331461086c5760405162461bcd60e51b81526004016102c5906110b9565b6108766000610e9b565b565b600080610891600a600254610c7f90919063ffffffff16565b905060008190506000806002541180156108aa57508142115b6108b55760646108e4565b6108e460646108de60326108d86108ce6002603c61117d565b6105804289610c54565b90610c67565b90610c7f565b90506103e881116108f557806108f9565b6103e85b935050505090565b6000546001600160a01b0316331461092b5760405162461bcd60e51b81526004016102c5906110b9565b6001600160a01b0381166109905760405162461bcd60e51b815260206004820152602660248201527f4f776e61626c653a206e6577206f776e657220697320746865207a65726f206160448201526564647265737360d01b60648201526084016102c5565b61099981610e9b565b50565b6000546001600160a01b031633146109c65760405162461bcd60e51b81526004016102c5906110b9565b6001546001600160a01b0382811691161415610a595760405162461bcd60e51b815260206004820152604660248201527f41424f41543a3a757064617465526577617264546f6b656e3a204e657720726560448201527f776172642073686f756c6420626520646966666572656e742066726f6d206375606482015265393932b73a1760d11b608482015260a4016102c5565b6001546040516370a0823160e01b81523060048201526001600160a01b03909116906370a082319060240160206040518083038186803b158015610a9c57600080fd5b505afa158015610ab0573d6000803e3d6000fd5b505050506040513d601f19601f82011682018060405250810190610ad49190611065565b6040516370a0823160e01b81523060048201526001600160a01b038316906370a082319060240160206040518083038186803b158015610b1357600080fd5b505afa158015610b27573d6000803e3d6000fd5b505050506040513d601f19601f82011682018060405250810190610b4b9190611065565b14610c0a5760405162461bcd60e51b815260206004820152607760248201527f41424f41543a3a757064617465526577617264546f6b656e3a2054686520636f60448201527f6e74726163742073686f756c6420636f6e7461696e2061746c6561737420746860648201527f652073616d6520616d6f756e74206f6620746f6b656e732061732066726f6d2060848201527f7468652063757272656e7420726577617264546f6b656e00000000000000000060a482015260c4016102c5565b600180546001600160a01b0319166001600160a01b0383169081179091556040517f3fcfc24a3384ca156092d9242cb0f84abaf442146d91b8c93bea526561b83f8390600090a250565b6000610c60828461119c565b9392505050565b6000610c60828461117d565b6000610c60828461115b565b6000610c608284611143565b604080516001600160a01b038481166024830152604480830185905283518084039091018152606490920183526020820180516001600160e01b031663a9059cbb60e01b1790529151600092839290871691610ce7919061107e565b6000604051808303816000865af19150503d8060008114610d24576040519150601f19603f3d011682016040523d82523d6000602084013e610d29565b606091505b5091509150818015610d53575080511580610d53575080806020019051810190610d539190611043565b610db55760405162461bcd60e51b815260206004820152602d60248201527f5472616e7366657248656c7065723a3a736166655472616e736665723a20747260448201526c185b9cd9995c8819985a5b1959609a1b60648201526084016102c5565b5050505050565b604080516000808252602082019092526001600160a01b038416908390604051610de6919061107e565b60006040518083038185875af1925050503d8060008114610e23576040519150601f19603f3d011682016040523d82523d6000602084013e610e28565b606091505b5050905080610e965760405162461bcd60e51b815260206004820152603460248201527f5472616e7366657248656c7065723a3a736166655472616e736665724554483a60448201527308115512081d1c985b9cd9995c8819985a5b195960621b60648201526084016102c5565b505050565b600080546001600160a01b038381166001600160a01b0319831681178455604051919092169283917f8be0079c531659141344cd1fd0a4f28419497f9722a3daafe3b4186f6b6457e09190a35050565b600082601f830112610efc57600080fd5b81356020610f11610f0c8361111f565b6110ee565b80838252828201915082860187848660051b8901011115610f3157600080fd5b60005b85811015610f5057813584529284019290840190600101610f34565b5090979650505050505050565b600060208284031215610f6f57600080fd5b8135610c6081611210565b60008060408385031215610f8d57600080fd5b823567ffffffffffffffff80821115610fa557600080fd5b818501915085601f830112610fb957600080fd5b81356020610fc9610f0c8361111f565b8083825282820191508286018a848660051b8901011115610fe957600080fd5b600096505b8487101561101557803561100181611210565b835260019690960195918301918301610fee565b509650508601359250508082111561102c57600080fd5b5061103985828601610eeb565b9150509250929050565b60006020828403121561105557600080fd5b81518015158114610c6057600080fd5b60006020828403121561107757600080fd5b5051919050565b6000825160005b8181101561109f5760208186018101518583015201611085565b818111156110ae576000828501525b509190910192915050565b6020808252818101527f4f776e61626c653a2063616c6c6572206973206e6f7420746865206f776e6572604082015260600190565b604051601f8201601f1916810167ffffffffffffffff81118282101715611117576111176111fa565b604052919050565b600067ffffffffffffffff821115611139576111396111fa565b5060051b60200190565b60008219821115611156576111566111ce565b500190565b60008261117857634e487b7160e01b600052601260045260246000fd5b500490565b6000816000190483118215151615611197576111976111ce565b500290565b6000828210156111ae576111ae6111ce565b500390565b60006000198214156111c7576111c76111ce565b5060010190565b634e487b7160e01b600052601160045260246000fd5b634e487b7160e01b600052603260045260246000fd5b634e487b7160e01b600052604160045260246000fd5b6001600160a01b038116811461099957600080fdfea264697066735822122031f848aca0ac9fe7c09cde9c34850309b627fe2ae9facae1e608226a0a7950a664736f6c63430008070033",
					"opcodes": "PUSH1 0x80 PUSH1 0x40 MSTORE PUSH1 0x0 PUSH1 0x2 SSTORE PUSH1 0x3 DUP1 SLOAD PUSH1 0xFF NOT AND PUSH1 0x1 OR SWAP1 SSTORE CALLVALUE DUP1 ISZERO PUSH2 0x22 JUMPI PUSH1 0x0 DUP1 REVERT JUMPDEST POP PUSH1 0x40 MLOAD PUSH2 0x1359 CODESIZE SUB DUP1 PUSH2 0x1359 DUP4 CODECOPY DUP2 ADD PUSH1 0x40 DUP2 SWAP1 MSTORE PUSH2 0x41 SWAP2 PUSH2 0xBF JUMP JUMPDEST PUSH2 0x4A CALLER PUSH2 0x6F JUMP JUMPDEST PUSH1 0x1 DUP1 SLOAD PUSH1 0x1 PUSH1 0x1 PUSH1 0xA0 SHL SUB NOT AND PUSH1 0x1 PUSH1 0x1 PUSH1 0xA0 SHL SUB SWAP3 SWAP1 SWAP3 AND SWAP2 SWAP1 SWAP2 OR SWAP1 SSTORE PUSH2 0xEF JUMP JUMPDEST PUSH1 0x0 DUP1 SLOAD PUSH1 0x1 PUSH1 0x1 PUSH1 0xA0 SHL SUB DUP4 DUP2 AND PUSH1 0x1 PUSH1 0x1 PUSH1 0xA0 SHL SUB NOT DUP4 AND DUP2 OR DUP5 SSTORE PUSH1 0x40 MLOAD SWAP2 SWAP1 SWAP3 AND SWAP3 DUP4 SWAP2 PUSH32 0x8BE0079C531659141344CD1FD0A4F28419497F9722A3DAAFE3B4186F6B6457E0 SWAP2 SWAP1 LOG3 POP POP JUMP JUMPDEST PUSH1 0x0 PUSH1 0x20 DUP3 DUP5 SUB SLT ISZERO PUSH2 0xD1 JUMPI PUSH1 0x0 DUP1 REVERT JUMPDEST DUP2 MLOAD PUSH1 0x1 PUSH1 0x1 PUSH1 0xA0 SHL SUB DUP2 AND DUP2 EQ PUSH2 0xE8 JUMPI PUSH1 0x0 DUP1 REVERT JUMPDEST SWAP4 SWAP3 POP POP POP JUMP JUMPDEST PUSH2 0x125B DUP1 PUSH2 0xFE PUSH1 0x0 CODECOPY PUSH1 0x0 RETURN INVALID PUSH1 0x80 PUSH1 0x40 MSTORE CALLVALUE DUP1 ISZERO PUSH2 0x10 JUMPI PUSH1 0x0 DUP1 REVERT JUMPDEST POP PUSH1 0x4 CALLDATASIZE LT PUSH2 0x121 JUMPI PUSH1 0x0 CALLDATALOAD PUSH1 0xE0 SHR DUP1 PUSH4 0x8DA5CB5B GT PUSH2 0xAD JUMPI DUP1 PUSH4 0xEF78D4FD GT PUSH2 0x71 JUMPI DUP1 PUSH4 0xEF78D4FD EQ PUSH2 0x231 JUMPI DUP1 PUSH4 0xF2FDE38B EQ PUSH2 0x239 JUMPI DUP1 PUSH4 0xF3739E05 EQ PUSH2 0x24C JUMPI DUP1 PUSH4 0xF7C618C1 EQ PUSH2 0x275 JUMPI DUP1 PUSH4 0xF8CF31CB EQ PUSH2 0x288 JUMPI PUSH1 0x0 DUP1 REVERT JUMPDEST DUP1 PUSH4 0x8DA5CB5B EQ PUSH2 0x1BC JUMPI DUP1 PUSH4 0x9C92431B EQ PUSH2 0x1E1 JUMPI DUP1 PUSH4 0xA5EBF835 EQ PUSH2 0x1E9 JUMPI DUP1 PUSH4 0xA960C65F EQ PUSH2 0x1F1 JUMPI DUP1 PUSH4 0xC884EF83 EQ PUSH2 0x211 JUMPI PUSH1 0x0 DUP1 REVERT JUMPDEST DUP1 PUSH4 0x4E71D92D GT PUSH2 0xF4 JUMPI DUP1 PUSH4 0x4E71D92D EQ PUSH2 0x15C JUMPI DUP1 PUSH4 0x5372A58E EQ PUSH2 0x164 JUMPI DUP1 PUSH4 0x667022FD EQ PUSH2 0x177 JUMPI DUP1 PUSH4 0x715018A6 EQ PUSH2 0x197 JUMPI DUP1 PUSH4 0x856734C4 EQ PUSH2 0x19F JUMPI PUSH1 0x0 DUP1 REVERT JUMPDEST DUP1 PUSH4 0x151BAD0A EQ PUSH2 0x126 JUMPI DUP1 PUSH4 0x293CDBF1 EQ PUSH2 0x141 JUMPI DUP1 PUSH4 0x2F661946 EQ PUSH2 0x14B JUMPI DUP1 PUSH4 0x4B8BCB58 EQ PUSH2 0x153 JUMPI JUMPDEST PUSH1 0x0 DUP1 REVERT JUMPDEST PUSH2 0x12E PUSH1 0x32 DUP2 JUMP JUMPDEST PUSH1 0x40 MLOAD SWAP1 DUP2 MSTORE PUSH1 0x20 ADD JUMPDEST PUSH1 0x40 MLOAD DUP1 SWAP2 SUB SWAP1 RETURN JUMPDEST PUSH2 0x149 PUSH2 0x29B JUMP JUMPDEST STOP JUMPDEST PUSH2 0x12E PUSH1 0xA DUP2 JUMP JUMPDEST PUSH2 0x12E PUSH1 0x2 SLOAD DUP2 JUMP JUMPDEST PUSH2 0x149 PUSH2 0x34F JUMP JUMPDEST PUSH2 0x149 PUSH2 0x172 CALLDATASIZE PUSH1 0x4 PUSH2 0xF7A JUMP JUMPDEST PUSH2 0x61C JUMP JUMPDEST PUSH2 0x12E PUSH2 0x185 CALLDATASIZE PUSH1 0x4 PUSH2 0xF5D JUMP JUMPDEST PUSH1 0x4 PUSH1 0x20 MSTORE PUSH1 0x0 SWAP1 DUP2 MSTORE PUSH1 0x40 SWAP1 KECCAK256 SLOAD DUP2 JUMP JUMPDEST PUSH2 0x149 PUSH2 0x842 JUMP JUMPDEST PUSH1 0x3 SLOAD PUSH2 0x1AC SWAP1 PUSH1 0xFF AND DUP2 JUMP JUMPDEST PUSH1 0x40 MLOAD SWAP1 ISZERO ISZERO DUP2 MSTORE PUSH1 0x20 ADD PUSH2 0x138 JUMP JUMPDEST PUSH1 0x0 SLOAD PUSH1 0x1 PUSH1 0x1 PUSH1 0xA0 SHL SUB AND JUMPDEST PUSH1 0x40 MLOAD PUSH1 0x1 PUSH1 0x1 PUSH1 0xA0 SHL SUB SWAP1 SWAP2 AND DUP2 MSTORE PUSH1 0x20 ADD PUSH2 0x138 JUMP JUMPDEST PUSH2 0x12E PUSH2 0x878 JUMP JUMPDEST PUSH2 0x12E PUSH1 0x64 DUP2 JUMP JUMPDEST PUSH2 0x12E PUSH2 0x1FF CALLDATASIZE PUSH1 0x4 PUSH2 0xF5D JUMP JUMPDEST PUSH1 0x6 PUSH1 0x20 MSTORE PUSH1 0x0 SWAP1 DUP2 MSTORE PUSH1 0x40 SWAP1 KECCAK256 SLOAD DUP2 JUMP JUMPDEST PUSH2 0x12E PUSH2 0x21F CALLDATASIZE PUSH1 0x4 PUSH2 0xF5D JUMP JUMPDEST PUSH1 0x5 PUSH1 0x20 MSTORE PUSH1 0x0 SWAP1 DUP2 MSTORE PUSH1 0x40 SWAP1 KECCAK256 SLOAD DUP2 JUMP JUMPDEST PUSH2 0x12E PUSH1 0x2 DUP2 JUMP JUMPDEST PUSH2 0x149 PUSH2 0x247 CALLDATASIZE PUSH1 0x4 PUSH2 0xF5D JUMP JUMPDEST PUSH2 0x901 JUMP JUMPDEST PUSH2 0x1C9 PUSH2 0x25A CALLDATASIZE PUSH1 0x4 PUSH2 0xF5D JUMP JUMPDEST PUSH1 0x7 PUSH1 0x20 MSTORE PUSH1 0x0 SWAP1 DUP2 MSTORE PUSH1 0x40 SWAP1 KECCAK256 SLOAD PUSH1 0x1 PUSH1 0x1 PUSH1 0xA0 SHL SUB AND DUP2 JUMP JUMPDEST PUSH1 0x1 SLOAD PUSH2 0x1C9 SWAP1 PUSH1 0x1 PUSH1 0x1 PUSH1 0xA0 SHL SUB AND DUP2 JUMP JUMPDEST PUSH2 0x149 PUSH2 0x296 CALLDATASIZE PUSH1 0x4 PUSH2 0xF5D JUMP JUMPDEST PUSH2 0x99C JUMP JUMPDEST PUSH1 0x0 SLOAD PUSH1 0x1 PUSH1 0x1 PUSH1 0xA0 SHL SUB AND CALLER EQ PUSH2 0x2CE JUMPI PUSH1 0x40 MLOAD PUSH3 0x461BCD PUSH1 0xE5 SHL DUP2 MSTORE PUSH1 0x4 ADD PUSH2 0x2C5 SWAP1 PUSH2 0x10B9 JUMP JUMPDEST PUSH1 0x40 MLOAD DUP1 SWAP2 SUB SWAP1 REVERT JUMPDEST PUSH1 0x2 SLOAD ISZERO PUSH2 0x31E JUMPI PUSH1 0x40 MLOAD PUSH3 0x461BCD PUSH1 0xE5 SHL DUP2 MSTORE PUSH1 0x20 PUSH1 0x4 DUP3 ADD MSTORE PUSH1 0x17 PUSH1 0x24 DUP3 ADD MSTORE PUSH32 0x436C61696D20697320616C7265616479206F70656E6564000000000000000000 PUSH1 0x44 DUP3 ADD MSTORE PUSH1 0x64 ADD PUSH2 0x2C5 JUMP JUMPDEST TIMESTAMP PUSH1 0x2 DUP2 SWAP1 SSTORE PUSH1 0x40 MLOAD PUSH32 0x7D425EF8BC8F854F0BDDFA263A1A52AE42ADBDDD9C9C95AD3F21B1E2D311C4CA SWAP1 PUSH1 0x0 SWAP1 LOG2 JUMP JUMPDEST PUSH1 0x2 SLOAD PUSH2 0x3AA JUMPI PUSH1 0x40 MLOAD PUSH3 0x461BCD PUSH1 0xE5 SHL DUP2 MSTORE PUSH1 0x20 PUSH1 0x4 DUP3 ADD MSTORE PUSH1 0x24 DUP1 DUP3 ADD MSTORE PUSH32 0x41424F41543A3A636C61696D3A20436C61696D206973206E6F74206F70656E20 PUSH1 0x44 DUP3 ADD MSTORE PUSH4 0x79657421 PUSH1 0xE0 SHL PUSH1 0x64 DUP3 ADD MSTORE PUSH1 0x84 ADD PUSH2 0x2C5 JUMP JUMPDEST PUSH1 0x0 PUSH2 0x3B4 PUSH2 0x878 JUMP JUMPDEST SWAP1 POP PUSH1 0x0 DUP2 GT PUSH2 0x452 JUMPI PUSH1 0x40 MLOAD PUSH3 0x461BCD PUSH1 0xE5 SHL DUP2 MSTORE PUSH1 0x20 PUSH1 0x4 DUP3 ADD MSTORE PUSH1 0x5D PUSH1 0x24 DUP3 ADD MSTORE PUSH32 0x41424F41543A3A636C61696D3A205468652070657263656E74616765206F6620 PUSH1 0x44 DUP3 ADD MSTORE PUSH32 0x746F6B656E20796F752063616E20636C61696D2069732063757272656E746C79 PUSH1 0x64 DUP3 ADD MSTORE PUSH32 0x207A65726F2E20506C656173652074727920616761696E206C61746572000000 PUSH1 0x84 DUP3 ADD MSTORE PUSH1 0xA4 ADD PUSH2 0x2C5 JUMP JUMPDEST PUSH1 0x1 SLOAD CALLER PUSH1 0x0 SWAP1 DUP2 MSTORE PUSH1 0x7 PUSH1 0x20 MSTORE PUSH1 0x40 SWAP1 KECCAK256 SLOAD PUSH1 0x1 PUSH1 0x1 PUSH1 0xA0 SHL SUB SWAP1 DUP2 AND SWAP2 AND EQ PUSH2 0x4BD JUMPI PUSH1 0x1 SLOAD CALLER PUSH1 0x0 SWAP1 DUP2 MSTORE PUSH1 0x7 PUSH1 0x20 SWAP1 DUP2 MSTORE PUSH1 0x40 DUP1 DUP4 KECCAK256 DUP1 SLOAD PUSH1 0x1 PUSH1 0x1 PUSH1 0xA0 SHL SUB NOT AND PUSH1 0x1 PUSH1 0x1 PUSH1 0xA0 SHL SUB SWAP1 SWAP6 AND SWAP5 SWAP1 SWAP5 OR SWAP1 SWAP4 SSTORE PUSH1 0x5 DUP2 MSTORE DUP3 DUP3 KECCAK256 DUP3 SWAP1 SSTORE PUSH1 0x6 SWAP1 MSTORE SWAP1 DUP2 KECCAK256 SSTORE JUMPDEST CALLER PUSH1 0x0 SWAP1 DUP2 MSTORE PUSH1 0x5 PUSH1 0x20 MSTORE PUSH1 0x40 SWAP1 KECCAK256 SLOAD DUP2 GT PUSH2 0x541 JUMPI PUSH1 0x40 MLOAD PUSH3 0x461BCD PUSH1 0xE5 SHL DUP2 MSTORE PUSH1 0x20 PUSH1 0x4 DUP3 ADD MSTORE PUSH1 0x3C PUSH1 0x24 DUP3 ADD MSTORE PUSH32 0x41424F41543A3A636C61696D3A20416C726561647920636C61696D656420796F PUSH1 0x44 DUP3 ADD MSTORE PUSH32 0x75722063757272656E746C7920656C696769626C6520746F6B656E7300000000 PUSH1 0x64 DUP3 ADD MSTORE PUSH1 0x84 ADD PUSH2 0x2C5 JUMP JUMPDEST CALLER PUSH1 0x0 SWAP1 DUP2 MSTORE PUSH1 0x5 PUSH1 0x20 MSTORE PUSH1 0x40 DUP2 KECCAK256 DUP1 SLOAD SWAP1 DUP4 SWAP1 SSTORE SWAP1 PUSH2 0x586 PUSH2 0x3E8 PUSH2 0x580 PUSH2 0x56A DUP7 DUP7 PUSH2 0xC54 JUMP JUMPDEST CALLER PUSH1 0x0 SWAP1 DUP2 MSTORE PUSH1 0x4 PUSH1 0x20 MSTORE PUSH1 0x40 SWAP1 KECCAK256 SLOAD SWAP1 PUSH2 0xC67 JUMP JUMPDEST SWAP1 PUSH2 0xC73 JUMP JUMPDEST CALLER PUSH1 0x0 SWAP1 DUP2 MSTORE PUSH1 0x6 PUSH1 0x20 MSTORE PUSH1 0x40 SWAP1 KECCAK256 SLOAD SWAP1 SWAP2 POP PUSH2 0x5A3 SWAP1 DUP3 PUSH2 0xC7F JUMP JUMPDEST CALLER PUSH1 0x0 SWAP1 DUP2 MSTORE PUSH1 0x6 PUSH1 0x20 MSTORE PUSH1 0x40 SWAP1 KECCAK256 SSTORE PUSH1 0x1 SLOAD PUSH1 0x1 PUSH1 0x1 PUSH1 0xA0 SHL SUB AND ISZERO PUSH2 0x5E0 JUMPI PUSH1 0x1 SLOAD PUSH2 0x5DB SWAP1 PUSH1 0x1 PUSH1 0x1 PUSH1 0xA0 SHL SUB AND CALLER DUP4 PUSH2 0xC8B JUMP JUMPDEST PUSH2 0x5EA JUMP JUMPDEST PUSH2 0x5EA CALLER DUP3 PUSH2 0xDBC JUMP JUMPDEST PUSH1 0x40 MLOAD DUP2 SWAP1 CALLER SWAP1 PUSH32 0xD8138F8A3F377C5259CA548E70E4C2DE94F129F5A11036A15B69513CBA2B426A SWAP1 PUSH1 0x0 SWAP1 LOG3 POP POP POP JUMP JUMPDEST PUSH1 0x0 SLOAD PUSH1 0x1 PUSH1 0x1 PUSH1 0xA0 SHL SUB AND CALLER EQ PUSH2 0x646 JUMPI PUSH1 0x40 MLOAD PUSH3 0x461BCD PUSH1 0xE5 SHL DUP2 MSTORE PUSH1 0x4 ADD PUSH2 0x2C5 SWAP1 PUSH2 0x10B9 JUMP JUMPDEST PUSH1 0x64 DUP3 MLOAD GT ISZERO PUSH2 0x6CF JUMPI PUSH1 0x40 MLOAD PUSH3 0x461BCD PUSH1 0xE5 SHL DUP2 MSTORE PUSH1 0x20 PUSH1 0x4 DUP3 ADD MSTORE PUSH1 0x48 PUSH1 0x24 DUP3 ADD MSTORE PUSH32 0x41424F41543A3A77686974656C6973743A20596F752063616E27742061646420 PUSH1 0x44 DUP3 ADD MSTORE PUSH32 0x6D6F7265207468616E2031303020616464726573736573206174207468652073 PUSH1 0x64 DUP3 ADD MSTORE PUSH8 0x616D652074696D65 PUSH1 0xC0 SHL PUSH1 0x84 DUP3 ADD MSTORE PUSH1 0xA4 ADD PUSH2 0x2C5 JUMP JUMPDEST PUSH1 0x0 JUMPDEST DUP3 MLOAD DUP2 LT ISZERO PUSH2 0x812 JUMPI PUSH2 0x745 DUP3 DUP3 DUP2 MLOAD DUP2 LT PUSH2 0x6F0 JUMPI PUSH2 0x6F0 PUSH2 0x11E4 JUMP JUMPDEST PUSH1 0x20 MUL PUSH1 0x20 ADD ADD MLOAD PUSH1 0x4 PUSH1 0x0 DUP7 DUP6 DUP2 MLOAD DUP2 LT PUSH2 0x70E JUMPI PUSH2 0x70E PUSH2 0x11E4 JUMP JUMPDEST PUSH1 0x20 MUL PUSH1 0x20 ADD ADD MLOAD PUSH1 0x1 PUSH1 0x1 PUSH1 0xA0 SHL SUB AND PUSH1 0x1 PUSH1 0x1 PUSH1 0xA0 SHL SUB AND DUP2 MSTORE PUSH1 0x20 ADD SWAP1 DUP2 MSTORE PUSH1 0x20 ADD PUSH1 0x0 KECCAK256 SLOAD PUSH2 0xC7F SWAP1 SWAP2 SWAP1 PUSH4 0xFFFFFFFF AND JUMP JUMPDEST PUSH1 0x4 PUSH1 0x0 DUP6 DUP5 DUP2 MLOAD DUP2 LT PUSH2 0x75B JUMPI PUSH2 0x75B PUSH2 0x11E4 JUMP JUMPDEST PUSH1 0x20 MUL PUSH1 0x20 ADD ADD MLOAD PUSH1 0x1 PUSH1 0x1 PUSH1 0xA0 SHL SUB AND PUSH1 0x1 PUSH1 0x1 PUSH1 0xA0 SHL SUB AND DUP2 MSTORE PUSH1 0x20 ADD SWAP1 DUP2 MSTORE PUSH1 0x20 ADD PUSH1 0x0 KECCAK256 DUP2 SWAP1 SSTORE POP PUSH1 0x1 PUSH1 0x0 SWAP1 SLOAD SWAP1 PUSH2 0x100 EXP SWAP1 DIV PUSH1 0x1 PUSH1 0x1 PUSH1 0xA0 SHL SUB AND PUSH1 0x7 PUSH1 0x0 DUP6 DUP5 DUP2 MLOAD DUP2 LT PUSH2 0x7B3 JUMPI PUSH2 0x7B3 PUSH2 0x11E4 JUMP JUMPDEST PUSH1 0x20 MUL PUSH1 0x20 ADD ADD MLOAD PUSH1 0x1 PUSH1 0x1 PUSH1 0xA0 SHL SUB AND PUSH1 0x1 PUSH1 0x1 PUSH1 0xA0 SHL SUB AND DUP2 MSTORE PUSH1 0x20 ADD SWAP1 DUP2 MSTORE PUSH1 0x20 ADD PUSH1 0x0 KECCAK256 PUSH1 0x0 PUSH2 0x100 EXP DUP2 SLOAD DUP2 PUSH1 0x1 PUSH1 0x1 PUSH1 0xA0 SHL SUB MUL NOT AND SWAP1 DUP4 PUSH1 0x1 PUSH1 0x1 PUSH1 0xA0 SHL SUB AND MUL OR SWAP1 SSTORE POP DUP1 DUP1 PUSH2 0x80A SWAP1 PUSH2 0x11B3 JUMP JUMPDEST SWAP2 POP POP PUSH2 0x6D2 JUMP JUMPDEST POP DUP2 MLOAD PUSH1 0x40 MLOAD PUSH32 0x6074084F4DBD9879D266F074BE61EB039A0DB2AA46E98E700223AD5C2BEF5BD5 SWAP1 PUSH1 0x0 SWAP1 LOG2 POP POP JUMP JUMPDEST PUSH1 0x0 SLOAD PUSH1 0x1 PUSH1 0x1 PUSH1 0xA0 SHL SUB AND CALLER EQ PUSH2 0x86C JUMPI PUSH1 0x40 MLOAD PUSH3 0x461BCD PUSH1 0xE5 SHL DUP2 MSTORE PUSH1 0x4 ADD PUSH2 0x2C5 SWAP1 PUSH2 0x10B9 JUMP JUMPDEST PUSH2 0x876 PUSH1 0x0 PUSH2 0xE9B JUMP JUMPDEST JUMP JUMPDEST PUSH1 0x0 DUP1 PUSH2 0x891 PUSH1 0xA PUSH1 0x2 SLOAD PUSH2 0xC7F SWAP1 SWAP2 SWAP1 PUSH4 0xFFFFFFFF AND JUMP JUMPDEST SWAP1 POP PUSH1 0x0 DUP2 SWAP1 POP PUSH1 0x0 DUP1 PUSH1 0x2 SLOAD GT DUP1 ISZERO PUSH2 0x8AA JUMPI POP DUP2 TIMESTAMP GT JUMPDEST PUSH2 0x8B5 JUMPI PUSH1 0x64 PUSH2 0x8E4 JUMP JUMPDEST PUSH2 0x8E4 PUSH1 0x64 PUSH2 0x8DE PUSH1 0x32 PUSH2 0x8D8 PUSH2 0x8CE PUSH1 0x2 PUSH1 0x3C PUSH2 0x117D JUMP JUMPDEST PUSH2 0x580 TIMESTAMP DUP10 PUSH2 0xC54 JUMP JUMPDEST SWAP1 PUSH2 0xC67 JUMP JUMPDEST SWAP1 PUSH2 0xC7F JUMP JUMPDEST SWAP1 POP PUSH2 0x3E8 DUP2 GT PUSH2 0x8F5 JUMPI DUP1 PUSH2 0x8F9 JUMP JUMPDEST PUSH2 0x3E8 JUMPDEST SWAP4 POP POP POP POP SWAP1 JUMP JUMPDEST PUSH1 0x0 SLOAD PUSH1 0x1 PUSH1 0x1 PUSH1 0xA0 SHL SUB AND CALLER EQ PUSH2 0x92B JUMPI PUSH1 0x40 MLOAD PUSH3 0x461BCD PUSH1 0xE5 SHL DUP2 MSTORE PUSH1 0x4 ADD PUSH2 0x2C5 SWAP1 PUSH2 0x10B9 JUMP JUMPDEST PUSH1 0x1 PUSH1 0x1 PUSH1 0xA0 SHL SUB DUP2 AND PUSH2 0x990 JUMPI PUSH1 0x40 MLOAD PUSH3 0x461BCD PUSH1 0xE5 SHL DUP2 MSTORE PUSH1 0x20 PUSH1 0x4 DUP3 ADD MSTORE PUSH1 0x26 PUSH1 0x24 DUP3 ADD MSTORE PUSH32 0x4F776E61626C653A206E6577206F776E657220697320746865207A65726F2061 PUSH1 0x44 DUP3 ADD MSTORE PUSH6 0x646472657373 PUSH1 0xD0 SHL PUSH1 0x64 DUP3 ADD MSTORE PUSH1 0x84 ADD PUSH2 0x2C5 JUMP JUMPDEST PUSH2 0x999 DUP2 PUSH2 0xE9B JUMP JUMPDEST POP JUMP JUMPDEST PUSH1 0x0 SLOAD PUSH1 0x1 PUSH1 0x1 PUSH1 0xA0 SHL SUB AND CALLER EQ PUSH2 0x9C6 JUMPI PUSH1 0x40 MLOAD PUSH3 0x461BCD PUSH1 0xE5 SHL DUP2 MSTORE PUSH1 0x4 ADD PUSH2 0x2C5 SWAP1 PUSH2 0x10B9 JUMP JUMPDEST PUSH1 0x1 SLOAD PUSH1 0x1 PUSH1 0x1 PUSH1 0xA0 SHL SUB DUP3 DUP2 AND SWAP2 AND EQ ISZERO PUSH2 0xA59 JUMPI PUSH1 0x40 MLOAD PUSH3 0x461BCD PUSH1 0xE5 SHL DUP2 MSTORE PUSH1 0x20 PUSH1 0x4 DUP3 ADD MSTORE PUSH1 0x46 PUSH1 0x24 DUP3 ADD MSTORE PUSH32 0x41424F41543A3A757064617465526577617264546F6B656E3A204E6577207265 PUSH1 0x44 DUP3 ADD MSTORE PUSH32 0x776172642073686F756C6420626520646966666572656E742066726F6D206375 PUSH1 0x64 DUP3 ADD MSTORE PUSH6 0x393932B73A17 PUSH1 0xD1 SHL PUSH1 0x84 DUP3 ADD MSTORE PUSH1 0xA4 ADD PUSH2 0x2C5 JUMP JUMPDEST PUSH1 0x1 SLOAD PUSH1 0x40 MLOAD PUSH4 0x70A08231 PUSH1 0xE0 SHL DUP2 MSTORE ADDRESS PUSH1 0x4 DUP3 ADD MSTORE PUSH1 0x1 PUSH1 0x1 PUSH1 0xA0 SHL SUB SWAP1 SWAP2 AND SWAP1 PUSH4 0x70A08231 SWAP1 PUSH1 0x24 ADD PUSH1 0x20 PUSH1 0x40 MLOAD DUP1 DUP4 SUB DUP2 DUP7 DUP1 EXTCODESIZE ISZERO DUP1 ISZERO PUSH2 0xA9C JUMPI PUSH1 0x0 DUP1 REVERT JUMPDEST POP GAS STATICCALL ISZERO DUP1 ISZERO PUSH2 0xAB0 JUMPI RETURNDATASIZE PUSH1 0x0 DUP1 RETURNDATACOPY RETURNDATASIZE PUSH1 0x0 REVERT JUMPDEST POP POP POP POP PUSH1 0x40 MLOAD RETURNDATASIZE PUSH1 0x1F NOT PUSH1 0x1F DUP3 ADD AND DUP3 ADD DUP1 PUSH1 0x40 MSTORE POP DUP2 ADD SWAP1 PUSH2 0xAD4 SWAP2 SWAP1 PUSH2 0x1065 JUMP JUMPDEST PUSH1 0x40 MLOAD PUSH4 0x70A08231 PUSH1 0xE0 SHL DUP2 MSTORE ADDRESS PUSH1 0x4 DUP3 ADD MSTORE PUSH1 0x1 PUSH1 0x1 PUSH1 0xA0 SHL SUB DUP4 AND SWAP1 PUSH4 0x70A08231 SWAP1 PUSH1 0x24 ADD PUSH1 0x20 PUSH1 0x40 MLOAD DUP1 DUP4 SUB DUP2 DUP7 DUP1 EXTCODESIZE ISZERO DUP1 ISZERO PUSH2 0xB13 JUMPI PUSH1 0x0 DUP1 REVERT JUMPDEST POP GAS STATICCALL ISZERO DUP1 ISZERO PUSH2 0xB27 JUMPI RETURNDATASIZE PUSH1 0x0 DUP1 RETURNDATACOPY RETURNDATASIZE PUSH1 0x0 REVERT JUMPDEST POP POP POP POP PUSH1 0x40 MLOAD RETURNDATASIZE PUSH1 0x1F NOT PUSH1 0x1F DUP3 ADD AND DUP3 ADD DUP1 PUSH1 0x40 MSTORE POP DUP2 ADD SWAP1 PUSH2 0xB4B SWAP2 SWAP1 PUSH2 0x1065 JUMP JUMPDEST EQ PUSH2 0xC0A JUMPI PUSH1 0x40 MLOAD PUSH3 0x461BCD PUSH1 0xE5 SHL DUP2 MSTORE PUSH1 0x20 PUSH1 0x4 DUP3 ADD MSTORE PUSH1 0x77 PUSH1 0x24 DUP3 ADD MSTORE PUSH32 0x41424F41543A3A757064617465526577617264546F6B656E3A2054686520636F PUSH1 0x44 DUP3 ADD MSTORE PUSH32 0x6E74726163742073686F756C6420636F6E7461696E2061746C65617374207468 PUSH1 0x64 DUP3 ADD MSTORE PUSH32 0x652073616D6520616D6F756E74206F6620746F6B656E732061732066726F6D20 PUSH1 0x84 DUP3 ADD MSTORE PUSH32 0x7468652063757272656E7420726577617264546F6B656E000000000000000000 PUSH1 0xA4 DUP3 ADD MSTORE PUSH1 0xC4 ADD PUSH2 0x2C5 JUMP JUMPDEST PUSH1 0x1 DUP1 SLOAD PUSH1 0x1 PUSH1 0x1 PUSH1 0xA0 SHL SUB NOT AND PUSH1 0x1 PUSH1 0x1 PUSH1 0xA0 SHL SUB DUP4 AND SWAP1 DUP2 OR SWAP1 SWAP2 SSTORE PUSH1 0x40 MLOAD PUSH32 0x3FCFC24A3384CA156092D9242CB0F84ABAF442146D91B8C93BEA526561B83F83 SWAP1 PUSH1 0x0 SWAP1 LOG2 POP JUMP JUMPDEST PUSH1 0x0 PUSH2 0xC60 DUP3 DUP5 PUSH2 0x119C JUMP JUMPDEST SWAP4 SWAP3 POP POP POP JUMP JUMPDEST PUSH1 0x0 PUSH2 0xC60 DUP3 DUP5 PUSH2 0x117D JUMP JUMPDEST PUSH1 0x0 PUSH2 0xC60 DUP3 DUP5 PUSH2 0x115B JUMP JUMPDEST PUSH1 0x0 PUSH2 0xC60 DUP3 DUP5 PUSH2 0x1143 JUMP JUMPDEST PUSH1 0x40 DUP1 MLOAD PUSH1 0x1 PUSH1 0x1 PUSH1 0xA0 SHL SUB DUP5 DUP2 AND PUSH1 0x24 DUP4 ADD MSTORE PUSH1 0x44 DUP1 DUP4 ADD DUP6 SWAP1 MSTORE DUP4 MLOAD DUP1 DUP5 SUB SWAP1 SWAP2 ADD DUP2 MSTORE PUSH1 0x64 SWAP1 SWAP3 ADD DUP4 MSTORE PUSH1 0x20 DUP3 ADD DUP1 MLOAD PUSH1 0x1 PUSH1 0x1 PUSH1 0xE0 SHL SUB AND PUSH4 0xA9059CBB PUSH1 0xE0 SHL OR SWAP1 MSTORE SWAP2 MLOAD PUSH1 0x0 SWAP3 DUP4 SWAP3 SWAP1 DUP8 AND SWAP2 PUSH2 0xCE7 SWAP2 SWAP1 PUSH2 0x107E JUMP JUMPDEST PUSH1 0x0 PUSH1 0x40 MLOAD DUP1 DUP4 SUB DUP2 PUSH1 0x0 DUP7 GAS CALL SWAP2 POP POP RETURNDATASIZE DUP1 PUSH1 0x0 DUP2 EQ PUSH2 0xD24 JUMPI PUSH1 0x40 MLOAD SWAP2 POP PUSH1 0x1F NOT PUSH1 0x3F RETURNDATASIZE ADD AND DUP3 ADD PUSH1 0x40 MSTORE RETURNDATASIZE DUP3 MSTORE RETURNDATASIZE PUSH1 0x0 PUSH1 0x20 DUP5 ADD RETURNDATACOPY PUSH2 0xD29 JUMP JUMPDEST PUSH1 0x60 SWAP2 POP JUMPDEST POP SWAP2 POP SWAP2 POP DUP2 DUP1 ISZERO PUSH2 0xD53 JUMPI POP DUP1 MLOAD ISZERO DUP1 PUSH2 0xD53 JUMPI POP DUP1 DUP1 PUSH1 0x20 ADD SWAP1 MLOAD DUP2 ADD SWAP1 PUSH2 0xD53 SWAP2 SWAP1 PUSH2 0x1043 JUMP JUMPDEST PUSH2 0xDB5 JUMPI PUSH1 0x40 MLOAD PUSH3 0x461BCD PUSH1 0xE5 SHL DUP2 MSTORE PUSH1 0x20 PUSH1 0x4 DUP3 ADD MSTORE PUSH1 0x2D PUSH1 0x24 DUP3 ADD MSTORE PUSH32 0x5472616E7366657248656C7065723A3A736166655472616E736665723A207472 PUSH1 0x44 DUP3 ADD MSTORE PUSH13 0x185B9CD9995C8819985A5B1959 PUSH1 0x9A SHL PUSH1 0x64 DUP3 ADD MSTORE PUSH1 0x84 ADD PUSH2 0x2C5 JUMP JUMPDEST POP POP POP POP POP JUMP JUMPDEST PUSH1 0x40 DUP1 MLOAD PUSH1 0x0 DUP1 DUP3 MSTORE PUSH1 0x20 DUP3 ADD SWAP1 SWAP3 MSTORE PUSH1 0x1 PUSH1 0x1 PUSH1 0xA0 SHL SUB DUP5 AND SWAP1 DUP4 SWAP1 PUSH1 0x40 MLOAD PUSH2 0xDE6 SWAP2 SWAP1 PUSH2 0x107E JUMP JUMPDEST PUSH1 0x0 PUSH1 0x40 MLOAD DUP1 DUP4 SUB DUP2 DUP6 DUP8 GAS CALL SWAP3 POP POP POP RETURNDATASIZE DUP1 PUSH1 0x0 DUP2 EQ PUSH2 0xE23 JUMPI PUSH1 0x40 MLOAD SWAP2 POP PUSH1 0x1F NOT PUSH1 0x3F RETURNDATASIZE ADD AND DUP3 ADD PUSH1 0x40 MSTORE RETURNDATASIZE DUP3 MSTORE RETURNDATASIZE PUSH1 0x0 PUSH1 0x20 DUP5 ADD RETURNDATACOPY PUSH2 0xE28 JUMP JUMPDEST PUSH1 0x60 SWAP2 POP JUMPDEST POP POP SWAP1 POP DUP1 PUSH2 0xE96 JUMPI PUSH1 0x40 MLOAD PUSH3 0x461BCD PUSH1 0xE5 SHL DUP2 MSTORE PUSH1 0x20 PUSH1 0x4 DUP3 ADD MSTORE PUSH1 0x34 PUSH1 0x24 DUP3 ADD MSTORE PUSH32 0x5472616E7366657248656C7065723A3A736166655472616E736665724554483A PUSH1 0x44 DUP3 ADD MSTORE PUSH20 0x8115512081D1C985B9CD9995C8819985A5B1959 PUSH1 0x62 SHL PUSH1 0x64 DUP3 ADD MSTORE PUSH1 0x84 ADD PUSH2 0x2C5 JUMP JUMPDEST POP POP POP JUMP JUMPDEST PUSH1 0x0 DUP1 SLOAD PUSH1 0x1 PUSH1 0x1 PUSH1 0xA0 SHL SUB DUP4 DUP2 AND PUSH1 0x1 PUSH1 0x1 PUSH1 0xA0 SHL SUB NOT DUP4 AND DUP2 OR DUP5 SSTORE PUSH1 0x40 MLOAD SWAP2 SWAP1 SWAP3 AND SWAP3 DUP4 SWAP2 PUSH32 0x8BE0079C531659141344CD1FD0A4F28419497F9722A3DAAFE3B4186F6B6457E0 SWAP2 SWAP1 LOG3 POP POP JUMP JUMPDEST PUSH1 0x0 DUP3 PUSH1 0x1F DUP4 ADD SLT PUSH2 0xEFC JUMPI PUSH1 0x0 DUP1 REVERT JUMPDEST DUP2 CALLDATALOAD PUSH1 0x20 PUSH2 0xF11 PUSH2 0xF0C DUP4 PUSH2 0x111F JUMP JUMPDEST PUSH2 0x10EE JUMP JUMPDEST DUP1 DUP4 DUP3 MSTORE DUP3 DUP3 ADD SWAP2 POP DUP3 DUP7 ADD DUP8 DUP5 DUP7 PUSH1 0x5 SHL DUP10 ADD ADD GT ISZERO PUSH2 0xF31 JUMPI PUSH1 0x0 DUP1 REVERT JUMPDEST PUSH1 0x0 JUMPDEST DUP6 DUP2 LT ISZERO PUSH2 0xF50 JUMPI DUP2 CALLDATALOAD DUP5 MSTORE SWAP3 DUP5 ADD SWAP3 SWAP1 DUP5 ADD SWAP1 PUSH1 0x1 ADD PUSH2 0xF34 JUMP JUMPDEST POP SWAP1 SWAP8 SWAP7 POP POP POP POP POP POP POP JUMP JUMPDEST PUSH1 0x0 PUSH1 0x20 DUP3 DUP5 SUB SLT ISZERO PUSH2 0xF6F JUMPI PUSH1 0x0 DUP1 REVERT JUMPDEST DUP2 CALLDATALOAD PUSH2 0xC60 DUP2 PUSH2 0x1210 JUMP JUMPDEST PUSH1 0x0 DUP1 PUSH1 0x40 DUP4 DUP6 SUB SLT ISZERO PUSH2 0xF8D JUMPI PUSH1 0x0 DUP1 REVERT JUMPDEST DUP3 CALLDATALOAD PUSH8 0xFFFFFFFFFFFFFFFF DUP1 DUP3 GT ISZERO PUSH2 0xFA5 JUMPI PUSH1 0x0 DUP1 REVERT JUMPDEST DUP2 DUP6 ADD SWAP2 POP DUP6 PUSH1 0x1F DUP4 ADD SLT PUSH2 0xFB9 JUMPI PUSH1 0x0 DUP1 REVERT JUMPDEST DUP2 CALLDATALOAD PUSH1 0x20 PUSH2 0xFC9 PUSH2 0xF0C DUP4 PUSH2 0x111F JUMP JUMPDEST DUP1 DUP4 DUP3 MSTORE DUP3 DUP3 ADD SWAP2 POP DUP3 DUP7 ADD DUP11 DUP5 DUP7 PUSH1 0x5 SHL DUP10 ADD ADD GT ISZERO PUSH2 0xFE9 JUMPI PUSH1 0x0 DUP1 REVERT JUMPDEST PUSH1 0x0 SWAP7 POP JUMPDEST DUP5 DUP8 LT ISZERO PUSH2 0x1015 JUMPI DUP1 CALLDATALOAD PUSH2 0x1001 DUP2 PUSH2 0x1210 JUMP JUMPDEST DUP4 MSTORE PUSH1 0x1 SWAP7 SWAP1 SWAP7 ADD SWAP6 SWAP2 DUP4 ADD SWAP2 DUP4 ADD PUSH2 0xFEE JUMP JUMPDEST POP SWAP7 POP POP DUP7 ADD CALLDATALOAD SWAP3 POP POP DUP1 DUP3 GT ISZERO PUSH2 0x102C JUMPI PUSH1 0x0 DUP1 REVERT JUMPDEST POP PUSH2 0x1039 DUP6 DUP3 DUP7 ADD PUSH2 0xEEB JUMP JUMPDEST SWAP2 POP POP SWAP3 POP SWAP3 SWAP1 POP JUMP JUMPDEST PUSH1 0x0 PUSH1 0x20 DUP3 DUP5 SUB SLT ISZERO PUSH2 0x1055 JUMPI PUSH1 0x0 DUP1 REVERT JUMPDEST DUP2 MLOAD DUP1 ISZERO ISZERO DUP2 EQ PUSH2 0xC60 JUMPI PUSH1 0x0 DUP1 REVERT JUMPDEST PUSH1 0x0 PUSH1 0x20 DUP3 DUP5 SUB SLT ISZERO PUSH2 0x1077 JUMPI PUSH1 0x0 DUP1 REVERT JUMPDEST POP MLOAD SWAP2 SWAP1 POP JUMP JUMPDEST PUSH1 0x0 DUP3 MLOAD PUSH1 0x0 JUMPDEST DUP2 DUP2 LT ISZERO PUSH2 0x109F JUMPI PUSH1 0x20 DUP2 DUP7 ADD DUP2 ADD MLOAD DUP6 DUP4 ADD MSTORE ADD PUSH2 0x1085 JUMP JUMPDEST DUP2 DUP2 GT ISZERO PUSH2 0x10AE JUMPI PUSH1 0x0 DUP3 DUP6 ADD MSTORE JUMPDEST POP SWAP2 SWAP1 SWAP2 ADD SWAP3 SWAP2 POP POP JUMP JUMPDEST PUSH1 0x20 DUP1 DUP3 MSTORE DUP2 DUP2 ADD MSTORE PUSH32 0x4F776E61626C653A2063616C6C6572206973206E6F7420746865206F776E6572 PUSH1 0x40 DUP3 ADD MSTORE PUSH1 0x60 ADD SWAP1 JUMP JUMPDEST PUSH1 0x40 MLOAD PUSH1 0x1F DUP3 ADD PUSH1 0x1F NOT AND DUP2 ADD PUSH8 0xFFFFFFFFFFFFFFFF DUP2 GT DUP3 DUP3 LT OR ISZERO PUSH2 0x1117 JUMPI PUSH2 0x1117 PUSH2 0x11FA JUMP JUMPDEST PUSH1 0x40 MSTORE SWAP2 SWAP1 POP JUMP JUMPDEST PUSH1 0x0 PUSH8 0xFFFFFFFFFFFFFFFF DUP3 GT ISZERO PUSH2 0x1139 JUMPI PUSH2 0x1139 PUSH2 0x11FA JUMP JUMPDEST POP PUSH1 0x5 SHL PUSH1 0x20 ADD SWAP1 JUMP JUMPDEST PUSH1 0x0 DUP3 NOT DUP3 GT ISZERO PUSH2 0x1156 JUMPI PUSH2 0x1156 PUSH2 0x11CE JUMP JUMPDEST POP ADD SWAP1 JUMP JUMPDEST PUSH1 0x0 DUP3 PUSH2 0x1178 JUMPI PUSH4 0x4E487B71 PUSH1 0xE0 SHL PUSH1 0x0 MSTORE PUSH1 0x12 PUSH1 0x4 MSTORE PUSH1 0x24 PUSH1 0x0 REVERT JUMPDEST POP DIV SWAP1 JUMP JUMPDEST PUSH1 0x0 DUP2 PUSH1 0x0 NOT DIV DUP4 GT DUP3 ISZERO ISZERO AND ISZERO PUSH2 0x1197 JUMPI PUSH2 0x1197 PUSH2 0x11CE JUMP JUMPDEST POP MUL SWAP1 JUMP JUMPDEST PUSH1 0x0 DUP3 DUP3 LT ISZERO PUSH2 0x11AE JUMPI PUSH2 0x11AE PUSH2 0x11CE JUMP JUMPDEST POP SUB SWAP1 JUMP JUMPDEST PUSH1 0x0 PUSH1 0x0 NOT DUP3 EQ ISZERO PUSH2 0x11C7 JUMPI PUSH2 0x11C7 PUSH2 0x11CE JUMP JUMPDEST POP PUSH1 0x1 ADD SWAP1 JUMP JUMPDEST PUSH4 0x4E487B71 PUSH1 0xE0 SHL PUSH1 0x0 MSTORE PUSH1 0x11 PUSH1 0x4 MSTORE PUSH1 0x24 PUSH1 0x0 REVERT JUMPDEST PUSH4 0x4E487B71 PUSH1 0xE0 SHL PUSH1 0x0 MSTORE PUSH1 0x32 PUSH1 0x4 MSTORE PUSH1 0x24 PUSH1 0x0 REVERT JUMPDEST PUSH4 0x4E487B71 PUSH1 0xE0 SHL PUSH1 0x0 MSTORE PUSH1 0x41 PUSH1 0x4 MSTORE PUSH1 0x24 PUSH1 0x0 REVERT JUMPDEST PUSH1 0x1 PUSH1 0x1 PUSH1 0xA0 SHL SUB DUP2 AND DUP2 EQ PUSH2 0x999 JUMPI PUSH1 0x0 DUP1 REVERT INVALID LOG2 PUSH5 0x6970667358 0x22 SLT KECCAK256 BALANCE 0xF8 BASEFEE 0xAC LOG0 0xAC SWAP16 0xE7 0xC0 SWAP13 0xDE SWAP13 CALLVALUE DUP6 SUB MULMOD 0xB6 0x27 INVALID 0x2A 0xE9 STATICCALL 0xCA 0xE1 0xE6 ADDMOD 0x22 PUSH11 0xA7950A664736F6C634300 ADDMOD SMOD STOP CALLER "
				},
				"gasEstimates": {
					"creation": {
						"codeDepositCost": "939800",
						"executionCost": "infinite",
						"totalCost": "infinite"
					},
					"external": {
						"bought(address)": "2569",
						"claim()": "infinite",
						"claimOpen()": "2374",
						"claimed(address)": "2613",
						"claimedTokens(address)": "2591",
						"cliffPeriod()": "252",
						"getCurrentPercentage()": "infinite",
						"initialClaimPercentage()": "251",
						"lastClaimAddress(address)": "2618",
						"openClaim()": "27704",
						"owner()": "2343",
						"percentagePerPeriod()": "208",
						"period()": "206",
						"renounceOwnership()": "28203",
						"requireWhitelist()": "2421",
						"rewardToken()": "2425",
						"transferOwnership(address)": "infinite",
						"updateRewardToken(address)": "infinite",
						"whitelistFromSAFT(address[],uint256[])": "infinite"
					}
				},
				"methodIdentifiers": {
					"bought(address)": "667022fd",
					"claim()": "4e71d92d",
					"claimOpen()": "4b8bcb58",
					"claimed(address)": "c884ef83",
					"claimedTokens(address)": "a960c65f",
					"cliffPeriod()": "2f661946",
					"getCurrentPercentage()": "9c92431b",
					"initialClaimPercentage()": "a5ebf835",
					"lastClaimAddress(address)": "f3739e05",
					"openClaim()": "293cdbf1",
					"owner()": "8da5cb5b",
					"percentagePerPeriod()": "151bad0a",
					"period()": "ef78d4fd",
					"renounceOwnership()": "715018a6",
					"requireWhitelist()": "856734c4",
					"rewardToken()": "f7c618c1",
					"transferOwnership(address)": "f2fde38b",
					"updateRewardToken(address)": "f8cf31cb",
					"whitelistFromSAFT(address[],uint256[])": "5372a58e"
				}
			},
			"storageLayout": {
				"storage": [
					{
						"astId": 7,
						"contract": "contracts/Vesting.sol:Vesting",
						"label": "_owner",
						"offset": 0,
						"slot": "0",
						"type": "t_address"
					},
					{
						"astId": 1057,
						"contract": "contracts/Vesting.sol:Vesting",
						"label": "rewardToken",
						"offset": 0,
						"slot": "1",
						"type": "t_contract(IERC20)181"
					},
					{
						"astId": 1060,
						"contract": "contracts/Vesting.sol:Vesting",
						"label": "claimOpen",
						"offset": 0,
						"slot": "2",
						"type": "t_uint256"
					},
					{
						"astId": 1075,
						"contract": "contracts/Vesting.sol:Vesting",
						"label": "requireWhitelist",
						"offset": 0,
						"slot": "3",
						"type": "t_bool"
					},
					{
						"astId": 1079,
						"contract": "contracts/Vesting.sol:Vesting",
						"label": "bought",
						"offset": 0,
						"slot": "4",
						"type": "t_mapping(t_address,t_uint256)"
					},
					{
						"astId": 1083,
						"contract": "contracts/Vesting.sol:Vesting",
						"label": "claimed",
						"offset": 0,
						"slot": "5",
						"type": "t_mapping(t_address,t_uint256)"
					},
					{
						"astId": 1087,
						"contract": "contracts/Vesting.sol:Vesting",
						"label": "claimedTokens",
						"offset": 0,
						"slot": "6",
						"type": "t_mapping(t_address,t_uint256)"
					},
					{
						"astId": 1091,
						"contract": "contracts/Vesting.sol:Vesting",
						"label": "lastClaimAddress",
						"offset": 0,
						"slot": "7",
						"type": "t_mapping(t_address,t_address)"
					}
				],
				"types": {
					"t_address": {
						"encoding": "inplace",
						"label": "address",
						"numberOfBytes": "20"
					},
					"t_bool": {
						"encoding": "inplace",
						"label": "bool",
						"numberOfBytes": "1"
					},
					"t_contract(IERC20)181": {
						"encoding": "inplace",
						"label": "contract IERC20",
						"numberOfBytes": "20"
					},
					"t_mapping(t_address,t_address)": {
						"encoding": "mapping",
						"key": "t_address",
						"label": "mapping(address => address)",
						"numberOfBytes": "32",
						"value": "t_address"
					},
					"t_mapping(t_address,t_uint256)": {
						"encoding": "mapping",
						"key": "t_address",
						"label": "mapping(address => uint256)",
						"numberOfBytes": "32",
						"value": "t_uint256"
					},
					"t_uint256": {
						"encoding": "inplace",
						"label": "uint256",
						"numberOfBytes": "32"
					}
				}
			},
			"userdoc": {
				"kind": "user",
				"methods": {},
				"version": 1
			}
		}
	}
}