{
	"contracts/PreSale.sol": {
		"PreSale": {
			"abi": [
				{
					"inputs": [
						{
							"internalType": "contract IERC20",
							"name": "_rewardToken",
							"type": "address"
						},
						{
							"internalType": "contract IERC20",
							"name": "_paymentToken",
							"type": "address"
						},
						{
							"internalType": "uint256",
							"name": "_limit",
							"type": "uint256"
						},
						{
							"internalType": "uint256",
							"name": "_softcap",
							"type": "uint256"
						},
						{
							"internalType": "uint256",
							"name": "_price",
							"type": "uint256"
						}
					],
					"stateMutability": "nonpayable",
					"type": "constructor"
				},
				{
					"anonymous": false,
					"inputs": [
						{
							"indexed": true,
							"internalType": "uint256",
							"name": "amount",
							"type": "uint256"
						}
					],
					"name": "AddedToWhitelist",
					"type": "event"
				},
				{
					"anonymous": false,
					"inputs": [
						{
							"indexed": true,
							"internalType": "uint256",
							"name": "amount",
							"type": "uint256"
						}
					],
					"name": "AddedToWhitelistFromSaft",
					"type": "event"
				},
				{
					"anonymous": false,
					"inputs": [
						{
							"indexed": true,
							"internalType": "address",
							"name": "buyer",
							"type": "address"
						},
						{
							"indexed": true,
							"internalType": "uint256",
							"name": "amount",
							"type": "uint256"
						}
					],
					"name": "Bought",
					"type": "event"
				},
				{
					"anonymous": false,
					"inputs": [
						{
							"indexed": true,
							"internalType": "address",
							"name": "newToken",
							"type": "address"
						}
					],
					"name": "ChangeRewardToken",
					"type": "event"
				},
				{
					"anonymous": false,
					"inputs": [
						{
							"indexed": true,
							"internalType": "address",
							"name": "owner",
							"type": "address"
						},
						{
							"indexed": true,
							"internalType": "uint256",
							"name": "amount",
							"type": "uint256"
						}
					],
					"name": "Claimed",
					"type": "event"
				},
				{
					"anonymous": false,
					"inputs": [
						{
							"indexed": true,
							"internalType": "address",
							"name": "owner",
							"type": "address"
						},
						{
							"indexed": true,
							"internalType": "uint256",
							"name": "amount",
							"type": "uint256"
						}
					],
					"name": "DepositedInVestingPool",
					"type": "event"
				},
				{
					"anonymous": false,
					"inputs": [
						{
							"indexed": true,
							"internalType": "address",
							"name": "previousOwner",
							"type": "address"
						},
						{
							"indexed": true,
							"internalType": "address",
							"name": "newOwner",
							"type": "address"
						}
					],
					"name": "OwnershipTransferred",
					"type": "event"
				},
				{
					"anonymous": false,
					"inputs": [
						{
							"indexed": true,
							"internalType": "uint256",
							"name": "claimDate",
							"type": "uint256"
						}
					],
					"name": "SaleEnded",
					"type": "event"
				},
				{
					"inputs": [],
					"name": "afterDays",
					"outputs": [
						{
							"internalType": "uint256",
							"name": "",
							"type": "uint256"
						}
					],
					"stateMutability": "view",
					"type": "function"
				},
				{
					"inputs": [
						{
							"internalType": "address",
							"name": "",
							"type": "address"
						}
					],
					"name": "bought",
					"outputs": [
						{
							"internalType": "uint256",
							"name": "",
							"type": "uint256"
						}
					],
					"stateMutability": "view",
					"type": "function"
				},
				{
					"inputs": [
						{
							"internalType": "uint256",
							"name": "amount",
							"type": "uint256"
						}
					],
					"name": "buy",
					"outputs": [],
					"stateMutability": "payable",
					"type": "function"
				},
				{
					"inputs": [],
					"name": "claim",
					"outputs": [],
					"stateMutability": "nonpayable",
					"type": "function"
				},
				{
					"inputs": [
						{
							"internalType": "uint256",
							"name": "_afterDays",
							"type": "uint256"
						}
					],
					"name": "claimAndEndSale",
					"outputs": [],
					"stateMutability": "nonpayable",
					"type": "function"
				},
				{
					"inputs": [
						{
							"internalType": "address",
							"name": "",
							"type": "address"
						}
					],
					"name": "claimed",
					"outputs": [
						{
							"internalType": "uint256",
							"name": "",
							"type": "uint256"
						}
					],
					"stateMutability": "view",
					"type": "function"
				},
				{
					"inputs": [
						{
							"internalType": "address",
							"name": "",
							"type": "address"
						}
					],
					"name": "claimedTokens",
					"outputs": [
						{
							"internalType": "uint256",
							"name": "",
							"type": "uint256"
						}
					],
					"stateMutability": "view",
					"type": "function"
				},
				{
					"inputs": [],
					"name": "cliffPeriod",
					"outputs": [
						{
							"internalType": "uint256",
							"name": "",
							"type": "uint256"
						}
					],
					"stateMutability": "view",
					"type": "function"
				},
				{
					"inputs": [],
					"name": "disableWhitelist",
					"outputs": [],
					"stateMutability": "nonpayable",
					"type": "function"
				},
				{
					"inputs": [],
					"name": "getCurrentPercentage",
					"outputs": [
						{
							"internalType": "uint256",
							"name": "",
							"type": "uint256"
						}
					],
					"stateMutability": "view",
					"type": "function"
				},
				{
					"inputs": [],
					"name": "getRemainingBalance",
					"outputs": [
						{
							"internalType": "uint256",
							"name": "",
							"type": "uint256"
						}
					],
					"stateMutability": "view",
					"type": "function"
				},
				{
					"inputs": [],
					"name": "initialClaimPercentage",
					"outputs": [
						{
							"internalType": "uint256",
							"name": "",
							"type": "uint256"
						}
					],
					"stateMutability": "view",
					"type": "function"
				},
				{
					"inputs": [
						{
							"internalType": "address",
							"name": "",
							"type": "address"
						}
					],
					"name": "lastClaimAddress",
					"outputs": [
						{
							"internalType": "address",
							"name": "",
							"type": "address"
						}
					],
					"stateMutability": "view",
					"type": "function"
				},
				{
					"inputs": [],
					"name": "limit",
					"outputs": [
						{
							"internalType": "uint256",
							"name": "",
							"type": "uint256"
						}
					],
					"stateMutability": "view",
					"type": "function"
				},
				{
					"inputs": [],
					"name": "owner",
					"outputs": [
						{
							"internalType": "address",
							"name": "",
							"type": "address"
						}
					],
					"stateMutability": "view",
					"type": "function"
				},
				{
					"inputs": [],
					"name": "paymentToken",
					"outputs": [
						{
							"internalType": "contract IERC20",
							"name": "",
							"type": "address"
						}
					],
					"stateMutability": "view",
					"type": "function"
				},
				{
					"inputs": [],
					"name": "percentagePerPeriod",
					"outputs": [
						{
							"internalType": "uint256",
							"name": "",
							"type": "uint256"
						}
					],
					"stateMutability": "view",
					"type": "function"
				},
				{
					"inputs": [],
					"name": "period",
					"outputs": [
						{
							"internalType": "uint256",
							"name": "",
							"type": "uint256"
						}
					],
					"stateMutability": "view",
					"type": "function"
				},
				{
					"inputs": [],
					"name": "pricePerToken",
					"outputs": [
						{
							"internalType": "uint256",
							"name": "",
							"type": "uint256"
						}
					],
					"stateMutability": "view",
					"type": "function"
				},
				{
					"inputs": [],
					"name": "renounceOwnership",
					"outputs": [],
					"stateMutability": "nonpayable",
					"type": "function"
				},
				{
					"inputs": [],
					"name": "requireWhitelist",
					"outputs": [
						{
							"internalType": "bool",
							"name": "",
							"type": "bool"
						}
					],
					"stateMutability": "view",
					"type": "function"
				},
				{
					"inputs": [],
					"name": "rewardToken",
					"outputs": [
						{
							"internalType": "contract IERC20",
							"name": "",
							"type": "address"
						}
					],
					"stateMutability": "view",
					"type": "function"
				},
				{
					"inputs": [],
					"name": "saleEnded",
					"outputs": [
						{
							"internalType": "uint256",
							"name": "",
							"type": "uint256"
						}
					],
					"stateMutability": "view",
					"type": "function"
				},
				{
					"inputs": [],
					"name": "softcap",
					"outputs": [
						{
							"internalType": "uint256",
							"name": "",
							"type": "uint256"
						}
					],
					"stateMutability": "view",
					"type": "function"
				},
				{
					"inputs": [],
					"name": "soldTokens",
					"outputs": [
						{
							"internalType": "uint256",
							"name": "",
							"type": "uint256"
						}
					],
					"stateMutability": "view",
					"type": "function"
				},
				{
					"inputs": [
						{
							"internalType": "address",
							"name": "newOwner",
							"type": "address"
						}
					],
					"name": "transferOwnership",
					"outputs": [],
					"stateMutability": "nonpayable",
					"type": "function"
				},
				{
					"inputs": [
						{
							"internalType": "uint256",
							"name": "_afterDays",
							"type": "uint256"
						}
					],
					"name": "updateAfterDays",
					"outputs": [],
					"stateMutability": "nonpayable",
					"type": "function"
				},
				{
					"inputs": [
						{
							"internalType": "contract IERC20",
							"name": "_newRewardToken",
							"type": "address"
						}
					],
					"name": "updateRewardToken",
					"outputs": [],
					"stateMutability": "nonpayable",
					"type": "function"
				},
				{
					"inputs": [
						{
							"internalType": "address[]",
							"name": "addresses",
							"type": "address[]"
						}
					],
					"name": "whitelist",
					"outputs": [],
					"stateMutability": "nonpayable",
					"type": "function"
				},
				{
					"inputs": [
						{
							"internalType": "address[]",
							"name": "addresses",
							"type": "address[]"
						},
						{
							"internalType": "uint256[]",
							"name": "amounts",
							"type": "uint256[]"
						}
					],
					"name": "whitelistFromSAFT",
					"outputs": [],
					"stateMutability": "nonpayable",
					"type": "function"
				},
				{
					"inputs": [
						{
							"internalType": "address",
							"name": "",
							"type": "address"
						}
					],
					"name": "whitelisted",
					"outputs": [
						{
							"internalType": "bool",
							"name": "",
							"type": "bool"
						}
					],
					"stateMutability": "view",
					"type": "function"
				}
			],
			"devdoc": {
				"kind": "dev",
				"methods": {
					"owner()": {
						"details": "Returns the address of the current owner."
					},
					"renounceOwnership()": {
						"details": "Leaves the contract without owner. It will not be possible to call `onlyOwner` functions anymore. Can only be called by the current owner. NOTE: Renouncing ownership will leave the contract without an owner, thereby removing any functionality that is only available to the owner."
					},
					"transferOwnership(address)": {
						"details": "Transfers ownership of the contract to a new account (`newOwner`). Can only be called by the current owner."
					}
				},
				"version": 1
			},
			"evm": {
				"assembly": "    /* \"contracts/PreSale.sol\":434:12014  contract PreSale is Ownable {... */\n  mstore(0x40, 0x80)\n    /* \"contracts/PreSale.sol\":1288:1289  0 */\n  0x00\n    /* \"contracts/PreSale.sol\":1261:1289  uint256 public saleEnded = 0 */\n  0x07\n  sstore\n    /* \"contracts/PreSale.sol\":1900:1935  bool public requireWhitelist = true */\n  0x09\n  dup1\n  sload\n  not(0xff)\n  and\n    /* \"contracts/PreSale.sol\":1931:1935  true */\n  0x01\n    /* \"contracts/PreSale.sol\":1900:1935  bool public requireWhitelist = true */\n  or\n  swap1\n  sstore\n    /* \"contracts/PreSale.sol\":3199:3584  constructor(IERC20 _rewardToken, IERC20 _paymentToken, uint256 _limit, uint256 _softcap, uint256 _price) {... */\n  callvalue\n  dup1\n  iszero\n  tag_1\n  jumpi\n  0x00\n  dup1\n  revert\ntag_1:\n  pop\n  mload(0x40)\n  sub(codesize, bytecodeSize)\n  dup1\n  bytecodeSize\n  dup4\n  codecopy\n  dup2\n  add\n  0x40\n  dup2\n  swap1\n  mstore\n  tag_2\n  swap2\n  tag_3\n  jump\t// in\ntag_2:\n    /* \"@openzeppelin/contracts/access/Ownable.sol\":867:890  _setOwner(_msgSender()) */\n  tag_7\n    /* \"@openzeppelin/contracts/utils/Context.sol\":665:675  msg.sender */\n  caller\n    /* \"@openzeppelin/contracts/access/Ownable.sol\":867:876  _setOwner */\n  tag_10\n    /* \"@openzeppelin/contracts/access/Ownable.sol\":867:890  _setOwner(_msgSender()) */\n  jump\t// in\ntag_7:\n    /* \"contracts/PreSale.sol\":3331:3332  0 */\n  0x00\n    /* \"contracts/PreSale.sol\":3322:3328  _price */\n  dup2\n    /* \"contracts/PreSale.sol\":3322:3332  _price > 0 */\n  gt\n    /* \"contracts/PreSale.sol\":3314:3383  require(_price > 0, \"ABOAT::error: Price has to be higher than zero\") */\n  tag_12\n  jumpi\n  mload(0x40)\n  shl(0xe5, 0x461bcd)\n  dup2\n  mstore\n    /* \"#utility.yul\":933:935   */\n  0x20\n    /* \"contracts/PreSale.sol\":3314:3383  require(_price > 0, \"ABOAT::error: Price has to be higher than zero\") */\n  0x04\n  dup3\n  add\n    /* \"#utility.yul\":915:936   */\n  mstore\n    /* \"#utility.yul\":972:974   */\n  0x2e\n    /* \"#utility.yul\":952:970   */\n  0x24\n  dup3\n  add\n    /* \"#utility.yul\":945:975   */\n  mstore\n    /* \"#utility.yul\":1011:1045   */\n  0x41424f41543a3a6572726f723a2050726963652068617320746f206265206869\n    /* \"#utility.yul\":991:1009   */\n  0x44\n  dup3\n  add\n    /* \"#utility.yul\":984:1046   */\n  mstore\n  shl(0x90, 0x67686572207468616e207a65726f)\n    /* \"#utility.yul\":1062:1080   */\n  0x64\n  dup3\n  add\n    /* \"#utility.yul\":1055:1099   */\n  mstore\n    /* \"#utility.yul\":1116:1135   */\n  0x84\n  add\n    /* \"contracts/PreSale.sol\":3314:3383  require(_price > 0, \"ABOAT::error: Price has to be higher than zero\") */\n  mload(0x40)\n  dup1\n  swap2\n  sub\n  swap1\n  revert\ntag_12:\n    /* \"contracts/PreSale.sol\":3393:3404  rewardToken */\n  0x01\n    /* \"contracts/PreSale.sol\":3393:3419  rewardToken = _rewardToken */\n  dup1\n  sload\n  sub(shl(0xa0, 0x01), 0x01)\n  swap7\n  dup8\n  and\n  not(sub(shl(0xa0, 0x01), 0x01))\n  swap2\n  dup3\n  and\n  or\n  swap1\n  swap2\n  sstore\n    /* \"contracts/PreSale.sol\":3429:3441  paymentToken */\n  0x02\n    /* \"contracts/PreSale.sol\":3429:3457  paymentToken = _paymentToken */\n  dup1\n  sload\n  swap6\n  swap1\n  swap7\n  and\n  swap5\n  and\n  swap4\n  swap1\n  swap4\n  or\n  swap1\n  swap4\n  sstore\n    /* \"contracts/PreSale.sol\":3467:3472  limit */\n  0x04\n    /* \"contracts/PreSale.sol\":3467:3481  limit = _limit */\n  sstore\n    /* \"contracts/PreSale.sol\":3491:3498  softcap */\n  0x05\n    /* \"contracts/PreSale.sol\":3491:3509  softcap = _softcap */\n  swap2\n  swap1\n  swap2\n  sstore\n    /* \"contracts/PreSale.sol\":3555:3568  pricePerToken */\n  0x03\n    /* \"contracts/PreSale.sol\":3555:3577  pricePerToken = _price */\n  sstore\n    /* \"contracts/PreSale.sol\":434:12014  contract PreSale is Ownable {... */\n  jump(tag_18)\n    /* \"@openzeppelin/contracts/access/Ownable.sol\":2041:2210  function _setOwner(address newOwner) private {... */\ntag_10:\n    /* \"@openzeppelin/contracts/access/Ownable.sol\":2096:2112  address oldOwner */\n  0x00\n    /* \"@openzeppelin/contracts/access/Ownable.sol\":2115:2121  _owner */\n  dup1\n  sload\n  sub(shl(0xa0, 0x01), 0x01)\n    /* \"@openzeppelin/contracts/access/Ownable.sol\":2131:2148  _owner = newOwner */\n  dup4\n  dup2\n  and\n  not(sub(shl(0xa0, 0x01), 0x01))\n  dup4\n  and\n  dup2\n  or\n  dup5\n  sstore\n    /* \"@openzeppelin/contracts/access/Ownable.sol\":2163:2203  OwnershipTransferred(oldOwner, newOwner) */\n  mload(0x40)\n    /* \"@openzeppelin/contracts/access/Ownable.sol\":2115:2121  _owner */\n  swap2\n  swap1\n  swap3\n  and\n  swap3\n  dup4\n  swap2\n    /* \"@openzeppelin/contracts/access/Ownable.sol\":2163:2203  OwnershipTransferred(oldOwner, newOwner) */\n  0x8be0079c531659141344cd1fd0a4f28419497f9722a3daafe3b4186f6b6457e0\n  swap2\n    /* \"@openzeppelin/contracts/access/Ownable.sol\":2096:2112  address oldOwner */\n  swap1\n    /* \"@openzeppelin/contracts/access/Ownable.sol\":2163:2203  OwnershipTransferred(oldOwner, newOwner) */\n  log3\n    /* \"@openzeppelin/contracts/access/Ownable.sol\":2086:2210  {... */\n  pop\n    /* \"@openzeppelin/contracts/access/Ownable.sol\":2041:2210  function _setOwner(address newOwner) private {... */\n  pop\n  jump\t// out\n    /* \"#utility.yul\":14:199   */\ntag_19:\n    /* \"#utility.yul\":101:114   */\n  dup1\n  mload\n  sub(shl(0xa0, 0x01), 0x01)\n    /* \"#utility.yul\":143:174   */\n  dup2\n  and\n    /* \"#utility.yul\":133:175   */\n  dup2\n  eq\n    /* \"#utility.yul\":123:193   */\n  tag_21\n  jumpi\n    /* \"#utility.yul\":189:190   */\n  0x00\n    /* \"#utility.yul\":186:187   */\n  dup1\n    /* \"#utility.yul\":179:191   */\n  revert\n    /* \"#utility.yul\":123:193   */\ntag_21:\n    /* \"#utility.yul\":14:199   */\n  swap2\n  swap1\n  pop\n  jump\t// out\n    /* \"#utility.yul\":204:726   */\ntag_3:\n    /* \"#utility.yul\":338:344   */\n  0x00\n    /* \"#utility.yul\":346:352   */\n  dup1\n    /* \"#utility.yul\":354:360   */\n  0x00\n    /* \"#utility.yul\":362:368   */\n  dup1\n    /* \"#utility.yul\":370:376   */\n  0x00\n    /* \"#utility.yul\":423:426   */\n  0xa0\n    /* \"#utility.yul\":411:420   */\n  dup7\n    /* \"#utility.yul\":402:409   */\n  dup9\n    /* \"#utility.yul\":398:421   */\n  sub\n    /* \"#utility.yul\":394:427   */\n  slt\n    /* \"#utility.yul\":391:444   */\n  iszero\n  tag_23\n  jumpi\n    /* \"#utility.yul\":440:441   */\n  0x00\n    /* \"#utility.yul\":437:438   */\n  dup1\n    /* \"#utility.yul\":430:442   */\n  revert\n    /* \"#utility.yul\":391:444   */\ntag_23:\n    /* \"#utility.yul\":463:511   */\n  tag_24\n    /* \"#utility.yul\":501:510   */\n  dup7\n    /* \"#utility.yul\":463:511   */\n  tag_19\n  jump\t// in\ntag_24:\n    /* \"#utility.yul\":453:511   */\n  swap5\n  pop\n    /* \"#utility.yul\":530:587   */\n  tag_25\n    /* \"#utility.yul\":583:585   */\n  0x20\n    /* \"#utility.yul\":572:581   */\n  dup8\n    /* \"#utility.yul\":568:586   */\n  add\n    /* \"#utility.yul\":530:587   */\n  tag_19\n  jump\t// in\ntag_25:\n    /* \"#utility.yul\":627:629   */\n  0x40\n    /* \"#utility.yul\":612:630   */\n  dup8\n  add\n    /* \"#utility.yul\":606:631   */\n  mload\n    /* \"#utility.yul\":671:673   */\n  0x60\n    /* \"#utility.yul\":656:674   */\n  dup9\n  add\n    /* \"#utility.yul\":650:675   */\n  mload\n    /* \"#utility.yul\":715:718   */\n  0x80\n    /* \"#utility.yul\":700:719   */\n  swap1\n  swap9\n  add\n    /* \"#utility.yul\":694:720   */\n  mload\n    /* \"#utility.yul\":204:726   */\n  swap7\n  swap10\n    /* \"#utility.yul\":520:587   */\n  swap2\n  swap9\n  pop\n    /* \"#utility.yul\":606:631   */\n  swap7\n    /* \"#utility.yul\":650:675   */\n  swap6\n    /* \"#utility.yul\":694:720   */\n  swap5\n  pop\n    /* \"#utility.yul\":204:726   */\n  swap3\n  pop\n  pop\n  pop\n  jump\t// out\n    /* \"#utility.yul\":731:1141   */\ntag_18:\n    /* \"contracts/PreSale.sol\":434:12014  contract PreSale is Ownable {... */\n  dataSize(sub_0)\n  dup1\n  dataOffset(sub_0)\n  0x00\n  codecopy\n  0x00\n  return\nstop\n\nsub_0: assembly {\n        /* \"contracts/PreSale.sol\":434:12014  contract PreSale is Ownable {... */\n      mstore(0x40, 0x80)\n      jumpi(tag_1, lt(calldatasize, 0x04))\n      shr(0xe0, calldataload(0x00))\n      dup1\n      0xa4d66daf\n      gt\n      tag_33\n      jumpi\n      dup1\n      0xe754e7c4\n      gt\n      tag_34\n      jumpi\n      dup1\n      0xf3739e05\n      gt\n      tag_35\n      jumpi\n      dup1\n      0xf3739e05\n      eq\n      tag_29\n      jumpi\n      dup1\n      0xf7c618c1\n      eq\n      tag_30\n      jumpi\n      dup1\n      0xf89be593\n      eq\n      tag_31\n      jumpi\n      dup1\n      0xf8cf31cb\n      eq\n      tag_32\n      jumpi\n      0x00\n      dup1\n      revert\n    tag_35:\n      dup1\n      0xe754e7c4\n      eq\n      tag_25\n      jumpi\n      dup1\n      0xef78d4fd\n      eq\n      tag_26\n      jumpi\n      dup1\n      0xefe95f51\n      eq\n      tag_27\n      jumpi\n      dup1\n      0xf2fde38b\n      eq\n      tag_28\n      jumpi\n      0x00\n      dup1\n      revert\n    tag_34:\n      dup1\n      0xc884ef83\n      gt\n      tag_36\n      jumpi\n      dup1\n      0xc884ef83\n      eq\n      tag_21\n      jumpi\n      dup1\n      0xd6b0f484\n      eq\n      tag_22\n      jumpi\n      dup1\n      0xd936547e\n      eq\n      tag_23\n      jumpi\n      dup1\n      0xd96a094a\n      eq\n      tag_24\n      jumpi\n      0x00\n      dup1\n      revert\n    tag_36:\n      dup1\n      0xa4d66daf\n      eq\n      tag_17\n      jumpi\n      dup1\n      0xa5ebf835\n      eq\n      tag_18\n      jumpi\n      dup1\n      0xa960c65f\n      eq\n      tag_19\n      jumpi\n      dup1\n      0xbd8aa780\n      eq\n      tag_20\n      jumpi\n      0x00\n      dup1\n      revert\n    tag_33:\n      dup1\n      0x5ed9ebfc\n      gt\n      tag_37\n      jumpi\n      dup1\n      0x856734c4\n      gt\n      tag_38\n      jumpi\n      dup1\n      0x856734c4\n      eq\n      tag_13\n      jumpi\n      dup1\n      0x8da5cb5b\n      eq\n      tag_14\n      jumpi\n      dup1\n      0x9b8906ae\n      eq\n      tag_15\n      jumpi\n      dup1\n      0x9c92431b\n      eq\n      tag_16\n      jumpi\n      0x00\n      dup1\n      revert\n    tag_38:\n      dup1\n      0x5ed9ebfc\n      eq\n      tag_9\n      jumpi\n      dup1\n      0x667022fd\n      eq\n      tag_10\n      jumpi\n      dup1\n      0x715018a6\n      eq\n      tag_11\n      jumpi\n      dup1\n      0x7b1b1de6\n      eq\n      tag_12\n      jumpi\n      0x00\n      dup1\n      revert\n    tag_37:\n      dup1\n      0x2fba2c85\n      gt\n      tag_39\n      jumpi\n      dup1\n      0x2fba2c85\n      eq\n      tag_5\n      jumpi\n      dup1\n      0x3013ce29\n      eq\n      tag_6\n      jumpi\n      dup1\n      0x4e71d92d\n      eq\n      tag_7\n      jumpi\n      dup1\n      0x5372a58e\n      eq\n      tag_8\n      jumpi\n      0x00\n      dup1\n      revert\n    tag_39:\n      dup1\n      0x0c0e0862\n      eq\n      tag_2\n      jumpi\n      dup1\n      0x151bad0a\n      eq\n      tag_3\n      jumpi\n      dup1\n      0x2f661946\n      eq\n      tag_4\n      jumpi\n    tag_1:\n      0x00\n      dup1\n      revert\n        /* \"contracts/PreSale.sol\":6069:6245  function updateAfterDays(uint256 _afterDays) public onlyOwner {... */\n    tag_2:\n      callvalue\n      dup1\n      iszero\n      tag_40\n      jumpi\n      0x00\n      dup1\n      revert\n    tag_40:\n      pop\n      tag_41\n      tag_42\n      calldatasize\n      0x04\n      tag_43\n      jump\t// in\n    tag_42:\n      tag_44\n      jump\t// in\n    tag_41:\n      stop\n        /* \"contracts/PreSale.sol\":1642:1690  uint256 constant public percentagePerPeriod = 50 */\n    tag_3:\n      callvalue\n      dup1\n      iszero\n      tag_45\n      jumpi\n      0x00\n      dup1\n      revert\n    tag_45:\n      pop\n      tag_46\n        /* \"contracts/PreSale.sol\":1688:1690  50 */\n      0x32\n        /* \"contracts/PreSale.sol\":1642:1690  uint256 constant public percentagePerPeriod = 50 */\n      dup2\n      jump\n    tag_46:\n      mload(0x40)\n        /* \"#utility.yul\":14882:14907   */\n      swap1\n      dup2\n      mstore\n        /* \"#utility.yul\":14870:14872   */\n      0x20\n        /* \"#utility.yul\":14855:14873   */\n      add\n        /* \"contracts/PreSale.sol\":1642:1690  uint256 constant public percentagePerPeriod = 50 */\n    tag_48:\n      mload(0x40)\n      dup1\n      swap2\n      sub\n      swap1\n      return\n        /* \"contracts/PreSale.sol\":1774:1814  uint256 constant public cliffPeriod = 90 */\n    tag_4:\n      callvalue\n      dup1\n      iszero\n      tag_50\n      jumpi\n      0x00\n      dup1\n      revert\n    tag_50:\n      pop\n      tag_46\n        /* \"contracts/PreSale.sol\":1812:1814  90 */\n      0x5a\n        /* \"contracts/PreSale.sol\":1774:1814  uint256 constant public cliffPeriod = 90 */\n      dup2\n      jump\n        /* \"contracts/PreSale.sol\":7878:8153  function getRemainingBalance() public view returns (uint256) {... */\n    tag_5:\n      callvalue\n      dup1\n      iszero\n      tag_54\n      jumpi\n      0x00\n      dup1\n      revert\n    tag_54:\n      pop\n      tag_46\n      tag_56\n      jump\t// in\n        /* \"contracts/PreSale.sol\":929:955  IERC20 public paymentToken */\n    tag_6:\n      callvalue\n      dup1\n      iszero\n      tag_58\n      jumpi\n      0x00\n      dup1\n      revert\n    tag_58:\n      pop\n      sload(0x02)\n      tag_59\n      swap1\n      sub(shl(0xa0, 0x01), 0x01)\n      and\n      dup2\n      jump\n    tag_59:\n      mload(0x40)\n      sub(shl(0xa0, 0x01), 0x01)\n        /* \"#utility.yul\":3891:3923   */\n      swap1\n      swap2\n      and\n        /* \"#utility.yul\":3873:3924   */\n      dup2\n      mstore\n        /* \"#utility.yul\":3861:3863   */\n      0x20\n        /* \"#utility.yul\":3846:3864   */\n      add\n        /* \"contracts/PreSale.sol\":929:955  IERC20 public paymentToken */\n      tag_48\n        /* \"#utility.yul\":3727:3930   */\n      jump\n        /* \"contracts/PreSale.sol\":10200:12012  function claim() public {... */\n    tag_7:\n      callvalue\n      dup1\n      iszero\n      tag_63\n      jumpi\n      0x00\n      dup1\n      revert\n    tag_63:\n      pop\n      tag_41\n      tag_65\n      jump\t// in\n        /* \"contracts/PreSale.sol\":6628:7549  function whitelistFromSAFT(address[] memory addresses, uint256[] memory amounts) public onlyOwner {... */\n    tag_8:\n      callvalue\n      dup1\n      iszero\n      tag_66\n      jumpi\n      0x00\n      dup1\n      revert\n    tag_66:\n      pop\n      tag_41\n      tag_68\n      calldatasize\n      0x04\n      tag_69\n      jump\t// in\n    tag_68:\n      tag_70\n      jump\t// in\n        /* \"contracts/PreSale.sol\":1194:1219  uint256 public soldTokens */\n    tag_9:\n      callvalue\n      dup1\n      iszero\n      tag_71\n      jumpi\n      0x00\n      dup1\n      revert\n    tag_71:\n      pop\n      tag_46\n      sload(0x06)\n      dup2\n      jump\n        /* \"contracts/PreSale.sol\":2063:2104  mapping(address => uint256) public bought */\n    tag_10:\n      callvalue\n      dup1\n      iszero\n      tag_75\n      jumpi\n      0x00\n      dup1\n      revert\n    tag_75:\n      pop\n      tag_46\n      tag_77\n      calldatasize\n      0x04\n      tag_78\n      jump\t// in\n    tag_77:\n      mstore(0x20, 0x0b)\n      0x00\n      swap1\n      dup2\n      mstore\n      0x40\n      swap1\n      keccak256\n      sload\n      dup2\n      jump\n        /* \"@openzeppelin/contracts/access/Ownable.sol\":1605:1697  function renounceOwnership() public virtual onlyOwner {... */\n    tag_11:\n      callvalue\n      dup1\n      iszero\n      tag_81\n      jumpi\n      0x00\n      dup1\n      revert\n    tag_81:\n      pop\n      tag_41\n      tag_83\n      jump\t// in\n        /* \"contracts/PreSale.sol\":967:995  uint256 public pricePerToken */\n    tag_12:\n      callvalue\n      dup1\n      iszero\n      tag_84\n      jumpi\n      0x00\n      dup1\n      revert\n    tag_84:\n      pop\n      tag_46\n      sload(0x03)\n      dup2\n      jump\n        /* \"contracts/PreSale.sol\":1900:1935  bool public requireWhitelist = true */\n    tag_13:\n      callvalue\n      dup1\n      iszero\n      tag_88\n      jumpi\n      0x00\n      dup1\n      revert\n    tag_88:\n      pop\n      sload(0x09)\n      tag_89\n      swap1\n      0xff\n      and\n      dup2\n      jump\n    tag_89:\n      mload(0x40)\n        /* \"#utility.yul\":4759:4773   */\n      swap1\n      iszero\n        /* \"#utility.yul\":4752:4774   */\n      iszero\n        /* \"#utility.yul\":4734:4775   */\n      dup2\n      mstore\n        /* \"#utility.yul\":4722:4724   */\n      0x20\n        /* \"#utility.yul\":4707:4725   */\n      add\n        /* \"contracts/PreSale.sol\":1900:1935  bool public requireWhitelist = true */\n      tag_48\n        /* \"#utility.yul\":4594:4781   */\n      jump\n        /* \"@openzeppelin/contracts/access/Ownable.sol\":973:1058  function owner() public view virtual returns (address) {... */\n    tag_14:\n      callvalue\n      dup1\n      iszero\n      tag_93\n      jumpi\n      0x00\n      dup1\n      revert\n    tag_93:\n      pop\n        /* \"@openzeppelin/contracts/access/Ownable.sol\":1019:1026  address */\n      0x00\n        /* \"@openzeppelin/contracts/access/Ownable.sol\":1045:1051  _owner */\n      sload\n      sub(shl(0xa0, 0x01), 0x01)\n      and\n        /* \"@openzeppelin/contracts/access/Ownable.sol\":973:1058  function owner() public view virtual returns (address) {... */\n      jump(tag_59)\n        /* \"contracts/PreSale.sol\":1261:1289  uint256 public saleEnded = 0 */\n    tag_15:\n      callvalue\n      dup1\n      iszero\n      tag_98\n      jumpi\n      0x00\n      dup1\n      revert\n    tag_98:\n      pop\n      tag_46\n      sload(0x07)\n      dup2\n      jump\n        /* \"contracts/PreSale.sol\":8163:8676  function getCurrentPercentage() public view returns (uint256) {... */\n    tag_16:\n      callvalue\n      dup1\n      iszero\n      tag_102\n      jumpi\n      0x00\n      dup1\n      revert\n    tag_102:\n      pop\n      tag_46\n      tag_104\n      jump\t// in\n        /* \"contracts/PreSale.sol\":1034:1054  uint256 public limit */\n    tag_17:\n      callvalue\n      dup1\n      iszero\n      tag_106\n      jumpi\n      0x00\n      dup1\n      revert\n    tag_106:\n      pop\n      tag_46\n      sload(0x04)\n      dup2\n      jump\n        /* \"contracts/PreSale.sol\":1515:1567  uint256 constant public initialClaimPercentage = 100 */\n    tag_18:\n      callvalue\n      dup1\n      iszero\n      tag_110\n      jumpi\n      0x00\n      dup1\n      revert\n    tag_110:\n      pop\n      tag_46\n        /* \"contracts/PreSale.sol\":1564:1567  100 */\n      0x64\n        /* \"contracts/PreSale.sol\":1515:1567  uint256 constant public initialClaimPercentage = 100 */\n      dup2\n      jump\n        /* \"contracts/PreSale.sol\":2255:2303  mapping(address => uint256) public claimedTokens */\n    tag_19:\n      callvalue\n      dup1\n      iszero\n      tag_114\n      jumpi\n      0x00\n      dup1\n      revert\n    tag_114:\n      pop\n      tag_46\n      tag_116\n      calldatasize\n      0x04\n      tag_78\n      jump\t// in\n    tag_116:\n      mstore(0x20, 0x0d)\n      0x00\n      swap1\n      dup2\n      mstore\n      0x40\n      swap1\n      keccak256\n      sload\n      dup2\n      jump\n        /* \"contracts/PreSale.sol\":6259:6622  function whitelist(address[] memory addresses) public onlyOwner {... */\n    tag_20:\n      callvalue\n      dup1\n      iszero\n      tag_119\n      jumpi\n      0x00\n      dup1\n      revert\n    tag_119:\n      pop\n      tag_41\n      tag_121\n      calldatasize\n      0x04\n      tag_122\n      jump\t// in\n    tag_121:\n      tag_123\n      jump\t// in\n        /* \"contracts/PreSale.sol\":2152:2194  mapping(address => uint256) public claimed */\n    tag_21:\n      callvalue\n      dup1\n      iszero\n      tag_124\n      jumpi\n      0x00\n      dup1\n      revert\n    tag_124:\n      pop\n      tag_46\n      tag_126\n      calldatasize\n      0x04\n      tag_78\n      jump\t// in\n    tag_126:\n      mstore(0x20, 0x0c)\n      0x00\n      swap1\n      dup2\n      mstore\n      0x40\n      swap1\n      keccak256\n      sload\n      dup2\n      jump\n        /* \"contracts/PreSale.sol\":5090:5268  function disableWhitelist() public onlyOwner {... */\n    tag_22:\n      callvalue\n      dup1\n      iszero\n      tag_129\n      jumpi\n      0x00\n      dup1\n      revert\n    tag_129:\n      pop\n      tag_41\n      tag_131\n      jump\t// in\n        /* \"contracts/PreSale.sol\":2014:2057  mapping(address => bool) public whitelisted */\n    tag_23:\n      callvalue\n      dup1\n      iszero\n      tag_132\n      jumpi\n      0x00\n      dup1\n      revert\n    tag_132:\n      pop\n      tag_89\n      tag_134\n      calldatasize\n      0x04\n      tag_78\n      jump\t// in\n    tag_134:\n      mstore(0x20, 0x0a)\n      0x00\n      swap1\n      dup2\n      mstore\n      0x40\n      swap1\n      keccak256\n      sload\n      0xff\n      and\n      dup2\n      jump\n        /* \"contracts/PreSale.sol\":9012:10063  function buy(uint256 amount) public payable {... */\n    tag_24:\n      tag_41\n      tag_138\n      calldatasize\n      0x04\n      tag_43\n      jump\t// in\n    tag_138:\n      tag_139\n      jump\t// in\n        /* \"contracts/PreSale.sol\":1343:1367  uint256 public afterDays */\n    tag_25:\n      callvalue\n      dup1\n      iszero\n      tag_140\n      jumpi\n      0x00\n      dup1\n      revert\n    tag_140:\n      pop\n      tag_46\n      sload(0x08)\n      dup2\n      jump\n        /* \"contracts/PreSale.sol\":1434:1469  uint256 constant public period = 30 */\n    tag_26:\n      callvalue\n      dup1\n      iszero\n      tag_144\n      jumpi\n      0x00\n      dup1\n      revert\n    tag_144:\n      pop\n      tag_46\n        /* \"contracts/PreSale.sol\":1467:1469  30 */\n      0x1e\n        /* \"contracts/PreSale.sol\":1434:1469  uint256 constant public period = 30 */\n      dup2\n      jump\n        /* \"contracts/PreSale.sol\":3916:5080  function claimAndEndSale(uint256 _afterDays) public onlyOwner {... */\n    tag_27:\n      callvalue\n      dup1\n      iszero\n      tag_148\n      jumpi\n      0x00\n      dup1\n      revert\n    tag_148:\n      pop\n      tag_41\n      tag_150\n      calldatasize\n      0x04\n      tag_43\n      jump\t// in\n    tag_150:\n      tag_151\n      jump\t// in\n        /* \"@openzeppelin/contracts/access/Ownable.sol\":1846:2035  function transferOwnership(address newOwner) public virtual onlyOwner {... */\n    tag_28:\n      callvalue\n      dup1\n      iszero\n      tag_152\n      jumpi\n      0x00\n      dup1\n      revert\n    tag_152:\n      pop\n      tag_41\n      tag_154\n      calldatasize\n      0x04\n      tag_78\n      jump\t// in\n    tag_154:\n      tag_155\n      jump\t// in\n        /* \"contracts/PreSale.sol\":2351:2402  mapping(address => address) public lastClaimAddress */\n    tag_29:\n      callvalue\n      dup1\n      iszero\n      tag_156\n      jumpi\n      0x00\n      dup1\n      revert\n    tag_156:\n      pop\n      tag_59\n      tag_158\n      calldatasize\n      0x04\n      tag_78\n      jump\t// in\n    tag_158:\n      mstore(0x20, 0x0e)\n      0x00\n      swap1\n      dup2\n      mstore\n      0x40\n      swap1\n      keccak256\n      sload\n      sub(shl(0xa0, 0x01), 0x01)\n      and\n      dup2\n      jump\n        /* \"contracts/PreSale.sol\":884:909  IERC20 public rewardToken */\n    tag_30:\n      callvalue\n      dup1\n      iszero\n      tag_161\n      jumpi\n      0x00\n      dup1\n      revert\n    tag_161:\n      pop\n      sload(0x01)\n      tag_59\n      swap1\n      sub(shl(0xa0, 0x01), 0x01)\n      and\n      dup2\n      jump\n        /* \"contracts/PreSale.sol\":1109:1131  uint256 public softcap */\n    tag_31:\n      callvalue\n      dup1\n      iszero\n      tag_165\n      jumpi\n      0x00\n      dup1\n      revert\n    tag_165:\n      pop\n      tag_46\n      sload(0x05)\n      dup2\n      jump\n        /* \"contracts/PreSale.sol\":5546:6059  function updateRewardToken(IERC20 _newRewardToken) public onlyOwner {... */\n    tag_32:\n      callvalue\n      dup1\n      iszero\n      tag_169\n      jumpi\n      0x00\n      dup1\n      revert\n    tag_169:\n      pop\n      tag_41\n      tag_171\n      calldatasize\n      0x04\n      tag_78\n      jump\t// in\n    tag_171:\n      tag_173\n      jump\t// in\n        /* \"contracts/PreSale.sol\":6069:6245  function updateAfterDays(uint256 _afterDays) public onlyOwner {... */\n    tag_44:\n        /* \"@openzeppelin/contracts/access/Ownable.sol\":1019:1026  address */\n      0x00\n        /* \"@openzeppelin/contracts/access/Ownable.sol\":1045:1051  _owner */\n      sload\n      sub(shl(0xa0, 0x01), 0x01)\n      and\n        /* \"@openzeppelin/contracts/utils/Context.sol\":665:675  msg.sender */\n      caller\n        /* \"@openzeppelin/contracts/access/Ownable.sol\":1185:1208  owner() == _msgSender() */\n      eq\n        /* \"@openzeppelin/contracts/access/Ownable.sol\":1177:1245  require(owner() == _msgSender(), \"Ownable: caller is not the owner\") */\n      tag_178\n      jumpi\n      mload(0x40)\n      shl(0xe5, 0x461bcd)\n      dup2\n      mstore\n      0x04\n      add\n      tag_179\n      swap1\n      tag_180\n      jump\t// in\n    tag_179:\n      mload(0x40)\n      dup1\n      swap2\n      sub\n      swap1\n      revert\n    tag_178:\n        /* \"contracts/PreSale.sol\":6149:6158  saleEnded */\n      sload(0x07)\n        /* \"contracts/PreSale.sol\":6141:6206  require(saleEnded != 0, \"ABOAT::updateAfterDays: Sale not ended\") */\n      tag_182\n      jumpi\n      mload(0x40)\n      shl(0xe5, 0x461bcd)\n      dup2\n      mstore\n        /* \"#utility.yul\":13750:13752   */\n      0x20\n        /* \"contracts/PreSale.sol\":6141:6206  require(saleEnded != 0, \"ABOAT::updateAfterDays: Sale not ended\") */\n      0x04\n      dup3\n      add\n        /* \"#utility.yul\":13732:13753   */\n      mstore\n        /* \"#utility.yul\":13789:13791   */\n      0x26\n        /* \"#utility.yul\":13769:13787   */\n      0x24\n      dup3\n      add\n        /* \"#utility.yul\":13762:13792   */\n      mstore\n        /* \"#utility.yul\":13828:13862   */\n      0x41424f41543a3a7570646174654166746572446179733a2053616c65206e6f74\n        /* \"#utility.yul\":13808:13826   */\n      0x44\n      dup3\n      add\n        /* \"#utility.yul\":13801:13863   */\n      mstore\n      shl(0xd2, 0x08195b991959)\n        /* \"#utility.yul\":13879:13897   */\n      0x64\n      dup3\n      add\n        /* \"#utility.yul\":13872:13908   */\n      mstore\n        /* \"#utility.yul\":13925:13944   */\n      0x84\n      add\n        /* \"contracts/PreSale.sol\":6141:6206  require(saleEnded != 0, \"ABOAT::updateAfterDays: Sale not ended\") */\n      tag_179\n        /* \"#utility.yul\":13548:13950   */\n      jump\n        /* \"contracts/PreSale.sol\":6141:6206  require(saleEnded != 0, \"ABOAT::updateAfterDays: Sale not ended\") */\n    tag_182:\n        /* \"contracts/PreSale.sol\":6216:6225  afterDays */\n      0x08\n        /* \"contracts/PreSale.sol\":6216:6238  afterDays = _afterDays */\n      sstore\n        /* \"contracts/PreSale.sol\":6069:6245  function updateAfterDays(uint256 _afterDays) public onlyOwner {... */\n      jump\t// out\n        /* \"contracts/PreSale.sol\":7878:8153  function getRemainingBalance() public view returns (uint256) {... */\n    tag_56:\n        /* \"contracts/PreSale.sol\":7960:7971  rewardToken */\n      sload(0x01)\n        /* \"contracts/PreSale.sol\":7930:7937  uint256 */\n      0x00\n      swap1\n      sub(shl(0xa0, 0x01), 0x01)\n        /* \"contracts/PreSale.sol\":7960:7971  rewardToken */\n      and\n        /* \"contracts/PreSale.sol\":7949:8147  if(address(rewardToken) == address(0)) {... */\n      tag_186\n      jumpi\n        /* \"contracts/PreSale.sol\":8035:8045  soldTokens */\n      sload(0x06)\n        /* \"contracts/PreSale.sol\":8009:8046  address(this).balance.sub(soldTokens) */\n      tag_187\n      swap1\n        /* \"contracts/PreSale.sol\":8009:8030  address(this).balance */\n      selfbalance\n      swap1\n        /* \"contracts/PreSale.sol\":8009:8034  address(this).balance.sub */\n      tag_188\n        /* \"contracts/PreSale.sol\":8009:8046  address(this).balance.sub(soldTokens) */\n      jump\t// in\n    tag_187:\n        /* \"contracts/PreSale.sol\":8002:8046  return address(this).balance.sub(soldTokens) */\n      swap1\n      pop\n        /* \"contracts/PreSale.sol\":7878:8153  function getRemainingBalance() public view returns (uint256) {... */\n      swap1\n      jump\t// out\n        /* \"contracts/PreSale.sol\":7949:8147  if(address(rewardToken) == address(0)) {... */\n    tag_186:\n        /* \"contracts/PreSale.sol\":8125:8135  soldTokens */\n      sload(0x06)\n        /* \"contracts/PreSale.sol\":8084:8095  rewardToken */\n      sload(0x01)\n        /* \"contracts/PreSale.sol\":8084:8120  rewardToken.balanceOf(address(this)) */\n      mload(0x40)\n      shl(0xe0, 0x70a08231)\n      dup2\n      mstore\n        /* \"contracts/PreSale.sol\":8114:8118  this */\n      address\n        /* \"contracts/PreSale.sol\":8084:8120  rewardToken.balanceOf(address(this)) */\n      0x04\n      dup3\n      add\n        /* \"#utility.yul\":3873:3924   */\n      mstore\n        /* \"contracts/PreSale.sol\":8084:8136  rewardToken.balanceOf(address(this)).sub(soldTokens) */\n      tag_187\n      swap3\n        /* \"contracts/PreSale.sol\":8125:8135  soldTokens */\n      swap2\n      sub(shl(0xa0, 0x01), 0x01)\n        /* \"contracts/PreSale.sol\":8084:8095  rewardToken */\n      and\n      swap1\n        /* \"contracts/PreSale.sol\":8084:8105  rewardToken.balanceOf */\n      0x70a08231\n      swap1\n        /* \"#utility.yul\":3846:3864   */\n      0x24\n      add\n        /* \"contracts/PreSale.sol\":8084:8120  rewardToken.balanceOf(address(this)) */\n      0x20\n      mload(0x40)\n      dup1\n      dup4\n      sub\n      dup2\n      dup7\n      dup1\n      extcodesize\n      iszero\n      dup1\n      iszero\n      tag_192\n      jumpi\n      0x00\n      dup1\n      revert\n    tag_192:\n      pop\n      gas\n      staticcall\n      iszero\n      dup1\n      iszero\n      tag_194\n      jumpi\n      returndatasize\n      0x00\n      dup1\n      returndatacopy\n      revert(0x00, returndatasize)\n    tag_194:\n      pop\n      pop\n      pop\n      pop\n      mload(0x40)\n      returndatasize\n      not(0x1f)\n      0x1f\n      dup3\n      add\n      and\n      dup3\n      add\n      dup1\n      0x40\n      mstore\n      pop\n      dup2\n      add\n      swap1\n      tag_195\n      swap2\n      swap1\n      tag_196\n      jump\t// in\n    tag_195:\n        /* \"contracts/PreSale.sol\":8084:8124  rewardToken.balanceOf(address(this)).sub */\n      swap1\n      tag_188\n        /* \"contracts/PreSale.sol\":8084:8136  rewardToken.balanceOf(address(this)).sub(soldTokens) */\n      jump\t// in\n        /* \"contracts/PreSale.sol\":10200:12012  function claim() public {... */\n    tag_65:\n        /* \"contracts/PreSale.sol\":10242:10251  saleEnded */\n      sload(0x07)\n        /* \"contracts/PreSale.sol\":10234:10296  require(saleEnded != 0, \"ABOAT::claim: Sale is not over yet!\") */\n      tag_198\n      jumpi\n      mload(0x40)\n      shl(0xe5, 0x461bcd)\n      dup2\n      mstore\n        /* \"#utility.yul\":12110:12112   */\n      0x20\n        /* \"contracts/PreSale.sol\":10234:10296  require(saleEnded != 0, \"ABOAT::claim: Sale is not over yet!\") */\n      0x04\n      dup3\n      add\n        /* \"#utility.yul\":12092:12113   */\n      mstore\n        /* \"#utility.yul\":12149:12151   */\n      0x23\n        /* \"#utility.yul\":12129:12147   */\n      0x24\n      dup3\n      add\n        /* \"#utility.yul\":12122:12152   */\n      mstore\n        /* \"#utility.yul\":12188:12222   */\n      0x41424f41543a3a636c61696d3a2053616c65206973206e6f74206f7665722079\n        /* \"#utility.yul\":12168:12186   */\n      0x44\n      dup3\n      add\n        /* \"#utility.yul\":12161:12223   */\n      mstore\n      shl(0xe8, 0x657421)\n        /* \"#utility.yul\":12239:12257   */\n      0x64\n      dup3\n      add\n        /* \"#utility.yul\":12232:12265   */\n      mstore\n        /* \"#utility.yul\":12282:12301   */\n      0x84\n      add\n        /* \"contracts/PreSale.sol\":10234:10296  require(saleEnded != 0, \"ABOAT::claim: Sale is not over yet!\") */\n      tag_179\n        /* \"#utility.yul\":11908:12307   */\n      jump\n        /* \"contracts/PreSale.sol\":10234:10296  require(saleEnded != 0, \"ABOAT::claim: Sale is not over yet!\") */\n    tag_198:\n        /* \"contracts/PreSale.sol\":10348:10357  afterDays */\n      sload(0x08)\n        /* \"contracts/PreSale.sol\":10333:10371  saleEnded.add((afterDays.mul(1 days))) */\n      tag_201\n      swap1\n        /* \"contracts/PreSale.sol\":10348:10369  afterDays.mul(1 days) */\n      tag_202\n      swap1\n        /* \"contracts/PreSale.sol\":10362:10368  1 days */\n      0x015180\n        /* \"contracts/PreSale.sol\":10348:10361  afterDays.mul */\n      tag_203\n        /* \"contracts/PreSale.sol\":10348:10369  afterDays.mul(1 days) */\n      jump\t// in\n    tag_202:\n        /* \"contracts/PreSale.sol\":10333:10342  saleEnded */\n      sload(0x07)\n      swap1\n        /* \"contracts/PreSale.sol\":10333:10346  saleEnded.add */\n      tag_204\n        /* \"contracts/PreSale.sol\":10333:10371  saleEnded.add((afterDays.mul(1 days))) */\n      jump\t// in\n    tag_201:\n        /* \"contracts/PreSale.sol\":10314:10329  block.timestamp */\n      timestamp\n        /* \"contracts/PreSale.sol\":10314:10371  block.timestamp >= saleEnded.add((afterDays.mul(1 days))) */\n      lt\n      iszero\n        /* \"contracts/PreSale.sol\":10306:10417  require(block.timestamp >= saleEnded.add((afterDays.mul(1 days))), \"ABOAT::claim: Claim is not available yet.\") */\n      tag_205\n      jumpi\n      mload(0x40)\n      shl(0xe5, 0x461bcd)\n      dup2\n      mstore\n        /* \"#utility.yul\":7274:7276   */\n      0x20\n        /* \"contracts/PreSale.sol\":10306:10417  require(block.timestamp >= saleEnded.add((afterDays.mul(1 days))), \"ABOAT::claim: Claim is not available yet.\") */\n      0x04\n      dup3\n      add\n        /* \"#utility.yul\":7256:7277   */\n      mstore\n        /* \"#utility.yul\":7313:7315   */\n      0x29\n        /* \"#utility.yul\":7293:7311   */\n      0x24\n      dup3\n      add\n        /* \"#utility.yul\":7286:7316   */\n      mstore\n        /* \"#utility.yul\":7352:7386   */\n      0x41424f41543a3a636c61696d3a20436c61696d206973206e6f7420617661696c\n        /* \"#utility.yul\":7332:7350   */\n      0x44\n      dup3\n      add\n        /* \"#utility.yul\":7325:7387   */\n      mstore\n      shl(0xb9, 0x30b13632903cb2ba17)\n        /* \"#utility.yul\":7403:7421   */\n      0x64\n      dup3\n      add\n        /* \"#utility.yul\":7396:7435   */\n      mstore\n        /* \"#utility.yul\":7452:7471   */\n      0x84\n      add\n        /* \"contracts/PreSale.sol\":10306:10417  require(block.timestamp >= saleEnded.add((afterDays.mul(1 days))), \"ABOAT::claim: Claim is not available yet.\") */\n      tag_179\n        /* \"#utility.yul\":7072:7477   */\n      jump\n        /* \"contracts/PreSale.sol\":10306:10417  require(block.timestamp >= saleEnded.add((afterDays.mul(1 days))), \"ABOAT::claim: Claim is not available yet.\") */\n    tag_205:\n        /* \"contracts/PreSale.sol\":10427:10452  uint256 currentPercentage */\n      0x00\n        /* \"contracts/PreSale.sol\":10455:10477  getCurrentPercentage() */\n      tag_208\n        /* \"contracts/PreSale.sol\":10455:10475  getCurrentPercentage */\n      tag_104\n        /* \"contracts/PreSale.sol\":10455:10477  getCurrentPercentage() */\n      jump\t// in\n    tag_208:\n        /* \"contracts/PreSale.sol\":10427:10477  uint256 currentPercentage = getCurrentPercentage() */\n      swap1\n      pop\n        /* \"contracts/PreSale.sol\":10515:10516  0 */\n      0x00\n        /* \"contracts/PreSale.sol\":10495:10512  currentPercentage */\n      dup2\n        /* \"contracts/PreSale.sol\":10495:10516  currentPercentage > 0 */\n      gt\n        /* \"contracts/PreSale.sol\":10487:10614  require(currentPercentage > 0, \"ABOAT::claim: The percentage of token you can claim is currently zero. Please try again later\") */\n      tag_209\n      jumpi\n      mload(0x40)\n      shl(0xe5, 0x461bcd)\n      dup2\n      mstore\n        /* \"#utility.yul\":9898:9900   */\n      0x20\n        /* \"contracts/PreSale.sol\":10487:10614  require(currentPercentage > 0, \"ABOAT::claim: The percentage of token you can claim is currently zero. Please try again later\") */\n      0x04\n      dup3\n      add\n        /* \"#utility.yul\":9880:9901   */\n      mstore\n        /* \"#utility.yul\":9937:9939   */\n      0x5d\n        /* \"#utility.yul\":9917:9935   */\n      0x24\n      dup3\n      add\n        /* \"#utility.yul\":9910:9940   */\n      mstore\n        /* \"#utility.yul\":9976:10010   */\n      0x41424f41543a3a636c61696d3a205468652070657263656e74616765206f6620\n        /* \"#utility.yul\":9956:9974   */\n      0x44\n      dup3\n      add\n        /* \"#utility.yul\":9949:10011   */\n      mstore\n        /* \"#utility.yul\":10047:10081   */\n      0x746f6b656e20796f752063616e20636c61696d2069732063757272656e746c79\n        /* \"#utility.yul\":10027:10045   */\n      0x64\n      dup3\n      add\n        /* \"#utility.yul\":10020:10082   */\n      mstore\n        /* \"#utility.yul\":10119:10150   */\n      0x207a65726f2e20506c656173652074727920616761696e206c61746572000000\n        /* \"#utility.yul\":10098:10117   */\n      0x84\n      dup3\n      add\n        /* \"#utility.yul\":10091:10151   */\n      mstore\n        /* \"#utility.yul\":10168:10187   */\n      0xa4\n      add\n        /* \"contracts/PreSale.sol\":10487:10614  require(currentPercentage > 0, \"ABOAT::claim: The percentage of token you can claim is currently zero. Please try again later\") */\n      tag_179\n        /* \"#utility.yul\":9696:10193   */\n      jump\n        /* \"contracts/PreSale.sol\":10487:10614  require(currentPercentage > 0, \"ABOAT::claim: The percentage of token you can claim is currently zero. Please try again later\") */\n    tag_209:\n        /* \"contracts/PreSale.sol\":10667:10678  rewardToken */\n      sload(0x01)\n        /* \"contracts/PreSale.sol\":10644:10654  msg.sender */\n      caller\n        /* \"contracts/PreSale.sol\":10667:10678  rewardToken */\n      0x00\n        /* \"contracts/PreSale.sol\":10627:10655  lastClaimAddress[msg.sender] */\n      swap1\n      dup2\n      mstore\n        /* \"contracts/PreSale.sol\":10627:10643  lastClaimAddress */\n      0x0e\n        /* \"contracts/PreSale.sol\":10627:10655  lastClaimAddress[msg.sender] */\n      0x20\n      mstore\n      0x40\n      swap1\n      keccak256\n      sload\n      sub(shl(0xa0, 0x01), 0x01)\n      swap1\n      dup2\n      and\n        /* \"contracts/PreSale.sol\":10667:10678  rewardToken */\n      swap2\n      and\n        /* \"contracts/PreSale.sol\":10627:10679  lastClaimAddress[msg.sender] != address(rewardToken) */\n      eq\n        /* \"contracts/PreSale.sol\":10624:10837  if(lastClaimAddress[msg.sender] != address(rewardToken)) {... */\n      tag_212\n      jumpi\n        /* \"contracts/PreSale.sol\":10734:10745  rewardToken */\n      sload(0x01)\n        /* \"contracts/PreSale.sol\":10712:10722  msg.sender */\n      caller\n        /* \"contracts/PreSale.sol\":10734:10745  rewardToken */\n      0x00\n        /* \"contracts/PreSale.sol\":10695:10723  lastClaimAddress[msg.sender] */\n      swap1\n      dup2\n      mstore\n        /* \"contracts/PreSale.sol\":10695:10711  lastClaimAddress */\n      0x0e\n        /* \"contracts/PreSale.sol\":10695:10723  lastClaimAddress[msg.sender] */\n      0x20\n      swap1\n      dup2\n      mstore\n      0x40\n      dup1\n      dup4\n      keccak256\n        /* \"contracts/PreSale.sol\":10695:10746  lastClaimAddress[msg.sender] = address(rewardToken) */\n      dup1\n      sload\n      not(sub(shl(0xa0, 0x01), 0x01))\n      and\n      sub(shl(0xa0, 0x01), 0x01)\n        /* \"contracts/PreSale.sol\":10734:10745  rewardToken */\n      swap1\n      swap6\n      and\n        /* \"contracts/PreSale.sol\":10695:10746  lastClaimAddress[msg.sender] = address(rewardToken) */\n      swap5\n      swap1\n      swap5\n      or\n      swap1\n      swap4\n      sstore\n        /* \"contracts/PreSale.sol\":10760:10767  claimed */\n      0x0c\n        /* \"contracts/PreSale.sol\":10760:10779  claimed[msg.sender] */\n      dup2\n      mstore\n      dup3\n      dup3\n      keccak256\n        /* \"contracts/PreSale.sol\":10760:10783  claimed[msg.sender] = 0 */\n      dup3\n      swap1\n      sstore\n        /* \"contracts/PreSale.sol\":10797:10810  claimedTokens */\n      0x0d\n        /* \"contracts/PreSale.sol\":10797:10822  claimedTokens[msg.sender] */\n      swap1\n      mstore\n      swap1\n      dup2\n      keccak256\n        /* \"contracts/PreSale.sol\":10797:10826  claimedTokens[msg.sender] = 0 */\n      sstore\n        /* \"contracts/PreSale.sol\":10624:10837  if(lastClaimAddress[msg.sender] != address(rewardToken)) {... */\n    tag_212:\n        /* \"contracts/PreSale.sol\":10862:10872  msg.sender */\n      caller\n        /* \"contracts/PreSale.sol\":10854:10873  claimed[msg.sender] */\n      0x00\n      swap1\n      dup2\n      mstore\n        /* \"contracts/PreSale.sol\":10854:10861  claimed */\n      0x0c\n        /* \"contracts/PreSale.sol\":10854:10873  claimed[msg.sender] */\n      0x20\n      mstore\n      0x40\n      swap1\n      keccak256\n      sload\n        /* \"contracts/PreSale.sol\":10854:10893  claimed[msg.sender] < currentPercentage */\n      dup2\n      gt\n        /* \"contracts/PreSale.sol\":10846:10958  require(claimed[msg.sender] < currentPercentage, \"ABOAT::claim: Already claimed your currently eligible tokens\") */\n      tag_213\n      jumpi\n      mload(0x40)\n      shl(0xe5, 0x461bcd)\n      dup2\n      mstore\n        /* \"#utility.yul\":7684:7686   */\n      0x20\n        /* \"contracts/PreSale.sol\":10846:10958  require(claimed[msg.sender] < currentPercentage, \"ABOAT::claim: Already claimed your currently eligible tokens\") */\n      0x04\n      dup3\n      add\n        /* \"#utility.yul\":7666:7687   */\n      mstore\n        /* \"#utility.yul\":7723:7725   */\n      0x3c\n        /* \"#utility.yul\":7703:7721   */\n      0x24\n      dup3\n      add\n        /* \"#utility.yul\":7696:7726   */\n      mstore\n        /* \"#utility.yul\":7762:7796   */\n      0x41424f41543a3a636c61696d3a20416c726561647920636c61696d656420796f\n        /* \"#utility.yul\":7742:7760   */\n      0x44\n      dup3\n      add\n        /* \"#utility.yul\":7735:7797   */\n      mstore\n        /* \"#utility.yul\":7833:7863   */\n      0x75722063757272656e746c7920656c696769626c6520746f6b656e7300000000\n        /* \"#utility.yul\":7813:7831   */\n      0x64\n      dup3\n      add\n        /* \"#utility.yul\":7806:7864   */\n      mstore\n        /* \"#utility.yul\":7881:7900   */\n      0x84\n      add\n        /* \"contracts/PreSale.sol\":10846:10958  require(claimed[msg.sender] < currentPercentage, \"ABOAT::claim: Already claimed your currently eligible tokens\") */\n      tag_179\n        /* \"#utility.yul\":7482:7906   */\n      jump\n        /* \"contracts/PreSale.sol\":10846:10958  require(claimed[msg.sender] < currentPercentage, \"ABOAT::claim: Already claimed your currently eligible tokens\") */\n    tag_213:\n        /* \"contracts/PreSale.sol\":10982:10992  soldTokens */\n      sload(0x06)\n        /* \"contracts/PreSale.sol\":10971:10978  softcap */\n      sload(0x05)\n        /* \"contracts/PreSale.sol\":10971:10992  softcap <= soldTokens */\n      gt\n        /* \"contracts/PreSale.sol\":10968:12006  if(softcap <= soldTokens) {... */\n      tag_216\n      jumpi\n        /* \"contracts/PreSale.sol\":11043:11053  msg.sender */\n      caller\n        /* \"contracts/PreSale.sol\":11008:11032  uint256 currentlyClaimed */\n      0x00\n        /* \"contracts/PreSale.sol\":11035:11054  claimed[msg.sender] */\n      swap1\n      dup2\n      mstore\n        /* \"contracts/PreSale.sol\":11035:11042  claimed */\n      0x0c\n        /* \"contracts/PreSale.sol\":11035:11054  claimed[msg.sender] */\n      0x20\n      mstore\n      0x40\n      dup2\n      keccak256\n      dup1\n      sload\n        /* \"contracts/PreSale.sol\":11068:11107  claimed[msg.sender] = currentPercentage */\n      swap1\n      dup4\n      swap1\n      sstore\n        /* \"contracts/PreSale.sol\":11226:11239  pricePerToken */\n      sload(0x03)\n        /* \"contracts/PreSale.sol\":11035:11054  claimed[msg.sender] */\n      swap1\n      swap2\n        /* \"contracts/PreSale.sol\":11008:11032  uint256 currentlyClaimed */\n      swap1\n        /* \"contracts/PreSale.sol\":11138:11240  bought[msg.sender].mul(currentPercentage.sub(currentlyClaimed)).div(1000).mul(1e18).div(pricePerToken) */\n      tag_217\n      swap1\n        /* \"contracts/PreSale.sol\":11138:11221  bought[msg.sender].mul(currentPercentage.sub(currentlyClaimed)).div(1000).mul(1e18) */\n      tag_220\n        /* \"contracts/PreSale.sol\":11216:11220  1e18 */\n      0x0de0b6b3a7640000\n        /* \"contracts/PreSale.sol\":11138:11211  bought[msg.sender].mul(currentPercentage.sub(currentlyClaimed)).div(1000) */\n      tag_219\n        /* \"contracts/PreSale.sol\":11206:11210  1000 */\n      0x03e8\n        /* \"contracts/PreSale.sol\":11138:11221  bought[msg.sender].mul(currentPercentage.sub(currentlyClaimed)).div(1000).mul(1e18) */\n      dup4\n        /* \"contracts/PreSale.sol\":11161:11200  currentPercentage.sub(currentlyClaimed) */\n      tag_221\n        /* \"contracts/PreSale.sol\":11090:11107  currentPercentage */\n      dup11\n        /* \"contracts/PreSale.sol\":11035:11054  claimed[msg.sender] */\n      dup11\n        /* \"contracts/PreSale.sol\":11161:11182  currentPercentage.sub */\n      tag_188\n        /* \"contracts/PreSale.sol\":11161:11200  currentPercentage.sub(currentlyClaimed) */\n      jump\t// in\n    tag_221:\n        /* \"contracts/PreSale.sol\":11145:11155  msg.sender */\n      caller\n        /* \"contracts/PreSale.sol\":11138:11156  bought[msg.sender] */\n      0x00\n      swap1\n      dup2\n      mstore\n        /* \"contracts/PreSale.sol\":11138:11144  bought */\n      0x0b\n        /* \"contracts/PreSale.sol\":11138:11156  bought[msg.sender] */\n      0x20\n      mstore\n      0x40\n      swap1\n      keccak256\n      sload\n      swap1\n        /* \"contracts/PreSale.sol\":11138:11160  bought[msg.sender].mul */\n      tag_203\n        /* \"contracts/PreSale.sol\":11138:11201  bought[msg.sender].mul(currentPercentage.sub(currentlyClaimed)) */\n      jump\t// in\n    tag_220:\n        /* \"contracts/PreSale.sol\":11138:11205  bought[msg.sender].mul(currentPercentage.sub(currentlyClaimed)).div */\n      swap1\n      tag_222\n        /* \"contracts/PreSale.sol\":11138:11211  bought[msg.sender].mul(currentPercentage.sub(currentlyClaimed)).div(1000) */\n      jump\t// in\n    tag_219:\n        /* \"contracts/PreSale.sol\":11138:11215  bought[msg.sender].mul(currentPercentage.sub(currentlyClaimed)).div(1000).mul */\n      swap1\n      tag_203\n        /* \"contracts/PreSale.sol\":11138:11221  bought[msg.sender].mul(currentPercentage.sub(currentlyClaimed)).div(1000).mul(1e18) */\n      jump\t// in\n        /* \"contracts/PreSale.sol\":11138:11240  bought[msg.sender].mul(currentPercentage.sub(currentlyClaimed)).div(1000).mul(1e18).div(pricePerToken) */\n    tag_217:\n        /* \"contracts/PreSale.sol\":11296:11306  msg.sender */\n      caller\n        /* \"contracts/PreSale.sol\":11282:11307  claimedTokens[msg.sender] */\n      0x00\n      swap1\n      dup2\n      mstore\n        /* \"contracts/PreSale.sol\":11282:11295  claimedTokens */\n      0x0d\n        /* \"contracts/PreSale.sol\":11282:11307  claimedTokens[msg.sender] */\n      0x20\n      mstore\n      0x40\n      swap1\n      keccak256\n      sload\n        /* \"contracts/PreSale.sol\":11121:11240  uint256 amount = bought[msg.sender].mul(currentPercentage.sub(currentlyClaimed)).div(1000).mul(1e18).div(pricePerToken) */\n      swap1\n      swap2\n      pop\n        /* \"contracts/PreSale.sol\":11282:11319  claimedTokens[msg.sender].add(amount) */\n      tag_223\n      swap1\n        /* \"contracts/PreSale.sol\":11121:11240  uint256 amount = bought[msg.sender].mul(currentPercentage.sub(currentlyClaimed)).div(1000).mul(1e18).div(pricePerToken) */\n      dup3\n        /* \"contracts/PreSale.sol\":11282:11311  claimedTokens[msg.sender].add */\n      tag_204\n        /* \"contracts/PreSale.sol\":11282:11319  claimedTokens[msg.sender].add(amount) */\n      jump\t// in\n    tag_223:\n        /* \"contracts/PreSale.sol\":11268:11278  msg.sender */\n      caller\n        /* \"contracts/PreSale.sol\":11254:11279  claimedTokens[msg.sender] */\n      0x00\n      swap1\n      dup2\n      mstore\n        /* \"contracts/PreSale.sol\":11254:11267  claimedTokens */\n      0x0d\n        /* \"contracts/PreSale.sol\":11254:11279  claimedTokens[msg.sender] */\n      0x20\n      mstore\n      0x40\n      swap1\n      keccak256\n        /* \"contracts/PreSale.sol\":11254:11319  claimedTokens[msg.sender] = claimedTokens[msg.sender].add(amount) */\n      sstore\n        /* \"contracts/PreSale.sol\":11344:11355  rewardToken */\n      and(sub(shl(0xa0, 0x01), 0x01), sload(0x01))\n        /* \"contracts/PreSale.sol\":11336:11370  address(rewardToken) != address(0) */\n      iszero\n        /* \"contracts/PreSale.sol\":11333:11563  if(address(rewardToken) != address(0)) {... */\n      tag_224\n      jumpi\n        /* \"contracts/PreSale.sol\":11426:11437  rewardToken */\n      sload(0x01)\n        /* \"contracts/PreSale.sol\":11390:11459  TransferHelper.safeTransfer(address(rewardToken), msg.sender, amount) */\n      tag_225\n      swap1\n      sub(shl(0xa0, 0x01), 0x01)\n        /* \"contracts/PreSale.sol\":11426:11437  rewardToken */\n      and\n        /* \"contracts/PreSale.sol\":11440:11450  msg.sender */\n      caller\n        /* \"contracts/PreSale.sol\":11452:11458  amount */\n      dup4\n        /* \"contracts/PreSale.sol\":11390:11417  TransferHelper.safeTransfer */\n      tag_226\n        /* \"contracts/PreSale.sol\":11390:11459  TransferHelper.safeTransfer(address(rewardToken), msg.sender, amount) */\n      jump\t// in\n    tag_225:\n        /* \"contracts/PreSale.sol\":11333:11563  if(address(rewardToken) != address(0)) {... */\n      jump(tag_228)\n    tag_224:\n        /* \"contracts/PreSale.sol\":11498:11548  TransferHelper.safeTransferETH(msg.sender, amount) */\n      tag_228\n        /* \"contracts/PreSale.sol\":11529:11539  msg.sender */\n      caller\n        /* \"contracts/PreSale.sol\":11541:11547  amount */\n      dup3\n        /* \"contracts/PreSale.sol\":11498:11528  TransferHelper.safeTransferETH */\n      tag_229\n        /* \"contracts/PreSale.sol\":11498:11548  TransferHelper.safeTransferETH(msg.sender, amount) */\n      jump\t// in\n    tag_228:\n        /* \"contracts/PreSale.sol\":11581:11608  Claimed(msg.sender, amount) */\n      mload(0x40)\n        /* \"contracts/PreSale.sol\":11601:11607  amount */\n      dup2\n      swap1\n        /* \"contracts/PreSale.sol\":11589:11599  msg.sender */\n      caller\n      swap1\n        /* \"contracts/PreSale.sol\":11581:11608  Claimed(msg.sender, amount) */\n      0xd8138f8a3f377c5259ca548e70e4c2de94f129f5a11036a15b69513cba2b426a\n      swap1\n      0x00\n      swap1\n      log3\n        /* \"contracts/PreSale.sol\":10994:11619  {... */\n      pop\n      pop\n        /* \"contracts/PreSale.sol\":10224:12012  {... */\n      pop\n        /* \"contracts/PreSale.sol\":10200:12012  function claim() public {... */\n      jump\t// out\n        /* \"contracts/PreSale.sol\":10968:12006  if(softcap <= soldTokens) {... */\n    tag_216:\n        /* \"contracts/PreSale.sol\":11647:11657  msg.sender */\n      caller\n        /* \"contracts/PreSale.sol\":11639:11658  claimed[msg.sender] */\n      0x00\n      swap1\n      dup2\n      mstore\n        /* \"contracts/PreSale.sol\":11639:11646  claimed */\n      0x0c\n        /* \"contracts/PreSale.sol\":11639:11658  claimed[msg.sender] */\n      0x20\n      mstore\n      0x40\n      swap1\n      keccak256\n        /* \"contracts/PreSale.sol\":11661:11665  1000 */\n      0x03e8\n        /* \"contracts/PreSale.sol\":11639:11665  claimed[msg.sender] = 1000 */\n      swap1\n      sstore\n        /* \"contracts/PreSale.sol\":11693:11705  paymentToken */\n      and(sub(shl(0xa0, 0x01), 0x01), sload(0x02))\n        /* \"contracts/PreSale.sol\":11685:11720  address(paymentToken) != address(0) */\n      iszero\n        /* \"contracts/PreSale.sol\":11682:11938  if(address(paymentToken) != address(0)) {... */\n      tag_231\n      jumpi\n        /* \"contracts/PreSale.sol\":11776:11788  paymentToken */\n      sload(0x02)\n        /* \"contracts/PreSale.sol\":11791:11801  msg.sender */\n      caller\n        /* \"contracts/PreSale.sol\":11776:11788  paymentToken */\n      0x00\n        /* \"contracts/PreSale.sol\":11803:11821  bought[msg.sender] */\n      dup2\n      dup2\n      mstore\n        /* \"contracts/PreSale.sol\":11803:11809  bought */\n      0x0b\n        /* \"contracts/PreSale.sol\":11803:11821  bought[msg.sender] */\n      0x20\n      mstore\n      0x40\n      swap1\n      keccak256\n      sload\n        /* \"contracts/PreSale.sol\":11740:11822  TransferHelper.safeTransfer(address(paymentToken), msg.sender, bought[msg.sender]) */\n      tag_232\n      swap3\n      sub(shl(0xa0, 0x01), 0x01)\n        /* \"contracts/PreSale.sol\":11776:11788  paymentToken */\n      and\n      swap2\n        /* \"contracts/PreSale.sol\":11791:11801  msg.sender */\n      swap1\n        /* \"contracts/PreSale.sol\":11740:11767  TransferHelper.safeTransfer */\n      tag_226\n        /* \"contracts/PreSale.sol\":11740:11822  TransferHelper.safeTransfer(address(paymentToken), msg.sender, bought[msg.sender]) */\n      jump\t// in\n    tag_232:\n        /* \"contracts/PreSale.sol\":11682:11938  if(address(paymentToken) != address(0)) {... */\n      jump(tag_234)\n    tag_231:\n        /* \"contracts/PreSale.sol\":11892:11902  msg.sender */\n      caller\n        /* \"contracts/PreSale.sol\":11904:11922  bought[msg.sender] */\n      0x00\n      dup2\n      dup2\n      mstore\n        /* \"contracts/PreSale.sol\":11904:11910  bought */\n      0x0b\n        /* \"contracts/PreSale.sol\":11904:11922  bought[msg.sender] */\n      0x20\n      mstore\n      0x40\n      swap1\n      keccak256\n      sload\n        /* \"contracts/PreSale.sol\":11861:11923  TransferHelper.safeTransferETH(msg.sender, bought[msg.sender]) */\n      tag_234\n      swap2\n        /* \"contracts/PreSale.sol\":11892:11902  msg.sender */\n      swap1\n        /* \"contracts/PreSale.sol\":11861:11891  TransferHelper.safeTransferETH */\n      tag_229\n        /* \"contracts/PreSale.sol\":11861:11923  TransferHelper.safeTransferETH(msg.sender, bought[msg.sender]) */\n      jump\t// in\n    tag_234:\n        /* \"contracts/PreSale.sol\":11983:11993  msg.sender */\n      caller\n        /* \"contracts/PreSale.sol\":11976:11994  bought[msg.sender] */\n      0x00\n      dup2\n      dup2\n      mstore\n        /* \"contracts/PreSale.sol\":11976:11982  bought */\n      0x0b\n        /* \"contracts/PreSale.sol\":11976:11994  bought[msg.sender] */\n      0x20\n      mstore\n      0x40\n      dup1\n      dup3\n      keccak256\n      sload\n        /* \"contracts/PreSale.sol\":11956:11995  Claimed(msg.sender, bought[msg.sender]) */\n      swap1\n      mload\n        /* \"contracts/PreSale.sol\":11976:11994  bought[msg.sender] */\n      swap1\n      swap3\n        /* \"contracts/PreSale.sol\":11983:11993  msg.sender */\n      swap2\n        /* \"contracts/PreSale.sol\":11956:11995  Claimed(msg.sender, bought[msg.sender]) */\n      0xd8138f8a3f377c5259ca548e70e4c2de94f129f5a11036a15b69513cba2b426a\n      swap2\n      log3\n        /* \"contracts/PreSale.sol\":10968:12006  if(softcap <= soldTokens) {... */\n    tag_230:\n        /* \"contracts/PreSale.sol\":10224:12012  {... */\n      pop\n        /* \"contracts/PreSale.sol\":10200:12012  function claim() public {... */\n      jump\t// out\n        /* \"contracts/PreSale.sol\":6628:7549  function whitelistFromSAFT(address[] memory addresses, uint256[] memory amounts) public onlyOwner {... */\n    tag_70:\n        /* \"@openzeppelin/contracts/access/Ownable.sol\":1019:1026  address */\n      0x00\n        /* \"@openzeppelin/contracts/access/Ownable.sol\":1045:1051  _owner */\n      sload\n      sub(shl(0xa0, 0x01), 0x01)\n      and\n        /* \"@openzeppelin/contracts/utils/Context.sol\":665:675  msg.sender */\n      caller\n        /* \"@openzeppelin/contracts/access/Ownable.sol\":1185:1208  owner() == _msgSender() */\n      eq\n        /* \"@openzeppelin/contracts/access/Ownable.sol\":1177:1245  require(owner() == _msgSender(), \"Ownable: caller is not the owner\") */\n      tag_238\n      jumpi\n      mload(0x40)\n      shl(0xe5, 0x461bcd)\n      dup2\n      mstore\n      0x04\n      add\n      tag_179\n      swap1\n      tag_180\n      jump\t// in\n    tag_238:\n        /* \"contracts/PreSale.sol\":6764:6767  100 */\n      0x64\n        /* \"contracts/PreSale.sol\":6744:6753  addresses */\n      dup3\n        /* \"contracts/PreSale.sol\":6744:6760  addresses.length */\n      mload\n        /* \"contracts/PreSale.sol\":6744:6767  addresses.length <= 100 */\n      gt\n      iszero\n        /* \"contracts/PreSale.sol\":6736:6844  require(addresses.length <= 100, \"ABOAT::whitelist: You can't add more than 100 addresses at the same time\") */\n      tag_241\n      jumpi\n      mload(0x40)\n      shl(0xe5, 0x461bcd)\n      dup2\n      mstore\n      0x04\n      add\n      tag_179\n      swap1\n      tag_243\n      jump\t// in\n    tag_241:\n        /* \"contracts/PreSale.sol\":6854:6877  uint256 sumOfSoldTokens */\n      0x00\n        /* \"contracts/PreSale.sol\":6895:6905  uint index */\n      dup1\n        /* \"contracts/PreSale.sol\":6891:7432  for(uint index = 0; index < addresses.length; index++) {... */\n    tag_244:\n        /* \"contracts/PreSale.sol\":6919:6928  addresses */\n      dup4\n        /* \"contracts/PreSale.sol\":6919:6935  addresses.length */\n      mload\n        /* \"contracts/PreSale.sol\":6911:6916  index */\n      dup2\n        /* \"contracts/PreSale.sol\":6911:6935  index < addresses.length */\n      lt\n        /* \"contracts/PreSale.sol\":6891:7432  for(uint index = 0; index < addresses.length; index++) {... */\n      iszero\n      tag_245\n      jumpi\n        /* \"contracts/PreSale.sol\":6992:6996  true */\n      0x01\n        /* \"contracts/PreSale.sol\":6960:6971  whitelisted */\n      0x0a\n        /* \"contracts/PreSale.sol\":6960:6989  whitelisted[addresses[index]] */\n      0x00\n        /* \"contracts/PreSale.sol\":6972:6981  addresses */\n      dup7\n        /* \"contracts/PreSale.sol\":6982:6987  index */\n      dup5\n        /* \"contracts/PreSale.sol\":6972:6988  addresses[index] */\n      dup2\n      mload\n      dup2\n      lt\n      tag_248\n      jumpi\n      tag_248\n      tag_249\n      jump\t// in\n    tag_248:\n      0x20\n      mul\n      0x20\n      add\n      add\n      mload\n      sub(shl(0xa0, 0x01), 0x01)\n        /* \"contracts/PreSale.sol\":6960:6989  whitelisted[addresses[index]] */\n      and\n      sub(shl(0xa0, 0x01), 0x01)\n      and\n      dup2\n      mstore\n      0x20\n      add\n      swap1\n      dup2\n      mstore\n      0x20\n      add\n      0x00\n      keccak256\n      0x00\n        /* \"contracts/PreSale.sol\":6960:6996  whitelisted[addresses[index]] = true */\n      0x0100\n      exp\n      dup2\n      sload\n      dup2\n      0xff\n      mul\n      not\n      and\n      swap1\n      dup4\n      iszero\n      iszero\n      mul\n      or\n      swap1\n      sstore\n      pop\n        /* \"contracts/PreSale.sol\":7010:7030  uint256 amountBought */\n      0x00\n        /* \"contracts/PreSale.sol\":7033:7076  amounts[index].mul(1e18).div(pricePerToken) */\n      tag_250\n        /* \"contracts/PreSale.sol\":7062:7075  pricePerToken */\n      sload(0x03)\n        /* \"contracts/PreSale.sol\":7033:7057  amounts[index].mul(1e18) */\n      tag_220\n        /* \"contracts/PreSale.sol\":7052:7056  1e18 */\n      0x0de0b6b3a7640000\n        /* \"contracts/PreSale.sol\":7033:7040  amounts */\n      dup8\n        /* \"contracts/PreSale.sol\":7041:7046  index */\n      dup7\n        /* \"contracts/PreSale.sol\":7033:7047  amounts[index] */\n      dup2\n      mload\n      dup2\n      lt\n      tag_253\n      jumpi\n      tag_253\n      tag_249\n      jump\t// in\n    tag_253:\n      0x20\n      mul\n      0x20\n      add\n      add\n      mload\n        /* \"contracts/PreSale.sol\":7033:7051  amounts[index].mul */\n      tag_203\n      swap1\n        /* \"contracts/PreSale.sol\":7033:7057  amounts[index].mul(1e18) */\n      swap2\n      swap1\n      0xffffffff\n      and\n      jump\t// in\n        /* \"contracts/PreSale.sol\":7033:7076  amounts[index].mul(1e18).div(pricePerToken) */\n    tag_250:\n        /* \"contracts/PreSale.sol\":7010:7076  uint256 amountBought = amounts[index].mul(1e18).div(pricePerToken) */\n      swap1\n      pop\n        /* \"contracts/PreSale.sol\":7140:7141  0 */\n      0x00\n        /* \"contracts/PreSale.sol\":7098:7137  getRemainingBalance().sub(amountBought) */\n      tag_254\n        /* \"contracts/PreSale.sol\":7124:7136  amountBought */\n      dup3\n        /* \"contracts/PreSale.sol\":7098:7119  getRemainingBalance() */\n      tag_195\n        /* \"contracts/PreSale.sol\":7098:7117  getRemainingBalance */\n      tag_56\n        /* \"contracts/PreSale.sol\":7098:7119  getRemainingBalance() */\n      jump\t// in\n        /* \"contracts/PreSale.sol\":7098:7137  getRemainingBalance().sub(amountBought) */\n    tag_254:\n        /* \"contracts/PreSale.sol\":7098:7141  getRemainingBalance().sub(amountBought) > 0 */\n      gt\n        /* \"contracts/PreSale.sol\":7090:7199  require(getRemainingBalance().sub(amountBought) > 0, \"ABOAT::buy: Amount would exceed the remaining balance\") */\n      tag_256\n      jumpi\n      mload(0x40)\n      shl(0xe5, 0x461bcd)\n      dup2\n      mstore\n      0x04\n      add\n      tag_179\n      swap1\n      tag_258\n      jump\t// in\n    tag_256:\n        /* \"contracts/PreSale.sol\":7240:7284  bought[addresses[index]].add(amounts[index]) */\n      tag_259\n        /* \"contracts/PreSale.sol\":7269:7276  amounts */\n      dup5\n        /* \"contracts/PreSale.sol\":7277:7282  index */\n      dup4\n        /* \"contracts/PreSale.sol\":7269:7283  amounts[index] */\n      dup2\n      mload\n      dup2\n      lt\n      tag_261\n      jumpi\n      tag_261\n      tag_249\n      jump\t// in\n    tag_261:\n      0x20\n      mul\n      0x20\n      add\n      add\n      mload\n        /* \"contracts/PreSale.sol\":7240:7246  bought */\n      0x0b\n        /* \"contracts/PreSale.sol\":7240:7264  bought[addresses[index]] */\n      0x00\n        /* \"contracts/PreSale.sol\":7247:7256  addresses */\n      dup9\n        /* \"contracts/PreSale.sol\":7257:7262  index */\n      dup7\n        /* \"contracts/PreSale.sol\":7247:7263  addresses[index] */\n      dup2\n      mload\n      dup2\n      lt\n      tag_263\n      jumpi\n      tag_263\n      tag_249\n      jump\t// in\n    tag_263:\n      0x20\n      mul\n      0x20\n      add\n      add\n      mload\n      sub(shl(0xa0, 0x01), 0x01)\n        /* \"contracts/PreSale.sol\":7240:7264  bought[addresses[index]] */\n      and\n      sub(shl(0xa0, 0x01), 0x01)\n      and\n      dup2\n      mstore\n      0x20\n      add\n      swap1\n      dup2\n      mstore\n      0x20\n      add\n      0x00\n      keccak256\n      sload\n        /* \"contracts/PreSale.sol\":7240:7268  bought[addresses[index]].add */\n      tag_204\n      swap1\n        /* \"contracts/PreSale.sol\":7240:7284  bought[addresses[index]].add(amounts[index]) */\n      swap2\n      swap1\n      0xffffffff\n      and\n      jump\t// in\n    tag_259:\n        /* \"contracts/PreSale.sol\":7213:7219  bought */\n      0x0b\n        /* \"contracts/PreSale.sol\":7213:7237  bought[addresses[index]] */\n      0x00\n        /* \"contracts/PreSale.sol\":7220:7229  addresses */\n      dup8\n        /* \"contracts/PreSale.sol\":7230:7235  index */\n      dup6\n        /* \"contracts/PreSale.sol\":7220:7236  addresses[index] */\n      dup2\n      mload\n      dup2\n      lt\n      tag_265\n      jumpi\n      tag_265\n      tag_249\n      jump\t// in\n    tag_265:\n      0x20\n      swap1\n      dup2\n      mul\n      swap2\n      swap1\n      swap2\n      add\n      dup2\n      add\n      mload\n      sub(shl(0xa0, 0x01), 0x01)\n        /* \"contracts/PreSale.sol\":7213:7237  bought[addresses[index]] */\n      and\n      dup3\n      mstore\n      dup2\n      add\n      swap2\n      swap1\n      swap2\n      mstore\n      0x40\n      add\n      0x00\n      keccak256\n        /* \"contracts/PreSale.sol\":7213:7284  bought[addresses[index]] = bought[addresses[index]].add(amounts[index]) */\n      sstore\n        /* \"contracts/PreSale.sol\":7316:7349  sumOfSoldTokens.add(amountBought) */\n      tag_266\n        /* \"contracts/PreSale.sol\":7316:7331  sumOfSoldTokens */\n      dup4\n        /* \"contracts/PreSale.sol\":7336:7348  amountBought */\n      dup3\n        /* \"contracts/PreSale.sol\":7316:7335  sumOfSoldTokens.add */\n      tag_204\n        /* \"contracts/PreSale.sol\":7316:7349  sumOfSoldTokens.add(amountBought) */\n      jump\t// in\n    tag_266:\n        /* \"contracts/PreSale.sol\":7408:7420  paymentToken */\n      sload(0x02)\n        /* \"contracts/PreSale.sol\":7380:7396  addresses[index] */\n      dup7\n      mload\n        /* \"contracts/PreSale.sol\":7298:7349  sumOfSoldTokens = sumOfSoldTokens.add(amountBought) */\n      swap2\n      swap5\n      pop\n      sub(shl(0xa0, 0x01), 0x01)\n        /* \"contracts/PreSale.sol\":7408:7420  paymentToken */\n      and\n      swap1\n        /* \"contracts/PreSale.sol\":7363:7379  lastClaimAddress */\n      0x0e\n      swap1\n        /* \"contracts/PreSale.sol\":7408:7420  paymentToken */\n      0x00\n      swap1\n        /* \"contracts/PreSale.sol\":7380:7389  addresses */\n      dup9\n      swap1\n        /* \"contracts/PreSale.sol\":7390:7395  index */\n      dup7\n      swap1\n        /* \"contracts/PreSale.sol\":7380:7396  addresses[index] */\n      dup2\n      lt\n      tag_268\n      jumpi\n      tag_268\n      tag_249\n      jump\t// in\n    tag_268:\n      0x20\n      mul\n      0x20\n      add\n      add\n      mload\n      sub(shl(0xa0, 0x01), 0x01)\n        /* \"contracts/PreSale.sol\":7363:7397  lastClaimAddress[addresses[index]] */\n      and\n      sub(shl(0xa0, 0x01), 0x01)\n      and\n      dup2\n      mstore\n      0x20\n      add\n      swap1\n      dup2\n      mstore\n      0x20\n      add\n      0x00\n      keccak256\n      0x00\n        /* \"contracts/PreSale.sol\":7363:7421  lastClaimAddress[addresses[index]] = address(paymentToken) */\n      0x0100\n      exp\n      dup2\n      sload\n      dup2\n      sub(shl(0xa0, 0x01), 0x01)\n      mul\n      not\n      and\n      swap1\n      dup4\n      sub(shl(0xa0, 0x01), 0x01)\n      and\n      mul\n      or\n      swap1\n      sstore\n      pop\n        /* \"contracts/PreSale.sol\":6946:7432  {... */\n      pop\n        /* \"contracts/PreSale.sol\":6937:6944  index++ */\n      dup1\n      dup1\n      tag_269\n      swap1\n      tag_270\n      jump\t// in\n    tag_269:\n      swap2\n      pop\n      pop\n        /* \"contracts/PreSale.sol\":6891:7432  for(uint index = 0; index < addresses.length; index++) {... */\n      jump(tag_244)\n    tag_245:\n      pop\n        /* \"contracts/PreSale.sol\":7454:7464  soldTokens */\n      sload(0x06)\n        /* \"contracts/PreSale.sol\":7454:7485  soldTokens.add(sumOfSoldTokens) */\n      tag_271\n      swap1\n        /* \"contracts/PreSale.sol\":7469:7484  sumOfSoldTokens */\n      dup3\n        /* \"contracts/PreSale.sol\":7454:7468  soldTokens.add */\n      tag_204\n        /* \"contracts/PreSale.sol\":7454:7485  soldTokens.add(sumOfSoldTokens) */\n      jump\t// in\n    tag_271:\n        /* \"contracts/PreSale.sol\":7441:7451  soldTokens */\n      0x06\n        /* \"contracts/PreSale.sol\":7441:7485  soldTokens = soldTokens.add(sumOfSoldTokens) */\n      sstore\n        /* \"contracts/PreSale.sol\":7525:7541  addresses.length */\n      dup3\n      mload\n        /* \"contracts/PreSale.sol\":7500:7542  AddedToWhitelistFromSaft(addresses.length) */\n      mload(0x40)\n      0x6074084f4dbd9879d266f074be61eb039a0db2aa46e98e700223ad5c2bef5bd5\n      swap1\n      0x00\n      swap1\n      log2\n        /* \"contracts/PreSale.sol\":6726:7549  {... */\n      pop\n        /* \"contracts/PreSale.sol\":6628:7549  function whitelistFromSAFT(address[] memory addresses, uint256[] memory amounts) public onlyOwner {... */\n      pop\n      pop\n      jump\t// out\n        /* \"@openzeppelin/contracts/access/Ownable.sol\":1605:1697  function renounceOwnership() public virtual onlyOwner {... */\n    tag_83:\n        /* \"@openzeppelin/contracts/access/Ownable.sol\":1019:1026  address */\n      0x00\n        /* \"@openzeppelin/contracts/access/Ownable.sol\":1045:1051  _owner */\n      sload\n      sub(shl(0xa0, 0x01), 0x01)\n      and\n        /* \"@openzeppelin/contracts/utils/Context.sol\":665:675  msg.sender */\n      caller\n        /* \"@openzeppelin/contracts/access/Ownable.sol\":1185:1208  owner() == _msgSender() */\n      eq\n        /* \"@openzeppelin/contracts/access/Ownable.sol\":1177:1245  require(owner() == _msgSender(), \"Ownable: caller is not the owner\") */\n      tag_275\n      jumpi\n      mload(0x40)\n      shl(0xe5, 0x461bcd)\n      dup2\n      mstore\n      0x04\n      add\n      tag_179\n      swap1\n      tag_180\n      jump\t// in\n    tag_275:\n        /* \"@openzeppelin/contracts/access/Ownable.sol\":1669:1690  _setOwner(address(0)) */\n      tag_278\n        /* \"@openzeppelin/contracts/access/Ownable.sol\":1687:1688  0 */\n      0x00\n        /* \"@openzeppelin/contracts/access/Ownable.sol\":1669:1678  _setOwner */\n      tag_279\n        /* \"@openzeppelin/contracts/access/Ownable.sol\":1669:1690  _setOwner(address(0)) */\n      jump\t// in\n    tag_278:\n        /* \"@openzeppelin/contracts/access/Ownable.sol\":1605:1697  function renounceOwnership() public virtual onlyOwner {... */\n      jump\t// out\n        /* \"contracts/PreSale.sol\":8163:8676  function getCurrentPercentage() public view returns (uint256) {... */\n    tag_104:\n        /* \"contracts/PreSale.sol\":8216:8223  uint256 */\n      0x00\n        /* \"contracts/PreSale.sol\":8235:8253  uint256 cliffEnded */\n      dup1\n        /* \"contracts/PreSale.sol\":8256:8282  saleEnded.add(cliffPeriod) */\n      tag_282\n        /* \"contracts/PreSale.sol\":1812:1814  90 */\n      0x5a\n        /* \"contracts/PreSale.sol\":8256:8265  saleEnded */\n      sload(0x07)\n        /* \"contracts/PreSale.sol\":8256:8269  saleEnded.add */\n      tag_204\n      swap1\n        /* \"contracts/PreSale.sol\":8256:8282  saleEnded.add(cliffPeriod) */\n      swap2\n      swap1\n      0xffffffff\n      and\n      jump\t// in\n    tag_282:\n        /* \"contracts/PreSale.sol\":8235:8282  uint256 cliffEnded = saleEnded.add(cliffPeriod) */\n      swap1\n      pop\n        /* \"contracts/PreSale.sol\":8292:8311  uint256 deltaPeriod */\n      0x00\n        /* \"contracts/PreSale.sol\":8314:8348  cliffEnded.add(afterDays * 1 days) */\n      tag_283\n        /* \"contracts/PreSale.sol\":8329:8338  afterDays */\n      sload(0x08)\n        /* \"contracts/PreSale.sol\":8341:8347  1 days */\n      0x015180\n        /* \"contracts/PreSale.sol\":8329:8347  afterDays * 1 days */\n      tag_284\n      swap2\n      swap1\n      tag_285\n      jump\t// in\n    tag_284:\n        /* \"contracts/PreSale.sol\":8314:8324  cliffEnded */\n      dup4\n      swap1\n        /* \"contracts/PreSale.sol\":8314:8328  cliffEnded.add */\n      tag_204\n        /* \"contracts/PreSale.sol\":8314:8348  cliffEnded.add(afterDays * 1 days) */\n      jump\t// in\n    tag_283:\n        /* \"contracts/PreSale.sol\":8292:8348  uint256 deltaPeriod = cliffEnded.add(afterDays * 1 days) */\n      swap1\n      pop\n        /* \"contracts/PreSale.sol\":8358:8376  uint256 percentage */\n      0x00\n        /* \"contracts/PreSale.sol\":8391:8392  0 */\n      dup1\n        /* \"contracts/PreSale.sol\":8379:8388  saleEnded */\n      sload(0x07)\n        /* \"contracts/PreSale.sol\":8379:8392  saleEnded > 0 */\n      gt\n        /* \"contracts/PreSale.sol\":8379:8425  saleEnded > 0 && block.timestamp > deltaPeriod */\n      dup1\n      iszero\n      tag_286\n      jumpi\n      pop\n        /* \"contracts/PreSale.sol\":8414:8425  deltaPeriod */\n      dup2\n        /* \"contracts/PreSale.sol\":8396:8411  block.timestamp */\n      timestamp\n        /* \"contracts/PreSale.sol\":8396:8425  block.timestamp > deltaPeriod */\n      gt\n        /* \"contracts/PreSale.sol\":8379:8425  saleEnded > 0 && block.timestamp > deltaPeriod */\n    tag_286:\n        /* \"contracts/PreSale.sol\":8379:8615  saleEnded > 0 && block.timestamp > deltaPeriod... */\n      tag_287\n      jumpi\n        /* \"contracts/PreSale.sol\":1564:1567  100 */\n      0x64\n        /* \"contracts/PreSale.sol\":8379:8615  saleEnded > 0 && block.timestamp > deltaPeriod... */\n      jump(tag_289)\n    tag_287:\n        /* \"contracts/PreSale.sol\":8436:8581  block.timestamp.sub(deltaPeriod)... */\n      tag_289\n        /* \"contracts/PreSale.sol\":1564:1567  100 */\n      0x64\n        /* \"contracts/PreSale.sol\":8436:8540  block.timestamp.sub(deltaPeriod)... */\n      tag_290\n        /* \"contracts/PreSale.sol\":1688:1690  50 */\n      0x32\n        /* \"contracts/PreSale.sol\":8436:8502  block.timestamp.sub(deltaPeriod)... */\n      tag_219\n        /* \"contracts/PreSale.sol\":8486:8501  period * 1 days */\n      tag_292\n        /* \"contracts/PreSale.sol\":1467:1469  30 */\n      0x1e\n        /* \"contracts/PreSale.sol\":8495:8501  1 days */\n      0x015180\n        /* \"contracts/PreSale.sol\":8486:8501  period * 1 days */\n      tag_285\n      jump\t// in\n    tag_292:\n        /* \"contracts/PreSale.sol\":8436:8468  block.timestamp.sub(deltaPeriod) */\n      tag_220\n        /* \"contracts/PreSale.sol\":8436:8451  block.timestamp */\n      timestamp\n        /* \"contracts/PreSale.sol\":8456:8467  deltaPeriod */\n      dup10\n        /* \"contracts/PreSale.sol\":8436:8455  block.timestamp.sub */\n      tag_188\n        /* \"contracts/PreSale.sol\":8436:8468  block.timestamp.sub(deltaPeriod) */\n      jump\t// in\n        /* \"contracts/PreSale.sol\":8436:8540  block.timestamp.sub(deltaPeriod)... */\n    tag_290:\n        /* \"contracts/PreSale.sol\":8436:8557  block.timestamp.sub(deltaPeriod)... */\n      swap1\n      tag_204\n        /* \"contracts/PreSale.sol\":8436:8581  block.timestamp.sub(deltaPeriod)... */\n      jump\t// in\n    tag_289:\n        /* \"contracts/PreSale.sol\":8358:8615  uint256 percentage = saleEnded > 0 && block.timestamp > deltaPeriod... */\n      swap1\n      pop\n        /* \"contracts/PreSale.sol\":8645:8649  1000 */\n      0x03e8\n        /* \"contracts/PreSale.sol\":8632:8642  percentage */\n      dup2\n        /* \"contracts/PreSale.sol\":8632:8649  percentage > 1000 */\n      gt\n        /* \"contracts/PreSale.sol\":8632:8669  percentage > 1000 ? 1000 : percentage */\n      tag_294\n      jumpi\n        /* \"contracts/PreSale.sol\":8659:8669  percentage */\n      dup1\n        /* \"contracts/PreSale.sol\":8632:8669  percentage > 1000 ? 1000 : percentage */\n      jump(tag_295)\n    tag_294:\n        /* \"contracts/PreSale.sol\":8652:8656  1000 */\n      0x03e8\n        /* \"contracts/PreSale.sol\":8632:8669  percentage > 1000 ? 1000 : percentage */\n    tag_295:\n        /* \"contracts/PreSale.sol\":8625:8669  return percentage > 1000 ? 1000 : percentage */\n      swap4\n      pop\n      pop\n      pop\n      pop\n        /* \"contracts/PreSale.sol\":8163:8676  function getCurrentPercentage() public view returns (uint256) {... */\n      swap1\n      jump\t// out\n        /* \"contracts/PreSale.sol\":6259:6622  function whitelist(address[] memory addresses) public onlyOwner {... */\n    tag_123:\n        /* \"@openzeppelin/contracts/access/Ownable.sol\":1019:1026  address */\n      0x00\n        /* \"@openzeppelin/contracts/access/Ownable.sol\":1045:1051  _owner */\n      sload\n      sub(shl(0xa0, 0x01), 0x01)\n      and\n        /* \"@openzeppelin/contracts/utils/Context.sol\":665:675  msg.sender */\n      caller\n        /* \"@openzeppelin/contracts/access/Ownable.sol\":1185:1208  owner() == _msgSender() */\n      eq\n        /* \"@openzeppelin/contracts/access/Ownable.sol\":1177:1245  require(owner() == _msgSender(), \"Ownable: caller is not the owner\") */\n      tag_299\n      jumpi\n      mload(0x40)\n      shl(0xe5, 0x461bcd)\n      dup2\n      mstore\n      0x04\n      add\n      tag_179\n      swap1\n      tag_180\n      jump\t// in\n    tag_299:\n        /* \"contracts/PreSale.sol\":6361:6364  100 */\n      0x64\n        /* \"contracts/PreSale.sol\":6341:6350  addresses */\n      dup2\n        /* \"contracts/PreSale.sol\":6341:6357  addresses.length */\n      mload\n        /* \"contracts/PreSale.sol\":6341:6364  addresses.length <= 100 */\n      gt\n      iszero\n        /* \"contracts/PreSale.sol\":6333:6441  require(addresses.length <= 100, \"ABOAT::whitelist: You can't add more than 100 addresses at the same time\") */\n      tag_302\n      jumpi\n      mload(0x40)\n      shl(0xe5, 0x461bcd)\n      dup2\n      mstore\n      0x04\n      add\n      tag_179\n      swap1\n      tag_243\n      jump\t// in\n    tag_302:\n        /* \"contracts/PreSale.sol\":6455:6465  uint index */\n      0x00\n        /* \"contracts/PreSale.sol\":6451:6567  for(uint index = 0; index < addresses.length; index++) {... */\n    tag_304:\n        /* \"contracts/PreSale.sol\":6479:6488  addresses */\n      dup2\n        /* \"contracts/PreSale.sol\":6479:6495  addresses.length */\n      mload\n        /* \"contracts/PreSale.sol\":6471:6476  index */\n      dup2\n        /* \"contracts/PreSale.sol\":6471:6495  index < addresses.length */\n      lt\n        /* \"contracts/PreSale.sol\":6451:6567  for(uint index = 0; index < addresses.length; index++) {... */\n      iszero\n      tag_305\n      jumpi\n        /* \"contracts/PreSale.sol\":6552:6556  true */\n      0x01\n        /* \"contracts/PreSale.sol\":6520:6531  whitelisted */\n      0x0a\n        /* \"contracts/PreSale.sol\":6520:6549  whitelisted[addresses[index]] */\n      0x00\n        /* \"contracts/PreSale.sol\":6532:6541  addresses */\n      dup5\n        /* \"contracts/PreSale.sol\":6542:6547  index */\n      dup5\n        /* \"contracts/PreSale.sol\":6532:6548  addresses[index] */\n      dup2\n      mload\n      dup2\n      lt\n      tag_308\n      jumpi\n      tag_308\n      tag_249\n      jump\t// in\n    tag_308:\n      0x20\n      swap1\n      dup2\n      mul\n      swap2\n      swap1\n      swap2\n      add\n      dup2\n      add\n      mload\n      sub(shl(0xa0, 0x01), 0x01)\n        /* \"contracts/PreSale.sol\":6520:6549  whitelisted[addresses[index]] */\n      and\n      dup3\n      mstore\n      dup2\n      add\n      swap2\n      swap1\n      swap2\n      mstore\n      0x40\n      add\n      0x00\n      keccak256\n        /* \"contracts/PreSale.sol\":6520:6556  whitelisted[addresses[index]] = true */\n      dup1\n      sload\n      not(0xff)\n      and\n      swap2\n      iszero\n      iszero\n      swap2\n      swap1\n      swap2\n      or\n      swap1\n      sstore\n        /* \"contracts/PreSale.sol\":6497:6504  index++ */\n      dup1\n      tag_309\n      dup2\n      tag_270\n      jump\t// in\n    tag_309:\n      swap2\n      pop\n      pop\n        /* \"contracts/PreSale.sol\":6451:6567  for(uint index = 0; index < addresses.length; index++) {... */\n      jump(tag_304)\n    tag_305:\n      pop\n        /* \"contracts/PreSale.sol\":6598:6614  addresses.length */\n      dup1\n      mload\n        /* \"contracts/PreSale.sol\":6581:6615  AddedToWhitelist(addresses.length) */\n      mload(0x40)\n      0xf899e24720678b9547483d3c332e9a7e1eabb9c013bd2e0ff30d83806cf421f3\n      swap1\n      0x00\n      swap1\n      log2\n        /* \"contracts/PreSale.sol\":6259:6622  function whitelist(address[] memory addresses) public onlyOwner {... */\n      pop\n      jump\t// out\n        /* \"contracts/PreSale.sol\":5090:5268  function disableWhitelist() public onlyOwner {... */\n    tag_131:\n        /* \"@openzeppelin/contracts/access/Ownable.sol\":1019:1026  address */\n      0x00\n        /* \"@openzeppelin/contracts/access/Ownable.sol\":1045:1051  _owner */\n      sload\n      sub(shl(0xa0, 0x01), 0x01)\n      and\n        /* \"@openzeppelin/contracts/utils/Context.sol\":665:675  msg.sender */\n      caller\n        /* \"@openzeppelin/contracts/access/Ownable.sol\":1185:1208  owner() == _msgSender() */\n      eq\n        /* \"@openzeppelin/contracts/access/Ownable.sol\":1177:1245  require(owner() == _msgSender(), \"Ownable: caller is not the owner\") */\n      tag_313\n      jumpi\n      mload(0x40)\n      shl(0xe5, 0x461bcd)\n      dup2\n      mstore\n      0x04\n      add\n      tag_179\n      swap1\n      tag_180\n      jump\t// in\n    tag_313:\n        /* \"contracts/PreSale.sol\":5153:5169  requireWhitelist */\n      and(0xff, sload(0x09))\n        /* \"contracts/PreSale.sol\":5145:5227  require(requireWhitelist, \"ABOAT:disableWhitelist: Whitelist is already disabled\") */\n      tag_316\n      jumpi\n      mload(0x40)\n      shl(0xe5, 0x461bcd)\n      dup2\n      mstore\n        /* \"#utility.yul\":5598:5600   */\n      0x20\n        /* \"contracts/PreSale.sol\":5145:5227  require(requireWhitelist, \"ABOAT:disableWhitelist: Whitelist is already disabled\") */\n      0x04\n      dup3\n      add\n        /* \"#utility.yul\":5580:5601   */\n      mstore\n        /* \"#utility.yul\":5637:5639   */\n      0x35\n        /* \"#utility.yul\":5617:5635   */\n      0x24\n      dup3\n      add\n        /* \"#utility.yul\":5610:5640   */\n      mstore\n        /* \"#utility.yul\":5676:5710   */\n      0x41424f41543a64697361626c6557686974656c6973743a2057686974656c6973\n        /* \"#utility.yul\":5656:5674   */\n      0x44\n      dup3\n      add\n        /* \"#utility.yul\":5649:5711   */\n      mstore\n      shl(0x5a, 0x1d081a5cc8185b1c9958591e48191a5cd8589b1959)\n        /* \"#utility.yul\":5727:5745   */\n      0x64\n      dup3\n      add\n        /* \"#utility.yul\":5720:5771   */\n      mstore\n        /* \"#utility.yul\":5788:5807   */\n      0x84\n      add\n        /* \"contracts/PreSale.sol\":5145:5227  require(requireWhitelist, \"ABOAT:disableWhitelist: Whitelist is already disabled\") */\n      tag_179\n        /* \"#utility.yul\":5396:5813   */\n      jump\n        /* \"contracts/PreSale.sol\":5145:5227  require(requireWhitelist, \"ABOAT:disableWhitelist: Whitelist is already disabled\") */\n    tag_316:\n        /* \"contracts/PreSale.sol\":5237:5253  requireWhitelist */\n      0x09\n        /* \"contracts/PreSale.sol\":5237:5261  requireWhitelist = false */\n      dup1\n      sload\n      not(0xff)\n      and\n      swap1\n      sstore\n        /* \"contracts/PreSale.sol\":5090:5268  function disableWhitelist() public onlyOwner {... */\n      jump\t// out\n        /* \"contracts/PreSale.sol\":9012:10063  function buy(uint256 amount) public payable {... */\n    tag_139:\n        /* \"contracts/PreSale.sol\":9074:9083  saleEnded */\n      sload(0x07)\n        /* \"contracts/PreSale.sol\":9074:9088  saleEnded == 0 */\n      iszero\n        /* \"contracts/PreSale.sol\":9066:9124  require(saleEnded == 0, \"ABOAT::buy: Sale already ended!\") */\n      tag_320\n      jumpi\n      mload(0x40)\n      shl(0xe5, 0x461bcd)\n      dup2\n      mstore\n        /* \"#utility.yul\":14157:14159   */\n      0x20\n        /* \"contracts/PreSale.sol\":9066:9124  require(saleEnded == 0, \"ABOAT::buy: Sale already ended!\") */\n      0x04\n      dup3\n      add\n        /* \"#utility.yul\":14139:14160   */\n      mstore\n        /* \"#utility.yul\":14196:14198   */\n      0x1f\n        /* \"#utility.yul\":14176:14194   */\n      0x24\n      dup3\n      add\n        /* \"#utility.yul\":14169:14199   */\n      mstore\n        /* \"#utility.yul\":14235:14268   */\n      0x41424f41543a3a6275793a2053616c6520616c726561647920656e6465642100\n        /* \"#utility.yul\":14215:14233   */\n      0x44\n      dup3\n      add\n        /* \"#utility.yul\":14208:14269   */\n      mstore\n        /* \"#utility.yul\":14286:14304   */\n      0x64\n      add\n        /* \"contracts/PreSale.sol\":9066:9124  require(saleEnded == 0, \"ABOAT::buy: Sale already ended!\") */\n      tag_179\n        /* \"#utility.yul\":13955:14310   */\n      jump\n        /* \"contracts/PreSale.sol\":9066:9124  require(saleEnded == 0, \"ABOAT::buy: Sale already ended!\") */\n    tag_320:\n        /* \"contracts/PreSale.sol\":9154:9164  msg.sender */\n      caller\n        /* \"contracts/PreSale.sol\":9142:9165  whitelisted[msg.sender] */\n      0x00\n      swap1\n      dup2\n      mstore\n        /* \"contracts/PreSale.sol\":9142:9153  whitelisted */\n      0x0a\n        /* \"contracts/PreSale.sol\":9142:9165  whitelisted[msg.sender] */\n      0x20\n      mstore\n      0x40\n      swap1\n      keccak256\n      sload\n      0xff\n      and\n      dup1\n        /* \"contracts/PreSale.sol\":9142:9186  whitelisted[msg.sender] || !requireWhitelist */\n      tag_323\n      jumpi\n      pop\n        /* \"contracts/PreSale.sol\":9170:9186  requireWhitelist */\n      and(0xff, sload(0x09))\n        /* \"contracts/PreSale.sol\":9169:9186  !requireWhitelist */\n      iszero\n        /* \"contracts/PreSale.sol\":9142:9186  whitelisted[msg.sender] || !requireWhitelist */\n    tag_323:\n        /* \"contracts/PreSale.sol\":9134:9240  require(whitelisted[msg.sender] || !requireWhitelist, \"ABOAT::buy: You're not whitelisted for this sale!\") */\n      tag_324\n      jumpi\n      mload(0x40)\n      shl(0xe5, 0x461bcd)\n      dup2\n      mstore\n        /* \"#utility.yul\":8520:8522   */\n      0x20\n        /* \"contracts/PreSale.sol\":9134:9240  require(whitelisted[msg.sender] || !requireWhitelist, \"ABOAT::buy: You're not whitelisted for this sale!\") */\n      0x04\n      dup3\n      add\n        /* \"#utility.yul\":8502:8523   */\n      mstore\n        /* \"#utility.yul\":8559:8561   */\n      0x31\n        /* \"#utility.yul\":8539:8557   */\n      0x24\n      dup3\n      add\n        /* \"#utility.yul\":8532:8562   */\n      mstore\n        /* \"#utility.yul\":8598:8632   */\n      0x41424f41543a3a6275793a20596f75277265206e6f742077686974656c697374\n        /* \"#utility.yul\":8578:8596   */\n      0x44\n      dup3\n      add\n        /* \"#utility.yul\":8571:8633   */\n      mstore\n      shl(0x78, 0x656420666f7220746869732073616c6521)\n        /* \"#utility.yul\":8649:8667   */\n      0x64\n      dup3\n      add\n        /* \"#utility.yul\":8642:8689   */\n      mstore\n        /* \"#utility.yul\":8706:8725   */\n      0x84\n      add\n        /* \"contracts/PreSale.sol\":9134:9240  require(whitelisted[msg.sender] || !requireWhitelist, \"ABOAT::buy: You're not whitelisted for this sale!\") */\n      tag_179\n        /* \"#utility.yul\":8318:8731   */\n      jump\n        /* \"contracts/PreSale.sol\":9134:9240  require(whitelisted[msg.sender] || !requireWhitelist, \"ABOAT::buy: You're not whitelisted for this sale!\") */\n    tag_324:\n        /* \"contracts/PreSale.sol\":9276:9288  paymentToken */\n      and(sub(shl(0xa0, 0x01), 0x01), sload(0x02))\n        /* \"contracts/PreSale.sol\":9268:9303  address(paymentToken) == address(0) */\n      iszero\n        /* \"contracts/PreSale.sol\":9321:9332  !isEthToken */\n      dup1\n      iszero\n      dup1\n        /* \"contracts/PreSale.sol\":9321:9355  !isEthToken || msg.value == amount */\n      tag_327\n      jumpi\n      pop\n        /* \"contracts/PreSale.sol\":9349:9355  amount */\n      dup2\n        /* \"contracts/PreSale.sol\":9336:9345  msg.value */\n      callvalue\n        /* \"contracts/PreSale.sol\":9336:9355  msg.value == amount */\n      eq\n        /* \"contracts/PreSale.sol\":9321:9355  !isEthToken || msg.value == amount */\n    tag_327:\n        /* \"contracts/PreSale.sol\":9313:9412  require(!isEthToken || msg.value == amount, \"ABOAT::buy: Sent value doesn't meet the given amount\") */\n      tag_328\n      jumpi\n      mload(0x40)\n      shl(0xe5, 0x461bcd)\n      dup2\n      mstore\n        /* \"#utility.yul\":14517:14519   */\n      0x20\n        /* \"contracts/PreSale.sol\":9313:9412  require(!isEthToken || msg.value == amount, \"ABOAT::buy: Sent value doesn't meet the given amount\") */\n      0x04\n      dup3\n      add\n        /* \"#utility.yul\":14499:14520   */\n      mstore\n        /* \"#utility.yul\":14556:14558   */\n      0x34\n        /* \"#utility.yul\":14536:14554   */\n      0x24\n      dup3\n      add\n        /* \"#utility.yul\":14529:14559   */\n      mstore\n        /* \"#utility.yul\":14595:14629   */\n      0x41424f41543a3a6275793a2053656e742076616c756520646f65736e2774206d\n        /* \"#utility.yul\":14575:14593   */\n      0x44\n      dup3\n      add\n        /* \"#utility.yul\":14568:14630   */\n      mstore\n      shl(0x62, 0x19595d081d1a194819da5d995b88185b5bdd5b9d)\n        /* \"#utility.yul\":14646:14664   */\n      0x64\n      dup3\n      add\n        /* \"#utility.yul\":14639:14689   */\n      mstore\n        /* \"#utility.yul\":14706:14725   */\n      0x84\n      add\n        /* \"contracts/PreSale.sol\":9313:9412  require(!isEthToken || msg.value == amount, \"ABOAT::buy: Sent value doesn't meet the given amount\") */\n      tag_179\n        /* \"#utility.yul\":14315:14731   */\n      jump\n        /* \"contracts/PreSale.sol\":9313:9412  require(!isEthToken || msg.value == amount, \"ABOAT::buy: Sent value doesn't meet the given amount\") */\n    tag_328:\n        /* \"contracts/PreSale.sol\":9464:9469  limit */\n      sload(0x04)\n        /* \"contracts/PreSale.sol\":9437:9447  msg.sender */\n      caller\n        /* \"contracts/PreSale.sol\":9430:9448  bought[msg.sender] */\n      0x00\n      swap1\n      dup2\n      mstore\n        /* \"contracts/PreSale.sol\":9430:9436  bought */\n      0x0b\n        /* \"contracts/PreSale.sol\":9430:9448  bought[msg.sender] */\n      0x20\n      mstore\n      0x40\n      swap1\n      keccak256\n      sload\n        /* \"contracts/PreSale.sol\":9430:9460  bought[msg.sender].add(amount) */\n      tag_331\n      swap1\n        /* \"contracts/PreSale.sol\":9453:9459  amount */\n      dup5\n        /* \"contracts/PreSale.sol\":9430:9452  bought[msg.sender].add */\n      tag_204\n        /* \"contracts/PreSale.sol\":9430:9460  bought[msg.sender].add(amount) */\n      jump\t// in\n    tag_331:\n        /* \"contracts/PreSale.sol\":9430:9469  bought[msg.sender].add(amount) <= limit */\n      gt\n      iszero\n        /* \"contracts/PreSale.sol\":9422:9531  require(bought[msg.sender].add(amount) <= limit, \"ABOAT::buy: Amount would exceed the maximum allowed limit\") */\n      tag_332\n      jumpi\n      mload(0x40)\n      shl(0xe5, 0x461bcd)\n      dup2\n      mstore\n        /* \"#utility.yul\":6427:6429   */\n      0x20\n        /* \"contracts/PreSale.sol\":9422:9531  require(bought[msg.sender].add(amount) <= limit, \"ABOAT::buy: Amount would exceed the maximum allowed limit\") */\n      0x04\n      dup3\n      add\n        /* \"#utility.yul\":6409:6430   */\n      mstore\n        /* \"#utility.yul\":6466:6468   */\n      0x39\n        /* \"#utility.yul\":6446:6464   */\n      0x24\n      dup3\n      add\n        /* \"#utility.yul\":6439:6469   */\n      mstore\n        /* \"#utility.yul\":6505:6539   */\n      0x41424f41543a3a6275793a20416d6f756e7420776f756c642065786365656420\n        /* \"#utility.yul\":6485:6503   */\n      0x44\n      dup3\n      add\n        /* \"#utility.yul\":6478:6540   */\n      mstore\n        /* \"#utility.yul\":6576:6603   */\n      0x746865206d6178696d756d20616c6c6f776564206c696d697400000000000000\n        /* \"#utility.yul\":6556:6574   */\n      0x64\n      dup3\n      add\n        /* \"#utility.yul\":6549:6604   */\n      mstore\n        /* \"#utility.yul\":6621:6640   */\n      0x84\n      add\n        /* \"contracts/PreSale.sol\":9422:9531  require(bought[msg.sender].add(amount) <= limit, \"ABOAT::buy: Amount would exceed the maximum allowed limit\") */\n      tag_179\n        /* \"#utility.yul\":6225:6646   */\n      jump\n        /* \"contracts/PreSale.sol\":9422:9531  require(bought[msg.sender].add(amount) <= limit, \"ABOAT::buy: Amount would exceed the maximum allowed limit\") */\n    tag_332:\n        /* \"contracts/PreSale.sol\":9585:9598  pricePerToken */\n      sload(0x03)\n        /* \"contracts/PreSale.sol\":9541:9561  uint256 amountBought */\n      0x00\n      swap1\n        /* \"contracts/PreSale.sol\":9564:9599  amount.mul(1e18).div(pricePerToken) */\n      tag_335\n      swap1\n        /* \"contracts/PreSale.sol\":9564:9580  amount.mul(1e18) */\n      tag_220\n        /* \"contracts/PreSale.sol\":9564:9570  amount */\n      dup6\n        /* \"contracts/PreSale.sol\":9575:9579  1e18 */\n      0x0de0b6b3a7640000\n        /* \"contracts/PreSale.sol\":9564:9574  amount.mul */\n      tag_203\n        /* \"contracts/PreSale.sol\":9564:9580  amount.mul(1e18) */\n      jump\t// in\n        /* \"contracts/PreSale.sol\":9564:9599  amount.mul(1e18).div(pricePerToken) */\n    tag_335:\n        /* \"contracts/PreSale.sol\":9541:9599  uint256 amountBought = amount.mul(1e18).div(pricePerToken) */\n      swap1\n      pop\n        /* \"contracts/PreSale.sol\":9659:9660  0 */\n      0x00\n        /* \"contracts/PreSale.sol\":9617:9656  getRemainingBalance().sub(amountBought) */\n      tag_337\n        /* \"contracts/PreSale.sol\":9643:9655  amountBought */\n      dup3\n        /* \"contracts/PreSale.sol\":9617:9638  getRemainingBalance() */\n      tag_195\n        /* \"contracts/PreSale.sol\":9617:9636  getRemainingBalance */\n      tag_56\n        /* \"contracts/PreSale.sol\":9617:9638  getRemainingBalance() */\n      jump\t// in\n        /* \"contracts/PreSale.sol\":9617:9656  getRemainingBalance().sub(amountBought) */\n    tag_337:\n        /* \"contracts/PreSale.sol\":9617:9660  getRemainingBalance().sub(amountBought) > 0 */\n      gt\n        /* \"contracts/PreSale.sol\":9609:9718  require(getRemainingBalance().sub(amountBought) > 0, \"ABOAT::buy: Amount would exceed the remaining balance\") */\n      tag_339\n      jumpi\n      mload(0x40)\n      shl(0xe5, 0x461bcd)\n      dup2\n      mstore\n      0x04\n      add\n      tag_179\n      swap1\n      tag_258\n      jump\t// in\n    tag_339:\n        /* \"contracts/PreSale.sol\":9732:9742  isEthToken */\n      dup2\n        /* \"contracts/PreSale.sol\":9728:9842  if(!isEthToken) {... */\n      tag_342\n      jumpi\n        /* \"contracts/PreSale.sol\":9758:9770  paymentToken */\n      sload(0x02)\n        /* \"contracts/PreSale.sol\":9758:9831  paymentToken.safeTransferFrom(address(msg.sender), address(this), amount) */\n      tag_342\n      swap1\n      sub(shl(0xa0, 0x01), 0x01)\n        /* \"contracts/PreSale.sol\":9758:9770  paymentToken */\n      and\n        /* \"contracts/PreSale.sol\":9796:9806  msg.sender */\n      caller\n        /* \"contracts/PreSale.sol\":9817:9821  this */\n      address\n        /* \"contracts/PreSale.sol\":9824:9830  amount */\n      dup7\n        /* \"contracts/PreSale.sol\":9758:9787  paymentToken.safeTransferFrom */\n      tag_343\n        /* \"contracts/PreSale.sol\":9758:9831  paymentToken.safeTransferFrom(address(msg.sender), address(this), amount) */\n      jump\t// in\n    tag_342:\n        /* \"contracts/PreSale.sol\":9879:9889  msg.sender */\n      caller\n        /* \"contracts/PreSale.sol\":9872:9890  bought[msg.sender] */\n      0x00\n      swap1\n      dup2\n      mstore\n        /* \"contracts/PreSale.sol\":9872:9878  bought */\n      0x0b\n        /* \"contracts/PreSale.sol\":9872:9890  bought[msg.sender] */\n      0x20\n      mstore\n      0x40\n      swap1\n      keccak256\n      sload\n        /* \"contracts/PreSale.sol\":9872:9902  bought[msg.sender].add(amount) */\n      tag_344\n      swap1\n        /* \"contracts/PreSale.sol\":9895:9901  amount */\n      dup5\n        /* \"contracts/PreSale.sol\":9872:9894  bought[msg.sender].add */\n      tag_204\n        /* \"contracts/PreSale.sol\":9872:9902  bought[msg.sender].add(amount) */\n      jump\t// in\n    tag_344:\n        /* \"contracts/PreSale.sol\":9858:9868  msg.sender */\n      caller\n        /* \"contracts/PreSale.sol\":9851:9869  bought[msg.sender] */\n      0x00\n      swap1\n      dup2\n      mstore\n        /* \"contracts/PreSale.sol\":9851:9857  bought */\n      0x0b\n        /* \"contracts/PreSale.sol\":9851:9869  bought[msg.sender] */\n      0x20\n      mstore\n      0x40\n      swap1\n      keccak256\n        /* \"contracts/PreSale.sol\":9851:9902  bought[msg.sender] = bought[msg.sender].add(amount) */\n      sstore\n        /* \"contracts/PreSale.sol\":9925:9935  soldTokens */\n      sload(0x06)\n        /* \"contracts/PreSale.sol\":9925:9953  soldTokens.add(amountBought) */\n      tag_345\n      swap1\n        /* \"contracts/PreSale.sol\":9940:9952  amountBought */\n      dup3\n        /* \"contracts/PreSale.sol\":9925:9939  soldTokens.add */\n      tag_204\n        /* \"contracts/PreSale.sol\":9925:9953  soldTokens.add(amountBought) */\n      jump\t// in\n    tag_345:\n        /* \"contracts/PreSale.sol\":9912:9922  soldTokens */\n      0x06\n        /* \"contracts/PreSale.sol\":9912:9953  soldTokens = soldTokens.add(amountBought) */\n      sstore\n        /* \"contracts/PreSale.sol\":10002:10014  paymentToken */\n      sload(0x02)\n        /* \"contracts/PreSale.sol\":9980:9990  msg.sender */\n      caller\n        /* \"contracts/PreSale.sol\":10002:10014  paymentToken */\n      0x00\n        /* \"contracts/PreSale.sol\":9963:9991  lastClaimAddress[msg.sender] */\n      dup2\n      dup2\n      mstore\n        /* \"contracts/PreSale.sol\":9963:9979  lastClaimAddress */\n      0x0e\n        /* \"contracts/PreSale.sol\":9963:9991  lastClaimAddress[msg.sender] */\n      0x20\n      mstore\n      0x40\n      dup1\n      dup3\n      keccak256\n        /* \"contracts/PreSale.sol\":9963:10015  lastClaimAddress[msg.sender] = address(paymentToken) */\n      dup1\n      sload\n      not(sub(shl(0xa0, 0x01), 0x01))\n      and\n      sub(shl(0xa0, 0x01), 0x01)\n        /* \"contracts/PreSale.sol\":10002:10014  paymentToken */\n      swap1\n      swap6\n      and\n        /* \"contracts/PreSale.sol\":9963:10015  lastClaimAddress[msg.sender] = address(paymentToken) */\n      swap5\n      swap1\n      swap5\n      or\n      swap1\n      swap4\n      sstore\n        /* \"contracts/PreSale.sol\":10030:10056  Bought(msg.sender, amount) */\n      swap2\n      mload\n        /* \"contracts/PreSale.sol\":10049:10055  amount */\n      dup6\n      swap3\n        /* \"contracts/PreSale.sol\":10030:10056  Bought(msg.sender, amount) */\n      0xc55650ccda1011e1cdc769b1fbf546ebb8c97800b6072b49e06cd560305b1d67\n      swap2\n      log3\n        /* \"contracts/PreSale.sol\":9056:10063  {... */\n      pop\n      pop\n        /* \"contracts/PreSale.sol\":9012:10063  function buy(uint256 amount) public payable {... */\n      pop\n      jump\t// out\n        /* \"contracts/PreSale.sol\":3916:5080  function claimAndEndSale(uint256 _afterDays) public onlyOwner {... */\n    tag_151:\n        /* \"@openzeppelin/contracts/access/Ownable.sol\":1019:1026  address */\n      0x00\n        /* \"@openzeppelin/contracts/access/Ownable.sol\":1045:1051  _owner */\n      sload\n      sub(shl(0xa0, 0x01), 0x01)\n      and\n        /* \"@openzeppelin/contracts/utils/Context.sol\":665:675  msg.sender */\n      caller\n        /* \"@openzeppelin/contracts/access/Ownable.sol\":1185:1208  owner() == _msgSender() */\n      eq\n        /* \"@openzeppelin/contracts/access/Ownable.sol\":1177:1245  require(owner() == _msgSender(), \"Ownable: caller is not the owner\") */\n      tag_349\n      jumpi\n      mload(0x40)\n      shl(0xe5, 0x461bcd)\n      dup2\n      mstore\n      0x04\n      add\n      tag_179\n      swap1\n      tag_180\n      jump\t// in\n    tag_349:\n        /* \"contracts/PreSale.sol\":3996:4005  saleEnded */\n      sload(0x07)\n        /* \"contracts/PreSale.sol\":3996:4010  saleEnded == 0 */\n      iszero\n        /* \"contracts/PreSale.sol\":3988:4057  require(saleEnded == 0, \"ABOAT::claimAndEndSale: Sale already ended\") */\n      tag_352\n      jumpi\n      mload(0x40)\n      shl(0xe5, 0x461bcd)\n      dup2\n      mstore\n        /* \"#utility.yul\":12928:12930   */\n      0x20\n        /* \"contracts/PreSale.sol\":3988:4057  require(saleEnded == 0, \"ABOAT::claimAndEndSale: Sale already ended\") */\n      0x04\n      dup3\n      add\n        /* \"#utility.yul\":12910:12931   */\n      mstore\n        /* \"#utility.yul\":12967:12969   */\n      0x2a\n        /* \"#utility.yul\":12947:12965   */\n      0x24\n      dup3\n      add\n        /* \"#utility.yul\":12940:12970   */\n      mstore\n        /* \"#utility.yul\":13006:13040   */\n      0x41424f41543a3a636c61696d416e64456e6453616c653a2053616c6520616c72\n        /* \"#utility.yul\":12986:13004   */\n      0x44\n      dup3\n      add\n        /* \"#utility.yul\":12979:13041   */\n      mstore\n      shl(0xb2, 0x1958591e48195b991959)\n        /* \"#utility.yul\":13057:13075   */\n      0x64\n      dup3\n      add\n        /* \"#utility.yul\":13050:13090   */\n      mstore\n        /* \"#utility.yul\":13107:13126   */\n      0x84\n      add\n        /* \"contracts/PreSale.sol\":3988:4057  require(saleEnded == 0, \"ABOAT::claimAndEndSale: Sale already ended\") */\n      tag_179\n        /* \"#utility.yul\":12726:13132   */\n      jump\n        /* \"contracts/PreSale.sol\":3988:4057  require(saleEnded == 0, \"ABOAT::claimAndEndSale: Sale already ended\") */\n    tag_352:\n        /* \"contracts/PreSale.sol\":4079:4094  block.timestamp */\n      timestamp\n        /* \"contracts/PreSale.sol\":4067:4076  saleEnded */\n      0x07\n        /* \"contracts/PreSale.sol\":4067:4094  saleEnded = block.timestamp */\n      sstore\n        /* \"contracts/PreSale.sol\":4118:4128  soldTokens */\n      sload(0x06)\n        /* \"contracts/PreSale.sol\":4107:4114  softcap */\n      sload(0x05)\n        /* \"contracts/PreSale.sol\":4107:4128  softcap <= soldTokens */\n      gt\n        /* \"contracts/PreSale.sol\":4104:5012  if(softcap <= soldTokens) {... */\n      tag_355\n      jumpi\n        /* \"contracts/PreSale.sol\":4278:4287  afterDays */\n      0x08\n        /* \"contracts/PreSale.sol\":4278:4300  afterDays = _afterDays */\n      dup2\n      swap1\n      sstore\n        /* \"contracts/PreSale.sol\":4325:4337  paymentToken */\n      and(sub(shl(0xa0, 0x01), 0x01), sload(0x02))\n        /* \"contracts/PreSale.sol\":4317:4352  address(paymentToken) != address(0) */\n      iszero\n        /* \"contracts/PreSale.sol\":4314:4592  if(address(paymentToken) != address(0)) {... */\n      tag_356\n      jumpi\n        /* \"contracts/PreSale.sol\":4408:4420  paymentToken */\n      sload(0x02)\n        /* \"contracts/PreSale.sol\":4435:4472  paymentToken.balanceOf(address(this)) */\n      mload(0x40)\n      shl(0xe0, 0x70a08231)\n      dup2\n      mstore\n        /* \"contracts/PreSale.sol\":4466:4470  this */\n      address\n        /* \"contracts/PreSale.sol\":4435:4472  paymentToken.balanceOf(address(this)) */\n      0x04\n      dup3\n      add\n        /* \"#utility.yul\":3873:3924   */\n      mstore\n        /* \"contracts/PreSale.sol\":4372:4473  TransferHelper.safeTransfer(address(paymentToken), msg.sender, paymentToken.balanceOf(address(this))) */\n      tag_357\n      swap2\n      sub(shl(0xa0, 0x01), 0x01)\n        /* \"contracts/PreSale.sol\":4408:4420  paymentToken */\n      and\n      swap1\n        /* \"contracts/PreSale.sol\":4423:4433  msg.sender */\n      caller\n      swap1\n        /* \"contracts/PreSale.sol\":4408:4420  paymentToken */\n      dup3\n      swap1\n        /* \"contracts/PreSale.sol\":4435:4457  paymentToken.balanceOf */\n      0x70a08231\n      swap1\n        /* \"#utility.yul\":3846:3864   */\n      0x24\n      add\n        /* \"contracts/PreSale.sol\":4435:4472  paymentToken.balanceOf(address(this)) */\n    tag_358:\n      0x20\n      mload(0x40)\n      dup1\n      dup4\n      sub\n      dup2\n      dup7\n      dup1\n      extcodesize\n      iszero\n      dup1\n      iszero\n      tag_359\n      jumpi\n      0x00\n      dup1\n      revert\n    tag_359:\n      pop\n      gas\n      staticcall\n      iszero\n      dup1\n      iszero\n      tag_361\n      jumpi\n      returndatasize\n      0x00\n      dup1\n      returndatacopy\n      revert(0x00, returndatasize)\n    tag_361:\n      pop\n      pop\n      pop\n      pop\n      mload(0x40)\n      returndatasize\n      not(0x1f)\n      0x1f\n      dup3\n      add\n      and\n      dup3\n      add\n      dup1\n      0x40\n      mstore\n      pop\n      dup2\n      add\n      swap1\n      tag_362\n      swap2\n      swap1\n      tag_196\n      jump\t// in\n    tag_362:\n        /* \"contracts/PreSale.sol\":4372:4399  TransferHelper.safeTransfer */\n      tag_226\n        /* \"contracts/PreSale.sol\":4372:4473  TransferHelper.safeTransfer(address(paymentToken), msg.sender, paymentToken.balanceOf(address(this))) */\n      jump\t// in\n    tag_357:\n        /* \"contracts/PreSale.sol\":4104:5012  if(softcap <= soldTokens) {... */\n      jump(tag_374)\n        /* \"contracts/PreSale.sol\":4314:4592  if(address(paymentToken) != address(0)) {... */\n    tag_356:\n        /* \"contracts/PreSale.sol\":4512:4577  TransferHelper.safeTransferETH(msg.sender, address(this).balance) */\n      tag_357\n        /* \"contracts/PreSale.sol\":4543:4553  msg.sender */\n      caller\n        /* \"contracts/PreSale.sol\":4555:4576  address(this).balance */\n      selfbalance\n        /* \"contracts/PreSale.sol\":4512:4542  TransferHelper.safeTransferETH */\n      tag_229\n        /* \"contracts/PreSale.sol\":4512:4577  TransferHelper.safeTransferETH(msg.sender, address(this).balance) */\n      jump\t// in\n        /* \"contracts/PreSale.sol\":4104:5012  if(softcap <= soldTokens) {... */\n    tag_355:\n        /* \"contracts/PreSale.sol\":4710:4711  0 */\n      0x00\n        /* \"contracts/PreSale.sol\":4698:4707  afterDays */\n      0x08\n        /* \"contracts/PreSale.sol\":4698:4711  afterDays = 0 */\n      sstore\n        /* \"contracts/PreSale.sol\":4737:4748  rewardToken */\n      and(sub(shl(0xa0, 0x01), 0x01), sload(0x01))\n        /* \"contracts/PreSale.sol\":4729:4763  address(rewardToken) != address(0) */\n      iszero\n        /* \"contracts/PreSale.sol\":4726:5002  if(address(rewardToken) != address(0)) {... */\n      tag_366\n      jumpi\n        /* \"contracts/PreSale.sol\":4819:4830  rewardToken */\n      sload(0x01)\n        /* \"contracts/PreSale.sol\":4845:4881  rewardToken.balanceOf(address(this)) */\n      mload(0x40)\n      shl(0xe0, 0x70a08231)\n      dup2\n      mstore\n        /* \"contracts/PreSale.sol\":4875:4879  this */\n      address\n        /* \"contracts/PreSale.sol\":4845:4881  rewardToken.balanceOf(address(this)) */\n      0x04\n      dup3\n      add\n        /* \"#utility.yul\":3873:3924   */\n      mstore\n        /* \"contracts/PreSale.sol\":4783:4882  TransferHelper.safeTransfer(address(rewardToken), msg.sender, rewardToken.balanceOf(address(this))) */\n      tag_357\n      swap2\n      sub(shl(0xa0, 0x01), 0x01)\n        /* \"contracts/PreSale.sol\":4819:4830  rewardToken */\n      and\n      swap1\n        /* \"contracts/PreSale.sol\":4833:4843  msg.sender */\n      caller\n      swap1\n        /* \"contracts/PreSale.sol\":4819:4830  rewardToken */\n      dup3\n      swap1\n        /* \"contracts/PreSale.sol\":4845:4866  rewardToken.balanceOf */\n      0x70a08231\n      swap1\n        /* \"#utility.yul\":3846:3864   */\n      0x24\n      add\n        /* \"contracts/PreSale.sol\":4845:4881  rewardToken.balanceOf(address(this)) */\n      tag_358\n        /* \"#utility.yul\":3727:3930   */\n      jump\n        /* \"contracts/PreSale.sol\":4726:5002  if(address(rewardToken) != address(0)) {... */\n    tag_366:\n        /* \"contracts/PreSale.sol\":4921:4987  TransferHelper.safeTransferETH(msg.sender,  address(this).balance) */\n      tag_374\n        /* \"contracts/PreSale.sol\":4952:4962  msg.sender */\n      caller\n        /* \"contracts/PreSale.sol\":4965:4986  address(this).balance */\n      selfbalance\n        /* \"contracts/PreSale.sol\":4921:4951  TransferHelper.safeTransferETH */\n      tag_229\n        /* \"contracts/PreSale.sol\":4921:4987  TransferHelper.safeTransferETH(msg.sender,  address(this).balance) */\n      jump\t// in\n    tag_374:\n        /* \"contracts/PreSale.sol\":5050:5059  afterDays */\n      sload(0x08)\n        /* \"contracts/PreSale.sol\":5036:5072  saleEnded.add(afterDays.mul(1 days)) */\n      tag_375\n      swap1\n        /* \"contracts/PreSale.sol\":5050:5071  afterDays.mul(1 days) */\n      tag_202\n      swap1\n        /* \"contracts/PreSale.sol\":5064:5070  1 days */\n      0x015180\n        /* \"contracts/PreSale.sol\":5050:5063  afterDays.mul */\n      tag_203\n        /* \"contracts/PreSale.sol\":5050:5071  afterDays.mul(1 days) */\n      jump\t// in\n        /* \"contracts/PreSale.sol\":5036:5072  saleEnded.add(afterDays.mul(1 days)) */\n    tag_375:\n        /* \"contracts/PreSale.sol\":5026:5073  SaleEnded(saleEnded.add(afterDays.mul(1 days))) */\n      mload(0x40)\n      0x94bb74a9473ae4063ec1e73dc3e35fd4b5abe9cc1e43ad0db84e5358559ccd5a\n      swap1\n      0x00\n      swap1\n      log2\n        /* \"contracts/PreSale.sol\":3916:5080  function claimAndEndSale(uint256 _afterDays) public onlyOwner {... */\n      pop\n      jump\t// out\n        /* \"@openzeppelin/contracts/access/Ownable.sol\":1846:2035  function transferOwnership(address newOwner) public virtual onlyOwner {... */\n    tag_155:\n        /* \"@openzeppelin/contracts/access/Ownable.sol\":1019:1026  address */\n      0x00\n        /* \"@openzeppelin/contracts/access/Ownable.sol\":1045:1051  _owner */\n      sload\n      sub(shl(0xa0, 0x01), 0x01)\n      and\n        /* \"@openzeppelin/contracts/utils/Context.sol\":665:675  msg.sender */\n      caller\n        /* \"@openzeppelin/contracts/access/Ownable.sol\":1185:1208  owner() == _msgSender() */\n      eq\n        /* \"@openzeppelin/contracts/access/Ownable.sol\":1177:1245  require(owner() == _msgSender(), \"Ownable: caller is not the owner\") */\n      tag_380\n      jumpi\n      mload(0x40)\n      shl(0xe5, 0x461bcd)\n      dup2\n      mstore\n      0x04\n      add\n      tag_179\n      swap1\n      tag_180\n      jump\t// in\n    tag_380:\n      sub(shl(0xa0, 0x01), 0x01)\n        /* \"@openzeppelin/contracts/access/Ownable.sol\":1934:1956  newOwner != address(0) */\n      dup2\n      and\n        /* \"@openzeppelin/contracts/access/Ownable.sol\":1926:1999  require(newOwner != address(0), \"Ownable: new owner is the zero address\") */\n      tag_383\n      jumpi\n      mload(0x40)\n      shl(0xe5, 0x461bcd)\n      dup2\n      mstore\n        /* \"#utility.yul\":6020:6022   */\n      0x20\n        /* \"@openzeppelin/contracts/access/Ownable.sol\":1926:1999  require(newOwner != address(0), \"Ownable: new owner is the zero address\") */\n      0x04\n      dup3\n      add\n        /* \"#utility.yul\":6002:6023   */\n      mstore\n        /* \"#utility.yul\":6059:6061   */\n      0x26\n        /* \"#utility.yul\":6039:6057   */\n      0x24\n      dup3\n      add\n        /* \"#utility.yul\":6032:6062   */\n      mstore\n        /* \"#utility.yul\":6098:6132   */\n      0x4f776e61626c653a206e6577206f776e657220697320746865207a65726f2061\n        /* \"#utility.yul\":6078:6096   */\n      0x44\n      dup3\n      add\n        /* \"#utility.yul\":6071:6133   */\n      mstore\n      shl(0xd0, 0x646472657373)\n        /* \"#utility.yul\":6149:6167   */\n      0x64\n      dup3\n      add\n        /* \"#utility.yul\":6142:6178   */\n      mstore\n        /* \"#utility.yul\":6195:6214   */\n      0x84\n      add\n        /* \"@openzeppelin/contracts/access/Ownable.sol\":1926:1999  require(newOwner != address(0), \"Ownable: new owner is the zero address\") */\n      tag_179\n        /* \"#utility.yul\":5818:6220   */\n      jump\n        /* \"@openzeppelin/contracts/access/Ownable.sol\":1926:1999  require(newOwner != address(0), \"Ownable: new owner is the zero address\") */\n    tag_383:\n        /* \"@openzeppelin/contracts/access/Ownable.sol\":2009:2028  _setOwner(newOwner) */\n      tag_230\n        /* \"@openzeppelin/contracts/access/Ownable.sol\":2019:2027  newOwner */\n      dup2\n        /* \"@openzeppelin/contracts/access/Ownable.sol\":2009:2018  _setOwner */\n      tag_279\n        /* \"@openzeppelin/contracts/access/Ownable.sol\":2009:2028  _setOwner(newOwner) */\n      jump\t// in\n        /* \"contracts/PreSale.sol\":5546:6059  function updateRewardToken(IERC20 _newRewardToken) public onlyOwner {... */\n    tag_173:\n        /* \"@openzeppelin/contracts/access/Ownable.sol\":1019:1026  address */\n      0x00\n        /* \"@openzeppelin/contracts/access/Ownable.sol\":1045:1051  _owner */\n      sload\n      sub(shl(0xa0, 0x01), 0x01)\n      and\n        /* \"@openzeppelin/contracts/utils/Context.sol\":665:675  msg.sender */\n      caller\n        /* \"@openzeppelin/contracts/access/Ownable.sol\":1185:1208  owner() == _msgSender() */\n      eq\n        /* \"@openzeppelin/contracts/access/Ownable.sol\":1177:1245  require(owner() == _msgSender(), \"Ownable: caller is not the owner\") */\n      tag_390\n      jumpi\n      mload(0x40)\n      shl(0xe5, 0x461bcd)\n      dup2\n      mstore\n      0x04\n      add\n      tag_179\n      swap1\n      tag_180\n      jump\t// in\n    tag_390:\n        /* \"contracts/PreSale.sol\":5651:5662  rewardToken */\n      sload(0x01)\n      sub(shl(0xa0, 0x01), 0x01)\n        /* \"contracts/PreSale.sol\":5632:5662  _newRewardToken != rewardToken */\n      dup3\n      dup2\n      and\n        /* \"contracts/PreSale.sol\":5651:5662  rewardToken */\n      swap2\n      and\n        /* \"contracts/PreSale.sol\":5632:5662  _newRewardToken != rewardToken */\n      eq\n      iszero\n        /* \"contracts/PreSale.sol\":5624:5737  require(_newRewardToken != rewardToken, \"ABOAT::updateRewardToken: New reward should be different from current.\") */\n      tag_393\n      jumpi\n      mload(0x40)\n      shl(0xe5, 0x461bcd)\n      dup2\n      mstore\n        /* \"#utility.yul\":9419:9421   */\n      0x20\n        /* \"contracts/PreSale.sol\":5624:5737  require(_newRewardToken != rewardToken, \"ABOAT::updateRewardToken: New reward should be different from current.\") */\n      0x04\n      dup3\n      add\n        /* \"#utility.yul\":9401:9422   */\n      mstore\n        /* \"#utility.yul\":9458:9460   */\n      0x46\n        /* \"#utility.yul\":9438:9456   */\n      0x24\n      dup3\n      add\n        /* \"#utility.yul\":9431:9461   */\n      mstore\n        /* \"#utility.yul\":9497:9531   */\n      0x41424f41543a3a757064617465526577617264546f6b656e3a204e6577207265\n        /* \"#utility.yul\":9477:9495   */\n      0x44\n      dup3\n      add\n        /* \"#utility.yul\":9470:9532   */\n      mstore\n        /* \"#utility.yul\":9568:9602   */\n      0x776172642073686f756c6420626520646966666572656e742066726f6d206375\n        /* \"#utility.yul\":9548:9566   */\n      0x64\n      dup3\n      add\n        /* \"#utility.yul\":9541:9603   */\n      mstore\n      shl(0xd1, 0x393932b73a17)\n        /* \"#utility.yul\":9619:9638   */\n      0x84\n      dup3\n      add\n        /* \"#utility.yul\":9612:9649   */\n      mstore\n        /* \"#utility.yul\":9666:9685   */\n      0xa4\n      add\n        /* \"contracts/PreSale.sol\":5624:5737  require(_newRewardToken != rewardToken, \"ABOAT::updateRewardToken: New reward should be different from current.\") */\n      tag_179\n        /* \"#utility.yul\":9217:9691   */\n      jump\n        /* \"contracts/PreSale.sol\":5624:5737  require(_newRewardToken != rewardToken, \"ABOAT::updateRewardToken: New reward should be different from current.\") */\n    tag_393:\n        /* \"contracts/PreSale.sol\":5799:5810  rewardToken */\n      sload(0x01)\n        /* \"contracts/PreSale.sol\":5799:5835  rewardToken.balanceOf(address(this)) */\n      mload(0x40)\n      shl(0xe0, 0x70a08231)\n      dup2\n      mstore\n        /* \"contracts/PreSale.sol\":5829:5833  this */\n      address\n        /* \"contracts/PreSale.sol\":5799:5835  rewardToken.balanceOf(address(this)) */\n      0x04\n      dup3\n      add\n        /* \"#utility.yul\":3873:3924   */\n      mstore\n      sub(shl(0xa0, 0x01), 0x01)\n        /* \"contracts/PreSale.sol\":5799:5810  rewardToken */\n      swap1\n      swap2\n      and\n      swap1\n        /* \"contracts/PreSale.sol\":5799:5820  rewardToken.balanceOf */\n      0x70a08231\n      swap1\n        /* \"#utility.yul\":3846:3864   */\n      0x24\n      add\n        /* \"contracts/PreSale.sol\":5799:5835  rewardToken.balanceOf(address(this)) */\n      0x20\n      mload(0x40)\n      dup1\n      dup4\n      sub\n      dup2\n      dup7\n      dup1\n      extcodesize\n      iszero\n      dup1\n      iszero\n      tag_397\n      jumpi\n      0x00\n      dup1\n      revert\n    tag_397:\n      pop\n      gas\n      staticcall\n      iszero\n      dup1\n      iszero\n      tag_399\n      jumpi\n      returndatasize\n      0x00\n      dup1\n      returndatacopy\n      revert(0x00, returndatasize)\n    tag_399:\n      pop\n      pop\n      pop\n      pop\n      mload(0x40)\n      returndatasize\n      not(0x1f)\n      0x1f\n      dup3\n      add\n      and\n      dup3\n      add\n      dup1\n      0x40\n      mstore\n      pop\n      dup2\n      add\n      swap1\n      tag_400\n      swap2\n      swap1\n      tag_196\n      jump\t// in\n    tag_400:\n        /* \"contracts/PreSale.sol\":5755:5795  _newRewardToken.balanceOf(address(this)) */\n      mload(0x40)\n      shl(0xe0, 0x70a08231)\n      dup2\n      mstore\n        /* \"contracts/PreSale.sol\":5789:5793  this */\n      address\n        /* \"contracts/PreSale.sol\":5755:5795  _newRewardToken.balanceOf(address(this)) */\n      0x04\n      dup3\n      add\n        /* \"#utility.yul\":3873:3924   */\n      mstore\n      sub(shl(0xa0, 0x01), 0x01)\n        /* \"contracts/PreSale.sol\":5755:5780  _newRewardToken.balanceOf */\n      dup4\n      and\n      swap1\n      0x70a08231\n      swap1\n        /* \"#utility.yul\":3846:3864   */\n      0x24\n      add\n        /* \"contracts/PreSale.sol\":5755:5795  _newRewardToken.balanceOf(address(this)) */\n      0x20\n      mload(0x40)\n      dup1\n      dup4\n      sub\n      dup2\n      dup7\n      dup1\n      extcodesize\n      iszero\n      dup1\n      iszero\n      tag_402\n      jumpi\n      0x00\n      dup1\n      revert\n    tag_402:\n      pop\n      gas\n      staticcall\n      iszero\n      dup1\n      iszero\n      tag_404\n      jumpi\n      returndatasize\n      0x00\n      dup1\n      returndatacopy\n      revert(0x00, returndatasize)\n    tag_404:\n      pop\n      pop\n      pop\n      pop\n      mload(0x40)\n      returndatasize\n      not(0x1f)\n      0x1f\n      dup3\n      add\n      and\n      dup3\n      add\n      dup1\n      0x40\n      mstore\n      pop\n      dup2\n      add\n      swap1\n      tag_405\n      swap2\n      swap1\n      tag_196\n      jump\t// in\n    tag_405:\n        /* \"contracts/PreSale.sol\":5755:5835  _newRewardToken.balanceOf(address(this)) == rewardToken.balanceOf(address(this)) */\n      eq\n        /* \"contracts/PreSale.sol\":5747:5959  require(_newRewardToken.balanceOf(address(this)) == rewardToken.balanceOf(address(this)), \"ABOAT::updateRewardToken: The contract should contain atleast the same amount of tokens as from the current rewardToken\") */\n      tag_406\n      jumpi\n      mload(0x40)\n      shl(0xe5, 0x461bcd)\n      dup2\n      mstore\n        /* \"#utility.yul\":10400:10402   */\n      0x20\n        /* \"contracts/PreSale.sol\":5747:5959  require(_newRewardToken.balanceOf(address(this)) == rewardToken.balanceOf(address(this)), \"ABOAT::updateRewardToken: The contract should contain atleast the same amount of tokens as from the current rewardToken\") */\n      0x04\n      dup3\n      add\n        /* \"#utility.yul\":10382:10403   */\n      mstore\n        /* \"#utility.yul\":10439:10442   */\n      0x77\n        /* \"#utility.yul\":10419:10437   */\n      0x24\n      dup3\n      add\n        /* \"#utility.yul\":10412:10443   */\n      mstore\n        /* \"#utility.yul\":10479:10513   */\n      0x41424f41543a3a757064617465526577617264546f6b656e3a2054686520636f\n        /* \"#utility.yul\":10459:10477   */\n      0x44\n      dup3\n      add\n        /* \"#utility.yul\":10452:10514   */\n      mstore\n        /* \"#utility.yul\":10550:10584   */\n      0x6e74726163742073686f756c6420636f6e7461696e2061746c65617374207468\n        /* \"#utility.yul\":10530:10548   */\n      0x64\n      dup3\n      add\n        /* \"#utility.yul\":10523:10585   */\n      mstore\n        /* \"#utility.yul\":10622:10656   */\n      0x652073616d6520616d6f756e74206f6620746f6b656e732061732066726f6d20\n        /* \"#utility.yul\":10601:10620   */\n      0x84\n      dup3\n      add\n        /* \"#utility.yul\":10594:10657   */\n      mstore\n        /* \"#utility.yul\":10694:10719   */\n      0x7468652063757272656e7420726577617264546f6b656e000000000000000000\n        /* \"#utility.yul\":10673:10692   */\n      0xa4\n      dup3\n      add\n        /* \"#utility.yul\":10666:10720   */\n      mstore\n        /* \"#utility.yul\":10737:10756   */\n      0xc4\n      add\n        /* \"contracts/PreSale.sol\":5747:5959  require(_newRewardToken.balanceOf(address(this)) == rewardToken.balanceOf(address(this)), \"ABOAT::updateRewardToken: The contract should contain atleast the same amount of tokens as from the current rewardToken\") */\n      tag_179\n        /* \"#utility.yul\":10198:10762   */\n      jump\n        /* \"contracts/PreSale.sol\":5747:5959  require(_newRewardToken.balanceOf(address(this)) == rewardToken.balanceOf(address(this)), \"ABOAT::updateRewardToken: The contract should contain atleast the same amount of tokens as from the current rewardToken\") */\n    tag_406:\n        /* \"contracts/PreSale.sol\":5969:5980  rewardToken */\n      0x01\n        /* \"contracts/PreSale.sol\":5969:5998  rewardToken = _newRewardToken */\n      dup1\n      sload\n      not(sub(shl(0xa0, 0x01), 0x01))\n      and\n      sub(shl(0xa0, 0x01), 0x01)\n      dup4\n      and\n      swap1\n      dup2\n      or\n      swap1\n      swap2\n      sstore\n        /* \"contracts/PreSale.sol\":6013:6052  ChangeRewardToken(address(rewardToken)) */\n      mload(0x40)\n      0x3fcfc24a3384ca156092d9242cb0f84abaf442146d91b8c93bea526561b83f83\n      swap1\n      0x00\n      swap1\n      log2\n        /* \"contracts/PreSale.sol\":5546:6059  function updateRewardToken(IERC20 _newRewardToken) public onlyOwner {... */\n      pop\n      jump\t// out\n        /* \"@openzeppelin/contracts/utils/math/SafeMath.sol\":3039:3135  function sub(uint256 a, uint256 b) internal pure returns (uint256) {... */\n    tag_188:\n        /* \"@openzeppelin/contracts/utils/math/SafeMath.sol\":3097:3104  uint256 */\n      0x00\n        /* \"@openzeppelin/contracts/utils/math/SafeMath.sol\":3123:3128  a - b */\n      tag_411\n        /* \"@openzeppelin/contracts/utils/math/SafeMath.sol\":3127:3128  b */\n      dup3\n        /* \"@openzeppelin/contracts/utils/math/SafeMath.sol\":3123:3124  a */\n      dup5\n        /* \"@openzeppelin/contracts/utils/math/SafeMath.sol\":3123:3128  a - b */\n      tag_412\n      jump\t// in\n    tag_411:\n        /* \"@openzeppelin/contracts/utils/math/SafeMath.sol\":3116:3128  return a - b */\n      swap4\n        /* \"@openzeppelin/contracts/utils/math/SafeMath.sol\":3039:3135  function sub(uint256 a, uint256 b) internal pure returns (uint256) {... */\n      swap3\n      pop\n      pop\n      pop\n      jump\t// out\n        /* \"@openzeppelin/contracts/utils/math/SafeMath.sol\":3382:3478  function mul(uint256 a, uint256 b) internal pure returns (uint256) {... */\n    tag_203:\n        /* \"@openzeppelin/contracts/utils/math/SafeMath.sol\":3440:3447  uint256 */\n      0x00\n        /* \"@openzeppelin/contracts/utils/math/SafeMath.sol\":3466:3471  a * b */\n      tag_411\n        /* \"@openzeppelin/contracts/utils/math/SafeMath.sol\":3470:3471  b */\n      dup3\n        /* \"@openzeppelin/contracts/utils/math/SafeMath.sol\":3466:3467  a */\n      dup5\n        /* \"@openzeppelin/contracts/utils/math/SafeMath.sol\":3466:3471  a * b */\n      tag_285\n      jump\t// in\n        /* \"@openzeppelin/contracts/utils/math/SafeMath.sol\":2672:2768  function add(uint256 a, uint256 b) internal pure returns (uint256) {... */\n    tag_204:\n        /* \"@openzeppelin/contracts/utils/math/SafeMath.sol\":2730:2737  uint256 */\n      0x00\n        /* \"@openzeppelin/contracts/utils/math/SafeMath.sol\":2756:2761  a + b */\n      tag_411\n        /* \"@openzeppelin/contracts/utils/math/SafeMath.sol\":2760:2761  b */\n      dup3\n        /* \"@openzeppelin/contracts/utils/math/SafeMath.sol\":2756:2757  a */\n      dup5\n        /* \"@openzeppelin/contracts/utils/math/SafeMath.sol\":2756:2761  a + b */\n      tag_417\n      jump\t// in\n        /* \"@openzeppelin/contracts/utils/math/SafeMath.sol\":3767:3863  function div(uint256 a, uint256 b) internal pure returns (uint256) {... */\n    tag_222:\n        /* \"@openzeppelin/contracts/utils/math/SafeMath.sol\":3825:3832  uint256 */\n      0x00\n        /* \"@openzeppelin/contracts/utils/math/SafeMath.sol\":3851:3856  a / b */\n      tag_411\n        /* \"@openzeppelin/contracts/utils/math/SafeMath.sol\":3855:3856  b */\n      dup3\n        /* \"@openzeppelin/contracts/utils/math/SafeMath.sol\":3851:3852  a */\n      dup5\n        /* \"@openzeppelin/contracts/utils/math/SafeMath.sol\":3851:3856  a / b */\n      tag_420\n      jump\t// in\n        /* \"contracts/libraries/TransferHelper.sol\":210:594  function safeTransfer(... */\n    tag_226:\n        /* \"contracts/libraries/TransferHelper.sol\":382:427  abi.encodeWithSelector(0xa9059cbb, to, value) */\n      0x40\n      dup1\n      mload\n      sub(shl(0xa0, 0x01), 0x01)\n        /* \"#utility.yul\":4507:4539   */\n      dup5\n      dup2\n      and\n        /* \"contracts/libraries/TransferHelper.sol\":382:427  abi.encodeWithSelector(0xa9059cbb, to, value) */\n      0x24\n      dup4\n      add\n        /* \"#utility.yul\":4489:4540   */\n      mstore\n        /* \"#utility.yul\":4556:4574   */\n      0x44\n      dup1\n      dup4\n      add\n        /* \"#utility.yul\":4549:4583   */\n      dup6\n      swap1\n      mstore\n        /* \"contracts/libraries/TransferHelper.sol\":382:427  abi.encodeWithSelector(0xa9059cbb, to, value) */\n      dup4\n      mload\n      dup1\n      dup5\n      sub\n      swap1\n      swap2\n      add\n      dup2\n      mstore\n        /* \"#utility.yul\":4462:4480   */\n      0x64\n      swap1\n      swap3\n      add\n        /* \"contracts/libraries/TransferHelper.sol\":382:427  abi.encodeWithSelector(0xa9059cbb, to, value) */\n      dup4\n      mstore\n      0x20\n      dup3\n      add\n      dup1\n      mload\n      sub(shl(0xe0, 0x01), 0x01)\n      and\n      shl(0xe0, 0xa9059cbb)\n      or\n      swap1\n      mstore\n        /* \"contracts/libraries/TransferHelper.sol\":371:428  token.call(abi.encodeWithSelector(0xa9059cbb, to, value)) */\n      swap2\n      mload\n      0x00\n      swap3\n      dup4\n      swap3\n        /* \"contracts/libraries/TransferHelper.sol\":371:381  token.call */\n      swap1\n      dup8\n      and\n      swap2\n        /* \"contracts/libraries/TransferHelper.sol\":371:428  token.call(abi.encodeWithSelector(0xa9059cbb, to, value)) */\n      tag_424\n      swap2\n        /* \"contracts/libraries/TransferHelper.sol\":382:427  abi.encodeWithSelector(0xa9059cbb, to, value) */\n      swap1\n        /* \"contracts/libraries/TransferHelper.sol\":371:428  token.call(abi.encodeWithSelector(0xa9059cbb, to, value)) */\n      tag_425\n      jump\t// in\n    tag_424:\n      0x00\n      mload(0x40)\n      dup1\n      dup4\n      sub\n      dup2\n      0x00\n      dup7\n      gas\n      call\n      swap2\n      pop\n      pop\n      returndatasize\n      dup1\n      0x00\n      dup2\n      eq\n      tag_428\n      jumpi\n      mload(0x40)\n      swap2\n      pop\n      and(add(returndatasize, 0x3f), not(0x1f))\n      dup3\n      add\n      0x40\n      mstore\n      returndatasize\n      dup3\n      mstore\n      returndatasize\n      0x00\n      0x20\n      dup5\n      add\n      returndatacopy\n      jump(tag_427)\n    tag_428:\n      0x60\n      swap2\n      pop\n    tag_427:\n      pop\n        /* \"contracts/libraries/TransferHelper.sol\":323:428  (bool success, bytes memory data) =... */\n      swap2\n      pop\n      swap2\n      pop\n        /* \"contracts/libraries/TransferHelper.sol\":459:466  success */\n      dup2\n        /* \"contracts/libraries/TransferHelper.sol\":459:516  success && (data.length == 0 || abi.decode(data, (bool))) */\n      dup1\n      iszero\n      tag_431\n      jumpi\n      pop\n        /* \"contracts/libraries/TransferHelper.sol\":471:482  data.length */\n      dup1\n      mload\n        /* \"contracts/libraries/TransferHelper.sol\":471:487  data.length == 0 */\n      iszero\n      dup1\n        /* \"contracts/libraries/TransferHelper.sol\":471:515  data.length == 0 || abi.decode(data, (bool)) */\n      tag_431\n      jumpi\n      pop\n        /* \"contracts/libraries/TransferHelper.sol\":502:506  data */\n      dup1\n        /* \"contracts/libraries/TransferHelper.sol\":491:515  abi.decode(data, (bool)) */\n      dup1\n      0x20\n      add\n      swap1\n      mload\n      dup2\n      add\n      swap1\n      tag_431\n      swap2\n      swap1\n      tag_432\n      jump\t// in\n    tag_431:\n        /* \"contracts/libraries/TransferHelper.sol\":438:587  require(... */\n      tag_433\n      jumpi\n      mload(0x40)\n      shl(0xe5, 0x461bcd)\n      dup2\n      mstore\n        /* \"#utility.yul\":12514:12516   */\n      0x20\n        /* \"contracts/libraries/TransferHelper.sol\":438:587  require(... */\n      0x04\n      dup3\n      add\n        /* \"#utility.yul\":12496:12517   */\n      mstore\n        /* \"#utility.yul\":12553:12555   */\n      0x2d\n        /* \"#utility.yul\":12533:12551   */\n      0x24\n      dup3\n      add\n        /* \"#utility.yul\":12526:12556   */\n      mstore\n        /* \"#utility.yul\":12592:12626   */\n      0x5472616e7366657248656c7065723a3a736166655472616e736665723a207472\n        /* \"#utility.yul\":12572:12590   */\n      0x44\n      dup3\n      add\n        /* \"#utility.yul\":12565:12627   */\n      mstore\n      shl(0x9a, 0x185b9cd9995c8819985a5b1959)\n        /* \"#utility.yul\":12643:12661   */\n      0x64\n      dup3\n      add\n        /* \"#utility.yul\":12636:12679   */\n      mstore\n        /* \"#utility.yul\":12696:12715   */\n      0x84\n      add\n        /* \"contracts/libraries/TransferHelper.sol\":438:587  require(... */\n      tag_179\n        /* \"#utility.yul\":12312:12721   */\n      jump\n        /* \"contracts/libraries/TransferHelper.sol\":438:587  require(... */\n    tag_433:\n        /* \"contracts/libraries/TransferHelper.sol\":313:594  {... */\n      pop\n      pop\n        /* \"contracts/libraries/TransferHelper.sol\":210:594  function safeTransfer(... */\n      pop\n      pop\n      pop\n      jump\t// out\n        /* \"contracts/libraries/TransferHelper.sol\":1026:1274  function safeTransferETH(address to, uint256 value) internal {... */\n    tag_229:\n        /* \"contracts/libraries/TransferHelper.sol\":1138:1150  new bytes(0) */\n      0x40\n      dup1\n      mload\n        /* \"contracts/libraries/TransferHelper.sol\":1098:1110  bool success */\n      0x00\n        /* \"contracts/libraries/TransferHelper.sol\":1138:1150  new bytes(0) */\n      dup1\n      dup3\n      mstore\n      0x20\n      dup3\n      add\n      swap1\n      swap3\n      mstore\n      sub(shl(0xa0, 0x01), 0x01)\n        /* \"contracts/libraries/TransferHelper.sol\":1116:1123  to.call */\n      dup5\n      and\n      swap1\n        /* \"contracts/libraries/TransferHelper.sol\":1131:1136  value */\n      dup4\n      swap1\n        /* \"contracts/libraries/TransferHelper.sol\":1116:1151  to.call{value: value}(new bytes(0)) */\n      mload(0x40)\n      tag_441\n      swap2\n      swap1\n      tag_425\n      jump\t// in\n    tag_441:\n      0x00\n      mload(0x40)\n      dup1\n      dup4\n      sub\n      dup2\n      dup6\n      dup8\n      gas\n      call\n      swap3\n      pop\n      pop\n      pop\n      returndatasize\n      dup1\n      0x00\n      dup2\n      eq\n      tag_444\n      jumpi\n      mload(0x40)\n      swap2\n      pop\n      and(add(returndatasize, 0x3f), not(0x1f))\n      dup3\n      add\n      0x40\n      mstore\n      returndatasize\n      dup3\n      mstore\n      returndatasize\n      0x00\n      0x20\n      dup5\n      add\n      returndatacopy\n      jump(tag_443)\n    tag_444:\n      0x60\n      swap2\n      pop\n    tag_443:\n      pop\n        /* \"contracts/libraries/TransferHelper.sol\":1097:1151  (bool success, ) = to.call{value: value}(new bytes(0)) */\n      pop\n      swap1\n      pop\n        /* \"contracts/libraries/TransferHelper.sol\":1182:1189  success */\n      dup1\n        /* \"contracts/libraries/TransferHelper.sol\":1161:1267  require(... */\n      tag_445\n      jumpi\n      mload(0x40)\n      shl(0xe5, 0x461bcd)\n      dup2\n      mstore\n        /* \"#utility.yul\":6853:6855   */\n      0x20\n        /* \"contracts/libraries/TransferHelper.sol\":1161:1267  require(... */\n      0x04\n      dup3\n      add\n        /* \"#utility.yul\":6835:6856   */\n      mstore\n        /* \"#utility.yul\":6892:6894   */\n      0x34\n        /* \"#utility.yul\":6872:6890   */\n      0x24\n      dup3\n      add\n        /* \"#utility.yul\":6865:6895   */\n      mstore\n        /* \"#utility.yul\":6931:6965   */\n      0x5472616e7366657248656c7065723a3a736166655472616e736665724554483a\n        /* \"#utility.yul\":6911:6929   */\n      0x44\n      dup3\n      add\n        /* \"#utility.yul\":6904:6966   */\n      mstore\n      shl(0x62, 0x08115512081d1c985b9cd9995c8819985a5b1959)\n        /* \"#utility.yul\":6982:7000   */\n      0x64\n      dup3\n      add\n        /* \"#utility.yul\":6975:7025   */\n      mstore\n        /* \"#utility.yul\":7042:7061   */\n      0x84\n      add\n        /* \"contracts/libraries/TransferHelper.sol\":1161:1267  require(... */\n      tag_179\n        /* \"#utility.yul\":6651:7067   */\n      jump\n        /* \"contracts/libraries/TransferHelper.sol\":1161:1267  require(... */\n    tag_445:\n        /* \"contracts/libraries/TransferHelper.sol\":1087:1274  {... */\n      pop\n        /* \"contracts/libraries/TransferHelper.sol\":1026:1274  function safeTransferETH(address to, uint256 value) internal {... */\n      pop\n      pop\n      jump\t// out\n        /* \"@openzeppelin/contracts/access/Ownable.sol\":2041:2210  function _setOwner(address newOwner) private {... */\n    tag_279:\n        /* \"@openzeppelin/contracts/access/Ownable.sol\":2096:2112  address oldOwner */\n      0x00\n        /* \"@openzeppelin/contracts/access/Ownable.sol\":2115:2121  _owner */\n      dup1\n      sload\n      sub(shl(0xa0, 0x01), 0x01)\n        /* \"@openzeppelin/contracts/access/Ownable.sol\":2131:2148  _owner = newOwner */\n      dup4\n      dup2\n      and\n      not(sub(shl(0xa0, 0x01), 0x01))\n      dup4\n      and\n      dup2\n      or\n      dup5\n      sstore\n        /* \"@openzeppelin/contracts/access/Ownable.sol\":2163:2203  OwnershipTransferred(oldOwner, newOwner) */\n      mload(0x40)\n        /* \"@openzeppelin/contracts/access/Ownable.sol\":2115:2121  _owner */\n      swap2\n      swap1\n      swap3\n      and\n      swap3\n      dup4\n      swap2\n        /* \"@openzeppelin/contracts/access/Ownable.sol\":2163:2203  OwnershipTransferred(oldOwner, newOwner) */\n      0x8be0079c531659141344cd1fd0a4f28419497f9722a3daafe3b4186f6b6457e0\n      swap2\n        /* \"@openzeppelin/contracts/access/Ownable.sol\":2096:2112  address oldOwner */\n      swap1\n        /* \"@openzeppelin/contracts/access/Ownable.sol\":2163:2203  OwnershipTransferred(oldOwner, newOwner) */\n      log3\n        /* \"@openzeppelin/contracts/access/Ownable.sol\":2086:2210  {... */\n      pop\n        /* \"@openzeppelin/contracts/access/Ownable.sol\":2041:2210  function _setOwner(address newOwner) private {... */\n      pop\n      jump\t// out\n        /* \"@openzeppelin/contracts/token/ERC20/utils/SafeERC20.sol\":845:1086  function safeTransferFrom(... */\n    tag_343:\n        /* \"@openzeppelin/contracts/token/ERC20/utils/SafeERC20.sol\":1010:1078  abi.encodeWithSelector(token.transferFrom.selector, from, to, value) */\n      0x40\n      dup1\n      mload\n      sub(shl(0xa0, 0x01), 0x01)\n        /* \"#utility.yul\":4193:4208   */\n      dup6\n      dup2\n      and\n        /* \"@openzeppelin/contracts/token/ERC20/utils/SafeERC20.sol\":1010:1078  abi.encodeWithSelector(token.transferFrom.selector, from, to, value) */\n      0x24\n      dup4\n      add\n        /* \"#utility.yul\":4175:4209   */\n      mstore\n        /* \"#utility.yul\":4245:4260   */\n      dup5\n      and\n        /* \"#utility.yul\":4225:4243   */\n      0x44\n      dup3\n      add\n        /* \"#utility.yul\":4218:4261   */\n      mstore\n        /* \"#utility.yul\":4277:4295   */\n      0x64\n      dup1\n      dup3\n      add\n        /* \"#utility.yul\":4270:4304   */\n      dup5\n      swap1\n      mstore\n        /* \"@openzeppelin/contracts/token/ERC20/utils/SafeERC20.sol\":1010:1078  abi.encodeWithSelector(token.transferFrom.selector, from, to, value) */\n      dup3\n      mload\n      dup1\n      dup4\n      sub\n      swap1\n      swap2\n      add\n      dup2\n      mstore\n        /* \"#utility.yul\":4110:4128   */\n      0x84\n      swap1\n      swap2\n      add\n        /* \"@openzeppelin/contracts/token/ERC20/utils/SafeERC20.sol\":1010:1078  abi.encodeWithSelector(token.transferFrom.selector, from, to, value) */\n      swap1\n      swap2\n      mstore\n      0x20\n      dup2\n      add\n      dup1\n      mload\n      sub(shl(0xe0, 0x01), 0x01)\n      and\n      shl(0xe0, 0x23b872dd)\n      or\n      swap1\n      mstore\n        /* \"@openzeppelin/contracts/token/ERC20/utils/SafeERC20.sol\":983:1079  _callOptionalReturn(token, abi.encodeWithSelector(token.transferFrom.selector, from, to, value)) */\n      tag_450\n      swap1\n        /* \"@openzeppelin/contracts/token/ERC20/utils/SafeERC20.sol\":1003:1008  token */\n      dup6\n      swap1\n        /* \"@openzeppelin/contracts/token/ERC20/utils/SafeERC20.sol\":983:1002  _callOptionalReturn */\n      tag_453\n        /* \"@openzeppelin/contracts/token/ERC20/utils/SafeERC20.sol\":983:1079  _callOptionalReturn(token, abi.encodeWithSelector(token.transferFrom.selector, from, to, value)) */\n      jump\t// in\n    tag_450:\n        /* \"@openzeppelin/contracts/token/ERC20/utils/SafeERC20.sol\":845:1086  function safeTransferFrom(... */\n      pop\n      pop\n      pop\n      pop\n      jump\t// out\n        /* \"@openzeppelin/contracts/token/ERC20/utils/SafeERC20.sol\":3140:3846  function _callOptionalReturn(IERC20 token, bytes memory data) private {... */\n    tag_453:\n        /* \"@openzeppelin/contracts/token/ERC20/utils/SafeERC20.sol\":3559:3582  bytes memory returndata */\n      0x00\n        /* \"@openzeppelin/contracts/token/ERC20/utils/SafeERC20.sol\":3585:3654  address(token).functionCall(data, \"SafeERC20: low-level call failed\") */\n      tag_455\n        /* \"@openzeppelin/contracts/token/ERC20/utils/SafeERC20.sol\":3613:3617  data */\n      dup3\n        /* \"@openzeppelin/contracts/token/ERC20/utils/SafeERC20.sol\":3585:3654  address(token).functionCall(data, \"SafeERC20: low-level call failed\") */\n      mload(0x40)\n      dup1\n      0x40\n      add\n      0x40\n      mstore\n      dup1\n      0x20\n      dup2\n      mstore\n      0x20\n      add\n      0x5361666545524332303a206c6f772d6c6576656c2063616c6c206661696c6564\n      dup2\n      mstore\n      pop\n        /* \"@openzeppelin/contracts/token/ERC20/utils/SafeERC20.sol\":3593:3598  token */\n      dup6\n      sub(shl(0xa0, 0x01), 0x01)\n        /* \"@openzeppelin/contracts/token/ERC20/utils/SafeERC20.sol\":3585:3612  address(token).functionCall */\n      and\n      tag_456\n      swap1\n        /* \"@openzeppelin/contracts/token/ERC20/utils/SafeERC20.sol\":3585:3654  address(token).functionCall(data, \"SafeERC20: low-level call failed\") */\n      swap3\n      swap2\n      swap1\n      0xffffffff\n      and\n      jump\t// in\n    tag_455:\n        /* \"@openzeppelin/contracts/token/ERC20/utils/SafeERC20.sol\":3668:3685  returndata.length */\n      dup1\n      mload\n        /* \"@openzeppelin/contracts/token/ERC20/utils/SafeERC20.sol\":3559:3654  bytes memory returndata = address(token).functionCall(data, \"SafeERC20: low-level call failed\") */\n      swap1\n      swap2\n      pop\n        /* \"@openzeppelin/contracts/token/ERC20/utils/SafeERC20.sol\":3668:3689  returndata.length > 0 */\n      iszero\n        /* \"@openzeppelin/contracts/token/ERC20/utils/SafeERC20.sol\":3664:3840  if (returndata.length > 0) {... */\n      tag_445\n      jumpi\n        /* \"@openzeppelin/contracts/token/ERC20/utils/SafeERC20.sol\":3763:3773  returndata */\n      dup1\n        /* \"@openzeppelin/contracts/token/ERC20/utils/SafeERC20.sol\":3752:3782  abi.decode(returndata, (bool)) */\n      dup1\n      0x20\n      add\n      swap1\n      mload\n      dup2\n      add\n      swap1\n      tag_458\n      swap2\n      swap1\n      tag_432\n      jump\t// in\n    tag_458:\n        /* \"@openzeppelin/contracts/token/ERC20/utils/SafeERC20.sol\":3744:3829  require(abi.decode(returndata, (bool)), \"SafeERC20: ERC20 operation did not succeed\") */\n      tag_445\n      jumpi\n      mload(0x40)\n      shl(0xe5, 0x461bcd)\n      dup2\n      mstore\n        /* \"#utility.yul\":13339:13341   */\n      0x20\n        /* \"@openzeppelin/contracts/token/ERC20/utils/SafeERC20.sol\":3744:3829  require(abi.decode(returndata, (bool)), \"SafeERC20: ERC20 operation did not succeed\") */\n      0x04\n      dup3\n      add\n        /* \"#utility.yul\":13321:13342   */\n      mstore\n        /* \"#utility.yul\":13378:13380   */\n      0x2a\n        /* \"#utility.yul\":13358:13376   */\n      0x24\n      dup3\n      add\n        /* \"#utility.yul\":13351:13381   */\n      mstore\n        /* \"#utility.yul\":13417:13451   */\n      0x5361666545524332303a204552433230206f7065726174696f6e20646964206e\n        /* \"#utility.yul\":13397:13415   */\n      0x44\n      dup3\n      add\n        /* \"#utility.yul\":13390:13452   */\n      mstore\n      shl(0xb2, 0x1bdd081cdd58d8d95959)\n        /* \"#utility.yul\":13468:13486   */\n      0x64\n      dup3\n      add\n        /* \"#utility.yul\":13461:13501   */\n      mstore\n        /* \"#utility.yul\":13518:13537   */\n      0x84\n      add\n        /* \"@openzeppelin/contracts/token/ERC20/utils/SafeERC20.sol\":3744:3829  require(abi.decode(returndata, (bool)), \"SafeERC20: ERC20 operation did not succeed\") */\n      tag_179\n        /* \"#utility.yul\":13137:13543   */\n      jump\n        /* \"@openzeppelin/contracts/utils/Address.sol\":3461:3684  function functionCall(... */\n    tag_456:\n        /* \"@openzeppelin/contracts/utils/Address.sol\":3594:3606  bytes memory */\n      0x60\n        /* \"@openzeppelin/contracts/utils/Address.sol\":3625:3677  functionCallWithValue(target, data, 0, errorMessage) */\n      tag_463\n        /* \"@openzeppelin/contracts/utils/Address.sol\":3647:3653  target */\n      dup5\n        /* \"@openzeppelin/contracts/utils/Address.sol\":3655:3659  data */\n      dup5\n        /* \"@openzeppelin/contracts/utils/Address.sol\":3661:3662  0 */\n      0x00\n        /* \"@openzeppelin/contracts/utils/Address.sol\":3664:3676  errorMessage */\n      dup6\n        /* \"@openzeppelin/contracts/utils/Address.sol\":3625:3646  functionCallWithValue */\n      tag_464\n        /* \"@openzeppelin/contracts/utils/Address.sol\":3625:3677  functionCallWithValue(target, data, 0, errorMessage) */\n      jump\t// in\n    tag_463:\n        /* \"@openzeppelin/contracts/utils/Address.sol\":3618:3677  return functionCallWithValue(target, data, 0, errorMessage) */\n      swap5\n        /* \"@openzeppelin/contracts/utils/Address.sol\":3461:3684  function functionCall(... */\n      swap4\n      pop\n      pop\n      pop\n      pop\n      jump\t// out\n        /* \"@openzeppelin/contracts/utils/Address.sol\":4548:5048  function functionCallWithValue(... */\n    tag_464:\n        /* \"@openzeppelin/contracts/utils/Address.sol\":4713:4725  bytes memory */\n      0x60\n        /* \"@openzeppelin/contracts/utils/Address.sol\":4770:4775  value */\n      dup3\n        /* \"@openzeppelin/contracts/utils/Address.sol\":4745:4766  address(this).balance */\n      selfbalance\n        /* \"@openzeppelin/contracts/utils/Address.sol\":4745:4775  address(this).balance >= value */\n      lt\n      iszero\n        /* \"@openzeppelin/contracts/utils/Address.sol\":4737:4818  require(address(this).balance >= value, \"Address: insufficient balance for call\") */\n      tag_466\n      jumpi\n      mload(0x40)\n      shl(0xe5, 0x461bcd)\n      dup2\n      mstore\n        /* \"#utility.yul\":8113:8115   */\n      0x20\n        /* \"@openzeppelin/contracts/utils/Address.sol\":4737:4818  require(address(this).balance >= value, \"Address: insufficient balance for call\") */\n      0x04\n      dup3\n      add\n        /* \"#utility.yul\":8095:8116   */\n      mstore\n        /* \"#utility.yul\":8152:8154   */\n      0x26\n        /* \"#utility.yul\":8132:8150   */\n      0x24\n      dup3\n      add\n        /* \"#utility.yul\":8125:8155   */\n      mstore\n        /* \"#utility.yul\":8191:8225   */\n      0x416464726573733a20696e73756666696369656e742062616c616e636520666f\n        /* \"#utility.yul\":8171:8189   */\n      0x44\n      dup3\n      add\n        /* \"#utility.yul\":8164:8226   */\n      mstore\n      shl(0xd2, 0x1c8818d85b1b)\n        /* \"#utility.yul\":8242:8260   */\n      0x64\n      dup3\n      add\n        /* \"#utility.yul\":8235:8271   */\n      mstore\n        /* \"#utility.yul\":8288:8307   */\n      0x84\n      add\n        /* \"@openzeppelin/contracts/utils/Address.sol\":4737:4818  require(address(this).balance >= value, \"Address: insufficient balance for call\") */\n      tag_179\n        /* \"#utility.yul\":7911:8313   */\n      jump\n        /* \"@openzeppelin/contracts/utils/Address.sol\":4737:4818  require(address(this).balance >= value, \"Address: insufficient balance for call\") */\n    tag_466:\n        /* \"@openzeppelin/contracts/utils/Address.sol\":1034:1054  extcodesize(account) */\n      dup5\n      extcodesize\n        /* \"@openzeppelin/contracts/utils/Address.sol\":4828:4888  require(isContract(target), \"Address: call to non-contract\") */\n      tag_471\n      jumpi\n      mload(0x40)\n      shl(0xe5, 0x461bcd)\n      dup2\n      mstore\n        /* \"#utility.yul\":11752:11754   */\n      0x20\n        /* \"@openzeppelin/contracts/utils/Address.sol\":4828:4888  require(isContract(target), \"Address: call to non-contract\") */\n      0x04\n      dup3\n      add\n        /* \"#utility.yul\":11734:11755   */\n      mstore\n        /* \"#utility.yul\":11791:11793   */\n      0x1d\n        /* \"#utility.yul\":11771:11789   */\n      0x24\n      dup3\n      add\n        /* \"#utility.yul\":11764:11794   */\n      mstore\n        /* \"#utility.yul\":11830:11861   */\n      0x416464726573733a2063616c6c20746f206e6f6e2d636f6e7472616374000000\n        /* \"#utility.yul\":11810:11828   */\n      0x44\n      dup3\n      add\n        /* \"#utility.yul\":11803:11862   */\n      mstore\n        /* \"#utility.yul\":11879:11897   */\n      0x64\n      add\n        /* \"@openzeppelin/contracts/utils/Address.sol\":4828:4888  require(isContract(target), \"Address: call to non-contract\") */\n      tag_179\n        /* \"#utility.yul\":11550:11903   */\n      jump\n        /* \"@openzeppelin/contracts/utils/Address.sol\":4828:4888  require(isContract(target), \"Address: call to non-contract\") */\n    tag_471:\n        /* \"@openzeppelin/contracts/utils/Address.sol\":4900:4912  bool success */\n      0x00\n        /* \"@openzeppelin/contracts/utils/Address.sol\":4914:4937  bytes memory returndata */\n      dup1\n        /* \"@openzeppelin/contracts/utils/Address.sol\":4941:4947  target */\n      dup7\n      sub(shl(0xa0, 0x01), 0x01)\n        /* \"@openzeppelin/contracts/utils/Address.sol\":4941:4952  target.call */\n      and\n        /* \"@openzeppelin/contracts/utils/Address.sol\":4960:4965  value */\n      dup6\n        /* \"@openzeppelin/contracts/utils/Address.sol\":4967:4971  data */\n      dup8\n        /* \"@openzeppelin/contracts/utils/Address.sol\":4941:4972  target.call{value: value}(data) */\n      mload(0x40)\n      tag_474\n      swap2\n      swap1\n      tag_425\n      jump\t// in\n    tag_474:\n      0x00\n      mload(0x40)\n      dup1\n      dup4\n      sub\n      dup2\n      dup6\n      dup8\n      gas\n      call\n      swap3\n      pop\n      pop\n      pop\n      returndatasize\n      dup1\n      0x00\n      dup2\n      eq\n      tag_477\n      jumpi\n      mload(0x40)\n      swap2\n      pop\n      and(add(returndatasize, 0x3f), not(0x1f))\n      dup3\n      add\n      0x40\n      mstore\n      returndatasize\n      dup3\n      mstore\n      returndatasize\n      0x00\n      0x20\n      dup5\n      add\n      returndatacopy\n      jump(tag_476)\n    tag_477:\n      0x60\n      swap2\n      pop\n    tag_476:\n      pop\n        /* \"@openzeppelin/contracts/utils/Address.sol\":4899:4972  (bool success, bytes memory returndata) = target.call{value: value}(data) */\n      swap2\n      pop\n      swap2\n      pop\n        /* \"@openzeppelin/contracts/utils/Address.sol\":4989:5041  _verifyCallResult(success, returndata, errorMessage) */\n      tag_478\n        /* \"@openzeppelin/contracts/utils/Address.sol\":5007:5014  success */\n      dup3\n        /* \"@openzeppelin/contracts/utils/Address.sol\":5016:5026  returndata */\n      dup3\n        /* \"@openzeppelin/contracts/utils/Address.sol\":5028:5040  errorMessage */\n      dup7\n        /* \"@openzeppelin/contracts/utils/Address.sol\":4989:5006  _verifyCallResult */\n      tag_479\n        /* \"@openzeppelin/contracts/utils/Address.sol\":4989:5041  _verifyCallResult(success, returndata, errorMessage) */\n      jump\t// in\n    tag_478:\n        /* \"@openzeppelin/contracts/utils/Address.sol\":4982:5041  return _verifyCallResult(success, returndata, errorMessage) */\n      swap8\n        /* \"@openzeppelin/contracts/utils/Address.sol\":4548:5048  function functionCallWithValue(... */\n      swap7\n      pop\n      pop\n      pop\n      pop\n      pop\n      pop\n      pop\n      jump\t// out\n        /* \"@openzeppelin/contracts/utils/Address.sol\":6950:7642  function _verifyCallResult(... */\n    tag_479:\n        /* \"@openzeppelin/contracts/utils/Address.sol\":7096:7108  bytes memory */\n      0x60\n        /* \"@openzeppelin/contracts/utils/Address.sol\":7124:7131  success */\n      dup4\n        /* \"@openzeppelin/contracts/utils/Address.sol\":7120:7636  if (success) {... */\n      iszero\n      tag_482\n      jumpi\n      pop\n        /* \"@openzeppelin/contracts/utils/Address.sol\":7154:7164  returndata */\n      dup2\n        /* \"@openzeppelin/contracts/utils/Address.sol\":7147:7164  return returndata */\n      jump(tag_411)\n        /* \"@openzeppelin/contracts/utils/Address.sol\":7120:7636  if (success) {... */\n    tag_482:\n        /* \"@openzeppelin/contracts/utils/Address.sol\":7265:7282  returndata.length */\n      dup3\n      mload\n        /* \"@openzeppelin/contracts/utils/Address.sol\":7265:7286  returndata.length > 0 */\n      iszero\n        /* \"@openzeppelin/contracts/utils/Address.sol\":7261:7626  if (returndata.length > 0) {... */\n      tag_484\n      jumpi\n        /* \"@openzeppelin/contracts/utils/Address.sol\":7459:7469  returndata */\n      dup3\n        /* \"@openzeppelin/contracts/utils/Address.sol\":7453:7470  mload(returndata) */\n      mload\n        /* \"@openzeppelin/contracts/utils/Address.sol\":7519:7534  returndata_size */\n      dup1\n        /* \"@openzeppelin/contracts/utils/Address.sol\":7506:7516  returndata */\n      dup5\n        /* \"@openzeppelin/contracts/utils/Address.sol\":7502:7504  32 */\n      0x20\n        /* \"@openzeppelin/contracts/utils/Address.sol\":7498:7517  add(32, returndata) */\n      add\n        /* \"@openzeppelin/contracts/utils/Address.sol\":7491:7535  revert(add(32, returndata), returndata_size) */\n      revert\n        /* \"@openzeppelin/contracts/utils/Address.sol\":7261:7626  if (returndata.length > 0) {... */\n    tag_484:\n        /* \"@openzeppelin/contracts/utils/Address.sol\":7598:7610  errorMessage */\n      dup2\n        /* \"@openzeppelin/contracts/utils/Address.sol\":7591:7611  revert(errorMessage) */\n      mload(0x40)\n      shl(0xe5, 0x461bcd)\n      dup2\n      mstore\n      0x04\n      add\n      tag_179\n      swap2\n      swap1\n      tag_487\n      jump\t// in\n        /* \"#utility.yul\":14:762   */\n    tag_489:\n        /* \"#utility.yul\":68:73   */\n      0x00\n        /* \"#utility.yul\":121:124   */\n      dup3\n        /* \"#utility.yul\":114:118   */\n      0x1f\n        /* \"#utility.yul\":106:112   */\n      dup4\n        /* \"#utility.yul\":102:119   */\n      add\n        /* \"#utility.yul\":98:125   */\n      slt\n        /* \"#utility.yul\":88:143   */\n      tag_491\n      jumpi\n        /* \"#utility.yul\":139:140   */\n      0x00\n        /* \"#utility.yul\":136:137   */\n      dup1\n        /* \"#utility.yul\":129:141   */\n      revert\n        /* \"#utility.yul\":88:143   */\n    tag_491:\n        /* \"#utility.yul\":175:181   */\n      dup2\n        /* \"#utility.yul\":162:182   */\n      calldataload\n        /* \"#utility.yul\":201:205   */\n      0x20\n        /* \"#utility.yul\":225:285   */\n      tag_492\n        /* \"#utility.yul\":241:284   */\n      tag_493\n        /* \"#utility.yul\":281:283   */\n      dup4\n        /* \"#utility.yul\":241:284   */\n      tag_494\n      jump\t// in\n    tag_493:\n        /* \"#utility.yul\":225:285   */\n      tag_495\n      jump\t// in\n    tag_492:\n        /* \"#utility.yul\":307:310   */\n      dup1\n        /* \"#utility.yul\":331:333   */\n      dup4\n        /* \"#utility.yul\":326:329   */\n      dup3\n        /* \"#utility.yul\":319:334   */\n      mstore\n        /* \"#utility.yul\":359:361   */\n      dup3\n        /* \"#utility.yul\":354:357   */\n      dup3\n        /* \"#utility.yul\":350:362   */\n      add\n        /* \"#utility.yul\":343:362   */\n      swap2\n      pop\n        /* \"#utility.yul\":394:396   */\n      dup3\n        /* \"#utility.yul\":386:392   */\n      dup7\n        /* \"#utility.yul\":382:397   */\n      add\n        /* \"#utility.yul\":446:449   */\n      dup8\n        /* \"#utility.yul\":441:443   */\n      dup5\n        /* \"#utility.yul\":435:437   */\n      dup7\n        /* \"#utility.yul\":432:433   */\n      0x05\n        /* \"#utility.yul\":428:438   */\n      shl\n        /* \"#utility.yul\":420:426   */\n      dup10\n        /* \"#utility.yul\":416:439   */\n      add\n        /* \"#utility.yul\":412:444   */\n      add\n        /* \"#utility.yul\":409:450   */\n      gt\n        /* \"#utility.yul\":406:467   */\n      iszero\n      tag_496\n      jumpi\n        /* \"#utility.yul\":463:464   */\n      0x00\n        /* \"#utility.yul\":460:461   */\n      dup1\n        /* \"#utility.yul\":453:465   */\n      revert\n        /* \"#utility.yul\":406:467   */\n    tag_496:\n        /* \"#utility.yul\":485:486   */\n      0x00\n        /* \"#utility.yul\":495:733   */\n    tag_497:\n        /* \"#utility.yul\":509:511   */\n      dup6\n        /* \"#utility.yul\":506:507   */\n      dup2\n        /* \"#utility.yul\":503:512   */\n      lt\n        /* \"#utility.yul\":495:733   */\n      iszero\n      tag_499\n      jumpi\n        /* \"#utility.yul\":580:583   */\n      dup2\n        /* \"#utility.yul\":567:584   */\n      calldataload\n        /* \"#utility.yul\":597:628   */\n      tag_500\n        /* \"#utility.yul\":622:627   */\n      dup2\n        /* \"#utility.yul\":597:628   */\n      tag_501\n      jump\t// in\n    tag_500:\n        /* \"#utility.yul\":641:659   */\n      dup5\n      mstore\n        /* \"#utility.yul\":679:691   */\n      swap3\n      dup5\n      add\n      swap3\n        /* \"#utility.yul\":711:723   */\n      swap1\n      dup5\n      add\n      swap1\n        /* \"#utility.yul\":527:528   */\n      0x01\n        /* \"#utility.yul\":520:529   */\n      add\n        /* \"#utility.yul\":495:733   */\n      jump(tag_497)\n    tag_499:\n      pop\n        /* \"#utility.yul\":751:756   */\n      swap1\n      swap8\n        /* \"#utility.yul\":14:762   */\n      swap7\n      pop\n      pop\n      pop\n      pop\n      pop\n      pop\n      pop\n      jump\t// out\n        /* \"#utility.yul\":767:1014   */\n    tag_78:\n        /* \"#utility.yul\":826:832   */\n      0x00\n        /* \"#utility.yul\":879:881   */\n      0x20\n        /* \"#utility.yul\":867:876   */\n      dup3\n        /* \"#utility.yul\":858:865   */\n      dup5\n        /* \"#utility.yul\":854:877   */\n      sub\n        /* \"#utility.yul\":850:882   */\n      slt\n        /* \"#utility.yul\":847:899   */\n      iszero\n      tag_503\n      jumpi\n        /* \"#utility.yul\":895:896   */\n      0x00\n        /* \"#utility.yul\":892:893   */\n      dup1\n        /* \"#utility.yul\":885:897   */\n      revert\n        /* \"#utility.yul\":847:899   */\n    tag_503:\n        /* \"#utility.yul\":934:943   */\n      dup2\n        /* \"#utility.yul\":921:944   */\n      calldataload\n        /* \"#utility.yul\":953:984   */\n      tag_411\n        /* \"#utility.yul\":978:983   */\n      dup2\n        /* \"#utility.yul\":953:984   */\n      tag_501\n      jump\t// in\n        /* \"#utility.yul\":1019:1367   */\n    tag_122:\n        /* \"#utility.yul\":1103:1109   */\n      0x00\n        /* \"#utility.yul\":1156:1158   */\n      0x20\n        /* \"#utility.yul\":1144:1153   */\n      dup3\n        /* \"#utility.yul\":1135:1142   */\n      dup5\n        /* \"#utility.yul\":1131:1154   */\n      sub\n        /* \"#utility.yul\":1127:1159   */\n      slt\n        /* \"#utility.yul\":1124:1176   */\n      iszero\n      tag_506\n      jumpi\n        /* \"#utility.yul\":1172:1173   */\n      0x00\n        /* \"#utility.yul\":1169:1170   */\n      dup1\n        /* \"#utility.yul\":1162:1174   */\n      revert\n        /* \"#utility.yul\":1124:1176   */\n    tag_506:\n        /* \"#utility.yul\":1212:1221   */\n      dup2\n        /* \"#utility.yul\":1199:1222   */\n      calldataload\n        /* \"#utility.yul\":1245:1263   */\n      0xffffffffffffffff\n        /* \"#utility.yul\":1237:1243   */\n      dup2\n        /* \"#utility.yul\":1234:1264   */\n      gt\n        /* \"#utility.yul\":1231:1281   */\n      iszero\n      tag_507\n      jumpi\n        /* \"#utility.yul\":1277:1278   */\n      0x00\n        /* \"#utility.yul\":1274:1275   */\n      dup1\n        /* \"#utility.yul\":1267:1279   */\n      revert\n        /* \"#utility.yul\":1231:1281   */\n    tag_507:\n        /* \"#utility.yul\":1300:1361   */\n      tag_463\n        /* \"#utility.yul\":1353:1360   */\n      dup5\n        /* \"#utility.yul\":1344:1350   */\n      dup3\n        /* \"#utility.yul\":1333:1342   */\n      dup6\n        /* \"#utility.yul\":1329:1351   */\n      add\n        /* \"#utility.yul\":1300:1361   */\n      tag_489\n      jump\t// in\n        /* \"#utility.yul\":1372:2521   */\n    tag_69:\n        /* \"#utility.yul\":1490:1496   */\n      0x00\n        /* \"#utility.yul\":1498:1504   */\n      dup1\n        /* \"#utility.yul\":1551:1553   */\n      0x40\n        /* \"#utility.yul\":1539:1548   */\n      dup4\n        /* \"#utility.yul\":1530:1537   */\n      dup6\n        /* \"#utility.yul\":1526:1549   */\n      sub\n        /* \"#utility.yul\":1522:1554   */\n      slt\n        /* \"#utility.yul\":1519:1571   */\n      iszero\n      tag_510\n      jumpi\n        /* \"#utility.yul\":1567:1568   */\n      0x00\n        /* \"#utility.yul\":1564:1565   */\n      dup1\n        /* \"#utility.yul\":1557:1569   */\n      revert\n        /* \"#utility.yul\":1519:1571   */\n    tag_510:\n        /* \"#utility.yul\":1607:1616   */\n      dup3\n        /* \"#utility.yul\":1594:1617   */\n      calldataload\n        /* \"#utility.yul\":1636:1654   */\n      0xffffffffffffffff\n        /* \"#utility.yul\":1677:1679   */\n      dup1\n        /* \"#utility.yul\":1669:1675   */\n      dup3\n        /* \"#utility.yul\":1666:1680   */\n      gt\n        /* \"#utility.yul\":1663:1697   */\n      iszero\n      tag_511\n      jumpi\n        /* \"#utility.yul\":1693:1694   */\n      0x00\n        /* \"#utility.yul\":1690:1691   */\n      dup1\n        /* \"#utility.yul\":1683:1695   */\n      revert\n        /* \"#utility.yul\":1663:1697   */\n    tag_511:\n        /* \"#utility.yul\":1716:1777   */\n      tag_512\n        /* \"#utility.yul\":1769:1776   */\n      dup7\n        /* \"#utility.yul\":1760:1766   */\n      dup4\n        /* \"#utility.yul\":1749:1758   */\n      dup8\n        /* \"#utility.yul\":1745:1767   */\n      add\n        /* \"#utility.yul\":1716:1777   */\n      tag_489\n      jump\t// in\n    tag_512:\n        /* \"#utility.yul\":1706:1777   */\n      swap4\n      pop\n        /* \"#utility.yul\":1796:1798   */\n      0x20\n        /* \"#utility.yul\":1786:1798   */\n      swap2\n      pop\n        /* \"#utility.yul\":1851:1853   */\n      dup2\n        /* \"#utility.yul\":1840:1849   */\n      dup6\n        /* \"#utility.yul\":1836:1854   */\n      add\n        /* \"#utility.yul\":1823:1855   */\n      calldataload\n        /* \"#utility.yul\":1880:1882   */\n      dup2\n        /* \"#utility.yul\":1870:1878   */\n      dup2\n        /* \"#utility.yul\":1867:1883   */\n      gt\n        /* \"#utility.yul\":1864:1900   */\n      iszero\n      tag_513\n      jumpi\n        /* \"#utility.yul\":1896:1897   */\n      0x00\n        /* \"#utility.yul\":1893:1894   */\n      dup1\n        /* \"#utility.yul\":1886:1898   */\n      revert\n        /* \"#utility.yul\":1864:1900   */\n    tag_513:\n        /* \"#utility.yul\":1919:1943   */\n      dup6\n      add\n      swap1\n      pop\n        /* \"#utility.yul\":1974:1978   */\n      0x1f\n        /* \"#utility.yul\":1966:1979   */\n      dup2\n      add\n        /* \"#utility.yul\":1962:1989   */\n      dup7\n      sgt\n        /* \"#utility.yul\":1952:2007   */\n      tag_514\n      jumpi\n        /* \"#utility.yul\":2003:2004   */\n      0x00\n        /* \"#utility.yul\":2000:2001   */\n      dup1\n        /* \"#utility.yul\":1993:2005   */\n      revert\n        /* \"#utility.yul\":1952:2007   */\n    tag_514:\n        /* \"#utility.yul\":2039:2041   */\n      dup1\n        /* \"#utility.yul\":2026:2042   */\n      calldataload\n        /* \"#utility.yul\":2062:2122   */\n      tag_515\n        /* \"#utility.yul\":2078:2121   */\n      tag_493\n        /* \"#utility.yul\":2118:2120   */\n      dup3\n        /* \"#utility.yul\":2078:2121   */\n      tag_494\n      jump\t// in\n        /* \"#utility.yul\":2062:2122   */\n    tag_515:\n        /* \"#utility.yul\":2144:2147   */\n      dup1\n        /* \"#utility.yul\":2168:2170   */\n      dup3\n        /* \"#utility.yul\":2163:2166   */\n      dup3\n        /* \"#utility.yul\":2156:2171   */\n      mstore\n        /* \"#utility.yul\":2196:2198   */\n      dup5\n        /* \"#utility.yul\":2191:2194   */\n      dup3\n        /* \"#utility.yul\":2187:2199   */\n      add\n        /* \"#utility.yul\":2180:2199   */\n      swap2\n      pop\n        /* \"#utility.yul\":2227:2229   */\n      dup5\n        /* \"#utility.yul\":2223:2225   */\n      dup5\n        /* \"#utility.yul\":2219:2230   */\n      add\n        /* \"#utility.yul\":2275:2282   */\n      dup10\n        /* \"#utility.yul\":2270:2272   */\n      dup7\n        /* \"#utility.yul\":2264:2266   */\n      dup6\n        /* \"#utility.yul\":2261:2262   */\n      0x05\n        /* \"#utility.yul\":2257:2267   */\n      shl\n        /* \"#utility.yul\":2253:2255   */\n      dup8\n        /* \"#utility.yul\":2249:2268   */\n      add\n        /* \"#utility.yul\":2245:2273   */\n      add\n        /* \"#utility.yul\":2242:2283   */\n      gt\n        /* \"#utility.yul\":2239:2300   */\n      iszero\n      tag_517\n      jumpi\n        /* \"#utility.yul\":2296:2297   */\n      0x00\n        /* \"#utility.yul\":2293:2294   */\n      dup1\n        /* \"#utility.yul\":2286:2298   */\n      revert\n        /* \"#utility.yul\":2239:2300   */\n    tag_517:\n        /* \"#utility.yul\":2318:2319   */\n      0x00\n        /* \"#utility.yul\":2309:2319   */\n      swap5\n      pop\n        /* \"#utility.yul\":2328:2491   */\n    tag_518:\n        /* \"#utility.yul\":2342:2344   */\n      dup4\n        /* \"#utility.yul\":2339:2340   */\n      dup6\n        /* \"#utility.yul\":2336:2345   */\n      lt\n        /* \"#utility.yul\":2328:2491   */\n      iszero\n      tag_520\n      jumpi\n        /* \"#utility.yul\":2399:2416   */\n      dup1\n      calldataload\n        /* \"#utility.yul\":2387:2417   */\n      dup4\n      mstore\n        /* \"#utility.yul\":2360:2361   */\n      0x01\n        /* \"#utility.yul\":2353:2362   */\n      swap5\n      swap1\n      swap5\n      add\n      swap4\n        /* \"#utility.yul\":2437:2449   */\n      swap2\n      dup6\n      add\n      swap2\n        /* \"#utility.yul\":2469:2481   */\n      dup6\n      add\n        /* \"#utility.yul\":2328:2491   */\n      jump(tag_518)\n    tag_520:\n        /* \"#utility.yul\":2332:2335   */\n      pop\n        /* \"#utility.yul\":2510:2515   */\n      dup1\n        /* \"#utility.yul\":2500:2515   */\n      swap6\n      pop\n      pop\n      pop\n      pop\n      pop\n      pop\n        /* \"#utility.yul\":1372:2521   */\n      swap3\n      pop\n      swap3\n      swap1\n      pop\n      jump\t// out\n        /* \"#utility.yul\":2526:2803   */\n    tag_432:\n        /* \"#utility.yul\":2593:2599   */\n      0x00\n        /* \"#utility.yul\":2646:2648   */\n      0x20\n        /* \"#utility.yul\":2634:2643   */\n      dup3\n        /* \"#utility.yul\":2625:2632   */\n      dup5\n        /* \"#utility.yul\":2621:2644   */\n      sub\n        /* \"#utility.yul\":2617:2649   */\n      slt\n        /* \"#utility.yul\":2614:2666   */\n      iszero\n      tag_522\n      jumpi\n        /* \"#utility.yul\":2662:2663   */\n      0x00\n        /* \"#utility.yul\":2659:2660   */\n      dup1\n        /* \"#utility.yul\":2652:2664   */\n      revert\n        /* \"#utility.yul\":2614:2666   */\n    tag_522:\n        /* \"#utility.yul\":2694:2703   */\n      dup2\n        /* \"#utility.yul\":2688:2704   */\n      mload\n        /* \"#utility.yul\":2747:2752   */\n      dup1\n        /* \"#utility.yul\":2740:2753   */\n      iszero\n        /* \"#utility.yul\":2733:2754   */\n      iszero\n        /* \"#utility.yul\":2726:2731   */\n      dup2\n        /* \"#utility.yul\":2723:2755   */\n      eq\n        /* \"#utility.yul\":2713:2773   */\n      tag_411\n      jumpi\n        /* \"#utility.yul\":2769:2770   */\n      0x00\n        /* \"#utility.yul\":2766:2767   */\n      dup1\n        /* \"#utility.yul\":2759:2771   */\n      revert\n        /* \"#utility.yul\":3074:3254   */\n    tag_43:\n        /* \"#utility.yul\":3133:3139   */\n      0x00\n        /* \"#utility.yul\":3186:3188   */\n      0x20\n        /* \"#utility.yul\":3174:3183   */\n      dup3\n        /* \"#utility.yul\":3165:3172   */\n      dup5\n        /* \"#utility.yul\":3161:3184   */\n      sub\n        /* \"#utility.yul\":3157:3189   */\n      slt\n        /* \"#utility.yul\":3154:3206   */\n      iszero\n      tag_528\n      jumpi\n        /* \"#utility.yul\":3202:3203   */\n      0x00\n        /* \"#utility.yul\":3199:3200   */\n      dup1\n        /* \"#utility.yul\":3192:3204   */\n      revert\n        /* \"#utility.yul\":3154:3206   */\n    tag_528:\n      pop\n        /* \"#utility.yul\":3225:3248   */\n      calldataload\n      swap2\n        /* \"#utility.yul\":3074:3254   */\n      swap1\n      pop\n      jump\t// out\n        /* \"#utility.yul\":3259:3443   */\n    tag_196:\n        /* \"#utility.yul\":3329:3335   */\n      0x00\n        /* \"#utility.yul\":3382:3384   */\n      0x20\n        /* \"#utility.yul\":3370:3379   */\n      dup3\n        /* \"#utility.yul\":3361:3368   */\n      dup5\n        /* \"#utility.yul\":3357:3380   */\n      sub\n        /* \"#utility.yul\":3353:3385   */\n      slt\n        /* \"#utility.yul\":3350:3402   */\n      iszero\n      tag_530\n      jumpi\n        /* \"#utility.yul\":3398:3399   */\n      0x00\n        /* \"#utility.yul\":3395:3396   */\n      dup1\n        /* \"#utility.yul\":3388:3400   */\n      revert\n        /* \"#utility.yul\":3350:3402   */\n    tag_530:\n      pop\n        /* \"#utility.yul\":3421:3437   */\n      mload\n      swap2\n        /* \"#utility.yul\":3259:3443   */\n      swap1\n      pop\n      jump\t// out\n        /* \"#utility.yul\":3448:3722   */\n    tag_425:\n        /* \"#utility.yul\":3577:3580   */\n      0x00\n        /* \"#utility.yul\":3615:3621   */\n      dup3\n        /* \"#utility.yul\":3609:3622   */\n      mload\n        /* \"#utility.yul\":3631:3684   */\n      tag_532\n        /* \"#utility.yul\":3677:3683   */\n      dup2\n        /* \"#utility.yul\":3672:3675   */\n      dup5\n        /* \"#utility.yul\":3665:3669   */\n      0x20\n        /* \"#utility.yul\":3657:3663   */\n      dup8\n        /* \"#utility.yul\":3653:3670   */\n      add\n        /* \"#utility.yul\":3631:3684   */\n      tag_533\n      jump\t// in\n    tag_532:\n        /* \"#utility.yul\":3700:3716   */\n      swap2\n      swap1\n      swap2\n      add\n      swap3\n        /* \"#utility.yul\":3448:3722   */\n      swap2\n      pop\n      pop\n      jump\t// out\n        /* \"#utility.yul\":5008:5391   */\n    tag_487:\n        /* \"#utility.yul\":5157:5159   */\n      0x20\n        /* \"#utility.yul\":5146:5155   */\n      dup2\n        /* \"#utility.yul\":5139:5160   */\n      mstore\n        /* \"#utility.yul\":5120:5124   */\n      0x00\n        /* \"#utility.yul\":5189:5195   */\n      dup3\n        /* \"#utility.yul\":5183:5196   */\n      mload\n        /* \"#utility.yul\":5232:5238   */\n      dup1\n        /* \"#utility.yul\":5227:5229   */\n      0x20\n        /* \"#utility.yul\":5216:5225   */\n      dup5\n        /* \"#utility.yul\":5212:5230   */\n      add\n        /* \"#utility.yul\":5205:5239   */\n      mstore\n        /* \"#utility.yul\":5248:5314   */\n      tag_540\n        /* \"#utility.yul\":5307:5313   */\n      dup2\n        /* \"#utility.yul\":5302:5304   */\n      0x40\n        /* \"#utility.yul\":5291:5300   */\n      dup6\n        /* \"#utility.yul\":5287:5305   */\n      add\n        /* \"#utility.yul\":5282:5284   */\n      0x20\n        /* \"#utility.yul\":5274:5280   */\n      dup8\n        /* \"#utility.yul\":5270:5285   */\n      add\n        /* \"#utility.yul\":5248:5314   */\n      tag_533\n      jump\t// in\n    tag_540:\n        /* \"#utility.yul\":5375:5377   */\n      0x1f\n        /* \"#utility.yul\":5354:5369   */\n      add\n      not(0x1f)\n        /* \"#utility.yul\":5350:5379   */\n      and\n        /* \"#utility.yul\":5335:5380   */\n      swap2\n      swap1\n      swap2\n      add\n        /* \"#utility.yul\":5382:5384   */\n      0x40\n        /* \"#utility.yul\":5331:5385   */\n      add\n      swap3\n        /* \"#utility.yul\":5008:5391   */\n      swap2\n      pop\n      pop\n      jump\t// out\n        /* \"#utility.yul\":8736:9212   */\n    tag_243:\n        /* \"#utility.yul\":8938:8940   */\n      0x20\n        /* \"#utility.yul\":8920:8941   */\n      dup1\n      dup3\n      mstore\n        /* \"#utility.yul\":8977:8979   */\n      0x48\n        /* \"#utility.yul\":8957:8975   */\n      swap1\n      dup3\n      add\n        /* \"#utility.yul\":8950:8980   */\n      mstore\n        /* \"#utility.yul\":9016:9050   */\n      0x41424f41543a3a77686974656c6973743a20596f752063616e27742061646420\n        /* \"#utility.yul\":9011:9013   */\n      0x40\n        /* \"#utility.yul\":8996:9014   */\n      dup3\n      add\n        /* \"#utility.yul\":8989:9051   */\n      mstore\n        /* \"#utility.yul\":9087:9121   */\n      0x6d6f7265207468616e2031303020616464726573736573206174207468652073\n        /* \"#utility.yul\":9082:9084   */\n      0x60\n        /* \"#utility.yul\":9067:9085   */\n      dup3\n      add\n        /* \"#utility.yul\":9060:9122   */\n      mstore\n      shl(0xc0, 0x616d652074696d65)\n        /* \"#utility.yul\":9153:9156   */\n      0x80\n        /* \"#utility.yul\":9138:9157   */\n      dup3\n      add\n        /* \"#utility.yul\":9131:9170   */\n      mstore\n        /* \"#utility.yul\":9202:9205   */\n      0xa0\n        /* \"#utility.yul\":9187:9206   */\n      add\n      swap1\n        /* \"#utility.yul\":8736:9212   */\n      jump\t// out\n        /* \"#utility.yul\":10767:11123   */\n    tag_180:\n        /* \"#utility.yul\":10969:10971   */\n      0x20\n        /* \"#utility.yul\":10951:10972   */\n      dup1\n      dup3\n      mstore\n        /* \"#utility.yul\":10988:11006   */\n      dup2\n      dup2\n      add\n        /* \"#utility.yul\":10981:11011   */\n      mstore\n        /* \"#utility.yul\":11047:11081   */\n      0x4f776e61626c653a2063616c6c6572206973206e6f7420746865206f776e6572\n        /* \"#utility.yul\":11042:11044   */\n      0x40\n        /* \"#utility.yul\":11027:11045   */\n      dup3\n      add\n        /* \"#utility.yul\":11020:11082   */\n      mstore\n        /* \"#utility.yul\":11114:11116   */\n      0x60\n        /* \"#utility.yul\":11099:11117   */\n      add\n      swap1\n        /* \"#utility.yul\":10767:11123   */\n      jump\t// out\n        /* \"#utility.yul\":11128:11545   */\n    tag_258:\n        /* \"#utility.yul\":11330:11332   */\n      0x20\n        /* \"#utility.yul\":11312:11333   */\n      dup1\n      dup3\n      mstore\n        /* \"#utility.yul\":11369:11371   */\n      0x35\n        /* \"#utility.yul\":11349:11367   */\n      swap1\n      dup3\n      add\n        /* \"#utility.yul\":11342:11372   */\n      mstore\n        /* \"#utility.yul\":11408:11442   */\n      0x41424f41543a3a6275793a20416d6f756e7420776f756c642065786365656420\n        /* \"#utility.yul\":11403:11405   */\n      0x40\n        /* \"#utility.yul\":11388:11406   */\n      dup3\n      add\n        /* \"#utility.yul\":11381:11443   */\n      mstore\n      shl(0x58, 0x7468652072656d61696e696e672062616c616e6365)\n        /* \"#utility.yul\":11474:11476   */\n      0x60\n        /* \"#utility.yul\":11459:11477   */\n      dup3\n      add\n        /* \"#utility.yul\":11452:11503   */\n      mstore\n        /* \"#utility.yul\":11535:11538   */\n      0x80\n        /* \"#utility.yul\":11520:11539   */\n      add\n      swap1\n        /* \"#utility.yul\":11128:11545   */\n      jump\t// out\n        /* \"#utility.yul\":14918:15193   */\n    tag_495:\n        /* \"#utility.yul\":14989:14991   */\n      0x40\n        /* \"#utility.yul\":14983:14992   */\n      mload\n        /* \"#utility.yul\":15054:15056   */\n      0x1f\n        /* \"#utility.yul\":15035:15048   */\n      dup3\n      add\n      not(0x1f)\n        /* \"#utility.yul\":15031:15058   */\n      and\n        /* \"#utility.yul\":15019:15059   */\n      dup2\n      add\n        /* \"#utility.yul\":15089:15107   */\n      0xffffffffffffffff\n        /* \"#utility.yul\":15074:15108   */\n      dup2\n      gt\n        /* \"#utility.yul\":15110:15132   */\n      dup3\n      dup3\n      lt\n        /* \"#utility.yul\":15071:15133   */\n      or\n        /* \"#utility.yul\":15068:15156   */\n      iszero\n      tag_566\n      jumpi\n        /* \"#utility.yul\":15136:15154   */\n      tag_566\n      tag_439\n      jump\t// in\n    tag_566:\n        /* \"#utility.yul\":15172:15174   */\n      0x40\n        /* \"#utility.yul\":15165:15187   */\n      mstore\n        /* \"#utility.yul\":14918:15193   */\n      swap2\n      swap1\n      pop\n      jump\t// out\n        /* \"#utility.yul\":15198:15381   */\n    tag_494:\n        /* \"#utility.yul\":15258:15262   */\n      0x00\n        /* \"#utility.yul\":15291:15309   */\n      0xffffffffffffffff\n        /* \"#utility.yul\":15283:15289   */\n      dup3\n        /* \"#utility.yul\":15280:15310   */\n      gt\n        /* \"#utility.yul\":15277:15333   */\n      iszero\n      tag_569\n      jumpi\n        /* \"#utility.yul\":15313:15331   */\n      tag_569\n      tag_439\n      jump\t// in\n    tag_569:\n      pop\n        /* \"#utility.yul\":15358:15359   */\n      0x05\n        /* \"#utility.yul\":15354:15368   */\n      shl\n        /* \"#utility.yul\":15370:15374   */\n      0x20\n        /* \"#utility.yul\":15350:15375   */\n      add\n      swap1\n        /* \"#utility.yul\":15198:15381   */\n      jump\t// out\n        /* \"#utility.yul\":15386:15514   */\n    tag_417:\n        /* \"#utility.yul\":15426:15429   */\n      0x00\n        /* \"#utility.yul\":15457:15458   */\n      dup3\n        /* \"#utility.yul\":15453:15459   */\n      not\n        /* \"#utility.yul\":15450:15451   */\n      dup3\n        /* \"#utility.yul\":15447:15460   */\n      gt\n        /* \"#utility.yul\":15444:15483   */\n      iszero\n      tag_572\n      jumpi\n        /* \"#utility.yul\":15463:15481   */\n      tag_572\n      tag_573\n      jump\t// in\n    tag_572:\n      pop\n        /* \"#utility.yul\":15499:15508   */\n      add\n      swap1\n        /* \"#utility.yul\":15386:15514   */\n      jump\t// out\n        /* \"#utility.yul\":15519:15736   */\n    tag_420:\n        /* \"#utility.yul\":15559:15560   */\n      0x00\n        /* \"#utility.yul\":15585:15586   */\n      dup3\n        /* \"#utility.yul\":15575:15707   */\n      tag_575\n      jumpi\n        /* \"#utility.yul\":15629:15639   */\n      0x4e487b71\n        /* \"#utility.yul\":15624:15627   */\n      0xe0\n        /* \"#utility.yul\":15620:15640   */\n      shl\n        /* \"#utility.yul\":15617:15618   */\n      0x00\n        /* \"#utility.yul\":15610:15641   */\n      mstore\n        /* \"#utility.yul\":15664:15668   */\n      0x12\n        /* \"#utility.yul\":15661:15662   */\n      0x04\n        /* \"#utility.yul\":15654:15669   */\n      mstore\n        /* \"#utility.yul\":15692:15696   */\n      0x24\n        /* \"#utility.yul\":15689:15690   */\n      0x00\n        /* \"#utility.yul\":15682:15697   */\n      revert\n        /* \"#utility.yul\":15575:15707   */\n    tag_575:\n      pop\n        /* \"#utility.yul\":15721:15730   */\n      div\n      swap1\n        /* \"#utility.yul\":15519:15736   */\n      jump\t// out\n        /* \"#utility.yul\":15741:15909   */\n    tag_285:\n        /* \"#utility.yul\":15781:15788   */\n      0x00\n        /* \"#utility.yul\":15847:15848   */\n      dup2\n        /* \"#utility.yul\":15843:15844   */\n      0x00\n        /* \"#utility.yul\":15839:15845   */\n      not\n        /* \"#utility.yul\":15835:15849   */\n      div\n        /* \"#utility.yul\":15832:15833   */\n      dup4\n        /* \"#utility.yul\":15829:15850   */\n      gt\n        /* \"#utility.yul\":15824:15825   */\n      dup3\n        /* \"#utility.yul\":15817:15826   */\n      iszero\n        /* \"#utility.yul\":15810:15827   */\n      iszero\n        /* \"#utility.yul\":15806:15851   */\n      and\n        /* \"#utility.yul\":15803:15874   */\n      iszero\n      tag_578\n      jumpi\n        /* \"#utility.yul\":15854:15872   */\n      tag_578\n      tag_573\n      jump\t// in\n    tag_578:\n      pop\n        /* \"#utility.yul\":15894:15903   */\n      mul\n      swap1\n        /* \"#utility.yul\":15741:15909   */\n      jump\t// out\n        /* \"#utility.yul\":15914:16039   */\n    tag_412:\n        /* \"#utility.yul\":15954:15958   */\n      0x00\n        /* \"#utility.yul\":15982:15983   */\n      dup3\n        /* \"#utility.yul\":15979:15980   */\n      dup3\n        /* \"#utility.yul\":15976:15984   */\n      lt\n        /* \"#utility.yul\":15973:16007   */\n      iszero\n      tag_581\n      jumpi\n        /* \"#utility.yul\":15987:16005   */\n      tag_581\n      tag_573\n      jump\t// in\n    tag_581:\n      pop\n        /* \"#utility.yul\":16024:16033   */\n      sub\n      swap1\n        /* \"#utility.yul\":15914:16039   */\n      jump\t// out\n        /* \"#utility.yul\":16044:16302   */\n    tag_533:\n        /* \"#utility.yul\":16116:16117   */\n      0x00\n        /* \"#utility.yul\":16126:16239   */\n    tag_583:\n        /* \"#utility.yul\":16140:16146   */\n      dup4\n        /* \"#utility.yul\":16137:16138   */\n      dup2\n        /* \"#utility.yul\":16134:16147   */\n      lt\n        /* \"#utility.yul\":16126:16239   */\n      iszero\n      tag_585\n      jumpi\n        /* \"#utility.yul\":16216:16227   */\n      dup2\n      dup2\n      add\n        /* \"#utility.yul\":16210:16228   */\n      mload\n        /* \"#utility.yul\":16197:16208   */\n      dup4\n      dup3\n      add\n        /* \"#utility.yul\":16190:16229   */\n      mstore\n        /* \"#utility.yul\":16162:16164   */\n      0x20\n        /* \"#utility.yul\":16155:16165   */\n      add\n        /* \"#utility.yul\":16126:16239   */\n      jump(tag_583)\n    tag_585:\n        /* \"#utility.yul\":16257:16263   */\n      dup4\n        /* \"#utility.yul\":16254:16255   */\n      dup2\n        /* \"#utility.yul\":16251:16264   */\n      gt\n        /* \"#utility.yul\":16248:16296   */\n      iszero\n      tag_450\n      jumpi\n      pop\n      pop\n        /* \"#utility.yul\":16292:16293   */\n      0x00\n        /* \"#utility.yul\":16274:16290   */\n      swap2\n      add\n        /* \"#utility.yul\":16267:16294   */\n      mstore\n        /* \"#utility.yul\":16044:16302   */\n      jump\t// out\n        /* \"#utility.yul\":16307:16442   */\n    tag_270:\n        /* \"#utility.yul\":16346:16349   */\n      0x00\n      not(0x00)\n        /* \"#utility.yul\":16367:16384   */\n      dup3\n      eq\n        /* \"#utility.yul\":16364:16407   */\n      iszero\n      tag_589\n      jumpi\n        /* \"#utility.yul\":16387:16405   */\n      tag_589\n      tag_573\n      jump\t// in\n    tag_589:\n      pop\n        /* \"#utility.yul\":16434:16435   */\n      0x01\n        /* \"#utility.yul\":16423:16436   */\n      add\n      swap1\n        /* \"#utility.yul\":16307:16442   */\n      jump\t// out\n        /* \"#utility.yul\":16447:16574   */\n    tag_573:\n        /* \"#utility.yul\":16508:16518   */\n      0x4e487b71\n        /* \"#utility.yul\":16503:16506   */\n      0xe0\n        /* \"#utility.yul\":16499:16519   */\n      shl\n        /* \"#utility.yul\":16496:16497   */\n      0x00\n        /* \"#utility.yul\":16489:16520   */\n      mstore\n        /* \"#utility.yul\":16539:16543   */\n      0x11\n        /* \"#utility.yul\":16536:16537   */\n      0x04\n        /* \"#utility.yul\":16529:16544   */\n      mstore\n        /* \"#utility.yul\":16563:16567   */\n      0x24\n        /* \"#utility.yul\":16560:16561   */\n      0x00\n        /* \"#utility.yul\":16553:16568   */\n      revert\n        /* \"#utility.yul\":16579:16706   */\n    tag_249:\n        /* \"#utility.yul\":16640:16650   */\n      0x4e487b71\n        /* \"#utility.yul\":16635:16638   */\n      0xe0\n        /* \"#utility.yul\":16631:16651   */\n      shl\n        /* \"#utility.yul\":16628:16629   */\n      0x00\n        /* \"#utility.yul\":16621:16652   */\n      mstore\n        /* \"#utility.yul\":16671:16675   */\n      0x32\n        /* \"#utility.yul\":16668:16669   */\n      0x04\n        /* \"#utility.yul\":16661:16676   */\n      mstore\n        /* \"#utility.yul\":16695:16699   */\n      0x24\n        /* \"#utility.yul\":16692:16693   */\n      0x00\n        /* \"#utility.yul\":16685:16700   */\n      revert\n        /* \"#utility.yul\":16711:16838   */\n    tag_439:\n        /* \"#utility.yul\":16772:16782   */\n      0x4e487b71\n        /* \"#utility.yul\":16767:16770   */\n      0xe0\n        /* \"#utility.yul\":16763:16783   */\n      shl\n        /* \"#utility.yul\":16760:16761   */\n      0x00\n        /* \"#utility.yul\":16753:16784   */\n      mstore\n        /* \"#utility.yul\":16803:16807   */\n      0x41\n        /* \"#utility.yul\":16800:16801   */\n      0x04\n        /* \"#utility.yul\":16793:16808   */\n      mstore\n        /* \"#utility.yul\":16827:16831   */\n      0x24\n        /* \"#utility.yul\":16824:16825   */\n      0x00\n        /* \"#utility.yul\":16817:16832   */\n      revert\n        /* \"#utility.yul\":16843:16974   */\n    tag_501:\n      sub(shl(0xa0, 0x01), 0x01)\n        /* \"#utility.yul\":16918:16949   */\n      dup2\n      and\n        /* \"#utility.yul\":16908:16950   */\n      dup2\n      eq\n        /* \"#utility.yul\":16898:16968   */\n      tag_230\n      jumpi\n        /* \"#utility.yul\":16964:16965   */\n      0x00\n        /* \"#utility.yul\":16961:16962   */\n      dup1\n        /* \"#utility.yul\":16954:16966   */\n      revert\n\n    auxdata: 0xa2646970667358221220740bdcaf50cb2d0f996efe8b066170e7a5a7446e5eb776c4c91712070986d38f64736f6c63430008070033\n}\n",
				"bytecode": {
					"linkReferences": {},
					"object": "608060405260006007556009805460ff191660011790553480156200002357600080fd5b50604051620023c5380380620023c583398101604081905262000046916200016c565b6200005133620000ff565b60008111620000bd5760405162461bcd60e51b815260206004820152602e60248201527f41424f41543a3a6572726f723a2050726963652068617320746f20626520686960448201526d67686572207468616e207a65726f60901b606482015260840160405180910390fd5b600180546001600160a01b039687166001600160a01b0319918216179091556002805495909616941693909317909355600455600591909155600355620001bf565b600080546001600160a01b038381166001600160a01b0319831681178455604051919092169283917f8be0079c531659141344cd1fd0a4f28419497f9722a3daafe3b4186f6b6457e09190a35050565b80516001600160a01b03811681146200016757600080fd5b919050565b600080600080600060a086880312156200018557600080fd5b62000190866200014f565b9450620001a0602087016200014f565b6040870151606088015160809098015196999198509695945092505050565b6121f680620001cf6000396000f3fe6080604052600436106101d85760003560e01c8063a4d66daf11610102578063e754e7c411610095578063f3739e0511610064578063f3739e0514610507578063f7c618c11461053d578063f89be5931461055d578063f8cf31cb1461057357600080fd5b8063e754e7c41461049c578063ef78d4fd146104b2578063efe95f51146104c7578063f2fde38b146104e757600080fd5b8063c884ef83116100d1578063c884ef8314610417578063d6b0f48414610444578063d936547e14610459578063d96a094a1461048957600080fd5b8063a4d66daf1461039f578063a5ebf835146103b5578063a960c65f146103ca578063bd8aa780146103f757600080fd5b80635ed9ebfc1161017a578063856734c411610149578063856734c41461032c5780638da5cb5b146103565780639b8906ae146103745780639c92431b1461038a57600080fd5b80635ed9ebfc146102be578063667022fd146102d4578063715018a6146103015780637b1b1de61461031657600080fd5b80632fba2c85116101b65780632fba2c851461023c5780633013ce29146102515780634e71d92d146102895780635372a58e1461029e57600080fd5b80630c0e0862146101dd578063151bad0a146101ff5780632f66194614610227575b600080fd5b3480156101e957600080fd5b506101fd6101f8366004611ee4565b610593565b005b34801561020b57600080fd5b50610214603281565b6040519081526020015b60405180910390f35b34801561023357600080fd5b50610214605a81565b34801561024857600080fd5b50610214610629565b34801561025d57600080fd5b50600254610271906001600160a01b031681565b6040516001600160a01b03909116815260200161021e565b34801561029557600080fd5b506101fd6106d6565b3480156102aa57600080fd5b506101fd6102b9366004611e00565b610aed565b3480156102ca57600080fd5b5061021460065481565b3480156102e057600080fd5b506102146102ef366004611dae565b600b6020526000908152604090205481565b34801561030d57600080fd5b506101fd610d7f565b34801561032257600080fd5b5061021460035481565b34801561033857600080fd5b506009546103469060ff1681565b604051901515815260200161021e565b34801561036257600080fd5b506000546001600160a01b0316610271565b34801561038057600080fd5b5061021460075481565b34801561039657600080fd5b50610214610db5565b3480156103ab57600080fd5b5061021460045481565b3480156103c157600080fd5b50610214606481565b3480156103d657600080fd5b506102146103e5366004611dae565b600d6020526000908152604090205481565b34801561040357600080fd5b506101fd610412366004611dcb565b610e54565b34801561042357600080fd5b50610214610432366004611dae565b600c6020526000908152604090205481565b34801561045057600080fd5b506101fd610f37565b34801561046557600080fd5b50610346610474366004611dae565b600a6020526000908152604090205460ff1681565b6101fd610497366004611ee4565b610fdd565b3480156104a857600080fd5b5061021460085481565b3480156104be57600080fd5b50610214601e81565b3480156104d357600080fd5b506101fd6104e2366004611ee4565b6112c4565b3480156104f357600080fd5b506101fd610502366004611dae565b6114a2565b34801561051357600080fd5b50610271610522366004611dae565b600e602052600090815260409020546001600160a01b031681565b34801561054957600080fd5b50600154610271906001600160a01b031681565b34801561056957600080fd5b5061021460055481565b34801561057f57600080fd5b506101fd61058e366004611dae565b61153a565b6000546001600160a01b031633146105c65760405162461bcd60e51b81526004016105bd90611fd3565b60405180910390fd5b6007546106245760405162461bcd60e51b815260206004820152602660248201527f41424f41543a3a7570646174654166746572446179733a2053616c65206e6f7460448201526508195b99195960d21b60648201526084016105bd565b600855565b6001546000906001600160a01b031661064f5760065461064a9047906117f2565b905090565b6006546001546040516370a0823160e01b815230600482015261064a92916001600160a01b0316906370a082319060240160206040518083038186803b15801561069857600080fd5b505afa1580156106ac573d6000803e3d6000fd5b505050506040513d601f19601f820116820180604052508101906106d09190611efd565b906117f2565b6007546107315760405162461bcd60e51b815260206004820152602360248201527f41424f41543a3a636c61696d3a2053616c65206973206e6f74206f766572207960448201526265742160e81b60648201526084016105bd565b60085461074e906107459062015180611805565b60075490611811565b4210156107af5760405162461bcd60e51b815260206004820152602960248201527f41424f41543a3a636c61696d3a20436c61696d206973206e6f7420617661696c60448201526830b13632903cb2ba1760b91b60648201526084016105bd565b60006107b9610db5565b9050600081116108575760405162461bcd60e51b815260206004820152605d60248201527f41424f41543a3a636c61696d3a205468652070657263656e74616765206f662060448201527f746f6b656e20796f752063616e20636c61696d2069732063757272656e746c7960648201527f207a65726f2e20506c656173652074727920616761696e206c61746572000000608482015260a4016105bd565b600154336000908152600e60205260409020546001600160a01b039081169116146108c257600154336000908152600e6020908152604080832080546001600160a01b0319166001600160a01b0390951694909417909355600c8152828220829055600d9052908120555b336000908152600c602052604090205481116109465760405162461bcd60e51b815260206004820152603c60248201527f41424f41543a3a636c61696d3a20416c726561647920636c61696d656420796f60448201527f75722063757272656e746c7920656c696769626c6520746f6b656e730000000060648201526084016105bd565b60065460055411610a4557336000908152600c602052604081208054908390556003549091906109af906109a3670de0b6b3a76400006109a96103e88361098d8a8a6117f2565b336000908152600b602052604090205490611805565b9061181d565b90611805565b336000908152600d60205260409020549091506109cc9082611811565b336000908152600d60205260409020556001546001600160a01b031615610a0957600154610a04906001600160a01b03163383611829565b610a13565b610a13338261195a565b604051819033907fd8138f8a3f377c5259ca548e70e4c2de94f129f5a11036a15b69513cba2b426a90600090a3505050565b336000908152600c602052604090206103e890556002546001600160a01b031615610a9657600254336000818152600b6020526040902054610a91926001600160a01b03169190611829565b610ab0565b336000818152600b6020526040902054610ab0919061195a565b336000818152600b60205260408082205490519092917fd8138f8a3f377c5259ca548e70e4c2de94f129f5a11036a15b69513cba2b426a91a35b50565b6000546001600160a01b03163314610b175760405162461bcd60e51b81526004016105bd90611fd3565b606482511115610b395760405162461bcd60e51b81526004016105bd90611f65565b6000805b8351811015610d3e576001600a6000868481518110610b5e57610b5e61217f565b60200260200101516001600160a01b03166001600160a01b0316815260200190815260200160002060006101000a81548160ff0219169083151502179055506000610bd96003546109a3670de0b6b3a7640000878681518110610bc357610bc361217f565b602002602001015161180590919063ffffffff16565b90506000610be9826106d0610629565b11610c065760405162461bcd60e51b81526004016105bd90612008565b610c70848381518110610c1b57610c1b61217f565b6020026020010151600b6000888681518110610c3957610c3961217f565b60200260200101516001600160a01b03166001600160a01b031681526020019081526020016000205461181190919063ffffffff16565b600b6000878581518110610c8657610c8661217f565b6020908102919091018101516001600160a01b0316825281019190915260400160002055610cb48382611811565b60025486519194506001600160a01b031690600e90600090889086908110610cde57610cde61217f565b60200260200101516001600160a01b03166001600160a01b0316815260200190815260200160002060006101000a8154816001600160a01b0302191690836001600160a01b03160217905550508080610d369061214e565b915050610b3d565b50600654610d4c9082611811565b60065582516040517f6074084f4dbd9879d266f074be61eb039a0db2aa46e98e700223ad5c2bef5bd590600090a2505050565b6000546001600160a01b03163314610da95760405162461bcd60e51b81526004016105bd90611fd3565b610db36000611a39565b565b600080610dce605a60075461181190919063ffffffff16565b90506000610ded60085462015180610de691906120ec565b8390611811565b9050600080600754118015610e0157508142115b610e0c576064610e37565b610e376064610e3160326109a9610e27601e620151806120ec565b6109a342896117f2565b90611811565b90506103e88111610e485780610e4c565b6103e85b935050505090565b6000546001600160a01b03163314610e7e5760405162461bcd60e51b81526004016105bd90611fd3565b606481511115610ea05760405162461bcd60e51b81526004016105bd90611f65565b60005b8151811015610f08576001600a6000848481518110610ec457610ec461217f565b6020908102919091018101516001600160a01b03168252810191909152604001600020805460ff191691151591909117905580610f008161214e565b915050610ea3565b5080516040517ff899e24720678b9547483d3c332e9a7e1eabb9c013bd2e0ff30d83806cf421f390600090a250565b6000546001600160a01b03163314610f615760405162461bcd60e51b81526004016105bd90611fd3565b60095460ff16610fd15760405162461bcd60e51b815260206004820152603560248201527f41424f41543a64697361626c6557686974656c6973743a2057686974656c69736044820152741d081a5cc8185b1c9958591e48191a5cd8589b1959605a1b60648201526084016105bd565b6009805460ff19169055565b6007541561102d5760405162461bcd60e51b815260206004820152601f60248201527f41424f41543a3a6275793a2053616c6520616c726561647920656e646564210060448201526064016105bd565b336000908152600a602052604090205460ff168061104e575060095460ff16155b6110b45760405162461bcd60e51b815260206004820152603160248201527f41424f41543a3a6275793a20596f75277265206e6f742077686974656c697374604482015270656420666f7220746869732073616c652160781b60648201526084016105bd565b6002546001600160a01b0316158015806110cd57508134145b6111365760405162461bcd60e51b815260206004820152603460248201527f41424f41543a3a6275793a2053656e742076616c756520646f65736e2774206d60448201527319595d081d1a194819da5d995b88185b5bdd5b9d60621b60648201526084016105bd565b600454336000908152600b60205260409020546111539084611811565b11156111c75760405162461bcd60e51b815260206004820152603960248201527f41424f41543a3a6275793a20416d6f756e7420776f756c64206578636565642060448201527f746865206d6178696d756d20616c6c6f776564206c696d69740000000000000060648201526084016105bd565b6003546000906111e3906109a385670de0b6b3a7640000611805565b905060006111f3826106d0610629565b116112105760405162461bcd60e51b81526004016105bd90612008565b8161122d5760025461122d906001600160a01b0316333086611a89565b336000908152600b60205260409020546112479084611811565b336000908152600b60205260409020556006546112649082611811565b600655600254336000818152600e602052604080822080546001600160a01b0319166001600160a01b0390951694909417909355915185927fc55650ccda1011e1cdc769b1fbf546ebb8c97800b6072b49e06cd560305b1d6791a3505050565b6000546001600160a01b031633146112ee5760405162461bcd60e51b81526004016105bd90611fd3565b600754156113515760405162461bcd60e51b815260206004820152602a60248201527f41424f41543a3a636c61696d416e64456e6453616c653a2053616c6520616c726044820152691958591e48195b99195960b21b60648201526084016105bd565b426007556006546005541161140c5760088190556002546001600160a01b031615611402576002546040516370a0823160e01b81523060048201526113fd916001600160a01b031690339082906370a08231906024015b60206040518083038186803b1580156113c057600080fd5b505afa1580156113d4573d6000803e3d6000fd5b505050506040513d601f19601f820116820180604052508101906113f89190611efd565b611829565b611462565b6113fd334761195a565b60006008556001546001600160a01b031615611458576001546040516370a0823160e01b81523060048201526113fd916001600160a01b031690339082906370a08231906024016113a8565b611462334761195a565b600854611476906107459062015180611805565b6040517f94bb74a9473ae4063ec1e73dc3e35fd4b5abe9cc1e43ad0db84e5358559ccd5a90600090a250565b6000546001600160a01b031633146114cc5760405162461bcd60e51b81526004016105bd90611fd3565b6001600160a01b0381166115315760405162461bcd60e51b815260206004820152602660248201527f4f776e61626c653a206e6577206f776e657220697320746865207a65726f206160448201526564647265737360d01b60648201526084016105bd565b610aea81611a39565b6000546001600160a01b031633146115645760405162461bcd60e51b81526004016105bd90611fd3565b6001546001600160a01b03828116911614156115f75760405162461bcd60e51b815260206004820152604660248201527f41424f41543a3a757064617465526577617264546f6b656e3a204e657720726560448201527f776172642073686f756c6420626520646966666572656e742066726f6d206375606482015265393932b73a1760d11b608482015260a4016105bd565b6001546040516370a0823160e01b81523060048201526001600160a01b03909116906370a082319060240160206040518083038186803b15801561163a57600080fd5b505afa15801561164e573d6000803e3d6000fd5b505050506040513d601f19601f820116820180604052508101906116729190611efd565b6040516370a0823160e01b81523060048201526001600160a01b038316906370a082319060240160206040518083038186803b1580156116b157600080fd5b505afa1580156116c5573d6000803e3d6000fd5b505050506040513d601f19601f820116820180604052508101906116e99190611efd565b146117a85760405162461bcd60e51b815260206004820152607760248201527f41424f41543a3a757064617465526577617264546f6b656e3a2054686520636f60448201527f6e74726163742073686f756c6420636f6e7461696e2061746c6561737420746860648201527f652073616d6520616d6f756e74206f6620746f6b656e732061732066726f6d2060848201527f7468652063757272656e7420726577617264546f6b656e00000000000000000060a482015260c4016105bd565b600180546001600160a01b0319166001600160a01b0383169081179091556040517f3fcfc24a3384ca156092d9242cb0f84abaf442146d91b8c93bea526561b83f8390600090a250565b60006117fe828461210b565b9392505050565b60006117fe82846120ec565b60006117fe82846120b2565b60006117fe82846120ca565b604080516001600160a01b038481166024830152604480830185905283518084039091018152606490920183526020820180516001600160e01b031663a9059cbb60e01b17905291516000928392908716916118859190611f16565b6000604051808303816000865af19150503d80600081146118c2576040519150601f19603f3d011682016040523d82523d6000602084013e6118c7565b606091505b50915091508180156118f15750805115806118f15750808060200190518101906118f19190611ec2565b6119535760405162461bcd60e51b815260206004820152602d60248201527f5472616e7366657248656c7065723a3a736166655472616e736665723a20747260448201526c185b9cd9995c8819985a5b1959609a1b60648201526084016105bd565b5050505050565b604080516000808252602082019092526001600160a01b0384169083906040516119849190611f16565b60006040518083038185875af1925050503d80600081146119c1576040519150601f19603f3d011682016040523d82523d6000602084013e6119c6565b606091505b5050905080611a345760405162461bcd60e51b815260206004820152603460248201527f5472616e7366657248656c7065723a3a736166655472616e736665724554483a60448201527308115512081d1c985b9cd9995c8819985a5b195960621b60648201526084016105bd565b505050565b600080546001600160a01b038381166001600160a01b0319831681178455604051919092169283917f8be0079c531659141344cd1fd0a4f28419497f9722a3daafe3b4186f6b6457e09190a35050565b604080516001600160a01b0385811660248301528416604482015260648082018490528251808303909101815260849091019091526020810180516001600160e01b03166323b872dd60e01b179052611ae3908590611ae9565b50505050565b6000611b3e826040518060400160405280602081526020017f5361666545524332303a206c6f772d6c6576656c2063616c6c206661696c6564815250856001600160a01b0316611bbb9092919063ffffffff16565b805190915015611a345780806020019051810190611b5c9190611ec2565b611a345760405162461bcd60e51b815260206004820152602a60248201527f5361666545524332303a204552433230206f7065726174696f6e20646964206e6044820152691bdd081cdd58d8d9595960b21b60648201526084016105bd565b6060611bca8484600085611bd2565b949350505050565b606082471015611c335760405162461bcd60e51b815260206004820152602660248201527f416464726573733a20696e73756666696369656e742062616c616e636520666f6044820152651c8818d85b1b60d21b60648201526084016105bd565b843b611c815760405162461bcd60e51b815260206004820152601d60248201527f416464726573733a2063616c6c20746f206e6f6e2d636f6e747261637400000060448201526064016105bd565b600080866001600160a01b03168587604051611c9d9190611f16565b60006040518083038185875af1925050503d8060008114611cda576040519150601f19603f3d011682016040523d82523d6000602084013e611cdf565b606091505b5091509150611cef828286611cfa565b979650505050505050565b60608315611d095750816117fe565b825115611d195782518084602001fd5b8160405162461bcd60e51b81526004016105bd9190611f32565b600082601f830112611d4457600080fd5b81356020611d59611d548361208e565b61205d565b80838252828201915082860187848660051b8901011115611d7957600080fd5b60005b85811015611da1578135611d8f816121ab565b84529284019290840190600101611d7c565b5090979650505050505050565b600060208284031215611dc057600080fd5b81356117fe816121ab565b600060208284031215611ddd57600080fd5b813567ffffffffffffffff811115611df457600080fd5b611bca84828501611d33565b60008060408385031215611e1357600080fd5b823567ffffffffffffffff80821115611e2b57600080fd5b611e3786838701611d33565b9350602091508185013581811115611e4e57600080fd5b85019050601f81018613611e6157600080fd5b8035611e6f611d548261208e565b80828252848201915084840189868560051b8701011115611e8f57600080fd5b600094505b83851015611eb2578035835260019490940193918501918501611e94565b5080955050505050509250929050565b600060208284031215611ed457600080fd5b815180151581146117fe57600080fd5b600060208284031215611ef657600080fd5b5035919050565b600060208284031215611f0f57600080fd5b5051919050565b60008251611f28818460208701612122565b9190910192915050565b6020815260008251806020840152611f51816040850160208701612122565b601f01601f19169190910160400192915050565b60208082526048908201527f41424f41543a3a77686974656c6973743a20596f752063616e2774206164642060408201527f6d6f7265207468616e2031303020616464726573736573206174207468652073606082015267616d652074696d6560c01b608082015260a00190565b6020808252818101527f4f776e61626c653a2063616c6c6572206973206e6f7420746865206f776e6572604082015260600190565b60208082526035908201527f41424f41543a3a6275793a20416d6f756e7420776f756c6420657863656564206040820152747468652072656d61696e696e672062616c616e636560581b606082015260800190565b604051601f8201601f1916810167ffffffffffffffff8111828210171561208657612086612195565b604052919050565b600067ffffffffffffffff8211156120a8576120a8612195565b5060051b60200190565b600082198211156120c5576120c5612169565b500190565b6000826120e757634e487b7160e01b600052601260045260246000fd5b500490565b600081600019048311821515161561210657612106612169565b500290565b60008282101561211d5761211d612169565b500390565b60005b8381101561213d578181015183820152602001612125565b83811115611ae35750506000910152565b600060001982141561216257612162612169565b5060010190565b634e487b7160e01b600052601160045260246000fd5b634e487b7160e01b600052603260045260246000fd5b634e487b7160e01b600052604160045260246000fd5b6001600160a01b0381168114610aea57600080fdfea2646970667358221220740bdcaf50cb2d0f996efe8b066170e7a5a7446e5eb776c4c91712070986d38f64736f6c63430008070033",
					"opcodes": "PUSH1 0x80 PUSH1 0x40 MSTORE PUSH1 0x0 PUSH1 0x7 SSTORE PUSH1 0x9 DUP1 SLOAD PUSH1 0xFF NOT AND PUSH1 0x1 OR SWAP1 SSTORE CALLVALUE DUP1 ISZERO PUSH3 0x23 JUMPI PUSH1 0x0 DUP1 REVERT JUMPDEST POP PUSH1 0x40 MLOAD PUSH3 0x23C5 CODESIZE SUB DUP1 PUSH3 0x23C5 DUP4 CODECOPY DUP2 ADD PUSH1 0x40 DUP2 SWAP1 MSTORE PUSH3 0x46 SWAP2 PUSH3 0x16C JUMP JUMPDEST PUSH3 0x51 CALLER PUSH3 0xFF JUMP JUMPDEST PUSH1 0x0 DUP2 GT PUSH3 0xBD JUMPI PUSH1 0x40 MLOAD PUSH3 0x461BCD PUSH1 0xE5 SHL DUP2 MSTORE PUSH1 0x20 PUSH1 0x4 DUP3 ADD MSTORE PUSH1 0x2E PUSH1 0x24 DUP3 ADD MSTORE PUSH32 0x41424F41543A3A6572726F723A2050726963652068617320746F206265206869 PUSH1 0x44 DUP3 ADD MSTORE PUSH14 0x67686572207468616E207A65726F PUSH1 0x90 SHL PUSH1 0x64 DUP3 ADD MSTORE PUSH1 0x84 ADD PUSH1 0x40 MLOAD DUP1 SWAP2 SUB SWAP1 REVERT JUMPDEST PUSH1 0x1 DUP1 SLOAD PUSH1 0x1 PUSH1 0x1 PUSH1 0xA0 SHL SUB SWAP7 DUP8 AND PUSH1 0x1 PUSH1 0x1 PUSH1 0xA0 SHL SUB NOT SWAP2 DUP3 AND OR SWAP1 SWAP2 SSTORE PUSH1 0x2 DUP1 SLOAD SWAP6 SWAP1 SWAP7 AND SWAP5 AND SWAP4 SWAP1 SWAP4 OR SWAP1 SWAP4 SSTORE PUSH1 0x4 SSTORE PUSH1 0x5 SWAP2 SWAP1 SWAP2 SSTORE PUSH1 0x3 SSTORE PUSH3 0x1BF JUMP JUMPDEST PUSH1 0x0 DUP1 SLOAD PUSH1 0x1 PUSH1 0x1 PUSH1 0xA0 SHL SUB DUP4 DUP2 AND PUSH1 0x1 PUSH1 0x1 PUSH1 0xA0 SHL SUB NOT DUP4 AND DUP2 OR DUP5 SSTORE PUSH1 0x40 MLOAD SWAP2 SWAP1 SWAP3 AND SWAP3 DUP4 SWAP2 PUSH32 0x8BE0079C531659141344CD1FD0A4F28419497F9722A3DAAFE3B4186F6B6457E0 SWAP2 SWAP1 LOG3 POP POP JUMP JUMPDEST DUP1 MLOAD PUSH1 0x1 PUSH1 0x1 PUSH1 0xA0 SHL SUB DUP2 AND DUP2 EQ PUSH3 0x167 JUMPI PUSH1 0x0 DUP1 REVERT JUMPDEST SWAP2 SWAP1 POP JUMP JUMPDEST PUSH1 0x0 DUP1 PUSH1 0x0 DUP1 PUSH1 0x0 PUSH1 0xA0 DUP7 DUP9 SUB SLT ISZERO PUSH3 0x185 JUMPI PUSH1 0x0 DUP1 REVERT JUMPDEST PUSH3 0x190 DUP7 PUSH3 0x14F JUMP JUMPDEST SWAP5 POP PUSH3 0x1A0 PUSH1 0x20 DUP8 ADD PUSH3 0x14F JUMP JUMPDEST PUSH1 0x40 DUP8 ADD MLOAD PUSH1 0x60 DUP9 ADD MLOAD PUSH1 0x80 SWAP1 SWAP9 ADD MLOAD SWAP7 SWAP10 SWAP2 SWAP9 POP SWAP7 SWAP6 SWAP5 POP SWAP3 POP POP POP JUMP JUMPDEST PUSH2 0x21F6 DUP1 PUSH3 0x1CF PUSH1 0x0 CODECOPY PUSH1 0x0 RETURN INVALID PUSH1 0x80 PUSH1 0x40 MSTORE PUSH1 0x4 CALLDATASIZE LT PUSH2 0x1D8 JUMPI PUSH1 0x0 CALLDATALOAD PUSH1 0xE0 SHR DUP1 PUSH4 0xA4D66DAF GT PUSH2 0x102 JUMPI DUP1 PUSH4 0xE754E7C4 GT PUSH2 0x95 JUMPI DUP1 PUSH4 0xF3739E05 GT PUSH2 0x64 JUMPI DUP1 PUSH4 0xF3739E05 EQ PUSH2 0x507 JUMPI DUP1 PUSH4 0xF7C618C1 EQ PUSH2 0x53D JUMPI DUP1 PUSH4 0xF89BE593 EQ PUSH2 0x55D JUMPI DUP1 PUSH4 0xF8CF31CB EQ PUSH2 0x573 JUMPI PUSH1 0x0 DUP1 REVERT JUMPDEST DUP1 PUSH4 0xE754E7C4 EQ PUSH2 0x49C JUMPI DUP1 PUSH4 0xEF78D4FD EQ PUSH2 0x4B2 JUMPI DUP1 PUSH4 0xEFE95F51 EQ PUSH2 0x4C7 JUMPI DUP1 PUSH4 0xF2FDE38B EQ PUSH2 0x4E7 JUMPI PUSH1 0x0 DUP1 REVERT JUMPDEST DUP1 PUSH4 0xC884EF83 GT PUSH2 0xD1 JUMPI DUP1 PUSH4 0xC884EF83 EQ PUSH2 0x417 JUMPI DUP1 PUSH4 0xD6B0F484 EQ PUSH2 0x444 JUMPI DUP1 PUSH4 0xD936547E EQ PUSH2 0x459 JUMPI DUP1 PUSH4 0xD96A094A EQ PUSH2 0x489 JUMPI PUSH1 0x0 DUP1 REVERT JUMPDEST DUP1 PUSH4 0xA4D66DAF EQ PUSH2 0x39F JUMPI DUP1 PUSH4 0xA5EBF835 EQ PUSH2 0x3B5 JUMPI DUP1 PUSH4 0xA960C65F EQ PUSH2 0x3CA JUMPI DUP1 PUSH4 0xBD8AA780 EQ PUSH2 0x3F7 JUMPI PUSH1 0x0 DUP1 REVERT JUMPDEST DUP1 PUSH4 0x5ED9EBFC GT PUSH2 0x17A JUMPI DUP1 PUSH4 0x856734C4 GT PUSH2 0x149 JUMPI DUP1 PUSH4 0x856734C4 EQ PUSH2 0x32C JUMPI DUP1 PUSH4 0x8DA5CB5B EQ PUSH2 0x356 JUMPI DUP1 PUSH4 0x9B8906AE EQ PUSH2 0x374 JUMPI DUP1 PUSH4 0x9C92431B EQ PUSH2 0x38A JUMPI PUSH1 0x0 DUP1 REVERT JUMPDEST DUP1 PUSH4 0x5ED9EBFC EQ PUSH2 0x2BE JUMPI DUP1 PUSH4 0x667022FD EQ PUSH2 0x2D4 JUMPI DUP1 PUSH4 0x715018A6 EQ PUSH2 0x301 JUMPI DUP1 PUSH4 0x7B1B1DE6 EQ PUSH2 0x316 JUMPI PUSH1 0x0 DUP1 REVERT JUMPDEST DUP1 PUSH4 0x2FBA2C85 GT PUSH2 0x1B6 JUMPI DUP1 PUSH4 0x2FBA2C85 EQ PUSH2 0x23C JUMPI DUP1 PUSH4 0x3013CE29 EQ PUSH2 0x251 JUMPI DUP1 PUSH4 0x4E71D92D EQ PUSH2 0x289 JUMPI DUP1 PUSH4 0x5372A58E EQ PUSH2 0x29E JUMPI PUSH1 0x0 DUP1 REVERT JUMPDEST DUP1 PUSH4 0xC0E0862 EQ PUSH2 0x1DD JUMPI DUP1 PUSH4 0x151BAD0A EQ PUSH2 0x1FF JUMPI DUP1 PUSH4 0x2F661946 EQ PUSH2 0x227 JUMPI JUMPDEST PUSH1 0x0 DUP1 REVERT JUMPDEST CALLVALUE DUP1 ISZERO PUSH2 0x1E9 JUMPI PUSH1 0x0 DUP1 REVERT JUMPDEST POP PUSH2 0x1FD PUSH2 0x1F8 CALLDATASIZE PUSH1 0x4 PUSH2 0x1EE4 JUMP JUMPDEST PUSH2 0x593 JUMP JUMPDEST STOP JUMPDEST CALLVALUE DUP1 ISZERO PUSH2 0x20B JUMPI PUSH1 0x0 DUP1 REVERT JUMPDEST POP PUSH2 0x214 PUSH1 0x32 DUP2 JUMP JUMPDEST PUSH1 0x40 MLOAD SWAP1 DUP2 MSTORE PUSH1 0x20 ADD JUMPDEST PUSH1 0x40 MLOAD DUP1 SWAP2 SUB SWAP1 RETURN JUMPDEST CALLVALUE DUP1 ISZERO PUSH2 0x233 JUMPI PUSH1 0x0 DUP1 REVERT JUMPDEST POP PUSH2 0x214 PUSH1 0x5A DUP2 JUMP JUMPDEST CALLVALUE DUP1 ISZERO PUSH2 0x248 JUMPI PUSH1 0x0 DUP1 REVERT JUMPDEST POP PUSH2 0x214 PUSH2 0x629 JUMP JUMPDEST CALLVALUE DUP1 ISZERO PUSH2 0x25D JUMPI PUSH1 0x0 DUP1 REVERT JUMPDEST POP PUSH1 0x2 SLOAD PUSH2 0x271 SWAP1 PUSH1 0x1 PUSH1 0x1 PUSH1 0xA0 SHL SUB AND DUP2 JUMP JUMPDEST PUSH1 0x40 MLOAD PUSH1 0x1 PUSH1 0x1 PUSH1 0xA0 SHL SUB SWAP1 SWAP2 AND DUP2 MSTORE PUSH1 0x20 ADD PUSH2 0x21E JUMP JUMPDEST CALLVALUE DUP1 ISZERO PUSH2 0x295 JUMPI PUSH1 0x0 DUP1 REVERT JUMPDEST POP PUSH2 0x1FD PUSH2 0x6D6 JUMP JUMPDEST CALLVALUE DUP1 ISZERO PUSH2 0x2AA JUMPI PUSH1 0x0 DUP1 REVERT JUMPDEST POP PUSH2 0x1FD PUSH2 0x2B9 CALLDATASIZE PUSH1 0x4 PUSH2 0x1E00 JUMP JUMPDEST PUSH2 0xAED JUMP JUMPDEST CALLVALUE DUP1 ISZERO PUSH2 0x2CA JUMPI PUSH1 0x0 DUP1 REVERT JUMPDEST POP PUSH2 0x214 PUSH1 0x6 SLOAD DUP2 JUMP JUMPDEST CALLVALUE DUP1 ISZERO PUSH2 0x2E0 JUMPI PUSH1 0x0 DUP1 REVERT JUMPDEST POP PUSH2 0x214 PUSH2 0x2EF CALLDATASIZE PUSH1 0x4 PUSH2 0x1DAE JUMP JUMPDEST PUSH1 0xB PUSH1 0x20 MSTORE PUSH1 0x0 SWAP1 DUP2 MSTORE PUSH1 0x40 SWAP1 KECCAK256 SLOAD DUP2 JUMP JUMPDEST CALLVALUE DUP1 ISZERO PUSH2 0x30D JUMPI PUSH1 0x0 DUP1 REVERT JUMPDEST POP PUSH2 0x1FD PUSH2 0xD7F JUMP JUMPDEST CALLVALUE DUP1 ISZERO PUSH2 0x322 JUMPI PUSH1 0x0 DUP1 REVERT JUMPDEST POP PUSH2 0x214 PUSH1 0x3 SLOAD DUP2 JUMP JUMPDEST CALLVALUE DUP1 ISZERO PUSH2 0x338 JUMPI PUSH1 0x0 DUP1 REVERT JUMPDEST POP PUSH1 0x9 SLOAD PUSH2 0x346 SWAP1 PUSH1 0xFF AND DUP2 JUMP JUMPDEST PUSH1 0x40 MLOAD SWAP1 ISZERO ISZERO DUP2 MSTORE PUSH1 0x20 ADD PUSH2 0x21E JUMP JUMPDEST CALLVALUE DUP1 ISZERO PUSH2 0x362 JUMPI PUSH1 0x0 DUP1 REVERT JUMPDEST POP PUSH1 0x0 SLOAD PUSH1 0x1 PUSH1 0x1 PUSH1 0xA0 SHL SUB AND PUSH2 0x271 JUMP JUMPDEST CALLVALUE DUP1 ISZERO PUSH2 0x380 JUMPI PUSH1 0x0 DUP1 REVERT JUMPDEST POP PUSH2 0x214 PUSH1 0x7 SLOAD DUP2 JUMP JUMPDEST CALLVALUE DUP1 ISZERO PUSH2 0x396 JUMPI PUSH1 0x0 DUP1 REVERT JUMPDEST POP PUSH2 0x214 PUSH2 0xDB5 JUMP JUMPDEST CALLVALUE DUP1 ISZERO PUSH2 0x3AB JUMPI PUSH1 0x0 DUP1 REVERT JUMPDEST POP PUSH2 0x214 PUSH1 0x4 SLOAD DUP2 JUMP JUMPDEST CALLVALUE DUP1 ISZERO PUSH2 0x3C1 JUMPI PUSH1 0x0 DUP1 REVERT JUMPDEST POP PUSH2 0x214 PUSH1 0x64 DUP2 JUMP JUMPDEST CALLVALUE DUP1 ISZERO PUSH2 0x3D6 JUMPI PUSH1 0x0 DUP1 REVERT JUMPDEST POP PUSH2 0x214 PUSH2 0x3E5 CALLDATASIZE PUSH1 0x4 PUSH2 0x1DAE JUMP JUMPDEST PUSH1 0xD PUSH1 0x20 MSTORE PUSH1 0x0 SWAP1 DUP2 MSTORE PUSH1 0x40 SWAP1 KECCAK256 SLOAD DUP2 JUMP JUMPDEST CALLVALUE DUP1 ISZERO PUSH2 0x403 JUMPI PUSH1 0x0 DUP1 REVERT JUMPDEST POP PUSH2 0x1FD PUSH2 0x412 CALLDATASIZE PUSH1 0x4 PUSH2 0x1DCB JUMP JUMPDEST PUSH2 0xE54 JUMP JUMPDEST CALLVALUE DUP1 ISZERO PUSH2 0x423 JUMPI PUSH1 0x0 DUP1 REVERT JUMPDEST POP PUSH2 0x214 PUSH2 0x432 CALLDATASIZE PUSH1 0x4 PUSH2 0x1DAE JUMP JUMPDEST PUSH1 0xC PUSH1 0x20 MSTORE PUSH1 0x0 SWAP1 DUP2 MSTORE PUSH1 0x40 SWAP1 KECCAK256 SLOAD DUP2 JUMP JUMPDEST CALLVALUE DUP1 ISZERO PUSH2 0x450 JUMPI PUSH1 0x0 DUP1 REVERT JUMPDEST POP PUSH2 0x1FD PUSH2 0xF37 JUMP JUMPDEST CALLVALUE DUP1 ISZERO PUSH2 0x465 JUMPI PUSH1 0x0 DUP1 REVERT JUMPDEST POP PUSH2 0x346 PUSH2 0x474 CALLDATASIZE PUSH1 0x4 PUSH2 0x1DAE JUMP JUMPDEST PUSH1 0xA PUSH1 0x20 MSTORE PUSH1 0x0 SWAP1 DUP2 MSTORE PUSH1 0x40 SWAP1 KECCAK256 SLOAD PUSH1 0xFF AND DUP2 JUMP JUMPDEST PUSH2 0x1FD PUSH2 0x497 CALLDATASIZE PUSH1 0x4 PUSH2 0x1EE4 JUMP JUMPDEST PUSH2 0xFDD JUMP JUMPDEST CALLVALUE DUP1 ISZERO PUSH2 0x4A8 JUMPI PUSH1 0x0 DUP1 REVERT JUMPDEST POP PUSH2 0x214 PUSH1 0x8 SLOAD DUP2 JUMP JUMPDEST CALLVALUE DUP1 ISZERO PUSH2 0x4BE JUMPI PUSH1 0x0 DUP1 REVERT JUMPDEST POP PUSH2 0x214 PUSH1 0x1E DUP2 JUMP JUMPDEST CALLVALUE DUP1 ISZERO PUSH2 0x4D3 JUMPI PUSH1 0x0 DUP1 REVERT JUMPDEST POP PUSH2 0x1FD PUSH2 0x4E2 CALLDATASIZE PUSH1 0x4 PUSH2 0x1EE4 JUMP JUMPDEST PUSH2 0x12C4 JUMP JUMPDEST CALLVALUE DUP1 ISZERO PUSH2 0x4F3 JUMPI PUSH1 0x0 DUP1 REVERT JUMPDEST POP PUSH2 0x1FD PUSH2 0x502 CALLDATASIZE PUSH1 0x4 PUSH2 0x1DAE JUMP JUMPDEST PUSH2 0x14A2 JUMP JUMPDEST CALLVALUE DUP1 ISZERO PUSH2 0x513 JUMPI PUSH1 0x0 DUP1 REVERT JUMPDEST POP PUSH2 0x271 PUSH2 0x522 CALLDATASIZE PUSH1 0x4 PUSH2 0x1DAE JUMP JUMPDEST PUSH1 0xE PUSH1 0x20 MSTORE PUSH1 0x0 SWAP1 DUP2 MSTORE PUSH1 0x40 SWAP1 KECCAK256 SLOAD PUSH1 0x1 PUSH1 0x1 PUSH1 0xA0 SHL SUB AND DUP2 JUMP JUMPDEST CALLVALUE DUP1 ISZERO PUSH2 0x549 JUMPI PUSH1 0x0 DUP1 REVERT JUMPDEST POP PUSH1 0x1 SLOAD PUSH2 0x271 SWAP1 PUSH1 0x1 PUSH1 0x1 PUSH1 0xA0 SHL SUB AND DUP2 JUMP JUMPDEST CALLVALUE DUP1 ISZERO PUSH2 0x569 JUMPI PUSH1 0x0 DUP1 REVERT JUMPDEST POP PUSH2 0x214 PUSH1 0x5 SLOAD DUP2 JUMP JUMPDEST CALLVALUE DUP1 ISZERO PUSH2 0x57F JUMPI PUSH1 0x0 DUP1 REVERT JUMPDEST POP PUSH2 0x1FD PUSH2 0x58E CALLDATASIZE PUSH1 0x4 PUSH2 0x1DAE JUMP JUMPDEST PUSH2 0x153A JUMP JUMPDEST PUSH1 0x0 SLOAD PUSH1 0x1 PUSH1 0x1 PUSH1 0xA0 SHL SUB AND CALLER EQ PUSH2 0x5C6 JUMPI PUSH1 0x40 MLOAD PUSH3 0x461BCD PUSH1 0xE5 SHL DUP2 MSTORE PUSH1 0x4 ADD PUSH2 0x5BD SWAP1 PUSH2 0x1FD3 JUMP JUMPDEST PUSH1 0x40 MLOAD DUP1 SWAP2 SUB SWAP1 REVERT JUMPDEST PUSH1 0x7 SLOAD PUSH2 0x624 JUMPI PUSH1 0x40 MLOAD PUSH3 0x461BCD PUSH1 0xE5 SHL DUP2 MSTORE PUSH1 0x20 PUSH1 0x4 DUP3 ADD MSTORE PUSH1 0x26 PUSH1 0x24 DUP3 ADD MSTORE PUSH32 0x41424F41543A3A7570646174654166746572446179733A2053616C65206E6F74 PUSH1 0x44 DUP3 ADD MSTORE PUSH6 0x8195B991959 PUSH1 0xD2 SHL PUSH1 0x64 DUP3 ADD MSTORE PUSH1 0x84 ADD PUSH2 0x5BD JUMP JUMPDEST PUSH1 0x8 SSTORE JUMP JUMPDEST PUSH1 0x1 SLOAD PUSH1 0x0 SWAP1 PUSH1 0x1 PUSH1 0x1 PUSH1 0xA0 SHL SUB AND PUSH2 0x64F JUMPI PUSH1 0x6 SLOAD PUSH2 0x64A SWAP1 SELFBALANCE SWAP1 PUSH2 0x17F2 JUMP JUMPDEST SWAP1 POP SWAP1 JUMP JUMPDEST PUSH1 0x6 SLOAD PUSH1 0x1 SLOAD PUSH1 0x40 MLOAD PUSH4 0x70A08231 PUSH1 0xE0 SHL DUP2 MSTORE ADDRESS PUSH1 0x4 DUP3 ADD MSTORE PUSH2 0x64A SWAP3 SWAP2 PUSH1 0x1 PUSH1 0x1 PUSH1 0xA0 SHL SUB AND SWAP1 PUSH4 0x70A08231 SWAP1 PUSH1 0x24 ADD PUSH1 0x20 PUSH1 0x40 MLOAD DUP1 DUP4 SUB DUP2 DUP7 DUP1 EXTCODESIZE ISZERO DUP1 ISZERO PUSH2 0x698 JUMPI PUSH1 0x0 DUP1 REVERT JUMPDEST POP GAS STATICCALL ISZERO DUP1 ISZERO PUSH2 0x6AC JUMPI RETURNDATASIZE PUSH1 0x0 DUP1 RETURNDATACOPY RETURNDATASIZE PUSH1 0x0 REVERT JUMPDEST POP POP POP POP PUSH1 0x40 MLOAD RETURNDATASIZE PUSH1 0x1F NOT PUSH1 0x1F DUP3 ADD AND DUP3 ADD DUP1 PUSH1 0x40 MSTORE POP DUP2 ADD SWAP1 PUSH2 0x6D0 SWAP2 SWAP1 PUSH2 0x1EFD JUMP JUMPDEST SWAP1 PUSH2 0x17F2 JUMP JUMPDEST PUSH1 0x7 SLOAD PUSH2 0x731 JUMPI PUSH1 0x40 MLOAD PUSH3 0x461BCD PUSH1 0xE5 SHL DUP2 MSTORE PUSH1 0x20 PUSH1 0x4 DUP3 ADD MSTORE PUSH1 0x23 PUSH1 0x24 DUP3 ADD MSTORE PUSH32 0x41424F41543A3A636C61696D3A2053616C65206973206E6F74206F7665722079 PUSH1 0x44 DUP3 ADD MSTORE PUSH3 0x657421 PUSH1 0xE8 SHL PUSH1 0x64 DUP3 ADD MSTORE PUSH1 0x84 ADD PUSH2 0x5BD JUMP JUMPDEST PUSH1 0x8 SLOAD PUSH2 0x74E SWAP1 PUSH2 0x745 SWAP1 PUSH3 0x15180 PUSH2 0x1805 JUMP JUMPDEST PUSH1 0x7 SLOAD SWAP1 PUSH2 0x1811 JUMP JUMPDEST TIMESTAMP LT ISZERO PUSH2 0x7AF JUMPI PUSH1 0x40 MLOAD PUSH3 0x461BCD PUSH1 0xE5 SHL DUP2 MSTORE PUSH1 0x20 PUSH1 0x4 DUP3 ADD MSTORE PUSH1 0x29 PUSH1 0x24 DUP3 ADD MSTORE PUSH32 0x41424F41543A3A636C61696D3A20436C61696D206973206E6F7420617661696C PUSH1 0x44 DUP3 ADD MSTORE PUSH9 0x30B13632903CB2BA17 PUSH1 0xB9 SHL PUSH1 0x64 DUP3 ADD MSTORE PUSH1 0x84 ADD PUSH2 0x5BD JUMP JUMPDEST PUSH1 0x0 PUSH2 0x7B9 PUSH2 0xDB5 JUMP JUMPDEST SWAP1 POP PUSH1 0x0 DUP2 GT PUSH2 0x857 JUMPI PUSH1 0x40 MLOAD PUSH3 0x461BCD PUSH1 0xE5 SHL DUP2 MSTORE PUSH1 0x20 PUSH1 0x4 DUP3 ADD MSTORE PUSH1 0x5D PUSH1 0x24 DUP3 ADD MSTORE PUSH32 0x41424F41543A3A636C61696D3A205468652070657263656E74616765206F6620 PUSH1 0x44 DUP3 ADD MSTORE PUSH32 0x746F6B656E20796F752063616E20636C61696D2069732063757272656E746C79 PUSH1 0x64 DUP3 ADD MSTORE PUSH32 0x207A65726F2E20506C656173652074727920616761696E206C61746572000000 PUSH1 0x84 DUP3 ADD MSTORE PUSH1 0xA4 ADD PUSH2 0x5BD JUMP JUMPDEST PUSH1 0x1 SLOAD CALLER PUSH1 0x0 SWAP1 DUP2 MSTORE PUSH1 0xE PUSH1 0x20 MSTORE PUSH1 0x40 SWAP1 KECCAK256 SLOAD PUSH1 0x1 PUSH1 0x1 PUSH1 0xA0 SHL SUB SWAP1 DUP2 AND SWAP2 AND EQ PUSH2 0x8C2 JUMPI PUSH1 0x1 SLOAD CALLER PUSH1 0x0 SWAP1 DUP2 MSTORE PUSH1 0xE PUSH1 0x20 SWAP1 DUP2 MSTORE PUSH1 0x40 DUP1 DUP4 KECCAK256 DUP1 SLOAD PUSH1 0x1 PUSH1 0x1 PUSH1 0xA0 SHL SUB NOT AND PUSH1 0x1 PUSH1 0x1 PUSH1 0xA0 SHL SUB SWAP1 SWAP6 AND SWAP5 SWAP1 SWAP5 OR SWAP1 SWAP4 SSTORE PUSH1 0xC DUP2 MSTORE DUP3 DUP3 KECCAK256 DUP3 SWAP1 SSTORE PUSH1 0xD SWAP1 MSTORE SWAP1 DUP2 KECCAK256 SSTORE JUMPDEST CALLER PUSH1 0x0 SWAP1 DUP2 MSTORE PUSH1 0xC PUSH1 0x20 MSTORE PUSH1 0x40 SWAP1 KECCAK256 SLOAD DUP2 GT PUSH2 0x946 JUMPI PUSH1 0x40 MLOAD PUSH3 0x461BCD PUSH1 0xE5 SHL DUP2 MSTORE PUSH1 0x20 PUSH1 0x4 DUP3 ADD MSTORE PUSH1 0x3C PUSH1 0x24 DUP3 ADD MSTORE PUSH32 0x41424F41543A3A636C61696D3A20416C726561647920636C61696D656420796F PUSH1 0x44 DUP3 ADD MSTORE PUSH32 0x75722063757272656E746C7920656C696769626C6520746F6B656E7300000000 PUSH1 0x64 DUP3 ADD MSTORE PUSH1 0x84 ADD PUSH2 0x5BD JUMP JUMPDEST PUSH1 0x6 SLOAD PUSH1 0x5 SLOAD GT PUSH2 0xA45 JUMPI CALLER PUSH1 0x0 SWAP1 DUP2 MSTORE PUSH1 0xC PUSH1 0x20 MSTORE PUSH1 0x40 DUP2 KECCAK256 DUP1 SLOAD SWAP1 DUP4 SWAP1 SSTORE PUSH1 0x3 SLOAD SWAP1 SWAP2 SWAP1 PUSH2 0x9AF SWAP1 PUSH2 0x9A3 PUSH8 0xDE0B6B3A7640000 PUSH2 0x9A9 PUSH2 0x3E8 DUP4 PUSH2 0x98D DUP11 DUP11 PUSH2 0x17F2 JUMP JUMPDEST CALLER PUSH1 0x0 SWAP1 DUP2 MSTORE PUSH1 0xB PUSH1 0x20 MSTORE PUSH1 0x40 SWAP1 KECCAK256 SLOAD SWAP1 PUSH2 0x1805 JUMP JUMPDEST SWAP1 PUSH2 0x181D JUMP JUMPDEST SWAP1 PUSH2 0x1805 JUMP JUMPDEST CALLER PUSH1 0x0 SWAP1 DUP2 MSTORE PUSH1 0xD PUSH1 0x20 MSTORE PUSH1 0x40 SWAP1 KECCAK256 SLOAD SWAP1 SWAP2 POP PUSH2 0x9CC SWAP1 DUP3 PUSH2 0x1811 JUMP JUMPDEST CALLER PUSH1 0x0 SWAP1 DUP2 MSTORE PUSH1 0xD PUSH1 0x20 MSTORE PUSH1 0x40 SWAP1 KECCAK256 SSTORE PUSH1 0x1 SLOAD PUSH1 0x1 PUSH1 0x1 PUSH1 0xA0 SHL SUB AND ISZERO PUSH2 0xA09 JUMPI PUSH1 0x1 SLOAD PUSH2 0xA04 SWAP1 PUSH1 0x1 PUSH1 0x1 PUSH1 0xA0 SHL SUB AND CALLER DUP4 PUSH2 0x1829 JUMP JUMPDEST PUSH2 0xA13 JUMP JUMPDEST PUSH2 0xA13 CALLER DUP3 PUSH2 0x195A JUMP JUMPDEST PUSH1 0x40 MLOAD DUP2 SWAP1 CALLER SWAP1 PUSH32 0xD8138F8A3F377C5259CA548E70E4C2DE94F129F5A11036A15B69513CBA2B426A SWAP1 PUSH1 0x0 SWAP1 LOG3 POP POP POP JUMP JUMPDEST CALLER PUSH1 0x0 SWAP1 DUP2 MSTORE PUSH1 0xC PUSH1 0x20 MSTORE PUSH1 0x40 SWAP1 KECCAK256 PUSH2 0x3E8 SWAP1 SSTORE PUSH1 0x2 SLOAD PUSH1 0x1 PUSH1 0x1 PUSH1 0xA0 SHL SUB AND ISZERO PUSH2 0xA96 JUMPI PUSH1 0x2 SLOAD CALLER PUSH1 0x0 DUP2 DUP2 MSTORE PUSH1 0xB PUSH1 0x20 MSTORE PUSH1 0x40 SWAP1 KECCAK256 SLOAD PUSH2 0xA91 SWAP3 PUSH1 0x1 PUSH1 0x1 PUSH1 0xA0 SHL SUB AND SWAP2 SWAP1 PUSH2 0x1829 JUMP JUMPDEST PUSH2 0xAB0 JUMP JUMPDEST CALLER PUSH1 0x0 DUP2 DUP2 MSTORE PUSH1 0xB PUSH1 0x20 MSTORE PUSH1 0x40 SWAP1 KECCAK256 SLOAD PUSH2 0xAB0 SWAP2 SWAP1 PUSH2 0x195A JUMP JUMPDEST CALLER PUSH1 0x0 DUP2 DUP2 MSTORE PUSH1 0xB PUSH1 0x20 MSTORE PUSH1 0x40 DUP1 DUP3 KECCAK256 SLOAD SWAP1 MLOAD SWAP1 SWAP3 SWAP2 PUSH32 0xD8138F8A3F377C5259CA548E70E4C2DE94F129F5A11036A15B69513CBA2B426A SWAP2 LOG3 JUMPDEST POP JUMP JUMPDEST PUSH1 0x0 SLOAD PUSH1 0x1 PUSH1 0x1 PUSH1 0xA0 SHL SUB AND CALLER EQ PUSH2 0xB17 JUMPI PUSH1 0x40 MLOAD PUSH3 0x461BCD PUSH1 0xE5 SHL DUP2 MSTORE PUSH1 0x4 ADD PUSH2 0x5BD SWAP1 PUSH2 0x1FD3 JUMP JUMPDEST PUSH1 0x64 DUP3 MLOAD GT ISZERO PUSH2 0xB39 JUMPI PUSH1 0x40 MLOAD PUSH3 0x461BCD PUSH1 0xE5 SHL DUP2 MSTORE PUSH1 0x4 ADD PUSH2 0x5BD SWAP1 PUSH2 0x1F65 JUMP JUMPDEST PUSH1 0x0 DUP1 JUMPDEST DUP4 MLOAD DUP2 LT ISZERO PUSH2 0xD3E JUMPI PUSH1 0x1 PUSH1 0xA PUSH1 0x0 DUP7 DUP5 DUP2 MLOAD DUP2 LT PUSH2 0xB5E JUMPI PUSH2 0xB5E PUSH2 0x217F JUMP JUMPDEST PUSH1 0x20 MUL PUSH1 0x20 ADD ADD MLOAD PUSH1 0x1 PUSH1 0x1 PUSH1 0xA0 SHL SUB AND PUSH1 0x1 PUSH1 0x1 PUSH1 0xA0 SHL SUB AND DUP2 MSTORE PUSH1 0x20 ADD SWAP1 DUP2 MSTORE PUSH1 0x20 ADD PUSH1 0x0 KECCAK256 PUSH1 0x0 PUSH2 0x100 EXP DUP2 SLOAD DUP2 PUSH1 0xFF MUL NOT AND SWAP1 DUP4 ISZERO ISZERO MUL OR SWAP1 SSTORE POP PUSH1 0x0 PUSH2 0xBD9 PUSH1 0x3 SLOAD PUSH2 0x9A3 PUSH8 0xDE0B6B3A7640000 DUP8 DUP7 DUP2 MLOAD DUP2 LT PUSH2 0xBC3 JUMPI PUSH2 0xBC3 PUSH2 0x217F JUMP JUMPDEST PUSH1 0x20 MUL PUSH1 0x20 ADD ADD MLOAD PUSH2 0x1805 SWAP1 SWAP2 SWAP1 PUSH4 0xFFFFFFFF AND JUMP JUMPDEST SWAP1 POP PUSH1 0x0 PUSH2 0xBE9 DUP3 PUSH2 0x6D0 PUSH2 0x629 JUMP JUMPDEST GT PUSH2 0xC06 JUMPI PUSH1 0x40 MLOAD PUSH3 0x461BCD PUSH1 0xE5 SHL DUP2 MSTORE PUSH1 0x4 ADD PUSH2 0x5BD SWAP1 PUSH2 0x2008 JUMP JUMPDEST PUSH2 0xC70 DUP5 DUP4 DUP2 MLOAD DUP2 LT PUSH2 0xC1B JUMPI PUSH2 0xC1B PUSH2 0x217F JUMP JUMPDEST PUSH1 0x20 MUL PUSH1 0x20 ADD ADD MLOAD PUSH1 0xB PUSH1 0x0 DUP9 DUP7 DUP2 MLOAD DUP2 LT PUSH2 0xC39 JUMPI PUSH2 0xC39 PUSH2 0x217F JUMP JUMPDEST PUSH1 0x20 MUL PUSH1 0x20 ADD ADD MLOAD PUSH1 0x1 PUSH1 0x1 PUSH1 0xA0 SHL SUB AND PUSH1 0x1 PUSH1 0x1 PUSH1 0xA0 SHL SUB AND DUP2 MSTORE PUSH1 0x20 ADD SWAP1 DUP2 MSTORE PUSH1 0x20 ADD PUSH1 0x0 KECCAK256 SLOAD PUSH2 0x1811 SWAP1 SWAP2 SWAP1 PUSH4 0xFFFFFFFF AND JUMP JUMPDEST PUSH1 0xB PUSH1 0x0 DUP8 DUP6 DUP2 MLOAD DUP2 LT PUSH2 0xC86 JUMPI PUSH2 0xC86 PUSH2 0x217F JUMP JUMPDEST PUSH1 0x20 SWAP1 DUP2 MUL SWAP2 SWAP1 SWAP2 ADD DUP2 ADD MLOAD PUSH1 0x1 PUSH1 0x1 PUSH1 0xA0 SHL SUB AND DUP3 MSTORE DUP2 ADD SWAP2 SWAP1 SWAP2 MSTORE PUSH1 0x40 ADD PUSH1 0x0 KECCAK256 SSTORE PUSH2 0xCB4 DUP4 DUP3 PUSH2 0x1811 JUMP JUMPDEST PUSH1 0x2 SLOAD DUP7 MLOAD SWAP2 SWAP5 POP PUSH1 0x1 PUSH1 0x1 PUSH1 0xA0 SHL SUB AND SWAP1 PUSH1 0xE SWAP1 PUSH1 0x0 SWAP1 DUP9 SWAP1 DUP7 SWAP1 DUP2 LT PUSH2 0xCDE JUMPI PUSH2 0xCDE PUSH2 0x217F JUMP JUMPDEST PUSH1 0x20 MUL PUSH1 0x20 ADD ADD MLOAD PUSH1 0x1 PUSH1 0x1 PUSH1 0xA0 SHL SUB AND PUSH1 0x1 PUSH1 0x1 PUSH1 0xA0 SHL SUB AND DUP2 MSTORE PUSH1 0x20 ADD SWAP1 DUP2 MSTORE PUSH1 0x20 ADD PUSH1 0x0 KECCAK256 PUSH1 0x0 PUSH2 0x100 EXP DUP2 SLOAD DUP2 PUSH1 0x1 PUSH1 0x1 PUSH1 0xA0 SHL SUB MUL NOT AND SWAP1 DUP4 PUSH1 0x1 PUSH1 0x1 PUSH1 0xA0 SHL SUB AND MUL OR SWAP1 SSTORE POP POP DUP1 DUP1 PUSH2 0xD36 SWAP1 PUSH2 0x214E JUMP JUMPDEST SWAP2 POP POP PUSH2 0xB3D JUMP JUMPDEST POP PUSH1 0x6 SLOAD PUSH2 0xD4C SWAP1 DUP3 PUSH2 0x1811 JUMP JUMPDEST PUSH1 0x6 SSTORE DUP3 MLOAD PUSH1 0x40 MLOAD PUSH32 0x6074084F4DBD9879D266F074BE61EB039A0DB2AA46E98E700223AD5C2BEF5BD5 SWAP1 PUSH1 0x0 SWAP1 LOG2 POP POP POP JUMP JUMPDEST PUSH1 0x0 SLOAD PUSH1 0x1 PUSH1 0x1 PUSH1 0xA0 SHL SUB AND CALLER EQ PUSH2 0xDA9 JUMPI PUSH1 0x40 MLOAD PUSH3 0x461BCD PUSH1 0xE5 SHL DUP2 MSTORE PUSH1 0x4 ADD PUSH2 0x5BD SWAP1 PUSH2 0x1FD3 JUMP JUMPDEST PUSH2 0xDB3 PUSH1 0x0 PUSH2 0x1A39 JUMP JUMPDEST JUMP JUMPDEST PUSH1 0x0 DUP1 PUSH2 0xDCE PUSH1 0x5A PUSH1 0x7 SLOAD PUSH2 0x1811 SWAP1 SWAP2 SWAP1 PUSH4 0xFFFFFFFF AND JUMP JUMPDEST SWAP1 POP PUSH1 0x0 PUSH2 0xDED PUSH1 0x8 SLOAD PUSH3 0x15180 PUSH2 0xDE6 SWAP2 SWAP1 PUSH2 0x20EC JUMP JUMPDEST DUP4 SWAP1 PUSH2 0x1811 JUMP JUMPDEST SWAP1 POP PUSH1 0x0 DUP1 PUSH1 0x7 SLOAD GT DUP1 ISZERO PUSH2 0xE01 JUMPI POP DUP2 TIMESTAMP GT JUMPDEST PUSH2 0xE0C JUMPI PUSH1 0x64 PUSH2 0xE37 JUMP JUMPDEST PUSH2 0xE37 PUSH1 0x64 PUSH2 0xE31 PUSH1 0x32 PUSH2 0x9A9 PUSH2 0xE27 PUSH1 0x1E PUSH3 0x15180 PUSH2 0x20EC JUMP JUMPDEST PUSH2 0x9A3 TIMESTAMP DUP10 PUSH2 0x17F2 JUMP JUMPDEST SWAP1 PUSH2 0x1811 JUMP JUMPDEST SWAP1 POP PUSH2 0x3E8 DUP2 GT PUSH2 0xE48 JUMPI DUP1 PUSH2 0xE4C JUMP JUMPDEST PUSH2 0x3E8 JUMPDEST SWAP4 POP POP POP POP SWAP1 JUMP JUMPDEST PUSH1 0x0 SLOAD PUSH1 0x1 PUSH1 0x1 PUSH1 0xA0 SHL SUB AND CALLER EQ PUSH2 0xE7E JUMPI PUSH1 0x40 MLOAD PUSH3 0x461BCD PUSH1 0xE5 SHL DUP2 MSTORE PUSH1 0x4 ADD PUSH2 0x5BD SWAP1 PUSH2 0x1FD3 JUMP JUMPDEST PUSH1 0x64 DUP2 MLOAD GT ISZERO PUSH2 0xEA0 JUMPI PUSH1 0x40 MLOAD PUSH3 0x461BCD PUSH1 0xE5 SHL DUP2 MSTORE PUSH1 0x4 ADD PUSH2 0x5BD SWAP1 PUSH2 0x1F65 JUMP JUMPDEST PUSH1 0x0 JUMPDEST DUP2 MLOAD DUP2 LT ISZERO PUSH2 0xF08 JUMPI PUSH1 0x1 PUSH1 0xA PUSH1 0x0 DUP5 DUP5 DUP2 MLOAD DUP2 LT PUSH2 0xEC4 JUMPI PUSH2 0xEC4 PUSH2 0x217F JUMP JUMPDEST PUSH1 0x20 SWAP1 DUP2 MUL SWAP2 SWAP1 SWAP2 ADD DUP2 ADD MLOAD PUSH1 0x1 PUSH1 0x1 PUSH1 0xA0 SHL SUB AND DUP3 MSTORE DUP2 ADD SWAP2 SWAP1 SWAP2 MSTORE PUSH1 0x40 ADD PUSH1 0x0 KECCAK256 DUP1 SLOAD PUSH1 0xFF NOT AND SWAP2 ISZERO ISZERO SWAP2 SWAP1 SWAP2 OR SWAP1 SSTORE DUP1 PUSH2 0xF00 DUP2 PUSH2 0x214E JUMP JUMPDEST SWAP2 POP POP PUSH2 0xEA3 JUMP JUMPDEST POP DUP1 MLOAD PUSH1 0x40 MLOAD PUSH32 0xF899E24720678B9547483D3C332E9A7E1EABB9C013BD2E0FF30D83806CF421F3 SWAP1 PUSH1 0x0 SWAP1 LOG2 POP JUMP JUMPDEST PUSH1 0x0 SLOAD PUSH1 0x1 PUSH1 0x1 PUSH1 0xA0 SHL SUB AND CALLER EQ PUSH2 0xF61 JUMPI PUSH1 0x40 MLOAD PUSH3 0x461BCD PUSH1 0xE5 SHL DUP2 MSTORE PUSH1 0x4 ADD PUSH2 0x5BD SWAP1 PUSH2 0x1FD3 JUMP JUMPDEST PUSH1 0x9 SLOAD PUSH1 0xFF AND PUSH2 0xFD1 JUMPI PUSH1 0x40 MLOAD PUSH3 0x461BCD PUSH1 0xE5 SHL DUP2 MSTORE PUSH1 0x20 PUSH1 0x4 DUP3 ADD MSTORE PUSH1 0x35 PUSH1 0x24 DUP3 ADD MSTORE PUSH32 0x41424F41543A64697361626C6557686974656C6973743A2057686974656C6973 PUSH1 0x44 DUP3 ADD MSTORE PUSH21 0x1D081A5CC8185B1C9958591E48191A5CD8589B1959 PUSH1 0x5A SHL PUSH1 0x64 DUP3 ADD MSTORE PUSH1 0x84 ADD PUSH2 0x5BD JUMP JUMPDEST PUSH1 0x9 DUP1 SLOAD PUSH1 0xFF NOT AND SWAP1 SSTORE JUMP JUMPDEST PUSH1 0x7 SLOAD ISZERO PUSH2 0x102D JUMPI PUSH1 0x40 MLOAD PUSH3 0x461BCD PUSH1 0xE5 SHL DUP2 MSTORE PUSH1 0x20 PUSH1 0x4 DUP3 ADD MSTORE PUSH1 0x1F PUSH1 0x24 DUP3 ADD MSTORE PUSH32 0x41424F41543A3A6275793A2053616C6520616C726561647920656E6465642100 PUSH1 0x44 DUP3 ADD MSTORE PUSH1 0x64 ADD PUSH2 0x5BD JUMP JUMPDEST CALLER PUSH1 0x0 SWAP1 DUP2 MSTORE PUSH1 0xA PUSH1 0x20 MSTORE PUSH1 0x40 SWAP1 KECCAK256 SLOAD PUSH1 0xFF AND DUP1 PUSH2 0x104E JUMPI POP PUSH1 0x9 SLOAD PUSH1 0xFF AND ISZERO JUMPDEST PUSH2 0x10B4 JUMPI PUSH1 0x40 MLOAD PUSH3 0x461BCD PUSH1 0xE5 SHL DUP2 MSTORE PUSH1 0x20 PUSH1 0x4 DUP3 ADD MSTORE PUSH1 0x31 PUSH1 0x24 DUP3 ADD MSTORE PUSH32 0x41424F41543A3A6275793A20596F75277265206E6F742077686974656C697374 PUSH1 0x44 DUP3 ADD MSTORE PUSH17 0x656420666F7220746869732073616C6521 PUSH1 0x78 SHL PUSH1 0x64 DUP3 ADD MSTORE PUSH1 0x84 ADD PUSH2 0x5BD JUMP JUMPDEST PUSH1 0x2 SLOAD PUSH1 0x1 PUSH1 0x1 PUSH1 0xA0 SHL SUB AND ISZERO DUP1 ISZERO DUP1 PUSH2 0x10CD JUMPI POP DUP2 CALLVALUE EQ JUMPDEST PUSH2 0x1136 JUMPI PUSH1 0x40 MLOAD PUSH3 0x461BCD PUSH1 0xE5 SHL DUP2 MSTORE PUSH1 0x20 PUSH1 0x4 DUP3 ADD MSTORE PUSH1 0x34 PUSH1 0x24 DUP3 ADD MSTORE PUSH32 0x41424F41543A3A6275793A2053656E742076616C756520646F65736E2774206D PUSH1 0x44 DUP3 ADD MSTORE PUSH20 0x19595D081D1A194819DA5D995B88185B5BDD5B9D PUSH1 0x62 SHL PUSH1 0x64 DUP3 ADD MSTORE PUSH1 0x84 ADD PUSH2 0x5BD JUMP JUMPDEST PUSH1 0x4 SLOAD CALLER PUSH1 0x0 SWAP1 DUP2 MSTORE PUSH1 0xB PUSH1 0x20 MSTORE PUSH1 0x40 SWAP1 KECCAK256 SLOAD PUSH2 0x1153 SWAP1 DUP5 PUSH2 0x1811 JUMP JUMPDEST GT ISZERO PUSH2 0x11C7 JUMPI PUSH1 0x40 MLOAD PUSH3 0x461BCD PUSH1 0xE5 SHL DUP2 MSTORE PUSH1 0x20 PUSH1 0x4 DUP3 ADD MSTORE PUSH1 0x39 PUSH1 0x24 DUP3 ADD MSTORE PUSH32 0x41424F41543A3A6275793A20416D6F756E7420776F756C642065786365656420 PUSH1 0x44 DUP3 ADD MSTORE PUSH32 0x746865206D6178696D756D20616C6C6F776564206C696D697400000000000000 PUSH1 0x64 DUP3 ADD MSTORE PUSH1 0x84 ADD PUSH2 0x5BD JUMP JUMPDEST PUSH1 0x3 SLOAD PUSH1 0x0 SWAP1 PUSH2 0x11E3 SWAP1 PUSH2 0x9A3 DUP6 PUSH8 0xDE0B6B3A7640000 PUSH2 0x1805 JUMP JUMPDEST SWAP1 POP PUSH1 0x0 PUSH2 0x11F3 DUP3 PUSH2 0x6D0 PUSH2 0x629 JUMP JUMPDEST GT PUSH2 0x1210 JUMPI PUSH1 0x40 MLOAD PUSH3 0x461BCD PUSH1 0xE5 SHL DUP2 MSTORE PUSH1 0x4 ADD PUSH2 0x5BD SWAP1 PUSH2 0x2008 JUMP JUMPDEST DUP2 PUSH2 0x122D JUMPI PUSH1 0x2 SLOAD PUSH2 0x122D SWAP1 PUSH1 0x1 PUSH1 0x1 PUSH1 0xA0 SHL SUB AND CALLER ADDRESS DUP7 PUSH2 0x1A89 JUMP JUMPDEST CALLER PUSH1 0x0 SWAP1 DUP2 MSTORE PUSH1 0xB PUSH1 0x20 MSTORE PUSH1 0x40 SWAP1 KECCAK256 SLOAD PUSH2 0x1247 SWAP1 DUP5 PUSH2 0x1811 JUMP JUMPDEST CALLER PUSH1 0x0 SWAP1 DUP2 MSTORE PUSH1 0xB PUSH1 0x20 MSTORE PUSH1 0x40 SWAP1 KECCAK256 SSTORE PUSH1 0x6 SLOAD PUSH2 0x1264 SWAP1 DUP3 PUSH2 0x1811 JUMP JUMPDEST PUSH1 0x6 SSTORE PUSH1 0x2 SLOAD CALLER PUSH1 0x0 DUP2 DUP2 MSTORE PUSH1 0xE PUSH1 0x20 MSTORE PUSH1 0x40 DUP1 DUP3 KECCAK256 DUP1 SLOAD PUSH1 0x1 PUSH1 0x1 PUSH1 0xA0 SHL SUB NOT AND PUSH1 0x1 PUSH1 0x1 PUSH1 0xA0 SHL SUB SWAP1 SWAP6 AND SWAP5 SWAP1 SWAP5 OR SWAP1 SWAP4 SSTORE SWAP2 MLOAD DUP6 SWAP3 PUSH32 0xC55650CCDA1011E1CDC769B1FBF546EBB8C97800B6072B49E06CD560305B1D67 SWAP2 LOG3 POP POP POP JUMP JUMPDEST PUSH1 0x0 SLOAD PUSH1 0x1 PUSH1 0x1 PUSH1 0xA0 SHL SUB AND CALLER EQ PUSH2 0x12EE JUMPI PUSH1 0x40 MLOAD PUSH3 0x461BCD PUSH1 0xE5 SHL DUP2 MSTORE PUSH1 0x4 ADD PUSH2 0x5BD SWAP1 PUSH2 0x1FD3 JUMP JUMPDEST PUSH1 0x7 SLOAD ISZERO PUSH2 0x1351 JUMPI PUSH1 0x40 MLOAD PUSH3 0x461BCD PUSH1 0xE5 SHL DUP2 MSTORE PUSH1 0x20 PUSH1 0x4 DUP3 ADD MSTORE PUSH1 0x2A PUSH1 0x24 DUP3 ADD MSTORE PUSH32 0x41424F41543A3A636C61696D416E64456E6453616C653A2053616C6520616C72 PUSH1 0x44 DUP3 ADD MSTORE PUSH10 0x1958591E48195B991959 PUSH1 0xB2 SHL PUSH1 0x64 DUP3 ADD MSTORE PUSH1 0x84 ADD PUSH2 0x5BD JUMP JUMPDEST TIMESTAMP PUSH1 0x7 SSTORE PUSH1 0x6 SLOAD PUSH1 0x5 SLOAD GT PUSH2 0x140C JUMPI PUSH1 0x8 DUP2 SWAP1 SSTORE PUSH1 0x2 SLOAD PUSH1 0x1 PUSH1 0x1 PUSH1 0xA0 SHL SUB AND ISZERO PUSH2 0x1402 JUMPI PUSH1 0x2 SLOAD PUSH1 0x40 MLOAD PUSH4 0x70A08231 PUSH1 0xE0 SHL DUP2 MSTORE ADDRESS PUSH1 0x4 DUP3 ADD MSTORE PUSH2 0x13FD SWAP2 PUSH1 0x1 PUSH1 0x1 PUSH1 0xA0 SHL SUB AND SWAP1 CALLER SWAP1 DUP3 SWAP1 PUSH4 0x70A08231 SWAP1 PUSH1 0x24 ADD JUMPDEST PUSH1 0x20 PUSH1 0x40 MLOAD DUP1 DUP4 SUB DUP2 DUP7 DUP1 EXTCODESIZE ISZERO DUP1 ISZERO PUSH2 0x13C0 JUMPI PUSH1 0x0 DUP1 REVERT JUMPDEST POP GAS STATICCALL ISZERO DUP1 ISZERO PUSH2 0x13D4 JUMPI RETURNDATASIZE PUSH1 0x0 DUP1 RETURNDATACOPY RETURNDATASIZE PUSH1 0x0 REVERT JUMPDEST POP POP POP POP PUSH1 0x40 MLOAD RETURNDATASIZE PUSH1 0x1F NOT PUSH1 0x1F DUP3 ADD AND DUP3 ADD DUP1 PUSH1 0x40 MSTORE POP DUP2 ADD SWAP1 PUSH2 0x13F8 SWAP2 SWAP1 PUSH2 0x1EFD JUMP JUMPDEST PUSH2 0x1829 JUMP JUMPDEST PUSH2 0x1462 JUMP JUMPDEST PUSH2 0x13FD CALLER SELFBALANCE PUSH2 0x195A JUMP JUMPDEST PUSH1 0x0 PUSH1 0x8 SSTORE PUSH1 0x1 SLOAD PUSH1 0x1 PUSH1 0x1 PUSH1 0xA0 SHL SUB AND ISZERO PUSH2 0x1458 JUMPI PUSH1 0x1 SLOAD PUSH1 0x40 MLOAD PUSH4 0x70A08231 PUSH1 0xE0 SHL DUP2 MSTORE ADDRESS PUSH1 0x4 DUP3 ADD MSTORE PUSH2 0x13FD SWAP2 PUSH1 0x1 PUSH1 0x1 PUSH1 0xA0 SHL SUB AND SWAP1 CALLER SWAP1 DUP3 SWAP1 PUSH4 0x70A08231 SWAP1 PUSH1 0x24 ADD PUSH2 0x13A8 JUMP JUMPDEST PUSH2 0x1462 CALLER SELFBALANCE PUSH2 0x195A JUMP JUMPDEST PUSH1 0x8 SLOAD PUSH2 0x1476 SWAP1 PUSH2 0x745 SWAP1 PUSH3 0x15180 PUSH2 0x1805 JUMP JUMPDEST PUSH1 0x40 MLOAD PUSH32 0x94BB74A9473AE4063EC1E73DC3E35FD4B5ABE9CC1E43AD0DB84E5358559CCD5A SWAP1 PUSH1 0x0 SWAP1 LOG2 POP JUMP JUMPDEST PUSH1 0x0 SLOAD PUSH1 0x1 PUSH1 0x1 PUSH1 0xA0 SHL SUB AND CALLER EQ PUSH2 0x14CC JUMPI PUSH1 0x40 MLOAD PUSH3 0x461BCD PUSH1 0xE5 SHL DUP2 MSTORE PUSH1 0x4 ADD PUSH2 0x5BD SWAP1 PUSH2 0x1FD3 JUMP JUMPDEST PUSH1 0x1 PUSH1 0x1 PUSH1 0xA0 SHL SUB DUP2 AND PUSH2 0x1531 JUMPI PUSH1 0x40 MLOAD PUSH3 0x461BCD PUSH1 0xE5 SHL DUP2 MSTORE PUSH1 0x20 PUSH1 0x4 DUP3 ADD MSTORE PUSH1 0x26 PUSH1 0x24 DUP3 ADD MSTORE PUSH32 0x4F776E61626C653A206E6577206F776E657220697320746865207A65726F2061 PUSH1 0x44 DUP3 ADD MSTORE PUSH6 0x646472657373 PUSH1 0xD0 SHL PUSH1 0x64 DUP3 ADD MSTORE PUSH1 0x84 ADD PUSH2 0x5BD JUMP JUMPDEST PUSH2 0xAEA DUP2 PUSH2 0x1A39 JUMP JUMPDEST PUSH1 0x0 SLOAD PUSH1 0x1 PUSH1 0x1 PUSH1 0xA0 SHL SUB AND CALLER EQ PUSH2 0x1564 JUMPI PUSH1 0x40 MLOAD PUSH3 0x461BCD PUSH1 0xE5 SHL DUP2 MSTORE PUSH1 0x4 ADD PUSH2 0x5BD SWAP1 PUSH2 0x1FD3 JUMP JUMPDEST PUSH1 0x1 SLOAD PUSH1 0x1 PUSH1 0x1 PUSH1 0xA0 SHL SUB DUP3 DUP2 AND SWAP2 AND EQ ISZERO PUSH2 0x15F7 JUMPI PUSH1 0x40 MLOAD PUSH3 0x461BCD PUSH1 0xE5 SHL DUP2 MSTORE PUSH1 0x20 PUSH1 0x4 DUP3 ADD MSTORE PUSH1 0x46 PUSH1 0x24 DUP3 ADD MSTORE PUSH32 0x41424F41543A3A757064617465526577617264546F6B656E3A204E6577207265 PUSH1 0x44 DUP3 ADD MSTORE PUSH32 0x776172642073686F756C6420626520646966666572656E742066726F6D206375 PUSH1 0x64 DUP3 ADD MSTORE PUSH6 0x393932B73A17 PUSH1 0xD1 SHL PUSH1 0x84 DUP3 ADD MSTORE PUSH1 0xA4 ADD PUSH2 0x5BD JUMP JUMPDEST PUSH1 0x1 SLOAD PUSH1 0x40 MLOAD PUSH4 0x70A08231 PUSH1 0xE0 SHL DUP2 MSTORE ADDRESS PUSH1 0x4 DUP3 ADD MSTORE PUSH1 0x1 PUSH1 0x1 PUSH1 0xA0 SHL SUB SWAP1 SWAP2 AND SWAP1 PUSH4 0x70A08231 SWAP1 PUSH1 0x24 ADD PUSH1 0x20 PUSH1 0x40 MLOAD DUP1 DUP4 SUB DUP2 DUP7 DUP1 EXTCODESIZE ISZERO DUP1 ISZERO PUSH2 0x163A JUMPI PUSH1 0x0 DUP1 REVERT JUMPDEST POP GAS STATICCALL ISZERO DUP1 ISZERO PUSH2 0x164E JUMPI RETURNDATASIZE PUSH1 0x0 DUP1 RETURNDATACOPY RETURNDATASIZE PUSH1 0x0 REVERT JUMPDEST POP POP POP POP PUSH1 0x40 MLOAD RETURNDATASIZE PUSH1 0x1F NOT PUSH1 0x1F DUP3 ADD AND DUP3 ADD DUP1 PUSH1 0x40 MSTORE POP DUP2 ADD SWAP1 PUSH2 0x1672 SWAP2 SWAP1 PUSH2 0x1EFD JUMP JUMPDEST PUSH1 0x40 MLOAD PUSH4 0x70A08231 PUSH1 0xE0 SHL DUP2 MSTORE ADDRESS PUSH1 0x4 DUP3 ADD MSTORE PUSH1 0x1 PUSH1 0x1 PUSH1 0xA0 SHL SUB DUP4 AND SWAP1 PUSH4 0x70A08231 SWAP1 PUSH1 0x24 ADD PUSH1 0x20 PUSH1 0x40 MLOAD DUP1 DUP4 SUB DUP2 DUP7 DUP1 EXTCODESIZE ISZERO DUP1 ISZERO PUSH2 0x16B1 JUMPI PUSH1 0x0 DUP1 REVERT JUMPDEST POP GAS STATICCALL ISZERO DUP1 ISZERO PUSH2 0x16C5 JUMPI RETURNDATASIZE PUSH1 0x0 DUP1 RETURNDATACOPY RETURNDATASIZE PUSH1 0x0 REVERT JUMPDEST POP POP POP POP PUSH1 0x40 MLOAD RETURNDATASIZE PUSH1 0x1F NOT PUSH1 0x1F DUP3 ADD AND DUP3 ADD DUP1 PUSH1 0x40 MSTORE POP DUP2 ADD SWAP1 PUSH2 0x16E9 SWAP2 SWAP1 PUSH2 0x1EFD JUMP JUMPDEST EQ PUSH2 0x17A8 JUMPI PUSH1 0x40 MLOAD PUSH3 0x461BCD PUSH1 0xE5 SHL DUP2 MSTORE PUSH1 0x20 PUSH1 0x4 DUP3 ADD MSTORE PUSH1 0x77 PUSH1 0x24 DUP3 ADD MSTORE PUSH32 0x41424F41543A3A757064617465526577617264546F6B656E3A2054686520636F PUSH1 0x44 DUP3 ADD MSTORE PUSH32 0x6E74726163742073686F756C6420636F6E7461696E2061746C65617374207468 PUSH1 0x64 DUP3 ADD MSTORE PUSH32 0x652073616D6520616D6F756E74206F6620746F6B656E732061732066726F6D20 PUSH1 0x84 DUP3 ADD MSTORE PUSH32 0x7468652063757272656E7420726577617264546F6B656E000000000000000000 PUSH1 0xA4 DUP3 ADD MSTORE PUSH1 0xC4 ADD PUSH2 0x5BD JUMP JUMPDEST PUSH1 0x1 DUP1 SLOAD PUSH1 0x1 PUSH1 0x1 PUSH1 0xA0 SHL SUB NOT AND PUSH1 0x1 PUSH1 0x1 PUSH1 0xA0 SHL SUB DUP4 AND SWAP1 DUP2 OR SWAP1 SWAP2 SSTORE PUSH1 0x40 MLOAD PUSH32 0x3FCFC24A3384CA156092D9242CB0F84ABAF442146D91B8C93BEA526561B83F83 SWAP1 PUSH1 0x0 SWAP1 LOG2 POP JUMP JUMPDEST PUSH1 0x0 PUSH2 0x17FE DUP3 DUP5 PUSH2 0x210B JUMP JUMPDEST SWAP4 SWAP3 POP POP POP JUMP JUMPDEST PUSH1 0x0 PUSH2 0x17FE DUP3 DUP5 PUSH2 0x20EC JUMP JUMPDEST PUSH1 0x0 PUSH2 0x17FE DUP3 DUP5 PUSH2 0x20B2 JUMP JUMPDEST PUSH1 0x0 PUSH2 0x17FE DUP3 DUP5 PUSH2 0x20CA JUMP JUMPDEST PUSH1 0x40 DUP1 MLOAD PUSH1 0x1 PUSH1 0x1 PUSH1 0xA0 SHL SUB DUP5 DUP2 AND PUSH1 0x24 DUP4 ADD MSTORE PUSH1 0x44 DUP1 DUP4 ADD DUP6 SWAP1 MSTORE DUP4 MLOAD DUP1 DUP5 SUB SWAP1 SWAP2 ADD DUP2 MSTORE PUSH1 0x64 SWAP1 SWAP3 ADD DUP4 MSTORE PUSH1 0x20 DUP3 ADD DUP1 MLOAD PUSH1 0x1 PUSH1 0x1 PUSH1 0xE0 SHL SUB AND PUSH4 0xA9059CBB PUSH1 0xE0 SHL OR SWAP1 MSTORE SWAP2 MLOAD PUSH1 0x0 SWAP3 DUP4 SWAP3 SWAP1 DUP8 AND SWAP2 PUSH2 0x1885 SWAP2 SWAP1 PUSH2 0x1F16 JUMP JUMPDEST PUSH1 0x0 PUSH1 0x40 MLOAD DUP1 DUP4 SUB DUP2 PUSH1 0x0 DUP7 GAS CALL SWAP2 POP POP RETURNDATASIZE DUP1 PUSH1 0x0 DUP2 EQ PUSH2 0x18C2 JUMPI PUSH1 0x40 MLOAD SWAP2 POP PUSH1 0x1F NOT PUSH1 0x3F RETURNDATASIZE ADD AND DUP3 ADD PUSH1 0x40 MSTORE RETURNDATASIZE DUP3 MSTORE RETURNDATASIZE PUSH1 0x0 PUSH1 0x20 DUP5 ADD RETURNDATACOPY PUSH2 0x18C7 JUMP JUMPDEST PUSH1 0x60 SWAP2 POP JUMPDEST POP SWAP2 POP SWAP2 POP DUP2 DUP1 ISZERO PUSH2 0x18F1 JUMPI POP DUP1 MLOAD ISZERO DUP1 PUSH2 0x18F1 JUMPI POP DUP1 DUP1 PUSH1 0x20 ADD SWAP1 MLOAD DUP2 ADD SWAP1 PUSH2 0x18F1 SWAP2 SWAP1 PUSH2 0x1EC2 JUMP JUMPDEST PUSH2 0x1953 JUMPI PUSH1 0x40 MLOAD PUSH3 0x461BCD PUSH1 0xE5 SHL DUP2 MSTORE PUSH1 0x20 PUSH1 0x4 DUP3 ADD MSTORE PUSH1 0x2D PUSH1 0x24 DUP3 ADD MSTORE PUSH32 0x5472616E7366657248656C7065723A3A736166655472616E736665723A207472 PUSH1 0x44 DUP3 ADD MSTORE PUSH13 0x185B9CD9995C8819985A5B1959 PUSH1 0x9A SHL PUSH1 0x64 DUP3 ADD MSTORE PUSH1 0x84 ADD PUSH2 0x5BD JUMP JUMPDEST POP POP POP POP POP JUMP JUMPDEST PUSH1 0x40 DUP1 MLOAD PUSH1 0x0 DUP1 DUP3 MSTORE PUSH1 0x20 DUP3 ADD SWAP1 SWAP3 MSTORE PUSH1 0x1 PUSH1 0x1 PUSH1 0xA0 SHL SUB DUP5 AND SWAP1 DUP4 SWAP1 PUSH1 0x40 MLOAD PUSH2 0x1984 SWAP2 SWAP1 PUSH2 0x1F16 JUMP JUMPDEST PUSH1 0x0 PUSH1 0x40 MLOAD DUP1 DUP4 SUB DUP2 DUP6 DUP8 GAS CALL SWAP3 POP POP POP RETURNDATASIZE DUP1 PUSH1 0x0 DUP2 EQ PUSH2 0x19C1 JUMPI PUSH1 0x40 MLOAD SWAP2 POP PUSH1 0x1F NOT PUSH1 0x3F RETURNDATASIZE ADD AND DUP3 ADD PUSH1 0x40 MSTORE RETURNDATASIZE DUP3 MSTORE RETURNDATASIZE PUSH1 0x0 PUSH1 0x20 DUP5 ADD RETURNDATACOPY PUSH2 0x19C6 JUMP JUMPDEST PUSH1 0x60 SWAP2 POP JUMPDEST POP POP SWAP1 POP DUP1 PUSH2 0x1A34 JUMPI PUSH1 0x40 MLOAD PUSH3 0x461BCD PUSH1 0xE5 SHL DUP2 MSTORE PUSH1 0x20 PUSH1 0x4 DUP3 ADD MSTORE PUSH1 0x34 PUSH1 0x24 DUP3 ADD MSTORE PUSH32 0x5472616E7366657248656C7065723A3A736166655472616E736665724554483A PUSH1 0x44 DUP3 ADD MSTORE PUSH20 0x8115512081D1C985B9CD9995C8819985A5B1959 PUSH1 0x62 SHL PUSH1 0x64 DUP3 ADD MSTORE PUSH1 0x84 ADD PUSH2 0x5BD JUMP JUMPDEST POP POP POP JUMP JUMPDEST PUSH1 0x0 DUP1 SLOAD PUSH1 0x1 PUSH1 0x1 PUSH1 0xA0 SHL SUB DUP4 DUP2 AND PUSH1 0x1 PUSH1 0x1 PUSH1 0xA0 SHL SUB NOT DUP4 AND DUP2 OR DUP5 SSTORE PUSH1 0x40 MLOAD SWAP2 SWAP1 SWAP3 AND SWAP3 DUP4 SWAP2 PUSH32 0x8BE0079C531659141344CD1FD0A4F28419497F9722A3DAAFE3B4186F6B6457E0 SWAP2 SWAP1 LOG3 POP POP JUMP JUMPDEST PUSH1 0x40 DUP1 MLOAD PUSH1 0x1 PUSH1 0x1 PUSH1 0xA0 SHL SUB DUP6 DUP2 AND PUSH1 0x24 DUP4 ADD MSTORE DUP5 AND PUSH1 0x44 DUP3 ADD MSTORE PUSH1 0x64 DUP1 DUP3 ADD DUP5 SWAP1 MSTORE DUP3 MLOAD DUP1 DUP4 SUB SWAP1 SWAP2 ADD DUP2 MSTORE PUSH1 0x84 SWAP1 SWAP2 ADD SWAP1 SWAP2 MSTORE PUSH1 0x20 DUP2 ADD DUP1 MLOAD PUSH1 0x1 PUSH1 0x1 PUSH1 0xE0 SHL SUB AND PUSH4 0x23B872DD PUSH1 0xE0 SHL OR SWAP1 MSTORE PUSH2 0x1AE3 SWAP1 DUP6 SWAP1 PUSH2 0x1AE9 JUMP JUMPDEST POP POP POP POP JUMP JUMPDEST PUSH1 0x0 PUSH2 0x1B3E DUP3 PUSH1 0x40 MLOAD DUP1 PUSH1 0x40 ADD PUSH1 0x40 MSTORE DUP1 PUSH1 0x20 DUP2 MSTORE PUSH1 0x20 ADD PUSH32 0x5361666545524332303A206C6F772D6C6576656C2063616C6C206661696C6564 DUP2 MSTORE POP DUP6 PUSH1 0x1 PUSH1 0x1 PUSH1 0xA0 SHL SUB AND PUSH2 0x1BBB SWAP1 SWAP3 SWAP2 SWAP1 PUSH4 0xFFFFFFFF AND JUMP JUMPDEST DUP1 MLOAD SWAP1 SWAP2 POP ISZERO PUSH2 0x1A34 JUMPI DUP1 DUP1 PUSH1 0x20 ADD SWAP1 MLOAD DUP2 ADD SWAP1 PUSH2 0x1B5C SWAP2 SWAP1 PUSH2 0x1EC2 JUMP JUMPDEST PUSH2 0x1A34 JUMPI PUSH1 0x40 MLOAD PUSH3 0x461BCD PUSH1 0xE5 SHL DUP2 MSTORE PUSH1 0x20 PUSH1 0x4 DUP3 ADD MSTORE PUSH1 0x2A PUSH1 0x24 DUP3 ADD MSTORE PUSH32 0x5361666545524332303A204552433230206F7065726174696F6E20646964206E PUSH1 0x44 DUP3 ADD MSTORE PUSH10 0x1BDD081CDD58D8D95959 PUSH1 0xB2 SHL PUSH1 0x64 DUP3 ADD MSTORE PUSH1 0x84 ADD PUSH2 0x5BD JUMP JUMPDEST PUSH1 0x60 PUSH2 0x1BCA DUP5 DUP5 PUSH1 0x0 DUP6 PUSH2 0x1BD2 JUMP JUMPDEST SWAP5 SWAP4 POP POP POP POP JUMP JUMPDEST PUSH1 0x60 DUP3 SELFBALANCE LT ISZERO PUSH2 0x1C33 JUMPI PUSH1 0x40 MLOAD PUSH3 0x461BCD PUSH1 0xE5 SHL DUP2 MSTORE PUSH1 0x20 PUSH1 0x4 DUP3 ADD MSTORE PUSH1 0x26 PUSH1 0x24 DUP3 ADD MSTORE PUSH32 0x416464726573733A20696E73756666696369656E742062616C616E636520666F PUSH1 0x44 DUP3 ADD MSTORE PUSH6 0x1C8818D85B1B PUSH1 0xD2 SHL PUSH1 0x64 DUP3 ADD MSTORE PUSH1 0x84 ADD PUSH2 0x5BD JUMP JUMPDEST DUP5 EXTCODESIZE PUSH2 0x1C81 JUMPI PUSH1 0x40 MLOAD PUSH3 0x461BCD PUSH1 0xE5 SHL DUP2 MSTORE PUSH1 0x20 PUSH1 0x4 DUP3 ADD MSTORE PUSH1 0x1D PUSH1 0x24 DUP3 ADD MSTORE PUSH32 0x416464726573733A2063616C6C20746F206E6F6E2D636F6E7472616374000000 PUSH1 0x44 DUP3 ADD MSTORE PUSH1 0x64 ADD PUSH2 0x5BD JUMP JUMPDEST PUSH1 0x0 DUP1 DUP7 PUSH1 0x1 PUSH1 0x1 PUSH1 0xA0 SHL SUB AND DUP6 DUP8 PUSH1 0x40 MLOAD PUSH2 0x1C9D SWAP2 SWAP1 PUSH2 0x1F16 JUMP JUMPDEST PUSH1 0x0 PUSH1 0x40 MLOAD DUP1 DUP4 SUB DUP2 DUP6 DUP8 GAS CALL SWAP3 POP POP POP RETURNDATASIZE DUP1 PUSH1 0x0 DUP2 EQ PUSH2 0x1CDA JUMPI PUSH1 0x40 MLOAD SWAP2 POP PUSH1 0x1F NOT PUSH1 0x3F RETURNDATASIZE ADD AND DUP3 ADD PUSH1 0x40 MSTORE RETURNDATASIZE DUP3 MSTORE RETURNDATASIZE PUSH1 0x0 PUSH1 0x20 DUP5 ADD RETURNDATACOPY PUSH2 0x1CDF JUMP JUMPDEST PUSH1 0x60 SWAP2 POP JUMPDEST POP SWAP2 POP SWAP2 POP PUSH2 0x1CEF DUP3 DUP3 DUP7 PUSH2 0x1CFA JUMP JUMPDEST SWAP8 SWAP7 POP POP POP POP POP POP POP JUMP JUMPDEST PUSH1 0x60 DUP4 ISZERO PUSH2 0x1D09 JUMPI POP DUP2 PUSH2 0x17FE JUMP JUMPDEST DUP3 MLOAD ISZERO PUSH2 0x1D19 JUMPI DUP3 MLOAD DUP1 DUP5 PUSH1 0x20 ADD REVERT JUMPDEST DUP2 PUSH1 0x40 MLOAD PUSH3 0x461BCD PUSH1 0xE5 SHL DUP2 MSTORE PUSH1 0x4 ADD PUSH2 0x5BD SWAP2 SWAP1 PUSH2 0x1F32 JUMP JUMPDEST PUSH1 0x0 DUP3 PUSH1 0x1F DUP4 ADD SLT PUSH2 0x1D44 JUMPI PUSH1 0x0 DUP1 REVERT JUMPDEST DUP2 CALLDATALOAD PUSH1 0x20 PUSH2 0x1D59 PUSH2 0x1D54 DUP4 PUSH2 0x208E JUMP JUMPDEST PUSH2 0x205D JUMP JUMPDEST DUP1 DUP4 DUP3 MSTORE DUP3 DUP3 ADD SWAP2 POP DUP3 DUP7 ADD DUP8 DUP5 DUP7 PUSH1 0x5 SHL DUP10 ADD ADD GT ISZERO PUSH2 0x1D79 JUMPI PUSH1 0x0 DUP1 REVERT JUMPDEST PUSH1 0x0 JUMPDEST DUP6 DUP2 LT ISZERO PUSH2 0x1DA1 JUMPI DUP2 CALLDATALOAD PUSH2 0x1D8F DUP2 PUSH2 0x21AB JUMP JUMPDEST DUP5 MSTORE SWAP3 DUP5 ADD SWAP3 SWAP1 DUP5 ADD SWAP1 PUSH1 0x1 ADD PUSH2 0x1D7C JUMP JUMPDEST POP SWAP1 SWAP8 SWAP7 POP POP POP POP POP POP POP JUMP JUMPDEST PUSH1 0x0 PUSH1 0x20 DUP3 DUP5 SUB SLT ISZERO PUSH2 0x1DC0 JUMPI PUSH1 0x0 DUP1 REVERT JUMPDEST DUP2 CALLDATALOAD PUSH2 0x17FE DUP2 PUSH2 0x21AB JUMP JUMPDEST PUSH1 0x0 PUSH1 0x20 DUP3 DUP5 SUB SLT ISZERO PUSH2 0x1DDD JUMPI PUSH1 0x0 DUP1 REVERT JUMPDEST DUP2 CALLDATALOAD PUSH8 0xFFFFFFFFFFFFFFFF DUP2 GT ISZERO PUSH2 0x1DF4 JUMPI PUSH1 0x0 DUP1 REVERT JUMPDEST PUSH2 0x1BCA DUP5 DUP3 DUP6 ADD PUSH2 0x1D33 JUMP JUMPDEST PUSH1 0x0 DUP1 PUSH1 0x40 DUP4 DUP6 SUB SLT ISZERO PUSH2 0x1E13 JUMPI PUSH1 0x0 DUP1 REVERT JUMPDEST DUP3 CALLDATALOAD PUSH8 0xFFFFFFFFFFFFFFFF DUP1 DUP3 GT ISZERO PUSH2 0x1E2B JUMPI PUSH1 0x0 DUP1 REVERT JUMPDEST PUSH2 0x1E37 DUP7 DUP4 DUP8 ADD PUSH2 0x1D33 JUMP JUMPDEST SWAP4 POP PUSH1 0x20 SWAP2 POP DUP2 DUP6 ADD CALLDATALOAD DUP2 DUP2 GT ISZERO PUSH2 0x1E4E JUMPI PUSH1 0x0 DUP1 REVERT JUMPDEST DUP6 ADD SWAP1 POP PUSH1 0x1F DUP2 ADD DUP7 SGT PUSH2 0x1E61 JUMPI PUSH1 0x0 DUP1 REVERT JUMPDEST DUP1 CALLDATALOAD PUSH2 0x1E6F PUSH2 0x1D54 DUP3 PUSH2 0x208E JUMP JUMPDEST DUP1 DUP3 DUP3 MSTORE DUP5 DUP3 ADD SWAP2 POP DUP5 DUP5 ADD DUP10 DUP7 DUP6 PUSH1 0x5 SHL DUP8 ADD ADD GT ISZERO PUSH2 0x1E8F JUMPI PUSH1 0x0 DUP1 REVERT JUMPDEST PUSH1 0x0 SWAP5 POP JUMPDEST DUP4 DUP6 LT ISZERO PUSH2 0x1EB2 JUMPI DUP1 CALLDATALOAD DUP4 MSTORE PUSH1 0x1 SWAP5 SWAP1 SWAP5 ADD SWAP4 SWAP2 DUP6 ADD SWAP2 DUP6 ADD PUSH2 0x1E94 JUMP JUMPDEST POP DUP1 SWAP6 POP POP POP POP POP POP SWAP3 POP SWAP3 SWAP1 POP JUMP JUMPDEST PUSH1 0x0 PUSH1 0x20 DUP3 DUP5 SUB SLT ISZERO PUSH2 0x1ED4 JUMPI PUSH1 0x0 DUP1 REVERT JUMPDEST DUP2 MLOAD DUP1 ISZERO ISZERO DUP2 EQ PUSH2 0x17FE JUMPI PUSH1 0x0 DUP1 REVERT JUMPDEST PUSH1 0x0 PUSH1 0x20 DUP3 DUP5 SUB SLT ISZERO PUSH2 0x1EF6 JUMPI PUSH1 0x0 DUP1 REVERT JUMPDEST POP CALLDATALOAD SWAP2 SWAP1 POP JUMP JUMPDEST PUSH1 0x0 PUSH1 0x20 DUP3 DUP5 SUB SLT ISZERO PUSH2 0x1F0F JUMPI PUSH1 0x0 DUP1 REVERT JUMPDEST POP MLOAD SWAP2 SWAP1 POP JUMP JUMPDEST PUSH1 0x0 DUP3 MLOAD PUSH2 0x1F28 DUP2 DUP5 PUSH1 0x20 DUP8 ADD PUSH2 0x2122 JUMP JUMPDEST SWAP2 SWAP1 SWAP2 ADD SWAP3 SWAP2 POP POP JUMP JUMPDEST PUSH1 0x20 DUP2 MSTORE PUSH1 0x0 DUP3 MLOAD DUP1 PUSH1 0x20 DUP5 ADD MSTORE PUSH2 0x1F51 DUP2 PUSH1 0x40 DUP6 ADD PUSH1 0x20 DUP8 ADD PUSH2 0x2122 JUMP JUMPDEST PUSH1 0x1F ADD PUSH1 0x1F NOT AND SWAP2 SWAP1 SWAP2 ADD PUSH1 0x40 ADD SWAP3 SWAP2 POP POP JUMP JUMPDEST PUSH1 0x20 DUP1 DUP3 MSTORE PUSH1 0x48 SWAP1 DUP3 ADD MSTORE PUSH32 0x41424F41543A3A77686974656C6973743A20596F752063616E27742061646420 PUSH1 0x40 DUP3 ADD MSTORE PUSH32 0x6D6F7265207468616E2031303020616464726573736573206174207468652073 PUSH1 0x60 DUP3 ADD MSTORE PUSH8 0x616D652074696D65 PUSH1 0xC0 SHL PUSH1 0x80 DUP3 ADD MSTORE PUSH1 0xA0 ADD SWAP1 JUMP JUMPDEST PUSH1 0x20 DUP1 DUP3 MSTORE DUP2 DUP2 ADD MSTORE PUSH32 0x4F776E61626C653A2063616C6C6572206973206E6F7420746865206F776E6572 PUSH1 0x40 DUP3 ADD MSTORE PUSH1 0x60 ADD SWAP1 JUMP JUMPDEST PUSH1 0x20 DUP1 DUP3 MSTORE PUSH1 0x35 SWAP1 DUP3 ADD MSTORE PUSH32 0x41424F41543A3A6275793A20416D6F756E7420776F756C642065786365656420 PUSH1 0x40 DUP3 ADD MSTORE PUSH21 0x7468652072656D61696E696E672062616C616E6365 PUSH1 0x58 SHL PUSH1 0x60 DUP3 ADD MSTORE PUSH1 0x80 ADD SWAP1 JUMP JUMPDEST PUSH1 0x40 MLOAD PUSH1 0x1F DUP3 ADD PUSH1 0x1F NOT AND DUP2 ADD PUSH8 0xFFFFFFFFFFFFFFFF DUP2 GT DUP3 DUP3 LT OR ISZERO PUSH2 0x2086 JUMPI PUSH2 0x2086 PUSH2 0x2195 JUMP JUMPDEST PUSH1 0x40 MSTORE SWAP2 SWAP1 POP JUMP JUMPDEST PUSH1 0x0 PUSH8 0xFFFFFFFFFFFFFFFF DUP3 GT ISZERO PUSH2 0x20A8 JUMPI PUSH2 0x20A8 PUSH2 0x2195 JUMP JUMPDEST POP PUSH1 0x5 SHL PUSH1 0x20 ADD SWAP1 JUMP JUMPDEST PUSH1 0x0 DUP3 NOT DUP3 GT ISZERO PUSH2 0x20C5 JUMPI PUSH2 0x20C5 PUSH2 0x2169 JUMP JUMPDEST POP ADD SWAP1 JUMP JUMPDEST PUSH1 0x0 DUP3 PUSH2 0x20E7 JUMPI PUSH4 0x4E487B71 PUSH1 0xE0 SHL PUSH1 0x0 MSTORE PUSH1 0x12 PUSH1 0x4 MSTORE PUSH1 0x24 PUSH1 0x0 REVERT JUMPDEST POP DIV SWAP1 JUMP JUMPDEST PUSH1 0x0 DUP2 PUSH1 0x0 NOT DIV DUP4 GT DUP3 ISZERO ISZERO AND ISZERO PUSH2 0x2106 JUMPI PUSH2 0x2106 PUSH2 0x2169 JUMP JUMPDEST POP MUL SWAP1 JUMP JUMPDEST PUSH1 0x0 DUP3 DUP3 LT ISZERO PUSH2 0x211D JUMPI PUSH2 0x211D PUSH2 0x2169 JUMP JUMPDEST POP SUB SWAP1 JUMP JUMPDEST PUSH1 0x0 JUMPDEST DUP4 DUP2 LT ISZERO PUSH2 0x213D JUMPI DUP2 DUP2 ADD MLOAD DUP4 DUP3 ADD MSTORE PUSH1 0x20 ADD PUSH2 0x2125 JUMP JUMPDEST DUP4 DUP2 GT ISZERO PUSH2 0x1AE3 JUMPI POP POP PUSH1 0x0 SWAP2 ADD MSTORE JUMP JUMPDEST PUSH1 0x0 PUSH1 0x0 NOT DUP3 EQ ISZERO PUSH2 0x2162 JUMPI PUSH2 0x2162 PUSH2 0x2169 JUMP JUMPDEST POP PUSH1 0x1 ADD SWAP1 JUMP JUMPDEST PUSH4 0x4E487B71 PUSH1 0xE0 SHL PUSH1 0x0 MSTORE PUSH1 0x11 PUSH1 0x4 MSTORE PUSH1 0x24 PUSH1 0x0 REVERT JUMPDEST PUSH4 0x4E487B71 PUSH1 0xE0 SHL PUSH1 0x0 MSTORE PUSH1 0x32 PUSH1 0x4 MSTORE PUSH1 0x24 PUSH1 0x0 REVERT JUMPDEST PUSH4 0x4E487B71 PUSH1 0xE0 SHL PUSH1 0x0 MSTORE PUSH1 0x41 PUSH1 0x4 MSTORE PUSH1 0x24 PUSH1 0x0 REVERT JUMPDEST PUSH1 0x1 PUSH1 0x1 PUSH1 0xA0 SHL SUB DUP2 AND DUP2 EQ PUSH2 0xAEA JUMPI PUSH1 0x0 DUP1 REVERT INVALID LOG2 PUSH5 0x6970667358 0x22 SLT KECCAK256 PUSH21 0xBDCAF50CB2D0F996EFE8B066170E7A5A7446E5EB7 PUSH23 0xC4C91712070986D38F64736F6C63430008070033000000 "
				},
				"gasEstimates": {
					"creation": {
						"codeDepositCost": "1738800",
						"executionCost": "infinite",
						"totalCost": "infinite"
					},
					"external": {
						"afterDays()": "2329",
						"bought(address)": "2570",
						"buy(uint256)": "infinite",
						"claim()": "infinite",
						"claimAndEndSale(uint256)": "infinite",
						"claimed(address)": "2547",
						"claimedTokens(address)": "2592",
						"cliffPeriod()": "275",
						"disableWhitelist()": "28692",
						"getCurrentPercentage()": "infinite",
						"getRemainingBalance()": "infinite",
						"initialClaimPercentage()": "252",
						"lastClaimAddress(address)": "2596",
						"limit()": "2330",
						"owner()": "2398",
						"paymentToken()": "2405",
						"percentagePerPeriod()": "253",
						"period()": "251",
						"pricePerToken()": "2396",
						"renounceOwnership()": "28204",
						"requireWhitelist()": "2355",
						"rewardToken()": "2403",
						"saleEnded()": "2373",
						"softcap()": "2372",
						"soldTokens()": "2330",
						"transferOwnership(address)": "infinite",
						"updateAfterDays(uint256)": "26628",
						"updateRewardToken(address)": "infinite",
						"whitelist(address[])": "infinite",
						"whitelistFromSAFT(address[],uint256[])": "infinite",
						"whitelisted(address)": "2614"
					}
				},
				"methodIdentifiers": {
					"afterDays()": "e754e7c4",
					"bought(address)": "667022fd",
					"buy(uint256)": "d96a094a",
					"claim()": "4e71d92d",
					"claimAndEndSale(uint256)": "efe95f51",
					"claimed(address)": "c884ef83",
					"claimedTokens(address)": "a960c65f",
					"cliffPeriod()": "2f661946",
					"disableWhitelist()": "d6b0f484",
					"getCurrentPercentage()": "9c92431b",
					"getRemainingBalance()": "2fba2c85",
					"initialClaimPercentage()": "a5ebf835",
					"lastClaimAddress(address)": "f3739e05",
					"limit()": "a4d66daf",
					"owner()": "8da5cb5b",
					"paymentToken()": "3013ce29",
					"percentagePerPeriod()": "151bad0a",
					"period()": "ef78d4fd",
					"pricePerToken()": "7b1b1de6",
					"renounceOwnership()": "715018a6",
					"requireWhitelist()": "856734c4",
					"rewardToken()": "f7c618c1",
					"saleEnded()": "9b8906ae",
					"softcap()": "f89be593",
					"soldTokens()": "5ed9ebfc",
					"transferOwnership(address)": "f2fde38b",
					"updateAfterDays(uint256)": "0c0e0862",
					"updateRewardToken(address)": "f8cf31cb",
					"whitelist(address[])": "bd8aa780",
					"whitelistFromSAFT(address[],uint256[])": "5372a58e",
					"whitelisted(address)": "d936547e"
				}
			},
			"storageLayout": {
				"storage": [
					{
						"astId": 7,
						"contract": "contracts/PreSale.sol:PreSale",
						"label": "_owner",
						"offset": 0,
						"slot": "0",
						"type": "t_address"
					},
					{
						"astId": 1058,
						"contract": "contracts/PreSale.sol:PreSale",
						"label": "rewardToken",
						"offset": 0,
						"slot": "1",
						"type": "t_contract(IERC20)181"
					},
					{
						"astId": 1061,
						"contract": "contracts/PreSale.sol:PreSale",
						"label": "paymentToken",
						"offset": 0,
						"slot": "2",
						"type": "t_contract(IERC20)181"
					},
					{
						"astId": 1063,
						"contract": "contracts/PreSale.sol:PreSale",
						"label": "pricePerToken",
						"offset": 0,
						"slot": "3",
						"type": "t_uint256"
					},
					{
						"astId": 1065,
						"contract": "contracts/PreSale.sol:PreSale",
						"label": "limit",
						"offset": 0,
						"slot": "4",
						"type": "t_uint256"
					},
					{
						"astId": 1067,
						"contract": "contracts/PreSale.sol:PreSale",
						"label": "softcap",
						"offset": 0,
						"slot": "5",
						"type": "t_uint256"
					},
					{
						"astId": 1069,
						"contract": "contracts/PreSale.sol:PreSale",
						"label": "soldTokens",
						"offset": 0,
						"slot": "6",
						"type": "t_uint256"
					},
					{
						"astId": 1072,
						"contract": "contracts/PreSale.sol:PreSale",
						"label": "saleEnded",
						"offset": 0,
						"slot": "7",
						"type": "t_uint256"
					},
					{
						"astId": 1074,
						"contract": "contracts/PreSale.sol:PreSale",
						"label": "afterDays",
						"offset": 0,
						"slot": "8",
						"type": "t_uint256"
					},
					{
						"astId": 1089,
						"contract": "contracts/PreSale.sol:PreSale",
						"label": "requireWhitelist",
						"offset": 0,
						"slot": "9",
						"type": "t_bool"
					},
					{
						"astId": 1093,
						"contract": "contracts/PreSale.sol:PreSale",
						"label": "whitelisted",
						"offset": 0,
						"slot": "10",
						"type": "t_mapping(t_address,t_bool)"
					},
					{
						"astId": 1097,
						"contract": "contracts/PreSale.sol:PreSale",
						"label": "bought",
						"offset": 0,
						"slot": "11",
						"type": "t_mapping(t_address,t_uint256)"
					},
					{
						"astId": 1101,
						"contract": "contracts/PreSale.sol:PreSale",
						"label": "claimed",
						"offset": 0,
						"slot": "12",
						"type": "t_mapping(t_address,t_uint256)"
					},
					{
						"astId": 1105,
						"contract": "contracts/PreSale.sol:PreSale",
						"label": "claimedTokens",
						"offset": 0,
						"slot": "13",
						"type": "t_mapping(t_address,t_uint256)"
					},
					{
						"astId": 1109,
						"contract": "contracts/PreSale.sol:PreSale",
						"label": "lastClaimAddress",
						"offset": 0,
						"slot": "14",
						"type": "t_mapping(t_address,t_address)"
					}
				],
				"types": {
					"t_address": {
						"encoding": "inplace",
						"label": "address",
						"numberOfBytes": "20"
					},
					"t_bool": {
						"encoding": "inplace",
						"label": "bool",
						"numberOfBytes": "1"
					},
					"t_contract(IERC20)181": {
						"encoding": "inplace",
						"label": "contract IERC20",
						"numberOfBytes": "20"
					},
					"t_mapping(t_address,t_address)": {
						"encoding": "mapping",
						"key": "t_address",
						"label": "mapping(address => address)",
						"numberOfBytes": "32",
						"value": "t_address"
					},
					"t_mapping(t_address,t_bool)": {
						"encoding": "mapping",
						"key": "t_address",
						"label": "mapping(address => bool)",
						"numberOfBytes": "32",
						"value": "t_bool"
					},
					"t_mapping(t_address,t_uint256)": {
						"encoding": "mapping",
						"key": "t_address",
						"label": "mapping(address => uint256)",
						"numberOfBytes": "32",
						"value": "t_uint256"
					},
					"t_uint256": {
						"encoding": "inplace",
						"label": "uint256",
						"numberOfBytes": "32"
					}
				}
			},
			"userdoc": {
				"kind": "user",
				"methods": {},
				"version": 1
			}
		}
	}
}