{
	"data": {
		"bytecode": {
			"linkReferences": {},
			"object": "60806040526002805460ff1916905560006008819055600a819055600b819055601281905560138190556015556016805461ffff19166161a81790553480156200004857600080fd5b5060405162004ecb38038062004ecb8339810160408190526200006b9162000c62565b6200007633620003e7565b60018055600480546001600160a01b0319163317905560005b60188160ff161015620000e3576007805460018101825560009182527fa66cc928b5edb82af9bd49922954155ab7b0942694bea4ce44661d9a8736c688015580620000da8162000d6e565b9150506200008f565b506001600160a01b0384166200014a5760405162461bcd60e51b815260206004820152602160248201527f41626f617420546f6b656e2063616e2774206265207a65726f206164647265736044820152607360f81b60648201526084015b60405180910390fd5b6001600160a01b038316620001b15760405162461bcd60e51b815260206004820152602660248201527f44657620616464726573732073686f756c64206e6f74206265207a65726f206160448201526564647265737360d01b606482015260840162000141565b6001600160a01b038216620002185760405162461bcd60e51b815260206004820152602660248201527f46656520616464726573732073686f756c64206e6f74206265207a65726f206160448201526564647265737360d01b606482015260840162000141565b600580546001600160a01b038087166001600160a01b03199283168117909355600e8054878316908416179055600f805491861691909216179055686c6b935b8bbd40000060105560118290556040805163808a545760e01b815290516000929163808a5457916004808301926020929190829003018186803b1580156200029f57600080fd5b505afa158015620002b4573d6000803e3d6000fd5b505050506040513d601f19601f82011682018060405250810190620002da919062000c1e565b60055490915062000302906064906001600160a01b0316600061019081601e60018262000437565b60055462000327906096906001600160a01b0316600061012c81605a60018262000437565b6005546200034b9060fa906001600160a01b0316600060c88160b460018262000437565b6005546200037190610190906001600160a01b0316600060648161016860018262000437565b62000389609682600061019081601e60018062000437565b620003a160fa82600061012c81605a60018062000437565b620003b961019082600060c88160b460018062000437565b620003d261025882600060648161016860018062000437565b620003dc620006fd565b505050505062000dd6565b600080546001600160a01b038381166001600160a01b0319831681178455604051919092169283917f8be0079c531659141344cd1fd0a4f28419497f9722a3daafe3b4186f6b6457e09190a35050565b6000546001600160a01b03163314620004935760405162461bcd60e51b815260206004820181905260248201527f4f776e61626c653a2063616c6c6572206973206e6f7420746865206f776e6572604482015260640162000141565b6127108561ffff161115620004f65760405162461bcd60e51b815260206004820152602260248201527f7365743a206465706f736974206665652063616e277420657863656564203130604482015261202560f01b606482015260840162000141565b8015620005075762000507620007dd565b600060115443116200051c576011546200051e565b435b90506200053c896012546200080e60201b620030781790919060201c565b601281905550600d604051806101400160405280876001600160a01b031681526020018a6001600160a01b031681526020018b8152602001838152602001600081526020018861ffff1681526020016000815260200189815260200186815260200185151581525090806001815401808255809150506001900390600052602060002090600a020160009091909190915060008201518160000160006101000a8154816001600160a01b0302191690836001600160a01b0316021790555060208201518160010160006101000a8154816001600160a01b0302191690836001600160a01b0316021790555060408201518160020155606082015181600301556080820151816004015560a08201518160050160006101000a81548161ffff021916908361ffff16021790555060c0820151816006015560e0820151816007015561010082015181600801556101208201518160090160006101000a81548160ff02191690831515021790555050506001600d80549050620006be919062000d36565b6040516001600160a01b038a16907fbe4222bc407cb12031595fc55b46531e46308d31e4572c9c4360d8ae790e1a3190600090a3505050505050505050565b33620007116000546001600160a01b031690565b6001600160a01b031614806200073157506004546001600160a01b031633145b620007a55760405162461bcd60e51b815260206004820152603560248201527f6f70657261746f723a2063616c6c6572206973206e6f7420616c6c6f7765642060448201527f746f2063616c6c20746869732066756e6374696f6e0000000000000000000000606482015260840162000141565b6002805460ff191660011790556040517f2c08b62bfac9a1b19bb1dec9323f1ce01696a77948b256abf3603d30f25a864e90600090a1565b600d5460005b818110156200080a57620007f78162000823565b620008028162000d50565b9050620007e3565b5050565b60006200081c828462000cd6565b9392505050565b6000600d82815481106200083b576200083b62000da7565b90600052602060002090600a02019050806003015443116200085b575050565b6000620008688362000a7b565b9050806200087b57504360039091015550565b60006200089b83600301544362000b6d60201b620030841790919060201c565b90506000620008f3601254620008df8660020154620008cb6010548762000b7b60201b620030901790919060201c565b62000b7b60201b620030901790919060201c565b62000b8960201b6200309c1790919060201c565b90506200092662000914600a8362000b8960201b6200309c1790919060201c565b62000920908362000cd6565b62000b97565b1562000a2557600554600e546001600160a01b03918216916340c10f1991166200095e84600a62000b89602090811b6200309c17901c565b6040516001600160e01b031960e085901b1681526001600160a01b0390921660048301526024820152604401600060405180830381600087803b158015620009a557600080fd5b505af1158015620009ba573d6000803e3d6000fd5b50506005546040516340c10f1960e01b8152306004820152602481018590526001600160a01b0390911692506340c10f199150604401600060405180830381600087803b15801562000a0b57600080fd5b505af115801562000a20573d6000803e3d6000fd5b505050505b62000a6662000a4d84620008df64e8d4a510008562000b7b60201b620030901790919060201c565b85600401546200080e60201b620030781790919060201c565b60048501555050436003909201919091555050565b600080600d838154811062000a945762000a9462000da7565b600091825260208220600554600a929092020160018101549093506001600160a01b039182169116148062000ad2575081546001600160a01b031615155b1562000ae4575060068101546200081c565b60018201546040516370a0823160e01b81523060048201526001600160a01b03909116906370a082319060240160206040518083038186803b15801562000b2a57600080fd5b505afa15801562000b3f573d6000803e3d6000fd5b505050506040513d601f19601f8201168201806040525081019062000b65919062000cbc565b949350505050565b60006200081c828462000d36565b60006200081c828462000d14565b60006200081c828462000cf1565b60055460405163069372b360e41b8152600481018390526000916001600160a01b0316906369372b309060240160206040518083038186803b15801562000bdd57600080fd5b505afa15801562000bf2573d6000803e3d6000fd5b505050506040513d601f19601f8201168201806040525081019062000c18919062000c3e565b92915050565b60006020828403121562000c3157600080fd5b81516200081c8162000dbd565b60006020828403121562000c5157600080fd5b815180151581146200081c57600080fd5b6000806000806080858703121562000c7957600080fd5b845162000c868162000dbd565b602086015190945062000c998162000dbd565b604086015190935062000cac8162000dbd565b6060959095015193969295505050565b60006020828403121562000ccf57600080fd5b5051919050565b6000821982111562000cec5762000cec62000d91565b500190565b60008262000d0f57634e487b7160e01b600052601260045260246000fd5b500490565b600081600019048311821515161562000d315762000d3162000d91565b500290565b60008282101562000d4b5762000d4b62000d91565b500390565b600060001982141562000d675762000d6762000d91565b5060010190565b600060ff821660ff81141562000d885762000d8862000d91565b60010192915050565b634e487b7160e01b600052601160045260246000fd5b634e487b7160e01b600052603260045260246000fd5b6001600160a01b038116811462000dd357600080fd5b50565b6140e58062000de66000396000f3fe608060405234801561001057600080fd5b50600436106103785760003560e01c806382e46b75116101d3578063a6be46aa11610104578063e6c1e89c116100a2578063f0c445021161007c578063f0c4450214610792578063f2fde38b146107a5578063f4762fd6146107b8578063f98080c0146107c057600080fd5b8063e6c1e89c14610763578063e9a52b6714610776578063edc23f961461078957600080fd5b8063d0d41fe1116100de578063d0d41fe114610711578063d936547e14610724578063da20124814610747578063e2bbb1581461075057600080fd5b8063a6be46aa146106e3578063a8b39eee146106eb578063ca4164f9146106fe57600080fd5b80639b4dc8cc116101715780639fbe42e31161014b5780639fbe42e31461069d578063a347511a146106b0578063a3f30d27146106bd578063a607494a146106d057600080fd5b80639b4dc8cc1461066e5780639eed5b33146106815780639f5311561461068a57600080fd5b80638da5cb5b116101ad5780638da5cb5b1461062657806394d45b591461063757806397e784941461064a5780639850d32b1461065d57600080fd5b806382e46b75146105b557806387370846146105c85780638ca206891461061d57600080fd5b8063441a3e70116102ad578063630b5ba11161024b578063689d84e411610225578063689d84e4146105235780636e0c9f0a14610591578063715018a6146105a45780637ba71c55146105ac57600080fd5b8063630b5ba11461050a57806365a2d70114610512578063673a7e281461051b57600080fd5b806351eb05a61161028757806351eb05a6146104b057806357320251146104c3578063575b789c146104e45780635ecbbf98146104f757600080fd5b8063441a3e701461048c57806348cd4cb11461049f5780634b94f50e146104a857600080fd5b806329465d421161031a5780633ad10ef6116102f45780633ad10ef6146104555780633e82211c146104685780634127535814610471578063437f660e1461048457600080fd5b806329465d421461040c57806334c434e41461042f578063379607f51461044257600080fd5b806313ea5d291161035657806313ea5d29146103d457806317caf6f1146103e7578063262917d9146103f057806327de19471461040357600080fd5b8063081e3eda1461037d5780630ba84cd21461039457806311df9995146103a9575b600080fd5b600d545b6040519081526020015b60405180910390f35b6103a76103a2366004613a6f565b6107eb565b005b6005546103bc906001600160a01b031681565b6040516001600160a01b03909116815260200161038b565b6103a76103e2366004613834565b610944565b61038160125481565b6103a76103fe366004613ba5565b610b6a565b61038160085481565b61041f61041a366004613a6f565b610de8565b604051901515815260200161038b565b6103a761043d3660046138f8565b610e6b565b6103a7610450366004613a6f565b610ebd565b600e546103bc906001600160a01b031681565b61038160155481565b600f546103bc906001600160a01b031681565b6103a7611065565b6103a761049a366004613931565b6111bb565b61038160115481565b6103816114d9565b6103a76104be366004613a6f565b611940565b6016546104d19061ffff1681565b60405161ffff909116815260200161038b565b6103816104f236600461386e565b611b13565b610381610505366004613a6f565b611d9e565b6103a7611e86565b61038160095481565b6103a7611ead565b610536610531366004613a6f565b611eb5565b604080516001600160a01b039b8c1681529a90991660208b0152978901969096526060880194909452608087019290925261ffff1660a086015260c085015260e084015261010083015215156101208201526101400161038b565b61038161059f366004613a6f565b611f2e565b6103a7611f4f565b61038160135481565b6103a76105c3366004613834565b611f83565b6106026105d6366004613aa1565b600c60209081526000928352604080842090915290825290208054600182015460029092015490919083565b6040805193845260208401929092529082015260600161038b565b610381600b5481565b6000546001600160a01b03166103bc565b6103816106453660046138af565b612251565b6103a7610658366004613aeb565b61234a565b6004546001600160a01b03166103bc565b6006546103bc906001600160a01b031681565b61038160105481565b6103a7610698366004613953565b61258c565b6103816106ab366004613a6f565b6125ff565b60025461041f9060ff1681565b6103a76106cb366004613b77565b6126cc565b6103a76106de366004613953565b612799565b610381612876565b6103a76106f9366004613a6f565b612923565b61038161070c366004613ac6565b612b62565b6103a761071f366004613834565b612ba4565b61041f610732366004613834565b60176020526000908152604090205460ff1681565b610381600a5481565b6103a761075e366004613931565b612d57565b610381610771366004613931565b612d92565b610381610784366004613aa1565b612dd8565b61038160145481565b6103a76107a0366004613a54565b612ee0565b6103a76107b3366004613834565b612f57565b6103a7612ff2565b6103816107ce366004613953565b805160208183018101805160038252928201919093012091525481565b6000546001600160a01b0316331461081e5760405162461bcd60e51b815260040161081590613c7c565b60405180910390fd5b604080518082019091526012815271757064617465456d697373696f6e5261746560701b602082015260025460ff1615806108d957506003816040516108649190613c2d565b9081526020016040518091039020546000141580156108a157504260038260405161088f9190613c2d565b90815260200160405180910390205411155b80156108d9575042620151806003836040516108bd9190613c2d565b9081526020016040518091039020546108d69190613dab565b10155b6108f55760405162461bcd60e51b815260040161081590613cb1565b6108fd611e86565b601082905560405182815233907fe2492e003bbe8afa53088b406f0c1cb5d9e280370fc72a74cf116ffd343c40539060200160405180910390a26109408161258c565b5050565b336109576000546001600160a01b031690565b6001600160a01b0316148061097657506004546001600160a01b031633145b6109925760405162461bcd60e51b815260040161081590613cdd565b60408051808201909152600a81526936b0b4b73a30b4b732b960b11b602082015260025460ff161580610a4557506003816040516109d09190613c2d565b908152602001604051809103902054600014158015610a0d5750426003826040516109fb9190613c2d565b90815260200160405180910390205411155b8015610a4557504262015180600383604051610a299190613c2d565b908152602001604051809103902054610a429190613dab565b10155b610a615760405162461bcd60e51b815260040161081590613cb1565b6004546001600160a01b03838116911614801590610a8757506001600160a01b03821615155b610b125760405162461bcd60e51b815260206004820152605060248201527f41424f41543a3a7365744d61696e7461696e65723a204d61696e7461696e657260448201527f2063616e277420657175616c2070726576696f7573206d61696e7461696e657260648201526f206f72207a65726f206164647265737360801b608482015260a401610815565b600480546001600160a01b038481166001600160a01b0319831681179093556040519116919082907f2f3ffaaaad93928855c8700645d1a3643e6ccfdd500efa9fda048a88f557cf0190600090a3506109408161258c565b6000546001600160a01b03163314610b945760405162461bcd60e51b815260040161081590613c7c565b60408051808201909152601081526f736574506f6f6c5661726961626c657360801b602082015260025460ff161580610c4d5750600381604051610bd89190613c2d565b908152602001604051809103902054600014158015610c15575042600382604051610c039190613c2d565b90815260200160405180910390205411155b8015610c4d57504262015180600383604051610c319190613c2d565b908152602001604051809103902054610c4a9190613dab565b10155b610c695760405162461bcd60e51b815260040161081590613cb1565b6103e88561ffff161115610c8f5760405162461bcd60e51b815260040161081590613d69565b8115610c9d57610c9d611e86565b610ce086610cda600d8a81548110610cb757610cb7614060565b90600052602060002090600a02016002015460125461308490919063ffffffff16565b90613078565b60128190555085600d8881548110610cfa57610cfa614060565b90600052602060002090600a02016002018190555084600d8881548110610d2357610d23614060565b90600052602060002090600a020160050160006101000a81548161ffff021916908361ffff16021790555083600d8881548110610d6257610d62614060565b90600052602060002090600a02016008018190555082600d8881548110610d8b57610d8b614060565b600091825260208220600a9190910201600901805460ff19169215159290921790915560405188917fa844e7199a9e0826e5c245adcd2d35f2f100069597a3e7512afe58f772c4eca991a2610ddf8161258c565b50505050505050565b60055460405163069372b360e41b8152600481018390526000916001600160a01b0316906369372b309060240160206040518083038186803b158015610e2d57600080fd5b505afa158015610e41573d6000803e3d6000fd5b505050506040513d601f19601f82011682018060405250810190610e6591906138db565b92915050565b6000546001600160a01b03163314610e955760405162461bcd60e51b815260040161081590613c7c565b6001600160a01b03166000908152601760205260409020805460ff1916911515919091179055565b60026001541415610ee05760405162461bcd60e51b815260040161081590613d32565b60026001819055506000600d8281548110610efd57610efd614060565b60009182526020808320858452600c825260408085203386529092529220600a9091029091019150610f2e83611940565b6000610f688260010154610f6264e8d4a51000610f5c8760040154876000015461309090919063ffffffff16565b9061309c565b90613084565b90508015610fb257610f7a33826130a8565b604051818152849033907f34fcbac0073d7c3d388e51312faf357774904998eeb8fca628b9e6f65ee1cbf79060200160405180910390a35b82546001600160a01b0316156110335782546007840154604051630ad58d2f60e01b81526004810191909152600060248201523360448201526001600160a01b0390911690630ad58d2f90606401600060405180830381600087803b15801561101a57600080fd5b505af115801561102e573d6000803e3d6000fd5b505050505b6004830154825461104e9164e8d4a5100091610f5c91613090565b600183015561105b611065565b5050600180555050565b6005546001600160a01b0316158061110057506005546040805163808a545760e01b815290516000926001600160a01b03169163808a5457916004808301926020929190829003018186803b1580156110bd57600080fd5b505afa1580156110d1573d6000803e3d6000fd5b505050506040513d601f19601f820116820180604052508101906110f59190613851565b6001600160a01b0316145b1561110757565b611113610e1042613fd6565b60095410156111635760006111266114d9565b600880549192508291600791600061113d83614019565b919050558154811061115157611151614060565b60009182526020909120015550426009555b6111706201518042613fd6565b60145410801561118257506002600854115b156111b9576000611191612876565b426014556000600855600a5490915015156111ab8261316c565b8015610940576109406131a8565b565b600260015414156111de5760405162461bcd60e51b815260040161081590613d32565b60026001819055506000600d83815481106111fb576111fb614060565b60009182526020808320868452600c8252604080852033865290925292208054600a909202909201925083111561129a5760405162461bcd60e51b815260206004820152603d60248201527f77697468647261773a20776974686472617720616d6f756e742063616e27742060448201527f657863656564207573657273206465706f736974656420616d6f756e740000006064820152608401610815565b6112a384611940565b60006112d18260010154610f6264e8d4a51000610f5c8760040154876000015461309090919063ffffffff16565b905080156112e3576112e333826130a8565b8315611440574261130b8460080154620151806113009190613f78565b600285015490613078565b111561137f5760405162461bcd60e51b815260206004820152603c60248201527f41424f41543a3a77697468647261773a2043616e27742077697468647261772060448201527f6265666f7265206c6f636b696e6720706572696f6420656e6465642e000000006064820152608401610815565b815461138b9085613084565b825582546001600160a01b0316156114125782546007840154604051630ad58d2f60e01b81526004810191909152602481018690523360448201526001600160a01b0390911690630ad58d2f90606401600060405180830381600087803b1580156113f557600080fd5b505af1158015611409573d6000803e3d6000fd5b5050505061142b565b600183015461142b906001600160a01b031633866131f4565b600683015461143a9085613084565b60068401555b6004830154825461145b9164e8d4a5100091610f5c91613090565b600180840191909155600554908401546001600160a01b039081169116141561148f5760135461148b9085613084565b6013555b604051848152859033907ff279e6a1f5e320cca91135676d9cb6e44ca8a08c0b88342bcdb1144f6511b5689060200160405180910390a36114ce611065565b505060018055505050565b600080600560009054906101000a90046001600160a01b03166001600160a01b031663808a54576040518163ffffffff1660e01b815260040160206040518083038186803b15801561152a57600080fd5b505afa15801561153e573d6000803e3d6000fd5b505050506040513d601f19601f820116820180604052508101906115629190613851565b6006549091506001600160a01b038083169116146115a557600680546001600160a01b0319166001600160a01b03831617905560006008819055600a819055600b555b60065460408051630240bc6b60e21b815290516001600160a01b039092169160009182918491630902f1ac916004808301926060929190829003018186803b1580156115f057600080fd5b505afa158015611604573d6000803e3d6000fd5b505050506040513d601f19601f820116820180604052508101906116289190613a04565b506001600160701b031691506001600160701b0316915081600014801561164d575080155b1561165d57600094505050505090565b6000600560009054906101000a90046001600160a01b03166001600160a01b0316846001600160a01b0316630dfe16816040518163ffffffff1660e01b815260040160206040518083038186803b1580156116b757600080fd5b505afa1580156116cb573d6000803e3d6000fd5b505050506040513d601f19601f820116820180604052508101906116ef9190613851565b6001600160a01b03161461177357836001600160a01b031663d21220a76040518163ffffffff1660e01b815260040160206040518083038186803b15801561173657600080fd5b505afa15801561174a573d6000803e3d6000fd5b505050506040513d601f19601f8201168201806040525081019061176e9190613851565b6117e4565b836001600160a01b031663d21220a76040518163ffffffff1660e01b815260040160206040518083038186803b1580156117ac57600080fd5b505afa1580156117c0573d6000803e3d6000fd5b505050506040513d601f19601f820116820180604052508101906117e49190613851565b90506000600560009054906101000a90046001600160a01b03166001600160a01b0316856001600160a01b0316630dfe16816040518163ffffffff1660e01b815260040160206040518083038186803b15801561184057600080fd5b505afa158015611854573d6000803e3d6000fd5b505050506040513d601f19601f820116820180604052508101906118789190613851565b6001600160a01b03161461188c578361188e565b825b9050600084821461189f57846118a1565b835b905080836001600160a01b031663313ce5676040518163ffffffff1660e01b815260040160206040518083038186803b1580156118dd57600080fd5b505afa1580156118f1573d6000803e3d6000fd5b505050506040513d601f19601f820116820180604052508101906119159190613c0a565b61192090600a613e48565b61192a9084613f78565b6119349190613df1565b97505050505050505090565b6000600d828154811061195557611955614060565b90600052602060002090600a0201905080600301544311611974575050565b600061197f83611d9e565b90508061199157504360039091015550565b60006119aa83600301544361308490919063ffffffff16565b905060006119d7601254610f5c86600201546119d16010548761309090919063ffffffff16565b90613090565b90506119f16119e782600a61309c565b61041a9083613dab565b15611add57600554600e546001600160a01b03918216916340c10f199116611a1a84600a61309c565b6040516001600160e01b031960e085901b1681526001600160a01b0390921660048301526024820152604401600060405180830381600087803b158015611a6057600080fd5b505af1158015611a74573d6000803e3d6000fd5b50506005546040516340c10f1960e01b8152306004820152602481018590526001600160a01b0390911692506340c10f199150604401600060405180830381600087803b158015611ac457600080fd5b505af1158015611ad8573d6000803e3d6000fd5b505050505b611afe611af384610f5c8464e8d4a51000613090565b600486015490613078565b60048501555050436003909201919091555050565b6000836001600160a01b038116611b2e576000915050611d97565b6000846001600160a01b0316826001600160a01b0316630dfe16816040518163ffffffff1660e01b815260040160206040518083038186803b158015611b7357600080fd5b505afa158015611b87573d6000803e3d6000fd5b505050506040513d601f19601f82011682018060405250810190611bab9190613851565b6001600160a01b03161490506000856001600160a01b0316836001600160a01b031663d21220a76040518163ffffffff1660e01b815260040160206040518083038186803b158015611bfc57600080fd5b505afa158015611c10573d6000803e3d6000fd5b505050506040513d601f19601f82011682018060405250810190611c349190613851565b6001600160a01b0316149050600080846001600160a01b0316630902f1ac6040518163ffffffff1660e01b815260040160606040518083038186803b158015611c7c57600080fd5b505afa158015611c90573d6000803e3d6000fd5b505050506040513d601f19601f82011682018060405250810190611cb49190613a04565b506001600160701b031691506001600160701b03169150816000148015611cd9575080155b80611ceb575083158015611ceb575082155b15611cfe57600095505050505050611d97565b6000856001600160a01b03166318160ddd6040518163ffffffff1660e01b815260040160206040518083038186803b158015611d3957600080fd5b505afa158015611d4d573d6000803e3d6000fd5b505050506040513d601f19601f82011682018060405250810190611d719190613a88565b9050611d8e81610f5c87611d855784611d87565b855b8b90613090565b96505050505050505b9392505050565b600080600d8381548110611db457611db4614060565b600091825260208220600554600a929092020160018101549093506001600160a01b0391821691161480611df1575081546001600160a01b031615155b15611e0157506006810154611d97565b60018201546040516370a0823160e01b81523060048201526001600160a01b03909116906370a082319060240160206040518083038186803b158015611e4657600080fd5b505afa158015611e5a573d6000803e3d6000fd5b505050506040513d601f19601f82011682018060405250810190611e7e9190613a88565b949350505050565b600d5460005b8181101561094057611e9d81611940565b611ea681614019565b9050611e8c565b6111b9611065565b600d8181548110611ec557600080fd5b60009182526020909120600a909102018054600182015460028301546003840154600485015460058601546006870154600788015460088901546009909901546001600160a01b039889169a50979096169794969395929461ffff909216939092919060ff168a565b60078181548110611f3e57600080fd5b600091825260209091200154905081565b6000546001600160a01b03163314611f795760405162461bcd60e51b815260040161081590613c7c565b6111b96000613257565b6000546001600160a01b03163314611fad5760405162461bcd60e51b815260040161081590613c7c565b60408051808201909152600781526639b2ba21b7b4b760c91b602082015260025460ff16158061205d5750600381604051611fe89190613c2d565b9081526020016040518091039020546000141580156120255750426003826040516120139190613c2d565b90815260200160405180910390205411155b801561205d575042620151806003836040516120419190613c2d565b90815260200160405180910390205461205a9190613dab565b10155b6120795760405162461bcd60e51b815260040161081590613cb1565b6005546001600160a01b03838116911614156120eb5760405162461bcd60e51b815260206004820152602b60248201527f41424f41543a3a736574436f696e3a2043616e2774207265706c61636520746860448201526a329039b0b6b29031b7b4b760a91b6064820152608401610815565b6001600160a01b0382166121585760405162461bcd60e51b815260206004820152602e60248201527f41424f41543a3a736574436f696e3a2043616e27742073657420636f696e207460448201526d6f207a65726f206164647265737360901b6064820152608401610815565b600580546001600160a01b038481166001600160a01b0319831681179093556040805163808a545760e01b8152905191909216929163808a5457916004808301926020929190829003018186803b1580156121b257600080fd5b505afa1580156121c6573d6000803e3d6000fd5b505050506040513d601f19601f820116820180604052508101906121ea9190613851565b600680546001600160a01b0319166001600160a01b0392831617905560006008819055600a819055600b819055600554604051908316928416917f2dba03f722a3e07e4f2d2132f8161a513ee0b79eac0d928b67f5dffb49316c1b91a3506109408161258c565b600d5460009081805b82811015612341576000600d828154811061227757612277614060565b90600052602060002090600a02019050856000148061229a575080600801548611155b156123305760018101546005546001600160a01b039182169116808214806122c65750600983015460ff165b1561232d576000848152600c602090815260408083206001600160a01b03808e168552925290912090838116908316141561230f578054612308908790613078565b955061232b565b61232861232184848460000154611b13565b8790613078565b95505b505b50505b5061233a81614019565b905061225a565b50949350505050565b6000546001600160a01b031633146123745760405162461bcd60e51b815260040161081590613c7c565b6127108561ffff16111561239a5760405162461bcd60e51b815260040161081590613d69565b80156123a8576123a8611e86565b600060115443116123bb576011546123bd565b435b6012549091506123cd908a613078565b601281905550600d604051806101400160405280876001600160a01b031681526020018a6001600160a01b031681526020018b8152602001838152602001600081526020018861ffff1681526020016000815260200189815260200186815260200185151581525090806001815401808255809150506001900390600052602060002090600a020160009091909190915060008201518160000160006101000a8154816001600160a01b0302191690836001600160a01b0316021790555060208201518160010160006101000a8154816001600160a01b0302191690836001600160a01b0316021790555060408201518160020155606082015181600301556080820151816004015560a08201518160050160006101000a81548161ffff021916908361ffff16021790555060c0820151816006015560e0820151816007015561010082015181600801556101208201518160090160006101000a81548160ff02191690831515021790555050506001600d8054905061254d9190613fd6565b6040516001600160a01b038a16907fbe4222bc407cb12031595fc55b46531e46308d31e4572c9c4360d8ae790e1a3190600090a3505050505050505050565b3361259f6000546001600160a01b031690565b6001600160a01b031614806125be57506004546001600160a01b031633145b6125da5760405162461bcd60e51b815260040161081590613cdd565b60006003826040516125ec9190613c2d565b9081526040519081900360200190205550565b600080600d838154811061261557612615614060565b60009182526020909120600a909102016005810154815491925061ffff16906001600160a01b031615611d975781546007830154604051639fbe42e360e01b81526004810191909152611e7e916001600160a01b031690639fbe42e39060240160206040518083038186803b15801561268d57600080fd5b505afa1580156126a1573d6000803e3d6000fd5b505050506040513d601f19601f820116820180604052508101906126c59190613a88565b8290613078565b600260015414156126ef5760405162461bcd60e51b815260040161081590613d32565b60026001553360009081526017602052604090205460ff166127855760405162461bcd60e51b815260206004820152604360248201527f41424f41543a3a6465706f736974466f72557365723a20596f7520617265206e60448201527f6f7420616c6c6f77656420746f20657865637574652074686973206465706f7360648201526234ba1760e91b608482015260a401610815565b6127908383836132a7565b50506001805550565b336127ac6000546001600160a01b031690565b6001600160a01b031614806127cb57506004546001600160a01b031633145b6127e75760405162461bcd60e51b815260040161081590613cdd565b6127f46201518042613dab565b6003826040516128049190613c2d565b9081526020016040518091039020819055506003816040516128269190613c2d565b908152602001604051809103902054816040516128439190613c2d565b604051908190038120907ff77f9a799fe8b0be1463abd7459a18fc55dfd8a6a24ddd29b54fd098088089c890600090a350565b60008080805b60085481116128f65760006007828154811061289a5761289a614060565b906000526020600020015411156128e457600781815481106128be576128be614060565b9060005260206000200154836128d49190613dab565b9250816128e081614019565b9250505b806128ee81614019565b91505061287c565b506000821180156129075750600081115b1561291d57612916828261309c565b9250505090565b50919050565b600260015414156129465760405162461bcd60e51b815260040161081590613d32565b60026001819055506000600d828154811061296357612963614060565b60009182526020808320858452600c8252604080852033865290925292206008600a9092029092019081015490925042906129b0906129a59062015180613f78565b600284015490613078565b1115612a375760405162461bcd60e51b815260206004820152604a60248201527f41424f41543a3a7769746864726177576974686f7574526577617264733a204360448201527f616e2774207769746864726177206265666f7265206c6f636b696e672070657260648201526934b7b21032b73232b21760b11b608482015260a401610815565b80546006830154612a489082613084565b60068401556000808355600183015582546001600160a01b031615612adc5782546007840154604051633dcaca9360e21b81526004810191909152602481018390523360448201526001600160a01b039091169063f72b2a4c90606401600060405180830381600087803b158015612abf57600080fd5b505af1158015612ad3573d6000803e3d6000fd5b50505050612af5565b6001830154612af5906001600160a01b031633836131f4565b60055460018401546001600160a01b0390811691161415612b2157601354612b1d9082613084565b6013555b604051818152849033907fbb757047c2b5f3974fe26b7c10f732e7bce710b0952a71082702781e62ae05959060200160405180910390a35050600180555050565b6010546000908215612b8957612b826126c5620f4240610f5c8488613090565b9050611d97565b611e7e612b9d620f4240610f5c8488613090565b8290613084565b6000546001600160a01b03163314612bce5760405162461bcd60e51b815260040161081590613c7c565b60408051808201909152600d81526c7365744465764164647265737360981b602082015260025460ff161580612c845750600381604051612c0f9190613c2d565b908152602001604051809103902054600014158015612c4c575042600382604051612c3a9190613c2d565b90815260200160405180910390205411155b8015612c8457504262015180600383604051612c689190613c2d565b908152602001604051809103902054612c819190613dab565b10155b612ca05760405162461bcd60e51b815260040161081590613cb1565b6001600160a01b038216612d055760405162461bcd60e51b815260206004820152602660248201527f44657620616464726573732073686f756c64206e6f74206265207a65726f206160448201526564647265737360d01b6064820152608401610815565b600e80546001600160a01b0319166001600160a01b03841690811790915560405133907f618c54559e94f1499a808aad71ee8729f8e74e8c48e979616328ce493a1a52e790600090a36109408161258c565b60026001541415612d7a5760405162461bcd60e51b815260040161081590613d32565b6002600155612d8a8282336132a7565b505060018055565b60008082612da08186613f97565b612dab906064613ef3565b612db790612710613ef3565b612dc19190613dc3565b90506000811215611d9757611e7e60001982613ef3565b600080600d8481548110612dee57612dee614060565b60009182526020808320878452600c825260408085206001600160a01b0389168652909252908320600a929092020160048101549093509091612e3087611d9e565b9050836003015443118015612e4457508015155b15612ead576000612e6285600301544361308490919063ffffffff16565b90506000612e89601254610f5c88600201546119d16010548761309090919063ffffffff16565b9050612ea8612ea184610f5c8464e8d4a51000613090565b8590613078565b935050505b612ed58360010154610f6264e8d4a51000610f5c86886000015461309090919063ffffffff16565b979650505050505050565b6000546001600160a01b03163314612f0a5760405162461bcd60e51b815260040161081590613c7c565b6016805461ffff191661ffff831690811790915560405190815233907fbad81196170fb9427a5ce7abe0fdf496bb5f5f8bdbacbd118fe8fd7760248b26906020015b60405180910390a250565b6000546001600160a01b03163314612f815760405162461bcd60e51b815260040161081590613c7c565b6001600160a01b038116612fe65760405162461bcd60e51b815260206004820152602660248201527f4f776e61626c653a206e6577206f776e657220697320746865207a65726f206160448201526564647265737360d01b6064820152608401610815565b612fef81613257565b50565b336130056000546001600160a01b031690565b6001600160a01b0316148061302457506004546001600160a01b031633145b6130405760405162461bcd60e51b815260040161081590613cdd565b6002805460ff191660011790556040517f2c08b62bfac9a1b19bb1dec9323f1ce01696a77948b256abf3603d30f25a864e90600090a1565b6000611d978284613dab565b6000611d978284613fd6565b6000611d978284613f78565b6000611d978284613df1565b6013546005546040516370a0823160e01b815230600482015260009261312f9290916001600160a01b03909116906370a082319060240160206040518083038186803b1580156130f757600080fd5b505afa15801561310b573d6000803e3d6000fd5b505050506040513d601f19601f82011682018060405250810190610f629190613a88565b90508082111561315557600554613150906001600160a01b031684836131f4565b505050565b600554613150906001600160a01b031684846131f4565b600a8054600b819055908290556040518291907f4db09ff035e174c21f4ed503b26c1fe141926caa59e40fe975bda1583c3ebfba90600090a350565b60006131b8600a54600b54612d92565b60165490915061ffff168111156131d2575060165461ffff165b60006131e482600b54600a5411612b62565b60158390559050610940816135bc565b6040516001600160a01b03831660248201526044810182905261315090849063a9059cbb60e01b906064015b60408051601f198184030181529190526020810180516001600160e01b03166001600160e01b0319909316929092179091526135fb565b600080546001600160a01b038381166001600160a01b0319831681178455604051919092169283917f8be0079c531659141344cd1fd0a4f28419497f9722a3daafe3b4186f6b6457e09190a35050565b6000600d84815481106132bc576132bc614060565b60009182526020808320878452600c825260408085206001600160a01b03881686529092529220600a90910290910191506132f685611940565b80541580159061330e57506001600160a01b03831633145b156133555760006133418260010154610f6264e8d4a51000610f5c8760040154876000015461309090919063ffffffff16565b905080156133535761335384826130a8565b505b83801561351957426002830155600183015461337c906001600160a01b03163330886136cd565b600583015461ffff16156133ec5760058301546000906133a99061271090610f5c90899061ffff16613090565b600f5460018601549192506133cb916001600160a01b039081169116836131f4565b6133d58682613084565b83549092506133e49083613078565b8355506133fb565b81546133f89086613078565b82555b600683015461340a9082613078565b600684015582546001600160a01b031615613519576001830154835460405163095ea7b360e01b81526001600160a01b0391821660048201526024810184905291169063095ea7b390604401602060405180830381600087803b15801561347057600080fd5b505af1158015613484573d6000803e3d6000fd5b505050506040513d601f19601f820116820180604052508101906134a891906138db565b5082546007840154604051631c57762b60e31b81526001600160a01b039092169163e2bbb158916134e6918590600401918252602082015260400190565b600060405180830381600087803b15801561350057600080fd5b505af1158015613514573d6000803e3d6000fd5b505050505b600483015482546135349164e8d4a5100091610f5c91613090565b600180840191909155600554908401546001600160a01b0390811691161415613568576013546135649082613078565b6013555b85846001600160a01b03167f90890809c654f11d6e72a28fa60149770a0d11ec6c92319d6ceb2bb0a4ea1a15876040516135a491815260200190565b60405180910390a36135b4611065565b505050505050565b6135c4611e86565b601081905560405181815230907fe2492e003bbe8afa53088b406f0c1cb5d9e280370fc72a74cf116ffd343c405390602001612f4c565b6000613650826040518060400160405280602081526020017f5361666545524332303a206c6f772d6c6576656c2063616c6c206661696c6564815250856001600160a01b031661370b9092919063ffffffff16565b805190915015613150578080602001905181019061366e91906138db565b6131505760405162461bcd60e51b815260206004820152602a60248201527f5361666545524332303a204552433230206f7065726174696f6e20646964206e6044820152691bdd081cdd58d8d9595960b21b6064820152608401610815565b6040516001600160a01b03808516602483015283166044820152606481018290526137059085906323b872dd60e01b90608401613220565b50505050565b6060611e7e848460008585843b6137645760405162461bcd60e51b815260206004820152601d60248201527f416464726573733a2063616c6c20746f206e6f6e2d636f6e74726163740000006044820152606401610815565b600080866001600160a01b031685876040516137809190613c2d565b60006040518083038185875af1925050503d80600081146137bd576040519150601f19603f3d011682016040523d82523d6000602084013e6137c2565b606091505b5091509150612ed5828286606083156137dc575081611d97565b8251156137ec5782518084602001fd5b8160405162461bcd60e51b81526004016108159190613c49565b80516001600160701b038116811461381d57600080fd5b919050565b803561ffff8116811461381d57600080fd5b60006020828403121561384657600080fd5b8135611d978161408c565b60006020828403121561386357600080fd5b8151611d978161408c565b60008060006060848603121561388357600080fd5b833561388e8161408c565b9250602084013561389e8161408c565b929592945050506040919091013590565b600080604083850312156138c257600080fd5b82356138cd8161408c565b946020939093013593505050565b6000602082840312156138ed57600080fd5b8151611d97816140a1565b6000806040838503121561390b57600080fd5b8235613916816140a1565b915060208301356139268161408c565b809150509250929050565b6000806040838503121561394457600080fd5b50508035926020909101359150565b60006020828403121561396557600080fd5b813567ffffffffffffffff8082111561397d57600080fd5b818401915084601f83011261399157600080fd5b8135818111156139a3576139a3614076565b604051601f8201601f19908116603f011681019083821181831017156139cb576139cb614076565b816040528281528760208487010111156139e457600080fd5b826020860160208301376000928101602001929092525095945050505050565b600080600060608486031215613a1957600080fd5b613a2284613806565b9250613a3060208501613806565b9150604084015163ffffffff81168114613a4957600080fd5b809150509250925092565b600060208284031215613a6657600080fd5b611d9782613822565b600060208284031215613a8157600080fd5b5035919050565b600060208284031215613a9a57600080fd5b5051919050565b60008060408385031215613ab457600080fd5b8235915060208301356139268161408c565b60008060408385031215613ad957600080fd5b823591506020830135613926816140a1565b600080600080600080600080610100898b031215613b0857600080fd5b883597506020890135613b1a8161408c565b965060408901359550613b2f60608a01613822565b94506080890135613b3f8161408c565b935060a0890135925060c0890135613b56816140a1565b915060e0890135613b66816140a1565b809150509295985092959890939650565b600080600060608486031215613b8c57600080fd5b83359250602084013591506040840135613a498161408c565b60008060008060008060c08789031215613bbe57600080fd5b8635955060208701359450613bd560408801613822565b9350606087013592506080870135613bec816140a1565b915060a0870135613bfc816140a1565b809150509295509295509295565b600060208284031215613c1c57600080fd5b815160ff81168114611d9757600080fd5b60008251613c3f818460208701613fed565b9190910192915050565b6020815260008251806020840152613c68816040850160208701613fed565b601f01601f19169190910160400192915050565b6020808252818101527f4f776e61626c653a2063616c6c6572206973206e6f7420746865206f776e6572604082015260600190565b602080825260129082015271119d5b98dd1a5bdb881a5cc81b1bd8dad95960721b604082015260600190565b60208082526035908201527f6f70657261746f723a2063616c6c6572206973206e6f7420616c6c6f776564206040820152743a379031b0b636103a3434b990333ab731ba34b7b760591b606082015260800190565b6020808252601f908201527f5265656e7472616e637947756172643a207265656e7472616e742063616c6c00604082015260600190565b60208082526022908201527f7365743a206465706f736974206665652063616e277420657863656564203130604082015261202560f01b606082015260800190565b60008219821115613dbe57613dbe614034565b500190565b600082613dd257613dd261404a565b600160ff1b821460001984141615613dec57613dec614034565b500590565b600082613e0057613e0061404a565b500490565b600181815b80851115613e40578160001904821115613e2657613e26614034565b80851615613e3357918102915b93841c9390800290613e0a565b509250929050565b6000611d9760ff841683600082613e6157506001610e65565b81613e6e57506000610e65565b8160018114613e845760028114613e8e57613eaa565b6001915050610e65565b60ff841115613e9f57613e9f614034565b50506001821b610e65565b5060208310610133831016604e8410600b8410161715613ecd575081810a610e65565b613ed78383613e05565b8060001904821115613eeb57613eeb614034565b029392505050565b60006001600160ff1b0381841382841380821686840486111615613f1957613f19614034565b600160ff1b6000871282811687830589121615613f3857613f38614034565b60008712925087820587128484161615613f5457613f54614034565b87850587128184161615613f6a57613f6a614034565b505050929093029392505050565b6000816000190483118215151615613f9257613f92614034565b500290565b60008083128015600160ff1b850184121615613fb557613fb5614034565b6001600160ff1b0384018313811615613fd057613fd0614034565b50500390565b600082821015613fe857613fe8614034565b500390565b60005b83811015614008578181015183820152602001613ff0565b838111156137055750506000910152565b600060001982141561402d5761402d614034565b5060010190565b634e487b7160e01b600052601160045260246000fd5b634e487b7160e01b600052601260045260246000fd5b634e487b7160e01b600052603260045260246000fd5b634e487b7160e01b600052604160045260246000fd5b6001600160a01b0381168114612fef57600080fd5b8015158114612fef57600080fdfea2646970667358221220ea5d9d469e64c7d7374660c430b022ca6b18e7551d6c212cf32b363ec563c33464736f6c63430008070033",
			"opcodes": "PUSH1 0x80 PUSH1 0x40 MSTORE PUSH1 0x2 DUP1 SLOAD PUSH1 0xFF NOT AND SWAP1 SSTORE PUSH1 0x0 PUSH1 0x8 DUP2 SWAP1 SSTORE PUSH1 0xA DUP2 SWAP1 SSTORE PUSH1 0xB DUP2 SWAP1 SSTORE PUSH1 0x12 DUP2 SWAP1 SSTORE PUSH1 0x13 DUP2 SWAP1 SSTORE PUSH1 0x15 SSTORE PUSH1 0x16 DUP1 SLOAD PUSH2 0xFFFF NOT AND PUSH2 0x61A8 OR SWAP1 SSTORE CALLVALUE DUP1 ISZERO PUSH3 0x48 JUMPI PUSH1 0x0 DUP1 REVERT JUMPDEST POP PUSH1 0x40 MLOAD PUSH3 0x4ECB CODESIZE SUB DUP1 PUSH3 0x4ECB DUP4 CODECOPY DUP2 ADD PUSH1 0x40 DUP2 SWAP1 MSTORE PUSH3 0x6B SWAP2 PUSH3 0xC62 JUMP JUMPDEST PUSH3 0x76 CALLER PUSH3 0x3E7 JUMP JUMPDEST PUSH1 0x1 DUP1 SSTORE PUSH1 0x4 DUP1 SLOAD PUSH1 0x1 PUSH1 0x1 PUSH1 0xA0 SHL SUB NOT AND CALLER OR SWAP1 SSTORE PUSH1 0x0 JUMPDEST PUSH1 0x18 DUP2 PUSH1 0xFF AND LT ISZERO PUSH3 0xE3 JUMPI PUSH1 0x7 DUP1 SLOAD PUSH1 0x1 DUP2 ADD DUP3 SSTORE PUSH1 0x0 SWAP2 DUP3 MSTORE PUSH32 0xA66CC928B5EDB82AF9BD49922954155AB7B0942694BEA4CE44661D9A8736C688 ADD SSTORE DUP1 PUSH3 0xDA DUP2 PUSH3 0xD6E JUMP JUMPDEST SWAP2 POP POP PUSH3 0x8F JUMP JUMPDEST POP PUSH1 0x1 PUSH1 0x1 PUSH1 0xA0 SHL SUB DUP5 AND PUSH3 0x14A JUMPI PUSH1 0x40 MLOAD PUSH3 0x461BCD PUSH1 0xE5 SHL DUP2 MSTORE PUSH1 0x20 PUSH1 0x4 DUP3 ADD MSTORE PUSH1 0x21 PUSH1 0x24 DUP3 ADD MSTORE PUSH32 0x41626F617420546F6B656E2063616E2774206265207A65726F20616464726573 PUSH1 0x44 DUP3 ADD MSTORE PUSH1 0x73 PUSH1 0xF8 SHL PUSH1 0x64 DUP3 ADD MSTORE PUSH1 0x84 ADD JUMPDEST PUSH1 0x40 MLOAD DUP1 SWAP2 SUB SWAP1 REVERT JUMPDEST PUSH1 0x1 PUSH1 0x1 PUSH1 0xA0 SHL SUB DUP4 AND PUSH3 0x1B1 JUMPI PUSH1 0x40 MLOAD PUSH3 0x461BCD PUSH1 0xE5 SHL DUP2 MSTORE PUSH1 0x20 PUSH1 0x4 DUP3 ADD MSTORE PUSH1 0x26 PUSH1 0x24 DUP3 ADD MSTORE PUSH32 0x44657620616464726573732073686F756C64206E6F74206265207A65726F2061 PUSH1 0x44 DUP3 ADD MSTORE PUSH6 0x646472657373 PUSH1 0xD0 SHL PUSH1 0x64 DUP3 ADD MSTORE PUSH1 0x84 ADD PUSH3 0x141 JUMP JUMPDEST PUSH1 0x1 PUSH1 0x1 PUSH1 0xA0 SHL SUB DUP3 AND PUSH3 0x218 JUMPI PUSH1 0x40 MLOAD PUSH3 0x461BCD PUSH1 0xE5 SHL DUP2 MSTORE PUSH1 0x20 PUSH1 0x4 DUP3 ADD MSTORE PUSH1 0x26 PUSH1 0x24 DUP3 ADD MSTORE PUSH32 0x46656520616464726573732073686F756C64206E6F74206265207A65726F2061 PUSH1 0x44 DUP3 ADD MSTORE PUSH6 0x646472657373 PUSH1 0xD0 SHL PUSH1 0x64 DUP3 ADD MSTORE PUSH1 0x84 ADD PUSH3 0x141 JUMP JUMPDEST PUSH1 0x5 DUP1 SLOAD PUSH1 0x1 PUSH1 0x1 PUSH1 0xA0 SHL SUB DUP1 DUP8 AND PUSH1 0x1 PUSH1 0x1 PUSH1 0xA0 SHL SUB NOT SWAP3 DUP4 AND DUP2 OR SWAP1 SWAP4 SSTORE PUSH1 0xE DUP1 SLOAD DUP8 DUP4 AND SWAP1 DUP5 AND OR SWAP1 SSTORE PUSH1 0xF DUP1 SLOAD SWAP2 DUP7 AND SWAP2 SWAP1 SWAP3 AND OR SWAP1 SSTORE PUSH9 0x6C6B935B8BBD400000 PUSH1 0x10 SSTORE PUSH1 0x11 DUP3 SWAP1 SSTORE PUSH1 0x40 DUP1 MLOAD PUSH4 0x808A5457 PUSH1 0xE0 SHL DUP2 MSTORE SWAP1 MLOAD PUSH1 0x0 SWAP3 SWAP2 PUSH4 0x808A5457 SWAP2 PUSH1 0x4 DUP1 DUP4 ADD SWAP3 PUSH1 0x20 SWAP3 SWAP2 SWAP1 DUP3 SWAP1 SUB ADD DUP2 DUP7 DUP1 EXTCODESIZE ISZERO DUP1 ISZERO PUSH3 0x29F JUMPI PUSH1 0x0 DUP1 REVERT JUMPDEST POP GAS STATICCALL ISZERO DUP1 ISZERO PUSH3 0x2B4 JUMPI RETURNDATASIZE PUSH1 0x0 DUP1 RETURNDATACOPY RETURNDATASIZE PUSH1 0x0 REVERT JUMPDEST POP POP POP POP PUSH1 0x40 MLOAD RETURNDATASIZE PUSH1 0x1F NOT PUSH1 0x1F DUP3 ADD AND DUP3 ADD DUP1 PUSH1 0x40 MSTORE POP DUP2 ADD SWAP1 PUSH3 0x2DA SWAP2 SWAP1 PUSH3 0xC1E JUMP JUMPDEST PUSH1 0x5 SLOAD SWAP1 SWAP2 POP PUSH3 0x302 SWAP1 PUSH1 0x64 SWAP1 PUSH1 0x1 PUSH1 0x1 PUSH1 0xA0 SHL SUB AND PUSH1 0x0 PUSH2 0x190 DUP2 PUSH1 0x1E PUSH1 0x1 DUP3 PUSH3 0x437 JUMP JUMPDEST PUSH1 0x5 SLOAD PUSH3 0x327 SWAP1 PUSH1 0x96 SWAP1 PUSH1 0x1 PUSH1 0x1 PUSH1 0xA0 SHL SUB AND PUSH1 0x0 PUSH2 0x12C DUP2 PUSH1 0x5A PUSH1 0x1 DUP3 PUSH3 0x437 JUMP JUMPDEST PUSH1 0x5 SLOAD PUSH3 0x34B SWAP1 PUSH1 0xFA SWAP1 PUSH1 0x1 PUSH1 0x1 PUSH1 0xA0 SHL SUB AND PUSH1 0x0 PUSH1 0xC8 DUP2 PUSH1 0xB4 PUSH1 0x1 DUP3 PUSH3 0x437 JUMP JUMPDEST PUSH1 0x5 SLOAD PUSH3 0x371 SWAP1 PUSH2 0x190 SWAP1 PUSH1 0x1 PUSH1 0x1 PUSH1 0xA0 SHL SUB AND PUSH1 0x0 PUSH1 0x64 DUP2 PUSH2 0x168 PUSH1 0x1 DUP3 PUSH3 0x437 JUMP JUMPDEST PUSH3 0x389 PUSH1 0x96 DUP3 PUSH1 0x0 PUSH2 0x190 DUP2 PUSH1 0x1E PUSH1 0x1 DUP1 PUSH3 0x437 JUMP JUMPDEST PUSH3 0x3A1 PUSH1 0xFA DUP3 PUSH1 0x0 PUSH2 0x12C DUP2 PUSH1 0x5A PUSH1 0x1 DUP1 PUSH3 0x437 JUMP JUMPDEST PUSH3 0x3B9 PUSH2 0x190 DUP3 PUSH1 0x0 PUSH1 0xC8 DUP2 PUSH1 0xB4 PUSH1 0x1 DUP1 PUSH3 0x437 JUMP JUMPDEST PUSH3 0x3D2 PUSH2 0x258 DUP3 PUSH1 0x0 PUSH1 0x64 DUP2 PUSH2 0x168 PUSH1 0x1 DUP1 PUSH3 0x437 JUMP JUMPDEST PUSH3 0x3DC PUSH3 0x6FD JUMP JUMPDEST POP POP POP POP POP PUSH3 0xDD6 JUMP JUMPDEST PUSH1 0x0 DUP1 SLOAD PUSH1 0x1 PUSH1 0x1 PUSH1 0xA0 SHL SUB DUP4 DUP2 AND PUSH1 0x1 PUSH1 0x1 PUSH1 0xA0 SHL SUB NOT DUP4 AND DUP2 OR DUP5 SSTORE PUSH1 0x40 MLOAD SWAP2 SWAP1 SWAP3 AND SWAP3 DUP4 SWAP2 PUSH32 0x8BE0079C531659141344CD1FD0A4F28419497F9722A3DAAFE3B4186F6B6457E0 SWAP2 SWAP1 LOG3 POP POP JUMP JUMPDEST PUSH1 0x0 SLOAD PUSH1 0x1 PUSH1 0x1 PUSH1 0xA0 SHL SUB AND CALLER EQ PUSH3 0x493 JUMPI PUSH1 0x40 MLOAD PUSH3 0x461BCD PUSH1 0xE5 SHL DUP2 MSTORE PUSH1 0x20 PUSH1 0x4 DUP3 ADD DUP2 SWAP1 MSTORE PUSH1 0x24 DUP3 ADD MSTORE PUSH32 0x4F776E61626C653A2063616C6C6572206973206E6F7420746865206F776E6572 PUSH1 0x44 DUP3 ADD MSTORE PUSH1 0x64 ADD PUSH3 0x141 JUMP JUMPDEST PUSH2 0x2710 DUP6 PUSH2 0xFFFF AND GT ISZERO PUSH3 0x4F6 JUMPI PUSH1 0x40 MLOAD PUSH3 0x461BCD PUSH1 0xE5 SHL DUP2 MSTORE PUSH1 0x20 PUSH1 0x4 DUP3 ADD MSTORE PUSH1 0x22 PUSH1 0x24 DUP3 ADD MSTORE PUSH32 0x7365743A206465706F736974206665652063616E277420657863656564203130 PUSH1 0x44 DUP3 ADD MSTORE PUSH2 0x2025 PUSH1 0xF0 SHL PUSH1 0x64 DUP3 ADD MSTORE PUSH1 0x84 ADD PUSH3 0x141 JUMP JUMPDEST DUP1 ISZERO PUSH3 0x507 JUMPI PUSH3 0x507 PUSH3 0x7DD JUMP JUMPDEST PUSH1 0x0 PUSH1 0x11 SLOAD NUMBER GT PUSH3 0x51C JUMPI PUSH1 0x11 SLOAD PUSH3 0x51E JUMP JUMPDEST NUMBER JUMPDEST SWAP1 POP PUSH3 0x53C DUP10 PUSH1 0x12 SLOAD PUSH3 0x80E PUSH1 0x20 SHL PUSH3 0x3078 OR SWAP1 SWAP2 SWAP1 PUSH1 0x20 SHR JUMP JUMPDEST PUSH1 0x12 DUP2 SWAP1 SSTORE POP PUSH1 0xD PUSH1 0x40 MLOAD DUP1 PUSH2 0x140 ADD PUSH1 0x40 MSTORE DUP1 DUP8 PUSH1 0x1 PUSH1 0x1 PUSH1 0xA0 SHL SUB AND DUP2 MSTORE PUSH1 0x20 ADD DUP11 PUSH1 0x1 PUSH1 0x1 PUSH1 0xA0 SHL SUB AND DUP2 MSTORE PUSH1 0x20 ADD DUP12 DUP2 MSTORE PUSH1 0x20 ADD DUP4 DUP2 MSTORE PUSH1 0x20 ADD PUSH1 0x0 DUP2 MSTORE PUSH1 0x20 ADD DUP9 PUSH2 0xFFFF AND DUP2 MSTORE PUSH1 0x20 ADD PUSH1 0x0 DUP2 MSTORE PUSH1 0x20 ADD DUP10 DUP2 MSTORE PUSH1 0x20 ADD DUP7 DUP2 MSTORE PUSH1 0x20 ADD DUP6 ISZERO ISZERO DUP2 MSTORE POP SWAP1 DUP1 PUSH1 0x1 DUP2 SLOAD ADD DUP1 DUP3 SSTORE DUP1 SWAP2 POP POP PUSH1 0x1 SWAP1 SUB SWAP1 PUSH1 0x0 MSTORE PUSH1 0x20 PUSH1 0x0 KECCAK256 SWAP1 PUSH1 0xA MUL ADD PUSH1 0x0 SWAP1 SWAP2 SWAP1 SWAP2 SWAP1 SWAP2 POP PUSH1 0x0 DUP3 ADD MLOAD DUP2 PUSH1 0x0 ADD PUSH1 0x0 PUSH2 0x100 EXP DUP2 SLOAD DUP2 PUSH1 0x1 PUSH1 0x1 PUSH1 0xA0 SHL SUB MUL NOT AND SWAP1 DUP4 PUSH1 0x1 PUSH1 0x1 PUSH1 0xA0 SHL SUB AND MUL OR SWAP1 SSTORE POP PUSH1 0x20 DUP3 ADD MLOAD DUP2 PUSH1 0x1 ADD PUSH1 0x0 PUSH2 0x100 EXP DUP2 SLOAD DUP2 PUSH1 0x1 PUSH1 0x1 PUSH1 0xA0 SHL SUB MUL NOT AND SWAP1 DUP4 PUSH1 0x1 PUSH1 0x1 PUSH1 0xA0 SHL SUB AND MUL OR SWAP1 SSTORE POP PUSH1 0x40 DUP3 ADD MLOAD DUP2 PUSH1 0x2 ADD SSTORE PUSH1 0x60 DUP3 ADD MLOAD DUP2 PUSH1 0x3 ADD SSTORE PUSH1 0x80 DUP3 ADD MLOAD DUP2 PUSH1 0x4 ADD SSTORE PUSH1 0xA0 DUP3 ADD MLOAD DUP2 PUSH1 0x5 ADD PUSH1 0x0 PUSH2 0x100 EXP DUP2 SLOAD DUP2 PUSH2 0xFFFF MUL NOT AND SWAP1 DUP4 PUSH2 0xFFFF AND MUL OR SWAP1 SSTORE POP PUSH1 0xC0 DUP3 ADD MLOAD DUP2 PUSH1 0x6 ADD SSTORE PUSH1 0xE0 DUP3 ADD MLOAD DUP2 PUSH1 0x7 ADD SSTORE PUSH2 0x100 DUP3 ADD MLOAD DUP2 PUSH1 0x8 ADD SSTORE PUSH2 0x120 DUP3 ADD MLOAD DUP2 PUSH1 0x9 ADD PUSH1 0x0 PUSH2 0x100 EXP DUP2 SLOAD DUP2 PUSH1 0xFF MUL NOT AND SWAP1 DUP4 ISZERO ISZERO MUL OR SWAP1 SSTORE POP POP POP PUSH1 0x1 PUSH1 0xD DUP1 SLOAD SWAP1 POP PUSH3 0x6BE SWAP2 SWAP1 PUSH3 0xD36 JUMP JUMPDEST PUSH1 0x40 MLOAD PUSH1 0x1 PUSH1 0x1 PUSH1 0xA0 SHL SUB DUP11 AND SWAP1 PUSH32 0xBE4222BC407CB12031595FC55B46531E46308D31E4572C9C4360D8AE790E1A31 SWAP1 PUSH1 0x0 SWAP1 LOG3 POP POP POP POP POP POP POP POP POP JUMP JUMPDEST CALLER PUSH3 0x711 PUSH1 0x0 SLOAD PUSH1 0x1 PUSH1 0x1 PUSH1 0xA0 SHL SUB AND SWAP1 JUMP JUMPDEST PUSH1 0x1 PUSH1 0x1 PUSH1 0xA0 SHL SUB AND EQ DUP1 PUSH3 0x731 JUMPI POP PUSH1 0x4 SLOAD PUSH1 0x1 PUSH1 0x1 PUSH1 0xA0 SHL SUB AND CALLER EQ JUMPDEST PUSH3 0x7A5 JUMPI PUSH1 0x40 MLOAD PUSH3 0x461BCD PUSH1 0xE5 SHL DUP2 MSTORE PUSH1 0x20 PUSH1 0x4 DUP3 ADD MSTORE PUSH1 0x35 PUSH1 0x24 DUP3 ADD MSTORE PUSH32 0x6F70657261746F723A2063616C6C6572206973206E6F7420616C6C6F77656420 PUSH1 0x44 DUP3 ADD MSTORE PUSH32 0x746F2063616C6C20746869732066756E6374696F6E0000000000000000000000 PUSH1 0x64 DUP3 ADD MSTORE PUSH1 0x84 ADD PUSH3 0x141 JUMP JUMPDEST PUSH1 0x2 DUP1 SLOAD PUSH1 0xFF NOT AND PUSH1 0x1 OR SWAP1 SSTORE PUSH1 0x40 MLOAD PUSH32 0x2C08B62BFAC9A1B19BB1DEC9323F1CE01696A77948B256ABF3603D30F25A864E SWAP1 PUSH1 0x0 SWAP1 LOG1 JUMP JUMPDEST PUSH1 0xD SLOAD PUSH1 0x0 JUMPDEST DUP2 DUP2 LT ISZERO PUSH3 0x80A JUMPI PUSH3 0x7F7 DUP2 PUSH3 0x823 JUMP JUMPDEST PUSH3 0x802 DUP2 PUSH3 0xD50 JUMP JUMPDEST SWAP1 POP PUSH3 0x7E3 JUMP JUMPDEST POP POP JUMP JUMPDEST PUSH1 0x0 PUSH3 0x81C DUP3 DUP5 PUSH3 0xCD6 JUMP JUMPDEST SWAP4 SWAP3 POP POP POP JUMP JUMPDEST PUSH1 0x0 PUSH1 0xD DUP3 DUP2 SLOAD DUP2 LT PUSH3 0x83B JUMPI PUSH3 0x83B PUSH3 0xDA7 JUMP JUMPDEST SWAP1 PUSH1 0x0 MSTORE PUSH1 0x20 PUSH1 0x0 KECCAK256 SWAP1 PUSH1 0xA MUL ADD SWAP1 POP DUP1 PUSH1 0x3 ADD SLOAD NUMBER GT PUSH3 0x85B JUMPI POP POP JUMP JUMPDEST PUSH1 0x0 PUSH3 0x868 DUP4 PUSH3 0xA7B JUMP JUMPDEST SWAP1 POP DUP1 PUSH3 0x87B JUMPI POP NUMBER PUSH1 0x3 SWAP1 SWAP2 ADD SSTORE POP JUMP JUMPDEST PUSH1 0x0 PUSH3 0x89B DUP4 PUSH1 0x3 ADD SLOAD NUMBER PUSH3 0xB6D PUSH1 0x20 SHL PUSH3 0x3084 OR SWAP1 SWAP2 SWAP1 PUSH1 0x20 SHR JUMP JUMPDEST SWAP1 POP PUSH1 0x0 PUSH3 0x8F3 PUSH1 0x12 SLOAD PUSH3 0x8DF DUP7 PUSH1 0x2 ADD SLOAD PUSH3 0x8CB PUSH1 0x10 SLOAD DUP8 PUSH3 0xB7B PUSH1 0x20 SHL PUSH3 0x3090 OR SWAP1 SWAP2 SWAP1 PUSH1 0x20 SHR JUMP JUMPDEST PUSH3 0xB7B PUSH1 0x20 SHL PUSH3 0x3090 OR SWAP1 SWAP2 SWAP1 PUSH1 0x20 SHR JUMP JUMPDEST PUSH3 0xB89 PUSH1 0x20 SHL PUSH3 0x309C OR SWAP1 SWAP2 SWAP1 PUSH1 0x20 SHR JUMP JUMPDEST SWAP1 POP PUSH3 0x926 PUSH3 0x914 PUSH1 0xA DUP4 PUSH3 0xB89 PUSH1 0x20 SHL PUSH3 0x309C OR SWAP1 SWAP2 SWAP1 PUSH1 0x20 SHR JUMP JUMPDEST PUSH3 0x920 SWAP1 DUP4 PUSH3 0xCD6 JUMP JUMPDEST PUSH3 0xB97 JUMP JUMPDEST ISZERO PUSH3 0xA25 JUMPI PUSH1 0x5 SLOAD PUSH1 0xE SLOAD PUSH1 0x1 PUSH1 0x1 PUSH1 0xA0 SHL SUB SWAP2 DUP3 AND SWAP2 PUSH4 0x40C10F19 SWAP2 AND PUSH3 0x95E DUP5 PUSH1 0xA PUSH3 0xB89 PUSH1 0x20 SWAP1 DUP2 SHL PUSH3 0x309C OR SWAP1 SHR JUMP JUMPDEST PUSH1 0x40 MLOAD PUSH1 0x1 PUSH1 0x1 PUSH1 0xE0 SHL SUB NOT PUSH1 0xE0 DUP6 SWAP1 SHL AND DUP2 MSTORE PUSH1 0x1 PUSH1 0x1 PUSH1 0xA0 SHL SUB SWAP1 SWAP3 AND PUSH1 0x4 DUP4 ADD MSTORE PUSH1 0x24 DUP3 ADD MSTORE PUSH1 0x44 ADD PUSH1 0x0 PUSH1 0x40 MLOAD DUP1 DUP4 SUB DUP2 PUSH1 0x0 DUP8 DUP1 EXTCODESIZE ISZERO DUP1 ISZERO PUSH3 0x9A5 JUMPI PUSH1 0x0 DUP1 REVERT JUMPDEST POP GAS CALL ISZERO DUP1 ISZERO PUSH3 0x9BA JUMPI RETURNDATASIZE PUSH1 0x0 DUP1 RETURNDATACOPY RETURNDATASIZE PUSH1 0x0 REVERT JUMPDEST POP POP PUSH1 0x5 SLOAD PUSH1 0x40 MLOAD PUSH4 0x40C10F19 PUSH1 0xE0 SHL DUP2 MSTORE ADDRESS PUSH1 0x4 DUP3 ADD MSTORE PUSH1 0x24 DUP2 ADD DUP6 SWAP1 MSTORE PUSH1 0x1 PUSH1 0x1 PUSH1 0xA0 SHL SUB SWAP1 SWAP2 AND SWAP3 POP PUSH4 0x40C10F19 SWAP2 POP PUSH1 0x44 ADD PUSH1 0x0 PUSH1 0x40 MLOAD DUP1 DUP4 SUB DUP2 PUSH1 0x0 DUP8 DUP1 EXTCODESIZE ISZERO DUP1 ISZERO PUSH3 0xA0B JUMPI PUSH1 0x0 DUP1 REVERT JUMPDEST POP GAS CALL ISZERO DUP1 ISZERO PUSH3 0xA20 JUMPI RETURNDATASIZE PUSH1 0x0 DUP1 RETURNDATACOPY RETURNDATASIZE PUSH1 0x0 REVERT JUMPDEST POP POP POP POP JUMPDEST PUSH3 0xA66 PUSH3 0xA4D DUP5 PUSH3 0x8DF PUSH5 0xE8D4A51000 DUP6 PUSH3 0xB7B PUSH1 0x20 SHL PUSH3 0x3090 OR SWAP1 SWAP2 SWAP1 PUSH1 0x20 SHR JUMP JUMPDEST DUP6 PUSH1 0x4 ADD SLOAD PUSH3 0x80E PUSH1 0x20 SHL PUSH3 0x3078 OR SWAP1 SWAP2 SWAP1 PUSH1 0x20 SHR JUMP JUMPDEST PUSH1 0x4 DUP6 ADD SSTORE POP POP NUMBER PUSH1 0x3 SWAP1 SWAP3 ADD SWAP2 SWAP1 SWAP2 SSTORE POP POP JUMP JUMPDEST PUSH1 0x0 DUP1 PUSH1 0xD DUP4 DUP2 SLOAD DUP2 LT PUSH3 0xA94 JUMPI PUSH3 0xA94 PUSH3 0xDA7 JUMP JUMPDEST PUSH1 0x0 SWAP2 DUP3 MSTORE PUSH1 0x20 DUP3 KECCAK256 PUSH1 0x5 SLOAD PUSH1 0xA SWAP3 SWAP1 SWAP3 MUL ADD PUSH1 0x1 DUP2 ADD SLOAD SWAP1 SWAP4 POP PUSH1 0x1 PUSH1 0x1 PUSH1 0xA0 SHL SUB SWAP2 DUP3 AND SWAP2 AND EQ DUP1 PUSH3 0xAD2 JUMPI POP DUP2 SLOAD PUSH1 0x1 PUSH1 0x1 PUSH1 0xA0 SHL SUB AND ISZERO ISZERO JUMPDEST ISZERO PUSH3 0xAE4 JUMPI POP PUSH1 0x6 DUP2 ADD SLOAD PUSH3 0x81C JUMP JUMPDEST PUSH1 0x1 DUP3 ADD SLOAD PUSH1 0x40 MLOAD PUSH4 0x70A08231 PUSH1 0xE0 SHL DUP2 MSTORE ADDRESS PUSH1 0x4 DUP3 ADD MSTORE PUSH1 0x1 PUSH1 0x1 PUSH1 0xA0 SHL SUB SWAP1 SWAP2 AND SWAP1 PUSH4 0x70A08231 SWAP1 PUSH1 0x24 ADD PUSH1 0x20 PUSH1 0x40 MLOAD DUP1 DUP4 SUB DUP2 DUP7 DUP1 EXTCODESIZE ISZERO DUP1 ISZERO PUSH3 0xB2A JUMPI PUSH1 0x0 DUP1 REVERT JUMPDEST POP GAS STATICCALL ISZERO DUP1 ISZERO PUSH3 0xB3F JUMPI RETURNDATASIZE PUSH1 0x0 DUP1 RETURNDATACOPY RETURNDATASIZE PUSH1 0x0 REVERT JUMPDEST POP POP POP POP PUSH1 0x40 MLOAD RETURNDATASIZE PUSH1 0x1F NOT PUSH1 0x1F DUP3 ADD AND DUP3 ADD DUP1 PUSH1 0x40 MSTORE POP DUP2 ADD SWAP1 PUSH3 0xB65 SWAP2 SWAP1 PUSH3 0xCBC JUMP JUMPDEST SWAP5 SWAP4 POP POP POP POP JUMP JUMPDEST PUSH1 0x0 PUSH3 0x81C DUP3 DUP5 PUSH3 0xD36 JUMP JUMPDEST PUSH1 0x0 PUSH3 0x81C DUP3 DUP5 PUSH3 0xD14 JUMP JUMPDEST PUSH1 0x0 PUSH3 0x81C DUP3 DUP5 PUSH3 0xCF1 JUMP JUMPDEST PUSH1 0x5 SLOAD PUSH1 0x40 MLOAD PUSH4 0x69372B3 PUSH1 0xE4 SHL DUP2 MSTORE PUSH1 0x4 DUP2 ADD DUP4 SWAP1 MSTORE PUSH1 0x0 SWAP2 PUSH1 0x1 PUSH1 0x1 PUSH1 0xA0 SHL SUB AND SWAP1 PUSH4 0x69372B30 SWAP1 PUSH1 0x24 ADD PUSH1 0x20 PUSH1 0x40 MLOAD DUP1 DUP4 SUB DUP2 DUP7 DUP1 EXTCODESIZE ISZERO DUP1 ISZERO PUSH3 0xBDD JUMPI PUSH1 0x0 DUP1 REVERT JUMPDEST POP GAS STATICCALL ISZERO DUP1 ISZERO PUSH3 0xBF2 JUMPI RETURNDATASIZE PUSH1 0x0 DUP1 RETURNDATACOPY RETURNDATASIZE PUSH1 0x0 REVERT JUMPDEST POP POP POP POP PUSH1 0x40 MLOAD RETURNDATASIZE PUSH1 0x1F NOT PUSH1 0x1F DUP3 ADD AND DUP3 ADD DUP1 PUSH1 0x40 MSTORE POP DUP2 ADD SWAP1 PUSH3 0xC18 SWAP2 SWAP1 PUSH3 0xC3E JUMP JUMPDEST SWAP3 SWAP2 POP POP JUMP JUMPDEST PUSH1 0x0 PUSH1 0x20 DUP3 DUP5 SUB SLT ISZERO PUSH3 0xC31 JUMPI PUSH1 0x0 DUP1 REVERT JUMPDEST DUP2 MLOAD PUSH3 0x81C DUP2 PUSH3 0xDBD JUMP JUMPDEST PUSH1 0x0 PUSH1 0x20 DUP3 DUP5 SUB SLT ISZERO PUSH3 0xC51 JUMPI PUSH1 0x0 DUP1 REVERT JUMPDEST DUP2 MLOAD DUP1 ISZERO ISZERO DUP2 EQ PUSH3 0x81C JUMPI PUSH1 0x0 DUP1 REVERT JUMPDEST PUSH1 0x0 DUP1 PUSH1 0x0 DUP1 PUSH1 0x80 DUP6 DUP8 SUB SLT ISZERO PUSH3 0xC79 JUMPI PUSH1 0x0 DUP1 REVERT JUMPDEST DUP5 MLOAD PUSH3 0xC86 DUP2 PUSH3 0xDBD JUMP JUMPDEST PUSH1 0x20 DUP7 ADD MLOAD SWAP1 SWAP5 POP PUSH3 0xC99 DUP2 PUSH3 0xDBD JUMP JUMPDEST PUSH1 0x40 DUP7 ADD MLOAD SWAP1 SWAP4 POP PUSH3 0xCAC DUP2 PUSH3 0xDBD JUMP JUMPDEST PUSH1 0x60 SWAP6 SWAP1 SWAP6 ADD MLOAD SWAP4 SWAP7 SWAP3 SWAP6 POP POP POP JUMP JUMPDEST PUSH1 0x0 PUSH1 0x20 DUP3 DUP5 SUB SLT ISZERO PUSH3 0xCCF JUMPI PUSH1 0x0 DUP1 REVERT JUMPDEST POP MLOAD SWAP2 SWAP1 POP JUMP JUMPDEST PUSH1 0x0 DUP3 NOT DUP3 GT ISZERO PUSH3 0xCEC JUMPI PUSH3 0xCEC PUSH3 0xD91 JUMP JUMPDEST POP ADD SWAP1 JUMP JUMPDEST PUSH1 0x0 DUP3 PUSH3 0xD0F JUMPI PUSH4 0x4E487B71 PUSH1 0xE0 SHL PUSH1 0x0 MSTORE PUSH1 0x12 PUSH1 0x4 MSTORE PUSH1 0x24 PUSH1 0x0 REVERT JUMPDEST POP DIV SWAP1 JUMP JUMPDEST PUSH1 0x0 DUP2 PUSH1 0x0 NOT DIV DUP4 GT DUP3 ISZERO ISZERO AND ISZERO PUSH3 0xD31 JUMPI PUSH3 0xD31 PUSH3 0xD91 JUMP JUMPDEST POP MUL SWAP1 JUMP JUMPDEST PUSH1 0x0 DUP3 DUP3 LT ISZERO PUSH3 0xD4B JUMPI PUSH3 0xD4B PUSH3 0xD91 JUMP JUMPDEST POP SUB SWAP1 JUMP JUMPDEST PUSH1 0x0 PUSH1 0x0 NOT DUP3 EQ ISZERO PUSH3 0xD67 JUMPI PUSH3 0xD67 PUSH3 0xD91 JUMP JUMPDEST POP PUSH1 0x1 ADD SWAP1 JUMP JUMPDEST PUSH1 0x0 PUSH1 0xFF DUP3 AND PUSH1 0xFF DUP2 EQ ISZERO PUSH3 0xD88 JUMPI PUSH3 0xD88 PUSH3 0xD91 JUMP JUMPDEST PUSH1 0x1 ADD SWAP3 SWAP2 POP POP JUMP JUMPDEST PUSH4 0x4E487B71 PUSH1 0xE0 SHL PUSH1 0x0 MSTORE PUSH1 0x11 PUSH1 0x4 MSTORE PUSH1 0x24 PUSH1 0x0 REVERT JUMPDEST PUSH4 0x4E487B71 PUSH1 0xE0 SHL PUSH1 0x0 MSTORE PUSH1 0x32 PUSH1 0x4 MSTORE PUSH1 0x24 PUSH1 0x0 REVERT JUMPDEST PUSH1 0x1 PUSH1 0x1 PUSH1 0xA0 SHL SUB DUP2 AND DUP2 EQ PUSH3 0xDD3 JUMPI PUSH1 0x0 DUP1 REVERT JUMPDEST POP JUMP JUMPDEST PUSH2 0x40E5 DUP1 PUSH3 0xDE6 PUSH1 0x0 CODECOPY PUSH1 0x0 RETURN INVALID PUSH1 0x80 PUSH1 0x40 MSTORE CALLVALUE DUP1 ISZERO PUSH2 0x10 JUMPI PUSH1 0x0 DUP1 REVERT JUMPDEST POP PUSH1 0x4 CALLDATASIZE LT PUSH2 0x378 JUMPI PUSH1 0x0 CALLDATALOAD PUSH1 0xE0 SHR DUP1 PUSH4 0x82E46B75 GT PUSH2 0x1D3 JUMPI DUP1 PUSH4 0xA6BE46AA GT PUSH2 0x104 JUMPI DUP1 PUSH4 0xE6C1E89C GT PUSH2 0xA2 JUMPI DUP1 PUSH4 0xF0C44502 GT PUSH2 0x7C JUMPI DUP1 PUSH4 0xF0C44502 EQ PUSH2 0x792 JUMPI DUP1 PUSH4 0xF2FDE38B EQ PUSH2 0x7A5 JUMPI DUP1 PUSH4 0xF4762FD6 EQ PUSH2 0x7B8 JUMPI DUP1 PUSH4 0xF98080C0 EQ PUSH2 0x7C0 JUMPI PUSH1 0x0 DUP1 REVERT JUMPDEST DUP1 PUSH4 0xE6C1E89C EQ PUSH2 0x763 JUMPI DUP1 PUSH4 0xE9A52B67 EQ PUSH2 0x776 JUMPI DUP1 PUSH4 0xEDC23F96 EQ PUSH2 0x789 JUMPI PUSH1 0x0 DUP1 REVERT JUMPDEST DUP1 PUSH4 0xD0D41FE1 GT PUSH2 0xDE JUMPI DUP1 PUSH4 0xD0D41FE1 EQ PUSH2 0x711 JUMPI DUP1 PUSH4 0xD936547E EQ PUSH2 0x724 JUMPI DUP1 PUSH4 0xDA201248 EQ PUSH2 0x747 JUMPI DUP1 PUSH4 0xE2BBB158 EQ PUSH2 0x750 JUMPI PUSH1 0x0 DUP1 REVERT JUMPDEST DUP1 PUSH4 0xA6BE46AA EQ PUSH2 0x6E3 JUMPI DUP1 PUSH4 0xA8B39EEE EQ PUSH2 0x6EB JUMPI DUP1 PUSH4 0xCA4164F9 EQ PUSH2 0x6FE JUMPI PUSH1 0x0 DUP1 REVERT JUMPDEST DUP1 PUSH4 0x9B4DC8CC GT PUSH2 0x171 JUMPI DUP1 PUSH4 0x9FBE42E3 GT PUSH2 0x14B JUMPI DUP1 PUSH4 0x9FBE42E3 EQ PUSH2 0x69D JUMPI DUP1 PUSH4 0xA347511A EQ PUSH2 0x6B0 JUMPI DUP1 PUSH4 0xA3F30D27 EQ PUSH2 0x6BD JUMPI DUP1 PUSH4 0xA607494A EQ PUSH2 0x6D0 JUMPI PUSH1 0x0 DUP1 REVERT JUMPDEST DUP1 PUSH4 0x9B4DC8CC EQ PUSH2 0x66E JUMPI DUP1 PUSH4 0x9EED5B33 EQ PUSH2 0x681 JUMPI DUP1 PUSH4 0x9F531156 EQ PUSH2 0x68A JUMPI PUSH1 0x0 DUP1 REVERT JUMPDEST DUP1 PUSH4 0x8DA5CB5B GT PUSH2 0x1AD JUMPI DUP1 PUSH4 0x8DA5CB5B EQ PUSH2 0x626 JUMPI DUP1 PUSH4 0x94D45B59 EQ PUSH2 0x637 JUMPI DUP1 PUSH4 0x97E78494 EQ PUSH2 0x64A JUMPI DUP1 PUSH4 0x9850D32B EQ PUSH2 0x65D JUMPI PUSH1 0x0 DUP1 REVERT JUMPDEST DUP1 PUSH4 0x82E46B75 EQ PUSH2 0x5B5 JUMPI DUP1 PUSH4 0x87370846 EQ PUSH2 0x5C8 JUMPI DUP1 PUSH4 0x8CA20689 EQ PUSH2 0x61D JUMPI PUSH1 0x0 DUP1 REVERT JUMPDEST DUP1 PUSH4 0x441A3E70 GT PUSH2 0x2AD JUMPI DUP1 PUSH4 0x630B5BA1 GT PUSH2 0x24B JUMPI DUP1 PUSH4 0x689D84E4 GT PUSH2 0x225 JUMPI DUP1 PUSH4 0x689D84E4 EQ PUSH2 0x523 JUMPI DUP1 PUSH4 0x6E0C9F0A EQ PUSH2 0x591 JUMPI DUP1 PUSH4 0x715018A6 EQ PUSH2 0x5A4 JUMPI DUP1 PUSH4 0x7BA71C55 EQ PUSH2 0x5AC JUMPI PUSH1 0x0 DUP1 REVERT JUMPDEST DUP1 PUSH4 0x630B5BA1 EQ PUSH2 0x50A JUMPI DUP1 PUSH4 0x65A2D701 EQ PUSH2 0x512 JUMPI DUP1 PUSH4 0x673A7E28 EQ PUSH2 0x51B JUMPI PUSH1 0x0 DUP1 REVERT JUMPDEST DUP1 PUSH4 0x51EB05A6 GT PUSH2 0x287 JUMPI DUP1 PUSH4 0x51EB05A6 EQ PUSH2 0x4B0 JUMPI DUP1 PUSH4 0x57320251 EQ PUSH2 0x4C3 JUMPI DUP1 PUSH4 0x575B789C EQ PUSH2 0x4E4 JUMPI DUP1 PUSH4 0x5ECBBF98 EQ PUSH2 0x4F7 JUMPI PUSH1 0x0 DUP1 REVERT JUMPDEST DUP1 PUSH4 0x441A3E70 EQ PUSH2 0x48C JUMPI DUP1 PUSH4 0x48CD4CB1 EQ PUSH2 0x49F JUMPI DUP1 PUSH4 0x4B94F50E EQ PUSH2 0x4A8 JUMPI PUSH1 0x0 DUP1 REVERT JUMPDEST DUP1 PUSH4 0x29465D42 GT PUSH2 0x31A JUMPI DUP1 PUSH4 0x3AD10EF6 GT PUSH2 0x2F4 JUMPI DUP1 PUSH4 0x3AD10EF6 EQ PUSH2 0x455 JUMPI DUP1 PUSH4 0x3E82211C EQ PUSH2 0x468 JUMPI DUP1 PUSH4 0x41275358 EQ PUSH2 0x471 JUMPI DUP1 PUSH4 0x437F660E EQ PUSH2 0x484 JUMPI PUSH1 0x0 DUP1 REVERT JUMPDEST DUP1 PUSH4 0x29465D42 EQ PUSH2 0x40C JUMPI DUP1 PUSH4 0x34C434E4 EQ PUSH2 0x42F JUMPI DUP1 PUSH4 0x379607F5 EQ PUSH2 0x442 JUMPI PUSH1 0x0 DUP1 REVERT JUMPDEST DUP1 PUSH4 0x13EA5D29 GT PUSH2 0x356 JUMPI DUP1 PUSH4 0x13EA5D29 EQ PUSH2 0x3D4 JUMPI DUP1 PUSH4 0x17CAF6F1 EQ PUSH2 0x3E7 JUMPI DUP1 PUSH4 0x262917D9 EQ PUSH2 0x3F0 JUMPI DUP1 PUSH4 0x27DE1947 EQ PUSH2 0x403 JUMPI PUSH1 0x0 DUP1 REVERT JUMPDEST DUP1 PUSH4 0x81E3EDA EQ PUSH2 0x37D JUMPI DUP1 PUSH4 0xBA84CD2 EQ PUSH2 0x394 JUMPI DUP1 PUSH4 0x11DF9995 EQ PUSH2 0x3A9 JUMPI JUMPDEST PUSH1 0x0 DUP1 REVERT JUMPDEST PUSH1 0xD SLOAD JUMPDEST PUSH1 0x40 MLOAD SWAP1 DUP2 MSTORE PUSH1 0x20 ADD JUMPDEST PUSH1 0x40 MLOAD DUP1 SWAP2 SUB SWAP1 RETURN JUMPDEST PUSH2 0x3A7 PUSH2 0x3A2 CALLDATASIZE PUSH1 0x4 PUSH2 0x3A6F JUMP JUMPDEST PUSH2 0x7EB JUMP JUMPDEST STOP JUMPDEST PUSH1 0x5 SLOAD PUSH2 0x3BC SWAP1 PUSH1 0x1 PUSH1 0x1 PUSH1 0xA0 SHL SUB AND DUP2 JUMP JUMPDEST PUSH1 0x40 MLOAD PUSH1 0x1 PUSH1 0x1 PUSH1 0xA0 SHL SUB SWAP1 SWAP2 AND DUP2 MSTORE PUSH1 0x20 ADD PUSH2 0x38B JUMP JUMPDEST PUSH2 0x3A7 PUSH2 0x3E2 CALLDATASIZE PUSH1 0x4 PUSH2 0x3834 JUMP JUMPDEST PUSH2 0x944 JUMP JUMPDEST PUSH2 0x381 PUSH1 0x12 SLOAD DUP2 JUMP JUMPDEST PUSH2 0x3A7 PUSH2 0x3FE CALLDATASIZE PUSH1 0x4 PUSH2 0x3BA5 JUMP JUMPDEST PUSH2 0xB6A JUMP JUMPDEST PUSH2 0x381 PUSH1 0x8 SLOAD DUP2 JUMP JUMPDEST PUSH2 0x41F PUSH2 0x41A CALLDATASIZE PUSH1 0x4 PUSH2 0x3A6F JUMP JUMPDEST PUSH2 0xDE8 JUMP JUMPDEST PUSH1 0x40 MLOAD SWAP1 ISZERO ISZERO DUP2 MSTORE PUSH1 0x20 ADD PUSH2 0x38B JUMP JUMPDEST PUSH2 0x3A7 PUSH2 0x43D CALLDATASIZE PUSH1 0x4 PUSH2 0x38F8 JUMP JUMPDEST PUSH2 0xE6B JUMP JUMPDEST PUSH2 0x3A7 PUSH2 0x450 CALLDATASIZE PUSH1 0x4 PUSH2 0x3A6F JUMP JUMPDEST PUSH2 0xEBD JUMP JUMPDEST PUSH1 0xE SLOAD PUSH2 0x3BC SWAP1 PUSH1 0x1 PUSH1 0x1 PUSH1 0xA0 SHL SUB AND DUP2 JUMP JUMPDEST PUSH2 0x381 PUSH1 0x15 SLOAD DUP2 JUMP JUMPDEST PUSH1 0xF SLOAD PUSH2 0x3BC SWAP1 PUSH1 0x1 PUSH1 0x1 PUSH1 0xA0 SHL SUB AND DUP2 JUMP JUMPDEST PUSH2 0x3A7 PUSH2 0x1065 JUMP JUMPDEST PUSH2 0x3A7 PUSH2 0x49A CALLDATASIZE PUSH1 0x4 PUSH2 0x3931 JUMP JUMPDEST PUSH2 0x11BB JUMP JUMPDEST PUSH2 0x381 PUSH1 0x11 SLOAD DUP2 JUMP JUMPDEST PUSH2 0x381 PUSH2 0x14D9 JUMP JUMPDEST PUSH2 0x3A7 PUSH2 0x4BE CALLDATASIZE PUSH1 0x4 PUSH2 0x3A6F JUMP JUMPDEST PUSH2 0x1940 JUMP JUMPDEST PUSH1 0x16 SLOAD PUSH2 0x4D1 SWAP1 PUSH2 0xFFFF AND DUP2 JUMP JUMPDEST PUSH1 0x40 MLOAD PUSH2 0xFFFF SWAP1 SWAP2 AND DUP2 MSTORE PUSH1 0x20 ADD PUSH2 0x38B JUMP JUMPDEST PUSH2 0x381 PUSH2 0x4F2 CALLDATASIZE PUSH1 0x4 PUSH2 0x386E JUMP JUMPDEST PUSH2 0x1B13 JUMP JUMPDEST PUSH2 0x381 PUSH2 0x505 CALLDATASIZE PUSH1 0x4 PUSH2 0x3A6F JUMP JUMPDEST PUSH2 0x1D9E JUMP JUMPDEST PUSH2 0x3A7 PUSH2 0x1E86 JUMP JUMPDEST PUSH2 0x381 PUSH1 0x9 SLOAD DUP2 JUMP JUMPDEST PUSH2 0x3A7 PUSH2 0x1EAD JUMP JUMPDEST PUSH2 0x536 PUSH2 0x531 CALLDATASIZE PUSH1 0x4 PUSH2 0x3A6F JUMP JUMPDEST PUSH2 0x1EB5 JUMP JUMPDEST PUSH1 0x40 DUP1 MLOAD PUSH1 0x1 PUSH1 0x1 PUSH1 0xA0 SHL SUB SWAP12 DUP13 AND DUP2 MSTORE SWAP11 SWAP1 SWAP10 AND PUSH1 0x20 DUP12 ADD MSTORE SWAP8 DUP10 ADD SWAP7 SWAP1 SWAP7 MSTORE PUSH1 0x60 DUP9 ADD SWAP5 SWAP1 SWAP5 MSTORE PUSH1 0x80 DUP8 ADD SWAP3 SWAP1 SWAP3 MSTORE PUSH2 0xFFFF AND PUSH1 0xA0 DUP7 ADD MSTORE PUSH1 0xC0 DUP6 ADD MSTORE PUSH1 0xE0 DUP5 ADD MSTORE PUSH2 0x100 DUP4 ADD MSTORE ISZERO ISZERO PUSH2 0x120 DUP3 ADD MSTORE PUSH2 0x140 ADD PUSH2 0x38B JUMP JUMPDEST PUSH2 0x381 PUSH2 0x59F CALLDATASIZE PUSH1 0x4 PUSH2 0x3A6F JUMP JUMPDEST PUSH2 0x1F2E JUMP JUMPDEST PUSH2 0x3A7 PUSH2 0x1F4F JUMP JUMPDEST PUSH2 0x381 PUSH1 0x13 SLOAD DUP2 JUMP JUMPDEST PUSH2 0x3A7 PUSH2 0x5C3 CALLDATASIZE PUSH1 0x4 PUSH2 0x3834 JUMP JUMPDEST PUSH2 0x1F83 JUMP JUMPDEST PUSH2 0x602 PUSH2 0x5D6 CALLDATASIZE PUSH1 0x4 PUSH2 0x3AA1 JUMP JUMPDEST PUSH1 0xC PUSH1 0x20 SWAP1 DUP2 MSTORE PUSH1 0x0 SWAP3 DUP4 MSTORE PUSH1 0x40 DUP1 DUP5 KECCAK256 SWAP1 SWAP2 MSTORE SWAP1 DUP3 MSTORE SWAP1 KECCAK256 DUP1 SLOAD PUSH1 0x1 DUP3 ADD SLOAD PUSH1 0x2 SWAP1 SWAP3 ADD SLOAD SWAP1 SWAP2 SWAP1 DUP4 JUMP JUMPDEST PUSH1 0x40 DUP1 MLOAD SWAP4 DUP5 MSTORE PUSH1 0x20 DUP5 ADD SWAP3 SWAP1 SWAP3 MSTORE SWAP1 DUP3 ADD MSTORE PUSH1 0x60 ADD PUSH2 0x38B JUMP JUMPDEST PUSH2 0x381 PUSH1 0xB SLOAD DUP2 JUMP JUMPDEST PUSH1 0x0 SLOAD PUSH1 0x1 PUSH1 0x1 PUSH1 0xA0 SHL SUB AND PUSH2 0x3BC JUMP JUMPDEST PUSH2 0x381 PUSH2 0x645 CALLDATASIZE PUSH1 0x4 PUSH2 0x38AF JUMP JUMPDEST PUSH2 0x2251 JUMP JUMPDEST PUSH2 0x3A7 PUSH2 0x658 CALLDATASIZE PUSH1 0x4 PUSH2 0x3AEB JUMP JUMPDEST PUSH2 0x234A JUMP JUMPDEST PUSH1 0x4 SLOAD PUSH1 0x1 PUSH1 0x1 PUSH1 0xA0 SHL SUB AND PUSH2 0x3BC JUMP JUMPDEST PUSH1 0x6 SLOAD PUSH2 0x3BC SWAP1 PUSH1 0x1 PUSH1 0x1 PUSH1 0xA0 SHL SUB AND DUP2 JUMP JUMPDEST PUSH2 0x381 PUSH1 0x10 SLOAD DUP2 JUMP JUMPDEST PUSH2 0x3A7 PUSH2 0x698 CALLDATASIZE PUSH1 0x4 PUSH2 0x3953 JUMP JUMPDEST PUSH2 0x258C JUMP JUMPDEST PUSH2 0x381 PUSH2 0x6AB CALLDATASIZE PUSH1 0x4 PUSH2 0x3A6F JUMP JUMPDEST PUSH2 0x25FF JUMP JUMPDEST PUSH1 0x2 SLOAD PUSH2 0x41F SWAP1 PUSH1 0xFF AND DUP2 JUMP JUMPDEST PUSH2 0x3A7 PUSH2 0x6CB CALLDATASIZE PUSH1 0x4 PUSH2 0x3B77 JUMP JUMPDEST PUSH2 0x26CC JUMP JUMPDEST PUSH2 0x3A7 PUSH2 0x6DE CALLDATASIZE PUSH1 0x4 PUSH2 0x3953 JUMP JUMPDEST PUSH2 0x2799 JUMP JUMPDEST PUSH2 0x381 PUSH2 0x2876 JUMP JUMPDEST PUSH2 0x3A7 PUSH2 0x6F9 CALLDATASIZE PUSH1 0x4 PUSH2 0x3A6F JUMP JUMPDEST PUSH2 0x2923 JUMP JUMPDEST PUSH2 0x381 PUSH2 0x70C CALLDATASIZE PUSH1 0x4 PUSH2 0x3AC6 JUMP JUMPDEST PUSH2 0x2B62 JUMP JUMPDEST PUSH2 0x3A7 PUSH2 0x71F CALLDATASIZE PUSH1 0x4 PUSH2 0x3834 JUMP JUMPDEST PUSH2 0x2BA4 JUMP JUMPDEST PUSH2 0x41F PUSH2 0x732 CALLDATASIZE PUSH1 0x4 PUSH2 0x3834 JUMP JUMPDEST PUSH1 0x17 PUSH1 0x20 MSTORE PUSH1 0x0 SWAP1 DUP2 MSTORE PUSH1 0x40 SWAP1 KECCAK256 SLOAD PUSH1 0xFF AND DUP2 JUMP JUMPDEST PUSH2 0x381 PUSH1 0xA SLOAD DUP2 JUMP JUMPDEST PUSH2 0x3A7 PUSH2 0x75E CALLDATASIZE PUSH1 0x4 PUSH2 0x3931 JUMP JUMPDEST PUSH2 0x2D57 JUMP JUMPDEST PUSH2 0x381 PUSH2 0x771 CALLDATASIZE PUSH1 0x4 PUSH2 0x3931 JUMP JUMPDEST PUSH2 0x2D92 JUMP JUMPDEST PUSH2 0x381 PUSH2 0x784 CALLDATASIZE PUSH1 0x4 PUSH2 0x3AA1 JUMP JUMPDEST PUSH2 0x2DD8 JUMP JUMPDEST PUSH2 0x381 PUSH1 0x14 SLOAD DUP2 JUMP JUMPDEST PUSH2 0x3A7 PUSH2 0x7A0 CALLDATASIZE PUSH1 0x4 PUSH2 0x3A54 JUMP JUMPDEST PUSH2 0x2EE0 JUMP JUMPDEST PUSH2 0x3A7 PUSH2 0x7B3 CALLDATASIZE PUSH1 0x4 PUSH2 0x3834 JUMP JUMPDEST PUSH2 0x2F57 JUMP JUMPDEST PUSH2 0x3A7 PUSH2 0x2FF2 JUMP JUMPDEST PUSH2 0x381 PUSH2 0x7CE CALLDATASIZE PUSH1 0x4 PUSH2 0x3953 JUMP JUMPDEST DUP1 MLOAD PUSH1 0x20 DUP2 DUP4 ADD DUP2 ADD DUP1 MLOAD PUSH1 0x3 DUP3 MSTORE SWAP3 DUP3 ADD SWAP2 SWAP1 SWAP4 ADD KECCAK256 SWAP2 MSTORE SLOAD DUP2 JUMP JUMPDEST PUSH1 0x0 SLOAD PUSH1 0x1 PUSH1 0x1 PUSH1 0xA0 SHL SUB AND CALLER EQ PUSH2 0x81E JUMPI PUSH1 0x40 MLOAD PUSH3 0x461BCD PUSH1 0xE5 SHL DUP2 MSTORE PUSH1 0x4 ADD PUSH2 0x815 SWAP1 PUSH2 0x3C7C JUMP JUMPDEST PUSH1 0x40 MLOAD DUP1 SWAP2 SUB SWAP1 REVERT JUMPDEST PUSH1 0x40 DUP1 MLOAD DUP1 DUP3 ADD SWAP1 SWAP2 MSTORE PUSH1 0x12 DUP2 MSTORE PUSH18 0x757064617465456D697373696F6E52617465 PUSH1 0x70 SHL PUSH1 0x20 DUP3 ADD MSTORE PUSH1 0x2 SLOAD PUSH1 0xFF AND ISZERO DUP1 PUSH2 0x8D9 JUMPI POP PUSH1 0x3 DUP2 PUSH1 0x40 MLOAD PUSH2 0x864 SWAP2 SWAP1 PUSH2 0x3C2D JUMP JUMPDEST SWAP1 DUP2 MSTORE PUSH1 0x20 ADD PUSH1 0x40 MLOAD DUP1 SWAP2 SUB SWAP1 KECCAK256 SLOAD PUSH1 0x0 EQ ISZERO DUP1 ISZERO PUSH2 0x8A1 JUMPI POP TIMESTAMP PUSH1 0x3 DUP3 PUSH1 0x40 MLOAD PUSH2 0x88F SWAP2 SWAP1 PUSH2 0x3C2D JUMP JUMPDEST SWAP1 DUP2 MSTORE PUSH1 0x20 ADD PUSH1 0x40 MLOAD DUP1 SWAP2 SUB SWAP1 KECCAK256 SLOAD GT ISZERO JUMPDEST DUP1 ISZERO PUSH2 0x8D9 JUMPI POP TIMESTAMP PUSH3 0x15180 PUSH1 0x3 DUP4 PUSH1 0x40 MLOAD PUSH2 0x8BD SWAP2 SWAP1 PUSH2 0x3C2D JUMP JUMPDEST SWAP1 DUP2 MSTORE PUSH1 0x20 ADD PUSH1 0x40 MLOAD DUP1 SWAP2 SUB SWAP1 KECCAK256 SLOAD PUSH2 0x8D6 SWAP2 SWAP1 PUSH2 0x3DAB JUMP JUMPDEST LT ISZERO JUMPDEST PUSH2 0x8F5 JUMPI PUSH1 0x40 MLOAD PUSH3 0x461BCD PUSH1 0xE5 SHL DUP2 MSTORE PUSH1 0x4 ADD PUSH2 0x815 SWAP1 PUSH2 0x3CB1 JUMP JUMPDEST PUSH2 0x8FD PUSH2 0x1E86 JUMP JUMPDEST PUSH1 0x10 DUP3 SWAP1 SSTORE PUSH1 0x40 MLOAD DUP3 DUP2 MSTORE CALLER SWAP1 PUSH32 0xE2492E003BBE8AFA53088B406F0C1CB5D9E280370FC72A74CF116FFD343C4053 SWAP1 PUSH1 0x20 ADD PUSH1 0x40 MLOAD DUP1 SWAP2 SUB SWAP1 LOG2 PUSH2 0x940 DUP2 PUSH2 0x258C JUMP JUMPDEST POP POP JUMP JUMPDEST CALLER PUSH2 0x957 PUSH1 0x0 SLOAD PUSH1 0x1 PUSH1 0x1 PUSH1 0xA0 SHL SUB AND SWAP1 JUMP JUMPDEST PUSH1 0x1 PUSH1 0x1 PUSH1 0xA0 SHL SUB AND EQ DUP1 PUSH2 0x976 JUMPI POP PUSH1 0x4 SLOAD PUSH1 0x1 PUSH1 0x1 PUSH1 0xA0 SHL SUB AND CALLER EQ JUMPDEST PUSH2 0x992 JUMPI PUSH1 0x40 MLOAD PUSH3 0x461BCD PUSH1 0xE5 SHL DUP2 MSTORE PUSH1 0x4 ADD PUSH2 0x815 SWAP1 PUSH2 0x3CDD JUMP JUMPDEST PUSH1 0x40 DUP1 MLOAD DUP1 DUP3 ADD SWAP1 SWAP2 MSTORE PUSH1 0xA DUP2 MSTORE PUSH10 0x36B0B4B73A30B4B732B9 PUSH1 0xB1 SHL PUSH1 0x20 DUP3 ADD MSTORE PUSH1 0x2 SLOAD PUSH1 0xFF AND ISZERO DUP1 PUSH2 0xA45 JUMPI POP PUSH1 0x3 DUP2 PUSH1 0x40 MLOAD PUSH2 0x9D0 SWAP2 SWAP1 PUSH2 0x3C2D JUMP JUMPDEST SWAP1 DUP2 MSTORE PUSH1 0x20 ADD PUSH1 0x40 MLOAD DUP1 SWAP2 SUB SWAP1 KECCAK256 SLOAD PUSH1 0x0 EQ ISZERO DUP1 ISZERO PUSH2 0xA0D JUMPI POP TIMESTAMP PUSH1 0x3 DUP3 PUSH1 0x40 MLOAD PUSH2 0x9FB SWAP2 SWAP1 PUSH2 0x3C2D JUMP JUMPDEST SWAP1 DUP2 MSTORE PUSH1 0x20 ADD PUSH1 0x40 MLOAD DUP1 SWAP2 SUB SWAP1 KECCAK256 SLOAD GT ISZERO JUMPDEST DUP1 ISZERO PUSH2 0xA45 JUMPI POP TIMESTAMP PUSH3 0x15180 PUSH1 0x3 DUP4 PUSH1 0x40 MLOAD PUSH2 0xA29 SWAP2 SWAP1 PUSH2 0x3C2D JUMP JUMPDEST SWAP1 DUP2 MSTORE PUSH1 0x20 ADD PUSH1 0x40 MLOAD DUP1 SWAP2 SUB SWAP1 KECCAK256 SLOAD PUSH2 0xA42 SWAP2 SWAP1 PUSH2 0x3DAB JUMP JUMPDEST LT ISZERO JUMPDEST PUSH2 0xA61 JUMPI PUSH1 0x40 MLOAD PUSH3 0x461BCD PUSH1 0xE5 SHL DUP2 MSTORE PUSH1 0x4 ADD PUSH2 0x815 SWAP1 PUSH2 0x3CB1 JUMP JUMPDEST PUSH1 0x4 SLOAD PUSH1 0x1 PUSH1 0x1 PUSH1 0xA0 SHL SUB DUP4 DUP2 AND SWAP2 AND EQ DUP1 ISZERO SWAP1 PUSH2 0xA87 JUMPI POP PUSH1 0x1 PUSH1 0x1 PUSH1 0xA0 SHL SUB DUP3 AND ISZERO ISZERO JUMPDEST PUSH2 0xB12 JUMPI PUSH1 0x40 MLOAD PUSH3 0x461BCD PUSH1 0xE5 SHL DUP2 MSTORE PUSH1 0x20 PUSH1 0x4 DUP3 ADD MSTORE PUSH1 0x50 PUSH1 0x24 DUP3 ADD MSTORE PUSH32 0x41424F41543A3A7365744D61696E7461696E65723A204D61696E7461696E6572 PUSH1 0x44 DUP3 ADD MSTORE PUSH32 0x2063616E277420657175616C2070726576696F7573206D61696E7461696E6572 PUSH1 0x64 DUP3 ADD MSTORE PUSH16 0x206F72207A65726F2061646472657373 PUSH1 0x80 SHL PUSH1 0x84 DUP3 ADD MSTORE PUSH1 0xA4 ADD PUSH2 0x815 JUMP JUMPDEST PUSH1 0x4 DUP1 SLOAD PUSH1 0x1 PUSH1 0x1 PUSH1 0xA0 SHL SUB DUP5 DUP2 AND PUSH1 0x1 PUSH1 0x1 PUSH1 0xA0 SHL SUB NOT DUP4 AND DUP2 OR SWAP1 SWAP4 SSTORE PUSH1 0x40 MLOAD SWAP2 AND SWAP2 SWAP1 DUP3 SWAP1 PUSH32 0x2F3FFAAAAD93928855C8700645D1A3643E6CCFDD500EFA9FDA048A88F557CF01 SWAP1 PUSH1 0x0 SWAP1 LOG3 POP PUSH2 0x940 DUP2 PUSH2 0x258C JUMP JUMPDEST PUSH1 0x0 SLOAD PUSH1 0x1 PUSH1 0x1 PUSH1 0xA0 SHL SUB AND CALLER EQ PUSH2 0xB94 JUMPI PUSH1 0x40 MLOAD PUSH3 0x461BCD PUSH1 0xE5 SHL DUP2 MSTORE PUSH1 0x4 ADD PUSH2 0x815 SWAP1 PUSH2 0x3C7C JUMP JUMPDEST PUSH1 0x40 DUP1 MLOAD DUP1 DUP3 ADD SWAP1 SWAP2 MSTORE PUSH1 0x10 DUP2 MSTORE PUSH16 0x736574506F6F6C5661726961626C6573 PUSH1 0x80 SHL PUSH1 0x20 DUP3 ADD MSTORE PUSH1 0x2 SLOAD PUSH1 0xFF AND ISZERO DUP1 PUSH2 0xC4D JUMPI POP PUSH1 0x3 DUP2 PUSH1 0x40 MLOAD PUSH2 0xBD8 SWAP2 SWAP1 PUSH2 0x3C2D JUMP JUMPDEST SWAP1 DUP2 MSTORE PUSH1 0x20 ADD PUSH1 0x40 MLOAD DUP1 SWAP2 SUB SWAP1 KECCAK256 SLOAD PUSH1 0x0 EQ ISZERO DUP1 ISZERO PUSH2 0xC15 JUMPI POP TIMESTAMP PUSH1 0x3 DUP3 PUSH1 0x40 MLOAD PUSH2 0xC03 SWAP2 SWAP1 PUSH2 0x3C2D JUMP JUMPDEST SWAP1 DUP2 MSTORE PUSH1 0x20 ADD PUSH1 0x40 MLOAD DUP1 SWAP2 SUB SWAP1 KECCAK256 SLOAD GT ISZERO JUMPDEST DUP1 ISZERO PUSH2 0xC4D JUMPI POP TIMESTAMP PUSH3 0x15180 PUSH1 0x3 DUP4 PUSH1 0x40 MLOAD PUSH2 0xC31 SWAP2 SWAP1 PUSH2 0x3C2D JUMP JUMPDEST SWAP1 DUP2 MSTORE PUSH1 0x20 ADD PUSH1 0x40 MLOAD DUP1 SWAP2 SUB SWAP1 KECCAK256 SLOAD PUSH2 0xC4A SWAP2 SWAP1 PUSH2 0x3DAB JUMP JUMPDEST LT ISZERO JUMPDEST PUSH2 0xC69 JUMPI PUSH1 0x40 MLOAD PUSH3 0x461BCD PUSH1 0xE5 SHL DUP2 MSTORE PUSH1 0x4 ADD PUSH2 0x815 SWAP1 PUSH2 0x3CB1 JUMP JUMPDEST PUSH2 0x3E8 DUP6 PUSH2 0xFFFF AND GT ISZERO PUSH2 0xC8F JUMPI PUSH1 0x40 MLOAD PUSH3 0x461BCD PUSH1 0xE5 SHL DUP2 MSTORE PUSH1 0x4 ADD PUSH2 0x815 SWAP1 PUSH2 0x3D69 JUMP JUMPDEST DUP2 ISZERO PUSH2 0xC9D JUMPI PUSH2 0xC9D PUSH2 0x1E86 JUMP JUMPDEST PUSH2 0xCE0 DUP7 PUSH2 0xCDA PUSH1 0xD DUP11 DUP2 SLOAD DUP2 LT PUSH2 0xCB7 JUMPI PUSH2 0xCB7 PUSH2 0x4060 JUMP JUMPDEST SWAP1 PUSH1 0x0 MSTORE PUSH1 0x20 PUSH1 0x0 KECCAK256 SWAP1 PUSH1 0xA MUL ADD PUSH1 0x2 ADD SLOAD PUSH1 0x12 SLOAD PUSH2 0x3084 SWAP1 SWAP2 SWAP1 PUSH4 0xFFFFFFFF AND JUMP JUMPDEST SWAP1 PUSH2 0x3078 JUMP JUMPDEST PUSH1 0x12 DUP2 SWAP1 SSTORE POP DUP6 PUSH1 0xD DUP9 DUP2 SLOAD DUP2 LT PUSH2 0xCFA JUMPI PUSH2 0xCFA PUSH2 0x4060 JUMP JUMPDEST SWAP1 PUSH1 0x0 MSTORE PUSH1 0x20 PUSH1 0x0 KECCAK256 SWAP1 PUSH1 0xA MUL ADD PUSH1 0x2 ADD DUP2 SWAP1 SSTORE POP DUP5 PUSH1 0xD DUP9 DUP2 SLOAD DUP2 LT PUSH2 0xD23 JUMPI PUSH2 0xD23 PUSH2 0x4060 JUMP JUMPDEST SWAP1 PUSH1 0x0 MSTORE PUSH1 0x20 PUSH1 0x0 KECCAK256 SWAP1 PUSH1 0xA MUL ADD PUSH1 0x5 ADD PUSH1 0x0 PUSH2 0x100 EXP DUP2 SLOAD DUP2 PUSH2 0xFFFF MUL NOT AND SWAP1 DUP4 PUSH2 0xFFFF AND MUL OR SWAP1 SSTORE POP DUP4 PUSH1 0xD DUP9 DUP2 SLOAD DUP2 LT PUSH2 0xD62 JUMPI PUSH2 0xD62 PUSH2 0x4060 JUMP JUMPDEST SWAP1 PUSH1 0x0 MSTORE PUSH1 0x20 PUSH1 0x0 KECCAK256 SWAP1 PUSH1 0xA MUL ADD PUSH1 0x8 ADD DUP2 SWAP1 SSTORE POP DUP3 PUSH1 0xD DUP9 DUP2 SLOAD DUP2 LT PUSH2 0xD8B JUMPI PUSH2 0xD8B PUSH2 0x4060 JUMP JUMPDEST PUSH1 0x0 SWAP2 DUP3 MSTORE PUSH1 0x20 DUP3 KECCAK256 PUSH1 0xA SWAP2 SWAP1 SWAP2 MUL ADD PUSH1 0x9 ADD DUP1 SLOAD PUSH1 0xFF NOT AND SWAP3 ISZERO ISZERO SWAP3 SWAP1 SWAP3 OR SWAP1 SWAP2 SSTORE PUSH1 0x40 MLOAD DUP9 SWAP2 PUSH32 0xA844E7199A9E0826E5C245ADCD2D35F2F100069597A3E7512AFE58F772C4ECA9 SWAP2 LOG2 PUSH2 0xDDF DUP2 PUSH2 0x258C JUMP JUMPDEST POP POP POP POP POP POP POP JUMP JUMPDEST PUSH1 0x5 SLOAD PUSH1 0x40 MLOAD PUSH4 0x69372B3 PUSH1 0xE4 SHL DUP2 MSTORE PUSH1 0x4 DUP2 ADD DUP4 SWAP1 MSTORE PUSH1 0x0 SWAP2 PUSH1 0x1 PUSH1 0x1 PUSH1 0xA0 SHL SUB AND SWAP1 PUSH4 0x69372B30 SWAP1 PUSH1 0x24 ADD PUSH1 0x20 PUSH1 0x40 MLOAD DUP1 DUP4 SUB DUP2 DUP7 DUP1 EXTCODESIZE ISZERO DUP1 ISZERO PUSH2 0xE2D JUMPI PUSH1 0x0 DUP1 REVERT JUMPDEST POP GAS STATICCALL ISZERO DUP1 ISZERO PUSH2 0xE41 JUMPI RETURNDATASIZE PUSH1 0x0 DUP1 RETURNDATACOPY RETURNDATASIZE PUSH1 0x0 REVERT JUMPDEST POP POP POP POP PUSH1 0x40 MLOAD RETURNDATASIZE PUSH1 0x1F NOT PUSH1 0x1F DUP3 ADD AND DUP3 ADD DUP1 PUSH1 0x40 MSTORE POP DUP2 ADD SWAP1 PUSH2 0xE65 SWAP2 SWAP1 PUSH2 0x38DB JUMP JUMPDEST SWAP3 SWAP2 POP POP JUMP JUMPDEST PUSH1 0x0 SLOAD PUSH1 0x1 PUSH1 0x1 PUSH1 0xA0 SHL SUB AND CALLER EQ PUSH2 0xE95 JUMPI PUSH1 0x40 MLOAD PUSH3 0x461BCD PUSH1 0xE5 SHL DUP2 MSTORE PUSH1 0x4 ADD PUSH2 0x815 SWAP1 PUSH2 0x3C7C JUMP JUMPDEST PUSH1 0x1 PUSH1 0x1 PUSH1 0xA0 SHL SUB AND PUSH1 0x0 SWAP1 DUP2 MSTORE PUSH1 0x17 PUSH1 0x20 MSTORE PUSH1 0x40 SWAP1 KECCAK256 DUP1 SLOAD PUSH1 0xFF NOT AND SWAP2 ISZERO ISZERO SWAP2 SWAP1 SWAP2 OR SWAP1 SSTORE JUMP JUMPDEST PUSH1 0x2 PUSH1 0x1 SLOAD EQ ISZERO PUSH2 0xEE0 JUMPI PUSH1 0x40 MLOAD PUSH3 0x461BCD PUSH1 0xE5 SHL DUP2 MSTORE PUSH1 0x4 ADD PUSH2 0x815 SWAP1 PUSH2 0x3D32 JUMP JUMPDEST PUSH1 0x2 PUSH1 0x1 DUP2 SWAP1 SSTORE POP PUSH1 0x0 PUSH1 0xD DUP3 DUP2 SLOAD DUP2 LT PUSH2 0xEFD JUMPI PUSH2 0xEFD PUSH2 0x4060 JUMP JUMPDEST PUSH1 0x0 SWAP2 DUP3 MSTORE PUSH1 0x20 DUP1 DUP4 KECCAK256 DUP6 DUP5 MSTORE PUSH1 0xC DUP3 MSTORE PUSH1 0x40 DUP1 DUP6 KECCAK256 CALLER DUP7 MSTORE SWAP1 SWAP3 MSTORE SWAP3 KECCAK256 PUSH1 0xA SWAP1 SWAP2 MUL SWAP1 SWAP2 ADD SWAP2 POP PUSH2 0xF2E DUP4 PUSH2 0x1940 JUMP JUMPDEST PUSH1 0x0 PUSH2 0xF68 DUP3 PUSH1 0x1 ADD SLOAD PUSH2 0xF62 PUSH5 0xE8D4A51000 PUSH2 0xF5C DUP8 PUSH1 0x4 ADD SLOAD DUP8 PUSH1 0x0 ADD SLOAD PUSH2 0x3090 SWAP1 SWAP2 SWAP1 PUSH4 0xFFFFFFFF AND JUMP JUMPDEST SWAP1 PUSH2 0x309C JUMP JUMPDEST SWAP1 PUSH2 0x3084 JUMP JUMPDEST SWAP1 POP DUP1 ISZERO PUSH2 0xFB2 JUMPI PUSH2 0xF7A CALLER DUP3 PUSH2 0x30A8 JUMP JUMPDEST PUSH1 0x40 MLOAD DUP2 DUP2 MSTORE DUP5 SWAP1 CALLER SWAP1 PUSH32 0x34FCBAC0073D7C3D388E51312FAF357774904998EEB8FCA628B9E6F65EE1CBF7 SWAP1 PUSH1 0x20 ADD PUSH1 0x40 MLOAD DUP1 SWAP2 SUB SWAP1 LOG3 JUMPDEST DUP3 SLOAD PUSH1 0x1 PUSH1 0x1 PUSH1 0xA0 SHL SUB AND ISZERO PUSH2 0x1033 JUMPI DUP3 SLOAD PUSH1 0x7 DUP5 ADD SLOAD PUSH1 0x40 MLOAD PUSH4 0xAD58D2F PUSH1 0xE0 SHL DUP2 MSTORE PUSH1 0x4 DUP2 ADD SWAP2 SWAP1 SWAP2 MSTORE PUSH1 0x0 PUSH1 0x24 DUP3 ADD MSTORE CALLER PUSH1 0x44 DUP3 ADD MSTORE PUSH1 0x1 PUSH1 0x1 PUSH1 0xA0 SHL SUB SWAP1 SWAP2 AND SWAP1 PUSH4 0xAD58D2F SWAP1 PUSH1 0x64 ADD PUSH1 0x0 PUSH1 0x40 MLOAD DUP1 DUP4 SUB DUP2 PUSH1 0x0 DUP8 DUP1 EXTCODESIZE ISZERO DUP1 ISZERO PUSH2 0x101A JUMPI PUSH1 0x0 DUP1 REVERT JUMPDEST POP GAS CALL ISZERO DUP1 ISZERO PUSH2 0x102E JUMPI RETURNDATASIZE PUSH1 0x0 DUP1 RETURNDATACOPY RETURNDATASIZE PUSH1 0x0 REVERT JUMPDEST POP POP POP POP JUMPDEST PUSH1 0x4 DUP4 ADD SLOAD DUP3 SLOAD PUSH2 0x104E SWAP2 PUSH5 0xE8D4A51000 SWAP2 PUSH2 0xF5C SWAP2 PUSH2 0x3090 JUMP JUMPDEST PUSH1 0x1 DUP4 ADD SSTORE PUSH2 0x105B PUSH2 0x1065 JUMP JUMPDEST POP POP PUSH1 0x1 DUP1 SSTORE POP POP JUMP JUMPDEST PUSH1 0x5 SLOAD PUSH1 0x1 PUSH1 0x1 PUSH1 0xA0 SHL SUB AND ISZERO DUP1 PUSH2 0x1100 JUMPI POP PUSH1 0x5 SLOAD PUSH1 0x40 DUP1 MLOAD PUSH4 0x808A5457 PUSH1 0xE0 SHL DUP2 MSTORE SWAP1 MLOAD PUSH1 0x0 SWAP3 PUSH1 0x1 PUSH1 0x1 PUSH1 0xA0 SHL SUB AND SWAP2 PUSH4 0x808A5457 SWAP2 PUSH1 0x4 DUP1 DUP4 ADD SWAP3 PUSH1 0x20 SWAP3 SWAP2 SWAP1 DUP3 SWAP1 SUB ADD DUP2 DUP7 DUP1 EXTCODESIZE ISZERO DUP1 ISZERO PUSH2 0x10BD JUMPI PUSH1 0x0 DUP1 REVERT JUMPDEST POP GAS STATICCALL ISZERO DUP1 ISZERO PUSH2 0x10D1 JUMPI RETURNDATASIZE PUSH1 0x0 DUP1 RETURNDATACOPY RETURNDATASIZE PUSH1 0x0 REVERT JUMPDEST POP POP POP POP PUSH1 0x40 MLOAD RETURNDATASIZE PUSH1 0x1F NOT PUSH1 0x1F DUP3 ADD AND DUP3 ADD DUP1 PUSH1 0x40 MSTORE POP DUP2 ADD SWAP1 PUSH2 0x10F5 SWAP2 SWAP1 PUSH2 0x3851 JUMP JUMPDEST PUSH1 0x1 PUSH1 0x1 PUSH1 0xA0 SHL SUB AND EQ JUMPDEST ISZERO PUSH2 0x1107 JUMPI JUMP JUMPDEST PUSH2 0x1113 PUSH2 0xE10 TIMESTAMP PUSH2 0x3FD6 JUMP JUMPDEST PUSH1 0x9 SLOAD LT ISZERO PUSH2 0x1163 JUMPI PUSH1 0x0 PUSH2 0x1126 PUSH2 0x14D9 JUMP JUMPDEST PUSH1 0x8 DUP1 SLOAD SWAP2 SWAP3 POP DUP3 SWAP2 PUSH1 0x7 SWAP2 PUSH1 0x0 PUSH2 0x113D DUP4 PUSH2 0x4019 JUMP JUMPDEST SWAP2 SWAP1 POP SSTORE DUP2 SLOAD DUP2 LT PUSH2 0x1151 JUMPI PUSH2 0x1151 PUSH2 0x4060 JUMP JUMPDEST PUSH1 0x0 SWAP2 DUP3 MSTORE PUSH1 0x20 SWAP1 SWAP2 KECCAK256 ADD SSTORE POP TIMESTAMP PUSH1 0x9 SSTORE JUMPDEST PUSH2 0x1170 PUSH3 0x15180 TIMESTAMP PUSH2 0x3FD6 JUMP JUMPDEST PUSH1 0x14 SLOAD LT DUP1 ISZERO PUSH2 0x1182 JUMPI POP PUSH1 0x2 PUSH1 0x8 SLOAD GT JUMPDEST ISZERO PUSH2 0x11B9 JUMPI PUSH1 0x0 PUSH2 0x1191 PUSH2 0x2876 JUMP JUMPDEST TIMESTAMP PUSH1 0x14 SSTORE PUSH1 0x0 PUSH1 0x8 SSTORE PUSH1 0xA SLOAD SWAP1 SWAP2 POP ISZERO ISZERO PUSH2 0x11AB DUP3 PUSH2 0x316C JUMP JUMPDEST DUP1 ISZERO PUSH2 0x940 JUMPI PUSH2 0x940 PUSH2 0x31A8 JUMP JUMPDEST JUMP JUMPDEST PUSH1 0x2 PUSH1 0x1 SLOAD EQ ISZERO PUSH2 0x11DE JUMPI PUSH1 0x40 MLOAD PUSH3 0x461BCD PUSH1 0xE5 SHL DUP2 MSTORE PUSH1 0x4 ADD PUSH2 0x815 SWAP1 PUSH2 0x3D32 JUMP JUMPDEST PUSH1 0x2 PUSH1 0x1 DUP2 SWAP1 SSTORE POP PUSH1 0x0 PUSH1 0xD DUP4 DUP2 SLOAD DUP2 LT PUSH2 0x11FB JUMPI PUSH2 0x11FB PUSH2 0x4060 JUMP JUMPDEST PUSH1 0x0 SWAP2 DUP3 MSTORE PUSH1 0x20 DUP1 DUP4 KECCAK256 DUP7 DUP5 MSTORE PUSH1 0xC DUP3 MSTORE PUSH1 0x40 DUP1 DUP6 KECCAK256 CALLER DUP7 MSTORE SWAP1 SWAP3 MSTORE SWAP3 KECCAK256 DUP1 SLOAD PUSH1 0xA SWAP1 SWAP3 MUL SWAP1 SWAP3 ADD SWAP3 POP DUP4 GT ISZERO PUSH2 0x129A JUMPI PUSH1 0x40 MLOAD PUSH3 0x461BCD PUSH1 0xE5 SHL DUP2 MSTORE PUSH1 0x20 PUSH1 0x4 DUP3 ADD MSTORE PUSH1 0x3D PUSH1 0x24 DUP3 ADD MSTORE PUSH32 0x77697468647261773A20776974686472617720616D6F756E742063616E277420 PUSH1 0x44 DUP3 ADD MSTORE PUSH32 0x657863656564207573657273206465706F736974656420616D6F756E74000000 PUSH1 0x64 DUP3 ADD MSTORE PUSH1 0x84 ADD PUSH2 0x815 JUMP JUMPDEST PUSH2 0x12A3 DUP5 PUSH2 0x1940 JUMP JUMPDEST PUSH1 0x0 PUSH2 0x12D1 DUP3 PUSH1 0x1 ADD SLOAD PUSH2 0xF62 PUSH5 0xE8D4A51000 PUSH2 0xF5C DUP8 PUSH1 0x4 ADD SLOAD DUP8 PUSH1 0x0 ADD SLOAD PUSH2 0x3090 SWAP1 SWAP2 SWAP1 PUSH4 0xFFFFFFFF AND JUMP JUMPDEST SWAP1 POP DUP1 ISZERO PUSH2 0x12E3 JUMPI PUSH2 0x12E3 CALLER DUP3 PUSH2 0x30A8 JUMP JUMPDEST DUP4 ISZERO PUSH2 0x1440 JUMPI TIMESTAMP PUSH2 0x130B DUP5 PUSH1 0x8 ADD SLOAD PUSH3 0x15180 PUSH2 0x1300 SWAP2 SWAP1 PUSH2 0x3F78 JUMP JUMPDEST PUSH1 0x2 DUP6 ADD SLOAD SWAP1 PUSH2 0x3078 JUMP JUMPDEST GT ISZERO PUSH2 0x137F JUMPI PUSH1 0x40 MLOAD PUSH3 0x461BCD PUSH1 0xE5 SHL DUP2 MSTORE PUSH1 0x20 PUSH1 0x4 DUP3 ADD MSTORE PUSH1 0x3C PUSH1 0x24 DUP3 ADD MSTORE PUSH32 0x41424F41543A3A77697468647261773A2043616E277420776974686472617720 PUSH1 0x44 DUP3 ADD MSTORE PUSH32 0x6265666F7265206C6F636B696E6720706572696F6420656E6465642E00000000 PUSH1 0x64 DUP3 ADD MSTORE PUSH1 0x84 ADD PUSH2 0x815 JUMP JUMPDEST DUP2 SLOAD PUSH2 0x138B SWAP1 DUP6 PUSH2 0x3084 JUMP JUMPDEST DUP3 SSTORE DUP3 SLOAD PUSH1 0x1 PUSH1 0x1 PUSH1 0xA0 SHL SUB AND ISZERO PUSH2 0x1412 JUMPI DUP3 SLOAD PUSH1 0x7 DUP5 ADD SLOAD PUSH1 0x40 MLOAD PUSH4 0xAD58D2F PUSH1 0xE0 SHL DUP2 MSTORE PUSH1 0x4 DUP2 ADD SWAP2 SWAP1 SWAP2 MSTORE PUSH1 0x24 DUP2 ADD DUP7 SWAP1 MSTORE CALLER PUSH1 0x44 DUP3 ADD MSTORE PUSH1 0x1 PUSH1 0x1 PUSH1 0xA0 SHL SUB SWAP1 SWAP2 AND SWAP1 PUSH4 0xAD58D2F SWAP1 PUSH1 0x64 ADD PUSH1 0x0 PUSH1 0x40 MLOAD DUP1 DUP4 SUB DUP2 PUSH1 0x0 DUP8 DUP1 EXTCODESIZE ISZERO DUP1 ISZERO PUSH2 0x13F5 JUMPI PUSH1 0x0 DUP1 REVERT JUMPDEST POP GAS CALL ISZERO DUP1 ISZERO PUSH2 0x1409 JUMPI RETURNDATASIZE PUSH1 0x0 DUP1 RETURNDATACOPY RETURNDATASIZE PUSH1 0x0 REVERT JUMPDEST POP POP POP POP PUSH2 0x142B JUMP JUMPDEST PUSH1 0x1 DUP4 ADD SLOAD PUSH2 0x142B SWAP1 PUSH1 0x1 PUSH1 0x1 PUSH1 0xA0 SHL SUB AND CALLER DUP7 PUSH2 0x31F4 JUMP JUMPDEST PUSH1 0x6 DUP4 ADD SLOAD PUSH2 0x143A SWAP1 DUP6 PUSH2 0x3084 JUMP JUMPDEST PUSH1 0x6 DUP5 ADD SSTORE JUMPDEST PUSH1 0x4 DUP4 ADD SLOAD DUP3 SLOAD PUSH2 0x145B SWAP2 PUSH5 0xE8D4A51000 SWAP2 PUSH2 0xF5C SWAP2 PUSH2 0x3090 JUMP JUMPDEST PUSH1 0x1 DUP1 DUP5 ADD SWAP2 SWAP1 SWAP2 SSTORE PUSH1 0x5 SLOAD SWAP1 DUP5 ADD SLOAD PUSH1 0x1 PUSH1 0x1 PUSH1 0xA0 SHL SUB SWAP1 DUP2 AND SWAP2 AND EQ ISZERO PUSH2 0x148F JUMPI PUSH1 0x13 SLOAD PUSH2 0x148B SWAP1 DUP6 PUSH2 0x3084 JUMP JUMPDEST PUSH1 0x13 SSTORE JUMPDEST PUSH1 0x40 MLOAD DUP5 DUP2 MSTORE DUP6 SWAP1 CALLER SWAP1 PUSH32 0xF279E6A1F5E320CCA91135676D9CB6E44CA8A08C0B88342BCDB1144F6511B568 SWAP1 PUSH1 0x20 ADD PUSH1 0x40 MLOAD DUP1 SWAP2 SUB SWAP1 LOG3 PUSH2 0x14CE PUSH2 0x1065 JUMP JUMPDEST POP POP PUSH1 0x1 DUP1 SSTORE POP POP POP JUMP JUMPDEST PUSH1 0x0 DUP1 PUSH1 0x5 PUSH1 0x0 SWAP1 SLOAD SWAP1 PUSH2 0x100 EXP SWAP1 DIV PUSH1 0x1 PUSH1 0x1 PUSH1 0xA0 SHL SUB AND PUSH1 0x1 PUSH1 0x1 PUSH1 0xA0 SHL SUB AND PUSH4 0x808A5457 PUSH1 0x40 MLOAD DUP2 PUSH4 0xFFFFFFFF AND PUSH1 0xE0 SHL DUP2 MSTORE PUSH1 0x4 ADD PUSH1 0x20 PUSH1 0x40 MLOAD DUP1 DUP4 SUB DUP2 DUP7 DUP1 EXTCODESIZE ISZERO DUP1 ISZERO PUSH2 0x152A JUMPI PUSH1 0x0 DUP1 REVERT JUMPDEST POP GAS STATICCALL ISZERO DUP1 ISZERO PUSH2 0x153E JUMPI RETURNDATASIZE PUSH1 0x0 DUP1 RETURNDATACOPY RETURNDATASIZE PUSH1 0x0 REVERT JUMPDEST POP POP POP POP PUSH1 0x40 MLOAD RETURNDATASIZE PUSH1 0x1F NOT PUSH1 0x1F DUP3 ADD AND DUP3 ADD DUP1 PUSH1 0x40 MSTORE POP DUP2 ADD SWAP1 PUSH2 0x1562 SWAP2 SWAP1 PUSH2 0x3851 JUMP JUMPDEST PUSH1 0x6 SLOAD SWAP1 SWAP2 POP PUSH1 0x1 PUSH1 0x1 PUSH1 0xA0 SHL SUB DUP1 DUP4 AND SWAP2 AND EQ PUSH2 0x15A5 JUMPI PUSH1 0x6 DUP1 SLOAD PUSH1 0x1 PUSH1 0x1 PUSH1 0xA0 SHL SUB NOT AND PUSH1 0x1 PUSH1 0x1 PUSH1 0xA0 SHL SUB DUP4 AND OR SWAP1 SSTORE PUSH1 0x0 PUSH1 0x8 DUP2 SWAP1 SSTORE PUSH1 0xA DUP2 SWAP1 SSTORE PUSH1 0xB SSTORE JUMPDEST PUSH1 0x6 SLOAD PUSH1 0x40 DUP1 MLOAD PUSH4 0x240BC6B PUSH1 0xE2 SHL DUP2 MSTORE SWAP1 MLOAD PUSH1 0x1 PUSH1 0x1 PUSH1 0xA0 SHL SUB SWAP1 SWAP3 AND SWAP2 PUSH1 0x0 SWAP2 DUP3 SWAP2 DUP5 SWAP2 PUSH4 0x902F1AC SWAP2 PUSH1 0x4 DUP1 DUP4 ADD SWAP3 PUSH1 0x60 SWAP3 SWAP2 SWAP1 DUP3 SWAP1 SUB ADD DUP2 DUP7 DUP1 EXTCODESIZE ISZERO DUP1 ISZERO PUSH2 0x15F0 JUMPI PUSH1 0x0 DUP1 REVERT JUMPDEST POP GAS STATICCALL ISZERO DUP1 ISZERO PUSH2 0x1604 JUMPI RETURNDATASIZE PUSH1 0x0 DUP1 RETURNDATACOPY RETURNDATASIZE PUSH1 0x0 REVERT JUMPDEST POP POP POP POP PUSH1 0x40 MLOAD RETURNDATASIZE PUSH1 0x1F NOT PUSH1 0x1F DUP3 ADD AND DUP3 ADD DUP1 PUSH1 0x40 MSTORE POP DUP2 ADD SWAP1 PUSH2 0x1628 SWAP2 SWAP1 PUSH2 0x3A04 JUMP JUMPDEST POP PUSH1 0x1 PUSH1 0x1 PUSH1 0x70 SHL SUB AND SWAP2 POP PUSH1 0x1 PUSH1 0x1 PUSH1 0x70 SHL SUB AND SWAP2 POP DUP2 PUSH1 0x0 EQ DUP1 ISZERO PUSH2 0x164D JUMPI POP DUP1 ISZERO JUMPDEST ISZERO PUSH2 0x165D JUMPI PUSH1 0x0 SWAP5 POP POP POP POP POP SWAP1 JUMP JUMPDEST PUSH1 0x0 PUSH1 0x5 PUSH1 0x0 SWAP1 SLOAD SWAP1 PUSH2 0x100 EXP SWAP1 DIV PUSH1 0x1 PUSH1 0x1 PUSH1 0xA0 SHL SUB AND PUSH1 0x1 PUSH1 0x1 PUSH1 0xA0 SHL SUB AND DUP5 PUSH1 0x1 PUSH1 0x1 PUSH1 0xA0 SHL SUB AND PUSH4 0xDFE1681 PUSH1 0x40 MLOAD DUP2 PUSH4 0xFFFFFFFF AND PUSH1 0xE0 SHL DUP2 MSTORE PUSH1 0x4 ADD PUSH1 0x20 PUSH1 0x40 MLOAD DUP1 DUP4 SUB DUP2 DUP7 DUP1 EXTCODESIZE ISZERO DUP1 ISZERO PUSH2 0x16B7 JUMPI PUSH1 0x0 DUP1 REVERT JUMPDEST POP GAS STATICCALL ISZERO DUP1 ISZERO PUSH2 0x16CB JUMPI RETURNDATASIZE PUSH1 0x0 DUP1 RETURNDATACOPY RETURNDATASIZE PUSH1 0x0 REVERT JUMPDEST POP POP POP POP PUSH1 0x40 MLOAD RETURNDATASIZE PUSH1 0x1F NOT PUSH1 0x1F DUP3 ADD AND DUP3 ADD DUP1 PUSH1 0x40 MSTORE POP DUP2 ADD SWAP1 PUSH2 0x16EF SWAP2 SWAP1 PUSH2 0x3851 JUMP JUMPDEST PUSH1 0x1 PUSH1 0x1 PUSH1 0xA0 SHL SUB AND EQ PUSH2 0x1773 JUMPI DUP4 PUSH1 0x1 PUSH1 0x1 PUSH1 0xA0 SHL SUB AND PUSH4 0xD21220A7 PUSH1 0x40 MLOAD DUP2 PUSH4 0xFFFFFFFF AND PUSH1 0xE0 SHL DUP2 MSTORE PUSH1 0x4 ADD PUSH1 0x20 PUSH1 0x40 MLOAD DUP1 DUP4 SUB DUP2 DUP7 DUP1 EXTCODESIZE ISZERO DUP1 ISZERO PUSH2 0x1736 JUMPI PUSH1 0x0 DUP1 REVERT JUMPDEST POP GAS STATICCALL ISZERO DUP1 ISZERO PUSH2 0x174A JUMPI RETURNDATASIZE PUSH1 0x0 DUP1 RETURNDATACOPY RETURNDATASIZE PUSH1 0x0 REVERT JUMPDEST POP POP POP POP PUSH1 0x40 MLOAD RETURNDATASIZE PUSH1 0x1F NOT PUSH1 0x1F DUP3 ADD AND DUP3 ADD DUP1 PUSH1 0x40 MSTORE POP DUP2 ADD SWAP1 PUSH2 0x176E SWAP2 SWAP1 PUSH2 0x3851 JUMP JUMPDEST PUSH2 0x17E4 JUMP JUMPDEST DUP4 PUSH1 0x1 PUSH1 0x1 PUSH1 0xA0 SHL SUB AND PUSH4 0xD21220A7 PUSH1 0x40 MLOAD DUP2 PUSH4 0xFFFFFFFF AND PUSH1 0xE0 SHL DUP2 MSTORE PUSH1 0x4 ADD PUSH1 0x20 PUSH1 0x40 MLOAD DUP1 DUP4 SUB DUP2 DUP7 DUP1 EXTCODESIZE ISZERO DUP1 ISZERO PUSH2 0x17AC JUMPI PUSH1 0x0 DUP1 REVERT JUMPDEST POP GAS STATICCALL ISZERO DUP1 ISZERO PUSH2 0x17C0 JUMPI RETURNDATASIZE PUSH1 0x0 DUP1 RETURNDATACOPY RETURNDATASIZE PUSH1 0x0 REVERT JUMPDEST POP POP POP POP PUSH1 0x40 MLOAD RETURNDATASIZE PUSH1 0x1F NOT PUSH1 0x1F DUP3 ADD AND DUP3 ADD DUP1 PUSH1 0x40 MSTORE POP DUP2 ADD SWAP1 PUSH2 0x17E4 SWAP2 SWAP1 PUSH2 0x3851 JUMP JUMPDEST SWAP1 POP PUSH1 0x0 PUSH1 0x5 PUSH1 0x0 SWAP1 SLOAD SWAP1 PUSH2 0x100 EXP SWAP1 DIV PUSH1 0x1 PUSH1 0x1 PUSH1 0xA0 SHL SUB AND PUSH1 0x1 PUSH1 0x1 PUSH1 0xA0 SHL SUB AND DUP6 PUSH1 0x1 PUSH1 0x1 PUSH1 0xA0 SHL SUB AND PUSH4 0xDFE1681 PUSH1 0x40 MLOAD DUP2 PUSH4 0xFFFFFFFF AND PUSH1 0xE0 SHL DUP2 MSTORE PUSH1 0x4 ADD PUSH1 0x20 PUSH1 0x40 MLOAD DUP1 DUP4 SUB DUP2 DUP7 DUP1 EXTCODESIZE ISZERO DUP1 ISZERO PUSH2 0x1840 JUMPI PUSH1 0x0 DUP1 REVERT JUMPDEST POP GAS STATICCALL ISZERO DUP1 ISZERO PUSH2 0x1854 JUMPI RETURNDATASIZE PUSH1 0x0 DUP1 RETURNDATACOPY RETURNDATASIZE PUSH1 0x0 REVERT JUMPDEST POP POP POP POP PUSH1 0x40 MLOAD RETURNDATASIZE PUSH1 0x1F NOT PUSH1 0x1F DUP3 ADD AND DUP3 ADD DUP1 PUSH1 0x40 MSTORE POP DUP2 ADD SWAP1 PUSH2 0x1878 SWAP2 SWAP1 PUSH2 0x3851 JUMP JUMPDEST PUSH1 0x1 PUSH1 0x1 PUSH1 0xA0 SHL SUB AND EQ PUSH2 0x188C JUMPI DUP4 PUSH2 0x188E JUMP JUMPDEST DUP3 JUMPDEST SWAP1 POP PUSH1 0x0 DUP5 DUP3 EQ PUSH2 0x189F JUMPI DUP5 PUSH2 0x18A1 JUMP JUMPDEST DUP4 JUMPDEST SWAP1 POP DUP1 DUP4 PUSH1 0x1 PUSH1 0x1 PUSH1 0xA0 SHL SUB AND PUSH4 0x313CE567 PUSH1 0x40 MLOAD DUP2 PUSH4 0xFFFFFFFF AND PUSH1 0xE0 SHL DUP2 MSTORE PUSH1 0x4 ADD PUSH1 0x20 PUSH1 0x40 MLOAD DUP1 DUP4 SUB DUP2 DUP7 DUP1 EXTCODESIZE ISZERO DUP1 ISZERO PUSH2 0x18DD JUMPI PUSH1 0x0 DUP1 REVERT JUMPDEST POP GAS STATICCALL ISZERO DUP1 ISZERO PUSH2 0x18F1 JUMPI RETURNDATASIZE PUSH1 0x0 DUP1 RETURNDATACOPY RETURNDATASIZE PUSH1 0x0 REVERT JUMPDEST POP POP POP POP PUSH1 0x40 MLOAD RETURNDATASIZE PUSH1 0x1F NOT PUSH1 0x1F DUP3 ADD AND DUP3 ADD DUP1 PUSH1 0x40 MSTORE POP DUP2 ADD SWAP1 PUSH2 0x1915 SWAP2 SWAP1 PUSH2 0x3C0A JUMP JUMPDEST PUSH2 0x1920 SWAP1 PUSH1 0xA PUSH2 0x3E48 JUMP JUMPDEST PUSH2 0x192A SWAP1 DUP5 PUSH2 0x3F78 JUMP JUMPDEST PUSH2 0x1934 SWAP2 SWAP1 PUSH2 0x3DF1 JUMP JUMPDEST SWAP8 POP POP POP POP POP POP POP POP SWAP1 JUMP JUMPDEST PUSH1 0x0 PUSH1 0xD DUP3 DUP2 SLOAD DUP2 LT PUSH2 0x1955 JUMPI PUSH2 0x1955 PUSH2 0x4060 JUMP JUMPDEST SWAP1 PUSH1 0x0 MSTORE PUSH1 0x20 PUSH1 0x0 KECCAK256 SWAP1 PUSH1 0xA MUL ADD SWAP1 POP DUP1 PUSH1 0x3 ADD SLOAD NUMBER GT PUSH2 0x1974 JUMPI POP POP JUMP JUMPDEST PUSH1 0x0 PUSH2 0x197F DUP4 PUSH2 0x1D9E JUMP JUMPDEST SWAP1 POP DUP1 PUSH2 0x1991 JUMPI POP NUMBER PUSH1 0x3 SWAP1 SWAP2 ADD SSTORE POP JUMP JUMPDEST PUSH1 0x0 PUSH2 0x19AA DUP4 PUSH1 0x3 ADD SLOAD NUMBER PUSH2 0x3084 SWAP1 SWAP2 SWAP1 PUSH4 0xFFFFFFFF AND JUMP JUMPDEST SWAP1 POP PUSH1 0x0 PUSH2 0x19D7 PUSH1 0x12 SLOAD PUSH2 0xF5C DUP7 PUSH1 0x2 ADD SLOAD PUSH2 0x19D1 PUSH1 0x10 SLOAD DUP8 PUSH2 0x3090 SWAP1 SWAP2 SWAP1 PUSH4 0xFFFFFFFF AND JUMP JUMPDEST SWAP1 PUSH2 0x3090 JUMP JUMPDEST SWAP1 POP PUSH2 0x19F1 PUSH2 0x19E7 DUP3 PUSH1 0xA PUSH2 0x309C JUMP JUMPDEST PUSH2 0x41A SWAP1 DUP4 PUSH2 0x3DAB JUMP JUMPDEST ISZERO PUSH2 0x1ADD JUMPI PUSH1 0x5 SLOAD PUSH1 0xE SLOAD PUSH1 0x1 PUSH1 0x1 PUSH1 0xA0 SHL SUB SWAP2 DUP3 AND SWAP2 PUSH4 0x40C10F19 SWAP2 AND PUSH2 0x1A1A DUP5 PUSH1 0xA PUSH2 0x309C JUMP JUMPDEST PUSH1 0x40 MLOAD PUSH1 0x1 PUSH1 0x1 PUSH1 0xE0 SHL SUB NOT PUSH1 0xE0 DUP6 SWAP1 SHL AND DUP2 MSTORE PUSH1 0x1 PUSH1 0x1 PUSH1 0xA0 SHL SUB SWAP1 SWAP3 AND PUSH1 0x4 DUP4 ADD MSTORE PUSH1 0x24 DUP3 ADD MSTORE PUSH1 0x44 ADD PUSH1 0x0 PUSH1 0x40 MLOAD DUP1 DUP4 SUB DUP2 PUSH1 0x0 DUP8 DUP1 EXTCODESIZE ISZERO DUP1 ISZERO PUSH2 0x1A60 JUMPI PUSH1 0x0 DUP1 REVERT JUMPDEST POP GAS CALL ISZERO DUP1 ISZERO PUSH2 0x1A74 JUMPI RETURNDATASIZE PUSH1 0x0 DUP1 RETURNDATACOPY RETURNDATASIZE PUSH1 0x0 REVERT JUMPDEST POP POP PUSH1 0x5 SLOAD PUSH1 0x40 MLOAD PUSH4 0x40C10F19 PUSH1 0xE0 SHL DUP2 MSTORE ADDRESS PUSH1 0x4 DUP3 ADD MSTORE PUSH1 0x24 DUP2 ADD DUP6 SWAP1 MSTORE PUSH1 0x1 PUSH1 0x1 PUSH1 0xA0 SHL SUB SWAP1 SWAP2 AND SWAP3 POP PUSH4 0x40C10F19 SWAP2 POP PUSH1 0x44 ADD PUSH1 0x0 PUSH1 0x40 MLOAD DUP1 DUP4 SUB DUP2 PUSH1 0x0 DUP8 DUP1 EXTCODESIZE ISZERO DUP1 ISZERO PUSH2 0x1AC4 JUMPI PUSH1 0x0 DUP1 REVERT JUMPDEST POP GAS CALL ISZERO DUP1 ISZERO PUSH2 0x1AD8 JUMPI RETURNDATASIZE PUSH1 0x0 DUP1 RETURNDATACOPY RETURNDATASIZE PUSH1 0x0 REVERT JUMPDEST POP POP POP POP JUMPDEST PUSH2 0x1AFE PUSH2 0x1AF3 DUP5 PUSH2 0xF5C DUP5 PUSH5 0xE8D4A51000 PUSH2 0x3090 JUMP JUMPDEST PUSH1 0x4 DUP7 ADD SLOAD SWAP1 PUSH2 0x3078 JUMP JUMPDEST PUSH1 0x4 DUP6 ADD SSTORE POP POP NUMBER PUSH1 0x3 SWAP1 SWAP3 ADD SWAP2 SWAP1 SWAP2 SSTORE POP POP JUMP JUMPDEST PUSH1 0x0 DUP4 PUSH1 0x1 PUSH1 0x1 PUSH1 0xA0 SHL SUB DUP2 AND PUSH2 0x1B2E JUMPI PUSH1 0x0 SWAP2 POP POP PUSH2 0x1D97 JUMP JUMPDEST PUSH1 0x0 DUP5 PUSH1 0x1 PUSH1 0x1 PUSH1 0xA0 SHL SUB AND DUP3 PUSH1 0x1 PUSH1 0x1 PUSH1 0xA0 SHL SUB AND PUSH4 0xDFE1681 PUSH1 0x40 MLOAD DUP2 PUSH4 0xFFFFFFFF AND PUSH1 0xE0 SHL DUP2 MSTORE PUSH1 0x4 ADD PUSH1 0x20 PUSH1 0x40 MLOAD DUP1 DUP4 SUB DUP2 DUP7 DUP1 EXTCODESIZE ISZERO DUP1 ISZERO PUSH2 0x1B73 JUMPI PUSH1 0x0 DUP1 REVERT JUMPDEST POP GAS STATICCALL ISZERO DUP1 ISZERO PUSH2 0x1B87 JUMPI RETURNDATASIZE PUSH1 0x0 DUP1 RETURNDATACOPY RETURNDATASIZE PUSH1 0x0 REVERT JUMPDEST POP POP POP POP PUSH1 0x40 MLOAD RETURNDATASIZE PUSH1 0x1F NOT PUSH1 0x1F DUP3 ADD AND DUP3 ADD DUP1 PUSH1 0x40 MSTORE POP DUP2 ADD SWAP1 PUSH2 0x1BAB SWAP2 SWAP1 PUSH2 0x3851 JUMP JUMPDEST PUSH1 0x1 PUSH1 0x1 PUSH1 0xA0 SHL SUB AND EQ SWAP1 POP PUSH1 0x0 DUP6 PUSH1 0x1 PUSH1 0x1 PUSH1 0xA0 SHL SUB AND DUP4 PUSH1 0x1 PUSH1 0x1 PUSH1 0xA0 SHL SUB AND PUSH4 0xD21220A7 PUSH1 0x40 MLOAD DUP2 PUSH4 0xFFFFFFFF AND PUSH1 0xE0 SHL DUP2 MSTORE PUSH1 0x4 ADD PUSH1 0x20 PUSH1 0x40 MLOAD DUP1 DUP4 SUB DUP2 DUP7 DUP1 EXTCODESIZE ISZERO DUP1 ISZERO PUSH2 0x1BFC JUMPI PUSH1 0x0 DUP1 REVERT JUMPDEST POP GAS STATICCALL ISZERO DUP1 ISZERO PUSH2 0x1C10 JUMPI RETURNDATASIZE PUSH1 0x0 DUP1 RETURNDATACOPY RETURNDATASIZE PUSH1 0x0 REVERT JUMPDEST POP POP POP POP PUSH1 0x40 MLOAD RETURNDATASIZE PUSH1 0x1F NOT PUSH1 0x1F DUP3 ADD AND DUP3 ADD DUP1 PUSH1 0x40 MSTORE POP DUP2 ADD SWAP1 PUSH2 0x1C34 SWAP2 SWAP1 PUSH2 0x3851 JUMP JUMPDEST PUSH1 0x1 PUSH1 0x1 PUSH1 0xA0 SHL SUB AND EQ SWAP1 POP PUSH1 0x0 DUP1 DUP5 PUSH1 0x1 PUSH1 0x1 PUSH1 0xA0 SHL SUB AND PUSH4 0x902F1AC PUSH1 0x40 MLOAD DUP2 PUSH4 0xFFFFFFFF AND PUSH1 0xE0 SHL DUP2 MSTORE PUSH1 0x4 ADD PUSH1 0x60 PUSH1 0x40 MLOAD DUP1 DUP4 SUB DUP2 DUP7 DUP1 EXTCODESIZE ISZERO DUP1 ISZERO PUSH2 0x1C7C JUMPI PUSH1 0x0 DUP1 REVERT JUMPDEST POP GAS STATICCALL ISZERO DUP1 ISZERO PUSH2 0x1C90 JUMPI RETURNDATASIZE PUSH1 0x0 DUP1 RETURNDATACOPY RETURNDATASIZE PUSH1 0x0 REVERT JUMPDEST POP POP POP POP PUSH1 0x40 MLOAD RETURNDATASIZE PUSH1 0x1F NOT PUSH1 0x1F DUP3 ADD AND DUP3 ADD DUP1 PUSH1 0x40 MSTORE POP DUP2 ADD SWAP1 PUSH2 0x1CB4 SWAP2 SWAP1 PUSH2 0x3A04 JUMP JUMPDEST POP PUSH1 0x1 PUSH1 0x1 PUSH1 0x70 SHL SUB AND SWAP2 POP PUSH1 0x1 PUSH1 0x1 PUSH1 0x70 SHL SUB AND SWAP2 POP DUP2 PUSH1 0x0 EQ DUP1 ISZERO PUSH2 0x1CD9 JUMPI POP DUP1 ISZERO JUMPDEST DUP1 PUSH2 0x1CEB JUMPI POP DUP4 ISZERO DUP1 ISZERO PUSH2 0x1CEB JUMPI POP DUP3 ISZERO JUMPDEST ISZERO PUSH2 0x1CFE JUMPI PUSH1 0x0 SWAP6 POP POP POP POP POP POP PUSH2 0x1D97 JUMP JUMPDEST PUSH1 0x0 DUP6 PUSH1 0x1 PUSH1 0x1 PUSH1 0xA0 SHL SUB AND PUSH4 0x18160DDD PUSH1 0x40 MLOAD DUP2 PUSH4 0xFFFFFFFF AND PUSH1 0xE0 SHL DUP2 MSTORE PUSH1 0x4 ADD PUSH1 0x20 PUSH1 0x40 MLOAD DUP1 DUP4 SUB DUP2 DUP7 DUP1 EXTCODESIZE ISZERO DUP1 ISZERO PUSH2 0x1D39 JUMPI PUSH1 0x0 DUP1 REVERT JUMPDEST POP GAS STATICCALL ISZERO DUP1 ISZERO PUSH2 0x1D4D JUMPI RETURNDATASIZE PUSH1 0x0 DUP1 RETURNDATACOPY RETURNDATASIZE PUSH1 0x0 REVERT JUMPDEST POP POP POP POP PUSH1 0x40 MLOAD RETURNDATASIZE PUSH1 0x1F NOT PUSH1 0x1F DUP3 ADD AND DUP3 ADD DUP1 PUSH1 0x40 MSTORE POP DUP2 ADD SWAP1 PUSH2 0x1D71 SWAP2 SWAP1 PUSH2 0x3A88 JUMP JUMPDEST SWAP1 POP PUSH2 0x1D8E DUP2 PUSH2 0xF5C DUP8 PUSH2 0x1D85 JUMPI DUP5 PUSH2 0x1D87 JUMP JUMPDEST DUP6 JUMPDEST DUP12 SWAP1 PUSH2 0x3090 JUMP JUMPDEST SWAP7 POP POP POP POP POP POP POP JUMPDEST SWAP4 SWAP3 POP POP POP JUMP JUMPDEST PUSH1 0x0 DUP1 PUSH1 0xD DUP4 DUP2 SLOAD DUP2 LT PUSH2 0x1DB4 JUMPI PUSH2 0x1DB4 PUSH2 0x4060 JUMP JUMPDEST PUSH1 0x0 SWAP2 DUP3 MSTORE PUSH1 0x20 DUP3 KECCAK256 PUSH1 0x5 SLOAD PUSH1 0xA SWAP3 SWAP1 SWAP3 MUL ADD PUSH1 0x1 DUP2 ADD SLOAD SWAP1 SWAP4 POP PUSH1 0x1 PUSH1 0x1 PUSH1 0xA0 SHL SUB SWAP2 DUP3 AND SWAP2 AND EQ DUP1 PUSH2 0x1DF1 JUMPI POP DUP2 SLOAD PUSH1 0x1 PUSH1 0x1 PUSH1 0xA0 SHL SUB AND ISZERO ISZERO JUMPDEST ISZERO PUSH2 0x1E01 JUMPI POP PUSH1 0x6 DUP2 ADD SLOAD PUSH2 0x1D97 JUMP JUMPDEST PUSH1 0x1 DUP3 ADD SLOAD PUSH1 0x40 MLOAD PUSH4 0x70A08231 PUSH1 0xE0 SHL DUP2 MSTORE ADDRESS PUSH1 0x4 DUP3 ADD MSTORE PUSH1 0x1 PUSH1 0x1 PUSH1 0xA0 SHL SUB SWAP1 SWAP2 AND SWAP1 PUSH4 0x70A08231 SWAP1 PUSH1 0x24 ADD PUSH1 0x20 PUSH1 0x40 MLOAD DUP1 DUP4 SUB DUP2 DUP7 DUP1 EXTCODESIZE ISZERO DUP1 ISZERO PUSH2 0x1E46 JUMPI PUSH1 0x0 DUP1 REVERT JUMPDEST POP GAS STATICCALL ISZERO DUP1 ISZERO PUSH2 0x1E5A JUMPI RETURNDATASIZE PUSH1 0x0 DUP1 RETURNDATACOPY RETURNDATASIZE PUSH1 0x0 REVERT JUMPDEST POP POP POP POP PUSH1 0x40 MLOAD RETURNDATASIZE PUSH1 0x1F NOT PUSH1 0x1F DUP3 ADD AND DUP3 ADD DUP1 PUSH1 0x40 MSTORE POP DUP2 ADD SWAP1 PUSH2 0x1E7E SWAP2 SWAP1 PUSH2 0x3A88 JUMP JUMPDEST SWAP5 SWAP4 POP POP POP POP JUMP JUMPDEST PUSH1 0xD SLOAD PUSH1 0x0 JUMPDEST DUP2 DUP2 LT ISZERO PUSH2 0x940 JUMPI PUSH2 0x1E9D DUP2 PUSH2 0x1940 JUMP JUMPDEST PUSH2 0x1EA6 DUP2 PUSH2 0x4019 JUMP JUMPDEST SWAP1 POP PUSH2 0x1E8C JUMP JUMPDEST PUSH2 0x11B9 PUSH2 0x1065 JUMP JUMPDEST PUSH1 0xD DUP2 DUP2 SLOAD DUP2 LT PUSH2 0x1EC5 JUMPI PUSH1 0x0 DUP1 REVERT JUMPDEST PUSH1 0x0 SWAP2 DUP3 MSTORE PUSH1 0x20 SWAP1 SWAP2 KECCAK256 PUSH1 0xA SWAP1 SWAP2 MUL ADD DUP1 SLOAD PUSH1 0x1 DUP3 ADD SLOAD PUSH1 0x2 DUP4 ADD SLOAD PUSH1 0x3 DUP5 ADD SLOAD PUSH1 0x4 DUP6 ADD SLOAD PUSH1 0x5 DUP7 ADD SLOAD PUSH1 0x6 DUP8 ADD SLOAD PUSH1 0x7 DUP9 ADD SLOAD PUSH1 0x8 DUP10 ADD SLOAD PUSH1 0x9 SWAP1 SWAP10 ADD SLOAD PUSH1 0x1 PUSH1 0x1 PUSH1 0xA0 SHL SUB SWAP9 DUP10 AND SWAP11 POP SWAP8 SWAP1 SWAP7 AND SWAP8 SWAP5 SWAP7 SWAP4 SWAP6 SWAP3 SWAP5 PUSH2 0xFFFF SWAP1 SWAP3 AND SWAP4 SWAP1 SWAP3 SWAP2 SWAP1 PUSH1 0xFF AND DUP11 JUMP JUMPDEST PUSH1 0x7 DUP2 DUP2 SLOAD DUP2 LT PUSH2 0x1F3E JUMPI PUSH1 0x0 DUP1 REVERT JUMPDEST PUSH1 0x0 SWAP2 DUP3 MSTORE PUSH1 0x20 SWAP1 SWAP2 KECCAK256 ADD SLOAD SWAP1 POP DUP2 JUMP JUMPDEST PUSH1 0x0 SLOAD PUSH1 0x1 PUSH1 0x1 PUSH1 0xA0 SHL SUB AND CALLER EQ PUSH2 0x1F79 JUMPI PUSH1 0x40 MLOAD PUSH3 0x461BCD PUSH1 0xE5 SHL DUP2 MSTORE PUSH1 0x4 ADD PUSH2 0x815 SWAP1 PUSH2 0x3C7C JUMP JUMPDEST PUSH2 0x11B9 PUSH1 0x0 PUSH2 0x3257 JUMP JUMPDEST PUSH1 0x0 SLOAD PUSH1 0x1 PUSH1 0x1 PUSH1 0xA0 SHL SUB AND CALLER EQ PUSH2 0x1FAD JUMPI PUSH1 0x40 MLOAD PUSH3 0x461BCD PUSH1 0xE5 SHL DUP2 MSTORE PUSH1 0x4 ADD PUSH2 0x815 SWAP1 PUSH2 0x3C7C JUMP JUMPDEST PUSH1 0x40 DUP1 MLOAD DUP1 DUP3 ADD SWAP1 SWAP2 MSTORE PUSH1 0x7 DUP2 MSTORE PUSH7 0x39B2BA21B7B4B7 PUSH1 0xC9 SHL PUSH1 0x20 DUP3 ADD MSTORE PUSH1 0x2 SLOAD PUSH1 0xFF AND ISZERO DUP1 PUSH2 0x205D JUMPI POP PUSH1 0x3 DUP2 PUSH1 0x40 MLOAD PUSH2 0x1FE8 SWAP2 SWAP1 PUSH2 0x3C2D JUMP JUMPDEST SWAP1 DUP2 MSTORE PUSH1 0x20 ADD PUSH1 0x40 MLOAD DUP1 SWAP2 SUB SWAP1 KECCAK256 SLOAD PUSH1 0x0 EQ ISZERO DUP1 ISZERO PUSH2 0x2025 JUMPI POP TIMESTAMP PUSH1 0x3 DUP3 PUSH1 0x40 MLOAD PUSH2 0x2013 SWAP2 SWAP1 PUSH2 0x3C2D JUMP JUMPDEST SWAP1 DUP2 MSTORE PUSH1 0x20 ADD PUSH1 0x40 MLOAD DUP1 SWAP2 SUB SWAP1 KECCAK256 SLOAD GT ISZERO JUMPDEST DUP1 ISZERO PUSH2 0x205D JUMPI POP TIMESTAMP PUSH3 0x15180 PUSH1 0x3 DUP4 PUSH1 0x40 MLOAD PUSH2 0x2041 SWAP2 SWAP1 PUSH2 0x3C2D JUMP JUMPDEST SWAP1 DUP2 MSTORE PUSH1 0x20 ADD PUSH1 0x40 MLOAD DUP1 SWAP2 SUB SWAP1 KECCAK256 SLOAD PUSH2 0x205A SWAP2 SWAP1 PUSH2 0x3DAB JUMP JUMPDEST LT ISZERO JUMPDEST PUSH2 0x2079 JUMPI PUSH1 0x40 MLOAD PUSH3 0x461BCD PUSH1 0xE5 SHL DUP2 MSTORE PUSH1 0x4 ADD PUSH2 0x815 SWAP1 PUSH2 0x3CB1 JUMP JUMPDEST PUSH1 0x5 SLOAD PUSH1 0x1 PUSH1 0x1 PUSH1 0xA0 SHL SUB DUP4 DUP2 AND SWAP2 AND EQ ISZERO PUSH2 0x20EB JUMPI PUSH1 0x40 MLOAD PUSH3 0x461BCD PUSH1 0xE5 SHL DUP2 MSTORE PUSH1 0x20 PUSH1 0x4 DUP3 ADD MSTORE PUSH1 0x2B PUSH1 0x24 DUP3 ADD MSTORE PUSH32 0x41424F41543A3A736574436F696E3A2043616E2774207265706C616365207468 PUSH1 0x44 DUP3 ADD MSTORE PUSH11 0x329039B0B6B29031B7B4B7 PUSH1 0xA9 SHL PUSH1 0x64 DUP3 ADD MSTORE PUSH1 0x84 ADD PUSH2 0x815 JUMP JUMPDEST PUSH1 0x1 PUSH1 0x1 PUSH1 0xA0 SHL SUB DUP3 AND PUSH2 0x2158 JUMPI PUSH1 0x40 MLOAD PUSH3 0x461BCD PUSH1 0xE5 SHL DUP2 MSTORE PUSH1 0x20 PUSH1 0x4 DUP3 ADD MSTORE PUSH1 0x2E PUSH1 0x24 DUP3 ADD MSTORE PUSH32 0x41424F41543A3A736574436F696E3A2043616E27742073657420636F696E2074 PUSH1 0x44 DUP3 ADD MSTORE PUSH14 0x6F207A65726F2061646472657373 PUSH1 0x90 SHL PUSH1 0x64 DUP3 ADD MSTORE PUSH1 0x84 ADD PUSH2 0x815 JUMP JUMPDEST PUSH1 0x5 DUP1 SLOAD PUSH1 0x1 PUSH1 0x1 PUSH1 0xA0 SHL SUB DUP5 DUP2 AND PUSH1 0x1 PUSH1 0x1 PUSH1 0xA0 SHL SUB NOT DUP4 AND DUP2 OR SWAP1 SWAP4 SSTORE PUSH1 0x40 DUP1 MLOAD PUSH4 0x808A5457 PUSH1 0xE0 SHL DUP2 MSTORE SWAP1 MLOAD SWAP2 SWAP1 SWAP3 AND SWAP3 SWAP2 PUSH4 0x808A5457 SWAP2 PUSH1 0x4 DUP1 DUP4 ADD SWAP3 PUSH1 0x20 SWAP3 SWAP2 SWAP1 DUP3 SWAP1 SUB ADD DUP2 DUP7 DUP1 EXTCODESIZE ISZERO DUP1 ISZERO PUSH2 0x21B2 JUMPI PUSH1 0x0 DUP1 REVERT JUMPDEST POP GAS STATICCALL ISZERO DUP1 ISZERO PUSH2 0x21C6 JUMPI RETURNDATASIZE PUSH1 0x0 DUP1 RETURNDATACOPY RETURNDATASIZE PUSH1 0x0 REVERT JUMPDEST POP POP POP POP PUSH1 0x40 MLOAD RETURNDATASIZE PUSH1 0x1F NOT PUSH1 0x1F DUP3 ADD AND DUP3 ADD DUP1 PUSH1 0x40 MSTORE POP DUP2 ADD SWAP1 PUSH2 0x21EA SWAP2 SWAP1 PUSH2 0x3851 JUMP JUMPDEST PUSH1 0x6 DUP1 SLOAD PUSH1 0x1 PUSH1 0x1 PUSH1 0xA0 SHL SUB NOT AND PUSH1 0x1 PUSH1 0x1 PUSH1 0xA0 SHL SUB SWAP3 DUP4 AND OR SWAP1 SSTORE PUSH1 0x0 PUSH1 0x8 DUP2 SWAP1 SSTORE PUSH1 0xA DUP2 SWAP1 SSTORE PUSH1 0xB DUP2 SWAP1 SSTORE PUSH1 0x5 SLOAD PUSH1 0x40 MLOAD SWAP1 DUP4 AND SWAP3 DUP5 AND SWAP2 PUSH32 0x2DBA03F722A3E07E4F2D2132F8161A513EE0B79EAC0D928B67F5DFFB49316C1B SWAP2 LOG3 POP PUSH2 0x940 DUP2 PUSH2 0x258C JUMP JUMPDEST PUSH1 0xD SLOAD PUSH1 0x0 SWAP1 DUP2 DUP1 JUMPDEST DUP3 DUP2 LT ISZERO PUSH2 0x2341 JUMPI PUSH1 0x0 PUSH1 0xD DUP3 DUP2 SLOAD DUP2 LT PUSH2 0x2277 JUMPI PUSH2 0x2277 PUSH2 0x4060 JUMP JUMPDEST SWAP1 PUSH1 0x0 MSTORE PUSH1 0x20 PUSH1 0x0 KECCAK256 SWAP1 PUSH1 0xA MUL ADD SWAP1 POP DUP6 PUSH1 0x0 EQ DUP1 PUSH2 0x229A JUMPI POP DUP1 PUSH1 0x8 ADD SLOAD DUP7 GT ISZERO JUMPDEST ISZERO PUSH2 0x2330 JUMPI PUSH1 0x1 DUP2 ADD SLOAD PUSH1 0x5 SLOAD PUSH1 0x1 PUSH1 0x1 PUSH1 0xA0 SHL SUB SWAP2 DUP3 AND SWAP2 AND DUP1 DUP3 EQ DUP1 PUSH2 0x22C6 JUMPI POP PUSH1 0x9 DUP4 ADD SLOAD PUSH1 0xFF AND JUMPDEST ISZERO PUSH2 0x232D JUMPI PUSH1 0x0 DUP5 DUP2 MSTORE PUSH1 0xC PUSH1 0x20 SWAP1 DUP2 MSTORE PUSH1 0x40 DUP1 DUP4 KECCAK256 PUSH1 0x1 PUSH1 0x1 PUSH1 0xA0 SHL SUB DUP1 DUP15 AND DUP6 MSTORE SWAP3 MSTORE SWAP1 SWAP2 KECCAK256 SWAP1 DUP4 DUP2 AND SWAP1 DUP4 AND EQ ISZERO PUSH2 0x230F JUMPI DUP1 SLOAD PUSH2 0x2308 SWAP1 DUP8 SWAP1 PUSH2 0x3078 JUMP JUMPDEST SWAP6 POP PUSH2 0x232B JUMP JUMPDEST PUSH2 0x2328 PUSH2 0x2321 DUP5 DUP5 DUP5 PUSH1 0x0 ADD SLOAD PUSH2 0x1B13 JUMP JUMPDEST DUP8 SWAP1 PUSH2 0x3078 JUMP JUMPDEST SWAP6 POP JUMPDEST POP JUMPDEST POP POP JUMPDEST POP PUSH2 0x233A DUP2 PUSH2 0x4019 JUMP JUMPDEST SWAP1 POP PUSH2 0x225A JUMP JUMPDEST POP SWAP5 SWAP4 POP POP POP POP JUMP JUMPDEST PUSH1 0x0 SLOAD PUSH1 0x1 PUSH1 0x1 PUSH1 0xA0 SHL SUB AND CALLER EQ PUSH2 0x2374 JUMPI PUSH1 0x40 MLOAD PUSH3 0x461BCD PUSH1 0xE5 SHL DUP2 MSTORE PUSH1 0x4 ADD PUSH2 0x815 SWAP1 PUSH2 0x3C7C JUMP JUMPDEST PUSH2 0x2710 DUP6 PUSH2 0xFFFF AND GT ISZERO PUSH2 0x239A JUMPI PUSH1 0x40 MLOAD PUSH3 0x461BCD PUSH1 0xE5 SHL DUP2 MSTORE PUSH1 0x4 ADD PUSH2 0x815 SWAP1 PUSH2 0x3D69 JUMP JUMPDEST DUP1 ISZERO PUSH2 0x23A8 JUMPI PUSH2 0x23A8 PUSH2 0x1E86 JUMP JUMPDEST PUSH1 0x0 PUSH1 0x11 SLOAD NUMBER GT PUSH2 0x23BB JUMPI PUSH1 0x11 SLOAD PUSH2 0x23BD JUMP JUMPDEST NUMBER JUMPDEST PUSH1 0x12 SLOAD SWAP1 SWAP2 POP PUSH2 0x23CD SWAP1 DUP11 PUSH2 0x3078 JUMP JUMPDEST PUSH1 0x12 DUP2 SWAP1 SSTORE POP PUSH1 0xD PUSH1 0x40 MLOAD DUP1 PUSH2 0x140 ADD PUSH1 0x40 MSTORE DUP1 DUP8 PUSH1 0x1 PUSH1 0x1 PUSH1 0xA0 SHL SUB AND DUP2 MSTORE PUSH1 0x20 ADD DUP11 PUSH1 0x1 PUSH1 0x1 PUSH1 0xA0 SHL SUB AND DUP2 MSTORE PUSH1 0x20 ADD DUP12 DUP2 MSTORE PUSH1 0x20 ADD DUP4 DUP2 MSTORE PUSH1 0x20 ADD PUSH1 0x0 DUP2 MSTORE PUSH1 0x20 ADD DUP9 PUSH2 0xFFFF AND DUP2 MSTORE PUSH1 0x20 ADD PUSH1 0x0 DUP2 MSTORE PUSH1 0x20 ADD DUP10 DUP2 MSTORE PUSH1 0x20 ADD DUP7 DUP2 MSTORE PUSH1 0x20 ADD DUP6 ISZERO ISZERO DUP2 MSTORE POP SWAP1 DUP1 PUSH1 0x1 DUP2 SLOAD ADD DUP1 DUP3 SSTORE DUP1 SWAP2 POP POP PUSH1 0x1 SWAP1 SUB SWAP1 PUSH1 0x0 MSTORE PUSH1 0x20 PUSH1 0x0 KECCAK256 SWAP1 PUSH1 0xA MUL ADD PUSH1 0x0 SWAP1 SWAP2 SWAP1 SWAP2 SWAP1 SWAP2 POP PUSH1 0x0 DUP3 ADD MLOAD DUP2 PUSH1 0x0 ADD PUSH1 0x0 PUSH2 0x100 EXP DUP2 SLOAD DUP2 PUSH1 0x1 PUSH1 0x1 PUSH1 0xA0 SHL SUB MUL NOT AND SWAP1 DUP4 PUSH1 0x1 PUSH1 0x1 PUSH1 0xA0 SHL SUB AND MUL OR SWAP1 SSTORE POP PUSH1 0x20 DUP3 ADD MLOAD DUP2 PUSH1 0x1 ADD PUSH1 0x0 PUSH2 0x100 EXP DUP2 SLOAD DUP2 PUSH1 0x1 PUSH1 0x1 PUSH1 0xA0 SHL SUB MUL NOT AND SWAP1 DUP4 PUSH1 0x1 PUSH1 0x1 PUSH1 0xA0 SHL SUB AND MUL OR SWAP1 SSTORE POP PUSH1 0x40 DUP3 ADD MLOAD DUP2 PUSH1 0x2 ADD SSTORE PUSH1 0x60 DUP3 ADD MLOAD DUP2 PUSH1 0x3 ADD SSTORE PUSH1 0x80 DUP3 ADD MLOAD DUP2 PUSH1 0x4 ADD SSTORE PUSH1 0xA0 DUP3 ADD MLOAD DUP2 PUSH1 0x5 ADD PUSH1 0x0 PUSH2 0x100 EXP DUP2 SLOAD DUP2 PUSH2 0xFFFF MUL NOT AND SWAP1 DUP4 PUSH2 0xFFFF AND MUL OR SWAP1 SSTORE POP PUSH1 0xC0 DUP3 ADD MLOAD DUP2 PUSH1 0x6 ADD SSTORE PUSH1 0xE0 DUP3 ADD MLOAD DUP2 PUSH1 0x7 ADD SSTORE PUSH2 0x100 DUP3 ADD MLOAD DUP2 PUSH1 0x8 ADD SSTORE PUSH2 0x120 DUP3 ADD MLOAD DUP2 PUSH1 0x9 ADD PUSH1 0x0 PUSH2 0x100 EXP DUP2 SLOAD DUP2 PUSH1 0xFF MUL NOT AND SWAP1 DUP4 ISZERO ISZERO MUL OR SWAP1 SSTORE POP POP POP PUSH1 0x1 PUSH1 0xD DUP1 SLOAD SWAP1 POP PUSH2 0x254D SWAP2 SWAP1 PUSH2 0x3FD6 JUMP JUMPDEST PUSH1 0x40 MLOAD PUSH1 0x1 PUSH1 0x1 PUSH1 0xA0 SHL SUB DUP11 AND SWAP1 PUSH32 0xBE4222BC407CB12031595FC55B46531E46308D31E4572C9C4360D8AE790E1A31 SWAP1 PUSH1 0x0 SWAP1 LOG3 POP POP POP POP POP POP POP POP POP JUMP JUMPDEST CALLER PUSH2 0x259F PUSH1 0x0 SLOAD PUSH1 0x1 PUSH1 0x1 PUSH1 0xA0 SHL SUB AND SWAP1 JUMP JUMPDEST PUSH1 0x1 PUSH1 0x1 PUSH1 0xA0 SHL SUB AND EQ DUP1 PUSH2 0x25BE JUMPI POP PUSH1 0x4 SLOAD PUSH1 0x1 PUSH1 0x1 PUSH1 0xA0 SHL SUB AND CALLER EQ JUMPDEST PUSH2 0x25DA JUMPI PUSH1 0x40 MLOAD PUSH3 0x461BCD PUSH1 0xE5 SHL DUP2 MSTORE PUSH1 0x4 ADD PUSH2 0x815 SWAP1 PUSH2 0x3CDD JUMP JUMPDEST PUSH1 0x0 PUSH1 0x3 DUP3 PUSH1 0x40 MLOAD PUSH2 0x25EC SWAP2 SWAP1 PUSH2 0x3C2D JUMP JUMPDEST SWAP1 DUP2 MSTORE PUSH1 0x40 MLOAD SWAP1 DUP2 SWAP1 SUB PUSH1 0x20 ADD SWAP1 KECCAK256 SSTORE POP JUMP JUMPDEST PUSH1 0x0 DUP1 PUSH1 0xD DUP4 DUP2 SLOAD DUP2 LT PUSH2 0x2615 JUMPI PUSH2 0x2615 PUSH2 0x4060 JUMP JUMPDEST PUSH1 0x0 SWAP2 DUP3 MSTORE PUSH1 0x20 SWAP1 SWAP2 KECCAK256 PUSH1 0xA SWAP1 SWAP2 MUL ADD PUSH1 0x5 DUP2 ADD SLOAD DUP2 SLOAD SWAP2 SWAP3 POP PUSH2 0xFFFF AND SWAP1 PUSH1 0x1 PUSH1 0x1 PUSH1 0xA0 SHL SUB AND ISZERO PUSH2 0x1D97 JUMPI DUP2 SLOAD PUSH1 0x7 DUP4 ADD SLOAD PUSH1 0x40 MLOAD PUSH4 0x9FBE42E3 PUSH1 0xE0 SHL DUP2 MSTORE PUSH1 0x4 DUP2 ADD SWAP2 SWAP1 SWAP2 MSTORE PUSH2 0x1E7E SWAP2 PUSH1 0x1 PUSH1 0x1 PUSH1 0xA0 SHL SUB AND SWAP1 PUSH4 0x9FBE42E3 SWAP1 PUSH1 0x24 ADD PUSH1 0x20 PUSH1 0x40 MLOAD DUP1 DUP4 SUB DUP2 DUP7 DUP1 EXTCODESIZE ISZERO DUP1 ISZERO PUSH2 0x268D JUMPI PUSH1 0x0 DUP1 REVERT JUMPDEST POP GAS STATICCALL ISZERO DUP1 ISZERO PUSH2 0x26A1 JUMPI RETURNDATASIZE PUSH1 0x0 DUP1 RETURNDATACOPY RETURNDATASIZE PUSH1 0x0 REVERT JUMPDEST POP POP POP POP PUSH1 0x40 MLOAD RETURNDATASIZE PUSH1 0x1F NOT PUSH1 0x1F DUP3 ADD AND DUP3 ADD DUP1 PUSH1 0x40 MSTORE POP DUP2 ADD SWAP1 PUSH2 0x26C5 SWAP2 SWAP1 PUSH2 0x3A88 JUMP JUMPDEST DUP3 SWAP1 PUSH2 0x3078 JUMP JUMPDEST PUSH1 0x2 PUSH1 0x1 SLOAD EQ ISZERO PUSH2 0x26EF JUMPI PUSH1 0x40 MLOAD PUSH3 0x461BCD PUSH1 0xE5 SHL DUP2 MSTORE PUSH1 0x4 ADD PUSH2 0x815 SWAP1 PUSH2 0x3D32 JUMP JUMPDEST PUSH1 0x2 PUSH1 0x1 SSTORE CALLER PUSH1 0x0 SWAP1 DUP2 MSTORE PUSH1 0x17 PUSH1 0x20 MSTORE PUSH1 0x40 SWAP1 KECCAK256 SLOAD PUSH1 0xFF AND PUSH2 0x2785 JUMPI PUSH1 0x40 MLOAD PUSH3 0x461BCD PUSH1 0xE5 SHL DUP2 MSTORE PUSH1 0x20 PUSH1 0x4 DUP3 ADD MSTORE PUSH1 0x43 PUSH1 0x24 DUP3 ADD MSTORE PUSH32 0x41424F41543A3A6465706F736974466F72557365723A20596F7520617265206E PUSH1 0x44 DUP3 ADD MSTORE PUSH32 0x6F7420616C6C6F77656420746F20657865637574652074686973206465706F73 PUSH1 0x64 DUP3 ADD MSTORE PUSH3 0x34BA17 PUSH1 0xE9 SHL PUSH1 0x84 DUP3 ADD MSTORE PUSH1 0xA4 ADD PUSH2 0x815 JUMP JUMPDEST PUSH2 0x2790 DUP4 DUP4 DUP4 PUSH2 0x32A7 JUMP JUMPDEST POP POP PUSH1 0x1 DUP1 SSTORE POP JUMP JUMPDEST CALLER PUSH2 0x27AC PUSH1 0x0 SLOAD PUSH1 0x1 PUSH1 0x1 PUSH1 0xA0 SHL SUB AND SWAP1 JUMP JUMPDEST PUSH1 0x1 PUSH1 0x1 PUSH1 0xA0 SHL SUB AND EQ DUP1 PUSH2 0x27CB JUMPI POP PUSH1 0x4 SLOAD PUSH1 0x1 PUSH1 0x1 PUSH1 0xA0 SHL SUB AND CALLER EQ JUMPDEST PUSH2 0x27E7 JUMPI PUSH1 0x40 MLOAD PUSH3 0x461BCD PUSH1 0xE5 SHL DUP2 MSTORE PUSH1 0x4 ADD PUSH2 0x815 SWAP1 PUSH2 0x3CDD JUMP JUMPDEST PUSH2 0x27F4 PUSH3 0x15180 TIMESTAMP PUSH2 0x3DAB JUMP JUMPDEST PUSH1 0x3 DUP3 PUSH1 0x40 MLOAD PUSH2 0x2804 SWAP2 SWAP1 PUSH2 0x3C2D JUMP JUMPDEST SWAP1 DUP2 MSTORE PUSH1 0x20 ADD PUSH1 0x40 MLOAD DUP1 SWAP2 SUB SWAP1 KECCAK256 DUP2 SWAP1 SSTORE POP PUSH1 0x3 DUP2 PUSH1 0x40 MLOAD PUSH2 0x2826 SWAP2 SWAP1 PUSH2 0x3C2D JUMP JUMPDEST SWAP1 DUP2 MSTORE PUSH1 0x20 ADD PUSH1 0x40 MLOAD DUP1 SWAP2 SUB SWAP1 KECCAK256 SLOAD DUP2 PUSH1 0x40 MLOAD PUSH2 0x2843 SWAP2 SWAP1 PUSH2 0x3C2D JUMP JUMPDEST PUSH1 0x40 MLOAD SWAP1 DUP2 SWAP1 SUB DUP2 KECCAK256 SWAP1 PUSH32 0xF77F9A799FE8B0BE1463ABD7459A18FC55DFD8A6A24DDD29B54FD098088089C8 SWAP1 PUSH1 0x0 SWAP1 LOG3 POP JUMP JUMPDEST PUSH1 0x0 DUP1 DUP1 DUP1 JUMPDEST PUSH1 0x8 SLOAD DUP2 GT PUSH2 0x28F6 JUMPI PUSH1 0x0 PUSH1 0x7 DUP3 DUP2 SLOAD DUP2 LT PUSH2 0x289A JUMPI PUSH2 0x289A PUSH2 0x4060 JUMP JUMPDEST SWAP1 PUSH1 0x0 MSTORE PUSH1 0x20 PUSH1 0x0 KECCAK256 ADD SLOAD GT ISZERO PUSH2 0x28E4 JUMPI PUSH1 0x7 DUP2 DUP2 SLOAD DUP2 LT PUSH2 0x28BE JUMPI PUSH2 0x28BE PUSH2 0x4060 JUMP JUMPDEST SWAP1 PUSH1 0x0 MSTORE PUSH1 0x20 PUSH1 0x0 KECCAK256 ADD SLOAD DUP4 PUSH2 0x28D4 SWAP2 SWAP1 PUSH2 0x3DAB JUMP JUMPDEST SWAP3 POP DUP2 PUSH2 0x28E0 DUP2 PUSH2 0x4019 JUMP JUMPDEST SWAP3 POP POP JUMPDEST DUP1 PUSH2 0x28EE DUP2 PUSH2 0x4019 JUMP JUMPDEST SWAP2 POP POP PUSH2 0x287C JUMP JUMPDEST POP PUSH1 0x0 DUP3 GT DUP1 ISZERO PUSH2 0x2907 JUMPI POP PUSH1 0x0 DUP2 GT JUMPDEST ISZERO PUSH2 0x291D JUMPI PUSH2 0x2916 DUP3 DUP3 PUSH2 0x309C JUMP JUMPDEST SWAP3 POP POP POP SWAP1 JUMP JUMPDEST POP SWAP2 SWAP1 POP JUMP JUMPDEST PUSH1 0x2 PUSH1 0x1 SLOAD EQ ISZERO PUSH2 0x2946 JUMPI PUSH1 0x40 MLOAD PUSH3 0x461BCD PUSH1 0xE5 SHL DUP2 MSTORE PUSH1 0x4 ADD PUSH2 0x815 SWAP1 PUSH2 0x3D32 JUMP JUMPDEST PUSH1 0x2 PUSH1 0x1 DUP2 SWAP1 SSTORE POP PUSH1 0x0 PUSH1 0xD DUP3 DUP2 SLOAD DUP2 LT PUSH2 0x2963 JUMPI PUSH2 0x2963 PUSH2 0x4060 JUMP JUMPDEST PUSH1 0x0 SWAP2 DUP3 MSTORE PUSH1 0x20 DUP1 DUP4 KECCAK256 DUP6 DUP5 MSTORE PUSH1 0xC DUP3 MSTORE PUSH1 0x40 DUP1 DUP6 KECCAK256 CALLER DUP7 MSTORE SWAP1 SWAP3 MSTORE SWAP3 KECCAK256 PUSH1 0x8 PUSH1 0xA SWAP1 SWAP3 MUL SWAP1 SWAP3 ADD SWAP1 DUP2 ADD SLOAD SWAP1 SWAP3 POP TIMESTAMP SWAP1 PUSH2 0x29B0 SWAP1 PUSH2 0x29A5 SWAP1 PUSH3 0x15180 PUSH2 0x3F78 JUMP JUMPDEST PUSH1 0x2 DUP5 ADD SLOAD SWAP1 PUSH2 0x3078 JUMP JUMPDEST GT ISZERO PUSH2 0x2A37 JUMPI PUSH1 0x40 MLOAD PUSH3 0x461BCD PUSH1 0xE5 SHL DUP2 MSTORE PUSH1 0x20 PUSH1 0x4 DUP3 ADD MSTORE PUSH1 0x4A PUSH1 0x24 DUP3 ADD MSTORE PUSH32 0x41424F41543A3A7769746864726177576974686F7574526577617264733A2043 PUSH1 0x44 DUP3 ADD MSTORE PUSH32 0x616E2774207769746864726177206265666F7265206C6F636B696E6720706572 PUSH1 0x64 DUP3 ADD MSTORE PUSH10 0x34B7B21032B73232B217 PUSH1 0xB1 SHL PUSH1 0x84 DUP3 ADD MSTORE PUSH1 0xA4 ADD PUSH2 0x815 JUMP JUMPDEST DUP1 SLOAD PUSH1 0x6 DUP4 ADD SLOAD PUSH2 0x2A48 SWAP1 DUP3 PUSH2 0x3084 JUMP JUMPDEST PUSH1 0x6 DUP5 ADD SSTORE PUSH1 0x0 DUP1 DUP4 SSTORE PUSH1 0x1 DUP4 ADD SSTORE DUP3 SLOAD PUSH1 0x1 PUSH1 0x1 PUSH1 0xA0 SHL SUB AND ISZERO PUSH2 0x2ADC JUMPI DUP3 SLOAD PUSH1 0x7 DUP5 ADD SLOAD PUSH1 0x40 MLOAD PUSH4 0x3DCACA93 PUSH1 0xE2 SHL DUP2 MSTORE PUSH1 0x4 DUP2 ADD SWAP2 SWAP1 SWAP2 MSTORE PUSH1 0x24 DUP2 ADD DUP4 SWAP1 MSTORE CALLER PUSH1 0x44 DUP3 ADD MSTORE PUSH1 0x1 PUSH1 0x1 PUSH1 0xA0 SHL SUB SWAP1 SWAP2 AND SWAP1 PUSH4 0xF72B2A4C SWAP1 PUSH1 0x64 ADD PUSH1 0x0 PUSH1 0x40 MLOAD DUP1 DUP4 SUB DUP2 PUSH1 0x0 DUP8 DUP1 EXTCODESIZE ISZERO DUP1 ISZERO PUSH2 0x2ABF JUMPI PUSH1 0x0 DUP1 REVERT JUMPDEST POP GAS CALL ISZERO DUP1 ISZERO PUSH2 0x2AD3 JUMPI RETURNDATASIZE PUSH1 0x0 DUP1 RETURNDATACOPY RETURNDATASIZE PUSH1 0x0 REVERT JUMPDEST POP POP POP POP PUSH2 0x2AF5 JUMP JUMPDEST PUSH1 0x1 DUP4 ADD SLOAD PUSH2 0x2AF5 SWAP1 PUSH1 0x1 PUSH1 0x1 PUSH1 0xA0 SHL SUB AND CALLER DUP4 PUSH2 0x31F4 JUMP JUMPDEST PUSH1 0x5 SLOAD PUSH1 0x1 DUP5 ADD SLOAD PUSH1 0x1 PUSH1 0x1 PUSH1 0xA0 SHL SUB SWAP1 DUP2 AND SWAP2 AND EQ ISZERO PUSH2 0x2B21 JUMPI PUSH1 0x13 SLOAD PUSH2 0x2B1D SWAP1 DUP3 PUSH2 0x3084 JUMP JUMPDEST PUSH1 0x13 SSTORE JUMPDEST PUSH1 0x40 MLOAD DUP2 DUP2 MSTORE DUP5 SWAP1 CALLER SWAP1 PUSH32 0xBB757047C2B5F3974FE26B7C10F732E7BCE710B0952A71082702781E62AE0595 SWAP1 PUSH1 0x20 ADD PUSH1 0x40 MLOAD DUP1 SWAP2 SUB SWAP1 LOG3 POP POP PUSH1 0x1 DUP1 SSTORE POP POP JUMP JUMPDEST PUSH1 0x10 SLOAD PUSH1 0x0 SWAP1 DUP3 ISZERO PUSH2 0x2B89 JUMPI PUSH2 0x2B82 PUSH2 0x26C5 PUSH3 0xF4240 PUSH2 0xF5C DUP5 DUP9 PUSH2 0x3090 JUMP JUMPDEST SWAP1 POP PUSH2 0x1D97 JUMP JUMPDEST PUSH2 0x1E7E PUSH2 0x2B9D PUSH3 0xF4240 PUSH2 0xF5C DUP5 DUP9 PUSH2 0x3090 JUMP JUMPDEST DUP3 SWAP1 PUSH2 0x3084 JUMP JUMPDEST PUSH1 0x0 SLOAD PUSH1 0x1 PUSH1 0x1 PUSH1 0xA0 SHL SUB AND CALLER EQ PUSH2 0x2BCE JUMPI PUSH1 0x40 MLOAD PUSH3 0x461BCD PUSH1 0xE5 SHL DUP2 MSTORE PUSH1 0x4 ADD PUSH2 0x815 SWAP1 PUSH2 0x3C7C JUMP JUMPDEST PUSH1 0x40 DUP1 MLOAD DUP1 DUP3 ADD SWAP1 SWAP2 MSTORE PUSH1 0xD DUP2 MSTORE PUSH13 0x73657444657641646472657373 PUSH1 0x98 SHL PUSH1 0x20 DUP3 ADD MSTORE PUSH1 0x2 SLOAD PUSH1 0xFF AND ISZERO DUP1 PUSH2 0x2C84 JUMPI POP PUSH1 0x3 DUP2 PUSH1 0x40 MLOAD PUSH2 0x2C0F SWAP2 SWAP1 PUSH2 0x3C2D JUMP JUMPDEST SWAP1 DUP2 MSTORE PUSH1 0x20 ADD PUSH1 0x40 MLOAD DUP1 SWAP2 SUB SWAP1 KECCAK256 SLOAD PUSH1 0x0 EQ ISZERO DUP1 ISZERO PUSH2 0x2C4C JUMPI POP TIMESTAMP PUSH1 0x3 DUP3 PUSH1 0x40 MLOAD PUSH2 0x2C3A SWAP2 SWAP1 PUSH2 0x3C2D JUMP JUMPDEST SWAP1 DUP2 MSTORE PUSH1 0x20 ADD PUSH1 0x40 MLOAD DUP1 SWAP2 SUB SWAP1 KECCAK256 SLOAD GT ISZERO JUMPDEST DUP1 ISZERO PUSH2 0x2C84 JUMPI POP TIMESTAMP PUSH3 0x15180 PUSH1 0x3 DUP4 PUSH1 0x40 MLOAD PUSH2 0x2C68 SWAP2 SWAP1 PUSH2 0x3C2D JUMP JUMPDEST SWAP1 DUP2 MSTORE PUSH1 0x20 ADD PUSH1 0x40 MLOAD DUP1 SWAP2 SUB SWAP1 KECCAK256 SLOAD PUSH2 0x2C81 SWAP2 SWAP1 PUSH2 0x3DAB JUMP JUMPDEST LT ISZERO JUMPDEST PUSH2 0x2CA0 JUMPI PUSH1 0x40 MLOAD PUSH3 0x461BCD PUSH1 0xE5 SHL DUP2 MSTORE PUSH1 0x4 ADD PUSH2 0x815 SWAP1 PUSH2 0x3CB1 JUMP JUMPDEST PUSH1 0x1 PUSH1 0x1 PUSH1 0xA0 SHL SUB DUP3 AND PUSH2 0x2D05 JUMPI PUSH1 0x40 MLOAD PUSH3 0x461BCD PUSH1 0xE5 SHL DUP2 MSTORE PUSH1 0x20 PUSH1 0x4 DUP3 ADD MSTORE PUSH1 0x26 PUSH1 0x24 DUP3 ADD MSTORE PUSH32 0x44657620616464726573732073686F756C64206E6F74206265207A65726F2061 PUSH1 0x44 DUP3 ADD MSTORE PUSH6 0x646472657373 PUSH1 0xD0 SHL PUSH1 0x64 DUP3 ADD MSTORE PUSH1 0x84 ADD PUSH2 0x815 JUMP JUMPDEST PUSH1 0xE DUP1 SLOAD PUSH1 0x1 PUSH1 0x1 PUSH1 0xA0 SHL SUB NOT AND PUSH1 0x1 PUSH1 0x1 PUSH1 0xA0 SHL SUB DUP5 AND SWAP1 DUP2 OR SWAP1 SWAP2 SSTORE PUSH1 0x40 MLOAD CALLER SWAP1 PUSH32 0x618C54559E94F1499A808AAD71EE8729F8E74E8C48E979616328CE493A1A52E7 SWAP1 PUSH1 0x0 SWAP1 LOG3 PUSH2 0x940 DUP2 PUSH2 0x258C JUMP JUMPDEST PUSH1 0x2 PUSH1 0x1 SLOAD EQ ISZERO PUSH2 0x2D7A JUMPI PUSH1 0x40 MLOAD PUSH3 0x461BCD PUSH1 0xE5 SHL DUP2 MSTORE PUSH1 0x4 ADD PUSH2 0x815 SWAP1 PUSH2 0x3D32 JUMP JUMPDEST PUSH1 0x2 PUSH1 0x1 SSTORE PUSH2 0x2D8A DUP3 DUP3 CALLER PUSH2 0x32A7 JUMP JUMPDEST POP POP PUSH1 0x1 DUP1 SSTORE JUMP JUMPDEST PUSH1 0x0 DUP1 DUP3 PUSH2 0x2DA0 DUP2 DUP7 PUSH2 0x3F97 JUMP JUMPDEST PUSH2 0x2DAB SWAP1 PUSH1 0x64 PUSH2 0x3EF3 JUMP JUMPDEST PUSH2 0x2DB7 SWAP1 PUSH2 0x2710 PUSH2 0x3EF3 JUMP JUMPDEST PUSH2 0x2DC1 SWAP2 SWAP1 PUSH2 0x3DC3 JUMP JUMPDEST SWAP1 POP PUSH1 0x0 DUP2 SLT ISZERO PUSH2 0x1D97 JUMPI PUSH2 0x1E7E PUSH1 0x0 NOT DUP3 PUSH2 0x3EF3 JUMP JUMPDEST PUSH1 0x0 DUP1 PUSH1 0xD DUP5 DUP2 SLOAD DUP2 LT PUSH2 0x2DEE JUMPI PUSH2 0x2DEE PUSH2 0x4060 JUMP JUMPDEST PUSH1 0x0 SWAP2 DUP3 MSTORE PUSH1 0x20 DUP1 DUP4 KECCAK256 DUP8 DUP5 MSTORE PUSH1 0xC DUP3 MSTORE PUSH1 0x40 DUP1 DUP6 KECCAK256 PUSH1 0x1 PUSH1 0x1 PUSH1 0xA0 SHL SUB DUP10 AND DUP7 MSTORE SWAP1 SWAP3 MSTORE SWAP1 DUP4 KECCAK256 PUSH1 0xA SWAP3 SWAP1 SWAP3 MUL ADD PUSH1 0x4 DUP2 ADD SLOAD SWAP1 SWAP4 POP SWAP1 SWAP2 PUSH2 0x2E30 DUP8 PUSH2 0x1D9E JUMP JUMPDEST SWAP1 POP DUP4 PUSH1 0x3 ADD SLOAD NUMBER GT DUP1 ISZERO PUSH2 0x2E44 JUMPI POP DUP1 ISZERO ISZERO JUMPDEST ISZERO PUSH2 0x2EAD JUMPI PUSH1 0x0 PUSH2 0x2E62 DUP6 PUSH1 0x3 ADD SLOAD NUMBER PUSH2 0x3084 SWAP1 SWAP2 SWAP1 PUSH4 0xFFFFFFFF AND JUMP JUMPDEST SWAP1 POP PUSH1 0x0 PUSH2 0x2E89 PUSH1 0x12 SLOAD PUSH2 0xF5C DUP9 PUSH1 0x2 ADD SLOAD PUSH2 0x19D1 PUSH1 0x10 SLOAD DUP8 PUSH2 0x3090 SWAP1 SWAP2 SWAP1 PUSH4 0xFFFFFFFF AND JUMP JUMPDEST SWAP1 POP PUSH2 0x2EA8 PUSH2 0x2EA1 DUP5 PUSH2 0xF5C DUP5 PUSH5 0xE8D4A51000 PUSH2 0x3090 JUMP JUMPDEST DUP6 SWAP1 PUSH2 0x3078 JUMP JUMPDEST SWAP4 POP POP POP JUMPDEST PUSH2 0x2ED5 DUP4 PUSH1 0x1 ADD SLOAD PUSH2 0xF62 PUSH5 0xE8D4A51000 PUSH2 0xF5C DUP7 DUP9 PUSH1 0x0 ADD SLOAD PUSH2 0x3090 SWAP1 SWAP2 SWAP1 PUSH4 0xFFFFFFFF AND JUMP JUMPDEST SWAP8 SWAP7 POP POP POP POP POP POP POP JUMP JUMPDEST PUSH1 0x0 SLOAD PUSH1 0x1 PUSH1 0x1 PUSH1 0xA0 SHL SUB AND CALLER EQ PUSH2 0x2F0A JUMPI PUSH1 0x40 MLOAD PUSH3 0x461BCD PUSH1 0xE5 SHL DUP2 MSTORE PUSH1 0x4 ADD PUSH2 0x815 SWAP1 PUSH2 0x3C7C JUMP JUMPDEST PUSH1 0x16 DUP1 SLOAD PUSH2 0xFFFF NOT AND PUSH2 0xFFFF DUP4 AND SWAP1 DUP2 OR SWAP1 SWAP2 SSTORE PUSH1 0x40 MLOAD SWAP1 DUP2 MSTORE CALLER SWAP1 PUSH32 0xBAD81196170FB9427A5CE7ABE0FDF496BB5F5F8BDBACBD118FE8FD7760248B26 SWAP1 PUSH1 0x20 ADD JUMPDEST PUSH1 0x40 MLOAD DUP1 SWAP2 SUB SWAP1 LOG2 POP JUMP JUMPDEST PUSH1 0x0 SLOAD PUSH1 0x1 PUSH1 0x1 PUSH1 0xA0 SHL SUB AND CALLER EQ PUSH2 0x2F81 JUMPI PUSH1 0x40 MLOAD PUSH3 0x461BCD PUSH1 0xE5 SHL DUP2 MSTORE PUSH1 0x4 ADD PUSH2 0x815 SWAP1 PUSH2 0x3C7C JUMP JUMPDEST PUSH1 0x1 PUSH1 0x1 PUSH1 0xA0 SHL SUB DUP2 AND PUSH2 0x2FE6 JUMPI PUSH1 0x40 MLOAD PUSH3 0x461BCD PUSH1 0xE5 SHL DUP2 MSTORE PUSH1 0x20 PUSH1 0x4 DUP3 ADD MSTORE PUSH1 0x26 PUSH1 0x24 DUP3 ADD MSTORE PUSH32 0x4F776E61626C653A206E6577206F776E657220697320746865207A65726F2061 PUSH1 0x44 DUP3 ADD MSTORE PUSH6 0x646472657373 PUSH1 0xD0 SHL PUSH1 0x64 DUP3 ADD MSTORE PUSH1 0x84 ADD PUSH2 0x815 JUMP JUMPDEST PUSH2 0x2FEF DUP2 PUSH2 0x3257 JUMP JUMPDEST POP JUMP JUMPDEST CALLER PUSH2 0x3005 PUSH1 0x0 SLOAD PUSH1 0x1 PUSH1 0x1 PUSH1 0xA0 SHL SUB AND SWAP1 JUMP JUMPDEST PUSH1 0x1 PUSH1 0x1 PUSH1 0xA0 SHL SUB AND EQ DUP1 PUSH2 0x3024 JUMPI POP PUSH1 0x4 SLOAD PUSH1 0x1 PUSH1 0x1 PUSH1 0xA0 SHL SUB AND CALLER EQ JUMPDEST PUSH2 0x3040 JUMPI PUSH1 0x40 MLOAD PUSH3 0x461BCD PUSH1 0xE5 SHL DUP2 MSTORE PUSH1 0x4 ADD PUSH2 0x815 SWAP1 PUSH2 0x3CDD JUMP JUMPDEST PUSH1 0x2 DUP1 SLOAD PUSH1 0xFF NOT AND PUSH1 0x1 OR SWAP1 SSTORE PUSH1 0x40 MLOAD PUSH32 0x2C08B62BFAC9A1B19BB1DEC9323F1CE01696A77948B256ABF3603D30F25A864E SWAP1 PUSH1 0x0 SWAP1 LOG1 JUMP JUMPDEST PUSH1 0x0 PUSH2 0x1D97 DUP3 DUP5 PUSH2 0x3DAB JUMP JUMPDEST PUSH1 0x0 PUSH2 0x1D97 DUP3 DUP5 PUSH2 0x3FD6 JUMP JUMPDEST PUSH1 0x0 PUSH2 0x1D97 DUP3 DUP5 PUSH2 0x3F78 JUMP JUMPDEST PUSH1 0x0 PUSH2 0x1D97 DUP3 DUP5 PUSH2 0x3DF1 JUMP JUMPDEST PUSH1 0x13 SLOAD PUSH1 0x5 SLOAD PUSH1 0x40 MLOAD PUSH4 0x70A08231 PUSH1 0xE0 SHL DUP2 MSTORE ADDRESS PUSH1 0x4 DUP3 ADD MSTORE PUSH1 0x0 SWAP3 PUSH2 0x312F SWAP3 SWAP1 SWAP2 PUSH1 0x1 PUSH1 0x1 PUSH1 0xA0 SHL SUB SWAP1 SWAP2 AND SWAP1 PUSH4 0x70A08231 SWAP1 PUSH1 0x24 ADD PUSH1 0x20 PUSH1 0x40 MLOAD DUP1 DUP4 SUB DUP2 DUP7 DUP1 EXTCODESIZE ISZERO DUP1 ISZERO PUSH2 0x30F7 JUMPI PUSH1 0x0 DUP1 REVERT JUMPDEST POP GAS STATICCALL ISZERO DUP1 ISZERO PUSH2 0x310B JUMPI RETURNDATASIZE PUSH1 0x0 DUP1 RETURNDATACOPY RETURNDATASIZE PUSH1 0x0 REVERT JUMPDEST POP POP POP POP PUSH1 0x40 MLOAD RETURNDATASIZE PUSH1 0x1F NOT PUSH1 0x1F DUP3 ADD AND DUP3 ADD DUP1 PUSH1 0x40 MSTORE POP DUP2 ADD SWAP1 PUSH2 0xF62 SWAP2 SWAP1 PUSH2 0x3A88 JUMP JUMPDEST SWAP1 POP DUP1 DUP3 GT ISZERO PUSH2 0x3155 JUMPI PUSH1 0x5 SLOAD PUSH2 0x3150 SWAP1 PUSH1 0x1 PUSH1 0x1 PUSH1 0xA0 SHL SUB AND DUP5 DUP4 PUSH2 0x31F4 JUMP JUMPDEST POP POP POP JUMP JUMPDEST PUSH1 0x5 SLOAD PUSH2 0x3150 SWAP1 PUSH1 0x1 PUSH1 0x1 PUSH1 0xA0 SHL SUB AND DUP5 DUP5 PUSH2 0x31F4 JUMP JUMPDEST PUSH1 0xA DUP1 SLOAD PUSH1 0xB DUP2 SWAP1 SSTORE SWAP1 DUP3 SWAP1 SSTORE PUSH1 0x40 MLOAD DUP3 SWAP2 SWAP1 PUSH32 0x4DB09FF035E174C21F4ED503B26C1FE141926CAA59E40FE975BDA1583C3EBFBA SWAP1 PUSH1 0x0 SWAP1 LOG3 POP JUMP JUMPDEST PUSH1 0x0 PUSH2 0x31B8 PUSH1 0xA SLOAD PUSH1 0xB SLOAD PUSH2 0x2D92 JUMP JUMPDEST PUSH1 0x16 SLOAD SWAP1 SWAP2 POP PUSH2 0xFFFF AND DUP2 GT ISZERO PUSH2 0x31D2 JUMPI POP PUSH1 0x16 SLOAD PUSH2 0xFFFF AND JUMPDEST PUSH1 0x0 PUSH2 0x31E4 DUP3 PUSH1 0xB SLOAD PUSH1 0xA SLOAD GT PUSH2 0x2B62 JUMP JUMPDEST PUSH1 0x15 DUP4 SWAP1 SSTORE SWAP1 POP PUSH2 0x940 DUP2 PUSH2 0x35BC JUMP JUMPDEST PUSH1 0x40 MLOAD PUSH1 0x1 PUSH1 0x1 PUSH1 0xA0 SHL SUB DUP4 AND PUSH1 0x24 DUP3 ADD MSTORE PUSH1 0x44 DUP2 ADD DUP3 SWAP1 MSTORE PUSH2 0x3150 SWAP1 DUP5 SWAP1 PUSH4 0xA9059CBB PUSH1 0xE0 SHL SWAP1 PUSH1 0x64 ADD JUMPDEST PUSH1 0x40 DUP1 MLOAD PUSH1 0x1F NOT DUP2 DUP5 SUB ADD DUP2 MSTORE SWAP2 SWAP1 MSTORE PUSH1 0x20 DUP2 ADD DUP1 MLOAD PUSH1 0x1 PUSH1 0x1 PUSH1 0xE0 SHL SUB AND PUSH1 0x1 PUSH1 0x1 PUSH1 0xE0 SHL SUB NOT SWAP1 SWAP4 AND SWAP3 SWAP1 SWAP3 OR SWAP1 SWAP2 MSTORE PUSH2 0x35FB JUMP JUMPDEST PUSH1 0x0 DUP1 SLOAD PUSH1 0x1 PUSH1 0x1 PUSH1 0xA0 SHL SUB DUP4 DUP2 AND PUSH1 0x1 PUSH1 0x1 PUSH1 0xA0 SHL SUB NOT DUP4 AND DUP2 OR DUP5 SSTORE PUSH1 0x40 MLOAD SWAP2 SWAP1 SWAP3 AND SWAP3 DUP4 SWAP2 PUSH32 0x8BE0079C531659141344CD1FD0A4F28419497F9722A3DAAFE3B4186F6B6457E0 SWAP2 SWAP1 LOG3 POP POP JUMP JUMPDEST PUSH1 0x0 PUSH1 0xD DUP5 DUP2 SLOAD DUP2 LT PUSH2 0x32BC JUMPI PUSH2 0x32BC PUSH2 0x4060 JUMP JUMPDEST PUSH1 0x0 SWAP2 DUP3 MSTORE PUSH1 0x20 DUP1 DUP4 KECCAK256 DUP8 DUP5 MSTORE PUSH1 0xC DUP3 MSTORE PUSH1 0x40 DUP1 DUP6 KECCAK256 PUSH1 0x1 PUSH1 0x1 PUSH1 0xA0 SHL SUB DUP9 AND DUP7 MSTORE SWAP1 SWAP3 MSTORE SWAP3 KECCAK256 PUSH1 0xA SWAP1 SWAP2 MUL SWAP1 SWAP2 ADD SWAP2 POP PUSH2 0x32F6 DUP6 PUSH2 0x1940 JUMP JUMPDEST DUP1 SLOAD ISZERO DUP1 ISZERO SWAP1 PUSH2 0x330E JUMPI POP PUSH1 0x1 PUSH1 0x1 PUSH1 0xA0 SHL SUB DUP4 AND CALLER EQ JUMPDEST ISZERO PUSH2 0x3355 JUMPI PUSH1 0x0 PUSH2 0x3341 DUP3 PUSH1 0x1 ADD SLOAD PUSH2 0xF62 PUSH5 0xE8D4A51000 PUSH2 0xF5C DUP8 PUSH1 0x4 ADD SLOAD DUP8 PUSH1 0x0 ADD SLOAD PUSH2 0x3090 SWAP1 SWAP2 SWAP1 PUSH4 0xFFFFFFFF AND JUMP JUMPDEST SWAP1 POP DUP1 ISZERO PUSH2 0x3353 JUMPI PUSH2 0x3353 DUP5 DUP3 PUSH2 0x30A8 JUMP JUMPDEST POP JUMPDEST DUP4 DUP1 ISZERO PUSH2 0x3519 JUMPI TIMESTAMP PUSH1 0x2 DUP4 ADD SSTORE PUSH1 0x1 DUP4 ADD SLOAD PUSH2 0x337C SWAP1 PUSH1 0x1 PUSH1 0x1 PUSH1 0xA0 SHL SUB AND CALLER ADDRESS DUP9 PUSH2 0x36CD JUMP JUMPDEST PUSH1 0x5 DUP4 ADD SLOAD PUSH2 0xFFFF AND ISZERO PUSH2 0x33EC JUMPI PUSH1 0x5 DUP4 ADD SLOAD PUSH1 0x0 SWAP1 PUSH2 0x33A9 SWAP1 PUSH2 0x2710 SWAP1 PUSH2 0xF5C SWAP1 DUP10 SWAP1 PUSH2 0xFFFF AND PUSH2 0x3090 JUMP JUMPDEST PUSH1 0xF SLOAD PUSH1 0x1 DUP7 ADD SLOAD SWAP2 SWAP3 POP PUSH2 0x33CB SWAP2 PUSH1 0x1 PUSH1 0x1 PUSH1 0xA0 SHL SUB SWAP1 DUP2 AND SWAP2 AND DUP4 PUSH2 0x31F4 JUMP JUMPDEST PUSH2 0x33D5 DUP7 DUP3 PUSH2 0x3084 JUMP JUMPDEST DUP4 SLOAD SWAP1 SWAP3 POP PUSH2 0x33E4 SWAP1 DUP4 PUSH2 0x3078 JUMP JUMPDEST DUP4 SSTORE POP PUSH2 0x33FB JUMP JUMPDEST DUP2 SLOAD PUSH2 0x33F8 SWAP1 DUP7 PUSH2 0x3078 JUMP JUMPDEST DUP3 SSTORE JUMPDEST PUSH1 0x6 DUP4 ADD SLOAD PUSH2 0x340A SWAP1 DUP3 PUSH2 0x3078 JUMP JUMPDEST PUSH1 0x6 DUP5 ADD SSTORE DUP3 SLOAD PUSH1 0x1 PUSH1 0x1 PUSH1 0xA0 SHL SUB AND ISZERO PUSH2 0x3519 JUMPI PUSH1 0x1 DUP4 ADD SLOAD DUP4 SLOAD PUSH1 0x40 MLOAD PUSH4 0x95EA7B3 PUSH1 0xE0 SHL DUP2 MSTORE PUSH1 0x1 PUSH1 0x1 PUSH1 0xA0 SHL SUB SWAP2 DUP3 AND PUSH1 0x4 DUP3 ADD MSTORE PUSH1 0x24 DUP2 ADD DUP5 SWAP1 MSTORE SWAP2 AND SWAP1 PUSH4 0x95EA7B3 SWAP1 PUSH1 0x44 ADD PUSH1 0x20 PUSH1 0x40 MLOAD DUP1 DUP4 SUB DUP2 PUSH1 0x0 DUP8 DUP1 EXTCODESIZE ISZERO DUP1 ISZERO PUSH2 0x3470 JUMPI PUSH1 0x0 DUP1 REVERT JUMPDEST POP GAS CALL ISZERO DUP1 ISZERO PUSH2 0x3484 JUMPI RETURNDATASIZE PUSH1 0x0 DUP1 RETURNDATACOPY RETURNDATASIZE PUSH1 0x0 REVERT JUMPDEST POP POP POP POP PUSH1 0x40 MLOAD RETURNDATASIZE PUSH1 0x1F NOT PUSH1 0x1F DUP3 ADD AND DUP3 ADD DUP1 PUSH1 0x40 MSTORE POP DUP2 ADD SWAP1 PUSH2 0x34A8 SWAP2 SWAP1 PUSH2 0x38DB JUMP JUMPDEST POP DUP3 SLOAD PUSH1 0x7 DUP5 ADD SLOAD PUSH1 0x40 MLOAD PUSH4 0x1C57762B PUSH1 0xE3 SHL DUP2 MSTORE PUSH1 0x1 PUSH1 0x1 PUSH1 0xA0 SHL SUB SWAP1 SWAP3 AND SWAP2 PUSH4 0xE2BBB158 SWAP2 PUSH2 0x34E6 SWAP2 DUP6 SWAP1 PUSH1 0x4 ADD SWAP2 DUP3 MSTORE PUSH1 0x20 DUP3 ADD MSTORE PUSH1 0x40 ADD SWAP1 JUMP JUMPDEST PUSH1 0x0 PUSH1 0x40 MLOAD DUP1 DUP4 SUB DUP2 PUSH1 0x0 DUP8 DUP1 EXTCODESIZE ISZERO DUP1 ISZERO PUSH2 0x3500 JUMPI PUSH1 0x0 DUP1 REVERT JUMPDEST POP GAS CALL ISZERO DUP1 ISZERO PUSH2 0x3514 JUMPI RETURNDATASIZE PUSH1 0x0 DUP1 RETURNDATACOPY RETURNDATASIZE PUSH1 0x0 REVERT JUMPDEST POP POP POP POP JUMPDEST PUSH1 0x4 DUP4 ADD SLOAD DUP3 SLOAD PUSH2 0x3534 SWAP2 PUSH5 0xE8D4A51000 SWAP2 PUSH2 0xF5C SWAP2 PUSH2 0x3090 JUMP JUMPDEST PUSH1 0x1 DUP1 DUP5 ADD SWAP2 SWAP1 SWAP2 SSTORE PUSH1 0x5 SLOAD SWAP1 DUP5 ADD SLOAD PUSH1 0x1 PUSH1 0x1 PUSH1 0xA0 SHL SUB SWAP1 DUP2 AND SWAP2 AND EQ ISZERO PUSH2 0x3568 JUMPI PUSH1 0x13 SLOAD PUSH2 0x3564 SWAP1 DUP3 PUSH2 0x3078 JUMP JUMPDEST PUSH1 0x13 SSTORE JUMPDEST DUP6 DUP5 PUSH1 0x1 PUSH1 0x1 PUSH1 0xA0 SHL SUB AND PUSH32 0x90890809C654F11D6E72A28FA60149770A0D11EC6C92319D6CEB2BB0A4EA1A15 DUP8 PUSH1 0x40 MLOAD PUSH2 0x35A4 SWAP2 DUP2 MSTORE PUSH1 0x20 ADD SWAP1 JUMP JUMPDEST PUSH1 0x40 MLOAD DUP1 SWAP2 SUB SWAP1 LOG3 PUSH2 0x35B4 PUSH2 0x1065 JUMP JUMPDEST POP POP POP POP POP POP JUMP JUMPDEST PUSH2 0x35C4 PUSH2 0x1E86 JUMP JUMPDEST PUSH1 0x10 DUP2 SWAP1 SSTORE PUSH1 0x40 MLOAD DUP2 DUP2 MSTORE ADDRESS SWAP1 PUSH32 0xE2492E003BBE8AFA53088B406F0C1CB5D9E280370FC72A74CF116FFD343C4053 SWAP1 PUSH1 0x20 ADD PUSH2 0x2F4C JUMP JUMPDEST PUSH1 0x0 PUSH2 0x3650 DUP3 PUSH1 0x40 MLOAD DUP1 PUSH1 0x40 ADD PUSH1 0x40 MSTORE DUP1 PUSH1 0x20 DUP2 MSTORE PUSH1 0x20 ADD PUSH32 0x5361666545524332303A206C6F772D6C6576656C2063616C6C206661696C6564 DUP2 MSTORE POP DUP6 PUSH1 0x1 PUSH1 0x1 PUSH1 0xA0 SHL SUB AND PUSH2 0x370B SWAP1 SWAP3 SWAP2 SWAP1 PUSH4 0xFFFFFFFF AND JUMP JUMPDEST DUP1 MLOAD SWAP1 SWAP2 POP ISZERO PUSH2 0x3150 JUMPI DUP1 DUP1 PUSH1 0x20 ADD SWAP1 MLOAD DUP2 ADD SWAP1 PUSH2 0x366E SWAP2 SWAP1 PUSH2 0x38DB JUMP JUMPDEST PUSH2 0x3150 JUMPI PUSH1 0x40 MLOAD PUSH3 0x461BCD PUSH1 0xE5 SHL DUP2 MSTORE PUSH1 0x20 PUSH1 0x4 DUP3 ADD MSTORE PUSH1 0x2A PUSH1 0x24 DUP3 ADD MSTORE PUSH32 0x5361666545524332303A204552433230206F7065726174696F6E20646964206E PUSH1 0x44 DUP3 ADD MSTORE PUSH10 0x1BDD081CDD58D8D95959 PUSH1 0xB2 SHL PUSH1 0x64 DUP3 ADD MSTORE PUSH1 0x84 ADD PUSH2 0x815 JUMP JUMPDEST PUSH1 0x40 MLOAD PUSH1 0x1 PUSH1 0x1 PUSH1 0xA0 SHL SUB DUP1 DUP6 AND PUSH1 0x24 DUP4 ADD MSTORE DUP4 AND PUSH1 0x44 DUP3 ADD MSTORE PUSH1 0x64 DUP2 ADD DUP3 SWAP1 MSTORE PUSH2 0x3705 SWAP1 DUP6 SWAP1 PUSH4 0x23B872DD PUSH1 0xE0 SHL SWAP1 PUSH1 0x84 ADD PUSH2 0x3220 JUMP JUMPDEST POP POP POP POP JUMP JUMPDEST PUSH1 0x60 PUSH2 0x1E7E DUP5 DUP5 PUSH1 0x0 DUP6 DUP6 DUP5 EXTCODESIZE PUSH2 0x3764 JUMPI PUSH1 0x40 MLOAD PUSH3 0x461BCD PUSH1 0xE5 SHL DUP2 MSTORE PUSH1 0x20 PUSH1 0x4 DUP3 ADD MSTORE PUSH1 0x1D PUSH1 0x24 DUP3 ADD MSTORE PUSH32 0x416464726573733A2063616C6C20746F206E6F6E2D636F6E7472616374000000 PUSH1 0x44 DUP3 ADD MSTORE PUSH1 0x64 ADD PUSH2 0x815 JUMP JUMPDEST PUSH1 0x0 DUP1 DUP7 PUSH1 0x1 PUSH1 0x1 PUSH1 0xA0 SHL SUB AND DUP6 DUP8 PUSH1 0x40 MLOAD PUSH2 0x3780 SWAP2 SWAP1 PUSH2 0x3C2D JUMP JUMPDEST PUSH1 0x0 PUSH1 0x40 MLOAD DUP1 DUP4 SUB DUP2 DUP6 DUP8 GAS CALL SWAP3 POP POP POP RETURNDATASIZE DUP1 PUSH1 0x0 DUP2 EQ PUSH2 0x37BD JUMPI PUSH1 0x40 MLOAD SWAP2 POP PUSH1 0x1F NOT PUSH1 0x3F RETURNDATASIZE ADD AND DUP3 ADD PUSH1 0x40 MSTORE RETURNDATASIZE DUP3 MSTORE RETURNDATASIZE PUSH1 0x0 PUSH1 0x20 DUP5 ADD RETURNDATACOPY PUSH2 0x37C2 JUMP JUMPDEST PUSH1 0x60 SWAP2 POP JUMPDEST POP SWAP2 POP SWAP2 POP PUSH2 0x2ED5 DUP3 DUP3 DUP7 PUSH1 0x60 DUP4 ISZERO PUSH2 0x37DC JUMPI POP DUP2 PUSH2 0x1D97 JUMP JUMPDEST DUP3 MLOAD ISZERO PUSH2 0x37EC JUMPI DUP3 MLOAD DUP1 DUP5 PUSH1 0x20 ADD REVERT JUMPDEST DUP2 PUSH1 0x40 MLOAD PUSH3 0x461BCD PUSH1 0xE5 SHL DUP2 MSTORE PUSH1 0x4 ADD PUSH2 0x815 SWAP2 SWAP1 PUSH2 0x3C49 JUMP JUMPDEST DUP1 MLOAD PUSH1 0x1 PUSH1 0x1 PUSH1 0x70 SHL SUB DUP2 AND DUP2 EQ PUSH2 0x381D JUMPI PUSH1 0x0 DUP1 REVERT JUMPDEST SWAP2 SWAP1 POP JUMP JUMPDEST DUP1 CALLDATALOAD PUSH2 0xFFFF DUP2 AND DUP2 EQ PUSH2 0x381D JUMPI PUSH1 0x0 DUP1 REVERT JUMPDEST PUSH1 0x0 PUSH1 0x20 DUP3 DUP5 SUB SLT ISZERO PUSH2 0x3846 JUMPI PUSH1 0x0 DUP1 REVERT JUMPDEST DUP2 CALLDATALOAD PUSH2 0x1D97 DUP2 PUSH2 0x408C JUMP JUMPDEST PUSH1 0x0 PUSH1 0x20 DUP3 DUP5 SUB SLT ISZERO PUSH2 0x3863 JUMPI PUSH1 0x0 DUP1 REVERT JUMPDEST DUP2 MLOAD PUSH2 0x1D97 DUP2 PUSH2 0x408C JUMP JUMPDEST PUSH1 0x0 DUP1 PUSH1 0x0 PUSH1 0x60 DUP5 DUP7 SUB SLT ISZERO PUSH2 0x3883 JUMPI PUSH1 0x0 DUP1 REVERT JUMPDEST DUP4 CALLDATALOAD PUSH2 0x388E DUP2 PUSH2 0x408C JUMP JUMPDEST SWAP3 POP PUSH1 0x20 DUP5 ADD CALLDATALOAD PUSH2 0x389E DUP2 PUSH2 0x408C JUMP JUMPDEST SWAP3 SWAP6 SWAP3 SWAP5 POP POP POP PUSH1 0x40 SWAP2 SWAP1 SWAP2 ADD CALLDATALOAD SWAP1 JUMP JUMPDEST PUSH1 0x0 DUP1 PUSH1 0x40 DUP4 DUP6 SUB SLT ISZERO PUSH2 0x38C2 JUMPI PUSH1 0x0 DUP1 REVERT JUMPDEST DUP3 CALLDATALOAD PUSH2 0x38CD DUP2 PUSH2 0x408C JUMP JUMPDEST SWAP5 PUSH1 0x20 SWAP4 SWAP1 SWAP4 ADD CALLDATALOAD SWAP4 POP POP POP JUMP JUMPDEST PUSH1 0x0 PUSH1 0x20 DUP3 DUP5 SUB SLT ISZERO PUSH2 0x38ED JUMPI PUSH1 0x0 DUP1 REVERT JUMPDEST DUP2 MLOAD PUSH2 0x1D97 DUP2 PUSH2 0x40A1 JUMP JUMPDEST PUSH1 0x0 DUP1 PUSH1 0x40 DUP4 DUP6 SUB SLT ISZERO PUSH2 0x390B JUMPI PUSH1 0x0 DUP1 REVERT JUMPDEST DUP3 CALLDATALOAD PUSH2 0x3916 DUP2 PUSH2 0x40A1 JUMP JUMPDEST SWAP2 POP PUSH1 0x20 DUP4 ADD CALLDATALOAD PUSH2 0x3926 DUP2 PUSH2 0x408C JUMP JUMPDEST DUP1 SWAP2 POP POP SWAP3 POP SWAP3 SWAP1 POP JUMP JUMPDEST PUSH1 0x0 DUP1 PUSH1 0x40 DUP4 DUP6 SUB SLT ISZERO PUSH2 0x3944 JUMPI PUSH1 0x0 DUP1 REVERT JUMPDEST POP POP DUP1 CALLDATALOAD SWAP3 PUSH1 0x20 SWAP1 SWAP2 ADD CALLDATALOAD SWAP2 POP JUMP JUMPDEST PUSH1 0x0 PUSH1 0x20 DUP3 DUP5 SUB SLT ISZERO PUSH2 0x3965 JUMPI PUSH1 0x0 DUP1 REVERT JUMPDEST DUP2 CALLDATALOAD PUSH8 0xFFFFFFFFFFFFFFFF DUP1 DUP3 GT ISZERO PUSH2 0x397D JUMPI PUSH1 0x0 DUP1 REVERT JUMPDEST DUP2 DUP5 ADD SWAP2 POP DUP5 PUSH1 0x1F DUP4 ADD SLT PUSH2 0x3991 JUMPI PUSH1 0x0 DUP1 REVERT JUMPDEST DUP2 CALLDATALOAD DUP2 DUP2 GT ISZERO PUSH2 0x39A3 JUMPI PUSH2 0x39A3 PUSH2 0x4076 JUMP JUMPDEST PUSH1 0x40 MLOAD PUSH1 0x1F DUP3 ADD PUSH1 0x1F NOT SWAP1 DUP2 AND PUSH1 0x3F ADD AND DUP2 ADD SWAP1 DUP4 DUP3 GT DUP2 DUP4 LT OR ISZERO PUSH2 0x39CB JUMPI PUSH2 0x39CB PUSH2 0x4076 JUMP JUMPDEST DUP2 PUSH1 0x40 MSTORE DUP3 DUP2 MSTORE DUP8 PUSH1 0x20 DUP5 DUP8 ADD ADD GT ISZERO PUSH2 0x39E4 JUMPI PUSH1 0x0 DUP1 REVERT JUMPDEST DUP3 PUSH1 0x20 DUP7 ADD PUSH1 0x20 DUP4 ADD CALLDATACOPY PUSH1 0x0 SWAP3 DUP2 ADD PUSH1 0x20 ADD SWAP3 SWAP1 SWAP3 MSTORE POP SWAP6 SWAP5 POP POP POP POP POP JUMP JUMPDEST PUSH1 0x0 DUP1 PUSH1 0x0 PUSH1 0x60 DUP5 DUP7 SUB SLT ISZERO PUSH2 0x3A19 JUMPI PUSH1 0x0 DUP1 REVERT JUMPDEST PUSH2 0x3A22 DUP5 PUSH2 0x3806 JUMP JUMPDEST SWAP3 POP PUSH2 0x3A30 PUSH1 0x20 DUP6 ADD PUSH2 0x3806 JUMP JUMPDEST SWAP2 POP PUSH1 0x40 DUP5 ADD MLOAD PUSH4 0xFFFFFFFF DUP2 AND DUP2 EQ PUSH2 0x3A49 JUMPI PUSH1 0x0 DUP1 REVERT JUMPDEST DUP1 SWAP2 POP POP SWAP3 POP SWAP3 POP SWAP3 JUMP JUMPDEST PUSH1 0x0 PUSH1 0x20 DUP3 DUP5 SUB SLT ISZERO PUSH2 0x3A66 JUMPI PUSH1 0x0 DUP1 REVERT JUMPDEST PUSH2 0x1D97 DUP3 PUSH2 0x3822 JUMP JUMPDEST PUSH1 0x0 PUSH1 0x20 DUP3 DUP5 SUB SLT ISZERO PUSH2 0x3A81 JUMPI PUSH1 0x0 DUP1 REVERT JUMPDEST POP CALLDATALOAD SWAP2 SWAP1 POP JUMP JUMPDEST PUSH1 0x0 PUSH1 0x20 DUP3 DUP5 SUB SLT ISZERO PUSH2 0x3A9A JUMPI PUSH1 0x0 DUP1 REVERT JUMPDEST POP MLOAD SWAP2 SWAP1 POP JUMP JUMPDEST PUSH1 0x0 DUP1 PUSH1 0x40 DUP4 DUP6 SUB SLT ISZERO PUSH2 0x3AB4 JUMPI PUSH1 0x0 DUP1 REVERT JUMPDEST DUP3 CALLDATALOAD SWAP2 POP PUSH1 0x20 DUP4 ADD CALLDATALOAD PUSH2 0x3926 DUP2 PUSH2 0x408C JUMP JUMPDEST PUSH1 0x0 DUP1 PUSH1 0x40 DUP4 DUP6 SUB SLT ISZERO PUSH2 0x3AD9 JUMPI PUSH1 0x0 DUP1 REVERT JUMPDEST DUP3 CALLDATALOAD SWAP2 POP PUSH1 0x20 DUP4 ADD CALLDATALOAD PUSH2 0x3926 DUP2 PUSH2 0x40A1 JUMP JUMPDEST PUSH1 0x0 DUP1 PUSH1 0x0 DUP1 PUSH1 0x0 DUP1 PUSH1 0x0 DUP1 PUSH2 0x100 DUP10 DUP12 SUB SLT ISZERO PUSH2 0x3B08 JUMPI PUSH1 0x0 DUP1 REVERT JUMPDEST DUP9 CALLDATALOAD SWAP8 POP PUSH1 0x20 DUP10 ADD CALLDATALOAD PUSH2 0x3B1A DUP2 PUSH2 0x408C JUMP JUMPDEST SWAP7 POP PUSH1 0x40 DUP10 ADD CALLDATALOAD SWAP6 POP PUSH2 0x3B2F PUSH1 0x60 DUP11 ADD PUSH2 0x3822 JUMP JUMPDEST SWAP5 POP PUSH1 0x80 DUP10 ADD CALLDATALOAD PUSH2 0x3B3F DUP2 PUSH2 0x408C JUMP JUMPDEST SWAP4 POP PUSH1 0xA0 DUP10 ADD CALLDATALOAD SWAP3 POP PUSH1 0xC0 DUP10 ADD CALLDATALOAD PUSH2 0x3B56 DUP2 PUSH2 0x40A1 JUMP JUMPDEST SWAP2 POP PUSH1 0xE0 DUP10 ADD CALLDATALOAD PUSH2 0x3B66 DUP2 PUSH2 0x40A1 JUMP JUMPDEST DUP1 SWAP2 POP POP SWAP3 SWAP6 SWAP9 POP SWAP3 SWAP6 SWAP9 SWAP1 SWAP4 SWAP7 POP JUMP JUMPDEST PUSH1 0x0 DUP1 PUSH1 0x0 PUSH1 0x60 DUP5 DUP7 SUB SLT ISZERO PUSH2 0x3B8C JUMPI PUSH1 0x0 DUP1 REVERT JUMPDEST DUP4 CALLDATALOAD SWAP3 POP PUSH1 0x20 DUP5 ADD CALLDATALOAD SWAP2 POP PUSH1 0x40 DUP5 ADD CALLDATALOAD PUSH2 0x3A49 DUP2 PUSH2 0x408C JUMP JUMPDEST PUSH1 0x0 DUP1 PUSH1 0x0 DUP1 PUSH1 0x0 DUP1 PUSH1 0xC0 DUP8 DUP10 SUB SLT ISZERO PUSH2 0x3BBE JUMPI PUSH1 0x0 DUP1 REVERT JUMPDEST DUP7 CALLDATALOAD SWAP6 POP PUSH1 0x20 DUP8 ADD CALLDATALOAD SWAP5 POP PUSH2 0x3BD5 PUSH1 0x40 DUP9 ADD PUSH2 0x3822 JUMP JUMPDEST SWAP4 POP PUSH1 0x60 DUP8 ADD CALLDATALOAD SWAP3 POP PUSH1 0x80 DUP8 ADD CALLDATALOAD PUSH2 0x3BEC DUP2 PUSH2 0x40A1 JUMP JUMPDEST SWAP2 POP PUSH1 0xA0 DUP8 ADD CALLDATALOAD PUSH2 0x3BFC DUP2 PUSH2 0x40A1 JUMP JUMPDEST DUP1 SWAP2 POP POP SWAP3 SWAP6 POP SWAP3 SWAP6 POP SWAP3 SWAP6 JUMP JUMPDEST PUSH1 0x0 PUSH1 0x20 DUP3 DUP5 SUB SLT ISZERO PUSH2 0x3C1C JUMPI PUSH1 0x0 DUP1 REVERT JUMPDEST DUP2 MLOAD PUSH1 0xFF DUP2 AND DUP2 EQ PUSH2 0x1D97 JUMPI PUSH1 0x0 DUP1 REVERT JUMPDEST PUSH1 0x0 DUP3 MLOAD PUSH2 0x3C3F DUP2 DUP5 PUSH1 0x20 DUP8 ADD PUSH2 0x3FED JUMP JUMPDEST SWAP2 SWAP1 SWAP2 ADD SWAP3 SWAP2 POP POP JUMP JUMPDEST PUSH1 0x20 DUP2 MSTORE PUSH1 0x0 DUP3 MLOAD DUP1 PUSH1 0x20 DUP5 ADD MSTORE PUSH2 0x3C68 DUP2 PUSH1 0x40 DUP6 ADD PUSH1 0x20 DUP8 ADD PUSH2 0x3FED JUMP JUMPDEST PUSH1 0x1F ADD PUSH1 0x1F NOT AND SWAP2 SWAP1 SWAP2 ADD PUSH1 0x40 ADD SWAP3 SWAP2 POP POP JUMP JUMPDEST PUSH1 0x20 DUP1 DUP3 MSTORE DUP2 DUP2 ADD MSTORE PUSH32 0x4F776E61626C653A2063616C6C6572206973206E6F7420746865206F776E6572 PUSH1 0x40 DUP3 ADD MSTORE PUSH1 0x60 ADD SWAP1 JUMP JUMPDEST PUSH1 0x20 DUP1 DUP3 MSTORE PUSH1 0x12 SWAP1 DUP3 ADD MSTORE PUSH18 0x119D5B98DD1A5BDB881A5CC81B1BD8DAD959 PUSH1 0x72 SHL PUSH1 0x40 DUP3 ADD MSTORE PUSH1 0x60 ADD SWAP1 JUMP JUMPDEST PUSH1 0x20 DUP1 DUP3 MSTORE PUSH1 0x35 SWAP1 DUP3 ADD MSTORE PUSH32 0x6F70657261746F723A2063616C6C6572206973206E6F7420616C6C6F77656420 PUSH1 0x40 DUP3 ADD MSTORE PUSH21 0x3A379031B0B636103A3434B990333AB731BA34B7B7 PUSH1 0x59 SHL PUSH1 0x60 DUP3 ADD MSTORE PUSH1 0x80 ADD SWAP1 JUMP JUMPDEST PUSH1 0x20 DUP1 DUP3 MSTORE PUSH1 0x1F SWAP1 DUP3 ADD MSTORE PUSH32 0x5265656E7472616E637947756172643A207265656E7472616E742063616C6C00 PUSH1 0x40 DUP3 ADD MSTORE PUSH1 0x60 ADD SWAP1 JUMP JUMPDEST PUSH1 0x20 DUP1 DUP3 MSTORE PUSH1 0x22 SWAP1 DUP3 ADD MSTORE PUSH32 0x7365743A206465706F736974206665652063616E277420657863656564203130 PUSH1 0x40 DUP3 ADD MSTORE PUSH2 0x2025 PUSH1 0xF0 SHL PUSH1 0x60 DUP3 ADD MSTORE PUSH1 0x80 ADD SWAP1 JUMP JUMPDEST PUSH1 0x0 DUP3 NOT DUP3 GT ISZERO PUSH2 0x3DBE JUMPI PUSH2 0x3DBE PUSH2 0x4034 JUMP JUMPDEST POP ADD SWAP1 JUMP JUMPDEST PUSH1 0x0 DUP3 PUSH2 0x3DD2 JUMPI PUSH2 0x3DD2 PUSH2 0x404A JUMP JUMPDEST PUSH1 0x1 PUSH1 0xFF SHL DUP3 EQ PUSH1 0x0 NOT DUP5 EQ AND ISZERO PUSH2 0x3DEC JUMPI PUSH2 0x3DEC PUSH2 0x4034 JUMP JUMPDEST POP SDIV SWAP1 JUMP JUMPDEST PUSH1 0x0 DUP3 PUSH2 0x3E00 JUMPI PUSH2 0x3E00 PUSH2 0x404A JUMP JUMPDEST POP DIV SWAP1 JUMP JUMPDEST PUSH1 0x1 DUP2 DUP2 JUMPDEST DUP1 DUP6 GT ISZERO PUSH2 0x3E40 JUMPI DUP2 PUSH1 0x0 NOT DIV DUP3 GT ISZERO PUSH2 0x3E26 JUMPI PUSH2 0x3E26 PUSH2 0x4034 JUMP JUMPDEST DUP1 DUP6 AND ISZERO PUSH2 0x3E33 JUMPI SWAP2 DUP2 MUL SWAP2 JUMPDEST SWAP4 DUP5 SHR SWAP4 SWAP1 DUP1 MUL SWAP1 PUSH2 0x3E0A JUMP JUMPDEST POP SWAP3 POP SWAP3 SWAP1 POP JUMP JUMPDEST PUSH1 0x0 PUSH2 0x1D97 PUSH1 0xFF DUP5 AND DUP4 PUSH1 0x0 DUP3 PUSH2 0x3E61 JUMPI POP PUSH1 0x1 PUSH2 0xE65 JUMP JUMPDEST DUP2 PUSH2 0x3E6E JUMPI POP PUSH1 0x0 PUSH2 0xE65 JUMP JUMPDEST DUP2 PUSH1 0x1 DUP2 EQ PUSH2 0x3E84 JUMPI PUSH1 0x2 DUP2 EQ PUSH2 0x3E8E JUMPI PUSH2 0x3EAA JUMP JUMPDEST PUSH1 0x1 SWAP2 POP POP PUSH2 0xE65 JUMP JUMPDEST PUSH1 0xFF DUP5 GT ISZERO PUSH2 0x3E9F JUMPI PUSH2 0x3E9F PUSH2 0x4034 JUMP JUMPDEST POP POP PUSH1 0x1 DUP3 SHL PUSH2 0xE65 JUMP JUMPDEST POP PUSH1 0x20 DUP4 LT PUSH2 0x133 DUP4 LT AND PUSH1 0x4E DUP5 LT PUSH1 0xB DUP5 LT AND OR ISZERO PUSH2 0x3ECD JUMPI POP DUP2 DUP2 EXP PUSH2 0xE65 JUMP JUMPDEST PUSH2 0x3ED7 DUP4 DUP4 PUSH2 0x3E05 JUMP JUMPDEST DUP1 PUSH1 0x0 NOT DIV DUP3 GT ISZERO PUSH2 0x3EEB JUMPI PUSH2 0x3EEB PUSH2 0x4034 JUMP JUMPDEST MUL SWAP4 SWAP3 POP POP POP JUMP JUMPDEST PUSH1 0x0 PUSH1 0x1 PUSH1 0x1 PUSH1 0xFF SHL SUB DUP2 DUP5 SGT DUP3 DUP5 SGT DUP1 DUP3 AND DUP7 DUP5 DIV DUP7 GT AND ISZERO PUSH2 0x3F19 JUMPI PUSH2 0x3F19 PUSH2 0x4034 JUMP JUMPDEST PUSH1 0x1 PUSH1 0xFF SHL PUSH1 0x0 DUP8 SLT DUP3 DUP2 AND DUP8 DUP4 SDIV DUP10 SLT AND ISZERO PUSH2 0x3F38 JUMPI PUSH2 0x3F38 PUSH2 0x4034 JUMP JUMPDEST PUSH1 0x0 DUP8 SLT SWAP3 POP DUP8 DUP3 SDIV DUP8 SLT DUP5 DUP5 AND AND ISZERO PUSH2 0x3F54 JUMPI PUSH2 0x3F54 PUSH2 0x4034 JUMP JUMPDEST DUP8 DUP6 SDIV DUP8 SLT DUP2 DUP5 AND AND ISZERO PUSH2 0x3F6A JUMPI PUSH2 0x3F6A PUSH2 0x4034 JUMP JUMPDEST POP POP POP SWAP3 SWAP1 SWAP4 MUL SWAP4 SWAP3 POP POP POP JUMP JUMPDEST PUSH1 0x0 DUP2 PUSH1 0x0 NOT DIV DUP4 GT DUP3 ISZERO ISZERO AND ISZERO PUSH2 0x3F92 JUMPI PUSH2 0x3F92 PUSH2 0x4034 JUMP JUMPDEST POP MUL SWAP1 JUMP JUMPDEST PUSH1 0x0 DUP1 DUP4 SLT DUP1 ISZERO PUSH1 0x1 PUSH1 0xFF SHL DUP6 ADD DUP5 SLT AND ISZERO PUSH2 0x3FB5 JUMPI PUSH2 0x3FB5 PUSH2 0x4034 JUMP JUMPDEST PUSH1 0x1 PUSH1 0x1 PUSH1 0xFF SHL SUB DUP5 ADD DUP4 SGT DUP2 AND ISZERO PUSH2 0x3FD0 JUMPI PUSH2 0x3FD0 PUSH2 0x4034 JUMP JUMPDEST POP POP SUB SWAP1 JUMP JUMPDEST PUSH1 0x0 DUP3 DUP3 LT ISZERO PUSH2 0x3FE8 JUMPI PUSH2 0x3FE8 PUSH2 0x4034 JUMP JUMPDEST POP SUB SWAP1 JUMP JUMPDEST PUSH1 0x0 JUMPDEST DUP4 DUP2 LT ISZERO PUSH2 0x4008 JUMPI DUP2 DUP2 ADD MLOAD DUP4 DUP3 ADD MSTORE PUSH1 0x20 ADD PUSH2 0x3FF0 JUMP JUMPDEST DUP4 DUP2 GT ISZERO PUSH2 0x3705 JUMPI POP POP PUSH1 0x0 SWAP2 ADD MSTORE JUMP JUMPDEST PUSH1 0x0 PUSH1 0x0 NOT DUP3 EQ ISZERO PUSH2 0x402D JUMPI PUSH2 0x402D PUSH2 0x4034 JUMP JUMPDEST POP PUSH1 0x1 ADD SWAP1 JUMP JUMPDEST PUSH4 0x4E487B71 PUSH1 0xE0 SHL PUSH1 0x0 MSTORE PUSH1 0x11 PUSH1 0x4 MSTORE PUSH1 0x24 PUSH1 0x0 REVERT JUMPDEST PUSH4 0x4E487B71 PUSH1 0xE0 SHL PUSH1 0x0 MSTORE PUSH1 0x12 PUSH1 0x4 MSTORE PUSH1 0x24 PUSH1 0x0 REVERT JUMPDEST PUSH4 0x4E487B71 PUSH1 0xE0 SHL PUSH1 0x0 MSTORE PUSH1 0x32 PUSH1 0x4 MSTORE PUSH1 0x24 PUSH1 0x0 REVERT JUMPDEST PUSH4 0x4E487B71 PUSH1 0xE0 SHL PUSH1 0x0 MSTORE PUSH1 0x41 PUSH1 0x4 MSTORE PUSH1 0x24 PUSH1 0x0 REVERT JUMPDEST PUSH1 0x1 PUSH1 0x1 PUSH1 0xA0 SHL SUB DUP2 AND DUP2 EQ PUSH2 0x2FEF JUMPI PUSH1 0x0 DUP1 REVERT JUMPDEST DUP1 ISZERO ISZERO DUP2 EQ PUSH2 0x2FEF JUMPI PUSH1 0x0 DUP1 REVERT INVALID LOG2 PUSH5 0x6970667358 0x22 SLT KECCAK256 0xEA 0x5D SWAP14 CHAINID SWAP15 PUSH5 0xC7D7374660 0xC4 ADDRESS 0xB0 0x22 0xCA PUSH12 0x18E7551D6C212CF32B363EC5 PUSH4 0xC3346473 PUSH16 0x6C634300080700330000000000000000 "
		},
		"gasEstimates": {
			"creation": {
				"codeDepositCost": "3322600",
				"executionCost": "infinite",
				"totalCost": "infinite"
			},
			"external": {
				"add(uint256,address,uint256,uint16,address,uint256,bool,bool)": "infinite",
				"canClaimRewards(uint256)": "infinite",
				"checkPriceUpdate()": "infinite",
				"claim(uint256)": "infinite",
				"coin()": "2451",
				"coinPerBlock()": "2374",
				"deposit(uint256,uint256)": "infinite",
				"depositForUser(uint256,uint256,address)": "infinite",
				"depositedCoins()": "2417",
				"devAddress()": "2405",
				"feeAddress()": "2449",
				"getAveragePrice()": "infinite",
				"getBalanceOf(address,uint256)": "infinite",
				"getCoinAmount(address,address,uint256)": "infinite",
				"getDepositFee(uint256)": "infinite",
				"getLpSupply(uint256)": "infinite",
				"getNewEmissionRate(uint256,bool)": "infinite",
				"getPriceDifference(int256,int256)": "infinite",
				"getTokenPrice()": "infinite",
				"hourlyIndex()": "2419",
				"hourlyPrices(uint256)": "4653",
				"isLockEnabled()": "2399",
				"lastAveragePrice()": "2395",
				"lastEmissionIncrease()": "2374",
				"lastEmissionUpdateBlock()": "2395",
				"lastPriceUpdateBlock()": "2374",
				"lockFunction(string)": "infinite",
				"lpAddress()": "2405",
				"maintainer()": "2465",
				"massUpdatePools()": "infinite",
				"maxEmissionIncrease()": "2403",
				"owner()": "2399",
				"pendingCoin(uint256,address)": "infinite",
				"poolInfos(uint256)": "23943",
				"poolLength()": "2340",
				"previousAveragePrice()": "2397",
				"renounceOwnership()": "28225",
				"setCoin(address)": "infinite",
				"setDevAddress(address)": "infinite",
				"setMaintainer(address)": "infinite",
				"setMaxEmissionIncrease(uint16)": "28175",
				"setPoolVariables(uint256,uint256,uint16,uint256,bool,bool)": "infinite",
				"setTimelockEnabled()": "29564",
				"startBlock()": "2375",
				"timelock(string)": "infinite",
				"totalAllocPoint()": "2375",
				"transferOwnership(address)": "infinite",
				"unlockFunction(string)": "infinite",
				"updateEmissionRate(uint256)": "infinite",
				"updatePool(uint256)": "infinite",
				"updatePrice()": "infinite",
				"userInfos(uint256,address)": "6982",
				"whitelist(bool,address)": "infinite",
				"whitelisted(address)": "2614",
				"withdraw(uint256,uint256)": "infinite",
				"withdrawWithoutRewards(uint256)": "infinite"
			},
			"internal": {
				"executeDeposit(uint256,uint256,address)": "infinite",
				"safeCoinTransfer(address,uint256)": "infinite",
				"updateEmissionRateByPriceDifference()": "infinite",
				"updateEmissionRateInternal(uint256)": "infinite"
			}
		},
		"methodIdentifiers": {
			"add(uint256,address,uint256,uint16,address,uint256,bool,bool)": "97e78494",
			"canClaimRewards(uint256)": "29465d42",
			"checkPriceUpdate()": "437f660e",
			"claim(uint256)": "379607f5",
			"coin()": "11df9995",
			"coinPerBlock()": "9eed5b33",
			"deposit(uint256,uint256)": "e2bbb158",
			"depositForUser(uint256,uint256,address)": "a3f30d27",
			"depositedCoins()": "7ba71c55",
			"devAddress()": "3ad10ef6",
			"feeAddress()": "41275358",
			"getAveragePrice()": "a6be46aa",
			"getBalanceOf(address,uint256)": "94d45b59",
			"getCoinAmount(address,address,uint256)": "575b789c",
			"getDepositFee(uint256)": "9fbe42e3",
			"getLpSupply(uint256)": "5ecbbf98",
			"getNewEmissionRate(uint256,bool)": "ca4164f9",
			"getPriceDifference(int256,int256)": "e6c1e89c",
			"getTokenPrice()": "4b94f50e",
			"hourlyIndex()": "27de1947",
			"hourlyPrices(uint256)": "6e0c9f0a",
			"isLockEnabled()": "a347511a",
			"lastAveragePrice()": "da201248",
			"lastEmissionIncrease()": "3e82211c",
			"lastEmissionUpdateBlock()": "edc23f96",
			"lastPriceUpdateBlock()": "65a2d701",
			"lockFunction(string)": "9f531156",
			"lpAddress()": "9b4dc8cc",
			"maintainer()": "9850d32b",
			"massUpdatePools()": "630b5ba1",
			"maxEmissionIncrease()": "57320251",
			"owner()": "8da5cb5b",
			"pendingCoin(uint256,address)": "e9a52b67",
			"poolInfos(uint256)": "689d84e4",
			"poolLength()": "081e3eda",
			"previousAveragePrice()": "8ca20689",
			"renounceOwnership()": "715018a6",
			"setCoin(address)": "82e46b75",
			"setDevAddress(address)": "d0d41fe1",
			"setMaintainer(address)": "13ea5d29",
			"setMaxEmissionIncrease(uint16)": "f0c44502",
			"setPoolVariables(uint256,uint256,uint16,uint256,bool,bool)": "262917d9",
			"setTimelockEnabled()": "f4762fd6",
			"startBlock()": "48cd4cb1",
			"timelock(string)": "f98080c0",
			"totalAllocPoint()": "17caf6f1",
			"transferOwnership(address)": "f2fde38b",
			"unlockFunction(string)": "a607494a",
			"updateEmissionRate(uint256)": "0ba84cd2",
			"updatePool(uint256)": "51eb05a6",
			"updatePrice()": "673a7e28",
			"userInfos(uint256,address)": "87370846",
			"whitelist(bool,address)": "34c434e4",
			"whitelisted(address)": "d936547e",
			"withdraw(uint256,uint256)": "441a3e70",
			"withdrawWithoutRewards(uint256)": "a8b39eee"
		}
	},
	"abi": [
		{
			"inputs": [
				{
					"internalType": "contract AboatToken",
					"name": "_coin",
					"type": "address"
				},
				{
					"internalType": "address",
					"name": "_devaddr",
					"type": "address"
				},
				{
					"internalType": "address",
					"name": "_feeAddress",
					"type": "address"
				},
				{
					"internalType": "uint256",
					"name": "_startBlock",
					"type": "uint256"
				}
			],
			"stateMutability": "nonpayable",
			"type": "constructor"
		},
		{
			"anonymous": false,
			"inputs": [
				{
					"indexed": true,
					"internalType": "address",
					"name": "previousCoin",
					"type": "address"
				},
				{
					"indexed": true,
					"internalType": "address",
					"name": "newCoin",
					"type": "address"
				}
			],
			"name": "ChangedCoin",
			"type": "event"
		},
		{
			"anonymous": false,
			"inputs": [
				{
					"indexed": true,
					"internalType": "address",
					"name": "user",
					"type": "address"
				},
				{
					"indexed": true,
					"internalType": "uint256",
					"name": "pid",
					"type": "uint256"
				},
				{
					"indexed": false,
					"internalType": "uint256",
					"name": "amount",
					"type": "uint256"
				}
			],
			"name": "Claim",
			"type": "event"
		},
		{
			"anonymous": false,
			"inputs": [
				{
					"indexed": true,
					"internalType": "address",
					"name": "user",
					"type": "address"
				},
				{
					"indexed": true,
					"internalType": "uint256",
					"name": "pid",
					"type": "uint256"
				},
				{
					"indexed": false,
					"internalType": "uint256",
					"name": "amount",
					"type": "uint256"
				}
			],
			"name": "Deposit",
			"type": "event"
		},
		{
			"anonymous": false,
			"inputs": [
				{
					"indexed": true,
					"internalType": "address",
					"name": "user",
					"type": "address"
				},
				{
					"indexed": true,
					"internalType": "uint256",
					"name": "pid",
					"type": "uint256"
				},
				{
					"indexed": false,
					"internalType": "uint256",
					"name": "amount",
					"type": "uint256"
				}
			],
			"name": "EmergencyWithdraw",
			"type": "event"
		},
		{
			"anonymous": false,
			"inputs": [],
			"name": "EnabledLock",
			"type": "event"
		},
		{
			"anonymous": false,
			"inputs": [
				{
					"indexed": true,
					"internalType": "address",
					"name": "previousMaintainer",
					"type": "address"
				},
				{
					"indexed": true,
					"internalType": "address",
					"name": "newMaintainer",
					"type": "address"
				}
			],
			"name": "MaintainerTransferred",
			"type": "event"
		},
		{
			"anonymous": false,
			"inputs": [
				{
					"indexed": true,
					"internalType": "address",
					"name": "pool",
					"type": "address"
				},
				{
					"indexed": true,
					"internalType": "uint256",
					"name": "pid",
					"type": "uint256"
				}
			],
			"name": "NewPool",
			"type": "event"
		},
		{
			"anonymous": false,
			"inputs": [
				{
					"indexed": true,
					"internalType": "address",
					"name": "previousOwner",
					"type": "address"
				},
				{
					"indexed": true,
					"internalType": "address",
					"name": "newOwner",
					"type": "address"
				}
			],
			"name": "OwnershipTransferred",
			"type": "event"
		},
		{
			"anonymous": false,
			"inputs": [
				{
					"indexed": true,
					"internalType": "address",
					"name": "user",
					"type": "address"
				},
				{
					"indexed": true,
					"internalType": "address",
					"name": "newAddress",
					"type": "address"
				}
			],
			"name": "SetDevAddress",
			"type": "event"
		},
		{
			"anonymous": false,
			"inputs": [
				{
					"indexed": true,
					"internalType": "address",
					"name": "user",
					"type": "address"
				},
				{
					"indexed": true,
					"internalType": "address",
					"name": "newAddress",
					"type": "address"
				}
			],
			"name": "SetFeeAddress",
			"type": "event"
		},
		{
			"anonymous": false,
			"inputs": [
				{
					"indexed": true,
					"internalType": "address",
					"name": "user",
					"type": "address"
				},
				{
					"indexed": false,
					"internalType": "uint16",
					"name": "newMaxEmissionIncrease",
					"type": "uint16"
				}
			],
			"name": "SetMaxEmissionIncrease",
			"type": "event"
		},
		{
			"anonymous": false,
			"inputs": [
				{
					"indexed": true,
					"internalType": "string",
					"name": "functionName",
					"type": "string"
				},
				{
					"indexed": true,
					"internalType": "uint256",
					"name": "unlockedAt",
					"type": "uint256"
				}
			],
			"name": "UnlockedFunction",
			"type": "event"
		},
		{
			"anonymous": false,
			"inputs": [
				{
					"indexed": true,
					"internalType": "address",
					"name": "user",
					"type": "address"
				},
				{
					"indexed": false,
					"internalType": "uint256",
					"name": "newEmission",
					"type": "uint256"
				}
			],
			"name": "UpdateEmissionRate",
			"type": "event"
		},
		{
			"anonymous": false,
			"inputs": [
				{
					"indexed": true,
					"internalType": "uint256",
					"name": "previousAveragePrice",
					"type": "uint256"
				},
				{
					"indexed": true,
					"internalType": "uint256",
					"name": "newAveragePrice",
					"type": "uint256"
				}
			],
			"name": "UpdatedAveragePrice",
			"type": "event"
		},
		{
			"anonymous": false,
			"inputs": [
				{
					"indexed": true,
					"internalType": "uint256",
					"name": "pid",
					"type": "uint256"
				}
			],
			"name": "UpdatedPool",
			"type": "event"
		},
		{
			"anonymous": false,
			"inputs": [
				{
					"indexed": true,
					"internalType": "address",
					"name": "user",
					"type": "address"
				},
				{
					"indexed": true,
					"internalType": "uint256",
					"name": "pid",
					"type": "uint256"
				},
				{
					"indexed": false,
					"internalType": "uint256",
					"name": "amount",
					"type": "uint256"
				}
			],
			"name": "Withdraw",
			"type": "event"
		},
		{
			"inputs": [
				{
					"internalType": "uint256",
					"name": "_allocPoint",
					"type": "uint256"
				},
				{
					"internalType": "contract IERC20",
					"name": "_lpToken",
					"type": "address"
				},
				{
					"internalType": "uint256",
					"name": "_pid",
					"type": "uint256"
				},
				{
					"internalType": "uint16",
					"name": "_depositFee",
					"type": "uint16"
				},
				{
					"internalType": "contract IMasterChefContractor",
					"name": "_contractor",
					"type": "address"
				},
				{
					"internalType": "uint256",
					"name": "_lockPeriod",
					"type": "uint256"
				},
				{
					"internalType": "bool",
					"name": "_isCoinLp",
					"type": "bool"
				},
				{
					"internalType": "bool",
					"name": "_withUpdate",
					"type": "bool"
				}
			],
			"name": "add",
			"outputs": [],
			"stateMutability": "nonpayable",
			"type": "function"
		},
		{
			"inputs": [
				{
					"internalType": "uint256",
					"name": "_amount",
					"type": "uint256"
				}
			],
			"name": "canClaimRewards",
			"outputs": [
				{
					"internalType": "bool",
					"name": "",
					"type": "bool"
				}
			],
			"stateMutability": "view",
			"type": "function"
		},
		{
			"inputs": [],
			"name": "checkPriceUpdate",
			"outputs": [],
			"stateMutability": "nonpayable",
			"type": "function"
		},
		{
			"inputs": [
				{
					"internalType": "uint256",
					"name": "_pid",
					"type": "uint256"
				}
			],
			"name": "claim",
			"outputs": [],
			"stateMutability": "nonpayable",
			"type": "function"
		},
		{
			"inputs": [],
			"name": "coin",
			"outputs": [
				{
					"internalType": "contract AboatToken",
					"name": "",
					"type": "address"
				}
			],
			"stateMutability": "view",
			"type": "function"
		},
		{
			"inputs": [],
			"name": "coinPerBlock",
			"outputs": [
				{
					"internalType": "uint256",
					"name": "",
					"type": "uint256"
				}
			],
			"stateMutability": "view",
			"type": "function"
		},
		{
			"inputs": [
				{
					"internalType": "uint256",
					"name": "_pid",
					"type": "uint256"
				},
				{
					"internalType": "uint256",
					"name": "_amount",
					"type": "uint256"
				}
			],
			"name": "deposit",
			"outputs": [],
			"stateMutability": "nonpayable",
			"type": "function"
		},
		{
			"inputs": [
				{
					"internalType": "uint256",
					"name": "_pid",
					"type": "uint256"
				},
				{
					"internalType": "uint256",
					"name": "_amount",
					"type": "uint256"
				},
				{
					"internalType": "address",
					"name": "user",
					"type": "address"
				}
			],
			"name": "depositForUser",
			"outputs": [],
			"stateMutability": "nonpayable",
			"type": "function"
		},
		{
			"inputs": [],
			"name": "depositedCoins",
			"outputs": [
				{
					"internalType": "uint256",
					"name": "",
					"type": "uint256"
				}
			],
			"stateMutability": "view",
			"type": "function"
		},
		{
			"inputs": [],
			"name": "devAddress",
			"outputs": [
				{
					"internalType": "address",
					"name": "",
					"type": "address"
				}
			],
			"stateMutability": "view",
			"type": "function"
		},
		{
			"inputs": [],
			"name": "feeAddress",
			"outputs": [
				{
					"internalType": "address",
					"name": "",
					"type": "address"
				}
			],
			"stateMutability": "view",
			"type": "function"
		},
		{
			"inputs": [],
			"name": "getAveragePrice",
			"outputs": [
				{
					"internalType": "uint256",
					"name": "",
					"type": "uint256"
				}
			],
			"stateMutability": "view",
			"type": "function"
		},
		{
			"inputs": [
				{
					"internalType": "address",
					"name": "_user",
					"type": "address"
				},
				{
					"internalType": "uint256",
					"name": "_vesting",
					"type": "uint256"
				}
			],
			"name": "getBalanceOf",
			"outputs": [
				{
					"internalType": "uint256",
					"name": "",
					"type": "uint256"
				}
			],
			"stateMutability": "view",
			"type": "function"
		},
		{
			"inputs": [
				{
					"internalType": "address",
					"name": "_pair",
					"type": "address"
				},
				{
					"internalType": "address",
					"name": "_coinOfInterest",
					"type": "address"
				},
				{
					"internalType": "uint256",
					"name": "_amount",
					"type": "uint256"
				}
			],
			"name": "getCoinAmount",
			"outputs": [
				{
					"internalType": "uint256",
					"name": "",
					"type": "uint256"
				}
			],
			"stateMutability": "view",
			"type": "function"
		},
		{
			"inputs": [
				{
					"internalType": "uint256",
					"name": "_pid",
					"type": "uint256"
				}
			],
			"name": "getDepositFee",
			"outputs": [
				{
					"internalType": "uint256",
					"name": "",
					"type": "uint256"
				}
			],
			"stateMutability": "view",
			"type": "function"
		},
		{
			"inputs": [
				{
					"internalType": "uint256",
					"name": "_pid",
					"type": "uint256"
				}
			],
			"name": "getLpSupply",
			"outputs": [
				{
					"internalType": "uint256",
					"name": "",
					"type": "uint256"
				}
			],
			"stateMutability": "view",
			"type": "function"
		},
		{
			"inputs": [
				{
					"internalType": "uint256",
					"name": "percentage",
					"type": "uint256"
				},
				{
					"internalType": "bool",
					"name": "isPositiveChange",
					"type": "bool"
				}
			],
			"name": "getNewEmissionRate",
			"outputs": [
				{
					"internalType": "uint256",
					"name": "",
					"type": "uint256"
				}
			],
			"stateMutability": "view",
			"type": "function"
		},
		{
			"inputs": [
				{
					"internalType": "int256",
					"name": "newPrice",
					"type": "int256"
				},
				{
					"internalType": "int256",
					"name": "oldPrice",
					"type": "int256"
				}
			],
			"name": "getPriceDifference",
			"outputs": [
				{
					"internalType": "uint256",
					"name": "",
					"type": "uint256"
				}
			],
			"stateMutability": "pure",
			"type": "function"
		},
		{
			"inputs": [],
			"name": "getTokenPrice",
			"outputs": [
				{
					"internalType": "uint256",
					"name": "",
					"type": "uint256"
				}
			],
			"stateMutability": "nonpayable",
			"type": "function"
		},
		{
			"inputs": [],
			"name": "hourlyIndex",
			"outputs": [
				{
					"internalType": "uint256",
					"name": "",
					"type": "uint256"
				}
			],
			"stateMutability": "view",
			"type": "function"
		},
		{
			"inputs": [
				{
					"internalType": "uint256",
					"name": "",
					"type": "uint256"
				}
			],
			"name": "hourlyPrices",
			"outputs": [
				{
					"internalType": "uint256",
					"name": "",
					"type": "uint256"
				}
			],
			"stateMutability": "view",
			"type": "function"
		},
		{
			"inputs": [],
			"name": "isLockEnabled",
			"outputs": [
				{
					"internalType": "bool",
					"name": "",
					"type": "bool"
				}
			],
			"stateMutability": "view",
			"type": "function"
		},
		{
			"inputs": [],
			"name": "lastAveragePrice",
			"outputs": [
				{
					"internalType": "uint256",
					"name": "",
					"type": "uint256"
				}
			],
			"stateMutability": "view",
			"type": "function"
		},
		{
			"inputs": [],
			"name": "lastEmissionIncrease",
			"outputs": [
				{
					"internalType": "uint256",
					"name": "",
					"type": "uint256"
				}
			],
			"stateMutability": "view",
			"type": "function"
		},
		{
			"inputs": [],
			"name": "lastEmissionUpdateBlock",
			"outputs": [
				{
					"internalType": "uint256",
					"name": "",
					"type": "uint256"
				}
			],
			"stateMutability": "view",
			"type": "function"
		},
		{
			"inputs": [],
			"name": "lastPriceUpdateBlock",
			"outputs": [
				{
					"internalType": "uint256",
					"name": "",
					"type": "uint256"
				}
			],
			"stateMutability": "view",
			"type": "function"
		},
		{
			"inputs": [
				{
					"internalType": "string",
					"name": "_fn",
					"type": "string"
				}
			],
			"name": "lockFunction",
			"outputs": [],
			"stateMutability": "nonpayable",
			"type": "function"
		},
		{
			"inputs": [],
			"name": "lpAddress",
			"outputs": [
				{
					"internalType": "address",
					"name": "",
					"type": "address"
				}
			],
			"stateMutability": "view",
			"type": "function"
		},
		{
			"inputs": [],
			"name": "maintainer",
			"outputs": [
				{
					"internalType": "address",
					"name": "",
					"type": "address"
				}
			],
			"stateMutability": "view",
			"type": "function"
		},
		{
			"inputs": [],
			"name": "massUpdatePools",
			"outputs": [],
			"stateMutability": "nonpayable",
			"type": "function"
		},
		{
			"inputs": [],
			"name": "maxEmissionIncrease",
			"outputs": [
				{
					"internalType": "uint16",
					"name": "",
					"type": "uint16"
				}
			],
			"stateMutability": "view",
			"type": "function"
		},
		{
			"inputs": [],
			"name": "owner",
			"outputs": [
				{
					"internalType": "address",
					"name": "",
					"type": "address"
				}
			],
			"stateMutability": "view",
			"type": "function"
		},
		{
			"inputs": [
				{
					"internalType": "uint256",
					"name": "_pid",
					"type": "uint256"
				},
				{
					"internalType": "address",
					"name": "_user",
					"type": "address"
				}
			],
			"name": "pendingCoin",
			"outputs": [
				{
					"internalType": "uint256",
					"name": "",
					"type": "uint256"
				}
			],
			"stateMutability": "view",
			"type": "function"
		},
		{
			"inputs": [
				{
					"internalType": "uint256",
					"name": "",
					"type": "uint256"
				}
			],
			"name": "poolInfos",
			"outputs": [
				{
					"internalType": "contract IMasterChefContractor",
					"name": "contractor",
					"type": "address"
				},
				{
					"internalType": "contract IERC20",
					"name": "lpToken",
					"type": "address"
				},
				{
					"internalType": "uint256",
					"name": "allocPoint",
					"type": "uint256"
				},
				{
					"internalType": "uint256",
					"name": "lastRewardBlock",
					"type": "uint256"
				},
				{
					"internalType": "uint256",
					"name": "accCoinPerShare",
					"type": "uint256"
				},
				{
					"internalType": "uint16",
					"name": "depositFee",
					"type": "uint16"
				},
				{
					"internalType": "uint256",
					"name": "depositedCoins",
					"type": "uint256"
				},
				{
					"internalType": "uint256",
					"name": "pid",
					"type": "uint256"
				},
				{
					"internalType": "uint256",
					"name": "lockPeriod",
					"type": "uint256"
				},
				{
					"internalType": "bool",
					"name": "isCoinLp",
					"type": "bool"
				}
			],
			"stateMutability": "view",
			"type": "function"
		},
		{
			"inputs": [],
			"name": "poolLength",
			"outputs": [
				{
					"internalType": "uint256",
					"name": "",
					"type": "uint256"
				}
			],
			"stateMutability": "view",
			"type": "function"
		},
		{
			"inputs": [],
			"name": "previousAveragePrice",
			"outputs": [
				{
					"internalType": "uint256",
					"name": "",
					"type": "uint256"
				}
			],
			"stateMutability": "view",
			"type": "function"
		},
		{
			"inputs": [],
			"name": "renounceOwnership",
			"outputs": [],
			"stateMutability": "nonpayable",
			"type": "function"
		},
		{
			"inputs": [
				{
					"internalType": "contract AboatToken",
					"name": "_coin",
					"type": "address"
				}
			],
			"name": "setCoin",
			"outputs": [],
			"stateMutability": "nonpayable",
			"type": "function"
		},
		{
			"inputs": [
				{
					"internalType": "address",
					"name": "_devAddress",
					"type": "address"
				}
			],
			"name": "setDevAddress",
			"outputs": [],
			"stateMutability": "nonpayable",
			"type": "function"
		},
		{
			"inputs": [
				{
					"internalType": "address",
					"name": "_newMaintainer",
					"type": "address"
				}
			],
			"name": "setMaintainer",
			"outputs": [],
			"stateMutability": "nonpayable",
			"type": "function"
		},
		{
			"inputs": [
				{
					"internalType": "uint16",
					"name": "_maxEmissionIncrease",
					"type": "uint16"
				}
			],
			"name": "setMaxEmissionIncrease",
			"outputs": [],
			"stateMutability": "nonpayable",
			"type": "function"
		},
		{
			"inputs": [
				{
					"internalType": "uint256",
					"name": "_pid",
					"type": "uint256"
				},
				{
					"internalType": "uint256",
					"name": "_allocPoint",
					"type": "uint256"
				},
				{
					"internalType": "uint16",
					"name": "_depositFee",
					"type": "uint16"
				},
				{
					"internalType": "uint256",
					"name": "_lockPeriod",
					"type": "uint256"
				},
				{
					"internalType": "bool",
					"name": "_isCoinLp",
					"type": "bool"
				},
				{
					"internalType": "bool",
					"name": "_withUpdate",
					"type": "bool"
				}
			],
			"name": "setPoolVariables",
			"outputs": [],
			"stateMutability": "nonpayable",
			"type": "function"
		},
		{
			"inputs": [],
			"name": "setTimelockEnabled",
			"outputs": [],
			"stateMutability": "nonpayable",
			"type": "function"
		},
		{
			"inputs": [],
			"name": "startBlock",
			"outputs": [
				{
					"internalType": "uint256",
					"name": "",
					"type": "uint256"
				}
			],
			"stateMutability": "view",
			"type": "function"
		},
		{
			"inputs": [
				{
					"internalType": "string",
					"name": "",
					"type": "string"
				}
			],
			"name": "timelock",
			"outputs": [
				{
					"internalType": "uint256",
					"name": "",
					"type": "uint256"
				}
			],
			"stateMutability": "view",
			"type": "function"
		},
		{
			"inputs": [],
			"name": "totalAllocPoint",
			"outputs": [
				{
					"internalType": "uint256",
					"name": "",
					"type": "uint256"
				}
			],
			"stateMutability": "view",
			"type": "function"
		},
		{
			"inputs": [
				{
					"internalType": "address",
					"name": "newOwner",
					"type": "address"
				}
			],
			"name": "transferOwnership",
			"outputs": [],
			"stateMutability": "nonpayable",
			"type": "function"
		},
		{
			"inputs": [
				{
					"internalType": "string",
					"name": "_fn",
					"type": "string"
				}
			],
			"name": "unlockFunction",
			"outputs": [],
			"stateMutability": "nonpayable",
			"type": "function"
		},
		{
			"inputs": [
				{
					"internalType": "uint256",
					"name": "_coinPerBlock",
					"type": "uint256"
				}
			],
			"name": "updateEmissionRate",
			"outputs": [],
			"stateMutability": "nonpayable",
			"type": "function"
		},
		{
			"inputs": [
				{
					"internalType": "uint256",
					"name": "_pid",
					"type": "uint256"
				}
			],
			"name": "updatePool",
			"outputs": [],
			"stateMutability": "nonpayable",
			"type": "function"
		},
		{
			"inputs": [],
			"name": "updatePrice",
			"outputs": [],
			"stateMutability": "nonpayable",
			"type": "function"
		},
		{
			"inputs": [
				{
					"internalType": "uint256",
					"name": "",
					"type": "uint256"
				},
				{
					"internalType": "address",
					"name": "",
					"type": "address"
				}
			],
			"name": "userInfos",
			"outputs": [
				{
					"internalType": "uint256",
					"name": "amount",
					"type": "uint256"
				},
				{
					"internalType": "uint256",
					"name": "rewardDebt",
					"type": "uint256"
				},
				{
					"internalType": "uint256",
					"name": "lastDeposit",
					"type": "uint256"
				}
			],
			"stateMutability": "view",
			"type": "function"
		},
		{
			"inputs": [
				{
					"internalType": "bool",
					"name": "_whitelisted",
					"type": "bool"
				},
				{
					"internalType": "address",
					"name": "_address",
					"type": "address"
				}
			],
			"name": "whitelist",
			"outputs": [],
			"stateMutability": "nonpayable",
			"type": "function"
		},
		{
			"inputs": [
				{
					"internalType": "address",
					"name": "",
					"type": "address"
				}
			],
			"name": "whitelisted",
			"outputs": [
				{
					"internalType": "bool",
					"name": "",
					"type": "bool"
				}
			],
			"stateMutability": "view",
			"type": "function"
		},
		{
			"inputs": [
				{
					"internalType": "uint256",
					"name": "_pid",
					"type": "uint256"
				},
				{
					"internalType": "uint256",
					"name": "_amount",
					"type": "uint256"
				}
			],
			"name": "withdraw",
			"outputs": [],
			"stateMutability": "nonpayable",
			"type": "function"
		},
		{
			"inputs": [
				{
					"internalType": "uint256",
					"name": "_pid",
					"type": "uint256"
				}
			],
			"name": "withdrawWithoutRewards",
			"outputs": [],
			"stateMutability": "nonpayable",
			"type": "function"
		}
	]
}