{
	"data": {
		"bytecode": {
			"linkReferences": {},
			"object": "608060405260006007556009805460ff191660011790553480156200002357600080fd5b50604051620023c5380380620023c583398101604081905262000046916200016c565b6200005133620000ff565b60008111620000bd5760405162461bcd60e51b815260206004820152602e60248201527f41424f41543a3a6572726f723a2050726963652068617320746f20626520686960448201526d67686572207468616e207a65726f60901b606482015260840160405180910390fd5b600180546001600160a01b039687166001600160a01b0319918216179091556002805495909616941693909317909355600455600591909155600355620001bf565b600080546001600160a01b038381166001600160a01b0319831681178455604051919092169283917f8be0079c531659141344cd1fd0a4f28419497f9722a3daafe3b4186f6b6457e09190a35050565b80516001600160a01b03811681146200016757600080fd5b919050565b600080600080600060a086880312156200018557600080fd5b62000190866200014f565b9450620001a0602087016200014f565b6040870151606088015160809098015196999198509695945092505050565b6121f680620001cf6000396000f3fe6080604052600436106101d85760003560e01c8063a4d66daf11610102578063e754e7c411610095578063f3739e0511610064578063f3739e0514610507578063f7c618c11461053d578063f89be5931461055d578063f8cf31cb1461057357600080fd5b8063e754e7c41461049c578063ef78d4fd146104b2578063efe95f51146104c7578063f2fde38b146104e757600080fd5b8063c884ef83116100d1578063c884ef8314610417578063d6b0f48414610444578063d936547e14610459578063d96a094a1461048957600080fd5b8063a4d66daf1461039f578063a5ebf835146103b5578063a960c65f146103ca578063bd8aa780146103f757600080fd5b80635ed9ebfc1161017a578063856734c411610149578063856734c41461032c5780638da5cb5b146103565780639b8906ae146103745780639c92431b1461038a57600080fd5b80635ed9ebfc146102be578063667022fd146102d4578063715018a6146103015780637b1b1de61461031657600080fd5b80632fba2c85116101b65780632fba2c851461023c5780633013ce29146102515780634e71d92d146102895780635372a58e1461029e57600080fd5b80630c0e0862146101dd578063151bad0a146101ff5780632f66194614610227575b600080fd5b3480156101e957600080fd5b506101fd6101f8366004611ee4565b610593565b005b34801561020b57600080fd5b50610214603281565b6040519081526020015b60405180910390f35b34801561023357600080fd5b50610214605a81565b34801561024857600080fd5b50610214610629565b34801561025d57600080fd5b50600254610271906001600160a01b031681565b6040516001600160a01b03909116815260200161021e565b34801561029557600080fd5b506101fd6106d6565b3480156102aa57600080fd5b506101fd6102b9366004611e00565b610aed565b3480156102ca57600080fd5b5061021460065481565b3480156102e057600080fd5b506102146102ef366004611dae565b600b6020526000908152604090205481565b34801561030d57600080fd5b506101fd610d7f565b34801561032257600080fd5b5061021460035481565b34801561033857600080fd5b506009546103469060ff1681565b604051901515815260200161021e565b34801561036257600080fd5b506000546001600160a01b0316610271565b34801561038057600080fd5b5061021460075481565b34801561039657600080fd5b50610214610db5565b3480156103ab57600080fd5b5061021460045481565b3480156103c157600080fd5b50610214606481565b3480156103d657600080fd5b506102146103e5366004611dae565b600d6020526000908152604090205481565b34801561040357600080fd5b506101fd610412366004611dcb565b610e54565b34801561042357600080fd5b50610214610432366004611dae565b600c6020526000908152604090205481565b34801561045057600080fd5b506101fd610f37565b34801561046557600080fd5b50610346610474366004611dae565b600a6020526000908152604090205460ff1681565b6101fd610497366004611ee4565b610fdd565b3480156104a857600080fd5b5061021460085481565b3480156104be57600080fd5b50610214601e81565b3480156104d357600080fd5b506101fd6104e2366004611ee4565b6112c4565b3480156104f357600080fd5b506101fd610502366004611dae565b6114a2565b34801561051357600080fd5b50610271610522366004611dae565b600e602052600090815260409020546001600160a01b031681565b34801561054957600080fd5b50600154610271906001600160a01b031681565b34801561056957600080fd5b5061021460055481565b34801561057f57600080fd5b506101fd61058e366004611dae565b61153a565b6000546001600160a01b031633146105c65760405162461bcd60e51b81526004016105bd90611fd3565b60405180910390fd5b6007546106245760405162461bcd60e51b815260206004820152602660248201527f41424f41543a3a7570646174654166746572446179733a2053616c65206e6f7460448201526508195b99195960d21b60648201526084016105bd565b600855565b6001546000906001600160a01b031661064f5760065461064a9047906117f2565b905090565b6006546001546040516370a0823160e01b815230600482015261064a92916001600160a01b0316906370a082319060240160206040518083038186803b15801561069857600080fd5b505afa1580156106ac573d6000803e3d6000fd5b505050506040513d601f19601f820116820180604052508101906106d09190611efd565b906117f2565b6007546107315760405162461bcd60e51b815260206004820152602360248201527f41424f41543a3a636c61696d3a2053616c65206973206e6f74206f766572207960448201526265742160e81b60648201526084016105bd565b60085461074e906107459062015180611805565b60075490611811565b4210156107af5760405162461bcd60e51b815260206004820152602960248201527f41424f41543a3a636c61696d3a20436c61696d206973206e6f7420617661696c60448201526830b13632903cb2ba1760b91b60648201526084016105bd565b60006107b9610db5565b9050600081116108575760405162461bcd60e51b815260206004820152605d60248201527f41424f41543a3a636c61696d3a205468652070657263656e74616765206f662060448201527f746f6b656e20796f752063616e20636c61696d2069732063757272656e746c7960648201527f207a65726f2e20506c656173652074727920616761696e206c61746572000000608482015260a4016105bd565b600154336000908152600e60205260409020546001600160a01b039081169116146108c257600154336000908152600e6020908152604080832080546001600160a01b0319166001600160a01b0390951694909417909355600c8152828220829055600d9052908120555b336000908152600c602052604090205481116109465760405162461bcd60e51b815260206004820152603c60248201527f41424f41543a3a636c61696d3a20416c726561647920636c61696d656420796f60448201527f75722063757272656e746c7920656c696769626c6520746f6b656e730000000060648201526084016105bd565b60065460055411610a4557336000908152600c602052604081208054908390556003549091906109af906109a3670de0b6b3a76400006109a96103e88361098d8a8a6117f2565b336000908152600b602052604090205490611805565b9061181d565b90611805565b336000908152600d60205260409020549091506109cc9082611811565b336000908152600d60205260409020556001546001600160a01b031615610a0957600154610a04906001600160a01b03163383611829565b610a13565b610a13338261195a565b604051819033907fd8138f8a3f377c5259ca548e70e4c2de94f129f5a11036a15b69513cba2b426a90600090a3505050565b336000908152600c602052604090206103e890556002546001600160a01b031615610a9657600254336000818152600b6020526040902054610a91926001600160a01b03169190611829565b610ab0565b336000818152600b6020526040902054610ab0919061195a565b336000818152600b60205260408082205490519092917fd8138f8a3f377c5259ca548e70e4c2de94f129f5a11036a15b69513cba2b426a91a35b50565b6000546001600160a01b03163314610b175760405162461bcd60e51b81526004016105bd90611fd3565b606482511115610b395760405162461bcd60e51b81526004016105bd90611f65565b6000805b8351811015610d3e576001600a6000868481518110610b5e57610b5e61217f565b60200260200101516001600160a01b03166001600160a01b0316815260200190815260200160002060006101000a81548160ff0219169083151502179055506000610bd96003546109a3670de0b6b3a7640000878681518110610bc357610bc361217f565b602002602001015161180590919063ffffffff16565b90506000610be9826106d0610629565b11610c065760405162461bcd60e51b81526004016105bd90612008565b610c70848381518110610c1b57610c1b61217f565b6020026020010151600b6000888681518110610c3957610c3961217f565b60200260200101516001600160a01b03166001600160a01b031681526020019081526020016000205461181190919063ffffffff16565b600b6000878581518110610c8657610c8661217f565b6020908102919091018101516001600160a01b0316825281019190915260400160002055610cb48382611811565b60025486519194506001600160a01b031690600e90600090889086908110610cde57610cde61217f565b60200260200101516001600160a01b03166001600160a01b0316815260200190815260200160002060006101000a8154816001600160a01b0302191690836001600160a01b03160217905550508080610d369061214e565b915050610b3d565b50600654610d4c9082611811565b60065582516040517f6074084f4dbd9879d266f074be61eb039a0db2aa46e98e700223ad5c2bef5bd590600090a2505050565b6000546001600160a01b03163314610da95760405162461bcd60e51b81526004016105bd90611fd3565b610db36000611a39565b565b600080610dce605a60075461181190919063ffffffff16565b90506000610ded60085462015180610de691906120ec565b8390611811565b9050600080600754118015610e0157508142115b610e0c576064610e37565b610e376064610e3160326109a9610e27601e620151806120ec565b6109a342896117f2565b90611811565b90506103e88111610e485780610e4c565b6103e85b935050505090565b6000546001600160a01b03163314610e7e5760405162461bcd60e51b81526004016105bd90611fd3565b606481511115610ea05760405162461bcd60e51b81526004016105bd90611f65565b60005b8151811015610f08576001600a6000848481518110610ec457610ec461217f565b6020908102919091018101516001600160a01b03168252810191909152604001600020805460ff191691151591909117905580610f008161214e565b915050610ea3565b5080516040517ff899e24720678b9547483d3c332e9a7e1eabb9c013bd2e0ff30d83806cf421f390600090a250565b6000546001600160a01b03163314610f615760405162461bcd60e51b81526004016105bd90611fd3565b60095460ff16610fd15760405162461bcd60e51b815260206004820152603560248201527f41424f41543a64697361626c6557686974656c6973743a2057686974656c69736044820152741d081a5cc8185b1c9958591e48191a5cd8589b1959605a1b60648201526084016105bd565b6009805460ff19169055565b6007541561102d5760405162461bcd60e51b815260206004820152601f60248201527f41424f41543a3a6275793a2053616c6520616c726561647920656e646564210060448201526064016105bd565b336000908152600a602052604090205460ff168061104e575060095460ff16155b6110b45760405162461bcd60e51b815260206004820152603160248201527f41424f41543a3a6275793a20596f75277265206e6f742077686974656c697374604482015270656420666f7220746869732073616c652160781b60648201526084016105bd565b6002546001600160a01b0316158015806110cd57508134145b6111365760405162461bcd60e51b815260206004820152603460248201527f41424f41543a3a6275793a2053656e742076616c756520646f65736e2774206d60448201527319595d081d1a194819da5d995b88185b5bdd5b9d60621b60648201526084016105bd565b600454336000908152600b60205260409020546111539084611811565b11156111c75760405162461bcd60e51b815260206004820152603960248201527f41424f41543a3a6275793a20416d6f756e7420776f756c64206578636565642060448201527f746865206d6178696d756d20616c6c6f776564206c696d69740000000000000060648201526084016105bd565b6003546000906111e3906109a385670de0b6b3a7640000611805565b905060006111f3826106d0610629565b116112105760405162461bcd60e51b81526004016105bd90612008565b8161122d5760025461122d906001600160a01b0316333086611a89565b336000908152600b60205260409020546112479084611811565b336000908152600b60205260409020556006546112649082611811565b600655600254336000818152600e602052604080822080546001600160a01b0319166001600160a01b0390951694909417909355915185927fc55650ccda1011e1cdc769b1fbf546ebb8c97800b6072b49e06cd560305b1d6791a3505050565b6000546001600160a01b031633146112ee5760405162461bcd60e51b81526004016105bd90611fd3565b600754156113515760405162461bcd60e51b815260206004820152602a60248201527f41424f41543a3a636c61696d416e64456e6453616c653a2053616c6520616c726044820152691958591e48195b99195960b21b60648201526084016105bd565b426007556006546005541161140c5760088190556002546001600160a01b031615611402576002546040516370a0823160e01b81523060048201526113fd916001600160a01b031690339082906370a08231906024015b60206040518083038186803b1580156113c057600080fd5b505afa1580156113d4573d6000803e3d6000fd5b505050506040513d601f19601f820116820180604052508101906113f89190611efd565b611829565b611462565b6113fd334761195a565b60006008556001546001600160a01b031615611458576001546040516370a0823160e01b81523060048201526113fd916001600160a01b031690339082906370a08231906024016113a8565b611462334761195a565b600854611476906107459062015180611805565b6040517f94bb74a9473ae4063ec1e73dc3e35fd4b5abe9cc1e43ad0db84e5358559ccd5a90600090a250565b6000546001600160a01b031633146114cc5760405162461bcd60e51b81526004016105bd90611fd3565b6001600160a01b0381166115315760405162461bcd60e51b815260206004820152602660248201527f4f776e61626c653a206e6577206f776e657220697320746865207a65726f206160448201526564647265737360d01b60648201526084016105bd565b610aea81611a39565b6000546001600160a01b031633146115645760405162461bcd60e51b81526004016105bd90611fd3565b6001546001600160a01b03828116911614156115f75760405162461bcd60e51b815260206004820152604660248201527f41424f41543a3a757064617465526577617264546f6b656e3a204e657720726560448201527f776172642073686f756c6420626520646966666572656e742066726f6d206375606482015265393932b73a1760d11b608482015260a4016105bd565b6001546040516370a0823160e01b81523060048201526001600160a01b03909116906370a082319060240160206040518083038186803b15801561163a57600080fd5b505afa15801561164e573d6000803e3d6000fd5b505050506040513d601f19601f820116820180604052508101906116729190611efd565b6040516370a0823160e01b81523060048201526001600160a01b038316906370a082319060240160206040518083038186803b1580156116b157600080fd5b505afa1580156116c5573d6000803e3d6000fd5b505050506040513d601f19601f820116820180604052508101906116e99190611efd565b146117a85760405162461bcd60e51b815260206004820152607760248201527f41424f41543a3a757064617465526577617264546f6b656e3a2054686520636f60448201527f6e74726163742073686f756c6420636f6e7461696e2061746c6561737420746860648201527f652073616d6520616d6f756e74206f6620746f6b656e732061732066726f6d2060848201527f7468652063757272656e7420726577617264546f6b656e00000000000000000060a482015260c4016105bd565b600180546001600160a01b0319166001600160a01b0383169081179091556040517f3fcfc24a3384ca156092d9242cb0f84abaf442146d91b8c93bea526561b83f8390600090a250565b60006117fe828461210b565b9392505050565b60006117fe82846120ec565b60006117fe82846120b2565b60006117fe82846120ca565b604080516001600160a01b038481166024830152604480830185905283518084039091018152606490920183526020820180516001600160e01b031663a9059cbb60e01b17905291516000928392908716916118859190611f16565b6000604051808303816000865af19150503d80600081146118c2576040519150601f19603f3d011682016040523d82523d6000602084013e6118c7565b606091505b50915091508180156118f15750805115806118f15750808060200190518101906118f19190611ec2565b6119535760405162461bcd60e51b815260206004820152602d60248201527f5472616e7366657248656c7065723a3a736166655472616e736665723a20747260448201526c185b9cd9995c8819985a5b1959609a1b60648201526084016105bd565b5050505050565b604080516000808252602082019092526001600160a01b0384169083906040516119849190611f16565b60006040518083038185875af1925050503d80600081146119c1576040519150601f19603f3d011682016040523d82523d6000602084013e6119c6565b606091505b5050905080611a345760405162461bcd60e51b815260206004820152603460248201527f5472616e7366657248656c7065723a3a736166655472616e736665724554483a60448201527308115512081d1c985b9cd9995c8819985a5b195960621b60648201526084016105bd565b505050565b600080546001600160a01b038381166001600160a01b0319831681178455604051919092169283917f8be0079c531659141344cd1fd0a4f28419497f9722a3daafe3b4186f6b6457e09190a35050565b604080516001600160a01b0385811660248301528416604482015260648082018490528251808303909101815260849091019091526020810180516001600160e01b03166323b872dd60e01b179052611ae3908590611ae9565b50505050565b6000611b3e826040518060400160405280602081526020017f5361666545524332303a206c6f772d6c6576656c2063616c6c206661696c6564815250856001600160a01b0316611bbb9092919063ffffffff16565b805190915015611a345780806020019051810190611b5c9190611ec2565b611a345760405162461bcd60e51b815260206004820152602a60248201527f5361666545524332303a204552433230206f7065726174696f6e20646964206e6044820152691bdd081cdd58d8d9595960b21b60648201526084016105bd565b6060611bca8484600085611bd2565b949350505050565b606082471015611c335760405162461bcd60e51b815260206004820152602660248201527f416464726573733a20696e73756666696369656e742062616c616e636520666f6044820152651c8818d85b1b60d21b60648201526084016105bd565b843b611c815760405162461bcd60e51b815260206004820152601d60248201527f416464726573733a2063616c6c20746f206e6f6e2d636f6e747261637400000060448201526064016105bd565b600080866001600160a01b03168587604051611c9d9190611f16565b60006040518083038185875af1925050503d8060008114611cda576040519150601f19603f3d011682016040523d82523d6000602084013e611cdf565b606091505b5091509150611cef828286611cfa565b979650505050505050565b60608315611d095750816117fe565b825115611d195782518084602001fd5b8160405162461bcd60e51b81526004016105bd9190611f32565b600082601f830112611d4457600080fd5b81356020611d59611d548361208e565b61205d565b80838252828201915082860187848660051b8901011115611d7957600080fd5b60005b85811015611da1578135611d8f816121ab565b84529284019290840190600101611d7c565b5090979650505050505050565b600060208284031215611dc057600080fd5b81356117fe816121ab565b600060208284031215611ddd57600080fd5b813567ffffffffffffffff811115611df457600080fd5b611bca84828501611d33565b60008060408385031215611e1357600080fd5b823567ffffffffffffffff80821115611e2b57600080fd5b611e3786838701611d33565b9350602091508185013581811115611e4e57600080fd5b85019050601f81018613611e6157600080fd5b8035611e6f611d548261208e565b80828252848201915084840189868560051b8701011115611e8f57600080fd5b600094505b83851015611eb2578035835260019490940193918501918501611e94565b5080955050505050509250929050565b600060208284031215611ed457600080fd5b815180151581146117fe57600080fd5b600060208284031215611ef657600080fd5b5035919050565b600060208284031215611f0f57600080fd5b5051919050565b60008251611f28818460208701612122565b9190910192915050565b6020815260008251806020840152611f51816040850160208701612122565b601f01601f19169190910160400192915050565b60208082526048908201527f41424f41543a3a77686974656c6973743a20596f752063616e2774206164642060408201527f6d6f7265207468616e2031303020616464726573736573206174207468652073606082015267616d652074696d6560c01b608082015260a00190565b6020808252818101527f4f776e61626c653a2063616c6c6572206973206e6f7420746865206f776e6572604082015260600190565b60208082526035908201527f41424f41543a3a6275793a20416d6f756e7420776f756c6420657863656564206040820152747468652072656d61696e696e672062616c616e636560581b606082015260800190565b604051601f8201601f1916810167ffffffffffffffff8111828210171561208657612086612195565b604052919050565b600067ffffffffffffffff8211156120a8576120a8612195565b5060051b60200190565b600082198211156120c5576120c5612169565b500190565b6000826120e757634e487b7160e01b600052601260045260246000fd5b500490565b600081600019048311821515161561210657612106612169565b500290565b60008282101561211d5761211d612169565b500390565b60005b8381101561213d578181015183820152602001612125565b83811115611ae35750506000910152565b600060001982141561216257612162612169565b5060010190565b634e487b7160e01b600052601160045260246000fd5b634e487b7160e01b600052603260045260246000fd5b634e487b7160e01b600052604160045260246000fd5b6001600160a01b0381168114610aea57600080fdfea2646970667358221220740bdcaf50cb2d0f996efe8b066170e7a5a7446e5eb776c4c91712070986d38f64736f6c63430008070033",
			"opcodes": "PUSH1 0x80 PUSH1 0x40 MSTORE PUSH1 0x0 PUSH1 0x7 SSTORE PUSH1 0x9 DUP1 SLOAD PUSH1 0xFF NOT AND PUSH1 0x1 OR SWAP1 SSTORE CALLVALUE DUP1 ISZERO PUSH3 0x23 JUMPI PUSH1 0x0 DUP1 REVERT JUMPDEST POP PUSH1 0x40 MLOAD PUSH3 0x23C5 CODESIZE SUB DUP1 PUSH3 0x23C5 DUP4 CODECOPY DUP2 ADD PUSH1 0x40 DUP2 SWAP1 MSTORE PUSH3 0x46 SWAP2 PUSH3 0x16C JUMP JUMPDEST PUSH3 0x51 CALLER PUSH3 0xFF JUMP JUMPDEST PUSH1 0x0 DUP2 GT PUSH3 0xBD JUMPI PUSH1 0x40 MLOAD PUSH3 0x461BCD PUSH1 0xE5 SHL DUP2 MSTORE PUSH1 0x20 PUSH1 0x4 DUP3 ADD MSTORE PUSH1 0x2E PUSH1 0x24 DUP3 ADD MSTORE PUSH32 0x41424F41543A3A6572726F723A2050726963652068617320746F206265206869 PUSH1 0x44 DUP3 ADD MSTORE PUSH14 0x67686572207468616E207A65726F PUSH1 0x90 SHL PUSH1 0x64 DUP3 ADD MSTORE PUSH1 0x84 ADD PUSH1 0x40 MLOAD DUP1 SWAP2 SUB SWAP1 REVERT JUMPDEST PUSH1 0x1 DUP1 SLOAD PUSH1 0x1 PUSH1 0x1 PUSH1 0xA0 SHL SUB SWAP7 DUP8 AND PUSH1 0x1 PUSH1 0x1 PUSH1 0xA0 SHL SUB NOT SWAP2 DUP3 AND OR SWAP1 SWAP2 SSTORE PUSH1 0x2 DUP1 SLOAD SWAP6 SWAP1 SWAP7 AND SWAP5 AND SWAP4 SWAP1 SWAP4 OR SWAP1 SWAP4 SSTORE PUSH1 0x4 SSTORE PUSH1 0x5 SWAP2 SWAP1 SWAP2 SSTORE PUSH1 0x3 SSTORE PUSH3 0x1BF JUMP JUMPDEST PUSH1 0x0 DUP1 SLOAD PUSH1 0x1 PUSH1 0x1 PUSH1 0xA0 SHL SUB DUP4 DUP2 AND PUSH1 0x1 PUSH1 0x1 PUSH1 0xA0 SHL SUB NOT DUP4 AND DUP2 OR DUP5 SSTORE PUSH1 0x40 MLOAD SWAP2 SWAP1 SWAP3 AND SWAP3 DUP4 SWAP2 PUSH32 0x8BE0079C531659141344CD1FD0A4F28419497F9722A3DAAFE3B4186F6B6457E0 SWAP2 SWAP1 LOG3 POP POP JUMP JUMPDEST DUP1 MLOAD PUSH1 0x1 PUSH1 0x1 PUSH1 0xA0 SHL SUB DUP2 AND DUP2 EQ PUSH3 0x167 JUMPI PUSH1 0x0 DUP1 REVERT JUMPDEST SWAP2 SWAP1 POP JUMP JUMPDEST PUSH1 0x0 DUP1 PUSH1 0x0 DUP1 PUSH1 0x0 PUSH1 0xA0 DUP7 DUP9 SUB SLT ISZERO PUSH3 0x185 JUMPI PUSH1 0x0 DUP1 REVERT JUMPDEST PUSH3 0x190 DUP7 PUSH3 0x14F JUMP JUMPDEST SWAP5 POP PUSH3 0x1A0 PUSH1 0x20 DUP8 ADD PUSH3 0x14F JUMP JUMPDEST PUSH1 0x40 DUP8 ADD MLOAD PUSH1 0x60 DUP9 ADD MLOAD PUSH1 0x80 SWAP1 SWAP9 ADD MLOAD SWAP7 SWAP10 SWAP2 SWAP9 POP SWAP7 SWAP6 SWAP5 POP SWAP3 POP POP POP JUMP JUMPDEST PUSH2 0x21F6 DUP1 PUSH3 0x1CF PUSH1 0x0 CODECOPY PUSH1 0x0 RETURN INVALID PUSH1 0x80 PUSH1 0x40 MSTORE PUSH1 0x4 CALLDATASIZE LT PUSH2 0x1D8 JUMPI PUSH1 0x0 CALLDATALOAD PUSH1 0xE0 SHR DUP1 PUSH4 0xA4D66DAF GT PUSH2 0x102 JUMPI DUP1 PUSH4 0xE754E7C4 GT PUSH2 0x95 JUMPI DUP1 PUSH4 0xF3739E05 GT PUSH2 0x64 JUMPI DUP1 PUSH4 0xF3739E05 EQ PUSH2 0x507 JUMPI DUP1 PUSH4 0xF7C618C1 EQ PUSH2 0x53D JUMPI DUP1 PUSH4 0xF89BE593 EQ PUSH2 0x55D JUMPI DUP1 PUSH4 0xF8CF31CB EQ PUSH2 0x573 JUMPI PUSH1 0x0 DUP1 REVERT JUMPDEST DUP1 PUSH4 0xE754E7C4 EQ PUSH2 0x49C JUMPI DUP1 PUSH4 0xEF78D4FD EQ PUSH2 0x4B2 JUMPI DUP1 PUSH4 0xEFE95F51 EQ PUSH2 0x4C7 JUMPI DUP1 PUSH4 0xF2FDE38B EQ PUSH2 0x4E7 JUMPI PUSH1 0x0 DUP1 REVERT JUMPDEST DUP1 PUSH4 0xC884EF83 GT PUSH2 0xD1 JUMPI DUP1 PUSH4 0xC884EF83 EQ PUSH2 0x417 JUMPI DUP1 PUSH4 0xD6B0F484 EQ PUSH2 0x444 JUMPI DUP1 PUSH4 0xD936547E EQ PUSH2 0x459 JUMPI DUP1 PUSH4 0xD96A094A EQ PUSH2 0x489 JUMPI PUSH1 0x0 DUP1 REVERT JUMPDEST DUP1 PUSH4 0xA4D66DAF EQ PUSH2 0x39F JUMPI DUP1 PUSH4 0xA5EBF835 EQ PUSH2 0x3B5 JUMPI DUP1 PUSH4 0xA960C65F EQ PUSH2 0x3CA JUMPI DUP1 PUSH4 0xBD8AA780 EQ PUSH2 0x3F7 JUMPI PUSH1 0x0 DUP1 REVERT JUMPDEST DUP1 PUSH4 0x5ED9EBFC GT PUSH2 0x17A JUMPI DUP1 PUSH4 0x856734C4 GT PUSH2 0x149 JUMPI DUP1 PUSH4 0x856734C4 EQ PUSH2 0x32C JUMPI DUP1 PUSH4 0x8DA5CB5B EQ PUSH2 0x356 JUMPI DUP1 PUSH4 0x9B8906AE EQ PUSH2 0x374 JUMPI DUP1 PUSH4 0x9C92431B EQ PUSH2 0x38A JUMPI PUSH1 0x0 DUP1 REVERT JUMPDEST DUP1 PUSH4 0x5ED9EBFC EQ PUSH2 0x2BE JUMPI DUP1 PUSH4 0x667022FD EQ PUSH2 0x2D4 JUMPI DUP1 PUSH4 0x715018A6 EQ PUSH2 0x301 JUMPI DUP1 PUSH4 0x7B1B1DE6 EQ PUSH2 0x316 JUMPI PUSH1 0x0 DUP1 REVERT JUMPDEST DUP1 PUSH4 0x2FBA2C85 GT PUSH2 0x1B6 JUMPI DUP1 PUSH4 0x2FBA2C85 EQ PUSH2 0x23C JUMPI DUP1 PUSH4 0x3013CE29 EQ PUSH2 0x251 JUMPI DUP1 PUSH4 0x4E71D92D EQ PUSH2 0x289 JUMPI DUP1 PUSH4 0x5372A58E EQ PUSH2 0x29E JUMPI PUSH1 0x0 DUP1 REVERT JUMPDEST DUP1 PUSH4 0xC0E0862 EQ PUSH2 0x1DD JUMPI DUP1 PUSH4 0x151BAD0A EQ PUSH2 0x1FF JUMPI DUP1 PUSH4 0x2F661946 EQ PUSH2 0x227 JUMPI JUMPDEST PUSH1 0x0 DUP1 REVERT JUMPDEST CALLVALUE DUP1 ISZERO PUSH2 0x1E9 JUMPI PUSH1 0x0 DUP1 REVERT JUMPDEST POP PUSH2 0x1FD PUSH2 0x1F8 CALLDATASIZE PUSH1 0x4 PUSH2 0x1EE4 JUMP JUMPDEST PUSH2 0x593 JUMP JUMPDEST STOP JUMPDEST CALLVALUE DUP1 ISZERO PUSH2 0x20B JUMPI PUSH1 0x0 DUP1 REVERT JUMPDEST POP PUSH2 0x214 PUSH1 0x32 DUP2 JUMP JUMPDEST PUSH1 0x40 MLOAD SWAP1 DUP2 MSTORE PUSH1 0x20 ADD JUMPDEST PUSH1 0x40 MLOAD DUP1 SWAP2 SUB SWAP1 RETURN JUMPDEST CALLVALUE DUP1 ISZERO PUSH2 0x233 JUMPI PUSH1 0x0 DUP1 REVERT JUMPDEST POP PUSH2 0x214 PUSH1 0x5A DUP2 JUMP JUMPDEST CALLVALUE DUP1 ISZERO PUSH2 0x248 JUMPI PUSH1 0x0 DUP1 REVERT JUMPDEST POP PUSH2 0x214 PUSH2 0x629 JUMP JUMPDEST CALLVALUE DUP1 ISZERO PUSH2 0x25D JUMPI PUSH1 0x0 DUP1 REVERT JUMPDEST POP PUSH1 0x2 SLOAD PUSH2 0x271 SWAP1 PUSH1 0x1 PUSH1 0x1 PUSH1 0xA0 SHL SUB AND DUP2 JUMP JUMPDEST PUSH1 0x40 MLOAD PUSH1 0x1 PUSH1 0x1 PUSH1 0xA0 SHL SUB SWAP1 SWAP2 AND DUP2 MSTORE PUSH1 0x20 ADD PUSH2 0x21E JUMP JUMPDEST CALLVALUE DUP1 ISZERO PUSH2 0x295 JUMPI PUSH1 0x0 DUP1 REVERT JUMPDEST POP PUSH2 0x1FD PUSH2 0x6D6 JUMP JUMPDEST CALLVALUE DUP1 ISZERO PUSH2 0x2AA JUMPI PUSH1 0x0 DUP1 REVERT JUMPDEST POP PUSH2 0x1FD PUSH2 0x2B9 CALLDATASIZE PUSH1 0x4 PUSH2 0x1E00 JUMP JUMPDEST PUSH2 0xAED JUMP JUMPDEST CALLVALUE DUP1 ISZERO PUSH2 0x2CA JUMPI PUSH1 0x0 DUP1 REVERT JUMPDEST POP PUSH2 0x214 PUSH1 0x6 SLOAD DUP2 JUMP JUMPDEST CALLVALUE DUP1 ISZERO PUSH2 0x2E0 JUMPI PUSH1 0x0 DUP1 REVERT JUMPDEST POP PUSH2 0x214 PUSH2 0x2EF CALLDATASIZE PUSH1 0x4 PUSH2 0x1DAE JUMP JUMPDEST PUSH1 0xB PUSH1 0x20 MSTORE PUSH1 0x0 SWAP1 DUP2 MSTORE PUSH1 0x40 SWAP1 KECCAK256 SLOAD DUP2 JUMP JUMPDEST CALLVALUE DUP1 ISZERO PUSH2 0x30D JUMPI PUSH1 0x0 DUP1 REVERT JUMPDEST POP PUSH2 0x1FD PUSH2 0xD7F JUMP JUMPDEST CALLVALUE DUP1 ISZERO PUSH2 0x322 JUMPI PUSH1 0x0 DUP1 REVERT JUMPDEST POP PUSH2 0x214 PUSH1 0x3 SLOAD DUP2 JUMP JUMPDEST CALLVALUE DUP1 ISZERO PUSH2 0x338 JUMPI PUSH1 0x0 DUP1 REVERT JUMPDEST POP PUSH1 0x9 SLOAD PUSH2 0x346 SWAP1 PUSH1 0xFF AND DUP2 JUMP JUMPDEST PUSH1 0x40 MLOAD SWAP1 ISZERO ISZERO DUP2 MSTORE PUSH1 0x20 ADD PUSH2 0x21E JUMP JUMPDEST CALLVALUE DUP1 ISZERO PUSH2 0x362 JUMPI PUSH1 0x0 DUP1 REVERT JUMPDEST POP PUSH1 0x0 SLOAD PUSH1 0x1 PUSH1 0x1 PUSH1 0xA0 SHL SUB AND PUSH2 0x271 JUMP JUMPDEST CALLVALUE DUP1 ISZERO PUSH2 0x380 JUMPI PUSH1 0x0 DUP1 REVERT JUMPDEST POP PUSH2 0x214 PUSH1 0x7 SLOAD DUP2 JUMP JUMPDEST CALLVALUE DUP1 ISZERO PUSH2 0x396 JUMPI PUSH1 0x0 DUP1 REVERT JUMPDEST POP PUSH2 0x214 PUSH2 0xDB5 JUMP JUMPDEST CALLVALUE DUP1 ISZERO PUSH2 0x3AB JUMPI PUSH1 0x0 DUP1 REVERT JUMPDEST POP PUSH2 0x214 PUSH1 0x4 SLOAD DUP2 JUMP JUMPDEST CALLVALUE DUP1 ISZERO PUSH2 0x3C1 JUMPI PUSH1 0x0 DUP1 REVERT JUMPDEST POP PUSH2 0x214 PUSH1 0x64 DUP2 JUMP JUMPDEST CALLVALUE DUP1 ISZERO PUSH2 0x3D6 JUMPI PUSH1 0x0 DUP1 REVERT JUMPDEST POP PUSH2 0x214 PUSH2 0x3E5 CALLDATASIZE PUSH1 0x4 PUSH2 0x1DAE JUMP JUMPDEST PUSH1 0xD PUSH1 0x20 MSTORE PUSH1 0x0 SWAP1 DUP2 MSTORE PUSH1 0x40 SWAP1 KECCAK256 SLOAD DUP2 JUMP JUMPDEST CALLVALUE DUP1 ISZERO PUSH2 0x403 JUMPI PUSH1 0x0 DUP1 REVERT JUMPDEST POP PUSH2 0x1FD PUSH2 0x412 CALLDATASIZE PUSH1 0x4 PUSH2 0x1DCB JUMP JUMPDEST PUSH2 0xE54 JUMP JUMPDEST CALLVALUE DUP1 ISZERO PUSH2 0x423 JUMPI PUSH1 0x0 DUP1 REVERT JUMPDEST POP PUSH2 0x214 PUSH2 0x432 CALLDATASIZE PUSH1 0x4 PUSH2 0x1DAE JUMP JUMPDEST PUSH1 0xC PUSH1 0x20 MSTORE PUSH1 0x0 SWAP1 DUP2 MSTORE PUSH1 0x40 SWAP1 KECCAK256 SLOAD DUP2 JUMP JUMPDEST CALLVALUE DUP1 ISZERO PUSH2 0x450 JUMPI PUSH1 0x0 DUP1 REVERT JUMPDEST POP PUSH2 0x1FD PUSH2 0xF37 JUMP JUMPDEST CALLVALUE DUP1 ISZERO PUSH2 0x465 JUMPI PUSH1 0x0 DUP1 REVERT JUMPDEST POP PUSH2 0x346 PUSH2 0x474 CALLDATASIZE PUSH1 0x4 PUSH2 0x1DAE JUMP JUMPDEST PUSH1 0xA PUSH1 0x20 MSTORE PUSH1 0x0 SWAP1 DUP2 MSTORE PUSH1 0x40 SWAP1 KECCAK256 SLOAD PUSH1 0xFF AND DUP2 JUMP JUMPDEST PUSH2 0x1FD PUSH2 0x497 CALLDATASIZE PUSH1 0x4 PUSH2 0x1EE4 JUMP JUMPDEST PUSH2 0xFDD JUMP JUMPDEST CALLVALUE DUP1 ISZERO PUSH2 0x4A8 JUMPI PUSH1 0x0 DUP1 REVERT JUMPDEST POP PUSH2 0x214 PUSH1 0x8 SLOAD DUP2 JUMP JUMPDEST CALLVALUE DUP1 ISZERO PUSH2 0x4BE JUMPI PUSH1 0x0 DUP1 REVERT JUMPDEST POP PUSH2 0x214 PUSH1 0x1E DUP2 JUMP JUMPDEST CALLVALUE DUP1 ISZERO PUSH2 0x4D3 JUMPI PUSH1 0x0 DUP1 REVERT JUMPDEST POP PUSH2 0x1FD PUSH2 0x4E2 CALLDATASIZE PUSH1 0x4 PUSH2 0x1EE4 JUMP JUMPDEST PUSH2 0x12C4 JUMP JUMPDEST CALLVALUE DUP1 ISZERO PUSH2 0x4F3 JUMPI PUSH1 0x0 DUP1 REVERT JUMPDEST POP PUSH2 0x1FD PUSH2 0x502 CALLDATASIZE PUSH1 0x4 PUSH2 0x1DAE JUMP JUMPDEST PUSH2 0x14A2 JUMP JUMPDEST CALLVALUE DUP1 ISZERO PUSH2 0x513 JUMPI PUSH1 0x0 DUP1 REVERT JUMPDEST POP PUSH2 0x271 PUSH2 0x522 CALLDATASIZE PUSH1 0x4 PUSH2 0x1DAE JUMP JUMPDEST PUSH1 0xE PUSH1 0x20 MSTORE PUSH1 0x0 SWAP1 DUP2 MSTORE PUSH1 0x40 SWAP1 KECCAK256 SLOAD PUSH1 0x1 PUSH1 0x1 PUSH1 0xA0 SHL SUB AND DUP2 JUMP JUMPDEST CALLVALUE DUP1 ISZERO PUSH2 0x549 JUMPI PUSH1 0x0 DUP1 REVERT JUMPDEST POP PUSH1 0x1 SLOAD PUSH2 0x271 SWAP1 PUSH1 0x1 PUSH1 0x1 PUSH1 0xA0 SHL SUB AND DUP2 JUMP JUMPDEST CALLVALUE DUP1 ISZERO PUSH2 0x569 JUMPI PUSH1 0x0 DUP1 REVERT JUMPDEST POP PUSH2 0x214 PUSH1 0x5 SLOAD DUP2 JUMP JUMPDEST CALLVALUE DUP1 ISZERO PUSH2 0x57F JUMPI PUSH1 0x0 DUP1 REVERT JUMPDEST POP PUSH2 0x1FD PUSH2 0x58E CALLDATASIZE PUSH1 0x4 PUSH2 0x1DAE JUMP JUMPDEST PUSH2 0x153A JUMP JUMPDEST PUSH1 0x0 SLOAD PUSH1 0x1 PUSH1 0x1 PUSH1 0xA0 SHL SUB AND CALLER EQ PUSH2 0x5C6 JUMPI PUSH1 0x40 MLOAD PUSH3 0x461BCD PUSH1 0xE5 SHL DUP2 MSTORE PUSH1 0x4 ADD PUSH2 0x5BD SWAP1 PUSH2 0x1FD3 JUMP JUMPDEST PUSH1 0x40 MLOAD DUP1 SWAP2 SUB SWAP1 REVERT JUMPDEST PUSH1 0x7 SLOAD PUSH2 0x624 JUMPI PUSH1 0x40 MLOAD PUSH3 0x461BCD PUSH1 0xE5 SHL DUP2 MSTORE PUSH1 0x20 PUSH1 0x4 DUP3 ADD MSTORE PUSH1 0x26 PUSH1 0x24 DUP3 ADD MSTORE PUSH32 0x41424F41543A3A7570646174654166746572446179733A2053616C65206E6F74 PUSH1 0x44 DUP3 ADD MSTORE PUSH6 0x8195B991959 PUSH1 0xD2 SHL PUSH1 0x64 DUP3 ADD MSTORE PUSH1 0x84 ADD PUSH2 0x5BD JUMP JUMPDEST PUSH1 0x8 SSTORE JUMP JUMPDEST PUSH1 0x1 SLOAD PUSH1 0x0 SWAP1 PUSH1 0x1 PUSH1 0x1 PUSH1 0xA0 SHL SUB AND PUSH2 0x64F JUMPI PUSH1 0x6 SLOAD PUSH2 0x64A SWAP1 SELFBALANCE SWAP1 PUSH2 0x17F2 JUMP JUMPDEST SWAP1 POP SWAP1 JUMP JUMPDEST PUSH1 0x6 SLOAD PUSH1 0x1 SLOAD PUSH1 0x40 MLOAD PUSH4 0x70A08231 PUSH1 0xE0 SHL DUP2 MSTORE ADDRESS PUSH1 0x4 DUP3 ADD MSTORE PUSH2 0x64A SWAP3 SWAP2 PUSH1 0x1 PUSH1 0x1 PUSH1 0xA0 SHL SUB AND SWAP1 PUSH4 0x70A08231 SWAP1 PUSH1 0x24 ADD PUSH1 0x20 PUSH1 0x40 MLOAD DUP1 DUP4 SUB DUP2 DUP7 DUP1 EXTCODESIZE ISZERO DUP1 ISZERO PUSH2 0x698 JUMPI PUSH1 0x0 DUP1 REVERT JUMPDEST POP GAS STATICCALL ISZERO DUP1 ISZERO PUSH2 0x6AC JUMPI RETURNDATASIZE PUSH1 0x0 DUP1 RETURNDATACOPY RETURNDATASIZE PUSH1 0x0 REVERT JUMPDEST POP POP POP POP PUSH1 0x40 MLOAD RETURNDATASIZE PUSH1 0x1F NOT PUSH1 0x1F DUP3 ADD AND DUP3 ADD DUP1 PUSH1 0x40 MSTORE POP DUP2 ADD SWAP1 PUSH2 0x6D0 SWAP2 SWAP1 PUSH2 0x1EFD JUMP JUMPDEST SWAP1 PUSH2 0x17F2 JUMP JUMPDEST PUSH1 0x7 SLOAD PUSH2 0x731 JUMPI PUSH1 0x40 MLOAD PUSH3 0x461BCD PUSH1 0xE5 SHL DUP2 MSTORE PUSH1 0x20 PUSH1 0x4 DUP3 ADD MSTORE PUSH1 0x23 PUSH1 0x24 DUP3 ADD MSTORE PUSH32 0x41424F41543A3A636C61696D3A2053616C65206973206E6F74206F7665722079 PUSH1 0x44 DUP3 ADD MSTORE PUSH3 0x657421 PUSH1 0xE8 SHL PUSH1 0x64 DUP3 ADD MSTORE PUSH1 0x84 ADD PUSH2 0x5BD JUMP JUMPDEST PUSH1 0x8 SLOAD PUSH2 0x74E SWAP1 PUSH2 0x745 SWAP1 PUSH3 0x15180 PUSH2 0x1805 JUMP JUMPDEST PUSH1 0x7 SLOAD SWAP1 PUSH2 0x1811 JUMP JUMPDEST TIMESTAMP LT ISZERO PUSH2 0x7AF JUMPI PUSH1 0x40 MLOAD PUSH3 0x461BCD PUSH1 0xE5 SHL DUP2 MSTORE PUSH1 0x20 PUSH1 0x4 DUP3 ADD MSTORE PUSH1 0x29 PUSH1 0x24 DUP3 ADD MSTORE PUSH32 0x41424F41543A3A636C61696D3A20436C61696D206973206E6F7420617661696C PUSH1 0x44 DUP3 ADD MSTORE PUSH9 0x30B13632903CB2BA17 PUSH1 0xB9 SHL PUSH1 0x64 DUP3 ADD MSTORE PUSH1 0x84 ADD PUSH2 0x5BD JUMP JUMPDEST PUSH1 0x0 PUSH2 0x7B9 PUSH2 0xDB5 JUMP JUMPDEST SWAP1 POP PUSH1 0x0 DUP2 GT PUSH2 0x857 JUMPI PUSH1 0x40 MLOAD PUSH3 0x461BCD PUSH1 0xE5 SHL DUP2 MSTORE PUSH1 0x20 PUSH1 0x4 DUP3 ADD MSTORE PUSH1 0x5D PUSH1 0x24 DUP3 ADD MSTORE PUSH32 0x41424F41543A3A636C61696D3A205468652070657263656E74616765206F6620 PUSH1 0x44 DUP3 ADD MSTORE PUSH32 0x746F6B656E20796F752063616E20636C61696D2069732063757272656E746C79 PUSH1 0x64 DUP3 ADD MSTORE PUSH32 0x207A65726F2E20506C656173652074727920616761696E206C61746572000000 PUSH1 0x84 DUP3 ADD MSTORE PUSH1 0xA4 ADD PUSH2 0x5BD JUMP JUMPDEST PUSH1 0x1 SLOAD CALLER PUSH1 0x0 SWAP1 DUP2 MSTORE PUSH1 0xE PUSH1 0x20 MSTORE PUSH1 0x40 SWAP1 KECCAK256 SLOAD PUSH1 0x1 PUSH1 0x1 PUSH1 0xA0 SHL SUB SWAP1 DUP2 AND SWAP2 AND EQ PUSH2 0x8C2 JUMPI PUSH1 0x1 SLOAD CALLER PUSH1 0x0 SWAP1 DUP2 MSTORE PUSH1 0xE PUSH1 0x20 SWAP1 DUP2 MSTORE PUSH1 0x40 DUP1 DUP4 KECCAK256 DUP1 SLOAD PUSH1 0x1 PUSH1 0x1 PUSH1 0xA0 SHL SUB NOT AND PUSH1 0x1 PUSH1 0x1 PUSH1 0xA0 SHL SUB SWAP1 SWAP6 AND SWAP5 SWAP1 SWAP5 OR SWAP1 SWAP4 SSTORE PUSH1 0xC DUP2 MSTORE DUP3 DUP3 KECCAK256 DUP3 SWAP1 SSTORE PUSH1 0xD SWAP1 MSTORE SWAP1 DUP2 KECCAK256 SSTORE JUMPDEST CALLER PUSH1 0x0 SWAP1 DUP2 MSTORE PUSH1 0xC PUSH1 0x20 MSTORE PUSH1 0x40 SWAP1 KECCAK256 SLOAD DUP2 GT PUSH2 0x946 JUMPI PUSH1 0x40 MLOAD PUSH3 0x461BCD PUSH1 0xE5 SHL DUP2 MSTORE PUSH1 0x20 PUSH1 0x4 DUP3 ADD MSTORE PUSH1 0x3C PUSH1 0x24 DUP3 ADD MSTORE PUSH32 0x41424F41543A3A636C61696D3A20416C726561647920636C61696D656420796F PUSH1 0x44 DUP3 ADD MSTORE PUSH32 0x75722063757272656E746C7920656C696769626C6520746F6B656E7300000000 PUSH1 0x64 DUP3 ADD MSTORE PUSH1 0x84 ADD PUSH2 0x5BD JUMP JUMPDEST PUSH1 0x6 SLOAD PUSH1 0x5 SLOAD GT PUSH2 0xA45 JUMPI CALLER PUSH1 0x0 SWAP1 DUP2 MSTORE PUSH1 0xC PUSH1 0x20 MSTORE PUSH1 0x40 DUP2 KECCAK256 DUP1 SLOAD SWAP1 DUP4 SWAP1 SSTORE PUSH1 0x3 SLOAD SWAP1 SWAP2 SWAP1 PUSH2 0x9AF SWAP1 PUSH2 0x9A3 PUSH8 0xDE0B6B3A7640000 PUSH2 0x9A9 PUSH2 0x3E8 DUP4 PUSH2 0x98D DUP11 DUP11 PUSH2 0x17F2 JUMP JUMPDEST CALLER PUSH1 0x0 SWAP1 DUP2 MSTORE PUSH1 0xB PUSH1 0x20 MSTORE PUSH1 0x40 SWAP1 KECCAK256 SLOAD SWAP1 PUSH2 0x1805 JUMP JUMPDEST SWAP1 PUSH2 0x181D JUMP JUMPDEST SWAP1 PUSH2 0x1805 JUMP JUMPDEST CALLER PUSH1 0x0 SWAP1 DUP2 MSTORE PUSH1 0xD PUSH1 0x20 MSTORE PUSH1 0x40 SWAP1 KECCAK256 SLOAD SWAP1 SWAP2 POP PUSH2 0x9CC SWAP1 DUP3 PUSH2 0x1811 JUMP JUMPDEST CALLER PUSH1 0x0 SWAP1 DUP2 MSTORE PUSH1 0xD PUSH1 0x20 MSTORE PUSH1 0x40 SWAP1 KECCAK256 SSTORE PUSH1 0x1 SLOAD PUSH1 0x1 PUSH1 0x1 PUSH1 0xA0 SHL SUB AND ISZERO PUSH2 0xA09 JUMPI PUSH1 0x1 SLOAD PUSH2 0xA04 SWAP1 PUSH1 0x1 PUSH1 0x1 PUSH1 0xA0 SHL SUB AND CALLER DUP4 PUSH2 0x1829 JUMP JUMPDEST PUSH2 0xA13 JUMP JUMPDEST PUSH2 0xA13 CALLER DUP3 PUSH2 0x195A JUMP JUMPDEST PUSH1 0x40 MLOAD DUP2 SWAP1 CALLER SWAP1 PUSH32 0xD8138F8A3F377C5259CA548E70E4C2DE94F129F5A11036A15B69513CBA2B426A SWAP1 PUSH1 0x0 SWAP1 LOG3 POP POP POP JUMP JUMPDEST CALLER PUSH1 0x0 SWAP1 DUP2 MSTORE PUSH1 0xC PUSH1 0x20 MSTORE PUSH1 0x40 SWAP1 KECCAK256 PUSH2 0x3E8 SWAP1 SSTORE PUSH1 0x2 SLOAD PUSH1 0x1 PUSH1 0x1 PUSH1 0xA0 SHL SUB AND ISZERO PUSH2 0xA96 JUMPI PUSH1 0x2 SLOAD CALLER PUSH1 0x0 DUP2 DUP2 MSTORE PUSH1 0xB PUSH1 0x20 MSTORE PUSH1 0x40 SWAP1 KECCAK256 SLOAD PUSH2 0xA91 SWAP3 PUSH1 0x1 PUSH1 0x1 PUSH1 0xA0 SHL SUB AND SWAP2 SWAP1 PUSH2 0x1829 JUMP JUMPDEST PUSH2 0xAB0 JUMP JUMPDEST CALLER PUSH1 0x0 DUP2 DUP2 MSTORE PUSH1 0xB PUSH1 0x20 MSTORE PUSH1 0x40 SWAP1 KECCAK256 SLOAD PUSH2 0xAB0 SWAP2 SWAP1 PUSH2 0x195A JUMP JUMPDEST CALLER PUSH1 0x0 DUP2 DUP2 MSTORE PUSH1 0xB PUSH1 0x20 MSTORE PUSH1 0x40 DUP1 DUP3 KECCAK256 SLOAD SWAP1 MLOAD SWAP1 SWAP3 SWAP2 PUSH32 0xD8138F8A3F377C5259CA548E70E4C2DE94F129F5A11036A15B69513CBA2B426A SWAP2 LOG3 JUMPDEST POP JUMP JUMPDEST PUSH1 0x0 SLOAD PUSH1 0x1 PUSH1 0x1 PUSH1 0xA0 SHL SUB AND CALLER EQ PUSH2 0xB17 JUMPI PUSH1 0x40 MLOAD PUSH3 0x461BCD PUSH1 0xE5 SHL DUP2 MSTORE PUSH1 0x4 ADD PUSH2 0x5BD SWAP1 PUSH2 0x1FD3 JUMP JUMPDEST PUSH1 0x64 DUP3 MLOAD GT ISZERO PUSH2 0xB39 JUMPI PUSH1 0x40 MLOAD PUSH3 0x461BCD PUSH1 0xE5 SHL DUP2 MSTORE PUSH1 0x4 ADD PUSH2 0x5BD SWAP1 PUSH2 0x1F65 JUMP JUMPDEST PUSH1 0x0 DUP1 JUMPDEST DUP4 MLOAD DUP2 LT ISZERO PUSH2 0xD3E JUMPI PUSH1 0x1 PUSH1 0xA PUSH1 0x0 DUP7 DUP5 DUP2 MLOAD DUP2 LT PUSH2 0xB5E JUMPI PUSH2 0xB5E PUSH2 0x217F JUMP JUMPDEST PUSH1 0x20 MUL PUSH1 0x20 ADD ADD MLOAD PUSH1 0x1 PUSH1 0x1 PUSH1 0xA0 SHL SUB AND PUSH1 0x1 PUSH1 0x1 PUSH1 0xA0 SHL SUB AND DUP2 MSTORE PUSH1 0x20 ADD SWAP1 DUP2 MSTORE PUSH1 0x20 ADD PUSH1 0x0 KECCAK256 PUSH1 0x0 PUSH2 0x100 EXP DUP2 SLOAD DUP2 PUSH1 0xFF MUL NOT AND SWAP1 DUP4 ISZERO ISZERO MUL OR SWAP1 SSTORE POP PUSH1 0x0 PUSH2 0xBD9 PUSH1 0x3 SLOAD PUSH2 0x9A3 PUSH8 0xDE0B6B3A7640000 DUP8 DUP7 DUP2 MLOAD DUP2 LT PUSH2 0xBC3 JUMPI PUSH2 0xBC3 PUSH2 0x217F JUMP JUMPDEST PUSH1 0x20 MUL PUSH1 0x20 ADD ADD MLOAD PUSH2 0x1805 SWAP1 SWAP2 SWAP1 PUSH4 0xFFFFFFFF AND JUMP JUMPDEST SWAP1 POP PUSH1 0x0 PUSH2 0xBE9 DUP3 PUSH2 0x6D0 PUSH2 0x629 JUMP JUMPDEST GT PUSH2 0xC06 JUMPI PUSH1 0x40 MLOAD PUSH3 0x461BCD PUSH1 0xE5 SHL DUP2 MSTORE PUSH1 0x4 ADD PUSH2 0x5BD SWAP1 PUSH2 0x2008 JUMP JUMPDEST PUSH2 0xC70 DUP5 DUP4 DUP2 MLOAD DUP2 LT PUSH2 0xC1B JUMPI PUSH2 0xC1B PUSH2 0x217F JUMP JUMPDEST PUSH1 0x20 MUL PUSH1 0x20 ADD ADD MLOAD PUSH1 0xB PUSH1 0x0 DUP9 DUP7 DUP2 MLOAD DUP2 LT PUSH2 0xC39 JUMPI PUSH2 0xC39 PUSH2 0x217F JUMP JUMPDEST PUSH1 0x20 MUL PUSH1 0x20 ADD ADD MLOAD PUSH1 0x1 PUSH1 0x1 PUSH1 0xA0 SHL SUB AND PUSH1 0x1 PUSH1 0x1 PUSH1 0xA0 SHL SUB AND DUP2 MSTORE PUSH1 0x20 ADD SWAP1 DUP2 MSTORE PUSH1 0x20 ADD PUSH1 0x0 KECCAK256 SLOAD PUSH2 0x1811 SWAP1 SWAP2 SWAP1 PUSH4 0xFFFFFFFF AND JUMP JUMPDEST PUSH1 0xB PUSH1 0x0 DUP8 DUP6 DUP2 MLOAD DUP2 LT PUSH2 0xC86 JUMPI PUSH2 0xC86 PUSH2 0x217F JUMP JUMPDEST PUSH1 0x20 SWAP1 DUP2 MUL SWAP2 SWAP1 SWAP2 ADD DUP2 ADD MLOAD PUSH1 0x1 PUSH1 0x1 PUSH1 0xA0 SHL SUB AND DUP3 MSTORE DUP2 ADD SWAP2 SWAP1 SWAP2 MSTORE PUSH1 0x40 ADD PUSH1 0x0 KECCAK256 SSTORE PUSH2 0xCB4 DUP4 DUP3 PUSH2 0x1811 JUMP JUMPDEST PUSH1 0x2 SLOAD DUP7 MLOAD SWAP2 SWAP5 POP PUSH1 0x1 PUSH1 0x1 PUSH1 0xA0 SHL SUB AND SWAP1 PUSH1 0xE SWAP1 PUSH1 0x0 SWAP1 DUP9 SWAP1 DUP7 SWAP1 DUP2 LT PUSH2 0xCDE JUMPI PUSH2 0xCDE PUSH2 0x217F JUMP JUMPDEST PUSH1 0x20 MUL PUSH1 0x20 ADD ADD MLOAD PUSH1 0x1 PUSH1 0x1 PUSH1 0xA0 SHL SUB AND PUSH1 0x1 PUSH1 0x1 PUSH1 0xA0 SHL SUB AND DUP2 MSTORE PUSH1 0x20 ADD SWAP1 DUP2 MSTORE PUSH1 0x20 ADD PUSH1 0x0 KECCAK256 PUSH1 0x0 PUSH2 0x100 EXP DUP2 SLOAD DUP2 PUSH1 0x1 PUSH1 0x1 PUSH1 0xA0 SHL SUB MUL NOT AND SWAP1 DUP4 PUSH1 0x1 PUSH1 0x1 PUSH1 0xA0 SHL SUB AND MUL OR SWAP1 SSTORE POP POP DUP1 DUP1 PUSH2 0xD36 SWAP1 PUSH2 0x214E JUMP JUMPDEST SWAP2 POP POP PUSH2 0xB3D JUMP JUMPDEST POP PUSH1 0x6 SLOAD PUSH2 0xD4C SWAP1 DUP3 PUSH2 0x1811 JUMP JUMPDEST PUSH1 0x6 SSTORE DUP3 MLOAD PUSH1 0x40 MLOAD PUSH32 0x6074084F4DBD9879D266F074BE61EB039A0DB2AA46E98E700223AD5C2BEF5BD5 SWAP1 PUSH1 0x0 SWAP1 LOG2 POP POP POP JUMP JUMPDEST PUSH1 0x0 SLOAD PUSH1 0x1 PUSH1 0x1 PUSH1 0xA0 SHL SUB AND CALLER EQ PUSH2 0xDA9 JUMPI PUSH1 0x40 MLOAD PUSH3 0x461BCD PUSH1 0xE5 SHL DUP2 MSTORE PUSH1 0x4 ADD PUSH2 0x5BD SWAP1 PUSH2 0x1FD3 JUMP JUMPDEST PUSH2 0xDB3 PUSH1 0x0 PUSH2 0x1A39 JUMP JUMPDEST JUMP JUMPDEST PUSH1 0x0 DUP1 PUSH2 0xDCE PUSH1 0x5A PUSH1 0x7 SLOAD PUSH2 0x1811 SWAP1 SWAP2 SWAP1 PUSH4 0xFFFFFFFF AND JUMP JUMPDEST SWAP1 POP PUSH1 0x0 PUSH2 0xDED PUSH1 0x8 SLOAD PUSH3 0x15180 PUSH2 0xDE6 SWAP2 SWAP1 PUSH2 0x20EC JUMP JUMPDEST DUP4 SWAP1 PUSH2 0x1811 JUMP JUMPDEST SWAP1 POP PUSH1 0x0 DUP1 PUSH1 0x7 SLOAD GT DUP1 ISZERO PUSH2 0xE01 JUMPI POP DUP2 TIMESTAMP GT JUMPDEST PUSH2 0xE0C JUMPI PUSH1 0x64 PUSH2 0xE37 JUMP JUMPDEST PUSH2 0xE37 PUSH1 0x64 PUSH2 0xE31 PUSH1 0x32 PUSH2 0x9A9 PUSH2 0xE27 PUSH1 0x1E PUSH3 0x15180 PUSH2 0x20EC JUMP JUMPDEST PUSH2 0x9A3 TIMESTAMP DUP10 PUSH2 0x17F2 JUMP JUMPDEST SWAP1 PUSH2 0x1811 JUMP JUMPDEST SWAP1 POP PUSH2 0x3E8 DUP2 GT PUSH2 0xE48 JUMPI DUP1 PUSH2 0xE4C JUMP JUMPDEST PUSH2 0x3E8 JUMPDEST SWAP4 POP POP POP POP SWAP1 JUMP JUMPDEST PUSH1 0x0 SLOAD PUSH1 0x1 PUSH1 0x1 PUSH1 0xA0 SHL SUB AND CALLER EQ PUSH2 0xE7E JUMPI PUSH1 0x40 MLOAD PUSH3 0x461BCD PUSH1 0xE5 SHL DUP2 MSTORE PUSH1 0x4 ADD PUSH2 0x5BD SWAP1 PUSH2 0x1FD3 JUMP JUMPDEST PUSH1 0x64 DUP2 MLOAD GT ISZERO PUSH2 0xEA0 JUMPI PUSH1 0x40 MLOAD PUSH3 0x461BCD PUSH1 0xE5 SHL DUP2 MSTORE PUSH1 0x4 ADD PUSH2 0x5BD SWAP1 PUSH2 0x1F65 JUMP JUMPDEST PUSH1 0x0 JUMPDEST DUP2 MLOAD DUP2 LT ISZERO PUSH2 0xF08 JUMPI PUSH1 0x1 PUSH1 0xA PUSH1 0x0 DUP5 DUP5 DUP2 MLOAD DUP2 LT PUSH2 0xEC4 JUMPI PUSH2 0xEC4 PUSH2 0x217F JUMP JUMPDEST PUSH1 0x20 SWAP1 DUP2 MUL SWAP2 SWAP1 SWAP2 ADD DUP2 ADD MLOAD PUSH1 0x1 PUSH1 0x1 PUSH1 0xA0 SHL SUB AND DUP3 MSTORE DUP2 ADD SWAP2 SWAP1 SWAP2 MSTORE PUSH1 0x40 ADD PUSH1 0x0 KECCAK256 DUP1 SLOAD PUSH1 0xFF NOT AND SWAP2 ISZERO ISZERO SWAP2 SWAP1 SWAP2 OR SWAP1 SSTORE DUP1 PUSH2 0xF00 DUP2 PUSH2 0x214E JUMP JUMPDEST SWAP2 POP POP PUSH2 0xEA3 JUMP JUMPDEST POP DUP1 MLOAD PUSH1 0x40 MLOAD PUSH32 0xF899E24720678B9547483D3C332E9A7E1EABB9C013BD2E0FF30D83806CF421F3 SWAP1 PUSH1 0x0 SWAP1 LOG2 POP JUMP JUMPDEST PUSH1 0x0 SLOAD PUSH1 0x1 PUSH1 0x1 PUSH1 0xA0 SHL SUB AND CALLER EQ PUSH2 0xF61 JUMPI PUSH1 0x40 MLOAD PUSH3 0x461BCD PUSH1 0xE5 SHL DUP2 MSTORE PUSH1 0x4 ADD PUSH2 0x5BD SWAP1 PUSH2 0x1FD3 JUMP JUMPDEST PUSH1 0x9 SLOAD PUSH1 0xFF AND PUSH2 0xFD1 JUMPI PUSH1 0x40 MLOAD PUSH3 0x461BCD PUSH1 0xE5 SHL DUP2 MSTORE PUSH1 0x20 PUSH1 0x4 DUP3 ADD MSTORE PUSH1 0x35 PUSH1 0x24 DUP3 ADD MSTORE PUSH32 0x41424F41543A64697361626C6557686974656C6973743A2057686974656C6973 PUSH1 0x44 DUP3 ADD MSTORE PUSH21 0x1D081A5CC8185B1C9958591E48191A5CD8589B1959 PUSH1 0x5A SHL PUSH1 0x64 DUP3 ADD MSTORE PUSH1 0x84 ADD PUSH2 0x5BD JUMP JUMPDEST PUSH1 0x9 DUP1 SLOAD PUSH1 0xFF NOT AND SWAP1 SSTORE JUMP JUMPDEST PUSH1 0x7 SLOAD ISZERO PUSH2 0x102D JUMPI PUSH1 0x40 MLOAD PUSH3 0x461BCD PUSH1 0xE5 SHL DUP2 MSTORE PUSH1 0x20 PUSH1 0x4 DUP3 ADD MSTORE PUSH1 0x1F PUSH1 0x24 DUP3 ADD MSTORE PUSH32 0x41424F41543A3A6275793A2053616C6520616C726561647920656E6465642100 PUSH1 0x44 DUP3 ADD MSTORE PUSH1 0x64 ADD PUSH2 0x5BD JUMP JUMPDEST CALLER PUSH1 0x0 SWAP1 DUP2 MSTORE PUSH1 0xA PUSH1 0x20 MSTORE PUSH1 0x40 SWAP1 KECCAK256 SLOAD PUSH1 0xFF AND DUP1 PUSH2 0x104E JUMPI POP PUSH1 0x9 SLOAD PUSH1 0xFF AND ISZERO JUMPDEST PUSH2 0x10B4 JUMPI PUSH1 0x40 MLOAD PUSH3 0x461BCD PUSH1 0xE5 SHL DUP2 MSTORE PUSH1 0x20 PUSH1 0x4 DUP3 ADD MSTORE PUSH1 0x31 PUSH1 0x24 DUP3 ADD MSTORE PUSH32 0x41424F41543A3A6275793A20596F75277265206E6F742077686974656C697374 PUSH1 0x44 DUP3 ADD MSTORE PUSH17 0x656420666F7220746869732073616C6521 PUSH1 0x78 SHL PUSH1 0x64 DUP3 ADD MSTORE PUSH1 0x84 ADD PUSH2 0x5BD JUMP JUMPDEST PUSH1 0x2 SLOAD PUSH1 0x1 PUSH1 0x1 PUSH1 0xA0 SHL SUB AND ISZERO DUP1 ISZERO DUP1 PUSH2 0x10CD JUMPI POP DUP2 CALLVALUE EQ JUMPDEST PUSH2 0x1136 JUMPI PUSH1 0x40 MLOAD PUSH3 0x461BCD PUSH1 0xE5 SHL DUP2 MSTORE PUSH1 0x20 PUSH1 0x4 DUP3 ADD MSTORE PUSH1 0x34 PUSH1 0x24 DUP3 ADD MSTORE PUSH32 0x41424F41543A3A6275793A2053656E742076616C756520646F65736E2774206D PUSH1 0x44 DUP3 ADD MSTORE PUSH20 0x19595D081D1A194819DA5D995B88185B5BDD5B9D PUSH1 0x62 SHL PUSH1 0x64 DUP3 ADD MSTORE PUSH1 0x84 ADD PUSH2 0x5BD JUMP JUMPDEST PUSH1 0x4 SLOAD CALLER PUSH1 0x0 SWAP1 DUP2 MSTORE PUSH1 0xB PUSH1 0x20 MSTORE PUSH1 0x40 SWAP1 KECCAK256 SLOAD PUSH2 0x1153 SWAP1 DUP5 PUSH2 0x1811 JUMP JUMPDEST GT ISZERO PUSH2 0x11C7 JUMPI PUSH1 0x40 MLOAD PUSH3 0x461BCD PUSH1 0xE5 SHL DUP2 MSTORE PUSH1 0x20 PUSH1 0x4 DUP3 ADD MSTORE PUSH1 0x39 PUSH1 0x24 DUP3 ADD MSTORE PUSH32 0x41424F41543A3A6275793A20416D6F756E7420776F756C642065786365656420 PUSH1 0x44 DUP3 ADD MSTORE PUSH32 0x746865206D6178696D756D20616C6C6F776564206C696D697400000000000000 PUSH1 0x64 DUP3 ADD MSTORE PUSH1 0x84 ADD PUSH2 0x5BD JUMP JUMPDEST PUSH1 0x3 SLOAD PUSH1 0x0 SWAP1 PUSH2 0x11E3 SWAP1 PUSH2 0x9A3 DUP6 PUSH8 0xDE0B6B3A7640000 PUSH2 0x1805 JUMP JUMPDEST SWAP1 POP PUSH1 0x0 PUSH2 0x11F3 DUP3 PUSH2 0x6D0 PUSH2 0x629 JUMP JUMPDEST GT PUSH2 0x1210 JUMPI PUSH1 0x40 MLOAD PUSH3 0x461BCD PUSH1 0xE5 SHL DUP2 MSTORE PUSH1 0x4 ADD PUSH2 0x5BD SWAP1 PUSH2 0x2008 JUMP JUMPDEST DUP2 PUSH2 0x122D JUMPI PUSH1 0x2 SLOAD PUSH2 0x122D SWAP1 PUSH1 0x1 PUSH1 0x1 PUSH1 0xA0 SHL SUB AND CALLER ADDRESS DUP7 PUSH2 0x1A89 JUMP JUMPDEST CALLER PUSH1 0x0 SWAP1 DUP2 MSTORE PUSH1 0xB PUSH1 0x20 MSTORE PUSH1 0x40 SWAP1 KECCAK256 SLOAD PUSH2 0x1247 SWAP1 DUP5 PUSH2 0x1811 JUMP JUMPDEST CALLER PUSH1 0x0 SWAP1 DUP2 MSTORE PUSH1 0xB PUSH1 0x20 MSTORE PUSH1 0x40 SWAP1 KECCAK256 SSTORE PUSH1 0x6 SLOAD PUSH2 0x1264 SWAP1 DUP3 PUSH2 0x1811 JUMP JUMPDEST PUSH1 0x6 SSTORE PUSH1 0x2 SLOAD CALLER PUSH1 0x0 DUP2 DUP2 MSTORE PUSH1 0xE PUSH1 0x20 MSTORE PUSH1 0x40 DUP1 DUP3 KECCAK256 DUP1 SLOAD PUSH1 0x1 PUSH1 0x1 PUSH1 0xA0 SHL SUB NOT AND PUSH1 0x1 PUSH1 0x1 PUSH1 0xA0 SHL SUB SWAP1 SWAP6 AND SWAP5 SWAP1 SWAP5 OR SWAP1 SWAP4 SSTORE SWAP2 MLOAD DUP6 SWAP3 PUSH32 0xC55650CCDA1011E1CDC769B1FBF546EBB8C97800B6072B49E06CD560305B1D67 SWAP2 LOG3 POP POP POP JUMP JUMPDEST PUSH1 0x0 SLOAD PUSH1 0x1 PUSH1 0x1 PUSH1 0xA0 SHL SUB AND CALLER EQ PUSH2 0x12EE JUMPI PUSH1 0x40 MLOAD PUSH3 0x461BCD PUSH1 0xE5 SHL DUP2 MSTORE PUSH1 0x4 ADD PUSH2 0x5BD SWAP1 PUSH2 0x1FD3 JUMP JUMPDEST PUSH1 0x7 SLOAD ISZERO PUSH2 0x1351 JUMPI PUSH1 0x40 MLOAD PUSH3 0x461BCD PUSH1 0xE5 SHL DUP2 MSTORE PUSH1 0x20 PUSH1 0x4 DUP3 ADD MSTORE PUSH1 0x2A PUSH1 0x24 DUP3 ADD MSTORE PUSH32 0x41424F41543A3A636C61696D416E64456E6453616C653A2053616C6520616C72 PUSH1 0x44 DUP3 ADD MSTORE PUSH10 0x1958591E48195B991959 PUSH1 0xB2 SHL PUSH1 0x64 DUP3 ADD MSTORE PUSH1 0x84 ADD PUSH2 0x5BD JUMP JUMPDEST TIMESTAMP PUSH1 0x7 SSTORE PUSH1 0x6 SLOAD PUSH1 0x5 SLOAD GT PUSH2 0x140C JUMPI PUSH1 0x8 DUP2 SWAP1 SSTORE PUSH1 0x2 SLOAD PUSH1 0x1 PUSH1 0x1 PUSH1 0xA0 SHL SUB AND ISZERO PUSH2 0x1402 JUMPI PUSH1 0x2 SLOAD PUSH1 0x40 MLOAD PUSH4 0x70A08231 PUSH1 0xE0 SHL DUP2 MSTORE ADDRESS PUSH1 0x4 DUP3 ADD MSTORE PUSH2 0x13FD SWAP2 PUSH1 0x1 PUSH1 0x1 PUSH1 0xA0 SHL SUB AND SWAP1 CALLER SWAP1 DUP3 SWAP1 PUSH4 0x70A08231 SWAP1 PUSH1 0x24 ADD JUMPDEST PUSH1 0x20 PUSH1 0x40 MLOAD DUP1 DUP4 SUB DUP2 DUP7 DUP1 EXTCODESIZE ISZERO DUP1 ISZERO PUSH2 0x13C0 JUMPI PUSH1 0x0 DUP1 REVERT JUMPDEST POP GAS STATICCALL ISZERO DUP1 ISZERO PUSH2 0x13D4 JUMPI RETURNDATASIZE PUSH1 0x0 DUP1 RETURNDATACOPY RETURNDATASIZE PUSH1 0x0 REVERT JUMPDEST POP POP POP POP PUSH1 0x40 MLOAD RETURNDATASIZE PUSH1 0x1F NOT PUSH1 0x1F DUP3 ADD AND DUP3 ADD DUP1 PUSH1 0x40 MSTORE POP DUP2 ADD SWAP1 PUSH2 0x13F8 SWAP2 SWAP1 PUSH2 0x1EFD JUMP JUMPDEST PUSH2 0x1829 JUMP JUMPDEST PUSH2 0x1462 JUMP JUMPDEST PUSH2 0x13FD CALLER SELFBALANCE PUSH2 0x195A JUMP JUMPDEST PUSH1 0x0 PUSH1 0x8 SSTORE PUSH1 0x1 SLOAD PUSH1 0x1 PUSH1 0x1 PUSH1 0xA0 SHL SUB AND ISZERO PUSH2 0x1458 JUMPI PUSH1 0x1 SLOAD PUSH1 0x40 MLOAD PUSH4 0x70A08231 PUSH1 0xE0 SHL DUP2 MSTORE ADDRESS PUSH1 0x4 DUP3 ADD MSTORE PUSH2 0x13FD SWAP2 PUSH1 0x1 PUSH1 0x1 PUSH1 0xA0 SHL SUB AND SWAP1 CALLER SWAP1 DUP3 SWAP1 PUSH4 0x70A08231 SWAP1 PUSH1 0x24 ADD PUSH2 0x13A8 JUMP JUMPDEST PUSH2 0x1462 CALLER SELFBALANCE PUSH2 0x195A JUMP JUMPDEST PUSH1 0x8 SLOAD PUSH2 0x1476 SWAP1 PUSH2 0x745 SWAP1 PUSH3 0x15180 PUSH2 0x1805 JUMP JUMPDEST PUSH1 0x40 MLOAD PUSH32 0x94BB74A9473AE4063EC1E73DC3E35FD4B5ABE9CC1E43AD0DB84E5358559CCD5A SWAP1 PUSH1 0x0 SWAP1 LOG2 POP JUMP JUMPDEST PUSH1 0x0 SLOAD PUSH1 0x1 PUSH1 0x1 PUSH1 0xA0 SHL SUB AND CALLER EQ PUSH2 0x14CC JUMPI PUSH1 0x40 MLOAD PUSH3 0x461BCD PUSH1 0xE5 SHL DUP2 MSTORE PUSH1 0x4 ADD PUSH2 0x5BD SWAP1 PUSH2 0x1FD3 JUMP JUMPDEST PUSH1 0x1 PUSH1 0x1 PUSH1 0xA0 SHL SUB DUP2 AND PUSH2 0x1531 JUMPI PUSH1 0x40 MLOAD PUSH3 0x461BCD PUSH1 0xE5 SHL DUP2 MSTORE PUSH1 0x20 PUSH1 0x4 DUP3 ADD MSTORE PUSH1 0x26 PUSH1 0x24 DUP3 ADD MSTORE PUSH32 0x4F776E61626C653A206E6577206F776E657220697320746865207A65726F2061 PUSH1 0x44 DUP3 ADD MSTORE PUSH6 0x646472657373 PUSH1 0xD0 SHL PUSH1 0x64 DUP3 ADD MSTORE PUSH1 0x84 ADD PUSH2 0x5BD JUMP JUMPDEST PUSH2 0xAEA DUP2 PUSH2 0x1A39 JUMP JUMPDEST PUSH1 0x0 SLOAD PUSH1 0x1 PUSH1 0x1 PUSH1 0xA0 SHL SUB AND CALLER EQ PUSH2 0x1564 JUMPI PUSH1 0x40 MLOAD PUSH3 0x461BCD PUSH1 0xE5 SHL DUP2 MSTORE PUSH1 0x4 ADD PUSH2 0x5BD SWAP1 PUSH2 0x1FD3 JUMP JUMPDEST PUSH1 0x1 SLOAD PUSH1 0x1 PUSH1 0x1 PUSH1 0xA0 SHL SUB DUP3 DUP2 AND SWAP2 AND EQ ISZERO PUSH2 0x15F7 JUMPI PUSH1 0x40 MLOAD PUSH3 0x461BCD PUSH1 0xE5 SHL DUP2 MSTORE PUSH1 0x20 PUSH1 0x4 DUP3 ADD MSTORE PUSH1 0x46 PUSH1 0x24 DUP3 ADD MSTORE PUSH32 0x41424F41543A3A757064617465526577617264546F6B656E3A204E6577207265 PUSH1 0x44 DUP3 ADD MSTORE PUSH32 0x776172642073686F756C6420626520646966666572656E742066726F6D206375 PUSH1 0x64 DUP3 ADD MSTORE PUSH6 0x393932B73A17 PUSH1 0xD1 SHL PUSH1 0x84 DUP3 ADD MSTORE PUSH1 0xA4 ADD PUSH2 0x5BD JUMP JUMPDEST PUSH1 0x1 SLOAD PUSH1 0x40 MLOAD PUSH4 0x70A08231 PUSH1 0xE0 SHL DUP2 MSTORE ADDRESS PUSH1 0x4 DUP3 ADD MSTORE PUSH1 0x1 PUSH1 0x1 PUSH1 0xA0 SHL SUB SWAP1 SWAP2 AND SWAP1 PUSH4 0x70A08231 SWAP1 PUSH1 0x24 ADD PUSH1 0x20 PUSH1 0x40 MLOAD DUP1 DUP4 SUB DUP2 DUP7 DUP1 EXTCODESIZE ISZERO DUP1 ISZERO PUSH2 0x163A JUMPI PUSH1 0x0 DUP1 REVERT JUMPDEST POP GAS STATICCALL ISZERO DUP1 ISZERO PUSH2 0x164E JUMPI RETURNDATASIZE PUSH1 0x0 DUP1 RETURNDATACOPY RETURNDATASIZE PUSH1 0x0 REVERT JUMPDEST POP POP POP POP PUSH1 0x40 MLOAD RETURNDATASIZE PUSH1 0x1F NOT PUSH1 0x1F DUP3 ADD AND DUP3 ADD DUP1 PUSH1 0x40 MSTORE POP DUP2 ADD SWAP1 PUSH2 0x1672 SWAP2 SWAP1 PUSH2 0x1EFD JUMP JUMPDEST PUSH1 0x40 MLOAD PUSH4 0x70A08231 PUSH1 0xE0 SHL DUP2 MSTORE ADDRESS PUSH1 0x4 DUP3 ADD MSTORE PUSH1 0x1 PUSH1 0x1 PUSH1 0xA0 SHL SUB DUP4 AND SWAP1 PUSH4 0x70A08231 SWAP1 PUSH1 0x24 ADD PUSH1 0x20 PUSH1 0x40 MLOAD DUP1 DUP4 SUB DUP2 DUP7 DUP1 EXTCODESIZE ISZERO DUP1 ISZERO PUSH2 0x16B1 JUMPI PUSH1 0x0 DUP1 REVERT JUMPDEST POP GAS STATICCALL ISZERO DUP1 ISZERO PUSH2 0x16C5 JUMPI RETURNDATASIZE PUSH1 0x0 DUP1 RETURNDATACOPY RETURNDATASIZE PUSH1 0x0 REVERT JUMPDEST POP POP POP POP PUSH1 0x40 MLOAD RETURNDATASIZE PUSH1 0x1F NOT PUSH1 0x1F DUP3 ADD AND DUP3 ADD DUP1 PUSH1 0x40 MSTORE POP DUP2 ADD SWAP1 PUSH2 0x16E9 SWAP2 SWAP1 PUSH2 0x1EFD JUMP JUMPDEST EQ PUSH2 0x17A8 JUMPI PUSH1 0x40 MLOAD PUSH3 0x461BCD PUSH1 0xE5 SHL DUP2 MSTORE PUSH1 0x20 PUSH1 0x4 DUP3 ADD MSTORE PUSH1 0x77 PUSH1 0x24 DUP3 ADD MSTORE PUSH32 0x41424F41543A3A757064617465526577617264546F6B656E3A2054686520636F PUSH1 0x44 DUP3 ADD MSTORE PUSH32 0x6E74726163742073686F756C6420636F6E7461696E2061746C65617374207468 PUSH1 0x64 DUP3 ADD MSTORE PUSH32 0x652073616D6520616D6F756E74206F6620746F6B656E732061732066726F6D20 PUSH1 0x84 DUP3 ADD MSTORE PUSH32 0x7468652063757272656E7420726577617264546F6B656E000000000000000000 PUSH1 0xA4 DUP3 ADD MSTORE PUSH1 0xC4 ADD PUSH2 0x5BD JUMP JUMPDEST PUSH1 0x1 DUP1 SLOAD PUSH1 0x1 PUSH1 0x1 PUSH1 0xA0 SHL SUB NOT AND PUSH1 0x1 PUSH1 0x1 PUSH1 0xA0 SHL SUB DUP4 AND SWAP1 DUP2 OR SWAP1 SWAP2 SSTORE PUSH1 0x40 MLOAD PUSH32 0x3FCFC24A3384CA156092D9242CB0F84ABAF442146D91B8C93BEA526561B83F83 SWAP1 PUSH1 0x0 SWAP1 LOG2 POP JUMP JUMPDEST PUSH1 0x0 PUSH2 0x17FE DUP3 DUP5 PUSH2 0x210B JUMP JUMPDEST SWAP4 SWAP3 POP POP POP JUMP JUMPDEST PUSH1 0x0 PUSH2 0x17FE DUP3 DUP5 PUSH2 0x20EC JUMP JUMPDEST PUSH1 0x0 PUSH2 0x17FE DUP3 DUP5 PUSH2 0x20B2 JUMP JUMPDEST PUSH1 0x0 PUSH2 0x17FE DUP3 DUP5 PUSH2 0x20CA JUMP JUMPDEST PUSH1 0x40 DUP1 MLOAD PUSH1 0x1 PUSH1 0x1 PUSH1 0xA0 SHL SUB DUP5 DUP2 AND PUSH1 0x24 DUP4 ADD MSTORE PUSH1 0x44 DUP1 DUP4 ADD DUP6 SWAP1 MSTORE DUP4 MLOAD DUP1 DUP5 SUB SWAP1 SWAP2 ADD DUP2 MSTORE PUSH1 0x64 SWAP1 SWAP3 ADD DUP4 MSTORE PUSH1 0x20 DUP3 ADD DUP1 MLOAD PUSH1 0x1 PUSH1 0x1 PUSH1 0xE0 SHL SUB AND PUSH4 0xA9059CBB PUSH1 0xE0 SHL OR SWAP1 MSTORE SWAP2 MLOAD PUSH1 0x0 SWAP3 DUP4 SWAP3 SWAP1 DUP8 AND SWAP2 PUSH2 0x1885 SWAP2 SWAP1 PUSH2 0x1F16 JUMP JUMPDEST PUSH1 0x0 PUSH1 0x40 MLOAD DUP1 DUP4 SUB DUP2 PUSH1 0x0 DUP7 GAS CALL SWAP2 POP POP RETURNDATASIZE DUP1 PUSH1 0x0 DUP2 EQ PUSH2 0x18C2 JUMPI PUSH1 0x40 MLOAD SWAP2 POP PUSH1 0x1F NOT PUSH1 0x3F RETURNDATASIZE ADD AND DUP3 ADD PUSH1 0x40 MSTORE RETURNDATASIZE DUP3 MSTORE RETURNDATASIZE PUSH1 0x0 PUSH1 0x20 DUP5 ADD RETURNDATACOPY PUSH2 0x18C7 JUMP JUMPDEST PUSH1 0x60 SWAP2 POP JUMPDEST POP SWAP2 POP SWAP2 POP DUP2 DUP1 ISZERO PUSH2 0x18F1 JUMPI POP DUP1 MLOAD ISZERO DUP1 PUSH2 0x18F1 JUMPI POP DUP1 DUP1 PUSH1 0x20 ADD SWAP1 MLOAD DUP2 ADD SWAP1 PUSH2 0x18F1 SWAP2 SWAP1 PUSH2 0x1EC2 JUMP JUMPDEST PUSH2 0x1953 JUMPI PUSH1 0x40 MLOAD PUSH3 0x461BCD PUSH1 0xE5 SHL DUP2 MSTORE PUSH1 0x20 PUSH1 0x4 DUP3 ADD MSTORE PUSH1 0x2D PUSH1 0x24 DUP3 ADD MSTORE PUSH32 0x5472616E7366657248656C7065723A3A736166655472616E736665723A207472 PUSH1 0x44 DUP3 ADD MSTORE PUSH13 0x185B9CD9995C8819985A5B1959 PUSH1 0x9A SHL PUSH1 0x64 DUP3 ADD MSTORE PUSH1 0x84 ADD PUSH2 0x5BD JUMP JUMPDEST POP POP POP POP POP JUMP JUMPDEST PUSH1 0x40 DUP1 MLOAD PUSH1 0x0 DUP1 DUP3 MSTORE PUSH1 0x20 DUP3 ADD SWAP1 SWAP3 MSTORE PUSH1 0x1 PUSH1 0x1 PUSH1 0xA0 SHL SUB DUP5 AND SWAP1 DUP4 SWAP1 PUSH1 0x40 MLOAD PUSH2 0x1984 SWAP2 SWAP1 PUSH2 0x1F16 JUMP JUMPDEST PUSH1 0x0 PUSH1 0x40 MLOAD DUP1 DUP4 SUB DUP2 DUP6 DUP8 GAS CALL SWAP3 POP POP POP RETURNDATASIZE DUP1 PUSH1 0x0 DUP2 EQ PUSH2 0x19C1 JUMPI PUSH1 0x40 MLOAD SWAP2 POP PUSH1 0x1F NOT PUSH1 0x3F RETURNDATASIZE ADD AND DUP3 ADD PUSH1 0x40 MSTORE RETURNDATASIZE DUP3 MSTORE RETURNDATASIZE PUSH1 0x0 PUSH1 0x20 DUP5 ADD RETURNDATACOPY PUSH2 0x19C6 JUMP JUMPDEST PUSH1 0x60 SWAP2 POP JUMPDEST POP POP SWAP1 POP DUP1 PUSH2 0x1A34 JUMPI PUSH1 0x40 MLOAD PUSH3 0x461BCD PUSH1 0xE5 SHL DUP2 MSTORE PUSH1 0x20 PUSH1 0x4 DUP3 ADD MSTORE PUSH1 0x34 PUSH1 0x24 DUP3 ADD MSTORE PUSH32 0x5472616E7366657248656C7065723A3A736166655472616E736665724554483A PUSH1 0x44 DUP3 ADD MSTORE PUSH20 0x8115512081D1C985B9CD9995C8819985A5B1959 PUSH1 0x62 SHL PUSH1 0x64 DUP3 ADD MSTORE PUSH1 0x84 ADD PUSH2 0x5BD JUMP JUMPDEST POP POP POP JUMP JUMPDEST PUSH1 0x0 DUP1 SLOAD PUSH1 0x1 PUSH1 0x1 PUSH1 0xA0 SHL SUB DUP4 DUP2 AND PUSH1 0x1 PUSH1 0x1 PUSH1 0xA0 SHL SUB NOT DUP4 AND DUP2 OR DUP5 SSTORE PUSH1 0x40 MLOAD SWAP2 SWAP1 SWAP3 AND SWAP3 DUP4 SWAP2 PUSH32 0x8BE0079C531659141344CD1FD0A4F28419497F9722A3DAAFE3B4186F6B6457E0 SWAP2 SWAP1 LOG3 POP POP JUMP JUMPDEST PUSH1 0x40 DUP1 MLOAD PUSH1 0x1 PUSH1 0x1 PUSH1 0xA0 SHL SUB DUP6 DUP2 AND PUSH1 0x24 DUP4 ADD MSTORE DUP5 AND PUSH1 0x44 DUP3 ADD MSTORE PUSH1 0x64 DUP1 DUP3 ADD DUP5 SWAP1 MSTORE DUP3 MLOAD DUP1 DUP4 SUB SWAP1 SWAP2 ADD DUP2 MSTORE PUSH1 0x84 SWAP1 SWAP2 ADD SWAP1 SWAP2 MSTORE PUSH1 0x20 DUP2 ADD DUP1 MLOAD PUSH1 0x1 PUSH1 0x1 PUSH1 0xE0 SHL SUB AND PUSH4 0x23B872DD PUSH1 0xE0 SHL OR SWAP1 MSTORE PUSH2 0x1AE3 SWAP1 DUP6 SWAP1 PUSH2 0x1AE9 JUMP JUMPDEST POP POP POP POP JUMP JUMPDEST PUSH1 0x0 PUSH2 0x1B3E DUP3 PUSH1 0x40 MLOAD DUP1 PUSH1 0x40 ADD PUSH1 0x40 MSTORE DUP1 PUSH1 0x20 DUP2 MSTORE PUSH1 0x20 ADD PUSH32 0x5361666545524332303A206C6F772D6C6576656C2063616C6C206661696C6564 DUP2 MSTORE POP DUP6 PUSH1 0x1 PUSH1 0x1 PUSH1 0xA0 SHL SUB AND PUSH2 0x1BBB SWAP1 SWAP3 SWAP2 SWAP1 PUSH4 0xFFFFFFFF AND JUMP JUMPDEST DUP1 MLOAD SWAP1 SWAP2 POP ISZERO PUSH2 0x1A34 JUMPI DUP1 DUP1 PUSH1 0x20 ADD SWAP1 MLOAD DUP2 ADD SWAP1 PUSH2 0x1B5C SWAP2 SWAP1 PUSH2 0x1EC2 JUMP JUMPDEST PUSH2 0x1A34 JUMPI PUSH1 0x40 MLOAD PUSH3 0x461BCD PUSH1 0xE5 SHL DUP2 MSTORE PUSH1 0x20 PUSH1 0x4 DUP3 ADD MSTORE PUSH1 0x2A PUSH1 0x24 DUP3 ADD MSTORE PUSH32 0x5361666545524332303A204552433230206F7065726174696F6E20646964206E PUSH1 0x44 DUP3 ADD MSTORE PUSH10 0x1BDD081CDD58D8D95959 PUSH1 0xB2 SHL PUSH1 0x64 DUP3 ADD MSTORE PUSH1 0x84 ADD PUSH2 0x5BD JUMP JUMPDEST PUSH1 0x60 PUSH2 0x1BCA DUP5 DUP5 PUSH1 0x0 DUP6 PUSH2 0x1BD2 JUMP JUMPDEST SWAP5 SWAP4 POP POP POP POP JUMP JUMPDEST PUSH1 0x60 DUP3 SELFBALANCE LT ISZERO PUSH2 0x1C33 JUMPI PUSH1 0x40 MLOAD PUSH3 0x461BCD PUSH1 0xE5 SHL DUP2 MSTORE PUSH1 0x20 PUSH1 0x4 DUP3 ADD MSTORE PUSH1 0x26 PUSH1 0x24 DUP3 ADD MSTORE PUSH32 0x416464726573733A20696E73756666696369656E742062616C616E636520666F PUSH1 0x44 DUP3 ADD MSTORE PUSH6 0x1C8818D85B1B PUSH1 0xD2 SHL PUSH1 0x64 DUP3 ADD MSTORE PUSH1 0x84 ADD PUSH2 0x5BD JUMP JUMPDEST DUP5 EXTCODESIZE PUSH2 0x1C81 JUMPI PUSH1 0x40 MLOAD PUSH3 0x461BCD PUSH1 0xE5 SHL DUP2 MSTORE PUSH1 0x20 PUSH1 0x4 DUP3 ADD MSTORE PUSH1 0x1D PUSH1 0x24 DUP3 ADD MSTORE PUSH32 0x416464726573733A2063616C6C20746F206E6F6E2D636F6E7472616374000000 PUSH1 0x44 DUP3 ADD MSTORE PUSH1 0x64 ADD PUSH2 0x5BD JUMP JUMPDEST PUSH1 0x0 DUP1 DUP7 PUSH1 0x1 PUSH1 0x1 PUSH1 0xA0 SHL SUB AND DUP6 DUP8 PUSH1 0x40 MLOAD PUSH2 0x1C9D SWAP2 SWAP1 PUSH2 0x1F16 JUMP JUMPDEST PUSH1 0x0 PUSH1 0x40 MLOAD DUP1 DUP4 SUB DUP2 DUP6 DUP8 GAS CALL SWAP3 POP POP POP RETURNDATASIZE DUP1 PUSH1 0x0 DUP2 EQ PUSH2 0x1CDA JUMPI PUSH1 0x40 MLOAD SWAP2 POP PUSH1 0x1F NOT PUSH1 0x3F RETURNDATASIZE ADD AND DUP3 ADD PUSH1 0x40 MSTORE RETURNDATASIZE DUP3 MSTORE RETURNDATASIZE PUSH1 0x0 PUSH1 0x20 DUP5 ADD RETURNDATACOPY PUSH2 0x1CDF JUMP JUMPDEST PUSH1 0x60 SWAP2 POP JUMPDEST POP SWAP2 POP SWAP2 POP PUSH2 0x1CEF DUP3 DUP3 DUP7 PUSH2 0x1CFA JUMP JUMPDEST SWAP8 SWAP7 POP POP POP POP POP POP POP JUMP JUMPDEST PUSH1 0x60 DUP4 ISZERO PUSH2 0x1D09 JUMPI POP DUP2 PUSH2 0x17FE JUMP JUMPDEST DUP3 MLOAD ISZERO PUSH2 0x1D19 JUMPI DUP3 MLOAD DUP1 DUP5 PUSH1 0x20 ADD REVERT JUMPDEST DUP2 PUSH1 0x40 MLOAD PUSH3 0x461BCD PUSH1 0xE5 SHL DUP2 MSTORE PUSH1 0x4 ADD PUSH2 0x5BD SWAP2 SWAP1 PUSH2 0x1F32 JUMP JUMPDEST PUSH1 0x0 DUP3 PUSH1 0x1F DUP4 ADD SLT PUSH2 0x1D44 JUMPI PUSH1 0x0 DUP1 REVERT JUMPDEST DUP2 CALLDATALOAD PUSH1 0x20 PUSH2 0x1D59 PUSH2 0x1D54 DUP4 PUSH2 0x208E JUMP JUMPDEST PUSH2 0x205D JUMP JUMPDEST DUP1 DUP4 DUP3 MSTORE DUP3 DUP3 ADD SWAP2 POP DUP3 DUP7 ADD DUP8 DUP5 DUP7 PUSH1 0x5 SHL DUP10 ADD ADD GT ISZERO PUSH2 0x1D79 JUMPI PUSH1 0x0 DUP1 REVERT JUMPDEST PUSH1 0x0 JUMPDEST DUP6 DUP2 LT ISZERO PUSH2 0x1DA1 JUMPI DUP2 CALLDATALOAD PUSH2 0x1D8F DUP2 PUSH2 0x21AB JUMP JUMPDEST DUP5 MSTORE SWAP3 DUP5 ADD SWAP3 SWAP1 DUP5 ADD SWAP1 PUSH1 0x1 ADD PUSH2 0x1D7C JUMP JUMPDEST POP SWAP1 SWAP8 SWAP7 POP POP POP POP POP POP POP JUMP JUMPDEST PUSH1 0x0 PUSH1 0x20 DUP3 DUP5 SUB SLT ISZERO PUSH2 0x1DC0 JUMPI PUSH1 0x0 DUP1 REVERT JUMPDEST DUP2 CALLDATALOAD PUSH2 0x17FE DUP2 PUSH2 0x21AB JUMP JUMPDEST PUSH1 0x0 PUSH1 0x20 DUP3 DUP5 SUB SLT ISZERO PUSH2 0x1DDD JUMPI PUSH1 0x0 DUP1 REVERT JUMPDEST DUP2 CALLDATALOAD PUSH8 0xFFFFFFFFFFFFFFFF DUP2 GT ISZERO PUSH2 0x1DF4 JUMPI PUSH1 0x0 DUP1 REVERT JUMPDEST PUSH2 0x1BCA DUP5 DUP3 DUP6 ADD PUSH2 0x1D33 JUMP JUMPDEST PUSH1 0x0 DUP1 PUSH1 0x40 DUP4 DUP6 SUB SLT ISZERO PUSH2 0x1E13 JUMPI PUSH1 0x0 DUP1 REVERT JUMPDEST DUP3 CALLDATALOAD PUSH8 0xFFFFFFFFFFFFFFFF DUP1 DUP3 GT ISZERO PUSH2 0x1E2B JUMPI PUSH1 0x0 DUP1 REVERT JUMPDEST PUSH2 0x1E37 DUP7 DUP4 DUP8 ADD PUSH2 0x1D33 JUMP JUMPDEST SWAP4 POP PUSH1 0x20 SWAP2 POP DUP2 DUP6 ADD CALLDATALOAD DUP2 DUP2 GT ISZERO PUSH2 0x1E4E JUMPI PUSH1 0x0 DUP1 REVERT JUMPDEST DUP6 ADD SWAP1 POP PUSH1 0x1F DUP2 ADD DUP7 SGT PUSH2 0x1E61 JUMPI PUSH1 0x0 DUP1 REVERT JUMPDEST DUP1 CALLDATALOAD PUSH2 0x1E6F PUSH2 0x1D54 DUP3 PUSH2 0x208E JUMP JUMPDEST DUP1 DUP3 DUP3 MSTORE DUP5 DUP3 ADD SWAP2 POP DUP5 DUP5 ADD DUP10 DUP7 DUP6 PUSH1 0x5 SHL DUP8 ADD ADD GT ISZERO PUSH2 0x1E8F JUMPI PUSH1 0x0 DUP1 REVERT JUMPDEST PUSH1 0x0 SWAP5 POP JUMPDEST DUP4 DUP6 LT ISZERO PUSH2 0x1EB2 JUMPI DUP1 CALLDATALOAD DUP4 MSTORE PUSH1 0x1 SWAP5 SWAP1 SWAP5 ADD SWAP4 SWAP2 DUP6 ADD SWAP2 DUP6 ADD PUSH2 0x1E94 JUMP JUMPDEST POP DUP1 SWAP6 POP POP POP POP POP POP SWAP3 POP SWAP3 SWAP1 POP JUMP JUMPDEST PUSH1 0x0 PUSH1 0x20 DUP3 DUP5 SUB SLT ISZERO PUSH2 0x1ED4 JUMPI PUSH1 0x0 DUP1 REVERT JUMPDEST DUP2 MLOAD DUP1 ISZERO ISZERO DUP2 EQ PUSH2 0x17FE JUMPI PUSH1 0x0 DUP1 REVERT JUMPDEST PUSH1 0x0 PUSH1 0x20 DUP3 DUP5 SUB SLT ISZERO PUSH2 0x1EF6 JUMPI PUSH1 0x0 DUP1 REVERT JUMPDEST POP CALLDATALOAD SWAP2 SWAP1 POP JUMP JUMPDEST PUSH1 0x0 PUSH1 0x20 DUP3 DUP5 SUB SLT ISZERO PUSH2 0x1F0F JUMPI PUSH1 0x0 DUP1 REVERT JUMPDEST POP MLOAD SWAP2 SWAP1 POP JUMP JUMPDEST PUSH1 0x0 DUP3 MLOAD PUSH2 0x1F28 DUP2 DUP5 PUSH1 0x20 DUP8 ADD PUSH2 0x2122 JUMP JUMPDEST SWAP2 SWAP1 SWAP2 ADD SWAP3 SWAP2 POP POP JUMP JUMPDEST PUSH1 0x20 DUP2 MSTORE PUSH1 0x0 DUP3 MLOAD DUP1 PUSH1 0x20 DUP5 ADD MSTORE PUSH2 0x1F51 DUP2 PUSH1 0x40 DUP6 ADD PUSH1 0x20 DUP8 ADD PUSH2 0x2122 JUMP JUMPDEST PUSH1 0x1F ADD PUSH1 0x1F NOT AND SWAP2 SWAP1 SWAP2 ADD PUSH1 0x40 ADD SWAP3 SWAP2 POP POP JUMP JUMPDEST PUSH1 0x20 DUP1 DUP3 MSTORE PUSH1 0x48 SWAP1 DUP3 ADD MSTORE PUSH32 0x41424F41543A3A77686974656C6973743A20596F752063616E27742061646420 PUSH1 0x40 DUP3 ADD MSTORE PUSH32 0x6D6F7265207468616E2031303020616464726573736573206174207468652073 PUSH1 0x60 DUP3 ADD MSTORE PUSH8 0x616D652074696D65 PUSH1 0xC0 SHL PUSH1 0x80 DUP3 ADD MSTORE PUSH1 0xA0 ADD SWAP1 JUMP JUMPDEST PUSH1 0x20 DUP1 DUP3 MSTORE DUP2 DUP2 ADD MSTORE PUSH32 0x4F776E61626C653A2063616C6C6572206973206E6F7420746865206F776E6572 PUSH1 0x40 DUP3 ADD MSTORE PUSH1 0x60 ADD SWAP1 JUMP JUMPDEST PUSH1 0x20 DUP1 DUP3 MSTORE PUSH1 0x35 SWAP1 DUP3 ADD MSTORE PUSH32 0x41424F41543A3A6275793A20416D6F756E7420776F756C642065786365656420 PUSH1 0x40 DUP3 ADD MSTORE PUSH21 0x7468652072656D61696E696E672062616C616E6365 PUSH1 0x58 SHL PUSH1 0x60 DUP3 ADD MSTORE PUSH1 0x80 ADD SWAP1 JUMP JUMPDEST PUSH1 0x40 MLOAD PUSH1 0x1F DUP3 ADD PUSH1 0x1F NOT AND DUP2 ADD PUSH8 0xFFFFFFFFFFFFFFFF DUP2 GT DUP3 DUP3 LT OR ISZERO PUSH2 0x2086 JUMPI PUSH2 0x2086 PUSH2 0x2195 JUMP JUMPDEST PUSH1 0x40 MSTORE SWAP2 SWAP1 POP JUMP JUMPDEST PUSH1 0x0 PUSH8 0xFFFFFFFFFFFFFFFF DUP3 GT ISZERO PUSH2 0x20A8 JUMPI PUSH2 0x20A8 PUSH2 0x2195 JUMP JUMPDEST POP PUSH1 0x5 SHL PUSH1 0x20 ADD SWAP1 JUMP JUMPDEST PUSH1 0x0 DUP3 NOT DUP3 GT ISZERO PUSH2 0x20C5 JUMPI PUSH2 0x20C5 PUSH2 0x2169 JUMP JUMPDEST POP ADD SWAP1 JUMP JUMPDEST PUSH1 0x0 DUP3 PUSH2 0x20E7 JUMPI PUSH4 0x4E487B71 PUSH1 0xE0 SHL PUSH1 0x0 MSTORE PUSH1 0x12 PUSH1 0x4 MSTORE PUSH1 0x24 PUSH1 0x0 REVERT JUMPDEST POP DIV SWAP1 JUMP JUMPDEST PUSH1 0x0 DUP2 PUSH1 0x0 NOT DIV DUP4 GT DUP3 ISZERO ISZERO AND ISZERO PUSH2 0x2106 JUMPI PUSH2 0x2106 PUSH2 0x2169 JUMP JUMPDEST POP MUL SWAP1 JUMP JUMPDEST PUSH1 0x0 DUP3 DUP3 LT ISZERO PUSH2 0x211D JUMPI PUSH2 0x211D PUSH2 0x2169 JUMP JUMPDEST POP SUB SWAP1 JUMP JUMPDEST PUSH1 0x0 JUMPDEST DUP4 DUP2 LT ISZERO PUSH2 0x213D JUMPI DUP2 DUP2 ADD MLOAD DUP4 DUP3 ADD MSTORE PUSH1 0x20 ADD PUSH2 0x2125 JUMP JUMPDEST DUP4 DUP2 GT ISZERO PUSH2 0x1AE3 JUMPI POP POP PUSH1 0x0 SWAP2 ADD MSTORE JUMP JUMPDEST PUSH1 0x0 PUSH1 0x0 NOT DUP3 EQ ISZERO PUSH2 0x2162 JUMPI PUSH2 0x2162 PUSH2 0x2169 JUMP JUMPDEST POP PUSH1 0x1 ADD SWAP1 JUMP JUMPDEST PUSH4 0x4E487B71 PUSH1 0xE0 SHL PUSH1 0x0 MSTORE PUSH1 0x11 PUSH1 0x4 MSTORE PUSH1 0x24 PUSH1 0x0 REVERT JUMPDEST PUSH4 0x4E487B71 PUSH1 0xE0 SHL PUSH1 0x0 MSTORE PUSH1 0x32 PUSH1 0x4 MSTORE PUSH1 0x24 PUSH1 0x0 REVERT JUMPDEST PUSH4 0x4E487B71 PUSH1 0xE0 SHL PUSH1 0x0 MSTORE PUSH1 0x41 PUSH1 0x4 MSTORE PUSH1 0x24 PUSH1 0x0 REVERT JUMPDEST PUSH1 0x1 PUSH1 0x1 PUSH1 0xA0 SHL SUB DUP2 AND DUP2 EQ PUSH2 0xAEA JUMPI PUSH1 0x0 DUP1 REVERT INVALID LOG2 PUSH5 0x6970667358 0x22 SLT KECCAK256 PUSH21 0xBDCAF50CB2D0F996EFE8B066170E7A5A7446E5EB7 PUSH23 0xC4C91712070986D38F64736F6C63430008070033000000 "
		},
		"gasEstimates": {
			"creation": {
				"codeDepositCost": "1738800",
				"executionCost": "infinite",
				"totalCost": "infinite"
			},
			"external": {
				"afterDays()": "2329",
				"bought(address)": "2570",
				"buy(uint256)": "infinite",
				"claim()": "infinite",
				"claimAndEndSale(uint256)": "infinite",
				"claimed(address)": "2547",
				"claimedTokens(address)": "2592",
				"cliffPeriod()": "275",
				"disableWhitelist()": "28692",
				"getCurrentPercentage()": "infinite",
				"getRemainingBalance()": "infinite",
				"initialClaimPercentage()": "252",
				"lastClaimAddress(address)": "2596",
				"limit()": "2330",
				"owner()": "2398",
				"paymentToken()": "2405",
				"percentagePerPeriod()": "253",
				"period()": "251",
				"pricePerToken()": "2396",
				"renounceOwnership()": "28204",
				"requireWhitelist()": "2355",
				"rewardToken()": "2403",
				"saleEnded()": "2373",
				"softcap()": "2372",
				"soldTokens()": "2330",
				"transferOwnership(address)": "infinite",
				"updateAfterDays(uint256)": "26628",
				"updateRewardToken(address)": "infinite",
				"whitelist(address[])": "infinite",
				"whitelistFromSAFT(address[],uint256[])": "infinite",
				"whitelisted(address)": "2614"
			}
		},
		"methodIdentifiers": {
			"afterDays()": "e754e7c4",
			"bought(address)": "667022fd",
			"buy(uint256)": "d96a094a",
			"claim()": "4e71d92d",
			"claimAndEndSale(uint256)": "efe95f51",
			"claimed(address)": "c884ef83",
			"claimedTokens(address)": "a960c65f",
			"cliffPeriod()": "2f661946",
			"disableWhitelist()": "d6b0f484",
			"getCurrentPercentage()": "9c92431b",
			"getRemainingBalance()": "2fba2c85",
			"initialClaimPercentage()": "a5ebf835",
			"lastClaimAddress(address)": "f3739e05",
			"limit()": "a4d66daf",
			"owner()": "8da5cb5b",
			"paymentToken()": "3013ce29",
			"percentagePerPeriod()": "151bad0a",
			"period()": "ef78d4fd",
			"pricePerToken()": "7b1b1de6",
			"renounceOwnership()": "715018a6",
			"requireWhitelist()": "856734c4",
			"rewardToken()": "f7c618c1",
			"saleEnded()": "9b8906ae",
			"softcap()": "f89be593",
			"soldTokens()": "5ed9ebfc",
			"transferOwnership(address)": "f2fde38b",
			"updateAfterDays(uint256)": "0c0e0862",
			"updateRewardToken(address)": "f8cf31cb",
			"whitelist(address[])": "bd8aa780",
			"whitelistFromSAFT(address[],uint256[])": "5372a58e",
			"whitelisted(address)": "d936547e"
		}
	},
	"abi": [
		{
			"inputs": [
				{
					"internalType": "contract IERC20",
					"name": "_rewardToken",
					"type": "address"
				},
				{
					"internalType": "contract IERC20",
					"name": "_paymentToken",
					"type": "address"
				},
				{
					"internalType": "uint256",
					"name": "_limit",
					"type": "uint256"
				},
				{
					"internalType": "uint256",
					"name": "_softcap",
					"type": "uint256"
				},
				{
					"internalType": "uint256",
					"name": "_price",
					"type": "uint256"
				}
			],
			"stateMutability": "nonpayable",
			"type": "constructor"
		},
		{
			"anonymous": false,
			"inputs": [
				{
					"indexed": true,
					"internalType": "uint256",
					"name": "amount",
					"type": "uint256"
				}
			],
			"name": "AddedToWhitelist",
			"type": "event"
		},
		{
			"anonymous": false,
			"inputs": [
				{
					"indexed": true,
					"internalType": "uint256",
					"name": "amount",
					"type": "uint256"
				}
			],
			"name": "AddedToWhitelistFromSaft",
			"type": "event"
		},
		{
			"anonymous": false,
			"inputs": [
				{
					"indexed": true,
					"internalType": "address",
					"name": "buyer",
					"type": "address"
				},
				{
					"indexed": true,
					"internalType": "uint256",
					"name": "amount",
					"type": "uint256"
				}
			],
			"name": "Bought",
			"type": "event"
		},
		{
			"anonymous": false,
			"inputs": [
				{
					"indexed": true,
					"internalType": "address",
					"name": "newToken",
					"type": "address"
				}
			],
			"name": "ChangeRewardToken",
			"type": "event"
		},
		{
			"anonymous": false,
			"inputs": [
				{
					"indexed": true,
					"internalType": "address",
					"name": "owner",
					"type": "address"
				},
				{
					"indexed": true,
					"internalType": "uint256",
					"name": "amount",
					"type": "uint256"
				}
			],
			"name": "Claimed",
			"type": "event"
		},
		{
			"anonymous": false,
			"inputs": [
				{
					"indexed": true,
					"internalType": "address",
					"name": "owner",
					"type": "address"
				},
				{
					"indexed": true,
					"internalType": "uint256",
					"name": "amount",
					"type": "uint256"
				}
			],
			"name": "DepositedInVestingPool",
			"type": "event"
		},
		{
			"anonymous": false,
			"inputs": [
				{
					"indexed": true,
					"internalType": "address",
					"name": "previousOwner",
					"type": "address"
				},
				{
					"indexed": true,
					"internalType": "address",
					"name": "newOwner",
					"type": "address"
				}
			],
			"name": "OwnershipTransferred",
			"type": "event"
		},
		{
			"anonymous": false,
			"inputs": [
				{
					"indexed": true,
					"internalType": "uint256",
					"name": "claimDate",
					"type": "uint256"
				}
			],
			"name": "SaleEnded",
			"type": "event"
		},
		{
			"inputs": [],
			"name": "afterDays",
			"outputs": [
				{
					"internalType": "uint256",
					"name": "",
					"type": "uint256"
				}
			],
			"stateMutability": "view",
			"type": "function"
		},
		{
			"inputs": [
				{
					"internalType": "address",
					"name": "",
					"type": "address"
				}
			],
			"name": "bought",
			"outputs": [
				{
					"internalType": "uint256",
					"name": "",
					"type": "uint256"
				}
			],
			"stateMutability": "view",
			"type": "function"
		},
		{
			"inputs": [
				{
					"internalType": "uint256",
					"name": "amount",
					"type": "uint256"
				}
			],
			"name": "buy",
			"outputs": [],
			"stateMutability": "payable",
			"type": "function"
		},
		{
			"inputs": [],
			"name": "claim",
			"outputs": [],
			"stateMutability": "nonpayable",
			"type": "function"
		},
		{
			"inputs": [
				{
					"internalType": "uint256",
					"name": "_afterDays",
					"type": "uint256"
				}
			],
			"name": "claimAndEndSale",
			"outputs": [],
			"stateMutability": "nonpayable",
			"type": "function"
		},
		{
			"inputs": [
				{
					"internalType": "address",
					"name": "",
					"type": "address"
				}
			],
			"name": "claimed",
			"outputs": [
				{
					"internalType": "uint256",
					"name": "",
					"type": "uint256"
				}
			],
			"stateMutability": "view",
			"type": "function"
		},
		{
			"inputs": [
				{
					"internalType": "address",
					"name": "",
					"type": "address"
				}
			],
			"name": "claimedTokens",
			"outputs": [
				{
					"internalType": "uint256",
					"name": "",
					"type": "uint256"
				}
			],
			"stateMutability": "view",
			"type": "function"
		},
		{
			"inputs": [],
			"name": "cliffPeriod",
			"outputs": [
				{
					"internalType": "uint256",
					"name": "",
					"type": "uint256"
				}
			],
			"stateMutability": "view",
			"type": "function"
		},
		{
			"inputs": [],
			"name": "disableWhitelist",
			"outputs": [],
			"stateMutability": "nonpayable",
			"type": "function"
		},
		{
			"inputs": [],
			"name": "getCurrentPercentage",
			"outputs": [
				{
					"internalType": "uint256",
					"name": "",
					"type": "uint256"
				}
			],
			"stateMutability": "view",
			"type": "function"
		},
		{
			"inputs": [],
			"name": "getRemainingBalance",
			"outputs": [
				{
					"internalType": "uint256",
					"name": "",
					"type": "uint256"
				}
			],
			"stateMutability": "view",
			"type": "function"
		},
		{
			"inputs": [],
			"name": "initialClaimPercentage",
			"outputs": [
				{
					"internalType": "uint256",
					"name": "",
					"type": "uint256"
				}
			],
			"stateMutability": "view",
			"type": "function"
		},
		{
			"inputs": [
				{
					"internalType": "address",
					"name": "",
					"type": "address"
				}
			],
			"name": "lastClaimAddress",
			"outputs": [
				{
					"internalType": "address",
					"name": "",
					"type": "address"
				}
			],
			"stateMutability": "view",
			"type": "function"
		},
		{
			"inputs": [],
			"name": "limit",
			"outputs": [
				{
					"internalType": "uint256",
					"name": "",
					"type": "uint256"
				}
			],
			"stateMutability": "view",
			"type": "function"
		},
		{
			"inputs": [],
			"name": "owner",
			"outputs": [
				{
					"internalType": "address",
					"name": "",
					"type": "address"
				}
			],
			"stateMutability": "view",
			"type": "function"
		},
		{
			"inputs": [],
			"name": "paymentToken",
			"outputs": [
				{
					"internalType": "contract IERC20",
					"name": "",
					"type": "address"
				}
			],
			"stateMutability": "view",
			"type": "function"
		},
		{
			"inputs": [],
			"name": "percentagePerPeriod",
			"outputs": [
				{
					"internalType": "uint256",
					"name": "",
					"type": "uint256"
				}
			],
			"stateMutability": "view",
			"type": "function"
		},
		{
			"inputs": [],
			"name": "period",
			"outputs": [
				{
					"internalType": "uint256",
					"name": "",
					"type": "uint256"
				}
			],
			"stateMutability": "view",
			"type": "function"
		},
		{
			"inputs": [],
			"name": "pricePerToken",
			"outputs": [
				{
					"internalType": "uint256",
					"name": "",
					"type": "uint256"
				}
			],
			"stateMutability": "view",
			"type": "function"
		},
		{
			"inputs": [],
			"name": "renounceOwnership",
			"outputs": [],
			"stateMutability": "nonpayable",
			"type": "function"
		},
		{
			"inputs": [],
			"name": "requireWhitelist",
			"outputs": [
				{
					"internalType": "bool",
					"name": "",
					"type": "bool"
				}
			],
			"stateMutability": "view",
			"type": "function"
		},
		{
			"inputs": [],
			"name": "rewardToken",
			"outputs": [
				{
					"internalType": "contract IERC20",
					"name": "",
					"type": "address"
				}
			],
			"stateMutability": "view",
			"type": "function"
		},
		{
			"inputs": [],
			"name": "saleEnded",
			"outputs": [
				{
					"internalType": "uint256",
					"name": "",
					"type": "uint256"
				}
			],
			"stateMutability": "view",
			"type": "function"
		},
		{
			"inputs": [],
			"name": "softcap",
			"outputs": [
				{
					"internalType": "uint256",
					"name": "",
					"type": "uint256"
				}
			],
			"stateMutability": "view",
			"type": "function"
		},
		{
			"inputs": [],
			"name": "soldTokens",
			"outputs": [
				{
					"internalType": "uint256",
					"name": "",
					"type": "uint256"
				}
			],
			"stateMutability": "view",
			"type": "function"
		},
		{
			"inputs": [
				{
					"internalType": "address",
					"name": "newOwner",
					"type": "address"
				}
			],
			"name": "transferOwnership",
			"outputs": [],
			"stateMutability": "nonpayable",
			"type": "function"
		},
		{
			"inputs": [
				{
					"internalType": "uint256",
					"name": "_afterDays",
					"type": "uint256"
				}
			],
			"name": "updateAfterDays",
			"outputs": [],
			"stateMutability": "nonpayable",
			"type": "function"
		},
		{
			"inputs": [
				{
					"internalType": "contract IERC20",
					"name": "_newRewardToken",
					"type": "address"
				}
			],
			"name": "updateRewardToken",
			"outputs": [],
			"stateMutability": "nonpayable",
			"type": "function"
		},
		{
			"inputs": [
				{
					"internalType": "address[]",
					"name": "addresses",
					"type": "address[]"
				}
			],
			"name": "whitelist",
			"outputs": [],
			"stateMutability": "nonpayable",
			"type": "function"
		},
		{
			"inputs": [
				{
					"internalType": "address[]",
					"name": "addresses",
					"type": "address[]"
				},
				{
					"internalType": "uint256[]",
					"name": "amounts",
					"type": "uint256[]"
				}
			],
			"name": "whitelistFromSAFT",
			"outputs": [],
			"stateMutability": "nonpayable",
			"type": "function"
		},
		{
			"inputs": [
				{
					"internalType": "address",
					"name": "",
					"type": "address"
				}
			],
			"name": "whitelisted",
			"outputs": [
				{
					"internalType": "bool",
					"name": "",
					"type": "bool"
				}
			],
			"stateMutability": "view",
			"type": "function"
		}
	]
}