{
	"contracts/chains/binance/RewardSystem.sol": {
		"RewardSystem": {
			"abi": [
				{
					"inputs": [
						{
							"internalType": "contract IERC20",
							"name": "rewardToken",
							"type": "address"
						}
					],
					"stateMutability": "nonpayable",
					"type": "constructor"
				},
				{
					"anonymous": false,
					"inputs": [
						{
							"indexed": true,
							"internalType": "uint256",
							"name": "previousFee",
							"type": "uint256"
						},
						{
							"indexed": true,
							"internalType": "uint256",
							"name": "fee",
							"type": "uint256"
						}
					],
					"name": "ChangedFee",
					"type": "event"
				},
				{
					"anonymous": false,
					"inputs": [
						{
							"indexed": true,
							"internalType": "uint256",
							"name": "previousGas",
							"type": "uint256"
						},
						{
							"indexed": true,
							"internalType": "uint256",
							"name": "gas",
							"type": "uint256"
						}
					],
					"name": "ChangedGasCost",
					"type": "event"
				},
				{
					"anonymous": false,
					"inputs": [
						{
							"indexed": true,
							"internalType": "uint256",
							"name": "previousAmount",
							"type": "uint256"
						},
						{
							"indexed": true,
							"internalType": "uint256",
							"name": "amount",
							"type": "uint256"
						}
					],
					"name": "ChangedMaxAmountPerReceive",
					"type": "event"
				},
				{
					"anonymous": false,
					"inputs": [
						{
							"indexed": true,
							"internalType": "address",
							"name": "previousToken",
							"type": "address"
						},
						{
							"indexed": true,
							"internalType": "address",
							"name": "newToken",
							"type": "address"
						}
					],
					"name": "ChangedRewardToken",
					"type": "event"
				},
				{
					"anonymous": false,
					"inputs": [
						{
							"indexed": true,
							"internalType": "uint256",
							"name": "previousFee",
							"type": "uint256"
						},
						{
							"indexed": true,
							"internalType": "uint256",
							"name": "fee",
							"type": "uint256"
						}
					],
					"name": "ChangedThirdPartyFee",
					"type": "event"
				},
				{
					"anonymous": false,
					"inputs": [
						{
							"indexed": true,
							"internalType": "address",
							"name": "owner",
							"type": "address"
						}
					],
					"name": "EmergencyWithdraw",
					"type": "event"
				},
				{
					"anonymous": false,
					"inputs": [],
					"name": "EnabledLock",
					"type": "event"
				},
				{
					"anonymous": false,
					"inputs": [
						{
							"indexed": true,
							"internalType": "address",
							"name": "owner",
							"type": "address"
						}
					],
					"name": "EnabledRewards",
					"type": "event"
				},
				{
					"anonymous": false,
					"inputs": [
						{
							"indexed": true,
							"internalType": "address",
							"name": "previousMaintainer",
							"type": "address"
						},
						{
							"indexed": true,
							"internalType": "address",
							"name": "newMaintainer",
							"type": "address"
						}
					],
					"name": "MaintainerTransferred",
					"type": "event"
				},
				{
					"anonymous": false,
					"inputs": [
						{
							"indexed": true,
							"internalType": "address",
							"name": "previousOwner",
							"type": "address"
						},
						{
							"indexed": true,
							"internalType": "address",
							"name": "newOwner",
							"type": "address"
						}
					],
					"name": "OwnershipTransferred",
					"type": "event"
				},
				{
					"anonymous": false,
					"inputs": [
						{
							"indexed": true,
							"internalType": "address",
							"name": "owner",
							"type": "address"
						},
						{
							"indexed": true,
							"internalType": "uint256",
							"name": "amount",
							"type": "uint256"
						},
						{
							"indexed": true,
							"internalType": "address",
							"name": "token",
							"type": "address"
						}
					],
					"name": "SentRewards",
					"type": "event"
				},
				{
					"anonymous": false,
					"inputs": [
						{
							"indexed": true,
							"internalType": "address",
							"name": "owner",
							"type": "address"
						},
						{
							"indexed": true,
							"internalType": "uint256",
							"name": "amount",
							"type": "uint256"
						},
						{
							"indexed": true,
							"internalType": "uint256",
							"name": "fees",
							"type": "uint256"
						}
					],
					"name": "SentRewardsETH",
					"type": "event"
				},
				{
					"anonymous": false,
					"inputs": [
						{
							"indexed": true,
							"internalType": "string",
							"name": "functionName",
							"type": "string"
						},
						{
							"indexed": true,
							"internalType": "uint256",
							"name": "unlockedAt",
							"type": "uint256"
						}
					],
					"name": "UnlockedFunction",
					"type": "event"
				},
				{
					"inputs": [
						{
							"internalType": "address",
							"name": "",
							"type": "address"
						},
						{
							"internalType": "address",
							"name": "",
							"type": "address"
						}
					],
					"name": "_claimTimes",
					"outputs": [
						{
							"internalType": "uint256",
							"name": "",
							"type": "uint256"
						}
					],
					"stateMutability": "view",
					"type": "function"
				},
				{
					"inputs": [],
					"name": "_gasCost",
					"outputs": [
						{
							"internalType": "uint256",
							"name": "",
							"type": "uint256"
						}
					],
					"stateMutability": "view",
					"type": "function"
				},
				{
					"inputs": [],
					"name": "_maxAmountPerReceive",
					"outputs": [
						{
							"internalType": "uint256",
							"name": "",
							"type": "uint256"
						}
					],
					"stateMutability": "view",
					"type": "function"
				},
				{
					"inputs": [
						{
							"internalType": "address",
							"name": "",
							"type": "address"
						}
					],
					"name": "_paidFee",
					"outputs": [
						{
							"internalType": "bool",
							"name": "",
							"type": "bool"
						}
					],
					"stateMutability": "view",
					"type": "function"
				},
				{
					"inputs": [],
					"name": "_rewardToken",
					"outputs": [
						{
							"internalType": "contract IERC20",
							"name": "",
							"type": "address"
						}
					],
					"stateMutability": "view",
					"type": "function"
				},
				{
					"inputs": [
						{
							"internalType": "address",
							"name": "",
							"type": "address"
						}
					],
					"name": "_rewards",
					"outputs": [
						{
							"internalType": "bool",
							"name": "",
							"type": "bool"
						}
					],
					"stateMutability": "view",
					"type": "function"
				},
				{
					"inputs": [],
					"name": "_router",
					"outputs": [
						{
							"internalType": "contract IUniswapV2Router02",
							"name": "",
							"type": "address"
						}
					],
					"stateMutability": "view",
					"type": "function"
				},
				{
					"inputs": [],
					"name": "_timeBetweenClaims",
					"outputs": [
						{
							"internalType": "uint256",
							"name": "",
							"type": "uint256"
						}
					],
					"stateMutability": "view",
					"type": "function"
				},
				{
					"inputs": [],
					"name": "_weth",
					"outputs": [
						{
							"internalType": "address",
							"name": "",
							"type": "address"
						}
					],
					"stateMutability": "view",
					"type": "function"
				},
				{
					"inputs": [
						{
							"internalType": "uint256",
							"name": "newAmount",
							"type": "uint256"
						}
					],
					"name": "adjustMaxAmountPerReceive",
					"outputs": [],
					"stateMutability": "nonpayable",
					"type": "function"
				},
				{
					"inputs": [
						{
							"internalType": "address",
							"name": "user",
							"type": "address"
						},
						{
							"internalType": "address",
							"name": "token",
							"type": "address"
						}
					],
					"name": "canClaim",
					"outputs": [
						{
							"internalType": "bool",
							"name": "",
							"type": "bool"
						}
					],
					"stateMutability": "view",
					"type": "function"
				},
				{
					"inputs": [
						{
							"internalType": "uint256",
							"name": "newFee",
							"type": "uint256"
						}
					],
					"name": "changeFee",
					"outputs": [],
					"stateMutability": "nonpayable",
					"type": "function"
				},
				{
					"inputs": [
						{
							"internalType": "uint256",
							"name": "newGasCost",
							"type": "uint256"
						}
					],
					"name": "changeGasCost",
					"outputs": [],
					"stateMutability": "nonpayable",
					"type": "function"
				},
				{
					"inputs": [
						{
							"internalType": "uint256",
							"name": "newFee",
							"type": "uint256"
						}
					],
					"name": "changeThirdPartyFee",
					"outputs": [],
					"stateMutability": "nonpayable",
					"type": "function"
				},
				{
					"inputs": [],
					"name": "claim",
					"outputs": [],
					"stateMutability": "payable",
					"type": "function"
				},
				{
					"inputs": [
						{
							"internalType": "address",
							"name": "token",
							"type": "address"
						}
					],
					"name": "emergencyWithdraw",
					"outputs": [],
					"stateMutability": "nonpayable",
					"type": "function"
				},
				{
					"inputs": [
						{
							"internalType": "address",
							"name": "token",
							"type": "address"
						}
					],
					"name": "getBalance",
					"outputs": [
						{
							"internalType": "uint256",
							"name": "",
							"type": "uint256"
						}
					],
					"stateMutability": "view",
					"type": "function"
				},
				{
					"inputs": [],
					"name": "getEthBalance",
					"outputs": [
						{
							"internalType": "uint256",
							"name": "",
							"type": "uint256"
						}
					],
					"stateMutability": "view",
					"type": "function"
				},
				{
					"inputs": [],
					"name": "isLockEnabled",
					"outputs": [
						{
							"internalType": "bool",
							"name": "",
							"type": "bool"
						}
					],
					"stateMutability": "view",
					"type": "function"
				},
				{
					"inputs": [
						{
							"internalType": "string",
							"name": "_fn",
							"type": "string"
						}
					],
					"name": "lockFunction",
					"outputs": [],
					"stateMutability": "nonpayable",
					"type": "function"
				},
				{
					"inputs": [],
					"name": "maintainer",
					"outputs": [
						{
							"internalType": "address",
							"name": "",
							"type": "address"
						}
					],
					"stateMutability": "view",
					"type": "function"
				},
				{
					"inputs": [],
					"name": "nativeSwapFee",
					"outputs": [
						{
							"internalType": "uint256",
							"name": "",
							"type": "uint256"
						}
					],
					"stateMutability": "view",
					"type": "function"
				},
				{
					"inputs": [],
					"name": "owner",
					"outputs": [
						{
							"internalType": "address",
							"name": "",
							"type": "address"
						}
					],
					"stateMutability": "view",
					"type": "function"
				},
				{
					"inputs": [],
					"name": "renounceOwnership",
					"outputs": [],
					"stateMutability": "nonpayable",
					"type": "function"
				},
				{
					"inputs": [
						{
							"internalType": "uint256",
							"name": "amount",
							"type": "uint256"
						},
						{
							"internalType": "address",
							"name": "user",
							"type": "address"
						}
					],
					"name": "sendRewardAsEth",
					"outputs": [],
					"stateMutability": "nonpayable",
					"type": "function"
				},
				{
					"inputs": [
						{
							"internalType": "uint256",
							"name": "amount",
							"type": "uint256"
						},
						{
							"internalType": "address",
							"name": "user",
							"type": "address"
						},
						{
							"internalType": "uint256",
							"name": "fee",
							"type": "uint256"
						},
						{
							"internalType": "address",
							"name": "token",
							"type": "address"
						}
					],
					"name": "sendRewards",
					"outputs": [],
					"stateMutability": "nonpayable",
					"type": "function"
				},
				{
					"inputs": [
						{
							"internalType": "address",
							"name": "_newMaintainer",
							"type": "address"
						}
					],
					"name": "setMaintainer",
					"outputs": [],
					"stateMutability": "nonpayable",
					"type": "function"
				},
				{
					"inputs": [
						{
							"internalType": "contract IUniswapV2Router02",
							"name": "router",
							"type": "address"
						}
					],
					"name": "setRouter",
					"outputs": [],
					"stateMutability": "nonpayable",
					"type": "function"
				},
				{
					"inputs": [],
					"name": "setTimelockEnabled",
					"outputs": [],
					"stateMutability": "nonpayable",
					"type": "function"
				},
				{
					"inputs": [],
					"name": "thirdPartyFee",
					"outputs": [
						{
							"internalType": "uint256",
							"name": "",
							"type": "uint256"
						}
					],
					"stateMutability": "view",
					"type": "function"
				},
				{
					"inputs": [
						{
							"internalType": "string",
							"name": "",
							"type": "string"
						}
					],
					"name": "timelock",
					"outputs": [
						{
							"internalType": "uint256",
							"name": "",
							"type": "uint256"
						}
					],
					"stateMutability": "view",
					"type": "function"
				},
				{
					"inputs": [
						{
							"internalType": "address",
							"name": "newOwner",
							"type": "address"
						}
					],
					"name": "transferOwnership",
					"outputs": [],
					"stateMutability": "nonpayable",
					"type": "function"
				},
				{
					"inputs": [
						{
							"internalType": "string",
							"name": "_fn",
							"type": "string"
						}
					],
					"name": "unlockFunction",
					"outputs": [],
					"stateMutability": "nonpayable",
					"type": "function"
				},
				{
					"inputs": [
						{
							"internalType": "contract IERC20",
							"name": "rewardToken",
							"type": "address"
						}
					],
					"name": "updateRewardToken",
					"outputs": [],
					"stateMutability": "nonpayable",
					"type": "function"
				},
				{
					"stateMutability": "payable",
					"type": "receive"
				}
			],
			"devdoc": {
				"kind": "dev",
				"methods": {
					"owner()": {
						"details": "Returns the address of the current owner."
					},
					"renounceOwnership()": {
						"details": "Leaves the contract without owner. It will not be possible to call `onlyOwner` functions anymore. Can only be called by the current owner. NOTE: Renouncing ownership will leave the contract without an owner, thereby removing any functionality that is only available to the owner."
					},
					"transferOwnership(address)": {
						"details": "Transfers ownership of the contract to a new account (`newOwner`). Can only be called by the current owner."
					}
				},
				"version": 1
			},
			"evm": {
				"assembly": "    /* \"contracts/chains/binance/RewardSystem.sol\":454:9603  contract RewardSystem is Ownable, TimeLock {\r... */\n  mstore(0x40, 0x80)\n    /* \"contracts/libraries/TimeLock.sol\":765:770  false */\n  0x00\n    /* \"contracts/libraries/TimeLock.sol\":737:770  bool public isLockEnabled = false */\n  dup1\n  sload\n  not(shl(0xa0, 0xff))\n  and\n  swap1\n  sstore\n    /* \"contracts/chains/binance/RewardSystem.sol\":1122:1124  10 */\n  0x0a\n    /* \"contracts/chains/binance/RewardSystem.sol\":1091:1124  uint256 public nativeSwapFee = 10 */\n  0x06\n  dup2\n  swap1\n  sstore\n    /* \"contracts/chains/binance/RewardSystem.sol\":1172:1173  2 */\n  0x02\n    /* \"contracts/chains/binance/RewardSystem.sol\":1141:1173  uint256 public thirdPartyFee = 2 */\n  0x07\n  sstore\n    /* \"contracts/chains/binance/RewardSystem.sol\":1215:1229  8500000000 wei */\n  0x01faa3b500\n    /* \"contracts/chains/binance/RewardSystem.sol\":1189:1229  uint256 public _gasCost = 8500000000 wei */\n  0x08\n  sstore\n    /* \"contracts/chains/binance/RewardSystem.sol\":1313:1327  10000000 ether */\n  0x084595161401484a000000\n    /* \"contracts/chains/binance/RewardSystem.sol\":1275:1327  uint256 public _maxAmountPerReceive = 10000000 ether */\n  swap1\n  sstore\n    /* \"contracts/chains/binance/RewardSystem.sol\":1370:1376  1 days */\n  0x015180\n    /* \"contracts/chains/binance/RewardSystem.sol\":1334:1376  uint256 public _timeBetweenClaims = 1 days */\n  0x0b\n  sstore\n    /* \"contracts/chains/binance/RewardSystem.sol\":1383:1448  address public _weth = 0xbb4CdB9CBd36B01bD1cBaEBF2De08d9173bc095c */\n  0x0c\n  dup1\n  sload\n  not(sub(shl(0xa0, 0x01), 0x01))\n  swap1\n  dup2\n  and\n    /* \"contracts/chains/binance/RewardSystem.sol\":1406:1448  0xbb4CdB9CBd36B01bD1cBaEBF2De08d9173bc095c */\n  0xbb4cdb9cbd36b01bd1cbaebf2de08d9173bc095c\n    /* \"contracts/chains/binance/RewardSystem.sol\":1383:1448  address public _weth = 0xbb4CdB9CBd36B01bD1cBaEBF2De08d9173bc095c */\n  or\n  swap1\n  swap2\n  sstore\n    /* \"contracts/chains/binance/RewardSystem.sol\":1457:1555  IUniswapV2Router02 public _router = IUniswapV2Router02(0x10ED43C718714eb63d5aA57B78B54704E256024E) */\n  0x0d\n  dup1\n  sload\n  swap1\n  swap2\n  and\n    /* \"contracts/chains/binance/RewardSystem.sol\":1512:1554  0x10ED43C718714eb63d5aA57B78B54704E256024E */\n  0x10ed43c718714eb63d5aa57b78b54704e256024e\n    /* \"contracts/chains/binance/RewardSystem.sol\":1457:1555  IUniswapV2Router02 public _router = IUniswapV2Router02(0x10ED43C718714eb63d5aA57B78B54704E256024E) */\n  or\n  swap1\n  sstore\n    /* \"contracts/chains/binance/RewardSystem.sol\":2599:2676  constructor(IERC20 rewardToken) {\r... */\n  callvalue\n  dup1\n  iszero\n  tag_1\n  jumpi\n  0x00\n  dup1\n  revert\ntag_1:\n  pop\n  mload(0x40)\n  sub(codesize, bytecodeSize)\n  dup1\n  bytecodeSize\n  dup4\n  codecopy\n  dup2\n  add\n  0x40\n  dup2\n  swap1\n  mstore\n  tag_2\n  swap2\n  tag_3\n  jump\t// in\ntag_2:\n    /* \"@openzeppelin/contracts/access/Ownable.sol\":867:890  _setOwner(_msgSender()) */\n  tag_8\n    /* \"@openzeppelin/contracts/utils/Context.sol\":665:675  msg.sender */\n  caller\n    /* \"@openzeppelin/contracts/access/Ownable.sol\":867:876  _setOwner */\n  tag_11\n    /* \"@openzeppelin/contracts/access/Ownable.sol\":867:890  _setOwner(_msgSender()) */\n  jump\t// in\ntag_8:\n    /* \"contracts/libraries/TimeLock.sol\":2409:2420  _maintainer */\n  0x02\n    /* \"contracts/libraries/TimeLock.sol\":2409:2433  _maintainer = msg.sender */\n  dup1\n  sload\n    /* \"contracts/libraries/TimeLock.sol\":2423:2433  msg.sender */\n  caller\n  not(sub(shl(0xa0, 0x01), 0x01))\n    /* \"contracts/libraries/TimeLock.sol\":2409:2433  _maintainer = msg.sender */\n  swap2\n  dup3\n  and\n  or\n  swap1\n  swap2\n  sstore\n    /* \"contracts/chains/binance/RewardSystem.sol\":2642:2654  _rewardToken */\n  0x09\n    /* \"contracts/chains/binance/RewardSystem.sol\":2642:2668  _rewardToken = rewardToken */\n  dup1\n  sload\n  swap1\n  swap2\n  and\n  sub(shl(0xa0, 0x01), 0x01)\n  swap3\n  swap1\n  swap3\n  and\n  swap2\n  swap1\n  swap2\n  or\n  swap1\n  sstore\n    /* \"contracts/chains/binance/RewardSystem.sol\":454:9603  contract RewardSystem is Ownable, TimeLock {\r... */\n  jump(tag_17)\n    /* \"@openzeppelin/contracts/access/Ownable.sol\":2041:2210  function _setOwner(address newOwner) private {... */\ntag_11:\n    /* \"@openzeppelin/contracts/access/Ownable.sol\":2096:2112  address oldOwner */\n  0x00\n    /* \"@openzeppelin/contracts/access/Ownable.sol\":2115:2121  _owner */\n  dup1\n  sload\n  sub(shl(0xa0, 0x01), 0x01)\n    /* \"@openzeppelin/contracts/access/Ownable.sol\":2131:2148  _owner = newOwner */\n  dup4\n  dup2\n  and\n  not(sub(shl(0xa0, 0x01), 0x01))\n  dup4\n  and\n  dup2\n  or\n  dup5\n  sstore\n    /* \"@openzeppelin/contracts/access/Ownable.sol\":2163:2203  OwnershipTransferred(oldOwner, newOwner) */\n  mload(0x40)\n    /* \"@openzeppelin/contracts/access/Ownable.sol\":2115:2121  _owner */\n  swap2\n  swap1\n  swap3\n  and\n  swap3\n  dup4\n  swap2\n    /* \"@openzeppelin/contracts/access/Ownable.sol\":2163:2203  OwnershipTransferred(oldOwner, newOwner) */\n  0x8be0079c531659141344cd1fd0a4f28419497f9722a3daafe3b4186f6b6457e0\n  swap2\n    /* \"@openzeppelin/contracts/access/Ownable.sol\":2096:2112  address oldOwner */\n  swap1\n    /* \"@openzeppelin/contracts/access/Ownable.sol\":2163:2203  OwnershipTransferred(oldOwner, newOwner) */\n  log3\n    /* \"@openzeppelin/contracts/access/Ownable.sol\":2086:2210  {... */\n  pop\n    /* \"@openzeppelin/contracts/access/Ownable.sol\":2041:2210  function _setOwner(address newOwner) private {... */\n  pop\n  jump\t// out\n    /* \"#utility.yul\":14:318   */\ntag_3:\n    /* \"#utility.yul\":98:104   */\n  0x00\n    /* \"#utility.yul\":151:153   */\n  0x20\n    /* \"#utility.yul\":139:148   */\n  dup3\n    /* \"#utility.yul\":130:137   */\n  dup5\n    /* \"#utility.yul\":126:149   */\n  sub\n    /* \"#utility.yul\":122:154   */\n  slt\n    /* \"#utility.yul\":119:171   */\n  iszero\n  tag_19\n  jumpi\n    /* \"#utility.yul\":167:168   */\n  0x00\n    /* \"#utility.yul\":164:165   */\n  dup1\n    /* \"#utility.yul\":157:169   */\n  revert\n    /* \"#utility.yul\":119:171   */\ntag_19:\n    /* \"#utility.yul\":193:209   */\n  dup2\n  mload\n  sub(shl(0xa0, 0x01), 0x01)\n    /* \"#utility.yul\":238:269   */\n  dup2\n  and\n    /* \"#utility.yul\":228:270   */\n  dup2\n  eq\n    /* \"#utility.yul\":218:288   */\n  tag_20\n  jumpi\n    /* \"#utility.yul\":284:285   */\n  0x00\n    /* \"#utility.yul\":281:282   */\n  dup1\n    /* \"#utility.yul\":274:286   */\n  revert\n    /* \"#utility.yul\":218:288   */\ntag_20:\n    /* \"#utility.yul\":307:312   */\n  swap4\n    /* \"#utility.yul\":14:318   */\n  swap3\n  pop\n  pop\n  pop\n  jump\t// out\ntag_17:\n    /* \"contracts/chains/binance/RewardSystem.sol\":454:9603  contract RewardSystem is Ownable, TimeLock {\r... */\n  dataSize(sub_0)\n  dup1\n  dataOffset(sub_0)\n  0x00\n  codecopy\n  0x00\n  return\nstop\n\nsub_0: assembly {\n        /* \"contracts/chains/binance/RewardSystem.sol\":454:9603  contract RewardSystem is Ownable, TimeLock {\r... */\n      mstore(0x40, 0x80)\n      jumpi(tag_1, lt(calldatasize, 0x04))\n      shr(0xe0, calldataload(0x00))\n      dup1\n      0x9f531156\n      gt\n      tag_37\n      jumpi\n      dup1\n      0xc4e977c8\n      gt\n      tag_38\n      jumpi\n      dup1\n      0xf2fde38b\n      gt\n      tag_39\n      jumpi\n      dup1\n      0xf2fde38b\n      eq\n      tag_32\n      jumpi\n      dup1\n      0xf4762fd6\n      eq\n      tag_33\n      jumpi\n      dup1\n      0xf8b2cb4f\n      eq\n      tag_34\n      jumpi\n      dup1\n      0xf8cf31cb\n      eq\n      tag_35\n      jumpi\n      dup1\n      0xf98080c0\n      eq\n      tag_36\n      jumpi\n      0x00\n      dup1\n      revert\n    tag_39:\n      dup1\n      0xc4e977c8\n      eq\n      tag_28\n      jumpi\n      dup1\n      0xde996a6e\n      eq\n      tag_29\n      jumpi\n      dup1\n      0xe7b6ebba\n      eq\n      tag_30\n      jumpi\n      dup1\n      0xedae876f\n      eq\n      tag_31\n      jumpi\n      0x00\n      dup1\n      revert\n    tag_38:\n      dup1\n      0xa617e653\n      gt\n      tag_40\n      jumpi\n      dup1\n      0xa617e653\n      eq\n      tag_24\n      jumpi\n      dup1\n      0xb59c6e0e\n      eq\n      tag_25\n      jumpi\n      dup1\n      0xc07a1d4d\n      eq\n      tag_26\n      jumpi\n      dup1\n      0xc0d78655\n      eq\n      tag_27\n      jumpi\n      0x00\n      dup1\n      revert\n    tag_40:\n      dup1\n      0x9f531156\n      eq\n      tag_20\n      jumpi\n      dup1\n      0xa1764595\n      eq\n      tag_21\n      jumpi\n      dup1\n      0xa347511a\n      eq\n      tag_22\n      jumpi\n      dup1\n      0xa607494a\n      eq\n      tag_23\n      jumpi\n      0x00\n      dup1\n      revert\n    tag_37:\n      dup1\n      0x65947939\n      gt\n      tag_41\n      jumpi\n      dup1\n      0x715018a6\n      gt\n      tag_42\n      jumpi\n      dup1\n      0x715018a6\n      eq\n      tag_15\n      jumpi\n      dup1\n      0x7d6dfb7e\n      eq\n      tag_16\n      jumpi\n      dup1\n      0x7ef189f8\n      eq\n      tag_17\n      jumpi\n      dup1\n      0x8da5cb5b\n      eq\n      tag_18\n      jumpi\n      dup1\n      0x9850d32b\n      eq\n      tag_19\n      jumpi\n      0x00\n      dup1\n      revert\n    tag_42:\n      dup1\n      0x65947939\n      eq\n      tag_11\n      jumpi\n      dup1\n      0x6a1db1bf\n      eq\n      tag_12\n      jumpi\n      dup1\n      0x6ff1c9bc\n      eq\n      tag_13\n      jumpi\n      dup1\n      0x70ed0ada\n      eq\n      tag_14\n      jumpi\n      0x00\n      dup1\n      revert\n    tag_41:\n      dup1\n      0x4b417886\n      gt\n      tag_43\n      jumpi\n      dup1\n      0x4b417886\n      eq\n      tag_7\n      jumpi\n      dup1\n      0x4e71d92d\n      eq\n      tag_8\n      jumpi\n      dup1\n      0x5dd53826\n      eq\n      tag_9\n      jumpi\n      dup1\n      0x6469b96e\n      eq\n      tag_10\n      jumpi\n      0x00\n      dup1\n      revert\n    tag_43:\n      dup1\n      0x0126ffb9\n      eq\n      tag_3\n      jumpi\n      dup1\n      0x13ea5d29\n      eq\n      tag_4\n      jumpi\n      dup1\n      0x1f8c1d2b\n      eq\n      tag_5\n      jumpi\n      dup1\n      0x2fa07562\n      eq\n      tag_6\n      jumpi\n      0x00\n      dup1\n      revert\n    tag_1:\n      jumpi(tag_2, calldatasize)\n      stop\n    tag_2:\n      0x00\n      dup1\n      revert\n        /* \"contracts/chains/binance/RewardSystem.sol\":1334:1376  uint256 public _timeBetweenClaims = 1 days */\n    tag_3:\n      callvalue\n      dup1\n      iszero\n      tag_46\n      jumpi\n      0x00\n      dup1\n      revert\n    tag_46:\n      pop\n      tag_47\n      sload(0x0b)\n      dup2\n      jump\n    tag_47:\n      mload(0x40)\n        /* \"#utility.yul\":13638:13663   */\n      swap1\n      dup2\n      mstore\n        /* \"#utility.yul\":13626:13628   */\n      0x20\n        /* \"#utility.yul\":13611:13629   */\n      add\n        /* \"contracts/chains/binance/RewardSystem.sol\":1334:1376  uint256 public _timeBetweenClaims = 1 days */\n    tag_49:\n      mload(0x40)\n      dup1\n      swap2\n      sub\n      swap1\n      return\n        /* \"contracts/libraries/TimeLock.sol\":3191:3617  function setMaintainer(address _newMaintainer) public onlyMaintainerOrOwner locked(\"maintainer\") {... */\n    tag_4:\n      callvalue\n      dup1\n      iszero\n      tag_51\n      jumpi\n      0x00\n      dup1\n      revert\n    tag_51:\n      pop\n      tag_52\n      tag_53\n      calldatasize\n      0x04\n      tag_54\n      jump\t// in\n    tag_53:\n      tag_55\n      jump\t// in\n    tag_52:\n      stop\n        /* \"contracts/chains/binance/RewardSystem.sol\":4916:5098  function changeThirdPartyFee(uint256 newFee) public onlyOwner locked(\"changeFee\") {\r... */\n    tag_5:\n      callvalue\n      dup1\n      iszero\n      tag_56\n      jumpi\n      0x00\n      dup1\n      revert\n    tag_56:\n      pop\n      tag_52\n      tag_58\n      calldatasize\n      0x04\n      tag_59\n      jump\t// in\n    tag_58:\n      tag_60\n      jump\t// in\n        /* \"contracts/chains/binance/RewardSystem.sol\":1044:1084  mapping(address => bool) public _paidFee */\n    tag_6:\n      callvalue\n      dup1\n      iszero\n      tag_61\n      jumpi\n      0x00\n      dup1\n      revert\n    tag_61:\n      pop\n      tag_62\n      tag_63\n      calldatasize\n      0x04\n      tag_54\n      jump\t// in\n    tag_63:\n      mstore(0x20, 0x05)\n      0x00\n      swap1\n      dup2\n      mstore\n      0x40\n      swap1\n      keccak256\n      sload\n      0xff\n      and\n      dup2\n      jump\n    tag_62:\n      mload(0x40)\n        /* \"#utility.yul\":4849:4863   */\n      swap1\n      iszero\n        /* \"#utility.yul\":4842:4864   */\n      iszero\n        /* \"#utility.yul\":4824:4865   */\n      dup2\n      mstore\n        /* \"#utility.yul\":4812:4814   */\n      0x20\n        /* \"#utility.yul\":4797:4815   */\n      add\n        /* \"contracts/chains/binance/RewardSystem.sol\":1044:1084  mapping(address => bool) public _paidFee */\n      tag_49\n        /* \"#utility.yul\":4684:4871   */\n      jump\n        /* \"contracts/chains/binance/RewardSystem.sol\":941:1007  mapping(address => mapping(address => uint256)) public _claimTimes */\n    tag_7:\n      callvalue\n      dup1\n      iszero\n      tag_67\n      jumpi\n      0x00\n      dup1\n      revert\n    tag_67:\n      pop\n      tag_47\n      tag_69\n      calldatasize\n      0x04\n      tag_70\n      jump\t// in\n    tag_69:\n      0x04\n      0x20\n      swap1\n      dup2\n      mstore\n      0x00\n      swap3\n      dup4\n      mstore\n      0x40\n      dup1\n      dup5\n      keccak256\n      swap1\n      swap2\n      mstore\n      swap1\n      dup3\n      mstore\n      swap1\n      keccak256\n      sload\n      dup2\n      jump\n        /* \"contracts/chains/binance/RewardSystem.sol\":9203:9600  function claim() public payable {\r... */\n    tag_8:\n      tag_52\n      tag_74\n      jump\t// in\n        /* \"contracts/chains/binance/RewardSystem.sol\":1275:1327  uint256 public _maxAmountPerReceive = 10000000 ether */\n    tag_9:\n      callvalue\n      dup1\n      iszero\n      tag_75\n      jumpi\n      0x00\n      dup1\n      revert\n    tag_75:\n      pop\n      tag_47\n      sload(0x0a)\n      dup2\n      jump\n        /* \"contracts/chains/binance/RewardSystem.sol\":5106:5282  function changeGasCost(uint256 newGasCost) public onlyOwner locked(\"changeGasCost\") {\r... */\n    tag_10:\n      callvalue\n      dup1\n      iszero\n      tag_79\n      jumpi\n      0x00\n      dup1\n      revert\n    tag_79:\n      pop\n      tag_52\n      tag_81\n      calldatasize\n      0x04\n      tag_59\n      jump\t// in\n    tag_81:\n      tag_82\n      jump\t// in\n        /* \"contracts/chains/binance/RewardSystem.sol\":5977:7547  function sendRewards(uint256 amount, address user, uint256 fee, address token) public onlyOwner {\r... */\n    tag_11:\n      callvalue\n      dup1\n      iszero\n      tag_83\n      jumpi\n      0x00\n      dup1\n      revert\n    tag_83:\n      pop\n      tag_52\n      tag_85\n      calldatasize\n      0x04\n      tag_86\n      jump\t// in\n    tag_85:\n      tag_87\n      jump\t// in\n        /* \"contracts/chains/binance/RewardSystem.sol\":4746:4908  function changeFee(uint256 newFee) public onlyOwner locked(\"changeFee\") {\r... */\n    tag_12:\n      callvalue\n      dup1\n      iszero\n      tag_88\n      jumpi\n      0x00\n      dup1\n      revert\n    tag_88:\n      pop\n      tag_52\n      tag_90\n      calldatasize\n      0x04\n      tag_59\n      jump\t// in\n    tag_90:\n      tag_91\n      jump\t// in\n        /* \"contracts/chains/binance/RewardSystem.sol\":5290:5641  function emergencyWithdraw(address token) public onlyOwner {\r... */\n    tag_13:\n      callvalue\n      dup1\n      iszero\n      tag_92\n      jumpi\n      0x00\n      dup1\n      revert\n    tag_92:\n      pop\n      tag_52\n      tag_94\n      calldatasize\n      0x04\n      tag_54\n      jump\t// in\n    tag_94:\n      tag_95\n      jump\t// in\n        /* \"contracts/chains/binance/RewardSystem.sol\":3278:3380  function getEthBalance() public view returns (uint256) {\r... */\n    tag_14:\n      callvalue\n      dup1\n      iszero\n      tag_96\n      jumpi\n      0x00\n      dup1\n      revert\n    tag_96:\n      pop\n        /* \"contracts/chains/binance/RewardSystem.sol\":3351:3372  address(this).balance */\n      selfbalance\n        /* \"contracts/chains/binance/RewardSystem.sol\":3278:3380  function getEthBalance() public view returns (uint256) {\r... */\n      jump(tag_47)\n        /* \"@openzeppelin/contracts/access/Ownable.sol\":1605:1697  function renounceOwnership() public virtual onlyOwner {... */\n    tag_15:\n      callvalue\n      dup1\n      iszero\n      tag_100\n      jumpi\n      0x00\n      dup1\n      revert\n    tag_100:\n      pop\n      tag_52\n      tag_102\n      jump\t// in\n        /* \"contracts/chains/binance/RewardSystem.sol\":894:934  mapping(address => bool) public _rewards */\n    tag_16:\n      callvalue\n      dup1\n      iszero\n      tag_103\n      jumpi\n      0x00\n      dup1\n      revert\n    tag_103:\n      pop\n      tag_62\n      tag_105\n      calldatasize\n      0x04\n      tag_54\n      jump\t// in\n    tag_105:\n      mstore(0x20, 0x03)\n      0x00\n      swap1\n      dup2\n      mstore\n      0x40\n      swap1\n      keccak256\n      sload\n      0xff\n      and\n      dup2\n      jump\n        /* \"contracts/chains/binance/RewardSystem.sol\":1189:1229  uint256 public _gasCost = 8500000000 wei */\n    tag_17:\n      callvalue\n      dup1\n      iszero\n      tag_108\n      jumpi\n      0x00\n      dup1\n      revert\n    tag_108:\n      pop\n      tag_47\n      sload(0x08)\n      dup2\n      jump\n        /* \"@openzeppelin/contracts/access/Ownable.sol\":973:1058  function owner() public view virtual returns (address) {... */\n    tag_18:\n      callvalue\n      dup1\n      iszero\n      tag_112\n      jumpi\n      0x00\n      dup1\n      revert\n    tag_112:\n      pop\n        /* \"@openzeppelin/contracts/access/Ownable.sol\":1019:1026  address */\n      0x00\n        /* \"@openzeppelin/contracts/access/Ownable.sol\":1045:1051  _owner */\n      sload\n      sub(shl(0xa0, 0x01), 0x01)\n      and\n        /* \"@openzeppelin/contracts/access/Ownable.sol\":973:1058  function owner() public view virtual returns (address) {... */\n    tag_113:\n      mload(0x40)\n      sub(shl(0xa0, 0x01), 0x01)\n        /* \"#utility.yul\":4361:4393   */\n      swap1\n      swap2\n      and\n        /* \"#utility.yul\":4343:4394   */\n      dup2\n      mstore\n        /* \"#utility.yul\":4331:4333   */\n      0x20\n        /* \"#utility.yul\":4316:4334   */\n      add\n        /* \"@openzeppelin/contracts/access/Ownable.sol\":973:1058  function owner() public view virtual returns (address) {... */\n      tag_49\n        /* \"#utility.yul\":4197:4400   */\n      jump\n        /* \"contracts/libraries/TimeLock.sol\":2770:2857  function maintainer() public view returns (address) {... */\n    tag_19:\n      callvalue\n      dup1\n      iszero\n      tag_117\n      jumpi\n      0x00\n      dup1\n      revert\n    tag_117:\n      pop\n        /* \"contracts/libraries/TimeLock.sol\":2839:2850  _maintainer */\n      and(sub(shl(0xa0, 0x01), 0x01), sload(0x02))\n        /* \"contracts/libraries/TimeLock.sol\":2770:2857  function maintainer() public view returns (address) {... */\n      jump(tag_113)\n        /* \"contracts/libraries/TimeLock.sol\":4317:4421  function lockFunction(string memory _fn) public onlyMaintainerOrOwner {... */\n    tag_20:\n      callvalue\n      dup1\n      iszero\n      tag_121\n      jumpi\n      0x00\n      dup1\n      revert\n    tag_121:\n      pop\n      tag_52\n      tag_123\n      calldatasize\n      0x04\n      tag_124\n      jump\t// in\n    tag_123:\n      tag_125\n      jump\t// in\n        /* \"contracts/chains/binance/RewardSystem.sol\":1383:1448  address public _weth = 0xbb4CdB9CBd36B01bD1cBaEBF2De08d9173bc095c */\n    tag_21:\n      callvalue\n      dup1\n      iszero\n      tag_126\n      jumpi\n      0x00\n      dup1\n      revert\n    tag_126:\n      pop\n      sload(0x0c)\n      tag_113\n      swap1\n      sub(shl(0xa0, 0x01), 0x01)\n      and\n      dup2\n      jump\n        /* \"contracts/libraries/TimeLock.sol\":737:770  bool public isLockEnabled = false */\n    tag_22:\n      callvalue\n      dup1\n      iszero\n      tag_130\n      jumpi\n      0x00\n      dup1\n      revert\n    tag_130:\n      pop\n      sload(0x00)\n      tag_62\n      swap1\n      shl(0xa0, 0x01)\n      swap1\n      div\n      0xff\n      and\n      dup2\n      jump\n        /* \"contracts/libraries/TimeLock.sol\":4100:4284  function unlockFunction(string memory _fn) public onlyMaintainerOrOwner {... */\n    tag_23:\n      callvalue\n      dup1\n      iszero\n      tag_134\n      jumpi\n      0x00\n      dup1\n      revert\n    tag_134:\n      pop\n      tag_52\n      tag_136\n      calldatasize\n      0x04\n      tag_124\n      jump\t// in\n    tag_136:\n      tag_137\n      jump\t// in\n        /* \"contracts/chains/binance/RewardSystem.sol\":3388:3716  function canClaim(address user, address token) public view returns (bool) {\r... */\n    tag_24:\n      callvalue\n      dup1\n      iszero\n      tag_138\n      jumpi\n      0x00\n      dup1\n      revert\n    tag_138:\n      pop\n      tag_62\n      tag_140\n      calldatasize\n      0x04\n      tag_70\n      jump\t// in\n    tag_140:\n      tag_141\n      jump\t// in\n        /* \"contracts/chains/binance/RewardSystem.sol\":1242:1268  IERC20 public _rewardToken */\n    tag_25:\n      callvalue\n      dup1\n      iszero\n      tag_143\n      jumpi\n      0x00\n      dup1\n      revert\n    tag_143:\n      pop\n      sload(0x09)\n      tag_113\n      swap1\n      sub(shl(0xa0, 0x01), 0x01)\n      and\n      dup2\n      jump\n        /* \"contracts/chains/binance/RewardSystem.sol\":1091:1124  uint256 public nativeSwapFee = 10 */\n    tag_26:\n      callvalue\n      dup1\n      iszero\n      tag_148\n      jumpi\n      0x00\n      dup1\n      revert\n    tag_148:\n      pop\n      tag_47\n      sload(0x06)\n      dup2\n      jump\n        /* \"contracts/chains/binance/RewardSystem.sol\":4640:4738  function setRouter(IUniswapV2Router02 router) public onlyOwner {\r... */\n    tag_27:\n      callvalue\n      dup1\n      iszero\n      tag_152\n      jumpi\n      0x00\n      dup1\n      revert\n    tag_152:\n      pop\n      tag_52\n      tag_154\n      calldatasize\n      0x04\n      tag_54\n      jump\t// in\n    tag_154:\n      tag_156\n      jump\t// in\n        /* \"contracts/chains/binance/RewardSystem.sol\":1141:1173  uint256 public thirdPartyFee = 2 */\n    tag_28:\n      callvalue\n      dup1\n      iszero\n      tag_157\n      jumpi\n      0x00\n      dup1\n      revert\n    tag_157:\n      pop\n      tag_47\n      sload(0x07)\n      dup2\n      jump\n        /* \"contracts/chains/binance/RewardSystem.sol\":4053:4286  function adjustMaxAmountPerReceive(uint256 newAmount) public onlyOwner locked(\"adjustMaxAmountPerReceive\") {\r... */\n    tag_29:\n      callvalue\n      dup1\n      iszero\n      tag_161\n      jumpi\n      0x00\n      dup1\n      revert\n    tag_161:\n      pop\n      tag_52\n      tag_163\n      calldatasize\n      0x04\n      tag_59\n      jump\t// in\n    tag_163:\n      tag_164\n      jump\t// in\n        /* \"contracts/chains/binance/RewardSystem.sol\":7565:8624  function sendRewardAsEth(uint256 amount, address user) public onlyOwner {\r... */\n    tag_30:\n      callvalue\n      dup1\n      iszero\n      tag_165\n      jumpi\n      0x00\n      dup1\n      revert\n    tag_165:\n      pop\n      tag_52\n      tag_167\n      calldatasize\n      0x04\n      tag_168\n      jump\t// in\n    tag_167:\n      tag_169\n      jump\t// in\n        /* \"contracts/chains/binance/RewardSystem.sol\":1457:1555  IUniswapV2Router02 public _router = IUniswapV2Router02(0x10ED43C718714eb63d5aA57B78B54704E256024E) */\n    tag_31:\n      callvalue\n      dup1\n      iszero\n      tag_170\n      jumpi\n      0x00\n      dup1\n      revert\n    tag_170:\n      pop\n      sload(0x0d)\n      tag_113\n      swap1\n      sub(shl(0xa0, 0x01), 0x01)\n      and\n      dup2\n      jump\n        /* \"@openzeppelin/contracts/access/Ownable.sol\":1846:2035  function transferOwnership(address newOwner) public virtual onlyOwner {... */\n    tag_32:\n      callvalue\n      dup1\n      iszero\n      tag_175\n      jumpi\n      0x00\n      dup1\n      revert\n    tag_175:\n      pop\n      tag_52\n      tag_177\n      calldatasize\n      0x04\n      tag_54\n      jump\t// in\n    tag_177:\n      tag_178\n      jump\t// in\n        /* \"contracts/libraries/TimeLock.sol\":3627:3751  function setTimelockEnabled() public onlyMaintainerOrOwner {... */\n    tag_33:\n      callvalue\n      dup1\n      iszero\n      tag_179\n      jumpi\n      0x00\n      dup1\n      revert\n    tag_179:\n      pop\n      tag_52\n      tag_181\n      jump\t// in\n        /* \"contracts/chains/binance/RewardSystem.sol\":3052:3270  function getBalance(address token) public view returns (uint256) {\r... */\n    tag_34:\n      callvalue\n      dup1\n      iszero\n      tag_182\n      jumpi\n      0x00\n      dup1\n      revert\n    tag_182:\n      pop\n      tag_47\n      tag_184\n      calldatasize\n      0x04\n      tag_54\n      jump\t// in\n    tag_184:\n      tag_185\n      jump\t// in\n        /* \"contracts/chains/binance/RewardSystem.sol\":4298:4628  function updateRewardToken(IERC20 rewardToken) public onlyOwner locked(\"updateRewardToken\") {\r... */\n    tag_35:\n      callvalue\n      dup1\n      iszero\n      tag_187\n      jumpi\n      0x00\n      dup1\n      revert\n    tag_187:\n      pop\n      tag_52\n      tag_189\n      calldatasize\n      0x04\n      tag_54\n      jump\t// in\n    tag_189:\n      tag_191\n      jump\t// in\n        /* \"contracts/libraries/TimeLock.sol\":776:818  mapping(string => uint256) public timelock */\n    tag_36:\n      callvalue\n      dup1\n      iszero\n      tag_192\n      jumpi\n      0x00\n      dup1\n      revert\n    tag_192:\n      pop\n      tag_47\n      tag_194\n      calldatasize\n      0x04\n      tag_124\n      jump\t// in\n    tag_194:\n      dup1\n      mload\n      0x20\n      dup2\n      dup4\n      add\n      dup2\n      add\n      dup1\n      mload\n      0x01\n      dup3\n      mstore\n      swap3\n      dup3\n      add\n      swap2\n      swap1\n      swap4\n      add\n      keccak256\n      swap2\n      mstore\n      sload\n      dup2\n      jump\n        /* \"contracts/libraries/TimeLock.sol\":3191:3617  function setMaintainer(address _newMaintainer) public onlyMaintainerOrOwner locked(\"maintainer\") {... */\n    tag_55:\n        /* \"contracts/libraries/TimeLock.sol\":2264:2274  msg.sender */\n      caller\n        /* \"contracts/libraries/TimeLock.sol\":2253:2260  owner() */\n      tag_198\n        /* \"@openzeppelin/contracts/access/Ownable.sol\":1019:1026  address */\n      0x00\n        /* \"@openzeppelin/contracts/access/Ownable.sol\":1045:1051  _owner */\n      sload\n      sub(shl(0xa0, 0x01), 0x01)\n      and\n      swap1\n        /* \"@openzeppelin/contracts/access/Ownable.sol\":973:1058  function owner() public view virtual returns (address) {... */\n      jump\n        /* \"contracts/libraries/TimeLock.sol\":2253:2260  owner() */\n    tag_198:\n      sub(shl(0xa0, 0x01), 0x01)\n        /* \"contracts/libraries/TimeLock.sol\":2253:2274  owner() == msg.sender */\n      and\n      eq\n        /* \"contracts/libraries/TimeLock.sol\":2253:2303  owner() == msg.sender || _maintainer == msg.sender */\n      dup1\n      tag_199\n      jumpi\n      pop\n        /* \"contracts/libraries/TimeLock.sol\":2278:2289  _maintainer */\n      and(sub(shl(0xa0, 0x01), 0x01), sload(0x02))\n        /* \"contracts/libraries/TimeLock.sol\":2293:2303  msg.sender */\n      caller\n        /* \"contracts/libraries/TimeLock.sol\":2278:2303  _maintainer == msg.sender */\n      eq\n        /* \"contracts/libraries/TimeLock.sol\":2253:2303  owner() == msg.sender || _maintainer == msg.sender */\n    tag_199:\n        /* \"contracts/libraries/TimeLock.sol\":2245:2361  require(owner() == msg.sender || _maintainer == msg.sender, \"operator: caller is not allowed to call this function\") */\n      tag_200\n      jumpi\n      mload(0x40)\n      shl(0xe5, 0x461bcd)\n      dup2\n      mstore\n      0x04\n      add\n      tag_201\n      swap1\n      tag_202\n      jump\t// in\n    tag_201:\n      mload(0x40)\n      dup1\n      swap2\n      sub\n      swap1\n      revert\n    tag_200:\n        /* \"contracts/libraries/TimeLock.sol\":1945:2188  modifier locked(string memory _fn) {... */\n      0x40\n      dup1\n      mload\n      dup1\n      dup3\n      add\n      swap1\n      swap2\n      mstore\n      0x0a\n      dup2\n      mstore\n      shl(0xb1, 0x36b0b4b73a30b4b732b9)\n      0x20\n      dup3\n      add\n      mstore\n      0x00\n        /* \"contracts/libraries/TimeLock.sol\":1999:2012  isLockEnabled */\n      sload\n      shl(0xa0, 0x01)\n      swap1\n      div\n      0xff\n      and\n        /* \"contracts/libraries/TimeLock.sol\":1998:2012  !isLockEnabled */\n      iszero\n      dup1\n        /* \"contracts/libraries/TimeLock.sol\":1998:2120  !isLockEnabled || (timelock[_fn] != 0 && timelock[_fn] <= block.timestamp && timelock[_fn] + _TIMELOCK >= block.timestamp) */\n      tag_209\n      jumpi\n      pop\n        /* \"contracts/libraries/TimeLock.sol\":2017:2025  timelock */\n      0x01\n        /* \"contracts/libraries/TimeLock.sol\":2026:2029  _fn */\n      dup2\n        /* \"contracts/libraries/TimeLock.sol\":2017:2030  timelock[_fn] */\n      mload(0x40)\n      tag_205\n      swap2\n      swap1\n      tag_478\n      jump\t// in\n    tag_205:\n      swap1\n      dup2\n      mstore\n      0x20\n      add\n      mload(0x40)\n      dup1\n      swap2\n      sub\n      swap1\n      keccak256\n      sload\n        /* \"contracts/libraries/TimeLock.sol\":2034:2035  0 */\n      0x00\n        /* \"contracts/libraries/TimeLock.sol\":2017:2035  timelock[_fn] != 0 */\n      eq\n      iszero\n        /* \"contracts/libraries/TimeLock.sol\":2017:2071  timelock[_fn] != 0 && timelock[_fn] <= block.timestamp */\n      dup1\n      iszero\n      tag_207\n      jumpi\n      pop\n        /* \"contracts/libraries/TimeLock.sol\":2056:2071  block.timestamp */\n      timestamp\n        /* \"contracts/libraries/TimeLock.sol\":2039:2047  timelock */\n      0x01\n        /* \"contracts/libraries/TimeLock.sol\":2048:2051  _fn */\n      dup3\n        /* \"contracts/libraries/TimeLock.sol\":2039:2052  timelock[_fn] */\n      mload(0x40)\n      tag_208\n      swap2\n      swap1\n      tag_478\n      jump\t// in\n    tag_208:\n      swap1\n      dup2\n      mstore\n      0x20\n      add\n      mload(0x40)\n      dup1\n      swap2\n      sub\n      swap1\n      keccak256\n      sload\n        /* \"contracts/libraries/TimeLock.sol\":2039:2071  timelock[_fn] <= block.timestamp */\n      gt\n      iszero\n        /* \"contracts/libraries/TimeLock.sol\":2017:2071  timelock[_fn] != 0 && timelock[_fn] <= block.timestamp */\n    tag_207:\n        /* \"contracts/libraries/TimeLock.sol\":2017:2119  timelock[_fn] != 0 && timelock[_fn] <= block.timestamp && timelock[_fn] + _TIMELOCK >= block.timestamp */\n      dup1\n      iszero\n      tag_209\n      jumpi\n      pop\n        /* \"contracts/libraries/TimeLock.sol\":2104:2119  block.timestamp */\n      timestamp\n        /* \"contracts/libraries/TimeLock.sol\":861:867  1 days */\n      0x015180\n        /* \"contracts/libraries/TimeLock.sol\":2075:2083  timelock */\n      0x01\n        /* \"contracts/libraries/TimeLock.sol\":2084:2087  _fn */\n      dup4\n        /* \"contracts/libraries/TimeLock.sol\":2075:2088  timelock[_fn] */\n      mload(0x40)\n      tag_210\n      swap2\n      swap1\n      tag_478\n      jump\t// in\n    tag_210:\n      swap1\n      dup2\n      mstore\n      0x20\n      add\n      mload(0x40)\n      dup1\n      swap2\n      sub\n      swap1\n      keccak256\n      sload\n        /* \"contracts/libraries/TimeLock.sol\":2075:2100  timelock[_fn] + _TIMELOCK */\n      tag_211\n      swap2\n      swap1\n      tag_212\n      jump\t// in\n    tag_211:\n        /* \"contracts/libraries/TimeLock.sol\":2075:2119  timelock[_fn] + _TIMELOCK >= block.timestamp */\n      lt\n      iszero\n        /* \"contracts/libraries/TimeLock.sol\":2017:2119  timelock[_fn] != 0 && timelock[_fn] <= block.timestamp && timelock[_fn] + _TIMELOCK >= block.timestamp */\n    tag_209:\n        /* \"contracts/libraries/TimeLock.sol\":1990:2143  require(!isLockEnabled || (timelock[_fn] != 0 && timelock[_fn] <= block.timestamp && timelock[_fn] + _TIMELOCK >= block.timestamp), \"Function is locked\") */\n      tag_213\n      jumpi\n      mload(0x40)\n      shl(0xe5, 0x461bcd)\n      dup2\n      mstore\n      0x04\n      add\n      tag_201\n      swap1\n      tag_215\n      jump\t// in\n    tag_213:\n        /* \"contracts/libraries/TimeLock.sol\":3324:3335  _maintainer */\n      sload(0x02)\n      sub(shl(0xa0, 0x01), 0x01)\n        /* \"contracts/libraries/TimeLock.sol\":3306:3335  _newMaintainer != _maintainer */\n      dup4\n      dup2\n      and\n        /* \"contracts/libraries/TimeLock.sol\":3324:3335  _maintainer */\n      swap2\n      and\n        /* \"contracts/libraries/TimeLock.sol\":3306:3335  _newMaintainer != _maintainer */\n      eq\n      dup1\n      iszero\n      swap1\n        /* \"contracts/libraries/TimeLock.sol\":3306:3367  _newMaintainer != _maintainer && _newMaintainer != address(0) */\n      tag_217\n      jumpi\n      pop\n      sub(shl(0xa0, 0x01), 0x01)\n        /* \"contracts/libraries/TimeLock.sol\":3339:3367  _newMaintainer != address(0) */\n      dup3\n      and\n      iszero\n      iszero\n        /* \"contracts/libraries/TimeLock.sol\":3306:3367  _newMaintainer != _maintainer && _newMaintainer != address(0) */\n    tag_217:\n        /* \"contracts/libraries/TimeLock.sol\":3298:3453  require(_newMaintainer != _maintainer && _newMaintainer != address(0), \"ABOAT::setMaintainer: Maintainer can\\'t equal previous maintainer or zero address\") */\n      tag_218\n      jumpi\n      mload(0x40)\n      shl(0xe5, 0x461bcd)\n      dup2\n      mstore\n        /* \"#utility.yul\":8451:8453   */\n      0x20\n        /* \"contracts/libraries/TimeLock.sol\":3298:3453  require(_newMaintainer != _maintainer && _newMaintainer != address(0), \"ABOAT::setMaintainer: Maintainer can\\'t equal previous maintainer or zero address\") */\n      0x04\n      dup3\n      add\n        /* \"#utility.yul\":8433:8454   */\n      mstore\n        /* \"#utility.yul\":8490:8492   */\n      0x50\n        /* \"#utility.yul\":8470:8488   */\n      0x24\n      dup3\n      add\n        /* \"#utility.yul\":8463:8493   */\n      mstore\n        /* \"#utility.yul\":8529:8563   */\n      0x41424f41543a3a7365744d61696e7461696e65723a204d61696e7461696e6572\n        /* \"#utility.yul\":8509:8527   */\n      0x44\n      dup3\n      add\n        /* \"#utility.yul\":8502:8564   */\n      mstore\n        /* \"#utility.yul\":8600:8634   */\n      0x2063616e277420657175616c2070726576696f7573206d61696e7461696e6572\n        /* \"#utility.yul\":8580:8598   */\n      0x64\n      dup3\n      add\n        /* \"#utility.yul\":8573:8635   */\n      mstore\n      shl(0x80, 0x206f72207a65726f2061646472657373)\n        /* \"#utility.yul\":8651:8670   */\n      0x84\n      dup3\n      add\n        /* \"#utility.yul\":8644:8691   */\n      mstore\n        /* \"#utility.yul\":8708:8727   */\n      0xa4\n      add\n        /* \"contracts/libraries/TimeLock.sol\":3298:3453  require(_newMaintainer != _maintainer && _newMaintainer != address(0), \"ABOAT::setMaintainer: Maintainer can\\'t equal previous maintainer or zero address\") */\n      tag_201\n        /* \"#utility.yul\":8249:8733   */\n      jump\n        /* \"contracts/libraries/TimeLock.sol\":3298:3453  require(_newMaintainer != _maintainer && _newMaintainer != address(0), \"ABOAT::setMaintainer: Maintainer can\\'t equal previous maintainer or zero address\") */\n    tag_218:\n        /* \"contracts/libraries/TimeLock.sol\":3492:3503  _maintainer */\n      0x02\n      dup1\n      sload\n      sub(shl(0xa0, 0x01), 0x01)\n        /* \"contracts/libraries/TimeLock.sol\":3513:3541  _maintainer = _newMaintainer */\n      dup5\n      dup2\n      and\n      not(sub(shl(0xa0, 0x01), 0x01))\n      dup4\n      and\n      dup2\n      or\n      swap1\n      swap4\n      sstore\n        /* \"contracts/libraries/TimeLock.sol\":3556:3610  MaintainerTransferred(previousMaintainer, _maintainer) */\n      mload(0x40)\n        /* \"contracts/libraries/TimeLock.sol\":3492:3503  _maintainer */\n      swap2\n      and\n      swap2\n        /* \"contracts/libraries/TimeLock.sol\":3513:3541  _maintainer = _newMaintainer */\n      swap1\n        /* \"contracts/libraries/TimeLock.sol\":3492:3503  _maintainer */\n      dup3\n      swap1\n        /* \"contracts/libraries/TimeLock.sol\":3556:3610  MaintainerTransferred(previousMaintainer, _maintainer) */\n      0x2f3ffaaaad93928855c8700645d1a3643e6ccfdd500efa9fda048a88f557cf01\n      swap1\n        /* \"contracts/libraries/TimeLock.sol\":3463:3489  address previousMaintainer */\n      0x00\n      swap1\n        /* \"contracts/libraries/TimeLock.sol\":3556:3610  MaintainerTransferred(previousMaintainer, _maintainer) */\n      log3\n        /* \"contracts/libraries/TimeLock.sol\":3288:3617  {... */\n      pop\n        /* \"contracts/libraries/TimeLock.sol\":2164:2181  lockFunction(_fn) */\n      tag_221\n        /* \"contracts/libraries/TimeLock.sol\":2177:2180  _fn */\n      dup2\n        /* \"contracts/libraries/TimeLock.sol\":2164:2176  lockFunction */\n      tag_125\n        /* \"contracts/libraries/TimeLock.sol\":2164:2181  lockFunction(_fn) */\n      jump\t// in\n    tag_221:\n        /* \"contracts/libraries/TimeLock.sol\":2371:2372  _ */\n      pop\n        /* \"contracts/libraries/TimeLock.sol\":3191:3617  function setMaintainer(address _newMaintainer) public onlyMaintainerOrOwner locked(\"maintainer\") {... */\n      pop\n      jump\t// out\n        /* \"contracts/chains/binance/RewardSystem.sol\":4916:5098  function changeThirdPartyFee(uint256 newFee) public onlyOwner locked(\"changeFee\") {\r... */\n    tag_60:\n        /* \"@openzeppelin/contracts/access/Ownable.sol\":1019:1026  address */\n      0x00\n        /* \"@openzeppelin/contracts/access/Ownable.sol\":1045:1051  _owner */\n      sload\n      sub(shl(0xa0, 0x01), 0x01)\n      and\n        /* \"@openzeppelin/contracts/utils/Context.sol\":665:675  msg.sender */\n      caller\n        /* \"@openzeppelin/contracts/access/Ownable.sol\":1185:1208  owner() == _msgSender() */\n      eq\n        /* \"@openzeppelin/contracts/access/Ownable.sol\":1177:1245  require(owner() == _msgSender(), \"Ownable: caller is not the owner\") */\n      tag_226\n      jumpi\n      mload(0x40)\n      shl(0xe5, 0x461bcd)\n      dup2\n      mstore\n      0x04\n      add\n      tag_201\n      swap1\n      tag_228\n      jump\t// in\n    tag_226:\n        /* \"contracts/libraries/TimeLock.sol\":1945:2188  modifier locked(string memory _fn) {... */\n      0x40\n      dup1\n      mload\n      dup1\n      dup3\n      add\n      swap1\n      swap2\n      mstore\n      0x09\n      dup2\n      mstore\n      shl(0xb8, 0x6368616e6765466565)\n      0x20\n      dup3\n      add\n      mstore\n      0x00\n        /* \"contracts/libraries/TimeLock.sol\":1999:2012  isLockEnabled */\n      sload\n      shl(0xa0, 0x01)\n      swap1\n      div\n      0xff\n      and\n        /* \"contracts/libraries/TimeLock.sol\":1998:2012  !isLockEnabled */\n      iszero\n      dup1\n        /* \"contracts/libraries/TimeLock.sol\":1998:2120  !isLockEnabled || (timelock[_fn] != 0 && timelock[_fn] <= block.timestamp && timelock[_fn] + _TIMELOCK >= block.timestamp) */\n      tag_234\n      jumpi\n      pop\n        /* \"contracts/libraries/TimeLock.sol\":2017:2025  timelock */\n      0x01\n        /* \"contracts/libraries/TimeLock.sol\":2026:2029  _fn */\n      dup2\n        /* \"contracts/libraries/TimeLock.sol\":2017:2030  timelock[_fn] */\n      mload(0x40)\n      tag_231\n      swap2\n      swap1\n      tag_478\n      jump\t// in\n    tag_231:\n      swap1\n      dup2\n      mstore\n      0x20\n      add\n      mload(0x40)\n      dup1\n      swap2\n      sub\n      swap1\n      keccak256\n      sload\n        /* \"contracts/libraries/TimeLock.sol\":2034:2035  0 */\n      0x00\n        /* \"contracts/libraries/TimeLock.sol\":2017:2035  timelock[_fn] != 0 */\n      eq\n      iszero\n        /* \"contracts/libraries/TimeLock.sol\":2017:2071  timelock[_fn] != 0 && timelock[_fn] <= block.timestamp */\n      dup1\n      iszero\n      tag_232\n      jumpi\n      pop\n        /* \"contracts/libraries/TimeLock.sol\":2056:2071  block.timestamp */\n      timestamp\n        /* \"contracts/libraries/TimeLock.sol\":2039:2047  timelock */\n      0x01\n        /* \"contracts/libraries/TimeLock.sol\":2048:2051  _fn */\n      dup3\n        /* \"contracts/libraries/TimeLock.sol\":2039:2052  timelock[_fn] */\n      mload(0x40)\n      tag_233\n      swap2\n      swap1\n      tag_478\n      jump\t// in\n    tag_233:\n      swap1\n      dup2\n      mstore\n      0x20\n      add\n      mload(0x40)\n      dup1\n      swap2\n      sub\n      swap1\n      keccak256\n      sload\n        /* \"contracts/libraries/TimeLock.sol\":2039:2071  timelock[_fn] <= block.timestamp */\n      gt\n      iszero\n        /* \"contracts/libraries/TimeLock.sol\":2017:2071  timelock[_fn] != 0 && timelock[_fn] <= block.timestamp */\n    tag_232:\n        /* \"contracts/libraries/TimeLock.sol\":2017:2119  timelock[_fn] != 0 && timelock[_fn] <= block.timestamp && timelock[_fn] + _TIMELOCK >= block.timestamp */\n      dup1\n      iszero\n      tag_234\n      jumpi\n      pop\n        /* \"contracts/libraries/TimeLock.sol\":2104:2119  block.timestamp */\n      timestamp\n        /* \"contracts/libraries/TimeLock.sol\":861:867  1 days */\n      0x015180\n        /* \"contracts/libraries/TimeLock.sol\":2075:2083  timelock */\n      0x01\n        /* \"contracts/libraries/TimeLock.sol\":2084:2087  _fn */\n      dup4\n        /* \"contracts/libraries/TimeLock.sol\":2075:2088  timelock[_fn] */\n      mload(0x40)\n      tag_235\n      swap2\n      swap1\n      tag_478\n      jump\t// in\n    tag_235:\n      swap1\n      dup2\n      mstore\n      0x20\n      add\n      mload(0x40)\n      dup1\n      swap2\n      sub\n      swap1\n      keccak256\n      sload\n        /* \"contracts/libraries/TimeLock.sol\":2075:2100  timelock[_fn] + _TIMELOCK */\n      tag_236\n      swap2\n      swap1\n      tag_212\n      jump\t// in\n    tag_236:\n        /* \"contracts/libraries/TimeLock.sol\":2075:2119  timelock[_fn] + _TIMELOCK >= block.timestamp */\n      lt\n      iszero\n        /* \"contracts/libraries/TimeLock.sol\":2017:2119  timelock[_fn] != 0 && timelock[_fn] <= block.timestamp && timelock[_fn] + _TIMELOCK >= block.timestamp */\n    tag_234:\n        /* \"contracts/libraries/TimeLock.sol\":1990:2143  require(!isLockEnabled || (timelock[_fn] != 0 && timelock[_fn] <= block.timestamp && timelock[_fn] + _TIMELOCK >= block.timestamp), \"Function is locked\") */\n      tag_237\n      jumpi\n      mload(0x40)\n      shl(0xe5, 0x461bcd)\n      dup2\n      mstore\n      0x04\n      add\n      tag_201\n      swap1\n      tag_215\n      jump\t// in\n    tag_237:\n        /* \"contracts/chains/binance/RewardSystem.sol\":5035:5048  thirdPartyFee */\n      sload(0x07)\n        /* \"contracts/chains/binance/RewardSystem.sol\":5014:5057  ChangedThirdPartyFee(thirdPartyFee, newFee) */\n      mload(0x40)\n        /* \"contracts/chains/binance/RewardSystem.sol\":5050:5056  newFee */\n      dup4\n      swap2\n        /* \"contracts/chains/binance/RewardSystem.sol\":5035:5048  thirdPartyFee */\n      swap1\n        /* \"contracts/chains/binance/RewardSystem.sol\":5014:5057  ChangedThirdPartyFee(thirdPartyFee, newFee) */\n      0x247a43c209c4066973ea0643d726236d3bf70967e8dc6d109b75630f351c8904\n      swap1\n      0x00\n      swap1\n      log3\n        /* \"contracts/chains/binance/RewardSystem.sol\":5068:5081  thirdPartyFee */\n      0x07\n        /* \"contracts/chains/binance/RewardSystem.sol\":5068:5090  thirdPartyFee = newFee */\n      dup3\n      swap1\n      sstore\n        /* \"contracts/libraries/TimeLock.sol\":2164:2181  lockFunction(_fn) */\n      tag_221\n        /* \"contracts/libraries/TimeLock.sol\":2177:2180  _fn */\n      dup2\n        /* \"contracts/libraries/TimeLock.sol\":2164:2176  lockFunction */\n      tag_125\n        /* \"contracts/libraries/TimeLock.sol\":2164:2181  lockFunction(_fn) */\n      jump\t// in\n        /* \"contracts/chains/binance/RewardSystem.sol\":9203:9600  function claim() public payable {\r... */\n    tag_74:\n        /* \"contracts/chains/binance/RewardSystem.sol\":9264:9274  msg.sender */\n      caller\n        /* \"contracts/chains/binance/RewardSystem.sol\":9255:9275  _paidFee[msg.sender] */\n      0x00\n      swap1\n      dup2\n      mstore\n        /* \"contracts/chains/binance/RewardSystem.sol\":9255:9263  _paidFee */\n      0x05\n        /* \"contracts/chains/binance/RewardSystem.sol\":9255:9275  _paidFee[msg.sender] */\n      0x20\n      mstore\n      0x40\n      swap1\n      keccak256\n      sload\n      0xff\n      and\n        /* \"contracts/chains/binance/RewardSystem.sol\":9254:9275  !_paidFee[msg.sender] */\n      iszero\n        /* \"contracts/chains/binance/RewardSystem.sol\":9246:9327  require(!_paidFee[msg.sender], \"ABOAT::claim: Already allowed to recieve tokens\") */\n      tag_242\n      jumpi\n      mload(0x40)\n      shl(0xe5, 0x461bcd)\n      dup2\n      mstore\n        /* \"#utility.yul\":6786:6788   */\n      0x20\n        /* \"contracts/chains/binance/RewardSystem.sol\":9246:9327  require(!_paidFee[msg.sender], \"ABOAT::claim: Already allowed to recieve tokens\") */\n      0x04\n      dup3\n      add\n        /* \"#utility.yul\":6768:6789   */\n      mstore\n        /* \"#utility.yul\":6825:6827   */\n      0x2f\n        /* \"#utility.yul\":6805:6823   */\n      0x24\n      dup3\n      add\n        /* \"#utility.yul\":6798:6828   */\n      mstore\n        /* \"#utility.yul\":6864:6898   */\n      0x41424f41543a3a636c61696d3a20416c726561647920616c6c6f77656420746f\n        /* \"#utility.yul\":6844:6862   */\n      0x44\n      dup3\n      add\n        /* \"#utility.yul\":6837:6899   */\n      mstore\n      shl(0x88, 0x207265636965766520746f6b656e73)\n        /* \"#utility.yul\":6915:6933   */\n      0x64\n      dup3\n      add\n        /* \"#utility.yul\":6908:6953   */\n      mstore\n        /* \"#utility.yul\":6970:6989   */\n      0x84\n      add\n        /* \"contracts/chains/binance/RewardSystem.sol\":9246:9327  require(!_paidFee[msg.sender], \"ABOAT::claim: Already allowed to recieve tokens\") */\n      tag_201\n        /* \"#utility.yul\":6584:6995   */\n      jump\n        /* \"contracts/chains/binance/RewardSystem.sol\":9246:9327  require(!_paidFee[msg.sender], \"ABOAT::claim: Already allowed to recieve tokens\") */\n    tag_242:\n        /* \"contracts/chains/binance/RewardSystem.sol\":9359:9367  _gasCost */\n      sload(0x08)\n        /* \"contracts/chains/binance/RewardSystem.sol\":9346:9355  msg.value */\n      callvalue\n        /* \"contracts/chains/binance/RewardSystem.sol\":9346:9367  msg.value >= _gasCost */\n      lt\n      iszero\n        /* \"contracts/chains/binance/RewardSystem.sol\":9338:9451  require(msg.value >= _gasCost, \"ABOAT::claim: Amount of bnb to claim should carry the cost to add the claimable\") */\n      tag_245\n      jumpi\n      mload(0x40)\n      shl(0xe5, 0x461bcd)\n      dup2\n      mstore\n        /* \"#utility.yul\":12370:12372   */\n      0x20\n        /* \"contracts/chains/binance/RewardSystem.sol\":9338:9451  require(msg.value >= _gasCost, \"ABOAT::claim: Amount of bnb to claim should carry the cost to add the claimable\") */\n      0x04\n      dup3\n      add\n        /* \"#utility.yul\":12352:12373   */\n      mstore\n        /* \"#utility.yul\":12409:12411   */\n      0x4f\n        /* \"#utility.yul\":12389:12407   */\n      0x24\n      dup3\n      add\n        /* \"#utility.yul\":12382:12412   */\n      mstore\n        /* \"#utility.yul\":12448:12482   */\n      0x41424f41543a3a636c61696d3a20416d6f756e74206f6620626e6220746f2063\n        /* \"#utility.yul\":12428:12446   */\n      0x44\n      dup3\n      add\n        /* \"#utility.yul\":12421:12483   */\n      mstore\n        /* \"#utility.yul\":12519:12553   */\n      0x6c61696d2073686f756c642063617272792074686520636f737420746f206164\n        /* \"#utility.yul\":12499:12517   */\n      0x64\n      dup3\n      add\n        /* \"#utility.yul\":12492:12554   */\n      mstore\n      shl(0x88, 0x642074686520636c61696d61626c65)\n        /* \"#utility.yul\":12570:12589   */\n      0x84\n      dup3\n      add\n        /* \"#utility.yul\":12563:12609   */\n      mstore\n        /* \"#utility.yul\":12626:12645   */\n      0xa4\n      add\n        /* \"contracts/chains/binance/RewardSystem.sol\":9338:9451  require(msg.value >= _gasCost, \"ABOAT::claim: Amount of bnb to claim should carry the cost to add the claimable\") */\n      tag_201\n        /* \"#utility.yul\":12168:12651   */\n      jump\n        /* \"contracts/chains/binance/RewardSystem.sol\":9338:9451  require(msg.value >= _gasCost, \"ABOAT::claim: Amount of bnb to claim should carry the cost to add the claimable\") */\n    tag_245:\n        /* \"contracts/chains/binance/RewardSystem.sol\":9462:9512  TransferHelper.safeTransferETH(owner(), msg.value) */\n      tag_248\n        /* \"contracts/chains/binance/RewardSystem.sol\":9493:9500  owner() */\n      tag_249\n        /* \"@openzeppelin/contracts/access/Ownable.sol\":1019:1026  address */\n      0x00\n        /* \"@openzeppelin/contracts/access/Ownable.sol\":1045:1051  _owner */\n      sload\n      sub(shl(0xa0, 0x01), 0x01)\n      and\n      swap1\n        /* \"@openzeppelin/contracts/access/Ownable.sol\":973:1058  function owner() public view virtual returns (address) {... */\n      jump\n        /* \"contracts/chains/binance/RewardSystem.sol\":9493:9500  owner() */\n    tag_249:\n        /* \"contracts/chains/binance/RewardSystem.sol\":9502:9511  msg.value */\n      callvalue\n        /* \"contracts/chains/binance/RewardSystem.sol\":9462:9492  TransferHelper.safeTransferETH */\n      tag_250\n        /* \"contracts/chains/binance/RewardSystem.sol\":9462:9512  TransferHelper.safeTransferETH(owner(), msg.value) */\n      jump\t// in\n    tag_248:\n        /* \"contracts/chains/binance/RewardSystem.sol\":9532:9542  msg.sender */\n      caller\n        /* \"contracts/chains/binance/RewardSystem.sol\":9523:9543  _paidFee[msg.sender] */\n      0x00\n      dup2\n      dup2\n      mstore\n        /* \"contracts/chains/binance/RewardSystem.sol\":9523:9531  _paidFee */\n      0x05\n        /* \"contracts/chains/binance/RewardSystem.sol\":9523:9543  _paidFee[msg.sender] */\n      0x20\n      mstore\n      0x40\n      dup1\n      dup3\n      keccak256\n        /* \"contracts/chains/binance/RewardSystem.sol\":9523:9550  _paidFee[msg.sender] = true */\n      dup1\n      sload\n      not(0xff)\n      and\n        /* \"contracts/chains/binance/RewardSystem.sol\":9546:9550  true */\n      0x01\n        /* \"contracts/chains/binance/RewardSystem.sol\":9523:9550  _paidFee[msg.sender] = true */\n      or\n      swap1\n      sstore\n        /* \"contracts/chains/binance/RewardSystem.sol\":9566:9592  EnabledRewards(msg.sender) */\n      mload\n      0x98716c616972f4ef0085deb59c20f6f6a840219c121ad1f3b5413097f3a10357\n      swap2\n        /* \"contracts/chains/binance/RewardSystem.sol\":9523:9543  _paidFee[msg.sender] */\n      swap1\n        /* \"contracts/chains/binance/RewardSystem.sol\":9566:9592  EnabledRewards(msg.sender) */\n      log2\n        /* \"contracts/chains/binance/RewardSystem.sol\":9203:9600  function claim() public payable {\r... */\n      jump\t// out\n        /* \"contracts/chains/binance/RewardSystem.sol\":5106:5282  function changeGasCost(uint256 newGasCost) public onlyOwner locked(\"changeGasCost\") {\r... */\n    tag_82:\n        /* \"@openzeppelin/contracts/access/Ownable.sol\":1019:1026  address */\n      0x00\n        /* \"@openzeppelin/contracts/access/Ownable.sol\":1045:1051  _owner */\n      sload\n      sub(shl(0xa0, 0x01), 0x01)\n      and\n        /* \"@openzeppelin/contracts/utils/Context.sol\":665:675  msg.sender */\n      caller\n        /* \"@openzeppelin/contracts/access/Ownable.sol\":1185:1208  owner() == _msgSender() */\n      eq\n        /* \"@openzeppelin/contracts/access/Ownable.sol\":1177:1245  require(owner() == _msgSender(), \"Ownable: caller is not the owner\") */\n      tag_254\n      jumpi\n      mload(0x40)\n      shl(0xe5, 0x461bcd)\n      dup2\n      mstore\n      0x04\n      add\n      tag_201\n      swap1\n      tag_228\n      jump\t// in\n    tag_254:\n        /* \"contracts/libraries/TimeLock.sol\":1945:2188  modifier locked(string memory _fn) {... */\n      0x40\n      dup1\n      mload\n      dup1\n      dup3\n      add\n      swap1\n      swap2\n      mstore\n      0x0d\n      dup2\n      mstore\n      shl(0x9a, 0x18da185b99d951d85cd0dbdcdd)\n      0x20\n      dup3\n      add\n      mstore\n      0x00\n        /* \"contracts/libraries/TimeLock.sol\":1999:2012  isLockEnabled */\n      sload\n      shl(0xa0, 0x01)\n      swap1\n      div\n      0xff\n      and\n        /* \"contracts/libraries/TimeLock.sol\":1998:2012  !isLockEnabled */\n      iszero\n      dup1\n        /* \"contracts/libraries/TimeLock.sol\":1998:2120  !isLockEnabled || (timelock[_fn] != 0 && timelock[_fn] <= block.timestamp && timelock[_fn] + _TIMELOCK >= block.timestamp) */\n      tag_261\n      jumpi\n      pop\n        /* \"contracts/libraries/TimeLock.sol\":2017:2025  timelock */\n      0x01\n        /* \"contracts/libraries/TimeLock.sol\":2026:2029  _fn */\n      dup2\n        /* \"contracts/libraries/TimeLock.sol\":2017:2030  timelock[_fn] */\n      mload(0x40)\n      tag_258\n      swap2\n      swap1\n      tag_478\n      jump\t// in\n    tag_258:\n      swap1\n      dup2\n      mstore\n      0x20\n      add\n      mload(0x40)\n      dup1\n      swap2\n      sub\n      swap1\n      keccak256\n      sload\n        /* \"contracts/libraries/TimeLock.sol\":2034:2035  0 */\n      0x00\n        /* \"contracts/libraries/TimeLock.sol\":2017:2035  timelock[_fn] != 0 */\n      eq\n      iszero\n        /* \"contracts/libraries/TimeLock.sol\":2017:2071  timelock[_fn] != 0 && timelock[_fn] <= block.timestamp */\n      dup1\n      iszero\n      tag_259\n      jumpi\n      pop\n        /* \"contracts/libraries/TimeLock.sol\":2056:2071  block.timestamp */\n      timestamp\n        /* \"contracts/libraries/TimeLock.sol\":2039:2047  timelock */\n      0x01\n        /* \"contracts/libraries/TimeLock.sol\":2048:2051  _fn */\n      dup3\n        /* \"contracts/libraries/TimeLock.sol\":2039:2052  timelock[_fn] */\n      mload(0x40)\n      tag_260\n      swap2\n      swap1\n      tag_478\n      jump\t// in\n    tag_260:\n      swap1\n      dup2\n      mstore\n      0x20\n      add\n      mload(0x40)\n      dup1\n      swap2\n      sub\n      swap1\n      keccak256\n      sload\n        /* \"contracts/libraries/TimeLock.sol\":2039:2071  timelock[_fn] <= block.timestamp */\n      gt\n      iszero\n        /* \"contracts/libraries/TimeLock.sol\":2017:2071  timelock[_fn] != 0 && timelock[_fn] <= block.timestamp */\n    tag_259:\n        /* \"contracts/libraries/TimeLock.sol\":2017:2119  timelock[_fn] != 0 && timelock[_fn] <= block.timestamp && timelock[_fn] + _TIMELOCK >= block.timestamp */\n      dup1\n      iszero\n      tag_261\n      jumpi\n      pop\n        /* \"contracts/libraries/TimeLock.sol\":2104:2119  block.timestamp */\n      timestamp\n        /* \"contracts/libraries/TimeLock.sol\":861:867  1 days */\n      0x015180\n        /* \"contracts/libraries/TimeLock.sol\":2075:2083  timelock */\n      0x01\n        /* \"contracts/libraries/TimeLock.sol\":2084:2087  _fn */\n      dup4\n        /* \"contracts/libraries/TimeLock.sol\":2075:2088  timelock[_fn] */\n      mload(0x40)\n      tag_262\n      swap2\n      swap1\n      tag_478\n      jump\t// in\n    tag_262:\n      swap1\n      dup2\n      mstore\n      0x20\n      add\n      mload(0x40)\n      dup1\n      swap2\n      sub\n      swap1\n      keccak256\n      sload\n        /* \"contracts/libraries/TimeLock.sol\":2075:2100  timelock[_fn] + _TIMELOCK */\n      tag_263\n      swap2\n      swap1\n      tag_212\n      jump\t// in\n    tag_263:\n        /* \"contracts/libraries/TimeLock.sol\":2075:2119  timelock[_fn] + _TIMELOCK >= block.timestamp */\n      lt\n      iszero\n        /* \"contracts/libraries/TimeLock.sol\":2017:2119  timelock[_fn] != 0 && timelock[_fn] <= block.timestamp && timelock[_fn] + _TIMELOCK >= block.timestamp */\n    tag_261:\n        /* \"contracts/libraries/TimeLock.sol\":1990:2143  require(!isLockEnabled || (timelock[_fn] != 0 && timelock[_fn] <= block.timestamp && timelock[_fn] + _TIMELOCK >= block.timestamp), \"Function is locked\") */\n      tag_264\n      jumpi\n      mload(0x40)\n      shl(0xe5, 0x461bcd)\n      dup2\n      mstore\n      0x04\n      add\n      tag_201\n      swap1\n      tag_215\n      jump\t// in\n    tag_264:\n        /* \"contracts/chains/binance/RewardSystem.sol\":5221:5229  _gasCost */\n      sload(0x08)\n        /* \"contracts/chains/binance/RewardSystem.sol\":5206:5242  ChangedGasCost(_gasCost, newGasCost) */\n      mload(0x40)\n        /* \"contracts/chains/binance/RewardSystem.sol\":5231:5241  newGasCost */\n      dup4\n      swap2\n        /* \"contracts/chains/binance/RewardSystem.sol\":5221:5229  _gasCost */\n      swap1\n        /* \"contracts/chains/binance/RewardSystem.sol\":5206:5242  ChangedGasCost(_gasCost, newGasCost) */\n      0xc3dc19678fd7390a5c1197decfaec52d8a1c63c49f0a51db570f5fe5040c5f73\n      swap1\n      0x00\n      swap1\n      log3\n        /* \"contracts/chains/binance/RewardSystem.sol\":5253:5261  _gasCost */\n      0x08\n        /* \"contracts/chains/binance/RewardSystem.sol\":5253:5274  _gasCost = newGasCost */\n      dup3\n      swap1\n      sstore\n        /* \"contracts/libraries/TimeLock.sol\":2164:2181  lockFunction(_fn) */\n      tag_221\n        /* \"contracts/libraries/TimeLock.sol\":2177:2180  _fn */\n      dup2\n        /* \"contracts/libraries/TimeLock.sol\":2164:2176  lockFunction */\n      tag_125\n        /* \"contracts/libraries/TimeLock.sol\":2164:2181  lockFunction(_fn) */\n      jump\t// in\n        /* \"contracts/chains/binance/RewardSystem.sol\":5977:7547  function sendRewards(uint256 amount, address user, uint256 fee, address token) public onlyOwner {\r... */\n    tag_87:\n        /* \"@openzeppelin/contracts/access/Ownable.sol\":1019:1026  address */\n      0x00\n        /* \"@openzeppelin/contracts/access/Ownable.sol\":1045:1051  _owner */\n      sload\n      sub(shl(0xa0, 0x01), 0x01)\n      and\n        /* \"@openzeppelin/contracts/utils/Context.sol\":665:675  msg.sender */\n      caller\n        /* \"@openzeppelin/contracts/access/Ownable.sol\":1185:1208  owner() == _msgSender() */\n      eq\n        /* \"@openzeppelin/contracts/access/Ownable.sol\":1177:1245  require(owner() == _msgSender(), \"Ownable: caller is not the owner\") */\n      tag_271\n      jumpi\n      mload(0x40)\n      shl(0xe5, 0x461bcd)\n      dup2\n      mstore\n      0x04\n      add\n      tag_201\n      swap1\n      tag_228\n      jump\t// in\n    tag_271:\n        /* \"contracts/chains/binance/RewardSystem.sol\":6100:6107  _router */\n      and(sub(shl(0xa0, 0x01), 0x01), sload(0x0d))\n        /* \"contracts/chains/binance/RewardSystem.sol\":6084:6195  require(address(_router) != address(0), \"ABOAT::sendReward: There is no router defined to swap tokens for eth\") */\n      tag_274\n      jumpi\n      mload(0x40)\n      shl(0xe5, 0x461bcd)\n      dup2\n      mstore\n        /* \"#utility.yul\":10981:10983   */\n      0x20\n        /* \"contracts/chains/binance/RewardSystem.sol\":6084:6195  require(address(_router) != address(0), \"ABOAT::sendReward: There is no router defined to swap tokens for eth\") */\n      0x04\n      dup3\n      add\n        /* \"#utility.yul\":10963:10984   */\n      mstore\n        /* \"#utility.yul\":11020:11022   */\n      0x44\n        /* \"#utility.yul\":11000:11018   */\n      0x24\n      dup3\n      add\n        /* \"#utility.yul\":10993:11023   */\n      dup2\n      swap1\n      mstore\n        /* \"#utility.yul\":11059:11093   */\n      0x41424f41543a3a73656e645265776172643a205468657265206973206e6f2072\n        /* \"#utility.yul\":11039:11057   */\n      swap1\n      dup3\n      add\n        /* \"#utility.yul\":11032:11094   */\n      mstore\n        /* \"#utility.yul\":11130:11164   */\n      0x6f7574657220646566696e656420746f207377617020746f6b656e7320666f72\n        /* \"#utility.yul\":11110:11128   */\n      0x64\n      dup3\n      add\n        /* \"#utility.yul\":11103:11165   */\n      mstore\n      shl(0xe3, 0x040cae8d)\n        /* \"#utility.yul\":11181:11200   */\n      0x84\n      dup3\n      add\n        /* \"#utility.yul\":11174:11209   */\n      mstore\n        /* \"#utility.yul\":11226:11245   */\n      0xa4\n      add\n        /* \"contracts/chains/binance/RewardSystem.sol\":6084:6195  require(address(_router) != address(0), \"ABOAT::sendReward: There is no router defined to swap tokens for eth\") */\n      tag_201\n        /* \"#utility.yul\":10779:11251   */\n      jump\n        /* \"contracts/chains/binance/RewardSystem.sol\":6084:6195  require(address(_router) != address(0), \"ABOAT::sendReward: There is no router defined to swap tokens for eth\") */\n    tag_274:\n        /* \"contracts/chains/binance/RewardSystem.sol\":6224:6241  getBalance(token) */\n      tag_277\n        /* \"contracts/chains/binance/RewardSystem.sol\":6235:6240  token */\n      dup2\n        /* \"contracts/chains/binance/RewardSystem.sol\":6224:6234  getBalance */\n      tag_185\n        /* \"contracts/chains/binance/RewardSystem.sol\":6224:6241  getBalance(token) */\n      jump\t// in\n    tag_277:\n        /* \"contracts/chains/binance/RewardSystem.sol\":6214:6220  amount */\n      dup5\n        /* \"contracts/chains/binance/RewardSystem.sol\":6214:6241  amount <= getBalance(token) */\n      gt\n      iszero\n        /* \"contracts/chains/binance/RewardSystem.sol\":6206:6311  require(amount <= getBalance(token), \"ABOAT::sendReward: Can't send more rewards than in reward system!\") */\n      tag_278\n      jumpi\n      mload(0x40)\n      shl(0xe5, 0x461bcd)\n      dup2\n      mstore\n        /* \"#utility.yul\":7202:7204   */\n      0x20\n        /* \"contracts/chains/binance/RewardSystem.sol\":6206:6311  require(amount <= getBalance(token), \"ABOAT::sendReward: Can't send more rewards than in reward system!\") */\n      0x04\n      dup3\n      add\n        /* \"#utility.yul\":7184:7205   */\n      mstore\n        /* \"#utility.yul\":7241:7243   */\n      0x41\n        /* \"#utility.yul\":7221:7239   */\n      0x24\n      dup3\n      add\n        /* \"#utility.yul\":7214:7244   */\n      mstore\n        /* \"#utility.yul\":7280:7314   */\n      0x41424f41543a3a73656e645265776172643a2043616e27742073656e64206d6f\n        /* \"#utility.yul\":7260:7278   */\n      0x44\n      dup3\n      add\n        /* \"#utility.yul\":7253:7315   */\n      mstore\n        /* \"#utility.yul\":7351:7385   */\n      0x72652072657761726473207468616e20696e207265776172642073797374656d\n        /* \"#utility.yul\":7331:7349   */\n      0x64\n      dup3\n      add\n        /* \"#utility.yul\":7324:7386   */\n      mstore\n      shl(0xf8, 0x21)\n        /* \"#utility.yul\":7402:7421   */\n      0x84\n      dup3\n      add\n        /* \"#utility.yul\":7395:7427   */\n      mstore\n        /* \"#utility.yul\":7444:7463   */\n      0xa4\n      add\n        /* \"contracts/chains/binance/RewardSystem.sol\":6206:6311  require(amount <= getBalance(token), \"ABOAT::sendReward: Can't send more rewards than in reward system!\") */\n      tag_201\n        /* \"#utility.yul\":7000:7469   */\n      jump\n        /* \"contracts/chains/binance/RewardSystem.sol\":6206:6311  require(amount <= getBalance(token), \"ABOAT::sendReward: Can't send more rewards than in reward system!\") */\n    tag_278:\n        /* \"contracts/chains/binance/RewardSystem.sol\":6340:6360  _maxAmountPerReceive */\n      sload(0x0a)\n        /* \"contracts/chains/binance/RewardSystem.sol\":6330:6336  amount */\n      dup5\n        /* \"contracts/chains/binance/RewardSystem.sol\":6330:6360  amount <= _maxAmountPerReceive */\n      gt\n      iszero\n        /* \"contracts/chains/binance/RewardSystem.sol\":6322:6419  require(amount <= _maxAmountPerReceive, \"ABOAT::sendReward: Can't send more rewards than limit!\") */\n      tag_281\n      jumpi\n      mload(0x40)\n      shl(0xe5, 0x461bcd)\n      dup2\n      mstore\n        /* \"#utility.yul\":5942:5944   */\n      0x20\n        /* \"contracts/chains/binance/RewardSystem.sol\":6322:6419  require(amount <= _maxAmountPerReceive, \"ABOAT::sendReward: Can't send more rewards than limit!\") */\n      0x04\n      dup3\n      add\n        /* \"#utility.yul\":5924:5945   */\n      mstore\n        /* \"#utility.yul\":5981:5983   */\n      0x36\n        /* \"#utility.yul\":5961:5979   */\n      0x24\n      dup3\n      add\n        /* \"#utility.yul\":5954:5984   */\n      mstore\n        /* \"#utility.yul\":6020:6054   */\n      0x41424f41543a3a73656e645265776172643a2043616e27742073656e64206d6f\n        /* \"#utility.yul\":6000:6018   */\n      0x44\n      dup3\n      add\n        /* \"#utility.yul\":5993:6055   */\n      mstore\n      shl(0x50, 0x72652072657761726473207468616e206c696d697421)\n        /* \"#utility.yul\":6071:6089   */\n      0x64\n      dup3\n      add\n        /* \"#utility.yul\":6064:6116   */\n      mstore\n        /* \"#utility.yul\":6133:6152   */\n      0x84\n      add\n        /* \"contracts/chains/binance/RewardSystem.sol\":6322:6419  require(amount <= _maxAmountPerReceive, \"ABOAT::sendReward: Can't send more rewards than limit!\") */\n      tag_201\n        /* \"#utility.yul\":5740:6158   */\n      jump\n        /* \"contracts/chains/binance/RewardSystem.sol\":6322:6419  require(amount <= _maxAmountPerReceive, \"ABOAT::sendReward: Can't send more rewards than limit!\") */\n    tag_281:\n        /* \"contracts/chains/binance/RewardSystem.sol\":6438:6459  canClaim(user, token) */\n      tag_284\n        /* \"contracts/chains/binance/RewardSystem.sol\":6447:6451  user */\n      dup4\n        /* \"contracts/chains/binance/RewardSystem.sol\":6453:6458  token */\n      dup3\n        /* \"contracts/chains/binance/RewardSystem.sol\":6438:6446  canClaim */\n      tag_141\n        /* \"contracts/chains/binance/RewardSystem.sol\":6438:6459  canClaim(user, token) */\n      jump\t// in\n    tag_284:\n        /* \"contracts/chains/binance/RewardSystem.sol\":6430:6517  require(canClaim(user, token), \"ABOAT::sendReward: Can't claim more than once per day\") */\n      tag_285\n      jumpi\n      mload(0x40)\n      shl(0xe5, 0x461bcd)\n      dup2\n      mstore\n        /* \"#utility.yul\":13272:13274   */\n      0x20\n        /* \"contracts/chains/binance/RewardSystem.sol\":6430:6517  require(canClaim(user, token), \"ABOAT::sendReward: Can't claim more than once per day\") */\n      0x04\n      dup3\n      add\n        /* \"#utility.yul\":13254:13275   */\n      mstore\n        /* \"#utility.yul\":13311:13313   */\n      0x35\n        /* \"#utility.yul\":13291:13309   */\n      0x24\n      dup3\n      add\n        /* \"#utility.yul\":13284:13314   */\n      mstore\n        /* \"#utility.yul\":13350:13384   */\n      0x41424f41543a3a73656e645265776172643a2043616e277420636c61696d206d\n        /* \"#utility.yul\":13330:13348   */\n      0x44\n      dup3\n      add\n        /* \"#utility.yul\":13323:13385   */\n      mstore\n      shl(0x58, 0x6f7265207468616e206f6e63652070657220646179)\n        /* \"#utility.yul\":13401:13419   */\n      0x64\n      dup3\n      add\n        /* \"#utility.yul\":13394:13445   */\n      mstore\n        /* \"#utility.yul\":13462:13481   */\n      0x84\n      add\n        /* \"contracts/chains/binance/RewardSystem.sol\":6430:6517  require(canClaim(user, token), \"ABOAT::sendReward: Can't claim more than once per day\") */\n      tag_201\n        /* \"#utility.yul\":13070:13487   */\n      jump\n        /* \"contracts/chains/binance/RewardSystem.sol\":6430:6517  require(canClaim(user, token), \"ABOAT::sendReward: Can't claim more than once per day\") */\n    tag_285:\n      sub(shl(0xa0, 0x01), 0x01)\n        /* \"contracts/chains/binance/RewardSystem.sol\":6528:6545  _claimTimes[user] */\n      dup1\n      dup5\n      and\n      0x00\n      swap1\n      dup2\n      mstore\n        /* \"contracts/chains/binance/RewardSystem.sol\":6528:6539  _claimTimes */\n      0x04\n        /* \"contracts/chains/binance/RewardSystem.sol\":6528:6545  _claimTimes[user] */\n      0x20\n      swap1\n      dup2\n      mstore\n      0x40\n      dup1\n      dup4\n      keccak256\n        /* \"contracts/chains/binance/RewardSystem.sol\":6528:6552  _claimTimes[user][token] */\n      dup6\n      dup6\n      and\n      dup1\n      dup6\n      mstore\n      swap3\n      mstore\n      swap1\n      swap2\n      keccak256\n        /* \"contracts/chains/binance/RewardSystem.sol\":6555:6570  block.timestamp */\n      timestamp\n        /* \"contracts/chains/binance/RewardSystem.sol\":6528:6570  _claimTimes[user][token] = block.timestamp */\n      swap1\n      sstore\n        /* \"contracts/chains/binance/RewardSystem.sol\":6592:6604  _rewardToken */\n      sload(0x09)\n      swap1\n      swap2\n      and\n        /* \"contracts/chains/binance/RewardSystem.sol\":6584:6614  address(_rewardToken) != token */\n      eq\n        /* \"contracts/chains/binance/RewardSystem.sol\":6581:7492  if(address(_rewardToken) != token) {\r... */\n      tag_288\n      jumpi\n        /* \"contracts/chains/binance/RewardSystem.sol\":6631:6648  uint256 feeAmount */\n      0x00\n        /* \"contracts/chains/binance/RewardSystem.sol\":6651:6685  amount.mul(thirdPartyFee).div(100) */\n      tag_289\n        /* \"contracts/chains/binance/RewardSystem.sol\":6681:6684  100 */\n      0x64\n        /* \"contracts/chains/binance/RewardSystem.sol\":6651:6676  amount.mul(thirdPartyFee) */\n      tag_290\n        /* \"contracts/chains/binance/RewardSystem.sol\":6662:6675  thirdPartyFee */\n      sload(0x07)\n        /* \"contracts/chains/binance/RewardSystem.sol\":6651:6657  amount */\n      dup9\n        /* \"contracts/chains/binance/RewardSystem.sol\":6651:6661  amount.mul */\n      tag_291\n      swap1\n        /* \"contracts/chains/binance/RewardSystem.sol\":6651:6676  amount.mul(thirdPartyFee) */\n      swap2\n      swap1\n      0xffffffff\n      and\n      jump\t// in\n    tag_290:\n        /* \"contracts/chains/binance/RewardSystem.sol\":6651:6680  amount.mul(thirdPartyFee).div */\n      swap1\n      tag_292\n        /* \"contracts/chains/binance/RewardSystem.sol\":6651:6685  amount.mul(thirdPartyFee).div(100) */\n      jump\t// in\n    tag_289:\n        /* \"contracts/chains/binance/RewardSystem.sol\":6631:6685  uint256 feeAmount = amount.mul(thirdPartyFee).div(100) */\n      swap1\n      pop\n        /* \"contracts/chains/binance/RewardSystem.sol\":6700:6718  uint256 userAmount */\n      0x00\n        /* \"contracts/chains/binance/RewardSystem.sol\":6721:6742  amount.sub(feeAmount) */\n      tag_293\n        /* \"contracts/chains/binance/RewardSystem.sol\":6721:6727  amount */\n      dup7\n        /* \"contracts/chains/binance/RewardSystem.sol\":6631:6685  uint256 feeAmount = amount.mul(thirdPartyFee).div(100) */\n      dup4\n        /* \"contracts/chains/binance/RewardSystem.sol\":6721:6731  amount.sub */\n      tag_294\n        /* \"contracts/chains/binance/RewardSystem.sol\":6721:6742  amount.sub(feeAmount) */\n      jump\t// in\n    tag_293:\n        /* \"contracts/chains/binance/RewardSystem.sol\":6700:6742  uint256 userAmount = amount.sub(feeAmount) */\n      swap1\n      pop\n      sub(shl(0xa0, 0x01), 0x01)\n        /* \"contracts/chains/binance/RewardSystem.sol\":6760:6779  token == address(0) */\n      dup4\n      and\n        /* \"contracts/chains/binance/RewardSystem.sol\":6757:7099  if(token == address(0)) {\r... */\n      tag_295\n      jumpi\n        /* \"contracts/chains/binance/RewardSystem.sol\":6800:6850  TransferHelper.safeTransferETH(owner(), feeAmount) */\n      tag_296\n        /* \"contracts/chains/binance/RewardSystem.sol\":6831:6838  owner() */\n      tag_297\n        /* \"@openzeppelin/contracts/access/Ownable.sol\":1019:1026  address */\n      0x00\n        /* \"@openzeppelin/contracts/access/Ownable.sol\":1045:1051  _owner */\n      sload\n      sub(shl(0xa0, 0x01), 0x01)\n      and\n      swap1\n        /* \"@openzeppelin/contracts/access/Ownable.sol\":973:1058  function owner() public view virtual returns (address) {... */\n      jump\n        /* \"contracts/chains/binance/RewardSystem.sol\":6831:6838  owner() */\n    tag_297:\n        /* \"contracts/chains/binance/RewardSystem.sol\":6840:6849  feeAmount */\n      dup4\n        /* \"contracts/chains/binance/RewardSystem.sol\":6800:6830  TransferHelper.safeTransferETH */\n      tag_250\n        /* \"contracts/chains/binance/RewardSystem.sol\":6800:6850  TransferHelper.safeTransferETH(owner(), feeAmount) */\n      jump\t// in\n    tag_296:\n        /* \"contracts/chains/binance/RewardSystem.sol\":6869:6917  TransferHelper.safeTransferETH(user, userAmount) */\n      tag_298\n        /* \"contracts/chains/binance/RewardSystem.sol\":6900:6904  user */\n      dup6\n        /* \"contracts/chains/binance/RewardSystem.sol\":6906:6916  userAmount */\n      dup3\n        /* \"contracts/chains/binance/RewardSystem.sol\":6869:6899  TransferHelper.safeTransferETH */\n      tag_250\n        /* \"contracts/chains/binance/RewardSystem.sol\":6869:6917  TransferHelper.safeTransferETH(user, userAmount) */\n      jump\t// in\n    tag_298:\n        /* \"contracts/chains/binance/RewardSystem.sol\":6757:7099  if(token == address(0)) {\r... */\n      jump(tag_303)\n    tag_295:\n        /* \"contracts/chains/binance/RewardSystem.sol\":6958:7012  TransferHelper.safeTransfer(token, owner(), feeAmount) */\n      tag_300\n        /* \"contracts/chains/binance/RewardSystem.sol\":6986:6991  token */\n      dup4\n        /* \"contracts/chains/binance/RewardSystem.sol\":6993:7000  owner() */\n      tag_301\n        /* \"@openzeppelin/contracts/access/Ownable.sol\":1019:1026  address */\n      0x00\n        /* \"@openzeppelin/contracts/access/Ownable.sol\":1045:1051  _owner */\n      sload\n      sub(shl(0xa0, 0x01), 0x01)\n      and\n      swap1\n        /* \"@openzeppelin/contracts/access/Ownable.sol\":973:1058  function owner() public view virtual returns (address) {... */\n      jump\n        /* \"contracts/chains/binance/RewardSystem.sol\":6993:7000  owner() */\n    tag_301:\n        /* \"contracts/chains/binance/RewardSystem.sol\":7002:7011  feeAmount */\n      dup5\n        /* \"contracts/chains/binance/RewardSystem.sol\":6958:6985  TransferHelper.safeTransfer */\n      tag_302\n        /* \"contracts/chains/binance/RewardSystem.sol\":6958:7012  TransferHelper.safeTransfer(token, owner(), feeAmount) */\n      jump\t// in\n    tag_300:\n        /* \"contracts/chains/binance/RewardSystem.sol\":7031:7083  TransferHelper.safeTransfer(token, user, userAmount) */\n      tag_303\n        /* \"contracts/chains/binance/RewardSystem.sol\":7059:7064  token */\n      dup4\n        /* \"contracts/chains/binance/RewardSystem.sol\":7066:7070  user */\n      dup7\n        /* \"contracts/chains/binance/RewardSystem.sol\":7072:7082  userAmount */\n      dup4\n        /* \"contracts/chains/binance/RewardSystem.sol\":7031:7058  TransferHelper.safeTransfer */\n      tag_302\n        /* \"contracts/chains/binance/RewardSystem.sol\":7031:7083  TransferHelper.safeTransfer(token, user, userAmount) */\n      jump\t// in\n    tag_303:\n        /* \"contracts/chains/binance/RewardSystem.sol\":6616:7110  {\r... */\n      pop\n      pop\n        /* \"contracts/chains/binance/RewardSystem.sol\":6581:7492  if(address(_rewardToken) != token) {\r... */\n      jump(tag_304)\n    tag_288:\n        /* \"contracts/chains/binance/RewardSystem.sol\":7148:7151  fee */\n      dup2\n        /* \"contracts/chains/binance/RewardSystem.sol\":7139:7145  amount */\n      dup5\n        /* \"contracts/chains/binance/RewardSystem.sol\":7139:7151  amount > fee */\n      gt\n        /* \"contracts/chains/binance/RewardSystem.sol\":7131:7173  require(amount > fee, \"ABOAT::sendReward\") */\n      tag_305\n      jumpi\n      mload(0x40)\n      shl(0xe5, 0x461bcd)\n      dup2\n      mstore\n        /* \"#utility.yul\":7676:7678   */\n      0x20\n        /* \"contracts/chains/binance/RewardSystem.sol\":7131:7173  require(amount > fee, \"ABOAT::sendReward\") */\n      0x04\n      dup3\n      add\n        /* \"#utility.yul\":7658:7679   */\n      mstore\n        /* \"#utility.yul\":7715:7717   */\n      0x11\n        /* \"#utility.yul\":7695:7713   */\n      0x24\n      dup3\n      add\n        /* \"#utility.yul\":7688:7718   */\n      mstore\n      shl(0x7a, 0x105093d0550e8e9cd95b9914995dd85c99)\n        /* \"#utility.yul\":7734:7752   */\n      0x44\n      dup3\n      add\n        /* \"#utility.yul\":7727:7774   */\n      mstore\n        /* \"#utility.yul\":7791:7809   */\n      0x64\n      add\n        /* \"contracts/chains/binance/RewardSystem.sol\":7131:7173  require(amount > fee, \"ABOAT::sendReward\") */\n      tag_201\n        /* \"#utility.yul\":7474:7815   */\n      jump\n        /* \"contracts/chains/binance/RewardSystem.sol\":7131:7173  require(amount > fee, \"ABOAT::sendReward\") */\n    tag_305:\n        /* \"contracts/chains/binance/RewardSystem.sol\":7197:7212  amount.sub(fee) */\n      tag_308\n        /* \"contracts/chains/binance/RewardSystem.sol\":7197:7203  amount */\n      dup5\n        /* \"contracts/chains/binance/RewardSystem.sol\":7208:7211  fee */\n      dup4\n        /* \"contracts/chains/binance/RewardSystem.sol\":7197:7207  amount.sub */\n      tag_294\n        /* \"contracts/chains/binance/RewardSystem.sol\":7197:7212  amount.sub(fee) */\n      jump\t// in\n    tag_308:\n        /* \"contracts/chains/binance/RewardSystem.sol\":7188:7212  amount = amount.sub(fee) */\n      swap4\n      pop\n        /* \"contracts/chains/binance/RewardSystem.sol\":7245:7266  address(this).balance */\n      selfbalance\n        /* \"contracts/chains/binance/RewardSystem.sol\":7281:7302  swapTokensForEth(fee) */\n      tag_309\n        /* \"contracts/chains/binance/RewardSystem.sol\":7298:7301  fee */\n      dup4\n        /* \"contracts/chains/binance/RewardSystem.sol\":7281:7297  swapTokensForEth */\n      tag_310\n        /* \"contracts/chains/binance/RewardSystem.sol\":7281:7302  swapTokensForEth(fee) */\n      jump\t// in\n    tag_309:\n        /* \"contracts/chains/binance/RewardSystem.sol\":7317:7401  TransferHelper.safeTransferETH(address(owner()), address(this).balance.sub(userEth)) */\n      tag_311\n        /* \"contracts/chains/binance/RewardSystem.sol\":7356:7363  owner() */\n      tag_312\n        /* \"@openzeppelin/contracts/access/Ownable.sol\":1019:1026  address */\n      0x00\n        /* \"@openzeppelin/contracts/access/Ownable.sol\":1045:1051  _owner */\n      sload\n      sub(shl(0xa0, 0x01), 0x01)\n      and\n      swap1\n        /* \"@openzeppelin/contracts/access/Ownable.sol\":973:1058  function owner() public view virtual returns (address) {... */\n      jump\n        /* \"contracts/chains/binance/RewardSystem.sol\":7356:7363  owner() */\n    tag_312:\n        /* \"contracts/chains/binance/RewardSystem.sol\":7366:7400  address(this).balance.sub(userEth) */\n      tag_313\n        /* \"contracts/chains/binance/RewardSystem.sol\":7366:7387  address(this).balance */\n      selfbalance\n        /* \"contracts/chains/binance/RewardSystem.sol\":7392:7399  userEth */\n      dup5\n        /* \"contracts/chains/binance/RewardSystem.sol\":7366:7391  address(this).balance.sub */\n      tag_294\n        /* \"contracts/chains/binance/RewardSystem.sol\":7366:7400  address(this).balance.sub(userEth) */\n      jump\t// in\n    tag_313:\n        /* \"contracts/chains/binance/RewardSystem.sol\":7317:7347  TransferHelper.safeTransferETH */\n      tag_250\n        /* \"contracts/chains/binance/RewardSystem.sol\":7317:7401  TransferHelper.safeTransferETH(address(owner()), address(this).balance.sub(userEth)) */\n      jump\t// in\n    tag_311:\n        /* \"contracts/chains/binance/RewardSystem.sol\":7452:7464  _rewardToken */\n      sload(0x09)\n        /* \"contracts/chains/binance/RewardSystem.sol\":7416:7480  TransferHelper.safeTransfer(address(_rewardToken), user, amount) */\n      tag_314\n      swap1\n      sub(shl(0xa0, 0x01), 0x01)\n        /* \"contracts/chains/binance/RewardSystem.sol\":7452:7464  _rewardToken */\n      and\n        /* \"contracts/chains/binance/RewardSystem.sol\":7467:7471  user */\n      dup6\n        /* \"contracts/chains/binance/RewardSystem.sol\":7473:7479  amount */\n      dup8\n        /* \"contracts/chains/binance/RewardSystem.sol\":7416:7443  TransferHelper.safeTransfer */\n      tag_302\n        /* \"contracts/chains/binance/RewardSystem.sol\":7416:7480  TransferHelper.safeTransfer(address(_rewardToken), user, amount) */\n      jump\t// in\n    tag_314:\n        /* \"contracts/chains/binance/RewardSystem.sol\":7116:7492  {\r... */\n      pop\n        /* \"contracts/chains/binance/RewardSystem.sol\":6581:7492  if(address(_rewardToken) != token) {\r... */\n    tag_304:\n        /* \"contracts/chains/binance/RewardSystem.sol\":7533:7538  token */\n      dup1\n      sub(shl(0xa0, 0x01), 0x01)\n        /* \"contracts/chains/binance/RewardSystem.sol\":7507:7539  SentRewards(user, amount, token) */\n      and\n        /* \"contracts/chains/binance/RewardSystem.sol\":7525:7531  amount */\n      dup5\n        /* \"contracts/chains/binance/RewardSystem.sol\":7519:7523  user */\n      dup5\n      sub(shl(0xa0, 0x01), 0x01)\n        /* \"contracts/chains/binance/RewardSystem.sol\":7507:7539  SentRewards(user, amount, token) */\n      and\n      0xd8b141f2ea758469013a6478e6e9477d3a7a8527f7ec1f2e045ae15794fc3905\n      mload(0x40)\n      mload(0x40)\n      dup1\n      swap2\n      sub\n      swap1\n      log4\n        /* \"contracts/chains/binance/RewardSystem.sol\":5977:7547  function sendRewards(uint256 amount, address user, uint256 fee, address token) public onlyOwner {\r... */\n      pop\n      pop\n      pop\n      pop\n      jump\t// out\n        /* \"contracts/chains/binance/RewardSystem.sol\":4746:4908  function changeFee(uint256 newFee) public onlyOwner locked(\"changeFee\") {\r... */\n    tag_91:\n        /* \"@openzeppelin/contracts/access/Ownable.sol\":1019:1026  address */\n      0x00\n        /* \"@openzeppelin/contracts/access/Ownable.sol\":1045:1051  _owner */\n      sload\n      sub(shl(0xa0, 0x01), 0x01)\n      and\n        /* \"@openzeppelin/contracts/utils/Context.sol\":665:675  msg.sender */\n      caller\n        /* \"@openzeppelin/contracts/access/Ownable.sol\":1185:1208  owner() == _msgSender() */\n      eq\n        /* \"@openzeppelin/contracts/access/Ownable.sol\":1177:1245  require(owner() == _msgSender(), \"Ownable: caller is not the owner\") */\n      tag_318\n      jumpi\n      mload(0x40)\n      shl(0xe5, 0x461bcd)\n      dup2\n      mstore\n      0x04\n      add\n      tag_201\n      swap1\n      tag_228\n      jump\t// in\n    tag_318:\n        /* \"contracts/libraries/TimeLock.sol\":1945:2188  modifier locked(string memory _fn) {... */\n      0x40\n      dup1\n      mload\n      dup1\n      dup3\n      add\n      swap1\n      swap2\n      mstore\n      0x09\n      dup2\n      mstore\n      shl(0xb8, 0x6368616e6765466565)\n      0x20\n      dup3\n      add\n      mstore\n      0x00\n        /* \"contracts/libraries/TimeLock.sol\":1999:2012  isLockEnabled */\n      sload\n      shl(0xa0, 0x01)\n      swap1\n      div\n      0xff\n      and\n        /* \"contracts/libraries/TimeLock.sol\":1998:2012  !isLockEnabled */\n      iszero\n      dup1\n        /* \"contracts/libraries/TimeLock.sol\":1998:2120  !isLockEnabled || (timelock[_fn] != 0 && timelock[_fn] <= block.timestamp && timelock[_fn] + _TIMELOCK >= block.timestamp) */\n      tag_325\n      jumpi\n      pop\n        /* \"contracts/libraries/TimeLock.sol\":2017:2025  timelock */\n      0x01\n        /* \"contracts/libraries/TimeLock.sol\":2026:2029  _fn */\n      dup2\n        /* \"contracts/libraries/TimeLock.sol\":2017:2030  timelock[_fn] */\n      mload(0x40)\n      tag_322\n      swap2\n      swap1\n      tag_478\n      jump\t// in\n    tag_322:\n      swap1\n      dup2\n      mstore\n      0x20\n      add\n      mload(0x40)\n      dup1\n      swap2\n      sub\n      swap1\n      keccak256\n      sload\n        /* \"contracts/libraries/TimeLock.sol\":2034:2035  0 */\n      0x00\n        /* \"contracts/libraries/TimeLock.sol\":2017:2035  timelock[_fn] != 0 */\n      eq\n      iszero\n        /* \"contracts/libraries/TimeLock.sol\":2017:2071  timelock[_fn] != 0 && timelock[_fn] <= block.timestamp */\n      dup1\n      iszero\n      tag_323\n      jumpi\n      pop\n        /* \"contracts/libraries/TimeLock.sol\":2056:2071  block.timestamp */\n      timestamp\n        /* \"contracts/libraries/TimeLock.sol\":2039:2047  timelock */\n      0x01\n        /* \"contracts/libraries/TimeLock.sol\":2048:2051  _fn */\n      dup3\n        /* \"contracts/libraries/TimeLock.sol\":2039:2052  timelock[_fn] */\n      mload(0x40)\n      tag_324\n      swap2\n      swap1\n      tag_478\n      jump\t// in\n    tag_324:\n      swap1\n      dup2\n      mstore\n      0x20\n      add\n      mload(0x40)\n      dup1\n      swap2\n      sub\n      swap1\n      keccak256\n      sload\n        /* \"contracts/libraries/TimeLock.sol\":2039:2071  timelock[_fn] <= block.timestamp */\n      gt\n      iszero\n        /* \"contracts/libraries/TimeLock.sol\":2017:2071  timelock[_fn] != 0 && timelock[_fn] <= block.timestamp */\n    tag_323:\n        /* \"contracts/libraries/TimeLock.sol\":2017:2119  timelock[_fn] != 0 && timelock[_fn] <= block.timestamp && timelock[_fn] + _TIMELOCK >= block.timestamp */\n      dup1\n      iszero\n      tag_325\n      jumpi\n      pop\n        /* \"contracts/libraries/TimeLock.sol\":2104:2119  block.timestamp */\n      timestamp\n        /* \"contracts/libraries/TimeLock.sol\":861:867  1 days */\n      0x015180\n        /* \"contracts/libraries/TimeLock.sol\":2075:2083  timelock */\n      0x01\n        /* \"contracts/libraries/TimeLock.sol\":2084:2087  _fn */\n      dup4\n        /* \"contracts/libraries/TimeLock.sol\":2075:2088  timelock[_fn] */\n      mload(0x40)\n      tag_326\n      swap2\n      swap1\n      tag_478\n      jump\t// in\n    tag_326:\n      swap1\n      dup2\n      mstore\n      0x20\n      add\n      mload(0x40)\n      dup1\n      swap2\n      sub\n      swap1\n      keccak256\n      sload\n        /* \"contracts/libraries/TimeLock.sol\":2075:2100  timelock[_fn] + _TIMELOCK */\n      tag_327\n      swap2\n      swap1\n      tag_212\n      jump\t// in\n    tag_327:\n        /* \"contracts/libraries/TimeLock.sol\":2075:2119  timelock[_fn] + _TIMELOCK >= block.timestamp */\n      lt\n      iszero\n        /* \"contracts/libraries/TimeLock.sol\":2017:2119  timelock[_fn] != 0 && timelock[_fn] <= block.timestamp && timelock[_fn] + _TIMELOCK >= block.timestamp */\n    tag_325:\n        /* \"contracts/libraries/TimeLock.sol\":1990:2143  require(!isLockEnabled || (timelock[_fn] != 0 && timelock[_fn] <= block.timestamp && timelock[_fn] + _TIMELOCK >= block.timestamp), \"Function is locked\") */\n      tag_328\n      jumpi\n      mload(0x40)\n      shl(0xe5, 0x461bcd)\n      dup2\n      mstore\n      0x04\n      add\n      tag_201\n      swap1\n      tag_215\n      jump\t// in\n    tag_328:\n        /* \"contracts/chains/binance/RewardSystem.sol\":4845:4858  nativeSwapFee */\n      sload(0x06)\n        /* \"contracts/chains/binance/RewardSystem.sol\":4834:4867  ChangedFee(nativeSwapFee, newFee) */\n      mload(0x40)\n        /* \"contracts/chains/binance/RewardSystem.sol\":4860:4866  newFee */\n      dup4\n      swap2\n        /* \"contracts/chains/binance/RewardSystem.sol\":4845:4858  nativeSwapFee */\n      swap1\n        /* \"contracts/chains/binance/RewardSystem.sol\":4834:4867  ChangedFee(nativeSwapFee, newFee) */\n      0xce8c8159f011d886721740f77c2d26c91b08ac01bd1d03bd132a9942661cb149\n      swap1\n      0x00\n      swap1\n      log3\n        /* \"contracts/chains/binance/RewardSystem.sol\":4878:4891  nativeSwapFee */\n      0x06\n        /* \"contracts/chains/binance/RewardSystem.sol\":4878:4900  nativeSwapFee = newFee */\n      dup3\n      swap1\n      sstore\n        /* \"contracts/libraries/TimeLock.sol\":2164:2181  lockFunction(_fn) */\n      tag_221\n        /* \"contracts/libraries/TimeLock.sol\":2177:2180  _fn */\n      dup2\n        /* \"contracts/libraries/TimeLock.sol\":2164:2176  lockFunction */\n      tag_125\n        /* \"contracts/libraries/TimeLock.sol\":2164:2181  lockFunction(_fn) */\n      jump\t// in\n        /* \"contracts/chains/binance/RewardSystem.sol\":5290:5641  function emergencyWithdraw(address token) public onlyOwner {\r... */\n    tag_95:\n        /* \"@openzeppelin/contracts/access/Ownable.sol\":1019:1026  address */\n      0x00\n        /* \"@openzeppelin/contracts/access/Ownable.sol\":1045:1051  _owner */\n      sload\n      sub(shl(0xa0, 0x01), 0x01)\n      and\n        /* \"@openzeppelin/contracts/utils/Context.sol\":665:675  msg.sender */\n      caller\n        /* \"@openzeppelin/contracts/access/Ownable.sol\":1185:1208  owner() == _msgSender() */\n      eq\n        /* \"@openzeppelin/contracts/access/Ownable.sol\":1177:1245  require(owner() == _msgSender(), \"Ownable: caller is not the owner\") */\n      tag_335\n      jumpi\n      mload(0x40)\n      shl(0xe5, 0x461bcd)\n      dup2\n      mstore\n      0x04\n      add\n      tag_201\n      swap1\n      tag_228\n      jump\t// in\n    tag_335:\n        /* \"contracts/chains/binance/RewardSystem.sol\":5360:5422  TransferHelper.safeTransfer(token, owner(), getBalance(token)) */\n      tag_338\n        /* \"contracts/chains/binance/RewardSystem.sol\":5388:5393  token */\n      dup2\n        /* \"contracts/chains/binance/RewardSystem.sol\":5395:5402  owner() */\n      tag_339\n        /* \"@openzeppelin/contracts/access/Ownable.sol\":1019:1026  address */\n      0x00\n        /* \"@openzeppelin/contracts/access/Ownable.sol\":1045:1051  _owner */\n      sload\n      sub(shl(0xa0, 0x01), 0x01)\n      and\n      swap1\n        /* \"@openzeppelin/contracts/access/Ownable.sol\":973:1058  function owner() public view virtual returns (address) {... */\n      jump\n        /* \"contracts/chains/binance/RewardSystem.sol\":5395:5402  owner() */\n    tag_339:\n        /* \"contracts/chains/binance/RewardSystem.sol\":5404:5421  getBalance(token) */\n      tag_340\n        /* \"contracts/chains/binance/RewardSystem.sol\":5415:5420  token */\n      dup5\n        /* \"contracts/chains/binance/RewardSystem.sol\":5404:5414  getBalance */\n      tag_185\n        /* \"contracts/chains/binance/RewardSystem.sol\":5404:5421  getBalance(token) */\n      jump\t// in\n    tag_340:\n        /* \"contracts/chains/binance/RewardSystem.sol\":5360:5387  TransferHelper.safeTransfer */\n      tag_302\n        /* \"contracts/chains/binance/RewardSystem.sol\":5360:5422  TransferHelper.safeTransfer(token, owner(), getBalance(token)) */\n      jump\t// in\n    tag_338:\n        /* \"contracts/chains/binance/RewardSystem.sol\":5454:5475  address(this).balance */\n      selfbalance\n        /* \"contracts/chains/binance/RewardSystem.sol\":5489:5503  ethBalance > 0 */\n      dup1\n      iszero\n        /* \"contracts/chains/binance/RewardSystem.sol\":5486:5592  if(ethBalance > 0) {\r... */\n      tag_342\n      jumpi\n        /* \"contracts/chains/binance/RewardSystem.sol\":5520:5580  TransferHelper.safeTransferETH(address(owner()), ethBalance) */\n      tag_342\n        /* \"contracts/chains/binance/RewardSystem.sol\":5559:5566  owner() */\n      tag_343\n        /* \"@openzeppelin/contracts/access/Ownable.sol\":1019:1026  address */\n      0x00\n        /* \"@openzeppelin/contracts/access/Ownable.sol\":1045:1051  _owner */\n      sload\n      sub(shl(0xa0, 0x01), 0x01)\n      and\n      swap1\n        /* \"@openzeppelin/contracts/access/Ownable.sol\":973:1058  function owner() public view virtual returns (address) {... */\n      jump\n        /* \"contracts/chains/binance/RewardSystem.sol\":5559:5566  owner() */\n    tag_343:\n        /* \"contracts/chains/binance/RewardSystem.sol\":5569:5579  ethBalance */\n      dup3\n        /* \"contracts/chains/binance/RewardSystem.sol\":5520:5550  TransferHelper.safeTransferETH */\n      tag_250\n        /* \"contracts/chains/binance/RewardSystem.sol\":5520:5580  TransferHelper.safeTransferETH(address(owner()), ethBalance) */\n      jump\t// in\n    tag_342:\n        /* \"@openzeppelin/contracts/access/Ownable.sol\":1019:1026  address */\n      0x00\n        /* \"@openzeppelin/contracts/access/Ownable.sol\":1045:1051  _owner */\n      dup1\n      sload\n        /* \"contracts/chains/binance/RewardSystem.sol\":5607:5633  EmergencyWithdraw(owner()) */\n      mload(0x40)\n      sub(shl(0xa0, 0x01), 0x01)\n        /* \"@openzeppelin/contracts/access/Ownable.sol\":1045:1051  _owner */\n      swap1\n      swap2\n      and\n      swap2\n        /* \"contracts/chains/binance/RewardSystem.sol\":5607:5633  EmergencyWithdraw(owner()) */\n      0x5e7b34819cd91b239220bec92fcfd3c10da2214ba13e4e2b1f6c9cfdbd68a9a2\n      swap2\n      log2\n        /* \"contracts/chains/binance/RewardSystem.sol\":5349:5641  {\r... */\n      pop\n        /* \"contracts/chains/binance/RewardSystem.sol\":5290:5641  function emergencyWithdraw(address token) public onlyOwner {\r... */\n      pop\n      jump\t// out\n        /* \"@openzeppelin/contracts/access/Ownable.sol\":1605:1697  function renounceOwnership() public virtual onlyOwner {... */\n    tag_102:\n        /* \"@openzeppelin/contracts/access/Ownable.sol\":1019:1026  address */\n      0x00\n        /* \"@openzeppelin/contracts/access/Ownable.sol\":1045:1051  _owner */\n      sload\n      sub(shl(0xa0, 0x01), 0x01)\n      and\n        /* \"@openzeppelin/contracts/utils/Context.sol\":665:675  msg.sender */\n      caller\n        /* \"@openzeppelin/contracts/access/Ownable.sol\":1185:1208  owner() == _msgSender() */\n      eq\n        /* \"@openzeppelin/contracts/access/Ownable.sol\":1177:1245  require(owner() == _msgSender(), \"Ownable: caller is not the owner\") */\n      tag_349\n      jumpi\n      mload(0x40)\n      shl(0xe5, 0x461bcd)\n      dup2\n      mstore\n      0x04\n      add\n      tag_201\n      swap1\n      tag_228\n      jump\t// in\n    tag_349:\n        /* \"@openzeppelin/contracts/access/Ownable.sol\":1669:1690  _setOwner(address(0)) */\n      tag_352\n        /* \"@openzeppelin/contracts/access/Ownable.sol\":1687:1688  0 */\n      0x00\n        /* \"@openzeppelin/contracts/access/Ownable.sol\":1669:1678  _setOwner */\n      tag_353\n        /* \"@openzeppelin/contracts/access/Ownable.sol\":1669:1690  _setOwner(address(0)) */\n      jump\t// in\n    tag_352:\n        /* \"@openzeppelin/contracts/access/Ownable.sol\":1605:1697  function renounceOwnership() public virtual onlyOwner {... */\n      jump\t// out\n        /* \"contracts/libraries/TimeLock.sol\":4317:4421  function lockFunction(string memory _fn) public onlyMaintainerOrOwner {... */\n    tag_125:\n        /* \"contracts/libraries/TimeLock.sol\":2264:2274  msg.sender */\n      caller\n        /* \"contracts/libraries/TimeLock.sol\":2253:2260  owner() */\n      tag_357\n        /* \"@openzeppelin/contracts/access/Ownable.sol\":1019:1026  address */\n      0x00\n        /* \"@openzeppelin/contracts/access/Ownable.sol\":1045:1051  _owner */\n      sload\n      sub(shl(0xa0, 0x01), 0x01)\n      and\n      swap1\n        /* \"@openzeppelin/contracts/access/Ownable.sol\":973:1058  function owner() public view virtual returns (address) {... */\n      jump\n        /* \"contracts/libraries/TimeLock.sol\":2253:2260  owner() */\n    tag_357:\n      sub(shl(0xa0, 0x01), 0x01)\n        /* \"contracts/libraries/TimeLock.sol\":2253:2274  owner() == msg.sender */\n      and\n      eq\n        /* \"contracts/libraries/TimeLock.sol\":2253:2303  owner() == msg.sender || _maintainer == msg.sender */\n      dup1\n      tag_358\n      jumpi\n      pop\n        /* \"contracts/libraries/TimeLock.sol\":2278:2289  _maintainer */\n      and(sub(shl(0xa0, 0x01), 0x01), sload(0x02))\n        /* \"contracts/libraries/TimeLock.sol\":2293:2303  msg.sender */\n      caller\n        /* \"contracts/libraries/TimeLock.sol\":2278:2303  _maintainer == msg.sender */\n      eq\n        /* \"contracts/libraries/TimeLock.sol\":2253:2303  owner() == msg.sender || _maintainer == msg.sender */\n    tag_358:\n        /* \"contracts/libraries/TimeLock.sol\":2245:2361  require(owner() == msg.sender || _maintainer == msg.sender, \"operator: caller is not allowed to call this function\") */\n      tag_359\n      jumpi\n      mload(0x40)\n      shl(0xe5, 0x461bcd)\n      dup2\n      mstore\n      0x04\n      add\n      tag_201\n      swap1\n      tag_202\n      jump\t// in\n    tag_359:\n        /* \"contracts/libraries/TimeLock.sol\":4413:4414  0 */\n      0x00\n        /* \"contracts/libraries/TimeLock.sol\":4397:4405  timelock */\n      0x01\n        /* \"contracts/libraries/TimeLock.sol\":4406:4409  _fn */\n      dup3\n        /* \"contracts/libraries/TimeLock.sol\":4397:4410  timelock[_fn] */\n      mload(0x40)\n      tag_362\n      swap2\n      swap1\n      tag_478\n      jump\t// in\n    tag_362:\n      swap1\n      dup2\n      mstore\n      mload(0x40)\n      swap1\n      dup2\n      swap1\n      sub\n      0x20\n      add\n      swap1\n      keccak256\n        /* \"contracts/libraries/TimeLock.sol\":4397:4414  timelock[_fn] = 0 */\n      sstore\n      pop\n        /* \"contracts/libraries/TimeLock.sol\":4317:4421  function lockFunction(string memory _fn) public onlyMaintainerOrOwner {... */\n      jump\t// out\n        /* \"contracts/libraries/TimeLock.sol\":4100:4284  function unlockFunction(string memory _fn) public onlyMaintainerOrOwner {... */\n    tag_137:\n        /* \"contracts/libraries/TimeLock.sol\":2264:2274  msg.sender */\n      caller\n        /* \"contracts/libraries/TimeLock.sol\":2253:2260  owner() */\n      tag_364\n        /* \"@openzeppelin/contracts/access/Ownable.sol\":1019:1026  address */\n      0x00\n        /* \"@openzeppelin/contracts/access/Ownable.sol\":1045:1051  _owner */\n      sload\n      sub(shl(0xa0, 0x01), 0x01)\n      and\n      swap1\n        /* \"@openzeppelin/contracts/access/Ownable.sol\":973:1058  function owner() public view virtual returns (address) {... */\n      jump\n        /* \"contracts/libraries/TimeLock.sol\":2253:2260  owner() */\n    tag_364:\n      sub(shl(0xa0, 0x01), 0x01)\n        /* \"contracts/libraries/TimeLock.sol\":2253:2274  owner() == msg.sender */\n      and\n      eq\n        /* \"contracts/libraries/TimeLock.sol\":2253:2303  owner() == msg.sender || _maintainer == msg.sender */\n      dup1\n      tag_365\n      jumpi\n      pop\n        /* \"contracts/libraries/TimeLock.sol\":2278:2289  _maintainer */\n      and(sub(shl(0xa0, 0x01), 0x01), sload(0x02))\n        /* \"contracts/libraries/TimeLock.sol\":2293:2303  msg.sender */\n      caller\n        /* \"contracts/libraries/TimeLock.sol\":2278:2303  _maintainer == msg.sender */\n      eq\n        /* \"contracts/libraries/TimeLock.sol\":2253:2303  owner() == msg.sender || _maintainer == msg.sender */\n    tag_365:\n        /* \"contracts/libraries/TimeLock.sol\":2245:2361  require(owner() == msg.sender || _maintainer == msg.sender, \"operator: caller is not allowed to call this function\") */\n      tag_366\n      jumpi\n      mload(0x40)\n      shl(0xe5, 0x461bcd)\n      dup2\n      mstore\n      0x04\n      add\n      tag_201\n      swap1\n      tag_202\n      jump\t// in\n    tag_366:\n        /* \"contracts/libraries/TimeLock.sol\":4198:4225  block.timestamp + _TIMELOCK */\n      tag_369\n        /* \"contracts/libraries/TimeLock.sol\":861:867  1 days */\n      0x015180\n        /* \"contracts/libraries/TimeLock.sol\":4198:4213  block.timestamp */\n      timestamp\n        /* \"contracts/libraries/TimeLock.sol\":4198:4225  block.timestamp + _TIMELOCK */\n      tag_212\n      jump\t// in\n    tag_369:\n        /* \"contracts/libraries/TimeLock.sol\":4182:4190  timelock */\n      0x01\n        /* \"contracts/libraries/TimeLock.sol\":4191:4194  _fn */\n      dup3\n        /* \"contracts/libraries/TimeLock.sol\":4182:4195  timelock[_fn] */\n      mload(0x40)\n      tag_370\n      swap2\n      swap1\n      tag_478\n      jump\t// in\n    tag_370:\n      swap1\n      dup2\n      mstore\n      0x20\n      add\n      mload(0x40)\n      dup1\n      swap2\n      sub\n      swap1\n      keccak256\n        /* \"contracts/libraries/TimeLock.sol\":4182:4225  timelock[_fn] = block.timestamp + _TIMELOCK */\n      dup2\n      swap1\n      sstore\n      pop\n        /* \"contracts/libraries/TimeLock.sol\":4262:4270  timelock */\n      0x01\n        /* \"contracts/libraries/TimeLock.sol\":4271:4274  _fn */\n      dup2\n        /* \"contracts/libraries/TimeLock.sol\":4262:4275  timelock[_fn] */\n      mload(0x40)\n      tag_371\n      swap2\n      swap1\n      tag_478\n      jump\t// in\n    tag_371:\n      swap1\n      dup2\n      mstore\n      0x20\n      add\n      mload(0x40)\n      dup1\n      swap2\n      sub\n      swap1\n      keccak256\n      sload\n        /* \"contracts/libraries/TimeLock.sol\":4257:4260  _fn */\n      dup2\n        /* \"contracts/libraries/TimeLock.sol\":4240:4276  UnlockedFunction(_fn, timelock[_fn]) */\n      mload(0x40)\n      tag_372\n      swap2\n      swap1\n      tag_478\n      jump\t// in\n    tag_372:\n      mload(0x40)\n      swap1\n      dup2\n      swap1\n      sub\n      dup2\n      keccak256\n      swap1\n      0xf77f9a799fe8b0be1463abd7459a18fc55dfd8a6a24ddd29b54fd098088089c8\n      swap1\n      0x00\n      swap1\n      log3\n        /* \"contracts/libraries/TimeLock.sol\":4100:4284  function unlockFunction(string memory _fn) public onlyMaintainerOrOwner {... */\n      pop\n      jump\t// out\n        /* \"contracts/chains/binance/RewardSystem.sol\":3388:3716  function canClaim(address user, address token) public view returns (bool) {\r... */\n    tag_141:\n        /* \"contracts/chains/binance/RewardSystem.sol\":3532:3544  _rewardToken */\n      sload(0x09)\n        /* \"contracts/chains/binance/RewardSystem.sol\":3456:3460  bool */\n      0x00\n      swap1\n        /* \"contracts/chains/binance/RewardSystem.sol\":3497:3501  true */\n      0x01\n      swap1\n      sub(shl(0xa0, 0x01), 0x01)\n        /* \"contracts/chains/binance/RewardSystem.sol\":3515:3545  token != address(_rewardToken) */\n      dup5\n      dup2\n      and\n        /* \"contracts/chains/binance/RewardSystem.sol\":3532:3544  _rewardToken */\n      swap2\n      and\n        /* \"contracts/chains/binance/RewardSystem.sol\":3515:3545  token != address(_rewardToken) */\n      eq\n        /* \"contracts/chains/binance/RewardSystem.sol\":3512:3607  if(token != address(_rewardToken)) {\r... */\n      tag_374\n      jumpi\n      pop\n      sub(shl(0xa0, 0x01), 0x01)\n        /* \"contracts/chains/binance/RewardSystem.sol\":3581:3595  _paidFee[user] */\n      dup4\n      and\n      0x00\n      swap1\n      dup2\n      mstore\n        /* \"contracts/chains/binance/RewardSystem.sol\":3581:3589  _paidFee */\n      0x05\n        /* \"contracts/chains/binance/RewardSystem.sol\":3581:3595  _paidFee[user] */\n      0x20\n      mstore\n      0x40\n      swap1\n      keccak256\n      sload\n      0xff\n      and\n        /* \"contracts/chains/binance/RewardSystem.sol\":3512:3607  if(token != address(_rewardToken)) {\r... */\n    tag_374:\n        /* \"contracts/chains/binance/RewardSystem.sol\":3624:3640  isPreconditionOk */\n      dup1\n        /* \"contracts/chains/binance/RewardSystem.sol\":3624:3708  isPreconditionOk && _claimTimes[user][token] + _timeBetweenClaims <= block.timestamp */\n      dup1\n      iszero\n      tag_375\n      jumpi\n      pop\n        /* \"contracts/chains/binance/RewardSystem.sol\":3671:3689  _timeBetweenClaims */\n      sload(0x0b)\n      sub(shl(0xa0, 0x01), 0x01)\n        /* \"contracts/chains/binance/RewardSystem.sol\":3644:3661  _claimTimes[user] */\n      dup1\n      dup7\n      and\n      0x00\n      swap1\n      dup2\n      mstore\n        /* \"contracts/chains/binance/RewardSystem.sol\":3644:3655  _claimTimes */\n      0x04\n        /* \"contracts/chains/binance/RewardSystem.sol\":3644:3661  _claimTimes[user] */\n      0x20\n      swap1\n      dup2\n      mstore\n      0x40\n      dup1\n      dup4\n      keccak256\n        /* \"contracts/chains/binance/RewardSystem.sol\":3644:3668  _claimTimes[user][token] */\n      swap4\n      dup9\n      and\n      dup4\n      mstore\n      swap3\n      swap1\n      mstore\n      keccak256\n      sload\n        /* \"contracts/chains/binance/RewardSystem.sol\":3693:3708  block.timestamp */\n      timestamp\n      swap2\n        /* \"contracts/chains/binance/RewardSystem.sol\":3644:3689  _claimTimes[user][token] + _timeBetweenClaims */\n      tag_376\n      swap2\n      tag_212\n      jump\t// in\n    tag_376:\n        /* \"contracts/chains/binance/RewardSystem.sol\":3644:3708  _claimTimes[user][token] + _timeBetweenClaims <= block.timestamp */\n      gt\n      iszero\n        /* \"contracts/chains/binance/RewardSystem.sol\":3624:3708  isPreconditionOk && _claimTimes[user][token] + _timeBetweenClaims <= block.timestamp */\n    tag_375:\n        /* \"contracts/chains/binance/RewardSystem.sol\":3617:3708  return isPreconditionOk && _claimTimes[user][token] + _timeBetweenClaims <= block.timestamp */\n      swap5\n        /* \"contracts/chains/binance/RewardSystem.sol\":3388:3716  function canClaim(address user, address token) public view returns (bool) {\r... */\n      swap4\n      pop\n      pop\n      pop\n      pop\n      jump\t// out\n        /* \"contracts/chains/binance/RewardSystem.sol\":4640:4738  function setRouter(IUniswapV2Router02 router) public onlyOwner {\r... */\n    tag_156:\n        /* \"@openzeppelin/contracts/access/Ownable.sol\":1019:1026  address */\n      0x00\n        /* \"@openzeppelin/contracts/access/Ownable.sol\":1045:1051  _owner */\n      sload\n      sub(shl(0xa0, 0x01), 0x01)\n      and\n        /* \"@openzeppelin/contracts/utils/Context.sol\":665:675  msg.sender */\n      caller\n        /* \"@openzeppelin/contracts/access/Ownable.sol\":1185:1208  owner() == _msgSender() */\n      eq\n        /* \"@openzeppelin/contracts/access/Ownable.sol\":1177:1245  require(owner() == _msgSender(), \"Ownable: caller is not the owner\") */\n      tag_380\n      jumpi\n      mload(0x40)\n      shl(0xe5, 0x461bcd)\n      dup2\n      mstore\n      0x04\n      add\n      tag_201\n      swap1\n      tag_228\n      jump\t// in\n    tag_380:\n        /* \"contracts/chains/binance/RewardSystem.sol\":4714:4721  _router */\n      0x0d\n        /* \"contracts/chains/binance/RewardSystem.sol\":4714:4730  _router = router */\n      dup1\n      sload\n      not(sub(shl(0xa0, 0x01), 0x01))\n      and\n      sub(shl(0xa0, 0x01), 0x01)\n      swap3\n      swap1\n      swap3\n      and\n      swap2\n      swap1\n      swap2\n      or\n      swap1\n      sstore\n        /* \"contracts/chains/binance/RewardSystem.sol\":4640:4738  function setRouter(IUniswapV2Router02 router) public onlyOwner {\r... */\n      jump\t// out\n        /* \"contracts/chains/binance/RewardSystem.sol\":4053:4286  function adjustMaxAmountPerReceive(uint256 newAmount) public onlyOwner locked(\"adjustMaxAmountPerReceive\") {\r... */\n    tag_164:\n        /* \"@openzeppelin/contracts/access/Ownable.sol\":1019:1026  address */\n      0x00\n        /* \"@openzeppelin/contracts/access/Ownable.sol\":1045:1051  _owner */\n      sload\n      sub(shl(0xa0, 0x01), 0x01)\n      and\n        /* \"@openzeppelin/contracts/utils/Context.sol\":665:675  msg.sender */\n      caller\n        /* \"@openzeppelin/contracts/access/Ownable.sol\":1185:1208  owner() == _msgSender() */\n      eq\n        /* \"@openzeppelin/contracts/access/Ownable.sol\":1177:1245  require(owner() == _msgSender(), \"Ownable: caller is not the owner\") */\n      tag_386\n      jumpi\n      mload(0x40)\n      shl(0xe5, 0x461bcd)\n      dup2\n      mstore\n      0x04\n      add\n      tag_201\n      swap1\n      tag_228\n      jump\t// in\n    tag_386:\n        /* \"contracts/libraries/TimeLock.sol\":1945:2188  modifier locked(string memory _fn) {... */\n      0x40\n      dup1\n      mload\n      dup1\n      dup3\n      add\n      swap1\n      swap2\n      mstore\n      0x19\n      dup2\n      mstore\n      0x61646a7573744d6178416d6f756e745065725265636569766500000000000000\n      0x20\n      dup3\n      add\n      mstore\n      0x00\n        /* \"contracts/libraries/TimeLock.sol\":1999:2012  isLockEnabled */\n      sload\n      shl(0xa0, 0x01)\n      swap1\n      div\n      0xff\n      and\n        /* \"contracts/libraries/TimeLock.sol\":1998:2012  !isLockEnabled */\n      iszero\n      dup1\n        /* \"contracts/libraries/TimeLock.sol\":1998:2120  !isLockEnabled || (timelock[_fn] != 0 && timelock[_fn] <= block.timestamp && timelock[_fn] + _TIMELOCK >= block.timestamp) */\n      tag_393\n      jumpi\n      pop\n        /* \"contracts/libraries/TimeLock.sol\":2017:2025  timelock */\n      0x01\n        /* \"contracts/libraries/TimeLock.sol\":2026:2029  _fn */\n      dup2\n        /* \"contracts/libraries/TimeLock.sol\":2017:2030  timelock[_fn] */\n      mload(0x40)\n      tag_390\n      swap2\n      swap1\n      tag_478\n      jump\t// in\n    tag_390:\n      swap1\n      dup2\n      mstore\n      0x20\n      add\n      mload(0x40)\n      dup1\n      swap2\n      sub\n      swap1\n      keccak256\n      sload\n        /* \"contracts/libraries/TimeLock.sol\":2034:2035  0 */\n      0x00\n        /* \"contracts/libraries/TimeLock.sol\":2017:2035  timelock[_fn] != 0 */\n      eq\n      iszero\n        /* \"contracts/libraries/TimeLock.sol\":2017:2071  timelock[_fn] != 0 && timelock[_fn] <= block.timestamp */\n      dup1\n      iszero\n      tag_391\n      jumpi\n      pop\n        /* \"contracts/libraries/TimeLock.sol\":2056:2071  block.timestamp */\n      timestamp\n        /* \"contracts/libraries/TimeLock.sol\":2039:2047  timelock */\n      0x01\n        /* \"contracts/libraries/TimeLock.sol\":2048:2051  _fn */\n      dup3\n        /* \"contracts/libraries/TimeLock.sol\":2039:2052  timelock[_fn] */\n      mload(0x40)\n      tag_392\n      swap2\n      swap1\n      tag_478\n      jump\t// in\n    tag_392:\n      swap1\n      dup2\n      mstore\n      0x20\n      add\n      mload(0x40)\n      dup1\n      swap2\n      sub\n      swap1\n      keccak256\n      sload\n        /* \"contracts/libraries/TimeLock.sol\":2039:2071  timelock[_fn] <= block.timestamp */\n      gt\n      iszero\n        /* \"contracts/libraries/TimeLock.sol\":2017:2071  timelock[_fn] != 0 && timelock[_fn] <= block.timestamp */\n    tag_391:\n        /* \"contracts/libraries/TimeLock.sol\":2017:2119  timelock[_fn] != 0 && timelock[_fn] <= block.timestamp && timelock[_fn] + _TIMELOCK >= block.timestamp */\n      dup1\n      iszero\n      tag_393\n      jumpi\n      pop\n        /* \"contracts/libraries/TimeLock.sol\":2104:2119  block.timestamp */\n      timestamp\n        /* \"contracts/libraries/TimeLock.sol\":861:867  1 days */\n      0x015180\n        /* \"contracts/libraries/TimeLock.sol\":2075:2083  timelock */\n      0x01\n        /* \"contracts/libraries/TimeLock.sol\":2084:2087  _fn */\n      dup4\n        /* \"contracts/libraries/TimeLock.sol\":2075:2088  timelock[_fn] */\n      mload(0x40)\n      tag_394\n      swap2\n      swap1\n      tag_478\n      jump\t// in\n    tag_394:\n      swap1\n      dup2\n      mstore\n      0x20\n      add\n      mload(0x40)\n      dup1\n      swap2\n      sub\n      swap1\n      keccak256\n      sload\n        /* \"contracts/libraries/TimeLock.sol\":2075:2100  timelock[_fn] + _TIMELOCK */\n      tag_395\n      swap2\n      swap1\n      tag_212\n      jump\t// in\n    tag_395:\n        /* \"contracts/libraries/TimeLock.sol\":2075:2119  timelock[_fn] + _TIMELOCK >= block.timestamp */\n      lt\n      iszero\n        /* \"contracts/libraries/TimeLock.sol\":2017:2119  timelock[_fn] != 0 && timelock[_fn] <= block.timestamp && timelock[_fn] + _TIMELOCK >= block.timestamp */\n    tag_393:\n        /* \"contracts/libraries/TimeLock.sol\":1990:2143  require(!isLockEnabled || (timelock[_fn] != 0 && timelock[_fn] <= block.timestamp && timelock[_fn] + _TIMELOCK >= block.timestamp), \"Function is locked\") */\n      tag_396\n      jumpi\n      mload(0x40)\n      shl(0xe5, 0x461bcd)\n      dup2\n      mstore\n      0x04\n      add\n      tag_201\n      swap1\n      tag_215\n      jump\t// in\n    tag_396:\n        /* \"contracts/chains/binance/RewardSystem.sol\":4203:4223  _maxAmountPerReceive */\n      sload(0x0a)\n        /* \"contracts/chains/binance/RewardSystem.sol\":4176:4235  ChangedMaxAmountPerReceive(_maxAmountPerReceive, newAmount) */\n      mload(0x40)\n        /* \"contracts/chains/binance/RewardSystem.sol\":4225:4234  newAmount */\n      dup4\n      swap2\n        /* \"contracts/chains/binance/RewardSystem.sol\":4203:4223  _maxAmountPerReceive */\n      swap1\n        /* \"contracts/chains/binance/RewardSystem.sol\":4176:4235  ChangedMaxAmountPerReceive(_maxAmountPerReceive, newAmount) */\n      0xd07363c93ca88ca1140b355020cb77b0320b19e19a34bb15aa4566d27c2fabbd\n      swap1\n      0x00\n      swap1\n      log3\n        /* \"contracts/chains/binance/RewardSystem.sol\":4246:4266  _maxAmountPerReceive */\n      0x0a\n        /* \"contracts/chains/binance/RewardSystem.sol\":4246:4278  _maxAmountPerReceive = newAmount */\n      dup3\n      swap1\n      sstore\n        /* \"contracts/libraries/TimeLock.sol\":2164:2181  lockFunction(_fn) */\n      tag_221\n        /* \"contracts/libraries/TimeLock.sol\":2177:2180  _fn */\n      dup2\n        /* \"contracts/libraries/TimeLock.sol\":2164:2176  lockFunction */\n      tag_125\n        /* \"contracts/libraries/TimeLock.sol\":2164:2181  lockFunction(_fn) */\n      jump\t// in\n        /* \"contracts/chains/binance/RewardSystem.sol\":7565:8624  function sendRewardAsEth(uint256 amount, address user) public onlyOwner {\r... */\n    tag_169:\n        /* \"@openzeppelin/contracts/access/Ownable.sol\":1019:1026  address */\n      0x00\n        /* \"@openzeppelin/contracts/access/Ownable.sol\":1045:1051  _owner */\n      sload\n      sub(shl(0xa0, 0x01), 0x01)\n      and\n        /* \"@openzeppelin/contracts/utils/Context.sol\":665:675  msg.sender */\n      caller\n        /* \"@openzeppelin/contracts/access/Ownable.sol\":1185:1208  owner() == _msgSender() */\n      eq\n        /* \"@openzeppelin/contracts/access/Ownable.sol\":1177:1245  require(owner() == _msgSender(), \"Ownable: caller is not the owner\") */\n      tag_403\n      jumpi\n      mload(0x40)\n      shl(0xe5, 0x461bcd)\n      dup2\n      mstore\n      0x04\n      add\n      tag_201\n      swap1\n      tag_228\n      jump\t// in\n    tag_403:\n        /* \"contracts/chains/binance/RewardSystem.sol\":7664:7671  _router */\n      and(sub(shl(0xa0, 0x01), 0x01), sload(0x0d))\n        /* \"contracts/chains/binance/RewardSystem.sol\":7648:7765  require(address(_router) != address(0), \"ABOAT::sendRewardsAsEth: There is no router defined to swap tokens for eth\") */\n      tag_406\n      jumpi\n      mload(0x40)\n      shl(0xe5, 0x461bcd)\n      dup2\n      mstore\n        /* \"#utility.yul\":9301:9303   */\n      0x20\n        /* \"contracts/chains/binance/RewardSystem.sol\":7648:7765  require(address(_router) != address(0), \"ABOAT::sendRewardsAsEth: There is no router defined to swap tokens for eth\") */\n      0x04\n      dup3\n      add\n        /* \"#utility.yul\":9283:9304   */\n      mstore\n        /* \"#utility.yul\":9340:9342   */\n      0x4a\n        /* \"#utility.yul\":9320:9338   */\n      0x24\n      dup3\n      add\n        /* \"#utility.yul\":9313:9343   */\n      mstore\n        /* \"#utility.yul\":9379:9413   */\n      0x41424f41543a3a73656e645265776172647341734574683a2054686572652069\n        /* \"#utility.yul\":9359:9377   */\n      0x44\n      dup3\n      add\n        /* \"#utility.yul\":9352:9414   */\n      mstore\n        /* \"#utility.yul\":9450:9484   */\n      0x73206e6f20726f7574657220646566696e656420746f207377617020746f6b65\n        /* \"#utility.yul\":9430:9448   */\n      0x64\n      dup3\n      add\n        /* \"#utility.yul\":9423:9485   */\n      mstore\n      shl(0xb3, 0x0dce640ccdee440cae8d)\n        /* \"#utility.yul\":9501:9520   */\n      0x84\n      dup3\n      add\n        /* \"#utility.yul\":9494:9535   */\n      mstore\n        /* \"#utility.yul\":9552:9571   */\n      0xa4\n      add\n        /* \"contracts/chains/binance/RewardSystem.sol\":7648:7765  require(address(_router) != address(0), \"ABOAT::sendRewardsAsEth: There is no router defined to swap tokens for eth\") */\n      tag_201\n        /* \"#utility.yul\":9099:9577   */\n      jump\n        /* \"contracts/chains/binance/RewardSystem.sol\":7648:7765  require(address(_router) != address(0), \"ABOAT::sendRewardsAsEth: There is no router defined to swap tokens for eth\") */\n    tag_406:\n        /* \"contracts/chains/binance/RewardSystem.sol\":7813:7825  _rewardToken */\n      sload(0x09)\n        /* \"contracts/chains/binance/RewardSystem.sol\":7794:7827  getBalance(address(_rewardToken)) */\n      tag_409\n      swap1\n      sub(shl(0xa0, 0x01), 0x01)\n        /* \"contracts/chains/binance/RewardSystem.sol\":7813:7825  _rewardToken */\n      and\n        /* \"contracts/chains/binance/RewardSystem.sol\":7794:7804  getBalance */\n      tag_185\n        /* \"contracts/chains/binance/RewardSystem.sol\":7794:7827  getBalance(address(_rewardToken)) */\n      jump\t// in\n    tag_409:\n        /* \"contracts/chains/binance/RewardSystem.sol\":7784:7790  amount */\n      dup3\n        /* \"contracts/chains/binance/RewardSystem.sol\":7784:7827  amount <= getBalance(address(_rewardToken)) */\n      gt\n      iszero\n        /* \"contracts/chains/binance/RewardSystem.sol\":7776:7903  require(amount <= getBalance(address(_rewardToken)), \"ABOAT::sendRewardsAsEth: Can't send more rewards than in reward system!\") */\n      tag_410\n      jumpi\n      mload(0x40)\n      shl(0xe5, 0x461bcd)\n      dup2\n      mstore\n        /* \"#utility.yul\":11458:11460   */\n      0x20\n        /* \"contracts/chains/binance/RewardSystem.sol\":7776:7903  require(amount <= getBalance(address(_rewardToken)), \"ABOAT::sendRewardsAsEth: Can't send more rewards than in reward system!\") */\n      0x04\n      dup3\n      add\n        /* \"#utility.yul\":11440:11461   */\n      mstore\n        /* \"#utility.yul\":11497:11499   */\n      0x47\n        /* \"#utility.yul\":11477:11495   */\n      0x24\n      dup3\n      add\n        /* \"#utility.yul\":11470:11500   */\n      mstore\n        /* \"#utility.yul\":11536:11570   */\n      0x41424f41543a3a73656e645265776172647341734574683a2043616e27742073\n        /* \"#utility.yul\":11516:11534   */\n      0x44\n      dup3\n      add\n        /* \"#utility.yul\":11509:11571   */\n      mstore\n        /* \"#utility.yul\":11607:11641   */\n      0x656e64206d6f72652072657761726473207468616e20696e2072657761726420\n        /* \"#utility.yul\":11587:11605   */\n      0x64\n      dup3\n      add\n        /* \"#utility.yul\":11580:11642   */\n      mstore\n      shl(0xc8, 0x73797374656d21)\n        /* \"#utility.yul\":11658:11677   */\n      0x84\n      dup3\n      add\n        /* \"#utility.yul\":11651:11689   */\n      mstore\n        /* \"#utility.yul\":11706:11725   */\n      0xa4\n      add\n        /* \"contracts/chains/binance/RewardSystem.sol\":7776:7903  require(amount <= getBalance(address(_rewardToken)), \"ABOAT::sendRewardsAsEth: Can't send more rewards than in reward system!\") */\n      tag_201\n        /* \"#utility.yul\":11256:11731   */\n      jump\n        /* \"contracts/chains/binance/RewardSystem.sol\":7776:7903  require(amount <= getBalance(address(_rewardToken)), \"ABOAT::sendRewardsAsEth: Can't send more rewards than in reward system!\") */\n    tag_410:\n        /* \"contracts/chains/binance/RewardSystem.sol\":7932:7952  _maxAmountPerReceive */\n      sload(0x0a)\n        /* \"contracts/chains/binance/RewardSystem.sol\":7922:7928  amount */\n      dup3\n        /* \"contracts/chains/binance/RewardSystem.sol\":7922:7952  amount <= _maxAmountPerReceive */\n      gt\n      iszero\n        /* \"contracts/chains/binance/RewardSystem.sol\":7914:8017  require(amount <= _maxAmountPerReceive, \"ABOAT::sendRewardsAsEth: Can't send more rewards than limit!\") */\n      tag_413\n      jumpi\n      mload(0x40)\n      shl(0xe5, 0x461bcd)\n      dup2\n      mstore\n        /* \"#utility.yul\":8022:8024   */\n      0x20\n        /* \"contracts/chains/binance/RewardSystem.sol\":7914:8017  require(amount <= _maxAmountPerReceive, \"ABOAT::sendRewardsAsEth: Can't send more rewards than limit!\") */\n      0x04\n      dup3\n      add\n        /* \"#utility.yul\":8004:8025   */\n      mstore\n        /* \"#utility.yul\":8061:8063   */\n      0x3c\n        /* \"#utility.yul\":8041:8059   */\n      0x24\n      dup3\n      add\n        /* \"#utility.yul\":8034:8064   */\n      mstore\n        /* \"#utility.yul\":8100:8134   */\n      0x41424f41543a3a73656e645265776172647341734574683a2043616e27742073\n        /* \"#utility.yul\":8080:8098   */\n      0x44\n      dup3\n      add\n        /* \"#utility.yul\":8073:8135   */\n      mstore\n        /* \"#utility.yul\":8171:8201   */\n      0x656e64206d6f72652072657761726473207468616e206c696d69742100000000\n        /* \"#utility.yul\":8151:8169   */\n      0x64\n      dup3\n      add\n        /* \"#utility.yul\":8144:8202   */\n      mstore\n        /* \"#utility.yul\":8219:8238   */\n      0x84\n      add\n        /* \"contracts/chains/binance/RewardSystem.sol\":7914:8017  require(amount <= _maxAmountPerReceive, \"ABOAT::sendRewardsAsEth: Can't send more rewards than limit!\") */\n      tag_201\n        /* \"#utility.yul\":7820:8244   */\n      jump\n        /* \"contracts/chains/binance/RewardSystem.sol\":7914:8017  require(amount <= _maxAmountPerReceive, \"ABOAT::sendRewardsAsEth: Can't send more rewards than limit!\") */\n    tag_413:\n        /* \"contracts/chains/binance/RewardSystem.sol\":8059:8071  _rewardToken */\n      sload(0x09)\n        /* \"contracts/chains/binance/RewardSystem.sol\":8036:8073  canClaim(user, address(_rewardToken)) */\n      tag_416\n      swap1\n        /* \"contracts/chains/binance/RewardSystem.sol\":8045:8049  user */\n      dup3\n      swap1\n      sub(shl(0xa0, 0x01), 0x01)\n        /* \"contracts/chains/binance/RewardSystem.sol\":8059:8071  _rewardToken */\n      and\n        /* \"contracts/chains/binance/RewardSystem.sol\":8036:8044  canClaim */\n      tag_141\n        /* \"contracts/chains/binance/RewardSystem.sol\":8036:8073  canClaim(user, address(_rewardToken)) */\n      jump\t// in\n    tag_416:\n        /* \"contracts/chains/binance/RewardSystem.sol\":8028:8137  require(canClaim(user, address(_rewardToken)), \"ABOAT::sendRewardsAsEth: Can't claim more than once per day\") */\n      tag_417\n      jumpi\n      mload(0x40)\n      shl(0xe5, 0x461bcd)\n      dup2\n      mstore\n        /* \"#utility.yul\":9784:9786   */\n      0x20\n        /* \"contracts/chains/binance/RewardSystem.sol\":8028:8137  require(canClaim(user, address(_rewardToken)), \"ABOAT::sendRewardsAsEth: Can't claim more than once per day\") */\n      0x04\n      dup3\n      add\n        /* \"#utility.yul\":9766:9787   */\n      mstore\n        /* \"#utility.yul\":9823:9825   */\n      0x3b\n        /* \"#utility.yul\":9803:9821   */\n      0x24\n      dup3\n      add\n        /* \"#utility.yul\":9796:9826   */\n      mstore\n        /* \"#utility.yul\":9862:9896   */\n      0x41424f41543a3a73656e645265776172647341734574683a2043616e27742063\n        /* \"#utility.yul\":9842:9860   */\n      0x44\n      dup3\n      add\n        /* \"#utility.yul\":9835:9897   */\n      mstore\n        /* \"#utility.yul\":9933:9962   */\n      0x6c61696d206d6f7265207468616e206f6e636520706572206461790000000000\n        /* \"#utility.yul\":9913:9931   */\n      0x64\n      dup3\n      add\n        /* \"#utility.yul\":9906:9963   */\n      mstore\n        /* \"#utility.yul\":9980:9999   */\n      0x84\n      add\n        /* \"contracts/chains/binance/RewardSystem.sol\":8028:8137  require(canClaim(user, address(_rewardToken)), \"ABOAT::sendRewardsAsEth: Can't claim more than once per day\") */\n      tag_201\n        /* \"#utility.yul\":9582:10005   */\n      jump\n        /* \"contracts/chains/binance/RewardSystem.sol\":8028:8137  require(canClaim(user, address(_rewardToken)), \"ABOAT::sendRewardsAsEth: Can't claim more than once per day\") */\n    tag_417:\n      sub(shl(0xa0, 0x01), 0x01)\n        /* \"contracts/chains/binance/RewardSystem.sol\":8148:8165  _claimTimes[user] */\n      dup1\n      dup3\n      and\n      0x00\n      swap1\n      dup2\n      mstore\n        /* \"contracts/chains/binance/RewardSystem.sol\":8148:8159  _claimTimes */\n      0x04\n        /* \"contracts/chains/binance/RewardSystem.sol\":8148:8165  _claimTimes[user] */\n      0x20\n      swap1\n      dup2\n      mstore\n      0x40\n      dup1\n      dup4\n      keccak256\n        /* \"contracts/chains/binance/RewardSystem.sol\":8174:8186  _rewardToken */\n      sload(0x09)\n      swap1\n      swap5\n      and\n        /* \"contracts/chains/binance/RewardSystem.sol\":8148:8188  _claimTimes[user][address(_rewardToken)] */\n      dup4\n      mstore\n      swap3\n      swap1\n      mstore\n      keccak256\n        /* \"contracts/chains/binance/RewardSystem.sol\":8191:8206  block.timestamp */\n      timestamp\n        /* \"contracts/chains/binance/RewardSystem.sol\":8148:8206  _claimTimes[user][address(_rewardToken)] = block.timestamp */\n      swap1\n      sstore\n        /* \"contracts/chains/binance/RewardSystem.sol\":8237:8258  address(this).balance */\n      selfbalance\n        /* \"contracts/chains/binance/RewardSystem.sol\":8269:8293  swapTokensForEth(amount) */\n      tag_420\n        /* \"contracts/chains/binance/RewardSystem.sol\":8286:8292  amount */\n      dup4\n        /* \"contracts/chains/binance/RewardSystem.sol\":8269:8285  swapTokensForEth */\n      tag_310\n        /* \"contracts/chains/binance/RewardSystem.sol\":8269:8293  swapTokensForEth(amount) */\n      jump\t// in\n    tag_420:\n        /* \"contracts/chains/binance/RewardSystem.sol\":8304:8319  uint256 userEth */\n      0x00\n        /* \"contracts/chains/binance/RewardSystem.sol\":8322:8358  address(this).balance.sub(ethBefore) */\n      tag_421\n        /* \"contracts/chains/binance/RewardSystem.sol\":8322:8343  address(this).balance */\n      selfbalance\n        /* \"contracts/chains/binance/RewardSystem.sol\":8348:8357  ethBefore */\n      dup4\n        /* \"contracts/chains/binance/RewardSystem.sol\":8322:8347  address(this).balance.sub */\n      tag_294\n        /* \"contracts/chains/binance/RewardSystem.sol\":8322:8358  address(this).balance.sub(ethBefore) */\n      jump\t// in\n    tag_421:\n        /* \"contracts/chains/binance/RewardSystem.sol\":8304:8358  uint256 userEth = address(this).balance.sub(ethBefore) */\n      swap1\n      pop\n        /* \"contracts/chains/binance/RewardSystem.sol\":8369:8380  uint256 fee */\n      0x00\n        /* \"contracts/chains/binance/RewardSystem.sol\":8383:8409  userEth.div(nativeSwapFee) */\n      tag_422\n        /* \"contracts/chains/binance/RewardSystem.sol\":8395:8408  nativeSwapFee */\n      sload(0x06)\n        /* \"contracts/chains/binance/RewardSystem.sol\":8383:8390  userEth */\n      dup4\n        /* \"contracts/chains/binance/RewardSystem.sol\":8383:8394  userEth.div */\n      tag_292\n      swap1\n        /* \"contracts/chains/binance/RewardSystem.sol\":8383:8409  userEth.div(nativeSwapFee) */\n      swap2\n      swap1\n      0xffffffff\n      and\n      jump\t// in\n    tag_422:\n        /* \"contracts/chains/binance/RewardSystem.sol\":8369:8409  uint256 fee = userEth.div(nativeSwapFee) */\n      swap1\n      pop\n        /* \"contracts/chains/binance/RewardSystem.sol\":8430:8446  userEth.sub(fee) */\n      tag_423\n        /* \"contracts/chains/binance/RewardSystem.sol\":8430:8437  userEth */\n      dup3\n        /* \"contracts/chains/binance/RewardSystem.sol\":8369:8409  uint256 fee = userEth.div(nativeSwapFee) */\n      dup3\n        /* \"contracts/chains/binance/RewardSystem.sol\":8430:8441  userEth.sub */\n      tag_294\n        /* \"contracts/chains/binance/RewardSystem.sol\":8430:8446  userEth.sub(fee) */\n      jump\t// in\n    tag_423:\n        /* \"contracts/chains/binance/RewardSystem.sol\":8420:8446  userEth = userEth.sub(fee) */\n      swap2\n      pop\n        /* \"contracts/chains/binance/RewardSystem.sol\":8457:8510  TransferHelper.safeTransferETH(address(owner()), fee) */\n      tag_424\n        /* \"contracts/chains/binance/RewardSystem.sol\":8496:8503  owner() */\n      tag_343\n        /* \"@openzeppelin/contracts/access/Ownable.sol\":1019:1026  address */\n      0x00\n        /* \"@openzeppelin/contracts/access/Ownable.sol\":1045:1051  _owner */\n      sload\n      sub(shl(0xa0, 0x01), 0x01)\n      and\n      swap1\n        /* \"@openzeppelin/contracts/access/Ownable.sol\":973:1058  function owner() public view virtual returns (address) {... */\n      jump\n        /* \"contracts/chains/binance/RewardSystem.sol\":8457:8510  TransferHelper.safeTransferETH(address(owner()), fee) */\n    tag_424:\n        /* \"contracts/chains/binance/RewardSystem.sol\":8521:8566  TransferHelper.safeTransferETH(user, userEth) */\n      tag_426\n        /* \"contracts/chains/binance/RewardSystem.sol\":8552:8556  user */\n      dup5\n        /* \"contracts/chains/binance/RewardSystem.sol\":8558:8565  userEth */\n      dup4\n        /* \"contracts/chains/binance/RewardSystem.sol\":8521:8551  TransferHelper.safeTransferETH */\n      tag_250\n        /* \"contracts/chains/binance/RewardSystem.sol\":8521:8566  TransferHelper.safeTransferETH(user, userEth) */\n      jump\t// in\n    tag_426:\n        /* \"contracts/chains/binance/RewardSystem.sol\":8612:8615  fee */\n      dup1\n        /* \"contracts/chains/binance/RewardSystem.sol\":8603:8610  userEth */\n      dup3\n        /* \"contracts/chains/binance/RewardSystem.sol\":8597:8601  user */\n      dup6\n      sub(shl(0xa0, 0x01), 0x01)\n        /* \"contracts/chains/binance/RewardSystem.sol\":8582:8616  SentRewardsETH(user, userEth, fee) */\n      and\n      0x75b2eac24930bf6a8227dbe172d34480e56be5c6994435067628424190d53431\n      mload(0x40)\n      mload(0x40)\n      dup1\n      swap2\n      sub\n      swap1\n      log4\n        /* \"contracts/chains/binance/RewardSystem.sol\":7637:8624  {\r... */\n      pop\n      pop\n      pop\n        /* \"contracts/chains/binance/RewardSystem.sol\":7565:8624  function sendRewardAsEth(uint256 amount, address user) public onlyOwner {\r... */\n      pop\n      pop\n      jump\t// out\n        /* \"@openzeppelin/contracts/access/Ownable.sol\":1846:2035  function transferOwnership(address newOwner) public virtual onlyOwner {... */\n    tag_178:\n        /* \"@openzeppelin/contracts/access/Ownable.sol\":1019:1026  address */\n      0x00\n        /* \"@openzeppelin/contracts/access/Ownable.sol\":1045:1051  _owner */\n      sload\n      sub(shl(0xa0, 0x01), 0x01)\n      and\n        /* \"@openzeppelin/contracts/utils/Context.sol\":665:675  msg.sender */\n      caller\n        /* \"@openzeppelin/contracts/access/Ownable.sol\":1185:1208  owner() == _msgSender() */\n      eq\n        /* \"@openzeppelin/contracts/access/Ownable.sol\":1177:1245  require(owner() == _msgSender(), \"Ownable: caller is not the owner\") */\n      tag_430\n      jumpi\n      mload(0x40)\n      shl(0xe5, 0x461bcd)\n      dup2\n      mstore\n      0x04\n      add\n      tag_201\n      swap1\n      tag_228\n      jump\t// in\n    tag_430:\n      sub(shl(0xa0, 0x01), 0x01)\n        /* \"@openzeppelin/contracts/access/Ownable.sol\":1934:1956  newOwner != address(0) */\n      dup2\n      and\n        /* \"@openzeppelin/contracts/access/Ownable.sol\":1926:1999  require(newOwner != address(0), \"Ownable: new owner is the zero address\") */\n      tag_433\n      jumpi\n      mload(0x40)\n      shl(0xe5, 0x461bcd)\n      dup2\n      mstore\n        /* \"#utility.yul\":5535:5537   */\n      0x20\n        /* \"@openzeppelin/contracts/access/Ownable.sol\":1926:1999  require(newOwner != address(0), \"Ownable: new owner is the zero address\") */\n      0x04\n      dup3\n      add\n        /* \"#utility.yul\":5517:5538   */\n      mstore\n        /* \"#utility.yul\":5574:5576   */\n      0x26\n        /* \"#utility.yul\":5554:5572   */\n      0x24\n      dup3\n      add\n        /* \"#utility.yul\":5547:5577   */\n      mstore\n        /* \"#utility.yul\":5613:5647   */\n      0x4f776e61626c653a206e6577206f776e657220697320746865207a65726f2061\n        /* \"#utility.yul\":5593:5611   */\n      0x44\n      dup3\n      add\n        /* \"#utility.yul\":5586:5648   */\n      mstore\n      shl(0xd0, 0x646472657373)\n        /* \"#utility.yul\":5664:5682   */\n      0x64\n      dup3\n      add\n        /* \"#utility.yul\":5657:5693   */\n      mstore\n        /* \"#utility.yul\":5710:5729   */\n      0x84\n      add\n        /* \"@openzeppelin/contracts/access/Ownable.sol\":1926:1999  require(newOwner != address(0), \"Ownable: new owner is the zero address\") */\n      tag_201\n        /* \"#utility.yul\":5333:5735   */\n      jump\n        /* \"@openzeppelin/contracts/access/Ownable.sol\":1926:1999  require(newOwner != address(0), \"Ownable: new owner is the zero address\") */\n    tag_433:\n        /* \"@openzeppelin/contracts/access/Ownable.sol\":2009:2028  _setOwner(newOwner) */\n      tag_436\n        /* \"@openzeppelin/contracts/access/Ownable.sol\":2019:2027  newOwner */\n      dup2\n        /* \"@openzeppelin/contracts/access/Ownable.sol\":2009:2018  _setOwner */\n      tag_353\n        /* \"@openzeppelin/contracts/access/Ownable.sol\":2009:2028  _setOwner(newOwner) */\n      jump\t// in\n    tag_436:\n        /* \"@openzeppelin/contracts/access/Ownable.sol\":1846:2035  function transferOwnership(address newOwner) public virtual onlyOwner {... */\n      pop\n      jump\t// out\n        /* \"contracts/libraries/TimeLock.sol\":3627:3751  function setTimelockEnabled() public onlyMaintainerOrOwner {... */\n    tag_181:\n        /* \"contracts/libraries/TimeLock.sol\":2264:2274  msg.sender */\n      caller\n        /* \"contracts/libraries/TimeLock.sol\":2253:2260  owner() */\n      tag_438\n        /* \"@openzeppelin/contracts/access/Ownable.sol\":1019:1026  address */\n      0x00\n        /* \"@openzeppelin/contracts/access/Ownable.sol\":1045:1051  _owner */\n      sload\n      sub(shl(0xa0, 0x01), 0x01)\n      and\n      swap1\n        /* \"@openzeppelin/contracts/access/Ownable.sol\":973:1058  function owner() public view virtual returns (address) {... */\n      jump\n        /* \"contracts/libraries/TimeLock.sol\":2253:2260  owner() */\n    tag_438:\n      sub(shl(0xa0, 0x01), 0x01)\n        /* \"contracts/libraries/TimeLock.sol\":2253:2274  owner() == msg.sender */\n      and\n      eq\n        /* \"contracts/libraries/TimeLock.sol\":2253:2303  owner() == msg.sender || _maintainer == msg.sender */\n      dup1\n      tag_439\n      jumpi\n      pop\n        /* \"contracts/libraries/TimeLock.sol\":2278:2289  _maintainer */\n      and(sub(shl(0xa0, 0x01), 0x01), sload(0x02))\n        /* \"contracts/libraries/TimeLock.sol\":2293:2303  msg.sender */\n      caller\n        /* \"contracts/libraries/TimeLock.sol\":2278:2303  _maintainer == msg.sender */\n      eq\n        /* \"contracts/libraries/TimeLock.sol\":2253:2303  owner() == msg.sender || _maintainer == msg.sender */\n    tag_439:\n        /* \"contracts/libraries/TimeLock.sol\":2245:2361  require(owner() == msg.sender || _maintainer == msg.sender, \"operator: caller is not allowed to call this function\") */\n      tag_440\n      jumpi\n      mload(0x40)\n      shl(0xe5, 0x461bcd)\n      dup2\n      mstore\n      0x04\n      add\n      tag_201\n      swap1\n      tag_202\n      jump\t// in\n    tag_440:\n        /* \"contracts/libraries/TimeLock.sol\":3696:3709  isLockEnabled */\n      0x00\n        /* \"contracts/libraries/TimeLock.sol\":3696:3716  isLockEnabled = true */\n      dup1\n      sload\n      not(shl(0xa0, 0xff))\n      and\n      shl(0xa0, 0x01)\n      or\n      dup2\n      sstore\n        /* \"contracts/libraries/TimeLock.sol\":3731:3744  EnabledLock() */\n      mload(0x40)\n      0x2c08b62bfac9a1b19bb1dec9323f1ce01696a77948b256abf3603d30f25a864e\n      swap2\n        /* \"contracts/libraries/TimeLock.sol\":3696:3709  isLockEnabled */\n      swap1\n        /* \"contracts/libraries/TimeLock.sol\":3731:3744  EnabledLock() */\n      log1\n        /* \"contracts/libraries/TimeLock.sol\":3627:3751  function setTimelockEnabled() public onlyMaintainerOrOwner {... */\n      jump\t// out\n        /* \"contracts/chains/binance/RewardSystem.sol\":3052:3270  function getBalance(address token) public view returns (uint256) {\r... */\n    tag_185:\n        /* \"contracts/chains/binance/RewardSystem.sol\":3108:3115  uint256 */\n      0x00\n      sub(shl(0xa0, 0x01), 0x01)\n        /* \"contracts/chains/binance/RewardSystem.sol\":3131:3150  token == address(0) */\n      dup3\n      and\n        /* \"contracts/chains/binance/RewardSystem.sol\":3128:3207  if(token == address(0)) {\r... */\n      tag_444\n      jumpi\n      pop\n        /* \"contracts/chains/binance/RewardSystem.sol\":3174:3195  address(this).balance */\n      selfbalance\n      swap2\n        /* \"contracts/chains/binance/RewardSystem.sol\":3052:3270  function getBalance(address token) public view returns (uint256) {\r... */\n      swap1\n      pop\n      jump\t// out\n        /* \"contracts/chains/binance/RewardSystem.sol\":3128:3207  if(token == address(0)) {\r... */\n    tag_444:\n        /* \"contracts/chains/binance/RewardSystem.sol\":3224:3262  IERC20(token).balanceOf(address(this)) */\n      mload(0x40)\n      shl(0xe0, 0x70a08231)\n      dup2\n      mstore\n        /* \"contracts/chains/binance/RewardSystem.sol\":3256:3260  this */\n      address\n        /* \"contracts/chains/binance/RewardSystem.sol\":3224:3262  IERC20(token).balanceOf(address(this)) */\n      0x04\n      dup3\n      add\n        /* \"#utility.yul\":4343:4394   */\n      mstore\n      sub(shl(0xa0, 0x01), 0x01)\n        /* \"contracts/chains/binance/RewardSystem.sol\":3224:3247  IERC20(token).balanceOf */\n      dup4\n      and\n      swap1\n      0x70a08231\n      swap1\n        /* \"#utility.yul\":4316:4334   */\n      0x24\n      add\n        /* \"contracts/chains/binance/RewardSystem.sol\":3224:3262  IERC20(token).balanceOf(address(this)) */\n      0x20\n      mload(0x40)\n      dup1\n      dup4\n      sub\n      dup2\n      dup7\n      dup1\n      extcodesize\n      iszero\n      dup1\n      iszero\n      tag_446\n      jumpi\n      0x00\n      dup1\n      revert\n    tag_446:\n      pop\n      gas\n      staticcall\n      iszero\n      dup1\n      iszero\n      tag_448\n      jumpi\n      returndatasize\n      0x00\n      dup1\n      returndatacopy\n      revert(0x00, returndatasize)\n    tag_448:\n      pop\n      pop\n      pop\n      pop\n      mload(0x40)\n      returndatasize\n      not(0x1f)\n      0x1f\n      dup3\n      add\n      and\n      dup3\n      add\n      dup1\n      0x40\n      mstore\n      pop\n      dup2\n      add\n      swap1\n      tag_449\n      swap2\n      swap1\n      tag_450\n      jump\t// in\n    tag_449:\n        /* \"contracts/chains/binance/RewardSystem.sol\":3217:3262  return IERC20(token).balanceOf(address(this)) */\n      swap3\n        /* \"contracts/chains/binance/RewardSystem.sol\":3052:3270  function getBalance(address token) public view returns (uint256) {\r... */\n      swap2\n      pop\n      pop\n      jump\t// out\n        /* \"contracts/chains/binance/RewardSystem.sol\":4298:4628  function updateRewardToken(IERC20 rewardToken) public onlyOwner locked(\"updateRewardToken\") {\r... */\n    tag_191:\n        /* \"@openzeppelin/contracts/access/Ownable.sol\":1019:1026  address */\n      0x00\n        /* \"@openzeppelin/contracts/access/Ownable.sol\":1045:1051  _owner */\n      sload\n      sub(shl(0xa0, 0x01), 0x01)\n      and\n        /* \"@openzeppelin/contracts/utils/Context.sol\":665:675  msg.sender */\n      caller\n        /* \"@openzeppelin/contracts/access/Ownable.sol\":1185:1208  owner() == _msgSender() */\n      eq\n        /* \"@openzeppelin/contracts/access/Ownable.sol\":1177:1245  require(owner() == _msgSender(), \"Ownable: caller is not the owner\") */\n      tag_454\n      jumpi\n      mload(0x40)\n      shl(0xe5, 0x461bcd)\n      dup2\n      mstore\n      0x04\n      add\n      tag_201\n      swap1\n      tag_228\n      jump\t// in\n    tag_454:\n        /* \"contracts/libraries/TimeLock.sol\":1945:2188  modifier locked(string memory _fn) {... */\n      0x40\n      dup1\n      mload\n      dup1\n      dup3\n      add\n      swap1\n      swap2\n      mstore\n      0x11\n      dup2\n      mstore\n      shl(0x79, 0x3ab83230ba32a932bbb0b9322a37b5b2b7)\n      0x20\n      dup3\n      add\n      mstore\n      0x00\n        /* \"contracts/libraries/TimeLock.sol\":1999:2012  isLockEnabled */\n      sload\n      shl(0xa0, 0x01)\n      swap1\n      div\n      0xff\n      and\n        /* \"contracts/libraries/TimeLock.sol\":1998:2012  !isLockEnabled */\n      iszero\n      dup1\n        /* \"contracts/libraries/TimeLock.sol\":1998:2120  !isLockEnabled || (timelock[_fn] != 0 && timelock[_fn] <= block.timestamp && timelock[_fn] + _TIMELOCK >= block.timestamp) */\n      tag_461\n      jumpi\n      pop\n        /* \"contracts/libraries/TimeLock.sol\":2017:2025  timelock */\n      0x01\n        /* \"contracts/libraries/TimeLock.sol\":2026:2029  _fn */\n      dup2\n        /* \"contracts/libraries/TimeLock.sol\":2017:2030  timelock[_fn] */\n      mload(0x40)\n      tag_458\n      swap2\n      swap1\n      tag_478\n      jump\t// in\n    tag_458:\n      swap1\n      dup2\n      mstore\n      0x20\n      add\n      mload(0x40)\n      dup1\n      swap2\n      sub\n      swap1\n      keccak256\n      sload\n        /* \"contracts/libraries/TimeLock.sol\":2034:2035  0 */\n      0x00\n        /* \"contracts/libraries/TimeLock.sol\":2017:2035  timelock[_fn] != 0 */\n      eq\n      iszero\n        /* \"contracts/libraries/TimeLock.sol\":2017:2071  timelock[_fn] != 0 && timelock[_fn] <= block.timestamp */\n      dup1\n      iszero\n      tag_459\n      jumpi\n      pop\n        /* \"contracts/libraries/TimeLock.sol\":2056:2071  block.timestamp */\n      timestamp\n        /* \"contracts/libraries/TimeLock.sol\":2039:2047  timelock */\n      0x01\n        /* \"contracts/libraries/TimeLock.sol\":2048:2051  _fn */\n      dup3\n        /* \"contracts/libraries/TimeLock.sol\":2039:2052  timelock[_fn] */\n      mload(0x40)\n      tag_460\n      swap2\n      swap1\n      tag_478\n      jump\t// in\n    tag_460:\n      swap1\n      dup2\n      mstore\n      0x20\n      add\n      mload(0x40)\n      dup1\n      swap2\n      sub\n      swap1\n      keccak256\n      sload\n        /* \"contracts/libraries/TimeLock.sol\":2039:2071  timelock[_fn] <= block.timestamp */\n      gt\n      iszero\n        /* \"contracts/libraries/TimeLock.sol\":2017:2071  timelock[_fn] != 0 && timelock[_fn] <= block.timestamp */\n    tag_459:\n        /* \"contracts/libraries/TimeLock.sol\":2017:2119  timelock[_fn] != 0 && timelock[_fn] <= block.timestamp && timelock[_fn] + _TIMELOCK >= block.timestamp */\n      dup1\n      iszero\n      tag_461\n      jumpi\n      pop\n        /* \"contracts/libraries/TimeLock.sol\":2104:2119  block.timestamp */\n      timestamp\n        /* \"contracts/libraries/TimeLock.sol\":861:867  1 days */\n      0x015180\n        /* \"contracts/libraries/TimeLock.sol\":2075:2083  timelock */\n      0x01\n        /* \"contracts/libraries/TimeLock.sol\":2084:2087  _fn */\n      dup4\n        /* \"contracts/libraries/TimeLock.sol\":2075:2088  timelock[_fn] */\n      mload(0x40)\n      tag_462\n      swap2\n      swap1\n      tag_478\n      jump\t// in\n    tag_462:\n      swap1\n      dup2\n      mstore\n      0x20\n      add\n      mload(0x40)\n      dup1\n      swap2\n      sub\n      swap1\n      keccak256\n      sload\n        /* \"contracts/libraries/TimeLock.sol\":2075:2100  timelock[_fn] + _TIMELOCK */\n      tag_463\n      swap2\n      swap1\n      tag_212\n      jump\t// in\n    tag_463:\n        /* \"contracts/libraries/TimeLock.sol\":2075:2119  timelock[_fn] + _TIMELOCK >= block.timestamp */\n      lt\n      iszero\n        /* \"contracts/libraries/TimeLock.sol\":2017:2119  timelock[_fn] != 0 && timelock[_fn] <= block.timestamp && timelock[_fn] + _TIMELOCK >= block.timestamp */\n    tag_461:\n        /* \"contracts/libraries/TimeLock.sol\":1990:2143  require(!isLockEnabled || (timelock[_fn] != 0 && timelock[_fn] <= block.timestamp && timelock[_fn] + _TIMELOCK >= block.timestamp), \"Function is locked\") */\n      tag_464\n      jumpi\n      mload(0x40)\n      shl(0xe5, 0x461bcd)\n      dup2\n      mstore\n      0x04\n      add\n      tag_201\n      swap1\n      tag_215\n      jump\t// in\n    tag_464:\n        /* \"contracts/chains/binance/RewardSystem.sol\":4424:4436  _rewardToken */\n      sload(0x09)\n      sub(shl(0xa0, 0x01), 0x01)\n        /* \"contracts/chains/binance/RewardSystem.sol\":4409:4436  rewardToken != _rewardToken */\n      dup4\n      dup2\n      and\n        /* \"contracts/chains/binance/RewardSystem.sol\":4424:4436  _rewardToken */\n      swap2\n      and\n        /* \"contracts/chains/binance/RewardSystem.sol\":4409:4436  rewardToken != _rewardToken */\n      eq\n      iszero\n        /* \"contracts/chains/binance/RewardSystem.sol\":4401:4504  require(rewardToken != _rewardToken, \"ABOAT:updateRewardToken: You can't update the exact same tokens\") */\n      tag_467\n      jumpi\n      mload(0x40)\n      shl(0xe5, 0x461bcd)\n      dup2\n      mstore\n        /* \"#utility.yul\":11938:11940   */\n      0x20\n        /* \"contracts/chains/binance/RewardSystem.sol\":4401:4504  require(rewardToken != _rewardToken, \"ABOAT:updateRewardToken: You can't update the exact same tokens\") */\n      0x04\n      dup3\n      add\n        /* \"#utility.yul\":11920:11941   */\n      mstore\n        /* \"#utility.yul\":11977:11979   */\n      0x3f\n        /* \"#utility.yul\":11957:11975   */\n      0x24\n      dup3\n      add\n        /* \"#utility.yul\":11950:11980   */\n      mstore\n        /* \"#utility.yul\":12016:12050   */\n      0x41424f41543a757064617465526577617264546f6b656e3a20596f752063616e\n        /* \"#utility.yul\":11996:12014   */\n      0x44\n      dup3\n      add\n        /* \"#utility.yul\":11989:12051   */\n      mstore\n        /* \"#utility.yul\":12087:12120   */\n      0x277420757064617465207468652065786163742073616d6520746f6b656e7300\n        /* \"#utility.yul\":12067:12085   */\n      0x64\n      dup3\n      add\n        /* \"#utility.yul\":12060:12121   */\n      mstore\n        /* \"#utility.yul\":12138:12157   */\n      0x84\n      add\n        /* \"contracts/chains/binance/RewardSystem.sol\":4401:4504  require(rewardToken != _rewardToken, \"ABOAT:updateRewardToken: You can't update the exact same tokens\") */\n      tag_201\n        /* \"#utility.yul\":11736:12163   */\n      jump\n        /* \"contracts/chains/binance/RewardSystem.sol\":4401:4504  require(rewardToken != _rewardToken, \"ABOAT:updateRewardToken: You can't update the exact same tokens\") */\n    tag_467:\n        /* \"contracts/chains/binance/RewardSystem.sol\":4547:4559  _rewardToken */\n      sload(0x09)\n        /* \"contracts/chains/binance/RewardSystem.sol\":4520:4583  ChangedRewardToken(address(_rewardToken), address(rewardToken)) */\n      mload(0x40)\n      sub(shl(0xa0, 0x01), 0x01)\n      dup1\n      dup6\n      and\n      swap3\n        /* \"contracts/chains/binance/RewardSystem.sol\":4547:4559  _rewardToken */\n      and\n      swap1\n        /* \"contracts/chains/binance/RewardSystem.sol\":4520:4583  ChangedRewardToken(address(_rewardToken), address(rewardToken)) */\n      0xcb89265f21b9fc8710e9d9e42bbb37af1eb207454deca6d5e36787be2367c1d6\n      swap1\n        /* \"contracts/chains/binance/RewardSystem.sol\":4547:4559  _rewardToken */\n      0x00\n      swap1\n        /* \"contracts/chains/binance/RewardSystem.sol\":4520:4583  ChangedRewardToken(address(_rewardToken), address(rewardToken)) */\n      log3\n        /* \"contracts/chains/binance/RewardSystem.sol\":4594:4606  _rewardToken */\n      0x09\n        /* \"contracts/chains/binance/RewardSystem.sol\":4594:4620  _rewardToken = rewardToken */\n      dup1\n      sload\n      not(sub(shl(0xa0, 0x01), 0x01))\n      and\n      sub(shl(0xa0, 0x01), 0x01)\n      dup5\n      and\n      or\n      swap1\n      sstore\n        /* \"contracts/libraries/TimeLock.sol\":2164:2181  lockFunction(_fn) */\n      tag_221\n        /* \"contracts/libraries/TimeLock.sol\":2177:2180  _fn */\n      dup2\n        /* \"contracts/libraries/TimeLock.sol\":2164:2176  lockFunction */\n      tag_125\n        /* \"contracts/libraries/TimeLock.sol\":2164:2181  lockFunction(_fn) */\n      jump\t// in\n        /* \"contracts/libraries/TransferHelper.sol\":1026:1274  function safeTransferETH(address to, uint256 value) internal {... */\n    tag_250:\n        /* \"contracts/libraries/TransferHelper.sol\":1138:1150  new bytes(0) */\n      0x40\n      dup1\n      mload\n        /* \"contracts/libraries/TransferHelper.sol\":1098:1110  bool success */\n      0x00\n        /* \"contracts/libraries/TransferHelper.sol\":1138:1150  new bytes(0) */\n      dup1\n      dup3\n      mstore\n      0x20\n      dup3\n      add\n      swap1\n      swap3\n      mstore\n      sub(shl(0xa0, 0x01), 0x01)\n        /* \"contracts/libraries/TransferHelper.sol\":1116:1123  to.call */\n      dup5\n      and\n      swap1\n        /* \"contracts/libraries/TransferHelper.sol\":1131:1136  value */\n      dup4\n      swap1\n        /* \"contracts/libraries/TransferHelper.sol\":1116:1151  to.call{value: value}(new bytes(0)) */\n      mload(0x40)\n      tag_477\n      swap2\n      swap1\n      tag_478\n      jump\t// in\n    tag_477:\n      0x00\n      mload(0x40)\n      dup1\n      dup4\n      sub\n      dup2\n      dup6\n      dup8\n      gas\n      call\n      swap3\n      pop\n      pop\n      pop\n      returndatasize\n      dup1\n      0x00\n      dup2\n      eq\n      tag_481\n      jumpi\n      mload(0x40)\n      swap2\n      pop\n      and(add(returndatasize, 0x3f), not(0x1f))\n      dup3\n      add\n      0x40\n      mstore\n      returndatasize\n      dup3\n      mstore\n      returndatasize\n      0x00\n      0x20\n      dup5\n      add\n      returndatacopy\n      jump(tag_480)\n    tag_481:\n      0x60\n      swap2\n      pop\n    tag_480:\n      pop\n        /* \"contracts/libraries/TransferHelper.sol\":1097:1151  (bool success, ) = to.call{value: value}(new bytes(0)) */\n      pop\n      swap1\n      pop\n        /* \"contracts/libraries/TransferHelper.sol\":1182:1189  success */\n      dup1\n        /* \"contracts/libraries/TransferHelper.sol\":1161:1267  require(... */\n      tag_482\n      jumpi\n      mload(0x40)\n      shl(0xe5, 0x461bcd)\n      dup2\n      mstore\n        /* \"#utility.yul\":6365:6367   */\n      0x20\n        /* \"contracts/libraries/TransferHelper.sol\":1161:1267  require(... */\n      0x04\n      dup3\n      add\n        /* \"#utility.yul\":6347:6368   */\n      mstore\n        /* \"#utility.yul\":6404:6406   */\n      0x34\n        /* \"#utility.yul\":6384:6402   */\n      0x24\n      dup3\n      add\n        /* \"#utility.yul\":6377:6407   */\n      mstore\n        /* \"#utility.yul\":6443:6477   */\n      0x5472616e7366657248656c7065723a3a736166655472616e736665724554483a\n        /* \"#utility.yul\":6423:6441   */\n      0x44\n      dup3\n      add\n        /* \"#utility.yul\":6416:6478   */\n      mstore\n      shl(0x62, 0x08115512081d1c985b9cd9995c8819985a5b1959)\n        /* \"#utility.yul\":6494:6512   */\n      0x64\n      dup3\n      add\n        /* \"#utility.yul\":6487:6537   */\n      mstore\n        /* \"#utility.yul\":6554:6573   */\n      0x84\n      add\n        /* \"contracts/libraries/TransferHelper.sol\":1161:1267  require(... */\n      tag_201\n        /* \"#utility.yul\":6163:6579   */\n      jump\n        /* \"contracts/libraries/TransferHelper.sol\":1161:1267  require(... */\n    tag_482:\n        /* \"contracts/libraries/TransferHelper.sol\":1087:1274  {... */\n      pop\n        /* \"contracts/libraries/TransferHelper.sol\":1026:1274  function safeTransferETH(address to, uint256 value) internal {... */\n      pop\n      pop\n      jump\t// out\n        /* \"@openzeppelin/contracts/utils/math/SafeMath.sol\":3382:3478  function mul(uint256 a, uint256 b) internal pure returns (uint256) {... */\n    tag_291:\n        /* \"@openzeppelin/contracts/utils/math/SafeMath.sol\":3440:3447  uint256 */\n      0x00\n        /* \"@openzeppelin/contracts/utils/math/SafeMath.sol\":3466:3471  a * b */\n      tag_486\n        /* \"@openzeppelin/contracts/utils/math/SafeMath.sol\":3470:3471  b */\n      dup3\n        /* \"@openzeppelin/contracts/utils/math/SafeMath.sol\":3466:3467  a */\n      dup5\n        /* \"@openzeppelin/contracts/utils/math/SafeMath.sol\":3466:3471  a * b */\n      tag_487\n      jump\t// in\n    tag_486:\n        /* \"@openzeppelin/contracts/utils/math/SafeMath.sol\":3459:3471  return a * b */\n      swap4\n        /* \"@openzeppelin/contracts/utils/math/SafeMath.sol\":3382:3478  function mul(uint256 a, uint256 b) internal pure returns (uint256) {... */\n      swap3\n      pop\n      pop\n      pop\n      jump\t// out\n        /* \"@openzeppelin/contracts/utils/math/SafeMath.sol\":3767:3863  function div(uint256 a, uint256 b) internal pure returns (uint256) {... */\n    tag_292:\n        /* \"@openzeppelin/contracts/utils/math/SafeMath.sol\":3825:3832  uint256 */\n      0x00\n        /* \"@openzeppelin/contracts/utils/math/SafeMath.sol\":3851:3856  a / b */\n      tag_486\n        /* \"@openzeppelin/contracts/utils/math/SafeMath.sol\":3855:3856  b */\n      dup3\n        /* \"@openzeppelin/contracts/utils/math/SafeMath.sol\":3851:3852  a */\n      dup5\n        /* \"@openzeppelin/contracts/utils/math/SafeMath.sol\":3851:3856  a / b */\n      tag_490\n      jump\t// in\n        /* \"@openzeppelin/contracts/utils/math/SafeMath.sol\":3039:3135  function sub(uint256 a, uint256 b) internal pure returns (uint256) {... */\n    tag_294:\n        /* \"@openzeppelin/contracts/utils/math/SafeMath.sol\":3097:3104  uint256 */\n      0x00\n        /* \"@openzeppelin/contracts/utils/math/SafeMath.sol\":3123:3128  a - b */\n      tag_486\n        /* \"@openzeppelin/contracts/utils/math/SafeMath.sol\":3127:3128  b */\n      dup3\n        /* \"@openzeppelin/contracts/utils/math/SafeMath.sol\":3123:3124  a */\n      dup5\n        /* \"@openzeppelin/contracts/utils/math/SafeMath.sol\":3123:3128  a - b */\n      tag_493\n      jump\t// in\n        /* \"contracts/libraries/TransferHelper.sol\":210:594  function safeTransfer(... */\n    tag_302:\n        /* \"contracts/libraries/TransferHelper.sol\":382:427  abi.encodeWithSelector(0xa9059cbb, to, value) */\n      0x40\n      dup1\n      mload\n      sub(shl(0xa0, 0x01), 0x01)\n        /* \"#utility.yul\":4597:4629   */\n      dup5\n      dup2\n      and\n        /* \"contracts/libraries/TransferHelper.sol\":382:427  abi.encodeWithSelector(0xa9059cbb, to, value) */\n      0x24\n      dup4\n      add\n        /* \"#utility.yul\":4579:4630   */\n      mstore\n        /* \"#utility.yul\":4646:4664   */\n      0x44\n      dup1\n      dup4\n      add\n        /* \"#utility.yul\":4639:4673   */\n      dup6\n      swap1\n      mstore\n        /* \"contracts/libraries/TransferHelper.sol\":382:427  abi.encodeWithSelector(0xa9059cbb, to, value) */\n      dup4\n      mload\n      dup1\n      dup5\n      sub\n      swap1\n      swap2\n      add\n      dup2\n      mstore\n        /* \"#utility.yul\":4552:4570   */\n      0x64\n      swap1\n      swap3\n      add\n        /* \"contracts/libraries/TransferHelper.sol\":382:427  abi.encodeWithSelector(0xa9059cbb, to, value) */\n      dup4\n      mstore\n      0x20\n      dup3\n      add\n      dup1\n      mload\n      sub(shl(0xe0, 0x01), 0x01)\n      and\n      shl(0xe0, 0xa9059cbb)\n      or\n      swap1\n      mstore\n        /* \"contracts/libraries/TransferHelper.sol\":371:428  token.call(abi.encodeWithSelector(0xa9059cbb, to, value)) */\n      swap2\n      mload\n      0x00\n      swap3\n      dup4\n      swap3\n        /* \"contracts/libraries/TransferHelper.sol\":371:381  token.call */\n      swap1\n      dup8\n      and\n      swap2\n        /* \"contracts/libraries/TransferHelper.sol\":371:428  token.call(abi.encodeWithSelector(0xa9059cbb, to, value)) */\n      tag_497\n      swap2\n        /* \"contracts/libraries/TransferHelper.sol\":382:427  abi.encodeWithSelector(0xa9059cbb, to, value) */\n      swap1\n        /* \"contracts/libraries/TransferHelper.sol\":371:428  token.call(abi.encodeWithSelector(0xa9059cbb, to, value)) */\n      tag_478\n      jump\t// in\n    tag_497:\n      0x00\n      mload(0x40)\n      dup1\n      dup4\n      sub\n      dup2\n      0x00\n      dup7\n      gas\n      call\n      swap2\n      pop\n      pop\n      returndatasize\n      dup1\n      0x00\n      dup2\n      eq\n      tag_500\n      jumpi\n      mload(0x40)\n      swap2\n      pop\n      and(add(returndatasize, 0x3f), not(0x1f))\n      dup3\n      add\n      0x40\n      mstore\n      returndatasize\n      dup3\n      mstore\n      returndatasize\n      0x00\n      0x20\n      dup5\n      add\n      returndatacopy\n      jump(tag_499)\n    tag_500:\n      0x60\n      swap2\n      pop\n    tag_499:\n      pop\n        /* \"contracts/libraries/TransferHelper.sol\":323:428  (bool success, bytes memory data) =... */\n      swap2\n      pop\n      swap2\n      pop\n        /* \"contracts/libraries/TransferHelper.sol\":459:466  success */\n      dup2\n        /* \"contracts/libraries/TransferHelper.sol\":459:516  success && (data.length == 0 || abi.decode(data, (bool))) */\n      dup1\n      iszero\n      tag_503\n      jumpi\n      pop\n        /* \"contracts/libraries/TransferHelper.sol\":471:482  data.length */\n      dup1\n      mload\n        /* \"contracts/libraries/TransferHelper.sol\":471:487  data.length == 0 */\n      iszero\n      dup1\n        /* \"contracts/libraries/TransferHelper.sol\":471:515  data.length == 0 || abi.decode(data, (bool)) */\n      tag_503\n      jumpi\n      pop\n        /* \"contracts/libraries/TransferHelper.sol\":502:506  data */\n      dup1\n        /* \"contracts/libraries/TransferHelper.sol\":491:515  abi.decode(data, (bool)) */\n      dup1\n      0x20\n      add\n      swap1\n      mload\n      dup2\n      add\n      swap1\n      tag_503\n      swap2\n      swap1\n      tag_504\n      jump\t// in\n    tag_503:\n        /* \"contracts/libraries/TransferHelper.sol\":438:587  require(... */\n      tag_505\n      jumpi\n      mload(0x40)\n      shl(0xe5, 0x461bcd)\n      dup2\n      mstore\n        /* \"#utility.yul\":12858:12860   */\n      0x20\n        /* \"contracts/libraries/TransferHelper.sol\":438:587  require(... */\n      0x04\n      dup3\n      add\n        /* \"#utility.yul\":12840:12861   */\n      mstore\n        /* \"#utility.yul\":12897:12899   */\n      0x2d\n        /* \"#utility.yul\":12877:12895   */\n      0x24\n      dup3\n      add\n        /* \"#utility.yul\":12870:12900   */\n      mstore\n        /* \"#utility.yul\":12936:12970   */\n      0x5472616e7366657248656c7065723a3a736166655472616e736665723a207472\n        /* \"#utility.yul\":12916:12934   */\n      0x44\n      dup3\n      add\n        /* \"#utility.yul\":12909:12971   */\n      mstore\n      shl(0x9a, 0x185b9cd9995c8819985a5b1959)\n        /* \"#utility.yul\":12987:13005   */\n      0x64\n      dup3\n      add\n        /* \"#utility.yul\":12980:13023   */\n      mstore\n        /* \"#utility.yul\":13040:13059   */\n      0x84\n      add\n        /* \"contracts/libraries/TransferHelper.sol\":438:587  require(... */\n      tag_201\n        /* \"#utility.yul\":12656:13065   */\n      jump\n        /* \"contracts/libraries/TransferHelper.sol\":438:587  require(... */\n    tag_505:\n        /* \"contracts/libraries/TransferHelper.sol\":313:594  {... */\n      pop\n      pop\n        /* \"contracts/libraries/TransferHelper.sol\":210:594  function safeTransfer(... */\n      pop\n      pop\n      pop\n      jump\t// out\n        /* \"contracts/chains/binance/RewardSystem.sol\":8636:9195  function swapTokensForEth(uint256 tokenAmount) private {\r... */\n    tag_310:\n        /* \"contracts/chains/binance/RewardSystem.sol\":8784:8800  new address[](2) */\n      0x40\n      dup1\n      mload\n        /* \"contracts/chains/binance/RewardSystem.sol\":8798:8799  2 */\n      0x02\n        /* \"contracts/chains/binance/RewardSystem.sol\":8784:8800  new address[](2) */\n      dup1\n      dup3\n      mstore\n      0x60\n      dup3\n      add\n      dup4\n      mstore\n        /* \"contracts/chains/binance/RewardSystem.sol\":8760:8781  address[] memory path */\n      0x00\n      swap3\n        /* \"contracts/chains/binance/RewardSystem.sol\":8784:8800  new address[](2) */\n      0x20\n      dup4\n      add\n      swap1\n      dup1\n      calldatasize\n      dup4\n      calldatacopy\n      pop\n      pop\n        /* \"contracts/chains/binance/RewardSystem.sol\":8829:8841  _rewardToken */\n      sload(0x09)\n        /* \"contracts/chains/binance/RewardSystem.sol\":8811:8818  path[0] */\n      dup3\n      mload\n      swap3\n      swap4\n      pop\n      sub(shl(0xa0, 0x01), 0x01)\n        /* \"contracts/chains/binance/RewardSystem.sol\":8829:8841  _rewardToken */\n      and\n      swap2\n        /* \"contracts/chains/binance/RewardSystem.sol\":8811:8818  path[0] */\n      dup4\n      swap2\n      pop\n        /* \"contracts/chains/binance/RewardSystem.sol\":8829:8841  _rewardToken */\n      0x00\n      swap1\n        /* \"contracts/chains/binance/RewardSystem.sol\":8811:8818  path[0] */\n      tag_513\n      jumpi\n      tag_513\n      tag_514\n      jump\t// in\n    tag_513:\n      sub(shl(0xa0, 0x01), 0x01)\n        /* \"contracts/chains/binance/RewardSystem.sol\":8811:8842  path[0] = address(_rewardToken) */\n      swap3\n      dup4\n      and\n        /* \"contracts/chains/binance/RewardSystem.sol\":8811:8818  path[0] */\n      0x20\n      swap2\n      dup3\n      mul\n      swap3\n      swap1\n      swap3\n      add\n      add\n        /* \"contracts/chains/binance/RewardSystem.sol\":8811:8842  path[0] = address(_rewardToken) */\n      mstore\n        /* \"contracts/chains/binance/RewardSystem.sol\":8863:8868  _weth */\n      sload(0x0c)\n        /* \"contracts/chains/binance/RewardSystem.sol\":8853:8860  path[1] */\n      dup3\n      mload\n        /* \"contracts/chains/binance/RewardSystem.sol\":8863:8868  _weth */\n      swap2\n      and\n      swap1\n        /* \"contracts/chains/binance/RewardSystem.sol\":8853:8857  path */\n      dup3\n      swap1\n        /* \"contracts/chains/binance/RewardSystem.sol\":8863:8868  _weth */\n      0x01\n      swap1\n        /* \"contracts/chains/binance/RewardSystem.sol\":8853:8860  path[1] */\n      dup2\n      lt\n      tag_516\n      jumpi\n      tag_516\n      tag_514\n      jump\t// in\n    tag_516:\n      sub(shl(0xa0, 0x01), 0x01)\n        /* \"contracts/chains/binance/RewardSystem.sol\":8853:8868  path[1] = _weth */\n      swap3\n      dup4\n      and\n        /* \"contracts/chains/binance/RewardSystem.sol\":8853:8860  path[1] */\n      0x20\n      swap2\n      dup3\n      mul\n      swap3\n      swap1\n      swap3\n      add\n      add\n        /* \"contracts/chains/binance/RewardSystem.sol\":8853:8868  path[1] = _weth */\n      mstore\n        /* \"contracts/chains/binance/RewardSystem.sol\":8881:8893  _rewardToken */\n      sload(0x09)\n        /* \"contracts/chains/binance/RewardSystem.sol\":8910:8917  _router */\n      sload(0x0d)\n        /* \"contracts/chains/binance/RewardSystem.sol\":8881:8932  _rewardToken.approve(address(_router), tokenAmount) */\n      mload(0x40)\n      shl(0xe0, 0x095ea7b3)\n      dup2\n      mstore\n        /* \"contracts/chains/binance/RewardSystem.sol\":8910:8917  _router */\n      swap1\n      dup4\n      and\n        /* \"contracts/chains/binance/RewardSystem.sol\":8881:8932  _rewardToken.approve(address(_router), tokenAmount) */\n      0x04\n      dup3\n      add\n        /* \"#utility.yul\":4579:4630   */\n      mstore\n        /* \"#utility.yul\":4646:4664   */\n      0x24\n      dup2\n      add\n        /* \"#utility.yul\":4639:4673   */\n      dup6\n      swap1\n      mstore\n        /* \"contracts/chains/binance/RewardSystem.sol\":8881:8893  _rewardToken */\n      swap2\n      and\n      swap1\n        /* \"contracts/chains/binance/RewardSystem.sol\":8881:8901  _rewardToken.approve */\n      0x095ea7b3\n      swap1\n        /* \"#utility.yul\":4552:4570   */\n      0x44\n      add\n        /* \"contracts/chains/binance/RewardSystem.sol\":8881:8932  _rewardToken.approve(address(_router), tokenAmount) */\n      0x20\n      mload(0x40)\n      dup1\n      dup4\n      sub\n      dup2\n      0x00\n      dup8\n      dup1\n      extcodesize\n      iszero\n      dup1\n      iszero\n      tag_518\n      jumpi\n      0x00\n      dup1\n      revert\n    tag_518:\n      pop\n      gas\n      call\n      iszero\n      dup1\n      iszero\n      tag_520\n      jumpi\n      returndatasize\n      0x00\n      dup1\n      returndatacopy\n      revert(0x00, returndatasize)\n    tag_520:\n      pop\n      pop\n      pop\n      pop\n      mload(0x40)\n      returndatasize\n      not(0x1f)\n      0x1f\n      dup3\n      add\n      and\n      dup3\n      add\n      dup1\n      0x40\n      mstore\n      pop\n      dup2\n      add\n      swap1\n      tag_521\n      swap2\n      swap1\n      tag_504\n      jump\t// in\n    tag_521:\n      pop\n        /* \"contracts/chains/binance/RewardSystem.sol\":8971:8978  _router */\n      sload(0x0d)\n        /* \"contracts/chains/binance/RewardSystem.sol\":8971:9187  _router.swapExactTokensForETHSupportingFeeOnTransferTokens(\r... */\n      mload(0x40)\n      shl(0xe0, 0x791ac947)\n      dup2\n      mstore\n      sub(shl(0xa0, 0x01), 0x01)\n        /* \"contracts/chains/binance/RewardSystem.sol\":8971:8978  _router */\n      swap1\n      swap2\n      and\n      swap1\n        /* \"contracts/chains/binance/RewardSystem.sol\":8971:9029  _router.swapExactTokensForETHSupportingFeeOnTransferTokens */\n      0x791ac947\n      swap1\n        /* \"contracts/chains/binance/RewardSystem.sol\":8971:9187  _router.swapExactTokensForETHSupportingFeeOnTransferTokens(\r... */\n      tag_522\n      swap1\n        /* \"contracts/chains/binance/RewardSystem.sol\":9044:9055  tokenAmount */\n      dup6\n      swap1\n        /* \"contracts/chains/binance/RewardSystem.sol\":8971:8978  _router */\n      0x00\n      swap1\n        /* \"contracts/chains/binance/RewardSystem.sol\":9114:9118  path */\n      dup7\n      swap1\n        /* \"contracts/chains/binance/RewardSystem.sol\":9141:9145  this */\n      address\n      swap1\n        /* \"contracts/chains/binance/RewardSystem.sol\":9161:9176  block.timestamp */\n      timestamp\n      swap1\n        /* \"contracts/chains/binance/RewardSystem.sol\":8971:9187  _router.swapExactTokensForETHSupportingFeeOnTransferTokens(\r... */\n      0x04\n      add\n      tag_523\n      jump\t// in\n    tag_522:\n      0x00\n      mload(0x40)\n      dup1\n      dup4\n      sub\n      dup2\n      0x00\n      dup8\n      dup1\n      extcodesize\n      iszero\n      dup1\n      iszero\n      tag_524\n      jumpi\n      0x00\n      dup1\n      revert\n    tag_524:\n      pop\n      gas\n      call\n      iszero\n      dup1\n      iszero\n      tag_526\n      jumpi\n      returndatasize\n      0x00\n      dup1\n      returndatacopy\n      revert(0x00, returndatasize)\n    tag_526:\n      pop\n      pop\n      pop\n      pop\n        /* \"contracts/chains/binance/RewardSystem.sol\":8691:9195  {\r... */\n      pop\n        /* \"contracts/chains/binance/RewardSystem.sol\":8636:9195  function swapTokensForEth(uint256 tokenAmount) private {\r... */\n      pop\n      jump\t// out\n        /* \"@openzeppelin/contracts/access/Ownable.sol\":2041:2210  function _setOwner(address newOwner) private {... */\n    tag_353:\n        /* \"@openzeppelin/contracts/access/Ownable.sol\":2096:2112  address oldOwner */\n      0x00\n        /* \"@openzeppelin/contracts/access/Ownable.sol\":2115:2121  _owner */\n      dup1\n      sload\n      sub(shl(0xa0, 0x01), 0x01)\n        /* \"@openzeppelin/contracts/access/Ownable.sol\":2131:2148  _owner = newOwner */\n      dup4\n      dup2\n      and\n      not(sub(shl(0xa0, 0x01), 0x01))\n      dup4\n      and\n      dup2\n      or\n      dup5\n      sstore\n        /* \"@openzeppelin/contracts/access/Ownable.sol\":2163:2203  OwnershipTransferred(oldOwner, newOwner) */\n      mload(0x40)\n        /* \"@openzeppelin/contracts/access/Ownable.sol\":2115:2121  _owner */\n      swap2\n      swap1\n      swap3\n      and\n      swap3\n      dup4\n      swap2\n        /* \"@openzeppelin/contracts/access/Ownable.sol\":2163:2203  OwnershipTransferred(oldOwner, newOwner) */\n      0x8be0079c531659141344cd1fd0a4f28419497f9722a3daafe3b4186f6b6457e0\n      swap2\n        /* \"@openzeppelin/contracts/access/Ownable.sol\":2096:2112  address oldOwner */\n      swap1\n        /* \"@openzeppelin/contracts/access/Ownable.sol\":2163:2203  OwnershipTransferred(oldOwner, newOwner) */\n      log3\n        /* \"@openzeppelin/contracts/access/Ownable.sol\":2086:2210  {... */\n      pop\n        /* \"@openzeppelin/contracts/access/Ownable.sol\":2041:2210  function _setOwner(address newOwner) private {... */\n      pop\n      jump\t// out\n        /* \"#utility.yul\":14:261   */\n    tag_54:\n        /* \"#utility.yul\":73:79   */\n      0x00\n        /* \"#utility.yul\":126:128   */\n      0x20\n        /* \"#utility.yul\":114:123   */\n      dup3\n        /* \"#utility.yul\":105:112   */\n      dup5\n        /* \"#utility.yul\":101:124   */\n      sub\n        /* \"#utility.yul\":97:129   */\n      slt\n        /* \"#utility.yul\":94:146   */\n      iszero\n      tag_530\n      jumpi\n        /* \"#utility.yul\":142:143   */\n      0x00\n        /* \"#utility.yul\":139:140   */\n      dup1\n        /* \"#utility.yul\":132:144   */\n      revert\n        /* \"#utility.yul\":94:146   */\n    tag_530:\n        /* \"#utility.yul\":181:190   */\n      dup2\n        /* \"#utility.yul\":168:191   */\n      calldataload\n        /* \"#utility.yul\":200:231   */\n      tag_486\n        /* \"#utility.yul\":225:230   */\n      dup2\n        /* \"#utility.yul\":200:231   */\n      tag_532\n      jump\t// in\n        /* \"#utility.yul\":266:654   */\n    tag_70:\n        /* \"#utility.yul\":334:340   */\n      0x00\n        /* \"#utility.yul\":342:348   */\n      dup1\n        /* \"#utility.yul\":395:397   */\n      0x40\n        /* \"#utility.yul\":383:392   */\n      dup4\n        /* \"#utility.yul\":374:381   */\n      dup6\n        /* \"#utility.yul\":370:393   */\n      sub\n        /* \"#utility.yul\":366:398   */\n      slt\n        /* \"#utility.yul\":363:415   */\n      iszero\n      tag_534\n      jumpi\n        /* \"#utility.yul\":411:412   */\n      0x00\n        /* \"#utility.yul\":408:409   */\n      dup1\n        /* \"#utility.yul\":401:413   */\n      revert\n        /* \"#utility.yul\":363:415   */\n    tag_534:\n        /* \"#utility.yul\":450:459   */\n      dup3\n        /* \"#utility.yul\":437:460   */\n      calldataload\n        /* \"#utility.yul\":469:500   */\n      tag_535\n        /* \"#utility.yul\":494:499   */\n      dup2\n        /* \"#utility.yul\":469:500   */\n      tag_532\n      jump\t// in\n    tag_535:\n        /* \"#utility.yul\":519:524   */\n      swap2\n      pop\n        /* \"#utility.yul\":576:578   */\n      0x20\n        /* \"#utility.yul\":561:579   */\n      dup4\n      add\n        /* \"#utility.yul\":548:580   */\n      calldataload\n        /* \"#utility.yul\":589:622   */\n      tag_536\n        /* \"#utility.yul\":548:580   */\n      dup2\n        /* \"#utility.yul\":589:622   */\n      tag_532\n      jump\t// in\n    tag_536:\n        /* \"#utility.yul\":641:648   */\n      dup1\n        /* \"#utility.yul\":631:648   */\n      swap2\n      pop\n      pop\n        /* \"#utility.yul\":266:654   */\n      swap3\n      pop\n      swap3\n      swap1\n      pop\n      jump\t// out\n        /* \"#utility.yul\":659:936   */\n    tag_504:\n        /* \"#utility.yul\":726:732   */\n      0x00\n        /* \"#utility.yul\":779:781   */\n      0x20\n        /* \"#utility.yul\":767:776   */\n      dup3\n        /* \"#utility.yul\":758:765   */\n      dup5\n        /* \"#utility.yul\":754:777   */\n      sub\n        /* \"#utility.yul\":750:782   */\n      slt\n        /* \"#utility.yul\":747:799   */\n      iszero\n      tag_538\n      jumpi\n        /* \"#utility.yul\":795:796   */\n      0x00\n        /* \"#utility.yul\":792:793   */\n      dup1\n        /* \"#utility.yul\":785:797   */\n      revert\n        /* \"#utility.yul\":747:799   */\n    tag_538:\n        /* \"#utility.yul\":827:836   */\n      dup2\n        /* \"#utility.yul\":821:837   */\n      mload\n        /* \"#utility.yul\":880:885   */\n      dup1\n        /* \"#utility.yul\":873:886   */\n      iszero\n        /* \"#utility.yul\":866:887   */\n      iszero\n        /* \"#utility.yul\":859:864   */\n      dup2\n        /* \"#utility.yul\":856:888   */\n      eq\n        /* \"#utility.yul\":846:906   */\n      tag_486\n      jumpi\n        /* \"#utility.yul\":902:903   */\n      0x00\n        /* \"#utility.yul\":899:900   */\n      dup1\n        /* \"#utility.yul\":892:904   */\n      revert\n        /* \"#utility.yul\":1486:2408   */\n    tag_124:\n        /* \"#utility.yul\":1555:1561   */\n      0x00\n        /* \"#utility.yul\":1608:1610   */\n      0x20\n        /* \"#utility.yul\":1596:1605   */\n      dup3\n        /* \"#utility.yul\":1587:1594   */\n      dup5\n        /* \"#utility.yul\":1583:1606   */\n      sub\n        /* \"#utility.yul\":1579:1611   */\n      slt\n        /* \"#utility.yul\":1576:1628   */\n      iszero\n      tag_547\n      jumpi\n        /* \"#utility.yul\":1624:1625   */\n      0x00\n        /* \"#utility.yul\":1621:1622   */\n      dup1\n        /* \"#utility.yul\":1614:1626   */\n      revert\n        /* \"#utility.yul\":1576:1628   */\n    tag_547:\n        /* \"#utility.yul\":1664:1673   */\n      dup2\n        /* \"#utility.yul\":1651:1674   */\n      calldataload\n        /* \"#utility.yul\":1693:1711   */\n      0xffffffffffffffff\n        /* \"#utility.yul\":1734:1736   */\n      dup1\n        /* \"#utility.yul\":1726:1732   */\n      dup3\n        /* \"#utility.yul\":1723:1737   */\n      gt\n        /* \"#utility.yul\":1720:1754   */\n      iszero\n      tag_548\n      jumpi\n        /* \"#utility.yul\":1750:1751   */\n      0x00\n        /* \"#utility.yul\":1747:1748   */\n      dup1\n        /* \"#utility.yul\":1740:1752   */\n      revert\n        /* \"#utility.yul\":1720:1754   */\n    tag_548:\n        /* \"#utility.yul\":1788:1794   */\n      dup2\n        /* \"#utility.yul\":1777:1786   */\n      dup5\n        /* \"#utility.yul\":1773:1795   */\n      add\n        /* \"#utility.yul\":1763:1795   */\n      swap2\n      pop\n        /* \"#utility.yul\":1833:1840   */\n      dup5\n        /* \"#utility.yul\":1826:1830   */\n      0x1f\n        /* \"#utility.yul\":1822:1824   */\n      dup4\n        /* \"#utility.yul\":1818:1831   */\n      add\n        /* \"#utility.yul\":1814:1841   */\n      slt\n        /* \"#utility.yul\":1804:1859   */\n      tag_549\n      jumpi\n        /* \"#utility.yul\":1855:1856   */\n      0x00\n        /* \"#utility.yul\":1852:1853   */\n      dup1\n        /* \"#utility.yul\":1845:1857   */\n      revert\n        /* \"#utility.yul\":1804:1859   */\n    tag_549:\n        /* \"#utility.yul\":1891:1893   */\n      dup2\n        /* \"#utility.yul\":1878:1894   */\n      calldataload\n        /* \"#utility.yul\":1913:1915   */\n      dup2\n        /* \"#utility.yul\":1909:1911   */\n      dup2\n        /* \"#utility.yul\":1906:1916   */\n      gt\n        /* \"#utility.yul\":1903:1939   */\n      iszero\n      tag_551\n      jumpi\n        /* \"#utility.yul\":1919:1937   */\n      tag_551\n      tag_475\n      jump\t// in\n    tag_551:\n        /* \"#utility.yul\":1994:1996   */\n      0x40\n        /* \"#utility.yul\":1988:1997   */\n      mload\n        /* \"#utility.yul\":1962:1964   */\n      0x1f\n        /* \"#utility.yul\":2048:2061   */\n      dup3\n      add\n      not(0x1f)\n        /* \"#utility.yul\":2044:2066   */\n      swap1\n      dup2\n      and\n        /* \"#utility.yul\":2068:2070   */\n      0x3f\n        /* \"#utility.yul\":2040:2071   */\n      add\n        /* \"#utility.yul\":2036:2076   */\n      and\n        /* \"#utility.yul\":2024:2077   */\n      dup2\n      add\n      swap1\n        /* \"#utility.yul\":2092:2110   */\n      dup4\n      dup3\n      gt\n        /* \"#utility.yul\":2112:2134   */\n      dup2\n      dup4\n      lt\n        /* \"#utility.yul\":2089:2135   */\n      or\n        /* \"#utility.yul\":2086:2158   */\n      iszero\n      tag_553\n      jumpi\n        /* \"#utility.yul\":2138:2156   */\n      tag_553\n      tag_475\n      jump\t// in\n    tag_553:\n        /* \"#utility.yul\":2178:2188   */\n      dup2\n        /* \"#utility.yul\":2174:2176   */\n      0x40\n        /* \"#utility.yul\":2167:2189   */\n      mstore\n        /* \"#utility.yul\":2213:2215   */\n      dup3\n        /* \"#utility.yul\":2205:2211   */\n      dup2\n        /* \"#utility.yul\":2198:2216   */\n      mstore\n        /* \"#utility.yul\":2253:2260   */\n      dup8\n        /* \"#utility.yul\":2248:2250   */\n      0x20\n        /* \"#utility.yul\":2243:2245   */\n      dup5\n        /* \"#utility.yul\":2239:2241   */\n      dup8\n        /* \"#utility.yul\":2235:2246   */\n      add\n        /* \"#utility.yul\":2231:2251   */\n      add\n        /* \"#utility.yul\":2228:2261   */\n      gt\n        /* \"#utility.yul\":2225:2278   */\n      iszero\n      tag_554\n      jumpi\n        /* \"#utility.yul\":2274:2275   */\n      0x00\n        /* \"#utility.yul\":2271:2272   */\n      dup1\n        /* \"#utility.yul\":2264:2276   */\n      revert\n        /* \"#utility.yul\":2225:2278   */\n    tag_554:\n        /* \"#utility.yul\":2330:2332   */\n      dup3\n        /* \"#utility.yul\":2325:2327   */\n      0x20\n        /* \"#utility.yul\":2321:2323   */\n      dup7\n        /* \"#utility.yul\":2317:2328   */\n      add\n        /* \"#utility.yul\":2312:2314   */\n      0x20\n        /* \"#utility.yul\":2304:2310   */\n      dup4\n        /* \"#utility.yul\":2300:2315   */\n      add\n        /* \"#utility.yul\":2287:2333   */\n      calldatacopy\n        /* \"#utility.yul\":2375:2376   */\n      0x00\n        /* \"#utility.yul\":2353:2368   */\n      swap3\n      dup2\n      add\n        /* \"#utility.yul\":2370:2372   */\n      0x20\n        /* \"#utility.yul\":2349:2373   */\n      add\n        /* \"#utility.yul\":2342:2377   */\n      swap3\n      swap1\n      swap3\n      mstore\n      pop\n        /* \"#utility.yul\":2357:2363   */\n      swap6\n        /* \"#utility.yul\":1486:2408   */\n      swap5\n      pop\n      pop\n      pop\n      pop\n      pop\n      jump\t// out\n        /* \"#utility.yul\":2413:2593   */\n    tag_59:\n        /* \"#utility.yul\":2472:2478   */\n      0x00\n        /* \"#utility.yul\":2525:2527   */\n      0x20\n        /* \"#utility.yul\":2513:2522   */\n      dup3\n        /* \"#utility.yul\":2504:2511   */\n      dup5\n        /* \"#utility.yul\":2500:2523   */\n      sub\n        /* \"#utility.yul\":2496:2528   */\n      slt\n        /* \"#utility.yul\":2493:2545   */\n      iszero\n      tag_556\n      jumpi\n        /* \"#utility.yul\":2541:2542   */\n      0x00\n        /* \"#utility.yul\":2538:2539   */\n      dup1\n        /* \"#utility.yul\":2531:2543   */\n      revert\n        /* \"#utility.yul\":2493:2545   */\n    tag_556:\n      pop\n        /* \"#utility.yul\":2564:2587   */\n      calldataload\n      swap2\n        /* \"#utility.yul\":2413:2593   */\n      swap1\n      pop\n      jump\t// out\n        /* \"#utility.yul\":2598:2782   */\n    tag_450:\n        /* \"#utility.yul\":2668:2674   */\n      0x00\n        /* \"#utility.yul\":2721:2723   */\n      0x20\n        /* \"#utility.yul\":2709:2718   */\n      dup3\n        /* \"#utility.yul\":2700:2707   */\n      dup5\n        /* \"#utility.yul\":2696:2719   */\n      sub\n        /* \"#utility.yul\":2692:2724   */\n      slt\n        /* \"#utility.yul\":2689:2741   */\n      iszero\n      tag_558\n      jumpi\n        /* \"#utility.yul\":2737:2738   */\n      0x00\n        /* \"#utility.yul\":2734:2735   */\n      dup1\n        /* \"#utility.yul\":2727:2739   */\n      revert\n        /* \"#utility.yul\":2689:2741   */\n    tag_558:\n      pop\n        /* \"#utility.yul\":2760:2776   */\n      mload\n      swap2\n        /* \"#utility.yul\":2598:2782   */\n      swap1\n      pop\n      jump\t// out\n        /* \"#utility.yul\":2787:3102   */\n    tag_168:\n        /* \"#utility.yul\":2855:2861   */\n      0x00\n        /* \"#utility.yul\":2863:2869   */\n      dup1\n        /* \"#utility.yul\":2916:2918   */\n      0x40\n        /* \"#utility.yul\":2904:2913   */\n      dup4\n        /* \"#utility.yul\":2895:2902   */\n      dup6\n        /* \"#utility.yul\":2891:2914   */\n      sub\n        /* \"#utility.yul\":2887:2919   */\n      slt\n        /* \"#utility.yul\":2884:2936   */\n      iszero\n      tag_560\n      jumpi\n        /* \"#utility.yul\":2932:2933   */\n      0x00\n        /* \"#utility.yul\":2929:2930   */\n      dup1\n        /* \"#utility.yul\":2922:2934   */\n      revert\n        /* \"#utility.yul\":2884:2936   */\n    tag_560:\n        /* \"#utility.yul\":2968:2977   */\n      dup3\n        /* \"#utility.yul\":2955:2978   */\n      calldataload\n        /* \"#utility.yul\":2945:2978   */\n      swap2\n      pop\n        /* \"#utility.yul\":3028:3030   */\n      0x20\n        /* \"#utility.yul\":3017:3026   */\n      dup4\n        /* \"#utility.yul\":3013:3031   */\n      add\n        /* \"#utility.yul\":3000:3032   */\n      calldataload\n        /* \"#utility.yul\":3041:3072   */\n      tag_536\n        /* \"#utility.yul\":3066:3071   */\n      dup2\n        /* \"#utility.yul\":3041:3072   */\n      tag_532\n      jump\t// in\n        /* \"#utility.yul\":3107:3632   */\n    tag_86:\n        /* \"#utility.yul\":3193:3199   */\n      0x00\n        /* \"#utility.yul\":3201:3207   */\n      dup1\n        /* \"#utility.yul\":3209:3215   */\n      0x00\n        /* \"#utility.yul\":3217:3223   */\n      dup1\n        /* \"#utility.yul\":3270:3273   */\n      0x80\n        /* \"#utility.yul\":3258:3267   */\n      dup6\n        /* \"#utility.yul\":3249:3256   */\n      dup8\n        /* \"#utility.yul\":3245:3268   */\n      sub\n        /* \"#utility.yul\":3241:3274   */\n      slt\n        /* \"#utility.yul\":3238:3291   */\n      iszero\n      tag_563\n      jumpi\n        /* \"#utility.yul\":3287:3288   */\n      0x00\n        /* \"#utility.yul\":3284:3285   */\n      dup1\n        /* \"#utility.yul\":3277:3289   */\n      revert\n        /* \"#utility.yul\":3238:3291   */\n    tag_563:\n        /* \"#utility.yul\":3323:3332   */\n      dup5\n        /* \"#utility.yul\":3310:3333   */\n      calldataload\n        /* \"#utility.yul\":3300:3333   */\n      swap4\n      pop\n        /* \"#utility.yul\":3383:3385   */\n      0x20\n        /* \"#utility.yul\":3372:3381   */\n      dup6\n        /* \"#utility.yul\":3368:3386   */\n      add\n        /* \"#utility.yul\":3355:3387   */\n      calldataload\n        /* \"#utility.yul\":3396:3427   */\n      tag_564\n        /* \"#utility.yul\":3421:3426   */\n      dup2\n        /* \"#utility.yul\":3396:3427   */\n      tag_532\n      jump\t// in\n    tag_564:\n        /* \"#utility.yul\":3446:3451   */\n      swap3\n      pop\n        /* \"#utility.yul\":3498:3500   */\n      0x40\n        /* \"#utility.yul\":3483:3501   */\n      dup6\n      add\n        /* \"#utility.yul\":3470:3502   */\n      calldataload\n      swap2\n      pop\n        /* \"#utility.yul\":3554:3556   */\n      0x60\n        /* \"#utility.yul\":3539:3557   */\n      dup6\n      add\n        /* \"#utility.yul\":3526:3558   */\n      calldataload\n        /* \"#utility.yul\":3567:3600   */\n      tag_565\n        /* \"#utility.yul\":3526:3558   */\n      dup2\n        /* \"#utility.yul\":3567:3600   */\n      tag_532\n      jump\t// in\n    tag_565:\n        /* \"#utility.yul\":3107:3632   */\n      swap4\n      swap7\n      swap3\n      swap6\n      pop\n      swap1\n      swap4\n      pop\n      pop\n      jump\t// out\n        /* \"#utility.yul\":3637:3911   */\n    tag_478:\n        /* \"#utility.yul\":3766:3769   */\n      0x00\n        /* \"#utility.yul\":3804:3810   */\n      dup3\n        /* \"#utility.yul\":3798:3811   */\n      mload\n        /* \"#utility.yul\":3820:3873   */\n      tag_567\n        /* \"#utility.yul\":3866:3872   */\n      dup2\n        /* \"#utility.yul\":3861:3864   */\n      dup5\n        /* \"#utility.yul\":3854:3858   */\n      0x20\n        /* \"#utility.yul\":3846:3852   */\n      dup8\n        /* \"#utility.yul\":3842:3859   */\n      add\n        /* \"#utility.yul\":3820:3873   */\n      tag_568\n      jump\t// in\n    tag_567:\n        /* \"#utility.yul\":3889:3905   */\n      swap2\n      swap1\n      swap2\n      add\n      swap3\n        /* \"#utility.yul\":3637:3911   */\n      swap2\n      pop\n      pop\n      jump\t// out\n        /* \"#utility.yul\":8738:9094   */\n    tag_228:\n        /* \"#utility.yul\":8940:8942   */\n      0x20\n        /* \"#utility.yul\":8922:8943   */\n      dup1\n      dup3\n      mstore\n        /* \"#utility.yul\":8959:8977   */\n      dup2\n      dup2\n      add\n        /* \"#utility.yul\":8952:8982   */\n      mstore\n        /* \"#utility.yul\":9018:9052   */\n      0x4f776e61626c653a2063616c6c6572206973206e6f7420746865206f776e6572\n        /* \"#utility.yul\":9013:9015   */\n      0x40\n        /* \"#utility.yul\":8998:9016   */\n      dup3\n      add\n        /* \"#utility.yul\":8991:9053   */\n      mstore\n        /* \"#utility.yul\":9085:9087   */\n      0x60\n        /* \"#utility.yul\":9070:9088   */\n      add\n      swap1\n        /* \"#utility.yul\":8738:9094   */\n      jump\t// out\n        /* \"#utility.yul\":10010:10352   */\n    tag_215:\n        /* \"#utility.yul\":10212:10214   */\n      0x20\n        /* \"#utility.yul\":10194:10215   */\n      dup1\n      dup3\n      mstore\n        /* \"#utility.yul\":10251:10253   */\n      0x12\n        /* \"#utility.yul\":10231:10249   */\n      swap1\n      dup3\n      add\n        /* \"#utility.yul\":10224:10254   */\n      mstore\n      shl(0x72, 0x119d5b98dd1a5bdb881a5cc81b1bd8dad959)\n        /* \"#utility.yul\":10285:10287   */\n      0x40\n        /* \"#utility.yul\":10270:10288   */\n      dup3\n      add\n        /* \"#utility.yul\":10263:10311   */\n      mstore\n        /* \"#utility.yul\":10343:10345   */\n      0x60\n        /* \"#utility.yul\":10328:10346   */\n      add\n      swap1\n        /* \"#utility.yul\":10010:10352   */\n      jump\t// out\n        /* \"#utility.yul\":10357:10774   */\n    tag_202:\n        /* \"#utility.yul\":10559:10561   */\n      0x20\n        /* \"#utility.yul\":10541:10562   */\n      dup1\n      dup3\n      mstore\n        /* \"#utility.yul\":10598:10600   */\n      0x35\n        /* \"#utility.yul\":10578:10596   */\n      swap1\n      dup3\n      add\n        /* \"#utility.yul\":10571:10601   */\n      mstore\n        /* \"#utility.yul\":10637:10671   */\n      0x6f70657261746f723a2063616c6c6572206973206e6f7420616c6c6f77656420\n        /* \"#utility.yul\":10632:10634   */\n      0x40\n        /* \"#utility.yul\":10617:10635   */\n      dup3\n      add\n        /* \"#utility.yul\":10610:10672   */\n      mstore\n      shl(0x59, 0x3a379031b0b636103a3434b990333ab731ba34b7b7)\n        /* \"#utility.yul\":10703:10705   */\n      0x60\n        /* \"#utility.yul\":10688:10706   */\n      dup3\n      add\n        /* \"#utility.yul\":10681:10732   */\n      mstore\n        /* \"#utility.yul\":10764:10767   */\n      0x80\n        /* \"#utility.yul\":10749:10768   */\n      add\n      swap1\n        /* \"#utility.yul\":10357:10774   */\n      jump\t// out\n        /* \"#utility.yul\":13674:14654   */\n    tag_523:\n        /* \"#utility.yul\":13936:13940   */\n      0x00\n        /* \"#utility.yul\":13984:13987   */\n      0xa0\n        /* \"#utility.yul\":13973:13982   */\n      dup3\n        /* \"#utility.yul\":13969:13988   */\n      add\n        /* \"#utility.yul\":14015:14021   */\n      dup8\n        /* \"#utility.yul\":14004:14013   */\n      dup4\n        /* \"#utility.yul\":13997:14022   */\n      mstore\n        /* \"#utility.yul\":14041:14043   */\n      0x20\n        /* \"#utility.yul\":14079:14085   */\n      dup8\n        /* \"#utility.yul\":14074:14076   */\n      dup2\n        /* \"#utility.yul\":14063:14072   */\n      dup6\n        /* \"#utility.yul\":14059:14077   */\n      add\n        /* \"#utility.yul\":14052:14086   */\n      mstore\n        /* \"#utility.yul\":14122:14125   */\n      0xa0\n        /* \"#utility.yul\":14117:14119   */\n      0x40\n        /* \"#utility.yul\":14106:14115   */\n      dup6\n        /* \"#utility.yul\":14102:14120   */\n      add\n        /* \"#utility.yul\":14095:14126   */\n      mstore\n        /* \"#utility.yul\":14146:14152   */\n      dup2\n        /* \"#utility.yul\":14181:14187   */\n      dup8\n        /* \"#utility.yul\":14175:14188   */\n      mload\n        /* \"#utility.yul\":14212:14218   */\n      dup1\n        /* \"#utility.yul\":14204:14210   */\n      dup5\n        /* \"#utility.yul\":14197:14219   */\n      mstore\n        /* \"#utility.yul\":14250:14253   */\n      0xc0\n        /* \"#utility.yul\":14239:14248   */\n      dup7\n        /* \"#utility.yul\":14235:14254   */\n      add\n        /* \"#utility.yul\":14228:14254   */\n      swap2\n      pop\n        /* \"#utility.yul\":14289:14291   */\n      dup3\n        /* \"#utility.yul\":14281:14287   */\n      dup10\n        /* \"#utility.yul\":14277:14292   */\n      add\n        /* \"#utility.yul\":14263:14292   */\n      swap4\n      pop\n        /* \"#utility.yul\":14310:14311   */\n      0x00\n        /* \"#utility.yul\":14320:14515   */\n    tag_597:\n        /* \"#utility.yul\":14334:14340   */\n      dup2\n        /* \"#utility.yul\":14331:14332   */\n      dup2\n        /* \"#utility.yul\":14328:14341   */\n      lt\n        /* \"#utility.yul\":14320:14515   */\n      iszero\n      tag_599\n      jumpi\n        /* \"#utility.yul\":14399:14412   */\n      dup5\n      mload\n      sub(shl(0xa0, 0x01), 0x01)\n        /* \"#utility.yul\":14395:14434   */\n      and\n        /* \"#utility.yul\":14383:14435   */\n      dup4\n      mstore\n        /* \"#utility.yul\":14490:14505   */\n      swap4\n      dup4\n      add\n      swap4\n        /* \"#utility.yul\":14455:14467   */\n      swap2\n      dup4\n      add\n      swap2\n        /* \"#utility.yul\":14431:14432   */\n      0x01\n        /* \"#utility.yul\":14349:14358   */\n      add\n        /* \"#utility.yul\":14320:14515   */\n      jump(tag_597)\n    tag_599:\n      pop\n      pop\n      sub(shl(0xa0, 0x01), 0x01)\n        /* \"#utility.yul\":14571:14603   */\n      swap7\n      swap1\n      swap7\n      and\n        /* \"#utility.yul\":14566:14568   */\n      0x60\n        /* \"#utility.yul\":14551:14569   */\n      dup6\n      add\n        /* \"#utility.yul\":14544:14604   */\n      mstore\n      pop\n      pop\n      pop\n        /* \"#utility.yul\":14635:14638   */\n      0x80\n        /* \"#utility.yul\":14620:14639   */\n      add\n        /* \"#utility.yul\":14613:14648   */\n      mstore\n        /* \"#utility.yul\":14532:14535   */\n      swap4\n        /* \"#utility.yul\":13674:14654   */\n      swap3\n      pop\n      pop\n      pop\n      jump\t// out\n        /* \"#utility.yul\":14659:14787   */\n    tag_212:\n        /* \"#utility.yul\":14699:14702   */\n      0x00\n        /* \"#utility.yul\":14730:14731   */\n      dup3\n        /* \"#utility.yul\":14726:14732   */\n      not\n        /* \"#utility.yul\":14723:14724   */\n      dup3\n        /* \"#utility.yul\":14720:14733   */\n      gt\n        /* \"#utility.yul\":14717:14756   */\n      iszero\n      tag_602\n      jumpi\n        /* \"#utility.yul\":14736:14754   */\n      tag_602\n      tag_603\n      jump\t// in\n    tag_602:\n      pop\n        /* \"#utility.yul\":14772:14781   */\n      add\n      swap1\n        /* \"#utility.yul\":14659:14787   */\n      jump\t// out\n        /* \"#utility.yul\":14792:15009   */\n    tag_490:\n        /* \"#utility.yul\":14832:14833   */\n      0x00\n        /* \"#utility.yul\":14858:14859   */\n      dup3\n        /* \"#utility.yul\":14848:14980   */\n      tag_605\n      jumpi\n        /* \"#utility.yul\":14902:14912   */\n      0x4e487b71\n        /* \"#utility.yul\":14897:14900   */\n      0xe0\n        /* \"#utility.yul\":14893:14913   */\n      shl\n        /* \"#utility.yul\":14890:14891   */\n      0x00\n        /* \"#utility.yul\":14883:14914   */\n      mstore\n        /* \"#utility.yul\":14937:14941   */\n      0x12\n        /* \"#utility.yul\":14934:14935   */\n      0x04\n        /* \"#utility.yul\":14927:14942   */\n      mstore\n        /* \"#utility.yul\":14965:14969   */\n      0x24\n        /* \"#utility.yul\":14962:14963   */\n      0x00\n        /* \"#utility.yul\":14955:14970   */\n      revert\n        /* \"#utility.yul\":14848:14980   */\n    tag_605:\n      pop\n        /* \"#utility.yul\":14994:15003   */\n      div\n      swap1\n        /* \"#utility.yul\":14792:15009   */\n      jump\t// out\n        /* \"#utility.yul\":15014:15182   */\n    tag_487:\n        /* \"#utility.yul\":15054:15061   */\n      0x00\n        /* \"#utility.yul\":15120:15121   */\n      dup2\n        /* \"#utility.yul\":15116:15117   */\n      0x00\n        /* \"#utility.yul\":15112:15118   */\n      not\n        /* \"#utility.yul\":15108:15122   */\n      div\n        /* \"#utility.yul\":15105:15106   */\n      dup4\n        /* \"#utility.yul\":15102:15123   */\n      gt\n        /* \"#utility.yul\":15097:15098   */\n      dup3\n        /* \"#utility.yul\":15090:15099   */\n      iszero\n        /* \"#utility.yul\":15083:15100   */\n      iszero\n        /* \"#utility.yul\":15079:15124   */\n      and\n        /* \"#utility.yul\":15076:15147   */\n      iszero\n      tag_608\n      jumpi\n        /* \"#utility.yul\":15127:15145   */\n      tag_608\n      tag_603\n      jump\t// in\n    tag_608:\n      pop\n        /* \"#utility.yul\":15167:15176   */\n      mul\n      swap1\n        /* \"#utility.yul\":15014:15182   */\n      jump\t// out\n        /* \"#utility.yul\":15187:15312   */\n    tag_493:\n        /* \"#utility.yul\":15227:15231   */\n      0x00\n        /* \"#utility.yul\":15255:15256   */\n      dup3\n        /* \"#utility.yul\":15252:15253   */\n      dup3\n        /* \"#utility.yul\":15249:15257   */\n      lt\n        /* \"#utility.yul\":15246:15280   */\n      iszero\n      tag_611\n      jumpi\n        /* \"#utility.yul\":15260:15278   */\n      tag_611\n      tag_603\n      jump\t// in\n    tag_611:\n      pop\n        /* \"#utility.yul\":15297:15306   */\n      sub\n      swap1\n        /* \"#utility.yul\":15187:15312   */\n      jump\t// out\n        /* \"#utility.yul\":15317:15575   */\n    tag_568:\n        /* \"#utility.yul\":15389:15390   */\n      0x00\n        /* \"#utility.yul\":15399:15512   */\n    tag_613:\n        /* \"#utility.yul\":15413:15419   */\n      dup4\n        /* \"#utility.yul\":15410:15411   */\n      dup2\n        /* \"#utility.yul\":15407:15420   */\n      lt\n        /* \"#utility.yul\":15399:15512   */\n      iszero\n      tag_615\n      jumpi\n        /* \"#utility.yul\":15489:15500   */\n      dup2\n      dup2\n      add\n        /* \"#utility.yul\":15483:15501   */\n      mload\n        /* \"#utility.yul\":15470:15481   */\n      dup4\n      dup3\n      add\n        /* \"#utility.yul\":15463:15502   */\n      mstore\n        /* \"#utility.yul\":15435:15437   */\n      0x20\n        /* \"#utility.yul\":15428:15438   */\n      add\n        /* \"#utility.yul\":15399:15512   */\n      jump(tag_613)\n    tag_615:\n        /* \"#utility.yul\":15530:15536   */\n      dup4\n        /* \"#utility.yul\":15527:15528   */\n      dup2\n        /* \"#utility.yul\":15524:15537   */\n      gt\n        /* \"#utility.yul\":15521:15569   */\n      iszero\n      tag_616\n      jumpi\n        /* \"#utility.yul\":15565:15566   */\n      0x00\n        /* \"#utility.yul\":15556:15562   */\n      dup5\n        /* \"#utility.yul\":15551:15554   */\n      dup5\n        /* \"#utility.yul\":15547:15563   */\n      add\n        /* \"#utility.yul\":15540:15567   */\n      mstore\n        /* \"#utility.yul\":15521:15569   */\n    tag_616:\n      pop\n        /* \"#utility.yul\":15317:15575   */\n      pop\n      pop\n      pop\n      jump\t// out\n        /* \"#utility.yul\":15580:15707   */\n    tag_603:\n        /* \"#utility.yul\":15641:15651   */\n      0x4e487b71\n        /* \"#utility.yul\":15636:15639   */\n      0xe0\n        /* \"#utility.yul\":15632:15652   */\n      shl\n        /* \"#utility.yul\":15629:15630   */\n      0x00\n        /* \"#utility.yul\":15622:15653   */\n      mstore\n        /* \"#utility.yul\":15672:15676   */\n      0x11\n        /* \"#utility.yul\":15669:15670   */\n      0x04\n        /* \"#utility.yul\":15662:15677   */\n      mstore\n        /* \"#utility.yul\":15696:15700   */\n      0x24\n        /* \"#utility.yul\":15693:15694   */\n      0x00\n        /* \"#utility.yul\":15686:15701   */\n      revert\n        /* \"#utility.yul\":15712:15839   */\n    tag_514:\n        /* \"#utility.yul\":15773:15783   */\n      0x4e487b71\n        /* \"#utility.yul\":15768:15771   */\n      0xe0\n        /* \"#utility.yul\":15764:15784   */\n      shl\n        /* \"#utility.yul\":15761:15762   */\n      0x00\n        /* \"#utility.yul\":15754:15785   */\n      mstore\n        /* \"#utility.yul\":15804:15808   */\n      0x32\n        /* \"#utility.yul\":15801:15802   */\n      0x04\n        /* \"#utility.yul\":15794:15809   */\n      mstore\n        /* \"#utility.yul\":15828:15832   */\n      0x24\n        /* \"#utility.yul\":15825:15826   */\n      0x00\n        /* \"#utility.yul\":15818:15833   */\n      revert\n        /* \"#utility.yul\":15844:15971   */\n    tag_475:\n        /* \"#utility.yul\":15905:15915   */\n      0x4e487b71\n        /* \"#utility.yul\":15900:15903   */\n      0xe0\n        /* \"#utility.yul\":15896:15916   */\n      shl\n        /* \"#utility.yul\":15893:15894   */\n      0x00\n        /* \"#utility.yul\":15886:15917   */\n      mstore\n        /* \"#utility.yul\":15936:15940   */\n      0x41\n        /* \"#utility.yul\":15933:15934   */\n      0x04\n        /* \"#utility.yul\":15926:15941   */\n      mstore\n        /* \"#utility.yul\":15960:15964   */\n      0x24\n        /* \"#utility.yul\":15957:15958   */\n      0x00\n        /* \"#utility.yul\":15950:15965   */\n      revert\n        /* \"#utility.yul\":15976:16107   */\n    tag_532:\n      sub(shl(0xa0, 0x01), 0x01)\n        /* \"#utility.yul\":16051:16082   */\n      dup2\n      and\n        /* \"#utility.yul\":16041:16083   */\n      dup2\n      eq\n        /* \"#utility.yul\":16031:16101   */\n      tag_436\n      jumpi\n        /* \"#utility.yul\":16097:16098   */\n      0x00\n        /* \"#utility.yul\":16094:16095   */\n      dup1\n        /* \"#utility.yul\":16087:16099   */\n      revert\n\n    auxdata: 0xa26469706673582212208a8357db7b5a9995b3286cb25f9f82a4d73246b308be66e08761528340cf9fbe64736f6c63430008070033\n}\n",
				"bytecode": {
					"linkReferences": {},
					"object": "60806040526000805460ff60a01b19169055600a600681905560026007556401faa3b5006008556a084595161401484a000000905562015180600b55600c80546001600160a01b031990811673bb4cdb9cbd36b01bd1cbaebf2de08d9173bc095c17909155600d80549091167310ed43c718714eb63d5aa57b78b54704e256024e1790553480156200009057600080fd5b506040516200265138038062002651833981016040819052620000b39162000142565b620000be33620000f2565b60028054336001600160a01b031991821617909155600980549091166001600160a01b039290921691909117905562000174565b600080546001600160a01b038381166001600160a01b0319831681178455604051919092169283917f8be0079c531659141344cd1fd0a4f28419497f9722a3daafe3b4186f6b6457e09190a35050565b6000602082840312156200015557600080fd5b81516001600160a01b03811681146200016d57600080fd5b9392505050565b6124cd80620001846000396000f3fe6080604052600436106101fd5760003560e01c80639f5311561161010d578063c4e977c8116100a0578063f2fde38b1161006f578063f2fde38b146105b5578063f4762fd6146105d5578063f8b2cb4f146105ea578063f8cf31cb1461060a578063f98080c01461062a57600080fd5b8063c4e977c81461053f578063de996a6e14610555578063e7b6ebba14610575578063edae876f1461059557600080fd5b8063a617e653116100dc578063a617e653146104c9578063b59c6e0e146104e9578063c07a1d4d14610509578063c0d786551461051f57600080fd5b80639f53115614610448578063a176459514610468578063a347511a14610488578063a607494a146104a957600080fd5b80636594793911610190578063715018a61161015f578063715018a61461039d5780637d6dfb7e146103b25780637ef189f8146103e25780638da5cb5b146103f85780639850d32b1461042a57600080fd5b8063659479391461032a5780636a1db1bf1461034a5780636ff1c9bc1461036a57806370ed0ada1461038a57600080fd5b80634b417886116101cc5780634b417886146102b45780634e71d92d146102ec5780635dd53826146102f45780636469b96e1461030a57600080fd5b80630126ffb91461020957806313ea5d29146102325780631f8c1d2b146102545780632fa075621461027457600080fd5b3661020457005b600080fd5b34801561021557600080fd5b5061021f600b5481565b6040519081526020015b60405180910390f35b34801561023e57600080fd5b5061025261024d366004612093565b610662565b005b34801561026057600080fd5b5061025261026f3660046121bc565b61089c565b34801561028057600080fd5b506102a461028f366004612093565b60056020526000908152604090205460ff1681565b6040519015158152602001610229565b3480156102c057600080fd5b5061021f6102cf3660046120b0565b600460209081526000928352604080842090915290825290205481565b6102526109d8565b34801561030057600080fd5b5061021f600a5481565b34801561031657600080fd5b506102526103253660046121bc565b610b3d565b34801561033657600080fd5b50610252610345366004612213565b610c7d565b34801561035657600080fd5b506102526103653660046121bc565b61104a565b34801561037657600080fd5b50610252610385366004612093565b611186565b34801561039657600080fd5b504761021f565b3480156103a957600080fd5b50610252611230565b3480156103be57600080fd5b506102a46103cd366004612093565b60036020526000908152604090205460ff1681565b3480156103ee57600080fd5b5061021f60085481565b34801561040457600080fd5b506000546001600160a01b03165b6040516001600160a01b039091168152602001610229565b34801561043657600080fd5b506002546001600160a01b0316610412565b34801561045457600080fd5b5061025261046336600461210b565b611266565b34801561047457600080fd5b50600c54610412906001600160a01b031681565b34801561049457600080fd5b506000546102a490600160a01b900460ff1681565b3480156104b557600080fd5b506102526104c436600461210b565b6112d9565b3480156104d557600080fd5b506102a46104e43660046120b0565b6113b6565b3480156104f557600080fd5b50600954610412906001600160a01b031681565b34801561051557600080fd5b5061021f60065481565b34801561052b57600080fd5b5061025261053a366004612093565b611436565b34801561054b57600080fd5b5061021f60075481565b34801561056157600080fd5b506102526105703660046121bc565b611482565b34801561058157600080fd5b506102526105903660046121ee565b6115d2565b3480156105a157600080fd5b50600d54610412906001600160a01b031681565b3480156105c157600080fd5b506102526105d0366004612093565b6118ee565b3480156105e157600080fd5b50610252611989565b3480156105f657600080fd5b5061021f610605366004612093565b611a13565b34801561061657600080fd5b50610252610625366004612093565b611aa7565b34801561063657600080fd5b5061021f61064536600461210b565b805160208183018101805160018252928201919093012091525481565b336106756000546001600160a01b031690565b6001600160a01b0316148061069457506002546001600160a01b031633145b6106b95760405162461bcd60e51b81526004016106b0906122da565b60405180910390fd5b60408051808201909152600a81526936b0b4b73a30b4b732b960b11b6020820152600054600160a01b900460ff16158061077357506001816040516106fe919061225d565b90815260200160405180910390205460001415801561073b575042600182604051610729919061225d565b90815260200160405180910390205411155b801561077357504262015180600183604051610757919061225d565b90815260200160405180910390205461077091906123a0565b10155b61078f5760405162461bcd60e51b81526004016106b0906122ae565b6002546001600160a01b038381169116148015906107b557506001600160a01b03821615155b6108405760405162461bcd60e51b815260206004820152605060248201527f41424f41543a3a7365744d61696e7461696e65723a204d61696e7461696e657260448201527f2063616e277420657175616c2070726576696f7573206d61696e7461696e657260648201526f206f72207a65726f206164647265737360801b608482015260a4016106b0565b600280546001600160a01b038481166001600160a01b0319831681179093556040519116919082907f2f3ffaaaad93928855c8700645d1a3643e6ccfdd500efa9fda048a88f557cf0190600090a35061089881611266565b5050565b6000546001600160a01b031633146108c65760405162461bcd60e51b81526004016106b090612279565b6040805180820190915260098152686368616e676546656560b81b6020820152600054600160a01b900460ff16158061097f575060018160405161090a919061225d565b908152602001604051809103902054600014158015610947575042600182604051610935919061225d565b90815260200160405180910390205411155b801561097f57504262015180600183604051610963919061225d565b90815260200160405180910390205461097c91906123a0565b10155b61099b5760405162461bcd60e51b81526004016106b0906122ae565b6007546040518391907f247a43c209c4066973ea0643d726236d3bf70967e8dc6d109b75630f351c890490600090a3600782905561089881611266565b3360009081526005602052604090205460ff1615610a505760405162461bcd60e51b815260206004820152602f60248201527f41424f41543a3a636c61696d3a20416c726561647920616c6c6f77656420746f60448201526e207265636965766520746f6b656e7360881b60648201526084016106b0565b600854341015610ae05760405162461bcd60e51b815260206004820152604f60248201527f41424f41543a3a636c61696d3a20416d6f756e74206f6620626e6220746f206360448201527f6c61696d2073686f756c642063617272792074686520636f737420746f20616460648201526e642074686520636c61696d61626c6560881b608482015260a4016106b0565b610afb610af56000546001600160a01b031690565b34611c90565b33600081815260056020526040808220805460ff19166001179055517f98716c616972f4ef0085deb59c20f6f6a840219c121ad1f3b5413097f3a103579190a2565b6000546001600160a01b03163314610b675760405162461bcd60e51b81526004016106b090612279565b60408051808201909152600d81526c18da185b99d951d85cd0dbdcdd609a1b6020820152600054600160a01b900460ff161580610c245750600181604051610baf919061225d565b908152602001604051809103902054600014158015610bec575042600182604051610bda919061225d565b90815260200160405180910390205411155b8015610c2457504262015180600183604051610c08919061225d565b908152602001604051809103902054610c2191906123a0565b10155b610c405760405162461bcd60e51b81526004016106b0906122ae565b6008546040518391907fc3dc19678fd7390a5c1197decfaec52d8a1c63c49f0a51db570f5fe5040c5f7390600090a3600882905561089881611266565b6000546001600160a01b03163314610ca75760405162461bcd60e51b81526004016106b090612279565b600d546001600160a01b0316610d335760405162461bcd60e51b8152602060048201526044602482018190527f41424f41543a3a73656e645265776172643a205468657265206973206e6f2072908201527f6f7574657220646566696e656420746f207377617020746f6b656e7320666f72606482015263040cae8d60e31b608482015260a4016106b0565b610d3c81611a13565b841115610dbb5760405162461bcd60e51b815260206004820152604160248201527f41424f41543a3a73656e645265776172643a2043616e27742073656e64206d6f60448201527f72652072657761726473207468616e20696e207265776172642073797374656d6064820152602160f81b608482015260a4016106b0565b600a54841115610e2c5760405162461bcd60e51b815260206004820152603660248201527f41424f41543a3a73656e645265776172643a2043616e27742073656e64206d6f60448201527572652072657761726473207468616e206c696d69742160501b60648201526084016106b0565b610e3683826113b6565b610ea05760405162461bcd60e51b815260206004820152603560248201527f41424f41543a3a73656e645265776172643a2043616e277420636c61696d206d6044820152746f7265207468616e206f6e6365207065722064617960581b60648201526084016106b0565b6001600160a01b038084166000908152600460209081526040808320858516808552925290912042905560095490911614610f6d576000610ef76064610ef160075488611d6f90919063ffffffff16565b90611d82565b90506000610f058683611d8e565b90506001600160a01b038316610f3f57610f30610f2a6000546001600160a01b031690565b83611c90565b610f3a8582611c90565b610f66565b610f5b83610f556000546001600160a01b031690565b84611d9a565b610f66838683611d9a565b5050611003565b818411610fb05760405162461bcd60e51b8152602060048201526011602482015270105093d0550e8e9cd95b9914995dd85c99607a1b60448201526064016106b0565b610fba8483611d8e565b935047610fc683611ecb565b610fea610fdb6000546001600160a01b031690565b610fe54784611d8e565b611c90565b600954611001906001600160a01b03168587611d9a565b505b806001600160a01b031684846001600160a01b03167fd8b141f2ea758469013a6478e6e9477d3a7a8527f7ec1f2e045ae15794fc390560405160405180910390a450505050565b6000546001600160a01b031633146110745760405162461bcd60e51b81526004016106b090612279565b6040805180820190915260098152686368616e676546656560b81b6020820152600054600160a01b900460ff16158061112d57506001816040516110b8919061225d565b9081526020016040518091039020546000141580156110f55750426001826040516110e3919061225d565b90815260200160405180910390205411155b801561112d57504262015180600183604051611111919061225d565b90815260200160405180910390205461112a91906123a0565b10155b6111495760405162461bcd60e51b81526004016106b0906122ae565b6006546040518391907fce8c8159f011d886721740f77c2d26c91b08ac01bd1d03bd132a9942661cb14990600090a3600682905561089881611266565b6000546001600160a01b031633146111b05760405162461bcd60e51b81526004016106b090612279565b6111d4816111c66000546001600160a01b031690565b6111cf84611a13565b611d9a565b4780156111f6576111f66111f06000546001600160a01b031690565b82611c90565b600080546040516001600160a01b03909116917f5e7b34819cd91b239220bec92fcfd3c10da2214ba13e4e2b1f6c9cfdbd68a9a291a25050565b6000546001600160a01b0316331461125a5760405162461bcd60e51b81526004016106b090612279565b6112646000612043565b565b336112796000546001600160a01b031690565b6001600160a01b0316148061129857506002546001600160a01b031633145b6112b45760405162461bcd60e51b81526004016106b0906122da565b60006001826040516112c6919061225d565b9081526040519081900360200190205550565b336112ec6000546001600160a01b031690565b6001600160a01b0316148061130b57506002546001600160a01b031633145b6113275760405162461bcd60e51b81526004016106b0906122da565b61133462015180426123a0565b600182604051611344919061225d565b908152602001604051809103902081905550600181604051611366919061225d565b90815260200160405180910390205481604051611383919061225d565b604051908190038120907ff77f9a799fe8b0be1463abd7459a18fc55dfd8a6a24ddd29b54fd098088089c890600090a350565b6009546000906001906001600160a01b038481169116146113ef57506001600160a01b03831660009081526005602052604090205460ff165b80801561142e5750600b546001600160a01b03808616600090815260046020908152604080832093881683529290522054429161142b916123a0565b11155b949350505050565b6000546001600160a01b031633146114605760405162461bcd60e51b81526004016106b090612279565b600d80546001600160a01b0319166001600160a01b0392909216919091179055565b6000546001600160a01b031633146114ac5760405162461bcd60e51b81526004016106b090612279565b60408051808201909152601981527f61646a7573744d6178416d6f756e7450657252656365697665000000000000006020820152600054600160a01b900460ff1615806115795750600181604051611504919061225d565b90815260200160405180910390205460001415801561154157504260018260405161152f919061225d565b90815260200160405180910390205411155b80156115795750426201518060018360405161155d919061225d565b90815260200160405180910390205461157691906123a0565b10155b6115955760405162461bcd60e51b81526004016106b0906122ae565b600a546040518391907fd07363c93ca88ca1140b355020cb77b0320b19e19a34bb15aa4566d27c2fabbd90600090a3600a82905561089881611266565b6000546001600160a01b031633146115fc5760405162461bcd60e51b81526004016106b090612279565b600d546001600160a01b031661168d5760405162461bcd60e51b815260206004820152604a60248201527f41424f41543a3a73656e645265776172647341734574683a205468657265206960448201527f73206e6f20726f7574657220646566696e656420746f207377617020746f6b656064820152690dce640ccdee440cae8d60b31b608482015260a4016106b0565b6009546116a2906001600160a01b0316611a13565b8211156117275760405162461bcd60e51b815260206004820152604760248201527f41424f41543a3a73656e645265776172647341734574683a2043616e2774207360448201527f656e64206d6f72652072657761726473207468616e20696e207265776172642060648201526673797374656d2160c81b608482015260a4016106b0565b600a5482111561179f5760405162461bcd60e51b815260206004820152603c60248201527f41424f41543a3a73656e645265776172647341734574683a2043616e2774207360448201527f656e64206d6f72652072657761726473207468616e206c696d6974210000000060648201526084016106b0565b6009546117b69082906001600160a01b03166113b6565b6118285760405162461bcd60e51b815260206004820152603b60248201527f41424f41543a3a73656e645265776172647341734574683a2043616e2774206360448201527f6c61696d206d6f7265207468616e206f6e63652070657220646179000000000060648201526084016106b0565b6001600160a01b0380821660009081526004602090815260408083206009549094168352929052204290554761185d83611ecb565b60006118694783611d8e565b9050600061188260065483611d8290919063ffffffff16565b905061188e8282611d8e565b91506118a56111f06000546001600160a01b031690565b6118af8483611c90565b8082856001600160a01b03167f75b2eac24930bf6a8227dbe172d34480e56be5c6994435067628424190d5343160405160405180910390a45050505050565b6000546001600160a01b031633146119185760405162461bcd60e51b81526004016106b090612279565b6001600160a01b03811661197d5760405162461bcd60e51b815260206004820152602660248201527f4f776e61626c653a206e6577206f776e657220697320746865207a65726f206160448201526564647265737360d01b60648201526084016106b0565b61198681612043565b50565b3361199c6000546001600160a01b031690565b6001600160a01b031614806119bb57506002546001600160a01b031633145b6119d75760405162461bcd60e51b81526004016106b0906122da565b6000805460ff60a01b1916600160a01b1781556040517f2c08b62bfac9a1b19bb1dec9323f1ce01696a77948b256abf3603d30f25a864e9190a1565b60006001600160a01b038216611a2a575047919050565b6040516370a0823160e01b81523060048201526001600160a01b038316906370a082319060240160206040518083038186803b158015611a6957600080fd5b505afa158015611a7d573d6000803e3d6000fd5b505050506040513d601f19601f82011682018060405250810190611aa191906121d5565b92915050565b6000546001600160a01b03163314611ad15760405162461bcd60e51b81526004016106b090612279565b6040805180820190915260118152703ab83230ba32a932bbb0b9322a37b5b2b760791b6020820152600054600160a01b900460ff161580611b925750600181604051611b1d919061225d565b908152602001604051809103902054600014158015611b5a575042600182604051611b48919061225d565b90815260200160405180910390205411155b8015611b9257504262015180600183604051611b76919061225d565b908152602001604051809103902054611b8f91906123a0565b10155b611bae5760405162461bcd60e51b81526004016106b0906122ae565b6009546001600160a01b0383811691161415611c325760405162461bcd60e51b815260206004820152603f60248201527f41424f41543a757064617465526577617264546f6b656e3a20596f752063616e60448201527f277420757064617465207468652065786163742073616d6520746f6b656e730060648201526084016106b0565b6009546040516001600160a01b038085169216907fcb89265f21b9fc8710e9d9e42bbb37af1eb207454deca6d5e36787be2367c1d690600090a3600980546001600160a01b0319166001600160a01b03841617905561089881611266565b604080516000808252602082019092526001600160a01b038416908390604051611cba919061225d565b60006040518083038185875af1925050503d8060008114611cf7576040519150601f19603f3d011682016040523d82523d6000602084013e611cfc565b606091505b5050905080611d6a5760405162461bcd60e51b815260206004820152603460248201527f5472616e7366657248656c7065723a3a736166655472616e736665724554483a60448201527308115512081d1c985b9cd9995c8819985a5b195960621b60648201526084016106b0565b505050565b6000611d7b82846123da565b9392505050565b6000611d7b82846123b8565b6000611d7b82846123f9565b604080516001600160a01b038481166024830152604480830185905283518084039091018152606490920183526020820180516001600160e01b031663a9059cbb60e01b1790529151600092839290871691611df6919061225d565b6000604051808303816000865af19150503d8060008114611e33576040519150601f19603f3d011682016040523d82523d6000602084013e611e38565b606091505b5091509150818015611e62575080511580611e62575080806020019051810190611e6291906120e9565b611ec45760405162461bcd60e51b815260206004820152602d60248201527f5472616e7366657248656c7065723a3a736166655472616e736665723a20747260448201526c185b9cd9995c8819985a5b1959609a1b60648201526084016106b0565b5050505050565b604080516002808252606082018352600092602083019080368337505060095482519293506001600160a01b031691839150600090611f0c57611f0c612456565b6001600160a01b039283166020918202929092010152600c54825191169082906001908110611f3d57611f3d612456565b6001600160a01b039283166020918202929092010152600954600d5460405163095ea7b360e01b815290831660048201526024810185905291169063095ea7b390604401602060405180830381600087803b158015611f9b57600080fd5b505af1158015611faf573d6000803e3d6000fd5b505050506040513d601f19601f82011682018060405250810190611fd391906120e9565b50600d5460405163791ac94760e01b81526001600160a01b039091169063791ac9479061200d90859060009086903090429060040161232f565b600060405180830381600087803b15801561202757600080fd5b505af115801561203b573d6000803e3d6000fd5b505050505050565b600080546001600160a01b038381166001600160a01b0319831681178455604051919092169283917f8be0079c531659141344cd1fd0a4f28419497f9722a3daafe3b4186f6b6457e09190a35050565b6000602082840312156120a557600080fd5b8135611d7b81612482565b600080604083850312156120c357600080fd5b82356120ce81612482565b915060208301356120de81612482565b809150509250929050565b6000602082840312156120fb57600080fd5b81518015158114611d7b57600080fd5b60006020828403121561211d57600080fd5b813567ffffffffffffffff8082111561213557600080fd5b818401915084601f83011261214957600080fd5b81358181111561215b5761215b61246c565b604051601f8201601f19908116603f011681019083821181831017156121835761218361246c565b8160405282815287602084870101111561219c57600080fd5b826020860160208301376000928101602001929092525095945050505050565b6000602082840312156121ce57600080fd5b5035919050565b6000602082840312156121e757600080fd5b5051919050565b6000806040838503121561220157600080fd5b8235915060208301356120de81612482565b6000806000806080858703121561222957600080fd5b84359350602085013561223b81612482565b925060408501359150606085013561225281612482565b939692955090935050565b6000825161226f818460208701612410565b9190910192915050565b6020808252818101527f4f776e61626c653a2063616c6c6572206973206e6f7420746865206f776e6572604082015260600190565b602080825260129082015271119d5b98dd1a5bdb881a5cc81b1bd8dad95960721b604082015260600190565b60208082526035908201527f6f70657261746f723a2063616c6c6572206973206e6f7420616c6c6f776564206040820152743a379031b0b636103a3434b990333ab731ba34b7b760591b606082015260800190565b600060a082018783526020878185015260a0604085015281875180845260c086019150828901935060005b8181101561237f5784516001600160a01b03168352938301939183019160010161235a565b50506001600160a01b03969096166060850152505050608001529392505050565b600082198211156123b3576123b3612440565b500190565b6000826123d557634e487b7160e01b600052601260045260246000fd5b500490565b60008160001904831182151516156123f4576123f4612440565b500290565b60008282101561240b5761240b612440565b500390565b60005b8381101561242b578181015183820152602001612413565b8381111561243a576000848401525b50505050565b634e487b7160e01b600052601160045260246000fd5b634e487b7160e01b600052603260045260246000fd5b634e487b7160e01b600052604160045260246000fd5b6001600160a01b038116811461198657600080fdfea26469706673582212208a8357db7b5a9995b3286cb25f9f82a4d73246b308be66e08761528340cf9fbe64736f6c63430008070033",
					"opcodes": "PUSH1 0x80 PUSH1 0x40 MSTORE PUSH1 0x0 DUP1 SLOAD PUSH1 0xFF PUSH1 0xA0 SHL NOT AND SWAP1 SSTORE PUSH1 0xA PUSH1 0x6 DUP2 SWAP1 SSTORE PUSH1 0x2 PUSH1 0x7 SSTORE PUSH5 0x1FAA3B500 PUSH1 0x8 SSTORE PUSH11 0x84595161401484A000000 SWAP1 SSTORE PUSH3 0x15180 PUSH1 0xB SSTORE PUSH1 0xC DUP1 SLOAD PUSH1 0x1 PUSH1 0x1 PUSH1 0xA0 SHL SUB NOT SWAP1 DUP2 AND PUSH20 0xBB4CDB9CBD36B01BD1CBAEBF2DE08D9173BC095C OR SWAP1 SWAP2 SSTORE PUSH1 0xD DUP1 SLOAD SWAP1 SWAP2 AND PUSH20 0x10ED43C718714EB63D5AA57B78B54704E256024E OR SWAP1 SSTORE CALLVALUE DUP1 ISZERO PUSH3 0x90 JUMPI PUSH1 0x0 DUP1 REVERT JUMPDEST POP PUSH1 0x40 MLOAD PUSH3 0x2651 CODESIZE SUB DUP1 PUSH3 0x2651 DUP4 CODECOPY DUP2 ADD PUSH1 0x40 DUP2 SWAP1 MSTORE PUSH3 0xB3 SWAP2 PUSH3 0x142 JUMP JUMPDEST PUSH3 0xBE CALLER PUSH3 0xF2 JUMP JUMPDEST PUSH1 0x2 DUP1 SLOAD CALLER PUSH1 0x1 PUSH1 0x1 PUSH1 0xA0 SHL SUB NOT SWAP2 DUP3 AND OR SWAP1 SWAP2 SSTORE PUSH1 0x9 DUP1 SLOAD SWAP1 SWAP2 AND PUSH1 0x1 PUSH1 0x1 PUSH1 0xA0 SHL SUB SWAP3 SWAP1 SWAP3 AND SWAP2 SWAP1 SWAP2 OR SWAP1 SSTORE PUSH3 0x174 JUMP JUMPDEST PUSH1 0x0 DUP1 SLOAD PUSH1 0x1 PUSH1 0x1 PUSH1 0xA0 SHL SUB DUP4 DUP2 AND PUSH1 0x1 PUSH1 0x1 PUSH1 0xA0 SHL SUB NOT DUP4 AND DUP2 OR DUP5 SSTORE PUSH1 0x40 MLOAD SWAP2 SWAP1 SWAP3 AND SWAP3 DUP4 SWAP2 PUSH32 0x8BE0079C531659141344CD1FD0A4F28419497F9722A3DAAFE3B4186F6B6457E0 SWAP2 SWAP1 LOG3 POP POP JUMP JUMPDEST PUSH1 0x0 PUSH1 0x20 DUP3 DUP5 SUB SLT ISZERO PUSH3 0x155 JUMPI PUSH1 0x0 DUP1 REVERT JUMPDEST DUP2 MLOAD PUSH1 0x1 PUSH1 0x1 PUSH1 0xA0 SHL SUB DUP2 AND DUP2 EQ PUSH3 0x16D JUMPI PUSH1 0x0 DUP1 REVERT JUMPDEST SWAP4 SWAP3 POP POP POP JUMP JUMPDEST PUSH2 0x24CD DUP1 PUSH3 0x184 PUSH1 0x0 CODECOPY PUSH1 0x0 RETURN INVALID PUSH1 0x80 PUSH1 0x40 MSTORE PUSH1 0x4 CALLDATASIZE LT PUSH2 0x1FD JUMPI PUSH1 0x0 CALLDATALOAD PUSH1 0xE0 SHR DUP1 PUSH4 0x9F531156 GT PUSH2 0x10D JUMPI DUP1 PUSH4 0xC4E977C8 GT PUSH2 0xA0 JUMPI DUP1 PUSH4 0xF2FDE38B GT PUSH2 0x6F JUMPI DUP1 PUSH4 0xF2FDE38B EQ PUSH2 0x5B5 JUMPI DUP1 PUSH4 0xF4762FD6 EQ PUSH2 0x5D5 JUMPI DUP1 PUSH4 0xF8B2CB4F EQ PUSH2 0x5EA JUMPI DUP1 PUSH4 0xF8CF31CB EQ PUSH2 0x60A JUMPI DUP1 PUSH4 0xF98080C0 EQ PUSH2 0x62A JUMPI PUSH1 0x0 DUP1 REVERT JUMPDEST DUP1 PUSH4 0xC4E977C8 EQ PUSH2 0x53F JUMPI DUP1 PUSH4 0xDE996A6E EQ PUSH2 0x555 JUMPI DUP1 PUSH4 0xE7B6EBBA EQ PUSH2 0x575 JUMPI DUP1 PUSH4 0xEDAE876F EQ PUSH2 0x595 JUMPI PUSH1 0x0 DUP1 REVERT JUMPDEST DUP1 PUSH4 0xA617E653 GT PUSH2 0xDC JUMPI DUP1 PUSH4 0xA617E653 EQ PUSH2 0x4C9 JUMPI DUP1 PUSH4 0xB59C6E0E EQ PUSH2 0x4E9 JUMPI DUP1 PUSH4 0xC07A1D4D EQ PUSH2 0x509 JUMPI DUP1 PUSH4 0xC0D78655 EQ PUSH2 0x51F JUMPI PUSH1 0x0 DUP1 REVERT JUMPDEST DUP1 PUSH4 0x9F531156 EQ PUSH2 0x448 JUMPI DUP1 PUSH4 0xA1764595 EQ PUSH2 0x468 JUMPI DUP1 PUSH4 0xA347511A EQ PUSH2 0x488 JUMPI DUP1 PUSH4 0xA607494A EQ PUSH2 0x4A9 JUMPI PUSH1 0x0 DUP1 REVERT JUMPDEST DUP1 PUSH4 0x65947939 GT PUSH2 0x190 JUMPI DUP1 PUSH4 0x715018A6 GT PUSH2 0x15F JUMPI DUP1 PUSH4 0x715018A6 EQ PUSH2 0x39D JUMPI DUP1 PUSH4 0x7D6DFB7E EQ PUSH2 0x3B2 JUMPI DUP1 PUSH4 0x7EF189F8 EQ PUSH2 0x3E2 JUMPI DUP1 PUSH4 0x8DA5CB5B EQ PUSH2 0x3F8 JUMPI DUP1 PUSH4 0x9850D32B EQ PUSH2 0x42A JUMPI PUSH1 0x0 DUP1 REVERT JUMPDEST DUP1 PUSH4 0x65947939 EQ PUSH2 0x32A JUMPI DUP1 PUSH4 0x6A1DB1BF EQ PUSH2 0x34A JUMPI DUP1 PUSH4 0x6FF1C9BC EQ PUSH2 0x36A JUMPI DUP1 PUSH4 0x70ED0ADA EQ PUSH2 0x38A JUMPI PUSH1 0x0 DUP1 REVERT JUMPDEST DUP1 PUSH4 0x4B417886 GT PUSH2 0x1CC JUMPI DUP1 PUSH4 0x4B417886 EQ PUSH2 0x2B4 JUMPI DUP1 PUSH4 0x4E71D92D EQ PUSH2 0x2EC JUMPI DUP1 PUSH4 0x5DD53826 EQ PUSH2 0x2F4 JUMPI DUP1 PUSH4 0x6469B96E EQ PUSH2 0x30A JUMPI PUSH1 0x0 DUP1 REVERT JUMPDEST DUP1 PUSH4 0x126FFB9 EQ PUSH2 0x209 JUMPI DUP1 PUSH4 0x13EA5D29 EQ PUSH2 0x232 JUMPI DUP1 PUSH4 0x1F8C1D2B EQ PUSH2 0x254 JUMPI DUP1 PUSH4 0x2FA07562 EQ PUSH2 0x274 JUMPI PUSH1 0x0 DUP1 REVERT JUMPDEST CALLDATASIZE PUSH2 0x204 JUMPI STOP JUMPDEST PUSH1 0x0 DUP1 REVERT JUMPDEST CALLVALUE DUP1 ISZERO PUSH2 0x215 JUMPI PUSH1 0x0 DUP1 REVERT JUMPDEST POP PUSH2 0x21F PUSH1 0xB SLOAD DUP2 JUMP JUMPDEST PUSH1 0x40 MLOAD SWAP1 DUP2 MSTORE PUSH1 0x20 ADD JUMPDEST PUSH1 0x40 MLOAD DUP1 SWAP2 SUB SWAP1 RETURN JUMPDEST CALLVALUE DUP1 ISZERO PUSH2 0x23E JUMPI PUSH1 0x0 DUP1 REVERT JUMPDEST POP PUSH2 0x252 PUSH2 0x24D CALLDATASIZE PUSH1 0x4 PUSH2 0x2093 JUMP JUMPDEST PUSH2 0x662 JUMP JUMPDEST STOP JUMPDEST CALLVALUE DUP1 ISZERO PUSH2 0x260 JUMPI PUSH1 0x0 DUP1 REVERT JUMPDEST POP PUSH2 0x252 PUSH2 0x26F CALLDATASIZE PUSH1 0x4 PUSH2 0x21BC JUMP JUMPDEST PUSH2 0x89C JUMP JUMPDEST CALLVALUE DUP1 ISZERO PUSH2 0x280 JUMPI PUSH1 0x0 DUP1 REVERT JUMPDEST POP PUSH2 0x2A4 PUSH2 0x28F CALLDATASIZE PUSH1 0x4 PUSH2 0x2093 JUMP JUMPDEST PUSH1 0x5 PUSH1 0x20 MSTORE PUSH1 0x0 SWAP1 DUP2 MSTORE PUSH1 0x40 SWAP1 KECCAK256 SLOAD PUSH1 0xFF AND DUP2 JUMP JUMPDEST PUSH1 0x40 MLOAD SWAP1 ISZERO ISZERO DUP2 MSTORE PUSH1 0x20 ADD PUSH2 0x229 JUMP JUMPDEST CALLVALUE DUP1 ISZERO PUSH2 0x2C0 JUMPI PUSH1 0x0 DUP1 REVERT JUMPDEST POP PUSH2 0x21F PUSH2 0x2CF CALLDATASIZE PUSH1 0x4 PUSH2 0x20B0 JUMP JUMPDEST PUSH1 0x4 PUSH1 0x20 SWAP1 DUP2 MSTORE PUSH1 0x0 SWAP3 DUP4 MSTORE PUSH1 0x40 DUP1 DUP5 KECCAK256 SWAP1 SWAP2 MSTORE SWAP1 DUP3 MSTORE SWAP1 KECCAK256 SLOAD DUP2 JUMP JUMPDEST PUSH2 0x252 PUSH2 0x9D8 JUMP JUMPDEST CALLVALUE DUP1 ISZERO PUSH2 0x300 JUMPI PUSH1 0x0 DUP1 REVERT JUMPDEST POP PUSH2 0x21F PUSH1 0xA SLOAD DUP2 JUMP JUMPDEST CALLVALUE DUP1 ISZERO PUSH2 0x316 JUMPI PUSH1 0x0 DUP1 REVERT JUMPDEST POP PUSH2 0x252 PUSH2 0x325 CALLDATASIZE PUSH1 0x4 PUSH2 0x21BC JUMP JUMPDEST PUSH2 0xB3D JUMP JUMPDEST CALLVALUE DUP1 ISZERO PUSH2 0x336 JUMPI PUSH1 0x0 DUP1 REVERT JUMPDEST POP PUSH2 0x252 PUSH2 0x345 CALLDATASIZE PUSH1 0x4 PUSH2 0x2213 JUMP JUMPDEST PUSH2 0xC7D JUMP JUMPDEST CALLVALUE DUP1 ISZERO PUSH2 0x356 JUMPI PUSH1 0x0 DUP1 REVERT JUMPDEST POP PUSH2 0x252 PUSH2 0x365 CALLDATASIZE PUSH1 0x4 PUSH2 0x21BC JUMP JUMPDEST PUSH2 0x104A JUMP JUMPDEST CALLVALUE DUP1 ISZERO PUSH2 0x376 JUMPI PUSH1 0x0 DUP1 REVERT JUMPDEST POP PUSH2 0x252 PUSH2 0x385 CALLDATASIZE PUSH1 0x4 PUSH2 0x2093 JUMP JUMPDEST PUSH2 0x1186 JUMP JUMPDEST CALLVALUE DUP1 ISZERO PUSH2 0x396 JUMPI PUSH1 0x0 DUP1 REVERT JUMPDEST POP SELFBALANCE PUSH2 0x21F JUMP JUMPDEST CALLVALUE DUP1 ISZERO PUSH2 0x3A9 JUMPI PUSH1 0x0 DUP1 REVERT JUMPDEST POP PUSH2 0x252 PUSH2 0x1230 JUMP JUMPDEST CALLVALUE DUP1 ISZERO PUSH2 0x3BE JUMPI PUSH1 0x0 DUP1 REVERT JUMPDEST POP PUSH2 0x2A4 PUSH2 0x3CD CALLDATASIZE PUSH1 0x4 PUSH2 0x2093 JUMP JUMPDEST PUSH1 0x3 PUSH1 0x20 MSTORE PUSH1 0x0 SWAP1 DUP2 MSTORE PUSH1 0x40 SWAP1 KECCAK256 SLOAD PUSH1 0xFF AND DUP2 JUMP JUMPDEST CALLVALUE DUP1 ISZERO PUSH2 0x3EE JUMPI PUSH1 0x0 DUP1 REVERT JUMPDEST POP PUSH2 0x21F PUSH1 0x8 SLOAD DUP2 JUMP JUMPDEST CALLVALUE DUP1 ISZERO PUSH2 0x404 JUMPI PUSH1 0x0 DUP1 REVERT JUMPDEST POP PUSH1 0x0 SLOAD PUSH1 0x1 PUSH1 0x1 PUSH1 0xA0 SHL SUB AND JUMPDEST PUSH1 0x40 MLOAD PUSH1 0x1 PUSH1 0x1 PUSH1 0xA0 SHL SUB SWAP1 SWAP2 AND DUP2 MSTORE PUSH1 0x20 ADD PUSH2 0x229 JUMP JUMPDEST CALLVALUE DUP1 ISZERO PUSH2 0x436 JUMPI PUSH1 0x0 DUP1 REVERT JUMPDEST POP PUSH1 0x2 SLOAD PUSH1 0x1 PUSH1 0x1 PUSH1 0xA0 SHL SUB AND PUSH2 0x412 JUMP JUMPDEST CALLVALUE DUP1 ISZERO PUSH2 0x454 JUMPI PUSH1 0x0 DUP1 REVERT JUMPDEST POP PUSH2 0x252 PUSH2 0x463 CALLDATASIZE PUSH1 0x4 PUSH2 0x210B JUMP JUMPDEST PUSH2 0x1266 JUMP JUMPDEST CALLVALUE DUP1 ISZERO PUSH2 0x474 JUMPI PUSH1 0x0 DUP1 REVERT JUMPDEST POP PUSH1 0xC SLOAD PUSH2 0x412 SWAP1 PUSH1 0x1 PUSH1 0x1 PUSH1 0xA0 SHL SUB AND DUP2 JUMP JUMPDEST CALLVALUE DUP1 ISZERO PUSH2 0x494 JUMPI PUSH1 0x0 DUP1 REVERT JUMPDEST POP PUSH1 0x0 SLOAD PUSH2 0x2A4 SWAP1 PUSH1 0x1 PUSH1 0xA0 SHL SWAP1 DIV PUSH1 0xFF AND DUP2 JUMP JUMPDEST CALLVALUE DUP1 ISZERO PUSH2 0x4B5 JUMPI PUSH1 0x0 DUP1 REVERT JUMPDEST POP PUSH2 0x252 PUSH2 0x4C4 CALLDATASIZE PUSH1 0x4 PUSH2 0x210B JUMP JUMPDEST PUSH2 0x12D9 JUMP JUMPDEST CALLVALUE DUP1 ISZERO PUSH2 0x4D5 JUMPI PUSH1 0x0 DUP1 REVERT JUMPDEST POP PUSH2 0x2A4 PUSH2 0x4E4 CALLDATASIZE PUSH1 0x4 PUSH2 0x20B0 JUMP JUMPDEST PUSH2 0x13B6 JUMP JUMPDEST CALLVALUE DUP1 ISZERO PUSH2 0x4F5 JUMPI PUSH1 0x0 DUP1 REVERT JUMPDEST POP PUSH1 0x9 SLOAD PUSH2 0x412 SWAP1 PUSH1 0x1 PUSH1 0x1 PUSH1 0xA0 SHL SUB AND DUP2 JUMP JUMPDEST CALLVALUE DUP1 ISZERO PUSH2 0x515 JUMPI PUSH1 0x0 DUP1 REVERT JUMPDEST POP PUSH2 0x21F PUSH1 0x6 SLOAD DUP2 JUMP JUMPDEST CALLVALUE DUP1 ISZERO PUSH2 0x52B JUMPI PUSH1 0x0 DUP1 REVERT JUMPDEST POP PUSH2 0x252 PUSH2 0x53A CALLDATASIZE PUSH1 0x4 PUSH2 0x2093 JUMP JUMPDEST PUSH2 0x1436 JUMP JUMPDEST CALLVALUE DUP1 ISZERO PUSH2 0x54B JUMPI PUSH1 0x0 DUP1 REVERT JUMPDEST POP PUSH2 0x21F PUSH1 0x7 SLOAD DUP2 JUMP JUMPDEST CALLVALUE DUP1 ISZERO PUSH2 0x561 JUMPI PUSH1 0x0 DUP1 REVERT JUMPDEST POP PUSH2 0x252 PUSH2 0x570 CALLDATASIZE PUSH1 0x4 PUSH2 0x21BC JUMP JUMPDEST PUSH2 0x1482 JUMP JUMPDEST CALLVALUE DUP1 ISZERO PUSH2 0x581 JUMPI PUSH1 0x0 DUP1 REVERT JUMPDEST POP PUSH2 0x252 PUSH2 0x590 CALLDATASIZE PUSH1 0x4 PUSH2 0x21EE JUMP JUMPDEST PUSH2 0x15D2 JUMP JUMPDEST CALLVALUE DUP1 ISZERO PUSH2 0x5A1 JUMPI PUSH1 0x0 DUP1 REVERT JUMPDEST POP PUSH1 0xD SLOAD PUSH2 0x412 SWAP1 PUSH1 0x1 PUSH1 0x1 PUSH1 0xA0 SHL SUB AND DUP2 JUMP JUMPDEST CALLVALUE DUP1 ISZERO PUSH2 0x5C1 JUMPI PUSH1 0x0 DUP1 REVERT JUMPDEST POP PUSH2 0x252 PUSH2 0x5D0 CALLDATASIZE PUSH1 0x4 PUSH2 0x2093 JUMP JUMPDEST PUSH2 0x18EE JUMP JUMPDEST CALLVALUE DUP1 ISZERO PUSH2 0x5E1 JUMPI PUSH1 0x0 DUP1 REVERT JUMPDEST POP PUSH2 0x252 PUSH2 0x1989 JUMP JUMPDEST CALLVALUE DUP1 ISZERO PUSH2 0x5F6 JUMPI PUSH1 0x0 DUP1 REVERT JUMPDEST POP PUSH2 0x21F PUSH2 0x605 CALLDATASIZE PUSH1 0x4 PUSH2 0x2093 JUMP JUMPDEST PUSH2 0x1A13 JUMP JUMPDEST CALLVALUE DUP1 ISZERO PUSH2 0x616 JUMPI PUSH1 0x0 DUP1 REVERT JUMPDEST POP PUSH2 0x252 PUSH2 0x625 CALLDATASIZE PUSH1 0x4 PUSH2 0x2093 JUMP JUMPDEST PUSH2 0x1AA7 JUMP JUMPDEST CALLVALUE DUP1 ISZERO PUSH2 0x636 JUMPI PUSH1 0x0 DUP1 REVERT JUMPDEST POP PUSH2 0x21F PUSH2 0x645 CALLDATASIZE PUSH1 0x4 PUSH2 0x210B JUMP JUMPDEST DUP1 MLOAD PUSH1 0x20 DUP2 DUP4 ADD DUP2 ADD DUP1 MLOAD PUSH1 0x1 DUP3 MSTORE SWAP3 DUP3 ADD SWAP2 SWAP1 SWAP4 ADD KECCAK256 SWAP2 MSTORE SLOAD DUP2 JUMP JUMPDEST CALLER PUSH2 0x675 PUSH1 0x0 SLOAD PUSH1 0x1 PUSH1 0x1 PUSH1 0xA0 SHL SUB AND SWAP1 JUMP JUMPDEST PUSH1 0x1 PUSH1 0x1 PUSH1 0xA0 SHL SUB AND EQ DUP1 PUSH2 0x694 JUMPI POP PUSH1 0x2 SLOAD PUSH1 0x1 PUSH1 0x1 PUSH1 0xA0 SHL SUB AND CALLER EQ JUMPDEST PUSH2 0x6B9 JUMPI PUSH1 0x40 MLOAD PUSH3 0x461BCD PUSH1 0xE5 SHL DUP2 MSTORE PUSH1 0x4 ADD PUSH2 0x6B0 SWAP1 PUSH2 0x22DA JUMP JUMPDEST PUSH1 0x40 MLOAD DUP1 SWAP2 SUB SWAP1 REVERT JUMPDEST PUSH1 0x40 DUP1 MLOAD DUP1 DUP3 ADD SWAP1 SWAP2 MSTORE PUSH1 0xA DUP2 MSTORE PUSH10 0x36B0B4B73A30B4B732B9 PUSH1 0xB1 SHL PUSH1 0x20 DUP3 ADD MSTORE PUSH1 0x0 SLOAD PUSH1 0x1 PUSH1 0xA0 SHL SWAP1 DIV PUSH1 0xFF AND ISZERO DUP1 PUSH2 0x773 JUMPI POP PUSH1 0x1 DUP2 PUSH1 0x40 MLOAD PUSH2 0x6FE SWAP2 SWAP1 PUSH2 0x225D JUMP JUMPDEST SWAP1 DUP2 MSTORE PUSH1 0x20 ADD PUSH1 0x40 MLOAD DUP1 SWAP2 SUB SWAP1 KECCAK256 SLOAD PUSH1 0x0 EQ ISZERO DUP1 ISZERO PUSH2 0x73B JUMPI POP TIMESTAMP PUSH1 0x1 DUP3 PUSH1 0x40 MLOAD PUSH2 0x729 SWAP2 SWAP1 PUSH2 0x225D JUMP JUMPDEST SWAP1 DUP2 MSTORE PUSH1 0x20 ADD PUSH1 0x40 MLOAD DUP1 SWAP2 SUB SWAP1 KECCAK256 SLOAD GT ISZERO JUMPDEST DUP1 ISZERO PUSH2 0x773 JUMPI POP TIMESTAMP PUSH3 0x15180 PUSH1 0x1 DUP4 PUSH1 0x40 MLOAD PUSH2 0x757 SWAP2 SWAP1 PUSH2 0x225D JUMP JUMPDEST SWAP1 DUP2 MSTORE PUSH1 0x20 ADD PUSH1 0x40 MLOAD DUP1 SWAP2 SUB SWAP1 KECCAK256 SLOAD PUSH2 0x770 SWAP2 SWAP1 PUSH2 0x23A0 JUMP JUMPDEST LT ISZERO JUMPDEST PUSH2 0x78F JUMPI PUSH1 0x40 MLOAD PUSH3 0x461BCD PUSH1 0xE5 SHL DUP2 MSTORE PUSH1 0x4 ADD PUSH2 0x6B0 SWAP1 PUSH2 0x22AE JUMP JUMPDEST PUSH1 0x2 SLOAD PUSH1 0x1 PUSH1 0x1 PUSH1 0xA0 SHL SUB DUP4 DUP2 AND SWAP2 AND EQ DUP1 ISZERO SWAP1 PUSH2 0x7B5 JUMPI POP PUSH1 0x1 PUSH1 0x1 PUSH1 0xA0 SHL SUB DUP3 AND ISZERO ISZERO JUMPDEST PUSH2 0x840 JUMPI PUSH1 0x40 MLOAD PUSH3 0x461BCD PUSH1 0xE5 SHL DUP2 MSTORE PUSH1 0x20 PUSH1 0x4 DUP3 ADD MSTORE PUSH1 0x50 PUSH1 0x24 DUP3 ADD MSTORE PUSH32 0x41424F41543A3A7365744D61696E7461696E65723A204D61696E7461696E6572 PUSH1 0x44 DUP3 ADD MSTORE PUSH32 0x2063616E277420657175616C2070726576696F7573206D61696E7461696E6572 PUSH1 0x64 DUP3 ADD MSTORE PUSH16 0x206F72207A65726F2061646472657373 PUSH1 0x80 SHL PUSH1 0x84 DUP3 ADD MSTORE PUSH1 0xA4 ADD PUSH2 0x6B0 JUMP JUMPDEST PUSH1 0x2 DUP1 SLOAD PUSH1 0x1 PUSH1 0x1 PUSH1 0xA0 SHL SUB DUP5 DUP2 AND PUSH1 0x1 PUSH1 0x1 PUSH1 0xA0 SHL SUB NOT DUP4 AND DUP2 OR SWAP1 SWAP4 SSTORE PUSH1 0x40 MLOAD SWAP2 AND SWAP2 SWAP1 DUP3 SWAP1 PUSH32 0x2F3FFAAAAD93928855C8700645D1A3643E6CCFDD500EFA9FDA048A88F557CF01 SWAP1 PUSH1 0x0 SWAP1 LOG3 POP PUSH2 0x898 DUP2 PUSH2 0x1266 JUMP JUMPDEST POP POP JUMP JUMPDEST PUSH1 0x0 SLOAD PUSH1 0x1 PUSH1 0x1 PUSH1 0xA0 SHL SUB AND CALLER EQ PUSH2 0x8C6 JUMPI PUSH1 0x40 MLOAD PUSH3 0x461BCD PUSH1 0xE5 SHL DUP2 MSTORE PUSH1 0x4 ADD PUSH2 0x6B0 SWAP1 PUSH2 0x2279 JUMP JUMPDEST PUSH1 0x40 DUP1 MLOAD DUP1 DUP3 ADD SWAP1 SWAP2 MSTORE PUSH1 0x9 DUP2 MSTORE PUSH9 0x6368616E6765466565 PUSH1 0xB8 SHL PUSH1 0x20 DUP3 ADD MSTORE PUSH1 0x0 SLOAD PUSH1 0x1 PUSH1 0xA0 SHL SWAP1 DIV PUSH1 0xFF AND ISZERO DUP1 PUSH2 0x97F JUMPI POP PUSH1 0x1 DUP2 PUSH1 0x40 MLOAD PUSH2 0x90A SWAP2 SWAP1 PUSH2 0x225D JUMP JUMPDEST SWAP1 DUP2 MSTORE PUSH1 0x20 ADD PUSH1 0x40 MLOAD DUP1 SWAP2 SUB SWAP1 KECCAK256 SLOAD PUSH1 0x0 EQ ISZERO DUP1 ISZERO PUSH2 0x947 JUMPI POP TIMESTAMP PUSH1 0x1 DUP3 PUSH1 0x40 MLOAD PUSH2 0x935 SWAP2 SWAP1 PUSH2 0x225D JUMP JUMPDEST SWAP1 DUP2 MSTORE PUSH1 0x20 ADD PUSH1 0x40 MLOAD DUP1 SWAP2 SUB SWAP1 KECCAK256 SLOAD GT ISZERO JUMPDEST DUP1 ISZERO PUSH2 0x97F JUMPI POP TIMESTAMP PUSH3 0x15180 PUSH1 0x1 DUP4 PUSH1 0x40 MLOAD PUSH2 0x963 SWAP2 SWAP1 PUSH2 0x225D JUMP JUMPDEST SWAP1 DUP2 MSTORE PUSH1 0x20 ADD PUSH1 0x40 MLOAD DUP1 SWAP2 SUB SWAP1 KECCAK256 SLOAD PUSH2 0x97C SWAP2 SWAP1 PUSH2 0x23A0 JUMP JUMPDEST LT ISZERO JUMPDEST PUSH2 0x99B JUMPI PUSH1 0x40 MLOAD PUSH3 0x461BCD PUSH1 0xE5 SHL DUP2 MSTORE PUSH1 0x4 ADD PUSH2 0x6B0 SWAP1 PUSH2 0x22AE JUMP JUMPDEST PUSH1 0x7 SLOAD PUSH1 0x40 MLOAD DUP4 SWAP2 SWAP1 PUSH32 0x247A43C209C4066973EA0643D726236D3BF70967E8DC6D109B75630F351C8904 SWAP1 PUSH1 0x0 SWAP1 LOG3 PUSH1 0x7 DUP3 SWAP1 SSTORE PUSH2 0x898 DUP2 PUSH2 0x1266 JUMP JUMPDEST CALLER PUSH1 0x0 SWAP1 DUP2 MSTORE PUSH1 0x5 PUSH1 0x20 MSTORE PUSH1 0x40 SWAP1 KECCAK256 SLOAD PUSH1 0xFF AND ISZERO PUSH2 0xA50 JUMPI PUSH1 0x40 MLOAD PUSH3 0x461BCD PUSH1 0xE5 SHL DUP2 MSTORE PUSH1 0x20 PUSH1 0x4 DUP3 ADD MSTORE PUSH1 0x2F PUSH1 0x24 DUP3 ADD MSTORE PUSH32 0x41424F41543A3A636C61696D3A20416C726561647920616C6C6F77656420746F PUSH1 0x44 DUP3 ADD MSTORE PUSH15 0x207265636965766520746F6B656E73 PUSH1 0x88 SHL PUSH1 0x64 DUP3 ADD MSTORE PUSH1 0x84 ADD PUSH2 0x6B0 JUMP JUMPDEST PUSH1 0x8 SLOAD CALLVALUE LT ISZERO PUSH2 0xAE0 JUMPI PUSH1 0x40 MLOAD PUSH3 0x461BCD PUSH1 0xE5 SHL DUP2 MSTORE PUSH1 0x20 PUSH1 0x4 DUP3 ADD MSTORE PUSH1 0x4F PUSH1 0x24 DUP3 ADD MSTORE PUSH32 0x41424F41543A3A636C61696D3A20416D6F756E74206F6620626E6220746F2063 PUSH1 0x44 DUP3 ADD MSTORE PUSH32 0x6C61696D2073686F756C642063617272792074686520636F737420746F206164 PUSH1 0x64 DUP3 ADD MSTORE PUSH15 0x642074686520636C61696D61626C65 PUSH1 0x88 SHL PUSH1 0x84 DUP3 ADD MSTORE PUSH1 0xA4 ADD PUSH2 0x6B0 JUMP JUMPDEST PUSH2 0xAFB PUSH2 0xAF5 PUSH1 0x0 SLOAD PUSH1 0x1 PUSH1 0x1 PUSH1 0xA0 SHL SUB AND SWAP1 JUMP JUMPDEST CALLVALUE PUSH2 0x1C90 JUMP JUMPDEST CALLER PUSH1 0x0 DUP2 DUP2 MSTORE PUSH1 0x5 PUSH1 0x20 MSTORE PUSH1 0x40 DUP1 DUP3 KECCAK256 DUP1 SLOAD PUSH1 0xFF NOT AND PUSH1 0x1 OR SWAP1 SSTORE MLOAD PUSH32 0x98716C616972F4EF0085DEB59C20F6F6A840219C121AD1F3B5413097F3A10357 SWAP2 SWAP1 LOG2 JUMP JUMPDEST PUSH1 0x0 SLOAD PUSH1 0x1 PUSH1 0x1 PUSH1 0xA0 SHL SUB AND CALLER EQ PUSH2 0xB67 JUMPI PUSH1 0x40 MLOAD PUSH3 0x461BCD PUSH1 0xE5 SHL DUP2 MSTORE PUSH1 0x4 ADD PUSH2 0x6B0 SWAP1 PUSH2 0x2279 JUMP JUMPDEST PUSH1 0x40 DUP1 MLOAD DUP1 DUP3 ADD SWAP1 SWAP2 MSTORE PUSH1 0xD DUP2 MSTORE PUSH13 0x18DA185B99D951D85CD0DBDCDD PUSH1 0x9A SHL PUSH1 0x20 DUP3 ADD MSTORE PUSH1 0x0 SLOAD PUSH1 0x1 PUSH1 0xA0 SHL SWAP1 DIV PUSH1 0xFF AND ISZERO DUP1 PUSH2 0xC24 JUMPI POP PUSH1 0x1 DUP2 PUSH1 0x40 MLOAD PUSH2 0xBAF SWAP2 SWAP1 PUSH2 0x225D JUMP JUMPDEST SWAP1 DUP2 MSTORE PUSH1 0x20 ADD PUSH1 0x40 MLOAD DUP1 SWAP2 SUB SWAP1 KECCAK256 SLOAD PUSH1 0x0 EQ ISZERO DUP1 ISZERO PUSH2 0xBEC JUMPI POP TIMESTAMP PUSH1 0x1 DUP3 PUSH1 0x40 MLOAD PUSH2 0xBDA SWAP2 SWAP1 PUSH2 0x225D JUMP JUMPDEST SWAP1 DUP2 MSTORE PUSH1 0x20 ADD PUSH1 0x40 MLOAD DUP1 SWAP2 SUB SWAP1 KECCAK256 SLOAD GT ISZERO JUMPDEST DUP1 ISZERO PUSH2 0xC24 JUMPI POP TIMESTAMP PUSH3 0x15180 PUSH1 0x1 DUP4 PUSH1 0x40 MLOAD PUSH2 0xC08 SWAP2 SWAP1 PUSH2 0x225D JUMP JUMPDEST SWAP1 DUP2 MSTORE PUSH1 0x20 ADD PUSH1 0x40 MLOAD DUP1 SWAP2 SUB SWAP1 KECCAK256 SLOAD PUSH2 0xC21 SWAP2 SWAP1 PUSH2 0x23A0 JUMP JUMPDEST LT ISZERO JUMPDEST PUSH2 0xC40 JUMPI PUSH1 0x40 MLOAD PUSH3 0x461BCD PUSH1 0xE5 SHL DUP2 MSTORE PUSH1 0x4 ADD PUSH2 0x6B0 SWAP1 PUSH2 0x22AE JUMP JUMPDEST PUSH1 0x8 SLOAD PUSH1 0x40 MLOAD DUP4 SWAP2 SWAP1 PUSH32 0xC3DC19678FD7390A5C1197DECFAEC52D8A1C63C49F0A51DB570F5FE5040C5F73 SWAP1 PUSH1 0x0 SWAP1 LOG3 PUSH1 0x8 DUP3 SWAP1 SSTORE PUSH2 0x898 DUP2 PUSH2 0x1266 JUMP JUMPDEST PUSH1 0x0 SLOAD PUSH1 0x1 PUSH1 0x1 PUSH1 0xA0 SHL SUB AND CALLER EQ PUSH2 0xCA7 JUMPI PUSH1 0x40 MLOAD PUSH3 0x461BCD PUSH1 0xE5 SHL DUP2 MSTORE PUSH1 0x4 ADD PUSH2 0x6B0 SWAP1 PUSH2 0x2279 JUMP JUMPDEST PUSH1 0xD SLOAD PUSH1 0x1 PUSH1 0x1 PUSH1 0xA0 SHL SUB AND PUSH2 0xD33 JUMPI PUSH1 0x40 MLOAD PUSH3 0x461BCD PUSH1 0xE5 SHL DUP2 MSTORE PUSH1 0x20 PUSH1 0x4 DUP3 ADD MSTORE PUSH1 0x44 PUSH1 0x24 DUP3 ADD DUP2 SWAP1 MSTORE PUSH32 0x41424F41543A3A73656E645265776172643A205468657265206973206E6F2072 SWAP1 DUP3 ADD MSTORE PUSH32 0x6F7574657220646566696E656420746F207377617020746F6B656E7320666F72 PUSH1 0x64 DUP3 ADD MSTORE PUSH4 0x40CAE8D PUSH1 0xE3 SHL PUSH1 0x84 DUP3 ADD MSTORE PUSH1 0xA4 ADD PUSH2 0x6B0 JUMP JUMPDEST PUSH2 0xD3C DUP2 PUSH2 0x1A13 JUMP JUMPDEST DUP5 GT ISZERO PUSH2 0xDBB JUMPI PUSH1 0x40 MLOAD PUSH3 0x461BCD PUSH1 0xE5 SHL DUP2 MSTORE PUSH1 0x20 PUSH1 0x4 DUP3 ADD MSTORE PUSH1 0x41 PUSH1 0x24 DUP3 ADD MSTORE PUSH32 0x41424F41543A3A73656E645265776172643A2043616E27742073656E64206D6F PUSH1 0x44 DUP3 ADD MSTORE PUSH32 0x72652072657761726473207468616E20696E207265776172642073797374656D PUSH1 0x64 DUP3 ADD MSTORE PUSH1 0x21 PUSH1 0xF8 SHL PUSH1 0x84 DUP3 ADD MSTORE PUSH1 0xA4 ADD PUSH2 0x6B0 JUMP JUMPDEST PUSH1 0xA SLOAD DUP5 GT ISZERO PUSH2 0xE2C JUMPI PUSH1 0x40 MLOAD PUSH3 0x461BCD PUSH1 0xE5 SHL DUP2 MSTORE PUSH1 0x20 PUSH1 0x4 DUP3 ADD MSTORE PUSH1 0x36 PUSH1 0x24 DUP3 ADD MSTORE PUSH32 0x41424F41543A3A73656E645265776172643A2043616E27742073656E64206D6F PUSH1 0x44 DUP3 ADD MSTORE PUSH22 0x72652072657761726473207468616E206C696D697421 PUSH1 0x50 SHL PUSH1 0x64 DUP3 ADD MSTORE PUSH1 0x84 ADD PUSH2 0x6B0 JUMP JUMPDEST PUSH2 0xE36 DUP4 DUP3 PUSH2 0x13B6 JUMP JUMPDEST PUSH2 0xEA0 JUMPI PUSH1 0x40 MLOAD PUSH3 0x461BCD PUSH1 0xE5 SHL DUP2 MSTORE PUSH1 0x20 PUSH1 0x4 DUP3 ADD MSTORE PUSH1 0x35 PUSH1 0x24 DUP3 ADD MSTORE PUSH32 0x41424F41543A3A73656E645265776172643A2043616E277420636C61696D206D PUSH1 0x44 DUP3 ADD MSTORE PUSH21 0x6F7265207468616E206F6E63652070657220646179 PUSH1 0x58 SHL PUSH1 0x64 DUP3 ADD MSTORE PUSH1 0x84 ADD PUSH2 0x6B0 JUMP JUMPDEST PUSH1 0x1 PUSH1 0x1 PUSH1 0xA0 SHL SUB DUP1 DUP5 AND PUSH1 0x0 SWAP1 DUP2 MSTORE PUSH1 0x4 PUSH1 0x20 SWAP1 DUP2 MSTORE PUSH1 0x40 DUP1 DUP4 KECCAK256 DUP6 DUP6 AND DUP1 DUP6 MSTORE SWAP3 MSTORE SWAP1 SWAP2 KECCAK256 TIMESTAMP SWAP1 SSTORE PUSH1 0x9 SLOAD SWAP1 SWAP2 AND EQ PUSH2 0xF6D JUMPI PUSH1 0x0 PUSH2 0xEF7 PUSH1 0x64 PUSH2 0xEF1 PUSH1 0x7 SLOAD DUP9 PUSH2 0x1D6F SWAP1 SWAP2 SWAP1 PUSH4 0xFFFFFFFF AND JUMP JUMPDEST SWAP1 PUSH2 0x1D82 JUMP JUMPDEST SWAP1 POP PUSH1 0x0 PUSH2 0xF05 DUP7 DUP4 PUSH2 0x1D8E JUMP JUMPDEST SWAP1 POP PUSH1 0x1 PUSH1 0x1 PUSH1 0xA0 SHL SUB DUP4 AND PUSH2 0xF3F JUMPI PUSH2 0xF30 PUSH2 0xF2A PUSH1 0x0 SLOAD PUSH1 0x1 PUSH1 0x1 PUSH1 0xA0 SHL SUB AND SWAP1 JUMP JUMPDEST DUP4 PUSH2 0x1C90 JUMP JUMPDEST PUSH2 0xF3A DUP6 DUP3 PUSH2 0x1C90 JUMP JUMPDEST PUSH2 0xF66 JUMP JUMPDEST PUSH2 0xF5B DUP4 PUSH2 0xF55 PUSH1 0x0 SLOAD PUSH1 0x1 PUSH1 0x1 PUSH1 0xA0 SHL SUB AND SWAP1 JUMP JUMPDEST DUP5 PUSH2 0x1D9A JUMP JUMPDEST PUSH2 0xF66 DUP4 DUP7 DUP4 PUSH2 0x1D9A JUMP JUMPDEST POP POP PUSH2 0x1003 JUMP JUMPDEST DUP2 DUP5 GT PUSH2 0xFB0 JUMPI PUSH1 0x40 MLOAD PUSH3 0x461BCD PUSH1 0xE5 SHL DUP2 MSTORE PUSH1 0x20 PUSH1 0x4 DUP3 ADD MSTORE PUSH1 0x11 PUSH1 0x24 DUP3 ADD MSTORE PUSH17 0x105093D0550E8E9CD95B9914995DD85C99 PUSH1 0x7A SHL PUSH1 0x44 DUP3 ADD MSTORE PUSH1 0x64 ADD PUSH2 0x6B0 JUMP JUMPDEST PUSH2 0xFBA DUP5 DUP4 PUSH2 0x1D8E JUMP JUMPDEST SWAP4 POP SELFBALANCE PUSH2 0xFC6 DUP4 PUSH2 0x1ECB JUMP JUMPDEST PUSH2 0xFEA PUSH2 0xFDB PUSH1 0x0 SLOAD PUSH1 0x1 PUSH1 0x1 PUSH1 0xA0 SHL SUB AND SWAP1 JUMP JUMPDEST PUSH2 0xFE5 SELFBALANCE DUP5 PUSH2 0x1D8E JUMP JUMPDEST PUSH2 0x1C90 JUMP JUMPDEST PUSH1 0x9 SLOAD PUSH2 0x1001 SWAP1 PUSH1 0x1 PUSH1 0x1 PUSH1 0xA0 SHL SUB AND DUP6 DUP8 PUSH2 0x1D9A JUMP JUMPDEST POP JUMPDEST DUP1 PUSH1 0x1 PUSH1 0x1 PUSH1 0xA0 SHL SUB AND DUP5 DUP5 PUSH1 0x1 PUSH1 0x1 PUSH1 0xA0 SHL SUB AND PUSH32 0xD8B141F2EA758469013A6478E6E9477D3A7A8527F7EC1F2E045AE15794FC3905 PUSH1 0x40 MLOAD PUSH1 0x40 MLOAD DUP1 SWAP2 SUB SWAP1 LOG4 POP POP POP POP JUMP JUMPDEST PUSH1 0x0 SLOAD PUSH1 0x1 PUSH1 0x1 PUSH1 0xA0 SHL SUB AND CALLER EQ PUSH2 0x1074 JUMPI PUSH1 0x40 MLOAD PUSH3 0x461BCD PUSH1 0xE5 SHL DUP2 MSTORE PUSH1 0x4 ADD PUSH2 0x6B0 SWAP1 PUSH2 0x2279 JUMP JUMPDEST PUSH1 0x40 DUP1 MLOAD DUP1 DUP3 ADD SWAP1 SWAP2 MSTORE PUSH1 0x9 DUP2 MSTORE PUSH9 0x6368616E6765466565 PUSH1 0xB8 SHL PUSH1 0x20 DUP3 ADD MSTORE PUSH1 0x0 SLOAD PUSH1 0x1 PUSH1 0xA0 SHL SWAP1 DIV PUSH1 0xFF AND ISZERO DUP1 PUSH2 0x112D JUMPI POP PUSH1 0x1 DUP2 PUSH1 0x40 MLOAD PUSH2 0x10B8 SWAP2 SWAP1 PUSH2 0x225D JUMP JUMPDEST SWAP1 DUP2 MSTORE PUSH1 0x20 ADD PUSH1 0x40 MLOAD DUP1 SWAP2 SUB SWAP1 KECCAK256 SLOAD PUSH1 0x0 EQ ISZERO DUP1 ISZERO PUSH2 0x10F5 JUMPI POP TIMESTAMP PUSH1 0x1 DUP3 PUSH1 0x40 MLOAD PUSH2 0x10E3 SWAP2 SWAP1 PUSH2 0x225D JUMP JUMPDEST SWAP1 DUP2 MSTORE PUSH1 0x20 ADD PUSH1 0x40 MLOAD DUP1 SWAP2 SUB SWAP1 KECCAK256 SLOAD GT ISZERO JUMPDEST DUP1 ISZERO PUSH2 0x112D JUMPI POP TIMESTAMP PUSH3 0x15180 PUSH1 0x1 DUP4 PUSH1 0x40 MLOAD PUSH2 0x1111 SWAP2 SWAP1 PUSH2 0x225D JUMP JUMPDEST SWAP1 DUP2 MSTORE PUSH1 0x20 ADD PUSH1 0x40 MLOAD DUP1 SWAP2 SUB SWAP1 KECCAK256 SLOAD PUSH2 0x112A SWAP2 SWAP1 PUSH2 0x23A0 JUMP JUMPDEST LT ISZERO JUMPDEST PUSH2 0x1149 JUMPI PUSH1 0x40 MLOAD PUSH3 0x461BCD PUSH1 0xE5 SHL DUP2 MSTORE PUSH1 0x4 ADD PUSH2 0x6B0 SWAP1 PUSH2 0x22AE JUMP JUMPDEST PUSH1 0x6 SLOAD PUSH1 0x40 MLOAD DUP4 SWAP2 SWAP1 PUSH32 0xCE8C8159F011D886721740F77C2D26C91B08AC01BD1D03BD132A9942661CB149 SWAP1 PUSH1 0x0 SWAP1 LOG3 PUSH1 0x6 DUP3 SWAP1 SSTORE PUSH2 0x898 DUP2 PUSH2 0x1266 JUMP JUMPDEST PUSH1 0x0 SLOAD PUSH1 0x1 PUSH1 0x1 PUSH1 0xA0 SHL SUB AND CALLER EQ PUSH2 0x11B0 JUMPI PUSH1 0x40 MLOAD PUSH3 0x461BCD PUSH1 0xE5 SHL DUP2 MSTORE PUSH1 0x4 ADD PUSH2 0x6B0 SWAP1 PUSH2 0x2279 JUMP JUMPDEST PUSH2 0x11D4 DUP2 PUSH2 0x11C6 PUSH1 0x0 SLOAD PUSH1 0x1 PUSH1 0x1 PUSH1 0xA0 SHL SUB AND SWAP1 JUMP JUMPDEST PUSH2 0x11CF DUP5 PUSH2 0x1A13 JUMP JUMPDEST PUSH2 0x1D9A JUMP JUMPDEST SELFBALANCE DUP1 ISZERO PUSH2 0x11F6 JUMPI PUSH2 0x11F6 PUSH2 0x11F0 PUSH1 0x0 SLOAD PUSH1 0x1 PUSH1 0x1 PUSH1 0xA0 SHL SUB AND SWAP1 JUMP JUMPDEST DUP3 PUSH2 0x1C90 JUMP JUMPDEST PUSH1 0x0 DUP1 SLOAD PUSH1 0x40 MLOAD PUSH1 0x1 PUSH1 0x1 PUSH1 0xA0 SHL SUB SWAP1 SWAP2 AND SWAP2 PUSH32 0x5E7B34819CD91B239220BEC92FCFD3C10DA2214BA13E4E2B1F6C9CFDBD68A9A2 SWAP2 LOG2 POP POP JUMP JUMPDEST PUSH1 0x0 SLOAD PUSH1 0x1 PUSH1 0x1 PUSH1 0xA0 SHL SUB AND CALLER EQ PUSH2 0x125A JUMPI PUSH1 0x40 MLOAD PUSH3 0x461BCD PUSH1 0xE5 SHL DUP2 MSTORE PUSH1 0x4 ADD PUSH2 0x6B0 SWAP1 PUSH2 0x2279 JUMP JUMPDEST PUSH2 0x1264 PUSH1 0x0 PUSH2 0x2043 JUMP JUMPDEST JUMP JUMPDEST CALLER PUSH2 0x1279 PUSH1 0x0 SLOAD PUSH1 0x1 PUSH1 0x1 PUSH1 0xA0 SHL SUB AND SWAP1 JUMP JUMPDEST PUSH1 0x1 PUSH1 0x1 PUSH1 0xA0 SHL SUB AND EQ DUP1 PUSH2 0x1298 JUMPI POP PUSH1 0x2 SLOAD PUSH1 0x1 PUSH1 0x1 PUSH1 0xA0 SHL SUB AND CALLER EQ JUMPDEST PUSH2 0x12B4 JUMPI PUSH1 0x40 MLOAD PUSH3 0x461BCD PUSH1 0xE5 SHL DUP2 MSTORE PUSH1 0x4 ADD PUSH2 0x6B0 SWAP1 PUSH2 0x22DA JUMP JUMPDEST PUSH1 0x0 PUSH1 0x1 DUP3 PUSH1 0x40 MLOAD PUSH2 0x12C6 SWAP2 SWAP1 PUSH2 0x225D JUMP JUMPDEST SWAP1 DUP2 MSTORE PUSH1 0x40 MLOAD SWAP1 DUP2 SWAP1 SUB PUSH1 0x20 ADD SWAP1 KECCAK256 SSTORE POP JUMP JUMPDEST CALLER PUSH2 0x12EC PUSH1 0x0 SLOAD PUSH1 0x1 PUSH1 0x1 PUSH1 0xA0 SHL SUB AND SWAP1 JUMP JUMPDEST PUSH1 0x1 PUSH1 0x1 PUSH1 0xA0 SHL SUB AND EQ DUP1 PUSH2 0x130B JUMPI POP PUSH1 0x2 SLOAD PUSH1 0x1 PUSH1 0x1 PUSH1 0xA0 SHL SUB AND CALLER EQ JUMPDEST PUSH2 0x1327 JUMPI PUSH1 0x40 MLOAD PUSH3 0x461BCD PUSH1 0xE5 SHL DUP2 MSTORE PUSH1 0x4 ADD PUSH2 0x6B0 SWAP1 PUSH2 0x22DA JUMP JUMPDEST PUSH2 0x1334 PUSH3 0x15180 TIMESTAMP PUSH2 0x23A0 JUMP JUMPDEST PUSH1 0x1 DUP3 PUSH1 0x40 MLOAD PUSH2 0x1344 SWAP2 SWAP1 PUSH2 0x225D JUMP JUMPDEST SWAP1 DUP2 MSTORE PUSH1 0x20 ADD PUSH1 0x40 MLOAD DUP1 SWAP2 SUB SWAP1 KECCAK256 DUP2 SWAP1 SSTORE POP PUSH1 0x1 DUP2 PUSH1 0x40 MLOAD PUSH2 0x1366 SWAP2 SWAP1 PUSH2 0x225D JUMP JUMPDEST SWAP1 DUP2 MSTORE PUSH1 0x20 ADD PUSH1 0x40 MLOAD DUP1 SWAP2 SUB SWAP1 KECCAK256 SLOAD DUP2 PUSH1 0x40 MLOAD PUSH2 0x1383 SWAP2 SWAP1 PUSH2 0x225D JUMP JUMPDEST PUSH1 0x40 MLOAD SWAP1 DUP2 SWAP1 SUB DUP2 KECCAK256 SWAP1 PUSH32 0xF77F9A799FE8B0BE1463ABD7459A18FC55DFD8A6A24DDD29B54FD098088089C8 SWAP1 PUSH1 0x0 SWAP1 LOG3 POP JUMP JUMPDEST PUSH1 0x9 SLOAD PUSH1 0x0 SWAP1 PUSH1 0x1 SWAP1 PUSH1 0x1 PUSH1 0x1 PUSH1 0xA0 SHL SUB DUP5 DUP2 AND SWAP2 AND EQ PUSH2 0x13EF JUMPI POP PUSH1 0x1 PUSH1 0x1 PUSH1 0xA0 SHL SUB DUP4 AND PUSH1 0x0 SWAP1 DUP2 MSTORE PUSH1 0x5 PUSH1 0x20 MSTORE PUSH1 0x40 SWAP1 KECCAK256 SLOAD PUSH1 0xFF AND JUMPDEST DUP1 DUP1 ISZERO PUSH2 0x142E JUMPI POP PUSH1 0xB SLOAD PUSH1 0x1 PUSH1 0x1 PUSH1 0xA0 SHL SUB DUP1 DUP7 AND PUSH1 0x0 SWAP1 DUP2 MSTORE PUSH1 0x4 PUSH1 0x20 SWAP1 DUP2 MSTORE PUSH1 0x40 DUP1 DUP4 KECCAK256 SWAP4 DUP9 AND DUP4 MSTORE SWAP3 SWAP1 MSTORE KECCAK256 SLOAD TIMESTAMP SWAP2 PUSH2 0x142B SWAP2 PUSH2 0x23A0 JUMP JUMPDEST GT ISZERO JUMPDEST SWAP5 SWAP4 POP POP POP POP JUMP JUMPDEST PUSH1 0x0 SLOAD PUSH1 0x1 PUSH1 0x1 PUSH1 0xA0 SHL SUB AND CALLER EQ PUSH2 0x1460 JUMPI PUSH1 0x40 MLOAD PUSH3 0x461BCD PUSH1 0xE5 SHL DUP2 MSTORE PUSH1 0x4 ADD PUSH2 0x6B0 SWAP1 PUSH2 0x2279 JUMP JUMPDEST PUSH1 0xD DUP1 SLOAD PUSH1 0x1 PUSH1 0x1 PUSH1 0xA0 SHL SUB NOT AND PUSH1 0x1 PUSH1 0x1 PUSH1 0xA0 SHL SUB SWAP3 SWAP1 SWAP3 AND SWAP2 SWAP1 SWAP2 OR SWAP1 SSTORE JUMP JUMPDEST PUSH1 0x0 SLOAD PUSH1 0x1 PUSH1 0x1 PUSH1 0xA0 SHL SUB AND CALLER EQ PUSH2 0x14AC JUMPI PUSH1 0x40 MLOAD PUSH3 0x461BCD PUSH1 0xE5 SHL DUP2 MSTORE PUSH1 0x4 ADD PUSH2 0x6B0 SWAP1 PUSH2 0x2279 JUMP JUMPDEST PUSH1 0x40 DUP1 MLOAD DUP1 DUP3 ADD SWAP1 SWAP2 MSTORE PUSH1 0x19 DUP2 MSTORE PUSH32 0x61646A7573744D6178416D6F756E745065725265636569766500000000000000 PUSH1 0x20 DUP3 ADD MSTORE PUSH1 0x0 SLOAD PUSH1 0x1 PUSH1 0xA0 SHL SWAP1 DIV PUSH1 0xFF AND ISZERO DUP1 PUSH2 0x1579 JUMPI POP PUSH1 0x1 DUP2 PUSH1 0x40 MLOAD PUSH2 0x1504 SWAP2 SWAP1 PUSH2 0x225D JUMP JUMPDEST SWAP1 DUP2 MSTORE PUSH1 0x20 ADD PUSH1 0x40 MLOAD DUP1 SWAP2 SUB SWAP1 KECCAK256 SLOAD PUSH1 0x0 EQ ISZERO DUP1 ISZERO PUSH2 0x1541 JUMPI POP TIMESTAMP PUSH1 0x1 DUP3 PUSH1 0x40 MLOAD PUSH2 0x152F SWAP2 SWAP1 PUSH2 0x225D JUMP JUMPDEST SWAP1 DUP2 MSTORE PUSH1 0x20 ADD PUSH1 0x40 MLOAD DUP1 SWAP2 SUB SWAP1 KECCAK256 SLOAD GT ISZERO JUMPDEST DUP1 ISZERO PUSH2 0x1579 JUMPI POP TIMESTAMP PUSH3 0x15180 PUSH1 0x1 DUP4 PUSH1 0x40 MLOAD PUSH2 0x155D SWAP2 SWAP1 PUSH2 0x225D JUMP JUMPDEST SWAP1 DUP2 MSTORE PUSH1 0x20 ADD PUSH1 0x40 MLOAD DUP1 SWAP2 SUB SWAP1 KECCAK256 SLOAD PUSH2 0x1576 SWAP2 SWAP1 PUSH2 0x23A0 JUMP JUMPDEST LT ISZERO JUMPDEST PUSH2 0x1595 JUMPI PUSH1 0x40 MLOAD PUSH3 0x461BCD PUSH1 0xE5 SHL DUP2 MSTORE PUSH1 0x4 ADD PUSH2 0x6B0 SWAP1 PUSH2 0x22AE JUMP JUMPDEST PUSH1 0xA SLOAD PUSH1 0x40 MLOAD DUP4 SWAP2 SWAP1 PUSH32 0xD07363C93CA88CA1140B355020CB77B0320B19E19A34BB15AA4566D27C2FABBD SWAP1 PUSH1 0x0 SWAP1 LOG3 PUSH1 0xA DUP3 SWAP1 SSTORE PUSH2 0x898 DUP2 PUSH2 0x1266 JUMP JUMPDEST PUSH1 0x0 SLOAD PUSH1 0x1 PUSH1 0x1 PUSH1 0xA0 SHL SUB AND CALLER EQ PUSH2 0x15FC JUMPI PUSH1 0x40 MLOAD PUSH3 0x461BCD PUSH1 0xE5 SHL DUP2 MSTORE PUSH1 0x4 ADD PUSH2 0x6B0 SWAP1 PUSH2 0x2279 JUMP JUMPDEST PUSH1 0xD SLOAD PUSH1 0x1 PUSH1 0x1 PUSH1 0xA0 SHL SUB AND PUSH2 0x168D JUMPI PUSH1 0x40 MLOAD PUSH3 0x461BCD PUSH1 0xE5 SHL DUP2 MSTORE PUSH1 0x20 PUSH1 0x4 DUP3 ADD MSTORE PUSH1 0x4A PUSH1 0x24 DUP3 ADD MSTORE PUSH32 0x41424F41543A3A73656E645265776172647341734574683A2054686572652069 PUSH1 0x44 DUP3 ADD MSTORE PUSH32 0x73206E6F20726F7574657220646566696E656420746F207377617020746F6B65 PUSH1 0x64 DUP3 ADD MSTORE PUSH10 0xDCE640CCDEE440CAE8D PUSH1 0xB3 SHL PUSH1 0x84 DUP3 ADD MSTORE PUSH1 0xA4 ADD PUSH2 0x6B0 JUMP JUMPDEST PUSH1 0x9 SLOAD PUSH2 0x16A2 SWAP1 PUSH1 0x1 PUSH1 0x1 PUSH1 0xA0 SHL SUB AND PUSH2 0x1A13 JUMP JUMPDEST DUP3 GT ISZERO PUSH2 0x1727 JUMPI PUSH1 0x40 MLOAD PUSH3 0x461BCD PUSH1 0xE5 SHL DUP2 MSTORE PUSH1 0x20 PUSH1 0x4 DUP3 ADD MSTORE PUSH1 0x47 PUSH1 0x24 DUP3 ADD MSTORE PUSH32 0x41424F41543A3A73656E645265776172647341734574683A2043616E27742073 PUSH1 0x44 DUP3 ADD MSTORE PUSH32 0x656E64206D6F72652072657761726473207468616E20696E2072657761726420 PUSH1 0x64 DUP3 ADD MSTORE PUSH7 0x73797374656D21 PUSH1 0xC8 SHL PUSH1 0x84 DUP3 ADD MSTORE PUSH1 0xA4 ADD PUSH2 0x6B0 JUMP JUMPDEST PUSH1 0xA SLOAD DUP3 GT ISZERO PUSH2 0x179F JUMPI PUSH1 0x40 MLOAD PUSH3 0x461BCD PUSH1 0xE5 SHL DUP2 MSTORE PUSH1 0x20 PUSH1 0x4 DUP3 ADD MSTORE PUSH1 0x3C PUSH1 0x24 DUP3 ADD MSTORE PUSH32 0x41424F41543A3A73656E645265776172647341734574683A2043616E27742073 PUSH1 0x44 DUP3 ADD MSTORE PUSH32 0x656E64206D6F72652072657761726473207468616E206C696D69742100000000 PUSH1 0x64 DUP3 ADD MSTORE PUSH1 0x84 ADD PUSH2 0x6B0 JUMP JUMPDEST PUSH1 0x9 SLOAD PUSH2 0x17B6 SWAP1 DUP3 SWAP1 PUSH1 0x1 PUSH1 0x1 PUSH1 0xA0 SHL SUB AND PUSH2 0x13B6 JUMP JUMPDEST PUSH2 0x1828 JUMPI PUSH1 0x40 MLOAD PUSH3 0x461BCD PUSH1 0xE5 SHL DUP2 MSTORE PUSH1 0x20 PUSH1 0x4 DUP3 ADD MSTORE PUSH1 0x3B PUSH1 0x24 DUP3 ADD MSTORE PUSH32 0x41424F41543A3A73656E645265776172647341734574683A2043616E27742063 PUSH1 0x44 DUP3 ADD MSTORE PUSH32 0x6C61696D206D6F7265207468616E206F6E636520706572206461790000000000 PUSH1 0x64 DUP3 ADD MSTORE PUSH1 0x84 ADD PUSH2 0x6B0 JUMP JUMPDEST PUSH1 0x1 PUSH1 0x1 PUSH1 0xA0 SHL SUB DUP1 DUP3 AND PUSH1 0x0 SWAP1 DUP2 MSTORE PUSH1 0x4 PUSH1 0x20 SWAP1 DUP2 MSTORE PUSH1 0x40 DUP1 DUP4 KECCAK256 PUSH1 0x9 SLOAD SWAP1 SWAP5 AND DUP4 MSTORE SWAP3 SWAP1 MSTORE KECCAK256 TIMESTAMP SWAP1 SSTORE SELFBALANCE PUSH2 0x185D DUP4 PUSH2 0x1ECB JUMP JUMPDEST PUSH1 0x0 PUSH2 0x1869 SELFBALANCE DUP4 PUSH2 0x1D8E JUMP JUMPDEST SWAP1 POP PUSH1 0x0 PUSH2 0x1882 PUSH1 0x6 SLOAD DUP4 PUSH2 0x1D82 SWAP1 SWAP2 SWAP1 PUSH4 0xFFFFFFFF AND JUMP JUMPDEST SWAP1 POP PUSH2 0x188E DUP3 DUP3 PUSH2 0x1D8E JUMP JUMPDEST SWAP2 POP PUSH2 0x18A5 PUSH2 0x11F0 PUSH1 0x0 SLOAD PUSH1 0x1 PUSH1 0x1 PUSH1 0xA0 SHL SUB AND SWAP1 JUMP JUMPDEST PUSH2 0x18AF DUP5 DUP4 PUSH2 0x1C90 JUMP JUMPDEST DUP1 DUP3 DUP6 PUSH1 0x1 PUSH1 0x1 PUSH1 0xA0 SHL SUB AND PUSH32 0x75B2EAC24930BF6A8227DBE172D34480E56BE5C6994435067628424190D53431 PUSH1 0x40 MLOAD PUSH1 0x40 MLOAD DUP1 SWAP2 SUB SWAP1 LOG4 POP POP POP POP POP JUMP JUMPDEST PUSH1 0x0 SLOAD PUSH1 0x1 PUSH1 0x1 PUSH1 0xA0 SHL SUB AND CALLER EQ PUSH2 0x1918 JUMPI PUSH1 0x40 MLOAD PUSH3 0x461BCD PUSH1 0xE5 SHL DUP2 MSTORE PUSH1 0x4 ADD PUSH2 0x6B0 SWAP1 PUSH2 0x2279 JUMP JUMPDEST PUSH1 0x1 PUSH1 0x1 PUSH1 0xA0 SHL SUB DUP2 AND PUSH2 0x197D JUMPI PUSH1 0x40 MLOAD PUSH3 0x461BCD PUSH1 0xE5 SHL DUP2 MSTORE PUSH1 0x20 PUSH1 0x4 DUP3 ADD MSTORE PUSH1 0x26 PUSH1 0x24 DUP3 ADD MSTORE PUSH32 0x4F776E61626C653A206E6577206F776E657220697320746865207A65726F2061 PUSH1 0x44 DUP3 ADD MSTORE PUSH6 0x646472657373 PUSH1 0xD0 SHL PUSH1 0x64 DUP3 ADD MSTORE PUSH1 0x84 ADD PUSH2 0x6B0 JUMP JUMPDEST PUSH2 0x1986 DUP2 PUSH2 0x2043 JUMP JUMPDEST POP JUMP JUMPDEST CALLER PUSH2 0x199C PUSH1 0x0 SLOAD PUSH1 0x1 PUSH1 0x1 PUSH1 0xA0 SHL SUB AND SWAP1 JUMP JUMPDEST PUSH1 0x1 PUSH1 0x1 PUSH1 0xA0 SHL SUB AND EQ DUP1 PUSH2 0x19BB JUMPI POP PUSH1 0x2 SLOAD PUSH1 0x1 PUSH1 0x1 PUSH1 0xA0 SHL SUB AND CALLER EQ JUMPDEST PUSH2 0x19D7 JUMPI PUSH1 0x40 MLOAD PUSH3 0x461BCD PUSH1 0xE5 SHL DUP2 MSTORE PUSH1 0x4 ADD PUSH2 0x6B0 SWAP1 PUSH2 0x22DA JUMP JUMPDEST PUSH1 0x0 DUP1 SLOAD PUSH1 0xFF PUSH1 0xA0 SHL NOT AND PUSH1 0x1 PUSH1 0xA0 SHL OR DUP2 SSTORE PUSH1 0x40 MLOAD PUSH32 0x2C08B62BFAC9A1B19BB1DEC9323F1CE01696A77948B256ABF3603D30F25A864E SWAP2 SWAP1 LOG1 JUMP JUMPDEST PUSH1 0x0 PUSH1 0x1 PUSH1 0x1 PUSH1 0xA0 SHL SUB DUP3 AND PUSH2 0x1A2A JUMPI POP SELFBALANCE SWAP2 SWAP1 POP JUMP JUMPDEST PUSH1 0x40 MLOAD PUSH4 0x70A08231 PUSH1 0xE0 SHL DUP2 MSTORE ADDRESS PUSH1 0x4 DUP3 ADD MSTORE PUSH1 0x1 PUSH1 0x1 PUSH1 0xA0 SHL SUB DUP4 AND SWAP1 PUSH4 0x70A08231 SWAP1 PUSH1 0x24 ADD PUSH1 0x20 PUSH1 0x40 MLOAD DUP1 DUP4 SUB DUP2 DUP7 DUP1 EXTCODESIZE ISZERO DUP1 ISZERO PUSH2 0x1A69 JUMPI PUSH1 0x0 DUP1 REVERT JUMPDEST POP GAS STATICCALL ISZERO DUP1 ISZERO PUSH2 0x1A7D JUMPI RETURNDATASIZE PUSH1 0x0 DUP1 RETURNDATACOPY RETURNDATASIZE PUSH1 0x0 REVERT JUMPDEST POP POP POP POP PUSH1 0x40 MLOAD RETURNDATASIZE PUSH1 0x1F NOT PUSH1 0x1F DUP3 ADD AND DUP3 ADD DUP1 PUSH1 0x40 MSTORE POP DUP2 ADD SWAP1 PUSH2 0x1AA1 SWAP2 SWAP1 PUSH2 0x21D5 JUMP JUMPDEST SWAP3 SWAP2 POP POP JUMP JUMPDEST PUSH1 0x0 SLOAD PUSH1 0x1 PUSH1 0x1 PUSH1 0xA0 SHL SUB AND CALLER EQ PUSH2 0x1AD1 JUMPI PUSH1 0x40 MLOAD PUSH3 0x461BCD PUSH1 0xE5 SHL DUP2 MSTORE PUSH1 0x4 ADD PUSH2 0x6B0 SWAP1 PUSH2 0x2279 JUMP JUMPDEST PUSH1 0x40 DUP1 MLOAD DUP1 DUP3 ADD SWAP1 SWAP2 MSTORE PUSH1 0x11 DUP2 MSTORE PUSH17 0x3AB83230BA32A932BBB0B9322A37B5B2B7 PUSH1 0x79 SHL PUSH1 0x20 DUP3 ADD MSTORE PUSH1 0x0 SLOAD PUSH1 0x1 PUSH1 0xA0 SHL SWAP1 DIV PUSH1 0xFF AND ISZERO DUP1 PUSH2 0x1B92 JUMPI POP PUSH1 0x1 DUP2 PUSH1 0x40 MLOAD PUSH2 0x1B1D SWAP2 SWAP1 PUSH2 0x225D JUMP JUMPDEST SWAP1 DUP2 MSTORE PUSH1 0x20 ADD PUSH1 0x40 MLOAD DUP1 SWAP2 SUB SWAP1 KECCAK256 SLOAD PUSH1 0x0 EQ ISZERO DUP1 ISZERO PUSH2 0x1B5A JUMPI POP TIMESTAMP PUSH1 0x1 DUP3 PUSH1 0x40 MLOAD PUSH2 0x1B48 SWAP2 SWAP1 PUSH2 0x225D JUMP JUMPDEST SWAP1 DUP2 MSTORE PUSH1 0x20 ADD PUSH1 0x40 MLOAD DUP1 SWAP2 SUB SWAP1 KECCAK256 SLOAD GT ISZERO JUMPDEST DUP1 ISZERO PUSH2 0x1B92 JUMPI POP TIMESTAMP PUSH3 0x15180 PUSH1 0x1 DUP4 PUSH1 0x40 MLOAD PUSH2 0x1B76 SWAP2 SWAP1 PUSH2 0x225D JUMP JUMPDEST SWAP1 DUP2 MSTORE PUSH1 0x20 ADD PUSH1 0x40 MLOAD DUP1 SWAP2 SUB SWAP1 KECCAK256 SLOAD PUSH2 0x1B8F SWAP2 SWAP1 PUSH2 0x23A0 JUMP JUMPDEST LT ISZERO JUMPDEST PUSH2 0x1BAE JUMPI PUSH1 0x40 MLOAD PUSH3 0x461BCD PUSH1 0xE5 SHL DUP2 MSTORE PUSH1 0x4 ADD PUSH2 0x6B0 SWAP1 PUSH2 0x22AE JUMP JUMPDEST PUSH1 0x9 SLOAD PUSH1 0x1 PUSH1 0x1 PUSH1 0xA0 SHL SUB DUP4 DUP2 AND SWAP2 AND EQ ISZERO PUSH2 0x1C32 JUMPI PUSH1 0x40 MLOAD PUSH3 0x461BCD PUSH1 0xE5 SHL DUP2 MSTORE PUSH1 0x20 PUSH1 0x4 DUP3 ADD MSTORE PUSH1 0x3F PUSH1 0x24 DUP3 ADD MSTORE PUSH32 0x41424F41543A757064617465526577617264546F6B656E3A20596F752063616E PUSH1 0x44 DUP3 ADD MSTORE PUSH32 0x277420757064617465207468652065786163742073616D6520746F6B656E7300 PUSH1 0x64 DUP3 ADD MSTORE PUSH1 0x84 ADD PUSH2 0x6B0 JUMP JUMPDEST PUSH1 0x9 SLOAD PUSH1 0x40 MLOAD PUSH1 0x1 PUSH1 0x1 PUSH1 0xA0 SHL SUB DUP1 DUP6 AND SWAP3 AND SWAP1 PUSH32 0xCB89265F21B9FC8710E9D9E42BBB37AF1EB207454DECA6D5E36787BE2367C1D6 SWAP1 PUSH1 0x0 SWAP1 LOG3 PUSH1 0x9 DUP1 SLOAD PUSH1 0x1 PUSH1 0x1 PUSH1 0xA0 SHL SUB NOT AND PUSH1 0x1 PUSH1 0x1 PUSH1 0xA0 SHL SUB DUP5 AND OR SWAP1 SSTORE PUSH2 0x898 DUP2 PUSH2 0x1266 JUMP JUMPDEST PUSH1 0x40 DUP1 MLOAD PUSH1 0x0 DUP1 DUP3 MSTORE PUSH1 0x20 DUP3 ADD SWAP1 SWAP3 MSTORE PUSH1 0x1 PUSH1 0x1 PUSH1 0xA0 SHL SUB DUP5 AND SWAP1 DUP4 SWAP1 PUSH1 0x40 MLOAD PUSH2 0x1CBA SWAP2 SWAP1 PUSH2 0x225D JUMP JUMPDEST PUSH1 0x0 PUSH1 0x40 MLOAD DUP1 DUP4 SUB DUP2 DUP6 DUP8 GAS CALL SWAP3 POP POP POP RETURNDATASIZE DUP1 PUSH1 0x0 DUP2 EQ PUSH2 0x1CF7 JUMPI PUSH1 0x40 MLOAD SWAP2 POP PUSH1 0x1F NOT PUSH1 0x3F RETURNDATASIZE ADD AND DUP3 ADD PUSH1 0x40 MSTORE RETURNDATASIZE DUP3 MSTORE RETURNDATASIZE PUSH1 0x0 PUSH1 0x20 DUP5 ADD RETURNDATACOPY PUSH2 0x1CFC JUMP JUMPDEST PUSH1 0x60 SWAP2 POP JUMPDEST POP POP SWAP1 POP DUP1 PUSH2 0x1D6A JUMPI PUSH1 0x40 MLOAD PUSH3 0x461BCD PUSH1 0xE5 SHL DUP2 MSTORE PUSH1 0x20 PUSH1 0x4 DUP3 ADD MSTORE PUSH1 0x34 PUSH1 0x24 DUP3 ADD MSTORE PUSH32 0x5472616E7366657248656C7065723A3A736166655472616E736665724554483A PUSH1 0x44 DUP3 ADD MSTORE PUSH20 0x8115512081D1C985B9CD9995C8819985A5B1959 PUSH1 0x62 SHL PUSH1 0x64 DUP3 ADD MSTORE PUSH1 0x84 ADD PUSH2 0x6B0 JUMP JUMPDEST POP POP POP JUMP JUMPDEST PUSH1 0x0 PUSH2 0x1D7B DUP3 DUP5 PUSH2 0x23DA JUMP JUMPDEST SWAP4 SWAP3 POP POP POP JUMP JUMPDEST PUSH1 0x0 PUSH2 0x1D7B DUP3 DUP5 PUSH2 0x23B8 JUMP JUMPDEST PUSH1 0x0 PUSH2 0x1D7B DUP3 DUP5 PUSH2 0x23F9 JUMP JUMPDEST PUSH1 0x40 DUP1 MLOAD PUSH1 0x1 PUSH1 0x1 PUSH1 0xA0 SHL SUB DUP5 DUP2 AND PUSH1 0x24 DUP4 ADD MSTORE PUSH1 0x44 DUP1 DUP4 ADD DUP6 SWAP1 MSTORE DUP4 MLOAD DUP1 DUP5 SUB SWAP1 SWAP2 ADD DUP2 MSTORE PUSH1 0x64 SWAP1 SWAP3 ADD DUP4 MSTORE PUSH1 0x20 DUP3 ADD DUP1 MLOAD PUSH1 0x1 PUSH1 0x1 PUSH1 0xE0 SHL SUB AND PUSH4 0xA9059CBB PUSH1 0xE0 SHL OR SWAP1 MSTORE SWAP2 MLOAD PUSH1 0x0 SWAP3 DUP4 SWAP3 SWAP1 DUP8 AND SWAP2 PUSH2 0x1DF6 SWAP2 SWAP1 PUSH2 0x225D JUMP JUMPDEST PUSH1 0x0 PUSH1 0x40 MLOAD DUP1 DUP4 SUB DUP2 PUSH1 0x0 DUP7 GAS CALL SWAP2 POP POP RETURNDATASIZE DUP1 PUSH1 0x0 DUP2 EQ PUSH2 0x1E33 JUMPI PUSH1 0x40 MLOAD SWAP2 POP PUSH1 0x1F NOT PUSH1 0x3F RETURNDATASIZE ADD AND DUP3 ADD PUSH1 0x40 MSTORE RETURNDATASIZE DUP3 MSTORE RETURNDATASIZE PUSH1 0x0 PUSH1 0x20 DUP5 ADD RETURNDATACOPY PUSH2 0x1E38 JUMP JUMPDEST PUSH1 0x60 SWAP2 POP JUMPDEST POP SWAP2 POP SWAP2 POP DUP2 DUP1 ISZERO PUSH2 0x1E62 JUMPI POP DUP1 MLOAD ISZERO DUP1 PUSH2 0x1E62 JUMPI POP DUP1 DUP1 PUSH1 0x20 ADD SWAP1 MLOAD DUP2 ADD SWAP1 PUSH2 0x1E62 SWAP2 SWAP1 PUSH2 0x20E9 JUMP JUMPDEST PUSH2 0x1EC4 JUMPI PUSH1 0x40 MLOAD PUSH3 0x461BCD PUSH1 0xE5 SHL DUP2 MSTORE PUSH1 0x20 PUSH1 0x4 DUP3 ADD MSTORE PUSH1 0x2D PUSH1 0x24 DUP3 ADD MSTORE PUSH32 0x5472616E7366657248656C7065723A3A736166655472616E736665723A207472 PUSH1 0x44 DUP3 ADD MSTORE PUSH13 0x185B9CD9995C8819985A5B1959 PUSH1 0x9A SHL PUSH1 0x64 DUP3 ADD MSTORE PUSH1 0x84 ADD PUSH2 0x6B0 JUMP JUMPDEST POP POP POP POP POP JUMP JUMPDEST PUSH1 0x40 DUP1 MLOAD PUSH1 0x2 DUP1 DUP3 MSTORE PUSH1 0x60 DUP3 ADD DUP4 MSTORE PUSH1 0x0 SWAP3 PUSH1 0x20 DUP4 ADD SWAP1 DUP1 CALLDATASIZE DUP4 CALLDATACOPY POP POP PUSH1 0x9 SLOAD DUP3 MLOAD SWAP3 SWAP4 POP PUSH1 0x1 PUSH1 0x1 PUSH1 0xA0 SHL SUB AND SWAP2 DUP4 SWAP2 POP PUSH1 0x0 SWAP1 PUSH2 0x1F0C JUMPI PUSH2 0x1F0C PUSH2 0x2456 JUMP JUMPDEST PUSH1 0x1 PUSH1 0x1 PUSH1 0xA0 SHL SUB SWAP3 DUP4 AND PUSH1 0x20 SWAP2 DUP3 MUL SWAP3 SWAP1 SWAP3 ADD ADD MSTORE PUSH1 0xC SLOAD DUP3 MLOAD SWAP2 AND SWAP1 DUP3 SWAP1 PUSH1 0x1 SWAP1 DUP2 LT PUSH2 0x1F3D JUMPI PUSH2 0x1F3D PUSH2 0x2456 JUMP JUMPDEST PUSH1 0x1 PUSH1 0x1 PUSH1 0xA0 SHL SUB SWAP3 DUP4 AND PUSH1 0x20 SWAP2 DUP3 MUL SWAP3 SWAP1 SWAP3 ADD ADD MSTORE PUSH1 0x9 SLOAD PUSH1 0xD SLOAD PUSH1 0x40 MLOAD PUSH4 0x95EA7B3 PUSH1 0xE0 SHL DUP2 MSTORE SWAP1 DUP4 AND PUSH1 0x4 DUP3 ADD MSTORE PUSH1 0x24 DUP2 ADD DUP6 SWAP1 MSTORE SWAP2 AND SWAP1 PUSH4 0x95EA7B3 SWAP1 PUSH1 0x44 ADD PUSH1 0x20 PUSH1 0x40 MLOAD DUP1 DUP4 SUB DUP2 PUSH1 0x0 DUP8 DUP1 EXTCODESIZE ISZERO DUP1 ISZERO PUSH2 0x1F9B JUMPI PUSH1 0x0 DUP1 REVERT JUMPDEST POP GAS CALL ISZERO DUP1 ISZERO PUSH2 0x1FAF JUMPI RETURNDATASIZE PUSH1 0x0 DUP1 RETURNDATACOPY RETURNDATASIZE PUSH1 0x0 REVERT JUMPDEST POP POP POP POP PUSH1 0x40 MLOAD RETURNDATASIZE PUSH1 0x1F NOT PUSH1 0x1F DUP3 ADD AND DUP3 ADD DUP1 PUSH1 0x40 MSTORE POP DUP2 ADD SWAP1 PUSH2 0x1FD3 SWAP2 SWAP1 PUSH2 0x20E9 JUMP JUMPDEST POP PUSH1 0xD SLOAD PUSH1 0x40 MLOAD PUSH4 0x791AC947 PUSH1 0xE0 SHL DUP2 MSTORE PUSH1 0x1 PUSH1 0x1 PUSH1 0xA0 SHL SUB SWAP1 SWAP2 AND SWAP1 PUSH4 0x791AC947 SWAP1 PUSH2 0x200D SWAP1 DUP6 SWAP1 PUSH1 0x0 SWAP1 DUP7 SWAP1 ADDRESS SWAP1 TIMESTAMP SWAP1 PUSH1 0x4 ADD PUSH2 0x232F JUMP JUMPDEST PUSH1 0x0 PUSH1 0x40 MLOAD DUP1 DUP4 SUB DUP2 PUSH1 0x0 DUP8 DUP1 EXTCODESIZE ISZERO DUP1 ISZERO PUSH2 0x2027 JUMPI PUSH1 0x0 DUP1 REVERT JUMPDEST POP GAS CALL ISZERO DUP1 ISZERO PUSH2 0x203B JUMPI RETURNDATASIZE PUSH1 0x0 DUP1 RETURNDATACOPY RETURNDATASIZE PUSH1 0x0 REVERT JUMPDEST POP POP POP POP POP POP JUMP JUMPDEST PUSH1 0x0 DUP1 SLOAD PUSH1 0x1 PUSH1 0x1 PUSH1 0xA0 SHL SUB DUP4 DUP2 AND PUSH1 0x1 PUSH1 0x1 PUSH1 0xA0 SHL SUB NOT DUP4 AND DUP2 OR DUP5 SSTORE PUSH1 0x40 MLOAD SWAP2 SWAP1 SWAP3 AND SWAP3 DUP4 SWAP2 PUSH32 0x8BE0079C531659141344CD1FD0A4F28419497F9722A3DAAFE3B4186F6B6457E0 SWAP2 SWAP1 LOG3 POP POP JUMP JUMPDEST PUSH1 0x0 PUSH1 0x20 DUP3 DUP5 SUB SLT ISZERO PUSH2 0x20A5 JUMPI PUSH1 0x0 DUP1 REVERT JUMPDEST DUP2 CALLDATALOAD PUSH2 0x1D7B DUP2 PUSH2 0x2482 JUMP JUMPDEST PUSH1 0x0 DUP1 PUSH1 0x40 DUP4 DUP6 SUB SLT ISZERO PUSH2 0x20C3 JUMPI PUSH1 0x0 DUP1 REVERT JUMPDEST DUP3 CALLDATALOAD PUSH2 0x20CE DUP2 PUSH2 0x2482 JUMP JUMPDEST SWAP2 POP PUSH1 0x20 DUP4 ADD CALLDATALOAD PUSH2 0x20DE DUP2 PUSH2 0x2482 JUMP JUMPDEST DUP1 SWAP2 POP POP SWAP3 POP SWAP3 SWAP1 POP JUMP JUMPDEST PUSH1 0x0 PUSH1 0x20 DUP3 DUP5 SUB SLT ISZERO PUSH2 0x20FB JUMPI PUSH1 0x0 DUP1 REVERT JUMPDEST DUP2 MLOAD DUP1 ISZERO ISZERO DUP2 EQ PUSH2 0x1D7B JUMPI PUSH1 0x0 DUP1 REVERT JUMPDEST PUSH1 0x0 PUSH1 0x20 DUP3 DUP5 SUB SLT ISZERO PUSH2 0x211D JUMPI PUSH1 0x0 DUP1 REVERT JUMPDEST DUP2 CALLDATALOAD PUSH8 0xFFFFFFFFFFFFFFFF DUP1 DUP3 GT ISZERO PUSH2 0x2135 JUMPI PUSH1 0x0 DUP1 REVERT JUMPDEST DUP2 DUP5 ADD SWAP2 POP DUP5 PUSH1 0x1F DUP4 ADD SLT PUSH2 0x2149 JUMPI PUSH1 0x0 DUP1 REVERT JUMPDEST DUP2 CALLDATALOAD DUP2 DUP2 GT ISZERO PUSH2 0x215B JUMPI PUSH2 0x215B PUSH2 0x246C JUMP JUMPDEST PUSH1 0x40 MLOAD PUSH1 0x1F DUP3 ADD PUSH1 0x1F NOT SWAP1 DUP2 AND PUSH1 0x3F ADD AND DUP2 ADD SWAP1 DUP4 DUP3 GT DUP2 DUP4 LT OR ISZERO PUSH2 0x2183 JUMPI PUSH2 0x2183 PUSH2 0x246C JUMP JUMPDEST DUP2 PUSH1 0x40 MSTORE DUP3 DUP2 MSTORE DUP8 PUSH1 0x20 DUP5 DUP8 ADD ADD GT ISZERO PUSH2 0x219C JUMPI PUSH1 0x0 DUP1 REVERT JUMPDEST DUP3 PUSH1 0x20 DUP7 ADD PUSH1 0x20 DUP4 ADD CALLDATACOPY PUSH1 0x0 SWAP3 DUP2 ADD PUSH1 0x20 ADD SWAP3 SWAP1 SWAP3 MSTORE POP SWAP6 SWAP5 POP POP POP POP POP JUMP JUMPDEST PUSH1 0x0 PUSH1 0x20 DUP3 DUP5 SUB SLT ISZERO PUSH2 0x21CE JUMPI PUSH1 0x0 DUP1 REVERT JUMPDEST POP CALLDATALOAD SWAP2 SWAP1 POP JUMP JUMPDEST PUSH1 0x0 PUSH1 0x20 DUP3 DUP5 SUB SLT ISZERO PUSH2 0x21E7 JUMPI PUSH1 0x0 DUP1 REVERT JUMPDEST POP MLOAD SWAP2 SWAP1 POP JUMP JUMPDEST PUSH1 0x0 DUP1 PUSH1 0x40 DUP4 DUP6 SUB SLT ISZERO PUSH2 0x2201 JUMPI PUSH1 0x0 DUP1 REVERT JUMPDEST DUP3 CALLDATALOAD SWAP2 POP PUSH1 0x20 DUP4 ADD CALLDATALOAD PUSH2 0x20DE DUP2 PUSH2 0x2482 JUMP JUMPDEST PUSH1 0x0 DUP1 PUSH1 0x0 DUP1 PUSH1 0x80 DUP6 DUP8 SUB SLT ISZERO PUSH2 0x2229 JUMPI PUSH1 0x0 DUP1 REVERT JUMPDEST DUP5 CALLDATALOAD SWAP4 POP PUSH1 0x20 DUP6 ADD CALLDATALOAD PUSH2 0x223B DUP2 PUSH2 0x2482 JUMP JUMPDEST SWAP3 POP PUSH1 0x40 DUP6 ADD CALLDATALOAD SWAP2 POP PUSH1 0x60 DUP6 ADD CALLDATALOAD PUSH2 0x2252 DUP2 PUSH2 0x2482 JUMP JUMPDEST SWAP4 SWAP7 SWAP3 SWAP6 POP SWAP1 SWAP4 POP POP JUMP JUMPDEST PUSH1 0x0 DUP3 MLOAD PUSH2 0x226F DUP2 DUP5 PUSH1 0x20 DUP8 ADD PUSH2 0x2410 JUMP JUMPDEST SWAP2 SWAP1 SWAP2 ADD SWAP3 SWAP2 POP POP JUMP JUMPDEST PUSH1 0x20 DUP1 DUP3 MSTORE DUP2 DUP2 ADD MSTORE PUSH32 0x4F776E61626C653A2063616C6C6572206973206E6F7420746865206F776E6572 PUSH1 0x40 DUP3 ADD MSTORE PUSH1 0x60 ADD SWAP1 JUMP JUMPDEST PUSH1 0x20 DUP1 DUP3 MSTORE PUSH1 0x12 SWAP1 DUP3 ADD MSTORE PUSH18 0x119D5B98DD1A5BDB881A5CC81B1BD8DAD959 PUSH1 0x72 SHL PUSH1 0x40 DUP3 ADD MSTORE PUSH1 0x60 ADD SWAP1 JUMP JUMPDEST PUSH1 0x20 DUP1 DUP3 MSTORE PUSH1 0x35 SWAP1 DUP3 ADD MSTORE PUSH32 0x6F70657261746F723A2063616C6C6572206973206E6F7420616C6C6F77656420 PUSH1 0x40 DUP3 ADD MSTORE PUSH21 0x3A379031B0B636103A3434B990333AB731BA34B7B7 PUSH1 0x59 SHL PUSH1 0x60 DUP3 ADD MSTORE PUSH1 0x80 ADD SWAP1 JUMP JUMPDEST PUSH1 0x0 PUSH1 0xA0 DUP3 ADD DUP8 DUP4 MSTORE PUSH1 0x20 DUP8 DUP2 DUP6 ADD MSTORE PUSH1 0xA0 PUSH1 0x40 DUP6 ADD MSTORE DUP2 DUP8 MLOAD DUP1 DUP5 MSTORE PUSH1 0xC0 DUP7 ADD SWAP2 POP DUP3 DUP10 ADD SWAP4 POP PUSH1 0x0 JUMPDEST DUP2 DUP2 LT ISZERO PUSH2 0x237F JUMPI DUP5 MLOAD PUSH1 0x1 PUSH1 0x1 PUSH1 0xA0 SHL SUB AND DUP4 MSTORE SWAP4 DUP4 ADD SWAP4 SWAP2 DUP4 ADD SWAP2 PUSH1 0x1 ADD PUSH2 0x235A JUMP JUMPDEST POP POP PUSH1 0x1 PUSH1 0x1 PUSH1 0xA0 SHL SUB SWAP7 SWAP1 SWAP7 AND PUSH1 0x60 DUP6 ADD MSTORE POP POP POP PUSH1 0x80 ADD MSTORE SWAP4 SWAP3 POP POP POP JUMP JUMPDEST PUSH1 0x0 DUP3 NOT DUP3 GT ISZERO PUSH2 0x23B3 JUMPI PUSH2 0x23B3 PUSH2 0x2440 JUMP JUMPDEST POP ADD SWAP1 JUMP JUMPDEST PUSH1 0x0 DUP3 PUSH2 0x23D5 JUMPI PUSH4 0x4E487B71 PUSH1 0xE0 SHL PUSH1 0x0 MSTORE PUSH1 0x12 PUSH1 0x4 MSTORE PUSH1 0x24 PUSH1 0x0 REVERT JUMPDEST POP DIV SWAP1 JUMP JUMPDEST PUSH1 0x0 DUP2 PUSH1 0x0 NOT DIV DUP4 GT DUP3 ISZERO ISZERO AND ISZERO PUSH2 0x23F4 JUMPI PUSH2 0x23F4 PUSH2 0x2440 JUMP JUMPDEST POP MUL SWAP1 JUMP JUMPDEST PUSH1 0x0 DUP3 DUP3 LT ISZERO PUSH2 0x240B JUMPI PUSH2 0x240B PUSH2 0x2440 JUMP JUMPDEST POP SUB SWAP1 JUMP JUMPDEST PUSH1 0x0 JUMPDEST DUP4 DUP2 LT ISZERO PUSH2 0x242B JUMPI DUP2 DUP2 ADD MLOAD DUP4 DUP3 ADD MSTORE PUSH1 0x20 ADD PUSH2 0x2413 JUMP JUMPDEST DUP4 DUP2 GT ISZERO PUSH2 0x243A JUMPI PUSH1 0x0 DUP5 DUP5 ADD MSTORE JUMPDEST POP POP POP POP JUMP JUMPDEST PUSH4 0x4E487B71 PUSH1 0xE0 SHL PUSH1 0x0 MSTORE PUSH1 0x11 PUSH1 0x4 MSTORE PUSH1 0x24 PUSH1 0x0 REVERT JUMPDEST PUSH4 0x4E487B71 PUSH1 0xE0 SHL PUSH1 0x0 MSTORE PUSH1 0x32 PUSH1 0x4 MSTORE PUSH1 0x24 PUSH1 0x0 REVERT JUMPDEST PUSH4 0x4E487B71 PUSH1 0xE0 SHL PUSH1 0x0 MSTORE PUSH1 0x41 PUSH1 0x4 MSTORE PUSH1 0x24 PUSH1 0x0 REVERT JUMPDEST PUSH1 0x1 PUSH1 0x1 PUSH1 0xA0 SHL SUB DUP2 AND DUP2 EQ PUSH2 0x1986 JUMPI PUSH1 0x0 DUP1 REVERT INVALID LOG2 PUSH5 0x6970667358 0x22 SLT KECCAK256 DUP11 DUP4 JUMPI 0xDB PUSH28 0x5A9995B3286CB25F9F82A4D73246B308BE66E08761528340CF9FBE64 PUSH20 0x6F6C634300080700330000000000000000000000 "
				},
				"gasEstimates": {
					"creation": {
						"codeDepositCost": "1884200",
						"executionCost": "infinite",
						"totalCost": "infinite"
					},
					"external": {
						"_claimTimes(address,address)": "infinite",
						"_gasCost()": "2373",
						"_maxAmountPerReceive()": "2374",
						"_paidFee(address)": "2638",
						"_rewardToken()": "2404",
						"_rewards(address)": "2592",
						"_router()": "2448",
						"_timeBetweenClaims()": "2331",
						"_weth()": "2405",
						"adjustMaxAmountPerReceive(uint256)": "infinite",
						"canClaim(address,address)": "infinite",
						"changeFee(uint256)": "infinite",
						"changeGasCost(uint256)": "infinite",
						"changeThirdPartyFee(uint256)": "infinite",
						"claim()": "infinite",
						"emergencyWithdraw(address)": "infinite",
						"getBalance(address)": "infinite",
						"getEthBalance()": "295",
						"isLockEnabled()": "2417",
						"lockFunction(string)": "infinite",
						"maintainer()": "2464",
						"nativeSwapFee()": "2373",
						"owner()": "2431",
						"renounceOwnership()": "28159",
						"sendRewardAsEth(uint256,address)": "infinite",
						"sendRewards(uint256,address,uint256,address)": "infinite",
						"setMaintainer(address)": "infinite",
						"setRouter(address)": "26816",
						"setTimelockEnabled()": "29529",
						"thirdPartyFee()": "2329",
						"timelock(string)": "infinite",
						"transferOwnership(address)": "infinite",
						"unlockFunction(string)": "infinite",
						"updateRewardToken(address)": "infinite"
					},
					"internal": {
						"swapTokensForEth(uint256)": "infinite"
					}
				},
				"methodIdentifiers": {
					"_claimTimes(address,address)": "4b417886",
					"_gasCost()": "7ef189f8",
					"_maxAmountPerReceive()": "5dd53826",
					"_paidFee(address)": "2fa07562",
					"_rewardToken()": "b59c6e0e",
					"_rewards(address)": "7d6dfb7e",
					"_router()": "edae876f",
					"_timeBetweenClaims()": "0126ffb9",
					"_weth()": "a1764595",
					"adjustMaxAmountPerReceive(uint256)": "de996a6e",
					"canClaim(address,address)": "a617e653",
					"changeFee(uint256)": "6a1db1bf",
					"changeGasCost(uint256)": "6469b96e",
					"changeThirdPartyFee(uint256)": "1f8c1d2b",
					"claim()": "4e71d92d",
					"emergencyWithdraw(address)": "6ff1c9bc",
					"getBalance(address)": "f8b2cb4f",
					"getEthBalance()": "70ed0ada",
					"isLockEnabled()": "a347511a",
					"lockFunction(string)": "9f531156",
					"maintainer()": "9850d32b",
					"nativeSwapFee()": "c07a1d4d",
					"owner()": "8da5cb5b",
					"renounceOwnership()": "715018a6",
					"sendRewardAsEth(uint256,address)": "e7b6ebba",
					"sendRewards(uint256,address,uint256,address)": "65947939",
					"setMaintainer(address)": "13ea5d29",
					"setRouter(address)": "c0d78655",
					"setTimelockEnabled()": "f4762fd6",
					"thirdPartyFee()": "c4e977c8",
					"timelock(string)": "f98080c0",
					"transferOwnership(address)": "f2fde38b",
					"unlockFunction(string)": "a607494a",
					"updateRewardToken(address)": "f8cf31cb"
				}
			},
			"storageLayout": {
				"storage": [
					{
						"astId": 7,
						"contract": "contracts/chains/binance/RewardSystem.sol:RewardSystem",
						"label": "_owner",
						"offset": 0,
						"slot": "0",
						"type": "t_address"
					},
					{
						"astId": 2594,
						"contract": "contracts/chains/binance/RewardSystem.sol:RewardSystem",
						"label": "isLockEnabled",
						"offset": 20,
						"slot": "0",
						"type": "t_bool"
					},
					{
						"astId": 2598,
						"contract": "contracts/chains/binance/RewardSystem.sol:RewardSystem",
						"label": "timelock",
						"offset": 0,
						"slot": "1",
						"type": "t_mapping(t_string_memory_ptr,t_uint256)"
					},
					{
						"astId": 2603,
						"contract": "contracts/chains/binance/RewardSystem.sol:RewardSystem",
						"label": "_maintainer",
						"offset": 0,
						"slot": "2",
						"type": "t_address"
					},
					{
						"astId": 1800,
						"contract": "contracts/chains/binance/RewardSystem.sol:RewardSystem",
						"label": "_rewards",
						"offset": 0,
						"slot": "3",
						"type": "t_mapping(t_address,t_bool)"
					},
					{
						"astId": 1806,
						"contract": "contracts/chains/binance/RewardSystem.sol:RewardSystem",
						"label": "_claimTimes",
						"offset": 0,
						"slot": "4",
						"type": "t_mapping(t_address,t_mapping(t_address,t_uint256))"
					},
					{
						"astId": 1810,
						"contract": "contracts/chains/binance/RewardSystem.sol:RewardSystem",
						"label": "_paidFee",
						"offset": 0,
						"slot": "5",
						"type": "t_mapping(t_address,t_bool)"
					},
					{
						"astId": 1813,
						"contract": "contracts/chains/binance/RewardSystem.sol:RewardSystem",
						"label": "nativeSwapFee",
						"offset": 0,
						"slot": "6",
						"type": "t_uint256"
					},
					{
						"astId": 1816,
						"contract": "contracts/chains/binance/RewardSystem.sol:RewardSystem",
						"label": "thirdPartyFee",
						"offset": 0,
						"slot": "7",
						"type": "t_uint256"
					},
					{
						"astId": 1819,
						"contract": "contracts/chains/binance/RewardSystem.sol:RewardSystem",
						"label": "_gasCost",
						"offset": 0,
						"slot": "8",
						"type": "t_uint256"
					},
					{
						"astId": 1822,
						"contract": "contracts/chains/binance/RewardSystem.sol:RewardSystem",
						"label": "_rewardToken",
						"offset": 0,
						"slot": "9",
						"type": "t_contract(IERC20)727"
					},
					{
						"astId": 1825,
						"contract": "contracts/chains/binance/RewardSystem.sol:RewardSystem",
						"label": "_maxAmountPerReceive",
						"offset": 0,
						"slot": "10",
						"type": "t_uint256"
					},
					{
						"astId": 1828,
						"contract": "contracts/chains/binance/RewardSystem.sol:RewardSystem",
						"label": "_timeBetweenClaims",
						"offset": 0,
						"slot": "11",
						"type": "t_uint256"
					},
					{
						"astId": 1831,
						"contract": "contracts/chains/binance/RewardSystem.sol:RewardSystem",
						"label": "_weth",
						"offset": 0,
						"slot": "12",
						"type": "t_address"
					},
					{
						"astId": 1837,
						"contract": "contracts/chains/binance/RewardSystem.sol:RewardSystem",
						"label": "_router",
						"offset": 0,
						"slot": "13",
						"type": "t_contract(IUniswapV2Router02)1777"
					}
				],
				"types": {
					"t_address": {
						"encoding": "inplace",
						"label": "address",
						"numberOfBytes": "20"
					},
					"t_bool": {
						"encoding": "inplace",
						"label": "bool",
						"numberOfBytes": "1"
					},
					"t_contract(IERC20)727": {
						"encoding": "inplace",
						"label": "contract IERC20",
						"numberOfBytes": "20"
					},
					"t_contract(IUniswapV2Router02)1777": {
						"encoding": "inplace",
						"label": "contract IUniswapV2Router02",
						"numberOfBytes": "20"
					},
					"t_mapping(t_address,t_bool)": {
						"encoding": "mapping",
						"key": "t_address",
						"label": "mapping(address => bool)",
						"numberOfBytes": "32",
						"value": "t_bool"
					},
					"t_mapping(t_address,t_mapping(t_address,t_uint256))": {
						"encoding": "mapping",
						"key": "t_address",
						"label": "mapping(address => mapping(address => uint256))",
						"numberOfBytes": "32",
						"value": "t_mapping(t_address,t_uint256)"
					},
					"t_mapping(t_address,t_uint256)": {
						"encoding": "mapping",
						"key": "t_address",
						"label": "mapping(address => uint256)",
						"numberOfBytes": "32",
						"value": "t_uint256"
					},
					"t_mapping(t_string_memory_ptr,t_uint256)": {
						"encoding": "mapping",
						"key": "t_string_memory_ptr",
						"label": "mapping(string => uint256)",
						"numberOfBytes": "32",
						"value": "t_uint256"
					},
					"t_string_memory_ptr": {
						"encoding": "bytes",
						"label": "string",
						"numberOfBytes": "32"
					},
					"t_uint256": {
						"encoding": "inplace",
						"label": "uint256",
						"numberOfBytes": "32"
					}
				}
			},
			"userdoc": {
				"kind": "user",
				"methods": {},
				"version": 1
			}
		}
	}
}