{
	"data": {
		"bytecode": {
			"linkReferences": {},
			"object": "60806040526006805460ff60a01b19169055600880546001600160a01b03166607800a00fa007d60a21b17905569152d02c7e14af6800000600955600a80546001600160a01b031990811673c559acc356d3037ec6dbc33a20587051188b863417909155600b8054909116732ea9ca0ca8043575f2189cff9897b575b0c7e8571790556c0c9f2c9cd04674edea400000006010556011805464012c00640064ffffffffff19909116179055348015620000b757600080fd5b50604080518082018252600b81526a20b137b0ba102a37b5b2b760a91b602080830191825283518085019094526005845264105093d05560da1b908401528151919291620001089160039162000cbb565b5080516200011e90600490602084019062000cbb565b50506001600555506200013133620001ac565b600880546001600160a01b031916339081179091556200015190620001fe565b600a5462000168906001600160a01b0316620001fe565b6200017c33601054620002c460201b60201c565b6200018733620001fe565b620001a67310ed43c718714eb63d5aa57b78b54704e256024e62000330565b62000e35565b600680546001600160a01b038381166001600160a01b0319831681179093556040519116919082907f8be0079c531659141344cd1fd0a4f28419497f9722a3daafe3b4186f6b6457e090600090a35050565b33620002126006546001600160a01b031690565b6001600160a01b031614806200023257506008546001600160a01b031633145b620002885760405162461bcd60e51b8152602060048201526035602482015260008051602062005dd8833981519152604482015260008051602062005df883398151915260648201526084015b60405180910390fd5b6001600160a01b03166000908152600e602090815260408083208054600160ff199182168117909255600f909352922080549091169091179055565b6006546001600160a01b03163314620003205760405162461bcd60e51b815260206004820181905260248201527f4f776e61626c653a2063616c6c6572206973206e6f7420746865206f776e657260448201526064016200027f565b6200032c8282620005a7565b5050565b33620003446006546001600160a01b031690565b6001600160a01b031614806200036457506008546001600160a01b031633145b620003b65760405162461bcd60e51b8152602060048201526035602482015260008051602062005dd8833981519152604482015260008051602062005df883398151915260648201526084016200027f565b604080518082019091526006808252653937baba32b960d11b602083015254600160a01b900460ff161580620004765750600781604051620003f9919062000d93565b9081526020016040518091039020546000141580156200043957504260078260405162000427919062000d93565b90815260200160405180910390205411155b8015620004765750426201518060078360405162000458919062000d93565b90815260200160405180910390205462000473919062000dd1565b10155b620004b95760405162461bcd60e51b8152602060048201526012602482015271119d5b98dd1a5bdb881a5cc81b1bd8dad95960721b60448201526064016200027f565b600d80546001600160a01b0319166001600160a01b038416908117909155604080516315ab88c960e31b8152905162000554929163ad5c4648916004808301926020929190829003018186803b1580156200051357600080fd5b505afa15801562000528573d6000803e3d6000fd5b505050506040513d601f19601f820116820180604052508101906200054e919062000d61565b6200068c565b6200055f8262000b64565b600c546040516001600160a01b039182169184169033907feb7c1e97c05570337fe795ab9d5755a8f731c9c52e756b720275940fa283327690600090a46200032c8162000c0e565b6001600160a01b038216620005ff5760405162461bcd60e51b815260206004820152601f60248201527f45524332303a206d696e7420746f20746865207a65726f20616464726573730060448201526064016200027f565b806002600082825462000613919062000dd1565b90915550506001600160a01b038216600090815260208190526040812080548392906200064290849062000dd1565b90915550506040518181526001600160a01b038316906000907fddf252ad1be2c89b69c2b068fc378daa952ba7f163c4a11628f55a4df523b3ef9060200160405180910390a35050565b33620006a06006546001600160a01b031690565b6001600160a01b03161480620006c057506008546001600160a01b031633145b620007125760405162461bcd60e51b8152602060048201526035602482015260008051602062005dd8833981519152604482015260008051602062005df883398151915260648201526084016200027f565b60408051808201909152600781526636382fb830b4b960c91b6020820152600654600160a01b900460ff161580620007d4575060078160405162000757919062000d93565b9081526020016040518091039020546000141580156200079757504260078260405162000785919062000d93565b90815260200160405180910390205411155b8015620007d457504262015180600783604051620007b6919062000d93565b908152602001604051809103902054620007d1919062000dd1565b10155b620008175760405162461bcd60e51b8152602060048201526012602482015271119d5b98dd1a5bdb881a5cc81b1bd8dad95960721b60448201526064016200027f565b6001600160a01b038216620008a35760405162461bcd60e51b8152602060048201526044602482018190527f4c6971756966793a3a7365744c6971756964697479506169723a204c69717569908201527f6469747920706169722063616e277420636f6e7461696e207a65726f206164646064820152637265737360e01b608482015260a4016200027f565b600d60009054906101000a90046001600160a01b03166001600160a01b031663c45a01556040518163ffffffff1660e01b815260040160206040518083038186803b158015620008f257600080fd5b505afa15801562000907573d6000803e3d6000fd5b505050506040513d601f19601f820116820180604052508101906200092d919062000d61565b60405163e6a4390560e01b81523060048201526001600160a01b038481166024830152919091169063e6a439059060440160206040518083038186803b1580156200097757600080fd5b505afa1580156200098c573d6000803e3d6000fd5b505050506040513d601f19601f82011682018060405250810190620009b2919062000d61565b600c80546001600160a01b0319166001600160a01b0392909216918217905562000b0857600d60009054906101000a90046001600160a01b03166001600160a01b031663c45a01556040518163ffffffff1660e01b815260040160206040518083038186803b15801562000a2557600080fd5b505afa15801562000a3a573d6000803e3d6000fd5b505050506040513d601f19601f8201168201806040525081019062000a60919062000d61565b6040516364e329cb60e11b81523060048201526001600160a01b038481166024830152919091169063c9c6539690604401602060405180830381600087803b15801562000aac57600080fd5b505af115801562000ac1573d6000803e3d6000fd5b505050506040513d601f19601f8201168201806040525081019062000ae7919062000d61565b600c80546001600160a01b0319166001600160a01b03929092169190911790555b600c5462000b1f906001600160a01b031662000b64565b600c546040516001600160a01b039091169033907f6c587433dea122b342b093acb4dde076ca1a441413e43a5a14dde8a8842c944790600090a36200032c8162000c0e565b3362000b786006546001600160a01b031690565b6001600160a01b0316148062000b9857506008546001600160a01b031633145b62000bea5760405162461bcd60e51b8152602060048201526035602482015260008051602062005dd8833981519152604482015260008051602062005df883398151915260648201526084016200027f565b6001600160a01b03166000908152600e60205260409020805460ff19166001179055565b3362000c226006546001600160a01b031690565b6001600160a01b0316148062000c4257506008546001600160a01b031633145b62000c945760405162461bcd60e51b8152602060048201526035602482015260008051602062005dd8833981519152604482015260008051602062005df883398151915260648201526084016200027f565b600060078260405162000ca8919062000d93565b9081526040519081900360200190205550565b82805462000cc99062000df8565b90600052602060002090601f01602090048101928262000ced576000855562000d38565b82601f1062000d0857805160ff191683800117855562000d38565b8280016001018555821562000d38579182015b8281111562000d3857825182559160200191906001019062000d1b565b5062000d4692915062000d4a565b5090565b5b8082111562000d46576000815560010162000d4b565b60006020828403121562000d7457600080fd5b81516001600160a01b038116811462000d8c57600080fd5b9392505050565b6000825160005b8181101562000db6576020818601810151858301520162000d9a565b8181111562000dc6576000828501525b509190910192915050565b6000821982111562000df357634e487b7160e01b600052601160045260246000fd5b500190565b600181811c9082168062000e0d57607f821691505b6020821081141562000e2f57634e487b7160e01b600052602260045260246000fd5b50919050565b614f938062000e456000396000f3fe60806040526004361061041e5760003560e01c806388b8084f1161021e578063a9059cbb11610123578063dd62ed3e116100ab578063f4762fd61161007a578063f4762fd614610cf2578063f98080c014610d07578063f9f92be414610d3f578063fafa448914610d5f578063fb25c12014610d8157600080fd5b8063dd62ed3e14610c4b578063e43504da14610c91578063edae876f14610cb2578063f2fde38b14610cd257600080fd5b8063bb922014116100f2578063bb92201414610b9a578063c1316eb614610bd3578063c851cc3214610bf3578063c957497514610c13578063d932407914610c3557600080fd5b8063a9059cbb14610b15578063ae7e1d7a14610b35578063af10e03e14610b65578063b29ad50a14610b8557600080fd5b80639b19251a116101a6578063a17252a411610175578063a17252a414610a74578063a347511a14610a94578063a457c2d714610ab5578063a4f4a76514610ad5578063a607494a14610af557600080fd5b80639b19251a146109f45780639b96eece14610a145780639d93598e14610a345780639f53115614610a5457600080fd5b80638f5949f9116101ed5780638f5949f91461097157806395d89b411461098b578063982ceeb7146109a05780639850d32b146109b6578063986d6142146109d457600080fd5b806388b8084f146108f357806388bce123146109135780638da5cb5b146109335780638efd5e3b1461095157600080fd5b8063313ce56711610324578063645830b4116102ac578063737dc9bd1161027b578063737dc9bd1461083c5780637897af861461085c5780637d8e96151461087c5780638053575b1461089c578063808a5457146108d557600080fd5b8063645830b4146107b057806369372b30146107d057806370a08231146107f1578063715018a61461082757600080fd5b80634ad1eb81116102f35780634ad1eb811461071b578063506ee1001461073b57806353a545111461075057806354613450146107705780635958621e1461079057600080fd5b8063313ce5671461069f578063370f0a60146106bb57806339509351146106db57806340c10f19146106fb57600080fd5b806313ea5d29116103a75780631f53ac02116103765780631f53ac0214610615578063239eb2111461063557806323b872dd1461064a5780632b112e491461066a5780633071fed21461067f57600080fd5b806313ea5d291461059957806318160ddd146105bb5780631ac818a1146105d05780631b6111111461060057600080fd5b8063044e0ea2116103ee578063044e0ea2146104d957806306fdde03146104fd578063095ea7b31461051f5780630d38ffcd1461053f57806311a63e171461056157600080fd5b80625d1afc1461042a5780630181bb781461046057806301bbba4d1461049557806303fcdbdf146104b757600080fd5b3661042557005b600080fd5b34801561043657600080fd5b5060085461044b90600160f01b900460ff1681565b60405190151581526020015b60405180910390f35b34801561046c57600080fd5b50601154610482906301000000900461ffff1681565b60405161ffff9091168152602001610457565b3480156104a157600080fd5b5060085461048290600160a01b900461ffff1681565b3480156104c357600080fd5b5060085461048290600160c01b900461ffff1681565b3480156104e557600080fd5b506104ef60105481565b604051908152602001610457565b34801561050957600080fd5b50610512610da1565b6040516104579190614cd6565b34801561052b57600080fd5b5061044b61053a366004614a6c565b610e33565b34801561054b57600080fd5b5060085461048290600160e01b900461ffff1681565b34801561056d57600080fd5b50600a54610581906001600160a01b031681565b6040516001600160a01b039091168152602001610457565b3480156105a557600080fd5b506105b96105b43660046149b8565b610e49565b005b3480156105c757600080fd5b506002546104ef565b3480156105dc57600080fd5b5061044b6105eb3660046149b8565b600f6020526000908152604090205460ff1681565b34801561060c57600080fd5b506105b9611083565b34801561062157600080fd5b506105b96106303660046149b8565b611155565b34801561064157600080fd5b506104ef61123e565b34801561065657600080fd5b5061044b610665366004614a2b565b6112c6565b34801561067657600080fd5b506104ef611370565b34801561068b57600080fd5b506104ef61069a3660046149b8565b611399565b3480156106ab57600080fd5b5060405160128152602001610457565b3480156106c757600080fd5b506105b96106d63660046149b8565b6114a0565b3480156106e757600080fd5b5061044b6106f6366004614a6c565b61152a565b34801561070757600080fd5b506105b9610716366004614a6c565b611566565b34801561072757600080fd5b506105b96107363660046149b8565b61159a565b34801561074757600080fd5b50610581611609565b34801561075c57600080fd5b506105b961076b3660046149b8565b611722565b34801561077c57600080fd5b506105b961078b3660046149b8565b611791565b34801561079c57600080fd5b506105b96107ab3660046149b8565b61184f565b3480156107bc57600080fd5b50600c54610581906001600160a01b031681565b3480156107dc57600080fd5b5061044b6107eb366004614be1565b50600090565b3480156107fd57600080fd5b506104ef61080c3660046149b8565b6001600160a01b031660009081526020819052604090205490565b34801561083357600080fd5b506105b9611938565b34801561084857600080fd5b506105b9610857366004614b9e565b61196c565b34801561086857600080fd5b506105b96108773660046149b8565b611bbc565b34801561088857600080fd5b506105b9610897366004614b83565b611c2e565b3480156108a857600080fd5b5061044b6108b73660046149b8565b6001600160a01b03166000908152600f602052604090205460ff1690565b3480156108e157600080fd5b50600c546001600160a01b0316610581565b3480156108ff57600080fd5b506105b961090e366004614a98565b611e76565b34801561091f57600080fd5b5060115461048290610100900461ffff1681565b34801561093f57600080fd5b506006546001600160a01b0316610581565b34801561095d57600080fd5b506105b961096c366004614be1565b611f0b565b34801561097d57600080fd5b5060115461044b9060ff1681565b34801561099757600080fd5b50610512611f5e565b3480156109ac57600080fd5b506104ef60095481565b3480156109c257600080fd5b506008546001600160a01b0316610581565b3480156109e057600080fd5b506105b96109ef3660046149b8565b611f6d565b348015610a0057600080fd5b506105b9610a0f3660046149b8565b611fdf565b348015610a2057600080fd5b506104ef610a2f3660046149b8565b612076565b348015610a4057600080fd5b506105b9610a4f3660046149b8565b612145565b348015610a6057600080fd5b506105b9610a6f366004614ad2565b612598565b348015610a8057600080fd5b506105b9610a8f3660046149b8565b61260b565b348015610aa057600080fd5b5060065461044b90600160a01b900460ff1681565b348015610ac157600080fd5b5061044b610ad0366004614a6c565b61268f565b348015610ae157600080fd5b50600b54610581906001600160a01b031681565b348015610b0157600080fd5b506105b9610b10366004614ad2565b612728565b348015610b2157600080fd5b5061044b610b30366004614a6c565b612805565b348015610b4157600080fd5b5061044b610b503660046149b8565b600e6020526000908152604090205460ff1681565b348015610b7157600080fd5b506105b9610b80366004614b83565b612812565b348015610b9157600080fd5b506105b9612af5565b348015610ba657600080fd5b5061044b610bb53660046149b8565b6001600160a01b03166000908152600e602052604090205460ff1690565b348015610bdf57600080fd5b506105b9610bee366004614b83565b612eec565b348015610bff57600080fd5b506105b9610c0e3660046149b8565b613009565b348015610c1f57600080fd5b5060085461048290600160d01b900461ffff1681565b348015610c4157600080fd5b506104826103e881565b348015610c5757600080fd5b506104ef610c663660046149f2565b6001600160a01b03918216600090815260016020908152604080832093909416825291909152205490565b348015610c9d57600080fd5b5060085461044b90600160f81b900460ff1681565b348015610cbe57600080fd5b50600d54610581906001600160a01b031681565b348015610cde57600080fd5b506105b9610ced3660046149b8565b613207565b348015610cfe57600080fd5b506105b961329f565b348015610d1357600080fd5b506104ef610d22366004614ad2565b805160208183018101805160078252928201919093012091525481565b348015610d4b57600080fd5b506105b9610d5a3660046149b8565b61332b565b348015610d6b57600080fd5b5060085461048290600160b01b900461ffff1681565b348015610d8d57600080fd5b506105b9610d9c366004614b83565b6133c5565b606060038054610db090614ebd565b80601f0160208091040260200160405190810160405280929190818152602001828054610ddc90614ebd565b8015610e295780601f10610dfe57610100808354040283529160200191610e29565b820191906000526020600020905b815481529060010190602001808311610e0c57829003601f168201915b5050505050905090565b6000610e403384846134e6565b50600192915050565b33610e5c6006546001600160a01b031690565b6001600160a01b03161480610e7b57506008546001600160a01b031633145b610ea05760405162461bcd60e51b8152600401610e9790614d6a565b60405180910390fd5b60408051808201909152600a81526936b0b4b73a30b4b732b960b11b6020820152600654600160a01b900460ff161580610f5a5750600781604051610ee59190614c85565b908152602001604051809103902054600014158015610f22575042600782604051610f109190614c85565b90815260200160405180910390205411155b8015610f5a57504262015180600783604051610f3e9190614c85565b908152602001604051809103902054610f579190614e21565b10155b610f765760405162461bcd60e51b8152600401610e9790614d3e565b6008546001600160a01b03838116911614801590610f9c57506001600160a01b03821615155b6110275760405162461bcd60e51b815260206004820152605060248201527f41424f41543a3a7365744d61696e7461696e65723a204d61696e7461696e657260448201527f2063616e277420657175616c2070726576696f7573206d61696e7461696e657260648201526f206f72207a65726f206164647265737360801b608482015260a401610e97565b600880546001600160a01b038481166001600160a01b0319831681179093556040519116919082907f2f3ffaaaad93928855c8700645d1a3643e6ccfdd500efa9fda048a88f557cf0190600090a35061107f81612598565b5050565b336110966006546001600160a01b031690565b6001600160a01b031614806110b557506008546001600160a01b031633145b6110d15760405162461bcd60e51b8152600401610e9790614d6a565b60004711611149576040805162461bcd60e51b81526020600482015260248101919091527f41424f41543a3a636c61696d457863656564696e674c6971756964697479546f60448201527f6b656e42616c616e63653a204e6f20657863656564696e672062616c616e63656064820152608401610e97565b611153334761360a565b565b336111686006546001600160a01b031690565b6001600160a01b0316148061118757506008546001600160a01b031633145b6111a35760405162461bcd60e51b8152600401610e9790614d6a565b6001600160a01b0381166112145760405162461bcd60e51b815260206004820152603260248201527f41424f41543a3a73657444657657616c6c65743a20416464726573732063616e6044820152712774206265207a65726f206164647265737360701b6064820152608401610e97565b600a80546001600160a01b0319166001600160a01b03831690811790915561123b906114a0565b50565b6000611248611609565b6040516370a0823160e01b81523060048201526001600160a01b0391909116906370a082319060240160206040518083038186803b15801561128957600080fd5b505afa15801561129d573d6000803e3d6000fd5b505050506040513d601f19601f820116820180604052508101906112c19190614bfa565b905090565b60006112d38484846136e9565b6001600160a01b0384166000908152600160209081526040808320338452909152902054828110156113585760405162461bcd60e51b815260206004820152602860248201527f45524332303a207472616e7366657220616d6f756e74206578636565647320616044820152676c6c6f77616e636560c01b6064820152608401610e97565b61136585338584036134e6565b506001949350505050565b600b546001600160a01b03166000908152602081905260408120546112c1906002545b90613ff4565b6000806113a583612076565b90506113b060025490565b8111156113cc575050600854600160b01b900461ffff16919050565b620186a06113d960025490565b6113e39190614e39565b8110156113ff575050600854600160a01b900461ffff16919050565b600061140a60025490565b61141783620186a0614e5b565b6114219190614e39565b9050606481111561148a5760085460009060649061144b908490600160a01b900461ffff16614e21565b6114559190614e7a565b600854909150600160b01b900461ffff1681116114725780611481565b600854600160b01b900461ffff165b95945050505050565b5050600854600160a01b900461ffff1692915050565b336114b36006546001600160a01b031690565b6001600160a01b031614806114d257506008546001600160a01b031633145b6114ee5760405162461bcd60e51b8152600401610e9790614d6a565b6001600160a01b03166000908152600e602090815260408083208054600160ff199182168117909255600f909352922080549091169091179055565b3360008181526001602090815260408083206001600160a01b03871684529091528120549091610e40918590611561908690614e21565b6134e6565b6006546001600160a01b031633146115905760405162461bcd60e51b8152600401610e9790614d09565b61107f8282614000565b336115ad6006546001600160a01b031690565b6001600160a01b031614806115cc57506008546001600160a01b031633145b6115e85760405162461bcd60e51b8152600401610e9790614d6a565b6001600160a01b03166000908152600e60205260409020805460ff19169055565b600c5460408051630dfe168160e01b815290516000926001600160a01b03169183918391630dfe1681916004808301926020929190829003018186803b15801561165257600080fd5b505afa158015611666573d6000803e3d6000fd5b505050506040513d601f19601f8201168201806040525081019061168a91906149d5565b90506000826001600160a01b031663d21220a76040518163ffffffff1660e01b815260040160206040518083038186803b1580156116c757600080fd5b505afa1580156116db573d6000803e3d6000fd5b505050506040513d601f19601f820116820180604052508101906116ff91906149d5565b90506001600160a01b038216301415611718578061171a565b815b935050505090565b336117356006546001600160a01b031690565b6001600160a01b0316148061175457506008546001600160a01b031633145b6117705760405162461bcd60e51b8152600401610e9790614d6a565b6001600160a01b03166000908152600f60205260409020805460ff19169055565b336117a46006546001600160a01b031690565b6001600160a01b031614806117c357506008546001600160a01b031633145b6117df5760405162461bcd60e51b8152600401610e9790614d6a565b6011805465010000000000600160c81b031916600160281b6001600160a01b0384160217905561180e816114a0565b601154604051600160281b9091046001600160a01b0316907fa84d75f236adcec4d7b91b39192d89c0e7fce5482a6438afe0fc781ee47d202190600090a250565b336118626006546001600160a01b031690565b6001600160a01b0316148061188157506008546001600160a01b031633145b61189d5760405162461bcd60e51b8152600401610e9790614d6a565b6001600160a01b0381166119115760405162461bcd60e51b815260206004820152603560248201527f41424f41543a3a73657452657761726457616c6c65743a20416464726573732060448201527463616e2774206265207a65726f206164647265737360581b6064820152608401610e97565b600b80546001600160a01b0319166001600160a01b03831690811790915561123b906114a0565b6006546001600160a01b031633146119625760405162461bcd60e51b8152600401610e9790614d09565b61115360006140df565b3361197f6006546001600160a01b031690565b6001600160a01b0316148061199e57506008546001600160a01b031633145b6119ba5760405162461bcd60e51b8152600401610e9790614d6a565b6040805180820190915260098152680eae0c8c2e8caa8c2f60bb1b6020820152600654600160a01b900460ff161580611a7357506007816040516119fe9190614c85565b908152602001604051809103902054600014158015611a3b575042600782604051611a299190614c85565b90815260200160405180910390205411155b8015611a7357504262015180600783604051611a579190614c85565b908152602001604051809103902054611a709190614e21565b10155b611a8f5760405162461bcd60e51b8152600401610e9790614d3e565b606482611a9c8587614dfb565b611aa69190614dfb565b61ffff161115611b0f5760405162461bcd60e51b815260206004820152602e60248201527f41424f41543a3a7570646174655461783a205461782063616e7420657863656560448201526d64203130302070657263656e742160901b6064820152608401610e97565b6008805463ffffffff60c01b1916600160c01b61ffff878116820261ffff60d01b191692909217600160d01b87841681029190911761ffff60e01b1916600160e01b87851681029190911794859055604080519386048516845291850484166020840152909304909116918101919091527f49b216608947f85b55485549bcbeb9b3885d85690a8ecce31f0b27e390af5c7a9060600160405180910390a1611bb681612598565b50505050565b33611bcf6006546001600160a01b031690565b6001600160a01b03161480611bee57506008546001600160a01b031633145b611c0a5760405162461bcd60e51b8152600401610e9790614d6a565b6001600160a01b03166000908152600e60205260409020805460ff19166001179055565b33611c416006546001600160a01b031690565b6001600160a01b03161480611c6057506008546001600160a01b031633145b611c7c5760405162461bcd60e51b8152600401610e9790614d6a565b6040805180820190915260078152660dad2dcbee8c2f60cb1b6020820152600654600160a01b900460ff161580611d335750600781604051611cbe9190614c85565b908152602001604051809103902054600014158015611cfb575042600782604051611ce99190614c85565b90815260200160405180910390205411155b8015611d3357504262015180600783604051611d179190614c85565b908152602001604051809103902054611d309190614e21565b10155b611d4f5760405162461bcd60e51b8152600401610e9790614d3e565b60085461ffff600160b01b90910481169083161115611e085760405162461bcd60e51b815260206004820152606360248201527f41424f41543a3a7570646174654d696e696d756d5472616e736665725461785260448201527f6174653a206d696e696d756d5472616e7366657254617852617465206d75737460648201527f206e6f7420657863656564206d6178696d756d5472616e7366657254617852616084820152623a329760e91b60a482015260c401610e97565b60085460408051600160a01b90920461ffff90811683528416602083015233917fb2f2e219f74b4a7e339376870ae1b18d655e3cf85f60dc47f56e7cd7bad470c5910160405180910390a26008805461ffff60a01b1916600160a01b61ffff85160217905561107f81612598565b33611e896006546001600160a01b031690565b6001600160a01b03161480611ea857506008546001600160a01b031633145b611ec45760405162461bcd60e51b8152600401610e9790614d6a565b6011805460ff19168215159081179091556040519081527fc8ce3b7c2007859e758a4d89d913f4dec50fa1b1d65e7fcbb2b51629748f17309060200160405180910390a150565b33611f1e6006546001600160a01b031690565b6001600160a01b03161480611f3d57506008546001600160a01b031633145b611f595760405162461bcd60e51b8152600401610e9790614d6a565b600955565b606060048054610db090614ebd565b33611f806006546001600160a01b031690565b6001600160a01b03161480611f9f57506008546001600160a01b031633145b611fbb5760405162461bcd60e51b8152600401610e9790614d6a565b6001600160a01b03166000908152600f60205260409020805460ff19166001179055565b33611ff26006546001600160a01b031690565b6001600160a01b0316148061201157506008546001600160a01b031633145b61202d5760405162461bcd60e51b8152600401610e9790614d6a565b6001600160a01b038116600081815260126020526040808220805460ff19169055517faab7954e9d246b167ef88aeddad35209ca2489d95a8aeb59e288d9b19fae5a549190a250565b6001600160a01b0381811660009081526020819052604081205460115491929091600160281b9004161561213f576011546040516394d45b5960e01b81526001600160a01b0385811660048301526000602483015261213892600160281b900416906394d45b599060440160206040518083038186803b1580156120f957600080fd5b505afa15801561210d573d6000803e3d6000fd5b505050506040513d601f19601f820116820180604052508101906121319190614bfa565b8290614131565b9392505050565b92915050565b336121586006546001600160a01b031690565b6001600160a01b0316148061217757506008546001600160a01b031633145b6121935760405162461bcd60e51b8152600401610e9790614d6a565b60408051808201909152600781526636382fb830b4b960c91b6020820152600654600160a01b900460ff16158061224a57506007816040516121d59190614c85565b9081526020016040518091039020546000141580156122125750426007826040516122009190614c85565b90815260200160405180910390205411155b801561224a5750426201518060078360405161222e9190614c85565b9081526020016040518091039020546122479190614e21565b10155b6122665760405162461bcd60e51b8152600401610e9790614d3e565b6001600160a01b0382166122f05760405162461bcd60e51b8152602060048201526044602482018190527f4c6971756966793a3a7365744c6971756964697479506169723a204c69717569908201527f6469747920706169722063616e277420636f6e7461696e207a65726f206164646064820152637265737360e01b608482015260a401610e97565b600d60009054906101000a90046001600160a01b03166001600160a01b031663c45a01556040518163ffffffff1660e01b815260040160206040518083038186803b15801561233e57600080fd5b505afa158015612352573d6000803e3d6000fd5b505050506040513d601f19601f8201168201806040525081019061237691906149d5565b60405163e6a4390560e01b81523060048201526001600160a01b038481166024830152919091169063e6a439059060440160206040518083038186803b1580156123bf57600080fd5b505afa1580156123d3573d6000803e3d6000fd5b505050506040513d601f19601f820116820180604052508101906123f791906149d5565b600c80546001600160a01b0319166001600160a01b0392909216918217905561254457600d60009054906101000a90046001600160a01b03166001600160a01b031663c45a01556040518163ffffffff1660e01b815260040160206040518083038186803b15801561246857600080fd5b505afa15801561247c573d6000803e3d6000fd5b505050506040513d601f19601f820116820180604052508101906124a091906149d5565b6040516364e329cb60e11b81523060048201526001600160a01b038481166024830152919091169063c9c6539690604401602060405180830381600087803b1580156124eb57600080fd5b505af11580156124ff573d6000803e3d6000fd5b505050506040513d601f19601f8201168201806040525081019061252391906149d5565b600c80546001600160a01b0319166001600160a01b03929092169190911790555b600c54612559906001600160a01b0316611bbc565b600c546040516001600160a01b039091169033907f6c587433dea122b342b093acb4dde076ca1a441413e43a5a14dde8a8842c944790600090a361107f815b336125ab6006546001600160a01b031690565b6001600160a01b031614806125ca57506008546001600160a01b031633145b6125e65760405162461bcd60e51b8152600401610e9790614d6a565b60006007826040516125f89190614c85565b9081526040519081900360200190205550565b3361261e6006546001600160a01b031690565b6001600160a01b0316148061263d57506008546001600160a01b031633145b6126595760405162461bcd60e51b8152600401610e9790614d6a565b6001600160a01b03166000908152600e60209081526040808320805460ff19908116909155600f90925290912080549091169055565b3360009081526001602090815260408083206001600160a01b0386168452909152812054828110156127115760405162461bcd60e51b815260206004820152602560248201527f45524332303a2064656372656173656420616c6c6f77616e63652062656c6f77604482015264207a65726f60d81b6064820152608401610e97565b61271e33858584036134e6565b5060019392505050565b3361273b6006546001600160a01b031690565b6001600160a01b0316148061275a57506008546001600160a01b031633145b6127765760405162461bcd60e51b8152600401610e9790614d6a565b6127836201518042614e21565b6007826040516127939190614c85565b9081526020016040518091039020819055506007816040516127b59190614c85565b908152602001604051809103902054816040516127d29190614c85565b604051908190038120907ff77f9a799fe8b0be1463abd7459a18fc55dfd8a6a24ddd29b54fd098088089c890600090a350565b6000610e403384846136e9565b336128256006546001600160a01b031690565b6001600160a01b0316148061284457506008546001600160a01b031633145b6128605760405162461bcd60e51b8152600401610e9790614d6a565b6040805180820190915260078152660dac2f0bee8c2f60cb1b6020820152600654600160a01b900460ff16158061291757506007816040516128a29190614c85565b9081526020016040518091039020546000141580156128df5750426007826040516128cd9190614c85565b90815260200160405180910390205411155b8015612917575042620151806007836040516128fb9190614c85565b9081526020016040518091039020546129149190614e21565b10155b6129335760405162461bcd60e51b8152600401610e9790614d3e565b60085461ffff600160a01b909104811690831610156129ee5760405162461bcd60e51b815260206004820152606560248201527f41424f41543a3a7570646174654d6178696d756d5472616e736665725461785260448201527f6174653a206d6178696d756d5472616e7366657254617852617465206d75737460648201527f206e6f742062652062656c6f77206d696e696d756d5472616e736665725461786084820152642930ba329760d91b60a482015260c401610e97565b6103e861ffff83161115612a875760405162461bcd60e51b815260206004820152605460248201527f41424f41543a3a7570646174654d6178696d756d5472616e736665725461785260448201527f6174653a206d6178696d756d5472616e7366657254617852617465206d7573746064820152731032bc31b2b2b21026a0ac24a6aaa6afaa20ac1760611b608482015260a401610e97565b60085460408051600160a01b90920461ffff90811683528416602083015233917ffc18b74e18e9bf8100ca625de9f64c93e88284a81d82c9edfc899869f34b506f910160405180910390a26008805461ffff60b01b1916600160b01b61ffff85160217905561107f81612598565b600880546001600160f01b0316600160f01b1790553060009081526020819052604081205490506009548110612ed457600c546008546009546001600160a01b0390921691600091612b5f91606491612b599190600160d01b900461ffff1661413d565b90614149565b90506000612b7d6002612b5984600954613ff490919063ffffffff16565b90506000612b9682600954613ff490919063ffffffff16565b90506000846001600160a01b0316630dfe16816040518163ffffffff1660e01b815260040160206040518083038186803b158015612bd357600080fd5b505afa158015612be7573d6000803e3d6000fd5b505050506040513d601f19601f82011682018060405250810190612c0b91906149d5565b90506000856001600160a01b031663d21220a76040518163ffffffff1660e01b815260040160206040518083038186803b158015612c4857600080fd5b505afa158015612c5c573d6000803e3d6000fd5b505050506040513d601f19601f82011682018060405250810190612c8091906149d5565b9050806001600160a01b0316826001600160a01b03161415612d0a5760405162461bcd60e51b815260206004820152603e60248201527f496e76616c6964206c6971756469747920706169723a20506169722063616e2760448201527f7420636f6e7461696e207468652073616d6520746f6b656e20747769636500006064820152608401610e97565b600d54604080516315ab88c960e31b815290516000926001600160a01b03169163ad5c4648916004808301926020929190829003018186803b158015612d4f57600080fd5b505afa158015612d63573d6000803e3d6000fd5b505050506040513d601f19601f82011682018060405250810190612d8791906149d5565b6001600160a01b0316836001600160a01b03161480612e3c5750600d60009054906101000a90046001600160a01b03166001600160a01b031663ad5c46486040518163ffffffff1660e01b815260040160206040518083038186803b158015612def57600080fd5b505afa158015612e03573d6000803e3d6000fd5b505050506040513d601f19601f82011682018060405250810190612e2791906149d5565b6001600160a01b0316826001600160a01b0316145b90508015612e5357612e4e8486614155565b612e76565b612e766001600160a01b038416301415612e6d5782612e6f565b835b8587614172565b7f17bbfb9a6069321b6ded73bd96327c9e6b7212a5cd51ff219cd61370acafb56184612ead6009548b613ff490919063ffffffff16565b604080519283526020830191909152810187905260600160405180910390a1505050505050505b50600880546001600160f01b0316600160f81b179055565b33612eff6006546001600160a01b031690565b6001600160a01b03161480612f1e57506008546001600160a01b031633145b612f3a5760405162461bcd60e51b8152600401610e9790614d6a565b600a8161ffff1611612fb45760405162461bcd60e51b815260206004820152603d60248201527f4d6178207472616e73616374696f6e2073697a652063616e2774206265206c6f60448201527f776572207468616e20302e3125206f6620746f74616c20737570706c790000006064820152608401610e97565b6011805461ffff83811661010090810262ffff0019841617938490556040519281900482169304169082907f8f171bb23056cced8a730912e267dbf04c43510f33032f06a749b0ccdc8587b490600090a35050565b3361301c6006546001600160a01b031690565b6001600160a01b0316148061303b57506008546001600160a01b031633145b6130575760405162461bcd60e51b8152600401610e9790614d6a565b604080518082019091526006808252653937baba32b960d11b602083015254600160a01b900460ff16158061310c57506007816040516130979190614c85565b9081526020016040518091039020546000141580156130d45750426007826040516130c29190614c85565b90815260200160405180910390205411155b801561310c575042620151806007836040516130f09190614c85565b9081526020016040518091039020546131099190614e21565b10155b6131285760405162461bcd60e51b8152600401610e9790614d3e565b600d80546001600160a01b0319166001600160a01b038416908117909155604080516315ab88c960e31b815290516131b8929163ad5c4648916004808301926020929190829003018186803b15801561318057600080fd5b505afa158015613194573d6000803e3d6000fd5b505050506040513d601f19601f82011682018060405250810190610a4f91906149d5565b6131c182611bbc565b600c546040516001600160a01b039182169184169033907feb7c1e97c05570337fe795ab9d5755a8f731c9c52e756b720275940fa283327690600090a461107f81612598565b6006546001600160a01b031633146132315760405162461bcd60e51b8152600401610e9790614d09565b6001600160a01b0381166132965760405162461bcd60e51b815260206004820152602660248201527f4f776e61626c653a206e6577206f776e657220697320746865207a65726f206160448201526564647265737360d01b6064820152608401610e97565b61123b816140df565b336132b26006546001600160a01b031690565b6001600160a01b031614806132d157506008546001600160a01b031633145b6132ed5760405162461bcd60e51b8152600401610e9790614d6a565b6006805460ff60a01b1916600160a01b1790556040517f2c08b62bfac9a1b19bb1dec9323f1ce01696a77948b256abf3603d30f25a864e90600090a1565b3361333e6006546001600160a01b031690565b6001600160a01b0316148061335d57506008546001600160a01b031633145b6133795760405162461bcd60e51b8152600401610e9790614d6a565b6001600160a01b038116600081815260126020526040808220805460ff19166001179055517fffa4e6181777692565cf28528fc88fd1516ea86b56da075235fa575af6a4b8559190a250565b336133d86006546001600160a01b031690565b6001600160a01b031614806133f757506008546001600160a01b031633145b6134135760405162461bcd60e51b8152600401610e9790614d6a565b60648161ffff161161348d5760405162461bcd60e51b815260206004820152603a60248201527f4d6178206163636f756e742062616c616e63652063616e2774206265206c6f7760448201527f6572207468616e203125206f6620746f74616c20737570706c790000000000006064820152608401610e97565b6011805461ffff838116630100000090810264ffff00000019841617938490556040519281900482169304169082907f537619d54465d4bf80b6c360206170815aa95deaa5993a7c17ab783706693a4d90600090a35050565b6001600160a01b0383166135485760405162461bcd60e51b8152602060048201526024808201527f45524332303a20617070726f76652066726f6d20746865207a65726f206164646044820152637265737360e01b6064820152608401610e97565b6001600160a01b0382166135a95760405162461bcd60e51b815260206004820152602260248201527f45524332303a20617070726f766520746f20746865207a65726f206164647265604482015261737360f01b6064820152608401610e97565b6001600160a01b0383811660008181526001602090815260408083209487168084529482529182902085905590518481527f8c5be1e5ebec7d5bd14f71427d1e84f3dd0314c0f7b2291e5b200ac8c7c3b925910160405180910390a3505050565b604080516000808252602082019092526001600160a01b0384169083906040516136349190614c85565b60006040518083038185875af1925050503d8060008114613671576040519150601f19603f3d011682016040523d82523d6000602084013e613676565b606091505b50509050806136e45760405162461bcd60e51b815260206004820152603460248201527f5472616e7366657248656c7065723a3a736166655472616e736665724554483a60448201527308115512081d1c985b9cd9995c8819985a5b195960621b6064820152608401610e97565b505050565b6002600554141561373c5760405162461bcd60e51b815260206004820152601f60248201527f5265656e7472616e637947756172643a207265656e7472616e742063616c6c006044820152606401610e97565b60026005556001600160a01b0383166137b05760405162461bcd60e51b815260206004820152603060248201527f41424f41543a3a5f7472616e736665723a207472616e736665722066726f6d2060448201526f746865207a65726f206164647265737360801b6064820152608401610e97565b6001600160a01b03821661381d5760405162461bcd60e51b815260206004820152602e60248201527f41424f41543a3a5f7472616e736665723a207472616e7366657220746f20746860448201526d65207a65726f206164647265737360901b6064820152608401610e97565b600081116138935760405162461bcd60e51b815260206004820152603a60248201527f41424f41543a3a5f7472616e736665723a5472616e7366657220616d6f756e7460448201527f206d7573742062652067726561746572207468616e207a65726f0000000000006064820152608401610e97565b6001600160a01b0383166000908152602081905260409020548111156139315760405162461bcd60e51b815260206004820152604760248201527f41424f41543a3a5f7472616e736665723a5472616e7366657220616d6f756e7460448201527f206d757374206265206c6f776572206f7220657175616c2073656e646572732060648201526662616c616e636560c81b608482015260a401610e97565b6001600160a01b03831660009081526012602052604090205460ff1615613a185760405162461bcd60e51b815260206004820152608360248201527f41424f41543a3a5f7472616e736665723a596f752772652063757272656e746c60448201527f7920626c61636b6c69737465642e20506c65617365207265706f727420746f2060648201527f736572766963654074616c6b61626f61742e6f6e6c696e6520696620796f752060848201527f77616e7420746f206765742072656d6f7665642066726f6d20626c61636b6c6960a48201526273742160e81b60c482015260e401610e97565b60115461ffff61010090910416613a2e60025490565b613a3a83612710614e5b565b613a449190614e39565b111580613a5e57506006546001600160a01b038481169116145b80613a7657506008546001600160a01b038481169116145b80613a9957506001600160a01b0383166000908152600e602052604090205460ff165b80613abc57506001600160a01b0383166000908152600f602052604090205460ff165b613b385760405162461bcd60e51b815260206004820152604160248201527f596f7572207472616e73666572206578636565647320746865206d6178696d7560448201527f6d20706f737369626c6520616d6f756e7420706572207472616e73616374696f6064820152603760f91b608482015260a401610e97565b60115461ffff630100000090910416613b5060025490565b613b5984612076565b613b639084614e21565b613b6f90612710614e5b565b613b799190614e39565b111580613b9357506006546001600160a01b038381169116145b80613bab57506008546001600160a01b038381169116145b80613bbe57506001600160a01b03821630145b80613be157506001600160a01b0382166000908152600f602052604090205460ff165b80613c0457506001600160a01b0382166000908152600e602052604090205460ff165b613c78576040805162461bcd60e51b81526020600482015260248101919091527f41424f41543a3a5f7472616e736665723a42616c616e6365206f66207265636960448201527f7069656e742063616e277420657863656564206d617841636342616c616e63656064820152608401610e97565b60115460ff1680613c9657506006546001600160a01b038481169116145b80613cae57506008546001600160a01b038481169116145b80613cd157506001600160a01b0382166000908152600f602052604090205460ff165b80613cf457506001600160a01b0383166000908152600e602052604090205460ff165b613d665760405162461bcd60e51b815260206004820152603760248201527f41424f41543a3a5f7472616e736665723a436f6e7472616374206973206e6f7460448201527f20796574206f70656e20666f7220636f6d6d756e6974790000000000000000006064820152608401610e97565b600854600160f81b900460ff161580613d8c57506008546001600160a01b038481169116145b80613da457506006546001600160a01b038481169116145b80613dc757506001600160a01b0382166000908152600f602052604090205460ff165b80613dea57506001600160a01b0383166000908152600e602052604090205460ff165b15613dff57613dfa83838361429d565b613fea565b6000613e1a612710612b59613e1387611399565b859061413d565b600854909150600090613e4090606490612b59908590600160c01b900461ffff1661413d565b600854909150600090613e6690606490612b59908690600160d01b900461ffff1661413d565b90506000613e7e613e778484614131565b8590613ff4565b905081613e8b8285614e21565b613e959190614e21565b8414613f095760405162461bcd60e51b815260206004820152603f60248201527f41424f41543a3a7472616e736665723a2046656520616d6f756e7420646f657360448201527f206e6f7420657175616c207468652073706c69742066656520616d6f756e74006064820152608401610e97565b6000613f158686613ff4565b9050613f218582614e21565b8614613fad5760405162461bcd60e51b815260206004820152604f60248201527f41424f41543a3a7472616e736665723a20616d6f756e7420746f2073656e642060448201527f776974682074617820616d6f756e742065786365656473206d6178696d756d2060648201526e1c1bdcdcda589b1948185b5bdd5b9d608a1b608482015260a401610e97565b613fc18830613fbc8686614e21565b61429d565b613fcc88888361429d565b600b54613fe49089906001600160a01b03168661429d565b50505050505b5050600160055550565b60006121388284614e7a565b6001600160a01b0382166140565760405162461bcd60e51b815260206004820152601f60248201527f45524332303a206d696e7420746f20746865207a65726f2061646472657373006044820152606401610e97565b80600260008282546140689190614e21565b90915550506001600160a01b03821660009081526020819052604081208054839290614095908490614e21565b90915550506040518181526001600160a01b038316906000907fddf252ad1be2c89b69c2b068fc378daa952ba7f163c4a11628f55a4df523b3ef9060200160405180910390a35050565b600680546001600160a01b038381166001600160a01b0319831681179093556040519116919082907f8be0079c531659141344cd1fd0a4f28419497f9722a3daafe3b4186f6b6457e090600090a35050565b60006121388284614e21565b60006121388284614e5b565b60006121388284614e39565b60006141608361446b565b905080156136e4576136e482826144ca565b82600061417e8461446b565b6040516370a0823160e01b81523060048201529091506000906001600160a01b038416906370a082319060240160206040518083038186803b1580156141c357600080fd5b505afa1580156141d7573d6000803e3d6000fd5b505050506040513d601f19601f820116820180604052508101906141fb9190614bfa565b9050614207828761458a565b6040516370a0823160e01b81523060048201526000906142879083906001600160a01b038716906370a082319060240160206040518083038186803b15801561424f57600080fd5b505afa158015614263573d6000803e3d6000fd5b505050506040513d601f19601f820116820180604052508101906113939190614bfa565b90506142948582896146eb565b50505050505050565b6001600160a01b0383166143015760405162461bcd60e51b815260206004820152602560248201527f45524332303a207472616e736665722066726f6d20746865207a65726f206164604482015264647265737360d81b6064820152608401610e97565b6001600160a01b0382166143635760405162461bcd60e51b815260206004820152602360248201527f45524332303a207472616e7366657220746f20746865207a65726f206164647260448201526265737360e81b6064820152608401610e97565b6001600160a01b038316600090815260208190526040902054818110156143db5760405162461bcd60e51b815260206004820152602660248201527f45524332303a207472616e7366657220616d6f756e7420657863656564732062604482015265616c616e636560d01b6064820152608401610e97565b6001600160a01b03808516600090815260208190526040808220858503905591851681529081208054849290614412908490614e21565b92505081905550826001600160a01b0316846001600160a01b03167fddf252ad1be2c89b69c2b068fc378daa952ba7f163c4a11628f55a4df523b3ef8460405161445e91815260200190565b60405180910390a3611bb6565b60004761447783614840565b60006144834783613ff4565b905060006144be60026144b86064612b596008601a9054906101000a900461ffff1661ffff168761413d90919063ffffffff16565b9061413d565b90506114818282613ff4565b600d546144e29030906001600160a01b0316846134e6565b600d5460405163f305d71960e01b8152306004820152602481018490526000604482018190526064820181905260848201524260a48201526001600160a01b039091169063f305d71990839060c4016060604051808303818588803b15801561454a57600080fd5b505af115801561455e573d6000803e3d6000fd5b50505050506040513d601f19601f820116820180604052508101906145839190614c13565b5050505050565b6040805160028082526060820183526000926020830190803683375050600d54604080516315ab88c960e31b815290519394506001600160a01b039091169263ad5c464892506004808301926020929190829003018186803b1580156145ef57600080fd5b505afa158015614603573d6000803e3d6000fd5b505050506040513d601f19601f8201168201806040525081019061462791906149d5565b8160008151811061463a5761463a614f0e565b60200260200101906001600160a01b031690816001600160a01b031681525050818160018151811061466e5761466e614f0e565b6001600160a01b039283166020918202929092010152600d5460405163b6f9de9560e01b815291169063b6f9de959085906146b490600090869030904290600401614ca1565b6000604051808303818588803b1580156146cd57600080fd5b505af11580156146e1573d6000803e3d6000fd5b5050505050505050565b600d546147039030906001600160a01b0316856134e6565b600d5460405163095ea7b360e01b81526001600160a01b039182166004820152602481018490529082169063095ea7b390604401602060405180830381600087803b15801561475157600080fd5b505af1158015614765573d6000803e3d6000fd5b505050506040513d601f19601f820116820180604052508101906147899190614ab5565b50600d5460405162e8e33760e81b81523060048201526001600160a01b038381166024830152604482018690526064820185905260006084830181905260a4830181905260c48301524260e48301529091169063e8e337009061010401606060405180830381600087803b15801561480057600080fd5b505af1158015614814573d6000803e3d6000fd5b505050506040513d601f19601f820116820180604052508101906148389190614c13565b505050505050565b604080516002808252606082018352600092602083019080368337019050509050308160008151811061487557614875614f0e565b6001600160a01b03928316602091820292909201810191909152600d54604080516315ab88c960e31b81529051919093169263ad5c4648926004808301939192829003018186803b1580156148c957600080fd5b505afa1580156148dd573d6000803e3d6000fd5b505050506040513d601f19601f8201168201806040525081019061490191906149d5565b8160018151811061491457614914614f0e565b6001600160a01b039283166020918202929092010152600d5461493a91309116846134e6565b600d5460405163791ac94760e01b81526001600160a01b039091169063791ac94790614973908590600090869030904290600401614dbf565b600060405180830381600087803b15801561498d57600080fd5b505af1158015614838573d6000803e3d6000fd5b803561ffff811681146149b357600080fd5b919050565b6000602082840312156149ca57600080fd5b813561213881614f3a565b6000602082840312156149e757600080fd5b815161213881614f3a565b60008060408385031215614a0557600080fd5b8235614a1081614f3a565b91506020830135614a2081614f3a565b809150509250929050565b600080600060608486031215614a4057600080fd5b8335614a4b81614f3a565b92506020840135614a5b81614f3a565b929592945050506040919091013590565b60008060408385031215614a7f57600080fd5b8235614a8a81614f3a565b946020939093013593505050565b600060208284031215614aaa57600080fd5b813561213881614f4f565b600060208284031215614ac757600080fd5b815161213881614f4f565b600060208284031215614ae457600080fd5b813567ffffffffffffffff80821115614afc57600080fd5b818401915084601f830112614b1057600080fd5b813581811115614b2257614b22614f24565b604051601f8201601f19908116603f01168101908382118183101715614b4a57614b4a614f24565b81604052828152876020848701011115614b6357600080fd5b826020860160208301376000928101602001929092525095945050505050565b600060208284031215614b9557600080fd5b612138826149a1565b600080600060608486031215614bb357600080fd5b614bbc846149a1565b9250614bca602085016149a1565b9150614bd8604085016149a1565b90509250925092565b600060208284031215614bf357600080fd5b5035919050565b600060208284031215614c0c57600080fd5b5051919050565b600080600060608486031215614c2857600080fd5b8351925060208401519150604084015190509250925092565b600081518084526020808501945080840160005b83811015614c7a5781516001600160a01b031687529582019590820190600101614c55565b509495945050505050565b60008251614c97818460208701614e91565b9190910192915050565b848152608060208201526000614cba6080830186614c41565b6001600160a01b03949094166040830152506060015292915050565b6020815260008251806020840152614cf5816040850160208701614e91565b601f01601f19169190910160400192915050565b6020808252818101527f4f776e61626c653a2063616c6c6572206973206e6f7420746865206f776e6572604082015260600190565b602080825260129082015271119d5b98dd1a5bdb881a5cc81b1bd8dad95960721b604082015260600190565b60208082526035908201527f6f70657261746f723a2063616c6c6572206973206e6f7420616c6c6f776564206040820152743a379031b0b636103a3434b990333ab731ba34b7b760591b606082015260800190565b85815284602082015260a060408201526000614dde60a0830186614c41565b6001600160a01b0394909416606083015250608001529392505050565b600061ffff808316818516808303821115614e1857614e18614ef8565b01949350505050565b60008219821115614e3457614e34614ef8565b500190565b600082614e5657634e487b7160e01b600052601260045260246000fd5b500490565b6000816000190483118215151615614e7557614e75614ef8565b500290565b600082821015614e8c57614e8c614ef8565b500390565b60005b83811015614eac578181015183820152602001614e94565b83811115611bb65750506000910152565b600181811c90821680614ed157607f821691505b60208210811415614ef257634e487b7160e01b600052602260045260246000fd5b50919050565b634e487b7160e01b600052601160045260246000fd5b634e487b7160e01b600052603260045260246000fd5b634e487b7160e01b600052604160045260246000fd5b6001600160a01b038116811461123b57600080fd5b801515811461123b57600080fdfea2646970667358221220580fd6c27d96b8f0fc74960f6a371b068f793ce03d57e12dfc0c47626e05251364736f6c634300080700336f70657261746f723a2063616c6c6572206973206e6f7420616c6c6f77656420746f2063616c6c20746869732066756e6374696f6e0000000000000000000000",
			"opcodes": "PUSH1 0x80 PUSH1 0x40 MSTORE PUSH1 0x6 DUP1 SLOAD PUSH1 0xFF PUSH1 0xA0 SHL NOT AND SWAP1 SSTORE PUSH1 0x8 DUP1 SLOAD PUSH1 0x1 PUSH1 0x1 PUSH1 0xA0 SHL SUB AND PUSH7 0x7800A00FA007D PUSH1 0xA2 SHL OR SWAP1 SSTORE PUSH10 0x152D02C7E14AF6800000 PUSH1 0x9 SSTORE PUSH1 0xA DUP1 SLOAD PUSH1 0x1 PUSH1 0x1 PUSH1 0xA0 SHL SUB NOT SWAP1 DUP2 AND PUSH20 0xC559ACC356D3037EC6DBC33A20587051188B8634 OR SWAP1 SWAP2 SSTORE PUSH1 0xB DUP1 SLOAD SWAP1 SWAP2 AND PUSH20 0x2EA9CA0CA8043575F2189CFF9897B575B0C7E857 OR SWAP1 SSTORE PUSH13 0xC9F2C9CD04674EDEA40000000 PUSH1 0x10 SSTORE PUSH1 0x11 DUP1 SLOAD PUSH5 0x12C006400 PUSH5 0xFFFFFFFFFF NOT SWAP1 SWAP2 AND OR SWAP1 SSTORE CALLVALUE DUP1 ISZERO PUSH3 0xB7 JUMPI PUSH1 0x0 DUP1 REVERT JUMPDEST POP PUSH1 0x40 DUP1 MLOAD DUP1 DUP3 ADD DUP3 MSTORE PUSH1 0xB DUP2 MSTORE PUSH11 0x20B137B0BA102A37B5B2B7 PUSH1 0xA9 SHL PUSH1 0x20 DUP1 DUP4 ADD SWAP2 DUP3 MSTORE DUP4 MLOAD DUP1 DUP6 ADD SWAP1 SWAP5 MSTORE PUSH1 0x5 DUP5 MSTORE PUSH5 0x105093D055 PUSH1 0xDA SHL SWAP1 DUP5 ADD MSTORE DUP2 MLOAD SWAP2 SWAP3 SWAP2 PUSH3 0x108 SWAP2 PUSH1 0x3 SWAP2 PUSH3 0xCBB JUMP JUMPDEST POP DUP1 MLOAD PUSH3 0x11E SWAP1 PUSH1 0x4 SWAP1 PUSH1 0x20 DUP5 ADD SWAP1 PUSH3 0xCBB JUMP JUMPDEST POP POP PUSH1 0x1 PUSH1 0x5 SSTORE POP PUSH3 0x131 CALLER PUSH3 0x1AC JUMP JUMPDEST PUSH1 0x8 DUP1 SLOAD PUSH1 0x1 PUSH1 0x1 PUSH1 0xA0 SHL SUB NOT AND CALLER SWAP1 DUP2 OR SWAP1 SWAP2 SSTORE PUSH3 0x151 SWAP1 PUSH3 0x1FE JUMP JUMPDEST PUSH1 0xA SLOAD PUSH3 0x168 SWAP1 PUSH1 0x1 PUSH1 0x1 PUSH1 0xA0 SHL SUB AND PUSH3 0x1FE JUMP JUMPDEST PUSH3 0x17C CALLER PUSH1 0x10 SLOAD PUSH3 0x2C4 PUSH1 0x20 SHL PUSH1 0x20 SHR JUMP JUMPDEST PUSH3 0x187 CALLER PUSH3 0x1FE JUMP JUMPDEST PUSH3 0x1A6 PUSH20 0x10ED43C718714EB63D5AA57B78B54704E256024E PUSH3 0x330 JUMP JUMPDEST PUSH3 0xE35 JUMP JUMPDEST PUSH1 0x6 DUP1 SLOAD PUSH1 0x1 PUSH1 0x1 PUSH1 0xA0 SHL SUB DUP4 DUP2 AND PUSH1 0x1 PUSH1 0x1 PUSH1 0xA0 SHL SUB NOT DUP4 AND DUP2 OR SWAP1 SWAP4 SSTORE PUSH1 0x40 MLOAD SWAP2 AND SWAP2 SWAP1 DUP3 SWAP1 PUSH32 0x8BE0079C531659141344CD1FD0A4F28419497F9722A3DAAFE3B4186F6B6457E0 SWAP1 PUSH1 0x0 SWAP1 LOG3 POP POP JUMP JUMPDEST CALLER PUSH3 0x212 PUSH1 0x6 SLOAD PUSH1 0x1 PUSH1 0x1 PUSH1 0xA0 SHL SUB AND SWAP1 JUMP JUMPDEST PUSH1 0x1 PUSH1 0x1 PUSH1 0xA0 SHL SUB AND EQ DUP1 PUSH3 0x232 JUMPI POP PUSH1 0x8 SLOAD PUSH1 0x1 PUSH1 0x1 PUSH1 0xA0 SHL SUB AND CALLER EQ JUMPDEST PUSH3 0x288 JUMPI PUSH1 0x40 MLOAD PUSH3 0x461BCD PUSH1 0xE5 SHL DUP2 MSTORE PUSH1 0x20 PUSH1 0x4 DUP3 ADD MSTORE PUSH1 0x35 PUSH1 0x24 DUP3 ADD MSTORE PUSH1 0x0 DUP1 MLOAD PUSH1 0x20 PUSH3 0x5DD8 DUP4 CODECOPY DUP2 MLOAD SWAP2 MSTORE PUSH1 0x44 DUP3 ADD MSTORE PUSH1 0x0 DUP1 MLOAD PUSH1 0x20 PUSH3 0x5DF8 DUP4 CODECOPY DUP2 MLOAD SWAP2 MSTORE PUSH1 0x64 DUP3 ADD MSTORE PUSH1 0x84 ADD JUMPDEST PUSH1 0x40 MLOAD DUP1 SWAP2 SUB SWAP1 REVERT JUMPDEST PUSH1 0x1 PUSH1 0x1 PUSH1 0xA0 SHL SUB AND PUSH1 0x0 SWAP1 DUP2 MSTORE PUSH1 0xE PUSH1 0x20 SWAP1 DUP2 MSTORE PUSH1 0x40 DUP1 DUP4 KECCAK256 DUP1 SLOAD PUSH1 0x1 PUSH1 0xFF NOT SWAP2 DUP3 AND DUP2 OR SWAP1 SWAP3 SSTORE PUSH1 0xF SWAP1 SWAP4 MSTORE SWAP3 KECCAK256 DUP1 SLOAD SWAP1 SWAP2 AND SWAP1 SWAP2 OR SWAP1 SSTORE JUMP JUMPDEST PUSH1 0x6 SLOAD PUSH1 0x1 PUSH1 0x1 PUSH1 0xA0 SHL SUB AND CALLER EQ PUSH3 0x320 JUMPI PUSH1 0x40 MLOAD PUSH3 0x461BCD PUSH1 0xE5 SHL DUP2 MSTORE PUSH1 0x20 PUSH1 0x4 DUP3 ADD DUP2 SWAP1 MSTORE PUSH1 0x24 DUP3 ADD MSTORE PUSH32 0x4F776E61626C653A2063616C6C6572206973206E6F7420746865206F776E6572 PUSH1 0x44 DUP3 ADD MSTORE PUSH1 0x64 ADD PUSH3 0x27F JUMP JUMPDEST PUSH3 0x32C DUP3 DUP3 PUSH3 0x5A7 JUMP JUMPDEST POP POP JUMP JUMPDEST CALLER PUSH3 0x344 PUSH1 0x6 SLOAD PUSH1 0x1 PUSH1 0x1 PUSH1 0xA0 SHL SUB AND SWAP1 JUMP JUMPDEST PUSH1 0x1 PUSH1 0x1 PUSH1 0xA0 SHL SUB AND EQ DUP1 PUSH3 0x364 JUMPI POP PUSH1 0x8 SLOAD PUSH1 0x1 PUSH1 0x1 PUSH1 0xA0 SHL SUB AND CALLER EQ JUMPDEST PUSH3 0x3B6 JUMPI PUSH1 0x40 MLOAD PUSH3 0x461BCD PUSH1 0xE5 SHL DUP2 MSTORE PUSH1 0x20 PUSH1 0x4 DUP3 ADD MSTORE PUSH1 0x35 PUSH1 0x24 DUP3 ADD MSTORE PUSH1 0x0 DUP1 MLOAD PUSH1 0x20 PUSH3 0x5DD8 DUP4 CODECOPY DUP2 MLOAD SWAP2 MSTORE PUSH1 0x44 DUP3 ADD MSTORE PUSH1 0x0 DUP1 MLOAD PUSH1 0x20 PUSH3 0x5DF8 DUP4 CODECOPY DUP2 MLOAD SWAP2 MSTORE PUSH1 0x64 DUP3 ADD MSTORE PUSH1 0x84 ADD PUSH3 0x27F JUMP JUMPDEST PUSH1 0x40 DUP1 MLOAD DUP1 DUP3 ADD SWAP1 SWAP2 MSTORE PUSH1 0x6 DUP1 DUP3 MSTORE PUSH6 0x3937BABA32B9 PUSH1 0xD1 SHL PUSH1 0x20 DUP4 ADD MSTORE SLOAD PUSH1 0x1 PUSH1 0xA0 SHL SWAP1 DIV PUSH1 0xFF AND ISZERO DUP1 PUSH3 0x476 JUMPI POP PUSH1 0x7 DUP2 PUSH1 0x40 MLOAD PUSH3 0x3F9 SWAP2 SWAP1 PUSH3 0xD93 JUMP JUMPDEST SWAP1 DUP2 MSTORE PUSH1 0x20 ADD PUSH1 0x40 MLOAD DUP1 SWAP2 SUB SWAP1 KECCAK256 SLOAD PUSH1 0x0 EQ ISZERO DUP1 ISZERO PUSH3 0x439 JUMPI POP TIMESTAMP PUSH1 0x7 DUP3 PUSH1 0x40 MLOAD PUSH3 0x427 SWAP2 SWAP1 PUSH3 0xD93 JUMP JUMPDEST SWAP1 DUP2 MSTORE PUSH1 0x20 ADD PUSH1 0x40 MLOAD DUP1 SWAP2 SUB SWAP1 KECCAK256 SLOAD GT ISZERO JUMPDEST DUP1 ISZERO PUSH3 0x476 JUMPI POP TIMESTAMP PUSH3 0x15180 PUSH1 0x7 DUP4 PUSH1 0x40 MLOAD PUSH3 0x458 SWAP2 SWAP1 PUSH3 0xD93 JUMP JUMPDEST SWAP1 DUP2 MSTORE PUSH1 0x20 ADD PUSH1 0x40 MLOAD DUP1 SWAP2 SUB SWAP1 KECCAK256 SLOAD PUSH3 0x473 SWAP2 SWAP1 PUSH3 0xDD1 JUMP JUMPDEST LT ISZERO JUMPDEST PUSH3 0x4B9 JUMPI PUSH1 0x40 MLOAD PUSH3 0x461BCD PUSH1 0xE5 SHL DUP2 MSTORE PUSH1 0x20 PUSH1 0x4 DUP3 ADD MSTORE PUSH1 0x12 PUSH1 0x24 DUP3 ADD MSTORE PUSH18 0x119D5B98DD1A5BDB881A5CC81B1BD8DAD959 PUSH1 0x72 SHL PUSH1 0x44 DUP3 ADD MSTORE PUSH1 0x64 ADD PUSH3 0x27F JUMP JUMPDEST PUSH1 0xD DUP1 SLOAD PUSH1 0x1 PUSH1 0x1 PUSH1 0xA0 SHL SUB NOT AND PUSH1 0x1 PUSH1 0x1 PUSH1 0xA0 SHL SUB DUP5 AND SWAP1 DUP2 OR SWAP1 SWAP2 SSTORE PUSH1 0x40 DUP1 MLOAD PUSH4 0x15AB88C9 PUSH1 0xE3 SHL DUP2 MSTORE SWAP1 MLOAD PUSH3 0x554 SWAP3 SWAP2 PUSH4 0xAD5C4648 SWAP2 PUSH1 0x4 DUP1 DUP4 ADD SWAP3 PUSH1 0x20 SWAP3 SWAP2 SWAP1 DUP3 SWAP1 SUB ADD DUP2 DUP7 DUP1 EXTCODESIZE ISZERO DUP1 ISZERO PUSH3 0x513 JUMPI PUSH1 0x0 DUP1 REVERT JUMPDEST POP GAS STATICCALL ISZERO DUP1 ISZERO PUSH3 0x528 JUMPI RETURNDATASIZE PUSH1 0x0 DUP1 RETURNDATACOPY RETURNDATASIZE PUSH1 0x0 REVERT JUMPDEST POP POP POP POP PUSH1 0x40 MLOAD RETURNDATASIZE PUSH1 0x1F NOT PUSH1 0x1F DUP3 ADD AND DUP3 ADD DUP1 PUSH1 0x40 MSTORE POP DUP2 ADD SWAP1 PUSH3 0x54E SWAP2 SWAP1 PUSH3 0xD61 JUMP JUMPDEST PUSH3 0x68C JUMP JUMPDEST PUSH3 0x55F DUP3 PUSH3 0xB64 JUMP JUMPDEST PUSH1 0xC SLOAD PUSH1 0x40 MLOAD PUSH1 0x1 PUSH1 0x1 PUSH1 0xA0 SHL SUB SWAP2 DUP3 AND SWAP2 DUP5 AND SWAP1 CALLER SWAP1 PUSH32 0xEB7C1E97C05570337FE795AB9D5755A8F731C9C52E756B720275940FA2833276 SWAP1 PUSH1 0x0 SWAP1 LOG4 PUSH3 0x32C DUP2 PUSH3 0xC0E JUMP JUMPDEST PUSH1 0x1 PUSH1 0x1 PUSH1 0xA0 SHL SUB DUP3 AND PUSH3 0x5FF JUMPI PUSH1 0x40 MLOAD PUSH3 0x461BCD PUSH1 0xE5 SHL DUP2 MSTORE PUSH1 0x20 PUSH1 0x4 DUP3 ADD MSTORE PUSH1 0x1F PUSH1 0x24 DUP3 ADD MSTORE PUSH32 0x45524332303A206D696E7420746F20746865207A65726F206164647265737300 PUSH1 0x44 DUP3 ADD MSTORE PUSH1 0x64 ADD PUSH3 0x27F JUMP JUMPDEST DUP1 PUSH1 0x2 PUSH1 0x0 DUP3 DUP3 SLOAD PUSH3 0x613 SWAP2 SWAP1 PUSH3 0xDD1 JUMP JUMPDEST SWAP1 SWAP2 SSTORE POP POP PUSH1 0x1 PUSH1 0x1 PUSH1 0xA0 SHL SUB DUP3 AND PUSH1 0x0 SWAP1 DUP2 MSTORE PUSH1 0x20 DUP2 SWAP1 MSTORE PUSH1 0x40 DUP2 KECCAK256 DUP1 SLOAD DUP4 SWAP3 SWAP1 PUSH3 0x642 SWAP1 DUP5 SWAP1 PUSH3 0xDD1 JUMP JUMPDEST SWAP1 SWAP2 SSTORE POP POP PUSH1 0x40 MLOAD DUP2 DUP2 MSTORE PUSH1 0x1 PUSH1 0x1 PUSH1 0xA0 SHL SUB DUP4 AND SWAP1 PUSH1 0x0 SWAP1 PUSH32 0xDDF252AD1BE2C89B69C2B068FC378DAA952BA7F163C4A11628F55A4DF523B3EF SWAP1 PUSH1 0x20 ADD PUSH1 0x40 MLOAD DUP1 SWAP2 SUB SWAP1 LOG3 POP POP JUMP JUMPDEST CALLER PUSH3 0x6A0 PUSH1 0x6 SLOAD PUSH1 0x1 PUSH1 0x1 PUSH1 0xA0 SHL SUB AND SWAP1 JUMP JUMPDEST PUSH1 0x1 PUSH1 0x1 PUSH1 0xA0 SHL SUB AND EQ DUP1 PUSH3 0x6C0 JUMPI POP PUSH1 0x8 SLOAD PUSH1 0x1 PUSH1 0x1 PUSH1 0xA0 SHL SUB AND CALLER EQ JUMPDEST PUSH3 0x712 JUMPI PUSH1 0x40 MLOAD PUSH3 0x461BCD PUSH1 0xE5 SHL DUP2 MSTORE PUSH1 0x20 PUSH1 0x4 DUP3 ADD MSTORE PUSH1 0x35 PUSH1 0x24 DUP3 ADD MSTORE PUSH1 0x0 DUP1 MLOAD PUSH1 0x20 PUSH3 0x5DD8 DUP4 CODECOPY DUP2 MLOAD SWAP2 MSTORE PUSH1 0x44 DUP3 ADD MSTORE PUSH1 0x0 DUP1 MLOAD PUSH1 0x20 PUSH3 0x5DF8 DUP4 CODECOPY DUP2 MLOAD SWAP2 MSTORE PUSH1 0x64 DUP3 ADD MSTORE PUSH1 0x84 ADD PUSH3 0x27F JUMP JUMPDEST PUSH1 0x40 DUP1 MLOAD DUP1 DUP3 ADD SWAP1 SWAP2 MSTORE PUSH1 0x7 DUP2 MSTORE PUSH7 0x36382FB830B4B9 PUSH1 0xC9 SHL PUSH1 0x20 DUP3 ADD MSTORE PUSH1 0x6 SLOAD PUSH1 0x1 PUSH1 0xA0 SHL SWAP1 DIV PUSH1 0xFF AND ISZERO DUP1 PUSH3 0x7D4 JUMPI POP PUSH1 0x7 DUP2 PUSH1 0x40 MLOAD PUSH3 0x757 SWAP2 SWAP1 PUSH3 0xD93 JUMP JUMPDEST SWAP1 DUP2 MSTORE PUSH1 0x20 ADD PUSH1 0x40 MLOAD DUP1 SWAP2 SUB SWAP1 KECCAK256 SLOAD PUSH1 0x0 EQ ISZERO DUP1 ISZERO PUSH3 0x797 JUMPI POP TIMESTAMP PUSH1 0x7 DUP3 PUSH1 0x40 MLOAD PUSH3 0x785 SWAP2 SWAP1 PUSH3 0xD93 JUMP JUMPDEST SWAP1 DUP2 MSTORE PUSH1 0x20 ADD PUSH1 0x40 MLOAD DUP1 SWAP2 SUB SWAP1 KECCAK256 SLOAD GT ISZERO JUMPDEST DUP1 ISZERO PUSH3 0x7D4 JUMPI POP TIMESTAMP PUSH3 0x15180 PUSH1 0x7 DUP4 PUSH1 0x40 MLOAD PUSH3 0x7B6 SWAP2 SWAP1 PUSH3 0xD93 JUMP JUMPDEST SWAP1 DUP2 MSTORE PUSH1 0x20 ADD PUSH1 0x40 MLOAD DUP1 SWAP2 SUB SWAP1 KECCAK256 SLOAD PUSH3 0x7D1 SWAP2 SWAP1 PUSH3 0xDD1 JUMP JUMPDEST LT ISZERO JUMPDEST PUSH3 0x817 JUMPI PUSH1 0x40 MLOAD PUSH3 0x461BCD PUSH1 0xE5 SHL DUP2 MSTORE PUSH1 0x20 PUSH1 0x4 DUP3 ADD MSTORE PUSH1 0x12 PUSH1 0x24 DUP3 ADD MSTORE PUSH18 0x119D5B98DD1A5BDB881A5CC81B1BD8DAD959 PUSH1 0x72 SHL PUSH1 0x44 DUP3 ADD MSTORE PUSH1 0x64 ADD PUSH3 0x27F JUMP JUMPDEST PUSH1 0x1 PUSH1 0x1 PUSH1 0xA0 SHL SUB DUP3 AND PUSH3 0x8A3 JUMPI PUSH1 0x40 MLOAD PUSH3 0x461BCD PUSH1 0xE5 SHL DUP2 MSTORE PUSH1 0x20 PUSH1 0x4 DUP3 ADD MSTORE PUSH1 0x44 PUSH1 0x24 DUP3 ADD DUP2 SWAP1 MSTORE PUSH32 0x4C6971756966793A3A7365744C6971756964697479506169723A204C69717569 SWAP1 DUP3 ADD MSTORE PUSH32 0x6469747920706169722063616E277420636F6E7461696E207A65726F20616464 PUSH1 0x64 DUP3 ADD MSTORE PUSH4 0x72657373 PUSH1 0xE0 SHL PUSH1 0x84 DUP3 ADD MSTORE PUSH1 0xA4 ADD PUSH3 0x27F JUMP JUMPDEST PUSH1 0xD PUSH1 0x0 SWAP1 SLOAD SWAP1 PUSH2 0x100 EXP SWAP1 DIV PUSH1 0x1 PUSH1 0x1 PUSH1 0xA0 SHL SUB AND PUSH1 0x1 PUSH1 0x1 PUSH1 0xA0 SHL SUB AND PUSH4 0xC45A0155 PUSH1 0x40 MLOAD DUP2 PUSH4 0xFFFFFFFF AND PUSH1 0xE0 SHL DUP2 MSTORE PUSH1 0x4 ADD PUSH1 0x20 PUSH1 0x40 MLOAD DUP1 DUP4 SUB DUP2 DUP7 DUP1 EXTCODESIZE ISZERO DUP1 ISZERO PUSH3 0x8F2 JUMPI PUSH1 0x0 DUP1 REVERT JUMPDEST POP GAS STATICCALL ISZERO DUP1 ISZERO PUSH3 0x907 JUMPI RETURNDATASIZE PUSH1 0x0 DUP1 RETURNDATACOPY RETURNDATASIZE PUSH1 0x0 REVERT JUMPDEST POP POP POP POP PUSH1 0x40 MLOAD RETURNDATASIZE PUSH1 0x1F NOT PUSH1 0x1F DUP3 ADD AND DUP3 ADD DUP1 PUSH1 0x40 MSTORE POP DUP2 ADD SWAP1 PUSH3 0x92D SWAP2 SWAP1 PUSH3 0xD61 JUMP JUMPDEST PUSH1 0x40 MLOAD PUSH4 0xE6A43905 PUSH1 0xE0 SHL DUP2 MSTORE ADDRESS PUSH1 0x4 DUP3 ADD MSTORE PUSH1 0x1 PUSH1 0x1 PUSH1 0xA0 SHL SUB DUP5 DUP2 AND PUSH1 0x24 DUP4 ADD MSTORE SWAP2 SWAP1 SWAP2 AND SWAP1 PUSH4 0xE6A43905 SWAP1 PUSH1 0x44 ADD PUSH1 0x20 PUSH1 0x40 MLOAD DUP1 DUP4 SUB DUP2 DUP7 DUP1 EXTCODESIZE ISZERO DUP1 ISZERO PUSH3 0x977 JUMPI PUSH1 0x0 DUP1 REVERT JUMPDEST POP GAS STATICCALL ISZERO DUP1 ISZERO PUSH3 0x98C JUMPI RETURNDATASIZE PUSH1 0x0 DUP1 RETURNDATACOPY RETURNDATASIZE PUSH1 0x0 REVERT JUMPDEST POP POP POP POP PUSH1 0x40 MLOAD RETURNDATASIZE PUSH1 0x1F NOT PUSH1 0x1F DUP3 ADD AND DUP3 ADD DUP1 PUSH1 0x40 MSTORE POP DUP2 ADD SWAP1 PUSH3 0x9B2 SWAP2 SWAP1 PUSH3 0xD61 JUMP JUMPDEST PUSH1 0xC DUP1 SLOAD PUSH1 0x1 PUSH1 0x1 PUSH1 0xA0 SHL SUB NOT AND PUSH1 0x1 PUSH1 0x1 PUSH1 0xA0 SHL SUB SWAP3 SWAP1 SWAP3 AND SWAP2 DUP3 OR SWAP1 SSTORE PUSH3 0xB08 JUMPI PUSH1 0xD PUSH1 0x0 SWAP1 SLOAD SWAP1 PUSH2 0x100 EXP SWAP1 DIV PUSH1 0x1 PUSH1 0x1 PUSH1 0xA0 SHL SUB AND PUSH1 0x1 PUSH1 0x1 PUSH1 0xA0 SHL SUB AND PUSH4 0xC45A0155 PUSH1 0x40 MLOAD DUP2 PUSH4 0xFFFFFFFF AND PUSH1 0xE0 SHL DUP2 MSTORE PUSH1 0x4 ADD PUSH1 0x20 PUSH1 0x40 MLOAD DUP1 DUP4 SUB DUP2 DUP7 DUP1 EXTCODESIZE ISZERO DUP1 ISZERO PUSH3 0xA25 JUMPI PUSH1 0x0 DUP1 REVERT JUMPDEST POP GAS STATICCALL ISZERO DUP1 ISZERO PUSH3 0xA3A JUMPI RETURNDATASIZE PUSH1 0x0 DUP1 RETURNDATACOPY RETURNDATASIZE PUSH1 0x0 REVERT JUMPDEST POP POP POP POP PUSH1 0x40 MLOAD RETURNDATASIZE PUSH1 0x1F NOT PUSH1 0x1F DUP3 ADD AND DUP3 ADD DUP1 PUSH1 0x40 MSTORE POP DUP2 ADD SWAP1 PUSH3 0xA60 SWAP2 SWAP1 PUSH3 0xD61 JUMP JUMPDEST PUSH1 0x40 MLOAD PUSH4 0x64E329CB PUSH1 0xE1 SHL DUP2 MSTORE ADDRESS PUSH1 0x4 DUP3 ADD MSTORE PUSH1 0x1 PUSH1 0x1 PUSH1 0xA0 SHL SUB DUP5 DUP2 AND PUSH1 0x24 DUP4 ADD MSTORE SWAP2 SWAP1 SWAP2 AND SWAP1 PUSH4 0xC9C65396 SWAP1 PUSH1 0x44 ADD PUSH1 0x20 PUSH1 0x40 MLOAD DUP1 DUP4 SUB DUP2 PUSH1 0x0 DUP8 DUP1 EXTCODESIZE ISZERO DUP1 ISZERO PUSH3 0xAAC JUMPI PUSH1 0x0 DUP1 REVERT JUMPDEST POP GAS CALL ISZERO DUP1 ISZERO PUSH3 0xAC1 JUMPI RETURNDATASIZE PUSH1 0x0 DUP1 RETURNDATACOPY RETURNDATASIZE PUSH1 0x0 REVERT JUMPDEST POP POP POP POP PUSH1 0x40 MLOAD RETURNDATASIZE PUSH1 0x1F NOT PUSH1 0x1F DUP3 ADD AND DUP3 ADD DUP1 PUSH1 0x40 MSTORE POP DUP2 ADD SWAP1 PUSH3 0xAE7 SWAP2 SWAP1 PUSH3 0xD61 JUMP JUMPDEST PUSH1 0xC DUP1 SLOAD PUSH1 0x1 PUSH1 0x1 PUSH1 0xA0 SHL SUB NOT AND PUSH1 0x1 PUSH1 0x1 PUSH1 0xA0 SHL SUB SWAP3 SWAP1 SWAP3 AND SWAP2 SWAP1 SWAP2 OR SWAP1 SSTORE JUMPDEST PUSH1 0xC SLOAD PUSH3 0xB1F SWAP1 PUSH1 0x1 PUSH1 0x1 PUSH1 0xA0 SHL SUB AND PUSH3 0xB64 JUMP JUMPDEST PUSH1 0xC SLOAD PUSH1 0x40 MLOAD PUSH1 0x1 PUSH1 0x1 PUSH1 0xA0 SHL SUB SWAP1 SWAP2 AND SWAP1 CALLER SWAP1 PUSH32 0x6C587433DEA122B342B093ACB4DDE076CA1A441413E43A5A14DDE8A8842C9447 SWAP1 PUSH1 0x0 SWAP1 LOG3 PUSH3 0x32C DUP2 PUSH3 0xC0E JUMP JUMPDEST CALLER PUSH3 0xB78 PUSH1 0x6 SLOAD PUSH1 0x1 PUSH1 0x1 PUSH1 0xA0 SHL SUB AND SWAP1 JUMP JUMPDEST PUSH1 0x1 PUSH1 0x1 PUSH1 0xA0 SHL SUB AND EQ DUP1 PUSH3 0xB98 JUMPI POP PUSH1 0x8 SLOAD PUSH1 0x1 PUSH1 0x1 PUSH1 0xA0 SHL SUB AND CALLER EQ JUMPDEST PUSH3 0xBEA JUMPI PUSH1 0x40 MLOAD PUSH3 0x461BCD PUSH1 0xE5 SHL DUP2 MSTORE PUSH1 0x20 PUSH1 0x4 DUP3 ADD MSTORE PUSH1 0x35 PUSH1 0x24 DUP3 ADD MSTORE PUSH1 0x0 DUP1 MLOAD PUSH1 0x20 PUSH3 0x5DD8 DUP4 CODECOPY DUP2 MLOAD SWAP2 MSTORE PUSH1 0x44 DUP3 ADD MSTORE PUSH1 0x0 DUP1 MLOAD PUSH1 0x20 PUSH3 0x5DF8 DUP4 CODECOPY DUP2 MLOAD SWAP2 MSTORE PUSH1 0x64 DUP3 ADD MSTORE PUSH1 0x84 ADD PUSH3 0x27F JUMP JUMPDEST PUSH1 0x1 PUSH1 0x1 PUSH1 0xA0 SHL SUB AND PUSH1 0x0 SWAP1 DUP2 MSTORE PUSH1 0xE PUSH1 0x20 MSTORE PUSH1 0x40 SWAP1 KECCAK256 DUP1 SLOAD PUSH1 0xFF NOT AND PUSH1 0x1 OR SWAP1 SSTORE JUMP JUMPDEST CALLER PUSH3 0xC22 PUSH1 0x6 SLOAD PUSH1 0x1 PUSH1 0x1 PUSH1 0xA0 SHL SUB AND SWAP1 JUMP JUMPDEST PUSH1 0x1 PUSH1 0x1 PUSH1 0xA0 SHL SUB AND EQ DUP1 PUSH3 0xC42 JUMPI POP PUSH1 0x8 SLOAD PUSH1 0x1 PUSH1 0x1 PUSH1 0xA0 SHL SUB AND CALLER EQ JUMPDEST PUSH3 0xC94 JUMPI PUSH1 0x40 MLOAD PUSH3 0x461BCD PUSH1 0xE5 SHL DUP2 MSTORE PUSH1 0x20 PUSH1 0x4 DUP3 ADD MSTORE PUSH1 0x35 PUSH1 0x24 DUP3 ADD MSTORE PUSH1 0x0 DUP1 MLOAD PUSH1 0x20 PUSH3 0x5DD8 DUP4 CODECOPY DUP2 MLOAD SWAP2 MSTORE PUSH1 0x44 DUP3 ADD MSTORE PUSH1 0x0 DUP1 MLOAD PUSH1 0x20 PUSH3 0x5DF8 DUP4 CODECOPY DUP2 MLOAD SWAP2 MSTORE PUSH1 0x64 DUP3 ADD MSTORE PUSH1 0x84 ADD PUSH3 0x27F JUMP JUMPDEST PUSH1 0x0 PUSH1 0x7 DUP3 PUSH1 0x40 MLOAD PUSH3 0xCA8 SWAP2 SWAP1 PUSH3 0xD93 JUMP JUMPDEST SWAP1 DUP2 MSTORE PUSH1 0x40 MLOAD SWAP1 DUP2 SWAP1 SUB PUSH1 0x20 ADD SWAP1 KECCAK256 SSTORE POP JUMP JUMPDEST DUP3 DUP1 SLOAD PUSH3 0xCC9 SWAP1 PUSH3 0xDF8 JUMP JUMPDEST SWAP1 PUSH1 0x0 MSTORE PUSH1 0x20 PUSH1 0x0 KECCAK256 SWAP1 PUSH1 0x1F ADD PUSH1 0x20 SWAP1 DIV DUP2 ADD SWAP3 DUP3 PUSH3 0xCED JUMPI PUSH1 0x0 DUP6 SSTORE PUSH3 0xD38 JUMP JUMPDEST DUP3 PUSH1 0x1F LT PUSH3 0xD08 JUMPI DUP1 MLOAD PUSH1 0xFF NOT AND DUP4 DUP1 ADD OR DUP6 SSTORE PUSH3 0xD38 JUMP JUMPDEST DUP3 DUP1 ADD PUSH1 0x1 ADD DUP6 SSTORE DUP3 ISZERO PUSH3 0xD38 JUMPI SWAP2 DUP3 ADD JUMPDEST DUP3 DUP2 GT ISZERO PUSH3 0xD38 JUMPI DUP3 MLOAD DUP3 SSTORE SWAP2 PUSH1 0x20 ADD SWAP2 SWAP1 PUSH1 0x1 ADD SWAP1 PUSH3 0xD1B JUMP JUMPDEST POP PUSH3 0xD46 SWAP3 SWAP2 POP PUSH3 0xD4A JUMP JUMPDEST POP SWAP1 JUMP JUMPDEST JUMPDEST DUP1 DUP3 GT ISZERO PUSH3 0xD46 JUMPI PUSH1 0x0 DUP2 SSTORE PUSH1 0x1 ADD PUSH3 0xD4B JUMP JUMPDEST PUSH1 0x0 PUSH1 0x20 DUP3 DUP5 SUB SLT ISZERO PUSH3 0xD74 JUMPI PUSH1 0x0 DUP1 REVERT JUMPDEST DUP2 MLOAD PUSH1 0x1 PUSH1 0x1 PUSH1 0xA0 SHL SUB DUP2 AND DUP2 EQ PUSH3 0xD8C JUMPI PUSH1 0x0 DUP1 REVERT JUMPDEST SWAP4 SWAP3 POP POP POP JUMP JUMPDEST PUSH1 0x0 DUP3 MLOAD PUSH1 0x0 JUMPDEST DUP2 DUP2 LT ISZERO PUSH3 0xDB6 JUMPI PUSH1 0x20 DUP2 DUP7 ADD DUP2 ADD MLOAD DUP6 DUP4 ADD MSTORE ADD PUSH3 0xD9A JUMP JUMPDEST DUP2 DUP2 GT ISZERO PUSH3 0xDC6 JUMPI PUSH1 0x0 DUP3 DUP6 ADD MSTORE JUMPDEST POP SWAP2 SWAP1 SWAP2 ADD SWAP3 SWAP2 POP POP JUMP JUMPDEST PUSH1 0x0 DUP3 NOT DUP3 GT ISZERO PUSH3 0xDF3 JUMPI PUSH4 0x4E487B71 PUSH1 0xE0 SHL PUSH1 0x0 MSTORE PUSH1 0x11 PUSH1 0x4 MSTORE PUSH1 0x24 PUSH1 0x0 REVERT JUMPDEST POP ADD SWAP1 JUMP JUMPDEST PUSH1 0x1 DUP2 DUP2 SHR SWAP1 DUP3 AND DUP1 PUSH3 0xE0D JUMPI PUSH1 0x7F DUP3 AND SWAP2 POP JUMPDEST PUSH1 0x20 DUP3 LT DUP2 EQ ISZERO PUSH3 0xE2F JUMPI PUSH4 0x4E487B71 PUSH1 0xE0 SHL PUSH1 0x0 MSTORE PUSH1 0x22 PUSH1 0x4 MSTORE PUSH1 0x24 PUSH1 0x0 REVERT JUMPDEST POP SWAP2 SWAP1 POP JUMP JUMPDEST PUSH2 0x4F93 DUP1 PUSH3 0xE45 PUSH1 0x0 CODECOPY PUSH1 0x0 RETURN INVALID PUSH1 0x80 PUSH1 0x40 MSTORE PUSH1 0x4 CALLDATASIZE LT PUSH2 0x41E JUMPI PUSH1 0x0 CALLDATALOAD PUSH1 0xE0 SHR DUP1 PUSH4 0x88B8084F GT PUSH2 0x21E JUMPI DUP1 PUSH4 0xA9059CBB GT PUSH2 0x123 JUMPI DUP1 PUSH4 0xDD62ED3E GT PUSH2 0xAB JUMPI DUP1 PUSH4 0xF4762FD6 GT PUSH2 0x7A JUMPI DUP1 PUSH4 0xF4762FD6 EQ PUSH2 0xCF2 JUMPI DUP1 PUSH4 0xF98080C0 EQ PUSH2 0xD07 JUMPI DUP1 PUSH4 0xF9F92BE4 EQ PUSH2 0xD3F JUMPI DUP1 PUSH4 0xFAFA4489 EQ PUSH2 0xD5F JUMPI DUP1 PUSH4 0xFB25C120 EQ PUSH2 0xD81 JUMPI PUSH1 0x0 DUP1 REVERT JUMPDEST DUP1 PUSH4 0xDD62ED3E EQ PUSH2 0xC4B JUMPI DUP1 PUSH4 0xE43504DA EQ PUSH2 0xC91 JUMPI DUP1 PUSH4 0xEDAE876F EQ PUSH2 0xCB2 JUMPI DUP1 PUSH4 0xF2FDE38B EQ PUSH2 0xCD2 JUMPI PUSH1 0x0 DUP1 REVERT JUMPDEST DUP1 PUSH4 0xBB922014 GT PUSH2 0xF2 JUMPI DUP1 PUSH4 0xBB922014 EQ PUSH2 0xB9A JUMPI DUP1 PUSH4 0xC1316EB6 EQ PUSH2 0xBD3 JUMPI DUP1 PUSH4 0xC851CC32 EQ PUSH2 0xBF3 JUMPI DUP1 PUSH4 0xC9574975 EQ PUSH2 0xC13 JUMPI DUP1 PUSH4 0xD9324079 EQ PUSH2 0xC35 JUMPI PUSH1 0x0 DUP1 REVERT JUMPDEST DUP1 PUSH4 0xA9059CBB EQ PUSH2 0xB15 JUMPI DUP1 PUSH4 0xAE7E1D7A EQ PUSH2 0xB35 JUMPI DUP1 PUSH4 0xAF10E03E EQ PUSH2 0xB65 JUMPI DUP1 PUSH4 0xB29AD50A EQ PUSH2 0xB85 JUMPI PUSH1 0x0 DUP1 REVERT JUMPDEST DUP1 PUSH4 0x9B19251A GT PUSH2 0x1A6 JUMPI DUP1 PUSH4 0xA17252A4 GT PUSH2 0x175 JUMPI DUP1 PUSH4 0xA17252A4 EQ PUSH2 0xA74 JUMPI DUP1 PUSH4 0xA347511A EQ PUSH2 0xA94 JUMPI DUP1 PUSH4 0xA457C2D7 EQ PUSH2 0xAB5 JUMPI DUP1 PUSH4 0xA4F4A765 EQ PUSH2 0xAD5 JUMPI DUP1 PUSH4 0xA607494A EQ PUSH2 0xAF5 JUMPI PUSH1 0x0 DUP1 REVERT JUMPDEST DUP1 PUSH4 0x9B19251A EQ PUSH2 0x9F4 JUMPI DUP1 PUSH4 0x9B96EECE EQ PUSH2 0xA14 JUMPI DUP1 PUSH4 0x9D93598E EQ PUSH2 0xA34 JUMPI DUP1 PUSH4 0x9F531156 EQ PUSH2 0xA54 JUMPI PUSH1 0x0 DUP1 REVERT JUMPDEST DUP1 PUSH4 0x8F5949F9 GT PUSH2 0x1ED JUMPI DUP1 PUSH4 0x8F5949F9 EQ PUSH2 0x971 JUMPI DUP1 PUSH4 0x95D89B41 EQ PUSH2 0x98B JUMPI DUP1 PUSH4 0x982CEEB7 EQ PUSH2 0x9A0 JUMPI DUP1 PUSH4 0x9850D32B EQ PUSH2 0x9B6 JUMPI DUP1 PUSH4 0x986D6142 EQ PUSH2 0x9D4 JUMPI PUSH1 0x0 DUP1 REVERT JUMPDEST DUP1 PUSH4 0x88B8084F EQ PUSH2 0x8F3 JUMPI DUP1 PUSH4 0x88BCE123 EQ PUSH2 0x913 JUMPI DUP1 PUSH4 0x8DA5CB5B EQ PUSH2 0x933 JUMPI DUP1 PUSH4 0x8EFD5E3B EQ PUSH2 0x951 JUMPI PUSH1 0x0 DUP1 REVERT JUMPDEST DUP1 PUSH4 0x313CE567 GT PUSH2 0x324 JUMPI DUP1 PUSH4 0x645830B4 GT PUSH2 0x2AC JUMPI DUP1 PUSH4 0x737DC9BD GT PUSH2 0x27B JUMPI DUP1 PUSH4 0x737DC9BD EQ PUSH2 0x83C JUMPI DUP1 PUSH4 0x7897AF86 EQ PUSH2 0x85C JUMPI DUP1 PUSH4 0x7D8E9615 EQ PUSH2 0x87C JUMPI DUP1 PUSH4 0x8053575B EQ PUSH2 0x89C JUMPI DUP1 PUSH4 0x808A5457 EQ PUSH2 0x8D5 JUMPI PUSH1 0x0 DUP1 REVERT JUMPDEST DUP1 PUSH4 0x645830B4 EQ PUSH2 0x7B0 JUMPI DUP1 PUSH4 0x69372B30 EQ PUSH2 0x7D0 JUMPI DUP1 PUSH4 0x70A08231 EQ PUSH2 0x7F1 JUMPI DUP1 PUSH4 0x715018A6 EQ PUSH2 0x827 JUMPI PUSH1 0x0 DUP1 REVERT JUMPDEST DUP1 PUSH4 0x4AD1EB81 GT PUSH2 0x2F3 JUMPI DUP1 PUSH4 0x4AD1EB81 EQ PUSH2 0x71B JUMPI DUP1 PUSH4 0x506EE100 EQ PUSH2 0x73B JUMPI DUP1 PUSH4 0x53A54511 EQ PUSH2 0x750 JUMPI DUP1 PUSH4 0x54613450 EQ PUSH2 0x770 JUMPI DUP1 PUSH4 0x5958621E EQ PUSH2 0x790 JUMPI PUSH1 0x0 DUP1 REVERT JUMPDEST DUP1 PUSH4 0x313CE567 EQ PUSH2 0x69F JUMPI DUP1 PUSH4 0x370F0A60 EQ PUSH2 0x6BB JUMPI DUP1 PUSH4 0x39509351 EQ PUSH2 0x6DB JUMPI DUP1 PUSH4 0x40C10F19 EQ PUSH2 0x6FB JUMPI PUSH1 0x0 DUP1 REVERT JUMPDEST DUP1 PUSH4 0x13EA5D29 GT PUSH2 0x3A7 JUMPI DUP1 PUSH4 0x1F53AC02 GT PUSH2 0x376 JUMPI DUP1 PUSH4 0x1F53AC02 EQ PUSH2 0x615 JUMPI DUP1 PUSH4 0x239EB211 EQ PUSH2 0x635 JUMPI DUP1 PUSH4 0x23B872DD EQ PUSH2 0x64A JUMPI DUP1 PUSH4 0x2B112E49 EQ PUSH2 0x66A JUMPI DUP1 PUSH4 0x3071FED2 EQ PUSH2 0x67F JUMPI PUSH1 0x0 DUP1 REVERT JUMPDEST DUP1 PUSH4 0x13EA5D29 EQ PUSH2 0x599 JUMPI DUP1 PUSH4 0x18160DDD EQ PUSH2 0x5BB JUMPI DUP1 PUSH4 0x1AC818A1 EQ PUSH2 0x5D0 JUMPI DUP1 PUSH4 0x1B611111 EQ PUSH2 0x600 JUMPI PUSH1 0x0 DUP1 REVERT JUMPDEST DUP1 PUSH4 0x44E0EA2 GT PUSH2 0x3EE JUMPI DUP1 PUSH4 0x44E0EA2 EQ PUSH2 0x4D9 JUMPI DUP1 PUSH4 0x6FDDE03 EQ PUSH2 0x4FD JUMPI DUP1 PUSH4 0x95EA7B3 EQ PUSH2 0x51F JUMPI DUP1 PUSH4 0xD38FFCD EQ PUSH2 0x53F JUMPI DUP1 PUSH4 0x11A63E17 EQ PUSH2 0x561 JUMPI PUSH1 0x0 DUP1 REVERT JUMPDEST DUP1 PUSH3 0x5D1AFC EQ PUSH2 0x42A JUMPI DUP1 PUSH4 0x181BB78 EQ PUSH2 0x460 JUMPI DUP1 PUSH4 0x1BBBA4D EQ PUSH2 0x495 JUMPI DUP1 PUSH4 0x3FCDBDF EQ PUSH2 0x4B7 JUMPI PUSH1 0x0 DUP1 REVERT JUMPDEST CALLDATASIZE PUSH2 0x425 JUMPI STOP JUMPDEST PUSH1 0x0 DUP1 REVERT JUMPDEST CALLVALUE DUP1 ISZERO PUSH2 0x436 JUMPI PUSH1 0x0 DUP1 REVERT JUMPDEST POP PUSH1 0x8 SLOAD PUSH2 0x44B SWAP1 PUSH1 0x1 PUSH1 0xF0 SHL SWAP1 DIV PUSH1 0xFF AND DUP2 JUMP JUMPDEST PUSH1 0x40 MLOAD SWAP1 ISZERO ISZERO DUP2 MSTORE PUSH1 0x20 ADD JUMPDEST PUSH1 0x40 MLOAD DUP1 SWAP2 SUB SWAP1 RETURN JUMPDEST CALLVALUE DUP1 ISZERO PUSH2 0x46C JUMPI PUSH1 0x0 DUP1 REVERT JUMPDEST POP PUSH1 0x11 SLOAD PUSH2 0x482 SWAP1 PUSH4 0x1000000 SWAP1 DIV PUSH2 0xFFFF AND DUP2 JUMP JUMPDEST PUSH1 0x40 MLOAD PUSH2 0xFFFF SWAP1 SWAP2 AND DUP2 MSTORE PUSH1 0x20 ADD PUSH2 0x457 JUMP JUMPDEST CALLVALUE DUP1 ISZERO PUSH2 0x4A1 JUMPI PUSH1 0x0 DUP1 REVERT JUMPDEST POP PUSH1 0x8 SLOAD PUSH2 0x482 SWAP1 PUSH1 0x1 PUSH1 0xA0 SHL SWAP1 DIV PUSH2 0xFFFF AND DUP2 JUMP JUMPDEST CALLVALUE DUP1 ISZERO PUSH2 0x4C3 JUMPI PUSH1 0x0 DUP1 REVERT JUMPDEST POP PUSH1 0x8 SLOAD PUSH2 0x482 SWAP1 PUSH1 0x1 PUSH1 0xC0 SHL SWAP1 DIV PUSH2 0xFFFF AND DUP2 JUMP JUMPDEST CALLVALUE DUP1 ISZERO PUSH2 0x4E5 JUMPI PUSH1 0x0 DUP1 REVERT JUMPDEST POP PUSH2 0x4EF PUSH1 0x10 SLOAD DUP2 JUMP JUMPDEST PUSH1 0x40 MLOAD SWAP1 DUP2 MSTORE PUSH1 0x20 ADD PUSH2 0x457 JUMP JUMPDEST CALLVALUE DUP1 ISZERO PUSH2 0x509 JUMPI PUSH1 0x0 DUP1 REVERT JUMPDEST POP PUSH2 0x512 PUSH2 0xDA1 JUMP JUMPDEST PUSH1 0x40 MLOAD PUSH2 0x457 SWAP2 SWAP1 PUSH2 0x4CD6 JUMP JUMPDEST CALLVALUE DUP1 ISZERO PUSH2 0x52B JUMPI PUSH1 0x0 DUP1 REVERT JUMPDEST POP PUSH2 0x44B PUSH2 0x53A CALLDATASIZE PUSH1 0x4 PUSH2 0x4A6C JUMP JUMPDEST PUSH2 0xE33 JUMP JUMPDEST CALLVALUE DUP1 ISZERO PUSH2 0x54B JUMPI PUSH1 0x0 DUP1 REVERT JUMPDEST POP PUSH1 0x8 SLOAD PUSH2 0x482 SWAP1 PUSH1 0x1 PUSH1 0xE0 SHL SWAP1 DIV PUSH2 0xFFFF AND DUP2 JUMP JUMPDEST CALLVALUE DUP1 ISZERO PUSH2 0x56D JUMPI PUSH1 0x0 DUP1 REVERT JUMPDEST POP PUSH1 0xA SLOAD PUSH2 0x581 SWAP1 PUSH1 0x1 PUSH1 0x1 PUSH1 0xA0 SHL SUB AND DUP2 JUMP JUMPDEST PUSH1 0x40 MLOAD PUSH1 0x1 PUSH1 0x1 PUSH1 0xA0 SHL SUB SWAP1 SWAP2 AND DUP2 MSTORE PUSH1 0x20 ADD PUSH2 0x457 JUMP JUMPDEST CALLVALUE DUP1 ISZERO PUSH2 0x5A5 JUMPI PUSH1 0x0 DUP1 REVERT JUMPDEST POP PUSH2 0x5B9 PUSH2 0x5B4 CALLDATASIZE PUSH1 0x4 PUSH2 0x49B8 JUMP JUMPDEST PUSH2 0xE49 JUMP JUMPDEST STOP JUMPDEST CALLVALUE DUP1 ISZERO PUSH2 0x5C7 JUMPI PUSH1 0x0 DUP1 REVERT JUMPDEST POP PUSH1 0x2 SLOAD PUSH2 0x4EF JUMP JUMPDEST CALLVALUE DUP1 ISZERO PUSH2 0x5DC JUMPI PUSH1 0x0 DUP1 REVERT JUMPDEST POP PUSH2 0x44B PUSH2 0x5EB CALLDATASIZE PUSH1 0x4 PUSH2 0x49B8 JUMP JUMPDEST PUSH1 0xF PUSH1 0x20 MSTORE PUSH1 0x0 SWAP1 DUP2 MSTORE PUSH1 0x40 SWAP1 KECCAK256 SLOAD PUSH1 0xFF AND DUP2 JUMP JUMPDEST CALLVALUE DUP1 ISZERO PUSH2 0x60C JUMPI PUSH1 0x0 DUP1 REVERT JUMPDEST POP PUSH2 0x5B9 PUSH2 0x1083 JUMP JUMPDEST CALLVALUE DUP1 ISZERO PUSH2 0x621 JUMPI PUSH1 0x0 DUP1 REVERT JUMPDEST POP PUSH2 0x5B9 PUSH2 0x630 CALLDATASIZE PUSH1 0x4 PUSH2 0x49B8 JUMP JUMPDEST PUSH2 0x1155 JUMP JUMPDEST CALLVALUE DUP1 ISZERO PUSH2 0x641 JUMPI PUSH1 0x0 DUP1 REVERT JUMPDEST POP PUSH2 0x4EF PUSH2 0x123E JUMP JUMPDEST CALLVALUE DUP1 ISZERO PUSH2 0x656 JUMPI PUSH1 0x0 DUP1 REVERT JUMPDEST POP PUSH2 0x44B PUSH2 0x665 CALLDATASIZE PUSH1 0x4 PUSH2 0x4A2B JUMP JUMPDEST PUSH2 0x12C6 JUMP JUMPDEST CALLVALUE DUP1 ISZERO PUSH2 0x676 JUMPI PUSH1 0x0 DUP1 REVERT JUMPDEST POP PUSH2 0x4EF PUSH2 0x1370 JUMP JUMPDEST CALLVALUE DUP1 ISZERO PUSH2 0x68B JUMPI PUSH1 0x0 DUP1 REVERT JUMPDEST POP PUSH2 0x4EF PUSH2 0x69A CALLDATASIZE PUSH1 0x4 PUSH2 0x49B8 JUMP JUMPDEST PUSH2 0x1399 JUMP JUMPDEST CALLVALUE DUP1 ISZERO PUSH2 0x6AB JUMPI PUSH1 0x0 DUP1 REVERT JUMPDEST POP PUSH1 0x40 MLOAD PUSH1 0x12 DUP2 MSTORE PUSH1 0x20 ADD PUSH2 0x457 JUMP JUMPDEST CALLVALUE DUP1 ISZERO PUSH2 0x6C7 JUMPI PUSH1 0x0 DUP1 REVERT JUMPDEST POP PUSH2 0x5B9 PUSH2 0x6D6 CALLDATASIZE PUSH1 0x4 PUSH2 0x49B8 JUMP JUMPDEST PUSH2 0x14A0 JUMP JUMPDEST CALLVALUE DUP1 ISZERO PUSH2 0x6E7 JUMPI PUSH1 0x0 DUP1 REVERT JUMPDEST POP PUSH2 0x44B PUSH2 0x6F6 CALLDATASIZE PUSH1 0x4 PUSH2 0x4A6C JUMP JUMPDEST PUSH2 0x152A JUMP JUMPDEST CALLVALUE DUP1 ISZERO PUSH2 0x707 JUMPI PUSH1 0x0 DUP1 REVERT JUMPDEST POP PUSH2 0x5B9 PUSH2 0x716 CALLDATASIZE PUSH1 0x4 PUSH2 0x4A6C JUMP JUMPDEST PUSH2 0x1566 JUMP JUMPDEST CALLVALUE DUP1 ISZERO PUSH2 0x727 JUMPI PUSH1 0x0 DUP1 REVERT JUMPDEST POP PUSH2 0x5B9 PUSH2 0x736 CALLDATASIZE PUSH1 0x4 PUSH2 0x49B8 JUMP JUMPDEST PUSH2 0x159A JUMP JUMPDEST CALLVALUE DUP1 ISZERO PUSH2 0x747 JUMPI PUSH1 0x0 DUP1 REVERT JUMPDEST POP PUSH2 0x581 PUSH2 0x1609 JUMP JUMPDEST CALLVALUE DUP1 ISZERO PUSH2 0x75C JUMPI PUSH1 0x0 DUP1 REVERT JUMPDEST POP PUSH2 0x5B9 PUSH2 0x76B CALLDATASIZE PUSH1 0x4 PUSH2 0x49B8 JUMP JUMPDEST PUSH2 0x1722 JUMP JUMPDEST CALLVALUE DUP1 ISZERO PUSH2 0x77C JUMPI PUSH1 0x0 DUP1 REVERT JUMPDEST POP PUSH2 0x5B9 PUSH2 0x78B CALLDATASIZE PUSH1 0x4 PUSH2 0x49B8 JUMP JUMPDEST PUSH2 0x1791 JUMP JUMPDEST CALLVALUE DUP1 ISZERO PUSH2 0x79C JUMPI PUSH1 0x0 DUP1 REVERT JUMPDEST POP PUSH2 0x5B9 PUSH2 0x7AB CALLDATASIZE PUSH1 0x4 PUSH2 0x49B8 JUMP JUMPDEST PUSH2 0x184F JUMP JUMPDEST CALLVALUE DUP1 ISZERO PUSH2 0x7BC JUMPI PUSH1 0x0 DUP1 REVERT JUMPDEST POP PUSH1 0xC SLOAD PUSH2 0x581 SWAP1 PUSH1 0x1 PUSH1 0x1 PUSH1 0xA0 SHL SUB AND DUP2 JUMP JUMPDEST CALLVALUE DUP1 ISZERO PUSH2 0x7DC JUMPI PUSH1 0x0 DUP1 REVERT JUMPDEST POP PUSH2 0x44B PUSH2 0x7EB CALLDATASIZE PUSH1 0x4 PUSH2 0x4BE1 JUMP JUMPDEST POP PUSH1 0x0 SWAP1 JUMP JUMPDEST CALLVALUE DUP1 ISZERO PUSH2 0x7FD JUMPI PUSH1 0x0 DUP1 REVERT JUMPDEST POP PUSH2 0x4EF PUSH2 0x80C CALLDATASIZE PUSH1 0x4 PUSH2 0x49B8 JUMP JUMPDEST PUSH1 0x1 PUSH1 0x1 PUSH1 0xA0 SHL SUB AND PUSH1 0x0 SWAP1 DUP2 MSTORE PUSH1 0x20 DUP2 SWAP1 MSTORE PUSH1 0x40 SWAP1 KECCAK256 SLOAD SWAP1 JUMP JUMPDEST CALLVALUE DUP1 ISZERO PUSH2 0x833 JUMPI PUSH1 0x0 DUP1 REVERT JUMPDEST POP PUSH2 0x5B9 PUSH2 0x1938 JUMP JUMPDEST CALLVALUE DUP1 ISZERO PUSH2 0x848 JUMPI PUSH1 0x0 DUP1 REVERT JUMPDEST POP PUSH2 0x5B9 PUSH2 0x857 CALLDATASIZE PUSH1 0x4 PUSH2 0x4B9E JUMP JUMPDEST PUSH2 0x196C JUMP JUMPDEST CALLVALUE DUP1 ISZERO PUSH2 0x868 JUMPI PUSH1 0x0 DUP1 REVERT JUMPDEST POP PUSH2 0x5B9 PUSH2 0x877 CALLDATASIZE PUSH1 0x4 PUSH2 0x49B8 JUMP JUMPDEST PUSH2 0x1BBC JUMP JUMPDEST CALLVALUE DUP1 ISZERO PUSH2 0x888 JUMPI PUSH1 0x0 DUP1 REVERT JUMPDEST POP PUSH2 0x5B9 PUSH2 0x897 CALLDATASIZE PUSH1 0x4 PUSH2 0x4B83 JUMP JUMPDEST PUSH2 0x1C2E JUMP JUMPDEST CALLVALUE DUP1 ISZERO PUSH2 0x8A8 JUMPI PUSH1 0x0 DUP1 REVERT JUMPDEST POP PUSH2 0x44B PUSH2 0x8B7 CALLDATASIZE PUSH1 0x4 PUSH2 0x49B8 JUMP JUMPDEST PUSH1 0x1 PUSH1 0x1 PUSH1 0xA0 SHL SUB AND PUSH1 0x0 SWAP1 DUP2 MSTORE PUSH1 0xF PUSH1 0x20 MSTORE PUSH1 0x40 SWAP1 KECCAK256 SLOAD PUSH1 0xFF AND SWAP1 JUMP JUMPDEST CALLVALUE DUP1 ISZERO PUSH2 0x8E1 JUMPI PUSH1 0x0 DUP1 REVERT JUMPDEST POP PUSH1 0xC SLOAD PUSH1 0x1 PUSH1 0x1 PUSH1 0xA0 SHL SUB AND PUSH2 0x581 JUMP JUMPDEST CALLVALUE DUP1 ISZERO PUSH2 0x8FF JUMPI PUSH1 0x0 DUP1 REVERT JUMPDEST POP PUSH2 0x5B9 PUSH2 0x90E CALLDATASIZE PUSH1 0x4 PUSH2 0x4A98 JUMP JUMPDEST PUSH2 0x1E76 JUMP JUMPDEST CALLVALUE DUP1 ISZERO PUSH2 0x91F JUMPI PUSH1 0x0 DUP1 REVERT JUMPDEST POP PUSH1 0x11 SLOAD PUSH2 0x482 SWAP1 PUSH2 0x100 SWAP1 DIV PUSH2 0xFFFF AND DUP2 JUMP JUMPDEST CALLVALUE DUP1 ISZERO PUSH2 0x93F JUMPI PUSH1 0x0 DUP1 REVERT JUMPDEST POP PUSH1 0x6 SLOAD PUSH1 0x1 PUSH1 0x1 PUSH1 0xA0 SHL SUB AND PUSH2 0x581 JUMP JUMPDEST CALLVALUE DUP1 ISZERO PUSH2 0x95D JUMPI PUSH1 0x0 DUP1 REVERT JUMPDEST POP PUSH2 0x5B9 PUSH2 0x96C CALLDATASIZE PUSH1 0x4 PUSH2 0x4BE1 JUMP JUMPDEST PUSH2 0x1F0B JUMP JUMPDEST CALLVALUE DUP1 ISZERO PUSH2 0x97D JUMPI PUSH1 0x0 DUP1 REVERT JUMPDEST POP PUSH1 0x11 SLOAD PUSH2 0x44B SWAP1 PUSH1 0xFF AND DUP2 JUMP JUMPDEST CALLVALUE DUP1 ISZERO PUSH2 0x997 JUMPI PUSH1 0x0 DUP1 REVERT JUMPDEST POP PUSH2 0x512 PUSH2 0x1F5E JUMP JUMPDEST CALLVALUE DUP1 ISZERO PUSH2 0x9AC JUMPI PUSH1 0x0 DUP1 REVERT JUMPDEST POP PUSH2 0x4EF PUSH1 0x9 SLOAD DUP2 JUMP JUMPDEST CALLVALUE DUP1 ISZERO PUSH2 0x9C2 JUMPI PUSH1 0x0 DUP1 REVERT JUMPDEST POP PUSH1 0x8 SLOAD PUSH1 0x1 PUSH1 0x1 PUSH1 0xA0 SHL SUB AND PUSH2 0x581 JUMP JUMPDEST CALLVALUE DUP1 ISZERO PUSH2 0x9E0 JUMPI PUSH1 0x0 DUP1 REVERT JUMPDEST POP PUSH2 0x5B9 PUSH2 0x9EF CALLDATASIZE PUSH1 0x4 PUSH2 0x49B8 JUMP JUMPDEST PUSH2 0x1F6D JUMP JUMPDEST CALLVALUE DUP1 ISZERO PUSH2 0xA00 JUMPI PUSH1 0x0 DUP1 REVERT JUMPDEST POP PUSH2 0x5B9 PUSH2 0xA0F CALLDATASIZE PUSH1 0x4 PUSH2 0x49B8 JUMP JUMPDEST PUSH2 0x1FDF JUMP JUMPDEST CALLVALUE DUP1 ISZERO PUSH2 0xA20 JUMPI PUSH1 0x0 DUP1 REVERT JUMPDEST POP PUSH2 0x4EF PUSH2 0xA2F CALLDATASIZE PUSH1 0x4 PUSH2 0x49B8 JUMP JUMPDEST PUSH2 0x2076 JUMP JUMPDEST CALLVALUE DUP1 ISZERO PUSH2 0xA40 JUMPI PUSH1 0x0 DUP1 REVERT JUMPDEST POP PUSH2 0x5B9 PUSH2 0xA4F CALLDATASIZE PUSH1 0x4 PUSH2 0x49B8 JUMP JUMPDEST PUSH2 0x2145 JUMP JUMPDEST CALLVALUE DUP1 ISZERO PUSH2 0xA60 JUMPI PUSH1 0x0 DUP1 REVERT JUMPDEST POP PUSH2 0x5B9 PUSH2 0xA6F CALLDATASIZE PUSH1 0x4 PUSH2 0x4AD2 JUMP JUMPDEST PUSH2 0x2598 JUMP JUMPDEST CALLVALUE DUP1 ISZERO PUSH2 0xA80 JUMPI PUSH1 0x0 DUP1 REVERT JUMPDEST POP PUSH2 0x5B9 PUSH2 0xA8F CALLDATASIZE PUSH1 0x4 PUSH2 0x49B8 JUMP JUMPDEST PUSH2 0x260B JUMP JUMPDEST CALLVALUE DUP1 ISZERO PUSH2 0xAA0 JUMPI PUSH1 0x0 DUP1 REVERT JUMPDEST POP PUSH1 0x6 SLOAD PUSH2 0x44B SWAP1 PUSH1 0x1 PUSH1 0xA0 SHL SWAP1 DIV PUSH1 0xFF AND DUP2 JUMP JUMPDEST CALLVALUE DUP1 ISZERO PUSH2 0xAC1 JUMPI PUSH1 0x0 DUP1 REVERT JUMPDEST POP PUSH2 0x44B PUSH2 0xAD0 CALLDATASIZE PUSH1 0x4 PUSH2 0x4A6C JUMP JUMPDEST PUSH2 0x268F JUMP JUMPDEST CALLVALUE DUP1 ISZERO PUSH2 0xAE1 JUMPI PUSH1 0x0 DUP1 REVERT JUMPDEST POP PUSH1 0xB SLOAD PUSH2 0x581 SWAP1 PUSH1 0x1 PUSH1 0x1 PUSH1 0xA0 SHL SUB AND DUP2 JUMP JUMPDEST CALLVALUE DUP1 ISZERO PUSH2 0xB01 JUMPI PUSH1 0x0 DUP1 REVERT JUMPDEST POP PUSH2 0x5B9 PUSH2 0xB10 CALLDATASIZE PUSH1 0x4 PUSH2 0x4AD2 JUMP JUMPDEST PUSH2 0x2728 JUMP JUMPDEST CALLVALUE DUP1 ISZERO PUSH2 0xB21 JUMPI PUSH1 0x0 DUP1 REVERT JUMPDEST POP PUSH2 0x44B PUSH2 0xB30 CALLDATASIZE PUSH1 0x4 PUSH2 0x4A6C JUMP JUMPDEST PUSH2 0x2805 JUMP JUMPDEST CALLVALUE DUP1 ISZERO PUSH2 0xB41 JUMPI PUSH1 0x0 DUP1 REVERT JUMPDEST POP PUSH2 0x44B PUSH2 0xB50 CALLDATASIZE PUSH1 0x4 PUSH2 0x49B8 JUMP JUMPDEST PUSH1 0xE PUSH1 0x20 MSTORE PUSH1 0x0 SWAP1 DUP2 MSTORE PUSH1 0x40 SWAP1 KECCAK256 SLOAD PUSH1 0xFF AND DUP2 JUMP JUMPDEST CALLVALUE DUP1 ISZERO PUSH2 0xB71 JUMPI PUSH1 0x0 DUP1 REVERT JUMPDEST POP PUSH2 0x5B9 PUSH2 0xB80 CALLDATASIZE PUSH1 0x4 PUSH2 0x4B83 JUMP JUMPDEST PUSH2 0x2812 JUMP JUMPDEST CALLVALUE DUP1 ISZERO PUSH2 0xB91 JUMPI PUSH1 0x0 DUP1 REVERT JUMPDEST POP PUSH2 0x5B9 PUSH2 0x2AF5 JUMP JUMPDEST CALLVALUE DUP1 ISZERO PUSH2 0xBA6 JUMPI PUSH1 0x0 DUP1 REVERT JUMPDEST POP PUSH2 0x44B PUSH2 0xBB5 CALLDATASIZE PUSH1 0x4 PUSH2 0x49B8 JUMP JUMPDEST PUSH1 0x1 PUSH1 0x1 PUSH1 0xA0 SHL SUB AND PUSH1 0x0 SWAP1 DUP2 MSTORE PUSH1 0xE PUSH1 0x20 MSTORE PUSH1 0x40 SWAP1 KECCAK256 SLOAD PUSH1 0xFF AND SWAP1 JUMP JUMPDEST CALLVALUE DUP1 ISZERO PUSH2 0xBDF JUMPI PUSH1 0x0 DUP1 REVERT JUMPDEST POP PUSH2 0x5B9 PUSH2 0xBEE CALLDATASIZE PUSH1 0x4 PUSH2 0x4B83 JUMP JUMPDEST PUSH2 0x2EEC JUMP JUMPDEST CALLVALUE DUP1 ISZERO PUSH2 0xBFF JUMPI PUSH1 0x0 DUP1 REVERT JUMPDEST POP PUSH2 0x5B9 PUSH2 0xC0E CALLDATASIZE PUSH1 0x4 PUSH2 0x49B8 JUMP JUMPDEST PUSH2 0x3009 JUMP JUMPDEST CALLVALUE DUP1 ISZERO PUSH2 0xC1F JUMPI PUSH1 0x0 DUP1 REVERT JUMPDEST POP PUSH1 0x8 SLOAD PUSH2 0x482 SWAP1 PUSH1 0x1 PUSH1 0xD0 SHL SWAP1 DIV PUSH2 0xFFFF AND DUP2 JUMP JUMPDEST CALLVALUE DUP1 ISZERO PUSH2 0xC41 JUMPI PUSH1 0x0 DUP1 REVERT JUMPDEST POP PUSH2 0x482 PUSH2 0x3E8 DUP2 JUMP JUMPDEST CALLVALUE DUP1 ISZERO PUSH2 0xC57 JUMPI PUSH1 0x0 DUP1 REVERT JUMPDEST POP PUSH2 0x4EF PUSH2 0xC66 CALLDATASIZE PUSH1 0x4 PUSH2 0x49F2 JUMP JUMPDEST PUSH1 0x1 PUSH1 0x1 PUSH1 0xA0 SHL SUB SWAP2 DUP3 AND PUSH1 0x0 SWAP1 DUP2 MSTORE PUSH1 0x1 PUSH1 0x20 SWAP1 DUP2 MSTORE PUSH1 0x40 DUP1 DUP4 KECCAK256 SWAP4 SWAP1 SWAP5 AND DUP3 MSTORE SWAP2 SWAP1 SWAP2 MSTORE KECCAK256 SLOAD SWAP1 JUMP JUMPDEST CALLVALUE DUP1 ISZERO PUSH2 0xC9D JUMPI PUSH1 0x0 DUP1 REVERT JUMPDEST POP PUSH1 0x8 SLOAD PUSH2 0x44B SWAP1 PUSH1 0x1 PUSH1 0xF8 SHL SWAP1 DIV PUSH1 0xFF AND DUP2 JUMP JUMPDEST CALLVALUE DUP1 ISZERO PUSH2 0xCBE JUMPI PUSH1 0x0 DUP1 REVERT JUMPDEST POP PUSH1 0xD SLOAD PUSH2 0x581 SWAP1 PUSH1 0x1 PUSH1 0x1 PUSH1 0xA0 SHL SUB AND DUP2 JUMP JUMPDEST CALLVALUE DUP1 ISZERO PUSH2 0xCDE JUMPI PUSH1 0x0 DUP1 REVERT JUMPDEST POP PUSH2 0x5B9 PUSH2 0xCED CALLDATASIZE PUSH1 0x4 PUSH2 0x49B8 JUMP JUMPDEST PUSH2 0x3207 JUMP JUMPDEST CALLVALUE DUP1 ISZERO PUSH2 0xCFE JUMPI PUSH1 0x0 DUP1 REVERT JUMPDEST POP PUSH2 0x5B9 PUSH2 0x329F JUMP JUMPDEST CALLVALUE DUP1 ISZERO PUSH2 0xD13 JUMPI PUSH1 0x0 DUP1 REVERT JUMPDEST POP PUSH2 0x4EF PUSH2 0xD22 CALLDATASIZE PUSH1 0x4 PUSH2 0x4AD2 JUMP JUMPDEST DUP1 MLOAD PUSH1 0x20 DUP2 DUP4 ADD DUP2 ADD DUP1 MLOAD PUSH1 0x7 DUP3 MSTORE SWAP3 DUP3 ADD SWAP2 SWAP1 SWAP4 ADD KECCAK256 SWAP2 MSTORE SLOAD DUP2 JUMP JUMPDEST CALLVALUE DUP1 ISZERO PUSH2 0xD4B JUMPI PUSH1 0x0 DUP1 REVERT JUMPDEST POP PUSH2 0x5B9 PUSH2 0xD5A CALLDATASIZE PUSH1 0x4 PUSH2 0x49B8 JUMP JUMPDEST PUSH2 0x332B JUMP JUMPDEST CALLVALUE DUP1 ISZERO PUSH2 0xD6B JUMPI PUSH1 0x0 DUP1 REVERT JUMPDEST POP PUSH1 0x8 SLOAD PUSH2 0x482 SWAP1 PUSH1 0x1 PUSH1 0xB0 SHL SWAP1 DIV PUSH2 0xFFFF AND DUP2 JUMP JUMPDEST CALLVALUE DUP1 ISZERO PUSH2 0xD8D JUMPI PUSH1 0x0 DUP1 REVERT JUMPDEST POP PUSH2 0x5B9 PUSH2 0xD9C CALLDATASIZE PUSH1 0x4 PUSH2 0x4B83 JUMP JUMPDEST PUSH2 0x33C5 JUMP JUMPDEST PUSH1 0x60 PUSH1 0x3 DUP1 SLOAD PUSH2 0xDB0 SWAP1 PUSH2 0x4EBD JUMP JUMPDEST DUP1 PUSH1 0x1F ADD PUSH1 0x20 DUP1 SWAP2 DIV MUL PUSH1 0x20 ADD PUSH1 0x40 MLOAD SWAP1 DUP2 ADD PUSH1 0x40 MSTORE DUP1 SWAP3 SWAP2 SWAP1 DUP2 DUP2 MSTORE PUSH1 0x20 ADD DUP3 DUP1 SLOAD PUSH2 0xDDC SWAP1 PUSH2 0x4EBD JUMP JUMPDEST DUP1 ISZERO PUSH2 0xE29 JUMPI DUP1 PUSH1 0x1F LT PUSH2 0xDFE JUMPI PUSH2 0x100 DUP1 DUP4 SLOAD DIV MUL DUP4 MSTORE SWAP2 PUSH1 0x20 ADD SWAP2 PUSH2 0xE29 JUMP JUMPDEST DUP3 ADD SWAP2 SWAP1 PUSH1 0x0 MSTORE PUSH1 0x20 PUSH1 0x0 KECCAK256 SWAP1 JUMPDEST DUP2 SLOAD DUP2 MSTORE SWAP1 PUSH1 0x1 ADD SWAP1 PUSH1 0x20 ADD DUP1 DUP4 GT PUSH2 0xE0C JUMPI DUP3 SWAP1 SUB PUSH1 0x1F AND DUP3 ADD SWAP2 JUMPDEST POP POP POP POP POP SWAP1 POP SWAP1 JUMP JUMPDEST PUSH1 0x0 PUSH2 0xE40 CALLER DUP5 DUP5 PUSH2 0x34E6 JUMP JUMPDEST POP PUSH1 0x1 SWAP3 SWAP2 POP POP JUMP JUMPDEST CALLER PUSH2 0xE5C PUSH1 0x6 SLOAD PUSH1 0x1 PUSH1 0x1 PUSH1 0xA0 SHL SUB AND SWAP1 JUMP JUMPDEST PUSH1 0x1 PUSH1 0x1 PUSH1 0xA0 SHL SUB AND EQ DUP1 PUSH2 0xE7B JUMPI POP PUSH1 0x8 SLOAD PUSH1 0x1 PUSH1 0x1 PUSH1 0xA0 SHL SUB AND CALLER EQ JUMPDEST PUSH2 0xEA0 JUMPI PUSH1 0x40 MLOAD PUSH3 0x461BCD PUSH1 0xE5 SHL DUP2 MSTORE PUSH1 0x4 ADD PUSH2 0xE97 SWAP1 PUSH2 0x4D6A JUMP JUMPDEST PUSH1 0x40 MLOAD DUP1 SWAP2 SUB SWAP1 REVERT JUMPDEST PUSH1 0x40 DUP1 MLOAD DUP1 DUP3 ADD SWAP1 SWAP2 MSTORE PUSH1 0xA DUP2 MSTORE PUSH10 0x36B0B4B73A30B4B732B9 PUSH1 0xB1 SHL PUSH1 0x20 DUP3 ADD MSTORE PUSH1 0x6 SLOAD PUSH1 0x1 PUSH1 0xA0 SHL SWAP1 DIV PUSH1 0xFF AND ISZERO DUP1 PUSH2 0xF5A JUMPI POP PUSH1 0x7 DUP2 PUSH1 0x40 MLOAD PUSH2 0xEE5 SWAP2 SWAP1 PUSH2 0x4C85 JUMP JUMPDEST SWAP1 DUP2 MSTORE PUSH1 0x20 ADD PUSH1 0x40 MLOAD DUP1 SWAP2 SUB SWAP1 KECCAK256 SLOAD PUSH1 0x0 EQ ISZERO DUP1 ISZERO PUSH2 0xF22 JUMPI POP TIMESTAMP PUSH1 0x7 DUP3 PUSH1 0x40 MLOAD PUSH2 0xF10 SWAP2 SWAP1 PUSH2 0x4C85 JUMP JUMPDEST SWAP1 DUP2 MSTORE PUSH1 0x20 ADD PUSH1 0x40 MLOAD DUP1 SWAP2 SUB SWAP1 KECCAK256 SLOAD GT ISZERO JUMPDEST DUP1 ISZERO PUSH2 0xF5A JUMPI POP TIMESTAMP PUSH3 0x15180 PUSH1 0x7 DUP4 PUSH1 0x40 MLOAD PUSH2 0xF3E SWAP2 SWAP1 PUSH2 0x4C85 JUMP JUMPDEST SWAP1 DUP2 MSTORE PUSH1 0x20 ADD PUSH1 0x40 MLOAD DUP1 SWAP2 SUB SWAP1 KECCAK256 SLOAD PUSH2 0xF57 SWAP2 SWAP1 PUSH2 0x4E21 JUMP JUMPDEST LT ISZERO JUMPDEST PUSH2 0xF76 JUMPI PUSH1 0x40 MLOAD PUSH3 0x461BCD PUSH1 0xE5 SHL DUP2 MSTORE PUSH1 0x4 ADD PUSH2 0xE97 SWAP1 PUSH2 0x4D3E JUMP JUMPDEST PUSH1 0x8 SLOAD PUSH1 0x1 PUSH1 0x1 PUSH1 0xA0 SHL SUB DUP4 DUP2 AND SWAP2 AND EQ DUP1 ISZERO SWAP1 PUSH2 0xF9C JUMPI POP PUSH1 0x1 PUSH1 0x1 PUSH1 0xA0 SHL SUB DUP3 AND ISZERO ISZERO JUMPDEST PUSH2 0x1027 JUMPI PUSH1 0x40 MLOAD PUSH3 0x461BCD PUSH1 0xE5 SHL DUP2 MSTORE PUSH1 0x20 PUSH1 0x4 DUP3 ADD MSTORE PUSH1 0x50 PUSH1 0x24 DUP3 ADD MSTORE PUSH32 0x41424F41543A3A7365744D61696E7461696E65723A204D61696E7461696E6572 PUSH1 0x44 DUP3 ADD MSTORE PUSH32 0x2063616E277420657175616C2070726576696F7573206D61696E7461696E6572 PUSH1 0x64 DUP3 ADD MSTORE PUSH16 0x206F72207A65726F2061646472657373 PUSH1 0x80 SHL PUSH1 0x84 DUP3 ADD MSTORE PUSH1 0xA4 ADD PUSH2 0xE97 JUMP JUMPDEST PUSH1 0x8 DUP1 SLOAD PUSH1 0x1 PUSH1 0x1 PUSH1 0xA0 SHL SUB DUP5 DUP2 AND PUSH1 0x1 PUSH1 0x1 PUSH1 0xA0 SHL SUB NOT DUP4 AND DUP2 OR SWAP1 SWAP4 SSTORE PUSH1 0x40 MLOAD SWAP2 AND SWAP2 SWAP1 DUP3 SWAP1 PUSH32 0x2F3FFAAAAD93928855C8700645D1A3643E6CCFDD500EFA9FDA048A88F557CF01 SWAP1 PUSH1 0x0 SWAP1 LOG3 POP PUSH2 0x107F DUP2 PUSH2 0x2598 JUMP JUMPDEST POP POP JUMP JUMPDEST CALLER PUSH2 0x1096 PUSH1 0x6 SLOAD PUSH1 0x1 PUSH1 0x1 PUSH1 0xA0 SHL SUB AND SWAP1 JUMP JUMPDEST PUSH1 0x1 PUSH1 0x1 PUSH1 0xA0 SHL SUB AND EQ DUP1 PUSH2 0x10B5 JUMPI POP PUSH1 0x8 SLOAD PUSH1 0x1 PUSH1 0x1 PUSH1 0xA0 SHL SUB AND CALLER EQ JUMPDEST PUSH2 0x10D1 JUMPI PUSH1 0x40 MLOAD PUSH3 0x461BCD PUSH1 0xE5 SHL DUP2 MSTORE PUSH1 0x4 ADD PUSH2 0xE97 SWAP1 PUSH2 0x4D6A JUMP JUMPDEST PUSH1 0x0 SELFBALANCE GT PUSH2 0x1149 JUMPI PUSH1 0x40 DUP1 MLOAD PUSH3 0x461BCD PUSH1 0xE5 SHL DUP2 MSTORE PUSH1 0x20 PUSH1 0x4 DUP3 ADD MSTORE PUSH1 0x24 DUP2 ADD SWAP2 SWAP1 SWAP2 MSTORE PUSH32 0x41424F41543A3A636C61696D457863656564696E674C6971756964697479546F PUSH1 0x44 DUP3 ADD MSTORE PUSH32 0x6B656E42616C616E63653A204E6F20657863656564696E672062616C616E6365 PUSH1 0x64 DUP3 ADD MSTORE PUSH1 0x84 ADD PUSH2 0xE97 JUMP JUMPDEST PUSH2 0x1153 CALLER SELFBALANCE PUSH2 0x360A JUMP JUMPDEST JUMP JUMPDEST CALLER PUSH2 0x1168 PUSH1 0x6 SLOAD PUSH1 0x1 PUSH1 0x1 PUSH1 0xA0 SHL SUB AND SWAP1 JUMP JUMPDEST PUSH1 0x1 PUSH1 0x1 PUSH1 0xA0 SHL SUB AND EQ DUP1 PUSH2 0x1187 JUMPI POP PUSH1 0x8 SLOAD PUSH1 0x1 PUSH1 0x1 PUSH1 0xA0 SHL SUB AND CALLER EQ JUMPDEST PUSH2 0x11A3 JUMPI PUSH1 0x40 MLOAD PUSH3 0x461BCD PUSH1 0xE5 SHL DUP2 MSTORE PUSH1 0x4 ADD PUSH2 0xE97 SWAP1 PUSH2 0x4D6A JUMP JUMPDEST PUSH1 0x1 PUSH1 0x1 PUSH1 0xA0 SHL SUB DUP2 AND PUSH2 0x1214 JUMPI PUSH1 0x40 MLOAD PUSH3 0x461BCD PUSH1 0xE5 SHL DUP2 MSTORE PUSH1 0x20 PUSH1 0x4 DUP3 ADD MSTORE PUSH1 0x32 PUSH1 0x24 DUP3 ADD MSTORE PUSH32 0x41424F41543A3A73657444657657616C6C65743A20416464726573732063616E PUSH1 0x44 DUP3 ADD MSTORE PUSH18 0x2774206265207A65726F2061646472657373 PUSH1 0x70 SHL PUSH1 0x64 DUP3 ADD MSTORE PUSH1 0x84 ADD PUSH2 0xE97 JUMP JUMPDEST PUSH1 0xA DUP1 SLOAD PUSH1 0x1 PUSH1 0x1 PUSH1 0xA0 SHL SUB NOT AND PUSH1 0x1 PUSH1 0x1 PUSH1 0xA0 SHL SUB DUP4 AND SWAP1 DUP2 OR SWAP1 SWAP2 SSTORE PUSH2 0x123B SWAP1 PUSH2 0x14A0 JUMP JUMPDEST POP JUMP JUMPDEST PUSH1 0x0 PUSH2 0x1248 PUSH2 0x1609 JUMP JUMPDEST PUSH1 0x40 MLOAD PUSH4 0x70A08231 PUSH1 0xE0 SHL DUP2 MSTORE ADDRESS PUSH1 0x4 DUP3 ADD MSTORE PUSH1 0x1 PUSH1 0x1 PUSH1 0xA0 SHL SUB SWAP2 SWAP1 SWAP2 AND SWAP1 PUSH4 0x70A08231 SWAP1 PUSH1 0x24 ADD PUSH1 0x20 PUSH1 0x40 MLOAD DUP1 DUP4 SUB DUP2 DUP7 DUP1 EXTCODESIZE ISZERO DUP1 ISZERO PUSH2 0x1289 JUMPI PUSH1 0x0 DUP1 REVERT JUMPDEST POP GAS STATICCALL ISZERO DUP1 ISZERO PUSH2 0x129D JUMPI RETURNDATASIZE PUSH1 0x0 DUP1 RETURNDATACOPY RETURNDATASIZE PUSH1 0x0 REVERT JUMPDEST POP POP POP POP PUSH1 0x40 MLOAD RETURNDATASIZE PUSH1 0x1F NOT PUSH1 0x1F DUP3 ADD AND DUP3 ADD DUP1 PUSH1 0x40 MSTORE POP DUP2 ADD SWAP1 PUSH2 0x12C1 SWAP2 SWAP1 PUSH2 0x4BFA JUMP JUMPDEST SWAP1 POP SWAP1 JUMP JUMPDEST PUSH1 0x0 PUSH2 0x12D3 DUP5 DUP5 DUP5 PUSH2 0x36E9 JUMP JUMPDEST PUSH1 0x1 PUSH1 0x1 PUSH1 0xA0 SHL SUB DUP5 AND PUSH1 0x0 SWAP1 DUP2 MSTORE PUSH1 0x1 PUSH1 0x20 SWAP1 DUP2 MSTORE PUSH1 0x40 DUP1 DUP4 KECCAK256 CALLER DUP5 MSTORE SWAP1 SWAP2 MSTORE SWAP1 KECCAK256 SLOAD DUP3 DUP2 LT ISZERO PUSH2 0x1358 JUMPI PUSH1 0x40 MLOAD PUSH3 0x461BCD PUSH1 0xE5 SHL DUP2 MSTORE PUSH1 0x20 PUSH1 0x4 DUP3 ADD MSTORE PUSH1 0x28 PUSH1 0x24 DUP3 ADD MSTORE PUSH32 0x45524332303A207472616E7366657220616D6F756E7420657863656564732061 PUSH1 0x44 DUP3 ADD MSTORE PUSH8 0x6C6C6F77616E6365 PUSH1 0xC0 SHL PUSH1 0x64 DUP3 ADD MSTORE PUSH1 0x84 ADD PUSH2 0xE97 JUMP JUMPDEST PUSH2 0x1365 DUP6 CALLER DUP6 DUP5 SUB PUSH2 0x34E6 JUMP JUMPDEST POP PUSH1 0x1 SWAP5 SWAP4 POP POP POP POP JUMP JUMPDEST PUSH1 0xB SLOAD PUSH1 0x1 PUSH1 0x1 PUSH1 0xA0 SHL SUB AND PUSH1 0x0 SWAP1 DUP2 MSTORE PUSH1 0x20 DUP2 SWAP1 MSTORE PUSH1 0x40 DUP2 KECCAK256 SLOAD PUSH2 0x12C1 SWAP1 PUSH1 0x2 SLOAD JUMPDEST SWAP1 PUSH2 0x3FF4 JUMP JUMPDEST PUSH1 0x0 DUP1 PUSH2 0x13A5 DUP4 PUSH2 0x2076 JUMP JUMPDEST SWAP1 POP PUSH2 0x13B0 PUSH1 0x2 SLOAD SWAP1 JUMP JUMPDEST DUP2 GT ISZERO PUSH2 0x13CC JUMPI POP POP PUSH1 0x8 SLOAD PUSH1 0x1 PUSH1 0xB0 SHL SWAP1 DIV PUSH2 0xFFFF AND SWAP2 SWAP1 POP JUMP JUMPDEST PUSH3 0x186A0 PUSH2 0x13D9 PUSH1 0x2 SLOAD SWAP1 JUMP JUMPDEST PUSH2 0x13E3 SWAP2 SWAP1 PUSH2 0x4E39 JUMP JUMPDEST DUP2 LT ISZERO PUSH2 0x13FF JUMPI POP POP PUSH1 0x8 SLOAD PUSH1 0x1 PUSH1 0xA0 SHL SWAP1 DIV PUSH2 0xFFFF AND SWAP2 SWAP1 POP JUMP JUMPDEST PUSH1 0x0 PUSH2 0x140A PUSH1 0x2 SLOAD SWAP1 JUMP JUMPDEST PUSH2 0x1417 DUP4 PUSH3 0x186A0 PUSH2 0x4E5B JUMP JUMPDEST PUSH2 0x1421 SWAP2 SWAP1 PUSH2 0x4E39 JUMP JUMPDEST SWAP1 POP PUSH1 0x64 DUP2 GT ISZERO PUSH2 0x148A JUMPI PUSH1 0x8 SLOAD PUSH1 0x0 SWAP1 PUSH1 0x64 SWAP1 PUSH2 0x144B SWAP1 DUP5 SWAP1 PUSH1 0x1 PUSH1 0xA0 SHL SWAP1 DIV PUSH2 0xFFFF AND PUSH2 0x4E21 JUMP JUMPDEST PUSH2 0x1455 SWAP2 SWAP1 PUSH2 0x4E7A JUMP JUMPDEST PUSH1 0x8 SLOAD SWAP1 SWAP2 POP PUSH1 0x1 PUSH1 0xB0 SHL SWAP1 DIV PUSH2 0xFFFF AND DUP2 GT PUSH2 0x1472 JUMPI DUP1 PUSH2 0x1481 JUMP JUMPDEST PUSH1 0x8 SLOAD PUSH1 0x1 PUSH1 0xB0 SHL SWAP1 DIV PUSH2 0xFFFF AND JUMPDEST SWAP6 SWAP5 POP POP POP POP POP JUMP JUMPDEST POP POP PUSH1 0x8 SLOAD PUSH1 0x1 PUSH1 0xA0 SHL SWAP1 DIV PUSH2 0xFFFF AND SWAP3 SWAP2 POP POP JUMP JUMPDEST CALLER PUSH2 0x14B3 PUSH1 0x6 SLOAD PUSH1 0x1 PUSH1 0x1 PUSH1 0xA0 SHL SUB AND SWAP1 JUMP JUMPDEST PUSH1 0x1 PUSH1 0x1 PUSH1 0xA0 SHL SUB AND EQ DUP1 PUSH2 0x14D2 JUMPI POP PUSH1 0x8 SLOAD PUSH1 0x1 PUSH1 0x1 PUSH1 0xA0 SHL SUB AND CALLER EQ JUMPDEST PUSH2 0x14EE JUMPI PUSH1 0x40 MLOAD PUSH3 0x461BCD PUSH1 0xE5 SHL DUP2 MSTORE PUSH1 0x4 ADD PUSH2 0xE97 SWAP1 PUSH2 0x4D6A JUMP JUMPDEST PUSH1 0x1 PUSH1 0x1 PUSH1 0xA0 SHL SUB AND PUSH1 0x0 SWAP1 DUP2 MSTORE PUSH1 0xE PUSH1 0x20 SWAP1 DUP2 MSTORE PUSH1 0x40 DUP1 DUP4 KECCAK256 DUP1 SLOAD PUSH1 0x1 PUSH1 0xFF NOT SWAP2 DUP3 AND DUP2 OR SWAP1 SWAP3 SSTORE PUSH1 0xF SWAP1 SWAP4 MSTORE SWAP3 KECCAK256 DUP1 SLOAD SWAP1 SWAP2 AND SWAP1 SWAP2 OR SWAP1 SSTORE JUMP JUMPDEST CALLER PUSH1 0x0 DUP2 DUP2 MSTORE PUSH1 0x1 PUSH1 0x20 SWAP1 DUP2 MSTORE PUSH1 0x40 DUP1 DUP4 KECCAK256 PUSH1 0x1 PUSH1 0x1 PUSH1 0xA0 SHL SUB DUP8 AND DUP5 MSTORE SWAP1 SWAP2 MSTORE DUP2 KECCAK256 SLOAD SWAP1 SWAP2 PUSH2 0xE40 SWAP2 DUP6 SWAP1 PUSH2 0x1561 SWAP1 DUP7 SWAP1 PUSH2 0x4E21 JUMP JUMPDEST PUSH2 0x34E6 JUMP JUMPDEST PUSH1 0x6 SLOAD PUSH1 0x1 PUSH1 0x1 PUSH1 0xA0 SHL SUB AND CALLER EQ PUSH2 0x1590 JUMPI PUSH1 0x40 MLOAD PUSH3 0x461BCD PUSH1 0xE5 SHL DUP2 MSTORE PUSH1 0x4 ADD PUSH2 0xE97 SWAP1 PUSH2 0x4D09 JUMP JUMPDEST PUSH2 0x107F DUP3 DUP3 PUSH2 0x4000 JUMP JUMPDEST CALLER PUSH2 0x15AD PUSH1 0x6 SLOAD PUSH1 0x1 PUSH1 0x1 PUSH1 0xA0 SHL SUB AND SWAP1 JUMP JUMPDEST PUSH1 0x1 PUSH1 0x1 PUSH1 0xA0 SHL SUB AND EQ DUP1 PUSH2 0x15CC JUMPI POP PUSH1 0x8 SLOAD PUSH1 0x1 PUSH1 0x1 PUSH1 0xA0 SHL SUB AND CALLER EQ JUMPDEST PUSH2 0x15E8 JUMPI PUSH1 0x40 MLOAD PUSH3 0x461BCD PUSH1 0xE5 SHL DUP2 MSTORE PUSH1 0x4 ADD PUSH2 0xE97 SWAP1 PUSH2 0x4D6A JUMP JUMPDEST PUSH1 0x1 PUSH1 0x1 PUSH1 0xA0 SHL SUB AND PUSH1 0x0 SWAP1 DUP2 MSTORE PUSH1 0xE PUSH1 0x20 MSTORE PUSH1 0x40 SWAP1 KECCAK256 DUP1 SLOAD PUSH1 0xFF NOT AND SWAP1 SSTORE JUMP JUMPDEST PUSH1 0xC SLOAD PUSH1 0x40 DUP1 MLOAD PUSH4 0xDFE1681 PUSH1 0xE0 SHL DUP2 MSTORE SWAP1 MLOAD PUSH1 0x0 SWAP3 PUSH1 0x1 PUSH1 0x1 PUSH1 0xA0 SHL SUB AND SWAP2 DUP4 SWAP2 DUP4 SWAP2 PUSH4 0xDFE1681 SWAP2 PUSH1 0x4 DUP1 DUP4 ADD SWAP3 PUSH1 0x20 SWAP3 SWAP2 SWAP1 DUP3 SWAP1 SUB ADD DUP2 DUP7 DUP1 EXTCODESIZE ISZERO DUP1 ISZERO PUSH2 0x1652 JUMPI PUSH1 0x0 DUP1 REVERT JUMPDEST POP GAS STATICCALL ISZERO DUP1 ISZERO PUSH2 0x1666 JUMPI RETURNDATASIZE PUSH1 0x0 DUP1 RETURNDATACOPY RETURNDATASIZE PUSH1 0x0 REVERT JUMPDEST POP POP POP POP PUSH1 0x40 MLOAD RETURNDATASIZE PUSH1 0x1F NOT PUSH1 0x1F DUP3 ADD AND DUP3 ADD DUP1 PUSH1 0x40 MSTORE POP DUP2 ADD SWAP1 PUSH2 0x168A SWAP2 SWAP1 PUSH2 0x49D5 JUMP JUMPDEST SWAP1 POP PUSH1 0x0 DUP3 PUSH1 0x1 PUSH1 0x1 PUSH1 0xA0 SHL SUB AND PUSH4 0xD21220A7 PUSH1 0x40 MLOAD DUP2 PUSH4 0xFFFFFFFF AND PUSH1 0xE0 SHL DUP2 MSTORE PUSH1 0x4 ADD PUSH1 0x20 PUSH1 0x40 MLOAD DUP1 DUP4 SUB DUP2 DUP7 DUP1 EXTCODESIZE ISZERO DUP1 ISZERO PUSH2 0x16C7 JUMPI PUSH1 0x0 DUP1 REVERT JUMPDEST POP GAS STATICCALL ISZERO DUP1 ISZERO PUSH2 0x16DB JUMPI RETURNDATASIZE PUSH1 0x0 DUP1 RETURNDATACOPY RETURNDATASIZE PUSH1 0x0 REVERT JUMPDEST POP POP POP POP PUSH1 0x40 MLOAD RETURNDATASIZE PUSH1 0x1F NOT PUSH1 0x1F DUP3 ADD AND DUP3 ADD DUP1 PUSH1 0x40 MSTORE POP DUP2 ADD SWAP1 PUSH2 0x16FF SWAP2 SWAP1 PUSH2 0x49D5 JUMP JUMPDEST SWAP1 POP PUSH1 0x1 PUSH1 0x1 PUSH1 0xA0 SHL SUB DUP3 AND ADDRESS EQ ISZERO PUSH2 0x1718 JUMPI DUP1 PUSH2 0x171A JUMP JUMPDEST DUP2 JUMPDEST SWAP4 POP POP POP POP SWAP1 JUMP JUMPDEST CALLER PUSH2 0x1735 PUSH1 0x6 SLOAD PUSH1 0x1 PUSH1 0x1 PUSH1 0xA0 SHL SUB AND SWAP1 JUMP JUMPDEST PUSH1 0x1 PUSH1 0x1 PUSH1 0xA0 SHL SUB AND EQ DUP1 PUSH2 0x1754 JUMPI POP PUSH1 0x8 SLOAD PUSH1 0x1 PUSH1 0x1 PUSH1 0xA0 SHL SUB AND CALLER EQ JUMPDEST PUSH2 0x1770 JUMPI PUSH1 0x40 MLOAD PUSH3 0x461BCD PUSH1 0xE5 SHL DUP2 MSTORE PUSH1 0x4 ADD PUSH2 0xE97 SWAP1 PUSH2 0x4D6A JUMP JUMPDEST PUSH1 0x1 PUSH1 0x1 PUSH1 0xA0 SHL SUB AND PUSH1 0x0 SWAP1 DUP2 MSTORE PUSH1 0xF PUSH1 0x20 MSTORE PUSH1 0x40 SWAP1 KECCAK256 DUP1 SLOAD PUSH1 0xFF NOT AND SWAP1 SSTORE JUMP JUMPDEST CALLER PUSH2 0x17A4 PUSH1 0x6 SLOAD PUSH1 0x1 PUSH1 0x1 PUSH1 0xA0 SHL SUB AND SWAP1 JUMP JUMPDEST PUSH1 0x1 PUSH1 0x1 PUSH1 0xA0 SHL SUB AND EQ DUP1 PUSH2 0x17C3 JUMPI POP PUSH1 0x8 SLOAD PUSH1 0x1 PUSH1 0x1 PUSH1 0xA0 SHL SUB AND CALLER EQ JUMPDEST PUSH2 0x17DF JUMPI PUSH1 0x40 MLOAD PUSH3 0x461BCD PUSH1 0xE5 SHL DUP2 MSTORE PUSH1 0x4 ADD PUSH2 0xE97 SWAP1 PUSH2 0x4D6A JUMP JUMPDEST PUSH1 0x11 DUP1 SLOAD PUSH6 0x10000000000 PUSH1 0x1 PUSH1 0xC8 SHL SUB NOT AND PUSH1 0x1 PUSH1 0x28 SHL PUSH1 0x1 PUSH1 0x1 PUSH1 0xA0 SHL SUB DUP5 AND MUL OR SWAP1 SSTORE PUSH2 0x180E DUP2 PUSH2 0x14A0 JUMP JUMPDEST PUSH1 0x11 SLOAD PUSH1 0x40 MLOAD PUSH1 0x1 PUSH1 0x28 SHL SWAP1 SWAP2 DIV PUSH1 0x1 PUSH1 0x1 PUSH1 0xA0 SHL SUB AND SWAP1 PUSH32 0xA84D75F236ADCEC4D7B91B39192D89C0E7FCE5482A6438AFE0FC781EE47D2021 SWAP1 PUSH1 0x0 SWAP1 LOG2 POP JUMP JUMPDEST CALLER PUSH2 0x1862 PUSH1 0x6 SLOAD PUSH1 0x1 PUSH1 0x1 PUSH1 0xA0 SHL SUB AND SWAP1 JUMP JUMPDEST PUSH1 0x1 PUSH1 0x1 PUSH1 0xA0 SHL SUB AND EQ DUP1 PUSH2 0x1881 JUMPI POP PUSH1 0x8 SLOAD PUSH1 0x1 PUSH1 0x1 PUSH1 0xA0 SHL SUB AND CALLER EQ JUMPDEST PUSH2 0x189D JUMPI PUSH1 0x40 MLOAD PUSH3 0x461BCD PUSH1 0xE5 SHL DUP2 MSTORE PUSH1 0x4 ADD PUSH2 0xE97 SWAP1 PUSH2 0x4D6A JUMP JUMPDEST PUSH1 0x1 PUSH1 0x1 PUSH1 0xA0 SHL SUB DUP2 AND PUSH2 0x1911 JUMPI PUSH1 0x40 MLOAD PUSH3 0x461BCD PUSH1 0xE5 SHL DUP2 MSTORE PUSH1 0x20 PUSH1 0x4 DUP3 ADD MSTORE PUSH1 0x35 PUSH1 0x24 DUP3 ADD MSTORE PUSH32 0x41424F41543A3A73657452657761726457616C6C65743A204164647265737320 PUSH1 0x44 DUP3 ADD MSTORE PUSH21 0x63616E2774206265207A65726F2061646472657373 PUSH1 0x58 SHL PUSH1 0x64 DUP3 ADD MSTORE PUSH1 0x84 ADD PUSH2 0xE97 JUMP JUMPDEST PUSH1 0xB DUP1 SLOAD PUSH1 0x1 PUSH1 0x1 PUSH1 0xA0 SHL SUB NOT AND PUSH1 0x1 PUSH1 0x1 PUSH1 0xA0 SHL SUB DUP4 AND SWAP1 DUP2 OR SWAP1 SWAP2 SSTORE PUSH2 0x123B SWAP1 PUSH2 0x14A0 JUMP JUMPDEST PUSH1 0x6 SLOAD PUSH1 0x1 PUSH1 0x1 PUSH1 0xA0 SHL SUB AND CALLER EQ PUSH2 0x1962 JUMPI PUSH1 0x40 MLOAD PUSH3 0x461BCD PUSH1 0xE5 SHL DUP2 MSTORE PUSH1 0x4 ADD PUSH2 0xE97 SWAP1 PUSH2 0x4D09 JUMP JUMPDEST PUSH2 0x1153 PUSH1 0x0 PUSH2 0x40DF JUMP JUMPDEST CALLER PUSH2 0x197F PUSH1 0x6 SLOAD PUSH1 0x1 PUSH1 0x1 PUSH1 0xA0 SHL SUB AND SWAP1 JUMP JUMPDEST PUSH1 0x1 PUSH1 0x1 PUSH1 0xA0 SHL SUB AND EQ DUP1 PUSH2 0x199E JUMPI POP PUSH1 0x8 SLOAD PUSH1 0x1 PUSH1 0x1 PUSH1 0xA0 SHL SUB AND CALLER EQ JUMPDEST PUSH2 0x19BA JUMPI PUSH1 0x40 MLOAD PUSH3 0x461BCD PUSH1 0xE5 SHL DUP2 MSTORE PUSH1 0x4 ADD PUSH2 0xE97 SWAP1 PUSH2 0x4D6A JUMP JUMPDEST PUSH1 0x40 DUP1 MLOAD DUP1 DUP3 ADD SWAP1 SWAP2 MSTORE PUSH1 0x9 DUP2 MSTORE PUSH9 0xEAE0C8C2E8CAA8C2F PUSH1 0xBB SHL PUSH1 0x20 DUP3 ADD MSTORE PUSH1 0x6 SLOAD PUSH1 0x1 PUSH1 0xA0 SHL SWAP1 DIV PUSH1 0xFF AND ISZERO DUP1 PUSH2 0x1A73 JUMPI POP PUSH1 0x7 DUP2 PUSH1 0x40 MLOAD PUSH2 0x19FE SWAP2 SWAP1 PUSH2 0x4C85 JUMP JUMPDEST SWAP1 DUP2 MSTORE PUSH1 0x20 ADD PUSH1 0x40 MLOAD DUP1 SWAP2 SUB SWAP1 KECCAK256 SLOAD PUSH1 0x0 EQ ISZERO DUP1 ISZERO PUSH2 0x1A3B JUMPI POP TIMESTAMP PUSH1 0x7 DUP3 PUSH1 0x40 MLOAD PUSH2 0x1A29 SWAP2 SWAP1 PUSH2 0x4C85 JUMP JUMPDEST SWAP1 DUP2 MSTORE PUSH1 0x20 ADD PUSH1 0x40 MLOAD DUP1 SWAP2 SUB SWAP1 KECCAK256 SLOAD GT ISZERO JUMPDEST DUP1 ISZERO PUSH2 0x1A73 JUMPI POP TIMESTAMP PUSH3 0x15180 PUSH1 0x7 DUP4 PUSH1 0x40 MLOAD PUSH2 0x1A57 SWAP2 SWAP1 PUSH2 0x4C85 JUMP JUMPDEST SWAP1 DUP2 MSTORE PUSH1 0x20 ADD PUSH1 0x40 MLOAD DUP1 SWAP2 SUB SWAP1 KECCAK256 SLOAD PUSH2 0x1A70 SWAP2 SWAP1 PUSH2 0x4E21 JUMP JUMPDEST LT ISZERO JUMPDEST PUSH2 0x1A8F JUMPI PUSH1 0x40 MLOAD PUSH3 0x461BCD PUSH1 0xE5 SHL DUP2 MSTORE PUSH1 0x4 ADD PUSH2 0xE97 SWAP1 PUSH2 0x4D3E JUMP JUMPDEST PUSH1 0x64 DUP3 PUSH2 0x1A9C DUP6 DUP8 PUSH2 0x4DFB JUMP JUMPDEST PUSH2 0x1AA6 SWAP2 SWAP1 PUSH2 0x4DFB JUMP JUMPDEST PUSH2 0xFFFF AND GT ISZERO PUSH2 0x1B0F JUMPI PUSH1 0x40 MLOAD PUSH3 0x461BCD PUSH1 0xE5 SHL DUP2 MSTORE PUSH1 0x20 PUSH1 0x4 DUP3 ADD MSTORE PUSH1 0x2E PUSH1 0x24 DUP3 ADD MSTORE PUSH32 0x41424F41543A3A7570646174655461783A205461782063616E74206578636565 PUSH1 0x44 DUP3 ADD MSTORE PUSH14 0x64203130302070657263656E7421 PUSH1 0x90 SHL PUSH1 0x64 DUP3 ADD MSTORE PUSH1 0x84 ADD PUSH2 0xE97 JUMP JUMPDEST PUSH1 0x8 DUP1 SLOAD PUSH4 0xFFFFFFFF PUSH1 0xC0 SHL NOT AND PUSH1 0x1 PUSH1 0xC0 SHL PUSH2 0xFFFF DUP8 DUP2 AND DUP3 MUL PUSH2 0xFFFF PUSH1 0xD0 SHL NOT AND SWAP3 SWAP1 SWAP3 OR PUSH1 0x1 PUSH1 0xD0 SHL DUP8 DUP5 AND DUP2 MUL SWAP2 SWAP1 SWAP2 OR PUSH2 0xFFFF PUSH1 0xE0 SHL NOT AND PUSH1 0x1 PUSH1 0xE0 SHL DUP8 DUP6 AND DUP2 MUL SWAP2 SWAP1 SWAP2 OR SWAP5 DUP6 SWAP1 SSTORE PUSH1 0x40 DUP1 MLOAD SWAP4 DUP7 DIV DUP6 AND DUP5 MSTORE SWAP2 DUP6 DIV DUP5 AND PUSH1 0x20 DUP5 ADD MSTORE SWAP1 SWAP4 DIV SWAP1 SWAP2 AND SWAP2 DUP2 ADD SWAP2 SWAP1 SWAP2 MSTORE PUSH32 0x49B216608947F85B55485549BCBEB9B3885D85690A8ECCE31F0B27E390AF5C7A SWAP1 PUSH1 0x60 ADD PUSH1 0x40 MLOAD DUP1 SWAP2 SUB SWAP1 LOG1 PUSH2 0x1BB6 DUP2 PUSH2 0x2598 JUMP JUMPDEST POP POP POP POP JUMP JUMPDEST CALLER PUSH2 0x1BCF PUSH1 0x6 SLOAD PUSH1 0x1 PUSH1 0x1 PUSH1 0xA0 SHL SUB AND SWAP1 JUMP JUMPDEST PUSH1 0x1 PUSH1 0x1 PUSH1 0xA0 SHL SUB AND EQ DUP1 PUSH2 0x1BEE JUMPI POP PUSH1 0x8 SLOAD PUSH1 0x1 PUSH1 0x1 PUSH1 0xA0 SHL SUB AND CALLER EQ JUMPDEST PUSH2 0x1C0A JUMPI PUSH1 0x40 MLOAD PUSH3 0x461BCD PUSH1 0xE5 SHL DUP2 MSTORE PUSH1 0x4 ADD PUSH2 0xE97 SWAP1 PUSH2 0x4D6A JUMP JUMPDEST PUSH1 0x1 PUSH1 0x1 PUSH1 0xA0 SHL SUB AND PUSH1 0x0 SWAP1 DUP2 MSTORE PUSH1 0xE PUSH1 0x20 MSTORE PUSH1 0x40 SWAP1 KECCAK256 DUP1 SLOAD PUSH1 0xFF NOT AND PUSH1 0x1 OR SWAP1 SSTORE JUMP JUMPDEST CALLER PUSH2 0x1C41 PUSH1 0x6 SLOAD PUSH1 0x1 PUSH1 0x1 PUSH1 0xA0 SHL SUB AND SWAP1 JUMP JUMPDEST PUSH1 0x1 PUSH1 0x1 PUSH1 0xA0 SHL SUB AND EQ DUP1 PUSH2 0x1C60 JUMPI POP PUSH1 0x8 SLOAD PUSH1 0x1 PUSH1 0x1 PUSH1 0xA0 SHL SUB AND CALLER EQ JUMPDEST PUSH2 0x1C7C JUMPI PUSH1 0x40 MLOAD PUSH3 0x461BCD PUSH1 0xE5 SHL DUP2 MSTORE PUSH1 0x4 ADD PUSH2 0xE97 SWAP1 PUSH2 0x4D6A JUMP JUMPDEST PUSH1 0x40 DUP1 MLOAD DUP1 DUP3 ADD SWAP1 SWAP2 MSTORE PUSH1 0x7 DUP2 MSTORE PUSH7 0xDAD2DCBEE8C2F PUSH1 0xCB SHL PUSH1 0x20 DUP3 ADD MSTORE PUSH1 0x6 SLOAD PUSH1 0x1 PUSH1 0xA0 SHL SWAP1 DIV PUSH1 0xFF AND ISZERO DUP1 PUSH2 0x1D33 JUMPI POP PUSH1 0x7 DUP2 PUSH1 0x40 MLOAD PUSH2 0x1CBE SWAP2 SWAP1 PUSH2 0x4C85 JUMP JUMPDEST SWAP1 DUP2 MSTORE PUSH1 0x20 ADD PUSH1 0x40 MLOAD DUP1 SWAP2 SUB SWAP1 KECCAK256 SLOAD PUSH1 0x0 EQ ISZERO DUP1 ISZERO PUSH2 0x1CFB JUMPI POP TIMESTAMP PUSH1 0x7 DUP3 PUSH1 0x40 MLOAD PUSH2 0x1CE9 SWAP2 SWAP1 PUSH2 0x4C85 JUMP JUMPDEST SWAP1 DUP2 MSTORE PUSH1 0x20 ADD PUSH1 0x40 MLOAD DUP1 SWAP2 SUB SWAP1 KECCAK256 SLOAD GT ISZERO JUMPDEST DUP1 ISZERO PUSH2 0x1D33 JUMPI POP TIMESTAMP PUSH3 0x15180 PUSH1 0x7 DUP4 PUSH1 0x40 MLOAD PUSH2 0x1D17 SWAP2 SWAP1 PUSH2 0x4C85 JUMP JUMPDEST SWAP1 DUP2 MSTORE PUSH1 0x20 ADD PUSH1 0x40 MLOAD DUP1 SWAP2 SUB SWAP1 KECCAK256 SLOAD PUSH2 0x1D30 SWAP2 SWAP1 PUSH2 0x4E21 JUMP JUMPDEST LT ISZERO JUMPDEST PUSH2 0x1D4F JUMPI PUSH1 0x40 MLOAD PUSH3 0x461BCD PUSH1 0xE5 SHL DUP2 MSTORE PUSH1 0x4 ADD PUSH2 0xE97 SWAP1 PUSH2 0x4D3E JUMP JUMPDEST PUSH1 0x8 SLOAD PUSH2 0xFFFF PUSH1 0x1 PUSH1 0xB0 SHL SWAP1 SWAP2 DIV DUP2 AND SWAP1 DUP4 AND GT ISZERO PUSH2 0x1E08 JUMPI PUSH1 0x40 MLOAD PUSH3 0x461BCD PUSH1 0xE5 SHL DUP2 MSTORE PUSH1 0x20 PUSH1 0x4 DUP3 ADD MSTORE PUSH1 0x63 PUSH1 0x24 DUP3 ADD MSTORE PUSH32 0x41424F41543A3A7570646174654D696E696D756D5472616E7366657254617852 PUSH1 0x44 DUP3 ADD MSTORE PUSH32 0x6174653A206D696E696D756D5472616E7366657254617852617465206D757374 PUSH1 0x64 DUP3 ADD MSTORE PUSH32 0x206E6F7420657863656564206D6178696D756D5472616E736665725461785261 PUSH1 0x84 DUP3 ADD MSTORE PUSH3 0x3A3297 PUSH1 0xE9 SHL PUSH1 0xA4 DUP3 ADD MSTORE PUSH1 0xC4 ADD PUSH2 0xE97 JUMP JUMPDEST PUSH1 0x8 SLOAD PUSH1 0x40 DUP1 MLOAD PUSH1 0x1 PUSH1 0xA0 SHL SWAP1 SWAP3 DIV PUSH2 0xFFFF SWAP1 DUP2 AND DUP4 MSTORE DUP5 AND PUSH1 0x20 DUP4 ADD MSTORE CALLER SWAP2 PUSH32 0xB2F2E219F74B4A7E339376870AE1B18D655E3CF85F60DC47F56E7CD7BAD470C5 SWAP2 ADD PUSH1 0x40 MLOAD DUP1 SWAP2 SUB SWAP1 LOG2 PUSH1 0x8 DUP1 SLOAD PUSH2 0xFFFF PUSH1 0xA0 SHL NOT AND PUSH1 0x1 PUSH1 0xA0 SHL PUSH2 0xFFFF DUP6 AND MUL OR SWAP1 SSTORE PUSH2 0x107F DUP2 PUSH2 0x2598 JUMP JUMPDEST CALLER PUSH2 0x1E89 PUSH1 0x6 SLOAD PUSH1 0x1 PUSH1 0x1 PUSH1 0xA0 SHL SUB AND SWAP1 JUMP JUMPDEST PUSH1 0x1 PUSH1 0x1 PUSH1 0xA0 SHL SUB AND EQ DUP1 PUSH2 0x1EA8 JUMPI POP PUSH1 0x8 SLOAD PUSH1 0x1 PUSH1 0x1 PUSH1 0xA0 SHL SUB AND CALLER EQ JUMPDEST PUSH2 0x1EC4 JUMPI PUSH1 0x40 MLOAD PUSH3 0x461BCD PUSH1 0xE5 SHL DUP2 MSTORE PUSH1 0x4 ADD PUSH2 0xE97 SWAP1 PUSH2 0x4D6A JUMP JUMPDEST PUSH1 0x11 DUP1 SLOAD PUSH1 0xFF NOT AND DUP3 ISZERO ISZERO SWAP1 DUP2 OR SWAP1 SWAP2 SSTORE PUSH1 0x40 MLOAD SWAP1 DUP2 MSTORE PUSH32 0xC8CE3B7C2007859E758A4D89D913F4DEC50FA1B1D65E7FCBB2B51629748F1730 SWAP1 PUSH1 0x20 ADD PUSH1 0x40 MLOAD DUP1 SWAP2 SUB SWAP1 LOG1 POP JUMP JUMPDEST CALLER PUSH2 0x1F1E PUSH1 0x6 SLOAD PUSH1 0x1 PUSH1 0x1 PUSH1 0xA0 SHL SUB AND SWAP1 JUMP JUMPDEST PUSH1 0x1 PUSH1 0x1 PUSH1 0xA0 SHL SUB AND EQ DUP1 PUSH2 0x1F3D JUMPI POP PUSH1 0x8 SLOAD PUSH1 0x1 PUSH1 0x1 PUSH1 0xA0 SHL SUB AND CALLER EQ JUMPDEST PUSH2 0x1F59 JUMPI PUSH1 0x40 MLOAD PUSH3 0x461BCD PUSH1 0xE5 SHL DUP2 MSTORE PUSH1 0x4 ADD PUSH2 0xE97 SWAP1 PUSH2 0x4D6A JUMP JUMPDEST PUSH1 0x9 SSTORE JUMP JUMPDEST PUSH1 0x60 PUSH1 0x4 DUP1 SLOAD PUSH2 0xDB0 SWAP1 PUSH2 0x4EBD JUMP JUMPDEST CALLER PUSH2 0x1F80 PUSH1 0x6 SLOAD PUSH1 0x1 PUSH1 0x1 PUSH1 0xA0 SHL SUB AND SWAP1 JUMP JUMPDEST PUSH1 0x1 PUSH1 0x1 PUSH1 0xA0 SHL SUB AND EQ DUP1 PUSH2 0x1F9F JUMPI POP PUSH1 0x8 SLOAD PUSH1 0x1 PUSH1 0x1 PUSH1 0xA0 SHL SUB AND CALLER EQ JUMPDEST PUSH2 0x1FBB JUMPI PUSH1 0x40 MLOAD PUSH3 0x461BCD PUSH1 0xE5 SHL DUP2 MSTORE PUSH1 0x4 ADD PUSH2 0xE97 SWAP1 PUSH2 0x4D6A JUMP JUMPDEST PUSH1 0x1 PUSH1 0x1 PUSH1 0xA0 SHL SUB AND PUSH1 0x0 SWAP1 DUP2 MSTORE PUSH1 0xF PUSH1 0x20 MSTORE PUSH1 0x40 SWAP1 KECCAK256 DUP1 SLOAD PUSH1 0xFF NOT AND PUSH1 0x1 OR SWAP1 SSTORE JUMP JUMPDEST CALLER PUSH2 0x1FF2 PUSH1 0x6 SLOAD PUSH1 0x1 PUSH1 0x1 PUSH1 0xA0 SHL SUB AND SWAP1 JUMP JUMPDEST PUSH1 0x1 PUSH1 0x1 PUSH1 0xA0 SHL SUB AND EQ DUP1 PUSH2 0x2011 JUMPI POP PUSH1 0x8 SLOAD PUSH1 0x1 PUSH1 0x1 PUSH1 0xA0 SHL SUB AND CALLER EQ JUMPDEST PUSH2 0x202D JUMPI PUSH1 0x40 MLOAD PUSH3 0x461BCD PUSH1 0xE5 SHL DUP2 MSTORE PUSH1 0x4 ADD PUSH2 0xE97 SWAP1 PUSH2 0x4D6A JUMP JUMPDEST PUSH1 0x1 PUSH1 0x1 PUSH1 0xA0 SHL SUB DUP2 AND PUSH1 0x0 DUP2 DUP2 MSTORE PUSH1 0x12 PUSH1 0x20 MSTORE PUSH1 0x40 DUP1 DUP3 KECCAK256 DUP1 SLOAD PUSH1 0xFF NOT AND SWAP1 SSTORE MLOAD PUSH32 0xAAB7954E9D246B167EF88AEDDAD35209CA2489D95A8AEB59E288D9B19FAE5A54 SWAP2 SWAP1 LOG2 POP JUMP JUMPDEST PUSH1 0x1 PUSH1 0x1 PUSH1 0xA0 SHL SUB DUP2 DUP2 AND PUSH1 0x0 SWAP1 DUP2 MSTORE PUSH1 0x20 DUP2 SWAP1 MSTORE PUSH1 0x40 DUP2 KECCAK256 SLOAD PUSH1 0x11 SLOAD SWAP2 SWAP3 SWAP1 SWAP2 PUSH1 0x1 PUSH1 0x28 SHL SWAP1 DIV AND ISZERO PUSH2 0x213F JUMPI PUSH1 0x11 SLOAD PUSH1 0x40 MLOAD PUSH4 0x94D45B59 PUSH1 0xE0 SHL DUP2 MSTORE PUSH1 0x1 PUSH1 0x1 PUSH1 0xA0 SHL SUB DUP6 DUP2 AND PUSH1 0x4 DUP4 ADD MSTORE PUSH1 0x0 PUSH1 0x24 DUP4 ADD MSTORE PUSH2 0x2138 SWAP3 PUSH1 0x1 PUSH1 0x28 SHL SWAP1 DIV AND SWAP1 PUSH4 0x94D45B59 SWAP1 PUSH1 0x44 ADD PUSH1 0x20 PUSH1 0x40 MLOAD DUP1 DUP4 SUB DUP2 DUP7 DUP1 EXTCODESIZE ISZERO DUP1 ISZERO PUSH2 0x20F9 JUMPI PUSH1 0x0 DUP1 REVERT JUMPDEST POP GAS STATICCALL ISZERO DUP1 ISZERO PUSH2 0x210D JUMPI RETURNDATASIZE PUSH1 0x0 DUP1 RETURNDATACOPY RETURNDATASIZE PUSH1 0x0 REVERT JUMPDEST POP POP POP POP PUSH1 0x40 MLOAD RETURNDATASIZE PUSH1 0x1F NOT PUSH1 0x1F DUP3 ADD AND DUP3 ADD DUP1 PUSH1 0x40 MSTORE POP DUP2 ADD SWAP1 PUSH2 0x2131 SWAP2 SWAP1 PUSH2 0x4BFA JUMP JUMPDEST DUP3 SWAP1 PUSH2 0x4131 JUMP JUMPDEST SWAP4 SWAP3 POP POP POP JUMP JUMPDEST SWAP3 SWAP2 POP POP JUMP JUMPDEST CALLER PUSH2 0x2158 PUSH1 0x6 SLOAD PUSH1 0x1 PUSH1 0x1 PUSH1 0xA0 SHL SUB AND SWAP1 JUMP JUMPDEST PUSH1 0x1 PUSH1 0x1 PUSH1 0xA0 SHL SUB AND EQ DUP1 PUSH2 0x2177 JUMPI POP PUSH1 0x8 SLOAD PUSH1 0x1 PUSH1 0x1 PUSH1 0xA0 SHL SUB AND CALLER EQ JUMPDEST PUSH2 0x2193 JUMPI PUSH1 0x40 MLOAD PUSH3 0x461BCD PUSH1 0xE5 SHL DUP2 MSTORE PUSH1 0x4 ADD PUSH2 0xE97 SWAP1 PUSH2 0x4D6A JUMP JUMPDEST PUSH1 0x40 DUP1 MLOAD DUP1 DUP3 ADD SWAP1 SWAP2 MSTORE PUSH1 0x7 DUP2 MSTORE PUSH7 0x36382FB830B4B9 PUSH1 0xC9 SHL PUSH1 0x20 DUP3 ADD MSTORE PUSH1 0x6 SLOAD PUSH1 0x1 PUSH1 0xA0 SHL SWAP1 DIV PUSH1 0xFF AND ISZERO DUP1 PUSH2 0x224A JUMPI POP PUSH1 0x7 DUP2 PUSH1 0x40 MLOAD PUSH2 0x21D5 SWAP2 SWAP1 PUSH2 0x4C85 JUMP JUMPDEST SWAP1 DUP2 MSTORE PUSH1 0x20 ADD PUSH1 0x40 MLOAD DUP1 SWAP2 SUB SWAP1 KECCAK256 SLOAD PUSH1 0x0 EQ ISZERO DUP1 ISZERO PUSH2 0x2212 JUMPI POP TIMESTAMP PUSH1 0x7 DUP3 PUSH1 0x40 MLOAD PUSH2 0x2200 SWAP2 SWAP1 PUSH2 0x4C85 JUMP JUMPDEST SWAP1 DUP2 MSTORE PUSH1 0x20 ADD PUSH1 0x40 MLOAD DUP1 SWAP2 SUB SWAP1 KECCAK256 SLOAD GT ISZERO JUMPDEST DUP1 ISZERO PUSH2 0x224A JUMPI POP TIMESTAMP PUSH3 0x15180 PUSH1 0x7 DUP4 PUSH1 0x40 MLOAD PUSH2 0x222E SWAP2 SWAP1 PUSH2 0x4C85 JUMP JUMPDEST SWAP1 DUP2 MSTORE PUSH1 0x20 ADD PUSH1 0x40 MLOAD DUP1 SWAP2 SUB SWAP1 KECCAK256 SLOAD PUSH2 0x2247 SWAP2 SWAP1 PUSH2 0x4E21 JUMP JUMPDEST LT ISZERO JUMPDEST PUSH2 0x2266 JUMPI PUSH1 0x40 MLOAD PUSH3 0x461BCD PUSH1 0xE5 SHL DUP2 MSTORE PUSH1 0x4 ADD PUSH2 0xE97 SWAP1 PUSH2 0x4D3E JUMP JUMPDEST PUSH1 0x1 PUSH1 0x1 PUSH1 0xA0 SHL SUB DUP3 AND PUSH2 0x22F0 JUMPI PUSH1 0x40 MLOAD PUSH3 0x461BCD PUSH1 0xE5 SHL DUP2 MSTORE PUSH1 0x20 PUSH1 0x4 DUP3 ADD MSTORE PUSH1 0x44 PUSH1 0x24 DUP3 ADD DUP2 SWAP1 MSTORE PUSH32 0x4C6971756966793A3A7365744C6971756964697479506169723A204C69717569 SWAP1 DUP3 ADD MSTORE PUSH32 0x6469747920706169722063616E277420636F6E7461696E207A65726F20616464 PUSH1 0x64 DUP3 ADD MSTORE PUSH4 0x72657373 PUSH1 0xE0 SHL PUSH1 0x84 DUP3 ADD MSTORE PUSH1 0xA4 ADD PUSH2 0xE97 JUMP JUMPDEST PUSH1 0xD PUSH1 0x0 SWAP1 SLOAD SWAP1 PUSH2 0x100 EXP SWAP1 DIV PUSH1 0x1 PUSH1 0x1 PUSH1 0xA0 SHL SUB AND PUSH1 0x1 PUSH1 0x1 PUSH1 0xA0 SHL SUB AND PUSH4 0xC45A0155 PUSH1 0x40 MLOAD DUP2 PUSH4 0xFFFFFFFF AND PUSH1 0xE0 SHL DUP2 MSTORE PUSH1 0x4 ADD PUSH1 0x20 PUSH1 0x40 MLOAD DUP1 DUP4 SUB DUP2 DUP7 DUP1 EXTCODESIZE ISZERO DUP1 ISZERO PUSH2 0x233E JUMPI PUSH1 0x0 DUP1 REVERT JUMPDEST POP GAS STATICCALL ISZERO DUP1 ISZERO PUSH2 0x2352 JUMPI RETURNDATASIZE PUSH1 0x0 DUP1 RETURNDATACOPY RETURNDATASIZE PUSH1 0x0 REVERT JUMPDEST POP POP POP POP PUSH1 0x40 MLOAD RETURNDATASIZE PUSH1 0x1F NOT PUSH1 0x1F DUP3 ADD AND DUP3 ADD DUP1 PUSH1 0x40 MSTORE POP DUP2 ADD SWAP1 PUSH2 0x2376 SWAP2 SWAP1 PUSH2 0x49D5 JUMP JUMPDEST PUSH1 0x40 MLOAD PUSH4 0xE6A43905 PUSH1 0xE0 SHL DUP2 MSTORE ADDRESS PUSH1 0x4 DUP3 ADD MSTORE PUSH1 0x1 PUSH1 0x1 PUSH1 0xA0 SHL SUB DUP5 DUP2 AND PUSH1 0x24 DUP4 ADD MSTORE SWAP2 SWAP1 SWAP2 AND SWAP1 PUSH4 0xE6A43905 SWAP1 PUSH1 0x44 ADD PUSH1 0x20 PUSH1 0x40 MLOAD DUP1 DUP4 SUB DUP2 DUP7 DUP1 EXTCODESIZE ISZERO DUP1 ISZERO PUSH2 0x23BF JUMPI PUSH1 0x0 DUP1 REVERT JUMPDEST POP GAS STATICCALL ISZERO DUP1 ISZERO PUSH2 0x23D3 JUMPI RETURNDATASIZE PUSH1 0x0 DUP1 RETURNDATACOPY RETURNDATASIZE PUSH1 0x0 REVERT JUMPDEST POP POP POP POP PUSH1 0x40 MLOAD RETURNDATASIZE PUSH1 0x1F NOT PUSH1 0x1F DUP3 ADD AND DUP3 ADD DUP1 PUSH1 0x40 MSTORE POP DUP2 ADD SWAP1 PUSH2 0x23F7 SWAP2 SWAP1 PUSH2 0x49D5 JUMP JUMPDEST PUSH1 0xC DUP1 SLOAD PUSH1 0x1 PUSH1 0x1 PUSH1 0xA0 SHL SUB NOT AND PUSH1 0x1 PUSH1 0x1 PUSH1 0xA0 SHL SUB SWAP3 SWAP1 SWAP3 AND SWAP2 DUP3 OR SWAP1 SSTORE PUSH2 0x2544 JUMPI PUSH1 0xD PUSH1 0x0 SWAP1 SLOAD SWAP1 PUSH2 0x100 EXP SWAP1 DIV PUSH1 0x1 PUSH1 0x1 PUSH1 0xA0 SHL SUB AND PUSH1 0x1 PUSH1 0x1 PUSH1 0xA0 SHL SUB AND PUSH4 0xC45A0155 PUSH1 0x40 MLOAD DUP2 PUSH4 0xFFFFFFFF AND PUSH1 0xE0 SHL DUP2 MSTORE PUSH1 0x4 ADD PUSH1 0x20 PUSH1 0x40 MLOAD DUP1 DUP4 SUB DUP2 DUP7 DUP1 EXTCODESIZE ISZERO DUP1 ISZERO PUSH2 0x2468 JUMPI PUSH1 0x0 DUP1 REVERT JUMPDEST POP GAS STATICCALL ISZERO DUP1 ISZERO PUSH2 0x247C JUMPI RETURNDATASIZE PUSH1 0x0 DUP1 RETURNDATACOPY RETURNDATASIZE PUSH1 0x0 REVERT JUMPDEST POP POP POP POP PUSH1 0x40 MLOAD RETURNDATASIZE PUSH1 0x1F NOT PUSH1 0x1F DUP3 ADD AND DUP3 ADD DUP1 PUSH1 0x40 MSTORE POP DUP2 ADD SWAP1 PUSH2 0x24A0 SWAP2 SWAP1 PUSH2 0x49D5 JUMP JUMPDEST PUSH1 0x40 MLOAD PUSH4 0x64E329CB PUSH1 0xE1 SHL DUP2 MSTORE ADDRESS PUSH1 0x4 DUP3 ADD MSTORE PUSH1 0x1 PUSH1 0x1 PUSH1 0xA0 SHL SUB DUP5 DUP2 AND PUSH1 0x24 DUP4 ADD MSTORE SWAP2 SWAP1 SWAP2 AND SWAP1 PUSH4 0xC9C65396 SWAP1 PUSH1 0x44 ADD PUSH1 0x20 PUSH1 0x40 MLOAD DUP1 DUP4 SUB DUP2 PUSH1 0x0 DUP8 DUP1 EXTCODESIZE ISZERO DUP1 ISZERO PUSH2 0x24EB JUMPI PUSH1 0x0 DUP1 REVERT JUMPDEST POP GAS CALL ISZERO DUP1 ISZERO PUSH2 0x24FF JUMPI RETURNDATASIZE PUSH1 0x0 DUP1 RETURNDATACOPY RETURNDATASIZE PUSH1 0x0 REVERT JUMPDEST POP POP POP POP PUSH1 0x40 MLOAD RETURNDATASIZE PUSH1 0x1F NOT PUSH1 0x1F DUP3 ADD AND DUP3 ADD DUP1 PUSH1 0x40 MSTORE POP DUP2 ADD SWAP1 PUSH2 0x2523 SWAP2 SWAP1 PUSH2 0x49D5 JUMP JUMPDEST PUSH1 0xC DUP1 SLOAD PUSH1 0x1 PUSH1 0x1 PUSH1 0xA0 SHL SUB NOT AND PUSH1 0x1 PUSH1 0x1 PUSH1 0xA0 SHL SUB SWAP3 SWAP1 SWAP3 AND SWAP2 SWAP1 SWAP2 OR SWAP1 SSTORE JUMPDEST PUSH1 0xC SLOAD PUSH2 0x2559 SWAP1 PUSH1 0x1 PUSH1 0x1 PUSH1 0xA0 SHL SUB AND PUSH2 0x1BBC JUMP JUMPDEST PUSH1 0xC SLOAD PUSH1 0x40 MLOAD PUSH1 0x1 PUSH1 0x1 PUSH1 0xA0 SHL SUB SWAP1 SWAP2 AND SWAP1 CALLER SWAP1 PUSH32 0x6C587433DEA122B342B093ACB4DDE076CA1A441413E43A5A14DDE8A8842C9447 SWAP1 PUSH1 0x0 SWAP1 LOG3 PUSH2 0x107F DUP2 JUMPDEST CALLER PUSH2 0x25AB PUSH1 0x6 SLOAD PUSH1 0x1 PUSH1 0x1 PUSH1 0xA0 SHL SUB AND SWAP1 JUMP JUMPDEST PUSH1 0x1 PUSH1 0x1 PUSH1 0xA0 SHL SUB AND EQ DUP1 PUSH2 0x25CA JUMPI POP PUSH1 0x8 SLOAD PUSH1 0x1 PUSH1 0x1 PUSH1 0xA0 SHL SUB AND CALLER EQ JUMPDEST PUSH2 0x25E6 JUMPI PUSH1 0x40 MLOAD PUSH3 0x461BCD PUSH1 0xE5 SHL DUP2 MSTORE PUSH1 0x4 ADD PUSH2 0xE97 SWAP1 PUSH2 0x4D6A JUMP JUMPDEST PUSH1 0x0 PUSH1 0x7 DUP3 PUSH1 0x40 MLOAD PUSH2 0x25F8 SWAP2 SWAP1 PUSH2 0x4C85 JUMP JUMPDEST SWAP1 DUP2 MSTORE PUSH1 0x40 MLOAD SWAP1 DUP2 SWAP1 SUB PUSH1 0x20 ADD SWAP1 KECCAK256 SSTORE POP JUMP JUMPDEST CALLER PUSH2 0x261E PUSH1 0x6 SLOAD PUSH1 0x1 PUSH1 0x1 PUSH1 0xA0 SHL SUB AND SWAP1 JUMP JUMPDEST PUSH1 0x1 PUSH1 0x1 PUSH1 0xA0 SHL SUB AND EQ DUP1 PUSH2 0x263D JUMPI POP PUSH1 0x8 SLOAD PUSH1 0x1 PUSH1 0x1 PUSH1 0xA0 SHL SUB AND CALLER EQ JUMPDEST PUSH2 0x2659 JUMPI PUSH1 0x40 MLOAD PUSH3 0x461BCD PUSH1 0xE5 SHL DUP2 MSTORE PUSH1 0x4 ADD PUSH2 0xE97 SWAP1 PUSH2 0x4D6A JUMP JUMPDEST PUSH1 0x1 PUSH1 0x1 PUSH1 0xA0 SHL SUB AND PUSH1 0x0 SWAP1 DUP2 MSTORE PUSH1 0xE PUSH1 0x20 SWAP1 DUP2 MSTORE PUSH1 0x40 DUP1 DUP4 KECCAK256 DUP1 SLOAD PUSH1 0xFF NOT SWAP1 DUP2 AND SWAP1 SWAP2 SSTORE PUSH1 0xF SWAP1 SWAP3 MSTORE SWAP1 SWAP2 KECCAK256 DUP1 SLOAD SWAP1 SWAP2 AND SWAP1 SSTORE JUMP JUMPDEST CALLER PUSH1 0x0 SWAP1 DUP2 MSTORE PUSH1 0x1 PUSH1 0x20 SWAP1 DUP2 MSTORE PUSH1 0x40 DUP1 DUP4 KECCAK256 PUSH1 0x1 PUSH1 0x1 PUSH1 0xA0 SHL SUB DUP7 AND DUP5 MSTORE SWAP1 SWAP2 MSTORE DUP2 KECCAK256 SLOAD DUP3 DUP2 LT ISZERO PUSH2 0x2711 JUMPI PUSH1 0x40 MLOAD PUSH3 0x461BCD PUSH1 0xE5 SHL DUP2 MSTORE PUSH1 0x20 PUSH1 0x4 DUP3 ADD MSTORE PUSH1 0x25 PUSH1 0x24 DUP3 ADD MSTORE PUSH32 0x45524332303A2064656372656173656420616C6C6F77616E63652062656C6F77 PUSH1 0x44 DUP3 ADD MSTORE PUSH5 0x207A65726F PUSH1 0xD8 SHL PUSH1 0x64 DUP3 ADD MSTORE PUSH1 0x84 ADD PUSH2 0xE97 JUMP JUMPDEST PUSH2 0x271E CALLER DUP6 DUP6 DUP5 SUB PUSH2 0x34E6 JUMP JUMPDEST POP PUSH1 0x1 SWAP4 SWAP3 POP POP POP JUMP JUMPDEST CALLER PUSH2 0x273B PUSH1 0x6 SLOAD PUSH1 0x1 PUSH1 0x1 PUSH1 0xA0 SHL SUB AND SWAP1 JUMP JUMPDEST PUSH1 0x1 PUSH1 0x1 PUSH1 0xA0 SHL SUB AND EQ DUP1 PUSH2 0x275A JUMPI POP PUSH1 0x8 SLOAD PUSH1 0x1 PUSH1 0x1 PUSH1 0xA0 SHL SUB AND CALLER EQ JUMPDEST PUSH2 0x2776 JUMPI PUSH1 0x40 MLOAD PUSH3 0x461BCD PUSH1 0xE5 SHL DUP2 MSTORE PUSH1 0x4 ADD PUSH2 0xE97 SWAP1 PUSH2 0x4D6A JUMP JUMPDEST PUSH2 0x2783 PUSH3 0x15180 TIMESTAMP PUSH2 0x4E21 JUMP JUMPDEST PUSH1 0x7 DUP3 PUSH1 0x40 MLOAD PUSH2 0x2793 SWAP2 SWAP1 PUSH2 0x4C85 JUMP JUMPDEST SWAP1 DUP2 MSTORE PUSH1 0x20 ADD PUSH1 0x40 MLOAD DUP1 SWAP2 SUB SWAP1 KECCAK256 DUP2 SWAP1 SSTORE POP PUSH1 0x7 DUP2 PUSH1 0x40 MLOAD PUSH2 0x27B5 SWAP2 SWAP1 PUSH2 0x4C85 JUMP JUMPDEST SWAP1 DUP2 MSTORE PUSH1 0x20 ADD PUSH1 0x40 MLOAD DUP1 SWAP2 SUB SWAP1 KECCAK256 SLOAD DUP2 PUSH1 0x40 MLOAD PUSH2 0x27D2 SWAP2 SWAP1 PUSH2 0x4C85 JUMP JUMPDEST PUSH1 0x40 MLOAD SWAP1 DUP2 SWAP1 SUB DUP2 KECCAK256 SWAP1 PUSH32 0xF77F9A799FE8B0BE1463ABD7459A18FC55DFD8A6A24DDD29B54FD098088089C8 SWAP1 PUSH1 0x0 SWAP1 LOG3 POP JUMP JUMPDEST PUSH1 0x0 PUSH2 0xE40 CALLER DUP5 DUP5 PUSH2 0x36E9 JUMP JUMPDEST CALLER PUSH2 0x2825 PUSH1 0x6 SLOAD PUSH1 0x1 PUSH1 0x1 PUSH1 0xA0 SHL SUB AND SWAP1 JUMP JUMPDEST PUSH1 0x1 PUSH1 0x1 PUSH1 0xA0 SHL SUB AND EQ DUP1 PUSH2 0x2844 JUMPI POP PUSH1 0x8 SLOAD PUSH1 0x1 PUSH1 0x1 PUSH1 0xA0 SHL SUB AND CALLER EQ JUMPDEST PUSH2 0x2860 JUMPI PUSH1 0x40 MLOAD PUSH3 0x461BCD PUSH1 0xE5 SHL DUP2 MSTORE PUSH1 0x4 ADD PUSH2 0xE97 SWAP1 PUSH2 0x4D6A JUMP JUMPDEST PUSH1 0x40 DUP1 MLOAD DUP1 DUP3 ADD SWAP1 SWAP2 MSTORE PUSH1 0x7 DUP2 MSTORE PUSH7 0xDAC2F0BEE8C2F PUSH1 0xCB SHL PUSH1 0x20 DUP3 ADD MSTORE PUSH1 0x6 SLOAD PUSH1 0x1 PUSH1 0xA0 SHL SWAP1 DIV PUSH1 0xFF AND ISZERO DUP1 PUSH2 0x2917 JUMPI POP PUSH1 0x7 DUP2 PUSH1 0x40 MLOAD PUSH2 0x28A2 SWAP2 SWAP1 PUSH2 0x4C85 JUMP JUMPDEST SWAP1 DUP2 MSTORE PUSH1 0x20 ADD PUSH1 0x40 MLOAD DUP1 SWAP2 SUB SWAP1 KECCAK256 SLOAD PUSH1 0x0 EQ ISZERO DUP1 ISZERO PUSH2 0x28DF JUMPI POP TIMESTAMP PUSH1 0x7 DUP3 PUSH1 0x40 MLOAD PUSH2 0x28CD SWAP2 SWAP1 PUSH2 0x4C85 JUMP JUMPDEST SWAP1 DUP2 MSTORE PUSH1 0x20 ADD PUSH1 0x40 MLOAD DUP1 SWAP2 SUB SWAP1 KECCAK256 SLOAD GT ISZERO JUMPDEST DUP1 ISZERO PUSH2 0x2917 JUMPI POP TIMESTAMP PUSH3 0x15180 PUSH1 0x7 DUP4 PUSH1 0x40 MLOAD PUSH2 0x28FB SWAP2 SWAP1 PUSH2 0x4C85 JUMP JUMPDEST SWAP1 DUP2 MSTORE PUSH1 0x20 ADD PUSH1 0x40 MLOAD DUP1 SWAP2 SUB SWAP1 KECCAK256 SLOAD PUSH2 0x2914 SWAP2 SWAP1 PUSH2 0x4E21 JUMP JUMPDEST LT ISZERO JUMPDEST PUSH2 0x2933 JUMPI PUSH1 0x40 MLOAD PUSH3 0x461BCD PUSH1 0xE5 SHL DUP2 MSTORE PUSH1 0x4 ADD PUSH2 0xE97 SWAP1 PUSH2 0x4D3E JUMP JUMPDEST PUSH1 0x8 SLOAD PUSH2 0xFFFF PUSH1 0x1 PUSH1 0xA0 SHL SWAP1 SWAP2 DIV DUP2 AND SWAP1 DUP4 AND LT ISZERO PUSH2 0x29EE JUMPI PUSH1 0x40 MLOAD PUSH3 0x461BCD PUSH1 0xE5 SHL DUP2 MSTORE PUSH1 0x20 PUSH1 0x4 DUP3 ADD MSTORE PUSH1 0x65 PUSH1 0x24 DUP3 ADD MSTORE PUSH32 0x41424F41543A3A7570646174654D6178696D756D5472616E7366657254617852 PUSH1 0x44 DUP3 ADD MSTORE PUSH32 0x6174653A206D6178696D756D5472616E7366657254617852617465206D757374 PUSH1 0x64 DUP3 ADD MSTORE PUSH32 0x206E6F742062652062656C6F77206D696E696D756D5472616E73666572546178 PUSH1 0x84 DUP3 ADD MSTORE PUSH5 0x2930BA3297 PUSH1 0xD9 SHL PUSH1 0xA4 DUP3 ADD MSTORE PUSH1 0xC4 ADD PUSH2 0xE97 JUMP JUMPDEST PUSH2 0x3E8 PUSH2 0xFFFF DUP4 AND GT ISZERO PUSH2 0x2A87 JUMPI PUSH1 0x40 MLOAD PUSH3 0x461BCD PUSH1 0xE5 SHL DUP2 MSTORE PUSH1 0x20 PUSH1 0x4 DUP3 ADD MSTORE PUSH1 0x54 PUSH1 0x24 DUP3 ADD MSTORE PUSH32 0x41424F41543A3A7570646174654D6178696D756D5472616E7366657254617852 PUSH1 0x44 DUP3 ADD MSTORE PUSH32 0x6174653A206D6178696D756D5472616E7366657254617852617465206D757374 PUSH1 0x64 DUP3 ADD MSTORE PUSH20 0x1032BC31B2B2B21026A0AC24A6AAA6AFAA20AC17 PUSH1 0x61 SHL PUSH1 0x84 DUP3 ADD MSTORE PUSH1 0xA4 ADD PUSH2 0xE97 JUMP JUMPDEST PUSH1 0x8 SLOAD PUSH1 0x40 DUP1 MLOAD PUSH1 0x1 PUSH1 0xA0 SHL SWAP1 SWAP3 DIV PUSH2 0xFFFF SWAP1 DUP2 AND DUP4 MSTORE DUP5 AND PUSH1 0x20 DUP4 ADD MSTORE CALLER SWAP2 PUSH32 0xFC18B74E18E9BF8100CA625DE9F64C93E88284A81D82C9EDFC899869F34B506F SWAP2 ADD PUSH1 0x40 MLOAD DUP1 SWAP2 SUB SWAP1 LOG2 PUSH1 0x8 DUP1 SLOAD PUSH2 0xFFFF PUSH1 0xB0 SHL NOT AND PUSH1 0x1 PUSH1 0xB0 SHL PUSH2 0xFFFF DUP6 AND MUL OR SWAP1 SSTORE PUSH2 0x107F DUP2 PUSH2 0x2598 JUMP JUMPDEST PUSH1 0x8 DUP1 SLOAD PUSH1 0x1 PUSH1 0x1 PUSH1 0xF0 SHL SUB AND PUSH1 0x1 PUSH1 0xF0 SHL OR SWAP1 SSTORE ADDRESS PUSH1 0x0 SWAP1 DUP2 MSTORE PUSH1 0x20 DUP2 SWAP1 MSTORE PUSH1 0x40 DUP2 KECCAK256 SLOAD SWAP1 POP PUSH1 0x9 SLOAD DUP2 LT PUSH2 0x2ED4 JUMPI PUSH1 0xC SLOAD PUSH1 0x8 SLOAD PUSH1 0x9 SLOAD PUSH1 0x1 PUSH1 0x1 PUSH1 0xA0 SHL SUB SWAP1 SWAP3 AND SWAP2 PUSH1 0x0 SWAP2 PUSH2 0x2B5F SWAP2 PUSH1 0x64 SWAP2 PUSH2 0x2B59 SWAP2 SWAP1 PUSH1 0x1 PUSH1 0xD0 SHL SWAP1 DIV PUSH2 0xFFFF AND PUSH2 0x413D JUMP JUMPDEST SWAP1 PUSH2 0x4149 JUMP JUMPDEST SWAP1 POP PUSH1 0x0 PUSH2 0x2B7D PUSH1 0x2 PUSH2 0x2B59 DUP5 PUSH1 0x9 SLOAD PUSH2 0x3FF4 SWAP1 SWAP2 SWAP1 PUSH4 0xFFFFFFFF AND JUMP JUMPDEST SWAP1 POP PUSH1 0x0 PUSH2 0x2B96 DUP3 PUSH1 0x9 SLOAD PUSH2 0x3FF4 SWAP1 SWAP2 SWAP1 PUSH4 0xFFFFFFFF AND JUMP JUMPDEST SWAP1 POP PUSH1 0x0 DUP5 PUSH1 0x1 PUSH1 0x1 PUSH1 0xA0 SHL SUB AND PUSH4 0xDFE1681 PUSH1 0x40 MLOAD DUP2 PUSH4 0xFFFFFFFF AND PUSH1 0xE0 SHL DUP2 MSTORE PUSH1 0x4 ADD PUSH1 0x20 PUSH1 0x40 MLOAD DUP1 DUP4 SUB DUP2 DUP7 DUP1 EXTCODESIZE ISZERO DUP1 ISZERO PUSH2 0x2BD3 JUMPI PUSH1 0x0 DUP1 REVERT JUMPDEST POP GAS STATICCALL ISZERO DUP1 ISZERO PUSH2 0x2BE7 JUMPI RETURNDATASIZE PUSH1 0x0 DUP1 RETURNDATACOPY RETURNDATASIZE PUSH1 0x0 REVERT JUMPDEST POP POP POP POP PUSH1 0x40 MLOAD RETURNDATASIZE PUSH1 0x1F NOT PUSH1 0x1F DUP3 ADD AND DUP3 ADD DUP1 PUSH1 0x40 MSTORE POP DUP2 ADD SWAP1 PUSH2 0x2C0B SWAP2 SWAP1 PUSH2 0x49D5 JUMP JUMPDEST SWAP1 POP PUSH1 0x0 DUP6 PUSH1 0x1 PUSH1 0x1 PUSH1 0xA0 SHL SUB AND PUSH4 0xD21220A7 PUSH1 0x40 MLOAD DUP2 PUSH4 0xFFFFFFFF AND PUSH1 0xE0 SHL DUP2 MSTORE PUSH1 0x4 ADD PUSH1 0x20 PUSH1 0x40 MLOAD DUP1 DUP4 SUB DUP2 DUP7 DUP1 EXTCODESIZE ISZERO DUP1 ISZERO PUSH2 0x2C48 JUMPI PUSH1 0x0 DUP1 REVERT JUMPDEST POP GAS STATICCALL ISZERO DUP1 ISZERO PUSH2 0x2C5C JUMPI RETURNDATASIZE PUSH1 0x0 DUP1 RETURNDATACOPY RETURNDATASIZE PUSH1 0x0 REVERT JUMPDEST POP POP POP POP PUSH1 0x40 MLOAD RETURNDATASIZE PUSH1 0x1F NOT PUSH1 0x1F DUP3 ADD AND DUP3 ADD DUP1 PUSH1 0x40 MSTORE POP DUP2 ADD SWAP1 PUSH2 0x2C80 SWAP2 SWAP1 PUSH2 0x49D5 JUMP JUMPDEST SWAP1 POP DUP1 PUSH1 0x1 PUSH1 0x1 PUSH1 0xA0 SHL SUB AND DUP3 PUSH1 0x1 PUSH1 0x1 PUSH1 0xA0 SHL SUB AND EQ ISZERO PUSH2 0x2D0A JUMPI PUSH1 0x40 MLOAD PUSH3 0x461BCD PUSH1 0xE5 SHL DUP2 MSTORE PUSH1 0x20 PUSH1 0x4 DUP3 ADD MSTORE PUSH1 0x3E PUSH1 0x24 DUP3 ADD MSTORE PUSH32 0x496E76616C6964206C6971756469747920706169723A20506169722063616E27 PUSH1 0x44 DUP3 ADD MSTORE PUSH32 0x7420636F6E7461696E207468652073616D6520746F6B656E2074776963650000 PUSH1 0x64 DUP3 ADD MSTORE PUSH1 0x84 ADD PUSH2 0xE97 JUMP JUMPDEST PUSH1 0xD SLOAD PUSH1 0x40 DUP1 MLOAD PUSH4 0x15AB88C9 PUSH1 0xE3 SHL DUP2 MSTORE SWAP1 MLOAD PUSH1 0x0 SWAP3 PUSH1 0x1 PUSH1 0x1 PUSH1 0xA0 SHL SUB AND SWAP2 PUSH4 0xAD5C4648 SWAP2 PUSH1 0x4 DUP1 DUP4 ADD SWAP3 PUSH1 0x20 SWAP3 SWAP2 SWAP1 DUP3 SWAP1 SUB ADD DUP2 DUP7 DUP1 EXTCODESIZE ISZERO DUP1 ISZERO PUSH2 0x2D4F JUMPI PUSH1 0x0 DUP1 REVERT JUMPDEST POP GAS STATICCALL ISZERO DUP1 ISZERO PUSH2 0x2D63 JUMPI RETURNDATASIZE PUSH1 0x0 DUP1 RETURNDATACOPY RETURNDATASIZE PUSH1 0x0 REVERT JUMPDEST POP POP POP POP PUSH1 0x40 MLOAD RETURNDATASIZE PUSH1 0x1F NOT PUSH1 0x1F DUP3 ADD AND DUP3 ADD DUP1 PUSH1 0x40 MSTORE POP DUP2 ADD SWAP1 PUSH2 0x2D87 SWAP2 SWAP1 PUSH2 0x49D5 JUMP JUMPDEST PUSH1 0x1 PUSH1 0x1 PUSH1 0xA0 SHL SUB AND DUP4 PUSH1 0x1 PUSH1 0x1 PUSH1 0xA0 SHL SUB AND EQ DUP1 PUSH2 0x2E3C JUMPI POP PUSH1 0xD PUSH1 0x0 SWAP1 SLOAD SWAP1 PUSH2 0x100 EXP SWAP1 DIV PUSH1 0x1 PUSH1 0x1 PUSH1 0xA0 SHL SUB AND PUSH1 0x1 PUSH1 0x1 PUSH1 0xA0 SHL SUB AND PUSH4 0xAD5C4648 PUSH1 0x40 MLOAD DUP2 PUSH4 0xFFFFFFFF AND PUSH1 0xE0 SHL DUP2 MSTORE PUSH1 0x4 ADD PUSH1 0x20 PUSH1 0x40 MLOAD DUP1 DUP4 SUB DUP2 DUP7 DUP1 EXTCODESIZE ISZERO DUP1 ISZERO PUSH2 0x2DEF JUMPI PUSH1 0x0 DUP1 REVERT JUMPDEST POP GAS STATICCALL ISZERO DUP1 ISZERO PUSH2 0x2E03 JUMPI RETURNDATASIZE PUSH1 0x0 DUP1 RETURNDATACOPY RETURNDATASIZE PUSH1 0x0 REVERT JUMPDEST POP POP POP POP PUSH1 0x40 MLOAD RETURNDATASIZE PUSH1 0x1F NOT PUSH1 0x1F DUP3 ADD AND DUP3 ADD DUP1 PUSH1 0x40 MSTORE POP DUP2 ADD SWAP1 PUSH2 0x2E27 SWAP2 SWAP1 PUSH2 0x49D5 JUMP JUMPDEST PUSH1 0x1 PUSH1 0x1 PUSH1 0xA0 SHL SUB AND DUP3 PUSH1 0x1 PUSH1 0x1 PUSH1 0xA0 SHL SUB AND EQ JUMPDEST SWAP1 POP DUP1 ISZERO PUSH2 0x2E53 JUMPI PUSH2 0x2E4E DUP5 DUP7 PUSH2 0x4155 JUMP JUMPDEST PUSH2 0x2E76 JUMP JUMPDEST PUSH2 0x2E76 PUSH1 0x1 PUSH1 0x1 PUSH1 0xA0 SHL SUB DUP5 AND ADDRESS EQ ISZERO PUSH2 0x2E6D JUMPI DUP3 PUSH2 0x2E6F JUMP JUMPDEST DUP4 JUMPDEST DUP6 DUP8 PUSH2 0x4172 JUMP JUMPDEST PUSH32 0x17BBFB9A6069321B6DED73BD96327C9E6B7212A5CD51FF219CD61370ACAFB561 DUP5 PUSH2 0x2EAD PUSH1 0x9 SLOAD DUP12 PUSH2 0x3FF4 SWAP1 SWAP2 SWAP1 PUSH4 0xFFFFFFFF AND JUMP JUMPDEST PUSH1 0x40 DUP1 MLOAD SWAP3 DUP4 MSTORE PUSH1 0x20 DUP4 ADD SWAP2 SWAP1 SWAP2 MSTORE DUP2 ADD DUP8 SWAP1 MSTORE PUSH1 0x60 ADD PUSH1 0x40 MLOAD DUP1 SWAP2 SUB SWAP1 LOG1 POP POP POP POP POP POP POP JUMPDEST POP PUSH1 0x8 DUP1 SLOAD PUSH1 0x1 PUSH1 0x1 PUSH1 0xF0 SHL SUB AND PUSH1 0x1 PUSH1 0xF8 SHL OR SWAP1 SSTORE JUMP JUMPDEST CALLER PUSH2 0x2EFF PUSH1 0x6 SLOAD PUSH1 0x1 PUSH1 0x1 PUSH1 0xA0 SHL SUB AND SWAP1 JUMP JUMPDEST PUSH1 0x1 PUSH1 0x1 PUSH1 0xA0 SHL SUB AND EQ DUP1 PUSH2 0x2F1E JUMPI POP PUSH1 0x8 SLOAD PUSH1 0x1 PUSH1 0x1 PUSH1 0xA0 SHL SUB AND CALLER EQ JUMPDEST PUSH2 0x2F3A JUMPI PUSH1 0x40 MLOAD PUSH3 0x461BCD PUSH1 0xE5 SHL DUP2 MSTORE PUSH1 0x4 ADD PUSH2 0xE97 SWAP1 PUSH2 0x4D6A JUMP JUMPDEST PUSH1 0xA DUP2 PUSH2 0xFFFF AND GT PUSH2 0x2FB4 JUMPI PUSH1 0x40 MLOAD PUSH3 0x461BCD PUSH1 0xE5 SHL DUP2 MSTORE PUSH1 0x20 PUSH1 0x4 DUP3 ADD MSTORE PUSH1 0x3D PUSH1 0x24 DUP3 ADD MSTORE PUSH32 0x4D6178207472616E73616374696F6E2073697A652063616E2774206265206C6F PUSH1 0x44 DUP3 ADD MSTORE PUSH32 0x776572207468616E20302E3125206F6620746F74616C20737570706C79000000 PUSH1 0x64 DUP3 ADD MSTORE PUSH1 0x84 ADD PUSH2 0xE97 JUMP JUMPDEST PUSH1 0x11 DUP1 SLOAD PUSH2 0xFFFF DUP4 DUP2 AND PUSH2 0x100 SWAP1 DUP2 MUL PUSH3 0xFFFF00 NOT DUP5 AND OR SWAP4 DUP5 SWAP1 SSTORE PUSH1 0x40 MLOAD SWAP3 DUP2 SWAP1 DIV DUP3 AND SWAP4 DIV AND SWAP1 DUP3 SWAP1 PUSH32 0x8F171BB23056CCED8A730912E267DBF04C43510F33032F06A749B0CCDC8587B4 SWAP1 PUSH1 0x0 SWAP1 LOG3 POP POP JUMP JUMPDEST CALLER PUSH2 0x301C PUSH1 0x6 SLOAD PUSH1 0x1 PUSH1 0x1 PUSH1 0xA0 SHL SUB AND SWAP1 JUMP JUMPDEST PUSH1 0x1 PUSH1 0x1 PUSH1 0xA0 SHL SUB AND EQ DUP1 PUSH2 0x303B JUMPI POP PUSH1 0x8 SLOAD PUSH1 0x1 PUSH1 0x1 PUSH1 0xA0 SHL SUB AND CALLER EQ JUMPDEST PUSH2 0x3057 JUMPI PUSH1 0x40 MLOAD PUSH3 0x461BCD PUSH1 0xE5 SHL DUP2 MSTORE PUSH1 0x4 ADD PUSH2 0xE97 SWAP1 PUSH2 0x4D6A JUMP JUMPDEST PUSH1 0x40 DUP1 MLOAD DUP1 DUP3 ADD SWAP1 SWAP2 MSTORE PUSH1 0x6 DUP1 DUP3 MSTORE PUSH6 0x3937BABA32B9 PUSH1 0xD1 SHL PUSH1 0x20 DUP4 ADD MSTORE SLOAD PUSH1 0x1 PUSH1 0xA0 SHL SWAP1 DIV PUSH1 0xFF AND ISZERO DUP1 PUSH2 0x310C JUMPI POP PUSH1 0x7 DUP2 PUSH1 0x40 MLOAD PUSH2 0x3097 SWAP2 SWAP1 PUSH2 0x4C85 JUMP JUMPDEST SWAP1 DUP2 MSTORE PUSH1 0x20 ADD PUSH1 0x40 MLOAD DUP1 SWAP2 SUB SWAP1 KECCAK256 SLOAD PUSH1 0x0 EQ ISZERO DUP1 ISZERO PUSH2 0x30D4 JUMPI POP TIMESTAMP PUSH1 0x7 DUP3 PUSH1 0x40 MLOAD PUSH2 0x30C2 SWAP2 SWAP1 PUSH2 0x4C85 JUMP JUMPDEST SWAP1 DUP2 MSTORE PUSH1 0x20 ADD PUSH1 0x40 MLOAD DUP1 SWAP2 SUB SWAP1 KECCAK256 SLOAD GT ISZERO JUMPDEST DUP1 ISZERO PUSH2 0x310C JUMPI POP TIMESTAMP PUSH3 0x15180 PUSH1 0x7 DUP4 PUSH1 0x40 MLOAD PUSH2 0x30F0 SWAP2 SWAP1 PUSH2 0x4C85 JUMP JUMPDEST SWAP1 DUP2 MSTORE PUSH1 0x20 ADD PUSH1 0x40 MLOAD DUP1 SWAP2 SUB SWAP1 KECCAK256 SLOAD PUSH2 0x3109 SWAP2 SWAP1 PUSH2 0x4E21 JUMP JUMPDEST LT ISZERO JUMPDEST PUSH2 0x3128 JUMPI PUSH1 0x40 MLOAD PUSH3 0x461BCD PUSH1 0xE5 SHL DUP2 MSTORE PUSH1 0x4 ADD PUSH2 0xE97 SWAP1 PUSH2 0x4D3E JUMP JUMPDEST PUSH1 0xD DUP1 SLOAD PUSH1 0x1 PUSH1 0x1 PUSH1 0xA0 SHL SUB NOT AND PUSH1 0x1 PUSH1 0x1 PUSH1 0xA0 SHL SUB DUP5 AND SWAP1 DUP2 OR SWAP1 SWAP2 SSTORE PUSH1 0x40 DUP1 MLOAD PUSH4 0x15AB88C9 PUSH1 0xE3 SHL DUP2 MSTORE SWAP1 MLOAD PUSH2 0x31B8 SWAP3 SWAP2 PUSH4 0xAD5C4648 SWAP2 PUSH1 0x4 DUP1 DUP4 ADD SWAP3 PUSH1 0x20 SWAP3 SWAP2 SWAP1 DUP3 SWAP1 SUB ADD DUP2 DUP7 DUP1 EXTCODESIZE ISZERO DUP1 ISZERO PUSH2 0x3180 JUMPI PUSH1 0x0 DUP1 REVERT JUMPDEST POP GAS STATICCALL ISZERO DUP1 ISZERO PUSH2 0x3194 JUMPI RETURNDATASIZE PUSH1 0x0 DUP1 RETURNDATACOPY RETURNDATASIZE PUSH1 0x0 REVERT JUMPDEST POP POP POP POP PUSH1 0x40 MLOAD RETURNDATASIZE PUSH1 0x1F NOT PUSH1 0x1F DUP3 ADD AND DUP3 ADD DUP1 PUSH1 0x40 MSTORE POP DUP2 ADD SWAP1 PUSH2 0xA4F SWAP2 SWAP1 PUSH2 0x49D5 JUMP JUMPDEST PUSH2 0x31C1 DUP3 PUSH2 0x1BBC JUMP JUMPDEST PUSH1 0xC SLOAD PUSH1 0x40 MLOAD PUSH1 0x1 PUSH1 0x1 PUSH1 0xA0 SHL SUB SWAP2 DUP3 AND SWAP2 DUP5 AND SWAP1 CALLER SWAP1 PUSH32 0xEB7C1E97C05570337FE795AB9D5755A8F731C9C52E756B720275940FA2833276 SWAP1 PUSH1 0x0 SWAP1 LOG4 PUSH2 0x107F DUP2 PUSH2 0x2598 JUMP JUMPDEST PUSH1 0x6 SLOAD PUSH1 0x1 PUSH1 0x1 PUSH1 0xA0 SHL SUB AND CALLER EQ PUSH2 0x3231 JUMPI PUSH1 0x40 MLOAD PUSH3 0x461BCD PUSH1 0xE5 SHL DUP2 MSTORE PUSH1 0x4 ADD PUSH2 0xE97 SWAP1 PUSH2 0x4D09 JUMP JUMPDEST PUSH1 0x1 PUSH1 0x1 PUSH1 0xA0 SHL SUB DUP2 AND PUSH2 0x3296 JUMPI PUSH1 0x40 MLOAD PUSH3 0x461BCD PUSH1 0xE5 SHL DUP2 MSTORE PUSH1 0x20 PUSH1 0x4 DUP3 ADD MSTORE PUSH1 0x26 PUSH1 0x24 DUP3 ADD MSTORE PUSH32 0x4F776E61626C653A206E6577206F776E657220697320746865207A65726F2061 PUSH1 0x44 DUP3 ADD MSTORE PUSH6 0x646472657373 PUSH1 0xD0 SHL PUSH1 0x64 DUP3 ADD MSTORE PUSH1 0x84 ADD PUSH2 0xE97 JUMP JUMPDEST PUSH2 0x123B DUP2 PUSH2 0x40DF JUMP JUMPDEST CALLER PUSH2 0x32B2 PUSH1 0x6 SLOAD PUSH1 0x1 PUSH1 0x1 PUSH1 0xA0 SHL SUB AND SWAP1 JUMP JUMPDEST PUSH1 0x1 PUSH1 0x1 PUSH1 0xA0 SHL SUB AND EQ DUP1 PUSH2 0x32D1 JUMPI POP PUSH1 0x8 SLOAD PUSH1 0x1 PUSH1 0x1 PUSH1 0xA0 SHL SUB AND CALLER EQ JUMPDEST PUSH2 0x32ED JUMPI PUSH1 0x40 MLOAD PUSH3 0x461BCD PUSH1 0xE5 SHL DUP2 MSTORE PUSH1 0x4 ADD PUSH2 0xE97 SWAP1 PUSH2 0x4D6A JUMP JUMPDEST PUSH1 0x6 DUP1 SLOAD PUSH1 0xFF PUSH1 0xA0 SHL NOT AND PUSH1 0x1 PUSH1 0xA0 SHL OR SWAP1 SSTORE PUSH1 0x40 MLOAD PUSH32 0x2C08B62BFAC9A1B19BB1DEC9323F1CE01696A77948B256ABF3603D30F25A864E SWAP1 PUSH1 0x0 SWAP1 LOG1 JUMP JUMPDEST CALLER PUSH2 0x333E PUSH1 0x6 SLOAD PUSH1 0x1 PUSH1 0x1 PUSH1 0xA0 SHL SUB AND SWAP1 JUMP JUMPDEST PUSH1 0x1 PUSH1 0x1 PUSH1 0xA0 SHL SUB AND EQ DUP1 PUSH2 0x335D JUMPI POP PUSH1 0x8 SLOAD PUSH1 0x1 PUSH1 0x1 PUSH1 0xA0 SHL SUB AND CALLER EQ JUMPDEST PUSH2 0x3379 JUMPI PUSH1 0x40 MLOAD PUSH3 0x461BCD PUSH1 0xE5 SHL DUP2 MSTORE PUSH1 0x4 ADD PUSH2 0xE97 SWAP1 PUSH2 0x4D6A JUMP JUMPDEST PUSH1 0x1 PUSH1 0x1 PUSH1 0xA0 SHL SUB DUP2 AND PUSH1 0x0 DUP2 DUP2 MSTORE PUSH1 0x12 PUSH1 0x20 MSTORE PUSH1 0x40 DUP1 DUP3 KECCAK256 DUP1 SLOAD PUSH1 0xFF NOT AND PUSH1 0x1 OR SWAP1 SSTORE MLOAD PUSH32 0xFFA4E6181777692565CF28528FC88FD1516EA86B56DA075235FA575AF6A4B855 SWAP2 SWAP1 LOG2 POP JUMP JUMPDEST CALLER PUSH2 0x33D8 PUSH1 0x6 SLOAD PUSH1 0x1 PUSH1 0x1 PUSH1 0xA0 SHL SUB AND SWAP1 JUMP JUMPDEST PUSH1 0x1 PUSH1 0x1 PUSH1 0xA0 SHL SUB AND EQ DUP1 PUSH2 0x33F7 JUMPI POP PUSH1 0x8 SLOAD PUSH1 0x1 PUSH1 0x1 PUSH1 0xA0 SHL SUB AND CALLER EQ JUMPDEST PUSH2 0x3413 JUMPI PUSH1 0x40 MLOAD PUSH3 0x461BCD PUSH1 0xE5 SHL DUP2 MSTORE PUSH1 0x4 ADD PUSH2 0xE97 SWAP1 PUSH2 0x4D6A JUMP JUMPDEST PUSH1 0x64 DUP2 PUSH2 0xFFFF AND GT PUSH2 0x348D JUMPI PUSH1 0x40 MLOAD PUSH3 0x461BCD PUSH1 0xE5 SHL DUP2 MSTORE PUSH1 0x20 PUSH1 0x4 DUP3 ADD MSTORE PUSH1 0x3A PUSH1 0x24 DUP3 ADD MSTORE PUSH32 0x4D6178206163636F756E742062616C616E63652063616E2774206265206C6F77 PUSH1 0x44 DUP3 ADD MSTORE PUSH32 0x6572207468616E203125206F6620746F74616C20737570706C79000000000000 PUSH1 0x64 DUP3 ADD MSTORE PUSH1 0x84 ADD PUSH2 0xE97 JUMP JUMPDEST PUSH1 0x11 DUP1 SLOAD PUSH2 0xFFFF DUP4 DUP2 AND PUSH4 0x1000000 SWAP1 DUP2 MUL PUSH5 0xFFFF000000 NOT DUP5 AND OR SWAP4 DUP5 SWAP1 SSTORE PUSH1 0x40 MLOAD SWAP3 DUP2 SWAP1 DIV DUP3 AND SWAP4 DIV AND SWAP1 DUP3 SWAP1 PUSH32 0x537619D54465D4BF80B6C360206170815AA95DEAA5993A7C17AB783706693A4D SWAP1 PUSH1 0x0 SWAP1 LOG3 POP POP JUMP JUMPDEST PUSH1 0x1 PUSH1 0x1 PUSH1 0xA0 SHL SUB DUP4 AND PUSH2 0x3548 JUMPI PUSH1 0x40 MLOAD PUSH3 0x461BCD PUSH1 0xE5 SHL DUP2 MSTORE PUSH1 0x20 PUSH1 0x4 DUP3 ADD MSTORE PUSH1 0x24 DUP1 DUP3 ADD MSTORE PUSH32 0x45524332303A20617070726F76652066726F6D20746865207A65726F20616464 PUSH1 0x44 DUP3 ADD MSTORE PUSH4 0x72657373 PUSH1 0xE0 SHL PUSH1 0x64 DUP3 ADD MSTORE PUSH1 0x84 ADD PUSH2 0xE97 JUMP JUMPDEST PUSH1 0x1 PUSH1 0x1 PUSH1 0xA0 SHL SUB DUP3 AND PUSH2 0x35A9 JUMPI PUSH1 0x40 MLOAD PUSH3 0x461BCD PUSH1 0xE5 SHL DUP2 MSTORE PUSH1 0x20 PUSH1 0x4 DUP3 ADD MSTORE PUSH1 0x22 PUSH1 0x24 DUP3 ADD MSTORE PUSH32 0x45524332303A20617070726F766520746F20746865207A65726F206164647265 PUSH1 0x44 DUP3 ADD MSTORE PUSH2 0x7373 PUSH1 0xF0 SHL PUSH1 0x64 DUP3 ADD MSTORE PUSH1 0x84 ADD PUSH2 0xE97 JUMP JUMPDEST PUSH1 0x1 PUSH1 0x1 PUSH1 0xA0 SHL SUB DUP4 DUP2 AND PUSH1 0x0 DUP2 DUP2 MSTORE PUSH1 0x1 PUSH1 0x20 SWAP1 DUP2 MSTORE PUSH1 0x40 DUP1 DUP4 KECCAK256 SWAP5 DUP8 AND DUP1 DUP5 MSTORE SWAP5 DUP3 MSTORE SWAP2 DUP3 SWAP1 KECCAK256 DUP6 SWAP1 SSTORE SWAP1 MLOAD DUP5 DUP2 MSTORE PUSH32 0x8C5BE1E5EBEC7D5BD14F71427D1E84F3DD0314C0F7B2291E5B200AC8C7C3B925 SWAP2 ADD PUSH1 0x40 MLOAD DUP1 SWAP2 SUB SWAP1 LOG3 POP POP POP JUMP JUMPDEST PUSH1 0x40 DUP1 MLOAD PUSH1 0x0 DUP1 DUP3 MSTORE PUSH1 0x20 DUP3 ADD SWAP1 SWAP3 MSTORE PUSH1 0x1 PUSH1 0x1 PUSH1 0xA0 SHL SUB DUP5 AND SWAP1 DUP4 SWAP1 PUSH1 0x40 MLOAD PUSH2 0x3634 SWAP2 SWAP1 PUSH2 0x4C85 JUMP JUMPDEST PUSH1 0x0 PUSH1 0x40 MLOAD DUP1 DUP4 SUB DUP2 DUP6 DUP8 GAS CALL SWAP3 POP POP POP RETURNDATASIZE DUP1 PUSH1 0x0 DUP2 EQ PUSH2 0x3671 JUMPI PUSH1 0x40 MLOAD SWAP2 POP PUSH1 0x1F NOT PUSH1 0x3F RETURNDATASIZE ADD AND DUP3 ADD PUSH1 0x40 MSTORE RETURNDATASIZE DUP3 MSTORE RETURNDATASIZE PUSH1 0x0 PUSH1 0x20 DUP5 ADD RETURNDATACOPY PUSH2 0x3676 JUMP JUMPDEST PUSH1 0x60 SWAP2 POP JUMPDEST POP POP SWAP1 POP DUP1 PUSH2 0x36E4 JUMPI PUSH1 0x40 MLOAD PUSH3 0x461BCD PUSH1 0xE5 SHL DUP2 MSTORE PUSH1 0x20 PUSH1 0x4 DUP3 ADD MSTORE PUSH1 0x34 PUSH1 0x24 DUP3 ADD MSTORE PUSH32 0x5472616E7366657248656C7065723A3A736166655472616E736665724554483A PUSH1 0x44 DUP3 ADD MSTORE PUSH20 0x8115512081D1C985B9CD9995C8819985A5B1959 PUSH1 0x62 SHL PUSH1 0x64 DUP3 ADD MSTORE PUSH1 0x84 ADD PUSH2 0xE97 JUMP JUMPDEST POP POP POP JUMP JUMPDEST PUSH1 0x2 PUSH1 0x5 SLOAD EQ ISZERO PUSH2 0x373C JUMPI PUSH1 0x40 MLOAD PUSH3 0x461BCD PUSH1 0xE5 SHL DUP2 MSTORE PUSH1 0x20 PUSH1 0x4 DUP3 ADD MSTORE PUSH1 0x1F PUSH1 0x24 DUP3 ADD MSTORE PUSH32 0x5265656E7472616E637947756172643A207265656E7472616E742063616C6C00 PUSH1 0x44 DUP3 ADD MSTORE PUSH1 0x64 ADD PUSH2 0xE97 JUMP JUMPDEST PUSH1 0x2 PUSH1 0x5 SSTORE PUSH1 0x1 PUSH1 0x1 PUSH1 0xA0 SHL SUB DUP4 AND PUSH2 0x37B0 JUMPI PUSH1 0x40 MLOAD PUSH3 0x461BCD PUSH1 0xE5 SHL DUP2 MSTORE PUSH1 0x20 PUSH1 0x4 DUP3 ADD MSTORE PUSH1 0x30 PUSH1 0x24 DUP3 ADD MSTORE PUSH32 0x41424F41543A3A5F7472616E736665723A207472616E736665722066726F6D20 PUSH1 0x44 DUP3 ADD MSTORE PUSH16 0x746865207A65726F2061646472657373 PUSH1 0x80 SHL PUSH1 0x64 DUP3 ADD MSTORE PUSH1 0x84 ADD PUSH2 0xE97 JUMP JUMPDEST PUSH1 0x1 PUSH1 0x1 PUSH1 0xA0 SHL SUB DUP3 AND PUSH2 0x381D JUMPI PUSH1 0x40 MLOAD PUSH3 0x461BCD PUSH1 0xE5 SHL DUP2 MSTORE PUSH1 0x20 PUSH1 0x4 DUP3 ADD MSTORE PUSH1 0x2E PUSH1 0x24 DUP3 ADD MSTORE PUSH32 0x41424F41543A3A5F7472616E736665723A207472616E7366657220746F207468 PUSH1 0x44 DUP3 ADD MSTORE PUSH14 0x65207A65726F2061646472657373 PUSH1 0x90 SHL PUSH1 0x64 DUP3 ADD MSTORE PUSH1 0x84 ADD PUSH2 0xE97 JUMP JUMPDEST PUSH1 0x0 DUP2 GT PUSH2 0x3893 JUMPI PUSH1 0x40 MLOAD PUSH3 0x461BCD PUSH1 0xE5 SHL DUP2 MSTORE PUSH1 0x20 PUSH1 0x4 DUP3 ADD MSTORE PUSH1 0x3A PUSH1 0x24 DUP3 ADD MSTORE PUSH32 0x41424F41543A3A5F7472616E736665723A5472616E7366657220616D6F756E74 PUSH1 0x44 DUP3 ADD MSTORE PUSH32 0x206D7573742062652067726561746572207468616E207A65726F000000000000 PUSH1 0x64 DUP3 ADD MSTORE PUSH1 0x84 ADD PUSH2 0xE97 JUMP JUMPDEST PUSH1 0x1 PUSH1 0x1 PUSH1 0xA0 SHL SUB DUP4 AND PUSH1 0x0 SWAP1 DUP2 MSTORE PUSH1 0x20 DUP2 SWAP1 MSTORE PUSH1 0x40 SWAP1 KECCAK256 SLOAD DUP2 GT ISZERO PUSH2 0x3931 JUMPI PUSH1 0x40 MLOAD PUSH3 0x461BCD PUSH1 0xE5 SHL DUP2 MSTORE PUSH1 0x20 PUSH1 0x4 DUP3 ADD MSTORE PUSH1 0x47 PUSH1 0x24 DUP3 ADD MSTORE PUSH32 0x41424F41543A3A5F7472616E736665723A5472616E7366657220616D6F756E74 PUSH1 0x44 DUP3 ADD MSTORE PUSH32 0x206D757374206265206C6F776572206F7220657175616C2073656E6465727320 PUSH1 0x64 DUP3 ADD MSTORE PUSH7 0x62616C616E6365 PUSH1 0xC8 SHL PUSH1 0x84 DUP3 ADD MSTORE PUSH1 0xA4 ADD PUSH2 0xE97 JUMP JUMPDEST PUSH1 0x1 PUSH1 0x1 PUSH1 0xA0 SHL SUB DUP4 AND PUSH1 0x0 SWAP1 DUP2 MSTORE PUSH1 0x12 PUSH1 0x20 MSTORE PUSH1 0x40 SWAP1 KECCAK256 SLOAD PUSH1 0xFF AND ISZERO PUSH2 0x3A18 JUMPI PUSH1 0x40 MLOAD PUSH3 0x461BCD PUSH1 0xE5 SHL DUP2 MSTORE PUSH1 0x20 PUSH1 0x4 DUP3 ADD MSTORE PUSH1 0x83 PUSH1 0x24 DUP3 ADD MSTORE PUSH32 0x41424F41543A3A5F7472616E736665723A596F752772652063757272656E746C PUSH1 0x44 DUP3 ADD MSTORE PUSH32 0x7920626C61636B6C69737465642E20506C65617365207265706F727420746F20 PUSH1 0x64 DUP3 ADD MSTORE PUSH32 0x736572766963654074616C6B61626F61742E6F6E6C696E6520696620796F7520 PUSH1 0x84 DUP3 ADD MSTORE PUSH32 0x77616E7420746F206765742072656D6F7665642066726F6D20626C61636B6C69 PUSH1 0xA4 DUP3 ADD MSTORE PUSH3 0x737421 PUSH1 0xE8 SHL PUSH1 0xC4 DUP3 ADD MSTORE PUSH1 0xE4 ADD PUSH2 0xE97 JUMP JUMPDEST PUSH1 0x11 SLOAD PUSH2 0xFFFF PUSH2 0x100 SWAP1 SWAP2 DIV AND PUSH2 0x3A2E PUSH1 0x2 SLOAD SWAP1 JUMP JUMPDEST PUSH2 0x3A3A DUP4 PUSH2 0x2710 PUSH2 0x4E5B JUMP JUMPDEST PUSH2 0x3A44 SWAP2 SWAP1 PUSH2 0x4E39 JUMP JUMPDEST GT ISZERO DUP1 PUSH2 0x3A5E JUMPI POP PUSH1 0x6 SLOAD PUSH1 0x1 PUSH1 0x1 PUSH1 0xA0 SHL SUB DUP5 DUP2 AND SWAP2 AND EQ JUMPDEST DUP1 PUSH2 0x3A76 JUMPI POP PUSH1 0x8 SLOAD PUSH1 0x1 PUSH1 0x1 PUSH1 0xA0 SHL SUB DUP5 DUP2 AND SWAP2 AND EQ JUMPDEST DUP1 PUSH2 0x3A99 JUMPI POP PUSH1 0x1 PUSH1 0x1 PUSH1 0xA0 SHL SUB DUP4 AND PUSH1 0x0 SWAP1 DUP2 MSTORE PUSH1 0xE PUSH1 0x20 MSTORE PUSH1 0x40 SWAP1 KECCAK256 SLOAD PUSH1 0xFF AND JUMPDEST DUP1 PUSH2 0x3ABC JUMPI POP PUSH1 0x1 PUSH1 0x1 PUSH1 0xA0 SHL SUB DUP4 AND PUSH1 0x0 SWAP1 DUP2 MSTORE PUSH1 0xF PUSH1 0x20 MSTORE PUSH1 0x40 SWAP1 KECCAK256 SLOAD PUSH1 0xFF AND JUMPDEST PUSH2 0x3B38 JUMPI PUSH1 0x40 MLOAD PUSH3 0x461BCD PUSH1 0xE5 SHL DUP2 MSTORE PUSH1 0x20 PUSH1 0x4 DUP3 ADD MSTORE PUSH1 0x41 PUSH1 0x24 DUP3 ADD MSTORE PUSH32 0x596F7572207472616E73666572206578636565647320746865206D6178696D75 PUSH1 0x44 DUP3 ADD MSTORE PUSH32 0x6D20706F737369626C6520616D6F756E7420706572207472616E73616374696F PUSH1 0x64 DUP3 ADD MSTORE PUSH1 0x37 PUSH1 0xF9 SHL PUSH1 0x84 DUP3 ADD MSTORE PUSH1 0xA4 ADD PUSH2 0xE97 JUMP JUMPDEST PUSH1 0x11 SLOAD PUSH2 0xFFFF PUSH4 0x1000000 SWAP1 SWAP2 DIV AND PUSH2 0x3B50 PUSH1 0x2 SLOAD SWAP1 JUMP JUMPDEST PUSH2 0x3B59 DUP5 PUSH2 0x2076 JUMP JUMPDEST PUSH2 0x3B63 SWAP1 DUP5 PUSH2 0x4E21 JUMP JUMPDEST PUSH2 0x3B6F SWAP1 PUSH2 0x2710 PUSH2 0x4E5B JUMP JUMPDEST PUSH2 0x3B79 SWAP2 SWAP1 PUSH2 0x4E39 JUMP JUMPDEST GT ISZERO DUP1 PUSH2 0x3B93 JUMPI POP PUSH1 0x6 SLOAD PUSH1 0x1 PUSH1 0x1 PUSH1 0xA0 SHL SUB DUP4 DUP2 AND SWAP2 AND EQ JUMPDEST DUP1 PUSH2 0x3BAB JUMPI POP PUSH1 0x8 SLOAD PUSH1 0x1 PUSH1 0x1 PUSH1 0xA0 SHL SUB DUP4 DUP2 AND SWAP2 AND EQ JUMPDEST DUP1 PUSH2 0x3BBE JUMPI POP PUSH1 0x1 PUSH1 0x1 PUSH1 0xA0 SHL SUB DUP3 AND ADDRESS EQ JUMPDEST DUP1 PUSH2 0x3BE1 JUMPI POP PUSH1 0x1 PUSH1 0x1 PUSH1 0xA0 SHL SUB DUP3 AND PUSH1 0x0 SWAP1 DUP2 MSTORE PUSH1 0xF PUSH1 0x20 MSTORE PUSH1 0x40 SWAP1 KECCAK256 SLOAD PUSH1 0xFF AND JUMPDEST DUP1 PUSH2 0x3C04 JUMPI POP PUSH1 0x1 PUSH1 0x1 PUSH1 0xA0 SHL SUB DUP3 AND PUSH1 0x0 SWAP1 DUP2 MSTORE PUSH1 0xE PUSH1 0x20 MSTORE PUSH1 0x40 SWAP1 KECCAK256 SLOAD PUSH1 0xFF AND JUMPDEST PUSH2 0x3C78 JUMPI PUSH1 0x40 DUP1 MLOAD PUSH3 0x461BCD PUSH1 0xE5 SHL DUP2 MSTORE PUSH1 0x20 PUSH1 0x4 DUP3 ADD MSTORE PUSH1 0x24 DUP2 ADD SWAP2 SWAP1 SWAP2 MSTORE PUSH32 0x41424F41543A3A5F7472616E736665723A42616C616E6365206F662072656369 PUSH1 0x44 DUP3 ADD MSTORE PUSH32 0x7069656E742063616E277420657863656564206D617841636342616C616E6365 PUSH1 0x64 DUP3 ADD MSTORE PUSH1 0x84 ADD PUSH2 0xE97 JUMP JUMPDEST PUSH1 0x11 SLOAD PUSH1 0xFF AND DUP1 PUSH2 0x3C96 JUMPI POP PUSH1 0x6 SLOAD PUSH1 0x1 PUSH1 0x1 PUSH1 0xA0 SHL SUB DUP5 DUP2 AND SWAP2 AND EQ JUMPDEST DUP1 PUSH2 0x3CAE JUMPI POP PUSH1 0x8 SLOAD PUSH1 0x1 PUSH1 0x1 PUSH1 0xA0 SHL SUB DUP5 DUP2 AND SWAP2 AND EQ JUMPDEST DUP1 PUSH2 0x3CD1 JUMPI POP PUSH1 0x1 PUSH1 0x1 PUSH1 0xA0 SHL SUB DUP3 AND PUSH1 0x0 SWAP1 DUP2 MSTORE PUSH1 0xF PUSH1 0x20 MSTORE PUSH1 0x40 SWAP1 KECCAK256 SLOAD PUSH1 0xFF AND JUMPDEST DUP1 PUSH2 0x3CF4 JUMPI POP PUSH1 0x1 PUSH1 0x1 PUSH1 0xA0 SHL SUB DUP4 AND PUSH1 0x0 SWAP1 DUP2 MSTORE PUSH1 0xE PUSH1 0x20 MSTORE PUSH1 0x40 SWAP1 KECCAK256 SLOAD PUSH1 0xFF AND JUMPDEST PUSH2 0x3D66 JUMPI PUSH1 0x40 MLOAD PUSH3 0x461BCD PUSH1 0xE5 SHL DUP2 MSTORE PUSH1 0x20 PUSH1 0x4 DUP3 ADD MSTORE PUSH1 0x37 PUSH1 0x24 DUP3 ADD MSTORE PUSH32 0x41424F41543A3A5F7472616E736665723A436F6E7472616374206973206E6F74 PUSH1 0x44 DUP3 ADD MSTORE PUSH32 0x20796574206F70656E20666F7220636F6D6D756E697479000000000000000000 PUSH1 0x64 DUP3 ADD MSTORE PUSH1 0x84 ADD PUSH2 0xE97 JUMP JUMPDEST PUSH1 0x8 SLOAD PUSH1 0x1 PUSH1 0xF8 SHL SWAP1 DIV PUSH1 0xFF AND ISZERO DUP1 PUSH2 0x3D8C JUMPI POP PUSH1 0x8 SLOAD PUSH1 0x1 PUSH1 0x1 PUSH1 0xA0 SHL SUB DUP5 DUP2 AND SWAP2 AND EQ JUMPDEST DUP1 PUSH2 0x3DA4 JUMPI POP PUSH1 0x6 SLOAD PUSH1 0x1 PUSH1 0x1 PUSH1 0xA0 SHL SUB DUP5 DUP2 AND SWAP2 AND EQ JUMPDEST DUP1 PUSH2 0x3DC7 JUMPI POP PUSH1 0x1 PUSH1 0x1 PUSH1 0xA0 SHL SUB DUP3 AND PUSH1 0x0 SWAP1 DUP2 MSTORE PUSH1 0xF PUSH1 0x20 MSTORE PUSH1 0x40 SWAP1 KECCAK256 SLOAD PUSH1 0xFF AND JUMPDEST DUP1 PUSH2 0x3DEA JUMPI POP PUSH1 0x1 PUSH1 0x1 PUSH1 0xA0 SHL SUB DUP4 AND PUSH1 0x0 SWAP1 DUP2 MSTORE PUSH1 0xE PUSH1 0x20 MSTORE PUSH1 0x40 SWAP1 KECCAK256 SLOAD PUSH1 0xFF AND JUMPDEST ISZERO PUSH2 0x3DFF JUMPI PUSH2 0x3DFA DUP4 DUP4 DUP4 PUSH2 0x429D JUMP JUMPDEST PUSH2 0x3FEA JUMP JUMPDEST PUSH1 0x0 PUSH2 0x3E1A PUSH2 0x2710 PUSH2 0x2B59 PUSH2 0x3E13 DUP8 PUSH2 0x1399 JUMP JUMPDEST DUP6 SWAP1 PUSH2 0x413D JUMP JUMPDEST PUSH1 0x8 SLOAD SWAP1 SWAP2 POP PUSH1 0x0 SWAP1 PUSH2 0x3E40 SWAP1 PUSH1 0x64 SWAP1 PUSH2 0x2B59 SWAP1 DUP6 SWAP1 PUSH1 0x1 PUSH1 0xC0 SHL SWAP1 DIV PUSH2 0xFFFF AND PUSH2 0x413D JUMP JUMPDEST PUSH1 0x8 SLOAD SWAP1 SWAP2 POP PUSH1 0x0 SWAP1 PUSH2 0x3E66 SWAP1 PUSH1 0x64 SWAP1 PUSH2 0x2B59 SWAP1 DUP7 SWAP1 PUSH1 0x1 PUSH1 0xD0 SHL SWAP1 DIV PUSH2 0xFFFF AND PUSH2 0x413D JUMP JUMPDEST SWAP1 POP PUSH1 0x0 PUSH2 0x3E7E PUSH2 0x3E77 DUP5 DUP5 PUSH2 0x4131 JUMP JUMPDEST DUP6 SWAP1 PUSH2 0x3FF4 JUMP JUMPDEST SWAP1 POP DUP2 PUSH2 0x3E8B DUP3 DUP6 PUSH2 0x4E21 JUMP JUMPDEST PUSH2 0x3E95 SWAP2 SWAP1 PUSH2 0x4E21 JUMP JUMPDEST DUP5 EQ PUSH2 0x3F09 JUMPI PUSH1 0x40 MLOAD PUSH3 0x461BCD PUSH1 0xE5 SHL DUP2 MSTORE PUSH1 0x20 PUSH1 0x4 DUP3 ADD MSTORE PUSH1 0x3F PUSH1 0x24 DUP3 ADD MSTORE PUSH32 0x41424F41543A3A7472616E736665723A2046656520616D6F756E7420646F6573 PUSH1 0x44 DUP3 ADD MSTORE PUSH32 0x206E6F7420657175616C207468652073706C69742066656520616D6F756E7400 PUSH1 0x64 DUP3 ADD MSTORE PUSH1 0x84 ADD PUSH2 0xE97 JUMP JUMPDEST PUSH1 0x0 PUSH2 0x3F15 DUP7 DUP7 PUSH2 0x3FF4 JUMP JUMPDEST SWAP1 POP PUSH2 0x3F21 DUP6 DUP3 PUSH2 0x4E21 JUMP JUMPDEST DUP7 EQ PUSH2 0x3FAD JUMPI PUSH1 0x40 MLOAD PUSH3 0x461BCD PUSH1 0xE5 SHL DUP2 MSTORE PUSH1 0x20 PUSH1 0x4 DUP3 ADD MSTORE PUSH1 0x4F PUSH1 0x24 DUP3 ADD MSTORE PUSH32 0x41424F41543A3A7472616E736665723A20616D6F756E7420746F2073656E6420 PUSH1 0x44 DUP3 ADD MSTORE PUSH32 0x776974682074617820616D6F756E742065786365656473206D6178696D756D20 PUSH1 0x64 DUP3 ADD MSTORE PUSH15 0x1C1BDCDCDA589B1948185B5BDD5B9D PUSH1 0x8A SHL PUSH1 0x84 DUP3 ADD MSTORE PUSH1 0xA4 ADD PUSH2 0xE97 JUMP JUMPDEST PUSH2 0x3FC1 DUP9 ADDRESS PUSH2 0x3FBC DUP7 DUP7 PUSH2 0x4E21 JUMP JUMPDEST PUSH2 0x429D JUMP JUMPDEST PUSH2 0x3FCC DUP9 DUP9 DUP4 PUSH2 0x429D JUMP JUMPDEST PUSH1 0xB SLOAD PUSH2 0x3FE4 SWAP1 DUP10 SWAP1 PUSH1 0x1 PUSH1 0x1 PUSH1 0xA0 SHL SUB AND DUP7 PUSH2 0x429D JUMP JUMPDEST POP POP POP POP POP JUMPDEST POP POP PUSH1 0x1 PUSH1 0x5 SSTORE POP JUMP JUMPDEST PUSH1 0x0 PUSH2 0x2138 DUP3 DUP5 PUSH2 0x4E7A JUMP JUMPDEST PUSH1 0x1 PUSH1 0x1 PUSH1 0xA0 SHL SUB DUP3 AND PUSH2 0x4056 JUMPI PUSH1 0x40 MLOAD PUSH3 0x461BCD PUSH1 0xE5 SHL DUP2 MSTORE PUSH1 0x20 PUSH1 0x4 DUP3 ADD MSTORE PUSH1 0x1F PUSH1 0x24 DUP3 ADD MSTORE PUSH32 0x45524332303A206D696E7420746F20746865207A65726F206164647265737300 PUSH1 0x44 DUP3 ADD MSTORE PUSH1 0x64 ADD PUSH2 0xE97 JUMP JUMPDEST DUP1 PUSH1 0x2 PUSH1 0x0 DUP3 DUP3 SLOAD PUSH2 0x4068 SWAP2 SWAP1 PUSH2 0x4E21 JUMP JUMPDEST SWAP1 SWAP2 SSTORE POP POP PUSH1 0x1 PUSH1 0x1 PUSH1 0xA0 SHL SUB DUP3 AND PUSH1 0x0 SWAP1 DUP2 MSTORE PUSH1 0x20 DUP2 SWAP1 MSTORE PUSH1 0x40 DUP2 KECCAK256 DUP1 SLOAD DUP4 SWAP3 SWAP1 PUSH2 0x4095 SWAP1 DUP5 SWAP1 PUSH2 0x4E21 JUMP JUMPDEST SWAP1 SWAP2 SSTORE POP POP PUSH1 0x40 MLOAD DUP2 DUP2 MSTORE PUSH1 0x1 PUSH1 0x1 PUSH1 0xA0 SHL SUB DUP4 AND SWAP1 PUSH1 0x0 SWAP1 PUSH32 0xDDF252AD1BE2C89B69C2B068FC378DAA952BA7F163C4A11628F55A4DF523B3EF SWAP1 PUSH1 0x20 ADD PUSH1 0x40 MLOAD DUP1 SWAP2 SUB SWAP1 LOG3 POP POP JUMP JUMPDEST PUSH1 0x6 DUP1 SLOAD PUSH1 0x1 PUSH1 0x1 PUSH1 0xA0 SHL SUB DUP4 DUP2 AND PUSH1 0x1 PUSH1 0x1 PUSH1 0xA0 SHL SUB NOT DUP4 AND DUP2 OR SWAP1 SWAP4 SSTORE PUSH1 0x40 MLOAD SWAP2 AND SWAP2 SWAP1 DUP3 SWAP1 PUSH32 0x8BE0079C531659141344CD1FD0A4F28419497F9722A3DAAFE3B4186F6B6457E0 SWAP1 PUSH1 0x0 SWAP1 LOG3 POP POP JUMP JUMPDEST PUSH1 0x0 PUSH2 0x2138 DUP3 DUP5 PUSH2 0x4E21 JUMP JUMPDEST PUSH1 0x0 PUSH2 0x2138 DUP3 DUP5 PUSH2 0x4E5B JUMP JUMPDEST PUSH1 0x0 PUSH2 0x2138 DUP3 DUP5 PUSH2 0x4E39 JUMP JUMPDEST PUSH1 0x0 PUSH2 0x4160 DUP4 PUSH2 0x446B JUMP JUMPDEST SWAP1 POP DUP1 ISZERO PUSH2 0x36E4 JUMPI PUSH2 0x36E4 DUP3 DUP3 PUSH2 0x44CA JUMP JUMPDEST DUP3 PUSH1 0x0 PUSH2 0x417E DUP5 PUSH2 0x446B JUMP JUMPDEST PUSH1 0x40 MLOAD PUSH4 0x70A08231 PUSH1 0xE0 SHL DUP2 MSTORE ADDRESS PUSH1 0x4 DUP3 ADD MSTORE SWAP1 SWAP2 POP PUSH1 0x0 SWAP1 PUSH1 0x1 PUSH1 0x1 PUSH1 0xA0 SHL SUB DUP5 AND SWAP1 PUSH4 0x70A08231 SWAP1 PUSH1 0x24 ADD PUSH1 0x20 PUSH1 0x40 MLOAD DUP1 DUP4 SUB DUP2 DUP7 DUP1 EXTCODESIZE ISZERO DUP1 ISZERO PUSH2 0x41C3 JUMPI PUSH1 0x0 DUP1 REVERT JUMPDEST POP GAS STATICCALL ISZERO DUP1 ISZERO PUSH2 0x41D7 JUMPI RETURNDATASIZE PUSH1 0x0 DUP1 RETURNDATACOPY RETURNDATASIZE PUSH1 0x0 REVERT JUMPDEST POP POP POP POP PUSH1 0x40 MLOAD RETURNDATASIZE PUSH1 0x1F NOT PUSH1 0x1F DUP3 ADD AND DUP3 ADD DUP1 PUSH1 0x40 MSTORE POP DUP2 ADD SWAP1 PUSH2 0x41FB SWAP2 SWAP1 PUSH2 0x4BFA JUMP JUMPDEST SWAP1 POP PUSH2 0x4207 DUP3 DUP8 PUSH2 0x458A JUMP JUMPDEST PUSH1 0x40 MLOAD PUSH4 0x70A08231 PUSH1 0xE0 SHL DUP2 MSTORE ADDRESS PUSH1 0x4 DUP3 ADD MSTORE PUSH1 0x0 SWAP1 PUSH2 0x4287 SWAP1 DUP4 SWAP1 PUSH1 0x1 PUSH1 0x1 PUSH1 0xA0 SHL SUB DUP8 AND SWAP1 PUSH4 0x70A08231 SWAP1 PUSH1 0x24 ADD PUSH1 0x20 PUSH1 0x40 MLOAD DUP1 DUP4 SUB DUP2 DUP7 DUP1 EXTCODESIZE ISZERO DUP1 ISZERO PUSH2 0x424F JUMPI PUSH1 0x0 DUP1 REVERT JUMPDEST POP GAS STATICCALL ISZERO DUP1 ISZERO PUSH2 0x4263 JUMPI RETURNDATASIZE PUSH1 0x0 DUP1 RETURNDATACOPY RETURNDATASIZE PUSH1 0x0 REVERT JUMPDEST POP POP POP POP PUSH1 0x40 MLOAD RETURNDATASIZE PUSH1 0x1F NOT PUSH1 0x1F DUP3 ADD AND DUP3 ADD DUP1 PUSH1 0x40 MSTORE POP DUP2 ADD SWAP1 PUSH2 0x1393 SWAP2 SWAP1 PUSH2 0x4BFA JUMP JUMPDEST SWAP1 POP PUSH2 0x4294 DUP6 DUP3 DUP10 PUSH2 0x46EB JUMP JUMPDEST POP POP POP POP POP POP POP JUMP JUMPDEST PUSH1 0x1 PUSH1 0x1 PUSH1 0xA0 SHL SUB DUP4 AND PUSH2 0x4301 JUMPI PUSH1 0x40 MLOAD PUSH3 0x461BCD PUSH1 0xE5 SHL DUP2 MSTORE PUSH1 0x20 PUSH1 0x4 DUP3 ADD MSTORE PUSH1 0x25 PUSH1 0x24 DUP3 ADD MSTORE PUSH32 0x45524332303A207472616E736665722066726F6D20746865207A65726F206164 PUSH1 0x44 DUP3 ADD MSTORE PUSH5 0x6472657373 PUSH1 0xD8 SHL PUSH1 0x64 DUP3 ADD MSTORE PUSH1 0x84 ADD PUSH2 0xE97 JUMP JUMPDEST PUSH1 0x1 PUSH1 0x1 PUSH1 0xA0 SHL SUB DUP3 AND PUSH2 0x4363 JUMPI PUSH1 0x40 MLOAD PUSH3 0x461BCD PUSH1 0xE5 SHL DUP2 MSTORE PUSH1 0x20 PUSH1 0x4 DUP3 ADD MSTORE PUSH1 0x23 PUSH1 0x24 DUP3 ADD MSTORE PUSH32 0x45524332303A207472616E7366657220746F20746865207A65726F2061646472 PUSH1 0x44 DUP3 ADD MSTORE PUSH3 0x657373 PUSH1 0xE8 SHL PUSH1 0x64 DUP3 ADD MSTORE PUSH1 0x84 ADD PUSH2 0xE97 JUMP JUMPDEST PUSH1 0x1 PUSH1 0x1 PUSH1 0xA0 SHL SUB DUP4 AND PUSH1 0x0 SWAP1 DUP2 MSTORE PUSH1 0x20 DUP2 SWAP1 MSTORE PUSH1 0x40 SWAP1 KECCAK256 SLOAD DUP2 DUP2 LT ISZERO PUSH2 0x43DB JUMPI PUSH1 0x40 MLOAD PUSH3 0x461BCD PUSH1 0xE5 SHL DUP2 MSTORE PUSH1 0x20 PUSH1 0x4 DUP3 ADD MSTORE PUSH1 0x26 PUSH1 0x24 DUP3 ADD MSTORE PUSH32 0x45524332303A207472616E7366657220616D6F756E7420657863656564732062 PUSH1 0x44 DUP3 ADD MSTORE PUSH6 0x616C616E6365 PUSH1 0xD0 SHL PUSH1 0x64 DUP3 ADD MSTORE PUSH1 0x84 ADD PUSH2 0xE97 JUMP JUMPDEST PUSH1 0x1 PUSH1 0x1 PUSH1 0xA0 SHL SUB DUP1 DUP6 AND PUSH1 0x0 SWAP1 DUP2 MSTORE PUSH1 0x20 DUP2 SWAP1 MSTORE PUSH1 0x40 DUP1 DUP3 KECCAK256 DUP6 DUP6 SUB SWAP1 SSTORE SWAP2 DUP6 AND DUP2 MSTORE SWAP1 DUP2 KECCAK256 DUP1 SLOAD DUP5 SWAP3 SWAP1 PUSH2 0x4412 SWAP1 DUP5 SWAP1 PUSH2 0x4E21 JUMP JUMPDEST SWAP3 POP POP DUP2 SWAP1 SSTORE POP DUP3 PUSH1 0x1 PUSH1 0x1 PUSH1 0xA0 SHL SUB AND DUP5 PUSH1 0x1 PUSH1 0x1 PUSH1 0xA0 SHL SUB AND PUSH32 0xDDF252AD1BE2C89B69C2B068FC378DAA952BA7F163C4A11628F55A4DF523B3EF DUP5 PUSH1 0x40 MLOAD PUSH2 0x445E SWAP2 DUP2 MSTORE PUSH1 0x20 ADD SWAP1 JUMP JUMPDEST PUSH1 0x40 MLOAD DUP1 SWAP2 SUB SWAP1 LOG3 PUSH2 0x1BB6 JUMP JUMPDEST PUSH1 0x0 SELFBALANCE PUSH2 0x4477 DUP4 PUSH2 0x4840 JUMP JUMPDEST PUSH1 0x0 PUSH2 0x4483 SELFBALANCE DUP4 PUSH2 0x3FF4 JUMP JUMPDEST SWAP1 POP PUSH1 0x0 PUSH2 0x44BE PUSH1 0x2 PUSH2 0x44B8 PUSH1 0x64 PUSH2 0x2B59 PUSH1 0x8 PUSH1 0x1A SWAP1 SLOAD SWAP1 PUSH2 0x100 EXP SWAP1 DIV PUSH2 0xFFFF AND PUSH2 0xFFFF AND DUP8 PUSH2 0x413D SWAP1 SWAP2 SWAP1 PUSH4 0xFFFFFFFF AND JUMP JUMPDEST SWAP1 PUSH2 0x413D JUMP JUMPDEST SWAP1 POP PUSH2 0x1481 DUP3 DUP3 PUSH2 0x3FF4 JUMP JUMPDEST PUSH1 0xD SLOAD PUSH2 0x44E2 SWAP1 ADDRESS SWAP1 PUSH1 0x1 PUSH1 0x1 PUSH1 0xA0 SHL SUB AND DUP5 PUSH2 0x34E6 JUMP JUMPDEST PUSH1 0xD SLOAD PUSH1 0x40 MLOAD PUSH4 0xF305D719 PUSH1 0xE0 SHL DUP2 MSTORE ADDRESS PUSH1 0x4 DUP3 ADD MSTORE PUSH1 0x24 DUP2 ADD DUP5 SWAP1 MSTORE PUSH1 0x0 PUSH1 0x44 DUP3 ADD DUP2 SWAP1 MSTORE PUSH1 0x64 DUP3 ADD DUP2 SWAP1 MSTORE PUSH1 0x84 DUP3 ADD MSTORE TIMESTAMP PUSH1 0xA4 DUP3 ADD MSTORE PUSH1 0x1 PUSH1 0x1 PUSH1 0xA0 SHL SUB SWAP1 SWAP2 AND SWAP1 PUSH4 0xF305D719 SWAP1 DUP4 SWAP1 PUSH1 0xC4 ADD PUSH1 0x60 PUSH1 0x40 MLOAD DUP1 DUP4 SUB DUP2 DUP6 DUP9 DUP1 EXTCODESIZE ISZERO DUP1 ISZERO PUSH2 0x454A JUMPI PUSH1 0x0 DUP1 REVERT JUMPDEST POP GAS CALL ISZERO DUP1 ISZERO PUSH2 0x455E JUMPI RETURNDATASIZE PUSH1 0x0 DUP1 RETURNDATACOPY RETURNDATASIZE PUSH1 0x0 REVERT JUMPDEST POP POP POP POP POP PUSH1 0x40 MLOAD RETURNDATASIZE PUSH1 0x1F NOT PUSH1 0x1F DUP3 ADD AND DUP3 ADD DUP1 PUSH1 0x40 MSTORE POP DUP2 ADD SWAP1 PUSH2 0x4583 SWAP2 SWAP1 PUSH2 0x4C13 JUMP JUMPDEST POP POP POP POP POP JUMP JUMPDEST PUSH1 0x40 DUP1 MLOAD PUSH1 0x2 DUP1 DUP3 MSTORE PUSH1 0x60 DUP3 ADD DUP4 MSTORE PUSH1 0x0 SWAP3 PUSH1 0x20 DUP4 ADD SWAP1 DUP1 CALLDATASIZE DUP4 CALLDATACOPY POP POP PUSH1 0xD SLOAD PUSH1 0x40 DUP1 MLOAD PUSH4 0x15AB88C9 PUSH1 0xE3 SHL DUP2 MSTORE SWAP1 MLOAD SWAP4 SWAP5 POP PUSH1 0x1 PUSH1 0x1 PUSH1 0xA0 SHL SUB SWAP1 SWAP2 AND SWAP3 PUSH4 0xAD5C4648 SWAP3 POP PUSH1 0x4 DUP1 DUP4 ADD SWAP3 PUSH1 0x20 SWAP3 SWAP2 SWAP1 DUP3 SWAP1 SUB ADD DUP2 DUP7 DUP1 EXTCODESIZE ISZERO DUP1 ISZERO PUSH2 0x45EF JUMPI PUSH1 0x0 DUP1 REVERT JUMPDEST POP GAS STATICCALL ISZERO DUP1 ISZERO PUSH2 0x4603 JUMPI RETURNDATASIZE PUSH1 0x0 DUP1 RETURNDATACOPY RETURNDATASIZE PUSH1 0x0 REVERT JUMPDEST POP POP POP POP PUSH1 0x40 MLOAD RETURNDATASIZE PUSH1 0x1F NOT PUSH1 0x1F DUP3 ADD AND DUP3 ADD DUP1 PUSH1 0x40 MSTORE POP DUP2 ADD SWAP1 PUSH2 0x4627 SWAP2 SWAP1 PUSH2 0x49D5 JUMP JUMPDEST DUP2 PUSH1 0x0 DUP2 MLOAD DUP2 LT PUSH2 0x463A JUMPI PUSH2 0x463A PUSH2 0x4F0E JUMP JUMPDEST PUSH1 0x20 MUL PUSH1 0x20 ADD ADD SWAP1 PUSH1 0x1 PUSH1 0x1 PUSH1 0xA0 SHL SUB AND SWAP1 DUP2 PUSH1 0x1 PUSH1 0x1 PUSH1 0xA0 SHL SUB AND DUP2 MSTORE POP POP DUP2 DUP2 PUSH1 0x1 DUP2 MLOAD DUP2 LT PUSH2 0x466E JUMPI PUSH2 0x466E PUSH2 0x4F0E JUMP JUMPDEST PUSH1 0x1 PUSH1 0x1 PUSH1 0xA0 SHL SUB SWAP3 DUP4 AND PUSH1 0x20 SWAP2 DUP3 MUL SWAP3 SWAP1 SWAP3 ADD ADD MSTORE PUSH1 0xD SLOAD PUSH1 0x40 MLOAD PUSH4 0xB6F9DE95 PUSH1 0xE0 SHL DUP2 MSTORE SWAP2 AND SWAP1 PUSH4 0xB6F9DE95 SWAP1 DUP6 SWAP1 PUSH2 0x46B4 SWAP1 PUSH1 0x0 SWAP1 DUP7 SWAP1 ADDRESS SWAP1 TIMESTAMP SWAP1 PUSH1 0x4 ADD PUSH2 0x4CA1 JUMP JUMPDEST PUSH1 0x0 PUSH1 0x40 MLOAD DUP1 DUP4 SUB DUP2 DUP6 DUP9 DUP1 EXTCODESIZE ISZERO DUP1 ISZERO PUSH2 0x46CD JUMPI PUSH1 0x0 DUP1 REVERT JUMPDEST POP GAS CALL ISZERO DUP1 ISZERO PUSH2 0x46E1 JUMPI RETURNDATASIZE PUSH1 0x0 DUP1 RETURNDATACOPY RETURNDATASIZE PUSH1 0x0 REVERT JUMPDEST POP POP POP POP POP POP POP POP JUMP JUMPDEST PUSH1 0xD SLOAD PUSH2 0x4703 SWAP1 ADDRESS SWAP1 PUSH1 0x1 PUSH1 0x1 PUSH1 0xA0 SHL SUB AND DUP6 PUSH2 0x34E6 JUMP JUMPDEST PUSH1 0xD SLOAD PUSH1 0x40 MLOAD PUSH4 0x95EA7B3 PUSH1 0xE0 SHL DUP2 MSTORE PUSH1 0x1 PUSH1 0x1 PUSH1 0xA0 SHL SUB SWAP2 DUP3 AND PUSH1 0x4 DUP3 ADD MSTORE PUSH1 0x24 DUP2 ADD DUP5 SWAP1 MSTORE SWAP1 DUP3 AND SWAP1 PUSH4 0x95EA7B3 SWAP1 PUSH1 0x44 ADD PUSH1 0x20 PUSH1 0x40 MLOAD DUP1 DUP4 SUB DUP2 PUSH1 0x0 DUP8 DUP1 EXTCODESIZE ISZERO DUP1 ISZERO PUSH2 0x4751 JUMPI PUSH1 0x0 DUP1 REVERT JUMPDEST POP GAS CALL ISZERO DUP1 ISZERO PUSH2 0x4765 JUMPI RETURNDATASIZE PUSH1 0x0 DUP1 RETURNDATACOPY RETURNDATASIZE PUSH1 0x0 REVERT JUMPDEST POP POP POP POP PUSH1 0x40 MLOAD RETURNDATASIZE PUSH1 0x1F NOT PUSH1 0x1F DUP3 ADD AND DUP3 ADD DUP1 PUSH1 0x40 MSTORE POP DUP2 ADD SWAP1 PUSH2 0x4789 SWAP2 SWAP1 PUSH2 0x4AB5 JUMP JUMPDEST POP PUSH1 0xD SLOAD PUSH1 0x40 MLOAD PUSH3 0xE8E337 PUSH1 0xE8 SHL DUP2 MSTORE ADDRESS PUSH1 0x4 DUP3 ADD MSTORE PUSH1 0x1 PUSH1 0x1 PUSH1 0xA0 SHL SUB DUP4 DUP2 AND PUSH1 0x24 DUP4 ADD MSTORE PUSH1 0x44 DUP3 ADD DUP7 SWAP1 MSTORE PUSH1 0x64 DUP3 ADD DUP6 SWAP1 MSTORE PUSH1 0x0 PUSH1 0x84 DUP4 ADD DUP2 SWAP1 MSTORE PUSH1 0xA4 DUP4 ADD DUP2 SWAP1 MSTORE PUSH1 0xC4 DUP4 ADD MSTORE TIMESTAMP PUSH1 0xE4 DUP4 ADD MSTORE SWAP1 SWAP2 AND SWAP1 PUSH4 0xE8E33700 SWAP1 PUSH2 0x104 ADD PUSH1 0x60 PUSH1 0x40 MLOAD DUP1 DUP4 SUB DUP2 PUSH1 0x0 DUP8 DUP1 EXTCODESIZE ISZERO DUP1 ISZERO PUSH2 0x4800 JUMPI PUSH1 0x0 DUP1 REVERT JUMPDEST POP GAS CALL ISZERO DUP1 ISZERO PUSH2 0x4814 JUMPI RETURNDATASIZE PUSH1 0x0 DUP1 RETURNDATACOPY RETURNDATASIZE PUSH1 0x0 REVERT JUMPDEST POP POP POP POP PUSH1 0x40 MLOAD RETURNDATASIZE PUSH1 0x1F NOT PUSH1 0x1F DUP3 ADD AND DUP3 ADD DUP1 PUSH1 0x40 MSTORE POP DUP2 ADD SWAP1 PUSH2 0x4838 SWAP2 SWAP1 PUSH2 0x4C13 JUMP JUMPDEST POP POP POP POP POP POP JUMP JUMPDEST PUSH1 0x40 DUP1 MLOAD PUSH1 0x2 DUP1 DUP3 MSTORE PUSH1 0x60 DUP3 ADD DUP4 MSTORE PUSH1 0x0 SWAP3 PUSH1 0x20 DUP4 ADD SWAP1 DUP1 CALLDATASIZE DUP4 CALLDATACOPY ADD SWAP1 POP POP SWAP1 POP ADDRESS DUP2 PUSH1 0x0 DUP2 MLOAD DUP2 LT PUSH2 0x4875 JUMPI PUSH2 0x4875 PUSH2 0x4F0E JUMP JUMPDEST PUSH1 0x1 PUSH1 0x1 PUSH1 0xA0 SHL SUB SWAP3 DUP4 AND PUSH1 0x20 SWAP2 DUP3 MUL SWAP3 SWAP1 SWAP3 ADD DUP2 ADD SWAP2 SWAP1 SWAP2 MSTORE PUSH1 0xD SLOAD PUSH1 0x40 DUP1 MLOAD PUSH4 0x15AB88C9 PUSH1 0xE3 SHL DUP2 MSTORE SWAP1 MLOAD SWAP2 SWAP1 SWAP4 AND SWAP3 PUSH4 0xAD5C4648 SWAP3 PUSH1 0x4 DUP1 DUP4 ADD SWAP4 SWAP2 SWAP3 DUP3 SWAP1 SUB ADD DUP2 DUP7 DUP1 EXTCODESIZE ISZERO DUP1 ISZERO PUSH2 0x48C9 JUMPI PUSH1 0x0 DUP1 REVERT JUMPDEST POP GAS STATICCALL ISZERO DUP1 ISZERO PUSH2 0x48DD JUMPI RETURNDATASIZE PUSH1 0x0 DUP1 RETURNDATACOPY RETURNDATASIZE PUSH1 0x0 REVERT JUMPDEST POP POP POP POP PUSH1 0x40 MLOAD RETURNDATASIZE PUSH1 0x1F NOT PUSH1 0x1F DUP3 ADD AND DUP3 ADD DUP1 PUSH1 0x40 MSTORE POP DUP2 ADD SWAP1 PUSH2 0x4901 SWAP2 SWAP1 PUSH2 0x49D5 JUMP JUMPDEST DUP2 PUSH1 0x1 DUP2 MLOAD DUP2 LT PUSH2 0x4914 JUMPI PUSH2 0x4914 PUSH2 0x4F0E JUMP JUMPDEST PUSH1 0x1 PUSH1 0x1 PUSH1 0xA0 SHL SUB SWAP3 DUP4 AND PUSH1 0x20 SWAP2 DUP3 MUL SWAP3 SWAP1 SWAP3 ADD ADD MSTORE PUSH1 0xD SLOAD PUSH2 0x493A SWAP2 ADDRESS SWAP2 AND DUP5 PUSH2 0x34E6 JUMP JUMPDEST PUSH1 0xD SLOAD PUSH1 0x40 MLOAD PUSH4 0x791AC947 PUSH1 0xE0 SHL DUP2 MSTORE PUSH1 0x1 PUSH1 0x1 PUSH1 0xA0 SHL SUB SWAP1 SWAP2 AND SWAP1 PUSH4 0x791AC947 SWAP1 PUSH2 0x4973 SWAP1 DUP6 SWAP1 PUSH1 0x0 SWAP1 DUP7 SWAP1 ADDRESS SWAP1 TIMESTAMP SWAP1 PUSH1 0x4 ADD PUSH2 0x4DBF JUMP JUMPDEST PUSH1 0x0 PUSH1 0x40 MLOAD DUP1 DUP4 SUB DUP2 PUSH1 0x0 DUP8 DUP1 EXTCODESIZE ISZERO DUP1 ISZERO PUSH2 0x498D JUMPI PUSH1 0x0 DUP1 REVERT JUMPDEST POP GAS CALL ISZERO DUP1 ISZERO PUSH2 0x4838 JUMPI RETURNDATASIZE PUSH1 0x0 DUP1 RETURNDATACOPY RETURNDATASIZE PUSH1 0x0 REVERT JUMPDEST DUP1 CALLDATALOAD PUSH2 0xFFFF DUP2 AND DUP2 EQ PUSH2 0x49B3 JUMPI PUSH1 0x0 DUP1 REVERT JUMPDEST SWAP2 SWAP1 POP JUMP JUMPDEST PUSH1 0x0 PUSH1 0x20 DUP3 DUP5 SUB SLT ISZERO PUSH2 0x49CA JUMPI PUSH1 0x0 DUP1 REVERT JUMPDEST DUP2 CALLDATALOAD PUSH2 0x2138 DUP2 PUSH2 0x4F3A JUMP JUMPDEST PUSH1 0x0 PUSH1 0x20 DUP3 DUP5 SUB SLT ISZERO PUSH2 0x49E7 JUMPI PUSH1 0x0 DUP1 REVERT JUMPDEST DUP2 MLOAD PUSH2 0x2138 DUP2 PUSH2 0x4F3A JUMP JUMPDEST PUSH1 0x0 DUP1 PUSH1 0x40 DUP4 DUP6 SUB SLT ISZERO PUSH2 0x4A05 JUMPI PUSH1 0x0 DUP1 REVERT JUMPDEST DUP3 CALLDATALOAD PUSH2 0x4A10 DUP2 PUSH2 0x4F3A JUMP JUMPDEST SWAP2 POP PUSH1 0x20 DUP4 ADD CALLDATALOAD PUSH2 0x4A20 DUP2 PUSH2 0x4F3A JUMP JUMPDEST DUP1 SWAP2 POP POP SWAP3 POP SWAP3 SWAP1 POP JUMP JUMPDEST PUSH1 0x0 DUP1 PUSH1 0x0 PUSH1 0x60 DUP5 DUP7 SUB SLT ISZERO PUSH2 0x4A40 JUMPI PUSH1 0x0 DUP1 REVERT JUMPDEST DUP4 CALLDATALOAD PUSH2 0x4A4B DUP2 PUSH2 0x4F3A JUMP JUMPDEST SWAP3 POP PUSH1 0x20 DUP5 ADD CALLDATALOAD PUSH2 0x4A5B DUP2 PUSH2 0x4F3A JUMP JUMPDEST SWAP3 SWAP6 SWAP3 SWAP5 POP POP POP PUSH1 0x40 SWAP2 SWAP1 SWAP2 ADD CALLDATALOAD SWAP1 JUMP JUMPDEST PUSH1 0x0 DUP1 PUSH1 0x40 DUP4 DUP6 SUB SLT ISZERO PUSH2 0x4A7F JUMPI PUSH1 0x0 DUP1 REVERT JUMPDEST DUP3 CALLDATALOAD PUSH2 0x4A8A DUP2 PUSH2 0x4F3A JUMP JUMPDEST SWAP5 PUSH1 0x20 SWAP4 SWAP1 SWAP4 ADD CALLDATALOAD SWAP4 POP POP POP JUMP JUMPDEST PUSH1 0x0 PUSH1 0x20 DUP3 DUP5 SUB SLT ISZERO PUSH2 0x4AAA JUMPI PUSH1 0x0 DUP1 REVERT JUMPDEST DUP2 CALLDATALOAD PUSH2 0x2138 DUP2 PUSH2 0x4F4F JUMP JUMPDEST PUSH1 0x0 PUSH1 0x20 DUP3 DUP5 SUB SLT ISZERO PUSH2 0x4AC7 JUMPI PUSH1 0x0 DUP1 REVERT JUMPDEST DUP2 MLOAD PUSH2 0x2138 DUP2 PUSH2 0x4F4F JUMP JUMPDEST PUSH1 0x0 PUSH1 0x20 DUP3 DUP5 SUB SLT ISZERO PUSH2 0x4AE4 JUMPI PUSH1 0x0 DUP1 REVERT JUMPDEST DUP2 CALLDATALOAD PUSH8 0xFFFFFFFFFFFFFFFF DUP1 DUP3 GT ISZERO PUSH2 0x4AFC JUMPI PUSH1 0x0 DUP1 REVERT JUMPDEST DUP2 DUP5 ADD SWAP2 POP DUP5 PUSH1 0x1F DUP4 ADD SLT PUSH2 0x4B10 JUMPI PUSH1 0x0 DUP1 REVERT JUMPDEST DUP2 CALLDATALOAD DUP2 DUP2 GT ISZERO PUSH2 0x4B22 JUMPI PUSH2 0x4B22 PUSH2 0x4F24 JUMP JUMPDEST PUSH1 0x40 MLOAD PUSH1 0x1F DUP3 ADD PUSH1 0x1F NOT SWAP1 DUP2 AND PUSH1 0x3F ADD AND DUP2 ADD SWAP1 DUP4 DUP3 GT DUP2 DUP4 LT OR ISZERO PUSH2 0x4B4A JUMPI PUSH2 0x4B4A PUSH2 0x4F24 JUMP JUMPDEST DUP2 PUSH1 0x40 MSTORE DUP3 DUP2 MSTORE DUP8 PUSH1 0x20 DUP5 DUP8 ADD ADD GT ISZERO PUSH2 0x4B63 JUMPI PUSH1 0x0 DUP1 REVERT JUMPDEST DUP3 PUSH1 0x20 DUP7 ADD PUSH1 0x20 DUP4 ADD CALLDATACOPY PUSH1 0x0 SWAP3 DUP2 ADD PUSH1 0x20 ADD SWAP3 SWAP1 SWAP3 MSTORE POP SWAP6 SWAP5 POP POP POP POP POP JUMP JUMPDEST PUSH1 0x0 PUSH1 0x20 DUP3 DUP5 SUB SLT ISZERO PUSH2 0x4B95 JUMPI PUSH1 0x0 DUP1 REVERT JUMPDEST PUSH2 0x2138 DUP3 PUSH2 0x49A1 JUMP JUMPDEST PUSH1 0x0 DUP1 PUSH1 0x0 PUSH1 0x60 DUP5 DUP7 SUB SLT ISZERO PUSH2 0x4BB3 JUMPI PUSH1 0x0 DUP1 REVERT JUMPDEST PUSH2 0x4BBC DUP5 PUSH2 0x49A1 JUMP JUMPDEST SWAP3 POP PUSH2 0x4BCA PUSH1 0x20 DUP6 ADD PUSH2 0x49A1 JUMP JUMPDEST SWAP2 POP PUSH2 0x4BD8 PUSH1 0x40 DUP6 ADD PUSH2 0x49A1 JUMP JUMPDEST SWAP1 POP SWAP3 POP SWAP3 POP SWAP3 JUMP JUMPDEST PUSH1 0x0 PUSH1 0x20 DUP3 DUP5 SUB SLT ISZERO PUSH2 0x4BF3 JUMPI PUSH1 0x0 DUP1 REVERT JUMPDEST POP CALLDATALOAD SWAP2 SWAP1 POP JUMP JUMPDEST PUSH1 0x0 PUSH1 0x20 DUP3 DUP5 SUB SLT ISZERO PUSH2 0x4C0C JUMPI PUSH1 0x0 DUP1 REVERT JUMPDEST POP MLOAD SWAP2 SWAP1 POP JUMP JUMPDEST PUSH1 0x0 DUP1 PUSH1 0x0 PUSH1 0x60 DUP5 DUP7 SUB SLT ISZERO PUSH2 0x4C28 JUMPI PUSH1 0x0 DUP1 REVERT JUMPDEST DUP4 MLOAD SWAP3 POP PUSH1 0x20 DUP5 ADD MLOAD SWAP2 POP PUSH1 0x40 DUP5 ADD MLOAD SWAP1 POP SWAP3 POP SWAP3 POP SWAP3 JUMP JUMPDEST PUSH1 0x0 DUP2 MLOAD DUP1 DUP5 MSTORE PUSH1 0x20 DUP1 DUP6 ADD SWAP5 POP DUP1 DUP5 ADD PUSH1 0x0 JUMPDEST DUP4 DUP2 LT ISZERO PUSH2 0x4C7A JUMPI DUP2 MLOAD PUSH1 0x1 PUSH1 0x1 PUSH1 0xA0 SHL SUB AND DUP8 MSTORE SWAP6 DUP3 ADD SWAP6 SWAP1 DUP3 ADD SWAP1 PUSH1 0x1 ADD PUSH2 0x4C55 JUMP JUMPDEST POP SWAP5 SWAP6 SWAP5 POP POP POP POP POP JUMP JUMPDEST PUSH1 0x0 DUP3 MLOAD PUSH2 0x4C97 DUP2 DUP5 PUSH1 0x20 DUP8 ADD PUSH2 0x4E91 JUMP JUMPDEST SWAP2 SWAP1 SWAP2 ADD SWAP3 SWAP2 POP POP JUMP JUMPDEST DUP5 DUP2 MSTORE PUSH1 0x80 PUSH1 0x20 DUP3 ADD MSTORE PUSH1 0x0 PUSH2 0x4CBA PUSH1 0x80 DUP4 ADD DUP7 PUSH2 0x4C41 JUMP JUMPDEST PUSH1 0x1 PUSH1 0x1 PUSH1 0xA0 SHL SUB SWAP5 SWAP1 SWAP5 AND PUSH1 0x40 DUP4 ADD MSTORE POP PUSH1 0x60 ADD MSTORE SWAP3 SWAP2 POP POP JUMP JUMPDEST PUSH1 0x20 DUP2 MSTORE PUSH1 0x0 DUP3 MLOAD DUP1 PUSH1 0x20 DUP5 ADD MSTORE PUSH2 0x4CF5 DUP2 PUSH1 0x40 DUP6 ADD PUSH1 0x20 DUP8 ADD PUSH2 0x4E91 JUMP JUMPDEST PUSH1 0x1F ADD PUSH1 0x1F NOT AND SWAP2 SWAP1 SWAP2 ADD PUSH1 0x40 ADD SWAP3 SWAP2 POP POP JUMP JUMPDEST PUSH1 0x20 DUP1 DUP3 MSTORE DUP2 DUP2 ADD MSTORE PUSH32 0x4F776E61626C653A2063616C6C6572206973206E6F7420746865206F776E6572 PUSH1 0x40 DUP3 ADD MSTORE PUSH1 0x60 ADD SWAP1 JUMP JUMPDEST PUSH1 0x20 DUP1 DUP3 MSTORE PUSH1 0x12 SWAP1 DUP3 ADD MSTORE PUSH18 0x119D5B98DD1A5BDB881A5CC81B1BD8DAD959 PUSH1 0x72 SHL PUSH1 0x40 DUP3 ADD MSTORE PUSH1 0x60 ADD SWAP1 JUMP JUMPDEST PUSH1 0x20 DUP1 DUP3 MSTORE PUSH1 0x35 SWAP1 DUP3 ADD MSTORE PUSH32 0x6F70657261746F723A2063616C6C6572206973206E6F7420616C6C6F77656420 PUSH1 0x40 DUP3 ADD MSTORE PUSH21 0x3A379031B0B636103A3434B990333AB731BA34B7B7 PUSH1 0x59 SHL PUSH1 0x60 DUP3 ADD MSTORE PUSH1 0x80 ADD SWAP1 JUMP JUMPDEST DUP6 DUP2 MSTORE DUP5 PUSH1 0x20 DUP3 ADD MSTORE PUSH1 0xA0 PUSH1 0x40 DUP3 ADD MSTORE PUSH1 0x0 PUSH2 0x4DDE PUSH1 0xA0 DUP4 ADD DUP7 PUSH2 0x4C41 JUMP JUMPDEST PUSH1 0x1 PUSH1 0x1 PUSH1 0xA0 SHL SUB SWAP5 SWAP1 SWAP5 AND PUSH1 0x60 DUP4 ADD MSTORE POP PUSH1 0x80 ADD MSTORE SWAP4 SWAP3 POP POP POP JUMP JUMPDEST PUSH1 0x0 PUSH2 0xFFFF DUP1 DUP4 AND DUP2 DUP6 AND DUP1 DUP4 SUB DUP3 GT ISZERO PUSH2 0x4E18 JUMPI PUSH2 0x4E18 PUSH2 0x4EF8 JUMP JUMPDEST ADD SWAP5 SWAP4 POP POP POP POP JUMP JUMPDEST PUSH1 0x0 DUP3 NOT DUP3 GT ISZERO PUSH2 0x4E34 JUMPI PUSH2 0x4E34 PUSH2 0x4EF8 JUMP JUMPDEST POP ADD SWAP1 JUMP JUMPDEST PUSH1 0x0 DUP3 PUSH2 0x4E56 JUMPI PUSH4 0x4E487B71 PUSH1 0xE0 SHL PUSH1 0x0 MSTORE PUSH1 0x12 PUSH1 0x4 MSTORE PUSH1 0x24 PUSH1 0x0 REVERT JUMPDEST POP DIV SWAP1 JUMP JUMPDEST PUSH1 0x0 DUP2 PUSH1 0x0 NOT DIV DUP4 GT DUP3 ISZERO ISZERO AND ISZERO PUSH2 0x4E75 JUMPI PUSH2 0x4E75 PUSH2 0x4EF8 JUMP JUMPDEST POP MUL SWAP1 JUMP JUMPDEST PUSH1 0x0 DUP3 DUP3 LT ISZERO PUSH2 0x4E8C JUMPI PUSH2 0x4E8C PUSH2 0x4EF8 JUMP JUMPDEST POP SUB SWAP1 JUMP JUMPDEST PUSH1 0x0 JUMPDEST DUP4 DUP2 LT ISZERO PUSH2 0x4EAC JUMPI DUP2 DUP2 ADD MLOAD DUP4 DUP3 ADD MSTORE PUSH1 0x20 ADD PUSH2 0x4E94 JUMP JUMPDEST DUP4 DUP2 GT ISZERO PUSH2 0x1BB6 JUMPI POP POP PUSH1 0x0 SWAP2 ADD MSTORE JUMP JUMPDEST PUSH1 0x1 DUP2 DUP2 SHR SWAP1 DUP3 AND DUP1 PUSH2 0x4ED1 JUMPI PUSH1 0x7F DUP3 AND SWAP2 POP JUMPDEST PUSH1 0x20 DUP3 LT DUP2 EQ ISZERO PUSH2 0x4EF2 JUMPI PUSH4 0x4E487B71 PUSH1 0xE0 SHL PUSH1 0x0 MSTORE PUSH1 0x22 PUSH1 0x4 MSTORE PUSH1 0x24 PUSH1 0x0 REVERT JUMPDEST POP SWAP2 SWAP1 POP JUMP JUMPDEST PUSH4 0x4E487B71 PUSH1 0xE0 SHL PUSH1 0x0 MSTORE PUSH1 0x11 PUSH1 0x4 MSTORE PUSH1 0x24 PUSH1 0x0 REVERT JUMPDEST PUSH4 0x4E487B71 PUSH1 0xE0 SHL PUSH1 0x0 MSTORE PUSH1 0x32 PUSH1 0x4 MSTORE PUSH1 0x24 PUSH1 0x0 REVERT JUMPDEST PUSH4 0x4E487B71 PUSH1 0xE0 SHL PUSH1 0x0 MSTORE PUSH1 0x41 PUSH1 0x4 MSTORE PUSH1 0x24 PUSH1 0x0 REVERT JUMPDEST PUSH1 0x1 PUSH1 0x1 PUSH1 0xA0 SHL SUB DUP2 AND DUP2 EQ PUSH2 0x123B JUMPI PUSH1 0x0 DUP1 REVERT JUMPDEST DUP1 ISZERO ISZERO DUP2 EQ PUSH2 0x123B JUMPI PUSH1 0x0 DUP1 REVERT INVALID LOG2 PUSH5 0x6970667358 0x22 SLT KECCAK256 PC 0xF 0xD6 0xC2 PUSH30 0x96B8F0FC74960F6A371B068F793CE03D57E12DFC0C47626E05251364736F PUSH13 0x634300080700336F7065726174 PUSH16 0x723A2063616C6C6572206973206E6F74 KECCAK256 PUSH2 0x6C6C PUSH16 0x77656420746F2063616C6C2074686973 KECCAK256 PUSH7 0x756E6374696F6E STOP STOP STOP STOP STOP STOP STOP STOP STOP STOP STOP "
		},
		"gasEstimates": {
			"creation": {
				"codeDepositCost": "4074200",
				"executionCost": "infinite",
				"totalCost": "infinite"
			},
			"external": {
				"MAXIMUM_TAX()": "359",
				"_devWallet()": "2494",
				"_excludedFromFeesAsReceiver(address)": "2627",
				"_excludedFromFeesAsSender(address)": "2604",
				"_liquidityPair()": "2405",
				"_minAmountToLiquify()": "2407",
				"_rewardWallet()": "2470",
				"_router()": "2448",
				"allowance(address,address)": "infinite",
				"approve(address,uint256)": "24692",
				"balanceOf(address)": "2646",
				"blacklist(address)": "30177",
				"canMintNewCoins(uint256)": "359",
				"claimExceedingETH()": "infinite",
				"decimals()": "246",
				"decreaseAllowance(address,uint256)": "26982",
				"devRate()": "2463",
				"donationRate()": "2465",
				"excludeFromAll(address)": "53315",
				"excludeFromFeesAsReceiver(address)": "29078",
				"excludeTransferFeeAsSender(address)": "29011",
				"getBalanceOf(address)": "infinite",
				"getCirculatingSupply()": "6852",
				"getLiquidityTokenAddress()": "infinite",
				"getTaxFee(address)": "infinite",
				"includeForAll(address)": "53276",
				"includeForFeesAsReciever(address)": "29028",
				"includeTransferFeeAsSender(address)": "28984",
				"increaseAllowance(address,uint256)": "27030",
				"isContractActive()": "2367",
				"isExcludedFromReceiverTax(address)": "2665",
				"isExcludedFromSenderTax(address)": "2599",
				"isFeeActive()": "2405",
				"isLiquifyActive()": "2386",
				"isLockEnabled()": "2405",
				"liquidityPair()": "2486",
				"liquidityTokenBalance()": "infinite",
				"lockFunction(string)": "infinite",
				"maintainer()": "2465",
				"maxAccBalance()": "2416",
				"maxDistribution()": "2364",
				"maxTxQuantity()": "2415",
				"maximumTransferTaxRate()": "2462",
				"minimumTransferTaxRate()": "2444",
				"mint(address,uint256)": "infinite",
				"name()": "infinite",
				"owner()": "2444",
				"reDistributionRate()": "2466",
				"renounceOwnership()": "28251",
				"setContractStatus(bool)": "29969",
				"setDevWallet(address)": "infinite",
				"setLiquidityPair(address)": "infinite",
				"setMaintainer(address)": "infinite",
				"setMasterEntertainer(address)": "85260",
				"setMaxAccBalance(uint16)": "30609",
				"setMaxTransactionQuantity(uint16)": "30544",
				"setMinAmountToLiquify(uint256)": "26777",
				"setRewardWallet(address)": "infinite",
				"setTimelockEnabled()": "29532",
				"swapAndLiquify()": "infinite",
				"symbol()": "infinite",
				"timelock(string)": "infinite",
				"totalSupply()": "2383",
				"transfer(address,uint256)": "infinite",
				"transferFrom(address,address,uint256)": "infinite",
				"transferOwnership(address)": "infinite",
				"unlockFunction(string)": "infinite",
				"updateMaximumTransferTaxRate(uint16)": "infinite",
				"updateMinimumTransferTaxRate(uint16)": "infinite",
				"updateRouter(address)": "infinite",
				"updateTax(uint16,uint16,uint16)": "infinite",
				"whitelist(address)": "30129"
			},
			"internal": {
				"_transfer(address,address,uint256)": "infinite"
			}
		},
		"methodIdentifiers": {
			"MAXIMUM_TAX()": "d9324079",
			"_devWallet()": "11a63e17",
			"_excludedFromFeesAsReceiver(address)": "1ac818a1",
			"_excludedFromFeesAsSender(address)": "ae7e1d7a",
			"_liquidityPair()": "645830b4",
			"_minAmountToLiquify()": "982ceeb7",
			"_rewardWallet()": "a4f4a765",
			"_router()": "edae876f",
			"allowance(address,address)": "dd62ed3e",
			"approve(address,uint256)": "095ea7b3",
			"balanceOf(address)": "70a08231",
			"blacklist(address)": "f9f92be4",
			"canMintNewCoins(uint256)": "69372b30",
			"claimExceedingETH()": "1b611111",
			"decimals()": "313ce567",
			"decreaseAllowance(address,uint256)": "a457c2d7",
			"devRate()": "c9574975",
			"donationRate()": "0d38ffcd",
			"excludeFromAll(address)": "370f0a60",
			"excludeFromFeesAsReceiver(address)": "986d6142",
			"excludeTransferFeeAsSender(address)": "7897af86",
			"getBalanceOf(address)": "9b96eece",
			"getCirculatingSupply()": "2b112e49",
			"getLiquidityTokenAddress()": "506ee100",
			"getTaxFee(address)": "3071fed2",
			"includeForAll(address)": "a17252a4",
			"includeForFeesAsReciever(address)": "53a54511",
			"includeTransferFeeAsSender(address)": "4ad1eb81",
			"increaseAllowance(address,uint256)": "39509351",
			"isContractActive()": "8f5949f9",
			"isExcludedFromReceiverTax(address)": "8053575b",
			"isExcludedFromSenderTax(address)": "bb922014",
			"isFeeActive()": "e43504da",
			"isLiquifyActive()": "005d1afc",
			"isLockEnabled()": "a347511a",
			"liquidityPair()": "808a5457",
			"liquidityTokenBalance()": "239eb211",
			"lockFunction(string)": "9f531156",
			"maintainer()": "9850d32b",
			"maxAccBalance()": "0181bb78",
			"maxDistribution()": "044e0ea2",
			"maxTxQuantity()": "88bce123",
			"maximumTransferTaxRate()": "fafa4489",
			"minimumTransferTaxRate()": "01bbba4d",
			"mint(address,uint256)": "40c10f19",
			"name()": "06fdde03",
			"owner()": "8da5cb5b",
			"reDistributionRate()": "03fcdbdf",
			"renounceOwnership()": "715018a6",
			"setContractStatus(bool)": "88b8084f",
			"setDevWallet(address)": "1f53ac02",
			"setLiquidityPair(address)": "9d93598e",
			"setMaintainer(address)": "13ea5d29",
			"setMasterEntertainer(address)": "54613450",
			"setMaxAccBalance(uint16)": "fb25c120",
			"setMaxTransactionQuantity(uint16)": "c1316eb6",
			"setMinAmountToLiquify(uint256)": "8efd5e3b",
			"setRewardWallet(address)": "5958621e",
			"setTimelockEnabled()": "f4762fd6",
			"swapAndLiquify()": "b29ad50a",
			"symbol()": "95d89b41",
			"timelock(string)": "f98080c0",
			"totalSupply()": "18160ddd",
			"transfer(address,uint256)": "a9059cbb",
			"transferFrom(address,address,uint256)": "23b872dd",
			"transferOwnership(address)": "f2fde38b",
			"unlockFunction(string)": "a607494a",
			"updateMaximumTransferTaxRate(uint16)": "af10e03e",
			"updateMinimumTransferTaxRate(uint16)": "7d8e9615",
			"updateRouter(address)": "c851cc32",
			"updateTax(uint16,uint16,uint16)": "737dc9bd",
			"whitelist(address)": "9b19251a"
		}
	},
	"abi": [
		{
			"inputs": [],
			"stateMutability": "nonpayable",
			"type": "constructor"
		},
		{
			"anonymous": false,
			"inputs": [
				{
					"indexed": true,
					"internalType": "address",
					"name": "owner",
					"type": "address"
				},
				{
					"indexed": true,
					"internalType": "address",
					"name": "spender",
					"type": "address"
				},
				{
					"indexed": false,
					"internalType": "uint256",
					"name": "value",
					"type": "uint256"
				}
			],
			"name": "Approval",
			"type": "event"
		},
		{
			"anonymous": false,
			"inputs": [
				{
					"indexed": true,
					"internalType": "address",
					"name": "user",
					"type": "address"
				}
			],
			"name": "Blacklisted",
			"type": "event"
		},
		{
			"anonymous": false,
			"inputs": [
				{
					"indexed": false,
					"internalType": "bool",
					"name": "state",
					"type": "bool"
				}
			],
			"name": "ChangedContractState",
			"type": "event"
		},
		{
			"anonymous": false,
			"inputs": [
				{
					"indexed": true,
					"internalType": "address",
					"name": "caller",
					"type": "address"
				},
				{
					"indexed": true,
					"internalType": "address",
					"name": "pair",
					"type": "address"
				}
			],
			"name": "ChangedLiquidityPair",
			"type": "event"
		},
		{
			"anonymous": false,
			"inputs": [
				{
					"indexed": true,
					"internalType": "address",
					"name": "newMasterEntertainer",
					"type": "address"
				}
			],
			"name": "ChangedMasterEntertainer",
			"type": "event"
		},
		{
			"anonymous": false,
			"inputs": [],
			"name": "EnabledLock",
			"type": "event"
		},
		{
			"anonymous": false,
			"inputs": [
				{
					"indexed": true,
					"internalType": "address",
					"name": "previousMaintainer",
					"type": "address"
				},
				{
					"indexed": true,
					"internalType": "address",
					"name": "newMaintainer",
					"type": "address"
				}
			],
			"name": "MaintainerTransferred",
			"type": "event"
		},
		{
			"anonymous": false,
			"inputs": [
				{
					"indexed": true,
					"internalType": "uint16",
					"name": "previousMaxBalance",
					"type": "uint16"
				},
				{
					"indexed": true,
					"internalType": "uint16",
					"name": "newMaxBalance",
					"type": "uint16"
				}
			],
			"name": "MaxAccBalanceChanged",
			"type": "event"
		},
		{
			"anonymous": false,
			"inputs": [
				{
					"indexed": true,
					"internalType": "uint16",
					"name": "previousMaxTxQuantity",
					"type": "uint16"
				},
				{
					"indexed": true,
					"internalType": "uint16",
					"name": "newMaxTxQuantity",
					"type": "uint16"
				}
			],
			"name": "MaxTransactionQuantityChanged",
			"type": "event"
		},
		{
			"anonymous": false,
			"inputs": [
				{
					"indexed": true,
					"internalType": "address",
					"name": "caller",
					"type": "address"
				},
				{
					"indexed": false,
					"internalType": "uint256",
					"name": "previousRate",
					"type": "uint256"
				},
				{
					"indexed": false,
					"internalType": "uint256",
					"name": "newRate",
					"type": "uint256"
				}
			],
			"name": "MaximumTransferTaxRateUpdated",
			"type": "event"
		},
		{
			"anonymous": false,
			"inputs": [
				{
					"indexed": true,
					"internalType": "address",
					"name": "caller",
					"type": "address"
				},
				{
					"indexed": false,
					"internalType": "uint256",
					"name": "previousAmount",
					"type": "uint256"
				},
				{
					"indexed": false,
					"internalType": "uint256",
					"name": "newAmount",
					"type": "uint256"
				}
			],
			"name": "MinAmountToLiquifyUpdated",
			"type": "event"
		},
		{
			"anonymous": false,
			"inputs": [
				{
					"indexed": true,
					"internalType": "address",
					"name": "caller",
					"type": "address"
				},
				{
					"indexed": false,
					"internalType": "uint256",
					"name": "previousRate",
					"type": "uint256"
				},
				{
					"indexed": false,
					"internalType": "uint256",
					"name": "newRate",
					"type": "uint256"
				}
			],
			"name": "MinimumTransferTaxRateUpdated",
			"type": "event"
		},
		{
			"anonymous": false,
			"inputs": [
				{
					"indexed": true,
					"internalType": "address",
					"name": "previousOwner",
					"type": "address"
				},
				{
					"indexed": true,
					"internalType": "address",
					"name": "newOwner",
					"type": "address"
				}
			],
			"name": "OwnershipTransferred",
			"type": "event"
		},
		{
			"anonymous": false,
			"inputs": [
				{
					"indexed": true,
					"internalType": "address",
					"name": "caller",
					"type": "address"
				},
				{
					"indexed": true,
					"internalType": "address",
					"name": "router",
					"type": "address"
				},
				{
					"indexed": true,
					"internalType": "address",
					"name": "pair",
					"type": "address"
				}
			],
			"name": "RouterUpdated",
			"type": "event"
		},
		{
			"anonymous": false,
			"inputs": [
				{
					"indexed": false,
					"internalType": "uint256",
					"name": "tokensSwapped",
					"type": "uint256"
				},
				{
					"indexed": false,
					"internalType": "uint256",
					"name": "ethReceived",
					"type": "uint256"
				},
				{
					"indexed": false,
					"internalType": "uint256",
					"name": "tokensIntoLiquidity",
					"type": "uint256"
				}
			],
			"name": "SwapAndLiquify",
			"type": "event"
		},
		{
			"anonymous": false,
			"inputs": [
				{
					"indexed": true,
					"internalType": "address",
					"name": "from",
					"type": "address"
				},
				{
					"indexed": true,
					"internalType": "address",
					"name": "to",
					"type": "address"
				},
				{
					"indexed": false,
					"internalType": "uint256",
					"name": "value",
					"type": "uint256"
				}
			],
			"name": "Transfer",
			"type": "event"
		},
		{
			"anonymous": false,
			"inputs": [
				{
					"indexed": true,
					"internalType": "string",
					"name": "functionName",
					"type": "string"
				},
				{
					"indexed": true,
					"internalType": "uint256",
					"name": "unlockedAt",
					"type": "uint256"
				}
			],
			"name": "UnlockedFunction",
			"type": "event"
		},
		{
			"anonymous": false,
			"inputs": [
				{
					"indexed": false,
					"internalType": "uint16",
					"name": "redistribution",
					"type": "uint16"
				},
				{
					"indexed": false,
					"internalType": "uint16",
					"name": "dev",
					"type": "uint16"
				},
				{
					"indexed": false,
					"internalType": "uint16",
					"name": "donation",
					"type": "uint16"
				}
			],
			"name": "UpdateTax",
			"type": "event"
		},
		{
			"anonymous": false,
			"inputs": [
				{
					"indexed": true,
					"internalType": "address",
					"name": "user",
					"type": "address"
				}
			],
			"name": "Whitelisted",
			"type": "event"
		},
		{
			"inputs": [],
			"name": "MAXIMUM_TAX",
			"outputs": [
				{
					"internalType": "uint16",
					"name": "",
					"type": "uint16"
				}
			],
			"stateMutability": "view",
			"type": "function"
		},
		{
			"inputs": [],
			"name": "_devWallet",
			"outputs": [
				{
					"internalType": "address",
					"name": "",
					"type": "address"
				}
			],
			"stateMutability": "view",
			"type": "function"
		},
		{
			"inputs": [
				{
					"internalType": "address",
					"name": "",
					"type": "address"
				}
			],
			"name": "_excludedFromFeesAsReceiver",
			"outputs": [
				{
					"internalType": "bool",
					"name": "",
					"type": "bool"
				}
			],
			"stateMutability": "view",
			"type": "function"
		},
		{
			"inputs": [
				{
					"internalType": "address",
					"name": "",
					"type": "address"
				}
			],
			"name": "_excludedFromFeesAsSender",
			"outputs": [
				{
					"internalType": "bool",
					"name": "",
					"type": "bool"
				}
			],
			"stateMutability": "view",
			"type": "function"
		},
		{
			"inputs": [],
			"name": "_liquidityPair",
			"outputs": [
				{
					"internalType": "address",
					"name": "",
					"type": "address"
				}
			],
			"stateMutability": "view",
			"type": "function"
		},
		{
			"inputs": [],
			"name": "_minAmountToLiquify",
			"outputs": [
				{
					"internalType": "uint256",
					"name": "",
					"type": "uint256"
				}
			],
			"stateMutability": "view",
			"type": "function"
		},
		{
			"inputs": [],
			"name": "_rewardWallet",
			"outputs": [
				{
					"internalType": "address",
					"name": "",
					"type": "address"
				}
			],
			"stateMutability": "view",
			"type": "function"
		},
		{
			"inputs": [],
			"name": "_router",
			"outputs": [
				{
					"internalType": "contract IUniswapV2Router02",
					"name": "",
					"type": "address"
				}
			],
			"stateMutability": "view",
			"type": "function"
		},
		{
			"inputs": [
				{
					"internalType": "address",
					"name": "owner",
					"type": "address"
				},
				{
					"internalType": "address",
					"name": "spender",
					"type": "address"
				}
			],
			"name": "allowance",
			"outputs": [
				{
					"internalType": "uint256",
					"name": "",
					"type": "uint256"
				}
			],
			"stateMutability": "view",
			"type": "function"
		},
		{
			"inputs": [
				{
					"internalType": "address",
					"name": "spender",
					"type": "address"
				},
				{
					"internalType": "uint256",
					"name": "amount",
					"type": "uint256"
				}
			],
			"name": "approve",
			"outputs": [
				{
					"internalType": "bool",
					"name": "",
					"type": "bool"
				}
			],
			"stateMutability": "nonpayable",
			"type": "function"
		},
		{
			"inputs": [
				{
					"internalType": "address",
					"name": "account",
					"type": "address"
				}
			],
			"name": "balanceOf",
			"outputs": [
				{
					"internalType": "uint256",
					"name": "",
					"type": "uint256"
				}
			],
			"stateMutability": "view",
			"type": "function"
		},
		{
			"inputs": [
				{
					"internalType": "address",
					"name": "user",
					"type": "address"
				}
			],
			"name": "blacklist",
			"outputs": [],
			"stateMutability": "nonpayable",
			"type": "function"
		},
		{
			"inputs": [
				{
					"internalType": "uint256",
					"name": "_amount",
					"type": "uint256"
				}
			],
			"name": "canMintNewCoins",
			"outputs": [
				{
					"internalType": "bool",
					"name": "",
					"type": "bool"
				}
			],
			"stateMutability": "pure",
			"type": "function"
		},
		{
			"inputs": [],
			"name": "claimExceedingETH",
			"outputs": [],
			"stateMutability": "nonpayable",
			"type": "function"
		},
		{
			"inputs": [],
			"name": "decimals",
			"outputs": [
				{
					"internalType": "uint8",
					"name": "",
					"type": "uint8"
				}
			],
			"stateMutability": "view",
			"type": "function"
		},
		{
			"inputs": [
				{
					"internalType": "address",
					"name": "spender",
					"type": "address"
				},
				{
					"internalType": "uint256",
					"name": "subtractedValue",
					"type": "uint256"
				}
			],
			"name": "decreaseAllowance",
			"outputs": [
				{
					"internalType": "bool",
					"name": "",
					"type": "bool"
				}
			],
			"stateMutability": "nonpayable",
			"type": "function"
		},
		{
			"inputs": [],
			"name": "devRate",
			"outputs": [
				{
					"internalType": "uint16",
					"name": "",
					"type": "uint16"
				}
			],
			"stateMutability": "view",
			"type": "function"
		},
		{
			"inputs": [],
			"name": "donationRate",
			"outputs": [
				{
					"internalType": "uint16",
					"name": "",
					"type": "uint16"
				}
			],
			"stateMutability": "view",
			"type": "function"
		},
		{
			"inputs": [
				{
					"internalType": "address",
					"name": "_excludee",
					"type": "address"
				}
			],
			"name": "excludeFromAll",
			"outputs": [],
			"stateMutability": "nonpayable",
			"type": "function"
		},
		{
			"inputs": [
				{
					"internalType": "address",
					"name": "_excludee",
					"type": "address"
				}
			],
			"name": "excludeFromFeesAsReceiver",
			"outputs": [],
			"stateMutability": "nonpayable",
			"type": "function"
		},
		{
			"inputs": [
				{
					"internalType": "address",
					"name": "_excludee",
					"type": "address"
				}
			],
			"name": "excludeTransferFeeAsSender",
			"outputs": [],
			"stateMutability": "nonpayable",
			"type": "function"
		},
		{
			"inputs": [
				{
					"internalType": "address",
					"name": "_user",
					"type": "address"
				}
			],
			"name": "getBalanceOf",
			"outputs": [
				{
					"internalType": "uint256",
					"name": "",
					"type": "uint256"
				}
			],
			"stateMutability": "view",
			"type": "function"
		},
		{
			"inputs": [],
			"name": "getCirculatingSupply",
			"outputs": [
				{
					"internalType": "uint256",
					"name": "",
					"type": "uint256"
				}
			],
			"stateMutability": "view",
			"type": "function"
		},
		{
			"inputs": [],
			"name": "getLiquidityTokenAddress",
			"outputs": [
				{
					"internalType": "address",
					"name": "",
					"type": "address"
				}
			],
			"stateMutability": "view",
			"type": "function"
		},
		{
			"inputs": [
				{
					"internalType": "address",
					"name": "_sender",
					"type": "address"
				}
			],
			"name": "getTaxFee",
			"outputs": [
				{
					"internalType": "uint256",
					"name": "",
					"type": "uint256"
				}
			],
			"stateMutability": "view",
			"type": "function"
		},
		{
			"inputs": [
				{
					"internalType": "address",
					"name": "_excludee",
					"type": "address"
				}
			],
			"name": "includeForAll",
			"outputs": [],
			"stateMutability": "nonpayable",
			"type": "function"
		},
		{
			"inputs": [
				{
					"internalType": "address",
					"name": "_excludee",
					"type": "address"
				}
			],
			"name": "includeForFeesAsReciever",
			"outputs": [],
			"stateMutability": "nonpayable",
			"type": "function"
		},
		{
			"inputs": [
				{
					"internalType": "address",
					"name": "_excludee",
					"type": "address"
				}
			],
			"name": "includeTransferFeeAsSender",
			"outputs": [],
			"stateMutability": "nonpayable",
			"type": "function"
		},
		{
			"inputs": [
				{
					"internalType": "address",
					"name": "spender",
					"type": "address"
				},
				{
					"internalType": "uint256",
					"name": "addedValue",
					"type": "uint256"
				}
			],
			"name": "increaseAllowance",
			"outputs": [
				{
					"internalType": "bool",
					"name": "",
					"type": "bool"
				}
			],
			"stateMutability": "nonpayable",
			"type": "function"
		},
		{
			"inputs": [],
			"name": "isContractActive",
			"outputs": [
				{
					"internalType": "bool",
					"name": "",
					"type": "bool"
				}
			],
			"stateMutability": "view",
			"type": "function"
		},
		{
			"inputs": [
				{
					"internalType": "address",
					"name": "_account",
					"type": "address"
				}
			],
			"name": "isExcludedFromReceiverTax",
			"outputs": [
				{
					"internalType": "bool",
					"name": "",
					"type": "bool"
				}
			],
			"stateMutability": "view",
			"type": "function"
		},
		{
			"inputs": [
				{
					"internalType": "address",
					"name": "_account",
					"type": "address"
				}
			],
			"name": "isExcludedFromSenderTax",
			"outputs": [
				{
					"internalType": "bool",
					"name": "",
					"type": "bool"
				}
			],
			"stateMutability": "view",
			"type": "function"
		},
		{
			"inputs": [],
			"name": "isFeeActive",
			"outputs": [
				{
					"internalType": "bool",
					"name": "",
					"type": "bool"
				}
			],
			"stateMutability": "view",
			"type": "function"
		},
		{
			"inputs": [],
			"name": "isLiquifyActive",
			"outputs": [
				{
					"internalType": "bool",
					"name": "",
					"type": "bool"
				}
			],
			"stateMutability": "view",
			"type": "function"
		},
		{
			"inputs": [],
			"name": "isLockEnabled",
			"outputs": [
				{
					"internalType": "bool",
					"name": "",
					"type": "bool"
				}
			],
			"stateMutability": "view",
			"type": "function"
		},
		{
			"inputs": [],
			"name": "liquidityPair",
			"outputs": [
				{
					"internalType": "address",
					"name": "",
					"type": "address"
				}
			],
			"stateMutability": "view",
			"type": "function"
		},
		{
			"inputs": [],
			"name": "liquidityTokenBalance",
			"outputs": [
				{
					"internalType": "uint256",
					"name": "",
					"type": "uint256"
				}
			],
			"stateMutability": "view",
			"type": "function"
		},
		{
			"inputs": [
				{
					"internalType": "string",
					"name": "_fn",
					"type": "string"
				}
			],
			"name": "lockFunction",
			"outputs": [],
			"stateMutability": "nonpayable",
			"type": "function"
		},
		{
			"inputs": [],
			"name": "maintainer",
			"outputs": [
				{
					"internalType": "address",
					"name": "",
					"type": "address"
				}
			],
			"stateMutability": "view",
			"type": "function"
		},
		{
			"inputs": [],
			"name": "maxAccBalance",
			"outputs": [
				{
					"internalType": "uint16",
					"name": "",
					"type": "uint16"
				}
			],
			"stateMutability": "view",
			"type": "function"
		},
		{
			"inputs": [],
			"name": "maxDistribution",
			"outputs": [
				{
					"internalType": "uint256",
					"name": "",
					"type": "uint256"
				}
			],
			"stateMutability": "view",
			"type": "function"
		},
		{
			"inputs": [],
			"name": "maxTxQuantity",
			"outputs": [
				{
					"internalType": "uint16",
					"name": "",
					"type": "uint16"
				}
			],
			"stateMutability": "view",
			"type": "function"
		},
		{
			"inputs": [],
			"name": "maximumTransferTaxRate",
			"outputs": [
				{
					"internalType": "uint16",
					"name": "",
					"type": "uint16"
				}
			],
			"stateMutability": "view",
			"type": "function"
		},
		{
			"inputs": [],
			"name": "minimumTransferTaxRate",
			"outputs": [
				{
					"internalType": "uint16",
					"name": "",
					"type": "uint16"
				}
			],
			"stateMutability": "view",
			"type": "function"
		},
		{
			"inputs": [
				{
					"internalType": "address",
					"name": "_to",
					"type": "address"
				},
				{
					"internalType": "uint256",
					"name": "_amount",
					"type": "uint256"
				}
			],
			"name": "mint",
			"outputs": [],
			"stateMutability": "nonpayable",
			"type": "function"
		},
		{
			"inputs": [],
			"name": "name",
			"outputs": [
				{
					"internalType": "string",
					"name": "",
					"type": "string"
				}
			],
			"stateMutability": "view",
			"type": "function"
		},
		{
			"inputs": [],
			"name": "owner",
			"outputs": [
				{
					"internalType": "address",
					"name": "",
					"type": "address"
				}
			],
			"stateMutability": "view",
			"type": "function"
		},
		{
			"inputs": [],
			"name": "reDistributionRate",
			"outputs": [
				{
					"internalType": "uint16",
					"name": "",
					"type": "uint16"
				}
			],
			"stateMutability": "view",
			"type": "function"
		},
		{
			"inputs": [],
			"name": "renounceOwnership",
			"outputs": [],
			"stateMutability": "nonpayable",
			"type": "function"
		},
		{
			"inputs": [
				{
					"internalType": "bool",
					"name": "state",
					"type": "bool"
				}
			],
			"name": "setContractStatus",
			"outputs": [],
			"stateMutability": "nonpayable",
			"type": "function"
		},
		{
			"inputs": [
				{
					"internalType": "address",
					"name": "wallet",
					"type": "address"
				}
			],
			"name": "setDevWallet",
			"outputs": [],
			"stateMutability": "nonpayable",
			"type": "function"
		},
		{
			"inputs": [
				{
					"internalType": "address",
					"name": "_tokenB",
					"type": "address"
				}
			],
			"name": "setLiquidityPair",
			"outputs": [],
			"stateMutability": "nonpayable",
			"type": "function"
		},
		{
			"inputs": [
				{
					"internalType": "address",
					"name": "_newMaintainer",
					"type": "address"
				}
			],
			"name": "setMaintainer",
			"outputs": [],
			"stateMutability": "nonpayable",
			"type": "function"
		},
		{
			"inputs": [
				{
					"internalType": "contract IMasterEntertainer",
					"name": "masterEntertainer",
					"type": "address"
				}
			],
			"name": "setMasterEntertainer",
			"outputs": [],
			"stateMutability": "nonpayable",
			"type": "function"
		},
		{
			"inputs": [
				{
					"internalType": "uint16",
					"name": "maxBalance",
					"type": "uint16"
				}
			],
			"name": "setMaxAccBalance",
			"outputs": [],
			"stateMutability": "nonpayable",
			"type": "function"
		},
		{
			"inputs": [
				{
					"internalType": "uint16",
					"name": "quantity",
					"type": "uint16"
				}
			],
			"name": "setMaxTransactionQuantity",
			"outputs": [],
			"stateMutability": "nonpayable",
			"type": "function"
		},
		{
			"inputs": [
				{
					"internalType": "uint256",
					"name": "_amount",
					"type": "uint256"
				}
			],
			"name": "setMinAmountToLiquify",
			"outputs": [],
			"stateMutability": "nonpayable",
			"type": "function"
		},
		{
			"inputs": [
				{
					"internalType": "address",
					"name": "wallet",
					"type": "address"
				}
			],
			"name": "setRewardWallet",
			"outputs": [],
			"stateMutability": "nonpayable",
			"type": "function"
		},
		{
			"inputs": [],
			"name": "setTimelockEnabled",
			"outputs": [],
			"stateMutability": "nonpayable",
			"type": "function"
		},
		{
			"inputs": [],
			"name": "swapAndLiquify",
			"outputs": [],
			"stateMutability": "nonpayable",
			"type": "function"
		},
		{
			"inputs": [],
			"name": "symbol",
			"outputs": [
				{
					"internalType": "string",
					"name": "",
					"type": "string"
				}
			],
			"stateMutability": "view",
			"type": "function"
		},
		{
			"inputs": [
				{
					"internalType": "string",
					"name": "",
					"type": "string"
				}
			],
			"name": "timelock",
			"outputs": [
				{
					"internalType": "uint256",
					"name": "",
					"type": "uint256"
				}
			],
			"stateMutability": "view",
			"type": "function"
		},
		{
			"inputs": [],
			"name": "totalSupply",
			"outputs": [
				{
					"internalType": "uint256",
					"name": "",
					"type": "uint256"
				}
			],
			"stateMutability": "view",
			"type": "function"
		},
		{
			"inputs": [
				{
					"internalType": "address",
					"name": "recipient",
					"type": "address"
				},
				{
					"internalType": "uint256",
					"name": "amount",
					"type": "uint256"
				}
			],
			"name": "transfer",
			"outputs": [
				{
					"internalType": "bool",
					"name": "",
					"type": "bool"
				}
			],
			"stateMutability": "nonpayable",
			"type": "function"
		},
		{
			"inputs": [
				{
					"internalType": "address",
					"name": "sender",
					"type": "address"
				},
				{
					"internalType": "address",
					"name": "recipient",
					"type": "address"
				},
				{
					"internalType": "uint256",
					"name": "amount",
					"type": "uint256"
				}
			],
			"name": "transferFrom",
			"outputs": [
				{
					"internalType": "bool",
					"name": "",
					"type": "bool"
				}
			],
			"stateMutability": "nonpayable",
			"type": "function"
		},
		{
			"inputs": [
				{
					"internalType": "address",
					"name": "newOwner",
					"type": "address"
				}
			],
			"name": "transferOwnership",
			"outputs": [],
			"stateMutability": "nonpayable",
			"type": "function"
		},
		{
			"inputs": [
				{
					"internalType": "string",
					"name": "_fn",
					"type": "string"
				}
			],
			"name": "unlockFunction",
			"outputs": [],
			"stateMutability": "nonpayable",
			"type": "function"
		},
		{
			"inputs": [
				{
					"internalType": "uint16",
					"name": "_transferTaxRate",
					"type": "uint16"
				}
			],
			"name": "updateMaximumTransferTaxRate",
			"outputs": [],
			"stateMutability": "nonpayable",
			"type": "function"
		},
		{
			"inputs": [
				{
					"internalType": "uint16",
					"name": "_transferTaxRate",
					"type": "uint16"
				}
			],
			"name": "updateMinimumTransferTaxRate",
			"outputs": [],
			"stateMutability": "nonpayable",
			"type": "function"
		},
		{
			"inputs": [
				{
					"internalType": "address",
					"name": "router",
					"type": "address"
				}
			],
			"name": "updateRouter",
			"outputs": [],
			"stateMutability": "nonpayable",
			"type": "function"
		},
		{
			"inputs": [
				{
					"internalType": "uint16",
					"name": "_redistribution",
					"type": "uint16"
				},
				{
					"internalType": "uint16",
					"name": "_dev",
					"type": "uint16"
				},
				{
					"internalType": "uint16",
					"name": "_donation",
					"type": "uint16"
				}
			],
			"name": "updateTax",
			"outputs": [],
			"stateMutability": "nonpayable",
			"type": "function"
		},
		{
			"inputs": [
				{
					"internalType": "address",
					"name": "user",
					"type": "address"
				}
			],
			"name": "whitelist",
			"outputs": [],
			"stateMutability": "nonpayable",
			"type": "function"
		},
		{
			"stateMutability": "payable",
			"type": "receive"
		}
	]
}