{
	"data": {
		"bytecode": {
			"linkReferences": {},
			"object": "60806040526002805460ff1990811690915560006008819055600a819055600b819055600e8054909216600117909155601281905560138190556015556016805461ffff19166161a81790553480156200005857600080fd5b5060405162005146380380620051468339810160408190526200007b9162000da5565b6200008633620002f9565b60018055600480546001600160a01b0319163317905560005b60188160ff161015620000f3576007805460018101825560009182527fa66cc928b5edb82af9bd49922954155ab7b0942694bea4ce44661d9a8736c688015580620000ea8162000f4f565b9150506200009f565b506001600160a01b0384166200015a5760405162461bcd60e51b815260206004820152602160248201527f41626f617420546f6b656e2063616e2774206265207a65726f206164647265736044820152607360f81b60648201526084015b60405180910390fd5b6001600160a01b038316620001c15760405162461bcd60e51b815260206004820152602660248201527f44657620616464726573732073686f756c64206e6f74206265207a65726f206160448201526564647265737360d01b606482015260840162000151565b6001600160a01b038216620002285760405162461bcd60e51b815260206004820152602660248201527f46656520616464726573732073686f756c64206e6f74206265207a65726f206160448201526564647265737360d01b606482015260840162000151565b600580546001600160a01b038087166001600160a01b031992831617909255600e805486841661010002610100600160a81b0319909116179055600f805492851692909116919091179055686c6b935b8bbd40000060105560118190556200029d606485600061019081601e60018262000349565b620002b5609685600061012c81605a60018262000349565b620002cc60fa85600060c88160b460018262000349565b620002e561019085600060648161016860018262000349565b620002ef6200060f565b5050505062000f9e565b600080546001600160a01b038381166001600160a01b0319831681178455604051919092169283917f8be0079c531659141344cd1fd0a4f28419497f9722a3daafe3b4186f6b6457e09190a35050565b6000546001600160a01b03163314620003a55760405162461bcd60e51b815260206004820181905260248201527f4f776e61626c653a2063616c6c6572206973206e6f7420746865206f776e6572604482015260640162000151565b6127108561ffff161115620004085760405162461bcd60e51b815260206004820152602260248201527f7365743a206465706f736974206665652063616e277420657863656564203130604482015261202560f01b606482015260840162000151565b8015620004195762000419620006ef565b600060115443116200042e5760115462000430565b435b90506200044e896012546200072060201b620030f01790919060201c565b601281905550600d604051806101400160405280876001600160a01b031681526020018a6001600160a01b031681526020018b8152602001838152602001600081526020018861ffff1681526020016000815260200189815260200186815260200185151581525090806001815401808255809150506001900390600052602060002090600a020160009091909190915060008201518160000160006101000a8154816001600160a01b0302191690836001600160a01b0316021790555060208201518160010160006101000a8154816001600160a01b0302191690836001600160a01b0316021790555060408201518160020155606082015181600301556080820151816004015560a08201518160050160006101000a81548161ffff021916908361ffff16021790555060c0820151816006015560e0820151816007015561010082015181600801556101208201518160090160006101000a81548160ff02191690831515021790555050506001600d80549050620005d0919062000ee8565b6040516001600160a01b038a16907fbe4222bc407cb12031595fc55b46531e46308d31e4572c9c4360d8ae790e1a3190600090a3505050505050505050565b33620006236000546001600160a01b031690565b6001600160a01b031614806200064357506004546001600160a01b031633145b620006b75760405162461bcd60e51b815260206004820152603560248201527f6f70657261746f723a2063616c6c6572206973206e6f7420616c6c6f7765642060448201527f746f2063616c6c20746869732066756e6374696f6e0000000000000000000000606482015260840162000151565b6002805460ff191660011790556040517f2c08b62bfac9a1b19bb1dec9323f1ce01696a77948b256abf3603d30f25a864e90600090a1565b600d5460005b818110156200071c57620007098162000735565b620007148162000f31565b9050620006f5565b5050565b60006200072e828462000e88565b9392505050565b6000600d82815481106200074d576200074d62000f88565b90600052602060002090600a02019050806003015443116200076d575050565b60006200077a83620008cf565b9050806200078d57504360039091015550565b6000620007ad836003015443620009c160201b620030fc1790919060201c565b9050600062000805601254620007f18660020154620007dd60105487620009cf60201b620031081790919060201c565b620009cf60201b620031081790919060201c565b620009dd60201b620031141790919060201c565b90506200083862000826600a83620009dd60201b620031141790919060201c565b62000832908362000e88565b620009eb565b15620008795762000879600e60019054906101000a90046001600160a01b031662000873600a84620009dd60201b620031141790919060201c565b62000a94565b620008ba620008a184620007f164e8d4a5100085620009cf60201b620031081790919060201c565b85600401546200072060201b620030f01790919060201c565b60048501555050436003909201919091555050565b600080600d8381548110620008e857620008e862000f88565b600091825260208220600554600a929092020160018101549093506001600160a01b039182169116148062000926575081546001600160a01b031615155b1562000938575060068101546200072e565b60018201546040516370a0823160e01b81523060048201526001600160a01b03909116906370a082319060240160206040518083038186803b1580156200097e57600080fd5b505afa15801562000993573d6000803e3d6000fd5b505050506040513d601f19601f82011682018060405250810190620009b9919062000e1b565b949350505050565b60006200072e828462000ee8565b60006200072e828462000ec6565b60006200072e828462000ea3565b6013546005546040516370a0823160e01b8152306004820152600092849262000a8c926001600160a01b03909116906370a08231906024015b60206040518083038186803b15801562000a3d57600080fd5b505afa15801562000a52573d6000803e3d6000fd5b505050506040513d601f19601f8201168201806040525081019062000a78919062000e1b565b620009c160201b620030fc1790919060201c565b101592915050565b6005546013546040516370a0823160e01b81523060048201526001600160a01b039092169160009162000ad29184906370a082319060240162000a24565b90508083111562000b085762000b028482846001600160a01b031662000b3360201b62003120179092919060201c565b62000b2d565b62000b2d8484846001600160a01b031662000b3360201b62003120179092919060201c565b50505050565b604080516001600160a01b038416602482015260448082018490528251808303909101815260649091019091526020810180516001600160e01b0390811663a9059cbb60e01b1790915262000b8b91859162000b9016565b505050565b600062000bec826040518060400160405280602081526020017f5361666545524332303a206c6f772d6c6576656c2063616c6c206661696c6564815250856001600160a01b031662000c6e60201b62003188179092919060201c565b80519091501562000b8b578080602001905181019062000c0d919062000df7565b62000b8b5760405162461bcd60e51b815260206004820152602a60248201527f5361666545524332303a204552433230206f7065726174696f6e20646964206e6044820152691bdd081cdd58d8d9595960b21b606482015260840162000151565b6060620009b9848460008585843b62000cca5760405162461bcd60e51b815260206004820152601d60248201527f416464726573733a2063616c6c20746f206e6f6e2d636f6e7472616374000000604482015260640162000151565b600080866001600160a01b0316858760405162000ce8919062000e35565b60006040518083038185875af1925050503d806000811462000d27576040519150601f19603f3d011682016040523d82523d6000602084013e62000d2c565b606091505b50909250905062000d3f82828662000d4a565b979650505050505050565b6060831562000d5b5750816200072e565b82511562000d6c5782518084602001fd5b8160405162461bcd60e51b815260040162000151919062000e53565b80516001600160a01b038116811462000da057600080fd5b919050565b6000806000806080858703121562000dbc57600080fd5b62000dc78562000d88565b935062000dd76020860162000d88565b925062000de76040860162000d88565b6060959095015193969295505050565b60006020828403121562000e0a57600080fd5b815180151581146200072e57600080fd5b60006020828403121562000e2e57600080fd5b5051919050565b6000825162000e4981846020870162000f02565b9190910192915050565b602081526000825180602084015262000e7481604085016020870162000f02565b601f01601f19169190910160400192915050565b6000821982111562000e9e5762000e9e62000f72565b500190565b60008262000ec157634e487b7160e01b600052601260045260246000fd5b500490565b600081600019048311821515161562000ee35762000ee362000f72565b500290565b60008282101562000efd5762000efd62000f72565b500390565b60005b8381101562000f1f57818101518382015260200162000f05565b8381111562000b2d5750506000910152565b600060001982141562000f485762000f4862000f72565b5060010190565b600060ff821660ff81141562000f695762000f6962000f72565b60010192915050565b634e487b7160e01b600052601160045260246000fd5b634e487b7160e01b600052603260045260246000fd5b6141988062000fae6000396000f3fe608060405234801561001057600080fd5b50600436106103835760003560e01c806380c26c34116101de578063a607494a1161010f578063e2bbb158116100ad578063f0c445021161007c578063f0c44502146107b5578063f2fde38b146107c8578063f4762fd6146107db578063f98080c0146107e357600080fd5b8063e2bbb15814610773578063e6c1e89c14610786578063e9a52b6714610799578063edc23f96146107ac57600080fd5b8063ca4164f9116100e9578063ca4164f914610721578063d0d41fe114610734578063d936547e14610747578063da2012481461076a57600080fd5b8063a607494a146106f3578063a6be46aa14610706578063a8b39eee1461070e57600080fd5b80639850d32b1161017c5780639f531156116101565780639f531156146106ad5780639fbe42e3146106c0578063a347511a146106d3578063a3f30d27146106e057600080fd5b80639850d32b146106805780639b4dc8cc146106915780639eed5b33146106a457600080fd5b80638ca20689116101b85780638ca20689146106405780638da5cb5b1461064957806394d45b591461065a57806397e784941461066d57600080fd5b806380c26c34146105c557806382e46b75146105d857806387370846146105eb57600080fd5b8063441a3e70116102b8578063630b5ba111610256578063689d84e411610230578063689d84e4146105335780636e0c9f0a146105a1578063715018a6146105b45780637ba71c55146105bc57600080fd5b8063630b5ba11461051a57806365a2d70114610522578063673a7e281461052b57600080fd5b806351eb05a61161029257806351eb05a6146104c057806357320251146104d3578063575b789c146104f45780635ecbbf981461050757600080fd5b8063441a3e701461049c57806348cd4cb1146104af5780634b94f50e146104b857600080fd5b806329465d42116103255780633ad10ef6116102ff5780633ad10ef6146104605780633e82211c146104785780634127535814610481578063437f660e1461049457600080fd5b806329465d421461041757806334c434e41461043a578063379607f51461044d57600080fd5b806313ea5d291161036157806313ea5d29146103df57806317caf6f1146103f2578063262917d9146103fb57806327de19471461040e57600080fd5b8063081e3eda146103885780630ba84cd21461039f57806311df9995146103b4575b600080fd5b600d545b6040519081526020015b60405180910390f35b6103b26103ad366004613b22565b61080e565b005b6005546103c7906001600160a01b031681565b6040516001600160a01b039091168152602001610396565b6103b26103ed3660046138ca565b610967565b61038c60125481565b6103b2610409366004613c58565b610b8d565b61038c60085481565b61042a610425366004613b22565b610e0b565b6040519015158152602001610396565b6103b26104483660046139ab565b610ea1565b6103b261045b366004613b22565b610ef3565b600e546103c79061010090046001600160a01b031681565b61038c60155481565b600f546103c7906001600160a01b031681565b6103b2611108565b6103b26104aa3660046139e4565b61125e565b61038c60115481565b61038c61159d565b6103b26104ce366004613b22565b611a04565b6016546104e19061ffff1681565b60405161ffff9091168152602001610396565b61038c610502366004613904565b611b15565b61038c610515366004613b22565b611da0565b6103b2611e88565b61038c60095481565b6103b2611eaf565b610546610541366004613b22565b611eb7565b604080516001600160a01b039b8c1681529a90991660208b0152978901969096526060880194909452608087019290925261ffff1660a086015260c085015260e0840152610100830152151561012082015261014001610396565b61038c6105af366004613b22565b611f30565b6103b2611f51565b61038c60135481565b6103b26105d3366004613971565b611f85565b6103b26105e63660046138ca565b611fe6565b6106256105f9366004613b54565b600c60209081526000928352604080842090915290825290208054600182015460029092015490919083565b60408051938452602084019290925290820152606001610396565b61038c600b5481565b6000546001600160a01b03166103c7565b61038c610668366004613945565b6122b4565b6103b261067b366004613b9e565b6123af565b6004546001600160a01b03166103c7565b6006546103c7906001600160a01b031681565b61038c60105481565b6103b26106bb366004613a06565b6125f1565b61038c6106ce366004613b22565b612664565b60025461042a9060ff1681565b6103b26106ee366004613c2a565b612731565b6103b2610701366004613a06565b6127fe565b61038c6128db565b6103b261071c366004613b22565b612988565b61038c61072f366004613b79565b612bd2565b6103b26107423660046138ca565b612c14565b61042a6107553660046138ca565b60176020526000908152604090205460ff1681565b61038c600a5481565b6103b26107813660046139e4565b612dcf565b61038c6107943660046139e4565b612e0a565b61038c6107a7366004613b54565b612e50565b61038c60145481565b6103b26107c3366004613b07565b612f58565b6103b26107d63660046138ca565b612fcf565b6103b261306a565b61038c6107f1366004613a06565b805160208183018101805160038252928201919093012091525481565b6000546001600160a01b031633146108415760405162461bcd60e51b815260040161083890613d2f565b60405180910390fd5b604080518082019091526012815271757064617465456d697373696f6e5261746560701b602082015260025460ff1615806108fc57506003816040516108879190613ce0565b9081526020016040518091039020546000141580156108c45750426003826040516108b29190613ce0565b90815260200160405180910390205411155b80156108fc575042620151806003836040516108e09190613ce0565b9081526020016040518091039020546108f99190613e5e565b10155b6109185760405162461bcd60e51b815260040161083890613d64565b610920611e88565b601082905560405182815233907fe2492e003bbe8afa53088b406f0c1cb5d9e280370fc72a74cf116ffd343c40539060200160405180910390a2610963816125f1565b5050565b3361097a6000546001600160a01b031690565b6001600160a01b0316148061099957506004546001600160a01b031633145b6109b55760405162461bcd60e51b815260040161083890613d90565b60408051808201909152600a81526936b0b4b73a30b4b732b960b11b602082015260025460ff161580610a6857506003816040516109f39190613ce0565b908152602001604051809103902054600014158015610a30575042600382604051610a1e9190613ce0565b90815260200160405180910390205411155b8015610a6857504262015180600383604051610a4c9190613ce0565b908152602001604051809103902054610a659190613e5e565b10155b610a845760405162461bcd60e51b815260040161083890613d64565b6004546001600160a01b03838116911614801590610aaa57506001600160a01b03821615155b610b355760405162461bcd60e51b815260206004820152605060248201527f41424f41543a3a7365744d61696e7461696e65723a204d61696e7461696e657260448201527f2063616e277420657175616c2070726576696f7573206d61696e7461696e657260648201526f206f72207a65726f206164647265737360801b608482015260a401610838565b600480546001600160a01b038481166001600160a01b0319831681179093556040519116919082907f2f3ffaaaad93928855c8700645d1a3643e6ccfdd500efa9fda048a88f557cf0190600090a350610963816125f1565b6000546001600160a01b03163314610bb75760405162461bcd60e51b815260040161083890613d2f565b60408051808201909152601081526f736574506f6f6c5661726961626c657360801b602082015260025460ff161580610c705750600381604051610bfb9190613ce0565b908152602001604051809103902054600014158015610c38575042600382604051610c269190613ce0565b90815260200160405180910390205411155b8015610c7057504262015180600383604051610c549190613ce0565b908152602001604051809103902054610c6d9190613e5e565b10155b610c8c5760405162461bcd60e51b815260040161083890613d64565b6103e88561ffff161115610cb25760405162461bcd60e51b815260040161083890613e1c565b8115610cc057610cc0611e88565b610d0386610cfd600d8a81548110610cda57610cda614113565b90600052602060002090600a0201600201546012546130fc90919063ffffffff16565b906130f0565b60128190555085600d8881548110610d1d57610d1d614113565b90600052602060002090600a02016002018190555084600d8881548110610d4657610d46614113565b90600052602060002090600a020160050160006101000a81548161ffff021916908361ffff16021790555083600d8881548110610d8557610d85614113565b90600052602060002090600a02016008018190555082600d8881548110610dae57610dae614113565b600091825260208220600a9190910201600901805460ff19169215159290921790915560405188917fa844e7199a9e0826e5c245adcd2d35f2f100069597a3e7512afe58f772c4eca991a2610e02816125f1565b50505050505050565b6013546005546040516370a0823160e01b81523060048201526000928492610e99926001600160a01b03909116906370a08231906024015b60206040518083038186803b158015610e5b57600080fd5b505afa158015610e6f573d6000803e3d6000fd5b505050506040513d601f19601f82011682018060405250810190610e939190613b3b565b906130fc565b101592915050565b6000546001600160a01b03163314610ecb5760405162461bcd60e51b815260040161083890613d2f565b6001600160a01b03166000908152601760205260409020805460ff1916911515919091179055565b60026001541415610f165760405162461bcd60e51b815260040161083890613de5565b60026001819055506000600d8281548110610f3357610f33614113565b60009182526020808320858452600c825260408085203386529092529220600a9091029091019150610f6483611a04565b6000610f988260010154610e9364e8d4a51000610f928760040154876000015461310890919063ffffffff16565b90613114565b9050610fa381610e0b565b61100d5760405162461bcd60e51b815260206004820152603560248201527f41424f41543a3a636c61696d3a204e6f7420656e6f7567682041424f415420696044820152746e20636f6e747261637420666f7220636c61696d2160581b6064820152608401610838565b80156110555761101d3382613197565b604051818152849033907f34fcbac0073d7c3d388e51312faf357774904998eeb8fca628b9e6f65ee1cbf79060200160405180910390a35b82546001600160a01b0316156110d65782546007840154604051630ad58d2f60e01b81526004810191909152600060248201523360448201526001600160a01b0390911690630ad58d2f90606401600060405180830381600087803b1580156110bd57600080fd5b505af11580156110d1573d6000803e3d6000fd5b505050505b600483015482546110f19164e8d4a5100091610f9291613108565b60018301556110fe611108565b5050600180555050565b6005546001600160a01b031615806111a357506005546040805163808a545760e01b815290516000926001600160a01b03169163808a5457916004808301926020929190829003018186803b15801561116057600080fd5b505afa158015611174573d6000803e3d6000fd5b505050506040513d601f19601f8201168201806040525081019061119891906138e7565b6001600160a01b0316145b156111aa57565b6111b6610e1042614089565b60095410156112065760006111c961159d565b60088054919250829160079160006111e0836140cc565b91905055815481106111f4576111f4614113565b60009182526020909120015550426009555b6112136201518042614089565b60145410801561122557506002600854115b1561125c5760006112346128db565b426014556000600855600a54909150151561124e82613210565b80156109635761096361324c565b565b600260015414156112815760405162461bcd60e51b815260040161083890613de5565b60026001819055506000600d838154811061129e5761129e614113565b60009182526020808320868452600c8252604080852033865290925292208054600a909202909201925083111561133d5760405162461bcd60e51b815260206004820152603d60248201527f77697468647261773a20776974686472617720616d6f756e742063616e27742060448201527f657863656564207573657273206465706f736974656420616d6f756e740000006064820152608401610838565b61134684611a04565b60006113748260010154610e9364e8d4a51000610f928760040154876000015461310890919063ffffffff16565b905060008111801561138a575061138a81610e0b565b15611399576113993382613197565b831561150457600e5460ff1615806113d15750426113ce8460080154620151806113c3919061402b565b6002850154906130f0565b11155b6114435760405162461bcd60e51b815260206004820152603c60248201527f41424f41543a3a77697468647261773a2043616e27742077697468647261772060448201527f6265666f7265206c6f636b696e6720706572696f6420656e6465642e000000006064820152608401610838565b815461144f90856130fc565b825582546001600160a01b0316156114d65782546007840154604051630ad58d2f60e01b81526004810191909152602481018690523360448201526001600160a01b0390911690630ad58d2f90606401600060405180830381600087803b1580156114b957600080fd5b505af11580156114cd573d6000803e3d6000fd5b505050506114ef565b60018301546114ef906001600160a01b03163386613120565b60068301546114fe90856130fc565b60068401555b6004830154825461151f9164e8d4a5100091610f9291613108565b600180840191909155600554908401546001600160a01b03908116911614156115535760135461154f90856130fc565b6013555b604051848152859033907ff279e6a1f5e320cca91135676d9cb6e44ca8a08c0b88342bcdb1144f6511b5689060200160405180910390a3611592611108565b505060018055505050565b600080600560009054906101000a90046001600160a01b03166001600160a01b031663808a54576040518163ffffffff1660e01b815260040160206040518083038186803b1580156115ee57600080fd5b505afa158015611602573d6000803e3d6000fd5b505050506040513d601f19601f8201168201806040525081019061162691906138e7565b6006549091506001600160a01b0380831691161461166957600680546001600160a01b0319166001600160a01b03831617905560006008819055600a819055600b555b60065460408051630240bc6b60e21b815290516001600160a01b039092169160009182918491630902f1ac916004808301926060929190829003018186803b1580156116b457600080fd5b505afa1580156116c8573d6000803e3d6000fd5b505050506040513d601f19601f820116820180604052508101906116ec9190613ab7565b506001600160701b031691506001600160701b03169150816000148015611711575080155b1561172157600094505050505090565b6000600560009054906101000a90046001600160a01b03166001600160a01b0316846001600160a01b0316630dfe16816040518163ffffffff1660e01b815260040160206040518083038186803b15801561177b57600080fd5b505afa15801561178f573d6000803e3d6000fd5b505050506040513d601f19601f820116820180604052508101906117b391906138e7565b6001600160a01b03161461183757836001600160a01b031663d21220a76040518163ffffffff1660e01b815260040160206040518083038186803b1580156117fa57600080fd5b505afa15801561180e573d6000803e3d6000fd5b505050506040513d601f19601f8201168201806040525081019061183291906138e7565b6118a8565b836001600160a01b031663d21220a76040518163ffffffff1660e01b815260040160206040518083038186803b15801561187057600080fd5b505afa158015611884573d6000803e3d6000fd5b505050506040513d601f19601f820116820180604052508101906118a891906138e7565b90506000600560009054906101000a90046001600160a01b03166001600160a01b0316856001600160a01b0316630dfe16816040518163ffffffff1660e01b815260040160206040518083038186803b15801561190457600080fd5b505afa158015611918573d6000803e3d6000fd5b505050506040513d601f19601f8201168201806040525081019061193c91906138e7565b6001600160a01b0316146119505783611952565b825b905060008482146119635784611965565b835b905080836001600160a01b031663313ce5676040518163ffffffff1660e01b815260040160206040518083038186803b1580156119a157600080fd5b505afa1580156119b5573d6000803e3d6000fd5b505050506040513d601f19601f820116820180604052508101906119d99190613cbd565b6119e490600a613efb565b6119ee908461402b565b6119f89190613ea4565b97505050505050505090565b6000600d8281548110611a1957611a19614113565b90600052602060002090600a0201905080600301544311611a38575050565b6000611a4383611da0565b905080611a5557504360039091015550565b6000611a6e8360030154436130fc90919063ffffffff16565b90506000611a9b601254610f928660020154611a956010548761310890919063ffffffff16565b90613108565b9050611ab5611aab82600a613114565b6104259083613e5e565b15611adf57600e54611adf9061010090046001600160a01b0316611ada83600a613114565b613197565b611b00611af584610f928464e8d4a51000613108565b6004860154906130f0565b60048501555050436003909201919091555050565b6000836001600160a01b038116611b30576000915050611d99565b6000846001600160a01b0316826001600160a01b0316630dfe16816040518163ffffffff1660e01b815260040160206040518083038186803b158015611b7557600080fd5b505afa158015611b89573d6000803e3d6000fd5b505050506040513d601f19601f82011682018060405250810190611bad91906138e7565b6001600160a01b03161490506000856001600160a01b0316836001600160a01b031663d21220a76040518163ffffffff1660e01b815260040160206040518083038186803b158015611bfe57600080fd5b505afa158015611c12573d6000803e3d6000fd5b505050506040513d601f19601f82011682018060405250810190611c3691906138e7565b6001600160a01b0316149050600080846001600160a01b0316630902f1ac6040518163ffffffff1660e01b815260040160606040518083038186803b158015611c7e57600080fd5b505afa158015611c92573d6000803e3d6000fd5b505050506040513d601f19601f82011682018060405250810190611cb69190613ab7565b506001600160701b031691506001600160701b03169150816000148015611cdb575080155b80611ced575083158015611ced575082155b15611d0057600095505050505050611d99565b6000856001600160a01b03166318160ddd6040518163ffffffff1660e01b815260040160206040518083038186803b158015611d3b57600080fd5b505afa158015611d4f573d6000803e3d6000fd5b505050506040513d601f19601f82011682018060405250810190611d739190613b3b565b9050611d9081610f9287611d875784611d89565b855b8b90613108565b96505050505050505b9392505050565b600080600d8381548110611db657611db6614113565b600091825260208220600554600a929092020160018101549093506001600160a01b0391821691161480611df3575081546001600160a01b031615155b15611e0357506006810154611d99565b60018201546040516370a0823160e01b81523060048201526001600160a01b03909116906370a082319060240160206040518083038186803b158015611e4857600080fd5b505afa158015611e5c573d6000803e3d6000fd5b505050506040513d601f19601f82011682018060405250810190611e809190613b3b565b949350505050565b600d5460005b8181101561096357611e9f81611a04565b611ea8816140cc565b9050611e8e565b61125c611108565b600d8181548110611ec757600080fd5b60009182526020909120600a909102018054600182015460028301546003840154600485015460058601546006870154600788015460088901546009909901546001600160a01b039889169a50979096169794969395929461ffff909216939092919060ff168a565b60078181548110611f4057600080fd5b600091825260209091200154905081565b6000546001600160a01b03163314611f7b5760405162461bcd60e51b815260040161083890613d2f565b61125c6000613298565b33611f986000546001600160a01b031690565b6001600160a01b03161480611fb757506004546001600160a01b031633145b611fd35760405162461bcd60e51b815260040161083890613d90565b600e805460ff1916911515919091179055565b6000546001600160a01b031633146120105760405162461bcd60e51b815260040161083890613d2f565b60408051808201909152600781526639b2ba21b7b4b760c91b602082015260025460ff1615806120c0575060038160405161204b9190613ce0565b9081526020016040518091039020546000141580156120885750426003826040516120769190613ce0565b90815260200160405180910390205411155b80156120c0575042620151806003836040516120a49190613ce0565b9081526020016040518091039020546120bd9190613e5e565b10155b6120dc5760405162461bcd60e51b815260040161083890613d64565b6005546001600160a01b038381169116141561214e5760405162461bcd60e51b815260206004820152602b60248201527f41424f41543a3a736574436f696e3a2043616e2774207265706c61636520746860448201526a329039b0b6b29031b7b4b760a91b6064820152608401610838565b6001600160a01b0382166121bb5760405162461bcd60e51b815260206004820152602e60248201527f41424f41543a3a736574436f696e3a2043616e27742073657420636f696e207460448201526d6f207a65726f206164647265737360901b6064820152608401610838565b600580546001600160a01b038481166001600160a01b0319831681179093556040805163808a545760e01b8152905191909216929163808a5457916004808301926020929190829003018186803b15801561221557600080fd5b505afa158015612229573d6000803e3d6000fd5b505050506040513d601f19601f8201168201806040525081019061224d91906138e7565b600680546001600160a01b0319166001600160a01b0392831617905560006008819055600a819055600b819055600554604051908316928416917f2dba03f722a3e07e4f2d2132f8161a513ee0b79eac0d928b67f5dffb49316c1b91a350610963816125f1565b600d5460009081805b828110156123a4576000600d82815481106122da576122da614113565b90600052602060002090600a0201905085600014806122fd575080600801548611155b156123935760018101546005546001600160a01b039182169116808214806123295750600983015460ff165b15612390576000848152600c602090815260408083206001600160a01b03808e168552925290912090838116908316141561237257805461236b9087906130f0565b955061238e565b61238b61238484848460000154611b15565b87906130f0565b95505b505b50505b5061239d816140cc565b90506122bd565b509150505b92915050565b6000546001600160a01b031633146123d95760405162461bcd60e51b815260040161083890613d2f565b6127108561ffff1611156123ff5760405162461bcd60e51b815260040161083890613e1c565b801561240d5761240d611e88565b6000601154431161242057601154612422565b435b601254909150612432908a6130f0565b601281905550600d604051806101400160405280876001600160a01b031681526020018a6001600160a01b031681526020018b8152602001838152602001600081526020018861ffff1681526020016000815260200189815260200186815260200185151581525090806001815401808255809150506001900390600052602060002090600a020160009091909190915060008201518160000160006101000a8154816001600160a01b0302191690836001600160a01b0316021790555060208201518160010160006101000a8154816001600160a01b0302191690836001600160a01b0316021790555060408201518160020155606082015181600301556080820151816004015560a08201518160050160006101000a81548161ffff021916908361ffff16021790555060c0820151816006015560e0820151816007015561010082015181600801556101208201518160090160006101000a81548160ff02191690831515021790555050506001600d805490506125b29190614089565b6040516001600160a01b038a16907fbe4222bc407cb12031595fc55b46531e46308d31e4572c9c4360d8ae790e1a3190600090a3505050505050505050565b336126046000546001600160a01b031690565b6001600160a01b0316148061262357506004546001600160a01b031633145b61263f5760405162461bcd60e51b815260040161083890613d90565b60006003826040516126519190613ce0565b9081526040519081900360200190205550565b600080600d838154811061267a5761267a614113565b60009182526020909120600a909102016005810154815491925061ffff16906001600160a01b031615611d995781546007830154604051639fbe42e360e01b81526004810191909152611e80916001600160a01b031690639fbe42e39060240160206040518083038186803b1580156126f257600080fd5b505afa158015612706573d6000803e3d6000fd5b505050506040513d601f19601f8201168201806040525081019061272a9190613b3b565b82906130f0565b600260015414156127545760405162461bcd60e51b815260040161083890613de5565b60026001553360009081526017602052604090205460ff166127ea5760405162461bcd60e51b815260206004820152604360248201527f41424f41543a3a6465706f736974466f72557365723a20596f7520617265206e60448201527f6f7420616c6c6f77656420746f20657865637574652074686973206465706f7360648201526234ba1760e91b608482015260a401610838565b6127f58383836132e8565b50506001805550565b336128116000546001600160a01b031690565b6001600160a01b0316148061283057506004546001600160a01b031633145b61284c5760405162461bcd60e51b815260040161083890613d90565b6128596201518042613e5e565b6003826040516128699190613ce0565b90815260200160405180910390208190555060038160405161288b9190613ce0565b908152602001604051809103902054816040516128a89190613ce0565b604051908190038120907ff77f9a799fe8b0be1463abd7459a18fc55dfd8a6a24ddd29b54fd098088089c890600090a350565b60008080805b600854811161295b576000600782815481106128ff576128ff614113565b90600052602060002001541115612949576007818154811061292357612923614113565b9060005260206000200154836129399190613e5e565b925081612945816140cc565b9250505b80612953816140cc565b9150506128e1565b5060008211801561296c5750600081115b156129825761297b8282613114565b9250505090565b50919050565b600260015414156129ab5760405162461bcd60e51b815260040161083890613de5565b60026001819055506000600d82815481106129c8576129c8614113565b60009182526020808320858452600c825260408085203386529092529220600e54600a909202909201925060ff161580612a22575042612a1f836008015462015180612a14919061402b565b6002840154906130f0565b11155b612aa75760405162461bcd60e51b815260206004820152604a60248201527f41424f41543a3a7769746864726177576974686f7574526577617264733a204360448201527f616e2774207769746864726177206265666f7265206c6f636b696e672070657260648201526934b7b21032b73232b21760b11b608482015260a401610838565b80546006830154612ab890826130fc565b60068401556000808355600183015582546001600160a01b031615612b4c5782546007840154604051633dcaca9360e21b81526004810191909152602481018390523360448201526001600160a01b039091169063f72b2a4c90606401600060405180830381600087803b158015612b2f57600080fd5b505af1158015612b43573d6000803e3d6000fd5b50505050612b65565b6001830154612b65906001600160a01b03163383613120565b60055460018401546001600160a01b0390811691161415612b9157601354612b8d90826130fc565b6013555b604051818152849033907fbb757047c2b5f3974fe26b7c10f732e7bce710b0952a71082702781e62ae05959060200160405180910390a35050600180555050565b6010546000908215612bf957612bf261272a620f4240610f928488613108565b9050611d99565b611e80612c0d620f4240610f928488613108565b82906130fc565b6000546001600160a01b03163314612c3e5760405162461bcd60e51b815260040161083890613d2f565b60408051808201909152600d81526c7365744465764164647265737360981b602082015260025460ff161580612cf45750600381604051612c7f9190613ce0565b908152602001604051809103902054600014158015612cbc575042600382604051612caa9190613ce0565b90815260200160405180910390205411155b8015612cf457504262015180600383604051612cd89190613ce0565b908152602001604051809103902054612cf19190613e5e565b10155b612d105760405162461bcd60e51b815260040161083890613d64565b6001600160a01b038216612d755760405162461bcd60e51b815260206004820152602660248201527f44657620616464726573732073686f756c64206e6f74206265207a65726f206160448201526564647265737360d01b6064820152608401610838565b600e8054610100600160a81b0319166101006001600160a01b0385169081029190911790915560405133907f618c54559e94f1499a808aad71ee8729f8e74e8c48e979616328ce493a1a52e790600090a3610963816125f1565b60026001541415612df25760405162461bcd60e51b815260040161083890613de5565b6002600155612e028282336132e8565b505060018055565b60008082612e18818661404a565b612e23906064613fa6565b612e2f90612710613fa6565b612e399190613e76565b90506000811215611d9957611e8060001982613fa6565b600080600d8481548110612e6657612e66614113565b60009182526020808320878452600c825260408085206001600160a01b0389168652909252908320600a929092020160048101549093509091612ea887611da0565b9050836003015443118015612ebc57508015155b15612f25576000612eda8560030154436130fc90919063ffffffff16565b90506000612f01601254610f928860020154611a956010548761310890919063ffffffff16565b9050612f20612f1984610f928464e8d4a51000613108565b85906130f0565b935050505b612f4d8360010154610e9364e8d4a51000610f9286886000015461310890919063ffffffff16565b979650505050505050565b6000546001600160a01b03163314612f825760405162461bcd60e51b815260040161083890613d2f565b6016805461ffff191661ffff831690811790915560405190815233907fbad81196170fb9427a5ce7abe0fdf496bb5f5f8bdbacbd118fe8fd7760248b26906020015b60405180910390a250565b6000546001600160a01b03163314612ff95760405162461bcd60e51b815260040161083890613d2f565b6001600160a01b03811661305e5760405162461bcd60e51b815260206004820152602660248201527f4f776e61626c653a206e6577206f776e657220697320746865207a65726f206160448201526564647265737360d01b6064820152608401610838565b61306781613298565b50565b3361307d6000546001600160a01b031690565b6001600160a01b0316148061309c57506004546001600160a01b031633145b6130b85760405162461bcd60e51b815260040161083890613d90565b6002805460ff191660011790556040517f2c08b62bfac9a1b19bb1dec9323f1ce01696a77948b256abf3603d30f25a864e90600090a1565b6000611d998284613e5e565b6000611d998284614089565b6000611d99828461402b565b6000611d998284613ea4565b6040516001600160a01b03831660248201526044810182905261318390849063a9059cbb60e01b906064015b60408051601f198184030181529190526020810180516001600160e01b03166001600160e01b0319909316929092179091526135fd565b505050565b6060611e8084846000856136cf565b6005546013546040516370a0823160e01b81523060048201526001600160a01b03909216916000916131d39184906370a0823190602401610e43565b9050808311156131f6576131f16001600160a01b0383168583613120565b61320a565b61320a6001600160a01b0383168585613120565b50505050565b600a8054600b819055908290556040518291907f4db09ff035e174c21f4ed503b26c1fe141926caa59e40fe975bda1583c3ebfba90600090a350565b600061325c600a54600b54612e0a565b60165490915061ffff16811115613276575060165461ffff165b600061328882600b54600a5411612bd2565b60158390559050610963816137ec565b600080546001600160a01b038381166001600160a01b0319831681178455604051919092169283917f8be0079c531659141344cd1fd0a4f28419497f9722a3daafe3b4186f6b6457e09190a35050565b6000600d84815481106132fd576132fd614113565b60009182526020808320878452600c825260408085206001600160a01b03881686529092529220600a909102909101915061333785611a04565b80541580159061334f57506001600160a01b03831633145b156133965760006133828260010154610e9364e8d4a51000610f928760040154876000015461310890919063ffffffff16565b90508015613394576133948482613197565b505b83801561355a5742600283015560018301546133bd906001600160a01b031633308861382b565b600583015461ffff161561342d5760058301546000906133ea9061271090610f9290899061ffff16613108565b600f54600186015491925061340c916001600160a01b03908116911683613120565b61341686826130fc565b835490925061342590836130f0565b83555061343c565b815461343990866130f0565b82555b600683015461344b90826130f0565b600684015582546001600160a01b03161561355a576001830154835460405163095ea7b360e01b81526001600160a01b0391821660048201526024810184905291169063095ea7b390604401602060405180830381600087803b1580156134b157600080fd5b505af11580156134c5573d6000803e3d6000fd5b505050506040513d601f19601f820116820180604052508101906134e9919061398e565b5082546007840154604051631c57762b60e31b81526001600160a01b039092169163e2bbb15891613527918590600401918252602082015260400190565b600060405180830381600087803b15801561354157600080fd5b505af1158015613555573d6000803e3d6000fd5b505050505b600483015482546135759164e8d4a5100091610f9291613108565b600180840191909155600554908401546001600160a01b03908116911614156135a9576013546135a590826130f0565b6013555b85846001600160a01b03167f90890809c654f11d6e72a28fa60149770a0d11ec6c92319d6ceb2bb0a4ea1a15876040516135e591815260200190565b60405180910390a36135f5611108565b505050505050565b6000613652826040518060400160405280602081526020017f5361666545524332303a206c6f772d6c6576656c2063616c6c206661696c6564815250856001600160a01b03166131889092919063ffffffff16565b8051909150156131835780806020019051810190613670919061398e565b6131835760405162461bcd60e51b815260206004820152602a60248201527f5361666545524332303a204552433230206f7065726174696f6e20646964206e6044820152691bdd081cdd58d8d9595960b21b6064820152608401610838565b6060824710156137305760405162461bcd60e51b815260206004820152602660248201527f416464726573733a20696e73756666696369656e742062616c616e636520666f6044820152651c8818d85b1b60d21b6064820152608401610838565b843b61377e5760405162461bcd60e51b815260206004820152601d60248201527f416464726573733a2063616c6c20746f206e6f6e2d636f6e74726163740000006044820152606401610838565b600080866001600160a01b0316858760405161379a9190613ce0565b60006040518083038185875af1925050503d80600081146137d7576040519150601f19603f3d011682016040523d82523d6000602084013e6137dc565b606091505b5091509150612f4d828286613863565b6137f4611e88565b601081905560405181815230907fe2492e003bbe8afa53088b406f0c1cb5d9e280370fc72a74cf116ffd343c405390602001612fc4565b6040516001600160a01b038085166024830152831660448201526064810182905261320a9085906323b872dd60e01b9060840161314c565b60608315613872575081611d99565b8251156138825782518084602001fd5b8160405162461bcd60e51b81526004016108389190613cfc565b80516001600160701b03811681146138b357600080fd5b919050565b803561ffff811681146138b357600080fd5b6000602082840312156138dc57600080fd5b8135611d998161413f565b6000602082840312156138f957600080fd5b8151611d998161413f565b60008060006060848603121561391957600080fd5b83356139248161413f565b925060208401356139348161413f565b929592945050506040919091013590565b6000806040838503121561395857600080fd5b82356139638161413f565b946020939093013593505050565b60006020828403121561398357600080fd5b8135611d9981614154565b6000602082840312156139a057600080fd5b8151611d9981614154565b600080604083850312156139be57600080fd5b82356139c981614154565b915060208301356139d98161413f565b809150509250929050565b600080604083850312156139f757600080fd5b50508035926020909101359150565b600060208284031215613a1857600080fd5b813567ffffffffffffffff80821115613a3057600080fd5b818401915084601f830112613a4457600080fd5b813581811115613a5657613a56614129565b604051601f8201601f19908116603f01168101908382118183101715613a7e57613a7e614129565b81604052828152876020848701011115613a9757600080fd5b826020860160208301376000928101602001929092525095945050505050565b600080600060608486031215613acc57600080fd5b613ad58461389c565b9250613ae36020850161389c565b9150604084015163ffffffff81168114613afc57600080fd5b809150509250925092565b600060208284031215613b1957600080fd5b611d99826138b8565b600060208284031215613b3457600080fd5b5035919050565b600060208284031215613b4d57600080fd5b5051919050565b60008060408385031215613b6757600080fd5b8235915060208301356139d98161413f565b60008060408385031215613b8c57600080fd5b8235915060208301356139d981614154565b600080600080600080600080610100898b031215613bbb57600080fd5b883597506020890135613bcd8161413f565b965060408901359550613be260608a016138b8565b94506080890135613bf28161413f565b935060a0890135925060c0890135613c0981614154565b915060e0890135613c1981614154565b809150509295985092959890939650565b600080600060608486031215613c3f57600080fd5b83359250602084013591506040840135613afc8161413f565b60008060008060008060c08789031215613c7157600080fd5b8635955060208701359450613c88604088016138b8565b9350606087013592506080870135613c9f81614154565b915060a0870135613caf81614154565b809150509295509295509295565b600060208284031215613ccf57600080fd5b815160ff81168114611d9957600080fd5b60008251613cf28184602087016140a0565b9190910192915050565b6020815260008251806020840152613d1b8160408501602087016140a0565b601f01601f19169190910160400192915050565b6020808252818101527f4f776e61626c653a2063616c6c6572206973206e6f7420746865206f776e6572604082015260600190565b602080825260129082015271119d5b98dd1a5bdb881a5cc81b1bd8dad95960721b604082015260600190565b60208082526035908201527f6f70657261746f723a2063616c6c6572206973206e6f7420616c6c6f776564206040820152743a379031b0b636103a3434b990333ab731ba34b7b760591b606082015260800190565b6020808252601f908201527f5265656e7472616e637947756172643a207265656e7472616e742063616c6c00604082015260600190565b60208082526022908201527f7365743a206465706f736974206665652063616e277420657863656564203130604082015261202560f01b606082015260800190565b60008219821115613e7157613e716140e7565b500190565b600082613e8557613e856140fd565b600160ff1b821460001984141615613e9f57613e9f6140e7565b500590565b600082613eb357613eb36140fd565b500490565b600181815b80851115613ef3578160001904821115613ed957613ed96140e7565b80851615613ee657918102915b93841c9390800290613ebd565b509250929050565b6000611d9960ff841683600082613f14575060016123a9565b81613f21575060006123a9565b8160018114613f375760028114613f4157613f5d565b60019150506123a9565b60ff841115613f5257613f526140e7565b50506001821b6123a9565b5060208310610133831016604e8410600b8410161715613f80575081810a6123a9565b613f8a8383613eb8565b8060001904821115613f9e57613f9e6140e7565b029392505050565b60006001600160ff1b0381841382841380821686840486111615613fcc57613fcc6140e7565b600160ff1b6000871282811687830589121615613feb57613feb6140e7565b60008712925087820587128484161615614007576140076140e7565b8785058712818416161561401d5761401d6140e7565b505050929093029392505050565b6000816000190483118215151615614045576140456140e7565b500290565b60008083128015600160ff1b850184121615614068576140686140e7565b6001600160ff1b0384018313811615614083576140836140e7565b50500390565b60008282101561409b5761409b6140e7565b500390565b60005b838110156140bb5781810151838201526020016140a3565b8381111561320a5750506000910152565b60006000198214156140e0576140e06140e7565b5060010190565b634e487b7160e01b600052601160045260246000fd5b634e487b7160e01b600052601260045260246000fd5b634e487b7160e01b600052603260045260246000fd5b634e487b7160e01b600052604160045260246000fd5b6001600160a01b038116811461306757600080fd5b801515811461306757600080fdfea2646970667358221220239d0f17c4bfc87beeac6168a32d041b2fd1921fc67307c3c773f29f3567d6d764736f6c63430008070033",
			"opcodes": "PUSH1 0x80 PUSH1 0x40 MSTORE PUSH1 0x2 DUP1 SLOAD PUSH1 0xFF NOT SWAP1 DUP2 AND SWAP1 SWAP2 SSTORE PUSH1 0x0 PUSH1 0x8 DUP2 SWAP1 SSTORE PUSH1 0xA DUP2 SWAP1 SSTORE PUSH1 0xB DUP2 SWAP1 SSTORE PUSH1 0xE DUP1 SLOAD SWAP1 SWAP3 AND PUSH1 0x1 OR SWAP1 SWAP2 SSTORE PUSH1 0x12 DUP2 SWAP1 SSTORE PUSH1 0x13 DUP2 SWAP1 SSTORE PUSH1 0x15 SSTORE PUSH1 0x16 DUP1 SLOAD PUSH2 0xFFFF NOT AND PUSH2 0x61A8 OR SWAP1 SSTORE CALLVALUE DUP1 ISZERO PUSH3 0x58 JUMPI PUSH1 0x0 DUP1 REVERT JUMPDEST POP PUSH1 0x40 MLOAD PUSH3 0x5146 CODESIZE SUB DUP1 PUSH3 0x5146 DUP4 CODECOPY DUP2 ADD PUSH1 0x40 DUP2 SWAP1 MSTORE PUSH3 0x7B SWAP2 PUSH3 0xDA5 JUMP JUMPDEST PUSH3 0x86 CALLER PUSH3 0x2F9 JUMP JUMPDEST PUSH1 0x1 DUP1 SSTORE PUSH1 0x4 DUP1 SLOAD PUSH1 0x1 PUSH1 0x1 PUSH1 0xA0 SHL SUB NOT AND CALLER OR SWAP1 SSTORE PUSH1 0x0 JUMPDEST PUSH1 0x18 DUP2 PUSH1 0xFF AND LT ISZERO PUSH3 0xF3 JUMPI PUSH1 0x7 DUP1 SLOAD PUSH1 0x1 DUP2 ADD DUP3 SSTORE PUSH1 0x0 SWAP2 DUP3 MSTORE PUSH32 0xA66CC928B5EDB82AF9BD49922954155AB7B0942694BEA4CE44661D9A8736C688 ADD SSTORE DUP1 PUSH3 0xEA DUP2 PUSH3 0xF4F JUMP JUMPDEST SWAP2 POP POP PUSH3 0x9F JUMP JUMPDEST POP PUSH1 0x1 PUSH1 0x1 PUSH1 0xA0 SHL SUB DUP5 AND PUSH3 0x15A JUMPI PUSH1 0x40 MLOAD PUSH3 0x461BCD PUSH1 0xE5 SHL DUP2 MSTORE PUSH1 0x20 PUSH1 0x4 DUP3 ADD MSTORE PUSH1 0x21 PUSH1 0x24 DUP3 ADD MSTORE PUSH32 0x41626F617420546F6B656E2063616E2774206265207A65726F20616464726573 PUSH1 0x44 DUP3 ADD MSTORE PUSH1 0x73 PUSH1 0xF8 SHL PUSH1 0x64 DUP3 ADD MSTORE PUSH1 0x84 ADD JUMPDEST PUSH1 0x40 MLOAD DUP1 SWAP2 SUB SWAP1 REVERT JUMPDEST PUSH1 0x1 PUSH1 0x1 PUSH1 0xA0 SHL SUB DUP4 AND PUSH3 0x1C1 JUMPI PUSH1 0x40 MLOAD PUSH3 0x461BCD PUSH1 0xE5 SHL DUP2 MSTORE PUSH1 0x20 PUSH1 0x4 DUP3 ADD MSTORE PUSH1 0x26 PUSH1 0x24 DUP3 ADD MSTORE PUSH32 0x44657620616464726573732073686F756C64206E6F74206265207A65726F2061 PUSH1 0x44 DUP3 ADD MSTORE PUSH6 0x646472657373 PUSH1 0xD0 SHL PUSH1 0x64 DUP3 ADD MSTORE PUSH1 0x84 ADD PUSH3 0x151 JUMP JUMPDEST PUSH1 0x1 PUSH1 0x1 PUSH1 0xA0 SHL SUB DUP3 AND PUSH3 0x228 JUMPI PUSH1 0x40 MLOAD PUSH3 0x461BCD PUSH1 0xE5 SHL DUP2 MSTORE PUSH1 0x20 PUSH1 0x4 DUP3 ADD MSTORE PUSH1 0x26 PUSH1 0x24 DUP3 ADD MSTORE PUSH32 0x46656520616464726573732073686F756C64206E6F74206265207A65726F2061 PUSH1 0x44 DUP3 ADD MSTORE PUSH6 0x646472657373 PUSH1 0xD0 SHL PUSH1 0x64 DUP3 ADD MSTORE PUSH1 0x84 ADD PUSH3 0x151 JUMP JUMPDEST PUSH1 0x5 DUP1 SLOAD PUSH1 0x1 PUSH1 0x1 PUSH1 0xA0 SHL SUB DUP1 DUP8 AND PUSH1 0x1 PUSH1 0x1 PUSH1 0xA0 SHL SUB NOT SWAP3 DUP4 AND OR SWAP1 SWAP3 SSTORE PUSH1 0xE DUP1 SLOAD DUP7 DUP5 AND PUSH2 0x100 MUL PUSH2 0x100 PUSH1 0x1 PUSH1 0xA8 SHL SUB NOT SWAP1 SWAP2 AND OR SWAP1 SSTORE PUSH1 0xF DUP1 SLOAD SWAP3 DUP6 AND SWAP3 SWAP1 SWAP2 AND SWAP2 SWAP1 SWAP2 OR SWAP1 SSTORE PUSH9 0x6C6B935B8BBD400000 PUSH1 0x10 SSTORE PUSH1 0x11 DUP2 SWAP1 SSTORE PUSH3 0x29D PUSH1 0x64 DUP6 PUSH1 0x0 PUSH2 0x190 DUP2 PUSH1 0x1E PUSH1 0x1 DUP3 PUSH3 0x349 JUMP JUMPDEST PUSH3 0x2B5 PUSH1 0x96 DUP6 PUSH1 0x0 PUSH2 0x12C DUP2 PUSH1 0x5A PUSH1 0x1 DUP3 PUSH3 0x349 JUMP JUMPDEST PUSH3 0x2CC PUSH1 0xFA DUP6 PUSH1 0x0 PUSH1 0xC8 DUP2 PUSH1 0xB4 PUSH1 0x1 DUP3 PUSH3 0x349 JUMP JUMPDEST PUSH3 0x2E5 PUSH2 0x190 DUP6 PUSH1 0x0 PUSH1 0x64 DUP2 PUSH2 0x168 PUSH1 0x1 DUP3 PUSH3 0x349 JUMP JUMPDEST PUSH3 0x2EF PUSH3 0x60F JUMP JUMPDEST POP POP POP POP PUSH3 0xF9E JUMP JUMPDEST PUSH1 0x0 DUP1 SLOAD PUSH1 0x1 PUSH1 0x1 PUSH1 0xA0 SHL SUB DUP4 DUP2 AND PUSH1 0x1 PUSH1 0x1 PUSH1 0xA0 SHL SUB NOT DUP4 AND DUP2 OR DUP5 SSTORE PUSH1 0x40 MLOAD SWAP2 SWAP1 SWAP3 AND SWAP3 DUP4 SWAP2 PUSH32 0x8BE0079C531659141344CD1FD0A4F28419497F9722A3DAAFE3B4186F6B6457E0 SWAP2 SWAP1 LOG3 POP POP JUMP JUMPDEST PUSH1 0x0 SLOAD PUSH1 0x1 PUSH1 0x1 PUSH1 0xA0 SHL SUB AND CALLER EQ PUSH3 0x3A5 JUMPI PUSH1 0x40 MLOAD PUSH3 0x461BCD PUSH1 0xE5 SHL DUP2 MSTORE PUSH1 0x20 PUSH1 0x4 DUP3 ADD DUP2 SWAP1 MSTORE PUSH1 0x24 DUP3 ADD MSTORE PUSH32 0x4F776E61626C653A2063616C6C6572206973206E6F7420746865206F776E6572 PUSH1 0x44 DUP3 ADD MSTORE PUSH1 0x64 ADD PUSH3 0x151 JUMP JUMPDEST PUSH2 0x2710 DUP6 PUSH2 0xFFFF AND GT ISZERO PUSH3 0x408 JUMPI PUSH1 0x40 MLOAD PUSH3 0x461BCD PUSH1 0xE5 SHL DUP2 MSTORE PUSH1 0x20 PUSH1 0x4 DUP3 ADD MSTORE PUSH1 0x22 PUSH1 0x24 DUP3 ADD MSTORE PUSH32 0x7365743A206465706F736974206665652063616E277420657863656564203130 PUSH1 0x44 DUP3 ADD MSTORE PUSH2 0x2025 PUSH1 0xF0 SHL PUSH1 0x64 DUP3 ADD MSTORE PUSH1 0x84 ADD PUSH3 0x151 JUMP JUMPDEST DUP1 ISZERO PUSH3 0x419 JUMPI PUSH3 0x419 PUSH3 0x6EF JUMP JUMPDEST PUSH1 0x0 PUSH1 0x11 SLOAD NUMBER GT PUSH3 0x42E JUMPI PUSH1 0x11 SLOAD PUSH3 0x430 JUMP JUMPDEST NUMBER JUMPDEST SWAP1 POP PUSH3 0x44E DUP10 PUSH1 0x12 SLOAD PUSH3 0x720 PUSH1 0x20 SHL PUSH3 0x30F0 OR SWAP1 SWAP2 SWAP1 PUSH1 0x20 SHR JUMP JUMPDEST PUSH1 0x12 DUP2 SWAP1 SSTORE POP PUSH1 0xD PUSH1 0x40 MLOAD DUP1 PUSH2 0x140 ADD PUSH1 0x40 MSTORE DUP1 DUP8 PUSH1 0x1 PUSH1 0x1 PUSH1 0xA0 SHL SUB AND DUP2 MSTORE PUSH1 0x20 ADD DUP11 PUSH1 0x1 PUSH1 0x1 PUSH1 0xA0 SHL SUB AND DUP2 MSTORE PUSH1 0x20 ADD DUP12 DUP2 MSTORE PUSH1 0x20 ADD DUP4 DUP2 MSTORE PUSH1 0x20 ADD PUSH1 0x0 DUP2 MSTORE PUSH1 0x20 ADD DUP9 PUSH2 0xFFFF AND DUP2 MSTORE PUSH1 0x20 ADD PUSH1 0x0 DUP2 MSTORE PUSH1 0x20 ADD DUP10 DUP2 MSTORE PUSH1 0x20 ADD DUP7 DUP2 MSTORE PUSH1 0x20 ADD DUP6 ISZERO ISZERO DUP2 MSTORE POP SWAP1 DUP1 PUSH1 0x1 DUP2 SLOAD ADD DUP1 DUP3 SSTORE DUP1 SWAP2 POP POP PUSH1 0x1 SWAP1 SUB SWAP1 PUSH1 0x0 MSTORE PUSH1 0x20 PUSH1 0x0 KECCAK256 SWAP1 PUSH1 0xA MUL ADD PUSH1 0x0 SWAP1 SWAP2 SWAP1 SWAP2 SWAP1 SWAP2 POP PUSH1 0x0 DUP3 ADD MLOAD DUP2 PUSH1 0x0 ADD PUSH1 0x0 PUSH2 0x100 EXP DUP2 SLOAD DUP2 PUSH1 0x1 PUSH1 0x1 PUSH1 0xA0 SHL SUB MUL NOT AND SWAP1 DUP4 PUSH1 0x1 PUSH1 0x1 PUSH1 0xA0 SHL SUB AND MUL OR SWAP1 SSTORE POP PUSH1 0x20 DUP3 ADD MLOAD DUP2 PUSH1 0x1 ADD PUSH1 0x0 PUSH2 0x100 EXP DUP2 SLOAD DUP2 PUSH1 0x1 PUSH1 0x1 PUSH1 0xA0 SHL SUB MUL NOT AND SWAP1 DUP4 PUSH1 0x1 PUSH1 0x1 PUSH1 0xA0 SHL SUB AND MUL OR SWAP1 SSTORE POP PUSH1 0x40 DUP3 ADD MLOAD DUP2 PUSH1 0x2 ADD SSTORE PUSH1 0x60 DUP3 ADD MLOAD DUP2 PUSH1 0x3 ADD SSTORE PUSH1 0x80 DUP3 ADD MLOAD DUP2 PUSH1 0x4 ADD SSTORE PUSH1 0xA0 DUP3 ADD MLOAD DUP2 PUSH1 0x5 ADD PUSH1 0x0 PUSH2 0x100 EXP DUP2 SLOAD DUP2 PUSH2 0xFFFF MUL NOT AND SWAP1 DUP4 PUSH2 0xFFFF AND MUL OR SWAP1 SSTORE POP PUSH1 0xC0 DUP3 ADD MLOAD DUP2 PUSH1 0x6 ADD SSTORE PUSH1 0xE0 DUP3 ADD MLOAD DUP2 PUSH1 0x7 ADD SSTORE PUSH2 0x100 DUP3 ADD MLOAD DUP2 PUSH1 0x8 ADD SSTORE PUSH2 0x120 DUP3 ADD MLOAD DUP2 PUSH1 0x9 ADD PUSH1 0x0 PUSH2 0x100 EXP DUP2 SLOAD DUP2 PUSH1 0xFF MUL NOT AND SWAP1 DUP4 ISZERO ISZERO MUL OR SWAP1 SSTORE POP POP POP PUSH1 0x1 PUSH1 0xD DUP1 SLOAD SWAP1 POP PUSH3 0x5D0 SWAP2 SWAP1 PUSH3 0xEE8 JUMP JUMPDEST PUSH1 0x40 MLOAD PUSH1 0x1 PUSH1 0x1 PUSH1 0xA0 SHL SUB DUP11 AND SWAP1 PUSH32 0xBE4222BC407CB12031595FC55B46531E46308D31E4572C9C4360D8AE790E1A31 SWAP1 PUSH1 0x0 SWAP1 LOG3 POP POP POP POP POP POP POP POP POP JUMP JUMPDEST CALLER PUSH3 0x623 PUSH1 0x0 SLOAD PUSH1 0x1 PUSH1 0x1 PUSH1 0xA0 SHL SUB AND SWAP1 JUMP JUMPDEST PUSH1 0x1 PUSH1 0x1 PUSH1 0xA0 SHL SUB AND EQ DUP1 PUSH3 0x643 JUMPI POP PUSH1 0x4 SLOAD PUSH1 0x1 PUSH1 0x1 PUSH1 0xA0 SHL SUB AND CALLER EQ JUMPDEST PUSH3 0x6B7 JUMPI PUSH1 0x40 MLOAD PUSH3 0x461BCD PUSH1 0xE5 SHL DUP2 MSTORE PUSH1 0x20 PUSH1 0x4 DUP3 ADD MSTORE PUSH1 0x35 PUSH1 0x24 DUP3 ADD MSTORE PUSH32 0x6F70657261746F723A2063616C6C6572206973206E6F7420616C6C6F77656420 PUSH1 0x44 DUP3 ADD MSTORE PUSH32 0x746F2063616C6C20746869732066756E6374696F6E0000000000000000000000 PUSH1 0x64 DUP3 ADD MSTORE PUSH1 0x84 ADD PUSH3 0x151 JUMP JUMPDEST PUSH1 0x2 DUP1 SLOAD PUSH1 0xFF NOT AND PUSH1 0x1 OR SWAP1 SSTORE PUSH1 0x40 MLOAD PUSH32 0x2C08B62BFAC9A1B19BB1DEC9323F1CE01696A77948B256ABF3603D30F25A864E SWAP1 PUSH1 0x0 SWAP1 LOG1 JUMP JUMPDEST PUSH1 0xD SLOAD PUSH1 0x0 JUMPDEST DUP2 DUP2 LT ISZERO PUSH3 0x71C JUMPI PUSH3 0x709 DUP2 PUSH3 0x735 JUMP JUMPDEST PUSH3 0x714 DUP2 PUSH3 0xF31 JUMP JUMPDEST SWAP1 POP PUSH3 0x6F5 JUMP JUMPDEST POP POP JUMP JUMPDEST PUSH1 0x0 PUSH3 0x72E DUP3 DUP5 PUSH3 0xE88 JUMP JUMPDEST SWAP4 SWAP3 POP POP POP JUMP JUMPDEST PUSH1 0x0 PUSH1 0xD DUP3 DUP2 SLOAD DUP2 LT PUSH3 0x74D JUMPI PUSH3 0x74D PUSH3 0xF88 JUMP JUMPDEST SWAP1 PUSH1 0x0 MSTORE PUSH1 0x20 PUSH1 0x0 KECCAK256 SWAP1 PUSH1 0xA MUL ADD SWAP1 POP DUP1 PUSH1 0x3 ADD SLOAD NUMBER GT PUSH3 0x76D JUMPI POP POP JUMP JUMPDEST PUSH1 0x0 PUSH3 0x77A DUP4 PUSH3 0x8CF JUMP JUMPDEST SWAP1 POP DUP1 PUSH3 0x78D JUMPI POP NUMBER PUSH1 0x3 SWAP1 SWAP2 ADD SSTORE POP JUMP JUMPDEST PUSH1 0x0 PUSH3 0x7AD DUP4 PUSH1 0x3 ADD SLOAD NUMBER PUSH3 0x9C1 PUSH1 0x20 SHL PUSH3 0x30FC OR SWAP1 SWAP2 SWAP1 PUSH1 0x20 SHR JUMP JUMPDEST SWAP1 POP PUSH1 0x0 PUSH3 0x805 PUSH1 0x12 SLOAD PUSH3 0x7F1 DUP7 PUSH1 0x2 ADD SLOAD PUSH3 0x7DD PUSH1 0x10 SLOAD DUP8 PUSH3 0x9CF PUSH1 0x20 SHL PUSH3 0x3108 OR SWAP1 SWAP2 SWAP1 PUSH1 0x20 SHR JUMP JUMPDEST PUSH3 0x9CF PUSH1 0x20 SHL PUSH3 0x3108 OR SWAP1 SWAP2 SWAP1 PUSH1 0x20 SHR JUMP JUMPDEST PUSH3 0x9DD PUSH1 0x20 SHL PUSH3 0x3114 OR SWAP1 SWAP2 SWAP1 PUSH1 0x20 SHR JUMP JUMPDEST SWAP1 POP PUSH3 0x838 PUSH3 0x826 PUSH1 0xA DUP4 PUSH3 0x9DD PUSH1 0x20 SHL PUSH3 0x3114 OR SWAP1 SWAP2 SWAP1 PUSH1 0x20 SHR JUMP JUMPDEST PUSH3 0x832 SWAP1 DUP4 PUSH3 0xE88 JUMP JUMPDEST PUSH3 0x9EB JUMP JUMPDEST ISZERO PUSH3 0x879 JUMPI PUSH3 0x879 PUSH1 0xE PUSH1 0x1 SWAP1 SLOAD SWAP1 PUSH2 0x100 EXP SWAP1 DIV PUSH1 0x1 PUSH1 0x1 PUSH1 0xA0 SHL SUB AND PUSH3 0x873 PUSH1 0xA DUP5 PUSH3 0x9DD PUSH1 0x20 SHL PUSH3 0x3114 OR SWAP1 SWAP2 SWAP1 PUSH1 0x20 SHR JUMP JUMPDEST PUSH3 0xA94 JUMP JUMPDEST PUSH3 0x8BA PUSH3 0x8A1 DUP5 PUSH3 0x7F1 PUSH5 0xE8D4A51000 DUP6 PUSH3 0x9CF PUSH1 0x20 SHL PUSH3 0x3108 OR SWAP1 SWAP2 SWAP1 PUSH1 0x20 SHR JUMP JUMPDEST DUP6 PUSH1 0x4 ADD SLOAD PUSH3 0x720 PUSH1 0x20 SHL PUSH3 0x30F0 OR SWAP1 SWAP2 SWAP1 PUSH1 0x20 SHR JUMP JUMPDEST PUSH1 0x4 DUP6 ADD SSTORE POP POP NUMBER PUSH1 0x3 SWAP1 SWAP3 ADD SWAP2 SWAP1 SWAP2 SSTORE POP POP JUMP JUMPDEST PUSH1 0x0 DUP1 PUSH1 0xD DUP4 DUP2 SLOAD DUP2 LT PUSH3 0x8E8 JUMPI PUSH3 0x8E8 PUSH3 0xF88 JUMP JUMPDEST PUSH1 0x0 SWAP2 DUP3 MSTORE PUSH1 0x20 DUP3 KECCAK256 PUSH1 0x5 SLOAD PUSH1 0xA SWAP3 SWAP1 SWAP3 MUL ADD PUSH1 0x1 DUP2 ADD SLOAD SWAP1 SWAP4 POP PUSH1 0x1 PUSH1 0x1 PUSH1 0xA0 SHL SUB SWAP2 DUP3 AND SWAP2 AND EQ DUP1 PUSH3 0x926 JUMPI POP DUP2 SLOAD PUSH1 0x1 PUSH1 0x1 PUSH1 0xA0 SHL SUB AND ISZERO ISZERO JUMPDEST ISZERO PUSH3 0x938 JUMPI POP PUSH1 0x6 DUP2 ADD SLOAD PUSH3 0x72E JUMP JUMPDEST PUSH1 0x1 DUP3 ADD SLOAD PUSH1 0x40 MLOAD PUSH4 0x70A08231 PUSH1 0xE0 SHL DUP2 MSTORE ADDRESS PUSH1 0x4 DUP3 ADD MSTORE PUSH1 0x1 PUSH1 0x1 PUSH1 0xA0 SHL SUB SWAP1 SWAP2 AND SWAP1 PUSH4 0x70A08231 SWAP1 PUSH1 0x24 ADD PUSH1 0x20 PUSH1 0x40 MLOAD DUP1 DUP4 SUB DUP2 DUP7 DUP1 EXTCODESIZE ISZERO DUP1 ISZERO PUSH3 0x97E JUMPI PUSH1 0x0 DUP1 REVERT JUMPDEST POP GAS STATICCALL ISZERO DUP1 ISZERO PUSH3 0x993 JUMPI RETURNDATASIZE PUSH1 0x0 DUP1 RETURNDATACOPY RETURNDATASIZE PUSH1 0x0 REVERT JUMPDEST POP POP POP POP PUSH1 0x40 MLOAD RETURNDATASIZE PUSH1 0x1F NOT PUSH1 0x1F DUP3 ADD AND DUP3 ADD DUP1 PUSH1 0x40 MSTORE POP DUP2 ADD SWAP1 PUSH3 0x9B9 SWAP2 SWAP1 PUSH3 0xE1B JUMP JUMPDEST SWAP5 SWAP4 POP POP POP POP JUMP JUMPDEST PUSH1 0x0 PUSH3 0x72E DUP3 DUP5 PUSH3 0xEE8 JUMP JUMPDEST PUSH1 0x0 PUSH3 0x72E DUP3 DUP5 PUSH3 0xEC6 JUMP JUMPDEST PUSH1 0x0 PUSH3 0x72E DUP3 DUP5 PUSH3 0xEA3 JUMP JUMPDEST PUSH1 0x13 SLOAD PUSH1 0x5 SLOAD PUSH1 0x40 MLOAD PUSH4 0x70A08231 PUSH1 0xE0 SHL DUP2 MSTORE ADDRESS PUSH1 0x4 DUP3 ADD MSTORE PUSH1 0x0 SWAP3 DUP5 SWAP3 PUSH3 0xA8C SWAP3 PUSH1 0x1 PUSH1 0x1 PUSH1 0xA0 SHL SUB SWAP1 SWAP2 AND SWAP1 PUSH4 0x70A08231 SWAP1 PUSH1 0x24 ADD JUMPDEST PUSH1 0x20 PUSH1 0x40 MLOAD DUP1 DUP4 SUB DUP2 DUP7 DUP1 EXTCODESIZE ISZERO DUP1 ISZERO PUSH3 0xA3D JUMPI PUSH1 0x0 DUP1 REVERT JUMPDEST POP GAS STATICCALL ISZERO DUP1 ISZERO PUSH3 0xA52 JUMPI RETURNDATASIZE PUSH1 0x0 DUP1 RETURNDATACOPY RETURNDATASIZE PUSH1 0x0 REVERT JUMPDEST POP POP POP POP PUSH1 0x40 MLOAD RETURNDATASIZE PUSH1 0x1F NOT PUSH1 0x1F DUP3 ADD AND DUP3 ADD DUP1 PUSH1 0x40 MSTORE POP DUP2 ADD SWAP1 PUSH3 0xA78 SWAP2 SWAP1 PUSH3 0xE1B JUMP JUMPDEST PUSH3 0x9C1 PUSH1 0x20 SHL PUSH3 0x30FC OR SWAP1 SWAP2 SWAP1 PUSH1 0x20 SHR JUMP JUMPDEST LT ISZERO SWAP3 SWAP2 POP POP JUMP JUMPDEST PUSH1 0x5 SLOAD PUSH1 0x13 SLOAD PUSH1 0x40 MLOAD PUSH4 0x70A08231 PUSH1 0xE0 SHL DUP2 MSTORE ADDRESS PUSH1 0x4 DUP3 ADD MSTORE PUSH1 0x1 PUSH1 0x1 PUSH1 0xA0 SHL SUB SWAP1 SWAP3 AND SWAP2 PUSH1 0x0 SWAP2 PUSH3 0xAD2 SWAP2 DUP5 SWAP1 PUSH4 0x70A08231 SWAP1 PUSH1 0x24 ADD PUSH3 0xA24 JUMP JUMPDEST SWAP1 POP DUP1 DUP4 GT ISZERO PUSH3 0xB08 JUMPI PUSH3 0xB02 DUP5 DUP3 DUP5 PUSH1 0x1 PUSH1 0x1 PUSH1 0xA0 SHL SUB AND PUSH3 0xB33 PUSH1 0x20 SHL PUSH3 0x3120 OR SWAP1 SWAP3 SWAP2 SWAP1 PUSH1 0x20 SHR JUMP JUMPDEST PUSH3 0xB2D JUMP JUMPDEST PUSH3 0xB2D DUP5 DUP5 DUP5 PUSH1 0x1 PUSH1 0x1 PUSH1 0xA0 SHL SUB AND PUSH3 0xB33 PUSH1 0x20 SHL PUSH3 0x3120 OR SWAP1 SWAP3 SWAP2 SWAP1 PUSH1 0x20 SHR JUMP JUMPDEST POP POP POP POP JUMP JUMPDEST PUSH1 0x40 DUP1 MLOAD PUSH1 0x1 PUSH1 0x1 PUSH1 0xA0 SHL SUB DUP5 AND PUSH1 0x24 DUP3 ADD MSTORE PUSH1 0x44 DUP1 DUP3 ADD DUP5 SWAP1 MSTORE DUP3 MLOAD DUP1 DUP4 SUB SWAP1 SWAP2 ADD DUP2 MSTORE PUSH1 0x64 SWAP1 SWAP2 ADD SWAP1 SWAP2 MSTORE PUSH1 0x20 DUP2 ADD DUP1 MLOAD PUSH1 0x1 PUSH1 0x1 PUSH1 0xE0 SHL SUB SWAP1 DUP2 AND PUSH4 0xA9059CBB PUSH1 0xE0 SHL OR SWAP1 SWAP2 MSTORE PUSH3 0xB8B SWAP2 DUP6 SWAP2 PUSH3 0xB90 AND JUMP JUMPDEST POP POP POP JUMP JUMPDEST PUSH1 0x0 PUSH3 0xBEC DUP3 PUSH1 0x40 MLOAD DUP1 PUSH1 0x40 ADD PUSH1 0x40 MSTORE DUP1 PUSH1 0x20 DUP2 MSTORE PUSH1 0x20 ADD PUSH32 0x5361666545524332303A206C6F772D6C6576656C2063616C6C206661696C6564 DUP2 MSTORE POP DUP6 PUSH1 0x1 PUSH1 0x1 PUSH1 0xA0 SHL SUB AND PUSH3 0xC6E PUSH1 0x20 SHL PUSH3 0x3188 OR SWAP1 SWAP3 SWAP2 SWAP1 PUSH1 0x20 SHR JUMP JUMPDEST DUP1 MLOAD SWAP1 SWAP2 POP ISZERO PUSH3 0xB8B JUMPI DUP1 DUP1 PUSH1 0x20 ADD SWAP1 MLOAD DUP2 ADD SWAP1 PUSH3 0xC0D SWAP2 SWAP1 PUSH3 0xDF7 JUMP JUMPDEST PUSH3 0xB8B JUMPI PUSH1 0x40 MLOAD PUSH3 0x461BCD PUSH1 0xE5 SHL DUP2 MSTORE PUSH1 0x20 PUSH1 0x4 DUP3 ADD MSTORE PUSH1 0x2A PUSH1 0x24 DUP3 ADD MSTORE PUSH32 0x5361666545524332303A204552433230206F7065726174696F6E20646964206E PUSH1 0x44 DUP3 ADD MSTORE PUSH10 0x1BDD081CDD58D8D95959 PUSH1 0xB2 SHL PUSH1 0x64 DUP3 ADD MSTORE PUSH1 0x84 ADD PUSH3 0x151 JUMP JUMPDEST PUSH1 0x60 PUSH3 0x9B9 DUP5 DUP5 PUSH1 0x0 DUP6 DUP6 DUP5 EXTCODESIZE PUSH3 0xCCA JUMPI PUSH1 0x40 MLOAD PUSH3 0x461BCD PUSH1 0xE5 SHL DUP2 MSTORE PUSH1 0x20 PUSH1 0x4 DUP3 ADD MSTORE PUSH1 0x1D PUSH1 0x24 DUP3 ADD MSTORE PUSH32 0x416464726573733A2063616C6C20746F206E6F6E2D636F6E7472616374000000 PUSH1 0x44 DUP3 ADD MSTORE PUSH1 0x64 ADD PUSH3 0x151 JUMP JUMPDEST PUSH1 0x0 DUP1 DUP7 PUSH1 0x1 PUSH1 0x1 PUSH1 0xA0 SHL SUB AND DUP6 DUP8 PUSH1 0x40 MLOAD PUSH3 0xCE8 SWAP2 SWAP1 PUSH3 0xE35 JUMP JUMPDEST PUSH1 0x0 PUSH1 0x40 MLOAD DUP1 DUP4 SUB DUP2 DUP6 DUP8 GAS CALL SWAP3 POP POP POP RETURNDATASIZE DUP1 PUSH1 0x0 DUP2 EQ PUSH3 0xD27 JUMPI PUSH1 0x40 MLOAD SWAP2 POP PUSH1 0x1F NOT PUSH1 0x3F RETURNDATASIZE ADD AND DUP3 ADD PUSH1 0x40 MSTORE RETURNDATASIZE DUP3 MSTORE RETURNDATASIZE PUSH1 0x0 PUSH1 0x20 DUP5 ADD RETURNDATACOPY PUSH3 0xD2C JUMP JUMPDEST PUSH1 0x60 SWAP2 POP JUMPDEST POP SWAP1 SWAP3 POP SWAP1 POP PUSH3 0xD3F DUP3 DUP3 DUP7 PUSH3 0xD4A JUMP JUMPDEST SWAP8 SWAP7 POP POP POP POP POP POP POP JUMP JUMPDEST PUSH1 0x60 DUP4 ISZERO PUSH3 0xD5B JUMPI POP DUP2 PUSH3 0x72E JUMP JUMPDEST DUP3 MLOAD ISZERO PUSH3 0xD6C JUMPI DUP3 MLOAD DUP1 DUP5 PUSH1 0x20 ADD REVERT JUMPDEST DUP2 PUSH1 0x40 MLOAD PUSH3 0x461BCD PUSH1 0xE5 SHL DUP2 MSTORE PUSH1 0x4 ADD PUSH3 0x151 SWAP2 SWAP1 PUSH3 0xE53 JUMP JUMPDEST DUP1 MLOAD PUSH1 0x1 PUSH1 0x1 PUSH1 0xA0 SHL SUB DUP2 AND DUP2 EQ PUSH3 0xDA0 JUMPI PUSH1 0x0 DUP1 REVERT JUMPDEST SWAP2 SWAP1 POP JUMP JUMPDEST PUSH1 0x0 DUP1 PUSH1 0x0 DUP1 PUSH1 0x80 DUP6 DUP8 SUB SLT ISZERO PUSH3 0xDBC JUMPI PUSH1 0x0 DUP1 REVERT JUMPDEST PUSH3 0xDC7 DUP6 PUSH3 0xD88 JUMP JUMPDEST SWAP4 POP PUSH3 0xDD7 PUSH1 0x20 DUP7 ADD PUSH3 0xD88 JUMP JUMPDEST SWAP3 POP PUSH3 0xDE7 PUSH1 0x40 DUP7 ADD PUSH3 0xD88 JUMP JUMPDEST PUSH1 0x60 SWAP6 SWAP1 SWAP6 ADD MLOAD SWAP4 SWAP7 SWAP3 SWAP6 POP POP POP JUMP JUMPDEST PUSH1 0x0 PUSH1 0x20 DUP3 DUP5 SUB SLT ISZERO PUSH3 0xE0A JUMPI PUSH1 0x0 DUP1 REVERT JUMPDEST DUP2 MLOAD DUP1 ISZERO ISZERO DUP2 EQ PUSH3 0x72E JUMPI PUSH1 0x0 DUP1 REVERT JUMPDEST PUSH1 0x0 PUSH1 0x20 DUP3 DUP5 SUB SLT ISZERO PUSH3 0xE2E JUMPI PUSH1 0x0 DUP1 REVERT JUMPDEST POP MLOAD SWAP2 SWAP1 POP JUMP JUMPDEST PUSH1 0x0 DUP3 MLOAD PUSH3 0xE49 DUP2 DUP5 PUSH1 0x20 DUP8 ADD PUSH3 0xF02 JUMP JUMPDEST SWAP2 SWAP1 SWAP2 ADD SWAP3 SWAP2 POP POP JUMP JUMPDEST PUSH1 0x20 DUP2 MSTORE PUSH1 0x0 DUP3 MLOAD DUP1 PUSH1 0x20 DUP5 ADD MSTORE PUSH3 0xE74 DUP2 PUSH1 0x40 DUP6 ADD PUSH1 0x20 DUP8 ADD PUSH3 0xF02 JUMP JUMPDEST PUSH1 0x1F ADD PUSH1 0x1F NOT AND SWAP2 SWAP1 SWAP2 ADD PUSH1 0x40 ADD SWAP3 SWAP2 POP POP JUMP JUMPDEST PUSH1 0x0 DUP3 NOT DUP3 GT ISZERO PUSH3 0xE9E JUMPI PUSH3 0xE9E PUSH3 0xF72 JUMP JUMPDEST POP ADD SWAP1 JUMP JUMPDEST PUSH1 0x0 DUP3 PUSH3 0xEC1 JUMPI PUSH4 0x4E487B71 PUSH1 0xE0 SHL PUSH1 0x0 MSTORE PUSH1 0x12 PUSH1 0x4 MSTORE PUSH1 0x24 PUSH1 0x0 REVERT JUMPDEST POP DIV SWAP1 JUMP JUMPDEST PUSH1 0x0 DUP2 PUSH1 0x0 NOT DIV DUP4 GT DUP3 ISZERO ISZERO AND ISZERO PUSH3 0xEE3 JUMPI PUSH3 0xEE3 PUSH3 0xF72 JUMP JUMPDEST POP MUL SWAP1 JUMP JUMPDEST PUSH1 0x0 DUP3 DUP3 LT ISZERO PUSH3 0xEFD JUMPI PUSH3 0xEFD PUSH3 0xF72 JUMP JUMPDEST POP SUB SWAP1 JUMP JUMPDEST PUSH1 0x0 JUMPDEST DUP4 DUP2 LT ISZERO PUSH3 0xF1F JUMPI DUP2 DUP2 ADD MLOAD DUP4 DUP3 ADD MSTORE PUSH1 0x20 ADD PUSH3 0xF05 JUMP JUMPDEST DUP4 DUP2 GT ISZERO PUSH3 0xB2D JUMPI POP POP PUSH1 0x0 SWAP2 ADD MSTORE JUMP JUMPDEST PUSH1 0x0 PUSH1 0x0 NOT DUP3 EQ ISZERO PUSH3 0xF48 JUMPI PUSH3 0xF48 PUSH3 0xF72 JUMP JUMPDEST POP PUSH1 0x1 ADD SWAP1 JUMP JUMPDEST PUSH1 0x0 PUSH1 0xFF DUP3 AND PUSH1 0xFF DUP2 EQ ISZERO PUSH3 0xF69 JUMPI PUSH3 0xF69 PUSH3 0xF72 JUMP JUMPDEST PUSH1 0x1 ADD SWAP3 SWAP2 POP POP JUMP JUMPDEST PUSH4 0x4E487B71 PUSH1 0xE0 SHL PUSH1 0x0 MSTORE PUSH1 0x11 PUSH1 0x4 MSTORE PUSH1 0x24 PUSH1 0x0 REVERT JUMPDEST PUSH4 0x4E487B71 PUSH1 0xE0 SHL PUSH1 0x0 MSTORE PUSH1 0x32 PUSH1 0x4 MSTORE PUSH1 0x24 PUSH1 0x0 REVERT JUMPDEST PUSH2 0x4198 DUP1 PUSH3 0xFAE PUSH1 0x0 CODECOPY PUSH1 0x0 RETURN INVALID PUSH1 0x80 PUSH1 0x40 MSTORE CALLVALUE DUP1 ISZERO PUSH2 0x10 JUMPI PUSH1 0x0 DUP1 REVERT JUMPDEST POP PUSH1 0x4 CALLDATASIZE LT PUSH2 0x383 JUMPI PUSH1 0x0 CALLDATALOAD PUSH1 0xE0 SHR DUP1 PUSH4 0x80C26C34 GT PUSH2 0x1DE JUMPI DUP1 PUSH4 0xA607494A GT PUSH2 0x10F JUMPI DUP1 PUSH4 0xE2BBB158 GT PUSH2 0xAD JUMPI DUP1 PUSH4 0xF0C44502 GT PUSH2 0x7C JUMPI DUP1 PUSH4 0xF0C44502 EQ PUSH2 0x7B5 JUMPI DUP1 PUSH4 0xF2FDE38B EQ PUSH2 0x7C8 JUMPI DUP1 PUSH4 0xF4762FD6 EQ PUSH2 0x7DB JUMPI DUP1 PUSH4 0xF98080C0 EQ PUSH2 0x7E3 JUMPI PUSH1 0x0 DUP1 REVERT JUMPDEST DUP1 PUSH4 0xE2BBB158 EQ PUSH2 0x773 JUMPI DUP1 PUSH4 0xE6C1E89C EQ PUSH2 0x786 JUMPI DUP1 PUSH4 0xE9A52B67 EQ PUSH2 0x799 JUMPI DUP1 PUSH4 0xEDC23F96 EQ PUSH2 0x7AC JUMPI PUSH1 0x0 DUP1 REVERT JUMPDEST DUP1 PUSH4 0xCA4164F9 GT PUSH2 0xE9 JUMPI DUP1 PUSH4 0xCA4164F9 EQ PUSH2 0x721 JUMPI DUP1 PUSH4 0xD0D41FE1 EQ PUSH2 0x734 JUMPI DUP1 PUSH4 0xD936547E EQ PUSH2 0x747 JUMPI DUP1 PUSH4 0xDA201248 EQ PUSH2 0x76A JUMPI PUSH1 0x0 DUP1 REVERT JUMPDEST DUP1 PUSH4 0xA607494A EQ PUSH2 0x6F3 JUMPI DUP1 PUSH4 0xA6BE46AA EQ PUSH2 0x706 JUMPI DUP1 PUSH4 0xA8B39EEE EQ PUSH2 0x70E JUMPI PUSH1 0x0 DUP1 REVERT JUMPDEST DUP1 PUSH4 0x9850D32B GT PUSH2 0x17C JUMPI DUP1 PUSH4 0x9F531156 GT PUSH2 0x156 JUMPI DUP1 PUSH4 0x9F531156 EQ PUSH2 0x6AD JUMPI DUP1 PUSH4 0x9FBE42E3 EQ PUSH2 0x6C0 JUMPI DUP1 PUSH4 0xA347511A EQ PUSH2 0x6D3 JUMPI DUP1 PUSH4 0xA3F30D27 EQ PUSH2 0x6E0 JUMPI PUSH1 0x0 DUP1 REVERT JUMPDEST DUP1 PUSH4 0x9850D32B EQ PUSH2 0x680 JUMPI DUP1 PUSH4 0x9B4DC8CC EQ PUSH2 0x691 JUMPI DUP1 PUSH4 0x9EED5B33 EQ PUSH2 0x6A4 JUMPI PUSH1 0x0 DUP1 REVERT JUMPDEST DUP1 PUSH4 0x8CA20689 GT PUSH2 0x1B8 JUMPI DUP1 PUSH4 0x8CA20689 EQ PUSH2 0x640 JUMPI DUP1 PUSH4 0x8DA5CB5B EQ PUSH2 0x649 JUMPI DUP1 PUSH4 0x94D45B59 EQ PUSH2 0x65A JUMPI DUP1 PUSH4 0x97E78494 EQ PUSH2 0x66D JUMPI PUSH1 0x0 DUP1 REVERT JUMPDEST DUP1 PUSH4 0x80C26C34 EQ PUSH2 0x5C5 JUMPI DUP1 PUSH4 0x82E46B75 EQ PUSH2 0x5D8 JUMPI DUP1 PUSH4 0x87370846 EQ PUSH2 0x5EB JUMPI PUSH1 0x0 DUP1 REVERT JUMPDEST DUP1 PUSH4 0x441A3E70 GT PUSH2 0x2B8 JUMPI DUP1 PUSH4 0x630B5BA1 GT PUSH2 0x256 JUMPI DUP1 PUSH4 0x689D84E4 GT PUSH2 0x230 JUMPI DUP1 PUSH4 0x689D84E4 EQ PUSH2 0x533 JUMPI DUP1 PUSH4 0x6E0C9F0A EQ PUSH2 0x5A1 JUMPI DUP1 PUSH4 0x715018A6 EQ PUSH2 0x5B4 JUMPI DUP1 PUSH4 0x7BA71C55 EQ PUSH2 0x5BC JUMPI PUSH1 0x0 DUP1 REVERT JUMPDEST DUP1 PUSH4 0x630B5BA1 EQ PUSH2 0x51A JUMPI DUP1 PUSH4 0x65A2D701 EQ PUSH2 0x522 JUMPI DUP1 PUSH4 0x673A7E28 EQ PUSH2 0x52B JUMPI PUSH1 0x0 DUP1 REVERT JUMPDEST DUP1 PUSH4 0x51EB05A6 GT PUSH2 0x292 JUMPI DUP1 PUSH4 0x51EB05A6 EQ PUSH2 0x4C0 JUMPI DUP1 PUSH4 0x57320251 EQ PUSH2 0x4D3 JUMPI DUP1 PUSH4 0x575B789C EQ PUSH2 0x4F4 JUMPI DUP1 PUSH4 0x5ECBBF98 EQ PUSH2 0x507 JUMPI PUSH1 0x0 DUP1 REVERT JUMPDEST DUP1 PUSH4 0x441A3E70 EQ PUSH2 0x49C JUMPI DUP1 PUSH4 0x48CD4CB1 EQ PUSH2 0x4AF JUMPI DUP1 PUSH4 0x4B94F50E EQ PUSH2 0x4B8 JUMPI PUSH1 0x0 DUP1 REVERT JUMPDEST DUP1 PUSH4 0x29465D42 GT PUSH2 0x325 JUMPI DUP1 PUSH4 0x3AD10EF6 GT PUSH2 0x2FF JUMPI DUP1 PUSH4 0x3AD10EF6 EQ PUSH2 0x460 JUMPI DUP1 PUSH4 0x3E82211C EQ PUSH2 0x478 JUMPI DUP1 PUSH4 0x41275358 EQ PUSH2 0x481 JUMPI DUP1 PUSH4 0x437F660E EQ PUSH2 0x494 JUMPI PUSH1 0x0 DUP1 REVERT JUMPDEST DUP1 PUSH4 0x29465D42 EQ PUSH2 0x417 JUMPI DUP1 PUSH4 0x34C434E4 EQ PUSH2 0x43A JUMPI DUP1 PUSH4 0x379607F5 EQ PUSH2 0x44D JUMPI PUSH1 0x0 DUP1 REVERT JUMPDEST DUP1 PUSH4 0x13EA5D29 GT PUSH2 0x361 JUMPI DUP1 PUSH4 0x13EA5D29 EQ PUSH2 0x3DF JUMPI DUP1 PUSH4 0x17CAF6F1 EQ PUSH2 0x3F2 JUMPI DUP1 PUSH4 0x262917D9 EQ PUSH2 0x3FB JUMPI DUP1 PUSH4 0x27DE1947 EQ PUSH2 0x40E JUMPI PUSH1 0x0 DUP1 REVERT JUMPDEST DUP1 PUSH4 0x81E3EDA EQ PUSH2 0x388 JUMPI DUP1 PUSH4 0xBA84CD2 EQ PUSH2 0x39F JUMPI DUP1 PUSH4 0x11DF9995 EQ PUSH2 0x3B4 JUMPI JUMPDEST PUSH1 0x0 DUP1 REVERT JUMPDEST PUSH1 0xD SLOAD JUMPDEST PUSH1 0x40 MLOAD SWAP1 DUP2 MSTORE PUSH1 0x20 ADD JUMPDEST PUSH1 0x40 MLOAD DUP1 SWAP2 SUB SWAP1 RETURN JUMPDEST PUSH2 0x3B2 PUSH2 0x3AD CALLDATASIZE PUSH1 0x4 PUSH2 0x3B22 JUMP JUMPDEST PUSH2 0x80E JUMP JUMPDEST STOP JUMPDEST PUSH1 0x5 SLOAD PUSH2 0x3C7 SWAP1 PUSH1 0x1 PUSH1 0x1 PUSH1 0xA0 SHL SUB AND DUP2 JUMP JUMPDEST PUSH1 0x40 MLOAD PUSH1 0x1 PUSH1 0x1 PUSH1 0xA0 SHL SUB SWAP1 SWAP2 AND DUP2 MSTORE PUSH1 0x20 ADD PUSH2 0x396 JUMP JUMPDEST PUSH2 0x3B2 PUSH2 0x3ED CALLDATASIZE PUSH1 0x4 PUSH2 0x38CA JUMP JUMPDEST PUSH2 0x967 JUMP JUMPDEST PUSH2 0x38C PUSH1 0x12 SLOAD DUP2 JUMP JUMPDEST PUSH2 0x3B2 PUSH2 0x409 CALLDATASIZE PUSH1 0x4 PUSH2 0x3C58 JUMP JUMPDEST PUSH2 0xB8D JUMP JUMPDEST PUSH2 0x38C PUSH1 0x8 SLOAD DUP2 JUMP JUMPDEST PUSH2 0x42A PUSH2 0x425 CALLDATASIZE PUSH1 0x4 PUSH2 0x3B22 JUMP JUMPDEST PUSH2 0xE0B JUMP JUMPDEST PUSH1 0x40 MLOAD SWAP1 ISZERO ISZERO DUP2 MSTORE PUSH1 0x20 ADD PUSH2 0x396 JUMP JUMPDEST PUSH2 0x3B2 PUSH2 0x448 CALLDATASIZE PUSH1 0x4 PUSH2 0x39AB JUMP JUMPDEST PUSH2 0xEA1 JUMP JUMPDEST PUSH2 0x3B2 PUSH2 0x45B CALLDATASIZE PUSH1 0x4 PUSH2 0x3B22 JUMP JUMPDEST PUSH2 0xEF3 JUMP JUMPDEST PUSH1 0xE SLOAD PUSH2 0x3C7 SWAP1 PUSH2 0x100 SWAP1 DIV PUSH1 0x1 PUSH1 0x1 PUSH1 0xA0 SHL SUB AND DUP2 JUMP JUMPDEST PUSH2 0x38C PUSH1 0x15 SLOAD DUP2 JUMP JUMPDEST PUSH1 0xF SLOAD PUSH2 0x3C7 SWAP1 PUSH1 0x1 PUSH1 0x1 PUSH1 0xA0 SHL SUB AND DUP2 JUMP JUMPDEST PUSH2 0x3B2 PUSH2 0x1108 JUMP JUMPDEST PUSH2 0x3B2 PUSH2 0x4AA CALLDATASIZE PUSH1 0x4 PUSH2 0x39E4 JUMP JUMPDEST PUSH2 0x125E JUMP JUMPDEST PUSH2 0x38C PUSH1 0x11 SLOAD DUP2 JUMP JUMPDEST PUSH2 0x38C PUSH2 0x159D JUMP JUMPDEST PUSH2 0x3B2 PUSH2 0x4CE CALLDATASIZE PUSH1 0x4 PUSH2 0x3B22 JUMP JUMPDEST PUSH2 0x1A04 JUMP JUMPDEST PUSH1 0x16 SLOAD PUSH2 0x4E1 SWAP1 PUSH2 0xFFFF AND DUP2 JUMP JUMPDEST PUSH1 0x40 MLOAD PUSH2 0xFFFF SWAP1 SWAP2 AND DUP2 MSTORE PUSH1 0x20 ADD PUSH2 0x396 JUMP JUMPDEST PUSH2 0x38C PUSH2 0x502 CALLDATASIZE PUSH1 0x4 PUSH2 0x3904 JUMP JUMPDEST PUSH2 0x1B15 JUMP JUMPDEST PUSH2 0x38C PUSH2 0x515 CALLDATASIZE PUSH1 0x4 PUSH2 0x3B22 JUMP JUMPDEST PUSH2 0x1DA0 JUMP JUMPDEST PUSH2 0x3B2 PUSH2 0x1E88 JUMP JUMPDEST PUSH2 0x38C PUSH1 0x9 SLOAD DUP2 JUMP JUMPDEST PUSH2 0x3B2 PUSH2 0x1EAF JUMP JUMPDEST PUSH2 0x546 PUSH2 0x541 CALLDATASIZE PUSH1 0x4 PUSH2 0x3B22 JUMP JUMPDEST PUSH2 0x1EB7 JUMP JUMPDEST PUSH1 0x40 DUP1 MLOAD PUSH1 0x1 PUSH1 0x1 PUSH1 0xA0 SHL SUB SWAP12 DUP13 AND DUP2 MSTORE SWAP11 SWAP1 SWAP10 AND PUSH1 0x20 DUP12 ADD MSTORE SWAP8 DUP10 ADD SWAP7 SWAP1 SWAP7 MSTORE PUSH1 0x60 DUP9 ADD SWAP5 SWAP1 SWAP5 MSTORE PUSH1 0x80 DUP8 ADD SWAP3 SWAP1 SWAP3 MSTORE PUSH2 0xFFFF AND PUSH1 0xA0 DUP7 ADD MSTORE PUSH1 0xC0 DUP6 ADD MSTORE PUSH1 0xE0 DUP5 ADD MSTORE PUSH2 0x100 DUP4 ADD MSTORE ISZERO ISZERO PUSH2 0x120 DUP3 ADD MSTORE PUSH2 0x140 ADD PUSH2 0x396 JUMP JUMPDEST PUSH2 0x38C PUSH2 0x5AF CALLDATASIZE PUSH1 0x4 PUSH2 0x3B22 JUMP JUMPDEST PUSH2 0x1F30 JUMP JUMPDEST PUSH2 0x3B2 PUSH2 0x1F51 JUMP JUMPDEST PUSH2 0x38C PUSH1 0x13 SLOAD DUP2 JUMP JUMPDEST PUSH2 0x3B2 PUSH2 0x5D3 CALLDATASIZE PUSH1 0x4 PUSH2 0x3971 JUMP JUMPDEST PUSH2 0x1F85 JUMP JUMPDEST PUSH2 0x3B2 PUSH2 0x5E6 CALLDATASIZE PUSH1 0x4 PUSH2 0x38CA JUMP JUMPDEST PUSH2 0x1FE6 JUMP JUMPDEST PUSH2 0x625 PUSH2 0x5F9 CALLDATASIZE PUSH1 0x4 PUSH2 0x3B54 JUMP JUMPDEST PUSH1 0xC PUSH1 0x20 SWAP1 DUP2 MSTORE PUSH1 0x0 SWAP3 DUP4 MSTORE PUSH1 0x40 DUP1 DUP5 KECCAK256 SWAP1 SWAP2 MSTORE SWAP1 DUP3 MSTORE SWAP1 KECCAK256 DUP1 SLOAD PUSH1 0x1 DUP3 ADD SLOAD PUSH1 0x2 SWAP1 SWAP3 ADD SLOAD SWAP1 SWAP2 SWAP1 DUP4 JUMP JUMPDEST PUSH1 0x40 DUP1 MLOAD SWAP4 DUP5 MSTORE PUSH1 0x20 DUP5 ADD SWAP3 SWAP1 SWAP3 MSTORE SWAP1 DUP3 ADD MSTORE PUSH1 0x60 ADD PUSH2 0x396 JUMP JUMPDEST PUSH2 0x38C PUSH1 0xB SLOAD DUP2 JUMP JUMPDEST PUSH1 0x0 SLOAD PUSH1 0x1 PUSH1 0x1 PUSH1 0xA0 SHL SUB AND PUSH2 0x3C7 JUMP JUMPDEST PUSH2 0x38C PUSH2 0x668 CALLDATASIZE PUSH1 0x4 PUSH2 0x3945 JUMP JUMPDEST PUSH2 0x22B4 JUMP JUMPDEST PUSH2 0x3B2 PUSH2 0x67B CALLDATASIZE PUSH1 0x4 PUSH2 0x3B9E JUMP JUMPDEST PUSH2 0x23AF JUMP JUMPDEST PUSH1 0x4 SLOAD PUSH1 0x1 PUSH1 0x1 PUSH1 0xA0 SHL SUB AND PUSH2 0x3C7 JUMP JUMPDEST PUSH1 0x6 SLOAD PUSH2 0x3C7 SWAP1 PUSH1 0x1 PUSH1 0x1 PUSH1 0xA0 SHL SUB AND DUP2 JUMP JUMPDEST PUSH2 0x38C PUSH1 0x10 SLOAD DUP2 JUMP JUMPDEST PUSH2 0x3B2 PUSH2 0x6BB CALLDATASIZE PUSH1 0x4 PUSH2 0x3A06 JUMP JUMPDEST PUSH2 0x25F1 JUMP JUMPDEST PUSH2 0x38C PUSH2 0x6CE CALLDATASIZE PUSH1 0x4 PUSH2 0x3B22 JUMP JUMPDEST PUSH2 0x2664 JUMP JUMPDEST PUSH1 0x2 SLOAD PUSH2 0x42A SWAP1 PUSH1 0xFF AND DUP2 JUMP JUMPDEST PUSH2 0x3B2 PUSH2 0x6EE CALLDATASIZE PUSH1 0x4 PUSH2 0x3C2A JUMP JUMPDEST PUSH2 0x2731 JUMP JUMPDEST PUSH2 0x3B2 PUSH2 0x701 CALLDATASIZE PUSH1 0x4 PUSH2 0x3A06 JUMP JUMPDEST PUSH2 0x27FE JUMP JUMPDEST PUSH2 0x38C PUSH2 0x28DB JUMP JUMPDEST PUSH2 0x3B2 PUSH2 0x71C CALLDATASIZE PUSH1 0x4 PUSH2 0x3B22 JUMP JUMPDEST PUSH2 0x2988 JUMP JUMPDEST PUSH2 0x38C PUSH2 0x72F CALLDATASIZE PUSH1 0x4 PUSH2 0x3B79 JUMP JUMPDEST PUSH2 0x2BD2 JUMP JUMPDEST PUSH2 0x3B2 PUSH2 0x742 CALLDATASIZE PUSH1 0x4 PUSH2 0x38CA JUMP JUMPDEST PUSH2 0x2C14 JUMP JUMPDEST PUSH2 0x42A PUSH2 0x755 CALLDATASIZE PUSH1 0x4 PUSH2 0x38CA JUMP JUMPDEST PUSH1 0x17 PUSH1 0x20 MSTORE PUSH1 0x0 SWAP1 DUP2 MSTORE PUSH1 0x40 SWAP1 KECCAK256 SLOAD PUSH1 0xFF AND DUP2 JUMP JUMPDEST PUSH2 0x38C PUSH1 0xA SLOAD DUP2 JUMP JUMPDEST PUSH2 0x3B2 PUSH2 0x781 CALLDATASIZE PUSH1 0x4 PUSH2 0x39E4 JUMP JUMPDEST PUSH2 0x2DCF JUMP JUMPDEST PUSH2 0x38C PUSH2 0x794 CALLDATASIZE PUSH1 0x4 PUSH2 0x39E4 JUMP JUMPDEST PUSH2 0x2E0A JUMP JUMPDEST PUSH2 0x38C PUSH2 0x7A7 CALLDATASIZE PUSH1 0x4 PUSH2 0x3B54 JUMP JUMPDEST PUSH2 0x2E50 JUMP JUMPDEST PUSH2 0x38C PUSH1 0x14 SLOAD DUP2 JUMP JUMPDEST PUSH2 0x3B2 PUSH2 0x7C3 CALLDATASIZE PUSH1 0x4 PUSH2 0x3B07 JUMP JUMPDEST PUSH2 0x2F58 JUMP JUMPDEST PUSH2 0x3B2 PUSH2 0x7D6 CALLDATASIZE PUSH1 0x4 PUSH2 0x38CA JUMP JUMPDEST PUSH2 0x2FCF JUMP JUMPDEST PUSH2 0x3B2 PUSH2 0x306A JUMP JUMPDEST PUSH2 0x38C PUSH2 0x7F1 CALLDATASIZE PUSH1 0x4 PUSH2 0x3A06 JUMP JUMPDEST DUP1 MLOAD PUSH1 0x20 DUP2 DUP4 ADD DUP2 ADD DUP1 MLOAD PUSH1 0x3 DUP3 MSTORE SWAP3 DUP3 ADD SWAP2 SWAP1 SWAP4 ADD KECCAK256 SWAP2 MSTORE SLOAD DUP2 JUMP JUMPDEST PUSH1 0x0 SLOAD PUSH1 0x1 PUSH1 0x1 PUSH1 0xA0 SHL SUB AND CALLER EQ PUSH2 0x841 JUMPI PUSH1 0x40 MLOAD PUSH3 0x461BCD PUSH1 0xE5 SHL DUP2 MSTORE PUSH1 0x4 ADD PUSH2 0x838 SWAP1 PUSH2 0x3D2F JUMP JUMPDEST PUSH1 0x40 MLOAD DUP1 SWAP2 SUB SWAP1 REVERT JUMPDEST PUSH1 0x40 DUP1 MLOAD DUP1 DUP3 ADD SWAP1 SWAP2 MSTORE PUSH1 0x12 DUP2 MSTORE PUSH18 0x757064617465456D697373696F6E52617465 PUSH1 0x70 SHL PUSH1 0x20 DUP3 ADD MSTORE PUSH1 0x2 SLOAD PUSH1 0xFF AND ISZERO DUP1 PUSH2 0x8FC JUMPI POP PUSH1 0x3 DUP2 PUSH1 0x40 MLOAD PUSH2 0x887 SWAP2 SWAP1 PUSH2 0x3CE0 JUMP JUMPDEST SWAP1 DUP2 MSTORE PUSH1 0x20 ADD PUSH1 0x40 MLOAD DUP1 SWAP2 SUB SWAP1 KECCAK256 SLOAD PUSH1 0x0 EQ ISZERO DUP1 ISZERO PUSH2 0x8C4 JUMPI POP TIMESTAMP PUSH1 0x3 DUP3 PUSH1 0x40 MLOAD PUSH2 0x8B2 SWAP2 SWAP1 PUSH2 0x3CE0 JUMP JUMPDEST SWAP1 DUP2 MSTORE PUSH1 0x20 ADD PUSH1 0x40 MLOAD DUP1 SWAP2 SUB SWAP1 KECCAK256 SLOAD GT ISZERO JUMPDEST DUP1 ISZERO PUSH2 0x8FC JUMPI POP TIMESTAMP PUSH3 0x15180 PUSH1 0x3 DUP4 PUSH1 0x40 MLOAD PUSH2 0x8E0 SWAP2 SWAP1 PUSH2 0x3CE0 JUMP JUMPDEST SWAP1 DUP2 MSTORE PUSH1 0x20 ADD PUSH1 0x40 MLOAD DUP1 SWAP2 SUB SWAP1 KECCAK256 SLOAD PUSH2 0x8F9 SWAP2 SWAP1 PUSH2 0x3E5E JUMP JUMPDEST LT ISZERO JUMPDEST PUSH2 0x918 JUMPI PUSH1 0x40 MLOAD PUSH3 0x461BCD PUSH1 0xE5 SHL DUP2 MSTORE PUSH1 0x4 ADD PUSH2 0x838 SWAP1 PUSH2 0x3D64 JUMP JUMPDEST PUSH2 0x920 PUSH2 0x1E88 JUMP JUMPDEST PUSH1 0x10 DUP3 SWAP1 SSTORE PUSH1 0x40 MLOAD DUP3 DUP2 MSTORE CALLER SWAP1 PUSH32 0xE2492E003BBE8AFA53088B406F0C1CB5D9E280370FC72A74CF116FFD343C4053 SWAP1 PUSH1 0x20 ADD PUSH1 0x40 MLOAD DUP1 SWAP2 SUB SWAP1 LOG2 PUSH2 0x963 DUP2 PUSH2 0x25F1 JUMP JUMPDEST POP POP JUMP JUMPDEST CALLER PUSH2 0x97A PUSH1 0x0 SLOAD PUSH1 0x1 PUSH1 0x1 PUSH1 0xA0 SHL SUB AND SWAP1 JUMP JUMPDEST PUSH1 0x1 PUSH1 0x1 PUSH1 0xA0 SHL SUB AND EQ DUP1 PUSH2 0x999 JUMPI POP PUSH1 0x4 SLOAD PUSH1 0x1 PUSH1 0x1 PUSH1 0xA0 SHL SUB AND CALLER EQ JUMPDEST PUSH2 0x9B5 JUMPI PUSH1 0x40 MLOAD PUSH3 0x461BCD PUSH1 0xE5 SHL DUP2 MSTORE PUSH1 0x4 ADD PUSH2 0x838 SWAP1 PUSH2 0x3D90 JUMP JUMPDEST PUSH1 0x40 DUP1 MLOAD DUP1 DUP3 ADD SWAP1 SWAP2 MSTORE PUSH1 0xA DUP2 MSTORE PUSH10 0x36B0B4B73A30B4B732B9 PUSH1 0xB1 SHL PUSH1 0x20 DUP3 ADD MSTORE PUSH1 0x2 SLOAD PUSH1 0xFF AND ISZERO DUP1 PUSH2 0xA68 JUMPI POP PUSH1 0x3 DUP2 PUSH1 0x40 MLOAD PUSH2 0x9F3 SWAP2 SWAP1 PUSH2 0x3CE0 JUMP JUMPDEST SWAP1 DUP2 MSTORE PUSH1 0x20 ADD PUSH1 0x40 MLOAD DUP1 SWAP2 SUB SWAP1 KECCAK256 SLOAD PUSH1 0x0 EQ ISZERO DUP1 ISZERO PUSH2 0xA30 JUMPI POP TIMESTAMP PUSH1 0x3 DUP3 PUSH1 0x40 MLOAD PUSH2 0xA1E SWAP2 SWAP1 PUSH2 0x3CE0 JUMP JUMPDEST SWAP1 DUP2 MSTORE PUSH1 0x20 ADD PUSH1 0x40 MLOAD DUP1 SWAP2 SUB SWAP1 KECCAK256 SLOAD GT ISZERO JUMPDEST DUP1 ISZERO PUSH2 0xA68 JUMPI POP TIMESTAMP PUSH3 0x15180 PUSH1 0x3 DUP4 PUSH1 0x40 MLOAD PUSH2 0xA4C SWAP2 SWAP1 PUSH2 0x3CE0 JUMP JUMPDEST SWAP1 DUP2 MSTORE PUSH1 0x20 ADD PUSH1 0x40 MLOAD DUP1 SWAP2 SUB SWAP1 KECCAK256 SLOAD PUSH2 0xA65 SWAP2 SWAP1 PUSH2 0x3E5E JUMP JUMPDEST LT ISZERO JUMPDEST PUSH2 0xA84 JUMPI PUSH1 0x40 MLOAD PUSH3 0x461BCD PUSH1 0xE5 SHL DUP2 MSTORE PUSH1 0x4 ADD PUSH2 0x838 SWAP1 PUSH2 0x3D64 JUMP JUMPDEST PUSH1 0x4 SLOAD PUSH1 0x1 PUSH1 0x1 PUSH1 0xA0 SHL SUB DUP4 DUP2 AND SWAP2 AND EQ DUP1 ISZERO SWAP1 PUSH2 0xAAA JUMPI POP PUSH1 0x1 PUSH1 0x1 PUSH1 0xA0 SHL SUB DUP3 AND ISZERO ISZERO JUMPDEST PUSH2 0xB35 JUMPI PUSH1 0x40 MLOAD PUSH3 0x461BCD PUSH1 0xE5 SHL DUP2 MSTORE PUSH1 0x20 PUSH1 0x4 DUP3 ADD MSTORE PUSH1 0x50 PUSH1 0x24 DUP3 ADD MSTORE PUSH32 0x41424F41543A3A7365744D61696E7461696E65723A204D61696E7461696E6572 PUSH1 0x44 DUP3 ADD MSTORE PUSH32 0x2063616E277420657175616C2070726576696F7573206D61696E7461696E6572 PUSH1 0x64 DUP3 ADD MSTORE PUSH16 0x206F72207A65726F2061646472657373 PUSH1 0x80 SHL PUSH1 0x84 DUP3 ADD MSTORE PUSH1 0xA4 ADD PUSH2 0x838 JUMP JUMPDEST PUSH1 0x4 DUP1 SLOAD PUSH1 0x1 PUSH1 0x1 PUSH1 0xA0 SHL SUB DUP5 DUP2 AND PUSH1 0x1 PUSH1 0x1 PUSH1 0xA0 SHL SUB NOT DUP4 AND DUP2 OR SWAP1 SWAP4 SSTORE PUSH1 0x40 MLOAD SWAP2 AND SWAP2 SWAP1 DUP3 SWAP1 PUSH32 0x2F3FFAAAAD93928855C8700645D1A3643E6CCFDD500EFA9FDA048A88F557CF01 SWAP1 PUSH1 0x0 SWAP1 LOG3 POP PUSH2 0x963 DUP2 PUSH2 0x25F1 JUMP JUMPDEST PUSH1 0x0 SLOAD PUSH1 0x1 PUSH1 0x1 PUSH1 0xA0 SHL SUB AND CALLER EQ PUSH2 0xBB7 JUMPI PUSH1 0x40 MLOAD PUSH3 0x461BCD PUSH1 0xE5 SHL DUP2 MSTORE PUSH1 0x4 ADD PUSH2 0x838 SWAP1 PUSH2 0x3D2F JUMP JUMPDEST PUSH1 0x40 DUP1 MLOAD DUP1 DUP3 ADD SWAP1 SWAP2 MSTORE PUSH1 0x10 DUP2 MSTORE PUSH16 0x736574506F6F6C5661726961626C6573 PUSH1 0x80 SHL PUSH1 0x20 DUP3 ADD MSTORE PUSH1 0x2 SLOAD PUSH1 0xFF AND ISZERO DUP1 PUSH2 0xC70 JUMPI POP PUSH1 0x3 DUP2 PUSH1 0x40 MLOAD PUSH2 0xBFB SWAP2 SWAP1 PUSH2 0x3CE0 JUMP JUMPDEST SWAP1 DUP2 MSTORE PUSH1 0x20 ADD PUSH1 0x40 MLOAD DUP1 SWAP2 SUB SWAP1 KECCAK256 SLOAD PUSH1 0x0 EQ ISZERO DUP1 ISZERO PUSH2 0xC38 JUMPI POP TIMESTAMP PUSH1 0x3 DUP3 PUSH1 0x40 MLOAD PUSH2 0xC26 SWAP2 SWAP1 PUSH2 0x3CE0 JUMP JUMPDEST SWAP1 DUP2 MSTORE PUSH1 0x20 ADD PUSH1 0x40 MLOAD DUP1 SWAP2 SUB SWAP1 KECCAK256 SLOAD GT ISZERO JUMPDEST DUP1 ISZERO PUSH2 0xC70 JUMPI POP TIMESTAMP PUSH3 0x15180 PUSH1 0x3 DUP4 PUSH1 0x40 MLOAD PUSH2 0xC54 SWAP2 SWAP1 PUSH2 0x3CE0 JUMP JUMPDEST SWAP1 DUP2 MSTORE PUSH1 0x20 ADD PUSH1 0x40 MLOAD DUP1 SWAP2 SUB SWAP1 KECCAK256 SLOAD PUSH2 0xC6D SWAP2 SWAP1 PUSH2 0x3E5E JUMP JUMPDEST LT ISZERO JUMPDEST PUSH2 0xC8C JUMPI PUSH1 0x40 MLOAD PUSH3 0x461BCD PUSH1 0xE5 SHL DUP2 MSTORE PUSH1 0x4 ADD PUSH2 0x838 SWAP1 PUSH2 0x3D64 JUMP JUMPDEST PUSH2 0x3E8 DUP6 PUSH2 0xFFFF AND GT ISZERO PUSH2 0xCB2 JUMPI PUSH1 0x40 MLOAD PUSH3 0x461BCD PUSH1 0xE5 SHL DUP2 MSTORE PUSH1 0x4 ADD PUSH2 0x838 SWAP1 PUSH2 0x3E1C JUMP JUMPDEST DUP2 ISZERO PUSH2 0xCC0 JUMPI PUSH2 0xCC0 PUSH2 0x1E88 JUMP JUMPDEST PUSH2 0xD03 DUP7 PUSH2 0xCFD PUSH1 0xD DUP11 DUP2 SLOAD DUP2 LT PUSH2 0xCDA JUMPI PUSH2 0xCDA PUSH2 0x4113 JUMP JUMPDEST SWAP1 PUSH1 0x0 MSTORE PUSH1 0x20 PUSH1 0x0 KECCAK256 SWAP1 PUSH1 0xA MUL ADD PUSH1 0x2 ADD SLOAD PUSH1 0x12 SLOAD PUSH2 0x30FC SWAP1 SWAP2 SWAP1 PUSH4 0xFFFFFFFF AND JUMP JUMPDEST SWAP1 PUSH2 0x30F0 JUMP JUMPDEST PUSH1 0x12 DUP2 SWAP1 SSTORE POP DUP6 PUSH1 0xD DUP9 DUP2 SLOAD DUP2 LT PUSH2 0xD1D JUMPI PUSH2 0xD1D PUSH2 0x4113 JUMP JUMPDEST SWAP1 PUSH1 0x0 MSTORE PUSH1 0x20 PUSH1 0x0 KECCAK256 SWAP1 PUSH1 0xA MUL ADD PUSH1 0x2 ADD DUP2 SWAP1 SSTORE POP DUP5 PUSH1 0xD DUP9 DUP2 SLOAD DUP2 LT PUSH2 0xD46 JUMPI PUSH2 0xD46 PUSH2 0x4113 JUMP JUMPDEST SWAP1 PUSH1 0x0 MSTORE PUSH1 0x20 PUSH1 0x0 KECCAK256 SWAP1 PUSH1 0xA MUL ADD PUSH1 0x5 ADD PUSH1 0x0 PUSH2 0x100 EXP DUP2 SLOAD DUP2 PUSH2 0xFFFF MUL NOT AND SWAP1 DUP4 PUSH2 0xFFFF AND MUL OR SWAP1 SSTORE POP DUP4 PUSH1 0xD DUP9 DUP2 SLOAD DUP2 LT PUSH2 0xD85 JUMPI PUSH2 0xD85 PUSH2 0x4113 JUMP JUMPDEST SWAP1 PUSH1 0x0 MSTORE PUSH1 0x20 PUSH1 0x0 KECCAK256 SWAP1 PUSH1 0xA MUL ADD PUSH1 0x8 ADD DUP2 SWAP1 SSTORE POP DUP3 PUSH1 0xD DUP9 DUP2 SLOAD DUP2 LT PUSH2 0xDAE JUMPI PUSH2 0xDAE PUSH2 0x4113 JUMP JUMPDEST PUSH1 0x0 SWAP2 DUP3 MSTORE PUSH1 0x20 DUP3 KECCAK256 PUSH1 0xA SWAP2 SWAP1 SWAP2 MUL ADD PUSH1 0x9 ADD DUP1 SLOAD PUSH1 0xFF NOT AND SWAP3 ISZERO ISZERO SWAP3 SWAP1 SWAP3 OR SWAP1 SWAP2 SSTORE PUSH1 0x40 MLOAD DUP9 SWAP2 PUSH32 0xA844E7199A9E0826E5C245ADCD2D35F2F100069597A3E7512AFE58F772C4ECA9 SWAP2 LOG2 PUSH2 0xE02 DUP2 PUSH2 0x25F1 JUMP JUMPDEST POP POP POP POP POP POP POP JUMP JUMPDEST PUSH1 0x13 SLOAD PUSH1 0x5 SLOAD PUSH1 0x40 MLOAD PUSH4 0x70A08231 PUSH1 0xE0 SHL DUP2 MSTORE ADDRESS PUSH1 0x4 DUP3 ADD MSTORE PUSH1 0x0 SWAP3 DUP5 SWAP3 PUSH2 0xE99 SWAP3 PUSH1 0x1 PUSH1 0x1 PUSH1 0xA0 SHL SUB SWAP1 SWAP2 AND SWAP1 PUSH4 0x70A08231 SWAP1 PUSH1 0x24 ADD JUMPDEST PUSH1 0x20 PUSH1 0x40 MLOAD DUP1 DUP4 SUB DUP2 DUP7 DUP1 EXTCODESIZE ISZERO DUP1 ISZERO PUSH2 0xE5B JUMPI PUSH1 0x0 DUP1 REVERT JUMPDEST POP GAS STATICCALL ISZERO DUP1 ISZERO PUSH2 0xE6F JUMPI RETURNDATASIZE PUSH1 0x0 DUP1 RETURNDATACOPY RETURNDATASIZE PUSH1 0x0 REVERT JUMPDEST POP POP POP POP PUSH1 0x40 MLOAD RETURNDATASIZE PUSH1 0x1F NOT PUSH1 0x1F DUP3 ADD AND DUP3 ADD DUP1 PUSH1 0x40 MSTORE POP DUP2 ADD SWAP1 PUSH2 0xE93 SWAP2 SWAP1 PUSH2 0x3B3B JUMP JUMPDEST SWAP1 PUSH2 0x30FC JUMP JUMPDEST LT ISZERO SWAP3 SWAP2 POP POP JUMP JUMPDEST PUSH1 0x0 SLOAD PUSH1 0x1 PUSH1 0x1 PUSH1 0xA0 SHL SUB AND CALLER EQ PUSH2 0xECB JUMPI PUSH1 0x40 MLOAD PUSH3 0x461BCD PUSH1 0xE5 SHL DUP2 MSTORE PUSH1 0x4 ADD PUSH2 0x838 SWAP1 PUSH2 0x3D2F JUMP JUMPDEST PUSH1 0x1 PUSH1 0x1 PUSH1 0xA0 SHL SUB AND PUSH1 0x0 SWAP1 DUP2 MSTORE PUSH1 0x17 PUSH1 0x20 MSTORE PUSH1 0x40 SWAP1 KECCAK256 DUP1 SLOAD PUSH1 0xFF NOT AND SWAP2 ISZERO ISZERO SWAP2 SWAP1 SWAP2 OR SWAP1 SSTORE JUMP JUMPDEST PUSH1 0x2 PUSH1 0x1 SLOAD EQ ISZERO PUSH2 0xF16 JUMPI PUSH1 0x40 MLOAD PUSH3 0x461BCD PUSH1 0xE5 SHL DUP2 MSTORE PUSH1 0x4 ADD PUSH2 0x838 SWAP1 PUSH2 0x3DE5 JUMP JUMPDEST PUSH1 0x2 PUSH1 0x1 DUP2 SWAP1 SSTORE POP PUSH1 0x0 PUSH1 0xD DUP3 DUP2 SLOAD DUP2 LT PUSH2 0xF33 JUMPI PUSH2 0xF33 PUSH2 0x4113 JUMP JUMPDEST PUSH1 0x0 SWAP2 DUP3 MSTORE PUSH1 0x20 DUP1 DUP4 KECCAK256 DUP6 DUP5 MSTORE PUSH1 0xC DUP3 MSTORE PUSH1 0x40 DUP1 DUP6 KECCAK256 CALLER DUP7 MSTORE SWAP1 SWAP3 MSTORE SWAP3 KECCAK256 PUSH1 0xA SWAP1 SWAP2 MUL SWAP1 SWAP2 ADD SWAP2 POP PUSH2 0xF64 DUP4 PUSH2 0x1A04 JUMP JUMPDEST PUSH1 0x0 PUSH2 0xF98 DUP3 PUSH1 0x1 ADD SLOAD PUSH2 0xE93 PUSH5 0xE8D4A51000 PUSH2 0xF92 DUP8 PUSH1 0x4 ADD SLOAD DUP8 PUSH1 0x0 ADD SLOAD PUSH2 0x3108 SWAP1 SWAP2 SWAP1 PUSH4 0xFFFFFFFF AND JUMP JUMPDEST SWAP1 PUSH2 0x3114 JUMP JUMPDEST SWAP1 POP PUSH2 0xFA3 DUP2 PUSH2 0xE0B JUMP JUMPDEST PUSH2 0x100D JUMPI PUSH1 0x40 MLOAD PUSH3 0x461BCD PUSH1 0xE5 SHL DUP2 MSTORE PUSH1 0x20 PUSH1 0x4 DUP3 ADD MSTORE PUSH1 0x35 PUSH1 0x24 DUP3 ADD MSTORE PUSH32 0x41424F41543A3A636C61696D3A204E6F7420656E6F7567682041424F41542069 PUSH1 0x44 DUP3 ADD MSTORE PUSH21 0x6E20636F6E747261637420666F7220636C61696D21 PUSH1 0x58 SHL PUSH1 0x64 DUP3 ADD MSTORE PUSH1 0x84 ADD PUSH2 0x838 JUMP JUMPDEST DUP1 ISZERO PUSH2 0x1055 JUMPI PUSH2 0x101D CALLER DUP3 PUSH2 0x3197 JUMP JUMPDEST PUSH1 0x40 MLOAD DUP2 DUP2 MSTORE DUP5 SWAP1 CALLER SWAP1 PUSH32 0x34FCBAC0073D7C3D388E51312FAF357774904998EEB8FCA628B9E6F65EE1CBF7 SWAP1 PUSH1 0x20 ADD PUSH1 0x40 MLOAD DUP1 SWAP2 SUB SWAP1 LOG3 JUMPDEST DUP3 SLOAD PUSH1 0x1 PUSH1 0x1 PUSH1 0xA0 SHL SUB AND ISZERO PUSH2 0x10D6 JUMPI DUP3 SLOAD PUSH1 0x7 DUP5 ADD SLOAD PUSH1 0x40 MLOAD PUSH4 0xAD58D2F PUSH1 0xE0 SHL DUP2 MSTORE PUSH1 0x4 DUP2 ADD SWAP2 SWAP1 SWAP2 MSTORE PUSH1 0x0 PUSH1 0x24 DUP3 ADD MSTORE CALLER PUSH1 0x44 DUP3 ADD MSTORE PUSH1 0x1 PUSH1 0x1 PUSH1 0xA0 SHL SUB SWAP1 SWAP2 AND SWAP1 PUSH4 0xAD58D2F SWAP1 PUSH1 0x64 ADD PUSH1 0x0 PUSH1 0x40 MLOAD DUP1 DUP4 SUB DUP2 PUSH1 0x0 DUP8 DUP1 EXTCODESIZE ISZERO DUP1 ISZERO PUSH2 0x10BD JUMPI PUSH1 0x0 DUP1 REVERT JUMPDEST POP GAS CALL ISZERO DUP1 ISZERO PUSH2 0x10D1 JUMPI RETURNDATASIZE PUSH1 0x0 DUP1 RETURNDATACOPY RETURNDATASIZE PUSH1 0x0 REVERT JUMPDEST POP POP POP POP JUMPDEST PUSH1 0x4 DUP4 ADD SLOAD DUP3 SLOAD PUSH2 0x10F1 SWAP2 PUSH5 0xE8D4A51000 SWAP2 PUSH2 0xF92 SWAP2 PUSH2 0x3108 JUMP JUMPDEST PUSH1 0x1 DUP4 ADD SSTORE PUSH2 0x10FE PUSH2 0x1108 JUMP JUMPDEST POP POP PUSH1 0x1 DUP1 SSTORE POP POP JUMP JUMPDEST PUSH1 0x5 SLOAD PUSH1 0x1 PUSH1 0x1 PUSH1 0xA0 SHL SUB AND ISZERO DUP1 PUSH2 0x11A3 JUMPI POP PUSH1 0x5 SLOAD PUSH1 0x40 DUP1 MLOAD PUSH4 0x808A5457 PUSH1 0xE0 SHL DUP2 MSTORE SWAP1 MLOAD PUSH1 0x0 SWAP3 PUSH1 0x1 PUSH1 0x1 PUSH1 0xA0 SHL SUB AND SWAP2 PUSH4 0x808A5457 SWAP2 PUSH1 0x4 DUP1 DUP4 ADD SWAP3 PUSH1 0x20 SWAP3 SWAP2 SWAP1 DUP3 SWAP1 SUB ADD DUP2 DUP7 DUP1 EXTCODESIZE ISZERO DUP1 ISZERO PUSH2 0x1160 JUMPI PUSH1 0x0 DUP1 REVERT JUMPDEST POP GAS STATICCALL ISZERO DUP1 ISZERO PUSH2 0x1174 JUMPI RETURNDATASIZE PUSH1 0x0 DUP1 RETURNDATACOPY RETURNDATASIZE PUSH1 0x0 REVERT JUMPDEST POP POP POP POP PUSH1 0x40 MLOAD RETURNDATASIZE PUSH1 0x1F NOT PUSH1 0x1F DUP3 ADD AND DUP3 ADD DUP1 PUSH1 0x40 MSTORE POP DUP2 ADD SWAP1 PUSH2 0x1198 SWAP2 SWAP1 PUSH2 0x38E7 JUMP JUMPDEST PUSH1 0x1 PUSH1 0x1 PUSH1 0xA0 SHL SUB AND EQ JUMPDEST ISZERO PUSH2 0x11AA JUMPI JUMP JUMPDEST PUSH2 0x11B6 PUSH2 0xE10 TIMESTAMP PUSH2 0x4089 JUMP JUMPDEST PUSH1 0x9 SLOAD LT ISZERO PUSH2 0x1206 JUMPI PUSH1 0x0 PUSH2 0x11C9 PUSH2 0x159D JUMP JUMPDEST PUSH1 0x8 DUP1 SLOAD SWAP2 SWAP3 POP DUP3 SWAP2 PUSH1 0x7 SWAP2 PUSH1 0x0 PUSH2 0x11E0 DUP4 PUSH2 0x40CC JUMP JUMPDEST SWAP2 SWAP1 POP SSTORE DUP2 SLOAD DUP2 LT PUSH2 0x11F4 JUMPI PUSH2 0x11F4 PUSH2 0x4113 JUMP JUMPDEST PUSH1 0x0 SWAP2 DUP3 MSTORE PUSH1 0x20 SWAP1 SWAP2 KECCAK256 ADD SSTORE POP TIMESTAMP PUSH1 0x9 SSTORE JUMPDEST PUSH2 0x1213 PUSH3 0x15180 TIMESTAMP PUSH2 0x4089 JUMP JUMPDEST PUSH1 0x14 SLOAD LT DUP1 ISZERO PUSH2 0x1225 JUMPI POP PUSH1 0x2 PUSH1 0x8 SLOAD GT JUMPDEST ISZERO PUSH2 0x125C JUMPI PUSH1 0x0 PUSH2 0x1234 PUSH2 0x28DB JUMP JUMPDEST TIMESTAMP PUSH1 0x14 SSTORE PUSH1 0x0 PUSH1 0x8 SSTORE PUSH1 0xA SLOAD SWAP1 SWAP2 POP ISZERO ISZERO PUSH2 0x124E DUP3 PUSH2 0x3210 JUMP JUMPDEST DUP1 ISZERO PUSH2 0x963 JUMPI PUSH2 0x963 PUSH2 0x324C JUMP JUMPDEST JUMP JUMPDEST PUSH1 0x2 PUSH1 0x1 SLOAD EQ ISZERO PUSH2 0x1281 JUMPI PUSH1 0x40 MLOAD PUSH3 0x461BCD PUSH1 0xE5 SHL DUP2 MSTORE PUSH1 0x4 ADD PUSH2 0x838 SWAP1 PUSH2 0x3DE5 JUMP JUMPDEST PUSH1 0x2 PUSH1 0x1 DUP2 SWAP1 SSTORE POP PUSH1 0x0 PUSH1 0xD DUP4 DUP2 SLOAD DUP2 LT PUSH2 0x129E JUMPI PUSH2 0x129E PUSH2 0x4113 JUMP JUMPDEST PUSH1 0x0 SWAP2 DUP3 MSTORE PUSH1 0x20 DUP1 DUP4 KECCAK256 DUP7 DUP5 MSTORE PUSH1 0xC DUP3 MSTORE PUSH1 0x40 DUP1 DUP6 KECCAK256 CALLER DUP7 MSTORE SWAP1 SWAP3 MSTORE SWAP3 KECCAK256 DUP1 SLOAD PUSH1 0xA SWAP1 SWAP3 MUL SWAP1 SWAP3 ADD SWAP3 POP DUP4 GT ISZERO PUSH2 0x133D JUMPI PUSH1 0x40 MLOAD PUSH3 0x461BCD PUSH1 0xE5 SHL DUP2 MSTORE PUSH1 0x20 PUSH1 0x4 DUP3 ADD MSTORE PUSH1 0x3D PUSH1 0x24 DUP3 ADD MSTORE PUSH32 0x77697468647261773A20776974686472617720616D6F756E742063616E277420 PUSH1 0x44 DUP3 ADD MSTORE PUSH32 0x657863656564207573657273206465706F736974656420616D6F756E74000000 PUSH1 0x64 DUP3 ADD MSTORE PUSH1 0x84 ADD PUSH2 0x838 JUMP JUMPDEST PUSH2 0x1346 DUP5 PUSH2 0x1A04 JUMP JUMPDEST PUSH1 0x0 PUSH2 0x1374 DUP3 PUSH1 0x1 ADD SLOAD PUSH2 0xE93 PUSH5 0xE8D4A51000 PUSH2 0xF92 DUP8 PUSH1 0x4 ADD SLOAD DUP8 PUSH1 0x0 ADD SLOAD PUSH2 0x3108 SWAP1 SWAP2 SWAP1 PUSH4 0xFFFFFFFF AND JUMP JUMPDEST SWAP1 POP PUSH1 0x0 DUP2 GT DUP1 ISZERO PUSH2 0x138A JUMPI POP PUSH2 0x138A DUP2 PUSH2 0xE0B JUMP JUMPDEST ISZERO PUSH2 0x1399 JUMPI PUSH2 0x1399 CALLER DUP3 PUSH2 0x3197 JUMP JUMPDEST DUP4 ISZERO PUSH2 0x1504 JUMPI PUSH1 0xE SLOAD PUSH1 0xFF AND ISZERO DUP1 PUSH2 0x13D1 JUMPI POP TIMESTAMP PUSH2 0x13CE DUP5 PUSH1 0x8 ADD SLOAD PUSH3 0x15180 PUSH2 0x13C3 SWAP2 SWAP1 PUSH2 0x402B JUMP JUMPDEST PUSH1 0x2 DUP6 ADD SLOAD SWAP1 PUSH2 0x30F0 JUMP JUMPDEST GT ISZERO JUMPDEST PUSH2 0x1443 JUMPI PUSH1 0x40 MLOAD PUSH3 0x461BCD PUSH1 0xE5 SHL DUP2 MSTORE PUSH1 0x20 PUSH1 0x4 DUP3 ADD MSTORE PUSH1 0x3C PUSH1 0x24 DUP3 ADD MSTORE PUSH32 0x41424F41543A3A77697468647261773A2043616E277420776974686472617720 PUSH1 0x44 DUP3 ADD MSTORE PUSH32 0x6265666F7265206C6F636B696E6720706572696F6420656E6465642E00000000 PUSH1 0x64 DUP3 ADD MSTORE PUSH1 0x84 ADD PUSH2 0x838 JUMP JUMPDEST DUP2 SLOAD PUSH2 0x144F SWAP1 DUP6 PUSH2 0x30FC JUMP JUMPDEST DUP3 SSTORE DUP3 SLOAD PUSH1 0x1 PUSH1 0x1 PUSH1 0xA0 SHL SUB AND ISZERO PUSH2 0x14D6 JUMPI DUP3 SLOAD PUSH1 0x7 DUP5 ADD SLOAD PUSH1 0x40 MLOAD PUSH4 0xAD58D2F PUSH1 0xE0 SHL DUP2 MSTORE PUSH1 0x4 DUP2 ADD SWAP2 SWAP1 SWAP2 MSTORE PUSH1 0x24 DUP2 ADD DUP7 SWAP1 MSTORE CALLER PUSH1 0x44 DUP3 ADD MSTORE PUSH1 0x1 PUSH1 0x1 PUSH1 0xA0 SHL SUB SWAP1 SWAP2 AND SWAP1 PUSH4 0xAD58D2F SWAP1 PUSH1 0x64 ADD PUSH1 0x0 PUSH1 0x40 MLOAD DUP1 DUP4 SUB DUP2 PUSH1 0x0 DUP8 DUP1 EXTCODESIZE ISZERO DUP1 ISZERO PUSH2 0x14B9 JUMPI PUSH1 0x0 DUP1 REVERT JUMPDEST POP GAS CALL ISZERO DUP1 ISZERO PUSH2 0x14CD JUMPI RETURNDATASIZE PUSH1 0x0 DUP1 RETURNDATACOPY RETURNDATASIZE PUSH1 0x0 REVERT JUMPDEST POP POP POP POP PUSH2 0x14EF JUMP JUMPDEST PUSH1 0x1 DUP4 ADD SLOAD PUSH2 0x14EF SWAP1 PUSH1 0x1 PUSH1 0x1 PUSH1 0xA0 SHL SUB AND CALLER DUP7 PUSH2 0x3120 JUMP JUMPDEST PUSH1 0x6 DUP4 ADD SLOAD PUSH2 0x14FE SWAP1 DUP6 PUSH2 0x30FC JUMP JUMPDEST PUSH1 0x6 DUP5 ADD SSTORE JUMPDEST PUSH1 0x4 DUP4 ADD SLOAD DUP3 SLOAD PUSH2 0x151F SWAP2 PUSH5 0xE8D4A51000 SWAP2 PUSH2 0xF92 SWAP2 PUSH2 0x3108 JUMP JUMPDEST PUSH1 0x1 DUP1 DUP5 ADD SWAP2 SWAP1 SWAP2 SSTORE PUSH1 0x5 SLOAD SWAP1 DUP5 ADD SLOAD PUSH1 0x1 PUSH1 0x1 PUSH1 0xA0 SHL SUB SWAP1 DUP2 AND SWAP2 AND EQ ISZERO PUSH2 0x1553 JUMPI PUSH1 0x13 SLOAD PUSH2 0x154F SWAP1 DUP6 PUSH2 0x30FC JUMP JUMPDEST PUSH1 0x13 SSTORE JUMPDEST PUSH1 0x40 MLOAD DUP5 DUP2 MSTORE DUP6 SWAP1 CALLER SWAP1 PUSH32 0xF279E6A1F5E320CCA91135676D9CB6E44CA8A08C0B88342BCDB1144F6511B568 SWAP1 PUSH1 0x20 ADD PUSH1 0x40 MLOAD DUP1 SWAP2 SUB SWAP1 LOG3 PUSH2 0x1592 PUSH2 0x1108 JUMP JUMPDEST POP POP PUSH1 0x1 DUP1 SSTORE POP POP POP JUMP JUMPDEST PUSH1 0x0 DUP1 PUSH1 0x5 PUSH1 0x0 SWAP1 SLOAD SWAP1 PUSH2 0x100 EXP SWAP1 DIV PUSH1 0x1 PUSH1 0x1 PUSH1 0xA0 SHL SUB AND PUSH1 0x1 PUSH1 0x1 PUSH1 0xA0 SHL SUB AND PUSH4 0x808A5457 PUSH1 0x40 MLOAD DUP2 PUSH4 0xFFFFFFFF AND PUSH1 0xE0 SHL DUP2 MSTORE PUSH1 0x4 ADD PUSH1 0x20 PUSH1 0x40 MLOAD DUP1 DUP4 SUB DUP2 DUP7 DUP1 EXTCODESIZE ISZERO DUP1 ISZERO PUSH2 0x15EE JUMPI PUSH1 0x0 DUP1 REVERT JUMPDEST POP GAS STATICCALL ISZERO DUP1 ISZERO PUSH2 0x1602 JUMPI RETURNDATASIZE PUSH1 0x0 DUP1 RETURNDATACOPY RETURNDATASIZE PUSH1 0x0 REVERT JUMPDEST POP POP POP POP PUSH1 0x40 MLOAD RETURNDATASIZE PUSH1 0x1F NOT PUSH1 0x1F DUP3 ADD AND DUP3 ADD DUP1 PUSH1 0x40 MSTORE POP DUP2 ADD SWAP1 PUSH2 0x1626 SWAP2 SWAP1 PUSH2 0x38E7 JUMP JUMPDEST PUSH1 0x6 SLOAD SWAP1 SWAP2 POP PUSH1 0x1 PUSH1 0x1 PUSH1 0xA0 SHL SUB DUP1 DUP4 AND SWAP2 AND EQ PUSH2 0x1669 JUMPI PUSH1 0x6 DUP1 SLOAD PUSH1 0x1 PUSH1 0x1 PUSH1 0xA0 SHL SUB NOT AND PUSH1 0x1 PUSH1 0x1 PUSH1 0xA0 SHL SUB DUP4 AND OR SWAP1 SSTORE PUSH1 0x0 PUSH1 0x8 DUP2 SWAP1 SSTORE PUSH1 0xA DUP2 SWAP1 SSTORE PUSH1 0xB SSTORE JUMPDEST PUSH1 0x6 SLOAD PUSH1 0x40 DUP1 MLOAD PUSH4 0x240BC6B PUSH1 0xE2 SHL DUP2 MSTORE SWAP1 MLOAD PUSH1 0x1 PUSH1 0x1 PUSH1 0xA0 SHL SUB SWAP1 SWAP3 AND SWAP2 PUSH1 0x0 SWAP2 DUP3 SWAP2 DUP5 SWAP2 PUSH4 0x902F1AC SWAP2 PUSH1 0x4 DUP1 DUP4 ADD SWAP3 PUSH1 0x60 SWAP3 SWAP2 SWAP1 DUP3 SWAP1 SUB ADD DUP2 DUP7 DUP1 EXTCODESIZE ISZERO DUP1 ISZERO PUSH2 0x16B4 JUMPI PUSH1 0x0 DUP1 REVERT JUMPDEST POP GAS STATICCALL ISZERO DUP1 ISZERO PUSH2 0x16C8 JUMPI RETURNDATASIZE PUSH1 0x0 DUP1 RETURNDATACOPY RETURNDATASIZE PUSH1 0x0 REVERT JUMPDEST POP POP POP POP PUSH1 0x40 MLOAD RETURNDATASIZE PUSH1 0x1F NOT PUSH1 0x1F DUP3 ADD AND DUP3 ADD DUP1 PUSH1 0x40 MSTORE POP DUP2 ADD SWAP1 PUSH2 0x16EC SWAP2 SWAP1 PUSH2 0x3AB7 JUMP JUMPDEST POP PUSH1 0x1 PUSH1 0x1 PUSH1 0x70 SHL SUB AND SWAP2 POP PUSH1 0x1 PUSH1 0x1 PUSH1 0x70 SHL SUB AND SWAP2 POP DUP2 PUSH1 0x0 EQ DUP1 ISZERO PUSH2 0x1711 JUMPI POP DUP1 ISZERO JUMPDEST ISZERO PUSH2 0x1721 JUMPI PUSH1 0x0 SWAP5 POP POP POP POP POP SWAP1 JUMP JUMPDEST PUSH1 0x0 PUSH1 0x5 PUSH1 0x0 SWAP1 SLOAD SWAP1 PUSH2 0x100 EXP SWAP1 DIV PUSH1 0x1 PUSH1 0x1 PUSH1 0xA0 SHL SUB AND PUSH1 0x1 PUSH1 0x1 PUSH1 0xA0 SHL SUB AND DUP5 PUSH1 0x1 PUSH1 0x1 PUSH1 0xA0 SHL SUB AND PUSH4 0xDFE1681 PUSH1 0x40 MLOAD DUP2 PUSH4 0xFFFFFFFF AND PUSH1 0xE0 SHL DUP2 MSTORE PUSH1 0x4 ADD PUSH1 0x20 PUSH1 0x40 MLOAD DUP1 DUP4 SUB DUP2 DUP7 DUP1 EXTCODESIZE ISZERO DUP1 ISZERO PUSH2 0x177B JUMPI PUSH1 0x0 DUP1 REVERT JUMPDEST POP GAS STATICCALL ISZERO DUP1 ISZERO PUSH2 0x178F JUMPI RETURNDATASIZE PUSH1 0x0 DUP1 RETURNDATACOPY RETURNDATASIZE PUSH1 0x0 REVERT JUMPDEST POP POP POP POP PUSH1 0x40 MLOAD RETURNDATASIZE PUSH1 0x1F NOT PUSH1 0x1F DUP3 ADD AND DUP3 ADD DUP1 PUSH1 0x40 MSTORE POP DUP2 ADD SWAP1 PUSH2 0x17B3 SWAP2 SWAP1 PUSH2 0x38E7 JUMP JUMPDEST PUSH1 0x1 PUSH1 0x1 PUSH1 0xA0 SHL SUB AND EQ PUSH2 0x1837 JUMPI DUP4 PUSH1 0x1 PUSH1 0x1 PUSH1 0xA0 SHL SUB AND PUSH4 0xD21220A7 PUSH1 0x40 MLOAD DUP2 PUSH4 0xFFFFFFFF AND PUSH1 0xE0 SHL DUP2 MSTORE PUSH1 0x4 ADD PUSH1 0x20 PUSH1 0x40 MLOAD DUP1 DUP4 SUB DUP2 DUP7 DUP1 EXTCODESIZE ISZERO DUP1 ISZERO PUSH2 0x17FA JUMPI PUSH1 0x0 DUP1 REVERT JUMPDEST POP GAS STATICCALL ISZERO DUP1 ISZERO PUSH2 0x180E JUMPI RETURNDATASIZE PUSH1 0x0 DUP1 RETURNDATACOPY RETURNDATASIZE PUSH1 0x0 REVERT JUMPDEST POP POP POP POP PUSH1 0x40 MLOAD RETURNDATASIZE PUSH1 0x1F NOT PUSH1 0x1F DUP3 ADD AND DUP3 ADD DUP1 PUSH1 0x40 MSTORE POP DUP2 ADD SWAP1 PUSH2 0x1832 SWAP2 SWAP1 PUSH2 0x38E7 JUMP JUMPDEST PUSH2 0x18A8 JUMP JUMPDEST DUP4 PUSH1 0x1 PUSH1 0x1 PUSH1 0xA0 SHL SUB AND PUSH4 0xD21220A7 PUSH1 0x40 MLOAD DUP2 PUSH4 0xFFFFFFFF AND PUSH1 0xE0 SHL DUP2 MSTORE PUSH1 0x4 ADD PUSH1 0x20 PUSH1 0x40 MLOAD DUP1 DUP4 SUB DUP2 DUP7 DUP1 EXTCODESIZE ISZERO DUP1 ISZERO PUSH2 0x1870 JUMPI PUSH1 0x0 DUP1 REVERT JUMPDEST POP GAS STATICCALL ISZERO DUP1 ISZERO PUSH2 0x1884 JUMPI RETURNDATASIZE PUSH1 0x0 DUP1 RETURNDATACOPY RETURNDATASIZE PUSH1 0x0 REVERT JUMPDEST POP POP POP POP PUSH1 0x40 MLOAD RETURNDATASIZE PUSH1 0x1F NOT PUSH1 0x1F DUP3 ADD AND DUP3 ADD DUP1 PUSH1 0x40 MSTORE POP DUP2 ADD SWAP1 PUSH2 0x18A8 SWAP2 SWAP1 PUSH2 0x38E7 JUMP JUMPDEST SWAP1 POP PUSH1 0x0 PUSH1 0x5 PUSH1 0x0 SWAP1 SLOAD SWAP1 PUSH2 0x100 EXP SWAP1 DIV PUSH1 0x1 PUSH1 0x1 PUSH1 0xA0 SHL SUB AND PUSH1 0x1 PUSH1 0x1 PUSH1 0xA0 SHL SUB AND DUP6 PUSH1 0x1 PUSH1 0x1 PUSH1 0xA0 SHL SUB AND PUSH4 0xDFE1681 PUSH1 0x40 MLOAD DUP2 PUSH4 0xFFFFFFFF AND PUSH1 0xE0 SHL DUP2 MSTORE PUSH1 0x4 ADD PUSH1 0x20 PUSH1 0x40 MLOAD DUP1 DUP4 SUB DUP2 DUP7 DUP1 EXTCODESIZE ISZERO DUP1 ISZERO PUSH2 0x1904 JUMPI PUSH1 0x0 DUP1 REVERT JUMPDEST POP GAS STATICCALL ISZERO DUP1 ISZERO PUSH2 0x1918 JUMPI RETURNDATASIZE PUSH1 0x0 DUP1 RETURNDATACOPY RETURNDATASIZE PUSH1 0x0 REVERT JUMPDEST POP POP POP POP PUSH1 0x40 MLOAD RETURNDATASIZE PUSH1 0x1F NOT PUSH1 0x1F DUP3 ADD AND DUP3 ADD DUP1 PUSH1 0x40 MSTORE POP DUP2 ADD SWAP1 PUSH2 0x193C SWAP2 SWAP1 PUSH2 0x38E7 JUMP JUMPDEST PUSH1 0x1 PUSH1 0x1 PUSH1 0xA0 SHL SUB AND EQ PUSH2 0x1950 JUMPI DUP4 PUSH2 0x1952 JUMP JUMPDEST DUP3 JUMPDEST SWAP1 POP PUSH1 0x0 DUP5 DUP3 EQ PUSH2 0x1963 JUMPI DUP5 PUSH2 0x1965 JUMP JUMPDEST DUP4 JUMPDEST SWAP1 POP DUP1 DUP4 PUSH1 0x1 PUSH1 0x1 PUSH1 0xA0 SHL SUB AND PUSH4 0x313CE567 PUSH1 0x40 MLOAD DUP2 PUSH4 0xFFFFFFFF AND PUSH1 0xE0 SHL DUP2 MSTORE PUSH1 0x4 ADD PUSH1 0x20 PUSH1 0x40 MLOAD DUP1 DUP4 SUB DUP2 DUP7 DUP1 EXTCODESIZE ISZERO DUP1 ISZERO PUSH2 0x19A1 JUMPI PUSH1 0x0 DUP1 REVERT JUMPDEST POP GAS STATICCALL ISZERO DUP1 ISZERO PUSH2 0x19B5 JUMPI RETURNDATASIZE PUSH1 0x0 DUP1 RETURNDATACOPY RETURNDATASIZE PUSH1 0x0 REVERT JUMPDEST POP POP POP POP PUSH1 0x40 MLOAD RETURNDATASIZE PUSH1 0x1F NOT PUSH1 0x1F DUP3 ADD AND DUP3 ADD DUP1 PUSH1 0x40 MSTORE POP DUP2 ADD SWAP1 PUSH2 0x19D9 SWAP2 SWAP1 PUSH2 0x3CBD JUMP JUMPDEST PUSH2 0x19E4 SWAP1 PUSH1 0xA PUSH2 0x3EFB JUMP JUMPDEST PUSH2 0x19EE SWAP1 DUP5 PUSH2 0x402B JUMP JUMPDEST PUSH2 0x19F8 SWAP2 SWAP1 PUSH2 0x3EA4 JUMP JUMPDEST SWAP8 POP POP POP POP POP POP POP POP SWAP1 JUMP JUMPDEST PUSH1 0x0 PUSH1 0xD DUP3 DUP2 SLOAD DUP2 LT PUSH2 0x1A19 JUMPI PUSH2 0x1A19 PUSH2 0x4113 JUMP JUMPDEST SWAP1 PUSH1 0x0 MSTORE PUSH1 0x20 PUSH1 0x0 KECCAK256 SWAP1 PUSH1 0xA MUL ADD SWAP1 POP DUP1 PUSH1 0x3 ADD SLOAD NUMBER GT PUSH2 0x1A38 JUMPI POP POP JUMP JUMPDEST PUSH1 0x0 PUSH2 0x1A43 DUP4 PUSH2 0x1DA0 JUMP JUMPDEST SWAP1 POP DUP1 PUSH2 0x1A55 JUMPI POP NUMBER PUSH1 0x3 SWAP1 SWAP2 ADD SSTORE POP JUMP JUMPDEST PUSH1 0x0 PUSH2 0x1A6E DUP4 PUSH1 0x3 ADD SLOAD NUMBER PUSH2 0x30FC SWAP1 SWAP2 SWAP1 PUSH4 0xFFFFFFFF AND JUMP JUMPDEST SWAP1 POP PUSH1 0x0 PUSH2 0x1A9B PUSH1 0x12 SLOAD PUSH2 0xF92 DUP7 PUSH1 0x2 ADD SLOAD PUSH2 0x1A95 PUSH1 0x10 SLOAD DUP8 PUSH2 0x3108 SWAP1 SWAP2 SWAP1 PUSH4 0xFFFFFFFF AND JUMP JUMPDEST SWAP1 PUSH2 0x3108 JUMP JUMPDEST SWAP1 POP PUSH2 0x1AB5 PUSH2 0x1AAB DUP3 PUSH1 0xA PUSH2 0x3114 JUMP JUMPDEST PUSH2 0x425 SWAP1 DUP4 PUSH2 0x3E5E JUMP JUMPDEST ISZERO PUSH2 0x1ADF JUMPI PUSH1 0xE SLOAD PUSH2 0x1ADF SWAP1 PUSH2 0x100 SWAP1 DIV PUSH1 0x1 PUSH1 0x1 PUSH1 0xA0 SHL SUB AND PUSH2 0x1ADA DUP4 PUSH1 0xA PUSH2 0x3114 JUMP JUMPDEST PUSH2 0x3197 JUMP JUMPDEST PUSH2 0x1B00 PUSH2 0x1AF5 DUP5 PUSH2 0xF92 DUP5 PUSH5 0xE8D4A51000 PUSH2 0x3108 JUMP JUMPDEST PUSH1 0x4 DUP7 ADD SLOAD SWAP1 PUSH2 0x30F0 JUMP JUMPDEST PUSH1 0x4 DUP6 ADD SSTORE POP POP NUMBER PUSH1 0x3 SWAP1 SWAP3 ADD SWAP2 SWAP1 SWAP2 SSTORE POP POP JUMP JUMPDEST PUSH1 0x0 DUP4 PUSH1 0x1 PUSH1 0x1 PUSH1 0xA0 SHL SUB DUP2 AND PUSH2 0x1B30 JUMPI PUSH1 0x0 SWAP2 POP POP PUSH2 0x1D99 JUMP JUMPDEST PUSH1 0x0 DUP5 PUSH1 0x1 PUSH1 0x1 PUSH1 0xA0 SHL SUB AND DUP3 PUSH1 0x1 PUSH1 0x1 PUSH1 0xA0 SHL SUB AND PUSH4 0xDFE1681 PUSH1 0x40 MLOAD DUP2 PUSH4 0xFFFFFFFF AND PUSH1 0xE0 SHL DUP2 MSTORE PUSH1 0x4 ADD PUSH1 0x20 PUSH1 0x40 MLOAD DUP1 DUP4 SUB DUP2 DUP7 DUP1 EXTCODESIZE ISZERO DUP1 ISZERO PUSH2 0x1B75 JUMPI PUSH1 0x0 DUP1 REVERT JUMPDEST POP GAS STATICCALL ISZERO DUP1 ISZERO PUSH2 0x1B89 JUMPI RETURNDATASIZE PUSH1 0x0 DUP1 RETURNDATACOPY RETURNDATASIZE PUSH1 0x0 REVERT JUMPDEST POP POP POP POP PUSH1 0x40 MLOAD RETURNDATASIZE PUSH1 0x1F NOT PUSH1 0x1F DUP3 ADD AND DUP3 ADD DUP1 PUSH1 0x40 MSTORE POP DUP2 ADD SWAP1 PUSH2 0x1BAD SWAP2 SWAP1 PUSH2 0x38E7 JUMP JUMPDEST PUSH1 0x1 PUSH1 0x1 PUSH1 0xA0 SHL SUB AND EQ SWAP1 POP PUSH1 0x0 DUP6 PUSH1 0x1 PUSH1 0x1 PUSH1 0xA0 SHL SUB AND DUP4 PUSH1 0x1 PUSH1 0x1 PUSH1 0xA0 SHL SUB AND PUSH4 0xD21220A7 PUSH1 0x40 MLOAD DUP2 PUSH4 0xFFFFFFFF AND PUSH1 0xE0 SHL DUP2 MSTORE PUSH1 0x4 ADD PUSH1 0x20 PUSH1 0x40 MLOAD DUP1 DUP4 SUB DUP2 DUP7 DUP1 EXTCODESIZE ISZERO DUP1 ISZERO PUSH2 0x1BFE JUMPI PUSH1 0x0 DUP1 REVERT JUMPDEST POP GAS STATICCALL ISZERO DUP1 ISZERO PUSH2 0x1C12 JUMPI RETURNDATASIZE PUSH1 0x0 DUP1 RETURNDATACOPY RETURNDATASIZE PUSH1 0x0 REVERT JUMPDEST POP POP POP POP PUSH1 0x40 MLOAD RETURNDATASIZE PUSH1 0x1F NOT PUSH1 0x1F DUP3 ADD AND DUP3 ADD DUP1 PUSH1 0x40 MSTORE POP DUP2 ADD SWAP1 PUSH2 0x1C36 SWAP2 SWAP1 PUSH2 0x38E7 JUMP JUMPDEST PUSH1 0x1 PUSH1 0x1 PUSH1 0xA0 SHL SUB AND EQ SWAP1 POP PUSH1 0x0 DUP1 DUP5 PUSH1 0x1 PUSH1 0x1 PUSH1 0xA0 SHL SUB AND PUSH4 0x902F1AC PUSH1 0x40 MLOAD DUP2 PUSH4 0xFFFFFFFF AND PUSH1 0xE0 SHL DUP2 MSTORE PUSH1 0x4 ADD PUSH1 0x60 PUSH1 0x40 MLOAD DUP1 DUP4 SUB DUP2 DUP7 DUP1 EXTCODESIZE ISZERO DUP1 ISZERO PUSH2 0x1C7E JUMPI PUSH1 0x0 DUP1 REVERT JUMPDEST POP GAS STATICCALL ISZERO DUP1 ISZERO PUSH2 0x1C92 JUMPI RETURNDATASIZE PUSH1 0x0 DUP1 RETURNDATACOPY RETURNDATASIZE PUSH1 0x0 REVERT JUMPDEST POP POP POP POP PUSH1 0x40 MLOAD RETURNDATASIZE PUSH1 0x1F NOT PUSH1 0x1F DUP3 ADD AND DUP3 ADD DUP1 PUSH1 0x40 MSTORE POP DUP2 ADD SWAP1 PUSH2 0x1CB6 SWAP2 SWAP1 PUSH2 0x3AB7 JUMP JUMPDEST POP PUSH1 0x1 PUSH1 0x1 PUSH1 0x70 SHL SUB AND SWAP2 POP PUSH1 0x1 PUSH1 0x1 PUSH1 0x70 SHL SUB AND SWAP2 POP DUP2 PUSH1 0x0 EQ DUP1 ISZERO PUSH2 0x1CDB JUMPI POP DUP1 ISZERO JUMPDEST DUP1 PUSH2 0x1CED JUMPI POP DUP4 ISZERO DUP1 ISZERO PUSH2 0x1CED JUMPI POP DUP3 ISZERO JUMPDEST ISZERO PUSH2 0x1D00 JUMPI PUSH1 0x0 SWAP6 POP POP POP POP POP POP PUSH2 0x1D99 JUMP JUMPDEST PUSH1 0x0 DUP6 PUSH1 0x1 PUSH1 0x1 PUSH1 0xA0 SHL SUB AND PUSH4 0x18160DDD PUSH1 0x40 MLOAD DUP2 PUSH4 0xFFFFFFFF AND PUSH1 0xE0 SHL DUP2 MSTORE PUSH1 0x4 ADD PUSH1 0x20 PUSH1 0x40 MLOAD DUP1 DUP4 SUB DUP2 DUP7 DUP1 EXTCODESIZE ISZERO DUP1 ISZERO PUSH2 0x1D3B JUMPI PUSH1 0x0 DUP1 REVERT JUMPDEST POP GAS STATICCALL ISZERO DUP1 ISZERO PUSH2 0x1D4F JUMPI RETURNDATASIZE PUSH1 0x0 DUP1 RETURNDATACOPY RETURNDATASIZE PUSH1 0x0 REVERT JUMPDEST POP POP POP POP PUSH1 0x40 MLOAD RETURNDATASIZE PUSH1 0x1F NOT PUSH1 0x1F DUP3 ADD AND DUP3 ADD DUP1 PUSH1 0x40 MSTORE POP DUP2 ADD SWAP1 PUSH2 0x1D73 SWAP2 SWAP1 PUSH2 0x3B3B JUMP JUMPDEST SWAP1 POP PUSH2 0x1D90 DUP2 PUSH2 0xF92 DUP8 PUSH2 0x1D87 JUMPI DUP5 PUSH2 0x1D89 JUMP JUMPDEST DUP6 JUMPDEST DUP12 SWAP1 PUSH2 0x3108 JUMP JUMPDEST SWAP7 POP POP POP POP POP POP POP JUMPDEST SWAP4 SWAP3 POP POP POP JUMP JUMPDEST PUSH1 0x0 DUP1 PUSH1 0xD DUP4 DUP2 SLOAD DUP2 LT PUSH2 0x1DB6 JUMPI PUSH2 0x1DB6 PUSH2 0x4113 JUMP JUMPDEST PUSH1 0x0 SWAP2 DUP3 MSTORE PUSH1 0x20 DUP3 KECCAK256 PUSH1 0x5 SLOAD PUSH1 0xA SWAP3 SWAP1 SWAP3 MUL ADD PUSH1 0x1 DUP2 ADD SLOAD SWAP1 SWAP4 POP PUSH1 0x1 PUSH1 0x1 PUSH1 0xA0 SHL SUB SWAP2 DUP3 AND SWAP2 AND EQ DUP1 PUSH2 0x1DF3 JUMPI POP DUP2 SLOAD PUSH1 0x1 PUSH1 0x1 PUSH1 0xA0 SHL SUB AND ISZERO ISZERO JUMPDEST ISZERO PUSH2 0x1E03 JUMPI POP PUSH1 0x6 DUP2 ADD SLOAD PUSH2 0x1D99 JUMP JUMPDEST PUSH1 0x1 DUP3 ADD SLOAD PUSH1 0x40 MLOAD PUSH4 0x70A08231 PUSH1 0xE0 SHL DUP2 MSTORE ADDRESS PUSH1 0x4 DUP3 ADD MSTORE PUSH1 0x1 PUSH1 0x1 PUSH1 0xA0 SHL SUB SWAP1 SWAP2 AND SWAP1 PUSH4 0x70A08231 SWAP1 PUSH1 0x24 ADD PUSH1 0x20 PUSH1 0x40 MLOAD DUP1 DUP4 SUB DUP2 DUP7 DUP1 EXTCODESIZE ISZERO DUP1 ISZERO PUSH2 0x1E48 JUMPI PUSH1 0x0 DUP1 REVERT JUMPDEST POP GAS STATICCALL ISZERO DUP1 ISZERO PUSH2 0x1E5C JUMPI RETURNDATASIZE PUSH1 0x0 DUP1 RETURNDATACOPY RETURNDATASIZE PUSH1 0x0 REVERT JUMPDEST POP POP POP POP PUSH1 0x40 MLOAD RETURNDATASIZE PUSH1 0x1F NOT PUSH1 0x1F DUP3 ADD AND DUP3 ADD DUP1 PUSH1 0x40 MSTORE POP DUP2 ADD SWAP1 PUSH2 0x1E80 SWAP2 SWAP1 PUSH2 0x3B3B JUMP JUMPDEST SWAP5 SWAP4 POP POP POP POP JUMP JUMPDEST PUSH1 0xD SLOAD PUSH1 0x0 JUMPDEST DUP2 DUP2 LT ISZERO PUSH2 0x963 JUMPI PUSH2 0x1E9F DUP2 PUSH2 0x1A04 JUMP JUMPDEST PUSH2 0x1EA8 DUP2 PUSH2 0x40CC JUMP JUMPDEST SWAP1 POP PUSH2 0x1E8E JUMP JUMPDEST PUSH2 0x125C PUSH2 0x1108 JUMP JUMPDEST PUSH1 0xD DUP2 DUP2 SLOAD DUP2 LT PUSH2 0x1EC7 JUMPI PUSH1 0x0 DUP1 REVERT JUMPDEST PUSH1 0x0 SWAP2 DUP3 MSTORE PUSH1 0x20 SWAP1 SWAP2 KECCAK256 PUSH1 0xA SWAP1 SWAP2 MUL ADD DUP1 SLOAD PUSH1 0x1 DUP3 ADD SLOAD PUSH1 0x2 DUP4 ADD SLOAD PUSH1 0x3 DUP5 ADD SLOAD PUSH1 0x4 DUP6 ADD SLOAD PUSH1 0x5 DUP7 ADD SLOAD PUSH1 0x6 DUP8 ADD SLOAD PUSH1 0x7 DUP9 ADD SLOAD PUSH1 0x8 DUP10 ADD SLOAD PUSH1 0x9 SWAP1 SWAP10 ADD SLOAD PUSH1 0x1 PUSH1 0x1 PUSH1 0xA0 SHL SUB SWAP9 DUP10 AND SWAP11 POP SWAP8 SWAP1 SWAP7 AND SWAP8 SWAP5 SWAP7 SWAP4 SWAP6 SWAP3 SWAP5 PUSH2 0xFFFF SWAP1 SWAP3 AND SWAP4 SWAP1 SWAP3 SWAP2 SWAP1 PUSH1 0xFF AND DUP11 JUMP JUMPDEST PUSH1 0x7 DUP2 DUP2 SLOAD DUP2 LT PUSH2 0x1F40 JUMPI PUSH1 0x0 DUP1 REVERT JUMPDEST PUSH1 0x0 SWAP2 DUP3 MSTORE PUSH1 0x20 SWAP1 SWAP2 KECCAK256 ADD SLOAD SWAP1 POP DUP2 JUMP JUMPDEST PUSH1 0x0 SLOAD PUSH1 0x1 PUSH1 0x1 PUSH1 0xA0 SHL SUB AND CALLER EQ PUSH2 0x1F7B JUMPI PUSH1 0x40 MLOAD PUSH3 0x461BCD PUSH1 0xE5 SHL DUP2 MSTORE PUSH1 0x4 ADD PUSH2 0x838 SWAP1 PUSH2 0x3D2F JUMP JUMPDEST PUSH2 0x125C PUSH1 0x0 PUSH2 0x3298 JUMP JUMPDEST CALLER PUSH2 0x1F98 PUSH1 0x0 SLOAD PUSH1 0x1 PUSH1 0x1 PUSH1 0xA0 SHL SUB AND SWAP1 JUMP JUMPDEST PUSH1 0x1 PUSH1 0x1 PUSH1 0xA0 SHL SUB AND EQ DUP1 PUSH2 0x1FB7 JUMPI POP PUSH1 0x4 SLOAD PUSH1 0x1 PUSH1 0x1 PUSH1 0xA0 SHL SUB AND CALLER EQ JUMPDEST PUSH2 0x1FD3 JUMPI PUSH1 0x40 MLOAD PUSH3 0x461BCD PUSH1 0xE5 SHL DUP2 MSTORE PUSH1 0x4 ADD PUSH2 0x838 SWAP1 PUSH2 0x3D90 JUMP JUMPDEST PUSH1 0xE DUP1 SLOAD PUSH1 0xFF NOT AND SWAP2 ISZERO ISZERO SWAP2 SWAP1 SWAP2 OR SWAP1 SSTORE JUMP JUMPDEST PUSH1 0x0 SLOAD PUSH1 0x1 PUSH1 0x1 PUSH1 0xA0 SHL SUB AND CALLER EQ PUSH2 0x2010 JUMPI PUSH1 0x40 MLOAD PUSH3 0x461BCD PUSH1 0xE5 SHL DUP2 MSTORE PUSH1 0x4 ADD PUSH2 0x838 SWAP1 PUSH2 0x3D2F JUMP JUMPDEST PUSH1 0x40 DUP1 MLOAD DUP1 DUP3 ADD SWAP1 SWAP2 MSTORE PUSH1 0x7 DUP2 MSTORE PUSH7 0x39B2BA21B7B4B7 PUSH1 0xC9 SHL PUSH1 0x20 DUP3 ADD MSTORE PUSH1 0x2 SLOAD PUSH1 0xFF AND ISZERO DUP1 PUSH2 0x20C0 JUMPI POP PUSH1 0x3 DUP2 PUSH1 0x40 MLOAD PUSH2 0x204B SWAP2 SWAP1 PUSH2 0x3CE0 JUMP JUMPDEST SWAP1 DUP2 MSTORE PUSH1 0x20 ADD PUSH1 0x40 MLOAD DUP1 SWAP2 SUB SWAP1 KECCAK256 SLOAD PUSH1 0x0 EQ ISZERO DUP1 ISZERO PUSH2 0x2088 JUMPI POP TIMESTAMP PUSH1 0x3 DUP3 PUSH1 0x40 MLOAD PUSH2 0x2076 SWAP2 SWAP1 PUSH2 0x3CE0 JUMP JUMPDEST SWAP1 DUP2 MSTORE PUSH1 0x20 ADD PUSH1 0x40 MLOAD DUP1 SWAP2 SUB SWAP1 KECCAK256 SLOAD GT ISZERO JUMPDEST DUP1 ISZERO PUSH2 0x20C0 JUMPI POP TIMESTAMP PUSH3 0x15180 PUSH1 0x3 DUP4 PUSH1 0x40 MLOAD PUSH2 0x20A4 SWAP2 SWAP1 PUSH2 0x3CE0 JUMP JUMPDEST SWAP1 DUP2 MSTORE PUSH1 0x20 ADD PUSH1 0x40 MLOAD DUP1 SWAP2 SUB SWAP1 KECCAK256 SLOAD PUSH2 0x20BD SWAP2 SWAP1 PUSH2 0x3E5E JUMP JUMPDEST LT ISZERO JUMPDEST PUSH2 0x20DC JUMPI PUSH1 0x40 MLOAD PUSH3 0x461BCD PUSH1 0xE5 SHL DUP2 MSTORE PUSH1 0x4 ADD PUSH2 0x838 SWAP1 PUSH2 0x3D64 JUMP JUMPDEST PUSH1 0x5 SLOAD PUSH1 0x1 PUSH1 0x1 PUSH1 0xA0 SHL SUB DUP4 DUP2 AND SWAP2 AND EQ ISZERO PUSH2 0x214E JUMPI PUSH1 0x40 MLOAD PUSH3 0x461BCD PUSH1 0xE5 SHL DUP2 MSTORE PUSH1 0x20 PUSH1 0x4 DUP3 ADD MSTORE PUSH1 0x2B PUSH1 0x24 DUP3 ADD MSTORE PUSH32 0x41424F41543A3A736574436F696E3A2043616E2774207265706C616365207468 PUSH1 0x44 DUP3 ADD MSTORE PUSH11 0x329039B0B6B29031B7B4B7 PUSH1 0xA9 SHL PUSH1 0x64 DUP3 ADD MSTORE PUSH1 0x84 ADD PUSH2 0x838 JUMP JUMPDEST PUSH1 0x1 PUSH1 0x1 PUSH1 0xA0 SHL SUB DUP3 AND PUSH2 0x21BB JUMPI PUSH1 0x40 MLOAD PUSH3 0x461BCD PUSH1 0xE5 SHL DUP2 MSTORE PUSH1 0x20 PUSH1 0x4 DUP3 ADD MSTORE PUSH1 0x2E PUSH1 0x24 DUP3 ADD MSTORE PUSH32 0x41424F41543A3A736574436F696E3A2043616E27742073657420636F696E2074 PUSH1 0x44 DUP3 ADD MSTORE PUSH14 0x6F207A65726F2061646472657373 PUSH1 0x90 SHL PUSH1 0x64 DUP3 ADD MSTORE PUSH1 0x84 ADD PUSH2 0x838 JUMP JUMPDEST PUSH1 0x5 DUP1 SLOAD PUSH1 0x1 PUSH1 0x1 PUSH1 0xA0 SHL SUB DUP5 DUP2 AND PUSH1 0x1 PUSH1 0x1 PUSH1 0xA0 SHL SUB NOT DUP4 AND DUP2 OR SWAP1 SWAP4 SSTORE PUSH1 0x40 DUP1 MLOAD PUSH4 0x808A5457 PUSH1 0xE0 SHL DUP2 MSTORE SWAP1 MLOAD SWAP2 SWAP1 SWAP3 AND SWAP3 SWAP2 PUSH4 0x808A5457 SWAP2 PUSH1 0x4 DUP1 DUP4 ADD SWAP3 PUSH1 0x20 SWAP3 SWAP2 SWAP1 DUP3 SWAP1 SUB ADD DUP2 DUP7 DUP1 EXTCODESIZE ISZERO DUP1 ISZERO PUSH2 0x2215 JUMPI PUSH1 0x0 DUP1 REVERT JUMPDEST POP GAS STATICCALL ISZERO DUP1 ISZERO PUSH2 0x2229 JUMPI RETURNDATASIZE PUSH1 0x0 DUP1 RETURNDATACOPY RETURNDATASIZE PUSH1 0x0 REVERT JUMPDEST POP POP POP POP PUSH1 0x40 MLOAD RETURNDATASIZE PUSH1 0x1F NOT PUSH1 0x1F DUP3 ADD AND DUP3 ADD DUP1 PUSH1 0x40 MSTORE POP DUP2 ADD SWAP1 PUSH2 0x224D SWAP2 SWAP1 PUSH2 0x38E7 JUMP JUMPDEST PUSH1 0x6 DUP1 SLOAD PUSH1 0x1 PUSH1 0x1 PUSH1 0xA0 SHL SUB NOT AND PUSH1 0x1 PUSH1 0x1 PUSH1 0xA0 SHL SUB SWAP3 DUP4 AND OR SWAP1 SSTORE PUSH1 0x0 PUSH1 0x8 DUP2 SWAP1 SSTORE PUSH1 0xA DUP2 SWAP1 SSTORE PUSH1 0xB DUP2 SWAP1 SSTORE PUSH1 0x5 SLOAD PUSH1 0x40 MLOAD SWAP1 DUP4 AND SWAP3 DUP5 AND SWAP2 PUSH32 0x2DBA03F722A3E07E4F2D2132F8161A513EE0B79EAC0D928B67F5DFFB49316C1B SWAP2 LOG3 POP PUSH2 0x963 DUP2 PUSH2 0x25F1 JUMP JUMPDEST PUSH1 0xD SLOAD PUSH1 0x0 SWAP1 DUP2 DUP1 JUMPDEST DUP3 DUP2 LT ISZERO PUSH2 0x23A4 JUMPI PUSH1 0x0 PUSH1 0xD DUP3 DUP2 SLOAD DUP2 LT PUSH2 0x22DA JUMPI PUSH2 0x22DA PUSH2 0x4113 JUMP JUMPDEST SWAP1 PUSH1 0x0 MSTORE PUSH1 0x20 PUSH1 0x0 KECCAK256 SWAP1 PUSH1 0xA MUL ADD SWAP1 POP DUP6 PUSH1 0x0 EQ DUP1 PUSH2 0x22FD JUMPI POP DUP1 PUSH1 0x8 ADD SLOAD DUP7 GT ISZERO JUMPDEST ISZERO PUSH2 0x2393 JUMPI PUSH1 0x1 DUP2 ADD SLOAD PUSH1 0x5 SLOAD PUSH1 0x1 PUSH1 0x1 PUSH1 0xA0 SHL SUB SWAP2 DUP3 AND SWAP2 AND DUP1 DUP3 EQ DUP1 PUSH2 0x2329 JUMPI POP PUSH1 0x9 DUP4 ADD SLOAD PUSH1 0xFF AND JUMPDEST ISZERO PUSH2 0x2390 JUMPI PUSH1 0x0 DUP5 DUP2 MSTORE PUSH1 0xC PUSH1 0x20 SWAP1 DUP2 MSTORE PUSH1 0x40 DUP1 DUP4 KECCAK256 PUSH1 0x1 PUSH1 0x1 PUSH1 0xA0 SHL SUB DUP1 DUP15 AND DUP6 MSTORE SWAP3 MSTORE SWAP1 SWAP2 KECCAK256 SWAP1 DUP4 DUP2 AND SWAP1 DUP4 AND EQ ISZERO PUSH2 0x2372 JUMPI DUP1 SLOAD PUSH2 0x236B SWAP1 DUP8 SWAP1 PUSH2 0x30F0 JUMP JUMPDEST SWAP6 POP PUSH2 0x238E JUMP JUMPDEST PUSH2 0x238B PUSH2 0x2384 DUP5 DUP5 DUP5 PUSH1 0x0 ADD SLOAD PUSH2 0x1B15 JUMP JUMPDEST DUP8 SWAP1 PUSH2 0x30F0 JUMP JUMPDEST SWAP6 POP JUMPDEST POP JUMPDEST POP POP JUMPDEST POP PUSH2 0x239D DUP2 PUSH2 0x40CC JUMP JUMPDEST SWAP1 POP PUSH2 0x22BD JUMP JUMPDEST POP SWAP2 POP POP JUMPDEST SWAP3 SWAP2 POP POP JUMP JUMPDEST PUSH1 0x0 SLOAD PUSH1 0x1 PUSH1 0x1 PUSH1 0xA0 SHL SUB AND CALLER EQ PUSH2 0x23D9 JUMPI PUSH1 0x40 MLOAD PUSH3 0x461BCD PUSH1 0xE5 SHL DUP2 MSTORE PUSH1 0x4 ADD PUSH2 0x838 SWAP1 PUSH2 0x3D2F JUMP JUMPDEST PUSH2 0x2710 DUP6 PUSH2 0xFFFF AND GT ISZERO PUSH2 0x23FF JUMPI PUSH1 0x40 MLOAD PUSH3 0x461BCD PUSH1 0xE5 SHL DUP2 MSTORE PUSH1 0x4 ADD PUSH2 0x838 SWAP1 PUSH2 0x3E1C JUMP JUMPDEST DUP1 ISZERO PUSH2 0x240D JUMPI PUSH2 0x240D PUSH2 0x1E88 JUMP JUMPDEST PUSH1 0x0 PUSH1 0x11 SLOAD NUMBER GT PUSH2 0x2420 JUMPI PUSH1 0x11 SLOAD PUSH2 0x2422 JUMP JUMPDEST NUMBER JUMPDEST PUSH1 0x12 SLOAD SWAP1 SWAP2 POP PUSH2 0x2432 SWAP1 DUP11 PUSH2 0x30F0 JUMP JUMPDEST PUSH1 0x12 DUP2 SWAP1 SSTORE POP PUSH1 0xD PUSH1 0x40 MLOAD DUP1 PUSH2 0x140 ADD PUSH1 0x40 MSTORE DUP1 DUP8 PUSH1 0x1 PUSH1 0x1 PUSH1 0xA0 SHL SUB AND DUP2 MSTORE PUSH1 0x20 ADD DUP11 PUSH1 0x1 PUSH1 0x1 PUSH1 0xA0 SHL SUB AND DUP2 MSTORE PUSH1 0x20 ADD DUP12 DUP2 MSTORE PUSH1 0x20 ADD DUP4 DUP2 MSTORE PUSH1 0x20 ADD PUSH1 0x0 DUP2 MSTORE PUSH1 0x20 ADD DUP9 PUSH2 0xFFFF AND DUP2 MSTORE PUSH1 0x20 ADD PUSH1 0x0 DUP2 MSTORE PUSH1 0x20 ADD DUP10 DUP2 MSTORE PUSH1 0x20 ADD DUP7 DUP2 MSTORE PUSH1 0x20 ADD DUP6 ISZERO ISZERO DUP2 MSTORE POP SWAP1 DUP1 PUSH1 0x1 DUP2 SLOAD ADD DUP1 DUP3 SSTORE DUP1 SWAP2 POP POP PUSH1 0x1 SWAP1 SUB SWAP1 PUSH1 0x0 MSTORE PUSH1 0x20 PUSH1 0x0 KECCAK256 SWAP1 PUSH1 0xA MUL ADD PUSH1 0x0 SWAP1 SWAP2 SWAP1 SWAP2 SWAP1 SWAP2 POP PUSH1 0x0 DUP3 ADD MLOAD DUP2 PUSH1 0x0 ADD PUSH1 0x0 PUSH2 0x100 EXP DUP2 SLOAD DUP2 PUSH1 0x1 PUSH1 0x1 PUSH1 0xA0 SHL SUB MUL NOT AND SWAP1 DUP4 PUSH1 0x1 PUSH1 0x1 PUSH1 0xA0 SHL SUB AND MUL OR SWAP1 SSTORE POP PUSH1 0x20 DUP3 ADD MLOAD DUP2 PUSH1 0x1 ADD PUSH1 0x0 PUSH2 0x100 EXP DUP2 SLOAD DUP2 PUSH1 0x1 PUSH1 0x1 PUSH1 0xA0 SHL SUB MUL NOT AND SWAP1 DUP4 PUSH1 0x1 PUSH1 0x1 PUSH1 0xA0 SHL SUB AND MUL OR SWAP1 SSTORE POP PUSH1 0x40 DUP3 ADD MLOAD DUP2 PUSH1 0x2 ADD SSTORE PUSH1 0x60 DUP3 ADD MLOAD DUP2 PUSH1 0x3 ADD SSTORE PUSH1 0x80 DUP3 ADD MLOAD DUP2 PUSH1 0x4 ADD SSTORE PUSH1 0xA0 DUP3 ADD MLOAD DUP2 PUSH1 0x5 ADD PUSH1 0x0 PUSH2 0x100 EXP DUP2 SLOAD DUP2 PUSH2 0xFFFF MUL NOT AND SWAP1 DUP4 PUSH2 0xFFFF AND MUL OR SWAP1 SSTORE POP PUSH1 0xC0 DUP3 ADD MLOAD DUP2 PUSH1 0x6 ADD SSTORE PUSH1 0xE0 DUP3 ADD MLOAD DUP2 PUSH1 0x7 ADD SSTORE PUSH2 0x100 DUP3 ADD MLOAD DUP2 PUSH1 0x8 ADD SSTORE PUSH2 0x120 DUP3 ADD MLOAD DUP2 PUSH1 0x9 ADD PUSH1 0x0 PUSH2 0x100 EXP DUP2 SLOAD DUP2 PUSH1 0xFF MUL NOT AND SWAP1 DUP4 ISZERO ISZERO MUL OR SWAP1 SSTORE POP POP POP PUSH1 0x1 PUSH1 0xD DUP1 SLOAD SWAP1 POP PUSH2 0x25B2 SWAP2 SWAP1 PUSH2 0x4089 JUMP JUMPDEST PUSH1 0x40 MLOAD PUSH1 0x1 PUSH1 0x1 PUSH1 0xA0 SHL SUB DUP11 AND SWAP1 PUSH32 0xBE4222BC407CB12031595FC55B46531E46308D31E4572C9C4360D8AE790E1A31 SWAP1 PUSH1 0x0 SWAP1 LOG3 POP POP POP POP POP POP POP POP POP JUMP JUMPDEST CALLER PUSH2 0x2604 PUSH1 0x0 SLOAD PUSH1 0x1 PUSH1 0x1 PUSH1 0xA0 SHL SUB AND SWAP1 JUMP JUMPDEST PUSH1 0x1 PUSH1 0x1 PUSH1 0xA0 SHL SUB AND EQ DUP1 PUSH2 0x2623 JUMPI POP PUSH1 0x4 SLOAD PUSH1 0x1 PUSH1 0x1 PUSH1 0xA0 SHL SUB AND CALLER EQ JUMPDEST PUSH2 0x263F JUMPI PUSH1 0x40 MLOAD PUSH3 0x461BCD PUSH1 0xE5 SHL DUP2 MSTORE PUSH1 0x4 ADD PUSH2 0x838 SWAP1 PUSH2 0x3D90 JUMP JUMPDEST PUSH1 0x0 PUSH1 0x3 DUP3 PUSH1 0x40 MLOAD PUSH2 0x2651 SWAP2 SWAP1 PUSH2 0x3CE0 JUMP JUMPDEST SWAP1 DUP2 MSTORE PUSH1 0x40 MLOAD SWAP1 DUP2 SWAP1 SUB PUSH1 0x20 ADD SWAP1 KECCAK256 SSTORE POP JUMP JUMPDEST PUSH1 0x0 DUP1 PUSH1 0xD DUP4 DUP2 SLOAD DUP2 LT PUSH2 0x267A JUMPI PUSH2 0x267A PUSH2 0x4113 JUMP JUMPDEST PUSH1 0x0 SWAP2 DUP3 MSTORE PUSH1 0x20 SWAP1 SWAP2 KECCAK256 PUSH1 0xA SWAP1 SWAP2 MUL ADD PUSH1 0x5 DUP2 ADD SLOAD DUP2 SLOAD SWAP2 SWAP3 POP PUSH2 0xFFFF AND SWAP1 PUSH1 0x1 PUSH1 0x1 PUSH1 0xA0 SHL SUB AND ISZERO PUSH2 0x1D99 JUMPI DUP2 SLOAD PUSH1 0x7 DUP4 ADD SLOAD PUSH1 0x40 MLOAD PUSH4 0x9FBE42E3 PUSH1 0xE0 SHL DUP2 MSTORE PUSH1 0x4 DUP2 ADD SWAP2 SWAP1 SWAP2 MSTORE PUSH2 0x1E80 SWAP2 PUSH1 0x1 PUSH1 0x1 PUSH1 0xA0 SHL SUB AND SWAP1 PUSH4 0x9FBE42E3 SWAP1 PUSH1 0x24 ADD PUSH1 0x20 PUSH1 0x40 MLOAD DUP1 DUP4 SUB DUP2 DUP7 DUP1 EXTCODESIZE ISZERO DUP1 ISZERO PUSH2 0x26F2 JUMPI PUSH1 0x0 DUP1 REVERT JUMPDEST POP GAS STATICCALL ISZERO DUP1 ISZERO PUSH2 0x2706 JUMPI RETURNDATASIZE PUSH1 0x0 DUP1 RETURNDATACOPY RETURNDATASIZE PUSH1 0x0 REVERT JUMPDEST POP POP POP POP PUSH1 0x40 MLOAD RETURNDATASIZE PUSH1 0x1F NOT PUSH1 0x1F DUP3 ADD AND DUP3 ADD DUP1 PUSH1 0x40 MSTORE POP DUP2 ADD SWAP1 PUSH2 0x272A SWAP2 SWAP1 PUSH2 0x3B3B JUMP JUMPDEST DUP3 SWAP1 PUSH2 0x30F0 JUMP JUMPDEST PUSH1 0x2 PUSH1 0x1 SLOAD EQ ISZERO PUSH2 0x2754 JUMPI PUSH1 0x40 MLOAD PUSH3 0x461BCD PUSH1 0xE5 SHL DUP2 MSTORE PUSH1 0x4 ADD PUSH2 0x838 SWAP1 PUSH2 0x3DE5 JUMP JUMPDEST PUSH1 0x2 PUSH1 0x1 SSTORE CALLER PUSH1 0x0 SWAP1 DUP2 MSTORE PUSH1 0x17 PUSH1 0x20 MSTORE PUSH1 0x40 SWAP1 KECCAK256 SLOAD PUSH1 0xFF AND PUSH2 0x27EA JUMPI PUSH1 0x40 MLOAD PUSH3 0x461BCD PUSH1 0xE5 SHL DUP2 MSTORE PUSH1 0x20 PUSH1 0x4 DUP3 ADD MSTORE PUSH1 0x43 PUSH1 0x24 DUP3 ADD MSTORE PUSH32 0x41424F41543A3A6465706F736974466F72557365723A20596F7520617265206E PUSH1 0x44 DUP3 ADD MSTORE PUSH32 0x6F7420616C6C6F77656420746F20657865637574652074686973206465706F73 PUSH1 0x64 DUP3 ADD MSTORE PUSH3 0x34BA17 PUSH1 0xE9 SHL PUSH1 0x84 DUP3 ADD MSTORE PUSH1 0xA4 ADD PUSH2 0x838 JUMP JUMPDEST PUSH2 0x27F5 DUP4 DUP4 DUP4 PUSH2 0x32E8 JUMP JUMPDEST POP POP PUSH1 0x1 DUP1 SSTORE POP JUMP JUMPDEST CALLER PUSH2 0x2811 PUSH1 0x0 SLOAD PUSH1 0x1 PUSH1 0x1 PUSH1 0xA0 SHL SUB AND SWAP1 JUMP JUMPDEST PUSH1 0x1 PUSH1 0x1 PUSH1 0xA0 SHL SUB AND EQ DUP1 PUSH2 0x2830 JUMPI POP PUSH1 0x4 SLOAD PUSH1 0x1 PUSH1 0x1 PUSH1 0xA0 SHL SUB AND CALLER EQ JUMPDEST PUSH2 0x284C JUMPI PUSH1 0x40 MLOAD PUSH3 0x461BCD PUSH1 0xE5 SHL DUP2 MSTORE PUSH1 0x4 ADD PUSH2 0x838 SWAP1 PUSH2 0x3D90 JUMP JUMPDEST PUSH2 0x2859 PUSH3 0x15180 TIMESTAMP PUSH2 0x3E5E JUMP JUMPDEST PUSH1 0x3 DUP3 PUSH1 0x40 MLOAD PUSH2 0x2869 SWAP2 SWAP1 PUSH2 0x3CE0 JUMP JUMPDEST SWAP1 DUP2 MSTORE PUSH1 0x20 ADD PUSH1 0x40 MLOAD DUP1 SWAP2 SUB SWAP1 KECCAK256 DUP2 SWAP1 SSTORE POP PUSH1 0x3 DUP2 PUSH1 0x40 MLOAD PUSH2 0x288B SWAP2 SWAP1 PUSH2 0x3CE0 JUMP JUMPDEST SWAP1 DUP2 MSTORE PUSH1 0x20 ADD PUSH1 0x40 MLOAD DUP1 SWAP2 SUB SWAP1 KECCAK256 SLOAD DUP2 PUSH1 0x40 MLOAD PUSH2 0x28A8 SWAP2 SWAP1 PUSH2 0x3CE0 JUMP JUMPDEST PUSH1 0x40 MLOAD SWAP1 DUP2 SWAP1 SUB DUP2 KECCAK256 SWAP1 PUSH32 0xF77F9A799FE8B0BE1463ABD7459A18FC55DFD8A6A24DDD29B54FD098088089C8 SWAP1 PUSH1 0x0 SWAP1 LOG3 POP JUMP JUMPDEST PUSH1 0x0 DUP1 DUP1 DUP1 JUMPDEST PUSH1 0x8 SLOAD DUP2 GT PUSH2 0x295B JUMPI PUSH1 0x0 PUSH1 0x7 DUP3 DUP2 SLOAD DUP2 LT PUSH2 0x28FF JUMPI PUSH2 0x28FF PUSH2 0x4113 JUMP JUMPDEST SWAP1 PUSH1 0x0 MSTORE PUSH1 0x20 PUSH1 0x0 KECCAK256 ADD SLOAD GT ISZERO PUSH2 0x2949 JUMPI PUSH1 0x7 DUP2 DUP2 SLOAD DUP2 LT PUSH2 0x2923 JUMPI PUSH2 0x2923 PUSH2 0x4113 JUMP JUMPDEST SWAP1 PUSH1 0x0 MSTORE PUSH1 0x20 PUSH1 0x0 KECCAK256 ADD SLOAD DUP4 PUSH2 0x2939 SWAP2 SWAP1 PUSH2 0x3E5E JUMP JUMPDEST SWAP3 POP DUP2 PUSH2 0x2945 DUP2 PUSH2 0x40CC JUMP JUMPDEST SWAP3 POP POP JUMPDEST DUP1 PUSH2 0x2953 DUP2 PUSH2 0x40CC JUMP JUMPDEST SWAP2 POP POP PUSH2 0x28E1 JUMP JUMPDEST POP PUSH1 0x0 DUP3 GT DUP1 ISZERO PUSH2 0x296C JUMPI POP PUSH1 0x0 DUP2 GT JUMPDEST ISZERO PUSH2 0x2982 JUMPI PUSH2 0x297B DUP3 DUP3 PUSH2 0x3114 JUMP JUMPDEST SWAP3 POP POP POP SWAP1 JUMP JUMPDEST POP SWAP2 SWAP1 POP JUMP JUMPDEST PUSH1 0x2 PUSH1 0x1 SLOAD EQ ISZERO PUSH2 0x29AB JUMPI PUSH1 0x40 MLOAD PUSH3 0x461BCD PUSH1 0xE5 SHL DUP2 MSTORE PUSH1 0x4 ADD PUSH2 0x838 SWAP1 PUSH2 0x3DE5 JUMP JUMPDEST PUSH1 0x2 PUSH1 0x1 DUP2 SWAP1 SSTORE POP PUSH1 0x0 PUSH1 0xD DUP3 DUP2 SLOAD DUP2 LT PUSH2 0x29C8 JUMPI PUSH2 0x29C8 PUSH2 0x4113 JUMP JUMPDEST PUSH1 0x0 SWAP2 DUP3 MSTORE PUSH1 0x20 DUP1 DUP4 KECCAK256 DUP6 DUP5 MSTORE PUSH1 0xC DUP3 MSTORE PUSH1 0x40 DUP1 DUP6 KECCAK256 CALLER DUP7 MSTORE SWAP1 SWAP3 MSTORE SWAP3 KECCAK256 PUSH1 0xE SLOAD PUSH1 0xA SWAP1 SWAP3 MUL SWAP1 SWAP3 ADD SWAP3 POP PUSH1 0xFF AND ISZERO DUP1 PUSH2 0x2A22 JUMPI POP TIMESTAMP PUSH2 0x2A1F DUP4 PUSH1 0x8 ADD SLOAD PUSH3 0x15180 PUSH2 0x2A14 SWAP2 SWAP1 PUSH2 0x402B JUMP JUMPDEST PUSH1 0x2 DUP5 ADD SLOAD SWAP1 PUSH2 0x30F0 JUMP JUMPDEST GT ISZERO JUMPDEST PUSH2 0x2AA7 JUMPI PUSH1 0x40 MLOAD PUSH3 0x461BCD PUSH1 0xE5 SHL DUP2 MSTORE PUSH1 0x20 PUSH1 0x4 DUP3 ADD MSTORE PUSH1 0x4A PUSH1 0x24 DUP3 ADD MSTORE PUSH32 0x41424F41543A3A7769746864726177576974686F7574526577617264733A2043 PUSH1 0x44 DUP3 ADD MSTORE PUSH32 0x616E2774207769746864726177206265666F7265206C6F636B696E6720706572 PUSH1 0x64 DUP3 ADD MSTORE PUSH10 0x34B7B21032B73232B217 PUSH1 0xB1 SHL PUSH1 0x84 DUP3 ADD MSTORE PUSH1 0xA4 ADD PUSH2 0x838 JUMP JUMPDEST DUP1 SLOAD PUSH1 0x6 DUP4 ADD SLOAD PUSH2 0x2AB8 SWAP1 DUP3 PUSH2 0x30FC JUMP JUMPDEST PUSH1 0x6 DUP5 ADD SSTORE PUSH1 0x0 DUP1 DUP4 SSTORE PUSH1 0x1 DUP4 ADD SSTORE DUP3 SLOAD PUSH1 0x1 PUSH1 0x1 PUSH1 0xA0 SHL SUB AND ISZERO PUSH2 0x2B4C JUMPI DUP3 SLOAD PUSH1 0x7 DUP5 ADD SLOAD PUSH1 0x40 MLOAD PUSH4 0x3DCACA93 PUSH1 0xE2 SHL DUP2 MSTORE PUSH1 0x4 DUP2 ADD SWAP2 SWAP1 SWAP2 MSTORE PUSH1 0x24 DUP2 ADD DUP4 SWAP1 MSTORE CALLER PUSH1 0x44 DUP3 ADD MSTORE PUSH1 0x1 PUSH1 0x1 PUSH1 0xA0 SHL SUB SWAP1 SWAP2 AND SWAP1 PUSH4 0xF72B2A4C SWAP1 PUSH1 0x64 ADD PUSH1 0x0 PUSH1 0x40 MLOAD DUP1 DUP4 SUB DUP2 PUSH1 0x0 DUP8 DUP1 EXTCODESIZE ISZERO DUP1 ISZERO PUSH2 0x2B2F JUMPI PUSH1 0x0 DUP1 REVERT JUMPDEST POP GAS CALL ISZERO DUP1 ISZERO PUSH2 0x2B43 JUMPI RETURNDATASIZE PUSH1 0x0 DUP1 RETURNDATACOPY RETURNDATASIZE PUSH1 0x0 REVERT JUMPDEST POP POP POP POP PUSH2 0x2B65 JUMP JUMPDEST PUSH1 0x1 DUP4 ADD SLOAD PUSH2 0x2B65 SWAP1 PUSH1 0x1 PUSH1 0x1 PUSH1 0xA0 SHL SUB AND CALLER DUP4 PUSH2 0x3120 JUMP JUMPDEST PUSH1 0x5 SLOAD PUSH1 0x1 DUP5 ADD SLOAD PUSH1 0x1 PUSH1 0x1 PUSH1 0xA0 SHL SUB SWAP1 DUP2 AND SWAP2 AND EQ ISZERO PUSH2 0x2B91 JUMPI PUSH1 0x13 SLOAD PUSH2 0x2B8D SWAP1 DUP3 PUSH2 0x30FC JUMP JUMPDEST PUSH1 0x13 SSTORE JUMPDEST PUSH1 0x40 MLOAD DUP2 DUP2 MSTORE DUP5 SWAP1 CALLER SWAP1 PUSH32 0xBB757047C2B5F3974FE26B7C10F732E7BCE710B0952A71082702781E62AE0595 SWAP1 PUSH1 0x20 ADD PUSH1 0x40 MLOAD DUP1 SWAP2 SUB SWAP1 LOG3 POP POP PUSH1 0x1 DUP1 SSTORE POP POP JUMP JUMPDEST PUSH1 0x10 SLOAD PUSH1 0x0 SWAP1 DUP3 ISZERO PUSH2 0x2BF9 JUMPI PUSH2 0x2BF2 PUSH2 0x272A PUSH3 0xF4240 PUSH2 0xF92 DUP5 DUP9 PUSH2 0x3108 JUMP JUMPDEST SWAP1 POP PUSH2 0x1D99 JUMP JUMPDEST PUSH2 0x1E80 PUSH2 0x2C0D PUSH3 0xF4240 PUSH2 0xF92 DUP5 DUP9 PUSH2 0x3108 JUMP JUMPDEST DUP3 SWAP1 PUSH2 0x30FC JUMP JUMPDEST PUSH1 0x0 SLOAD PUSH1 0x1 PUSH1 0x1 PUSH1 0xA0 SHL SUB AND CALLER EQ PUSH2 0x2C3E JUMPI PUSH1 0x40 MLOAD PUSH3 0x461BCD PUSH1 0xE5 SHL DUP2 MSTORE PUSH1 0x4 ADD PUSH2 0x838 SWAP1 PUSH2 0x3D2F JUMP JUMPDEST PUSH1 0x40 DUP1 MLOAD DUP1 DUP3 ADD SWAP1 SWAP2 MSTORE PUSH1 0xD DUP2 MSTORE PUSH13 0x73657444657641646472657373 PUSH1 0x98 SHL PUSH1 0x20 DUP3 ADD MSTORE PUSH1 0x2 SLOAD PUSH1 0xFF AND ISZERO DUP1 PUSH2 0x2CF4 JUMPI POP PUSH1 0x3 DUP2 PUSH1 0x40 MLOAD PUSH2 0x2C7F SWAP2 SWAP1 PUSH2 0x3CE0 JUMP JUMPDEST SWAP1 DUP2 MSTORE PUSH1 0x20 ADD PUSH1 0x40 MLOAD DUP1 SWAP2 SUB SWAP1 KECCAK256 SLOAD PUSH1 0x0 EQ ISZERO DUP1 ISZERO PUSH2 0x2CBC JUMPI POP TIMESTAMP PUSH1 0x3 DUP3 PUSH1 0x40 MLOAD PUSH2 0x2CAA SWAP2 SWAP1 PUSH2 0x3CE0 JUMP JUMPDEST SWAP1 DUP2 MSTORE PUSH1 0x20 ADD PUSH1 0x40 MLOAD DUP1 SWAP2 SUB SWAP1 KECCAK256 SLOAD GT ISZERO JUMPDEST DUP1 ISZERO PUSH2 0x2CF4 JUMPI POP TIMESTAMP PUSH3 0x15180 PUSH1 0x3 DUP4 PUSH1 0x40 MLOAD PUSH2 0x2CD8 SWAP2 SWAP1 PUSH2 0x3CE0 JUMP JUMPDEST SWAP1 DUP2 MSTORE PUSH1 0x20 ADD PUSH1 0x40 MLOAD DUP1 SWAP2 SUB SWAP1 KECCAK256 SLOAD PUSH2 0x2CF1 SWAP2 SWAP1 PUSH2 0x3E5E JUMP JUMPDEST LT ISZERO JUMPDEST PUSH2 0x2D10 JUMPI PUSH1 0x40 MLOAD PUSH3 0x461BCD PUSH1 0xE5 SHL DUP2 MSTORE PUSH1 0x4 ADD PUSH2 0x838 SWAP1 PUSH2 0x3D64 JUMP JUMPDEST PUSH1 0x1 PUSH1 0x1 PUSH1 0xA0 SHL SUB DUP3 AND PUSH2 0x2D75 JUMPI PUSH1 0x40 MLOAD PUSH3 0x461BCD PUSH1 0xE5 SHL DUP2 MSTORE PUSH1 0x20 PUSH1 0x4 DUP3 ADD MSTORE PUSH1 0x26 PUSH1 0x24 DUP3 ADD MSTORE PUSH32 0x44657620616464726573732073686F756C64206E6F74206265207A65726F2061 PUSH1 0x44 DUP3 ADD MSTORE PUSH6 0x646472657373 PUSH1 0xD0 SHL PUSH1 0x64 DUP3 ADD MSTORE PUSH1 0x84 ADD PUSH2 0x838 JUMP JUMPDEST PUSH1 0xE DUP1 SLOAD PUSH2 0x100 PUSH1 0x1 PUSH1 0xA8 SHL SUB NOT AND PUSH2 0x100 PUSH1 0x1 PUSH1 0x1 PUSH1 0xA0 SHL SUB DUP6 AND SWAP1 DUP2 MUL SWAP2 SWAP1 SWAP2 OR SWAP1 SWAP2 SSTORE PUSH1 0x40 MLOAD CALLER SWAP1 PUSH32 0x618C54559E94F1499A808AAD71EE8729F8E74E8C48E979616328CE493A1A52E7 SWAP1 PUSH1 0x0 SWAP1 LOG3 PUSH2 0x963 DUP2 PUSH2 0x25F1 JUMP JUMPDEST PUSH1 0x2 PUSH1 0x1 SLOAD EQ ISZERO PUSH2 0x2DF2 JUMPI PUSH1 0x40 MLOAD PUSH3 0x461BCD PUSH1 0xE5 SHL DUP2 MSTORE PUSH1 0x4 ADD PUSH2 0x838 SWAP1 PUSH2 0x3DE5 JUMP JUMPDEST PUSH1 0x2 PUSH1 0x1 SSTORE PUSH2 0x2E02 DUP3 DUP3 CALLER PUSH2 0x32E8 JUMP JUMPDEST POP POP PUSH1 0x1 DUP1 SSTORE JUMP JUMPDEST PUSH1 0x0 DUP1 DUP3 PUSH2 0x2E18 DUP2 DUP7 PUSH2 0x404A JUMP JUMPDEST PUSH2 0x2E23 SWAP1 PUSH1 0x64 PUSH2 0x3FA6 JUMP JUMPDEST PUSH2 0x2E2F SWAP1 PUSH2 0x2710 PUSH2 0x3FA6 JUMP JUMPDEST PUSH2 0x2E39 SWAP2 SWAP1 PUSH2 0x3E76 JUMP JUMPDEST SWAP1 POP PUSH1 0x0 DUP2 SLT ISZERO PUSH2 0x1D99 JUMPI PUSH2 0x1E80 PUSH1 0x0 NOT DUP3 PUSH2 0x3FA6 JUMP JUMPDEST PUSH1 0x0 DUP1 PUSH1 0xD DUP5 DUP2 SLOAD DUP2 LT PUSH2 0x2E66 JUMPI PUSH2 0x2E66 PUSH2 0x4113 JUMP JUMPDEST PUSH1 0x0 SWAP2 DUP3 MSTORE PUSH1 0x20 DUP1 DUP4 KECCAK256 DUP8 DUP5 MSTORE PUSH1 0xC DUP3 MSTORE PUSH1 0x40 DUP1 DUP6 KECCAK256 PUSH1 0x1 PUSH1 0x1 PUSH1 0xA0 SHL SUB DUP10 AND DUP7 MSTORE SWAP1 SWAP3 MSTORE SWAP1 DUP4 KECCAK256 PUSH1 0xA SWAP3 SWAP1 SWAP3 MUL ADD PUSH1 0x4 DUP2 ADD SLOAD SWAP1 SWAP4 POP SWAP1 SWAP2 PUSH2 0x2EA8 DUP8 PUSH2 0x1DA0 JUMP JUMPDEST SWAP1 POP DUP4 PUSH1 0x3 ADD SLOAD NUMBER GT DUP1 ISZERO PUSH2 0x2EBC JUMPI POP DUP1 ISZERO ISZERO JUMPDEST ISZERO PUSH2 0x2F25 JUMPI PUSH1 0x0 PUSH2 0x2EDA DUP6 PUSH1 0x3 ADD SLOAD NUMBER PUSH2 0x30FC SWAP1 SWAP2 SWAP1 PUSH4 0xFFFFFFFF AND JUMP JUMPDEST SWAP1 POP PUSH1 0x0 PUSH2 0x2F01 PUSH1 0x12 SLOAD PUSH2 0xF92 DUP9 PUSH1 0x2 ADD SLOAD PUSH2 0x1A95 PUSH1 0x10 SLOAD DUP8 PUSH2 0x3108 SWAP1 SWAP2 SWAP1 PUSH4 0xFFFFFFFF AND JUMP JUMPDEST SWAP1 POP PUSH2 0x2F20 PUSH2 0x2F19 DUP5 PUSH2 0xF92 DUP5 PUSH5 0xE8D4A51000 PUSH2 0x3108 JUMP JUMPDEST DUP6 SWAP1 PUSH2 0x30F0 JUMP JUMPDEST SWAP4 POP POP POP JUMPDEST PUSH2 0x2F4D DUP4 PUSH1 0x1 ADD SLOAD PUSH2 0xE93 PUSH5 0xE8D4A51000 PUSH2 0xF92 DUP7 DUP9 PUSH1 0x0 ADD SLOAD PUSH2 0x3108 SWAP1 SWAP2 SWAP1 PUSH4 0xFFFFFFFF AND JUMP JUMPDEST SWAP8 SWAP7 POP POP POP POP POP POP POP JUMP JUMPDEST PUSH1 0x0 SLOAD PUSH1 0x1 PUSH1 0x1 PUSH1 0xA0 SHL SUB AND CALLER EQ PUSH2 0x2F82 JUMPI PUSH1 0x40 MLOAD PUSH3 0x461BCD PUSH1 0xE5 SHL DUP2 MSTORE PUSH1 0x4 ADD PUSH2 0x838 SWAP1 PUSH2 0x3D2F JUMP JUMPDEST PUSH1 0x16 DUP1 SLOAD PUSH2 0xFFFF NOT AND PUSH2 0xFFFF DUP4 AND SWAP1 DUP2 OR SWAP1 SWAP2 SSTORE PUSH1 0x40 MLOAD SWAP1 DUP2 MSTORE CALLER SWAP1 PUSH32 0xBAD81196170FB9427A5CE7ABE0FDF496BB5F5F8BDBACBD118FE8FD7760248B26 SWAP1 PUSH1 0x20 ADD JUMPDEST PUSH1 0x40 MLOAD DUP1 SWAP2 SUB SWAP1 LOG2 POP JUMP JUMPDEST PUSH1 0x0 SLOAD PUSH1 0x1 PUSH1 0x1 PUSH1 0xA0 SHL SUB AND CALLER EQ PUSH2 0x2FF9 JUMPI PUSH1 0x40 MLOAD PUSH3 0x461BCD PUSH1 0xE5 SHL DUP2 MSTORE PUSH1 0x4 ADD PUSH2 0x838 SWAP1 PUSH2 0x3D2F JUMP JUMPDEST PUSH1 0x1 PUSH1 0x1 PUSH1 0xA0 SHL SUB DUP2 AND PUSH2 0x305E JUMPI PUSH1 0x40 MLOAD PUSH3 0x461BCD PUSH1 0xE5 SHL DUP2 MSTORE PUSH1 0x20 PUSH1 0x4 DUP3 ADD MSTORE PUSH1 0x26 PUSH1 0x24 DUP3 ADD MSTORE PUSH32 0x4F776E61626C653A206E6577206F776E657220697320746865207A65726F2061 PUSH1 0x44 DUP3 ADD MSTORE PUSH6 0x646472657373 PUSH1 0xD0 SHL PUSH1 0x64 DUP3 ADD MSTORE PUSH1 0x84 ADD PUSH2 0x838 JUMP JUMPDEST PUSH2 0x3067 DUP2 PUSH2 0x3298 JUMP JUMPDEST POP JUMP JUMPDEST CALLER PUSH2 0x307D PUSH1 0x0 SLOAD PUSH1 0x1 PUSH1 0x1 PUSH1 0xA0 SHL SUB AND SWAP1 JUMP JUMPDEST PUSH1 0x1 PUSH1 0x1 PUSH1 0xA0 SHL SUB AND EQ DUP1 PUSH2 0x309C JUMPI POP PUSH1 0x4 SLOAD PUSH1 0x1 PUSH1 0x1 PUSH1 0xA0 SHL SUB AND CALLER EQ JUMPDEST PUSH2 0x30B8 JUMPI PUSH1 0x40 MLOAD PUSH3 0x461BCD PUSH1 0xE5 SHL DUP2 MSTORE PUSH1 0x4 ADD PUSH2 0x838 SWAP1 PUSH2 0x3D90 JUMP JUMPDEST PUSH1 0x2 DUP1 SLOAD PUSH1 0xFF NOT AND PUSH1 0x1 OR SWAP1 SSTORE PUSH1 0x40 MLOAD PUSH32 0x2C08B62BFAC9A1B19BB1DEC9323F1CE01696A77948B256ABF3603D30F25A864E SWAP1 PUSH1 0x0 SWAP1 LOG1 JUMP JUMPDEST PUSH1 0x0 PUSH2 0x1D99 DUP3 DUP5 PUSH2 0x3E5E JUMP JUMPDEST PUSH1 0x0 PUSH2 0x1D99 DUP3 DUP5 PUSH2 0x4089 JUMP JUMPDEST PUSH1 0x0 PUSH2 0x1D99 DUP3 DUP5 PUSH2 0x402B JUMP JUMPDEST PUSH1 0x0 PUSH2 0x1D99 DUP3 DUP5 PUSH2 0x3EA4 JUMP JUMPDEST PUSH1 0x40 MLOAD PUSH1 0x1 PUSH1 0x1 PUSH1 0xA0 SHL SUB DUP4 AND PUSH1 0x24 DUP3 ADD MSTORE PUSH1 0x44 DUP2 ADD DUP3 SWAP1 MSTORE PUSH2 0x3183 SWAP1 DUP5 SWAP1 PUSH4 0xA9059CBB PUSH1 0xE0 SHL SWAP1 PUSH1 0x64 ADD JUMPDEST PUSH1 0x40 DUP1 MLOAD PUSH1 0x1F NOT DUP2 DUP5 SUB ADD DUP2 MSTORE SWAP2 SWAP1 MSTORE PUSH1 0x20 DUP2 ADD DUP1 MLOAD PUSH1 0x1 PUSH1 0x1 PUSH1 0xE0 SHL SUB AND PUSH1 0x1 PUSH1 0x1 PUSH1 0xE0 SHL SUB NOT SWAP1 SWAP4 AND SWAP3 SWAP1 SWAP3 OR SWAP1 SWAP2 MSTORE PUSH2 0x35FD JUMP JUMPDEST POP POP POP JUMP JUMPDEST PUSH1 0x60 PUSH2 0x1E80 DUP5 DUP5 PUSH1 0x0 DUP6 PUSH2 0x36CF JUMP JUMPDEST PUSH1 0x5 SLOAD PUSH1 0x13 SLOAD PUSH1 0x40 MLOAD PUSH4 0x70A08231 PUSH1 0xE0 SHL DUP2 MSTORE ADDRESS PUSH1 0x4 DUP3 ADD MSTORE PUSH1 0x1 PUSH1 0x1 PUSH1 0xA0 SHL SUB SWAP1 SWAP3 AND SWAP2 PUSH1 0x0 SWAP2 PUSH2 0x31D3 SWAP2 DUP5 SWAP1 PUSH4 0x70A08231 SWAP1 PUSH1 0x24 ADD PUSH2 0xE43 JUMP JUMPDEST SWAP1 POP DUP1 DUP4 GT ISZERO PUSH2 0x31F6 JUMPI PUSH2 0x31F1 PUSH1 0x1 PUSH1 0x1 PUSH1 0xA0 SHL SUB DUP4 AND DUP6 DUP4 PUSH2 0x3120 JUMP JUMPDEST PUSH2 0x320A JUMP JUMPDEST PUSH2 0x320A PUSH1 0x1 PUSH1 0x1 PUSH1 0xA0 SHL SUB DUP4 AND DUP6 DUP6 PUSH2 0x3120 JUMP JUMPDEST POP POP POP POP JUMP JUMPDEST PUSH1 0xA DUP1 SLOAD PUSH1 0xB DUP2 SWAP1 SSTORE SWAP1 DUP3 SWAP1 SSTORE PUSH1 0x40 MLOAD DUP3 SWAP2 SWAP1 PUSH32 0x4DB09FF035E174C21F4ED503B26C1FE141926CAA59E40FE975BDA1583C3EBFBA SWAP1 PUSH1 0x0 SWAP1 LOG3 POP JUMP JUMPDEST PUSH1 0x0 PUSH2 0x325C PUSH1 0xA SLOAD PUSH1 0xB SLOAD PUSH2 0x2E0A JUMP JUMPDEST PUSH1 0x16 SLOAD SWAP1 SWAP2 POP PUSH2 0xFFFF AND DUP2 GT ISZERO PUSH2 0x3276 JUMPI POP PUSH1 0x16 SLOAD PUSH2 0xFFFF AND JUMPDEST PUSH1 0x0 PUSH2 0x3288 DUP3 PUSH1 0xB SLOAD PUSH1 0xA SLOAD GT PUSH2 0x2BD2 JUMP JUMPDEST PUSH1 0x15 DUP4 SWAP1 SSTORE SWAP1 POP PUSH2 0x963 DUP2 PUSH2 0x37EC JUMP JUMPDEST PUSH1 0x0 DUP1 SLOAD PUSH1 0x1 PUSH1 0x1 PUSH1 0xA0 SHL SUB DUP4 DUP2 AND PUSH1 0x1 PUSH1 0x1 PUSH1 0xA0 SHL SUB NOT DUP4 AND DUP2 OR DUP5 SSTORE PUSH1 0x40 MLOAD SWAP2 SWAP1 SWAP3 AND SWAP3 DUP4 SWAP2 PUSH32 0x8BE0079C531659141344CD1FD0A4F28419497F9722A3DAAFE3B4186F6B6457E0 SWAP2 SWAP1 LOG3 POP POP JUMP JUMPDEST PUSH1 0x0 PUSH1 0xD DUP5 DUP2 SLOAD DUP2 LT PUSH2 0x32FD JUMPI PUSH2 0x32FD PUSH2 0x4113 JUMP JUMPDEST PUSH1 0x0 SWAP2 DUP3 MSTORE PUSH1 0x20 DUP1 DUP4 KECCAK256 DUP8 DUP5 MSTORE PUSH1 0xC DUP3 MSTORE PUSH1 0x40 DUP1 DUP6 KECCAK256 PUSH1 0x1 PUSH1 0x1 PUSH1 0xA0 SHL SUB DUP9 AND DUP7 MSTORE SWAP1 SWAP3 MSTORE SWAP3 KECCAK256 PUSH1 0xA SWAP1 SWAP2 MUL SWAP1 SWAP2 ADD SWAP2 POP PUSH2 0x3337 DUP6 PUSH2 0x1A04 JUMP JUMPDEST DUP1 SLOAD ISZERO DUP1 ISZERO SWAP1 PUSH2 0x334F JUMPI POP PUSH1 0x1 PUSH1 0x1 PUSH1 0xA0 SHL SUB DUP4 AND CALLER EQ JUMPDEST ISZERO PUSH2 0x3396 JUMPI PUSH1 0x0 PUSH2 0x3382 DUP3 PUSH1 0x1 ADD SLOAD PUSH2 0xE93 PUSH5 0xE8D4A51000 PUSH2 0xF92 DUP8 PUSH1 0x4 ADD SLOAD DUP8 PUSH1 0x0 ADD SLOAD PUSH2 0x3108 SWAP1 SWAP2 SWAP1 PUSH4 0xFFFFFFFF AND JUMP JUMPDEST SWAP1 POP DUP1 ISZERO PUSH2 0x3394 JUMPI PUSH2 0x3394 DUP5 DUP3 PUSH2 0x3197 JUMP JUMPDEST POP JUMPDEST DUP4 DUP1 ISZERO PUSH2 0x355A JUMPI TIMESTAMP PUSH1 0x2 DUP4 ADD SSTORE PUSH1 0x1 DUP4 ADD SLOAD PUSH2 0x33BD SWAP1 PUSH1 0x1 PUSH1 0x1 PUSH1 0xA0 SHL SUB AND CALLER ADDRESS DUP9 PUSH2 0x382B JUMP JUMPDEST PUSH1 0x5 DUP4 ADD SLOAD PUSH2 0xFFFF AND ISZERO PUSH2 0x342D JUMPI PUSH1 0x5 DUP4 ADD SLOAD PUSH1 0x0 SWAP1 PUSH2 0x33EA SWAP1 PUSH2 0x2710 SWAP1 PUSH2 0xF92 SWAP1 DUP10 SWAP1 PUSH2 0xFFFF AND PUSH2 0x3108 JUMP JUMPDEST PUSH1 0xF SLOAD PUSH1 0x1 DUP7 ADD SLOAD SWAP2 SWAP3 POP PUSH2 0x340C SWAP2 PUSH1 0x1 PUSH1 0x1 PUSH1 0xA0 SHL SUB SWAP1 DUP2 AND SWAP2 AND DUP4 PUSH2 0x3120 JUMP JUMPDEST PUSH2 0x3416 DUP7 DUP3 PUSH2 0x30FC JUMP JUMPDEST DUP4 SLOAD SWAP1 SWAP3 POP PUSH2 0x3425 SWAP1 DUP4 PUSH2 0x30F0 JUMP JUMPDEST DUP4 SSTORE POP PUSH2 0x343C JUMP JUMPDEST DUP2 SLOAD PUSH2 0x3439 SWAP1 DUP7 PUSH2 0x30F0 JUMP JUMPDEST DUP3 SSTORE JUMPDEST PUSH1 0x6 DUP4 ADD SLOAD PUSH2 0x344B SWAP1 DUP3 PUSH2 0x30F0 JUMP JUMPDEST PUSH1 0x6 DUP5 ADD SSTORE DUP3 SLOAD PUSH1 0x1 PUSH1 0x1 PUSH1 0xA0 SHL SUB AND ISZERO PUSH2 0x355A JUMPI PUSH1 0x1 DUP4 ADD SLOAD DUP4 SLOAD PUSH1 0x40 MLOAD PUSH4 0x95EA7B3 PUSH1 0xE0 SHL DUP2 MSTORE PUSH1 0x1 PUSH1 0x1 PUSH1 0xA0 SHL SUB SWAP2 DUP3 AND PUSH1 0x4 DUP3 ADD MSTORE PUSH1 0x24 DUP2 ADD DUP5 SWAP1 MSTORE SWAP2 AND SWAP1 PUSH4 0x95EA7B3 SWAP1 PUSH1 0x44 ADD PUSH1 0x20 PUSH1 0x40 MLOAD DUP1 DUP4 SUB DUP2 PUSH1 0x0 DUP8 DUP1 EXTCODESIZE ISZERO DUP1 ISZERO PUSH2 0x34B1 JUMPI PUSH1 0x0 DUP1 REVERT JUMPDEST POP GAS CALL ISZERO DUP1 ISZERO PUSH2 0x34C5 JUMPI RETURNDATASIZE PUSH1 0x0 DUP1 RETURNDATACOPY RETURNDATASIZE PUSH1 0x0 REVERT JUMPDEST POP POP POP POP PUSH1 0x40 MLOAD RETURNDATASIZE PUSH1 0x1F NOT PUSH1 0x1F DUP3 ADD AND DUP3 ADD DUP1 PUSH1 0x40 MSTORE POP DUP2 ADD SWAP1 PUSH2 0x34E9 SWAP2 SWAP1 PUSH2 0x398E JUMP JUMPDEST POP DUP3 SLOAD PUSH1 0x7 DUP5 ADD SLOAD PUSH1 0x40 MLOAD PUSH4 0x1C57762B PUSH1 0xE3 SHL DUP2 MSTORE PUSH1 0x1 PUSH1 0x1 PUSH1 0xA0 SHL SUB SWAP1 SWAP3 AND SWAP2 PUSH4 0xE2BBB158 SWAP2 PUSH2 0x3527 SWAP2 DUP6 SWAP1 PUSH1 0x4 ADD SWAP2 DUP3 MSTORE PUSH1 0x20 DUP3 ADD MSTORE PUSH1 0x40 ADD SWAP1 JUMP JUMPDEST PUSH1 0x0 PUSH1 0x40 MLOAD DUP1 DUP4 SUB DUP2 PUSH1 0x0 DUP8 DUP1 EXTCODESIZE ISZERO DUP1 ISZERO PUSH2 0x3541 JUMPI PUSH1 0x0 DUP1 REVERT JUMPDEST POP GAS CALL ISZERO DUP1 ISZERO PUSH2 0x3555 JUMPI RETURNDATASIZE PUSH1 0x0 DUP1 RETURNDATACOPY RETURNDATASIZE PUSH1 0x0 REVERT JUMPDEST POP POP POP POP JUMPDEST PUSH1 0x4 DUP4 ADD SLOAD DUP3 SLOAD PUSH2 0x3575 SWAP2 PUSH5 0xE8D4A51000 SWAP2 PUSH2 0xF92 SWAP2 PUSH2 0x3108 JUMP JUMPDEST PUSH1 0x1 DUP1 DUP5 ADD SWAP2 SWAP1 SWAP2 SSTORE PUSH1 0x5 SLOAD SWAP1 DUP5 ADD SLOAD PUSH1 0x1 PUSH1 0x1 PUSH1 0xA0 SHL SUB SWAP1 DUP2 AND SWAP2 AND EQ ISZERO PUSH2 0x35A9 JUMPI PUSH1 0x13 SLOAD PUSH2 0x35A5 SWAP1 DUP3 PUSH2 0x30F0 JUMP JUMPDEST PUSH1 0x13 SSTORE JUMPDEST DUP6 DUP5 PUSH1 0x1 PUSH1 0x1 PUSH1 0xA0 SHL SUB AND PUSH32 0x90890809C654F11D6E72A28FA60149770A0D11EC6C92319D6CEB2BB0A4EA1A15 DUP8 PUSH1 0x40 MLOAD PUSH2 0x35E5 SWAP2 DUP2 MSTORE PUSH1 0x20 ADD SWAP1 JUMP JUMPDEST PUSH1 0x40 MLOAD DUP1 SWAP2 SUB SWAP1 LOG3 PUSH2 0x35F5 PUSH2 0x1108 JUMP JUMPDEST POP POP POP POP POP POP JUMP JUMPDEST PUSH1 0x0 PUSH2 0x3652 DUP3 PUSH1 0x40 MLOAD DUP1 PUSH1 0x40 ADD PUSH1 0x40 MSTORE DUP1 PUSH1 0x20 DUP2 MSTORE PUSH1 0x20 ADD PUSH32 0x5361666545524332303A206C6F772D6C6576656C2063616C6C206661696C6564 DUP2 MSTORE POP DUP6 PUSH1 0x1 PUSH1 0x1 PUSH1 0xA0 SHL SUB AND PUSH2 0x3188 SWAP1 SWAP3 SWAP2 SWAP1 PUSH4 0xFFFFFFFF AND JUMP JUMPDEST DUP1 MLOAD SWAP1 SWAP2 POP ISZERO PUSH2 0x3183 JUMPI DUP1 DUP1 PUSH1 0x20 ADD SWAP1 MLOAD DUP2 ADD SWAP1 PUSH2 0x3670 SWAP2 SWAP1 PUSH2 0x398E JUMP JUMPDEST PUSH2 0x3183 JUMPI PUSH1 0x40 MLOAD PUSH3 0x461BCD PUSH1 0xE5 SHL DUP2 MSTORE PUSH1 0x20 PUSH1 0x4 DUP3 ADD MSTORE PUSH1 0x2A PUSH1 0x24 DUP3 ADD MSTORE PUSH32 0x5361666545524332303A204552433230206F7065726174696F6E20646964206E PUSH1 0x44 DUP3 ADD MSTORE PUSH10 0x1BDD081CDD58D8D95959 PUSH1 0xB2 SHL PUSH1 0x64 DUP3 ADD MSTORE PUSH1 0x84 ADD PUSH2 0x838 JUMP JUMPDEST PUSH1 0x60 DUP3 SELFBALANCE LT ISZERO PUSH2 0x3730 JUMPI PUSH1 0x40 MLOAD PUSH3 0x461BCD PUSH1 0xE5 SHL DUP2 MSTORE PUSH1 0x20 PUSH1 0x4 DUP3 ADD MSTORE PUSH1 0x26 PUSH1 0x24 DUP3 ADD MSTORE PUSH32 0x416464726573733A20696E73756666696369656E742062616C616E636520666F PUSH1 0x44 DUP3 ADD MSTORE PUSH6 0x1C8818D85B1B PUSH1 0xD2 SHL PUSH1 0x64 DUP3 ADD MSTORE PUSH1 0x84 ADD PUSH2 0x838 JUMP JUMPDEST DUP5 EXTCODESIZE PUSH2 0x377E JUMPI PUSH1 0x40 MLOAD PUSH3 0x461BCD PUSH1 0xE5 SHL DUP2 MSTORE PUSH1 0x20 PUSH1 0x4 DUP3 ADD MSTORE PUSH1 0x1D PUSH1 0x24 DUP3 ADD MSTORE PUSH32 0x416464726573733A2063616C6C20746F206E6F6E2D636F6E7472616374000000 PUSH1 0x44 DUP3 ADD MSTORE PUSH1 0x64 ADD PUSH2 0x838 JUMP JUMPDEST PUSH1 0x0 DUP1 DUP7 PUSH1 0x1 PUSH1 0x1 PUSH1 0xA0 SHL SUB AND DUP6 DUP8 PUSH1 0x40 MLOAD PUSH2 0x379A SWAP2 SWAP1 PUSH2 0x3CE0 JUMP JUMPDEST PUSH1 0x0 PUSH1 0x40 MLOAD DUP1 DUP4 SUB DUP2 DUP6 DUP8 GAS CALL SWAP3 POP POP POP RETURNDATASIZE DUP1 PUSH1 0x0 DUP2 EQ PUSH2 0x37D7 JUMPI PUSH1 0x40 MLOAD SWAP2 POP PUSH1 0x1F NOT PUSH1 0x3F RETURNDATASIZE ADD AND DUP3 ADD PUSH1 0x40 MSTORE RETURNDATASIZE DUP3 MSTORE RETURNDATASIZE PUSH1 0x0 PUSH1 0x20 DUP5 ADD RETURNDATACOPY PUSH2 0x37DC JUMP JUMPDEST PUSH1 0x60 SWAP2 POP JUMPDEST POP SWAP2 POP SWAP2 POP PUSH2 0x2F4D DUP3 DUP3 DUP7 PUSH2 0x3863 JUMP JUMPDEST PUSH2 0x37F4 PUSH2 0x1E88 JUMP JUMPDEST PUSH1 0x10 DUP2 SWAP1 SSTORE PUSH1 0x40 MLOAD DUP2 DUP2 MSTORE ADDRESS SWAP1 PUSH32 0xE2492E003BBE8AFA53088B406F0C1CB5D9E280370FC72A74CF116FFD343C4053 SWAP1 PUSH1 0x20 ADD PUSH2 0x2FC4 JUMP JUMPDEST PUSH1 0x40 MLOAD PUSH1 0x1 PUSH1 0x1 PUSH1 0xA0 SHL SUB DUP1 DUP6 AND PUSH1 0x24 DUP4 ADD MSTORE DUP4 AND PUSH1 0x44 DUP3 ADD MSTORE PUSH1 0x64 DUP2 ADD DUP3 SWAP1 MSTORE PUSH2 0x320A SWAP1 DUP6 SWAP1 PUSH4 0x23B872DD PUSH1 0xE0 SHL SWAP1 PUSH1 0x84 ADD PUSH2 0x314C JUMP JUMPDEST PUSH1 0x60 DUP4 ISZERO PUSH2 0x3872 JUMPI POP DUP2 PUSH2 0x1D99 JUMP JUMPDEST DUP3 MLOAD ISZERO PUSH2 0x3882 JUMPI DUP3 MLOAD DUP1 DUP5 PUSH1 0x20 ADD REVERT JUMPDEST DUP2 PUSH1 0x40 MLOAD PUSH3 0x461BCD PUSH1 0xE5 SHL DUP2 MSTORE PUSH1 0x4 ADD PUSH2 0x838 SWAP2 SWAP1 PUSH2 0x3CFC JUMP JUMPDEST DUP1 MLOAD PUSH1 0x1 PUSH1 0x1 PUSH1 0x70 SHL SUB DUP2 AND DUP2 EQ PUSH2 0x38B3 JUMPI PUSH1 0x0 DUP1 REVERT JUMPDEST SWAP2 SWAP1 POP JUMP JUMPDEST DUP1 CALLDATALOAD PUSH2 0xFFFF DUP2 AND DUP2 EQ PUSH2 0x38B3 JUMPI PUSH1 0x0 DUP1 REVERT JUMPDEST PUSH1 0x0 PUSH1 0x20 DUP3 DUP5 SUB SLT ISZERO PUSH2 0x38DC JUMPI PUSH1 0x0 DUP1 REVERT JUMPDEST DUP2 CALLDATALOAD PUSH2 0x1D99 DUP2 PUSH2 0x413F JUMP JUMPDEST PUSH1 0x0 PUSH1 0x20 DUP3 DUP5 SUB SLT ISZERO PUSH2 0x38F9 JUMPI PUSH1 0x0 DUP1 REVERT JUMPDEST DUP2 MLOAD PUSH2 0x1D99 DUP2 PUSH2 0x413F JUMP JUMPDEST PUSH1 0x0 DUP1 PUSH1 0x0 PUSH1 0x60 DUP5 DUP7 SUB SLT ISZERO PUSH2 0x3919 JUMPI PUSH1 0x0 DUP1 REVERT JUMPDEST DUP4 CALLDATALOAD PUSH2 0x3924 DUP2 PUSH2 0x413F JUMP JUMPDEST SWAP3 POP PUSH1 0x20 DUP5 ADD CALLDATALOAD PUSH2 0x3934 DUP2 PUSH2 0x413F JUMP JUMPDEST SWAP3 SWAP6 SWAP3 SWAP5 POP POP POP PUSH1 0x40 SWAP2 SWAP1 SWAP2 ADD CALLDATALOAD SWAP1 JUMP JUMPDEST PUSH1 0x0 DUP1 PUSH1 0x40 DUP4 DUP6 SUB SLT ISZERO PUSH2 0x3958 JUMPI PUSH1 0x0 DUP1 REVERT JUMPDEST DUP3 CALLDATALOAD PUSH2 0x3963 DUP2 PUSH2 0x413F JUMP JUMPDEST SWAP5 PUSH1 0x20 SWAP4 SWAP1 SWAP4 ADD CALLDATALOAD SWAP4 POP POP POP JUMP JUMPDEST PUSH1 0x0 PUSH1 0x20 DUP3 DUP5 SUB SLT ISZERO PUSH2 0x3983 JUMPI PUSH1 0x0 DUP1 REVERT JUMPDEST DUP2 CALLDATALOAD PUSH2 0x1D99 DUP2 PUSH2 0x4154 JUMP JUMPDEST PUSH1 0x0 PUSH1 0x20 DUP3 DUP5 SUB SLT ISZERO PUSH2 0x39A0 JUMPI PUSH1 0x0 DUP1 REVERT JUMPDEST DUP2 MLOAD PUSH2 0x1D99 DUP2 PUSH2 0x4154 JUMP JUMPDEST PUSH1 0x0 DUP1 PUSH1 0x40 DUP4 DUP6 SUB SLT ISZERO PUSH2 0x39BE JUMPI PUSH1 0x0 DUP1 REVERT JUMPDEST DUP3 CALLDATALOAD PUSH2 0x39C9 DUP2 PUSH2 0x4154 JUMP JUMPDEST SWAP2 POP PUSH1 0x20 DUP4 ADD CALLDATALOAD PUSH2 0x39D9 DUP2 PUSH2 0x413F JUMP JUMPDEST DUP1 SWAP2 POP POP SWAP3 POP SWAP3 SWAP1 POP JUMP JUMPDEST PUSH1 0x0 DUP1 PUSH1 0x40 DUP4 DUP6 SUB SLT ISZERO PUSH2 0x39F7 JUMPI PUSH1 0x0 DUP1 REVERT JUMPDEST POP POP DUP1 CALLDATALOAD SWAP3 PUSH1 0x20 SWAP1 SWAP2 ADD CALLDATALOAD SWAP2 POP JUMP JUMPDEST PUSH1 0x0 PUSH1 0x20 DUP3 DUP5 SUB SLT ISZERO PUSH2 0x3A18 JUMPI PUSH1 0x0 DUP1 REVERT JUMPDEST DUP2 CALLDATALOAD PUSH8 0xFFFFFFFFFFFFFFFF DUP1 DUP3 GT ISZERO PUSH2 0x3A30 JUMPI PUSH1 0x0 DUP1 REVERT JUMPDEST DUP2 DUP5 ADD SWAP2 POP DUP5 PUSH1 0x1F DUP4 ADD SLT PUSH2 0x3A44 JUMPI PUSH1 0x0 DUP1 REVERT JUMPDEST DUP2 CALLDATALOAD DUP2 DUP2 GT ISZERO PUSH2 0x3A56 JUMPI PUSH2 0x3A56 PUSH2 0x4129 JUMP JUMPDEST PUSH1 0x40 MLOAD PUSH1 0x1F DUP3 ADD PUSH1 0x1F NOT SWAP1 DUP2 AND PUSH1 0x3F ADD AND DUP2 ADD SWAP1 DUP4 DUP3 GT DUP2 DUP4 LT OR ISZERO PUSH2 0x3A7E JUMPI PUSH2 0x3A7E PUSH2 0x4129 JUMP JUMPDEST DUP2 PUSH1 0x40 MSTORE DUP3 DUP2 MSTORE DUP8 PUSH1 0x20 DUP5 DUP8 ADD ADD GT ISZERO PUSH2 0x3A97 JUMPI PUSH1 0x0 DUP1 REVERT JUMPDEST DUP3 PUSH1 0x20 DUP7 ADD PUSH1 0x20 DUP4 ADD CALLDATACOPY PUSH1 0x0 SWAP3 DUP2 ADD PUSH1 0x20 ADD SWAP3 SWAP1 SWAP3 MSTORE POP SWAP6 SWAP5 POP POP POP POP POP JUMP JUMPDEST PUSH1 0x0 DUP1 PUSH1 0x0 PUSH1 0x60 DUP5 DUP7 SUB SLT ISZERO PUSH2 0x3ACC JUMPI PUSH1 0x0 DUP1 REVERT JUMPDEST PUSH2 0x3AD5 DUP5 PUSH2 0x389C JUMP JUMPDEST SWAP3 POP PUSH2 0x3AE3 PUSH1 0x20 DUP6 ADD PUSH2 0x389C JUMP JUMPDEST SWAP2 POP PUSH1 0x40 DUP5 ADD MLOAD PUSH4 0xFFFFFFFF DUP2 AND DUP2 EQ PUSH2 0x3AFC JUMPI PUSH1 0x0 DUP1 REVERT JUMPDEST DUP1 SWAP2 POP POP SWAP3 POP SWAP3 POP SWAP3 JUMP JUMPDEST PUSH1 0x0 PUSH1 0x20 DUP3 DUP5 SUB SLT ISZERO PUSH2 0x3B19 JUMPI PUSH1 0x0 DUP1 REVERT JUMPDEST PUSH2 0x1D99 DUP3 PUSH2 0x38B8 JUMP JUMPDEST PUSH1 0x0 PUSH1 0x20 DUP3 DUP5 SUB SLT ISZERO PUSH2 0x3B34 JUMPI PUSH1 0x0 DUP1 REVERT JUMPDEST POP CALLDATALOAD SWAP2 SWAP1 POP JUMP JUMPDEST PUSH1 0x0 PUSH1 0x20 DUP3 DUP5 SUB SLT ISZERO PUSH2 0x3B4D JUMPI PUSH1 0x0 DUP1 REVERT JUMPDEST POP MLOAD SWAP2 SWAP1 POP JUMP JUMPDEST PUSH1 0x0 DUP1 PUSH1 0x40 DUP4 DUP6 SUB SLT ISZERO PUSH2 0x3B67 JUMPI PUSH1 0x0 DUP1 REVERT JUMPDEST DUP3 CALLDATALOAD SWAP2 POP PUSH1 0x20 DUP4 ADD CALLDATALOAD PUSH2 0x39D9 DUP2 PUSH2 0x413F JUMP JUMPDEST PUSH1 0x0 DUP1 PUSH1 0x40 DUP4 DUP6 SUB SLT ISZERO PUSH2 0x3B8C JUMPI PUSH1 0x0 DUP1 REVERT JUMPDEST DUP3 CALLDATALOAD SWAP2 POP PUSH1 0x20 DUP4 ADD CALLDATALOAD PUSH2 0x39D9 DUP2 PUSH2 0x4154 JUMP JUMPDEST PUSH1 0x0 DUP1 PUSH1 0x0 DUP1 PUSH1 0x0 DUP1 PUSH1 0x0 DUP1 PUSH2 0x100 DUP10 DUP12 SUB SLT ISZERO PUSH2 0x3BBB JUMPI PUSH1 0x0 DUP1 REVERT JUMPDEST DUP9 CALLDATALOAD SWAP8 POP PUSH1 0x20 DUP10 ADD CALLDATALOAD PUSH2 0x3BCD DUP2 PUSH2 0x413F JUMP JUMPDEST SWAP7 POP PUSH1 0x40 DUP10 ADD CALLDATALOAD SWAP6 POP PUSH2 0x3BE2 PUSH1 0x60 DUP11 ADD PUSH2 0x38B8 JUMP JUMPDEST SWAP5 POP PUSH1 0x80 DUP10 ADD CALLDATALOAD PUSH2 0x3BF2 DUP2 PUSH2 0x413F JUMP JUMPDEST SWAP4 POP PUSH1 0xA0 DUP10 ADD CALLDATALOAD SWAP3 POP PUSH1 0xC0 DUP10 ADD CALLDATALOAD PUSH2 0x3C09 DUP2 PUSH2 0x4154 JUMP JUMPDEST SWAP2 POP PUSH1 0xE0 DUP10 ADD CALLDATALOAD PUSH2 0x3C19 DUP2 PUSH2 0x4154 JUMP JUMPDEST DUP1 SWAP2 POP POP SWAP3 SWAP6 SWAP9 POP SWAP3 SWAP6 SWAP9 SWAP1 SWAP4 SWAP7 POP JUMP JUMPDEST PUSH1 0x0 DUP1 PUSH1 0x0 PUSH1 0x60 DUP5 DUP7 SUB SLT ISZERO PUSH2 0x3C3F JUMPI PUSH1 0x0 DUP1 REVERT JUMPDEST DUP4 CALLDATALOAD SWAP3 POP PUSH1 0x20 DUP5 ADD CALLDATALOAD SWAP2 POP PUSH1 0x40 DUP5 ADD CALLDATALOAD PUSH2 0x3AFC DUP2 PUSH2 0x413F JUMP JUMPDEST PUSH1 0x0 DUP1 PUSH1 0x0 DUP1 PUSH1 0x0 DUP1 PUSH1 0xC0 DUP8 DUP10 SUB SLT ISZERO PUSH2 0x3C71 JUMPI PUSH1 0x0 DUP1 REVERT JUMPDEST DUP7 CALLDATALOAD SWAP6 POP PUSH1 0x20 DUP8 ADD CALLDATALOAD SWAP5 POP PUSH2 0x3C88 PUSH1 0x40 DUP9 ADD PUSH2 0x38B8 JUMP JUMPDEST SWAP4 POP PUSH1 0x60 DUP8 ADD CALLDATALOAD SWAP3 POP PUSH1 0x80 DUP8 ADD CALLDATALOAD PUSH2 0x3C9F DUP2 PUSH2 0x4154 JUMP JUMPDEST SWAP2 POP PUSH1 0xA0 DUP8 ADD CALLDATALOAD PUSH2 0x3CAF DUP2 PUSH2 0x4154 JUMP JUMPDEST DUP1 SWAP2 POP POP SWAP3 SWAP6 POP SWAP3 SWAP6 POP SWAP3 SWAP6 JUMP JUMPDEST PUSH1 0x0 PUSH1 0x20 DUP3 DUP5 SUB SLT ISZERO PUSH2 0x3CCF JUMPI PUSH1 0x0 DUP1 REVERT JUMPDEST DUP2 MLOAD PUSH1 0xFF DUP2 AND DUP2 EQ PUSH2 0x1D99 JUMPI PUSH1 0x0 DUP1 REVERT JUMPDEST PUSH1 0x0 DUP3 MLOAD PUSH2 0x3CF2 DUP2 DUP5 PUSH1 0x20 DUP8 ADD PUSH2 0x40A0 JUMP JUMPDEST SWAP2 SWAP1 SWAP2 ADD SWAP3 SWAP2 POP POP JUMP JUMPDEST PUSH1 0x20 DUP2 MSTORE PUSH1 0x0 DUP3 MLOAD DUP1 PUSH1 0x20 DUP5 ADD MSTORE PUSH2 0x3D1B DUP2 PUSH1 0x40 DUP6 ADD PUSH1 0x20 DUP8 ADD PUSH2 0x40A0 JUMP JUMPDEST PUSH1 0x1F ADD PUSH1 0x1F NOT AND SWAP2 SWAP1 SWAP2 ADD PUSH1 0x40 ADD SWAP3 SWAP2 POP POP JUMP JUMPDEST PUSH1 0x20 DUP1 DUP3 MSTORE DUP2 DUP2 ADD MSTORE PUSH32 0x4F776E61626C653A2063616C6C6572206973206E6F7420746865206F776E6572 PUSH1 0x40 DUP3 ADD MSTORE PUSH1 0x60 ADD SWAP1 JUMP JUMPDEST PUSH1 0x20 DUP1 DUP3 MSTORE PUSH1 0x12 SWAP1 DUP3 ADD MSTORE PUSH18 0x119D5B98DD1A5BDB881A5CC81B1BD8DAD959 PUSH1 0x72 SHL PUSH1 0x40 DUP3 ADD MSTORE PUSH1 0x60 ADD SWAP1 JUMP JUMPDEST PUSH1 0x20 DUP1 DUP3 MSTORE PUSH1 0x35 SWAP1 DUP3 ADD MSTORE PUSH32 0x6F70657261746F723A2063616C6C6572206973206E6F7420616C6C6F77656420 PUSH1 0x40 DUP3 ADD MSTORE PUSH21 0x3A379031B0B636103A3434B990333AB731BA34B7B7 PUSH1 0x59 SHL PUSH1 0x60 DUP3 ADD MSTORE PUSH1 0x80 ADD SWAP1 JUMP JUMPDEST PUSH1 0x20 DUP1 DUP3 MSTORE PUSH1 0x1F SWAP1 DUP3 ADD MSTORE PUSH32 0x5265656E7472616E637947756172643A207265656E7472616E742063616C6C00 PUSH1 0x40 DUP3 ADD MSTORE PUSH1 0x60 ADD SWAP1 JUMP JUMPDEST PUSH1 0x20 DUP1 DUP3 MSTORE PUSH1 0x22 SWAP1 DUP3 ADD MSTORE PUSH32 0x7365743A206465706F736974206665652063616E277420657863656564203130 PUSH1 0x40 DUP3 ADD MSTORE PUSH2 0x2025 PUSH1 0xF0 SHL PUSH1 0x60 DUP3 ADD MSTORE PUSH1 0x80 ADD SWAP1 JUMP JUMPDEST PUSH1 0x0 DUP3 NOT DUP3 GT ISZERO PUSH2 0x3E71 JUMPI PUSH2 0x3E71 PUSH2 0x40E7 JUMP JUMPDEST POP ADD SWAP1 JUMP JUMPDEST PUSH1 0x0 DUP3 PUSH2 0x3E85 JUMPI PUSH2 0x3E85 PUSH2 0x40FD JUMP JUMPDEST PUSH1 0x1 PUSH1 0xFF SHL DUP3 EQ PUSH1 0x0 NOT DUP5 EQ AND ISZERO PUSH2 0x3E9F JUMPI PUSH2 0x3E9F PUSH2 0x40E7 JUMP JUMPDEST POP SDIV SWAP1 JUMP JUMPDEST PUSH1 0x0 DUP3 PUSH2 0x3EB3 JUMPI PUSH2 0x3EB3 PUSH2 0x40FD JUMP JUMPDEST POP DIV SWAP1 JUMP JUMPDEST PUSH1 0x1 DUP2 DUP2 JUMPDEST DUP1 DUP6 GT ISZERO PUSH2 0x3EF3 JUMPI DUP2 PUSH1 0x0 NOT DIV DUP3 GT ISZERO PUSH2 0x3ED9 JUMPI PUSH2 0x3ED9 PUSH2 0x40E7 JUMP JUMPDEST DUP1 DUP6 AND ISZERO PUSH2 0x3EE6 JUMPI SWAP2 DUP2 MUL SWAP2 JUMPDEST SWAP4 DUP5 SHR SWAP4 SWAP1 DUP1 MUL SWAP1 PUSH2 0x3EBD JUMP JUMPDEST POP SWAP3 POP SWAP3 SWAP1 POP JUMP JUMPDEST PUSH1 0x0 PUSH2 0x1D99 PUSH1 0xFF DUP5 AND DUP4 PUSH1 0x0 DUP3 PUSH2 0x3F14 JUMPI POP PUSH1 0x1 PUSH2 0x23A9 JUMP JUMPDEST DUP2 PUSH2 0x3F21 JUMPI POP PUSH1 0x0 PUSH2 0x23A9 JUMP JUMPDEST DUP2 PUSH1 0x1 DUP2 EQ PUSH2 0x3F37 JUMPI PUSH1 0x2 DUP2 EQ PUSH2 0x3F41 JUMPI PUSH2 0x3F5D JUMP JUMPDEST PUSH1 0x1 SWAP2 POP POP PUSH2 0x23A9 JUMP JUMPDEST PUSH1 0xFF DUP5 GT ISZERO PUSH2 0x3F52 JUMPI PUSH2 0x3F52 PUSH2 0x40E7 JUMP JUMPDEST POP POP PUSH1 0x1 DUP3 SHL PUSH2 0x23A9 JUMP JUMPDEST POP PUSH1 0x20 DUP4 LT PUSH2 0x133 DUP4 LT AND PUSH1 0x4E DUP5 LT PUSH1 0xB DUP5 LT AND OR ISZERO PUSH2 0x3F80 JUMPI POP DUP2 DUP2 EXP PUSH2 0x23A9 JUMP JUMPDEST PUSH2 0x3F8A DUP4 DUP4 PUSH2 0x3EB8 JUMP JUMPDEST DUP1 PUSH1 0x0 NOT DIV DUP3 GT ISZERO PUSH2 0x3F9E JUMPI PUSH2 0x3F9E PUSH2 0x40E7 JUMP JUMPDEST MUL SWAP4 SWAP3 POP POP POP JUMP JUMPDEST PUSH1 0x0 PUSH1 0x1 PUSH1 0x1 PUSH1 0xFF SHL SUB DUP2 DUP5 SGT DUP3 DUP5 SGT DUP1 DUP3 AND DUP7 DUP5 DIV DUP7 GT AND ISZERO PUSH2 0x3FCC JUMPI PUSH2 0x3FCC PUSH2 0x40E7 JUMP JUMPDEST PUSH1 0x1 PUSH1 0xFF SHL PUSH1 0x0 DUP8 SLT DUP3 DUP2 AND DUP8 DUP4 SDIV DUP10 SLT AND ISZERO PUSH2 0x3FEB JUMPI PUSH2 0x3FEB PUSH2 0x40E7 JUMP JUMPDEST PUSH1 0x0 DUP8 SLT SWAP3 POP DUP8 DUP3 SDIV DUP8 SLT DUP5 DUP5 AND AND ISZERO PUSH2 0x4007 JUMPI PUSH2 0x4007 PUSH2 0x40E7 JUMP JUMPDEST DUP8 DUP6 SDIV DUP8 SLT DUP2 DUP5 AND AND ISZERO PUSH2 0x401D JUMPI PUSH2 0x401D PUSH2 0x40E7 JUMP JUMPDEST POP POP POP SWAP3 SWAP1 SWAP4 MUL SWAP4 SWAP3 POP POP POP JUMP JUMPDEST PUSH1 0x0 DUP2 PUSH1 0x0 NOT DIV DUP4 GT DUP3 ISZERO ISZERO AND ISZERO PUSH2 0x4045 JUMPI PUSH2 0x4045 PUSH2 0x40E7 JUMP JUMPDEST POP MUL SWAP1 JUMP JUMPDEST PUSH1 0x0 DUP1 DUP4 SLT DUP1 ISZERO PUSH1 0x1 PUSH1 0xFF SHL DUP6 ADD DUP5 SLT AND ISZERO PUSH2 0x4068 JUMPI PUSH2 0x4068 PUSH2 0x40E7 JUMP JUMPDEST PUSH1 0x1 PUSH1 0x1 PUSH1 0xFF SHL SUB DUP5 ADD DUP4 SGT DUP2 AND ISZERO PUSH2 0x4083 JUMPI PUSH2 0x4083 PUSH2 0x40E7 JUMP JUMPDEST POP POP SUB SWAP1 JUMP JUMPDEST PUSH1 0x0 DUP3 DUP3 LT ISZERO PUSH2 0x409B JUMPI PUSH2 0x409B PUSH2 0x40E7 JUMP JUMPDEST POP SUB SWAP1 JUMP JUMPDEST PUSH1 0x0 JUMPDEST DUP4 DUP2 LT ISZERO PUSH2 0x40BB JUMPI DUP2 DUP2 ADD MLOAD DUP4 DUP3 ADD MSTORE PUSH1 0x20 ADD PUSH2 0x40A3 JUMP JUMPDEST DUP4 DUP2 GT ISZERO PUSH2 0x320A JUMPI POP POP PUSH1 0x0 SWAP2 ADD MSTORE JUMP JUMPDEST PUSH1 0x0 PUSH1 0x0 NOT DUP3 EQ ISZERO PUSH2 0x40E0 JUMPI PUSH2 0x40E0 PUSH2 0x40E7 JUMP JUMPDEST POP PUSH1 0x1 ADD SWAP1 JUMP JUMPDEST PUSH4 0x4E487B71 PUSH1 0xE0 SHL PUSH1 0x0 MSTORE PUSH1 0x11 PUSH1 0x4 MSTORE PUSH1 0x24 PUSH1 0x0 REVERT JUMPDEST PUSH4 0x4E487B71 PUSH1 0xE0 SHL PUSH1 0x0 MSTORE PUSH1 0x12 PUSH1 0x4 MSTORE PUSH1 0x24 PUSH1 0x0 REVERT JUMPDEST PUSH4 0x4E487B71 PUSH1 0xE0 SHL PUSH1 0x0 MSTORE PUSH1 0x32 PUSH1 0x4 MSTORE PUSH1 0x24 PUSH1 0x0 REVERT JUMPDEST PUSH4 0x4E487B71 PUSH1 0xE0 SHL PUSH1 0x0 MSTORE PUSH1 0x41 PUSH1 0x4 MSTORE PUSH1 0x24 PUSH1 0x0 REVERT JUMPDEST PUSH1 0x1 PUSH1 0x1 PUSH1 0xA0 SHL SUB DUP2 AND DUP2 EQ PUSH2 0x3067 JUMPI PUSH1 0x0 DUP1 REVERT JUMPDEST DUP1 ISZERO ISZERO DUP2 EQ PUSH2 0x3067 JUMPI PUSH1 0x0 DUP1 REVERT INVALID LOG2 PUSH5 0x6970667358 0x22 SLT KECCAK256 0x23 SWAP14 0xF OR 0xC4 0xBF 0xC8 PUSH28 0xEEAC6168A32D041B2FD1921FC67307C3C773F29F3567D6D764736F6C PUSH4 0x43000807 STOP CALLER "
		},
		"gasEstimates": {
			"creation": {
				"codeDepositCost": "3358400",
				"executionCost": "infinite",
				"totalCost": "infinite"
			},
			"external": {
				"add(uint256,address,uint256,uint16,address,uint256,bool,bool)": "infinite",
				"canClaimRewards(uint256)": "infinite",
				"checkPriceUpdate()": "infinite",
				"claim(uint256)": "infinite",
				"coin()": "2451",
				"coinPerBlock()": "2396",
				"deposit(uint256,uint256)": "infinite",
				"depositForUser(uint256,uint256,address)": "infinite",
				"depositedCoins()": "2417",
				"devAddress()": "2416",
				"feeAddress()": "2449",
				"getAveragePrice()": "infinite",
				"getBalanceOf(address,uint256)": "infinite",
				"getCoinAmount(address,address,uint256)": "infinite",
				"getDepositFee(uint256)": "infinite",
				"getLpSupply(uint256)": "infinite",
				"getNewEmissionRate(uint256,bool)": "infinite",
				"getPriceDifference(int256,int256)": "infinite",
				"getTokenPrice()": "infinite",
				"hourlyIndex()": "2419",
				"hourlyPrices(uint256)": "4653",
				"isLockEnabled()": "2421",
				"lastAveragePrice()": "2417",
				"lastEmissionIncrease()": "2374",
				"lastEmissionUpdateBlock()": "2417",
				"lastPriceUpdateBlock()": "2374",
				"lockFunction(string)": "infinite",
				"lpAddress()": "2427",
				"maintainer()": "2399",
				"massUpdatePools()": "infinite",
				"maxEmissionIncrease()": "2403",
				"owner()": "2421",
				"pendingCoin(uint256,address)": "infinite",
				"poolInfos(uint256)": "23943",
				"poolLength()": "2340",
				"previousAveragePrice()": "2352",
				"renounceOwnership()": "28225",
				"setCoin(address)": "infinite",
				"setDevAddress(address)": "infinite",
				"setLockPeriodState(bool)": "28910",
				"setMaintainer(address)": "infinite",
				"setMaxEmissionIncrease(uint16)": "28175",
				"setPoolVariables(uint256,uint256,uint16,uint256,bool,bool)": "infinite",
				"setTimelockEnabled()": "29564",
				"startBlock()": "2375",
				"timelock(string)": "infinite",
				"totalAllocPoint()": "2375",
				"transferOwnership(address)": "infinite",
				"unlockFunction(string)": "infinite",
				"updateEmissionRate(uint256)": "infinite",
				"updatePool(uint256)": "infinite",
				"updatePrice()": "infinite",
				"userInfos(uint256,address)": "7004",
				"whitelist(bool,address)": "infinite",
				"whitelisted(address)": "2636",
				"withdraw(uint256,uint256)": "infinite",
				"withdrawWithoutRewards(uint256)": "infinite"
			},
			"internal": {
				"executeDeposit(uint256,uint256,address)": "infinite",
				"safeCoinTransfer(address,uint256)": "infinite",
				"updateEmissionRateByPriceDifference()": "infinite",
				"updateEmissionRateInternal(uint256)": "infinite"
			}
		},
		"methodIdentifiers": {
			"add(uint256,address,uint256,uint16,address,uint256,bool,bool)": "97e78494",
			"canClaimRewards(uint256)": "29465d42",
			"checkPriceUpdate()": "437f660e",
			"claim(uint256)": "379607f5",
			"coin()": "11df9995",
			"coinPerBlock()": "9eed5b33",
			"deposit(uint256,uint256)": "e2bbb158",
			"depositForUser(uint256,uint256,address)": "a3f30d27",
			"depositedCoins()": "7ba71c55",
			"devAddress()": "3ad10ef6",
			"feeAddress()": "41275358",
			"getAveragePrice()": "a6be46aa",
			"getBalanceOf(address,uint256)": "94d45b59",
			"getCoinAmount(address,address,uint256)": "575b789c",
			"getDepositFee(uint256)": "9fbe42e3",
			"getLpSupply(uint256)": "5ecbbf98",
			"getNewEmissionRate(uint256,bool)": "ca4164f9",
			"getPriceDifference(int256,int256)": "e6c1e89c",
			"getTokenPrice()": "4b94f50e",
			"hourlyIndex()": "27de1947",
			"hourlyPrices(uint256)": "6e0c9f0a",
			"isLockEnabled()": "a347511a",
			"lastAveragePrice()": "da201248",
			"lastEmissionIncrease()": "3e82211c",
			"lastEmissionUpdateBlock()": "edc23f96",
			"lastPriceUpdateBlock()": "65a2d701",
			"lockFunction(string)": "9f531156",
			"lpAddress()": "9b4dc8cc",
			"maintainer()": "9850d32b",
			"massUpdatePools()": "630b5ba1",
			"maxEmissionIncrease()": "57320251",
			"owner()": "8da5cb5b",
			"pendingCoin(uint256,address)": "e9a52b67",
			"poolInfos(uint256)": "689d84e4",
			"poolLength()": "081e3eda",
			"previousAveragePrice()": "8ca20689",
			"renounceOwnership()": "715018a6",
			"setCoin(address)": "82e46b75",
			"setDevAddress(address)": "d0d41fe1",
			"setLockPeriodState(bool)": "80c26c34",
			"setMaintainer(address)": "13ea5d29",
			"setMaxEmissionIncrease(uint16)": "f0c44502",
			"setPoolVariables(uint256,uint256,uint16,uint256,bool,bool)": "262917d9",
			"setTimelockEnabled()": "f4762fd6",
			"startBlock()": "48cd4cb1",
			"timelock(string)": "f98080c0",
			"totalAllocPoint()": "17caf6f1",
			"transferOwnership(address)": "f2fde38b",
			"unlockFunction(string)": "a607494a",
			"updateEmissionRate(uint256)": "0ba84cd2",
			"updatePool(uint256)": "51eb05a6",
			"updatePrice()": "673a7e28",
			"userInfos(uint256,address)": "87370846",
			"whitelist(bool,address)": "34c434e4",
			"whitelisted(address)": "d936547e",
			"withdraw(uint256,uint256)": "441a3e70",
			"withdrawWithoutRewards(uint256)": "a8b39eee"
		}
	},
	"abi": [
		{
			"inputs": [
				{
					"internalType": "address",
					"name": "_coin",
					"type": "address"
				},
				{
					"internalType": "address",
					"name": "_devaddr",
					"type": "address"
				},
				{
					"internalType": "address",
					"name": "_feeAddress",
					"type": "address"
				},
				{
					"internalType": "uint256",
					"name": "_startBlock",
					"type": "uint256"
				}
			],
			"stateMutability": "nonpayable",
			"type": "constructor"
		},
		{
			"anonymous": false,
			"inputs": [
				{
					"indexed": true,
					"internalType": "address",
					"name": "previousCoin",
					"type": "address"
				},
				{
					"indexed": true,
					"internalType": "address",
					"name": "newCoin",
					"type": "address"
				}
			],
			"name": "ChangedCoin",
			"type": "event"
		},
		{
			"anonymous": false,
			"inputs": [
				{
					"indexed": true,
					"internalType": "address",
					"name": "user",
					"type": "address"
				},
				{
					"indexed": true,
					"internalType": "uint256",
					"name": "pid",
					"type": "uint256"
				},
				{
					"indexed": false,
					"internalType": "uint256",
					"name": "amount",
					"type": "uint256"
				}
			],
			"name": "Claim",
			"type": "event"
		},
		{
			"anonymous": false,
			"inputs": [
				{
					"indexed": true,
					"internalType": "address",
					"name": "user",
					"type": "address"
				},
				{
					"indexed": true,
					"internalType": "uint256",
					"name": "pid",
					"type": "uint256"
				},
				{
					"indexed": false,
					"internalType": "uint256",
					"name": "amount",
					"type": "uint256"
				}
			],
			"name": "Deposit",
			"type": "event"
		},
		{
			"anonymous": false,
			"inputs": [
				{
					"indexed": true,
					"internalType": "address",
					"name": "user",
					"type": "address"
				},
				{
					"indexed": true,
					"internalType": "uint256",
					"name": "pid",
					"type": "uint256"
				},
				{
					"indexed": false,
					"internalType": "uint256",
					"name": "amount",
					"type": "uint256"
				}
			],
			"name": "EmergencyWithdraw",
			"type": "event"
		},
		{
			"anonymous": false,
			"inputs": [],
			"name": "EnabledLock",
			"type": "event"
		},
		{
			"anonymous": false,
			"inputs": [
				{
					"indexed": true,
					"internalType": "address",
					"name": "previousMaintainer",
					"type": "address"
				},
				{
					"indexed": true,
					"internalType": "address",
					"name": "newMaintainer",
					"type": "address"
				}
			],
			"name": "MaintainerTransferred",
			"type": "event"
		},
		{
			"anonymous": false,
			"inputs": [
				{
					"indexed": true,
					"internalType": "address",
					"name": "pool",
					"type": "address"
				},
				{
					"indexed": true,
					"internalType": "uint256",
					"name": "pid",
					"type": "uint256"
				}
			],
			"name": "NewPool",
			"type": "event"
		},
		{
			"anonymous": false,
			"inputs": [
				{
					"indexed": true,
					"internalType": "address",
					"name": "previousOwner",
					"type": "address"
				},
				{
					"indexed": true,
					"internalType": "address",
					"name": "newOwner",
					"type": "address"
				}
			],
			"name": "OwnershipTransferred",
			"type": "event"
		},
		{
			"anonymous": false,
			"inputs": [
				{
					"indexed": true,
					"internalType": "address",
					"name": "user",
					"type": "address"
				},
				{
					"indexed": true,
					"internalType": "address",
					"name": "newAddress",
					"type": "address"
				}
			],
			"name": "SetDevAddress",
			"type": "event"
		},
		{
			"anonymous": false,
			"inputs": [
				{
					"indexed": true,
					"internalType": "address",
					"name": "user",
					"type": "address"
				},
				{
					"indexed": true,
					"internalType": "address",
					"name": "newAddress",
					"type": "address"
				}
			],
			"name": "SetFeeAddress",
			"type": "event"
		},
		{
			"anonymous": false,
			"inputs": [
				{
					"indexed": true,
					"internalType": "address",
					"name": "user",
					"type": "address"
				},
				{
					"indexed": false,
					"internalType": "uint16",
					"name": "newMaxEmissionIncrease",
					"type": "uint16"
				}
			],
			"name": "SetMaxEmissionIncrease",
			"type": "event"
		},
		{
			"anonymous": false,
			"inputs": [
				{
					"indexed": true,
					"internalType": "string",
					"name": "functionName",
					"type": "string"
				},
				{
					"indexed": true,
					"internalType": "uint256",
					"name": "unlockedAt",
					"type": "uint256"
				}
			],
			"name": "UnlockedFunction",
			"type": "event"
		},
		{
			"anonymous": false,
			"inputs": [
				{
					"indexed": true,
					"internalType": "address",
					"name": "user",
					"type": "address"
				},
				{
					"indexed": false,
					"internalType": "uint256",
					"name": "newEmission",
					"type": "uint256"
				}
			],
			"name": "UpdateEmissionRate",
			"type": "event"
		},
		{
			"anonymous": false,
			"inputs": [
				{
					"indexed": true,
					"internalType": "uint256",
					"name": "previousAveragePrice",
					"type": "uint256"
				},
				{
					"indexed": true,
					"internalType": "uint256",
					"name": "newAveragePrice",
					"type": "uint256"
				}
			],
			"name": "UpdatedAveragePrice",
			"type": "event"
		},
		{
			"anonymous": false,
			"inputs": [
				{
					"indexed": true,
					"internalType": "uint256",
					"name": "pid",
					"type": "uint256"
				}
			],
			"name": "UpdatedPool",
			"type": "event"
		},
		{
			"anonymous": false,
			"inputs": [
				{
					"indexed": true,
					"internalType": "address",
					"name": "user",
					"type": "address"
				},
				{
					"indexed": true,
					"internalType": "uint256",
					"name": "pid",
					"type": "uint256"
				},
				{
					"indexed": false,
					"internalType": "uint256",
					"name": "amount",
					"type": "uint256"
				}
			],
			"name": "Withdraw",
			"type": "event"
		},
		{
			"inputs": [
				{
					"internalType": "uint256",
					"name": "_allocPoint",
					"type": "uint256"
				},
				{
					"internalType": "contract IERC20",
					"name": "_lpToken",
					"type": "address"
				},
				{
					"internalType": "uint256",
					"name": "_pid",
					"type": "uint256"
				},
				{
					"internalType": "uint16",
					"name": "_depositFee",
					"type": "uint16"
				},
				{
					"internalType": "contract IMasterChefContractor",
					"name": "_contractor",
					"type": "address"
				},
				{
					"internalType": "uint256",
					"name": "_lockPeriod",
					"type": "uint256"
				},
				{
					"internalType": "bool",
					"name": "_isCoinLp",
					"type": "bool"
				},
				{
					"internalType": "bool",
					"name": "_withUpdate",
					"type": "bool"
				}
			],
			"name": "add",
			"outputs": [],
			"stateMutability": "nonpayable",
			"type": "function"
		},
		{
			"inputs": [
				{
					"internalType": "uint256",
					"name": "_amount",
					"type": "uint256"
				}
			],
			"name": "canClaimRewards",
			"outputs": [
				{
					"internalType": "bool",
					"name": "",
					"type": "bool"
				}
			],
			"stateMutability": "view",
			"type": "function"
		},
		{
			"inputs": [],
			"name": "checkPriceUpdate",
			"outputs": [],
			"stateMutability": "nonpayable",
			"type": "function"
		},
		{
			"inputs": [
				{
					"internalType": "uint256",
					"name": "_pid",
					"type": "uint256"
				}
			],
			"name": "claim",
			"outputs": [],
			"stateMutability": "nonpayable",
			"type": "function"
		},
		{
			"inputs": [],
			"name": "coin",
			"outputs": [
				{
					"internalType": "contract IAboatToken",
					"name": "",
					"type": "address"
				}
			],
			"stateMutability": "view",
			"type": "function"
		},
		{
			"inputs": [],
			"name": "coinPerBlock",
			"outputs": [
				{
					"internalType": "uint256",
					"name": "",
					"type": "uint256"
				}
			],
			"stateMutability": "view",
			"type": "function"
		},
		{
			"inputs": [
				{
					"internalType": "uint256",
					"name": "_pid",
					"type": "uint256"
				},
				{
					"internalType": "uint256",
					"name": "_amount",
					"type": "uint256"
				}
			],
			"name": "deposit",
			"outputs": [],
			"stateMutability": "nonpayable",
			"type": "function"
		},
		{
			"inputs": [
				{
					"internalType": "uint256",
					"name": "_pid",
					"type": "uint256"
				},
				{
					"internalType": "uint256",
					"name": "_amount",
					"type": "uint256"
				},
				{
					"internalType": "address",
					"name": "user",
					"type": "address"
				}
			],
			"name": "depositForUser",
			"outputs": [],
			"stateMutability": "nonpayable",
			"type": "function"
		},
		{
			"inputs": [],
			"name": "depositedCoins",
			"outputs": [
				{
					"internalType": "uint256",
					"name": "",
					"type": "uint256"
				}
			],
			"stateMutability": "view",
			"type": "function"
		},
		{
			"inputs": [],
			"name": "devAddress",
			"outputs": [
				{
					"internalType": "address",
					"name": "",
					"type": "address"
				}
			],
			"stateMutability": "view",
			"type": "function"
		},
		{
			"inputs": [],
			"name": "feeAddress",
			"outputs": [
				{
					"internalType": "address",
					"name": "",
					"type": "address"
				}
			],
			"stateMutability": "view",
			"type": "function"
		},
		{
			"inputs": [],
			"name": "getAveragePrice",
			"outputs": [
				{
					"internalType": "uint256",
					"name": "",
					"type": "uint256"
				}
			],
			"stateMutability": "view",
			"type": "function"
		},
		{
			"inputs": [
				{
					"internalType": "address",
					"name": "_user",
					"type": "address"
				},
				{
					"internalType": "uint256",
					"name": "_vesting",
					"type": "uint256"
				}
			],
			"name": "getBalanceOf",
			"outputs": [
				{
					"internalType": "uint256",
					"name": "",
					"type": "uint256"
				}
			],
			"stateMutability": "view",
			"type": "function"
		},
		{
			"inputs": [
				{
					"internalType": "address",
					"name": "_pair",
					"type": "address"
				},
				{
					"internalType": "address",
					"name": "_coinOfInterest",
					"type": "address"
				},
				{
					"internalType": "uint256",
					"name": "_amount",
					"type": "uint256"
				}
			],
			"name": "getCoinAmount",
			"outputs": [
				{
					"internalType": "uint256",
					"name": "",
					"type": "uint256"
				}
			],
			"stateMutability": "view",
			"type": "function"
		},
		{
			"inputs": [
				{
					"internalType": "uint256",
					"name": "_pid",
					"type": "uint256"
				}
			],
			"name": "getDepositFee",
			"outputs": [
				{
					"internalType": "uint256",
					"name": "",
					"type": "uint256"
				}
			],
			"stateMutability": "view",
			"type": "function"
		},
		{
			"inputs": [
				{
					"internalType": "uint256",
					"name": "_pid",
					"type": "uint256"
				}
			],
			"name": "getLpSupply",
			"outputs": [
				{
					"internalType": "uint256",
					"name": "",
					"type": "uint256"
				}
			],
			"stateMutability": "view",
			"type": "function"
		},
		{
			"inputs": [
				{
					"internalType": "uint256",
					"name": "percentage",
					"type": "uint256"
				},
				{
					"internalType": "bool",
					"name": "isPositiveChange",
					"type": "bool"
				}
			],
			"name": "getNewEmissionRate",
			"outputs": [
				{
					"internalType": "uint256",
					"name": "",
					"type": "uint256"
				}
			],
			"stateMutability": "view",
			"type": "function"
		},
		{
			"inputs": [
				{
					"internalType": "int256",
					"name": "newPrice",
					"type": "int256"
				},
				{
					"internalType": "int256",
					"name": "oldPrice",
					"type": "int256"
				}
			],
			"name": "getPriceDifference",
			"outputs": [
				{
					"internalType": "uint256",
					"name": "",
					"type": "uint256"
				}
			],
			"stateMutability": "pure",
			"type": "function"
		},
		{
			"inputs": [],
			"name": "getTokenPrice",
			"outputs": [
				{
					"internalType": "uint256",
					"name": "",
					"type": "uint256"
				}
			],
			"stateMutability": "nonpayable",
			"type": "function"
		},
		{
			"inputs": [],
			"name": "hourlyIndex",
			"outputs": [
				{
					"internalType": "uint256",
					"name": "",
					"type": "uint256"
				}
			],
			"stateMutability": "view",
			"type": "function"
		},
		{
			"inputs": [
				{
					"internalType": "uint256",
					"name": "",
					"type": "uint256"
				}
			],
			"name": "hourlyPrices",
			"outputs": [
				{
					"internalType": "uint256",
					"name": "",
					"type": "uint256"
				}
			],
			"stateMutability": "view",
			"type": "function"
		},
		{
			"inputs": [],
			"name": "isLockEnabled",
			"outputs": [
				{
					"internalType": "bool",
					"name": "",
					"type": "bool"
				}
			],
			"stateMutability": "view",
			"type": "function"
		},
		{
			"inputs": [],
			"name": "lastAveragePrice",
			"outputs": [
				{
					"internalType": "uint256",
					"name": "",
					"type": "uint256"
				}
			],
			"stateMutability": "view",
			"type": "function"
		},
		{
			"inputs": [],
			"name": "lastEmissionIncrease",
			"outputs": [
				{
					"internalType": "uint256",
					"name": "",
					"type": "uint256"
				}
			],
			"stateMutability": "view",
			"type": "function"
		},
		{
			"inputs": [],
			"name": "lastEmissionUpdateBlock",
			"outputs": [
				{
					"internalType": "uint256",
					"name": "",
					"type": "uint256"
				}
			],
			"stateMutability": "view",
			"type": "function"
		},
		{
			"inputs": [],
			"name": "lastPriceUpdateBlock",
			"outputs": [
				{
					"internalType": "uint256",
					"name": "",
					"type": "uint256"
				}
			],
			"stateMutability": "view",
			"type": "function"
		},
		{
			"inputs": [
				{
					"internalType": "string",
					"name": "_fn",
					"type": "string"
				}
			],
			"name": "lockFunction",
			"outputs": [],
			"stateMutability": "nonpayable",
			"type": "function"
		},
		{
			"inputs": [],
			"name": "lpAddress",
			"outputs": [
				{
					"internalType": "address",
					"name": "",
					"type": "address"
				}
			],
			"stateMutability": "view",
			"type": "function"
		},
		{
			"inputs": [],
			"name": "maintainer",
			"outputs": [
				{
					"internalType": "address",
					"name": "",
					"type": "address"
				}
			],
			"stateMutability": "view",
			"type": "function"
		},
		{
			"inputs": [],
			"name": "massUpdatePools",
			"outputs": [],
			"stateMutability": "nonpayable",
			"type": "function"
		},
		{
			"inputs": [],
			"name": "maxEmissionIncrease",
			"outputs": [
				{
					"internalType": "uint16",
					"name": "",
					"type": "uint16"
				}
			],
			"stateMutability": "view",
			"type": "function"
		},
		{
			"inputs": [],
			"name": "owner",
			"outputs": [
				{
					"internalType": "address",
					"name": "",
					"type": "address"
				}
			],
			"stateMutability": "view",
			"type": "function"
		},
		{
			"inputs": [
				{
					"internalType": "uint256",
					"name": "_pid",
					"type": "uint256"
				},
				{
					"internalType": "address",
					"name": "_user",
					"type": "address"
				}
			],
			"name": "pendingCoin",
			"outputs": [
				{
					"internalType": "uint256",
					"name": "",
					"type": "uint256"
				}
			],
			"stateMutability": "view",
			"type": "function"
		},
		{
			"inputs": [
				{
					"internalType": "uint256",
					"name": "",
					"type": "uint256"
				}
			],
			"name": "poolInfos",
			"outputs": [
				{
					"internalType": "contract IMasterChefContractor",
					"name": "contractor",
					"type": "address"
				},
				{
					"internalType": "contract IERC20",
					"name": "lpToken",
					"type": "address"
				},
				{
					"internalType": "uint256",
					"name": "allocPoint",
					"type": "uint256"
				},
				{
					"internalType": "uint256",
					"name": "lastRewardBlock",
					"type": "uint256"
				},
				{
					"internalType": "uint256",
					"name": "accCoinPerShare",
					"type": "uint256"
				},
				{
					"internalType": "uint16",
					"name": "depositFee",
					"type": "uint16"
				},
				{
					"internalType": "uint256",
					"name": "depositedCoins",
					"type": "uint256"
				},
				{
					"internalType": "uint256",
					"name": "pid",
					"type": "uint256"
				},
				{
					"internalType": "uint256",
					"name": "lockPeriod",
					"type": "uint256"
				},
				{
					"internalType": "bool",
					"name": "isCoinLp",
					"type": "bool"
				}
			],
			"stateMutability": "view",
			"type": "function"
		},
		{
			"inputs": [],
			"name": "poolLength",
			"outputs": [
				{
					"internalType": "uint256",
					"name": "",
					"type": "uint256"
				}
			],
			"stateMutability": "view",
			"type": "function"
		},
		{
			"inputs": [],
			"name": "previousAveragePrice",
			"outputs": [
				{
					"internalType": "uint256",
					"name": "",
					"type": "uint256"
				}
			],
			"stateMutability": "view",
			"type": "function"
		},
		{
			"inputs": [],
			"name": "renounceOwnership",
			"outputs": [],
			"stateMutability": "nonpayable",
			"type": "function"
		},
		{
			"inputs": [
				{
					"internalType": "contract IAboatToken",
					"name": "_coin",
					"type": "address"
				}
			],
			"name": "setCoin",
			"outputs": [],
			"stateMutability": "nonpayable",
			"type": "function"
		},
		{
			"inputs": [
				{
					"internalType": "address",
					"name": "_devAddress",
					"type": "address"
				}
			],
			"name": "setDevAddress",
			"outputs": [],
			"stateMutability": "nonpayable",
			"type": "function"
		},
		{
			"inputs": [
				{
					"internalType": "bool",
					"name": "state",
					"type": "bool"
				}
			],
			"name": "setLockPeriodState",
			"outputs": [],
			"stateMutability": "nonpayable",
			"type": "function"
		},
		{
			"inputs": [
				{
					"internalType": "address",
					"name": "_newMaintainer",
					"type": "address"
				}
			],
			"name": "setMaintainer",
			"outputs": [],
			"stateMutability": "nonpayable",
			"type": "function"
		},
		{
			"inputs": [
				{
					"internalType": "uint16",
					"name": "_maxEmissionIncrease",
					"type": "uint16"
				}
			],
			"name": "setMaxEmissionIncrease",
			"outputs": [],
			"stateMutability": "nonpayable",
			"type": "function"
		},
		{
			"inputs": [
				{
					"internalType": "uint256",
					"name": "_pid",
					"type": "uint256"
				},
				{
					"internalType": "uint256",
					"name": "_allocPoint",
					"type": "uint256"
				},
				{
					"internalType": "uint16",
					"name": "_depositFee",
					"type": "uint16"
				},
				{
					"internalType": "uint256",
					"name": "_lockPeriod",
					"type": "uint256"
				},
				{
					"internalType": "bool",
					"name": "_isCoinLp",
					"type": "bool"
				},
				{
					"internalType": "bool",
					"name": "_withUpdate",
					"type": "bool"
				}
			],
			"name": "setPoolVariables",
			"outputs": [],
			"stateMutability": "nonpayable",
			"type": "function"
		},
		{
			"inputs": [],
			"name": "setTimelockEnabled",
			"outputs": [],
			"stateMutability": "nonpayable",
			"type": "function"
		},
		{
			"inputs": [],
			"name": "startBlock",
			"outputs": [
				{
					"internalType": "uint256",
					"name": "",
					"type": "uint256"
				}
			],
			"stateMutability": "view",
			"type": "function"
		},
		{
			"inputs": [
				{
					"internalType": "string",
					"name": "",
					"type": "string"
				}
			],
			"name": "timelock",
			"outputs": [
				{
					"internalType": "uint256",
					"name": "",
					"type": "uint256"
				}
			],
			"stateMutability": "view",
			"type": "function"
		},
		{
			"inputs": [],
			"name": "totalAllocPoint",
			"outputs": [
				{
					"internalType": "uint256",
					"name": "",
					"type": "uint256"
				}
			],
			"stateMutability": "view",
			"type": "function"
		},
		{
			"inputs": [
				{
					"internalType": "address",
					"name": "newOwner",
					"type": "address"
				}
			],
			"name": "transferOwnership",
			"outputs": [],
			"stateMutability": "nonpayable",
			"type": "function"
		},
		{
			"inputs": [
				{
					"internalType": "string",
					"name": "_fn",
					"type": "string"
				}
			],
			"name": "unlockFunction",
			"outputs": [],
			"stateMutability": "nonpayable",
			"type": "function"
		},
		{
			"inputs": [
				{
					"internalType": "uint256",
					"name": "_coinPerBlock",
					"type": "uint256"
				}
			],
			"name": "updateEmissionRate",
			"outputs": [],
			"stateMutability": "nonpayable",
			"type": "function"
		},
		{
			"inputs": [
				{
					"internalType": "uint256",
					"name": "_pid",
					"type": "uint256"
				}
			],
			"name": "updatePool",
			"outputs": [],
			"stateMutability": "nonpayable",
			"type": "function"
		},
		{
			"inputs": [],
			"name": "updatePrice",
			"outputs": [],
			"stateMutability": "nonpayable",
			"type": "function"
		},
		{
			"inputs": [
				{
					"internalType": "uint256",
					"name": "",
					"type": "uint256"
				},
				{
					"internalType": "address",
					"name": "",
					"type": "address"
				}
			],
			"name": "userInfos",
			"outputs": [
				{
					"internalType": "uint256",
					"name": "amount",
					"type": "uint256"
				},
				{
					"internalType": "uint256",
					"name": "rewardDebt",
					"type": "uint256"
				},
				{
					"internalType": "uint256",
					"name": "lastDeposit",
					"type": "uint256"
				}
			],
			"stateMutability": "view",
			"type": "function"
		},
		{
			"inputs": [
				{
					"internalType": "bool",
					"name": "_whitelisted",
					"type": "bool"
				},
				{
					"internalType": "address",
					"name": "_address",
					"type": "address"
				}
			],
			"name": "whitelist",
			"outputs": [],
			"stateMutability": "nonpayable",
			"type": "function"
		},
		{
			"inputs": [
				{
					"internalType": "address",
					"name": "",
					"type": "address"
				}
			],
			"name": "whitelisted",
			"outputs": [
				{
					"internalType": "bool",
					"name": "",
					"type": "bool"
				}
			],
			"stateMutability": "view",
			"type": "function"
		},
		{
			"inputs": [
				{
					"internalType": "uint256",
					"name": "_pid",
					"type": "uint256"
				},
				{
					"internalType": "uint256",
					"name": "_amount",
					"type": "uint256"
				}
			],
			"name": "withdraw",
			"outputs": [],
			"stateMutability": "nonpayable",
			"type": "function"
		},
		{
			"inputs": [
				{
					"internalType": "uint256",
					"name": "_pid",
					"type": "uint256"
				}
			],
			"name": "withdrawWithoutRewards",
			"outputs": [],
			"stateMutability": "nonpayable",
			"type": "function"
		}
	]
}